01REMESSA01COBRANCA       916200163100        União Umb dos Cultos Afro Bra341BANCO ITAU SA  190318                                                                                                                                                                                                                                                                                                      000001
10231987175000168916200163100    000014239                    000142390000000000000109                     I0114239     23031800000000210003410000017N160318104700000000000102303180000000000000000000000000000000000000000100007476149739JAQUELINE DE ASSIS                      RUA: MIGUEL DE CARVALHO Nº 171         GUARATIBA - 23035640RIO DE JANEIRO RJUNIAO UMB DOS CULTOS AFRO BRAS    23031810 000002
10231987175000168916200163100    000014238                    000142380000000000000109                     I0114238     30051800000000035003410000017N160318104700000000000103005180000000000000000000000000000000000000000100078893739704DENISE QUEIROZ CARNEIRO                 ESTRADA DO LAMEIRAO/ RUA PAINEIRAS, 30  SANTISSIMO -23092031RIO DE JANEIRO RJUNIAO UMB DOS CULTOS AFRO BRAS    30051810 000003
10231987175000168916200163100    000014237                    000142370000000000000109                     I0114237     30041800000000035003410000017N160318104700000000000103004180000000000000000000000000000000000000000100078893739704DENISE QUEIROZ CARNEIRO                 ESTRADA DO LAMEIRAO/ RUA PAINEIRAS, 30  SANTISSIMO -23092031RIO DE JANEIRO RJUNIAO UMB DOS CULTOS AFRO BRAS    30041810 000004
10231987175000168916200163100    000014236                    000142360000000000000109                     I0114236     30051800000000035003410000017N160318104700000000000103005180000000000000000000000000000000000000000100046180303720ALANIR SOARES DA SILVA                  RUA QUATORZE, LOTE 14 QUADRA 32         SANTA CRUZ -23520292RIO DE JANEIRO RJUNIAO UMB DOS CULTOS AFRO BRAS    30051810 000005
10231987175000168916200163100    000014235                    000142350000000000000109                     I0114235     30041800000000035003410000017N160318104700000000000103004180000000000000000000000000000000000000000100046180303720ALANIR SOARES DA SILVA                  RUA QUATORZE, LOTE 14 QUADRA 32         SANTA CRUZ -23520292RIO DE JANEIRO RJUNIAO UMB DOS CULTOS AFRO BRAS    30041810 000006
10231987175000168916200163100    000014234                    000142340000000000000109                     I0114234     30051800000000035003410000017N160318104700000000000103005180000000000000000000000000000000000000000100000000013086FABIO DA SILVA                          RUA: CAMORIM                            JARDIM DELAM26317140QUEIMADOS      RJUNIAO UMB DOS CULTOS AFRO BRAS    30051810 000007
10231987175000168916200163100    000014233                    000142330000000000000109                     I0114233     30041800000000035003410000017N160318104700000000000103004180000000000000000000000000000000000000000100000000013086FABIO DA SILVA                          RUA: CAMORIM                            JARDIM DELAM26317140QUEIMADOS      RJUNIAO UMB DOS CULTOS AFRO BRAS    30041810 000008
10231987175000168916200163100    000014232                    000142320000000000000109                     I0114232     30051800000000035003410000017N160318104700000000000103005180000000000000000000000000000000000000000100001388677717EDSON LUIZ COSTA SOARES                 RUA: LEOCADIO MELLO 326                 JARDIM NOVA 26272060NOVA IGUACU    RJUNIAO UMB DOS CULTOS AFRO BRAS    30051810 000009
10231987175000168916200163100    000014231                    000142310000000000000109                     I0114231     30041800000000035003410000017N160318104700000000000103004180000000000000000000000000000000000000000100001388677717EDSON LUIZ COSTA SOARES                 RUA: LEOCADIO MELLO 326                 JARDIM NOVA 26272060NOVA IGUACU    RJUNIAO UMB DOS CULTOS AFRO BRAS    30041810 000010
10231987175000168916200163100    000014230                    000142300000000000000109                     I0114230     30051800000000035003410000017N160318104700000000000103005180000000000000000000000000000000000000000100009811465703ANDERSON FELIX BERNARDO DA SIL          O MESMO                                 O MESMO     26521410NILOPOLIS      RJUNIAO UMB DOS CULTOS AFRO BRAS    30051810 000011
10231987175000168916200163100    000014229                    000142290000000000000109                     I0114229     30041800000000035003410000017N160318104700000000000103004180000000000000000000000000000000000000000100009811465703ANDERSON FELIX BERNARDO DA SIL          O MESMO                                 O MESMO     26521410NILOPOLIS      RJUNIAO UMB DOS CULTOS AFRO BRAS    30041810 000012
10231987175000168916200163100    000014135                    000141350000000000000109                     I0214135     10031800000000830083410000017N280218104700000000000101003180000000000000000000000000000000000000000100013946879772ALDENI ALBENORA DA SILVA                RUA: JOAO DANIEL                        BENTO RIBEIR21550480RIO DE JANEIRO RJUNIAO UMB DOS CULTOS AFRO BRAS    10031810 000013
10231987175000168916200163100    000014134                    000141340000000000000109                     I0214134     10031800000000886863410000017N280218104700000000000101003180000000000000000000000000000000000000000100049547410768ROSELI DE SAO JOSE MOREIRA              RUA: ALCIDES MAIA                       BENTO RIBEIR21550560RIO DE JANEIRO RJUNIAO UMB DOS CULTOS AFRO BRAS    10031810 000014
10231987175000168916200163100    000014133                    000141330000000000000109                     I0214133     10031800000000763683410000017N280218104700000000000101003180000000000000000000000000000000000000000100000424410755ANA PAULA SILVA BARBOSA                 RUA: ALCIDES MAIA                       BENTO RIBEIR21550560RIO DE JANEIRO RJUNIAO UMB DOS CULTOS AFRO BRAS    10031810 000015
10231987175000168916200163100    000014132                    000141320000000000000109                     I0214132     10031800000000574083410000017N280218104700000000000101003180000000000000000000000000000000000000000100007854516766NATALIE SILVA DE LIMA                   RUA: JOAO DANIEL                        BENTO RIBEIR21550480RIO DE JANEIRO RJUNIAO UMB DOS CULTOS AFRO BRAS    10031810 000016
10231987175000168916200163100    000014131                    000141310000000000000109                     I0214131     10031800000000763573410000017N280218104700000000000101003180000000000000000000000000000000000000000100082228507768IARA LUCIA RIBEIRO QUINTINO             RUA: JOAO DANIEL                        BENTO RIBEIR21550480RIO DE JANEIRO RJUNIAO UMB DOS CULTOS AFRO BRAS    10031810 000017
10231987175000168916200163100    000014130                    000141300000000000000109                     I0214130     10031800000000299633410000017N280218104700000000000101003180000000000000000000000000000000000000000100068760680725ANNA LUCIA DE SOUZA                     RUA: JOAO DANIEL                        BENTO RIBEIR21550480RIO DE JANEIRO RJUNIAO UMB DOS CULTOS AFRO BRAS    10031810 000018
10231987175000168916200163100    000014127                    000141270000000000000109                     I0214127     10031800000000512953410000017N280218104700000000000101003180000000000000000000000000000000000000000100093728467791ALEX DE SOUZA MARTINS                   RUA: JOAO DANIEL                        BENTO RIBEIR21550480RIO DE JANEIRO RJUNIAO UMB DOS CULTOS AFRO BRAS    10031810 000019
10231987175000168916200163100    000014126                    000141260000000000000109                     I0214126     10031800000001200003410000017N280218104700000000000101003180000000000000000000000000000000000000000100012701486726MARIANA MAGALHAES DE C. J. I.           RUA: SALOMAO FILHO                      MARECHAL HER21331660RIO DE JANEIRO RJUNIAO UMB DOS CULTOS AFRO BRAS    10031810 000020
10231987175000168916200163100    000014112                    000141120000000000000109                     I0214112     10041800000000350003410000017N270218104700000000000101004180000000000000000000000000000000000000000100001440590702VERONICA MARIA MOREIRA                  RUA QUATORZE DE OUTUBRO, 268 GLEBA B    CHAPERO - IT23812285ITAGUAI        RJUNIAO UMB DOS CULTOS AFRO BRAS    10041810 000021
10231987175000168916200163100    000014108                    000141080000000000000109                     I0214108     10041800000000350003410000017N270218104700000000000101004180000000000000000000000000000000000000000100001866064789ALEXANDRE MENDONCA (XANDAO)             RUA TRES DE OUTUBRO, 667 - ENGENHO      CHAPERO - IT23830020CHAPERO - ITAGURJUNIAO UMB DOS CULTOS AFRO BRAS    10041810 000022
10231987175000168916200163100    000014098                    000140980000000000000109                     I0214098     10041800000000350003410000017N270218104700000000000101004180000000000000000000000000000000000000000100004826958706CRISTIANE RABELLO PAZ                   RUA ROBERTO SILVA N 540                 RAMOS - RIO 21060230RIO DE JANEIRO RJUNIAO UMB DOS CULTOS AFRO BRAS    10041810 000023
10231987175000168916200163100    000014097                    000140970000000000000109                     I0214097     10041800000000350003410000017N270218104700000000000101004180000000000000000000000000000000000000000100002880433754ROSELANE DOS SANTOS ADAO MENDE          RUA CORREGO DANTA, LOTE 26 QUADRA 22    PEDRA DE GUA23026500GUARATIBA      RJUNIAO UMB DOS CULTOS AFRO BRAS    10041810 000024
10231987175000168916200163100    000014077                    000140770000000000000109                     I0214077     15031800000000350003410000017N270218104700000000000101503180000000000000000000000000000000000000000100004826958706CRISTIANE RABELLO PAZ                   RUA ROBERTO SILVA N 540                 RAMOS - RIO 21060230RIO DE JANEIRO RJUNIAO UMB DOS CULTOS AFRO BRAS    15031810 000025
10231987175000168916200163100    000014063                    000140630000000000000109                     I0214063     05031800000000350003410000017N260218104700000000000100503180000000000000000000000000000000000000000100050942490763ANTONIO PAULO TRABACHINI                RUA DO CATETE, 347 LOJA 8               CATETE      22271100RIO DE JANEIRO RJUNIAO UMB DOS CULTOS AFRO BRAS    05031810 000026
10231987175000168916200163100    000014019                    000140190000000000000109                     I0214019     30051800000000035003410000017N230218104700000000000103005180000000000000000000000000000000000000000100002880433754ROSELANE DOS SANTOS ADAO MENDE          RUA CORREGO DANTA, LOTE 26 QUADRA 22    PEDRA DE GUA23026500GUARATIBA      RJUNIAO UMB DOS CULTOS AFRO BRAS    30051810 000027
10231987175000168916200163100    000014018                    000140180000000000000109                     I0214018     30041800000000035003410000017N230218104700000000000103004180000000000000000000000000000000000000000100002880433754ROSELANE DOS SANTOS ADAO MENDE          RUA CORREGO DANTA, LOTE 26 QUADRA 22    PEDRA DE GUA23026500GUARATIBA      RJUNIAO UMB DOS CULTOS AFRO BRAS    30041810 000028
10231987175000168916200163100    000014017                    000140170000000000000109                     I0214017     30031800000000035003410000017N230218104700000000000103003180000000000000000000000000000000000000000100002880433754ROSELANE DOS SANTOS ADAO MENDE          RUA CORREGO DANTA, LOTE 26 QUADRA 22    PEDRA DE GUA23026500GUARATIBA      RJUNIAO UMB DOS CULTOS AFRO BRAS    30031810 000029
10231987175000168916200163100    000014016                    000140160000000000000109                     I0214016     30051800000000035003410000017N230218104700000000000103005180000000000000000000000000000000000000000100004826958706CRISTIANE RABELLO PAZ                   RUA ROBERTO SILVA N 540                 RAMOS - RIO 21060230RIO DE JANEIRO RJUNIAO UMB DOS CULTOS AFRO BRAS    30051810 000030
10231987175000168916200163100    000014015                    000140150000000000000109                     I0214015     30041800000000035003410000017N230218104700000000000103004180000000000000000000000000000000000000000100004826958706CRISTIANE RABELLO PAZ                   RUA ROBERTO SILVA N 540                 RAMOS - RIO 21060230RIO DE JANEIRO RJUNIAO UMB DOS CULTOS AFRO BRAS    30041810 000031
10231987175000168916200163100    000014014                    000140140000000000000109                     I0214014     30031800000000035003410000017N230218104700000000000103003180000000000000000000000000000000000000000100004826958706CRISTIANE RABELLO PAZ                   RUA ROBERTO SILVA N 540                 RAMOS - RIO 21060230RIO DE JANEIRO RJUNIAO UMB DOS CULTOS AFRO BRAS    30031810 000032
10231987175000168916200163100    000014010                    000140100000000000000109                     I0214010     30051800000000035003410000017N230218104700000000000103005180000000000000000000000000000000000000000100000251892719JULIO CESAR PERRUSO                     RUA MEXIANA, 25                         SOUZA - CAMP23085790RIO DE JANEIRO RJUNIAO UMB DOS CULTOS AFRO BRAS    30051810 000033
10231987175000168916200163100    000014009                    000140090000000000000109                     I0214009     30041800000000035003410000017N230218104700000000000103004180000000000000000000000000000000000000000100000251892719JULIO CESAR PERRUSO                     RUA MEXIANA, 25                         SOUZA - CAMP23085790RIO DE JANEIRO RJUNIAO UMB DOS CULTOS AFRO BRAS    30041810 000034
10231987175000168916200163100    000014008                    000140080000000000000109                     I0214008     30031800000000035003410000017N230218104700000000000103003180000000000000000000000000000000000000000100000251892719JULIO CESAR PERRUSO                     RUA MEXIANA, 25                         SOUZA - CAMP23085790RIO DE JANEIRO RJUNIAO UMB DOS CULTOS AFRO BRAS    30031810 000035
10231987175000168916200163100    000014004                    000140040000000000000109                     I0214004     15031800000000400003410000017N230218104700000000000101503180000000000000000000000000000000000000000100047448865749NEUSA MARIA DA SILVA                    AVENIDA CORONEL PHIDIAS TAVORA, RUA LIRIJARDIM AMERI21535590RIO DE JANEIRO RJUNIAO UMB DOS CULTOS AFRO BRAS    15031810 000036
10231987175000168916200163100    00009105                     000091050000000000000109                     I029105      12031800000000300003410000017N190218104700000000000101203180000000000000000000000000000000000000000100067859372720MARLI MOREIRA ROSA CERQUEIRA            RUA DO POVO 11                          SANTO AGOSTI27214300VOLTA REDONDA  RJUNIAO UMB DOS CULTOS AFRO BRAS    12031810 000037
10231987175000168916200163100    00008933                     000089330000000000000109                     I348933      31011800000000035003410000017N020118104700000000000103101180000000000000000000000000000000000000000100053218833787MARLUCE SUELY DA SILVA                  RUA CHRISOSTOMO PIMENTEL DE OLIVEIRA, 63ANCHIETA - R21645521RIO DE JANEIRO RJUNIAO UMB DOS CULTOS AFRO BRAS    31011810 000038
10231987175000168916200163100    00008811                     000088110000000000000109                     I028811      31011800000000035003410000017N020118104700000000000103101180000000000000000000000000000000000000000100068824238734MARINETE LOPES DE MOURA                 RUA GENERAL, LOTE 4 QUADRA 2 N 9        PIABETA - MA25915000MAGE           RJUNIAO UMB DOS CULTOS AFRO BRAS    31011810 000039
10231987175000168916200163100    00008799                     000087990000000000000109                     I028799      31011800000000035003410000017N020118104700000000000103101180000000000000000000000000000000000000000100022002020778MARIA PALMIRA DE AMORIM LOPES           ESTRADA ANTONIO CARVALHO VENTURA, 1720 QALBUQUERQUE 25977280TERESOPOLIS    RJUNIAO UMB DOS CULTOS AFRO BRAS    31011810 000040
10231987175000168916200163100    00008697                     000086970000000000000109                     I028697      31011800000000035003410000017N020118104700000000000103101180000000000000000000000000000000000000000200000000009918MARIA CRISTINA FURTADO DOS SAN          RUA IVAN FORTES RUCH,  LOTE 14 - LOTEAMEMONTE FORMOS24738660S.GONCALO      RJUNIAO UMB DOS CULTOS AFRO BRAS    31011810 000041
10231987175000168916200163100    00008650                     000086500000000000000109                     I028650      31011800000000035003410000017N020118104700000000000103101180000000000000000000000000000000000000000200000000009287THIAGO BARBOSA DA SILVA                 RUA PEDRO DOMINGUES, 52 CASA 1          ENCANTADO - 20756080RIO DE JANEIRO RJUNIAO UMB DOS CULTOS AFRO BRAS    31011810 000042
10231987175000168916200163100    00008619                     000086190000000000000109                     I028619      31011800000000035003410000017N020118104700000000000103101180000000000000000000000000000000000000000100051192055772VALNEI VICENTE                          RUA REGINALDO, LOTE 10 E LOTE 11        CENTRO - BEL26173350BELFORD ROXO   RJUNIAO UMB DOS CULTOS AFRO BRAS    31011810 000043
10231987175000168916200163100    00008614                     000086140000000000000109                     I028614      31011800000000035003410000017N020118104700000000000103101180000000000000000000000000000000000000000100092336000768DIVA PINTO ROMUALDO                     RUA PARAISO QUADRA 129 LOTE 26          JARDIM CABUC26357140NOVA IGUACU    RJUNIAO UMB DOS CULTOS AFRO BRAS    31011810 000044
10231987175000168916200163100    00008602                     000086020000000000000109                     I028602      31011800000000035003410000017N020118104700000000000103101180000000000000000000000000000000000000000100027686205720DENNIS CLARE                            RUA: RATICLIFF                          RIACHUELO   20950170RIO DE JANEIRO RJUNIAO UMB DOS CULTOS AFRO BRAS    31011810 000045
10231987175000168916200163100    00008536                     000085360000000000000109                     I028536      31011800000000035003410000017N020118104700000000000103101180000000000000000000000000000000000000000200000000002685JOSE MESSIAS RODRIGUES DA COST          RUA ARARE N 51 CASA 1                   REALENGO - R21765500RIO DE JANEIRO RJUNIAO UMB DOS CULTOS AFRO BRAS    31011810 000046
10231987175000168916200163100    00008466                     000084660000000000000109                     I028466      31011800000000035003410000017N020118104700000000000103101180000000000000000000000000000000000000000200000000006641SONIA ROCHA DA SILVA                    RUA FERNANDO DA COSTA, LOTE 3 QUADRA O  LOTE XV - BE26183540BELFORD ROXO   RJUNIAO UMB DOS CULTOS AFRO BRAS    31011810 000047
10231987175000168916200163100    00008430                     000084300000000000000109                     I028430      31011800000000035003410000017N020118104700000000000103101180000000000000000000000000000000000000000100076870090700JORGE JOSE RIVELO                       RUA MANDAGUARI LOTE 9 QUADRA 124        CURICICA - J22710120RIO DE JANEIRO RJUNIAO UMB DOS CULTOS AFRO BRAS    31011810 000048
10231987175000168916200163100    00004625                     000046250000000000000109                     I024625      22121700000000350003410000017N171117104700000000000102212170000000000000000000000000000000000000000100002413242708NIVEA MARIA NARCIZO CONCEICAO           O MESMO                                 O MESMO     24344565NITEROI        RJUNIAO UMB DOS CULTOS AFRO BRAS    22121710 000049
10231987175000168916200163100    00004485                     000044850000000000000109                     I024485      22121700000000350003410000017N171117104700000000000102212170000000000000000000000000000000000000000100002171972726RAQUEL DE SOUZA MENESES                 RUA ROMENRO ZENDER N 271 ENTRADA APT 104RAMOS - RIO 21040080RIO DE JANEIRO RJUNIAO UMB DOS CULTOS AFRO BRAS    22121710 000050
10231987175000168916200163100    00004429                     000044290000000000000109                     I024429      22121700000000350003410000017N171117104700000000000102212170000000000000000000000000000000000000000100001147868794VALERIA APARECIDA DE SOUZA              RUA ALCYR BRASIL N 710                  JARDIM NOVA 26266010NOVA IGUACU    RJUNIAO UMB DOS CULTOS AFRO BRAS    22121710 000051
10231987175000168916200163100    00004169                     000041690000000000000109                     I024169      22121700000000350003410000017N171117104700000000000102212170000000000000000000000000000000000000000100009036923760ERIKA BARBOSA DOS SANTOS                AVENIDA ERNANI CARDOSO, 53 FUNDOS CASA 1CASCADURA - 21310310RIO DE JANEIRO RJUNIAO UMB DOS CULTOS AFRO BRAS    22121710 000052
10231987175000168916200163100    00004143                     000041430000000000000109                     I024143      22121700000000350003410000017N171117104700000000000102212170000000000000000000000000000000000000000100079921947804GILSON ANDRADE                          RUA TANGI, LOTE 12 QUADRA C             PARQUE REAL 26175025BELFORD ROXO   RJUNIAO UMB DOS CULTOS AFRO BRAS    22121710 000053
10231987175000168916200163100    00004129                     000041290000000000000109                     I024129      22121700000000350003410000017N171117104700000000000102212170000000000000000000000000000000000000000100001447704746MARCOS FAGUNDES MARTINS                 ESTRADA DA PEDRA, 167                   SANTA CRUZ  23520241RIO DE JANEIRO RJUNIAO UMB DOS CULTOS AFRO BRAS    22121710 000054
10231987175000168916200163100    00004050                     000040500000000000000109                     I024050      15011800000000350003410000017N171117104700000000000101501180000000000000000000000000000000000000000100064775640763TANIA CORREA LEITE                      RUA DOUTOR LUIS GAUDIE LEY N 99 (2ª LIGPENHA - RIO 21070100RIO DE JANEIRO RJUNIAO UMB DOS CULTOS AFRO BRAS    15011810 000055
10231987175000168916200163100    00003932                     000039320000000000000109                     I023932      22121700000000350003410000017N171117104700000000000102212170000000000000000000000000000000000000000100059475161791MARIA NAZARETE ALVES ANTONIO            TRAVESSA SANTOS DUMONT, 23 FUNDOS       ILHA DO GOVE21910490RIO DE JANEIRO RJUNIAO UMB DOS CULTOS AFRO BRAS    22121710 000056
10231987175000168916200163100    00003922                     000039220000000000000109                     I023922      22121700000000350003410000017N171117104700000000000102212170000000000000000000000000000000000000000100008664578756ATILA LARRICE GALDINO                   RUA MINERVINA NUNES DA COSTA, 238 FUNDOSPARQUE ANCHI21635350RIO DE JANEIRO RJUNIAO UMB DOS CULTOS AFRO BRAS    22121710 000057
10231987175000168916200163100    00003908                     000039080000000000000109                     I023908      22121700000000350003410000017N171117104700000000000102212170000000000000000000000000000000000000000100010703174703LEILIANE NOGUEIRA OLIVEIRA              TRAVESSA VINTE E OITO, 6                PARQUE SANTA26115230BELFORD ROXO   RJUNIAO UMB DOS CULTOS AFRO BRAS    22121710 000058
10231987175000168916200163100    00003837                     000038370000000000000109                     I023837      22121700000000350003410000017N171117104700000000000102212170000000000000000000000000000000000000000100001556268767ANTONIO CARLOS DA CONCEICAO SA          RUA EMILIA MARTINS  84                  VILA MARTINS26043010NOVA IGUACU    RJUNIAO UMB DOS CULTOS AFRO BRAS    22121710 000059
10231987175000168916200163100    00003698                     000036980000000000000109                     I023698      22121700000000350003410000017N171117104700000000000102212170000000000000000000000000000000000000000100005383774700VILMA MACEDO COIMBRA DOS SANTO          RUA TOQUIO, 571                         AGOSTINHO PO25545211SAO JOAO DE MERRJUNIAO UMB DOS CULTOS AFRO BRAS    22121710 000060
10231987175000168916200163100    00003667                     000036670000000000000109                     I023667      22121700000000350003410000017N171117104700000000000102212170000000000000000000000000000000000000000100046180303720ALANIR SOARES DA SILVA                  RUA QUATORZE, LOTE 14 QUADRA 32         SANTA CRUZ -23520292RIO DE JANEIRO RJUNIAO UMB DOS CULTOS AFRO BRAS    22121710 000061
10231987175000168916200163100    00003548                     000035480000000000000109                     I023548      22121700000000350003410000017N171117104700000000000102212170000000000000000000000000000000000000000100007359102782MARIA GORETE DA CONCEICAO               RUA: CINTIA Nº 343 - JARDIM CANAA      NOVA IGUACU 26262070NOVA IGUACU    RJUNIAO UMB DOS CULTOS AFRO BRAS    22121710 000062
10231987175000168916200163100    00003516                     000035160000000000000109                     I023516      22121700000000350003410000017N171117104700000000000102212170000000000000000000000000000000000000000100083819991700LUZIA GERALDINA DA SILVA                ESTRADA DA FAZENDINHA N 5 FUNDOS        BADU - NITER23320420NITEROI        RJUNIAO UMB DOS CULTOS AFRO BRAS    22121710 000063
10231987175000168916200163100    00003428                     000034280000000000000109                     I023428      22121700000000350003410000017N171117104700000000000102212170000000000000000000000000000000000000000100078893739704DENISE QUEIROZ CARNEIRO                 ESTRADA DO LAMEIRAO/ RUA PAINEIRAS, 30  SANTISSIMO -23092031RIO DE JANEIRO RJUNIAO UMB DOS CULTOS AFRO BRAS    22121710 000064
10231987175000168916200163100    00003400                     000034000000000000000109                     I023400      22121700000000350003410000017N171117104700000000000102212170000000000000000000000000000000000000000100020857690701MARCELO ANTONIO COSTA TEIXEIRA          RUA TUPINIQUINS N 220 FUNDOS            VICENTE DE C21370630RIO DE JANEIRO RJUNIAO UMB DOS CULTOS AFRO BRAS    22121710 000065
10231987175000168916200163100    00003034                     000030340000000000000109                     I023034      31121700000000035003410000017N131117104700000000000103112170000000000000000000000000000000000000000100002171972726RAQUEL DE SOUZA MENESES                 RUA ROMENRO ZENDER N 271 ENTRADA APT 104RAMOS - RIO 21040080RIO DE JANEIRO RJUNIAO UMB DOS CULTOS AFRO BRAS    31121710 000066
10231987175000168916200163100    00002934                     000029340000000000000109                     I022934      31121700000000035003410000017N131117104700000000000103112170000000000000000000000000000000000000000100071653015772VALERIA RANGEL BEZERRA                  RUA FIRMINO FRAGOSO N 131 CASA 8 APT 101MADUREIRA - 21351090RIO DE JANEIRO RJUNIAO UMB DOS CULTOS AFRO BRAS    31121710 000067
10231987175000168916200163100    00002436                     000024360000000000000109                     I022436      31121700000000035003410000017N131117104700000000000103112170000000000000000000000000000000000000000100008664578756ATILA LARRICE GALDINO                   RUA MINERVINA NUNES DA COSTA, 238 FUNDOSPARQUE ANCHI21635350RIO DE JANEIRO RJUNIAO UMB DOS CULTOS AFRO BRAS    31121710 000068
10231987175000168916200163100    00002179                     000021790000000000000109                     I022179      31121700000000035003410000017N131117104700000000000103112170000000000000000000000000000000000000000100046180303720ALANIR SOARES DA SILVA                  RUA QUATORZE, LOTE 14 QUADRA 32         SANTA CRUZ -23520292RIO DE JANEIRO RJUNIAO UMB DOS CULTOS AFRO BRAS    31121710 000069
10231987175000168916200163100    00002058                     000020580000000000000109                     I022058      31121700000000035003410000017N131117104700000000000103112170000000000000000000000000000000000000000100007359102782MARIA GORETE DA CONCEICAO               RUA: CINTIA Nº 343 - JARDIM CANAA      NOVA IGUACU 26262070NOVA IGUACU    RJUNIAO UMB DOS CULTOS AFRO BRAS    31121710 000070
10231987175000168916200163100    00001935                     000019350000000000000109                     I021935      31121700000000035003410000017N131117104700000000000103112170000000000000000000000000000000000000000100078893739704DENISE QUEIROZ CARNEIRO                 ESTRADA DO LAMEIRAO/ RUA PAINEIRAS, 30  SANTISSIMO -23092031RIO DE JANEIRO RJUNIAO UMB DOS CULTOS AFRO BRAS    31121710 000071
9                                                                                                                                                                                                                                                                                                                                                                                                         000072
