01REMESSA01COBRANCA       817800093673        União Umb dos Cultos Afro Bra341BANCO ITAU SA  190118                                                                                                                                                                                                                                                                                                      000001
10231987175000168817800093673    00006910                     000069100000000000000109                     I016910      28021800000000035003410000017N271217104700000000000102802180000000000000000000000000000000000000000100010949550434JOAO BATISTA PEREIRA DE VASCON          RUA NEIDE ALVES DA SILVA, 162           JARDIM SAO S58306450BAYEUX         PBUNIAO UMB DOS CULTOS AFRO BRAS    28021810 000002
10231987175000168817800093673    00006909                     000069090000000000000109                     I016909      28021800000000035003410000017N271217104700000000000102802180000000000000000000000000000000000000000100073408042772VANDA CEZARIO LIMA BRAZ                 RUA JOSE FERNANDES DE OLIVEIRA, 70      CENTRO - NIL26521640NILOPOLIS      RJUNIAO UMB DOS CULTOS AFRO BRAS    28021810 000003
10231987175000168817800093673    00006908                     000069080000000000000109                     I016908      28021800000000035003410000017N271217104700000000000102802180000000000000000000000000000000000000000100007228447786JEFFERSON CACADOR DE LIMA               RUA GEREMARIO DANTAS, 885 BLOCO 1 APTO 3PECHINCHA - 22743011RIO DE JANEIRO RJUNIAO UMB DOS CULTOS AFRO BRAS    28021810 000004
10231987175000168817800093673    00006907                     000069070000000000000109                     I016907      28021800000000035003410000017N271217104700000000000102802180000000000000000000000000000000000000000100033927499749JORGE CARDOSO DE MACEDO                 RUA G, LOTE 29 QUADRA 11                GRANJA SANTA25900000PIABETA - MAGE RJUNIAO UMB DOS CULTOS AFRO BRAS    28021810 000005
10231987175000168817800093673    00006906                     000069060000000000000109                     I016906      28021800000000035003410000017N271217104700000000000102802180000000000000000000000000000000000000000100001215240783SONIA MARIA ROSA BRANDAO                RUA ARARUAMA, 280                       BANGU - RJ  21562050RIO DE JANEIRO RJUNIAO UMB DOS CULTOS AFRO BRAS    28021810 000006
10231987175000168817800093673    00006905                     000069050000000000000109                     I016905      28021800000000035003410000017N271217104700000000000102802180000000000000000000000000000000000000000100060894628704TERESINHA DE JESUS BIL RAMOS T          RUA GENERAL MIGUEL FERREIRA, 178 RUA E CTAQUARA - RI22770590RIO DE JANEIRO RJUNIAO UMB DOS CULTOS AFRO BRAS    28021810 000007
10231987175000168817800093673    00006903                     000069030000000000000109                     I016903      28021800000000035003410000017N271217104700000000000102802180000000000000000000000000000000000000000100059130091772JORGE LUIZ CERUTTI AMADI                RUA EUNICE DE MENEZES, CASA 2 LOTE 7    VENDA VELHA 25565470SAO JOAO DE MERRJUNIAO UMB DOS CULTOS AFRO BRAS    28021810 000008
10231987175000168817800093673    00006902                     000069020000000000000109                     I016902      28021800000000035003410000017N271217104700000000000102802180000000000000000000000000000000000000000100063629852734ZULEICA JANINA BOMFIM AMARAL            RUA DA CAPELA, 744                      ESTACIO - RI20250051RIO DE JANEIRO RJUNIAO UMB DOS CULTOS AFRO BRAS    28021810 000009
10231987175000168817800093673    00006901                     000069010000000000000109                     I016901      28021800000000035003410000017N271217104700000000000102802180000000000000000000000000000000000000000100005529010750JOELMA MELO DA SILVA                    RUA ELIEZER ALVES DA ROCHA, 226         RAUL VEIGA -24710640SAO GONCALO    RJUNIAO UMB DOS CULTOS AFRO BRAS    28021810 000010
10231987175000168817800093673    00006900                     000069000000000000000109                     I016900      28021800000000035003410000017N271217104700000000000102802180000000000000000000000000000000000000000100085958549715TANIA REGINA LONTRA BITTENCOUR          RUA MARIO SANTANA, 1 BLOCO 17 APTO 103  WONA  - BELF26176285BELFORD ROXO   RJUNIAO UMB DOS CULTOS AFRO BRAS    28021810 000011
10231987175000168817800093673    00006899                     000068990000000000000109                     I016899      28021800000000035003410000017N271217104700000000000102802180000000000000000000000000000000000000000100037433288791VERA LUCIA COSTA MOACYR                 RUA JOANA KALIL, LOTE 6 QUADRA 51       JARDIM MERIT25555100SAO JOAO DE MERRJUNIAO UMB DOS CULTOS AFRO BRAS    28021810 000012
10231987175000168817800093673    00006898                     000068980000000000000109                     I016898      28021800000000035003410000017N271217104700000000000102802180000000000000000000000000000000000000000100001817781731JORGE LUIZ MENDES DA CUNHA              RUA  VASCO DA GAMA, 36                  CACHAMBI - R20771310RIO DE JANEIRO RJUNIAO UMB DOS CULTOS AFRO BRAS    28021810 000013
10231987175000168817800093673    00006897                     000068970000000000000109                     I016897      28021800000000035003410000017N271217104700000000000102802180000000000000000000000000000000000000000100007540937785MICHEL FREIRE HUGUENIN                  RUA CARLOS XAVIER, 416 FUNDOS           OSWALDO CRUZ21310000RIO DE JANEIRO RJUNIAO UMB DOS CULTOS AFRO BRAS    28021810 000014
10231987175000168817800093673    00006896                     000068960000000000000109                     I016896      28021800000000035003410000017N271217104700000000000102802180000000000000000000000000000000000000000100073590690763JORGE ARAUJO LOURENCO                   RUA JUPARA, 96 CASA 2 FUNDOS            SAO CRISTOVA20911060RIO DE JANEIRO RJUNIAO UMB DOS CULTOS AFRO BRAS    28021810 000015
10231987175000168817800093673    00006895                     000068950000000000000109                     I016895      28021800000000035003410000017N271217104700000000000102802180000000000000000000000000000000000000000100002051058741CRISTIANE SANTANA GURGEL CORTE          RUA  JONAS AMANCIO, 160  - AMANDA       CAMPO GRANDE23092710RIO DE JANEIRO RJUNIAO UMB DOS CULTOS AFRO BRAS    28021810 000016
10231987175000168817800093673    00006894                     000068940000000000000109                     I016894      28021800000000035003410000017N271217104700000000000102802180000000000000000000000000000000000000000100002727538740DILNEI PEREIRA CRUZ                     RUA ALAIDE MARINHO, 52                  JARDIM NOVA 26272240NOVA IGUACU    RJUNIAO UMB DOS CULTOS AFRO BRAS    28021810 000017
10231987175000168817800093673    00006892                     000068920000000000000109                     I016892      28021800000000035003410000017N271217104700000000000102802180000000000000000000000000000000000000000100093778244787GENEILDA RANGEL SMITH                   RUA MARIA LUIZA REIS , 850              ENGENHEIRO D25015045DUQUE DE CAXIASRJUNIAO UMB DOS CULTOS AFRO BRAS    28021810 000018
10231987175000168817800093673    00006891                     000068910000000000000109                     I016891      28021800000000035003410000017N271217104700000000000102802180000000000000000000000000000000000000000100000904501752ALEXANDRE DOS ANJOS PIMENTEL            AVENIDA DOM HELDER CAMARA, 1595 BLOCO 18BENFICA - RI20973011RIO DE JANEIRO RJUNIAO UMB DOS CULTOS AFRO BRAS    28021810 000019
10231987175000168817800093673    00006890                     000068900000000000000109                     I016890      28021800000000035003410000017N271217104700000000000102802180000000000000000000000000000000000000000100010415045789CRISTIANO SOUZA BATISTA                 RUA SEIS DE ABRIL, 270                  CABUCU - NOV26293336NOVA IGUACU    RJUNIAO UMB DOS CULTOS AFRO BRAS    28021810 000020
10231987175000168817800093673    00006889                     000068890000000000000109                     I016889      28021800000000035003410000017N271217104700000000000102802180000000000000000000000000000000000000000100000441487718DALVA LUIZ GOMES                        RUA: PARAISO LOTE 10 QUADRA 94 CASA 3 - NOVA IGUACU 26291446NOVA IGUACU    RJUNIAO UMB DOS CULTOS AFRO BRAS    28021810 000021
10231987175000168817800093673    00006886                     000068860000000000000109                     I016886      28021800000000035003410000017N271217104700000000000102802180000000000000000000000000000000000000000100014842140720HUDSON WALLACE ANGELO DA SILVA          O MESMO                                 O MESMO     25220689DUQUE DE CAXIASRJUNIAO UMB DOS CULTOS AFRO BRAS    28021810 000022
10231987175000168817800093673    00006885                     000068850000000000000109                     I016885      28021800000000035003410000017N271217104700000000000102802180000000000000000000000000000000000000000100009396919730CATIA DE SOUZA SANTIAGO                 ESTRADA SAO FRANCISCO, 766 - SURUI      SURUI - MAGE25900000MAGE           RJUNIAO UMB DOS CULTOS AFRO BRAS    28021810 000023
10231987175000168817800093673    00006871                     000068710000000000000109                     I016871      28021800000000035003410000017N271217104700000000000102802180000000000000000000000000000000000000000100004162486751IVONETE CRISTINA MARTINS MACHA          RUA DO CATETE, 5 FUNDOS                 VILA LEOPOLD25060230DUQUE DE CAXIASRJUNIAO UMB DOS CULTOS AFRO BRAS    28021810 000024
10231987175000168817800093673    00006870                     000068700000000000000109                     I016870      28021800000000035003410000017N271217104700000000000102802180000000000000000000000000000000000000000100067348793720MARCIO DE SOUZA MOURA                   RUA CAJUIPE,  110                       BONSUCESSO -21060490RIO DE JANEIRO RJUNIAO UMB DOS CULTOS AFRO BRAS    28021810 000025
10231987175000168817800093673    00006869                     000068690000000000000109                     I016869      28021800000000035003410000017N271217104700000000000102802180000000000000000000000000000000000000000100008548472782ADRIANO MENDES DA COSTA                 RUA  J, 16 CASA                         CAMPINHO - R21330735RIO DE JANEIRO RJUNIAO UMB DOS CULTOS AFRO BRAS    28021810 000026
10231987175000168817800093673    00006868                     000068680000000000000109                     I016868      28021800000000035003410000017N271217104700000000000102802180000000000000000000000000000000000000000100072214171720ROBSON ROGERIO CRUZ                     TRAVESSA ALMERINDA FREITAS,  25 SALA 408MADUREIRA - 21350280RIO DE JANEIRO RJUNIAO UMB DOS CULTOS AFRO BRAS    28021810 000027
10231987175000168817800093673    00006867                     000068670000000000000109                     I016867      28021800000000035003410000017N271217104700000000000102802180000000000000000000000000000000000000000100014806247723JEFFERSON DA CUNHA AREAS                RUA DOZE, 196                           NOVA MARILIA25900000MAGE           RJUNIAO UMB DOS CULTOS AFRO BRAS    28021810 000028
10231987175000168817800093673    00006866                     000068660000000000000109                     I016866      28021800000000035003410000017N271217104700000000000102802180000000000000000000000000000000000000000100001254302727EDUARDO ROSA                            RUA PARAGUACU CARNEIRO, 55 CASA         PARQUE ANCHI21635390RIO DE JANEIRO RJUNIAO UMB DOS CULTOS AFRO BRAS    28021810 000029
10231987175000168817800093673    00006865                     000068650000000000000109                     I016865      28021800000000035003410000017N271217104700000000000102802180000000000000000000000000000000000000000100003747539700MARCIA SANTANA DA SILVA COSTA           RUA GOVERNADOR PORTELA  CASA 2 LOTE 3 QUPQ ARARUAMA 25580690SAO JOAO DE MERRJUNIAO UMB DOS CULTOS AFRO BRAS    28021810 000030
10231987175000168817800093673    00006864                     000068640000000000000109                     I016864      28021800000000035003410000017N271217104700000000000102802180000000000000000000000000000000000000000100089511000730JORGE LUIS DE OLIVEIRA QUEIROZ          RUA JOSE ALVES PIMENTA, 912 CASA 1      MATADOURO - 27115010BARRA DO PIRAI RJUNIAO UMB DOS CULTOS AFRO BRAS    28021810 000031
10231987175000168817800093673    00006863                     000068630000000000000109                     I016863      28021800000000035003410000017N271217104700000000000102802180000000000000000000000000000000000000000100080285570749KATIA REGINA SILVA DE SOUZA             RUA JACARACI,  46                       REALENGO - R21710140RIO DE JANEIRO RJUNIAO UMB DOS CULTOS AFRO BRAS    28021810 000032
10231987175000168817800093673    00006862                     000068620000000000000109                     I016862      28021800000000035003410000017N271217104700000000000102802180000000000000000000000000000000000000000100002680887484MARIA APARECIDA DOS SANTOS MEN          RUA LUIZ MATEUS, 54 FUNDOS              VAZ MARTINS 26291018NOVA IGUACU    RJUNIAO UMB DOS CULTOS AFRO BRAS    28021810 000033
10231987175000168817800093673    00006861                     000068610000000000000109                     I016861      28021800000000035003410000017N271217104700000000000102802180000000000000000000000000000000000000000100098726978768MARIA STELA GOMES DA SILVA              RUA NARA, 10 - JARDIM LARANJEIRAS       CABUCU - NOV26291269NOVA IGUACU    RJUNIAO UMB DOS CULTOS AFRO BRAS    28021810 000034
10231987175000168817800093673    00006860                     000068600000000000000109                     I026860      28021800000000035003410000017N271217104700000000000102802180000000000000000000000000000000000000000100097314919704CLAUDIA ESTRELA RODRIGUES SERA          RUA NORTE, 298                          ROSA DOS VEN26276620NOVA IGUACU    RJUNIAO UMB DOS CULTOS AFRO BRAS    28021810 000035
10231987175000168817800093673    00006859                     000068590000000000000109                     I016859      28021800000000035003410000017N271217104700000000000102802180000000000000000000000000000000000000000100000516266802MARCELO DOS SANTOS                      RUA MANAUS, 241 CASA 103 FUNDOS         REALENGO - R21730050RIO DE JANEIRO RJUNIAO UMB DOS CULTOS AFRO BRAS    28021810 000036
10231987175000168817800093673    00006858                     000068580000000000000109                     I016858      28021800000000035003410000017N271217104700000000000102802180000000000000000000000000000000000000000100015188766760VICTOR DOS ANJOS PAVAO                  RUA DOUTOR ARI CHAGAS, 497              SEPETIBA - R23540000RIO DE JANEIRO RJUNIAO UMB DOS CULTOS AFRO BRAS    28021810 000037
10231987175000168817800093673    00006857                     000068570000000000000109                     I016857      28021800000000035003410000017N271217104700000000000102802180000000000000000000000000000000000000000100079921947804GILSON ANDRADE                          RUA TANGI, LOTE 12 QUADRA C             PARQUE REAL 26175025BELFORD ROXO   RJUNIAO UMB DOS CULTOS AFRO BRAS    28021810 000038
10231987175000168817800093673    00006856                     000068560000000000000109                     I016856      28021800000000035003410000017N271217104700000000000102802180000000000000000000000000000000000000000100007271009710MARCELLO FERREIRA DE ARAUJO             RUA IPEUVA, 106                         BRAZ DE PINA21215400RIO DE JANEIRO RJUNIAO UMB DOS CULTOS AFRO BRAS    28021810 000039
10231987175000168817800093673    00006855                     000068550000000000000109                     I016855      28021800000000035003410000017N271217104700000000000102802180000000000000000000000000000000000000000100091613965591SIMONE OLIVEIRA MACEDO                  ESTRADA CANCELA PRETA, 2120             BANGU - RIO 21725010RIO DE JANEIRO RJUNIAO UMB DOS CULTOS AFRO BRAS    28021810 000040
10231987175000168817800093673    00006854                     000068540000000000000109                     I016854      28021800000000035003410000017N271217104700000000000102802180000000000000000000000000000000000000000100003259472797IVONETE MARIA DA SILVA                  RUA RAFAEL LANGONE, 192                 CENTRO      25880000SAPUCAIA       RJUNIAO UMB DOS CULTOS AFRO BRAS    28021810 000041
10231987175000168817800093673    00006853                     000068530000000000000109                     I016853      28021800000000035003410000017N271217104700000000000102802180000000000000000000000000000000000000000100013222358729AMANDA PAULA TORRES DE SOUZA            RUA JOAO VICENTE, 261                   MADUREIRA   21340020RIO DE JANEIRO RJUNIAO UMB DOS CULTOS AFRO BRAS    28021810 000042
10231987175000168817800093673    00006852                     000068520000000000000109                     I016852      28021800000000035003410000017N271217104700000000000102802180000000000000000000000000000000000000000100000092416713LOURDES GONCALVES DA SILVA CAB          RUA GUATEMALA, 467 CASA 1 FRENTE        PENHA CIRCUL21020170RIO DE JANEIRO RJUNIAO UMB DOS CULTOS AFRO BRAS    28021810 000043
10231987175000168817800093673    00006851                     000068510000000000000109                     I016851      28021800000000035003410000017N271217104700000000000102802180000000000000000000000000000000000000000100000896315797ROSANGELA GONCALVES BONZOUMET           RUA CORREIO DO RIO, 155                 TAQUARA     22715010RIO DE JANEIRO RJUNIAO UMB DOS CULTOS AFRO BRAS    28021810 000044
10231987175000168817800093673    00006850                     000068500000000000000109                     I016850      28021800000000035003410000017N271217104700000000000102802180000000000000000000000000000000000000000100004168412792SERGIO LUIZ PEREIRA DOS SANTOS          RUA CORONEL JOAO DA SILVA MOREIRA, 54   CAIEIRA VELH27145170RIO DE JANEIRO RJUNIAO UMB DOS CULTOS AFRO BRAS    28021810 000045
10231987175000168817800093673    00006849                     000068490000000000000109                     I016849      28021800000000035003410000017N271217104700000000000102802180000000000000000000000000000000000000000100074734440778NILMA SANTOS ANDRADE                    RUA AGUIA BRANCA, LOTE 15 QUADRA 68     CAROBINHA   23097630RIO DE JANEIRO RJUNIAO UMB DOS CULTOS AFRO BRAS    28021810 000046
10231987175000168817800093673    00006848                     000068480000000000000109                     I016848      28021800000000035003410000017N271217104700000000000102802180000000000000000000000000000000000000000100002478890755GRETGHEN LUIZ DE MELO                   RUA MANOEL GAMA, 198 A 1O ANDAR         VILA TIRADEN25525390SAO JOAO DE MERRJUNIAO UMB DOS CULTOS AFRO BRAS    28021810 000047
10231987175000168817800093673    00006847                     000068470000000000000109                     I016847      28021800000000035003410000017N271217104700000000000102802180000000000000000000000000000000000000000100001447704746MARCOS FAGUNDES MARTINS                 ESTRADA DA PEDRA, 167                   SANTA CRUZ  23520241RIO DE JANEIRO RJUNIAO UMB DOS CULTOS AFRO BRAS    28021810 000048
10231987175000168817800093673    00006846                     000068460000000000000109                     I016846      28021800000000035003410000017N271217104700000000000102802180000000000000000000000000000000000000000100011376749700ROGERIO CORREIA DA COSTA                RUA SANTA CATARINA, 18 JD MARIANA       IMBARIE - DU25271010DUQUE DE CAXIASRJUNIAO UMB DOS CULTOS AFRO BRAS    28021810 000049
10231987175000168817800093673    00006845                     000068450000000000000109                     I016845      28021800000000035003410000017N271217104700000000000102802180000000000000000000000000000000000000000100077217942772LUIZ CLAUDIO CONCEICAO MAIA             RUA DOUTOR THOUZET, 577 B - FUNDOS      QUITANDINHA 25650061PETROPOLIS     RJUNIAO UMB DOS CULTOS AFRO BRAS    28021810 000050
10231987175000168817800093673    00006844                     000068440000000000000109                     I016844      28021800000000035003410000017N271217104700000000000102802180000000000000000000000000000000000000000100003367432709KHRYSTIENE COSTA MOTTA                  RUA PINHEIRO CHAGAS, 74                 PARQUE ANCHI21620500RIO DE JANEIRO RJUNIAO UMB DOS CULTOS AFRO BRAS    28021810 000051
10231987175000168817800093673    00006843                     000068430000000000000109                     I016843      28021800000000035003410000017N271217104700000000000102802180000000000000000000000000000000000000000100010475138708CAMILA ARAUJO DA MOTTA                  RUA SAO BRAZ, 232 APTO 202              TODOS OS SAN20770150RIO DE JANEIRO RJUNIAO UMB DOS CULTOS AFRO BRAS    28021810 000052
10231987175000168817800093673    00006842                     000068420000000000000109                     I016842      28021800000000035003410000017N271217104700000000000102802180000000000000000000000000000000000000000100001189035782ANDERSON MELLO DE PAULA                 RUA CARATINGA, 15                       HONORIO GURG21511200RIO DE JANEIRO RJUNIAO UMB DOS CULTOS AFRO BRAS    28021810 000053
10231987175000168817800093673    00006841                     000068410000000000000109                     I016841      28021800000000035003410000017N271217104700000000000102802180000000000000000000000000000000000000000100014324870780ANDREY SANTOS ESTEVES                   RUA GENERAL SEZEFREDO, 7 - REALENGO     REALENGO/RJ 21715060RIO DE JANEIRO RJUNIAO UMB DOS CULTOS AFRO BRAS    28021810 000054
10231987175000168817800093673    00006840                     000068400000000000000109                     I016840      28021800000000035003410000017N271217104700000000000102802180000000000000000000000000000000000000000100078501946753ELIANA GONCALVES DE SOUZA               RUA  DOUTOR GARNIER, 381                ROCHA - RIO 20975000RIO DE JANEIRO RJUNIAO UMB DOS CULTOS AFRO BRAS    28021810 000055
10231987175000168817800093673    00006839                     000068390000000000000109                     I016839      28021800000000035003410000017N271217104700000000000102802180000000000000000000000000000000000000000100049498320772LUZIA INACIO BARBOSA                    RUA JOAO ALBERTO, LOTE 2 QUADRA 36      EDEN - SAO J25540060SAO JOAO DE MERRJUNIAO UMB DOS CULTOS AFRO BRAS    28021810 000056
10231987175000168817800093673    00006838                     000068380000000000000109                     I016838      28021800000000035003410000017N271217104700000000000102802180000000000000000000000000000000000000000100002830222725SHEILA RODRIGUES                        RUA DOS OPERARIOS, 379                  NOVO MUNDO -25900000MAGE           RJUNIAO UMB DOS CULTOS AFRO BRAS    28021810 000057
10231987175000168817800093673    00006837                     000068370000000000000109                     I016837      28021800000000035003410000017N271217104700000000000102802180000000000000000000000000000000000000000100074593250749ELIZABETH DA SILVA OLIVEIRA             RUA QUINZE, 1303 CASA 2                 TEIXEIRA - I23819230ITAGUAI        RJUNIAO UMB DOS CULTOS AFRO BRAS    28021810 000058
10231987175000168817800093673    00006836                     000068360000000000000109                     I016836      28021800000000035003410000017N271217104700000000000102802180000000000000000000000000000000000000000100032955761420VRADELEIDE MARIA DOS SANTOS             ESTRADA MARACAJAS, 725 CASA 2 FUNDOS    ILHA DO GOVE21941390RIO DE JANEIRO RJUNIAO UMB DOS CULTOS AFRO BRAS    28021810 000059
10231987175000168817800093673    00006835                     000068350000000000000109                     I016835      28021800000000035003410000017N271217104700000000000102802180000000000000000000000000000000000000000200026135911746ELINDOMAR JORGE DA COSTA                RUA ITUVERAVA, 108 LOTE 10 QUADRA 1     MONJOLO - SA24724800SAO GONCALO    RJUNIAO UMB DOS CULTOS AFRO BRAS    28021810 000060
10231987175000168817800093673    00006834                     000068340000000000000109                     I016834      28021800000000035003410000017N271217104700000000000102802180000000000000000000000000000000000000000100073686913704ANTONIO CORDEIRO DA SILVA               RUA ESTRELA DALVA, 2                    ITANHANGA - 22753010RIO DE JANEIRO RJUNIAO UMB DOS CULTOS AFRO BRAS    28021810 000061
10231987175000168817800093673    00006833                     000068330000000000000109                     I016833      28021800000000035003410000017N271217104700000000000102802180000000000000000000000000000000000000000100042157358749LUIZ OSWALDO DOS SANTOS                 RUA COPIUVA, 23  JARDIM CARIOCA         ILHA DO GOVE21921490RIO DE JANEIRO RJUNIAO UMB DOS CULTOS AFRO BRAS    28021810 000062
10231987175000168817800093673    00006832                     000068320000000000000109                     I016832      28021800000000035003410000017N271217104700000000000102802180000000000000000000000000000000000000000100007804875754EVANDRO MEDEIROS DE OLIVEIRA            RUA 64, LOTE 40 QUADRA 303 CASA 1       JARDIM ATLAN24934045MARICA         RJUNIAO UMB DOS CULTOS AFRO BRAS    28021810 000063
10231987175000168817800093673    00006831                     000068310000000000000109                     I016831      28021800000000035003410000017N271217104700000000000102802180000000000000000000000000000000000000000100075597543768MARCIA REGINA DE ALMEIDA XAVIE          RUA ZENITAL, LOTE 10 QUADRA E           JARDIM PARAI26297300NOVA IGUACU    RJUNIAO UMB DOS CULTOS AFRO BRAS    28021810 000064
9                                                                                                                                                                                                                                                                                                                                                                                                         000065
