01REMESSA01COBRANCA       817800093673        União Umb dos Cultos Afro Bra341BANCO ITAU SA  180619                                                                                                                                                                                                                                                                                                      000001
10231987175000168817800093673    000049749                    000497490000000000000109                     I0149749     21061900000000040003410000017N180619105700000000000132106190000000000000000000000000000000000000000100003747539700MARCIA SANTANA DA SILVA COSTA           RUA GUAIAUNA N 392,                     COELHO NETO 21510420RIO DE JANEIRO RJUNIAO UMB DOS CULTOS AFRO BRAS    21061915 000002
21210620190000000000080                                                                                                                                                                                                                                                                                                                                                                                   000003
10231987175000168817800093673    000048970                    000489700000000000000109                     I0248970     30091900000000040003410000017N100619105700000000000133009190000000000000000000000000000000000000000100009825767731SEBASTIANA LUIZA CARVALHO DA S          RUA BRASILINAN 540,                     VILA VERDE  26178180BELFORD ROXO   RJUNIAO UMB DOS CULTOS AFRO BRAS    30091915 000004
21300920190000000000080                                                                                                                                                                                                                                                                                                                                                                                   000005
10231987175000168817800093673    000047531                    000475310000000000000109                     I0247531     30081900000000040003410000017N100619105700000000000133008190000000000000000000000000000000000000000100009825767731SEBASTIANA LUIZA CARVALHO DA S          RUA BRASILINAN 540,                     VILA VERDE  26178180BELFORD ROXO   RJUNIAO UMB DOS CULTOS AFRO BRAS    30081915 000006
21300820190000000000080                                                                                                                                                                                                                                                                                                                                                                                   000007
10231987175000168817800093673    000046102                    000461020000000000000109                     I0246102     30071900000000040003410000017N100619105700000000000133007190000000000000000000000000000000000000000100009825767731SEBASTIANA LUIZA CARVALHO DA S          RUA BRASILINAN 540,                     VILA VERDE  26178180BELFORD ROXO   RJUNIAO UMB DOS CULTOS AFRO BRAS    30071915 000008
21300720190000000000080                                                                                                                                                                                                                                                                                                                                                                                   000009
9                                                                                                                                                                                                                                                                                                                                                                                                         000010
