01REMESSA01COBRANCA       916200163100        União Umb dos Cultos Afro Bra341BANCO ITAU SA  150119                                                                                                                                                                                                                                                                                                      000001
10231987175000168916200163100    000033539                    000335390000000000000109                     I0233539     14121800000000070003410000017N051218104700000000000101412180000000000000000000000000000000000000000100002878076737TANIA NACARI AIRES GALVAO               ESTRADA DO DENDE                        DENDE - ILHA21920000RIO DE JANEIRO RJUNIAO UMB DOS CULTOS AFRO BRAS    14121810 000002
9                                                                                                                                                                                                                                                                                                                                                                                                         000003
