01REMESSA01COBRANCA       916200163100        União Umb dos Cultos Afro Bra341BANCO ITAU SA  190719                                                                                                                                                                                                                                                                                                      000001
10231987175000168916200163100    000049943                    000499430000000000000109                     I0149943     30081900000000040003410000017N190719105700000000000133008190000000000000000000000000000000000000000100004157787781ELISABETE JORDAO DOS SANTOS             RUA GENERAL MANOEL RABELON 1025,        VILA SAO LUI25065050DUQUE DE CAXIASRJUNIAO UMB DOS CULTOS AFRO BRAS    30081915 000002
21300820190000000000080                                                                                                                                                                                                                                                                                                                                                                                   000003
10231987175000168916200163100    000049942                    000499420000000000000109                     I0149942     30081900000000080003410000017N190719105700000000000263008190000000000000000000000000000000000000000100004157787781ELISABETE JORDAO DOS SANTOS             RUA GENERAL MANOEL RABELON 1025,        VILA SAO LUI25065050DUQUE DE CAXIASRJUNIAO UMB DOS CULTOS AFRO BRAS    30081915 000004
21300820190000000000160                                                                                                                                                                                                                                                                                                                                                                                   000005
10231987175000168916200163100    000049941                    000499410000000000000109                     I0149941     15081900000000080003410000017N190719105700000000000261508190000000000000000000000000000000000000000100004157787781ELISABETE JORDAO DOS SANTOS             RUA GENERAL MANOEL RABELON 1025,        VILA SAO LUI25065050DUQUE DE CAXIASRJUNIAO UMB DOS CULTOS AFRO BRAS    15081915 000006
21150820190000000000160                                                                                                                                                                                                                                                                                                                                                                                   000007
10231987175000168916200163100    000049940                    000499400000000000000109                     I0149940     30091900000000040003410000017N190719105700000000000133009190000000000000000000000000000000000000000100002172079790FRANCISCO CARLOS GOMES                  RUA MAX YANTOKN 76, CASA 4              BANCARIOS   21910180RIO DE JANEIRO RJUNIAO UMB DOS CULTOS AFRO BRAS    30091915 000008
21300920190000000000080                                                                                                                                                                                                                                                                                                                                                                                   000009
10231987175000168916200163100    000049939                    000499390000000000000109                     I0149939     30081900000000040003410000017N190719105700000000000133008190000000000000000000000000000000000000000100002172079790FRANCISCO CARLOS GOMES                  RUA MAX YANTOKN 76, CASA 4              BANCARIOS   21910180RIO DE JANEIRO RJUNIAO UMB DOS CULTOS AFRO BRAS    30081915 000010
21300820190000000000080                                                                                                                                                                                                                                                                                                                                                                                   000011
9                                                                                                                                                                                                                                                                                                                                                                                                         000012
