01REMESSA01COBRANCA       817800093673        União Umb dos Cultos Afro Bra341BANCO ITAU SA  140518                                                                                                                                                                                                                                                                                                      000001
10231987175000168817800093673    000014327                    000143270000000000000109                     I3414327     30041800000000035003410000017N050418104700000000000103004180000000000000000000000000000000000000000100009146841750ALEXANDRE BORGES DO NASCIMENTO          O MESMO                                 O MESMO     26556480NOVA IGUACU    RJUNIAO UMB DOS CULTOS AFRO BRAS    30041810 000002
10231987175000168817800093673    000014184                    000141840000000000000109                     I0214184     30051800000000035003410000017N070318104700000000000103005180000000000000000000000000000000000000000100000000004130MARIA ORLANDA ALVES BRAZ                RUA JOSE DE ARAUJO 633                  CAMPO ALEGRE26292008RIO DE JANEIRO RJUNIAO UMB DOS CULTOS AFRO BRAS    30051810 000003
10231987175000168817800093673    000014183                    000141830000000000000109                     I3414183     30041800000000035003410000017N070318104700000000000103004180000000000000000000000000000000000000000100000000004130MARIA ORLANDA ALVES BRAZ                RUA JOSE DE ARAUJO 633                  CAMPO ALEGRE26292008RIO DE JANEIRO RJUNIAO UMB DOS CULTOS AFRO BRAS    30041810 000004
10231987175000168817800093673    000013787                    000137870000000000000109                     I0213787     30051800000000035003410000017N200218104700000000000103005180000000000000000000000000000000000000000100056381832720DAVI LEMOS MOREIRA                      RUA CARLINDA                            VILA DE CAVA26052120NOVA IGUACU    RJUNIAO UMB DOS CULTOS AFRO BRAS    30051810 000005
10231987175000168817800093673    000013734                    000137340000000000000109                     I3413734     30051800000000035003410000017N200218104700000000000103005180000000000000000000000000000000000000000100062988050791REGINA LUCIA DE SOUZA SANTOS T          RUA ENGENHEIRO LAFAYETE STOCKLER N 742  VILA DA PENH21221390RIO DE JANEIRO RJUNIAO UMB DOS CULTOS AFRO BRAS    30051810 000006
10231987175000168817800093673    000013306                    000133060000000000000109                     I0213306     30051800000000035003410000017N200218104700000000000103005180000000000000000000000000000000000000000100065753313787ELVIRA FLAUZINA CELSO                   RUA DA CONCEICAO, 112                   SANTA ROSA /27155000BARRA DO PIRAI RJUNIAO UMB DOS CULTOS AFRO BRAS    30051810 000007
10231987175000168817800093673    000013216                    000132160000000000000109                     I3413216     30051800000000035003410000017N200218104700000000000103005180000000000000000000000000000000000000000100003561463754NORMA CRISTINA JUSTO PRUDENTE           O MESMO                                 O MESMO     21635040RIO DE JANEIRO RJUNIAO UMB DOS CULTOS AFRO BRAS    30051810 000008
10231987175000168817800093673    000012962                    000129620000000000000109                     I0212962     30051800000000035003410000017N200218104700000000000103005180000000000000000000000000000000000000000100002379534713ALEX EVANDRO CORREIA PETITINGA          RUA CARDOSO QUINTAO, 40                 PIEDADE - RJ21381460RIO DE JANEIRO RJUNIAO UMB DOS CULTOS AFRO BRAS    30051810 000009
10231987175000168817800093673    000012889                    000128890000000000000109                     I0212889     30051800000000035003410000017N200218104700000000000103005180000000000000000000000000000000000000000100093719744787SERGIO PEREIRA FRAGA                    RUA JURUBAIBA, 163 FUNDOS               HONORIO GURG21555170RIO DE JANEIRO RJUNIAO UMB DOS CULTOS AFRO BRAS    30051810 000010
10231987175000168817800093673    000012818                    000128180000000000000109                     I3412818     30051800000000035003410000017N200218104700000000000103005180000000000000000000000000000000000000000100038370999700JULIO ALEXANDRE FERREIRA                RUA BARAO DE JACUI, 254 CASA 16 FUNDOS  OSWALDO CRUZ21550310RIO DE JANEIRO RJUNIAO UMB DOS CULTOS AFRO BRAS    30051810 000011
10231987175000168817800093673    000012812                    000128120000000000000109                     I0212812     30051800000000035003410000017N200218104700000000000103005180000000000000000000000000000000000000000100002978000783FABIO PINTO MANTUANO                    LAURA MARIA PINTO MANTUANO - MAE        O MESMO     24900000MARICA         RJUNIAO UMB DOS CULTOS AFRO BRAS    30051810 000012
10231987175000168817800093673    000012595                    000125950000000000000109                     I0212595     30051800000000035003410000017N200218104700000000000103005180000000000000000000000000000000000000000100005552174771COSME DIAS DA SILVA                     TRAVESSA JOSELINA DE ANDRADE N 43       PORTO NOVO -24435811SAO GONCALO    RJUNIAO UMB DOS CULTOS AFRO BRAS    30051810 000013
10231987175000168817800093673    000012380                    000123800000000000000109                     I0212380     30051800000000350003410000017N200218104700000000000103005180000000000000000000000000000000000000000100047059770763MARIA MATHIAS DE OLIVEIRA               RUA CAMBUCI N 38                        MUQUECA - BA27140280BARRA DO PIRAI RJUNIAO UMB DOS CULTOS AFRO BRAS    30051810 000014
10231987175000168817800093673    000012363                    000123630000000000000109                     I0212363     30051800000000035003410000017N200218104700000000000103005180000000000000000000000000000000000000000100001080847790BENTO FRANCISCO DE LIMA NETO            RUA PITANGAS, 36 A - TIJUQUINHA         BARRA DA TIJ22713330RIO DE JANEIRO RJUNIAO UMB DOS CULTOS AFRO BRAS    30051810 000015
10231987175000168817800093673    000012325                    000123250000000000000109                     I3412325     30041800000000035003410000017N200218104700000000000103004180000000000000000000000000000000000000000100012345678900MARIA DA GRACA MACHADO DOS SAN          RUA ARCOZELO                            PARQUE ARARU25585560SAO JOAO DE MERRJUNIAO UMB DOS CULTOS AFRO BRAS    30041810 000016
10231987175000168817800093673    000012178                    000121780000000000000109                     I0212178     30041800000000035003410000017N200218104700000000000103004180000000000000000000000000000000000000000100056381832720DAVI LEMOS MOREIRA                      RUA CARLINDA                            VILA DE CAVA26052120NOVA IGUACU    RJUNIAO UMB DOS CULTOS AFRO BRAS    30041810 000017
10231987175000168817800093673    000012101                    000121010000000000000109                     I3412101     30041800000000035003410000017N200218104700000000000103004180000000000000000000000000000000000000000100009199332701LUANDA MOREIRA DOS SANTOS FERN          RUA SEVERIANO MONTEIRO N 232 APT 302    BRAZ DE PINA21235620RIO DE JANEIRO RJUNIAO UMB DOS CULTOS AFRO BRAS    30041810 000018
10231987175000168817800093673    000012089                    000120890000000000000109                     I3412089     30041800000000035003410000017N200218104700000000000103004180000000000000000000000000000000000000000100001147868794VALERIA APARECIDA DE SOUZA              RUA ALCYR BRASIL N 710                  JARDIM NOVA 26266010NOVA IGUACU    RJUNIAO UMB DOS CULTOS AFRO BRAS    30041810 000019
10231987175000168817800093673    000011881                    000118810000000000000109                     I3411881     30041800000000035003410000017N200218104700000000000103004180000000000000000000000000000000000000000100044239300720WALDIR DAS CHAGAS FILHO                 RUA CALMON CABRAL, 72 CASA 1 FUNDOS     IRAJA - RIO 21235150RIO DE JANEIRO RJUNIAO UMB DOS CULTOS AFRO BRAS    30041810 000020
10231987175000168817800093673    000011671                    000116710000000000000109                     I3411671     30041800000000035003410000017N200218104700000000000103004180000000000000000000000000000000000000000100091156386772MARILENE PEREIRA DOS SANTOS CO          ESTRADA DO PORTELA  694                 OSVALDO CRUZ21351050RIO DE JANEIRO RJUNIAO UMB DOS CULTOS AFRO BRAS    30041810 000021
10231987175000168817800093673    000011607                    000116070000000000000109                     I0211607     30041800000000035003410000017N200218104700000000000103004180000000000000000000000000000000000000000100003561463754NORMA CRISTINA JUSTO PRUDENTE           O MESMO                                 O MESMO     21635040RIO DE JANEIRO RJUNIAO UMB DOS CULTOS AFRO BRAS    30041810 000022
10231987175000168817800093673    000011360                    000113600000000000000109                     I3411360     30041800000000035003410000017N200218104700000000000103004180000000000000000000000000000000000000000100071757724753MIGUEL ABRAHAO FILHO                    RUA FRANCISCO ANTONIO NASCIMENTO QUADRA MIGUEL COUTO26070467NOVA IGUACU    RJUNIAO UMB DOS CULTOS AFRO BRAS    30041810 000023
10231987175000168817800093673    000011353                    000113530000000000000109                     I0211353     30041800000000035003410000017N200218104700000000000103004180000000000000000000000000000000000000000100002379534713ALEX EVANDRO CORREIA PETITINGA          RUA CARDOSO QUINTAO, 40                 PIEDADE - RJ21381460RIO DE JANEIRO RJUNIAO UMB DOS CULTOS AFRO BRAS    30041810 000024
10231987175000168817800093673    000011280                    000112800000000000000109                     I0211280     30041800000000035003410000017N200218104700000000000103004180000000000000000000000000000000000000000100093719744787SERGIO PEREIRA FRAGA                    RUA JURUBAIBA, 163 FUNDOS               HONORIO GURG21555170RIO DE JANEIRO RJUNIAO UMB DOS CULTOS AFRO BRAS    30041810 000025
10231987175000168817800093673    000011213                    000112130000000000000109                     I0211213     30041800000000035003410000017N200218104700000000000103004180000000000000000000000000000000000000000100063553830778WILLIAM RODRIGUES                       ESTRADA OTEIRO SANTO, 1022 CASA 3       TAQUARA - RI22713169RIO DE JANEIRO RJUNIAO UMB DOS CULTOS AFRO BRAS    30041810 000026
10231987175000168817800093673    000011209                    000112090000000000000109                     I3411209     30041800000000035003410000017N200218104700000000000103004180000000000000000000000000000000000000000100038370999700JULIO ALEXANDRE FERREIRA                RUA BARAO DE JACUI, 254 CASA 16 FUNDOS  OSWALDO CRUZ21550310RIO DE JANEIRO RJUNIAO UMB DOS CULTOS AFRO BRAS    30041810 000027
10231987175000168817800093673    000011054                    000110540000000000000109                     I0211054     30041800000000035003410000017N200218104700000000000103004180000000000000000000000000000000000000000100003341741738CASSIA GOMES CASTORINO                  RUA: COMENDADOR CRISOSTEMO CRUZ LOTE 13 STª MARIA -26165400BELFORD ROXO   RJUNIAO UMB DOS CULTOS AFRO BRAS    30041810 000028
10231987175000168817800093673    000010986                    000109860000000000000109                     I0210986     30041800000000035003410000017N200218104700000000000103004180000000000000000000000000000000000000000100005552174771COSME DIAS DA SILVA                     TRAVESSA JOSELINA DE ANDRADE N 43       PORTO NOVO -24435811SAO GONCALO    RJUNIAO UMB DOS CULTOS AFRO BRAS    30041810 000029
10231987175000168817800093673    000010771                    000107710000000000000109                     I0210771     30041800000000350003410000017N200218104700000000000103004180000000000000000000000000000000000000000100047059770763MARIA MATHIAS DE OLIVEIRA               RUA CAMBUCI N 38                        MUQUECA - BA27140280BARRA DO PIRAI RJUNIAO UMB DOS CULTOS AFRO BRAS    30041810 000030
10231987175000168817800093673    000010754                    000107540000000000000109                     I0210754     30041800000000035003410000017N200218104700000000000103004180000000000000000000000000000000000000000100001080847790BENTO FRANCISCO DE LIMA NETO            RUA PITANGAS, 36 A - TIJUQUINHA         BARRA DA TIJ22713330RIO DE JANEIRO RJUNIAO UMB DOS CULTOS AFRO BRAS    30041810 000031
10231987175000168817800093673    000010738                    000107380000000000000109                     I3410738     30041800000000035003410000017N200218104700000000000103004180000000000000000000000000000000000000000100090882687700JUCIARA DE SOUZA CAMPOS                 RUA AVELINO LOURENCO QUADRA B CASA 7    DEODORO - RI00000000BELFORD ROXO   RJUNIAO UMB DOS CULTOS AFRO BRAS    30041810 000032
10231987175000168817800093673    000010716                    000107160000000000000109                     I3410716     30031800000000035003410000017N200218104700000000000103003180000000000000000000000000000000000000000100012345678900MARIA DA GRACA MACHADO DOS SAN          RUA ARCOZELO                            PARQUE ARARU25585560SAO JOAO DE MERRJUNIAO UMB DOS CULTOS AFRO BRAS    30031810 000033
10231987175000168817800093673    000010708                    000107080000000000000109                     I3410708     30031800000000035003410000017N200218104700000000000103003180000000000000000000000000000000000000000100009491065777VIVIAN LUIZA FREITAS DE AGUIAR          RUA ITAPETININGA                        VICENTE DE C21370680RIO DE JANEIRO RJUNIAO UMB DOS CULTOS AFRO BRAS    30031810 000034
10231987175000168817800093673    000010707                    000107070000000000000109                     I3410707     30031800000000035003410000017N200218104700000000000103003180000000000000000000000000000000000000000100002331392730ANA MARIA DOS SANTOS VIEIRA             RUA CRUZ DE SOUZA                       CARMARY POSS26022281NOVA IGUACU    RJUNIAO UMB DOS CULTOS AFRO BRAS    30031810 000035
10231987175000168817800093673    000010706                    000107060000000000000109                     I3410706     30031800000000035003410000017N200218104700000000000103003180000000000000000000000000000000000000000100005964958702MARISLEY AMARO DE SOUZA                 RUA MONTE ALTO                          BANGU       21863010RIO DE JANEIRO RJUNIAO UMB DOS CULTOS AFRO BRAS    30031810 000036
10231987175000168817800093673    000010569                    000105690000000000000109                     I0210569     30031800000000035003410000017N200218104700000000000103003180000000000000000000000000000000000000000100056381832720DAVI LEMOS MOREIRA                      RUA CARLINDA                            VILA DE CAVA26052120NOVA IGUACU    RJUNIAO UMB DOS CULTOS AFRO BRAS    30031810 000037
10231987175000168817800093673    000010492                    000104920000000000000109                     I3410492     30031800000000035003410000017N200218104700000000000103003180000000000000000000000000000000000000000100009199332701LUANDA MOREIRA DOS SANTOS FERN          RUA SEVERIANO MONTEIRO N 232 APT 302    BRAZ DE PINA21235620RIO DE JANEIRO RJUNIAO UMB DOS CULTOS AFRO BRAS    30031810 000038
10231987175000168817800093673    000010272                    000102720000000000000109                     I3410272     30031800000000035003410000017N200218104700000000000103003180000000000000000000000000000000000000000100044239300720WALDIR DAS CHAGAS FILHO                 RUA CALMON CABRAL, 72 CASA 1 FUNDOS     IRAJA - RIO 21235150RIO DE JANEIRO RJUNIAO UMB DOS CULTOS AFRO BRAS    30031810 000039
10231987175000168817800093673    000010263                    000102630000000000000109                     I3410263     30031800000000035003410000017N200218104700000000000103003180000000000000000000000000000000000000000100083765778753MARCIA REGINA NUNES DA SILVA            RUA AXUA, 227 CASA 16                   TAQUARA - JA22713515RIO DE JANEIRO RJUNIAO UMB DOS CULTOS AFRO BRAS    30031810 000040
10231987175000168817800093673    000010194                    000101940000000000000109                     I3410194     30031800000000035003410000017N200218104700000000000103003180000000000000000000000000000000000000000100039622100759LEIR AUGUSTO DA SILVA                   RUA ARTHUR DO NASCIMENTO JUNIOR CASA 23 FRAGOSO - MA25932890MAGE           RJUNIAO UMB DOS CULTOS AFRO BRAS    30031810 000041
10231987175000168817800093673    000010088                    000100880000000000000109                     I0210088     30031800000000035003410000017N200218104700000000000103003180000000000000000000000000000000000000000100065753313787ELVIRA FLAUZINA CELSO                   RUA DA CONCEICAO, 112                   SANTA ROSA /27155000BARRA DO PIRAI RJUNIAO UMB DOS CULTOS AFRO BRAS    30031810 000042
10231987175000168817800093673    00009998                     000099980000000000000109                     I029998      30031800000000035003410000017N200218104700000000000103003180000000000000000000000000000000000000000100003561463754NORMA CRISTINA JUSTO PRUDENTE           O MESMO                                 O MESMO     21635040RIO DE JANEIRO RJUNIAO UMB DOS CULTOS AFRO BRAS    30031810 000043
10231987175000168817800093673    00009763                     000097630000000000000109                     I349763      30031800000000035003410000017N200218104700000000000103003180000000000000000000000000000000000000000100008774131770CLEYSON MANHAES NERY                    RUA CORONEL BARROS N 288                PARQUE SARAI28110000CAMPO DOS GOYTARJUNIAO UMB DOS CULTOS AFRO BRAS    30031810 000044
10231987175000168817800093673    00009756                     000097560000000000000109                     I349756      30031800000000035003410000017N200218104700000000000103003180000000000000000000000000000000000000000100087868172720ADHEMAR ACHILLES AVILLA JUNIOR          RUA: PADRE GIL Nº 20                   PARQUE BONEV25907096RIO DE JANEIRO RJUNIAO UMB DOS CULTOS AFRO BRAS    30031810 000045
10231987175000168817800093673    00009751                     000097510000000000000109                     I349751      30031800000000035003410000017N200218104700000000000103003180000000000000000000000000000000000000000100071757724753MIGUEL ABRAHAO FILHO                    RUA FRANCISCO ANTONIO NASCIMENTO QUADRA MIGUEL COUTO26070467NOVA IGUACU    RJUNIAO UMB DOS CULTOS AFRO BRAS    30031810 000046
10231987175000168817800093673    00009744                     000097440000000000000109                     I029744      30031800000000035003410000017N200218104700000000000103003180000000000000000000000000000000000000000100002379534713ALEX EVANDRO CORREIA PETITINGA          RUA CARDOSO QUINTAO, 40                 PIEDADE - RJ21381460RIO DE JANEIRO RJUNIAO UMB DOS CULTOS AFRO BRAS    30031810 000047
10231987175000168817800093673    00009671                     000096710000000000000109                     I029671      30031800000000035003410000017N200218104700000000000103003180000000000000000000000000000000000000000100093719744787SERGIO PEREIRA FRAGA                    RUA JURUBAIBA, 163 FUNDOS               HONORIO GURG21555170RIO DE JANEIRO RJUNIAO UMB DOS CULTOS AFRO BRAS    30031810 000048
10231987175000168817800093673    00009638                     000096380000000000000109                     I029638      30031800000000035003410000017N200218104700000000000103003180000000000000000000000000000000000000000100009431078732LUCIA OLIVEIRA BONIFACIO                RUA NINA RIBEIRO, 67 FUNDOS             PAVUNA - RJ 21520290RIO DE JANEIRO RJUNIAO UMB DOS CULTOS AFRO BRAS    30031810 000049
10231987175000168817800093673    00009545                     000095450000000000000109                     I349545      30031800000000035003410000017N200218104700000000000103003180000000000000000000000000000000000000000100007150949711SEVERINA BENVINDO FERREIRA              ESTRADA DO CALUNDU, LOTE 32 QUADRA 51   NOSSA SENHOR25040610DUQUE DE CAXIASRJUNIAO UMB DOS CULTOS AFRO BRAS    30031810 000050
10231987175000168817800093673    00009445                     000094450000000000000109                     I029445      30031800000000035003410000017N200218104700000000000103003180000000000000000000000000000000000000000100003341741738CASSIA GOMES CASTORINO                  RUA: COMENDADOR CRISOSTEMO CRUZ LOTE 13 STª MARIA -26165400BELFORD ROXO   RJUNIAO UMB DOS CULTOS AFRO BRAS    30031810 000051
10231987175000168817800093673    00009377                     000093770000000000000109                     I029377      30031800000000035003410000017N200218104700000000000103003180000000000000000000000000000000000000000100005552174771COSME DIAS DA SILVA                     TRAVESSA JOSELINA DE ANDRADE N 43       PORTO NOVO -24435811SAO GONCALO    RJUNIAO UMB DOS CULTOS AFRO BRAS    30031810 000052
10231987175000168817800093673    00009192                     000091920000000000000109                     I349192      30031800000000035003410000017N200218104700000000000103003180000000000000000000000000000000000000000100000441127770NOEMIA DINANTES GOMES                   RUA IMPERATRIZ LEOPOLDINA N 169         PARQUE ESTOR26064440SAO JOAO DE MERRJUNIAO UMB DOS CULTOS AFRO BRAS    30031810 000053
10231987175000168817800093673    00009162                     000091620000000000000109                     I029162      30031800000000350003410000017N200218104700000000000103003180000000000000000000000000000000000000000100047059770763MARIA MATHIAS DE OLIVEIRA               RUA CAMBUCI N 38                        MUQUECA - BA27140280BARRA DO PIRAI RJUNIAO UMB DOS CULTOS AFRO BRAS    30031810 000054
10231987175000168817800093673    00009145                     000091450000000000000109                     I029145      30031800000000035003410000017N200218104700000000000103003180000000000000000000000000000000000000000100001080847790BENTO FRANCISCO DE LIMA NETO            RUA PITANGAS, 36 A - TIJUQUINHA         BARRA DA TIJ22713330RIO DE JANEIRO RJUNIAO UMB DOS CULTOS AFRO BRAS    30031810 000055
10231987175000168817800093673    00009129                     000091290000000000000109                     I349129      30031800000000035003410000017N200218104700000000000103003180000000000000000000000000000000000000000100090882687700JUCIARA DE SOUZA CAMPOS                 RUA AVELINO LOURENCO QUADRA B CASA 7    DEODORO - RI00000000BELFORD ROXO   RJUNIAO UMB DOS CULTOS AFRO BRAS    30031810 000056
10231987175000168817800093673    00009121                     000091210000000000000109                     I349121      30031800000000035003410000017N200218104700000000000103003180000000000000000000000000000000000000000200000000001155REINALDO GONCALVES DA ROCHA             RUA FATIMA, 13 C                        JACAREPAGUA 22713570RIO DE JANEIRO RJUNIAO UMB DOS CULTOS AFRO BRAS    30031810 000057
10231987175000168817800093673    00009114                     000091140000000000000109                     I349114      30031800000000035003410000017N200218104700000000000103003180000000000000000000000000000000000000000200000000000614VERA REGINA GONCALVES                   RUA ANTONIO ALVES, 417                  COSTA BARROS21650020RIO DE JANEIRO RJUNIAO UMB DOS CULTOS AFRO BRAS    30031810 000058
10231987175000168817800093673    00008136                     000081360000000000000109                     I028136      28021800000000035003410000017N291217104700000000000102802180000000000000000000000000000000000000000100002379534713ALEX EVANDRO CORREIA PETITINGA          RUA CARDOSO QUINTAO, 40                 PIEDADE - RJ21381460RIO DE JANEIRO RJUNIAO UMB DOS CULTOS AFRO BRAS    28021810 000059
10231987175000168817800093673    00008109                     000081090000000000000109                     I028109      28021800000000035003410000017N291217104700000000000102802180000000000000000000000000000000000000000100093719744787SERGIO PEREIRA FRAGA                    RUA JURUBAIBA, 163 FUNDOS               HONORIO GURG21555170RIO DE JANEIRO RJUNIAO UMB DOS CULTOS AFRO BRAS    28021810 000060
10231987175000168817800093673    00007888                     000078880000000000000109                     I027888      28021800000000035003410000017N291217104700000000000102802180000000000000000000000000000000000000000100047059770763MARIA MATHIAS DE OLIVEIRA               RUA CAMBUCI N 38                        MUQUECA - BA27140280BARRA DO PIRAI RJUNIAO UMB DOS CULTOS AFRO BRAS    28021810 000061
10231987175000168817800093673    00007879                     000078790000000000000109                     I027879      28021800000000035003410000017N291217104700000000000102802180000000000000000000000000000000000000000100001080847790BENTO FRANCISCO DE LIMA NETO            RUA PITANGAS, 36 A - TIJUQUINHA         BARRA DA TIJ22713330RIO DE JANEIRO RJUNIAO UMB DOS CULTOS AFRO BRAS    28021810 000062
10231987175000168817800093673    00007873                     000078730000000000000109                     I347873      28021800000000035003410000017N291217104700000000000102802180000000000000000000000000000000000000000200000000001155REINALDO GONCALVES DA ROCHA             RUA FATIMA, 13 C                        JACAREPAGUA 22713570RIO DE JANEIRO RJUNIAO UMB DOS CULTOS AFRO BRAS    28021810 000063
10231987175000168817800093673    00007313                     000073130000000000000109                     I347313      28021800000000035003410000017N271217104700000000000102802180000000000000000000000000000000000000000100053531396749VITALINA DOS SANTOS                     RUA SAQUAREMA                           GRAMACHO    25035425DUQUE DE CAXIASRJUNIAO UMB DOS CULTOS AFRO BRAS    28021810 000064
10231987175000168817800093673    00007192                     000071920000000000000109                     I027192      28021800000000035003410000017N271217104700000000000102802180000000000000000000000000000000000000000100056381832720DAVI LEMOS MOREIRA                      RUA CARLINDA                            VILA DE CAVA26052120NOVA IGUACU    RJUNIAO UMB DOS CULTOS AFRO BRAS    28021810 000065
10231987175000168817800093673    00006727                     000067270000000000000109                     I026727      28021800000000035003410000017N271217104700000000000102802180000000000000000000000000000000000000000100003561463754NORMA CRISTINA JUSTO PRUDENTE           O MESMO                                 O MESMO     21635040RIO DE JANEIRO RJUNIAO UMB DOS CULTOS AFRO BRAS    28021810 000066
10231987175000168817800093673    00006555                     000065550000000000000109                     I346555      28021800000000035003410000017N271217104700000000000102802180000000000000000000000000000000000000000100008774131770CLEYSON MANHAES NERY                    RUA CORONEL BARROS N 288                PARQUE SARAI28110000CAMPO DOS GOYTARJUNIAO UMB DOS CULTOS AFRO BRAS    28021810 000067
10231987175000168817800093673    00006544                     000065440000000000000109                     I346544      28021800000000035003410000017N271217104700000000000102802180000000000000000000000000000000000000000100095949925734RITA DE CASSIA COCCARO                  RUA JUCARI N 563                        IRAJA - RIO 21371320RIO DE JANEIRO RJUNIAO UMB DOS CULTOS AFRO BRAS    28021810 000068
10231987175000168817800093673    00006466                     000064660000000000000109                     I026466      28021800000000035003410000017N271217104700000000000102802180000000000000000000000000000000000000000100009431078732LUCIA OLIVEIRA BONIFACIO                RUA NINA RIBEIRO, 67 FUNDOS             PAVUNA - RJ 21520290RIO DE JANEIRO RJUNIAO UMB DOS CULTOS AFRO BRAS    28021810 000069
10231987175000168817800093673    00006280                     000062800000000000000109                     I026280      28021800000000035003410000017N271217104700000000000102802180000000000000000000000000000000000000000100005552174771COSME DIAS DA SILVA                     TRAVESSA JOSELINA DE ANDRADE N 43       PORTO NOVO -24435811SAO GONCALO    RJUNIAO UMB DOS CULTOS AFRO BRAS    28021810 000070
10231987175000168817800093673    00005942                     000059420000000000000109                     I025942      31011800000000035003410000017N261217104700000000000103101180000000000000000000000000000000000000000100056381832720DAVI LEMOS MOREIRA                      RUA CARLINDA                            VILA DE CAVA26052120NOVA IGUACU    RJUNIAO UMB DOS CULTOS AFRO BRAS    31011810 000071
10231987175000168817800093673    00005294                     000052940000000000000109                     I345294      31011800000000035003410000017N261217104700000000000103101180000000000000000000000000000000000000000100095949925734RITA DE CASSIA COCCARO                  RUA JUCARI N 563                        IRAJA - RIO 21371320RIO DE JANEIRO RJUNIAO UMB DOS CULTOS AFRO BRAS    31011810 000072
10231987175000168817800093673    00005216                     000052160000000000000109                     I025216      31011800000000035003410000017N261217104700000000000103101180000000000000000000000000000000000000000100009431078732LUCIA OLIVEIRA BONIFACIO                RUA NINA RIBEIRO, 67 FUNDOS             PAVUNA - RJ 21520290RIO DE JANEIRO RJUNIAO UMB DOS CULTOS AFRO BRAS    31011810 000073
10231987175000168817800093673    00005030                     000050300000000000000109                     I025030      31011800000000035003410000017N261217104700000000000103101180000000000000000000000000000000000000000100005552174771COSME DIAS DA SILVA                     TRAVESSA JOSELINA DE ANDRADE N 43       PORTO NOVO -24435811SAO GONCALO    RJUNIAO UMB DOS CULTOS AFRO BRAS    31011810 000074
9                                                                                                                                                                                                                                                                                                                                                                                                         000075
