01REMESSA01COBRANCA       817800093673        Uni√£o Umb dos Cultos Afro Bra341BANCO ITAU SA  261218                                                                                                                                                                                                                                                                                                      000001
10231987175000168817800093673    000039382                    000393820000000000000109                     I0139382     31031900000000040003410000017N261218104700000000000103103190000000000000000000000000000000000000000100000000000720MARIA DE LOURDES SILVA                  RUA ROCHA LIMA                          SANTA RITA  26050540NOVA IGUACU    RJUNIAO UMB DOS CULTOS AFRO BRAS    31031910 000002
10231987175000168817800093673    000039381                    000393810000000000000109                     I0139381     28021900000000040003410000017N261218104700000000000102802190000000000000000000000000000000000000000100000000000720MARIA DE LOURDES SILVA                  RUA ROCHA LIMA                          SANTA RITA  26050540NOVA IGUACU    RJUNIAO UMB DOS CULTOS AFRO BRAS    28021910 000003
10231987175000168817800093673    000039380                    000393800000000000000109                     I0139380     31011900000000040003410000017N261218104700000000000103101190000000000000000000000000000000000000000100000000000720MARIA DE LOURDES SILVA                  RUA ROCHA LIMA                          SANTA RITA  26050540NOVA IGUACU    RJUNIAO UMB DOS CULTOS AFRO BRAS    31011910 000004
10231987175000168817800093673    000039379                    000393790000000000000109                     I0139379     31031900000000040003410000017N261218104700000000000103103190000000000000000000000000000000000000000100000000000658MARIA JOSE PACHECO DO AMPARO            RUA SILVINO PINTO                       SAPE        24315600NITEROI        RJUNIAO UMB DOS CULTOS AFRO BRAS    31031910 000005
10231987175000168817800093673    000039378                    000393780000000000000109                     I0139378     28021900000000040003410000017N261218104700000000000102802190000000000000000000000000000000000000000100000000000658MARIA JOSE PACHECO DO AMPARO            RUA SILVINO PINTO                       SAPE        24315600NITEROI        RJUNIAO UMB DOS CULTOS AFRO BRAS    28021910 000006
10231987175000168817800093673    000039377                    000393770000000000000109                     I0139377     31011900000000040003410000017N261218104700000000000103101190000000000000000000000000000000000000000100000000000658MARIA JOSE PACHECO DO AMPARO            RUA SILVINO PINTO                       SAPE        24315600NITEROI        RJUNIAO UMB DOS CULTOS AFRO BRAS    31011910 000007
10231987175000168817800093673    000039375                    000393750000000000000109                     I0139375     28121800000000040003410000017N261218104700000000000102812180000000000000000000000000000000000000000100039056481720ZUILA DE MELO E SILVA COVA              RUA TAMOIOS                             SAO FRANCISC24360380NITEROI        RJUNIAO UMB DOS CULTOS AFRO BRAS    28121810 000008
10231987175000168817800093673    000039374                    000393740000000000000109                     I0139374     30031900000000040003410000017N261218104700000000000103003190000000000000000000000000000000000000000100032965761420VRADELEIDE MARIA DOS SANTOS             ESTRADA MARACAJAS                       ILHA DO GOVE21941390RIO DE JANEIRO RJUNIAO UMB DOS CULTOS AFRO BRAS    30031910 000009
10231987175000168817800093673    000039373                    000393730000000000000109                     I0139373     28021900000000040003410000017N261218104700000000000102802190000000000000000000000000000000000000000100032965761420VRADELEIDE MARIA DOS SANTOS             ESTRADA MARACAJAS                       ILHA DO GOVE21941390RIO DE JANEIRO RJUNIAO UMB DOS CULTOS AFRO BRAS    28021910 000010
10231987175000168817800093673    000039372                    000393720000000000000109                     I0139372     31011900000000040003410000017N261218104700000000000103101190000000000000000000000000000000000000000100032965761420VRADELEIDE MARIA DOS SANTOS             ESTRADA MARACAJAS                       ILHA DO GOVE21941390RIO DE JANEIRO RJUNIAO UMB DOS CULTOS AFRO BRAS    31011910 000011
10231987175000168817800093673    000039371                    000393710000000000000109                     I0139371     31121800000000350003410000017N261218104700000000000103112180000000000000000000000000000000000000000100001578595762CASSIA MARIA DE OLIVEIRA                RUA CEARA                               PIABETA     25932145MAGE           RJUNIAO UMB DOS CULTOS AFRO BRAS    31121810 000012
10231987175000168817800093673    000039370                    000393700000000000000109                     I0139370     28121800000000350003410000017N261218104700000000000102812180000000000000000000000000000000000000000100054946018700SIDNEY ESTRELA EVANGELISTA              RUA ELZA                                JARDIM GUANA26321020QUEIMADOS      RJUNIAO UMB DOS CULTOS AFRO BRAS    28121810 000013
10231987175000168817800093673    000039369                    000393690000000000000109                     I0139369     30031900000000040003410000017N261218104700000000000103003190000000000000000000000000000000000000000100004131909782SIMONE ANCHIETA DE AMORIM               RYA CAROLINA CARDOSO                    PILAR       25233150DUQUE DE CAXIASRJUNIAO UMB DOS CULTOS AFRO BRAS    30031910 000014
10231987175000168817800093673    000039368                    000393680000000000000109                     I0139368     30031900000000040003410000017N261218104700000000000103003190000000000000000000000000000000000000000100009607794770ALESSANDRO FRANCISCO DA SILVA           RUA ARMANDO FILARDI                     JARDIM IPE  26182000BELFORD ROXO   RJUNIAO UMB DOS CULTOS AFRO BRAS    30031910 000015
10231987175000168817800093673    000039367                    000393670000000000000109                     I0139367     30031900000000040003410000017N261218104700000000000103003190000000000000000000000000000000000000000100005478441740CARLA MARIA DINIZ FERNANDEZ             RUA BALDUINO DE OLIVEIRA                ALTO DA SERR25635230PETROPOLIS     RJUNIAO UMB DOS CULTOS AFRO BRAS    30031910 000016
10231987175000168817800093673    000039366                    000393660000000000000109                     I0139366     30031900000000040003410000017N261218104700000000000103003190000000000000000000000000000000000000000100046556281700VERA LUCIA SILVA DE SOUZA               RUA LUISA DE CARVALHO                   VICENTE DE C21371250RIO DE JANEIRO RJUNIAO UMB DOS CULTOS AFRO BRAS    30031910 000017
10231987175000168817800093673    000039365                    000393650000000000000109                     I0139365     30031900000000040003410000017N261218104700000000000103003190000000000000000000000000000000000000000100010663891795SONIA CRISTINA RODRIGUES FONTO          RUA FRANCISCO BUARQUE                   JARDIM GUAPI25943377GUAPIMIRIM     RJUNIAO UMB DOS CULTOS AFRO BRAS    30031910 000018
10231987175000168817800093673    000039364                    000393640000000000000109                     I0139364     30031900000000040003410000017N261218104700000000000103003190000000000000000000000000000000000000000100004281232796CARLA VEIGA DE FREITAS ROSA             RUA FOMENTO                             SANTA CRUZ  23555063RIO DE JANEIRO RJUNIAO UMB DOS CULTOS AFRO BRAS    30031910 000019
10231987175000168817800093673    000039363                    000393630000000000000109                     I0139363     30031900000000040003410000017N261218104700000000000103003190000000000000000000000000000000000000000100001637031750MARISA INEZ ALONSO CARDOSO              ESTRADA DO CAMBOATA                     GUADALUPE   21665001RIO DE JANEIRO RJUNIAO UMB DOS CULTOS AFRO BRAS    30031910 000020
10231987175000168817800093673    000039362                    000393620000000000000109                     I0139362     30031900000000040003410000017N261218104700000000000103003190000000000000000000000000000000000000000100005948651746DIOGO RODRIGUES DOS SANTOS              RUA DONA ROSARIA                        SAO CRISTOVA26030075RIO DE JANEIRO RJUNIAO UMB DOS CULTOS AFRO BRAS    30031910 000021
10231987175000168817800093673    000039361                    000393610000000000000109                     I0139361     30031900000000040003410000017N261218104700000000000103003190000000000000000000000000000000000000000100011643192728LUCIA FERNANDA DA SILVEIRA              RUA PETROPOLIS                          VILA DE CAVA26052200NOVA IGUACU    RJUNIAO UMB DOS CULTOS AFRO BRAS    30031910 000022
10231987175000168817800093673    000039360                    000393600000000000000109                     I0139360     30031900000000020003410000017N261218104700000000000103003190000000000000000000000000000000000000000100004116092380CLEUDIOMAR RIBEIRO DA CONCEICA          RUA SANTO ANTONIO                       SANTA RITA D65580000TUTOIA         MAUNIAO UMB DOS CULTOS AFRO BRAS    30031910 000023
10231987175000168817800093673    000039359                    000393590000000000000109                     I0139359     30031900000000050003410000017N261218104700000000000103003190000000000000000000000000000000000000000100001860673700FATIMA ANDREIA PINTO DE ALMEID          AVENIDA PAULO DE FRONTIN                RIO COMPRIDO20261241RIO DE JANEIRO RJUNIAO UMB DOS CULTOS AFRO BRAS    30031910 000024
10231987175000168817800093673    000039358                    000393580000000000000109                     I0139358     30031900000000040003410000017N261218104700000000000103003190000000000000000000000000000000000000000100008109127754DAMIANA CRISTINA SILVA DOS SAN          AVENIDA PRIMEIRO DE MAIO                CHAPERO     23831350DUQUE DE CAXIASRJUNIAO UMB DOS CULTOS AFRO BRAS    30031910 000025
10231987175000168817800093673    000039357                    000393570000000000000109                     I0139357     30031900000000040003410000017N261218104700000000000103003190000000000000000000000000000000000000000100005170208740DJAIR DE PAULA CAVALCANTI               RUA RESTINGA                            CAMPO GRANDE23097650RIO DE JANEIRO RJUNIAO UMB DOS CULTOS AFRO BRAS    30031910 000026
10231987175000168817800093673    000039356                    000393560000000000000109                     I0139356     30031900000000040003410000017N261218104700000000000103003190000000000000000000000000000000000000000100029040943766NELSON PEREIRA DE CARVALHO              RUA DO CAMPO                            CONCEICAO DE23885000MANGARATIBA    RJUNIAO UMB DOS CULTOS AFRO BRAS    30031910 000027
10231987175000168817800093673    000039355                    000393550000000000000109                     I0139355     30031900000000040003410000017N261218104700000000000103003190000000000000000000000000000000000000000100003371449742LUCIA HELENA CHAVES MOREIRA             RUA LUISA BARATA                        REALENGO    21770230RIO DE JANEIRO RJUNIAO UMB DOS CULTOS AFRO BRAS    30031910 000028
10231987175000168817800093673    000039354                    000393540000000000000109                     I0139354     30031900000000040003410000017N261218104700000000000103003190000000000000000000000000000000000000000100010953053792DANIELE FERNANDES DE CARVALHO           RUA BARROSO                             JARDIM CABUC26291428NOVA IGUACU    RJUNIAO UMB DOS CULTOS AFRO BRAS    30031910 000029
10231987175000168817800093673    000039353                    000393530000000000000109                     I0139353     30031900000000040003410000017N261218104700000000000103003190000000000000000000000000000000000000000100009053488774ANTONIO FERREIRA DE SOUZA               RUA ARTUR MOURA                         JARDIM NOVA 26272140NOVA IGUACU    RJUNIAO UMB DOS CULTOS AFRO BRAS    30031910 000030
10231987175000168817800093673    000039352                    000393520000000000000109                     I0139352     30031900000000040003410000017N261218104700000000000103003190000000000000000000000000000000000000000100009001361706SOLANGE DE SOUZA                        RUA VASSOURAS                           CABUCU      26291440NOVA IGUACU    RJUNIAO UMB DOS CULTOS AFRO BRAS    30031910 000031
10231987175000168817800093673    000039351                    000393510000000000000109                     I0139351     30031900000000040003410000017N261218104700000000000103003190000000000000000000000000000000000000000100000564154784RENATA FERNANDES DA COSTA MEIR          RUA QUINTAO                             QUINTINO BOC21381050RIO DE JANEIRO RJUNIAO UMB DOS CULTOS AFRO BRAS    30031910 000032
10231987175000168817800093673    000039350                    000393500000000000000109                     I0139350     30031900000000040003410000017N261218104700000000000103003190000000000000000000000000000000000000000100001510995706JUPIRA FARIAS DE MATTOS                 TRAVESSA AUGUSTO AMERICO DIAS           NEVES       24426240NITEROI        RJUNIAO UMB DOS CULTOS AFRO BRAS    30031910 000033
10231987175000168817800093673    000039349                    000393490000000000000109                     I0139349     30031900000000040003410000017N261218104700000000000103003190000000000000000000000000000000000000000100003544254719EDIJANE PINHEIRO DE LIMA                RUA: DOIS DE JANEIRO                    CAMPO GRANDE23097588RIO DE JANEIRO RJUNIAO UMB DOS CULTOS AFRO BRAS    30031910 000034
10231987175000168817800093673    000039348                    000393480000000000000109                     I0139348     30031900000000040003410000017N261218104700000000000103003190000000000000000000000000000000000000000100013014823740EUGENIA DA SILVA ALVES PEREIRA          RUA B                                   JARDIM ANHAN25264570DUQUE DE CAXIASRJUNIAO UMB DOS CULTOS AFRO BRAS    30031910 000035
10231987175000168817800093673    000039347                    000393470000000000000109                     I0139347     30031900000000040003410000017N261218104700000000000103003190000000000000000000000000000000000000000100007078239784MARIA TEREZINHA DE MATOS FIGUE          RUA GUATEMALA                           PENHA CIRCUL21020170RIO DE JANEIRO RJUNIAO UMB DOS CULTOS AFRO BRAS    30031910 000036
10231987175000168817800093673    000039346                    000393460000000000000109                     I0139346     30031900000000040003410000017N261218104700000000000103003190000000000000000000000000000000000000000100002171972726RAQUEL DE SOUZA MENESES                 ESTRADA ANIBAL DA MOTA                  PARQUE SAO J26190083RIO DE JANEIRO RJUNIAO UMB DOS CULTOS AFRO BRAS    30031910 000037
10231987175000168817800093673    000039345                    000393450000000000000109                     I0139345     30031900000000040003410000017N261218104700000000000103003190000000000000000000000000000000000000000100007245028745SANDRA REGINA MARQUES                   RUA MIGUEL UNAMUNO                      JARDIM ROTSE25270120DUQUE DE CAXIASRJUNIAO UMB DOS CULTOS AFRO BRAS    30031910 000038
10231987175000168817800093673    000039344                    000393440000000000000109                     I0139344     30031900000000040003410000017N261218104700000000000103003190000000000000000000000000000000000000000100050660098768ENI MARIA DA CONCEICAO DE MOUR          RUA IPIRANGA                            BARRO BRANCO25267365DUQUE DE CAXIASRJUNIAO UMB DOS CULTOS AFRO BRAS    30031910 000039
10231987175000168817800093673    000039343                    000393430000000000000109                     I0139343     30031900000000040003410000017N261218104700000000000103003190000000000000000000000000000000000000000100011124747737JOSE DO NASCIMENTO                      RUA DO SOSSEGO                          JARDIM AMERI21240815DUQUE DE CAXIASRJUNIAO UMB DOS CULTOS AFRO BRAS    30031910 000040
10231987175000168817800093673    000039342                    000393420000000000000109                     I0139342     30031900000000040003410000017N261218104700000000000103003190000000000000000000000000000000000000000100083883363715ISABEL HELENA CEZARIO MEDEIROS          RUA DUQUE DE CAXIAS                     VILA ISABEL 20551050RIO DE JANEIRO RJUNIAO UMB DOS CULTOS AFRO BRAS    30031910 000041
10231987175000168817800093673    000039341                    000393410000000000000109                     I0139341     30031900000000040003410000017N261218104700000000000103003190000000000000000000000000000000000000000100007324540775JAQUELINE DE LIMA ALMEIDA DE J          RUA JOAQUIM ARRUDA                      JARDIM SAO P25935800MAGE           RJUNIAO UMB DOS CULTOS AFRO BRAS    30031910 000042
10231987175000168817800093673    000039340                    000393400000000000000109                     I0139340     30031900000000040003410000017N261218104700000000000103003190000000000000000000000000000000000000000100010085511714JORGE THOMAZ JUNIOR                     RUA PARANA                              PIEDADE     20745250RIO DE JANEIRO RJUNIAO UMB DOS CULTOS AFRO BRAS    30031910 000043
10231987175000168817800093673    000039339                    000393390000000000000109                     I0139339     30031900000000040003410000017N261218104700000000000103003190000000000000000000000000000000000000000100012253859702FRANCINY CABRAL FONTES                  AVENIDA HUMBERTO SOEIRO DE CARVALHO     IPITUNA     28550000SAO SEBASTIAO DRJUNIAO UMB DOS CULTOS AFRO BRAS    30031910 000044
10231987175000168817800093673    000039338                    000393380000000000000109                     I0139338     30031900000000040003410000017N261218104700000000000103003190000000000000000000000000000000000000000100088763765772VERONICA CECILIA DE AGUIAR              RUA LAURELINO FREIRE                    GUAXINDIBA  24722330SAO GONCALO    RJUNIAO UMB DOS CULTOS AFRO BRAS    30031910 000045
10231987175000168817800093673    000039337                    000393370000000000000109                     I0139337     30031900000000040003410000017N261218104700000000000103003190000000000000000000000000000000000000000100000840541740JUCIARA GONCALVES NEPOMUCENO            LOTEAMENTO DEZESSEIS                    GRAMA - MIGU26070000BELFORD ROXO   RJUNIAO UMB DOS CULTOS AFRO BRAS    30031910 000046
10231987175000168817800093673    000039336                    000393360000000000000109                     I0139336     30031900000000040003410000017N261218104700000000000103003190000000000000000000000000000000000000000100082327378753GRACA MARIA BRUNO DE SOUZA SIL          RUA ACACIO TORRES                       OLINDA      26545500NILOPOLIS      RJUNIAO UMB DOS CULTOS AFRO BRAS    30031910 000047
10231987175000168817800093673    000039335                    000393350000000000000109                     I0139335     30031900000000040003410000017N261218104700000000000103003190000000000000000000000000000000000000000100033584486734DAGMAR ELIDE DA SILVA PEREIRA           RUA LOPO SARAIVA                        LARGO DO TAN22740220RIO DE JANEIRO RJUNIAO UMB DOS CULTOS AFRO BRAS    30031910 000048
10231987175000168817800093673    000039334                    000393340000000000000109                     I0139334     30031900000000040003410000017N261218104700000000000103003190000000000000000000000000000000000000000100009142845769MICHELE OAZEM MINEIRO                   RUA CARIOCA                             SAO BERNARDO26167210BELFORD ROXO   RJUNIAO UMB DOS CULTOS AFRO BRAS    30031910 000049
10231987175000168817800093673    000039333                    000393330000000000000109                     I0139333     30031900000000040003410000017N261218104700000000000103003190000000000000000000000000000000000000000100063464470768ROBSON DE OLIVEIRA ELIZIARIO            RUA GARCIA REDONDO                      CACHAMBI    20775170RIO DE JANEIRO RJUNIAO UMB DOS CULTOS AFRO BRAS    30031910 000050
10231987175000168817800093673    000039332                    000393320000000000000109                     I0139332     30031900000000040003410000017N261218104700000000000103003190000000000000000000000000000000000000000100013376872783ELIANE MENDES DA SILVA                  RUAPROJETADA G                          SANTA CRUZ  00000000RIO DE JANEIRO RJUNIAO UMB DOS CULTOS AFRO BRAS    30031910 000051
10231987175000168817800093673    000039331                    000393310000000000000109                     I0139331     30031900000000040003410000017N261218104700000000000103003190000000000000000000000000000000000000000100089308956700COSME NEVES ARRUDA                      RUA SANTO AMARO                         GLORIA      22211230RIO DE JANEIRO RJUNIAO UMB DOS CULTOS AFRO BRAS    30031910 000052
10231987175000168817800093673    000039330                    000393300000000000000109                     I0139330     30031900000000040003410000017N261218104700000000000103003190000000000000000000000000000000000000000100034463399300MARIA ENOIA DE SOUSA CORREA             RUA: RODEZIA                            BANCARIO - I21910145RIO DE JANEIRO RJUNIAO UMB DOS CULTOS AFRO BRAS    30031910 000053
10231987175000168817800093673    000039329                    000393290000000000000109                     I0139329     30031900000000040003410000017N261218104700000000000103003190000000000000000000000000000000000000000100000101414722CELIA REGINA CARVALHO                   RUA FELIPE CAMARAO                      RETIRO      25680510PETROPOLIS     RJUNIAO UMB DOS CULTOS AFRO BRAS    30031910 000054
10231987175000168817800093673    000039328                    000393280000000000000109                     I0139328     30031900000000040003410000017N261218104700000000000103003190000000000000000000000000000000000000000100002085972713ELIANE DOMINGOS DE SOUZA                RUA CAROBEIRA                           CINCO MARIA 23032110GUARATIBA      RJUNIAO UMB DOS CULTOS AFRO BRAS    30031910 000055
10231987175000168817800093673    000039327                    000393270000000000000109                     I0139327     30031900000000040003410000017N261218104700000000000103003190000000000000000000000000000000000000000100000848852702RODNEY MARQUES                          RUA PEREIRA LEITAO                      TURIACU     21550100RIO DE JANEIRO RJUNIAO UMB DOS CULTOS AFRO BRAS    30031910 000056
10231987175000168817800093673    000039326                    000393260000000000000109                     I0139326     30031900000000040003410000017N261218104700000000000103003190000000000000000000000000000000000000000100008030521707MONICA MIRANDA DE BARROS                RUA CATULO CEARENSE                     ENGENHO DE D00000000RIO DE JANEIRO RJUNIAO UMB DOS CULTOS AFRO BRAS    30031910 000057
10231987175000168817800093673    000039325                    000393250000000000000109                     I0139325     30031900000000040003410000017N261218104700000000000103003190000000000000000000000000000000000000000100002101171767HELENA DE JESUS                         RUA JOAO ROMEIRO                        CASCADURA   21311000RIO DE JANEIRO RJUNIAO UMB DOS CULTOS AFRO BRAS    30031910 000058
10231987175000168817800093673    000039324                    000393240000000000000109                     I0139324     30031900000000040003410000017N261218104700000000000103003190000000000000000000000000000000000000000100032140649320ROSA ELENA ALVES DA COSTA               RUA: NILTON CORDEIRO                    MARE        21044052RIO DE JANEIRO RJUNIAO UMB DOS CULTOS AFRO BRAS    30031910 000059
10231987175000168817800093673    000039323                    000393230000000000000109                     I0139323     30031900000000040003410000017N261218104700000000000103003190000000000000000000000000000000000000000100073943266753LAINE VERONICA ALVES MONTEIRO           RUA: PREFEITO XAVIER DA SILVEIRA        VILA SANTO A26294303DUQUE DE CAXIASRJUNIAO UMB DOS CULTOS AFRO BRAS    30031910 000060
10231987175000168817800093673    000039322                    000393220000000000000109                     I0139322     30031900000000040003410000017N261218104700000000000103003190000000000000000000000000000000000000000100008068599703CLEIDE JANE ROCHA CONTE                 RUA: C                                  PARQUE AMORI26185342BELFORD ROXO   RJUNIAO UMB DOS CULTOS AFRO BRAS    30031910 000061
10231987175000168817800093673    000039321                    000393210000000000000109                     I0139321     30031900000000040003410000017N261218104700000000000103003190000000000000000000000000000000000000000100016931588761IGOR RODRIGUES DA SILVA                 RUA: EMBAU                              PAVUNA      21535000RIO DE JANEIRO RJUNIAO UMB DOS CULTOS AFRO BRAS    30031910 000062
10231987175000168817800093673    000039320                    000393200000000000000109                     I0139320     30031900000000040003410000017N261218104700000000000103003190000000000000000000000000000000000000000100008379116720ALLAN SOUZA PEREIRA FERREIRA            BECO: DOS SONHOS                        SANTA CRUZ  23591400RIO DE JANEIRO RJUNIAO UMB DOS CULTOS AFRO BRAS    30031910 000063
10231987175000168817800093673    000039319                    000393190000000000000109                     I0139319     30031900000000040003410000017N261218104700000000000103003190000000000000000000000000000000000000000100007403387732MARCOS MAURICIO DOS SANTOS COS          RUA: BOA VISTA                          CARAMUJO    24140460NITEROI        RJUNIAO UMB DOS CULTOS AFRO BRAS    30031910 000064
10231987175000168817800093673    000039318                    000393180000000000000109                     I0139318     30031900000000040003410000017N261218104700000000000103003190000000000000000000000000000000000000000100048639389772ONESIO JOSINO DOS SANTOS                RUA: VINTE E DOIS                       BRISA MAR   23825587ITAGUAI        RJUNIAO UMB DOS CULTOS AFRO BRAS    30031910 000065
10231987175000168817800093673    000039317                    000393170000000000000109                     I0139317     30031900000000040003410000017N261218104700000000000103003190000000000000000000000000000000000000000100099447690700CARLA LESSA QUINTANILHA VASCON          RUA: BORBOREMA                          MADUREIRA   21360150RIO DE JANEIRO RJUNIAO UMB DOS CULTOS AFRO BRAS    30031910 000066
10231987175000168817800093673    000039316                    000393160000000000000109                     I0139316     30031900000000040003410000017N261218104700000000000103003190000000000000000000000000000000000000000100008566591771TAISSA RIBEIRO PETRA MELLO              RUA CLARICE ROSA DA COSTA               JARDIM INTER24900830MARICA         RJUNIAO UMB DOS CULTOS AFRO BRAS    30031910 000067
10231987175000168817800093673    000039315                    000393150000000000000109                     I0139315     30031900000000040003410000017N261218104700000000000103003190000000000000000000000000000000000000000100014165634743GLAUBER VINICIUS DE ALMEIDA BA          RUA SAO CARLOS                          ESTACIO     20250052RIO DE JANEIRO RJUNIAO UMB DOS CULTOS AFRO BRAS    30031910 000068
10231987175000168817800093673    000039314                    000393140000000000000109                     I0139314     30031900000000040003410000017N261218104700000000000103003190000000000000000000000000000000000000000100095906746749KATIA LOPES SOARES                      ESTRADA PAU DA FOME                     TAQUARA     22723347RIO DE JANEIRO RJUNIAO UMB DOS CULTOS AFRO BRAS    30031910 000069
10231987175000168817800093673    000039313                    000393130000000000000109                     I0139313     30031900000000040003410000017N261218104700000000000103003190000000000000000000000000000000000000000100012303421764PEDRO JONAS ARAUJO CORDEIRO             RUA JOSE LIMA DA SILVA                  SANTA RITA  26185610BELFORD ROXO   RJUNIAO UMB DOS CULTOS AFRO BRAS    30031910 000070
10231987175000168817800093673    000039312                    000393120000000000000109                     I0139312     30031900000000040003410000017N261218104700000000000103003190000000000000000000000000000000000000000100000000000000REINALDO FERREIRA DOS SANTOS            RUA LESTE                               JARDIM PARAI26297294NOVA IGUACU    RJUNIAO UMB DOS CULTOS AFRO BRAS    30031910 000071
10231987175000168817800093673    000039311                    000393110000000000000109                     I0139311     30031900000000040003410000017N261218104700000000000103003190000000000000000000000000000000000000000100003413776789CRISTIANE DE SOUZA GALANTE INA          RUA SABIA                               SITIO RETIRO26167500SAO JOAO DE MERRJUNIAO UMB DOS CULTOS AFRO BRAS    30031910 000072
10231987175000168817800093673    000039310                    000393100000000000000109                     I0139310     30031900000000040003410000017N261218104700000000000103003190000000000000000000000000000000000000000100085965871791VALERIA MENDES BARBOSA DOS SAN          RUA SAO PATRICIO                        JARDIM NOVA 26265540NOVA IGUACU    RJUNIAO UMB DOS CULTOS AFRO BRAS    30031910 000073
10231987175000168817800093673    000039309                    000393090000000000000109                     I0139309     30031900000000040003410000017N261218104700000000000103003190000000000000000000000000000000000000000100008323642745ROSEMERI DE SOUZA COUTINHO              RUA VERA LUCIA                          CABUCU      26291452NOVA IGUACU    RJUNIAO UMB DOS CULTOS AFRO BRAS    30031910 000074
10231987175000168817800093673    000039308                    000393080000000000000109                     I0139308     30031900000000040003410000017N261218104700000000000103003190000000000000000000000000000000000000000100007147220730LUIS CARLOS DA COSTA OLIVEIRA           RUA MINAS GERAIS                        CAMPO ALEGRE26292141NOVA IGUACU    RJUNIAO UMB DOS CULTOS AFRO BRAS    30031910 000075
10231987175000168817800093673    000039307                    000393070000000000000109                     I0139307     30031900000000040003410000017N261218104700000000000103003190000000000000000000000000000000000000000100001862512701WASHINGTON SACERDOTE DAS NEVES          RUA IPOMEIA                             PARQUE SAO V26172040RIO DE JANEIRO RJUNIAO UMB DOS CULTOS AFRO BRAS    30031910 000076
10231987175000168817800093673    000039306                    000393060000000000000109                     I0139306     30031900000000040003410000017N261218104700000000000103003190000000000000000000000000000000000000000100036139050782VIRGINIA DANTAS FERREIRA                AVENIDA BEIRA                           COROA GRANDE23821310RIO DE JANEIRO RJUNIAO UMB DOS CULTOS AFRO BRAS    30031910 000077
10231987175000168817800093673    000039305                    000393050000000000000109                     I0139305     30031900000000040003410000017N261218104700000000000103003190000000000000000000000000000000000000000100009060523784MARTA ANJOS PEREIRA DO NASCIME          AVENIDA MARECHAL RONDON                 SAMPAIO     20950071RIO DE JANEIRO RJUNIAO UMB DOS CULTOS AFRO BRAS    30031910 000078
10231987175000168817800093673    000039304                    000393040000000000000109                     I0139304     30031900000000040003410000017N261218104700000000000103003190000000000000000000000000000000000000000100070550891749CELSO POYDO MENDES                      RUA: SOUZA FREITAS                      PILARES     20760710RIO DE JANEIRO RJUNIAO UMB DOS CULTOS AFRO BRAS    30031910 000079
10231987175000168817800093673    000039303                    000393030000000000000109                     I0139303     30031900000000040003410000017N261218104700000000000103003190000000000000000000000000000000000000000100001493061795MARCIO NUNES BARBOSA                    RUA BELA                                SAO CRISTOVA20930380RIO DE JANEIRO RJUNIAO UMB DOS CULTOS AFRO BRAS    30031910 000080
10231987175000168817800093673    000039302                    000393020000000000000109                     I0139302     30031900000000040003410000017N261218104700000000000103003190000000000000000000000000000000000000000100003389142770VANIA VIEIRA                            RUA NAMUR                               VILA VALQUEI21330600RIO DE JANEIRO RJUNIAO UMB DOS CULTOS AFRO BRAS    30031910 000081
10231987175000168817800093673    000039301                    000393010000000000000109                     I0139301     30031900000000040003410000017N261218104700000000000103003190000000000000000000000000000000000000000100008350095725LUIZ LUCIANO ADAO                       RUA ALAGOAS                             SANTA CRUZ D25255070DUQUE DE CAXIASRJUNIAO UMB DOS CULTOS AFRO BRAS    30031910 000082
10231987175000168817800093673    000039300                    000393000000000000000109                     I0139300     30031900000000040003410000017N261218104700000000000103003190000000000000000000000000000000000000000100001359669736JUCILENE DOS SANTOS GALVAO              RUA ALICE FREITAS                       VICENTE DE C21371220RIO DE JANEIRO RJUNIAO UMB DOS CULTOS AFRO BRAS    30031910 000083
10231987175000168817800093673    000039299                    000392990000000000000109                     I0139299     30031900000000040003410000017N261218104700000000000103003190000000000000000000000000000000000000000100007202542722MIRLA SUSANI DA SILVA SALES             RUA: DOUTOR FREDERICO                   LAGOINHA    26296414NOVA IGUACU    RJUNIAO UMB DOS CULTOS AFRO BRAS    30031910 000084
10231987175000168817800093673    000039298                    000392980000000000000109                     I0139298     30031900000000040003410000017N261218104700000000000103003190000000000000000000000000000000000000000100034727272768JOSEFINA AGUIAR CASTRO                  RUA DOUTOR NELSON FERNANDES             PARQUE CAPIV25900000DUQUE DE CAXIASRJUNIAO UMB DOS CULTOS AFRO BRAS    30031910 000085
10231987175000168817800093673    000039297                    000392970000000000000109                     I0139297     30031900000000040003410000017N261218104700000000000103003190000000000000000000000000000000000000000100068117850710GILCLEIDE DOS SANTOS GOMES              AVENIDA: JOAO VINTE E TRES              SANTA CRUZ  23560352RIO DE JANEIRO RJUNIAO UMB DOS CULTOS AFRO BRAS    30031910 000086
10231987175000168817800093673    000039296                    000392960000000000000109                     I0139296     30031900000000040003410000017N261218104700000000000103003190000000000000000000000000000000000000000100008283050800JOSE RICARDO DE MOURA                   RUA TENENTE SILVINO                     CERAMICA    26030126NOVA IGUACU    RJUNIAO UMB DOS CULTOS AFRO BRAS    30031910 000087
10231987175000168817800093673    000039295                    000392950000000000000109                     I0139295     30031900000000040003410000017N261218104700000000000103003190000000000000000000000000000000000000000100016840152782DARIO JOSE DA SILVA FILHO               RUA: PEDRO II                           VILA IBIRAPI23512530RIO DE JANEIRO RJUNIAO UMB DOS CULTOS AFRO BRAS    30031910 000088
10231987175000168817800093673    000039294                    000392940000000000000109                     I0139294     30031900000000040003410000017N261218104700000000000103003190000000000000000000000000000000000000000100075164779749IVANILDO FURTADO DA SILVA               RUA: LUIZ DE CASTRO                     PILARES     21760732RIO DE JANEIRO RJUNIAO UMB DOS CULTOS AFRO BRAS    30031910 000089
10231987175000168817800093673    000039293                    000392930000000000000109                     I0139293     30031900000000040003410000017N261218104700000000000103003190000000000000000000000000000000000000000100002520191724ANA LUCIA MENEZES DO NASCIMENT          RUA: VEREADOR FRANCISCO NUNES SILVA     OLINA       26545060NILOPOLIS      RJUNIAO UMB DOS CULTOS AFRO BRAS    30031910 000090
10231987175000168817800093673    000039292                    000392920000000000000109                     I0139292     30031900000000040003410000017N261218104700000000000103003190000000000000000000000000000000000000000100002098051700FELIPE LOPES DA COSTA CHAVES            RUA: JOSE PINTO FAUSTINO                IPIRANGA    26293441NOVA IGUACU    RJUNIAO UMB DOS CULTOS AFRO BRAS    30031910 000091
10231987175000168817800093673    000039291                    000392910000000000000109                     I0139291     30031900000000040003410000017N261218104700000000000103003190000000000000000000000000000000000000000100003134182769SANDRA HELENA DA SILVA                  RUA MARIA MACHADO PANZA                 PACHECO     24732200SAO GONCALO    RJUNIAO UMB DOS CULTOS AFRO BRAS    30031910 000092
10231987175000168817800093673    000039290                    000392900000000000000109                     I0139290     30031900000000040003410000017N261218104700000000000103003190000000000000000000000000000000000000000100012119575789RAYKA DA SILVA BATISTA                  RUA PARAISO                             PIABETA     25931638MAGE           RJUNIAO UMB DOS CULTOS AFRO BRAS    30031910 000093
10231987175000168817800093673    000039289                    000392890000000000000109                     I0139289     30031900000000040003410000017N261218104700000000000103003190000000000000000000000000000000000000000100015041746745ANAISE SOARES DO CARMO                  RUA FRANCISCO ALVES                     SEPETIBA    23542120RIO DE JANEIRO RJUNIAO UMB DOS CULTOS AFRO BRAS    30031910 000094
10231987175000168817800093673    000039288                    000392880000000000000109                     I0139288     30031900000000040003410000017N261218104700000000000103003190000000000000000000000000000000000000000100001105664759NANCI GOMES BORGES PINTO                RUA: ORLANDO FRANCISCO JUNIOR           CAMPO LINDO 23898435SEROPEDICA     RJUNIAO UMB DOS CULTOS AFRO BRAS    30031910 000095
10231987175000168817800093673    000039287                    000392870000000000000109                     I0139287     30031900000000040003410000017N261218104700000000000103003190000000000000000000000000000000000000000100053177827733CREUZA FREITAS DOS SANTOS               RUA HERMES DA SILVA                     SANTA CRUZ  23550155RIO DE JANEIRO RJUNIAO UMB DOS CULTOS AFRO BRAS    30031910 000096
10231987175000168817800093673    000039286                    000392860000000000000109                     I0139286     30031900000000040003410000017N261218104700000000000103003190000000000000000000000000000000000000000100002414887702MARGARETH MARIA DA SILVA GONCA          RUA: SEBASTIAO DE CARVALHO              RAMOS       21061670RIO DE JANEIRO RJUNIAO UMB DOS CULTOS AFRO BRAS    30031910 000097
10231987175000168817800093673    000039285                    000392850000000000000109                     I0139285     30031900000000040003410000017N261218104700000000000103003190000000000000000000000000000000000000000100066645352700NILZA BELISARIO DAMIAO                  RUA ESPERANCA                           JARDIM PARAI00000000RIO DE JANEIRO RJUNIAO UMB DOS CULTOS AFRO BRAS    30031910 000098
10231987175000168817800093673    000039284                    000392840000000000000109                     I0139284     30031900000000040003410000017N261218104700000000000103003190000000000000000000000000000000000000000100009572644700FABIO DE SOUZA BARBOSA                  RUA DA ESPERANCA                        JARDIM PARAI00000000RIO DE JANEIRO RJUNIAO UMB DOS CULTOS AFRO BRAS    30031910 000099
10231987175000168817800093673    000039283                    000392830000000000000109                     I0139283     30031900000000040003410000017N261218104700000000000103003190000000000000000000000000000000000000000100067559697704LENILSON PEREIRA DA COSTA               TRAVESSA MANUEL ANGELO                  AREAL       24800566ITABORAI       RJUNIAO UMB DOS CULTOS AFRO BRAS    30031910 000100
10231987175000168817800093673    000039282                    000392820000000000000109                     I0139282     30031900000000040003410000017N261218104700000000000103003190000000000000000000000000000000000000000100001786216760WASHINGTON FERNANDO DA CONCEIC          RUA DONA ELVIRA                         NOVO HORIZON25937112MAGE           RJUNIAO UMB DOS CULTOS AFRO BRAS    30031910 000101
10231987175000168817800093673    000039281                    000392810000000000000109                     I0139281     30031900000000040003410000017N261218104700000000000103003190000000000000000000000000000000000000000100053860225120OTILIA REGINA DE ALENCAR                RUA PROJETADA                           VERIDIANA   00000000RIO DE JANEIRO RJUNIAO UMB DOS CULTOS AFRO BRAS    30031910 000102
10231987175000168817800093673    000039280                    000392800000000000000109                     I0139280     30031900000000040003410000017N261218104700000000000103003190000000000000000000000000000000000000000100092802737791CARMEN DEA NOGUEIRA DIAS                AVENIDA MACHADO DE ASSIS                VILA IBIRAPI23811820ITAGUAI        RJUNIAO UMB DOS CULTOS AFRO BRAS    30031910 000103
10231987175000168817800093673    000039279                    000392790000000000000109                     I0139279     30031900000000040003410000017N261218104700000000000103003190000000000000000000000000000000000000000100045965986734ELISABETH BARRETO DO COUTO ALV          RUA SAMUEL GUIMARAES                    SAO FRANCISC22270000RIO DE JANEIRO RJUNIAO UMB DOS CULTOS AFRO BRAS    30031910 000104
10231987175000168817800093673    000039278                    000392780000000000000109                     I0139278     30031900000000040003410000017N261218104700000000000103003190000000000000000000000000000000000000000100014328358740SILAS BARBOSA DE SOUZA                  ESTRADA REAL DE MAUA                    JARDIM DA PA25926684RIO DE JANEIRO RJUNIAO UMB DOS CULTOS AFRO BRAS    30031910 000105
10231987175000168817800093673    000039277                    000392770000000000000109                     I0139277     30031900000000040003410000017N261218104700000000000103003190000000000000000000000000000000000000000100099099616449JANAINA BORGES DA SILVA                 RUA: PAULO JOSE MAHFUD                  VARGEM PEQUE22783395RIO DE JANEIRO RJUNIAO UMB DOS CULTOS AFRO BRAS    30031910 000106
10231987175000168817800093673    000039276                    000392760000000000000109                     I0139276     30031900000000040003410000017N261218104700000000000103003190000000000000000000000000000000000000000100074641980772IRENE MARQUES DA MOTA                   RUA: PORTO CAMARGO                      JARDIM MARAV23033170GUARATIBA      RJUNIAO UMB DOS CULTOS AFRO BRAS    30031910 000107
10231987175000168817800093673    000039275                    000392750000000000000109                     I0139275     30031900000000040003410000017N261218104700000000000103003190000000000000000000000000000000000000000100005818072789MARLUCE MARIA DE OLIVEIRA               RUA PAHAND                              SANTA TEREZA26193500BELFORD ROXO   RJUNIAO UMB DOS CULTOS AFRO BRAS    30031910 000108
10231987175000168817800093673    000039274                    000392740000000000000109                     I0139274     30031900000000040003410000017N261218104700000000000103003190000000000000000000000000000000000000000100052873587687MARIA AMELIA DOMINGUES REZENDE          RUA DOS VERANISTAS                      GUARAPARI   29000000ESPIRITO SANTO ESUNIAO UMB DOS CULTOS AFRO BRAS    30031910 000109
10231987175000168817800093673    000039273                    000392730000000000000109                     I0139273     30031900000000040003410000017N261218104700000000000103003190000000000000000000000000000000000000000100085748781700NELSON TEIXEIRA RUI FILHO               RUA CAROLINA AMADO                      IRAJA       21361320RIO DE JANEIRO RJUNIAO UMB DOS CULTOS AFRO BRAS    30031910 000110
10231987175000168817800093673    000039272                    000392720000000000000109                     I0139272     30031900000000040003410000017N261218104700000000000103003190000000000000000000000000000000000000000100029759030730JOSE ROBERTO MELLO COIMBRA              RUA SALVADOR SABATE                     REALENGO    21760020RIO DE JANEIRO RJUNIAO UMB DOS CULTOS AFRO BRAS    30031910 000111
10231987175000168817800093673    000039271                    000392710000000000000109                     I0139271     30031900000000040003410000017N261218104700000000000103003190000000000000000000000000000000000000000100093265883787ROSANGELA BARBOSA DE CARVALHO           CAMINHO DOS TELEGRAFOS                  SENADOR CAMA21832415RIO DE JANEIRO RJUNIAO UMB DOS CULTOS AFRO BRAS    30031910 000112
10231987175000168817800093673    000039270                    000392700000000000000109                     I0139270     30031900000000040003410000017N261218104700000000000103003190000000000000000000000000000000000000000100010212584740TIAGO VEROL DE SOUZA                    RUA: REGISTRO                           SENADOR CAMA21832006RIO DE JANEIRO RJUNIAO UMB DOS CULTOS AFRO BRAS    30031910 000113
10231987175000168817800093673    000039269                    000392690000000000000109                     I0139269     30031900000000040003410000017N261218104700000000000103003190000000000000000000000000000000000000000100039869253768MARIA DE LOURDES FERREIRA               RUA GERSON TELES RIBEIRO                CENTRO      26193590DUQUE DE CAXIASRJUNIAO UMB DOS CULTOS AFRO BRAS    30031910 000114
10231987175000168817800093673    000039268                    000392680000000000000109                     I0139268     30031900000000040003410000017N261218104700000000000103003190000000000000000000000000000000000000000100001860329780VIVIANE DE PAULA AGNELO                 RUA DA VITORIA                          PARAISO     26297138NOVA IGUACU    RJUNIAO UMB DOS CULTOS AFRO BRAS    30031910 000115
10231987175000168817800093673    000039267                    000392670000000000000109                     I0139267     30031900000000040003410000017N261218104700000000000103003190000000000000000000000000000000000000000100007416975727ANGELICA AMARAL GOTELIP BARBOS          RUA MARECHAL MARCIANO - TRAVESSA 120    REALENGO    21735652RIO DE JANEIRO RJUNIAO UMB DOS CULTOS AFRO BRAS    30031910 000116
10231987175000168817800093673    000039266                    000392660000000000000109                     I0139266     30031900000000040003410000017N261218104700000000000103003190000000000000000000000000000000000000000100009350031779TAIS AZEVEDO DOS SANTOS CAMPOS          RUA: CLOTILDE DE OLIVEIRA RODRIGUES     FONSECA     24120170NITEROI        RJUNIAO UMB DOS CULTOS AFRO BRAS    30031910 000117
10231987175000168817800093673    000039265                    000392650000000000000109                     I0139265     30031900000000040003410000017N261218104700000000000103003190000000000000000000000000000000000000000100009297297730FLAVIO JOAQUIM DOS SANTOS               RUA: SAO PAULO                          PALMARES    23585800RIO DE JANEIRO RJUNIAO UMB DOS CULTOS AFRO BRAS    30031910 000118
10231987175000168817800093673    000039264                    000392640000000000000109                     I0139264     30031900000000040003410000017N261218104700000000000103003190000000000000000000000000000000000000000100005283706721LEVY ANDRE ASSIS FERREIRA DA S          TRAVESSA SANTO ANTONIO                  MARECHAL HER21557190RIO DE JANEIRO RJUNIAO UMB DOS CULTOS AFRO BRAS    30031910 000119
10231987175000168817800093673    000039263                    000392630000000000000109                     I0139263     30031900000000040003410000017N261218104700000000000103003190000000000000000000000000000000000000000100010440702771AMANDA APARECIDA AZEVEDO CARDO          RUA IVONETE                             CONJUNTO SAN00000000RIO DE JANEIRO RJUNIAO UMB DOS CULTOS AFRO BRAS    30031910 000120
10231987175000168817800093673    000039262                    000392620000000000000109                     I0139262     30031900000000040003410000017N261218104700000000000103003190000000000000000000000000000000000000000100011709590775JOYCE MARA PINHEIRO DA SILVA            RUA SILVIO TIBIRICA                     TURIACU     21540200RIO DE JANEIRO RJUNIAO UMB DOS CULTOS AFRO BRAS    30031910 000121
10231987175000168817800093673    000039261                    000392610000000000000109                     I0139261     30031900000000040003410000017N261218104700000000000103003190000000000000000000000000000000000000000100014963009714MICHELLE DA SILVA SOARES                RUA MINAS GERAIS                        PIABETA     25935525MAGE           RJUNIAO UMB DOS CULTOS AFRO BRAS    30031910 000122
10231987175000168817800093673    000039260                    000392600000000000000109                     I0139260     30031900000000040003410000017N261218104700000000000103003190000000000000000000000000000000000000000100002305172770VALDIRENE ALBUQUERQUE MARCIEL           RUA GUARAGUATATUBA                      VILA ROSARIO25030040DUQUE DE CAXIASRJUNIAO UMB DOS CULTOS AFRO BRAS    30031910 000123
10231987175000168817800093673    000039259                    000392590000000000000109                     I0139259     30031900000000040003410000017N261218104700000000000103003190000000000000000000000000000000000000000100000213766701ROSIVANIA CRUZ DA SILVA                 RUA ERNANI DE BRITO                     SEPETIBA    23535131RIO DE JANEIRO RJUNIAO UMB DOS CULTOS AFRO BRAS    30031910 000124
10231987175000168817800093673    000039258                    000392580000000000000109                     I0139258     30031900000000040003410000017N261218104700000000000103003190000000000000000000000000000000000000000100085737437787NIVALDA PIRES RUFINO                    RUA: MARIO CARPENTER                    ABOLICAO    20755065RIO DE JANEIRO RJUNIAO UMB DOS CULTOS AFRO BRAS    30031910 000125
10231987175000168817800093673    000039257                    000392570000000000000109                     I0139257     30031900000000040003410000017N261218104700000000000103003190000000000000000000000000000000000000000100059622091768ALDA GOMES DA SILVA                     RUA: VILA DOZE                          JARDIM PALMA23066186RIO DE JANEIRO RJUNIAO UMB DOS CULTOS AFRO BRAS    30031910 000126
10231987175000168817800093673    000039256                    000392560000000000000109                     I0139256     30031900000000040003410000017N261218104700000000000103003190000000000000000000000000000000000000000100005380679773ROBERTO DE OLIVEIRA RIBEIRO JU          RUA VINTE E TRES                        SANTA CRUZ  23500000RIO DE JANEIRO RJUNIAO UMB DOS CULTOS AFRO BRAS    30031910 000127
10231987175000168817800093673    000039255                    000392550000000000000109                     I0139255     30031900000000040003410000017N261218104700000000000103003190000000000000000000000000000000000000000100006485913793IASMIM SANTANA DA SILVA DE OLI          ILHA DE ITACURUCA                       PRAIA GRANDE23860000RIO DE JANEIRO RJUNIAO UMB DOS CULTOS AFRO BRAS    30031910 000128
10231987175000168817800093673    000039254                    000392540000000000000109                     I0139254     30031900000000040003410000017N261218104700000000000103003190000000000000000000000000000000000000000100052889378772ANGELA MARIA DA SILVA ANDRADE           RUA WILSON GIL DA MATTA                 CENTRO      25515101SAO JOAO DE MERRJUNIAO UMB DOS CULTOS AFRO BRAS    30031910 000129
10231987175000168817800093673    000039253                    000392530000000000000109                     I0139253     30031900000000040003410000017N261218104700000000000103003190000000000000000000000000000000000000000100010486021769SIDNEY RODRIGUES DA SILVA JUNI          RUA DAS VIDEIRAS                        MORADA VERDE23065520PACIENCIA      RJUNIAO UMB DOS CULTOS AFRO BRAS    30031910 000130
10231987175000168817800093673    000039252                    000392520000000000000109                     I0139252     30031900000000040003410000017N261218104700000000000103003190000000000000000000000000000000000000000100001244562785LUIS CARLOS RIBEIRO                     RUA NEIDE AFONSO                        SHANGRILA RO26150020BELFORD ROXO   RJUNIAO UMB DOS CULTOS AFRO BRAS    30031910 000131
10231987175000168817800093673    000039251                    000392510000000000000109                     I0139251     30031900000000040003410000017N261218104700000000000103003190000000000000000000000000000000000000000100003256338780REGINALDO ROSA DA SILVA                 RUA PAULO AFONSO                        IPIRANGA ALI26293381NOVA IGUACU    RJUNIAO UMB DOS CULTOS AFRO BRAS    30031910 000132
10231987175000168817800093673    000039250                    000392500000000000000109                     I0139250     30031900000000040003410000017N261218104700000000000103003190000000000000000000000000000000000000000100004474665775REGINALDO RAMOS DA SILVA                RUA JULIO DE CASTILHOS                  JARDIM ROTSE25270210DUQUE DE CAXIASRJUNIAO UMB DOS CULTOS AFRO BRAS    30031910 000133
10231987175000168817800093673    000039249                    000392490000000000000109                     I0139249     30031900000000040003410000017N261218104700000000000103003190000000000000000000000000000000000000000100041998839753MARIA HELENA FERREIRA DA SILVA          RUA J                                   SANTA CRUZ  23595100RIO DE JANEIRO RJUNIAO UMB DOS CULTOS AFRO BRAS    30031910 000134
10231987175000168817800093673    000039248                    000392480000000000000109                     I0139248     30031900000000040003410000017N261218104700000000000103003190000000000000000000000000000000000000000100062788396791SERGIO LUCAS DE SOUZA                   TRAVESSA CARLOS XAVIER                  MADUREIRA   21310010RIO DE JANEIRO RJUNIAO UMB DOS CULTOS AFRO BRAS    30031910 000135
10231987175000168817800093673    000039247                    000392470000000000000109                     I0139247     30031900000000040003410000017N261218104700000000000103003190000000000000000000000000000000000000000100093521987787KATIA CRISTINA DANNEMBERG               ESTRADA DO PORTINHO                     IRAJA       21235400RIO DE JANEIRO RJUNIAO UMB DOS CULTOS AFRO BRAS    30031910 000136
10231987175000168817800093673    000039246                    000392460000000000000109                     I0139246     30031900000000040003410000017N261218104700000000000103003190000000000000000000000000000000000000000100093678754791ROSINETE MARIA DE OLIVEIRA              RUA ANGOLA                              CAPIVARI    25145080DUQUE DE CAXIASRJUNIAO UMB DOS CULTOS AFRO BRAS    30031910 000137
10231987175000168817800093673    000039245                    000392450000000000000109                     I0139245     30031900000000040003410000017N261218104700000000000103003190000000000000000000000000000000000000000100009289778709HELAINE FRANKLIN TEIXEIRA               RUA CACHOEIRA ALTA                      JARDIM MARAV23031070CAMPO GRANDE   RJUNIAO UMB DOS CULTOS AFRO BRAS    30031910 000138
10231987175000168817800093673    000039244                    000392440000000000000109                     I0139244     30031900000000040003410000017N261218104700000000000103003190000000000000000000000000000000000000000100069852219715GREIZI DE CARVALHO CARVALHAES           RUA BUENOS AIRES                        JARDIM PERNA26275390NOVA IGUACU    RJUNIAO UMB DOS CULTOS AFRO BRAS    30031910 000139
10231987175000168817800093673    000039243                    000392430000000000000109                     I0139243     30031900000000040003410000017N261218104700000000000103003190000000000000000000000000000000000000000100001096953722CLAUDIA GUIMARAES                       ESTRADA GUANDU DO SENA - RUA 29         CAMPO GRANDE23091220RIO DE JANEIRO RJUNIAO UMB DOS CULTOS AFRO BRAS    30031910 000140
10231987175000168817800093673    000039242                    000392420000000000000109                     I0139242     30031900000000040003410000017N261218104700000000000103003190000000000000000000000000000000000000000100080091229715MARCO ANTONIO DE OLIVEIRA TEIX          RUA QUARENTA E UM                       JARDIM NOSSA23097260CAMPO GRANDE   RJUNIAO UMB DOS CULTOS AFRO BRAS    30031910 000141
10231987175000168817800093673    000039241                    000392410000000000000109                     I0139241     30031900000000040003410000017N261218104700000000000103003190000000000000000000000000000000000000000100046840117715TERESA CRISTINA DE MELLO SOARE          RUA CANUTAMA                            OSWALDO CRUZ21340440RIO DE JANEIRO RJUNIAO UMB DOS CULTOS AFRO BRAS    30031910 000142
10231987175000168817800093673    000039240                    000392400000000000000109                     I0139240     30031900000000040003410000017N261218104700000000000103003190000000000000000000000000000000000000000100095760024787LUCIMARA DIAS DE OLIVEIRA               RUA SANTO ELIAS                         TURIACU     21540390RIO DE JANEIRO RJUNIAO UMB DOS CULTOS AFRO BRAS    30031910 000143
10231987175000168817800093673    000039239                    000392390000000000000109                     I0139239     30031900000000040003410000017N261218104700000000000103003190000000000000000000000000000000000000000100003443839703ANDERSON FERNANDES DE PAIVA             RUA JUDITE GUERRA                       PAVUNA      21520260RIO DE JANEIRO RJUNIAO UMB DOS CULTOS AFRO BRAS    30031910 000144
10231987175000168817800093673    000039238                    000392380000000000000109                     I0139238     30031900000000040003410000017N261218104700000000000103003190000000000000000000000000000000000000000100012218258790WILIAM ULERICH MARTINS                  RUA ANTONIO AUSTREGESILO                INHAUMA     21061300RIO DE JANEIRO RJUNIAO UMB DOS CULTOS AFRO BRAS    30031910 000145
10231987175000168817800093673    000039237                    000392370000000000000109                     I0139237     30031900000000040003410000017N261218104700000000000103003190000000000000000000000000000000000000000100003654035710ELLEN CRISTINA DE ORNELAS NARC          RUA MARECHAL MARCIANO                   REALENGO    21721011RIO DE JANEIRO RJUNIAO UMB DOS CULTOS AFRO BRAS    30031910 000146
10231987175000168817800093673    000039236                    000392360000000000000109                     I0139236     30031900000000040003410000017N261218104700000000000103003190000000000000000000000000000000000000000100009924715790JOSEFA MARIA DA SILVA                   TRAVESSA DOS LAVRADORES                 VILA SAO DOM26271340NOVA IGUACU    RJUNIAO UMB DOS CULTOS AFRO BRAS    30031910 000147
10231987175000168817800093673    000039235                    000392350000000000000109                     I0139235     30031900000000040003410000017N261218104700000000000103003190000000000000000000000000000000000000000100012687881716DAIANA SANTANA DE LIMA                  RUA MANAUS                              CAMPOS ELISE25225000DUQUE DE CAXIASRJUNIAO UMB DOS CULTOS AFRO BRAS    30031910 000148
10231987175000168817800093673    000039234                    000392340000000000000109                     I0139234     30031900000000040003410000017N261218104700000000000103003190000000000000000000000000000000000000000100007040620707MONICA BORGES MATTOS                    RUA INHAMUNS                            VILA VALQUEI21321330RIO DE JANEIRO RJUNIAO UMB DOS CULTOS AFRO BRAS    30031910 000149
10231987175000168817800093673    000039233                    000392330000000000000109                     I0139233     30031900000000040003410000017N261218104700000000000103003190000000000000000000000000000000000000000100000000000000JORGE EDUARDO PEREIRA VIANNA            RUA SERGIO MARTINS MOTA                 CABUCU      26291551NOVA IGUACU    RJUNIAO UMB DOS CULTOS AFRO BRAS    30031910 000150
10231987175000168817800093673    000039232                    000392320000000000000109                     I0139232     30031900000000040003410000017N261218104700000000000103003190000000000000000000000000000000000000000100093255586704GRECIETE GOUDARD                        ESTRADA DO CAMPINHO                     CAMPO GRANDE23066540RIO DE JANEIRO RJUNIAO UMB DOS CULTOS AFRO BRAS    30031910 000151
10231987175000168817800093673    000039231                    000392310000000000000109                     I0139231     30031900000000040003410000017N261218104700000000000103003190000000000000000000000000000000000000000100079034780791PAULO ROBERTO DE SOUZA MORENO           RUA CORONEL MALHAES                     TIRADENTES  26351180NOVA IGUACU    RJUNIAO UMB DOS CULTOS AFRO BRAS    30031910 000152
10231987175000168817800093673    000039230                    000392300000000000000109                     I0139230     30031900000000040003410000017N261218104700000000000103003190000000000000000000000000000000000000000100005229971711CATIA CILENE MASCARENHAS                TRAVESSA AMOR DO CAMPO                  CONJUNTO SAN21843743CAMPO GRANDE   RJUNIAO UMB DOS CULTOS AFRO BRAS    30031910 000153
10231987175000168817800093673    000039229                    000392290000000000000109                     I0139229     30031900000000040003410000017N261218104700000000000103003190000000000000000000000000000000000000000100089982118749LENIR SILVA DOS SANTOS                  RUA DA LUTA                             JARDIM LARAN26291278RIO DE JANEIRO RJUNIAO UMB DOS CULTOS AFRO BRAS    30031910 000154
10231987175000168817800093673    000039228                    000392280000000000000109                     I0139228     30031900000000040003410000017N261218104700000000000103003190000000000000000000000000000000000000000100005215608709KARYN GEYZA BATALHA BOECHAT             RUA GERVASEO                            CENTRO      26550020RIO DE JANEIRO RJUNIAO UMB DOS CULTOS AFRO BRAS    30031910 000155
10231987175000168817800093673    000039227                    000392270000000000000109                     I0139227     30031900000000040003410000017N261218104700000000000103003190000000000000000000000000000000000000000100000905236793ROSE GREGO SILVA DE SOUZA               RUA FLEXAL                              INHAUMA     20766610RIO DE JANEIRO RJUNIAO UMB DOS CULTOS AFRO BRAS    30031910 000156
10231987175000168817800093673    000039226                    000392260000000000000109                     I0139226     30031900000000040003410000017N261218104700000000000103003190000000000000000000000000000000000000000100002406515702GILMA RODRIGUES COUTO                   RUA PEREIRA FRAZAO                      PRACA SECA  21320220RIO DE JANEIRO RJUNIAO UMB DOS CULTOS AFRO BRAS    30031910 000157
10231987175000168817800093673    000039225                    000392250000000000000109                     I0139225     30031900000000040003410000017N261218104700000000000103003190000000000000000000000000000000000000000100051265699704MARIA FATIMA DE SOUSA                   RUA MAURITI DOS SANTOS                  EDEN        25525720RIO DE JANEIRO RJUNIAO UMB DOS CULTOS AFRO BRAS    30031910 000158
10231987175000168817800093673    000039224                    000392240000000000000109                     I0139224     30031900000000040003410000017N261218104700000000000103003190000000000000000000000000000000000000000100064494527734RONALDO ROSAS ALVES                     ESTRADA COMANDANTE                      PRATA       25976140TERESOPOLIS    RJUNIAO UMB DOS CULTOS AFRO BRAS    30031910 000159
10231987175000168817800093673    000039223                    000392230000000000000109                     I0139223     30031900000000040003410000017N261218104700000000000103003190000000000000000000000000000000000000000100060223170704MARIA DO CARMO DO NASCIMENTO S          RUA COBE                                BANGU       21820200RIO DE JANEIRO RJUNIAO UMB DOS CULTOS AFRO BRAS    30031910 000160
10231987175000168817800093673    000039222                    000392220000000000000109                     I0139222     30031900000000040003410000017N261218104700000000000103003190000000000000000000000000000000000000000100064506770749TERESINHA MARIA PEREIRA NOGUEI          BR 116 KM 78 - RUA ROSALINA PEREIRA DA MFONTE SANTA 25976060TERESOPOLIS    RJUNIAO UMB DOS CULTOS AFRO BRAS    30031910 000161
10231987175000168817800093673    000039221                    000392210000000000000109                     I0139221     30031900000000040003410000017N261218104700000000000103003190000000000000000000000000000000000000000100028095391700SERGIO GARCIA DE QUEIROZ                RUA MATO GROSSO                         SANTA CECILI25957250TERESOPOLIS    RJUNIAO UMB DOS CULTOS AFRO BRAS    30031910 000162
10231987175000168817800093673    000039220                    000392200000000000000109                     I0139220     30031900000000040003410000017N261218104700000000000103003190000000000000000000000000000000000000000100043397077753JOAO NORATO CEZARIO                     RUA POETA MANOEL BANDEIRA               CABUIS      26540260NILOPOLIS      RJUNIAO UMB DOS CULTOS AFRO BRAS    30031910 000163
10231987175000168817800093673    000039219                    000392190000000000000109                     I0139219     30031900000000040003410000017N261218104700000000000103003190000000000000000000000000000000000000000100012295676746JEFFERSON ANTONIO TELLES GALDI          RUA MOUZIN DE ALBUQUERQUE               SAO VICENTE 26178080BELFORD ROXO   RJUNIAO UMB DOS CULTOS AFRO BRAS    30031910 000164
10231987175000168817800093673    000039218                    000392180000000000000109                     I0139218     30031900000000040003410000017N261218104700000000000103003190000000000000000000000000000000000000000100091083532715MARCOS AURELIO PEREIRA RAMOS            RUA MATO GROSSO                         SANTA CECILI25957250TERESOPOLIS    RJUNIAO UMB DOS CULTOS AFRO BRAS    30031910 000165
10231987175000168817800093673    000039217                    000392170000000000000109                     I0139217     30031900000000040003410000017N261218104700000000000103003190000000000000000000000000000000000000000100003526002762HELOISA HELENA DE OLIVEIRA DA           RUA DOUTOR MUNIZ                        CENTRO      26130020BELFORD ROXO   RJUNIAO UMB DOS CULTOS AFRO BRAS    30031910 000166
10231987175000168817800093673    000039216                    000392160000000000000109                     I0139216     30031900000000040003410000017N261218104700000000000103003190000000000000000000000000000000000000000100005436665730JORGE LUIZ VICTORIO LIMA                AVENIDA MARCOVALDI                      NOVA ESPERAN26113040BELFORD ROXO   RJUNIAO UMB DOS CULTOS AFRO BRAS    30031910 000167
10231987175000168817800093673    000039215                    000392150000000000000109                     I0139215     30031900000000040003410000017N261218104700000000000103003190000000000000000000000000000000000000000100003005342727MAURICIO ESTORQUE                       RUA SERDIVAO JOSE NICOLAY               JARDIM FEO  25965430TERESOPOLIS    RJUNIAO UMB DOS CULTOS AFRO BRAS    30031910 000168
10231987175000168817800093673    000039214                    000392140000000000000109                     I0139214     30031900000000040003410000017N261218104700000000000103003190000000000000000000000000000000000000000100008046598771ANTONIO DA SILVA BARBOSA                MARIA JOSE FERREIRA DUARTE              ERMITAGE    25975780TERESOPOLIS    RJUNIAO UMB DOS CULTOS AFRO BRAS    30031910 000169
10231987175000168817800093673    000039213                    000392130000000000000109                     I0139213     30031900000000040003410000017N261218104700000000000103003190000000000000000000000000000000000000000100009526018770VERONICA MARIA LIMA                     RUA KEMAL PALHA                         VILA SANTO A25040220DUQUE DE CAXIASRJUNIAO UMB DOS CULTOS AFRO BRAS    30031910 000170
10231987175000168817800093673    000039212                    000392120000000000000109                     I0139212     30031900000000040003410000017N261218104700000000000103003190000000000000000000000000000000000000000100003250570596VERONICA LUCIA DA CRUZ                  ESTRADA DOUTOR FARRULA                  SAO FRANCISC26125400BELFORD ROXO   RJUNIAO UMB DOS CULTOS AFRO BRAS    30031910 000171
10231987175000168817800093673    000039211                    000392110000000000000109                     I0139211     30031900000000040003410000017N261218104700000000000103003190000000000000000000000000000000000000000100059598255700TEREZINHA MARIA DE JESUS PINHE          MANOEL DA SILVA PEREIRA                 PRADOS VERDE26299003NOVA IGUACU    RJUNIAO UMB DOS CULTOS AFRO BRAS    30031910 000172
10231987175000168817800093673    000039210                    000392100000000000000109                     I0139210     30031900000000040003410000017N261218104700000000000103003190000000000000000000000000000000000000000100002527980740ARMANDO DE ALMEIDA                      RUA PEDRO JOSE DE OLIVEIRA              VARGEM GRAND27145231BARRA DO PIRAI RJUNIAO UMB DOS CULTOS AFRO BRAS    30031910 000173
10231987175000168817800093673    000039209                    000392090000000000000109                     I0139209     30031900000000040003410000017N261218104700000000000103003190000000000000000000000000000000000000000100005978854785ALEXANDRE MOTA DOS SANTOS               RUA BRUNO SENDER                        JARDIM NOVA 26266040NOVA IGUACU    RJUNIAO UMB DOS CULTOS AFRO BRAS    30031910 000174
10231987175000168817800093673    000039208                    000392080000000000000109                     I0139208     30031900000000040003410000017N261218104700000000000103003190000000000000000000000000000000000000000100014907708793THIAGO CARVALHO VIDAL LIMA              RUA DONA DUCHA                          MARIA CONGA 25901238MAGE           RJUNIAO UMB DOS CULTOS AFRO BRAS    30031910 000175
10231987175000168817800093673    000039207                    000392070000000000000109                     I0139207     30031900000000040003410000017N261218104700000000000103003190000000000000000000000000000000000000000100082187401715JOSE AUGUSTO DA PAIXAO                  RUA GOMES CARNEIRO                      SARACURUNA  25211050DUQUE DE CAXIASRJUNIAO UMB DOS CULTOS AFRO BRAS    30031910 000176
10231987175000168817800093673    000039206                    000392060000000000000109                     I0139206     30031900000000040003410000017N261218104700000000000103003190000000000000000000000000000000000000000100011622292766ROBERT HELENO MACEDO                    TRAVESSA JOSE CARRETEIRO                ENGENHOCA   24110444NITEROI        RJUNIAO UMB DOS CULTOS AFRO BRAS    30031910 000177
10231987175000168817800093673    000039205                    000392050000000000000109                     I0139205     30031900000000040003410000017N261218104700000000000103003190000000000000000000000000000000000000000100007337231792SAMANTHA PRISCILA MARQUES MORE          RUA INSPETOR CASTRO                     SARACURUNA  25211410DUQUE DE CAXIASRJUNIAO UMB DOS CULTOS AFRO BRAS    30031910 000178
10231987175000168817800093673    000039204                    000392040000000000000109                     I0139204     30031900000000040003410000017N261218104700000000000103003190000000000000000000000000000000000000000100060044055749SUELY DE FARIAS EDUARDO                 TRAVESSA JAFIA                          CIDADE DE DE22772190RIO DE JANEIRO RJUNIAO UMB DOS CULTOS AFRO BRAS    30031910 000179
10231987175000168817800093673    000039203                    000392030000000000000109                     I0139203     30031900000000040003410000017N261218104700000000000103003190000000000000000000000000000000000000000100010860605710MARCIA DA SILVA SIRIACO DA CON          RUA PADRE GIL                           PARQUE BONEV25907096MAGE           RJUNIAO UMB DOS CULTOS AFRO BRAS    30031910 000180
10231987175000168817800093673    000039202                    000392020000000000000109                     I0139202     30031900000000040003410000017N261218104700000000000103003190000000000000000000000000000000000000000100013118884703WESLEI FERREIRA DE CARVALHO             ESTRADA DO GUERENGUE                    TAQUARA     22713004RIO DE JANEIRO RJUNIAO UMB DOS CULTOS AFRO BRAS    30031910 000181
10231987175000168817800093673    000039201                    000392010000000000000109                     I0139201     30031900000000040003410000017N261218104700000000000103003190000000000000000000000000000000000000000100002176741781SUSI DE OLIVEIRA LOUREIRO               RUA FATIMA CRISTINA                     ROSA DOS VEN26278525RIO DE JANEIRO RJUNIAO UMB DOS CULTOS AFRO BRAS    30031910 000182
10231987175000168817800093673    000039200                    000392000000000000000109                     I0139200     30031900000000040003410000017N261218104700000000000103003190000000000000000000000000000000000000000100095846190715ANA MARIA NICANOR DE QUADRO             RUA PASSO FUNDO                         JARDIM GUAND26298189NOVA IGUACU    RJUNIAO UMB DOS CULTOS AFRO BRAS    30031910 000183
10231987175000168817800093673    000039199                    000391990000000000000109                     I0139199     30031900000000040003410000017N261218104700000000000103003190000000000000000000000000000000000000000100001161586709ALEXANDRE PIMPAREL DA SILVA             RUA: COMENDADOR VENACIO                 PALHADA     26290204NOVA IGUACU    RJUNIAO UMB DOS CULTOS AFRO BRAS    30031910 000184
10231987175000168817800093673    000039198                    000391980000000000000109                     I0139198     30031900000000040003410000017N261218104700000000000103003190000000000000000000000000000000000000000100000000000000FABIO DA SILVA                          RUA CAMORIM                             JARDIM DELAM26317140QUEIMADOS      RJUNIAO UMB DOS CULTOS AFRO BRAS    30031910 000185
10231987175000168817800093673    000039197                    000391970000000000000109                     I0139197     30031900000000040003410000017N261218104700000000000103003190000000000000000000000000000000000000000100010765062755IVONE JOAO PEDRO                        RUA MARMIARI                            SENADOR CAMA21831000RIO DE JANEIRO RJUNIAO UMB DOS CULTOS AFRO BRAS    30031910 000186
10231987175000168817800093673    000039196                    000391960000000000000109                     I0139196     30031900000000040003410000017N261218104700000000000103003190000000000000000000000000000000000000000100085957679720MARIA DA APARECIDA VICENTE DUQ          RUA FRANCISCO VIOLTI                    HELIOPLOIS  26125440BELFORD ROXO   RJUNIAO UMB DOS CULTOS AFRO BRAS    30031910 000187
10231987175000168817800093673    000039195                    000391950000000000000109                     I0139195     30031900000000040003410000017N261218104700000000000103003190000000000000000000000000000000000000000100005933193704ANA PAULA DA SILVA SANTOS               RUA APIACA                              JARDIM BARRO25267290DUQUE DE CAXIASRJUNIAO UMB DOS CULTOS AFRO BRAS    30031910 000188
10231987175000168817800093673    000039194                    000391940000000000000109                     I0139194     30031900000000040003410000017N261218104700000000000103003190000000000000000000000000000000000000000100003372466705SANDRO NASCIMENTO NOBREGA               RUA JOAO ROMARIZ                        RAMOS       21031700RIO DE JANEIRO RJUNIAO UMB DOS CULTOS AFRO BRAS    30031910 000189
10231987175000168817800093673    000039193                    000391930000000000000109                     I0139193     30031900000000040003410000017N261218104700000000000103003190000000000000000000000000000000000000000100085542091768SUELY PEREIRA DA SILVA CALIXTO          RUA LUSITANIA II                        IMBARIE     25266005DUQUE DE CAXIASRJUNIAO UMB DOS CULTOS AFRO BRAS    30031910 000190
10231987175000168817800093673    000039192                    000391920000000000000109                     I0139192     30031900000000040003410000017N261218104700000000000103003190000000000000000000000000000000000000000100010718180747JOSE CARLOS MELO DA SILVA               RUA DEPUTADO SA REGO                    VILA SAO LUI25065030DUQUE DE CAXIASRJUNIAO UMB DOS CULTOS AFRO BRAS    30031910 000191
10231987175000168817800093673    000039191                    000391910000000000000109                     I0139191     30031900000000040003410000017N261218104700000000000103003190000000000000000000000000000000000000000100032637128764MARLENE DA CRUZ                         AVENIDA ABILIO AUGUSTO TAVORA           VALVERDE    26290600NOVA IGUACU    RJUNIAO UMB DOS CULTOS AFRO BRAS    30031910 000192
10231987175000168817800093673    000039190                    000391900000000000000109                     I0139190     30031900000000040003410000017N261218104700000000000103003190000000000000000000000000000000000000000100049660632720MARINETE SANTOS DE OLIVEIRA             AVENIDA SANTA CRUZ                      SENADOR CAMA23010003RIO DE JANEIRO RJUNIAO UMB DOS CULTOS AFRO BRAS    30031910 000193
10231987175000168817800093673    000039189                    000391890000000000000109                     I0139189     30031900000000040003410000017N261218104700000000000103003190000000000000000000000000000000000000000100003253352730LUCINEA DUTRA MEDEIROS                  RUA EVALDO BRAGA                        INDEPENDENCI25645300PETROPOLIS     RJUNIAO UMB DOS CULTOS AFRO BRAS    30031910 000194
10231987175000168817800093673    000039188                    000391880000000000000109                     I0139188     30031900000000040003410000017N261218104700000000000103003190000000000000000000000000000000000000000100000858723778GEOVANI FERNANDA DA SILVA               RUA SOFIA BARRETO                       DUMAS - SANT23550700RIO DE JANEIRO RJUNIAO UMB DOS CULTOS AFRO BRAS    30031910 000195
10231987175000168817800093673    000039187                    000391870000000000000109                     I0139187     30031900000000040003410000017N261218104700000000000103003190000000000000000000000000000000000000000100000227210700ROSIMAR TELLES DE SA                    RUA ACAPU                               MARECHAL HER21550570RIO DE JANEIRO RJUNIAO UMB DOS CULTOS AFRO BRAS    30031910 000196
10231987175000168817800093673    000039186                    000391860000000000000109                     I0139186     30031900000000040003410000017N261218104700000000000103003190000000000000000000000000000000000000000100011700984799CRISTIANE SANTOS FEIJO VIEIRA           RUA NICOLAU TOUQUET                     JARDIM CATAR24716403SAO GONCALO    RJUNIAO UMB DOS CULTOS AFRO BRAS    30031910 000197
10231987175000168817800093673    000039185                    000391850000000000000109                     I0139185     30031900000000040003410000017N261218104700000000000103003190000000000000000000000000000000000000000100012345678900MARIA DA GRACA MACHADO DOS SAN          RUA ARCOZELO                            PARQUE ARARU25585560SAO JOAO DE MERRJUNIAO UMB DOS CULTOS AFRO BRAS    30031910 000198
10231987175000168817800093673    000039184                    000391840000000000000109                     I0139184     30031900000000040003410000017N261218104700000000000103003190000000000000000000000000000000000000000100004278587716LUCIANO GONCALVES PIRES                 RUA MARECHAL ANTONIO DE SOUSA           JARDIM AMERI21240430RIO DE JANEIRO RJUNIAO UMB DOS CULTOS AFRO BRAS    30031910 000199
10231987175000168817800093673    000039182                    000391820000000000000109                     I0139182     30031900000000040003410000017N261218104700000000000103003190000000000000000000000000000000000000000100010154945790SIMONE DE OLIVEIRA CUNHA                RUA ONZE                                JARDIM ROTSE25270080DUQUE DE CAXIASRJUNIAO UMB DOS CULTOS AFRO BRAS    30031910 000200
10231987175000168817800093673    000039181                    000391810000000000000109                     I0139181     30031900000000040003410000017N261218104700000000000103003190000000000000000000000000000000000000000100002965368736REGINA CONCEICAO                        AVENIDA BOQUEIRAO                       BOA VISTA   28680000CACHOEIRA DE MARJUNIAO UMB DOS CULTOS AFRO BRAS    30031910 000201
10231987175000168817800093673    000039180                    000391800000000000000109                     I0139180     30031900000000040003410000017N261218104700000000000103003190000000000000000000000000000000000000000100009963194761FERNANDO PECANHA PIRES                  RUA GENERAL BASILIO                     TABORDA     28680000CACHOEIRA DE MARJUNIAO UMB DOS CULTOS AFRO BRAS    30031910 000202
10231987175000168817800093673    000039179                    000391790000000000000109                     I0139179     30031900000000040003410000017N261218104700000000000103003190000000000000000000000000000000000000000100009491065777VIVIAN LUIZA FREITAS DE AGUIAR          RUA ITAPETININGA                        VICENTE DE C21370680RIO DE JANEIRO RJUNIAO UMB DOS CULTOS AFRO BRAS    30031910 000203
10231987175000168817800093673    000039178                    000391780000000000000109                     I0139178     30031900000000040003410000017N261218104700000000000103003190000000000000000000000000000000000000000100002331392730ANA MARIA DOS SANTOS VIEIRA             RUA OITO                                PARQUE ALVOR26053220NOVA IGUACU    RJUNIAO UMB DOS CULTOS AFRO BRAS    30031910 000204
10231987175000168817800093673    000039177                    000391770000000000000109                     I0139177     30031900000000040003410000017N261218104700000000000103003190000000000000000000000000000000000000000100005964958702MARISLEY AMARO DE SOUZA                 RUA MONTE ALTO                          BANGU       21863010RIO DE JANEIRO RJUNIAO UMB DOS CULTOS AFRO BRAS    30031910 000205
10231987175000168817800093673    000039176                    000391760000000000000109                     I0139176     30031900000000040003410000017N261218104700000000000103003190000000000000000000000000000000000000000100003018847733MARIA AILHA BERNARDO PINTO              RUA RUBIAO JUNIOR                       CENTRO      23860000MANGARATIBA    RJUNIAO UMB DOS CULTOS AFRO BRAS    30031910 000206
10231987175000168817800093673    000039175                    000391750000000000000109                     I0139175     30031900000000040003410000017N261218104700000000000103003190000000000000000000000000000000000000000100089207963787NICEIA SANTOS FRANCA                    TRAVESSA VIANA BARBOSA                  SEPETIBA    23550360RIO DE JANEIRO RJUNIAO UMB DOS CULTOS AFRO BRAS    30031910 000207
10231987175000168817800093673    000039174                    000391740000000000000109                     I0139174     30031900000000040003410000017N261218104700000000000103003190000000000000000000000000000000000000000100004275325745MAIKE OLIVEIRA DA COSTA                 TRAVESSA MARTA DA ROCHA                 ABOLICAO    20755030RIO DE JANEIRO RJUNIAO UMB DOS CULTOS AFRO BRAS    30031910 000208
10231987175000168817800093673    000039173                    000391730000000000000109                     I0139173     30031900000000040003410000017N261218104700000000000103003190000000000000000000000000000000000000000100007852297790IRENE FRANCISCO LIMA                    RUA VIRGILIO VARZEA                     VILA SAO LUI25051110DUQUE DE CAXIASRJUNIAO UMB DOS CULTOS AFRO BRAS    30031910 000209
10231987175000168817800093673    000039172                    000391720000000000000109                     I0139172     30031900000000040003410000017N261218104700000000000103003190000000000000000000000000000000000000000100001298660750ROSEMBERG EFIGENIO BARBOSA              RUA TANCREDO MARTINS COSTA              ENGENHO DE D20730310RIO DE JANEIRO RJUNIAO UMB DOS CULTOS AFRO BRAS    30031910 000210
10231987175000168817800093673    000039171                    000391710000000000000109                     I0139171     30031900000000040003410000017N261218104700000000000103003190000000000000000000000000000000000000000100050246534753TANIA MARIA DA SILVA OLIVEIRA           TRAVESSA MARAJO                         LINDO PARQUE24420100SAO GONCALO    RJUNIAO UMB DOS CULTOS AFRO BRAS    30031910 000211
10231987175000168817800093673    000039170                    000391700000000000000109                     I0139170     30031900000000040003410000017N261218104700000000000103003190000000000000000000000000000000000000000100006915594736CINTIA FERREIRA                         RUA VALDEMAR GALDINO                    JARDIM BELO 26480410RIO DE JANEIRO RJUNIAO UMB DOS CULTOS AFRO BRAS    30031910 000212
10231987175000168817800093673    000039169                    000391690000000000000109                     I0139169     30031900000000040003410000017N261218104700000000000103003190000000000000000000000000000000000000000100011497058767DIEGO FERREIRA DA SILVA                 RUA PRIMEIRO DE MAIO                    IPIRANGA    26293480RIO DE JANEIRO RJUNIAO UMB DOS CULTOS AFRO BRAS    30031910 000213
10231987175000168817800093673    000039168                    000391680000000000000109                     I0139168     30031900000000040003410000017N261218104700000000000103003190000000000000000000000000000000000000000100044415443753ELIDE LEANDRO BARBOSA                   RUA ENGENHEIRO PERICLES RIBEIRO         FONSECA     24130350NITEROI        RJUNIAO UMB DOS CULTOS AFRO BRAS    30031910 000214
10231987175000168817800093673    000039167                    000391670000000000000109                     I0139167     30031900000000040003410000017N261218104700000000000103003190000000000000000000000000000000000000000100003387547720APARECIDA DOS SANTOS                    RUA CRACATUA                            HELIOPOLIS  26125170BELFORD ROXO   RJUNIAO UMB DOS CULTOS AFRO BRAS    30031910 000215
10231987175000168817800093673    000039166                    000391660000000000000109                     I0139166     30031900000000040003410000017N261218104700000000000103003190000000000000000000000000000000000000000100009409455766DANIELE MARTINS MEDEIROS DE FR          RUA D                                   BELA VISTA  23860000MANGARATIBA    RJUNIAO UMB DOS CULTOS AFRO BRAS    30031910 000216
10231987175000168817800093673    000039165                    000391650000000000000109                     I0139165     30031900000000040003410000017N261218104700000000000103003190000000000000000000000000000000000000000100000640795706CELIA REGINA ALVES DE SOUZA CO          RUA QUARENTA E SETE                     JARDIM ITAMB24725240SAO GONCALO    RJUNIAO UMB DOS CULTOS AFRO BRAS    30031910 000217
10231987175000168817800093673    000039164                    000391640000000000000109                     I0139164     30031900000000040003410000017N261218104700000000000103003190000000000000000000000000000000000000000100007459837741LUIZ CARLOS CARDOSO                     RUA WALDIR CARDOSO                      PAU GRANDE  25917040MAGE           RJUNIAO UMB DOS CULTOS AFRO BRAS    30031910 000218
10231987175000168817800093673    000039163                    000391630000000000000109                     I0139163     30031900000000040003410000017N261218104700000000000103003190000000000000000000000000000000000000000100023970090563MARCIA VIEIRA SALES                     RUA LOPO SARAIVA                        TANQUE - JAC22740220RIO DE JANEIRO RJUNIAO UMB DOS CULTOS AFRO BRAS    30031910 000219
10231987175000168817800093673    000039162                    000391620000000000000109                     I0139162     30031900000000040003410000017N261218104700000000000103003190000000000000000000000000000000000000000100011264005725MARCELO VIEIRA GUSMAN FILHO             AVENIDA MEDIANEIRA                      COSMOS      23066470RIO DE JANEIRO RJUNIAO UMB DOS CULTOS AFRO BRAS    30031910 000220
10231987175000168817800093673    000039161                    000391610000000000000109                     I0139161     30031900000000040003410000017N261218104700000000000103003190000000000000000000000000000000000000000100001343022738LUCIANA FIGUEIRO COUTINHO DA S          RUA: MANHUACU                           VARGEM GRAND22785600RIO DE JANEIRO RJUNIAO UMB DOS CULTOS AFRO BRAS    30031910 000221
10231987175000168817800093673    000039160                    000391600000000000000109                     I0139160     30031900000000040003410000017N261218104700000000000103003190000000000000000000000000000000000000000100053531396749VITALINA DOS SANTOS                     RUA SAQUAREMA                           GRAMACHO    25035425DUQUE DE CAXIASRJUNIAO UMB DOS CULTOS AFRO BRAS    30031910 000222
10231987175000168817800093673    000039159                    000391590000000000000109                     I0139159     30031900000000040003410000017N261218104700000000000103003190000000000000000000000000000000000000000100003604572746LUCIANA SANTOS DA SILVA DE LIM          RUA MARTINICIA                          PARQUE NOVO 25585110SAO JOAO DE MERRJUNIAO UMB DOS CULTOS AFRO BRAS    30031910 000223
10231987175000168817800093673    000039158                    000391580000000000000109                     I0139158     30031900000000040003410000017N261218104700000000000103003190000000000000000000000000000000000000000100011549239759RENATA DE OLIVEIRA GASPAR               RUA GUANABARA                           MADUREIRA   21350230RIO DE JANEIRO RJUNIAO UMB DOS CULTOS AFRO BRAS    30031910 000224
10231987175000168817800093673    000039157                    000391570000000000000109                     I0139157     30031900000000040003410000017N261218104700000000000103003190000000000000000000000000000000000000000100009145082707ELAINE CRISTINA DE MORAES               RUA GENTIL DO OURO                      AGUIAR TORRE23063340INHOAIBA       RJUNIAO UMB DOS CULTOS AFRO BRAS    30031910 000225
10231987175000168817800093673    000039156                    000391560000000000000109                     I0139156     30031900000000040003410000017N261218104700000000000103003190000000000000000000000000000000000000000100006864504778FABIO GUILHERME DOS SANTOS              ESTRADA JOAO DE ABREU                   MONJOLOS    24723190SAO GONCALO    RJUNIAO UMB DOS CULTOS AFRO BRAS    30031910 000226
10231987175000168817800093673    000039155                    000391550000000000000109                     I0139155     30031900000000040003410000017N261218104700000000000103003190000000000000000000000000000000000000000100013849060705LEONARDO ENEDINA DE MELO                RUA JULIO VERNER                        SANTA RITA  26050517NOVA IGUACU    RJUNIAO UMB DOS CULTOS AFRO BRAS    30031910 000227
10231987175000168817800093673    000039154                    000391540000000000000109                     I0139154     30031900000000040003410000017N261218104700000000000103003190000000000000000000000000000000000000000100085906743715FRANCISCA CELIA LEANDRO NEVES           RUA PAULO VIANA                         ROCHA MIRAND21540460RIO DE JANEIRO RJUNIAO UMB DOS CULTOS AFRO BRAS    30031910 000228
10231987175000168817800093673    000039153                    000391530000000000000109                     I0139153     30031900000000040003410000017N261218104700000000000103003190000000000000000000000000000000000000000100002882629729ANA PAULA DE SOUZA RIBEIRO VIL          RUA DUARTE DE AZEVEDO                   TURIACU     21550130RIO DE JANEIRO RJUNIAO UMB DOS CULTOS AFRO BRAS    30031910 000229
10231987175000168817800093673    000039152                    000391520000000000000109                     I0139152     30031900000000040003410000017N261218104700000000000103003190000000000000000000000000000000000000000100008926305740PATRICIA DOS SANTOS LOPES               RUA: CASTELO AZUL                       JARDIM GUAND26298048NOVA IGUACU    RJUNIAO UMB DOS CULTOS AFRO BRAS    30031910 000230
10231987175000168817800093673    000039151                    000391510000000000000109                     I0139151     30031900000000040003410000017N261218104700000000000103003190000000000000000000000000000000000000000100004842101490MARIA DE LOURDES FARIAS DOS SA          RUA HELIO DE OLIVEIRA                   PARADA MORAB25000000DUQUE DE CAXIASRJUNIAO UMB DOS CULTOS AFRO BRAS    30031910 000231
10231987175000168817800093673    000039150                    000391500000000000000109                     I0139150     30031900000000040003410000017N261218104700000000000103003190000000000000000000000000000000000000000100004253784704ALEXANDRE SIMOES NASCIMENTO             RUA SEBASTIAO DRUMOND                   ANCHIETA    21640360RIO DE JANEIRO RJUNIAO UMB DOS CULTOS AFRO BRAS    30031910 000232
10231987175000168817800093673    000039149                    000391490000000000000109                     I0139149     30031900000000040003410000017N261218104700000000000103003190000000000000000000000000000000000000000100004474701755JACIRA DE ALMEIDA BATISTA JULI          AVENIDA SAO PAULO                       PARQUE MARIL25225660DUQUE DE CAXIASRJUNIAO UMB DOS CULTOS AFRO BRAS    30031910 000233
10231987175000168817800093673    000039148                    000391480000000000000109                     I0139148     30031900000000040003410000017N261218104700000000000103003190000000000000000000000000000000000000000100006424589880LUIZ CARLOS BRITO                       RUA DA LIBERDADE                        TINGUA      26063230NOVA IGUACU    RJUNIAO UMB DOS CULTOS AFRO BRAS    30031910 000234
10231987175000168817800093673    000039147                    000391470000000000000109                     I0139147     30031900000000040003410000017N261218104700000000000103003190000000000000000000000000000000000000000100002413242708NIVEA MARIA NARCIZO CONCEICAO           RUA: DOS JACARANDAS                     ENGENHO DO M24344565NITEROI        RJUNIAO UMB DOS CULTOS AFRO BRAS    30031910 000235
10231987175000168817800093673    000039146                    000391460000000000000109                     I0139146     30031900000000040003410000017N261218104700000000000103003190000000000000000000000000000000000000000100007299785757EDSON NUNES DE SOUZA FILHO              AVENIDA GOUVEIA                         VILA LAGE - 24415050SAO GONCALO    RJUNIAO UMB DOS CULTOS AFRO BRAS    30031910 000236
10231987175000168817800093673    000039145                    000391450000000000000109                     I0139145     30031900000000040003410000017N261218104700000000000103003190000000000000000000000000000000000000000100002209208777ELIELSON DOS SANTOS CARVALHAES          RUA TRES                                LAGOINHA    26296295RIO DE JANEIRO RJUNIAO UMB DOS CULTOS AFRO BRAS    30031910 000237
10231987175000168817800093673    000039144                    000391440000000000000109                     I0139144     30031900000000040003410000017N261218104700000000000103003190000000000000000000000000000000000000000100010456888780TIAGO PINTO ESPOSTI                     ESTRADA MACAE CARAPEBUS                 INGAZEIRA   27963672MACAE          RJUNIAO UMB DOS CULTOS AFRO BRAS    30031910 000238
10231987175000168817800093673    000039143                    000391430000000000000109                     I0139143     30031900000000040003410000017N261218104700000000000103003190000000000000000000000000000000000000000100067424647734MARCIA VALERIA VALIATI DOS SAN          RUA GOMES CARNEIRO                      VILA URUSSA√20735090RIO DE JANEIRO RJUNIAO UMB DOS CULTOS AFRO BRAS    30031910 000239
10231987175000168817800093673    000039142                    000391420000000000000109                     I0139142     30031900000000040003410000017N261218104700000000000103003190000000000000000000000000000000000000000100011688945733ENEDIR RODRIGUES RAMOS                  AVENIDA JOAO BRASIL                     ENGENHOCA   24000000NITEROI        RJUNIAO UMB DOS CULTOS AFRO BRAS    30031910 000240
10231987175000168817800093673    000039141                    000391410000000000000109                     I0139141     30031900000000040003410000017N261218104700000000000103003190000000000000000000000000000000000000000100002621693717JUREMA DE OLIVEIRA RODRIGUES            ESTRADA INTENDENTE MAGALHAES            CAMPINHO    21341330RIO DE JANEIRO RJUNIAO UMB DOS CULTOS AFRO BRAS    30031910 000241
10231987175000168817800093673    000039140                    000391400000000000000109                     I0139140     30031900000000040003410000017N261218104700000000000103003190000000000000000000000000000000000000000100010292272766MARCIA JUPIRA SANTOS GONZAGA            RUA ANTONIO FELIX                       CENTRO      26520081NILOPOLIS      RJUNIAO UMB DOS CULTOS AFRO BRAS    30031910 000242
10231987175000168817800093673    000039139                    000391390000000000000109                     I0139139     30031900000000040003410000017N261218104700000000000103003190000000000000000000000000000000000000000100016492108760TIAGO LOPES DE AZEVEDO SILVA            RUA X                                   PARADA MODEL25943365GUAPIMIRIM     RJUNIAO UMB DOS CULTOS AFRO BRAS    30031910 000243
10231987175000168817800093673    000039137                    000391370000000000000109                     I0139137     30031900000000040003410000017N261218104700000000000103003190000000000000000000000000000000000000000100012993228257ANDREIA CRISTINA VICENTE                RUA CORONEL CARLOS MATOS                PARQUE JOAO 25030140DUQUE DE CAXIASRJUNIAO UMB DOS CULTOS AFRO BRAS    30031910 000244
10231987175000168817800093673    000039136                    000391360000000000000109                     I0139136     30031900000000040003410000017N261218104700000000000103003190000000000000000000000000000000000000000100048972215791MARIA PETRONILHA ROSA NATIVIDA          RUA JACARE ACANGA                       VILA MARIA H25255590DUQUE DE CAXIASRJUNIAO UMB DOS CULTOS AFRO BRAS    30031910 000245
10231987175000168817800093673    000039135                    000391350000000000000109                     I0139135     30031900000000040003410000017N261218104700000000000103003190000000000000000000000000000000000000000100009416663794IGOR DO NASCIMENTO RODRIGUES            RUA FIGUEIREDO ROCHA                    VIGARIO GERA21240660RIO DE JANEIRO RJUNIAO UMB DOS CULTOS AFRO BRAS    30031910 000246
10231987175000168817800093673    000039134                    000391340000000000000109                     I0139134     30031900000000040003410000017N261218104700000000000103003190000000000000000000000000000000000000000100040664325734GENI BARBOSA ROCHA DA SILVA             TRAVESSA DA AMIZADE                     VILA DA PENH25268020RIO DE JANEIRO RJUNIAO UMB DOS CULTOS AFRO BRAS    30031910 000247
10231987175000168817800093673    000039133                    000391330000000000000109                     I0139133     30031900000000040003410000017N261218104700000000000103003190000000000000000000000000000000000000000100012003631755ALEXSANDRO CORREA                       RUA DULIO COSTA                         IRAJA       21235410RIO DE JANEIRO RJUNIAO UMB DOS CULTOS AFRO BRAS    30031910 000248
10231987175000168817800093673    000039132                    000391320000000000000109                     I0139132     30031900000000040003410000017N261218104700000000000103003190000000000000000000000000000000000000000100069279500791CLAUDIA ALONSO RODRIGUES                ESTRADA DO PAU FERRO                    FREGUESIA   22745055RIO DE JANEIRO RJUNIAO UMB DOS CULTOS AFRO BRAS    30031910 000249
