01REMESSA01COBRANCA       916200163100        União Umb dos Cultos Afro Bra341BANCO ITAU SA  130319                                                                                                                                                                                                                                                                                                      000001
10231987175000168916200163100    000039648                    000396480000000000000109                     I0239648     31011900000000035003410000017N250119104700000000000103101190000000000000000000000000000000000000000100050713558768ANILSON DA SILVA                        TRAVESSA HELENAN 0,  CASA 19 ENTRADA 217REALENGO    21760620RIO DE JANEIRO RJUNIAO UMB DOS CULTOS AFRO BRAS    31011910 000002
10231987175000168916200163100    000039838                    000398380000000000000109                     I0239838     28021900000000040003410000017N220219104700000000000102802190000000000000000000000000000000000000000100007324540775JAQUELINE DE LIMA ALMEIDA DE J          RUA JOAQUIM ARRUDAN 13, QUADRA 39 LOTE 4JARDIM SAO P25935800MAGE           RJUNIAO UMB DOS CULTOS AFRO BRAS    28021910 000003
10231987175000168916200163100    000039853                    000398530000000000000109                     I0239853     11031900000000350003410000017N270219104700000000000101103190000000000000000000000000000000000000000100002554595720ROSA CRISTINA SANTANA BARBOSA           RUA JOSE FERNANDESN 14,                 SEPETIBA    23535450RIO DE JANEIRO RJUNIAO UMB DOS CULTOS AFRO BRAS    11031910 000004
10231987175000168916200163100    000039875                    000398750000000000000109                     I0139875     30031900000000400003410000017N120319104700000000000103003190000000000000000000000000000000000000000100030970474768MARIA BALBINA BAPTISTA LATAVAN          RUA MAJOR MEDEIROSN 14, APT 201         IRAJA       21220570RIO DE JANEIRO RJUNIAO UMB DOS CULTOS AFRO BRAS    30031910 000005
10231987175000168916200163100    000039876                    000398760000000000000109                     I0239876     14031900000000300003410000017N120319104700000000000101403190000000000000000000000000000000000000000100004273880741SOLANGE VICTORIO DE CARVALHO            RUA SAPEZALN 135, B                     CINCO MARIAS23032610GUARATIBA      RJUNIAO UMB DOS CULTOS AFRO BRAS    14031910 000006
10231987175000168916200163100    000039877                    000398770000000000000109                     I0139877     14031900000000300003410000017N120319104700000000000101403190000000000000000000000000000000000000000100004273880741SOLANGE VICTORIO DE CARVALHO            RUA SAPEZALN 135, B                     CINCO MARIAS23032610GUARATIBA      RJUNIAO UMB DOS CULTOS AFRO BRAS    14031910 000007
10231987175000168916200163100    000039878                    000398780000000000000109                     I0139878     30041900000000040003410000017N120319104700000000000103004190000000000000000000000000000000000000000100004728238768MARIA JOSE ILARIO MANGUEIRA             ESTRADA DA AGUA BRANCAN 2160,           REALENGO    21730000RIO DE JANEIRO RJUNIAO UMB DOS CULTOS AFRO BRAS    30041910 000008
10231987175000168916200163100    000039879                    000398790000000000000109                     I0139879     30041900000000040003410000017N120319104700000000000103004190000000000000000000000000000000000000000100083780262720MARIA JOANA DOROTEIA DE PAULA           ESTRADA MERINGUAVAN 701, PINHEIRO 11    TAQUARA - JA22725442RIO DE JANEIRO RJUNIAO UMB DOS CULTOS AFRO BRAS    30041910 000009
10231987175000168916200163100    000039880                    000398800000000000000109                     I0139880     30041900000000040003410000017N120319104700000000000103004190000000000000000000000000000000000000000100000000000061VERA REGINA GONCALVES                   RUA ANTONIO ALVESN 417,                 COSTA BARROS21650020RIO DE JANEIRO RJUNIAO UMB DOS CULTOS AFRO BRAS    30041910 000010
10231987175000168916200163100    000039881                    000398810000000000000109                     I0139881     30041900000000040003410000017N120319104700000000000103004190000000000000000000000000000000000000000100001686254741ADELIA DE OLIVEIRA AZEVEDO              RUA CORONEL CAMISAON 842,               VISTA ALEGRE21250290RIO DE JANEIRO RJUNIAO UMB DOS CULTOS AFRO BRAS    30041910 000011
10231987175000168916200163100    000039882                    000398820000000000000109                     I0139882     30041900000000040003410000017N120319104700000000000103004190000000000000000000000000000000000000000100053658191791LENIR SILVA MAFRA                       RUA JOAO BARBALHON 455,  CASA 4         QUINTINO BOC20740010RIO DE JANEIRO RJUNIAO UMB DOS CULTOS AFRO BRAS    30041910 000012
10231987175000168916200163100    000039883                    000398830000000000000109                     I0139883     30041900000000040003410000017N120319104700000000000103004190000000000000000000000000000000000000000100080266592791ROSINEA DA SILVA CARDOSO                TRAVESSA GITAI N 190, CASA 3            COLONIA - JA22713566RIO DE JANEIRO RJUNIAO UMB DOS CULTOS AFRO BRAS    30041910 000013
10231987175000168916200163100    000039884                    000398840000000000000109                     I0139884     30041900000000040003410000017N120319104700000000000103004190000000000000000000000000000000000000000100000000000000CACILDA AQUINO DOS SANTOS               RUA CATULO CEARENSE N 119,              MEIER       20730320RIO DE JANEIRO RJUNIAO UMB DOS CULTOS AFRO BRAS    30041910 000014
10231987175000168916200163100    000039885                    000398850000000000000109                     I0139885     30041900000000040003410000017N120319104700000000000103004190000000000000000000000000000000000000000100002826493795VALDEA PEREIRA SIQUEIRA                 RUA BORDA DO MATON 415,                 GRAJAU      20561204RIO DE JANEIRO RJUNIAO UMB DOS CULTOS AFRO BRAS    30041910 000015
10231987175000168916200163100    000039886                    000398860000000000000109                     I0139886     30041900000000040003410000017N120319104700000000000103004190000000000000000000000000000000000000000100068265280700SUELLEN DO NASCIMENTO OLIVEIRA          RUA CORONEL FRANCA LEITEN 450,          CHATUBA     26587111MESQUITA       RJUNIAO UMB DOS CULTOS AFRO BRAS    30041910 000016
10231987175000168916200163100    000039887                    000398870000000000000109                     I0139887     30041900000000040003410000017N120319104700000000000103004190000000000000000000000000000000000000000100089197658715JORGE LUIS DAS NEVES OLIVEIRA           ESTRADA FRANCISCO DE ALMEIDA N 0,  LOTE PRADOS VERDE26299000NOVA IGUACU    RJUNIAO UMB DOS CULTOS AFRO BRAS    30041910 000017
10231987175000168916200163100    000039888                    000398880000000000000109                     I0139888     30041900000000040003410000017N120319104700000000000103004190000000000000000000000000000000000000000100054447445700THEREZA SARAIVA BRAGANCA                RUA: PORTO WALTERN 17, FUNDOS           PIEDADE     21380440RIO DE JANEIRO RJUNIAO UMB DOS CULTOS AFRO BRAS    30041910 000018
10231987175000168916200163100    000039889                    000398890000000000000109                     I0139889     30041900000000040003410000017N120319104700000000000103004190000000000000000000000000000000000000000100046858229787IOLANDA CUSTODIA DA ROSA                RUA CLODOMIR LUCAS DOS REIS N 14,       JACAREPAGUA 22713562RIO DE JANEIRO RJUNIAO UMB DOS CULTOS AFRO BRAS    30041910 000019
10231987175000168916200163100    000039890                    000398900000000000000109                     I0139890     30041900000000040003410000017N120319104700000000000103004190000000000000000000000000000000000000000100003761710739ALMIRA DE SOUZA SANTOS                  RUA: CARMELITA DE JESUSN 0, LOTE 6 QUADRELISA MARIA 23076440RIO DE JANEIRO RJUNIAO UMB DOS CULTOS AFRO BRAS    30041910 000020
10231987175000168916200163100    000039891                    000398910000000000000109                     I0139891     30041900000000040003410000017N120319104700000000000103004190000000000000000000000000000000000000000100007463048705MARIA SILVIA DOS SANTOS LADEIR          RUA ACADEMICOSN 0, CASA 173             PIRATININGA 24350400NITEROI        RJUNIAO UMB DOS CULTOS AFRO BRAS    30041910 000021
10231987175000168916200163100    000039892                    000398920000000000000109                     I0139892     30041900000000040003410000017N120319104700000000000103004190000000000000000000000000000000000000000100053768175715DAMIANA MARTINS DA SILVA                RUA ARABORI N 262,                      ROCHA MIRAND21545120RIO DE JANEIRO RJUNIAO UMB DOS CULTOS AFRO BRAS    30041910 000022
10231987175000168916200163100    000039893                    000398930000000000000109                     I0139893     30041900000000040003410000017N120319104700000000000103004190000000000000000000000000000000000000000100047933933220LUCIANA COSTA OLIVEIRA LEITE            AVENIDA PRIMEIRO DE MAION 3890, QUADRA 1CENTRO (S-0176980120VILHENA        ROUNIAO UMB DOS CULTOS AFRO BRAS    30041910 000023
10231987175000168916200163100    000039894                    000398940000000000000109                     I0139894     30041900000000040003410000017N120319104700000000000103004190000000000000000000000000000000000000000100013911839758EDSON SILVA DOS SANTOS                  RUA WALDOMIRO JOSE PEREIRAN 0, LOTE 11 QHELIOPOLIS  26125550BELFORD ROXO   RJUNIAO UMB DOS CULTOS AFRO BRAS    30041910 000024
10231987175000168916200163100    000039895                    000398950000000000000109                     I0139895     30041900000000040003410000017N120319104700000000000103004190000000000000000000000000000000000000000100001411422783ANITA ANTONIA DOS REIS                  RUA SEABRA SOBRINHO N 413,              CENTENARIO  25030190DUQUE DE CAXIASRJUNIAO UMB DOS CULTOS AFRO BRAS    30041910 000025
10231987175000168916200163100    000039896                    000398960000000000000109                     I0139896     30041900000000040003410000017N120319104700000000000103004190000000000000000000000000000000000000000100007161407729ODETTE LUIZA DA CRUZ                    RUA: VEREADOR JOAQUIM BOA MORTEN 68,    VILA CORINGA27320360BARRA MANSA    RJUNIAO UMB DOS CULTOS AFRO BRAS    30041910 000026
10231987175000168916200163100    000039897                    000398970000000000000109                     I0139897     30041900000000040003410000017N120319104700000000000103004190000000000000000000000000000000000000000100049888447734NEUZA MORAES TAVARES                    RUA RUBENS BARCELLOS N 207,             VILA ORLANDE27325260BARRA MANSA    RJUNIAO UMB DOS CULTOS AFRO BRAS    30041910 000027
10231987175000168916200163100    000039898                    000398980000000000000109                     I0139898     30041900000000040003410000017N120319104700000000000103004190000000000000000000000000000000000000000100061185841768ELIZABETH CATARINA DE JESUS             RUA ALMIRANTE INGRAN 700,               BRAS DE PINA21210170RIO DE JANEIRO RJUNIAO UMB DOS CULTOS AFRO BRAS    30041910 000028
10231987175000168916200163100    000039899                    000398990000000000000109                     I0139899     30041900000000040003410000017N120319104700000000000103004190000000000000000000000000000000000000000100004245577703FERNANDA MEDEIROS VIANA                 RUA TOROPI N 0, LOTE 7 QUADRA 29 FUNDOS HELIOPOLIS  26123380BELFORD ROXO   RJUNIAO UMB DOS CULTOS AFRO BRAS    30041910 000029
10231987175000168916200163100    000039900                    000399000000000000000109                     I0139900     30041900000000040003410000017N120319104700000000000103004190000000000000000000000000000000000000000100067859372720MARLI MOREIRA ROSA CERQUEIRA            RUA DO POVO N 11,                       SANTO AGOSTI27214300VOLTA REDONDA  RJUNIAO UMB DOS CULTOS AFRO BRAS    30041910 000030
10231987175000168916200163100    000039901                    000399010000000000000109                     I0139901     30041900000000040003410000017N120319104700000000000103004190000000000000000000000000000000000000000100000022042741ARACI AMELIA DA SILVA RIBEIRO           RUA: ALIPIO GOMES DOS SANTOS N 493,     JARDIM AMERI27340230BARRA DO PIRAI RJUNIAO UMB DOS CULTOS AFRO BRAS    30041910 000031
10231987175000168916200163100    000039902                    000399020000000000000109                     I0139902     30041900000000040003410000017N120319104700000000000103004190000000000000000000000000000000000000000100049720147768LEDA MARIA DOS SANTOS LEAL              RUA JOSE FIRMINO DE MELO N 247,         QUIMICA     27130360BARRA DO PIRAI RJUNIAO UMB DOS CULTOS AFRO BRAS    30041910 000032
10231987175000168916200163100    000039903                    000399030000000000000109                     I0139903     30041900000000040003410000017N120319104700000000000103004190000000000000000000000000000000000000000100000000000000JOSE CARLOS DE OLIVEIRA                 RUA NICOLAU TOLENTINO N 315,            CALIFORNIA  27163000BARRA DO PIRAI RJUNIAO UMB DOS CULTOS AFRO BRAS    30041910 000033
10231987175000168916200163100    000039904                    000399040000000000000109                     I0139904     30041900000000020003410000017N120319104700000000000103004190000000000000000000000000000000000000000100042799023720MARIA DAS DORES SANTOS                  ESTRADA DO AREAL N 4,                   BOA VISTA DA27165000BARRA DO PIRAI RJUNIAO UMB DOS CULTOS AFRO BRAS    30041910 000034
10231987175000168916200163100    000039905                    000399050000000000000109                     I0139905     30041900000000040003410000017N120319104700000000000103004190000000000000000000000000000000000000000100010407074759VALERIA ALVES DE SOUZA                  RUA PINHEIROSN 70,                      VILA DE CAVA26052720NOVA IGUACU    RJUNIAO UMB DOS CULTOS AFRO BRAS    30041910 000035
10231987175000168916200163100    000039906                    000399060000000000000109                     I0139906     30041900000000040003410000017N120319104700000000000103004190000000000000000000000000000000000000000100001080847790BENTO FRANCISCO DE LIMA NETO            RUA PITANGASN 36, TIJUQUINHA            BARRA DA TIJ22713330RIO DE JANEIRO RJUNIAO UMB DOS CULTOS AFRO BRAS    30041910 000036
10231987175000168916200163100    000039907                    000399070000000000000109                     I0139907     30041900000000040003410000017N120319104700000000000103004190000000000000000000000000000000000000000100011039470793ZENY FILIPPE DE CASTRO                  RUA PROFESSOR PLINIO OLINDO N 102,      PADRE MIGUEL21860160RIO DE JANEIRO RJUNIAO UMB DOS CULTOS AFRO BRAS    30041910 000037
10231987175000168916200163100    000039908                    000399080000000000000109                     I0139908     30041900000000040003410000017N120319104700000000000103004190000000000000000000000000000000000000000100074624792734MARILZA COSTA FERREIRA                  RUA INHANDUIN 128,                      BENFICA     20930120RIO DE JANEIRO RJUNIAO UMB DOS CULTOS AFRO BRAS    30041910 000038
10231987175000168916200163100    000039909                    000399090000000000000109                     I0139909     30041900000000040003410000017N120319104700000000000103004190000000000000000000000000000000000000000100005412696740MONICA MIRALHA MESSINA                  RUA JOAQUIM NORBERTON 107,              CAVALCANTI  21370350RIO DE JANEIRO RJUNIAO UMB DOS CULTOS AFRO BRAS    30041910 000039
10231987175000168916200163100    000039910                    000399100000000000000109                     I0139910     30041900000000040003410000017N120319104700000000000103004190000000000000000000000000000000000000000100000000000555OLIMPIA SOARES DE ARAUJO                RUA: DEZN 0,  LOTE 46 QUADRA 12         COSMOS-  SAN23067010RIO DE JANEIRO RJUNIAO UMB DOS CULTOS AFRO BRAS    30041910 000040
10231987175000168916200163100    000039911                    000399110000000000000109                     I0139911     30041900000000040003410000017N120319104700000000000103004190000000000000000000000000000000000000000100044279388768THEREZA LEOCADIA DA COSTA               RUA VERA CRUZN 12, TRINTA E UM DE OUTUBRPACIENCIA   23585817RIO DE JANEIRO RJUNIAO UMB DOS CULTOS AFRO BRAS    30041910 000041
10231987175000168916200163100    000039912                    000399120000000000000109                     I0139912     30041900000000040003410000017N120319104700000000000103004190000000000000000000000000000000000000000100000000000000MANOELLA MARIA DA CONCEICAO             RUA PIRES DO RION 928,                  EDEN        25540510SAO JOAO DE MERRJUNIAO UMB DOS CULTOS AFRO BRAS    30041910 000042
10231987175000168916200163100    000039913                    000399130000000000000109                     I0139913     30041900000000040003410000017N120319104700000000000103004190000000000000000000000000000000000000000100010518288722RODRIGO JOSE ABREU DOS SANTOS           RUA: MARAVILHA N 298, FUNDOS            BANGU       21815150RIO DE JANEIRO RJUNIAO UMB DOS CULTOS AFRO BRAS    30041910 000043
10231987175000168916200163100    000039914                    000399140000000000000109                     I0139914     30041900000000040003410000017N120319104700000000000103004190000000000000000000000000000000000000000100051328054772BALBINA MARIA DE JESUS DEOLIND          ESTRADA DA AGUA BRANCAN 5803,           BANGU       21862465RIO DE JANEIRO RJUNIAO UMB DOS CULTOS AFRO BRAS    30041910 000044
10231987175000168916200163100    000039915                    000399150000000000000109                     I0139915     30041900000000040003410000017N120319104700000000000103004190000000000000000000000000000000000000000100066564689772CARLOS DE ARAUJO RIBEIRO                ESTRADA DO MENDANHAN 235,               BENTO RIBEIR21331250RIO DE JANEIRO RJUNIAO UMB DOS CULTOS AFRO BRAS    30041910 000045
10231987175000168916200163100    000039916                    000399160000000000000109                     I0139916     30041900000000040003410000017N120319104700000000000103004190000000000000000000000000000000000000000100050713558768ANILSON DA SILVA                        TRAVESSA HELENAN 0,  CASA 19 ENTRADA 217REALENGO    21760620RIO DE JANEIRO RJUNIAO UMB DOS CULTOS AFRO BRAS    30041910 000046
10231987175000168916200163100    000039917                    000399170000000000000109                     I0139917     30041900000000040003410000017N120319104700000000000103004190000000000000000000000000000000000000000100053011783772MARIA APARECIDA DA SILVA                RUA JOANA RESENDEN 61,  FAZENDA CAXIAS  SEROPEDICA  23836380RIO DE JANEIRO RJUNIAO UMB DOS CULTOS AFRO BRAS    30041910 000047
10231987175000168916200163100    000039918                    000399180000000000000109                     I0139918     30041900000000040003410000017N120319104700000000000103004190000000000000000000000000000000000000000100000000000582LUIZ PAULO DA SILVEIRA JUNIOR           RUA ANTONIO DE HOLANDAN 120,            JARDIM NOVO 21760060RIO DE JANEIRO RJUNIAO UMB DOS CULTOS AFRO BRAS    30041910 000048
10231987175000168916200163100    000039919                    000399190000000000000109                     I0139919     30041900000000040003410000017N120319104700000000000103004190000000000000000000000000000000000000000100005541292727CAROLINA DA SILVA CARDOSO               RUA MONODORAN 552,                      GARDENIA AZU22765590RIO DE JANEIRO RJUNIAO UMB DOS CULTOS AFRO BRAS    30041910 000049
10231987175000168916200163100    000039920                    000399200000000000000109                     I0139920     30041900000000040003410000017N120319104700000000000103004190000000000000000000000000000000000000000100045935742772SANDRA ANDRADE DE ARAUJO                AV. MINISTRO EDGARD ROMERON 679, VILA EMVAZ LOBO    21360202RIO DE JANEIRO RJUNIAO UMB DOS CULTOS AFRO BRAS    30041910 000050
10231987175000168916200163100    000039921                    000399210000000000000109                     I0139921     30041900000000040003410000017N120319104700000000000103004190000000000000000000000000000000000000000100095589473772JOANE ZAGALIA DA CUNHA                  ALAMEDA SEISN 365,                      MARECHAL HER21615300RIO DE JANEIRO RJUNIAO UMB DOS CULTOS AFRO BRAS    30041910 000051
10231987175000168916200163100    000039922                    000399220000000000000109                     I0139922     30041900000000040003410000017N120319104700000000000103004190000000000000000000000000000000000000000100081473885787CELIA DA SILVA ALEXANDRE                AVENIDA MARECHAL FONTENELE N 4311, RUA SMAGALHAES BA21750000RIO DE JANEIRO RJUNIAO UMB DOS CULTOS AFRO BRAS    30041910 000052
10231987175000168916200163100    000039923                    000399230000000000000109                     I0139923     30041900000000045003410000017N120319104700000000000103004190000000000000000000000000000000000000000100055570720715ATILA CARDOSO DE LIMA                   RUA EUGENIO TAVARESN 270,               CENTRO      26550007MESQUITA       RJUNIAO UMB DOS CULTOS AFRO BRAS    30041910 000053
10231987175000168916200163100    000039924                    000399240000000000000109                     I0139924     30041900000000040003410000017N120319104700000000000103004190000000000000000000000000000000000000000100036206071700MARIA ISABEL RAMOS                      RUA: MARINA N 428,                      BENTO RIBEIR21331070RIO DE JANEIRO RJUNIAO UMB DOS CULTOS AFRO BRAS    30041910 000054
10231987175000168916200163100    000039925                    000399250000000000000109                     I0139925     30041900000000040003410000017N120319104700000000000103004190000000000000000000000000000000000000000100058407723720JUPIARA DE MELLO E SILVA CORRE          RUA OKIRN 330,                          JARDIM ALVOR26261380NOVA IGUACU    RJUNIAO UMB DOS CULTOS AFRO BRAS    30041910 000055
10231987175000168916200163100    000039926                    000399260000000000000109                     I0139926     30041900000000040003410000017N120319104700000000000103004190000000000000000000000000000000000000000100048685917700CELIO DO NASCIMENTO                     RUA DO CATETE N 123, CASA 4 APT 101     CATETE      22220000RIO DE JANEIRO RJUNIAO UMB DOS CULTOS AFRO BRAS    30041910 000056
10231987175000168916200163100    000039927                    000399270000000000000109                     I0139927     30041900000000040003410000017N120319104700000000000103004190000000000000000000000000000000000000000100039914666787JUSSARA MARANHAO DA SILVA               RUA: AGUAS BELASN 174,                  AURORA - SAO23055580RIO DE JANEIRO RJUNIAO UMB DOS CULTOS AFRO BRAS    30041910 000057
10231987175000168916200163100    000039928                    000399280000000000000109                     I0139928     30041900000000040003410000017N120319104700000000000103004190000000000000000000000000000000000000000100005206095737FLORIPES RAMOS DE FARIAS                RUA ONESIO MANOEL BELARMINO N 75,       ANCHIETA    21625330RIO DE JANEIRO RJUNIAO UMB DOS CULTOS AFRO BRAS    30041910 000058
10231987175000168916200163100    000039929                    000399290000000000000109                     I0139929     30041900000000040003410000017N120319104700000000000103004190000000000000000000000000000000000000000100000000000000DIVINA ANGELICA LOPES                   RUA ITAIN 296,                          ANCHIETA    21645300RIO DE JANEIRO RJUNIAO UMB DOS CULTOS AFRO BRAS    30041910 000059
10231987175000168916200163100    000039930                    000399300000000000000109                     I0139930     30041900000000040003410000017N120319104700000000000103004190000000000000000000000000000000000000000100031569250715JORGE FRANCISCO SANTOS                  RUA EXPEDICIONARIO SEBASTIAO RIBEIRON 14COLUBANDE   24451710SAO GONCALO    RJUNIAO UMB DOS CULTOS AFRO BRAS    30041910 000060
10231987175000168916200163100    000039931                    000399310000000000000109                     I0139931     30041900000000040003410000017N120319104700000000000103004190000000000000000000000000000000000000000100078542626753MARIA HELENA FELIX MARINHO              RUA KELSONN 20,                         PENHA CIRCUL21011060RIO DE JANEIRO RJUNIAO UMB DOS CULTOS AFRO BRAS    30041910 000061
10231987175000168916200163100    000039932                    000399320000000000000109                     I0139932     30041900000000040003410000017N120319104700000000000103004190000000000000000000000000000000000000000100046674861715JORGE AILTON CORVINO DO NASCIM          RUA CLAUDINO BARATA N 122, FUNDOS  CASA REALENGO    21770200RIO DE JANEIRO RJUNIAO UMB DOS CULTOS AFRO BRAS    30041910 000062
10231987175000168916200163100    000039933                    000399330000000000000109                     I0139933     30041900000000040003410000017N120319104700000000000103004190000000000000000000000000000000000000000100010047725729DEBORA REGINA DE OLIVEIRA SILV          RUA: FLOREAL N 15,                      CURICICA    22780750RIO DE JANEIRO RJUNIAO UMB DOS CULTOS AFRO BRAS    30041910 000063
10231987175000168916200163100    000039934                    000399340000000000000109                     I0139934     30041900000000040003410000017N120319104700000000000103004190000000000000000000000000000000000000000100060946563772FLORIPEDES MADUREIRA SIQUEIRA           AVENIDA PARAIBA N 210,                  DOM BOSCO   27286000VOLTA REDONDA  RJUNIAO UMB DOS CULTOS AFRO BRAS    30041910 000064
10231987175000168916200163100    000039935                    000399350000000000000109                     I0139935     30041900000000040003410000017N120319104700000000000103004190000000000000000000000000000000000000000100001974559726ELIZABETH BRITO DE JESUS                RUA CINCO  N 19,                        VILA KOSMOS 21210000RIO DE JANEIRO RJUNIAO UMB DOS CULTOS AFRO BRAS    30041910 000065
10231987175000168916200163100    000039936                    000399360000000000000109                     I0139936     30041900000000040003410000017N120319104700000000000103004190000000000000000000000000000000000000000100004125947732FABIO DA FONSECA PAES                   RUA JOAQUIM COUTON 145,                 VILA JURANDI25540370SAO JOAO DE MERRJUNIAO UMB DOS CULTOS AFRO BRAS    30041910 000066
10231987175000168916200163100    000039937                    000399370000000000000109                     I0139937     30041900000000040003410000017N120319104700000000000103004190000000000000000000000000000000000000000100033565708700MARLY DA SILVA UCHOA                    AVENIDA MINISTRO EDGARD ROMERON 597,  CAMADUREIRA   21360200RIO DE JANEIRO RJUNIAO UMB DOS CULTOS AFRO BRAS    30041910 000067
10231987175000168916200163100    000039938                    000399380000000000000109                     I0139938     30041900000000040003410000017N120319104700000000000103004190000000000000000000000000000000000000000218392395000180ASSOCIACAO ILE ASE D OBALUAE            RUA IGUACU  N 0, LOTE 2 QUADRA 26       PARQUE LAFAI25015350DUQUE DE CAXIASRJUNIAO UMB DOS CULTOS AFRO BRAS    30041910 000068
10231987175000168916200163100    000039939                    000399390000000000000109                     I0139939     30041900000000040003410000017N120319104700000000000103004190000000000000000000000000000000000000000100000744455707VERA LUCIA CALIXTO DA SILVA             RUA MANUEL IGNACIO DA CRUZ N 257,       SANTO ANTONI27115410BARRA DO PIRAI RJUNIAO UMB DOS CULTOS AFRO BRAS    30041910 000069
10231987175000168916200163100    000039940                    000399400000000000000109                     I0139940     30041900000000040003410000017N120319104700000000000103004190000000000000000000000000000000000000000100000903948796MARIA VILANY DE OLIVEIRA BIEGL          RUA D  N 0, LOTE 68 QUADRA 13           PARQUE SANTA25915000MAGE           RJUNIAO UMB DOS CULTOS AFRO BRAS    30041910 000070
10231987175000168916200163100    000039941                    000399410000000000000109                     I0139941     30041900000000040003410000017N120319104700000000000103004190000000000000000000000000000000000000000100060495901768ANA CRISTINA PAVAO BARONI               RUA TAMANDUATEI N 197, FUNDOS           JARDIM TROPI26012775NOVA IGUACU    RJUNIAO UMB DOS CULTOS AFRO BRAS    30041910 000071
10231987175000168916200163100    000039942                    000399420000000000000109                     I0139942     30041900000000040003410000017N120319104700000000000103004190000000000000000000000000000000000000000100098456164704JUCEMAR DOS SANTOS ESTEVES              RUA ABEL DE ALVARENGA N 762,            CHATUBA     26585000MESQUITA       RJUNIAO UMB DOS CULTOS AFRO BRAS    30041910 000072
10231987175000168916200163100    000039943                    000399430000000000000109                     I0139943     30041900000000040003410000017N120319104700000000000103004190000000000000000000000000000000000000000100050945653115KLEIDE LEMOS MENDONCA                   RUA COSTA FILHO N 133,                  MARECHAL HER21610570RIO DE JANEIRO RJUNIAO UMB DOS CULTOS AFRO BRAS    30041910 000073
10231987175000168916200163100    000039944                    000399440000000000000109                     I0139944     30041900000000040003410000017N120319104700000000000103004190000000000000000000000000000000000000000100093461526720MARIELZA DE SOUZA COSTA                 ESTRADA DO LAMEIRAO N 111,              RIO DE JANEI23092032RIO DE JANEIRO RJUNIAO UMB DOS CULTOS AFRO BRAS    30041910 000074
10231987175000168916200163100    000039945                    000399450000000000000109                     I0139945     30041900000000040003410000017N120319104700000000000103004190000000000000000000000000000000000000000100091892759772MARIA LUIZA SANTILHANA BATISTA          RUA: IPITANGASN 63,                     MAGALHAES BA21745400RIO DE JANEIRO RJUNIAO UMB DOS CULTOS AFRO BRAS    30041910 000075
10231987175000168916200163100    000039946                    000399460000000000000109                     I0139946     30041900000000040003410000017N120319104700000000000103004190000000000000000000000000000000000000000100031672582768IVANIA MOURA DE PAIVA                   ESTRADA: DA GROTA FUNDA N 2500,         JACAREPAGUA 22785330RIO DE JANEIRO RJUNIAO UMB DOS CULTOS AFRO BRAS    30041910 000076
10231987175000168916200163100    000039947                    000399470000000000000109                     I0139947     30041900000000040003410000017N120319104700000000000103004190000000000000000000000000000000000000000100030995280720JOSE ANACLETO DE LIMA                   RUA FREDI EMANUEL N 144,                JARDIM JASMI26265110NOVA IGUACU    RJUNIAO UMB DOS CULTOS AFRO BRAS    30041910 000077
10231987175000168916200163100    000039948                    000399480000000000000109                     I0139948     30041900000000040003410000017N120319104700000000000103004190000000000000000000000000000000000000000100043314503768LUIZ GONZAGA DE OLIVEIRA FILHO          RUA UNIAON 16,                          RIO DAS PEDR22753700RIO DE JANEIRO RJUNIAO UMB DOS CULTOS AFRO BRAS    30041910 000078
10231987175000168916200163100    000039949                    000399490000000000000109                     I0139949     30041900000000040003410000017N120319104700000000000103004190000000000000000000000000000000000000000100062444654749NADIA DA CUNHA SANTOS                   ESTRADA DO CAFUNDA N 621, RUA A CASA 11 TAQUARA - JA22725030RIO DE JANEIRO RJUNIAO UMB DOS CULTOS AFRO BRAS    30041910 000079
10231987175000168916200163100    000039950                    000399500000000000000109                     I0139950     30041900000000040003410000017N120319104700000000000103004190000000000000000000000000000000000000000100000441127770NOEMIA DINANTES GOMES                   RUA COELHO DA ROCHAN 596,               AGOSTINHO PO25510120SAO JOAO DE MERRJUNIAO UMB DOS CULTOS AFRO BRAS    30041910 000080
10231987175000168916200163100    000039951                    000399510000000000000109                     I0139951     30041900000000040003410000017N120319104700000000000103004190000000000000000000000000000000000000000100004462200780ELAINE LOPES GONCALVES FALCAO           RUA TIUBAN 697,                         VAZ LOBO    21371170RIO DE JANEIRO RJUNIAO UMB DOS CULTOS AFRO BRAS    30041910 000081
10231987175000168916200163100    000039952                    000399520000000000000109                     I0139952     30041900000000040003410000017N120319104700000000000103004190000000000000000000000000000000000000000100066954371734ROBSON MESQUITA                         RUA TENENTE LUIZ DORNELESN 155,         PENHA       21070300RIO DE JANEIRO RJUNIAO UMB DOS CULTOS AFRO BRAS    30041910 000082
10231987175000168916200163100    000039953                    000399530000000000000109                     I0139953     30041900000000040003410000017N120319104700000000000103004190000000000000000000000000000000000000000100000000000000DENISE DOS SANTOS OLIVEIRA              RUA BEZERRIL FONTENELE N 150,           IRAJA       21361640RIO DE JANEIRO RJUNIAO UMB DOS CULTOS AFRO BRAS    30041910 000083
10231987175000168916200163100    000039954                    000399540000000000000109                     I0139954     30041900000000040003410000017N120319104700000000000103004190000000000000000000000000000000000000000100095294236753ROSANE MOREIRA DE LIMA                  RUA IRIGUATIN 63,                       OLARIA      21073320RIO DE JANEIRO RJUNIAO UMB DOS CULTOS AFRO BRAS    30041910 000084
10231987175000168916200163100    000039955                    000399550000000000000109                     I0139955     30041900000000040003410000017N120319104700000000000103004190000000000000000000000000000000000000000100053411200782ELZA MORAES DA SILVA                    RUA CARLOS PALUTN 592, BLOCO 2 APT 102  TAQUARA     22710310RIO DE JANEIRO RJUNIAO UMB DOS CULTOS AFRO BRAS    30041910 000085
10231987175000168916200163100    000039956                    000399560000000000000109                     I0139956     30041900000000040003410000017N120319104700000000000103004190000000000000000000000000000000000000000100061293776734MARIA DE SOUZA                          AVENIDA BELO HORIZONTEN 271,            SAO GABRIEL 26021670NOVA IGUACU    RJUNIAO UMB DOS CULTOS AFRO BRAS    30041910 000086
10231987175000168916200163100    000039957                    000399570000000000000109                     I0139957     30041900000000040003410000017N120319104700000000000103004190000000000000000000000000000000000000000100000998809705LEDA GONCALVES MENDES                   RUA VINTE DE ABRIL N 5, CASA 2          CENTRO      26327470QUEIMADOS      RJUNIAO UMB DOS CULTOS AFRO BRAS    30041910 000087
10231987175000168916200163100    000039958                    000399580000000000000109                     I0139958     30041900000000040003410000017N120319104700000000000103004190000000000000000000000000000000000000000100004550495723MARIA ADELAIDE DA SILVA PROFET          RUA ARACA N 552,                        RICARDO DE A21620050RIO DE JANEIRO RJUNIAO UMB DOS CULTOS AFRO BRAS    30041910 000088
10231987175000168916200163100    000039959                    000399590000000000000109                     I0139959     30041900000000040003410000017N120319104700000000000103004190000000000000000000000000000000000000000100010026251736SILVIA MARIA DE MOURA                   ESTRADA SANTA EFIGENIA N 461, CASA 14   TAQUARA - JA21250450RIO DE JANEIRO RJUNIAO UMB DOS CULTOS AFRO BRAS    30041910 000089
10231987175000168916200163100    000039960                    000399600000000000000109                     I0139960     30041900000000040003410000017N120319104700000000000103004190000000000000000000000000000000000000000100002477166778BEATRIZ MIRANDA ABRANCHES               RUA GRUCAIN 657,                        PENHA       21020250RIO DE JANEIRO RJUNIAO UMB DOS CULTOS AFRO BRAS    30041910 000090
10231987175000168916200163100    000039961                    000399610000000000000109                     I0139961     30041900000000040003410000017N120319104700000000000103004190000000000000000000000000000000000000000100014052074777JANAINA DE MORAES PEREIRA               RUA JOAO BRIGIDO N 41, FUNDOS CASA 2    MAGALHAES BA21745480RIO DE JANEIRO RJUNIAO UMB DOS CULTOS AFRO BRAS    30041910 000091
10231987175000168916200163100    000039962                    000399620000000000000109                     I0139962     30041900000000040003410000017N120319104700000000000103004190000000000000000000000000000000000000000100044091567720LUCIA HELENA DOS PASSOS                 RUA ADOLFO BERGAMINI  N 0, LOTE 11 QD 12VILA SANTO A25040310DUQUE DE CAXIASRJUNIAO UMB DOS CULTOS AFRO BRAS    30041910 000092
10231987175000168916200163100    000039963                    000399630000000000000109                     I0139963     30041900000000040003410000017N120319104700000000000103004190000000000000000000000000000000000000000100000000000000SOLANGE DOS SANTOS SILVA                RUA QUATORZEN 0, LOTE 35 CASA 131 - ARAUCAMPO GRANDE23090370RIO DE JANEIRO RJUNIAO UMB DOS CULTOS AFRO BRAS    30041910 000093
10231987175000168916200163100    000039964                    000399640000000000000109                     I0139964     30041900000000040003410000017N120319104700000000000103004190000000000000000000000000000000000000000100006923081726ZELINA MARIA DOS SANTOS                 RUA  TIBET N 0, LT 8 QD 23              JARDIM MERIT25555600SAO JOAO DE MERRJUNIAO UMB DOS CULTOS AFRO BRAS    30041910 000094
10231987175000168916200163100    000039965                    000399650000000000000109                     I0139965     30041900000000040003410000017N120319104700000000000103004190000000000000000000000000000000000000000100039305635768ENIR DE OLIVEIRA                        RUA: EUGENIO FERREIRAN 198,             COMENDADOR S26276580NOVA IGUACU    RJUNIAO UMB DOS CULTOS AFRO BRAS    30041910 000095
10231987175000168916200163100    000039966                    000399660000000000000109                     I0139966     30041900000000040003410000017N120319104700000000000103004190000000000000000000000000000000000000000100066198402720JORGE LUCIO                             AVENIDA DOS ITALIANOS N 936, BLOCO A   AROCHA MIRAND21510104RIO DE JANEIRO RJUNIAO UMB DOS CULTOS AFRO BRAS    30041910 000096
10231987175000168916200163100    000039967                    000399670000000000000109                     I0139967     30041900000000040003410000017N120319104700000000000103004190000000000000000000000000000000000000000100054571715749VILMA OLIVEIRA DOS SANTOS               RUA CORREIA DIAS N 1066,                VIGARIO GERA21241310RIO DE JANEIRO RJUNIAO UMB DOS CULTOS AFRO BRAS    30041910 000097
10231987175000168916200163100    000039968                    000399680000000000000109                     I0139968     30041900000000040003410000017N120319104700000000000103004190000000000000000000000000000000000000000100000000000000UBIRACIRA MACHADO JANUARIO TEI          RUA SAO MARCIANON 59,                   VILA VALQUEI21321260RIO DE JANEIRO RJUNIAO UMB DOS CULTOS AFRO BRAS    30041910 000098
10231987175000168916200163100    000039969                    000399690000000000000109                     I0139969     30041900000000040003410000017N120319104700000000000103004190000000000000000000000000000000000000000100086990810734ROGY CARLOS OLIVEIRA MELLO              RUA: BORDA DO MATO N 433,               GRAJAU      20561200RIO DE JANEIRO RJUNIAO UMB DOS CULTOS AFRO BRAS    30041910 000099
10231987175000168916200163100    000039970                    000399700000000000000109                     I0139970     30041900000000040003410000017N120319104700000000000103004190000000000000000000000000000000000000000100043082033768LEILA RAMOS DE OLIVEIRA                 RUA CAPIBARIBE N 361,                   CABUCU      26346290NOVA IGUACU    RJUNIAO UMB DOS CULTOS AFRO BRAS    30041910 000100
10231987175000168916200163100    000039971                    000399710000000000000109                     I0139971     30041900000000040003410000017N120319104700000000000103004190000000000000000000000000000000000000000100010120070731GABRIEL LAERTE DA SILVA                 ESTRADA DE MADUREIRAN 2025,             MARIPICU    26365220NOVA IGUACU    RJUNIAO UMB DOS CULTOS AFRO BRAS    30041910 000101
10231987175000168916200163100    000039972                    000399720000000000000109                     I0139972     30041900000000040003410000017N120319104700000000000103004190000000000000000000000000000000000000000100075300931772ALTAIR DE SOUZA COSTA                   RUA SETE DE SETEMBRON 0, LOTE 15 QUADRA CABUCU      26293486NOVA IGUACU    RJUNIAO UMB DOS CULTOS AFRO BRAS    30041910 000102
10231987175000168916200163100    000039973                    000399730000000000000109                     I0139973     30041900000000040003410000017N120319104700000000000103004190000000000000000000000000000000000000000100004768933726MARIA DE FATIMA DE CARVALHO             RUA CLEBERN 113,                        SEPETIBA    23530190RIO DE JANEIRO RJUNIAO UMB DOS CULTOS AFRO BRAS    30041910 000103
10231987175000168916200163100    000039974                    000399740000000000000109                     I0139974     30041900000000040003410000017N120319104700000000000103004190000000000000000000000000000000000000000220237404000100TENDA DOS ORIXAS                        RUA JOSE MARIOZZI FILHON 990,           PRAIA DA BRI23028400RIO DE JANEIRO RJUNIAO UMB DOS CULTOS AFRO BRAS    30041910 000104
10231987175000168916200163100    000039975                    000399750000000000000109                     I0139975     30041900000000040003410000017N120319104700000000000103004190000000000000000000000000000000000000000100059135085720CELIA MARINHO VIEIRA                    RUA LOURIVAL ABREU SILVAN 565,          SULACAP     21745760RIO DE JANEIRO RJUNIAO UMB DOS CULTOS AFRO BRAS    30041910 000105
10231987175000168916200163100    000039976                    000399760000000000000109                     I0139976     30041900000000040003410000017N120319104700000000000103004190000000000000000000000000000000000000000100030341108715SUELENA DA SILVA MARTINS                RUA PAULO DE AQUINO N 27,               ANCHIETA    21645500RIO DE JANEIRO RJUNIAO UMB DOS CULTOS AFRO BRAS    30041910 000106
10231987175000168916200163100    000039977                    000399770000000000000109                     I0139977     30041900000000040003410000017N120319104700000000000103004190000000000000000000000000000000000000000100001015032702GABRIEL MENEZES                         RUA DA PAZN 2,                          PARQUE VALE 28940000SAO PEDRO DA ALRJUNIAO UMB DOS CULTOS AFRO BRAS    30041910 000107
10231987175000168916200163100    000039978                    000399780000000000000109                     I0139978     30041900000000040003410000017N120319104700000000000103004190000000000000000000000000000000000000000100000000000000ANA MARIA DIAS GOMES                    RUA JOAQUIM MURTINHO N 504,             BANANEIRAS  28970000ARARUAMA       RJUNIAO UMB DOS CULTOS AFRO BRAS    30041910 000108
10231987175000168916200163100    000039979                    000399790000000000000109                     I0139979     30041900000000040003410000017N120319104700000000000103004190000000000000000000000000000000000000000100090693043768REJANE VIEIRA GOMES                     RUA TAPIRANGAN 0, LOTE 3 AO LADO DO 371 PADRE MIGUEL21775470RIO DE JANEIRO RJUNIAO UMB DOS CULTOS AFRO BRAS    30041910 000109
10231987175000168916200163100    000039980                    000399800000000000000109                     I0139980     30041900000000040003410000017N120319104700000000000103004190000000000000000000000000000000000000000100063520788772JOSE DOMINGOS VICTORINO DE SOU          RUA: ITAGUAIN 306, FUNDOS - JARDIM CARIOILHA DO GOVE21921420RIO DE JANEIRO RJUNIAO UMB DOS CULTOS AFRO BRAS    30041910 000110
10231987175000168916200163100    000039981                    000399810000000000000109                     I0139981     30041900000000040003410000017N120319104700000000000103004190000000000000000000000000000000000000000100071411780744ZULTAMAR MESQUITA DE ALMEIDA            RUA  CORONEL JOSE MUNIZ      N 554,     OLINDA      26545060NILOPOLIS      RJUNIAO UMB DOS CULTOS AFRO BRAS    30041910 000111
10231987175000168916200163100    000039982                    000399820000000000000109                     I0139982     30041900000000040003410000017N120319104700000000000103004190000000000000000000000000000000000000000100001796220728MARIA ROSA ALVES DA SILVA               RUA DOUTOR ARRUDA NEGREIRO N 100,       PARQUE SENHO25025325DUQUE DE CAXIASRJUNIAO UMB DOS CULTOS AFRO BRAS    30041910 000112
10231987175000168916200163100    000039983                    000399830000000000000109                     I0139983     30041900000000040003410000017N120319104700000000000103004190000000000000000000000000000000000000000100003350383793RITA DE CASSIA MOREIRA DA SILV          RUA ALBERTO TEIXEIRA DA CUNHA N 1160, CACENTRO      26520110NILOPOLIS      RJUNIAO UMB DOS CULTOS AFRO BRAS    30041910 000113
10231987175000168916200163100    000039984                    000399840000000000000109                     I0139984     30041900000000040003410000017N120319104700000000000103004190000000000000000000000000000000000000000100064392791734ORDALINA PEDROZO TOMAZ DE AQUI          RUA ABEL DE ALVARENGA N 210,            CHATUBA     26246340MESQUITA       RJUNIAO UMB DOS CULTOS AFRO BRAS    30041910 000114
10231987175000168916200163100    000039985                    000399850000000000000109                     I0139985     30041900000000040003410000017N120319104700000000000103004190000000000000000000000000000000000000000100060818751720LUIZ CARLOS AMATE                       RUA ITABIRAN 343,                       BRAZ DE PINA21215310RIO DE JANEIRO RJUNIAO UMB DOS CULTOS AFRO BRAS    30041910 000115
10231987175000168916200163100    000039986                    000399860000000000000109                     I0139986     30041900000000040003410000017N120319104700000000000103004190000000000000000000000000000000000000000100085789569749VALMIR DE SOUZA RIBEIRO                 RUA NEPOMUCENO N 378,                   REALENGO    21715080RIO DE JANEIRO RJUNIAO UMB DOS CULTOS AFRO BRAS    30041910 000116
10231987175000168916200163100    000039987                    000399870000000000000109                     I0139987     30041900000000040003410000017N120319104700000000000103004190000000000000000000000000000000000000000100037345095720VERA LUCIA DA CRUZ NEVES                RUA RODRIGUES CAMPELO  N 54,            CAMPO GRANDE23017210RIO DE JANEIRO RJUNIAO UMB DOS CULTOS AFRO BRAS    30041910 000117
10231987175000168916200163100    000039988                    000399880000000000000109                     I0139988     30041900000000040003410000017N120319104700000000000103004190000000000000000000000000000000000000000100092053050730SONIA MARIA RODRIGUES LONTRA M          TRAVESSA TITO RABELO N 120,             CAMPO GRANDE23017245RIO DE JANEIRO RJUNIAO UMB DOS CULTOS AFRO BRAS    30041910 000118
10231987175000168916200163100    000039989                    000399890000000000000109                     I0139989     30041900000000040003410000017N120319104700000000000103004190000000000000000000000000000000000000000100069381933715NEUSA CAMPOS BRITO PINTO                RUA XAVIER PINHEIRON 525,               VIGARIO GERA21241320RIO DE JANEIRO RJUNIAO UMB DOS CULTOS AFRO BRAS    30041910 000119
10231987175000168916200163100    000039990                    000399900000000000000109                     I0139990     30041900000000040003410000017N120319104700000000000103004190000000000000000000000000000000000000000100055055753749MARIA LUCIA BENJAMIN DE FREITA          RUA GONZAGA BASTOS N 209, BLOCO B APT 50TIJUCA      20541000RIO DE JANEIRO RJUNIAO UMB DOS CULTOS AFRO BRAS    30041910 000120
10231987175000168916200163100    000039991                    000399910000000000000109                     I0139991     30041900000000040003410000017N120319104700000000000103004190000000000000000000000000000000000000000100068331428749IVANILDA DOS SANTOS                     RUA RIBEIRAO DO SUL N 0, LOTE 7 QUADRA 2GUARATIBA   23026590RIO DE JANEIRO RJUNIAO UMB DOS CULTOS AFRO BRAS    30041910 000121
10231987175000168916200163100    000039992                    000399920000000000000109                     I0139992     30041900000000040003410000017N120319104700000000000103004190000000000000000000000000000000000000000100041602790744PAULO LEANDRO FONTES                    RUA SANTA LUZIA N 208,                  SANTA CRUZ  27288490VOLTA REDONDA  RJUNIAO UMB DOS CULTOS AFRO BRAS    30041910 000122
10231987175000168916200163100    000039993                    000399930000000000000109                     I0139993     30041900000000040003410000017N120319104700000000000103004190000000000000000000000000000000000000000100000000000656GINO ZACARIAS DE JESUS                  RUA NOVEN 2, VILA GENI                  VILA GENI   23830010ITAGUAI        RJUNIAO UMB DOS CULTOS AFRO BRAS    30041910 000123
10231987175000168916200163100    000039994                    000399940000000000000109                     I0139994     30041900000000040003410000017N120319104700000000000103004190000000000000000000000000000000000000000100044451318734NILZA MUNIZ FIRMINO                     RUA PEDRO AMERICO N 0, LOTE 25 QUADRA 10COLUBANDE   24450480SAO GONCALO    RJUNIAO UMB DOS CULTOS AFRO BRAS    30041910 000124
10231987175000168916200163100    000039995                    000399950000000000000109                     I0139995     30041900000000040003410000017N120319104700000000000103004190000000000000000000000000000000000000000100083326952791JOSELITA BATISTA DE OLIVEIRA            RUA: ELIZETE DA SILVA TAGINO N 14, QUADRBRISAMAR    23823290ITAGUAI        RJUNIAO UMB DOS CULTOS AFRO BRAS    30041910 000125
10231987175000168916200163100    000039996                    000399960000000000000109                     I0139996     30041900000000040003410000017N120319104700000000000103004190000000000000000000000000000000000000000100000000000658MARIA JOSE PACHECO DO AMPARO            RUA SILVINO PINTON 0, TRAVESSA 3 CASA 2 SAPE        24315600NITEROI        RJUNIAO UMB DOS CULTOS AFRO BRAS    30041910 000126
10231987175000168916200163100    000039997                    000399970000000000000109                     I0139997     30041900000000040003410000017N120319104700000000000103004190000000000000000000000000000000000000000100077688406749ROSA MARIA PINHEIRO                     RUA K  N 0, LOTE 6 E 7 QUADRA 12        BRISAMAR    23826230ITAGUAI        RJUNIAO UMB DOS CULTOS AFRO BRAS    30041910 000127
10231987175000168916200163100    000039998                    000399980000000000000109                     I0139998     30041900000000040003410000017N120319104700000000000103004190000000000000000000000000000000000000000100080887376720JULIA MARIA DA CONCEICAO                RUA ELIZETE DA SILVA TARGINO N 0, LOTE 6BRISAMAR    23823290ITAGUAI        RJUNIAO UMB DOS CULTOS AFRO BRAS    30041910 000128
10231987175000168916200163100    000039999                    000399990000000000000109                     I0139999     30041900000000040003410000017N120319104700000000000103004190000000000000000000000000000000000000000100059177608704SONIA MARIA DOS REMEDIOS                RUA SAO LUIZN 11, CASA 2 - CANAL DO LEITPRAIA DO SAC23860000MANGARATIBA    RJUNIAO UMB DOS CULTOS AFRO BRAS    30041910 000129
10231987175000168916200163100    000040000                    000400000000000000000109                     I0140000     30041900000000040003410000017N120319104700000000000103004190000000000000000000000000000000000000000100084244224734JORGE MARCELO TINTEL                    RUA ANTONIO BRAGA FILHO N 160,          SEPETIBA    23530220RIO DE JANEIRO RJUNIAO UMB DOS CULTOS AFRO BRAS    30041910 000130
10231987175000168916200163100    000040001                    000400010000000000000109                     I0140001     30041900000000040003410000017N120319104700000000000103004190000000000000000000000000000000000000000100095274987753PAULO SERGIO BARBOSA DA CUNHA           RUA IPIUNAN 16,                         JARDIM BANGU21866030RIO DE JANEIRO RJUNIAO UMB DOS CULTOS AFRO BRAS    30041910 000131
10231987175000168916200163100    000040002                    000400020000000000000109                     I0140002     30041900000000040003410000017N120319104700000000000103004190000000000000000000000000000000000000000100050982907753HILDETE SACRAMENTO BISPO                RUA: ITAMBARACAN 0, LOTE 31 QUADRA 136  CAMPO GRANDE23060070RIO DE JANEIRO RJUNIAO UMB DOS CULTOS AFRO BRAS    30041910 000132
10231987175000168916200163100    000040003                    000400030000000000000109                     I0140003     30041900000000040003410000017N120319104700000000000103004190000000000000000000000000000000000000000100081994699787MARCIA HELENA CORREIA DE LIMA           RUA FRANCISCO ALENCARN 37,              SEPETIBA    23530540RIO DE JANEIRO RJUNIAO UMB DOS CULTOS AFRO BRAS    30041910 000133
10231987175000168916200163100    000040004                    000400040000000000000109                     I0140004     30041900000000040003410000017N120319104700000000000103004190000000000000000000000000000000000000000100051398060704ELIZABETH MONTEIRO MOREIRA DA           RUA IBITINGAN 0, LOTE 1 QUADRA 3        PARQUE SAO B26167160BELFORD ROXO   RJUNIAO UMB DOS CULTOS AFRO BRAS    30041910 000134
10231987175000168916200163100    000040005                    000400050000000000000109                     I0140005     30041900000000040003410000017N120319104700000000000103004190000000000000000000000000000000000000000100001045146714ELIANE RIBEIRO MACEDO                   RUA SANTA GLICERIA N 1,                 PADRE MIGUEL21725320RIO DE JANEIRO RJUNIAO UMB DOS CULTOS AFRO BRAS    30041910 000135
10231987175000168916200163100    000040006                    000400060000000000000109                     I0140006     30041900000000040003410000017N120319104700000000000103004190000000000000000000000000000000000000000100000000000682MANOELINA DE PAULA SILVA                TRAVESSA FRANCISCO COUTO N 136,         VILA ISABEL 25811080TRES RIOS      RJUNIAO UMB DOS CULTOS AFRO BRAS    30041910 000136
10231987175000168916200163100    000040007                    000400070000000000000109                     I0140007     30041900000000040003410000017N120319104700000000000103004190000000000000000000000000000000000000000100003306466727ANDRE LUIS BARROS SCHMITZ               RUA: CARMELITA DOS ANJOS N 20,          VILA ISABEL 25811091TRES RIOS      RJUNIAO UMB DOS CULTOS AFRO BRAS    30041910 000137
10231987175000168916200163100    000040008                    000400080000000000000109                     I0140008     30041900000000040003410000017N120319104700000000000103004190000000000000000000000000000000000000000100070421064749HELOIZA HELENA COSTA LIMA               RUA ALCINDO RAFAELN 148, MORRO AGUDO    ITAMARATI   26262060NOVA IGUACU    RJUNIAO UMB DOS CULTOS AFRO BRAS    30041910 000138
10231987175000168916200163100    000040009                    000400090000000000000109                     I0140009     30041900000000040003410000017N120319104700000000000103004190000000000000000000000000000000000000000100003026317713RITA DE CASSIA VIEIRA SIMOES F          RUA CABO SAULO DE VASCONCELOS N 120,  LOJARDIM PALMA23510001RIO DE JANEIRO RJUNIAO UMB DOS CULTOS AFRO BRAS    30041910 000139
10231987175000168916200163100    000040010                    000400100000000000000109                     I0140010     30041900000000040003410000017N120319104700000000000103004190000000000000000000000000000000000000000100050995510768MARIA DAS GRACAS DE ANDRADE             RUA CARUARU N 22,                       OLINDA      26515390NILOPOLIS      RJUNIAO UMB DOS CULTOS AFRO BRAS    30041910 000140
10231987175000168916200163100    000040011                    000400110000000000000109                     I0140011     30041900000000040003410000017N120319104700000000000103004190000000000000000000000000000000000000000100007120562703JANETE RIBEIRO DE ALMEIDA               RUA MARIA TEREZA N 90,                  CABUCU      26347030NOVA IGUACU    RJUNIAO UMB DOS CULTOS AFRO BRAS    30041910 000141
10231987175000168916200163100    000040012                    000400120000000000000109                     I0140012     30041900000000040003410000017N120319104700000000000103004190000000000000000000000000000000000000000100000000000686HILDA REGINA NICANOR DOS SANTO          RUA PASSO FUNDO - KM 35N 100, BOM JESUS JARDIM GUAND26298189NOVA IGUACU    RJUNIAO UMB DOS CULTOS AFRO BRAS    30041910 000142
10231987175000168916200163100    000040013                    000400130000000000000109                     I0140013     30041900000000040003410000017N120319104700000000000103004190000000000000000000000000000000000000000100048123765720JUANJARA HENRIQUE DOS SANTOS            AVENIDA: CHOPIN N 75, A                 JARDIM GRAMA25050580DUQUE DE CAXIASRJUNIAO UMB DOS CULTOS AFRO BRAS    30041910 000143
10231987175000168916200163100    000040014                    000400140000000000000109                     I0140014     30041900000000040003410000017N120319104700000000000103004190000000000000000000000000000000000000000100000120098733MARIA APARECIDA SOUZA DA SILVA          RUA OURO BRANCON 424, LOTE 3 QUADRA B   PRAIA DE MAU25930000MAGE           RJUNIAO UMB DOS CULTOS AFRO BRAS    30041910 000144
10231987175000168916200163100    000040015                    000400150000000000000109                     I0140015     30041900000000040003410000017N120319104700000000000103004190000000000000000000000000000000000000000100044029640753CREMILDA CONCEICAO LOPES                RUA MARQUES DE ARACATUN 116,            IRAJA       21235250RIO DE JANEIRO RJUNIAO UMB DOS CULTOS AFRO BRAS    30041910 000145
10231987175000168916200163100    000040016                    000400160000000000000109                     I0140016     30041900000000040003410000017N120319104700000000000103004190000000000000000000000000000000000000000100045471240782MARIA HELENA DE SOUZA FREITAS           ESTRADA BELFORD ROXO N 0, LOTE 27 QUADRABOM PASTOR  26131970BELFORD ROXO   RJUNIAO UMB DOS CULTOS AFRO BRAS    30041910 000146
10231987175000168916200163100    000040017                    000400170000000000000109                     I0140017     30041900000000040003410000017N120319104700000000000103004190000000000000000000000000000000000000000100006980782762ALEX SANDRO INACIO DO NASCIMEN          TRAVESSA SAO TIAGO N 0, LOTE 17 QUADRA 3PARQUE SAO F26298686NOVA IGUACU    RJUNIAO UMB DOS CULTOS AFRO BRAS    30041910 000147
10231987175000168916200163100    000040018                    000400180000000000000109                     I0140018     30041900000000040003410000017N120319104700000000000103004190000000000000000000000000000000000000000100000237914387JOSE EDILSON RABELO CAULA               RUA DOS INVALIDOSN 138, BLOCO 2 APTº 90LAPA        20231046RIO DE JANEIRO RJUNIAO UMB DOS CULTOS AFRO BRAS    30041910 000148
10231987175000168916200163100    000040019                    000400190000000000000109                     I0140019     30041900000000040003410000017N120319104700000000000103004190000000000000000000000000000000000000000100097512770782DULCINEIA CAPUTE                        AVENIDA ITAGUAI N 848, A                ENGENHO     23820306ITAGUAI        RJUNIAO UMB DOS CULTOS AFRO BRAS    30041910 000149
10231987175000168916200163100    000040020                    000400200000000000000109                     I0140020     30041900000000040003410000017N120319104700000000000103004190000000000000000000000000000000000000000100001272334740VALERIA MARIA MOREIRA                   RUA EUDINO EGGERN 70,                   JARDIM CATAR24717015SAO GONCALO    RJUNIAO UMB DOS CULTOS AFRO BRAS    30041910 000150
10231987175000168916200163100    000040021                    000400210000000000000109                     I0140021     30041900000000040003410000017N120319104700000000000103004190000000000000000000000000000000000000000100031471811700GLORIA CORREIA                          RUA SA FERREIRAN 120, APT 1003          COPACABANA  22071101RIO DE JANEIRO RJUNIAO UMB DOS CULTOS AFRO BRAS    30041910 000151
10231987175000168916200163100    000040022                    000400220000000000000109                     I0140022     30041900000000040003410000017N120319104700000000000103004190000000000000000000000000000000000000000100000000019700FATIMA APARECIDA AZEVEDO DE AL          RUA: VICENTE DE CARVALHO N 123,         BELFORD ROXO26165420RIO DE JANEIRO RJUNIAO UMB DOS CULTOS AFRO BRAS    30041910 000152
10231987175000168916200163100    000040023                    000400230000000000000109                     I0140023     30041900000000040003410000017N120319104700000000000103004190000000000000000000000000000000000000000100096143967768MARIA CANDIDA BRANDAO ALVES             RUA MARLICE EMANUELN 155,               JARDIM ALVOR26265230NOVA IGUACU    RJUNIAO UMB DOS CULTOS AFRO BRAS    30041910 000153
10231987175000168916200163100    000040024                    000400240000000000000109                     I0140024     30041900000000040003410000017N120319104700000000000103004190000000000000000000000000000000000000000100000000000224FAUSTO IACOVELLI                        RUA: SAO JOAON 0, LOTE 15 QUADRA 29 - KMPARQUE SAO F26369160NOVA IGUACU    RJUNIAO UMB DOS CULTOS AFRO BRAS    30041910 000154
10231987175000168916200163100    000040025                    000400250000000000000109                     I0140025     30041900000000040003410000017N120319104700000000000103004190000000000000000000000000000000000000000100082347301772MARISTELA TORQUATO SILVA BRITT          RUA JOAO DA MATA PEIXOTO N 430,         CENTRO      26535340NILOPOLIS      RJUNIAO UMB DOS CULTOS AFRO BRAS    30041910 000155
10231987175000168916200163100    000040026                    000400260000000000000109                     I0140026     30041900000000040003410000017N120319104700000000000103004190000000000000000000000000000000000000000100018801293704NORMA RAMOS VIANNA                      AVENIDA PERNAMBUCANAN 1680,             VILA ROSALI 25510430SAO JOAO DE MERRJUNIAO UMB DOS CULTOS AFRO BRAS    30041910 000156
10231987175000168916200163100    000040027                    000400270000000000000109                     I0140027     30041900000000040003410000017N120319104700000000000103004190000000000000000000000000000000000000000100092631100778LECY PEREIRA CARDOSO                    ESTRADA: DO CARRO QUEBRADON 639, CASA 1 FIGUEIRAS   26051740NOVA IGUACU    RJUNIAO UMB DOS CULTOS AFRO BRAS    30041910 000157
10231987175000168916200163100    000040028                    000400280000000000000109                     I0140028     30041900000000040003410000017N120319104700000000000103004190000000000000000000000000000000000000000100044188269715SEBASTIANA SOUZA SANTOS                 RUA ARI BARROSON 193,                   SANTA RITA  26050410NOVA IGUACU    RJUNIAO UMB DOS CULTOS AFRO BRAS    30041910 000158
10231987175000168916200163100    000040029                    000400290000000000000109                     I0140029     30041900000000040003410000017N120319104700000000000103004190000000000000000000000000000000000000000218374653000104ASSOCIACAO INZO NKOSI                   RUA: MARQUES CANARION 725,              NOSSA SENHOR26520770NILOPOLIS      RJUNIAO UMB DOS CULTOS AFRO BRAS    30041910 000159
10231987175000168916200163100    000040030                    000400300000000000000109                     I0140030     30041900000000040003410000017N120319104700000000000103004190000000000000000000000000000000000000000100061991465734JANDIRA AMELIA PAULA DE OLIVEI          RUA SALVADOR DO MONTEN 487, ANTIGA RUA OBOACU       24467300SAO GONCALO    RJUNIAO UMB DOS CULTOS AFRO BRAS    30041910 000160
10231987175000168916200163100    000040031                    000400310000000000000109                     I0140031     30041900000000040003410000017N120319104700000000000103004190000000000000000000000000000000000000000224860815000109CENTRO AFRO BRASILEIRO CABOCLO          RUA CERESN 603,                         BANGU       21862070RIO DE JANEIRO RJUNIAO UMB DOS CULTOS AFRO BRAS    30041910 000161
10231987175000168916200163100    000040032                    000400320000000000000109                     I0140032     30041900000000040003410000017N120319104700000000000103004190000000000000000000000000000000000000000100019685726787ADELMIR HAMELIN SODRE                   RUA JOAQUIM DE SOUSAN 311, FUNDOS       ROCHA MIRAND21540370RIO DE JANEIRO RJUNIAO UMB DOS CULTOS AFRO BRAS    30041910 000162
10231987175000168916200163100    000040033                    000400330000000000000109                     I0140033     30041900000000040003410000017N120319104700000000000103004190000000000000000000000000000000000000000100084964910725LIA MARIA DA SILVA                      RUA LUIZ QUEIROZ DE NOGUEIRAN 0,  LOTE 2COLUBANDE   24744020SAO GONCALO    RJUNIAO UMB DOS CULTOS AFRO BRAS    30041910 000163
10231987175000168916200163100    000040034                    000400340000000000000109                     I0140034     30041900000000040003410000017N120319104700000000000103004190000000000000000000000000000000000000000100069085986753CARMEM PIRES DE SOUZA                   RUA PRAIA DE BOTAFOGON 460, APT 1138    BOTOFAGO    22250040RIO DE JANEIRO RJUNIAO UMB DOS CULTOS AFRO BRAS    30041910 000164
10231987175000168916200163100    000040035                    000400350000000000000109                     I0140035     30041900000000040003410000017N120319104700000000000103004190000000000000000000000000000000000000000100000000000000DAVID MOREIRA DE MENDONCA               RUA GENERAL RENATO PIQUETN 0, LOTE 27 QUVILA PARAISO23825460ITAGUAI        RJUNIAO UMB DOS CULTOS AFRO BRAS    30041910 000165
10231987175000168916200163100    000040036                    000400360000000000000109                     I0140036     30041900000000040003410000017N120319104700000000000103004190000000000000000000000000000000000000000100026603748720MARIA DA PENHA ANASTACIA DE OL          RUA MARATUBAN 6, FUNDOS                 RICARDO DE A21620430RIO DE JANEIRO RJUNIAO UMB DOS CULTOS AFRO BRAS    30041910 000166
10231987175000168916200163100    000040037                    000400370000000000000109                     I0140037     30041900000000040003410000017N120319104700000000000103004190000000000000000000000000000000000000000100000000000000VANIA MEDEIROS COUTINHO                 RUA TEREZAN 0, LOTE 4 QUADRA 4          PARQUE SUECI25245470BELFORD ROXO   RJUNIAO UMB DOS CULTOS AFRO BRAS    30041910 000167
10231987175000168916200163100    000040038                    000400380000000000000109                     I0140038     30041900000000040003410000017N120319104700000000000103004190000000000000000000000000000000000000000100008005327757MARIA LUIZA ALVES DA MATA               RUA NESTORN 796, CASA 8                 SANTA CRUZ  23515680RIO DE JANEIRO RJUNIAO UMB DOS CULTOS AFRO BRAS    30041910 000168
10231987175000168916200163100    000040039                    000400390000000000000109                     I0140039     30041900000000040003410000017N120319104700000000000103004190000000000000000000000000000000000000000100000000000000JOSE ROMERO LEITE MARTINS               RUA ALCOBACAN 1345, CASA 1              ANCHIETA    21645001RIO DE JANEIRO RJUNIAO UMB DOS CULTOS AFRO BRAS    30041910 000169
10231987175000168916200163100    000040040                    000400400000000000000109                     I0140040     30041900000000040003410000017N120319104700000000000103004190000000000000000000000000000000000000000100000000000000GILBERTO DA SILVA BORBA                 RUA PROFESSOR JOAO RIBEIRO FILHON 570,  ROCHA SOBRIN26232310RIO DE JANEIRO RJUNIAO UMB DOS CULTOS AFRO BRAS    30041910 000170
10231987175000168916200163100    000040041                    000400410000000000000109                     I0140041     30041900000000040003410000017N120319104700000000000103004190000000000000000000000000000000000000000100000475441710KASSIA DAMAZIO SOBRINHO                 RUA OPNIAO LIBERAN 27,                  JACAREPAGUA 22715130RIO DE JANEIRO RJUNIAO UMB DOS CULTOS AFRO BRAS    30041910 000171
10231987175000168916200163100    000040042                    000400420000000000000109                     I0140042     30041900000000040003410000017N120319104700000000000103004190000000000000000000000000000000000000000100007062360767IVONETE GOMES DOS SANTOS                RUA SOARES TAVARESN 555,                GRADIM      24431310SAO GONCALO    RJUNIAO UMB DOS CULTOS AFRO BRAS    30041910 000172
10231987175000168916200163100    000040043                    000400430000000000000109                     I0140043     30041900000000040003410000017N120319104700000000000103004190000000000000000000000000000000000000000100055177182720VALNEI FERNANDES DA SILVA               RUA DOUTOR JOSE MANOELN 262,            SANTA CATARI24420070SAO GONCALO    RJUNIAO UMB DOS CULTOS AFRO BRAS    30041910 000173
10231987175000168916200163100    000040044                    000400440000000000000109                     I0140044     30041900000000040003410000017N120319104700000000000103004190000000000000000000000000000000000000000100048512630744CARLOS MURILO CARDOSO DE CARVA          RUA MAJOR RUBENS VAZ N 38,              TIRADENTES -24732110SAO GONCALO    RJUNIAO UMB DOS CULTOS AFRO BRAS    30041910 000174
10231987175000168916200163100    000040045                    000400450000000000000109                     I0140045     30041900000000040003410000017N120319104700000000000103004190000000000000000000000000000000000000000100001411697707FERNANDO CRUZ DE OLIVEIRA               RUA ARACI COSTAN 328,                   ROCHA MIRAND21510200RIO DE JANEIRO RJUNIAO UMB DOS CULTOS AFRO BRAS    30041910 000175
10231987175000168916200163100    000040046                    000400460000000000000109                     I0140046     30041900000000040003410000017N120319104700000000000103004190000000000000000000000000000000000000000207788536000162ILE ASE OSAGUIAN - INSTITUICAO          RUA JURANDIR LIMAN 40,                  SANTA RITA -26051040NOVA IGUACU    RJUNIAO UMB DOS CULTOS AFRO BRAS    30041910 000176
10231987175000168916200163100    000040047                    000400470000000000000109                     I0140047     30041900000000040003410000017N120319104700000000000103004190000000000000000000000000000000000000000100003351761783CLAUDIA LUZIA PEREIRA                   RUA HOMERO SOBRINHO N 0, LOTE 12 QUADRA JARDIM NOVA 26187495BELFORD ROXO   RJUNIAO UMB DOS CULTOS AFRO BRAS    30041910 000177
10231987175000168916200163100    000040048                    000400480000000000000109                     I0140048     30041900000000040003410000017N120319104700000000000103004190000000000000000000000000000000000000000100003028407701MARIA MARINETE OLIVEIRA  DA SI          RUA TURIUVA N 0, LOTE 40 QUADRA 54      VILA MELIPOL26150000BELFORD ROXO   RJUNIAO UMB DOS CULTOS AFRO BRAS    30041910 000178
10231987175000168916200163100    000040049                    000400490000000000000109                     I0140049     30041900000000040003410000017N120319104700000000000103004190000000000000000000000000000000000000000100064954528704CELIA REGINA DA SILVA                   RUA ARNALDO MENEZESN 0, QUADRA 6 LOTE 1 PARQUE BARRE25581250SAO JOAO DE MERRJUNIAO UMB DOS CULTOS AFRO BRAS    30041910 000179
10231987175000168916200163100    000040050                    000400500000000000000109                     I0140050     30041900000000040003410000017N120319104700000000000103004190000000000000000000000000000000000000000100049175920700WANDA ALVES DE LIMA LEAL                RUA: PORTO RICO N 254,                  VIGARIO GERA21241200RIO DE JANEIRO RJUNIAO UMB DOS CULTOS AFRO BRAS    30041910 000180
10231987175000168916200163100    000040051                    000400510000000000000109                     I0140051     30041900000000040003410000017N120319104700000000000103004190000000000000000000000000000000000000000100000000000732MARIA DE LOURDES VIEIRA DA SIL          RUA: PEDRO FERREIRAN 0, LOTE 28 QUADRA 2JARDIM CATAR24715380SAO GONCALO    RJUNIAO UMB DOS CULTOS AFRO BRAS    30041910 000181
10231987175000168916200163100    000040052                    000400520000000000000109                     I0140052     30041900000000040003410000017N120319104700000000000103004190000000000000000000000000000000000000000100087969998704ROBERTO LUIZ MEDEIROS                   RUA OLIMPION 0, LOTE 35 QUADRA 29       HELIOPOLIS  26125215BELFORD ROXO   RJUNIAO UMB DOS CULTOS AFRO BRAS    30041910 000182
10231987175000168916200163100    000040053                    000400530000000000000109                     I0140053     30041900000000040003410000017N120319104700000000000103004190000000000000000000000000000000000000000100009408897730APARECIDA SILVA RIBEIRO                 RUA PEDRO TELLESN 566, CASA 4           CENTRO      25515003SAO JOAO DE MERRJUNIAO UMB DOS CULTOS AFRO BRAS    30041910 000183
10231987175000168916200163100    000040054                    000400540000000000000109                     I0140054     30041900000000040003410000017N120319104700000000000103004190000000000000000000000000000000000000000100076896960744MARIA LUCIA DE OLIVEIRA NUNES           AVENIDA DO CORRETOR N 116,              VILA ALIANCA21842340RIO DE JANEIRO RJUNIAO UMB DOS CULTOS AFRO BRAS    30041910 000184
10231987175000168916200163100    000040055                    000400550000000000000109                     I0140055     30041900000000040003410000017N120319104700000000000103004190000000000000000000000000000000000000000100000330025767NUBIA VIRGINIA DE ANDRADE MAGA          RUA ADEMAR MOREIRA N 5,                 SANTA CRUZ  23573100RIO DE JANEIRO RJUNIAO UMB DOS CULTOS AFRO BRAS    30041910 000185
10231987175000168916200163100    000040056                    000400560000000000000109                     I0140056     30041900000000040003410000017N120319104700000000000103004190000000000000000000000000000000000000000100003537257732MARIA APARECIDA RISTICH MACHAD          RUA DIAS DA CRUZ N 923,                 MEIER       20720011RIO DE JANEIRO RJUNIAO UMB DOS CULTOS AFRO BRAS    30041910 000186
10231987175000168916200163100    000040057                    000400570000000000000109                     I0140057     30041900000000040003410000017N120319104700000000000103004190000000000000000000000000000000000000000100001478169710TANIA MARIA ALVES CANEJO                RUA JORGE LIMA N 425, APTº 105         JARDIM GUANA21940006RIO DE JANEIRO RJUNIAO UMB DOS CULTOS AFRO BRAS    30041910 000187
10231987175000168916200163100    000040058                    000400580000000000000109                     I0140058     30041900000000040003410000017N120319104700000000000103004190000000000000000000000000000000000000000100056864680797SONIA MARIA DA SILVA                    RUA AN 111, LOTEAMENTO SANTA MARIA      CAMBOTA     27600000VALENCIA       RJUNIAO UMB DOS CULTOS AFRO BRAS    30041910 000188
10231987175000168916200163100    000040059                    000400590000000000000109                     I0140059     30041900000000040003410000017N120319104700000000000103004190000000000000000000000000000000000000000100054222141704WALMIR CARVALHO GUIMARAES               RUA BOA VIAGEMN 186, CASA               IPIRANGA    26293591NOVA IGUACU    RJUNIAO UMB DOS CULTOS AFRO BRAS    30041910 000189
10231987175000168916200163100    000040060                    000400600000000000000109                     I0140060     30041900000000040003410000017N120319104700000000000103004190000000000000000000000000000000000000000100073518573772MERCIA DO NASCIMENTO CAVALCANT          RUA BERNARDO MONTEIRON 0, LT 62 QD 151  JARDIM OLAVO25025320DUQUE DE CAXIASRJUNIAO UMB DOS CULTOS AFRO BRAS    30041910 000190
10231987175000168916200163100    000040061                    000400610000000000000109                     I0140061     30041900000000040003410000017N120319104700000000000103004190000000000000000000000000000000000000000100095032061700CILEIA DA ROCHA PACHECO                 RUA DA FLORALIAN 14, FUNDOS             SANTA BARBAR24350000RIO DE JANEIRO RJUNIAO UMB DOS CULTOS AFRO BRAS    30041910 000191
10231987175000168916200163100    000040062                    000400620000000000000109                     I0140062     30041900000000040003410000017N120319104700000000000103004190000000000000000000000000000000000000000100059463376704MARIA DA PENHA AZEVEDO SANTOS           RUA: ITABIRAN 784,                      VILA ITAMARA25070260DUQUE DE CAXIASRJUNIAO UMB DOS CULTOS AFRO BRAS    30041910 000192
10231987175000168916200163100    000040063                    000400630000000000000109                     I0140063     30041900000000040003410000017N120319104700000000000103004190000000000000000000000000000000000000000100079558763772HUGO XAVIER                             AVENIDA: PRESIDENTE VARGASN 2007, APTº CENTRO      20210030RIO DE JANEIRO RJUNIAO UMB DOS CULTOS AFRO BRAS    30041910 000193
10231987175000168916200163100    000040064                    000400640000000000000109                     I0140064     30041900000000040003410000017N120319104700000000000103004190000000000000000000000000000000000000000100001568681720MARCO ANTONIO DA COSTA                  RUA LOIR NOGUEIRAN 0, LOTE 10 QUADRA 11 RIO DO OURO 24752840SAO GONCALO    RJUNIAO UMB DOS CULTOS AFRO BRAS    30041910 000194
10231987175000168916200163100    000040065                    000400650000000000000109                     I0140065     30041900000000040003410000017N120319104700000000000103004190000000000000000000000000000000000000000100089041950710ANA LUCIA GUIMARAES MOURA ALVE          RUA CARLOS ILIDRO N 189,                BANCARIOS - 21910160RIO DE JANEIRO RJUNIAO UMB DOS CULTOS AFRO BRAS    30041910 000195
10231987175000168916200163100    000040066                    000400660000000000000109                     I0140066     30041900000000040003410000017N120319104700000000000103004190000000000000000000000000000000000000000100001650613750ELIZABETH CRISTIN DOS S. B. DA          RUA: GONDIM DA FONSECAN 36, APTº 103   PORTUGUESA -21931575RIO DE JANEIRO RJUNIAO UMB DOS CULTOS AFRO BRAS    30041910 000196
10231987175000168916200163100    000040067                    000400670000000000000109                     I0140067     30041900000000040003410000017N120319104700000000000103004190000000000000000000000000000000000000000100043397140706VERA LUCIA FERREIRA DA SILVA            RUA ALICE N 183,                        COMENDADOR S26262030NOVA IGUACU    RJUNIAO UMB DOS CULTOS AFRO BRAS    30041910 000197
10231987175000168916200163100    000040068                    000400680000000000000109                     I0140068     30041900000000040003410000017N120319104700000000000103004190000000000000000000000000000000000000000100072596317753CLAUDIA IVONE CAETANO DA SILVA          RUA NADIA MARIA DA SILVEIRA MENEZES N 0,VENDA VELHA 25580110SAO JOAO DE MERRJUNIAO UMB DOS CULTOS AFRO BRAS    30041910 000198
10231987175000168916200163100    000040069                    000400690000000000000109                     I0140069     30041900000000040003410000017N120319104700000000000103004190000000000000000000000000000000000000000100088033945753JOSE RICARDO RIBEIRO DE AMORIM          RUA IGARATAN 994, CASA 1                MARECHAL HER21555250RIO DE JANEIRO RJUNIAO UMB DOS CULTOS AFRO BRAS    30041910 000199
10231987175000168916200163100    000040070                    000400700000000000000109                     I0140070     30041900000000040003410000017N120319104700000000000103004190000000000000000000000000000000000000000100054329825791CATIA DE SOUZA DALTRO                   RUA: FREDERICO LIMA N 180,              MADUREIRA   21360280RIO DE JANEIRO RJUNIAO UMB DOS CULTOS AFRO BRAS    30041910 000200
10231987175000168916200163100    000040071                    000400710000000000000109                     I0140071     30041900000000040003410000017N120319104700000000000103004190000000000000000000000000000000000000000100063441314700AMARA DE CARVALHO DANIEL                RUA FREDERICO LEALN 146, CASA 2         BANGU       21825110RIO DE JANEIRO RJUNIAO UMB DOS CULTOS AFRO BRAS    30041910 000201
10231987175000168916200163100    000040072                    000400720000000000000109                     I0140072     30041900000000040003410000017N120319104700000000000103004190000000000000000000000000000000000000000100007388880798ARLETE QUEIROZ GONCALVES                RUA: EMILIA FLORINDA RAMOS REIS N 13, CASAHY        23860000MANGARATIBA    RJUNIAO UMB DOS CULTOS AFRO BRAS    30041910 000202
10231987175000168916200163100    000040073                    000400730000000000000109                     I0140073     30041900000000040003410000017N120319104700000000000103004190000000000000000000000000000000000000000100063440512720SILVANA MANGIA DE SOUZA                 RUA ACANTO N 20,                        BANGU       21830080RIO DE JANEIRO RJUNIAO UMB DOS CULTOS AFRO BRAS    30041910 000203
10231987175000168916200163100    000040074                    000400740000000000000109                     I0140074     30041900000000025003410000017N120319104700000000000103004190000000000000000000000000000000000000000100051238489753NANCY DA SILVA APOLINARIO TEIX          RUA: VIDAL DE NEGREIROSN 110,           SANTO CRISTO20220770RIO DE JANEIRO RJUNIAO UMB DOS CULTOS AFRO BRAS    30041910 000204
10231987175000168916200163100    000040075                    000400750000000000000109                     I0140075     30041900000000040003410000017N120319104700000000000103004190000000000000000000000000000000000000000100009886046716ANA CRISTINA DE ALMEIDA TRINDA          RUA COTIJUBAN 156,                      ROCHA MIRAND21555020RIO DE JANEIRO RJUNIAO UMB DOS CULTOS AFRO BRAS    30041910 000205
10231987175000168916200163100    000040076                    000400760000000000000109                     I0140076     30041900000000040003410000017N120319104700000000000103004190000000000000000000000000000000000000000100000000000790ANORELINA OLIVEIRA DOS SANTOS           RUA: MAUA N 27,  QUADRA 14              VILA SAO JOA25570151SAO JOAO DE MERRJUNIAO UMB DOS CULTOS AFRO BRAS    30041910 000206
10231987175000168916200163100    000040077                    000400770000000000000109                     I0140077     30041900000000050003410000017N120319104700000000000103004190000000000000000000000000000000000000000100014708764774ADILSON CARNEIRO PINTO                  RUA JUREMA N 49,                        CAMPO GRANDE23035380RIO DE JANEIRO RJUNIAO UMB DOS CULTOS AFRO BRAS    30041910 000207
10231987175000168916200163100    000040078                    000400780000000000000109                     I0140078     30041900000000040003410000017N120319104700000000000103004190000000000000000000000000000000000000000100003250127760MARIA ZULEICA CRUZ DA SILVA             ESTRADA DOUTOR PLINIO CASADO N 2839,    PARQUE ROSAR26010421NOVA IGUACU    RJUNIAO UMB DOS CULTOS AFRO BRAS    30041910 000208
10231987175000168916200163100    000040079                    000400790000000000000109                     I0140079     30041900000000040003410000017N120319104700000000000103004190000000000000000000000000000000000000000100062497073791SIDIRENE FRANCISCO MACHADO              RUA PALMEIRA DAS MISSOESN 422, FUNDOS   VILA SANTA R23015220CAMPO GRANDE   RJUNIAO UMB DOS CULTOS AFRO BRAS    30041910 000209
10231987175000168916200163100    000040080                    000400800000000000000109                     I0140080     30041900000000040003410000017N120319104700000000000103004190000000000000000000000000000000000000000100005556657718EDUARDO DE OLIVEIRA SILVA               RUA DELIO GUARANA N 0, LOTE 15          EDEN        25545100SAO JOAO DE MERRJUNIAO UMB DOS CULTOS AFRO BRAS    30041910 000210
10231987175000168916200163100    000040081                    000400810000000000000109                     I0140081     30041900000000040003410000017N120319104700000000000103004190000000000000000000000000000000000000000100010324446730DEBORA ANDRADE SILVA                    RUA ATALI AGUIAR N 12,                  TAQUARA - JA22720360RIO DE JANEIRO RJUNIAO UMB DOS CULTOS AFRO BRAS    30041910 000211
10231987175000168916200163100    000040082                    000400820000000000000109                     I0140082     30041900000000040003410000017N120319104700000000000103004190000000000000000000000000000000000000000100076103137774VICENTE DE PAULA PEREIRA                RUA POTINGUARAN 253,                    BOA ESPERANC26113720BELFORD ROXO   RJUNIAO UMB DOS CULTOS AFRO BRAS    30041910 000212
10231987175000168916200163100    000040083                    000400830000000000000109                     I0140083     30041900000000040003410000017N120319104700000000000103004190000000000000000000000000000000000000000100000000000000MARIA DA PIEDADE SANTANA DOS S          RUA SERGIO JOAO PEREIRAN 365,           HELIOPOLIS  26123120BELFORD ROXO   RJUNIAO UMB DOS CULTOS AFRO BRAS    30041910 000213
10231987175000168916200163100    000040084                    000400840000000000000109                     I0140084     30041900000000040003410000017N120319104700000000000103004190000000000000000000000000000000000000000100002036570712ANDREIA SANTANNA DO NASCIMENTO          RUA ARARIBOIAN 0, LOTE 20 QUADRA 49     VILAR DOS TE25570190SAO JOAO DE MERRJUNIAO UMB DOS CULTOS AFRO BRAS    30041910 000214
10231987175000168916200163100    000040085                    000400850000000000000109                     I0140085     30041900000000040003410000017N120319104700000000000103004190000000000000000000000000000000000000000222566211000129CENTRO ESPIRITA DA VOVO MARIA           RUA JOSE MACHADON 55,                   IRAJA       21361360RIO DE JANEIRO RJUNIAO UMB DOS CULTOS AFRO BRAS    30041910 000215
10231987175000168916200163100    000040086                    000400860000000000000109                     I0140086     30041900000000040003410000017N120319104700000000000103004190000000000000000000000000000000000000000100054101778787ROSARIA MARIA DAS CHAGAS DA SI          RUA DA AERONAUTICAN 61,                 SENADOR CAMA21831410RIO DE JANEIRO RJUNIAO UMB DOS CULTOS AFRO BRAS    30041910 000216
10231987175000168916200163100    000040087                    000400870000000000000109                     I0140087     30041900000000040003410000017N120319104700000000000103004190000000000000000000000000000000000000000100079042708700ANTONIO CARLOS DE MIRANDA PACH          RUA SOLDADO BRUNO ESTRIFICA N 107,      CURICICA - J22780600RIO DE JANEIRO RJUNIAO UMB DOS CULTOS AFRO BRAS    30041910 000217
10231987175000168916200163100    000040088                    000400880000000000000109                     I0140088     30041900000000040003410000017N120319104700000000000103004190000000000000000000000000000000000000000100044351429704VANIA MARIA SIMOES DA SILVA             RUA SAO CRISTOVAON 193,                 KM 32 - PARQ26355120NOVA IGUACU    RJUNIAO UMB DOS CULTOS AFRO BRAS    30041910 000218
10231987175000168916200163100    000040089                    000400890000000000000109                     I0140089     30041900000000040003410000017N120319104700000000000103004190000000000000000000000000000000000000000100002356363718ANA EVELINA BARROS DA SILVA VI          AVENIDA GETULIO N 0, LOTE 20 QUADRA 2016PARQUE ESTOR26062570NOVA IGUACU    RJUNIAO UMB DOS CULTOS AFRO BRAS    30041910 000219
10231987175000168916200163100    000040090                    000400900000000000000109                     I0140090     30041900000000040003410000017N120319104700000000000103004190000000000000000000000000000000000000000100007333127729FRANCISCA GONCALVES                     RUA PROJETADA C N 4, BECO FRANCA        ROLA - SANTA23520580RIO DE JANEIRO RJUNIAO UMB DOS CULTOS AFRO BRAS    30041910 000220
10231987175000168916200163100    000040091                    000400910000000000000109                     I0140091     30041900000000040003410000017N120319104700000000000103004190000000000000000000000000000000000000000100059352272749IVANIR DA CONCEICAO DE ALMEIDA          RUA EUCLIDESN 218, VILA MILITAR         MAGALHAES BA21745130RIO DE JANEIRO RJUNIAO UMB DOS CULTOS AFRO BRAS    30041910 000221
10231987175000168916200163100    000040092                    000400920000000000000109                     I0140092     30041900000000040003410000017N120319104700000000000103004190000000000000000000000000000000000000000100073446416749MARIA DAS GRACAS DE SOUZA LEAO          AVENIDA: BRAS DE PINAN 706, APT 403     VILA DA PENH21210672RIO DE JANEIRO RJUNIAO UMB DOS CULTOS AFRO BRAS    30041910 000222
10231987175000168916200163100    000040093                    000400930000000000000109                     I0140093     30041900000000040003410000017N120319104700000000000103004190000000000000000000000000000000000000000100007648724782MARLENE INACIA NUNES DO NASCIM          RUA DOUTOR BERNARDINO TEIXEIRAN 753,    EDEN        25545110SAO JOAO DE MERRJUNIAO UMB DOS CULTOS AFRO BRAS    30041910 000223
10231987175000168916200163100    000040094                    000400940000000000000109                     I0140094     30041900000000040003410000017N120319104700000000000103004190000000000000000000000000000000000000000100000000000000NATERCIA MALVAR GARCIA LEITAO           RUA CIRO COSTAN 491,                    ENGENHO PEQU24417226SAO GONCALO    RJUNIAO UMB DOS CULTOS AFRO BRAS    30041910 000224
10231987175000168916200163100    000040095                    000400950000000000000109                     I0140095     30041900000000040003410000017N120319104700000000000103004190000000000000000000000000000000000000000100054770122772EDUARDO DOS SANTOS REIS NETO            RUA BURITIN 63,                         MADUREIRA   20231046RIO DE JANEIRO RJUNIAO UMB DOS CULTOS AFRO BRAS    30041910 000225
10231987175000168916200163100    000040096                    000400960000000000000109                     I0140096     30041900000000040003410000017N120319104700000000000103004190000000000000000000000000000000000000000100078893739704DENISE QUEIROZ CARNEIRO                 ESTRADA DO LAMEIRAO - RUA PAINEIRASN 30,SANTISSIMO  23092031RIO DE JANEIRO RJUNIAO UMB DOS CULTOS AFRO BRAS    30041910 000226
10231987175000168916200163100    000040097                    000400970000000000000109                     I0140097     30041900000000040003410000017N120319104700000000000103004190000000000000000000000000000000000000000100046582908715WANDERLEI ABRANTES TEIXEIRA             RUA LOURDES BARBOSA PASSASN 26, QUADRA 2BRISA MAR   23826360ITAGUAI        RJUNIAO UMB DOS CULTOS AFRO BRAS    30041910 000227
10231987175000168916200163100    000040098                    000400980000000000000109                     I0140098     30041900000000040003410000017N120319104700000000000103004190000000000000000000000000000000000000000100003247266780JANILTON DA CRUZ ROCHA                  RUA ALUISIO AZEVEDON 0,  LOTE 27 QUADRA IMBARIE - PA25275360DUQUE DE CAXIASRJUNIAO UMB DOS CULTOS AFRO BRAS    30041910 000228
10231987175000168916200163100    000040099                    000400990000000000000109                     I0140099     30041900000000040003410000017N120319104700000000000103004190000000000000000000000000000000000000000100000000000796ELVIRA PEREIRA                          RUA: VERISSIMO MACHADO  N 406,          ROCHA MIRAND21545060RIO DE JANEIRO RJUNIAO UMB DOS CULTOS AFRO BRAS    30041910 000229
10231987175000168916200163100    000040100                    000401000000000000000109                     I0140100     30041900000000040003410000017N120319104700000000000103004190000000000000000000000000000000000000000100086634402787ZILDA GIMENIZ NOGUEIRA                  RUA ESPIRITO SANTON 25,                 PRAIA LINDA 28940000SAO PEDRO DA ALRJUNIAO UMB DOS CULTOS AFRO BRAS    30041910 000230
10231987175000168916200163100    000040101                    000401010000000000000109                     I0140101     30041900000000040003410000017N120319104700000000000103004190000000000000000000000000000000000000000100015840697753NEA ROGERIO CRUZ                        RUA DOS VERANISTASN 19,                 REALENGO    21715170RIO DE JANEIRO RJUNIAO UMB DOS CULTOS AFRO BRAS    30041910 000231
10231987175000168916200163100    000040102                    000401020000000000000109                     I0140102     30041900000000040003410000017N120319104700000000000103004190000000000000000000000000000000000000000100058887725772LEOMILDA PONTES SILVA                   RUA: BERNADINO GOMESN 44, VILA JOLA     SANTA MARIA 26165710BELFOR ROXO    RJUNIAO UMB DOS CULTOS AFRO BRAS    30041910 000232
10231987175000168916200163100    000040103                    000401030000000000000109                     I0140103     30041900000000040003410000017N120319104700000000000103004190000000000000000000000000000000000000000100065213696791SILVIA ELIZABETE RODRIGUES              RUA JOAO BITTENCOURTN 286,              EDSON PASSOS26240510MESQUITA       RJUNIAO UMB DOS CULTOS AFRO BRAS    30041910 000233
10231987175000168916200163100    000040104                    000401040000000000000109                     I0140104     30041900000000040003410000017N120319104700000000000103004190000000000000000000000000000000000000000100000916700712MARIA MARGARIDA SOARES DOS SAN          RUA ANTONION 38, A                      COELHO DA RO25550100SAO JOAO DE MERRJUNIAO UMB DOS CULTOS AFRO BRAS    30041910 000234
10231987175000168916200163100    000040105                    000401050000000000000109                     I0140105     30041900000000040003410000017N120319104700000000000103004190000000000000000000000000000000000000000100049135570768CLEBER SILVA DE FREITAS                 RUA COBE N 1275,                        RIO DA PRATA21820200BANGU          RJUNIAO UMB DOS CULTOS AFRO BRAS    30041910 000235
10231987175000168916200163100    000040106                    000401060000000000000109                     I0140106     30041900000000040003410000017N120319104700000000000103004190000000000000000000000000000000000000000100004279924783EDUARDO CARVALHO DE SANTANNA            RUA CINCO N 778, CASA 2 AREA II         NOVA CAMPINA25268050DUQUE DE CAXIASRJUNIAO UMB DOS CULTOS AFRO BRAS    30041910 000236
10231987175000168916200163100    000040107                    000401070000000000000109                     I0140107     30041900000000040003410000017N120319104700000000000103004190000000000000000000000000000000000000000100003029004708ANDREA GUIMARAES MARTINS                RUA ANA CRISTINA N 31,                  VILA GUIMARA26088175NOVA IGUACU    RJUNIAO UMB DOS CULTOS AFRO BRAS    30041910 000237
10231987175000168916200163100    000040108                    000401080000000000000109                     I0140108     30041900000000040003410000017N120319104700000000000103004190000000000000000000000000000000000000000100048950572753ORQUIDEA JOSE DOS SANTOS                RUA JESSIE VENTURAN 0, LOTE 6 QUADRA 7  SANTA CECILI25233130DUQUE DE CAXIASRJUNIAO UMB DOS CULTOS AFRO BRAS    30041910 000238
10231987175000168916200163100    000040109                    000401090000000000000109                     I0140109     30041900000000040003410000017N120319104700000000000103004190000000000000000000000000000000000000000100003547991773PEDRO GUSTAVO SOARES DO NASCIM          RUA: BOM JARDIMN 0,  LOTE 1 QUADRA 98   JARDIM CABUC26052170NOVA IGUACU    RJUNIAO UMB DOS CULTOS AFRO BRAS    30041910 000239
10231987175000168916200163100    000040110                    000401100000000000000109                     I0140110     30041900000000040003410000017N120319104700000000000103004190000000000000000000000000000000000000000100001087376750ALAN RICARDO DA CONCEICAO GAMA          ESTRADA: DOS BANDEIRANTES N 11227, AVENIVARGEM PEQUE22783116RIO DE JANEIRO RJUNIAO UMB DOS CULTOS AFRO BRAS    30041910 000240
10231987175000168916200163100    000040111                    000401110000000000000109                     I0140111     30041900000000040003410000017N120319104700000000000103004190000000000000000000000000000000000000000100038268264772SANDRA NUNES DE ARAUJO                  RUA UBERABA N 15, VILA ROSARIO          BAIRRO DA GR25041060DUQUE DE CAXIASRJUNIAO UMB DOS CULTOS AFRO BRAS    30041910 000241
10231987175000168916200163100    000040112                    000401120000000000000109                     I0140112     30041900000000040003410000017N120319104700000000000103004190000000000000000000000000000000000000000100002180337701SONIA MARIA DE SOUZA CORDOVIL           RUA: GODOFREDO VIANAN 229, CASA 5       TAQUARA     22730020RIO DE JANEIRO RJUNIAO UMB DOS CULTOS AFRO BRAS    30041910 000242
10231987175000168916200163100    000040113                    000401130000000000000109                     I0140113     30041900000000040003410000017N120319104700000000000103004190000000000000000000000000000000000000000100082351376749ALDA LUCIA DA SILVA                     RUA ANTONIO MARINS DE OLIVEIRAN 479,    SAO MATEUS  25530000SAO JOAO DE MERRJUNIAO UMB DOS CULTOS AFRO BRAS    30041910 000243
10231987175000168916200163100    000040114                    000401140000000000000109                     I0140114     30041900000000040003410000017N120319104700000000000103004190000000000000000000000000000000000000000100048516805700MARIA APARECIDA DOS SANTOS CYP          ESTRADA DO SABONETEN 0, LOTE 25 QUADRA DARSENAL     24745224SAO GONCALO    RJUNIAO UMB DOS CULTOS AFRO BRAS    30041910 000244
10231987175000168916200163100    000040115                    000401150000000000000109                     I0140115     30041900000000040003410000017N120319104700000000000103004190000000000000000000000000000000000000000100064817008768MARINEIDE JOSE DOS SANTOS DA S          RUA MARINGA  N 30, QUADRA 8 CASA 1      CAMORIM     26311100QUEIMADOS      RJUNIAO UMB DOS CULTOS AFRO BRAS    30041910 000245
10231987175000168916200163100    000040116                    000401160000000000000109                     I0140116     30041900000000040003410000017N120319104700000000000103004190000000000000000000000000000000000000000100007324399738JACANA MONTEIRO DO AMARAL               RUA MESQUITA N 573,                     SAO ROQUE   26310580QUEIMADOS      RJUNIAO UMB DOS CULTOS AFRO BRAS    30041910 000246
10231987175000168916200163100    000040117                    000401170000000000000109                     I0140117     30041900000000040003410000017N120319104700000000000103004190000000000000000000000000000000000000000100007281066716ZULMIRA DA SILVA RODRIGUES              RUA: BERNARDINO DE CAMPOSN 0, LOTE 8 QUAOLAVO BILAC 25035530DUQUE DE CAXIASRJUNIAO UMB DOS CULTOS AFRO BRAS    30041910 000247
10231987175000168916200163100    000040118                    000401180000000000000109                     I0140118     30041900000000040003410000017N120319104700000000000103004190000000000000000000000000000000000000000100000695677720MARIA DE LOURDES SILVA                  RUA: ROCHA LIMAN 0, LOTE 6 QUADRA 27    SANTA RITA  26050540NOVA IGUACU    RJUNIAO UMB DOS CULTOS AFRO BRAS    30041910 000248
10231987175000168916200163100    000040119                    000401190000000000000109                     I0140119     30041900000000040003410000017N120319104700000000000103004190000000000000000000000000000000000000000100007253631773CARLOS EDUARDO IZIDORO DE OLIV          AVENIDA JOSE BRUMATTI N 3158, JARDIM DASLAVRAS      25015350GUARULHOS      SPUNIAO UMB DOS CULTOS AFRO BRAS    30041910 000249
