01REMESSA01COBRANCA       817800093673        União Umb dos Cultos Afro Bra341BANCO ITAU SA  291018                                                                                                                                                                                                                                                                                                      000001
10231987175000168817800093673    000033313                    000333130000000000000109                     I0133313     20121800000000400003410000017N291018104700000000000102012180000000000000000000000000000000000000000100082327378753GRACA MARIA BRUNO DE SOUZA SIL          RUA ACACIO TORRES                       OLINDA      26545500NILOPOLIS      RJUNIAO UMB DOS CULTOS AFRO BRAS    20121810 000002
10231987175000168817800093673    000033312                    000333120000000000000109                     I0133312     20121800000000380003410000017N291018104700000000000102012180000000000000000000000000000000000000000100033584486734DAGMAR ELIDE DA SILVA PEREIRA           RUA LOPO SARAIVA                        LARGO DO TAN22740220RIO DE JANEIRO RJUNIAO UMB DOS CULTOS AFRO BRAS    20121810 000003
10231987175000168817800093673    000033311                    000333110000000000000109                     I0133311     20121800000000380003410000017N291018104700000000000102012180000000000000000000000000000000000000000100009142845769MICHELE OAZEM MINEIRO                   RUA CARIOCA                             SAO BERNARDO26167210BELFORD ROXO   RJUNIAO UMB DOS CULTOS AFRO BRAS    20121810 000004
10231987175000168817800093673    000033310                    000333100000000000000109                     I0133310     20121800000000350003410000017N291018104700000000000102012180000000000000000000000000000000000000000100003547724732TANIA GOMES DE LIMA                     RUA AGAPANTO                            PARQUE PRIMA23830020ITAGUAI        RJUNIAO UMB DOS CULTOS AFRO BRAS    20121810 000005
10231987175000168817800093673    000033309                    000333090000000000000109                     I0133309     20121800000000350003410000017N291018104700000000000102012180000000000000000000000000000000000000000100063464470768ROBSON DE OLIVEIRA ELIZIARIO            RUA GARCIA REDONDO                      CACHAMBI    20775170RIO DE JANEIRO RJUNIAO UMB DOS CULTOS AFRO BRAS    20121810 000006
10231987175000168817800093673    000033308                    000333080000000000000109                     I0133308     20121800000000350003410000017N291018104700000000000102012180000000000000000000000000000000000000000100040557499704CARLOS ZOBERTO DA SILVA                 RUA GLAUCO                              PARQUE PAULI25261510DUQUE DE CAXIASRJUNIAO UMB DOS CULTOS AFRO BRAS    20121810 000007
10231987175000168817800093673    000033307                    000333070000000000000109                     I0133307     20121800000000400003410000017N291018104700000000000102012180000000000000000000000000000000000000000100013376872783ELIANE MENDES DA SILVA                  RUAPROJETADA G                          SANTA CRUZ  00000000RIO DE JANEIRO RJUNIAO UMB DOS CULTOS AFRO BRAS    20121810 000008
10231987175000168817800093673    000033306                    000333060000000000000109                     I0133306     20121800000000400003410000017N291018104700000000000102012180000000000000000000000000000000000000000100004412553701ROGERIO LUIS SOUZA                      RUA D PROJETADA                         SANTA CRUZ  23550570RIO DE JANEIRO RJUNIAO UMB DOS CULTOS AFRO BRAS    20121810 000009
10231987175000168817800093673    000033305                    000333050000000000000109                     I0133305     20121800000000350003410000017N291018104700000000000102012180000000000000000000000000000000000000000100089308956700COSME NEVES ARRUDA                      RUA SANTO AMARO                         GLORIA      22211230RIO DE JANEIRO RJUNIAO UMB DOS CULTOS AFRO BRAS    20121810 000010
10231987175000168817800093673    000033304                    000333040000000000000109                     I0133304     20121800000000380003410000017N291018104700000000000102012180000000000000000000000000000000000000000100034463399300MARIA ENOIA DE SOUSA CORREA             RUA: RODEZIA                            BANCARIO - I21910145RIO DE JANEIRO RJUNIAO UMB DOS CULTOS AFRO BRAS    20121810 000011
10231987175000168817800093673    000033303                    000333030000000000000109                     I0133303     20121800000000400003410000017N291018104700000000000102012180000000000000000000000000000000000000000100000101414722CELIA REGINA CARVALHO                   RUA FELIPE CAMARAO                      RETIRO      25680510PETROPOLIS     RJUNIAO UMB DOS CULTOS AFRO BRAS    20121810 000012
10231987175000168817800093673    000033302                    000333020000000000000109                     I0133302     20121800000000350003410000017N291018104700000000000102012180000000000000000000000000000000000000000100001558268758MARCO VALERIO RODRIGUES MONTEI          RUA JOAO CANDIDO                        VILA ROSALI 25510390RIO DE JANEIRO RJUNIAO UMB DOS CULTOS AFRO BRAS    20121810 000013
10231987175000168817800093673    000033301                    000333010000000000000109                     I0133301     20121800000000400003410000017N291018104700000000000102012180000000000000000000000000000000000000000100010587941758JOANES ANICETO JUNIOR                   RUA BETEL                               INHAUMA     21061020RIO DE JANEIRO RJUNIAO UMB DOS CULTOS AFRO BRAS    20121810 000014
10231987175000168817800093673    000033300                    000333000000000000000109                     I0133300     20121800000000400003410000017N291018104700000000000102012180000000000000000000000000000000000000000100002085972713ELIANE DOMINGOS DE SOUZA                RUA CAROBEIRA                           CINCO MARIA 23032110GUARATIBA      RJUNIAO UMB DOS CULTOS AFRO BRAS    20121810 000015
10231987175000168817800093673    000033299                    000332990000000000000109                     I0133299     20121800000000400003410000017N291018104700000000000102012180000000000000000000000000000000000000000100000848852702RODNEY MARQUES                          RUA PEREIRA LEITAO                      TURIACU     21550100RIO DE JANEIRO RJUNIAO UMB DOS CULTOS AFRO BRAS    20121810 000016
10231987175000168817800093673    000033298                    000332980000000000000109                     I0133298     20121800000000350003410000017N291018104700000000000102012180000000000000000000000000000000000000000100005328326711BARRIE BANGE PEREIRA                    RUA JORGE PAULO DE SOUZA MAIA           CONSELHEIRO 28635540NOVA FRIBURGO  RJUNIAO UMB DOS CULTOS AFRO BRAS    20121810 000017
10231987175000168817800093673    000033297                    000332970000000000000109                     I0133297     20121800000000400003410000017N291018104700000000000102012180000000000000000000000000000000000000000100008030521707MONICA MIRANDA DE BARROS                RUA CATULO CEARENSE                     ENGENHO DE D00000000RIO DE JANEIRO RJUNIAO UMB DOS CULTOS AFRO BRAS    20121810 000018
10231987175000168817800093673    000033296                    000332960000000000000109                     I0133296     20121800000000400003410000017N291018104700000000000102012180000000000000000000000000000000000000000100002101171767HELENA DE JESUS                         RUA JOAO ROMEIRO                        CASCADURA   21311000RIO DE JANEIRO RJUNIAO UMB DOS CULTOS AFRO BRAS    20121810 000019
10231987175000168817800093673    000033295                    000332950000000000000109                     I0133295     20121800000000350003410000017N291018104700000000000102012180000000000000000000000000000000000000000100032140649320ROSA ELENA ALVES DA COSTA               RUA: NILTON CORDEIRO                    MARE        21044052RIO DE JANEIRO RJUNIAO UMB DOS CULTOS AFRO BRAS    20121810 000020
10231987175000168817800093673    000033294                    000332940000000000000109                     I0133294     20121800000000380003410000017N291018104700000000000102012180000000000000000000000000000000000000000100001467028754ROSANE DE FREITAS SOUZA DA SIL          RUA: JACIRENDI                          COLEGIO     20545290RIO DE JANEIRO RJUNIAO UMB DOS CULTOS AFRO BRAS    20121810 000021
10231987175000168817800093673    000033293                    000332930000000000000109                     I0133293     20121800000000380003410000017N291018104700000000000102012180000000000000000000000000000000000000000100073943266753LAINE VERONICA ALVES MONTEIRO           RUA: PREFEITO XAVIER DA SILVEIRA        VILA SANTO A26294303DUQUE DE CAXIASRJUNIAO UMB DOS CULTOS AFRO BRAS    20121810 000022
10231987175000168817800093673    000033292                    000332920000000000000109                     I0133292     20121800000000350003410000017N291018104700000000000102012180000000000000000000000000000000000000000100000000000000NANCY CORREA DA SILVA                   RUA: DA SEPARACAO                       VILAR DO TEL25555620SAO JOAO DE MERRJUNIAO UMB DOS CULTOS AFRO BRAS    20121810 000023
10231987175000168817800093673    000033291                    000332910000000000000109                     I0133291     20121800000000350003410000017N291018104700000000000102012180000000000000000000000000000000000000000100008068599703CLEIDE JANE ROCHA CONTE                 RUA: C                                  PARQUE AMORI26185342BELFORD ROXO   RJUNIAO UMB DOS CULTOS AFRO BRAS    20121810 000024
10231987175000168817800093673    000033290                    000332900000000000000109                     I0133290     20121800000000380003410000017N291018104700000000000102012180000000000000000000000000000000000000000100016931588761IGOR RODRIGUES DA SILVA                 RUA: EMBAU                              PAVUNA      21535000RIO DE JANEIRO RJUNIAO UMB DOS CULTOS AFRO BRAS    20121810 000025
10231987175000168817800093673    000033289                    000332890000000000000109                     I0133289     20121800000000350003410000017N291018104700000000000102012180000000000000000000000000000000000000000100008379116720ALLAN SOUZA PEREIRA FERREIRA            BECO: DOS SONHOS                        SANTA CRUZ  23591400RIO DE JANEIRO RJUNIAO UMB DOS CULTOS AFRO BRAS    20121810 000026
10231987175000168817800093673    000033288                    000332880000000000000109                     I0133288     20121800000000350003410000017N291018104700000000000102012180000000000000000000000000000000000000000100001485344735JULIO CESAR PEREIRA AGRA                RUA: MANAUS                             REALENGO    21730050RIO DE JANEIRO RJUNIAO UMB DOS CULTOS AFRO BRAS    20121810 000027
10231987175000168817800093673    000033287                    000332870000000000000109                     I0133287     20121800000000350003410000017N291018104700000000000102012180000000000000000000000000000000000000000100007403387732MARCOS MAURICIO DOS SANTOS COS          RUA: BOA VISTA                          CARAMUJO    24140460NITEROI        RJUNIAO UMB DOS CULTOS AFRO BRAS    20121810 000028
10231987175000168817800093673    000033286                    000332860000000000000109                     I0133286     20121800000000400003410000017N291018104700000000000102012180000000000000000000000000000000000000000100048639389772ONESIO JOSINO DOS SANTOS                RUA: VINTE E DOIS                       BRISA MAR   23825587ITAGUAI        RJUNIAO UMB DOS CULTOS AFRO BRAS    20121810 000029
10231987175000168817800093673    000033285                    000332850000000000000109                     I0133285     20121800000000380003410000017N291018104700000000000102012180000000000000000000000000000000000000000100099447690700CARLA LESSA QUINTANILHA VASCON          RUA: BORBOREMA                          MADUREIRA   21360150RIO DE JANEIRO RJUNIAO UMB DOS CULTOS AFRO BRAS    20121810 000030
10231987175000168817800093673    000033284                    000332840000000000000109                     I0133284     20121800000000350003410000017N291018104700000000000102012180000000000000000000000000000000000000000100008566591771TAISSA RIBEIRO PETRA MELLO              RUA CLARICE ROSA DA COSTA               JARDIM INTER24900830MARICA         RJUNIAO UMB DOS CULTOS AFRO BRAS    20121810 000031
10231987175000168817800093673    000033283                    000332830000000000000109                     I0133283     20121800000000350003410000017N291018104700000000000102012180000000000000000000000000000000000000000100010089898788MONICA REGINA ELIAS DE SOUZA M          ESTRADA: DA BOA SORTE                   MAUA        25924260MAGE           RJUNIAO UMB DOS CULTOS AFRO BRAS    20121810 000032
10231987175000168817800093673    000033282                    000332820000000000000109                     I0133282     20121800000000400003410000017N291018104700000000000102012180000000000000000000000000000000000000000100009079903110FLAVIO JANOVICCI                        RUA: REGENTE LIMA E SILVA               MARECHAL HER21610230RIO DE JANEIRO RJUNIAO UMB DOS CULTOS AFRO BRAS    20121810 000033
10231987175000168817800093673    000033281                    000332810000000000000109                     I0133281     20121800000000400003410000017N291018104700000000000102012180000000000000000000000000000000000000000100009937356490TARCISIO DE OLIVEIRA MELO               RUA: ALCIDES MAIA                       BENTO RIBEIR21550560RIO DE JANEIRO RJUNIAO UMB DOS CULTOS AFRO BRAS    20121810 000034
10231987175000168817800093673    000033280                    000332800000000000000109                     I0133280     20121800000000380003410000017N291018104700000000000102012180000000000000000000000000000000000000000100014165634743GLAUBER VINICIUS DE ALMEIDA BA          RUA SAO CARLOS                          ESTACIO     20250052RIO DE JANEIRO RJUNIAO UMB DOS CULTOS AFRO BRAS    20121810 000035
10231987175000168817800093673    000033279                    000332790000000000000109                     I0133279     20121800000000380003410000017N291018104700000000000102012180000000000000000000000000000000000000000100095906746749KATIA LOPES SOARES                      ESTRADA PAU DA FOME                     TAQUARA     22723347RIO DE JANEIRO RJUNIAO UMB DOS CULTOS AFRO BRAS    20121810 000036
10231987175000168817800093673    000033278                    000332780000000000000109                     I0133278     20121800000000380003410000017N291018104700000000000102012180000000000000000000000000000000000000000100012303421764PEDRO JONAS ARAUJO CORDEIRO             RUA JOSE LIMA DA SILVA                  SANTA RITA  26185610BELFORD ROXO   RJUNIAO UMB DOS CULTOS AFRO BRAS    20121810 000037
10231987175000168817800093673    000033277                    000332770000000000000109                     I0133277     20121800000000350003410000017N291018104700000000000102012180000000000000000000000000000000000000000100000000000000REINALDO FERREIRA DOS SANTOS            RUA LESTE                               JARDIM PARAI26297294NOVA IGUACU    RJUNIAO UMB DOS CULTOS AFRO BRAS    20121810 000038
10231987175000168817800093673    000033276                    000332760000000000000109                     I0133276     20121800000000350003410000017N291018104700000000000102012180000000000000000000000000000000000000000100003413776789CRISTIANE DE SOUZA GALANTE INA          RUA SABIA                               SITIO RETIRO26167500SAO JOAO DE MERRJUNIAO UMB DOS CULTOS AFRO BRAS    20121810 000039
10231987175000168817800093673    000033275                    000332750000000000000109                     I0133275     20121800000000380003410000017N291018104700000000000102012180000000000000000000000000000000000000000100085965871791VALERIA MENDES BARBOSA DOS SAN          RUA SAO PATRICIO                        JARDIM NOVA 26265540NOVA IGUACU    RJUNIAO UMB DOS CULTOS AFRO BRAS    20121810 000040
10231987175000168817800093673    000033274                    000332740000000000000109                     I0133274     20121800000000380003410000017N291018104700000000000102012180000000000000000000000000000000000000000100008323642745ROSEMERI DE SOUZA COUTINHO              RUA VERA LUCIA                          CABUCU      26291452NOVA IGUACU    RJUNIAO UMB DOS CULTOS AFRO BRAS    20121810 000041
10231987175000168817800093673    000033273                    000332730000000000000109                     I0133273     20121800000000380003410000017N291018104700000000000102012180000000000000000000000000000000000000000100007147220730LUIS CARLOS DA COSTA OLIVEIRA           RUA MINAS GERAIS                        CAMPO ALEGRE26292141NOVA IGUACU    RJUNIAO UMB DOS CULTOS AFRO BRAS    20121810 000042
10231987175000168817800093673    000033272                    000332720000000000000109                     I0133272     20121800000000380003410000017N291018104700000000000102012180000000000000000000000000000000000000000100001862512701WASHINGTON SACERDOTE DAS NEVES          RUA IPOMEIA                             PARQUE SAO V26172040RIO DE JANEIRO RJUNIAO UMB DOS CULTOS AFRO BRAS    20121810 000043
10231987175000168817800093673    000033271                    000332710000000000000109                     I0133271     20121800000000400003410000017N291018104700000000000102012180000000000000000000000000000000000000000100036139050782VIRGINIA DANTAS FERREIRA                AVENIDA BEIRA                           COROA GRANDE23821310RIO DE JANEIRO RJUNIAO UMB DOS CULTOS AFRO BRAS    20121810 000044
10231987175000168817800093673    000033270                    000332700000000000000109                     I0133270     20121800000000350003410000017N291018104700000000000102012180000000000000000000000000000000000000000100005749191710DANIELE BATISTA DE ASSIS                RUA MANOEL MACHADO                      VAZ LOBO    21361090RIO DE JANEIRO RJUNIAO UMB DOS CULTOS AFRO BRAS    20121810 000045
10231987175000168817800093673    000033269                    000332690000000000000109                     I0133269     20121800000000380003410000017N291018104700000000000102012180000000000000000000000000000000000000000100070550891749CELSO POYDO MENDES                      RUA: SOUZA FREITAS                      PILARES     20760710RIO DE JANEIRO RJUNIAO UMB DOS CULTOS AFRO BRAS    20121810 000046
10231987175000168817800093673    000033268                    000332680000000000000109                     I0133268     20121800000000400003410000017N291018104700000000000102012180000000000000000000000000000000000000000100001493061795MARCIO NUNES BARBOSA                    RUA BELA                                SAO CRISTOVA20930380RIO DE JANEIRO RJUNIAO UMB DOS CULTOS AFRO BRAS    20121810 000047
10231987175000168817800093673    000033267                    000332670000000000000109                     I0133267     20121800000000300003410000017N291018104700000000000102012180000000000000000000000000000000000000000100003389142770VANIA VIEIRA                            RUA NAMUR                               VILA VALQUEI21330600RIO DE JANEIRO RJUNIAO UMB DOS CULTOS AFRO BRAS    20121810 000048
10231987175000168817800093673    000033266                    000332660000000000000109                     I0133266     20121800000000350003410000017N291018104700000000000102012180000000000000000000000000000000000000000100008350095725LUIZ LUCIANO ADAO                       RUA ALAGOAS                             SANTA CRUZ D25255070DUQUE DE CAXIASRJUNIAO UMB DOS CULTOS AFRO BRAS    20121810 000049
10231987175000168817800093673    000033265                    000332650000000000000109                     I0133265     20121800000000400003410000017N291018104700000000000102012180000000000000000000000000000000000000000100001359669736JUCILENE DOS SANTOS GALVAO              RUA ALICE FREITAS                       VICENTE DE C21371220RIO DE JANEIRO RJUNIAO UMB DOS CULTOS AFRO BRAS    20121810 000050
10231987175000168817800093673    000033264                    000332640000000000000109                     I0133264     20121800000000350003410000017N291018104700000000000102012180000000000000000000000000000000000000000100007202542722MIRLA SUSANI DA SILVA SALES             RUA: DOUTOR FREDERICO                   LAGOINHA    26296414NOVA IGUACU    RJUNIAO UMB DOS CULTOS AFRO BRAS    20121810 000051
10231987175000168817800093673    000033263                    000332630000000000000109                     I0133263     20121800000000350003410000017N291018104700000000000102012180000000000000000000000000000000000000000100034727272768JOSEFINA AGUIAR CASTRO                  RUA DOUTOR NELSON FERNANDES             PARQUE CAPIV25900000DUQUE DE CAXIASRJUNIAO UMB DOS CULTOS AFRO BRAS    20121810 000052
10231987175000168817800093673    000033262                    000332620000000000000109                     I0133262     20121800000000350003410000017N291018104700000000000102012180000000000000000000000000000000000000000100068117850710GILCLEIDE DOS SANTOS GOMES              AVENIDA: JOAO VINTE E TRES              SANTA CRUZ  23560352RIO DE JANEIRO RJUNIAO UMB DOS CULTOS AFRO BRAS    20121810 000053
10231987175000168817800093673    000033261                    000332610000000000000109                     I0133261     20121800000000350003410000017N291018104700000000000102012180000000000000000000000000000000000000000100008283050800JOSE RICARDO DE MOURA                   RUA TENENTE SILVINO                     CERAMICA    26030126NOVA IGUACU    RJUNIAO UMB DOS CULTOS AFRO BRAS    20121810 000054
10231987175000168817800093673    000033260                    000332600000000000000109                     I0133260     20121800000000350003410000017N291018104700000000000102012180000000000000000000000000000000000000000100008888177701GUILHERME DE ALCANTARA SEABRA           RUA: IGARATA                            MARECHAL HER21000000RIO DE JANEIRO RJUNIAO UMB DOS CULTOS AFRO BRAS    20121810 000055
10231987175000168817800093673    000033259                    000332590000000000000109                     I0133259     20121800000000350003410000017N291018104700000000000102012180000000000000000000000000000000000000000100016840152782DARIO JOSE DA SILVA FILHO               RUA: PEDRO II                           VILA IBIRAPI23512530RIO DE JANEIRO RJUNIAO UMB DOS CULTOS AFRO BRAS    20121810 000056
10231987175000168817800093673    000033258                    000332580000000000000109                     I0133258     20121800000000350003410000017N291018104700000000000102012180000000000000000000000000000000000000000100075164779749IVANILDO FURTADO DA SILVA               RUA: LUIZ DE CASTRO                     PILARES     21760732RIO DE JANEIRO RJUNIAO UMB DOS CULTOS AFRO BRAS    20121810 000057
10231987175000168817800093673    000033257                    000332570000000000000109                     I0133257     20121800000000350003410000017N291018104700000000000102012180000000000000000000000000000000000000000100002520191724ANA LUCIA MENEZES DO NASCIMENT          RUA: VEREADOR FRANCISCO NUNES SILVA     OLINA       26545060NILOPOLIS      RJUNIAO UMB DOS CULTOS AFRO BRAS    20121810 000058
10231987175000168817800093673    000033256                    000332560000000000000109                     I0133256     20121800000000350003410000017N291018104700000000000102012180000000000000000000000000000000000000000100002098051700FELIPE LOPES DA COSTA CHAVES            RUA: JOSE PINTO FAUSTINO                IPIRANGA    26293441NOVA IGUACU    RJUNIAO UMB DOS CULTOS AFRO BRAS    20121810 000059
10231987175000168817800093673    000033255                    000332550000000000000109                     I0133255     20121800000000380003410000017N291018104700000000000102012180000000000000000000000000000000000000000100003134182769SANDRA HELENA DA SILVA                  RUA MARIA MACHADO PANZA                 PACHECO     24732200SAO GONCALO    RJUNIAO UMB DOS CULTOS AFRO BRAS    20121810 000060
10231987175000168817800093673    000033254                    000332540000000000000109                     I0133254     20121800000000350003410000017N291018104700000000000102012180000000000000000000000000000000000000000100012119575789RAYKA DA SILVA BATISTA                  RUA PARAISO                             PIABETA     25931638MAGE           RJUNIAO UMB DOS CULTOS AFRO BRAS    20121810 000061
10231987175000168817800093673    000033253                    000332530000000000000109                     I0133253     20121800000000400003410000017N291018104700000000000102012180000000000000000000000000000000000000000100015041746745ANAISE SOARES DO CARMO                  RUA FRANCISCO ALVES                     SEPETIBA    23542120RIO DE JANEIRO RJUNIAO UMB DOS CULTOS AFRO BRAS    20121810 000062
10231987175000168817800093673    000033252                    000332520000000000000109                     I0133252     20121800000000350003410000017N291018104700000000000102012180000000000000000000000000000000000000000100001105664759NANCI GOMES BORGES PINTO                RUA: ORLANDO FRANCISCO JUNIOR           CAMPO LINDO 23898435SEROPEDICA     RJUNIAO UMB DOS CULTOS AFRO BRAS    20121810 000063
10231987175000168817800093673    000033251                    000332510000000000000109                     I0133251     20121800000000400003410000017N291018104700000000000102012180000000000000000000000000000000000000000100053177827733CREUZA FREITAS DOS SANTOS               RUA HERMES DA SILVA                     SANTA CRUZ  23550155RIO DE JANEIRO RJUNIAO UMB DOS CULTOS AFRO BRAS    20121810 000064
10231987175000168817800093673    000033250                    000332500000000000000109                     I0133250     20121800000000350003410000017N291018104700000000000102012180000000000000000000000000000000000000000100001605990752MARCO ANTONIO DA SILVA                  ESTRADA DA SAUDADE                      ESTRADA DA S25610105PETROPOLIS     RJUNIAO UMB DOS CULTOS AFRO BRAS    20121810 000065
10231987175000168817800093673    000033249                    000332490000000000000109                     I0133249     20121800000000400003410000017N291018104700000000000102012180000000000000000000000000000000000000000100002414887702MARGARETH MARIA DA SILVA GONCA          RUA: SEBASTIAO DE CARVALHO              RAMOS       21061670RIO DE JANEIRO RJUNIAO UMB DOS CULTOS AFRO BRAS    20121810 000066
10231987175000168817800093673    000033248                    000332480000000000000109                     I0133248     20121800000000400003410000017N291018104700000000000102012180000000000000000000000000000000000000000100066645352700NILZA BELISARIO DAMIAO                  RUA ESPERANCA                           JARDIM PARAI00000000RIO DE JANEIRO RJUNIAO UMB DOS CULTOS AFRO BRAS    20121810 000067
10231987175000168817800093673    000033247                    000332470000000000000109                     I0133247     20121800000000400003410000017N291018104700000000000102012180000000000000000000000000000000000000000100009572644700FABIO DE SOUZA BARBOSA                  RUA DA ESPERANCA                        JARDIM PARAI00000000RIO DE JANEIRO RJUNIAO UMB DOS CULTOS AFRO BRAS    20121810 000068
10231987175000168817800093673    000033246                    000332460000000000000109                     I0133246     20121800000000350003410000017N291018104700000000000102012180000000000000000000000000000000000000000100067559697704LENILSON PEREIRA DA COSTA               TRAVESSA MANUEL ANGELO                  AREAL       24800566ITABORAI       RJUNIAO UMB DOS CULTOS AFRO BRAS    20121810 000069
10231987175000168817800093673    000033245                    000332450000000000000109                     I0133245     20121800000000350003410000017N291018104700000000000102012180000000000000000000000000000000000000000100001786216760WASHINGTON FERNANDO DA CONCEIC          RUA DONA ELVIRA                         NOVO HORIZON25937112MAGE           RJUNIAO UMB DOS CULTOS AFRO BRAS    20121810 000070
10231987175000168817800093673    000033244                    000332440000000000000109                     I0133244     20121800000000350003410000017N291018104700000000000102012180000000000000000000000000000000000000000100053860225120OTILIA REGINA DE ALENCAR                RUA PROJETADA                           VERIDIANA   00000000RIO DE JANEIRO RJUNIAO UMB DOS CULTOS AFRO BRAS    20121810 000071
10231987175000168817800093673    000033243                    000332430000000000000109                     I0133243     20121800000000350003410000017N291018104700000000000102012180000000000000000000000000000000000000000100003538359784MARCIO SANTANA DA ROCHA                 ESTRADA DA CAPOEIRA GRANDE              GUARATIBA   00000000RIO DE JANEIRO RJUNIAO UMB DOS CULTOS AFRO BRAS    20121810 000072
10231987175000168817800093673    000033242                    000332420000000000000109                     I0133242     20121800000000350003410000017N291018104700000000000102012180000000000000000000000000000000000000000100092802737791CARMEN DEA NOGUEIRA DIAS                AVENIDA MACHADO DE ASSIS                VILA IBIRAPI23811820ITAGUAI        RJUNIAO UMB DOS CULTOS AFRO BRAS    20121810 000073
10231987175000168817800093673    000033241                    000332410000000000000109                     I0133241     20121800000000350003410000017N291018104700000000000102012180000000000000000000000000000000000000000100045965986734ELISABETH BARRETO DO COUTO ALV          RUA SAMUEL GUIMARAES                    SAO FRANCISC22270000RIO DE JANEIRO RJUNIAO UMB DOS CULTOS AFRO BRAS    20121810 000074
10231987175000168817800093673    000033240                    000332400000000000000109                     I0133240     20121800000000350003410000017N291018104700000000000102012180000000000000000000000000000000000000000100007368804708CARLOS HENRIQUE DE OLIVEIRA             RUA: SESSENTA E TRES                    CAMPO GRANDE23097240RIO DE JANEIRO RJUNIAO UMB DOS CULTOS AFRO BRAS    20121810 000075
10231987175000168817800093673    000033239                    000332390000000000000109                     I0133239     20121800000000350003410000017N291018104700000000000102012180000000000000000000000000000000000000000100000617310726JOSE HENRIQUE PEREIRA DO NASCI          RUA: ZELINHO DE SOUZA                   CHACARA RIO 25230484DUQUE DE CAXIASRJUNIAO UMB DOS CULTOS AFRO BRAS    20121810 000076
10231987175000168817800093673    000033238                    000332380000000000000109                     I0133238     20121800000000400003410000017N291018104700000000000102012180000000000000000000000000000000000000000100014328358740SILAS BARBOSA DE SOUZA                  ESTRADA REAL DE MAUA                    JARDIM DA PA25900684RIO DE JANEIRO RJUNIAO UMB DOS CULTOS AFRO BRAS    20121810 000077
10231987175000168817800093673    000033237                    000332370000000000000109                     I0133237     20121800000000350003410000017N291018104700000000000102012180000000000000000000000000000000000000000100099099616449JANAINA BORGES DA SILVA                 RUA: PAULO JOSE MAHFUD                  VARGEM PEQUE22783395RIO DE JANEIRO RJUNIAO UMB DOS CULTOS AFRO BRAS    20121810 000078
10231987175000168817800093673    000033236                    000332360000000000000109                     I0133236     20121800000000350003410000017N291018104700000000000102012180000000000000000000000000000000000000000100074641980772IRENE MARQUES DA MOTA                   RUA: PORTO CAMARGO                      JARDIM MARAV23033170GUARATIBA      RJUNIAO UMB DOS CULTOS AFRO BRAS    20121810 000079
10231987175000168817800093673    000033235                    000332350000000000000109                     I0133235     20121800000000350003410000017N291018104700000000000102012180000000000000000000000000000000000000000100005818072789MARLUCE MARIA DE OLIVEIRA               RUA PAHAND                              SANTA TEREZA26193500BELFORD ROXO   RJUNIAO UMB DOS CULTOS AFRO BRAS    20121810 000080
10231987175000168817800093673    000033234                    000332340000000000000109                     I0133234     20121800000000350003410000017N291018104700000000000102012180000000000000000000000000000000000000000100052873587687MARIA AMELIA DOMINGUES REZENDE          RUA: DOS VERANISTAS                     GUARAPARI   29000000ESPIRITO SANTO ESUNIAO UMB DOS CULTOS AFRO BRAS    20121810 000081
10231987175000168817800093673    000033233                    000332330000000000000109                     I0133233     20121800000000350003410000017N291018104700000000000102012180000000000000000000000000000000000000000100072610344791SUELY BARROS DE MELO                    ESTRADA: GUANDU DO SENA                 CAMPO GRANDE23097220RIO DE JANEIRO RJUNIAO UMB DOS CULTOS AFRO BRAS    20121810 000082
10231987175000168817800093673    000033232                    000332320000000000000109                     I0133232     20121800000000350003410000017N291018104700000000000102012180000000000000000000000000000000000000000100010836647785FERNANDO DOS SANTOS DO NORTE            RUA: ITAPAGE                            JARDIM SAO G26381429QUEIMADOS      RJUNIAO UMB DOS CULTOS AFRO BRAS    20121810 000083
10231987175000168817800093673    000033231                    000332310000000000000109                     I0133231     20121800000000350003410000017N291018104700000000000102012180000000000000000000000000000000000000000100085748781700NELSON TEIXEIRA RUI FILHO               RUA CAROLINA AMADO                      IRAJA       21361320RIO DE JANEIRO RJUNIAO UMB DOS CULTOS AFRO BRAS    20121810 000084
10231987175000168817800093673    000033230                    000332300000000000000109                     I0133230     20121800000000350003410000017N291018104700000000000102012180000000000000000000000000000000000000000100081476191700IRLENE DE ALMEIDA LOPES                 RUA FERNANDEZ GAMA                      REALENGO    21760030RIO DE JANEIRO RJUNIAO UMB DOS CULTOS AFRO BRAS    20121810 000085
10231987175000168817800093673    000033229                    000332290000000000000109                     I0133229     20121800000000350003410000017N291018104700000000000102012180000000000000000000000000000000000000000100029759030730JOSE ROBERTO MELLO COIMBRA              RUA SALVADOR SABATE                     REALENGO    21760020RIO DE JANEIRO RJUNIAO UMB DOS CULTOS AFRO BRAS    20121810 000086
10231987175000168817800093673    000033228                    000332280000000000000109                     I0133228     20121800000000400003410000017N291018104700000000000102012180000000000000000000000000000000000000000100093265883787ROSANGELA BARBOSA DE CARVALHO           CAMINHO DOS TELEGRAFOS                  SENADOR CAMA21832415RIO DE JANEIRO RJUNIAO UMB DOS CULTOS AFRO BRAS    20121810 000087
10231987175000168817800093673    000033227                    000332270000000000000109                     I0133227     20121800000000350003410000017N291018104700000000000102012180000000000000000000000000000000000000000100010212584740TIAGO VEROL DE SOUZA                    RUA: REGISTRO                           SENADOR CAMA21832006RIO DE JANEIRO RJUNIAO UMB DOS CULTOS AFRO BRAS    20121810 000088
10231987175000168817800093673    000033226                    000332260000000000000109                     I0133226     20121800000000350003410000017N291018104700000000000102012180000000000000000000000000000000000000000100008768685700RENATA BRUNO MACHADO SANTOS             RUA CLIVIA                              BENTO RIBEIR21331530RIO DE JANEIRO RJUNIAO UMB DOS CULTOS AFRO BRAS    20121810 000089
10231987175000168817800093673    000033225                    000332250000000000000109                     I0133225     20121800000000350003410000017N291018104700000000000102012180000000000000000000000000000000000000000100039869253768MARIA DE LOURDES FERREIRA               RUA GERSON TELES RIBEIRO                CENTRO      26193590DUQUE DE CAXIASRJUNIAO UMB DOS CULTOS AFRO BRAS    20121810 000090
10231987175000168817800093673    000033224                    000332240000000000000109                     I0133224     20121800000000350003410000017N291018104700000000000102012180000000000000000000000000000000000000000100001860329780VIVIANE DE PAULA AGNELO                 RUA DA VITORIA                          PARAISO     26297138NOVA IGUACU    RJUNIAO UMB DOS CULTOS AFRO BRAS    20121810 000091
10231987175000168817800093673    000033223                    000332230000000000000109                     I0133223     20121800000000350003410000017N291018104700000000000102012180000000000000000000000000000000000000000100007416975727ANGELICA AMARAL GOTELIP BARBOS          RUA MARECHAL MARCIANO - TRAVESSA 120    REALENGO    21735652RIO DE JANEIRO RJUNIAO UMB DOS CULTOS AFRO BRAS    20121810 000092
10231987175000168817800093673    000033222                    000332220000000000000109                     I0133222     20121800000000350003410000017N291018104700000000000102012180000000000000000000000000000000000000000100009350031779TAIS AZEVEDO DOS SANTOS CAMPOS          RUA: CLOTILDE DE OLIVEIRA RODRIGUES     FONSECA     24120170NITEROI        RJUNIAO UMB DOS CULTOS AFRO BRAS    20121810 000093
10231987175000168817800093673    000033221                    000332210000000000000109                     I0133221     20121800000000350003410000017N291018104700000000000102012180000000000000000000000000000000000000000100009329422705FABIO SANTANA DE ANDRADE                RUA: LUIS BRAILE                        VILA SANTA M00000000RIO DE JANEIRO RJUNIAO UMB DOS CULTOS AFRO BRAS    20121810 000094
10231987175000168817800093673    000033220                    000332200000000000000109                     I0133220     20121800000000350003410000017N291018104700000000000102012180000000000000000000000000000000000000000100040084485787VERA LUCIA DE FREITAS GEDORINO          RUA: GUINEZA                            ENGENHO DE D20755330RIO DE JANEIRO RJUNIAO UMB DOS CULTOS AFRO BRAS    20121810 000095
10231987175000168817800093673    000033219                    000332190000000000000109                     I0133219     20121800000000350003410000017N291018104700000000000102012180000000000000000000000000000000000000000100009297297730FLAVIO JOAQUIM DOS SANTOS               RUA: SAO PAULO                          PALMARES    23585800RIO DE JANEIRO RJUNIAO UMB DOS CULTOS AFRO BRAS    20121810 000096
10231987175000168817800093673    000033218                    000332180000000000000109                     I0133218     20121800000000350003410000017N291018104700000000000102012180000000000000000000000000000000000000000100005283706721LEVY ANDRE ASSIS FERREIRA DA S          TRAVESSA SANTO ANTONIO                  MARECHAL HER21557190RIO DE JANEIRO RJUNIAO UMB DOS CULTOS AFRO BRAS    20121810 000097
10231987175000168817800093673    000033217                    000332170000000000000109                     I0133217     20121800000000350003410000017N291018104700000000000102012180000000000000000000000000000000000000000100010440702771AMANDA APARECIDA AZEVEDO CARDO          RUA IVONETE                             CONJUNTO SAN00000000RIO DE JANEIRO RJUNIAO UMB DOS CULTOS AFRO BRAS    20121810 000098
10231987175000168817800093673    000033216                    000332160000000000000109                     I0133216     20121800000000350003410000017N291018104700000000000102012180000000000000000000000000000000000000000100011709590775JOYCE MARA PINHEIRO DA SILVA            RUA SILVIO TIBIRICA                     TURIACU     21540200RIO DE JANEIRO RJUNIAO UMB DOS CULTOS AFRO BRAS    20121810 000099
10231987175000168817800093673    000033215                    000332150000000000000109                     I0133215     20121800000000350003410000017N291018104700000000000102012180000000000000000000000000000000000000000100014963009714MICHELLE DA SILVA SOARES                RUA MINAS GERAIS                        PIABETA     25935525MAGE           RJUNIAO UMB DOS CULTOS AFRO BRAS    20121810 000100
10231987175000168817800093673    000033214                    000332140000000000000109                     I0133214     20121800000000350003410000017N291018104700000000000102012180000000000000000000000000000000000000000100002305172770VALDIRENE ALBUQUERQUE MARCIEL           RUA GUARAGUATATUBA                      VILA ROSARIO25030040DUQUE DE CAXIASRJUNIAO UMB DOS CULTOS AFRO BRAS    20121810 000101
10231987175000168817800093673    000033213                    000332130000000000000109                     I0133213     20121800000000350003410000017N291018104700000000000102012180000000000000000000000000000000000000000100000213766701ROSIVANIA CRUZ DA SILVA                 RUA ERNANI DE BRITO                     SEPETIBA    23535131RIO DE JANEIRO RJUNIAO UMB DOS CULTOS AFRO BRAS    20121810 000102
10231987175000168817800093673    000033212                    000332120000000000000109                     I0133212     20121800000000350003410000017N291018104700000000000102012180000000000000000000000000000000000000000100005170892705GILSON PINTO DE SOUZA                   RUA: DOUTOR PIRAGIBE                    SANTO CRISTO20220160RIO DE JANEIRO RJUNIAO UMB DOS CULTOS AFRO BRAS    20121810 000103
10231987175000168817800093673    000033211                    000332110000000000000109                     I0133211     20121800000000400003410000017N291018104700000000000102012180000000000000000000000000000000000000000100085737437787NIVALDA PIRES RUFINO                    RUA: MARIO CARPENTER                    ABOLICAO    20755065RIO DE JANEIRO RJUNIAO UMB DOS CULTOS AFRO BRAS    20121810 000104
10231987175000168817800093673    000033210                    000332100000000000000109                     I0133210     20121800000000400003410000017N291018104700000000000102012180000000000000000000000000000000000000000100059622091762ALDA GOMES DA SILVA                     RUA: VILA DOZE                          JARDIM PALMA23066186RIO DE JANEIRO RJUNIAO UMB DOS CULTOS AFRO BRAS    20121810 000105
10231987175000168817800093673    000033209                    000332090000000000000109                     I0133209     20121800000000350003410000017N291018104700000000000102012180000000000000000000000000000000000000000100005380679773ROBERTO DE OLIVEIRA RIBEIRO JU          RUA VINTE E TRES                        SANTA CRUZ  23500000RIO DE JANEIRO RJUNIAO UMB DOS CULTOS AFRO BRAS    20121810 000106
10231987175000168817800093673    000033208                    000332080000000000000109                     I0133208     20121800000000350003410000017N291018104700000000000102012180000000000000000000000000000000000000000100006485913793IASMIM SANTANA DA SILVA DE OLI          ILHA DE ITACURUCA                       PRAIA GRANDE23860000RIO DE JANEIRO RJUNIAO UMB DOS CULTOS AFRO BRAS    20121810 000107
10231987175000168817800093673    000033207                    000332070000000000000109                     I0133207     20121800000000350003410000017N291018104700000000000102012180000000000000000000000000000000000000000100052889378772ANGELA MARIA DA SILVA ANDRADE           RUA WILSON GIL DA MATTA                 CENTRO      25515101SAO JOAO DE MERRJUNIAO UMB DOS CULTOS AFRO BRAS    20121810 000108
10231987175000168817800093673    000033206                    000332060000000000000109                     I0133206     20121800000000350003410000017N291018104700000000000102012180000000000000000000000000000000000000000100010486021769SIDNEY RODRIGUES DA SILVA JUNI          RUA DAS VIDEIRAS                        MORADA VERDE23065520PACIENCIA      RJUNIAO UMB DOS CULTOS AFRO BRAS    20121810 000109
10231987175000168817800093673    000033205                    000332050000000000000109                     I0133205     20121800000000350003410000017N291018104700000000000102012180000000000000000000000000000000000000000100001244562785LUIS CARLOS RIBEIRO                     RUA NEIDE AFONSO                        SHANGRILA RO26150020BELFORD ROXO   RJUNIAO UMB DOS CULTOS AFRO BRAS    20121810 000110
10231987175000168817800093673    000033204                    000332040000000000000109                     I0133204     20121800000000350003410000017N291018104700000000000102012180000000000000000000000000000000000000000100003256338780REGINALDO ROSA DA SILVA                 RUA PAULO AFONSO                        IPIRANGA ALI26293381NOVA IGUACU    RJUNIAO UMB DOS CULTOS AFRO BRAS    20121810 000111
10231987175000168817800093673    000033203                    000332030000000000000109                     I0133203     20121800000000350003410000017N291018104700000000000102012180000000000000000000000000000000000000000100004474665775REGINALDO RAMOS DA SILVA                RUA JULIO DE CASTILHOS                  JARDIM ROTSE25270210DUQUE DE CAXIASRJUNIAO UMB DOS CULTOS AFRO BRAS    20121810 000112
10231987175000168817800093673    000033202                    000332020000000000000109                     I0133202     20121800000000400003410000017N291018104700000000000102012180000000000000000000000000000000000000000100041998839753MARIA HELENA FERREIRA DA SILVA          RUA J                                   SANTA CRUZ  23595100RIO DE JANEIRO RJUNIAO UMB DOS CULTOS AFRO BRAS    20121810 000113
10231987175000168817800093673    000033201                    000332010000000000000109                     I0133201     20121800000000350003410000017N291018104700000000000102012180000000000000000000000000000000000000000100062788396791SERGIO LUCAS DE SOUZA                   TRAVESSA CARLOS XAVIER                  MADUREIRA   21310010RIO DE JANEIRO RJUNIAO UMB DOS CULTOS AFRO BRAS    20121810 000114
10231987175000168817800093673    000033200                    000332000000000000000109                     I0133200     20121800000000350003410000017N291018104700000000000102012180000000000000000000000000000000000000000100058691200715CLARICE ROSANE FELIPE CARNEIRO          RUA MARIA PAULINA BIVAR                 HONORIO GURG21511300RIO DE JANEIRO RJUNIAO UMB DOS CULTOS AFRO BRAS    20121810 000115
10231987175000168817800093673    000033199                    000331990000000000000109                     I0133199     20121800000000350003410000017N291018104700000000000102012180000000000000000000000000000000000000000100000893865745MONICA DE PONTES                        TRAVESSA OLINDA SANTOS                  TURIACU     21540340RIO DE JANEIRO RJUNIAO UMB DOS CULTOS AFRO BRAS    20121810 000116
10231987175000168817800093673    000033198                    000331980000000000000109                     I0133198     20121800000000350003410000017N291018104700000000000102012180000000000000000000000000000000000000000100093521987787KATIA CRISTINA DANNEMBERG               ESTRADA DO PORTINHO                     IRAJA       21235400RIO DE JANEIRO RJUNIAO UMB DOS CULTOS AFRO BRAS    20121810 000117
10231987175000168817800093673    000033197                    000331970000000000000109                     I0133197     20121800000000350003410000017N291018104700000000000102012180000000000000000000000000000000000000000100093678754791ROSINETE MARIA DE OLIVEIRA              RUA ANGOLA                              CAPIVARI    25145080DUQUE DE CAXIASRJUNIAO UMB DOS CULTOS AFRO BRAS    20121810 000118
10231987175000168817800093673    000033196                    000331960000000000000109                     I0133196     20121800000000350003410000017N291018104700000000000102012180000000000000000000000000000000000000000100009289778709HELAINE FRANKLIN TEIXEIRA               RUA CACHOEIRA ALTA                      JARDIM MARAV23031070CAMPO GRANDE   RJUNIAO UMB DOS CULTOS AFRO BRAS    20121810 000119
10231987175000168817800093673    000033195                    000331950000000000000109                     I0133195     20121800000000350003410000017N291018104700000000000102012180000000000000000000000000000000000000000100069852219715GREIZI DE CARVALHO CARVALHAES           RUA BUENOS AIRES                        JARDIM PERNA26275390NOVA IGUACU    RJUNIAO UMB DOS CULTOS AFRO BRAS    20121810 000120
10231987175000168817800093673    000033194                    000331940000000000000109                     I0133194     20121800000000350003410000017N291018104700000000000102012180000000000000000000000000000000000000000100001096953722CLAUDIA GUIMARAES                       ESTRADA GUANDU DO SENA - RUA 29         CAMPO GRANDE23091220RIO DE JANEIRO RJUNIAO UMB DOS CULTOS AFRO BRAS    20121810 000121
10231987175000168817800093673    000033193                    000331930000000000000109                     I0133193     20121800000000350003410000017N291018104700000000000102012180000000000000000000000000000000000000000100080091229715MARCO ANTONIO DE OLIVEIRA TEIX          RUA QUARENTA E UM                       JARDIM NOSSA23097260CAMPO GRANDE   RJUNIAO UMB DOS CULTOS AFRO BRAS    20121810 000122
10231987175000168817800093673    000033192                    000331920000000000000109                     I0133192     20121800000000350003410000017N291018104700000000000102012180000000000000000000000000000000000000000100046840117715TERESA CRISTINA DE MELLO SOARE          RUA CANUTAMA                            OSWALDO CRUZ21340440RIO DE JANEIRO RJUNIAO UMB DOS CULTOS AFRO BRAS    20121810 000123
10231987175000168817800093673    000033191                    000331910000000000000109                     I0133191     20121800000000350003410000017N291018104700000000000102012180000000000000000000000000000000000000000100095760024787LUCIMARA DIAS DE OLIVEIRA               RUA SANTO ELIAS                         TURIACU     21540390RIO DE JANEIRO RJUNIAO UMB DOS CULTOS AFRO BRAS    20121810 000124
10231987175000168817800093673    000033190                    000331900000000000000109                     I0133190     20121800000000350003410000017N291018104700000000000102012180000000000000000000000000000000000000000100027503607734FRANCISCA DA ROCHA TORRES               RUA FERNANDES BASTOS                    IRAJA       21361550RIO DE JANEIRO RJUNIAO UMB DOS CULTOS AFRO BRAS    20121810 000125
10231987175000168817800093673    000033189                    000331890000000000000109                     I0133189     20121800000000350003410000017N291018104700000000000102012180000000000000000000000000000000000000000100003443839703ANDERSON FERNANDES DE PAIVA             RUA JUDITE GUERRA                       PAVUNA      21520260RIO DE JANEIRO RJUNIAO UMB DOS CULTOS AFRO BRAS    20121810 000126
10231987175000168817800093673    000033188                    000331880000000000000109                     I0133188     20121800000000350003410000017N291018104700000000000102012180000000000000000000000000000000000000000100012218258790WILIAM ULERICH MARTINS                  RUA ANTONIO AUSTREGESILO                INHAUMA     21061300RIO DE JANEIRO RJUNIAO UMB DOS CULTOS AFRO BRAS    20121810 000127
10231987175000168817800093673    000033187                    000331870000000000000109                     I0133187     20121800000000350003410000017N291018104700000000000102012180000000000000000000000000000000000000000100003654035710ELLEN CRISTINA DE ORNELAS NARC          RUA MARECHAL MARCIANO                   REALENGO    21721011RIO DE JANEIRO RJUNIAO UMB DOS CULTOS AFRO BRAS    20121810 000128
10231987175000168817800093673    000033186                    000331860000000000000109                     I0133186     20121800000000350003410000017N291018104700000000000102012180000000000000000000000000000000000000000100009924715790JOSEFA MARIA DA SILVA                   TRAVESSA DOS LAVRADORES                 VILA SAO DOM26271340NOVA IGUACU    RJUNIAO UMB DOS CULTOS AFRO BRAS    20121810 000129
10231987175000168817800093673    000033185                    000331850000000000000109                     I0133185     20121800000000350003410000017N291018104700000000000102012180000000000000000000000000000000000000000100012687881716DAIANA SANTANA DE LIMA                  RUA MANAUS                              CAMPOS ELISE25225000DUQUE DE CAXIASRJUNIAO UMB DOS CULTOS AFRO BRAS    20121810 000130
10231987175000168817800093673    000033184                    000331840000000000000109                     I0133184     20121800000000350003410000017N291018104700000000000102012180000000000000000000000000000000000000000100007040620707MONICA BORGES MATTOS                    RUA INHAMUNS                            VILA VALQUEI21321330RIO DE JANEIRO RJUNIAO UMB DOS CULTOS AFRO BRAS    20121810 000131
10231987175000168817800093673    000033183                    000331830000000000000109                     I0133183     20121800000000350003410000017N291018104700000000000102012180000000000000000000000000000000000000000100000000000000JORGE EDUARDO PEREIRA VIANNA            RUA SERGIO MARTINS MOTA                 CABUCU      26291551NOVA IGUACU    RJUNIAO UMB DOS CULTOS AFRO BRAS    20121810 000132
10231987175000168817800093673    000033182                    000331820000000000000109                     I0133182     20121800000000350003410000017N291018104700000000000102012180000000000000000000000000000000000000000100093255586704GRECIETE GOUDARD                        ESTRADA DO CAMPINHO                     CAMPO GRANDE23066540RIO DE JANEIRO RJUNIAO UMB DOS CULTOS AFRO BRAS    20121810 000133
10231987175000168817800093673    000033181                    000331810000000000000109                     I0133181     20121800000000350003410000017N291018104700000000000102012180000000000000000000000000000000000000000100079034780791PAULO ROBERTO DE SOUZA MORENO           RUA CORONEL MALHAES                     TIRADENTES  26351180NOVA IGUACU    RJUNIAO UMB DOS CULTOS AFRO BRAS    20121810 000134
10231987175000168817800093673    000033180                    000331800000000000000109                     I0133180     20121800000000350003410000017N291018104700000000000102012180000000000000000000000000000000000000000100005229971711CATIA CILENE MASCARENHAS                TRAVESSA AMOR DO CAMPO                  CONJUNTO SAN21843743CAMPO GRANDE   RJUNIAO UMB DOS CULTOS AFRO BRAS    20121810 000135
10231987175000168817800093673    000033179                    000331790000000000000109                     I0133179     20121800000000350003410000017N291018104700000000000102012180000000000000000000000000000000000000000100089982118749LENIR SILVA DOS SANTOS                  RUA DA LUTA                             JARDIM LARAN26291278RIO DE JANEIRO RJUNIAO UMB DOS CULTOS AFRO BRAS    20121810 000136
10231987175000168817800093673    000033178                    000331780000000000000109                     I0133178     20121800000000350003410000017N291018104700000000000102012180000000000000000000000000000000000000000100005215608709KARYN GEYZA BATALHA BOECHAT             RUA GERVASEO                            CENTRO      26550020RIO DE JANEIRO RJUNIAO UMB DOS CULTOS AFRO BRAS    20121810 000137
10231987175000168817800093673    000033177                    000331770000000000000109                     I0133177     20121800000000350003410000017N291018104700000000000102012180000000000000000000000000000000000000000100000905236793ROSE GREGO SILVA DE SOUZA               RUA FLEXAL                              INHAUMA     20766610RIO DE JANEIRO RJUNIAO UMB DOS CULTOS AFRO BRAS    20121810 000138
10231987175000168817800093673    000033176                    000331760000000000000109                     I0133176     20121800000000350003410000017N291018104700000000000102012180000000000000000000000000000000000000000100009005281766ANDREA JOSE DO NASCIMENTO               RUA JUIZ DE FORA                        PARQUE SUECI25041025DUQUE DE CAXIASRJUNIAO UMB DOS CULTOS AFRO BRAS    20121810 000139
10231987175000168817800093673    000033175                    000331750000000000000109                     I0133175     20121800000000350003410000017N291018104700000000000102012180000000000000000000000000000000000000000100002406515702GILMA RODRIGUES COUTO                   RUA PEREIRA FRAZAO                      PRACA SECA  21320220RIO DE JANEIRO RJUNIAO UMB DOS CULTOS AFRO BRAS    20121810 000140
10231987175000168817800093673    000033174                    000331740000000000000109                     I0133174     20121800000000350003410000017N291018104700000000000102012180000000000000000000000000000000000000000100051265699704MARIA FATIMA DE SOUSA                   RUA MAURITI DOS SANTOS                  EDEN        25525720RIO DE JANEIRO RJUNIAO UMB DOS CULTOS AFRO BRAS    20121810 000141
10231987175000168817800093673    000033173                    000331730000000000000109                     I0133173     20121800000000380003410000017N291018104700000000000102012180000000000000000000000000000000000000000100064494527734RONALDO ROSAS ALVES                     ESTRADA COMANDANTE                      PRATA       25976140TERESOPOLIS    RJUNIAO UMB DOS CULTOS AFRO BRAS    20121810 000142
10231987175000168817800093673    000033172                    000331720000000000000109                     I0133172     20121800000000350003410000017N291018104700000000000102012180000000000000000000000000000000000000000100060223170704MARIA DO CARMO DO NASCIMENTO S          RUA COBE                                BANGU       21820200RIO DE JANEIRO RJUNIAO UMB DOS CULTOS AFRO BRAS    20121810 000143
10231987175000168817800093673    000033171                    000331710000000000000109                     I0133171     20121800000000400003410000017N291018104700000000000102012180000000000000000000000000000000000000000100008722484701ANA PAULA SILVA DA CRUZ                 RUA ELVIRA DA FONSECA                   LARGO DO TAN22733150RIO DE JANEIRO RJUNIAO UMB DOS CULTOS AFRO BRAS    20121810 000144
10231987175000168817800093673    000033170                    000331700000000000000109                     I0133170     20121800000000380003410000017N291018104700000000000102012180000000000000000000000000000000000000000100064506770749TERESINHA MARIA PEREIRA NOGUEI          BR 116 KM 78 - RUA ROSALINA PEREIRA DA MFONTE SANTA 25976060TERESOPOLIS    RJUNIAO UMB DOS CULTOS AFRO BRAS    20121810 000145
10231987175000168817800093673    000033169                    000331690000000000000109                     I0133169     20121800000000380003410000017N291018104700000000000102012180000000000000000000000000000000000000000100075333112720FATIMA CRISTINA MARQUES DE ALM          RUA MANOEL CARREIRO DE MELLO            SAO PEDRO   25956080TERESOPOLIS    RJUNIAO UMB DOS CULTOS AFRO BRAS    20121810 000146
10231987175000168817800093673    000033168                    000331680000000000000109                     I0133168     20121800000000380003410000017N291018104700000000000102012180000000000000000000000000000000000000000100028095391700SERGIO GARCIA DE QUEIROZ                RUA MATO GROSSO                         SANTA CECILI25957250TERESOPOLIS    RJUNIAO UMB DOS CULTOS AFRO BRAS    20121810 000147
10231987175000168817800093673    000033167                    000331670000000000000109                     I0133167     20121800000000380003410000017N291018104700000000000102012180000000000000000000000000000000000000000100043397077753JOAO NORATO CEZARIO                     RUA POETA MANOEL BANDEIRA               CABUIS      26540260NILOPOLIS      RJUNIAO UMB DOS CULTOS AFRO BRAS    20121810 000148
10231987175000168817800093673    000033166                    000331660000000000000109                     I0133166     20121800000000380003410000017N291018104700000000000102012180000000000000000000000000000000000000000100012295676746JEFFERSON ANTONIO TELLES GALDI          RUA MOUZIN DE ALBUQUERQUE               SAO VICENTE 26178080BELFORD ROXO   RJUNIAO UMB DOS CULTOS AFRO BRAS    20121810 000149
10231987175000168817800093673    000033165                    000331650000000000000109                     I0133165     20121800000000380003410000017N291018104700000000000102012180000000000000000000000000000000000000000100091083532715MARCOS AURELIO PEREIRA RAMOS            RUA MATO GROSSO                         SANTA CECILI25957250TERESOPOLIS    RJUNIAO UMB DOS CULTOS AFRO BRAS    20121810 000150
10231987175000168817800093673    000033164                    000331640000000000000109                     I0133164     20121800000000380003410000017N291018104700000000000102012180000000000000000000000000000000000000000100063662329700MARCO LUIS FREITAS DE AMORIM            RUA DAS DALIAS                          VILA VALQUEI20720012RIO DE JANEIRO RJUNIAO UMB DOS CULTOS AFRO BRAS    20121810 000151
10231987175000168817800093673    000033163                    000331630000000000000109                     I0133163     20121800000000380003410000017N291018104700000000000102012180000000000000000000000000000000000000000100003526002762HELOISA HELENA DE OLIVEIRA DA           RUA DOUTOR MUNIZ                        CENTRO      26130020BELFORD ROXO   RJUNIAO UMB DOS CULTOS AFRO BRAS    20121810 000152
10231987175000168817800093673    000033162                    000331620000000000000109                     I0133162     20121800000000380003410000017N291018104700000000000102012180000000000000000000000000000000000000000100005436665730JORGE LUIZ VICTORIO LIMA                AVENIDA MARCOVALDI                      NOVA ESPERAN26113040BELFORD ROXO   RJUNIAO UMB DOS CULTOS AFRO BRAS    20121810 000153
10231987175000168817800093673    000033161                    000331610000000000000109                     I0133161     20121800000000400003410000017N291018104700000000000102012180000000000000000000000000000000000000000100003005342727MAURICIO ESTORQUE                       RUA SERDIVAO JOSE NICOLAY               JARDIM FEO  25965430TERESOPOLIS    RJUNIAO UMB DOS CULTOS AFRO BRAS    20121810 000154
10231987175000168817800093673    000033160                    000331600000000000000109                     I0133160     20121800000000400003410000017N291018104700000000000102012180000000000000000000000000000000000000000100008046598771ANTONIO DA SILVA BARBOSA                MARIA JOSE FERREIRA DUARTE              ERMITAGE    25975780TERESOPOLIS    RJUNIAO UMB DOS CULTOS AFRO BRAS    20121810 000155
10231987175000168817800093673    000033159                    000331590000000000000109                     I0133159     20121800000000400003410000017N291018104700000000000102012180000000000000000000000000000000000000000100009526018770VERONICA MARIA LIMA                     RUA KEMAL PALHA                         VILA SANTO A25040220DUQUE DE CAXIASRJUNIAO UMB DOS CULTOS AFRO BRAS    20121810 000156
10231987175000168817800093673    000033158                    000331580000000000000109                     I0133158     20121800000000400003410000017N291018104700000000000102012180000000000000000000000000000000000000000100001253277737MARIA JOSE DANTAS MOREIRA               RUA SETE DE JUNHO                       PRAIA DE MAU25925732MAGE           RJUNIAO UMB DOS CULTOS AFRO BRAS    20121810 000157
10231987175000168817800093673    000033157                    000331570000000000000109                     I0133157     20121800000000380003410000017N291018104700000000000102012180000000000000000000000000000000000000000100003250570596VERONICA LUCIA DA CRUZ                  ESTRADA DOUTOR FARRULA                  SAO FRANCISC26125400BELFORD ROXO   RJUNIAO UMB DOS CULTOS AFRO BRAS    20121810 000158
10231987175000168817800093673    000033156                    000331560000000000000109                     I0133156     20121800000000380003410000017N291018104700000000000102012180000000000000000000000000000000000000000100059598255700TEREZINHA MARIA DE JESUS PINHE          MANOEL DA SILVA PEREIRA                 PRADOS VERDE26299003NOVA IGUACU    RJUNIAO UMB DOS CULTOS AFRO BRAS    20121810 000159
10231987175000168817800093673    000033155                    000331550000000000000109                     I0133155     20121800000000350003410000017N291018104700000000000102012180000000000000000000000000000000000000000100002527980740ARMANDO DE ALMEIDA                      RUA PEDRO JOSE DE OLIVEIRA              VARGEM GRAND27145231BARRA DO PIRAI RJUNIAO UMB DOS CULTOS AFRO BRAS    20121810 000160
10231987175000168817800093673    000033154                    000331540000000000000109                     I0133154     20121800000000350003410000017N291018104700000000000102012180000000000000000000000000000000000000000100005978854785ALEXANDRE MOTA DOS SANTOS               RUA BRUNO SENDER                        JARDIM NOVA 26266040NOVA IGUACU    RJUNIAO UMB DOS CULTOS AFRO BRAS    20121810 000161
10231987175000168817800093673    000033153                    000331530000000000000109                     I0133153     20121800000000350003410000017N291018104700000000000102012180000000000000000000000000000000000000000100014907708793THIAGO CARVALHO VIDAL LIMA              RUA DONA DUCHA                          MARIA CONGA 25901238MAGE           RJUNIAO UMB DOS CULTOS AFRO BRAS    20121810 000162
10231987175000168817800093673    000033152                    000331520000000000000109                     I0133152     20121800000000350003410000017N291018104700000000000102012180000000000000000000000000000000000000000100080705774791MARIA FREITAS DOS SANTOS MACHA          RUA VINTE E QUATRO                      SEPETIBA    23570086RIO DE JANEIRO RJUNIAO UMB DOS CULTOS AFRO BRAS    20121810 000163
10231987175000168817800093673    000033151                    000331510000000000000109                     I0133151     20121800000000400003410000017N291018104700000000000102012180000000000000000000000000000000000000000100082187401715JOSE AUGUSTO DA PAIXAO                  RUA GOMES CARNEIRO                      SARACURUNA  25211050DUQUE DE CAXIASRJUNIAO UMB DOS CULTOS AFRO BRAS    20121810 000164
10231987175000168817800093673    000033150                    000331500000000000000109                     I0133150     20121800000000400003410000017N291018104700000000000102012180000000000000000000000000000000000000000100011622292766ROBERT HELENO MACEDO                    TRAVESSA JOSE CARRETEIRO                ENGENHOCA   24110444NITEROI        RJUNIAO UMB DOS CULTOS AFRO BRAS    20121810 000165
10231987175000168817800093673    000033149                    000331490000000000000109                     I0133149     20121800000000380003410000017N291018104700000000000102012180000000000000000000000000000000000000000100007337231792SAMANTHA PRISCILA MARQUES MORE          RUA INSPETOR CASTRO                     SARACURUNA  25211410DUQUE DE CAXIASRJUNIAO UMB DOS CULTOS AFRO BRAS    20121810 000166
10231987175000168817800093673    000033148                    000331480000000000000109                     I0133148     20121800000000350003410000017N291018104700000000000102012180000000000000000000000000000000000000000100060044055749SUELY DE FARIAS EDUARDO                 TRAVESSA JAFIA                          CIDADE DE DE22772190RIO DE JANEIRO RJUNIAO UMB DOS CULTOS AFRO BRAS    20121810 000167
10231987175000168817800093673    000033147                    000331470000000000000109                     I0133147     20121800000000350003410000017N291018104700000000000102012180000000000000000000000000000000000000000100010860605710MARCIA DA SILVA SIRIACO DA CON          RUA PADRE GIL                           PARQUE BONEV25907096MAGE           RJUNIAO UMB DOS CULTOS AFRO BRAS    20121810 000168
10231987175000168817800093673    000033146                    000331460000000000000109                     I0133146     20121800000000350003410000017N291018104700000000000102012180000000000000000000000000000000000000000100013118884703WESLEI FERREIRA DE CARVALHO             ESTRADA DO GUERENGUE                    TAQUARA     22713004RIO DE JANEIRO RJUNIAO UMB DOS CULTOS AFRO BRAS    20121810 000169
10231987175000168817800093673    000033145                    000331450000000000000109                     I0133145     20121800000000350003410000017N291018104700000000000102012180000000000000000000000000000000000000000100002176741781SUSI DE OLIVEIRA LOUREIRO               AVENIDA VICENTE DE CARVALHO             VICENTE DE C26278525RIO DE JANEIRO RJUNIAO UMB DOS CULTOS AFRO BRAS    20121810 000170
10231987175000168817800093673    000033144                    000331440000000000000109                     I0133144     20121800000000350003410000017N291018104700000000000102012180000000000000000000000000000000000000000100095846190715ANA MARIA NICANOR DE QUADRO             RUA PASSO FUNDO                         JARDIM GUAND26298189NOVA IGUACU    RJUNIAO UMB DOS CULTOS AFRO BRAS    20121810 000171
10231987175000168817800093673    000033143                    000331430000000000000109                     I0133143     20121800000000350003410000017N291018104700000000000102012180000000000000000000000000000000000000000100001161586709ALEXANDRE PIMPAREL DA SILVA             RUA: COMENDADOR VENACIO                 PALHADA     26290204NOVA IGUACU    RJUNIAO UMB DOS CULTOS AFRO BRAS    20121810 000172
10231987175000168817800093673    000033142                    000331420000000000000109                     I0133142     20121800000000350003410000017N291018104700000000000102012180000000000000000000000000000000000000000100000000000000FABIO DA SILVA                          RUA CAMORIM                             JARDIM DELAM26317140QUEIMADOS      RJUNIAO UMB DOS CULTOS AFRO BRAS    20121810 000173
10231987175000168817800093673    000033141                    000331410000000000000109                     I0133141     20121800000000350003410000017N291018104700000000000102012180000000000000000000000000000000000000000100010765062755IVONE JOAO PEDRO                        RUA MARMIARI                            SENADOR CAMA21831000RIO DE JANEIRO RJUNIAO UMB DOS CULTOS AFRO BRAS    20121810 000174
10231987175000168817800093673    000033140                    000331400000000000000109                     I0133140     20121800000000350003410000017N291018104700000000000102012180000000000000000000000000000000000000000100085957679720MARIA DA APARECIDA VICENTE DUQ          RUA FRANCISCO VIOLTI                    HELIOPLOIS  26125440BELFORD ROXO   RJUNIAO UMB DOS CULTOS AFRO BRAS    20121810 000175
10231987175000168817800093673    000033139                    000331390000000000000109                     I0133139     20121800000000350003410000017N291018104700000000000102012180000000000000000000000000000000000000000100005933193704ANA PAULA DA SILVA SANTOS               RUA APIACA                              JARDIM BARRO25267290DUQUE DE CAXIASRJUNIAO UMB DOS CULTOS AFRO BRAS    20121810 000176
10231987175000168817800093673    000033138                    000331380000000000000109                     I0133138     20121800000000350003410000017N291018104700000000000102012180000000000000000000000000000000000000000100010018753701PAULA DE BRITO                          RUA FRANCISCO VIOLTE                    HELIOPOLIS  26125440RIO DE JANEIRO RJUNIAO UMB DOS CULTOS AFRO BRAS    20121810 000177
10231987175000168817800093673    000033137                    000331370000000000000109                     I0133137     20121800000000350003410000017N291018104700000000000102012180000000000000000000000000000000000000000100003372466705SANDRO NASCIMENTO NOBREGA               RUA JOAO ROMARIZ                        RAMOS       21031700RIO DE JANEIRO RJUNIAO UMB DOS CULTOS AFRO BRAS    20121810 000178
10231987175000168817800093673    000033136                    000331360000000000000109                     I0133136     20121800000000350003410000017N291018104700000000000102012180000000000000000000000000000000000000000100085542091768SUELY PEREIRA DA SILVA CALIXTO          RUA LUSITANIA II                        IMBARIE     25266005DUQUE DE CAXIASRJUNIAO UMB DOS CULTOS AFRO BRAS    20121810 000179
10231987175000168817800093673    000033135                    000331350000000000000109                     I0133135     20121800000000350003410000017N291018104700000000000102012180000000000000000000000000000000000000000100010718180747JOSE CARLOS MELO DA SILVA               RUA DEPUTADO SA REGO                    VILA SAO LUI25065030DUQUE DE CAXIASRJUNIAO UMB DOS CULTOS AFRO BRAS    20121810 000180
10231987175000168817800093673    000033134                    000331340000000000000109                     I0133134     20121800000000350003410000017N291018104700000000000102012180000000000000000000000000000000000000000100058756280734SANDRA REGINA DA CONCEICAO              RUA BUENOS AIRES                        JARDIM PERNA26275390NOVA IGUACU    RJUNIAO UMB DOS CULTOS AFRO BRAS    20121810 000181
10231987175000168817800093673    000033133                    000331330000000000000109                     I0133133     20121800000000350003410000017N291018104700000000000102012180000000000000000000000000000000000000000100005953836708RODRIGO SANTOS DA SILVA                 RUA FLAMINIA                            PENHA CIRCUL21221240RIO DE JANEIRO RJUNIAO UMB DOS CULTOS AFRO BRAS    20121810 000182
10231987175000168817800093673    000033132                    000331320000000000000109                     I0133132     20121800000000350003410000017N291018104700000000000102012180000000000000000000000000000000000000000100032637128764MARLENE DA CRUZ                         AVENIDA ABILIO AUGUSTO TAVORA           VALVERDE    26290600NOVA IGUACU    RJUNIAO UMB DOS CULTOS AFRO BRAS    20121810 000183
10231987175000168817800093673    000033131                    000331310000000000000109                     I0133131     20121800000000350003410000017N291018104700000000000102012180000000000000000000000000000000000000000100049660632720MARINETE SANTOS DE OLIVEIRA             AVENIDA SANTA CRUZ                      SENADOR CAMA23010003RIO DE JANEIRO RJUNIAO UMB DOS CULTOS AFRO BRAS    20121810 000184
10231987175000168817800093673    000033130                    000331300000000000000109                     I0133130     20121800000000350003410000017N291018104700000000000102012180000000000000000000000000000000000000000100003253352730LUCINEA DUTRA MEDEIROS                  RUA EVALDO BRAGA                        INDEPENDENCI25645300PETROPOLIS     RJUNIAO UMB DOS CULTOS AFRO BRAS    20121810 000185
10231987175000168817800093673    000033129                    000331290000000000000109                     I0133129     20121800000000350003410000017N291018104700000000000102012180000000000000000000000000000000000000000100000858723778GEOVANI FERNANDA DA SILVA               RUA SOFIA BARRETO                       DUMAS - SANT23550700RIO DE JANEIRO RJUNIAO UMB DOS CULTOS AFRO BRAS    20121810 000186
10231987175000168817800093673    000033128                    000331280000000000000109                     I0133128     20121800000000350003410000017N291018104700000000000102012180000000000000000000000000000000000000000100000227210700ROSIMAR TELLES DE SA                    RUA ACAPU                               MARECHAL HER21550570RIO DE JANEIRO RJUNIAO UMB DOS CULTOS AFRO BRAS    20121810 000187
10231987175000168817800093673    000033127                    000331270000000000000109                     I0133127     20121800000000350003410000017N291018104700000000000102012180000000000000000000000000000000000000000100000919377793JOSE IVAN MARCELINO FILHO               RUA ERNANE PEREIRA                      CARLOS SAMPA26089115NOVA IGUACU    RJUNIAO UMB DOS CULTOS AFRO BRAS    20121810 000188
10231987175000168817800093673    000033126                    000331260000000000000109                     I0133126     20121800000000350003410000017N291018104700000000000102012180000000000000000000000000000000000000000100001649750714CRISTIANE JOSE DA SILVA                 AVENIDA CALOMBE                         PARQUE ELDOR25231020DUQUE DE CAXIASRJUNIAO UMB DOS CULTOS AFRO BRAS    20121810 000189
10231987175000168817800093673    000033125                    000331250000000000000109                     I0133125     20121800000000400003410000017N291018104700000000000102012180000000000000000000000000000000000000000100011700984799CRISTIANE SANTOS FEIJO VIEIRA           RUA NICOLAU TOUQUET                     JARDIM CATAR24716403SAO GONCALO    RJUNIAO UMB DOS CULTOS AFRO BRAS    20121810 000190
10231987175000168817800093673    000033124                    000331240000000000000109                     I0133124     20121800000000350003410000017N291018104700000000000102012180000000000000000000000000000000000000000100074510266715ANA LUCIA DE ALMEIDA BURITY             ESTRADA: DA CAPOEIRA GRANDE             PEDRA DE GUA23026220RIO DE JANEIRO RJUNIAO UMB DOS CULTOS AFRO BRAS    20121810 000191
10231987175000168817800093673    000033123                    000331230000000000000109                     I0133123     20121800000000350003410000017N291018104700000000000102012180000000000000000000000000000000000000000100012345678900MARIA DA GRACA MACHADO DOS SAN          RUA ARCOZELO                            PARQUE ARARU25585560SAO JOAO DE MERRJUNIAO UMB DOS CULTOS AFRO BRAS    20121810 000192
10231987175000168817800093673    000033122                    000331220000000000000109                     I0133122     20121800000000350003410000017N291018104700000000000102012180000000000000000000000000000000000000000100004278587716LUCIANO GONCALVES PIRES                 RUA MARECHAL ANTONIO DE SOUSA           JARDIM AMERI21240430RIO DE JANEIRO RJUNIAO UMB DOS CULTOS AFRO BRAS    20121810 000193
10231987175000168817800093673    000033121                    000331210000000000000109                     I0133121     20121800000000400003410000017N291018104700000000000102012180000000000000000000000000000000000000000100001413508731MARLENE TRAVASSOS DA SILVA              RUA SAO LUIZ GONZAGA                    SAO CRISTOVA20910061RIO DE JANEIRO RJUNIAO UMB DOS CULTOS AFRO BRAS    20121810 000194
10231987175000168817800093673    000033120                    000331200000000000000109                     I0133120     20121800000000350003410000017N291018104700000000000102012180000000000000000000000000000000000000000100010154945790SIMONE DE OLIVEIRA CUNHA                RUA ONZE                                JARDIM ROTSE25270080DUQUE DE CAXIASRJUNIAO UMB DOS CULTOS AFRO BRAS    20121810 000195
10231987175000168817800093673    000033119                    000331190000000000000109                     I0133119     20121800000000400003410000017N291018104700000000000102012180000000000000000000000000000000000000000100005234258726LUANNA RODRIGUES NASCIMENTO LO          RUA SETE                                VALERIO     28680000CACHOEIRA DE MARJUNIAO UMB DOS CULTOS AFRO BRAS    20121810 000196
10231987175000168817800093673    000033118                    000331180000000000000109                     I0133118     20121800000000400003410000017N291018104700000000000102012180000000000000000000000000000000000000000100005770480742NARAYAMA MARTINS RODRIGUES LOU          RUA NABYCALIFA                          TABORDA     28680000CACHOEIRA DE MARJUNIAO UMB DOS CULTOS AFRO BRAS    20121810 000197
10231987175000168817800093673    000033117                    000331170000000000000109                     I0133117     20121800000000400003410000017N291018104700000000000102012180000000000000000000000000000000000000000100002965368736REGINA CONCEICAO                        AVENIDA BOQUEIRAO                       BOA VISTA   28680000CACHOEIRA DE MARJUNIAO UMB DOS CULTOS AFRO BRAS    20121810 000198
10231987175000168817800093673    000033116                    000331160000000000000109                     I0133116     20121800000000380003410000017N291018104700000000000102012180000000000000000000000000000000000000000100009963194761FERNANDO PECANHA PIRES                  RUA GENERAL BASILIO                     TABORDA     28680000CACHOEIRA DE MARJUNIAO UMB DOS CULTOS AFRO BRAS    20121810 000199
10231987175000168817800093673    000033115                    000331150000000000000109                     I0133115     20121800000000350003410000017N291018104700000000000102012180000000000000000000000000000000000000000100009491065777VIVIAN LUIZA FREITAS DE AGUIAR          RUA ITAPETININGA                        VICENTE DE C21370680RIO DE JANEIRO RJUNIAO UMB DOS CULTOS AFRO BRAS    20121810 000200
10231987175000168817800093673    000033114                    000331140000000000000109                     I0133114     20121800000000350003410000017N291018104700000000000102012180000000000000000000000000000000000000000100002331392730ANA MARIA DOS SANTOS VIEIRA             RUA OITO                                PARQUE ALVOR26053220NOVA IGUACU    RJUNIAO UMB DOS CULTOS AFRO BRAS    20121810 000201
10231987175000168817800093673    000033113                    000331130000000000000109                     I0133113     20121800000000350003410000017N291018104700000000000102012180000000000000000000000000000000000000000100005964958702MARISLEY AMARO DE SOUZA                 RUA MONTE ALTO                          BANGU       21863010RIO DE JANEIRO RJUNIAO UMB DOS CULTOS AFRO BRAS    20121810 000202
10231987175000168817800093673    000033112                    000331120000000000000109                     I0133112     20121800000000350003410000017N291018104700000000000102012180000000000000000000000000000000000000000100003018847733MARIA AILHA BERNARDO PINTO              RUA RUBIAO JUNIOR                       CENTRO      23860000MANGARATIBA    RJUNIAO UMB DOS CULTOS AFRO BRAS    20121810 000203
10231987175000168817800093673    000033111                    000331110000000000000109                     I0133111     20121800000000350003410000017N291018104700000000000102012180000000000000000000000000000000000000000100089207963787NICEIA SANTOS FRANCA                    TRAVESSA VIANA BARBOSA                  SEPETIBA    23550360RIO DE JANEIRO RJUNIAO UMB DOS CULTOS AFRO BRAS    20121810 000204
10231987175000168817800093673    000033110                    000331100000000000000109                     I0133110     20121800000000350003410000017N291018104700000000000102012180000000000000000000000000000000000000000100012345678910LUCIANO GONCALVES DE SOUZA              RUA CLARIMUNDO DE MELO                  PIEDADE     20740323RIO DE JANEIRO RJUNIAO UMB DOS CULTOS AFRO BRAS    20121810 000205
10231987175000168817800093673    000033109                    000331090000000000000109                     I0133109     20121800000000350003410000017N291018104700000000000102012180000000000000000000000000000000000000000100001162883707SUNEY MENEZES MACHADO                   ESTRADA DO ENCANAMENTO                  BARBADO     23060000RIO DE JANEIRO RJUNIAO UMB DOS CULTOS AFRO BRAS    20121810 000206
10231987175000168817800093673    000033108                    000331080000000000000109                     I0133108     20121800000000350003410000017N291018104700000000000102012180000000000000000000000000000000000000000100001011350769SONIA REGINA DA CONCEICAO               RUA: COMANDANTE MINERVINO               LARGO DA BAT24315215NITEROI        RJUNIAO UMB DOS CULTOS AFRO BRAS    20121810 000207
10231987175000168817800093673    000033107                    000331070000000000000109                     I0133107     20121800000000350003410000017N291018104700000000000102012180000000000000000000000000000000000000000100004275325745MAIKE OLIVEIRA DA COSTA                 TRAVESSA MARTA DA ROCHA                 ABOLICAO    20755030RIO DE JANEIRO RJUNIAO UMB DOS CULTOS AFRO BRAS    20121810 000208
10231987175000168817800093673    000033106                    000331060000000000000109                     I0133106     20121800000000350003410000017N291018104700000000000102012180000000000000000000000000000000000000000100043076327704MARIA AMELIA RIBEIRO                    RUA: GENTIL DE ALMEIDA                  HONORIO GURG21511110RIO DE JANEIRO RJUNIAO UMB DOS CULTOS AFRO BRAS    20121810 000209
10231987175000168817800093673    000033105                    000331050000000000000109                     I0133105     20121800000000350003410000017N291018104700000000000102012180000000000000000000000000000000000000000100007852297790IRENE FRANCISCO LIMA                    RUA VIRGILIO VARZEA                     VILA SAO LUI25051110DUQUE DE CAXIASRJUNIAO UMB DOS CULTOS AFRO BRAS    20121810 000210
10231987175000168817800093673    000033104                    000331040000000000000109                     I0133104     20121800000000350003410000017N291018104700000000000102012180000000000000000000000000000000000000000100082396841734LUCIA DE FATIMA DE SOUZA                RUA: RESPLANDECER                       PARAISO     26297159NOVA IGUACU    RJUNIAO UMB DOS CULTOS AFRO BRAS    20121810 000211
10231987175000168817800093673    000033103                    000331030000000000000109                     I0133103     20121800000000350003410000017N291018104700000000000102012180000000000000000000000000000000000000000100001298660750ROSEMBERG EFIGENIO BARBOSA              RUA TANCREDO MARTINS COSTA              ENGENHO DE D20730310RIO DE JANEIRO RJUNIAO UMB DOS CULTOS AFRO BRAS    20121810 000212
10231987175000168817800093673    000033102                    000331020000000000000109                     I0133102     20121800000000000003410000017N291018104700000000000102012180000000000000000000000000000000000000000100050246534753TANIA MARIA DA SILVA OLIVEIRA           TRAVESSA MARAJO                         LINDO PARQUE24420100SAO GONCALO    RJUNIAO UMB DOS CULTOS AFRO BRAS    20121810 000213
10231987175000168817800093673    000033101                    000331010000000000000109                     I0133101     20121800000000350003410000017N291018104700000000000102012180000000000000000000000000000000000000000100006915594736CINTIA FERREIRA                         RUA VALDEMAR GALDINO                    JARDIM BELO 22631004RIO DE JANEIRO RJUNIAO UMB DOS CULTOS AFRO BRAS    20121810 000214
10231987175000168817800093673    000033100                    000331000000000000000109                     I0133100     20121800000000350003410000017N291018104700000000000102012180000000000000000000000000000000000000000100011497058767DIEGO FERREIRA DA SILVA                 RUA PRIMEIRO DE MAIO                    IPIRANGA    26293480RIO DE JANEIRO RJUNIAO UMB DOS CULTOS AFRO BRAS    20121810 000215
10231987175000168817800093673    000033099                    000330990000000000000109                     I0133099     20121800000000350003410000017N291018104700000000000102012180000000000000000000000000000000000000000100044415443753ELIDE LEANDRO BARBOSA                   RUA ENGENHEIRO PERICLES RIBEIRO         FONSECA     24130350NITEROI        RJUNIAO UMB DOS CULTOS AFRO BRAS    20121810 000216
10231987175000168817800093673    000033098                    000330980000000000000109                     I0133098     20121800000000350003410000017N291018104700000000000102012180000000000000000000000000000000000000000100003387547720APARECIDA DOS SANTOS                    RUA CRACATUA                            HELIOPOLIS  26125170BELFORD ROXO   RJUNIAO UMB DOS CULTOS AFRO BRAS    20121810 000217
10231987175000168817800093673    000033097                    000330970000000000000109                     I0133097     20121800000000350003410000017N291018104700000000000102012180000000000000000000000000000000000000000100062663810797PAULO AMERICO MOTTA DE AGUIAR           RUA CORURIPE                            MARECHAL HER21555490RIO DE JANEIRO RJUNIAO UMB DOS CULTOS AFRO BRAS    20121810 000218
10231987175000168817800093673    000033096                    000330960000000000000109                     I0133096     20121800000000350003410000017N291018104700000000000102012180000000000000000000000000000000000000000100009409455766DANIELE MARTINS MEDEIROS DE FR          RUA D                                   BELA VISTA  23860000MANGARATIBA    RJUNIAO UMB DOS CULTOS AFRO BRAS    20121810 000219
10231987175000168817800093673    000033095                    000330950000000000000109                     I0133095     20121800000000350003410000017N291018104700000000000102012180000000000000000000000000000000000000000100090219023700GUARACIARA CORREA PASCHOAL              RUA JOSE CABRAL                         VAL VERDE   26290783NOVA IGUACU    RJUNIAO UMB DOS CULTOS AFRO BRAS    20121810 000220
10231987175000168817800093673    000033094                    000330940000000000000109                     I0133094     20121800000000350003410000017N291018104700000000000102012180000000000000000000000000000000000000000100000640795706CELIA REGINA ALVES DE SOUZA CO          RUA QUARENTA E SETE                     JARDIM ITAMB24725240SAO GONCALO    RJUNIAO UMB DOS CULTOS AFRO BRAS    20121810 000221
10231987175000168817800093673    000033093                    000330930000000000000109                     I0133093     20121800000000350003410000017N291018104700000000000102012180000000000000000000000000000000000000000100007459837741LUIZ CARLOS CARDOSO                     RUA WALDIR CARDOSO                      PAU GRANDE  25917040MAGE           RJUNIAO UMB DOS CULTOS AFRO BRAS    20121810 000222
10231987175000168817800093673    000033092                    000330920000000000000109                     I0133092     20121800000000350003410000017N291018104700000000000102012180000000000000000000000000000000000000000100023970090563MARCIA VIEIRA SALES                     RUA LOPO SARAIVA                        TANQUE - JAC22740220RIO DE JANEIRO RJUNIAO UMB DOS CULTOS AFRO BRAS    20121810 000223
10231987175000168817800093673    000033091                    000330910000000000000109                     I0133091     20121800000000350003410000017N291018104700000000000102012180000000000000000000000000000000000000000100011264005725MARCELO VIEIRA GUSMAN FILHO             AVENIDA MEDIANEIRA                      COSMOS      23066470RIO DE JANEIRO RJUNIAO UMB DOS CULTOS AFRO BRAS    20121810 000224
10231987175000168817800093673    000033090                    000330900000000000000109                     I0133090     20121800000000350003410000017N291018104700000000000102012180000000000000000000000000000000000000000100006726905432DAYVIDY RAMON CANDIDO                   RUA MARACA                              PARQUE MUCAJ26415055JAPERI         RJUNIAO UMB DOS CULTOS AFRO BRAS    20121810 000225
10231987175000168817800093673    000033089                    000330890000000000000109                     I0133089     20121800000000350003410000017N291018104700000000000102012180000000000000000000000000000000000000000100053531396749VITALINA DOS SANTOS                     RUA SAQUAREMA                           GRAMACHO    25035425DUQUE DE CAXIASRJUNIAO UMB DOS CULTOS AFRO BRAS    20121810 000226
10231987175000168817800093673    000033088                    000330880000000000000109                     I0133088     20121800000000350003410000017N291018104700000000000102012180000000000000000000000000000000000000000100002742159770CREUSA FERREIRA DA SILVA                RUA: LEIVINHA PIRES DE SOUZA            JARDIM REDEN26110805BELFORD ROXO   RJUNIAO UMB DOS CULTOS AFRO BRAS    20121810 000227
10231987175000168817800093673    000033087                    000330870000000000000109                     I0133087     20121800000000350003410000017N291018104700000000000102012180000000000000000000000000000000000000000100003604572746LUCIANA SANTOS DA SILVA DE LIM          RUA MARTINICIA                          PARQUE NOVO 25585110SAO JOAO DE MERRJUNIAO UMB DOS CULTOS AFRO BRAS    20121810 000228
10231987175000168817800093673    000033086                    000330860000000000000109                     I0133086     20121800000000350003410000017N291018104700000000000102012180000000000000000000000000000000000000000100009445907728VICTOR DOS SANTOS ALLEN                 RUA PEDRO TELES                         CENTRO      25515032SAO JOAO DE MERRJUNIAO UMB DOS CULTOS AFRO BRAS    20121810 000229
10231987175000168817800093673    000033085                    000330850000000000000109                     I0133085     20121800000000350003410000017N291018104700000000000102012180000000000000000000000000000000000000000100011549239759RENATA DE OLIVEIRA GASPAR               RUA GUANABARA                           MADUREIRA   21350230RIO DE JANEIRO RJUNIAO UMB DOS CULTOS AFRO BRAS    20121810 000230
10231987175000168817800093673    000033084                    000330840000000000000109                     I0133084     20121800000000350003410000017N291018104700000000000102012180000000000000000000000000000000000000000100009145082707ELAINE CRISTINA DE MORAES               RUA GENTIL DO OURO                      AGUIAR TORRE23063340INHOAIBA       RJUNIAO UMB DOS CULTOS AFRO BRAS    20121810 000231
10231987175000168817800093673    000033083                    000330830000000000000109                     I0133083     20121800000000350003410000017N291018104700000000000102012180000000000000000000000000000000000000000100015429555134OBIRACI SILVA DO NASCIMENTO             ESTRADA VELHA DE MARICA                 MARIA PAULA 24756280SAO GONCALO    RJUNIAO UMB DOS CULTOS AFRO BRAS    20121810 000232
10231987175000168817800093673    000033082                    000330820000000000000109                     I0133082     20121800000000350003410000017N291018104700000000000102012180000000000000000000000000000000000000000100012519709740KARINE NOVAIS DE ANDRADE                RUA SOLDADO DAMASIO GOMES               CURICICA - J22780610RIO DE JANEIRO RJUNIAO UMB DOS CULTOS AFRO BRAS    20121810 000233
10231987175000168817800093673    000033081                    000330810000000000000109                     I0133081     20121800000000180003410000017N291018104700000000000102012180000000000000000000000000000000000000000100015903167896PRISCILA APARECIDA SERRANO CLE          RUA: CATHARINA SIMONE PITORRI           VILA MIVI   02251010SAO PAULO      SPUNIAO UMB DOS CULTOS AFRO BRAS    20121810 000234
10231987175000168817800093673    000033080                    000330800000000000000109                     I0133080     20121800000000350003410000017N291018104700000000000102012180000000000000000000000000000000000000000100006864504778FABIO GUILHERME DOS SANTOS              ESTRADA JOAO DE ABREU                   MONJOLO     24723190SAO GONCALO    RJUNIAO UMB DOS CULTOS AFRO BRAS    20121810 000235
10231987175000168817800093673    000033079                    000330790000000000000109                     I0133079     20121800000000350003410000017N291018104700000000000102012180000000000000000000000000000000000000000100000000000000LUCIANO SOARES DA SILVA                 RUA MEDEIROS AGUAS MARAVILHOSAS         LINHA AZUL  27910000MACAE          RJUNIAO UMB DOS CULTOS AFRO BRAS    20121810 000236
10231987175000168817800093673    000033078                    000330780000000000000109                     I0133078     20121800000000350003410000017N291018104700000000000102012180000000000000000000000000000000000000000100013849060705LEONARDO ENEDINA DE MELO                RUA JULIO VERNER                        SANTA RITA  26050517NOVA IGUACU    RJUNIAO UMB DOS CULTOS AFRO BRAS    20121810 000237
10231987175000168817800093673    000033077                    000330770000000000000109                     I0133077     20121800000000350003410000017N291018104700000000000102012180000000000000000000000000000000000000000100085906743715FRANCISCA CELIA LEANDRO NEVES           RUA PAULO VIANA                         ROCHA MIRAND21540460RIO DE JANEIRO RJUNIAO UMB DOS CULTOS AFRO BRAS    20121810 000238
10231987175000168817800093673    000033076                    000330760000000000000109                     I0133076     20121800000000350003410000017N291018104700000000000102012180000000000000000000000000000000000000000100054428289715LOUZADA MARIA FRANCISCO SALLES          ESTRADA DO CHALET                       MANILHA     24855312ITABORAI       RJUNIAO UMB DOS CULTOS AFRO BRAS    20121810 000239
10231987175000168817800093673    000033075                    000330750000000000000109                     I0133075     20121800000000350003410000017N291018104700000000000102012180000000000000000000000000000000000000000100082391106734CASSIO SOUZA DA COSTA                   RUA RIACHUELO                           JARDIM ESTOR26112220BELFORD ROXO   RJUNIAO UMB DOS CULTOS AFRO BRAS    20121810 000240
10231987175000168817800093673    000033074                    000330740000000000000109                     I0133074     20121800000000350003410000017N291018104700000000000102012180000000000000000000000000000000000000000100087798999787NILZETE DA CONCEICAO FELIX              RUA PROJETADA                           JARDIM ANHAN25264030DUQUE DE CAXIASRJUNIAO UMB DOS CULTOS AFRO BRAS    20121810 000241
10231987175000168817800093673    000033073                    000330730000000000000109                     I0133073     20121800000000350003410000017N291018104700000000000102012180000000000000000000000000000000000000000100002882629729ANA PAULA DE SOUZA RIBEIRO VIL          RUA DUARTE DE AZEVEDO                   TURIACU     21550130RIO DE JANEIRO RJUNIAO UMB DOS CULTOS AFRO BRAS    20121810 000242
10231987175000168817800093673    000033072                    000330720000000000000109                     I0133072     20121800000000350003410000017N291018104700000000000102012180000000000000000000000000000000000000000100003225521760UBIRAPUAN FERREIRA BASTOS               TRAVESSA: JARDIM CAICARA                FONSECA     24130690NITEROI        RJUNIAO UMB DOS CULTOS AFRO BRAS    20121810 000243
10231987175000168817800093673    000033071                    000330710000000000000109                     I0133071     20121800000000350003410000017N291018104700000000000102012180000000000000000000000000000000000000000100008926305740PATRICIA DOS SANTOS LOPES               RUA: CASTELO AZUL                       JARDIM GUAND26298048NOVA IGUACU    RJUNIAO UMB DOS CULTOS AFRO BRAS    20121810 000244
10231987175000168817800093673    000033070                    000330700000000000000109                     I0133070     20121800000000350003410000017N291018104700000000000102012180000000000000000000000000000000000000000100004842101490MARIA DE LOURDES FARIAS DOS SA          RUA HELIO DE OLIVEIRA                   PARADA MORAB25000000DUQUE DE CAXIASRJUNIAO UMB DOS CULTOS AFRO BRAS    20121810 000245
10231987175000168817800093673    000033069                    000330690000000000000109                     I0133069     20121800000000350003410000017N291018104700000000000102012180000000000000000000000000000000000000000100004253784704ALEXANDRE SIMOES NASCIMENTO             RUA SEBASTIAO DRUMOND                   ANCHIETA    21640360RIO DE JANEIRO RJUNIAO UMB DOS CULTOS AFRO BRAS    20121810 000246
10231987175000168817800093673    000033068                    000330680000000000000109                     I0133068     20121800000000350003410000017N291018104700000000000102012180000000000000000000000000000000000000000100004474701755JACIRA DE ALMEIDA BATISTA JULI          AVENIDA SAO PAULOA                      PARQUE MARIL25225660DUQUE DE CAXIASRJUNIAO UMB DOS CULTOS AFRO BRAS    20121810 000247
10231987175000168817800093673    000033067                    000330670000000000000109                     I0133067     20121800000000350003410000017N291018104700000000000102012180000000000000000000000000000000000000000100077068505791JOSE CLEZIO DE SOUZA                    RUA GENERAL CEZAR OBINO                 BENTO RIBEIR20720012RIO DE JANEIRO RJUNIAO UMB DOS CULTOS AFRO BRAS    20121810 000248
10231987175000168817800093673    000033066                    000330660000000000000109                     I0133066     20121800000000350003410000017N291018104700000000000102012180000000000000000000000000000000000000000100038378345734ADELIR MARIA DAS NEVES TEIXEIR          RUA: CATULO CEARENSE                    IMBARIE     25267320DUQUE DE CAXIASRJUNIAO UMB DOS CULTOS AFRO BRAS    20121810 000249
