01REMESSA01COBRANCA       916200163100        União Umb dos Cultos Afro Bra341BANCO ITAU SA  090118                                                                                                                                                                                                                                                                                                      000001
10231987175000168916200163100    00008701                     000087010000000000000109                     I018701      31011800000000035003410000017N020118050900000000000103101180000000000000000000000000000000000000000100094051259749VANDA DA SILVA BARBOSA                  RUA MARIA DA GLORIA SANTOS, 13          SAO FERNANDO23565230RIO DE JANEIRO RJUNIAO UMB DOS CULTOS AFRO BRAS    31011810 000002
9                                                                                                                                                                                                                                                                                                                                                                                                         000003
