01REMESSA01COBRANCA       916200163100        União Umb dos Cultos Afro Bra341BANCO ITAU SA  040118                                                                                                                                                                                                                                                                                                      000001
10231987175000168916200163100    00008732                     000087320000000000000109                     I018732      31011800000000035003410000017N020118050900000000000103101180000000000000000000000000000000000000000100009545367709VERONICA BRAZ DA SILVA                  RUA SANTA RITA LOTE 17 E 18 QDA 39      PQ. SAO FRAN26355000NOVA IGUACU    RJUNIAO UMB DOS CULTOS AFRO BRAS    31011810 000002
9                                                                                                                                                                                                                                                                                                                                                                                                         000003
