01REMESSA01COBRANCA       817800093673        União Umb dos Cultos Afro Bra341BANCO ITAU SA  310119                                                                                                                                                                                                                                                                                                      000001
10231987175000168817800093673    000039635                    000396350000000000000109                     I0239635     31011900000000350003410000017N210119104700000000000103101190000000000000000000000000000000000000000100002480281701CESAR AUGUSTO DA SILVA MARCIAL          RUA, TRES                               MANUELLE    00000000MARICA         RJUNIAO UMB DOS CULTOS AFRO BRAS    31011910 000002
10231987175000168817800093673    000038366                    000383660000000000000109                     I0238366     30031900000000040003410000017N261218104700000000000103003190000000000000000000000000000000000000000100069184585749MARIA DOLORES MARSAL NIN                RUA VINTE E SEIS                        BRISAMAR    23823380ITAGUAI        RJUNIAO UMB DOS CULTOS AFRO BRAS    30031910 000003
10231987175000168817800093673    000038312                    000383120000000000000109                     I0238312     30031900000000040003410000017N261218104700000000000103003190000000000000000000000000000000000000000100037551868704NAKAYRA DA MOTTA LOBO                   RUA DOUTOR ARTUR MARTINS                MUTUA       24460350SAO GONCALO    RJUNIAO UMB DOS CULTOS AFRO BRAS    30031910 000004
10231987175000168817800093673    000038000                    000380000000000000000109                     I0238000     30031900000000040003410000017N261218104700000000000103003190000000000000000000000000000000000000000100064431002715SERGIO MURILO ALVES PEREIRA             RUA CARLOS ACIOLI                       CABUCU      26351270SAO JOAO DE MERRJUNIAO UMB DOS CULTOS AFRO BRAS    30031910 000005
10231987175000168817800093673    000037960                    000379600000000000000109                     I0237960     30031900000000040003410000017N261218104700000000000103003190000000000000000000000000000000000000000100055720277749MARIA DE FATIMA PEREIRA                 RUA CORONEL SEROA DA MOTA               SEPETIBA    23535040RIO DE JANEIRO RJUNIAO UMB DOS CULTOS AFRO BRAS    30031910 000006
10231987175000168817800093673    000037548                    000375480000000000000109                     I0237548     30031900000000040003410000017N261218104700000000000103003190000000000000000000000000000000000000000100012712280768JOAQUIM DE SOUZA FILHO - SANDR          RUA: DOM JOAO VI                        VILAR DOS TE25561090SAO JOAO DE MERRJUNIAO UMB DOS CULTOS AFRO BRAS    30031910 000007
10231987175000168817800093673    000036449                    000364490000000000000109                     I0236449     28021900000000040003410000017N261218104700000000000102802190000000000000000000000000000000000000000100069184585749MARIA DOLORES MARSAL NIN                RUA VINTE E SEIS                        BRISAMAR    23823380ITAGUAI        RJUNIAO UMB DOS CULTOS AFRO BRAS    28021910 000008
10231987175000168817800093673    000036396                    000363960000000000000109                     I0236396     28021900000000040003410000017N261218104700000000000102802190000000000000000000000000000000000000000100037551868704NAKAYRA DA MOTTA LOBO                   RUA DOUTOR ARTUR MARTINS                MUTUA       24460350SAO GONCALO    RJUNIAO UMB DOS CULTOS AFRO BRAS    28021910 000009
10231987175000168817800093673    000036085                    000360850000000000000109                     I0236085     28021900000000040003410000017N261218104700000000000102802190000000000000000000000000000000000000000100064431002715SERGIO MURILO ALVES PEREIRA             RUA CARLOS ACIOLI                       CABUCU      26351270SAO JOAO DE MERRJUNIAO UMB DOS CULTOS AFRO BRAS    28021910 000010
10231987175000168817800093673    000036045                    000360450000000000000109                     I0236045     28021900000000040003410000017N261218104700000000000102802190000000000000000000000000000000000000000100055720277749MARIA DE FATIMA PEREIRA                 RUA CORONEL SEROA DA MOTA               SEPETIBA    23535040RIO DE JANEIRO RJUNIAO UMB DOS CULTOS AFRO BRAS    28021910 000011
10231987175000168817800093673    000035789                    000357890000000000000109                     I0235789     28021900000000040003410000017N261218104700000000000102802190000000000000000000000000000000000000000100009886046716ANA CRISTINA DE ALMEIDA TRINDA          RUA COTIJUBA                            ROCHA MIRAND21555020RIO DE JANEIRO RJUNIAO UMB DOS CULTOS AFRO BRAS    28021910 000012
10231987175000168817800093673    000035636                    000356360000000000000109                     I0235636     28021900000000040003410000017N261218104700000000000102802190000000000000000000000000000000000000000100012712280768JOAQUIM DE SOUZA FILHO - SANDR          RUA: DOM JOAO VI                        VILAR DOS TE25561090SAO JOAO DE MERRJUNIAO UMB DOS CULTOS AFRO BRAS    28021910 000013
10231987175000168817800093673    000035434                    000354340000000000000109                     I0235434     31011900000000040003410000017N261218104700000000000103101190000000000000000000000000000000000000000100009350031779TAIS AZEVEDO DOS SANTOS CAMPOS          RUA: CLOTILDE DE OLIVEIRA RODRIGUES     FONSECA     24120170NITEROI        RJUNIAO UMB DOS CULTOS AFRO BRAS    31011910 000014
10231987175000168817800093673    000034540                    000345400000000000000109                     I0234540     31011900000000040003410000017N261218104700000000000103101190000000000000000000000000000000000000000100069184585749MARIA DOLORES MARSAL NIN                RUA VINTE E SEIS                        BRISAMAR    23823380ITAGUAI        RJUNIAO UMB DOS CULTOS AFRO BRAS    31011910 000015
10231987175000168817800093673    000034487                    000344870000000000000109                     I0234487     31011900000000040003410000017N261218104700000000000103101190000000000000000000000000000000000000000100037551868704NAKAYRA DA MOTTA LOBO                   RUA DOUTOR ARTUR MARTINS                MUTUA       24460350SAO GONCALO    RJUNIAO UMB DOS CULTOS AFRO BRAS    31011910 000016
10231987175000168817800093673    000034179                    000341790000000000000109                     I0234179     31011900000000040003410000017N261218104700000000000103101190000000000000000000000000000000000000000100064431002715SERGIO MURILO ALVES PEREIRA             RUA CARLOS ACIOLI                       CABUCU      26351270SAO JOAO DE MERRJUNIAO UMB DOS CULTOS AFRO BRAS    31011910 000017
10231987175000168817800093673    000033735                    000337350000000000000109                     I0233735     31011900000000040003410000017N261218104700000000000103101190000000000000000000000000000000000000000100012712280768JOAQUIM DE SOUZA FILHO - SANDR          RUA: DOM JOAO VI                        VILAR DOS TE25561090SAO JOAO DE MERRJUNIAO UMB DOS CULTOS AFRO BRAS    31011910 000018
10231987175000168817800093673    000032898                    000328980000000000000109                     I0232898     20121800000000350003410000017N291018104700000000000102012180000000000000000000000000000000000000000100045544085749LUCIANO PORTO DE MORAES                 RUA OLIMPIO DE CARVALHO                 AMENDOEIRA  24732440SAO GONCALO    RJUNIAO UMB DOS CULTOS AFRO BRAS    20121810 000019
10231987175000168817800093673    000031882                    000318820000000000000109                     I0231882     20121800000000350003410000017N291018104700000000000102012180000000000000000000000000000000000000000100069184585749MARIA DOLORES MARSAL NIN                RUA VINTE E SEIS                        BRISAMAR    23823380ITAGUAI        RJUNIAO UMB DOS CULTOS AFRO BRAS    20121810 000020
10231987175000168817800093673    000031808                    000318080000000000000109                     I0231808     20121800000000350003410000017N291018104700000000000102012180000000000000000000000000000000000000000100037551868704NAKAYRA DA MOTTA LOBO                   RUA DOUTOR ARTUR MARTINS                MUTUA       24460350SAO GONCALO    RJUNIAO UMB DOS CULTOS AFRO BRAS    20121810 000021
10231987175000168817800093673    000031329                    000313290000000000000109                     I0231329     20121800000000350003410000017N291018104700000000000102012180000000000000000000000000000000000000000100064431002715SERGIO MURILO ALVES PEREIRA             RUA CARLOS ACIOLI                       CABUCU      26351270SAO JOAO DE MERRJUNIAO UMB DOS CULTOS AFRO BRAS    20121810 000022
10231987175000168817800093673    000031122                    000311220000000000000109                     I0231122     20121800000000350003410000017N291018104700000000000102012180000000000000000000000000000000000000000100007812001725FLAVIA DA ROSA SANTANA                  RUA PEDRO TELES                         CENTRO      25515030SAO JOAO DE MERRJUNIAO UMB DOS CULTOS AFRO BRAS    20121810 000023
10231987175000168817800093673    000030648                    000306480000000000000109                     I0230648     20121800000000350003410000017N291018104700000000000102012180000000000000000000000000000000000000000100001796220728MARIA ROSA ALVES DA SILVA               RUA DOUTOR ARRUDA NEGREIRO              PARQUE SENHO25025325DUQUE DE CAXIASRJUNIAO UMB DOS CULTOS AFRO BRAS    20121810 000024
10231987175000168817800093673    000029367                    000293670000000000000109                     I0229367     20121800000000035003410000017N291018104700000000000102012180000000000000000000000000000000000000000100064431002715SERGIO MURILO ALVES PEREIRA             RUA CARLOS ACIOLI                       CABUCU      26351270SAO JOAO DE MERRJUNIAO UMB DOS CULTOS AFRO BRAS    20121810 000025
9                                                                                                                                                                                                                                                                                                                                                                                                         000026
