01REMESSA01COBRANCA       817800093673        União Umb dos Cultos Afro Bra341BANCO ITAU SA  250319                                                                                                                                                                                                                                                                                                      000001
10231987175000168817800093673    000044888                    000448880000000000000109                     I0144888     05041900000000200003410000017N250319104700000000000100504190000000000000000000000000000000000000000100027313590725JOAO BATISTA FERREIRA                   RUA TEIXEIRA PINTON 116,                ENGENHEIRO B25520210SAO JOAO DE MERRJUNIAO UMB DOS CULTOS AFRO BRAS    05041910 000002
10231987175000168817800093673    000044887                    000448870000000000000109                     I0144887     08041900000000120003410000017N250319104700000000000100804190000000000000000000000000000000000000000100081531095704ROSANA ALMEIDA SILVA                    RUA JOAQUIM MARIANO DE MOURA N 246,     PONTO CHIC  26032840NOVA IGUACU    RJUNIAO UMB DOS CULTOS AFRO BRAS    08041910 000003
10231987175000168817800093673    000044886                    000448860000000000000109                     I0144886     29031900000000155003410000017N250319104700000000000102903190000000000000000000000000000000000000000100010058913700RAMON DO NASCIMENTO MANES               RUA LIGIA N 329, CASA 1 FUNDOS          OLARIA      21073280RIO DE JANEIRO RJUNIAO UMB DOS CULTOS AFRO BRAS    29031910 000004
10231987175000168817800093673    000044885                    000448850000000000000109                     I0144885     29031900000000400003410000017N250319104700000000000102903190000000000000000000000000000000000000000224860815000109CENTRO AFRO BRASILEIRO CABOCLO          RUA CERESN 603,                         BANGU       21862070RIO DE JANEIRO RJUNIAO UMB DOS CULTOS AFRO BRAS    29031910 000005
10231987175000168817800093673    000044884                    000448840000000000000109                     I0144884     15041900000000350003410000017N250319104700000000000101504190000000000000000000000000000000000000000100088966330797ZENIRA DE CARVALHO CONCEICAO            AVENIDA ALMIRANTE AMORIM DO VALEN 25, QUMARAMBAIA   24724560SAO GONCALO    RJUNIAO UMB DOS CULTOS AFRO BRAS    15041910 000006
10231987175000168817800093673    000044873                    000448730000000000000109                     I0144873     10041900000000400003410000017N220319104700000000000101004190000000000000000000000000000000000000000100081473885787CELIA DA SILVA ALEXANDRE                AVENIDA MARECHAL FONTENELE N 4311, RUA SMAGALHAES BA21750000RIO DE JANEIRO RJUNIAO UMB DOS CULTOS AFRO BRAS    10041910 000007
10231987175000168817800093673    000039096                    000390960000000000000109                     I0239096     30031900000000040003410000017N261218104700000000000103003190000000000000000000000000000000000000000100056381832720DAVI LEMOS MOREIRA                      RUA CARLINDA N 250, TRIANGULO           VILA DE CAVA26052120NOVA IGUACU    RJUNIAO UMB DOS CULTOS AFRO BRAS    30031910 000008
10231987175000168817800093673    000038791                    000387910000000000000109                     I0238791     30031900000000040003410000017N261218104700000000000103003190000000000000000000000000000000000000000100004250914739ERIKA BARBOSA DOS SANTOS                AVENIDA ERNANI CARDOSON 53, FUNDOS CASA CASCADURA   21310310RIO DE JANEIRO RJUNIAO UMB DOS CULTOS AFRO BRAS    30031910 000009
10231987175000168817800093673    000038566                    000385660000000000000109                     I0238566     30031900000000040003410000017N261218104700000000000103003190000000000000000000000000000000000000000100086450328304ANA MARIA SOUZA MACIEL                  RUA DOUTOR ANTONIO LEALN 42,            HONORIO GURG21511070RIO DE JANEIRO RJUNIAO UMB DOS CULTOS AFRO BRAS    30031910 000010
10231987175000168817800093673    000038536                    000385360000000000000109                     I0238536     30031900000000040003410000017N261218104700000000000103003190000000000000000000000000000000000000000100088966330797ZENIRA DE CARVALHO CONCEICAO            AVENIDA ALMIRANTE AMORIM DO VALEN 25, QUMARAMBAIA   24724560SAO GONCALO    RJUNIAO UMB DOS CULTOS AFRO BRAS    30031910 000011
10231987175000168817800093673    000037881                    000378810000000000000109                     I0237881     30031900000000040003410000017N261218104700000000000103003190000000000000000000000000000000000000000100062822900744FATIMA LUCRECIA DE CARVALHO CA          ESTRADA RIO DO PAU N 1195, GERALDO DA COANCHIETA    21645520RIO DE JANEIRO RJUNIAO UMB DOS CULTOS AFRO BRAS    30031910 000012
10231987175000168817800093673    000037776                    000377760000000000000109                     I0237776     30031900000000040003410000017N261218104700000000000103003190000000000000000000000000000000000000000100028842723720HELENITA ANTONIA DE JESUS               RUA DIVINOLANDIAN 225, CASA 1           CAMPO GRANDE23066440RIO DE JANEIRO RJUNIAO UMB DOS CULTOS AFRO BRAS    30031910 000013
10231987175000168817800093673    000037693                    000376930000000000000109                     I0237693     30031900000000040003410000017N261218104700000000000103003190000000000000000000000000000000000000000100001650613750ELIZABETH CRISTIN DOS S. B. DA          RUA: GONDIM DA FONSECAN 36, APTº 103   PORTUGUESA -21931575RIO DE JANEIRO RJUNIAO UMB DOS CULTOS AFRO BRAS    30031910 000014
10231987175000168817800093673    000037524                    000375240000000000000109                     I0237524     30031900000000040003410000017N261218104700000000000103003190000000000000000000000000000000000000000100046674861715JORGE AILTON CORVINO DO NASCIM          RUA CLAUDINO BARATA N 122, FUNDOS  CASA REALENGO    21770200RIO DE JANEIRO RJUNIAO UMB DOS CULTOS AFRO BRAS    30031910 000015
10231987175000168817800093673    000037466                    000374660000000000000109                     I0237466     30031900000000040003410000017N261218104700000000000103003190000000000000000000000000000000000000000100068265280700SUELLEN DO NASCIMENTO OLIVEIRA          RUA CORONEL FRANCA LEITEN 450,          CHATUBA     26587111MESQUITA       RJUNIAO UMB DOS CULTOS AFRO BRAS    30031910 000016
10231987175000168817800093673    000037313                    000373130000000000000109                     I0237313     28021900000000040003410000017N261218104700000000000102802190000000000000000000000000000000000000000100093255586704GRECIETE GOUDARD                        ESTRADA DO CAMPINHON 4501,              CAMPO GRANDE23066540RIO DE JANEIRO RJUNIAO UMB DOS CULTOS AFRO BRAS    28021910 000017
10231987175000168817800093673    000037312                    000373120000000000000109                     I0237312     28021900000000040003410000017N261218104700000000000102802190000000000000000000000000000000000000000100079034780791PAULO ROBERTO DE SOUZA MORENO           RUA CORONEL MALHAESN 0, LOTE 6 QUADRA 38TIRADENTES  26351180NOVA IGUACU    RJUNIAO UMB DOS CULTOS AFRO BRAS    28021910 000018
10231987175000168817800093673    000037177                    000371770000000000000109                     I0237177     28021900000000040003410000017N261218104700000000000102802190000000000000000000000000000000000000000100056381832720DAVI LEMOS MOREIRA                      RUA CARLINDA N 250, TRIANGULO           VILA DE CAVA26052120NOVA IGUACU    RJUNIAO UMB DOS CULTOS AFRO BRAS    28021910 000019
10231987175000168817800093673    000037082                    000370820000000000000109                     I0237082     28021900000000040003410000017N261218104700000000000102802190000000000000000000000000000000000000000100054968330782REGINA DA MOTA TRINDADE                 RUA CORVILHA N 0, LOTE 5 QUADRA 351     PARADA MORAB25265353DUQUE DE CAXIASRJUNIAO UMB DOS CULTOS AFRO BRAS    28021910 000020
10231987175000168817800093673    000036872                    000368720000000000000109                     I0236872     28021900000000040003410000017N261218104700000000000102802190000000000000000000000000000000000000000100004250914739ERIKA BARBOSA DOS SANTOS                AVENIDA ERNANI CARDOSON 53, FUNDOS CASA CASCADURA   21310310RIO DE JANEIRO RJUNIAO UMB DOS CULTOS AFRO BRAS    28021910 000021
10231987175000168817800093673    000036804                    000368040000000000000109                     I0236804     28021900000000040003410000017N261218104700000000000102802190000000000000000000000000000000000000000100007804875754EVANDRO MEDEIROS DE OLIVEIRA            RUA: SESSENTA E QUATRON 0, LOTE 40 QUADRJARDIM ATLAN24934045MARICA         RJUNIAO UMB DOS CULTOS AFRO BRAS    28021910 000022
10231987175000168817800093673    000036649                    000366490000000000000109                     I0236649     28021900000000040003410000017N261218104700000000000102802190000000000000000000000000000000000000000100086450328304ANA MARIA SOUZA MACIEL                  RUA DOUTOR ANTONIO LEALN 42,            HONORIO GURG21511070RIO DE JANEIRO RJUNIAO UMB DOS CULTOS AFRO BRAS    28021910 000023
10231987175000168817800093673    000036619                    000366190000000000000109                     I0236619     28021900000000040003410000017N261218104700000000000102802190000000000000000000000000000000000000000100088966330797ZENIRA DE CARVALHO CONCEICAO            AVENIDA ALMIRANTE AMORIM DO VALEN 25, QUMARAMBAIA   24724560SAO GONCALO    RJUNIAO UMB DOS CULTOS AFRO BRAS    28021910 000024
10231987175000168817800093673    000035966                    000359660000000000000109                     I0235966     28021900000000040003410000017N261218104700000000000102802190000000000000000000000000000000000000000100062822900744FATIMA LUCRECIA DE CARVALHO CA          ESTRADA RIO DO PAU N 1195, GERALDO DA COANCHIETA    21645520RIO DE JANEIRO RJUNIAO UMB DOS CULTOS AFRO BRAS    28021910 000025
10231987175000168817800093673    000035800                    000358000000000000000109                     I0235800     28021900000000040003410000017N261218104700000000000102802190000000000000000000000000000000000000000222566211000129CENTRO ESPIRITA DA VOVO MARIA           RUA JOSE MACHADON 55,                   IRAJA       21361360RIO DE JANEIRO RJUNIAO UMB DOS CULTOS AFRO BRAS    28021910 000026
10231987175000168817800093673    000035780                    000357800000000000000109                     I0235780     28021900000000040003410000017N261218104700000000000102802190000000000000000000000000000000000000000100001650613750ELIZABETH CRISTIN DOS S. B. DA          RUA: GONDIM DA FONSECAN 36, APTº 103   PORTUGUESA -21931575RIO DE JANEIRO RJUNIAO UMB DOS CULTOS AFRO BRAS    28021910 000027
10231987175000168817800093673    000035612                    000356120000000000000109                     I0235612     28021900000000040003410000017N261218104700000000000102802190000000000000000000000000000000000000000100046674861715JORGE AILTON CORVINO DO NASCIM          RUA CLAUDINO BARATA N 122, FUNDOS  CASA REALENGO    21770200RIO DE JANEIRO RJUNIAO UMB DOS CULTOS AFRO BRAS    28021910 000028
10231987175000168817800093673    000035602                    000356020000000000000109                     I0235602     28021900000000040003410000017N261218104700000000000102802190000000000000000000000000000000000000000100081473885787CELIA DA SILVA ALEXANDRE                AVENIDA MARECHAL FONTENELE N 4311, RUA SMAGALHAES BA21750000RIO DE JANEIRO RJUNIAO UMB DOS CULTOS AFRO BRAS    28021910 000029
10231987175000168817800093673    000035554                    000355540000000000000109                     I0235554     28021900000000040003410000017N261218104700000000000102802190000000000000000000000000000000000000000100068265280700SUELLEN DO NASCIMENTO OLIVEIRA          RUA CORONEL FRANCA LEITEN 450,          CHATUBA     26587111MESQUITA       RJUNIAO UMB DOS CULTOS AFRO BRAS    28021910 000030
9                                                                                                                                                                                                                                                                                                                                                                                                         000031
