01REMESSA01COBRANCA       817800093673        União Umb dos Cultos Afro Bra341BANCO ITAU SA  190719                                                                                                                                                                                                                                                                                                      000001
10231987175000168817800093673    000048805                    000488050000000000000109                     I0248805     30091900000000040003410000017N100619105700000000000133009190000000000000000000000000000000000000000100000596984707MARGARETH WAMBURG DE SIQUEIRA           RUA SAO FRANCISCO XAVIERN 953,          MARACANA    20550013RIO DE JANEIRO RJUNIAO UMB DOS CULTOS AFRO BRAS    30091915 000002
21300920190000000000080                                                                                                                                                                                                                                                                                                                                                                                   000003
10231987175000168817800093673    000047366                    000473660000000000000109                     I0247366     30081900000000040003410000017N100619105700000000000133008190000000000000000000000000000000000000000100000596984707MARGARETH WAMBURG DE SIQUEIRA           RUA SAO FRANCISCO XAVIERN 953,          MARACANA    20550013RIO DE JANEIRO RJUNIAO UMB DOS CULTOS AFRO BRAS    30081915 000004
21300820190000000000080                                                                                                                                                                                                                                                                                                                                                                                   000005
10231987175000168817800093673    000046650                    000466500000000000000109                     I3446650     30071900000000040003410000017N100619105700000000000133007190000000000000000000000000000000000000000100000848852702RODNEY MARQUES                          RUA PEREIRA LEITAON 4, A                TURIACU     21550100RIO DE JANEIRO RJUNIAO UMB DOS CULTOS AFRO BRAS    30071915 000006
21300720190000000000080                                                                                                                                                                                                                                                                                                                                                                                   000007
10231987175000168817800093673    000045939                    000459390000000000000109                     I0245939     30071900000000040003410000017N100619105700000000000133007190000000000000000000000000000000000000000100000596984707MARGARETH WAMBURG DE SIQUEIRA           RUA SAO FRANCISCO XAVIERN 953,          MARACANA    20550013RIO DE JANEIRO RJUNIAO UMB DOS CULTOS AFRO BRAS    30071915 000008
21300720190000000000080                                                                                                                                                                                                                                                                                                                                                                                   000009
9                                                                                                                                                                                                                                                                                                                                                                                                         000010
