01REMESSA01COBRANCA       916200163100        União Umb dos Cultos Afro Bra341BANCO ITAU SA  020119                                                                                                                                                                                                                                                                                                      000001
10231987175000168916200163100    000039434                    000394340000000000000109                     I0139434     04011900000000350003410000017N020119104700000000000100401190000000000000000000000000000000000000000100003606187742WANDERLUCE GOMES DA SILVA               RUA TREZE DE MAIO                       CENTRO      25065190DUQUE DE CAXIASRJUNIAO UMB DOS CULTOS AFRO BRAS    04011910 000002
10231987175000168916200163100    000039433                    000394330000000000000109                     I0139433     04011900000000040003410000017N020119104700000000000100401190000000000000000000000000000000000000000100063579588753EDSON DOS SANTOS ROSA                   RUA VENANCIO ADRES                      GRAMACHO    25036170DUQUE DE CAXIASRJUNIAO UMB DOS CULTOS AFRO BRAS    04011910 000003
9                                                                                                                                                                                                                                                                                                                                                                                                         000004
