01REMESSA01COBRANCA       817800093673        União Umb dos Cultos Afro Bra341BANCO ITAU SA  091018                                                                                                                                                                                                                                                                                                      000001
10231987175000168817800093673    000028909                    000289090000000000000109                     I0128909     15101800000000035003410000017N091018104700000000000101510180000000000000000000000000000000000000000100000330025767NUBIA VIRGINIA DE ANDRADE MAGA          O MESMO                                 O MESMO     23573100RIO DE JANEIRO RJUNIAO UMB DOS CULTOS AFRO BRAS    15101810 000002
10231987175000168817800093673    000028908                    000289080000000000000109                     I0128908     15101800000000035003410000017N091018104700000000000101510180000000000000000000000000000000000000000100000330025767NUBIA VIRGINIA DE ANDRADE MAGA          O MESMO                                 O MESMO     23573100RIO DE JANEIRO RJUNIAO UMB DOS CULTOS AFRO BRAS    15101810 000003
10231987175000168817800093673    000028907                    000289070000000000000109                     I0128907     20121800000000035003410000017N091018104700000000000102012180000000000000000000000000000000000000000100000330025767NUBIA VIRGINIA DE ANDRADE MAGA          O MESMO                                 O MESMO     23573100RIO DE JANEIRO RJUNIAO UMB DOS CULTOS AFRO BRAS    20121810 000004
10231987175000168817800093673    000028906                    000289060000000000000109                     I0228906     15101800000000070003410000017N091018104700000000000101510180000000000000000000000000000000000000000100000330025767NUBIA VIRGINIA DE ANDRADE MAGA          O MESMO                                 O MESMO     23573100RIO DE JANEIRO RJUNIAO UMB DOS CULTOS AFRO BRAS    15101810 000005
10231987175000168817800093673    000028905                    000289050000000000000109                     I3428905     09101800000000040003410000017N091018104700000000000100910180000000000000000000000000000000000000000100010587941758JOANES ANICETO JUNIOR                   RUA BETEL                               INHAUMA     21061020RIO DE JANEIRO RJUNIAO UMB DOS CULTOS AFRO BRAS    09101810 000006
10231987175000168817800093673    000028904                    000289040000000000000109                     I0128904     20121800000000040003410000017N081018104700000000000102012180000000000000000000000000000000000000000100010587941758JOANES ANICETO JUNIOR                   RUA BETEL                               INHAUMA     21061020RIO DE JANEIRO RJUNIAO UMB DOS CULTOS AFRO BRAS    20121810 000007
10231987175000168817800093673    000028903                    000289030000000000000109                     I0128903     30111800000000040003410000017N081018104700000000000103011180000000000000000000000000000000000000000100010587941758JOANES ANICETO JUNIOR                   RUA BETEL                               INHAUMA     21061020RIO DE JANEIRO RJUNIAO UMB DOS CULTOS AFRO BRAS    30111810 000008
10231987175000168817800093673    000028902                    000289020000000000000109                     I0128902     15101800000000035003410000017N081018104700000000000101510180000000000000000000000000000000000000000100000617310726JOSE HENRIQUE PEREIRA DO NASCI          RUA: ZELINHO DE SOUZA                   CHACARA RIO 25230484DUQUE DE CAXIASRJUNIAO UMB DOS CULTOS AFRO BRAS    15101810 000009
10231987175000168817800093673    000028901                    000289010000000000000109                     I0128901     16101800000000300003410000017N081018104700000000000101610180000000000000000000000000000000000000000100004273880741SOLANGE VICTORIO DE CARVALHO            RUA CELIDONIA LOTE 10 QUADRA 3B         CINCO MARIAS23032610GUARATIBA      RJUNIAO UMB DOS CULTOS AFRO BRAS    16101810 000010
10231987175000168817800093673    000028900                    000289000000000000000109                     I0128900     30101800000000700003410000017N081018104700000000000103010180000000000000000000000000000000000000000100007336130712MIRIAN DOS SANTOS ALMEIDA               RUA EDGAR WERNEK                        JACAREPAGUA 22763011RIO DE JANEIRO RJUNIAO UMB DOS CULTOS AFRO BRAS    30101810 000011
10231987175000168817800093673    000028899                    000288990000000000000109                     I0128899     10101800000000070003410000017N081018104700000000000101010180000000000000000000000000000000000000000100063440512720SILVANA MANGIA DE SOUZA                 RUA ACANTO N 20                         BANGU - RJ  21830080RIO DE JANEIRO RJUNIAO UMB DOS CULTOS AFRO BRAS    10101810 000012
10231987175000168817800093673    000028529                    000285290000000000000109                     I0228529     30111800000000035003410000017N230818104700000000000103011180000000000000000000000000000000000000000100091307740715SERGIO FERREIRA DA SILVA                RUA: DO OURO                            SARAPUI     25050120DUQUE DE CAXIASRJUNIAO UMB DOS CULTOS AFRO BRAS    30111810 000013
10231987175000168817800093673    000028528                    000285280000000000000109                     I0228528     30101800000000035003410000017N230818104700000000000103010180000000000000000000000000000000000000000100091307740715SERGIO FERREIRA DA SILVA                RUA: DO OURO                            SARAPUI     25050120DUQUE DE CAXIASRJUNIAO UMB DOS CULTOS AFRO BRAS    30101810 000014
10231987175000168817800093673    000027485                    000274850000000000000109                     I3427485     30111800000000035003410000017N200818104700000000000103011180000000000000000000000000000000000000000100038370999700JULIO ALEXANDRE FERREIRA                RUA BARAO DE JACUI                      OSWALDO CRUZ21550310RIO DE JANEIRO RJUNIAO UMB DOS CULTOS AFRO BRAS    30111810 000015
10231987175000168817800093673    000027047                    000270470000000000000109                     I0227047     30091800000000035003410000017N200818104700000000000103009180000000000000000000000000000000000000000100000617310726JOSE HENRIQUE PEREIRA DO NASCI          RUA: ZELINHO DE SOUZA                   CHACARA RIO 25230484DUQUE DE CAXIASRJUNIAO UMB DOS CULTOS AFRO BRAS    30091810 000016
10231987175000168817800093673    000026688                    000266880000000000000109                     I0226688     30091800000000035003410000017N200818104700000000000103009180000000000000000000000000000000000000000100010880272308FERNANDA DOS SANTOS PEREIRA             RUA LINS DE VASCONCELOS                 LINS DE VASC20710130RIO DE JANEIRO RJUNIAO UMB DOS CULTOS AFRO BRAS    30091810 000017
10231987175000168817800093673    000026068                    000260680000000000000109                     I3426068     30091800000000035003410000017N200818104700000000000103009180000000000000000000000000000000000000000100038370999700JULIO ALEXANDRE FERREIRA                RUA BARAO DE JACUI                      OSWALDO CRUZ21550310RIO DE JANEIRO RJUNIAO UMB DOS CULTOS AFRO BRAS    30091810 000018
10231987175000168817800093673    000025807                    000258070000000000000109                     I0225807     30091800000000035003410000017N200818104700000000000103009180000000000000000000000000000000000000000100000330025767NUBIA VIRGINIA DE ANDRADE MAGA          O MESMO                                 O MESMO     23573100RIO DE JANEIRO RJUNIAO UMB DOS CULTOS AFRO BRAS    30091810 000019
10231987175000168817800093673    000024649                    000246490000000000000109                     I3424649     30101800000000035003410000017N200818104700000000000103010180000000000000000000000000000000000000000100038370999700JULIO ALEXANDRE FERREIRA                RUA BARAO DE JACUI                      OSWALDO CRUZ21550310RIO DE JANEIRO RJUNIAO UMB DOS CULTOS AFRO BRAS    30101810 000020
10231987175000168817800093673    000024523                    000245230000000000000109                     I3424523     30101800000000035003410000017N200818104700000000000103010180000000000000000000000000000000000000000100008763637707JUSSARA SILVA DE ALBUQUERQUE            RUA: ARGOS                              GUADALUPE   21660050RIO DE JANEIRO RJUNIAO UMB DOS CULTOS AFRO BRAS    30101810 000021
9                                                                                                                                                                                                                                                                                                                                                                                                         000022
