01REMESSA01COBRANCA       817800093673        União Umb dos Cultos Afro Bra341BANCO ITAU SA  140819                                                                                                                                                                                                                                                                                                      000001
10231987175000168817800093673    000054033                    000540330000000000000109                     I0154033     30091900000000040003410000017N140819105700000000000133009190000000000000000000000000000000000000000100080295576715DOLORES DAS GRACAS ADRIANO DE           RUA SOLDADO PRIM CANESN 0,  QUADRA 198 LGUARATIBA   23025420RIO DE JANEIRO RJUNIAO UMB DOS CULTOS AFRO BRAS    30091915 000002
21300920190000000000080                                                                                                                                                                                                                                                                                                                                                                                   000003
10231987175000168817800093673    000054032                    000540320000000000000109                     I0154032     30091900000000040003410000017N140819105700000000000133009190000000000000000000000000000000000000000100007003007754ALEXSANDRO SALUM GONCALVES              RUA A - DOISN 0, QUADRA 47 LOTE 2 - CAPOGUARATIBA   23020228RIO DE JANEIRO RJUNIAO UMB DOS CULTOS AFRO BRAS    30091915 000004
21300920190000000000080                                                                                                                                                                                                                                                                                                                                                                                   000005
10231987175000168817800093673    000054031                    000540310000000000000109                     I0154031     13091900000000650003410000017N140819105700000000002151309190000000000000000000000000000000000000000100011964838762CARLOS RENNAN CORREIA BORGES            RUA AMERICA DOURADAN 0, LOTE 8 QUADRA 34CAMPO GRANDE23088240RIO DE JANEIRO RJUNIAO UMB DOS CULTOS AFRO BRAS    13091915 000006
21130920190000000001300                                                                                                                                                                                                                                                                                                                                                                                   000007
10231987175000168817800093673    000054030                    000540300000000000000109                     I0154030     16081900000000040003410000017N140819105700000000000131608190000000000000000000000000000000000000000100053218833787MARLUCE SUELY DA SILVA                  RUA CHRISOSTOMO PIMENTEL DE OLIVEIRAN 63ANCHIETA    21645521RIO DE JANEIRO RJUNIAO UMB DOS CULTOS AFRO BRAS    16081915 000008
21160820190000000000080                                                                                                                                                                                                                                                                                                                                                                                   000009
10231987175000168817800093673    000054029                    000540290000000000000109                     I0154029     23081900000000040003410000017N140819105700000000000132308190000000000000000000000000000000000000000100008486144612BRUNO FELIPE KALIL HOMSE                RUA FRANCISCO SALESN 663,               CENTRO      37550214POUSO ALEGRE   MGUNIAO UMB DOS CULTOS AFRO BRAS    23081915 000010
21230820190000000000080                                                                                                                                                                                                                                                                                                                                                                                   000011
10231987175000168817800093673    000054028                    000540280000000000000109                     I0154028     19081900000000040003410000017N140819105700000000000131908190000000000000000000000000000000000000000100053218833787MARLUCE SUELY DA SILVA                  RUA CHRISOSTOMO PIMENTEL DE OLIVEIRAN 63ANCHIETA    21645521RIO DE JANEIRO RJUNIAO UMB DOS CULTOS AFRO BRAS    19081915 000012
21190820190000000000080                                                                                                                                                                                                                                                                                                                                                                                   000013
10231987175000168817800093673    000052855                    000528550000000000000109                     I0252855     30081900000000250003410000017N020819105700000000000833008190000000000000000000000000000000000000000100002154760775JOSEFA SANTANA DA SILVA                 RUA CACHOEIRA ALTAN 0, QUADRA 105 LOTE 1GUARATIBA   23031070RIO DE JANEIRO RJUNIAO UMB DOS CULTOS AFRO BRAS    30081915 000014
21300820190000000000500                                                                                                                                                                                                                                                                                                                                                                                   000015
10231987175000168817800093673    000051661                    000516610000000000000109                     I0251661     30081900000000250003410000017N020819105700000000000833008190000000000000000000000000000000000000000100080295576715DOLORES DAS GRACAS ADRIANO DE           RUA SOLDADO PRIM CANESN 0,  QUADRA 198 LGUARATIBA   23025420RIO DE JANEIRO RJUNIAO UMB DOS CULTOS AFRO BRAS    30081915 000016
21300820190000000000500                                                                                                                                                                                                                                                                                                                                                                                   000017
10231987175000168817800093673    000050079                    000500790000000000000109                     I0250079     10091900000000200003410000017N010819105700000000000661009190000000000000000000000000000000000000000100016185111730LUCAS FABIANO SANTOS FEIJO              AVENIDA JOSE GUIDAN 90, CASA 2          NOSSA SENHOR26443100JAPERI         RJUNIAO UMB DOS CULTOS AFRO BRAS    10091915 000018
21100920190000000000400                                                                                                                                                                                                                                                                                                                                                                                   000019
10231987175000168817800093673    000049560                    000495600000000000000109                     I0249560     30091900000000040003410000017N100619105700000000000133009190000000000000000000000000000000000000000100029040973768NELSON PEREIRA DE CARVALHO              RUA DO CAMPON 35,                       CONCEICAO DE23885000MANGARATIBA    RJUNIAO UMB DOS CULTOS AFRO BRAS    30091915 000020
21300920190000000000080                                                                                                                                                                                                                                                                                                                                                                                   000021
10231987175000168817800093673    000048113                    000481130000000000000109                     I0248113     30081900000000040003410000017N100619105700000000000133008190000000000000000000000000000000000000000100029040973768NELSON PEREIRA DE CARVALHO              RUA DO CAMPON 35,                       CONCEICAO DE23885000MANGARATIBA    RJUNIAO UMB DOS CULTOS AFRO BRAS    30081915 000022
21300820190000000000080                                                                                                                                                                                                                                                                                                                                                                                   000023
10231987175000168817800093673    000046678                    000466780000000000000109                     I0246678     30071900000000040003410000017N100619105700000000000133007190000000000000000000000000000000000000000100029040973768NELSON PEREIRA DE CARVALHO              RUA DO CAMPON 35,                       CONCEICAO DE23885000MANGARATIBA    RJUNIAO UMB DOS CULTOS AFRO BRAS    30071915 000024
21300720190000000000080                                                                                                                                                                                                                                                                                                                                                                                   000025
10231987175000168817800093673    000046476                    000464760000000000000109                     I0246476     30071900000000040003410000017N100619105700000000000133007190000000000000000000000000000000000000000100053218833787MARLUCE SUELY DA SILVA                  RUA CHRISOSTOMO PIMENTEL DE OLIVEIRAN 63ANCHIETA    21645521RIO DE JANEIRO RJUNIAO UMB DOS CULTOS AFRO BRAS    30071915 000026
21300720190000000000080                                                                                                                                                                                                                                                                                                                                                                                   000027
10231987175000168817800093673    000046337                    000463370000000000000109                     I0246337     30071900000000040003410000017N100619105700000000000133007190000000000000000000000000000000000000000100011304690776FABIO DIAS DA SILVA                     RUA CAPITAO MACHADON 604, CASAS 2 E 3   PRACA SECA  21320030RIO DE JANEIRO RJUNIAO UMB DOS CULTOS AFRO BRAS    30071915 000028
21300720190000000000080                                                                                                                                                                                                                                                                                                                                                                                   000029
10231987175000168817800093673    000046085                    000460850000000000000109                     I0246085     30071900000000040003410000017N100619105700000000000133007190000000000000000000000000000000000000000100070175225753LEDA FERREIRA FIGUEIREDO                RUA SANTA ROSAN 94,                     BENTO RIBEIR21331420RIO DE JANEIRO RJUNIAO UMB DOS CULTOS AFRO BRAS    30071915 000030
21300720190000000000080                                                                                                                                                                                                                                                                                                                                                                                   000031
10231987175000168817800093673    000045958                    000459580000000000000109                     I0245958     30071900000000040003410000017N100619105700000000000133007190000000000000000000000000000000000000000100008486144612BRUNO FELIPE KALIL HOMSE                RUA FRANCISCO SALESN 663,               CENTRO      37550214POUSO ALEGRE   MGUNIAO UMB DOS CULTOS AFRO BRAS    30071915 000032
21300720190000000000080                                                                                                                                                                                                                                                                                                                                                                                   000033
10231987175000168817800093673    000045514                    000455140000000000000109                     I0245514     30071900000000040003410000017N100619105700000000000133007190000000000000000000000000000000000000000100088033945753JOSE RICARDO RIBEIRO DE AMORIM          RUA IGARATAN 994, CASA 1                MARECHAL HER21555250RIO DE JANEIRO RJUNIAO UMB DOS CULTOS AFRO BRAS    30071915 000034
21300720190000000000080                                                                                                                                                                                                                                                                                                                                                                                   000035
10231987175000168817800093673    000045232                    000452320000000000000109                     I0245232     30061900000000040003410000017N060519105700000000000133006190000000000000000000000000000000000000000100011304690776FABIO DIAS DA SILVA                     RUA CAPITAO MACHADON 604, CASAS 2 E 3   PRACA SECA  21320030RIO DE JANEIRO RJUNIAO UMB DOS CULTOS AFRO BRAS    30061915 000036
21300620190000000000080                                                                                                                                                                                                                                                                                                                                                                                   000037
9                                                                                                                                                                                                                                                                                                                                                                                                         000038
