01REMESSA01COBRANCA       817800093673        União Umb dos Cultos Afro Bra341BANCO ITAU SA  270519                                                                                                                                                                                                                                                                                                      000001
10231987175000168817800093673    000045312                    000453120000000000000109                     I0145312     31051900000000040003410000017N250519105700000000000103105190000000000000000000000000000000000000000100047783877753RAIMUNDO NONATO VALENCA RIBEIR          AVENIDA PREFEITO BRAULINO DE MATOS REISNVILA LEOPOLD25060445DUQUE DE CAXIASRJUNIAO UMB DOS CULTOS AFRO BRAS    31051915 000002
10231987175000168817800093673    000045069                    000450690000000000000109                     I0245069     26041900000000200003410000017N160419105700000000000102604190000000000000000000000000000000000000000100003250570796VERONICA LUCIA DA CRUZ                  ESTRADA DOUTOR FARRULAN 0, LOTE 8 QUADRASAO FRANCISC26125400BELFORD ROXO   RJUNIAO UMB DOS CULTOS AFRO BRAS    26041915 000003
10231987175000168817800093673    000045063                    000450630000000000000109                     I3445063     30061900000000040003410000017N160419105700000000000103006190000000000000000000000000000000000000000100074878360704KATIA MARIA DA SILVA PINTO              RUA BARBOSA RODRIGUESN 23,              ENGENHEIRO L21370160RIO DE JANEIRO RJUNIAO UMB DOS CULTOS AFRO BRAS    30061915 000004
10231987175000168817800093673    000045062                    000450620000000000000109                     I3445062     30051900000000040003410000017N160419105700000000000103005190000000000000000000000000000000000000000100074878360704KATIA MARIA DA SILVA PINTO              RUA BARBOSA RODRIGUESN 23,              ENGENHEIRO L21370160RIO DE JANEIRO RJUNIAO UMB DOS CULTOS AFRO BRAS    30051915 000005
10231987175000168817800093673    000045057                    000450570000000000000109                     I0245057     17041900000000040003410000017N120419105700000000000101704190000000000000000000000000000000000000000221568459000166ABASSA D OYA BALE                       RUA JOAO AUGUSTO PAIVAN 45,             JARDINS     23890049SEROPEDICA     RJUNIAO UMB DOS CULTOS AFRO BRAS    17041915 000006
10231987175000168817800093673    000045021                    000450210000000000000109                     I0245021     20041900000000080003410000017N080419105700000000000102004190000000000000000000000000000000000000000100007446571721ANDREA GUEDES PINHEIRO GOMES            RUA ADOLFO BERGAMININ 155, CASA 1       CENTRO      26535590NILOPOLIS      RJUNIAO UMB DOS CULTOS AFRO BRAS    20041915 000007
10231987175000168817800093673    000045020                    000450200000000000000109                     I0245020     20041900000000040003410000017N080419105700000000000102004190000000000000000000000000000000000000000100075627965720CATIA OLIVEIRA CARNEIRO                 AVENIDA PARANAPUAMN 1793, CASA 101      TAUA - ILHA 21910253RIO DE JANEIRO RJUNIAO UMB DOS CULTOS AFRO BRAS    20041915 000008
10231987175000168817800093673    000044993                    000449930000000000000109                     I0244993     20041900000000040003410000017N040419105700000000000102004190000000000000000000000000000000000000000100011152568744PAULO ROBERTO CAMARA DOS SANTO          RUA DESEMBARGADOR GASTAO MACEDON 118,   PRACA SECA  21321140RIO DE JANEIRO RJUNIAO UMB DOS CULTOS AFRO BRAS    20041915 000009
10231987175000168817800093673    000044980                    000449800000000000000109                     I0244980     20041900000000400003410000017N030419105700000000000102004190000000000000000000000000000000000000000100004524099778CRISTIANE VIEIRA DAS CHAGAS             AVENIDA FLAMBOYNTS N 100, BLOCO 2 APT 50BARRA DA TIJ22776070RIO DE JANEIRO RJUNIAO UMB DOS CULTOS AFRO BRAS    20041915 000010
10231987175000168817800093673    000044947                    000449470000000000000109                     I0244947     10041900000000160003410000017N010419105700000000000101004190000000000000000000000000000000000000000100007546526701MARIA FERNANDA ALVES DA SILVA           RUA: COMANDANTE MAGALHAES DE ALMEIDA N 4MARECHAL HER21610260RIO DE JANEIRO RJUNIAO UMB DOS CULTOS AFRO BRAS    10041915 000011
10231987175000168817800093673    000044917                    000449170000000000000109                     I0244917     20041900000000200003410000017N280319105700000000000102004190000000000000000000000000000000000000000100053542886734MARIA LUCIA SOARES PONCE                RUA MAJOR VITOR HUGON 71,               VILA KOSMOS 21221010RIO DE JANEIRO RJUNIAO UMB DOS CULTOS AFRO BRAS    20041915 000012
10231987175000168817800093673    000044915                    000449150000000000000109                     I0244915     15041900000000120003410000017N280319105700000000000101504190000000000000000000000000000000000000000100004162486751IVONETE CRISTINA MARTINS MACHA          RUA DO CATETEN 5, FUNDOS                VILA LEOPOLD25060230DUQUE DE CAXIASRJUNIAO UMB DOS CULTOS AFRO BRAS    15041915 000013
10231987175000168817800093673    000044913                    000449130000000000000109                     I0244913     10041900000000100003410000017N280319105700000000000101004190000000000000000000000000000000000000000100067348793720MARCIO DE SOUZA MOURA                   RUA CAJUIPEN 110,                       BONSUCESSO  21060490RIO DE JANEIRO RJUNIAO UMB DOS CULTOS AFRO BRAS    10041915 000014
10231987175000168817800093673    000044912                    000449120000000000000109                     I0244912     20041900000000700003410000017N280319105700000000000102004190000000000000000000000000000000000000000100010593660706IGOR ANDRE AZEVEDO DE SOUZA             RUA IRMA DULCEN 0, LOTE 14 QUADRA 47    SANTA LUCIA 25275650DUQUE DE CAXIASRJUNIAO UMB DOS CULTOS AFRO BRAS    20041915 000015
10231987175000168817800093673    000044905                    000449050000000000000109                     I0244905     01041900000000120003410000017N270319105700000000000100104190000000000000000000000000000000000000000100039341887704NORMA AYRES DA SILVA                    RUA VALENCA N 245,                      BAR DOS CAVA25015590DUQUE DE CAXIASRJUNIAO UMB DOS CULTOS AFRO BRAS    01041915 000016
10231987175000168817800093673    000044903                    000449030000000000000109                     I0244903     15041900000000020003410000017N270319105700000000000101504190000000000000000000000000000000000000000100042799023720MARIA DAS DORES SANTOS                  ESTRADA DO AREAL N 4,                   BOA VISTA DA27165000BARRA DO PIRAI RJUNIAO UMB DOS CULTOS AFRO BRAS    15041915 000017
10231987175000168817800093673    000044888                    000448880000000000000109                     I0244888     05041900000000200003410000017N250319105700000000000100504190000000000000000000000000000000000000000100027313590725JOAO BATISTA FERREIRA                   RUA TEIXEIRA PINTON 116,                ENGENHEIRO B25520210SAO JOAO DE MERRJUNIAO UMB DOS CULTOS AFRO BRAS    05041915 000018
10231987175000168817800093673    000044886                    000448860000000000000109                     I0244886     29031900000000155003410000017N250319105700000000000102903190000000000000000000000000000000000000000100010058913700RAMON DO NASCIMENTO MANES               RUA LIGIAN 329, CASA 1 FUNDOS           OLARIA      21073280RIO DE JANEIRO RJUNIAO UMB DOS CULTOS AFRO BRAS    29031915 000019
10231987175000168817800093673    000044885                    000448850000000000000109                     I0244885     29031900000000400003410000017N250319105700000000000102903190000000000000000000000000000000000000000224860815000109CENTRO AFRO BRASILEIRO CABOCLO          RUA CERESN 603,                         BANGU       21862070RIO DE JANEIRO RJUNIAO UMB DOS CULTOS AFRO BRAS    29031915 000020
10231987175000168817800093673    000044884                    000448840000000000000109                     I0244884     15041900000000350003410000017N250319105700000000000101504190000000000000000000000000000000000000000100088966330797ZENIRA DE CARVALHO CONCEICAO            AVENIDA ALMIRANTE AMORIM DO VALEN 25, QUMARAMBAIA   24724560SAO GONCALO    RJUNIAO UMB DOS CULTOS AFRO BRAS    15041915 000021
10231987175000168817800093673    000044873                    000448730000000000000109                     I0244873     10041900000000400003410000017N220319105700000000000101004190000000000000000000000000000000000000000100081473885787CELIA DA SILVA ALEXANDRE                AVENIDA MARECHAL FONTENELLEN 4311, RUA SJARDIM SULAC21750000RIO DE JANEIRO RJUNIAO UMB DOS CULTOS AFRO BRAS    10041915 000022
10231987175000168817800093673    000044870                    000448700000000000000109                     I0244870     20041900000000350003410000017N220319105700000000000102004190000000000000000000000000000000000000000100064250121704ANGELA MARIA BRAZ MANHAES               RUA JUTAIN 0,  LOTE 20 QUADRA 151       PERIQUITO   25025290DUQUE DE CAXIASRJUNIAO UMB DOS CULTOS AFRO BRAS    20041915 000023
10231987175000168817800093673    000044867                    000448670000000000000109                     I0244867     29031900000000040003410000017N220319105700000000000102903190000000000000000000000000000000000000000100007446571721ANDREA GUEDES PINHEIRO GOMES            RUA ADOLFO BERGAMININ 155, CASA 1       CENTRO      26535590NILOPOLIS      RJUNIAO UMB DOS CULTOS AFRO BRAS    29031915 000024
10231987175000168817800093673    000044863                    000448630000000000000109                     I0244863     05041900000000040003410000017N210319105700000000000100504190000000000000000000000000000000000000000100071411780744ZULTAMAR MESQUITA DE ALMEIDA            RUA CORONEL JOSE MUNIZN 554,            OLINDA      26545060NILOPOLIS      RJUNIAO UMB DOS CULTOS AFRO BRAS    05041915 000025
10231987175000168817800093673    000044862                    000448620000000000000109                     I0244862     29031900000000120003410000017N210319105700000000000102903190000000000000000000000000000000000000000100072461780749FATIMA GARCIA                           RUA: ALICE TIBIRICA N 251, APT 101      VILA DA PENH21210110RIO DE JANEIRO RJUNIAO UMB DOS CULTOS AFRO BRAS    29031915 000026
10231987175000168817800093673    000039874                    000398740000000000000109                     I0239874     31031900000000040003410000017N120319105700000000000103103190000000000000000000000000000000000000000100099586800768MARLECI NAVARRO DE FARIA                AVENIDA TENENTE REBELON 381, APT 303    IRAJA       21230075RIO DE JANEIRO RJUNIAO UMB DOS CULTOS AFRO BRAS    31031915 000027
10231987175000168817800093673    000039873                    000398730000000000000109                     I0239873     31031900000000040003410000017N120319105700000000000103103190000000000000000000000000000000000000000100099586800768MARLECI NAVARRO DE FARIA                AVENIDA TENENTE REBELON 381, APT 303    IRAJA       21230075RIO DE JANEIRO RJUNIAO UMB DOS CULTOS AFRO BRAS    31031915 000028
10231987175000168817800093673    000039854                    000398540000000000000109                     I0239854     30031900000000040003410000017N280219105700000000000103003190000000000000000000000000000000000000000100066638682768VALERIA COELHO DA SILVA                 RUA DOUTOR ALFREDO BARCELOS N 381, CASA OLARIA      21021421RIO DE JANEIRO RJUNIAO UMB DOS CULTOS AFRO BRAS    30031915 000029
10231987175000168817800093673    000039800                    000398000000000000000109                     I0239800     29031900000000040003410000017N150219105700000000000102903190000000000000000000000000000000000000000100013845707720VAGNER MACENA DE ANDRADE                RUA MARIA HELENAN 170,                  CIDADE HORAC25931346MAGE           RJUNIAO UMB DOS CULTOS AFRO BRAS    29031915 000030
10231987175000168817800093673    000039778                    000397780000000000000109                     I0239778     29031900000000040003410000017N120219105700000000000102903190000000000000000000000000000000000000000100060714921734MARIA DAS GRACAS DAVID RIBEIRO          RUA 18N 383,                            LOTEAMENTO E28890828RIO DAS OSTRAS RJUNIAO UMB DOS CULTOS AFRO BRAS    29031915 000031
10231987175000168817800093673    000039732                    000397320000000000000109                     I0239732     30031900000000040003410000017N050219105700000000000103003190000000000000000000000000000000000000000230470572000103TENDA UMBANDISTA VOVO MARIA CO          RUA: JABUTICABEIRAN 52, CASA 1          SENADOR CAMA23010450RIO DE JANEIRO RJUNIAO UMB DOS CULTOS AFRO BRAS    30031915 000032
10231987175000168817800093673    000039727                    000397270000000000000109                     I0239727     29031900000000040003410000017N050219105700000000000102903190000000000000000000000000000000000000000100079769985449MARIA DA PENHA DA CONCEICAO             RUA SAO FELIX N 30, QUADRA 46 LOTE 607  VILA SANTA C25260107DUQUE DE CAXIASRJUNIAO UMB DOS CULTOS AFRO BRAS    29031915 000033
10231987175000168817800093673    000039718                    000397180000000000000109                     I0239718     30031900000000040003410000017N040219105700000000000103003190000000000000000000000000000000000000000100087188775753LETICIA SANTOS RIBEIRO                  RUA PROJETADA BN 0, LOTE 7 QUADRA A     SANTISSIMO  23093327RIO DE JANEIRO RJUNIAO UMB DOS CULTOS AFRO BRAS    30031915 000034
10231987175000168817800093673    000039661                    000396610000000000000109                     I0239661     31031900000000040003410000017N290119105700000000000103103190000000000000000000000000000000000000000100005414691770UANDERSON DE SOUZA XAVIER               RUA: ALFREDO MANSURN 130,               MORRO GAMA  27150430BARRA DO PIRAI RJUNIAO UMB DOS CULTOS AFRO BRAS    31031915 000035
10231987175000168817800093673    000039659                    000396590000000000000109                     I0239659     31031900000000025003410000017N280119105700000000000103103190000000000000000000000000000000000000000100052329160763NENI GOMES DE ALMEIDA                   RUA MARIA SANTANA FERNANDESN 0, LOTE 8 QJARDINS     23890052SEROPEDICA     RJUNIAO UMB DOS CULTOS AFRO BRAS    31031915 000036
10231987175000168817800093673    000039656                    000396560000000000000109                     I0239656     29031900000000040003410000017N280119105700000000000102903190000000000000000000000000000000000000000100000729885763MANOEL BENEDITO DOS SANTOS              RUA CEARA N 151,                        CIDADE BEIRA28890200RIO DAS OSTRAS RJUNIAO UMB DOS CULTOS AFRO BRAS    29031915 000037
10231987175000168817800093673    000039569                    000395690000000000000109                     I0239569     31031900000000040003410000017N140119105700000000000103103190000000000000000000000000000000000000000100085838284749NILCE DOS SANTOS GABRIEL                AVENIDA VICENTE DE CARVALHON 1086, RUA FVICENTE DE C21210000RIO DE JANEIRO RJUNIAO UMB DOS CULTOS AFRO BRAS    31031915 000038
10231987175000168817800093673    000039556                    000395560000000000000109                     I0239556     31031900000000040003410000017N110119105700000000000103103190000000000000000000000000000000000000000100010880272708FERNANDA DOS SANTOS PEREIRA             RUA LINS DE VASCONCELOSN 593,           LINS DE VASC20710130RIO DE JANEIRO RJUNIAO UMB DOS CULTOS AFRO BRAS    31031915 000039
10231987175000168817800093673    000039535                    000395350000000000000109                     I0239535     31031900000000040003410000017N100119105700000000000103103190000000000000000000000000000000000000000100002325846725ISRAEL AUGUSTO NUNES CALDEIRAO          RUA: FERNAN CARDIM N 0, LOTE 1 QUADRA 14OLAVO BILAC 25025400RIO DE JANEIRO RJUNIAO UMB DOS CULTOS AFRO BRAS    31031915 000040
10231987175000168817800093673    000039401                    000394010000000000000109                     I0239401     31031900000000040003410000017N271218105700000000000103103190000000000000000000000000000000000000000100006067864738MARLY ROSA DIAS CUNHA                   RUA: MARARIN 196, CASA 1                BRAZ DE PINA21011200RIO DE JANEIRO RJUNIAO UMB DOS CULTOS AFRO BRAS    31031915 000041
10231987175000168817800093673    000039398                    000393980000000000000109                     I0239398     31031900000000040003410000017N271218105700000000000103103190000000000000000000000000000000000000000100059962615704ILMA DA SILVA PETRONILHO                RUA: ARINDAN 318,                       VILA DE CAVA26052640NOVA IGUACU    RJUNIAO UMB DOS CULTOS AFRO BRAS    31031915 000042
10231987175000168817800093673    000039389                    000393890000000000000109                     I0239389     30031900000000040003410000017N271218105700000000000103003190000000000000000000000000000000000000000100085488526749MARCOS ROMEU DA SILVA                   CAMINHO DO VELOSON 836, CASA 4          CAMPO GRANDE23013090RIO DE JANEIRO RJUNIAO UMB DOS CULTOS AFRO BRAS    30031915 000043
10231987175000168817800093673    000039385                    000393850000000000000109                     I0239385     31031900000000040003410000017N261218105700000000000103103190000000000000000000000000000000000000000100088033945753JOSE RICARDO RIBEIRO DE AMORIM          RUA IGARATAN 994, CASA 1                MARECHAL HER21555250RIO DE JANEIRO RJUNIAO UMB DOS CULTOS AFRO BRAS    31031915 000044
10231987175000168817800093673    000039369                    000393690000000000000109                     I0239369     30031900000000040003410000017N261218105700000000000103003190000000000000000000000000000000000000000100004131909782SIMONE ANCHIETA DE AMORIM               RUA CAROLINA CARDOSON 0, FD LT 3 QD 1   PILAR       25233150DUQUE DE CAXIASRJUNIAO UMB DOS CULTOS AFRO BRAS    30031915 000045
10231987175000168817800093673    000039363                    000393630000000000000109                     I0239363     30031900000000040003410000017N261218105700000000000103003190000000000000000000000000000000000000000229148311000184CANTINHO DO VOVO REI CONGO E O          RUA CONSELHEIRO AGOSTINHON 55, APARTAMENCACHAMBI    20770160RIO DE JANEIRO RJUNIAO UMB DOS CULTOS AFRO BRAS    30031915 000046
10231987175000168817800093673    000039362                    000393620000000000000109                     I0239362     30031900000000040003410000017N261218105700000000000103003190000000000000000000000000000000000000000100005948651746DIOGO RODRIGUES DOS SANTOS              RUA PETER LUNDN 38, BLOCO 1 APT 407     SAO CRISTOVA20930390RIO DE JANEIRO RJUNIAO UMB DOS CULTOS AFRO BRAS    30031915 000047
10231987175000168817800093673    000039358                    000393580000000000000109                     I0239358     30031900000000040003410000017N261218105700000000000103003190000000000000000000000000000000000000000100008109127754DAMIANA CRISTINA SILVA DOS SAN          RUA IGARAPE N 203,                      JARDIM OLAVO25025340DUQUE DE CAXIASRJUNIAO UMB DOS CULTOS AFRO BRAS    30031915 000048
10231987175000168817800093673    000039357                    000393570000000000000109                     I0239357     30031900000000040003410000017N261218105700000000000103003190000000000000000000000000000000000000000100005170208740DJAIR DE PAULA CAVALCANTI               RUA RESTINGAN 0, LOTE 11 QUADRA 35 A - SCAMPO GRANDE23097650RIO DE JANEIRO RJUNIAO UMB DOS CULTOS AFRO BRAS    30031915 000049
10231987175000168817800093673    000039356                    000393560000000000000109                     I0239356     30031900000000040003410000017N261218105700000000000103003190000000000000000000000000000000000000000100029040973768NELSON PEREIRA DE CARVALHO              RUA DO CAMPON 35,                       CONCEICAO DE23885000MANGARATIBA    RJUNIAO UMB DOS CULTOS AFRO BRAS    30031915 000050
10231987175000168817800093673    000039354                    000393540000000000000109                     I0239354     30031900000000040003410000017N261218105700000000000103003190000000000000000000000000000000000000000100010953053792DANIELE FERNANDES DE CARVALHO           RUA BARROSON 0, CASA 1 LOTE 30 QUADRA 97JARDIM CABUC26291428NOVA IGUACU    RJUNIAO UMB DOS CULTOS AFRO BRAS    30031915 000051
10231987175000168817800093673    000039352                    000393520000000000000109                     I0239352     30031900000000040003410000017N261218105700000000000103003190000000000000000000000000000000000000000100009001361706SOLANGE DE SOUZA                        RUA PRUDENTE DE MORAISN 416,            IPANEMA     22420040RIO DE JANEIRO RJUNIAO UMB DOS CULTOS AFRO BRAS    30031915 000052
10231987175000168817800093673    000039350                    000393500000000000000109                     I0239350     30031900000000040003410000017N261218105700000000000103003190000000000000000000000000000000000000000100001510995706JUPIRA FARIAS DE MATTOS                 ESTRADA ALARICO DE SOUZAN 703, CASA 2   LARGO DA BAT24315320NITEROI        RJUNIAO UMB DOS CULTOS AFRO BRAS    30031915 000053
10231987175000168817800093673    000039349                    000393490000000000000109                     I0239349     30031900000000040003410000017N261218105700000000000103003190000000000000000000000000000000000000000100003544254719EDIJANE PINHEIRO DE LIMA                RUA: DOIS DE JANEIRON 0, LOTE 54 QUADRA CAMPO GRANDE23097588RIO DE JANEIRO RJUNIAO UMB DOS CULTOS AFRO BRAS    30031915 000054
10231987175000168817800093673    000039346                    000393460000000000000109                     I0239346     30031900000000040003410000017N261218105700000000000103003190000000000000000000000000000000000000000100002171972726RAQUEL DE SOUZA MENESES                 RUA ROMERO ZANDER N 271, ENTRADA A - AP RAMOS       21040080RIO DE JANEIRO RJUNIAO UMB DOS CULTOS AFRO BRAS    30031915 000055
10231987175000168817800093673    000039345                    000393450000000000000109                     I0239345     30031900000000040003410000017N261218105700000000000103003190000000000000000000000000000000000000000100007245028745SANDRA REGINA MARQUES                   RUA MIGUEL UNAMUNON 0, LOTE 18 QUADRA 4 JARDIM ROTSE25270120DUQUE DE CAXIASRJUNIAO UMB DOS CULTOS AFRO BRAS    30031915 000056
10231987175000168817800093673    000039344                    000393440000000000000109                     I0239344     30031900000000040003410000017N261218105700000000000103003190000000000000000000000000000000000000000100050660098768ENI MARIA DA CONCEICAO DE MOUR          RUA IPIRANGAN 0, LOTE 24 E 25           BARRO BRANCO25267365DUQUE DE CAXIASRJUNIAO UMB DOS CULTOS AFRO BRAS    30031915 000057
10231987175000168817800093673    000039338                    000393380000000000000109                     I0239338     30031900000000040003410000017N261218105700000000000103003190000000000000000000000000000000000000000100088763765772VERONICA CECILIA DE AGUIAR              RUA LAURELINO FREIREN 101, CASA 7       GUAXINDIBA  24722330SAO GONCALO    RJUNIAO UMB DOS CULTOS AFRO BRAS    30031915 000058
10231987175000168817800093673    000039337                    000393370000000000000109                     I0239337     30031900000000040003410000017N261218105700000000000103003190000000000000000000000000000000000000000100000840541740JUCIARA GONCALVES NEPOMUCENO            RUA CASTRO VIEIRAN 174,                 AREIA BRANCA26112360BELFORD ROXO   RJUNIAO UMB DOS CULTOS AFRO BRAS    30031915 000059
10231987175000168817800093673    000039334                    000393340000000000000109                     I0239334     30031900000000040003410000017N261218105700000000000103003190000000000000000000000000000000000000000100009142845769MICHELE OAZEM MINEIRO                   RUA CARIOCAN 0, LOTE 10 QUADRA B        SAO BERNARDO26167210BELFORD ROXO   RJUNIAO UMB DOS CULTOS AFRO BRAS    30031915 000060
10231987175000168817800093673    000039332                    000393320000000000000109                     I0239332     30031900000000040003410000017N261218105700000000000103003190000000000000000000000000000000000000000100013376872783ELIANE MENDES DA SILVA                  RUA BECO BARREIRAN 68,                  SANTA CRUZ  23555110RIO DE JANEIRO RJUNIAO UMB DOS CULTOS AFRO BRAS    30031915 000061
10231987175000168817800093673    000039330                    000393300000000000000109                     I0239330     30031900000000040003410000017N261218105700000000000103003190000000000000000000000000000000000000000100034463399300MARIA ENOIA DE SOUSA CORREA             RUA BORBOREMAN 37, CASA 1               MADUREIRA   21360150RIO DE JANEIRO RJUNIAO UMB DOS CULTOS AFRO BRAS    30031915 000062
10231987175000168817800093673    000039317                    000393170000000000000109                     I0239317     30031900000000040003410000017N261218105700000000000103003190000000000000000000000000000000000000000100099447690700CARLA LESSA QUINTANILHA VASCON          RUA: BORBOREMAN 103, CASA 201           MADUREIRA   21360150RIO DE JANEIRO RJUNIAO UMB DOS CULTOS AFRO BRAS    30031915 000063
10231987175000168817800093673    000039315                    000393150000000000000109                     I0239315     30031900000000040003410000017N261218105700000000000103003190000000000000000000000000000000000000000100014165634743GLAUBER VINICIUS DE ALMEIDA BA          RUA SAO CARLOSN 75,                     ESTACIO     20250052RIO DE JANEIRO RJUNIAO UMB DOS CULTOS AFRO BRAS    30031915 000064
10231987175000168817800093673    000039313                    000393130000000000000109                     I0239313     30031900000000040003410000017N261218105700000000000103003190000000000000000000000000000000000000000100012303421764PEDRO JONAS ARAUJO CORDEIRO             RUA JOSE LIMA DA SILVAN 0, LOTE 7 QUADRASANTA RITA  26185610BELFORD ROXO   RJUNIAO UMB DOS CULTOS AFRO BRAS    30031915 000065
10231987175000168817800093673    000039311                    000393110000000000000109                     I0239311     30031900000000040003410000017N261218105700000000000103003190000000000000000000000000000000000000000100003413776789CRISTIANE DE SOUZA GALANTE INA          BECO DA SERVIDAON 70, CASA 3            ENGENHEIRO B25520370SAO JOAO DE MERRJUNIAO UMB DOS CULTOS AFRO BRAS    30031915 000066
10231987175000168817800093673    000039310                    000393100000000000000109                     I0239310     30031900000000040003410000017N261218105700000000000103003190000000000000000000000000000000000000000100085965871791VALERIA MENDES BARBOSA DOS SAN          RUA PAULINA SENDERN 118, CASA 1B        JARDIM NOVA 26266140NOVA IGUACU    RJUNIAO UMB DOS CULTOS AFRO BRAS    30031915 000067
10231987175000168817800093673    000039309                    000393090000000000000109                     I0239309     30031900000000040003410000017N261218105700000000000103003190000000000000000000000000000000000000000100008323642745ROSEMERI DE SOUZA COUTINHO              RUA VERA LUCIA N 0, LOTE 20 QUADRA 3    CABUCU      26291452NOVA IGUACU    RJUNIAO UMB DOS CULTOS AFRO BRAS    30031915 000068
10231987175000168817800093673    000039308                    000393080000000000000109                     I0239308     30031900000000040003410000017N261218105700000000000103003190000000000000000000000000000000000000000100007147220730LUIS CARLOS DA COSTA OLIVEIRA           RUA MINAS GERAIS N 0, LOTE 11 QUADRA 159CAMPO ALEGRE26292141NOVA IGUACU    RJUNIAO UMB DOS CULTOS AFRO BRAS    30031915 000069
10231987175000168817800093673    000039306                    000393060000000000000109                     I0239306     30031900000000040003410000017N261218105700000000000103003190000000000000000000000000000000000000000100036139050782VIRGINIA DANTAS FERREIRA                RUA PROFESSOR ALPHEU PORTELA N 127, CONDTAQUARA     22725130RIO DE JANEIRO RJUNIAO UMB DOS CULTOS AFRO BRAS    30031915 000070
10231987175000168817800093673    000039302                    000393020000000000000109                     I0239302     30031900000000040003410000017N261218105700000000000103003190000000000000000000000000000000000000000100003389142770VANIA VIEIRA                            RUA NAMURN 276, CASA 2                  VILA VALQUEI21330600RIO DE JANEIRO RJUNIAO UMB DOS CULTOS AFRO BRAS    30031915 000071
10231987175000168817800093673    000039299                    000392990000000000000109                     I0239299     30031900000000040003410000017N261218105700000000000103003190000000000000000000000000000000000000000100007202542722MIRLA SUSANI DA SILVA SALES             RUA: DOUTOR FREDERICON 395,             LAGOINHA    26296414NOVA IGUACU    RJUNIAO UMB DOS CULTOS AFRO BRAS    30031915 000072
10231987175000168817800093673    000039296                    000392960000000000000109                     I0239296     30031900000000040003410000017N261218105700000000000103003190000000000000000000000000000000000000000100008283050800JOSE RICARDO DE MOURA                   RUA TENENTE SILVINON 204,               CERAMICA    26030126NOVA IGUACU    RJUNIAO UMB DOS CULTOS AFRO BRAS    30031915 000073
10231987175000168817800093673    000039294                    000392940000000000000109                     I0239294     30031900000000040003410000017N261218105700000000000103003190000000000000000000000000000000000000000100075164779749IVANILDO FURTADO DA SILVA               RUA: LUIZ DE CASTRON 206, FUNDOS        PILARES     21760732RIO DE JANEIRO RJUNIAO UMB DOS CULTOS AFRO BRAS    30031915 000074
10231987175000168817800093673    000039292                    000392920000000000000109                     I0239292     30031900000000040003410000017N261218105700000000000103003190000000000000000000000000000000000000000100002098051700FELIPE LOPES DA COSTA CHAVES            RUA: JOSE PINTO FAUSTINON 0, LOTE 14 QUAIPIRANGA    26293441NOVA IGUACU    RJUNIAO UMB DOS CULTOS AFRO BRAS    30031915 000075
10231987175000168817800093673    000039289                    000392890000000000000109                     I0239289     30031900000000040003410000017N261218105700000000000103003190000000000000000000000000000000000000000100015041746745ANAISE SOARES DO CARMO                  RUA JOSE FRANCISCO ALVESN 48,           SEPETIBA    23542120RIO DE JANEIRO RJUNIAO UMB DOS CULTOS AFRO BRAS    30031915 000076
10231987175000168817800093673    000039285                    000392850000000000000109                     I0239285     30031900000000040003410000017N261218105700000000000103003190000000000000000000000000000000000000000100066645352700NILZA BELISARIO DAMIAO                  ESTRADA SANTA VERIDIANA N 1400, BLOCO 1 SANTA CRUZ  23525254RIO DE JANEIRO RJUNIAO UMB DOS CULTOS AFRO BRAS    30031915 000077
10231987175000168817800093673    000039281                    000392810000000000000109                     I0239281     30031900000000040003410000017N261218105700000000000103003190000000000000000000000000000000000000000100053860225120OTILIA REGINA DE ALENCAR                RUA ITAPEMIRIMN 87,                     SANTA CRUZ  23550310RIO DE JANEIRO RJUNIAO UMB DOS CULTOS AFRO BRAS    30031915 000078
10231987175000168817800093673    000039278                    000392780000000000000109                     I0239278     30031900000000040003410000017N261218105700000000000103003190000000000000000000000000000000000000000100014328358740SILAS BARBOSA DE SOUZA                  ESTRADA REAL DE MAUA N 1901, CASA 11 TRAJARDIM DA PA25926684RIO DE JANEIRO RJUNIAO UMB DOS CULTOS AFRO BRAS    30031915 000079
10231987175000168817800093673    000039277                    000392770000000000000109                     I0239277     30031900000000040003410000017N261218105700000000000103003190000000000000000000000000000000000000000100099099616449JANAINA BORGES DA SILVA                 RUA: PAULO JOSE MAHFUDN 44,             VARGEM PEQUE22783395RIO DE JANEIRO RJUNIAO UMB DOS CULTOS AFRO BRAS    30031915 000080
10231987175000168817800093673    000039270                    000392700000000000000109                     I0239270     30031900000000040003410000017N261218105700000000000103003190000000000000000000000000000000000000000100010212584740TIAGO VEROL DE SOUZA                    ESTRADA: DO VIEGASN 28, CASA 4          SENADOR CAMA21832006RIO DE JANEIRO RJUNIAO UMB DOS CULTOS AFRO BRAS    30031915 000081
10231987175000168817800093673    000039269                    000392690000000000000109                     I0239269     30031900000000040003410000017N261218105700000000000103003190000000000000000000000000000000000000000100039869253768MARIA DE LOURDES FERREIRA               RODOVIA WASHINGTON LUIZN 136,           PARQUE BEIRA25055008DUQUE DE CAXIASRJUNIAO UMB DOS CULTOS AFRO BRAS    30031915 000082
10231987175000168817800093673    000039268                    000392680000000000000109                     I0239268     30031900000000040003410000017N261218105700000000000103003190000000000000000000000000000000000000000100001860329780VIVIANE DE PAULA AGNELO                 RUA DA VITORIAN 175,                    PARAISO     26297138NOVA IGUACU    RJUNIAO UMB DOS CULTOS AFRO BRAS    30031915 000083
10231987175000168817800093673    000039267                    000392670000000000000109                     I0239267     30031900000000040003410000017N261218105700000000000103003190000000000000000000000000000000000000000100007416975727ANGELICA AMARAL GOTELIP BARBOS          RUA MARECHAL MARCIANO - TRAVESSA 120N 0,REALENGO    21735652RIO DE JANEIRO RJUNIAO UMB DOS CULTOS AFRO BRAS    30031915 000084
10231987175000168817800093673    000039265                    000392650000000000000109                     I0239265     30031900000000040003410000017N261218105700000000000103003190000000000000000000000000000000000000000100009297297730FLAVIO JOAQUIM DOS SANTOS               RUA: SAO PAULON 0,                      PALMARES    23585800RIO DE JANEIRO RJUNIAO UMB DOS CULTOS AFRO BRAS    30031915 000085
10231987175000168817800093673    000039264                    000392640000000000000109                     I0239264     30031900000000040003410000017N261218105700000000000103003190000000000000000000000000000000000000000100008283706721LEVY ANDRE ASSIS FERREIRA DA S          TRAVESSA SANTO ANTONIO N 462, CASA 2    MARECHAL HER21557190RIO DE JANEIRO RJUNIAO UMB DOS CULTOS AFRO BRAS    30031915 000086
10231987175000168817800093673    000039262                    000392620000000000000109                     I0239262     30031900000000040003410000017N261218105700000000000103003190000000000000000000000000000000000000000100011709990775JOYCE MARA PINHEIRO DA SILVA            RUA SILVIO TIBIRICAN 507,               TURIACU     21540200RIO DE JANEIRO RJUNIAO UMB DOS CULTOS AFRO BRAS    30031915 000087
10231987175000168817800093673    000039261                    000392610000000000000109                     I0239261     30031900000000040003410000017N261218105700000000000103003190000000000000000000000000000000000000000100014963009714MICHELLE DA SILVA SOARES                RUA DONA CELINAN 215,                   PIABETA     25935702MAGE           RJUNIAO UMB DOS CULTOS AFRO BRAS    30031915 000088
10231987175000168817800093673    000039259                    000392590000000000000109                     I0239259     30031900000000040003410000017N261218105700000000000103003190000000000000000000000000000000000000000100000213766701ROSIVANIA CRUZ DA SILVA                 RUA PRIMEIRAN 0, BLOCO 2                SANTA CRUZ  23515180RIO DE JANEIRO RJUNIAO UMB DOS CULTOS AFRO BRAS    30031915 000089
10231987175000168817800093673    000039258                    000392580000000000000109                     I0239258     30031900000000040003410000017N261218105700000000000103003190000000000000000000000000000000000000000100085737437787NIVALDA PIRES RUFINO                    RUA: MARIO CARPENTERN 830,              ABOLICAO    20755065RIO DE JANEIRO RJUNIAO UMB DOS CULTOS AFRO BRAS    30031915 000090
10231987175000168817800093673    000039256                    000392560000000000000109                     I0239256     30031900000000040003410000017N261218105700000000000103003190000000000000000000000000000000000000000100005380679773ROBERTO DE OLIVEIRA RIBEIRO JU          RUA VINTE E TRESN 149, CASA 2 QUADRA 7  CONJUNTO CES23500000RIO DE JANEIRO RJUNIAO UMB DOS CULTOS AFRO BRAS    30031915 000091
10231987175000168817800093673    000039255                    000392550000000000000109                     I0239255     30031900000000040003410000017N261218105700000000000103003190000000000000000000000000000000000000000100006485913793IASMIM SANTANA DA SILVA DE OLI          RUA CLEITON LUIZ VIEIRAN 24,            BANGU       23095700RIO DE JANEIRO RJUNIAO UMB DOS CULTOS AFRO BRAS    30031915 000092
10231987175000168817800093673    000039252                    000392520000000000000109                     I0239252     30031900000000040003410000017N261218105700000000000103003190000000000000000000000000000000000000000100001244562785LUIS CARLOS RIBEIRO                     RUA: NEIDE AFONSON 0, LOTE 5 QUADRA 14  SHANGRILA RO26150020BELFORD ROXO   RJUNIAO UMB DOS CULTOS AFRO BRAS    30031915 000093
10231987175000168817800093673    000039251                    000392510000000000000109                     I0239251     30031900000000040003410000017N261218105700000000000103003190000000000000000000000000000000000000000100003256338780REGINALDO ROSA DA SILVA                 RUA: TOMINASN 341,                      IPIRANGA ALI26293381NOVA IGUACU    RJUNIAO UMB DOS CULTOS AFRO BRAS    30031915 000094
10231987175000168817800093673    000039247                    000392470000000000000109                     I0239247     30031900000000040003410000017N261218105700000000000103003190000000000000000000000000000000000000000100093521987787KATIA CRISTINA DANNEMBERG               ESTRADA DO PORTINHON 149, CASA          IRAJA       21235400RIO DE JANEIRO RJUNIAO UMB DOS CULTOS AFRO BRAS    30031915 000095
10231987175000168817800093673    000039246                    000392460000000000000109                     I0239246     30031900000000040003410000017N261218105700000000000103003190000000000000000000000000000000000000000100093678754791ROSINETE MARIA DE OLIVEIRA              RUA ANGOLA N 24, ANTIGA RUA 9           CAPIVARI    25145080DUQUE DE CAXIASRJUNIAO UMB DOS CULTOS AFRO BRAS    30031915 000096
10231987175000168817800093673    000039245                    000392450000000000000109                     I0239245     30031900000000040003410000017N261218105700000000000103003190000000000000000000000000000000000000000100009289778709HELAINE FRANKLIN TEIXEIRA               RUA: CACHOEIRA ALTA N 0, LOTE 17 QUADRA JARDIM MARAV23031070CAMPO GRANDE   RJUNIAO UMB DOS CULTOS AFRO BRAS    30031915 000097
10231987175000168817800093673    000039243                    000392430000000000000109                     I0239243     30031900000000040003410000017N261218105700000000000103003190000000000000000000000000000000000000000100001096953722CLAUDIA GUIMARAES                       ESTRADA GUANDU DO SENA - RUA 29N 0, QUADCAMPO GRANDE23091220RIO DE JANEIRO RJUNIAO UMB DOS CULTOS AFRO BRAS    30031915 000098
10231987175000168817800093673    000039242                    000392420000000000000109                     I0239242     30031900000000040003410000017N261218105700000000000103003190000000000000000000000000000000000000000100080091229715MARCO ANTONIO DE OLIVEIRA TEIX          RUA: QUARENTA E UM N 0, QUADRA 47 LOTE 3JARDIM NOSSA23097260CAMPO GRANDE   RJUNIAO UMB DOS CULTOS AFRO BRAS    30031915 000099
10231987175000168817800093673    000039240                    000392400000000000000109                     I0239240     30031900000000040003410000017N261218105700000000000103003190000000000000000000000000000000000000000100095760024787LUCIMARA DIAS DE OLIVEIRA               RUA SANTO ELIASN 43,                    TURIACU     21540390RIO DE JANEIRO RJUNIAO UMB DOS CULTOS AFRO BRAS    30031915 000100
10231987175000168817800093673    000039235                    000392350000000000000109                     I0239235     30031900000000040003410000017N261218105700000000000103003190000000000000000000000000000000000000000100012687881716DAIANA SANTANA DE LIMA                  RUA MANAUSN 149,                        CAMPOS ELISE25225000DUQUE DE CAXIASRJUNIAO UMB DOS CULTOS AFRO BRAS    30031915 000101
10231987175000168817800093673    000039234                    000392340000000000000109                     I0239234     30031900000000040003410000017N261218105700000000000103003190000000000000000000000000000000000000000100007040620707MONICA BORGES MATTOS                    RUA INHAMUNSN 46,                       VILA VALQUEI21321330RIO DE JANEIRO RJUNIAO UMB DOS CULTOS AFRO BRAS    30031915 000102
10231987175000168817800093673    000039232                    000392320000000000000109                     I0239232     30031900000000040003410000017N261218105700000000000103003190000000000000000000000000000000000000000100093255586704GRECIETE GOUDARD                        ESTRADA DO CAMPINHON 4501,              CAMPO GRANDE23066540RIO DE JANEIRO RJUNIAO UMB DOS CULTOS AFRO BRAS    30031915 000103
10231987175000168817800093673    000039231                    000392310000000000000109                     I0239231     30031900000000040003410000017N261218105700000000000103003190000000000000000000000000000000000000000100079034780791PAULO ROBERTO DE SOUZA MORENO           RUA CORONEL MALHAESN 0, LOTE 6 QUADRA 38TIRADENTES  26351180NOVA IGUACU    RJUNIAO UMB DOS CULTOS AFRO BRAS    30031915 000104
10231987175000168817800093673    000039230                    000392300000000000000109                     I0239230     30031900000000040003410000017N261218105700000000000103003190000000000000000000000000000000000000000100005229971711CATIA CILENE MASCARENHAS                RUA BUGANVILLEN 5, CASA 5               CONJUNTO SAN21843743CAMPO GRANDE   RJUNIAO UMB DOS CULTOS AFRO BRAS    30031915 000105
10231987175000168817800093673    000039229                    000392290000000000000109                     I0239229     30031900000000040003410000017N261218105700000000000103003190000000000000000000000000000000000000000100089982118749LENIR SILVA DOS SANTOS                  RUA: ILDEFONSO ALBANON 25, APTº 101    GUADALUPE   21670340RIO DE JANEIRO RJUNIAO UMB DOS CULTOS AFRO BRAS    30031915 000106
10231987175000168817800093673    000039226                    000392260000000000000109                     I0239226     30031900000000040003410000017N261218105700000000000103003190000000000000000000000000000000000000000100002406515702GILMA RODRIGUES COUTO                   RUA: PEREIRA FRAZAO N 78, A             PRACA SECA  21320220RIO DE JANEIRO RJUNIAO UMB DOS CULTOS AFRO BRAS    30031915 000107
10231987175000168817800093673    000039224                    000392240000000000000109                     I0239224     30031900000000040003410000017N261218105700000000000103003190000000000000000000000000000000000000000100064494527734RONALDO ROSAS ALVES                     ESTRADA COMANDANTEN 777,                PRATA       25976140TERESOPOLIS    RJUNIAO UMB DOS CULTOS AFRO BRAS    30031915 000108
10231987175000168817800093673    000039220                    000392200000000000000109                     I0239220     30031900000000040003410000017N261218105700000000000103003190000000000000000000000000000000000000000100043397077753JOAO NORATO CEZARIO                     RUA POETA MANOEL BANDEIRAN 39, ANTIGO LOCABUIS      26540260NILOPOLIS      RJUNIAO UMB DOS CULTOS AFRO BRAS    30031915 000109
10231987175000168817800093673    000039219                    000392190000000000000109                     I0239219     30031900000000040003410000017N261218105700000000000103003190000000000000000000000000000000000000000100012295676746JEFFERSON ANTONIO TELLES GALDI          RUA MOUZIN DE ALBUQUERQUEN 492,         SAO VICENTE 26178080BELFORD ROXO   RJUNIAO UMB DOS CULTOS AFRO BRAS    30031915 000110
10231987175000168817800093673    000039216                    000392160000000000000109                     I0239216     30031900000000040003410000017N261218105700000000000103003190000000000000000000000000000000000000000100005436665730JORGE LUIZ VICTORIO LIMA                AVENIDA MARCOVALDI N 271,               NOVA ESPERAN26113040BELFORD ROXO   RJUNIAO UMB DOS CULTOS AFRO BRAS    30031915 000111
10231987175000168817800093673    000039213                    000392130000000000000109                     I0239213     30031900000000040003410000017N261218105700000000000103003190000000000000000000000000000000000000000100009526018770VERONICA MARIA LIMA                     RUA KEMAL PALHAN 5,                     VILA SANTO A25040220DUQUE DE CAXIASRJUNIAO UMB DOS CULTOS AFRO BRAS    30031915 000112
10231987175000168817800093673    000039212                    000392120000000000000109                     I0239212     30031900000000040003410000017N261218105700000000000103003190000000000000000000000000000000000000000100003250570796VERONICA LUCIA DA CRUZ                  ESTRADA DOUTOR FARRULAN 0, LOTE 8 QUADRASAO FRANCISC26125400BELFORD ROXO   RJUNIAO UMB DOS CULTOS AFRO BRAS    30031915 000113
10231987175000168817800093673    000039211                    000392110000000000000109                     I0239211     30031900000000040003410000017N261218105700000000000103003190000000000000000000000000000000000000000100059598255700TEREZINHA MARIA DE JESUS PINHE          RUA: MANOEL DA SILVA PEREIRA N 0, QUADRAPRADOS VERDE26299003NOVA IGUACU    RJUNIAO UMB DOS CULTOS AFRO BRAS    30031915 000114
10231987175000168817800093673    000039210                    000392100000000000000109                     I0239210     30031900000000040003410000017N261218105700000000000103003190000000000000000000000000000000000000000100002527980740ARMANDO DE ALMEIDA                      RUA PEDRO JOSE DE OLIVEIRA N 255,       VARGEM GRAND27145231BARRA DO PIRAI RJUNIAO UMB DOS CULTOS AFRO BRAS    30031915 000115
10231987175000168817800093673    000039209                    000392090000000000000109                     I0239209     30031900000000040003410000017N261218105700000000000103003190000000000000000000000000000000000000000100005978854785ALEXANDRE MOTA DOS SANTOS               RUA BRUNO SENDERN 26,                   JARDIM NOVA 26266040NOVA IGUACU    RJUNIAO UMB DOS CULTOS AFRO BRAS    30031915 000116
10231987175000168817800093673    000039208                    000392080000000000000109                     I0239208     30031900000000040003410000017N261218105700000000000103003190000000000000000000000000000000000000000100014907708793THIAGO CARVALHO VIDAL LIMA              RUA JOAO MARTINS N 265,                 BNH         25900353MAGE           RJUNIAO UMB DOS CULTOS AFRO BRAS    30031915 000117
10231987175000168817800093673    000039205                    000392050000000000000109                     I0239205     30031900000000040003410000017N261218105700000000000103003190000000000000000000000000000000000000000100007337231792SAMANTHA PRISCILA MARQUES MORE          RUA: INSPETOR CASTRO N 0, QUADRA 2 CASA SARACURUNA  25211410DUQUE DE CAXIASRJUNIAO UMB DOS CULTOS AFRO BRAS    30031915 000118
10231987175000168817800093673    000039202                    000392020000000000000109                     I0239202     30031900000000040003410000017N261218105700000000000103003190000000000000000000000000000000000000000100013118884703WESLEI FERREIRA DE CARVALHO             ESTRADA DO  GUERENGUEN 1022, FUNODS     TAQUARA     22713004RIO DE JANEIRO RJUNIAO UMB DOS CULTOS AFRO BRAS    30031915 000119
10231987175000168817800093673    000039201                    000392010000000000000109                     I0239201     30031900000000040003410000017N261218105700000000000103003190000000000000000000000000000000000000000100002176741781SUSI DE OLIVEIRA LOUREIRO               AVENIDA: VICENTE DE CARVALHO N 536, CASAVICENTE DE C21371148RIO DE JANEIRO RJUNIAO UMB DOS CULTOS AFRO BRAS    30031915 000120
10231987175000168817800093673    000039200                    000392000000000000000109                     I0239200     30031900000000040003410000017N261218105700000000000103003190000000000000000000000000000000000000000100095846190715ANA MARIA NICANOR DE QUADRO             RUA PASSO FUNDON 118, LOTE 104          JARDIM GUAND26298189NOVA IGUACU    RJUNIAO UMB DOS CULTOS AFRO BRAS    30031915 000121
10231987175000168817800093673    000039199                    000391990000000000000109                     I0239199     30031900000000040003410000017N261218105700000000000103003190000000000000000000000000000000000000000100001161586709ALEXANDRE PIMPAREL DA SILVA             RUA: COMENDADOR VENACION 0,             PALHADA     26290204NOVA IGUACU    RJUNIAO UMB DOS CULTOS AFRO BRAS    30031915 000122
10231987175000168817800093673    000039197                    000391970000000000000109                     I0239197     30031900000000040003410000017N261218105700000000000103003190000000000000000000000000000000000000000100010765062755IVONE JOAO PEDRO                        RUA MARMIARIN 605,                      SENADOR CAMA21831000RIO DE JANEIRO RJUNIAO UMB DOS CULTOS AFRO BRAS    30031915 000123
10231987175000168817800093673    000039196                    000391960000000000000109                     I0239196     30031900000000040003410000017N261218105700000000000103003190000000000000000000000000000000000000000100085957879720MARIA DA APARECIDA VICENTE DUQ          RUA FRANCISCO VIOLTI N 43, CASA 2       HELIOPOLIS  26125440BELFORD ROXO   RJUNIAO UMB DOS CULTOS AFRO BRAS    30031915 000124
10231987175000168817800093673    000039195                    000391950000000000000109                     I0239195     30031900000000040003410000017N261218105700000000000103003190000000000000000000000000000000000000000100005933193704ANA PAULA DA SILVA SANTOS               RUA APIACAN 0, LOTE 12 QUADRA 41        JARDIM BARRO25267290DUQUE DE CAXIASRJUNIAO UMB DOS CULTOS AFRO BRAS    30031915 000125
10231987175000168817800093673    000039194                    000391940000000000000109                     I0239194     30031900000000040003410000017N261218105700000000000103003190000000000000000000000000000000000000000100003372466705SANDRO NASCIMENTO NOBREGA               RUA JOAO ROMARIZN 137,                  RAMOS       21031700RIO DE JANEIRO RJUNIAO UMB DOS CULTOS AFRO BRAS    30031915 000126
10231987175000168817800093673    000039193                    000391930000000000000109                     I0239193     30031900000000040003410000017N261218105700000000000103003190000000000000000000000000000000000000000100085542091768SUELY PEREIRA DA SILVA CALIXTO          RUA RICARDO XAVIER DA SILVEIRA N 31,    IMBARIE     25266005DUQUE DE CAXIASRJUNIAO UMB DOS CULTOS AFRO BRAS    30031915 000127
10231987175000168817800093673    000039188                    000391880000000000000109                     I0239188     30031900000000040003410000017N261218105700000000000103003190000000000000000000000000000000000000000100000858723778GEOVANI FERNANDA DA SILVA               RUA SOFIA BARRETON 34,                  DUMAS - SANT23550700RIO DE JANEIRO RJUNIAO UMB DOS CULTOS AFRO BRAS    30031915 000128
10231987175000168817800093673    000039186                    000391860000000000000109                     I0239186     30031900000000040003410000017N261218105700000000000103003190000000000000000000000000000000000000000100011700984799CRISTIANE SANTOS FEIJO VIEIRA           RUA NICOLAU TOUQUETN 0, LOTE 20 QUADRA 1JARDIM CATAR24716403SAO GONCALO    RJUNIAO UMB DOS CULTOS AFRO BRAS    30031915 000129
10231987175000168817800093673    000039185                    000391850000000000000109                     I0239185     30031900000000040003410000017N261218105700000000000103003190000000000000000000000000000000000000000100022532412100MARIA DA GRACA MACHADO DOS SAN          RUA: ARCOZELON 0, QUADRA 115 LOTE 19    PARQUE ARARU25585560SAO JOAO DE MERRJUNIAO UMB DOS CULTOS AFRO BRAS    30031915 000130
10231987175000168817800093673    000039182                    000391820000000000000109                     I0239182     30031900000000040003410000017N261218105700000000000103003190000000000000000000000000000000000000000100010154945790SIMONE DE OLIVEIRA CUNHA                RUA ONZEN 0, QUADRA 20 LOTE 7           JARDIM ROTSE25270080DUQUE DE CAXIASRJUNIAO UMB DOS CULTOS AFRO BRAS    30031915 000131
10231987175000168817800093673    000039181                    000391810000000000000109                     I0239181     30031900000000040003410000017N261218105700000000000103003190000000000000000000000000000000000000000100002965368736REGINA CONCEICAO                        AVENIDA: BOQUEIRAON 17,                 BOA VISTA   28680000CACHOEIRA DE MARJUNIAO UMB DOS CULTOS AFRO BRAS    30031915 000132
10231987175000168817800093673    000039180                    000391800000000000000109                     I0239180     30031900000000040003410000017N261218105700000000000103003190000000000000000000000000000000000000000100009963194761FERNANDO PECANHA PIRES                  RUA: GENERAL BASILION 447,              TABORDA     28680000CACHOEIRA DE MARJUNIAO UMB DOS CULTOS AFRO BRAS    30031915 000133
10231987175000168817800093673    000039178                    000391780000000000000109                     I0239178     30031900000000040003410000017N261218105700000000000103003190000000000000000000000000000000000000000100002331392730ANA MARIA DOS SANTOS VIEIRA             RUA: CRUZ DE SOUZAN 57,                 CARMARY POSS26022281NOVA IGUACU    RJUNIAO UMB DOS CULTOS AFRO BRAS    30031915 000134
10231987175000168817800093673    000039176                    000391760000000000000109                     I0239176     30031900000000040003410000017N261218105700000000000103003190000000000000000000000000000000000000000100003018847733MARIA AILHA BERNARDO PINTO              RUA RUBIAO JUNIOR N 109,                CENTRO      23860000MANGARATIBA    RJUNIAO UMB DOS CULTOS AFRO BRAS    30031915 000135
10231987175000168817800093673    000039173                    000391730000000000000109                     I0239173     30031900000000040003410000017N261218105700000000000103003190000000000000000000000000000000000000000100007852297790IRENE FRANCISCO LIMA                    RUA VIRGILIO VARZEAN 0, LOTE 1 QUADRA 1 VILA SAO LUI25051110DUQUE DE CAXIASRJUNIAO UMB DOS CULTOS AFRO BRAS    30031915 000136
10231987175000168817800093673    000039170                    000391700000000000000109                     I0239170     30031900000000040003410000017N261218105700000000000103003190000000000000000000000000000000000000000100006915594736CINTIA FERREIRA                         AVENIDA DAS AMERICASN 4319, BLOCO F 3 APBARRA DA TIJ22631004RIO DE JANEIRO RJUNIAO UMB DOS CULTOS AFRO BRAS    30031915 000137
10231987175000168817800093673    000039169                    000391690000000000000109                     I0239169     30031900000000040003410000017N261218105700000000000103003190000000000000000000000000000000000000000100011497058767DIEGO FERREIRA DA SILVA                 RUA GENERAL GOMES DE CASTRO N 137,      PADRE MIGUEL21721000RIO DE JANEIRO RJUNIAO UMB DOS CULTOS AFRO BRAS    30031915 000138
10231987175000168817800093673    000039167                    000391670000000000000109                     I0239167     30031900000000040003410000017N261218105700000000000103003190000000000000000000000000000000000000000100003357548720APARECIDA DOS SANTOS                    RUA LAOSN 0, LOTE 7 QUADRA 11           VILA HELIOPO26125170BELFORD ROXO   RJUNIAO UMB DOS CULTOS AFRO BRAS    30031915 000139
10231987175000168817800093673    000039166                    000391660000000000000109                     I0239166     30031900000000040003410000017N261218105700000000000103003190000000000000000000000000000000000000000100009409455766DANIELE MARTINS MEDEIROS DE FR          RUA ROMANCISTA LUCIO CARDOSON 272,      IBICUI      23860000MANGARATIBA    RJUNIAO UMB DOS CULTOS AFRO BRAS    30031915 000140
10231987175000168817800093673    000039163                    000391630000000000000109                     I0239163     30031900000000040003410000017N261218105700000000000103003190000000000000000000000000000000000000000100023970090563MARCIA VIEIRA SALES                     RUA LOPO SARAIVAN 214,                  TANQUE - JAC22740220RIO DE JANEIRO RJUNIAO UMB DOS CULTOS AFRO BRAS    30031915 000141
10231987175000168817800093673    000039159                    000391590000000000000109                     I0239159     30031900000000040003410000017N261218105700000000000103003190000000000000000000000000000000000000000100003604572746LUCIANA SANTOS DA SILVA DE LIM          RUA: MARTINICIAN 0, LOJA LOTE 22 QUADRA PARQUE NOVO 25585110SAO JOAO DE MERRJUNIAO UMB DOS CULTOS AFRO BRAS    30031915 000142
10231987175000168817800093673    000039157                    000391570000000000000109                     I0239157     30031900000000040003410000017N261218105700000000000103003190000000000000000000000000000000000000000100009145082707ELAINE CRISTINA DE MORAES               RUA GENTIL DO OURON 11,                 AGUIAR TORRE23063340INHOAIBA       RJUNIAO UMB DOS CULTOS AFRO BRAS    30031915 000143
10231987175000168817800093673    000039155                    000391550000000000000109                     I0239155     30031900000000040003410000017N261218105700000000000103003190000000000000000000000000000000000000000100013849060705LEONARDO ENEDINA DE MELO                RUA JULIO VERNERN 0, QUADRA 24 LOTE 10  SANTA RITA  26050517NOVA IGUACU    RJUNIAO UMB DOS CULTOS AFRO BRAS    30031915 000144
10231987175000168817800093673    000039154                    000391540000000000000109                     I0239154     30031900000000040003410000017N261218105700000000000103003190000000000000000000000000000000000000000100085906743715FRANCISCA CELIA LEANDRO NEVES           RUA PAULO VIANA N 145,                  ROCHA MIRAND21540460RIO DE JANEIRO RJUNIAO UMB DOS CULTOS AFRO BRAS    30031915 000145
10231987175000168817800093673    000039152                    000391520000000000000109                     I0239152     30031900000000040003410000017N261218105700000000000103003190000000000000000000000000000000000000000100008926305740PATRICIA DOS SANTOS LOPES               RUA: CASTELO AZULN 0, LOTE 7 QUADRA A   JARDIM GUAND26298048NOVA IGUACU    RJUNIAO UMB DOS CULTOS AFRO BRAS    30031915 000146
10231987175000168817800093673    000039151                    000391510000000000000109                     I0239151     30031900000000040003410000017N261218105700000000000103003190000000000000000000000000000000000000000100004842101490MARIA DE LOURDES FARIAS DOS SA          RUA HELIO DE OLIVEIRAN 0, LOTE 29 QUADRAPARADA MORAB25000000DUQUE DE CAXIASRJUNIAO UMB DOS CULTOS AFRO BRAS    30031915 000147
10231987175000168817800093673    000039149                    000391490000000000000109                     I0239149     30031900000000040003410000017N261218105700000000000103003190000000000000000000000000000000000000000100004474701755JACIRA DE ALMEIDA BATISTA JULI          AVENIDA SAO PAULON 0, LOTE 11 QUADRA 18 PARQUE MARIL25225660DUQUE DE CAXIASRJUNIAO UMB DOS CULTOS AFRO BRAS    30031915 000148
10231987175000168817800093673    000039145                    000391450000000000000109                     I0239145     30031900000000040003410000017N261218105700000000000103003190000000000000000000000000000000000000000100002209208777ELIELSON DOS SANTOS CARVALHAES          RUA GENTIL DE OURO N 615, BLOCO 12 APT 4INHOAIBA    23063340RIO DE JANEIRO RJUNIAO UMB DOS CULTOS AFRO BRAS    30031915 000149
10231987175000168817800093673    000039144                    000391440000000000000109                     I0239144     30031900000000040003410000017N261218105700000000000103003190000000000000000000000000000000000000000100010456888780TIAGO PINTO ESPOSTI                     RUA ROSSINA FREITAS MEDEIROSN 38,       PARQUE AEROP27963672MACAE          RJUNIAO UMB DOS CULTOS AFRO BRAS    30031915 000150
10231987175000168817800093673    000039142                    000391420000000000000109                     I0239142     30031900000000040003410000017N261218105700000000000103003190000000000000000000000000000000000000000100011688945733ENEDIR RODRIGUES RAMOS                  AVENIDA JOAO BRASIL N 2233,             ENGENHOCA   24000000NITEROI        RJUNIAO UMB DOS CULTOS AFRO BRAS    30031915 000151
10231987175000168817800093673    000039140                    000391400000000000000109                     I0239140     30031900000000040003410000017N261218105700000000000103003190000000000000000000000000000000000000000100010292272766MARCIA JUPIRA SANTOS GONZAGA            RUA ANTONIO FELIX N 457,                CENTRO      26520081NILOPOLIS      RJUNIAO UMB DOS CULTOS AFRO BRAS    30031915 000152
10231987175000168817800093673    000039139                    000391390000000000000109                     I0239139     30031900000000040003410000017N261218105700000000000103003190000000000000000000000000000000000000000100016492108760TIAGO LOPES DE AZEVEDO SILVA            RUA: XN 24, QUADRA 82                   PARADA MODEL25943365GUAPIMIRIM     RJUNIAO UMB DOS CULTOS AFRO BRAS    30031915 000153
10231987175000168817800093673    000039137                    000391370000000000000109                     I0239137     30031900000000040003410000017N261218105700000000000103003190000000000000000000000000000000000000000100012993228757ANDREIA CRISTINA VICENTE                RUA: CORONEL CARLOS MATOSN 32,          PARQUE JOAO 25030140DUQUE DE CAXIASRJUNIAO UMB DOS CULTOS AFRO BRAS    30031915 000154
10231987175000168817800093673    000039136                    000391360000000000000109                     I0239136     30031900000000040003410000017N261218105700000000000103003190000000000000000000000000000000000000000100048972215791MARIA PETRONILHA ROSA NATIVIDA          RUA: JACARE ACANGAN 29, QUADRA 21       VILA MARIA H25255590DUQUE DE CAXIASRJUNIAO UMB DOS CULTOS AFRO BRAS    30031915 000155
10231987175000168817800093673    000039135                    000391350000000000000109                     I0239135     30031900000000040003410000017N261218105700000000000103003190000000000000000000000000000000000000000100009416663794IGOR DO NASCIMENTO RODRIGUES            RUA FIGUEIREDO ROCHA N 665,             VIGARIO GERA21240660RIO DE JANEIRO RJUNIAO UMB DOS CULTOS AFRO BRAS    30031915 000156
10231987175000168817800093673    000039132                    000391320000000000000109                     I0239132     30031900000000040003410000017N261218105700000000000103003190000000000000000000000000000000000000000100069279500791CLAUDIA ALONSO RODRIGUES                ESTRADA DO PAU FERRO N 851,             FREGUESIA   22745055RIO DE JANEIRO RJUNIAO UMB DOS CULTOS AFRO BRAS    30031915 000157
10231987175000168817800093673    000039131                    000391310000000000000109                     I0239131     30031900000000040003410000017N261218105700000000000103003190000000000000000000000000000000000000000100087306689720JANAINA SANTA CRUZ COSTA                ALAMEDA SANTO ANTONIO N 974,            SEPETIBA    23535660RIO DE JANEIRO RJUNIAO UMB DOS CULTOS AFRO BRAS    30031915 000158
10231987175000168817800093673    000039130                    000391300000000000000109                     I0239130     30031900000000040003410000017N261218105700000000000103003190000000000000000000000000000000000000000100060210389753ROZANA DOS SANTOS                       RUA: MARANHAO N 1057, RUA B CASA 73     MEIER       20720230RIO DE JANEIRO RJUNIAO UMB DOS CULTOS AFRO BRAS    30031915 000159
10231987175000168817800093673    000039129                    000391290000000000000109                     I0239129     30031900000000040003410000017N261218105700000000000103003190000000000000000000000000000000000000000100084301724753ANA LUCIA FERREIRA DA SILVA             RUA HUGO CESAR MONTEIRO DA SILVA N 42,  CAICARA     26015000NOVA IGUACU    RJUNIAO UMB DOS CULTOS AFRO BRAS    30031915 000160
10231987175000168817800093673    000039125                    000391250000000000000109                     I0239125     30031900000000040003410000017N261218105700000000000103003190000000000000000000000000000000000000000100000891933778MARIA DAS NEVES FERREIRA DO NA          RUA CAMINHO DA CHACARA N 519,           PRACA SECA  22733060RIO DE JANEIRO RJUNIAO UMB DOS CULTOS AFRO BRAS    30031915 000161
10231987175000168817800093673    000039123                    000391230000000000000109                     I0239123     30031900000000040003410000017N261218105700000000000103003190000000000000000000000000000000000000000100040402711734PAULO CESAR ANASTACIO PEREIRA           RUA BOTOCUDOSN 0, LOTE 18 QUADRA 347 (ANPARADA MORAB25265351DUQUE DE CAXIASRJUNIAO UMB DOS CULTOS AFRO BRAS    30031915 000162
10231987175000168817800093673    000039122                    000391220000000000000109                     I0239122     30031900000000040003410000017N261218105700000000000103003190000000000000000000000000000000000000000100008401319765ANDRE FERREIRA DE PAULA                 RUA: AMERICO ROCHA N 1095, APARTAMENTO 2MARECHAL HER21555300RIO DE JANEIRO RJUNIAO UMB DOS CULTOS AFRO BRAS    30031915 000163
10231987175000168817800093673    000039121                    000391210000000000000109                     I0239121     30031900000000040003410000017N261218105700000000000103003190000000000000000000000000000000000000000100058365737787ALTAMIRA ROSA                           AVENIDA DO CONTORNON 17, CASA 2         PARADA MORAB25000000DUQUE DE CAXIASRJUNIAO UMB DOS CULTOS AFRO BRAS    30031915 000164
10231987175000168817800093673    000039120                    000391200000000000000109                     I0239120     30031900000000040003410000017N261218105700000000000103003190000000000000000000000000000000000000000100074171372704ELIANE DE SOUZA MACHADO                 RUA ROQUETE PINTON 0, LOTE 22 QUADRA 290JARDIM ANHAN25265200DUQUE DE CAXIASRJUNIAO UMB DOS CULTOS AFRO BRAS    30031915 000165
10231987175000168817800093673    000039118                    000391180000000000000109                     I0239118     30031900000000040003410000017N261218105700000000000103003190000000000000000000000000000000000000000100090617240744RAQUEL DA PAZ                           RUA ITABIBOCAN 0, LOTE 10 QUADRA 342 (ANPARADA MORAB25265188DUQUE DE CAXIASRJUNIAO UMB DOS CULTOS AFRO BRAS    30031915 000166
10231987175000168817800093673    000039117                    000391170000000000000109                     I0239117     30031900000000040003410000017N261218105700000000000103003190000000000000000000000000000000000000000100079882749704IRIS BRASILINO VILELA                   RUA: SETE DE SETEMBRO N 183,            CAMARI      26022202NOVA IGUACU    RJUNIAO UMB DOS CULTOS AFRO BRAS    30031915 000167
10231987175000168817800093673    000039116                    000391160000000000000109                     I0239116     30031900000000040003410000017N261218105700000000000103003190000000000000000000000000000000000000000100082191638791RITA DE CASSIA VALVERDE ROCHA           RUA JOAQUIM SOARES NETO N 250,          NOVA AMERICA26021560NOVA IGUACU    RJUNIAO UMB DOS CULTOS AFRO BRAS    30031915 000168
10231987175000168817800093673    000039114                    000391140000000000000109                     I0239114     30031900000000040003410000017N261218105700000000000103003190000000000000000000000000000000000000000100004244337709WANDERSON SANTOS DA SILVA               RUA ARMANDO SANTOSN 113, CASA 2         RECREIO DOS 22790330RIO DE JANEIRO RJUNIAO UMB DOS CULTOS AFRO BRAS    30031915 000169
10231987175000168817800093673    000039113                    000391130000000000000109                     I0239113     30031900000000040003410000017N261218105700000000000103003190000000000000000000000000000000000000000100014520518792STEPHANI MATOS MONTEIRO                 ESTRADA DOUTOR PLINIO CASADO N 3599,    CENTRO      26130622BELFORD ROXO   RJUNIAO UMB DOS CULTOS AFRO BRAS    30031915 000170
10231987175000168817800093673    000039112                    000391120000000000000109                     I0239112     30031900000000040003410000017N261218105700000000000103003190000000000000000000000000000000000000000100012727461780SUELMIR LIMA DE ARAUJO                  RUA NOSSA SENHORA DAS GRACASN 98,       PRAIA DO ANI25925708MAGE           RJUNIAO UMB DOS CULTOS AFRO BRAS    30031915 000171
10231987175000168817800093673    000039110                    000391100000000000000109                     I0239110     30031900000000040003410000017N261218105700000000000103003190000000000000000000000000000000000000000100001346375771CRISTIANE MARIANO RAPELLO               ESTRADA ALBERTO TEIXEIRA CUNHA N 1410, CNOSSA SENHOR26520070NILOPOLIS      RJUNIAO UMB DOS CULTOS AFRO BRAS    30031915 000172
10231987175000168817800093673    000039109                    000391090000000000000109                     I0239109     30031900000000040003410000017N261218105700000000000103003190000000000000000000000000000000000000000100011351878786GLEISSON BITTENCOURT DA SILVA           RUA FLORA DE ARAUJO N 310,              PRATA       26010570NOVA IGUACU    RJUNIAO UMB DOS CULTOS AFRO BRAS    30031915 000173
10231987175000168817800093673    000039106                    000391060000000000000109                     I0239106     30031900000000040003410000017N261218105700000000000103003190000000000000000000000000000000000000000100070645523704RICARDO DE SOUZA LIMA                   RUA MAJOR AZEVEDO N 344,                IRAJA       21230060RIO DE JANEIRO RJUNIAO UMB DOS CULTOS AFRO BRAS    30031915 000174
10231987175000168817800093673    000039105                    000391050000000000000109                     I0239105     30031900000000040003410000017N261218105700000000000103003190000000000000000000000000000000000000000100068373570772RONILCE CAMILO DA SILVA                 RUA RUBY ALBERTORIAN 158, APT 101       BARAO DE GUA26061155NOVA IGUACU    RJUNIAO UMB DOS CULTOS AFRO BRAS    30031915 000175
10231987175000168817800093673    000039104                    000391040000000000000109                     I0239104     30031900000000040003410000017N261218105700000000000103003190000000000000000000000000000000000000000100047442140700MARFIZA FERREIRA DA SILVA VENA          RUA EURICO COELHO N 50,                 GRAMA       26060650NOVA IGUACU    RJUNIAO UMB DOS CULTOS AFRO BRAS    30031915 000176
10231987175000168817800093673    000039102                    000391020000000000000109                     I0239102     30031900000000040003410000017N261218105700000000000103003190000000000000000000000000000000000000000100000680684760CREUSA MARCIA SATURNINO ALVES           RUA NOSSA SENHORA DE NAZAREN 8,         GERENCIANO  26061700NOVA IGUACU    RJUNIAO UMB DOS CULTOS AFRO BRAS    30031915 000177
10231987175000168817800093673    000039101                    000391010000000000000109                     I0239101     30031900000000040003410000017N261218105700000000000103003190000000000000000000000000000000000000000100002375024702FATIMA APARECIDA OLIVEIRA DE C          RUA MANUEL VITORINO N 412,              ENCANTADO   20740280RIO DE JANEIRO RJUNIAO UMB DOS CULTOS AFRO BRAS    30031915 000178
10231987175000168817800093673    000039100                    000391000000000000000109                     I0239100     30031900000000040003410000017N261218105700000000000103003190000000000000000000000000000000000000000100005828675761THAYS DE FATIMA FERREIRA GOMES          ESTRADA GENERAL AFONSO DE CARVALHON 989,PADRE MIGUEL21725020RIO DE JANEIRO RJUNIAO UMB DOS CULTOS AFRO BRAS    30031915 000179
10231987175000168817800093673    000039093                    000390930000000000000109                     I0239093     30031900000000040003410000017N261218105700000000000103003190000000000000000000000000000000000000000100010276278704ROSELI DE OLIVEIRA DUTRA                RUA UM N 0, LOTE 7 QUADRA 8             TAQUARA     25275110DUQUE DE CAXIASRJUNIAO UMB DOS CULTOS AFRO BRAS    30031915 000180
10231987175000168817800093673    000039089                    000390890000000000000109                     I0239089     30031900000000040003410000017N261218105700000000000103003190000000000000000000000000000000000000000100005646881773DEBORA LINS                             RUA KARLAN 0, LOTE 24 QUADRA 3          VALE DO IPE 26182330BELFORD ROXO   RJUNIAO UMB DOS CULTOS AFRO BRAS    30031915 000181
10231987175000168817800093673    000039088                    000390880000000000000109                     I0239088     30031900000000040003410000017N261218105700000000000103003190000000000000000000000000000000000000000100002373869764ANA PAULA OLIVEIRA DE ANDRADE           RUA FERNANDO DA COSTA N 0,  LOTE 25 QUADPARQUE MARTI26183543BELFORD ROXO   RJUNIAO UMB DOS CULTOS AFRO BRAS    30031915 000182
10231987175000168817800093673    000039086                    000390860000000000000109                     I0239086     30031900000000040003410000017N261218105700000000000103003190000000000000000000000000000000000000000100038835568749MARIA DE ALCANTARA GOULART SIL          RUA GAMBIA N 41,                        JACAREPAGUA 22775400RIO DE JANEIRO RJUNIAO UMB DOS CULTOS AFRO BRAS    30031915 000183
10231987175000168817800093673    000039085                    000390850000000000000109                     I0239085     30031900000000040003410000017N261218105700000000000103003190000000000000000000000000000000000000000100011998959708ARTUR TAVARES DA SILVA NETO             RUA PREFEITO JOAO CARLOS VITAL N 17,    CROACIA - SE23540080RIO DE JANEIRO RJUNIAO UMB DOS CULTOS AFRO BRAS    30031915 000184
10231987175000168817800093673    000039084                    000390840000000000000109                     I0239084     30031900000000040003410000017N261218105700000000000103003190000000000000000000000000000000000000000100008502438743ALINE RAMOS DE SOUZA DA SILVA           RUA DOUTOR ISMAEL CAVALCANTI N 240,     SEPETIBA    23545145RIO DE JANEIRO RJUNIAO UMB DOS CULTOS AFRO BRAS    30031915 000185
10231987175000168817800093673    000039083                    000390830000000000000109                     I0239083     30031900000000040003410000017N261218105700000000000103003190000000000000000000000000000000000000000100007103755736ALESSANDRA COSTA DE BARROS              PRACA OSCAR ROSSIM N 84,                SEPETIBA    23540250RIO DE JANEIRO RJUNIAO UMB DOS CULTOS AFRO BRAS    30031915 000186
10231987175000168817800093673    000039082                    000390820000000000000109                     I0239082     30031900000000040003410000017N261218105700000000000103003190000000000000000000000000000000000000000100002420898796ROSILENE MATHEUS DE CARVALHO            RUA KEMAL PACHA N 43,                   VILA SANTO A25040220DUQUE DE CAXIASRJUNIAO UMB DOS CULTOS AFRO BRAS    30031915 000187
10231987175000168817800093673    000039081                    000390810000000000000109                     I0239081     30031900000000040003410000017N261218105700000000000103003190000000000000000000000000000000000000000100014563820717PAULA GOMES DA SILVA MOTTA              RUA GABRIEL DANUSION 10, FUNDOS         VILA SANTO A25040230DUQUE DE CAXIASRJUNIAO UMB DOS CULTOS AFRO BRAS    30031915 000188
10231987175000168817800093673    000039079                    000390790000000000000109                     I0239079     30031900000000040003410000017N261218105700000000000103003190000000000000000000000000000000000000000100009946366797SIMONE SOARES NEA                       RUA FLAVIO RANGEL N 0, QUADRA B LOTE 7  CAMPO GRANDE23085430RIO DE JANEIRO RJUNIAO UMB DOS CULTOS AFRO BRAS    30031915 000189
10231987175000168817800093673    000039077                    000390770000000000000109                     I0239077     30031900000000040003410000017N261218105700000000000103003190000000000000000000000000000000000000000100002638717703EDINO GOMES DE BARROS JUNIOR            RUA PARANA N 10,                        MORRO DO ORI24400000SAO GONCALO    RJUNIAO UMB DOS CULTOS AFRO BRAS    30031915 000190
10231987175000168817800093673    000039076                    000390760000000000000109                     I0239076     30031900000000040003410000017N261218105700000000000103003190000000000000000000000000000000000000000100000920173713JORGE DOS SANTOS LUCAS                  RUA PPN 0,  LOTE 5 QUADRA 48            JARDIM ANHAN25264630DUQUE DE CAXIASRJUNIAO UMB DOS CULTOS AFRO BRAS    30031915 000191
10231987175000168817800093673    000039075                    000390750000000000000109                     I0239075     30031900000000040003410000017N261218105700000000000103003190000000000000000000000000000000000000000100009483806755MARCO ANTONIO ATAIDE DE MELO            TRAVESSA MARAPEN 3, FUNDOS              COSTA BARROS21515240RIO DE JANEIRO RJUNIAO UMB DOS CULTOS AFRO BRAS    30031915 000192
10231987175000168817800093673    000039068                    000390680000000000000109                     I0239068     30031900000000040003410000017N261218105700000000000103003190000000000000000000000000000000000000000100001857739744JORGE DE MORAES ESTANISLAU              RUA TITANICN 7, CASA 1 FUNDOS           REALENGO    21735620RIO DE JANEIRO RJUNIAO UMB DOS CULTOS AFRO BRAS    30031915 000193
10231987175000168817800093673    000039067                    000390670000000000000109                     I0239067     30031900000000040003410000017N261218105700000000000103003190000000000000000000000000000000000000000100001251801790AMARO LYRA DOS SANTOS FILHO             RUA JOAO VICENTE N 281, CASA 5          MADUREIRA   21340020RIO DE JANEIRO RJUNIAO UMB DOS CULTOS AFRO BRAS    30031915 000194
10231987175000168817800093673    000039063                    000390630000000000000109                     I0239063     30031900000000040003410000017N261218105700000000000103003190000000000000000000000000000000000000000100002520859733ZILAIR SANTOS BARBOSA                   RUA MARANGAN 48,                        PRACA SECA  21321060RIO DE JANEIRO RJUNIAO UMB DOS CULTOS AFRO BRAS    30031915 000195
10231987175000168817800093673    000039059                    000390590000000000000109                     I0239059     30031900000000040003410000017N261218105700000000000103003190000000000000000000000000000000000000000100014199569731LUIS FILIPE SANTOS COSTA                ESTRADA DOUTOR JOAQUIM NICOLAU N 1529, CPRACA PONTE 26900000MIGUEL PEREIRA RJUNIAO UMB DOS CULTOS AFRO BRAS    30031915 000196
10231987175000168817800093673    000039057                    000390570000000000000109                     I0239057     30031900000000040003410000017N261218105700000000000103003190000000000000000000000000000000000000000100053470095787OSVALDO VALENTE COELHO FILHO            RUA VISCONDE DE SABOIA N 54, RUA I N 111CAVALCANTI  21370220RIO DE JANEIRO RJUNIAO UMB DOS CULTOS AFRO BRAS    30031915 000197
10231987175000168817800093673    000039054                    000390540000000000000109                     I0239054     30031900000000040003410000017N261218105700000000000103003190000000000000000000000000000000000000000100099586800768MARLECI NAVARRO DE FARIA                AVENIDA TENENTE REBELON 381, APT 303    IRAJA       21230075RIO DE JANEIRO RJUNIAO UMB DOS CULTOS AFRO BRAS    30031915 000198
10231987175000168817800093673    000039048                    000390480000000000000109                     I0239048     30031900000000040003410000017N261218105700000000000103003190000000000000000000000000000000000000000100003013793783GIOVANA SURAMA BRANDAO MONFORT          RUA JOAO TELESN 0, LOTE 94 QUADRA 93    CENTRO      26550100MESQUITA       RJUNIAO UMB DOS CULTOS AFRO BRAS    30031915 000199
10231987175000168817800093673    000039047                    000390470000000000000109                     I0239047     30031900000000040003410000017N261218105700000000000103003190000000000000000000000000000000000000000100009199332701LUANDA MOREIRA DOS SANTOS FERN          RUA SEVERIANO MONTEIRON 232, APT 302    BRAZ DE PINA21235620RIO DE JANEIRO RJUNIAO UMB DOS CULTOS AFRO BRAS    30031915 000200
10231987175000168817800093673    000039044                    000390440000000000000109                     I0239044     30031900000000040003410000017N261218105700000000000103003190000000000000000000000000000000000000000100002102287769SERGIO RICARDO FERREIRA DOS SA          RUA LAGUNA N 23,                        NOVA PIAM   26051370BELFORD ROXO   RJUNIAO UMB DOS CULTOS AFRO BRAS    30031915 000201
10231987175000168817800093673    000039042                    000390420000000000000109                     I0239042     30031900000000040003410000017N261218105700000000000103003190000000000000000000000000000000000000000100001147868794VALERIA APARECIDA DE SOUZA              RUA ALCYR BRASIL N 710,                 JARDIM NOVA 26266010NOVA IGUACU    RJUNIAO UMB DOS CULTOS AFRO BRAS    30031915 000202
10231987175000168817800093673    000039041                    000390410000000000000109                     I0239041     30031900000000040003410000017N261218105700000000000103003190000000000000000000000000000000000000000100007900227709FLAVIA ARAUJO DA ROCHA SANTOS           RUA MARECHAL BIBIANO COSTALAT N 588,    REALENGO    21735350RIO DE JANEIRO RJUNIAO UMB DOS CULTOS AFRO BRAS    30031915 000203
10231987175000168817800093673    000039039                    000390390000000000000109                     I0239039     30031900000000040003410000017N261218105700000000000103003190000000000000000000000000000000000000000100099941120749ERNELIA DA SILVA                        RUA JOSE BEZZ N 23, LOTE 299 QUADRA 9   GABRIEL UM  24856172ITABORAI       RJUNIAO UMB DOS CULTOS AFRO BRAS    30031915 000204
10231987175000168817800093673    000039037                    000390370000000000000109                     I0239037     30031900000000040003410000017N261218105700000000000103003190000000000000000000000000000000000000000100002362714748MAGLENE GOMES ARAUJO                    RUA TENENTE PINTO DUARTE N 36,          BENTO RIBEIR21550370RIO DE JANEIRO RJUNIAO UMB DOS CULTOS AFRO BRAS    30031915 000205
10231987175000168817800093673    000039034                    000390340000000000000109                     I0239034     30031900000000040003410000017N261218105700000000000103003190000000000000000000000000000000000000000100064947130768MARIA GORETE DE SOUSA MIRANDA           AVENIDA PASTEUR N 113, A                PARQUE ALIAN25550210SAO JOAO DE MERRJUNIAO UMB DOS CULTOS AFRO BRAS    30031915 000206
10231987175000168817800093673    000039032                    000390320000000000000109                     I0239032     30031900000000040003410000017N261218105700000000000103003190000000000000000000000000000000000000000100012781404764RICARDO RIBEIRO DOS SANTOS              RUA MARIA FRANCISCAN 16, B              CENTRO - CAM23050030RIO DE JANEIRO RJUNIAO UMB DOS CULTOS AFRO BRAS    30031915 000207
10231987175000168817800093673    000039031                    000390310000000000000109                     I0239031     30031900000000040003410000017N261218105700000000000103003190000000000000000000000000000000000000000100010426625765ALESSANDRA LAURIANO LIMA DOMIN          RUA PROJETADAN 4,                       ANCORA      28899515RIO DAS OSTRAS RJUNIAO UMB DOS CULTOS AFRO BRAS    30031915 000208
10231987175000168817800093673    000039030                    000390300000000000000109                     I0239030     30031900000000040003410000017N261218105700000000000103003190000000000000000000000000000000000000000100037465732700NADIA MARIA DE BRITTO LUCENA            RUA: LIBERATO BITENCOURT N 170,         MAGALHAES BA21735120RIO DE JANEIRO RJUNIAO UMB DOS CULTOS AFRO BRAS    30031915 000209
10231987175000168817800093673    000039029                    000390290000000000000109                     I0239029     30031900000000040003410000017N261218105700000000000103003190000000000000000000000000000000000000000100008527396726JUSSARA BALBINO GENUARIO                RUA DAS MARGARIDASN 16,                 CHAPERO     23830240ITAGUAI        RJUNIAO UMB DOS CULTOS AFRO BRAS    30031915 000210
10231987175000168817800093673    000039027                    000390270000000000000109                     I0239027     30031900000000045003410000017N261218105700000000000103003190000000000000000000000000000000000000000100004524099778CRISTIANE VIEIRA DAS CHAGAS             AVENIDA FLAMBOYNTS N 100, BLOCO 2 APT 50BARRA DA TIJ22776070RIO DE JANEIRO RJUNIAO UMB DOS CULTOS AFRO BRAS    30031915 000211
10231987175000168817800093673    000039026                    000390260000000000000109                     I0239026     30031900000000040003410000017N261218105700000000000103003190000000000000000000000000000000000000000100015295681700MICHEL FERNANDES BASTOS CRESPO          RUA ROSANGELA TOSTES N 0, LOTE 8 QD 21  PARQUE FLUMI26185260BELFORD ROXO   RJUNIAO UMB DOS CULTOS AFRO BRAS    30031915 000212
10231987175000168817800093673    000039021                    000390210000000000000109                     I0239021     30031900000000040003410000017N261218105700000000000103003190000000000000000000000000000000000000000100090036018791SILVIA ELAINE GEVEGIR DA SILVA          RUA VINTEN 0, QUADRA 305 LOTE 34        PARADA MORAB25265130DUQUE DE CAXIASRJUNIAO UMB DOS CULTOS AFRO BRAS    30031915 000213
10231987175000168817800093673    000039020                    000390200000000000000109                     I0239020     30031900000000040003410000017N261218105700000000000103003190000000000000000000000000000000000000000100014653084742THEILOR MORAIS DE MIRANDA               RUA SAO BENEDITON 25,                   VILA GENI   23826010ITAGUAI        RJUNIAO UMB DOS CULTOS AFRO BRAS    30031915 000214
10231987175000168817800093673    000039019                    000390190000000000000109                     I0239019     30031900000000040003410000017N261218105700000000000103003190000000000000000000000000000000000000000100040433307749IARA BARBOSA MACHADO                    RUA SAO FIDELIS N 0, LOTE 16 QUADRA 25  PRADOS VERDE26299165NOVA IGUACU    RJUNIAO UMB DOS CULTOS AFRO BRAS    30031915 000215
10231987175000168817800093673    000039018                    000390180000000000000109                     I0239018     30031900000000040003410000017N261218105700000000000103003190000000000000000000000000000000000000000100002045675726ROBSON DOS SANTOS ABREU                 RUA PERCILIANA EMILIA DO NASCIMENTO N 24SILVESTRE   23092540CAMPO GRANDE   RJUNIAO UMB DOS CULTOS AFRO BRAS    30031915 000216
10231987175000168817800093673    000039017                    000390170000000000000109                     I0239017     30031900000000040003410000017N261218105700000000000103003190000000000000000000000000000000000000000100005793791752WANDERSON DAMASCENO CATARINO            TRAVESSA ALBERTO PITTA N 427,           BARRO VERMEL24416060SAO GONCALO    RJUNIAO UMB DOS CULTOS AFRO BRAS    30031915 000217
10231987175000168817800093673    000039013                    000390130000000000000109                     I0239013     30031900000000040003410000017N261218105700000000000103003190000000000000000000000000000000000000000100003606459769ROSILANE FRANCISCA DOS SANTOS           RUA ARTUR FARIASN 252,                  RIO DO OURO 25922184MAGE           RJUNIAO UMB DOS CULTOS AFRO BRAS    30031915 000218
10231987175000168817800093673    000039012                    000390120000000000000109                     I0239012     30031900000000040003410000017N261218105700000000000103003190000000000000000000000000000000000000000100060774282720ROSANGELA MOURA VALENTE                 RUA: CINQUENTA E QUATRON 0, LOTE 38 QUADJARDIM ATLAN24934220MARICA         RJUNIAO UMB DOS CULTOS AFRO BRAS    30031915 000219
10231987175000168817800093673    000039011                    000390110000000000000109                     I0239011     30031900000000040003410000017N261218105700000000000103003190000000000000000000000000000000000000000100001084586797ANA GLORIA NONATO CASTILHO              RUA GENERAL BELEGARDEN 104, CASA 34 APT ENGENHO NOVO20710003RIO DE JANEIRO RJUNIAO UMB DOS CULTOS AFRO BRAS    30031915 000220
10231987175000168817800093673    000039010                    000390100000000000000109                     I0239010     30031900000000040003410000017N261218105700000000000103003190000000000000000000000000000000000000000100002644948738PAULO CESAR MARINS DA SILVA             RUA: EDUARDO NORONHA N 35,              ROCHA       24420615SAO GONCALO    RJUNIAO UMB DOS CULTOS AFRO BRAS    30031915 000221
10231987175000168817800093673    000039009                    000390090000000000000109                     I0239009     30031900000000040003410000017N261218105700000000000103003190000000000000000000000000000000000000000100000907912745JULIO CESAR FRANCA CORREA               RUA ITAPERUNA N 55,                     VILA DE CAVA26056260NOVA IGUACU    RJUNIAO UMB DOS CULTOS AFRO BRAS    30031915 000222
10231987175000168817800093673    000039008                    000390080000000000000109                     I0239008     30031900000000040003410000017N261218105700000000000103003190000000000000000000000000000000000000000100000355768712ANA CRISTINA VERISSIMO DA SILV          ESTRADA DO TINGUI N 1990,               CAMPO GRANDE23075006RIO DE JANEIRO RJUNIAO UMB DOS CULTOS AFRO BRAS    30031915 000223
10231987175000168817800093673    000039005                    000390050000000000000109                     I0239005     30031900000000040003410000017N261218105700000000000103003190000000000000000000000000000000000000000100001346507783ANDREIA FERREIRA E CUNHA                AVENIDA TIRADENTES N 465, CASA 4        CONFIDENCIA 26323260NOVA IGUACU    RJUNIAO UMB DOS CULTOS AFRO BRAS    30031915 000224
10231987175000168817800093673    000039004                    000390040000000000000109                     I0239004     30031900000000040003410000017N261218105700000000000103003190000000000000000000000000000000000000000100007429798659LUCIANA DIAS DE ARRUDA                  RUA CECILIA BRAGA N 16,                 SANTO ANTONI36500000UBA            MGUNIAO UMB DOS CULTOS AFRO BRAS    30031915 000225
10231987175000168817800093673    000039000                    000390000000000000000109                     I0239000     30031900000000040003410000017N261218105700000000000103003190000000000000000000000000000000000000000100012097291724CAROLINA BEZERRA DE CASTRO CAV          AVENIDA DOM HELDER CAMARAN 9111, BLOCO 1QUINTINO BOC21380008RIO DE JANEIRO RJUNIAO UMB DOS CULTOS AFRO BRAS    30031915 000226
10231987175000168817800093673    000038998                    000389980000000000000109                     I0238998     30031900000000040003410000017N261218105700000000000103003190000000000000000000000000000000000000000100093130864768SOLANGE GERMANO DA COSTA                RUA URUCUIAN 689, CASA 1                VILA VALQUEI21321310RIO DE JANEIRO RJUNIAO UMB DOS CULTOS AFRO BRAS    30031915 000227
10231987175000168817800093673    000038997                    000389970000000000000109                     I0238997     30031900000000040003410000017N261218105700000000000103003190000000000000000000000000000000000000000100030400942895CLAUDIA REIS SANTOS ARAUJO              RUA LUIS PASQUALLE NETON 218,           SAO JOAO CLI04241030SAO PAULO      SPUNIAO UMB DOS CULTOS AFRO BRAS    30031915 000228
10231987175000168817800093673    000038992                    000389920000000000000109                     I0238992     30031900000000040003410000017N261218105700000000000103003190000000000000000000000000000000000000000100005785015706JOSE TOMASIO                            RUA: DA FIGUEIRAN 102,                  TRES POCOS  27240590VOLTA REDONDA  RJUNIAO UMB DOS CULTOS AFRO BRAS    30031915 000229
10231987175000168817800093673    000038990                    000389900000000000000109                     I0238990     30031900000000040003410000017N261218105700000000000103003190000000000000000000000000000000000000000100058183868720ZILDA SIMOES DO NASCIMENTO MAN          RUA IBITINGA N 31, LOTE 9               PARQUE SAO B26167160BELFORD ROXO   RJUNIAO UMB DOS CULTOS AFRO BRAS    30031915 000230
10231987175000168817800093673    000038985                    000389850000000000000109                     I0238985     30031900000000040003410000017N261218105700000000000103003190000000000000000000000000000000000000000100009948535723ANA CAROLINA VICENTE TELLES GO          RUA PACHECO JUNIOR N 151,               BRAZ DE PINA21211170RIO DE JANEIRO RJUNIAO UMB DOS CULTOS AFRO BRAS    30031915 000231
10231987175000168817800093673    000038983                    000389830000000000000109                     I0238983     30031900000000040003410000017N261218105700000000000103003190000000000000000000000000000000000000000100093743920700RITA DE CASSIA COSTA SENNA              RUA COMANDANTE ARY PARREIRAS N 181,     CENTRO      25515080SAO JOAO DE MERRJUNIAO UMB DOS CULTOS AFRO BRAS    30031915 000232
10231987175000168817800093673    000038981                    000389810000000000000109                     I0238981     30031900000000040003410000017N261218105700000000000103003190000000000000000000000000000000000000000100085339695700DAYSE DE ALMEIDA SOARES                 RUA: COMANDANTE RUBENS SILVA N 700, BLOCJACAREPAGUA 22750054RIO DE JANEIRO RJUNIAO UMB DOS CULTOS AFRO BRAS    30031915 000233
10231987175000168817800093673    000038980                    000389800000000000000109                     I0238980     30031900000000040003410000017N261218105700000000000103003190000000000000000000000000000000000000000100084407883715MAURO FERREIRA MATHEUS                  ESTRADA DO ENGENHO, N 1981, RUA CASTOR DPRACA PIQUER21370200RIO DE JANEIRO RJUNIAO UMB DOS CULTOS AFRO BRAS    30031915 000234
10231987175000168817800093673    000038979                    000389790000000000000109                     I0238979     30031900000000040003410000017N261218105700000000000103003190000000000000000000000000000000000000000100000446671754JUSSARA MATHIAS TEIXEIRA                RUA VEREADOR OSVALDO MARCONDES N 106,   JOSE BONIFAC25515380SAO JOAO DE MERRJUNIAO UMB DOS CULTOS AFRO BRAS    30031915 000235
10231987175000168817800093673    000038978                    000389780000000000000109                     I0238978     30031900000000040003410000017N261218105700000000000103003190000000000000000000000000000000000000000100072386290700FERNANDO LOPES NARCISO                  RUA IPINAMBESN 196,                     TAQUARA     22730210RIO DE JANEIRO RJUNIAO UMB DOS CULTOS AFRO BRAS    30031915 000236
10231987175000168817800093673    000038977                    000389770000000000000109                     I0238977     30031900000000040003410000017N261218105700000000000103003190000000000000000000000000000000000000000100008091112769ALINE BEATRIZ GARCIA DA SILVA           RUA ENGENHEIRO HENRIQUE LUSSACK N 936,  CENTRO      26553500MESQUITA       RJUNIAO UMB DOS CULTOS AFRO BRAS    30031915 000237
10231987175000168817800093673    000038976                    000389760000000000000109                     I0238976     30031900000000040003410000017N261218105700000000000103003190000000000000000000000000000000000000000100013553344890LUCIANO MAURICIO ESTEVES OSTER          ESTRADA ANTONIO DOS REIS CARNEIRON 154, SAO JOSE    26193320BELFORD ROXO   RJUNIAO UMB DOS CULTOS AFRO BRAS    30031915 000238
10231987175000168817800093673    000038975                    000389750000000000000109                     I0238975     30031900000000040003410000017N261218105700000000000103003190000000000000000000000000000000000000000100037497030787LINDINALVA AGUIAR PAVANELLI             RUA CRUZ LIMA  N 41, APT 801            FLAMENGO    22230010RIO DE JANEIRO RJUNIAO UMB DOS CULTOS AFRO BRAS    30031915 000239
10231987175000168817800093673    000038974                    000389740000000000000109                     I0238974     30031900000000040003410000017N261218105700000000000103003190000000000000000000000000000000000000000100060709910797FATIMA REGINA CARVALHO                  RUA GENERAL EMIRN 0,  QUADRA 39 LOTE 1 CITAIPUCU    24935540MARICA         RJUNIAO UMB DOS CULTOS AFRO BRAS    30031915 000240
10231987175000168817800093673    000038973                    000389730000000000000109                     I0238973     30031900000000040003410000017N261218105700000000000103003190000000000000000000000000000000000000000100009952239718EVANGELO RAIMUNDO                       RUA GENUINO SIQUEIRAN 52,               JARDIM MERIT25555300SAO JOAO DE MERRJUNIAO UMB DOS CULTOS AFRO BRAS    30031915 000241
10231987175000168817800093673    000038972                    000389720000000000000109                     I0238972     30031900000000040003410000017N261218105700000000000103003190000000000000000000000000000000000000000100005626387765VANIA SANTIAGO                          RUA MANOEL VIEIRAN 576,                 CENTRO      25020210DUQUE DE CAXIASRJUNIAO UMB DOS CULTOS AFRO BRAS    30031915 000242
10231987175000168817800093673    000038969                    000389690000000000000109                     I0238969     30031900000000040003410000017N261218105700000000000103003190000000000000000000000000000000000000000100001902241770JOSE RICARDO CORREA FERREIRA            RUA BIRIGUIN 4459,                      BOA VISTA   24466190SAO GONCALO    RJUNIAO UMB DOS CULTOS AFRO BRAS    30031915 000243
10231987175000168817800093673    000038968                    000389680000000000000109                     I0238968     30031900000000045003410000017N261218105700000000000103003190000000000000000000000000000000000000000100007469638741TATIANA ANICETO DE LEMOS SIMOE          RUA REVERENCIA  N 86,                   CURICICA    22780580RIO DE JANEIRO RJUNIAO UMB DOS CULTOS AFRO BRAS    30031915 000244
10231987175000168817800093673    000038964                    000389640000000000000109                     I0238964     30031900000000040003410000017N261218105700000000000103003190000000000000000000000000000000000000000100057231737749ELIZABETE CARVALHO COSTA                RUA EXPEDICIONARIO SIMAO FERNANDESN 31, COLUMBANDE  24451700SAO GONCALO    RJUNIAO UMB DOS CULTOS AFRO BRAS    30031915 000245
10231987175000168817800093673    000038963                    000389630000000000000109                     I0238963     30031900000000040003410000017N261218105700000000000103003190000000000000000000000000000000000000000100077351436649RONALDO MARTINS DOS SANTOS              RUA DOMINGOS MARCOS DA SILVA N 196,     SENHOR DOS M36300356SAO JOAO DEL REMGUNIAO UMB DOS CULTOS AFRO BRAS    30031915 000246
10231987175000168817800093673    000038961                    000389610000000000000109                     I0238961     30031900000000040003410000017N261218105700000000000103003190000000000000000000000000000000000000000100010610164716TATIANA DA SILVA SANTOS                 RUA IRACEMAN 176,                       VILA DE CAVA25065655NOVA IGUACU    RJUNIAO UMB DOS CULTOS AFRO BRAS    30031915 000247
10231987175000168817800093673    000038960                    000389600000000000000109                     I0238960     30031900000000040003410000017N261218105700000000000103003190000000000000000000000000000000000000000100015458844718ANDRE LUIZ TRINDADE FORTES JUN          RUA HERTAN 25,                          IMPERADOR   25900001MAGE           RJUNIAO UMB DOS CULTOS AFRO BRAS    30031915 000248
10231987175000168817800093673    000038959                    000389590000000000000109                     I0238959     30031900000000040003410000017N261218105700000000000103003190000000000000000000000000000000000000000100003139923716ANDRE MARQUES POLICARPO                 RUA PIRACANJUBA N 0, LOTE 11 QUADRA 209 JARDIM CATAR24716051SAO GONCALO    RJUNIAO UMB DOS CULTOS AFRO BRAS    30031915 000249
