01REMESSA01COBRANCA       916200163100        União Umb dos Cultos Afro Bra341BANCO ITAU SA  040119                                                                                                                                                                                                                                                                                                      000001
10231987175000168916200163100    000039493                    000394930000000000000109                     I0139493     30011900000000700003410000017N040119104700000000000103001190000000000000000000000000000000000000000100000361715730MARCOS DIAS VALE                        RUA DAS FLORES                          IPIRANGA    26293450NOVA IGUACU    RJUNIAO UMB DOS CULTOS AFRO BRAS    30011910 000002
10231987175000168916200163100    000039492                    000394920000000000000109                     I0139492     29031900000000040003410000017N040119104700000000000102903190000000000000000000000000000000000000000100009448785712ANDREIA SOUSA SERRA                     RUA BIRIGUI                             BOA VISTA   24466190SAO GONCALO    RJUNIAO UMB DOS CULTOS AFRO BRAS    29031910 000003
10231987175000168916200163100    000039491                    000394910000000000000109                     I0139491     28021900000000040003410000017N040119104700000000000102802190000000000000000000000000000000000000000100009448785712ANDREIA SOUSA SERRA                     RUA BIRIGUI                             BOA VISTA   24466190SAO GONCALO    RJUNIAO UMB DOS CULTOS AFRO BRAS    28021910 000004
10231987175000168916200163100    000039490                    000394900000000000000109                     I0139490     08011900000000070003410000017N040119104700000000000100801190000000000000000000000000000000000000000100003341744738CASSIA GOMES CASTORINO                  RUA COMENDADOR CRISOSTEMO CRUZ          SANTA MARIA 26165400BELFORD ROXO   RJUNIAO UMB DOS CULTOS AFRO BRAS    08011910 000005
10231987175000168916200163100    000039489                    000394890000000000000109                     I0139489     10011900000000350003410000017N040119104700000000000101001190000000000000000000000000000000000000000100090853784787MARIA LUCIA PEREIRA DA SILVA            RUA CORACAO DE MARIA                    MEIER       20775050RIO DE JANEIRO RJUNIAO UMB DOS CULTOS AFRO BRAS    10011910 000006
10231987175000168916200163100    000039488                    000394880000000000000109                     I0139488     10011900000000035003410000017N040119104700000000000101001190000000000000000000000000000000000000000100005529010750JOELMA MELO DA SILVA                    RUA DIONIZIO RIBEIRO CHAVES             ANAIA - SANT24737660SAO GONCALO    RJUNIAO UMB DOS CULTOS AFRO BRAS    10011910 000007
10231987175000168916200163100    000039487                    000394870000000000000109                     I0139487     15011900000000105003410000017N040119104700000000000101501190000000000000000000000000000000000000000100044339682772MARIA APARECIDA DE MOURA MORTA          RUA CARLOS COSTA                        RIACHUELO   20970090RIO DE JANEIRO RJUNIAO UMB DOS CULTOS AFRO BRAS    15011910 000008
10231987175000168916200163100    000039486                    000394860000000000000109                     I0139486     31031900000000040003410000017N040119104700000000000103103190000000000000000000000000000000000000000100047933933220LUCIANA COSTA OLIVEIRA LEITE            EIXO UM - LINHA 1                       ZONA RURAL  76988899VILHENA        ROUNIAO UMB DOS CULTOS AFRO BRAS    31031910 000009
10231987175000168916200163100    000039485                    000394850000000000000109                     I0139485     28021900000000040003410000017N040119104700000000000102802190000000000000000000000000000000000000000100047933933220LUCIANA COSTA OLIVEIRA LEITE            EIXO UM - LINHA 1                       ZONA RURAL  76988899VILHENA        ROUNIAO UMB DOS CULTOS AFRO BRAS    28021910 000010
10231987175000168916200163100    000039484                    000394840000000000000109                     I0139484     31011900000000040003410000017N040119104700000000000103101190000000000000000000000000000000000000000100047933933220LUCIANA COSTA OLIVEIRA LEITE            EIXO UM - LINHA 1                       ZONA RURAL  76988899VILHENA        ROUNIAO UMB DOS CULTOS AFRO BRAS    31011910 000011
10231987175000168916200163100    000039483                    000394830000000000000109                     I0139483     11011900000000350003410000017N040119104700000000000101101190000000000000000000000000000000000000000100081473885787CELIA DA SILVA ALEXANDRE                AVENIDA MARECHAL FONTENELE              LOTEAMENTO V21750000RIO DE JANEIRO RJUNIAO UMB DOS CULTOS AFRO BRAS    11011910 000012
10231987175000168916200163100    000039482                    000394820000000000000109                     I0139482     08011900000000040003410000017N040119104700000000000100801190000000000000000000000000000000000000000100081994699787MARCIA HELENA CORREIA DE LIMA           RUA FRANCISCO ALENCAR                   SEPETIBA    23530540RIO DE JANEIRO RJUNIAO UMB DOS CULTOS AFRO BRAS    08011910 000013
10231987175000168916200163100    000039481                    000394810000000000000109                     I0139481     31031900000000040003410000017N040119104700000000000103103190000000000000000000000000000000000000000100090556933753CELIA MARIA DA SILVA REGO               RUA PRNICIPE DA BEIRA                   DEL CASTILHO25916256RIO DE JANEIRO RJUNIAO UMB DOS CULTOS AFRO BRAS    31031910 000014
10231987175000168916200163100    000039480                    000394800000000000000109                     I0139480     28021900000000040003410000017N040119104700000000000102802190000000000000000000000000000000000000000100090556933753CELIA MARIA DA SILVA REGO               RUA PRNICIPE DA BEIRA                   DEL CASTILHO25916256RIO DE JANEIRO RJUNIAO UMB DOS CULTOS AFRO BRAS    28021910 000015
10231987175000168916200163100    000039479                    000394790000000000000109                     I0139479     31011900000000040003410000017N040119104700000000000103101190000000000000000000000000000000000000000100090556933753CELIA MARIA DA SILVA REGO               RUA PRNICIPE DA BEIRA                   DEL CASTILHO25916256RIO DE JANEIRO RJUNIAO UMB DOS CULTOS AFRO BRAS    31011910 000016
10231987175000168916200163100    000039478                    000394780000000000000109                     I0139478     08011900000000210003410000017N040119104700000000000100801190000000000000000000000000000000000000000100008016237746RAFAEL GRACA PEREIRA                    ESTRADA DA COVANCA                      TANQUE - JAC22735020RIO DE JANEIRO RJUNIAO UMB DOS CULTOS AFRO BRAS    08011910 000017
10231987175000168916200163100    000039477                    000394770000000000000109                     I0139477     08011900000000035003410000017N030119104700000000000100801190000000000000000000000000000000000000000100005474832796VANESSA MANTUANO FERNANDES              RUA DOM JOAO VI                         JARDIM NOSSA23097722RIO DE JANEIRO RJUNIAO UMB DOS CULTOS AFRO BRAS    08011910 000018
10231987175000168916200163100    000039462                    000394620000000000000109                     I0239462     31011900000000040003410000017N030119104700000000000103101190000000000000000000000000000000000000000100055055753749MARIA LUCIA BENJAMIN DE FREITA          RUA QUITO                               JARDIM PRIMA25223150RIO DE JANEIRO RJUNIAO UMB DOS CULTOS AFRO BRAS    31011910 000019
9                                                                                                                                                                                                                                                                                                                                                                                                         000020
