01REMESSA01COBRANCA       817800093673        União Umb dos Cultos Afro Bra341BANCO ITAU SA  110118                                                                                                                                                                                                                                                                                                      000001
10231987175000168817800093673    00007203                     000072030000000000000109                     I017203      28021800000000035003410000017N271217050900000000000102802180000000000000000000000000000000000000000100002375024702FATIMA APARECIDA OLIVEIRA DE C          RUA OURO PRETO QD 46 LT 21              COQUEIRAL  A20740280RIO DE JANEIRO RJUNIAO UMB DOS CULTOS AFRO BRAS    28021810 000002
10231987175000168817800093673    00007202                     000072020000000000000109                     I017202      28021800000000035003410000017N271217050900000000000102802180000000000000000000000000000000000000000100005828675761THAYS DE FATIMA FERREIRA GOMES          ESTRADA GENERAL AFONSO DE CARVALHO N 989PADRE MIGUEL21725020RIO DE JANEIRO RJUNIAO UMB DOS CULTOS AFRO BRAS    28021810 000003
10231987175000168817800093673    00007201                     000072010000000000000109                     I017201      28021800000000035003410000017N271217050900000000000102802180000000000000000000000000000000000000000100076994511715MARIA DAS GRACAS SANTOS DA SIL          RUA  ISLANDIA LT 7 QD 39  SARACURUNA    DUQUE DE CAX25211050DUQUE DE CAXIASRJUNIAO UMB DOS CULTOS AFRO BRAS    28021810 000004
10231987175000168817800093673    00007200                     000072000000000000000109                     I017200      28021800000000035003410000017N271217050900000000000102802180000000000000000000000000000000000000000100001317692780SELENE FREIRE DE ARAUJO CANNAN          RUA DA CONQUISTA N 442                  JARDIM ESPLA26013330NOVA IGUACU    RJUNIAO UMB DOS CULTOS AFRO BRAS    28021810 000005
10231987175000168817800093673    00007199                     000071990000000000000109                     I017199      28021800000000035003410000017N271217050900000000000102802180000000000000000000000000000000000000000100080578063700SANDRA REGINA NEVES CHAGAS              RUA MARIA LOURENCO N 12 CASA 2          JARDIM PRIMA25215367DUQUE DE CAXIASRJUNIAO UMB DOS CULTOS AFRO BRAS    28021810 000006
10231987175000168817800093673    00007198                     000071980000000000000109                     I017198      28021800000000035003410000017N271217050900000000000102802180000000000000000000000000000000000000000100068374208791ROSANA LISBOA DE OLIVEIRA               RUA TEOFILO DIAS LOTE 7 QUADRA 47       PILAR - DUQU25233239DUQUE DE CAXIASRJUNIAO UMB DOS CULTOS AFRO BRAS    28021810 000007
10231987175000168817800093673    00007197                     000071970000000000000109                     I017197      28021800000000035003410000017N271217050900000000000102802180000000000000000000000000000000000000000100014760475702DEBORAH ROSA                            RUA MARIA LOURENCO GONCALVES N 18 CASA 2JARDIM PRIMA25215367DUQUE DE CAXIASRJUNIAO UMB DOS CULTOS AFRO BRAS    28021810 000008
10231987175000168817800093673    00007196                     000071960000000000000109                     I017196      28021800000000035003410000017N271217050900000000000102802180000000000000000000000000000000000000000100054336481768PENHA JACIARA DA SILVA                  RUA DEZESSETE N 102 (CONJUNTO LIBERDADE)SANTA CRUZ -23560600RIO DE JANEIRO RJUNIAO UMB DOS CULTOS AFRO BRAS    28021810 000009
10231987175000168817800093673    00007195                     000071950000000000000109                     I017195      28021800000000035003410000017N271217050900000000000102802180000000000000000000000000000000000000000100004419977752GISELE DE CASTILHO SOARES               RUA ARTHUR MAGALHAES N 64               COMENDADOR S26276605NOVA IGUACU    RJUNIAO UMB DOS CULTOS AFRO BRAS    28021810 000010
10231987175000168817800093673    00007194                     000071940000000000000109                     I017194      28021800000000035003410000017N271217050900000000000102802180000000000000000000000000000000000000000100006027343710SUELI REIS DIAS DA SILVA                RUA TAPAJOS N 50                        OURO VERDE -26262480NOVA IGUACU    RJUNIAO UMB DOS CULTOS AFRO BRAS    28021810 000011
10231987175000168817800093673    00007193                     000071930000000000000109                     I017193      28021800000000035003410000017N271217050900000000000102802180000000000000000000000000000000000000000100055480730797TEREZINHA DE JESUS FERRAZ DOS           RUA TUPINAMBA N 305 - OURO VERDE        OURO VERDE -26262490NOVA IGUACU    RJUNIAO UMB DOS CULTOS AFRO BRAS    28021810 000012
10231987175000168817800093673    00007192                     000071920000000000000109                     I017192      28021800000000035003410000017N271217050900000000000102802180000000000000000000000000000000000000000100056381832720DAVI LEMOS MOREIRA                      RUA CARLINDA                            VILA DE CAVA26052120NOVA IGUACU    RJUNIAO UMB DOS CULTOS AFRO BRAS    28021810 000013
10231987175000168817800093673    00007191                     000071910000000000000109                     I017191      28021800000000035003410000017N271217050900000000000102802180000000000000000000000000000000000000000100000889136785EDENILSON DE SOUZA SILVA                RUA GUARACIABA N 210 FUNDOS             CAMPO GRANDE23070420RIO DE JANEIRO RJUNIAO UMB DOS CULTOS AFRO BRAS    28021810 000014
10231987175000168817800093673    00007190                     000071900000000000000109                     I017190      28021800000000035003410000017N271217050900000000000102802180000000000000000000000000000000000000000100025814712149JAIR FERREIRA FILHO                     RUA ENGENHEIRO PINHO DE MAGALHAES N 70  VILA DA PENH21220410RIO DE JANEIRO RJUNIAO UMB DOS CULTOS AFRO BRAS    28021810 000015
10231987175000168817800093673    00007189                     000071890000000000000109                     I017189      28021800000000035003410000017N271217050900000000000102802180000000000000000000000000000000000000000100000915013770ROSANGELA DAS NEVES RESENDE DO          RUA GOIANESIA LOTE 23 QUADRA 101        MARAMBAIA - 24859300ITABORAI       RJUNIAO UMB DOS CULTOS AFRO BRAS    28021810 000016
10231987175000168817800093673    00007188                     000071880000000000000109                     I017188      28021800000000035003410000017N271217050900000000000102802180000000000000000000000000000000000000000100005411763746MONICA CRUZ DE OLIVEIRA                 AVENIDA JOAO XXIII - RUA QUATORZE QUADRASANTA CRUZ -23565110RIO DE JANEIRO RJUNIAO UMB DOS CULTOS AFRO BRAS    28021810 000017
9                                                                                                                                                                                                                                                                                                                                                                                                         000018
