01REMESSA01COBRANCA       916200163100        União Umb dos Cultos Afro Bra341BANCO ITAU SA  040118                                                                                                                                                                                                                                                                                                      000001
10231987175000168916200163100    00008750                     000087500000000000000109                     I018750      31011800000000035003410000017N020118050900000000000103101180000000000000000000000000000000000000000100077220145772ANGELA MARIA VIANA DOS SANTOS           RUA ANTONIO ALEXANDRE DE OLIVEIRA, 276  CENTRO - SAO25515050SAO JOAO DE MERRJUNIAO UMB DOS CULTOS AFRO BRAS    31011810 000002
10231987175000168916200163100    00008749                     000087490000000000000109                     I018749      31011800000000035003410000017N020118050900000000000103101180000000000000000000000000000000000000000100061692000730JOAQUIM PEIXOTO                         RUA W 14 LOTE 180 CASA 1                LAGOMAR - MA27970130MACAE          RJUNIAO UMB DOS CULTOS AFRO BRAS    31011810 000003
10231987175000168916200163100    00008731                     000087310000000000000109                     I018731      31011800000000035003410000017N020118050900000000000103101180000000000000000000000000000000000000000100058835652715LUCY ALMEIDA MARTINS DA SILVA           RUA JOAO MENINO,49 FUNDOS               ITACURUCA - 23860000MANGARATIBA    RJUNIAO UMB DOS CULTOS AFRO BRAS    31011810 000004
10231987175000168916200163100    00008718                     000087180000000000000109                     I018718      31011800000000035003410000017N020118050900000000000103101180000000000000000000000000000000000000000100007507770796MARIA DO CARMO MENDONCA MATTOS          RUA NAMUR, 325 CASA 3                   VL VALQUEIRE21330600RIO DE JANEIRO RJUNIAO UMB DOS CULTOS AFRO BRAS    31011810 000005
10231987175000168916200163100    00008717                     000087170000000000000109                     I018717      31011800000000035003410000017N020118050900000000000103101180000000000000000000000000000000000000000100086357522791ANDRE VEIGA PEIXOTO                     ALAMEDA SAO BENTO, 43                   PARQUE SAO V26172130BELFORD ROXO   RJUNIAO UMB DOS CULTOS AFRO BRAS    31011810 000006
10231987175000168916200163100    00008716                     000087160000000000000109                     I018716      31011800000000035003410000017N020118050900000000000103101180000000000000000000000000000000000000000100001416091769SUELY CORREA MACEDO SILVA               RUA CARVALHO DE SOUSA, 137 BLOCO 4 COB 7SAO JOAO DE 21350180RIO DE JANEIRO RJUNIAO UMB DOS CULTOS AFRO BRAS    31011810 000007
10231987175000168916200163100    00008714                     000087140000000000000109                     I018714      31011800000000035003410000017N020118050900000000000103101180000000000000000000000000000000000000000100001057692743ANDRE LUIZ PEDROZA VARELLA              RUA DOIS DE FEVEREIRO, 576 CASA 6 APTO 2ENCANTADO - 20730452RIO DE JANEIRO RJUNIAO UMB DOS CULTOS AFRO BRAS    31011810 000008
10231987175000168916200163100    00008713                     000087130000000000000109                     I018713      31011800000000035003410000017N020118050900000000000103101180000000000000000000000000000000000000000100000230182755RITA DE CASSIA RESENDE BASTOS           RUA CAMBUI, 118                         FREGUESIA - 21911130RIO DE JANEIRO RJUNIAO UMB DOS CULTOS AFRO BRAS    31011810 000009
10231987175000168916200163100    00008712                     000087120000000000000109                     I018712      31011800000000035003410000017N020118050900000000000103101180000000000000000000000000000000000000000100012907979787CINARA CUNHA                            RUA OURO PRETO, 222                     QUINTINO BOC21380380RIO DE JANEIRO RJUNIAO UMB DOS CULTOS AFRO BRAS    31011810 000010
10231987175000168916200163100    00008711                     000087110000000000000109                     I018711      31011800000000035003410000017N020118050900000000000103101180000000000000000000000000000000000000000100001015649700JORGE LUIZ PEIXOTO DO NASCIMEN          RUA JOAO BATISTA, 161                   NEVES - SAO 24425060SAO GONCALO    RJUNIAO UMB DOS CULTOS AFRO BRAS    31011810 000011
9                                                                                                                                                                                                                                                                                                                                                                                                         000012
