01REMESSA01COBRANCA       817800093673        União Umb dos Cultos Afro Bra341BANCO ITAU SA  121218                                                                                                                                                                                                                                                                                                      000001
10231987175000168817800093673    000033239                    000332390000000000000109                     I3433239     20121800000000350003410000017N291018104700000000000102012180000000000000000000000000000000000000000100000617310726JOSE HENRIQUE PEREIRA DO NASCI          RUA: ZELINHO DE SOUZA                   CHACARA RIO 25230484DUQUE DE CAXIASRJUNIAO UMB DOS CULTOS AFRO BRAS    20121810 000002
10231987175000168817800093673    000033102                    000331020000000000000109                     I0233102     20121800000000000003410000017N291018104700000000000102012180000000000000000000000000000000000000000100050246534753TANIA MARIA DA SILVA OLIVEIRA           TRAVESSA MARAJO                         LINDO PARQUE24420100SAO GONCALO    RJUNIAO UMB DOS CULTOS AFRO BRAS    20121810 000003
10231987175000168817800093673    000032864                    000328640000000000000109                     I0232864     20121800000000350003410000017N291018104700000000000102012180000000000000000000000000000000000000000100077601505715ROBERTO RAMOS DA CUNHA                  RUA ENEAS FRUTUOSO                      XEREM       00000000DUQUE DE CAXIASRJUNIAO UMB DOS CULTOS AFRO BRAS    20121810 000004
10231987175000168817800093673    000032761                    000327610000000000000109                     I0232761     20121800000000350003410000017N291018104700000000000102012180000000000000000000000000000000000000000100012201914770ANA LUISA NUNES AVELINO                 RUA DAS MAGNOLIAS                       SAO JOSE DE 24930488MARICA         RJUNIAO UMB DOS CULTOS AFRO BRAS    20121810 000005
10231987175000168817800093673    000032632                    000326320000000000000109                     I3432632     20121800000000400003410000017N291018104700000000000102012180000000000000000000000000000000000000000100001631466755CLAUDIA CRISTINA DE OLIVEIRA M          ESTRADA DAS PAINEIRAS                   JARDIM SUMAR25575561SAO JOAO DE MERRJUNIAO UMB DOS CULTOS AFRO BRAS    20121810 000006
10231987175000168817800093673    000032542                    000325420000000000000109                     I3432542     20121800000000350003410000017N291018104700000000000102012180000000000000000000000000000000000000000100009658353754ROSINEI MARIA DOS SANTOS PEIXO          RUA FLORESTA                            SEPETIBA    23540430RIO DE JANEIRO RJUNIAO UMB DOS CULTOS AFRO BRAS    20121810 000007
10231987175000168817800093673    000032475                    000324750000000000000109                     I0232475     20121800000000380003410000017N291018104700000000000102012180000000000000000000000000000000000000000100082893705715SUELI MARIA GAGO                        RUA HERCULES                            CURICICA - J22780675RIO DE JANEIRO RJUNIAO UMB DOS CULTOS AFRO BRAS    20121810 000008
10231987175000168817800093673    000032434                    000324340000000000000109                     I0232434     20121800000000350003410000017N291018104700000000000102012180000000000000000000000000000000000000000100011288949715EDESIO DE OLIVEIRA CASTRO               RUA REPUBLICA DOMINICANA                ITAIPU      24342270NITEROI        RJUNIAO UMB DOS CULTOS AFRO BRAS    20121810 000009
10231987175000168817800093673    000032313                    000323130000000000000109                     I3432313     20121800000000400003410000017N291018104700000000000102012180000000000000000000000000000000000000000100028995691768SIDNEI LOURENCO SAMPAIO                 RUA ESTRELA DALVA                       PARQUE NOVO 25585130RIO DE JANEIRO RJUNIAO UMB DOS CULTOS AFRO BRAS    20121810 000010
10231987175000168817800093673    000031955                    000319550000000000000109                     I3431955     20121800000000400003410000017N291018104700000000000102012180000000000000000000000000000000000000000100089983483734MARCELO CELESTINO DE OLIVEIRA           RUA ITIRAPINA,                          THOMAS COELH21370490RIO DE JANEIRO RJUNIAO UMB DOS CULTOS AFRO BRAS    20121810 000011
10231987175000168817800093673    000031549                    000315490000000000000109                     I0231549     20121800000000400003410000017N291018104700000000000102012180000000000000000000000000000000000000000100003546165799MIRIAN DE SOUZA SILVA                   RUA CARDOSO DE MORAIS                   RAMOS       21032000RIO DE JANEIRO RJUNIAO UMB DOS CULTOS AFRO BRAS    20121810 000012
10231987175000168817800093673    000031480                    000314800000000000000109                     I3431480     20121800000000350003410000017N291018104700000000000102012180000000000000000000000000000000000000000100079086500749JOSE JERONIMO DA SILVA                  RUA MARLUCIA RODRIGUES ALEXANDRE        SAO MATEUS -26330450RIO DE JANEIRO RJUNIAO UMB DOS CULTOS AFRO BRAS    20121810 000013
10231987175000168817800093673    000031478                    000314780000000000000109                     I0231478     20121800000000350003410000017N291018104700000000000102012180000000000000000000000000000000000000000100000489246796JOSEFA IRINEIDE CHAVES                  RUA DONA MAURICIA BORGES                SAO JOSE    26230160SAO CRISTOVAO  RJUNIAO UMB DOS CULTOS AFRO BRAS    20121810 000014
10231987175000168817800093673    000031411                    000314110000000000000109                     I0231411     20121800000000350003410000017N291018104700000000000102012180000000000000000000000000000000000000000100007039391732LAIZ ANDRADE DA CRUZ                    RUA CARAIPE                             BRAS DE PINA21012280RIO DE JANEIRO RJUNIAO UMB DOS CULTOS AFRO BRAS    20121810 000015
10231987175000168817800093673    000031325                    000313250000000000000109                     I3431325     20121800000000350003410000017N291018104700000000000102012180000000000000000000000000000000000000000100003667865716MARIA DO SOCORRO DA SILVA ANGE          RUA: ARISTOTELES                        VILA SANTO A25041180DUQUE DE CAXIASRJUNIAO UMB DOS CULTOS AFRO BRAS    20121810 000016
10231987175000168817800093673    000031277                    000312770000000000000109                     I3431277     20121800000000350003410000017N291018104700000000000102012180000000000000000000000000000000000000000100098716000706CELIA ROSA SILVA DA CRUZ                RUA: CARAVELAS                          DR. LAUREANO25051230DUQUE DE CAXIASRJUNIAO UMB DOS CULTOS AFRO BRAS    20121810 000017
10231987175000168817800093673    000031200                    000312000000000000000109                     I3431200     20121800000000350003410000017N291018104700000000000102012180000000000000000000000000000000000000000100002330426798MARIA ALVES FERREIRA                    RUA: ANTONIO JACINTO                    COMENDADOR S26280700NOVA IGUACU    RJUNIAO UMB DOS CULTOS AFRO BRAS    20121810 000018
10231987175000168817800093673    000031195                    000311950000000000000109                     I0231195     20121800000000350003410000017N291018104700000000000102012180000000000000000000000000000000000000000100091225829787EDNA LUIZA MARINHO SOUTINHO             RUA QUIRIRIM                            VILA VALQUEI21330650RIO DE JANEIRO RJUNIAO UMB DOS CULTOS AFRO BRAS    20121810 000019
10231987175000168817800093673    000031111                    000311110000000000000109                     I3431111     20121800000000350003410000017N291018104700000000000102012180000000000000000000000000000000000000000100036231835715DIVINO BEZERRA PEREIRA                  RUA DO LAVRADIO                         CENTRO      20230070RIO DE JANEIRO RJUNIAO UMB DOS CULTOS AFRO BRAS    20121810 000020
10231987175000168817800093673    000031052                    000310520000000000000109                     I3431052     20121800000000350003410000017N291018104700000000000102012180000000000000000000000000000000000000000100000888045778JOSIAS MARANHAO DA SILVA                RUA TRIMONTE                            JARDIM PRIMA25223820DUQUE DE CAXIASRJUNIAO UMB DOS CULTOS AFRO BRAS    20121810 000021
10231987175000168817800093673    000030988                    000309880000000000000109                     I0230988     20121800000000350003410000017N291018104700000000000102012180000000000000000000000000000000000000000100080069584753EUNICE APARECIDA RESENDE DA SI          RUA PASTOR FRANCISCO SOREN              BRAS DE PINA21215510RIO DE JANEIRO RJUNIAO UMB DOS CULTOS AFRO BRAS    20121810 000022
10231987175000168817800093673    000030875                    000308750000000000000109                     I0230875     20121800000000350003410000017N291018104700000000000102012180000000000000000000000000000000000000000100009083865754MARIA DA PENHA DA SILVA FONSEC          RUA ABACAI                              OSWALDO CRUZ21340380RIO DE JANEIRO RJUNIAO UMB DOS CULTOS AFRO BRAS    20121810 000023
10231987175000168817800093673    000030779                    000307790000000000000109                     I3430779     20121800000000350003410000017N291018104700000000000102012180000000000000000000000000000000000000000100000000000704CARLINDA ELIANE NUNES                   RUA: ALMIRANTE ALEXANDRINO              PARQUE LAFAI25015540DUQUE DE CAXIASRJUNIAO UMB DOS CULTOS AFRO BRAS    20121810 000024
10231987175000168817800093673    000030731                    000307310000000000000109                     I0130731     20121800000000350003410000017N291018104700000000000102012180000000000000000000000000000000000000000100041006321711WALMIR DURANS LEAL                      RUA TUPACERETA                          SAO BERNARDO26165200BELFORD ROXO   RJUNIAO UMB DOS CULTOS AFRO BRAS    20121810 000025
10231987175000168817800093673    000030709                    000307090000000000000109                     I3430709     20121800000000350003410000017N291018104700000000000102012180000000000000000000000000000000000000000100089316266734ROSILDA PEIXOTO DA SILVA                RUA NUNO                                JARDIM CANAA26263260NOVA IGUACU    RJUNIAO UMB DOS CULTOS AFRO BRAS    20121810 000026
10231987175000168817800093673    000030683                    000306830000000000000109                     I3430683     20121800000000350003410000017N291018104700000000000102012180000000000000000000000000000000000000000100011639888713ANNE CRISTINE DA PENHA POSSE            RUA: ITAJUBA                            VILA ITAMARA25070190DUQUE DE CAXIASRJUNIAO UMB DOS CULTOS AFRO BRAS    20121810 000027
10231987175000168817800093673    000030656                    000306560000000000000109                     I3430656     20121800000000350003410000017N291018104700000000000102012180000000000000000000000000000000000000000100034688188749MARIADE AMELIA HENRIQUE DOS SA          RUA AGRARIO MENEZES                     VAZ LOBO    21371180RIO DE JANEIRO RJUNIAO UMB DOS CULTOS AFRO BRAS    20121810 000028
10231987175000168817800093673    000030619                    000306190000000000000109                     I0230619     20121800000000350003410000017N291018104700000000000102012180000000000000000000000000000000000000000100075988127720MARCOS AURELIO WOLF GARCIA              RUA PROFESSORA CARMELITA MARTINS        PRACA SECA  21321220RIO DE JANEIRO RJUNIAO UMB DOS CULTOS AFRO BRAS    20121810 000029
10231987175000168817800093673    000030608                    000306080000000000000109                     I0230608     20121800000000350003410000017N291018104700000000000102012180000000000000000000000000000000000000000100007019973701MAURA FERNANDES CALDAS                  RUA  PARAIM                             BANANAL     21911050RIO DE JANEIRO RJUNIAO UMB DOS CULTOS AFRO BRAS    20121810 000030
10231987175000168817800093673    000030593                    000305930000000000000109                     I0230593     20121800000000350003410000017N291018104700000000000102012180000000000000000000000000000000000000000100000000000000JOSE CALASANS SILVA FILHO               RUA DAS AMETISTAS                       ROCHA MIRAND21510020RIO DE JANEIRO RJUNIAO UMB DOS CULTOS AFRO BRAS    20121810 000031
10231987175000168817800093673    000030581                    000305810000000000000109                     I3430581     20121800000000350003410000017N291018104700000000000102012180000000000000000000000000000000000000000100043849652734JORGE LUIZ ALVES                        RUA CAJURANA                            COELHO NETO 21510430RIO DE JANEIRO RJUNIAO UMB DOS CULTOS AFRO BRAS    20121810 000032
10231987175000168817800093673    000030577                    000305770000000000000109                     I3430577     20121800000000350003410000017N291018104700000000000102012180000000000000000000000000000000000000000100066376114768CELSO RICARDO LOURENCO BRAGA            RUA: COIMBRA                            JARDIM LARAN26353460NOVA IGUACU    RJUNIAO UMB DOS CULTOS AFRO BRAS    20121810 000033
10231987175000168817800093673    000030575                    000305750000000000000109                     I0230575     20121800000000350003410000017N291018104700000000000102012180000000000000000000000000000000000000000100000000000072JOSE CARLOS DE SANT ANNA                RUA OTAWA                               VIGARIO GERA21241220RIO DE JANEIRO RJUNIAO UMB DOS CULTOS AFRO BRAS    20121810 000034
10231987175000168817800093673    000030571                    000305710000000000000109                     I0230571     20121800000000350003410000017N291018104700000000000102012180000000000000000000000000000000000000000100063214512749EDSON FERNANDES MELLO                   RUA CAPITAO BORGES DO COUTO             SENADOR CAMA21832300RIO DE JANEIRO RJUNIAO UMB DOS CULTOS AFRO BRAS    20121810 000035
10231987175000168817800093673    000030549                    000305490000000000000109                     I3430549     20121800000000350003410000017N291018104700000000000102012180000000000000000000000000000000000000000100000000000622EDNA VIANA DOS SANTOS                   ALAMEDA TRINTA E QUATRO CASA            PAVUNA      21530170RIO DE JANEIRO RJUNIAO UMB DOS CULTOS AFRO BRAS    20121810 000036
10231987175000168817800093673    000030506                    000305060000000000000109                     I0230506     20121800000000480003410000017N291018104700000000000102012180000000000000000000000000000000000000000100001330626788MARIA MATHIAS RIBEIRO                   RUA JOAO DANIEL                         BENTO RIBEIR21550480RIO DE JANEIRO RJUNIAO UMB DOS CULTOS AFRO BRAS    20121810 000037
10231987175000168817800093673    000030501                    000305010000000000000109                     I3430501     20121800000000350003410000017N291018104700000000000102012180000000000000000000000000000000000000000100060893265772RITA IZABEL THEODORO                    RUA CALMON                              CURICICA - J22710350RIO DE JANEIRO RJUNIAO UMB DOS CULTOS AFRO BRAS    20121810 000038
10231987175000168817800093673    000030497                    000304970000000000000109                     I0230497     20121800000000350003410000017N291018104700000000000102012180000000000000000000000000000000000000000100000000000000GILZA MARIA PAULA LOPES                 RUA PEDRO ALVARES CABRAL                CENTRO      26246400NILOPOLIS      RJUNIAO UMB DOS CULTOS AFRO BRAS    20121810 000039
10231987175000168817800093673    000030456                    000304560000000000000109                     I0230456     20121800000000350003410000017N291018104700000000000102012180000000000000000000000000000000000000000100054169089715IRAILDES GOMES DA SILVA                 RUA DOS DIAMANTES                       ROCHA MIRAND21510004RIO DE JANEIRO RJUNIAO UMB DOS CULTOS AFRO BRAS    20121810 000040
10231987175000168817800093673    000030348                    000303480000000000000109                     I3430348     20121800000000035003410000017N291018104700000000000102012180000000000000000000000000000000000000000100000617310726JOSE HENRIQUE PEREIRA DO NASCI          RUA: ZELINHO DE SOUZA                   CHACARA RIO 25230484DUQUE DE CAXIASRJUNIAO UMB DOS CULTOS AFRO BRAS    20121810 000041
10231987175000168817800093673    000030180                    000301800000000000000109                     I0230180     20121800000000035003410000017N291018104700000000000102012180000000000000000000000000000000000000000100060210389753ROZANA DOS SANTOS                       RUA CAFE FILHO                          INHOAIBA    23060720RIO DE JANEIRO RJUNIAO UMB DOS CULTOS AFRO BRAS    20121810 000042
10231987175000168817800093673    000029858                    000298580000000000000109                     I3429858     20121800000000035003410000017N291018104700000000000102012180000000000000000000000000000000000000000100069833850715WALTER LIMA DE AVELLAR                  RUA SAO JOSE                            ITAIPUACU   24900000MARICA         RJUNIAO UMB DOS CULTOS AFRO BRAS    20121810 000043
10231987175000168817800093673    000029484                    000294840000000000000109                     I0229484     20121800000000040003410000017N291018104700000000000102012180000000000000000000000000000000000000000100008331240723MONIQUE SUZANO ASSUNCAO DE OLI          RUA: DIVINOPOLIS                        BENTO RIBEIR21550280RIO DE JANEIRO RJUNIAO UMB DOS CULTOS AFRO BRAS    20121810 000044
10231987175000168817800093673    000029436                    000294360000000000000109                     I0229436     20121800000000035003410000017N291018104700000000000102012180000000000000000000000000000000000000000100010878187707LUIZ PAULO DA CRUZ TEIXEIRA             RUA DOS CAJUEIROS                       SEPETIBA    23530074RIO DE JANEIRO RJUNIAO UMB DOS CULTOS AFRO BRAS    20121810 000045
10231987175000168817800093673    000029398                    000293980000000000000109                     I3429398     20121800000000035003410000017N291018104700000000000102012180000000000000000000000000000000000000000100064949559753CREUZA LEAL COIMBRA                     AVENIDA CORONEL RAIMUNDO SAMPAIO        JARDIM BOTAN25570393SAO JOAO DE MERRJUNIAO UMB DOS CULTOS AFRO BRAS    20121810 000046
10231987175000168817800093673    000029388                    000293880000000000000109                     I0229388     20121800000000035003410000017N291018104700000000000102012180000000000000000000000000000000000000000100001393165745MARCO AURELIO DE BARROS FARIAS          RUA AIROSA GALVAO                       FONSECA     24120100NITEROI        RJUNIAO UMB DOS CULTOS AFRO BRAS    20121810 000047
10231987175000168817800093673    000029385                    000293850000000000000109                     I3429385     20121800000000035003410000017N291018104700000000000102012180000000000000000000000000000000000000000100082059403715SANDRA HELENA VILLAMOR MONTASS          RUA ARGOS                               GUADALUPE   21660050RIO DE JANEIRO RJUNIAO UMB DOS CULTOS AFRO BRAS    20121810 000048
10231987175000168817800093673    000029296                    000292960000000000000109                     I0229296     20121800000000035003410000017N291018104700000000000102012180000000000000000000000000000000000000000100070891036768EDNA FERREIRA DE MELO                   RUA 49                                  SEPETIBA    21611000RIO DE JANEIRO RJUNIAO UMB DOS CULTOS AFRO BRAS    20121810 000049
10231987175000168817800093673    000029294                    000292940000000000000109                     I3429294     20121800000000035003410000017N291018104700000000000102012180000000000000000000000000000000000000000100002541954743DENISE DIAS DE OLIVEIRA                 RUA BERNARDINO DE CAMPOS                OLAVO BILAC 25035530DUQUE DE CAXIASRJUNIAO UMB DOS CULTOS AFRO BRAS    20121810 000050
10231987175000168817800093673    000029286                    000292860000000000000109                     I3429286     20121800000000035003410000017N291018104700000000000102012180000000000000000000000000000000000000000100008763637707JUSSARA SILVA DE ALBUQUERQUE            RUA ARGOS                               GUADALUPE   21660050RIO DE JANEIRO RJUNIAO UMB DOS CULTOS AFRO BRAS    20121810 000051
10231987175000168817800093673    000029209                    000292090000000000000109                     I0229209     20121800000000035003410000017N291018104700000000000102012180000000000000000000000000000000000000000100000000000000MARIA APARECIDA DOS SANTOS CYP          ESTRADA DO SABONETE                     ARSENAL     24745224SAO GONCALO    RJUNIAO UMB DOS CULTOS AFRO BRAS    20121810 000052
10231987175000168817800093673    000029080                    000290800000000000000109                     I0229080     20121800000000035003410000017N291018104700000000000102012180000000000000000000000000000000000000000100075988127720MARCOS AURELIO WOLF GARCIA              RUA PROFESSORA CARMELITA MARTINS        PRACA SECA  21321220RIO DE JANEIRO RJUNIAO UMB DOS CULTOS AFRO BRAS    20121810 000053
10231987175000168817800093673    000029070                    000290700000000000000109                     I0229070     20121800000000035003410000017N291018104700000000000102012180000000000000000000000000000000000000000100000000000000JOSE CALASANS SILVA FILHO               RUA DAS AMETISTAS                       ROCHA MIRAND21510020RIO DE JANEIRO RJUNIAO UMB DOS CULTOS AFRO BRAS    20121810 000054
10231987175000168817800093673    000029059                    000290590000000000000109                     I0229059     20121800000000040003410000017N291018104700000000000102012180000000000000000000000000000000000000000100094378163161ELAINE MARINHO DA SILVA                 RUA MAMBUCADA                           COELHO NETO 21520510RIO DE JANEIRO RJUNIAO UMB DOS CULTOS AFRO BRAS    20121810 000055
10231987175000168817800093673    000029016                    000290160000000000000109                     I0229016     20121800000000035003410000017N291018104700000000000102012180000000000000000000000000000000000000000100000000000000CACILDA AQUINO DOS SANTOS               RUA CATULO CEARENSE                     MEIER       20730320RIO DE JANEIRO RJUNIAO UMB DOS CULTOS AFRO BRAS    20121810 000056
10231987175000168817800093673    000029002                    000290020000000000000109                     I0229002     30111800000000400003410000017N261018104700000000000103011180000000000000000000000000000000000000000100003547724732TANIA GOMES DE LIMA                     RUA AGAPANTO                            PARQUE PRIMA23830020ITAGUAI        RJUNIAO UMB DOS CULTOS AFRO BRAS    30111810 000057
10231987175000168817800093673    000028296                    000282960000000000000109                     I0228296     30111800000000035003410000017N200818104700000000000103011180000000000000000000000000000000000000000100060210389753ROZANA DOS SANTOS                       RUA CAFE FILHO                          INHOAIBA    23060720RIO DE JANEIRO RJUNIAO UMB DOS CULTOS AFRO BRAS    30111810 000058
10231987175000168817800093673    000028193                    000281930000000000000109                     I0228193     30111800000000035003410000017N200818104700000000000103011180000000000000000000000000000000000000000100080974015768SHEYLA REGINA SERAPHIM DA HORA          RUA CAMBAI                              QUINTINO BOC21380300RIO DE JANEIRO RJUNIAO UMB DOS CULTOS AFRO BRAS    30111810 000059
10231987175000168817800093673    000027989                    000279890000000000000109                     I0227989     30111800000000035003410000017N200818104700000000000103011180000000000000000000000000000000000000000100004162486751IVONETE CRISTINA MARTINS MACHA          RUA C                                   PARQUE SANTA25060230DUQUE DE CAXIASRJUNIAO UMB DOS CULTOS AFRO BRAS    30111810 000060
10231987175000168817800093673    000027669                    000276690000000000000109                     I0227669     30111800000000035003410000017N200818104700000000000103011180000000000000000000000000000000000000000100000000001015UILMA VIEIRA TEIXEIRA                   RUA: ITU                                JARDIM GRAMA25060350CAXIAS         RJUNIAO UMB DOS CULTOS AFRO BRAS    30111810 000061
10231987175000168817800093673    000027616                    000276160000000000000109                     I0227616     30111800000000035003410000017N200818104700000000000103011180000000000000000000000000000000000000000100087868172720ADHEMAR ACHILLES AVILLA JUNIOR          RUA: PADRE GIL                          PARQUE BONEV25907096MAGE           RJUNIAO UMB DOS CULTOS AFRO BRAS    30111810 000062
10231987175000168817800093673    000027511                    000275110000000000000109                     I0227511     30111800000000035003410000017N200818104700000000000103011180000000000000000000000000000000000000000100010878187707LUIZ PAULO DA CRUZ TEIXEIRA             RUA DOS CAJUEIROS                       SEPETIBA    23530074RIO DE JANEIRO RJUNIAO UMB DOS CULTOS AFRO BRAS    30111810 000063
10231987175000168817800093673    000027471                    000274710000000000000109                     I3427471     30111800000000035003410000017N200818104700000000000103011180000000000000000000000000000000000000000100064949559753CREUZA LEAL COIMBRA                     AVENIDA CORONEL RAIMUNDO SAMPAIO        JARDIM BOTAN25570393SAO JOAO DE MERRJUNIAO UMB DOS CULTOS AFRO BRAS    30111810 000064
10231987175000168817800093673    000027461                    000274610000000000000109                     I0227461     30111800000000035003410000017N200818104700000000000103011180000000000000000000000000000000000000000100001393165745MARCO AURELIO DE BARROS FARIAS          RUA AIROSA GALVAO                       FONSECA     24120100NITEROI        RJUNIAO UMB DOS CULTOS AFRO BRAS    30111810 000065
10231987175000168817800093673    000027370                    000273700000000000000109                     I0227370     30111800000000035003410000017N200818104700000000000103011180000000000000000000000000000000000000000100070891036768EDNA FERREIRA DE MELO                   RUA 49                                  SEPETIBA    21611000RIO DE JANEIRO RJUNIAO UMB DOS CULTOS AFRO BRAS    30111810 000066
10231987175000168817800093673    000027276                    000272760000000000000109                     I0227276     30111800000000035003410000017N200818104700000000000103011180000000000000000000000000000000000000000100000000000000MARIA APARECIDA DOS SANTOS CYP          ESTRADA DO SABONETE                     ARSENAL     24745224SAO GONCALO    RJUNIAO UMB DOS CULTOS AFRO BRAS    30111810 000067
10231987175000168817800093673    000027141                    000271410000000000000109                     I0227141     30111800000000035003410000017N200818104700000000000103011180000000000000000000000000000000000000000100075988127720MARCOS AURELIO WOLF GARCIA              RUA PROFESSORA CARMELITA MARTINS        PRACA SECA  21321220RIO DE JANEIRO RJUNIAO UMB DOS CULTOS AFRO BRAS    30111810 000068
10231987175000168817800093673    000027119                    000271190000000000000109                     I0227119     30111800000000040003410000017N200818104700000000000103011180000000000000000000000000000000000000000100094378163161ELAINE MARINHO DA SILVA                 RUA MAMBUCADA                           COELHO NETO 21520510RIO DE JANEIRO RJUNIAO UMB DOS CULTOS AFRO BRAS    30111810 000069
10231987175000168817800093673    000027073                    000270730000000000000109                     I0227073     30111800000000035003410000017N200818104700000000000103011180000000000000000000000000000000000000000100000000000000CACILDA AQUINO DOS SANTOS               RUA CATULO CEARENSE                     MEIER       20730320RIO DE JANEIRO RJUNIAO UMB DOS CULTOS AFRO BRAS    30111810 000070
10231987175000168817800093673    000025564                    000255640000000000000109                     I0225564     30101800000000040003410000017N200818104700000000000103010180000000000000000000000000000000000000000100009526018770VERONICA MARIA LIMA                     RUA KEMAL PALHA                         VILA SANTO A25040220DUQUE DE CAXIASRJUNIAO UMB DOS CULTOS AFRO BRAS    30101810 000071
10231987175000168817800093673    000025458                    000254580000000000000109                     I0225458     30101800000000035003410000017N200818104700000000000103010180000000000000000000000000000000000000000100060210389753ROZANA DOS SANTOS                       RUA CAFE FILHO                          INHOAIBA    23060720RIO DE JANEIRO RJUNIAO UMB DOS CULTOS AFRO BRAS    30101810 000072
10231987175000168817800093673    000025356                    000253560000000000000109                     I0225356     30101800000000035003410000017N200818104700000000000103010180000000000000000000000000000000000000000100080974015768SHEYLA REGINA SERAPHIM DA HORA          RUA CAMBAI                              QUINTINO BOC21380300RIO DE JANEIRO RJUNIAO UMB DOS CULTOS AFRO BRAS    30101810 000073
10231987175000168817800093673    000025048                    000250480000000000000109                     I0225048     30101800000000035003410000017N200818104700000000000103010180000000000000000000000000000000000000000100096933836720CELIA GOMES DE OLIVEIRA FALCAO          RUA CONDOMINIO 1 DE MAIO                MADAME MACHA23740020PETROPOLIS     RJUNIAO UMB DOS CULTOS AFRO BRAS    30101810 000074
10231987175000168817800093673    000024675                    000246750000000000000109                     I0224675     30101800000000035003410000017N200818104700000000000103010180000000000000000000000000000000000000000100010878187707LUIZ PAULO DA CRUZ TEIXEIRA             RUA DOS CAJUEIROS                       SEPETIBA    23530074RIO DE JANEIRO RJUNIAO UMB DOS CULTOS AFRO BRAS    30101810 000075
10231987175000168817800093673    000024635                    000246350000000000000109                     I3424635     30101800000000035003410000017N200818104700000000000103010180000000000000000000000000000000000000000100064949559753CREUZA LEAL COIMBRA                     AVENIDA CORONEL RAIMUNDO SAMPAIO        JARDIM BOTAN25570393SAO JOAO DE MERRJUNIAO UMB DOS CULTOS AFRO BRAS    30101810 000076
10231987175000168817800093673    000024441                    000244410000000000000109                     I0224441     30101800000000035003410000017N200818104700000000000103010180000000000000000000000000000000000000000100000000000000MARIA APARECIDA DOS SANTOS CYP          ESTRADA DO SABONETE                     ARSENAL     24745224SAO GONCALO    RJUNIAO UMB DOS CULTOS AFRO BRAS    30101810 000077
10231987175000168817800093673    000024307                    000243070000000000000109                     I0224307     30101800000000035003410000017N200818104700000000000103010180000000000000000000000000000000000000000100075988127720MARCOS AURELIO WOLF GARCIA              RUA PROFESSORA CARMELITA MARTINS        PRACA SECA  21321220RIO DE JANEIRO RJUNIAO UMB DOS CULTOS AFRO BRAS    30101810 000078
10231987175000168817800093673    000024285                    000242850000000000000109                     I0224285     30101800000000040003410000017N200818104700000000000103010180000000000000000000000000000000000000000100094378163161ELAINE MARINHO DA SILVA                 RUA MAMBUCADA                           COELHO NETO 21520510RIO DE JANEIRO RJUNIAO UMB DOS CULTOS AFRO BRAS    30101810 000079
10231987175000168817800093673    000024239                    000242390000000000000109                     I0224239     30101800000000035003410000017N200818104700000000000103010180000000000000000000000000000000000000000100000000000000CACILDA AQUINO DOS SANTOS               RUA CATULO CEARENSE                     MEIER       20730320RIO DE JANEIRO RJUNIAO UMB DOS CULTOS AFRO BRAS    30101810 000080
10231987175000168817800093673    000011316                    000113160000000000000109                     I0211316     30041800000000035003410000017N200218104700000000000103004180000000000000000000000000000000000000000100003661917100DUCILENE MADEIRA VIEIRA                 ALAMEDA CLAUDINHA                       JARDIM NAZAR25915000MAGE           RJUNIAO UMB DOS CULTOS AFRO BRAS    30041810 000081
9                                                                                                                                                                                                                                                                                                                                                                                                         000082
