01REMESSA01COBRANCA       817800093673        União Umb dos Cultos Afro Bra341BANCO ITAU SA  140418                                                                                                                                                                                                                                                                                                      000001
10231987175000168817800093673    000014396                    000143960000000000000109                     I0214396     30111700000000035003410000017N120418104700000000000103011170000000000000000000000000000000000000000100005851795735JOAO LUIZ DE OLIVEIRA MAGALHAE          RUA ANTONIO CARLOS PARANHOS             VILA VALQUEI21321340RIO DE JANEIRO RJUNIAO UMB DOS CULTOS AFRO BRAS    30111710 000002
10231987175000168817800093673    000014395                    000143950000000000000109                     I0214395     19041800000000035003410000017N120418104700000000000101904180000000000000000000000000000000000000000100005851795735JOAO LUIZ DE OLIVEIRA MAGALHAE          RUA ANTONIO CARLOS PARANHOS             VILA VALQUEI21321340RIO DE JANEIRO RJUNIAO UMB DOS CULTOS AFRO BRAS    19041810 000003
10231987175000168817800093673    000014394                    000143940000000000000109                     I0114394     30051800000000040003410000017N120418104700000000000103005180000000000000000000000000000000000000000100003005342727MAURICIO ESTORQUE                       RUA AMERICO BERLIM                      JARDIM FEO  25965430TERESOPOLIS    RJUNIAO UMB DOS CULTOS AFRO BRAS    30051810 000004
10231987175000168817800093673    000014393                    000143930000000000000109                     I0114393     20041800000000210003410000017N120418104700000000000102004180000000000000000000000000000000000000000100024721975864LIDIANE FERNANDA BON SCHIAVI S          RUA LUIZ CAMERANO                       BELVEDERE DA27113260BARRA DO PIRAI RJUNIAO UMB DOS CULTOS AFRO BRAS    20041810 000005
10231987175000168817800093673    000014312                    000143120000000000000109                     I3414312     04041800000000035003410000017N030418104700000000000100404180000000000000000000000000000000000000000100000475441710KASSIA DAMAZIO SOBRINHO                 RUA OPNIAO LIBERA, 27                   JACAREPAGUA 22715130RIO DE JANEIRO RJUNIAO UMB DOS CULTOS AFRO BRAS    04041810 000006
10231987175000168817800093673    000013832                    000138320000000000000109                     I3413832     30051800000000035003410000017N200218104700000000000103005180000000000000000000000000000000000000000100058365737787ALTAMIRA ROSA                           AVENIDA DO CONTORNO 17                  PARADA MORAB25000000DUQUE DE CAXIASRJUNIAO UMB DOS CULTOS AFRO BRAS    30051810 000007
10231987175000168817800093673    000013428                    000134280000000000000109                     I0213428     30051800000000035003410000017N200218104700000000000103005180000000000000000000000000000000000000000100003866737726ALESSANDRO ESTRELA RODRIGUES            RUA B 1 SN QD 49 LT 11 - JD GARRIDO     PEDRA DE GUA23026060PEDRA DE GUARATRJUNIAO UMB DOS CULTOS AFRO BRAS    30051810 000008
10231987175000168817800093673    000013093                    000130930000000000000109                     I0213093     30051800000000035003410000017N200218104700000000000103005180000000000000000000000000000000000000000100088364607715ELISABETE DA CONCEICAO LIMA             RUA ABILIO MACHADO, 163                 VILA TIRADEN25525160SAO JOAO DE MERRJUNIAO UMB DOS CULTOS AFRO BRAS    30051810 000009
10231987175000168817800093673    000012223                    000122230000000000000109                     I3412223     30041800000000035003410000017N200218104700000000000103004180000000000000000000000000000000000000000100058365737787ALTAMIRA ROSA                           AVENIDA DO CONTORNO 17                  PARADA MORAB25000000DUQUE DE CAXIASRJUNIAO UMB DOS CULTOS AFRO BRAS    30041810 000010
10231987175000168817800093673    000011864                    000118640000000000000109                     I0211864     30041800000000035003410000017N200218104700000000000103004180000000000000000000000000000000000000000100013180490756DIEGO CAVALCANTI DA SILVA               RUA CONDE DE RESENDE, 127               BENTO RIBEIR21550600RIO DE JANEIRO RJUNIAO UMB DOS CULTOS AFRO BRAS    30041810 000011
10231987175000168817800093673    000011819                    000118190000000000000109                     I0211819     30041800000000035003410000017N200218104700000000000103004180000000000000000000000000000000000000000100003866737726ALESSANDRO ESTRELA RODRIGUES            RUA B 1 SN QD 49 LT 11 - JD GARRIDO     PEDRA DE GUA23026060PEDRA DE GUARATRJUNIAO UMB DOS CULTOS AFRO BRAS    30041810 000012
10231987175000168817800093673    000011484                    000114840000000000000109                     I0211484     30041800000000035003410000017N200218104700000000000103004180000000000000000000000000000000000000000100088364607715ELISABETE DA CONCEICAO LIMA             RUA ABILIO MACHADO, 163                 VILA TIRADEN25525160SAO JOAO DE MERRJUNIAO UMB DOS CULTOS AFRO BRAS    30041810 000013
10231987175000168817800093673    000011205                    000112050000000000000109                     I3411205     30041800000000035003410000017N200218104700000000000103004180000000000000000000000000000000000000000100062792920700LUIZ CESAR DE OLIVEIRA                  RUA PEREIRA DE FIGUEIREDO, 627          OSWALDO CRUZ21340030RIO DE JANEIRO RJUNIAO UMB DOS CULTOS AFRO BRAS    30041810 000014
10231987175000168817800093673    000011145                    000111450000000000000109                     I0211145     30041800000000035003410000017N200218104700000000000103004180000000000000000000000000000000000000000100001057873705ADEMIR ANDRADE CUNHA                    RUA PACHECO DA ROCHA N 636              BENTO RIBEIR21555092RIO DE JANEIRO RJUNIAO UMB DOS CULTOS AFRO BRAS    30041810 000015
10231987175000168817800093673    000011121                    000111210000000000000109                     I0211121     30041800000000035003410000017N200218104700000000000103004180000000000000000000000000000000000000000100041216989753CARMEM VIANA DE JESUS                   RUA DAS TULIPAS, LOTE 4 A QUADRA 5      CIDADE DOS M25235040DUQUE DE CAXIASRJUNIAO UMB DOS CULTOS AFRO BRAS    30041810 000016
10231987175000168817800093673    000010907                    000109070000000000000109                     I3410907     30041800000000035003410000017N200218104700000000000103004180000000000000000000000000000000000000000100000475441710KASSIA DAMAZIO SOBRINHO                 RUA OPNIAO LIBERA, 27                   JACAREPAGUA 22715130RIO DE JANEIRO RJUNIAO UMB DOS CULTOS AFRO BRAS    30041810 000017
10231987175000168817800093673    000010698                    000106980000000000000109                     I0210698     30031800000000035003410000017N200218104700000000000103003180000000000000000000000000000000000000000100001298660750ROSEMBERG EFIGENIO BARBOSA              RUA: TANCREDO MARTINS COSTA             ENGENHO DE D20730310RIO DE JANEIRO RJUNIAO UMB DOS CULTOS AFRO BRAS    30031810 000018
10231987175000168817800093673    000010614                    000106140000000000000109                     I3410614     30031800000000035003410000017N200218104700000000000103003180000000000000000000000000000000000000000100058365737787ALTAMIRA ROSA                           AVENIDA DO CONTORNO 17                  PARADA MORAB25000000DUQUE DE CAXIASRJUNIAO UMB DOS CULTOS AFRO BRAS    30031810 000019
10231987175000168817800093673    000010299                    000102990000000000000109                     I3410299     30031800000000035003410000017N200218104700000000000103003180000000000000000000000000000000000000000100004291405766JACQUELINE ELIZABETH BALTHAZAR          RUA PROFESSOR LACE, 134 APTO 404        RAMOS - RIO 21060120RIO DE JANEIRO RJUNIAO UMB DOS CULTOS AFRO BRAS    30031810 000020
10231987175000168817800093673    000010210                    000102100000000000000109                     I0210210     30031800000000035003410000017N200218104700000000000103003180000000000000000000000000000000000000000100003866737726ALESSANDRO ESTRELA RODRIGUES            RUA B 1 SN QD 49 LT 11 - JD GARRIDO     PEDRA DE GUA23026060PEDRA DE GUARATRJUNIAO UMB DOS CULTOS AFRO BRAS    30031810 000021
10231987175000168817800093673    00009875                     000098750000000000000109                     I029875      30031800000000035003410000017N200218104700000000000103003180000000000000000000000000000000000000000100088364607715ELISABETE DA CONCEICAO LIMA             RUA ABILIO MACHADO, 163                 VILA TIRADEN25525160SAO JOAO DE MERRJUNIAO UMB DOS CULTOS AFRO BRAS    30031810 000022
10231987175000168817800093673    00009770                     000097700000000000000109                     I029770      30031800000000035003410000017N200218104700000000000103003180000000000000000000000000000000000000000100033151440797LAUDICEIA FERRO DOS SANTOS              RUA ADISABEL, LOTE 10 QUADRA 39         NOVA AURORA 26155110BELFORD ROXO   RJUNIAO UMB DOS CULTOS AFRO BRAS    30031810 000023
10231987175000168817800093673    00009596                     000095960000000000000109                     I029596      30031800000000035003410000017N200218104700000000000103003180000000000000000000000000000000000000000100062792920700LUIZ CESAR DE OLIVEIRA                  RUA PEREIRA DE FIGUEIREDO, 627          OSWALDO CRUZ21340030RIO DE JANEIRO RJUNIAO UMB DOS CULTOS AFRO BRAS    30031810 000024
10231987175000168817800093673    00009536                     000095360000000000000109                     I029536      30031800000000035003410000017N200218104700000000000103003180000000000000000000000000000000000000000100001057873705ADEMIR ANDRADE CUNHA                    RUA PACHECO DA ROCHA N 636              BENTO RIBEIR21555092RIO DE JANEIRO RJUNIAO UMB DOS CULTOS AFRO BRAS    30031810 000025
10231987175000168817800093673    00009512                     000095120000000000000109                     I029512      30031800000000035003410000017N200218104700000000000103003180000000000000000000000000000000000000000100041216989753CARMEM VIANA DE JESUS                   RUA DAS TULIPAS, LOTE 4 A QUADRA 5      CIDADE DOS M25235040DUQUE DE CAXIASRJUNIAO UMB DOS CULTOS AFRO BRAS    30031810 000026
10231987175000168817800093673    00008317                     000083170000000000000109                     I028317      28021800000000035003410000017N291217104700000000000102802180000000000000000000000000000000000000000100003866737726ALESSANDRO ESTRELA RODRIGUES            RUA B 1 SN QD 49 LT 11 - JD GARRIDO     PEDRA DE GUA23026060PEDRA DE GUARATRJUNIAO UMB DOS CULTOS AFRO BRAS    28021810 000027
10231987175000168817800093673    00007268                     000072680000000000000109                     I027268      28021800000000035003410000017N271217104700000000000102802180000000000000000000000000000000000000000100014527767763THIERRY PADILHA MOTA                    RUA ALCIR BRASIL N 706                  JARDIM NOVA 26266010NOVA IGUACU    RJUNIAO UMB DOS CULTOS AFRO BRAS    28021810 000028
10231987175000168817800093673    00006944                     000069440000000000000109                     I026944      28021800000000035003410000017N271217104700000000000102802180000000000000000000000000000000000000000100004291405766JACQUELINE ELIZABETH BALTHAZAR          RUA PROFESSOR LACE, 134 APTO 404        RAMOS - RIO 21060120RIO DE JANEIRO RJUNIAO UMB DOS CULTOS AFRO BRAS    28021810 000029
10231987175000168817800093673    00006630                     000066300000000000000109                     I026630      28021800000000035003410000017N271217104700000000000102802180000000000000000000000000000000000000000100088364607715ELISABETE DA CONCEICAO LIMA             RUA ABILIO MACHADO, 163                 VILA TIRADEN25525160SAO JOAO DE MERRJUNIAO UMB DOS CULTOS AFRO BRAS    28021810 000030
10231987175000168817800093673    00006394                     000063940000000000000109                     I026394      28021800000000035003410000017N271217104700000000000102802180000000000000000000000000000000000000000100001057873705ADEMIR ANDRADE CUNHA                    RUA PACHECO DA ROCHA N 636              BENTO RIBEIR21555092RIO DE JANEIRO RJUNIAO UMB DOS CULTOS AFRO BRAS    28021810 000031
10231987175000168817800093673    00006376                     000063760000000000000109                     I026376      28021800000000035003410000017N271217104700000000000102802180000000000000000000000000000000000000000100041216989753CARMEM VIANA DE JESUS                   RUA DAS TULIPAS, LOTE 4 A QUADRA 5      CIDADE DOS M25235040DUQUE DE CAXIASRJUNIAO UMB DOS CULTOS AFRO BRAS    28021810 000032
10231987175000168817800093673    00006079                     000060790000000000000109                     I026079      31011800000000035003410000017N261217104700000000000103101180000000000000000000000000000000000000000100001298660750ROSEMBERG EFIGENIO BARBOSA              RUA: TANCREDO MARTINS COSTA             ENGENHO DE D20730310RIO DE JANEIRO RJUNIAO UMB DOS CULTOS AFRO BRAS    31011810 000033
10231987175000168817800093673    00006018                     000060180000000000000109                     I026018      31011800000000035003410000017N261217104700000000000103101180000000000000000000000000000000000000000100014527767763THIERRY PADILHA MOTA                    RUA ALCIR BRASIL N 706                  JARDIM NOVA 26266010NOVA IGUACU    RJUNIAO UMB DOS CULTOS AFRO BRAS    31011810 000034
10231987175000168817800093673    00005380                     000053800000000000000109                     I025380      31011800000000035003410000017N261217104700000000000103101180000000000000000000000000000000000000000100088364607715ELISABETE DA CONCEICAO LIMA             RUA ABILIO MACHADO, 163                 VILA TIRADEN25525160SAO JOAO DE MERRJUNIAO UMB DOS CULTOS AFRO BRAS    31011810 000035
10231987175000168817800093673    00005144                     000051440000000000000109                     I025144      31011800000000035003410000017N261217104700000000000103101180000000000000000000000000000000000000000100001057873705ADEMIR ANDRADE CUNHA                    RUA PACHECO DA ROCHA N 636              BENTO RIBEIR21555092RIO DE JANEIRO RJUNIAO UMB DOS CULTOS AFRO BRAS    31011810 000036
10231987175000168817800093673    00005126                     000051260000000000000109                     I025126      31011800000000035003410000017N261217104700000000000103101180000000000000000000000000000000000000000100041216989753CARMEM VIANA DE JESUS                   RUA DAS TULIPAS, LOTE 4 A QUADRA 5      CIDADE DOS M25235040DUQUE DE CAXIASRJUNIAO UMB DOS CULTOS AFRO BRAS    31011810 000037
10231987175000168817800093673    00004726                     000047260000000000000109                     I024726      30121700000000500003410000017N041217104700000000000103012170000000000000000000000000000000000000000100011723366790MAYCON ALVES PEREIRA                    O MESMO                                 O MESMO     28991490SAQUAREMA      RJUNIAO UMB DOS CULTOS AFRO BRAS    30121710 000038
10231987175000168817800093673    00004669                     000046690000000000000109                     I024669      22121700000000350003410000017N271117104700000000000102212170000000000000000000000000000000000000000100068309104715MARCIA CARVALHO DA SILVA NASCI          E-MAIL: ASVERA1950@GMAIL.COM            CARTA ANISTI26013110NOVA IGUACU    RJUNIAO UMB DOS CULTOS AFRO BRAS    22121710 000039
10231987175000168817800093673    00004655                     000046550000000000000109                     I024655      20121700000000035003410000017N241117104700000000000102012170000000000000000000000000000000000000000100000559929781KLEBER SIQUEIRA CUNHA                   ESTRADA DO PIAI N 300                   GUARATIBA - 23028050RIO DE JANEIRO RJUNIAO UMB DOS CULTOS AFRO BRAS    20121710 000040
9                                                                                                                                                                                                                                                                                                                                                                                                         000041
