01REMESSA01COBRANCA       916200163100        União Umb dos Cultos Afro Bra341BANCO ITAU SA  110918                                                                                                                                                                                                                                                                                                      000001
10231987175000168916200163100    000028729                    000287290000000000000109                     I0128729     30091800000000140003410000017N110918104700000000000103009180000000000000000000000000000000000000000100083326952791JOSELITA BATISTA DE OLIVEIRA            RUA: ELIZETE DA SILVA TAGINO            BRISAMAR    23830000ITAGUAI        RJUNIAO UMB DOS CULTOS AFRO BRAS    30091810 000002
10231987175000168916200163100    000028728                    000287280000000000000109                     I0128728     25091800000000280003410000017N110918104700000000000102509180000000000000000000000000000000000000000100076658961700BEATRIZ DIAS DO NASCIMENTO              RUA SAO BRUNO                           PENHA       21021160RIO DE JANEIRO RJUNIAO UMB DOS CULTOS AFRO BRAS    25091810 000003
10231987175000168916200163100    000028727                    000287270000000000000109                     I0128727     30111800000000035003410000017N100918104700000000000103011180000000000000000000000000000000000000000100008350095725LUIZ LUCIANO ADAO                       RUA ALAGOAS                             SANTA CRUZ D25255070DUQUE DE CAXIASRJUNIAO UMB DOS CULTOS AFRO BRAS    30111810 000004
10231987175000168916200163100    000028726                    000287260000000000000109                     I0128726     30101800000000035003410000017N100918104700000000000103010180000000000000000000000000000000000000000100008350095725LUIZ LUCIANO ADAO                       RUA ALAGOAS                             SANTA CRUZ D25255070DUQUE DE CAXIASRJUNIAO UMB DOS CULTOS AFRO BRAS    30101810 000005
10231987175000168916200163100    000028725                    000287250000000000000109                     I0128725     30091800000000035003410000017N100918104700000000000103009180000000000000000000000000000000000000000100008350095725LUIZ LUCIANO ADAO                       RUA ALAGOAS                             SANTA CRUZ D25255070DUQUE DE CAXIASRJUNIAO UMB DOS CULTOS AFRO BRAS    30091810 000006
10231987175000168916200163100    000028724                    000287240000000000000109                     I0128724     30111800000000040003410000017N100918104700000000000103011180000000000000000000000000000000000000000100095906746749KATIA LOPES SOARES                      ESTRADA PAU DA FOME                     TAQUARA     22723347RIO DE JANEIRO RJUNIAO UMB DOS CULTOS AFRO BRAS    30111810 000007
10231987175000168916200163100    000028723                    000287230000000000000109                     I0128723     30101800000000040003410000017N100918104700000000000103010180000000000000000000000000000000000000000100095906746749KATIA LOPES SOARES                      ESTRADA PAU DA FOME                     TAQUARA     22723347RIO DE JANEIRO RJUNIAO UMB DOS CULTOS AFRO BRAS    30101810 000008
10231987175000168916200163100    000028722                    000287220000000000000109                     I0128722     30091800000000040003410000017N100918104700000000000103009180000000000000000000000000000000000000000100095906746749KATIA LOPES SOARES                      ESTRADA PAU DA FOME                     TAQUARA     22723347RIO DE JANEIRO RJUNIAO UMB DOS CULTOS AFRO BRAS    30091810 000009
10231987175000168916200163100    000028721                    000287210000000000000109                     I0128721     30111800000000040003410000017N100918104700000000000103011180000000000000000000000000000000000000000100012303421764PEDRO JONAS ARAUJO CORDEIRO             RUA JOSE LIMA DA SILVA                  SANTA RITA  26185610BELFORD ROXO   RJUNIAO UMB DOS CULTOS AFRO BRAS    30111810 000010
10231987175000168916200163100    000028720                    000287200000000000000109                     I0128720     30101800000000040003410000017N100918104700000000000103010180000000000000000000000000000000000000000100012303421764PEDRO JONAS ARAUJO CORDEIRO             RUA JOSE LIMA DA SILVA                  SANTA RITA  26185610BELFORD ROXO   RJUNIAO UMB DOS CULTOS AFRO BRAS    30101810 000011
10231987175000168916200163100    000028719                    000287190000000000000109                     I0128719     30091800000000040003410000017N100918104700000000000103009180000000000000000000000000000000000000000100012303421764PEDRO JONAS ARAUJO CORDEIRO             RUA JOSE LIMA DA SILVA                  SANTA RITA  26185610BELFORD ROXO   RJUNIAO UMB DOS CULTOS AFRO BRAS    30091810 000012
10231987175000168916200163100    000028718                    000287180000000000000109                     I0128718     30111800000000035003410000017N100918104700000000000103011180000000000000000000000000000000000000000100000000000000REINALDO FERREIRA DOS SANTOS            RUA: LESTE                              JARDIM PARAI26297294NOVA IGUACU    RJUNIAO UMB DOS CULTOS AFRO BRAS    30111810 000013
10231987175000168916200163100    000028717                    000287170000000000000109                     I0128717     30101800000000035003410000017N100918104700000000000103010180000000000000000000000000000000000000000100000000000000REINALDO FERREIRA DOS SANTOS            RUA: LESTE                              JARDIM PARAI26297294NOVA IGUACU    RJUNIAO UMB DOS CULTOS AFRO BRAS    30101810 000014
10231987175000168916200163100    000028716                    000287160000000000000109                     I0128716     30091800000000035003410000017N100918104700000000000103009180000000000000000000000000000000000000000100000000000000REINALDO FERREIRA DOS SANTOS            RUA: LESTE                              JARDIM PARAI26297294NOVA IGUACU    RJUNIAO UMB DOS CULTOS AFRO BRAS    30091810 000015
10231987175000168916200163100    000028715                    000287150000000000000109                     I0128715     30111800000000040003410000017N100918104700000000000103011180000000000000000000000000000000000000000100003413776789CRISTIANE DE SOUZA GALANTE INA          RUA SABIA                               SITIO RETIRO26167500SAO JOAO DE MERRJUNIAO UMB DOS CULTOS AFRO BRAS    30111810 000016
10231987175000168916200163100    000028714                    000287140000000000000109                     I0128714     30101800000000040003410000017N100918104700000000000103010180000000000000000000000000000000000000000100003413776789CRISTIANE DE SOUZA GALANTE INA          RUA SABIA                               SITIO RETIRO26167500SAO JOAO DE MERRJUNIAO UMB DOS CULTOS AFRO BRAS    30101810 000017
10231987175000168916200163100    000028713                    000287130000000000000109                     I0128713     30091800000000040003410000017N100918104700000000000103009180000000000000000000000000000000000000000100003413776789CRISTIANE DE SOUZA GALANTE INA          RUA SABIA                               SITIO RETIRO26167500SAO JOAO DE MERRJUNIAO UMB DOS CULTOS AFRO BRAS    30091810 000018
10231987175000168916200163100    000028712                    000287120000000000000109                     I0128712     30111800000000040003410000017N100918104700000000000103011180000000000000000000000000000000000000000100036139050782VIRGINIA DANTAS FERREIRA                AVENIDA BEIRA                           COROA GRANDE23821310RIO DE JANEIRO RJUNIAO UMB DOS CULTOS AFRO BRAS    30111810 000019
10231987175000168916200163100    000028711                    000287110000000000000109                     I0128711     30101800000000040003410000017N100918104700000000000103010180000000000000000000000000000000000000000100036139050782VIRGINIA DANTAS FERREIRA                AVENIDA BEIRA                           COROA GRANDE23821310RIO DE JANEIRO RJUNIAO UMB DOS CULTOS AFRO BRAS    30101810 000020
10231987175000168916200163100    000028710                    000287100000000000000109                     I0128710     30091800000000040003410000017N100918104700000000000103009180000000000000000000000000000000000000000100036139050782VIRGINIA DANTAS FERREIRA                AVENIDA BEIRA                           COROA GRANDE23821310RIO DE JANEIRO RJUNIAO UMB DOS CULTOS AFRO BRAS    30091810 000021
10231987175000168916200163100    000028709                    000287090000000000000109                     I0128709     30111800000000035003410000017N100918104700000000000103011180000000000000000000000000000000000000000100005451927731MAGDA MARTHA DE OLIVEIRA                RUA: JOSE MARIANO                       CABUCU - PAR26292051NOVA IGUACU    RJUNIAO UMB DOS CULTOS AFRO BRAS    30111810 000022
10231987175000168916200163100    000028708                    000287080000000000000109                     I0128708     30101800000000035003410000017N100918104700000000000103010180000000000000000000000000000000000000000100005451927731MAGDA MARTHA DE OLIVEIRA                RUA: JOSE MARIANO                       CABUCU - PAR26292051NOVA IGUACU    RJUNIAO UMB DOS CULTOS AFRO BRAS    30101810 000023
10231987175000168916200163100    000028707                    000287070000000000000109                     I0128707     30091800000000035003410000017N100918104700000000000103009180000000000000000000000000000000000000000100005451927731MAGDA MARTHA DE OLIVEIRA                RUA: JOSE MARIANO                       CABUCU - PAR26292051NOVA IGUACU    RJUNIAO UMB DOS CULTOS AFRO BRAS    30091810 000024
10231987175000168916200163100    000028706                    000287060000000000000109                     I0128706     30111800000000040003410000017N100918104700000000000103011180000000000000000000000000000000000000000100047627816734DORACI BARBARA RIBEIRO DO COUT          RUA PRIMEIRO DE MAIO                    PARQUE IPIRA26359510MESQUITA       RJUNIAO UMB DOS CULTOS AFRO BRAS    30111810 000025
10231987175000168916200163100    000028705                    000287050000000000000109                     I0128705     30101800000000040003410000017N100918104700000000000103010180000000000000000000000000000000000000000100047627816734DORACI BARBARA RIBEIRO DO COUT          RUA PRIMEIRO DE MAIO                    PARQUE IPIRA26359510MESQUITA       RJUNIAO UMB DOS CULTOS AFRO BRAS    30101810 000026
10231987175000168916200163100    000028704                    000287040000000000000109                     I0128704     30091800000000040003410000017N100918104700000000000103009180000000000000000000000000000000000000000100047627816734DORACI BARBARA RIBEIRO DO COUT          RUA PRIMEIRO DE MAIO                    PARQUE IPIRA26359510MESQUITA       RJUNIAO UMB DOS CULTOS AFRO BRAS    30091810 000027
10231987175000168916200163100    000028703                    000287030000000000000109                     I0128703     30111800000000040003410000017N100918104700000000000103011180000000000000000000000000000000000000000100001686004710CLAUDIA CORREA DA SILVA                 RUA MARISTER                            CABUCU      00000000NOVA IGUACU    RJUNIAO UMB DOS CULTOS AFRO BRAS    30111810 000028
10231987175000168916200163100    000028702                    000287020000000000000109                     I0128702     30101800000000040003410000017N100918104700000000000103010180000000000000000000000000000000000000000100001686004710CLAUDIA CORREA DA SILVA                 RUA MARISTER                            CABUCU      00000000NOVA IGUACU    RJUNIAO UMB DOS CULTOS AFRO BRAS    30101810 000029
10231987175000168916200163100    000028701                    000287010000000000000109                     I0128701     30091800000000040003410000017N100918104700000000000103009180000000000000000000000000000000000000000100001686004710CLAUDIA CORREA DA SILVA                 RUA MARISTER                            CABUCU      00000000NOVA IGUACU    RJUNIAO UMB DOS CULTOS AFRO BRAS    30091810 000030
10231987175000168916200163100    000028700                    000287000000000000000109                     I0128700     30111800000000035003410000017N100918104700000000000103011180000000000000000000000000000000000000000100085114308734MARISTELA BISPO DOS SANTOS              RUA: VINTE E TRES DE SETEMBRO           IPIRANGA    26293342NOVA IGUACU    RJUNIAO UMB DOS CULTOS AFRO BRAS    30111810 000031
10231987175000168916200163100    000028699                    000286990000000000000109                     I0128699     30101800000000035003410000017N100918104700000000000103010180000000000000000000000000000000000000000100085114308734MARISTELA BISPO DOS SANTOS              RUA: VINTE E TRES DE SETEMBRO           IPIRANGA    26293342NOVA IGUACU    RJUNIAO UMB DOS CULTOS AFRO BRAS    30101810 000032
10231987175000168916200163100    000028698                    000286980000000000000109                     I0128698     30091800000000035003410000017N100918104700000000000103009180000000000000000000000000000000000000000100085114308734MARISTELA BISPO DOS SANTOS              RUA: VINTE E TRES DE SETEMBRO           IPIRANGA    26293342NOVA IGUACU    RJUNIAO UMB DOS CULTOS AFRO BRAS    30091810 000033
10231987175000168916200163100    000028697                    000286970000000000000109                     I0128697     30111800000000040003410000017N100918104700000000000103011180000000000000000000000000000000000000000100075037017734ORLY PEREIRA DE AZEVEDO                 RUA BUTUCARAI                           CAMPOS ELISI00000000DUQUE DE CAXIASRJUNIAO UMB DOS CULTOS AFRO BRAS    30111810 000034
10231987175000168916200163100    000028696                    000286960000000000000109                     I0128696     30101800000000040003410000017N100918104700000000000103010180000000000000000000000000000000000000000100075037017734ORLY PEREIRA DE AZEVEDO                 RUA BUTUCARAI                           CAMPOS ELISI00000000DUQUE DE CAXIASRJUNIAO UMB DOS CULTOS AFRO BRAS    30101810 000035
10231987175000168916200163100    000028695                    000286950000000000000109                     I0128695     30091800000000040003410000017N100918104700000000000103009180000000000000000000000000000000000000000100075037017734ORLY PEREIRA DE AZEVEDO                 RUA BUTUCARAI                           CAMPOS ELISI00000000DUQUE DE CAXIASRJUNIAO UMB DOS CULTOS AFRO BRAS    30091810 000036
10231987175000168916200163100    000028694                    000286940000000000000109                     I0128694     30091800000000350003410000017N090918104700000000000103009180000000000000000000000000000000000000000100085789569749VALMIR DE SOUZA RIBEIRO                 O MESMO                                 O MESMO     21715080RIO DE JANEIRO RJUNIAO UMB DOS CULTOS AFRO BRAS    30091810 000037
10231987175000168916200163100    000028693                    000286930000000000000109                     I0128693     28091800000000400003410000017N090918104700000000000102809180000000000000000000000000000000000000000100028625153704CARLOS ALBERTO MENDES DA CRUZ           RUA DA LASTENIA                         MALHAPAO    26187070BELFORD ROXO   RJUNIAO UMB DOS CULTOS AFRO BRAS    28091810 000038
10231987175000168916200163100    000028692                    000286920000000000000109                     I0128692     30111800000000040003410000017N090918104700000000000103011180000000000000000000000000000000000000000100006957427790ANDREIA CARVALHO DOS SANTOS             RUA: DOUTOR LEAL                        ENGENHO DE D20730030RIO DE JANEIRO RJUNIAO UMB DOS CULTOS AFRO BRAS    30111810 000039
10231987175000168916200163100    000028691                    000286910000000000000109                     I0128691     30101800000000040003410000017N090918104700000000000103010180000000000000000000000000000000000000000100006957427790ANDREIA CARVALHO DOS SANTOS             RUA: DOUTOR LEAL                        ENGENHO DE D20730030RIO DE JANEIRO RJUNIAO UMB DOS CULTOS AFRO BRAS    30101810 000040
10231987175000168916200163100    000028618                    000286180000000000000109                     I0228618     20091800000000010003410000017N310818104700000000000102009180000000000000000000000000000000000000000100005851795735JOAO LUIZ DE OLIVEIRA MAGALHAE          RUA ANTONIO CARLOS PARANHOS             VILA VALQUEI21321340RIO DE JANEIRO RJUNIAO UMB DOS CULTOS AFRO BRAS    20091810 000041
10231987175000168916200163100    000021289                    000212890000000000000109                     I0221289     30071800000000210003410000017N120718104700000000000103007180000000000000000000000000000000000000000100076658961700BEATRIZ DIAS DO NASCIMENTO              RUA SAO BRUNO                           PENHA       21021160RIO DE JANEIRO RJUNIAO UMB DOS CULTOS AFRO BRAS    30071810 000042
10231987175000168916200163100    000020834                    000208340000000000000109                     I0220834     30081800000000035003410000017N090518104700000000000103008180000000000000000000000000000000000000000100079034780791PAULO ROBERTO DE SOUZA MORENO           RUA CORONEL MALHAES                     TIRADENTES  26351180NOVA IGUACU    RJUNIAO UMB DOS CULTOS AFRO BRAS    30081810 000043
10231987175000168916200163100    000020496                    000204960000000000000109                     I3420496     30081800000000035003410000017N070518104700000000000103008180000000000000000000000000000000000000000100089497899734UGO SILVA FILHO                         RUA CADETE ULISSES VEIGA N 22           SAO CRISTOVA20940240RIO DE JANEIRO RJUNIAO UMB DOS CULTOS AFRO BRAS    30081810 000044
10231987175000168916200163100    000020452                    000204520000000000000109                     I3420452     30081800000000035003410000017N070518104700000000000103008180000000000000000000000000000000000000000100002139519752CARLA MARIA DE BRITO DOS SANTO          RUA QUINZE                              PARQUE SANTA25271750DUQUE DE CAXIASRJUNIAO UMB DOS CULTOS AFRO BRAS    30081810 000045
10231987175000168916200163100    000020324                    000203240000000000000109                     I0220324     30081800000000035003410000017N070518104700000000000103008180000000000000000000000000000000000000000100010949550434JOAO BATISTA PEREIRA DE VASCON          RUA NEIDE ALVES DA SILVA                JARDIM SAO S58306450BAYEUX         PBUNIAO UMB DOS CULTOS AFRO BRAS    30081810 000046
10231987175000168916200163100    000020286                    000202860000000000000109                     I0220286     30081800000000035003410000017N070518104700000000000103008180000000000000000000000000000000000000000100008478002707ALEXSANDRO JOAO MARTINS                 RUA CARMO DO RIO CLARO                  SAO GABRIEL 26021830NOVA IGUACU    RJUNIAO UMB DOS CULTOS AFRO BRAS    30081810 000047
10231987175000168916200163100    000020185                    000201850000000000000109                     I3420185     30081800000000035003410000017N070518104700000000000103008180000000000000000000000000000000000000000100010591612739ROSEMERE SOUZA DA SILVA                 ESTRADA DA AGUA GRANDE                  VISTA ALEGRE21230354RIO DE JANEIRO RJUNIAO UMB DOS CULTOS AFRO BRAS    30081810 000048
10231987175000168916200163100    000019782                    000197820000000000000109                     I3419782     30081800000000035003410000017N070518104700000000000103008180000000000000000000000000000000000000000100043194869787JORGE PINHEIRO DE ALMEIDA               RUA CERQUEIRA CESAR N 121 CASA 1        MADUREIRA - 21351070RIO DE JANEIRO RJUNIAO UMB DOS CULTOS AFRO BRAS    30081810 000049
10231987175000168916200163100    000019748                    000197480000000000000109                     I0219748     30081800000000035003410000017N070518104700000000000103008180000000000000000000000000000000000000000100011778537790MARIVONE ANTONIA DOS SANTOS             RUA TOMAS FONSECA                       COMENDADOR S26031512NOVA IGUACU    RJUNIAO UMB DOS CULTOS AFRO BRAS    30081810 000050
10231987175000168916200163100    000019711                    000197110000000000000109                     I0219711     30081800000000035003410000017N070518104700000000000103008180000000000000000000000000000000000000000100076658961700BEATRIZ DIAS DO NASCIMENTO              RUA SAO BRUNO                           PENHA       21021160RIO DE JANEIRO RJUNIAO UMB DOS CULTOS AFRO BRAS    30081810 000051
10231987175000168916200163100    000018963                    000189630000000000000109                     I3418963     30071800000000035003410000017N070518104700000000000103007180000000000000000000000000000000000000000100001430160754RITA DE CASSIA CORMACK DE CARV          RUA: MANOEL IVO                         VILA TRES - 24711030SAO GONCALO    RJUNIAO UMB DOS CULTOS AFRO BRAS    30071810 000052
10231987175000168916200163100    000018926                    000189260000000000000109                     I3418926     30071800000000035003410000017N070518104700000000000103007180000000000000000000000000000000000000000100089497899734UGO SILVA FILHO                         RUA CADETE ULISSES VEIGA N 22           SAO CRISTOVA20940240RIO DE JANEIRO RJUNIAO UMB DOS CULTOS AFRO BRAS    30071810 000053
10231987175000168916200163100    000018754                    000187540000000000000109                     I0218754     30071800000000035003410000017N070518104700000000000103007180000000000000000000000000000000000000000100010949550434JOAO BATISTA PEREIRA DE VASCON          RUA NEIDE ALVES DA SILVA                JARDIM SAO S58306450BAYEUX         PBUNIAO UMB DOS CULTOS AFRO BRAS    30071810 000054
10231987175000168916200163100    000018740                    000187400000000000000109                     I3418740     30071800000000035003410000017N070518104700000000000103007180000000000000000000000000000000000000000100037433288791VERA LUCIA COSTA MOACYR                 RUA JOANA KALIL                         JARDIM MERIT25555100SAO JOAO DE MERRJUNIAO UMB DOS CULTOS AFRO BRAS    30071810 000055
10231987175000168916200163100    000018716                    000187160000000000000109                     I0218716     30071800000000035003410000017N070518104700000000000103007180000000000000000000000000000000000000000100008478002707ALEXSANDRO JOAO MARTINS                 RUA CARMO DO RIO CLARO                  SAO GABRIEL 26021830NOVA IGUACU    RJUNIAO UMB DOS CULTOS AFRO BRAS    30071810 000056
10231987175000168916200163100    000018615                    000186150000000000000109                     I3418615     30071800000000035003410000017N070518104700000000000103007180000000000000000000000000000000000000000100010591612739ROSEMERE SOUZA DA SILVA                 ESTRADA DA AGUA GRANDE                  VISTA ALEGRE21230354RIO DE JANEIRO RJUNIAO UMB DOS CULTOS AFRO BRAS    30071810 000057
10231987175000168916200163100    000018596                    000185960000000000000109                     I3418596     30071800000000035003410000017N070518104700000000000103007180000000000000000000000000000000000000000100001248895738JUSSARA SILVEIRA LOPES DA FONS          RUA SAQUAREMA                           SANTO ALEIXO25914000MAGE           RJUNIAO UMB DOS CULTOS AFRO BRAS    30071810 000058
10231987175000168916200163100    000018178                    000181780000000000000109                     I0218178     30071800000000035003410000017N070518104700000000000103007180000000000000000000000000000000000000000100011778537790MARIVONE ANTONIA DOS SANTOS             RUA TOMAS FONSECA                       COMENDADOR S26031512NOVA IGUACU    RJUNIAO UMB DOS CULTOS AFRO BRAS    30071810 000059
10231987175000168916200163100    000018141                    000181410000000000000109                     I0218141     30071800000000035003410000017N070518104700000000000103007180000000000000000000000000000000000000000100076658961700BEATRIZ DIAS DO NASCIMENTO              RUA SAO BRUNO                           PENHA       21021160RIO DE JANEIRO RJUNIAO UMB DOS CULTOS AFRO BRAS    30071810 000060
9                                                                                                                                                                                                                                                                                                                                                                                                         000061
