01REMESSA01COBRANCA       817800093673        União Umb dos Cultos Afro Bra341BANCO ITAU SA  150119                                                                                                                                                                                                                                                                                                      000001
10231987175000168817800093673    000039578                    000395780000000000000109                     I0139578     25011900000000105003410000017N150119104700000000000102501190000000000000000000000000000000000000000100067293816715SCHEYLA ARNALDO                         RUA PRAIA DA FERRADURA                  CAMINHO DE B28900000RIO DE JANEIRO RJUNIAO UMB DOS CULTOS AFRO BRAS    25011910 000002
10231987175000168817800093673    000039577                    000395770000000000000109                     I0139577     20021900000000350003410000017N150119104700000000000102002190000000000000000000000000000000000000000100070645523704RICARDO DE SOUZA LIMA                   RUA MAJOR AZEVEDO                       IRAJA       21230060RIO DE JANEIRO RJUNIAO UMB DOS CULTOS AFRO BRAS    20021910 000003
10231987175000168817800093673    000032984                    000329840000000000000109                     I0232984     20121800000000350003410000017N291018104700000000000102012180000000000000000000000000000000000000000100070645523704RICARDO DE SOUZA LIMA                   RUA MAJOR AZEVEDO                       IRAJA       21230060RIO DE JANEIRO RJUNIAO UMB DOS CULTOS AFRO BRAS    20121810 000004
10231987175000168817800093673    000032045                    000320450000000000000109                     I0232045     20121800000000350003410000017N291018104700000000000102012180000000000000000000000000000000000000000100005215642710ROBERTA LIMA GRIJO                      RUA FLORANIA                            VISTA ALEGRE21230700RIO DE JANEIRO RJUNIAO UMB DOS CULTOS AFRO BRAS    20121810 000005
10231987175000168817800093673    000031790                    000317900000000000000109                     I0231790     20121800000000350003410000017N291018104700000000000102012180000000000000000000000000000000000000000100067293816715SCHEYLA ARNALDO                         RUA PRAIA DA FERRADURA                  CAMINHO DE B28900000RIO DE JANEIRO RJUNIAO UMB DOS CULTOS AFRO BRAS    20121810 000006
10231987175000168817800093673    000030166                    000301660000000000000109                     I0230166     20121800000000035003410000017N291018104700000000000102012180000000000000000000000000000000000000000100070645523704RICARDO DE SOUZA LIMA                   RUA MAJOR AZEVEDO                       IRAJA       21230060RIO DE JANEIRO RJUNIAO UMB DOS CULTOS AFRO BRAS    20121810 000007
10231987175000168817800093673    000029568                    000295680000000000000109                     I0229568     20121800000000035003410000017N291018104700000000000102012180000000000000000000000000000000000000000100067293816715SCHEYLA ARNALDO                         RUA PRAIA DA FERRADURA                  CAMINHO DE B28900000RIO DE JANEIRO RJUNIAO UMB DOS CULTOS AFRO BRAS    20121810 000008
10231987175000168817800093673    000028278                    000282780000000000000109                     I0228278     30111800000000035003410000017N200818104700000000000103011180000000000000000000000000000000000000000100070645523704RICARDO DE SOUZA LIMA                   RUA MAJOR AZEVEDO                       IRAJA       21230060RIO DE JANEIRO RJUNIAO UMB DOS CULTOS AFRO BRAS    30111810 000009
10231987175000168817800093673    000027647                    000276470000000000000109                     I0227647     30111800000000035003410000017N200818104700000000000103011180000000000000000000000000000000000000000100067293816715SCHEYLA ARNALDO                         RUA PRAIA DA FERRADURA                  CAMINHO DE B28900000RIO DE JANEIRO RJUNIAO UMB DOS CULTOS AFRO BRAS    30111810 000010
9                                                                                                                                                                                                                                                                                                                                                                                                         000011
