01REMESSA01COBRANCA       817800093673        União Umb dos Cultos Afro Bra341BANCO ITAU SA  090918                                                                                                                                                                                                                                                                                                      000001
10231987175000168817800093673    000028205                    000282050000000000000109                     I3428205     30111800000000035003410000017N200818104700000000000103011180000000000000000000000000000000000000000100064947130768MARIA GORETE DE SOUSA MIRANDA           AVENIDA PASTEUR N 113 A                 PARQUE ALIAN25550210SAO JOAO DE MERRJUNIAO UMB DOS CULTOS AFRO BRAS    30111810 000002
10231987175000168817800093673    000028142                    000281420000000000000109                     I0228142     30111800000000035003410000017N200818104700000000000103011180000000000000000000000000000000000000000100001763784000ANA ISABEL GARCIA RIBEIRO MART          RUA DACOUTADA LOTE 10                   BRAGA - LOMA04710243LOMAR          PTUNIAO UMB DOS CULTOS AFRO BRAS    30111810 000003
10231987175000168817800093673    000028109                    000281090000000000000109                     I0228109     30111800000000035003410000017N200818104700000000000103011180000000000000000000000000000000000000000100009079674770FERNANDA DOS SANTOS SILVA               RUA JOAQUIM MANOEL DA ROCHA             TRES PONTES 24809254SAO GONCALO    RJUNIAO UMB DOS CULTOS AFRO BRAS    30111810 000004
10231987175000168817800093673    000027994                    000279940000000000000109                     I0227994     30111800000000035003410000017N200818104700000000000103011180000000000000000000000000000000000000000100003210312414MARCELINA DA SILVA COSTA                RUA ALARICO DE SOUZA                    ATALAIA     24315000NITEROI        RJUNIAO UMB DOS CULTOS AFRO BRAS    30111810 000005
10231987175000168817800093673    000027097                    000270970000000000000109                     I3427097     30111800000000035003410000017N200818104700000000000103011180000000000000000000000000000000000000000100003388076758ROSALINA MARIA NEVES                    RUA LAURINDO FILHO                      CAVALCANTI  21370260RIO DE JANEIRO RJUNIAO UMB DOS CULTOS AFRO BRAS    30111810 000006
10231987175000168817800093673    000026784                    000267840000000000000109                     I3426784     30091800000000035003410000017N200818104700000000000103009180000000000000000000000000000000000000000100064947130768MARIA GORETE DE SOUSA MIRANDA           AVENIDA PASTEUR N 113 A                 PARQUE ALIAN25550210SAO JOAO DE MERRJUNIAO UMB DOS CULTOS AFRO BRAS    30091810 000007
10231987175000168817800093673    000026722                    000267220000000000000109                     I0226722     30091800000000035003410000017N200818104700000000000103009180000000000000000000000000000000000000000100001763784000ANA ISABEL GARCIA RIBEIRO MART          RUA DACOUTADA LOTE 10                   BRAGA - LOMA04710243LOMAR          PTUNIAO UMB DOS CULTOS AFRO BRAS    30091810 000008
10231987175000168817800093673    000026689                    000266890000000000000109                     I0226689     30091800000000035003410000017N200818104700000000000103009180000000000000000000000000000000000000000100009079674770FERNANDA DOS SANTOS SILVA               RUA JOAQUIM MANOEL DA ROCHA             TRES PONTES 24809254SAO GONCALO    RJUNIAO UMB DOS CULTOS AFRO BRAS    30091810 000009
10231987175000168817800093673    000026574                    000265740000000000000109                     I0226574     30091800000000035003410000017N200818104700000000000103009180000000000000000000000000000000000000000100003210312414MARCELINA DA SILVA COSTA                RUA ALARICO DE SOUZA                    ATALAIA     24315000NITEROI        RJUNIAO UMB DOS CULTOS AFRO BRAS    30091810 000010
10231987175000168817800093673    000026488                    000264880000000000000109                     I3426488     30091800000000035003410000017N200818104700000000000103009180000000000000000000000000000000000000000100007476149739JAQUELINE DE ASSIS                      RUA MIGUEL DE CARVALHO                  GUARATIBA   23035640RIO DE JANEIRO RJUNIAO UMB DOS CULTOS AFRO BRAS    30091810 000011
10231987175000168817800093673    000026244                    000262440000000000000109                     I3426244     30091800000000035003410000017N200818104700000000000103009180000000000000000000000000000000000000000100004462221788ALEXSANDRO JULIO DE SOUZA               RUA CORURIPE                            MARECHAL HER21555490RIO DE JANEIRO RJUNIAO UMB DOS CULTOS AFRO BRAS    30091810 000012
10231987175000168817800093673    000026148                    000261480000000000000109                     I3426148     30091800000000035003410000017N200818104700000000000103009180000000000000000000000000000000000000000100070614628768CREUZA GOMES DA ROCHA                   RUA: ITAPERA                            VISTA ALEGRE21230500RIO DE JANEIRO RJUNIAO UMB DOS CULTOS AFRO BRAS    30091810 000013
10231987175000168817800093673    000026071                    000260710000000000000109                     I3426071     30091800000000035003410000017N200818104700000000000103009180000000000000000000000000000000000000000100063553830778WILLIAM RODRIGUES                       ESTRADA OTEIRO SANTO, 1022 CASA 3       TAQUARA - RI22713169RIO DE JANEIRO RJUNIAO UMB DOS CULTOS AFRO BRAS    30091810 000014
10231987175000168817800093673    000025954                    000259540000000000000109                     I3425954     30091800000000035003410000017N200818104700000000000103009180000000000000000000000000000000000000000100070891036768EDNA FERREIRA DE MELO                   RUA SARGENTO MARQUETI N 5               MARECHAL HER21611000RIO DE JANEIRO RJUNIAO UMB DOS CULTOS AFRO BRAS    30091810 000015
10231987175000168817800093673    000025683                    000256830000000000000109                     I3425683     30091800000000035003410000017N200818104700000000000103009180000000000000000000000000000000000000000100003388076758ROSALINA MARIA NEVES                    RUA LAURINDO FILHO                      CAVALCANTI  21370260RIO DE JANEIRO RJUNIAO UMB DOS CULTOS AFRO BRAS    30091810 000016
10231987175000168817800093673    000025368                    000253680000000000000109                     I3425368     30101800000000035003410000017N200818104700000000000103010180000000000000000000000000000000000000000100064947130768MARIA GORETE DE SOUSA MIRANDA           AVENIDA PASTEUR N 113 A                 PARQUE ALIAN25550210SAO JOAO DE MERRJUNIAO UMB DOS CULTOS AFRO BRAS    30101810 000017
10231987175000168817800093673    000025305                    000253050000000000000109                     I0225305     30101800000000035003410000017N200818104700000000000103010180000000000000000000000000000000000000000100001763784000ANA ISABEL GARCIA RIBEIRO MART          RUA DACOUTADA LOTE 10                   BRAGA - LOMA04710243LOMAR          PTUNIAO UMB DOS CULTOS AFRO BRAS    30101810 000018
10231987175000168817800093673    000025272                    000252720000000000000109                     I0225272     30101800000000035003410000017N200818104700000000000103010180000000000000000000000000000000000000000100009079674770FERNANDA DOS SANTOS SILVA               RUA JOAQUIM MANOEL DA ROCHA             TRES PONTES 24809254SAO GONCALO    RJUNIAO UMB DOS CULTOS AFRO BRAS    30101810 000019
10231987175000168817800093673    000025157                    000251570000000000000109                     I0225157     30101800000000035003410000017N200818104700000000000103010180000000000000000000000000000000000000000100003210312414MARCELINA DA SILVA COSTA                RUA ALARICO DE SOUZA                    ATALAIA     24315000NITEROI        RJUNIAO UMB DOS CULTOS AFRO BRAS    30101810 000020
10231987175000168817800093673    000024534                    000245340000000000000109                     I3424534     30101800000000035003410000017N200818104700000000000103010180000000000000000000000000000000000000000100070891036768EDNA FERREIRA DE MELO                   RUA SARGENTO MARQUETI N 5               MARECHAL HER21611000RIO DE JANEIRO RJUNIAO UMB DOS CULTOS AFRO BRAS    30101810 000021
10231987175000168817800093673    000024263                    000242630000000000000109                     I3424263     30101800000000035003410000017N200818104700000000000103010180000000000000000000000000000000000000000100003388076758ROSALINA MARIA NEVES                    RUA LAURINDO FILHO                      CAVALCANTI  21370260RIO DE JANEIRO RJUNIAO UMB DOS CULTOS AFRO BRAS    30101810 000022
9                                                                                                                                                                                                                                                                                                                                                                                                         000023
