01REMESSA01COBRANCA       817800093673        União Umb dos Cultos Afro Bra341BANCO ITAU SA  020418                                                                                                                                                                                                                                                                                                      000001
10231987175000168817800093673    00001428                     000014280000000000000109                     I021428      20121700000000270003410000017N251017104700000000000102012170000000000000000000000000000000000000000200000000001673DAVID MOREIRA DE MENDONCA               RUA GENERAL RENATO PIQUET, LOTE 27 QUADRVILA GENI - 23825460ITAGUAI        RJUNIAO UMB DOS CULTOS AFRO BRAS    20121710 000002
10231987175000168817800093673    00001427                     000014270000000000000109                     I021427      20121700000000300003410000017N251017104700000000000102012170000000000000000000000000000000000000000100086990810734ROGY CARLOS OLIVEIRA MELLO              RUA: BORDA DO MATO Nº 433              GRAJAU - RIO20561200RIO DE JANEIRO RJUNIAO UMB DOS CULTOS AFRO BRAS    20121710 000003
10231987175000168817800093673    00001423                     000014230000000000000109                     I021423      20121700000000400003410000017N251017104700000000000102012170000000000000000000000000000000000000000100001272334740VALERIA MARIA MOREIRA                   RUA: EUDINO EGGER Nº 70 - JARDIM CATARISAO GONCALO 32472290SAO GONCALO    RJUNIAO UMB DOS CULTOS AFRO BRAS    20121710 000004
10231987175000168817800093673    00001422                     000014220000000000000109                     I021422      20121700000000340003410000017N251017104700000000000102012170000000000000000000000000000000000000000100015110892709YASMIN FIALHO HANGES                    ESTRADA HENRIQUE DE MELO N 193 FUNDOS   BENTO RIBEIR21340190RIO DE JANEIRO RJUNIAO UMB DOS CULTOS AFRO BRAS    20121710 000005
9                                                                                                                                                                                                                                                                                                                                                                                                         000006
