01REMESSA01COBRANCA       817800093673        União Umb dos Cultos Afro Bra341BANCO ITAU SA  050518                                                                                                                                                                                                                                                                                                      000001
10231987175000168817800093673    000014472                    000144720000000000000109                     I0114472     30051800000000035003410000017N040518104700000000000103005180000000000000000000000000000000000000000100005215608709KARYN GEYZA BATALHA BOECHAT             AVENIDA NOSSA SENHORA DE COPACABANA     COPACABANA  22060001RIO DE JANEIRO RJUNIAO UMB DOS CULTOS AFRO BRAS    30051810 000002
10231987175000168817800093673    000014428                    000144280000000000000109                     I3414428     30041800000000105003410000017N190418104700000000000103004180000000000000000000000000000000000000000100089209001753ALDIR TEIXEIRA DE SOUZA                 RUA BELO HORIZONTE, 381                 BANGU - RIO 21815141RIO DE JANEIRO RJUNIAO UMB DOS CULTOS AFRO BRAS    30041810 000003
10231987175000168817800093673    000014334                    000143340000000000000109                     I0214334     30051800000000035003410000017N050418104700000000000103005180000000000000000000000000000000000000000100059598255700TEREZINHA MARIA DE JESUS PINHE          MANOEL DA SILVA PEREIRA                 PRADOS VERDE26299003NOVA IGUACU    RJUNIAO UMB DOS CULTOS AFRO BRAS    30051810 000004
10231987175000168817800093673    000014333                    000143330000000000000109                     I0214333     30041800000000035003410000017N050418104700000000000103004180000000000000000000000000000000000000000100059598255700TEREZINHA MARIA DE JESUS PINHE          MANOEL DA SILVA PEREIRA                 PRADOS VERDE26299003NOVA IGUACU    RJUNIAO UMB DOS CULTOS AFRO BRAS    30041810 000005
10231987175000168817800093673    000013814                    000138140000000000000109                     I0213814     30051800000000035003410000017N200218104700000000000103005180000000000000000000000000000000000000000100001346375771CRISTIANE MARIANO RAPELLO               ESTRADA ALBERTO TEIXEIRA CUNHA N 1410 CANILOPOLIS - 26520070NILOPOLIS      RJUNIAO UMB DOS CULTOS AFRO BRAS    30051810 000006
10231987175000168817800093673    000013725                    000137250000000000000109                     I3413725     30051800000000035003410000017N200218104700000000000103005180000000000000000000000000000000000000000100066514118704MARILIA GARCIA DA PAIXAO                RUA FRANCOLIM N 306                     GUADALUPE - 21660130RIO DE JANEIRO RJUNIAO UMB DOS CULTOS AFRO BRAS    30051810 000007
10231987175000168817800093673    000013503                    000135030000000000000109                     I3413503     30051800000000035003410000017N200218104700000000000103005180000000000000000000000000000000000000000100089209001753ALDIR TEIXEIRA DE SOUZA                 RUA BELO HORIZONTE, 381                 BANGU - RIO 21815141RIO DE JANEIRO RJUNIAO UMB DOS CULTOS AFRO BRAS    30051810 000008
10231987175000168817800093673    000013418                    000134180000000000000109                     I0213418     30051800000000035003410000017N200218104700000000000103005180000000000000000000000000000000000000000100060479612749MARIA SEBASTIANA NOGUEIRA PAIX          RUA DOZE DE FEVEREIRO, 900 CASA 4       BANGU - RJ  21815092RIO DE JANEIRO RJUNIAO UMB DOS CULTOS AFRO BRAS    30051810 000009
10231987175000168817800093673    000013334                    000133340000000000000109                     I3413334     30051800000000035003410000017N200218104700000000000103005180000000000000000000000000000000000000000100009805565700THIAGO DOS SANTOS FLOR DA SILV          RUA JOAO LUSO, 423                      REALENGO-RJ 21765620RIO DE JANEIRO RJUNIAO UMB DOS CULTOS AFRO BRAS    30051810 000010
10231987175000168817800093673    000013301                    000133010000000000000109                     I3413301     30051800000000035003410000017N200218104700000000000103005180000000000000000000000000000000000000000100001868270750CARLOS ALBERTO DO NASCIMENTO L          O MESMO                                 O MESMO     20761060RIO DE JANEIRO RJUNIAO UMB DOS CULTOS AFRO BRAS    30051810 000011
10231987175000168817800093673    000012688                    000126880000000000000109                     I0212688     30051800000000035003410000017N200218104700000000000103005180000000000000000000000000000000000000000100001037627792FRANCE BATISTA CRESPO                   RUA CAPITAO MACHADO N 604 CASA 4        PRACA SECA -20740230RIO DE JANEIRO RJUNIAO UMB DOS CULTOS AFRO BRAS    30051810 000012
10231987175000168817800093673    000012388                    000123880000000000000109                     I0212388     30051800000000035003410000017N200218104700000000000103005180000000000000000000000000000000000000000100000000000510DIVINA ANGELICA LOPES                   RUA ITAI, 296                           ANCHIETA - R21645300RIO DE JANEIRO RJUNIAO UMB DOS CULTOS AFRO BRAS    30051810 000013
10231987175000168817800093673    000012205                    000122050000000000000109                     I0212205     30041800000000035003410000017N200218104700000000000103004180000000000000000000000000000000000000000100001346375771CRISTIANE MARIANO RAPELLO               ESTRADA ALBERTO TEIXEIRA CUNHA N 1410 CANILOPOLIS - 26520070NILOPOLIS      RJUNIAO UMB DOS CULTOS AFRO BRAS    30041810 000014
10231987175000168817800093673    000012120                    000121200000000000000109                     I0212120     30041800000000035003410000017N200218104700000000000103004180000000000000000000000000000000000000000100010016543752ALEXANDRE TEIXEIRA CAVALCANTE           RUA DOUTOR NUNES N 934                  OLARIA - RIO21021370RIO DE JANEIRO RJUNIAO UMB DOS CULTOS AFRO BRAS    30041810 000015
10231987175000168817800093673    000012116                    000121160000000000000109                     I3412116     30041800000000035003410000017N200218104700000000000103004180000000000000000000000000000000000000000100066514118704MARILIA GARCIA DA PAIXAO                RUA FRANCOLIM N 306                     GUADALUPE - 21660130RIO DE JANEIRO RJUNIAO UMB DOS CULTOS AFRO BRAS    30041810 000016
10231987175000168817800093673    000012003                    000120030000000000000109                     I0212003     30041800000000035003410000017N200218104700000000000103004180000000000000000000000000000000000000000100083492909787MARCIA DA COSTA BRANDAO                 TRAVESSA MALAFAIA, 49                   DEL CASTILHO21050620RIO DE JANEIRO RJUNIAO UMB DOS CULTOS AFRO BRAS    30041810 000017
10231987175000168817800093673    000011982                    000119820000000000000109                     I0211982     30041800000000035003410000017N200218104700000000000103004180000000000000000000000000000000000000000100016212777713TAYNARA LUZIA SILVA SOUZA               RODOVIA LUCIO MEIRA, 45772 - KM 249 BR-3MINUANO - BA27115190BARRA DO PIRAI RJUNIAO UMB DOS CULTOS AFRO BRAS    30041810 000018
10231987175000168817800093673    000011894                    000118940000000000000109                     I3411894     30041800000000035003410000017N200218104700000000000103004180000000000000000000000000000000000000000100089209001753ALDIR TEIXEIRA DE SOUZA                 RUA BELO HORIZONTE, 381                 BANGU - RIO 21815141RIO DE JANEIRO RJUNIAO UMB DOS CULTOS AFRO BRAS    30041810 000019
10231987175000168817800093673    000011809                    000118090000000000000109                     I0211809     30041800000000035003410000017N200218104700000000000103004180000000000000000000000000000000000000000100060479612749MARIA SEBASTIANA NOGUEIRA PAIX          RUA DOZE DE FEVEREIRO, 900 CASA 4       BANGU - RJ  21815092RIO DE JANEIRO RJUNIAO UMB DOS CULTOS AFRO BRAS    30041810 000020
10231987175000168817800093673    000011778                    000117780000000000000109                     I3411778     30041800000000035003410000017N200218104700000000000103004180000000000000000000000000000000000000000100001189035782ANDERSON MELLO DE PAULA                 RUA CARATINGA, 15                       HONORIO GURG21511200RIO DE JANEIRO RJUNIAO UMB DOS CULTOS AFRO BRAS    30041810 000021
10231987175000168817800093673    000011725                    000117250000000000000109                     I3411725     30041800000000035003410000017N200218104700000000000103004180000000000000000000000000000000000000000100009805565700THIAGO DOS SANTOS FLOR DA SILV          RUA JOAO LUSO, 423                      REALENGO-RJ 21765620RIO DE JANEIRO RJUNIAO UMB DOS CULTOS AFRO BRAS    30041810 000022
10231987175000168817800093673    000011526                    000115260000000000000109                     I3411526     30041800000000035003410000017N200218104700000000000103004180000000000000000000000000000000000000000100002046107705PAULO SERGIO MILITAO HENRIQUE           RUA VIENA, 41                           BRAS DE PINA21215350RIO DE JANEIRO RJUNIAO UMB DOS CULTOS AFRO BRAS    30041810 000023
10231987175000168817800093673    000011406                    000114060000000000000109                     I0211406     30041800000000035003410000017N200218104700000000000103004180000000000000000000000000000000000000000100027788199753FABIO FERNANDES DE SOUZA                ESTRADA DE SAO FRANCISCO N 1585         SAO FRANCISC25900000MAGE           RJUNIAO UMB DOS CULTOS AFRO BRAS    30041810 000024
10231987175000168817800093673    000011079                    000110790000000000000109                     I0211079     30041800000000035003410000017N200218104700000000000103004180000000000000000000000000000000000000000100001037627792FRANCE BATISTA CRESPO                   RUA CAPITAO MACHADO N 604 CASA 4        PRACA SECA -20740230RIO DE JANEIRO RJUNIAO UMB DOS CULTOS AFRO BRAS    30041810 000025
10231987175000168817800093673    000010779                    000107790000000000000109                     I0210779     30041800000000035003410000017N200218104700000000000103004180000000000000000000000000000000000000000100000000000510DIVINA ANGELICA LOPES                   RUA ITAI, 296                           ANCHIETA - R21645300RIO DE JANEIRO RJUNIAO UMB DOS CULTOS AFRO BRAS    30041810 000026
10231987175000168817800093673    000010713                    000107130000000000000109                     I0210713     30031800000000035003410000017N200218104700000000000103003180000000000000000000000000000000000000000100010154945790SIMONE DE OLIVEIRA CUNHA                RUA ONZE                                JARDIM ROTSE25270080DUQUE DE CAXIASRJUNIAO UMB DOS CULTOS AFRO BRAS    30031810 000027
10231987175000168817800093673    000010596                    000105960000000000000109                     I0210596     30031800000000035003410000017N200218104700000000000103003180000000000000000000000000000000000000000100001346375771CRISTIANE MARIANO RAPELLO               ESTRADA ALBERTO TEIXEIRA CUNHA N 1410 CANILOPOLIS - 26520070NILOPOLIS      RJUNIAO UMB DOS CULTOS AFRO BRAS    30031810 000028
10231987175000168817800093673    000010511                    000105110000000000000109                     I0210511     30031800000000035003410000017N200218104700000000000103003180000000000000000000000000000000000000000100010016543752ALEXANDRE TEIXEIRA CAVALCANTE           RUA DOUTOR NUNES N 934                  OLARIA - RIO21021370RIO DE JANEIRO RJUNIAO UMB DOS CULTOS AFRO BRAS    30031810 000029
10231987175000168817800093673    000010456                    000104560000000000000109                     I3410456     30031800000000035003410000017N200218104700000000000103003180000000000000000000000000000000000000000100080974015768SHEYLA REGINA SERAPHIM DA HORA          RUA CAMBAI 49                           QUINTINO BOC21380300RIO DE JANEIRO RJUNIAO UMB DOS CULTOS AFRO BRAS    30031810 000030
10231987175000168817800093673    000010394                    000103940000000000000109                     I0210394     30031800000000035003410000017N200218104700000000000103003180000000000000000000000000000000000000000100083492909787MARCIA DA COSTA BRANDAO                 TRAVESSA MALAFAIA, 49                   DEL CASTILHO21050620RIO DE JANEIRO RJUNIAO UMB DOS CULTOS AFRO BRAS    30031810 000031
10231987175000168817800093673    000010373                    000103730000000000000109                     I0210373     30031800000000035003410000017N200218104700000000000103003180000000000000000000000000000000000000000100016212777713TAYNARA LUZIA SILVA SOUZA               RODOVIA LUCIO MEIRA, 45772 - KM 249 BR-3MINUANO - BA27115190BARRA DO PIRAI RJUNIAO UMB DOS CULTOS AFRO BRAS    30031810 000032
10231987175000168817800093673    000010200                    000102000000000000000109                     I0210200     30031800000000035003410000017N200218104700000000000103003180000000000000000000000000000000000000000100060479612749MARIA SEBASTIANA NOGUEIRA PAIX          RUA DOZE DE FEVEREIRO, 900 CASA 4       BANGU - RJ  21815092RIO DE JANEIRO RJUNIAO UMB DOS CULTOS AFRO BRAS    30031810 000033
10231987175000168817800093673    000010169                    000101690000000000000109                     I3410169     30031800000000035003410000017N200218104700000000000103003180000000000000000000000000000000000000000100001189035782ANDERSON MELLO DE PAULA                 RUA CARATINGA, 15                       HONORIO GURG21511200RIO DE JANEIRO RJUNIAO UMB DOS CULTOS AFRO BRAS    30031810 000034
10231987175000168817800093673    000010116                    000101160000000000000109                     I3410116     30031800000000035003410000017N200218104700000000000103003180000000000000000000000000000000000000000100009805565700THIAGO DOS SANTOS FLOR DA SILV          RUA JOAO LUSO, 423                      REALENGO-RJ 21765620RIO DE JANEIRO RJUNIAO UMB DOS CULTOS AFRO BRAS    30031810 000035
10231987175000168817800093673    00009932                     000099320000000000000109                     I349932      30031800000000035003410000017N200218104700000000000103003180000000000000000000000000000000000000000100050946510725MARIA LUIZA DOS SANTOS                  RUA J QUADRA 4 LOTE 8 FUNDOS            CAMPINHO - R21330735RIO DE JANEIRO RJUNIAO UMB DOS CULTOS AFRO BRAS    30031810 000036
10231987175000168817800093673    00009917                     000099170000000000000109                     I029917      30031800000000035003410000017N200218104700000000000103003180000000000000000000000000000000000000000100002046107705PAULO SERGIO MILITAO HENRIQUE           RUA VIENA, 41                           BRAS DE PINA21215350RIO DE JANEIRO RJUNIAO UMB DOS CULTOS AFRO BRAS    30031810 000037
10231987175000168817800093673    00009817                     000098170000000000000109                     I029817      30031800000000035003410000017N200218104700000000000103003180000000000000000000000000000000000000000100085906859772JULIO CESAR DA SILVA                    RUA PROFESSOR MARIO BRANT, 573          REALENGO - R21760420RIO DE JANEIRO RJUNIAO UMB DOS CULTOS AFRO BRAS    30031810 000038
10231987175000168817800093673    00009797                     000097970000000000000109                     I029797      30031800000000035003410000017N200218104700000000000103003180000000000000000000000000000000000000000100027788199753FABIO FERNANDES DE SOUZA                ESTRADA DE SAO FRANCISCO N 1585         SAO FRANCISC25900000MAGE           RJUNIAO UMB DOS CULTOS AFRO BRAS    30031810 000039
10231987175000168817800093673    00009470                     000094700000000000000109                     I029470      30031800000000035003410000017N200218104700000000000103003180000000000000000000000000000000000000000100001037627792FRANCE BATISTA CRESPO                   RUA CAPITAO MACHADO N 604 CASA 4        PRACA SECA -20740230RIO DE JANEIRO RJUNIAO UMB DOS CULTOS AFRO BRAS    30031810 000040
10231987175000168817800093673    00009431                     000094310000000000000109                     I029431      30031800000000035003410000017N200218104700000000000103003180000000000000000000000000000000000000000100067165664734JAIRINO DOS SANTOS E JUREMA J.          TRAVESSA ALVARENGA N 80                 EDSON PASSOS26246150MESQUITA       RJUNIAO UMB DOS CULTOS AFRO BRAS    30031810 000041
10231987175000168817800093673    00009170                     000091700000000000000109                     I029170      30031800000000035003410000017N200218104700000000000103003180000000000000000000000000000000000000000100000000000510DIVINA ANGELICA LOPES                   RUA ITAI, 296                           ANCHIETA - R21645300RIO DE JANEIRO RJUNIAO UMB DOS CULTOS AFRO BRAS    30031810 000042
10231987175000168817800093673    00009072                     000090720000000000000109                     I029072      28021800000000035003410000017N290118104700000000000102802180000000000000000000000000000000000000000100010154945790SIMONE DE OLIVEIRA CUNHA                RUA ONZE                                JARDIM ROTSE25270080DUQUE DE CAXIASRJUNIAO UMB DOS CULTOS AFRO BRAS    28021810 000043
10231987175000168817800093673    00008397                     000083970000000000000109                     I028397      28021800000000035003410000017N291217104700000000000102802180000000000000000000000000000000000000000100001346375771CRISTIANE MARIANO RAPELLO               ESTRADA ALBERTO TEIXEIRA CUNHA N 1410 CANILOPOLIS - 26520070NILOPOLIS      RJUNIAO UMB DOS CULTOS AFRO BRAS    28021810 000044
10231987175000168817800093673    00008351                     000083510000000000000109                     I348351      28021800000000035003410000017N291217104700000000000102802180000000000000000000000000000000000000000100059680903753TANIA REGINA DOS SANTOS MARQUE          RUA VISCONDE DE MACEIO, 50 - FRENTE     IRAJA - RIO 21235100RIO DE JANEIRO RJUNIAO UMB DOS CULTOS AFRO BRAS    28021810 000045
10231987175000168817800093673    00008315                     000083150000000000000109                     I028315      28021800000000035003410000017N291217104700000000000102802180000000000000000000000000000000000000000100060479612749MARIA SEBASTIANA NOGUEIRA PAIX          RUA DOZE DE FEVEREIRO, 900 CASA 4       BANGU - RJ  21815092RIO DE JANEIRO RJUNIAO UMB DOS CULTOS AFRO BRAS    28021810 000046
10231987175000168817800093673    00008173                     000081730000000000000109                     I028173      28021800000000035003410000017N291217104700000000000102802180000000000000000000000000000000000000000100085906859772JULIO CESAR DA SILVA                    RUA PROFESSOR MARIO BRANT, 573          REALENGO - R21760420RIO DE JANEIRO RJUNIAO UMB DOS CULTOS AFRO BRAS    28021810 000047
10231987175000168817800093673    00008020                     000080200000000000000109                     I028020      28021800000000035003410000017N291217104700000000000102802180000000000000000000000000000000000000000100001037627792FRANCE BATISTA CRESPO                   RUA CAPITAO MACHADO N 604 CASA 4        PRACA SECA -20740230RIO DE JANEIRO RJUNIAO UMB DOS CULTOS AFRO BRAS    28021810 000048
10231987175000168817800093673    00007299                     000072990000000000000109                     I347299      28021800000000035003410000017N271217104700000000000102802180000000000000000000000000000000000000000100002882629729ANA PAULA DE SOUZA RIBEIRO VIL          O MESMO                                 O MESMO     21550130RIO DE JANEIRO RJUNIAO UMB DOS CULTOS AFRO BRAS    28021810 000049
10231987175000168817800093673    00007136                     000071360000000000000109                     I027136      28021800000000035003410000017N271217104700000000000102802180000000000000000000000000000000000000000100010016543752ALEXANDRE TEIXEIRA CAVALCANTE           RUA DOUTOR NUNES N 934                  OLARIA - RIO21021370RIO DE JANEIRO RJUNIAO UMB DOS CULTOS AFRO BRAS    28021810 000050
10231987175000168817800093673    00007077                     000070770000000000000109                     I347077      28021800000000035003410000017N271217104700000000000102802180000000000000000000000000000000000000000100080974015768SHEYLA REGINA SERAPHIM DA HORA          RUA CAMBAI 49                           QUINTINO BOC21380300RIO DE JANEIRO RJUNIAO UMB DOS CULTOS AFRO BRAS    28021810 000051
10231987175000168817800093673    00007026                     000070260000000000000109                     I027026      28021800000000035003410000017N271217104700000000000102802180000000000000000000000000000000000000000100083492909787MARCIA DA COSTA BRANDAO                 TRAVESSA MALAFAIA, 49                   DEL CASTILHO21050620RIO DE JANEIRO RJUNIAO UMB DOS CULTOS AFRO BRAS    28021810 000052
10231987175000168817800093673    00007010                     000070100000000000000109                     I027010      28021800000000035003410000017N271217104700000000000102802180000000000000000000000000000000000000000100016212777713TAYNARA LUZIA SILVA SOUZA               RODOVIA LUCIO MEIRA, 45772 - KM 249 BR-3MINUANO - BA27115190BARRA DO PIRAI RJUNIAO UMB DOS CULTOS AFRO BRAS    28021810 000053
10231987175000168817800093673    00006804                     000068040000000000000109                     I346804      28021800000000035003410000017N271217104700000000000102802180000000000000000000000000000000000000000100009805565700THIAGO DOS SANTOS FLOR DA SILV          RUA JOAO LUSO, 423                      REALENGO-RJ 21765620RIO DE JANEIRO RJUNIAO UMB DOS CULTOS AFRO BRAS    28021810 000054
10231987175000168817800093673    00006574                     000065740000000000000109                     I026574      28021800000000035003410000017N271217104700000000000102802180000000000000000000000000000000000000000100027788199753FABIO FERNANDES DE SOUZA                ESTRADA DE SAO FRANCISCO N 1585         SAO FRANCISC25900000MAGE           RJUNIAO UMB DOS CULTOS AFRO BRAS    28021810 000055
10231987175000168817800093673    00005827                     000058270000000000000109                     I345827      31011800000000035003410000017N261217104700000000000103101180000000000000000000000000000000000000000100080974015768SHEYLA REGINA SERAPHIM DA HORA          RUA CAMBAI 49                           QUINTINO BOC21380300RIO DE JANEIRO RJUNIAO UMB DOS CULTOS AFRO BRAS    31011810 000056
10231987175000168817800093673    00005760                     000057600000000000000109                     I025760      31011800000000035003410000017N261217104700000000000103101180000000000000000000000000000000000000000100016212777713TAYNARA LUZIA SILVA SOUZA               RODOVIA LUCIO MEIRA, 45772 - KM 249 BR-3MINUANO - BA27115190BARRA DO PIRAI RJUNIAO UMB DOS CULTOS AFRO BRAS    31011810 000057
10231987175000168817800093673    00005552                     000055520000000000000109                     I345552      13041800000000035003410000017N261217104700000000000101304180000000000000000000000000000000000000000100004790121720IATA ANDERSON JESUS PEREIRA             RUA ITAJUBARA, 92 FRENTE                RAMOS - RIO 21060180RIO DE JANEIRO RJUNIAO UMB DOS CULTOS AFRO BRAS    13041810 000058
10231987175000168817800093673    00005324                     000053240000000000000109                     I025324      31011800000000035003410000017N261217104700000000000103101180000000000000000000000000000000000000000100027788199753FABIO FERNANDES DE SOUZA                ESTRADA DE SAO FRANCISCO N 1585         SAO FRANCISC25900000MAGE           RJUNIAO UMB DOS CULTOS AFRO BRAS    31011810 000059
10231987175000168817800093673    00004657                     000046570000000000000109                     I344657      20121700000000035003410000017N241117104700000000000102012170000000000000000000000000000000000000000100012009305760DEBORA CRISTINA DE OLIVEIRA BR          RUA ORLANDO CARLOS DA CONCEICAO N 10    COROA GRANDE23820800ITAGUAI        RJUNIAO UMB DOS CULTOS AFRO BRAS    20121710 000060
9                                                                                                                                                                                                                                                                                                                                                                                                         000061
