01REMESSA01COBRANCA       916200163100        União Umb dos Cultos Afro Bra341BANCO ITAU SA  110118                                                                                                                                                                                                                                                                                                      000001
10231987175000168916200163100    00008503                     000085030000000000000109                     I018503      31011800000000035003410000017N020118050900000000000103101180000000000000000000000000000000000000000100050470809787MARIA LUIZA OLIVEIRA MAGALHAES          RUA: ARAUANA                            NOVO ELDORAD26150350BELFORD ROXO   RJUNIAO UMB DOS CULTOS AFRO BRAS    31011810 000002
10231987175000168916200163100    00004711                     000047110000000000000109                     I024711      08121700000000140003410000017N021217050900000000000100812170000000000000000000000000000000000000000100059374179768ROSANGELA MARIA DE CASTRO BEZE          RUA DONA ISABEL, 1170                   BONSUCESSO -21032060RIO DE JANEIRO RJUNIAO UMB DOS CULTOS AFRO BRAS    08121710 000003
10231987175000168916200163100    00004691                     000046910000000000000109                     I024691      10121700000000589403410000017N301117050900000000000101012170000000000000000000000000000000000000000100078566738772MARINA SOARES DA SILVA                  RUA: JOAO DANIEL                        BENTO RIBEIR21550480RIO DE JANEIRO RJUNIAO UMB DOS CULTOS AFRO BRAS    10121710 000004
10231987175000168916200163100    00003622                     000036220000000000000109                     I013622      22121700000000350003410000017N171117050900000000000102212170000000000000000000000000000000000000000100033382840715MARIA ALICE CONSTANCIO GOMES            RUA PALMARES, 39                        JARDIM PERNA26275310NOVA IGUACU    RJUNIAO UMB DOS CULTOS AFRO BRAS    22121710 000005
10231987175000168916200163100    00003503                     000035030000000000000109                     I013503      22121700000000350003410000017N171117050900000000000102212170000000000000000000000000000000000000000100048363340715AUREA RAMOS                             ESTRADA DO MAGARCA N 8488               CINCO MARIAS23031201PEDRA DE GUARATRJUNIAO UMB DOS CULTOS AFRO BRAS    22121710 000006
10231987175000168916200163100    00003414                     000034140000000000000109                     I013414      22121700000000350003410000017N171117050900000000000102212170000000000000000000000000000000000000000100062497073791SIDIRENE FRANCISCO MACHADO              RUA PALMEIRA DAS MISSOES 422 FUNDOS     VILA SANTA R23015220CAMPO GRANDE   RJUNIAO UMB DOS CULTOS AFRO BRAS    22121710 000007
10231987175000168916200163100    00002134                     000021340000000000000109                     I012134      31121700000000035003410000017N131117050900000000000103112170000000000000000000000000000000000000000100033382840715MARIA ALICE CONSTANCIO GOMES            RUA PALMARES, 39                        JARDIM PERNA26275310NOVA IGUACU    RJUNIAO UMB DOS CULTOS AFRO BRAS    31121710 000008
10231987175000168916200163100    00002013                     000020130000000000000109                     I012013      31121700000000035003410000017N131117050900000000000103112170000000000000000000000000000000000000000100048363340715AUREA RAMOS                             ESTRADA DO MAGARCA N 8488               CINCO MARIAS23031201PEDRA DE GUARATRJUNIAO UMB DOS CULTOS AFRO BRAS    31121710 000009
10231987175000168916200163100    00001921                     000019210000000000000109                     I011921      31121700000000035003410000017N131117050900000000000103112170000000000000000000000000000000000000000100062497073791SIDIRENE FRANCISCO MACHADO              RUA PALMEIRA DAS MISSOES 422 FUNDOS     VILA SANTA R23015220CAMPO GRANDE   RJUNIAO UMB DOS CULTOS AFRO BRAS    31121710 000010
10231987175000168916200163100    00001709                     000017090000000000000109                     I021709      05121700000000350003410000017N131117050900000000000100512170000000000000000000000000000000000000000100008226115705ANDREZA GUIMARAES FONSECA DE A          RUA PROFESSOR SPARTACO BANAL N 190      ITAMARATI - 25710021PETROPOLIS     RJUNIAO UMB DOS CULTOS AFRO BRAS    05121710 000011
9                                                                                                                                                                                                                                                                                                                                                                                                         000012
