01REMESSA01COBRANCA       817800093673        União Umb dos Cultos Afro Bra341BANCO ITAU SA  240119                                                                                                                                                                                                                                                                                                      000001
10231987175000168817800093673    000039250                    000392500000000000000109                     I0239250     30031900000000040003410000017N261218104700000000000103003190000000000000000000000000000000000000000100004474665775REGINALDO RAMOS DA SILVA                RUA JULIO DE CASTILHOS                  JARDIM ROTSE25270210DUQUE DE CAXIASRJUNIAO UMB DOS CULTOS AFRO BRAS    30031910 000002
10231987175000168817800093673    000038537                    000385370000000000000109                     I0238537     30031900000000040003410000017N261218104700000000000103003190000000000000000000000000000000000000000100070727201700MARIA LUIZA AGENOR BERTHOR              RUA: MARIA DO CARMO                     EDEN        25530450NILOPOLIS      RJUNIAO UMB DOS CULTOS AFRO BRAS    30031910 000003
10231987175000168817800093673    000037821                    000378210000000000000109                     I0237821     30031900000000040003410000017N261218104700000000000103003190000000000000000000000000000000000000000100091488362734MATHIAS FERNANDES LAPOENTE              RUA JOAQUIM AUGUSTO                     PACIENCIA   23585811RIO DE JANEIRO RJUNIAO UMB DOS CULTOS AFRO BRAS    30031910 000004
10231987175000168817800093673    000037754                    000377540000000000000109                     I0237754     30031900000000040003410000017N261218104700000000000103003190000000000000000000000000000000000000000100007830594775EMERSON MODESTO SIQUEIRA                RUA MESQUITA                            REALENGO    21721210RIO DE JANEIRO RJUNIAO UMB DOS CULTOS AFRO BRAS    30031910 000005
10231987175000168817800093673    000037617                    000376170000000000000109                     I0237617     30031900000000040003410000017N261218104700000000000103003190000000000000000000000000000000000000000100000950707708MAURO DOS SANTOS MARTINS                RUA ALTOLANDIA                          SANTA MARGAR23066400RIO DE JANEIRO RJUNIAO UMB DOS CULTOS AFRO BRAS    30031910 000006
10231987175000168817800093673    000037495                    000374950000000000000109                     I0237495     30031900000000040003410000017N261218104700000000000103003190000000000000000000000000000000000000000100066108950749HILDA ALBUQUERQUE DA SILVA              RUA ALTOLANDIA                          SANTA MARGAR23066400RIO DE JANEIRO RJUNIAO UMB DOS CULTOS AFRO BRAS    30031910 000007
10231987175000168817800093673    000037331                    000373310000000000000109                     I0237331     28021900000000040003410000017N261218104700000000000102802190000000000000000000000000000000000000000100004474665775REGINALDO RAMOS DA SILVA                RUA JULIO DE CASTILHOS                  JARDIM ROTSE25270210DUQUE DE CAXIASRJUNIAO UMB DOS CULTOS AFRO BRAS    28021910 000008
10231987175000168817800093673    000036620                    000366200000000000000109                     I0236620     28021900000000040003410000017N261218104700000000000102802190000000000000000000000000000000000000000100070727201700MARIA LUIZA AGENOR BERTHOR              RUA: MARIA DO CARMO                     EDEN        25530450NILOPOLIS      RJUNIAO UMB DOS CULTOS AFRO BRAS    28021910 000009
10231987175000168817800093673    000035907                    000359070000000000000109                     I0235907     28021900000000040003410000017N261218104700000000000102802190000000000000000000000000000000000000000100091488362734MATHIAS FERNANDES LAPOENTE              RUA JOAQUIM AUGUSTO                     PACIENCIA   23585811RIO DE JANEIRO RJUNIAO UMB DOS CULTOS AFRO BRAS    28021910 000010
10231987175000168817800093673    000035840                    000358400000000000000109                     I0235840     28021900000000040003410000017N261218104700000000000102802190000000000000000000000000000000000000000100007830594775EMERSON MODESTO SIQUEIRA                RUA MESQUITA                            REALENGO    21721210RIO DE JANEIRO RJUNIAO UMB DOS CULTOS AFRO BRAS    28021910 000011
10231987175000168817800093673    000035704                    000357040000000000000109                     I0235704     28021900000000040003410000017N261218104700000000000102802190000000000000000000000000000000000000000100000950707708MAURO DOS SANTOS MARTINS                RUA ALTOLANDIA                          SANTA MARGAR23066400RIO DE JANEIRO RJUNIAO UMB DOS CULTOS AFRO BRAS    28021910 000012
10231987175000168817800093673    000035583                    000355830000000000000109                     I0235583     28021900000000040003410000017N261218104700000000000102802190000000000000000000000000000000000000000100066108950749HILDA ALBUQUERQUE DA SILVA              RUA ALTOLANDIA                          SANTA MARGAR23066400RIO DE JANEIRO RJUNIAO UMB DOS CULTOS AFRO BRAS    28021910 000013
10231987175000168817800093673    000035518                    000355180000000000000109                     I0235518     31011900000000040003410000017N261218104700000000000103101190000000000000000000000000000000000000000100000564154784RENATA FERNANDES DA COSTA MEIR          RUA QUINTAO                             QUINTINO BOC21381050RIO DE JANEIRO RJUNIAO UMB DOS CULTOS AFRO BRAS    31011910 000014
10231987175000168817800093673    000035418                    000354180000000000000109                     I0235418     31011900000000040003410000017N261218104700000000000103101190000000000000000000000000000000000000000100004474665775REGINALDO RAMOS DA SILVA                RUA JULIO DE CASTILHOS                  JARDIM ROTSE25270210DUQUE DE CAXIASRJUNIAO UMB DOS CULTOS AFRO BRAS    31011910 000015
10231987175000168817800093673    000035067                    000350670000000000000109                     I0235067     31011900000000040003410000017N261218104700000000000103101190000000000000000000000000000000000000000100096051523715MARIA DE LOURDES PEREIRA                RUA MAX MANOEL MOLTER                   QUARTEIRAO B25680211PETROPOLIS     RJUNIAO UMB DOS CULTOS AFRO BRAS    31011910 000016
10231987175000168817800093673    000034710                    000347100000000000000109                     I0234710     31011900000000040003410000017N261218104700000000000103101190000000000000000000000000000000000000000100070727201700MARIA LUIZA AGENOR BERTHOR              RUA: MARIA DO CARMO                     EDEN        25530450NILOPOLIS      RJUNIAO UMB DOS CULTOS AFRO BRAS    31011910 000017
10231987175000168817800093673    000034458                    000344580000000000000109                     I0234458     31011900000000040003410000017N261218104700000000000103101190000000000000000000000000000000000000000100039182010749HUGO EDSON RODRIGUES DOS SANTO          RUA QUINTILIANO DA FONSECA              COLUBANDE   24451250SAO GONCALO    RJUNIAO UMB DOS CULTOS AFRO BRAS    31011910 000018
10231987175000168817800093673    000034003                    000340030000000000000109                     I0234003     31011900000000040003410000017N261218104700000000000103101190000000000000000000000000000000000000000100091488362734MATHIAS FERNANDES LAPOENTE              RUA JOAQUIM AUGUSTO                     PACIENCIA   23585811RIO DE JANEIRO RJUNIAO UMB DOS CULTOS AFRO BRAS    31011910 000019
10231987175000168817800093673    000033937                    000339370000000000000109                     I0233937     31011900000000040003410000017N261218104700000000000103101190000000000000000000000000000000000000000100007830594775EMERSON MODESTO SIQUEIRA                RUA MESQUITA                            REALENGO    21721210RIO DE JANEIRO RJUNIAO UMB DOS CULTOS AFRO BRAS    31011910 000020
10231987175000168817800093673    000033802                    000338020000000000000109                     I0233802     31011900000000040003410000017N261218104700000000000103101190000000000000000000000000000000000000000100000950707708MAURO DOS SANTOS MARTINS                RUA ALTOLANDIA                          SANTA MARGAR23066400RIO DE JANEIRO RJUNIAO UMB DOS CULTOS AFRO BRAS    31011910 000021
10231987175000168817800093673    000033683                    000336830000000000000109                     I0233683     31011900000000040003410000017N261218104700000000000103101190000000000000000000000000000000000000000100066108950749HILDA ALBUQUERQUE DA SILVA              RUA ALTOLANDIA                          SANTA MARGAR23066400RIO DE JANEIRO RJUNIAO UMB DOS CULTOS AFRO BRAS    31011910 000022
10231987175000168817800093673    000033450                    000334500000000000000109                     I0233450     20121800000000400003410000017N211118104700000000000102012180000000000000000000000000000000000000000100000564154784RENATA FERNANDES DA COSTA MEIR          RUA QUINTAO                             QUINTINO BOC21381050RIO DE JANEIRO RJUNIAO UMB DOS CULTOS AFRO BRAS    20121810 000023
10231987175000168817800093673    000032668                    000326680000000000000109                     I0232668     20121800000000350003410000017N291018104700000000000102012180000000000000000000000000000000000000000100096051523715MARIA DE LOURDES PEREIRA                RUA MAX MANOEL MOLTER                   QUARTEIRAO B25680211PETROPOLIS     RJUNIAO UMB DOS CULTOS AFRO BRAS    20121810 000024
10231987175000168817800093673    000032119                    000321190000000000000109                     I0232119     20121800000000350003410000017N291018104700000000000102012180000000000000000000000000000000000000000100035041056749SONIA DUTRA DA CRUZ                     RUA PAULO VIANA                         ROCHA MIRAND21540460RIO DE JANEIRO RJUNIAO UMB DOS CULTOS AFRO BRAS    20121810 000025
10231987175000168817800093673    000031766                    000317660000000000000109                     I0231766     20121800000000350003410000017N291018104700000000000102012180000000000000000000000000000000000000000100039182010749HUGO EDSON RODRIGUES DOS SANTO          RUA QUINTILIANO DA FONSECA              COLUBANDE   24451250SAO GONCALO    RJUNIAO UMB DOS CULTOS AFRO BRAS    20121810 000026
10231987175000168817800093673    000030917                    000309170000000000000109                     I0230917     20121800000000380003410000017N291018104700000000000102012180000000000000000000000000000000000000000100007830594775EMERSON MODESTO SIQUEIRA                RUA MESQUITA                            REALENGO    21721210RIO DE JANEIRO RJUNIAO UMB DOS CULTOS AFRO BRAS    20121810 000027
10231987175000168817800093673    000030693                    000306930000000000000109                     I0230693     20121800000000350003410000017N291018104700000000000102012180000000000000000000000000000000000000000100000950707708MAURO DOS SANTOS MARTINS                RUA ALTOLANDIA                          SANTA MARGAR23066400RIO DE JANEIRO RJUNIAO UMB DOS CULTOS AFRO BRAS    20121810 000028
10231987175000168817800093673    000030474                    000304740000000000000109                     I0230474     20121800000000350003410000017N291018104700000000000102012180000000000000000000000000000000000000000100066108950749HILDA ALBUQUERQUE DA SILVA              RUA ALTOLANDIA                          SANTA MARGAR23066400RIO DE JANEIRO RJUNIAO UMB DOS CULTOS AFRO BRAS    20121810 000029
10231987175000168817800093673    000030038                    000300380000000000000109                     I0230038     20121800000000035003410000017N291018104700000000000102012180000000000000000000000000000000000000000100009074890792ADRIANA CONCEICAO GRIGOLETO             RUA CAROLINA AMADO                      IRAJA       21361320RIO DE JANEIRO RJUNIAO UMB DOS CULTOS AFRO BRAS    20121810 000030
10231987175000168817800093673    000029987                    000299870000000000000109                     I0229987     20121800000000035003410000017N291018104700000000000102012180000000000000000000000000000000000000000100096051523715MARIA DE LOURDES PEREIRA                RUA MAX MANOEL MOLTER                   QUARTEIRAO B25680211PETROPOLIS     RJUNIAO UMB DOS CULTOS AFRO BRAS    20121810 000031
10231987175000168817800093673    000029559                    000295590000000000000109                     I0229559     20121800000000035003410000017N291018104700000000000102012180000000000000000000000000000000000000000100039182010749HUGO EDSON RODRIGUES DOS SANTO          RUA QUINTILIANO DA FONSECA              COLUBANDE   24451250SAO GONCALO    RJUNIAO UMB DOS CULTOS AFRO BRAS    20121810 000032
10231987175000168817800093673    000029208                    000292080000000000000109                     I0229208     20121800000000040003410000017N291018104700000000000102012180000000000000000000000000000000000000000100007830594775EMERSON MODESTO SIQUEIRA                RUA MESQUITA                            REALENGO    21721210RIO DE JANEIRO RJUNIAO UMB DOS CULTOS AFRO BRAS    20121810 000033
10231987175000168817800093673    000028082                    000280820000000000000109                     I0228082     30111800000000035003410000017N200818104700000000000103011180000000000000000000000000000000000000000100096051523715MARIA DE LOURDES PEREIRA                RUA MAX MANOEL MOLTER                   QUARTEIRAO B25680211PETROPOLIS     RJUNIAO UMB DOS CULTOS AFRO BRAS    30111810 000034
10231987175000168817800093673    000027635                    000276350000000000000109                     I0227635     30111800000000035003410000017N200818104700000000000103011180000000000000000000000000000000000000000100039182010749HUGO EDSON RODRIGUES DOS SANTO          RUA QUINTILIANO DA FONSECA              COLUBANDE   24451250SAO GONCALO    RJUNIAO UMB DOS CULTOS AFRO BRAS    30111810 000035
10231987175000168817800093673    000027274                    000272740000000000000109                     I0227274     30111800000000040003410000017N200818104700000000000103011180000000000000000000000000000000000000000100007830594775EMERSON MODESTO SIQUEIRA                RUA MESQUITA                            REALENGO    21721210RIO DE JANEIRO RJUNIAO UMB DOS CULTOS AFRO BRAS    30111810 000036
9                                                                                                                                                                                                                                                                                                                                                                                                         000037
