01REMESSA01COBRANCA       817800093673        União Umb dos Cultos Afro Bra341BANCO ITAU SA  250118                                                                                                                                                                                                                                                                                                      000001
10231987175000168817800093673    00008388                     000083880000000000000109                     I028388      28021800000000035003410000017N291217104700000000000102802180000000000000000000000000000000000000000100062547429772JABES DE PAIVA PONTES                   RUA HURON, 69                           ANCHIETA - R21645290RIO DE JANEIRO RJUNIAO UMB DOS CULTOS AFRO BRAS    28021810 000002
10231987175000168817800093673    00008253                     000082530000000000000109                     I028253      28021800000000035003410000017N291217104700000000000102802180000000000000000000000000000000000000000100073494682704MARILENE VIEIRA DE CARVALHO             RUA CRISTIANO MACHADO, 282              JARDIM AMERI21240470RIO DE JANEIRO RJUNIAO UMB DOS CULTOS AFRO BRAS    28021810 000003
10231987175000168817800093673    00008226                     000082260000000000000109                     I028226      28021800000000035003410000017N291217104700000000000102802180000000000000000000000000000000000000000100000939178729ANA LUCIA LIMA DA SILVA                 RUA ESTADOS UNIDOS LT 20 E 21 QD 276    JD PARQUE ES26064300RIO DE JANEIRO RJUNIAO UMB DOS CULTOS AFRO BRAS    28021810 000004
10231987175000168817800093673    00008143                     000081430000000000000109                     I028143      28021800000000035003410000017N291217104700000000000102802180000000000000000000000000000000000000000100001609402731LUCIANO RANGEL                          ESTRADA DOUTOR FARRULA, 52              HELIOPOLIS -26125400BELFORD ROXO   RJUNIAO UMB DOS CULTOS AFRO BRAS    28021810 000005
10231987175000168817800093673    00007867                     000078670000000000000109                     I027867      28021800000000035003410000017N291217104700000000000102802180000000000000000000000000000000000000000100002880527732ARANI BARRETO DE SANTANA FONSE          RUA JABIRI N 303                        MARECHAL HER21615300RIO DE JANEIRO RJUNIAO UMB DOS CULTOS AFRO BRAS    28021810 000006
10231987175000168817800093673    00007246                     000072460000000000000109                     I027246      28021800000000035003410000017N271217104700000000000102802180000000000000000000000000000000000000000100090618254749NELY MOREIRA GOMES                      RUA GOMES CARNEIRO SN LOTE 12 QUADRA 60 SARACURUNA -25211050DUQUE DE CAXIASRJUNIAO UMB DOS CULTOS AFRO BRAS    28021810 000007
10231987175000168817800093673    00007141                     000071410000000000000109                     I027141      28021800000000035003410000017N271217104700000000000102802180000000000000000000000000000000000000000100062988050791REGINA LUCIA DE SOUZA SANTOS T          RUA ENGENHEIRO LAFAYETE STOCKLER N 742  VILA DA PENH21221390RIO DE JANEIRO RJUNIAO UMB DOS CULTOS AFRO BRAS    28021810 000008
10231987175000168817800093673    00006579                     000065790000000000000109                     I026579      28021800000000035003410000017N271217104700000000000102802180000000000000000000000000000000000000000100037551868704NAKAYRA DA MOTTA LOBO                   RUA DOUTOR ARTUR MARTINS, 182           MUTUA - SAO 24460350SAO GONCALO    RJUNIAO UMB DOS CULTOS AFRO BRAS    28021810 000009
10231987175000168817800093673    00005996                     000059960000000000000109                     I025996      31011800000000035003410000017N261217104700000000000103101180000000000000000000000000000000000000000100090618254749NELY MOREIRA GOMES                      RUA GOMES CARNEIRO SN LOTE 12 QUADRA 60 SARACURUNA -25211050DUQUE DE CAXIASRJUNIAO UMB DOS CULTOS AFRO BRAS    31011810 000010
10231987175000168817800093673    00005891                     000058910000000000000109                     I025891      31011800000000035003410000017N261217104700000000000103101180000000000000000000000000000000000000000100062988050791REGINA LUCIA DE SOUZA SANTOS T          RUA ENGENHEIRO LAFAYETE STOCKLER N 742  VILA DA PENH21221390RIO DE JANEIRO RJUNIAO UMB DOS CULTOS AFRO BRAS    31011810 000011
10231987175000168817800093673    00005388                     000053880000000000000109                     I025388      31011800000000035003410000017N261217104700000000000103101180000000000000000000000000000000000000000100093154011749ANDERSON GOMES BEZERRA                  RUA DONA ROMANA, 309                    ENGENHO NOVO20710200RIO DE JANEIRO RJUNIAO UMB DOS CULTOS AFRO BRAS    31011810 000012
10231987175000168817800093673    00005354                     000053540000000000000109                     I025354      31011800000000035003410000017N261217104700000000000103101180000000000000000000000000000000000000000100071567747784MARIA DO CARMO MARIANO DOS SAN          RUA PERI, SN LOTE 36                    EDEN - SAO J25535162SAO JOAO DE MERRJUNIAO UMB DOS CULTOS AFRO BRAS    31011810 000013
10231987175000168817800093673    00005329                     000053290000000000000109                     I025329      31011800000000035003410000017N261217104700000000000103101180000000000000000000000000000000000000000100037551868704NAKAYRA DA MOTTA LOBO                   RUA DOUTOR ARTUR MARTINS, 182           MUTUA - SAO 24460350SAO GONCALO    RJUNIAO UMB DOS CULTOS AFRO BRAS    31011810 000014
10231987175000168817800093673    00001485                     000014850000000000000109                     I021485      31011800000000270003410000017N251017104700000000000103101180000000000000000000000000000000000000000100084954868734TELMA AUGUSTO DA SILVA MAIA             RUA H N 130                             BELA VISTA -26155525BELFORD ROXO   RJUNIAO UMB DOS CULTOS AFRO BRAS    31011810 000015
10231987175000168817800093673    0000390                      000003900000000000000109                     I02390       20121700000000340003410000017N101017104700000000000102012170000000000000000000000000000000000000000100073494682704MARILENE VIEIRA DE CARVALHO             RUA CRISTIANO MACHADO, 282              JARDIM AMERI21240470RIO DE JANEIRO RJUNIAO UMB DOS CULTOS AFRO BRAS    20121710 000016
10231987175000168817800093673    0000126                      000001260000000000000109                     I02126       20121700000000400003410000017N101017104700000000000102012170000000000000000000000000000000000000000100028872878772JOSE TITO DOS SANTOS                    RUA: DA CARIDADE                        DUQUE DE CAX25275010DUQUE DE CAXIASRJUNIAO UMB DOS CULTOS AFRO BRAS    20121710 000017
10231987175000168817800093673    000081                       000000810000000000000109                     I3481        20121700000000340003410000017N101017104700000000000102012170000000000000000000000000000000000000000100002880527732ARANI BARRETO DE SANTANA FONSE          RUA JABIRI N 303                        MARECHAL HER21615300RIO DE JANEIRO RJUNIAO UMB DOS CULTOS AFRO BRAS    20121710 000018
9                                                                                                                                                                                                                                                                                                                                                                                                         000019
