01REMESSA01COBRANCA       916200163100        União Umb dos Cultos Afro Bra341BANCO ITAU SA  090419                                                                                                                                                                                                                                                                                                      000001
10231987175000168916200163100    000045028                    000450280000000000000109                     I0145028     20041900000000040003410000017N090419104700000000000102004190000000000000000000000000000000000000000100052086879768IZABEL CRISTINA PINHEIRO DOS S          RUA LIRIO DO VALEN 26,                  CAMPO GRANDE23090070RIO DE JANEIRO RJUNIAO UMB DOS CULTOS AFRO BRAS    20041910 000002
10231987175000168916200163100    000045027                    000450270000000000000109                     I0145027     30061900000000040003410000017N080419104700000000000103006190000000000000000000000000000000000000000100072012102700MARIA APARECIDA FELIZARDO POVO          RUA: GALVAO BUENO N 51,                 BENTO RIBEIR21331430RIO DE JANEIRO RJUNIAO UMB DOS CULTOS AFRO BRAS    30061910 000003
10231987175000168916200163100    000045026                    000450260000000000000109                     I0145026     30051900000000040003410000017N080419104700000000000103005190000000000000000000000000000000000000000100072012102700MARIA APARECIDA FELIZARDO POVO          RUA: GALVAO BUENO N 51,                 BENTO RIBEIR21331430RIO DE JANEIRO RJUNIAO UMB DOS CULTOS AFRO BRAS    30051910 000004
10231987175000168916200163100    000045025                    000450250000000000000109                     I0145025     12041900000000120003410000017N080419104700000000000101204190000000000000000000000000000000000000000100074624792734MARILZA COSTA FERREIRA                  RUA INHANDUIN 128,                      BENFICA     20930120RIO DE JANEIRO RJUNIAO UMB DOS CULTOS AFRO BRAS    12041910 000005
10231987175000168916200163100    000045024                    000450240000000000000109                     I0145024     12041900000000120003410000017N080419104700000000000101204190000000000000000000000000000000000000000100074624792734MARILZA COSTA FERREIRA                  RUA INHANDUIN 128,                      BENFICA     20930120RIO DE JANEIRO RJUNIAO UMB DOS CULTOS AFRO BRAS    12041910 000006
10231987175000168916200163100    000045019                    000450190000000000000109                     I0145019     30061900000000040003410000017N080419104700000000000103006190000000000000000000000000000000000000000100065751400763JOSE MARIA MOREIRA FORTUNATO            RUA JOSE MARIA FERREIRAN 68,            COIMBRA     27115180BARRA DO PIRAI RJUNIAO UMB DOS CULTOS AFRO BRAS    30061910 000007
10231987175000168916200163100    000045018                    000450180000000000000109                     I0145018     30051900000000040003410000017N080419104700000000000103005190000000000000000000000000000000000000000100065751400763JOSE MARIA MOREIRA FORTUNATO            RUA JOSE MARIA FERREIRAN 68,            COIMBRA     27115180BARRA DO PIRAI RJUNIAO UMB DOS CULTOS AFRO BRAS    30051910 000008
10231987175000168916200163100    000044930                    000449300000000000000109                     I0244930     10041900000000120003410000017N290319104700000000000101004190000000000000000000000000000000000000000100087969998704ROBERTO LUIZ MEDEIROS                   RUA OLIMPION 0, LOTE 35 QUADRA 29       HELIOPOLIS  26125215BELFORD ROXO   RJUNIAO UMB DOS CULTOS AFRO BRAS    10041910 000009
10231987175000168916200163100    000044899                    000448990000000000000109                     I0244899     05041900000000400003410000017N260319104700000000000100504190000000000000000000000000000000000000000100008560350764EMANUELE DE FARIA CARVALHO DOS          RUA FLORESTA DO SULN 33,                GUARATIBA   23028512RIO DE JANEIRO RJUNIAO UMB DOS CULTOS AFRO BRAS    05041910 000010
10231987175000168916200163100    000044447                    000444470000000000000109                     I0244447     30061900000000040003410000017N130319104700000000000103006190000000000000000000000000000000000000000100067321364704MARGARETH SOARES PECHIR                 RUA PRACINHA CESARIO AGUIAR N 256,      PITANGUEIRAS21930230RIO DE JANEIRO RJUNIAO UMB DOS CULTOS AFRO BRAS    30061910 000011
10231987175000168916200163100    000044177                    000441770000000000000109                     I0244177     30061900000000040003410000017N130319104700000000000103006190000000000000000000000000000000000000000100008560350764EMANUELE DE FARIA CARVALHO DOS          RUA FLORESTA DO SULN 33,                GUARATIBA   23028512RIO DE JANEIRO RJUNIAO UMB DOS CULTOS AFRO BRAS    30061910 000012
10231987175000168916200163100    000044048                    000440480000000000000109                     I0244048     30061900000000040003410000017N130319104700000000000103006190000000000000000000000000000000000000000100073608351787ANTONIO CARLOS MARTINS DA SILV          RUA AREALN 165,                         SEPETIBA    23535730RIO DE JANEIRO RJUNIAO UMB DOS CULTOS AFRO BRAS    30061910 000013
10231987175000168916200163100    000043497                    000434970000000000000109                     I0243497     30061900000000040003410000017N130319104700000000000103006190000000000000000000000000000000000000000100003666096700MARIA DOS SANTOS MACHADO                RUA JOAO RAIMUNDON 0,  QUADRA 3 LOTE 13 VILA SANTO A25041400DUQUE DE CAXIASRJUNIAO UMB DOS CULTOS AFRO BRAS    30061910 000014
10231987175000168916200163100    000042797                    000427970000000000000109                     I0242797     30051900000000040003410000017N130319104700000000000103005190000000000000000000000000000000000000000100067321364704MARGARETH SOARES PECHIR                 RUA PRACINHA CESARIO AGUIAR N 256,      PITANGUEIRAS21930230RIO DE JANEIRO RJUNIAO UMB DOS CULTOS AFRO BRAS    30051910 000015
10231987175000168916200163100    000042531                    000425310000000000000109                     I0242531     30051900000000040003410000017N130319104700000000000103005190000000000000000000000000000000000000000100008560350764EMANUELE DE FARIA CARVALHO DOS          RUA FLORESTA DO SULN 33,                GUARATIBA   23028512RIO DE JANEIRO RJUNIAO UMB DOS CULTOS AFRO BRAS    30051910 000016
10231987175000168916200163100    000042402                    000424020000000000000109                     I0242402     30051900000000040003410000017N130319104700000000000103005190000000000000000000000000000000000000000100073608351787ANTONIO CARLOS MARTINS DA SILV          RUA AREALN 165,                         SEPETIBA    23535730RIO DE JANEIRO RJUNIAO UMB DOS CULTOS AFRO BRAS    30051910 000017
10231987175000168916200163100    000041853                    000418530000000000000109                     I0241853     30051900000000040003410000017N130319104700000000000103005190000000000000000000000000000000000000000100003666096700MARIA DOS SANTOS MACHADO                RUA JOAO RAIMUNDON 0,  QUADRA 3 LOTE 13 VILA SANTO A25041400DUQUE DE CAXIASRJUNIAO UMB DOS CULTOS AFRO BRAS    30051910 000018
10231987175000168916200163100    000041158                    000411580000000000000109                     I0241158     30041900000000040003410000017N120319104700000000000103004190000000000000000000000000000000000000000100067321364704MARGARETH SOARES PECHIR                 RUA PRACINHA CESARIO AGUIAR N 256,      PITANGUEIRAS21930230RIO DE JANEIRO RJUNIAO UMB DOS CULTOS AFRO BRAS    30041910 000019
10231987175000168916200163100    000040894                    000408940000000000000109                     I0240894     30041900000000040003410000017N120319104700000000000103004190000000000000000000000000000000000000000100008560350764EMANUELE DE FARIA CARVALHO DOS          RUA FLORESTA DO SULN 33,                GUARATIBA   23028512RIO DE JANEIRO RJUNIAO UMB DOS CULTOS AFRO BRAS    30041910 000020
10231987175000168916200163100    000040813                    000408130000000000000109                     I0240813     30041900000000040003410000017N120319104700000000000103004190000000000000000000000000000000000000000100099715554768ZARELDA DE SOUZA ESTEVAO                RUA: VALDOMIRO RAIMUNDO N 460,          COIMBRA     27115270BARRA DO PIRAI RJUNIAO UMB DOS CULTOS AFRO BRAS    30041910 000021
10231987175000168916200163100    000040765                    000407650000000000000109                     I0240765     30041900000000040003410000017N120319104700000000000103004190000000000000000000000000000000000000000100073608351787ANTONIO CARLOS MARTINS DA SILV          RUA AREALN 165,                         SEPETIBA    23535730RIO DE JANEIRO RJUNIAO UMB DOS CULTOS AFRO BRAS    30041910 000022
10231987175000168916200163100    000040220                    000402200000000000000109                     I0240220     30041900000000040003410000017N120319104700000000000103004190000000000000000000000000000000000000000100003666096700MARIA DOS SANTOS MACHADO                RUA JOAO RAIMUNDON 0,  QUADRA 3 LOTE 13 VILA SANTO A25041400DUQUE DE CAXIASRJUNIAO UMB DOS CULTOS AFRO BRAS    30041910 000023
10231987175000168916200163100    000040193                    000401930000000000000109                     I0240193     30041900000000040003410000017N120319104700000000000103004190000000000000000000000000000000000000000100008763637707JUSSARA SILVA DE ALBUQUERQUE            RUA ARGOS N 281, FUNDOS                 GUADALUPE   21660050RIO DE JANEIRO RJUNIAO UMB DOS CULTOS AFRO BRAS    30041910 000024
10231987175000168916200163100    000040103                    000401030000000000000109                     I0240103     30041900000000040003410000017N120319104700000000000103004190000000000000000000000000000000000000000100065213696791SILVIA ELIZABETE RODRIGUES              RUA JOAO BITTENCOURTN 286,              EDSON PASSOS26240510MESQUITA       RJUNIAO UMB DOS CULTOS AFRO BRAS    30041910 000025
10231987175000168916200163100    000039912                    000399120000000000000109                     I0239912     30041900000000040003410000017N120319104700000000000103004190000000000000000000000000000000000000000100000000000000MANOELLA MARIA DA CONCEICAO             RUA PIRES DO RION 928,                  EDEN        25540510SAO JOAO DE MERRJUNIAO UMB DOS CULTOS AFRO BRAS    30041910 000026
9                                                                                                                                                                                                                                                                                                                                                                                                         000027
