01REMESSA01COBRANCA       916200163100        União Umb dos Cultos Afro Bra341BANCO ITAU SA  180219                                                                                                                                                                                                                                                                                                      000001
10231987175000168916200163100    000039802                    000398020000000000000109                     I0139802     28021900000000006003410000017N180219104700000000000102802190000000000000000000000000000000000000000231987175000168CENTRO DE UNIAO UBANDISTA               RUA MARIA PAULINA BIVARN 372, CASA      HONORIO GURG21511300RIO DE JANEIRO RJUNIAO UMB DOS CULTOS AFRO BRAS    28021910 000002
10231987175000168916200163100    000039801                    000398010000000000000109                     I0139801     28021900000000000003410000017N170219104700000000000102802190000000000000000000000000000000000000000231987175000168CENTRO DE UNIAO UBANDISTA               RUA MARIA PAULINA BIVARN 372, CASA      HONORIO GURG21511300RIO DE JANEIRO RJUNIAO UMB DOS CULTOS AFRO BRAS    28021910 000003
9                                                                                                                                                                                                                                                                                                                                                                                                         000004
