01REMESSA01COBRANCA       916200163100        União Umb dos Cultos Afro Bra341BANCO ITAU SA  230818                                                                                                                                                                                                                                                                                                      000001
10231987175000168916200163100    000020823                    000208230000000000000109                     I0220823     30081800000000040003410000017N090518104700000000000103008180000000000000000000000000000000000000000100073243728720MARCOS AURELIO REIS DE CASTRO           RUA DAS ROSAS                           VILA VALQUEI21321382RIO DE JANEIRO RJUNIAO UMB DOS CULTOS AFRO BRAS    30081810 000002
10231987175000168916200163100    000019166                    000191660000000000000109                     I0219166     15081800000000070003410000017N070518104700000000000101508180000000000000000000000000000000000000000100006915594736CINTIA FERREIRA                         RUA VALDEMAR GALDINO                    JARDIM BELO 22631004RIO DE JANEIRO RJUNIAO UMB DOS CULTOS AFRO BRAS    15081810 000003
9                                                                                                                                                                                                                                                                                                                                                                                                         000004
