01REMESSA01COBRANCA       916200163100        União Umb dos Cultos Afro Bra341BANCO ITAU SA  090419                                                                                                                                                                                                                                                                                                      000001
10231987175000168916200163100    000045029                    000450290000000000000109                     I0145029     22041900000000080003410000017N090419104700000000000102204190000000000000000000000000000000000000000100013222358729AMANDA PAULA TORRES DE SOUZA            RUA JOAO VICENTEN 261,                  MADUREIRA   21340020RIO DE JANEIRO RJUNIAO UMB DOS CULTOS AFRO BRAS    22041910 000002
9                                                                                                                                                                                                                                                                                                                                                                                                         000003
