01REMESSA01COBRANCA       817800093673        União Umb dos Cultos Afro Bra341BANCO ITAU SA  260619                                                                                                                                                                                                                                                                                                      000001
10231987175000168817800093673    000049794                    000497940000000000000109                     I0149794     15071900000000700003410000017N250619105700000000002311507190000000000000000000000000000000000000000100014202644786LUIS FERNANDO MOTA DE SOUZA             RUA RIO GRANDE DO NORTEN 133,           DUMAS       23550690RIO DE JANEIRO RJUNIAO UMB DOS CULTOS AFRO BRAS    15071915 000002
21150720190000000001400                                                                                                                                                                                                                                                                                                                                                                                   000003
10231987175000168817800093673    000049641                    000496410000000000000109                     I0249641     30091900000000040003410000017N100619105700000000000133009190000000000000000000000000000000000000000100069221545768SERGIO MURILO ALVES DA SILVA            RUA MINHON 296, CASA 1                  DOS FERREIRA26185660BELFORD ROXO   RJUNIAO UMB DOS CULTOS AFRO BRAS    30091915 000004
21300920190000000000080                                                                                                                                                                                                                                                                                                                                                                                   000005
10231987175000168817800093673    000049077                    000490770000000000000109                     I0249077     30091900000000040003410000017N100619105700000000000133009190000000000000000000000000000000000000000100069485135734ROBERTO GONCALVES DO NASCIMENT          RUA JULIANAN 578,                       SANTO ELIAS 26562120MESQUITA       RJUNIAO UMB DOS CULTOS AFRO BRAS    30091915 000006
21300920190000000000080                                                                                                                                                                                                                                                                                                                                                                                   000007
10231987175000168817800093673    000048194                    000481940000000000000109                     I0248194     30081900000000040003410000017N100619105700000000000133008190000000000000000000000000000000000000000100069221545768SERGIO MURILO ALVES DA SILVA            RUA MINHON 296, CASA 1                  DOS FERREIRA26185660BELFORD ROXO   RJUNIAO UMB DOS CULTOS AFRO BRAS    30081915 000008
21300820190000000000080                                                                                                                                                                                                                                                                                                                                                                                   000009
10231987175000168817800093673    000047638                    000476380000000000000109                     I0247638     30081900000000040003410000017N100619105700000000000133008190000000000000000000000000000000000000000100069485135734ROBERTO GONCALVES DO NASCIMENT          RUA JULIANAN 578,                       SANTO ELIAS 26562120MESQUITA       RJUNIAO UMB DOS CULTOS AFRO BRAS    30081915 000010
21300820190000000000080                                                                                                                                                                                                                                                                                                                                                                                   000011
10231987175000168817800093673    000046759                    000467590000000000000109                     I0246759     30071900000000040003410000017N100619105700000000000133007190000000000000000000000000000000000000000100069221545768SERGIO MURILO ALVES DA SILVA            RUA MINHON 296, CASA 1                  DOS FERREIRA26185660BELFORD ROXO   RJUNIAO UMB DOS CULTOS AFRO BRAS    30071915 000012
21300720190000000000080                                                                                                                                                                                                                                                                                                                                                                                   000013
10231987175000168817800093673    000046722                    000467220000000000000109                     I3446722     30071900000000040003410000017N100619105700000000000133007190000000000000000000000000000000000000000100097163180730CLEA DE OLIVEIRA BRASIL                 RUA ARACI COSTAN 67,                    GUADALUPE   21665010RIO DE JANEIRO RJUNIAO UMB DOS CULTOS AFRO BRAS    30071915 000014
21300720190000000000080                                                                                                                                                                                                                                                                                                                                                                                   000015
10231987175000168817800093673    000046431                    000464310000000000000109                     I3446431     30071900000000040003410000017N100619105700000000000133007190000000000000000000000000000000000000000100002846505608DIONE ROSA FERNANDES                    RUA ERNESTINA N 56,                     LINS DE VASC20710000RIO DE JANEIRO RJUNIAO UMB DOS CULTOS AFRO BRAS    30071915 000016
21300720190000000000080                                                                                                                                                                                                                                                                                                                                                                                   000017
10231987175000168817800093673    000046208                    000462080000000000000109                     I0246208     30071900000000040003410000017N100619105700000000000133007190000000000000000000000000000000000000000100069485135734ROBERTO GONCALVES DO NASCIMENT          RUA JULIANAN 578,                       SANTO ELIAS 26562120MESQUITA       RJUNIAO UMB DOS CULTOS AFRO BRAS    30071915 000018
21300720190000000000080                                                                                                                                                                                                                                                                                                                                                                                   000019
10231987175000168817800093673    000045285                    000452850000000000000109                     I0245285     10061900000000120003410000017N200519105700000000000401006190000000000000000000000000000000000000000100054504430720ISBELA BARBOSA LIMA DA SILVA            RUA SOUSA BARROSN 106, A FUNDOS         ENGENHO NOVO20961150RIO DE JANEIRO RJUNIAO UMB DOS CULTOS AFRO BRAS    10061915 000020
21100620190000000000240                                                                                                                                                                                                                                                                                                                                                                                   000021
9                                                                                                                                                                                                                                                                                                                                                                                                         000022
