01REMESSA01COBRANCA       817800093673        União Umb dos Cultos Afro Bra341BANCO ITAU SA  050419                                                                                                                                                                                                                                                                                                      000001
10231987175000168817800093673    000044866                    000448660000000000000109                     I0244866     29031900000000120003410000017N210319104700000000000102903190000000000000000000000000000000000000000100001248895738JUSSARA SILVEIRA LOPES DA FONS          RUA SAQUAREMAN 1442, CASA 3             SANTO ALEIXO25914000MAGE           RJUNIAO UMB DOS CULTOS AFRO BRAS    29031910 000002
10231987175000168817800093673    000039871                    000398710000000000000109                     I0239871     30031900000000040003410000017N120319104700000000000103003190000000000000000000000000000000000000000100048516805700MARIA APARECIDA DOS SANTOS CYP          ESTRADA DO SABONETEN 0, LOTE 25 QUADRA DARSENAL     24745224SAO GONCALO    RJUNIAO UMB DOS CULTOS AFRO BRAS    30031910 000003
10231987175000168817800093673    000039857                    000398570000000000000109                     I0239857     25031900000000120003410000017N110319104700000000000102503190000000000000000000000000000000000000000100092111777749WANDERLEY DOS SANTOS MENDES             PRACA EMBOABAN 67,                      ENGENHO DA R20761160RIO DE JANEIRO RJUNIAO UMB DOS CULTOS AFRO BRAS    25031910 000004
10231987175000168817800093673    000039404                    000394040000000000000109                     I0239404     31031900000000040003410000017N271218104700000000000103103190000000000000000000000000000000000000000100066220254791ROSANGELA MARTINS DA SILVA              RUA ANTONIO VARGASN 156, CASA 27        PIEDADE     20751360RIO DE JANEIRO RJUNIAO UMB DOS CULTOS AFRO BRAS    31031910 000005
10231987175000168817800093673    000039403                    000394030000000000000109                     I0239403     28021900000000040003410000017N271218104700000000000102802190000000000000000000000000000000000000000100066220254791ROSANGELA MARTINS DA SILVA              RUA ANTONIO VARGASN 156, CASA 27        PIEDADE     20751360RIO DE JANEIRO RJUNIAO UMB DOS CULTOS AFRO BRAS    28021910 000006
10231987175000168817800093673    000039191                    000391910000000000000109                     I0239191     30031900000000040003410000017N261218104700000000000103003190000000000000000000000000000000000000000100032637128704MARLENE DA CRUZ                         AVENIDA ABILIO AUGUSTO TAVORA N 5107,   VALVERDE    26290600NOVA IGUACU    RJUNIAO UMB DOS CULTOS AFRO BRAS    30031910 000007
10231987175000168817800093673    000038657                    000386570000000000000109                     I0238657     30031900000000040003410000017N261218104700000000000103003190000000000000000000000000000000000000000100001248895738JUSSARA SILVEIRA LOPES DA FONS          RUA SAQUAREMAN 1442, CASA 3             SANTO ALEIXO25914000MAGE           RJUNIAO UMB DOS CULTOS AFRO BRAS    30031910 000008
10231987175000168817800093673    000038418                    000384180000000000000109                     I0238418     30031900000000040003410000017N261218104700000000000103003190000000000000000000000000000000000000000100059259523753NILO SERGIO SANTOS BARCELLOS            ESTRADA DO MENDANHAN 134, BLOCO 4 APTO 5IRAJA       21220310RIO DE JANEIRO RJUNIAO UMB DOS CULTOS AFRO BRAS    30031910 000009
10231987175000168817800093673    000036739                    000367390000000000000109                     I0236739     28021900000000040003410000017N261218104700000000000102802190000000000000000000000000000000000000000100001248895738JUSSARA SILVEIRA LOPES DA FONS          RUA SAQUAREMAN 1442, CASA 3             SANTO ALEIXO25914000MAGE           RJUNIAO UMB DOS CULTOS AFRO BRAS    28021910 000010
9                                                                                                                                                                                                                                                                                                                                                                                                         000011
