01REMESSA01COBRANCA       817800093673        União Umb dos Cultos Afro Bra341BANCO ITAU SA  020719                                                                                                                                                                                                                                                                                                      000001
10231987175000168817800093673    000049215                    000492150000000000000109                     I0249215     30091900000000040003410000017N100619105700000000000133009190000000000000000000000000000000000000000100049490087734DIRCE MARA DE OLIVEIRA PAULA            RUA OTILIO LIMA N 0, LOTE 2 QUADRA 130  SANTA LUZIA 24721490SAO GONCALO    RJUNIAO UMB DOS CULTOS AFRO BRAS    30091915 000002
21300920190000000000080                                                                                                                                                                                                                                                                                                                                                                                   000003
10231987175000168817800093673    000048812                    000488120000000000000109                     I0248812     30091900000000040003410000017N100619105700000000000133009190000000000000000000000000000000000000000100001876672765AGUIMAR FERREIRA PIRES                  RUA ZELIO DE MORAISN 435, PARADA 40     CAMARAO     24435080SAO GONCALO    RJUNIAO UMB DOS CULTOS AFRO BRAS    30091915 000004
21300920190000000000080                                                                                                                                                                                                                                                                                                                                                                                   000005
10231987175000168817800093673    000048626                    000486260000000000000109                     I0248626     30091900000000040003410000017N100619105700000000000133009190000000000000000000000000000000000000000100002480281701CESAR AUGUSTO DA SILVA MARCIAL          RUA JOAQUIM REGON 52, APT 313           OLARIA      21021590RIO DE JANEIRO RJUNIAO UMB DOS CULTOS AFRO BRAS    30091915 000006
21300920190000000000080                                                                                                                                                                                                                                                                                                                                                                                   000007
10231987175000168817800093673    000047773                    000477730000000000000109                     I0247773     30081900000000040003410000017N100619105700000000000133008190000000000000000000000000000000000000000100049490087734DIRCE MARA DE OLIVEIRA PAULA            RUA OTILIO LIMA N 0, LOTE 2 QUADRA 130  SANTA LUZIA 24721490SAO GONCALO    RJUNIAO UMB DOS CULTOS AFRO BRAS    30081915 000008
21300820190000000000080                                                                                                                                                                                                                                                                                                                                                                                   000009
10231987175000168817800093673    000047568                    000475680000000000000109                     I0247568     30081900000000040003410000017N100619105700000000000133008190000000000000000000000000000000000000000100073243728720MARCOS AURELIO REIS DE CASTRO           RUA DAS ROSASN 1930, LOTE 17 QUADRA K   VILA VALQUEI21321382RIO DE JANEIRO RJUNIAO UMB DOS CULTOS AFRO BRAS    30081915 000010
21300820190000000000080                                                                                                                                                                                                                                                                                                                                                                                   000011
10231987175000168817800093673    000047373                    000473730000000000000109                     I0247373     30081900000000040003410000017N100619105700000000000133008190000000000000000000000000000000000000000100001876672765AGUIMAR FERREIRA PIRES                  RUA ZELIO DE MORAISN 435, PARADA 40     CAMARAO     24435080SAO GONCALO    RJUNIAO UMB DOS CULTOS AFRO BRAS    30081915 000012
21300820190000000000080                                                                                                                                                                                                                                                                                                                                                                                   000013
10231987175000168817800093673    000047189                    000471890000000000000109                     I0247189     30081900000000040003410000017N100619105700000000000133008190000000000000000000000000000000000000000100002480281701CESAR AUGUSTO DA SILVA MARCIAL          RUA JOAQUIM REGON 52, APT 313           OLARIA      21021590RIO DE JANEIRO RJUNIAO UMB DOS CULTOS AFRO BRAS    30081915 000014
21300820190000000000080                                                                                                                                                                                                                                                                                                                                                                                   000015
10231987175000168817800093673    000046579                    000465790000000000000109                     I0246579     30071900000000040003410000017N100619105700000000000133007190000000000000000000000000000000000000000100046840117715TERESA CRISTINA DE MELLO SOARE          RUA CANUTAMAN 119,                      OSWALDO CRUZ21340440RIO DE JANEIRO RJUNIAO UMB DOS CULTOS AFRO BRAS    30071915 000016
21300720190000000000080                                                                                                                                                                                                                                                                                                                                                                                   000017
10231987175000168817800093673    000046340                    000463400000000000000109                     I0246340     30071900000000040003410000017N100619105700000000000133007190000000000000000000000000000000000000000100049490087734DIRCE MARA DE OLIVEIRA PAULA            RUA OTILIO LIMA N 0, LOTE 2 QUADRA 130  SANTA LUZIA 24721490SAO GONCALO    RJUNIAO UMB DOS CULTOS AFRO BRAS    30071915 000018
21300720190000000000080                                                                                                                                                                                                                                                                                                                                                                                   000019
10231987175000168817800093673    000046154                    000461540000000000000109                     I0246154     30071900000000040003410000017N100619105700000000000133007190000000000000000000000000000000000000000100009805565700THIAGO DOS SANTOS FLOR DA SILV          RUA JOAO LUSON 423,                     REALENGO    21765620RIO DE JANEIRO RJUNIAO UMB DOS CULTOS AFRO BRAS    30071915 000020
21300720190000000000080                                                                                                                                                                                                                                                                                                                                                                                   000021
10231987175000168817800093673    000045944                    000459440000000000000109                     I0245944     30071900000000040003410000017N100619105700000000000133007190000000000000000000000000000000000000000100001876672765AGUIMAR FERREIRA PIRES                  RUA ZELIO DE MORAISN 435, PARADA 40     CAMARAO     24435080SAO GONCALO    RJUNIAO UMB DOS CULTOS AFRO BRAS    30071915 000022
21300720190000000000080                                                                                                                                                                                                                                                                                                                                                                                   000023
10231987175000168817800093673    000045765                    000457650000000000000109                     I0245765     30071900000000040003410000017N100619105700000000000133007190000000000000000000000000000000000000000100002480281701CESAR AUGUSTO DA SILVA MARCIAL          RUA JOAQUIM REGON 52, APT 313           OLARIA      21021590RIO DE JANEIRO RJUNIAO UMB DOS CULTOS AFRO BRAS    30071915 000024
21300720190000000000080                                                                                                                                                                                                                                                                                                                                                                                   000025
10231987175000168817800093673    000045347                    000453470000000000000109                     I0245347     05071900000000700003410000017N040619105700000000002310507190000000000000000000000000000000000000000100064148726791IJOSELI RICARDO DA SILVA                TRAVESSA BEIRA MARN 4,                  PORTO DO ROS24472025SAO GONCALO    RJUNIAO UMB DOS CULTOS AFRO BRAS    05071915 000026
21050720190000000001400                                                                                                                                                                                                                                                                                                                                                                                   000027
9                                                                                                                                                                                                                                                                                                                                                                                                         000028
