01REMESSA01COBRANCA       916200163100        União Umb dos Cultos Afro Bra341BANCO ITAU SA  170719                                                                                                                                                                                                                                                                                                      000001
10231987175000168916200163100    000049932                    000499320000000000000109                     I0149932     30091900000000040003410000017N170719105700000000000133009190000000000000000000000000000000000000000100006444177812VANDERLIR FERNANDES DA SILVA            RUA ROMANCISTAN 100,                    PARQUE RECRE25924350MAGE           RJUNIAO UMB DOS CULTOS AFRO BRAS    30091915 000002
21300920190000000000080                                                                                                                                                                                                                                                                                                                                                                                   000003
10231987175000168916200163100    000049931                    000499310000000000000109                     I0149931     30081900000000040003410000017N170719105700000000000133008190000000000000000000000000000000000000000100006444177812VANDERLIR FERNANDES DA SILVA            RUA ROMANCISTAN 100,                    PARQUE RECRE25924350MAGE           RJUNIAO UMB DOS CULTOS AFRO BRAS    30081915 000004
21300820190000000000080                                                                                                                                                                                                                                                                                                                                                                                   000005
10231987175000168916200163100    000049930                    000499300000000000000109                     I0149930     30091900000000040003410000017N170719105700000000000133009190000000000000000000000000000000000000000100094953309715ESTER SOUZA SOARES                      RUA TREZEN 88,                          JARDIM ITATI27580000ITATIAIA       RJUNIAO UMB DOS CULTOS AFRO BRAS    30091915 000006
21300920190000000000080                                                                                                                                                                                                                                                                                                                                                                                   000007
10231987175000168916200163100    000049929                    000499290000000000000109                     I0149929     30081900000000040003410000017N170719105700000000000133008190000000000000000000000000000000000000000100094953309715ESTER SOUZA SOARES                      RUA TREZEN 88,                          JARDIM ITATI27580000ITATIAIA       RJUNIAO UMB DOS CULTOS AFRO BRAS    30081915 000008
21300820190000000000080                                                                                                                                                                                                                                                                                                                                                                                   000009
10231987175000168916200163100    000049928                    000499280000000000000109                     I0149928     30091900000000040003410000017N170719105700000000000133009190000000000000000000000000000000000000000100050720929768LUZIA LIMA                              RUA PALMACIAN 0, LOTE 4 QUADRA 18       CAMPO GRANDE23087420RIO DE JANEIRO RJUNIAO UMB DOS CULTOS AFRO BRAS    30091915 000010
21300920190000000000080                                                                                                                                                                                                                                                                                                                                                                                   000011
10231987175000168916200163100    000049927                    000499270000000000000109                     I0149927     30081900000000040003410000017N170719105700000000000133008190000000000000000000000000000000000000000100050720929768LUZIA LIMA                              RUA PALMACIAN 0, LOTE 4 QUADRA 18       CAMPO GRANDE23087420RIO DE JANEIRO RJUNIAO UMB DOS CULTOS AFRO BRAS    30081915 000012
21300820190000000000080                                                                                                                                                                                                                                                                                                                                                                                   000013
10231987175000168916200163100    000049926                    000499260000000000000109                     I0149926     10081900000000380003410000017N170719105700000000001251008190000000000000000000000000000000000000000100002887184709MAURO DA SILVA                          RUA MARIA HELENA COUTINHO CAPOBIANCO N 2JARDIM VALEN27600000VALENCA        RJUNIAO UMB DOS CULTOS AFRO BRAS    10081915 000014
21100820190000000000760                                                                                                                                                                                                                                                                                                                                                                                   000015
10231987175000168916200163100    000049925                    000499250000000000000109                     I0249925     10081900000000400003410000017N170719105700000000001321008190000000000000000000000000000000000000000100002887184709MAURO DA SILVA                          RUA MARIA HELENA COUTINHO CAPOBIANCO N 2JARDIM VALEN27600000VALENCA        RJUNIAO UMB DOS CULTOS AFRO BRAS    10081915 000016
21100820190000000000800                                                                                                                                                                                                                                                                                                                                                                                   000017
10231987175000168916200163100    000049924                    000499240000000000000109                     I0149924     30091900000000040003410000017N170719105700000000000133009190000000000000000000000000000000000000000100076759571720JORGELY DA SILVA RAMOS                  RUA ADALBERTO TANAJURAN 231,            ANCHIETA    21630000RIO DE JANEIRO RJUNIAO UMB DOS CULTOS AFRO BRAS    30091915 000018
21300920190000000000080                                                                                                                                                                                                                                                                                                                                                                                   000019
10231987175000168916200163100    000049923                    000499230000000000000109                     I0149923     30081900000000040003410000017N170719105700000000000133008190000000000000000000000000000000000000000100076759571720JORGELY DA SILVA RAMOS                  RUA ADALBERTO TANAJURAN 231,            ANCHIETA    21630000RIO DE JANEIRO RJUNIAO UMB DOS CULTOS AFRO BRAS    30081915 000020
21300820190000000000080                                                                                                                                                                                                                                                                                                                                                                                   000021
10231987175000168916200163100    000045277                    000452770000000000000109                     I0245277     30051900000000040003410000017N150519105700000000000133005190000000000000000000000000000000000000000100089300190725NAGE MARGARETE DE OLIVEIRA              AVENIDA SILVEIRA MARTINSN 267,          PARQUE LAFAI25015510DUQUE DE CAXIASRJUNIAO UMB DOS CULTOS AFRO BRAS    30051915 000022
21300520190000000000080                                                                                                                                                                                                                                                                                                                                                                                   000023
10231987175000168916200163100    000045276                    000452760000000000000109                     I0245276     30061900000000040003410000017N150519105700000000000133006190000000000000000000000000000000000000000100089300190725NAGE MARGARETE DE OLIVEIRA              AVENIDA SILVEIRA MARTINSN 267,          PARQUE LAFAI25015510DUQUE DE CAXIASRJUNIAO UMB DOS CULTOS AFRO BRAS    30061915 000024
21300620190000000000080                                                                                                                                                                                                                                                                                                                                                                                   000025
10231987175000168916200163100    000044529                    000445290000000000000109                     I0244529     30061900000000040003410000017N130319105700000000000133006190000000000000000000000000000000000000000100005828675761THAYS DE FATIMA FERREIRA GOMES          ESTRADA GENERAL AFONSO DE CARVALHON 989,PADRE MIGUEL21725020RIO DE JANEIRO RJUNIAO UMB DOS CULTOS AFRO BRAS    30061915 000026
21300620190000000000080                                                                                                                                                                                                                                                                                                                                                                                   000027
10231987175000168916200163100    000044499                    000444990000000000000109                     I0244499     30061900000000040003410000017N130319105700000000000133006190000000000000000000000000000000000000000100062988050791REGINA LUCIA DE SOUZA SANTOS            RUA ENGENHEIRO LAFAYETE STOCKLER N 742, VILA DA PENH21221390RIO DE JANEIRO RJUNIAO UMB DOS CULTOS AFRO BRAS    30061915 000028
21300620190000000000080                                                                                                                                                                                                                                                                                                                                                                                   000029
10231987175000168916200163100    000044015                    000440150000000000000109                     I0244015     30061900000000040003410000017N130319105700000000000133006190000000000000000000000000000000000000000100053387473753ALAN PINTO DE OLIVEIRA                  RUA FRANCISCO FRAGOSON 46, FRENTE       ENCANTADO   20745010RIO DE JANEIRO RJUNIAO UMB DOS CULTOS AFRO BRAS    30061915 000030
21300620190000000000080                                                                                                                                                                                                                                                                                                                                                                                   000031
10231987175000168916200163100    000043966                    000439660000000000000109                     I0243966     30061900000000040003410000017N130319105700000000000133006190000000000000000000000000000000000000000100002673106766JANAINA MARQUES ALVES SANTOS T          RUA DOS RUBISN 519, A SOBRADO           ROCHA MIRAND21510012RIO DE JANEIRO RJUNIAO UMB DOS CULTOS AFRO BRAS    30061915 000032
21300620190000000000080                                                                                                                                                                                                                                                                                                                                                                                   000033
10231987175000168916200163100    000043760                    000437600000000000000109                     I0243760     30061900000000040003410000017N130319105700000000000133006190000000000000000000000000000000000000000231678433000124CENTRO ESPIRITA JUSTICA E AMOR          RUA: IGUABA GRANDEN 78, BLOCO 6 APT 1206PAVUNA      21655340RIO DE JANEIRO RJUNIAO UMB DOS CULTOS AFRO BRAS    30061915 000034
21300620190000000000080                                                                                                                                                                                                                                                                                                                                                                                   000035
10231987175000168916200163100    000043702                    000437020000000000000109                     I0243702     30061900000000040003410000017N130319105700000000000133006190000000000000000000000000000000000000000100001256782742VANDA BARBOSA BASTOS                    RUA CERES N 1058,                       BANGU       21862070RIO DE JANEIRO RJUNIAO UMB DOS CULTOS AFRO BRAS    30061915 000036
21300620190000000000080                                                                                                                                                                                                                                                                                                                                                                                   000037
10231987175000168916200163100    000042877                    000428770000000000000109                     I0242877     30051900000000040003410000017N130319105700000000000133005190000000000000000000000000000000000000000100005828675761THAYS DE FATIMA FERREIRA GOMES          ESTRADA GENERAL AFONSO DE CARVALHON 989,PADRE MIGUEL21725020RIO DE JANEIRO RJUNIAO UMB DOS CULTOS AFRO BRAS    30051915 000038
21300520190000000000080                                                                                                                                                                                                                                                                                                                                                                                   000039
10231987175000168916200163100    000042849                    000428490000000000000109                     I0242849     30051900000000040003410000017N130319105700000000000133005190000000000000000000000000000000000000000100062988050791REGINA LUCIA DE SOUZA SANTOS            RUA ENGENHEIRO LAFAYETE STOCKLER N 742, VILA DA PENH21221390RIO DE JANEIRO RJUNIAO UMB DOS CULTOS AFRO BRAS    30051915 000040
21300520190000000000080                                                                                                                                                                                                                                                                                                                                                                                   000041
10231987175000168916200163100    000042369                    000423690000000000000109                     I0242369     30051900000000040003410000017N130319105700000000000133005190000000000000000000000000000000000000000100053387473753ALAN PINTO DE OLIVEIRA                  RUA FRANCISCO FRAGOSON 46, FRENTE       ENCANTADO   20745010RIO DE JANEIRO RJUNIAO UMB DOS CULTOS AFRO BRAS    30051915 000042
21300520190000000000080                                                                                                                                                                                                                                                                                                                                                                                   000043
10231987175000168916200163100    000042320                    000423200000000000000109                     I0242320     30051900000000040003410000017N130319105700000000000133005190000000000000000000000000000000000000000100002673106766JANAINA MARQUES ALVES SANTOS T          RUA DOS RUBISN 519, A SOBRADO           ROCHA MIRAND21510012RIO DE JANEIRO RJUNIAO UMB DOS CULTOS AFRO BRAS    30051915 000044
21300520190000000000080                                                                                                                                                                                                                                                                                                                                                                                   000045
10231987175000168916200163100    000042058                    000420580000000000000109                     I0242058     30051900000000040003410000017N130319105700000000000133005190000000000000000000000000000000000000000100001256782742VANDA BARBOSA BASTOS                    RUA CERES N 1058,                       BANGU       21862070RIO DE JANEIRO RJUNIAO UMB DOS CULTOS AFRO BRAS    30051915 000046
21300520190000000000080                                                                                                                                                                                                                                                                                                                                                                                   000047
9                                                                                                                                                                                                                                                                                                                                                                                                         000048
