01REMESSA01COBRANCA       817800093673        União Umb dos Cultos Afro Bra341BANCO ITAU SA  020418                                                                                                                                                                                                                                                                                                      000001
10231987175000168817800093673    00001421                     000014210000000000000109                     I021421      20121700000000400003410000017N251017104700000000000102012170000000000000000000000000000000000000000100056381832720DAVI LEMOS MOREIRA                      RUA CARLINDA                            VILA DE CAVA26052120NOVA IGUACU    RJUNIAO UMB DOS CULTOS AFRO BRAS    20121710 000002
10231987175000168817800093673    00001384                     000013840000000000000109                     I021384      20121700000000340003410000017N241017104700000000000102012170000000000000000000000000000000000000000200000000008453DIRCE CERQUEIRA FERREIRA                RUA SANTA CRUZ LOTE 41 QUADRA T         SARACURUNA -25212110DUQUE DE CAXIASRJUNIAO UMB DOS CULTOS AFRO BRAS    20121710 000003
10231987175000168817800093673    00001365                     000013650000000000000109                     I021365      20121700000000340003410000017N241017104700000000000102012170000000000000000000000000000000000000000100004501217715JOSE DIOMEDES DO PATROCINIO NE          RUA DOUTOR LAUREANO N 250 - VILA SAO LUIVILA SAO LUI25060220DUQUE DE CAXIASRJUNIAO UMB DOS CULTOS AFRO BRAS    20121710 000004
10231987175000168817800093673    00001349                     000013490000000000000109                     I021349      20121700000000340003410000017N241017104700000000000102012170000000000000000000000000000000000000000200000000004033SANDRA REIS DOS SANTOS                  RUA BANGU, 197 - DOUTOR LAUREANO        DUQUE DE CAX25060180DUQUE DE CAXIASRJUNIAO UMB DOS CULTOS AFRO BRAS    20121710 000005
10231987175000168817800093673    00001345                     000013450000000000000109                     I021345      20121700000000300003410000017N241017104700000000000102012170000000000000000000000000000000000000000100099158965734VALDEMIR CARDOSO DIAS                   RUA: LACONIA QUADRA 9 LOTE 10           JD AMAPA - B26182230BELFORD ROXO   RJUNIAO UMB DOS CULTOS AFRO BRAS    20121710 000006
10231987175000168817800093673    00001279                     000012790000000000000109                     I021279      20121700000000340003410000017N241017104700000000000102012170000000000000000000000000000000000000000100073871729787RENATO GOMES SILVA                      RUA JURIPIRANGA LOTE 18 QUADRA 129      COSMOS - RIO23060020RIO DE JANEIRO RJUNIAO UMB DOS CULTOS AFRO BRAS    20121710 000007
10231987175000168817800093673    00001277                     000012770000000000000109                     I021277      20121700000000340003410000017N241017104700000000000102012170000000000000000000000000000000000000000100083441271734NAELSON MAGALHAES DE AVELLAR            RUA ONZE LOTE 1 CASA 1                  GUANDU L - S23560778SANTA CRUZ     RJUNIAO UMB DOS CULTOS AFRO BRAS    20121710 000008
10231987175000168817800093673    00001276                     000012760000000000000109                     I021276      20121700000000340003410000017N241017104700000000000102012170000000000000000000000000000000000000000100010084300728RODRIGO ALVES DE PINHO                  RUA JOVITA FEITOSA N 131                VILA SAO JUD25243570DUQUE DE CAXIASRJUNIAO UMB DOS CULTOS AFRO BRAS    20121710 000009
10231987175000168817800093673    00001273                     000012730000000000000109                     I021273      20121700000000340003410000017N241017104700000000000102012170000000000000000000000000000000000000000100060052830730PAULO CESAR BARRETO ALVES               RUA ANGELO DOS REIS N 207 FUNDOS        USINA - ALTO20531010RIO DE JANEIRO RJUNIAO UMB DOS CULTOS AFRO BRAS    20121710 000010
10231987175000168817800093673    00001268                     000012680000000000000109                     I021268      20121700000000400003410000017N241017104700000000000102012170000000000000000000000000000000000000000200000000003441MONALISA DE ALMEIDA CARVALHO            RUA NOSSA SENHORA DA PAZ N 111          SANTA CECILI26130660BELFORD ROXO   RJUNIAO UMB DOS CULTOS AFRO BRAS    20121710 000011
10231987175000168817800093673    00001267                     000012670000000000000109                     I021267      20121700000000340003410000017N241017104700000000000102012170000000000000000000000000000000000000000100001192135750CREUZA MARIA DA CONCEICAO               RUA BENEDITO LACERDA N 320              VILA CORCUND23071340CAMPO GRANDE   RJUNIAO UMB DOS CULTOS AFRO BRAS    20121710 000012
10231987175000168817800093673    00001263                     000012630000000000000109                     I021263      20121700000000340003410000017N241017104700000000000102012170000000000000000000000000000000000000000200000000003405VERA LUCIA BARBOSA DA CUNHA             RUA PORTO RICO N 232                    VIGARIO GERA21241200RIO DE JANEIRO RJUNIAO UMB DOS CULTOS AFRO BRAS    20121710 000013
10231987175000168817800093673    00001260                     000012600000000000000109                     I021260      20121700000000340003410000017N241017104700000000000102012170000000000000000000000000000000000000000100054558093772PAULO DOS SANTOS ROSA                   RUA AZAMOR N 83                         LINS DE VASC20710120RIO DE JANEIRO RJUNIAO UMB DOS CULTOS AFRO BRAS    20121710 000014
10231987175000168817800093673    00001257                     000012570000000000000109                     I021257      20121700000000340003410000017N241017104700000000000102012170000000000000000000000000000000000000000100066053560715CELSO IZIDORO FELIX                     RUA AGAI N 1254 FUNDOS                  JARDIM PALMA23065620SANTA CRUZ     RJUNIAO UMB DOS CULTOS AFRO BRAS    20121710 000015
10231987175000168817800093673    00001253                     000012530000000000000109                     I021253      20121700000000340003410000017N241017104700000000000102012170000000000000000000000000000000000000000100043917208768HOSANA FERREIRA DE MOURA                RUA DOMINGOS FERREIRA N 125 APT 712     COPACABANA -22020011RIO DE JANEIRO RJUNIAO UMB DOS CULTOS AFRO BRAS    20121710 000016
10231987175000168817800093673    00001249                     000012490000000000000109                     I021249      20121700000000340003410000017N241017104700000000000102012170000000000000000000000000000000000000000100071741798787JAILTON DA SILVA VIEIRA                 RUA DA GAVEA N 3911                     VILA LEOPOLD25060300DUQUE DE CAXIASRJUNIAO UMB DOS CULTOS AFRO BRAS    20121710 000017
10231987175000168817800093673    00001248                     000012480000000000000109                     I021248      20121700000000340003410000017N241017104700000000000102012170000000000000000000000000000000000000000100069876207768JUREMA DIONISIO RODRIGUES               RUA CARLOS OLIMPIO DE MELLO N 59 CASA 1 PACIENCIA - 23585160RIO DE JANEIRO RJUNIAO UMB DOS CULTOS AFRO BRAS    20121710 000018
10231987175000168817800093673    00001247                     000012470000000000000109                     I021247      20121700000000340003410000017N241017104700000000000102012170000000000000000000000000000000000000000100001859792707REGIS GOMES DE OLIVEIRA                 AVENIDA DO CANAL N 54 - CONDOMINIO VALE ALBUQUERQUE 25976560TERESOPOLIS    RJUNIAO UMB DOS CULTOS AFRO BRAS    20121710 000019
10231987175000168817800093673    00001246                     000012460000000000000109                     I021246      20121700000000340003410000017N241017104700000000000102012170000000000000000000000000000000000000000100062188739787MARIO MACHADO DA CAMARA BRAZAO          RUA ALDEMAR PAIVA N 138                 BADU - PENDO24320230NITEROI        RJUNIAO UMB DOS CULTOS AFRO BRAS    20121710 000020
10231987175000168817800093673    00001245                     000012450000000000000109                     I021245      20121700000000340003410000017N241017104700000000000102012170000000000000000000000000000000000000000100012001167717JOSEILTON DA SILVA MOREIRA              RUA NACI GERVAIS LOTE 6 QUADRA 33       PARQUE ELDOR25223680DUQUE DE CAXIASRJUNIAO UMB DOS CULTOS AFRO BRAS    20121710 000021
10231987175000168817800093673    00001244                     000012440000000000000109                     I021244      20121700000000340003410000017N241017104700000000000102012170000000000000000000000000000000000000000100001037627792FRANCE BATISTA CRESPO                   RUA CAPITAO MACHADO N 604 CASA 4        PRACA SECA -20740230RIO DE JANEIRO RJUNIAO UMB DOS CULTOS AFRO BRAS    20121710 000022
10231987175000168817800093673    00001240                     000012400000000000000109                     I021240      20121700000000340003410000017N241017104700000000000102012170000000000000000000000000000000000000000100001050327780MARIA LUCIA DE FATIMA FERREIRA          RUA BUDAPESTE N 172 CASA 2 - BANCARIOS  BANCARIOS - 21911300RIO DE JANEIRO RJUNIAO UMB DOS CULTOS AFRO BRAS    20121710 000023
10231987175000168817800093673    00001239                     000012390000000000000109                     I021239      20121700000000340003410000017N241017104700000000000102012170000000000000000000000000000000000000000100004765875733BEATRIZ GOMES DEMIRSKY                  AVENIDA MERITI N 1421 APT 201           VILA DA PENH21220201RIO DE JANEIRO RJUNIAO UMB DOS CULTOS AFRO BRAS    20121710 000024
10231987175000168817800093673    00001230                     000012300000000000000109                     I021230      20121700000000340003410000017N241017104700000000000102012170000000000000000000000000000000000000000100009611659792ALUIZIO RODRIGUES RIBEIRO               RUA GARCIA PIRES N° 82 CASA 3          QUINTINO - R21331300RIO DE JANEIRO RJUNIAO UMB DOS CULTOS AFRO BRAS    20121710 000025
10231987175000168817800093673    00001226                     000012260000000000000109                     I021226      20121700000000340003410000017N241017104700000000000102012170000000000000000000000000000000000000000100060570207849ISABEL CARVALHO DA COSTA                AVENIDA DOS ITALIANOS N 1146 CASA 40    VILA CONQUIS21510101COELHO NETO    RJUNIAO UMB DOS CULTOS AFRO BRAS    20121710 000026
10231987175000168817800093673    00001222                     000012220000000000000109                     I021222      20121700000000340003410000017N241017104700000000000102012170000000000000000000000000000000000000000100094445966720NOEMIA DO NASCIMENTO ROSENDO            ESTRADA DO TINGUI N 521 FUNDOS          AMAZONAS - C23075010CAMPO GRANDE   RJUNIAO UMB DOS CULTOS AFRO BRAS    20121710 000027
10231987175000168817800093673    00001221                     000012210000000000000109                     I021221      20121700000000340003410000017N241017104700000000000102012170000000000000000000000000000000000000000100036231835715DIVINO BEZERRA PEREIRA                  RUA DO LAVRADIO Nº 178 APTº 301       CENTRO - RIO20230070RIO DE JANEIRO RJUNIAO UMB DOS CULTOS AFRO BRAS    20121710 000028
10231987175000168817800093673    00001217                     000012170000000000000109                     I021217      20121700000000340003410000017N241017104700000000000102012170000000000000000000000000000000000000000100088407721700CELSO DE OLIVEIRA ALBUQUERQUE           RUA ANHANGUERA LOTE 50 QUADRA 11        SAO BERNARDO26160660BELFORD ROXO   RJUNIAO UMB DOS CULTOS AFRO BRAS    20121710 000029
10231987175000168817800093673    00001216                     000012160000000000000109                     I021216      20121700000000340003410000017N241017104700000000000102012170000000000000000000000000000000000000000100096290986791CENTRO ESPIRITA DAMIAO (NEIL D          RUA VICENTE CELESTINO LOTE 4 QUADRA 1   COLUMBANDE -24744740SAO GONCALO    RJUNIAO UMB DOS CULTOS AFRO BRAS    20121710 000030
10231987175000168817800093673    00001215                     000012150000000000000109                     I021215      20121700000000340003410000017N241017104700000000000102012170000000000000000000000000000000000000000100001559752777CLAUDIA DA SILVA FERREIRA ANTO          RUA SAO JOAO N 89                       COSMOS - INH23060720INHOAIBA       RJUNIAO UMB DOS CULTOS AFRO BRAS    20121710 000031
10231987175000168817800093673    00001214                     000012140000000000000109                     I021214      20121700000000340003410000017N241017104700000000000102012170000000000000000000000000000000000000000100003792312762MARCIA REGINA DE SOUZA DA SILV          AVENIDA ALHAMBRA LOTE 12 QUADRA 9       BEL CRIMA - 23045805CAMPO GRANDE   RJUNIAO UMB DOS CULTOS AFRO BRAS    20121710 000032
10231987175000168817800093673    00001211                     000012110000000000000109                     I021211      20121700000000340003410000017N241017104700000000000102012170000000000000000000000000000000000000000100058486496772CELIA DOMINGOS DA SILVA                 RUA JANETE N 461                        BANCO DE ARE26275020MESQUITA       RJUNIAO UMB DOS CULTOS AFRO BRAS    20121710 000033
10231987175000168817800093673    00001207                     000012070000000000000109                     I021207      20121700000000340003410000017N241017104700000000000102012170000000000000000000000000000000000000000100082940983704JURACIARA DA CONCEICAO                  RUA ASSIS VASCONCELOS N 385             PILARES - RI20755010RIO DE JANEIRO RJUNIAO UMB DOS CULTOS AFRO BRAS    20121710 000034
10231987175000168817800093673    00001206                     000012060000000000000109                     I021206      20121700000000340003410000017N241017104700000000000102012170000000000000000000000000000000000000000100066391482772VERA LUCIA BARBOSA FERREIRA (D          RUA JOAO VICENTE N 1695 SOBRADO         MARECHAL HER21610210RIO DE JANEIRO RJUNIAO UMB DOS CULTOS AFRO BRAS    20121710 000035
10231987175000168817800093673    00001198                     000011980000000000000109                     I021198      20121700000000340003410000017N241017104700000000000102012170000000000000000000000000000000000000000100001122766793ERICA VALERIA VIDAL DOS SANTOS          RUA ARMISTICIO LOTE 6 QUADRA 19         SENADOR CAMA21831390RIO DE JANEIRO RJUNIAO UMB DOS CULTOS AFRO BRAS    20121710 000036
10231987175000168817800093673    00001190                     000011900000000000000109                     I021190      20121700000000340003410000017N241017104700000000000102012170000000000000000000000000000000000000000100000888045778JOSIAS MARANHAO DA SILVA                RUA TRIMONTE  45                        JARDIM PRIMA25223820DUQUE DE CAXIASRJUNIAO UMB DOS CULTOS AFRO BRAS    20121710 000037
10231987175000168817800093673    00001187                     000011870000000000000109                     I021187      20121700000000340003410000017N241017104700000000000102012170000000000000000000000000000000000000000100079539165768EULALIA DOS SANTOS                      RUA SENADOR MAYNARD GOMES LOTE 17 E 18  BANGU - RIO 21830090RIO DE JANEIRO RJUNIAO UMB DOS CULTOS AFRO BRAS    20121710 000038
10231987175000168817800093673    00001186                     000011860000000000000109                     I021186      20121700000000340003410000017N241017104700000000000102012170000000000000000000000000000000000000000100006944630788MARCOS AURELIO DO NASCIMENTO B          RUA PEDRO HERNESTO N 158 CASA 2         ENGENHEIRO P25015290DUQUE DE CAXIASRJUNIAO UMB DOS CULTOS AFRO BRAS    20121710 000039
10231987175000168817800093673    00001185                     000011850000000000000109                     I021185      20121700000000340003410000017N241017104700000000000102012170000000000000000000000000000000000000000100063133598791PAULO CESAR SILVA                       RUA CAPITAO MACHADO N 575               PRACA SECA -21320030RIO DE JANEIRO RJUNIAO UMB DOS CULTOS AFRO BRAS    20121710 000040
10231987175000168817800093673    00001184                     000011840000000000000109                     I021184      20121700000000340003410000017N241017104700000000000102012170000000000000000000000000000000000000000100075643081768ELISABETE MOREIRA FREIRE DA SI          RUA ARACA N 1245                        RICARDO DE A21620050RIO DE JANEIRO RJUNIAO UMB DOS CULTOS AFRO BRAS    20121710 000041
10231987175000168817800093673    00001182                     000011820000000000000109                     I021182      20121700000000340003410000017N241017104700000000000102012170000000000000000000000000000000000000000100000249224712ILMA SILVA DE ARAUJO                    AVENIDA ENGENHEIRO PIRES REBELO N 1949  BANGU - RIO 21825390RIO DE JANEIRO RJUNIAO UMB DOS CULTOS AFRO BRAS    20121710 000042
10231987175000168817800093673    00001181                     000011810000000000000109                     I021181      20121700000000340003410000017N241017104700000000000102012170000000000000000000000000000000000000000200000000002643RONILDES RODRIGUES NASCIMENTO           RUA TOPAZIOS N 62 CASA 2                NOVA ALIANCA21842340RIO DE JANEIRO RJUNIAO UMB DOS CULTOS AFRO BRAS    20121710 000043
10231987175000168817800093673    00001168                     000011680000000000000109                     I021168      20121700000000340003410000017N241017104700000000000102012170000000000000000000000000000000000000000200000000002504ANA LUCIA FRANCISCO BORGES              RUA DO ACAFRAO, 157 APTO 101            PADRE MIGUEL21870330RIO DE JANEIRO RJUNIAO UMB DOS CULTOS AFRO BRAS    20121710 000044
10231987175000168817800093673    00001166                     000011660000000000000109                     I021166      20121700000000340003410000017N241017104700000000000102012170000000000000000000000000000000000000000200000000001892INDELECIO DOS SANTOS                    RUA CAPITAO ABDALA CHAMA, 341 CASA 23   BENFICA - RI20911250RIO DE JANEIRO RJUNIAO UMB DOS CULTOS AFRO BRAS    20121710 000045
10231987175000168817800093673    00001165                     000011650000000000000109                     I021165      20121700000000340003410000017N241017104700000000000102012170000000000000000000000000000000000000000200000000002497SOLANGE MENDES DA SILVA                 RUA AFONSO CELSO DONELA, 351 - JARDIM NOREALENGO - R21745630RIO DE JANEIRO RJUNIAO UMB DOS CULTOS AFRO BRAS    20121710 000046
10231987175000168817800093673    00001158                     000011580000000000000109                     I021158      20121700000000350003410000017N241017104700000000000102012170000000000000000000000000000000000000000200000000002367ROSANGELA SPINDOLA BENTO                RUA ANTONIO MAURA,  25                  PARQUE AMORI26185150BELFORD ROXO   RJUNIAO UMB DOS CULTOS AFRO BRAS    20121710 000047
10231987175000168817800093673    00001098                     000010980000000000000109                     I021098      20121700000000340003410000017N241017104700000000000102012170000000000000000000000000000000000000000100004275143710NILZA DA COSTA ETELVINO                 RUA SETE, 80 - CONJUNTO CAMPINHO        CAMPO GRANDE23067130RIO DE JANEIRO RJUNIAO UMB DOS CULTOS AFRO BRAS    20121710 000048
10231987175000168817800093673    00001090                     000010900000000000000109                     I021090      20121700000000300003410000017N241017104700000000000102012170000000000000000000000000000000000000000100089316266734ROSILDA PEIXOTO DA SILVA                RUA NUNO, 388                           JARDIM CANAA26263260NOVA IGUACU    RJUNIAO UMB DOS CULTOS AFRO BRAS    20121710 000049
10231987175000168817800093673    00001089                     000010890000000000000109                     I021089      20121700000000340003410000017N241017104700000000000102012170000000000000000000000000000000000000000200000000006836HELOIZA HELENA COSTA LIMA               RUA DOUTOR ALCINDO RAFAEL, 148 - MORRO AITAMARATI - 26262060NOVA IGUACU    RJUNIAO UMB DOS CULTOS AFRO BRAS    20121710 000050
10231987175000168817800093673    00001021                     000010210000000000000109                     I021021      20121700000000340003410000017N241017104700000000000102012170000000000000000000000000000000000000000100001080847790BENTO FRANCISCO DE LIMA NETO            RUA PITANGAS, 36 A - TIJUQUINHA         BARRA DA TIJ22713330RIO DE JANEIRO RJUNIAO UMB DOS CULTOS AFRO BRAS    20121710 000051
10231987175000168817800093673    00001017                     000010170000000000000109                     I021017      20121700000000300003410000017N241017104700000000000102012170000000000000000000000000000000000000000200000000006031ENI CAMPOS LEITE                        AVENIDA FORTALEZA, 130                  RETIRO - VOL27250250VOLTA REDONDA  RJUNIAO UMB DOS CULTOS AFRO BRAS    20121710 000052
10231987175000168817800093673    00001010                     000010100000000000000109                     I021010      20121700000000340003410000017N241017104700000000000102012170000000000000000000000000000000000000000200000000005873JOSE AUGUSTO COELHO DE MENEZES          ESTRADA DA BOIUNA, 2450 - JARDIM BOIUNA TAQUARA - JA22741970RIO DE JANEIRO RJUNIAO UMB DOS CULTOS AFRO BRAS    20121710 000053
10231987175000168817800093673    00001008                     000010080000000000000109                     I021008      20121700000000340003410000017N241017104700000000000102012170000000000000000000000000000000000000000200000000005089JORGE LUIS DAS NEVES OLIVEIRA           RUA FRANCISCO DE ALMEIDA LOTE 23 QUADRA SAO FRANCISC26350050NOVA IGUACU    RJUNIAO UMB DOS CULTOS AFRO BRAS    20121710 000054
10231987175000168817800093673    00001007                     000010070000000000000109                     I021007      20121700000000400003410000017N241017104700000000000102012170000000000000000000000000000000000000000200000000001162VERA NOGUEIRA FARNEZE                   RUA: JOSE POLICARPO DA SILVEIRA Nº 9 - JACAREPAGUA 22733170RIO DE JANEIRO RJUNIAO UMB DOS CULTOS AFRO BRAS    20121710 000055
10231987175000168817800093673    00001006                     000010060000000000000109                     I021006      20121700000000340003410000017N241017104700000000000102012170000000000000000000000000000000000000000200000000001155REINALDO GONCALVES DA ROCHA             RUA FATIMA, 13 C                        JACAREPAGUA 22713570RIO DE JANEIRO RJUNIAO UMB DOS CULTOS AFRO BRAS    20121710 000056
10231987175000168817800093673    0000983                      000009830000000000000109                     I02983       20121700000000400003410000017N171017104700000000000102012170000000000000000000000000000000000000000100007336257704NERALDO DA ROCHA JUNIOR                 RUA CARAMURU LOTE 36 QUADRA 4           PARADA ANGEL25271320DUQUE DE CAXIASRJUNIAO UMB DOS CULTOS AFRO BRAS    20121710 000057
10231987175000168817800093673    0000982                      000009820000000000000109                     I02982       20121700000000340003410000017N171017104700000000000102012170000000000000000000000000000000000000000100062547429772JABES DE PAIVA PONTES                   RUA HURON, 69                           ANCHIETA - R21645290RIO DE JANEIRO RJUNIAO UMB DOS CULTOS AFRO BRAS    20121710 000058
10231987175000168817800093673    0000980                      000009800000000000000109                     I02980       20121700000000340003410000017N171017104700000000000102012170000000000000000000000000000000000000000100091473209749CRISTOVAO JOSE DA SILVA MAGALH          RUA VICTORIO PEREIRA NUNES, 57          CASTELANEA -25640262PETROPOLIS     RJUNIAO UMB DOS CULTOS AFRO BRAS    20121710 000059
10231987175000168817800093673    0000972                      000009720000000000000109                     I02972       20121700000000340003410000017N171017104700000000000102012170000000000000000000000000000000000000000100090036018791SILVIA ELAINE GEVEGIR DA SILVA          RUA VINTE, QUADRA 305 LOTE 34           PARADA MORAB25265130DUQUE DE CAXIASRJUNIAO UMB DOS CULTOS AFRO BRAS    20121710 000060
10231987175000168817800093673    0000971                      000009710000000000000109                     I02971       20121700000000300003410000017N171017104700000000000102012170000000000000000000000000000000000000000100014653084742THEILOR MORAIS DE MIRANDA               RUA SAO BENEDITO, 25                    VILA GENI - 23826010ITAGUAI        RJUNIAO UMB DOS CULTOS AFRO BRAS    20121710 000061
10231987175000168817800093673    0000964                      000009640000000000000109                     I02964       20121700000000250003410000017N171017104700000000000102012170000000000000000000000000000000000000000100053606259769ROSILANE FRANCISCA DOS SANTOS           RUA ARTUR FARIAS N 252                  RIO DO DOURO25922184MAGE           RJUNIAO UMB DOS CULTOS AFRO BRAS    20121710 000062
10231987175000168817800093673    0000960                      000009600000000000000109                     I02960       20121700000000400003410000017N171017104700000000000102012170000000000000000000000000000000000000000100012097291724CAROLINA B. DE C. CAVALCANTI            AVENIDA DOM HELDER CAMARA N 9111 BLOCO 1QUINTINO BOC21380008RIO DE JANEIRO RJUNIAO UMB DOS CULTOS AFRO BRAS    20121710 000063
10231987175000168817800093673    0000957                      000009570000000000000109                     I02957       20121700000000340003410000017N171017104700000000000102012170000000000000000000000000000000000000000100014880089737DANIELA FERREIRA CONSENTINO             RUA OLGA CORDEIRO DE ALMEIDA N 69 CASA 1BANGU -  RIO21863180RIO DE JANEIRO RJUNIAO UMB DOS CULTOS AFRO BRAS    20121710 000064
10231987175000168817800093673    0000955                      000009550000000000000109                     I02955       20121700000000340003410000017N171017104700000000000102012170000000000000000000000000000000000000000100003248678755CRISTIANO DA SILVA CORREIA              RUA QUATRO N 51                         SANTA AMELIA26115733BELFORD ROXO   RJUNIAO UMB DOS CULTOS AFRO BRAS    20121710 000065
10231987175000168817800093673    0000953                      000009530000000000000109                     I02953       20121700000000340003410000017N171017104700000000000102012170000000000000000000000000000000000000000100093743920700RITA DE CASSIA COSTA SENNA              RUA COMANDANTE ARY PARREIRAS N 181      CENTRO - SAO25515080SAO JOAO DE MERRJUNIAO UMB DOS CULTOS AFRO BRAS    20121710 000066
10231987175000168817800093673    0000951                      000009510000000000000109                     I02951       20121700000000340003410000017N171017104700000000000102012170000000000000000000000000000000000000000100084407883715MAURO FERREIRA MATHEUS                  ESTRADA DO ENGENHO, RUA CASTOR DE ANDRADPRACA PIQUER21370200BANGU          RJUNIAO UMB DOS CULTOS AFRO BRAS    20121710 000067
10231987175000168817800093673    0000950                      000009500000000000000109                     I02950       20121700000000340003410000017N171017104700000000000102012170000000000000000000000000000000000000000100000446671754JUSSARA MATHIAS TEIXEIRA                RUA VEREADOR OSVALDO MARCONDES N 106    JOSE BONIFAC25515380SAO JOAO DE MERRJUNIAO UMB DOS CULTOS AFRO BRAS    20121710 000068
10231987175000168817800093673    0000949                      000009490000000000000109                     I02949       20121700000000340003410000017N171017104700000000000102012170000000000000000000000000000000000000000100003430627710PATRICIA DA SILVA VASCONCELOS           RUA TAPUTERA N 140 FUNDOS               BARAO DE IRI25906780MAGE           RJUNIAO UMB DOS CULTOS AFRO BRAS    20121710 000069
10231987175000168817800093673    0000948                      000009480000000000000109                     I02948       20121700000000340003410000017N171017104700000000000102012170000000000000000000000000000000000000000100008091112769ALINE BEATRIZ GARCIA DA SILVA           RUA ENGENHEIRO HENRIQUE LUSSACK N 936   CENTRO - MES26553500MESQUITA       RJUNIAO UMB DOS CULTOS AFRO BRAS    20121710 000070
10231987175000168817800093673    0000946                      000009460000000000000109                     I02946       20121700000000340003410000017N171017104700000000000102012170000000000000000000000000000000000000000100012861043784DIEGO DE OLIVEIRA DIAS                  RODOVIA AMARAL PEIXOTO, KM 34 - VENDA DACOLONIA - IT24805900ITABORAI       RJUNIAO UMB DOS CULTOS AFRO BRAS    20121710 000071
10231987175000168817800093673    0000945                      000009450000000000000109                     I02945       20121700000000340003410000017N171017104700000000000102012170000000000000000000000000000000000000000100015675954724ALDREN LUCAS GOMES FERREIRA             RUA CARIOCA N 18                        PAU GRANDE -25900000MAGE           RJUNIAO UMB DOS CULTOS AFRO BRAS    20121710 000072
10231987175000168817800093673    0000939                      000009390000000000000109                     I02939       20121700000000360003410000017N171017104700000000000102012170000000000000000000000000000000000000000100002139519752CARLA MARIA DE BRITO DOS SANTO          RUA QUINZE  275 CASA 4                  PARQUE SANTA25271750DUQUE DE CAXIASRJUNIAO UMB DOS CULTOS AFRO BRAS    20121710 000073
10231987175000168817800093673    0000937                      000009370000000000000109                     I02937       20121700000000350003410000017N171017104700000000000102012170000000000000000000000000000000000000000100005953253605MILTON COELHO DO NASCIMENTO JU          RUA BEZERRA DE MENEZES N 73 APT 102     VAZ LOBO - R21361000RIO DE JANEIRO RJUNIAO UMB DOS CULTOS AFRO BRAS    20121710 000074
10231987175000168817800093673    0000913                      000009130000000000000109                     I02913       20121700000000340003410000017N171017104700000000000102012170000000000000000000000000000000000000000100000461330796TANIA MARIA PEREIRA                     RUA MAPENDI, 366 BLOCO 2 APTO 505       TAQUARA - JA22710255RIO DE JANEIRO RJUNIAO UMB DOS CULTOS AFRO BRAS    20121710 000075
10231987175000168817800093673    0000906                      000009060000000000000109                     I02906       14021800000000350003410000017N171017104700000000000101402180000000000000000000000000000000000000000100011376749700ROGERIO CORREIA DA COSTA JUNIO          RUA SANTA CATARINA, 18 JD MARIANA       IMBARIE - DU25271010DUQUE DE CAXIASRJUNIAO UMB DOS CULTOS AFRO BRAS    14021810 000076
10231987175000168817800093673    0000884                      000008840000000000000109                     I02884       20121700000000340003410000017N171017104700000000000102012170000000000000000000000000000000000000000100002771098768FRANCISCO AREAS                         RUA CARMINDA, 969                       COELHO DA RO25550135SAO JOAO DE MERRJUNIAO UMB DOS CULTOS AFRO BRAS    20121710 000077
10231987175000168817800093673    0000869                      000008690000000000000109                     I02869       30011800000000350003410000017N171017104700000000000103001180000000000000000000000000000000000000000100050262319772NELCY MARIA DE MATTOS                   RUA FILADELFIA, LOTE 15 QUADRA 1        MONJOLO - SA24722660SAO GONCALO    RJUNIAO UMB DOS CULTOS AFRO BRAS    30011810 000078
10231987175000168817800093673    0000867                      000008670000000000000109                     I02867       20121700000000340003410000017N171017104700000000000102012170000000000000000000000000000000000000000100000000009804VANIA FARIA DE VILHENA TORRES           ESTRADA DA COVANCA, 312 FUNDOS          TANQUE - JAC22735020RIO DE JANEIRO RJUNIAO UMB DOS CULTOS AFRO BRAS    20121710 000079
10231987175000168817800093673    0000734                      000007340000000000000109                     I02734       20121700000000400003410000017N171017104700000000000102012170000000000000000000000000000000000000000100002856188737SIMONE DE MATTOS MARTINS MENDO          RUA VAN ERVEM N 121                     CATUMBI - RI20211320RIO DE JANEIRO RJUNIAO UMB DOS CULTOS AFRO BRAS    20121710 000080
10231987175000168817800093673    0000731                      000007310000000000000109                     I02731       20121700000000400003410000017N171017104700000000000102012170000000000000000000000000000000000000000100058924477749MARIA DAS GRACAS AZEVEDO RIBEI          RUA VICENTE LIMA                        TEL 2662.73625560240SAO JOAO DE MERRJUNIAO UMB DOS CULTOS AFRO BRAS    20121710 000081
10231987175000168817800093673    0000730                      000007300000000000000109                     I02730       20121700000000400003410000017N171017104700000000000102012170000000000000000000000000000000000000000100018338577715MARILDA ALVES DE ALMEIDA                RUA BORBOREMA  37                       MADUREIRA   21360150RIO DE JANEIRO RJUNIAO UMB DOS CULTOS AFRO BRAS    20121710 000082
10231987175000168817800093673    0000728                      000007280000000000000109                     I02728       20121700000000340003410000017N171017104700000000000102012170000000000000000000000000000000000000000100077547691749NEUSA MORAES DOS SANTOS                 RUA DEZOITO, 30                         JARDIM DA PA25930000MAGE           RJUNIAO UMB DOS CULTOS AFRO BRAS    20121710 000083
10231987175000168817800093673    0000727                      000007270000000000000109                     I02727       20121700000000340003410000017N171017104700000000000102012170000000000000000000000000000000000000000100048137880763PEDRO SILVA DO NASCIMENTO               ESTRADA DO TAQUARAL, 100 QUADRA 3 BLOCO BANGU - RIO 21842550RIO DE JANEIRO RJUNIAO UMB DOS CULTOS AFRO BRAS    20121710 000084
10231987175000168817800093673    0000726                      000007260000000000000109                     I02726       20121700000000400003410000017N171017104700000000000102012170000000000000000000000000000000000000000100006926893705MARIA PINHEIRO DA SILVA FONSEC          RUA BOSTON LOTE 20 QUADRA F             JARDIM NOVA 25571300SAO JOAO DE MERRJUNIAO UMB DOS CULTOS AFRO BRAS    20121710 000085
10231987175000168817800093673    0000723                      000007230000000000000109                     I02723       20121700000000340003410000017N171017104700000000000102012170000000000000000000000000000000000000000100001834521785MARCELO TEIXEIRA ORSI                   RUA A, 15 QUADRA 93 CASA 2              PARADA MORAB25000000DUQUE DE CAXIASRJUNIAO UMB DOS CULTOS AFRO BRAS    20121710 000086
10231987175000168817800093673    0000717                      000007170000000000000109                     I02717       20121700000000340003410000017N171017104700000000000102012170000000000000000000000000000000000000000100082351376749ALDA LUCIA DA SILVA                     RUA ANTONIO MARINS DE OLIVEIRA, 479     SAO MATEUS -25530000SAO JOAO DE MERRJUNIAO UMB DOS CULTOS AFRO BRAS    20121710 000087
10231987175000168817800093673    0000713                      000007130000000000000109                     I02713       20121700000000340003410000017N171017104700000000000102012170000000000000000000000000000000000000000100003029004708ANDREA GUIMARAES MARTINS                RUA ANA CRISTINA 31 - VILA GUIMARAES    VILA GUIMARA26088175NOVA IGUACU    RJUNIAO UMB DOS CULTOS AFRO BRAS    20121710 000088
10231987175000168817800093673    0000663                      000006630000000000000109                     I02663       20121700000000340003410000017N171017104700000000000102012170000000000000000000000000000000000000000100003554994790MARIA DAS GRACAS DE JESUS FERR          RUA SANTA BARBARA, QUADRA 42 LOTE 11    DIAS LOPES -25570520SAO JOAO DE MERRJUNIAO UMB DOS CULTOS AFRO BRAS    20121710 000089
10231987175000168817800093673    0000650                      000006500000000000000109                     I02650       20121700000000340003410000017N171017104700000000000102012170000000000000000000000000000000000000000100081959222791MARIA DA GLORIA DE OLIVEIRA RO          RUA VICENTE CARDOSO, 72                 GRADIM - SAO24431400SAO GONCALO    RJUNIAO UMB DOS CULTOS AFRO BRAS    20121710 000090
10231987175000168817800093673    0000649                      000006490000000000000109                     I02649       20121700000000340003410000017N171017104700000000000102012170000000000000000000000000000000000000000100007163195788SIMONE MARIA DE OLIVEIRA BERTO          TRAVESSA JUREMA, 105                    SAO BENEDITO26022510NOVA IGUACU    RJUNIAO UMB DOS CULTOS AFRO BRAS    20121710 000091
10231987175000168817800093673    0000485                      000004850000000000000109                     I02485       20121700000000340003410000017N101017104700000000000102012170000000000000000000000000000000000000000100093546602749JANE FERNANDES DAS CHAGAS HENR          ESTRADA DO PRE, 54 FUNDOS               SENADOR VASC23013550RIO DE JANEIRO RJUNIAO UMB DOS CULTOS AFRO BRAS    20121710 000092
10231987175000168817800093673    0000484                      000004840000000000000109                     I02484       20121700000000340003410000017N101017104700000000000102012170000000000000000000000000000000000000000100043385184720CELINA MONTEIRO DE OLIVEIRA             TRAVESSA ANTONIO GONCALVES, 18          CUBANGO - NI24240396NITEROI        RJUNIAO UMB DOS CULTOS AFRO BRAS    20121710 000093
10231987175000168817800093673    0000481                      000004810000000000000109                     I02481       20121700000000340003410000017N101017104700000000000102012170000000000000000000000000000000000000000100066320577720RICARDO DE CASSIO TEIXEIRA DIA          RUA PORTO SEGURO,  LOTE 7 QUADRA 99     DOUTOR LAURE25051080DUQUE DE CAXIASRJUNIAO UMB DOS CULTOS AFRO BRAS    20121710 000094
10231987175000168817800093673    0000480                      000004800000000000000109                     I02480       20121700000000340003410000017N101017104700000000000102012170000000000000000000000000000000000000000100002533273775GLAUCE MAGALHAES JARDELINO              RUA JABORANDI, 171 FUNDOS               VILA COSMO -21220220RIO DE JANEIRO RJUNIAO UMB DOS CULTOS AFRO BRAS    20121710 000095
10231987175000168817800093673    0000479                      000004790000000000000109                     I02479       20121700000000340003410000017N101017104700000000000102012170000000000000000000000000000000000000000100000292323760MAURICIO MANTELLI                       AVENIDA GETULIO VARGAS 2589             CENTRO - NIL26525012NILOPOLIS      RJUNIAO UMB DOS CULTOS AFRO BRAS    20121710 000096
9                                                                                                                                                                                                                                                                                                                                                                                                         000097
