01REMESSA01COBRANCA       817800093673        União Umb dos Cultos Afro Bra341BANCO ITAU SA  191218                                                                                                                                                                                                                                                                                                      000001
10231987175000168817800093673    000033611                    000336110000000000000109                     I0133611     20011900000000350003410000017N181218104700000000000102001190000000000000000000000000000000000000000100002046332733CLAUDIONIRA DA SILVA CORREIA            RUA LUIZ CAMERANO                       BELVEDERE DA27113260BARRA DO PIRAI RJUNIAO UMB DOS CULTOS AFRO BRAS    20011910 000002
10231987175000168817800093673    000033512                    000335120000000000000109                     I0233512     20121800000000400003410000017N031218104700000000000102012180000000000000000000000000000000000000000100032853890791LUIZ CARLOS COELHO DE SA                RUA JHONN STRAUSS                       MARECHAL HER21610120RIO DE JANEIRO RJUNIAO UMB DOS CULTOS AFRO BRAS    20121810 000003
10231987175000168817800093673    000033365                    000333650000000000000109                     I3433365     20121800000000380003410000017N051118104700000000000102012180000000000000000000000000000000000000000100001436096707LEILA DE OLIVEIRA DUTTON DA SI          RUA PARANA                              PIEDADE     20745250RIO DE JANEIRO RJUNIAO UMB DOS CULTOS AFRO BRAS    20121810 000004
10231987175000168817800093673    000033199                    000331990000000000000109                     I0233199     20121800000000350003410000017N291018104700000000000102012180000000000000000000000000000000000000000100000893865745MONICA DE PONTES                        TRAVESSA OLINDA SANTOS                  TURIACU     21540340RIO DE JANEIRO RJUNIAO UMB DOS CULTOS AFRO BRAS    20121810 000005
10231987175000168817800093673    000033126                    000331260000000000000109                     I0233126     20121800000000350003410000017N291018104700000000000102012180000000000000000000000000000000000000000100001649750714CRISTIANE JOSE DA SILVA                 AVENIDA CALOMBE                         PARQUE ELDOR25231020DUQUE DE CAXIASRJUNIAO UMB DOS CULTOS AFRO BRAS    20121810 000006
10231987175000168817800093673    000032827                    000328270000000000000109                     I0232827     20121800000000350003410000017N291018104700000000000102012180000000000000000000000000000000000000000100071653015772VALERIA RANGEL BEZERRA                  RUA JUPARANA                            PARADA ANGEL00000000RIO DE JANEIRO RJUNIAO UMB DOS CULTOS AFRO BRAS    20121810 000007
10231987175000168817800093673    000032611                    000326110000000000000109                     I0232611     20121800000000350003410000017N291018104700000000000102012180000000000000000000000000000000000000000100091323762787MARIA ISABEL DE ALBUQUERQUE PI          RUA JUIZ JOSE PELINE                    VALVERDE    26290639NOVA IGUACU    RJUNIAO UMB DOS CULTOS AFRO BRAS    20121810 000008
10231987175000168817800093673    000032336                    000323360000000000000109                     I0232336     20121800000000350003410000017N291018104700000000000102012180000000000000000000000000000000000000000100064561968768EUCLIDALINA MARIA DOS SANTOS V          RUA CAPANEMA                            PARADA MORAB25265080DUQUE DE CAXIASRJUNIAO UMB DOS CULTOS AFRO BRAS    20121810 000009
10231987175000168817800093673    000032240                    000322400000000000000109                     I0232240     20121800000000350003410000017N291018104700000000000102012180000000000000000000000000000000000000000100008267557717MARCIA REGINA FELIPE DE SOUZA           ESTRADA DO MENDANHA                     MENDANHA - C23087283RIO DE JANEIRO RJUNIAO UMB DOS CULTOS AFRO BRAS    20121810 000010
10231987175000168817800093673    000032232                    000322320000000000000109                     I0232232     20121800000000350003410000017N291018104700000000000102012180000000000000000000000000000000000000000100055381898720EULICIA DA SILVA SANTOS                 RUA RIO PRETO                           GRAMACHO    25035390DUQUE DE CAXIASRJUNIAO UMB DOS CULTOS AFRO BRAS    20121810 000011
10231987175000168817800093673    000032227                    000322270000000000000109                     I0232227     20121800000000350003410000017N291018104700000000000102012180000000000000000000000000000000000000000100073494682704MARILENE VIEIRA DE CARVALHO             RUA CRISTIANO MACHADO                   JARDIM AMERI21240470RIO DE JANEIRO RJUNIAO UMB DOS CULTOS AFRO BRAS    20121810 000012
10231987175000168817800093673    000032172                    000321720000000000000109                     I0232172     20121800000000350003410000017N291018104700000000000102012180000000000000000000000000000000000000000100001231947764ELENICE BRAGA SANTA ANA                 RUA UARUMA                              HIGIENOPOLIS21050660RIO DE JANEIRO RJUNIAO UMB DOS CULTOS AFRO BRAS    20121810 000013
10231987175000168817800093673    000032165                    000321650000000000000109                     I0232165     20121800000000350003410000017N291018104700000000000102012180000000000000000000000000000000000000000100004770414773CARLOS ALBERTO TORRES NOGUEIRA          ESTRADA DO LAMEIRAO                     SANTISSIMO  23092031RIO DE JANEIRO RJUNIAO UMB DOS CULTOS AFRO BRAS    20121810 000014
10231987175000168817800093673    000032078                    000320780000000000000109                     I0232078     20121800000000350003410000017N291018104700000000000102012180000000000000000000000000000000000000000100059023198700CARLOS ALBERTO PEREIRA FERNAND          ESTRADA DO AMAPA                        AMAPA       25235475DUQUE DE CAXIASRJUNIAO UMB DOS CULTOS AFRO BRAS    20121810 000015
10231987175000168817800093673    000031968                    000319680000000000000109                     I0231968     20121800000000350003410000017N291018104700000000000102012180000000000000000000000000000000000000000100005400397727DENISE ANGELICA DOS SANTOS ROS          RUA SAO DEOGRACIAS                      GUARATIBA   23036610RIO DE JANEIRO RJUNIAO UMB DOS CULTOS AFRO BRAS    20121810 000016
10231987175000168817800093673    000031826                    000318260000000000000109                     I0231826     20121800000000350003410000017N291018104700000000000102012180000000000000000000000000000000000000000100061487856768ROSELI ROCHA DA SILVA FERREIRA          RUA DOUTOR MESQUITA                     NOSSA SENHOR27113010BARRA DO PIRAI RJUNIAO UMB DOS CULTOS AFRO BRAS    20121810 000017
10231987175000168817800093673    000031776                    000317760000000000000109                     I0231776     20121800000000350003410000017N291018104700000000000102012180000000000000000000000000000000000000000100058876197753JOSE LUIZ HONORIO DA SILVA              RUA LARANJEIRAS                         JARDIM PALMA26277705RIO DE JANEIRO RJUNIAO UMB DOS CULTOS AFRO BRAS    20121810 000018
10231987175000168817800093673    000031640                    000316400000000000000109                     I0231640     20121800000000350003410000017N291018104700000000000102012180000000000000000000000000000000000000000100068351828734MARIA DAS GRACAS RODRIGUES FEL          RUA MENA BARRETA                        VILA DE CAVA00000000NOVA IGUACU    RJUNIAO UMB DOS CULTOS AFRO BRAS    20121810 000019
10231987175000168817800093673    000031531                    000315310000000000000109                     I0231531     20121800000000350003410000017N291018104700000000000102012180000000000000000000000000000000000000000100091938074734MARIA DOS SANTOS RAMOS                  RUA TAIUVA                              FARRULA     26125420BELFORD ROXO   RJUNIAO UMB DOS CULTOS AFRO BRAS    20121810 000020
10231987175000168817800093673    000031302                    000313020000000000000109                     I0231302     20121800000000350003410000017N291018104700000000000102012180000000000000000000000000000000000000000100064250121704ANGELA MARIA BRAZ MANHAES               RUA JUTAI                               PERIQUITO   25025290DUQUE DE CAXIASRJUNIAO UMB DOS CULTOS AFRO BRAS    20121810 000021
10231987175000168817800093673    000031217                    000312170000000000000109                     I0231217     20121800000000350003410000017N291018104700000000000102012180000000000000000000000000000000000000000100088188710725MARIA DE NAZARETH DA COSTA SAN          RUA AURIZONA                            CAMPO GRANDE23095010RIO DE JANEIRO RJUNIAO UMB DOS CULTOS AFRO BRAS    20121810 000022
10231987175000168817800093673    000031144                    000311440000000000000109                     I0231144     20121800000000350003410000017N291018104700000000000102012180000000000000000000000000000000000000000100001050327780MARIA LUCIA DE FATIMA FERREIRA          RUA BUDAPESTE                           BANCARIOS - 21911300RIO DE JANEIRO RJUNIAO UMB DOS CULTOS AFRO BRAS    20121810 000023
10231987175000168817800093673    000031080                    000310800000000000000109                     I0231080     20121800000000350003410000017N291018104700000000000102012180000000000000000000000000000000000000000100093665536700IVANILDA DE AZEVEDO DOS SANTOS          RUA JUREMA                              JARDIM MARAV23033200RIO DE JANEIRO RJUNIAO UMB DOS CULTOS AFRO BRAS    20121810 000024
10231987175000168817800093673    000031069                    000310690000000000000109                     I0231069     20121800000000350003410000017N291018104700000000000102012180000000000000000000000000000000000000000100046626247700SHEILA MARIA DE ANDRADE                 ESTRADA ANTONIO JOSE BITTENCOURT        CENTRO      26535000NILOPOLIS      RJUNIAO UMB DOS CULTOS AFRO BRAS    20121810 000025
10231987175000168817800093673    000030890                    000308900000000000000109                     I0230890     20121800000000350003410000017N291018104700000000000102012180000000000000000000000000000000000000000100000000000786MARIA LUIZA DE CARVALHO                 RUA MOREIRA DE SA                       ITAUNA      24474280SAO GONCALO    RJUNIAO UMB DOS CULTOS AFRO BRAS    20121810 000026
10231987175000168817800093673    000030821                    000308210000000000000109                     I0230821     20121800000000350003410000017N291018104700000000000102012180000000000000000000000000000000000000000100009886046716ANA CRISTINA DE ALMEIDA TRINDA          RUA COTIJUBA                            ROCHA MIRAND21555020RIO DE JANEIRO RJUNIAO UMB DOS CULTOS AFRO BRAS    20121810 000027
10231987175000168817800093673    000030809                    000308090000000000000109                     I0230809     20121800000000350003410000017N291018104700000000000102012180000000000000000000000000000000000000000100003554994790MARIA DAS GRACAS DE JESUS FERR          RUA SANTA BARBARA                       DIAS LOPES  25570520SAO JOAO DE MERRJUNIAO UMB DOS CULTOS AFRO BRAS    20121810 000028
10231987175000168817800093673    000030808                    000308080000000000000109                     I0230808     20121800000000350003410000017N291018104700000000000102012180000000000000000000000000000000000000000100064075923720MARIA EDITE MERENCIANA                  AVENIDA PAPA JOAO XXIII                 RIO VARZEA  24812010ITABORAI       RJUNIAO UMB DOS CULTOS AFRO BRAS    20121810 000029
10231987175000168817800093673    000030633                    000306330000000000000109                     I0230633     20121800000000350003410000017N291018104700000000000102012180000000000000000000000000000000000000000100000000000607MARCOS SOARES DA SILVA                  RUA VEREADOR BARROS FILHO               VARGEM ALEGR27155000BARRA DO PIRAI RJUNIAO UMB DOS CULTOS AFRO BRAS    20121810 000030
10231987175000168817800093673    000030618                    000306180000000000000109                     I0230618     20121800000000400003410000017N291018104700000000000102012180000000000000000000000000000000000000000100087292971768ANTONIA HERMINIA DA SILVA               RUA PROFESSOR SILVIO ELIAS              VARGEM GRAND22783235RIO DE JANEIRO RJUNIAO UMB DOS CULTOS AFRO BRAS    20121810 000031
10231987175000168817800093673    000030598                    000305980000000000000109                     I0230598     20121800000000350003410000017N291018104700000000000102012180000000000000000000000000000000000000000100000000000507AURORA MARTINS BELLO                    RUA ITAPEMIRIM                          BANCO DE ARE26570130MESQUITA       RJUNIAO UMB DOS CULTOS AFRO BRAS    20121810 000032
10231987175000168817800093673    000030323                    000303230000000000000109                     I0230323     20121800000000040003410000017N291018104700000000000102012180000000000000000000000000000000000000000100059622091768ALDA GOMES DA SILVA                     RUA: VILA DOZE                          JARDIM PALMA23066186RIO DE JANEIRO RJUNIAO UMB DOS CULTOS AFRO BRAS    20121810 000033
10231987175000168817800093673    000030262                    000302620000000000000109                     I0230262     20121800000000035003410000017N291018104700000000000102012180000000000000000000000000000000000000000100058756280734SANDRA REGINA DA CONCEICAO              RUA BUENOS AIRES                        JARDIM PERNA26275390NOVA IGUACU    RJUNIAO UMB DOS CULTOS AFRO BRAS    20121810 000034
10231987175000168817800093673    000030260                    000302600000000000000109                     I0230260     20121800000000035003410000017N291018104700000000000102012180000000000000000000000000000000000000000100049660632720MARINETE SANTOS DE OLIVEIRA             AVENIDA SANTA CRUZ                      SENADOR CAMA23010003RIO DE JANEIRO RJUNIAO UMB DOS CULTOS AFRO BRAS    20121810 000035
10231987175000168817800093673    000030257                    000302570000000000000109                     I0230257     20121800000000035003410000017N291018104700000000000102012180000000000000000000000000000000000000000100000227210700ROSIMAR TELLES DE SA                    RUA ACAPU                               MARECHAL HER21550570RIO DE JANEIRO RJUNIAO UMB DOS CULTOS AFRO BRAS    20121810 000036
10231987175000168817800093673    000030255                    000302550000000000000109                     I0230255     20121800000000035003410000017N291018104700000000000102012180000000000000000000000000000000000000000100001649750714CRISTIANE JOSE DA SILVA                 AVENIDA CALOMBE                         PARQUE ELDOR25231020DUQUE DE CAXIASRJUNIAO UMB DOS CULTOS AFRO BRAS    20121810 000037
10231987175000168817800093673    000029777                    000297770000000000000109                     I0229777     20121800000000035003410000017N291018104700000000000102012180000000000000000000000000000000000000000100008267557717MARCIA REGINA FELIPE DE SOUZA           ESTRADA DO MENDANHA                     MENDANHA - C23087283RIO DE JANEIRO RJUNIAO UMB DOS CULTOS AFRO BRAS    20121810 000038
10231987175000168817800093673    000029744                    000297440000000000000109                     I0229744     20121800000000035003410000017N291018104700000000000102012180000000000000000000000000000000000000000100004770414773CARLOS ALBERTO TORRES NOGUEIRA          ESTRADA DO LAMEIRAO                     SANTISSIMO  23092031RIO DE JANEIRO RJUNIAO UMB DOS CULTOS AFRO BRAS    20121810 000039
10231987175000168817800093673    000029445                    000294450000000000000109                     I0229445     20121800000000035003410000017N291018104700000000000102012180000000000000000000000000000000000000000100000000000000GILMAR GAMMARO CARVALHO                 RUA GENERAL SEARA                       CAROLINA    25060010DUQUE DE CAXIASRJUNIAO UMB DOS CULTOS AFRO BRAS    20121810 000040
10231987175000168817800093673    000029440                    000294400000000000000109                     I0229440     20121800000000035003410000017N291018104700000000000102012180000000000000000000000000000000000000000100009431078732LUCIA OLIVEIRA BONIFACIO                RUA NINA RIBEIRO                        PAVUNA      21520290RIO DE JANEIRO RJUNIAO UMB DOS CULTOS AFRO BRAS    20121810 000041
10231987175000168817800093673    000029263                    000292630000000000000109                     I0229263     20121800000000035003410000017N291018104700000000000102012180000000000000000000000000000000000000000100006885221732REGINA CELIA DA SILVA LINS              CONDOMINIO PASSAREDO                    CAMINHO DE B28921100RIO DE JANEIRO RJUNIAO UMB DOS CULTOS AFRO BRAS    20121810 000042
10231987175000168817800093673    000029084                    000290840000000000000109                     I0229084     20121800000000035003410000017N291018104700000000000102012180000000000000000000000000000000000000000100043082033768LEILA RAMOS DE OLIVEIRA                 RUA CAPIBARIBE                          CABUCU      26346290NOVA IGUACU    RJUNIAO UMB DOS CULTOS AFRO BRAS    20121810 000043
10231987175000168817800093673    000029018                    000290180000000000000109                     I0229018     20121800000000035003410000017N291018104700000000000102012180000000000000000000000000000000000000000100046858229787IOLANDA CUSTODIA DA ROSA                RUA CLODOMIR LUCAS DOS REIS             JACAREPAGUA 22713562RIO DE JANEIRO RJUNIAO UMB DOS CULTOS AFRO BRAS    20121810 000044
10231987175000168817800093673    000028382                    000283820000000000000109                     I0228382     30111800000000035003410000017N200818104700000000000103011180000000000000000000000000000000000000000100058756280734SANDRA REGINA DA CONCEICAO              RUA BUENOS AIRES                        JARDIM PERNA26275390NOVA IGUACU    RJUNIAO UMB DOS CULTOS AFRO BRAS    30111810 000045
10231987175000168817800093673    000027860                    000278600000000000000109                     I0227860     30111800000000035003410000017N200818104700000000000103011180000000000000000000000000000000000000000100008267557717MARCIA REGINA FELIPE DE SOUZA           ESTRADA DO MENDANHA                     MENDANHA - C23087283RIO DE JANEIRO RJUNIAO UMB DOS CULTOS AFRO BRAS    30111810 000046
10231987175000168817800093673    000027825                    000278250000000000000109                     I0227825     30111800000000035003410000017N200818104700000000000103011180000000000000000000000000000000000000000100004770414773CARLOS ALBERTO TORRES NOGUEIRA          ESTRADA DO LAMEIRAO                     SANTISSIMO  23092031RIO DE JANEIRO RJUNIAO UMB DOS CULTOS AFRO BRAS    30111810 000047
10231987175000168817800093673    000025544                    000255440000000000000109                     I0225544     30101800000000035003410000017N200818104700000000000103010180000000000000000000000000000000000000000100058756280734SANDRA REGINA DA CONCEICAO              RUA BUENOS AIRES                        JARDIM PERNA26275390NOVA IGUACU    RJUNIAO UMB DOS CULTOS AFRO BRAS    30101810 000048
10231987175000168817800093673    000025465                    000254650000000000000109                     I0225465     30101800000000035003410000017N200818104700000000000103010180000000000000000000000000000000000000000100009416663794IGOR DO NASCIMENTO RODRIGUES            RUA FIGUEIREDO ROCHA                    VIGARIO GERA21240660RIO DE JANEIRO RJUNIAO UMB DOS CULTOS AFRO BRAS    30101810 000049
10231987175000168817800093673    000025023                    000250230000000000000109                     I0225023     30101800000000035003410000017N200818104700000000000103010180000000000000000000000000000000000000000100008267557717MARCIA REGINA FELIPE DE SOUZA           ESTRADA DO MENDANHA                     MENDANHA - C23087283RIO DE JANEIRO RJUNIAO UMB DOS CULTOS AFRO BRAS    30101810 000050
10231987175000168817800093673    000024988                    000249880000000000000109                     I0224988     30101800000000035003410000017N200818104700000000000103010180000000000000000000000000000000000000000100004770414773CARLOS ALBERTO TORRES NOGUEIRA          ESTRADA DO LAMEIRAO                     SANTISSIMO  23092031RIO DE JANEIRO RJUNIAO UMB DOS CULTOS AFRO BRAS    30101810 000051
9                                                                                                                                                                                                                                                                                                                                                                                                         000052
