01REMESSA01COBRANCA       817800093673        União Umb dos Cultos Afro Bra341BANCO ITAU SA  090419                                                                                                                                                                                                                                                                                                      000001
10231987175000168817800093673    000045023                    000450230000000000000109                     I0145023     30061900000000040003410000017N080419104700000000000103006190000000000000000000000000000000000000000100000498423743VERONICA FERNANDES DOS SANTOS           RUA NOVENTA E SEISN 67,                 TUBIACANGA  21932795RIO DE JANEIRO RJUNIAO UMB DOS CULTOS AFRO BRAS    30061910 000002
10231987175000168817800093673    000045022                    000450220000000000000109                     I0145022     30051900000000040003410000017N080419104700000000000103005190000000000000000000000000000000000000000100000498423743VERONICA FERNANDES DOS SANTOS           RUA NOVENTA E SEISN 67,                 TUBIACANGA  21932795RIO DE JANEIRO RJUNIAO UMB DOS CULTOS AFRO BRAS    30051910 000003
10231987175000168817800093673    000045021                    000450210000000000000109                     I0145021     20041900000000080003410000017N080419104700000000000102004190000000000000000000000000000000000000000100007446571721ANDREA GUEDES PINHEIRO GOMES            RUA ADOLFO BERGAMINI N 155, CASA 1      CENTRO      26341490NILOPOLIS      RJUNIAO UMB DOS CULTOS AFRO BRAS    20041910 000004
10231987175000168817800093673    000045020                    000450200000000000000109                     I0145020     20041900000000040003410000017N080419104700000000000102004190000000000000000000000000000000000000000100075627965720CATIA OLIVEIRA CARNEIRO                 AVENIDA PARANAPUAMN 1793, CASA 101      TAUA - ILHA 21910253RIO DE JANEIRO RJUNIAO UMB DOS CULTOS AFRO BRAS    20041910 000005
10231987175000168817800093673    000039007                    000390070000000000000109                     I0239007     30031900000000040003410000017N261218104700000000000103003190000000000000000000000000000000000000000100067321364704MARGARETH SOARES PECHIR                 RUA PRACINHA CESARIO AGUIAR N 256,      PITANGUEIRAS21930230RIO DE JANEIRO RJUNIAO UMB DOS CULTOS AFRO BRAS    30031910 000006
10231987175000168817800093673    000038796                    000387960000000000000109                     I0238796     30031900000000040003410000017N261218104700000000000103003190000000000000000000000000000000000000000100008522446733ELOIZA SANTOS DA COSTA                  RUA LAPLACEN 105, SAO CLAUDIO           CAMPO GRANDE23080340RIO DE JANEIRO RJUNIAO UMB DOS CULTOS AFRO BRAS    30031910 000007
10231987175000168817800093673    000038707                    000387070000000000000109                     I0238707     30031900000000040003410000017N261218104700000000000103003190000000000000000000000000000000000000000100008560350764EMANUELE DE FARIA CARVALHO DOS          RUA FLORESTA DO SULN 33,                GUARATIBA   23028512RIO DE JANEIRO RJUNIAO UMB DOS CULTOS AFRO BRAS    30031910 000008
10231987175000168817800093673    000038587                    000385870000000000000109                     I0238587     30031900000000040003410000017N261218104700000000000103003190000000000000000000000000000000000000000100007151714700VERONICA CONCEICAO DE SOUZA AN          RUA: CATANDUVA  N 32,                   COELHO NETO 21545420RIO DE JANEIRO RJUNIAO UMB DOS CULTOS AFRO BRAS    30031910 000009
10231987175000168817800093673    000037899                    000378990000000000000109                     I0237899     30031900000000040003410000017N261218104700000000000103003190000000000000000000000000000000000000000100003666096700MARIA DOS SANTOS MACHADO                RUA JOAO RAIMUNDON 0,  QUADRA 3 LOTE 13 VILA SANTO A25041400DUQUE DE CAXIASRJUNIAO UMB DOS CULTOS AFRO BRAS    30031910 000010
10231987175000168817800093673    000037742                    000377420000000000000109                     I0237742     30031900000000040003410000017N261218104700000000000103003190000000000000000000000000000000000000000100065213696791SILVIA ELIZABETE RODRIGUES              RUA JOAO BITTENCOURTN 286,              EDSON PASSOS26240510MESQUITA       RJUNIAO UMB DOS CULTOS AFRO BRAS    30031910 000011
10231987175000168817800093673    000037552                    000375520000000000000109                     I0237552     30031900000000040003410000017N261218104700000000000103003190000000000000000000000000000000000000000100004462200780ELAINE LOPES GONCALVES FALCAO           RUA TIUBAN 697,                         VAZ LOBO    21371170RIO DE JANEIRO RJUNIAO UMB DOS CULTOS AFRO BRAS    30031910 000012
10231987175000168817800093673    000037499                    000374990000000000000109                     I0237499     30031900000000040003410000017N261218104700000000000103003190000000000000000000000000000000000000000100000000000000MANOELLA MARIA DA CONCEICAO             RUA PIRES DO RION 928,                  EDEN        25540510SAO JOAO DE MERRJUNIAO UMB DOS CULTOS AFRO BRAS    30031910 000013
10231987175000168817800093673    000037488                    000374880000000000000109                     I0237488     30031900000000040003410000017N261218104700000000000103003190000000000000000000000000000000000000000100074624792734MARILZA COSTA FERREIRA                  RUA INHANDUIN 128,                      BENFICA     20930120RIO DE JANEIRO RJUNIAO UMB DOS CULTOS AFRO BRAS    30031910 000014
10231987175000168817800093673    000037088                    000370880000000000000109                     I0237088     28021900000000040003410000017N261218104700000000000102802190000000000000000000000000000000000000000100067321364704MARGARETH SOARES PECHIR                 RUA PRACINHA CESARIO AGUIAR N 256,      PITANGUEIRAS21930230RIO DE JANEIRO RJUNIAO UMB DOS CULTOS AFRO BRAS    28021910 000015
10231987175000168817800093673    000036877                    000368770000000000000109                     I0236877     28021900000000040003410000017N261218104700000000000102802190000000000000000000000000000000000000000100008522446733ELOIZA SANTOS DA COSTA                  RUA LAPLACEN 105, SAO CLAUDIO           CAMPO GRANDE23080340RIO DE JANEIRO RJUNIAO UMB DOS CULTOS AFRO BRAS    28021910 000016
10231987175000168817800093673    000036789                    000367890000000000000109                     I0236789     28021900000000040003410000017N261218104700000000000102802190000000000000000000000000000000000000000100008560350764EMANUELE DE FARIA CARVALHO DOS          RUA FLORESTA DO SULN 33,                GUARATIBA   23028512RIO DE JANEIRO RJUNIAO UMB DOS CULTOS AFRO BRAS    28021910 000017
10231987175000168817800093673    000035984                    000359840000000000000109                     I0235984     28021900000000040003410000017N261218104700000000000102802190000000000000000000000000000000000000000100003666096700MARIA DOS SANTOS MACHADO                RUA JOAO RAIMUNDON 0,  QUADRA 3 LOTE 13 VILA SANTO A25041400DUQUE DE CAXIASRJUNIAO UMB DOS CULTOS AFRO BRAS    28021910 000018
10231987175000168817800093673    000035829                    000358290000000000000109                     I0235829     28021900000000040003410000017N261218104700000000000102802190000000000000000000000000000000000000000100065213696791SILVIA ELIZABETE RODRIGUES              RUA JOAO BITTENCOURTN 286,              EDSON PASSOS26240510MESQUITA       RJUNIAO UMB DOS CULTOS AFRO BRAS    28021910 000019
10231987175000168817800093673    000035759                    000357590000000000000109                     I0235759     28021900000000040003410000017N261218104700000000000102802190000000000000000000000000000000000000000100087969998704ROBERTO LUIZ MEDEIROS                   RUA OLIMPION 0, LOTE 35 QUADRA 29       HELIOPOLIS  26125215BELFORD ROXO   RJUNIAO UMB DOS CULTOS AFRO BRAS    28021910 000020
10231987175000168817800093673    000035640                    000356400000000000000109                     I0235640     28021900000000040003410000017N261218104700000000000102802190000000000000000000000000000000000000000100004462200780ELAINE LOPES GONCALVES FALCAO           RUA TIUBAN 697,                         VAZ LOBO    21371170RIO DE JANEIRO RJUNIAO UMB DOS CULTOS AFRO BRAS    28021910 000021
10231987175000168817800093673    000035587                    000355870000000000000109                     I0235587     28021900000000040003410000017N261218104700000000000102802190000000000000000000000000000000000000000100000000000000MANOELLA MARIA DA CONCEICAO             RUA PIRES DO RION 928,                  EDEN        25540510SAO JOAO DE MERRJUNIAO UMB DOS CULTOS AFRO BRAS    28021910 000022
10231987175000168817800093673    000035576                    000355760000000000000109                     I0235576     28021900000000040003410000017N261218104700000000000102802190000000000000000000000000000000000000000100074624792734MARILZA COSTA FERREIRA                  RUA INHANDUIN 128,                      BENFICA     20930120RIO DE JANEIRO RJUNIAO UMB DOS CULTOS AFRO BRAS    28021910 000023
9                                                                                                                                                                                                                                                                                                                                                                                                         000024
