01REMESSA01COBRANCA       817800093673        União Umb dos Cultos Afro Bra341BANCO ITAU SA  220219                                                                                                                                                                                                                                                                                                      000001
10231987175000168817800093673    000037851                    000378510000000000000109                     I0237851     30031900000000040003410000017N261218104700000000000103003190000000000000000000000000000000000000000100073887145704MARIA LUCIA APOLINARIO                  RUA AMERICO DA ROCHA N 779, CASA 1 FUNDOMARECHAL HER21555300RIO DE JANEIRO RJUNIAO UMB DOS CULTOS AFRO BRAS    30031910 000002
10231987175000168817800093673    000037528                    000375280000000000000109                     I0237528     30031900000000040003410000017N261218104700000000000103003190000000000000000000000000000000000000000100063299615734MAGALI MAXIMO DE SOUZA                  RUA DONA VICENTINA N 0, LOTE 22         PAIOL DE POL26545460NILOPOLIS      RJUNIAO UMB DOS CULTOS AFRO BRAS    30031910 000003
10231987175000168817800093673    000035936                    000359360000000000000109                     I0235936     28021900000000040003410000017N261218104700000000000102802190000000000000000000000000000000000000000100073887145704MARIA LUCIA APOLINARIO                  RUA AMERICO DA ROCHA N 779, CASA 1 FUNDOMARECHAL HER21555300RIO DE JANEIRO RJUNIAO UMB DOS CULTOS AFRO BRAS    28021910 000004
10231987175000168817800093673    000035665                    000356650000000000000109                     I0235665     28021900000000040003410000017N261218104700000000000102802190000000000000000000000000000000000000000100043082033768LEILA RAMOS DE OLIVEIRA                 RUA CAPIBARIBE N 361,                   CABUCU      26346290NOVA IGUACU    RJUNIAO UMB DOS CULTOS AFRO BRAS    28021910 000005
10231987175000168817800093673    000035616                    000356160000000000000109                     I0235616     28021900000000040003410000017N261218104700000000000102802190000000000000000000000000000000000000000100063299615734MAGALI MAXIMO DE SOUZA                  RUA DONA VICENTINA N 0, LOTE 22         PAIOL DE POL26545460NILOPOLIS      RJUNIAO UMB DOS CULTOS AFRO BRAS    28021910 000006
10231987175000168817800093673    000035509                    000355090000000000000109                     I0235509     31011900000000040003410000017N261218104700000000000103101190000000000000000000000000000000000000000100007324540775JAQUELINE DE LIMA ALMEIDA DE J          RUA JOAQUIM ARRUDAN 13, QUADRA 39 LOTE 4JARDIM SAO P25935800MAGE           RJUNIAO UMB DOS CULTOS AFRO BRAS    31011910 000007
10231987175000168817800093673    000035370                    000353700000000000000109                     I0235370     31011900000000040003410000017N261218104700000000000103101190000000000000000000000000000000000000000100013118884703WESLEI FERREIRA DE CARVALHO             ESTRADA DO  GUERENGUEN 1022, FUNODS     TAQUARA     22713004RIO DE JANEIRO RJUNIAO UMB DOS CULTOS AFRO BRAS    31011910 000008
10231987175000168817800093673    000034254                    000342540000000000000109                     I0234254     31011900000000040003410000017N261218104700000000000103101190000000000000000000000000000000000000000100058984178772ELIZABETH RIBEIRO VALENTE FARI          RUA: VASCO DA GAMA N 1409,              PARQUE ESTOR26063190NOVA IGUACU    RJUNIAO UMB DOS CULTOS AFRO BRAS    31011910 000009
10231987175000168817800093673    000034032                    000340320000000000000109                     I0234032     31011900000000040003410000017N261218104700000000000103101190000000000000000000000000000000000000000100073887145704MARIA LUCIA APOLINARIO                  RUA AMERICO DA ROCHA N 779, CASA 1 FUNDOMARECHAL HER21555300RIO DE JANEIRO RJUNIAO UMB DOS CULTOS AFRO BRAS    31011910 000010
9                                                                                                                                                                                                                                                                                                                                                                                                         000011
