01REMESSA01COBRANCA       817800093673        União Umb dos Cultos Afro Bra341BANCO ITAU SA  101018                                                                                                                                                                                                                                                                                                      000001
10231987175000168817800093673    000028918                    000289180000000000000109                     I0128918     11101800000000035003410000017N101018104700000000000101110180000000000000000000000000000000000000000100000000011431MARIA DAS GRACAS GONCALVES              O MESMO                                 O MESMO     20950360RIO DE JANEIRO RJUNIAO UMB DOS CULTOS AFRO BRAS    11101810 000002
10231987175000168817800093673    000028917                    000289170000000000000109                     I0128917     20121800000000040003410000017N101018104700000000000102012180000000000000000000000000000000000000000100053387473753ALAN PINTO DE OLIVEIRA                  RUA MANOEL VITORINO                     ENCANTADO   20740280RIO DE JANEIRO RJUNIAO UMB DOS CULTOS AFRO BRAS    20121810 000003
10231987175000168817800093673    000028916                    000289160000000000000109                     I0128916     30111800000000040003410000017N101018104700000000000103011180000000000000000000000000000000000000000100053387473753ALAN PINTO DE OLIVEIRA                  RUA MANOEL VITORINO                     ENCANTADO   20740280RIO DE JANEIRO RJUNIAO UMB DOS CULTOS AFRO BRAS    30111810 000004
10231987175000168817800093673    000028915                    000289150000000000000109                     I0128915     15101800000000245003410000017N101018104700000000000101510180000000000000000000000000000000000000000100001230403701DENILSON MOTA DRUMOND                   RUA, ALVES DA COSTA                     CHANGRILA   26140320BELFORD ROXO   RJUNIAO UMB DOS CULTOS AFRO BRAS    15101810 000005
10231987175000168817800093673    000028914                    000289140000000000000109                     I0128914     20121800000000035003410000017N101018104700000000000102012180000000000000000000000000000000000000000100093473095753ALEXANDER NUNES PICANCO                 RUA REGISTRO                            SENADOR CAMA21832270RIO DE JANEIRO RJUNIAO UMB DOS CULTOS AFRO BRAS    20121810 000006
10231987175000168817800093673    000028913                    000289130000000000000109                     I0128913     30101800000000380003410000017N101018104700000000000103010180000000000000000000000000000000000000000100077753232720MARIA LUCIA FERNANDES DO NASCI          RUA FLAMINIA, 654                       PENHA CIRCUL21221240RIO DE JANEIRO RJUNIAO UMB DOS CULTOS AFRO BRAS    30101810 000007
10231987175000168817800093673    000028912                    000289120000000000000109                     I0128912     30101800000000380003410000017N091018104700000000000103010180000000000000000000000000000000000000000100090789407787ANA CLAUDIA DOS SANTOS TITO             RUA ONZE LOTE 17 QUADRA 48              PIABETA  MAG00000000RIO DE JANEIRO RJUNIAO UMB DOS CULTOS AFRO BRAS    30101810 000008
10231987175000168817800093673    000028911                    000289110000000000000109                     I0128911     09111800000000105003410000017N091018104700000000000100911180000000000000000000000000000000000000000100005836497770SIDEAN LEANDRO DOS SANTOS CRUZ          RUA MENDES RIBEIRO                      PATRONATO   24431635SAO GONCALO    RJUNIAO UMB DOS CULTOS AFRO BRAS    09111810 000009
10231987175000168817800093673    000028910                    000289100000000000000109                     I0128910     15101800000000070003410000017N091018104700000000000101510180000000000000000000000000000000000000000100000000000000VALDEA PEREIRA SIQUEIRA                 RUA BORDA DO MATO                       GRAJAU      20561200RIO DE JANEIRO RJUNIAO UMB DOS CULTOS AFRO BRAS    15101810 000010
10231987175000168817800093673    000028897                    000288970000000000000109                     I0228897     08101800000000245003410000017N051018104700000000000100810180000000000000000000000000000000000000000100001230403701DENILSON MOTA DRUMOND                   RUA, ALVES DA COSTA                     CHANGRILA   26140320BELFORD ROXO   RJUNIAO UMB DOS CULTOS AFRO BRAS    08101810 000011
10231987175000168817800093673    000028183                    000281830000000000000109                     I0228183     30111800000000035003410000017N200818104700000000000103011180000000000000000000000000000000000000000100067321364704MARGARETH SOARES PECHIR                 RUA PRACINHA CESARIO AGUIAR             PITANGUEIRAS21930230RIO DE JANEIRO RJUNIAO UMB DOS CULTOS AFRO BRAS    30111810 000012
10231987175000168817800093673    000027660                    000276600000000000000109                     I3427660     30111800000000035003410000017N200818104700000000000103011180000000000000000000000000000000000000000100091228239720MIRIAN DA SILVA PEREIRA                 RUA  NORDESTE 40                        JARDIM PARAI26000000RIO DE JANEIRO RJUNIAO UMB DOS CULTOS AFRO BRAS    30111810 000013
10231987175000168817800093673    000027092                    000270920000000000000109                     I0227092     30111800000000035003410000017N200818104700000000000103011180000000000000000000000000000000000000000100005412696740MONICA MIRALHA MESSINA                  RUA JOAQUIM NORBERTO                    CAVALCANTI  21370350RIO DE JANEIRO RJUNIAO UMB DOS CULTOS AFRO BRAS    30111810 000014
10231987175000168817800093673    000027002                    000270020000000000000109                     I0227002     30091800000000035003410000017N200818104700000000000103009180000000000000000000000000000000000000000100003654035710ELLEN CRISTINA DE ORNELAS NARC          RUA MARECHAL MARCIANO                   REALENGO    21721011RIO DE JANEIRO RJUNIAO UMB DOS CULTOS AFRO BRAS    30091810 000015
10231987175000168817800093673    000026961                    000269610000000000000109                     I3426961     30091800000000035003410000017N200818104700000000000103009180000000000000000000000000000000000000000100085542091768SUELY PEREIRA DA SILVA CALIXTO          RUA LUSITANIA II                        IMBARIE     25266005DUQUE DE CAXIASRJUNIAO UMB DOS CULTOS AFRO BRAS    30091810 000016
10231987175000168817800093673    000026762                    000267620000000000000109                     I0226762     30091800000000035003410000017N200818104700000000000103009180000000000000000000000000000000000000000100067321364704MARGARETH SOARES PECHIR                 RUA PRACINHA CESARIO AGUIAR             PITANGUEIRAS21930230RIO DE JANEIRO RJUNIAO UMB DOS CULTOS AFRO BRAS    30091810 000017
10231987175000168817800093673    000026242                    000262420000000000000109                     I3426242     30091800000000035003410000017N200818104700000000000103009180000000000000000000000000000000000000000100091228239720MIRIAN DA SILVA PEREIRA                 RUA  NORDESTE 40                        JARDIM PARAI26000000RIO DE JANEIRO RJUNIAO UMB DOS CULTOS AFRO BRAS    30091810 000018
10231987175000168817800093673    000026207                    000262070000000000000109                     I0226207     30091800000000035003410000017N200818104700000000000103009180000000000000000000000000000000000000000100060856467715JANAINA COELHO MELO                     RUA: SANTO APIANO                       IRAJA       21361420RIO DE JANEIRO RJUNIAO UMB DOS CULTOS AFRO BRAS    30091810 000019
10231987175000168817800093673    000026098                    000260980000000000000109                     I0226098     30091800000000035003410000017N200818104700000000000103009180000000000000000000000000000000000000000100093473095753ALEXANDER NUNES PICANCO                 RUA REGISTRO                            SENADOR CAMA21832270RIO DE JANEIRO RJUNIAO UMB DOS CULTOS AFRO BRAS    30091810 000020
10231987175000168817800093673    000025750                    000257500000000000000109                     I3425750     30091800000000035003410000017N200818104700000000000103009180000000000000000000000000000000000000000100000684105730MARIA DARLI BARBOSA                     RUA : DEPUTADO ULISSES GUIMARAES        BRISAMAR    23826433ITAGUAI        RJUNIAO UMB DOS CULTOS AFRO BRAS    30091810 000021
10231987175000168817800093673    000025678                    000256780000000000000109                     I0225678     30091800000000035003410000017N200818104700000000000103009180000000000000000000000000000000000000000100005412696740MONICA MIRALHA MESSINA                  RUA JOAQUIM NORBERTO                    CAVALCANTI  21370350RIO DE JANEIRO RJUNIAO UMB DOS CULTOS AFRO BRAS    30091810 000022
10231987175000168817800093673    000025667                    000256670000000000000109                     I3425667     30091800000000035003410000017N200818104700000000000103009180000000000000000000000000000000000000000100000000000000NEUZA MORAES TAVARES                    RUA RUBENS BARCELLOS                    VILA ORLANDE27325260BARRA MANSA    RJUNIAO UMB DOS CULTOS AFRO BRAS    30091810 000023
10231987175000168817800093673    000025546                    000255460000000000000109                     I3425546     30101800000000035003410000017N200818104700000000000103010180000000000000000000000000000000000000000100085542091768SUELY PEREIRA DA SILVA CALIXTO          RUA LUSITANIA II                        IMBARIE     25266005DUQUE DE CAXIASRJUNIAO UMB DOS CULTOS AFRO BRAS    30101810 000024
10231987175000168817800093673    000025346                    000253460000000000000109                     I0225346     30101800000000035003410000017N200818104700000000000103010180000000000000000000000000000000000000000100067321364704MARGARETH SOARES PECHIR                 RUA PRACINHA CESARIO AGUIAR             PITANGUEIRAS21930230RIO DE JANEIRO RJUNIAO UMB DOS CULTOS AFRO BRAS    30101810 000025
10231987175000168817800093673    000025242                    000252420000000000000109                     I3425242     30101800000000035003410000017N200818104700000000000103010180000000000000000000000000000000000000000100002298578518ELVIRA RODRIGUES DE MELLO               RUA ARAGUARI                            VILI SAO SEB26160250BELFORD ROXO   RJUNIAO UMB DOS CULTOS AFRO BRAS    30101810 000026
10231987175000168817800093673    000024823                    000248230000000000000109                     I3424823     30101800000000035003410000017N200818104700000000000103010180000000000000000000000000000000000000000100091228239720MIRIAN DA SILVA PEREIRA                 RUA  NORDESTE 40                        JARDIM PARAI26000000RIO DE JANEIRO RJUNIAO UMB DOS CULTOS AFRO BRAS    30101810 000027
10231987175000168817800093673    000024788                    000247880000000000000109                     I0224788     30101800000000035003410000017N200818104700000000000103010180000000000000000000000000000000000000000100060856467715JANAINA COELHO MELO                     RUA: SANTO APIANO                       IRAJA       21361420RIO DE JANEIRO RJUNIAO UMB DOS CULTOS AFRO BRAS    30101810 000028
10231987175000168817800093673    000024331                    000243310000000000000109                     I3424331     30101800000000035003410000017N200818104700000000000103010180000000000000000000000000000000000000000100000684105730MARIA DARLI BARBOSA                     RUA : DEPUTADO ULISSES GUIMARAES        BRISAMAR    23826433ITAGUAI        RJUNIAO UMB DOS CULTOS AFRO BRAS    30101810 000029
10231987175000168817800093673    000024258                    000242580000000000000109                     I0224258     30101800000000035003410000017N200818104700000000000103010180000000000000000000000000000000000000000100005412696740MONICA MIRALHA MESSINA                  RUA JOAQUIM NORBERTO                    CAVALCANTI  21370350RIO DE JANEIRO RJUNIAO UMB DOS CULTOS AFRO BRAS    30101810 000030
9                                                                                                                                                                                                                                                                                                                                                                                                         000031
