01REMESSA01COBRANCA       817800093673        União Umb dos Cultos Afro Bra341BANCO ITAU SA  090118                                                                                                                                                                                                                                                                                                      000001
10231987175000168817800093673    00008166                     000081660000000000000109                     I018166      28021800000000035003410000017N291217050900000000000102802180000000000000000000000000000000000000000100094051259749VANDA DA SILVA BARBOSA                  RUA MARIA DA GLORIA SANTOS, 13          SAO FERNANDO23565230RIO DE JANEIRO RJUNIAO UMB DOS CULTOS AFRO BRAS    28021810 000002
10231987175000168817800093673    00005623                     000056230000000000000109                     I015623      31011800000000035003410000017N261217050900000000000103101180000000000000000000000000000000000000000100000055376738MARIA DA GRACA BRANDAO                  RUA MATARAZZO, QUADRA 17 LOTE 5         GUARATIBA - 23028750RIO DE JANEIRO RJUNIAO UMB DOS CULTOS AFRO BRAS    31011810 000003
10231987175000168817800093673    00005621                     000056210000000000000109                     I015621      31011800000000035003410000017N261217050900000000000103101180000000000000000000000000000000000000000100004162486751IVONETE CRISTINA MARTINS MACHA          RUA DO CATETE, 5 FUNDOS                 VILA LEOPOLD25060230DUQUE DE CAXIASRJUNIAO UMB DOS CULTOS AFRO BRAS    31011810 000004
10231987175000168817800093673    00005620                     000056200000000000000109                     I015620      31011800000000035003410000017N261217050900000000000103101180000000000000000000000000000000000000000100067348793720MARCIO DE SOUZA MOURA                   RUA CAJUIPE,  110                       BONSUCESSO -21060490RIO DE JANEIRO RJUNIAO UMB DOS CULTOS AFRO BRAS    31011810 000005
10231987175000168817800093673    00005619                     000056190000000000000109                     I015619      31011800000000035003410000017N261217050900000000000103101180000000000000000000000000000000000000000100008548472782ADRIANO MENDES DA COSTA                 RUA  J, 16 CASA                         CAMPINHO - R21330735RIO DE JANEIRO RJUNIAO UMB DOS CULTOS AFRO BRAS    31011810 000006
10231987175000168817800093673    00005618                     000056180000000000000109                     I015618      31011800000000035003410000017N261217050900000000000103101180000000000000000000000000000000000000000100072214171720ROBSON ROGERIO CRUZ                     TRAVESSA ALMERINDA FREITAS,  25 SALA 408MADUREIRA - 21350280RIO DE JANEIRO RJUNIAO UMB DOS CULTOS AFRO BRAS    31011810 000007
10231987175000168817800093673    00005617                     000056170000000000000109                     I015617      31011800000000035003410000017N261217050900000000000103101180000000000000000000000000000000000000000100014806247723JEFFERSON DA CUNHA AREAS                RUA DOZE, 196                           NOVA MARILIA25900000MAGE           RJUNIAO UMB DOS CULTOS AFRO BRAS    31011810 000008
10231987175000168817800093673    00005616                     000056160000000000000109                     I015616      31011800000000035003410000017N261217050900000000000103101180000000000000000000000000000000000000000100001254302727EDUARDO ROSA                            RUA PARAGUACU CARNEIRO, 55 CASA         PARQUE ANCHI21635390RIO DE JANEIRO RJUNIAO UMB DOS CULTOS AFRO BRAS    31011810 000009
10231987175000168817800093673    00005615                     000056150000000000000109                     I015615      31011800000000035003410000017N261217050900000000000103101180000000000000000000000000000000000000000100003747539700MARCIA SANTANA DA SILVA COSTA           RUA GOVERNADOR PORTELA  CASA 2 LOTE 3 QUPQ ARARUAMA 25580690SAO JOAO DE MERRJUNIAO UMB DOS CULTOS AFRO BRAS    31011810 000010
10231987175000168817800093673    00005614                     000056140000000000000109                     I015614      31011800000000035003410000017N261217050900000000000103101180000000000000000000000000000000000000000100089511000730JORGE LUIS DE OLIVEIRA QUEIROZ          RUA JOSE ALVES PIMENTA, 912 CASA 1      MATADOURO - 27115010BARRA DO PIRAI RJUNIAO UMB DOS CULTOS AFRO BRAS    31011810 000011
10231987175000168817800093673    00005613                     000056130000000000000109                     I015613      31011800000000035003410000017N261217050900000000000103101180000000000000000000000000000000000000000100080285570749KATIA REGINA SILVA DE SOUZA             RUA JACARACI,  46                       REALENGO - R21710140RIO DE JANEIRO RJUNIAO UMB DOS CULTOS AFRO BRAS    31011810 000012
10231987175000168817800093673    00005612                     000056120000000000000109                     I015612      31011800000000035003410000017N261217050900000000000103101180000000000000000000000000000000000000000100002680887484MARIA APARECIDA DOS SANTOS MEN          RUA LUIZ MATEUS, 54 FUNDOS              VAZ MARTINS 26291018NOVA IGUACU    RJUNIAO UMB DOS CULTOS AFRO BRAS    31011810 000013
10231987175000168817800093673    00005611                     000056110000000000000109                     I015611      31011800000000035003410000017N261217050900000000000103101180000000000000000000000000000000000000000100098726978768MARIA STELA GOMES DA SILVA              RUA NARA, 10 - JARDIM LARANJEIRAS       CABUCU - NOV26291269NOVA IGUACU    RJUNIAO UMB DOS CULTOS AFRO BRAS    31011810 000014
10231987175000168817800093673    00005610                     000056100000000000000109                     I015610      31011800000000035003410000017N261217050900000000000103101180000000000000000000000000000000000000000100097314919704CLAUDIA ESTRELA RODRIGUES SERA          RUA NORTE, 298                          ROSA DOS VEN26276620NOVA IGUACU    RJUNIAO UMB DOS CULTOS AFRO BRAS    31011810 000015
10231987175000168817800093673    00005609                     000056090000000000000109                     I015609      31011800000000035003410000017N261217050900000000000103101180000000000000000000000000000000000000000100000516266802MARCELO DOS SANTOS                      RUA MANAUS, 241 CASA 103 FUNDOS         REALENGO - R21730050RIO DE JANEIRO RJUNIAO UMB DOS CULTOS AFRO BRAS    31011810 000016
10231987175000168817800093673    00005608                     000056080000000000000109                     I015608      31011800000000035003410000017N261217050900000000000103101180000000000000000000000000000000000000000100015188766760VICTOR DOS ANJOS PAVAO                  RUA DOUTOR ARI CHAGAS, 497              SEPETIBA - R23540000RIO DE JANEIRO RJUNIAO UMB DOS CULTOS AFRO BRAS    31011810 000017
10231987175000168817800093673    00005607                     000056070000000000000109                     I015607      31011800000000035003410000017N261217050900000000000103101180000000000000000000000000000000000000000100079921947804GILSON ANDRADE                          RUA TANGI, LOTE 12 QUADRA C             PARQUE REAL 26175025BELFORD ROXO   RJUNIAO UMB DOS CULTOS AFRO BRAS    31011810 000018
10231987175000168817800093673    00005606                     000056060000000000000109                     I015606      31011800000000035003410000017N261217050900000000000103101180000000000000000000000000000000000000000100007271009710MARCELLO FERREIRA DE ARAUJO             RUA IPEUVA, 106                         BRAZ DE PINA21215400RIO DE JANEIRO RJUNIAO UMB DOS CULTOS AFRO BRAS    31011810 000019
10231987175000168817800093673    00005605                     000056050000000000000109                     I015605      31011800000000035003410000017N261217050900000000000103101180000000000000000000000000000000000000000100091613965591SIMONE OLIVEIRA MACEDO                  ESTRADA CANCELA PRETA, 2120             BANGU - RIO 21725010RIO DE JANEIRO RJUNIAO UMB DOS CULTOS AFRO BRAS    31011810 000020
10231987175000168817800093673    00005604                     000056040000000000000109                     I015604      31011800000000035003410000017N261217050900000000000103101180000000000000000000000000000000000000000100003259472797IVONETE MARIA DA SILVA                  RUA RAFAEL LANGONE, 192                 CENTRO      25880000SAPUCAIA       RJUNIAO UMB DOS CULTOS AFRO BRAS    31011810 000021
10231987175000168817800093673    00005603                     000056030000000000000109                     I015603      31011800000000035003410000017N261217050900000000000103101180000000000000000000000000000000000000000100013222358729AMANDA PAULA TORRES DE SOUZA            RUA JOAO VICENTE, 261                   MADUREIRA   21340020RIO DE JANEIRO RJUNIAO UMB DOS CULTOS AFRO BRAS    31011810 000022
10231987175000168817800093673    00005602                     000056020000000000000109                     I015602      31011800000000035003410000017N261217050900000000000103101180000000000000000000000000000000000000000100000092416713LOURDES GONCALVES DA SILVA CAB          RUA GUATEMALA, 467 CASA 1 FRENTE        PENHA CIRCUL21020170RIO DE JANEIRO RJUNIAO UMB DOS CULTOS AFRO BRAS    31011810 000023
10231987175000168817800093673    00005601                     000056010000000000000109                     I015601      31011800000000035003410000017N261217050900000000000103101180000000000000000000000000000000000000000100000896315797ROSANGELA GONCALVES BONZOUMET           RUA CORREIO DO RIO, 155                 TAQUARA     22715010RIO DE JANEIRO RJUNIAO UMB DOS CULTOS AFRO BRAS    31011810 000024
10231987175000168817800093673    00005600                     000056000000000000000109                     I015600      31011800000000035003410000017N261217050900000000000103101180000000000000000000000000000000000000000100004168412792SERGIO LUIZ PEREIRA DOS SANTOS          RUA CORONEL JOAO DA SILVA MOREIRA, 54   CAIEIRA VELH27145170RIO DE JANEIRO RJUNIAO UMB DOS CULTOS AFRO BRAS    31011810 000025
10231987175000168817800093673    00005599                     000055990000000000000109                     I015599      31011800000000035003410000017N261217050900000000000103101180000000000000000000000000000000000000000100074734440778NILMA SANTOS ANDRADE                    RUA AGUIA BRANCA, LOTE 15 QUADRA 68     CAROBINHA   23097630RIO DE JANEIRO RJUNIAO UMB DOS CULTOS AFRO BRAS    31011810 000026
10231987175000168817800093673    00005598                     000055980000000000000109                     I015598      31011800000000035003410000017N261217050900000000000103101180000000000000000000000000000000000000000100002478890755GRETGHEN LUIZ DE MELO                   RUA MANOEL GAMA, 198 A 1O ANDAR         VILA TIRADEN25525390SAO JOAO DE MERRJUNIAO UMB DOS CULTOS AFRO BRAS    31011810 000027
10231987175000168817800093673    00005597                     000055970000000000000109                     I015597      31011800000000035003410000017N261217050900000000000103101180000000000000000000000000000000000000000100001447704746MARCOS FAGUNDES MARTINS                 ESTRADA DA PEDRA, 167                   SANTA CRUZ  23520241RIO DE JANEIRO RJUNIAO UMB DOS CULTOS AFRO BRAS    31011810 000028
10231987175000168817800093673    00005596                     000055960000000000000109                     I015596      31011800000000035003410000017N261217050900000000000103101180000000000000000000000000000000000000000100011376749700ROGERIO CORREIA DA COSTA                RUA SANTA CATARINA, 18 JD MARIANA       IMBARIE - DU25271010DUQUE DE CAXIASRJUNIAO UMB DOS CULTOS AFRO BRAS    31011810 000029
10231987175000168817800093673    00005595                     000055950000000000000109                     I015595      31011800000000035003410000017N261217050900000000000103101180000000000000000000000000000000000000000100077217942772LUIZ CLAUDIO CONCEICAO MAIA             RUA DOUTOR THOUZET, 577 B - FUNDOS      QUITANDINHA 25650061PETROPOLIS     RJUNIAO UMB DOS CULTOS AFRO BRAS    31011810 000030
10231987175000168817800093673    00005594                     000055940000000000000109                     I015594      31011800000000035003410000017N261217050900000000000103101180000000000000000000000000000000000000000100003367432709KHRYSTIENE COSTA MOTTA                  RUA PINHEIRO CHAGAS, 74                 PARQUE ANCHI21620500RIO DE JANEIRO RJUNIAO UMB DOS CULTOS AFRO BRAS    31011810 000031
10231987175000168817800093673    00005593                     000055930000000000000109                     I015593      31011800000000035003410000017N261217050900000000000103101180000000000000000000000000000000000000000100010475138708CAMILA ARAUJO DA MOTTA                  RUA SAO BRAZ, 232 APTO 202              TODOS OS SAN20770150RIO DE JANEIRO RJUNIAO UMB DOS CULTOS AFRO BRAS    31011810 000032
10231987175000168817800093673    00005592                     000055920000000000000109                     I015592      31011800000000035003410000017N261217050900000000000103101180000000000000000000000000000000000000000100001189035782ANDERSON MELLO DE PAULA                 RUA CARATINGA, 15                       HONORIO GURG21511200RIO DE JANEIRO RJUNIAO UMB DOS CULTOS AFRO BRAS    31011810 000033
10231987175000168817800093673    00005591                     000055910000000000000109                     I015591      31011800000000035003410000017N261217050900000000000103101180000000000000000000000000000000000000000100014324870780ANDREY SANTOS ESTEVES                   RUA GENERAL SEZEFREDO, 7 - REALENGO     REALENGO/RJ 21715060RIO DE JANEIRO RJUNIAO UMB DOS CULTOS AFRO BRAS    31011810 000034
10231987175000168817800093673    00005590                     000055900000000000000109                     I015590      31011800000000035003410000017N261217050900000000000103101180000000000000000000000000000000000000000100078501946753ELIANA GONCALVES DE SOUZA               RUA  DOUTOR GARNIER, 381                ROCHA - RIO 20975000RIO DE JANEIRO RJUNIAO UMB DOS CULTOS AFRO BRAS    31011810 000035
10231987175000168817800093673    00005589                     000055890000000000000109                     I015589      31011800000000035003410000017N261217050900000000000103101180000000000000000000000000000000000000000100049498320772LUZIA INACIO BARBOSA                    RUA JOAO ALBERTO, LOTE 2 QUADRA 36      EDEN - SAO J25540060SAO JOAO DE MERRJUNIAO UMB DOS CULTOS AFRO BRAS    31011810 000036
10231987175000168817800093673    00005588                     000055880000000000000109                     I015588      31011800000000035003410000017N261217050900000000000103101180000000000000000000000000000000000000000100002830222725SHEILA RODRIGUES                        RUA DOS OPERARIOS, 379                  NOVO MUNDO -25900000MAGE           RJUNIAO UMB DOS CULTOS AFRO BRAS    31011810 000037
10231987175000168817800093673    00005587                     000055870000000000000109                     I015587      31011800000000035003410000017N261217050900000000000103101180000000000000000000000000000000000000000100074593250749ELIZABETH DA SILVA OLIVEIRA             RUA QUINZE, 1303 CASA 2                 TEIXEIRA - I23819230ITAGUAI        RJUNIAO UMB DOS CULTOS AFRO BRAS    31011810 000038
10231987175000168817800093673    00005586                     000055860000000000000109                     I015586      31011800000000035003410000017N261217050900000000000103101180000000000000000000000000000000000000000100032955761420VRADELEIDE MARIA DOS SANTOS             ESTRADA MARACAJAS, 725 CASA 2 FUNDOS    ILHA DO GOVE21941390RIO DE JANEIRO RJUNIAO UMB DOS CULTOS AFRO BRAS    31011810 000039
10231987175000168817800093673    00005585                     000055850000000000000109                     I015585      31011800000000035003410000017N261217050900000000000103101180000000000000000000000000000000000000000200026135911746ELINDOMAR JORGE DA COSTA                RUA ITUVERAVA, 108 LOTE 10 QUADRA 1     MONJOLO - SA24724800SAO GONCALO    RJUNIAO UMB DOS CULTOS AFRO BRAS    31011810 000040
10231987175000168817800093673    00005584                     000055840000000000000109                     I015584      31011800000000035003410000017N261217050900000000000103101180000000000000000000000000000000000000000100073686913704ANTONIO CORDEIRO DA SILVA               RUA ESTRELA DALVA, 2                    ITANHANGA - 22753010RIO DE JANEIRO RJUNIAO UMB DOS CULTOS AFRO BRAS    31011810 000041
10231987175000168817800093673    00005583                     000055830000000000000109                     I015583      31011800000000035003410000017N261217050900000000000103101180000000000000000000000000000000000000000100042157358749LUIZ OSWALDO DOS SANTOS                 RUA COPIUVA, 23  JARDIM CARIOCA         ILHA DO GOVE21921490RIO DE JANEIRO RJUNIAO UMB DOS CULTOS AFRO BRAS    31011810 000042
10231987175000168817800093673    00005582                     000055820000000000000109                     I015582      31011800000000035003410000017N261217050900000000000103101180000000000000000000000000000000000000000100007804875754EVANDRO MEDEIROS DE OLIVEIRA            RUA 64, LOTE 40 QUADRA 303 CASA 1       JARDIM ATLAN24934045MARICA         RJUNIAO UMB DOS CULTOS AFRO BRAS    31011810 000043
10231987175000168817800093673    00005581                     000055810000000000000109                     I015581      31011800000000035003410000017N261217050900000000000103101180000000000000000000000000000000000000000100075597543768MARCIA REGINA DE ALMEIDA XAVIE          RUA ZENITAL, LOTE 10 QUADRA E           JARDIM PARAI26297300NOVA IGUACU    RJUNIAO UMB DOS CULTOS AFRO BRAS    31011810 000044
10231987175000168817800093673    00005580                     000055800000000000000109                     I015580      31011800000000035003410000017N261217050900000000000103101180000000000000000000000000000000000000000100007469084746SILVIO GOMES BARBOSA                    RUA ALCIDES MAIA, 78 CASA 3             BENTO RIBEIR21550560RIO DE JANEIRO RJUNIAO UMB DOS CULTOS AFRO BRAS    31011810 000045
10231987175000168817800093673    00005579                     000055790000000000000109                     I015579      31011800000000035003410000017N261217050900000000000103101180000000000000000000000000000000000000000100062700090730ZORAIA TOGNARELLI DA CRUZ               RUA CORREA DUTRA, 78 APTO 501           FLAMENGO - R22210050RIO DE JANEIRO RJUNIAO UMB DOS CULTOS AFRO BRAS    31011810 000046
10231987175000168817800093673    00005578                     000055780000000000000109                     I015578      31011800000000035003410000017N261217050900000000000103101180000000000000000000000000000000000000000100069833850715WALTER LIMA DE AVELLAR                  RUA SAO JOSE, S/N QUADRA 47 LOTE 19     ITAIPUACU - 24900000MARICA         RJUNIAO UMB DOS CULTOS AFRO BRAS    31011810 000047
10231987175000168817800093673    00005577                     000055770000000000000109                     I015577      31011800000000035003410000017N261217050900000000000103101180000000000000000000000000000000000000000100047783877753RAIMUNDO NONATO VALENCA RIBEIR          AVENIDA PREFEITO BRAULINO DE MATOS REIS,COPACABANA -25060440DUQUE DE CAXIASRJUNIAO UMB DOS CULTOS AFRO BRAS    31011810 000048
10231987175000168817800093673    00005576                     000055760000000000000109                     I015576      31011800000000035003410000017N261217050900000000000103101180000000000000000000000000000000000000000100068648006791SANDRA MARTA GOMES DA COSTA             RUA LAGUNA, 678                         VILAR NOVO -26115620BELFORD ROXO   RJUNIAO UMB DOS CULTOS AFRO BRAS    31011810 000049
10231987175000168817800093673    00005575                     000055750000000000000109                     I015575      31011800000000035003410000017N261217050900000000000103101180000000000000000000000000000000000000000100080756832772LUIS CLAUDIO BARCELOS                   RUA CARLOS TINOCO  CAMINHO DA BICA  376 BARRA DE GUA23020280RIO DE JANEIRO RJUNIAO UMB DOS CULTOS AFRO BRAS    31011810 000050
10231987175000168817800093673    00005574                     000055740000000000000109                     I015574      31011800000000035003410000017N261217050900000000000103101180000000000000000000000000000000000000000100008560350764EMANUELE DE FARIA CARVALHO DOS          RUA FLORESTA DO SUL, 33                 GUARATIBA - 23028512RIO DE JANEIRO RJUNIAO UMB DOS CULTOS AFRO BRAS    31011810 000051
10231987175000168817800093673    00005573                     000055730000000000000109                     I015573      31011800000000035003410000017N261217050900000000000103101180000000000000000000000000000000000000000100002402869798LEONARDO BEZERRA XAVIER                 RUA GODOFREDO SILVA, 121                PENHA CIRCUL21221020RIO DE JANEIRO RJUNIAO UMB DOS CULTOS AFRO BRAS    31011810 000052
10231987175000168817800093673    00005572                     000055720000000000000109                     I015572      31011800000000035003410000017N261217050900000000000103101180000000000000000000000000000000000000000100039561607549MARIA NEUZA RODRIGUES                   RUA PEDRAS PRECIOSAS, 81 - MONTE SINAI  PACIENCIA - 23587610RIO DE JANEIRO RJUNIAO UMB DOS CULTOS AFRO BRAS    31011810 000053
10231987175000168817800093673    00005569                     000055690000000000000109                     I015569      31011800000000035003410000017N261217050900000000000103101180000000000000000000000000000000000000000100014213950700AYSLAN BARBOSA GUEDES                   RUA MAJOR MARIO SALGUEIRO, 608 CASA 1   BELVEDERE -B27113070BARRA DO PIRAI RJUNIAO UMB DOS CULTOS AFRO BRAS    31011810 000054
10231987175000168817800093673    00005568                     000055680000000000000109                     I015568      31011800000000035003410000017N261217050900000000000103101180000000000000000000000000000000000000000100011273431731DANIELE DO NASCIMENTO CRUZ              O MESMO                                 O MESMO     26080039NOVA IGUACU    RJUNIAO UMB DOS CULTOS AFRO BRAS    31011810 000055
10231987175000168817800093673    00005567                     000055670000000000000109                     I015567      31011800000000035003410000017N261217050900000000000103101180000000000000000000000000000000000000000100063164256787ALICE FRANCISCO LOPES                   RUA JORNALISTA PINHEIRO LEMOS, 296      COSTA BARROS21650200RIO DE JANEIRO RJUNIAO UMB DOS CULTOS AFRO BRAS    31011810 000056
10231987175000168817800093673    00005566                     000055660000000000000109                     I015566      31011800000000035003410000017N261217050900000000000103101180000000000000000000000000000000000000000100005755429779ALEX CIPRIANO CARVALHO BARRETO          RUA CARLOS CHAMBELLAND, 300 APTO 101    VILA DA PENH21210090RIO DE JANEIRO RJUNIAO UMB DOS CULTOS AFRO BRAS    31011810 000057
10231987175000168817800093673    00005565                     000055650000000000000109                     I015565      31011800000000035003410000017N261217050900000000000103101180000000000000000000000000000000000000000100094443211772SANDRA LEILA ANACLETO SIQUEIRA          RUA RAUL VEIGA, 315                     QUITANDINHA 25635110PETROPOLIS     RJUNIAO UMB DOS CULTOS AFRO BRAS    31011810 000058
10231987175000168817800093673    00005563                     000055630000000000000109                     I015563      31011800000000035003410000017N261217050900000000000103101180000000000000000000000000000000000000000100011385092726ANDRE LEONARDO SILVA DE ARAUJO          RUA CARMINDA, 1359 CASA 4               COELHO DA RO25550136SAO JOAO DE MERRJUNIAO UMB DOS CULTOS AFRO BRAS    31011810 000059
10231987175000168817800093673    00005562                     000055620000000000000109                     I015562      31011800000000035003410000017N261217050900000000000103101180000000000000000000000000000000000000000100016049548765ARTHUR DA SILVA AVELLAR GOMES           RUA CLAUDINO BARATA, 143 CASA 3         REALENGO - R21770200RIO DE JANEIRO RJUNIAO UMB DOS CULTOS AFRO BRAS    31011810 000060
10231987175000168817800093673    00005561                     000055610000000000000109                     I015561      31011800000000035003410000017N261217050900000000000103101180000000000000000000000000000000000000000100051562430700EMILIA SANTANA MORAIS                   RUA JORNALISTA MOACIR PADILHA, 276 FUNDOCENTRO - NIT24020350NITEROI        RJUNIAO UMB DOS CULTOS AFRO BRAS    31011810 000061
10231987175000168817800093673    00005560                     000055600000000000000109                     I015560      31011800000000035003410000017N261217050900000000000103101180000000000000000000000000000000000000000100031709294749ELIETE DE OLIVEIRA FONSECA              ESTRADA DO MAGARCA, 1137 FUNDOS         GUARATIBA - 23035380RIO DE JANEIRO RJUNIAO UMB DOS CULTOS AFRO BRAS    31011810 000062
10231987175000168817800093673    00005559                     000055590000000000000109                     I015559      31011800000000035003410000017N261217050900000000000103101180000000000000000000000000000000000000000100094639779704SERGIO ANTONIO CARDOSO LOPES            TRAVESSA DA AMIZADE, 142 APTO 501       VILA DA PENH21221370RIO DE JANEIRO RJUNIAO UMB DOS CULTOS AFRO BRAS    31011810 000063
10231987175000168817800093673    00005558                     000055580000000000000109                     I015558      31011800000000035003410000017N261217050900000000000103101180000000000000000000000000000000000000000100087318822772REGINA CLIMAS DE ABREU                  RUA JOAO MARTINS DE BARROS, LOTE 25 QUADBATAILLARD -25675150PETROPOLIS     RJUNIAO UMB DOS CULTOS AFRO BRAS    31011810 000064
10231987175000168817800093673    00005557                     000055570000000000000109                     I015557      31011800000000035003410000017N261217050900000000000103101180000000000000000000000000000000000000000100023061987152NICEAS FERREIRA BRITO FILHO             RUA ALBINO PAIVA, 486                   SENADOR CAMA21830490RIO DE JANEIRO RJUNIAO UMB DOS CULTOS AFRO BRAS    31011810 000065
10231987175000168817800093673    00005556                     000055560000000000000109                     I015556      31011800000000035003410000017N261217050900000000000103101180000000000000000000000000000000000000000100098129074753EVANILDO PEDRO DA SILVA FILHO           RUA MANOEL GREGORIO, SN CASA 7 QUADRO B SANTISSIMO -21853050RIO DE JANEIRO RJUNIAO UMB DOS CULTOS AFRO BRAS    31011810 000066
10231987175000168817800093673    00005555                     000055550000000000000109                     I015555      31011800000000035003410000017N261217050900000000000103101180000000000000000000000000000000000000000100070154732753SOLANGE GONCALVES DA SILVA              RUA VINTE E OITO, SN LOTE 727           MURIQUI - MA23860000MANGARATIBA    RJUNIAO UMB DOS CULTOS AFRO BRAS    31011810 000067
10231987175000168817800093673    00005554                     000055540000000000000109                     I015554      31011800000000035003410000017N261217050900000000000103101180000000000000000000000000000000000000000100009805565700THIAGO DOS SANTOS FLOR DA SILV          RUA JOAO LUSO, 423                      REALENGO-RJ 21765620RIO DE JANEIRO RJUNIAO UMB DOS CULTOS AFRO BRAS    31011810 000068
10231987175000168817800093673    00005553                     000055530000000000000109                     I015553      31011800000000035003410000017N261217050900000000000103101180000000000000000000000000000000000000000100089853628791NADIA JAQUELINE MEDEIROS BARCE          RUA PROJETADA E, 51 FUNDOS CASA 1       SENADOR CAMA21831440RIO DE JANEIRO RJUNIAO UMB DOS CULTOS AFRO BRAS    31011810 000069
10231987175000168817800093673    00005552                     000055520000000000000109                     I015552      31011800000000035003410000017N261217050900000000000103101180000000000000000000000000000000000000000100004790121720IATA ANDERSON JESUS PEREIRA             RUA ITAJUBARA, 92 FRENTE                RAMOS - RIO 21060180RIO DE JANEIRO RJUNIAO UMB DOS CULTOS AFRO BRAS    31011810 000070
10231987175000168817800093673    00005551                     000055510000000000000109                     I015551      31011800000000035003410000017N261217050900000000000103101180000000000000000000000000000000000000000100069542996772ELZINEIA RUFINO FICHEIRA                RUA LIVIO BARRETO, 274 CASA 2 FUNDOS    JACAREPAGUA 22730065RIO DE JANEIRO RJUNIAO UMB DOS CULTOS AFRO BRAS    31011810 000071
10231987175000168817800093673    00005550                     000055500000000000000109                     I015550      31011800000000035003410000017N261217050900000000000103101180000000000000000000000000000000000000000100002437606718FABIO VICTOR BARRETO                    RUA BARAO DE JAGUARI, 31                IRAJA - RIO 21235555RIO DE JANEIRO RJUNIAO UMB DOS CULTOS AFRO BRAS    31011810 000072
10231987175000168817800093673    00005549                     000055490000000000000109                     I015549      31011800000000035003410000017N261217050900000000000103101180000000000000000000000000000000000000000100010591612739ROSEMERE SOUZA DA SILVA                 O MESMO                                 O MESMO     21230354RIO DE JANEIRO RJUNIAO UMB DOS CULTOS AFRO BRAS    31011810 000073
10231987175000168817800093673    00005548                     000055480000000000000109                     I015548      31011800000000035003410000017N261217050900000000000103101180000000000000000000000000000000000000000100002979603775LUIZ CARLOS PESSOA                      RUA: JOSE RAMALHO Nº 14 - MUTUAPIRA    O MESMO     24455235RIO DE JANEIRO RJUNIAO UMB DOS CULTOS AFRO BRAS    31011810 000074
10231987175000168817800093673    00005547                     000055470000000000000109                     I015547      31011800000000035003410000017N261217050900000000000103101180000000000000000000000000000000000000000100007476149739JAQUELINE DE ASSIS                      RUA: MIGUEL DE CARVALHO Nº 171         GUARATIBA - 23035640RIO DE JANEIRO RJUNIAO UMB DOS CULTOS AFRO BRAS    31011810 000075
10231987175000168817800093673    00005546                     000055460000000000000109                     I015546      31011800000000035003410000017N261217050900000000000103101180000000000000000000000000000000000000000100008158166776CRISTIANE DE ALMEIDA DA ROCHA           RUA JOANA RESENDE N° 28 - MADUREIRA    RIO DE JANEI21360430RIO DE JANEIRO RJUNIAO UMB DOS CULTOS AFRO BRAS    31011810 000076
10231987175000168817800093673    00005545                     000055450000000000000109                     I015545      31011800000000035003410000017N261217050900000000000103101180000000000000000000000000000000000000000100013814528760TIAGO FRANCISLEI PEREIRA REALI          O MESMO                                 O MESMO     24115260BARRA DO PIRAI RJUNIAO UMB DOS CULTOS AFRO BRAS    31011810 000077
10231987175000168817800093673    00005544                     000055440000000000000109                     I015544      31011800000000035003410000017N261217050900000000000103101180000000000000000000000000000000000000000100014662855756JEFERSON DOS SANTOS                     O MESMO                                 O MESMO     26160190RIO DE JANEIRO RJUNIAO UMB DOS CULTOS AFRO BRAS    31011810 000078
10231987175000168817800093673    00005543                     000055430000000000000109                     I015543      31011800000000035003410000017N261217050900000000000103101180000000000000000000000000000000000000000100064561968768EUCLIDALINA MARIA DOS SANTOS V          O MESMO                                 O MESMO     25265080DUQUE DE CAXIASRJUNIAO UMB DOS CULTOS AFRO BRAS    31011810 000079
10231987175000168817800093673    00005542                     000055420000000000000109                     I015542      31011800000000035003410000017N261217050900000000000103101180000000000000000000000000000000000000000100007057227752EDMAR ADAO                              RUA: ECLIPSE LOTE 7 QUADRA 7 - GUANDU   JAPERI - RJ 26420000JAPERI         RJUNIAO UMB DOS CULTOS AFRO BRAS    31011810 000080
10231987175000168817800093673    00005541                     000055410000000000000109                     I015541      31011800000000035003410000017N261217050900000000000103101180000000000000000000000000000000000000000100000921417130IVANILDA MARIA DE OLIVEIRA              O MESMO                                 O MESMO     26420150JAPERI         RJUNIAO UMB DOS CULTOS AFRO BRAS    31011810 000081
10231987175000168817800093673    00005540                     000055400000000000000109                     I015540      31011800000000035003410000017N261217050900000000000103101180000000000000000000000000000000000000000100004460142732CRISTIANO ARAUJO DE OLIVEIRA            R: SERIDO LT 20 QD 16/CABUCU/N.IGUACU RJO MESMO     26291482NOVA IGUACU    RJUNIAO UMB DOS CULTOS AFRO BRAS    31011810 000082
10231987175000168817800093673    00005539                     000055390000000000000109                     I015539      31011800000000035003410000017N261217050900000000000103101180000000000000000000000000000000000000000100092952364753ROSANGELA SILVA SOUZA                   RUA TAMOIOS N 144                       CENTRO - NIL26520250NILOPOLIS      RJUNIAO UMB DOS CULTOS AFRO BRAS    31011810 000083
10231987175000168817800093673    00005537                     000055370000000000000109                     I015537      31011800000000035003410000017N261217050900000000000103101180000000000000000000000000000000000000000100001248895738JUSSARA SILVEIRA LOPES DA FONS          RUA SAQUAREMA, 1433                     SANTO ALEIXO25914000MAGE           RJUNIAO UMB DOS CULTOS AFRO BRAS    31011810 000084
10231987175000168817800093673    00005536                     000055360000000000000109                     I015536      31011800000000035003410000017N261217050900000000000103101180000000000000000000000000000000000000000100072461780749FATIMA GARCIA                           RODOVIA 116 KM 3,5 LT 31 QD 2 SAMBAETIBAITABORAI - R24843000RIO DE JANEIRO RJUNIAO UMB DOS CULTOS AFRO BRAS    31011810 000085
10231987175000168817800093673    00005535                     000055350000000000000109                     I015535      31011800000000035003410000017N261217050900000000000103101180000000000000000000000000000000000000000100082272964753ALBANO TEIXEIRA NOVAES FILHO            O MESMO                                 O MESMO     26265550NOVA IGUACU    RJUNIAO UMB DOS CULTOS AFRO BRAS    31011810 000086
10231987175000168817800093673    00005534                     000055340000000000000109                     I015534      31011800000000035003410000017N261217050900000000000103101180000000000000000000000000000000000000000100016985553770SILVANA MARIA DOS SANTOS                RUA, CINCO LOTE 16 QUADR 38 - QUEIMADOS CARTA COBR J21235830RIO DE JANEIRO RJUNIAO UMB DOS CULTOS AFRO BRAS    31011810 000087
10231987175000168817800093673    00005533                     000055330000000000000109                     I015533      31011800000000035003410000017N261217050900000000000103101180000000000000000000000000000000000000000100064775640763TANIA CORREA LEITE                      RUA DOUTOR LUIS GAUDIE LEY N 99 (2ª LIGPENHA - RIO 21070100RIO DE JANEIRO RJUNIAO UMB DOS CULTOS AFRO BRAS    31011810 000088
10231987175000168817800093673    00005532                     000055320000000000000109                     I015532      31011800000000035003410000017N261217050900000000000103101180000000000000000000000000000000000000000100001868270750CARLOS ALBERTO DO NASCIMENTO L          O MESMO                                 O MESMO     20761060RIO DE JANEIRO RJUNIAO UMB DOS CULTOS AFRO BRAS    31011810 000089
10231987175000168817800093673    00005531                     000055310000000000000109                     I015531      31011800000000035003410000017N261217050900000000000103101180000000000000000000000000000000000000000100096933836720CELIA GOMES DE OLIVEIRA FALCAO          RUA CONDOMINIO 1 DE MAIO, 227 B         MADAME MACHA23740020PETROPOLIS     RJUNIAO UMB DOS CULTOS AFRO BRAS    31011810 000090
10231987175000168817800093673    00005530                     000055300000000000000109                     I015530      31011800000000035003410000017N261217050900000000000103101180000000000000000000000000000000000000000100005292156752MARCIO VALADARES DOS SANTOS             RUA SETUBAL LT 7 QD N - CABUCU          NOVA IGUACU 21330560RIO DE JANEIRO RJUNIAO UMB DOS CULTOS AFRO BRAS    31011810 000091
10231987175000168817800093673    00005529                     000055290000000000000109                     I015529      31011800000000035003410000017N261217050900000000000103101180000000000000000000000000000000000000000100076862062700MARIO LUIS DE SOUZA                     RUA FERREIRA CHAVES N° 139 CASA 2      VL DA PENHA 21221090RIO DE JANEIRO RJUNIAO UMB DOS CULTOS AFRO BRAS    31011810 000092
10231987175000168817800093673    00005528                     000055280000000000000109                     I015528      31011800000000035003410000017N261217050900000000000103101180000000000000000000000000000000000000000100038230445753ABILIO ALFREDO DUARTE                   RUA: ORQUIDEAS S/Nº LOTE 72 - GUARATIBARIO DE JANEI23026000RIO DE JANEIRO RJUNIAO UMB DOS CULTOS AFRO BRAS    31011810 000093
10231987175000168817800093673    00005527                     000055270000000000000109                     I015527      31011800000000035003410000017N261217050900000000000103101180000000000000000000000000000000000000000100001136014764JOSE ORLANDO SILVA                      O MESMO                                 O MESMO     23825225ITAGUAI        RJUNIAO UMB DOS CULTOS AFRO BRAS    31011810 000094
10231987175000168817800093673    00005526                     000055260000000000000109                     I015526      31011800000000035003410000017N261217050900000000000103101180000000000000000000000000000000000000000100047672412787JOAO CARLOS STADLER                     O MESMO                                 O MESMO     25625250PETROPOLIS     RJUNIAO UMB DOS CULTOS AFRO BRAS    31011810 000095
10231987175000168817800093673    00005525                     000055250000000000000109                     I015525      31011800000000035003410000017N261217050900000000000103101180000000000000000000000000000000000000000100011981552723DIEGO DE SIQUEIRA VIEIRA                RUA ACU N 339 FUNDOS                    REALENGO - R21765640RIO DE JANEIRO RJUNIAO UMB DOS CULTOS AFRO BRAS    31011810 000096
10231987175000168817800093673    00005524                     000055240000000000000109                     I015524      31011800000000035003410000017N261217050900000000000103101180000000000000000000000000000000000000000100008208769762BRUNO LEONARDO DOMINGUES DA SI          O MESMO                                 O MESMO     25635401PETROPOLIS     RJUNIAO UMB DOS CULTOS AFRO BRAS    31011810 000097
10231987175000168817800093673    00005523                     000055230000000000000109                     I015523      31011800000000035003410000017N261217050900000000000103101180000000000000000000000000000000000000000100003659613703MARIA JOSE DA SILVA LEONCIO DA          RUA: MARIPA LOTE 6 QUADRA 21 - PARQUE BODUQUE DE CAX25223600DUQUE DE CAXIASRJUNIAO UMB DOS CULTOS AFRO BRAS    31011810 000098
10231987175000168817800093673    00005522                     000055220000000000000109                     I015522      31011800000000035003410000017N261217050900000000000103101180000000000000000000000000000000000000000100003763646701ELIZABETE CRISTINA OLIVEIRA DE          RUA: DO JAMBO                           REALENGO    21755070RIO DE JANEIRO RJUNIAO UMB DOS CULTOS AFRO BRAS    31011810 000099
10231987175000168817800093673    00005521                     000055210000000000000109                     I015521      31011800000000035003410000017N261217050900000000000103101180000000000000000000000000000000000000000100000260923796RITA LUZIE HENRIQUE DA SILVA A          O MESMO                                 O MESMO     20541170RIO DE JANEIRO RJUNIAO UMB DOS CULTOS AFRO BRAS    31011810 000100
10231987175000168817800093673    00005520                     000055200000000000000109                     I015520      31011800000000035003410000017N261217050900000000000103101180000000000000000000000000000000000000000100091156386772MARILENE PEREIRA DOS SANTOS CO          ESTRADA DO PORTELA  694                 OSVALDO CRUZ21351050RIO DE JANEIRO RJUNIAO UMB DOS CULTOS AFRO BRAS    31011810 000101
10231987175000168817800093673    00005518                     000055180000000000000109                     I015518      31011800000000035003410000017N261217050900000000000103101180000000000000000000000000000000000000000100099715554768ZARELDA DE SOUZA ESTEVAO                RUA: VALDOMIRO RAIMUNDO Nº 460 - COIMBRBARRA DO PIR27115270BARRA DO PIRAI RJUNIAO UMB DOS CULTOS AFRO BRAS    31011810 000102
10231987175000168817800093673    00005517                     000055170000000000000109                     I015517      31011800000000035003410000017N261217050900000000000103101180000000000000000000000000000000000000000100000152452338DANIELA DE FATIMA SOARES                RUA: MARIA ROSA Nº 90 - PADRE MIGUEL   RIO DE JANEI20740460RIO DE JANEIRO RJUNIAO UMB DOS CULTOS AFRO BRAS    31011810 000103
10231987175000168817800093673    00005516                     000055160000000000000109                     I015516      31011800000000035003410000017N261217050900000000000103101180000000000000000000000000000000000000000100008267557717MARCIA REGINA FELIPE DE SOUZA           ESTRADA DO MENDANHA LOTE 2 QUADRA O     MENDANHA - C23087283RIO DE JANEIRO RJUNIAO UMB DOS CULTOS AFRO BRAS    31011810 000104
10231987175000168817800093673    00005515                     000055150000000000000109                     I015515      31011800000000035003410000017N261217050900000000000103101180000000000000000000000000000000000000000100041294270753DENISE ROCHA ROSA                       RUA, TRIESTE LOTES 41 E 42 QUADRA 2     PIABETA - MA25915000MAGE           RJUNIAO UMB DOS CULTOS AFRO BRAS    31011810 000105
10231987175000168817800093673    00005514                     000055140000000000000109                     I015514      31011800000000035003410000017N261217050900000000000103101180000000000000000000000000000000000000000100009456470776JAMES ARNESS BARBOSA DE OLIVEI          R.JOAQUIM DE QUEIROZ TRAV SAO CARLOS 9B RAMOS - RJ  20766220RIO DE JANEIRO RJUNIAO UMB DOS CULTOS AFRO BRAS    31011810 000106
10231987175000168817800093673    00005513                     000055130000000000000109                     I015513      31011800000000035003410000017N261217050900000000000103101180000000000000000000000000000000000000000100003808829737LEANDRO JOSE OLIVEIRA MENDES            RUA: ALAN KARDEC Nº 23 QUADRA B        PB JUPIRANGU26187590BELFORD ROXO   RJUNIAO UMB DOS CULTOS AFRO BRAS    31011810 000107
10231987175000168817800093673    00005512                     000055120000000000000109                     I015512      31011800000000035003410000017N261217050900000000000103101180000000000000000000000000000000000000000100009263590702JEAN CARLOS DOS SANTOS                  RUA NEVES LOTE 8 QUADRA 3               PARQUE ARARU25585580SAO JOAO DE MERRJUNIAO UMB DOS CULTOS AFRO BRAS    31011810 000108
10231987175000168817800093673    00005511                     000055110000000000000109                     I015511      31011800000000035003410000017N261217050900000000000103101180000000000000000000000000000000000000000100079013686753NEIVA NUNES SENNA                       ALAMEDA SAO SEBASTIAO LOTE 23 QUADRA 12 SAO FRANCISC26352680NOVA IGUACU    RJUNIAO UMB DOS CULTOS AFRO BRAS    31011810 000109
10231987175000168817800093673    00005510                     000055100000000000000109                     I015510      31011800000000035003410000017N261217050900000000000103101180000000000000000000000000000000000000000100001344376754FERNANDA RODRIGUES TEIXEIRA DO          ESTRADA: DO GARGOA Nº 25 - FLORESTINHA CABO FRIO - 28929538CABO FRIO      RJUNIAO UMB DOS CULTOS AFRO BRAS    31011810 000110
10231987175000168817800093673    00005509                     000055090000000000000109                     I015509      31011800000000035003410000017N261217050900000000000103101180000000000000000000000000000000000000000100080728774704NERIANA SILVA DO CARMO                  RUA: NILTON PAULINO Nº 13 A - RAMOS    RIO DE JANEI21061610RIO DE JANEIRO RJUNIAO UMB DOS CULTOS AFRO BRAS    31011810 000111
10231987175000168817800093673    00005508                     000055080000000000000109                     I015508      31011800000000035003410000017N261217050900000000000103101180000000000000000000000000000000000000000100072121122753ALIETE ROCHA DA SILVA VIEIRA            RUA: IBIRAPITANGA N° 211               INHAUMA - RI20766130RIO DE JANEIRO RJUNIAO UMB DOS CULTOS AFRO BRAS    31011810 000112
10231987175000168817800093673    00005507                     000055070000000000000109                     I015507      31011800000000035003410000017N261217050900000000000103101180000000000000000000000000000000000000000100002499344776EUNIRA DA SALINA DE PAULA               ESTRADA: SAPUCAIA Nª 12 - ITAUNA       SAO GONCALO 24473330SAO GONCALO    RJUNIAO UMB DOS CULTOS AFRO BRAS    31011810 000113
10231987175000168817800093673    00005506                     000055060000000000000109                     I015506      31011800000000035003410000017N261217050900000000000103101180000000000000000000000000000000000000000100007151714700VERONICA CONCEICAO DE SOUZA AN          O MESMO                                 0 MESMO     21545420RIO DE JANEIRO RJUNIAO UMB DOS CULTOS AFRO BRAS    31011810 000114
10231987175000168817800093673    00005505                     000055050000000000000109                     I015505      31011800000000035003410000017N261217050900000000000103101180000000000000000000000000000000000000000100022696474753IZAURA MARIA ROCHA DE SOUZA             RUA: AURIFLAMA Nº 154 - GUADALUPE      RIO DE JANEI21660070RIO DE JANEIRO RJUNIAO UMB DOS CULTOS AFRO BRAS    31011810 000115
10231987175000168817800093673    00005504                     000055040000000000000109                     I015504      31011800000000035003410000017N261217050900000000000103101180000000000000000000000000000000000000000100044339682772MARIA APARECIDA DE MOURA MORTA          RUA CARLOS COSTA Nº 25 CASA 2          RIACHUELO  -20970090RIO DE JANEIRO RJUNIAO UMB DOS CULTOS AFRO BRAS    31011810 000116
10231987175000168817800093673    00005503                     000055030000000000000109                     I015503      31011800000000035003410000017N261217050900000000000103101180000000000000000000000000000000000000000100070175225753LEDA FERREIRA FIGUEIREDO                O MESMO                                 O MESMO     21331420RIO DE JANEIRO RJUNIAO UMB DOS CULTOS AFRO BRAS    31011810 000117
10231987175000168817800093673    00005502                     000055020000000000000109                     I015502      31011800000000035003410000017N261217050900000000000103101180000000000000000000000000000000000000000100009368867739NEUZA DA SILVA MAIA                     RUA: PETROPOLIS LOTE 22 QUDRA 181 CASA 1SAO GONCALO 24455806SAO GONCALO    RJUNIAO UMB DOS CULTOS AFRO BRAS    31011810 000118
10231987175000168817800093673    00005501                     000055010000000000000109                     I015501      31011800000000035003410000017N261217050900000000000103101180000000000000000000000000000000000000000100001687749760ELIZABETE MARINS GOMES                  PREFEITO JOAQUIM MENDES N° 342         DA AMIZADE -24902100MARICA         RJUNIAO UMB DOS CULTOS AFRO BRAS    31011810 000119
10231987175000168817800093673    00005500                     000055000000000000000109                     I015500      31011800000000035003410000017N261217050900000000000103101180000000000000000000000000000000000000000100000463235703KATIA CRISTINA RODRIGUES MACHA          O MESMO                                 O MESMO     21250240RIO DE JANEIRO RJUNIAO UMB DOS CULTOS AFRO BRAS    31011810 000120
10231987175000168817800093673    00005499                     000054990000000000000109                     I015499      31011800000000035003410000017N261217050900000000000103101180000000000000000000000000000000000000000100059962615704ILMA DA SILVA PETRONILHO                RUA, ALBERTO CAMPOS Nº 40 APTº 902    IPANEMA - RJ22411030NOVA IGUACU    RJUNIAO UMB DOS CULTOS AFRO BRAS    31011810 000121
10231987175000168817800093673    00005498                     000054980000000000000109                     I015498      31011800000000035003410000017N261217050900000000000103101180000000000000000000000000000000000000000100073711616704SANDRA REGINA BESERRA SILVA             ESTRADA: CAMPO DA AREIA Nº 301 - PECHINJACAREPAGUA 22743311RIO DE JANEIRO RJUNIAO UMB DOS CULTOS AFRO BRAS    31011810 000122
10231987175000168817800093673    00005496                     000054960000000000000109                     I015496      31011800000000035003410000017N261217050900000000000103101180000000000000000000000000000000000000000100005776594723WALACE RODRIGUES                        ESTRADA: DOS TEIXEIRAS Nº 405, RUA 4 CATAQUARA - JA22423205RIO DE JANEIRO RJUNIAO UMB DOS CULTOS AFRO BRAS    31011810 000123
10231987175000168817800093673    00005495                     000054950000000000000109                     I015495      31011800000000035003410000017N261217050900000000000103101180000000000000000000000000000000000000000100008633241773MARCIA CRISTINA VIDEIRO MATEUS          RUA PEDRA DE INDAIA N° 10              PEDRA DE GUA23026440RIO DE JANEIRO RJUNIAO UMB DOS CULTOS AFRO BRAS    31011810 000124
10231987175000168817800093673    00005494                     000054940000000000000109                     I015494      31011800000000035003410000017N261217050900000000000103101180000000000000000000000000000000000000000100059919442704VANDA LUCIA PINHEIRO ROSA               RUA: AIRTON SENA N° 54 - JD PAULISTA   CAMPO GRANDE21215550RIO DE JANEIRO RJUNIAO UMB DOS CULTOS AFRO BRAS    31011810 000125
10231987175000168817800093673    00005493                     000054930000000000000109                     I015493      31011800000000035003410000017N261217050900000000000103101180000000000000000000000000000000000000000100002856003702ANDRE ALVES LIBONATI                    MARIA VARGAS Nº 10 - ANDREA 4107.7702  CACHOEIRA 2721540240RIO DE JANEIRO RJUNIAO UMB DOS CULTOS AFRO BRAS    31011810 000126
10231987175000168817800093673    00005492                     000054920000000000000109                     I015492      31011800000000035003410000017N261217050900000000000103101180000000000000000000000000000000000000000100042996260791ALAYDE CUNHA DE ALMEIDA E SILV          AVENIDA: MARECHAL HERMES Nº 63 - VILA SDUQUE DE CAX25065110DUQUE DE CAXIASRJUNIAO UMB DOS CULTOS AFRO BRAS    31011810 000127
10231987175000168817800093673    00005491                     000054910000000000000109                     I015491      31011800000000035003410000017N261217050900000000000103101180000000000000000000000000000000000000000100000074752375CLAUDIARA TEIXEIRA DA SILVA             RUA CAMBUCI, 295                        MUQUECA - BA27140280BARRA DO PIRAI RJUNIAO UMB DOS CULTOS AFRO BRAS    31011810 000128
10231987175000168817800093673    00005490                     000054900000000000000109                     I015490      31011800000000035003410000017N261217050900000000000103101180000000000000000000000000000000000000000100041957555734SELMA CORREA DIAS                       RUA PROJETADA 6 QUADRA 4 LOTE 21        MORADA DE CO23060550INHOAIBA       RJUNIAO UMB DOS CULTOS AFRO BRAS    31011810 000129
10231987175000168817800093673    00005489                     000054890000000000000109                     I015489      31011800000000035003410000017N261217050900000000000103101180000000000000000000000000000000000000000100005414691717UANDERSON DE SOUZA XAVIER               RUA: ALFREDO MANSUR                     MORRO GAMA  27150430BARRA DO PIRAI RJUNIAO UMB DOS CULTOS AFRO BRAS    31011810 000130
10231987175000168817800093673    00005488                     000054880000000000000109                     I015488      31011800000000035003410000017N261217050900000000000103101180000000000000000000000000000000000000000100074597035753LUCIMAR DE SOUZA DIAS                   RUA LIGIA MALAGUTI, 150                 BOMBAS DO GU26357000NOVA IGUACU    RJUNIAO UMB DOS CULTOS AFRO BRAS    31011810 000131
10231987175000168817800093673    00005487                     000054870000000000000109                     I015487      31011800000000035003410000017N261217050900000000000103101180000000000000000000000000000000000000000100077631765715ITAMAR COSTA DE ALMEIDA                 RUA, DOIS DE MAIO Nº 6 B - ATALAIA     CARTA COBR J24135000NITEROI        RJUNIAO UMB DOS CULTOS AFRO BRAS    31011810 000132
10231987175000168817800093673    00005486                     000054860000000000000109                     I015486      31011800000000035003410000017N261217050900000000000103101180000000000000000000000000000000000000000100001580373755MARLENE REIS DE CARVALHO                RUA: JOAO RICARDO LOTE 2 QUADRA 8 CASA 1SAO GONCALO 24754080SAO GONCALO    RJUNIAO UMB DOS CULTOS AFRO BRAS    31011810 000133
10231987175000168817800093673    00005485                     000054850000000000000109                     I015485      31011800000000035003410000017N261217050900000000000103101180000000000000000000000000000000000000000100008389266733BEATRIZ DE AZEVEDO NUNES                RUA: SAPOPEMBA Nº 246 - BENTO RIBEIRO  RIO DE JANEI21321240RIO DE JANEIRO RJUNIAO UMB DOS CULTOS AFRO BRAS    31011810 000134
10231987175000168817800093673    00005484                     000054840000000000000109                     I015484      31011800000000035003410000017N261217050900000000000103101180000000000000000000000000000000000000000100003276628759HERCULES LIMA TAVARES                   RUA: ALFREDO MANSUR Nº 150 CASA 3 - MORBARRA DO PIR27150430BARRA DO PIRAI RJUNIAO UMB DOS CULTOS AFRO BRAS    31011810 000135
10231987175000168817800093673    00005483                     000054830000000000000109                     I015483      31011800000000035003410000017N261217050900000000000103101180000000000000000000000000000000000000000100002728280762VERA EUNICE MARIA LIMA                  RUA: KEMAL PACHA Nº 5 - VILA SANTO ANTODUQUE DE CAX25040220DUQUE DE CAXIASRJUNIAO UMB DOS CULTOS AFRO BRAS    31011810 000136
10231987175000168817800093673    00005482                     000054820000000000000109                     I015482      31011800000000035003410000017N261217050900000000000103101180000000000000000000000000000000000000000100032759827704TEREZA COSTA DE CASTRO                  RUA JOAO BATISTA DA FONSECA, 72         BARRA DO PIR27115020RIO DE JANEIRO RJUNIAO UMB DOS CULTOS AFRO BRAS    31011810 000137
10231987175000168817800093673    00005481                     000054810000000000000109                     I015481      31011800000000035003410000017N261217050900000000000103101180000000000000000000000000000000000000000100012732003735THAYS CRISTINA CAMPOS BARBOSA           RUA  LUIS BARBALHO 445                  ROCHA MIRAND21510110RIO DE JANEIRO  RUNIAO UMB DOS CULTOS AFRO BRAS    31011810 000138
10231987175000168817800093673    00005480                     000054800000000000000109                     I015480      31011800000000035003410000017N261217050900000000000103101180000000000000000000000000000000000000000100061009865749JORGINA OLEGARIO DE OLIVEIRA            O MESMO                                 O MESMO     24715671SAO GONCALO    RJUNIAO UMB DOS CULTOS AFRO BRAS    31011810 000139
10231987175000168817800093673    00005479                     000054790000000000000109                     I015479      31011800000000035003410000017N261217050900000000000103101180000000000000000000000000000000000000000100053207823734HELENICE TEODORO DA SILVA CARV          O MESMO                                 O MESMO     23026010RIO DE JANEIRO RJUNIAO UMB DOS CULTOS AFRO BRAS    31011810 000140
10231987175000168817800093673    00005478                     000054780000000000000109                     I015478      31011800000000035003410000017N261217050900000000000103101180000000000000000000000000000000000000000100079072283791MYRIAN AMORIM RIBEIRO                   O MESMO                                 O MESMO     21341332RIO DE JANEIRO RJUNIAO UMB DOS CULTOS AFRO BRAS    31011810 000141
10231987175000168817800093673    00005477                     000054770000000000000109                     I015477      31011800000000035003410000017N261217050900000000000103101180000000000000000000000000000000000000000100003561463754NORMA CRISTINA JUSTO PRUDENTE           O MESMO                                 O MESMO     21635040RIO DE JANEIRO RJUNIAO UMB DOS CULTOS AFRO BRAS    31011810 000142
10231987175000168817800093673    0000166                      000001660000000000000109                     I01166       20121700000000350003410000017N101017050900000000000102012170000000000000000000000000000000000000000100094051259749VANDA DA SILVA BARBOSA                  RUA MARIA DA GLORIA SANTOS, 13          SAO FERNANDO23565230RIO DE JANEIRO RJUNIAO UMB DOS CULTOS AFRO BRAS    20121710 000143
9                                                                                                                                                                                                                                                                                                                                                                                                         000144
