01REMESSA01COBRANCA       916200163100        União Umb dos Cultos Afro Bra341BANCO ITAU SA  160618                                                                                                                                                                                                                                                                                                      000001
10231987175000168916200163100    000021088                    000210880000000000000109                     I0221088     05061800000000200003410000017N270518104700000000000100506180000000000000000000000000000000000000000100003723310761RODRIGO CARDOSO DA CUNHA                EST: VELHA DE MARICA                    BALDEADOR   24140000NITEROI        RJUNIAO UMB DOS CULTOS AFRO BRAS    05061810 000002
10231987175000168916200163100    000020943                    000209430000000000000109                     I0220943     30081800000000035003410000017N100518104700000000000103008180000000000000000000000000000000000000000100002066794759MARCELO VIEIRA DA SILVA                 RUA: SIMAS                              ENCANTADO   20745030RIO DE JANEIRO RJUNIAO UMB DOS CULTOS AFRO BRAS    30081810 000003
10231987175000168916200163100    000020942                    000209420000000000000109                     I0220942     30071800000000035003410000017N100518104700000000000103007180000000000000000000000000000000000000000100002066794759MARCELO VIEIRA DA SILVA                 RUA: SIMAS                              ENCANTADO   20745030RIO DE JANEIRO RJUNIAO UMB DOS CULTOS AFRO BRAS    30071810 000004
10231987175000168916200163100    000017772                    000177720000000000000109                     I3417772     30071800000000035003410000017N070518104700000000000103007180000000000000000000000000000000000000000100001115386700DILZA TORRES PINTO DE JESUS             RUA: MARECHAL BARBEDO                   REALENGO - R21735340RIO DE JANEIRO RJUNIAO UMB DOS CULTOS AFRO BRAS    30071810 000005
10231987175000168916200163100    000015952                    000159520000000000000109                     I3415952     30061800000000035003410000017N070518104700000000000103006180000000000000000000000000000000000000000100004253784704ALEXANDRE SIMOES NASCIMENTO             RUA SEBASTIAO DRUMOND N 179             ANCHIETA - R21640360RIO DE JANEIRO RJUNIAO UMB DOS CULTOS AFRO BRAS    30061810 000006
10231987175000168916200163100    000014583                    000145830000000000000109                     I3414583     30061800000000035003410000017N070518104700000000000103006180000000000000000000000000000000000000000100001115386700DILZA TORRES PINTO DE JESUS             RUA: MARECHAL BARBEDO                   REALENGO - R21735340RIO DE JANEIRO RJUNIAO UMB DOS CULTOS AFRO BRAS    30061810 000007
10231987175000168916200163100    00009090                     000090900000000000000109                     I029090      06021800000000315003410000017N010218104700000000000100602180000000000000000000000000000000000000000100003778949748MARLENE PEREIRA DA SILVA MELO           RUA BARAO DE AMAZONAS S/Nº             MARIA CONGA 25900000MAGE           RJUNIAO UMB DOS CULTOS AFRO BRAS    06021810 000008
10231987175000168916200163100    00009055                     000090550000000000000109                     I029055      20021800000000300003410000017N230118104700000000000102002180000000000000000000000000000000000000000100040068023820INGRID DANIELA FERREIRA                 RUA JOSE GARCIA DE CARVALHO             JARDIM ARIAN16400460LINS           SPUNIAO UMB DOS CULTOS AFRO BRAS    20021810 000009
10231987175000168916200163100    00009054                     000090540000000000000109                     I029054      20021800000000700003410000017N230118104700000000000102002180000000000000000000000000000000000000000100000993569706NELSON LUCIANO DE CASTRO                RUA: PROJETADA S/N                      ITATIQUARA -28970000ARARUAMA       RJUNIAO UMB DOS CULTOS AFRO BRAS    20021810 000010
10231987175000168916200163100    00009053                     000090530000000000000109                     I029053      20021800000000700003410000017N230118104700000000000102002180000000000000000000000000000000000000000100097128830782ANA CLAUDIA DIAS                        RUA EXPEDICIONARIO PEDRO GRACIANO MOREIRALMERINDA   24742010SAO GONCALO    RJUNIAO UMB DOS CULTOS AFRO BRAS    20021810 000011
10231987175000168916200163100    00009042                     000090420000000000000109                     I029042      12021800000000175003410000017N180118104700000000000101202180000000000000000000000000000000000000000100009956479764TATIANE VASCONCELOS DA SILVA            RUA SANTA MARGARIDA N 337               PIABETA - MA25900000MAGE           RJUNIAO UMB DOS CULTOS AFRO BRAS    12021810 000012
10231987175000168916200163100    00009030                     000090300000000000000109                     I029030      31011800000000105003410000017N150118104700000000000103101180000000000000000000000000000000000000000100015415831777DOUGLAS DA SILVA DE SOUZA               RUA CAPINTUBA                           IRAJA       21361210RIO DE JANEIRO RJUNIAO UMB DOS CULTOS AFRO BRAS    31011810 000013
10231987175000168916200163100    00009025                     000090250000000000000109                     I029025      31011800000000035003410000017N120118104700000000000103101180000000000000000000000000000000000000000100005137259705CRISTINA DE OLIVEIRA DA SILVA           AVENIDA CAMPO MOURAO SN APARTAMENTO 102 JARDIM MARAV23031080CAMPO GRANDE   RJUNIAO UMB DOS CULTOS AFRO BRAS    31011810 000014
10231987175000168916200163100    00009024                     000090240000000000000109                     I029024      20021800000000340003410000017N120118104700000000000102002180000000000000000000000000000000000000000100082396841734LUCIA DE FATIMA DE SOUZA                RUA: RESPLANDECER                       PARAISO     26297159NOVA IGUACU    RJUNIAO UMB DOS CULTOS AFRO BRAS    20021810 000015
10231987175000168916200163100    00009018                     000090180000000000000109                     I029018      31011800000000035003410000017N110118104700000000000103101180000000000000000000000000000000000000000100003558966724ANDREA CORDEIRO DA CONCEICAO S          RUA  PARATI, 379 - KM 35                BOM JESUS - 26298183NOVA IGUACU    RJUNIAO UMB DOS CULTOS AFRO BRAS    31011810 000016
10231987175000168916200163100    00009011                     000090110000000000000109                     I029011      15021800000000385003410000017N100118104700000000000101502180000000000000000000000000000000000000000100003028407701MARIA MARINETE OLIVEIRA  DA SI          RUA TURIUVA LOTE 40 QUADRA 54           VILA MELIPOL26150000BELFORD ROXO   RJUNIAO UMB DOS CULTOS AFRO BRAS    15021810 000017
10231987175000168916200163100    00009004                     000090040000000000000109                     I029004      12021800000000385003410000017N090118104700000000000101202180000000000000000000000000000000000000000100003028407701MARIA MARINETE OLIVEIRA  DA SI          RUA TURIUVA LOTE 40 QUADRA 54           VILA MELIPOL26150000BELFORD ROXO   RJUNIAO UMB DOS CULTOS AFRO BRAS    12021810 000018
10231987175000168916200163100    00008996                     000089960000000000000109                     I028996      11011800000000500003410000017N080118104700000000000101101180000000000000000000000000000000000000000100096531287950FERNANDO RIBEIRO DE SOUZA               RUA JOAO PEDRO TESCH N 332 D            ALTO DA SERR25635500PETROPOLIS     RJUNIAO UMB DOS CULTOS AFRO BRAS    11011810 000019
10231987175000168916200163100    00008994                     000089940000000000000109                     I028994      05021800000000700003410000017N080118104700000000000100502180000000000000000000000000000000000000000100013785300719CARLOS HENRIQUE DA CONCEICAO C          O MESMO                                 O MESMO     27113075BARRA DO PIRAI RJUNIAO UMB DOS CULTOS AFRO BRAS    05021810 000020
10231987175000168916200163100    00008991                     000089910000000000000109                     I028991      31011800000000035003410000017N080118104700000000000103101180000000000000000000000000000000000000000100048623334787IOLANDA JOSE PROFIRIO BARRETO           RUA TRES Nº 102                        VILA DO SOL 28900000CABO FRIO      RJUNIAO UMB DOS CULTOS AFRO BRAS    31011810 000021
10231987175000168916200163100    00008989                     000089890000000000000109                     I028989      25011800000000140003410000017N050118104700000000000102501180000000000000000000000000000000000000000100049498320772LUZIA INACIO BARBOSA                    RUA JOAO ALBERTO, LOTE 2 QUADRA 36      EDEN - SAO J25540060SAO JOAO DE MERRJUNIAO UMB DOS CULTOS AFRO BRAS    25011810 000022
10231987175000168916200163100    00008980                     000089800000000000000109                     I028980      31011800000000035003410000017N030118104700000000000103101180000000000000000000000000000000000000000100085773760797EDIR FERREIRA DA SILVA                  RUA DESEMBARGADOR FERREIRA PINTO, LOTE 3VALVERDE - N26291078NOVA IGUACU    RJUNIAO UMB DOS CULTOS AFRO BRAS    31011810 000023
10231987175000168916200163100    00008978                     000089780000000000000109                     I028978      31011800000000035003410000017N030118104700000000000103101180000000000000000000000000000000000000000100006264292770MARIZIA SILVA MATHIAS                   RUA SHOYO, 129                          PARAISO - NO26297117NOVA IGUACU    RJUNIAO UMB DOS CULTOS AFRO BRAS    31011810 000024
10231987175000168916200163100    00008972                     000089720000000000000109                     I028972      31011800000000035003410000017N030118104700000000000103101180000000000000000000000000000000000000000100014708764774ADILSON CARNEIRO PINTO                  R JUREMA 49                             GUARATIBA   23035380RIO DE JANEIRO RJUNIAO UMB DOS CULTOS AFRO BRAS    31011810 000025
10231987175000168916200163100    00008970                     000089700000000000000109                     I028970      31011800000000035003410000017N030118104700000000000103101180000000000000000000000000000000000000000100000879400781DEBORA NANCY DA SILVA COELHO            RUA: OSCAR Nº 36 - MIGUEL COUTO        NOVA IGUACU 26145210NOVA IGUACU    RJUNIAO UMB DOS CULTOS AFRO BRAS    31011810 000026
10231987175000168916200163100    00008968                     000089680000000000000109                     I028968      31011800000000035003410000017N030118104700000000000103101180000000000000000000000000000000000000000100002330426798MARIA ALVES FERREIRA                    LOTE 1 CASA 1                           COMENDADOR S26280700RIO DE JANEIRO RJUNIAO UMB DOS CULTOS AFRO BRAS    31011810 000027
10231987175000168916200163100    00008966                     000089660000000000000109                     I028966      31011800000000035003410000017N030118104700000000000103101180000000000000000000000000000000000000000100073887145704MARIA LUCIA APOLINARIO                  RUA AMERICO DA ROCHA N 779 CASA 1 FUNDOSMARECHAL HER21555300RIO DE JANEIRO RJUNIAO UMB DOS CULTOS AFRO BRAS    31011810 000028
10231987175000168916200163100    00008964                     000089640000000000000109                     I028964      31011800000000035003410000017N030118104700000000000103101180000000000000000000000000000000000000000100045469805720NIVALDA MARIA FERREIRA                  RUA LASSANCE LOTE 14 QUADRA 9           JARDIM MARAV23033100CAMPO GRANDE   RJUNIAO UMB DOS CULTOS AFRO BRAS    31011810 000029
10231987175000168916200163100    00008962                     000089620000000000000109                     I028962      31011800000000035003410000017N030118104700000000000103101180000000000000000000000000000000000000000100058500120797CIRLEA SALDANHA DA COSTA                RUA: CARAMURU                           PRACA DA BAN25560110SAO JOAO DE MERRJUNIAO UMB DOS CULTOS AFRO BRAS    31011810 000030
10231987175000168916200163100    00008960                     000089600000000000000109                     I028960      31011800000000035003410000017N030118104700000000000103101180000000000000000000000000000000000000000100033565708700MARLY DA SILVA UCHOA                    AVENIDA MINISTRO EDGARD ROMERO, 597 CASAMADUREIRA - 21360200RIO DE JANEIRO RJUNIAO UMB DOS CULTOS AFRO BRAS    31011810 000031
10231987175000168916200163100    00008954                     000089540000000000000109                     I028954      31011800000000035003410000017N030118104700000000000103101180000000000000000000000000000000000000000200000000000302MARIA DA LUZ MAGALHAES                  RUA JOSE FERREIRA MURRO, 20             MIGUEL COUTO26070527NOVA IGUACU    RJUNIAO UMB DOS CULTOS AFRO BRAS    31011810 000032
10231987175000168916200163100    00008936                     000089360000000000000109                     I028936      31011800000000035003410000017N020118104700000000000103101180000000000000000000000000000000000000000100005953749724JUCIARA DA SILVA XAVIER                 RUA CONDE DE AZAMBUJA N 526             MARIA DA GRA20785342RIO DE JANEIRO RJUNIAO UMB DOS CULTOS AFRO BRAS    31011810 000033
10231987175000168916200163100    00008930                     000089300000000000000109                     I028930      31011800000000035003410000017N020118104700000000000103101180000000000000000000000000000000000000000100015110892709YASMIN FIALHO HANGES                    ESTRADA HENRIQUE DE MELO N 193 FUNDOS   BENTO RIBEIR21340190RIO DE JANEIRO RJUNIAO UMB DOS CULTOS AFRO BRAS    31011810 000034
10231987175000168916200163100    00008928                     000089280000000000000109                     I028928      31011800000000035003410000017N020118104700000000000103101180000000000000000000000000000000000000000100093788150734REGINA DA SILVA VERONEZI DOS S          RUA ABATE 105                           JARDIM CANAA26263040NOVA IGUACU    RJUNIAO UMB DOS CULTOS AFRO BRAS    31011810 000035
10231987175000168916200163100    00008926                     000089260000000000000109                     I028926      31011800000000035003410000017N020118104700000000000103101180000000000000000000000000000000000000000100060237090791ELIZABETH TELLES DA SILVA               ESTRADA OUTEIRO SANTO 900 LOTE 1 QUADRA TAQUARA  RJ 22713164RIO DE JANEIRO RJUNIAO UMB DOS CULTOS AFRO BRAS    31011810 000036
10231987175000168916200163100    00008925                     000089250000000000000109                     I028925      31011800000000035003410000017N020118104700000000000103101180000000000000000000000000000000000000000100000000001279ALESSANDRA REIS DOS SANTOS              RUA: MARIA TOMAZIA Nº 125 - FUNDOS     CABARAL - NI21321660RIO DE JANEIRO RJUNIAO UMB DOS CULTOS AFRO BRAS    31011810 000037
10231987175000168916200163100    00008924                     000089240000000000000109                     I028924      31011800000000035003410000017N020118104700000000000103101180000000000000000000000000000000000000000100007336257704NERALDO DA ROCHA JUNIOR                 RUA CARAMURU LOTE 36 QUADRA 4           PARADA ANGEL25271320DUQUE DE CAXIASRJUNIAO UMB DOS CULTOS AFRO BRAS    31011810 000038
10231987175000168916200163100    00008922                     000089220000000000000109                     I028922      31011800000000035003410000017N020118104700000000000103101180000000000000000000000000000000000000000100045544085749LUCIANO PORTO DE MORAES                 RUA OLIMPIO DE CARVALHO, 120            AMENDOEIRA -24732440SAO GONCALO    RJUNIAO UMB DOS CULTOS AFRO BRAS    31011810 000039
10231987175000168916200163100    00008921                     000089210000000000000109                     I028921      31011800000000035003410000017N020118104700000000000103101180000000000000000000000000000000000000000100091473209749CRISTOVAO JOSE DA SILVA MAGALH          RUA VICTORIO PEREIRA NUNES, 57          CASTELANEA -25640262PETROPOLIS     RJUNIAO UMB DOS CULTOS AFRO BRAS    31011810 000040
10231987175000168916200163100    00008918                     000089180000000000000109                     I028918      31011800000000035003410000017N020118104700000000000103101180000000000000000000000000000000000000000100090036018791SILVIA ELAINE GEVEGIR DA SILVA          RUA VINTE, QUADRA 305 LOTE 34           PARADA MORAB25265130DUQUE DE CAXIASRJUNIAO UMB DOS CULTOS AFRO BRAS    31011810 000041
10231987175000168916200163100    00008917                     000089170000000000000109                     I028917      31011800000000035003410000017N020118104700000000000103101180000000000000000000000000000000000000000100014653084742THEILOR MORAIS DE MIRANDA               RUA SAO BENEDITO, 25                    VILA GENI - 23826010ITAGUAI        RJUNIAO UMB DOS CULTOS AFRO BRAS    31011810 000042
10231987175000168916200163100    00008914                     000089140000000000000109                     I028914      31011800000000035003410000017N020118104700000000000103101180000000000000000000000000000000000000000100053606259769ROSILANE FRANCISCA DOS SANTOS           RUA ARTUR FARIAS N 252                  RIO DO DOURO25922184MAGE           RJUNIAO UMB DOS CULTOS AFRO BRAS    31011810 000043
10231987175000168916200163100    00008913                     000089130000000000000109                     I028913      31011800000000035003410000017N020118104700000000000103101180000000000000000000000000000000000000000100000355768712ANA CRISTINA VERISSIMO DA SILV          ESTRADA DO TINGUI  1990                 CAMPO GRANDE23075006RIO DE JANEIRO RJUNIAO UMB DOS CULTOS AFRO BRAS    31011810 000044
10231987175000168916200163100    00008907                     000089070000000000000109                     I028907      31011800000000035003410000017N020118104700000000000103101180000000000000000000000000000000000000000100084407883715MAURO FERREIRA MATHEUS                  ESTRADA DO ENGENHO, RUA CASTOR DE ANDRADPRACA PIQUER21370200BANGU          RJUNIAO UMB DOS CULTOS AFRO BRAS    31011810 000045
10231987175000168916200163100    00008905                     000089050000000000000109                     I028905      31011800000000035003410000017N020118104700000000000103101180000000000000000000000000000000000000000100003430627710PATRICIA DA SILVA VASCONCELOS           RUA TAPUTERA N 140 FUNDOS               BARAO DE IRI25906780MAGE           RJUNIAO UMB DOS CULTOS AFRO BRAS    31011810 000046
10231987175000168916200163100    00008899                     000088990000000000000109                     I028899      31011800000000035003410000017N020118104700000000000103101180000000000000000000000000000000000000000100000200790790LUIS JORGE MOCO                         RUA: ECA DE QUEIROS LOTE 74 QUADRA 7    PANTANAL - D25040350DUQUE DE CAXIASRJUNIAO UMB DOS CULTOS AFRO BRAS    31011810 000047
10231987175000168916200163100    00008898                     000088980000000000000109                     I028898      31011800000000035003410000017N020118104700000000000103101180000000000000000000000000000000000000000100005953253605MILTON COELHO DO NASCIMENTO JU          RUA BEZERRA DE MENEZES N 73 APT 102     VAZ LOBO - R21361000RIO DE JANEIRO RJUNIAO UMB DOS CULTOS AFRO BRAS    31011810 000048
10231987175000168916200163100    00008897                     000088970000000000000109                     I028897      31011800000000035003410000017N020118104700000000000103101180000000000000000000000000000000000000000100000000001251GUILHERME SANTOS LINHARES               RUA ROUGET LISLE SN CASA 21 LOTE 29 52  PANTANAL - D25040360DUQUE DE CAXIASRJUNIAO UMB DOS CULTOS AFRO BRAS    31011810 000049
10231987175000168916200163100    00008896                     000088960000000000000109                     I028896      31011800000000035003410000017N020118104700000000000103101180000000000000000000000000000000000000000100010368667774SUZANA PEREIRA MOIZINHO                 RUA CONCEICAO DA PEDRA N 77             ARNALDO EUGE23016330CAMPO GRANDE   RJUNIAO UMB DOS CULTOS AFRO BRAS    31011810 000050
10231987175000168916200163100    00008895                     000088950000000000000109                     I028895      31011800000000035003410000017N020118104700000000000103101180000000000000000000000000000000000000000100000937144754EGLEA MARIA DE JESUS ROCHA DE           RUA MARIO GARCIA LOTE 7 QUADRA 60       VILA SANTO A25040370DUQUE DE CAXIASRJUNIAO UMB DOS CULTOS AFRO BRAS    31011810 000051
10231987175000168916200163100    00008894                     000088940000000000000109                     I028894      31011800000000035003410000017N020118104700000000000103101180000000000000000000000000000000000000000100049490087734DIRCE MARA DE OLIVEIRA PAULA            RUA OTILIO LIMA LOTE 2 QUADRA 130       SANTA LUZIA 24721490SAO GONCALO    RJUNIAO UMB DOS CULTOS AFRO BRAS    31011810 000052
10231987175000168916200163100    00008893                     000088930000000000000109                     I028893      31011800000000035003410000017N020118104700000000000103101180000000000000000000000000000000000000000100002578661758ANA MARIA BATISTA DA SILVA              RUA SIMOES DE SOUZA SN LOTE 13 QUADRA 20JARDIM PRIMA25223520DUQUE DE CAXIASRJUNIAO UMB DOS CULTOS AFRO BRAS    31011810 000053
10231987175000168916200163100    00008892                     000088920000000000000109                     I028892      31011800000000035003410000017N020118104700000000000103101180000000000000000000000000000000000000000100011341119750ELAINE BARBOSA DOS SANTOS               ESTRADA DO BARRO VERMELHO N 784         ROCHA MIRAND21540500RIO DE JANEIRO RJUNIAO UMB DOS CULTOS AFRO BRAS    31011810 000054
10231987175000168916200163100    00008891                     000088910000000000000109                     I028891      31011800000000035003410000017N020118104700000000000103101180000000000000000000000000000000000000000100010619254718MARIA TEREZA ANDRADE DOS SANTO          RUA: DOUTOR MANUEL LUIZ N 621           VALVERDE - N26291003NOVA IGUACU    RJUNIAO UMB DOS CULTOS AFRO BRAS    31011810 000055
10231987175000168916200163100    00008889                     000088890000000000000109                     I028889      31011800000000035003410000017N020118104700000000000103101180000000000000000000000000000000000000000100078790344715ROSANE ESTEVES DOS SANTOS               RUA 49 LOTE 12 QUADRA 107               JARDIM DA PA25010730DUQUE DE CAXIASRJUNIAO UMB DOS CULTOS AFRO BRAS    31011810 000056
10231987175000168916200163100    00008888                     000088880000000000000109                     I028888      31011800000000035003410000017N020118104700000000000103101180000000000000000000000000000000000000000100001236998782ELIANE CASEMIRO GOMES BARBOSA           RUA BARONESA, 175 CASA 17               PRACA SECA -21321000RIO DE JANEIRO RJUNIAO UMB DOS CULTOS AFRO BRAS    31011810 000057
10231987175000168916200163100    00008887                     000088870000000000000109                     I028887      31011800000000035003410000017N020118104700000000000103101180000000000000000000000000000000000000000100059744510749ANGELA REGINA ROSA DE SA                RUA SUEZ, 174 - KM 35                   BOM JESUS - 26298180NOVA IGUACU    RJUNIAO UMB DOS CULTOS AFRO BRAS    31011810 000058
10231987175000168916200163100    00008885                     000088850000000000000109                     I028885      31011800000000035003410000017N020118104700000000000103101180000000000000000000000000000000000000000100015137144738RAFAEL NUNES ALVES SALSA                RUA PUIPE, 123                          BENTO RIBEIR21550420RIO DE JANEIRO RJUNIAO UMB DOS CULTOS AFRO BRAS    31011810 000059
10231987175000168916200163100    00008879                     000088790000000000000109                     I028879      31011800000000035003410000017N020118104700000000000103101180000000000000000000000000000000000000000100050600567753MARIA JOSE DA SILVA                     RUA JULIETA, 7 APTO 201                 PIEDADE - RI20751440RIO DE JANEIRO RJUNIAO UMB DOS CULTOS AFRO BRAS    31011810 000060
10231987175000168916200163100    00008876                     000088760000000000000109                     I028876      31011800000000035003410000017N020118104700000000000103101180000000000000000000000000000000000000000100007730416727ALESSANDRA REGINA DOS ANJOS             RUA NEVES, 119                          PARQUE TIETE25585380SAO JOAO DE MERRJUNIAO UMB DOS CULTOS AFRO BRAS    31011810 000061
10231987175000168916200163100    00008874                     000088740000000000000109                     I028874      31011800000000035003410000017N020118104700000000000103101180000000000000000000000000000000000000000100091323762787MARIA ISABEL DE ALBUQUERQUE PI          RUA MANAPA, 159                         VALVERDE - N26290639NOVA IGUACU    RJUNIAO UMB DOS CULTOS AFRO BRAS    31011810 000062
10231987175000168916200163100    00008873                     000088730000000000000109                     I028873      31011800000000035003410000017N020118104700000000000103101180000000000000000000000000000000000000000100005368533713DIVALCI COELHO REINALDO                 RUA CEVADA, 17                          PANTANAL    26297108NOVA IGUACU    RJUNIAO UMB DOS CULTOS AFRO BRAS    31011810 000063
10231987175000168916200163100    00008872                     000088720000000000000109                     I028872      31011800000000035003410000017N020118104700000000000103101180000000000000000000000000000000000000000100010093629761DANIELLE DO NASCIMENTO NICACIO          ESTRADA DA GRANJA, 100 FRENTE           PALHADA - NO26290249NOVA IGUACU    RJUNIAO UMB DOS CULTOS AFRO BRAS    31011810 000064
10231987175000168916200163100    00008868                     000088680000000000000109                     I028868      31011800000000035003410000017N020118104700000000000103101180000000000000000000000000000000000000000100008448034724CLAUDIA DA SILVA SANTANA                RUA SANTA LUZIA, 115                    NOVA ERA - N26265560NOVA IGUACU    RJUNIAO UMB DOS CULTOS AFRO BRAS    31011810 000065
10231987175000168916200163100    00008867                     000088670000000000000109                     I028867      31011800000000035003410000017N020118104700000000000103101180000000000000000000000000000000000000000100066859123915ROBERTO ALVES DO NASCIMENTO             RUA MARECHAL DEODORO, 499               CENTRO - PAR23970000PARATY         RJUNIAO UMB DOS CULTOS AFRO BRAS    31011810 000066
10231987175000168916200163100    00008866                     000088660000000000000109                     I028866      31011800000000035003410000017N020118104700000000000103101180000000000000000000000000000000000000000100061178543749ROSILDA ALVES DA COSTA                  RUA CUBA CASA 582                       PENHA CIRCUL21200160RIO DE JANEIRO RJUNIAO UMB DOS CULTOS AFRO BRAS    31011810 000067
10231987175000168916200163100    00008865                     000088650000000000000109                     I028865      31011800000000035003410000017N020118104700000000000103101180000000000000000000000000000000000000000100097402508749MARIA DE OLIVEIRA SOUZA SAMPAI          RUA PROJETADA A, 47                     JARDIM NOVA 25000000DUQUE DE CAXIASRJUNIAO UMB DOS CULTOS AFRO BRAS    31011810 000068
10231987175000168916200163100    00008863                     000088630000000000000109                     I028863      31011800000000035003410000017N020118104700000000000103101180000000000000000000000000000000000000000100071926305787PEDRO PAULO DE ARAUJO MALHEIRO          RUA RAFAEL BORDALO, 31                  GUARATIBA - 23032590RIO DE JANEIRO RJUNIAO UMB DOS CULTOS AFRO BRAS    31011810 000069
10231987175000168916200163100    00008859                     000088590000000000000109                     I028859      31011800000000035003410000017N020118104700000000000103101180000000000000000000000000000000000000000100004788683750CARLA APARECIDA DA ROCHA RITA           RUA GENERAL SILVEIRA SOBRINHO, 245 APTO VILA DA PENH21221290RIO DE JANEIRO RJUNIAO UMB DOS CULTOS AFRO BRAS    31011810 000070
10231987175000168916200163100    00008858                     000088580000000000000109                     I028858      31011800000000035003410000017N020118104700000000000103101180000000000000000000000000000000000000000100001377431738CARLOS HENRIQUE DOS SANTOS DE           RUA ALVARES CABRAL, 361 CASA 1          CACHAMBI - R20780320RIO DE JANEIRO RJUNIAO UMB DOS CULTOS AFRO BRAS    31011810 000071
10231987175000168916200163100    00008854                     000088540000000000000109                     I028854      31011800000000035003410000017N020118104700000000000103101180000000000000000000000000000000000000000100053542886734MARIA LUCIA SOARES PONCE                RUA PIRACANJUBA                         VILA KOSMOS 21220240RIO DE JANEIRO RJUNIAO UMB DOS CULTOS AFRO BRAS    31011810 000072
10231987175000168916200163100    00008853                     000088530000000000000109                     I028853      31011800000000035003410000017N020118104700000000000103101180000000000000000000000000000000000000000100003210312414MARCELINA DA SILVA COSTA                RUA ALARICO DE SOUZA                    ATALAIA     24315000NITEROI        RJUNIAO UMB DOS CULTOS AFRO BRAS    31011810 000073
10231987175000168916200163100    00008851                     000088510000000000000109                     I028851      31011800000000035003410000017N020118104700000000000103101180000000000000000000000000000000000000000100003611090751ANDREA DA COSTA FERREIRA                RUA CORONEL FRANCA LEITE, 657           EDSON PASSOS26585020MESQUITA       RJUNIAO UMB DOS CULTOS AFRO BRAS    31011810 000074
10231987175000168916200163100    00008848                     000088480000000000000109                     I028848      31011800000000035003410000017N020118104700000000000103101180000000000000000000000000000000000000000100054903416704ANTONIO FERNANDO CORREA DE CAR          RUA OLIVEIROS RODRIGUES ALVES, 1974     POSSE - NOVA26030010NOVA IGUACU    RJUNIAO UMB DOS CULTOS AFRO BRAS    31011810 000075
10231987175000168916200163100    00008846                     000088460000000000000109                     I028846      31011800000000035003410000017N020118104700000000000103101180000000000000000000000000000000000000000100087162518715VILMA TEJO PEREIRA MAIA                 RUA RONDA ALTA QUADRA 188 LOTE 37       JARDIM MARAV23031320GUARATIBA      RJUNIAO UMB DOS CULTOS AFRO BRAS    31011810 000076
10231987175000168916200163100    00008845                     000088450000000000000109                     I028845      31011800000000035003410000017N020118104700000000000103101180000000000000000000000000000000000000000100097511145787IVANILDO DA SILVA FERREIRA              AVENIDA NOSSA SENHORA DE COPACABANA, 613COPACABANA  22050002RIO DE JANEIRO RJUNIAO UMB DOS CULTOS AFRO BRAS    31011810 000077
10231987175000168916200163100    00008844                     000088440000000000000109                     I028844      31011800000000035003410000017N020118104700000000000103101180000000000000000000000000000000000000000100000461330796TANIA MARIA PEREIRA                     RUA MAPENDI, 366 BLOCO 2 APTO 505       TAQUARA - JA22710255RIO DE JANEIRO RJUNIAO UMB DOS CULTOS AFRO BRAS    31011810 000078
10231987175000168916200163100    00008841                     000088410000000000000109                     I028841      31011800000000035003410000017N020118104700000000000103101180000000000000000000000000000000000000000100093476930734LUCIENE TEIXEIRA DE OLIVEIRA            RUA CACHAMBI  34 APTO 407               CACHAMBI   R20775182RIO DE JANEIRO RJUNIAO UMB DOS CULTOS AFRO BRAS    31011810 000079
10231987175000168916200163100    00008835                     000088350000000000000109                     I028835      31011800000000035003410000017N020118104700000000000103101180000000000000000000000000000000000000000200000000011828TANIA MARIA BUENO ALVES                 RUA: CISPLATINA N 24                    IRAJA - RIO 21235070RIO DE JANEIRO RJUNIAO UMB DOS CULTOS AFRO BRAS    31011810 000080
10231987175000168916200163100    00008834                     000088340000000000000109                     I028834      31011800000000035003410000017N020118104700000000000103101180000000000000000000000000000000000000000100007279623700RODRIGO AYRES                           RUA CARIJOS N 23 CASA 1                 MEIER - RIO 20720360RIO DE JANEIRO RJUNIAO UMB DOS CULTOS AFRO BRAS    31011810 000081
10231987175000168916200163100    00008833                     000088330000000000000109                     I028833      31011800000000035003410000017N020118104700000000000103101180000000000000000000000000000000000000000100011036139794CARLA COUTO DE SOUZA                    RUA C N 150                             AMAPA - DUQU25235265DUQUE DE CAXIASRJUNIAO UMB DOS CULTOS AFRO BRAS    31011810 000082
10231987175000168916200163100    00008832                     000088320000000000000109                     I028832      31011800000000035003410000017N020118104700000000000103101180000000000000000000000000000000000000000100001199518786ADRIANA DE OLIVEIRA COUTO               RUA ITALIA LOTE 9 QUADRA 70             CACHOEIRINHA25916256PIABETA - MAGE RJUNIAO UMB DOS CULTOS AFRO BRAS    31011810 000083
10231987175000168916200163100    00008830                     000088300000000000000109                     I028830      31011800000000035003410000017N020118104700000000000103101180000000000000000000000000000000000000000100003601608758NILDA MAURA RODRIGUES DE JESUS          RUA ARI VILAR, SERVIDAO 1 CASA 17       COSTA BARROS21520860RIO DE JANEIRO RJUNIAO UMB DOS CULTOS AFRO BRAS    31011810 000084
10231987175000168916200163100    00008828                     000088280000000000000109                     I028828      31011800000000035003410000017N020118104700000000000103101180000000000000000000000000000000000000000100043385184720CELINA MONTEIRO DE OLIVEIRA             TRAVESSA ANTONIO GONCALVES, 18          CUBANGO - NI24240396NITEROI        RJUNIAO UMB DOS CULTOS AFRO BRAS    31011810 000085
10231987175000168916200163100    00008827                     000088270000000000000109                     I028827      31011800000000035003410000017N020118104700000000000103101180000000000000000000000000000000000000000100066320577720RICARDO DE CASSIO TEIXEIRA DIA          RUA PORTO SEGURO,  LOTE 7 QUADRA 99     DOUTOR LAURE25051080DUQUE DE CAXIASRJUNIAO UMB DOS CULTOS AFRO BRAS    31011810 000086
10231987175000168916200163100    00008825                     000088250000000000000109                     I028825      31011800000000035003410000017N020118104700000000000103101180000000000000000000000000000000000000000100000292323760MAURICIO MANTELLI                       AVENIDA GETULIO VARGAS 2589             CENTRO - NIL26525012NILOPOLIS      RJUNIAO UMB DOS CULTOS AFRO BRAS    31011810 000087
10231987175000168916200163100    00008824                     000088240000000000000109                     I028824      31011800000000035003410000017N020118104700000000000103101180000000000000000000000000000000000000000100048366030725SILVIA REGINA DE SOUZA CASTILH          RUA SOLDADO FILISBINO DOS SANTOS, 278   PALMARES - P23066000RIO DE JANEIRO RJUNIAO UMB DOS CULTOS AFRO BRAS    31011810 000088
10231987175000168916200163100    00008822                     000088220000000000000109                     I028822      31011800000000035003410000017N020118104700000000000103101180000000000000000000000000000000000000000100005241615776SIMONE ALICE CACCAVO GRIBEL             RUA VENEZA, 142                         PRAIA DE MAU25900000MAGE           RJUNIAO UMB DOS CULTOS AFRO BRAS    31011810 000089
10231987175000168916200163100    00008817                     000088170000000000000109                     I028817      31011800000000035003410000017N020118104700000000000103101180000000000000000000000000000000000000000100012106775717VITOR GABRIEL CARVALHO DE FIGU          RUA GENERAL BELFORD, 295 CASA 12        ROCHA - RJ  20961000RIO DE JANEIRO RJUNIAO UMB DOS CULTOS AFRO BRAS    31011810 000090
10231987175000168916200163100    00008816                     000088160000000000000109                     I028816      31011800000000035003410000017N020118104700000000000103101180000000000000000000000000000000000000000100095685774753ADEMIR GOMES DOS SANTOS                 AVENIDA NOSSA SENHORA DAS GRACAS, 546   SAO JOAO DE 25515001RIO DE JANEIRO RJUNIAO UMB DOS CULTOS AFRO BRAS    31011810 000091
10231987175000168916200163100    00008815                     000088150000000000000109                     I028815      31011800000000035003410000017N020118104700000000000103101180000000000000000000000000000000000000000100010355748703MARIA LUIZA LOPES                       RUA DOUTOR NUNES, 1243 APTO 302         OLARIA - RJ 21021370RIO DE JANEIRO RJUNIAO UMB DOS CULTOS AFRO BRAS    31011810 000092
10231987175000168916200163100    00008810                     000088100000000000000109                     I028810      31011800000000035003410000017N020118104700000000000103101180000000000000000000000000000000000000000100037506587734MARIA JOSE ALVES DIAS                   RUA CLODOMIRO, 105                      SANTA CRUZ/R23550020RIO DE JANEIRO RJUNIAO UMB DOS CULTOS AFRO BRAS    31011810 000093
10231987175000168916200163100    00008807                     000088070000000000000109                     I028807      31011800000000035003410000017N020118104700000000000103101180000000000000000000000000000000000000000100007986589752LEANDRO DOS SANTOS RODRIGUES            AVENIDA GASPAR DE LEMOS, 13             ILHA DE GUAR23020230RIO DE JANEIRO RJUNIAO UMB DOS CULTOS AFRO BRAS    31011810 000094
10231987175000168916200163100    00008805                     000088050000000000000109                     I028805      31011800000000035003410000017N020118104700000000000103101180000000000000000000000000000000000000000100010525485716JORGE SANTOS DA SILVA                   RUA TENENTE CUSTODIO MOREIRA, 24        JARDIM XAVAN26125000BELFORD ROXO   RJUNIAO UMB DOS CULTOS AFRO BRAS    31011810 000095
10231987175000168916200163100    00008804                     000088040000000000000109                     I028804      31011800000000035003410000017N020118104700000000000103101180000000000000000000000000000000000000000100008169125723SANDRA PRAXEDES SILVA BRAGA             RUA NOVENTA TRES, LOTE 36 QUADRA 131    CORDEIRINHO 24921464MARICA         RJUNIAO UMB DOS CULTOS AFRO BRAS    31011810 000096
10231987175000168916200163100    00008802                     000088020000000000000109                     I028802      31011800000000035003410000017N020118104700000000000103101180000000000000000000000000000000000000000100006940060766JAQUELINE BEZERRA DA SILVA              RUA ATOR JECE VALADAO, 329 - ANTIGA 73  PEDRA DE GUA23020718RIO DE JANEIRO RJUNIAO UMB DOS CULTOS AFRO BRAS    31011810 000097
10231987175000168916200163100    00008801                     000088010000000000000109                     I028801      31011800000000035003410000017N020118104700000000000103101180000000000000000000000000000000000000000100080113397704SOLANGE DE SOUZA SILVA                  RUA PEDRO DE MELO, 174 FUNDOS           PADRE MIGUEL21775410RIO DE JANEIRO RJUNIAO UMB DOS CULTOS AFRO BRAS    31011810 000098
10231987175000168916200163100    00008800                     000088000000000000000109                     I028800      31011800000000035003410000017N020118104700000000000103101180000000000000000000000000000000000000000100098077899749WANDERLEY PACHECO                       RUA NOSSA SENHORA DA CONCEICAO, S/N LOTEPILAR - DUQU25233070DUQUE DE CAXIASRJUNIAO UMB DOS CULTOS AFRO BRAS    31011810 000099
10231987175000168916200163100    00008797                     000087970000000000000109                     I028797      31011800000000035003410000017N020118104700000000000103101180000000000000000000000000000000000000000100008528931757LUCIMARA DA CONCEICAO CORTES            RUA PROFESSOR CHARLEY LACHMUND, 360 FUNDGUARATIBA - 23032570RIO DE JANEIRO RJUNIAO UMB DOS CULTOS AFRO BRAS    31011810 000100
10231987175000168916200163100    00008796                     000087960000000000000109                     I028796      31011800000000035003410000017N020118104700000000000103101180000000000000000000000000000000000000000100013770029771MICHEL REIS COUTINHO                    ESTRADA ADHEMAR BEBIANO, 3006 RUA 4 CASAINHAUMA - RI20766720RIO DE JANEIRO RJUNIAO UMB DOS CULTOS AFRO BRAS    31011810 000101
10231987175000168916200163100    00008792                     000087920000000000000109                     I028792      31011800000000035003410000017N020118104700000000000103101180000000000000000000000000000000000000000100000360973736CLAUDIA PINHEIRO CID                    RUA BRAGA, 106 CASA 2                   PENHA - RJ  21011500RIO DE JANEIRO RJUNIAO UMB DOS CULTOS AFRO BRAS    31011810 000102
10231987175000168916200163100    00008791                     000087910000000000000109                     I028791      31011800000000035003410000017N020118104700000000000103101180000000000000000000000000000000000000000100000043874738ANDREA COSTA                            RUA ATHOS BULCAO, 68 CASA C             RECREIO DOS 22790661RIO DE JANEIRO RJUNIAO UMB DOS CULTOS AFRO BRAS    31011810 000103
10231987175000168916200163100    00008790                     000087900000000000000109                     I028790      31011800000000035003410000017N020118104700000000000103101180000000000000000000000000000000000000000100073296902791CARLOS ALEXANDRE FERNANDES SAM          RUA BORJA REIS, 525                     ENGENHO DE D20745100RIO DE JANEIRO RJUNIAO UMB DOS CULTOS AFRO BRAS    31011810 000104
10231987175000168916200163100    00008789                     000087890000000000000109                     I028789      31011800000000035003410000017N020118104700000000000103101180000000000000000000000000000000000000000100062990772715MARLISE VINAGRE SILVA                   RUA SILVEIRA MARTINS, 30 APTO 704       CATETE - RJ 26299042RIO DE JANEIRO RJUNIAO UMB DOS CULTOS AFRO BRAS    31011810 000105
10231987175000168916200163100    00008786                     000087860000000000000109                     I028786      31011800000000035003410000017N020118104700000000000103101180000000000000000000000000000000000000000100003538138770ELIZABETH DE SANTANA                    RUA FIGUEIREDO PIMENTEL, 84 CASA 1      ABOLICAO - R20750200RIO DE JANEIRO RJUNIAO UMB DOS CULTOS AFRO BRAS    31011810 000106
10231987175000168916200163100    00008784                     000087840000000000000109                     I028784      31011800000000035003410000017N020118104700000000000103101180000000000000000000000000000000000000000100003322124754CATIA REGINA DE AQUINO MACHADO          RUA CLAUDINO BARATA, 863 CASA 5         REALENGO - R21770200RIO DE JANEIRO RJUNIAO UMB DOS CULTOS AFRO BRAS    31011810 000107
10231987175000168916200163100    00008782                     000087820000000000000109                     I028782      31011800000000035003410000017N020118104700000000000103101180000000000000000000000000000000000000000100007403285735MARCIO BAPTISTA CARVALHO                RUA ENALDO DOS SANTOS ARAUJO, 85        ENGENHEIRO L21370200RIO DE JANEIRO RJUNIAO UMB DOS CULTOS AFRO BRAS    31011810 000108
10231987175000168916200163100    00008780                     000087800000000000000109                     I028780      31011800000000035003410000017N020118104700000000000103101180000000000000000000000000000000000000000100085775576772LUSIA DE FREITAS SERVA                  RUA PEREIRA NETO S/N LOTE 35 QUADRA 38  GUARATIBA - 23032540RIO DE JANEIRO RJUNIAO UMB DOS CULTOS AFRO BRAS    31011810 000109
10231987175000168916200163100    00008779                     000087790000000000000109                     I028779      31011800000000035003410000017N020118104700000000000103101180000000000000000000000000000000000000000100005444285797CICERO PEREIRA GOMES NETO               RUA CAPITAO RUBENS, 1 BL 8 APTO 108     MARECHAL HER21610290RIO DE JANEIRO RJUNIAO UMB DOS CULTOS AFRO BRAS    31011810 000110
10231987175000168916200163100    00008778                     000087780000000000000109                     I028778      31011800000000035003410000017N020118104700000000000103101180000000000000000000000000000000000000000100083469559791ALEXANDRE DA SILVA SOUZA                RUA AFONSO RIBEIRO, 582                 PENHA - RJ  21031700RIO DE JANEIRO RJUNIAO UMB DOS CULTOS AFRO BRAS    31011810 000111
10231987175000168916200163100    00008775                     000087750000000000000109                     I028775      31011800000000035003410000017N020118104700000000000103101180000000000000000000000000000000000000000100004770414773CARLOS ALBERTO TORRES NOGUEIRA          ESTRADA DO LAMEIRAO, 667 CASA 9         SANTISSIMO -23092031RIO DE JANEIRO RJUNIAO UMB DOS CULTOS AFRO BRAS    31011810 000112
10231987175000168916200163100    00008772                     000087720000000000000109                     I028772      31011800000000035003410000017N020118104700000000000103101180000000000000000000000000000000000000000100011418927740JORGE MARCOS DE SA FREIRE               RUA RIO ALVA LOTE 6 QUADRA 9            PARQUE COMER25041430DUQUE DE CAXIASRJUNIAO UMB DOS CULTOS AFRO BRAS    31011810 000113
10231987175000168916200163100    00008771                     000087710000000000000109                     I028771      31011800000000035003410000017N020118104700000000000103101180000000000000000000000000000000000000000100091097810787SOLANGE VALENTIM DA SILVA               RUA URUCUIA, 773                        VILA VALQUEI21321310RIO DE JANEIRO RJUNIAO UMB DOS CULTOS AFRO BRAS    31011810 000114
10231987175000168916200163100    00008769                     000087690000000000000109                     I028769      31011800000000035003410000017N020118104700000000000103101180000000000000000000000000000000000000000100008417913769SANDERSON DOS SANTOS LOBO               RUA GUARANHUNS, 167 CASA 1              JARDIM BRASI26193070BELFORD ROXO   RJUNIAO UMB DOS CULTOS AFRO BRAS    31011810 000115
10231987175000168916200163100    00008762                     000087620000000000000109                     I028762      31011800000000035003410000017N020118104700000000000103101180000000000000000000000000000000000000000100008679284769ANA PAULA DA SILVA BRAGA                RUA ELVIRA DA FONSECA, 149 CASA 1 FUNDOSTANQUE - JAC22733150RIO DE JANEIRO RJUNIAO UMB DOS CULTOS AFRO BRAS    31011810 000116
10231987175000168916200163100    00008754                     000087540000000000000109                     I028754      31011800000000035003410000017N020118104700000000000103101180000000000000000000000000000000000000000100004756437710FABIANA DE SOUZA CAMPOS                 RUA SAO RAIMUNDO SN QUADRA 161 LOTE 5 - NOVA IGUACU/26298722RIO DE JANEIRO RJUNIAO UMB DOS CULTOS AFRO BRAS    31011810 000117
10231987175000168916200163100    00008748                     000087480000000000000109                     I028748      31011800000000035003410000017N020118104700000000000103101180000000000000000000000000000000000000000100008468031780JANAINA QUINTELLA BARROS                RUA SEIS QUADRA D LOTE 21               ANAIA PEQUEN24130606NITEROI        RJUNIAO UMB DOS CULTOS AFRO BRAS    31011810 000118
10231987175000168916200163100    00008745                     000087450000000000000109                     I028745      31011800000000035003410000017N020118104700000000000103101180000000000000000000000000000000000000000100033630631720JOSE ANTONIO CERQUEIRA                  AVENIDA CARNAUBEIRA 590                 GUARATIBA - 20260220RIO DE JANEIRO RJUNIAO UMB DOS CULTOS AFRO BRAS    31011810 000119
10231987175000168916200163100    00008741                     000087410000000000000109                     I028741      31011800000000035003410000017N020118104700000000000103101180000000000000000000000000000000000000000100071115498720CLEVELAND JOSE LOPES JUNIOR             RUA CONSELHEIRO AGUSTINHO 52            PILARES - RJ20750094RIO DE JANEIRO RJUNIAO UMB DOS CULTOS AFRO BRAS    31011810 000120
10231987175000168916200163100    00008740                     000087400000000000000109                     I028740      31011800000000035003410000017N020118104700000000000103101180000000000000000000000000000000000000000100001647427789SELMA CRISTINA DE HOLANDA PERR          AVENIDA MANAUS, 540                     TRINDADE - S24456320SAO GONCALO    RJUNIAO UMB DOS CULTOS AFRO BRAS    31011810 000121
10231987175000168916200163100    00008739                     000087390000000000000109                     I028739      31011800000000035003410000017N020118104700000000000103101180000000000000000000000000000000000000000100011452515794DEBORAH CHRISTINA DA SILVA CAN          RUA LAZARO MONCEF , 53                  SEPETIBA - R23540190RIO DE JANEIRO RJUNIAO UMB DOS CULTOS AFRO BRAS    31011810 000122
10231987175000168916200163100    00008738                     000087380000000000000109                     I028738      31011800000000035003410000017N020118104700000000000103101180000000000000000000000000000000000000000100085867470768MARIA DE FATIMA VIANA DE OLIVE          RUA FRANCISCO PLACIDO DE JESUS, 52      CAMPOS ELYSE25235040DUQUE DE CAXIASRJUNIAO UMB DOS CULTOS AFRO BRAS    31011810 000123
10231987175000168916200163100    00008737                     000087370000000000000109                     I028737      31011800000000035003410000017N020118104700000000000103101180000000000000000000000000000000000000000100005400397727DENISE ANGELICA DOS SANTOS ROS          RUA SAO DEOGRACIAS, 97                  GUARATIBA - 23036610RIO DE JANEIRO RJUNIAO UMB DOS CULTOS AFRO BRAS    31011810 000124
10231987175000168916200163100    00008735                     000087350000000000000109                     I028735      31011800000000035003410000017N020118104700000000000103101180000000000000000000000000000000000000000100073885169720MACARIO RODRIGUES DA FONSECA J          RUA GILDA MARIA, 21                     PARQUE FLORA26040820NOVA IGUACU    RJUNIAO UMB DOS CULTOS AFRO BRAS    31011810 000125
10231987175000168916200163100    00008734                     000087340000000000000109                     I028734      31011800000000035003410000017N020118104700000000000103101180000000000000000000000000000000000000000100043599745749VANIA MARIA GOMES PEREIRA               RUA AJAPI, 510 CASA A 2                 COSMOS - RJ 23066420RIO DE JANEIRO RJUNIAO UMB DOS CULTOS AFRO BRAS    31011810 000126
10231987175000168916200163100    00008729                     000087290000000000000109                     I028729      31011800000000035003410000017N020118104700000000000103101180000000000000000000000000000000000000000100002387294785ANDREA CONDOR GUIMARAES PINHEI          BECO DA FLORESTA 48                     SEPETIBA - R23545380RIO DE JANEIRO RJUNIAO UMB DOS CULTOS AFRO BRAS    31011810 000127
10231987175000168916200163100    00008728                     000087280000000000000109                     I028728      31011800000000035003410000017N020118104700000000000103101180000000000000000000000000000000000000000100002381411798MARIA RISONETE DE OLIVEIRA SOA          ESTRADA DA COIVARA, 224                 VILA MARIA H25251090DUQUE DE CAXIASRJUNIAO UMB DOS CULTOS AFRO BRAS    31011810 000128
10231987175000168916200163100    00008727                     000087270000000000000109                     I028727      31011800000000035003410000017N020118104700000000000103101180000000000000000000000000000000000000000100090789407787ANA CLAUDIA DOS SANTOS TITO             RUA ONZE LOTE 17 QUADRA 48              PIABETA  MAG23025210RIO DE JANEIRO RJUNIAO UMB DOS CULTOS AFRO BRAS    31011810 000129
10231987175000168916200163100    00008725                     000087250000000000000109                     I028725      31011800000000035003410000017N020118104700000000000103101180000000000000000000000000000000000000000100068863292787MARIA JOSE DA SILVA                     RUA LAVOISIER LOTE 7 QUADRA 121         PARQUE PAULI25261390DUQUE DE CAXIASRJUNIAO UMB DOS CULTOS AFRO BRAS    31011810 000130
10231987175000168916200163100    00008724                     000087240000000000000109                     I028724      31011800000000035003410000017N020118104700000000000103101180000000000000000000000000000000000000000100003421604789MARILEA GUIMARAES CASEMIRO BAR          RUA JAGUARI, 136                        MONTE LIBANO26010450RIO DE JANEIRO RJUNIAO UMB DOS CULTOS AFRO BRAS    31011810 000131
10231987175000168916200163100    00008723                     000087230000000000000109                     I028723      31011800000000035003410000017N020118104700000000000103101180000000000000000000000000000000000000000100000596984707MARGARETH WAMBURG DE SIQUEIRA           RUA SAO FRANCISCO XAVIER, 953           SAOFRANCISCO20550011RIO DE JANEIRO RJUNIAO UMB DOS CULTOS AFRO BRAS    31011810 000132
10231987175000168916200163100    00008721                     000087210000000000000109                     I028721      31011800000000035003410000017N020118104700000000000103101180000000000000000000000000000000000000000100057252700763WALDENILDA BORGES RAMOS ALVES           RUA NILO CAIRO, 11 CASA 2               PARAISO - SA24431590SAO GONCALO    RJUNIAO UMB DOS CULTOS AFRO BRAS    31011810 000133
10231987175000168916200163100    00008719                     000087190000000000000109                     I028719      31011800000000035003410000017N020118104700000000000103101180000000000000000000000000000000000000000200000000010388CARLOS JOSE GOMES DA SILVA              RUA JABOTI, 200  CASA 2                 BRAS DE PINA21215330RIO DE JANEIRO RJUNIAO UMB DOS CULTOS AFRO BRAS    31011810 000134
10231987175000168916200163100    00008716                     000087160000000000000109                     I028716      31011800000000035003410000017N020118104700000000000103101180000000000000000000000000000000000000000100001416091769SUELY CORREA MACEDO SILVA               RUA CARVALHO DE SOUSA, 137 BLOCO 4 COB 7SAO JOAO DE 21350180RIO DE JANEIRO RJUNIAO UMB DOS CULTOS AFRO BRAS    31011810 000135
10231987175000168916200163100    00008715                     000087150000000000000109                     I028715      31011800000000035003410000017N020118104700000000000103101180000000000000000000000000000000000000000100024391537368RENATO SILVA HOTTZ                      RUA GENERAL PEREIRA DA SILVA, 302       ICARAI - NIT24220031NITEROI        RJUNIAO UMB DOS CULTOS AFRO BRAS    31011810 000136
10231987175000168916200163100    00008713                     000087130000000000000109                     I028713      31011800000000035003410000017N020118104700000000000103101180000000000000000000000000000000000000000100000230182755RITA DE CASSIA RESENDE BASTOS           RUA CAMBUI, 118                         FREGUESIA - 21911130RIO DE JANEIRO RJUNIAO UMB DOS CULTOS AFRO BRAS    31011810 000137
10231987175000168916200163100    00008712                     000087120000000000000109                     I028712      31011800000000035003410000017N020118104700000000000103101180000000000000000000000000000000000000000100012907979787CINARA CUNHA                            RUA OURO PRETO, 222                     QUINTINO BOC21380380RIO DE JANEIRO RJUNIAO UMB DOS CULTOS AFRO BRAS    31011810 000138
10231987175000168916200163100    00008710                     000087100000000000000109                     I028710      31011800000000035003410000017N020118104700000000000103101180000000000000000000000000000000000000000100002601405708ALEX VANDER VARGAS                      RUA QUEMARU, 84                         ROCHA MIRAND21540510RIO DE JANEIRO RJUNIAO UMB DOS CULTOS AFRO BRAS    31011810 000139
10231987175000168916200163100    00008709                     000087090000000000000109                     I028709      31011800000000035003410000017N020118104700000000000103101180000000000000000000000000000000000000000200000000010166ANA MARIA DE CARVALHO MENEZES           RUA OASIS, 187                          PRAIA DA BRI23028320GUARATIBA      RJUNIAO UMB DOS CULTOS AFRO BRAS    31011810 000140
10231987175000168916200163100    00008706                     000087060000000000000109                     I028706      31011800000000035003410000017N020118104700000000000103101180000000000000000000000000000000000000000100061487856768ROSELI ROCHA DA SILVA FERREIRA          RUA DOUTOR MESQUITA, 442                NOSSA SRA DE27113010BARRA DO PIRAI RJUNIAO UMB DOS CULTOS AFRO BRAS    31011810 000141
10231987175000168916200163100    00008705                     000087050000000000000109                     I028705      31011800000000035003410000017N020118104700000000000103101180000000000000000000000000000000000000000100070818169753ZILAH MELO DIAS DA SILVA                RUA ALMIRANTE FIGUEIREDO, 19            FREGUESIA - 21911150RIO DE JANEIRO RJUNIAO UMB DOS CULTOS AFRO BRAS    31011810 000142
10231987175000168916200163100    00008704                     000087040000000000000109                     I028704      31011800000000035003410000017N020118104700000000000103101180000000000000000000000000000000000000000100004766843746ALESSANDRO MEDEIROS BRITO               RUA MARUPIARA, 198                      ROCHA MIRAND21510210RIO DE JANEIRO RJUNIAO UMB DOS CULTOS AFRO BRAS    31011810 000143
10231987175000168916200163100    00008703                     000087030000000000000109                     I028703      31011800000000035003410000017N020118104700000000000103101180000000000000000000000000000000000000000100002543752781MARIA DO SOCORRO MAMEDES DA SI          AVENIDA SANTA CRUZ, LOTE 2 QUADRA 82 APTSARACURUNA -25211220DUQUE DE CAXIASRJUNIAO UMB DOS CULTOS AFRO BRAS    31011810 000144
10231987175000168916200163100    00008698                     000086980000000000000109                     I028698      31011800000000035003410000017N020118104700000000000103101180000000000000000000000000000000000000000100000692299700JORGE LUIZ LIMA BASTOS                  RUA PLANALTINA, 71                      REALENGO - R21760160RIO DE JANEIRO RJUNIAO UMB DOS CULTOS AFRO BRAS    31011810 000145
10231987175000168916200163100    00008696                     000086960000000000000109                     I028696      31011800000000035003410000017N020118104700000000000103101180000000000000000000000000000000000000000100002771098768FRANCISCO AREAS                         RUA CARMINDA, 969                       COELHO DA RO25550135SAO JOAO DE MERRJUNIAO UMB DOS CULTOS AFRO BRAS    31011810 000146
10231987175000168916200163100    00008695                     000086950000000000000109                     I028695      31011800000000035003410000017N020118104700000000000103101180000000000000000000000000000000000000000100059334258772LUIZ ROBERTO REGO GAMA                  RUA MIGUEL POMBEIRO, 112                REALENGO - R21735280RIO DE JANEIRO RJUNIAO UMB DOS CULTOS AFRO BRAS    31011810 000147
10231987175000168916200163100    00008693                     000086930000000000000109                     I028693      31011800000000035003410000017N020118104700000000000103101180000000000000000000000000000000000000000100002539387756GERSON TELLES GUIMARAES                 RUA DOUTOR AFONSO PENA, LOTE 20 QUADRA 2IMBARIE - DU25275430DUQUE DE CAXIASRJUNIAO UMB DOS CULTOS AFRO BRAS    31011810 000148
10231987175000168916200163100    00008691                     000086910000000000000109                     I028691      31011800000000035003410000017N020118104700000000000103101180000000000000000000000000000000000000000100060921051723GEIZA RODRIGUES GANDRA                  RUA MARTINS JUNIOR, 16                  VAL VERDE - 26335320NOVA IGUACU    RJUNIAO UMB DOS CULTOS AFRO BRAS    31011810 000149
10231987175000168916200163100    00008687                     000086870000000000000109                     I028687      31011800000000035003410000017N020118104700000000000103101180000000000000000000000000000000000000000100003533022790ELAINE LIMA FERREIRA DA COSTA           RUA BELA 7 SOBRADO                      SAO CRISTOVA20551110RIO DE JANEIRO RJUNIAO UMB DOS CULTOS AFRO BRAS    31011810 000150
10231987175000168916200163100    00008683                     000086830000000000000109                     I028683      31011800000000035003410000017N020118104700000000000103101180000000000000000000000000000000000000000100090096029749VANIA FARIA DE VILHENA TORRES           ESTRADA DA COVANCA                      TANQUE      22735020RIO DE JANEIRO RJUNIAO UMB DOS CULTOS AFRO BRAS    31011810 000151
10231987175000168916200163100    00008682                     000086820000000000000109                     I028682      31011800000000035003410000017N020118104700000000000103101180000000000000000000000000000000000000000100040229637787JOSE PAULO SERPA DE MORAES              RUA CANALIZADA, LOTE 4 QUADRA 203 KM 39 CAMPO LINDO 23845410SEROPEDICA     RJUNIAO UMB DOS CULTOS AFRO BRAS    31011810 000152
10231987175000168916200163100    00008681                     000086810000000000000109                     I028681      31011800000000035003410000017N020118104700000000000103101180000000000000000000000000000000000000000100086945971791GELSON RAMOS DE CARVALHO                RUA BARAUNA, 249                        ANCHIETA - R21645050RIO DE JANEIRO RJUNIAO UMB DOS CULTOS AFRO BRAS    31011810 000153
10231987175000168916200163100    00008669                     000086690000000000000109                     I028669      31011800000000035003410000017N020118104700000000000103101180000000000000000000000000000000000000000100007332496712ELENICE ROSA DA SILVA                   RUA BERNARDINO DE MELO, 4705 - BAIRRO DAVILA CAVA - 26052060NOVA IGUACU    RJUNIAO UMB DOS CULTOS AFRO BRAS    31011810 000154
10231987175000168916200163100    00008667                     000086670000000000000109                     I028667      31011800000000035003410000017N020118104700000000000103101180000000000000000000000000000000000000000100009237411782RODRIGO NOGUEIRA MARTINS                RUA DOUTOR AUGUSTO FIGUEIREDO, 298      BANGU - RJ  21840600RIO DE JANEIRO RJUNIAO UMB DOS CULTOS AFRO BRAS    31011810 000155
10231987175000168916200163100    00008665                     000086650000000000000109                     I028665      31011800000000035003410000017N020118104700000000000103101180000000000000000000000000000000000000000100004746270716ANTONIO CARLOS FERNANDES                RUA FRANCISCO DE CASTRO, 9 CASA 1       SANTA TERESA20241300RIO DE JANEIRO RJUNIAO UMB DOS CULTOS AFRO BRAS    31011810 000156
10231987175000168916200163100    00008660                     000086600000000000000109                     I028660      31011800000000035003410000017N020118104700000000000103101180000000000000000000000000000000000000000100001071031767NEIDE MARIA VIANA SOUZA                 RUA VINTE E UM, LOTE 7 QUADRA 42        SAO CAMPELO 23830000RIO DE JANEIRO RJUNIAO UMB DOS CULTOS AFRO BRAS    31011810 000157
10231987175000168916200163100    00008659                     000086590000000000000109                     I028659      31011800000000035003410000017N020118104700000000000103101180000000000000000000000000000000000000000100001220001708ANDRE AMERICO DA SILVA                  RUA LARGO DO BOIADEIRO DA ROCINHA, 11   ROCINHA - RI22451340RIO DE JANEIRO RJUNIAO UMB DOS CULTOS AFRO BRAS    31011810 000158
10231987175000168916200163100    00008655                     000086550000000000000109                     I028655      31011800000000035003410000017N020118104700000000000103101180000000000000000000000000000000000000000200000000009322WILMA DE CASTRO GOUVEA                  RUA DAMAZIO BATISTA, 86 CASA 97 - CABRALOLINDA - NIL26515126NILOPOLIS      RJUNIAO UMB DOS CULTOS AFRO BRAS    31011810 000159
10231987175000168916200163100    00008654                     000086540000000000000109                     I028654      31011800000000035003410000017N020118104700000000000103101180000000000000000000000000000000000000000100001680132741SANDRA NOGUEIRA DE BRITO                RUA BARATA RIBEIRO 726 APT 602          COPACABANA -22051000RIO DE JANEIRO RJUNIAO UMB DOS CULTOS AFRO BRAS    31011810 000160
10231987175000168916200163100    00008651                     000086510000000000000109                     I028651      31011800000000035003410000017N020118104700000000000103101180000000000000000000000000000000000000000100083697799720ANGELA MARIA FERRAZ FARIAS              RUA LUIS BELTRAO, 1171                  VILA VALQUEI21321230RIO DE JANEIRO RJUNIAO UMB DOS CULTOS AFRO BRAS    31011810 000161
10231987175000168916200163100    00008649                     000086490000000000000109                     I028649      31011800000000035003410000017N020118104700000000000103101180000000000000000000000000000000000000000100033712417772IRANIR RIBEIRO DE CASTRO                RUA DO RIACHUELO, 333 COBERTURA 6       CENTRO - RIO20230011RIO DE JANEIRO RJUNIAO UMB DOS CULTOS AFRO BRAS    31011810 000162
10231987175000168916200163100    00008645                     000086450000000000000109                     I028645      31011800000000035003410000017N020118104700000000000103101180000000000000000000000000000000000000000100021207275700GEORGETE MARIA SILVA DE JESUS           RUA BECO DO MIJANCAH, 30                PRAIA DA BRI23028696PEDRA DE GUARATRJUNIAO UMB DOS CULTOS AFRO BRAS    31011810 000163
10231987175000168916200163100    00008643                     000086430000000000000109                     I028643      31011800000000035003410000017N020118104700000000000103101180000000000000000000000000000000000000000100012470639840RICARDO DE OLIVEIRA                     RUA FELINTO MARQUES CERQUEIRA, 270 - CAPCAPUCHINHOS 44076040FEIRA DE SANTANBAUNIAO UMB DOS CULTOS AFRO BRAS    31011810 000164
10231987175000168916200163100    00008639                     000086390000000000000109                     I028639      31011800000000035003410000017N020118104700000000000103101180000000000000000000000000000000000000000200000000009079AGUINALDO DE PAULA BORGES               RUA ARNALDO MURINELI, 841 CASA 3        ANCHIETA/RJ 21630060RIO DE JANEIRO RJUNIAO UMB DOS CULTOS AFRO BRAS    31011810 000165
10231987175000168916200163100    00008638                     000086380000000000000109                     I028638      31011800000000035003410000017N020118104700000000000103101180000000000000000000000000000000000000000100091088003753CLARA RIBEIRO FERNANDES                 R:ITACURUCA,213                         MARAMBAIA- S24724410NITEROI        RJUNIAO UMB DOS CULTOS AFRO BRAS    31011810 000166
10231987175000168916200163100    00008635                     000086350000000000000109                     I028635      31011800000000035003410000017N020118104700000000000103101180000000000000000000000000000000000000000100000238705757ANGELA DA MOTTA NUNES SILVA             RUA: RIACHO DOCE                        OSVALDO CRUZ21340340RIO DE JANEIRO RJUNIAO UMB DOS CULTOS AFRO BRAS    31011810 000167
10231987175000168916200163100    00008633                     000086330000000000000109                     I028633      31011800000000035003410000017N020118104700000000000103101180000000000000000000000000000000000000000100005437133753MARIZETE ALVES DA SILVA                 RUA DELHIR Nº 100 - ANCHIETA           RIO DE JANEI21610330RIO DE JANEIRO RJUNIAO UMB DOS CULTOS AFRO BRAS    31011810 000168
10231987175000168916200163100    00008632                     000086320000000000000109                     I028632      31011800000000035003410000017N020118104700000000000103101180000000000000000000000000000000000000000100002480281701CESAR AUGUSTO DA SILVA MARCIAL          RUA, TRES QD.2 LT.22 - LOTEAMENTO MANU  MANUELLE. - 24900000MARICA         RJUNIAO UMB DOS CULTOS AFRO BRAS    31011810 000169
10231987175000168916200163100    00008630                     000086300000000000000109                     I028630      31011800000000035003410000017N020118104700000000000103101180000000000000000000000000000000000000000100026376253768MARIA DE LOURDES DA SILVA FERN          RUA: ESTUDANTE PAULINO DURVAL, QUADRA 3 MAGE - RIO D25931882MAGE           RJUNIAO UMB DOS CULTOS AFRO BRAS    31011810 000170
10231987175000168916200163100    00008628                     000086280000000000000109                     I028628      31011800000000035003410000017N020118104700000000000103101180000000000000000000000000000000000000000100012201569738PAULO CELSO MACHADO JUNIOR              RUA SEIS LOTE 26 - CHACARA INOA         MARICA - RIO24900000MARICA         RJUNIAO UMB DOS CULTOS AFRO BRAS    31011810 000171
10231987175000168916200163100    00008626                     000086260000000000000109                     I028626      31011800000000035003410000017N020118104700000000000103101180000000000000000000000000000000000000000100038719444753JOAQUIM ROBERTO TRINDADE MONTE          RUA TAQUARI N 192 CASA 2                BRAS DE PINA21215540RIO DE JANEIRO RJUNIAO UMB DOS CULTOS AFRO BRAS    31011810 000172
10231987175000168916200163100    00008625                     000086250000000000000109                     I028625      31011800000000035003410000017N020118104700000000000103101180000000000000000000000000000000000000000100011193274745WELINGTON PEDRO DOS SANTOS GOM          RUA ARAUJO ROZO, 305 FUNDOS             ANCHIETA - R21635100RIO DE JANEIRO RJUNIAO UMB DOS CULTOS AFRO BRAS    31011810 000173
10231987175000168916200163100    00008624                     000086240000000000000109                     I028624      31011800000000035003410000017N020118104700000000000103101180000000000000000000000000000000000000000100005333959765CRISTIANE DA CONCEICAO PACHECO          RUA JOSE SEABRA, 6                      PILAR - DUQU25233001DUQUE DE CAXIASRJUNIAO UMB DOS CULTOS AFRO BRAS    31011810 000174
10231987175000168916200163100    00008623                     000086230000000000000109                     I028623      31011800000000035003410000017N020118104700000000000103101180000000000000000000000000000000000000000100067053424715HELENA DE FATIMA MENDES MARQUE          RUA IRANI, 182                          PENHA - RJ  21020200RIO DE JANEIRO RJUNIAO UMB DOS CULTOS AFRO BRAS    31011810 000175
10231987175000168916200163100    00008622                     000086220000000000000109                     I028622      31011800000000035003410000017N020118104700000000000103101180000000000000000000000000000000000000000100089826930768MARIA DAS DORES SILVA                   RUA JORDAO, 805 CASA 40                 TANQUE - RIO22725549RIO DE JANEIRO RJUNIAO UMB DOS CULTOS AFRO BRAS    31011810 000176
10231987175000168916200163100    00008620                     000086200000000000000109                     I028620      31011800000000035003410000017N020118104700000000000103101180000000000000000000000000000000000000000100050534173772IARA FRANCISCO                          RUA BARAO DE MELGACO, 279 FUNDOS        CORDOVIL - R21250320RIO DE JANEIRO RJUNIAO UMB DOS CULTOS AFRO BRAS    31011810 000177
10231987175000168916200163100    00008616                     000086160000000000000109                     I028616      31011800000000035003410000017N020118104700000000000103101180000000000000000000000000000000000000000100050775561720LEANDRO MECENAS DA CUNHA                RUA GUATOS N 34                         PARQUE SAO C26051640NOVA IGUACU    RJUNIAO UMB DOS CULTOS AFRO BRAS    31011810 000178
10231987175000168916200163100    00008612                     000086120000000000000109                     I028612      31011800000000035003410000017N020118104700000000000103101180000000000000000000000000000000000000000100099272946700MARCOS ANTONIO DA SILVA                 RUA PIACAVA N 100                       VILA MARILIA26040210NOVA IGUACU    RJUNIAO UMB DOS CULTOS AFRO BRAS    31011810 000179
10231987175000168916200163100    00008611                     000086110000000000000109                     I028611      31011800000000035003410000017N020118104700000000000103101180000000000000000000000000000000000000000200000000008438MARIA LEOPOLDINO DE MATOS               RUA URUCURANA N 177                     BOA ESPERANC26143140NOVA IGUACU    RJUNIAO UMB DOS CULTOS AFRO BRAS    31011810 000180
10231987175000168916200163100    00008610                     000086100000000000000109                     I028610      31011800000000035003410000017N020118104700000000000103101180000000000000000000000000000000000000000100007485965778GRACIETE LEAO TANGUA                    RUA ROBERTO RANGEL LIMA LOTE 16 QUADRA GMAURI - PIAB25915000MAGE           RJUNIAO UMB DOS CULTOS AFRO BRAS    31011810 000181
10231987175000168916200163100    00008607                     000086070000000000000109                     I028607      31011800000000035003410000017N020118104700000000000103101180000000000000000000000000000000000000000100007039391732LAIZ ANDRADE DA CRUZ                    RUA CARAIPE                             BRAS DE PINA21012280RIO DE JANEIRO RJUNIAO UMB DOS CULTOS AFRO BRAS    31011810 000182
10231987175000168916200163100    00008603                     000086030000000000000109                     I028603      31011800000000035003410000017N020118104700000000000103101180000000000000000000000000000000000000000100003316779701WALLACE SILVA SOARES                    RUA QUINZE DE NOVEMBRO LOTE 2 QUADRA N CSARACURUNA -25212690DUQUE DE CAXIASRJUNIAO UMB DOS CULTOS AFRO BRAS    31011810 000183
10231987175000168916200163100    00008601                     000086010000000000000109                     I028601      31011800000000035003410000017N020118104700000000000103101180000000000000000000000000000000000000000100085624250797HELBA SALLES DE SOUZA                   RUA VITORIA N 16 QUADRA N LOTE 8        LAGOINHA - N26296447NOVA IGUACU    RJUNIAO UMB DOS CULTOS AFRO BRAS    31011810 000184
10231987175000168916200163100    00008599                     000085990000000000000109                     I028599      31011800000000035003410000017N020118104700000000000103101180000000000000000000000000000000000000000100077526694749FATIMA CRISTINA DA CUNHA PINHE          RUA TRAVESSA SANTO MAXIMO, 25           GUADALUPE - 21655780RIO DE JANEIRO RJUNIAO UMB DOS CULTOS AFRO BRAS    31011810 000185
10231987175000168916200163100    00008598                     000085980000000000000109                     I028598      31011800000000035003410000017N020118104700000000000103101180000000000000000000000000000000000000000100000059525738MONICA SOARES MAGALHAES                 RUA: AMALIA Nº 117                     QUINTINO - R21380400RIO DE JANEIRO RJUNIAO UMB DOS CULTOS AFRO BRAS    31011810 000186
10231987175000168916200163100    00008597                     000085970000000000000109                     I028597      31011800000000035003410000017N020118104700000000000103101180000000000000000000000000000000000000000200000000004033SANDRA REIS DOS SANTOS                  RUA BANGU, 197 - DOUTOR LAUREANO        DUQUE DE CAX25060180DUQUE DE CAXIASRJUNIAO UMB DOS CULTOS AFRO BRAS    31011810 000187
10231987175000168916200163100    00008594                     000085940000000000000109                     I028594      31011800000000035003410000017N020118104700000000000103101180000000000000000000000000000000000000000100041280784768LUCIENE RIBEIRO EVA                     RUA: A LOTE 37 QUADRA 16                JARDIM ANHAN25264580DUQUE DE CAXIASRJUNIAO UMB DOS CULTOS AFRO BRAS    31011810 000188
10231987175000168916200163100    00008589                     000085890000000000000109                     I028589      31011800000000035003410000017N020118104700000000000103101180000000000000000000000000000000000000000200000000004796HELENA ALVES BRAZ                       RUA JUTAI, LOTE 20 QUADRA 151           PERIQUITO - 25025290DUQUE DE CAXIASRJUNIAO UMB DOS CULTOS AFRO BRAS    31011810 000189
10231987175000168916200163100    00008588                     000085880000000000000109                     I028588      31011800000000035003410000017N020118104700000000000103101180000000000000000000000000000000000000000200000000004748IVAN SOUZA DIAS                         RUA CARICO, LOTE 27 QUADRA 15 A         JARDIM METRO25575050SAO JOAO DE MERRJUNIAO UMB DOS CULTOS AFRO BRAS    31011810 000190
10231987175000168916200163100    00008587                     000085870000000000000109                     I028587      31011800000000035003410000017N020118104700000000000103101180000000000000000000000000000000000000000200000000004621NEUZA MARIA MACHADO DA SILVA            RUA AUGUSTO SERGIO BOTELHO, QUADRA 67 LOBARRO BRANCO25267124DUQUE DE CAXIASRJUNIAO UMB DOS CULTOS AFRO BRAS    31011810 000191
10231987175000168916200163100    00008586                     000085860000000000000109                     I028586      31011800000000035003410000017N020118104700000000000103101180000000000000000000000000000000000000000100001402504764ANTONIA PAULO DINIZ                     RUA C, LOTE 3 QUADRA C                  SARACURUNA -22511300DUQUE DE CAXIASRJUNIAO UMB DOS CULTOS AFRO BRAS    31011810 000192
10231987175000168916200163100    00008584                     000085840000000000000109                     I028584      31011800000000035003410000017N020118104700000000000103101180000000000000000000000000000000000000000100001798819732RITA MARIA VIANNA                       RUA IPAMERI, 236                        CORDOVIL - R21012175RIO DE JANEIRO RJUNIAO UMB DOS CULTOS AFRO BRAS    31011810 000193
10231987175000168916200163100    00008583                     000085830000000000000109                     I028583      31011800000000035003410000017N020118104700000000000103101180000000000000000000000000000000000000000100078815428704LUZINETE PINHO DE SA                    ESTRADA: MANOEL FERREIRA CAMPAR Nº 1311POSSE - NOVA26021060NOVA IGUACU    RJUNIAO UMB DOS CULTOS AFRO BRAS    31011810 000194
10231987175000168916200163100    00008582                     000085820000000000000109                     I028582      31011800000000035003410000017N020118104700000000000103101180000000000000000000000000000000000000000100042447941749MARIA NEIDE DE OLIVEIRA SILVA           RUA PROSPERIDADE, LOTE 8 QUADRA 43      PILAR - DUQU25230080DUQUE DE CAIXASRJUNIAO UMB DOS CULTOS AFRO BRAS    31011810 000195
10231987175000168916200163100    00008581                     000085810000000000000109                     I028581      31011800000000035003410000017N020118104700000000000103101180000000000000000000000000000000000000000100000911446710NELI MONTEIRO DE CASTRO                 RUA ROMILDO Nº 139 - VAZ MARTINS       NOVA IGUACU 20051040RIO DE JANEIRO RJUNIAO UMB DOS CULTOS AFRO BRAS    31011810 000196
10231987175000168916200163100    00008580                     000085800000000000000109                     I028580      31011800000000035003410000017N020118104700000000000103101180000000000000000000000000000000000000000100079469825772VICTOR FRANCISCO PEREIRA NETO           RUA YZ 2 LT 7,8,9 QDRA 27 B/ JD ANHANGA DUQUE DE CAX25036290DUQUE DE CAXIASRJUNIAO UMB DOS CULTOS AFRO BRAS    31011810 000197
10231987175000168916200163100    00008577                     000085770000000000000109                     I028577      31011800000000035003410000017N020118104700000000000103101180000000000000000000000000000000000000000100007446571721ANDREA GUEDES PINHEIRO GOMES            RUA CATARINA SANTANA  169               CABUCU      26341490NILOPOLIS      RJUNIAO UMB DOS CULTOS AFRO BRAS    31011810 000198
10231987175000168916200163100    00008576                     000085760000000000000109                     I028576      31011800000000035003410000017N020118104700000000000103101180000000000000000000000000000000000000000100000939896796SHIRLEI ARAUJO DO CARMO RODRIG          O MESMO                                 O MESMO     21532170RIO DE JANEIRO RJUNIAO UMB DOS CULTOS AFRO BRAS    31011810 000199
10231987175000168916200163100    00008574                     000085740000000000000109                     I028574      31011800000000035003410000017N020118104700000000000103101180000000000000000000000000000000000000000100054196159753FRANCISCA DAVI DE OLIVEIRA              AVENIDA GILKA MACHADO Nº 152           RECREIO DO B22795570RIO DE JANEIRO RJUNIAO UMB DOS CULTOS AFRO BRAS    31011810 000200
10231987175000168916200163100    00008572                     000085720000000000000109                     I028572      31011800000000035003410000017N020118104700000000000103101180000000000000000000000000000000000000000100030011370700HELENA CAVALCANTE MARQUES               RUA DOUTOR PASSOS Nº 35 FUNDOS         MADUREIRA - 21310160RIO DE JANEIRO RJUNIAO UMB DOS CULTOS AFRO BRAS    31011810 000201
10231987175000168916200163100    00008570                     000085700000000000000109                     I028570      31011800000000035003410000017N020118104700000000000103101180000000000000000000000000000000000000000100010078178797ALINE CORREA SOUZA                      AVENIDA PILAR DO SUL LOTE 42 QUADRA 23  GUARATIBA - 23033160RIO DE JANEIRO RJUNIAO UMB DOS CULTOS AFRO BRAS    31011810 000202
10231987175000168916200163100    00008567                     000085670000000000000109                     I028567      31011800000000035003410000017N020118104700000000000103101180000000000000000000000000000000000000000100010084300728RODRIGO ALVES DE PINHO                  RUA JOVITA FEITOSA N 131                VILA SAO JUD25243570DUQUE DE CAXIASRJUNIAO UMB DOS CULTOS AFRO BRAS    31011810 000203
10231987175000168916200163100    00008565                     000085650000000000000109                     I028565      31011800000000035003410000017N020118104700000000000103101180000000000000000000000000000000000000000100000615134742CONCEICAO DE SOUZA CAPITANO             RUA MECA N 103 - SAO BENEDITO           SAO BENEDITO26022540NOVA IGUACU    RJUNIAO UMB DOS CULTOS AFRO BRAS    31011810 000204
10231987175000168916200163100    00008564                     000085640000000000000109                     I028564      31011800000000035003410000017N020118104700000000000103101180000000000000000000000000000000000000000200000000003441MONALISA DE ALMEIDA CARVALHO            RUA NOSSA SENHORA DA PAZ N 111          SANTA CECILI26130660BELFORD ROXO   RJUNIAO UMB DOS CULTOS AFRO BRAS    31011810 000205
10231987175000168916200163100    00008562                     000085620000000000000109                     I028562      31011800000000035003410000017N020118104700000000000103101180000000000000000000000000000000000000000200000000003405VERA LUCIA BARBOSA DA CUNHA             RUA PORTO RICO N 232                    VIGARIO GERA21241200RIO DE JANEIRO RJUNIAO UMB DOS CULTOS AFRO BRAS    31011810 000206
10231987175000168916200163100    00008560                     000085600000000000000109                     I028560      31011800000000035003410000017N020118104700000000000103101180000000000000000000000000000000000000000100070421609753DERIVALDA DE JESUS MOREIRA              AVENIDA OSWALDO CRUZ N 55 APT 101       CENTRO - NIL26530100NILOPOLIS      RJUNIAO UMB DOS CULTOS AFRO BRAS    31011810 000207
10231987175000168916200163100    00008559                     000085590000000000000109                     I028559      31011800000000035003410000017N020118104700000000000103101180000000000000000000000000000000000000000100071741798787JAILTON DA SILVA VIEIRA                 RUA DA GAVEA N 3911                     VILA LEOPOLD25060300DUQUE DE CAXIASRJUNIAO UMB DOS CULTOS AFRO BRAS    31011810 000208
10231987175000168916200163100    00008558                     000085580000000000000109                     I028558      31011800000000035003410000017N020118104700000000000103101180000000000000000000000000000000000000000100069876207768JUREMA DIONISIO RODRIGUES               RUA CARLOS OLIMPIO DE MELLO N 59 CASA 1 PACIENCIA - 23585160RIO DE JANEIRO RJUNIAO UMB DOS CULTOS AFRO BRAS    31011810 000209
10231987175000168916200163100    00008557                     000085570000000000000109                     I028557      31011800000000035003410000017N020118104700000000000103101180000000000000000000000000000000000000000100001859792707REGIS GOMES DE OLIVEIRA                 AVENIDA DO CANAL N 54 - CONDOMINIO VALE ALBUQUERQUE 25976560TERESOPOLIS    RJUNIAO UMB DOS CULTOS AFRO BRAS    31011810 000210
10231987175000168916200163100    00008553                     000085530000000000000109                     I028553      31011800000000035003410000017N020118104700000000000103101180000000000000000000000000000000000000000100001050327780MARIA LUCIA DE FATIMA FERREIRA          RUA BUDAPESTE N 172 CASA 2 - BANCARIOS  BANCARIOS - 21911300RIO DE JANEIRO RJUNIAO UMB DOS CULTOS AFRO BRAS    31011810 000211
10231987175000168916200163100    00008552                     000085520000000000000109                     I028552      31011800000000035003410000017N020118104700000000000103101180000000000000000000000000000000000000000100004765875733BEATRIZ GOMES DEMIRSKY                  AVENIDA MERITI N 1421 APT 201           VILA DA PENH21220201RIO DE JANEIRO RJUNIAO UMB DOS CULTOS AFRO BRAS    31011810 000212
10231987175000168916200163100    00008551                     000085510000000000000109                     I028551      31011800000000035003410000017N020118104700000000000103101180000000000000000000000000000000000000000100009611659792ALUIZIO RODRIGUES RIBEIRO               RUA GARCIA PIRES N° 82 CASA 3          QUINTINO - R21331300RIO DE JANEIRO RJUNIAO UMB DOS CULTOS AFRO BRAS    31011810 000213
10231987175000168916200163100    00008550                     000085500000000000000109                     I028550      31011800000000035003410000017N020118104700000000000103101180000000000000000000000000000000000000000100058924477749MARIA DAS GRACAS AZEVEDO RIBEI          RUA VICENTE LIMA                        TEL 2662.73625560240SAO JOAO DE MERRJUNIAO UMB DOS CULTOS AFRO BRAS    31011810 000214
10231987175000168916200163100    00008547                     000085470000000000000109                     I028547      31011800000000035003410000017N020118104700000000000103101180000000000000000000000000000000000000000100088407721700CELSO DE OLIVEIRA ALBUQUERQUE           RUA ANHANGUERA LOTE 50 QUADRA 11        SAO BERNARDO26160660BELFORD ROXO   RJUNIAO UMB DOS CULTOS AFRO BRAS    31011810 000215
10231987175000168916200163100    00008546                     000085460000000000000109                     I028546      31011800000000035003410000017N020118104700000000000103101180000000000000000000000000000000000000000100096290986791CENTRO ESPIRITA DAMIAO (NEIL D          RUA VICENTE CELESTINO LOTE 4 QUADRA 1   COLUMBANDE -24744740SAO GONCALO    RJUNIAO UMB DOS CULTOS AFRO BRAS    31011810 000216
10231987175000168916200163100    00008545                     000085450000000000000109                     I028545      31011800000000035003410000017N020118104700000000000103101180000000000000000000000000000000000000000100001559752777CLAUDIA DA SILVA FERREIRA ANTO          RUA SAO JOAO N 89                       COSMOS - INH23060720INHOAIBA       RJUNIAO UMB DOS CULTOS AFRO BRAS    31011810 000217
10231987175000168916200163100    00008544                     000085440000000000000109                     I028544      31011800000000035003410000017N020118104700000000000103101180000000000000000000000000000000000000000100003792312762MARCIA REGINA DE SOUZA DA SILV          AVENIDA ALHAMBRA LOTE 12 QUADRA 9       BEL CRIMA - 23045805CAMPO GRANDE   RJUNIAO UMB DOS CULTOS AFRO BRAS    31011810 000218
10231987175000168916200163100    00008543                     000085430000000000000109                     I028543      31011800000000035003410000017N020118104700000000000103101180000000000000000000000000000000000000000100018338577715MARILDA ALVES DE ALMEIDA                RUA BORBOREMA  37                       MADUREIRA   21360150RIO DE JANEIRO RJUNIAO UMB DOS CULTOS AFRO BRAS    31011810 000219
10231987175000168916200163100    00008542                     000085420000000000000109                     I028542      31011800000000035003410000017N020118104700000000000103101180000000000000000000000000000000000000000100058486496772CELIA DOMINGOS DA SILVA                 RUA JANETE N 461                        BANCO DE ARE26275020MESQUITA       RJUNIAO UMB DOS CULTOS AFRO BRAS    31011810 000220
10231987175000168916200163100    00008540                     000085400000000000000109                     I028540      31011800000000035003410000017N020118104700000000000103101180000000000000000000000000000000000000000100082940983704JURACIARA DA CONCEICAO                  RUA ASSIS VASCONCELOS N 385             PILARES - RI20755010RIO DE JANEIRO RJUNIAO UMB DOS CULTOS AFRO BRAS    31011810 000221
10231987175000168916200163100    00008539                     000085390000000000000109                     I028539      31011800000000035003410000017N020118104700000000000103101180000000000000000000000000000000000000000100066391482772VERA LUCIA BARBOSA FERREIRA (D          RUA JOAO VICENTE N 1695 SOBRADO         MARECHAL HER21610210RIO DE JANEIRO RJUNIAO UMB DOS CULTOS AFRO BRAS    31011810 000222
10231987175000168916200163100    00008534                     000085340000000000000109                     I028534      31011800000000035003410000017N020118104700000000000103101180000000000000000000000000000000000000000100006944630788MARCOS AURELIO DO NASCIMENTO B          RUA PEDRO HERNESTO N 158 CASA 2         ENGENHEIRO P25015290DUQUE DE CAXIASRJUNIAO UMB DOS CULTOS AFRO BRAS    31011810 000223
10231987175000168916200163100    00008530                     000085300000000000000109                     I028530      31011800000000035003410000017N020118104700000000000103101180000000000000000000000000000000000000000200000000002504ANA LUCIA FRANCISCO BORGES              RUA DO ACAFRAO, 157 APTO 101            PADRE MIGUEL21870330RIO DE JANEIRO RJUNIAO UMB DOS CULTOS AFRO BRAS    31011810 000224
10231987175000168916200163100    00008529                     000085290000000000000109                     I028529      31011800000000035003410000017N020118104700000000000103101180000000000000000000000000000000000000000200000000001892INDELECIO DOS SANTOS                    RUA CAPITAO ABDALA CHAMA, 341 CASA 23   BENFICA - RI20911250RIO DE JANEIRO RJUNIAO UMB DOS CULTOS AFRO BRAS    31011810 000225
10231987175000168916200163100    00008528                     000085280000000000000109                     I028528      31011800000000035003410000017N020118104700000000000103101180000000000000000000000000000000000000000200000000002497SOLANGE MENDES DA SILVA                 RUA AFONSO CELSO DONELA, 351 - JARDIM NOREALENGO - R21745630RIO DE JANEIRO RJUNIAO UMB DOS CULTOS AFRO BRAS    31011810 000226
10231987175000168916200163100    00008527                     000085270000000000000109                     I028527      31011800000000035003410000017N020118104700000000000103101180000000000000000000000000000000000000000200000000002388JOSE ANTONIO ZANELLI                    RUA LIBANIO PORTO N 26 - SACRAMENTO     SITIO - MONJ24735360NITEROI        RJUNIAO UMB DOS CULTOS AFRO BRAS    31011810 000227
10231987175000168916200163100    00008526                     000085260000000000000109                     I028526      31011800000000035003410000017N020118104700000000000103101180000000000000000000000000000000000000000200000000002340BRAULIO ESPINI RIBEIRO                  RUA EMBOABA, 7 - PARQUE COLONIAL        LOTE XV - BE26180060BELFORD ROXO   RJUNIAO UMB DOS CULTOS AFRO BRAS    31011810 000228
10231987175000168916200163100    00008524                     000085240000000000000109                     I028524      31011800000000035003410000017N020118104700000000000103101180000000000000000000000000000000000000000200000000002310SEVERINO MIGUEL SIMAO                   RUA CONDOMINIO PASSAREDO, QUADRA 24 LOTECAM.DE BUZIO28910000CABO FRIO      RJUNIAO UMB DOS CULTOS AFRO BRAS    31011810 000229
10231987175000168916200163100    00008523                     000085230000000000000109                     I028523      31011800000000035003410000017N020118104700000000000103101180000000000000000000000000000000000000000200000000002291DALILA DE SOUZA PINHEIRO                RUA JOAO BRIGIDO, 121                   MAGALHAES BA21745480RIO DE JANEIRO RJUNIAO UMB DOS CULTOS AFRO BRAS    31011810 000230
10231987175000168916200163100    00008522                     000085220000000000000109                     I028522      31011800000000035003410000017N020118104700000000000103101180000000000000000000000000000000000000000100077547691749NEUSA MORAES DOS SANTOS                 RUA DEZOITO, 30                         JARDIM DA PA25930000MAGE           RJUNIAO UMB DOS CULTOS AFRO BRAS    31011810 000231
10231987175000168916200163100    00008521                     000085210000000000000109                     I028521      31011800000000035003410000017N020118104700000000000103101180000000000000000000000000000000000000000100048137880763PEDRO SILVA DO NASCIMENTO               ESTRADA DO TAQUARAL, 100 QUADRA 3 BLOCO BANGU - RIO 21842550RIO DE JANEIRO RJUNIAO UMB DOS CULTOS AFRO BRAS    31011810 000232
10231987175000168916200163100    00008520                     000085200000000000000109                     I028520      31011800000000035003410000017N020118104700000000000103101180000000000000000000000000000000000000000100058500120797CIRLEA SALDANHA DA COSTA                RUA: CARAMURU                           PRACA DA BAN25560110SAO JOAO DE MERRJUNIAO UMB DOS CULTOS AFRO BRAS    31011810 000233
10231987175000168916200163100    00008517                     000085170000000000000109                     I028517      31011800000000035003410000017N020118104700000000000103101180000000000000000000000000000000000000000100005538511790VALNEI BARBOSA DA SILVA                 RUA: DOS RUBIS Nº 19 - INHOAIBA        CAMPO GRANDE23064670RIO DE JANEIRO RJUNIAO UMB DOS CULTOS AFRO BRAS    31011810 000234
10231987175000168916200163100    00008516                     000085160000000000000109                     I028516      31011800000000035003410000017N020118104700000000000103101180000000000000000000000000000000000000000100028842723720HELENITA ANTONIA DE JESUS               RUA: ROBERTO CONSTANTINESCO 334         GUADALUPE   21675450RIO DE JANEIRO RJUNIAO UMB DOS CULTOS AFRO BRAS    31011810 000235
10231987175000168916200163100    00008515                     000085150000000000000109                     I028515      31011800000000035003410000017N020118104700000000000103101180000000000000000000000000000000000000000200000000001497PAULO FRANCISCO DA SILVA DANIE          RUA OTAWA, 407                          PARADA DE LU21241220RIO DE JANEIRO RJUNIAO UMB DOS CULTOS AFRO BRAS    31011810 000236
10231987175000168916200163100    00008513                     000085130000000000000109                     I028513      31011800000000035003410000017N020118104700000000000103101180000000000000000000000000000000000000000100001834521785MARCELO TEIXEIRA ORSI                   RUA A, 15 QUADRA 93 CASA 2              PARADA MORAB25000000DUQUE DE CAXIASRJUNIAO UMB DOS CULTOS AFRO BRAS    31011810 000237
10231987175000168916200163100    00008510                     000085100000000000000109                     I028510      31011800000000035003410000017N020118104700000000000103101180000000000000000000000000000000000000000100082351376749ALDA LUCIA DA SILVA                     RUA ANTONIO MARINS DE OLIVEIRA, 479     SAO MATEUS -25530000SAO JOAO DE MERRJUNIAO UMB DOS CULTOS AFRO BRAS    31011810 000238
10231987175000168916200163100    00008508                     000085080000000000000109                     I028508      31011800000000035003410000017N020118104700000000000103101180000000000000000000000000000000000000000100003029004708ANDREA GUIMARAES MARTINS                RUA ANA CRISTINA 31 - VILA GUIMARAES    VILA GUIMARA26088175NOVA IGUACU    RJUNIAO UMB DOS CULTOS AFRO BRAS    31011810 000239
10231987175000168916200163100    00008506                     000085060000000000000109                     I028506      31011800000000035003410000017N020118104700000000000103101180000000000000000000000000000000000000000200000000008078ELIZA DA SILVA                          RUA AMILTON NASCIMENTO N 214            CAROLINA - N26012760NOVA IGUACU    RJUNIAO UMB DOS CULTOS AFRO BRAS    31011810 000240
10231987175000168916200163100    00008505                     000085050000000000000109                     I028505      31011800000000035003410000017N020118104700000000000103101180000000000000000000000000000000000000000100041008154768ELISEU CAMARGO ARTHOU                   ESTRADA DO ENGENHO NOVO N 505 FUNDOS    ANCHIETA    21620241RIO DE JANEIRO RJUNIAO UMB DOS CULTOS AFRO BRAS    31011810 000241
10231987175000168916200163100    00008504                     000085040000000000000109                     I028504      31011800000000035003410000017N020118104700000000000103101180000000000000000000000000000000000000000200000000007963ELVIRA PEREIRA                          RUA VERISSIMO MACHADO                   ROCHA MIRAND21545060RIO DE JANEIRO RJUNIAO UMB DOS CULTOS AFRO BRAS    31011810 000242
10231987175000168916200163100    00008500                     000085000000000000000109                     I028500      31011800000000035003410000017N020118104700000000000103101180000000000000000000000000000000000000000200000000002044NATERCIA MALVAR GARCIA LEITAO           RUA CIRO COSTA, 491                     ENGENHO PEQU24417226SAO GONCALO    RJUNIAO UMB DOS CULTOS AFRO BRAS    31011810 000243
10231987175000168916200163100    00008498                     000084980000000000000109                     I028498      31011800000000035003410000017N020118104700000000000103101180000000000000000000000000000000000000000100066391482772VERA LUCIA BARBOSA FERREIRA             RUA APARECIDA, 427                      EDEN - SAO J25535020SAO JOAO DE MERRJUNIAO UMB DOS CULTOS AFRO BRAS    31011810 000244
10231987175000168916200163100    00008493                     000084930000000000000109                     I028493      31011800000000035003410000017N020118104700000000000103101180000000000000000000000000000000000000000200000000001769MARIA DA PIEDADE SANTANA DOS S          RUA CLARA DE ARAUJO N 2233 APTO 210     HELIOPOLIS -00000000BELFORD ROXO   RJUNIAO UMB DOS CULTOS AFRO BRAS    31011810 000245
10231987175000168916200163100    00008490                     000084900000000000000109                     I028490      31011800000000035003410000017N020118104700000000000103101180000000000000000000000000000000000000000200000000007758RUTH DA SILVA LIMA                      RUA APARECIDA, 533                      VILA CAMARI 26022181NOVA IGUACU    RJUNIAO UMB DOS CULTOS AFRO BRAS    31011810 000246
10231987175000168916200163100    00008489                     000084890000000000000109                     I028489      31011800000000035003410000017N020118104700000000000103101180000000000000000000000000000000000000000200000000007722MARIA EDITE MERENCIANA                  RUA PAPA JOAO XXIII, 179                RIO VARZEA -24800000NITEROI        RJUNIAO UMB DOS CULTOS AFRO BRAS    31011810 000247
10231987175000168916200163100    00008487                     000084870000000000000109                     I028487      31011800000000035003410000017N020118104700000000000103101180000000000000000000000000000000000000000200000000007679HUGO XAVIER                             AVENIDA PRESIDENTE VARGAS, 2007 APTO 130CENTRO - RJ 20210030RIO DE JANEIRO RJUNIAO UMB DOS CULTOS AFRO BRAS    31011810 000248
10231987175000168916200163100    00008485                     000084850000000000000109                     I028485      31011800000000035003410000017N020118104700000000000103101180000000000000000000000000000000000000000100095032061700CILEIA DA ROCHA PACHECO                 RUA DA FLORALIA, 14 FUNDOS              SANTA BARBAR24350000RIO DE JANEIRO RJUNIAO UMB DOS CULTOS AFRO BRAS    31011810 000249
