01REMESSA01COBRANCA       817800093673        União Umb dos Cultos Afro Bra341BANCO ITAU SA  030419                                                                                                                                                                                                                                                                                                      000001
10231987175000168817800093673    000044980                    000449800000000000000109                     I0144980     20041900000000400003410000017N030419104700000000000102004190000000000000000000000000000000000000000100004524099778CRISTIANE VIEIRA DAS CHAGAS             AVENIDA FLAMBOYNTS N 100, BLOCO 2 APT 50BARRA DA TIJ22776070RIO DE JANEIRO RJUNIAO UMB DOS CULTOS AFRO BRAS    20041910 000002
10231987175000168817800093673    000044979                    000449790000000000000109                     I0144979     30041900000000040003410000017N030419104700000000000103004190000000000000000000000000000000000000000100085557854720MARCIA FERREIRA DA SILVA                AVENIDA MONSENHOR FELIXN 1077, BLOCO 1 AIRAJA       21235112RIO DE JANEIRO RJUNIAO UMB DOS CULTOS AFRO BRAS    30041910 000003
10231987175000168817800093673    000044978                    000449780000000000000109                     I0144978     10041900000000040003410000017N030419104700000000000101004190000000000000000000000000000000000000000100010083312790EDINALDO FELIX DA SILVA                 RUA POJUCA N 174, CASA 3                ZUMBI       21930180ILHA DO GOVERNARJUNIAO UMB DOS CULTOS AFRO BRAS    10041910 000004
10231987175000168817800093673    000044977                    000449770000000000000109                     I0144977     19041900000000080003410000017N030419104700000000000101904190000000000000000000000000000000000000000100011778537790MARIVONE ANTONIA DOS SANTOS             RUA TOMAS FONSECAN 1237,                COMENDADOR S26031512NOVA IGUACU    RJUNIAO UMB DOS CULTOS AFRO BRAS    19041910 000005
10231987175000168817800093673    000044861                    000448610000000000000109                     I0244861     10041900000000350003410000017N210319104700000000000101004190000000000000000000000000000000000000000100001868270750CARLOS ALBERTO DO NASCIMENTO L          RUA: GUARABUN 70,                       INHAUMA     20761060RIO DE JANEIRO RJUNIAO UMB DOS CULTOS AFRO BRAS    10041910 000006
10231987175000168817800093673    000039038                    000390380000000000000109                     I0239038     30031900000000040003410000017N261218104700000000000103003190000000000000000000000000000000000000000100001430160756RITA DE CASSIA CORMACK DE CARV          RUA JOAQUIM TEIXEIRAN 58,               VILA TRES - 24711030SAO GONCALO    RJUNIAO UMB DOS CULTOS AFRO BRAS    30031910 000007
10231987175000168817800093673    000039023                    000390230000000000000109                     I0239023     30031900000000040003410000017N261218104700000000000103003190000000000000000000000000000000000000000100080974015768SHEYLA REGINA SERAPHIM DA HORA          RUA CAMBAIN 49,                         QUINTINO BOC21380300RIO DE JANEIRO RJUNIAO UMB DOS CULTOS AFRO BRAS    30031910 000008
10231987175000168817800093673    000039014                    000390140000000000000109                     I0239014     30031900000000040003410000017N261218104700000000000103003190000000000000000000000000000000000000000100003346596710ROSILENI ROSA DA SILVA                  RUA SOARES TAVARESN 133,                ITAIPU      24342110NITEROI        RJUNIAO UMB DOS CULTOS AFRO BRAS    30031910 000009
10231987175000168817800093673    000038800                    000388000000000000000109                     I0238800     30031900000000040003410000017N261218104700000000000103003190000000000000000000000000000000000000000100002912143713JANAINA PACHECO PINHEIRO                RUA LEMOS BRITON 768,                   QUINTINO BOC21311380RIO DE JANEIRO RJUNIAO UMB DOS CULTOS AFRO BRAS    30031910 000010
10231987175000168817800093673    000038646                    000386460000000000000109                     I0238646     30031900000000040003410000017N261218104700000000000103003190000000000000000000000000000000000000000100001868270750CARLOS ALBERTO DO NASCIMENTO L          RUA: GUARABUN 70,                       INHAUMA     20761060RIO DE JANEIRO RJUNIAO UMB DOS CULTOS AFRO BRAS    30031910 000011
10231987175000168817800093673    000038457                    000384570000000000000109                     I0238457     30031900000000040003410000017N261218104700000000000103003190000000000000000000000000000000000000000100048357480772MARIA DE FATIMA FRANCO DE LIMA          RUA DONA CORINA N 285,                  PIABETA     25935718MAGE           RJUNIAO UMB DOS CULTOS AFRO BRAS    30031910 000012
10231987175000168817800093673    000038371                    000383710000000000000109                     I0238371     30031900000000040003410000017N261218104700000000000103003190000000000000000000000000000000000000000100081230737715MARIA HELENA ORNELLAS DA COSTA          RUA CACEQUIN 117, CASA 2                CALIFORNIA  26220150NOVA IGUACU    RJUNIAO UMB DOS CULTOS AFRO BRAS    30031910 000013
10231987175000168817800093673    000038175                    000381750000000000000109                     I0238175     30031900000000040003410000017N261218104700000000000103003190000000000000000000000000000000000000000100043194869787JORGE PINHEIRO DE ALMEIDA               RUA CERQUEIRA CESAR N 121, CASA 1       MADUREIRA   21351070RIO DE JANEIRO RJUNIAO UMB DOS CULTOS AFRO BRAS    30031910 000014
10231987175000168817800093673    000038133                    000381330000000000000109                     I0238133     30031900000000040003410000017N261218104700000000000103003190000000000000000000000000000000000000000100011778537790MARIVONE ANTONIA DOS SANTOS             RUA TOMAS FONSECAN 1237,                COMENDADOR S26031512NOVA IGUACU    RJUNIAO UMB DOS CULTOS AFRO BRAS    30031910 000015
10231987175000168817800093673    000038031                    000380310000000000000109                     I0238031     30031900000000040003410000017N261218104700000000000103003190000000000000000000000000000000000000000100010083312790EDINALDO FELIX DA SILVA                 RUA POJUCA N 174, CASA 3                ZUMBI       21930180ILHA DO GOVERNARJUNIAO UMB DOS CULTOS AFRO BRAS    30031910 000016
10231987175000168817800093673    000037998                    000379980000000000000109                     I0237998     30031900000000040003410000017N261218104700000000000103003190000000000000000000000000000000000000000100000905106741RICARDO DE SOUZA GOUVEA                 RUA: DOS ARAUJON 0, LOTE 6 QUADRA 8     PARQUE FLUMI26185260BELFORD ROXO   RJUNIAO UMB DOS CULTOS AFRO BRAS    30031910 000017
10231987175000168817800093673    000037547                    000375470000000000000109                     I0237547     30031900000000040003410000017N261218104700000000000103003190000000000000000000000000000000000000000100043314503768LUIZ GONZAGA DE OLIVEIRA FILHO          RUA UNIAON 16,                          RIO DAS PEDR22753700RIO DE JANEIRO RJUNIAO UMB DOS CULTOS AFRO BRAS    30031910 000018
10231987175000168817800093673    000037119                    000371190000000000000109                     I0237119     28021900000000040003410000017N261218104700000000000102802190000000000000000000000000000000000000000100001430160756RITA DE CASSIA CORMACK DE CARV          RUA JOAQUIM TEIXEIRAN 58,               VILA TRES - 24711030SAO GONCALO    RJUNIAO UMB DOS CULTOS AFRO BRAS    28021910 000019
10231987175000168817800093673    000037104                    000371040000000000000109                     I0237104     28021900000000040003410000017N261218104700000000000102802190000000000000000000000000000000000000000100080974015768SHEYLA REGINA SERAPHIM DA HORA          RUA CAMBAIN 49,                         QUINTINO BOC21380300RIO DE JANEIRO RJUNIAO UMB DOS CULTOS AFRO BRAS    28021910 000020
10231987175000168817800093673    000037095                    000370950000000000000109                     I0237095     28021900000000040003410000017N261218104700000000000102802190000000000000000000000000000000000000000100003346596710ROSILENI ROSA DA SILVA                  RUA SOARES TAVARESN 133,                ITAIPU      24342110NITEROI        RJUNIAO UMB DOS CULTOS AFRO BRAS    28021910 000021
10231987175000168817800093673    000036728                    000367280000000000000109                     I0236728     28021900000000040003410000017N261218104700000000000102802190000000000000000000000000000000000000000100001868270750CARLOS ALBERTO DO NASCIMENTO L          RUA: GUARABUN 70,                       INHAUMA     20761060RIO DE JANEIRO RJUNIAO UMB DOS CULTOS AFRO BRAS    28021910 000022
10231987175000168817800093673    000036217                    000362170000000000000109                     I0236217     28021900000000040003410000017N261218104700000000000102802190000000000000000000000000000000000000000100011778537790MARIVONE ANTONIA DOS SANTOS             RUA TOMAS FONSECAN 1237,                COMENDADOR S26031512NOVA IGUACU    RJUNIAO UMB DOS CULTOS AFRO BRAS    28021910 000023
10231987175000168817800093673    000036083                    000360830000000000000109                     I0236083     28021900000000040003410000017N261218104700000000000102802190000000000000000000000000000000000000000100000905106741RICARDO DE SOUZA GOUVEA                 RUA: DOS ARAUJON 0, LOTE 6 QUADRA 8     PARQUE FLUMI26185260BELFORD ROXO   RJUNIAO UMB DOS CULTOS AFRO BRAS    28021910 000024
10231987175000168817800093673    000036069                    000360690000000000000109                     I0236069     28021900000000040003410000017N261218104700000000000102802190000000000000000000000000000000000000000100088469212753NEIDE CARVALHO D ANGELO                 RUA GENERAL TRAUMATURGO N 0, LOTE 17 QUAVILA ROSARIO25040010DUQUE DE CAXIASRJUNIAO UMB DOS CULTOS AFRO BRAS    28021910 000025
9                                                                                                                                                                                                                                                                                                                                                                                                         000026
