01REMESSA01COBRANCA       817800093673        União Umb dos Cultos Afro Bra341BANCO ITAU SA  280519                                                                                                                                                                                                                                                                                                      000001
10231987175000168817800093673    000045322                    000453220000000000000109                     I0145322     30061900000000040003410000017N280519105700000000000103006190000000000000000000000000000000000000000100002593772794EUNICE ROSA ALVES PEREIRA               ESTRADA DOS VIEIRASN 1586, RUA PROJETADAPACIENCIA   23587610RIO DE JANEIRO RJUNIAO UMB DOS CULTOS AFRO BRAS    30061915 000002
10231987175000168817800093673    000045321                    000453210000000000000109                     I0145321     10061900000000300003410000017N280519105700000000000101006190000000000000000000000000000000000000000100000446671754JUSSARA MATHIAS TEIXEIRA                RUA VEREADOR OSVALDO MARCONDES N 106,   JOSE BONIFAC25515380SAO JOAO DE MERRJUNIAO UMB DOS CULTOS AFRO BRAS    10061915 000003
10231987175000168817800093673    000045320                    000453200000000000000109                     I0145320     07061900000000300003410000017N280519105700000000000100706190000000000000000000000000000000000000000100012113754711ANDREZA SALDANHA DA CRUZ                RUA DA MINAN 0, LOTE 3 QUADRA 30        SAO FRANCISC26125550BELFORD ROXO   RJUNIAO UMB DOS CULTOS AFRO BRAS    07061915 000004
10231987175000168817800093673    000045319                    000453190000000000000109                     I0145319     31051900000000140003410000017N280519105700000000000103105190000000000000000000000000000000000000000100092650716720ANDRE LUIS ALMEIDA SOUZA                RUA PTOLOMEUN 0, LOTE 30 QUADRA 23      GLAUCIA     26195195BELFORD ROXO   RJUNIAO UMB DOS CULTOS AFRO BRAS    31051915 000005
10231987175000168817800093673    000045318                    000453180000000000000109                     I0245318     28061900000000040003410000017N280519105700000000000102806190000000000000000000000000000000000000000100073803499704MIRNA OLIVEIRA DO NASCIMENTO            RUA JOSE LOURENCO DA SILVAN 0, QUADRA 2 SAO JOSE DO 24930668MARICA         RJUNIAO UMB DOS CULTOS AFRO BRAS    28061915 000006
10231987175000168817800093673    000045317                    000453170000000000000109                     I0145317     10061900000000400003410000017N280519105700000000000101006190000000000000000000000000000000000000000100009548831791PEDRO SAMPAIO DA SILVA                  RUA ALZIRA VALDETARON 161,              SAMPAIO     20950070RIO DE JANEIRO RJUNIAO UMB DOS CULTOS AFRO BRAS    10061915 000007
10231987175000168817800093673    000045316                    000453160000000000000109                     I0145316     05061900000000200003410000017N280519105700000000000100506190000000000000000000000000000000000000000100009142845769MICHELE OAZEM MINEIRO                   RUA CARIOCAN 0, LOTE 10 QUADRA B        SAO BERNARDO26167210BELFORD ROXO   RJUNIAO UMB DOS CULTOS AFRO BRAS    05061915 000008
10231987175000168817800093673    000045315                    000453150000000000000109                     I0245315     10061900000000240003410000017N280519105700000000000101006190000000000000000000000000000000000000000100009142845769MICHELE OAZEM MINEIRO                   RUA CARIOCAN 0, LOTE 10 QUADRA B        SAO BERNARDO26167210BELFORD ROXO   RJUNIAO UMB DOS CULTOS AFRO BRAS    10061915 000009
9                                                                                                                                                                                                                                                                                                                                                                                                         000010
