01REMESSA01COBRANCA       817800093673        União Umb dos Cultos Afro Bra341BANCO ITAU SA  240218                                                                                                                                                                                                                                                                                                      000001
10231987175000168817800093673    000011945                    000119450000000000000109                     I0111945     30041800000000035003410000017N200218104700000000000103004180000000000000000000000000000000000000000100000261600729ELIANE ZELIA DE OLIVEIRA                RUA VENANCIO AIRES, 1781                GRAMACHO - D25035340DUQUE DE CAXIASRJUNIAO UMB DOS CULTOS AFRO BRAS    30041810 000002
10231987175000168817800093673    000011944                    000119440000000000000109                     I0111944     30041800000000035003410000017N200218104700000000000103004180000000000000000000000000000000000000000100000856003778ANA ELIZABETE ANTUNES SANTOS            RUA: GETULIO VARGAS                     SEPETIBA    23540130RIO DE JANEIRO RJUNIAO UMB DOS CULTOS AFRO BRAS    30041810 000003
10231987175000168817800093673    000011943                    000119430000000000000109                     I0111943     30041800000000035003410000017N200218104700000000000103004180000000000000000000000000000000000000000100002202729720ANA CLAUDIA NEVES BARRETO               RUA ACARA, 402                          VAZ LOBO    21361310RIO DE JANEIRO RJUNIAO UMB DOS CULTOS AFRO BRAS    30041810 000004
10231987175000168817800093673    000011942                    000119420000000000000109                     I0111942     30041800000000035003410000017N200218104700000000000103004180000000000000000000000000000000000000000100008681117750DAVIS CANDIDO PEREIRA                   RUA BALTAZAR,  QUADRA 2 LOTE 21         CAMPO ALEGRE26292276NOVA IGUACU    RJUNIAO UMB DOS CULTOS AFRO BRAS    30041810 000005
10231987175000168817800093673    000011941                    000119410000000000000109                     I0111941     30041800000000035003410000017N200218104700000000000103004180000000000000000000000000000000000000000100078790344715ROSANE ESTEVES DOS SANTOS               RUA VINTE E DOIS DE MARCO N 14          PRAINHA - DU25010730DUQUE DE CAXIASRJUNIAO UMB DOS CULTOS AFRO BRAS    30041810 000006
10231987175000168817800093673    000011940                    000119400000000000000109                     I0111940     30041800000000035003410000017N200218104700000000000103004180000000000000000000000000000000000000000100089823753768MARIA JOSE DA ROCHA NOBREGA             MESMO                                   MESMO       26150071BELFORD ROXO   RJUNIAO UMB DOS CULTOS AFRO BRAS    30041810 000007
10231987175000168817800093673    000011939                    000119390000000000000109                     I0111939     30041800000000035003410000017N200218104700000000000103004180000000000000000000000000000000000000000100082977852700ISAURA FERNANDES FERREIRA               RUA DENVER, LOTE 23 QUADRA 15           PIAM - BELFO26115590BELFORD ROXO   RJUNIAO UMB DOS CULTOS AFRO BRAS    30041810 000008
10231987175000168817800093673    000011938                    000119380000000000000109                     I0111938     30041800000000035003410000017N200218104700000000000103004180000000000000000000000000000000000000000100007953958767PATRICIA DE OLIVEIRA ROIF               RUA MATURACA, LOTE 2 QUADRA 1           PENHA CIRCUL21210360RIO DE JANEIRO RJUNIAO UMB DOS CULTOS AFRO BRAS    30041810 000009
10231987175000168817800093673    000011937                    000119370000000000000109                     I0111937     30041800000000035003410000017N200218104700000000000103004180000000000000000000000000000000000000000100010910780765TIAGO DE ANDRADE ALMEIDA                RUA PAULO DE FRONTIM , 29               GOVERNADOR P26910000MIGUEL PEREIRA RJUNIAO UMB DOS CULTOS AFRO BRAS    30041810 000010
10231987175000168817800093673    000011936                    000119360000000000000109                     I0111936     30041800000000035003410000017N200218104700000000000103004180000000000000000000000000000000000000000100088481638749COSME JOSE ANDRADE DE OLIVEIRA          RUA OLIVEIRA REIS, 94                   SANTA BARBAR27113240BARRA DO PIRAI RJUNIAO UMB DOS CULTOS AFRO BRAS    30041810 000011
10231987175000168817800093673    000011935                    000119350000000000000109                     I0111935     30041800000000035003410000017N200218104700000000000103004180000000000000000000000000000000000000000100024721975864LIDIANE FERNANDA BON SCHIAVI S          RUA ALBERTO SANTOS DRUMONT, 161         BELVEDERE DA27113330BARRA DO PIRAI RJUNIAO UMB DOS CULTOS AFRO BRAS    30041810 000012
10231987175000168817800093673    000011934                    000119340000000000000109                     I0111934     30041800000000035003410000017N200218104700000000000103004180000000000000000000000000000000000000000100084290951791ZUELI DA SILVA                          RUA JOSE MARIO FERREIRA, 64             COIMBRA - BA27115180BARRA DO PIRAI RJUNIAO UMB DOS CULTOS AFRO BRAS    30041810 000013
10231987175000168817800093673    000011933                    000119330000000000000109                     I0111933     30041800000000035003410000017N200218104700000000000103004180000000000000000000000000000000000000000100001794872728JORGE TEIXEIRA DE LIMA                  ESTRADA DO GUERENGUE, 2118              CURICICA  - 22713001RIO DE JANEIRO RJUNIAO UMB DOS CULTOS AFRO BRAS    30041810 000014
10231987175000168817800093673    000011932                    000119320000000000000109                     I0111932     30041800000000035003410000017N200218104700000000000103004180000000000000000000000000000000000000000100089770250791JUREMA DA MACENA RAYMUNDO               RUA DAS DALIAS, 78                      VILA VALQUEI21330740RIO DE JANEIRO RJUNIAO UMB DOS CULTOS AFRO BRAS    30041810 000015
10231987175000168817800093673    000011931                    000119310000000000000109                     I0111931     30041800000000035003410000017N200218104700000000000103004180000000000000000000000000000000000000000100014326136774CAIO CESAR LIMA DA CRUZ                 RUA QUINTINO BOCAIUVA, 349              NOVA CIDADE 26535130NILOPOLIS      RJUNIAO UMB DOS CULTOS AFRO BRAS    30041810 000016
10231987175000168817800093673    000011930                    000119300000000000000109                     I0111930     30041800000000035003410000017N200218104700000000000103004180000000000000000000000000000000000000000100005878475731CLEITOM RODRIGUES DE OLIVEIRA           RUA ARARI, 621 BLOCO 38 APT 304         BANGU - RJ  21875260RIO DE JANEIRO RJUNIAO UMB DOS CULTOS AFRO BRAS    30041810 000017
10231987175000168817800093673    000011929                    000119290000000000000109                     I0111929     30041800000000035003410000017N200218104700000000000103004180000000000000000000000000000000000000000100000556390709ANNA MENDONCA BORGES                    RUA I, LOTEAMENTO SAO SEBASTIAO, 1089   FRAGOSO - MA25935486MAGE           RJUNIAO UMB DOS CULTOS AFRO BRAS    30041810 000018
10231987175000168817800093673    000011928                    000119280000000000000109                     I0111928     30041800000000035003410000017N200218104700000000000103004180000000000000000000000000000000000000000100044331762734ELMA HONORIA DAS NEVES                  RUA CORREIA DIAS, 1052 CASA 6           VIGARIO GERA21241310RIO DE JANEIRO RJUNIAO UMB DOS CULTOS AFRO BRAS    30041810 000019
10231987175000168817800093673    000011927                    000119270000000000000109                     I0111927     30041800000000035003410000017N200218104700000000000103004180000000000000000000000000000000000000000100062820125700LUIS AFONSO DOS SANTOS                  RUA RETIRO FELIZ, 2                     PARQUE AIDA 26193020BELFORD ROXO   RJUNIAO UMB DOS CULTOS AFRO BRAS    30041810 000020
10231987175000168817800093673    000011926                    000119260000000000000109                     I0111926     30041800000000035003410000017N200218104700000000000103004180000000000000000000000000000000000000000100002200754760VANESSA MEDINA DA SILVA                 RUA JOAQUIM MOREIRA, 45                 SEPETIBA - R23545003RIO DE JANEIRO RJUNIAO UMB DOS CULTOS AFRO BRAS    30041810 000021
10231987175000168817800093673    000011925                    000119250000000000000109                     I0111925     30041800000000035003410000017N200218104700000000000103004180000000000000000000000000000000000000000100003350774717ROGERIO SILVA DE SOUZA                  RUA TACARATU, 118                       ROCHA MIRAND21555010RIO DE JANEIRO RJUNIAO UMB DOS CULTOS AFRO BRAS    30041810 000022
10231987175000168817800093673    000011924                    000119240000000000000109                     I0111924     30041800000000035003410000017N200218104700000000000103004180000000000000000000000000000000000000000100008612394740SEBASTIAO PORTES NETO                   RUA MARIETA, 451                        PARQUE SAO N25530093SAO JOAO DE MERRJUNIAO UMB DOS CULTOS AFRO BRAS    30041810 000023
10231987175000168817800093673    000011923                    000119230000000000000109                     I0111923     30041800000000035003410000017N200218104700000000000103004180000000000000000000000000000000000000000100007812146707GRASIELI RIBEIRO DE ALMEIDA             RUA PADRE ARMANDO NOGUEIRA, 30          AGUA SANTA -20745120RIO DE JANEIRO RJUNIAO UMB DOS CULTOS AFRO BRAS    30041810 000024
10231987175000168817800093673    000011922                    000119220000000000000109                     I0111922     30041800000000035003410000017N200218104700000000000103004180000000000000000000000000000000000000000100059744510749ANGELA REGINA ROSA DE SA                RUA SUEZ, 174 - KM 35                   BOM JESUS - 26298180NOVA IGUACU    RJUNIAO UMB DOS CULTOS AFRO BRAS    30041810 000025
10231987175000168817800093673    000011921                    000119210000000000000109                     I0111921     30041800000000035003410000017N200218104700000000000103004180000000000000000000000000000000000000000100003558966724ANDREA CORDEIRO DA CONCEICAO S          RUA  PARATI, 379 - KM 35                BOM JESUS - 26298183NOVA IGUACU    RJUNIAO UMB DOS CULTOS AFRO BRAS    30041810 000026
10231987175000168817800093673    000011920                    000119200000000000000109                     I0111920     30041800000000035003410000017N200218104700000000000103004180000000000000000000000000000000000000000100096051523715MARIA DE LOURDES PEREIRA                RUA MAX MANOEL MOLTER LOTE 42           QUARTEIRAO B25680211PETROPOLIS     RJUNIAO UMB DOS CULTOS AFRO BRAS    30041810 000027
10231987175000168817800093673    000011919                    000119190000000000000109                     I0111919     30041800000000035003410000017N200218104700000000000103004180000000000000000000000000000000000000000100008604956719MIRIAN DE MATTOS ALVES                  AVENIDA MOACIR SARAIVA DE CARVALHO, LOTEJD METROPOLI25571190SAO JOAO DE MERRJUNIAO UMB DOS CULTOS AFRO BRAS    30041810 000028
10231987175000168817800093673    000011918                    000119180000000000000109                     I0111918     30041800000000035003410000017N200218104700000000000103004180000000000000000000000000000000000000000100002415896730ROSIELMA SANTOS SOUZA                   RUA MONDEGO, 78                         RICARDO DE A21665130RIO DE JANEIRO RJUNIAO UMB DOS CULTOS AFRO BRAS    30041810 000029
10231987175000168817800093673    000011917                    000119170000000000000109                     I0111917     30041800000000035003410000017N200218104700000000000103004180000000000000000000000000000000000000000100059680903753TANIA REGINA DOS SANTOS MARQUE          RUA VISCONDE DE MACEIO, 50 - FRENTE     IRAJA - RIO 21235100RIO DE JANEIRO RJUNIAO UMB DOS CULTOS AFRO BRAS    30041810 000030
10231987175000168817800093673    000011916                    000119160000000000000109                     I0111916     30041800000000035003410000017N200218104700000000000103004180000000000000000000000000000000000000000100063430773791GERMANO ROSEMBERG                       RUA DOUTOR TABAJARA DE ARAUJO GAMA, 694 PIRATININGA 24350694NITEROI        RJUNIAO UMB DOS CULTOS AFRO BRAS    30041810 000031
10231987175000168817800093673    000011915                    000119150000000000000109                     I0111915     30041800000000035003410000017N200218104700000000000103004180000000000000000000000000000000000000000100015137144738RAFAEL NUNES ALVES SALSA                RUA PUIPE, 123                          BENTO RIBEIR21550420RIO DE JANEIRO RJUNIAO UMB DOS CULTOS AFRO BRAS    30041810 000032
10231987175000168817800093673    000011914                    000119140000000000000109                     I0111914     30041800000000035003410000017N200218104700000000000103004180000000000000000000000000000000000000000100003003808789ADRIANA LUCIANA DA SILVA                AVENIDA VICENTE DE CARVALHO, 1086, RUA AVICENTE DE C21210024RIO DE JANEIRO RJUNIAO UMB DOS CULTOS AFRO BRAS    30041810 000033
10231987175000168817800093673    000011913                    000119130000000000000109                     I0111913     30041800000000035003410000017N200218104700000000000103004180000000000000000000000000000000000000000100008997230719RAIMUNDA DE SOUZA MEDEIROS              RUA ARATICUM, 835 APTO 401              ANIL - JACAR22753500RIO DE JANEIRO RJUNIAO UMB DOS CULTOS AFRO BRAS    30041810 000034
10231987175000168817800093673    000011912                    000119120000000000000109                     I0111912     30041800000000035003410000017N200218104700000000000103004180000000000000000000000000000000000000000100001156424712VANUSIA DOS SANTOS MOREIRA              AVENIDA JOAO XXIII, 1900 RUA 25 QUADRA 2SANTA CRUZ -23560352RIO DE JANEIRO RJUNIAO UMB DOS CULTOS AFRO BRAS    30041810 000035
10231987175000168817800093673    000011911                    000119110000000000000109                     I0111911     30041800000000035003410000017N200218104700000000000103004180000000000000000000000000000000000000000100095674454787GILVANIA RODRIGUES DE SANTANA           RUA TRAVASSOS, LOTE 4 QUADRA B          PARQUE SAO B26183730BELFORD ROXO   RJUNIAO UMB DOS CULTOS AFRO BRAS    30041810 000036
10231987175000168817800093673    000011910                    000119100000000000000109                     I0111910     30041800000000035003410000017N200218104700000000000103004180000000000000000000000000000000000000000100008629571764SILVANA DA COSTA SANTOS                 RUA H, CASA 11 QUADRA 8                 BALNEARIO - 28940000SAO PEDRO DA ALRJUNIAO UMB DOS CULTOS AFRO BRAS    30041810 000037
10231987175000168817800093673    000011909                    000119090000000000000109                     I0111909     30041800000000035003410000017N200218104700000000000103004180000000000000000000000000000000000000000100013848361795VICTOR ALEXANDRE MAGHELLY G. D          RUA AQUIBADA, LOTE 25 QUADRA 19         CAMPO ALEGRE26292171NOVA IGUACU    RJUNIAO UMB DOS CULTOS AFRO BRAS    30041810 000038
10231987175000168817800093673    000011908                    000119080000000000000109                     I0111908     30041800000000035003410000017N200218104700000000000103004180000000000000000000000000000000000000000100004291405766JACQUELINE ELIZABETH BALTHAZAR          RUA PROFESSOR LACE, 134 APTO 404        RAMOS - RIO 21060120RIO DE JANEIRO RJUNIAO UMB DOS CULTOS AFRO BRAS    30041810 000039
10231987175000168817800093673    000011907                    000119070000000000000109                     I0111907     30041800000000035003410000017N200218104700000000000103004180000000000000000000000000000000000000000100058684522400JOSE RICARDO LIMA DE ALMEIDA            RUA MALHERBE, LOTE 28 QUADRA 139        PQ PAULISTA 25261440DUQUE DE CAXIASRJUNIAO UMB DOS CULTOS AFRO BRAS    30041810 000040
10231987175000168817800093673    000011906                    000119060000000000000109                     I0111906     30041800000000035003410000017N200218104700000000000103004180000000000000000000000000000000000000000100007682577789CLAUDIA CRISTINA CARVALHO AREA          RUA ALFAZEMA, 91 CASA 1                 PADRE MIGUEL21720360RIO DE JANEIRO RJUNIAO UMB DOS CULTOS AFRO BRAS    30041810 000041
10231987175000168817800093673    000011905                    000119050000000000000109                     I0111905     30041800000000035003410000017N200218104700000000000103004180000000000000000000000000000000000000000100000912311754PAULO HENRIQUE DA SILVA MOURA           RUA QUATI, 112                          MIGUEL COUTO26060420NOVA IGUACU    RJUNIAO UMB DOS CULTOS AFRO BRAS    30041810 000042
10231987175000168817800093673    000011904                    000119040000000000000109                     I0111904     30041800000000035003410000017N200218104700000000000103004180000000000000000000000000000000000000000100087394464768LEILA MARIA ROSA MARTINS                RUA EDNA MEDEIROS, 155                  CORUMBA - NO26042430NOVA IGUACU    RJUNIAO UMB DOS CULTOS AFRO BRAS    30041810 000043
10231987175000168817800093673    000011903                    000119030000000000000109                     I0111903     30041800000000035003410000017N200218104700000000000103004180000000000000000000000000000000000000000100050600567753MARIA JOSE DA SILVA                     RUA JULIETA, 7 APTO 201                 PIEDADE - RI20751440RIO DE JANEIRO RJUNIAO UMB DOS CULTOS AFRO BRAS    30041810 000044
10231987175000168817800093673    000011902                    000119020000000000000109                     I0111902     30041800000000035003410000017N200218104700000000000103004180000000000000000000000000000000000000000100004245693703JONETE DA SILVA FRANCISCO               RUA MOZART FIRMESA, 20 COBERTURA 303    RECREIO - RJ22795365RIO DE JANEIRO RJUNIAO UMB DOS CULTOS AFRO BRAS    30041810 000045
10231987175000168817800093673    000011901                    000119010000000000000109                     I0111901     30041800000000035003410000017N200218104700000000000103004180000000000000000000000000000000000000000100003360087755ELIENE GONCALVES JACINTO                TRAVESSA DAS FLORES, 20                 PARQUE LAFAI25010695DUQUE DE CAXIASRJUNIAO UMB DOS CULTOS AFRO BRAS    30041810 000046
10231987175000168817800093673    000011900                    000119000000000000000109                     I0111900     30041800000000035003410000017N200218104700000000000103004180000000000000000000000000000000000000000100035750553787SUELY PINHEIRO DA SILVA                 RUA MARILENE VIEIRA DE ASSIS, 850 FUNDOSVILA MARIA H25251500DUQUE DE CAXIASRJUNIAO UMB DOS CULTOS AFRO BRAS    30041810 000047
10231987175000168817800093673    000011899                    000118990000000000000109                     I0111899     30041800000000035003410000017N200218104700000000000103004180000000000000000000000000000000000000000100007547737790ALESSANDRO CRUZ GONCALVES               RUA DIONISIO FERNANDES, 297 BLOCO 1 APTOENGENHO DE D20730400RIO DE JANEIRO RJUNIAO UMB DOS CULTOS AFRO BRAS    30041810 000048
10231987175000168817800093673    000011898                    000118980000000000000109                     I0111898     30041800000000035003410000017N200218104700000000000103004180000000000000000000000000000000000000000100005836497770SIDEAN LEANDRO DOS SANTOS CRUZ          RUA MENDES RIBEIRO, 696                 PATRONATO - 24431635SAO GONCALO    RJUNIAO UMB DOS CULTOS AFRO BRAS    30041810 000049
10231987175000168817800093673    000011897                    000118970000000000000109                     I0111897     30041800000000035003410000017N200218104700000000000103004180000000000000000000000000000000000000000100075911140772MARCIA FIGUEIREDO DOS SANTOS G          RUA FERNANDO LOBO, 571 - RUA B QUADRA B GUADALUPE - 21665070RIO DE JANEIRO RJUNIAO UMB DOS CULTOS AFRO BRAS    30041810 000050
10231987175000168817800093673    000011896                    000118960000000000000109                     I0111896     30041800000000035003410000017N200218104700000000000103004180000000000000000000000000000000000000000100007730416727ALESSANDRA REGINA DOS ANJOS             RUA NEVES, 119                          PARQUE TIETE25585380SAO JOAO DE MERRJUNIAO UMB DOS CULTOS AFRO BRAS    30041810 000051
10231987175000168817800093673    000011895                    000118950000000000000109                     I0111895     30041800000000035003410000017N200218104700000000000103004180000000000000000000000000000000000000000100047657383704JAIR LOURENCO DE LIMA                   O MESMO                                 O MESMO     25640340PETROPOLIS     RJUNIAO UMB DOS CULTOS AFRO BRAS    30041810 000052
10231987175000168817800093673    000011894                    000118940000000000000109                     I0111894     30041800000000035003410000017N200218104700000000000103004180000000000000000000000000000000000000000100089209001753ALDIR TEIXEIRA DE SOUZA                 RUA BELO HORIZONTE, 381                 BANGU - RIO 21815141RIO DE JANEIRO RJUNIAO UMB DOS CULTOS AFRO BRAS    30041810 000053
10231987175000168817800093673    000011893                    000118930000000000000109                     I0111893     30041800000000035003410000017N200218104700000000000103004180000000000000000000000000000000000000000100003598384726ROSANE QUIRINO DA SILVA                 RUA MANUEL RODRIGUES FONTINHA, 119      NOVA CIDADE 26535270NILOPOLIS      RJUNIAO UMB DOS CULTOS AFRO BRAS    30041810 000054
10231987175000168817800093673    000011892                    000118920000000000000109                     I0111892     30041800000000035003410000017N200218104700000000000103004180000000000000000000000000000000000000000100002330389727LENIRA FELIX DA SILVA                   RUA ULISSES ROBERTO, 1524               BOACU - SAO 24467490SAO GONCALO    RJUNIAO UMB DOS CULTOS AFRO BRAS    30041810 000055
10231987175000168817800093673    000011891                    000118910000000000000109                     I0111891     30041800000000035003410000017N200218104700000000000103004180000000000000000000000000000000000000000100005368533713DIVALCI COELHO REINALDO                 RUA CEVADA, 17                          PANTANAL    26297108NOVA IGUACU    RJUNIAO UMB DOS CULTOS AFRO BRAS    30041810 000056
10231987175000168817800093673    000011890                    000118900000000000000109                     I0111890     30041800000000035003410000017N200218104700000000000103004180000000000000000000000000000000000000000100007429687741MAURO ROBERTO NEVES DA HORA             RUA BRAS CUBAS, 112 BLOCO 3 APTO 106    CONDOMINIO P21520030RIO DE JANEIRO RJUNIAO UMB DOS CULTOS AFRO BRAS    30041810 000057
10231987175000168817800093673    000011889                    000118890000000000000109                     I0111889     30041800000000035003410000017N200218104700000000000103004180000000000000000000000000000000000000000100002380864705MARCELO CISNEIROS DA SILVA              RUA GUAIBA, 481                         VILA DA PENH21215070RIO DE JANEIRO RJUNIAO UMB DOS CULTOS AFRO BRAS    30041810 000058
10231987175000168817800093673    000011888                    000118880000000000000109                     I0111888     30041800000000035003410000017N200218104700000000000103004180000000000000000000000000000000000000000100055046010704SONIA REGINA PINTO DA SILVA             RUA ARACOIA, 188 FUNDOS                 BRAZ DE PINA21011140RIO DE JANEIRO RJUNIAO UMB DOS CULTOS AFRO BRAS    30041810 000059
10231987175000168817800093673    000011887                    000118870000000000000109                     I0111887     30041800000000035003410000017N200218104700000000000103004180000000000000000000000000000000000000000100010093629761DANIELLE DO NASCIMENTO NICACIO          ESTRADA DA GRANJA, 100 FRENTE           PALHADA - NO26290249NOVA IGUACU    RJUNIAO UMB DOS CULTOS AFRO BRAS    30041810 000060
10231987175000168817800093673    000011886                    000118860000000000000109                     I0111886     30041800000000035003410000017N200218104700000000000103004180000000000000000000000000000000000000000100009963993729LEANDRO DE SOUZA OLIVEIRA               RUA DA MATRIZ, 876                      CENTRO - SAO25525130SAO JOAO DE MERRJUNIAO UMB DOS CULTOS AFRO BRAS    30041810 000061
10231987175000168817800093673    000011885                    000118850000000000000109                     I0111885     30041800000000035003410000017N200218104700000000000103004180000000000000000000000000000000000000000100003439982700ANDRE LUIS SANTIAGO DE ALMEIDA          RUA TANGER, 39                          SANTA CRUZ -23555013RIO DE JANEIRO RJUNIAO UMB DOS CULTOS AFRO BRAS    30041810 000062
10231987175000168817800093673    000011884                    000118840000000000000109                     I0111884     30041800000000035003410000017N200218104700000000000103004180000000000000000000000000000000000000000100000338518754EDUARDO LUIS E SILVA COIMBRA            RUA DOS INVALIDOS, 138 BLOCO 1 APTO 209 LAPA - CENTR20231046RIO DE JANEIRO RJUNIAO UMB DOS CULTOS AFRO BRAS    30041810 000063
10231987175000168817800093673    000011883                    000118830000000000000109                     I0111883     30041800000000035003410000017N200218104700000000000103004180000000000000000000000000000000000000000100013565688742CAIO CESAR DUARTE DE SOUZA              RUA CALUMBI, 300 APT 305                IRAJA - RIO 21361260RIO DE JANEIRO RJUNIAO UMB DOS CULTOS AFRO BRAS    30041810 000064
10231987175000168817800093673    000011882                    000118820000000000000109                     I0111882     30041800000000035003410000017N200218104700000000000103004180000000000000000000000000000000000000000100081905530706ALBERTO DINIZ RODRIGUES GABRIE          RUA AGAI, S/N QUADRA 38 LOTE 14         PACIENCIA   23065620RIO DE JANEIRO RJUNIAO UMB DOS CULTOS AFRO BRAS    30041810 000065
10231987175000168817800093673    000011881                    000118810000000000000109                     I0111881     30041800000000035003410000017N200218104700000000000103004180000000000000000000000000000000000000000100044239300720WALDIR DAS CHAGAS FILHO                 RUA CALMON CABRAL, 72 CASA 1 FUNDOS     IRAJA - RIO 21235150RIO DE JANEIRO RJUNIAO UMB DOS CULTOS AFRO BRAS    30041810 000066
10231987175000168817800093673    000011880                    000118800000000000000109                     I0111880     30041800000000035003410000017N200218104700000000000103004180000000000000000000000000000000000000000100071276920768ELIZABETH DOS SANTOS FRAGA SAR          RUA: ANGELA                             PRATA - BELF26130740BELFORD ROXO   RJUNIAO UMB DOS CULTOS AFRO BRAS    30041810 000067
10231987175000168817800093673    000011879                    000118790000000000000109                     I0111879     30041800000000035003410000017N200218104700000000000103004180000000000000000000000000000000000000000100093265042715CARMEN MESQUITA CAMILLO DA SIL          RUA RAUL PEDERNEIRAS, 261               BANGU - RIO 21860210RIO DE JANEIRO RJUNIAO UMB DOS CULTOS AFRO BRAS    30041810 000068
10231987175000168817800093673    000011878                    000118780000000000000109                     I0111878     30041800000000035003410000017N200218104700000000000103004180000000000000000000000000000000000000000100008448034724CLAUDIA DA SILVA SANTANA                RUA SANTA LUZIA, 115                    NOVA ERA - N26265560NOVA IGUACU    RJUNIAO UMB DOS CULTOS AFRO BRAS    30041810 000069
10231987175000168817800093673    000011877                    000118770000000000000109                     I0111877     30041800000000035003410000017N200218104700000000000103004180000000000000000000000000000000000000000100066859123915ROBERTO ALVES DO NASCIMENTO             RUA MARECHAL DEODORO, 499               CENTRO - PAR23970000PARATY         RJUNIAO UMB DOS CULTOS AFRO BRAS    30041810 000070
10231987175000168817800093673    000011876                    000118760000000000000109                     I0111876     30041800000000035003410000017N200218104700000000000103004180000000000000000000000000000000000000000100049630903768ADELSON MARIANO PEREIRA                 ESTRADA SAO DOMINGOS SAVIO, 868 RUA C LOSANTA CRUZ -23525033RIO DE JANEIRO RJUNIAO UMB DOS CULTOS AFRO BRAS    30041810 000071
10231987175000168817800093673    000011875                    000118750000000000000109                     I0111875     30041800000000035003410000017N200218104700000000000103004180000000000000000000000000000000000000000100024540285734FERNANDO PEREIRA DE SOUZA               RUA ALECRIM  1008                       VILA KOSMOS 21220050RIO DE JANEIRO RJUNIAO UMB DOS CULTOS AFRO BRAS    30041810 000072
10231987175000168817800093673    000011874                    000118740000000000000109                     I0111874     30041800000000035003410000017N200218104700000000000103004180000000000000000000000000000000000000000100061178543749ROSILDA ALVES DA COSTA                  RUA CUBA CASA 582                       PENHA CIRCUL21200160RIO DE JANEIRO RJUNIAO UMB DOS CULTOS AFRO BRAS    30041810 000073
10231987175000168817800093673    000011873                    000118730000000000000109                     I0111873     30041800000000035003410000017N200218104700000000000103004180000000000000000000000000000000000000000100004762099783MARLENE DA CONCEICAO BARRETO            RUA GONZAGA BASTOS, 209 BLOCO C APTO 308TIJUCA - RIO20541000RIO DE JANEIRO RJUNIAO UMB DOS CULTOS AFRO BRAS    30041810 000074
10231987175000168817800093673    000011872                    000118720000000000000109                     I0111872     30041800000000035003410000017N200218104700000000000103004180000000000000000000000000000000000000000100083765778753MARCIA REGINA NUNES DA SILVA            RUA AXUA, 227 CASA 16                   TAQUARA - JA22713515RIO DE JANEIRO RJUNIAO UMB DOS CULTOS AFRO BRAS    30041810 000075
10231987175000168817800093673    000011871                    000118710000000000000109                     I0111871     30041800000000035003410000017N200218104700000000000103004180000000000000000000000000000000000000000100015415831777DOUGLAS DA SILVA DE SOUZA               RUA CAPINTUBA, 162                      IRAJA - RJ  21361210RIO DE JANEIRO RJUNIAO UMB DOS CULTOS AFRO BRAS    30041810 000076
10231987175000168817800093673    000011870                    000118700000000000000109                     I0111870     30041800000000035003410000017N200218104700000000000103004180000000000000000000000000000000000000000100001055608710IARA DA SILVA REGO                      RUA: ALCOBACA 1333 CASA 1               ANCHIETA - R21645001RIO DE JANEIRO RJUNIAO UMB DOS CULTOS AFRO BRAS    30041810 000077
10231987175000168817800093673    000011869                    000118690000000000000109                     I0111869     30041800000000035003410000017N200218104700000000000103004180000000000000000000000000000000000000000100074906615791MARIA DE FATIMA FERREIRA TENOR          RUA PRACINHA WALLACE PAES LEME, 1483    CENTRO - NIL26525046NILOPOLIS      RJUNIAO UMB DOS CULTOS AFRO BRAS    30041810 000078
10231987175000168817800093673    000011868                    000118680000000000000109                     I0111868     30041800000000035003410000017N200218104700000000000103004180000000000000000000000000000000000000000100000119220792ANA MARIA PASSOS INOCENCIO              RUA CACONDE N 258                       RIO DE JANEI21331415RIO DE JANEIRO RJUNIAO UMB DOS CULTOS AFRO BRAS    30041810 000079
10231987175000168817800093673    000011867                    000118670000000000000109                     I0111867     30041800000000035003410000017N200218104700000000000103004180000000000000000000000000000000000000000100077819306734UENES DA SILVA DE OLIVEIRA              RUA GENERAL CARVALHO  Nº 1148          CORDOVIL    21250240RIO DE JANEIRO RJUNIAO UMB DOS CULTOS AFRO BRAS    30041810 000080
10231987175000168817800093673    000011866                    000118660000000000000109                     I0111866     30041800000000035003410000017N200218104700000000000103004180000000000000000000000000000000000000000100001613673728PAULO DA CONCEICAO SOARES               RUA PAULICEIA N 18                      PARQUE SAO B26176380BELFORD ROXO   RJUNIAO UMB DOS CULTOS AFRO BRAS    30041810 000081
10231987175000168817800093673    000011865                    000118650000000000000109                     I0111865     30041800000000035003410000017N200218104700000000000103004180000000000000000000000000000000000000000100009979098708WASHINGTON BENTO DA CUNHA               RUA CAMPOS, BLOCO 8 QUADRA A            VILLAR DOS T25570200SAO JOAO DE MERRJUNIAO UMB DOS CULTOS AFRO BRAS    30041810 000082
10231987175000168817800093673    000011864                    000118640000000000000109                     I0111864     30041800000000035003410000017N200218104700000000000103004180000000000000000000000000000000000000000100013180490756DIEGO CAVALCANTI DA SILVA               RUA CONDE DE RESENDE, 127               BENTO RIBEIR21550600RIO DE JANEIRO RJUNIAO UMB DOS CULTOS AFRO BRAS    30041810 000083
10231987175000168817800093673    000011863                    000118630000000000000109                     I0111863     30041800000000035003410000017N200218104700000000000103004180000000000000000000000000000000000000000100010949550434JOAO BATISTA PEREIRA DE VASCON          RUA NEIDE ALVES DA SILVA, 162           JARDIM SAO S58306450BAYEUX         PBUNIAO UMB DOS CULTOS AFRO BRAS    30041810 000084
10231987175000168817800093673    000011862                    000118620000000000000109                     I0111862     30041800000000035003410000017N200218104700000000000103004180000000000000000000000000000000000000000100073408042772VANDA CEZARIO LIMA BRAZ                 RUA JOSE FERNANDES DE OLIVEIRA, 70      CENTRO - NIL26521640NILOPOLIS      RJUNIAO UMB DOS CULTOS AFRO BRAS    30041810 000085
10231987175000168817800093673    000011861                    000118610000000000000109                     I0111861     30041800000000035003410000017N200218104700000000000103004180000000000000000000000000000000000000000100007228447786JEFFERSON CACADOR DE LIMA               ESTRADA DO TINDIBA N 744                TAQUARA - RI22740360RIO DE JANEIRO RJUNIAO UMB DOS CULTOS AFRO BRAS    30041810 000086
10231987175000168817800093673    000011860                    000118600000000000000109                     I0111860     30041800000000035003410000017N200218104700000000000103004180000000000000000000000000000000000000000100033927499749JORGE CARDOSO DE MACEDO                 RUA G, LOTE 29 QUADRA 11                GRANJA SANTA25900000PIABETA - MAGE RJUNIAO UMB DOS CULTOS AFRO BRAS    30041810 000087
10231987175000168817800093673    000011859                    000118590000000000000109                     I0111859     30041800000000035003410000017N200218104700000000000103004180000000000000000000000000000000000000000100001215240783SONIA MARIA ROSA BRANDAO                RUA ARARUAMA, 280                       BANGU - RJ  21562050RIO DE JANEIRO RJUNIAO UMB DOS CULTOS AFRO BRAS    30041810 000088
10231987175000168817800093673    000011858                    000118580000000000000109                     I0111858     30041800000000035003410000017N200218104700000000000103004180000000000000000000000000000000000000000100060894628704TERESINHA DE JESUS BIL RAMOS T          RUA GENERAL MIGUEL FERREIRA, 178 RUA E CTAQUARA - RI22770590RIO DE JANEIRO RJUNIAO UMB DOS CULTOS AFRO BRAS    30041810 000089
10231987175000168817800093673    000011857                    000118570000000000000109                     I0111857     30041800000000035003410000017N200218104700000000000103004180000000000000000000000000000000000000000100005235517709SIDNEY ROBERTO SILVA DE CARVAL          RUA DONATELO, LOTE 27 QUADRA 38         GUARATIBA   23028210RIO DE JANEIRO RJUNIAO UMB DOS CULTOS AFRO BRAS    30041810 000090
10231987175000168817800093673    000011856                    000118560000000000000109                     I0111856     30041800000000035003410000017N200218104700000000000103004180000000000000000000000000000000000000000100059130091772JORGE LUIZ CERUTTI AMADI                RUA EUNICE DE MENEZES, CASA 2 LOTE 7    VENDA VELHA 25565470SAO JOAO DE MERRJUNIAO UMB DOS CULTOS AFRO BRAS    30041810 000091
10231987175000168817800093673    000011855                    000118550000000000000109                     I0111855     30041800000000035003410000017N200218104700000000000103004180000000000000000000000000000000000000000100009711789760RICARDO VICENTE DE SOUZA                RUA HENRIQUETA, 68                      LARGO DO TAN22735130RIO DE JANEIRO RJUNIAO UMB DOS CULTOS AFRO BRAS    30041810 000092
10231987175000168817800093673    000011854                    000118540000000000000109                     I0111854     30041800000000035003410000017N200218104700000000000103004180000000000000000000000000000000000000000100063629852734ZULEICA JANINA BOMFIM AMARAL            RUA DA CAPELA, 744                      ESTACIO - RI20250051RIO DE JANEIRO RJUNIAO UMB DOS CULTOS AFRO BRAS    30041810 000093
10231987175000168817800093673    000011853                    000118530000000000000109                     I0111853     30041800000000035003410000017N200218104700000000000103004180000000000000000000000000000000000000000100005529010750JOELMA MELO DA SILVA                    RUA ELIEZER ALVES DA ROCHA, 226         RAUL VEIGA -24710640SAO GONCALO    RJUNIAO UMB DOS CULTOS AFRO BRAS    30041810 000094
10231987175000168817800093673    000011852                    000118520000000000000109                     I0111852     30041800000000035003410000017N200218104700000000000103004180000000000000000000000000000000000000000100071926305787PEDRO PAULO DE ARAUJO MALHEIRO          RUA RAFAEL BORDALO, 31                  GUARATIBA - 23032590RIO DE JANEIRO RJUNIAO UMB DOS CULTOS AFRO BRAS    30041810 000095
10231987175000168817800093673    000011851                    000118510000000000000109                     I0111851     30041800000000035003410000017N200218104700000000000103004180000000000000000000000000000000000000000100084394595720FRANCISCO RAUL DA SILVA AZEVED          RUA JORGE LEAL GONCALVES, 37 CASA 2     PACIENCIA - 23587270RIO DE JANEIRO RJUNIAO UMB DOS CULTOS AFRO BRAS    30041810 000096
10231987175000168817800093673    000011850                    000118500000000000000109                     I0111850     30041800000000035003410000017N200218104700000000000103004180000000000000000000000000000000000000000100085958549715TANIA REGINA LONTRA BITTENCOUR          RUA MARIO SANTANA, 1 BLOCO 17 APTO 103  WONA  - BELF26176285BELFORD ROXO   RJUNIAO UMB DOS CULTOS AFRO BRAS    30041810 000097
10231987175000168817800093673    000011849                    000118490000000000000109                     I0111849     30041800000000035003410000017N200218104700000000000103004180000000000000000000000000000000000000000100037433288791VERA LUCIA COSTA MOACYR                 RUA JOANA KALIL, LOTE 6 QUADRA 51       JARDIM MERIT25555100SAO JOAO DE MERRJUNIAO UMB DOS CULTOS AFRO BRAS    30041810 000098
10231987175000168817800093673    000011848                    000118480000000000000109                     I0111848     30041800000000035003410000017N200218104700000000000103004180000000000000000000000000000000000000000100001817781731JORGE LUIZ MENDES DA CUNHA              RUA  VASCO DA GAMA, 36                  CACHAMBI - R20771310RIO DE JANEIRO RJUNIAO UMB DOS CULTOS AFRO BRAS    30041810 000099
10231987175000168817800093673    000011847                    000118470000000000000109                     I0111847     30041800000000035003410000017N200218104700000000000103004180000000000000000000000000000000000000000100073590690763JORGE ARAUJO LOURENCO                   RUA JUPARA, 96 CASA 2 FUNDOS            SAO CRISTOVA20911060RIO DE JANEIRO RJUNIAO UMB DOS CULTOS AFRO BRAS    30041810 000100
10231987175000168817800093673    000011846                    000118460000000000000109                     I0111846     30041800000000035003410000017N200218104700000000000103004180000000000000000000000000000000000000000100002051058741CRISTIANE SANTANA GURGEL CORTE          RUA  JONAS AMANCIO, 160  - AMANDA       CAMPO GRANDE23092710RIO DE JANEIRO RJUNIAO UMB DOS CULTOS AFRO BRAS    30041810 000101
10231987175000168817800093673    000011845                    000118450000000000000109                     I0111845     30041800000000035003410000017N200218104700000000000103004180000000000000000000000000000000000000000100002727538740DILNEI PEREIRA CRUZ                     RUA ALAIDE MARINHO, 52                  JARDIM NOVA 26272240NOVA IGUACU    RJUNIAO UMB DOS CULTOS AFRO BRAS    30041810 000102
10231987175000168817800093673    000011844                    000118440000000000000109                     I0111844     30041800000000035003410000017N200218104700000000000103004180000000000000000000000000000000000000000100002110875720ALEX DA SILVA GUEDES                    RUA: MOACIR DE ALMEIDA                  TOMAS COELHO20740350RIO DE JANEIRO RJUNIAO UMB DOS CULTOS AFRO BRAS    30041810 000103
10231987175000168817800093673    000011843                    000118430000000000000109                     I0111843     30041800000000035003410000017N200218104700000000000103004180000000000000000000000000000000000000000100004788683750CARLA APARECIDA DA ROCHA RITA           RUA GENERAL SILVEIRA SOBRINHO, 245 APTO VILA DA PENH21221290RIO DE JANEIRO RJUNIAO UMB DOS CULTOS AFRO BRAS    30041810 000104
10231987175000168817800093673    000011842                    000118420000000000000109                     I0111842     30041800000000035003410000017N200218104700000000000103004180000000000000000000000000000000000000000100093778244787GENEILDA RANGEL SMITH                   RUA MARIA LUIZA REIS , 850              ENGENHEIRO D25015045DUQUE DE CAXIASRJUNIAO UMB DOS CULTOS AFRO BRAS    30041810 000105
10231987175000168817800093673    000011841                    000118410000000000000109                     I0111841     30041800000000035003410000017N200218104700000000000103004180000000000000000000000000000000000000000100000904501752ALEXANDRE DOS ANJOS PIMENTEL            AVENIDA DOM HELDER CAMARA, 1595 BLOCO 18BENFICA - RI20973011RIO DE JANEIRO RJUNIAO UMB DOS CULTOS AFRO BRAS    30041810 000106
10231987175000168817800093673    000011840                    000118400000000000000109                     I0111840     30041800000000035003410000017N200218104700000000000103004180000000000000000000000000000000000000000100010415045789CRISTIANO SOUZA BATISTA                 RUA SEIS DE ABRIL, 270                  CABUCU - NOV26293336NOVA IGUACU    RJUNIAO UMB DOS CULTOS AFRO BRAS    30041810 000107
10231987175000168817800093673    000011839                    000118390000000000000109                     I0111839     30041800000000035003410000017N200218104700000000000103004180000000000000000000000000000000000000000100000441487718DALVA LUIZ GOMES                        RUA: PARAISO LOTE 10 QUADRA 94 CASA 3 - NOVA IGUACU 26291446NOVA IGUACU    RJUNIAO UMB DOS CULTOS AFRO BRAS    30041810 000108
10231987175000168817800093673    000011838                    000118380000000000000109                     I0111838     30041800000000035003410000017N200218104700000000000103004180000000000000000000000000000000000000000100009658353754ROSINEI MARIA DOS SANTOS PEIXO          RUA FLORESTA, 1145 CASA A 3             SEPETIBA - R23540430RIO DE JANEIRO RJUNIAO UMB DOS CULTOS AFRO BRAS    30041810 000109
10231987175000168817800093673    000011837                    000118370000000000000109                     I0111837     30041800000000035003410000017N200218104700000000000103004180000000000000000000000000000000000000000100000377539759WELLINGTON LUIS RODRIGUES               RUA ARGENTINA REIS, 80 FUNDOS           QUINTINO BOC20740040RIO DE JANEIRO RJUNIAO UMB DOS CULTOS AFRO BRAS    30041810 000110
10231987175000168817800093673    000011836                    000118360000000000000109                     I0111836     30041800000000035003410000017N200218104700000000000103004180000000000000000000000000000000000000000100014842140720HUDSON WALLACE ANGELO DA SILVA          O MESMO                                 O MESMO     25220689DUQUE DE CAXIASRJUNIAO UMB DOS CULTOS AFRO BRAS    30041810 000111
10231987175000168817800093673    000011835                    000118350000000000000109                     I0111835     30041800000000035003410000017N200218104700000000000103004180000000000000000000000000000000000000000100009396919730CATIA DE SOUZA SANTIAGO                 ESTRADA SAO FRANCISCO, 766 - SURUI      SURUI - MAGE25900000MAGE           RJUNIAO UMB DOS CULTOS AFRO BRAS    30041810 000112
10231987175000168817800093673    000011834                    000118340000000000000109                     I0111834     30041800000000035003410000017N200218104700000000000103004180000000000000000000000000000000000000000100018453662711ANDERSON DA SILVA NUNES                 RUA ESTREMADURA, 1525 40 C FUNDOS       VISTA ALEGRE21230510RIO DE JANEIRO RJUNIAO UMB DOS CULTOS AFRO BRAS    30041810 000113
10231987175000168817800093673    000011833                    000118330000000000000109                     I0111833     30041800000000035003410000017N200218104700000000000103004180000000000000000000000000000000000000000100002912143713JANAINA PACHECO PINHEIRO                RUA FILGUEIRAS LIMA, 69 BLOCO 2 APTO 101RIACHUELO - 20950050RIO DE JANEIRO RJUNIAO UMB DOS CULTOS AFRO BRAS    30041810 000114
10231987175000168817800093673    000011832                    000118320000000000000109                     I0111832     30041800000000035003410000017N200218104700000000000103004180000000000000000000000000000000000000000100001377431738CARLOS HENRIQUE DOS SANTOS DE           RUA ALVARES CABRAL, 361 CASA 1          CACHAMBI - R20780320RIO DE JANEIRO RJUNIAO UMB DOS CULTOS AFRO BRAS    30041810 000115
10231987175000168817800093673    000011831                    000118310000000000000109                     I0111831     30041800000000035003410000017N200218104700000000000103004180000000000000000000000000000000000000000100054085071734DENISE SANTANA MACIEL                   RUA CARATUVA, LOTE 19                   JARDIM SULAC22725020RIO DE JANEIRO RJUNIAO UMB DOS CULTOS AFRO BRAS    30041810 000116
10231987175000168817800093673    000011830                    000118300000000000000109                     I0111830     30041800000000035003410000017N200218104700000000000103004180000000000000000000000000000000000000000100001390670350ANA PAULA SOUSA                         ESTRADA BOGANVILLE, 869 CASA 22         ANIL - JACAR22753210RIO DE JANEIRO RJUNIAO UMB DOS CULTOS AFRO BRAS    30041810 000117
10231987175000168817800093673    000011829                    000118290000000000000109                     I0111829     30041800000000035003410000017N200218104700000000000103004180000000000000000000000000000000000000000100007258424741SILVIA MARIA CAIADO DE CASTRO           RUA ESMERALDA VALLADARES, 41 LOTEAMENTO ITAIPU - NIT24342000NITEROI        RJUNIAO UMB DOS CULTOS AFRO BRAS    30041810 000118
10231987175000168817800093673    000011828                    000118280000000000000109                     I0111828     30041800000000035003410000017N200218104700000000000103004180000000000000000000000000000000000000000100003632396779ADRIANA DA RESSURREICAO GUEDES          RUA PARANA, 439                         CENTRO - MES26253020MESQUITA       RJUNIAO UMB DOS CULTOS AFRO BRAS    30041810 000119
10231987175000168817800093673    000011827                    000118270000000000000109                     I0111827     30041800000000035003410000017N200218104700000000000103004180000000000000000000000000000000000000000100082981191772DEJANIRA LOPES FERREIRA                 RUA JOSE BENTO DE OLIVEIRA, 129         QUIMICA - BA27130270BARRA DO PIRAI RJUNIAO UMB DOS CULTOS AFRO BRAS    30041810 000120
10231987175000168817800093673    000011826                    000118260000000000000109                     I0111826     30041800000000035003410000017N200218104700000000000103004180000000000000000000000000000000000000000100009036923760ERIKA BARBOSA DOS SANTOS                AVENIDA ERNANI CARDOSO, 53 FUNDOS CASA 1CASCADURA - 21310310RIO DE JANEIRO RJUNIAO UMB DOS CULTOS AFRO BRAS    30041810 000121
10231987175000168817800093673    000011825                    000118250000000000000109                     I0111825     30041800000000035003410000017N200218104700000000000103004180000000000000000000000000000000000000000100067560555772ADELSON RODRIGUES DE MATTOS             RUA DONA BELA, 17 CASA 2                TRES PONTES 24809230RIO DE JANEIRO RJUNIAO UMB DOS CULTOS AFRO BRAS    30041810 000122
10231987175000168817800093673    000011824                    000118240000000000000109                     I0111824     30041800000000035003410000017N200218104700000000000103004180000000000000000000000000000000000000000100008478002707ALEXSANDRO JOAO MARTINS                 RUA: CARMO DO RIO CLARO Nº 266 - SAO GANOVA IGUACU 26021830NOVA IGUACU    RJUNIAO UMB DOS CULTOS AFRO BRAS    30041810 000123
10231987175000168817800093673    000011823                    000118230000000000000109                     I0111823     30041800000000035003410000017N200218104700000000000103004180000000000000000000000000000000000000000100053542886734MARIA LUCIA SOARES PONCE                RUA SOLDADO BERNARDINO DA SILVA, 568 APTVILA KOSMOS 21210020RIO DE JANEIRO RJUNIAO UMB DOS CULTOS AFRO BRAS    30041810 000124
10231987175000168817800093673    000011822                    000118220000000000000109                     I0111822     30041800000000035003410000017N200218104700000000000103004180000000000000000000000000000000000000000100007373169775CAROLINA ALVES CARLOS                   RUA: MAPAI                              JARDIM METRO25575180SAO JOAO DE MERRJUNIAO UMB DOS CULTOS AFRO BRAS    30041810 000125
10231987175000168817800093673    000011821                    000118210000000000000109                     I0111821     30041800000000035003410000017N200218104700000000000103004180000000000000000000000000000000000000000100009424589743RONALDO DE JESUS ALVES JUNIOR           RUA: 32 QUADRA 263 LOTE 4 - JD ATLANTICOITAIPUACU - 20530420RIO DE JANEIRO RJUNIAO UMB DOS CULTOS AFRO BRAS    30041810 000126
10231987175000168817800093673    000011820                    000118200000000000000109                     I0111820     30041800000000035003410000017N200218104700000000000103004180000000000000000000000000000000000000000203210312414870MARCELINA DA SILVA COSTA                RUA ALARICO DE SOUZA, 102 CASA 1        ATALAIA - NI24315000NITEROI        RJUNIAO UMB DOS CULTOS AFRO BRAS    30041810 000127
10231987175000168817800093673    000011819                    000118190000000000000109                     I0111819     30041800000000035003410000017N200218104700000000000103004180000000000000000000000000000000000000000100003866737726ALESSANDRO ESTRELA RODRIGUES            RUA B 1 SN QD 49 LT 11 - JD GARRIDO     PEDRA DE GUA23026060PEDRA DE GUARATRJUNIAO UMB DOS CULTOS AFRO BRAS    30041810 000128
10231987175000168817800093673    000011818                    000118180000000000000109                     I0111818     30041800000000035003410000017N200218104700000000000103004180000000000000000000000000000000000000000100012745403729BENEDITA CIRLEIDE RODRIGUES BR          RUA JOAO FLORIANO, 301 QUADRA 97 LOTE 25JD CATARINA 24717520SAO GONCALO    RJUNIAO UMB DOS CULTOS AFRO BRAS    30041810 000129
10231987175000168817800093673    000011817                    000118170000000000000109                     I0111817     30041800000000035003410000017N200218104700000000000103004180000000000000000000000000000000000000000100003611090751ANDREA DA COSTA FERREIRA                RUA CORONEL FRANCA LEITE, 657           EDSON PASSOS26585020MESQUITA       RJUNIAO UMB DOS CULTOS AFRO BRAS    30041810 000130
10231987175000168817800093673    000011816                    000118160000000000000109                     I0111816     30041800000000035003410000017N200218104700000000000103004180000000000000000000000000000000000000000100000055376738MARIA DA GRACA BRANDAO                  RUA MATARAZZO, QUADRA 17 LOTE 5         GUARATIBA - 23028750RIO DE JANEIRO RJUNIAO UMB DOS CULTOS AFRO BRAS    30041810 000131
10231987175000168817800093673    000011815                    000118150000000000000109                     I0111815     30041800000000035003410000017N200218104700000000000103004180000000000000000000000000000000000000000200000000012036MARTINA SELMA DA COSTA                  RUA BUCARESTE, LOTE 27 QUADRA 79        VILA CENTRAL26316136QUEIMADOS      RJUNIAO UMB DOS CULTOS AFRO BRAS    30041810 000132
10231987175000168817800093673    000011814                    000118140000000000000109                     I0111814     30041800000000035003410000017N200218104700000000000103004180000000000000000000000000000000000000000100004162486751IVONETE CRISTINA MARTINS MACHA          RUA DO CATETE, 5 FUNDOS                 VILA LEOPOLD25060230DUQUE DE CAXIASRJUNIAO UMB DOS CULTOS AFRO BRAS    30041810 000133
10231987175000168817800093673    000011813                    000118130000000000000109                     I0111813     30041800000000035003410000017N200218104700000000000103004180000000000000000000000000000000000000000100067348793720MARCIO DE SOUZA MOURA                   RUA CAJUIPE,  110                       BONSUCESSO -21060490RIO DE JANEIRO RJUNIAO UMB DOS CULTOS AFRO BRAS    30041810 000134
10231987175000168817800093673    000011812                    000118120000000000000109                     I0111812     30041800000000035003410000017N200218104700000000000103004180000000000000000000000000000000000000000100008548472782ADRIANO MENDES DA COSTA                 RUA  J, 16 CASA                         CAMPINHO - R21330735RIO DE JANEIRO RJUNIAO UMB DOS CULTOS AFRO BRAS    30041810 000135
10231987175000168817800093673    000011811                    000118110000000000000109                     I0111811     30041800000000035003410000017N200218104700000000000103004180000000000000000000000000000000000000000100072214171720ROBSON ROGERIO CRUZ                     TRAVESSA ALMERINDA FREITAS,  25 SALA 408MADUREIRA - 21350280RIO DE JANEIRO RJUNIAO UMB DOS CULTOS AFRO BRAS    30041810 000136
10231987175000168817800093673    000011810                    000118100000000000000109                     I0111810     30041800000000035003410000017N200218104700000000000103004180000000000000000000000000000000000000000100014806247723JEFFERSON DA CUNHA AREAS                RUA DOZE, 196                           NOVA MARILIA25900000MAGE           RJUNIAO UMB DOS CULTOS AFRO BRAS    30041810 000137
10231987175000168817800093673    000011809                    000118090000000000000109                     I0111809     30041800000000035003410000017N200218104700000000000103004180000000000000000000000000000000000000000100060479612749MARIA SEBASTIANA NOGUEIRA PAIX          RUA DOZE DE FEVEREIRO, 900 CASA 4       BANGU - RJ  21815092RIO DE JANEIRO RJUNIAO UMB DOS CULTOS AFRO BRAS    30041810 000138
10231987175000168817800093673    000011808                    000118080000000000000109                     I0111808     30041800000000035003410000017N200218104700000000000103004180000000000000000000000000000000000000000100001254302727EDUARDO ROSA                            RUA PARAGUACU CARNEIRO, 55 CASA         PARQUE ANCHI21635390RIO DE JANEIRO RJUNIAO UMB DOS CULTOS AFRO BRAS    30041810 000139
10231987175000168817800093673    000011807                    000118070000000000000109                     I0111807     30041800000000035003410000017N200218104700000000000103004180000000000000000000000000000000000000000100098300989749SOLANGE MONTEIRO DA SILVA LAMB          RUA EMILIA AZEVEDO, 67 - MANTIQUIRA     XEREM - DUQU25250460DUQUE DE CAXIASRJUNIAO UMB DOS CULTOS AFRO BRAS    30041810 000140
10231987175000168817800093673    000011806                    000118060000000000000109                     I0111806     30041800000000035003410000017N200218104700000000000103004180000000000000000000000000000000000000000100003747539700MARCIA SANTANA DA SILVA COSTA           RUA GOVERNADOR PORTELA  CASA 2 LOTE 3 QUPQ ARARUAMA 25580690SAO JOAO DE MERRJUNIAO UMB DOS CULTOS AFRO BRAS    30041810 000141
10231987175000168817800093673    000011805                    000118050000000000000109                     I0111805     30041800000000035003410000017N200218104700000000000103004180000000000000000000000000000000000000000100054903416704ANTONIO FERNANDO CORREA DE CAR          RUA OLIVEIROS RODRIGUES ALVES, 1974     POSSE - NOVA26030010NOVA IGUACU    RJUNIAO UMB DOS CULTOS AFRO BRAS    30041810 000142
10231987175000168817800093673    000011804                    000118040000000000000109                     I0111804     30041800000000035003410000017N200218104700000000000103004180000000000000000000000000000000000000000100089511000730JORGE LUIS DE OLIVEIRA QUEIROZ          RUA JOSE ALVES PIMENTA, 912 CASA 1      MATADOURO - 27115010BARRA DO PIRAI RJUNIAO UMB DOS CULTOS AFRO BRAS    30041810 000143
10231987175000168817800093673    000011803                    000118030000000000000109                     I0111803     30041800000000035003410000017N200218104700000000000103004180000000000000000000000000000000000000000100039622100759LEIR AUGUSTO DA SILVA                   RUA FRANCISCA GOMES N 111               FRAGOSO - MA25935480MAGE           RJUNIAO UMB DOS CULTOS AFRO BRAS    30041810 000144
10231987175000168817800093673    000011802                    000118020000000000000109                     I0111802     30041800000000035003410000017N200218104700000000000103004180000000000000000000000000000000000000000100080285570749KATIA REGINA SILVA DE SOUZA             RUA JACARACI,  46                       REALENGO - R21710140RIO DE JANEIRO RJUNIAO UMB DOS CULTOS AFRO BRAS    30041810 000145
10231987175000168817800093673    000011801                    000118010000000000000109                     I0111801     30041800000000035003410000017N200218104700000000000103004180000000000000000000000000000000000000000100002680887484MARIA APARECIDA DOS SANTOS MEN          RUA LUIZ MATEUS, 54 FUNDOS              VAZ MARTINS 26291018NOVA IGUACU    RJUNIAO UMB DOS CULTOS AFRO BRAS    30041810 000146
10231987175000168817800093673    000011800                    000118000000000000000109                     I0111800     30041800000000035003410000017N200218104700000000000103004180000000000000000000000000000000000000000100098726978768MARIA STELA GOMES DA SILVA              RUA NARA, 10 - JARDIM LARANJEIRAS       CABUCU - NOV26291269NOVA IGUACU    RJUNIAO UMB DOS CULTOS AFRO BRAS    30041810 000147
10231987175000168817800093673    000011799                    000117990000000000000109                     I0111799     30041800000000035003410000017N200218104700000000000103004180000000000000000000000000000000000000000100000516266802MARCELO DOS SANTOS                      RUA MANAUS, 241 CASA 103 FUNDOS         REALENGO - R21730050RIO DE JANEIRO RJUNIAO UMB DOS CULTOS AFRO BRAS    30041810 000148
10231987175000168817800093673    000011798                    000117980000000000000109                     I0111798     30041800000000035003410000017N200218104700000000000103004180000000000000000000000000000000000000000100087162518715VILMA TEJO PEREIRA MAIA                 RUA RONDA ALTA QUADRA 188 LOTE 37       JARDIM MARAV23031320GUARATIBA      RJUNIAO UMB DOS CULTOS AFRO BRAS    30041810 000149
10231987175000168817800093673    000011797                    000117970000000000000109                     I0111797     30041800000000035003410000017N200218104700000000000103004180000000000000000000000000000000000000000100015188766760VICTOR DOS ANJOS PAVAO                  RUA DOUTOR ARI CHAGAS, 497              SEPETIBA - R23540000RIO DE JANEIRO RJUNIAO UMB DOS CULTOS AFRO BRAS    30041810 000150
10231987175000168817800093673    000011796                    000117960000000000000109                     I0111796     30041800000000035003410000017N200218104700000000000103004180000000000000000000000000000000000000000100079921947804GILSON ANDRADE                          RUA TANGI, LOTE 12 QUADRA C             PARQUE REAL 26175025BELFORD ROXO   RJUNIAO UMB DOS CULTOS AFRO BRAS    30041810 000151
10231987175000168817800093673    000011795                    000117950000000000000109                     I0111795     30041800000000035003410000017N200218104700000000000103004180000000000000000000000000000000000000000100007271009710MARCELLO FERREIRA DE ARAUJO             RUA IPEUVA, 106                         BRAZ DE PINA21215400RIO DE JANEIRO RJUNIAO UMB DOS CULTOS AFRO BRAS    30041810 000152
10231987175000168817800093673    000011794                    000117940000000000000109                     I0111794     30041800000000035003410000017N200218104700000000000103004180000000000000000000000000000000000000000100091613965591SIMONE OLIVEIRA MACEDO                  ESTRADA CANCELA PRETA, 2120             BANGU - RIO 21725010RIO DE JANEIRO RJUNIAO UMB DOS CULTOS AFRO BRAS    30041810 000153
10231987175000168817800093673    000011793                    000117930000000000000109                     I0111793     30041800000000035003410000017N200218104700000000000103004180000000000000000000000000000000000000000100003259472797IVONETE MARIA DA SILVA                  RUA RAFAEL LANGONE, 192                 CENTRO      25880000SAPUCAIA       RJUNIAO UMB DOS CULTOS AFRO BRAS    30041810 000154
10231987175000168817800093673    000011792                    000117920000000000000109                     I0111792     30041800000000035003410000017N200218104700000000000103004180000000000000000000000000000000000000000100000461330796TANIA MARIA PEREIRA                     RUA MAPENDI, 366 BLOCO 2 APTO 505       TAQUARA - JA22710255RIO DE JANEIRO RJUNIAO UMB DOS CULTOS AFRO BRAS    30041810 000155
10231987175000168817800093673    000011791                    000117910000000000000109                     I0111791     30041800000000035003410000017N200218104700000000000103004180000000000000000000000000000000000000000100013222358729AMANDA PAULA TORRES DE SOUZA            RUA JOAO VICENTE, 261                   MADUREIRA   21340020RIO DE JANEIRO RJUNIAO UMB DOS CULTOS AFRO BRAS    30041810 000156
10231987175000168817800093673    000011790                    000117900000000000000109                     I0111790     30041800000000035003410000017N200218104700000000000103004180000000000000000000000000000000000000000100003319281755GENILSON CAETANO DA SILVA               RUA JACO MELOTI, 46                     CORUMBA - NO26041790NOVA IGUACU    RJUNIAO UMB DOS CULTOS AFRO BRAS    30041810 000157
10231987175000168817800093673    000011789                    000117890000000000000109                     I0111789     30041800000000035003410000017N200218104700000000000103004180000000000000000000000000000000000000000100000092416713LOURDES GONCALVES DA SILVA CAB          RUA GUATEMALA, 467 CASA 1 FRENTE        PENHA CIRCUL21020170RIO DE JANEIRO RJUNIAO UMB DOS CULTOS AFRO BRAS    30041810 000158
10231987175000168817800093673    000011788                    000117880000000000000109                     I0111788     30041800000000035003410000017N200218104700000000000103004180000000000000000000000000000000000000000100000896315797ROSANGELA GONCALVES BONZOUMET           RUA CORREIO DO RIO, 155                 TAQUARA     22715010RIO DE JANEIRO RJUNIAO UMB DOS CULTOS AFRO BRAS    30041810 000159
10231987175000168817800093673    000011787                    000117870000000000000109                     I0111787     30041800000000035003410000017N200218104700000000000103004180000000000000000000000000000000000000000100004168412792SERGIO LUIZ PEREIRA DOS SANTOS          RUA CORONEL JOAO DA SILVA MOREIRA, 54   CAIEIRA VELH27145170RIO DE JANEIRO RJUNIAO UMB DOS CULTOS AFRO BRAS    30041810 000160
10231987175000168817800093673    000011786                    000117860000000000000109                     I0111786     30041800000000035003410000017N200218104700000000000103004180000000000000000000000000000000000000000100074734440778NILMA SANTOS ANDRADE                    RUA AGUIA BRANCA, LOTE 15 QUADRA 68     CAROBINHA   23097630RIO DE JANEIRO RJUNIAO UMB DOS CULTOS AFRO BRAS    30041810 000161
10231987175000168817800093673    000011785                    000117850000000000000109                     I0111785     30041800000000035003410000017N200218104700000000000103004180000000000000000000000000000000000000000100002478890755GRETGHEN LUIZ DE MELO                   RUA MANOEL GAMA, 198 A 1O ANDAR         VILA TIRADEN25525390SAO JOAO DE MERRJUNIAO UMB DOS CULTOS AFRO BRAS    30041810 000162
10231987175000168817800093673    000011784                    000117840000000000000109                     I0111784     30041800000000035003410000017N200218104700000000000103004180000000000000000000000000000000000000000100001447704746MARCOS FAGUNDES MARTINS                 ESTRADA DA PEDRA, 167                   SANTA CRUZ  23520241RIO DE JANEIRO RJUNIAO UMB DOS CULTOS AFRO BRAS    30041810 000163
10231987175000168817800093673    000011783                    000117830000000000000109                     I0111783     30041800000000035003410000017N200218104700000000000103004180000000000000000000000000000000000000000100011376749700ROGERIO CORREIA DA COSTA JUNIO          RUA SANTA CATARINA, 18 JD MARIANA       IMBARIE - DU25271010DUQUE DE CAXIASRJUNIAO UMB DOS CULTOS AFRO BRAS    30041810 000164
10231987175000168817800093673    000011782                    000117820000000000000109                     I0111782     30041800000000035003410000017N200218104700000000000103004180000000000000000000000000000000000000000100077217942772LUIZ CLAUDIO CONCEICAO MAIA             RUA DOUTOR THOUZET, 577 B - FUNDOS      QUITANDINHA 25650061PETROPOLIS     RJUNIAO UMB DOS CULTOS AFRO BRAS    30041810 000165
10231987175000168817800093673    000011781                    000117810000000000000109                     I0111781     30041800000000035003410000017N200218104700000000000103004180000000000000000000000000000000000000000100093476930734LUCIENE TEIXEIRA DE OLIVEIRA            RUA CACHAMBI  34 APTO 407               CACHAMBI   R20775182RIO DE JANEIRO RJUNIAO UMB DOS CULTOS AFRO BRAS    30041810 000166
10231987175000168817800093673    000011780                    000117800000000000000109                     I0111780     30041800000000035003410000017N200218104700000000000103004180000000000000000000000000000000000000000100003367432709KHRYSTIENE COSTA MOTTA                  RUA PINHEIRO CHAGAS, 74                 PARQUE ANCHI21620500RIO DE JANEIRO RJUNIAO UMB DOS CULTOS AFRO BRAS    30041810 000167
10231987175000168817800093673    000011779                    000117790000000000000109                     I0111779     30041800000000035003410000017N200218104700000000000103004180000000000000000000000000000000000000000100010475138708CAMILA ARAUJO DA MOTTA                  RUA SAO BRAZ, 232 APTO 202              TODOS OS SAN20770150RIO DE JANEIRO RJUNIAO UMB DOS CULTOS AFRO BRAS    30041810 000168
10231987175000168817800093673    000011778                    000117780000000000000109                     I0111778     30041800000000035003410000017N200218104700000000000103004180000000000000000000000000000000000000000100001189035782ANDERSON MELLO DE PAULA                 RUA CARATINGA, 15                       HONORIO GURG21511200RIO DE JANEIRO RJUNIAO UMB DOS CULTOS AFRO BRAS    30041810 000169
10231987175000168817800093673    000011777                    000117770000000000000109                     I0111777     30041800000000035003410000017N200218104700000000000103004180000000000000000000000000000000000000000100014324870780ANDREY SANTOS ESTEVES                   RUA GENERAL SEZEFREDO, 7 - REALENGO     REALENGO/RJ 21715060RIO DE JANEIRO RJUNIAO UMB DOS CULTOS AFRO BRAS    30041810 000170
10231987175000168817800093673    000011776                    000117760000000000000109                     I0111776     30041800000000035003410000017N200218104700000000000103004180000000000000000000000000000000000000000100001030634718EDILENE DE OLIVEIRA FERREIRA            RUA IPE LOTE 18 QUADRA 128              PRADO VERDE 26299279NOVA IGUACU    RJUNIAO UMB DOS CULTOS AFRO BRAS    30041810 000171
10231987175000168817800093673    000011775                    000117750000000000000109                     I0111775     30041800000000035003410000017N200218104700000000000103004180000000000000000000000000000000000000000100078501946753ELIANA GONCALVES DE SOUZA               RUA  DOUTOR GARNIER, 381                ROCHA - RIO 20975000RIO DE JANEIRO RJUNIAO UMB DOS CULTOS AFRO BRAS    30041810 000172
10231987175000168817800093673    000011774                    000117740000000000000109                     I0111774     30041800000000040003410000017N200218104700000000000103004180000000000000000000000000000000000000000100002819747728ANDRE RENATO DOS SANTOS VIANA           RUA RODRIGUES ALVES SN LOTE 38 QUADRA 82VILA SAPE - 25275440DUQUE DE CAXIASRJUNIAO UMB DOS CULTOS AFRO BRAS    30041810 000173
10231987175000168817800093673    000011773                    000117730000000000000109                     I0111773     30041800000000035003410000017N200218104700000000000103004180000000000000000000000000000000000000000100049498320772LUZIA INACIO BARBOSA                    RUA JOAO ALBERTO, LOTE 2 QUADRA 36      EDEN - SAO J25540060SAO JOAO DE MERRJUNIAO UMB DOS CULTOS AFRO BRAS    30041810 000174
10231987175000168817800093673    000011772                    000117720000000000000109                     I0111772     30041800000000035003410000017N200218104700000000000103004180000000000000000000000000000000000000000100002830222725SHEILA RODRIGUES                        RUA DOS OPERARIOS, 379                  NOVO MUNDO -25900000MAGE           RJUNIAO UMB DOS CULTOS AFRO BRAS    30041810 000175
10231987175000168817800093673    000011771                    000117710000000000000109                     I0111771     30041800000000035003410000017N200218104700000000000103004180000000000000000000000000000000000000000100074593250749ELIZABETH DA SILVA OLIVEIRA             RUA QUINZE, 1303 CASA 2                 TEIXEIRA - I23819230ITAGUAI        RJUNIAO UMB DOS CULTOS AFRO BRAS    30041810 000176
10231987175000168817800093673    000011770                    000117700000000000000109                     I0111770     30041800000000035003410000017N200218104700000000000103004180000000000000000000000000000000000000000100032955761420VRADELEIDE MARIA DOS SANTOS             ESTRADA MARACAJAS, 725 CASA 2 FUNDOS    ILHA DO GOVE21941390RIO DE JANEIRO RJUNIAO UMB DOS CULTOS AFRO BRAS    30041810 000177
10231987175000168817800093673    000011769                    000117690000000000000109                     I0111769     30041800000000035003410000017N200218104700000000000103004180000000000000000000000000000000000000000200026135911746ELINDOMAR JORGE DA COSTA                RUA ITUVERAVA, 108 LOTE 10 QUADRA 1     MONJOLO - SA24724800SAO GONCALO    RJUNIAO UMB DOS CULTOS AFRO BRAS    30041810 000178
10231987175000168817800093673    000011768                    000117680000000000000109                     I0111768     30041800000000035003410000017N200218104700000000000103004180000000000000000000000000000000000000000100073686913704ANTONIO CORDEIRO DA SILVA               RUA ESTRELA DALVA, 2                    ITANHANGA - 22753010RIO DE JANEIRO RJUNIAO UMB DOS CULTOS AFRO BRAS    30041810 000179
10231987175000168817800093673    000011767                    000117670000000000000109                     I0111767     30041800000000035003410000017N200218104700000000000103004180000000000000000000000000000000000000000100011790209790NOILDA SANTIAGO DA SILVA                RUA ADRIANA N 203 FUNDOS                VALVERDE - N26290645NOVA IGUACU    RJUNIAO UMB DOS CULTOS AFRO BRAS    30041810 000180
10231987175000168817800093673    000011766                    000117660000000000000109                     I0111766     30041800000000035003410000017N200218104700000000000103004180000000000000000000000000000000000000000100007804875754EVANDRO MEDEIROS DE OLIVEIRA            RUA 64, LOTE 40 QUADRA 303 CASA 1       JARDIM ATLAN24934045MARICA         RJUNIAO UMB DOS CULTOS AFRO BRAS    30041810 000181
10231987175000168817800093673    000011765                    000117650000000000000109                     I0111765     30041800000000035003410000017N200218104700000000000103004180000000000000000000000000000000000000000100075597543768MARCIA REGINA DE ALMEIDA XAVIE          RUA ZENITAL, LOTE 10 QUADRA E           JARDIM PARAI26297300NOVA IGUACU    RJUNIAO UMB DOS CULTOS AFRO BRAS    30041810 000182
10231987175000168817800093673    000011764                    000117640000000000000109                     I0111764     30041800000000035003410000017N200218104700000000000103004180000000000000000000000000000000000000000200000000011828TANIA MARIA BUENO ALVES                 RUA: CISPLATINA N 24                    IRAJA - RIO 21235070RIO DE JANEIRO RJUNIAO UMB DOS CULTOS AFRO BRAS    30041810 000183
10231987175000168817800093673    000011763                    000117630000000000000109                     I0111763     30041800000000035003410000017N200218104700000000000103004180000000000000000000000000000000000000000100007469084746SILVIO GOMES BARBOSA                    RUA ALCIDES MAIA, 78 CASA 3             BENTO RIBEIR21550560RIO DE JANEIRO RJUNIAO UMB DOS CULTOS AFRO BRAS    30041810 000184
10231987175000168817800093673    000011762                    000117620000000000000109                     I0111762     30041800000000035003410000017N200218104700000000000103004180000000000000000000000000000000000000000100062700090730ZORAIA TOGNARELLI DA CRUZ               RUA CORREA DUTRA, 78 APTO 501           FLAMENGO - R22210050RIO DE JANEIRO RJUNIAO UMB DOS CULTOS AFRO BRAS    30041810 000185
10231987175000168817800093673    000011761                    000117610000000000000109                     I0111761     30041800000000035003410000017N200218104700000000000103004180000000000000000000000000000000000000000100069833850715WALTER LIMA DE AVELLAR                  RUA SAO JOSE, S/N QUADRA 47 LOTE 19     ITAIPUACU - 24900000MARICA         RJUNIAO UMB DOS CULTOS AFRO BRAS    30041810 000186
10231987175000168817800093673    000011760                    000117600000000000000109                     I0111760     30041800000000035003410000017N200218104700000000000103004180000000000000000000000000000000000000000100047783877753RAIMUNDO NONATO VALENCA RIBEIR          AVENIDA PREFEITO BRAULINO DE MATOS REIS,COPACABANA -25060440DUQUE DE CAXIASRJUNIAO UMB DOS CULTOS AFRO BRAS    30041810 000187
10231987175000168817800093673    000011759                    000117590000000000000109                     I0111759     30041800000000035003410000017N200218104700000000000103004180000000000000000000000000000000000000000100068648006791SANDRA MARTA GOMES DA COSTA             RUA LAGUNA, 678                         VILAR NOVO -26115620BELFORD ROXO   RJUNIAO UMB DOS CULTOS AFRO BRAS    30041810 000188
10231987175000168817800093673    000011758                    000117580000000000000109                     I0111758     30041800000000035003410000017N200218104700000000000103004180000000000000000000000000000000000000000100007279623700RODRIGO AYRES                           RUA CARIJOS N 23 CASA 1                 MEIER - RIO 20720360RIO DE JANEIRO RJUNIAO UMB DOS CULTOS AFRO BRAS    30041810 000189
10231987175000168817800093673    000011757                    000117570000000000000109                     I0111757     30041800000000035003410000017N200218104700000000000103004180000000000000000000000000000000000000000100011036139794CARLA COUTO DE SOUZA                    RUA C N 150                             AMAPA - DUQU25235265DUQUE DE CAXIASRJUNIAO UMB DOS CULTOS AFRO BRAS    30041810 000190
10231987175000168817800093673    000011756                    000117560000000000000109                     I0111756     30041800000000035003410000017N200218104700000000000103004180000000000000000000000000000000000000000100001199518786ADRIANA DE OLIVEIRA COUTO               RUA ITALIA LOTE 9 QUADRA 70             CACHOEIRINHA25916256PIABETA - MAGE RJUNIAO UMB DOS CULTOS AFRO BRAS    30041810 000191
10231987175000168817800093673    000011755                    000117550000000000000109                     I0111755     30041800000000035003410000017N200218104700000000000103004180000000000000000000000000000000000000000100008133276799AROLDO VAZ DE COSTA                     AVENIDA SAO JOAO DE MERITI LOTE 3 QUADRAJARDIM METRO25571161SAO JOAO DE MERRJUNIAO UMB DOS CULTOS AFRO BRAS    30041810 000192
10231987175000168817800093673    000011754                    000117540000000000000109                     I0111754     30041800000000035003410000017N200218104700000000000103004180000000000000000000000000000000000000000100003601608758NILDA MAURA RODRIGUES DE JESUS          RUA ARI VILAR, SERVIDAO 1 CASA 17       COSTA BARROS21520860RIO DE JANEIRO RJUNIAO UMB DOS CULTOS AFRO BRAS    30041810 000193
10231987175000168817800093673    000011753                    000117530000000000000109                     I0111753     30041800000000035003410000017N200218104700000000000103004180000000000000000000000000000000000000000100080756832772LUIS CLAUDIO BARCELOS                   RUA CARLOS TINOCO  CAMINHO DA BICA  376 BARRA DE GUA23020280RIO DE JANEIRO RJUNIAO UMB DOS CULTOS AFRO BRAS    30041810 000194
10231987175000168817800093673    000011752                    000117520000000000000109                     I0111752     30041800000000035003410000017N200218104700000000000103004180000000000000000000000000000000000000000100002926668708ALCIONE CARVALHO DA COSTA               RUA: SAMPAIO CORREA Nº 113 CASA 7      JACAREPAGUA 22713560RIO DE JANEIRO RJUNIAO UMB DOS CULTOS AFRO BRAS    30041810 000195
10231987175000168817800093673    000011751                    000117510000000000000109                     I0111751     30041800000000035003410000017N200218104700000000000103004180000000000000000000000000000000000000000100008560350764EMANUELE DE FARIA CARVALHO DOS          RUA FLORESTA DO SUL, 33                 GUARATIBA - 23028512RIO DE JANEIRO RJUNIAO UMB DOS CULTOS AFRO BRAS    30041810 000196
10231987175000168817800093673    000011750                    000117500000000000000109                     I0111750     30041800000000035003410000017N200218104700000000000103004180000000000000000000000000000000000000000100002402869798LEONARDO BEZERRA XAVIER                 RUA GODOFREDO SILVA, 121                PENHA CIRCUL21221020RIO DE JANEIRO RJUNIAO UMB DOS CULTOS AFRO BRAS    30041810 000197
10231987175000168817800093673    000011749                    000117490000000000000109                     I0111749     30041800000000035003410000017N200218104700000000000103004180000000000000000000000000000000000000000100093546602749JANE FERNANDES DAS CHAGAS HENR          ESTRADA DO PRE, 54 FUNDOS               SENADOR VASC23013550RIO DE JANEIRO RJUNIAO UMB DOS CULTOS AFRO BRAS    30041810 000198
10231987175000168817800093673    000011748                    000117480000000000000109                     I0111748     30041800000000035003410000017N200218104700000000000103004180000000000000000000000000000000000000000100039561607549MARIA NEUZA RODRIGUES                   RUA PEDRAS PRECIOSAS, 81 - MONTE SINAI  PACIENCIA - 23587610RIO DE JANEIRO RJUNIAO UMB DOS CULTOS AFRO BRAS    30041810 000199
10231987175000168817800093673    000011747                    000117470000000000000109                     I0111747     30041800000000035003410000017N200218104700000000000103004180000000000000000000000000000000000000000100043385184720CELINA MONTEIRO DE OLIVEIRA             TRAVESSA ANTONIO GONCALVES, 18          CUBANGO - NI24240396NITEROI        RJUNIAO UMB DOS CULTOS AFRO BRAS    30041810 000200
10231987175000168817800093673    000011746                    000117460000000000000109                     I0111746     30041800000000035003410000017N200218104700000000000103004180000000000000000000000000000000000000000100060158751787CARLOS ALEXANDRE PEREIRA E SOU          RUA BEMPOSTA, S/N CASA 2 LOTE 67 - TAQUABOIUNA - JAC22723320RIO DE JANEIRO RJUNIAO UMB DOS CULTOS AFRO BRAS    30041810 000201
10231987175000168817800093673    000011745                    000117450000000000000109                     I0111745     30041800000000035003410000017N200218104700000000000103004180000000000000000000000000000000000000000100014092645724LEITICIA BARBOSA DA SILVA               O MESMO                                 O MESMO     26089000NOVA IGUACU    RJUNIAO UMB DOS CULTOS AFRO BRAS    30041810 000202
10231987175000168817800093673    000011744                    000117440000000000000109                     I0111744     30041800000000035003410000017N200218104700000000000103004180000000000000000000000000000000000000000100014213950700AYSLAN BARBOSA GUEDES                   RUA MAJOR MARIO SALGUEIRO, 608 CASA 1   BELVEDERE -B27113070BARRA DO PIRAI RJUNIAO UMB DOS CULTOS AFRO BRAS    30041810 000203
10231987175000168817800093673    000011743                    000117430000000000000109                     I0111743     30041800000000035003410000017N200218104700000000000103004180000000000000000000000000000000000000000100011273431731DANIELE DO NASCIMENTO CRUZ              O MESMO                                 O MESMO     26080039NOVA IGUACU    RJUNIAO UMB DOS CULTOS AFRO BRAS    30041810 000204
10231987175000168817800093673    000011742                    000117420000000000000109                     I0111742     30041800000000035003410000017N200218104700000000000103004180000000000000000000000000000000000000000100066320577720RICARDO DE CASSIO TEIXEIRA DIA          RUA PORTO SEGURO,  LOTE 7 QUADRA 99     DOUTOR LAURE25051080DUQUE DE CAXIASRJUNIAO UMB DOS CULTOS AFRO BRAS    30041810 000205
10231987175000168817800093673    000011741                    000117410000000000000109                     I0111741     30041800000000035003410000017N200218104700000000000103004180000000000000000000000000000000000000000100063164256787ALICE FRANCISCO LOPES                   RUA JORNALISTA PINHEIRO LEMOS, 296      COSTA BARROS21650200RIO DE JANEIRO RJUNIAO UMB DOS CULTOS AFRO BRAS    30041810 000206
10231987175000168817800093673    000011740                    000117400000000000000109                     I0111740     30041800000000035003410000017N200218104700000000000103004180000000000000000000000000000000000000000100002533273775GLAUCE MAGALHAES JARDELINO              RUA JABORANDI, 171 FUNDOS               VILA COSMO -21220220RIO DE JANEIRO RJUNIAO UMB DOS CULTOS AFRO BRAS    30041810 000207
10231987175000168817800093673    000011739                    000117390000000000000109                     I0111739     30041800000000035003410000017N200218104700000000000103004180000000000000000000000000000000000000000100000292323760MAURICIO MANTELLI                       AVENIDA GETULIO VARGAS 2589             CENTRO - NIL26525012NILOPOLIS      RJUNIAO UMB DOS CULTOS AFRO BRAS    30041810 000208
10231987175000168817800093673    000011738                    000117380000000000000109                     I0111738     30041800000000035003410000017N200218104700000000000103004180000000000000000000000000000000000000000100005755429779ALEX CIPRIANO CARVALHO BARRETO          RUA CARLOS CHAMBELLAND, 300 APTO 101    VILA DA PENH21210090RIO DE JANEIRO RJUNIAO UMB DOS CULTOS AFRO BRAS    30041810 000209
10231987175000168817800093673    000011737                    000117370000000000000109                     I0111737     30041800000000035003410000017N200218104700000000000103004180000000000000000000000000000000000000000100094443211772SANDRA LEILA ANACLETO SIQUEIRA          RUA RAUL VEIGA, 315                     QUITANDINHA 25635110PETROPOLIS     RJUNIAO UMB DOS CULTOS AFRO BRAS    30041810 000210
10231987175000168817800093673    000011736                    000117360000000000000109                     I0111736     30041800000000035003410000017N200218104700000000000103004180000000000000000000000000000000000000000100048366030725SILVIA REGINA DE SOUZA CASTILH          RUA SOLDADO FILISBINO DOS SANTOS, 278   PALMARES - P23066000RIO DE JANEIRO RJUNIAO UMB DOS CULTOS AFRO BRAS    30041810 000211
10231987175000168817800093673    000011735                    000117350000000000000109                     I0111735     30041800000000035003410000017N200218104700000000000103004180000000000000000000000000000000000000000100016049548765ARTHUR DA SILVA AVELLAR GOMES           RUA CLAUDINO BARATA, 143 CASA 3         REALENGO - R21770200RIO DE JANEIRO RJUNIAO UMB DOS CULTOS AFRO BRAS    30041810 000212
10231987175000168817800093673    000011734                    000117340000000000000109                     I0111734     30041800000000035003410000017N200218104700000000000103004180000000000000000000000000000000000000000100005241615776SIMONE ALICE CACCAVO GRIBEL             RUA VENEZA, 142                         PRAIA DE MAU25900000MAGE           RJUNIAO UMB DOS CULTOS AFRO BRAS    30041810 000213
10231987175000168817800093673    000011733                    000117330000000000000109                     I0111733     30041800000000035003410000017N200218104700000000000103004180000000000000000000000000000000000000000100051562430700EMILIA SANTANA MORAIS                   RUA JORNALISTA MOACIR PADILHA, 276 FUNDOCENTRO - NIT24020350NITEROI        RJUNIAO UMB DOS CULTOS AFRO BRAS    30041810 000214
10231987175000168817800093673    000011732                    000117320000000000000109                     I0111732     30041800000000035003410000017N200218104700000000000103004180000000000000000000000000000000000000000100031709294749ELIETE DE OLIVEIRA FONSECA              ESTRADA DO MAGARCA, 1137 FUNDOS         GUARATIBA - 23035380RIO DE JANEIRO RJUNIAO UMB DOS CULTOS AFRO BRAS    30041810 000215
10231987175000168817800093673    000011731                    000117310000000000000109                     I0111731     30041800000000035003410000017N200218104700000000000103004180000000000000000000000000000000000000000100094639779704SERGIO ANTONIO CARDOSO LOPES            TRAVESSA DA AMIZADE, 142 APTO 501       VILA DA PENH21221370RIO DE JANEIRO RJUNIAO UMB DOS CULTOS AFRO BRAS    30041810 000216
10231987175000168817800093673    000011730                    000117300000000000000109                     I0111730     30041800000000035003410000017N200218104700000000000103004180000000000000000000000000000000000000000100087318822772REGINA CLIMAS DE ABREU                  RUA JOAO MARTINS DE BARROS, LOTE 25 QUADBATAILLARD -25675150PETROPOLIS     RJUNIAO UMB DOS CULTOS AFRO BRAS    30041810 000217
10231987175000168817800093673    000011729                    000117290000000000000109                     I0111729     30041800000000035003410000017N200218104700000000000103004180000000000000000000000000000000000000000100023061987152NICEAS FERREIRA BRITO FILHO             RUA ALBINO PAIVA, 486                   SENADOR CAMA21830490RIO DE JANEIRO RJUNIAO UMB DOS CULTOS AFRO BRAS    30041810 000218
10231987175000168817800093673    000011728                    000117280000000000000109                     I0111728     30041800000000035003410000017N200218104700000000000103004180000000000000000000000000000000000000000100011519708750GERALDINA DA SILVA MENDONCA             AV. ALBERTINO LADEIRA, 63               ENGENHEIRO R26041510NOVA IGUACU    RJUNIAO UMB DOS CULTOS AFRO BRAS    30041810 000219
10231987175000168817800093673    000011727                    000117270000000000000109                     I0111727     30041800000000035003410000017N200218104700000000000103004180000000000000000000000000000000000000000100098129074753EVANILDO PEDRO DA SILVA FILHO           RUA MANOEL GREGORIO, SN CASA 7 QUADRO B SANTISSIMO -21853050RIO DE JANEIRO RJUNIAO UMB DOS CULTOS AFRO BRAS    30041810 000220
10231987175000168817800093673    000011726                    000117260000000000000109                     I0111726     30041800000000035003410000017N200218104700000000000103004180000000000000000000000000000000000000000100070154732753SOLANGE GONCALVES DA SILVA              RUA VINTE E OITO, SN LOTE 727           MURIQUI - MA23860000MANGARATIBA    RJUNIAO UMB DOS CULTOS AFRO BRAS    30041810 000221
10231987175000168817800093673    000011725                    000117250000000000000109                     I0111725     30041800000000035003410000017N200218104700000000000103004180000000000000000000000000000000000000000100009805565700THIAGO DOS SANTOS FLOR DA SILV          RUA JOAO LUSO, 423                      REALENGO-RJ 21765620RIO DE JANEIRO RJUNIAO UMB DOS CULTOS AFRO BRAS    30041810 000222
10231987175000168817800093673    000011724                    000117240000000000000109                     I0111724     30041800000000035003410000017N200218104700000000000103004180000000000000000000000000000000000000000100089853628791NADIA JAQUELINE MEDEIROS BARCE          RUA PROJETADA E, 51 FUNDOS CASA 1       SENADOR CAMA21831440RIO DE JANEIRO RJUNIAO UMB DOS CULTOS AFRO BRAS    30041810 000223
10231987175000168817800093673    000011723                    000117230000000000000109                     I0111723     30041800000000035003410000017N200218104700000000000103004180000000000000000000000000000000000000000100004790121720IATA ANDERSON JESUS PEREIRA             RUA ITAJUBARA, 92 FRENTE                RAMOS - RIO 21060180RIO DE JANEIRO RJUNIAO UMB DOS CULTOS AFRO BRAS    30041810 000224
10231987175000168817800093673    000011722                    000117220000000000000109                     I0111722     30041800000000035003410000017N200218104700000000000103004180000000000000000000000000000000000000000100069542996772ELZINEIA RUFINO FICHEIRA                RUA LIVIO BARRETO, 274 CASA 2 FUNDOS    JACAREPAGUA 22730065RIO DE JANEIRO RJUNIAO UMB DOS CULTOS AFRO BRAS    30041810 000225
10231987175000168817800093673    000011721                    000117210000000000000109                     I0111721     30041800000000035003410000017N200218104700000000000103004180000000000000000000000000000000000000000100002437606718FABIO VICTOR BARRETO                    RUA BARAO DE JAGUARI, 31                IRAJA - RIO 21235555RIO DE JANEIRO RJUNIAO UMB DOS CULTOS AFRO BRAS    30041810 000226
10231987175000168817800093673    000011720                    000117200000000000000109                     I0111720     30041800000000035003410000017N200218104700000000000103004180000000000000000000000000000000000000000100010591612739ROSEMERE SOUZA DA SILVA                 O MESMO                                 O MESMO     21230354RIO DE JANEIRO RJUNIAO UMB DOS CULTOS AFRO BRAS    30041810 000227
10231987175000168817800093673    000011719                    000117190000000000000109                     I0111719     30041800000000035003410000017N200218104700000000000103004180000000000000000000000000000000000000000100085953407734CARLA MARIA FERREIRA DA SILVA           RUA: JOSE MARIA DO AMARAL N 40          GUARATIBA - 23028120RIO DE JANEIRO RJUNIAO UMB DOS CULTOS AFRO BRAS    30041810 000228
10231987175000168817800093673    000011718                    000117180000000000000109                     I0111718     30041800000000035003410000017N200218104700000000000103004180000000000000000000000000000000000000000100062642049787ROSALIA FERREIRA DA SILVA               RUA CLARIMUNDO DE MELO, 680             PIEDADE - RJ21311300RIO DE JANEIRO RJUNIAO UMB DOS CULTOS AFRO BRAS    30041810 000229
10231987175000168817800093673    000011717                    000117170000000000000109                     I0111717     30041800000000035003410000017N200218104700000000000103004180000000000000000000000000000000000000000100011639602763PAULO HUMBERTO AZEVEDO PONTE J          RUA MARECHAL RONDON, 1037 - SOBRADO     SAO FRANCISC20950003RIO DE JANEIRO RJUNIAO UMB DOS CULTOS AFRO BRAS    30041810 000230
10231987175000168817800093673    000011716                    000117160000000000000109                     I0111716     30041800000000035003410000017N200218104700000000000103004180000000000000000000000000000000000000000100002979603775LUIZ CARLOS PESSOA                      RUA: JOSE RAMALHO Nº 14 - MUTUAPIRA    O MESMO     24455235RIO DE JANEIRO RJUNIAO UMB DOS CULTOS AFRO BRAS    30041810 000231
10231987175000168817800093673    000011715                    000117150000000000000109                     I0111715     30041800000000035003410000017N200218104700000000000103004180000000000000000000000000000000000000000100007476149739JAQUELINE DE ASSIS                      RUA: MIGUEL DE CARVALHO Nº 171         GUARATIBA - 23035640RIO DE JANEIRO RJUNIAO UMB DOS CULTOS AFRO BRAS    30041810 000232
10231987175000168817800093673    000011714                    000117140000000000000109                     I0111714     30041800000000035003410000017N200218104700000000000103004180000000000000000000000000000000000000000100012106775717VITOR GABRIEL CARVALHO DE FIGU          RUA GENERAL BELFORD, 295 CASA 12        ROCHA - RJ  20961000RIO DE JANEIRO RJUNIAO UMB DOS CULTOS AFRO BRAS    30041810 000233
10231987175000168817800093673    000011713                    000117130000000000000109                     I0111713     30041800000000035003410000017N200218104700000000000103004180000000000000000000000000000000000000000100095685774753ADEMIR GOMES DOS SANTOS                 AVENIDA NOSSA SENHORA DAS GRACAS, 546   SAO JOAO DE 25515001RIO DE JANEIRO RJUNIAO UMB DOS CULTOS AFRO BRAS    30041810 000234
10231987175000168817800093673    000011712                    000117120000000000000109                     I0111712     30041800000000035003410000017N200218104700000000000103004180000000000000000000000000000000000000000100008158166776CRISTIANE DE ALMEIDA DA ROCHA           RUA JOANA RESENDE N° 28 - MADUREIRA    RIO DE JANEI21360430RIO DE JANEIRO RJUNIAO UMB DOS CULTOS AFRO BRAS    30041810 000235
10231987175000168817800093673    000011711                    000117110000000000000109                     I0111711     30041800000000035003410000017N200218104700000000000103004180000000000000000000000000000000000000000100013814528760TIAGO FRANCISLEI PEREIRA REALI          O MESMO                                 O MESMO     24115260BARRA DO PIRAI RJUNIAO UMB DOS CULTOS AFRO BRAS    30041810 000236
10231987175000168817800093673    000011710                    000117100000000000000109                     I0111710     30041800000000035003410000017N200218104700000000000103004180000000000000000000000000000000000000000100014662855756JEFERSON DOS SANTOS                     O MESMO                                 O MESMO     26160190RIO DE JANEIRO RJUNIAO UMB DOS CULTOS AFRO BRAS    30041810 000237
10231987175000168817800093673    000011709                    000117090000000000000109                     I0111709     30041800000000035003410000017N200218104700000000000103004180000000000000000000000000000000000000000100064561968768EUCLIDALINA MARIA DOS SANTOS V          O MESMO                                 O MESMO     25265080DUQUE DE CAXIASRJUNIAO UMB DOS CULTOS AFRO BRAS    30041810 000238
10231987175000168817800093673    000011708                    000117080000000000000109                     I0111708     30041800000000035003410000017N200218104700000000000103004180000000000000000000000000000000000000000100010355748703MARIA LUIZA LOPES                       RUA DOUTOR NUNES, 1243 APTO 302         OLARIA - RJ 21021370RIO DE JANEIRO RJUNIAO UMB DOS CULTOS AFRO BRAS    30041810 000239
10231987175000168817800093673    000011707                    000117070000000000000109                     I0111707     30041800000000035003410000017N200218104700000000000103004180000000000000000000000000000000000000000200000000011636CARLOS DE CARVALHO                      RUA MARINALVA SILVA, 9                  MALHAPAO - B26187660BELFORD ROXO   RJUNIAO UMB DOS CULTOS AFRO BRAS    30041810 000240
10231987175000168817800093673    000011706                    000117060000000000000109                     I0111706     30041800000000035003410000017N200218104700000000000103004180000000000000000000000000000000000000000100007057227752EDMAR ADAO                              RUA: ECLIPSE LOTE 7 QUADRA 7 - GUANDU   JAPERI - RJ 26420000JAPERI         RJUNIAO UMB DOS CULTOS AFRO BRAS    30041810 000241
10231987175000168817800093673    000011705                    000117050000000000000109                     I0111705     30041800000000035003410000017N200218104700000000000103004180000000000000000000000000000000000000000100000921417130IVANILDA MARIA DE OLIVEIRA              O MESMO                                 O MESMO     26420150JAPERI         RJUNIAO UMB DOS CULTOS AFRO BRAS    30041810 000242
10231987175000168817800093673    000011704                    000117040000000000000109                     I0111704     30041800000000035003410000017N200218104700000000000103004180000000000000000000000000000000000000000100004460142732CRISTIANO ARAUJO DE OLIVEIRA            R: SERIDO LT 20 QD 16/CABUCU/N.IGUACU RJO MESMO     26291482NOVA IGUACU    RJUNIAO UMB DOS CULTOS AFRO BRAS    30041810 000243
10231987175000168817800093673    000011703                    000117030000000000000109                     I0111703     30041800000000035003410000017N200218104700000000000103004180000000000000000000000000000000000000000100092952364753ROSANGELA SILVA SOUZA                   RUA TAMOIOS N 144                       CENTRO - NIL26520250NILOPOLIS      RJUNIAO UMB DOS CULTOS AFRO BRAS    30041810 000244
10231987175000168817800093673    000011702                    000117020000000000000109                     I0111702     30041800000000035003410000017N200218104700000000000103004180000000000000000000000000000000000000000100012874409758CLAUDIA DA SILVA NOBRE DE MIRA          RUA SEIS, 70 - FIGUEIRA                 MAUA - MAGE 25930000MAGE           RJUNIAO UMB DOS CULTOS AFRO BRAS    30041810 000245
10231987175000168817800093673    000011701                    000117010000000000000109                     I0111701     30041800000000035003410000017N200218104700000000000103004180000000000000000000000000000000000000000100068824238734MARINETE LOPES DE MOURA                 RUA GENERAL, LOTE 4 QUADRA 2 N 9        PIABETA - MA25915000MAGE           RJUNIAO UMB DOS CULTOS AFRO BRAS    30041810 000246
10231987175000168817800093673    000011700                    000117000000000000000109                     I0111700     30041800000000035003410000017N200218104700000000000103004180000000000000000000000000000000000000000100037506587734MARIA JOSE ALVES DIAS                   RUA CLODOMIRO, 105                      SANTA CRUZ/R23550020RIO DE JANEIRO RJUNIAO UMB DOS CULTOS AFRO BRAS    30041810 000247
10231987175000168817800093673    000011699                    000116990000000000000109                     I0111699     30041800000000035003410000017N200218104700000000000103004180000000000000000000000000000000000000000100001248895738JUSSARA SILVEIRA LOPES DA FONS          RUA SAQUAREMA, 1433                     SANTO ALEIXO25914000MAGE           RJUNIAO UMB DOS CULTOS AFRO BRAS    30041810 000248
10231987175000168817800093673    000011698                    000116980000000000000109                     I0111698     30041800000000035003410000017N200218104700000000000103004180000000000000000000000000000000000000000100072461780749FATIMA GARCIA                           RODOVIA 116 KM 3,5 LT 31 QD 2 SAMBAETIBAITABORAI - R24843000RIO DE JANEIRO RJUNIAO UMB DOS CULTOS AFRO BRAS    30041810 000249
