01REMESSA01COBRANCA       916200163100        União Umb dos Cultos Afro Bra341BANCO ITAU SA  030519                                                                                                                                                                                                                                                                                                      000001
10231987175000168916200163100    000045215                    000452150000000000000109                     I0145215     30051900000000360003410000017N020519105700000000000103005190000000000000000000000000000000000000000100099025078753EVA DE OLIVEIRA LOPES                   RUA ITAPIREMAN 0, CASA 2 LOTE 8         PARQUE ENGEN26455070JAPERI         RJUNIAO UMB DOS CULTOS AFRO BRAS    30051915 000002
10231987175000168916200163100    000045214                    000452140000000000000109                     I0145214     20051900000000040003410000017N020519105700000000000102005190000000000000000000000000000000000000000100052889378772ANGELA MARIA DA SILVA ANDRADE           RUA WILSON GIL DA MATTAN 240, CASA 3    CENTRO      25515101SAO JOAO DE MERRJUNIAO UMB DOS CULTOS AFRO BRAS    20051915 000003
10231987175000168916200163100    000043599                    000435990000000000000109                     I0243599     30061900000000040003410000017N130319105700000000000103006190000000000000000000000000000000000000000225237434000130ILE ASE OMIBUNILE - ASE LAGOIN          RUA: VITORIAN 16, QUADRA N LOTE 8       LAGOINHA    26296447NOVA IGUACU    RJUNIAO UMB DOS CULTOS AFRO BRAS    30061915 000004
10231987175000168916200163100    000041955                    000419550000000000000109                     I0241955     30051900000000040003410000017N130319105700000000000103005190000000000000000000000000000000000000000225237434000130ILE ASE OMIBUNILE - ASE LAGOIN          RUA: VITORIAN 16, QUADRA N LOTE 8       LAGOINHA    26296447NOVA IGUACU    RJUNIAO UMB DOS CULTOS AFRO BRAS    30051915 000005
10231987175000168916200163100    000041602                    000416020000000000000109                     I0241602     30051900000000040003410000017N130319105700000000000103005190000000000000000000000000000000000000000100043082033768LEILA RAMOS DE OLIVEIRA                 RUA CAPIBARIBE N 361,                   CABUCU      26346290NOVA IGUACU    RJUNIAO UMB DOS CULTOS AFRO BRAS    30051915 000006
10231987175000168916200163100    000041430                    000414300000000000000109                     I0241430     30041900000000040003410000017N120319105700000000000103004190000000000000000000000000000000000000000100007403387732MARCOS MAURICIO DOS SANTOS COS          RUA: BOA VISTAN 299,                    CARAMUJO    24140460NITEROI        RJUNIAO UMB DOS CULTOS AFRO BRAS    30041915 000007
10231987175000168916200163100    000040321                    000403210000000000000109                     I0240321     30041900000000040003410000017N120319105700000000000103004190000000000000000000000000000000000000000225237434000130ILE ASE OMIBUNILE - ASE LAGOIN          RUA: VITORIAN 16, QUADRA N LOTE 8       LAGOINHA    26296447NOVA IGUACU    RJUNIAO UMB DOS CULTOS AFRO BRAS    30041915 000008
10231987175000168916200163100    000040272                    000402720000000000000109                     I0240272     30041900000000040003410000017N120319105700000000000103004190000000000000000000000000000000000000000100044845251787REGINA CELIA ALMEIDA BASTOS             ...N 103,                               ...         21532360...            ..UNIAO UMB DOS CULTOS AFRO BRAS    30041915 000009
10231987175000168916200163100    000040171                    000401710000000000000109                     I0240171     30041900000000040003410000017N120319105700000000000103004190000000000000000000000000000000000000000100032996659600FERNANDO JUSTINO PALMEIRA               ESTRADA DE JACONE N 569,                SAMPAIO CORR28990000SAQUAREMA      RJUNIAO UMB DOS CULTOS AFRO BRAS    30041915 000010
10231987175000168916200163100    000039970                    000399700000000000000109                     I0239970     30041900000000040003410000017N120319105700000000000103004190000000000000000000000000000000000000000100043082033768LEILA RAMOS DE OLIVEIRA                 RUA CAPIBARIBE N 361,                   CABUCU      26346290NOVA IGUACU    RJUNIAO UMB DOS CULTOS AFRO BRAS    30041915 000011
10231987175000168916200163100    000039885                    000398850000000000000109                     I0239885     30041900000000040003410000017N120319105700000000000103004190000000000000000000000000000000000000000100002826493795VALDEA PEREIRA SIQUEIRA                 RUA BORDA DO MATON 415,                 GRAJAU      20561204RIO DE JANEIRO RJUNIAO UMB DOS CULTOS AFRO BRAS    30041915 000012
9                                                                                                                                                                                                                                                                                                                                                                                                         000013
