01REMESSA01COBRANCA       916200163100        União Umb dos Cultos Afro Bra341BANCO ITAU SA  050619                                                                                                                                                                                                                                                                                                      000001
10231987175000168916200163100    000044970                    000449700000000000000109                     I0244970     30051900000000040003410000017N020419105700000000000133005190000000000000000000000000000000000000000100073918784720CLAUDIO GOMES DA SILVA                  RUA JABOTIANAN 25,                      ROCHA MIRAND21540670RIO DE JANEIRO RJUNIAO UMB DOS CULTOS AFRO BRAS    30051915 000002
21300520190000000000400                                                                                                                                                                                                                                                                                                                                                                                   000003
10231987175000168916200163100    000044969                    000449690000000000000109                     I0244969     30041900000000040003410000017N020419105700000000000133004190000000000000000000000000000000000000000100073918784720CLAUDIO GOMES DA SILVA                  RUA JABOTIANAN 25,                      ROCHA MIRAND21540670RIO DE JANEIRO RJUNIAO UMB DOS CULTOS AFRO BRAS    30041915 000004
21300420190000000000400                                                                                                                                                                                                                                                                                                                                                                                   000005
10231987175000168916200163100    000044571                    000445710000000000000109                     I3444571     30061900000000040003410000017N130319105700000000000133006190000000000000000000000000000000000000000100002621693717JUREMA DE OLIVEIRA RODRIGUES            ESTRADA: INTENDENTE MAGALHAES N 196, APACAMPINHO    21341330RIO DE JANEIRO RJUNIAO UMB DOS CULTOS AFRO BRAS    30061915 000006
21300620190000000000400                                                                                                                                                                                                                                                                                                                                                                                   000007
10231987175000168916200163100    000044018                    000440180000000000000109                     I0244018     30061900000000040003410000017N130319105700000000000133006190000000000000000000000000000000000000000100000890225729MARINA DA SILVA ANGELO                  RUA DOZEN 0, LOTE 6 QUADRA 36 FUNDOS    JOAO CAETANO24866456ITABORAI       RJUNIAO UMB DOS CULTOS AFRO BRAS    30061915 000008
21300620190000000000400                                                                                                                                                                                                                                                                                                                                                                                   000009
10231987175000168916200163100    000042918                    000429180000000000000109                     I3442918     30051900000000040003410000017N130319105700000000000133005190000000000000000000000000000000000000000100002621693717JUREMA DE OLIVEIRA RODRIGUES            ESTRADA: INTENDENTE MAGALHAES N 196, APACAMPINHO    21341330RIO DE JANEIRO RJUNIAO UMB DOS CULTOS AFRO BRAS    30051915 000010
21300520190000000000400                                                                                                                                                                                                                                                                                                                                                                                   000011
10231987175000168916200163100    000042372                    000423720000000000000109                     I0242372     30051900000000040003410000017N130319105700000000000133005190000000000000000000000000000000000000000100000890225729MARINA DA SILVA ANGELO                  RUA DOZEN 0, LOTE 6 QUADRA 36 FUNDOS    JOAO CAETANO24866456ITABORAI       RJUNIAO UMB DOS CULTOS AFRO BRAS    30051915 000012
21300520190000000000400                                                                                                                                                                                                                                                                                                                                                                                   000013
10231987175000168916200163100    000041889                    000418890000000000000109                     I0241889     30051900000000040003410000017N130319105700000000000133005190000000000000000000000000000000000000000100007446571721ANDREA GUEDES PINHEIRO GOMES            RUA ADOLFO BERGAMININ 155, CASA 1       CENTRO      26535590NILOPOLIS      RJUNIAO UMB DOS CULTOS AFRO BRAS    30051915 000014
21300520190000000000400                                                                                                                                                                                                                                                                                                                                                                                   000015
10231987175000168916200163100    000041624                    000416240000000000000109                     I0141624     05061900000000040003410000017N130319105700000000000130506190000000000000000000000000000000000000000100041602790744PAULO LEANDRO FONTES                    RUA SANTA LUZIAN 208,                   SANTA CRUZ I27288490VOLTA REDONDA  RJUNIAO UMB DOS CULTOS AFRO BRAS    05061915 000016
21050620190000000000400                                                                                                                                                                                                                                                                                                                                                                                   000017
10231987175000168916200163100    000041065                    000410650000000000000109                     I0241065     30041900000000040003410000017N120319105700000000000133004190000000000000000000000000000000000000000100007812146707GRASIELI RIBEIRO DE ALMEIDA             RUA PADRE ARMANDO NOGUEIRAN 30,         AGUA SANTA  20745120RIO DE JANEIRO RJUNIAO UMB DOS CULTOS AFRO BRAS    30041915 000018
21300420190000000000400                                                                                                                                                                                                                                                                                                                                                                                   000019
10231987175000168916200163100    000040735                    000407350000000000000109                     I0240735     30041900000000040003410000017N120319105700000000000133004190000000000000000000000000000000000000000100000890225729MARINA DA SILVA ANGELO                  RUA DOZEN 0, LOTE 6 QUADRA 36 FUNDOS    JOAO CAETANO24866456ITABORAI       RJUNIAO UMB DOS CULTOS AFRO BRAS    30041915 000020
21300420190000000000400                                                                                                                                                                                                                                                                                                                                                                                   000021
10231987175000168916200163100    000040256                    000402560000000000000109                     I0240256     30041900000000040003410000017N120319105700000000000133004190000000000000000000000000000000000000000100007446571721ANDREA GUEDES PINHEIRO GOMES            RUA ADOLFO BERGAMININ 155, CASA 1       CENTRO      26535590NILOPOLIS      RJUNIAO UMB DOS CULTOS AFRO BRAS    30041915 000022
21300420190000000000400                                                                                                                                                                                                                                                                                                                                                                                   000023
9                                                                                                                                                                                                                                                                                                                                                                                                         000024
