01REMESSA01COBRANCA       916200163100        União Umb dos Cultos Afro Bra341BANCO ITAU SA  150119                                                                                                                                                                                                                                                                                                      000001
10231987175000168916200163100    000039576                    000395760000000000000109                     I0139576     25011900000000070003410000017N150119104700000000000102501190000000000000000000000000000000000000000100005215642710ROBERTA LIMA GRIJO                      RUA FLORANIA                            VISTA ALEGRE21230700RIO DE JANEIRO RJUNIAO UMB DOS CULTOS AFRO BRAS    25011910 000002
9                                                                                                                                                                                                                                                                                                                                                                                                         000003
