01REMESSA01COBRANCA       817800093673        União Umb dos Cultos Afro Bra341BANCO ITAU SA  261218                                                                                                                                                                                                                                                                                                      000001
10231987175000168817800093673    000039383                    000393830000000000000109                     I0139383     31011900000000040003410000017N261218104700000000000103101190000000000000000000000000000000000000000100088033945753JOSE RICARDO RIBEIRO DE AMORIM          RUA IGARATA                             MARECHAL HER21555250RIO DE JANEIRO RJUNIAO UMB DOS CULTOS AFRO BRAS    31011910 000002
10231987175000168817800093673    000036332                    000363320000000000000109                     I0136332     28021900000000040003410000017N261218104700000000000102802190000000000000000000000000000000000000000100001206849770EUGENIO ALBERTO DA SILVA LOPES          RUA COMENDADOR BASTOS                   FREGUESIA  -21911220RIO DE JANEIRO RJUNIAO UMB DOS CULTOS AFRO BRAS    28021910 000003
10231987175000168817800093673    000036331                    000363310000000000000109                     I0136331     28021900000000040003410000017N261218104700000000000102802190000000000000000000000000000000000000000100053365836772CRISTINA MARIA DE SANT ANNA SI          RUA: ESTRADA DA FONTINHA                BENTO RIBEIR00000000RIO DE JANEIRO RJUNIAO UMB DOS CULTOS AFRO BRAS    28021910 000004
10231987175000168817800093673    000036330                    000363300000000000000109                     I0136330     28021900000000040003410000017N261218104700000000000102802190000000000000000000000000000000000000000100062821598734CLAUDEMIR APARECIDO FREITAS SI          TRAVESSA PIACAVA                        BANCO DE ARE26570210MESQUITA       RJUNIAO UMB DOS CULTOS AFRO BRAS    28021910 000005
10231987175000168817800093673    000036329                    000363290000000000000109                     I0136329     28021900000000040003410000017N261218104700000000000102802190000000000000000000000000000000000000000100005306993702EVA DOS SANTOS PEREIRA                  RUA DOUTOR ABELARDO DE BARROS           TIJUCA      20521030RIO DE JANEIRO RJUNIAO UMB DOS CULTOS AFRO BRAS    28021910 000006
10231987175000168817800093673    000036328                    000363280000000000000109                     I0136328     28021900000000040003410000017N261218104700000000000102802190000000000000000000000000000000000000000100000000009659SHIRLEY GOMES FRANCISCO DE SOU          RUA: TEIXEIRA RAMALHO                   CACUIA      26082125NOVA IGUACU    RJUNIAO UMB DOS CULTOS AFRO BRAS    28021910 000007
10231987175000168817800093673    000036327                    000363270000000000000109                     I0136327     28021900000000040003410000017N261218104700000000000102802190000000000000000000000000000000000000000100033205094700IRACEMA PAZ DA MOTTA                    RUA CARDOSO QUINTAO                     PIDEDADE    21381460RIO DE JANEIRO RJUNIAO UMB DOS CULTOS AFRO BRAS    28021910 000008
10231987175000168817800093673    000036326                    000363260000000000000109                     I0136326     28021900000000040003410000017N261218104700000000000102802190000000000000000000000000000000000000000100077597443749RONALDO SILVA DOS SANTOS                RUA: ITAPECERICA                        REALENGO    21730190RIO DE JANEIRO RJUNIAO UMB DOS CULTOS AFRO BRAS    28021910 000009
10231987175000168817800093673    000036325                    000363250000000000000109                     I0136325     28021900000000040003410000017N261218104700000000000102802190000000000000000000000000000000000000000100007564771747BARBARA LISBOA PINTO                    RUA SOUZA BARROS                        ENGENHO NOVO00000000RIO DE JANEIRO RJUNIAO UMB DOS CULTOS AFRO BRAS    28021910 000010
10231987175000168817800093673    000036324                    000363240000000000000109                     I0136324     28021900000000040003410000017N261218104700000000000102802190000000000000000000000000000000000000000100008852284729DILMA DE OLIVEIRA CORDEIRO              RUA: VEREADOR OSCAR DIAS OLIVEIRA       CHACRINHA   25065160DUQUE DE CAXIASRJUNIAO UMB DOS CULTOS AFRO BRAS    28021910 000011
10231987175000168817800093673    000036323                    000363230000000000000109                     I0136323     28021900000000040003410000017N261218104700000000000102802190000000000000000000000000000000000000000100000158250788ROBSON BARBOZA VIEIRA                   RUA NOVE                                FAZENDA IGUA28960000IGUABA GRANDE  RJUNIAO UMB DOS CULTOS AFRO BRAS    28021910 000012
10231987175000168817800093673    000036322                    000363220000000000000109                     I0136322     28021900000000040003410000017N261218104700000000000102802190000000000000000000000000000000000000000100067616569749NADIA MARIA DO NASCIMENTO LEMO          RUA 503                                 TREVO PIRATI24350000NITEROI        RJUNIAO UMB DOS CULTOS AFRO BRAS    28021910 000013
10231987175000168817800093673    000036321                    000363210000000000000109                     I0136321     28021900000000040003410000017N261218104700000000000102802190000000000000000000000000000000000000000100092080570706EUZAMAR FONSECA SANTOS                  RUA MARAPENDI                           MARECHAL HER21557130RIO DE JANEIRO RJUNIAO UMB DOS CULTOS AFRO BRAS    28021910 000014
10231987175000168817800093673    000036320                    000363200000000000000109                     I0136320     28021900000000040003410000017N261218104700000000000102802190000000000000000000000000000000000000000100002379534713ALEX EVANDRO CORREIA PETITINGA          RUA FRANCISCO MANUEL                    BENFICA     00000000RIO DE JANEIRO RJUNIAO UMB DOS CULTOS AFRO BRAS    28021910 000015
10231987175000168817800093673    000036319                    000363190000000000000109                     I0136319     28021900000000040003410000017N261218104700000000000102802190000000000000000000000000000000000000000100085778351704MARIA NILZA DA SILVA                    RUA OTAVIO TARQUINO DE SOUZA            TANQUE      22733140RIO DE JANEIRO RJUNIAO UMB DOS CULTOS AFRO BRAS    28021910 000016
10231987175000168817800093673    000036318                    000363180000000000000109                     I0136318     28021900000000040003410000017N261218104700000000000102802190000000000000000000000000000000000000000100043641717787YWONE AMELIA VAZ COSTA                  RUA CASTRO MENEZES                      BRAZ DE PINA21215250RIO DE JANEIRO RJUNIAO UMB DOS CULTOS AFRO BRAS    28021910 000017
10231987175000168817800093673    000036317                    000363170000000000000109                     I0136317     28021900000000040003410000017N261218104700000000000102802190000000000000000000000000000000000000000100007332496712ELENICE ROSA DA SILVA                   RUA SEPETIBA                            PADRE JOSE B25565250NOVA IGUACU    RJUNIAO UMB DOS CULTOS AFRO BRAS    28021910 000018
10231987175000168817800093673    000036316                    000363160000000000000109                     I0136316     28021900000000040003410000017N261218104700000000000102802190000000000000000000000000000000000000000100002735190773EDIVAN FARIAS DA SILVA                  RUA EDNA MEDEIROS                       CORUMBA     26042430NOVA IGUACU    RJUNIAO UMB DOS CULTOS AFRO BRAS    28021910 000019
10231987175000168817800093673    000036315                    000363150000000000000109                     I0136315     28021900000000040003410000017N261218104700000000000102802190000000000000000000000000000000000000000100000633999709KATIA REGINA LEITE RAMOS                RUA GUIRATIM                            IRAJA       21371410RIO DE JANEIRO RJUNIAO UMB DOS CULTOS AFRO BRAS    28021910 000020
10231987175000168817800093673    000036314                    000363140000000000000109                     I0136314     28021900000000040003410000017N261218104700000000000102802190000000000000000000000000000000000000000100005365022777PAULA DOS REIS MOITA                    RUA IGUABA GRANDE                       PAVUNA      21655340RIO DE JANEIRO RJUNIAO UMB DOS CULTOS AFRO BRAS    28021910 000021
10231987175000168817800093673    000036313                    000363130000000000000109                     I0136313     28021900000000040003410000017N261218104700000000000102802190000000000000000000000000000000000000000100009237411782RODRIGO NOGUEIRA MARTINS                RUA DOUTOR AUGUSTO FIGUEIREDO           BANGU       21840600RIO DE JANEIRO RJUNIAO UMB DOS CULTOS AFRO BRAS    28021910 000022
10231987175000168817800093673    000036312                    000363120000000000000109                     I0136312     28021900000000040003410000017N261218104700000000000102802190000000000000000000000000000000000000000100041795458704VERA LUCIA DE MACEDO                    AVENIDA LITORANEA                       GUARATIBA   23025080MARICA         RJUNIAO UMB DOS CULTOS AFRO BRAS    28021910 000023
10231987175000168817800093673    000036311                    000363110000000000000109                     I0136311     28021900000000040003410000017N261218104700000000000102802190000000000000000000000000000000000000000100007965913771ANDREA CARLA FREITAS E SILVA            RUA SAO MARCOS                          KM 32       26298548NOVA IGUACU    RJUNIAO UMB DOS CULTOS AFRO BRAS    28021910 000024
10231987175000168817800093673    000036310                    000363100000000000000109                     I0136310     28021900000000040003410000017N261218104700000000000102802190000000000000000000000000000000000000000100004746270716ANTONIO CARLOS FERNANDES                RUA FRANCISCO DE CASTRO                 SANTA TERESA20241300RIO DE JANEIRO RJUNIAO UMB DOS CULTOS AFRO BRAS    28021910 000025
10231987175000168817800093673    000036309                    000363090000000000000109                     I0136309     28021900000000040003410000017N261218104700000000000102802190000000000000000000000000000000000000000100001304629775ZILDA DA SILVA RIBEIRO                  RUA LAURA RAFANELLI                     ITAIPUACU   24935500MARICA         RJUNIAO UMB DOS CULTOS AFRO BRAS    28021910 000026
10231987175000168817800093673    000036308                    000363080000000000000109                     I0136308     28021900000000040003410000017N261218104700000000000102802190000000000000000000000000000000000000000100086457640753MARLUCE AUGUSTO BLANCO NOVOA            RUA: REGINA                             PARQUE SUECI21187110BELFORD ROXO   RJUNIAO UMB DOS CULTOS AFRO BRAS    28021910 000027
10231987175000168817800093673    000036307                    000363070000000000000109                     I0136307     28021900000000040003410000017N261218104700000000000102802190000000000000000000000000000000000000000100063761092768JANET BATISTA DA CONCEICAO              RUA SERRA VELHA                         RAIZ DA SERR25935000MAGE           RJUNIAO UMB DOS CULTOS AFRO BRAS    28021910 000028
10231987175000168817800093673    000036306                    000363060000000000000109                     I0136306     28021900000000040003410000017N261218104700000000000102802190000000000000000000000000000000000000000100005634227771BRUNO MACHADO TETE                      RUA SANATORIO                           MADUREIRA   21350191RIO DE JANEIRO RJUNIAO UMB DOS CULTOS AFRO BRAS    28021910 000029
10231987175000168817800093673    000036305                    000363050000000000000109                     I0136305     28021900000000040003410000017N261218104700000000000102802190000000000000000000000000000000000000000100060855916753MARIZE DOS SANTOS LESSA DE VAS          RUA: CABO MILTON COSME DOS SANTOS       BANGU       21725620RIO DE JANERIRORJUNIAO UMB DOS CULTOS AFRO BRAS    28021910 000030
10231987175000168817800093673    000036304                    000363040000000000000109                     I0136304     28021900000000040003410000017N261218104700000000000102802190000000000000000000000000000000000000000100000000000000MARIA DE LOURDES MATTOS DA SIL          RUA ADEMAR                              BELA VISTA  26157180BELFORD ROXO   RJUNIAO UMB DOS CULTOS AFRO BRAS    28021910 000031
10231987175000168817800093673    000036303                    000363030000000000000109                     I0136303     28021900000000040003410000017N261218104700000000000102802190000000000000000000000000000000000000000100048507458734MARCOS DE OLIVEIRA ROSA                 RUA CALDAS NOVAS                        VILA ZULMIRA25540530SAO JOAO DE MERRJUNIAO UMB DOS CULTOS AFRO BRAS    28021910 000032
10231987175000168817800093673    000036302                    000363020000000000000109                     I0136302     28021900000000040003410000017N261218104700000000000102802190000000000000000000000000000000000000000100015323972750PEDRO HENRIQUE CARVALHO DA FON          RUA CADETE POLONIA,                     ENGENHO NOVO20961050RIO DE JANEIRO RJUNIAO UMB DOS CULTOS AFRO BRAS    28021910 000033
10231987175000168817800093673    000036301                    000363010000000000000109                     I0136301     28021900000000040003410000017N261218104700000000000102802190000000000000000000000000000000000000000100066812034704LYDIAMAR NAZARETH BRANDAO DE A          RUA: HELEODORA                          PILARES     20760722RIO DE JANEIRO RJUNIAO UMB DOS CULTOS AFRO BRAS    28021910 000034
10231987175000168817800093673    000036300                    000363000000000000000109                     I0136300     28021900000000040003410000017N261218104700000000000102802190000000000000000000000000000000000000000100054504430720ISABELA BARBOSA LIMA DA SILVA           RUA SOUSA BARROS                        ENGENHO NOVO20961150RIO DE JANEIRO RJUNIAO UMB DOS CULTOS AFRO BRAS    28021910 000035
10231987175000168817800093673    000036299                    000362990000000000000109                     I0136299     28021900000000040003410000017N261218104700000000000102802190000000000000000000000000000000000000000100008013752747GIVANILDO MENDES LAGOA                  RUA DOS CORAIS                          PIRATININGA 24320358NITEROI        RJUNIAO UMB DOS CULTOS AFRO BRAS    28021910 000036
10231987175000168817800093673    000036298                    000362980000000000000109                     I0136298     28021900000000040003410000017N261218104700000000000102802190000000000000000000000000000000000000000100009070035758LILIAN DUARTE COSTA                     RUA DELFIM MOREIRA, 2397                VALE PARAISO25976016TERESOPOLIS    RJUNIAO UMB DOS CULTOS AFRO BRAS    28021910 000037
10231987175000168817800093673    000036297                    000362970000000000000109                     I0136297     28021900000000040003410000017N261218104700000000000102802190000000000000000000000000000000000000000100001071031767NEIDE MARIA VIANA SOUZA                 RUA VINTE E UM,                         SAO CAMPELO 23830000ITAGUAI        RJUNIAO UMB DOS CULTOS AFRO BRAS    28021910 000038
10231987175000168817800093673    000036296                    000362960000000000000109                     I0136296     28021900000000040003410000017N261218104700000000000102802190000000000000000000000000000000000000000100002824875739EVONETE DA CONCEICAO DA SILVA           RUA COIMBRA                             RECANTO DO S28948010SAO PEDRO DA ALRJUNIAO UMB DOS CULTOS AFRO BRAS    28021910 000039
10231987175000168817800093673    000036295                    000362950000000000000109                     I0136295     28021900000000040003410000017N261218104700000000000102802190000000000000000000000000000000000000000100037356178753TEREZA BRAGA DE AZEVEDO                 RUA ANDRE ROCHA                         TAQUARA - RI22730522RIO DE JANEIRO RJUNIAO UMB DOS CULTOS AFRO BRAS    28021910 000040
10231987175000168817800093673    000036294                    000362940000000000000109                     I0136294     28021900000000040003410000017N261218104700000000000102802190000000000000000000000000000000000000000100005199150707RITA LUSIE DE MELLO CASTRO              RUA IARA                                SAO MATEUS  25525410SAO JOAO DE MERRJUNIAO UMB DOS CULTOS AFRO BRAS    28021910 000041
10231987175000168817800093673    000036293                    000362930000000000000109                     I0136293     28021900000000040003410000017N261218104700000000000102802190000000000000000000000000000000000000000100001220001708ANDRE AMERICO DA SILVA                  RUA QUATRO                              ROCINHA     22451340RIO DE JANEIRO RJUNIAO UMB DOS CULTOS AFRO BRAS    28021910 000042
10231987175000168817800093673    000036292                    000362920000000000000109                     I0136292     28021900000000040003410000017N261218104700000000000102802190000000000000000000000000000000000000000100047515090715JOSE CARLOS DA SILVA GENUNCIO           RUA VEREADOR MAURICIO SOUZA             ENGENHOCA   24110539NITEROI        RJUNIAO UMB DOS CULTOS AFRO BRAS    28021910 000043
10231987175000168817800093673    000036291                    000362910000000000000109                     I0136291     28021900000000040003410000017N261218104700000000000102802190000000000000000000000000000000000000000100085127183749CLAUDIA JORGE DA SILVA GAMA             RUA HONORIO                             CACHAMBI    20771421RIO DE JANEIRO RJUNIAO UMB DOS CULTOS AFRO BRAS    28021910 000044
10231987175000168817800093673    000036290                    000362900000000000000109                     I0136290     28021900000000040003410000017N261218104700000000000102802190000000000000000000000000000000000000000100074726005715SOLANGE DA SILVA ARAUJO                 RUA CAMINHO DO JAMBUI                   DILMAS FILHO26116540RIO DE JANEIRO RJUNIAO UMB DOS CULTOS AFRO BRAS    28021910 000045
10231987175000168817800093673    000036289                    000362890000000000000109                     I0136289     28021900000000040003410000017N261218104700000000000102802190000000000000000000000000000000000000000100064321800749MARLENE BALBINO DA SILVA                RUA MANOEL ANTONIO DE ALMEIDA           TRES CRUZ   36700000LEOPOLDINA     MGUNIAO UMB DOS CULTOS AFRO BRAS    28021910 000046
10231987175000168817800093673    000036288                    000362880000000000000109                     I0136288     28021900000000040003410000017N261218104700000000000102802190000000000000000000000000000000000000000100006935690773ELAINE DA COSTA MARTINS                 O MESMO                                 O MESMO     25220407DUQUE DE CAXIASRJUNIAO UMB DOS CULTOS AFRO BRAS    28021910 000047
10231987175000168817800093673    000036287                    000362870000000000000109                     I0136287     28021900000000040003410000017N261218104700000000000102802190000000000000000000000000000000000000000100013540201756RUTE MEDEIROS VIEIRA                    RUA DESSESEIS                           CONJUNTO NOV23565450SANTA CRUZ     RJUNIAO UMB DOS CULTOS AFRO BRAS    28021910 000048
10231987175000168817800093673    000036286                    000362860000000000000109                     I0136286     28021900000000040003410000017N261218104700000000000102802190000000000000000000000000000000000000000100090876857772MARCO AURELIO PEREIRA VASCONCE          RUA DOUTOR MANUEL MARREIROS             FREGUESIA - 21910080RIO DE JANEIRO RJUNIAO UMB DOS CULTOS AFRO BRAS    28021910 000049
10231987175000168817800093673    000036285                    000362850000000000000109                     I0136285     28021900000000040003410000017N261218104700000000000102802190000000000000000000000000000000000000000100037125893791ELIANA DOS SANTOS VITAL                 RUA CAPITAO VIEIRA                      TURIACU     21540330RIO DE JANEIRO RJUNIAO UMB DOS CULTOS AFRO BRAS    28021910 000050
10231987175000168817800093673    000036284                    000362840000000000000109                     I0136284     28021900000000040003410000017N261218104700000000000102802190000000000000000000000000000000000000000100005426043701CLARA DANIELE BROWN FLAUZINO            RUA ZAMBIA                              BANGU       21850510RIO DE JANEIRO RJUNIAO UMB DOS CULTOS AFRO BRAS    28021910 000051
10231987175000168817800093673    000036283                    000362830000000000000109                     I0136283     28021900000000040003410000017N261218104700000000000102802190000000000000000000000000000000000000000100000000000000SILAS SOUZA ALSELMO                     RUA DO CANAVIAL                         PARQUE ANTAR26053040NOVA IGUACU    RJUNIAO UMB DOS CULTOS AFRO BRAS    28021910 000052
10231987175000168817800093673    000036282                    000362820000000000000109                     I0136282     28021900000000040003410000017N261218104700000000000102802190000000000000000000000000000000000000000100086101145700SARITA XAVIER DA SILVA PROENCA          RUA BEIRA RIO                           SAO BENTO   25045026DUQUE DE CAXIASRJUNIAO UMB DOS CULTOS AFRO BRAS    28021910 000053
10231987175000168817800093673    000036281                    000362810000000000000109                     I0136281     28021900000000040003410000017N261218104700000000000102802190000000000000000000000000000000000000000100041402685734ITAMAR DE OLIVEIRA FERREIRA             RUA AGRIPINO DE CAMPOS                  MUTUA       24461320SAO GONCALO    RJUNIAO UMB DOS CULTOS AFRO BRAS    28021910 000054
10231987175000168817800093673    000036280                    000362800000000000000109                     I0136280     28021900000000040003410000017N261218104700000000000102802190000000000000000000000000000000000000000100067160891791ELIZABETH VIEGAS GUALHANO               RUA MARIZ DE BARROS                     PRACA DA BAN20785330RIO DE JANEIRO RJUNIAO UMB DOS CULTOS AFRO BRAS    28021910 000055
10231987175000168817800093673    000036279                    000362790000000000000109                     I0136279     28021900000000040003410000017N261218104700000000000102802190000000000000000000000000000000000000000100059555815704PAULO FERNANDES                         RUA MONTE CARMELO                       BENTO RIBERI24110539RIO DE JANEIRO RJUNIAO UMB DOS CULTOS AFRO BRAS    28021910 000056
10231987175000168817800093673    000036278                    000362780000000000000109                     I0136278     28021900000000040003410000017N261218104700000000000102802190000000000000000000000000000000000000000100003661917100DUCILENE MADEIRA VIEIRA                 ALAMEDA CLAUDINHA                       JARDIM NAZAR25915000MAGE           RJUNIAO UMB DOS CULTOS AFRO BRAS    28021910 000057
10231987175000168817800093673    000036277                    000362770000000000000109                     I0136277     28021900000000040003410000017N261218104700000000000102802190000000000000000000000000000000000000000100060296836168ALEXANDRE MONTEIRO DA ROSA              MONTE CASTELO                           CORONEL VEIG25655500PETROPOLIS     RJUNIAO UMB DOS CULTOS AFRO BRAS    28021910 000058
10231987175000168817800093673    000036276                    000362760000000000000109                     I0136276     28021900000000040003410000017N261218104700000000000102802190000000000000000000000000000000000000000100068754485720LUCIA DA CONCEICAO GREGORIO             RUA PAULO OLIVEIRA DE CARVALHO          VILA SAO LUI26012510NOVA IGUACU    RJUNIAO UMB DOS CULTOS AFRO BRAS    28021910 000059
10231987175000168817800093673    000036275                    000362750000000000000109                     I0136275     28021900000000040003410000017N261218104700000000000102802190000000000000000000000000000000000000000100057370770710MARY MARCOS DE FIGUEIREDO               TRAVESSA LINO ESTEVES, 126 - ENGENHOCA  BARRETO     24110145NITEROI        RJUNIAO UMB DOS CULTOS AFRO BRAS    28021910 000060
10231987175000168817800093673    000036274                    000362740000000000000109                     I0136274     28021900000000040003410000017N261218104700000000000102802190000000000000000000000000000000000000000100002167919794ANDERSON CLEI BRANDAO TEIXEIRA          ESTRADA DO CANTAGALO                    CAMPO GRANDE23036440RIO DE JANEIRO RJUNIAO UMB DOS CULTOS AFRO BRAS    28021910 000061
10231987175000168817800093673    000036273                    000362730000000000000109                     I0136273     28021900000000040003410000017N261218104700000000000102802190000000000000000000000000000000000000000100009527172713FABIANA DA SILVA FERNANDES              RUA ITAPACI                             COSMOS      23060440RIO DE JANEIRO RJUNIAO UMB DOS CULTOS AFRO BRAS    28021910 000062
10231987175000168817800093673    000036272                    000362720000000000000109                     I0136272     28021900000000040003410000017N261218104700000000000102802190000000000000000000000000000000000000000100000000000932WILMA DE CASTRO GOUVEA                  RUA DAMASIO BATISTA                     OLINDA      26515126NILOPOLIS      RJUNIAO UMB DOS CULTOS AFRO BRAS    28021910 000063
10231987175000168817800093673    000036271                    000362710000000000000109                     I0136271     28021900000000040003410000017N261218104700000000000102802190000000000000000000000000000000000000000100001680132741SANDRA NOGUEIRA DE BRITO                RUA BARATA RIBEIRO                      COPACABANA  22051000RIO DE JANEIRO RJUNIAO UMB DOS CULTOS AFRO BRAS    28021910 000064
10231987175000168817800093673    000036270                    000362700000000000000109                     I0136270     28021900000000040003410000017N261218104700000000000102802190000000000000000000000000000000000000000100071406085715VALDENIR CORNELIO                       RUA DAS VIOLETAS                        SEPETIBA    23530000RIO DE JANEIRO RJUNIAO UMB DOS CULTOS AFRO BRAS    28021910 000065
10231987175000168817800093673    000036269                    000362690000000000000109                     I0136269     28021900000000040003410000017N261218104700000000000102802190000000000000000000000000000000000000000100008083468738WAGNER DE ANDRADE SACRAMENTO            RUA SAGRADO CORACAO DE JESUS            NOVA CIDADE 26535140NILOPOLIS      RJUNIAO UMB DOS CULTOS AFRO BRAS    28021910 000066
10231987175000168817800093673    000036268                    000362680000000000000109                     I0136268     28021900000000040003410000017N261218104700000000000102802190000000000000000000000000000000000000000100000000000000IRENE SIMONE DE SOUZA NOGUEIRA          RUA NOVE DE JUNHO                       IPIRANGA    26293354NOVA IGUACU    RJUNIAO UMB DOS CULTOS AFRO BRAS    28021910 000067
10231987175000168817800093673    000036267                    000362670000000000000109                     I0136267     28021900000000040003410000017N261218104700000000000102802190000000000000000000000000000000000000000100070614628768CREUZA GOMES DA ROCHA                   RUA DA GLORIA                           MONTE ALTO  28930000RIO DE JANEIRO RJUNIAO UMB DOS CULTOS AFRO BRAS    28021910 000068
10231987175000168817800093673    000036266                    000362660000000000000109                     I0136266     28021900000000040003410000017N261218104700000000000102802190000000000000000000000000000000000000000100084161973772MARCOS ANTONIO VIEIRA BAPTISTA          RUA CARLOS GONCALVES PENNA              ENGENHO DA R20761330RIO DE JANEIRO RJUNIAO UMB DOS CULTOS AFRO BRAS    28021910 000069
10231987175000168817800093673    000036265                    000362650000000000000109                     I0136265     28021900000000040003410000017N261218104700000000000102802190000000000000000000000000000000000000000100002175979717CLAUDIA PILAR PERES SANTOS DE           RUA JOAO MACIEIRA                       MADUREIRA   21310090RIO DE JANEIRO RJUNIAO UMB DOS CULTOS AFRO BRAS    28021910 000070
10231987175000168817800093673    000036264                    000362640000000000000109                     I0136264     28021900000000040003410000017N261218104700000000000102802190000000000000000000000000000000000000000100002190466709CARLOS ROBERTO RIBEIRO DA CONC          RUA NOSSA SENHORA DAS GRACAS            MOSELA      25675111PETROPOLIS     RJUNIAO UMB DOS CULTOS AFRO BRAS    28021910 000071
10231987175000168817800093673    000036263                    000362630000000000000109                     I0136263     28021900000000040003410000017N261218104700000000000102802190000000000000000000000000000000000000000100025891693704EDSON DA SILVA ALVES                    RUA: JOAO MACIEIRA                      MADUREIRA   21310090RIO DE JANEIRO RJUNIAO UMB DOS CULTOS AFRO BRAS    28021910 000072
10231987175000168817800093673    000036261                    000362610000000000000109                     I0136261     28021900000000040003410000017N261218104700000000000102802190000000000000000000000000000000000000000100000000000000SAMUEL MUNIZ PORTELA                    LOTEAMENTO CAMPO LINDO                  CAMPO LINDO 21745380RIO DE JANEIRO RJUNIAO UMB DOS CULTOS AFRO BRAS    28021910 000073
10231987175000168817800093673    000036260                    000362600000000000000109                     I0136260     28021900000000040003410000017N261218104700000000000102802190000000000000000000000000000000000000000100000000000928THIAGO BARBOSA DA SILVA                 RUA PEDRO DOMINGUES                     ENCANTADO   20756080RIO DE JANEIRO RJUNIAO UMB DOS CULTOS AFRO BRAS    28021910 000074
10231987175000168817800093673    000036259                    000362590000000000000109                     I0136259     28021900000000040003410000017N261218104700000000000102802190000000000000000000000000000000000000000100043194869787JORGE PINHEIRO DE ALMEIDA               RUA CERQUEIRA CESAR                     MADUREIRA   21351070RIO DE JANEIRO RJUNIAO UMB DOS CULTOS AFRO BRAS    28021910 000075
10231987175000168817800093673    000036258                    000362580000000000000109                     I0136258     28021900000000040003410000017N261218104700000000000102802190000000000000000000000000000000000000000100033712417772IRANIR RIBEIRO DE CASTRO                RUA NOVE                                CAMPO GRANDE23067060RIO DE JANEIRO RJUNIAO UMB DOS CULTOS AFRO BRAS    28021910 000076
10231987175000168817800093673    000036257                    000362570000000000000109                     I0136257     28021900000000040003410000017N261218104700000000000102802190000000000000000000000000000000000000000100000907631738IDA ANGELICA PEREIRA CALDAS             RUA SILVEIRA LOBO                       CACHAMBI    20780310RIO DE JANEIRO RJUNIAO UMB DOS CULTOS AFRO BRAS    28021910 000077
10231987175000168817800093673    000036256                    000362560000000000000109                     I0136256     28021900000000040003410000017N261218104700000000000102802190000000000000000000000000000000000000000100061912131749LACYR DE ALVARENGA RAMOS                RUA NOSSA SENHORA DAS GRACAS            CHARITAS    24370630NITEROI        RJUNIAO UMB DOS CULTOS AFRO BRAS    28021910 000078
10231987175000168817800093673    000036255                    000362550000000000000109                     I0136255     28021900000000040003410000017N261218104700000000000102802190000000000000000000000000000000000000000100074789600734SOLANGE MARTINS                         RUA ITAJIBA                             COSMOS      23060450RIO DE JANEIRO RJUNIAO UMB DOS CULTOS AFRO BRAS    28021910 000079
10231987175000168817800093673    000036253                    000362530000000000000109                     I0136253     28021900000000040003410000017N261218104700000000000102802190000000000000000000000000000000000000000100008331240723MONIQUE SUZANO ASSUNCAO DE OLI          RUA: DIVINOPOLIS                        BENTO RIBEIR21550280RIO DE JANEIRO RJUNIAO UMB DOS CULTOS AFRO BRAS    28021910 000080
10231987175000168817800093673    000036252                    000362520000000000000109                     I0136252     28021900000000040003410000017N261218104700000000000102802190000000000000000000000000000000000000000100086506439734DULCILENE EDUARDO                       RUA DONA HILDA                          PIABETA     25931686MAGE           RJUNIAO UMB DOS CULTOS AFRO BRAS    28021910 000081
10231987175000168817800093673    000036250                    000362500000000000000109                     I0136250     28021900000000040003410000017N261218104700000000000102802190000000000000000000000000000000000000000100075078392734MARCIA HELENA DE AZEVEDO MUNIZ          RUA OSMUNDO PIMENTEL                    BRAZ DE PINA21250070RIO DE JANEIRO RJUNIAO UMB DOS CULTOS AFRO BRAS    28021910 000082
10231987175000168817800093673    000036249                    000362490000000000000109                     I0136249     28021900000000040003410000017N261218104700000000000102802190000000000000000000000000000000000000000100002418033732EDSON LUIZ ALVES DE CARVALHO            AVENIDA PORTO SEGURO                    LAGOMAR     27966870MACAE          RJUNIAO UMB DOS CULTOS AFRO BRAS    28021910 000083
10231987175000168817800093673    000036248                    000362480000000000000109                     I0136248     28021900000000040003410000017N261218104700000000000102802190000000000000000000000000000000000000000100065196171720MARIA DAS GRACAS OLIVEIRA               RUA FRANCISCO MANOEL                    PONTO CHIQUE26032835NOVA IGUACU    RJUNIAO UMB DOS CULTOS AFRO BRAS    28021910 000084
10231987175000168817800093673    000036247                    000362470000000000000109                     I0136247     28021900000000040003410000017N261218104700000000000102802190000000000000000000000000000000000000000100000000000000MEYRE CHAVES SOARES                     AVENIDA BEIRA MAR                       SAO FRANCISC25900000RIO DE JANEIRO RJUNIAO UMB DOS CULTOS AFRO BRAS    28021910 000085
10231987175000168817800093673    000036246                    000362460000000000000109                     I0136246     28021900000000040003410000017N261218104700000000000102802190000000000000000000000000000000000000000100059395656700NADIA MARIZA CORREA TRINDADE            RUA JORGE SILVA                         PARQUE SAO J23890000SEROPEDICA     RJUNIAO UMB DOS CULTOS AFRO BRAS    28021910 000086
10231987175000168817800093673    000036245                    000362450000000000000109                     I0136245     28021900000000040003410000017N261218104700000000000102802190000000000000000000000000000000000000000100026958538749ANTONIO LUCIO ALVES                     RUA LEMOS DE BRITO                      QUINTINO    21311380RIO DE JANEIRO RJUNIAO UMB DOS CULTOS AFRO BRAS    28021910 000087
10231987175000168817800093673    000036244                    000362440000000000000109                     I0136244     28021900000000040003410000017N261218104700000000000102802190000000000000000000000000000000000000000100089080475734MARCIA MARIA CORREIA DA SILVA           RUA ALVARES CABRAL                      CACHAMBI    20780320RIO DE JANEIRO RJUNIAO UMB DOS CULTOS AFRO BRAS    28021910 000088
10231987175000168817800093673    000036243                    000362430000000000000109                     I0136243     28021900000000040003410000017N261218104700000000000102802190000000000000000000000000000000000000000100008544039731FABIO DA SILVA CONDE                    RUA: FERREIRA DE MENEZES                ENGENHO DA R20761250RIO DE JANEIRO RJUNIAO UMB DOS CULTOS AFRO BRAS    28021910 000089
10231987175000168817800093673    000036242                    000362420000000000000109                     I0136242     28021900000000040003410000017N261218104700000000000102802190000000000000000000000000000000000000000100058098445704ARLETE DA SILVA BARBOSA FRANCO          RUA DOUTOR MUNIZ                        ROCHA SOBRIN26130020BELFORD ROXO   RJUNIAO UMB DOS CULTOS AFRO BRAS    28021910 000090
10231987175000168817800093673    000036241                    000362410000000000000109                     I0136241     28021900000000040003410000017N261218104700000000000102802190000000000000000000000000000000000000000100057316600772ESTELA FERREIRA                         AVENIDA BORIS                           MUTONDO     24422730SAO GONCALO    RJUNIAO UMB DOS CULTOS AFRO BRAS    28021910 000091
10231987175000168817800093673    000036240                    000362400000000000000109                     I0136240     28021900000000040003410000017N261218104700000000000102802190000000000000000000000000000000000000000100063579081772CRISTINA ALBUQUERQUE DE ARAUJO          RUA CORONEL CABRITA                     SAO CRISTOVA20920400RIO DE JANEIRO RJUNIAO UMB DOS CULTOS AFRO BRAS    28021910 000092
10231987175000168817800093673    000036239                    000362390000000000000109                     I0136239     28021900000000040003410000017N261218104700000000000102802190000000000000000000000000000000000000000100094635650782ALFREDO DOMINGOS HAFNER                 RUA DONA EMILIA                         PIABETA     25931606MAGE           RJUNIAO UMB DOS CULTOS AFRO BRAS    28021910 000093
10231987175000168817800093673    000036238                    000362380000000000000109                     I0136238     28021900000000040003410000017N261218104700000000000102802190000000000000000000000000000000000000000100005721435755ALEX ARAUJO BRAGA                       RUA MARTE                               MESQUITA    26240290NOVA IGUACU    RJUNIAO UMB DOS CULTOS AFRO BRAS    28021910 000094
10231987175000168817800093673    000036237                    000362370000000000000109                     I0136237     28021900000000040003410000017N261218104700000000000102802190000000000000000000000000000000000000000100050942490763ANTONIO PAULO TRABACHINI                RUA DO CATETE                           CATETE      22271100RIO DE JANEIRO RJUNIAO UMB DOS CULTOS AFRO BRAS    28021910 000095
10231987175000168817800093673    000036236                    000362360000000000000109                     I0136236     28021900000000040003410000017N261218104700000000000102802190000000000000000000000000000000000000000100001145934773ELENICE DE SOUZA SILVA ARRUDA           RUA PROJETADA 5                         SANTA CRUZ D25260059RIO DE JANEIRO RJUNIAO UMB DOS CULTOS AFRO BRAS    28021910 000096
10231987175000168817800093673    000036235                    000362350000000000000109                     I0136235     28021900000000040003410000017N261218104700000000000102802190000000000000000000000000000000000000000100021207275700GEORGETE MARIA SILVA DE JESUS           RUA BECO DO MIJANCAH                    PRAIA DA BRI23028696PEDRA DE GUARATRJUNIAO UMB DOS CULTOS AFRO BRAS    28021910 000097
10231987175000168817800093673    000036234                    000362340000000000000109                     I0136234     28021900000000040003410000017N261218104700000000000102802190000000000000000000000000000000000000000100093719744787SERGIO PEREIRA FRAGA                    RUA JURUBAIBA                           HONORIO GURG21555170RIO DE JANEIRO RJUNIAO UMB DOS CULTOS AFRO BRAS    28021910 000098
10231987175000168817800093673    000036233                    000362330000000000000109                     I0136233     28021900000000040003410000017N261218104700000000000102802190000000000000000000000000000000000000000100001256782742VANDA BARBOSA BASTOS                    RUA CERES                               BANGU       21862070RIO DE JANEIRO RJUNIAO UMB DOS CULTOS AFRO BRAS    28021910 000099
10231987175000168817800093673    000036232                    000362320000000000000109                     I0136232     28021900000000040003410000017N261218104700000000000102802190000000000000000000000000000000000000000100011105998703FABRICIO SILVEIRA DE SOUZA              RUA JOAO EVANGELISTA DE CARVALHO        CENTRO      26520500NILOPOLIS      RJUNIAO UMB DOS CULTOS AFRO BRAS    28021910 000100
10231987175000168817800093673    000036231                    000362310000000000000109                     I0136231     28021900000000025003410000017N261218104700000000000102802190000000000000000000000000000000000000000100012470639840RICARDO DE OLIVEIRA                     RUA FELINTO MARQUES CERQUEIRA           CAPUCHINHOS 44076040FEIRA DE SANTANBAUNIAO UMB DOS CULTOS AFRO BRAS    28021910 000101
10231987175000168817800093673    000036230                    000362300000000000000109                     I0136230     28021900000000040003410000017N261218104700000000000102802190000000000000000000000000000000000000000100005189662756MARILZA FRANCA DA CRUZ                  RUA QUITO                               PENHA       21020330RIO DE JANEIRO RJUNIAO UMB DOS CULTOS AFRO BRAS    28021910 000102
10231987175000168817800093673    000036229                    000362290000000000000109                     I0136229     28021900000000040003410000017N261218104700000000000102802190000000000000000000000000000000000000000100035838493704CELMO JOSE DE SOUZA                     RUA DA CONCEICAO                        CENTRO      24020087NITEROI        RJUNIAO UMB DOS CULTOS AFRO BRAS    28021910 000103
10231987175000168817800093673    000036228                    000362280000000000000109                     I0136228     28021900000000040003410000017N261218104700000000000102802190000000000000000000000000000000000000000100067267258753RITA DE CASSIA DIACOVO PELLITO          RUA ANDRE AZEVEDO                       OLARIA      21021480RIO DE JANEIRO RJUNIAO UMB DOS CULTOS AFRO BRAS    28021910 000104
10231987175000168817800093673    000036227                    000362270000000000000109                     I0136227     28021900000000040003410000017N261218104700000000000102802190000000000000000000000000000000000000000100008501649740ADILSON PEREIRA DIAS                    RUA ALBERTO MARTIRES ASTH               SAO GERALDO 28630485NOVA FRIBURGO  RJUNIAO UMB DOS CULTOS AFRO BRAS    28021910 000105
10231987175000168817800093673    000036226                    000362260000000000000109                     I0136226     28021900000000040003410000017N261218104700000000000102802190000000000000000000000000000000000000000100099225158734MARIA MAGALI DE OLIVEIRA SOUZA          RUA PIRACAIA                            MARECHAL HER20720012RIO DE JANEIRO RJUNIAO UMB DOS CULTOS AFRO BRAS    28021910 000106
10231987175000168817800093673    000036225                    000362250000000000000109                     I0136225     28021900000000040003410000017N261218104700000000000102802190000000000000000000000000000000000000000100093635540749REGINALDO ALVES DA SILVA                ESTRADA DA SERRA VELHA DA ESTRELA       MEIO DA SERR00000000PETROPOLIS     RJUNIAO UMB DOS CULTOS AFRO BRAS    28021910 000107
10231987175000168817800093673    000036224                    000362240000000000000109                     I0136224     28021900000000040003410000017N261218104700000000000102802190000000000000000000000000000000000000000100000000000907AGUINALDO DE PAULA BORGES               RUA GEREZ                               LAGOINHA    26296228RIO DE JANEIRO RJUNIAO UMB DOS CULTOS AFRO BRAS    28021910 000108
10231987175000168817800093673    000036223                    000362230000000000000109                     I0136223     28021900000000040003410000017N261218104700000000000102802190000000000000000000000000000000000000000100000000000907JOSE WAGNER DOS SANTOS                  RUA ZILDA SILVARES                      VISTA ALEGRE24722200SAO GONCALO    RJUNIAO UMB DOS CULTOS AFRO BRAS    28021910 000109
10231987175000168817800093673    000036222                    000362220000000000000109                     I0136222     28021900000000040003410000017N261218104700000000000102802190000000000000000000000000000000000000000100091892627787JUSSARA MELLO DOS SANTOS OLIVE          RUA ANANIAS ANTERO DA COSTA             EDEN        25545090RIO DE JANEIRO RJUNIAO UMB DOS CULTOS AFRO BRAS    28021910 000110
10231987175000168817800093673    000036221                    000362210000000000000109                     I0136221     28021900000000040003410000017N261218104700000000000102802190000000000000000000000000000000000000000100088341534720RAIMUNDA BERNADINA DE OLIVEIRA          RUA 4                                   ROCINHA - GA22451530RIO DE JANEIRO RJUNIAO UMB DOS CULTOS AFRO BRAS    28021910 000111
10231987175000168817800093673    000036220                    000362200000000000000109                     I0136220     28021900000000040003410000017N261218104700000000000102802190000000000000000000000000000000000000000100015197047712MARCELLE SOARES ZIMBRAO                 RUA NOSSA SENHORA DAS GRACAS            MOSELA      25675111PETROPOLIS     RJUNIAO UMB DOS CULTOS AFRO BRAS    28021910 000112
10231987175000168817800093673    000036219                    000362190000000000000109                     I0136219     28021900000000040003410000017N261218104700000000000102802190000000000000000000000000000000000000000100085725730700MARIA LUCIA DA SILVA BORGES             RUA CACIPORE                            JARDIM OLAVO25036040DUQUE DE CAXIASRJUNIAO UMB DOS CULTOS AFRO BRAS    28021910 000113
10231987175000168817800093673    000036218                    000362180000000000000109                     I0136218     28021900000000040003410000017N261218104700000000000102802190000000000000000000000000000000000000000100002248004770ROSANE ALVES DE AZEVEDO                 AVENIDA ATLANTICA                       LAGOMAR     27910970MACAE          RJUNIAO UMB DOS CULTOS AFRO BRAS    28021910 000114
10231987175000168817800093673    000036217                    000362170000000000000109                     I0136217     28021900000000040003410000017N261218104700000000000102802190000000000000000000000000000000000000000100011778537790MARIVONE ANTONIA DOS SANTOS             RUA TOMAS FONSECA                       COMENDADOR S26031512NOVA IGUACU    RJUNIAO UMB DOS CULTOS AFRO BRAS    28021910 000115
10231987175000168817800093673    000036216                    000362160000000000000109                     I0136216     28021900000000040003410000017N261218104700000000000102802190000000000000000000000000000000000000000100000238705757ANGELA DA MOTTA NUNES SILVA             RUA RIACHO DOCE                         OSVALDO CRUZ21340340RIO DE JANEIRO RJUNIAO UMB DOS CULTOS AFRO BRAS    28021910 000116
10231987175000168817800093673    000036215                    000362150000000000000109                     I0136215     28021900000000040003410000017N261218104700000000000102802190000000000000000000000000000000000000000100045910383787PAULO ROBERTO DE OLIVEIRA DRUB          ESTRADA CAMBOATA                        GUADALUPE   21660005RIO DE JANEIRO RJUNIAO UMB DOS CULTOS AFRO BRAS    28021910 000117
10231987175000168817800093673    000036214                    000362140000000000000109                     I0136214     28021900000000040003410000017N261218104700000000000102802190000000000000000000000000000000000000000100009295304705GEORGE ALBERTO GONZAGA DOS SAN          RUA: GUARABU                            INHAUMA     20761060RIO DE JANEIRO RJUNIAO UMB DOS CULTOS AFRO BRAS    28021910 000118
10231987175000168817800093673    000036213                    000362130000000000000109                     I0136213     28021900000000040003410000017N261218104700000000000102802190000000000000000000000000000000000000000100085901512715ZENILDA MACHADO VICENTE LEITE           RUA VILLAGE IMPERIAL                    PARQUE MAMBU23954270ANGRA DOS REIS RJUNIAO UMB DOS CULTOS AFRO BRAS    28021910 000119
10231987175000168817800093673    000036212                    000362120000000000000109                     I0136212     28021900000000040003410000017N261218104700000000000102802190000000000000000000000000000000000000000100003617355706INAIA DE MACEDO SANTOS                  TRAVESSA PARAIBA DO SUL                 NILOPOLIS   26525470RIO DE JANEIRO RJUNIAO UMB DOS CULTOS AFRO BRAS    28021910 000120
10231987175000168817800093673    000036211                    000362110000000000000109                     I0136211     28021900000000040003410000017N261218104700000000000102802190000000000000000000000000000000000000000100054371333753MARIZETE ALVES DA SILVA                 RUA DELHIR                              ANCHIETA    00000000RIO DE JANEIRO RJUNIAO UMB DOS CULTOS AFRO BRAS    28021910 000121
10231987175000168817800093673    000036210                    000362100000000000000109                     I0136210     28021900000000040003410000017N261218104700000000000102802190000000000000000000000000000000000000000100063607379734FATIMA CONCEICAO GONCALVES DA           RUA: AMANDIU                            IRAJA       21371440RIO DE JANEIRO RJUNIAO UMB DOS CULTOS AFRO BRAS    28021910 000122
10231987175000168817800093673    000036209                    000362090000000000000109                     I0136209     28021900000000040003410000017N261218104700000000000102802190000000000000000000000000000000000000000100085194557787CELIA MARIA FERNANDES DE CASTR          RUA IRAPIRANGA                          ROCHA MIRAND21540710RIO DE JANEIRO RJUNIAO UMB DOS CULTOS AFRO BRAS    28021910 000123
10231987175000168817800093673    000036208                    000362080000000000000109                     I0136208     28021900000000040003410000017N261218104700000000000102802190000000000000000000000000000000000000000100010126360707NONILHA DA CONCEICAO FERREIRA           RUA MANOEL DE JESUS PEREIRA             PIABETA     25931470MAGE           RJUNIAO UMB DOS CULTOS AFRO BRAS    28021910 000124
10231987175000168817800093673    000036207                    000362070000000000000109                     I0136207     28021900000000040003410000017N261218104700000000000102802190000000000000000000000000000000000000000100072520388749REINALDO SILVA DOS SANTOS               RUA: FRANCISCA DE OLIVEIRA              ENGENHEIRO B25520170SAO JOAO DE MERRJUNIAO UMB DOS CULTOS AFRO BRAS    28021910 000125
10231987175000168817800093673    000036206                    000362060000000000000109                     I0136206     28021900000000040003410000017N261218104700000000000102802190000000000000000000000000000000000000000100002480281701CESAR AUGUSTO DA SILVA MARCIAL          RUA, TRES                               MANUELLE    00000000MARICA         RJUNIAO UMB DOS CULTOS AFRO BRAS    28021910 000126
10231987175000168817800093673    000036205                    000362050000000000000109                     I0136205     28021900000000040003410000017N261218104700000000000102802190000000000000000000000000000000000000000100080236499734REGINALDO VIEIRA CAPTIVO                RUA DOUTOR NUNES                        OLARIA      21021370RIO DE JANEIRO RJUNIAO UMB DOS CULTOS AFRO BRAS    28021910 000127
10231987175000168817800093673    000036204                    000362040000000000000109                     I0136204     28021900000000040003410000017N261218104700000000000102802190000000000000000000000000000000000000000100026376253768MARIA DE LOURDES DA SILVA FERN          RUA ESTUDANTE PAULINO DURVAL            PIABETA     25931882MAGE           RJUNIAO UMB DOS CULTOS AFRO BRAS    28021910 000128
10231987175000168817800093673    000036203                    000362030000000000000109                     I0136203     28021900000000040003410000017N261218104700000000000102802190000000000000000000000000000000000000000100055365795768YEDA BARROS DE AZEVEDO                  RUA SESSENTA E NOVE                     JARDIM ATLAN24910000MARICA         RJUNIAO UMB DOS CULTOS AFRO BRAS    28021910 000129
10231987175000168817800093673    000036202                    000362020000000000000109                     I0136202     28021900000000040003410000017N261218104700000000000102802190000000000000000000000000000000000000000100001246557770JOAO PEREIRA DA SILVA FILHO             RUA OLIVEIRA SILVA                      SAO BENTO   25070060DUQUE DE CAXIASRJUNIAO UMB DOS CULTOS AFRO BRAS    28021910 000130
10231987175000168817800093673    000036201                    000362010000000000000109                     I0136201     28021900000000040003410000017N261218104700000000000102802190000000000000000000000000000000000000000100068567855772ZAILDA MASCARENHAS DOS SANTOS           RUA FRANCISCO ANTONIO NASCIMENTO        MIGUEL COUTO26070467BELFORD ROXO   RJUNIAO UMB DOS CULTOS AFRO BRAS    28021910 000131
10231987175000168817800093673    000036200                    000362000000000000000109                     I0136200     28021900000000040003410000017N261218104700000000000102802190000000000000000000000000000000000000000100000000000000GILMAR GAMMARO CARVALHO                 RUA GENERAL SEARA                       CAROLINA    25060010DUQUE DE CAXIASRJUNIAO UMB DOS CULTOS AFRO BRAS    28021910 000132
10231987175000168817800093673    000036199                    000361990000000000000109                     I0136199     28021900000000040003410000017N261218104700000000000102802190000000000000000000000000000000000000000100065065325749MARIA LUISA CHAGAS SILVA                RUA BOGARI                              JARDIM XAVAN26160190BELFORD ROXO   RJUNIAO UMB DOS CULTOS AFRO BRAS    28021910 000133
10231987175000168817800093673    000036198                    000361980000000000000109                     I0136198     28021900000000040003410000017N261218104700000000000102802190000000000000000000000000000000000000000100096017376772EDUARDO ARRUDA DE ABREU                 RUA FRANCISCA DANTAS                    CENTRO      25525030SAO JOAO DE MERRJUNIAO UMB DOS CULTOS AFRO BRAS    28021910 000134
10231987175000168817800093673    000036197                    000361970000000000000109                     I0136197     28021900000000040003410000017N261218104700000000000102802190000000000000000000000000000000000000000100047707569768BENEDITA LEONIDIA DA COSTA              RUA: NOSSA SENHORA DA GLORIA            VILA MARIA H25251530DUQUE DE CAXIASRJUNIAO UMB DOS CULTOS AFRO BRAS    28021910 000135
10231987175000168817800093673    000036196                    000361960000000000000109                     I0136196     28021900000000040003410000017N261218104700000000000102802190000000000000000000000000000000000000000100005383774700VILMA MACEDO COIMBRA DOS SANTO          RUA TOQUIO                              AGOSTINHO PO25545211SAO JOAO DE MERRJUNIAO UMB DOS CULTOS AFRO BRAS    28021910 000136
10231987175000168817800093673    000036195                    000361950000000000000109                     I0136195     28021900000000040003410000017N261218104700000000000102802190000000000000000000000000000000000000000100006957427790ANDREIA CARVALHO DOS SANTOS             RUA: DOUTOR LEAL                        ENGENHO DE D20730030RIO DE JANEIRO RJUNIAO UMB DOS CULTOS AFRO BRAS    28021910 000137
10231987175000168817800093673    000036194                    000361940000000000000109                     I0136194     28021900000000040003410000017N261218104700000000000102802190000000000000000000000000000000000000000100009431078732LUCIA OLIVEIRA BONIFACIO                RUA NINA RIBEIRO                        PAVUNA      21520290RIO DE JANEIRO RJUNIAO UMB DOS CULTOS AFRO BRAS    28021910 000138
10231987175000168817800093673    000036193                    000361930000000000000109                     I0136193     28021900000000040003410000017N261218104700000000000102802190000000000000000000000000000000000000000100093473095753ALEXANDER NUNES PICANCO                 RUA REGISTRO                            SENADOR CAMA21832270RIO DE JANEIRO RJUNIAO UMB DOS CULTOS AFRO BRAS    28021910 000139
10231987175000168817800093673    000036192                    000361920000000000000109                     I0136192     28021900000000040003410000017N261218104700000000000102802190000000000000000000000000000000000000000100009507261761RODRIGO FELIX DA SILVA                  RUA LUZERNA                             JARDIM NOSSA23097720RIO DE JANEIRO RJUNIAO UMB DOS CULTOS AFRO BRAS    28021910 000140
10231987175000168817800093673    000036191                    000361910000000000000109                     I0136191     28021900000000040003410000017N261218104700000000000102802190000000000000000000000000000000000000000100000421859717ANDREIA DANGELA DE ANDRADE LIM          RUA BORGES MONTEIRO                     HIGIENOPOLIS21051460RIO DE JANEIRO RJUNIAO UMB DOS CULTOS AFRO BRAS    28021910 000141
10231987175000168817800093673    000036190                    000361900000000000000109                     I0136190     28021900000000040003410000017N261218104700000000000102802190000000000000000000000000000000000000000100002861492732JUCARA DOS SANTOS NUNES                 RUA CORONEL SOARES                      IRAJA       21540501RIO DE JANEIRO RJUNIAO UMB DOS CULTOS AFRO BRAS    28021910 000142
10231987175000168817800093673    000036189                    000361890000000000000109                     I0136189     28021900000000040003410000017N261218104700000000000102802190000000000000000000000000000000000000000100003535090784SOLANGE PEREIRA DA SILVA                RUA MANUEL MIRANDA                      ENGENHO NOVO20950300RIO DE JANEIRO RJUNIAO UMB DOS CULTOS AFRO BRAS    28021910 000143
10231987175000168817800093673    000036188                    000361880000000000000109                     I0136188     28021900000000040003410000017N261218104700000000000102802190000000000000000000000000000000000000000100036352624715DAYSE LUZIA DE FREITA BRITTO            RUA DOIS  -                             CHACARAS DE 24900000INOA - MARICA  RJUNIAO UMB DOS CULTOS AFRO BRAS    28021910 000144
10231987175000168817800093673    000036187                    000361870000000000000109                     I0136187     28021900000000040003410000017N261218104700000000000102802190000000000000000000000000000000000000000100038719444753JOAQUIM ROBERTO TRINDADE MONTE          RUA TAQUARI                             BRAS DE PINA21215540RIO DE JANEIRO RJUNIAO UMB DOS CULTOS AFRO BRAS    28021910 000145
10231987175000168817800093673    000036186                    000361860000000000000109                     I0136186     28021900000000040003410000017N261218104700000000000102802190000000000000000000000000000000000000000100011193274745WELINGTON PEDRO DOS SANTOS GOM          RUA ARAUJO ROZO                         ANCHIETA    21635100RIO DE JANEIRO RJUNIAO UMB DOS CULTOS AFRO BRAS    28021910 000146
10231987175000168817800093673    000036185                    000361850000000000000109                     I0136185     28021900000000040003410000017N261218104700000000000102802190000000000000000000000000000000000000000100099025078753EVA DE OLIVEIRA LOPES                   ESTRADA SANTO ANTONIO                   ENGENHEIRO P26455280JAPERI         RJUNIAO UMB DOS CULTOS AFRO BRAS    28021910 000147
10231987175000168817800093673    000036184                    000361840000000000000109                     I0136184     28021900000000040003410000017N261218104700000000000102802190000000000000000000000000000000000000000100088526216791SOLANGE DE MEDEIROS BASTOS DOS          RUA IPOJUCA                             PENHA       21070280RIO DE JANEIRO RJUNIAO UMB DOS CULTOS AFRO BRAS    28021910 000148
10231987175000168817800093673    000036183                    000361830000000000000109                     I0136183     28021900000000040003410000017N261218104700000000000102802190000000000000000000000000000000000000000100005333959765CRISTIANE DA CONCEICAO PACHECO          RUA JOSE SEABRA, 6                      PILAR       25233001DUQUE DE CAXIASRJUNIAO UMB DOS CULTOS AFRO BRAS    28021910 000149
10231987175000168817800093673    000036182                    000361820000000000000109                     I0136182     28021900000000040003410000017N261218104700000000000102802190000000000000000000000000000000000000000100067053424715HELENA DE FATIMA MENDES MARQUE          RUA IRANI                               PENHA       21020200RIO DE JANEIRO RJUNIAO UMB DOS CULTOS AFRO BRAS    28021910 000150
10231987175000168817800093673    000036181                    000361810000000000000109                     I0136181     28021900000000040003410000017N261218104700000000000102802190000000000000000000000000000000000000000100000499306724ANA CLAUDIA DE SOUZA RODRIGUES          RUA VALTER SEDER                        VISTA ALEGRE21250490RIO DE JANEIRO RJUNIAO UMB DOS CULTOS AFRO BRAS    28021910 000151
10231987175000168817800093673    000036180                    000361800000000000000109                     I0136180     28021900000000040003410000017N261218104700000000000102802190000000000000000000000000000000000000000100002181028796EMERSON DIAS DA COSTA                   RUA PARA                                VALE DAS MAN26175370BELFORD ROXO   RJUNIAO UMB DOS CULTOS AFRO BRAS    28021910 000152
10231987175000168817800093673    000036179                    000361790000000000000109                     I0136179     28021900000000040003410000017N261218104700000000000102802190000000000000000000000000000000000000000100008016237746RAFAEL GRACA PEREIRA                    ESTRADA DA COVANCA                      TANQUE - JAC22735020RIO DE JANEIRO RJUNIAO UMB DOS CULTOS AFRO BRAS    28021910 000153
10231987175000168817800093673    000036178                    000361780000000000000109                     I0136178     28021900000000040003410000017N261218104700000000000102802190000000000000000000000000000000000000000100089826930768MARIA DAS DORES SILVA                   RUA JORDAO                              TANQUE      22725549RIO DE JANEIRO RJUNIAO UMB DOS CULTOS AFRO BRAS    28021910 000154
10231987175000168817800093673    000036177                    000361770000000000000109                     I0136177     28021900000000040003410000017N261218104700000000000102802190000000000000000000000000000000000000000100077406648715MARIZEL NUNES MATHION                   RUA MERCEDES COELHO                     COQUEIRAL - 23525100RIO DE JANEIRO RJUNIAO UMB DOS CULTOS AFRO BRAS    28021910 000155
10231987175000168817800093673    000036176                    000361760000000000000109                     I0136176     28021900000000040003410000017N261218104700000000000102802190000000000000000000000000000000000000000100063250071749JORGE LUIS FERREIRA                     RUA DIAMANTINA                          JARDIM LEAL 25035810DUQUE DE CAXIASRJUNIAO UMB DOS CULTOS AFRO BRAS    28021910 000156
10231987175000168817800093673    000036175                    000361750000000000000109                     I0136175     28021900000000040003410000017N261218104700000000000102802190000000000000000000000000000000000000000100008861162797MARCIO ARAUJO DE MELO SOUZA             RUA GERALDO LOURENCO                    JARDIM ROMA 26279325NOVA IGUACU    RJUNIAO UMB DOS CULTOS AFRO BRAS    28021910 000157
10231987175000168817800093673    000036174                    000361740000000000000109                     I0136174     28021900000000040003410000017N261218104700000000000102802190000000000000000000000000000000000000000100034371990720MARILDA CONCEICAO SILVEIRA DA           RUA: MARAJA                             AREIA BRANCA26135240BELFORD ROXO   RJUNIAO UMB DOS CULTOS AFRO BRAS    28021910 000158
10231987175000168817800093673    000036173                    000361730000000000000109                     I0136173     28021900000000040003410000017N261218104700000000000102802190000000000000000000000000000000000000000100050534173772IARA FRANCISCO                          RUA BARAO DE MELGACO                    CORDOVIL    21250320RIO DE JANEIRO RJUNIAO UMB DOS CULTOS AFRO BRAS    28021910 000159
10231987175000168817800093673    000036172                    000361720000000000000109                     I0136172     28021900000000040003410000017N261218104700000000000102802190000000000000000000000000000000000000000100000000000000CARLOS ALBERTO PORTO LEAL               RUA FOSCA                               POSSE       26020015NOVA IGUACU    RJUNIAO UMB DOS CULTOS AFRO BRAS    28021910 000160
10231987175000168817800093673    000036170                    000361700000000000000109                     I0136170     28021900000000040003410000017N261218104700000000000102802190000000000000000000000000000000000000000100007650422747SIDNEI DO VALE FELISBERTO               RUA: DESEMBARGADOR MACHADO GUIMARAES    JARDIM TROPI26011110NOVA IGUACU    RJUNIAO UMB DOS CULTOS AFRO BRAS    28021910 000161
10231987175000168817800093673    000036169                    000361690000000000000109                     I0136169     28021900000000040003410000017N261218104700000000000102802190000000000000000000000000000000000000000100076658961700BEATRIZ DIAS DO NASCIMENTO              RUA SAO BRUNO                           PENHA       21021160RIO DE JANEIRO RJUNIAO UMB DOS CULTOS AFRO BRAS    28021910 000162
10231987175000168817800093673    000036168                    000361680000000000000109                     I0136168     28021900000000040003410000017N261218104700000000000102802190000000000000000000000000000000000000000100036257869749IRANI DA SILVA CORREA                   RUA JATAIZINHO                          SENADOR VASC23012170RIO DE JANEIRO RJUNIAO UMB DOS CULTOS AFRO BRAS    28021910 000163
10231987175000168817800093673    000036167                    000361670000000000000109                     I0136167     28021900000000040003410000017N261218104700000000000102802190000000000000000000000000000000000000000100062783203715SORAYA BARROS PINHEIRO                  RUA: SANTOS TITARA                      TODOS SANTOS20735240RIO DE JANEIRO RJUNIAO UMB DOS CULTOS AFRO BRAS    28021910 000164
10231987175000168817800093673    000036166                    000361660000000000000109                     I0136166     28021900000000040003410000017N261218104700000000000102802190000000000000000000000000000000000000000100002709806878BERNADETE ESPIRITO SANTO                RUA MIGUEL TRIPOLLI GLIORIO             SAO JUDAS TA13300000ITU            SPUNIAO UMB DOS CULTOS AFRO BRAS    28021910 000165
10231987175000168817800093673    000036165                    000361650000000000000109                     I0136165     28021900000000040003410000017N261218104700000000000102802190000000000000000000000000000000000000000100000000000855ELIZABETH GOMES MONTEIRO DA SI          RUA: MUNIZ ACQUARONE                    IRAJA       21220460RIO DE JANEIRO RJUNIAO UMB DOS CULTOS AFRO BRAS    28021910 000166
10231987175000168817800093673    000036164                    000361640000000000000109                     I0136164     28021900000000040003410000017N261218104700000000000102802190000000000000000000000000000000000000000100007775553790ANDRE BATISTA DO NASCIMENTO AR          AVENIDA TRES                            SANTO ANTONI20540320RIO DE JANEIRO RJUNIAO UMB DOS CULTOS AFRO BRAS    28021910 000167
10231987175000168817800093673    000036163                    000361630000000000000109                     I0136163     28021900000000040003410000017N261218104700000000000102802190000000000000000000000000000000000000000100051357909772GLICIA CALDAS GONCALVES DA SIL          RUA: HONORIO DE ALMEIDA                 IRAJA       21235490RIO DE JANEIRO RJUNIAO UMB DOS CULTOS AFRO BRAS    28021910 000168
10231987175000168817800093673    000036162                    000361620000000000000109                     I0136162     28021900000000040003410000017N261218104700000000000102802190000000000000000000000000000000000000000100058984178772ELIZABETH RIBEIRO VALENTE FARI          RUA: VASCO DA GAMA                      PARQUE ESTOR26063190NOVA IGUACU    RJUNIAO UMB DOS CULTOS AFRO BRAS    28021910 000169
10231987175000168817800093673    000036161                    000361610000000000000109                     I0136161     28021900000000040003410000017N261218104700000000000102802190000000000000000000000000000000000000000100050775561720LEANDRO MECENAS DA CUNHA                RUA GUATOS                              PARQUE SAO C26051640NOVA IGUACU    RJUNIAO UMB DOS CULTOS AFRO BRAS    28021910 000170
10231987175000168817800093673    000036160                    000361600000000000000109                     I0136160     28021900000000040003410000017N261218104700000000000102802190000000000000000000000000000000000000000100002603000713DEBORA DOS SANTOS GOES                  RUA DOZE                                NOVA CAMPINA25268240DUQUE DE CAXIASRJUNIAO UMB DOS CULTOS AFRO BRAS    28021910 000171
10231987175000168817800093673    000036159                    000361590000000000000109                     I0136159     28021900000000040003410000017N261218104700000000000102802190000000000000000000000000000000000000000100007295283757DULCE DOS SANTOS MONTEIRO               AVENIDA ESTACIO DE SA                   PARQUE NOVO 25585000SAO JOAO DE MERRJUNIAO UMB DOS CULTOS AFRO BRAS    28021910 000172
10231987175000168817800093673    000036158                    000361580000000000000109                     I0136158     28021900000000040003410000017N261218104700000000000102802190000000000000000000000000000000000000000100099272946700MARCOS ANTONIO DA SILVA                 RUA PIACAVA                             VILA MARILIA26040210NOVA IGUACU    RJUNIAO UMB DOS CULTOS AFRO BRAS    28021910 000173
10231987175000168817800093673    000036157                    000361570000000000000109                     I0136157     28021900000000040003410000017N261218104700000000000102802190000000000000000000000000000000000000000100046180303720ALANIR SOARES DA SILVA                  RUA QUATORZE                            SANTA CRUZ  23520292RIO DE JANEIRO RJUNIAO UMB DOS CULTOS AFRO BRAS    28021910 000174
10231987175000168817800093673    000036156                    000361560000000000000109                     I0136156     28021900000000040003410000017N261218104700000000000102802190000000000000000000000000000000000000000100063553830778WILLIAM RODRIGUES                       RUA JATOBA                              BENTO RIBEIR00000000RIO DE JANEIRO RJUNIAO UMB DOS CULTOS AFRO BRAS    28021910 000175
10231987175000168817800093673    000036154                    000361540000000000000109                     I0136154     28021900000000040003410000017N261218104700000000000102802190000000000000000000000000000000000000000100000000000000MARIA LEOPOLDINO DE MATOS               RUA JOA                                 BOA ESPERANC26070057NOVA IGUACU    RJUNIAO UMB DOS CULTOS AFRO BRAS    28021910 000176
10231987175000168817800093673    000036153                    000361530000000000000109                     I0136153     28021900000000040003410000017N261218104700000000000102802190000000000000000000000000000000000000000100068556241700NEIDE RISMO                             RUA JABOTIA                             JARDIM DAS A26143410BELFORD ROXO   RJUNIAO UMB DOS CULTOS AFRO BRAS    28021910 000177
10231987175000168817800093673    000036152                    000361520000000000000109                     I0136152     28021900000000040003410000017N261218104700000000000102802190000000000000000000000000000000000000000100010749011777LUIZ CARLOS LOYOLA ALVES                RUA OURO PRETO                          COMUNIDADE T26297144NOVA IGUACU    RJUNIAO UMB DOS CULTOS AFRO BRAS    28021910 000178
10231987175000168817800093673    000036151                    000361510000000000000109                     I0136151     28021900000000040003410000017N261218104700000000000102802190000000000000000000000000000000000000000100007485965778GRACIETE LEAO TANGUA                    RUA ROBERTO RANGEL LIMA                 MAURI - PIAB25915000MAGE           RJUNIAO UMB DOS CULTOS AFRO BRAS    28021910 000179
10231987175000168817800093673    000036150                    000361500000000000000109                     I0136150     28021900000000040003410000017N261218104700000000000102802190000000000000000000000000000000000000000100007272823798ANGELO DA SILVA VICENTE                 RUA ALMEIDA JUNIOR                      JARDIM ALCAN24710160SAO GONCALO    RJUNIAO UMB DOS CULTOS AFRO BRAS    28021910 000180
10231987175000168817800093673    000036149                    000361490000000000000109                     I0136149     28021900000000040003410000017N261218104700000000000102802190000000000000000000000000000000000000000100038370999700JULIO ALEXANDRE FERREIRA                RUA FINLANDIA                           OSWALDO CRUZ21550310RIO DE JANEIRO RJUNIAO UMB DOS CULTOS AFRO BRAS    28021910 000181
10231987175000168817800093673    000036148                    000361480000000000000109                     I0136148     28021900000000040003410000017N261218104700000000000102802190000000000000000000000000000000000000000100000681004770ESPEDITA NUNES DA SILVA                 AVENIDA CASTELO BRANCO                  PARQUE ELDOR25243570DUQUE DE CAXIASRJUNIAO UMB DOS CULTOS AFRO BRAS    28021910 000182
10231987175000168817800093673    000036147                    000361470000000000000109                     I0136147     28021900000000040003410000017N261218104700000000000102802190000000000000000000000000000000000000000100000000008400DANIEL DOMINGOS DA SILVA                RUA: CAMINHO MADEIRA                    MANGUEIRA   26270470NOVA IGUACU    RJUNIAO UMB DOS CULTOS AFRO BRAS    28021910 000183
10231987175000168817800093673    000036146                    000361460000000000000109                     I0136146     28021900000000040003410000017N261218104700000000000102802190000000000000000000000000000000000000000100000559151756HENIE DA SILVA ALENCAR                  RUA ROBERTO CALDAS                      PARQUE FLUMI26187400BELFORD ROXO   RJUNIAO UMB DOS CULTOS AFRO BRAS    28021910 000184
10231987175000168817800093673    000036145                    000361450000000000000109                     I0136145     28021900000000040003410000017N261218104700000000000102802190000000000000000000000000000000000000000100062792920700LUIZ CESAR DE OLIVEIRA                  RUA PEREIRA DE FIGUEIREDO               OSWALDO CRUZ21340030RIO DE JANEIRO RJUNIAO UMB DOS CULTOS AFRO BRAS    28021910 000185
10231987175000168817800093673    000036144                    000361440000000000000109                     I0136144     28021900000000040003410000017N261218104700000000000102802190000000000000000000000000000000000000000100000000000000MARIA DA PENHA DOS SANTOS MARQ          RUA: BRENO SOUZA ALVES                  SAO BERNADO 26165000BELFORD ROXO   RJUNIAO UMB DOS CULTOS AFRO BRAS    28021910 000186
10231987175000168817800093673    000036143                    000361430000000000000109                     I0136143     28021900000000040003410000017N261218104700000000000102802190000000000000000000000000000000000000000100006870897786JARDELI DE OLIVEIRA LISTO               RUA CEU AZUL                            CURICICA    22780650RIO DE JANEIRO RJUNIAO UMB DOS CULTOS AFRO BRAS    28021910 000187
10231987175000168817800093673    000036142                    000361420000000000000109                     I0136142     28021900000000045003410000017N261218104700000000000102802190000000000000000000000000000000000000000100002156451702MARIA AMALIA AVELLAR SOUZA              RUA BELMIRA                             PIEDADE     20756200RIO DE JANEIRO RJUNIAO UMB DOS CULTOS AFRO BRAS    28021910 000188
10231987175000168817800093673    000036141                    000361410000000000000109                     I0136141     28021900000000040003410000017N261218104700000000000102802190000000000000000000000000000000000000000100008901438704THIAGO RODRIGUES DA SILVA MOUR          RUA CENTRAL                             PRAIA MAUA  25930000MAGE           RJUNIAO UMB DOS CULTOS AFRO BRAS    28021910 000189
10231987175000168817800093673    000036140                    000361400000000000000109                     I0136140     28021900000000040003410000017N261218104700000000000102802190000000000000000000000000000000000000000100001153058740ALEXANDRE DE ALMEIDA ESPINDOLA          ESTRADA DO CAMBOATA                     GUADALUPE   21660000RIO DE JANEIRO RJUNIAO UMB DOS CULTOS AFRO BRAS    28021910 000190
10231987175000168817800093673    000036139                    000361390000000000000109                     I0136139     28021900000000040003410000017N261218104700000000000102802190000000000000000000000000000000000000000100088537285749ELCIO CRUZ DE OLIVEIRA                  RUA DEOCLECIANO RAMOS                   ANCHIETA    21645180RIO DE JANEIRO RJUNIAO UMB DOS CULTOS AFRO BRAS    28021910 000191
10231987175000168817800093673    000036138                    000361380000000000000109                     I0136138     28021900000000040003410000017N261218104700000000000102802190000000000000000000000000000000000000000100002978000783FABIO PINTO MANTUANO                    RUA: DAS AMOREIRAS                      INOA        24943760MARICA         RJUNIAO UMB DOS CULTOS AFRO BRAS    28021910 000192
10231987175000168817800093673    000036137                    000361370000000000000109                     I0136137     28021900000000040003410000017N261218104700000000000102802190000000000000000000000000000000000000000100055688306734ROBERTO BRAGANCA BAHIA                  TRAVESSA PALADINO GARCIA                CENTRO      26130290BELFORD ROXO   RJUNIAO UMB DOS CULTOS AFRO BRAS    28021910 000193
10231987175000168817800093673    000036136                    000361360000000000000109                     I0136136     28021900000000040003410000017N261218104700000000000102802190000000000000000000000000000000000000000100001117379744VERA LUCIA SOUZA COUTO                  RUA RUDY ALBERTO                        MAUA        25900000MAGE           RJUNIAO UMB DOS CULTOS AFRO BRAS    28021910 000194
10231987175000168817800093673    000036135                    000361350000000000000109                     I0136135     28021900000000040003410000017N261218104700000000000102802190000000000000000000000000000000000000000100004121968751MARIA ALICE MANOEL DO VALE              RUA B                                   JARDIM MARAM24800000ITABORAI       RJUNIAO UMB DOS CULTOS AFRO BRAS    28021910 000195
10231987175000168817800093673    000036134                    000361340000000000000109                     I0136134     28021900000000040003410000017N261218104700000000000102802190000000000000000000000000000000000000000100000000000829LUIZ ANTONIO CARDOSO ARAUJO             RUA SAMUEL DAS NEVES                    PECHINCHA   22770110RIO DE JANEIRO RJUNIAO UMB DOS CULTOS AFRO BRAS    28021910 000196
10231987175000168817800093673    000036133                    000361330000000000000109                     I0136133     28021900000000040003410000017N261218104700000000000102802190000000000000000000000000000000000000000100081051387787ROSA AMELIA COSENZA                     RUA MARIA DA GLORIA BALTAR              NOVA CIDADE 26535290NILOPOLIS      RJUNIAO UMB DOS CULTOS AFRO BRAS    28021910 000197
10231987175000168817800093673    000036132                    000361320000000000000109                     I0136132     28021900000000040003410000017N261218104700000000000102802190000000000000000000000000000000000000000100085091515704MARIA DA PENHA BARBOSA                  RUA HELVIA BRAGANCA                     JARDIM BOM P26110030BELFORD ROXO   RJUNIAO UMB DOS CULTOS AFRO BRAS    28021910 000198
10231987175000168817800093673    000036131                    000361310000000000000109                     I0136131     28021900000000040003410000017N261218104700000000000102802190000000000000000000000000000000000000000100004501217715JOSE DIOMEDES DO PATROCINIO NE          RUA JOSE FREIRE                         CABUCU      26270030DUQUE DE CAXIASRJUNIAO UMB DOS CULTOS AFRO BRAS    28021910 000199
10231987175000168817800093673    000036130                    000361300000000000000109                     I0136130     28021900000000040003410000017N261218104700000000000102802190000000000000000000000000000000000000000100004753333736ELAINE DOS SANTOS FONTES ARAUJ          RUA HELIANTO                            PADRE MIGUEL21775090RIO DE JANEIRO RJUNIAO UMB DOS CULTOS AFRO BRAS    28021910 000200
10231987175000168817800093673    000036129                    000361290000000000000109                     I0136129     28021900000000040003410000017N261218104700000000000102802190000000000000000000000000000000000000000100007342538779DAVID GARDINA FERREIRA LUCIO            RUA SARAPUI                             COELHO DA RO25550531SAO JOAO DE MERRJUNIAO UMB DOS CULTOS AFRO BRAS    28021910 000201
10231987175000168817800093673    000036128                    000361280000000000000109                     I0136128     28021900000000040003410000017N261218104700000000000102802190000000000000000000000000000000000000000100003316779701WALLACE SILVA SOARES                    RUA QUINZE DE NOVEMBRO                  SARACURUNA  25212690DUQUE DE CAXIASRJUNIAO UMB DOS CULTOS AFRO BRAS    28021910 000202
10231987175000168817800093673    000036127                    000361270000000000000109                     I0136127     28021900000000040003410000017N261218104700000000000102802190000000000000000000000000000000000000000100002152945727CARLOS HENRIQUE SANTOS LIRA             RUA: DOS COQUEIROS                      CATUMBI     20251330RIO DE JANEIRO RJUNIAO UMB DOS CULTOS AFRO BRAS    28021910 000203
10231987175000168817800093673    000036126                    000361260000000000000109                     I0136126     28021900000000040003410000017N261218104700000000000102802190000000000000000000000000000000000000000100027686205720DENNIS CLARE                            RUA RATICLIFF                           RIACHUELO   20950170RIO DE JANEIRO RJUNIAO UMB DOS CULTOS AFRO BRAS    28021910 000204
10231987175000168817800093673    000036125                    000361250000000000000109                     I0136125     28021900000000040003410000017N261218104700000000000102802190000000000000000000000000000000000000000100064949559753CREUZA LEAL COIMBRA                     AVENIDA CORONEL RAIMUNDO SAMPAIO        JARDIM BOTAN25570393SAO JOAO DE MERRJUNIAO UMB DOS CULTOS AFRO BRAS    28021910 000205
10231987175000168817800093673    000036124                    000361240000000000000109                     I0136124     28021900000000045003410000017N261218104700000000000102802190000000000000000000000000000000000000000100090853784787MARIA LUCIA PEREIRA DA SILVA            RUA CORACAO DE MARIA                    MEIER       20775050RIO DE JANEIRO RJUNIAO UMB DOS CULTOS AFRO BRAS    28021910 000206
10231987175000168817800093673    000036123                    000361230000000000000109                     I0136123     28021900000000040003410000017N261218104700000000000102802190000000000000000000000000000000000000000100007972604711ADRIANA TAVARES DA CONCEICAO            RUA: PEREIRO                            TAQUARA - JA22723155RIO DE JANEIRO RJUNIAO UMB DOS CULTOS AFRO BRAS    28021910 000207
10231987175000168817800093673    000036122                    000361220000000000000109                     I0136122     28021900000000040003410000017N261218104700000000000102802190000000000000000000000000000000000000000100036386812700VICENCO GEARDINA NETO                   ESTRADA SANTA BARBARA                   MIGUEL COUTO26061070NOVA IGUACU    RJUNIAO UMB DOS CULTOS AFRO BRAS    28021910 000208
10231987175000168817800093673    000036121                    000361210000000000000109                     I0136121     28021900000000040003410000017N261218104700000000000102802190000000000000000000000000000000000000000100003027226703MARCIO ALVES DOS SANTOS                 RUA ESTUDANTE ELIANE CASTANHEIRA        CENTRO      25510242SAO JOAO DE MERRJUNIAO UMB DOS CULTOS AFRO BRAS    28021910 000209
10231987175000168817800093673    000036120                    000361200000000000000109                     I0136120     28021900000000040003410000017N261218104700000000000102802190000000000000000000000000000000000000000100093971087787SUELY DE CASSIA NEVES DA SILVA          RUA ANTONIO JOAQUIM DA SILVA            PARQUE BARRE25581140SAO JOAO DE MERRJUNIAO UMB DOS CULTOS AFRO BRAS    28021910 000210
10231987175000168817800093673    000036119                    000361190000000000000109                     I0136119     28021900000000040003410000017N261218104700000000000102802190000000000000000000000000000000000000000100081947712772MARIA COELHO DE LIMA                    RUA MARQUESA DOS SANTOS                 VILA ROSARIO25040070DUQUE DE CAXIASRJUNIAO UMB DOS CULTOS AFRO BRAS    28021910 000211
10231987175000168817800093673    000036118                    000361180000000000000109                     I0136118     28021900000000040003410000017N261218104700000000000102802190000000000000000000000000000000000000000100096252634700PATRICIA BORGES                         RUA DOS CAJUEIROS                       SEPETIBA    23530074RIO DE JANEIRO RJUNIAO UMB DOS CULTOS AFRO BRAS    28021910 000212
10231987175000168817800093673    000036117                    000361170000000000000109                     I0136117     28021900000000040003410000017N261218104700000000000102802190000000000000000000000000000000000000000100085624250797HELBA SALLES DE SOUZA                   RUA VITORIA                             LAGOINHA    26296447NOVA IGUACU    RJUNIAO UMB DOS CULTOS AFRO BRAS    28021910 000213
10231987175000168817800093673    000036116                    000361160000000000000109                     I0136116     28021900000000040003410000017N261218104700000000000102802190000000000000000000000000000000000000000100010083312790EDINALDO FELIX DA SILVA                 RUA BERNARDA MARIA DA CONCEICAO         FAZENDA CAXI23895320ILHA DO GOVERNARJUNIAO UMB DOS CULTOS AFRO BRAS    28021910 000214
10231987175000168817800093673    000036115                    000361150000000000000109                     I0136115     28021900000000040003410000017N261218104700000000000102802190000000000000000000000000000000000000000100080295576715DOLORES DAS GRACAS ADRIANO DE           RUA SOLDADO PRIM CANES                  VILA MAR    23025420GUARATIBA      RJUNIAO UMB DOS CULTOS AFRO BRAS    28021910 000215
10231987175000168817800093673    000036114                    000361140000000000000109                     I0136114     28021900000000040003410000017N261218104700000000000102802190000000000000000000000000000000000000000100003549035780CARLOS ALBERTO DA SILVA SANTOS          AVENIDA PRESIDENTE DUTRA                VILA DILMA  26085060NOVA IGUACU    RJUNIAO UMB DOS CULTOS AFRO BRAS    28021910 000216
10231987175000168817800093673    000036113                    000361130000000000000109                     I0136113     28021900000000040003410000017N261218104700000000000102802190000000000000000000000000000000000000000100001393165745MARCO AURELIO DE BARROS FARIAS          RUA F                                   CABUCU      24851516NITEROI        RJUNIAO UMB DOS CULTOS AFRO BRAS    28021910 000217
10231987175000168817800093673    000036112                    000361120000000000000109                     I0136112     28021900000000040003410000017N261218104700000000000102802190000000000000000000000000000000000000000100007793822773ANA MARIA ALVES DO NASCIMENTO           RUA ERVALIA                             BOM RETIRO  25223710DUQUE DE CAXIASRJUNIAO UMB DOS CULTOS AFRO BRAS    28021910 000218
10231987175000168817800093673    000036111                    000361110000000000000109                     I0136111     28021900000000040003410000017N261218104700000000000102802190000000000000000000000000000000000000000100044851839715MARIA DA PENHA                          RUA ADELINO FERREIRA                    JARDIM VILA 25045310DUQUE DE CAXIASRJUNIAO UMB DOS CULTOS AFRO BRAS    28021910 000219
10231987175000168817800093673    000036110                    000361100000000000000109                     I0136110     28021900000000040003410000017N261218104700000000000102802190000000000000000000000000000000000000000100077451953734VANDA NILDA DE ASSIS                    RUA COELHO LISBOA                       OSVALDO CRUZ21340260RIO DE JANEIRIORJUNIAO UMB DOS CULTOS AFRO BRAS    28021910 000220
10231987175000168817800093673    000036109                    000361090000000000000109                     I0136109     28021900000000040003410000017N261218104700000000000102802190000000000000000000000000000000000000000100005415694730ALEX SANDRO DA SILVA BANDEIRA           RUA PAULO ROBERTO                       PRAIA DE MAU25900000MAGE           RJUNIAO UMB DOS CULTOS AFRO BRAS    28021910 000221
10231987175000168817800093673    000036108                    000361080000000000000109                     I0136108     28021900000000040003410000017N261218104700000000000102802190000000000000000000000000000000000000000100082059403715SANDRA HELENA VILLAMOR MONTASS          RUA ARGOS                               GUADALUPE   21660050RIO DE JANEIRO RJUNIAO UMB DOS CULTOS AFRO BRAS    28021910 000222
10231987175000168817800093673    000036107                    000361070000000000000109                     I0136107     28021900000000040003410000017N261218104700000000000102802190000000000000000000000000000000000000000100012948872898LUCILENE BARROS                         RUA DO PIANO                            CAMPOS ELISI25225218DUQUE DE CAXIASRJUNIAO UMB DOS CULTOS AFRO BRAS    28021910 000223
10231987175000168817800093673    000036106                    000361060000000000000109                     I0136106     28021900000000040003410000017N261218104700000000000102802190000000000000000000000000000000000000000100060407875700KATIA DE AZEVEDO FURTADO                RUA SOUZA PITANGA                       THOMAS COELH21381230RIO DE JANEIRO RJUNIAO UMB DOS CULTOS AFRO BRAS    28021910 000224
10231987175000168817800093673    000036105                    000361050000000000000109                     I0136105     28021900000000040003410000017N261218104700000000000102802190000000000000000000000000000000000000000100088677079734MARIA APARECIDA MORAIS DOS SAN          RUA SAO FRANCISCO                       PRADO VERDE 26299180RIO DE JANEIRO RJUNIAO UMB DOS CULTOS AFRO BRAS    28021910 000225
10231987175000168817800093673    000036104                    000361040000000000000109                     I0136104     28021900000000040003410000017N261218104700000000000102802190000000000000000000000000000000000000000100067023711791EURIDES DOS SANTOS                      RUA CORONEL ALBERTO DE MELO             AREIA BRANCA26112370BELFORD ROXO   RJUNIAO UMB DOS CULTOS AFRO BRAS    28021910 000226
10231987175000168817800093673    000036103                    000361030000000000000109                     I0136103     28021900000000040003410000017N261218104700000000000102802190000000000000000000000000000000000000000100051851229787MARTA DO NASCIMENTO CRISPINO            RUA LEONOR SARAMAGO                     FONSECA     24120340NITEROI        RJUNIAO UMB DOS CULTOS AFRO BRAS    28021910 000227
10231987175000168817800093673    000036102                    000361020000000000000109                     I0136102     28021900000000040003410000017N261218104700000000000102802190000000000000000000000000000000000000000100000000000000MARIA ORLANDA ALVES BRAZ                RUA JOSEFA DE ARAUJO                    CAMPO ALEGRE26292003RIO DE JANEIRO RJUNIAO UMB DOS CULTOS AFRO BRAS    28021910 000228
10231987175000168817800093673    000036101                    000361010000000000000109                     I0136101     28021900000000040003410000017N261218104700000000000102802190000000000000000000000000000000000000000100000059525738MONICA SOARES MAGALHAES                 RUA AMALIA                              QUINTINO    21380400RIO DE JANEIRO RJUNIAO UMB DOS CULTOS AFRO BRAS    28021910 000229
10231987175000168817800093673    000036100                    000361000000000000000109                     I0136100     28021900000000040003410000017N261218104700000000000102802190000000000000000000000000000000000000000100003987884720SAINT CLAIR MACHADO FERNANDES           RUA JACA                                PARQUE ESPER26173510BELFORD ROXO   RJUNIAO UMB DOS CULTOS AFRO BRAS    28021910 000230
10231987175000168817800093673    000036099                    000360990000000000000109                     I0136099     28021900000000040003410000017N261218104700000000000102802190000000000000000000000000000000000000000100003549931786LUCIANE CRISTINA OLIVEIRA DOS           RUA AMANDIU                             IRAJA       21371440RIO DE JANEIRO RJUNIAO UMB DOS CULTOS AFRO BRAS    28021910 000231
10231987175000168817800093673    000036098                    000360980000000000000109                     I0136098     28021900000000040003410000017N261218104700000000000102802190000000000000000000000000000000000000000100009959417778CARLOS HENRIQUE LOPES ROSA              RUA: ROSA MULLER                        VILAR DOS TE25560355SAO JOAO DE MERRJUNIAO UMB DOS CULTOS AFRO BRAS    28021910 000232
10231987175000168817800093673    000036097                    000360970000000000000109                     I0136097     28021900000000040003410000017N261218104700000000000102802190000000000000000000000000000000000000000100096599170749LUCINEA LOPES DA SILVA                  FLAVIA REGINA DE SOUZA                  CABUCU      00000000NOVA IGUACU    RJUNIAO UMB DOS CULTOS AFRO BRAS    28021910 000233
10231987175000168817800093673    000036096                    000360960000000000000109                     I0136096     28021900000000040003410000017N261218104700000000000102802190000000000000000000000000000000000000000100004256373799ALCIDES FRANCISCO DE ALBUQUERQ          AVENIDA: CALOMBE                        CHACARAS RIO25230050DUQUE DE CAXIASRJUNIAO UMB DOS CULTOS AFRO BRAS    28021910 000234
10231987175000168817800093673    000036095                    000360950000000000000109                     I0136095     28021900000000040003410000017N261218104700000000000102802190000000000000000000000000000000000000000100061523003715MARIA EMILIA RIBEIRO VIEIRA DO          RUA EIMA                                IRAJA       21220370RIO DE JANEIRO RJUNIAO UMB DOS CULTOS AFRO BRAS    28021910 000235
10231987175000168817800093673    000036094                    000360940000000000000109                     I0136094     28021900000000040003410000017N261218104700000000000102802190000000000000000000000000000000000000000100004253313792VIVIANE ALVES DO ROSARIO                RUA MANHUACU                            VARGEM GRAND22785600RIO DE JANEIRO RJUNIAO UMB DOS CULTOS AFRO BRAS    28021910 000236
10231987175000168817800093673    000036093                    000360930000000000000109                     I0136093     28021900000000040003410000017N261218104700000000000102802190000000000000000000000000000000000000000100000000000000SANDRA REIS DOS SANTOS                  RUA BANGU                               DOUTOR LAURE25060180DUQUE DE CAXIASRJUNIAO UMB DOS CULTOS AFRO BRAS    28021910 000237
10231987175000168817800093673    000036092                    000360920000000000000109                     I0136092     28021900000000040003410000017N261218104700000000000102802190000000000000000000000000000000000000000100007661970775CELIA MARIA DE ARAUJO LIMA              RUA: MARQUES DE MARICA                  GRAMACHO    25030480DUQUE DE CAXIASRJUNIAO UMB DOS CULTOS AFRO BRAS    28021910 000238
10231987175000168817800093673    000036091                    000360910000000000000109                     I0136091     28021900000000040003410000017N261218104700000000000102802190000000000000000000000000000000000000000100034663240763GUARACI FRANCISCO RIBEIRO               RUA ASTRAL                              ROSA DOS VEN26276070NOVA IGUACU    RJUNIAO UMB DOS CULTOS AFRO BRAS    28021910 000239
10231987175000168817800093673    000036090                    000360900000000000000109                     I0136090     28021900000000040003410000017N261218104700000000000102802190000000000000000000000000000000000000000100005432577704JOAO TEIXEIRA BRAGA NETO                RUA CANDIDO DE OLIVEIRA                 RIO COMPRIDO20261220RIO DE JANEIRO RJUNIAO UMB DOS CULTOS AFRO BRAS    28021910 000240
10231987175000168817800093673    000036089                    000360890000000000000109                     I0136089     28021900000000040003410000017N261218104700000000000102802190000000000000000000000000000000000000000100075750384772VERA LUCIA BORGES NAZARETH              RUA DA CAPITAL                          MAUA        25930000MAGE           RJUNIAO UMB DOS CULTOS AFRO BRAS    28021910 000241
10231987175000168817800093673    000036088                    000360880000000000000109                     I0136088     28021900000000040003410000017N261218104700000000000102802190000000000000000000000000000000000000000100076550893704MARCO ANTONIO DE ARAUJO                 RUA ROSANGELA                           OLARIA - MAU25925690MAGE           RJUNIAO UMB DOS CULTOS AFRO BRAS    28021910 000242
10231987175000168817800093673    000036087                    000360870000000000000109                     I0136087     28021900000000040003410000017N261218104700000000000102802190000000000000000000000000000000000000000100075531585772ROSANGELA PAULINA RODRIGUES             ESTRADA DA GUARITA                      CARMARI     26040010NOVA IGUACU    RJUNIAO UMB DOS CULTOS AFRO BRAS    28021910 000243
10231987175000168817800093673    000036086                    000360860000000000000109                     I0136086     28021900000000040003410000017N261218104700000000000102802190000000000000000000000000000000000000000100011564970787MARIA ELIZA PINHEIRO SERRA              RUA ULEMAS  - SANTA ISABEL              POSSE       26020790NOVA IGUACU    RJUNIAO UMB DOS CULTOS AFRO BRAS    28021910 000244
10231987175000168817800093673    000036085                    000360850000000000000109                     I0136085     28021900000000040003410000017N261218104700000000000102802190000000000000000000000000000000000000000100064431002715SERGIO MURILO ALVES PEREIRA             RUA CARLOS ACIOLI                       CABUCU      26351270SAO JOAO DE MERRJUNIAO UMB DOS CULTOS AFRO BRAS    28021910 000245
10231987175000168817800093673    000036084                    000360840000000000000109                     I0136084     28021900000000040003410000017N261218104700000000000102802190000000000000000000000000000000000000000100081628811749MAURO JOSE DE AZEVEDO FALCAO            RUA: LEOPOLDO MACHADO                   BOA ESPERANC26130680NOVA IGUACU    RJUNIAO UMB DOS CULTOS AFRO BRAS    28021910 000246
10231987175000168817800093673    000036083                    000360830000000000000109                     I0136083     28021900000000040003410000017N261218104700000000000102802190000000000000000000000000000000000000000100000905106741RICARDO DE SOUZA GOUVEA                 RUA: DOS ARAUJO                         PARQUE FLUMI26185260BELFORD ROXO   RJUNIAO UMB DOS CULTOS AFRO BRAS    28021910 000247
10231987175000168817800093673    000036082                    000360820000000000000109                     I0136082     28021900000000040003410000017N261218104700000000000102802190000000000000000000000000000000000000000100025969153753MARIA EUNICE FRUCTUOSO MIGUEL           RUA VIRGEM PEREGRINA                    PIEDADE     21381070RIO DE JANEIRO RJUNIAO UMB DOS CULTOS AFRO BRAS    28021910 000248
10231987175000168817800093673    000036081                    000360810000000000000109                     I0136081     28021900000000040003410000017N261218104700000000000102802190000000000000000000000000000000000000000100065138210700TANIA CRISTINA DOS SANTOS PERE          RUA: BOM JARDIM                         GRAMACHO    25035060DUQUE DE CAXIASRJUNIAO UMB DOS CULTOS AFRO BRAS    28021910 000249
