01REMESSA01COBRANCA       817800093673        União Umb dos Cultos Afro Bra341BANCO ITAU SA  240419                                                                                                                                                                                                                                                                                                      000001
10231987175000168817800093673    000039780                    000397800000000000000109                     I0239780     08031900000000200003410000017N120219105700000000000100803190000000000000000000000000000000000000000100000000010164SIRLEI SANTANA DE PAULA                 ESTRADA: DOUTOR FARRULA N 0, LOTE 11 QUABELFORD ROXO26125400RIO DE JANEIRO RJUNIAO UMB DOS CULTOS AFRO BRAS    08031915 000002
10231987175000168817800093673    000039378                    000393780000000000000109                     I0239378     28021900000000040003410000017N261218105700000000000102802190000000000000000000000000000000000000000100000000000658MARIA JOSE PACHECO DO AMPARO            RUA SILVINO PINTON 0, TRAVESSA 3 CASA 2 SAPE        24315600NITEROI        RJUNIAO UMB DOS CULTOS AFRO BRAS    28021915 000003
10231987175000168817800093673    000037393                    000373930000000000000109                     I0237393     28021900000000040003410000017N261218105700000000000102802190000000000000000000000000000000000000000100000000000000REINALDO FERREIRA DOS SANTOS            RUA LESTEN 5,                           JARDIM PARAI26297294NOVA IGUACU    RJUNIAO UMB DOS CULTOS AFRO BRAS    28021915 000004
10231987175000168817800093673    000037317                    000373170000000000000109                     I0237317     28021900000000040003410000017N261218105700000000000102802190000000000000000000000000000000000000000100009924715790JOSEFA MARIA DA SILVA                   TRAVESSA DOS LAVRADORES N 14,           VILA SAO DOM26271340NOVA IGUACU    RJUNIAO UMB DOS CULTOS AFRO BRAS    28021915 000005
10231987175000168817800093673    000037314                    000373140000000000000109                     I0237314     28021900000000040003410000017N261218105700000000000102802190000000000000000000000000000000000000000100000000000000JORGE EDUARDO PEREIRA VIANNA            RUA TUIUTIN 98, CASA 4                  CABUCU      26291551NOVA IGUACU    RJUNIAO UMB DOS CULTOS AFRO BRAS    28021915 000006
10231987175000168817800093673    000037279                    000372790000000000000109                     I0237279     28021900000000040003410000017N261218105700000000000102802190000000000000000000000000000000000000000100000000000000FABIO DA SILVA                          RUA CAMORIMN 0, LOTE 6 QUADRA 34        JARDIM DELAM26317140QUEIMADOS      RJUNIAO UMB DOS CULTOS AFRO BRAS    28021915 000007
10231987175000168817800093673    000037126                    000371260000000000000109                     I0237126     28021900000000040003410000017N261218105700000000000102802190000000000000000000000000000000000000000100000000600716DALILA REIS PIMENTA                     ESTRADA: PLINIO CASADON 2325,           PRATA       26010421NOVA IGUACU    RJUNIAO UMB DOS CULTOS AFRO BRAS    28021915 000008
10231987175000168817800093673    000037033                    000370330000000000000109                     I0237033     28021900000000040003410000017N261218105700000000000102802190000000000000000000000000000000000000000100000000000000GUILHERME SANTOS LINHARES               TRAVESSA EUGENIA N 34, CASA 102         RAMOS       21060440RIO DE JANEIRO RJUNIAO UMB DOS CULTOS AFRO BRAS    28021915 000009
10231987175000168817800093673    000036481                    000364810000000000000109                     I0236481     28021900000000040003410000017N261218105700000000000102802190000000000000000000000000000000000000000100000000001047NILDA MARIA JOSE DE LIMA                RUA: GERALDO DE ALMEIDAN 185,           DORANDIA    27160000BARRA DO PIRAI RJUNIAO UMB DOS CULTOS AFRO BRAS    28021915 000010
10231987175000168817800093673    000036461                    000364610000000000000109                     I0236461     28021900000000040003410000017N261218105700000000000102802190000000000000000000000000000000000000000100000000001038CARLOS JOSE GOMES DA SILVA              RUA: JABOTIN 200, CASA 2                BRAS DE PINA21215330RIO DE JANEIRO RJUNIAO UMB DOS CULTOS AFRO BRAS    28021915 000011
10231987175000168817800093673    000036428                    000364280000000000000109                     I0236428     28021900000000040003410000017N261218105700000000000102802190000000000000000000000000000000000000000100000000669768MARILANE BARROSO BERNARDES              RUA: ORICAN 89, CASA                    BRAS DE PINA21215260RIO DE JANEIRO RJUNIAO UMB DOS CULTOS AFRO BRAS    28021915 000012
10231987175000168817800093673    000036424                    000364240000000000000109                     I0236424     28021900000000040003410000017N261218105700000000000102802190000000000000000000000000000000000000000100000000287789MARCELLIS ALELUIA BARRETO               RUA: LAURENTINA ALVES PEREIRAN 0, CASA 4BADU        24320070NITEROI        RJUNIAO UMB DOS CULTOS AFRO BRAS    28021915 000013
10231987175000168817800093673    000036417                    000364170000000000000109                     I0236417     28021900000000040003410000017N261218105700000000000102802190000000000000000000000000000000000000000100000000001016ANA MARIA DE CARVALHO MENEZES           RUA: OASISN 187,                        PRAIA DA BRI23028320GUARATIBA      RJUNIAO UMB DOS CULTOS AFRO BRAS    28021915 000014
10231987175000168817800093673    000036411                    000364110000000000000109                     I0236411     28021900000000040003410000017N261218105700000000000102802190000000000000000000000000000000000000000100011037768703PATRICIA DE ALMEIDA                     RUA: FRANCISCO MENDES FRANCON 229,      CENTRO      27135170BARRA DO PIRAI RJUNIAO UMB DOS CULTOS AFRO BRAS    28021915 000015
10231987175000168817800093673    000036407                    000364070000000000000109                     I0236407     28021900000000040003410000017N261218105700000000000102802190000000000000000000000000000000000000000100000000585700CONCEICAO ROSA STANESCO NICOLI          RUA: NOSSA SENHORA DE COPACABANA N 647, COPACABANA  22050002RIO DE JANEIRO RJUNIAO UMB DOS CULTOS AFRO BRAS    28021915 000016
10231987175000168817800093673    000036378                    000363780000000000000109                     I0236378     28021900000000040003410000017N261218105700000000000102802190000000000000000000000000000000000000000100000000869743MARIA CRISTINA FURTADO DOS SAN          RUA: IVAN FORTES RUCHN 0, LOTE 14 - LOTEMONTE FORMOS24738660SAO GONCALO    RJUNIAO UMB DOS CULTOS AFRO BRAS    28021915 000017
10231987175000168817800093673    000036328                    000363280000000000000109                     I0236328     28021900000000040003410000017N261218105700000000000102802190000000000000000000000000000000000000000100000000000000SHIRLEY GOMES FRANCISCO DE SOU          RUA TEIXEIRA RAMALHON 185,              CACUIA      26082125NOVA IGUACU    RJUNIAO UMB DOS CULTOS AFRO BRAS    28021915 000018
10231987175000168817800093673    000036304                    000363040000000000000109                     I0236304     28021900000000040003410000017N261218105700000000000102802190000000000000000000000000000000000000000100000000000000MARIA DE LOURDES MATTOS DA SIL          RUA ADEMARN 5,                          BELA VISTA  26157180BELFORD ROXO   RJUNIAO UMB DOS CULTOS AFRO BRAS    28021915 000019
10231987175000168817800093673    000036272                    000362720000000000000109                     I0236272     28021900000000040003410000017N261218105700000000000102802190000000000000000000000000000000000000000100000000000000WILMA DE CASTRO GOUVEA                  RUA: DAMAZIO BATISTAN 86, CASA 97 - CABROLINDA      26515126NILOPOLIS      RJUNIAO UMB DOS CULTOS AFRO BRAS    28021915 000020
10231987175000168817800093673    000036260                    000362600000000000000109                     I0236260     28021900000000040003410000017N261218105700000000000102802190000000000000000000000000000000000000000100000000000000THIAGO BARBOSA DA SILVA                 RUA: PEDRO DOMINGUESN 52, CASA 1        ENCANTADO   20756080RIO DE JANEIRO RJUNIAO UMB DOS CULTOS AFRO BRAS    28021915 000021
10231987175000168817800093673    000036247                    000362470000000000000109                     I0236247     28021900000000040003410000017N261218105700000000000102802190000000000000000000000000000000000000000100021550550000MEYRE CHAVES SOARES                     RUA MARIO HERMESN 40, CASA 6            BENTO RIBEIR21550555RIO DE JANEIRO RJUNIAO UMB DOS CULTOS AFRO BRAS    28021915 000022
10231987175000168817800093673    000036224                    000362240000000000000109                     I0236224     28021900000000040003410000017N261218105700000000000102802190000000000000000000000000000000000000000100000000000000AGUINALDO DE PAULA BORGES               RUA ARNALDO MURINELIN 841, CASA3        ANCHIETA    21630060RIO DE JANEIRO RJUNIAO UMB DOS CULTOS AFRO BRAS    28021915 000023
10231987175000168817800093673    000036200                    000362000000000000000109                     I0236200     28021900000000040003410000017N261218105700000000000102802190000000000000000000000000000000000000000100000000000000GILMAR GAMMARO CARVALHO                 RUA GENERAL SEARAN 187, E 189           CAROLINA    25060010DUQUE DE CAXIASRJUNIAO UMB DOS CULTOS AFRO BRAS    28021915 000024
10231987175000168817800093673    000036172                    000361720000000000000109                     I0236172     28021900000000040003410000017N261218105700000000000102802190000000000000000000000000000000000000000100000000000000CARLOS ALBERTO PORTO LEAL               RUA FOSCA N 55,                         POSSE       26020015NOVA IGUACU    RJUNIAO UMB DOS CULTOS AFRO BRAS    28021915 000025
10231987175000168817800093673    000036165                    000361650000000000000109                     I0236165     28021900000000040003410000017N261218105700000000000102802190000000000000000000000000000000000000000100000000000855ELIZABETH GOMES MONTEIRO DA SI          RUA: MUNIZ ACQUARONE N 74,              IRAJA       21220460RIO DE JANEIRO RJUNIAO UMB DOS CULTOS AFRO BRAS    28021915 000026
10231987175000168817800093673    000036154                    000361540000000000000109                     I0236154     28021900000000040003410000017N261218105700000000000102802190000000000000000000000000000000000000000100000000008438MARIA LEOPOLDINO DE MATOS               RUA URUCURANAN 177,                     BOA ESPERANC26143140NOVA IGUACU    RJUNIAO UMB DOS CULTOS AFRO BRAS    28021915 000027
10231987175000168817800093673    000036144                    000361440000000000000109                     I0236144     28021900000000040003410000017N261218105700000000000102802190000000000000000000000000000000000000000100000000000000MARIA DA PENHA DOS SANTOS MARQ          RUA: BRENO SOUZA ALVESN 11,             SAO BERNADO 26165000BELFORD ROXO   RJUNIAO UMB DOS CULTOS AFRO BRAS    28021915 000028
10231987175000168817800093673    000036093                    000360930000000000000109                     I0236093     28021900000000040003410000017N261218105700000000000102802190000000000000000000000000000000000000000100000000000000SANDRA REIS DOS SANTOS                  RUA BANGUN 197,                         DOUTOR LAURE25060180DUQUE DE CAXIASRJUNIAO UMB DOS CULTOS AFRO BRAS    28021915 000029
10231987175000168817800093673    000036067                    000360670000000000000109                     I0236067     28021900000000040003410000017N261218105700000000000102802190000000000000000000000000000000000000000100000000000000NEUZA MARIA MACHADO DA SILVA            RUA AUGUSTO SERGIO BOTELHON 0, QUADRA 67BARRO BRANCO25267124DUQUE DE CAXIASRJUNIAO UMB DOS CULTOS AFRO BRAS    28021915 000030
10231987175000168817800093673    000036001                    000360010000000000000109                     I0236001     28021900000000040003410000017N261218105700000000000102802190000000000000000000000000000000000000000100000000000000DENIRCE SOUZA ANDRE                     AVENIDA PASTOR MARTIN LUTHER KING JUNIORTOMAS COELHO20761121RIO DE JANEIRO RJUNIAO UMB DOS CULTOS AFRO BRAS    28021915 000031
10231987175000168817800093673    000035998                    000359980000000000000109                     I0235998     28021900000000040003410000017N261218105700000000000102802190000000000000000000000000000000000000000100000000000000JUCELIO MONTINHO MAIA                   RUA OLIMPIO DA MOTA N 157,              IRAJA       21235510RIO DE JANEIRO RJUNIAO UMB DOS CULTOS AFRO BRAS    28021915 000032
10231987175000168817800093673    000035958                    000359580000000000000109                     I0235958     28021900000000040003410000017N261218105700000000000102802190000000000000000000000000000000000000000100000000000000MARIA FERNANDA NUNES FORTUNATO          RUA RICARDO CAMPELON 123, CASA 2        CAMARAO     24436790SAO GONCALO    RJUNIAO UMB DOS CULTOS AFRO BRAS    28021915 000033
10231987175000168817800093673    000035905                    000359050000000000000109                     I0235905     28021900000000040003410000017N261218105700000000000102802190000000000000000000000000000000000000000100000000000251NEUZA DE OLIVEIRA                       RUA CINQUENTA E CINCON 521, QUADRA 49 - SEPETIBA    23547490RIO DE JANEIRO RJUNIAO UMB DOS CULTOS AFRO BRAS    28021915 000034
10231987175000168817800093673    000035903                    000359030000000000000109                     I0235903     28021900000000040003410000017N261218105700000000000102802190000000000000000000000000000000000000000100000000000000ANA LUCIA FRANCISCO BORGES              RUA DO ACAFRAON 157, APTº 101          PADRE MIGUEL21870330RIO DE JANEIRO RJUNIAO UMB DOS CULTOS AFRO BRAS    28021915 000035
10231987175000168817800093673    000035900                    000359000000000000000109                     I0235900     28021900000000040003410000017N261218105700000000000102802190000000000000000000000000000000000000000100000000000000EVA ANA ROSA DOS SANTOS                 RUA SARGENTO ANDIRAS DE ABREU N 0, LOTE PALMARES - P23066080RIO DE JANEIRO RJUNIAO UMB DOS CULTOS AFRO BRAS    28021915 000036
10231987175000168817800093673    000035895                    000358950000000000000109                     I0235895     28021900000000040003410000017N261218105700000000000102802190000000000000000000000000000000000000000100000000000000OSVALDO LUIZ ESTRELA FERNANDES          RUA ANTONIO MATHEUSN 0, LOTE 31 A QUADRALEANDRO     23826225ITAGUAI        RJUNIAO UMB DOS CULTOS AFRO BRAS    28021915 000037
10231987175000168817800093673    000035883                    000358830000000000000109                     I0235883     28021900000000040003410000017N261218105700000000000102802190000000000000000000000000000000000000000100000000000000DALILA DE SOUZA PINHEIRO                RUA JOAO BRIGIDON 121,                  MAGALHAES BA21745480RIO DE JANEIRO RJUNIAO UMB DOS CULTOS AFRO BRAS    28021915 000038
10231987175000168817800093673    000035866                    000358660000000000000109                     I0235866     28021900000000040003410000017N261218105700000000000102802190000000000000000000000000000000000000000100000000000000ELOIDE GONCALVES GAIA                   RUA IVONETEN 31, A                      CONJUNTO SAN23071580RIO DE JANEIRO RJUNIAO UMB DOS CULTOS AFRO BRAS    28021915 000039
10231987175000168817800093673    000035828                    000358280000000000000109                     I0235828     28021900000000040003410000017N261218105700000000000102802190000000000000000000000000000000000000000100000000000807ELIZA DA SILVA                          RUA AMILTON NASCIMENTON 214,            CAROLINA    26012760NOVA IGUACU    RJUNIAO UMB DOS CULTOS AFRO BRAS    28021915 000040
10231987175000168817800093673    000035819                    000358190000000000000109                     I0235819     28021900000000040003410000017N261218105700000000000102802190000000000000000000000000000000000000000100000000000000LUCIMAR FIGUEIREDO NASCIMENTO           RUA TAMANDUATEI N 215,                  CRUZEIRO DO 26012775NOVA IGUACU    RJUNIAO UMB DOS CULTOS AFRO BRAS    28021915 000041
10231987175000168817800093673    000035812                    000358120000000000000109                     I0235812     28021900000000040003410000017N261218105700000000000102802190000000000000000000000000000000000000000100000000000000NATERCIA MALVAR GARCIA LEITAO           RUA CIRO COSTAN 491,                    ENGENHO PEQU24417226SAO GONCALO    RJUNIAO UMB DOS CULTOS AFRO BRAS    28021915 000042
10231987175000168817800093673    000035797                    000357970000000000000109                     I0235797     28021900000000040003410000017N261218105700000000000102802190000000000000000000000000000000000000000100000000000000MARIA DA PIEDADE SANTANA DOS S          RUA SERGIO JOAO PEREIRAN 365,           HELIOPOLIS  26123120BELFORD ROXO   RJUNIAO UMB DOS CULTOS AFRO BRAS    28021915 000043
10231987175000168817800093673    000035796                    000357960000000000000109                     I0235796     28021900000000040003410000017N261218105700000000000102802190000000000000000000000000000000000000000100076103137774VICENTE DE PAULA PEREIRA                RUA POTINGUARAN 253,                    BOA ESPERANC26113720BELFORD ROXO   RJUNIAO UMB DOS CULTOS AFRO BRAS    28021915 000044
10231987175000168817800093673    000035790                    000357900000000000000109                     I0235790     28021900000000040003410000017N261218105700000000000102802190000000000000000000000000000000000000000100000000000790ANORELINA OLIVEIRA DOS SANTOS           RUA: MAUA N 27,  QUADRA 14              VILA SAO JOA25570151SAO JOAO DE MERRJUNIAO UMB DOS CULTOS AFRO BRAS    28021915 000045
10231987175000168817800093673    000035758                    000357580000000000000109                     I0235758     28021900000000040003410000017N261218105700000000000102802190000000000000000000000000000000000000000100000000000732MARIA DE LOURDES VIEIRA DA SIL          RUA: PEDRO FERREIRAN 0, LOTE 28 QUADRA 2JARDIM CATAR24715380SAO GONCALO    RJUNIAO UMB DOS CULTOS AFRO BRAS    28021915 000046
10231987175000168817800093673    000035747                    000357470000000000000109                     I0235747     28021900000000040003410000017N261218105700000000000102802190000000000000000000000000000000000000000100000000000000GILBERTO DA SILVA BORBA                 RUA PROFESSOR JOAO RIBEIRO FILHON 570,  ROCHA SOBRIN26232310RIO DE JANEIRO RJUNIAO UMB DOS CULTOS AFRO BRAS    28021915 000047
10231987175000168817800093673    000035746                    000357460000000000000109                     I0235746     28021900000000040003410000017N261218105700000000000102802190000000000000000000000000000000000000000100000000000000JOSE ROMERO LEITE MARTINS               RUA ALCOBACAN 1345, CASA 1              ANCHIETA    21645001RIO DE JANEIRO RJUNIAO UMB DOS CULTOS AFRO BRAS    28021915 000048
10231987175000168817800093673    000035744                    000357440000000000000109                     I0235744     28021900000000040003410000017N261218105700000000000102802190000000000000000000000000000000000000000100000000000000VANIA MEDEIROS COUTINHO                 RUA TERESAN 0, LOTE 4 QUADRA 4          PARQUE XEREM25245470DUQUE DE CAXIASRJUNIAO UMB DOS CULTOS AFRO BRAS    28021915 000049
10231987175000168817800093673    000035741                    000357410000000000000109                     I0235741     28021900000000040003410000017N261218105700000000000102802190000000000000000000000000000000000000000100000000000000DAVID MOREIRA DE MENDONCA               RUA GENERAL RENATO PIQUETN 0, LOTE 27 QUSOMEL       23825460ITAGUAI        RJUNIAO UMB DOS CULTOS AFRO BRAS    28021915 000050
10231987175000168817800093673    000035735                    000357350000000000000109                     I0235735     28021900000000040003410000017N261218105700000000000102802190000000000000000000000000000000000000000100000000000000JOSE AMERICO ELIAS DE MIRANDA           RUA JAIME MUNIZN 0,  LOTE 1 QUADRA 12   ITAUNA      24474070SAO GONCALO    RJUNIAO UMB DOS CULTOS AFRO BRAS    28021915 000051
10231987175000168817800093673    000035726                    000357260000000000000109                     I0235726     28021900000000040003410000017N261218105700000000000102802190000000000000000000000000000000000000000100000000019700FATIMA APARECIDA AZEVEDO DE AL          RUA: VICENTE DE CARVALHO N 123,         BELFORD ROXO26165420RIO DE JANEIRO RJUNIAO UMB DOS CULTOS AFRO BRAS    28021915 000052
10231987175000168817800093673    000035720                    000357200000000000000109                     I0235720     28021900000000040003410000017N261218105700000000000102802190000000000000000000000000000000000000000100000000000000EDEVALDO NUNES                          RUA DO ROTEIRON 24,                     AUGUSTO VASC23012370RIO DE JANEIRO RJUNIAO UMB DOS CULTOS AFRO BRAS    28021915 000053
10231987175000168817800093673    000035714                    000357140000000000000109                     I0235714     28021900000000040003410000017N261218105700000000000102802190000000000000000000000000000000000000000100000000000686HILDA REGINA NICANOR DOS SANTO          RUA PASSO FUNDO - KM 35N 100, BOM JESUS JARDIM GUAND26298189NOVA IGUACU    RJUNIAO UMB DOS CULTOS AFRO BRAS    28021915 000054
10231987175000168817800093673    000035708                    000357080000000000000109                     I0235708     28021900000000040003410000017N261218105700000000000102802190000000000000000000000000000000000000000100000000000682MANOELINA DE PAULA SILVA                TRAVESSA FRANCISCO COUTO N 136,         VILA ISABEL 25811080TRES RIOS      RJUNIAO UMB DOS CULTOS AFRO BRAS    28021915 000055
10231987175000168817800093673    000035696                    000356960000000000000109                     I0235696     28021900000000040003410000017N261218105700000000000102802190000000000000000000000000000000000000000100000000000656GINO ZACARIAS DE JESUS                  RUA NOVEN 2, VILA GENI                  VILA GENI   23830010ITAGUAI        RJUNIAO UMB DOS CULTOS AFRO BRAS    28021915 000056
10231987175000168817800093673    000035676                    000356760000000000000109                     I0235676     28021900000000040003410000017N261218105700000000000102802190000000000000000000000000000000000000000100000000000000CELIO DELDUQUE                          RUA DOMINGOS PIRES N 181, 183           PILARES     20750160RIO DE JANEIRO RJUNIAO UMB DOS CULTOS AFRO BRAS    28021915 000057
10231987175000168817800093673    000035675                    000356750000000000000109                     I0235675     28021900000000040003410000017N261218105700000000000102802190000000000000000000000000000000000000000100000000000000ANA MARIA DIAS GOMES                    RUA JOAQUIM MURTINHO N 504,             BANANEIRAS  28970000ARARUAMA       RJUNIAO UMB DOS CULTOS AFRO BRAS    28021915 000058
10231987175000168817800093673    000035669                    000356690000000000000109                     I0235669     28021900000000040003410000017N261218105700000000000102802190000000000000000000000000000000000000000220237404000100TENDA DOS ORIXAS                        RUA JOSE MARIOZZI FILHON 990,           PRAIA DA BRI23028400RIO DE JANEIRO RJUNIAO UMB DOS CULTOS AFRO BRAS    28021915 000059
10231987175000168817800093673    000035659                    000356590000000000000109                     I0235659     28021900000000040003410000017N261218105700000000000102802190000000000000000000000000000000000000000100000000000000SOLANGE DOS SANTOS SILVA                RUA QUATORZEN 0, LOTE 35 CASA 131 - ARAUCAMPO GRANDE23090370RIO DE JANEIRO RJUNIAO UMB DOS CULTOS AFRO BRAS    28021915 000060
10231987175000168817800093673    000035650                    000356500000000000000109                     I0235650     28021900000000040003410000017N261218105700000000000102802190000000000000000000000000000000000000000100000000000509DENILZA THIMOTHEO ROZA                  RUA MARIO CARPENTER  N 309, ENTRADA A APPILARES     20755062RIO DE JANEIRO RJUNIAO UMB DOS CULTOS AFRO BRAS    28021915 000061
10231987175000168817800093673    000035642                    000356420000000000000109                     I0235642     28021900000000040003410000017N261218105700000000000102802190000000000000000000000000000000000000000100000000000000DENISE DOS SANTOS OLIVEIRA              RUA BEZERRIL FONTENELEN 150,            IRAJA       21361640RIO DE JANEIRO RJUNIAO UMB DOS CULTOS AFRO BRAS    28021915 000062
10231987175000168817800093673    000035609                    000356090000000000000109                     I0235609     28021900000000040003410000017N261218105700000000000102802190000000000000000000000000000000000000000100000000000000DIVINA ANGELICA LOPES                   RUA ITAIN 296,                          ANCHIETA    21645300RIO DE JANEIRO RJUNIAO UMB DOS CULTOS AFRO BRAS    28021915 000063
10231987175000168817800093673    000035597                    000355970000000000000109                     I0235597     28021900000000040003410000017N261218105700000000000102802190000000000000000000000000000000000000000100000000000582LUIZ PAULO DA SILVEIRA JUNIOR           RUA ANTONIO DE HOLANDAN 120,            JARDIM NOVO 21760060RIO DE JANEIRO RJUNIAO UMB DOS CULTOS AFRO BRAS    28021915 000064
10231987175000168817800093673    000035584                    000355840000000000000109                     I0235584     28021900000000040003410000017N261218105700000000000102802190000000000000000000000000000000000000000100000000000555OLIMPIA SOARES DE ARAUJO                RUA: DEZN 0,  LOTE 46 QUADRA 12         COSMOS-  SAN23067010RIO DE JANEIRO RJUNIAO UMB DOS CULTOS AFRO BRAS    28021915 000065
10231987175000168817800093673    000035566                    000355660000000000000109                     I0235566     28021900000000040003410000017N261218105700000000000102802190000000000000000000000000000000000000000100000000000000JEANE HENRIETE JARDIM DE OLIVE          RUA DOUTOR FELIPE CALDASN 605,          SANTA HELENA26175705BELFORD ROXO   RJUNIAO UMB DOS CULTOS AFRO BRAS    28021915 000066
10231987175000168817800093673    000035551                    000355510000000000000109                     I0235551     28021900000000040003410000017N261218105700000000000102802190000000000000000000000000000000000000000100000000000116VERA NOGUEIRA FARNEZE                   ESTRADA DO MAPUA N 899,                 TAQUARA     22713320RIO DE JANEIRO RJUNIAO UMB DOS CULTOS AFRO BRAS    28021915 000067
10231987175000168817800093673    000035549                    000355490000000000000109                     I0235549     28021900000000040003410000017N261218105700000000000102802190000000000000000000000000000000000000000100000000000000REINALDO GONCALVES DA ROCHA             ESTRADA RODRIGUES CALDASN 3400, AVENIDA TAQUARA     22713375RIO DE JANEIRO RJUNIAO UMB DOS CULTOS AFRO BRAS    28021915 000068
10231987175000168817800093673    000035548                    000355480000000000000109                     I0235548     28021900000000040003410000017N261218105700000000000102802190000000000000000000000000000000000000000100000000000115MARIA APARECIDA LOPES DA SILVA          ESTRADA DOS TRES RIOSN 90, SALA 312     FREGUESIA  -22755002RIO DE JANEIRO RJUNIAO UMB DOS CULTOS AFRO BRAS    28021915 000069
10231987175000168817800093673    000035543                    000355430000000000000109                     I0235543     28021900000000040003410000017N261218105700000000000102802190000000000000000000000000000000000000000100000000000061VERA REGINA GONCALVES                   RUA ANTONIO ALVESN 417,                 COSTA BARROS21650020RIO DE JANEIRO RJUNIAO UMB DOS CULTOS AFRO BRAS    28021915 000070
9                                                                                                                                                                                                                                                                                                                                                                                                         000071
