01REMESSA01COBRANCA       817800093673        União Umb dos Cultos Afro Bra341BANCO ITAU SA  221018                                                                                                                                                                                                                                                                                                      000001
10231987175000168817800093673    000028981                    000289810000000000000109                     I0128981     30111800000000040003410000017N221018104700000000000103011180000000000000000000000000000000000000000100034463399300MARIA ENOIA DE SOUSA CORREA             RUA: RODEZIA                            BANCARIO - I21910145RIO DE JANEIRO RJUNIAO UMB DOS CULTOS AFRO BRAS    30111810 000002
10231987175000168817800093673    000028980                    000289800000000000000109                     I0128980     12111800000000300003410000017N221018104700000000000101211180000000000000000000000000000000000000000100074192523787RUTH DE OLIVEIRA RAMOS                  RUA DONATELO                            PRAIA DA BRI23028210RIO DE JANEIRO RJUNIAO UMB DOS CULTOS AFRO BRAS    12111810 000003
10231987175000168817800093673    000028979                    000289790000000000000109                     I0128979     26101800000000175003410000017N221018104700000000000102610180000000000000000000000000000000000000000100005529010750JOELMA MELO DA SILVA                    RUA DIONIZIO RIBEIRO CHAVES             ANAIA - SANT24737660SAO GONCALO    RJUNIAO UMB DOS CULTOS AFRO BRAS    26101810 000004
10231987175000168817800093673    000028978                    000289780000000000000109                     I0128978     20121800000000035003410000017N221018104700000000000102012180000000000000000000000000000000000000000100001653081767DEISE SIQUEIRA                          RUA PARLON SIQUEIRA                     BARRA DE GUA23020510RIO DE JANEIRO RJUNIAO UMB DOS CULTOS AFRO BRAS    20121810 000005
10231987175000168817800093673    000028977                    000289770000000000000109                     I3428977     10101800000000035003410000017N221018104700000000000101010180000000000000000000000000000000000000000100005851795735JOAO LUIZ DE OLIVEIRA MAGALHAE          RUA ANTONIO CARLOS PARANHOS             VILA VALQUEI21321340RIO DE JANEIRO RJUNIAO UMB DOS CULTOS AFRO BRAS    10101810 000006
10231987175000168817800093673    000028976                    000289760000000000000109                     I0128976     26101800000000035003410000017N221018104700000000000102610180000000000000000000000000000000000000000100037345095720VERA LUCIA DA CRUZ NEVES                RUA RODRIGUES CAMPELO                   CAMPO GRANDE23017210RIO DE JANEIRO RJUNIAO UMB DOS CULTOS AFRO BRAS    26101810 000007
10231987175000168817800093673    000028975                    000289750000000000000109                     I0128975     26101800000000035003410000017N221018104700000000000102610180000000000000000000000000000000000000000100001596786760LINDEMBERG DE SOUZA AMARAL              RUA: SACOPAN                            BOTAFOGO    00000000NOVA IGUACU    RJUNIAO UMB DOS CULTOS AFRO BRAS    26101810 000008
10231987175000168817800093673    000028974                    000289740000000000000109                     I0128974     20121800000000040003410000017N221018104700000000000102012180000000000000000000000000000000000000000100002101171767HELENA DE JESUS                         RUA JOAO ROMEIRO                        CASCADURA   21311000RIO DE JANEIRO RJUNIAO UMB DOS CULTOS AFRO BRAS    20121810 000009
10231987175000168817800093673    000028973                    000289730000000000000109                     I0128973     09111800000000400003410000017N211018104700000000000100911180000000000000000000000000000000000000000100087969998704ROBERTO LUIZ MEDEIROS                   RUA OLIMPIO                             HELIOPOLIS  26125215BELFORD ROXO   RJUNIAO UMB DOS CULTOS AFRO BRAS    09111810 000010
10231987175000168817800093673    000028972                    000289720000000000000109                     I0128972     12111800000000450003410000017N211018104700000000000101211180000000000000000000000000000000000000000100004524099778CRISTIANE VIEIRA DAS CHAGAS             AVENIDA SANTA CRUZ                      BANGU       21830000RIO DE JANEIRO RJUNIAO UMB DOS CULTOS AFRO BRAS    12111810 000011
10231987175000168817800093673    000028971                    000289710000000000000109                     I0128971     09111800000000400003410000017N211018104700000000000100911180000000000000000000000000000000000000000100001506425712JUREMA DE OLIVEIRA FRANCISCO            RUA MANUEL BANDEIRA                     TRIBOBO     24755210SAO GONCALO    RJUNIAO UMB DOS CULTOS AFRO BRAS    09111810 000012
10231987175000168817800093673    000028970                    000289700000000000000109                     I0128970     30101800000000450003410000017N211018104700000000000103010180000000000000000000000000000000000000000100005647864708ANA MARIA BARRETO DA GAMA FREI          RUA FABIO DA LUZ                        MEIER       20720350RIO DE JANEIRO RJUNIAO UMB DOS CULTOS AFRO BRAS    30101810 000013
10231987175000168817800093673    000028969                    000289690000000000000109                     I0128969     12111800000000400003410000017N211018104700000000000101211180000000000000000000000000000000000000000100001343022738LUCIANA FIGUEIRO COUTINHO DA S          RUA: MANHUACU                           VARGEM GRAND22785600RIO DE JANEIRO RJUNIAO UMB DOS CULTOS AFRO BRAS    12111810 000014
10231987175000168817800093673    000028968                    000289680000000000000109                     I0128968     10121800000000400003410000017N211018104700000000000101012180000000000000000000000000000000000000000100096235667787ZORAIDA MARIA MACIEL DANTAS             RUA ENALDO DOS SANTOS ARAUJO MEDICO     ENGENHEIRO L21370200RIO DE JANEIRO RJUNIAO UMB DOS CULTOS AFRO BRAS    10121810 000015
10231987175000168817800093673    000028967                    000289670000000000000109                     I0128967     30111800000000400003410000017N211018104700000000000103011180000000000000000000000000000000000000000100071944141715LENOIR CASEMIRO                         ESTRADA: DO QUAFA                       BANGU       21853050RIO DE JANEIRO RJUNIAO UMB DOS CULTOS AFRO BRAS    30111810 000016
10231987175000168817800093673    000028966                    000289660000000000000109                     I0128966     31101800000000450003410000017N201018104700000000000103110180000000000000000000000000000000000000000100033075514772MARIA ELISA DOS SANTOS                  RUA PADRE TELEMACO                      CASCADURA   21311050RIO DE JANEIRO RJUNIAO UMB DOS CULTOS AFRO BRAS    31101810 000017
10231987175000168817800093673    000028965                    000289650000000000000109                     I3428965     29101800000000035003410000017N201018104700000000000102910180000000000000000000000000000000000000000100005851795735JOAO LUIZ DE OLIVEIRA MAGALHAE          RUA ANTONIO CARLOS PARANHOS             VILA VALQUEI21321340RIO DE JANEIRO RJUNIAO UMB DOS CULTOS AFRO BRAS    29101810 000018
10231987175000168817800093673    000028964                    000289640000000000000109                     I0128964     12111800000000400003410000017N201018104700000000000101211180000000000000000000000000000000000000000100063372428749ARTIDONIO JOSE DOS SANTOS               RUA: SAO FRANCISCO DE ASSIS             PARQUE SAO  26172240BELFORD ROXO   RJUNIAO UMB DOS CULTOS AFRO BRAS    12111810 000019
10231987175000168817800093673    000028963                    000289630000000000000109                     I3428963     30111800000000400003410000017N201018104700000000000103011180000000000000000000000000000000000000000100083006842715HILDA DA CONCEICAO DE SOUZA             AVENIDA PREFEITO JORGE JULIO DA COSTA DOCENTRO      26130010BELFORD ROXO   RJUNIAO UMB DOS CULTOS AFRO BRAS    30111810 000020
10231987175000168817800093673    000028962                    000289620000000000000109                     I0128962     05111800000000700003410000017N191018104700000000000100511180000000000000000000000000000000000000000100073932590791SEVERINO FELINTO DOS SANTOS             RUA FELIPE CAMARAO                      MARACANA    20550165RIO DE JANEIRO RJUNIAO UMB DOS CULTOS AFRO BRAS    05111810 000021
10231987175000168817800093673    000028961                    000289610000000000000109                     I0128961     22101800000000070003410000017N191018104700000000000102210180000000000000000000000000000000000000000100082059403715SANDRA HELENA VILLAMOR MONTASS          RUA ARGOS                               GUADALUPE   21660050RIO DE JANEIRO RJUNIAO UMB DOS CULTOS AFRO BRAS    22101810 000022
10231987175000168817800093673    000028954                    000289540000000000000109                     I3428954     22101800000000035003410000017N171018104700000000000102210180000000000000000000000000000000000000000100002379534713ALEX EVANDRO CORREIA PETITINGA          RUA FRANCISCO MANUEL                    BENFICA     00000000RIO DE JANEIRO RJUNIAO UMB DOS CULTOS AFRO BRAS    22101810 000023
10231987175000168817800093673    000028881                    000288810000000000000109                     I3428881     31101800000001500003410000017N041018104700000000000103110180000000000000000000000000000000000000000100005421759750PEDRO MIRANDA - GREGORIO                RUA ENGENHO DA RAINHA                   TODOS OS SAN20765040RIO DE JANEIRO RJUNIAO UMB DOS CULTOS AFRO BRAS    31101810 000024
10231987175000168817800093673    000028880                    000288800000000000000109                     I3428880     31101800000000400003410000017N041018104700000000000103110180000000000000000000000000000000000000000100005421729750GREGORIO THOMAS DE OLIVEIRA BR          RUA AIERA                               VILA COSMOS 21220020RIO DE JANEIRO RJUNIAO UMB DOS CULTOS AFRO BRAS    31101810 000025
10231987175000168817800093673    000028166                    000281660000000000000109                     I0228166     30111800000000035003410000017N200818104700000000000103011180000000000000000000000000000000000000000100003248678755CRISTIANO DA SILVA CORREIA              TRAVESSA DAS TORRES                     NAZARENO - P26115733BELFORD ROXO   RJUNIAO UMB DOS CULTOS AFRO BRAS    30111810 000026
10231987175000168817800093673    000028158                    000281580000000000000109                     I3428158     30111800000000035003410000017N200818104700000000000103011180000000000000000000000000000000000000000100085339695700DAYSE DE ALMEIDA SOARES                 RUA: COMANDANTE RUBENS SILVA            JACAREPAGUA 22750054RIO DE JANEIRO RJUNIAO UMB DOS CULTOS AFRO BRAS    30111810 000027
10231987175000168817800093673    000027604                    000276040000000000000109                     I3427604     30111800000000035003410000017N200818104700000000000103011180000000000000000000000000000000000000000100002379534713ALEX EVANDRO CORREIA PETITINGA          RUA FRANCISCO MANUEL                    BENFICA     00000000RIO DE JANEIRO RJUNIAO UMB DOS CULTOS AFRO BRAS    30111810 000028
10231987175000168817800093673    000027275                    000272750000000000000109                     I3427275     30111800000000035003410000017N200818104700000000000103011180000000000000000000000000000000000000000100001799273709ANSELMO FERREIRA DEGENAR                RUA CARLOS LACERDA                      JARDIM DA PO26000000RIO DE JANEIRO RJUNIAO UMB DOS CULTOS AFRO BRAS    30111810 000029
10231987175000168817800093673    000027157                    000271570000000000000109                     I3427157     30111800000000035003410000017N200818104700000000000103011180000000000000000000000000000000000000000100001115386700DILZA TORRES PINTO DE JESUS             RUA MARECHAL BARBEDO                    REALENGO    21735340RIO DE JANEIRO RJUNIAO UMB DOS CULTOS AFRO BRAS    30111810 000030
10231987175000168817800093673    000026979                    000269790000000000000109                     I3426979     30091800000000040003410000017N200818104700000000000103009180000000000000000000000000000000000000000100009526018770VERONICA MARIA LIMA                     RUA KEMAL PALHA                         VILA SANTO A25040220DUQUE DE CAXIASRJUNIAO UMB DOS CULTOS AFRO BRAS    30091810 000031
10231987175000168817800093673    000026803                    000268030000000000000109                     I0226803     30091800000000035003410000017N200818104700000000000103009180000000000000000000000000000000000000000100001653081767DEISE SIQUEIRA                          RUA PARLON SIQUEIRA                     BARRA DE GUA23020510RIO DE JANEIRO RJUNIAO UMB DOS CULTOS AFRO BRAS    30091810 000032
10231987175000168817800093673    000026745                    000267450000000000000109                     I0226745     30091800000000035003410000017N200818104700000000000103009180000000000000000000000000000000000000000100003248678755CRISTIANO DA SILVA CORREIA              TRAVESSA DAS TORRES                     NAZARENO - P26115733BELFORD ROXO   RJUNIAO UMB DOS CULTOS AFRO BRAS    30091810 000033
10231987175000168817800093673    000026737                    000267370000000000000109                     I0226737     30091800000000035003410000017N200818104700000000000103009180000000000000000000000000000000000000000100085339695700DAYSE DE ALMEIDA SOARES                 RUA: COMANDANTE RUBENS SILVA            JACAREPAGUA 22750054RIO DE JANEIRO RJUNIAO UMB DOS CULTOS AFRO BRAS    30091810 000034
10231987175000168817800093673    000025743                    000257430000000000000109                     I0225743     30091800000000035003410000017N200818104700000000000103009180000000000000000000000000000000000000000100037345095720VERA LUCIA DA CRUZ NEVES                RUA RODRIGUES CAMPELO                   CAMPO GRANDE23017210RIO DE JANEIRO RJUNIAO UMB DOS CULTOS AFRO BRAS    30091810 000035
10231987175000168817800093673    000025387                    000253870000000000000109                     I0225387     30101800000000035003410000017N200818104700000000000103010180000000000000000000000000000000000000000100001653081767DEISE SIQUEIRA                          RUA PARLON SIQUEIRA                     BARRA DE GUA23020510RIO DE JANEIRO RJUNIAO UMB DOS CULTOS AFRO BRAS    30101810 000036
10231987175000168817800093673    000025329                    000253290000000000000109                     I0225329     30101800000000035003410000017N200818104700000000000103010180000000000000000000000000000000000000000100003248678755CRISTIANO DA SILVA CORREIA              TRAVESSA DAS TORRES                     NAZARENO - P26115733BELFORD ROXO   RJUNIAO UMB DOS CULTOS AFRO BRAS    30101810 000037
10231987175000168817800093673    000025321                    000253210000000000000109                     I3425321     30101800000000035003410000017N200818104700000000000103010180000000000000000000000000000000000000000100085339695700DAYSE DE ALMEIDA SOARES                 RUA: COMANDANTE RUBENS SILVA            JACAREPAGUA 22750054RIO DE JANEIRO RJUNIAO UMB DOS CULTOS AFRO BRAS    30101810 000038
10231987175000168817800093673    000024767                    000247670000000000000109                     I3424767     30101800000000035003410000017N200818104700000000000103010180000000000000000000000000000000000000000100002379534713ALEX EVANDRO CORREIA PETITINGA          RUA FRANCISCO MANUEL                    BENFICA     00000000RIO DE JANEIRO RJUNIAO UMB DOS CULTOS AFRO BRAS    30101810 000039
10231987175000168817800093673    000024346                    000243460000000000000109                     I3424346     30101800000000035003410000017N200818104700000000000103010180000000000000000000000000000000000000000100001045146714ELIANE RIBEIRO MACEDO                   RUA SANTA GLICERIA                      PADRE MIGUEL21725320RIO DE JANEIRO RJUNIAO UMB DOS CULTOS AFRO BRAS    30101810 000040
10231987175000168817800093673    000024323                    000243230000000000000109                     I3424323     30101800000000035003410000017N200818104700000000000103010180000000000000000000000000000000000000000100001115386700DILZA TORRES PINTO DE JESUS             RUA MARECHAL BARBEDO                    REALENGO    21735340RIO DE JANEIRO RJUNIAO UMB DOS CULTOS AFRO BRAS    30101810 000041
9                                                                                                                                                                                                                                                                                                                                                                                                         000042
