01REMESSA01COBRANCA       817800093673        União Umb dos Cultos Afro Bra341BANCO ITAU SA  130219                                                                                                                                                                                                                                                                                                      000001
10231987175000168817800093673    000039780                    000397800000000000000109                     I0139780     08031900000000200003410000017N120219104700000000000100803190000000000000000000000000000000000000000100000000010164SIRLEI SANTANA DE PAULA                 ESTRADA: DOUTOR FARRULA N 0, LOTE 11 QUABELFORD ROXO26125400RIO DE JANEIRO RJUNIAO UMB DOS CULTOS AFRO BRAS    08031910 000002
10231987175000168817800093673    000039779                    000397790000000000000109                     I0139779     01031900000000350003410000017N120219104700000000000100103190000000000000000000000000000000000000000100080592368491MARIA JOSE PEREIRA NOGUEIRA DE          ALAMEDA GOIANIA N 26,                   ENGENHO DO R24752520SAO GONCALO    RJUNIAO UMB DOS CULTOS AFRO BRAS    01031910 000003
10231987175000168817800093673    000039778                    000397780000000000000109                     I0139778     29031900000000040003410000017N120219104700000000000102903190000000000000000000000000000000000000000100060714921734MARIA DAS GRACAS DAVID RIBEIRO          RUA 18N 0, CASA 21                      LOTEAMENTO E28890828RIO DAS OSTRAS RJUNIAO UMB DOS CULTOS AFRO BRAS    29031910 000004
10231987175000168817800093673    000039777                    000397770000000000000109                     I0139777     15031900000000350003410000017N120219104700000000000101503190000000000000000000000000000000000000000100004746270716ANTONIO CARLOS FERNANDES                RUA FRANCISCO DE CASTRO N 9, CASA 1     SANTA TERESA20241300RIO DE JANEIRO RJUNIAO UMB DOS CULTOS AFRO BRAS    15031910 000005
10231987175000168817800093673    000039776                    000397760000000000000109                     I0139776     20021900000000040003410000017N120219104700000000000102002190000000000000000000000000000000000000000100034415688772JORGE FERNANDES BEZERRA                 RUA: CARMEN GOMESN 11,                  REALENGO    21770080RIO DE JANEIRO RJUNIAO UMB DOS CULTOS AFRO BRAS    20021910 000006
10231987175000168817800093673    000038393                    000383930000000000000109                     I0238393     30031900000000040003410000017N261218104700000000000103003190000000000000000000000000000000000000000100025569929720JOSE WILSON DE ARAUJO                   RUA SEABRA FILHON 829,                  INHOAIBA    23062000RIO DE JANEIRO RJUNIAO UMB DOS CULTOS AFRO BRAS    30031910 000007
10231987175000168817800093673    000037891                    000378910000000000000109                     I0237891     30031900000000040003410000017N261218104700000000000103003190000000000000000000000000000000000000000100004765875733BEATRIZ GOMES DEMIRSKY                  AVENIDA MERITIN 1421, APARTAMENTO 201   VILA DA PENH21220201RIO DE JANEIRO RJUNIAO UMB DOS CULTOS AFRO BRAS    30031910 000008
10231987175000168817800093673    000036827                    000368270000000000000109                     I0236827     28021900000000040003410000017N261218104700000000000102802190000000000000000000000000000000000000000100002478890755GRETGHEN LUIZ DE MELO                   RUA MANOEL GAMAN 198, A 1 ANDAR         VILA TIRADEN25525390SAO JOAO DE MERRJUNIAO UMB DOS CULTOS AFRO BRAS    28021910 000009
10231987175000168817800093673    000036476                    000364760000000000000109                     I0236476     28021900000000040003410000017N261218104700000000000102802190000000000000000000000000000000000000000100025569929720JOSE WILSON DE ARAUJO                   RUA SEABRA FILHON 829,                  INHOAIBA    23062000RIO DE JANEIRO RJUNIAO UMB DOS CULTOS AFRO BRAS    28021910 000010
10231987175000168817800093673    000036163                    000361630000000000000109                     I0236163     28021900000000040003410000017N261218104700000000000102802190000000000000000000000000000000000000000100051357909772GLICIA CALDAS GONCALVES DA SIL          RUA: HONORIO DE ALMEIDAN 68, CASA 1     IRAJA       21235490RIO DE JANEIRO RJUNIAO UMB DOS CULTOS AFRO BRAS    28021910 000011
10231987175000168817800093673    000035976                    000359760000000000000109                     I0235976     28021900000000040003410000017N261218104700000000000102802190000000000000000000000000000000000000000100004765875733BEATRIZ GOMES DEMIRSKY                  AVENIDA MERITIN 1421, APARTAMENTO 201   VILA DA PENH21220201RIO DE JANEIRO RJUNIAO UMB DOS CULTOS AFRO BRAS    28021910 000012
10231987175000168817800093673    000034917                    000349170000000000000109                     I0234917     31011900000000040003410000017N261218104700000000000103101190000000000000000000000000000000000000000100002478890755GRETGHEN LUIZ DE MELO                   RUA MANOEL GAMAN 198, A 1 ANDAR         VILA TIRADEN25525390SAO JOAO DE MERRJUNIAO UMB DOS CULTOS AFRO BRAS    31011910 000013
10231987175000168817800093673    000034852                    000348520000000000000109                     I0234852     31011900000000040003410000017N261218104700000000000103101190000000000000000000000000000000000000000100010591612739ROSEMERE SOUZA DA SILVA                 RUA OURO BRANCON 1525, BLOCO 24 B APT 20VISTA ALEGRE21230354RIO DE JANEIRO RJUNIAO UMB DOS CULTOS AFRO BRAS    31011910 000014
10231987175000168817800093673    000034567                    000345670000000000000109                     I0234567     31011900000000040003410000017N261218104700000000000103101190000000000000000000000000000000000000000100025569929720JOSE WILSON DE ARAUJO                   RUA SEABRA FILHON 829,                  INHOAIBA    23062000RIO DE JANEIRO RJUNIAO UMB DOS CULTOS AFRO BRAS    31011910 000015
10231987175000168817800093673    000034255                    000342550000000000000109                     I0234255     31011900000000040003410000017N261218104700000000000103101190000000000000000000000000000000000000000100051357909772GLICIA CALDAS GONCALVES DA SIL          RUA: HONORIO DE ALMEIDAN 68, CASA 1     IRAJA       21235490RIO DE JANEIRO RJUNIAO UMB DOS CULTOS AFRO BRAS    31011910 000016
10231987175000168817800093673    000034072                    000340720000000000000109                     I0234072     31011900000000040003410000017N261218104700000000000103101190000000000000000000000000000000000000000100004765875733BEATRIZ GOMES DEMIRSKY                  AVENIDA MERITIN 1421, APARTAMENTO 201   VILA DA PENH21220201RIO DE JANEIRO RJUNIAO UMB DOS CULTOS AFRO BRAS    31011910 000017
10231987175000168817800093673    000032466                    000324660000000000000109                     I0232466     20121800000000350003410000017N291018104700000000000102012180000000000000000000000000000000000000000100002478890755GRETGHEN LUIZ DE MELO                   RUA MANOEL GAMAN 198, A 1 ANDAR         VILA TIRADEN25525390SAO JOAO DE MERRJUNIAO UMB DOS CULTOS AFRO BRAS    20121810 000018
10231987175000168817800093673    000031927                    000319270000000000000109                     I0231927     20121800000000350003410000017N291018104700000000000102012180000000000000000000000000000000000000000100025569929720JOSE WILSON DE ARAUJO                   RUA SEABRA FILHON 829,                  INHOAIBA    23062000RIO DE JANEIRO RJUNIAO UMB DOS CULTOS AFRO BRAS    20121810 000019
10231987175000168817800093673    000031689                    000316890000000000000109                     I0231689     20121800000000350003410000017N291018104700000000000102012180000000000000000000000000000000000000000100002379534713ALEX EVANDRO CORREIA PETITINGA          RUA CARDOSO QUINTAON 40,                PIEDADE     21381460RIO DE JANEIRO RJUNIAO UMB DOS CULTOS AFRO BRAS    20121810 000020
10231987175000168817800093673    000031675                    000316750000000000000109                     I0231675     20121800000000350003410000017N291018104700000000000102012180000000000000000000000000000000000000000100004746270716ANTONIO CARLOS FERNANDES                RUA FRANCISCO DE CASTRO N 9, CASA 1     SANTA TERESA20241300RIO DE JANEIRO RJUNIAO UMB DOS CULTOS AFRO BRAS    20121810 000021
10231987175000168817800093673    000031143                    000311430000000000000109                     I0231143     20121800000000350003410000017N291018104700000000000102012180000000000000000000000000000000000000000100004765875733BEATRIZ GOMES DEMIRSKY                  AVENIDA MERITIN 1421, APARTAMENTO 201   VILA DA PENH21220201RIO DE JANEIRO RJUNIAO UMB DOS CULTOS AFRO BRAS    20121810 000022
10231987175000168817800093673    000030075                    000300750000000000000109                     I0230075     20121800000000035003410000017N291018104700000000000102012180000000000000000000000000000000000000000100089497899734UGO SILVA FILHO                         RUA ITABAIANA N 49, APT 502             GRAJAU      20561050RIO DE JANEIRO RJUNIAO UMB DOS CULTOS AFRO BRAS    20121810 000023
10231987175000168817800093673    000029636                    000296360000000000000109                     I0229636     20121800000000035003410000017N291018104700000000000102012180000000000000000000000000000000000000000100025569929720JOSE WILSON DE ARAUJO                   RUA SEABRA FILHON 829,                  INHOAIBA    23062000RIO DE JANEIRO RJUNIAO UMB DOS CULTOS AFRO BRAS    20121810 000024
9                                                                                                                                                                                                                                                                                                                                                                                                         000025
