01REMESSA01COBRANCA       817800093673        União Umb dos Cultos Afro Bra341BANCO ITAU SA  200519                                                                                                                                                                                                                                                                                                      000001
10231987175000168817800093673    000045291                    000452910000000000000109                     I0145291     10061900000000300003410000017N200519105700000000000101006190000000000000000000000000000000000000000100059480904772EDSON CORREIA                           RUA NOVA ATLANTIDAN 543,                ROSA DOS VEN26278757NOVA IGUACU    RJUNIAO UMB DOS CULTOS AFRO BRAS    10061915 000002
10231987175000168817800093673    000045290                    000452900000000000000109                     I0145290     10061900000000200003410000017N200519105700000000000101006190000000000000000000000000000000000000000100085114308734MARISTELA BISPO DOS SANTOS              RUA VINTE E TRES DE SETEMBRON 235,      IPIRANGA    26293342NOVA IGUACU    RJUNIAO UMB DOS CULTOS AFRO BRAS    10061915 000003
10231987175000168817800093673    000045289                    000452890000000000000109                     I0145289     30051900000000080003410000017N200519105700000000000103005190000000000000000000000000000000000000000100008067836728BRUNO HENRIQUE DA COSTA SILVA           RUA SOARES TAVARESN 51, FUNDOS          IRAJA       21361360RIO DE JANEIRO RJUNIAO UMB DOS CULTOS AFRO BRAS    30051915 000004
10231987175000168817800093673    000045288                    000452880000000000000109                     I0145288     30051900000000080003410000017N200519105700000000000103005190000000000000000000000000000000000000000100053218833787MARLUCE SUELY DA SILVA                  RUA CHRISOSTOMO PIMENTEL DE OLIVEIRAN 63ANCHIETA    21645521RIO DE JANEIRO RJUNIAO UMB DOS CULTOS AFRO BRAS    30051915 000005
10231987175000168817800093673    000045287                    000452870000000000000109                     I0145287     30061900000000040003410000017N200519105700000000000103006190000000000000000000000000000000000000000100058302140759CLAUDINA PADILHA DA SILVA               RUA ANTONIO FELIXN 1060,                NOSSA SENHOR26520632NILOPOLIS      RJUNIAO UMB DOS CULTOS AFRO BRAS    30061915 000006
10231987175000168817800093673    000045286                    000452860000000000000109                     I0145286     30051900000000040003410000017N200519105700000000000103005190000000000000000000000000000000000000000100058302140759CLAUDINA PADILHA DA SILVA               RUA ANTONIO FELIXN 1060,                NOSSA SENHOR26520632NILOPOLIS      RJUNIAO UMB DOS CULTOS AFRO BRAS    30051915 000007
10231987175000168817800093673    000045285                    000452850000000000000109                     I0145285     10061900000000120003410000017N200519105700000000000101006190000000000000000000000000000000000000000100054504430720ISBELA BARBOSA LIMA DA SILVA            RUA SOUSA BARROSN 106, A FUNDOS         ENGENHO NOVO20961150RIO DE JANEIRO RJUNIAO UMB DOS CULTOS AFRO BRAS    10061915 000008
10231987175000168817800093673    000038851                    000388510000000000000109                     I0238851     30031900000000040003410000017N261218105700000000000103003190000000000000000000000000000000000000000100013565688742CAIO CESAR DUARTE DE SOUZA              RUA CALUMBI N 300, APT 305              IRAJA       21361260RIO DE JANEIRO RJUNIAO UMB DOS CULTOS AFRO BRAS    30031915 000009
10231987175000168817800093673    000038831                    000388310000000000000109                     I0238831     30031900000000040003410000017N261218105700000000000103003190000000000000000000000000000000000000000100015475831777DOUGLAS DA SILVA DE SOUZA               RUA CAPINTUBAN 126,                     IRAJA       21361210RIO DE JANEIRO RJUNIAO UMB DOS CULTOS AFRO BRAS    30031915 000010
10231987175000168817800093673    000037751                    000377510000000000000109                     I0237751     30031900000000040003410000017N261218105700000000000103003190000000000000000000000000000000000000000100001087376750ALAN RICARDO DA CONCEICAO GAMA          ESTRADA DOS BANDEIRANTESN 11227, AVENIDAVARGEM PEQUE22783117RIO DE JANEIRO RJUNIAO UMB DOS CULTOS AFRO BRAS    30031915 000011
9                                                                                                                                                                                                                                                                                                                                                                                                         000012
