01REMESSA01COBRANCA       817800093673        União Umb dos Cultos Afro Bra341BANCO ITAU SA  150519                                                                                                                                                                                                                                                                                                      000001
10231987175000168817800093673    000038584                    000385840000000000000109                     I0238584     30031900000000040003410000017N261218105700000000000103003190000000000000000000000000000000000000000100030970474768MARIA BALBINA BAPTISTA LATAVAN          RUA MAJOR MEDEIROSN 14, APT 201         IRAJA       21220570RIO DE JANEIRO RJUNIAO UMB DOS CULTOS AFRO BRAS    30031915 000002
9                                                                                                                                                                                                                                                                                                                                                                                                         000003
