01REMESSA01COBRANCA       817800093673        União Umb dos Cultos Afro Bra341BANCO ITAU SA  270519                                                                                                                                                                                                                                                                                                      000001
9                                                                                                                                                                                                                                                                                                                                                                                                         000002
