01REMESSA01COBRANCA       817800093673        União Umb dos Cultos Afro Bra341BANCO ITAU SA  010819                                                                                                                                                                                                                                                                                                      000001
10231987175000168817800093673    000049691                    000496910000000000000109                     I0249691     30071900000000040003410000017N110619105700000000000133007190000000000000000000000000000000000000000100002134169729ALEXANDRE DE ALMEIDA                    RUA SERITINGAN 105, BLOCO 5 APTO 108 FUNBRAZ DE PINA21215485RIO DE JANEIRO RJUNIAO UMB DOS CULTOS AFRO BRAS    30071915 000002
21300720190000000000080                                                                                                                                                                                                                                                                                                                                                                                   000003
10231987175000168817800093673    000049690                    000496900000000000000109                     I0249690     05071900000000080003410000017N110619105700000000000260507190000000000000000000000000000000000000000100002134169729ALEXANDRE DE ALMEIDA                    RUA SERITINGAN 105, BLOCO 5 APTO 108 FUNBRAZ DE PINA21215485RIO DE JANEIRO RJUNIAO UMB DOS CULTOS AFRO BRAS    05071915 000004
21050720190000000000160                                                                                                                                                                                                                                                                                                                                                                                   000005
10231987175000168817800093673    000049381                    000493810000000000000109                     I0249381     30091900000000040003410000017N100619105700000000000133009190000000000000000000000000000000000000000100016424589880LUIZ CARLOS BRITO                       RUA LIBERDADEN 368,                     CIDADE JARDI26063230NOVA IGUACU    RJUNIAO UMB DOS CULTOS AFRO BRAS    30091915 000006
21300920190000000000080                                                                                                                                                                                                                                                                                                                                                                                   000007
10231987175000168817800093673    000048487                    000484870000000000000109                     I0248487     30091900000000040003410000017N100619105700000000000133009190000000000000000000000000000000000000000100001050327780MARIA LUCIA DE FATIMA FERREIRA          RUA BUDAPESTEN 172, CASA 2              FREGUESIA (I21911300RIO DE JANEIRO RJUNIAO UMB DOS CULTOS AFRO BRAS    30091915 000008
21300920190000000000080                                                                                                                                                                                                                                                                                                                                                                                   000009
10231987175000168817800093673    000048405                    000484050000000000000109                     I3448405     30091900000000040003410000017N100619105700000000000133009190000000000000000000000000000000000000000100001799273709ANSELMO FERREIRA DEGENAR                RUA NOSSA SENHORA DE NAZAREN 31,        PAVUNA      21655550RIO DE JANEIRO RJUNIAO UMB DOS CULTOS AFRO BRAS    30091915 000010
21300920190000000000080                                                                                                                                                                                                                                                                                                                                                                                   000011
10231987175000168817800093673    000048013                    000480130000000000000109                     I0248013     30081900000000040003410000017N100619105700000000000133008190000000000000000000000000000000000000000100046840117715TERESA CRISTINA DE MELLO SOARE          RUA CANUTAMAN 119,                      OSWALDO CRUZ21340440RIO DE JANEIRO RJUNIAO UMB DOS CULTOS AFRO BRAS    30081915 000012
21300820190000000000080                                                                                                                                                                                                                                                                                                                                                                                   000013
10231987175000168817800093673    000047936                    000479360000000000000109                     I0247936     30081900000000040003410000017N100619105700000000000133008190000000000000000000000000000000000000000100016424589880LUIZ CARLOS BRITO                       RUA LIBERDADEN 368,                     CIDADE JARDI26063230NOVA IGUACU    RJUNIAO UMB DOS CULTOS AFRO BRAS    30081915 000014
21300820190000000000080                                                                                                                                                                                                                                                                                                                                                                                   000015
10231987175000168817800093673    000047050                    000470500000000000000109                     I0247050     30081900000000040003410000017N100619105700000000000133008190000000000000000000000000000000000000000100001050327780MARIA LUCIA DE FATIMA FERREIRA          RUA BUDAPESTEN 172, CASA 2              FREGUESIA (I21911300RIO DE JANEIRO RJUNIAO UMB DOS CULTOS AFRO BRAS    30081915 000016
21300820190000000000080                                                                                                                                                                                                                                                                                                                                                                                   000017
10231987175000168817800093673    000046970                    000469700000000000000109                     I3446970     30081900000000040003410000017N100619105700000000000133008190000000000000000000000000000000000000000100001799273709ANSELMO FERREIRA DEGENAR                RUA NOSSA SENHORA DE NAZAREN 31,        PAVUNA      21655550RIO DE JANEIRO RJUNIAO UMB DOS CULTOS AFRO BRAS    30081915 000018
21300820190000000000080                                                                                                                                                                                                                                                                                                                                                                                   000019
10231987175000168817800093673    000046940                    000469400000000000000109                     I0246940     30081900000000040003410000017N100619105700000000000133008190000000000000000000000000000000000000000100009886046716ANA CRISTINA DE ALMEIDA TRINDA          RUA COTIJUBAN 156,                      ROCHA MIRAND21555020RIO DE JANEIRO RJUNIAO UMB DOS CULTOS AFRO BRAS    30081915 000020
21300820190000000000080                                                                                                                                                                                                                                                                                                                                                                                   000021
10231987175000168817800093673    000046788                    000467880000000000000109                     I0246788     30081900000000040003410000017N100619105700000000000133008190000000000000000000000000000000000000000100001686254741ADELIA DE OLIVEIRA AZEVEDO              RUA CORONEL CAMISAON 842,               CORDOVIL    21250290RIO DE JANEIRO RJUNIAO UMB DOS CULTOS AFRO BRAS    30081915 000022
21300820190000000000080                                                                                                                                                                                                                                                                                                                                                                                   000023
10231987175000168817800093673    000046530                    000465300000000000000109                     I0246530     30071900000000040003410000017N100619105700000000000133007190000000000000000000000000000000000000000100009491065777VIVIAN LUIZA FREITAS DE AGUIAR          RUA ITAPETININGAN 520,                  VICENTE DE C21370680RIO DE JANEIRO RJUNIAO UMB DOS CULTOS AFRO BRAS    30071915 000024
21300720190000000000080                                                                                                                                                                                                                                                                                                                                                                                   000025
10231987175000168817800093673    000046502                    000465020000000000000109                     I0246502     30071900000000040003410000017N100619105700000000000133007190000000000000000000000000000000000000000100016424589880LUIZ CARLOS BRITO                       RUA LIBERDADEN 368,                     CIDADE JARDI26063230NOVA IGUACU    RJUNIAO UMB DOS CULTOS AFRO BRAS    30071915 000026
21300720190000000000080                                                                                                                                                                                                                                                                                                                                                                                   000027
10231987175000168817800093673    000045628                    000456280000000000000109                     I0245628     30071900000000040003410000017N100619105700000000000133007190000000000000000000000000000000000000000100001050327780MARIA LUCIA DE FATIMA FERREIRA          RUA BUDAPESTEN 172, CASA 2              FREGUESIA (I21911300RIO DE JANEIRO RJUNIAO UMB DOS CULTOS AFRO BRAS    30071915 000028
21300720190000000000080                                                                                                                                                                                                                                                                                                                                                                                   000029
10231987175000168817800093673    000045595                    000455950000000000000109                     I0245595     30071900000000040003410000017N100619105700000000000133007190000000000000000000000000000000000000000100032996659600FERNANDO JUSTINO PALMEIRA               ESTRADA DE JACONE N 569,                SAMPAIO CORR28990000SAQUAREMA      RJUNIAO UMB DOS CULTOS AFRO BRAS    30071915 000030
21300720190000000000080                                                                                                                                                                                                                                                                                                                                                                                   000031
10231987175000168817800093673    000045304                    000453040000000000000109                     I0245304     20061900000000350003410000017N230519105700000000001162006190000000000000000000000000000000000000000100003591710792NILDA MARIA JOSE DE LIMA                RUA: GERALDO DE ALMEIDAN 185,           DORANDIA    27160000BARRA DO PIRAI RJUNIAO UMB DOS CULTOS AFRO BRAS    20061915 000032
21200620190000000000700                                                                                                                                                                                                                                                                                                                                                                                   000033
9                                                                                                                                                                                                                                                                                                                                                                                                         000034
