01REMESSA01COBRANCA       916200163100        União Umb dos Cultos Afro Bra341BANCO ITAU SA  080719                                                                                                                                                                                                                                                                                                      000001
10231987175000168916200163100    000049894                    000498940000000000000109                     I0149894     19071900000000400003410000017N080719105700000000001321907190000000000000000000000000000000000000000100005828675761THAYS DE FATIMA FERREIRA GOMES          ESTRADA GENERAL AFONSO DE CARVALHON 989,PADRE MIGUEL21725020RIO DE JANEIRO RJUNIAO UMB DOS CULTOS AFRO BRAS    19071915 000002
21190720190000000000800                                                                                                                                                                                                                                                                                                                                                                                   000003
10231987175000168916200163100    000049893                    000498930000000000000109                     I0149893     30091900000000040003410000017N080719105700000000000133009190000000000000000000000000000000000000000100009514107764ELAINE MANSO DO NASCIMENTO              RUA ENGENHEIRO BERNARDO SAIAON 0, LOTE 1COELHO DA RO25550810SAO JOAO DE MERRJUNIAO UMB DOS CULTOS AFRO BRAS    30091915 000004
21300920190000000000080                                                                                                                                                                                                                                                                                                                                                                                   000005
10231987175000168916200163100    000049892                    000498920000000000000109                     I0149892     30081900000000040003410000017N080719105700000000000133008190000000000000000000000000000000000000000100009514107764ELAINE MANSO DO NASCIMENTO              RUA ENGENHEIRO BERNARDO SAIAON 0, LOTE 1COELHO DA RO25550810SAO JOAO DE MERRJUNIAO UMB DOS CULTOS AFRO BRAS    30081915 000006
21300820190000000000080                                                                                                                                                                                                                                                                                                                                                                                   000007
10231987175000168916200163100    000049891                    000498910000000000000109                     I0149891     20071900000000300003410000017N080719105700000000000992007190000000000000000000000000000000000000000100002098051700FELIPE LOPES DA COSTA CHAVES            RUA: JOSE PINTO FAUSTINON 0, LOTE 14 QUAIPIRANGA    26293441NOVA IGUACU    RJUNIAO UMB DOS CULTOS AFRO BRAS    20071915 000008
21200720190000000000600                                                                                                                                                                                                                                                                                                                                                                                   000009
10231987175000168916200163100    000049890                    000498900000000000000109                     I0149890     15071900000000040003410000017N080719105700000000000131507190000000000000000000000000000000000000000100002344767703ROSINETE FERREIRA CAMARGO               RUA ARAGON 131,                         TANQUE      22733130RIO DE JANEIRO RJUNIAO UMB DOS CULTOS AFRO BRAS    15071915 000010
21150720190000000000080                                                                                                                                                                                                                                                                                                                                                                                   000011
10231987175000168916200163100    000049889                    000498890000000000000109                     I0149889     15071900000000040003410000017N080719105700000000000131507190000000000000000000000000000000000000000100002344767703ROSINETE FERREIRA CAMARGO               RUA ARAGON 131,                         TANQUE      22733130RIO DE JANEIRO RJUNIAO UMB DOS CULTOS AFRO BRAS    15071915 000012
21150720190000000000080                                                                                                                                                                                                                                                                                                                                                                                   000013
10231987175000168916200163100    000049888                    000498880000000000000109                     I0149888     15071900000000120003410000017N080719105700000000000401507190000000000000000000000000000000000000000100002344767703ROSINETE FERREIRA CAMARGO               RUA ARAGON 131,                         TANQUE      22733130RIO DE JANEIRO RJUNIAO UMB DOS CULTOS AFRO BRAS    15071915 000014
21150720190000000000240                                                                                                                                                                                                                                                                                                                                                                                   000015
10231987175000168916200163100    000049887                    000498870000000000000109                     I0149887     30091900000000040003410000017N080719105700000000000133009190000000000000000000000000000000000000000100072962771734MARCIA CARNAVAL                         RUA AJAPIN 580, CASA 2                  COSMOS      23066420RIO DE JANEIRO RJUNIAO UMB DOS CULTOS AFRO BRAS    30091915 000016
21300920190000000000080                                                                                                                                                                                                                                                                                                                                                                                   000017
10231987175000168916200163100    000049886                    000498860000000000000109                     I0149886     30081900000000040003410000017N080719105700000000000133008190000000000000000000000000000000000000000100072962771734MARCIA CARNAVAL                         RUA AJAPIN 580, CASA 2                  COSMOS      23066420RIO DE JANEIRO RJUNIAO UMB DOS CULTOS AFRO BRAS    30081915 000018
21300820190000000000080                                                                                                                                                                                                                                                                                                                                                                                   000019
10231987175000168916200163100    000049885                    000498850000000000000109                     I0149885     20071900000000120003410000017N080719105700000000000402007190000000000000000000000000000000000000000100003259472797IVONETE MARIA DA SILVA                  RUA RAFAEL LANGONEN 192,                CENTRO      25880000SAPUCAIA       RJUNIAO UMB DOS CULTOS AFRO BRAS    20071915 000020
21200720190000000000240                                                                                                                                                                                                                                                                                                                                                                                   000021
10231987175000168916200163100    000049884                    000498840000000000000109                     I0149884     12071900000000040003410000017N080719105700000000000131207190000000000000000000000000000000000000000100049490087734DIRCE MARA DE OLIVEIRA PAULA            RUA OTILIO LIMA N 0, LOTE 2 QUADRA 130  SANTA LUZIA 24721490SAO GONCALO    RJUNIAO UMB DOS CULTOS AFRO BRAS    12071915 000022
21120720190000000000080                                                                                                                                                                                                                                                                                                                                                                                   000023
10231987175000168916200163100    000044623                    000446230000000000000109                     I0244623     30061900000000040003410000017N130319105700000000000133006190000000000000000000000000000000000000000100002176741781SUSI DE OLIVEIRA LOUREIRO               AVENIDA VICENTE DE CARVALHON 536, CASA 4VICENTE DE C21371148RIO DE JANEIRO RJUNIAO UMB DOS CULTOS AFRO BRAS    30061915 000024
21300620190000000000080                                                                                                                                                                                                                                                                                                                                                                                   000025
10231987175000168916200163100    000043572                    000435720000000000000109                     I0243572     30061900000000040003410000017N130319105700000000000133006190000000000000000000000000000000000000000100064431002715SERGIO MURILO ALVES PEREIRA             RUA ROCHAN 0, LOTE 4 QUADRA 4 CASA 2    JARDIM JOSE 25565161SAO JOAO DE MERRJUNIAO UMB DOS CULTOS AFRO BRAS    30061915 000026
21300620190000000000080                                                                                                                                                                                                                                                                                                                                                                                   000027
10231987175000168916200163100    000043450                    000434500000000000000109                     I0243450     30061900000000040003410000017N130319105700000000000133006190000000000000000000000000000000000000000100010491247745JOAO BATISTA MACEDO DE FREITAS          RUA ITAGIBAN 1047, FUNDOS               COSMOS      23060450RIO DE JANEIRO RJUNIAO UMB DOS CULTOS AFRO BRAS    30061915 000028
21300620190000000000080                                                                                                                                                                                                                                                                                                                                                                                   000029
10231987175000168916200163100    000041928                    000419280000000000000109                     I0241928     30051900000000040003410000017N130319105700000000000133005190000000000000000000000000000000000000000100064431002715SERGIO MURILO ALVES PEREIRA             RUA ROCHAN 0, LOTE 4 QUADRA 4 CASA 2    JARDIM JOSE 25565161SAO JOAO DE MERRJUNIAO UMB DOS CULTOS AFRO BRAS    30051915 000030
21300520190000000000080                                                                                                                                                                                                                                                                                                                                                                                   000031
10231987175000168916200163100    000041807                    000418070000000000000109                     I0241807     30051900000000040003410000017N130319105700000000000133005190000000000000000000000000000000000000000100010491247745JOAO BATISTA MACEDO DE FREITAS          RUA ITAGIBAN 1047, FUNDOS               COSMOS      23060450RIO DE JANEIRO RJUNIAO UMB DOS CULTOS AFRO BRAS    30051915 000032
21300520190000000000080                                                                                                                                                                                                                                                                                                                                                                                   000033
10231987175000168916200163100    000041660                    000416600000000000000109                     I0241660     30051900000000040003410000017N130319105700000000000133005190000000000000000000000000000000000000000100044188269715SEBASTIANA SOUZA SANTOS                 RUA ARI BARROSON 193,                   SANTA RITA  26050410NOVA IGUACU    RJUNIAO UMB DOS CULTOS AFRO BRAS    30051915 000034
21300520190000000000080                                                                                                                                                                                                                                                                                                                                                                                   000035
9                                                                                                                                                                                                                                                                                                                                                                                                         000036
