01REMESSA01COBRANCA       817800093673        União Umb dos Cultos Afro Bra341BANCO ITAU SA  250619                                                                                                                                                                                                                                                                                                      000001
10231987175000168817800093673    000049776                    000497760000000000000109                     I0149776     30091900000000040003410000017N240619105700000000000133009190000000000000000000000000000000000000000100076776760730SHEILA DE SOUZA LETTIERE MACHA          RUA JOSE MACHADON 81,                   IRAJA       21361360RIO DE JANEIRO RJUNIAO UMB DOS CULTOS AFRO BRAS    30091915 000002
21300920190000000000080                                                                                                                                                                                                                                                                                                                                                                                   000003
10231987175000168817800093673    000049775                    000497750000000000000109                     I0149775     30081900000000040003410000017N240619105700000000000133008190000000000000000000000000000000000000000100076776760730SHEILA DE SOUZA LETTIERE MACHA          RUA JOSE MACHADON 81,                   IRAJA       21361360RIO DE JANEIRO RJUNIAO UMB DOS CULTOS AFRO BRAS    30081915 000004
21300820190000000000080                                                                                                                                                                                                                                                                                                                                                                                   000005
10231987175000168817800093673    000049774                    000497740000000000000109                     I0149774     30071900000000040003410000017N240619105700000000000133007190000000000000000000000000000000000000000100076776760730SHEILA DE SOUZA LETTIERE MACHA          RUA JOSE MACHADON 81,                   IRAJA       21361360RIO DE JANEIRO RJUNIAO UMB DOS CULTOS AFRO BRAS    30071915 000006
21300720190000000000080                                                                                                                                                                                                                                                                                                                                                                                   000007
10231987175000168817800093673    000049773                    000497730000000000000109                     I0149773     30091900000000040003410000017N240619105700000000000133009190000000000000000000000000000000000000000100026059592791AINDAYA FARIA                           RUA FRANCISCA SALESN 339,               FREGUESIA (J22760000RIO DE JANEIRO RJUNIAO UMB DOS CULTOS AFRO BRAS    30091915 000008
21300920190000000000080                                                                                                                                                                                                                                                                                                                                                                                   000009
10231987175000168817800093673    000049772                    000497720000000000000109                     I0149772     30081900000000040003410000017N240619105700000000000133008190000000000000000000000000000000000000000100026059592791AINDAYA FARIA                           RUA FRANCISCA SALESN 339,               FREGUESIA (J22760000RIO DE JANEIRO RJUNIAO UMB DOS CULTOS AFRO BRAS    30081915 000010
21300820190000000000080                                                                                                                                                                                                                                                                                                                                                                                   000011
10231987175000168817800093673    000049771                    000497710000000000000109                     I0149771     30071900000000040003410000017N240619105700000000000133007190000000000000000000000000000000000000000100026059592791AINDAYA FARIA                           RUA FRANCISCA SALESN 339,               FREGUESIA (J22760000RIO DE JANEIRO RJUNIAO UMB DOS CULTOS AFRO BRAS    30071915 000012
21300720190000000000080                                                                                                                                                                                                                                                                                                                                                                                   000013
10231987175000168817800093673    000049770                    000497700000000000000109                     I0149770     30091900000000040003410000017N240619105700000000000133009190000000000000000000000000000000000000000100008780875750JOSELIA FAUSTINO MOREIRA DA SI          RUA SAO SEBASTIAON 20, D                COELHO NETO 21510260RIO DE JANEIRO RJUNIAO UMB DOS CULTOS AFRO BRAS    30091915 000014
21300920190000000000080                                                                                                                                                                                                                                                                                                                                                                                   000015
10231987175000168817800093673    000049769                    000497690000000000000109                     I0149769     30081900000000040003410000017N240619105700000000000133008190000000000000000000000000000000000000000100008780875750JOSELIA FAUSTINO MOREIRA DA SI          RUA SAO SEBASTIAON 20, D                COELHO NETO 21510260RIO DE JANEIRO RJUNIAO UMB DOS CULTOS AFRO BRAS    30081915 000016
21300820190000000000080                                                                                                                                                                                                                                                                                                                                                                                   000017
10231987175000168817800093673    000049768                    000497680000000000000109                     I0149768     30071900000000040003410000017N240619105700000000000133007190000000000000000000000000000000000000000100008780875750JOSELIA FAUSTINO MOREIRA DA SI          RUA SAO SEBASTIAON 20, D                COELHO NETO 21510260RIO DE JANEIRO RJUNIAO UMB DOS CULTOS AFRO BRAS    30071915 000018
21300720190000000000080                                                                                                                                                                                                                                                                                                                                                                                   000019
10231987175000168817800093673    000049767                    000497670000000000000109                     I0149767     30091900000000040003410000017N240619105700000000000133009190000000000000000000000000000000000000000100003687366790ADRIANA DA SILVA PEREIRA                RUA FRANCISCO MARTINSN 7,               GALO BRANCO 24421710SAO GONCALO    RJUNIAO UMB DOS CULTOS AFRO BRAS    30091915 000020
21300920190000000000080                                                                                                                                                                                                                                                                                                                                                                                   000021
10231987175000168817800093673    000049766                    000497660000000000000109                     I0149766     30081900000000040003410000017N240619105700000000000133008190000000000000000000000000000000000000000100003687366790ADRIANA DA SILVA PEREIRA                RUA FRANCISCO MARTINSN 7,               GALO BRANCO 24421710SAO GONCALO    RJUNIAO UMB DOS CULTOS AFRO BRAS    30081915 000022
21300820190000000000080                                                                                                                                                                                                                                                                                                                                                                                   000023
10231987175000168817800093673    000049765                    000497650000000000000109                     I0149765     31071900000000040003410000017N240619105700000000000133107190000000000000000000000000000000000000000100003687366790ADRIANA DA SILVA PEREIRA                RUA FRANCISCO MARTINSN 7,               GALO BRANCO 24421710SAO GONCALO    RJUNIAO UMB DOS CULTOS AFRO BRAS    31071915 000024
21310720190000000000080                                                                                                                                                                                                                                                                                                                                                                                   000025
10231987175000168817800093673    000049764                    000497640000000000000109                     I0149764     05071900000000200003410000017N240619105700000000000660507190000000000000000000000000000000000000000100075745658720ELIZIETE COIMBRA DE FRANCA              RUA SAO LOURENCON 99,                   SANTA RITA  26050630NOVA IGUACU    RJUNIAO UMB DOS CULTOS AFRO BRAS    05071915 000026
21050720190000000000400                                                                                                                                                                                                                                                                                                                                                                                   000027
10231987175000168817800093673    000049060                    000490600000000000000109                     I0249060     30091900000000080003410000017N100619105700000000000263009190000000000000000000000000000000000000000100002819747728ANDRE RENATO DOS SANTOS VIANA           RUA: RODRIGUES ALVESN 0, LOTE 38 QUADRA VILA SAPE - 25275440DUQUE DE CAXIASRJUNIAO UMB DOS CULTOS AFRO BRAS    30091915 000028
21300920190000000000160                                                                                                                                                                                                                                                                                                                                                                                   000029
10231987175000168817800093673    000048892                    000488920000000000000109                     I0248892     30091900000000040003410000017N100619105700000000000133009190000000000000000000000000000000000000000100008679284769ANA PAULA DA SILVA BRAGA                RUA ELVIRA DA FONSECAN 149, CASA 1 FUNDOTANQUE      22733150RIO DE JANEIRO RJUNIAO UMB DOS CULTOS AFRO BRAS    30091915 000030
21300920190000000000080                                                                                                                                                                                                                                                                                                                                                                                   000031
10231987175000168817800093673    000048665                    000486650000000000000109                     I0248665     30091900000000040003410000017N100619105700000000000133009190000000000000000000000000000000000000000100060296836168ALEXANDRE MONTEIRO DA ROSA              RUA MONTE CASTELON 143,                 CORONEL VEIG25655500PETROPOLIS     RJUNIAO UMB DOS CULTOS AFRO BRAS    30091915 000032
21300920190000000000080                                                                                                                                                                                                                                                                                                                                                                                   000033
10231987175000168817800093673    000047621                    000476210000000000000109                     I0247621     30081900000000080003410000017N100619105700000000000263008190000000000000000000000000000000000000000100002819747728ANDRE RENATO DOS SANTOS VIANA           RUA: RODRIGUES ALVESN 0, LOTE 38 QUADRA VILA SAPE - 25275440DUQUE DE CAXIASRJUNIAO UMB DOS CULTOS AFRO BRAS    30081915 000034
21300820190000000000160                                                                                                                                                                                                                                                                                                                                                                                   000035
10231987175000168817800093673    000047453                    000474530000000000000109                     I0247453     30081900000000040003410000017N100619105700000000000133008190000000000000000000000000000000000000000100008679284769ANA PAULA DA SILVA BRAGA                RUA ELVIRA DA FONSECAN 149, CASA 1 FUNDOTANQUE      22733150RIO DE JANEIRO RJUNIAO UMB DOS CULTOS AFRO BRAS    30081915 000036
21300820190000000000080                                                                                                                                                                                                                                                                                                                                                                                   000037
10231987175000168817800093673    000047228                    000472280000000000000109                     I0247228     30081900000000040003410000017N100619105700000000000133008190000000000000000000000000000000000000000100060296836168ALEXANDRE MONTEIRO DA ROSA              RUA MONTE CASTELON 143,                 CORONEL VEIG25655500PETROPOLIS     RJUNIAO UMB DOS CULTOS AFRO BRAS    30081915 000038
21300820190000000000080                                                                                                                                                                                                                                                                                                                                                                                   000039
10231987175000168817800093673    000046191                    000461910000000000000109                     I0246191     30071900000000080003410000017N100619105700000000000263007190000000000000000000000000000000000000000100002819747728ANDRE RENATO DOS SANTOS VIANA           RUA: RODRIGUES ALVESN 0, LOTE 38 QUADRA VILA SAPE - 25275440DUQUE DE CAXIASRJUNIAO UMB DOS CULTOS AFRO BRAS    30071915 000040
21300720190000000000160                                                                                                                                                                                                                                                                                                                                                                                   000041
10231987175000168817800093673    000046024                    000460240000000000000109                     I0246024     30071900000000040003410000017N100619105700000000000133007190000000000000000000000000000000000000000100008679284769ANA PAULA DA SILVA BRAGA                RUA ELVIRA DA FONSECAN 149, CASA 1 FUNDOTANQUE      22733150RIO DE JANEIRO RJUNIAO UMB DOS CULTOS AFRO BRAS    30071915 000042
21300720190000000000080                                                                                                                                                                                                                                                                                                                                                                                   000043
10231987175000168817800093673    000045803                    000458030000000000000109                     I0245803     30071900000000040003410000017N100619105700000000000133007190000000000000000000000000000000000000000100060296836168ALEXANDRE MONTEIRO DA ROSA              RUA MONTE CASTELON 143,                 CORONEL VEIG25655500PETROPOLIS     RJUNIAO UMB DOS CULTOS AFRO BRAS    30071915 000044
21300720190000000000080                                                                                                                                                                                                                                                                                                                                                                                   000045
10231987175000168817800093673    000045301                    000453010000000000000109                     I3445301     30061900000000040003410000017N230519105700000000000133006190000000000000000000000000000000000000000100052122832720ANTONIO JOVINO FELIX                    ESTRADA DOS VIEIRASN 105, RUA 8         PACIENCIA   23587610RIO DE JANEIRO RJUNIAO UMB DOS CULTOS AFRO BRAS    30061915 000046
21300620190000000000080                                                                                                                                                                                                                                                                                                                                                                                   000047
9                                                                                                                                                                                                                                                                                                                                                                                                         000048
