01REMESSA01COBRANCA       817800093673        União Umb dos Cultos Afro Bra341BANCO ITAU SA  071118                                                                                                                                                                                                                                                                                                      000001
10231987175000168817800093673    000033383                    000333830000000000000109                     I0133383     05121800000000700003410000017N071118104700000000000100512180000000000000000000000000000000000000000100007228499743JOANA DARC LEIROZ DE AMORIM             RUA MANHUACU                            VARGEM GRAND22785600RIO DE JANEIRO RJUNIAO UMB DOS CULTOS AFRO BRAS    05121810 000002
10231987175000168817800093673    000033382                    000333820000000000000109                     I0133382     08111800000000420003410000017N071118104700000000000100811180000000000000000000000000000000000000000100012106775717VITOR GABRIEL CARVALHO DE FIGU          RUA JUPARANA                            ANDARAI     20541135RIO DE JANEIRO RJUNIAO UMB DOS CULTOS AFRO BRAS    08111810 000003
10231987175000168817800093673    000033381                    000333810000000000000109                     I0133381     30111800000000105003410000017N071118104700000000000103011180000000000000000000000000000000000000000100000000000000ELIZABETH GANTERT DA ROCHA GUI          RUA ADRIANA                             VAL VERDE - 26351140NOVA IGUACU    RJUNIAO UMB DOS CULTOS AFRO BRAS    30111810 000004
10231987175000168817800093673    000033380                    000333800000000000000109                     I0233380     08111800000000420003410000017N071118104700000000000100811180000000000000000000000000000000000000000100012106775717VITOR GABRIEL CARVALHO DE FIGU          RUA JUPARANA                            ANDARAI     20541135RIO DE JANEIRO RJUNIAO UMB DOS CULTOS AFRO BRAS    08111810 000005
10231987175000168817800093673    000033379                    000333790000000000000109                     I0133379     30111800000000210003410000017N071118104700000000000103011180000000000000000000000000000000000000000100000000000000ZUILA DE MELO E SILVA COVA              RUA TAMOIOS                             SAO FRANCISC24360380NITEROI        RJUNIAO UMB DOS CULTOS AFRO BRAS    30111810 000006
10231987175000168817800093673    000033378                    000333780000000000000109                     I0133378     20121800000000350003410000017N071118104700000000000102012180000000000000000000000000000000000000000100010085511714JORGE THOMAZ JUNIOR                     RUA PARANA                              PIEDADE     20745250RIO DE JANEIRO RJUNIAO UMB DOS CULTOS AFRO BRAS    20121810 000007
10231987175000168817800093673    000033377                    000333770000000000000109                     I0133377     20121800000000040003410000017N071118104700000000000102012180000000000000000000000000000000000000000100010085511714JORGE THOMAZ JUNIOR                     RUA PARANA                              PIEDADE     20745250RIO DE JANEIRO RJUNIAO UMB DOS CULTOS AFRO BRAS    20121810 000008
10231987175000168817800093673    000033376                    000333760000000000000109                     I0133376     15111800000000300003410000017N071118104700000000000101511180000000000000000000000000000000000000000100004275325745MAIKE OLIVEIRA DA COSTA                 TRAVESSA MARTA DA ROCHA                 ABOLICAO    20755030RIO DE JANEIRO RJUNIAO UMB DOS CULTOS AFRO BRAS    15111810 000009
10231987175000168817800093673    000033375                    000333750000000000000109                     I0133375     30111800000000280003410000017N071118104700000000000103011180000000000000000000000000000000000000000100003558966724ANDREA CORDEIRO DA CONCEICAO S          RUA PARATI                              BOM JESUS   26298183NOVA IGUACU    RJUNIAO UMB DOS CULTOS AFRO BRAS    30111810 000010
10231987175000168817800093673    000033356                    000333560000000000000109                     I0233356     15111800000000175003410000017N011118104700000000000101511180000000000000000000000000000000000000000100000000000000ZUILA DE MELO E SILVA COVA              RUA TAMOIOS                             SAO FRANCISC24360380NITEROI        RJUNIAO UMB DOS CULTOS AFRO BRAS    15111810 000011
10231987175000168817800093673    000030129                    000301290000000000000109                     I3430129     20121800000000035003410000017N291018104700000000000102012180000000000000000000000000000000000000000100062988050791REGINA LUCIA DE SOUZA SANTOS            RUA ENGENHEIRO LAFAYETE STOCKLER        VILA DA PENH21221390RIO DE JANEIRO RJUNIAO UMB DOS CULTOS AFRO BRAS    20121810 000012
10231987175000168817800093673    000029819                    000298190000000000000109                     I0229819     20121800000000035003410000017N291018104700000000000102012180000000000000000000000000000000000000000100012106775717VITOR GABRIEL CARVALHO DE FIGU          RUA JUPARANA                            ANDARAI     20541135RIO DE JANEIRO RJUNIAO UMB DOS CULTOS AFRO BRAS    20121810 000013
10231987175000168817800093673    000029066                    000290660000000000000109                     I0229066     20121800000000035003410000017N291018104700000000000102012180000000000000000000000000000000000000000100004462200780ELAINE LOPES GONCALVES FALCAO           RUA TIUBA                               VAZ LOBO    21371170RIO DE JANEIRO RJUNIAO UMB DOS CULTOS AFRO BRAS    20121810 000014
10231987175000168817800093673    000028980                    000289800000000000000109                     I0228980     12111800000000300003410000017N221018104700000000000101211180000000000000000000000000000000000000000100074192523787RUTH DE OLIVEIRA RAMOS                  RUA DONATELO                            PRAIA DA BRI23028210RIO DE JANEIRO RJUNIAO UMB DOS CULTOS AFRO BRAS    12111810 000015
10231987175000168817800093673    000028234                    000282340000000000000109                     I3428234     30111800000000035003410000017N200818104700000000000103011180000000000000000000000000000000000000000100062988050791REGINA LUCIA DE SOUZA SANTOS            RUA ENGENHEIRO LAFAYETE STOCKLER        VILA DA PENH21221390RIO DE JANEIRO RJUNIAO UMB DOS CULTOS AFRO BRAS    30111810 000016
10231987175000168817800093673    000027906                    000279060000000000000109                     I0227906     30111800000000035003410000017N200818104700000000000103011180000000000000000000000000000000000000000100012106775717VITOR GABRIEL CARVALHO DE FIGU          RUA JUPARANA                            ANDARAI     20541135RIO DE JANEIRO RJUNIAO UMB DOS CULTOS AFRO BRAS    30111810 000017
10231987175000168817800093673    000027126                    000271260000000000000109                     I0227126     30111800000000035003410000017N200818104700000000000103011180000000000000000000000000000000000000000100004462200780ELAINE LOPES GONCALVES FALCAO           RUA TIUBA                               VAZ LOBO    21371170RIO DE JANEIRO RJUNIAO UMB DOS CULTOS AFRO BRAS    30111810 000018
10231987175000168817800093673    000026936                    000269360000000000000109                     I0226936     30091800000000035003410000017N200818104700000000000103009180000000000000000000000000000000000000000100004275325745MAIKE OLIVEIRA DA COSTA                 TRAVESSA MARTA DA ROCHA                 ABOLICAO    20755030RIO DE JANEIRO RJUNIAO UMB DOS CULTOS AFRO BRAS    30091810 000019
10231987175000168817800093673    000026492                    000264920000000000000109                     I3426492     30091800000000035003410000017N200818104700000000000103009180000000000000000000000000000000000000000100010591612739ROSEMERE SOUZA DA SILVA                 ESTRADA DA AGUA GRANDE                  VISTA ALEGRE21230354RIO DE JANEIRO RJUNIAO UMB DOS CULTOS AFRO BRAS    30091810 000020
10231987175000168817800093673    000026487                    000264870000000000000109                     I0226487     30091800000000035003410000017N200818104700000000000103009180000000000000000000000000000000000000000100012106775717VITOR GABRIEL CARVALHO DE FIGU          RUA JUPARANA                            ANDARAI     20541135RIO DE JANEIRO RJUNIAO UMB DOS CULTOS AFRO BRAS    30091810 000021
10231987175000168817800093673    000025980                    000259800000000000000109                     I0225980     30091800000000035003410000017N200818104700000000000103009180000000000000000000000000000000000000000100000000000000ELIZABETH GANTERT DA ROCHA GUI          RUA ADRIANA                             VAL VERDE - 26351140NOVA IGUACU    RJUNIAO UMB DOS CULTOS AFRO BRAS    30091810 000022
10231987175000168817800093673    000025712                    000257120000000000000109                     I0225712     30091800000000035003410000017N200818104700000000000103009180000000000000000000000000000000000000000100004462200780ELAINE LOPES GONCALVES FALCAO           RUA TIUBA                               VAZ LOBO    21371170RIO DE JANEIRO RJUNIAO UMB DOS CULTOS AFRO BRAS    30091810 000023
10231987175000168817800093673    000025521                    000255210000000000000109                     I0225521     30101800000000035003410000017N200818104700000000000103010180000000000000000000000000000000000000000100004275325745MAIKE OLIVEIRA DA COSTA                 TRAVESSA MARTA DA ROCHA                 ABOLICAO    20755030RIO DE JANEIRO RJUNIAO UMB DOS CULTOS AFRO BRAS    30101810 000024
10231987175000168817800093673    000025074                    000250740000000000000109                     I3425074     30101800000000035003410000017N200818104700000000000103010180000000000000000000000000000000000000000100010591612739ROSEMERE SOUZA DA SILVA                 ESTRADA DA AGUA GRANDE                  VISTA ALEGRE21230354RIO DE JANEIRO RJUNIAO UMB DOS CULTOS AFRO BRAS    30101810 000025
10231987175000168817800093673    000025069                    000250690000000000000109                     I0225069     30101800000000035003410000017N200818104700000000000103010180000000000000000000000000000000000000000100012106775717VITOR GABRIEL CARVALHO DE FIGU          RUA JUPARANA                            ANDARAI     20541135RIO DE JANEIRO RJUNIAO UMB DOS CULTOS AFRO BRAS    30101810 000026
10231987175000168817800093673    000024888                    000248880000000000000109                     I3424888     30101800000000035003410000017N200818104700000000000103010180000000000000000000000000000000000000000100000000001058NILO SERGIO SANTOS BARCELLOS            ESTRADA CORONEL VIEIRA                  IRAJA       21220310RIO DE JANEIRO RJUNIAO UMB DOS CULTOS AFRO BRAS    30101810 000027
10231987175000168817800093673    000024560                    000245600000000000000109                     I0224560     15111800000000035003410000017N200818104700000000000101511180000000000000000000000000000000000000000100000000000000ELIZABETH GANTERT DA ROCHA GUI          RUA ADRIANA                             VAL VERDE - 26351140NOVA IGUACU    RJUNIAO UMB DOS CULTOS AFRO BRAS    15111810 000028
10231987175000168817800093673    000024292                    000242920000000000000109                     I0224292     30101800000000035003410000017N200818104700000000000103010180000000000000000000000000000000000000000100004462200780ELAINE LOPES GONCALVES FALCAO           RUA TIUBA                               VAZ LOBO    21371170RIO DE JANEIRO RJUNIAO UMB DOS CULTOS AFRO BRAS    30101810 000029
9                                                                                                                                                                                                                                                                                                                                                                                                         000030
