01REMESSA01COBRANCA       817800093673        União Umb dos Cultos Afro Bra341BANCO ITAU SA  210619                                                                                                                                                                                                                                                                                                      000001
10231987175000168817800093673    000049660                    000496600000000000000109                     I0249660     30091900000000040003410000017N100619105700000000000133009190000000000000000000000000000000000000000100007020404790NADIR REGINA CRUZ DA SILVA              RUA DARDON 0, LOTE 1 QUADRA 225         VILAR DOS TE25565020SAO JOAO DE MERRJUNIAO UMB DOS CULTOS AFRO BRAS    30091915 000002
21300920190000000000080                                                                                                                                                                                                                                                                                                                                                                                   000003
10231987175000168817800093673    000048631                    000486310000000000000109                     I0248631     30091900000000040003410000017N100619105700000000000133009190000000000000000000000000000000000000000100002364852706SHIRLEY RODRIGUES NUNES                 RUA JUIZ GOULART MONTEIRON 10, APT 1104 VITAL BRAZIL24230370NITEROI        RJUNIAO UMB DOS CULTOS AFRO BRAS    30091915 000004
21300920190000000000080                                                                                                                                                                                                                                                                                                                                                                                   000005
10231987175000168817800093673    000048213                    000482130000000000000109                     I0248213     30081900000000040003410000017N100619105700000000000133008190000000000000000000000000000000000000000100007020404790NADIR REGINA CRUZ DA SILVA              RUA DARDON 0, LOTE 1 QUADRA 225         VILAR DOS TE25565020SAO JOAO DE MERRJUNIAO UMB DOS CULTOS AFRO BRAS    30081915 000006
21300820190000000000080                                                                                                                                                                                                                                                                                                                                                                                   000007
10231987175000168817800093673    000047194                    000471940000000000000109                     I0247194     30081900000000040003410000017N100619105700000000000133008190000000000000000000000000000000000000000100002364852706SHIRLEY RODRIGUES NUNES                 RUA JUIZ GOULART MONTEIRON 10, APT 1104 VITAL BRAZIL24230370NITEROI        RJUNIAO UMB DOS CULTOS AFRO BRAS    30081915 000008
21300820190000000000080                                                                                                                                                                                                                                                                                                                                                                                   000009
10231987175000168817800093673    000046778                    000467780000000000000109                     I0246778     30071900000000040003410000017N100619105700000000000133007190000000000000000000000000000000000000000100007020404790NADIR REGINA CRUZ DA SILVA              RUA DARDON 0, LOTE 1 QUADRA 225         VILAR DOS TE25565020SAO JOAO DE MERRJUNIAO UMB DOS CULTOS AFRO BRAS    30071915 000010
21300720190000000000080                                                                                                                                                                                                                                                                                                                                                                                   000011
10231987175000168817800093673    000045770                    000457700000000000000109                     I0245770     30071900000000040003410000017N100619105700000000000133007190000000000000000000000000000000000000000100002364852706SHIRLEY RODRIGUES NUNES                 RUA JUIZ GOULART MONTEIRON 10, APT 1104 VITAL BRAZIL24230370NITEROI        RJUNIAO UMB DOS CULTOS AFRO BRAS    30071915 000012
21300720190000000000080                                                                                                                                                                                                                                                                                                                                                                                   000013
10231987175000168817800093673    000045339                    000453390000000000000109                     I0245339     30061900000000040003410000017N030619105700000000000133006190000000000000000000000000000000000000000100007020404790NADIR REGINA CRUZ DA SILVA              RUA DARDON 0, LOTE 1 QUADRA 225         VILAR DOS TE25565020SAO JOAO DE MERRJUNIAO UMB DOS CULTOS AFRO BRAS    30061915 000014
21300620190000000000080                                                                                                                                                                                                                                                                                                                                                                                   000015
9                                                                                                                                                                                                                                                                                                                                                                                                         000016
