01REMESSA01COBRANCA       817800093673        União Umb dos Cultos Afro Bra341BANCO ITAU SA  260419                                                                                                                                                                                                                                                                                                      000001
10231987175000168817800093673    000045039                    000450390000000000000109                     I0245039     16041900000000040003410000017N100419105700000000000101604190000000000000000000000000000000000000000100092952364753ROSANGELA SILVA SOUZA                   RUA TAMOIOSN 144, FUNDOS                CENTRO      26520250NILOPOLIS      RJUNIAO UMB DOS CULTOS AFRO BRAS    16041915 000002
9                                                                                                                                                                                                                                                                                                                                                                                                         000003
