01REMESSA01COBRANCA       817800093673        União Umb dos Cultos Afro Bra341BANCO ITAU SA  190118                                                                                                                                                                                                                                                                                                      000001
10231987175000168817800093673    00007217                     000072170000000000000109                     I017217      28021800000000035003410000017N271217104700000000000102802180000000000000000000000000000000000000000100045512256714ROGERIO ALVES GUIMARAES                 RUA TODOS OS SANTOS LOTE 17 QUADRA 20   IGUABINHA - 28970000ARARUAMA       RJUNIAO UMB DOS CULTOS AFRO BRAS    28021810 000002
9                                                                                                                                                                                                                                                                                                                                                                                                         000003
