01REMESSA01COBRANCA       916200163100        União Umb dos Cultos Afro Bra341BANCO ITAU SA  011018                                                                                                                                                                                                                                                                                                      000001
10231987175000168916200163100    000028821                    000288210000000000000109                     I0128821     01101800000000070003410000017N280918104700000000000100110180000000000000000000000000000000000000000100000000000761SONIA MARIA DA SILVA DELLIVENE          AV PLINIO GOMES DE MATTOS FILHO         VARZEA DAS M24330430SAO GONCALO    RJUNIAO UMB DOS CULTOS AFRO BRAS    01101810 000002
10231987175000168916200163100    000028820                    000288200000000000000109                     I0128820     30091800000000005553410000017N280918104700000000000103009180000000000000000000000000000000000000000100005851795735JOAO LUIZ DE OLIVEIRA MAGALHAE          RUA ANTONIO CARLOS PARANHOS             VILA VALQUEI21321340RIO DE JANEIRO RJUNIAO UMB DOS CULTOS AFRO BRAS    30091810 000003
10231987175000168916200163100    000028819                    000288190000000000000109                     I0128819     01101800000000035003410000017N280918104700000000000100110180000000000000000000000000000000000000000100000000000761SONIA MARIA DA SILVA DELLIVENE          AV PLINIO GOMES DE MATTOS FILHO         VARZEA DAS M24330430SAO GONCALO    RJUNIAO UMB DOS CULTOS AFRO BRAS    01101810 000004
10231987175000168916200163100    000028818                    000288180000000000000109                     I0128818     30111800000000040003410000017N280918104700000000000103011180000000000000000000000000000000000000000100001485344735JULIO CESAR PEREIRA AGRA                RUA: MANAUS                             REALENGO    21730050RIO DE JANEIRO RJUNIAO UMB DOS CULTOS AFRO BRAS    30111810 000005
10231987175000168916200163100    000028817                    000288170000000000000109                     I3428817     29091800000000490003410000017N270918104700000000000102909180000000000000000000000000000000000000000100009057240700ILAN FERNANDES BRAZILEIRO               RUA NICARAGUA                           PARQUE HOTEL28970000ARARUAMA       RJUNIAO UMB DOS CULTOS AFRO BRAS    29091810 000006
10231987175000168916200163100    000028816                    000288160000000000000109                     I0128816     30091800000000245003410000017N270918104700000000000103009180000000000000000000000000000000000000000100082347301772MARISTELA TORQUATO SILVA BRITT          O MESMO                                 O MESMO     26535340NILOPOLIS      RJUNIAO UMB DOS CULTOS AFRO BRAS    30091810 000007
10231987175000168916200163100    000021313                    000213130000000000000109                     I0221313     10081800000000035003410000017N230718104700000000000101008180000000000000000000000000000000000000000100007609502707WALDENILSON DUARTE DOS SANTOS           RUA ITABAIANA 93 FDS QD 113 LT 19       CABUCU - NOV26355500RIO DE JANEIRO RJUNIAO UMB DOS CULTOS AFRO BRAS    10081810 000008
10231987175000168916200163100    000020652                    000206520000000000000109                     I0220652     30081800000000035003410000017N070518104700000000000103008180000000000000000000000000000000000000000100014520518792STEPHANI MATOS MONTEIRO                 ESTRADA DOUTOR PLINIO CASADO            CENTRO      26130622BELFORD ROXO   RJUNIAO UMB DOS CULTOS AFRO BRAS    30081810 000009
10231987175000168916200163100    000020533                    000205330000000000000109                     I0220533     30081800000000035003410000017N070518104700000000000103008180000000000000000000000000000000000000000100001430160754RITA DE CASSIA CORMACK DE CARV          RUA: MANOEL IVO                         VILA TRES - 24711030SAO GONCALO    RJUNIAO UMB DOS CULTOS AFRO BRAS    30081810 000010
10231987175000168916200163100    000020237                    000202370000000000000109                     I0220237     30081800000000035003410000017N070518104700000000000103008180000000000000000000000000000000000000000100002830222725SHEILA RODRIGUES                        RUA: DOS OPERARIOS                      NOVO MUNDO  25900000MAGE           RJUNIAO UMB DOS CULTOS AFRO BRAS    30081810 000011
10231987175000168916200163100    000019844                    000198440000000000000109                     I0219844     14091800000000035003410000017N070518104700000000000101409180000000000000000000000000000000000000000100041247078787ANTONIO NARCISO RUSSI DA SILVA          RUA DEOLINDA MARTINS N 359 KM 42        JARDIM CENTR23845110SEROPEDICA     RJUNIAO UMB DOS CULTOS AFRO BRAS    14091810 000012
10231987175000168916200163100    000019839                    000198390000000000000109                     I0219839     30081800000000035003410000017N070518104700000000000103008180000000000000000000000000000000000000000100000672393743RAFAEL CASAMASSO DA COSTA               RUA: JOAO CAETANO                       CENTRO      25610010PETROPOLIS     RJUNIAO UMB DOS CULTOS AFRO BRAS    30081810 000013
10231987175000168916200163100    000019492                    000194920000000000000109                     I0219492     01101800000000070003410000017N070518104700000000000100110180000000000000000000000000000000000000000100000000000761SONIA MARIA DA SILVA DELLIVENE          AV PLINIO GOMES DE MATTOS FILHO         VARZEA DAS M24330430SAO GONCALO    RJUNIAO UMB DOS CULTOS AFRO BRAS    01101810 000014
10231987175000168916200163100    000019388                    000193880000000000000109                     I0219388     30081800000000035003410000017N070518104700000000000103008180000000000000000000000000000000000000000100082347301772MARISTELA TORQUATO SILVA BRITT          O MESMO                                 O MESMO     26535340NILOPOLIS      RJUNIAO UMB DOS CULTOS AFRO BRAS    30081810 000015
10231987175000168916200163100    000018274                    000182740000000000000109                     I0218274     14091800000000035003410000017N070518104700000000000101409180000000000000000000000000000000000000000100041247078787ANTONIO NARCISO RUSSI DA SILVA          RUA DEOLINDA MARTINS N 359 KM 42        JARDIM CENTR23845110SEROPEDICA     RJUNIAO UMB DOS CULTOS AFRO BRAS    14091810 000016
9                                                                                                                                                                                                                                                                                                                                                                                                         000017
