01REMESSA01COBRANCA       916200163100        União Umb dos Cultos Afro Bra341BANCO ITAU SA  190818                                                                                                                                                                                                                                                                                                      000001
10231987175000168916200163100    000021321                    000213210000000000000109                     I0221321     30081800000000035003410000017N250718104700000000000103008180000000000000000000000000000000000000000100010836647785FERNANDO DOS SANTOS DO NORTE            RUA: ITAPAGE                            JARDIM SAO G26381429QUEIMADOS      RJUNIAO UMB DOS CULTOS AFRO BRAS    30081810 000002
10231987175000168916200163100    000021298                    000212980000000000000109                     I0221298     30081800000000035003410000017N130718104700000000000103008180000000000000000000000000000000000000000100000213766701ROSIVANIA CRUZ DA SILVA                 RUA: ERNANI DE BRITO                    SEPETIBA    23535131RIO DE JANEIRO RJUNIAO UMB DOS CULTOS AFRO BRAS    30081810 000003
10231987175000168916200163100    000021297                    000212970000000000000109                     I0221297     30071800000000035003410000017N130718104700000000000103007180000000000000000000000000000000000000000100000213766701ROSIVANIA CRUZ DA SILVA                 RUA: ERNANI DE BRITO                    SEPETIBA    23535131RIO DE JANEIRO RJUNIAO UMB DOS CULTOS AFRO BRAS    30071810 000004
10231987175000168916200163100    000021101                    000211010000000000000109                     I0221101     30061800000000035003410000017N280518104700000000000103006180000000000000000000000000000000000000000100093678754791ROSINETE MARIA DE OLIVEIRA              RUA ANGOLA                              CAPIVARI    25145080DUQUE DE CAXIASRJUNIAO UMB DOS CULTOS AFRO BRAS    30061810 000005
10231987175000168916200163100    000021098                    000210980000000000000109                     I0221098     30061800000000035003410000017N280518104700000000000103006180000000000000000000000000000000000000000100001096953722CLAUDIA GUIMARAES                       ESTRADA GUANDU DO SENA - RUA 29         CAMPO GRANDE23091220RIO DE JANEIRO RJUNIAO UMB DOS CULTOS AFRO BRAS    30061810 000006
10231987175000168916200163100    000021095                    000210950000000000000109                     I0221095     30061800000000035003410000017N280518104700000000000103006180000000000000000000000000000000000000000100009289778709HELAINE FRANKLIN TEIXEIRA               RUA CACHOEIRA ALTA                      JARDIM MARAV23031070CAMPO GRANDE   RJUNIAO UMB DOS CULTOS AFRO BRAS    30061810 000007
10231987175000168916200163100    000021080                    000210800000000000000109                     I0221080     30061800000000035003410000017N250518104700000000000103006180000000000000000000000000000000000000000100002379534713ALEX EVANDRO CORREIA PETITINGA          RUA CARDOSO QUINTAO                     PIEDADE     21381460RIO DE JANEIRO RJUNIAO UMB DOS CULTOS AFRO BRAS    30061810 000008
10231987175000168916200163100    000021074                    000210740000000000000109                     I0221074     30061800000000035003410000017N250518104700000000000103006180000000000000000000000000000000000000000100000000010960DENISE DOS SANTOS OLIVEIRA              MESMO                                   MESMO       26335430RIO DE JANEIRO RJUNIAO UMB DOS CULTOS AFRO BRAS    30061810 000009
10231987175000168916200163100    000021049                    000210490000000000000109                     I0221049     30061800000000040003410000017N220518104700000000000103006180000000000000000000000000000000000000000100095760024787LUCIMARA DIAS DE OLIVEIRA               RUA SANTO ELIAS                         TURIACU     21540390RIO DE JANEIRO RJUNIAO UMB DOS CULTOS AFRO BRAS    30061810 000010
10231987175000168916200163100    000021046                    000210460000000000000109                     I0221046     30061800000000035003410000017N220518104700000000000103006180000000000000000000000000000000000000000100002730493727ALBERTO ALEXANDRE DOS SANTOS M          RUA ECA DE QUEIROZ, QUADRA 60 LOTE 2    PANTANAL - D25040350DUQUE DE CAXIASRJUNIAO UMB DOS CULTOS AFRO BRAS    30061810 000011
10231987175000168916200163100    000021002                    000210020000000000000109                     I0221002     30061800000000035003410000017N180518104700000000000103006180000000000000000000000000000000000000000100003654035710ELLEN CRISTINA DE ORNELAS NARC          RUA MARECHAL MARCIANO                   REALENGO    21721011RIO DE JANEIRO RJUNIAO UMB DOS CULTOS AFRO BRAS    30061810 000012
10231987175000168916200163100    000020988                    000209880000000000000109                     I0220988     30061800000000035003410000017N150518104700000000000103006180000000000000000000000000000000000000000100012687881716DAIANA SANTANA DE LIMA                  RUA MANAUS                              CAMPOS ELISE25225000DUQUE DE CAXIASRJUNIAO UMB DOS CULTOS AFRO BRAS    30061810 000013
10231987175000168916200163100    000020935                    000209350000000000000109                     I0220935     30061800000000035003410000017N100518104700000000000103006180000000000000000000000000000000000000000100000000000123MARCOS AURELIO WOLF GARCIA              RUA: PROFESSORA CARMELITA MARTINS Nº 21PRACA SECA -21321220RIO DE JANEIRO RJUNIAO UMB DOS CULTOS AFRO BRAS    30061810 000014
10231987175000168916200163100    000020927                    000209270000000000000109                     I0220927     30061800000000035003410000017N100518104700000000000103006180000000000000000000000000000000000000000200000000001673DAVID MOREIRA DE MENDONCA               RUA GENERAL RENATO PIQUET, LOTE 27 QUADRVILA GENI - 23825460ITAGUAI        RJUNIAO UMB DOS CULTOS AFRO BRAS    30061810 000015
10231987175000168916200163100    000020915                    000209150000000000000109                     I0220915     30061800000000035003410000017N100518104700000000000103006180000000000000000000000000000000000000000100003408195706MONICA VALERIA COSTA BARAUNA            AVENDIA: CARNAUBEIRA Nº 415 - GUARATIBARIO DE JANEI23032080RIO DE JANEIRO RJUNIAO UMB DOS CULTOS AFRO BRAS    30061810 000016
10231987175000168916200163100    000020907                    000209070000000000000109                     I0220907     30061800000000035003410000017N100518104700000000000103006180000000000000000000000000000000000000000100061185841768ELIZABETH CATARINA DE JESUS             RUA ALMIRANTE INGRA, 700                BRAS DE PINA21210170RIO DE JANEIRO RJUNIAO UMB DOS CULTOS AFRO BRAS    30061810 000017
10231987175000168916200163100    000020904                    000209040000000000000109                     I0220904     30061800000000035003410000017N100518104700000000000103006180000000000000000000000000000000000000000200000000006863HILDA REGINA NICANOR DOS SANTO          O MESMO                                 O MESMO     26298189NOVA IGUACU    RJUNIAO UMB DOS CULTOS AFRO BRAS    30061810 000018
10231987175000168916200163100    000020898                    000208980000000000000109                     I0220898     30061800000000035003410000017N100518104700000000000103006180000000000000000000000000000000000000000100005963954770SANDRA MARIA DA SILVA SANTOS            RUA JOAO RAIMUNDO N 171                 VILA SANTO A25041400DUQUE DE CAXIASRJUNIAO UMB DOS CULTOS AFRO BRAS    30061810 000019
10231987175000168916200163100    000020863                    000208630000000000000109                     I0220863     30061800000000035003410000017N100518104700000000000103006180000000000000000000000000000000000000000100007852297790IRENE FRANCISCO LIMA                    RUA: VIRGILIO VARZEA                    VILA SAO LUI25051110DUQUE DE CAXIASRJUNIAO UMB DOS CULTOS AFRO BRAS    30061810 000020
10231987175000168916200163100    000020845                    000208450000000000000109                     I0220845     30061800000000035003410000017N090518104700000000000103006180000000000000000000000000000000000000000100009906412798RONNEY NUNES POLI                       RUA NOVA HORIZONTE N 5                  SEPETIBA - R23540133RIO DE JANEIRO RJUNIAO UMB DOS CULTOS AFRO BRAS    30061810 000021
10231987175000168916200163100    000020832                    000208320000000000000109                     I0220832     30061800000000035003410000017N090518104700000000000103006180000000000000000000000000000000000000000100079034780791PAULO ROBERTO DE SOUZA MORENO           RUA CORONEL MALHAES                     TIRADENTES  26351180NOVA IGUACU    RJUNIAO UMB DOS CULTOS AFRO BRAS    30061810 000022
10231987175000168916200163100    000020829                    000208290000000000000109                     I0220829     30061800000000035003410000017N090518104700000000000103006180000000000000000000000000000000000000000100004460142732CRISTIANO ARAUJO DE OLIVEIRA            R: SERIDO N 20 QD 1 LOTE 15             NOVA IGUACU 26291482NOVA IGUACU    RJUNIAO UMB DOS CULTOS AFRO BRAS    30061810 000023
10231987175000168916200163100    000020826                    000208260000000000000109                     I0220826     30061800000000035003410000017N090518104700000000000103006180000000000000000000000000000000000000000100010749011777LUIZ CARLOS LOYOLA ALVES                RUA: OURO PRETO                         NOVA IGUACU 26297144NOVA IGUACU    RJUNIAO UMB DOS CULTOS AFRO BRAS    30061810 000024
10231987175000168916200163100    000020813                    000208130000000000000109                     I0220813     30061800000000035003410000017N080518104700000000000103006180000000000000000000000000000000000000000100007324399738JACANA MONTEIRO DO AMARAL               RUA: MESQUITA Nº 573 - SAO ROQUE       QUEIMADOS - 23310170QUEIMADOS      RJUNIAO UMB DOS CULTOS AFRO BRAS    30061810 000025
10231987175000168916200163100    000020810                    000208100000000000000109                     I0220810     30061800000000035003410000017N080518104700000000000103006180000000000000000000000000000000000000000100004701154750VIVIANE FELIX GOMES                     RUA GANDARELA Nº 158                   BOM PASTOR -26195460BELFORD ROXO   RJUNIAO UMB DOS CULTOS AFRO BRAS    30061810 000026
10231987175000168916200163100    000020806                    000208060000000000000109                     I0220806     30061800000000035003410000017N080518104700000000000103006180000000000000000000000000000000000000000100005229971711CATIA CILENE MASCARENHAS                TRAVESSA AMOR DO CAMPO                  CONJUNTO SAN21843743CAMPO GRANDE   RJUNIAO UMB DOS CULTOS AFRO BRAS    30061810 000027
10231987175000168916200163100    000020712                    000207120000000000000109                     I3420712     30081800000000035003410000017N070518104700000000000103008180000000000000000000000000000000000000000100004253784704ALEXANDRE SIMOES NASCIMENTO             RUA SEBASTIAO DRUMOND                   ANCHIETA    21640360RIO DE JANEIRO RJUNIAO UMB DOS CULTOS AFRO BRAS    30081810 000028
10231987175000168916200163100    000020377                    000203770000000000000109                     I3420377     30081800000000035003410000017N070518104700000000000103008180000000000000000000000000000000000000000100003003808789ADRIANA LUCIANA DA SILVA                AVENIDA VICENTE DE CARVALHO, 1086, RUA AVICENTE DE C21210024RIO DE JANEIRO RJUNIAO UMB DOS CULTOS AFRO BRAS    30081810 000029
10231987175000168916200163100    000019786                    000197860000000000000109                     I3419786     30081800000000035003410000017N070518104700000000000103008180000000000000000000000000000000000000000100002175979717CLAUDIA PILAR PERES SANTOS DE           RUA JOAO MACIEIRA                       MADUREIRA   21310090RIO DE JANEIRO RJUNIAO UMB DOS CULTOS AFRO BRAS    30081810 000030
10231987175000168916200163100    000019677                    000196770000000000000109                     I0219677     30081800000000035003410000017N070518104700000000000103008180000000000000000000000000000000000000000100007972604711ADRIANA TAVARES DA CONCEICAO            RUA: PEREIRO                            TAQUARA - JA22723155RIO DE JANEIRO RJUNIAO UMB DOS CULTOS AFRO BRAS    30081810 000031
10231987175000168916200163100    000019327                    000193270000000000000109                     I3419327     30081800000000035003410000017N070518104700000000000103008180000000000000000000000000000000000000000100043082033768LEILA RAMOS DE OLIVEIRA                 RUA CAPIBARIBE, 361                     CABUCU - NOV26346290NOVA IGUACU    RJUNIAO UMB DOS CULTOS AFRO BRAS    30081810 000032
10231987175000168916200163100    000018888                    000188880000000000000109                     I0218888     30071800000000035003410000017N070518104700000000000103007180000000000000000000000000000000000000000100057231737749ELIZABETE CARVALHO COSTA                RUA EXPEDICIONARIO SIMAO FERNANDES, 31 BCOLUMBANDE -24451700SAO GONCALO    RJUNIAO UMB DOS CULTOS AFRO BRAS    30071810 000033
10231987175000168916200163100    000018216                    000182160000000000000109                     I3418216     30071800000000035003410000017N070518104700000000000103007180000000000000000000000000000000000000000100002175979717CLAUDIA PILAR PERES SANTOS DE           RUA JOAO MACIEIRA                       MADUREIRA   21310090RIO DE JANEIRO RJUNIAO UMB DOS CULTOS AFRO BRAS    30071810 000034
10231987175000168916200163100    000018107                    000181070000000000000109                     I0218107     30071800000000035003410000017N070518104700000000000103007180000000000000000000000000000000000000000100007972604711ADRIANA TAVARES DA CONCEICAO            RUA: PEREIRO                            TAQUARA - JA22723155RIO DE JANEIRO RJUNIAO UMB DOS CULTOS AFRO BRAS    30071810 000035
10231987175000168916200163100    000018043                    000180430000000000000109                     I0218043     30071800000000035003410000017N070518104700000000000103007180000000000000000000000000000000000000000100000000000373ANDRE LUIZ DINIZ CARDOSO                RUA CORDOVIL,                           PARADA DE LU21250450RIO DE JANEIRO RJUNIAO UMB DOS CULTOS AFRO BRAS    30071810 000036
10231987175000168916200163100    000016041                    000160410000000000000109                     I0216041     30061800000000035003410000017N070518104700000000000103006180000000000000000000000000000000000000000100000905236793ROSE GREGO SILVA DE SOUZA               RUA FLEXAL                              INHAUMA     20766610RIO DE JANEIRO RJUNIAO UMB DOS CULTOS AFRO BRAS    30061810 000037
10231987175000168916200163100    000016038                    000160380000000000000109                     I0216038     30061800000000040003410000017N070518104700000000000103006180000000000000000000000000000000000000000100064494527734RONALDO ROSAS ALVES                     ESTRADA COMANDANTE                      PRATA       25976140TERESOPOLIS    RJUNIAO UMB DOS CULTOS AFRO BRAS    30061810 000038
10231987175000168916200163100    000016031                    000160310000000000000109                     I0216031     30061800000000040003410000017N070518104700000000000103006180000000000000000000000000000000000000000100012295676746JEFFERSON ANTONIO TELLES GALDI          RUA MOUZIN DE ALBUQUERQUE               SAO VICENTE 26178080BELFORD ROXO   RJUNIAO UMB DOS CULTOS AFRO BRAS    30061810 000039
10231987175000168916200163100    000016023                    000160230000000000000109                     I0216023     30061800000000040003410000017N070518104700000000000103006180000000000000000000000000000000000000000100001253277737MARIA JOSE DANTAS MOREIRA               RUA SETE DE JUNHO                       PRAIA DE MAU25925732MAGE           RJUNIAO UMB DOS CULTOS AFRO BRAS    30061810 000040
10231987175000168916200163100    000016022                    000160220000000000000109                     I0216022     30061800000000035003410000017N070518104700000000000103006180000000000000000000000000000000000000000100003250570596VERONICA LUCIA DA CRUZ                  ESTRADA DOUTOR FARRULA                  SAO FRANCISC26125400BELFORD ROXO   RJUNIAO UMB DOS CULTOS AFRO BRAS    30061810 000041
10231987175000168916200163100    000016021                    000160210000000000000109                     I0216021     30061800000000035003410000017N070518104700000000000103006180000000000000000000000000000000000000000100002527980740ARMANDO DE ALMEIDA                      PEDRO JOSE DE OLIVEIRA                  VARGEM GRAND27145231BARRA DO PIRAI RJUNIAO UMB DOS CULTOS AFRO BRAS    30061810 000042
10231987175000168916200163100    000016020                    000160200000000000000109                     I0216020     30061800000000035003410000017N070518104700000000000103006180000000000000000000000000000000000000000100005978854785ALEXANDRE MOTA DOS SANTOS               RUA: BRUNO SENDER                       JARDIM NOVA 26266040NOVA IGUACU    RJUNIAO UMB DOS CULTOS AFRO BRAS    30061810 000043
10231987175000168916200163100    000016011                    000160110000000000000109                     I0216011     30061800000000035003410000017N070518104700000000000103006180000000000000000000000000000000000000000100001161586709ALEXANDRE PIMPAREL DA SILVA             RUA: COMENDADOR VENACIO                 PALHADA     26290204NOVA IGUACU    RJUNIAO UMB DOS CULTOS AFRO BRAS    30061810 000044
10231987175000168916200163100    000016010                    000160100000000000000109                     I0216010     30061800000000035003410000017N070518104700000000000103006180000000000000000000000000000000000000000100000000013086FABIO DA SILVA                          RUA: CAMORIM                            JARDIM DELAM26317140QUEIMADOS      RJUNIAO UMB DOS CULTOS AFRO BRAS    30061810 000045
10231987175000168916200163100    000016009                    000160090000000000000109                     I0216009     30061800000000035003410000017N070518104700000000000103006180000000000000000000000000000000000000000100010765062755IVONE JOAO PEDRO                        RUA MARMIARI                            SENADOR CAMA21831000RIO DE JANEIRO RJUNIAO UMB DOS CULTOS AFRO BRAS    30061810 000046
10231987175000168916200163100    000016008                    000160080000000000000109                     I0216008     30061800000000035003410000017N070518104700000000000103006180000000000000000000000000000000000000000100085957679720MARIA DA APARECIDA VICENTE DUQ          RUA: FRANCISCO VIOLTI                   HELIOPLOIS  26125440BELFORD ROXO   RJUNIAO UMB DOS CULTOS AFRO BRAS    30061810 000047
10231987175000168916200163100    000016006                    000160060000000000000109                     I0216006     30061800000000035003410000017N070518104700000000000103006180000000000000000000000000000000000000000100010018753701PAULA DE BRITO                          RUA FRANCISCO VIOLTI                    HELIOPOLIS  26125440RIO DE JANEIRO RJUNIAO UMB DOS CULTOS AFRO BRAS    30061810 000048
10231987175000168916200163100    000016002                    000160020000000000000109                     I0216002     30061800000000035003410000017N070518104700000000000103006180000000000000000000000000000000000000000100058756280734SANDRA REGINA DA CONCEICAO              RUA BUENOS AIRES                        JARDIM PERNA26275390NOVA IGUACU    RJUNIAO UMB DOS CULTOS AFRO BRAS    30061810 000049
10231987175000168916200163100    000016001                    000160010000000000000109                     I0216001     30061800000000035003410000017N070518104700000000000103006180000000000000000000000000000000000000000100032637128764MARLENE DA CRUZ                         AVENIDA ABILIO AUGUSTO TAVORA           VALVERDE    26290600NOVA IGUACU    RJUNIAO UMB DOS CULTOS AFRO BRAS    30061810 000050
10231987175000168916200163100    000015998                    000159980000000000000109                     I0215998     30061800000000035003410000017N070518104700000000000103006180000000000000000000000000000000000000000100000858723778GEOVANI FERNANDA DA SILVA               RUA SOFIA BARRETO                       VITOR DUMAS 23550700RIO DE JANEIRO RJUNIAO UMB DOS CULTOS AFRO BRAS    30061810 000051
10231987175000168916200163100    000015996                    000159960000000000000109                     I0215996     30061800000000035003410000017N070518104700000000000103006180000000000000000000000000000000000000000100000919377793JOSE IVAN MARCELINO FILHO               RUA ERNANE PEREIRA                      CARLOS SAMPA26089115NOVA IGUACU    RJUNIAO UMB DOS CULTOS AFRO BRAS    30061810 000052
10231987175000168916200163100    000015995                    000159950000000000000109                     I0215995     30061800000000035003410000017N070518104700000000000103006180000000000000000000000000000000000000000100001649750714CRISTIANE JOSE DA SILVA                 AVENIDA CALOMBE                         PARQUE ELDOR25231020DUQUE DE CAXIASRJUNIAO UMB DOS CULTOS AFRO BRAS    30061810 000053
10231987175000168916200163100    000015990                    000159900000000000000109                     I0215990     30061800000000040003410000017N070518104700000000000103006180000000000000000000000000000000000000000100005234258726LUANNA RODRIGUES NASCIMENTO LO          RUA SETE SN                             VALERIO     28680000CACHOEIRA DE MARJUNIAO UMB DOS CULTOS AFRO BRAS    30061810 000054
10231987175000168916200163100    000015989                    000159890000000000000109                     I0215989     30061800000000040003410000017N070518104700000000000103006180000000000000000000000000000000000000000100005770480742NARAYAMA MARTINS RODRIGUES LOU          RUA NABYCALIFA                          TABORDA     28680000CACHOEIRA DE MARJUNIAO UMB DOS CULTOS AFRO BRAS    30061810 000055
10231987175000168916200163100    000015987                    000159870000000000000109                     I0215987     30061800000000040003410000017N070518104700000000000103006180000000000000000000000000000000000000000100009963194761FERNANDO PECANHA PIRES                  RUA GENERAL BASILIO                     TABORDA     28680000CACHOEIRA DE MARJUNIAO UMB DOS CULTOS AFRO BRAS    30061810 000056
10231987175000168916200163100    000015985                    000159850000000000000109                     I0215985     30061800000000035003410000017N070518104700000000000103006180000000000000000000000000000000000000000100002331392730ANA MARIA DOS SANTOS VIEIRA             RUA OITO                                PARQUE ALVOR26053220NOVA IGUACU    RJUNIAO UMB DOS CULTOS AFRO BRAS    30061810 000057
10231987175000168916200163100    000015983                    000159830000000000000109                     I0215983     30061800000000035003410000017N070518104700000000000103006180000000000000000000000000000000000000000100003018847733MARIA AILHA BERNARDO PINTO              RUA RUBIAO JUNIOR                       CENTRO      23860000MANGARATIBA    RJUNIAO UMB DOS CULTOS AFRO BRAS    30061810 000058
10231987175000168916200163100    000015981                    000159810000000000000109                     I0215981     30061800000000035003410000017N070518104700000000000103006180000000000000000000000000000000000000000100012345678910LUCIANO GONCALVES DE SOUZA              RUA CLARIMUNDO DE MELO                  PIEDADE     20740323RIO DE JANEIRO RJUNIAO UMB DOS CULTOS AFRO BRAS    30061810 000059
10231987175000168916200163100    000015980                    000159800000000000000109                     I0215980     30061800000000035003410000017N070518104700000000000103006180000000000000000000000000000000000000000100001162883707SUNEY MENEZES MACHADO                   ESTRADA: DO ENCANAMENTO                 BARBADO     23060000RIO DE JANEIRO RJUNIAO UMB DOS CULTOS AFRO BRAS    30061810 000060
10231987175000168916200163100    000015979                    000159790000000000000109                     I0215979     30061800000000035003410000017N070518104700000000000103006180000000000000000000000000000000000000000100004275325745MAIKE OLIVEIRA DA COSTA                 TRAVESSA: MARTA DA ROCHA                ABOLICAO    20755030RIO DE JANEIRO RJUNIAO UMB DOS CULTOS AFRO BRAS    30061810 000061
10231987175000168916200163100    000015976                    000159760000000000000109                     I0215976     30061800000000035003410000017N070518104700000000000103006180000000000000000000000000000000000000000100006915594736CINTIA FERREIRA                         RUA VALDEMAR GALDINO                    JARDIM BELO 22631004RIO DE JANEIRO RJUNIAO UMB DOS CULTOS AFRO BRAS    30061810 000062
10231987175000168916200163100    000015973                    000159730000000000000109                     I0215973     30061800000000035003410000017N070518104700000000000103006180000000000000000000000000000000000000000100003387547720APARECIDA DOS SANTOS                    RUA CRACATUA                            HELIOPOLIS  26125170BELFORD ROXO   RJUNIAO UMB DOS CULTOS AFRO BRAS    30061810 000063
10231987175000168916200163100    000015972                    000159720000000000000109                     I0215972     30061800000000035003410000017N070518104700000000000103006180000000000000000000000000000000000000000100090219023700GUARACIARA CORREA PASCHOAL              RUA JOSE CABRAL                         VAL VERDE   26290783NOVA IGUACU    RJUNIAO UMB DOS CULTOS AFRO BRAS    30061810 000064
10231987175000168916200163100    000015969                    000159690000000000000109                     I0215969     30061800000000035003410000017N070518104700000000000103006180000000000000000000000000000000000000000100023970090563MARCIA VIEIRA SALES                     RUA LOPO SARAIVA                        TANQUE- JACA22740220RIO DE JANEIRO RJUNIAO UMB DOS CULTOS AFRO BRAS    30061810 000065
10231987175000168916200163100    000015966                    000159660000000000000109                     I0215966     30061800000000035003410000017N070518104700000000000103006180000000000000000000000000000000000000000100006726905432DAYVIDY RAMON CANDIDO                   RUA MARACA                              PARQUE MUCAJ26415055JAPERI         RJUNIAO UMB DOS CULTOS AFRO BRAS    30061810 000066
10231987175000168916200163100    000015963                    000159630000000000000109                     I0215963     30061800000000035003410000017N070518104700000000000103006180000000000000000000000000000000000000000100009445907728VICTOR DOS SANTOS ALLEN                 RUA PEDRO TELES                         CENTRO      25515032SAO JOAO DE MERRJUNIAO UMB DOS CULTOS AFRO BRAS    30061810 000067
10231987175000168916200163100    000015961                    000159610000000000000109                     I0215961     30061800000000035003410000017N070518104700000000000103006180000000000000000000000000000000000000000100009145082707ELAINE CRISTINA DE MORAES               RUA GENTIL DO OURO                      AGUIAR TORRE23063340INHOAIBA       RJUNIAO UMB DOS CULTOS AFRO BRAS    30061810 000068
10231987175000168916200163100    000015960                    000159600000000000000109                     I0215960     30061800000000035003410000017N070518104700000000000103006180000000000000000000000000000000000000000100015429555134OBIRACI SILVA DO NASCIMENTO             ESTRADA VELHA DE MARICA                 MARIA PAULA 24756280SAO GONCALO    RJUNIAO UMB DOS CULTOS AFRO BRAS    30061810 000069
10231987175000168916200163100    000015958                    000159580000000000000109                     I0215958     30061800000000035003410000017N070518104700000000000103006180000000000000000000000000000000000000000100000000013012LUCIANO SOARES DA SILVA                 RUA: MEDEIROS AGUAS MARAVILHOSAS        LINHA AZUL  27910000MACAE          RJUNIAO UMB DOS CULTOS AFRO BRAS    30061810 000070
10231987175000168916200163100    000015957                    000159570000000000000109                     I0215957     30061800000000035003410000017N070518104700000000000103006180000000000000000000000000000000000000000100013849060705LEONARDO ENEDINA DE MELO                RUA: JULIO VERNER                       SANTA RITA  26050517NOVA IGUACU    RJUNIAO UMB DOS CULTOS AFRO BRAS    30061810 000071
10231987175000168916200163100    000015956                    000159560000000000000109                     I0215956     30061800000000035003410000017N070518104700000000000103006180000000000000000000000000000000000000000100082391106734CASSIO SOUZA DA COSTA                   RUA RIACHUELO                           JARDIM ESTOR26112220BELFORD ROXO   RJUNIAO UMB DOS CULTOS AFRO BRAS    30061810 000072
10231987175000168916200163100    000015955                    000159550000000000000109                     I0215955     30061800000000035003410000017N070518104700000000000103006180000000000000000000000000000000000000000100087798999787NILZETE DA CONCEICAO FELIX              RUA PROJETADA                           JARDIM ANHAN25264030DUQUE DE CAXIASRJUNIAO UMB DOS CULTOS AFRO BRAS    30061810 000073
10231987175000168916200163100    000015947                    000159470000000000000109                     I0215947     30061800000000035003410000017N070518104700000000000103006180000000000000000000000000000000000000000100009250353782LUIZ CARLOS MATOLA                      APIACA                                  JARDIM PRIMA25056270DUQUE DE CAXIASRJUNIAO UMB DOS CULTOS AFRO BRAS    30061810 000074
10231987175000168916200163100    000015946                    000159460000000000000109                     I0215946     30061800000000035003410000017N070518104700000000000103006180000000000000000000000000000000000000000100012345678910LUCIANA LUISA PEREIRA                   TRAVESSA JOAO DE BARRO                  LAGOMAR     27966870MACAE          RJUNIAO UMB DOS CULTOS AFRO BRAS    30061810 000075
10231987175000168916200163100    000015945                    000159450000000000000109                     I0215945     30061800000000035003410000017N070518104700000000000103006180000000000000000000000000000000000000000100012464631728DIEGO TACITO COSTA HENRIQUE             RUA YONE MUSSI                          MALVINAS    27946310MACAE          RJUNIAO UMB DOS CULTOS AFRO BRAS    30061810 000076
10231987175000168916200163100    000015944                    000159440000000000000109                     I0215944     30061800000000035003410000017N070518104700000000000103006180000000000000000000000000000000000000000100000000001299MARIA DA PENHA CORREA PINTO             RUA UM                                  BOSQUE AZUL 27971250MACAE          RJUNIAO UMB DOS CULTOS AFRO BRAS    30061810 000077
10231987175000168916200163100    000015943                    000159430000000000000109                     I0215943     30061800000000035003410000017N070518104700000000000103006180000000000000000000000000000000000000000100078514533568PAULO SERGIO SANTOS SANTANA             RUA: W                                  LAGOMAR     27966590MACAE          RJUNIAO UMB DOS CULTOS AFRO BRAS    30061810 000078
10231987175000168916200163100    000015941                    000159410000000000000109                     I0215941     30061800000000035003410000017N070518104700000000000103006180000000000000000000000000000000000000000100007208431701WEMERSON JOAO FARIAS DA SILVA           RUA: C                                  SEPETIBA    23545040RIO DE JANEIRO RJUNIAO UMB DOS CULTOS AFRO BRAS    30061810 000079
10231987175000168916200163100    000015940                    000159400000000000000109                     I0215940     30061800000000035003410000017N070518104700000000000103006180000000000000000000000000000000000000000100073960560710CLAUDIA MARIA DE OLIVEIRA DOS           RUA: CARATUVA                           JARDIM SULAC22725020RIO DE JANEIRO RJUNIAO UMB DOS CULTOS AFRO BRAS    30061810 000080
10231987175000168916200163100    000015939                    000159390000000000000109                     I0215939     30061800000000035003410000017N070518104700000000000103006180000000000000000000000000000000000000000100014933850704LIDIA GABRIELLE DIAS RIBEIRO            RUA JORGE BRAGANCA                      BOM PASTOR  26110080BELFORD ROXO   RJUNIAO UMB DOS CULTOS AFRO BRAS    30061810 000081
10231987175000168916200163100    000015938                    000159380000000000000109                     I0215938     30061800000000035003410000017N070518104700000000000103006180000000000000000000000000000000000000000100097990531704CICERO ROGERIO DA SILVA MATOS           RUA: ROBERTO                            VILA GUIMARA26088425NOVA IGUACU    RJUNIAO UMB DOS CULTOS AFRO BRAS    30061810 000082
10231987175000168916200163100    000015937                    000159370000000000000109                     I0215937     30061800000000035003410000017N070518104700000000000103006180000000000000000000000000000000000000000100001478776790CLEUSA FERREIRA PEREIRA                 RUA THEREMIN                            COELHO NETO 21530290RIO DE JANEIRO RJUNIAO UMB DOS CULTOS AFRO BRAS    30061810 000083
10231987175000168916200163100    000015935                    000159350000000000000109                     I0215935     30061800000000035003410000017N070518104700000000000103006180000000000000000000000000000000000000000100010292272766MARCIA JUPIRA SANTOS GONZAGA            RUA ANTONIO FELIX                       CENTRO      26520081NILOPOLIS      RJUNIAO UMB DOS CULTOS AFRO BRAS    30061810 000084
10231987175000168916200163100    000015934                    000159340000000000000109                     I0215934     30061800000000035003410000017N070518104700000000000103006180000000000000000000000000000000000000000100090490894704EVELINE DA CONCEICAO                    AVENIDA ATLANTIDA  SN                   LAGOMAR - MA27966000MACAE          RJUNIAO UMB DOS CULTOS AFRO BRAS    30061810 000085
10231987175000168916200163100    000015933                    000159330000000000000109                     I0215933     30061800000000035003410000017N070518104700000000000103006180000000000000000000000000000000000000000100013397736781JOVANE RANGEL DA SILVA                  RUA SILVA JARDIM                        CENTRO      27910340MACAE          RJUNIAO UMB DOS CULTOS AFRO BRAS    30061810 000086
10231987175000168916200163100    000015932                    000159320000000000000109                     I0215932     30061800000000035003410000017N070518104700000000000103006180000000000000000000000000000000000000000100004188514760LUIZ CARLOS PEREIRA DA SILVA            RUA W                                   LAGOMAR     27966755MACAE          RJUNIAO UMB DOS CULTOS AFRO BRAS    30061810 000087
10231987175000168916200163100    000015931                    000159310000000000000109                     I0215931     30061800000000035003410000017N070518104700000000000103006180000000000000000000000000000000000000000100016492108760TIAGO LOPES DE AZEVEDO SILVA            RUA X                                   PARADA MODEL25943365GUAPIMIRIM     RJUNIAO UMB DOS CULTOS AFRO BRAS    30061810 000088
10231987175000168916200163100    000015930                    000159300000000000000109                     I0215930     30061800000000035003410000017N070518104700000000000103006180000000000000000000000000000000000000000100000000001296LEONARDO EUGENIO DOS SANTOS             RUA LUIZ PINTO DA SILVA                 PRAIA CAMPIS27923200MACAE          RJUNIAO UMB DOS CULTOS AFRO BRAS    30061810 000089
10231987175000168916200163100    000015929                    000159290000000000000109                     I0215929     30061800000000035003410000017N070518104700000000000103006180000000000000000000000000000000000000000100095181890725ALEXANDRE DE SOUZA TAVARES SEN          RUA DOM MANOEL                          DOM RODRIGO 26260230NOVA IGUACU    RJUNIAO UMB DOS CULTOS AFRO BRAS    30061810 000090
10231987175000168916200163100    000015928                    000159280000000000000109                     I0215928     30061800000000035003410000017N070518104700000000000103006180000000000000000000000000000000000000000100014527767763THIERRY PADILHA MOTA                    RUA ALCIR BRASIL                        JARDIM NOVA 26266010NOVA IGUACU    RJUNIAO UMB DOS CULTOS AFRO BRAS    30061810 000091
10231987175000168916200163100    000015927                    000159270000000000000109                     I0215927     30061800000000035003410000017N070518104700000000000103006180000000000000000000000000000000000000000100011122717750RODRIGO DINIZ DA COSTA                  RUA ENGENHO DE DENTRO                   VILAR DOS TE25565230SAO JOAO DE MERRJUNIAO UMB DOS CULTOS AFRO BRAS    30061810 000092
10231987175000168916200163100    000015926                    000159260000000000000109                     I0215926     30061800000000035003410000017N070518104700000000000103006180000000000000000000000000000000000000000100013090350750REINALDO GONCALVES DE OLIVEIRA          RUA DOMINGOS LEMOS                      COELHO DA RO25550721SAO JOAO DE MERRJUNIAO UMB DOS CULTOS AFRO BRAS    30061810 000093
10231987175000168916200163100    000015925                    000159250000000000000109                     I0215925     30061800000000035003410000017N070518104700000000000103006180000000000000000000000000000000000000000100005953749724JUCIARA DA SILVA XAVIER                 RUA CONDE DE AZAMBUJA                   MARIA DA GRA20785342RIO DE JANEIRO RJUNIAO UMB DOS CULTOS AFRO BRAS    30061810 000094
10231987175000168916200163100    000015924                    000159240000000000000109                     I0215924     30061800000000035003410000017N070518104700000000000103006180000000000000000000000000000000000000000100006110323764WAGNER MATOS DA SILVA                   RUA OLINDA                              BELA VISTA  26175350BELFORD ROXO   RJUNIAO UMB DOS CULTOS AFRO BRAS    30061810 000095
10231987175000168916200163100    000015923                    000159230000000000000109                     I0215923     30061800000000035003410000017N070518104700000000000103006180000000000000000000000000000000000000000100092111777749WANDERLEY DOS SANTOS MENDES             PRACA EMBOABA                           ENGENHO DA R20761160RIO DE JANEIRO RJUNIAO UMB DOS CULTOS AFRO BRAS    30061810 000096
10231987175000168916200163100    000015922                    000159220000000000000109                     I0215922     30061800000000035003410000017N070518104700000000000103006180000000000000000000000000000000000000000100009416663794IGOR DO NASCIMENTO RODRIGUES            RUA FIGUEIREDO ROCHA                    VIGARIO GERA21240660RIO DE JANEIRO RJUNIAO UMB DOS CULTOS AFRO BRAS    30061810 000097
10231987175000168916200163100    000015921                    000159210000000000000109                     I0215921     30061800000000035003410000017N070518104700000000000103006180000000000000000000000000000000000000000100090432894772ALTAMIRO DAMASCENO MONCAO               RUA TENERIFE                            PARADA DE LU21010000RIO DE JANEIRO RJUNIAO UMB DOS CULTOS AFRO BRAS    30061810 000098
10231987175000168916200163100    000015919                    000159190000000000000109                     I0215919     30061800000000035003410000017N070518104700000000000103006180000000000000000000000000000000000000000100011834931770LEANDRO BARROS DA SILVA                 RUA ROMARIO SILVA                       KENNEDY     26020640NOVA IGUACU    RJUNIAO UMB DOS CULTOS AFRO BRAS    30061810 000099
10231987175000168916200163100    000015918                    000159180000000000000109                     I0215918     30061800000000035003410000017N070518104700000000000103006180000000000000000000000000000000000000000100069279500791CLAUDIA ALONSO RODRIGUES                ESTRADA DO PAU FERRO                    FREGUESIA   22745055RIO DE JANEIRO RJUNIAO UMB DOS CULTOS AFRO BRAS    30061810 000100
10231987175000168916200163100    000015915                    000159150000000000000109                     I0215915     30061800000000035003410000017N070518104700000000000103006180000000000000000000000000000000000000000100060210389753ROZANA DOS SANTOS                       RUA CAFE FILHO                          INHOAIBA    23060720RIO DE JANEIRO RJUNIAO UMB DOS CULTOS AFRO BRAS    30061810 000101
10231987175000168916200163100    000015914                    000159140000000000000109                     I0215914     30061800000000035003410000017N070518104700000000000103006180000000000000000000000000000000000000000100088041883753JORGE COSTA BRAGA FILHO                 RUA CENTO E VINTE E TRES                MAUA        25900000RIO DE JANEIRO RJUNIAO UMB DOS CULTOS AFRO BRAS    30061810 000102
10231987175000168916200163100    000015912                    000159120000000000000109                     I0215912     30061800000000035003410000017N070518104700000000000103006180000000000000000000000000000000000000000100005234763706LUCIANA FERREIRA DE ALMEIDA             RUA QUATRO                              PARADA MORAB25265220DUQUE DE CAXIASRJUNIAO UMB DOS CULTOS AFRO BRAS    30061810 000103
10231987175000168916200163100    000015911                    000159110000000000000109                     I0215911     30061800000000035003410000017N070518104700000000000103006180000000000000000000000000000000000000000100012009305760DEBORA CRISTINA DE OLIVEIRA BR          RUA LORD COCHRANE                       IBIRAPITANGA23811810ITAGUAI        RJUNIAO UMB DOS CULTOS AFRO BRAS    30061810 000104
10231987175000168916200163100    000015910                    000159100000000000000109                     I0215910     30061800000000035003410000017N070518104700000000000103006180000000000000000000000000000000000000000100000759136742ADRIANA LAPORT ALVES                    RUA DONA CLARA DE ARAUJO                ANDRADE ARAU26010390NOVA IGUACU    RJUNIAO UMB DOS CULTOS AFRO BRAS    30061810 000105
10231987175000168916200163100    000015909                    000159090000000000000109                     I0215909     30061800000000035003410000017N070518104700000000000103006180000000000000000000000000000000000000000100084301724753ANA LUCIA FERREIRA DA SILVA             RUA HUGO CESAR MONTEIRO DA SILVA N 42   CAICARA - NO26015000NOVA IGUACU    RJUNIAO UMB DOS CULTOS AFRO BRAS    30061810 000106
10231987175000168916200163100    000015906                    000159060000000000000109                     I0215906     30061800000000035003410000017N070518104700000000000103006180000000000000000000000000000000000000000100012450258728MONIQUE RODRIGUES DE ALMEIDA            RUA CESAR                               REALENGO    21750400RIO DE JANEIRO RJUNIAO UMB DOS CULTOS AFRO BRAS    30061810 000107
10231987175000168916200163100    000015905                    000159050000000000000109                     I0215905     30061800000000035003410000017N070518104700000000000103006180000000000000000000000000000000000000000100008578432738WANDERSON DOS SANTOS LOPES              RUA SATURNO                             VILA GENI   23825517COROA GRANDE   RJUNIAO UMB DOS CULTOS AFRO BRAS    30061810 000108
10231987175000168916200163100    000015904                    000159040000000000000109                     I0215904     30061800000000035003410000017N070518104700000000000103006180000000000000000000000000000000000000000100058365737787ALTAMIRA ROSA                           AVENIDA DO CONTORNO                     PARADA MORAB25000000DUQUE DE CAXIASRJUNIAO UMB DOS CULTOS AFRO BRAS    30061810 000109
10231987175000168916200163100    000015903                    000159030000000000000109                     I0215903     30061800000000035003410000017N070518104700000000000103006180000000000000000000000000000000000000000100074171372704ELIANE DE SOUZA MACHADO                 RUA ROQUETE PINTO                       JARDIM ANHAN25265200DUQUE DE CAXIASRJUNIAO UMB DOS CULTOS AFRO BRAS    30061810 000110
10231987175000168916200163100    000015901                    000159010000000000000109                     I0215901     30061800000000035003410000017N070518104700000000000103006180000000000000000000000000000000000000000100010262557754EDGAR SODRE BANI                        RUA B N 20                              PARADA MORAB25265220DUQUE DE CAXIASRJUNIAO UMB DOS CULTOS AFRO BRAS    30061810 000111
10231987175000168916200163100    000015900                    000159000000000000000109                     I0215900     30061800000000035003410000017N070518104700000000000103006180000000000000000000000000000000000000000100006876928730DIONE ASSUNCAO SOARES                   RUA SILVIA VIEIRA SN                    FAZENDA SOSS26088475NOVA IGUACU    RJUNIAO UMB DOS CULTOS AFRO BRAS    30061810 000112
10231987175000168916200163100    000015899                    000158990000000000000109                     I0215899     30061800000000035003410000017N070518104700000000000103006180000000000000000000000000000000000000000100063268876749JORGE DA COSTA BARRETO                  RUA MINISTRO MOREIRA ABREU              OLARIA      21071485BELFORD ROXO   RJUNIAO UMB DOS CULTOS AFRO BRAS    30061810 000113
10231987175000168916200163100    000015898                    000158980000000000000109                     I0215898     30061800000000035003410000017N070518104700000000000103006180000000000000000000000000000000000000000100003798443700ALINE MODINA TELLES                     RUA JURACI COELHO                       JARDIM PALMA26271100RIO DE JANEIRO RJUNIAO UMB DOS CULTOS AFRO BRAS    30061810 000114
10231987175000168916200163100    000015896                    000158960000000000000109                     I0215896     30061800000000035003410000017N070518104700000000000103006180000000000000000000000000000000000000000100084441372787LUCIA HELENA DE OLIVEIRA GAMA           RUA PEDRO ANTONIO PEREIRA               AERO CLUBE  26285291NOVA IGUACU    RJUNIAO UMB DOS CULTOS AFRO BRAS    30061810 000115
10231987175000168916200163100    000015895                    000158950000000000000109                     I0215895     30061800000000035003410000017N070518104700000000000103006180000000000000000000000000000000000000000100082191638791RITA DE CASSIA VALVERDE ROCHA           RUA JOAQUIM SOARES NETO                 NOVA AMERICA26021560NOVA IGUACU    RJUNIAO UMB DOS CULTOS AFRO BRAS    30061810 000116
10231987175000168916200163100    000015894                    000158940000000000000109                     I0215894     30061800000000035003410000017N070518104700000000000103006180000000000000000000000000000000000000000100011590456742WANILA LIMA DE BRITO                    RUA REDENTOR LOTE 5 QUADRA 18 CASA 2 FUNJARDIM REDEN26110090BELFORD ROXO   RJUNIAO UMB DOS CULTOS AFRO BRAS    30061810 000117
10231987175000168916200163100    000015892                    000158920000000000000109                     I0215892     30061800000000035003410000017N070518104700000000000103006180000000000000000000000000000000000000000100014520518792STEPHANI MATOS MONTEIRO                 ESTRADA DOUTOR PLINIO CASADO            CENTRO      26130622BELFORD ROXO   RJUNIAO UMB DOS CULTOS AFRO BRAS    30061810 000118
10231987175000168916200163100    000015891                    000158910000000000000109                     I0215891     30061800000000035003410000017N070518104700000000000103006180000000000000000000000000000000000000000100012727461780SUELMIR LIMA DE ARAUJO                  RUA NOSSA SENHORA DAS GRACAS            PRAIA DO ANI25925708MAGE           RJUNIAO UMB DOS CULTOS AFRO BRAS    30061810 000119
10231987175000168916200163100    000015890                    000158900000000000000109                     I0215890     30061800000000035003410000017N070518104700000000000103006180000000000000000000000000000000000000000100096531287950FERNANDO RIBEIRO DE SOUZA               RUA JOAO PEDRO TESCH                    ALTO DA SERR25635500PETROPOLIS     RJUNIAO UMB DOS CULTOS AFRO BRAS    30061810 000120
10231987175000168916200163100    000015889                    000158890000000000000109                     I0215889     30061800000000035003410000017N070518104700000000000103006180000000000000000000000000000000000000000100002142304737ILAIR FERNANDES BRAZILEIRO BOR          RUA VERISSIMO MACHADO                   ROCHA MIRAND21545060RIO DE JANEIRO RJUNIAO UMB DOS CULTOS AFRO BRAS    30061810 000121
10231987175000168916200163100    000015885                    000158850000000000000109                     I0215885     30061800000000035003410000017N070518104700000000000103006180000000000000000000000000000000000000000100005225598757JOSUE DA SILVA SANTOS                   RUA H QUADRA 7 LOTE 24                  AMAPA - DUQU25235360DUQUE DE CAXIASRJUNIAO UMB DOS CULTOS AFRO BRAS    30061810 000122
10231987175000168916200163100    000015882                    000158820000000000000109                     I0215882     30061800000000035003410000017N070518104700000000000103006180000000000000000000000000000000000000000100015110892709YASMIN FIALHO HANGES                    ESTRADA HENRIQUE DE MELO N 193 FUNDOS   BENTO RIBEIR21340190RIO DE JANEIRO RJUNIAO UMB DOS CULTOS AFRO BRAS    30061810 000123
10231987175000168916200163100    000015881                    000158810000000000000109                     I0215881     30061800000000035003410000017N070518104700000000000103006180000000000000000000000000000000000000000100009503848792JORGE ALEXANDRE TEIXEIRA BRAZ           RUA CAJUIPE N 163 CASA 1                BONSUCESSO -21060490RIO DE JANEIRO RJUNIAO UMB DOS CULTOS AFRO BRAS    30061810 000124
10231987175000168916200163100    000015880                    000158800000000000000109                     I0215880     30061800000000035003410000017N070518104700000000000103006180000000000000000000000000000000000000000100030894840720LIGIA REGINA ZACHARIAS DE MELO          RUA MANAPA N 280                        VALVERDE - N21051360RIO DE JANEIRO RJUNIAO UMB DOS CULTOS AFRO BRAS    30061810 000125
10231987175000168916200163100    000015879                    000158790000000000000109                     I0215879     30061800000000035003410000017N070518104700000000000103006180000000000000000000000000000000000000000100007443282761WASHINGTON LUIZ DA SILVA RAMOS          RUA DEZESSETE N 78 - CONJUNTO LIBERDADE SANTA CRUZ -23560600RIO DE JANEIRO RJUNIAO UMB DOS CULTOS AFRO BRAS    30061810 000126
10231987175000168916200163100    000015878                    000158780000000000000109                     I0215878     30061800000000035003410000017N070518104700000000000103006180000000000000000000000000000000000000000100007964006797JOSILENE MONTEIRO HERMOGENES            RUA PADRE MARINHO N 309                 SARACURUNA -25212450DUQUE DE CAXIASRJUNIAO UMB DOS CULTOS AFRO BRAS    30061810 000127
10231987175000168916200163100    000015877                    000158770000000000000109                     I0215877     30061800000000035003410000017N070518104700000000000103006180000000000000000000000000000000000000000100010544644701RENATA DE OLIVEIRA SILVA                RUA NOSSA SENHORA DE NAZARE N 23 A      GERENCIANO -26061700NOVA IGUACU    RJUNIAO UMB DOS CULTOS AFRO BRAS    30061810 000128
10231987175000168916200163100    000015874                    000158740000000000000109                     I0215874     30061800000000035003410000017N070518104700000000000103006180000000000000000000000000000000000000000100000000001288JOSE ANTONIO DA SILVA JUNIOR            RUA HUMAITA                             PIABETA     25915000MAGE           RJUNIAO UMB DOS CULTOS AFRO BRAS    30061810 000129
10231987175000168916200163100    000015873                    000158730000000000000109                     I0215873     30061800000000035003410000017N070518104700000000000103006180000000000000000000000000000000000000000100009956479764TATIANE VASCONCELOS DA SILVA            RUA SANTA MARGARIDA N 337               PIABETA - MA25900000MAGE           RJUNIAO UMB DOS CULTOS AFRO BRAS    30061810 000130
10231987175000168916200163100    000015872                    000158720000000000000109                     I0215872     30061800000000035003410000017N070518104700000000000103006180000000000000000000000000000000000000000100093788150734REGINA DA SILVA VERONEZI DOS S          RUA ABATE                               JARDIM CANAA26263040NOVA IGUACU    RJUNIAO UMB DOS CULTOS AFRO BRAS    30061810 000131
10231987175000168916200163100    000015871                    000158710000000000000109                     I0215871     30061800000000035003410000017N070518104700000000000103006180000000000000000000000000000000000000000100008834107705JOSELI TIADULINO                        RUA MARIA TEREZA                        JARDIM CANAA26263230NOVA IGUACU    RJUNIAO UMB DOS CULTOS AFRO BRAS    30061810 000132
10231987175000168916200163100    000015870                    000158700000000000000109                     I0215870     30061800000000035003410000017N070518104700000000000103006180000000000000000000000000000000000000000100092645933734ROSINEA PRECIOSO DE OLIVEIRA            RUA PROFESSORA MARLY CARVALHO PEREIRA   MIGUEL COUTO26070452NOVA IGUACU    RJUNIAO UMB DOS CULTOS AFRO BRAS    30061810 000133
10231987175000168916200163100    000015867                    000158670000000000000109                     I0215867     30061800000000035003410000017N070518104700000000000103006180000000000000000000000000000000000000000100080578063700SANDRA REGINA NEVES CHAGAS              RUA MARIA LOURENCO N 12 CASA 2          JARDIM PRIMA25215367DUQUE DE CAXIASRJUNIAO UMB DOS CULTOS AFRO BRAS    30061810 000134
10231987175000168916200163100    000015866                    000158660000000000000109                     I0215866     30061800000000035003410000017N070518104700000000000103006180000000000000000000000000000000000000000100068374208791ROSANA LISBOA DE OLIVEIRA               RUA TEOFILO DIAS LOTE 7 QUADRA 47       PILAR - DUQU25233239DUQUE DE CAXIASRJUNIAO UMB DOS CULTOS AFRO BRAS    30061810 000135
10231987175000168916200163100    000015865                    000158650000000000000109                     I0215865     30061800000000035003410000017N070518104700000000000103006180000000000000000000000000000000000000000100014760475702DEBORAH ROSA                            RUA MARIA LOURENCO GONCALVES N 18 CASA 2JARDIM PRIMA25215367DUQUE DE CAXIASRJUNIAO UMB DOS CULTOS AFRO BRAS    30061810 000136
10231987175000168916200163100    000015864                    000158640000000000000109                     I0215864     30061800000000035003410000017N070518104700000000000103006180000000000000000000000000000000000000000100054336481768PENHA JACIARA DA SILVA                  RUA DEZESSETE N 102 (CONJUNTO LIBERDADE)SANTA CRUZ -23560600RIO DE JANEIRO RJUNIAO UMB DOS CULTOS AFRO BRAS    30061810 000137
10231987175000168916200163100    000015863                    000158630000000000000109                     I0215863     30061800000000035003410000017N070518104700000000000103006180000000000000000000000000000000000000000100004419977752GISELE DE CASTILHO SOARES               RUA ARTHUR MAGALHAES N 64               COMENDADOR S26276605NOVA IGUACU    RJUNIAO UMB DOS CULTOS AFRO BRAS    30061810 000138
10231987175000168916200163100    000015862                    000158620000000000000109                     I0215862     30061800000000035003410000017N070518104700000000000103006180000000000000000000000000000000000000000100055480730797TEREZINHA DE JESUS FERRAZ DOS           RUA TUPINAMBA N 305 - OURO VERDE        OURO VERDE -26262490NOVA IGUACU    RJUNIAO UMB DOS CULTOS AFRO BRAS    30061810 000139
10231987175000168916200163100    000015861                    000158610000000000000109                     I0215861     30061800000000035003410000017N070518104700000000000103006180000000000000000000000000000000000000000100000889136785EDENILSON DE SOUZA SILVA                ESTRADA DOS SETE RIACHOS N 2605         SANTISSIMO -23070420RIO DE JANEIRO RJUNIAO UMB DOS CULTOS AFRO BRAS    30061810 000140
10231987175000168916200163100    000015860                    000158600000000000000109                     I0215860     30061800000000035003410000017N070518104700000000000103006180000000000000000000000000000000000000000100000915013770ROSANGELA DAS NEVES RESENDE DO          RUA GOIANESIA LOTE 23 QUADRA 101        MARAMBAIA - 24859300ITABORAI       RJUNIAO UMB DOS CULTOS AFRO BRAS    30061810 000141
10231987175000168916200163100    000015859                    000158590000000000000109                     I0215859     30061800000000035003410000017N070518104700000000000103006180000000000000000000000000000000000000000100005411763746MONICA CRUZ DE OLIVEIRA                 AVENIDA JOAO XXIII - RUA QUATORZE QUADRASANTA CRUZ -23565110RIO DE JANEIRO RJUNIAO UMB DOS CULTOS AFRO BRAS    30061810 000142
10231987175000168916200163100    000015858                    000158580000000000000109                     I0215858     30061800000000035003410000017N070518104700000000000103006180000000000000000000000000000000000000000100000000001285JEANE APARECIDA NUNES BITENCOU          RUA HISTORIA N 8                        JARDIM REDEN26110350RIO DE JANEIRO RJUNIAO UMB DOS CULTOS AFRO BRAS    30061810 000143
10231987175000168916200163100    000015857                    000158570000000000000109                     I0215857     30061800000000035003410000017N070518104700000000000103006180000000000000000000000000000000000000000100008246810707LEILA DA SILVA MARQUES                  RUA REDENTOR LOTE 19 QUADRA 18          JARDIM REDEN26110090BELFORD ROXO   RJUNIAO UMB DOS CULTOS AFRO BRAS    30061810 000144
10231987175000168916200163100    000015855                    000158550000000000000109                     I0215855     30061800000000035003410000017N070518104700000000000103006180000000000000000000000000000000000000000100005633721735MARCOS AURELIO PAULINO FLORIAN          RUA LEONEL ROCHA N 195 CASA LOTE H      GUARATIBA - 23032460RIO DE JANEIRO RJUNIAO UMB DOS CULTOS AFRO BRAS    30061810 000145
10231987175000168916200163100    000015854                    000158540000000000000109                     I0215854     30061800000000035003410000017N070518104700000000000103006180000000000000000000000000000000000000000100000000001288VIVIANE MORAES ALEXANDRINO              RUA JOAQUIM MOREIRA Nº 37              SEPETIBA    23545054RIO DE JANEIRO RJUNIAO UMB DOS CULTOS AFRO BRAS    30061810 000146
10231987175000168916200163100    000015853                    000158530000000000000109                     I0215853     30061800000000035003410000017N070518104700000000000103006180000000000000000000000000000000000000000100004277956726ROSANA OLIVEIRA GUEDES                  RUA CARDOSO QUINTAO N 24                PIEDADE - RI21381460RIO DE JANEIRO RJUNIAO UMB DOS CULTOS AFRO BRAS    30061810 000147
10231987175000168916200163100    000015852                    000158520000000000000109                     I0215852     30061800000000035003410000017N070518104700000000000103006180000000000000000000000000000000000000000100001972684710ALEXANDRE MALAQUIAS DE SOUSA P          AVENIDA NELSON DE AQUINO N 246 - COROA GCOROA GRANDE23825670ITAGUAI        RJUNIAO UMB DOS CULTOS AFRO BRAS    30061810 000148
10231987175000168916200163100    000015850                    000158500000000000000109                     I0215850     30061800000000035003410000017N070518104700000000000103006180000000000000000000000000000000000000000100004554269701PATRICIA CABRAL BOTELHO                 RUA QUINTAO N 995 - PIEDADE             PIEDADE - RI21381050RIO DE JANEIRO RJUNIAO UMB DOS CULTOS AFRO BRAS    30061810 000149
10231987175000168916200163100    000015849                    000158490000000000000109                     I0215849     30061800000000035003410000017N070518104700000000000103006180000000000000000000000000000000000000000100000129467707SANDRA CRISTINA DOS SANTOS TIT          RUA DAVI SN BLOCO 3 APT 303             CIDADE DE DE22777243JACAREPAGUA    RJUNIAO UMB DOS CULTOS AFRO BRAS    30061810 000150
10231987175000168916200163100    000015848                    000158480000000000000109                     I0215848     30061800000000035003410000017N070518104700000000000103006180000000000000000000000000000000000000000100008781471793LURDEUDALIA ARAUJO                      RUA MARIA LOROSA - VITORIA REGIS CASA 8 SANTA CRUZ -23525040RIO DE JANEIRO RJUNIAO UMB DOS CULTOS AFRO BRAS    30061810 000151
10231987175000168916200163100    000015847                    000158470000000000000109                     I0215847     30061800000000035003410000017N070518104700000000000103006180000000000000000000000000000000000000000100060237090791ELIZABETH TELLES DA SILVA               ESTRADA OUTEIRO SANTO 900 LOTE 1 QUADRA TAQUARA  RJ 22713164RIO DE JANEIRO RJUNIAO UMB DOS CULTOS AFRO BRAS    30061810 000152
10231987175000168916200163100    000015845                    000158450000000000000109                     I0215845     30061800000000035003410000017N070518104700000000000103006180000000000000000000000000000000000000000100000076412733VALERIA RIBEIRO TEIXEIRA                RUA JIPIOCA N 135 CASA 1                CASCADURA - 21311250RIO DE JANEIRO RJUNIAO UMB DOS CULTOS AFRO BRAS    30061810 000153
10231987175000168916200163100    000015842                    000158420000000000000109                     I0215842     30061800000000035003410000017N070518104700000000000103006180000000000000000000000000000000000000000100014994285705JEFFERSON DOS SANTOS DA SILVA           ESTRADA DO PAU DA FOME N 50             TAQUARA - JA22723497RIO DE JANEIRO RJUNIAO UMB DOS CULTOS AFRO BRAS    30061810 000154
10231987175000168916200163100    000015841                    000158410000000000000109                     I0215841     30061800000000035003410000017N070518104700000000000103006180000000000000000000000000000000000000000100035138963791AMILTON PIO                             RUA JOSE DE MELO N 77                   SEPETIBA - R23545165RIO DE JANEIRO RJUNIAO UMB DOS CULTOS AFRO BRAS    30061810 000155
10231987175000168916200163100    000015840                    000158400000000000000109                     I0215840     30061800000000035003410000017N070518104700000000000103006180000000000000000000000000000000000000000100011998959708ARTUR TAVARES DA SILVA NETO             RUA PREFEITO JOAO CARLOS VITAL N 17     CROACIA - SE23540080SEPETIBA       RJUNIAO UMB DOS CULTOS AFRO BRAS    30061810 000156
10231987175000168916200163100    000015839                    000158390000000000000109                     I0215839     30061800000000035003410000017N070518104700000000000103006180000000000000000000000000000000000000000100008502438743ALINE RAMOS DE SOUZA DA SILVA           RUA DOUTOR ISMAEL CAVALCANTI N 240      SEPETIBA - R23545145RIO DE JANEIRO RJUNIAO UMB DOS CULTOS AFRO BRAS    30061810 000157
10231987175000168916200163100    000015837                    000158370000000000000109                     I0215837     30061800000000035003410000017N070518104700000000000103006180000000000000000000000000000000000000000100002134084731MARINALVA LINDOLFO DA SILVA             AVENIDA GOMES FREIRE N 136              VILA SANTO A25040310DUQUE DE CAXIASRJUNIAO UMB DOS CULTOS AFRO BRAS    30061810 000158
10231987175000168916200163100    000015834                    000158340000000000000109                     I0215834     30061800000000035003410000017N070518104700000000000103006180000000000000000000000000000000000000000100001301453781CARLINDA AZEREDO MATOS                  RUA DOUTOR FERNANDO BRIGADAO N 17       RIACHAO - NO26279180NOVA IGUACU    RJUNIAO UMB DOS CULTOS AFRO BRAS    30061810 000159
10231987175000168916200163100    000015833                    000158330000000000000109                     I0215833     30061800000000035003410000017N070518104700000000000103006180000000000000000000000000000000000000000100014604780706GILMAR GONCALVES FERREIRA               RUA DOIS BLOCO 2 CASA 27                ROCINHA - RI22451400RIO DE JANEIRO RJUNIAO UMB DOS CULTOS AFRO BRAS    30061810 000160
10231987175000168916200163100    000015832                    000158320000000000000109                     I0215832     30061800000000035003410000017N070518104700000000000103006180000000000000000000000000000000000000000100064175499768TEREZA CRISTINA PIRES SILVA RO          RUA GOIAS LOTE 3 QUADRA 4               PLANALTO DO 24859300ITABORAI       RJUNIAO UMB DOS CULTOS AFRO BRAS    30061810 000161
10231987175000168916200163100    000015831                    000158310000000000000109                     I0215831     30061800000000035003410000017N070518104700000000000103006180000000000000000000000000000000000000000100065929039704JUPIACU SALLES                          RUA ANDRE ROCHA QUADRA 83 LOTES 16 E 17 CURICICA - R22570000RIO DE JANEIRO RJUNIAO UMB DOS CULTOS AFRO BRAS    30061810 000162
10231987175000168916200163100    000015830                    000158300000000000000109                     I0215830     30061800000000035003410000017N070518104700000000000103006180000000000000000000000000000000000000000100015834777724JOAO PAULO SALGUEIRO DA SILVA           RUA TUIBA N 689                         VICENTE DE C21371170RIO DE JANEIRO RJUNIAO UMB DOS CULTOS AFRO BRAS    30061810 000163
10231987175000168916200163100    000015829                    000158290000000000000109                     I0215829     30061800000000035003410000017N070518104700000000000103006180000000000000000000000000000000000000000100066003110782MARIA CLAUDIA DE LIMA FOLY              RUA PP LOTE 5 QUADRA 48                 BARAO GUANDU26021560NOVA IGUACU    RJUNIAO UMB DOS CULTOS AFRO BRAS    30061810 000164
10231987175000168916200163100    000015828                    000158280000000000000109                     I0215828     30061800000000035003410000017N070518104700000000000103006180000000000000000000000000000000000000000100089044380710DENISE SAMPAIO DE MOURA MACIEL          RUA XAXA N 10 - RIO DAS PEDRAS          JACAREPAGUA 22753057RIO DE JANEIRO RJUNIAO UMB DOS CULTOS AFRO BRAS    30061810 000165
10231987175000168916200163100    000015827                    000158270000000000000109                     I0215827     30061800000000035003410000017N070518104700000000000103006180000000000000000000000000000000000000000100025875159715SUELI DE OLIVEIRA DIAS                  AVENIDA ALAGOAS N 1198                  GARDENIA AZU22765451RIO DE JANEIRO RJUNIAO UMB DOS CULTOS AFRO BRAS    30061810 000166
10231987175000168916200163100    000015826                    000158260000000000000109                     I0215826     30061800000000035003410000017N070518104700000000000103006180000000000000000000000000000000000000000100002638717703EDINO GOMES DE BARROS JUNIOR            RUA PARANA N 10                         MORRO DO ORI24400000SAO GONCALO    RJUNIAO UMB DOS CULTOS AFRO BRAS    30061810 000167
10231987175000168916200163100    000015825                    000158250000000000000109                     I0215825     30061800000000035003410000017N070518104700000000000103006180000000000000000000000000000000000000000100000920173713JORGE DOS SANTOS LUCAS                  RUA PP, LOTE 5 QUADRA 48                JARDIM ANHAN25264360DUQUE DE CAXIASRJUNIAO UMB DOS CULTOS AFRO BRAS    30061810 000168
10231987175000168916200163100    000015824                    000158240000000000000109                     I0215824     30061800000000035003410000017N070518104700000000000103006180000000000000000000000000000000000000000100000497155770CINTIA MARTIN                           RUA POCONE N 371                        ENCANTADO - 20745090RIO DE JANEIRO RJUNIAO UMB DOS CULTOS AFRO BRAS    30061810 000169
10231987175000168916200163100    000015823                    000158230000000000000109                     I0215823     30061800000000035003410000017N070518104700000000000103006180000000000000000000000000000000000000000100009483806755MARCO ANTONIO ATAIDE DE MELO            TRAVESSA MARAPE N 3 FUNDOS              COSTA BARROS21515240RIO DE JANEIRO RJUNIAO UMB DOS CULTOS AFRO BRAS    30061810 000170
10231987175000168916200163100    000015822                    000158220000000000000109                     I0215822     30061800000000035003410000017N070518104700000000000103006180000000000000000000000000000000000000000100095341048768MARILENE CANDIDA                        RUA NOSSA SENHORA DA GUIA N 163         VILA NOVA DO26062192NOVA IGUACU    RJUNIAO UMB DOS CULTOS AFRO BRAS    30061810 000171
10231987175000168916200163100    000015821                    000158210000000000000109                     I0215821     30061800000000035003410000017N070518104700000000000103006180000000000000000000000000000000000000000100001797738748PAULO CESAR LONATO SANTOS               RUA SAO MIGUEL ARCANJO QUADRA 92 LOTE 23SAO FRANCISC22095072CAMPO GRANDE   RJUNIAO UMB DOS CULTOS AFRO BRAS    30061810 000172
10231987175000168916200163100    000015820                    000158200000000000000109                     I0215820     30061800000000035003410000017N070518104700000000000103006180000000000000000000000000000000000000000100014492149759FILIPE FONSECA MARIANO                  RUA DONA JULIA N 16 FUNDOS              SEPETIBA - R23545570RIO DE JANEIRO RJUNIAO UMB DOS CULTOS AFRO BRAS    30061810 000173
10231987175000168916200163100    000015819                    000158190000000000000109                     I0215819     30061800000000035003410000017N070518104700000000000103006180000000000000000000000000000000000000000100007214737760LEANDRO FRAGA DE OLIVEIRA               RUA VAZ LOBO N 522 - VAZ LOBO           VAZ LOBO - R21361030RIO DE JANEIRO RJUNIAO UMB DOS CULTOS AFRO BRAS    30061810 000174
10231987175000168916200163100    000015818                    000158180000000000000109                     I0215818     30061800000000035003410000017N070518104700000000000103006180000000000000000000000000000000000000000100000000001279ALESSANDRA REIS DOS SANTOS              RUA: MARIA TOMAZIA Nº 125 - FUNDOS     CABARAL - NI21321660RIO DE JANEIRO RJUNIAO UMB DOS CULTOS AFRO BRAS    30061810 000175
10231987175000168916200163100    000015812                    000158120000000000000109                     I0215812     30061800000000035003410000017N070518104700000000000103006180000000000000000000000000000000000000000100003550624700ELAINE DE BARROS CARVALHO DE O          RUA DOUTOR ANTONIO MARTINS N 42 CASA 2 ATAQUARA - JA22723650RIO DE JANEIRO RJUNIAO UMB DOS CULTOS AFRO BRAS    30061810 000176
10231987175000168916200163100    000015811                    000158110000000000000109                     I0215811     30061800000000035003410000017N070518104700000000000103006180000000000000000000000000000000000000000100005649589720RAPHAEL AGUIAR DA SILVA                 ESTRADA DO BONGARVILLE, 869 CASA 42     ANIL - JACAR22753210RIO DE JANEIRO RJUNIAO UMB DOS CULTOS AFRO BRAS    30061810 000177
10231987175000168916200163100    000015810                    000158100000000000000109                     I0215810     30061800000000035003410000017N070518104700000000000103006180000000000000000000000000000000000000000100001857739744JORGE DE MORAES ESTANISLAU              RUA TITANIC N 7 CASA 1 FUNDOS           REALENGO - R21735620RIO DE JANEIRO RJUNIAO UMB DOS CULTOS AFRO BRAS    30061810 000178
10231987175000168916200163100    000015809                    000158090000000000000109                     I0215809     30061800000000035003410000017N070518104700000000000103006180000000000000000000000000000000000000000100011130957764MARCUS ULYSSES DE FIGUEIREDO P          RUA SAO JORGE N 764                     CAMPO ALEGRE26292228NOVA IGUACU    RJUNIAO UMB DOS CULTOS AFRO BRAS    30061810 000179
10231987175000168916200163100    000015805                    000158050000000000000109                     I0215805     30061800000000035003410000017N070518104700000000000103006180000000000000000000000000000000000000000100092673562753ALVARO RICARDO DE OLIVEIRA RIB          RUA AURORA SIQUEIRA N 18                MUTONDO - SA24452140SAO GONCALO    RJUNIAO UMB DOS CULTOS AFRO BRAS    30061810 000180
10231987175000168916200163100    000015802                    000158020000000000000109                     I0215802     30061800000000035003410000017N070518104700000000000103006180000000000000000000000000000000000000000100005440511733MONICA LEITE CRUZ                       RUA PARDAL N 130 B                      MAGALI - CAM23081070CAMPO GRANDE   RJUNIAO UMB DOS CULTOS AFRO BRAS    30061810 000181
10231987175000168916200163100    000015801                    000158010000000000000109                     I0215801     30061800000000035003410000017N070518104700000000000103006180000000000000000000000000000000000000000100074442163715MONICA BARCELLOS DE PAULA               AVENIDA VICENTE DE CARVALHO, 560        VICENTE DE C21371148RIO DE JANEIRO RJUNIAO UMB DOS CULTOS AFRO BRAS    30061810 000182
10231987175000168916200163100    000015800                    000158000000000000000109                     I0215800     30061800000000035003410000017N070518104700000000000103006180000000000000000000000000000000000000000100007924464700GILCEMAR PEREIRA DE MORAES              RUA JOSE ELEOTERIO N 102                CAMPO LINDO 23898220SEROPEDICA     RJUNIAO UMB DOS CULTOS AFRO BRAS    30061810 000183
10231987175000168916200163100    000015798                    000157980000000000000109                     I0215798     30061800000000035003410000017N070518104700000000000103006180000000000000000000000000000000000000000100053211839704ALCIONE SOUZA DOS SANTOS                RUA: MARINO FELIX Nº 26 - SEPETIBA     RIO DE JANEI23535006RIO DE JANEIRO RJUNIAO UMB DOS CULTOS AFRO BRAS    30061810 000184
10231987175000168916200163100    000015797                    000157970000000000000109                     I0215797     30061800000000035003410000017N070518104700000000000103006180000000000000000000000000000000000000000100000559929781KLEBER SIQUEIRA CUNHA                   ESTRADA DO PIAI N 300                   GUARATIBA - 23028050RIO DE JANEIRO RJUNIAO UMB DOS CULTOS AFRO BRAS    30061810 000185
10231987175000168916200163100    000015795                    000157950000000000000109                     I0215795     30061800000000035003410000017N070518104700000000000103006180000000000000000000000000000000000000000100001653081767DEISE SIQUEIRA                          RUA PARLON SIQUEIRA N 59 CX P 93        BARRA DE GUA23020510RIO DE JANEIRO RJUNIAO UMB DOS CULTOS AFRO BRAS    30061810 000186
10231987175000168916200163100    000015792                    000157920000000000000109                     I0215792     30061800000000035003410000017N070518104700000000000103006180000000000000000000000000000000000000000100009199332701LUANDA MOREIRA DOS SANTOS FERN          RUA: EMILIA BORBA                       SURUI       21235620RIO DE JANEIRO RJUNIAO UMB DOS CULTOS AFRO BRAS    30061810 000187
10231987175000168916200163100    000015791                    000157910000000000000109                     I0215791     30061800000000035003410000017N070518104700000000000103006180000000000000000000000000000000000000000100009406419769MAURICIO DOS SANTOS SILVA               RUA CASTANHAL, TRAVESSA PROGRESSO I CASAPARQUE GENEC26061650NOVA IGUACU    RJUNIAO UMB DOS CULTOS AFRO BRAS    30061810 000188
10231987175000168916200163100    000015789                    000157890000000000000109                     I0215789     30061800000000035003410000017N070518104700000000000103006180000000000000000000000000000000000000000100099363704734SUELY FERNANDES LAPAS OLIVEIRA          RUA SARUTAIA SN LOTE 37                 GUARATIBA - 23032620RIO DE JANEIRO RJUNIAO UMB DOS CULTOS AFRO BRAS    30061810 000189
10231987175000168916200163100    000015788                    000157880000000000000109                     I0215788     30061800000000035003410000017N070518104700000000000103006180000000000000000000000000000000000000000100002102287768SERGIO RICARDO FERREIRA DOS SA          RUA LAGUNA N 23                         NOVA PIAM - 26116620BELFORD ROXO   RJUNIAO UMB DOS CULTOS AFRO BRAS    30061810 000190
10231987175000168916200163100    000015787                    000157870000000000000109                     I0215787     30061800000000035003410000017N070518104700000000000103006180000000000000000000000000000000000000000100076903729704ALUIZO NASCIMENTI DOS SANTOS            RUA DAS ROSAS N 801                     VILA FORMOSA26051370NOVA IGUACU    RJUNIAO UMB DOS CULTOS AFRO BRAS    30061810 000191
10231987175000168916200163100    000015786                    000157860000000000000109                     I0215786     30061800000000035003410000017N070518104700000000000103006180000000000000000000000000000000000000000100003009392729MARIA DA PENHA FLORENCIO                RUA SABUJI LOTE 5 QUADRA 20             JARDIM ROTSE25270030DUQUE DE CAXIASRJUNIAO UMB DOS CULTOS AFRO BRAS    30061810 000192
10231987175000168916200163100    000015785                    000157850000000000000109                     I0215785     30061800000000035003410000017N070518104700000000000103006180000000000000000000000000000000000000000100003567552740ERICA NADJARA DA LUZ                    RUA ENGENHEIRO ALARIPE N 114            LAGOINHA - N26296588NOVA IGUACU    RJUNIAO UMB DOS CULTOS AFRO BRAS    30061810 000193
10231987175000168916200163100    000015784                    000157840000000000000109                     I0215784     30061800000000035003410000017N070518104700000000000103006180000000000000000000000000000000000000000100001317399722JUSSARA DOS SANTOS MACHADO              RUA ARIES N 36                          PARQUE SAO J26190080BELFORD ROXO   RJUNIAO UMB DOS CULTOS AFRO BRAS    30061810 000194
10231987175000168916200163100    000015783                    000157830000000000000109                     I0215783     30061800000000035003410000017N070518104700000000000103006180000000000000000000000000000000000000000100011309006733TIAGO FEUCHARD DIAS                     RUA QUARENTA E NOVE N 130               IPIABAS - BA27170000BARRA DO PIRAI RJUNIAO UMB DOS CULTOS AFRO BRAS    30061810 000195
10231987175000168916200163100    000015782                    000157820000000000000109                     I0215782     30061800000000035003410000017N070518104700000000000103006180000000000000000000000000000000000000000100095529616704MARCOS LUIZ BORGES FIGUEIREDO           RUA PADUA N 95 - REDENTOR               REDENTOR - B26110250BELFORD ROXO   RJUNIAO UMB DOS CULTOS AFRO BRAS    30061810 000196
10231987175000168916200163100    000015781                    000157810000000000000109                     I0215781     30061800000000035003410000017N070518104700000000000103006180000000000000000000000000000000000000000100002871088489JOSE ADRIANO DA SILVA                   RUA UMEBOSCHE N 430                     JARDIM PARAI26297054NOVA IGUACU    RJUNIAO UMB DOS CULTOS AFRO BRAS    30061810 000197
10231987175000168916200163100    000015778                    000157780000000000000109                     I0215778     30061800000000035003410000017N070518104700000000000103006180000000000000000000000000000000000000000100013297469706LEANDRO SOUZA DE JESUS                  RUA DAS MARRECAS - RUA CARLOTA SN       PARQUE ANTAR26053310NOVA IGUACU    RJUNIAO UMB DOS CULTOS AFRO BRAS    30061810 000198
10231987175000168916200163100    000015777                    000157770000000000000109                     I0215777     30061800000000035003410000017N070518104700000000000103006180000000000000000000000000000000000000000200000000012736JORGE CARLOS RODRIGUES DE OLIV          ESTRADA TAQUARAL LOTE 12                JARDIM NAZAR26062221NOVA IGUACU    RJUNIAO UMB DOS CULTOS AFRO BRAS    30061810 000199
10231987175000168916200163100    000015774                    000157740000000000000109                     I0215774     30061800000000035003410000017N070518104700000000000103006180000000000000000000000000000000000000000100010498307760WILLIAM ROSA DA COSTA                   RUA OITENTA LOTE 35 QUADRA 246          IPIRANGA - M25927164MAGE           RJUNIAO UMB DOS CULTOS AFRO BRAS    30061810 000200
10231987175000168916200163100    000015771                    000157710000000000000109                     I0215771     30061800000000035003410000017N070518104700000000000103006180000000000000000000000000000000000000000200000000012726VALTER CRISTIANO DOS SANTOS             RUA SAO VENANCIO N 327                  RICARDO DE A21640330RIO DE JANEIRO RJUNIAO UMB DOS CULTOS AFRO BRAS    30061810 000201
10231987175000168916200163100    000015769                    000157690000000000000109                     I0215769     30061800000000035003410000017N070518104700000000000103006180000000000000000000000000000000000000000100012488412716CHARLES GARCIA DE OLIVEIRA              ESTRADA DO QUITUNGO N 45 FRENTE         BRAZ DE PINA21215562RIO DE JANEIRO RJUNIAO UMB DOS CULTOS AFRO BRAS    30061810 000202
10231987175000168916200163100    000015767                    000157670000000000000109                     I0215767     30061800000000035003410000017N070518104700000000000103006180000000000000000000000000000000000000000100060601493400IRACEMA SILVA DE SANTANA                NUNCA RUA XAVANTE N 243                 BANGU - RIO 21840030RIO DE JANEIRO RJUNIAO UMB DOS CULTOS AFRO BRAS    30061810 000203
10231987175000168916200163100    000015765                    000157650000000000000109                     I0215765     30061800000000035003410000017N070518104700000000000103006180000000000000000000000000000000000000000100012781404764RICARDO RIBEIRO DOS SANTOS              RUA MARIA FRANCISCA,16 B                CENTRO - CAM23050030RIO DE JANEIRO RJUNIAO UMB DOS CULTOS AFRO BRAS    30061810 000204
10231987175000168916200163100    000015763                    000157630000000000000109                     I0215763     30061800000000035003410000017N070518104700000000000103006180000000000000000000000000000000000000000100007708082714CRISTIANE DEODATO                       ESTRADA REAL DE MAUA N 132              MAUA - MAGE 25927304MAGE           RJUNIAO UMB DOS CULTOS AFRO BRAS    30061810 000205
10231987175000168916200163100    000015762                    000157620000000000000109                     I0215762     30061800000000035003410000017N070518104700000000000103006180000000000000000000000000000000000000000100009959898776ANGELICA MONTEIRO DE OLIVEIRA           RUA CINCO N 313 - GLEBA A - CHAPERO     ITAGUAI - RJ23831190ITAGUAI        RJUNIAO UMB DOS CULTOS AFRO BRAS    30061810 000206
10231987175000168916200163100    000015761                    000157610000000000000109                     I0215761     30061800000000035003410000017N070518104700000000000103006180000000000000000000000000000000000000000100080592368491MARIA JOSE PEREIRA NOGUEIRA DE          ALAMEDA GOIANIA N 26                    ENGENHO DO R24752520SAO GONCALO    RJUNIAO UMB DOS CULTOS AFRO BRAS    30061810 000207
10231987175000168916200163100    000015760                    000157600000000000000109                     I0215760     30061800000000035003410000017N070518104700000000000103006180000000000000000000000000000000000000000100015295681700MICHEL FERNANDES BASTOS CRESPO          RUA ROSANGELA TOSTES                    PARQUE FLUMI26185260BELFORD ROXO   RJUNIAO UMB DOS CULTOS AFRO BRAS    30061810 000208
10231987175000168916200163100    000015759                    000157590000000000000109                     I0215759     30061800000000035003410000017N070518104700000000000103006180000000000000000000000000000000000000000100007809907735LUCIANA SANTOS DA SILVA                 BECO ADELIA N 3 - NOSSA SENHORA DAS GRACILHA DO GOVE21932003ILHA DO GOVERNARJUNIAO UMB DOS CULTOS AFRO BRAS    30061810 000209
10231987175000168916200163100    000015757                    000157570000000000000109                     I0215757     30061800000000035003410000017N070518104700000000000103006180000000000000000000000000000000000000000100080974015768SHEYLA REGINA SERAPHIM DA HORA          RUA CAMBAI 49                           QUINTINO BOC21380300RIO DE JANEIRO RJUNIAO UMB DOS CULTOS AFRO BRAS    30061810 000210
10231987175000168916200163100    000015756                    000157560000000000000109                     I0215756     30061800000000035003410000017N070518104700000000000103006180000000000000000000000000000000000000000200000000012685JOSE HENRIQUE MOREIRA DE ARAUJ          RUA OITENTA E UM LOTE 35 QUADRA 247     IPIRANGA - M25927168MAGE           RJUNIAO UMB DOS CULTOS AFRO BRAS    30061810 000211
10231987175000168916200163100    000015755                    000157550000000000000109                     I0215755     30061800000000035003410000017N070518104700000000000103006180000000000000000000000000000000000000000100090036018791SILVIA ELAINE GEVEGIR DA SILVA          RUA VINTE, QUADRA 305 LOTE 34           PARADA MORAB25265130DUQUE DE CAXIASRJUNIAO UMB DOS CULTOS AFRO BRAS    30061810 000212
10231987175000168916200163100    000015754                    000157540000000000000109                     I0215754     30061800000000035003410000017N070518104700000000000103006180000000000000000000000000000000000000000100014653084742THEILOR MORAIS DE MIRANDA               RUA SAO BENEDITO, 25                    VILA GENI - 23826010ITAGUAI        RJUNIAO UMB DOS CULTOS AFRO BRAS    30061810 000213
10231987175000168916200163100    000015752                    000157520000000000000109                     I0215752     30061800000000035003410000017N070518104700000000000103006180000000000000000000000000000000000000000100005441529723RAQUEL LUCILIA SANTOS RAMOS             AVENIDA DE SANTA CRUZ N 11066           SENADOR VASC23010002RIO DE JANEIRO RJUNIAO UMB DOS CULTOS AFRO BRAS    30061810 000214
10231987175000168916200163100    000015751                    000157510000000000000109                     I0215751     30061800000000035003410000017N070518104700000000000103006180000000000000000000000000000000000000000100002161361724ELISANGELA VIRGINIA CARVALHO A          RUA MARIA BENJAMIN N 391 CASA 1         PILARES - RI20950360RIO DE JANEIRO RJUNIAO UMB DOS CULTOS AFRO BRAS    30061810 000215
10231987175000168916200163100    000015748                    000157480000000000000109                     I0215748     30061800000000035003410000017N070518104700000000000103006180000000000000000000000000000000000000000100053606259769ROSILANE FRANCISCA DOS SANTOS           RUA ARTUR FARIAS N 252                  RIO DO DOURO25922184MAGE           RJUNIAO UMB DOS CULTOS AFRO BRAS    30061810 000216
10231987175000168916200163100    000015746                    000157460000000000000109                     I0215746     30061800000000035003410000017N070518104700000000000103006180000000000000000000000000000000000000000100001084586797ANA GLORIA NONATO CASTILHO              RUA ANTONIO JOSE DE MORAES N°210 FUNDOSPAVUNA - RJ 25515140RIO DE JANEIRO RJUNIAO UMB DOS CULTOS AFRO BRAS    30061810 000217
10231987175000168916200163100    000015744                    000157440000000000000109                     I0215744     30061800000000035003410000017N070518104700000000000103006180000000000000000000000000000000000000000100080020542704DENISE PINHEIRO MOURA                   RUA SOTERO VAZ                          IRAJA - RJ  21230140RIO DE JANEIRO RJUNIAO UMB DOS CULTOS AFRO BRAS    30061810 000218
10231987175000168916200163100    000015741                    000157410000000000000109                     I0215741     30061800000000035003410000017N070518104700000000000103006180000000000000000000000000000000000000000100067321364704MARGARETH SOARES PECHIR                 RUA PRACINHA CESARIO AGUIAR N 256       PITANGUEIRAS21930230ILHA DO GOVERNARJUNIAO UMB DOS CULTOS AFRO BRAS    30061810 000219
10231987175000168916200163100    000015739                    000157390000000000000109                     I0215739     30061800000000035003410000017N070518104700000000000103006180000000000000000000000000000000000000000100001346507783ANDREIA FERREIRA E CUNHA                RUA TIRADENTES N 465 CASA 4             CONFIDENCIA 26323260NOVA IGUACU    RJUNIAO UMB DOS CULTOS AFRO BRAS    30061810 000220
10231987175000168916200163100    000015738                    000157380000000000000109                     I0215738     30061800000000035003410000017N070518104700000000000103006180000000000000000000000000000000000000000100007429798659LUCIANA DIAS DE ARRUDA                  RUA JULIA TREVIZANO N 16                SANTO ANTONI36500000UBA            MGUNIAO UMB DOS CULTOS AFRO BRAS    30061810 000221
10231987175000168916200163100    000015737                    000157370000000000000109                     I0215737     30061800000000035003410000017N070518104700000000000103006180000000000000000000000000000000000000000100078885647715NELMA ARLOY VIEIRA                      RUA QUIRIRIM N 1534 CASA 34 SUBSOLO     VILA VALQUEI21380658RIO DE JANEIRO RJUNIAO UMB DOS CULTOS AFRO BRAS    30061810 000222
10231987175000168916200163100    000015735                    000157350000000000000109                     I0215735     30061800000000035003410000017N070518104700000000000103006180000000000000000000000000000000000000000100054968330782REGINA DA MOTA TRINDADE                 RUA CORVILHA LOTE 5 QUADRA 351          PARADA MORAB25265353DUQUE DE CAXIASRJUNIAO UMB DOS CULTOS AFRO BRAS    30061810 000223
10231987175000168916200163100    000015734                    000157340000000000000109                     I0215734     30061800000000035003410000017N070518104700000000000103006180000000000000000000000000000000000000000100012097291724CAROLINA B. DE C. CAVALCANTI            RUA: VITAL                              QUINTINO BOC21380008RIO DE JANEIRO RJUNIAO UMB DOS CULTOS AFRO BRAS    30061810 000224
10231987175000168916200163100    000015730                    000157300000000000000109                     I0215730     30061800000000035003410000017N070518104700000000000103006180000000000000000000000000000000000000000100003858469750MARIA DO SOCORRO PEREIRA DE SO          RUA CIRENE DE MORAES COSTA SN QUADRA D LTRES FONTES 26382506NOVA IGUACU    RJUNIAO UMB DOS CULTOS AFRO BRAS    30061810 000225
10231987175000168916200163100    000015728                    000157280000000000000109                     I0215728     30061800000000035003410000017N070518104700000000000103006180000000000000000000000000000000000000000100037257831715WALTANIR LOURENCO DOS SANTOS            RUA APORUNA N 52                        PARQUE SAO J26190130BELFORD ROXO   RJUNIAO UMB DOS CULTOS AFRO BRAS    30061810 000226
10231987175000168916200163100    000015726                    000157260000000000000109                     I0215726     30061800000000035003410000017N070518104700000000000103006180000000000000000000000000000000000000000100005785015706JOSE TOMASIO                            RUA: DA FIGUEIRA                        TRES POCOS -27240590VOLTA REDONDA  RJUNIAO UMB DOS CULTOS AFRO BRAS    30061810 000227
10231987175000168916200163100    000015716                    000157160000000000000109                     I0215716     30061800000000035003410000017N070518104700000000000103006180000000000000000000000000000000000000000100093743920700RITA DE CASSIA COSTA SENNA              RUA COMANDANTE ARY PARREIRAS N 181      CENTRO - SAO25515080SAO JOAO DE MERRJUNIAO UMB DOS CULTOS AFRO BRAS    30061810 000228
10231987175000168916200163100    000015715                    000157150000000000000109                     I0215715     30061800000000035003410000017N070518104700000000000103006180000000000000000000000000000000000000000100085339695700DAYSE DE ALMEIDA SOARES                 O MESMO                                 O MESMO     22750054RIO DE JANEIRO RJUNIAO UMB DOS CULTOS AFRO BRAS    30061810 000229
10231987175000168916200163100    000015714                    000157140000000000000109                     I0215714     30061800000000035003410000017N070518104700000000000103006180000000000000000000000000000000000000000100084407883715MAURO FERREIRA MATHEUS                  ESTRADA DO ENGENHO, RUA CASTOR DE ANDRADPRACA PIQUER21370200BANGU          RJUNIAO UMB DOS CULTOS AFRO BRAS    30061810 000230
10231987175000168916200163100    000015713                    000157130000000000000109                     I0215713     30061800000000035003410000017N070518104700000000000103006180000000000000000000000000000000000000000100000446671754JUSSARA MATHIAS TEIXEIRA                RUA VEREADOR OSVALDO MARCONDES N 106    JOSE BONIFAC25515380SAO JOAO DE MERRJUNIAO UMB DOS CULTOS AFRO BRAS    30061810 000231
10231987175000168916200163100    000015712                    000157120000000000000109                     I0215712     30061800000000035003410000017N070518104700000000000103006180000000000000000000000000000000000000000100072386296700FERNANDO LOPES NARCISO                  RUA IPINAMBES, 196                      TAQUARA - JA22730210RIO DE JANEIRO RJUNIAO UMB DOS CULTOS AFRO BRAS    30061810 000232
10231987175000168916200163100    000015709                    000157090000000000000109                     I0215709     30061800000000035003410000017N070518104700000000000103006180000000000000000000000000000000000000000100014190708780MATHEUS APOLONIO DO AMARAL              TRAVESSA MANOEL RODRIGUES DE ALMEIDA N 1FONSECA - NI24060048NITEROI        RJUNIAO UMB DOS CULTOS AFRO BRAS    30061810 000233
10231987175000168916200163100    000015706                    000157060000000000000109                     I0215706     30061800000000035003410000017N070518104700000000000103006180000000000000000000000000000000000000000100060709910797FATIMA REGINA CARVALHO                  RUA MACHADO  QD 135 LOTE 42 CASA 2      JARDIM ATLAN24935540MARICA         RJUNIAO UMB DOS CULTOS AFRO BRAS    30061810 000234
10231987175000168916200163100    000015705                    000157050000000000000109                     I0215705     30061800000000035003410000017N070518104700000000000103006180000000000000000000000000000000000000000100009952239718EVANGELO RAIMUNDO                       RUA GENUINO SIQUEIRA, 52                JARDIM MERIT25555300SAO JOAO DE MERRJUNIAO UMB DOS CULTOS AFRO BRAS    30061810 000235
10231987175000168916200163100    000015704                    000157040000000000000109                     I0215704     30061800000000035003410000017N070518104700000000000103006180000000000000000000000000000000000000000100005626387745VANIA SANTIAGO                          RUA MANOEL VIEIRA, 576                  CENTRO - DUQ25020210DUQUE DE CAXIASRJUNIAO UMB DOS CULTOS AFRO BRAS    30061810 000236
10231987175000168916200163100    000015701                    000157010000000000000109                     I0215701     30061800000000035003410000017N070518104700000000000103006180000000000000000000000000000000000000000100008665082794CARLOS EDUARDO DE ALMEIDA BOSI          RUA SARGENTO PAULO MOREIRA, 91          SANTO AGOSTI27211150VOLTA REDONDA  RJUNIAO UMB DOS CULTOS AFRO BRAS    30061810 000237
10231987175000168916200163100    000015700                    000157000000000000000109                     I0215700     30061800000000035003410000017N070518104700000000000103006180000000000000000000000000000000000000000100001413305709LUCIO MAURO DE AQUINO BARBOSA           RUA FAIA, 455                           ROCHA MIRAND21545110RIO DE JANEIRO RJUNIAO UMB DOS CULTOS AFRO BRAS    30061810 000238
10231987175000168916200163100    000015698                    000156980000000000000109                     I0215698     30061800000000035003410000017N070518104700000000000103006180000000000000000000000000000000000000000100057231737749ELIZABETE CARVALHO COSTA                RUA EXPEDICIONARIO SIMAO FERNANDES, 31 BCOLUMBANDE -24451700SAO GONCALO    RJUNIAO UMB DOS CULTOS AFRO BRAS    30061810 000239
10231987175000168916200163100    000015697                    000156970000000000000109                     I0215697     30061800000000035003410000017N070518104700000000000103006180000000000000000000000000000000000000000100077351436649RONALDO MARTINS DOS SANTOS              RUA DOMINGOS MARCOS DA SILVA,196        SENHOR DOS M36300356SAO JOAO DEL REMGUNIAO UMB DOS CULTOS AFRO BRAS    30061810 000240
10231987175000168916200163100    000015696                    000156960000000000000109                     I0215696     30061800000000035003410000017N070518104700000000000103006180000000000000000000000000000000000000000100016369746789JOAO VITOR LEANDRO DOS SANTOS           AVENIDA PREFEITO BRAULINO DE MATOS REIS,LEOPOLDINA -25060445D. CAXIAS      RJUNIAO UMB DOS CULTOS AFRO BRAS    30061810 000241
10231987175000168916200163100    000015695                    000156950000000000000109                     I0215695     30061800000000035003410000017N070518104700000000000103006180000000000000000000000000000000000000000100083493336772CARLOS FRANCISCO ARAGAO DE GOU          RUA DA CARIDADE, LOTE 39 QUADRA 2       TAQUARA - D.25275010DUQUE DE CAXIASRJUNIAO UMB DOS CULTOS AFRO BRAS    30061810 000242
10231987175000168916200163100    000015694                    000156940000000000000109                     I0215694     30061800000000035003410000017N070518104700000000000103006180000000000000000000000000000000000000000100015458844718ANDRE LUIZ TRINDADE JUNIOR              RUA ERTA, 25                            IMPERADOR - 25900001MAGE           RJUNIAO UMB DOS CULTOS AFRO BRAS    30061810 000243
10231987175000168916200163100    000015691                    000156910000000000000109                     I0215691     30061800000000035003410000017N070518104700000000000103006180000000000000000000000000000000000000000100000200790790LUIS JORGE MOCO                         RUA: ECA DE QUEIROS LOTE 74 QUADRA 7    PANTANAL - D25040350DUQUE DE CAXIASRJUNIAO UMB DOS CULTOS AFRO BRAS    30061810 000244
10231987175000168916200163100    000015690                    000156900000000000000109                     I0215690     30061800000000035003410000017N070518104700000000000103006180000000000000000000000000000000000000000100005953253605MILTON COELHO DO NASCIMENTO JU          RUA BEZERRA DE MENEZES N 73 APT 102     VAZ LOBO - R21361000RIO DE JANEIRO RJUNIAO UMB DOS CULTOS AFRO BRAS    30061810 000245
10231987175000168916200163100    000015689                    000156890000000000000109                     I0215689     30061800000000035003410000017N070518104700000000000103006180000000000000000000000000000000000000000100080801048753SUZEEL RODRIGUES BISPO BENJAMI          RUA CURITIBA, 98                        REALENGO - R21730240RIO DE JANEIRO RJUNIAO UMB DOS CULTOS AFRO BRAS    30061810 000246
10231987175000168916200163100    000015686                    000156860000000000000109                     I0215686     30061800000000035003410000017N070518104700000000000103006180000000000000000000000000000000000000000100000000001251GUILHERME SANTOS LINHARES               RUA ROUGET LISLE SN CASA 21 LOTE 29 52  PANTANAL - D25040360DUQUE DE CAXIASRJUNIAO UMB DOS CULTOS AFRO BRAS    30061810 000247
10231987175000168916200163100    000015685                    000156850000000000000109                     I0215685     30061800000000035003410000017N070518104700000000000103006180000000000000000000000000000000000000000100027313590725JOAO BATISTA FERREIRA                   RUA TEIXEIRA PINTO, 116                 ENGENHEIRO B25520210SAO JOAO DE MERRJUNIAO UMB DOS CULTOS AFRO BRAS    30061810 000248
10231987175000168916200163100    000015683                    000156830000000000000109                     I0215683     30061800000000035003410000017N070518104700000000000103006180000000000000000000000000000000000000000100010368667774SUZANA PEREIRA MOIZINHO                 RUA CONCEICAO DA PEDRA N 77             ARNALDO EUGE23016330CAMPO GRANDE   RJUNIAO UMB DOS CULTOS AFRO BRAS    30061810 000249
