01REMESSA01COBRANCA       817800093673        União Umb dos Cultos Afro Bra341BANCO ITAU SA  160618                                                                                                                                                                                                                                                                                                      000001
10231987175000168817800093673    000021214                    000212140000000000000109                     I0121214     20061800000000105003410000017N150618104700000000000102006180000000000000000000000000000000000000000100008604956719MIRIAN DE MATTOS ALVES                  AVENIDA MOACIR SARAIVA DE CARVALHO      JARDIM METRO25571190SAO JOAO DE MERRJUNIAO UMB DOS CULTOS AFRO BRAS    20061810 000002
10231987175000168817800093673    000021213                    000212130000000000000109                     I0121213     20061800000000070003410000017N150618104700000000000102006180000000000000000000000000000000000000000100067293816715SCHEYLA ARNALDO                         RUA PRAIA DA FERRADURA                  CAMINHO DE B28900000RIO DE JANEIRO RJUNIAO UMB DOS CULTOS AFRO BRAS    20061810 000003
10231987175000168817800093673    000021212                    000212120000000000000109                     I0121212     20061800000000070003410000017N150618104700000000000102006180000000000000000000000000000000000000000100001087376750ALAN RICARDO DA CONCEICAO GAMA          RUA JULIO JOSE DA SILVA                 SANTA CRUZ  22783116RIO DE JANEIRO RJUNIAO UMB DOS CULTOS AFRO BRAS    20061810 000004
10231987175000168817800093673    000021210                    000212100000000000000109                     I0121210     15061800000000070003410000017N150618104700000000000101506180000000000000000000000000000000000000000100002134169729ALEXANDRE DE ALMEIDA                    RUA SERITINGA                           BRAS DE PINA21215480RIO DE JANEIRO RJUNIAO UMB DOS CULTOS AFRO BRAS    15061810 000005
10231987175000168817800093673    000021209                    000212090000000000000109                     I0121209     20061800000000035003410000017N150618104700000000000102006180000000000000000000000000000000000000000100097990531704CICERO ROGERIO DA SILVA MATOS           RUA: ROBERTO N 99                       VILA GUIMARA26088425NOVA IGUACU    RJUNIAO UMB DOS CULTOS AFRO BRAS    20061810 000006
10231987175000168817800093673    000021208                    000212080000000000000109                     I0121208     20061800000000035003410000017N150618104700000000000102006180000000000000000000000000000000000000000100003723310761RODRIGO CARDOSO DA CUNHA                EST: VELHA DE MARICA                    BALDEADOR   24140000NITEROI        RJUNIAO UMB DOS CULTOS AFRO BRAS    20061810 000007
10231987175000168817800093673    000021207                    000212070000000000000109                     I0121207     30061800000000035003410000017N150618104700000000000103006180000000000000000000000000000000000000000100053218833787MARLUCE SUELY DA SILVA                  RUA CHRISOSTOMO PIMENTEL DE OLIVEIRA, 63ANCHIETA - R21645521RIO DE JANEIRO RJUNIAO UMB DOS CULTOS AFRO BRAS    30061810 000008
10231987175000168817800093673    000021206                    000212060000000000000109                     I0121206     20061800000000175003410000017N140618104700000000000102006180000000000000000000000000000000000000000100003598384726ROSANE QUIRINO DA SILVA                 RUA MANUEL RODRIGUES FONTINHA, 119      NOVA CIDADE 26535270NILOPOLIS      RJUNIAO UMB DOS CULTOS AFRO BRAS    20061810 000009
10231987175000168817800093673    000021205                    000212050000000000000109                     I0121205     30081800000000040003410000017N140618104700000000000103008180000000000000000000000000000000000000000207325726570220DAMIANA DE OLIVEIRA PINHEIRO            RUA PROJETADA ALPHA QUADRA 5 LOTE 6     MORADA VERDE23575270SANTA CRUZ     RJUNIAO UMB DOS CULTOS AFRO BRAS    30081810 000010
10231987175000168817800093673    000021204                    000212040000000000000109                     I0121204     30071800000000040003410000017N140618104700000000000103007180000000000000000000000000000000000000000207325726570220DAMIANA DE OLIVEIRA PINHEIRO            RUA PROJETADA ALPHA QUADRA 5 LOTE 6     MORADA VERDE23575270SANTA CRUZ     RJUNIAO UMB DOS CULTOS AFRO BRAS    30071810 000011
10231987175000168817800093673    000021203                    000212030000000000000109                     I0121203     30081800000000040003410000017N140618104700000000000103008180000000000000000000000000000000000000000100085737437787NIVALDA PIRES RUFINO                    RUA: MARIO CARPENTER                    ABOLICAO    20755065RIO DE JANEIRO RJUNIAO UMB DOS CULTOS AFRO BRAS    30081810 000012
10231987175000168817800093673    000021202                    000212020000000000000109                     I0121202     30071800000000040003410000017N140618104700000000000103007180000000000000000000000000000000000000000100085737437787NIVALDA PIRES RUFINO                    RUA: MARIO CARPENTER                    ABOLICAO    20755065RIO DE JANEIRO RJUNIAO UMB DOS CULTOS AFRO BRAS    30071810 000013
10231987175000168817800093673    000021201                    000212010000000000000109                     I0121201     30081800000000040003410000017N140618104700000000000103008180000000000000000000000000000000000000000100059622091762ALDA GOMES DA SILVA                     RUA: VILA DOZE                          JARDIM PALMA23066186RIO DE JANEIRO RJUNIAO UMB DOS CULTOS AFRO BRAS    30081810 000014
10231987175000168817800093673    000021200                    000212000000000000000109                     I0121200     30071800000000040003410000017N140618104700000000000103007180000000000000000000000000000000000000000100059622091762ALDA GOMES DA SILVA                     RUA: VILA DOZE                          JARDIM PALMA23066186RIO DE JANEIRO RJUNIAO UMB DOS CULTOS AFRO BRAS    30071810 000015
10231987175000168817800093673    000014266                    000142660000000000000109                     I3414266     30041800000000035003410000017N270318104700000000000103004180000000000000000000000000000000000000000100000000012088ANDREZA SALDANHA DA CRUZ                RUA ANA APARICIO LT 19 QD 11 - NV EUDORABELFORD ROXO26125550BELFORD ROXO   RJUNIAO UMB DOS CULTOS AFRO BRAS    30041810 000016
10231987175000168817800093673    000013874                    000138740000000000000109                     I0213874     30051800000000035003410000017N200218104700000000000103005180000000000000000000000000000000000000000100097990531704CICERO ROGERIO DA SILVA MATOS           RUA: ROBERTO N 99                       VILA GUIMARA26088425NOVA IGUACU    RJUNIAO UMB DOS CULTOS AFRO BRAS    30051810 000017
10231987175000168817800093673    000013830                    000138300000000000000109                     I0213830     30051800000000035003410000017N200218104700000000000103005180000000000000000000000000000000000000000100053218833787MARLUCE SUELY DA SILVA                  RUA CHRISOSTOMO PIMENTEL DE OLIVEIRA, 63ANCHIETA - R21645521RIO DE JANEIRO RJUNIAO UMB DOS CULTOS AFRO BRAS    30051810 000018
10231987175000168817800093673    000013688                    000136880000000000000109                     I3413688     30051800000000035003410000017N200218104700000000000103005180000000000000000000000000000000000000000100001148949739MARIA DAS GRACAS SEBASTIANA DO          RUA PEREIRA PINTO N 91                  TOMAS COELHO20761350RIO DE JANEIRO RJUNIAO UMB DOS CULTOS AFRO BRAS    30051810 000019
10231987175000168817800093673    000012913                    000129130000000000000109                     I0212913     20061800000000070003410000017N200218104700000000000102006180000000000000000000000000000000000000000100002175979717CLAUDIA PILAR PERES SANTOS DE           RUA JOAO MACIEIRA                       MADUREIRA   21310090RIO DE JANEIRO RJUNIAO UMB DOS CULTOS AFRO BRAS    20061810 000020
10231987175000168817800093673    000012576                    000125760000000000000109                     I0212576     30051800000000035003410000017N200218104700000000000103005180000000000000000000000000000000000000000100001087376750ALAN RICARDO DA CONCEICAO GAMA          RUA JULIO JOSE DA SILVA                 SANTA CRUZ  22783116RIO DE JANEIRO RJUNIAO UMB DOS CULTOS AFRO BRAS    30051810 000021
10231987175000168817800093673    000012451                    000124510000000000000109                     I3412451     30051800000000035003410000017N200218104700000000000103005180000000000000000000000000000000000000000100001115386700DILZA TORRES PINTO DE JESUS             RUA: MARECHAL BARBEDO                   REALENGO - R21735340RIO DE JANEIRO RJUNIAO UMB DOS CULTOS AFRO BRAS    30051810 000022
10231987175000168817800093673    000011352                    000113520000000000000109                     I3411352     30041800000000035003410000017N200218104700000000000103004180000000000000000000000000000000000000000100043641717787YWONE AMELIA VAZ COSTA                  RUA CASTRO MENEZES N 284 CASA 1         BRAZ DE PINA21215250RIO DE JANEIRO RJUNIAO UMB DOS CULTOS AFRO BRAS    30041810 000023
10231987175000168817800093673    000010967                    000109670000000000000109                     I0210967     30041800000000035003410000017N200218104700000000000103004180000000000000000000000000000000000000000100001087376750ALAN RICARDO DA CONCEICAO GAMA          RUA JULIO JOSE DA SILVA                 SANTA CRUZ  22783116RIO DE JANEIRO RJUNIAO UMB DOS CULTOS AFRO BRAS    30041810 000024
10231987175000168817800093673    000010612                    000106120000000000000109                     I3410612     30031800000000035003410000017N200218104700000000000103003180000000000000000000000000000000000000000100053218833787MARLUCE SUELY DA SILVA                  RUA CHRISOSTOMO PIMENTEL DE OLIVEIRA, 63ANCHIETA - R21645521RIO DE JANEIRO RJUNIAO UMB DOS CULTOS AFRO BRAS    30031810 000025
10231987175000168817800093673    000010253                    000102530000000000000109                     I3410253     06041800000000035003410000017N200218104700000000000100604180000000000000000000000000000000000000000100073408042772VANDA CEZARIO LIMA BRAZ                 RUA JOSE FERNANDES DE OLIVEIRA, 70      CENTRO - NIL26521640NILOPOLIS      RJUNIAO UMB DOS CULTOS AFRO BRAS    06041810 000026
10231987175000168817800093673    000010222                    000102220000000000000109                     I3410222     30031800000000035003410000017N200218104700000000000103003180000000000000000000000000000000000000000100054085071734DENISE SANTANA MACIEL                   RUA CARATUVA, LOTE 19                   JARDIM SULAC22725020RIO DE JANEIRO RJUNIAO UMB DOS CULTOS AFRO BRAS    30031810 000027
10231987175000168817800093673    00009956                     000099560000000000000109                     I029956      30031800000000035003410000017N200218104700000000000103003180000000000000000000000000000000000000000100003723310761RODRIGO CARDOSO DA CUNHA                EST: VELHA DE MARICA                    BALDEADOR   24140000NITEROI        RJUNIAO UMB DOS CULTOS AFRO BRAS    30031810 000028
10231987175000168817800093673    00009746                     000097460000000000000109                     I349746      30031800000000035003410000017N200218104700000000000103003180000000000000000000000000000000000000000100090823516768ALEXANDRE LUIZ DE OLIVEIRA NET          RUA JOSE SOMBRA  539                    IRAJA  RIO D21230240RIO DE JANEIRO RJUNIAO UMB DOS CULTOS AFRO BRAS    30031810 000029
10231987175000168817800093673    00009743                     000097430000000000000109                     I349743      30031800000000035003410000017N200218104700000000000103003180000000000000000000000000000000000000000100043641717787YWONE AMELIA VAZ COSTA                  RUA CASTRO MENEZES N 284 CASA 1         BRAZ DE PINA21215250RIO DE JANEIRO RJUNIAO UMB DOS CULTOS AFRO BRAS    30031810 000030
10231987175000168817800093673    00009728                     000097280000000000000109                     I349728      30031800000000035003410000017N200218104700000000000103003180000000000000000000000000000000000000000100004121499743ELENICE FIGUEIREDO DA SILVA             O MESMO                                 O MESMO     24230210NITEROI        RJUNIAO UMB DOS CULTOS AFRO BRAS    30031810 000031
10231987175000168817800093673    00009724                     000097240000000000000109                     I349724      30031800000000035003410000017N200218104700000000000103003180000000000000000000000000000000000000000100005199150707RITA LUSIE DE MELLO CASTRO              RUA IARA N 118 CASA A                   SAO MATEUS -25525410SAO JOAO DE MERRJUNIAO UMB DOS CULTOS AFRO BRAS    30031810 000032
10231987175000168817800093673    00009358                     000093580000000000000109                     I029358      30031800000000035003410000017N200218104700000000000103003180000000000000000000000000000000000000000100001087376750ALAN RICARDO DA CONCEICAO GAMA          RUA JULIO JOSE DA SILVA                 SANTA CRUZ  22783116RIO DE JANEIRO RJUNIAO UMB DOS CULTOS AFRO BRAS    30031810 000033
10231987175000168817800093673    00009085                     000090850000000000000109                     I029085      19021800000000140003410000017N300118104700000000000101902180000000000000000000000000000000000000000100003328096760MARCO ANTONIO DA SILVA                  RUA: WALDEMAR VIEIRA AFONSO Nº 1200    CARANGOLA - 25715402DUQUE DE CAXIASRJUNIAO UMB DOS CULTOS AFRO BRAS    19021810 000034
10231987175000168817800093673    00009069                     000090690000000000000109                     I029069      08021800000000315003410000017N280118104700000000000100802180000000000000000000000000000000000000000100007802202779ROBERTO DE OLIVEIRA ALONSO NET          RUA VEREADOR FRANCISCO NUNES, 1266 APTO CENTRO - NIL26540040NILOPOLIS      RJUNIAO UMB DOS CULTOS AFRO BRAS    08021810 000035
10231987175000168817800093673    00009038                     000090380000000000000109                     I029038      20021800000000035003410000017N170118104700000000000102002180000000000000000000000000000000000000000100090617249744RAQUEL DA PAZ                           RUA ITABIBOCA LOTE 10 QUADRA 342 (ANTIGAPARADA MORAB25265188DUQUE DE CAXIASRJUNIAO UMB DOS CULTOS AFRO BRAS    20021810 000036
10231987175000168817800093673    00009023                     000090230000000000000109                     I029023      31011800000000175003410000017N120118104700000000000103101180000000000000000000000000000000000000000100010276278704ROSELI DE OLIVEIRA DUTRA                RUA UM LOTE 7 QUADRA 8                  TAQUARA - DU25275110DUQUE DE CAXIASRJUNIAO UMB DOS CULTOS AFRO BRAS    31011810 000037
10231987175000168817800093673    00009022                     000090220000000000000109                     I029022      20021800000000175003410000017N120118104700000000000102002180000000000000000000000000000000000000000100002871088489JOSE ADRIANO DA SILVA                   RUA UMEBOSCHE N 430                     JARDIM PARAI26297054NOVA IGUACU    RJUNIAO UMB DOS CULTOS AFRO BRAS    20021810 000038
10231987175000168817800093673    00009021                     000090210000000000000109                     I029021      31011800000000105003410000017N120118104700000000000103101180000000000000000000000000000000000000000100007822585738IZANIRA COSTA                           RUA DOUTOR LUIS SOBRAL, 301             TOMAZINHO - 25525520SAO JOAO DE MERRJUNIAO UMB DOS CULTOS AFRO BRAS    31011810 000039
10231987175000168817800093673    00009009                     000090090000000000000109                     I029009      12021800000000455003410000017N100118104700000000000101202180000000000000000000000000000000000000000100002309597767ELISETE DE SOUZA GOMES                  RUA CLEIDE TAVORA N 87 CASA 1           MONTE CASTEL26041145NOVA IGUACU    RJUNIAO UMB DOS CULTOS AFRO BRAS    12021810 000040
10231987175000168817800093673    00009008                     000090080000000000000109                     I029008      30011800000000280003410000017N100118104700000000000103001180000000000000000000000000000000000000000100037497928791ANASTACIA CANDIDO RAIMUNDO              RUA ALAMEDA 33 - CHAO DE ESTRELAS N 84  PAVUNA - RIO21521100RIO DE JANEIRO RJUNIAO UMB DOS CULTOS AFRO BRAS    30011810 000041
10231987175000168817800093673    00008999                     000089990000000000000109                     I028999      31011800000000035003410000017N090118104700000000000103101180000000000000000000000000000000000000000100082396841734LUCIA DE FATIMA DE SOUZA                RUA: RESPLANDECER                       PARAISO     26297159NOVA IGUACU    RJUNIAO UMB DOS CULTOS AFRO BRAS    31011810 000042
10231987175000168817800093673    00008321                     000083210000000000000109                     I348321      28021800000000035003410000017N291217104700000000000102802180000000000000000000000000000000000000000100007258424741SILVIA MARIA CAIADO DE CASTRO           RUA ESMERALDA VALLADARES, 41 LOTEAMENTO ITAIPU - NIT24342000NITEROI        RJUNIAO UMB DOS CULTOS AFRO BRAS    28021810 000043
10231987175000168817800093673    00008137                     000081370000000000000109                     I348137      23031800000000035003410000017N291217104700000000000102303180000000000000000000000000000000000000000100090823516768ALEXANDRE LUIZ DE OLIVEIRA NET          RUA JOSE SOMBRA  539                    IRAJA  RIO D21230240RIO DE JANEIRO RJUNIAO UMB DOS CULTOS AFRO BRAS    23031810 000044
10231987175000168817800093673    00008072                     000080720000000000000109                     I028072      28021800000000035003410000017N291217104700000000000102802180000000000000000000000000000000000000000100007039391732LAIZ ANDRADE DA CRUZ                    RUA CARAIPE                             BRAS DE PINA21012280RIO DE JANEIRO RJUNIAO UMB DOS CULTOS AFRO BRAS    28021810 000045
10231987175000168817800093673    00006909                     000069090000000000000109                     I346909      28021800000000035003410000017N271217104700000000000102802180000000000000000000000000000000000000000100073408042772VANDA CEZARIO LIMA BRAZ                 RUA JOSE FERNANDES DE OLIVEIRA, 70      CENTRO - NIL26521640NILOPOLIS      RJUNIAO UMB DOS CULTOS AFRO BRAS    28021810 000046
10231987175000168817800093673    00006077                     000060770000000000000109                     I026077      31011800000000035003410000017N261217104700000000000103101180000000000000000000000000000000000000000100006915594736CINTIA FERREIRA                         AVENIDA: DAS AMERICAS                   BARRA DA TIJ22631004RIO DE JANEIRO RJUNIAO UMB DOS CULTOS AFRO BRAS    31011810 000047
10231987175000168817800093673    00006074                     000060740000000000000109                     I026074      31011800000000035003410000017N261217104700000000000103101180000000000000000000000000000000000000000100003387547720APARECIDA DOS SANTOS                    RUA LAOS                                VILA HELIOPO26125170BELFORD ROXO   RJUNIAO UMB DOS CULTOS AFRO BRAS    31011810 000048
10231987175000168817800093673    00006073                     000060730000000000000109                     I026073      31011800000000035003410000017N261217104700000000000103101180000000000000000000000000000000000000000100062663810797PAULO AMERICO MOTTA DE AGUIAR           RUA CORURIPE                            MARECHAL HER21555490RIO DE JANEIRO RJUNIAO UMB DOS CULTOS AFRO BRAS    31011810 000049
10231987175000168817800093673    00006071                     000060710000000000000109                     I026071      31011800000000035003410000017N261217104700000000000103101180000000000000000000000000000000000000000100090219023700GUARACIARA CORREA PASCHOAL              RUA JOSE CABRAL                         VAL VERDE   26290783NOVA IGUACU    RJUNIAO UMB DOS CULTOS AFRO BRAS    31011810 000050
10231987175000168817800093673    00006065                     000060650000000000000109                     I026065      31011800000000035003410000017N261217104700000000000103101180000000000000000000000000000000000000000100006726905432DAYVIDY RAMON CANDIDO                   O MESMO                                 O MESMO     26415055JAPERI         RJUNIAO UMB DOS CULTOS AFRO BRAS    31011810 000051
10231987175000168817800093673    00006063                     000060630000000000000109                     I026063      31011800000000035003410000017N261217104700000000000103101180000000000000000000000000000000000000000100003604572746LUCIANA SANTOS DA SILVA DE LIM          O MESMO                                 O MESMO     25585110SAO JOAO DE MERRJUNIAO UMB DOS CULTOS AFRO BRAS    31011810 000052
10231987175000168817800093673    00006062                     000060620000000000000109                     I026062      31011800000000035003410000017N261217104700000000000103101180000000000000000000000000000000000000000100009445907728VICTOR DOS SANTOS ALLEN                 RUA PEDRO TELES                         SAO JOAO DE 25515032SAO JOAO DE MERRJUNIAO UMB DOS CULTOS AFRO BRAS    31011810 000053
10231987175000168817800093673    00006060                     000060600000000000000109                     I026060      31011800000000035003410000017N261217104700000000000103101180000000000000000000000000000000000000000100009145082707ELAINE CRISTINA DE MORAES               O MESMO                                 O MESMO     23063340RIO DE JANEIRO RJUNIAO UMB DOS CULTOS AFRO BRAS    31011810 000054
10231987175000168817800093673    00006057                     000060570000000000000109                     I026057      31011800000000020003410000017N261217104700000000000103101180000000000000000000000000000000000000000100015903167896PRISCILA APARECIDA SERRANO CLE          MESMO                                   MESMO       02251010SAO PAULO      SPUNIAO UMB DOS CULTOS AFRO BRAS    31011810 000055
10231987175000168817800093673    00006055                     000060550000000000000109                     I026055      31011800000000035003410000017N261217104700000000000103101180000000000000000000000000000000000000000100001234567890LUCIANO SOARES DA SILVA                 O MESMO                                 O MESMO     27910000MACAE          RJUNIAO UMB DOS CULTOS AFRO BRAS    31011810 000056
10231987175000168817800093673    00006051                     000060510000000000000109                     I026051      31011800000000035003410000017N261217104700000000000103101180000000000000000000000000000000000000000100082391106734CASSIO SOUZA DA COSTA                   O MESMO                                 O MESMO     26112220BELFORD ROXO   RJUNIAO UMB DOS CULTOS AFRO BRAS    31011810 000057
10231987175000168817800093673    00006050                     000060500000000000000109                     I026050      31011800000000035003410000017N261217104700000000000103101180000000000000000000000000000000000000000100087798999787NILZETE DA CONCEICAO FELIX              O MESMO                                 O MESMO     25264030DUQUE DE CAXIASRJUNIAO UMB DOS CULTOS AFRO BRAS    31011810 000058
10231987175000168817800093673    00006045                     000060450000000000000109                     I026045      31011800000000035003410000017N261217104700000000000103101180000000000000000000000000000000000000000100038378345734ADELIR MARIA DAS NEVES TEIXEIR          O MESMO                                 O MESMO     25267320DUQUE DE CAXIASRJUNIAO UMB DOS CULTOS AFRO BRAS    31011810 000059
10231987175000168817800093673    00006041                     000060410000000000000109                     I026041      31011800000000035003410000017N261217104700000000000103101180000000000000000000000000000000000000000100009250353782LUIZ CARLOS MATOLA                      APIACA                                  JARDIM PRIMA25056270DUQUE DE CAXIASRJUNIAO UMB DOS CULTOS AFRO BRAS    31011810 000060
10231987175000168817800093673    00006039                     000060390000000000000109                     I026039      31011800000000035003410000017N261217104700000000000103101180000000000000000000000000000000000000000100012345678910LUCIANA LUISA PEREIRA                   AVENIDA PORTO SEGURO N 469              LAGOMAR - MA27966870MACAE          RJUNIAO UMB DOS CULTOS AFRO BRAS    31011810 000061
10231987175000168817800093673    00006038                     000060380000000000000109                     I026038      31011800000000035003410000017N261217104700000000000103101180000000000000000000000000000000000000000100012464631728DIEGO TACITO COSTA HENRIQUE             RUA YONE MUZZI N 59                     MALVINAS - M27946310MACAE          RJUNIAO UMB DOS CULTOS AFRO BRAS    31011810 000062
10231987175000168817800093673    00006037                     000060370000000000000109                     I026037      31011800000000035003410000017N261217104700000000000103101180000000000000000000000000000000000000000200000000012990MARIA DA PENHA CORREA PINTO             RUA 1 CONDOMINIO 1 CASA 34              BOSQUE AZUL 27971250MACAE          RJUNIAO UMB DOS CULTOS AFRO BRAS    31011810 000063
10231987175000168817800093673    00006036                     000060360000000000000109                     I026036      31011800000000035003410000017N261217104700000000000103101180000000000000000000000000000000000000000100078514533568PAULO SERGIO SANTOS SANTANA             RUA: W 12 -  TRAVESSA SENA CASA 10      LAGOMAR - MA27966590MACAE          RJUNIAO UMB DOS CULTOS AFRO BRAS    31011810 000064
10231987175000168817800093673    00006035                     000060350000000000000109                     I026035      31011800000000035003410000017N261217104700000000000103101180000000000000000000000000000000000000000100010267774702NATHALIA SOUTELINHO FERREIRA            MARIA NATALIA                           GUARATIBA   23028270RIO DE JANEIRO RJUNIAO UMB DOS CULTOS AFRO BRAS    31011810 000065
10231987175000168817800093673    00006034                     000060340000000000000109                     I026034      31011800000000035003410000017N261217104700000000000103101180000000000000000000000000000000000000000100007208431701WEMERSON JOAO FARIAS DA SILVA           RUA: C N 3 LOTE 3 QUADRA G              SEPETIBA - R23545040RIO DE JANEIRO RJUNIAO UMB DOS CULTOS AFRO BRAS    31011810 000066
10231987175000168817800093673    00006033                     000060330000000000000109                     I026033      31011800000000035003410000017N261217104700000000000103101180000000000000000000000000000000000000000100073960560710CLAUDIA MARIA DE OLIVEIRA DOS           RUA: CARATUVA N 145                     JARDIM SULAC22725020RIO DE JANEIRO RJUNIAO UMB DOS CULTOS AFRO BRAS    31011810 000067
10231987175000168817800093673    00006032                     000060320000000000000109                     I026032      31011800000000035003410000017N261217104700000000000103101180000000000000000000000000000000000000000100014933850704LIDIA GABRIELLE DIAS RIBEIRO            RUA JORGE BRAGANCA SN LOTE 28 QUADRA 70 BOM PASTOR -26110080BELFORD ROXO   RJUNIAO UMB DOS CULTOS AFRO BRAS    31011810 000068
10231987175000168817800093673    00006030                     000060300000000000000109                     I026030      31011800000000035003410000017N261217104700000000000103101180000000000000000000000000000000000000000100001478776790CLEUSA FERREIRA PEREIRA                 RUA THEREMIN N 393                      COELHO NETO 21530290RIO DE JANEIRO RJUNIAO UMB DOS CULTOS AFRO BRAS    31011810 000069
10231987175000168817800093673    00006026                     000060260000000000000109                     I026026      31011800000000035003410000017N261217104700000000000103101180000000000000000000000000000000000000000100010292272766MARCIA JUPIRA SANTOS GONZAGA            RUA ANTONIO FELIX N 457                 CENTRO - NIL26520081NILOPOLIS      RJUNIAO UMB DOS CULTOS AFRO BRAS    31011810 000070
10231987175000168817800093673    00006025                     000060250000000000000109                     I026025      31011800000000035003410000017N261217104700000000000103101180000000000000000000000000000000000000000100090490894704EVELINE DA CONCEICAO                    AVENIDA ATLANTIDA  SN                   LAGOMAR - MA27966000MACAE          RJUNIAO UMB DOS CULTOS AFRO BRAS    31011810 000071
10231987175000168817800093673    00006024                     000060240000000000000109                     I026024      31011800000000035003410000017N261217104700000000000103101180000000000000000000000000000000000000000100013397736781JOVANE RANGEL DA SILVA                  RUA SILVA JARDIM N 200                  CENTRO - MAC27910340MACAE          RJUNIAO UMB DOS CULTOS AFRO BRAS    31011810 000072
10231987175000168817800093673    00006023                     000060230000000000000109                     I026023      31011800000000035003410000017N261217104700000000000103101180000000000000000000000000000000000000000100004188514760LUIZ CARLOS PEREIRA DA SILVA            RUA W N 24 TRAVESSA 13                  LAGOMAR - MA27966755MACAE          RJUNIAO UMB DOS CULTOS AFRO BRAS    31011810 000073
10231987175000168817800093673    00006021                     000060210000000000000109                     I026021      31011800000000035003410000017N261217104700000000000103101180000000000000000000000000000000000000000100016492108760TIAGO LOPES DE AZEVEDO SILVA            RUA X N 24 QUADRA 82                    PARADA MODEL25943365GUAPIMIRIM     RJUNIAO UMB DOS CULTOS AFRO BRAS    31011810 000074
10231987175000168817800093673    00006020                     000060200000000000000109                     I026020      31011800000000035003410000017N261217104700000000000103101180000000000000000000000000000000000000000200000000012966LEONARDO EUGENIO DOS SANTOS             RUA LUIZ PINTO DA SILVA N 547           PRAIA CAMPIS27923200MACAE          RJUNIAO UMB DOS CULTOS AFRO BRAS    31011810 000075
10231987175000168817800093673    00006019                     000060190000000000000109                     I026019      31011800000000035003410000017N261217104700000000000103101180000000000000000000000000000000000000000100095181890725ALEXANDRE DE SOUZA TAVARES SEN          O MESMO                                 O MESMO     26260230NOVA IGUACU    RJUNIAO UMB DOS CULTOS AFRO BRAS    31011810 000076
10231987175000168817800093673    00006017                     000060170000000000000109                     I026017      31011800000000035003410000017N261217104700000000000103101180000000000000000000000000000000000000000100011122717750RODRIGO DINIZ DA COSTA                  RUA ENGENHO DE DENTRO N 177 LOTE 26 QUADVILAR DOS TE25565230SAO JOAO DE MERRJUNIAO UMB DOS CULTOS AFRO BRAS    31011810 000077
10231987175000168817800093673    00006016                     000060160000000000000109                     I026016      31011800000000035003410000017N261217104700000000000103101180000000000000000000000000000000000000000100013090350750REINALDO GONCALVES DE OLIVEIRA          RUA DOMINGOS LEMOS N 99                 COELHO DA RO25550721SAO JOAO DE MERRJUNIAO UMB DOS CULTOS AFRO BRAS    31011810 000078
10231987175000168817800093673    00006013                     000060130000000000000109                     I026013      31011800000000035003410000017N261217104700000000000103101180000000000000000000000000000000000000000100048972215791MARIA PETRONILHA ROSA NATIVIDA          RUA JACARE ACANGA Nº 29 QUADRA 21      VILA MARIA H25255590DUQUE DE CAXIASRJUNIAO UMB DOS CULTOS AFRO BRAS    31011810 000079
10231987175000168817800093673    00006012                     000060120000000000000109                     I026012      31011800000000035003410000017N261217104700000000000103101180000000000000000000000000000000000000000100006110323764WAGNER MATOS DA SILVA                   RUA OLINDA Nº 425 CASA 3               BELA VISTA -26175350BELFORD ROXO   RJUNIAO UMB DOS CULTOS AFRO BRAS    31011810 000080
10231987175000168817800093673    00006011                     000060110000000000000109                     I026011      31011800000000035003410000017N261217104700000000000103101180000000000000000000000000000000000000000100092111777749WANDERLEY DOS SANTOS MENDES             PRACA EMBOABA Nº 67                    ENGENHO DA R20761160RIO DE JANEIRO RJUNIAO UMB DOS CULTOS AFRO BRAS    31011810 000081
10231987175000168817800093673    00006009                     000060090000000000000109                     I026009      31011800000000035003410000017N261217104700000000000103101180000000000000000000000000000000000000000100090432894772ALTAMIRO DAMASCENO MONCAO               RUA TENERIFE N 8 - PARADA DE LUCAS      PARADA DE LU21010000RIO DE JANEIRO RJUNIAO UMB DOS CULTOS AFRO BRAS    31011810 000082
10231987175000168817800093673    00006007                     000060070000000000000109                     I026007      31011800000000035003410000017N261217104700000000000103101180000000000000000000000000000000000000000100011834931770LEANDRO BARROS DA SILVA                 RUA ROMARIO SILVA N 40                  KENNEDY - NO26020640NOVA IGUACU    RJUNIAO UMB DOS CULTOS AFRO BRAS    31011810 000083
10231987175000168817800093673    00006006                     000060060000000000000109                     I026006      31011800000000035003410000017N261217104700000000000103101180000000000000000000000000000000000000000100012003631755ALEXSANDRO CORREA                       RUA DULIO COSTA                         IRAJA - RIO 21235410RIO DE JANEIRO RJUNIAO UMB DOS CULTOS AFRO BRAS    31011810 000084
10231987175000168817800093673    00006005                     000060050000000000000109                     I026005      31011800000000035003410000017N261217104700000000000103101180000000000000000000000000000000000000000100087306689720JANAINA SANTA CRUZ COSTA                ALAMEDA SANTO ANTONIO N 974             SEPETIBA - R23535660RIO DE JANEIRO RJUNIAO UMB DOS CULTOS AFRO BRAS    31011810 000085
10231987175000168817800093673    00006002                     000060020000000000000109                     I026002      31011800000000035003410000017N261217104700000000000103101180000000000000000000000000000000000000000100088041883753JORGE COSTA BRAGA FILHO                 RUA CENTO E VINTE E TRES N 267          MAUA - MAGE 25900000RIO DE JANEIRO RJUNIAO UMB DOS CULTOS AFRO BRAS    31011810 000086
10231987175000168817800093673    00006001                     000060010000000000000109                     I026001      31011800000000035003410000017N261217104700000000000103101180000000000000000000000000000000000000000100016618405742MILTON CARLOS JUNIO QUINTANILH          RUA SEIS LOTES 13 E 14 QUADRA 8         PARADA MORAB25265000DUQUE DE CAXIASRJUNIAO UMB DOS CULTOS AFRO BRAS    31011810 000087
10231987175000168817800093673    00006000                     000060000000000000000109                     I026000      31011800000000035003410000017N261217104700000000000103101180000000000000000000000000000000000000000100005234763706LUCIANA FERREIRA DE ALMEIDA             RUA QUATRO LOTE 1 QUADRA 258            PARADA MORAB25265220DUQUE DE CAXIASRJUNIAO UMB DOS CULTOS AFRO BRAS    31011810 000088
10231987175000168817800093673    00005999                     000059990000000000000109                     I025999      31011800000000035003410000017N261217104700000000000103101180000000000000000000000000000000000000000100012009305760DEBORA CRISTINA DE OLIVEIRA BR          RUA LORD COCHRANE N 15                  IBIRAPITANGA23811810ITAGUAI        RJUNIAO UMB DOS CULTOS AFRO BRAS    31011810 000089
10231987175000168817800093673    00005998                     000059980000000000000109                     I025998      31011800000000035003410000017N261217104700000000000103101180000000000000000000000000000000000000000100000759136742ADRIANA LAPORT ALVES                    RUA DONA CLARA DE ARAUJO N 681          ANDRADE ARAU26010390NOVA IGUACU    RJUNIAO UMB DOS CULTOS AFRO BRAS    31011810 000090
10231987175000168817800093673    00005997                     000059970000000000000109                     I025997      31011800000000035003410000017N261217104700000000000103101180000000000000000000000000000000000000000100084301724753ANA LUCIA FERREIRA DA SILVA             RUA HUGO CESAR MONTEIRO DA SILVA N 42   CAICARA - NO26015000NOVA IGUACU    RJUNIAO UMB DOS CULTOS AFRO BRAS    31011810 000091
10231987175000168817800093673    00005993                     000059930000000000000109                     I025993      31011800000000035003410000017N261217104700000000000103101180000000000000000000000000000000000000000100012450258728MONIQUE RODRIGUES DE ALMEIDA            RUA CESAR N 277                         REALENGO - R21750400RIO DE JANEIRO RJUNIAO UMB DOS CULTOS AFRO BRAS    31011810 000092
10231987175000168817800093673    00005992                     000059920000000000000109                     I025992      31011800000000035003410000017N261217104700000000000103101180000000000000000000000000000000000000000100008578432738WANDERSON DOS SANTOS LOPES              RUA SATURNO SN QUADRA 12 LOTE 16        VILA GENI - 23825517COROA GRANDE   RJUNIAO UMB DOS CULTOS AFRO BRAS    31011810 000093
10231987175000168817800093673    00005991                     000059910000000000000109                     I025991      31011800000000035003410000017N261217104700000000000103101180000000000000000000000000000000000000000100000598812750ELIZABETE DOS SANTOS LUCIANO            RUA GOLGOTA LOTE 44 QUADRA 33           CHACARA RIO 25245060DUQUE DE CAXIASRJUNIAO UMB DOS CULTOS AFRO BRAS    31011810 000094
10231987175000168817800093673    00005986                     000059860000000000000109                     I025986      31011800000000035003410000017N261217104700000000000103101180000000000000000000000000000000000000000100010262557754EDGAR SODRE BANI                        RUA B N 20  LOTE 7 QUADRA 255           PARADA MORAB25265220DUQUE DE CAXIASRJUNIAO UMB DOS CULTOS AFRO BRAS    31011810 000095
10231987175000168817800093673    00005983                     000059830000000000000109                     I025983      31011800000000035003410000017N261217104700000000000103101180000000000000000000000000000000000000000100006876928730DIONE ASSUNCAO SOARES                   RUA SILVIA VIEIRA SN  LOTE 24           FAZENDA SOSS26088475NOVA IGUACU    RJUNIAO UMB DOS CULTOS AFRO BRAS    31011810 000096
10231987175000168817800093673    00005982                     000059820000000000000109                     I025982      31011800000000035003410000017N261217104700000000000103101180000000000000000000000000000000000000000100009616694707ROGERIO LUIZ SOARES                     RUA SANTA BARBARA N  20                 AREAL - ARAR28970000ARARUAMA       RJUNIAO UMB DOS CULTOS AFRO BRAS    31011810 000097
10231987175000168817800093673    00005981                     000059810000000000000109                     I025981      31011800000000035003410000017N261217104700000000000103101180000000000000000000000000000000000000000100063268876749JORGE DA COSTA BARRETO                  AVENIDA JOAQUIM COSTA LIMA LOTE 27 QUADRCENTRO - BEL26112055BELFORD ROXO   RJUNIAO UMB DOS CULTOS AFRO BRAS    31011810 000098
10231987175000168817800093673    00005980                     000059800000000000000109                     I025980      31011800000000035003410000017N261217104700000000000103101180000000000000000000000000000000000000000100003798443700ALINE MODINA TELLES                     RUA DETETIVE PARADA N 8                 VILA DA PENH21221060RIO DE JANEIRO RJUNIAO UMB DOS CULTOS AFRO BRAS    31011810 000099
10231987175000168817800093673    00005978                     000059780000000000000109                     I025978      31011800000000035003410000017N261217104700000000000103101180000000000000000000000000000000000000000100084441372787LUCIA HELENA DE OLIVEIRA GAMA           RUA PEDRO ANTONIO PEREIRA N 270 FUNDOS  AERO CLUBE -26285291NOVA IGUACU    RJUNIAO UMB DOS CULTOS AFRO BRAS    31011810 000100
10231987175000168817800093673    00005977                     000059770000000000000109                     I025977      31011800000000035003410000017N261217104700000000000103101180000000000000000000000000000000000000000100082191638791RITA DE CASSIA VALVERDE ROCHA           RUA JOAQUIM SOARES NETO N 250           NOVA AMERICA26021560NOVA IGUACU    RJUNIAO UMB DOS CULTOS AFRO BRAS    31011810 000101
10231987175000168817800093673    00005976                     000059760000000000000109                     I025976      31011800000000035003410000017N261217104700000000000103101180000000000000000000000000000000000000000100011590456742WANILA LIMA DE BRITO                    RUA REDENTOR LOTE 5 QUADRA 18 CASA 2 FUNJARDIM REDEN26110090BELFORD ROXO   RJUNIAO UMB DOS CULTOS AFRO BRAS    31011810 000102
10231987175000168817800093673    00005972                     000059720000000000000109                     I025972      31011800000000035003410000017N261217104700000000000103101180000000000000000000000000000000000000000100012727461780SUELMIR LIMA DE ARAUJO                  RUA NOSSA SENHORA DAS GRACAS N 98       PRAIA DO ANI25925708MAGE           RJUNIAO UMB DOS CULTOS AFRO BRAS    31011810 000103
10231987175000168817800093673    00005971                     000059710000000000000109                     I025971      31011800000000035003410000017N261217104700000000000103101180000000000000000000000000000000000000000100096531287950FERNANDO RIBEIRO DE SOUZA               RUA JOAO PEDRO TESCH N 332 D            ALTO DA SERR25635500PETROPOLIS     RJUNIAO UMB DOS CULTOS AFRO BRAS    31011810 000104
10231987175000168817800093673    00005968                     000059680000000000000109                     I025968      31011800000000035003410000017N261217104700000000000103101180000000000000000000000000000000000000000100000839586736MAURO CESAR BRANCO OBERLAENDER          RUA IGUARIM N 104 - REALENGO            REALENGO - R21765540RIO DE JANEIRO RJUNIAO UMB DOS CULTOS AFRO BRAS    31011810 000105
10231987175000168817800093673    00005967                     000059670000000000000109                     I025967      31011800000000035003410000017N261217104700000000000103101180000000000000000000000000000000000000000100045512256714ROGERIO ALVES GUIMARAES                 RUA TODOS OS SANTOS LOTE 17 QUADRA 20   IGUABINHA - 28970000ARARUAMA       RJUNIAO UMB DOS CULTOS AFRO BRAS    31011810 000106
10231987175000168817800093673    00005966                     000059660000000000000109                     I025966      31011800000000035003410000017N261217104700000000000103101180000000000000000000000000000000000000000100005225598757JOSUE DA SILVA SANTOS                   RUA H QUADRA 7 LOTE 24                  AMAPA - DUQU25235360DUQUE DE CAXIASRJUNIAO UMB DOS CULTOS AFRO BRAS    31011810 000107
10231987175000168817800093673    00005964                     000059640000000000000109                     I025964      31011800000000035003410000017N261217104700000000000103101180000000000000000000000000000000000000000100009503848792JORGE ALEXANDRE TEIXEIRA BRAZ           RUA CAJUIPE N 163 CASA 1                BONSUCESSO -21060490RIO DE JANEIRO RJUNIAO UMB DOS CULTOS AFRO BRAS    31011810 000108
10231987175000168817800093673    00005962                     000059620000000000000109                     I025962      31011800000000035003410000017N261217104700000000000103101180000000000000000000000000000000000000000100007443282761WASHINGTON LUIZ DA SILVA RAMOS          RUA DEZESSETE N 78 - CONJUNTO LIBERDADE SANTA CRUZ -23560600RIO DE JANEIRO RJUNIAO UMB DOS CULTOS AFRO BRAS    31011810 000109
10231987175000168817800093673    00005961                     000059610000000000000109                     I025961      31011800000000035003410000017N261217104700000000000103101180000000000000000000000000000000000000000100007964006797JOSILENE MONTEIRO HERMOGENES            RUA PADRE MARINHO N 309                 SARACURUNA -25212450DUQUE DE CAXIASRJUNIAO UMB DOS CULTOS AFRO BRAS    31011810 000110
10231987175000168817800093673    00005960                     000059600000000000000109                     I025960      31011800000000035003410000017N261217104700000000000103101180000000000000000000000000000000000000000100010544644701RENATA DE OLIVEIRA SILVA                RUA NOSSA SENHORA DE NAZARE N 23 A      GERENCIANO -26061700NOVA IGUACU    RJUNIAO UMB DOS CULTOS AFRO BRAS    31011810 000111
10231987175000168817800093673    00005958                     000059580000000000000109                     I025958      31011800000000035003410000017N261217104700000000000103101180000000000000000000000000000000000000000100047442140700MARFIZA FERREIRA DA SILVA VENA          RUA EURICO COELHO N 50                  GRAMA - NOVA26060650NOVA IGUACU    RJUNIAO UMB DOS CULTOS AFRO BRAS    31011810 000112
10231987175000168817800093673    00005957                     000059570000000000000109                     I025957      31011800000000035003410000017N261217104700000000000103101180000000000000000000000000000000000000000200000000012882JOSE ANTONIO DA SILVA JUNIOR            RUA HUMAITA N 909 QUADRA 19 LOTE 31     PIABETA - MA25915000MAGE           RJUNIAO UMB DOS CULTOS AFRO BRAS    31011810 000113
10231987175000168817800093673    00005955                     000059550000000000000109                     I025955      31011800000000035003410000017N261217104700000000000103101180000000000000000000000000000000000000000100008834107705JOSELI TIADULINO                        RUA MARIA TEREZA N 134                  JARDIM CANAA26263230NOVA IGUACU    RJUNIAO UMB DOS CULTOS AFRO BRAS    31011810 000114
10231987175000168817800093673    00005948                     000059480000000000000109                     I025948      31011800000000035003410000017N261217104700000000000103101180000000000000000000000000000000000000000100068374208791ROSANA LISBOA DE OLIVEIRA               RUA TEOFILO DIAS LOTE 7 QUADRA 47       PILAR - DUQU25233239DUQUE DE CAXIASRJUNIAO UMB DOS CULTOS AFRO BRAS    31011810 000115
10231987175000168817800093673    00005947                     000059470000000000000109                     I025947      31011800000000035003410000017N261217104700000000000103101180000000000000000000000000000000000000000100014760475702DEBORAH ROSA                            RUA MARIA LOURENCO GONCALVES N 18 CASA 2JARDIM PRIMA25215367DUQUE DE CAXIASRJUNIAO UMB DOS CULTOS AFRO BRAS    31011810 000116
10231987175000168817800093673    00005946                     000059460000000000000109                     I025946      31011800000000035003410000017N261217104700000000000103101180000000000000000000000000000000000000000100054336481768PENHA JACIARA DA SILVA                  RUA DEZESSETE N 102 (CONJUNTO LIBERDADE)SANTA CRUZ -23560600RIO DE JANEIRO RJUNIAO UMB DOS CULTOS AFRO BRAS    31011810 000117
10231987175000168817800093673    00005945                     000059450000000000000109                     I025945      31011800000000035003410000017N261217104700000000000103101180000000000000000000000000000000000000000100004419977752GISELE DE CASTILHO SOARES               RUA ARTHUR MAGALHAES N 64               COMENDADOR S26276605NOVA IGUACU    RJUNIAO UMB DOS CULTOS AFRO BRAS    31011810 000118
10231987175000168817800093673    00005944                     000059440000000000000109                     I025944      31011800000000035003410000017N261217104700000000000103101180000000000000000000000000000000000000000100006027343710SUELI REIS DIAS DA SILVA                RUA TAPAJOS N 50                        OURO VERDE -26262480NOVA IGUACU    RJUNIAO UMB DOS CULTOS AFRO BRAS    31011810 000119
10231987175000168817800093673    00005943                     000059430000000000000109                     I025943      31011800000000035003410000017N261217104700000000000103101180000000000000000000000000000000000000000100055480730797TEREZINHA DE JESUS FERRAZ DOS           RUA TUPINAMBA N 305 - OURO VERDE        OURO VERDE -26262490NOVA IGUACU    RJUNIAO UMB DOS CULTOS AFRO BRAS    31011810 000120
10231987175000168817800093673    00005941                     000059410000000000000109                     I025941      31011800000000035003410000017N261217104700000000000103101180000000000000000000000000000000000000000100000889136785EDENILSON DE SOUZA SILVA                ESTRADA DOS SETE RIACHOS N 2605         SANTISSIMO -23070420RIO DE JANEIRO RJUNIAO UMB DOS CULTOS AFRO BRAS    31011810 000121
10231987175000168817800093673    00005939                     000059390000000000000109                     I025939      31011800000000035003410000017N261217104700000000000103101180000000000000000000000000000000000000000100000915013770ROSANGELA DAS NEVES RESENDE DO          RUA GOIANESIA LOTE 23 QUADRA 101        MARAMBAIA - 24859300ITABORAI       RJUNIAO UMB DOS CULTOS AFRO BRAS    31011810 000122
10231987175000168817800093673    00005938                     000059380000000000000109                     I025938      31011800000000035003410000017N261217104700000000000103101180000000000000000000000000000000000000000100005411763746MONICA CRUZ DE OLIVEIRA                 AVENIDA JOAO XXIII - RUA QUATORZE QUADRASANTA CRUZ -23565110RIO DE JANEIRO RJUNIAO UMB DOS CULTOS AFRO BRAS    31011810 000123
10231987175000168817800093673    00005937                     000059370000000000000109                     I025937      31011800000000035003410000017N261217104700000000000103101180000000000000000000000000000000000000000200000000012851JEANE APARECIDA NUNES BITENCOU          RUA HISTORIA N 8                        JARDIM REDEN26110350RIO DE JANEIRO RJUNIAO UMB DOS CULTOS AFRO BRAS    31011810 000124
10231987175000168817800093673    00005936                     000059360000000000000109                     I025936      31011800000000035003410000017N261217104700000000000103101180000000000000000000000000000000000000000100008246810707LEILA DA SILVA MARQUES                  RUA REDENTOR LOTE 19 QUADRA 18          JARDIM REDEN26110090BELFORD ROXO   RJUNIAO UMB DOS CULTOS AFRO BRAS    31011810 000125
10231987175000168817800093673    00005935                     000059350000000000000109                     I025935      31011800000000035003410000017N261217104700000000000103101180000000000000000000000000000000000000000100010276278704ROSELI DE OLIVEIRA DUTRA                RUA UM LOTE 7 QUADRA 8                  TAQUARA - DU25275110DUQUE DE CAXIASRJUNIAO UMB DOS CULTOS AFRO BRAS    31011810 000126
10231987175000168817800093673    00005934                     000059340000000000000109                     I025934      31011800000000035003410000017N261217104700000000000103101180000000000000000000000000000000000000000100005633721735MARCOS AURELIO PAULINO FLORIAN          RUA LEONEL ROCHA N 195 CASA LOTE H      GUARATIBA - 23032460RIO DE JANEIRO RJUNIAO UMB DOS CULTOS AFRO BRAS    31011810 000127
10231987175000168817800093673    00005933                     000059330000000000000109                     I025933      31011800000000035003410000017N261217104700000000000103101180000000000000000000000000000000000000000100000000001288VIVIANE MORAES ALEXANDRINO              RUA JOAQUIM MOREIRA Nº 37              SEPETIBA    23545054RIO DE JANEIRO RJUNIAO UMB DOS CULTOS AFRO BRAS    31011810 000128
10231987175000168817800093673    00005932                     000059320000000000000109                     I025932      31011800000000035003410000017N261217104700000000000103101180000000000000000000000000000000000000000100004277956726ROSANA OLIVEIRA GUEDES                  RUA CARDOSO QUINTAO N 24                PIEDADE - RI21381460RIO DE JANEIRO RJUNIAO UMB DOS CULTOS AFRO BRAS    31011810 000129
10231987175000168817800093673    00005930                     000059300000000000000109                     I025930      31011800000000035003410000017N261217104700000000000103101180000000000000000000000000000000000000000100014641727732DAVI SILVA BARBOSA LIMA                 TRAVESSA ANTONIO AARAO N 9              SEPETIBA - R23540030RIO DE JANEIRO RJUNIAO UMB DOS CULTOS AFRO BRAS    31011810 000130
10231987175000168817800093673    00005929                     000059290000000000000109                     I025929      31011800000000035003410000017N261217104700000000000103101180000000000000000000000000000000000000000100004554269701PATRICIA CABRAL BOTELHO                 RUA QUINTAO N 995 - PIEDADE             PIEDADE - RI21381050RIO DE JANEIRO RJUNIAO UMB DOS CULTOS AFRO BRAS    31011810 000131
10231987175000168817800093673    00005928                     000059280000000000000109                     I025928      31011800000000035003410000017N261217104700000000000103101180000000000000000000000000000000000000000100000129467707SANDRA CRISTINA DOS SANTOS TIT          RUA DAVI SN BLOCO 3 APT 303             CIDADE DE DE22777243JACAREPAGUA    RJUNIAO UMB DOS CULTOS AFRO BRAS    31011810 000132
10231987175000168817800093673    00005927                     000059270000000000000109                     I025927      31011800000000035003410000017N261217104700000000000103101180000000000000000000000000000000000000000100008781471793LURDEUDALIA ARAUJO                      RUA MARIA LOROSA - VITORIA REGIS CASA 8 SANTA CRUZ -23525040RIO DE JANEIRO RJUNIAO UMB DOS CULTOS AFRO BRAS    31011810 000133
10231987175000168817800093673    00005926                     000059260000000000000109                     I025926      31011800000000035003410000017N261217104700000000000103101180000000000000000000000000000000000000000100005646881773DEBORA LINS                             RUA LACONIA N 89 CASA 3                 JARDIM AMAPA26182230BELFORD ROXO   RJUNIAO UMB DOS CULTOS AFRO BRAS    31011810 000134
10231987175000168817800093673    00005925                     000059250000000000000109                     I025925      31011800000000035003410000017N261217104700000000000103101180000000000000000000000000000000000000000100000076412733VALERIA RIBEIRO TEIXEIRA                RUA JIPIOCA N 135 CASA 1                CASCADURA - 21311250RIO DE JANEIRO RJUNIAO UMB DOS CULTOS AFRO BRAS    31011810 000135
10231987175000168817800093673    00005923                     000059230000000000000109                     I025923      31011800000000035003410000017N261217104700000000000103101180000000000000000000000000000000000000000100038835568749MARIA DE ALCANTARA GOULART SIL          RUA GAMBIA N 41                         JACAREPAGUA 22775400RIO DE JANEIRO RJUNIAO UMB DOS CULTOS AFRO BRAS    31011810 000136
10231987175000168817800093673    00005922                     000059220000000000000109                     I025922      31011800000000035003410000017N261217104700000000000103101180000000000000000000000000000000000000000100014994285705JEFFERSON DOS SANTOS DA SILVA           ESTRADA DO PAU DA FOME N 50             TAQUARA - JA22723497RIO DE JANEIRO RJUNIAO UMB DOS CULTOS AFRO BRAS    31011810 000137
10231987175000168817800093673    00005921                     000059210000000000000109                     I025921      31011800000000035003410000017N261217104700000000000103101180000000000000000000000000000000000000000100035138963791AMILTON PIO                             RUA JOSE DE MELO N 77                   SEPETIBA - R23545165RIO DE JANEIRO RJUNIAO UMB DOS CULTOS AFRO BRAS    31011810 000138
10231987175000168817800093673    00005920                     000059200000000000000109                     I025920      31011800000000035003410000017N261217104700000000000103101180000000000000000000000000000000000000000100011998959708ARTUR TAVARES DA SILVA NETO             RUA PREFEITO JOAO CARLOS VITAL N 17     CROACIA - SE23540080SEPETIBA       RJUNIAO UMB DOS CULTOS AFRO BRAS    31011810 000139
10231987175000168817800093673    00005919                     000059190000000000000109                     I025919      31011800000000035003410000017N261217104700000000000103101180000000000000000000000000000000000000000100008502438743ALINE RAMOS DE SOUZA DA SILVA           RUA DOUTOR ISMAEL CAVALCANTI N 240      SEPETIBA - R23545145RIO DE JANEIRO RJUNIAO UMB DOS CULTOS AFRO BRAS    31011810 000140
10231987175000168817800093673    00005918                     000059180000000000000109                     I025918      31011800000000035003410000017N261217104700000000000103101180000000000000000000000000000000000000000100007103755736ALESSANDRA COSTA DE BARROS              PRACA OSCAR ROSSIM N 84                 SEPETIBA - R23540250RIO DE JANEIRO RJUNIAO UMB DOS CULTOS AFRO BRAS    31011810 000141
10231987175000168817800093673    00005917                     000059170000000000000109                     I025917      31011800000000035003410000017N261217104700000000000103101180000000000000000000000000000000000000000100002134084731MARINALVA LINDOLFO DA SILVA             AVENIDA GOMES FREIRE N 136              VILA SANTO A25040310DUQUE DE CAXIASRJUNIAO UMB DOS CULTOS AFRO BRAS    31011810 000142
10231987175000168817800093673    00005913                     000059130000000000000109                     I025913      31011800000000035003410000017N261217104700000000000103101180000000000000000000000000000000000000000100001301453781CARLINDA AZEREDO MATOS                  RUA DOUTOR FERNANDO BRIGADAO N 17       RIACHAO - NO26279180NOVA IGUACU    RJUNIAO UMB DOS CULTOS AFRO BRAS    31011810 000143
10231987175000168817800093673    00005912                     000059120000000000000109                     I025912      31011800000000035003410000017N261217104700000000000103101180000000000000000000000000000000000000000100014604780706GILMAR GONCALVES FERREIRA               RUA DOIS BLOCO 2 CASA 27                ROCINHA - RI22451400RIO DE JANEIRO RJUNIAO UMB DOS CULTOS AFRO BRAS    31011810 000144
10231987175000168817800093673    00005911                     000059110000000000000109                     I025911      31011800000000035003410000017N261217104700000000000103101180000000000000000000000000000000000000000100064175499768TEREZA CRISTINA PIRES SILVA RO          RUA GOIAS LOTE 3 QUADRA 4               PLANALTO DO 24859300ITABORAI       RJUNIAO UMB DOS CULTOS AFRO BRAS    31011810 000145
10231987175000168817800093673    00005910                     000059100000000000000109                     I025910      31011800000000035003410000017N261217104700000000000103101180000000000000000000000000000000000000000100065929039704JUPIACU SALLES                          RUA ANDRE ROCHA QUADRA 83 LOTES 16 E 17 CURICICA - R22570000RIO DE JANEIRO RJUNIAO UMB DOS CULTOS AFRO BRAS    31011810 000146
10231987175000168817800093673    00005908                     000059080000000000000109                     I025908      31011800000000035003410000017N261217104700000000000103101180000000000000000000000000000000000000000100015834777724JOAO PAULO SALGUEIRO DA SILVA           RUA TUIBA N 689                         VICENTE DE C21371170RIO DE JANEIRO RJUNIAO UMB DOS CULTOS AFRO BRAS    31011810 000147
10231987175000168817800093673    00005907                     000059070000000000000109                     I025907      31011800000000035003410000017N261217104700000000000103101180000000000000000000000000000000000000000100066003110782MARIA CLAUDIA DE LIMA FOLY              RUA PP LOTE 5 QUADRA 48                 BARAO GUANDU26021560NOVA IGUACU    RJUNIAO UMB DOS CULTOS AFRO BRAS    31011810 000148
10231987175000168817800093673    00005906                     000059060000000000000109                     I025906      31011800000000035003410000017N261217104700000000000103101180000000000000000000000000000000000000000100089044380710DENISE SAMPAIO DE MOURA MACIEL          RUA XAXA N 10 - RIO DAS PEDRAS          JACAREPAGUA 22753057RIO DE JANEIRO RJUNIAO UMB DOS CULTOS AFRO BRAS    31011810 000149
10231987175000168817800093673    00005905                     000059050000000000000109                     I025905      31011800000000035003410000017N261217104700000000000103101180000000000000000000000000000000000000000100025875159715SUELI DE OLIVEIRA DIAS                  AVENIDA ALAGOAS N 1198                  GARDENIA AZU22765451RIO DE JANEIRO RJUNIAO UMB DOS CULTOS AFRO BRAS    31011810 000150
10231987175000168817800093673    00005903                     000059030000000000000109                     I025903      31011800000000035003410000017N261217104700000000000103101180000000000000000000000000000000000000000100000920173713JORGE DOS SANTOS LUCAS                  RUA PP, LOTE 5 QUADRA 48                JARDIM ANHAN25264360DUQUE DE CAXIASRJUNIAO UMB DOS CULTOS AFRO BRAS    31011810 000151
10231987175000168817800093673    00005902                     000059020000000000000109                     I025902      31011800000000035003410000017N261217104700000000000103101180000000000000000000000000000000000000000100000497155770CINTIA MARTIN                           RUA POCONE N 371                        ENCANTADO - 20745090RIO DE JANEIRO RJUNIAO UMB DOS CULTOS AFRO BRAS    31011810 000152
10231987175000168817800093673    00005899                     000058990000000000000109                     I025899      31011800000000035003410000017N261217104700000000000103101180000000000000000000000000000000000000000100013791358774TEREZINHA MENDONCA CORDEIRO             RUA SUEZ N 171                          JARDIM GUAND26298180NOVA IGUACU    RJUNIAO UMB DOS CULTOS AFRO BRAS    31011810 000153
10231987175000168817800093673    00005898                     000058980000000000000109                     I025898      31011800000000035003410000017N261217104700000000000103101180000000000000000000000000000000000000000100095341048768MARILENE CANDIDA                        RUA NOSSA SENHORA DA GUIA N 163         VILA NOVA DO26062192NOVA IGUACU    RJUNIAO UMB DOS CULTOS AFRO BRAS    31011810 000154
10231987175000168817800093673    00005897                     000058970000000000000109                     I025897      31011800000000035003410000017N261217104700000000000103101180000000000000000000000000000000000000000100001797738748PAULO CESAR LONATO SANTOS               RUA SAO MIGUEL ARCANJO QUADRA 92 LOTE 23SAO FRANCISC22095072CAMPO GRANDE   RJUNIAO UMB DOS CULTOS AFRO BRAS    31011810 000155
10231987175000168817800093673    00005896                     000058960000000000000109                     I025896      31011800000000035003410000017N261217104700000000000103101180000000000000000000000000000000000000000100014492149759FILIPE FONSECA MARIANO                  RUA DONA JULIA N 16 FUNDOS              SEPETIBA - R23545570RIO DE JANEIRO RJUNIAO UMB DOS CULTOS AFRO BRAS    31011810 000156
10231987175000168817800093673    00005895                     000058950000000000000109                     I025895      31011800000000035003410000017N261217104700000000000103101180000000000000000000000000000000000000000100007214737760LEANDRO FRAGA DE OLIVEIRA               RUA VAZ LOBO N 522 - VAZ LOBO           VAZ LOBO - R21361030RIO DE JANEIRO RJUNIAO UMB DOS CULTOS AFRO BRAS    31011810 000157
10231987175000168817800093673    00005890                     000058900000000000000109                     I025890      31011800000000035003410000017N261217104700000000000103101180000000000000000000000000000000000000000100003550624700ELAINE DE BARROS CARVALHO DE O          RUA DOUTOR ANTONIO MARTINS N 42 CASA 2 ATAQUARA - JA22723650RIO DE JANEIRO RJUNIAO UMB DOS CULTOS AFRO BRAS    31011810 000158
10231987175000168817800093673    00005889                     000058890000000000000109                     I025889      31011800000000035003410000017N261217104700000000000103101180000000000000000000000000000000000000000100005649589720RAPHAEL AGUIAR DA SILVA                 ESTRADA DO BONGARVILLE, 869 CASA 42     ANIL - JACAR22753210RIO DE JANEIRO RJUNIAO UMB DOS CULTOS AFRO BRAS    31011810 000159
10231987175000168817800093673    00005887                     000058870000000000000109                     I025887      31011800000000035003410000017N261217104700000000000103101180000000000000000000000000000000000000000100011130957764MARCUS ULYSSES DE FIGUEIREDO P          RUA SAO JORGE N 764                     CAMPO ALEGRE26292228NOVA IGUACU    RJUNIAO UMB DOS CULTOS AFRO BRAS    31011810 000160
10231987175000168817800093673    00005883                     000058830000000000000109                     I025883      31011800000000035003410000017N261217104700000000000103101180000000000000000000000000000000000000000100092673562753ALVARO RICARDO DE OLIVEIRA RIB          RUA AURORA SIQUEIRA N 18                MUTONDO - SA24452140SAO GONCALO    RJUNIAO UMB DOS CULTOS AFRO BRAS    31011810 000161
10231987175000168817800093673    00005880                     000058800000000000000109                     I025880      31011800000000035003410000017N261217104700000000000103101180000000000000000000000000000000000000000100005440511733MONICA LEITE CRUZ                       RUA PARDAL N 130 B                      MAGALI - CAM23081070CAMPO GRANDE   RJUNIAO UMB DOS CULTOS AFRO BRAS    31011810 000162
10231987175000168817800093673    00005879                     000058790000000000000109                     I025879      23021800000000035003410000017N261217104700000000000102302180000000000000000000000000000000000000000100001010828789JUSSARA DA SILVA GONCALVES DAM          RUA TRINTA E TRES LOTE 219              NOVA CIDADE 24850000ITABORAI       RJUNIAO UMB DOS CULTOS AFRO BRAS    23021810 000163
10231987175000168817800093673    00005878                     000058780000000000000109                     I025878      31011800000000035003410000017N261217104700000000000103101180000000000000000000000000000000000000000100074442163715MONICA BARCELLOS DE PAULA               AVENIDA VICENTE DE CARVALHO, 560        VICENTE DE C21371148RIO DE JANEIRO RJUNIAO UMB DOS CULTOS AFRO BRAS    31011810 000164
10231987175000168817800093673    00005877                     000058770000000000000109                     I025877      31011800000000035003410000017N261217104700000000000103101180000000000000000000000000000000000000000100007924464700GILCEMAR PEREIRA DE MORAES              RUA JOSE ELEOTERIO N 102                CAMPO LINDO 23898220SEROPEDICA     RJUNIAO UMB DOS CULTOS AFRO BRAS    31011810 000165
10231987175000168817800093673    00005876                     000058760000000000000109                     I025876      31011800000000035003410000017N261217104700000000000103101180000000000000000000000000000000000000000100014199569731LUIS FILIPE SANTOS COSTA                ESTRADA DOUTOR JOAQUIM NICOLAU N 1529 CAPRACA PONTE 26900000MIGUEL PEREIRA RJUNIAO UMB DOS CULTOS AFRO BRAS    31011810 000166
10231987175000168817800093673    00005875                     000058750000000000000109                     I025875      31011800000000035003410000017N261217104700000000000103101180000000000000000000000000000000000000000100000160903774REGINA CELIA DE OLIVEIRA DA SI          RUA VENANCIO ADRES LOTE 23 QUADRA 13    OLAVO BILAC 25035340DUQUE DE CAXIASRJUNIAO UMB DOS CULTOS AFRO BRAS    31011810 000167
10231987175000168817800093673    00005874                     000058740000000000000109                     I025874      31011800000000035003410000017N261217104700000000000103101180000000000000000000000000000000000000000100053470095787OSVALDO VALENTE COELHO FILHO            RUA VISCONDE DE SABOIA N 54 - RUA I N 11CAVALCANTI -21370220RIO DE JANEIRO RJUNIAO UMB DOS CULTOS AFRO BRAS    31011810 000168
10231987175000168817800093673    00005872                     000058720000000000000109                     I025872      31011800000000035003410000017N261217104700000000000103101180000000000000000000000000000000000000000100000559929781KLEBER SIQUEIRA CUNHA                   ESTRADA DO PIAI N 300                   GUARATIBA - 23028050RIO DE JANEIRO RJUNIAO UMB DOS CULTOS AFRO BRAS    31011810 000169
10231987175000168817800093673    00005870                     000058700000000000000109                     I025870      31011800000000035003410000017N261217104700000000000103101180000000000000000000000000000000000000000100088052982715ELIZABETH DA COSTA AMORIM               RUA CISPLATINA N 99                     IRAJA - RIO 21235070RIO DE JANEIRO RJUNIAO UMB DOS CULTOS AFRO BRAS    31011810 000170
10231987175000168817800093673    00005869                     000058690000000000000109                     I025869      31011800000000035003410000017N261217104700000000000103101180000000000000000000000000000000000000000100001653081767DEISE SIQUEIRA                          RUA PARLON SIQUEIRA N 59 CX P 93        BARRA DE GUA23020510RIO DE JANEIRO RJUNIAO UMB DOS CULTOS AFRO BRAS    31011810 000171
10231987175000168817800093673    00005865                     000058650000000000000109                     I025865      31011800000000035003410000017N261217104700000000000103101180000000000000000000000000000000000000000100003013793783GIOVANA SURAMA BRANDAO MONFORT          RUA JOAO TELES LOTE 94 QUADRA 93        CENTRO - MES26550100MESQUITA       RJUNIAO UMB DOS CULTOS AFRO BRAS    31011810 000172
10231987175000168817800093673    00005864                     000058640000000000000109                     I025864      31011800000000035003410000017N261217104700000000000103101180000000000000000000000000000000000000000100009406419769MAURICIO DOS SANTOS SILVA               RUA CASTANHAL, TRAVESSA PROGRESSO I CASAPARQUE GENEC26061650NOVA IGUACU    RJUNIAO UMB DOS CULTOS AFRO BRAS    31011810 000173
10231987175000168817800093673    00005862                     000058620000000000000109                     I025862      31011800000000035003410000017N261217104700000000000103101180000000000000000000000000000000000000000100099363704734SUELY FERNANDES LAPAS OLIVEIRA          RUA SARUTAIA SN LOTE 37                 GUARATIBA - 23032620RIO DE JANEIRO RJUNIAO UMB DOS CULTOS AFRO BRAS    31011810 000174
10231987175000168817800093673    00005861                     000058610000000000000109                     I025861      31011800000000035003410000017N261217104700000000000103101180000000000000000000000000000000000000000100002102287768SERGIO RICARDO FERREIRA DOS SA          RUA LAGUNA N 23                         NOVA PIAM - 26116620BELFORD ROXO   RJUNIAO UMB DOS CULTOS AFRO BRAS    31011810 000175
10231987175000168817800093673    00005860                     000058600000000000000109                     I025860      31011800000000035003410000017N261217104700000000000103101180000000000000000000000000000000000000000100076903729704ALUIZO NASCIMENTI DOS SANTOS            RUA DAS ROSAS N 801                     VILA FORMOSA26051370NOVA IGUACU    RJUNIAO UMB DOS CULTOS AFRO BRAS    31011810 000176
10231987175000168817800093673    00005859                     000058590000000000000109                     I025859      31011800000000035003410000017N261217104700000000000103101180000000000000000000000000000000000000000100003009392729MARIA DA PENHA FLORENCIO                RUA SABUJI LOTE 5 QUADRA 20             JARDIM ROTSE25270030DUQUE DE CAXIASRJUNIAO UMB DOS CULTOS AFRO BRAS    31011810 000177
10231987175000168817800093673    00005858                     000058580000000000000109                     I025858      31011800000000035003410000017N261217104700000000000103101180000000000000000000000000000000000000000100003567552740ERICA NADJARA DA LUZ                    RUA ENGENHEIRO ALARIPE N 114            LAGOINHA - N26296588NOVA IGUACU    RJUNIAO UMB DOS CULTOS AFRO BRAS    31011810 000178
10231987175000168817800093673    00005857                     000058570000000000000109                     I025857      31011800000000035003410000017N261217104700000000000103101180000000000000000000000000000000000000000100001317399722JUSSARA DOS SANTOS MACHADO              RUA ARIES N 36                          PARQUE SAO J26190080BELFORD ROXO   RJUNIAO UMB DOS CULTOS AFRO BRAS    31011810 000179
10231987175000168817800093673    00005856                     000058560000000000000109                     I025856      31011800000000035003410000017N261217104700000000000103101180000000000000000000000000000000000000000100011309006733TIAGO FEUCHARD DIAS                     RUA QUARENTA E NOVE N 130               IPIABAS - BA27170000BARRA DO PIRAI RJUNIAO UMB DOS CULTOS AFRO BRAS    31011810 000180
10231987175000168817800093673    00005855                     000058550000000000000109                     I025855      31011800000000035003410000017N261217104700000000000103101180000000000000000000000000000000000000000100095529616704MARCOS LUIZ BORGES FIGUEIREDO           RUA PADUA N 95 - REDENTOR               REDENTOR - B26110250BELFORD ROXO   RJUNIAO UMB DOS CULTOS AFRO BRAS    31011810 000181
10231987175000168817800093673    00005854                     000058540000000000000109                     I025854      31011800000000035003410000017N261217104700000000000103101180000000000000000000000000000000000000000100002871088489JOSE ADRIANO DA SILVA                   RUA UMEBOSCHE N 430                     JARDIM PARAI26297054NOVA IGUACU    RJUNIAO UMB DOS CULTOS AFRO BRAS    31011810 000182
10231987175000168817800093673    00005852                     000058520000000000000109                     I025852      31011800000000035003410000017N261217104700000000000103101180000000000000000000000000000000000000000100007900227709FLAVIA ARAUJO DA ROCHA SANTOS           RUA MARECHAL AGRICOLA N 186             REALENGO - R21735370RIO DE JANEIRO RJUNIAO UMB DOS CULTOS AFRO BRAS    31011810 000183
10231987175000168817800093673    00005851                     000058510000000000000109                     I025851      31011800000000035003410000017N261217104700000000000103101180000000000000000000000000000000000000000100013297469706LEANDRO SOUZA DE JESUS                  RUA DAS MARRECAS - RUA CARLOTA SN       PARQUE ANTAR26053310NOVA IGUACU    RJUNIAO UMB DOS CULTOS AFRO BRAS    31011810 000184
10231987175000168817800093673    00005850                     000058500000000000000109                     I025850      31011800000000035003410000017N261217104700000000000103101180000000000000000000000000000000000000000200000000012736JORGE CARLOS RODRIGUES DE OLIV          ESTRADA TAQUARAL LOTE 12                JARDIM NAZAR26062221NOVA IGUACU    RJUNIAO UMB DOS CULTOS AFRO BRAS    31011810 000185
10231987175000168817800093673    00005848                     000058480000000000000109                     I025848      31011800000000035003410000017N261217104700000000000103101180000000000000000000000000000000000000000100099941120749ERNELIA DA SILVA                        RUA JOSE BEZZ N 23 LOTE 299 QUADRA 9    GABRIEL UM -24856172ITABORAI       RJUNIAO UMB DOS CULTOS AFRO BRAS    31011810 000186
10231987175000168817800093673    00005844                     000058440000000000000109                     I025844      31011800000000035003410000017N261217104700000000000103101180000000000000000000000000000000000000000200000000012726VALTER CRISTIANO DOS SANTOS             RUA SAO VENANCIO N 327                  RICARDO DE A21640330RIO DE JANEIRO RJUNIAO UMB DOS CULTOS AFRO BRAS    31011810 000187
10231987175000168817800093673    00005842                     000058420000000000000109                     I025842      31011800000000035003410000017N261217104700000000000103101180000000000000000000000000000000000000000100012488412716CHARLES GARCIA DE OLIVEIRA              ESTRADA DO QUITUNGO N 45 FRENTE         BRAZ DE PINA21215562RIO DE JANEIRO RJUNIAO UMB DOS CULTOS AFRO BRAS    31011810 000188
10231987175000168817800093673    00005840                     000058400000000000000109                     I025840      31011800000000035003410000017N261217104700000000000103101180000000000000000000000000000000000000000100060601493400IRACEMA SILVA DE SANTANA                NUNCA RUA XAVANTE N 243                 BANGU - RIO 21840030RIO DE JANEIRO RJUNIAO UMB DOS CULTOS AFRO BRAS    31011810 000189
10231987175000168817800093673    00005837                     000058370000000000000109                     I025837      31011800000000035003410000017N261217104700000000000103101180000000000000000000000000000000000000000100010426625765ALESSANDRA LAURIANO LIMA DOMIN          RUA PROJETADA N 4                       ANCORA - RIO28899515RIO DAS OSTRAS RJUNIAO UMB DOS CULTOS AFRO BRAS    31011810 000190
10231987175000168817800093673    00005836                     000058360000000000000109                     I025836      31011800000000035003410000017N261217104700000000000103101180000000000000000000000000000000000000000100009755597700PAULA SABINO MIGUEZ                     RUA SANTO TIRSO N 141                   JARDIM ALZIR26300190QUEIMADOS      RJUNIAO UMB DOS CULTOS AFRO BRAS    31011810 000191
10231987175000168817800093673    00005834                     000058340000000000000109                     I025834      31011800000000035003410000017N261217104700000000000103101180000000000000000000000000000000000000000100077601505715ROBERTO RAMOS DA CUNHA                  RUA MOACIR N 107                        XEREM - CENT25245660DUQUE DE CAXIASRJUNIAO UMB DOS CULTOS AFRO BRAS    31011810 000192
10231987175000168817800093673    00005833                     000058330000000000000109                     I025833      31011800000000035003410000017N261217104700000000000103101180000000000000000000000000000000000000000100007708082714CRISTIANE DEODATO                       ESTRADA REAL DE MAUA N 132              MAUA - MAGE 25927304MAGE           RJUNIAO UMB DOS CULTOS AFRO BRAS    31011810 000193
10231987175000168817800093673    00005832                     000058320000000000000109                     I025832      31011800000000035003410000017N261217104700000000000103101180000000000000000000000000000000000000000100009959898776ANGELICA MONTEIRO DE OLIVEIRA           RUA CINCO N 313 - GLEBA A - CHAPERO     ITAGUAI - RJ23831190ITAGUAI        RJUNIAO UMB DOS CULTOS AFRO BRAS    31011810 000194
10231987175000168817800093673    00005831                     000058310000000000000109                     I025831      31011800000000035003410000017N261217104700000000000103101180000000000000000000000000000000000000000100080592368491MARIA JOSE PEREIRA NOGUEIRA DE          ALAMEDA GOIANIA N 26                    ENGENHO DO R24752520SAO GONCALO    RJUNIAO UMB DOS CULTOS AFRO BRAS    31011810 000195
10231987175000168817800093673    00005826                     000058260000000000000109                     I025826      31011800000000035003410000017N261217104700000000000103101180000000000000000000000000000000000000000200000000012685JOSE HENRIQUE MOREIRA DE ARAUJ          RUA OITENTA E UM LOTE 35 QUADRA 247     IPIRANGA - M25927168MAGE           RJUNIAO UMB DOS CULTOS AFRO BRAS    31011810 000196
10231987175000168817800093673    00005823                     000058230000000000000109                     I025823      31011800000000035003410000017N261217104700000000000103101180000000000000000000000000000000000000000100005441529723RAQUEL LUCILIA SANTOS RAMOS             AVENIDA DE SANTA CRUZ N 11066           SENADOR VASC23010002RIO DE JANEIRO RJUNIAO UMB DOS CULTOS AFRO BRAS    31011810 000197
10231987175000168817800093673    00005820                     000058200000000000000109                     I025820      31011800000000035003410000017N261217104700000000000103101180000000000000000000000000000000000000000100004274441792ALEXANDER SOUZA DA CUNHA                RUA E PROJETADA SN LOTE 17 QUADRA 20 - SSEPETIBA - R23545003RIO DE JANEIRO RJUNIAO UMB DOS CULTOS AFRO BRAS    31011810 000198
10231987175000168817800093673    00005819                     000058190000000000000109                     I025819      31011800000000035003410000017N261217104700000000000103101180000000000000000000000000000000000000000100007726251743ROSANGELA IZAURINA DOS SANTOS           RUA ENEIAS N 60                         LAGOINHA - N26296552NOVA IGUACU    RJUNIAO UMB DOS CULTOS AFRO BRAS    31011810 000199
10231987175000168817800093673    00005817                     000058170000000000000109                     I025817      31011800000000035003410000017N261217104700000000000103101180000000000000000000000000000000000000000100001084586797ANA GLORIA NONATO CASTILHO              RUA ANTONIO JOSE DE MORAES N°210 FUNDOSPAVUNA - RJ 25515140RIO DE JANEIRO RJUNIAO UMB DOS CULTOS AFRO BRAS    31011810 000200
10231987175000168817800093673    00005816                     000058160000000000000109                     I025816      31011800000000035003410000017N261217104700000000000103101180000000000000000000000000000000000000000100000000001265PAULO CESAR MARINS DA SILVA             RUA EDUARDO NORONHA N 35                ROCHA - SAO 24420615SAO GONCALO    RJUNIAO UMB DOS CULTOS AFRO BRAS    31011810 000201
10231987175000168817800093673    00005815                     000058150000000000000109                     I025815      31011800000000035003410000017N261217104700000000000103101180000000000000000000000000000000000000000100080020542704DENISE PINHEIRO MOURA                   RUA SOTERO VAZ                          IRAJA - RJ  21230140RIO DE JANEIRO RJUNIAO UMB DOS CULTOS AFRO BRAS    31011810 000202
10231987175000168817800093673    00005813                     000058130000000000000109                     I025813      31011800000000035003410000017N261217104700000000000103101180000000000000000000000000000000000000000100012663149705DIEGO PARREIRA DE ARAUJO                RUA ERMENEGILDO DE SOUZA QUADRA 18 LOTE JARDIM SAO J23890103SEROPEDICA     RJUNIAO UMB DOS CULTOS AFRO BRAS    31011810 000203
10231987175000168817800093673    00005812                     000058120000000000000109                     I025812      31011800000000035003410000017N261217104700000000000103101180000000000000000000000000000000000000000100067321364704MARGARETH SOARES PECHIR                 RUA PRACINHA CESARIO AGUIAR N 256       PITANGUEIRAS21930230ILHA DO GOVERNARJUNIAO UMB DOS CULTOS AFRO BRAS    31011810 000204
10231987175000168817800093673    00005808                     000058080000000000000109                     I025808      31011800000000035003410000017N261217104700000000000103101180000000000000000000000000000000000000000100078885647715NELMA ARLOY VIEIRA                      RUA QUIRIRIM N 1534 CASA 34 SUBSOLO     VILA VALQUEI21380658RIO DE JANEIRO RJUNIAO UMB DOS CULTOS AFRO BRAS    31011810 000205
10231987175000168817800093673    00005802                     000058020000000000000109                     I025802      31011800000000035003410000017N261217104700000000000103101180000000000000000000000000000000000000000100003858469750MARIA DO SOCORRO PEREIRA DE SO          RUA CIRENE DE MORAES COSTA SN QUADRA D LTRES FONTES 26382506NOVA IGUACU    RJUNIAO UMB DOS CULTOS AFRO BRAS    31011810 000206
10231987175000168817800093673    00005800                     000058000000000000000109                     I025800      31011800000000035003410000017N261217104700000000000103101180000000000000000000000000000000000000000200000000012620BRUNO LUIS MAGALHAES DE SOUSA           RUA HOMERO SOBRINHO LOTE 16 QUADRA 8    MALHAPAO - B26187495BELFORD ROXO   RJUNIAO UMB DOS CULTOS AFRO BRAS    31011810 000207
10231987175000168817800093673    00005799                     000057990000000000000109                     I025799      31011800000000035003410000017N261217104700000000000103101180000000000000000000000000000000000000000100037257831715WALTANIR LOURENCO DOS SANTOS            RUA APORUNA N 52                        PARQUE SAO J26190130BELFORD ROXO   RJUNIAO UMB DOS CULTOS AFRO BRAS    31011810 000208
10231987175000168817800093673    00005792                     000057920000000000000109                     I025792      31011800000000035003410000017N261217104700000000000103101180000000000000000000000000000000000000000100008714370743NEUZELI SIMOES CARVALHO DE SOU          RUA ENGENHEIRO HENRIQUE LUSSACK N 926   EDSON PASSOS26553500MESQUITA       RJUNIAO UMB DOS CULTOS AFRO BRAS    31011810 000209
10231987175000168817800093673    00005789                     000057890000000000000109                     I025789      31011800000000035003410000017N261217104700000000000103101180000000000000000000000000000000000000000100010031741754ALCINEA BENEDITO CARDOSO                RUA DARIDA DE JESUS, 58 CASA 4          JARDIM CENTR23890145RIO DE JANEIRO RJUNIAO UMB DOS CULTOS AFRO BRAS    31011810 000210
10231987175000168817800093673    00005788                     000057880000000000000109                     I025788      31011800000000035003410000017N261217104700000000000103101180000000000000000000000000000000000000000100009850935790ANA PAULA SOARES DA SILVA               RUA TURVO, 331 CASA 1                   IRAJA - RJ  21371240RIO DE JANEIRO RJUNIAO UMB DOS CULTOS AFRO BRAS    31011810 000211
10231987175000168817800093673    00005786                     000057860000000000000109                     I025786      31011800000000035003410000017N261217104700000000000103101180000000000000000000000000000000000000000100045704724787PALMIRA FERREIRA NAVARRO                RUA MARTE, 999                          SANTA TERESI26240290MESQUITA       RJUNIAO UMB DOS CULTOS AFRO BRAS    31011810 000212
10231987175000168817800093673    00005785                     000057850000000000000109                     I025785      31011800000000035003410000017N261217104700000000000103101180000000000000000000000000000000000000000100000000012591LIANDRA KARLA GUIMARAES CARNEI          RUA DOS DIAMANTES, 795                  ROCHA MIRAND22510003RIO DE JANEIRO RJUNIAO UMB DOS CULTOS AFRO BRAS    31011810 000213
10231987175000168817800093673    00005784                     000057840000000000000109                     I025784      31011800000000035003410000017N261217104700000000000103101180000000000000000000000000000000000000000100085339695700DAYSE DE ALMEIDA SOARES                 O MESMO                                 O MESMO     22750054RIO DE JANEIRO RJUNIAO UMB DOS CULTOS AFRO BRAS    31011810 000214
10231987175000168817800093673    00005783                     000057830000000000000109                     I025783      31011800000000035003410000017N261217104700000000000103101180000000000000000000000000000000000000000100043719791734MARIA DA CONCEICAO BORGES               RUA DO GOVERNO, 222 CASA 10             REALENGO - R21770100RIO DE JANEIRO RJUNIAO UMB DOS CULTOS AFRO BRAS    31011810 000215
10231987175000168817800093673    00005782                     000057820000000000000109                     I025782      31011800000000035003410000017N261217104700000000000103101180000000000000000000000000000000000000000100072386296700FERNANDO LOPES NARCISO                  RUA IPINAMBES, 196                      TAQUARA - JA22730210RIO DE JANEIRO RJUNIAO UMB DOS CULTOS AFRO BRAS    31011810 000216
10231987175000168817800093673    00005781                     000057810000000000000109                     I025781      31011800000000035003410000017N261217104700000000000103101180000000000000000000000000000000000000000100014190708780MATHEUS APOLONIO DO AMARAL              TRAVESSA MANOEL RODRIGUES DE ALMEIDA N 1FONSECA - NI24060048NITEROI        RJUNIAO UMB DOS CULTOS AFRO BRAS    31011810 000217
10231987175000168817800093673    00005780                     000057800000000000000109                     I025780      31011800000000035003410000017N261217104700000000000103101180000000000000000000000000000000000000000100013513344890LUCIANO MAURICIO ESTEVES OSTER          ESTRADA ANTONIO DOS REIS CARNEIRO, 154  SAO JOSE - B26193320BELFORD ROXO   RJUNIAO UMB DOS CULTOS AFRO BRAS    31011810 000218
10231987175000168817800093673    00005779                     000057790000000000000109                     I025779      31011800000000035003410000017N261217104700000000000103101180000000000000000000000000000000000000000100060709910797FATIMA REGINA CARVALHO                  RUA MACHADO  QD 135 LOTE 42 CASA 2      JARDIM ATLAN24935540MARICA         RJUNIAO UMB DOS CULTOS AFRO BRAS    31011810 000219
10231987175000168817800093673    00005778                     000057780000000000000109                     I025778      31011800000000035003410000017N261217104700000000000103101180000000000000000000000000000000000000000100009952239718EVANGELO RAIMUNDO                       RUA GENUINO SIQUEIRA, 52                JARDIM MERIT25555300SAO JOAO DE MERRJUNIAO UMB DOS CULTOS AFRO BRAS    31011810 000220
10231987175000168817800093673    00005774                     000057740000000000000109                     I025774      31011800000000035003410000017N261217104700000000000103101180000000000000000000000000000000000000000100008665082794CARLOS EDUARDO DE ALMEIDA BOSI          RUA SARGENTO PAULO MOREIRA, 91          SANTO AGOSTI27211150VOLTA REDONDA  RJUNIAO UMB DOS CULTOS AFRO BRAS    31011810 000221
10231987175000168817800093673    00005773                     000057730000000000000109                     I025773      31011800000000035003410000017N261217104700000000000103101180000000000000000000000000000000000000000100001413305709LUCIO MAURO DE AQUINO BARBOSA           RUA FAIA, 455                           ROCHA MIRAND21545110RIO DE JANEIRO RJUNIAO UMB DOS CULTOS AFRO BRAS    31011810 000222
10231987175000168817800093673    00005772                     000057720000000000000109                     I025772      31011800000000035003410000017N261217104700000000000103101180000000000000000000000000000000000000000100007631285705ANDERSON DE OLIVEIRA INACIO             RUA NOSSA SENHORA DE FATIMA, 29         PENHA - RJ  21072750RIO DE JANEIRO RJUNIAO UMB DOS CULTOS AFRO BRAS    31011810 000223
10231987175000168817800093673    00005769                     000057690000000000000109                     I025769      31011800000000035003410000017N261217104700000000000103101180000000000000000000000000000000000000000100077351436649RONALDO MARTINS DOS SANTOS              RUA DOMINGOS MARCOS DA SILVA,196        SENHOR DOS M36300356SAO JOAO DEL REMGUNIAO UMB DOS CULTOS AFRO BRAS    31011810 000224
10231987175000168817800093673    00005768                     000057680000000000000109                     I025768      31011800000000035003410000017N261217104700000000000103101180000000000000000000000000000000000000000100016369746789JOAO VITOR LEANDRO DOS SANTOS           AVENIDA PREFEITO BRAULINO DE MATOS REIS,LEOPOLDINA -25060445D. CAXIAS      RJUNIAO UMB DOS CULTOS AFRO BRAS    31011810 000225
10231987175000168817800093673    00005767                     000057670000000000000109                     I025767      31011800000000035003410000017N261217104700000000000103101180000000000000000000000000000000000000000100083493336772CARLOS FRANCISCO ARAGAO DE GOU          RUA DA CARIDADE, LOTE 39 QUADRA 2       TAQUARA - D.25275010DUQUE DE CAXIASRJUNIAO UMB DOS CULTOS AFRO BRAS    31011810 000226
10231987175000168817800093673    00005766                     000057660000000000000109                     I025766      31011800000000035003410000017N261217104700000000000103101180000000000000000000000000000000000000000100015458844718ANDRE LUIZ TRINDADE JUNIOR              RUA ERTA, 25                            IMPERADOR - 25900001MAGE           RJUNIAO UMB DOS CULTOS AFRO BRAS    31011810 000227
10231987175000168817800093673    00005765                     000057650000000000000109                     I025765      31011800000000035003410000017N261217104700000000000103101180000000000000000000000000000000000000000100003139923716ANDRE MARQUES POLICARPO                 RUA PIRACANJUBA  LOTE 11 QUADRA 209     JARDIM CATAR24716051SAO GONCALO    RJUNIAO UMB DOS CULTOS AFRO BRAS    31011810 000228
10231987175000168817800093673    00005761                     000057610000000000000109                     I025761      31011800000000035003410000017N261217104700000000000103101180000000000000000000000000000000000000000100027313590725JOAO BATISTA FERREIRA                   RUA TEIXEIRA PINTO, 116                 ENGENHEIRO B25520210SAO JOAO DE MERRJUNIAO UMB DOS CULTOS AFRO BRAS    31011810 000229
10231987175000168817800093673    00005758                     000057580000000000000109                     I025758      31011800000000035003410000017N261217104700000000000103101180000000000000000000000000000000000000000100012661069798REGINA DA CONCEICAO VIANA               RUA POTI, 10                            PARQUE FLUMI25042610DUQUE DE CAXIASRJUNIAO UMB DOS CULTOS AFRO BRAS    31011810 000230
10231987175000168817800093673    00005756                     000057560000000000000109                     I025756      31011800000000035003410000017N261217104700000000000103101180000000000000000000000000000000000000000200000000012491ROBERTA DA SILVA RIBAS                  RUA FLORESTA, 90 VILA - SANTO ANTONIO   PANTANAL - D25041650DUQUE DE CAXIASRJUNIAO UMB DOS CULTOS AFRO BRAS    31011810 000231
10231987175000168817800093673    00005755                     000057550000000000000109                     I025755      31011800000000035003410000017N261217104700000000000103101180000000000000000000000000000000000000000100012767487798WALACE ALFREDO PEREIRA                  RUA DICURANA, 15                        COSMOS - RJ 23059340RIO DE JANEIRO RJUNIAO UMB DOS CULTOS AFRO BRAS    31011810 000232
10231987175000168817800093673    00005753                     000057530000000000000109                     I025753      31011800000000035003410000017N261217104700000000000103101180000000000000000000000000000000000000000100000137585780ARLINDA CAMILO DOS SANTOS               RUA MANOEL PAULO DE FARIA, 435 ANTIGA RUFRAGOSO - MA25935298MAGE           RJUNIAO UMB DOS CULTOS AFRO BRAS    31011810 000233
10231987175000168817800093673    00005752                     000057520000000000000109                     I025752      31011800000000035003410000017N261217104700000000000103101180000000000000000000000000000000000000000100076092712768MARIA DA GLORIA DA SILVA                RUA PROJETADA DOIS N 2                  FRAGOSO - MA25935000MAGE           RJUNIAO UMB DOS CULTOS AFRO BRAS    31011810 000234
10231987175000168817800093673    00005750                     000057500000000000000109                     I025750      31011800000000035003410000017N261217104700000000000103101180000000000000000000000000000000000000000100008888032738FATIMA SOARES CARNEIRO                  RUA ANTONIO JOAO MENDONCA, 1466         CENTRO - NIL26515592NILOPOLIS      RJUNIAO UMB DOS CULTOS AFRO BRAS    31011810 000235
10231987175000168817800093673    00005748                     000057480000000000000109                     I025748      31011800000000035003410000017N261217104700000000000103101180000000000000000000000000000000000000000100080962190730NILCE TAVARES DA SILVA                  ESTRADA DO ZEPELIN, 16 -  RUA 9         SANTA CRUZ -23555220RIO DE JANEIRO RJUNIAO UMB DOS CULTOS AFRO BRAS    31011810 000236
10231987175000168817800093673    00005746                     000057460000000000000109                     I025746      31011800000000035003410000017N261217104700000000000103101180000000000000000000000000000000000000000100010503933767THIAGO MARQUES DE CARVALHO              TRAVESSA DA SERVIDAO, 17                CAMPO GRANDE23017405RIO DE JANEIRO RJUNIAO UMB DOS CULTOS AFRO BRAS    31011810 000237
10231987175000168817800093673    00005745                     000057450000000000000109                     I025745      31011800000000035003410000017N261217104700000000000103101180000000000000000000000000000000000000000100072962771734MARCIA CARNAVAL                         RUA AJAPI, 580 CASA 2                   COSMOS - RIO23066420RIO DE JANEIRO RJUNIAO UMB DOS CULTOS AFRO BRAS    31011810 000238
10231987175000168817800093673    00005744                     000057440000000000000109                     I025744      31011800000000035003410000017N261217104700000000000103101180000000000000000000000000000000000000000100084287228720JOSE CARLOS GUEDES DA SILVA             RUA JOSE DE OLIVEIRA, 70                NOVA SEPETIB23530086RIO DE JANEIRO RJUNIAO UMB DOS CULTOS AFRO BRAS    31011810 000239
10231987175000168817800093673    00005743                     000057430000000000000109                     I025743      31011800000000035003410000017N261217104700000000000103101180000000000000000000000000000000000000000100000449685748OLGA SODRE DE CASTRO E PALMIRA          PRACA JOAO PONTES, 10                   SANTA TEREZI26554420MESQUITA       RJUNIAO UMB DOS CULTOS AFRO BRAS    31011810 000240
10231987175000168817800093673    00005742                     000057420000000000000109                     I025742      31011800000000035003410000017N261217104700000000000103101180000000000000000000000000000000000000000100068661533791CARLOS RENNAN CORREIA BORGES            RUA AMERICA DOURADA, LOTE 8 QUADRA 34   CAMPO GRANDE23088240RIO DE JANEIRO RJUNIAO UMB DOS CULTOS AFRO BRAS    31011810 000241
10231987175000168817800093673    00005740                     000057400000000000000109                     I025740      31011800000000035003410000017N261217104700000000000103101180000000000000000000000000000000000000000100011066424730CARMEZIA GOMES MORAIS DOS SANT          RUA ALBERTO AUGUSTO, 713 - FIGUEIRA     MAGE - RJ   25927890RIO DE JANEIRO RJUNIAO UMB DOS CULTOS AFRO BRAS    31011810 000242
10231987175000168817800093673    00005739                     000057390000000000000109                     I025739      31011800000000035003410000017N261217104700000000000103101180000000000000000000000000000000000000000100009435729754ANDREA DE SOUZA SOARES                  AVENIDA DOIS, QUADRA 248 LOTE 25 - IPIRAMAUA - MAGE 25900001MAGE           RJUNIAO UMB DOS CULTOS AFRO BRAS    31011810 000243
10231987175000168817800093673    00005738                     000057380000000000000109                     I025738      31011800000000035003410000017N261217104700000000000103101180000000000000000000000000000000000000000100040883612704JOAO ROBERTO RAJO SIMOES                RUA QUITO                               PENHA       21020330RIO DE JANEIRO RJUNIAO UMB DOS CULTOS AFRO BRAS    31011810 000244
10231987175000168817800093673    00005734                     000057340000000000000109                     I025734      31011800000000035003410000017N261217104700000000000103101180000000000000000000000000000000000000000100007822585738IZANIRA COSTA                           RUA DOUTOR LUIS SOBRAL, 301             TOMAZINHO - 25525520SAO JOAO DE MERRJUNIAO UMB DOS CULTOS AFRO BRAS    31011810 000245
10231987175000168817800093673    00005733                     000057330000000000000109                     I025733      31011800000000035003410000017N261217104700000000000103101180000000000000000000000000000000000000000100081051026868ANA LUCIA PEREIRA DE SOUZA              AVENIDA SAO FRANCISCO, LOTE 41 QUADRA E PARQUE COLON26183170BELFORD ROXO   RJUNIAO UMB DOS CULTOS AFRO BRAS    31011810 000246
10231987175000168817800093673    00005731                     000057310000000000000109                     I025731      31011800000000035003410000017N261217104700000000000103101180000000000000000000000000000000000000000100010880272308FERNANDA DOS SANTOS PEREIRA             RUA LINS DE VASCONCELOS, 593            LINS DE VASC20710130RIO DE JANEIRO RJUNIAO UMB DOS CULTOS AFRO BRAS    31011810 000247
10231987175000168817800093673    00005729                     000057290000000000000109                     I025729      31011800000000035003410000017N261217104700000000000103101180000000000000000000000000000000000000000100007186292720RENATO GONCALVES DUARTE                 RUA CORONEL ALBERTO DE MELLO, 113       CENTENARIO -25030150DUQUE DE CAXIASRJUNIAO UMB DOS CULTOS AFRO BRAS    31011810 000248
10231987175000168817800093673    00005728                     000057280000000000000109                     I025728      31011800000000035003410000017N261217104700000000000103101180000000000000000000000000000000000000000100050002317753IVO DE AZEVEDO COELHO                   RUA REVERINO ABIDIAS NOBRE, 277 CASA 1  COIMBRA - BA21105170RIO DE JANEIRO RJUNIAO UMB DOS CULTOS AFRO BRAS    31011810 000249
