01REMESSA01COBRANCA       817800093673        União Umb dos Cultos Afro Bra341BANCO ITAU SA  270218                                                                                                                                                                                                                                                                                                      000001
10231987175000168817800093673    000014045                    000140450000000000000109                     I0114045     30041800000000035003410000017N260218104700000000000103004180000000000000000000000000000000000000000100003159130452VICENTE FELICIO DA SILVA                RUA LUIZA NEOFILA PIMENTA, 156          ALTO DA CAPE59680000CAMPO GRANDE   RNUNIAO UMB DOS CULTOS AFRO BRAS    30041810 000002
9                                                                                                                                                                                                                                                                                                                                                                                                         000003
