01REMESSA01COBRANCA       916200163100        União Umb dos Cultos Afro Bra341BANCO ITAU SA  130319                                                                                                                                                                                                                                                                                                      000001
10231987175000168916200163100    000041807                    000418070000000000000109                     I0141807     30051900000000040003410000017N130319104700000000000103005190000000000000000000000000000000000000000100010491247745JOAO BATISTA MACEDO DE FREITAS          RUA ITAGIBAN 1047, FUNDOS               COSMOS      23060450RIO DE JANEIRO RJUNIAO UMB DOS CULTOS AFRO BRAS    30051910 000002
10231987175000168916200163100    000041806                    000418060000000000000109                     I0141806     30051900000000040003410000017N130319104700000000000103005190000000000000000000000000000000000000000100085488526749MARCOS ROMEU DA SILVA                   RUA CAMINHO DO VELOSON 836, CASA 4      AUGUSTO VASC23013090CAMPO GRANDE   RJUNIAO UMB DOS CULTOS AFRO BRAS    30051910 000003
10231987175000168916200163100    000041805                    000418050000000000000109                     I0141805     30051900000000040003410000017N130319104700000000000103005190000000000000000000000000000000000000000100082233039734BARBARA DA SILVA CUNHA MOREIRA          RUA EVARISTO PIRES N 290,               BANGU       21840040RIO DE JANEIRO RJUNIAO UMB DOS CULTOS AFRO BRAS    30051910 000004
10231987175000168916200163100    000041804                    000418040000000000000109                     I0141804     30051900000000040003410000017N130319104700000000000103005190000000000000000000000000000000000000000100032996659600FERNANDO JUSTINO PALMEIRA               ESTRADA DE JACONE N 569,                SAMPAIO CORR28990000SAQUAREMA      RJUNIAO UMB DOS CULTOS AFRO BRAS    30051910 000005
10231987175000168916200163100    000041803                    000418030000000000000109                     I0141803     30051900000000040003410000017N130319104700000000000103005190000000000000000000000000000000000000000100076744515772GELSON CORREA DE CARVALHO               RUA MANOEL MACHADO N 77,                VAZ LOBO    21361090RIO DE JANEIRO RJUNIAO UMB DOS CULTOS AFRO BRAS    30051910 000006
10231987175000168916200163100    000041802                    000418020000000000000109                     I0141802     30051900000000040003410000017N130319104700000000000103005190000000000000000000000000000000000000000100005744506705SANDRA REGINA DE OLIVEIRA               RUA MARCIA COSTA N 924,                 JARDIM NOVA 26271160NOVA IGUACU    RJUNIAO UMB DOS CULTOS AFRO BRAS    30051910 000007
10231987175000168916200163100    000041801                    000418010000000000000109                     I0141801     30051900000000040003410000017N130319104700000000000103005190000000000000000000000000000000000000000100073257265700DAMIANA DE OLIVEIRA PINHEIRO            RUA PROJETADA ALPHA N 0, QUADRA 5 LOTE 6PALMARES    23575270SANTA CRUZ     RJUNIAO UMB DOS CULTOS AFRO BRAS    30051910 000008
10231987175000168916200163100    000041800                    000418000000000000000109                     I0141800     30051900000000040003410000017N130319104700000000000103005190000000000000000000000000000000000000000100000000000251NEUZA DE OLIVEIRA                       RUA CINQUENTA E CINCON 521, QUADRA 49   NOVA SEPETIB23547490SEPETIBA       RJUNIAO UMB DOS CULTOS AFRO BRAS    30051910 000009
10231987175000168916200163100    000041799                    000417990000000000000109                     I0141799     30051900000000040003410000017N130319104700000000000103005190000000000000000000000000000000000000000100000910644730JOSE ALEXANDRE IOZZI                    RUA AUGUSTO NUNES N 253, CASA 3         MEIER       20770270RIO DE JANEIRO RJUNIAO UMB DOS CULTOS AFRO BRAS    30051910 000010
10231987175000168916200163100    000041798                    000417980000000000000109                     I0141798     30051900000000040003410000017N130319104700000000000103005190000000000000000000000000000000000000000100001295514737DANUZA JEREMIAS DA SILVA                RUA JOAQUIM RAFAEL N 957,               COELHO      24740020SAO GONCALO    RJUNIAO UMB DOS CULTOS AFRO BRAS    30051910 000011
10231987175000168916200163100    000041797                    000417970000000000000109                     I0141797     30051900000000040003410000017N130319104700000000000103005190000000000000000000000000000000000000000100000000000000EVA ANA ROSA DOS SANTOS                 RUA SARGENTO ANDIRAS DE ABREU N 0, LOTE PALMARES - P23066080RIO DE JANEIRO RJUNIAO UMB DOS CULTOS AFRO BRAS    30051910 000012
10231987175000168916200163100    000041796                    000417960000000000000109                     I0141796     30051900000000040003410000017N130319104700000000000103005190000000000000000000000000000000000000000100072090499753JOSEFINA PAULINA RODRIGUES              RUA JOAQUIM SOARES NETO N 416,          NOVA AMERICA26021560NOVA IGUACU    RJUNIAO UMB DOS CULTOS AFRO BRAS    30051910 000013
10231987175000168916200163100    000041795                    000417950000000000000109                     I0141795     30051900000000040003410000017N130319104700000000000103005190000000000000000000000000000000000000000100098416286787CLAUDIO LUIZ DOMINGOS DOS SANT          RUA PRESIDENTE JUSCELINO KUBITSCHEKN 230PARQUE ESPER26173515BELFORD ROXO   RJUNIAO UMB DOS CULTOS AFRO BRAS    30051910 000014
10231987175000168916200163100    000041794                    000417940000000000000109                     I0141794     30051900000000040003410000017N130319104700000000000103005190000000000000000000000000000000000000000100000000000000OSVALDO LUIZ ESTRELA FERNANDES          RUA ANTONIO MATEUSN 0, LOTE 31 A QUADRA MAZOMBA     23826225ITAGUAI        RJUNIAO UMB DOS CULTOS AFRO BRAS    30051910 000015
10231987175000168916200163100    000041793                    000417930000000000000109                     I0141793     30051900000000040003410000017N130319104700000000000103005190000000000000000000000000000000000000000100001789073758BERNADETE BURGOS AMORIM RANGEL          RUA IMBUI N 120,  LARGO DO TANQUE       TAQUARA     22730100RIO DE JANEIRO RJUNIAO UMB DOS CULTOS AFRO BRAS    30051910 000016
10231987175000168916200163100    000041792                    000417920000000000000109                     I0141792     30051900000000040003410000017N130319104700000000000103005190000000000000000000000000000000000000000100001388677717EDSON LUIZ COSTA SOARES                 RUA LEOCADIO MELLON 326,                JARDIM NOVA 26272060NOVA IGUACU    RJUNIAO UMB DOS CULTOS AFRO BRAS    30051910 000017
10231987175000168916200163100    000041791                    000417910000000000000109                     I0141791     30051900000000040003410000017N130319104700000000000103005190000000000000000000000000000000000000000100075588137787ANA LADAIDES CONSTANTINO TRIND          RUA DOZEN 0, LOTE 2 QUADRA 86           ENGENHO     23820300ITAGUAI        RJUNIAO UMB DOS CULTOS AFRO BRAS    30051910 000018
10231987175000168916200163100    000041790                    000417900000000000000109                     I0141790     30051900000000040003410000017N130319104700000000000103005190000000000000000000000000000000000000000100039233219704SEVERINO DA SILVA BARBOSA               RUA ENGENHEIRO BERNARDO SAIAO N 26, QUADCOELHO DA RO25550810SAO JOAO DE MERRJUNIAO UMB DOS CULTOS AFRO BRAS    30051910 000019
10231987175000168916200163100    000041789                    000417890000000000000109                     I0141789     30051900000000040003410000017N130319104700000000000103005190000000000000000000000000000000000000000100000000000000JOSE ANTONIO ZANELLI                    PRAIA DE ICARAIN 267, LOJA 102          ICARAI      24230004NITEROI        RJUNIAO UMB DOS CULTOS AFRO BRAS    30051910 000020
10231987175000168916200163100    000041788                    000417880000000000000109                     I0141788     30051900000000040003410000017N130319104700000000000103005190000000000000000000000000000000000000000100028131576787EVA MOREIRA FERREIRA                    RUA PEDRO LESSA N 1486,                 VILA LEOPOLD25035800DUQUE DE CAXIASRJUNIAO UMB DOS CULTOS AFRO BRAS    30051910 000021
10231987175000168916200163100    000041787                    000417870000000000000109                     I0141787     30051900000000040003410000017N130319104700000000000103005190000000000000000000000000000000000000000100004550883731LINDINALVA MONTEIRO DA SILVA            RUA TENENTE PALESTRINA N 135,           CORDOVIL    21250550RIO DE JANEIRO RJUNIAO UMB DOS CULTOS AFRO BRAS    30051910 000022
10231987175000168916200163100    000041786                    000417860000000000000109                     I0141786     30051900000000040003410000017N130319104700000000000103005190000000000000000000000000000000000000000100043248730706BRAULIO ESPINI RIBEIRO                  RUA EMBOABAN 7, QUADRA E - PARQUE COLONILOTE XV     26180060BELFORD ROXO   RJUNIAO UMB DOS CULTOS AFRO BRAS    30051910 000023
10231987175000168916200163100    000041785                    000417850000000000000109                     I0141785     30051900000000040003410000017N130319104700000000000103005190000000000000000000000000000000000000000100001345348754ADRIANA DE LELIS                        RUA DOIS N 0, QUADRA D LOTE 13          CAMPO GRANDE23092080RIO DE JANEIRO RJUNIAO UMB DOS CULTOS AFRO BRAS    30051910 000024
10231987175000168916200163100    000041784                    000417840000000000000109                     I0141784     30051900000000040003410000017N130319104700000000000103005190000000000000000000000000000000000000000100027016005704SEVERINO MIGUEL SIMAO                   RUA CONDOMINIO PASSAREDON 0, QUADRA 24 LCAMINHO DE B28910000CABO FRIO      RJUNIAO UMB DOS CULTOS AFRO BRAS    30051910 000025
10231987175000168916200163100    000041783                    000417830000000000000109                     I0141783     30051900000000040003410000017N130319104700000000000103005190000000000000000000000000000000000000000100000000000000DALILA DE SOUZA PINHEIRO                RUA JOAO BRIGIDON 121,                  MAGALHAES BA21745480RIO DE JANEIRO RJUNIAO UMB DOS CULTOS AFRO BRAS    30051910 000026
10231987175000168916200163100    000041782                    000417820000000000000109                     I0141782     30051900000000040003410000017N130319104700000000000103005190000000000000000000000000000000000000000100007070605757DANIEL MARCONDI DE SOUZA                RUA TUPIN 20,                           VILA PAULINE26185235BELFORD ROXO   RJUNIAO UMB DOS CULTOS AFRO BRAS    30051910 000027
10231987175000168916200163100    000041781                    000417810000000000000109                     I0141781     30051900000000040003410000017N130319104700000000000103005190000000000000000000000000000000000000000100004287865707MARIA LUISA DE OLIVEIRA LIREO           RUA PORTO CARRERO N 333,                CORDOVIL    21250260RIO DE JANEIRO RJUNIAO UMB DOS CULTOS AFRO BRAS    30051910 000028
10231987175000168916200163100    000041780                    000417800000000000000109                     I0141780     30051900000000040003410000017N130319104700000000000103005190000000000000000000000000000000000000000100083122869772ANDREIA OLIVEIRA DE MENEZES             RUA VICENTE PONTEN 41, JARDIM CARIOCA   ILHA DO GOVE21921740RIO DE JANEIRO RJUNIAO UMB DOS CULTOS AFRO BRAS    30051910 000029
10231987175000168916200163100    000041779                    000417790000000000000109                     I0141779     30051900000000040003410000017N130319104700000000000103005190000000000000000000000000000000000000000100003032033748MARIA MOREIRA TEIXEIRA                  AVENIDA GENERAL JOSE MULHERN 1018,      HELIOPOLIS  26140040BELFORD ROXO   RJUNIAO UMB DOS CULTOS AFRO BRAS    30051910 000030
10231987175000168916200163100    000041778                    000417780000000000000109                     I0141778     30051900000000040003410000017N130319104700000000000103005190000000000000000000000000000000000000000100092820824749CRISTINA FERREIRA DOS SANTOS            RUA MADRE SILVAN 95,                    RANCHO FUNDO26051424NOVA IGUACU    RJUNIAO UMB DOS CULTOS AFRO BRAS    30051910 000031
10231987175000168916200163100    000041777                    000417770000000000000109                     I0141777     30051900000000040003410000017N130319104700000000000103005190000000000000000000000000000000000000000100095470298787MAGNO AGUIAR DA SILVA                   RUA DOM PEDRO IN 1,  FUNDOS             PRAIA GRANDE28930000ARRAIAL DO CABORJUNIAO UMB DOS CULTOS AFRO BRAS    30051910 000032
10231987175000168916200163100    000041776                    000417760000000000000109                     I0141776     30051900000000040003410000017N130319104700000000000103005190000000000000000000000000000000000000000100003725237735LUCIANO LOPES DA SILVA                  ALAMEDA: BUENO AIRES N 370,             RIO DO OURO 24752360SAO GONCALO    RJUNIAO UMB DOS CULTOS AFRO BRAS    30051910 000033
10231987175000168916200163100    000041775                    000417750000000000000109                     I0141775     30051900000000040003410000017N130319104700000000000103005190000000000000000000000000000000000000000100006932718766CARLOS EDUARDO DE OLIVEIRA              TRAVESSA CARLOS SAMPAIO N 0, QUADRA 2 LOAUSTIN      26087287NOVA IGUACU    RJUNIAO UMB DOS CULTOS AFRO BRAS    30051910 000034
10231987175000168916200163100    000041774                    000417740000000000000109                     I0141774     30051900000000040003410000017N130319104700000000000103005190000000000000000000000000000000000000000100043116248753NORMA FELIX DA SILVA PEREIRA            RUA HENRIQUE MARTINSN 0,  LOTE 24 QUADRALAGOINHA    24736130SAO GONCALO    RJUNIAO UMB DOS CULTOS AFRO BRAS    30051910 000035
10231987175000168916200163100    000041773                    000417730000000000000109                     I0141773     30051900000000040003410000017N130319104700000000000103005190000000000000000000000000000000000000000100023768649768SONIA MARIA DA SILVA DELLIVENE          AV: PLINIO GOMES DE MATTOS FILHON 278,  VARZEA DAS M24330430SAO GONCALO    RJUNIAO UMB DOS CULTOS AFRO BRAS    30051910 000036
10231987175000168916200163100    000041772                    000417720000000000000109                     I0141772     30051900000000040003410000017N130319104700000000000103005190000000000000000000000000000000000000000100071186220791AUREA GOMES                             AVENIDA FRANCISCO ANTONIO FRANCISCO N 12RETIRO      27276000VOLTA REDONDA  RJUNIAO UMB DOS CULTOS AFRO BRAS    30051910 000037
10231987175000168916200163100    000041771                    000417710000000000000109                     I0141771     30051900000000040003410000017N130319104700000000000103005190000000000000000000000000000000000000000100004455965700MARIA DE LOURDES SOARES DA SIL          ESTRADA RJ 127 N 0, KM 25               ALTO DO CHAF26650000PAULO DE FRONTIRJUNIAO UMB DOS CULTOS AFRO BRAS    30051910 000038
10231987175000168916200163100    000041770                    000417700000000000000109                     I0141770     30051900000000040003410000017N130319104700000000000103005190000000000000000000000000000000000000000208817265000199YLE OMIN ASE OFA FADAKA                 RUA FLORIANOPOLISN 63,                  PRACA SECA  21321050RIO DE JANEIRO RJUNIAO UMB DOS CULTOS AFRO BRAS    30051910 000039
10231987175000168916200163100    000041769                    000417690000000000000109                     I0141769     30051900000000040003410000017N130319104700000000000103005190000000000000000000000000000000000000000100039056481720ZUILA DE MELO E SILVA COVA              RUA TAMOIOSN 71, APT 201                SAO FRANCISC24360380NITEROI        RJUNIAO UMB DOS CULTOS AFRO BRAS    30051910 000040
10231987175000168916200163100    000041768                    000417680000000000000109                     I0141768     30051900000000040003410000017N130319104700000000000103005190000000000000000000000000000000000000000100000000000000ELOIDE GONCALVES GAIA                   RUA IVONETEN 31, A                      CONJUNTO SAN23071580RIO DE JANEIRO RJUNIAO UMB DOS CULTOS AFRO BRAS    30051910 000041
10231987175000168916200163100    000041767                    000417670000000000000109                     I0141767     30051900000000040003410000017N130319104700000000000103005190000000000000000000000000000000000000000100003778949748MARLENE PEREIRA DA SILVA MELO           RUA: COMENDADOR REIS N 481,             CENTRO      25900000MAGE           RJUNIAO UMB DOS CULTOS AFRO BRAS    30051910 000042
10231987175000168916200163100    000041766                    000417660000000000000109                     I0141766     30051900000000040003410000017N130319104700000000000103005190000000000000000000000000000000000000000100005359920769MARCIO ROGERIO DE SOUZA MONTE           RUA: MARIA FERREIRA PINTON 25, SANTA MARTINGUI - CAM23075000RIO DE JANEIRO RJUNIAO UMB DOS CULTOS AFRO BRAS    30051910 000043
10231987175000168916200163100    000041765                    000417650000000000000109                     I0141765     30051900000000040003410000017N130319104700000000000103005190000000000000000000000000000000000000000100005538511790VALNEI BARBOSA DA SILVA                 RUA DOS RUBISN 19,                      INHOAIBA - C23064670RIO DE JANEIRO RJUNIAO UMB DOS CULTOS AFRO BRAS    30051910 000044
10231987175000168916200163100    000041764                    000417640000000000000109                     I0141764     30051900000000040003410000017N130319104700000000000103005190000000000000000000000000000000000000000100028842723720HELENITA ANTONIA DE JESUS               RUA DIVINOLANDIAN 225, CASA 1           CAMPO GRANDE23066440RIO DE JANEIRO RJUNIAO UMB DOS CULTOS AFRO BRAS    30051910 000045
10231987175000168916200163100    000041763                    000417630000000000000109                     I0141763     30051900000000040003410000017N130319104700000000000103005190000000000000000000000000000000000000000100013222460760VITOR NERY DO AMARAL                    RUA MARIA PARISN 342,                   PAIOL       26545600NILOPOLIS      RJUNIAO UMB DOS CULTOS AFRO BRAS    30051910 000046
10231987175000168916200163100    000041762                    000417620000000000000109                     I0141762     30051900000000040003410000017N130319104700000000000103005190000000000000000000000000000000000000000100064262839753MARIA JOSE SOUZA DOS SANTOS             RUA JOSE LIMA DA SILVAN 29,             MARIA       26185610BELFORD ROXO   RJUNIAO UMB DOS CULTOS AFRO BRAS    30051910 000047
10231987175000168916200163100    000041761                    000417610000000000000109                     I0141761     30051900000000040003410000017N130319104700000000000103005190000000000000000000000000000000000000000100007296951745PAULO FRANCISCO DA SILVA DANIE          RUA OTAWAN 407,                         PARADA DE LU21241220RIO DE JANEIRO RJUNIAO UMB DOS CULTOS AFRO BRAS    30051910 000048
10231987175000168916200163100    000041760                    000417600000000000000109                     I0141760     30051900000000040003410000017N130319104700000000000103005190000000000000000000000000000000000000000100086901770782EVANILDE DE ARAUJO                      RUA MARQUES CANARION 471,               CHATUBA - ME26587650RIO DE JANEIRO RJUNIAO UMB DOS CULTOS AFRO BRAS    30051910 000049
10231987175000168916200163100    000041759                    000417590000000000000109                     I0141759     30051900000000040003410000017N130319104700000000000103005190000000000000000000000000000000000000000100086374370791IVETE SILVA GOMES                       RUA SEISN 0, LOTE 329                   GEBARA - ITA24867416NITEROI        RJUNIAO UMB DOS CULTOS AFRO BRAS    30051910 000050
10231987175000168916200163100    000041758                    000417580000000000000109                     I0141758     30051900000000040003410000017N130319104700000000000103005190000000000000000000000000000000000000000100014474105729BIANCA OHANNA MOURA DE CARVALH          RUA AMAZONAS N 71,                      PAULICEIA   25080055DUQUE DE CAXIASRJUNIAO UMB DOS CULTOS AFRO BRAS    30051910 000051
10231987175000168916200163100    000041757                    000417570000000000000109                     I0141757     30051900000000040003410000017N130319104700000000000103005190000000000000000000000000000000000000000100007929176770SANSIA MARIA SOBRINHO                   RUA TURMALINA N 0, QUADRA 149 LOTE 6    NOVO JARDIM 24175670SAO GONCALO    RJUNIAO UMB DOS CULTOS AFRO BRAS    30051910 000052
10231987175000168916200163100    000041756                    000417560000000000000109                     I0141756     30051900000000040003410000017N130319104700000000000103005190000000000000000000000000000000000000000100059941294704LUZIA LYGIA DO NASCIMENTO CAMA          RUA ONZEN 112, CASA 1 QUADRA 57         SANTA CRUZ D25250000DUQUE DE CAXIASRJUNIAO UMB DOS CULTOS AFRO BRAS    30051910 000053
10231987175000168916200163100    000041755                    000417550000000000000109                     I0141755     30051900000000040003410000017N130319104700000000000103005190000000000000000000000000000000000000000100001834521785MARCELO TEIXEIRA ORSI                   ESTRADA DE SANTANAN 652,                CERAMICA    26082035NOVA IGUACU    RJUNIAO UMB DOS CULTOS AFRO BRAS    30051910 000054
10231987175000168916200163100    000041754                    000417540000000000000109                     I0141754     30051900000000040003410000017N130319104700000000000103005190000000000000000000000000000000000000000100006957328708ANDRE VALERIO DELGADO GOIS E M          RUA TORRES HOMEM N 147, LOTE 17         JARDIM OLAVO25025380DUQUE DE CAXIASRJUNIAO UMB DOS CULTOS AFRO BRAS    30051910 000055
10231987175000168916200163100    000041753                    000417530000000000000109                     I0141753     30051900000000040003410000017N130319104700000000000103005190000000000000000000000000000000000000000100042153425700MARIA DA CONCEICAO MADUREIRA D          RUA SARAVATA N 329,                     MARECHAL HER21557010RIO DE JANEIRO RJUNIAO UMB DOS CULTOS AFRO BRAS    30051910 000056
10231987175000168916200163100    000041752                    000417520000000000000109                     I0141752     30051900000000040003410000017N130319104700000000000103005190000000000000000000000000000000000000000100007253631773CARLOS EDUARDO IZIDORO DE OLIV          AVENIDA JOSE BRUMATTI N 3158, JARDIM DASLAVRAS      25015350GUARULHOS      SPUNIAO UMB DOS CULTOS AFRO BRAS    30051910 000057
10231987175000168916200163100    000041751                    000417510000000000000109                     I0141751     30051900000000040003410000017N130319104700000000000103005190000000000000000000000000000000000000000100000695677720MARIA DE LOURDES SILVA                  RUA: ROCHA LIMAN 0, LOTE 6 QUADRA 27    SANTA RITA  26050540NOVA IGUACU    RJUNIAO UMB DOS CULTOS AFRO BRAS    30051910 000058
10231987175000168916200163100    000041750                    000417500000000000000109                     I0141750     30051900000000040003410000017N130319104700000000000103005190000000000000000000000000000000000000000100007281066716ZULMIRA DA SILVA RODRIGUES              RUA: BERNARDINO DE CAMPOSN 0, LOTE 8 QUAOLAVO BILAC 25035530DUQUE DE CAXIASRJUNIAO UMB DOS CULTOS AFRO BRAS    30051910 000059
10231987175000168916200163100    000041749                    000417490000000000000109                     I0141749     30051900000000040003410000017N130319104700000000000103005190000000000000000000000000000000000000000100007324399738JACANA MONTEIRO DO AMARAL               RUA MESQUITA N 573,                     SAO ROQUE   26310580QUEIMADOS      RJUNIAO UMB DOS CULTOS AFRO BRAS    30051910 000060
10231987175000168916200163100    000041748                    000417480000000000000109                     I0141748     30051900000000040003410000017N130319104700000000000103005190000000000000000000000000000000000000000100064817008768MARINEIDE JOSE DOS SANTOS DA S          RUA MARINGA  N 30, QUADRA 8 CASA 1      CAMORIM     26311100QUEIMADOS      RJUNIAO UMB DOS CULTOS AFRO BRAS    30051910 000061
10231987175000168916200163100    000041747                    000417470000000000000109                     I0141747     30051900000000040003410000017N130319104700000000000103005190000000000000000000000000000000000000000100048516805700MARIA APARECIDA DOS SANTOS CYP          ESTRADA DO SABONETEN 0, LOTE 25 QUADRA DARSENAL     24745224SAO GONCALO    RJUNIAO UMB DOS CULTOS AFRO BRAS    30051910 000062
10231987175000168916200163100    000041746                    000417460000000000000109                     I0141746     30051900000000040003410000017N130319104700000000000103005190000000000000000000000000000000000000000100082351376749ALDA LUCIA DA SILVA                     RUA ANTONIO MARINS DE OLIVEIRAN 479,    SAO MATEUS  25530000SAO JOAO DE MERRJUNIAO UMB DOS CULTOS AFRO BRAS    30051910 000063
10231987175000168916200163100    000041745                    000417450000000000000109                     I0141745     30051900000000040003410000017N130319104700000000000103005190000000000000000000000000000000000000000100001799273709ANSELMO FERREIRA DEGENAR                RUA NOSSA SENHORA DE NAZAREN 31,        PAVUNA      21655550RIO DE JANEIRO RJUNIAO UMB DOS CULTOS AFRO BRAS    30051910 000064
10231987175000168916200163100    000041744                    000417440000000000000109                     I0141744     30051900000000040003410000017N130319104700000000000103005190000000000000000000000000000000000000000100002180337701SONIA MARIA DE SOUZA CORDOVIL           RUA: GODOFREDO VIANAN 229, CASA 5       TAQUARA     22730020RIO DE JANEIRO RJUNIAO UMB DOS CULTOS AFRO BRAS    30051910 000065
10231987175000168916200163100    000041743                    000417430000000000000109                     I0141743     30051900000000040003410000017N130319104700000000000103005190000000000000000000000000000000000000000100038268264772SANDRA NUNES DE ARAUJO                  RUA UBERABA N 15, VILA ROSARIO          BAIRRO DA GR25041060DUQUE DE CAXIASRJUNIAO UMB DOS CULTOS AFRO BRAS    30051910 000066
10231987175000168916200163100    000041742                    000417420000000000000109                     I0141742     30051900000000040003410000017N130319104700000000000103005190000000000000000000000000000000000000000100001087376750ALAN RICARDO DA CONCEICAO GAMA          ESTRADA: DOS BANDEIRANTES N 11227, AVENIVARGEM PEQUE22783116RIO DE JANEIRO RJUNIAO UMB DOS CULTOS AFRO BRAS    30051910 000067
10231987175000168916200163100    000041741                    000417410000000000000109                     I0141741     30051900000000040003410000017N130319104700000000000103005190000000000000000000000000000000000000000100003547991773PEDRO GUSTAVO SOARES DO NASCIM          RUA: BOM JARDIMN 0,  LOTE 1 QUADRA 98   JARDIM CABUC26052170NOVA IGUACU    RJUNIAO UMB DOS CULTOS AFRO BRAS    30051910 000068
10231987175000168916200163100    000041740                    000417400000000000000109                     I0141740     30051900000000040003410000017N130319104700000000000103005190000000000000000000000000000000000000000100048950572753ORQUIDEA JOSE DOS SANTOS                RUA JESSIE VENTURAN 0, LOTE 6 QUADRA 7  SANTA CECILI25233130DUQUE DE CAXIASRJUNIAO UMB DOS CULTOS AFRO BRAS    30051910 000069
10231987175000168916200163100    000041739                    000417390000000000000109                     I0141739     30051900000000040003410000017N130319104700000000000103005190000000000000000000000000000000000000000100003029004708ANDREA GUIMARAES MARTINS                RUA ANA CRISTINA N 31,                  VILA GUIMARA26088175NOVA IGUACU    RJUNIAO UMB DOS CULTOS AFRO BRAS    30051910 000070
10231987175000168916200163100    000041738                    000417380000000000000109                     I0141738     30051900000000040003410000017N130319104700000000000103005190000000000000000000000000000000000000000100004279924783EDUARDO CARVALHO DE SANTANNA            RUA CINCO N 778, CASA 2 AREA II         NOVA CAMPINA25268050DUQUE DE CAXIASRJUNIAO UMB DOS CULTOS AFRO BRAS    30051910 000071
10231987175000168916200163100    000041737                    000417370000000000000109                     I0141737     30051900000000040003410000017N130319104700000000000103005190000000000000000000000000000000000000000100049135570768CLEBER SILVA DE FREITAS                 RUA COBE N 1275,                        RIO DA PRATA21820200BANGU          RJUNIAO UMB DOS CULTOS AFRO BRAS    30051910 000072
10231987175000168916200163100    000041736                    000417360000000000000109                     I0141736     30051900000000040003410000017N130319104700000000000103005190000000000000000000000000000000000000000100000916700712MARIA MARGARIDA SOARES DOS SAN          RUA ANTONION 38, A                      COELHO DA RO25550100SAO JOAO DE MERRJUNIAO UMB DOS CULTOS AFRO BRAS    30051910 000073
10231987175000168916200163100    000041735                    000417350000000000000109                     I0141735     30051900000000040003410000017N130319104700000000000103005190000000000000000000000000000000000000000100065213696791SILVIA ELIZABETE RODRIGUES              RUA JOAO BITTENCOURTN 286,              EDSON PASSOS26240510MESQUITA       RJUNIAO UMB DOS CULTOS AFRO BRAS    30051910 000074
10231987175000168916200163100    000041734                    000417340000000000000109                     I0141734     30051900000000040003410000017N130319104700000000000103005190000000000000000000000000000000000000000100058887725772LEOMILDA PONTES SILVA                   RUA: BERNADINO GOMESN 44, VILA JOLA     SANTA MARIA 26165710BELFOR ROXO    RJUNIAO UMB DOS CULTOS AFRO BRAS    30051910 000075
10231987175000168916200163100    000041733                    000417330000000000000109                     I0141733     30051900000000040003410000017N130319104700000000000103005190000000000000000000000000000000000000000100015840697753NEA ROGERIO CRUZ                        RUA DOS VERANISTASN 19,                 REALENGO    21715170RIO DE JANEIRO RJUNIAO UMB DOS CULTOS AFRO BRAS    30051910 000076
10231987175000168916200163100    000041732                    000417320000000000000109                     I0141732     30051900000000040003410000017N130319104700000000000103005190000000000000000000000000000000000000000100086634402787ZILDA GIMENIZ NOGUEIRA                  RUA ESPIRITO SANTON 25,                 PRAIA LINDA 28940000SAO PEDRO DA ALRJUNIAO UMB DOS CULTOS AFRO BRAS    30051910 000077
10231987175000168916200163100    000041731                    000417310000000000000109                     I0141731     30051900000000040003410000017N130319104700000000000103005190000000000000000000000000000000000000000100000000000796ELVIRA PEREIRA                          RUA: VERISSIMO MACHADO  N 406,          ROCHA MIRAND21545060RIO DE JANEIRO RJUNIAO UMB DOS CULTOS AFRO BRAS    30051910 000078
10231987175000168916200163100    000041730                    000417300000000000000109                     I0141730     30051900000000040003410000017N130319104700000000000103005190000000000000000000000000000000000000000100003247266780JANILTON DA CRUZ ROCHA                  RUA ALUISIO AZEVEDON 0,  LOTE 27 QUADRA IMBARIE - PA25275360DUQUE DE CAXIASRJUNIAO UMB DOS CULTOS AFRO BRAS    30051910 000079
10231987175000168916200163100    000041729                    000417290000000000000109                     I0141729     30051900000000040003410000017N130319104700000000000103005190000000000000000000000000000000000000000100046582908715WANDERLEI ABRANTES TEIXEIRA             RUA LOURDES BARBOSA PASSASN 26, QUADRA 2BRISA MAR   23826360ITAGUAI        RJUNIAO UMB DOS CULTOS AFRO BRAS    30051910 000080
10231987175000168916200163100    000041728                    000417280000000000000109                     I0141728     30051900000000040003410000017N130319104700000000000103005190000000000000000000000000000000000000000100078893739704DENISE QUEIROZ CARNEIRO                 ESTRADA DO LAMEIRAO - RUA PAINEIRASN 30,SANTISSIMO  23092031RIO DE JANEIRO RJUNIAO UMB DOS CULTOS AFRO BRAS    30051910 000081
10231987175000168916200163100    000041727                    000417270000000000000109                     I0141727     30051900000000040003410000017N130319104700000000000103005190000000000000000000000000000000000000000100054770122772EDUARDO DOS SANTOS REIS NETO            RUA BURITIN 63,                         MADUREIRA   20231046RIO DE JANEIRO RJUNIAO UMB DOS CULTOS AFRO BRAS    30051910 000082
10231987175000168916200163100    000041726                    000417260000000000000109                     I0141726     30051900000000040003410000017N130319104700000000000103005190000000000000000000000000000000000000000100000000000000NATERCIA MALVAR GARCIA LEITAO           RUA CIRO COSTAN 491,                    ENGENHO PEQU24417226SAO GONCALO    RJUNIAO UMB DOS CULTOS AFRO BRAS    30051910 000083
10231987175000168916200163100    000041725                    000417250000000000000109                     I0141725     30051900000000040003410000017N130319104700000000000103005190000000000000000000000000000000000000000100007648724782MARLENE INACIA NUNES DO NASCIM          RUA DOUTOR BERNARDINO TEIXEIRAN 753,    EDEN        25545110SAO JOAO DE MERRJUNIAO UMB DOS CULTOS AFRO BRAS    30051910 000084
10231987175000168916200163100    000041724                    000417240000000000000109                     I0141724     30051900000000040003410000017N130319104700000000000103005190000000000000000000000000000000000000000100073446416749MARIA DAS GRACAS DE SOUZA LEAO          AVENIDA: BRAS DE PINAN 706, APT 403     VILA DA PENH21210672RIO DE JANEIRO RJUNIAO UMB DOS CULTOS AFRO BRAS    30051910 000085
10231987175000168916200163100    000041723                    000417230000000000000109                     I0141723     30051900000000040003410000017N130319104700000000000103005190000000000000000000000000000000000000000100059352272749IVANIR DA CONCEICAO DE ALMEIDA          RUA EUCLIDESN 218, VILA MILITAR         MAGALHAES BA21745130RIO DE JANEIRO RJUNIAO UMB DOS CULTOS AFRO BRAS    30051910 000086
10231987175000168916200163100    000041722                    000417220000000000000109                     I0141722     30051900000000040003410000017N130319104700000000000103005190000000000000000000000000000000000000000100007333127729FRANCISCA GONCALVES                     RUA PROJETADA C N 4, BECO FRANCA        ROLA - SANTA23520580RIO DE JANEIRO RJUNIAO UMB DOS CULTOS AFRO BRAS    30051910 000087
10231987175000168916200163100    000041721                    000417210000000000000109                     I0141721     30051900000000040003410000017N130319104700000000000103005190000000000000000000000000000000000000000100002356363718ANA EVELINA BARROS DA SILVA VI          AVENIDA GETULIO N 0, LOTE 20 QUADRA 2016PARQUE ESTOR26062570NOVA IGUACU    RJUNIAO UMB DOS CULTOS AFRO BRAS    30051910 000088
10231987175000168916200163100    000041720                    000417200000000000000109                     I0141720     30051900000000040003410000017N130319104700000000000103005190000000000000000000000000000000000000000100044351429704VANIA MARIA SIMOES DA SILVA             RUA SAO CRISTOVAON 193,                 KM 32 - PARQ26355120NOVA IGUACU    RJUNIAO UMB DOS CULTOS AFRO BRAS    30051910 000089
10231987175000168916200163100    000041719                    000417190000000000000109                     I0141719     30051900000000040003410000017N130319104700000000000103005190000000000000000000000000000000000000000100079042708700ANTONIO CARLOS DE MIRANDA PACH          RUA SOLDADO BRUNO ESTRIFICA N 107,      CURICICA - J22780600RIO DE JANEIRO RJUNIAO UMB DOS CULTOS AFRO BRAS    30051910 000090
10231987175000168916200163100    000041718                    000417180000000000000109                     I0141718     30051900000000040003410000017N130319104700000000000103005190000000000000000000000000000000000000000100054101778787ROSARIA MARIA DAS CHAGAS DA SI          RUA DA AERONAUTICAN 61,                 SENADOR CAMA21831410RIO DE JANEIRO RJUNIAO UMB DOS CULTOS AFRO BRAS    30051910 000091
10231987175000168916200163100    000041717                    000417170000000000000109                     I0141717     30051900000000040003410000017N130319104700000000000103005190000000000000000000000000000000000000000222566211000129CENTRO ESPIRITA DA VOVO MARIA           RUA JOSE MACHADON 55,                   IRAJA       21361360RIO DE JANEIRO RJUNIAO UMB DOS CULTOS AFRO BRAS    30051910 000092
10231987175000168916200163100    000041716                    000417160000000000000109                     I0141716     30051900000000040003410000017N130319104700000000000103005190000000000000000000000000000000000000000100002036570712ANDREIA SANTANNA DO NASCIMENTO          RUA ARARIBOIAN 0, LOTE 20 QUADRA 49     VILAR DOS TE25570190SAO JOAO DE MERRJUNIAO UMB DOS CULTOS AFRO BRAS    30051910 000093
10231987175000168916200163100    000041715                    000417150000000000000109                     I0141715     30051900000000040003410000017N130319104700000000000103005190000000000000000000000000000000000000000100000000000000MARIA DA PIEDADE SANTANA DOS S          RUA SERGIO JOAO PEREIRAN 365,           HELIOPOLIS  26123120BELFORD ROXO   RJUNIAO UMB DOS CULTOS AFRO BRAS    30051910 000094
10231987175000168916200163100    000041714                    000417140000000000000109                     I0141714     30051900000000040003410000017N130319104700000000000103005190000000000000000000000000000000000000000100076103137774VICENTE DE PAULA PEREIRA                RUA POTINGUARAN 253,                    BOA ESPERANC26113720BELFORD ROXO   RJUNIAO UMB DOS CULTOS AFRO BRAS    30051910 000095
10231987175000168916200163100    000041713                    000417130000000000000109                     I0141713     30051900000000040003410000017N130319104700000000000103005190000000000000000000000000000000000000000100010324446730DEBORA ANDRADE SILVA                    RUA ATALI AGUIAR N 12,                  TAQUARA - JA22720360RIO DE JANEIRO RJUNIAO UMB DOS CULTOS AFRO BRAS    30051910 000096
10231987175000168916200163100    000041712                    000417120000000000000109                     I0141712     30051900000000040003410000017N130319104700000000000103005190000000000000000000000000000000000000000100005556657718EDUARDO DE OLIVEIRA SILVA               RUA DELIO GUARANA N 0, LOTE 15          EDEN        25545100SAO JOAO DE MERRJUNIAO UMB DOS CULTOS AFRO BRAS    30051910 000097
10231987175000168916200163100    000041711                    000417110000000000000109                     I0141711     30051900000000040003410000017N130319104700000000000103005190000000000000000000000000000000000000000100062497073791SIDIRENE FRANCISCO MACHADO              RUA PALMEIRA DAS MISSOESN 422, FUNDOS   VILA SANTA R23015220CAMPO GRANDE   RJUNIAO UMB DOS CULTOS AFRO BRAS    30051910 000098
10231987175000168916200163100    000041710                    000417100000000000000109                     I0141710     30051900000000040003410000017N130319104700000000000103005190000000000000000000000000000000000000000100003250127760MARIA ZULEICA CRUZ DA SILVA             ESTRADA DOUTOR PLINIO CASADO N 2839,    PARQUE ROSAR26010421NOVA IGUACU    RJUNIAO UMB DOS CULTOS AFRO BRAS    30051910 000099
10231987175000168916200163100    000041709                    000417090000000000000109                     I0141709     30051900000000050003410000017N130319104700000000000103005190000000000000000000000000000000000000000100014708764774ADILSON CARNEIRO PINTO                  RUA JUREMA N 49,                        CAMPO GRANDE23035380RIO DE JANEIRO RJUNIAO UMB DOS CULTOS AFRO BRAS    30051910 000100
10231987175000168916200163100    000041708                    000417080000000000000109                     I0141708     30051900000000040003410000017N130319104700000000000103005190000000000000000000000000000000000000000100000000000790ANORELINA OLIVEIRA DOS SANTOS           RUA: MAUA N 27,  QUADRA 14              VILA SAO JOA25570151SAO JOAO DE MERRJUNIAO UMB DOS CULTOS AFRO BRAS    30051910 000101
10231987175000168916200163100    000041707                    000417070000000000000109                     I0141707     30051900000000040003410000017N130319104700000000000103005190000000000000000000000000000000000000000100009886046716ANA CRISTINA DE ALMEIDA TRINDA          RUA COTIJUBAN 156,                      ROCHA MIRAND21555020RIO DE JANEIRO RJUNIAO UMB DOS CULTOS AFRO BRAS    30051910 000102
10231987175000168916200163100    000041706                    000417060000000000000109                     I0141706     30051900000000025003410000017N130319104700000000000103005190000000000000000000000000000000000000000100051238489753NANCY DA SILVA APOLINARIO TEIX          RUA: VIDAL DE NEGREIROSN 110,           SANTO CRISTO20220770RIO DE JANEIRO RJUNIAO UMB DOS CULTOS AFRO BRAS    30051910 000103
10231987175000168916200163100    000041705                    000417050000000000000109                     I0141705     30051900000000040003410000017N130319104700000000000103005190000000000000000000000000000000000000000100063440512720SILVANA MANGIA DE SOUZA                 RUA ACANTO N 20,                        BANGU       21830080RIO DE JANEIRO RJUNIAO UMB DOS CULTOS AFRO BRAS    30051910 000104
10231987175000168916200163100    000041704                    000417040000000000000109                     I0141704     30051900000000040003410000017N130319104700000000000103005190000000000000000000000000000000000000000100007388880798ARLETE QUEIROZ GONCALVES                RUA: EMILIA FLORINDA RAMOS REIS N 13, CASAHY        23860000MANGARATIBA    RJUNIAO UMB DOS CULTOS AFRO BRAS    30051910 000105
10231987175000168916200163100    000041703                    000417030000000000000109                     I0141703     30051900000000040003410000017N130319104700000000000103005190000000000000000000000000000000000000000100063441314700AMARA DE CARVALHO DANIEL                RUA FREDERICO LEALN 146, CASA 2         BANGU       21825110RIO DE JANEIRO RJUNIAO UMB DOS CULTOS AFRO BRAS    30051910 000106
10231987175000168916200163100    000041702                    000417020000000000000109                     I0141702     30051900000000040003410000017N130319104700000000000103005190000000000000000000000000000000000000000100054329825791CATIA DE SOUZA DALTRO                   RUA: FREDERICO LIMA N 180,              MADUREIRA   21360280RIO DE JANEIRO RJUNIAO UMB DOS CULTOS AFRO BRAS    30051910 000107
10231987175000168916200163100    000041701                    000417010000000000000109                     I0141701     30051900000000040003410000017N130319104700000000000103005190000000000000000000000000000000000000000100088033945753JOSE RICARDO RIBEIRO DE AMORIM          RUA IGARATAN 994, CASA 1                MARECHAL HER21555250RIO DE JANEIRO RJUNIAO UMB DOS CULTOS AFRO BRAS    30051910 000108
10231987175000168916200163100    000041700                    000417000000000000000109                     I0141700     30051900000000040003410000017N130319104700000000000103005190000000000000000000000000000000000000000100072596317753CLAUDIA IVONE CAETANO DA SILVA          RUA NADIA MARIA DA SILVEIRA MENEZES N 0,VENDA VELHA 25580110SAO JOAO DE MERRJUNIAO UMB DOS CULTOS AFRO BRAS    30051910 000109
10231987175000168916200163100    000041699                    000416990000000000000109                     I0141699     30051900000000040003410000017N130319104700000000000103005190000000000000000000000000000000000000000100043397140706VERA LUCIA FERREIRA DA SILVA            RUA ALICE N 183,                        COMENDADOR S26262030NOVA IGUACU    RJUNIAO UMB DOS CULTOS AFRO BRAS    30051910 000110
10231987175000168916200163100    000041698                    000416980000000000000109                     I0141698     30051900000000040003410000017N130319104700000000000103005190000000000000000000000000000000000000000100001650613750ELIZABETH CRISTIN DOS S. B. DA          RUA: GONDIM DA FONSECAN 36, APTº 103   PORTUGUESA -21931575RIO DE JANEIRO RJUNIAO UMB DOS CULTOS AFRO BRAS    30051910 000111
10231987175000168916200163100    000041697                    000416970000000000000109                     I0141697     30051900000000040003410000017N130319104700000000000103005190000000000000000000000000000000000000000100089041950710ANA LUCIA GUIMARAES MOURA ALVE          RUA CARLOS ILIDRO N 189,                BANCARIOS - 21910160RIO DE JANEIRO RJUNIAO UMB DOS CULTOS AFRO BRAS    30051910 000112
10231987175000168916200163100    000041696                    000416960000000000000109                     I0141696     30051900000000040003410000017N130319104700000000000103005190000000000000000000000000000000000000000100001568681720MARCO ANTONIO DA COSTA                  RUA LOIR NOGUEIRAN 0, LOTE 10 QUADRA 11 RIO DO OURO 24752840SAO GONCALO    RJUNIAO UMB DOS CULTOS AFRO BRAS    30051910 000113
10231987175000168916200163100    000041695                    000416950000000000000109                     I0141695     30051900000000040003410000017N130319104700000000000103005190000000000000000000000000000000000000000100079558763772HUGO XAVIER                             AVENIDA: PRESIDENTE VARGASN 2007, APTº CENTRO      20210030RIO DE JANEIRO RJUNIAO UMB DOS CULTOS AFRO BRAS    30051910 000114
10231987175000168916200163100    000041694                    000416940000000000000109                     I0141694     30051900000000040003410000017N130319104700000000000103005190000000000000000000000000000000000000000100059463376704MARIA DA PENHA AZEVEDO SANTOS           RUA: ITABIRAN 784,                      VILA ITAMARA25070260DUQUE DE CAXIASRJUNIAO UMB DOS CULTOS AFRO BRAS    30051910 000115
10231987175000168916200163100    000041693                    000416930000000000000109                     I0141693     30051900000000040003410000017N130319104700000000000103005190000000000000000000000000000000000000000100095032061700CILEIA DA ROCHA PACHECO                 RUA DA FLORALIAN 14, FUNDOS             SANTA BARBAR24350000RIO DE JANEIRO RJUNIAO UMB DOS CULTOS AFRO BRAS    30051910 000116
10231987175000168916200163100    000041692                    000416920000000000000109                     I0141692     30051900000000040003410000017N130319104700000000000103005190000000000000000000000000000000000000000100073518573772MERCIA DO NASCIMENTO CAVALCANT          RUA BERNARDO MONTEIRON 0, LT 62 QD 151  JARDIM OLAVO25025320DUQUE DE CAXIASRJUNIAO UMB DOS CULTOS AFRO BRAS    30051910 000117
10231987175000168916200163100    000041691                    000416910000000000000109                     I0141691     30051900000000040003410000017N130319104700000000000103005190000000000000000000000000000000000000000100054222141704WALMIR CARVALHO GUIMARAES               RUA BOA VIAGEMN 186, CASA               IPIRANGA    26293591NOVA IGUACU    RJUNIAO UMB DOS CULTOS AFRO BRAS    30051910 000118
10231987175000168916200163100    000041690                    000416900000000000000109                     I0141690     30051900000000040003410000017N130319104700000000000103005190000000000000000000000000000000000000000100056864680797SONIA MARIA DA SILVA                    RUA AN 111, LOTEAMENTO SANTA MARIA      CAMBOTA     27600000VALENCIA       RJUNIAO UMB DOS CULTOS AFRO BRAS    30051910 000119
10231987175000168916200163100    000041689                    000416890000000000000109                     I0141689     30051900000000040003410000017N130319104700000000000103005190000000000000000000000000000000000000000100001478169710TANIA MARIA ALVES CANEJO                RUA JORGE LIMA N 425, APTº 105         JARDIM GUANA21940006RIO DE JANEIRO RJUNIAO UMB DOS CULTOS AFRO BRAS    30051910 000120
10231987175000168916200163100    000041688                    000416880000000000000109                     I0141688     30051900000000040003410000017N130319104700000000000103005190000000000000000000000000000000000000000100003537257732MARIA APARECIDA RISTICH MACHAD          RUA DIAS DA CRUZ N 923,                 MEIER       20720011RIO DE JANEIRO RJUNIAO UMB DOS CULTOS AFRO BRAS    30051910 000121
10231987175000168916200163100    000041687                    000416870000000000000109                     I0141687     30051900000000040003410000017N130319104700000000000103005190000000000000000000000000000000000000000100000330025767NUBIA VIRGINIA DE ANDRADE MAGA          RUA ADEMAR MOREIRA N 5,                 SANTA CRUZ  23573100RIO DE JANEIRO RJUNIAO UMB DOS CULTOS AFRO BRAS    30051910 000122
10231987175000168916200163100    000041686                    000416860000000000000109                     I0141686     30051900000000040003410000017N130319104700000000000103005190000000000000000000000000000000000000000100076896960744MARIA LUCIA DE OLIVEIRA NUNES           AVENIDA DO CORRETOR N 116,              VILA ALIANCA21842340RIO DE JANEIRO RJUNIAO UMB DOS CULTOS AFRO BRAS    30051910 000123
10231987175000168916200163100    000041685                    000416850000000000000109                     I0141685     30051900000000040003410000017N130319104700000000000103005190000000000000000000000000000000000000000100009408897730APARECIDA SILVA RIBEIRO                 RUA PEDRO TELLESN 566, CASA 4           CENTRO      25515003SAO JOAO DE MERRJUNIAO UMB DOS CULTOS AFRO BRAS    30051910 000124
10231987175000168916200163100    000041684                    000416840000000000000109                     I0141684     30051900000000040003410000017N130319104700000000000103005190000000000000000000000000000000000000000100087969998704ROBERTO LUIZ MEDEIROS                   RUA OLIMPION 0, LOTE 35 QUADRA 29       HELIOPOLIS  26125215BELFORD ROXO   RJUNIAO UMB DOS CULTOS AFRO BRAS    30051910 000125
10231987175000168916200163100    000041683                    000416830000000000000109                     I0141683     30051900000000040003410000017N130319104700000000000103005190000000000000000000000000000000000000000100000000000732MARIA DE LOURDES VIEIRA DA SIL          RUA: PEDRO FERREIRAN 0, LOTE 28 QUADRA 2JARDIM CATAR24715380SAO GONCALO    RJUNIAO UMB DOS CULTOS AFRO BRAS    30051910 000126
10231987175000168916200163100    000041682                    000416820000000000000109                     I0141682     30051900000000040003410000017N130319104700000000000103005190000000000000000000000000000000000000000100049175920700WANDA ALVES DE LIMA LEAL                RUA: PORTO RICO N 254,                  VIGARIO GERA21241200RIO DE JANEIRO RJUNIAO UMB DOS CULTOS AFRO BRAS    30051910 000127
10231987175000168916200163100    000041681                    000416810000000000000109                     I0141681     30051900000000040003410000017N130319104700000000000103005190000000000000000000000000000000000000000100064954528704CELIA REGINA DA SILVA                   RUA ARNALDO MENEZESN 0, QUADRA 6 LOTE 1 PARQUE BARRE25581250SAO JOAO DE MERRJUNIAO UMB DOS CULTOS AFRO BRAS    30051910 000128
10231987175000168916200163100    000041680                    000416800000000000000109                     I0141680     30051900000000040003410000017N130319104700000000000103005190000000000000000000000000000000000000000100003028407701MARIA MARINETE OLIVEIRA  DA SI          RUA TURIUVA N 0, LOTE 40 QUADRA 54      VILA MELIPOL26150000BELFORD ROXO   RJUNIAO UMB DOS CULTOS AFRO BRAS    30051910 000129
10231987175000168916200163100    000041679                    000416790000000000000109                     I0141679     30051900000000040003410000017N130319104700000000000103005190000000000000000000000000000000000000000100003351761783CLAUDIA LUZIA PEREIRA                   RUA HOMERO SOBRINHO N 0, LOTE 12 QUADRA JARDIM NOVA 26187495BELFORD ROXO   RJUNIAO UMB DOS CULTOS AFRO BRAS    30051910 000130
10231987175000168916200163100    000041678                    000416780000000000000109                     I0141678     30051900000000040003410000017N130319104700000000000103005190000000000000000000000000000000000000000207788536000162ILE ASE OSAGUIAN - INSTITUICAO          RUA JURANDIR LIMAN 40,                  SANTA RITA -26051040NOVA IGUACU    RJUNIAO UMB DOS CULTOS AFRO BRAS    30051910 000131
10231987175000168916200163100    000041677                    000416770000000000000109                     I0141677     30051900000000040003410000017N130319104700000000000103005190000000000000000000000000000000000000000100001411697707FERNANDO CRUZ DE OLIVEIRA               RUA ARACI COSTAN 328,                   ROCHA MIRAND21510200RIO DE JANEIRO RJUNIAO UMB DOS CULTOS AFRO BRAS    30051910 000132
10231987175000168916200163100    000041676                    000416760000000000000109                     I0141676     30051900000000040003410000017N130319104700000000000103005190000000000000000000000000000000000000000100048512630744CARLOS MURILO CARDOSO DE CARVA          RUA MAJOR RUBENS VAZ N 38,              TIRADENTES -24732110SAO GONCALO    RJUNIAO UMB DOS CULTOS AFRO BRAS    30051910 000133
10231987175000168916200163100    000041675                    000416750000000000000109                     I0141675     30051900000000040003410000017N130319104700000000000103005190000000000000000000000000000000000000000100055177182720VALNEI FERNANDES DA SILVA               RUA DOUTOR JOSE MANOELN 262,            SANTA CATARI24420070SAO GONCALO    RJUNIAO UMB DOS CULTOS AFRO BRAS    30051910 000134
10231987175000168916200163100    000041674                    000416740000000000000109                     I0141674     30051900000000040003410000017N130319104700000000000103005190000000000000000000000000000000000000000100007062360767IVONETE GOMES DOS SANTOS                RUA SOARES TAVARESN 555,                GRADIM      24431310SAO GONCALO    RJUNIAO UMB DOS CULTOS AFRO BRAS    30051910 000135
10231987175000168916200163100    000041673                    000416730000000000000109                     I0141673     30051900000000040003410000017N130319104700000000000103005190000000000000000000000000000000000000000100000475441710KASSIA DAMAZIO SOBRINHO                 RUA OPNIAO LIBERAN 27,                  JACAREPAGUA 22715130RIO DE JANEIRO RJUNIAO UMB DOS CULTOS AFRO BRAS    30051910 000136
10231987175000168916200163100    000041672                    000416720000000000000109                     I0141672     30051900000000040003410000017N130319104700000000000103005190000000000000000000000000000000000000000100000000000000GILBERTO DA SILVA BORBA                 RUA PROFESSOR JOAO RIBEIRO FILHON 570,  ROCHA SOBRIN26232310RIO DE JANEIRO RJUNIAO UMB DOS CULTOS AFRO BRAS    30051910 000137
10231987175000168916200163100    000041671                    000416710000000000000109                     I0141671     30051900000000040003410000017N130319104700000000000103005190000000000000000000000000000000000000000100000000000000JOSE ROMERO LEITE MARTINS               RUA ALCOBACAN 1345, CASA 1              ANCHIETA    21645001RIO DE JANEIRO RJUNIAO UMB DOS CULTOS AFRO BRAS    30051910 000138
10231987175000168916200163100    000041670                    000416700000000000000109                     I0141670     30051900000000040003410000017N130319104700000000000103005190000000000000000000000000000000000000000100008005327757MARIA LUIZA ALVES DA MATA               RUA NESTORN 796, CASA 8                 SANTA CRUZ  23515680RIO DE JANEIRO RJUNIAO UMB DOS CULTOS AFRO BRAS    30051910 000139
10231987175000168916200163100    000041669                    000416690000000000000109                     I0141669     30051900000000040003410000017N130319104700000000000103005190000000000000000000000000000000000000000100000000000000VANIA MEDEIROS COUTINHO                 RUA TEREZAN 0, LOTE 4 QUADRA 4          PARQUE SUECI25245470BELFORD ROXO   RJUNIAO UMB DOS CULTOS AFRO BRAS    30051910 000140
10231987175000168916200163100    000041668                    000416680000000000000109                     I0141668     30051900000000040003410000017N130319104700000000000103005190000000000000000000000000000000000000000100026603748720MARIA DA PENHA ANASTACIA DE OL          RUA MARATUBAN 6, FUNDOS                 RICARDO DE A21620430RIO DE JANEIRO RJUNIAO UMB DOS CULTOS AFRO BRAS    30051910 000141
10231987175000168916200163100    000041667                    000416670000000000000109                     I0141667     30051900000000040003410000017N130319104700000000000103005190000000000000000000000000000000000000000100000000000000DAVID MOREIRA DE MENDONCA               RUA GENERAL RENATO PIQUETN 0, LOTE 27 QUVILA PARAISO23825460ITAGUAI        RJUNIAO UMB DOS CULTOS AFRO BRAS    30051910 000142
10231987175000168916200163100    000041666                    000416660000000000000109                     I0141666     30051900000000040003410000017N130319104700000000000103005190000000000000000000000000000000000000000100069085986753CARMEM PIRES DE SOUZA                   RUA PRAIA DE BOTAFOGON 460, APT 1138    BOTOFAGO    22250040RIO DE JANEIRO RJUNIAO UMB DOS CULTOS AFRO BRAS    30051910 000143
10231987175000168916200163100    000041665                    000416650000000000000109                     I0141665     30051900000000040003410000017N130319104700000000000103005190000000000000000000000000000000000000000100084964910725LIA MARIA DA SILVA                      RUA LUIZ QUEIROZ DE NOGUEIRAN 0,  LOTE 2COLUBANDE   24744020SAO GONCALO    RJUNIAO UMB DOS CULTOS AFRO BRAS    30051910 000144
10231987175000168916200163100    000041664                    000416640000000000000109                     I0141664     30051900000000040003410000017N130319104700000000000103005190000000000000000000000000000000000000000100019685726787ADELMIR HAMELIN SODRE                   RUA JOAQUIM DE SOUSAN 311, FUNDOS       ROCHA MIRAND21540370RIO DE JANEIRO RJUNIAO UMB DOS CULTOS AFRO BRAS    30051910 000145
10231987175000168916200163100    000041663                    000416630000000000000109                     I0141663     30051900000000040003410000017N130319104700000000000103005190000000000000000000000000000000000000000224860815000109CENTRO AFRO BRASILEIRO CABOCLO          RUA CERESN 603,                         BANGU       21862070RIO DE JANEIRO RJUNIAO UMB DOS CULTOS AFRO BRAS    30051910 000146
10231987175000168916200163100    000041662                    000416620000000000000109                     I0141662     30051900000000040003410000017N130319104700000000000103005190000000000000000000000000000000000000000100061991465734JANDIRA AMELIA PAULA DE OLIVEI          RUA SALVADOR DO MONTEN 487, ANTIGA RUA OBOACU       24467300SAO GONCALO    RJUNIAO UMB DOS CULTOS AFRO BRAS    30051910 000147
10231987175000168916200163100    000041661                    000416610000000000000109                     I0141661     30051900000000040003410000017N130319104700000000000103005190000000000000000000000000000000000000000218374653000104ASSOCIACAO INZO NKOSI                   RUA: MARQUES CANARION 725,              NOSSA SENHOR26520770NILOPOLIS      RJUNIAO UMB DOS CULTOS AFRO BRAS    30051910 000148
10231987175000168916200163100    000041660                    000416600000000000000109                     I0141660     30051900000000040003410000017N130319104700000000000103005190000000000000000000000000000000000000000100044188269715SEBASTIANA SOUZA SANTOS                 RUA ARI BARROSON 193,                   SANTA RITA  26050410NOVA IGUACU    RJUNIAO UMB DOS CULTOS AFRO BRAS    30051910 000149
10231987175000168916200163100    000041659                    000416590000000000000109                     I0141659     30051900000000040003410000017N130319104700000000000103005190000000000000000000000000000000000000000100092631100778LECY PEREIRA CARDOSO                    ESTRADA: DO CARRO QUEBRADON 639, CASA 1 FIGUEIRAS   26051740NOVA IGUACU    RJUNIAO UMB DOS CULTOS AFRO BRAS    30051910 000150
10231987175000168916200163100    000041658                    000416580000000000000109                     I0141658     30051900000000040003410000017N130319104700000000000103005190000000000000000000000000000000000000000100018801293704NORMA RAMOS VIANNA                      AVENIDA PERNAMBUCANAN 1680,             VILA ROSALI 25510430SAO JOAO DE MERRJUNIAO UMB DOS CULTOS AFRO BRAS    30051910 000151
10231987175000168916200163100    000041657                    000416570000000000000109                     I0141657     30051900000000040003410000017N130319104700000000000103005190000000000000000000000000000000000000000100082347301772MARISTELA TORQUATO SILVA BRITT          RUA JOAO DA MATA PEIXOTO N 430,         CENTRO      26535340NILOPOLIS      RJUNIAO UMB DOS CULTOS AFRO BRAS    30051910 000152
10231987175000168916200163100    000041656                    000416560000000000000109                     I0141656     30051900000000040003410000017N130319104700000000000103005190000000000000000000000000000000000000000100000000000224FAUSTO IACOVELLI                        RUA: SAO JOAON 0, LOTE 15 QUADRA 29 - KMPARQUE SAO F26369160NOVA IGUACU    RJUNIAO UMB DOS CULTOS AFRO BRAS    30051910 000153
10231987175000168916200163100    000041655                    000416550000000000000109                     I0141655     30051900000000040003410000017N130319104700000000000103005190000000000000000000000000000000000000000100096143967768MARIA CANDIDA BRANDAO ALVES             RUA MARLICE EMANUELN 155,               JARDIM ALVOR26265230NOVA IGUACU    RJUNIAO UMB DOS CULTOS AFRO BRAS    30051910 000154
10231987175000168916200163100    000041654                    000416540000000000000109                     I0141654     30051900000000040003410000017N130319104700000000000103005190000000000000000000000000000000000000000100000000019700FATIMA APARECIDA AZEVEDO DE AL          RUA: VICENTE DE CARVALHO N 123,         BELFORD ROXO26165420RIO DE JANEIRO RJUNIAO UMB DOS CULTOS AFRO BRAS    30051910 000155
10231987175000168916200163100    000041653                    000416530000000000000109                     I0141653     30051900000000040003410000017N130319104700000000000103005190000000000000000000000000000000000000000100031471811700GLORIA CORREIA                          RUA SA FERREIRAN 120, APT 1003          COPACABANA  22071101RIO DE JANEIRO RJUNIAO UMB DOS CULTOS AFRO BRAS    30051910 000156
10231987175000168916200163100    000041652                    000416520000000000000109                     I0141652     30051900000000040003410000017N130319104700000000000103005190000000000000000000000000000000000000000100001272334740VALERIA MARIA MOREIRA                   RUA EUDINO EGGERN 70,                   JARDIM CATAR24717015SAO GONCALO    RJUNIAO UMB DOS CULTOS AFRO BRAS    30051910 000157
10231987175000168916200163100    000041651                    000416510000000000000109                     I0141651     30051900000000040003410000017N130319104700000000000103005190000000000000000000000000000000000000000100097512770782DULCINEIA CAPUTE                        AVENIDA ITAGUAI N 848, A                ENGENHO     23820306ITAGUAI        RJUNIAO UMB DOS CULTOS AFRO BRAS    30051910 000158
10231987175000168916200163100    000041650                    000416500000000000000109                     I0141650     30051900000000040003410000017N130319104700000000000103005190000000000000000000000000000000000000000100000237914387JOSE EDILSON RABELO CAULA               RUA DOS INVALIDOSN 138, BLOCO 2 APTº 90LAPA        20231046RIO DE JANEIRO RJUNIAO UMB DOS CULTOS AFRO BRAS    30051910 000159
10231987175000168916200163100    000041649                    000416490000000000000109                     I0141649     30051900000000040003410000017N130319104700000000000103005190000000000000000000000000000000000000000100006980782762ALEX SANDRO INACIO DO NASCIMEN          TRAVESSA SAO TIAGO N 0, LOTE 17 QUADRA 3PARQUE SAO F26298686NOVA IGUACU    RJUNIAO UMB DOS CULTOS AFRO BRAS    30051910 000160
10231987175000168916200163100    000041648                    000416480000000000000109                     I0141648     30051900000000040003410000017N130319104700000000000103005190000000000000000000000000000000000000000100045471240782MARIA HELENA DE SOUZA FREITAS           ESTRADA BELFORD ROXO N 0, LOTE 27 QUADRABOM PASTOR  26131970BELFORD ROXO   RJUNIAO UMB DOS CULTOS AFRO BRAS    30051910 000161
10231987175000168916200163100    000041647                    000416470000000000000109                     I0141647     30051900000000040003410000017N130319104700000000000103005190000000000000000000000000000000000000000100044029640753CREMILDA CONCEICAO LOPES                RUA MARQUES DE ARACATUN 116,            IRAJA       21235250RIO DE JANEIRO RJUNIAO UMB DOS CULTOS AFRO BRAS    30051910 000162
10231987175000168916200163100    000041646                    000416460000000000000109                     I0141646     30051900000000040003410000017N130319104700000000000103005190000000000000000000000000000000000000000100000120098733MARIA APARECIDA SOUZA DA SILVA          RUA OURO BRANCON 424, LOTE 3 QUADRA B   PRAIA DE MAU25930000MAGE           RJUNIAO UMB DOS CULTOS AFRO BRAS    30051910 000163
10231987175000168916200163100    000041645                    000416450000000000000109                     I0141645     30051900000000040003410000017N130319104700000000000103005190000000000000000000000000000000000000000100048123765720JUANJARA HENRIQUE DOS SANTOS            AVENIDA: CHOPIN N 75, A                 JARDIM GRAMA25050580DUQUE DE CAXIASRJUNIAO UMB DOS CULTOS AFRO BRAS    30051910 000164
10231987175000168916200163100    000041644                    000416440000000000000109                     I0141644     30051900000000040003410000017N130319104700000000000103005190000000000000000000000000000000000000000100000000000686HILDA REGINA NICANOR DOS SANTO          RUA PASSO FUNDO - KM 35N 100, BOM JESUS JARDIM GUAND26298189NOVA IGUACU    RJUNIAO UMB DOS CULTOS AFRO BRAS    30051910 000165
10231987175000168916200163100    000041643                    000416430000000000000109                     I0141643     30051900000000040003410000017N130319104700000000000103005190000000000000000000000000000000000000000100007120562703JANETE RIBEIRO DE ALMEIDA               RUA MARIA TEREZA N 90,                  CABUCU      26347030NOVA IGUACU    RJUNIAO UMB DOS CULTOS AFRO BRAS    30051910 000166
10231987175000168916200163100    000041642                    000416420000000000000109                     I0141642     30051900000000040003410000017N130319104700000000000103005190000000000000000000000000000000000000000100050995510768MARIA DAS GRACAS DE ANDRADE             RUA CARUARU N 22,                       OLINDA      26515390NILOPOLIS      RJUNIAO UMB DOS CULTOS AFRO BRAS    30051910 000167
10231987175000168916200163100    000041641                    000416410000000000000109                     I0141641     30051900000000040003410000017N130319104700000000000103005190000000000000000000000000000000000000000100003026317713RITA DE CASSIA VIEIRA SIMOES F          RUA CABO SAULO DE VASCONCELOS N 120,  LOJARDIM PALMA23510001RIO DE JANEIRO RJUNIAO UMB DOS CULTOS AFRO BRAS    30051910 000168
10231987175000168916200163100    000041640                    000416400000000000000109                     I0141640     30051900000000040003410000017N130319104700000000000103005190000000000000000000000000000000000000000100070421064749HELOIZA HELENA COSTA LIMA               RUA ALCINDO RAFAELN 148, MORRO AGUDO    ITAMARATI   26262060NOVA IGUACU    RJUNIAO UMB DOS CULTOS AFRO BRAS    30051910 000169
10231987175000168916200163100    000041639                    000416390000000000000109                     I0141639     30051900000000040003410000017N130319104700000000000103005190000000000000000000000000000000000000000100003306466727ANDRE LUIS BARROS SCHMITZ               RUA: CARMELITA DOS ANJOS N 20,          VILA ISABEL 25811091TRES RIOS      RJUNIAO UMB DOS CULTOS AFRO BRAS    30051910 000170
10231987175000168916200163100    000041638                    000416380000000000000109                     I0141638     30051900000000040003410000017N130319104700000000000103005190000000000000000000000000000000000000000100000000000682MANOELINA DE PAULA SILVA                TRAVESSA FRANCISCO COUTO N 136,         VILA ISABEL 25811080TRES RIOS      RJUNIAO UMB DOS CULTOS AFRO BRAS    30051910 000171
10231987175000168916200163100    000041637                    000416370000000000000109                     I0141637     30051900000000040003410000017N130319104700000000000103005190000000000000000000000000000000000000000100001045146714ELIANE RIBEIRO MACEDO                   RUA SANTA GLICERIA N 1,                 PADRE MIGUEL21725320RIO DE JANEIRO RJUNIAO UMB DOS CULTOS AFRO BRAS    30051910 000172
10231987175000168916200163100    000041636                    000416360000000000000109                     I0141636     30051900000000040003410000017N130319104700000000000103005190000000000000000000000000000000000000000100051398060704ELIZABETH MONTEIRO MOREIRA DA           RUA IBITINGAN 0, LOTE 1 QUADRA 3        PARQUE SAO B26167160BELFORD ROXO   RJUNIAO UMB DOS CULTOS AFRO BRAS    30051910 000173
10231987175000168916200163100    000041635                    000416350000000000000109                     I0141635     30051900000000040003410000017N130319104700000000000103005190000000000000000000000000000000000000000100081994699787MARCIA HELENA CORREIA DE LIMA           RUA FRANCISCO ALENCARN 37,              SEPETIBA    23530540RIO DE JANEIRO RJUNIAO UMB DOS CULTOS AFRO BRAS    30051910 000174
10231987175000168916200163100    000041634                    000416340000000000000109                     I0141634     30051900000000040003410000017N130319104700000000000103005190000000000000000000000000000000000000000100050982907753HILDETE SACRAMENTO BISPO                RUA: ITAMBARACAN 0, LOTE 31 QUADRA 136  CAMPO GRANDE23060070RIO DE JANEIRO RJUNIAO UMB DOS CULTOS AFRO BRAS    30051910 000175
10231987175000168916200163100    000041633                    000416330000000000000109                     I0141633     30051900000000040003410000017N130319104700000000000103005190000000000000000000000000000000000000000100095274987753PAULO SERGIO BARBOSA DA CUNHA           RUA IPIUNAN 16,                         JARDIM BANGU21866030RIO DE JANEIRO RJUNIAO UMB DOS CULTOS AFRO BRAS    30051910 000176
10231987175000168916200163100    000041632                    000416320000000000000109                     I0141632     30051900000000040003410000017N130319104700000000000103005190000000000000000000000000000000000000000100084244224734JORGE MARCELO TINTEL                    RUA ANTONIO BRAGA FILHO N 160,          SEPETIBA    23530220RIO DE JANEIRO RJUNIAO UMB DOS CULTOS AFRO BRAS    30051910 000177
10231987175000168916200163100    000041631                    000416310000000000000109                     I0141631     30051900000000040003410000017N130319104700000000000103005190000000000000000000000000000000000000000100059177608704SONIA MARIA DOS REMEDIOS                RUA SAO LUIZN 11, CASA 2 - CANAL DO LEITPRAIA DO SAC23860000MANGARATIBA    RJUNIAO UMB DOS CULTOS AFRO BRAS    30051910 000178
10231987175000168916200163100    000041630                    000416300000000000000109                     I0141630     30051900000000040003410000017N130319104700000000000103005190000000000000000000000000000000000000000100080887376720JULIA MARIA DA CONCEICAO                RUA ELIZETE DA SILVA TARGINO N 0, LOTE 6BRISAMAR    23823290ITAGUAI        RJUNIAO UMB DOS CULTOS AFRO BRAS    30051910 000179
10231987175000168916200163100    000041629                    000416290000000000000109                     I0141629     30051900000000040003410000017N130319104700000000000103005190000000000000000000000000000000000000000100077688406749ROSA MARIA PINHEIRO                     RUA K  N 0, LOTE 6 E 7 QUADRA 12        BRISAMAR    23826230ITAGUAI        RJUNIAO UMB DOS CULTOS AFRO BRAS    30051910 000180
10231987175000168916200163100    000041628                    000416280000000000000109                     I0141628     30051900000000040003410000017N130319104700000000000103005190000000000000000000000000000000000000000100000000000658MARIA JOSE PACHECO DO AMPARO            RUA SILVINO PINTON 0, TRAVESSA 3 CASA 2 SAPE        24315600NITEROI        RJUNIAO UMB DOS CULTOS AFRO BRAS    30051910 000181
10231987175000168916200163100    000041627                    000416270000000000000109                     I0141627     30051900000000040003410000017N130319104700000000000103005190000000000000000000000000000000000000000100083326952791JOSELITA BATISTA DE OLIVEIRA            RUA: ELIZETE DA SILVA TAGINO N 14, QUADRBRISAMAR    23823290ITAGUAI        RJUNIAO UMB DOS CULTOS AFRO BRAS    30051910 000182
10231987175000168916200163100    000041626                    000416260000000000000109                     I0141626     30051900000000040003410000017N130319104700000000000103005190000000000000000000000000000000000000000100044451318734NILZA MUNIZ FIRMINO                     RUA PEDRO AMERICO N 0, LOTE 25 QUADRA 10COLUBANDE   24450480SAO GONCALO    RJUNIAO UMB DOS CULTOS AFRO BRAS    30051910 000183
10231987175000168916200163100    000041625                    000416250000000000000109                     I0141625     30051900000000040003410000017N130319104700000000000103005190000000000000000000000000000000000000000100000000000656GINO ZACARIAS DE JESUS                  RUA NOVEN 2, VILA GENI                  VILA GENI   23830010ITAGUAI        RJUNIAO UMB DOS CULTOS AFRO BRAS    30051910 000184
10231987175000168916200163100    000041624                    000416240000000000000109                     I0141624     30051900000000040003410000017N130319104700000000000103005190000000000000000000000000000000000000000100041602790744PAULO LEANDRO FONTES                    RUA SANTA LUZIA N 208,                  SANTA CRUZ  27288490VOLTA REDONDA  RJUNIAO UMB DOS CULTOS AFRO BRAS    30051910 000185
10231987175000168916200163100    000041623                    000416230000000000000109                     I0141623     30051900000000040003410000017N130319104700000000000103005190000000000000000000000000000000000000000100068331428749IVANILDA DOS SANTOS                     RUA RIBEIRAO DO SUL N 0, LOTE 7 QUADRA 2GUARATIBA   23026590RIO DE JANEIRO RJUNIAO UMB DOS CULTOS AFRO BRAS    30051910 000186
10231987175000168916200163100    000041622                    000416220000000000000109                     I0141622     30051900000000040003410000017N130319104700000000000103005190000000000000000000000000000000000000000100055055753749MARIA LUCIA BENJAMIN DE FREITA          RUA GONZAGA BASTOS N 209, BLOCO B APT 50TIJUCA      20541000RIO DE JANEIRO RJUNIAO UMB DOS CULTOS AFRO BRAS    30051910 000187
10231987175000168916200163100    000041621                    000416210000000000000109                     I0141621     30051900000000040003410000017N130319104700000000000103005190000000000000000000000000000000000000000100069381933715NEUSA CAMPOS BRITO PINTO                RUA XAVIER PINHEIRON 525,               VIGARIO GERA21241320RIO DE JANEIRO RJUNIAO UMB DOS CULTOS AFRO BRAS    30051910 000188
10231987175000168916200163100    000041620                    000416200000000000000109                     I0141620     30051900000000040003410000017N130319104700000000000103005190000000000000000000000000000000000000000100092053050730SONIA MARIA RODRIGUES LONTRA M          TRAVESSA TITO RABELO N 120,             CAMPO GRANDE23017245RIO DE JANEIRO RJUNIAO UMB DOS CULTOS AFRO BRAS    30051910 000189
10231987175000168916200163100    000041619                    000416190000000000000109                     I0141619     30051900000000040003410000017N130319104700000000000103005190000000000000000000000000000000000000000100037345095720VERA LUCIA DA CRUZ NEVES                RUA RODRIGUES CAMPELO  N 54,            CAMPO GRANDE23017210RIO DE JANEIRO RJUNIAO UMB DOS CULTOS AFRO BRAS    30051910 000190
10231987175000168916200163100    000041618                    000416180000000000000109                     I0141618     30051900000000040003410000017N130319104700000000000103005190000000000000000000000000000000000000000100085789569749VALMIR DE SOUZA RIBEIRO                 RUA NEPOMUCENO N 378,                   REALENGO    21715080RIO DE JANEIRO RJUNIAO UMB DOS CULTOS AFRO BRAS    30051910 000191
10231987175000168916200163100    000041617                    000416170000000000000109                     I0141617     30051900000000040003410000017N130319104700000000000103005190000000000000000000000000000000000000000100060818751720LUIZ CARLOS AMATE                       RUA ITABIRAN 343,                       BRAZ DE PINA21215310RIO DE JANEIRO RJUNIAO UMB DOS CULTOS AFRO BRAS    30051910 000192
10231987175000168916200163100    000041616                    000416160000000000000109                     I0141616     30051900000000040003410000017N130319104700000000000103005190000000000000000000000000000000000000000100064392791734ORDALINA PEDROZO TOMAZ DE AQUI          RUA ABEL DE ALVARENGA N 210,            CHATUBA     26246340MESQUITA       RJUNIAO UMB DOS CULTOS AFRO BRAS    30051910 000193
10231987175000168916200163100    000041615                    000416150000000000000109                     I0141615     30051900000000040003410000017N130319104700000000000103005190000000000000000000000000000000000000000100003350383793RITA DE CASSIA MOREIRA DA SILV          RUA ALBERTO TEIXEIRA DA CUNHA N 1160, CACENTRO      26520110NILOPOLIS      RJUNIAO UMB DOS CULTOS AFRO BRAS    30051910 000194
10231987175000168916200163100    000041614                    000416140000000000000109                     I0141614     30051900000000040003410000017N130319104700000000000103005190000000000000000000000000000000000000000100001796220728MARIA ROSA ALVES DA SILVA               RUA DOUTOR ARRUDA NEGREIRO N 100,       PARQUE SENHO25025325DUQUE DE CAXIASRJUNIAO UMB DOS CULTOS AFRO BRAS    30051910 000195
10231987175000168916200163100    000041613                    000416130000000000000109                     I0141613     30051900000000040003410000017N130319104700000000000103005190000000000000000000000000000000000000000100071411780744ZULTAMAR MESQUITA DE ALMEIDA            RUA  CORONEL JOSE MUNIZ      N 554,     OLINDA      26545060NILOPOLIS      RJUNIAO UMB DOS CULTOS AFRO BRAS    30051910 000196
10231987175000168916200163100    000041612                    000416120000000000000109                     I0141612     30051900000000040003410000017N130319104700000000000103005190000000000000000000000000000000000000000100063520788772JOSE DOMINGOS VICTORINO DE SOU          RUA: ITAGUAIN 306, FUNDOS - JARDIM CARIOILHA DO GOVE21921420RIO DE JANEIRO RJUNIAO UMB DOS CULTOS AFRO BRAS    30051910 000197
10231987175000168916200163100    000041611                    000416110000000000000109                     I0141611     30051900000000040003410000017N130319104700000000000103005190000000000000000000000000000000000000000100090693043768REJANE VIEIRA GOMES                     RUA TAPIRANGAN 0, LOTE 3 AO LADO DO 371 PADRE MIGUEL21775470RIO DE JANEIRO RJUNIAO UMB DOS CULTOS AFRO BRAS    30051910 000198
10231987175000168916200163100    000041610                    000416100000000000000109                     I0141610     30051900000000040003410000017N130319104700000000000103005190000000000000000000000000000000000000000100000000000000ANA MARIA DIAS GOMES                    RUA JOAQUIM MURTINHO N 504,             BANANEIRAS  28970000ARARUAMA       RJUNIAO UMB DOS CULTOS AFRO BRAS    30051910 000199
10231987175000168916200163100    000041609                    000416090000000000000109                     I0141609     30051900000000040003410000017N130319104700000000000103005190000000000000000000000000000000000000000100001015032702GABRIEL MENEZES                         RUA DA PAZN 2,                          PARQUE VALE 28940000SAO PEDRO DA ALRJUNIAO UMB DOS CULTOS AFRO BRAS    30051910 000200
10231987175000168916200163100    000041608                    000416080000000000000109                     I0141608     30051900000000040003410000017N130319104700000000000103005190000000000000000000000000000000000000000100030341108715SUELENA DA SILVA MARTINS                RUA PAULO DE AQUINO N 27,               ANCHIETA    21645500RIO DE JANEIRO RJUNIAO UMB DOS CULTOS AFRO BRAS    30051910 000201
10231987175000168916200163100    000041607                    000416070000000000000109                     I0141607     30051900000000040003410000017N130319104700000000000103005190000000000000000000000000000000000000000100059135085720CELIA MARINHO VIEIRA                    RUA LOURIVAL ABREU SILVAN 565,          SULACAP     21745760RIO DE JANEIRO RJUNIAO UMB DOS CULTOS AFRO BRAS    30051910 000202
10231987175000168916200163100    000041606                    000416060000000000000109                     I0141606     30051900000000040003410000017N130319104700000000000103005190000000000000000000000000000000000000000220237404000100TENDA DOS ORIXAS                        RUA JOSE MARIOZZI FILHON 990,           PRAIA DA BRI23028400RIO DE JANEIRO RJUNIAO UMB DOS CULTOS AFRO BRAS    30051910 000203
10231987175000168916200163100    000041605                    000416050000000000000109                     I0141605     30051900000000040003410000017N130319104700000000000103005190000000000000000000000000000000000000000100004768933726MARIA DE FATIMA DE CARVALHO             RUA CLEBERN 113,                        SEPETIBA    23530190RIO DE JANEIRO RJUNIAO UMB DOS CULTOS AFRO BRAS    30051910 000204
10231987175000168916200163100    000041604                    000416040000000000000109                     I0141604     30051900000000040003410000017N130319104700000000000103005190000000000000000000000000000000000000000100075300931772ALTAIR DE SOUZA COSTA                   RUA SETE DE SETEMBRON 0, LOTE 15 QUADRA CABUCU      26293486NOVA IGUACU    RJUNIAO UMB DOS CULTOS AFRO BRAS    30051910 000205
10231987175000168916200163100    000041603                    000416030000000000000109                     I0141603     30051900000000040003410000017N130319104700000000000103005190000000000000000000000000000000000000000100010120070731GABRIEL LAERTE DA SILVA                 ESTRADA DE MADUREIRAN 2025,             MARIPICU    26365220NOVA IGUACU    RJUNIAO UMB DOS CULTOS AFRO BRAS    30051910 000206
10231987175000168916200163100    000041602                    000416020000000000000109                     I0141602     30051900000000040003410000017N130319104700000000000103005190000000000000000000000000000000000000000100043082033768LEILA RAMOS DE OLIVEIRA                 RUA CAPIBARIBE N 361,                   CABUCU      26346290NOVA IGUACU    RJUNIAO UMB DOS CULTOS AFRO BRAS    30051910 000207
10231987175000168916200163100    000041601                    000416010000000000000109                     I0141601     30051900000000040003410000017N130319104700000000000103005190000000000000000000000000000000000000000100086990810734ROGY CARLOS OLIVEIRA MELLO              RUA: BORDA DO MATO N 433,               GRAJAU      20561200RIO DE JANEIRO RJUNIAO UMB DOS CULTOS AFRO BRAS    30051910 000208
10231987175000168916200163100    000041600                    000416000000000000000109                     I0141600     30051900000000040003410000017N130319104700000000000103005190000000000000000000000000000000000000000100000000000000UBIRACIRA MACHADO JANUARIO TEI          RUA SAO MARCIANON 59,                   VILA VALQUEI21321260RIO DE JANEIRO RJUNIAO UMB DOS CULTOS AFRO BRAS    30051910 000209
10231987175000168916200163100    000041599                    000415990000000000000109                     I0141599     30051900000000040003410000017N130319104700000000000103005190000000000000000000000000000000000000000100054571715749VILMA OLIVEIRA DOS SANTOS               RUA CORREIA DIAS N 1066,                VIGARIO GERA21241310RIO DE JANEIRO RJUNIAO UMB DOS CULTOS AFRO BRAS    30051910 000210
10231987175000168916200163100    000041598                    000415980000000000000109                     I0141598     30051900000000040003410000017N130319104700000000000103005190000000000000000000000000000000000000000100066198402720JORGE LUCIO                             AVENIDA DOS ITALIANOS N 936, BLOCO A   AROCHA MIRAND21510104RIO DE JANEIRO RJUNIAO UMB DOS CULTOS AFRO BRAS    30051910 000211
10231987175000168916200163100    000041597                    000415970000000000000109                     I0141597     30051900000000040003410000017N130319104700000000000103005190000000000000000000000000000000000000000100039305635768ENIR DE OLIVEIRA                        RUA: EUGENIO FERREIRAN 198,             COMENDADOR S26276580NOVA IGUACU    RJUNIAO UMB DOS CULTOS AFRO BRAS    30051910 000212
10231987175000168916200163100    000041596                    000415960000000000000109                     I0141596     30051900000000040003410000017N130319104700000000000103005190000000000000000000000000000000000000000100006923081726ZELINA MARIA DOS SANTOS                 RUA  TIBET N 0, LT 8 QD 23              JARDIM MERIT25555600SAO JOAO DE MERRJUNIAO UMB DOS CULTOS AFRO BRAS    30051910 000213
10231987175000168916200163100    000041595                    000415950000000000000109                     I0141595     30051900000000040003410000017N130319104700000000000103005190000000000000000000000000000000000000000100000000000000SOLANGE DOS SANTOS SILVA                RUA QUATORZEN 0, LOTE 35 CASA 131 - ARAUCAMPO GRANDE23090370RIO DE JANEIRO RJUNIAO UMB DOS CULTOS AFRO BRAS    30051910 000214
10231987175000168916200163100    000041594                    000415940000000000000109                     I0141594     30051900000000040003410000017N130319104700000000000103005190000000000000000000000000000000000000000100044091567720LUCIA HELENA DOS PASSOS                 RUA ADOLFO BERGAMINI  N 0, LOTE 11 QD 12VILA SANTO A25040310DUQUE DE CAXIASRJUNIAO UMB DOS CULTOS AFRO BRAS    30051910 000215
10231987175000168916200163100    000041593                    000415930000000000000109                     I0141593     30051900000000040003410000017N130319104700000000000103005190000000000000000000000000000000000000000100014052074777JANAINA DE MORAES PEREIRA               RUA JOAO BRIGIDO N 41, FUNDOS CASA 2    MAGALHAES BA21745480RIO DE JANEIRO RJUNIAO UMB DOS CULTOS AFRO BRAS    30051910 000216
10231987175000168916200163100    000041592                    000415920000000000000109                     I0141592     30051900000000040003410000017N130319104700000000000103005190000000000000000000000000000000000000000100002477166778BEATRIZ MIRANDA ABRANCHES               RUA GRUCAIN 657,                        PENHA       21020250RIO DE JANEIRO RJUNIAO UMB DOS CULTOS AFRO BRAS    30051910 000217
10231987175000168916200163100    000041591                    000415910000000000000109                     I0141591     30051900000000040003410000017N130319104700000000000103005190000000000000000000000000000000000000000100010026251736SILVIA MARIA DE MOURA                   ESTRADA SANTA EFIGENIA N 461, CASA 14   TAQUARA - JA21250450RIO DE JANEIRO RJUNIAO UMB DOS CULTOS AFRO BRAS    30051910 000218
10231987175000168916200163100    000041590                    000415900000000000000109                     I0141590     30051900000000040003410000017N130319104700000000000103005190000000000000000000000000000000000000000100004550495723MARIA ADELAIDE DA SILVA PROFET          RUA ARACA N 552,                        RICARDO DE A21620050RIO DE JANEIRO RJUNIAO UMB DOS CULTOS AFRO BRAS    30051910 000219
10231987175000168916200163100    000041589                    000415890000000000000109                     I0141589     30051900000000040003410000017N130319104700000000000103005190000000000000000000000000000000000000000100000998809705LEDA GONCALVES MENDES                   RUA VINTE DE ABRIL N 5, CASA 2          CENTRO      26327470QUEIMADOS      RJUNIAO UMB DOS CULTOS AFRO BRAS    30051910 000220
10231987175000168916200163100    000041588                    000415880000000000000109                     I0141588     30051900000000040003410000017N130319104700000000000103005190000000000000000000000000000000000000000100061293776734MARIA DE SOUZA                          AVENIDA BELO HORIZONTEN 271,            SAO GABRIEL 26021670NOVA IGUACU    RJUNIAO UMB DOS CULTOS AFRO BRAS    30051910 000221
10231987175000168916200163100    000041587                    000415870000000000000109                     I0141587     30051900000000040003410000017N130319104700000000000103005190000000000000000000000000000000000000000100053411200782ELZA MORAES DA SILVA                    RUA CARLOS PALUTN 592, BLOCO 2 APT 102  TAQUARA     22710310RIO DE JANEIRO RJUNIAO UMB DOS CULTOS AFRO BRAS    30051910 000222
10231987175000168916200163100    000041586                    000415860000000000000109                     I0141586     30051900000000040003410000017N130319104700000000000103005190000000000000000000000000000000000000000100095294236753ROSANE MOREIRA DE LIMA                  RUA IRIGUATIN 63,                       OLARIA      21073320RIO DE JANEIRO RJUNIAO UMB DOS CULTOS AFRO BRAS    30051910 000223
10231987175000168916200163100    000041585                    000415850000000000000109                     I0141585     30051900000000040003410000017N130319104700000000000103005190000000000000000000000000000000000000000100000000000000DENISE DOS SANTOS OLIVEIRA              RUA BEZERRIL FONTENELE N 150,           IRAJA       21361640RIO DE JANEIRO RJUNIAO UMB DOS CULTOS AFRO BRAS    30051910 000224
10231987175000168916200163100    000041584                    000415840000000000000109                     I0141584     30051900000000040003410000017N130319104700000000000103005190000000000000000000000000000000000000000100066954371734ROBSON MESQUITA                         RUA TENENTE LUIZ DORNELESN 155,         PENHA       21070300RIO DE JANEIRO RJUNIAO UMB DOS CULTOS AFRO BRAS    30051910 000225
10231987175000168916200163100    000041583                    000415830000000000000109                     I0141583     30051900000000040003410000017N130319104700000000000103005190000000000000000000000000000000000000000100004462200780ELAINE LOPES GONCALVES FALCAO           RUA TIUBAN 697,                         VAZ LOBO    21371170RIO DE JANEIRO RJUNIAO UMB DOS CULTOS AFRO BRAS    30051910 000226
10231987175000168916200163100    000041582                    000415820000000000000109                     I0141582     30051900000000040003410000017N130319104700000000000103005190000000000000000000000000000000000000000100000441127770NOEMIA DINANTES GOMES                   RUA COELHO DA ROCHAN 596,               AGOSTINHO PO25510120SAO JOAO DE MERRJUNIAO UMB DOS CULTOS AFRO BRAS    30051910 000227
10231987175000168916200163100    000041581                    000415810000000000000109                     I0141581     30051900000000040003410000017N130319104700000000000103005190000000000000000000000000000000000000000100062444654749NADIA DA CUNHA SANTOS                   ESTRADA DO CAFUNDA N 621, RUA A CASA 11 TAQUARA - JA22725030RIO DE JANEIRO RJUNIAO UMB DOS CULTOS AFRO BRAS    30051910 000228
10231987175000168916200163100    000041580                    000415800000000000000109                     I0141580     30051900000000040003410000017N130319104700000000000103005190000000000000000000000000000000000000000100043314503768LUIZ GONZAGA DE OLIVEIRA FILHO          RUA UNIAON 16,                          RIO DAS PEDR22753700RIO DE JANEIRO RJUNIAO UMB DOS CULTOS AFRO BRAS    30051910 000229
10231987175000168916200163100    000041579                    000415790000000000000109                     I0141579     30051900000000040003410000017N130319104700000000000103005190000000000000000000000000000000000000000100030995280720JOSE ANACLETO DE LIMA                   RUA FREDI EMANUEL N 144,                JARDIM JASMI26265110NOVA IGUACU    RJUNIAO UMB DOS CULTOS AFRO BRAS    30051910 000230
10231987175000168916200163100    000041578                    000415780000000000000109                     I0141578     30051900000000040003410000017N130319104700000000000103005190000000000000000000000000000000000000000100031672582768IVANIA MOURA DE PAIVA                   ESTRADA: DA GROTA FUNDA N 2500,         JACAREPAGUA 22785330RIO DE JANEIRO RJUNIAO UMB DOS CULTOS AFRO BRAS    30051910 000231
10231987175000168916200163100    000041577                    000415770000000000000109                     I0141577     30051900000000040003410000017N130319104700000000000103005190000000000000000000000000000000000000000100091892759772MARIA LUIZA SANTILHANA BATISTA          RUA: IPITANGASN 63,                     MAGALHAES BA21745400RIO DE JANEIRO RJUNIAO UMB DOS CULTOS AFRO BRAS    30051910 000232
10231987175000168916200163100    000041576                    000415760000000000000109                     I0141576     30051900000000040003410000017N130319104700000000000103005190000000000000000000000000000000000000000100042533686700ENEDINA MALVINA DO NASCIMENTO           RUA CASTRO MENEZESN 591,                BRAS DE PINA21215250RIO DE JANEIRO RJUNIAO UMB DOS CULTOS AFRO BRAS    30051910 000233
10231987175000168916200163100    000041575                    000415750000000000000109                     I0141575     30051900000000040003410000017N130319104700000000000103005190000000000000000000000000000000000000000100093461526720MARIELZA DE SOUZA COSTA                 ESTRADA DO LAMEIRAO N 111,              RIO DE JANEI23092032RIO DE JANEIRO RJUNIAO UMB DOS CULTOS AFRO BRAS    30051910 000234
10231987175000168916200163100    000041574                    000415740000000000000109                     I0141574     30051900000000040003410000017N130319104700000000000103005190000000000000000000000000000000000000000100050945653115KLEIDE LEMOS MENDONCA                   RUA COSTA FILHO N 133,                  MARECHAL HER21610570RIO DE JANEIRO RJUNIAO UMB DOS CULTOS AFRO BRAS    30051910 000235
10231987175000168916200163100    000041573                    000415730000000000000109                     I0141573     30051900000000040003410000017N130319104700000000000103005190000000000000000000000000000000000000000100098456164704JUCEMAR DOS SANTOS ESTEVES              RUA ABEL DE ALVARENGA N 762,            CHATUBA     26585000MESQUITA       RJUNIAO UMB DOS CULTOS AFRO BRAS    30051910 000236
10231987175000168916200163100    000041572                    000415720000000000000109                     I0141572     30051900000000040003410000017N130319104700000000000103005190000000000000000000000000000000000000000100060495901768ANA CRISTINA PAVAO BARONI               RUA TAMANDUATEI N 197, FUNDOS           JARDIM TROPI26012775NOVA IGUACU    RJUNIAO UMB DOS CULTOS AFRO BRAS    30051910 000237
10231987175000168916200163100    000041571                    000415710000000000000109                     I0141571     30051900000000040003410000017N130319104700000000000103005190000000000000000000000000000000000000000100000903948796MARIA VILANY DE OLIVEIRA BIEGL          RUA D  N 0, LOTE 68 QUADRA 13           PARQUE SANTA25915000MAGE           RJUNIAO UMB DOS CULTOS AFRO BRAS    30051910 000238
10231987175000168916200163100    000041570                    000415700000000000000109                     I0141570     30051900000000040003410000017N130319104700000000000103005190000000000000000000000000000000000000000100000744455707VERA LUCIA CALIXTO DA SILVA             RUA MANUEL IGNACIO DA CRUZ N 257,       SANTO ANTONI27115410BARRA DO PIRAI RJUNIAO UMB DOS CULTOS AFRO BRAS    30051910 000239
10231987175000168916200163100    000041569                    000415690000000000000109                     I0141569     30051900000000040003410000017N130319104700000000000103005190000000000000000000000000000000000000000218392395000180ASSOCIACAO ILE ASE D OBALUAE            RUA IGUACU  N 0, LOTE 2 QUADRA 26       PARQUE LAFAI25015350DUQUE DE CAXIASRJUNIAO UMB DOS CULTOS AFRO BRAS    30051910 000240
10231987175000168916200163100    000041568                    000415680000000000000109                     I0141568     30051900000000040003410000017N130319104700000000000103005190000000000000000000000000000000000000000100033565708700MARLY DA SILVA UCHOA                    AVENIDA MINISTRO EDGARD ROMERON 597,  CAMADUREIRA   21360200RIO DE JANEIRO RJUNIAO UMB DOS CULTOS AFRO BRAS    30051910 000241
10231987175000168916200163100    000041567                    000415670000000000000109                     I0141567     30051900000000040003410000017N130319104700000000000103005190000000000000000000000000000000000000000100004125947732FABIO DA FONSECA PAES                   RUA JOAQUIM COUTON 145,                 VILA JURANDI25540370SAO JOAO DE MERRJUNIAO UMB DOS CULTOS AFRO BRAS    30051910 000242
10231987175000168916200163100    000041566                    000415660000000000000109                     I0141566     30051900000000040003410000017N130319104700000000000103005190000000000000000000000000000000000000000100001974559726ELIZABETH BRITO DE JESUS                RUA CINCO  N 19,                        VILA KOSMOS 21210000RIO DE JANEIRO RJUNIAO UMB DOS CULTOS AFRO BRAS    30051910 000243
10231987175000168916200163100    000041565                    000415650000000000000109                     I0141565     30051900000000040003410000017N130319104700000000000103005190000000000000000000000000000000000000000100060946563772FLORIPEDES MADUREIRA SIQUEIRA           AVENIDA PARAIBA N 210,                  DOM BOSCO   27286000VOLTA REDONDA  RJUNIAO UMB DOS CULTOS AFRO BRAS    30051910 000244
10231987175000168916200163100    000041564                    000415640000000000000109                     I0141564     30051900000000040003410000017N130319104700000000000103005190000000000000000000000000000000000000000100010047725729DEBORA REGINA DE OLIVEIRA SILV          RUA: FLOREAL N 15,                      CURICICA    22780750RIO DE JANEIRO RJUNIAO UMB DOS CULTOS AFRO BRAS    30051910 000245
10231987175000168916200163100    000041563                    000415630000000000000109                     I0141563     30051900000000040003410000017N130319104700000000000103005190000000000000000000000000000000000000000100046674861715JORGE AILTON CORVINO DO NASCIM          RUA CLAUDINO BARATA N 122, FUNDOS  CASA REALENGO    21770200RIO DE JANEIRO RJUNIAO UMB DOS CULTOS AFRO BRAS    30051910 000246
10231987175000168916200163100    000041562                    000415620000000000000109                     I0141562     30051900000000040003410000017N130319104700000000000103005190000000000000000000000000000000000000000100078542626753MARIA HELENA FELIX MARINHO              RUA KELSONN 20,                         PENHA CIRCUL21011060RIO DE JANEIRO RJUNIAO UMB DOS CULTOS AFRO BRAS    30051910 000247
10231987175000168916200163100    000041561                    000415610000000000000109                     I0141561     30051900000000040003410000017N130319104700000000000103005190000000000000000000000000000000000000000100031569250715JORGE FRANCISCO SANTOS                  RUA EXPEDICIONARIO SEBASTIAO RIBEIRON 14COLUBANDE   24451710SAO GONCALO    RJUNIAO UMB DOS CULTOS AFRO BRAS    30051910 000248
10231987175000168916200163100    000041560                    000415600000000000000109                     I0141560     30051900000000040003410000017N130319104700000000000103005190000000000000000000000000000000000000000100000000000000DIVINA ANGELICA LOPES                   RUA ITAIN 296,                          ANCHIETA    21645300RIO DE JANEIRO RJUNIAO UMB DOS CULTOS AFRO BRAS    30051910 000249
