01REMESSA01COBRANCA       817800093673        União Umb dos Cultos Afro Bra341BANCO ITAU SA  081118                                                                                                                                                                                                                                                                                                      000001
10231987175000168817800093673    000033386                    000333860000000000000109                     I0133386     30111800000000140003410000017N081118104700000000000103011180000000000000000000000000000000000000000100003558966724ANDREA CORDEIRO DA CONCEICAO S          RUA PARATI                              BOM JESUS   26298183NOVA IGUACU    RJUNIAO UMB DOS CULTOS AFRO BRAS    30111810 000002
10231987175000168817800093673    000033385                    000333850000000000000109                     I0133385     12111800000000140003410000017N081118104700000000000101211180000000000000000000000000000000000000000100003558966724ANDREA CORDEIRO DA CONCEICAO S          RUA PARATI                              BOM JESUS   26298183NOVA IGUACU    RJUNIAO UMB DOS CULTOS AFRO BRAS    12111810 000003
10231987175000168817800093673    000033384                    000333840000000000000109                     I0133384     15111800000000070003410000017N081118104700000000000101511180000000000000000000000000000000000000000100097990531704CICERO ROGERIO DA SILVA MATOS           RUA ROBERTO                             VILA GUIMARA26088425NOVA IGUACU    RJUNIAO UMB DOS CULTOS AFRO BRAS    15111810 000004
10231987175000168817800093673    000033382                    000333820000000000000109                     I0233382     08111800000000420003410000017N071118104700000000000100811180000000000000000000000000000000000000000100012106775717VITOR GABRIEL CARVALHO DE FIGU          RUA JUPARANA                            ANDARAI     20541135RIO DE JANEIRO RJUNIAO UMB DOS CULTOS AFRO BRAS    08111810 000005
10231987175000168817800093673    000033375                    000333750000000000000109                     I0233375     30111800000000280003410000017N071118104700000000000103011180000000000000000000000000000000000000000100003558966724ANDREA CORDEIRO DA CONCEICAO S          RUA PARATI                              BOM JESUS   26298183NOVA IGUACU    RJUNIAO UMB DOS CULTOS AFRO BRAS    30111810 000006
10231987175000168817800093673    000029489                    000294890000000000000109                     I0229489     20121800000000035003410000017N291018104700000000000102012180000000000000000000000000000000000000000100083697799720ANGELA MARIA FERRAZ FARIAS              RUA LUIS BELTRAO                        VILA VALQUEI21321230RIO DE JANEIRO RJUNIAO UMB DOS CULTOS AFRO BRAS    20121810 000007
10231987175000168817800093673    000029043                    000290430000000000000109                     I3429043     20121800000000035003410000017N291018104700000000000102012180000000000000000000000000000000000000000100048685917700CELIO DO NASCIMENTO                     RUA BORORO                              ENGENHO DA R20766570RIO DE JANEIRO RJUNIAO UMB DOS CULTOS AFRO BRAS    20121810 000008
10231987175000168817800093673    000027562                    000275620000000000000109                     I0227562     30111800000000035003410000017N200818104700000000000103011180000000000000000000000000000000000000000100083697799720ANGELA MARIA FERRAZ FARIAS              RUA LUIS BELTRAO                        VILA VALQUEI21321230RIO DE JANEIRO RJUNIAO UMB DOS CULTOS AFRO BRAS    30111810 000009
10231987175000168817800093673    000027102                    000271020000000000000109                     I3427102     30111800000000035003410000017N200818104700000000000103011180000000000000000000000000000000000000000100048685917700CELIO DO NASCIMENTO                     RUA BORORO                              ENGENHO DA R20766570RIO DE JANEIRO RJUNIAO UMB DOS CULTOS AFRO BRAS    30111810 000010
10231987175000168817800093673    000026896                    000268960000000000000109                     I0226896     30091800000000035003410000017N200818104700000000000103009180000000000000000000000000000000000000000100097990531704CICERO ROGERIO DA SILVA MATOS           RUA ROBERTO                             VILA GUIMARA26088425NOVA IGUACU    RJUNIAO UMB DOS CULTOS AFRO BRAS    30091810 000011
10231987175000168817800093673    000026144                    000261440000000000000109                     I0226144     30091800000000035003410000017N200818104700000000000103009180000000000000000000000000000000000000000100083697799720ANGELA MARIA FERRAZ FARIAS              RUA LUIS BELTRAO                        VILA VALQUEI21321230RIO DE JANEIRO RJUNIAO UMB DOS CULTOS AFRO BRAS    30091810 000012
10231987175000168817800093673    000025481                    000254810000000000000109                     I0225481     30101800000000035003410000017N200818104700000000000103010180000000000000000000000000000000000000000100097990531704CICERO ROGERIO DA SILVA MATOS           RUA ROBERTO                             VILA GUIMARA26088425NOVA IGUACU    RJUNIAO UMB DOS CULTOS AFRO BRAS    30101810 000013
10231987175000168817800093673    000025390                    000253900000000000000109                     I3425390     30101800000000035003410000017N200818104700000000000103010180000000000000000000000000000000000000000100053211839704ALCIONE SOUZA DOS SANTOS                RUA MARINO FELIX                        SEPETIBA    23535006RIO DE JANEIRO RJUNIAO UMB DOS CULTOS AFRO BRAS    30101810 000014
10231987175000168817800093673    000024725                    000247250000000000000109                     I0224725     30101800000000035003410000017N200818104700000000000103010180000000000000000000000000000000000000000100083697799720ANGELA MARIA FERRAZ FARIAS              RUA LUIS BELTRAO                        VILA VALQUEI21321230RIO DE JANEIRO RJUNIAO UMB DOS CULTOS AFRO BRAS    30101810 000015
10231987175000168817800093673    000024268                    000242680000000000000109                     I3424268     30101800000000035003410000017N200818104700000000000103010180000000000000000000000000000000000000000100048685917700CELIO DO NASCIMENTO                     RUA BORORO                              ENGENHO DA R20766570RIO DE JANEIRO RJUNIAO UMB DOS CULTOS AFRO BRAS    30101810 000016
9                                                                                                                                                                                                                                                                                                                                                                                                         000017
