01REMESSA01COBRANCA       817800093673        União Umb dos Cultos Afro Bra341BANCO ITAU SA  310719                                                                                                                                                                                                                                                                                                      000001
10231987175000168817800093673    000049605                    000496050000000000000109                     I0249605     30091900000000040003410000017N100619105700000000000133009190000000000000000000000000000000000000000100007541296759NELMA DOS ANJOS SOUZA GONCALVE          ESTRADA PEDRINHASN 23, QUADRA 8         VENDA VELHA 25580660SAO JOAO DE MERRJUNIAO UMB DOS CULTOS AFRO BRAS    30091915 000002
21300920190000000000080                                                                                                                                                                                                                                                                                                                                                                                   000003
10231987175000168817800093673    000048682                    000486820000000000000109                     I0248682     30091900000000040003410000017N100619105700000000000133009190000000000000000000000000000000000000000100054504430720ISBELA BARBOSA LIMA DA SILVA            RUA SOUSA BARROSN 106, A FUNDOS         ENGENHO NOVO20961150RIO DE JANEIRO RJUNIAO UMB DOS CULTOS AFRO BRAS    30091915 000004
21300920190000000000080                                                                                                                                                                                                                                                                                                                                                                                   000005
10231987175000168817800093673    000048563                    000485630000000000000109                     I0248563     30091900000000040003410000017N100619105700000000000133009190000000000000000000000000000000000000000100082059403715SANDRA HELENA VILLAMOR MONTASS          RUA ARGOS N 693,                        GUADALUPE   21660050RIO DE JANEIRO RJUNIAO UMB DOS CULTOS AFRO BRAS    30091915 000006
21300920190000000000080                                                                                                                                                                                                                                                                                                                                                                                   000007
10231987175000168817800093673    000048158                    000481580000000000000109                     I0248158     30081900000000040003410000017N100619105700000000000133008190000000000000000000000000000000000000000100007541296759NELMA DOS ANJOS SOUZA GONCALVE          ESTRADA PEDRINHASN 23, QUADRA 8         VENDA VELHA 25580660SAO JOAO DE MERRJUNIAO UMB DOS CULTOS AFRO BRAS    30081915 000008
21300820190000000000080                                                                                                                                                                                                                                                                                                                                                                                   000009
10231987175000168817800093673    000047332                    000473320000000000000109                     I0247332     30081900000000040003410000017N100619105700000000000133008190000000000000000000000000000000000000000100005209152758LAZARO OLIVEIRA DE ARAUJO               RUA MULULO DA VEIGAN 1045,              NEVES       24425460SAO GONCALO    RJUNIAO UMB DOS CULTOS AFRO BRAS    30081915 000010
21300820190000000000080                                                                                                                                                                                                                                                                                                                                                                                   000011
10231987175000168817800093673    000047245                    000472450000000000000109                     I0247245     30081900000000040003410000017N100619105700000000000133008190000000000000000000000000000000000000000100054504430720ISBELA BARBOSA LIMA DA SILVA            RUA SOUSA BARROSN 106, A FUNDOS         ENGENHO NOVO20961150RIO DE JANEIRO RJUNIAO UMB DOS CULTOS AFRO BRAS    30081915 000012
21300820190000000000080                                                                                                                                                                                                                                                                                                                                                                                   000013
10231987175000168817800093673    000047126                    000471260000000000000109                     I0247126     30081900000000040003410000017N100619105700000000000133008190000000000000000000000000000000000000000100082059403715SANDRA HELENA VILLAMOR MONTASS          RUA ARGOS N 693,                        GUADALUPE   21660050RIO DE JANEIRO RJUNIAO UMB DOS CULTOS AFRO BRAS    30081915 000014
21300820190000000000080                                                                                                                                                                                                                                                                                                                                                                                   000015
10231987175000168817800093673    000046723                    000467230000000000000109                     I0246723     30071900000000040003410000017N100619105700000000000133007190000000000000000000000000000000000000000100007541296759NELMA DOS ANJOS SOUZA GONCALVE          ESTRADA PEDRINHASN 23, QUADRA 8         VENDA VELHA 25580660SAO JOAO DE MERRJUNIAO UMB DOS CULTOS AFRO BRAS    30071915 000016
21300720190000000000080                                                                                                                                                                                                                                                                                                                                                                                   000017
10231987175000168817800093673    000046593                    000465930000000000000109                     I3446593     30071900000000040003410000017N100619105700000000000133007190000000000000000000000000000000000000000100085737437787NIVALDA PIRES RUFINO                    RUA: MARIO CARPENTERN 830,              ABOLICAO    20755065RIO DE JANEIRO RJUNIAO UMB DOS CULTOS AFRO BRAS    30071915 000018
21300720190000000000080                                                                                                                                                                                                                                                                                                                                                                                   000019
10231987175000168817800093673    000046264                    000462640000000000000109                     I0246264     30071900000000040003410000017N100619105700000000000133007190000000000000000000000000000000000000000100024540285734FERNANDO PEREIRA DE SOUZA               RUA ALECRIM N 1001,                     VILA KOSMOS 21220050RIO DE JANEIRO RJUNIAO UMB DOS CULTOS AFRO BRAS    30071915 000020
21300720190000000000080                                                                                                                                                                                                                                                                                                                                                                                   000021
10231987175000168817800093673    000045819                    000458190000000000000109                     I0245819     30071900000000040003410000017N100619105700000000000133007190000000000000000000000000000000000000000100054504430720ISBELA BARBOSA LIMA DA SILVA            RUA SOUSA BARROSN 106, A FUNDOS         ENGENHO NOVO20961150RIO DE JANEIRO RJUNIAO UMB DOS CULTOS AFRO BRAS    30071915 000022
21300720190000000000080                                                                                                                                                                                                                                                                                                                                                                                   000023
10231987175000168817800093673    000045759                    000457590000000000000109                     I0245759     30071900000000040003410000017N100619105700000000000133007190000000000000000000000000000000000000000100092747167704MARIA DO SOCORRO GALVAO RODRIG          RUA 1N 0, LOTE 49 QUADRA 2              INOA        24900000MARICA         RJUNIAO UMB DOS CULTOS AFRO BRAS    30071915 000024
21300720190000000000080                                                                                                                                                                                                                                                                                                                                                                                   000025
10231987175000168817800093673    000045257                    000452570000000000000109                     I0245257     30061900000000040003410000017N090519105700000000000133006190000000000000000000000000000000000000000100092747167704MARIA DO SOCORRO GALVAO RODRIG          RUA 1N 0, LOTE 49 QUADRA 2              INOA        24900000MARICA         RJUNIAO UMB DOS CULTOS AFRO BRAS    30061915 000026
21300620190000000000080                                                                                                                                                                                                                                                                                                                                                                                   000027
9                                                                                                                                                                                                                                                                                                                                                                                                         000028
