01REMESSA01COBRANCA       916200163100        União Umb dos Cultos Afro Bra341BANCO ITAU SA  260218                                                                                                                                                                                                                                                                                                      000001
10231987175000168916200163100    000014075                    000140750000000000000109                     I0114075     30051800000000035003410000017N260218104700000000000103005180000000000000000000000000000000000000000100015903167896PRISCILA APARECIDA SERRANO CLE          MESMO                                   MESMO       02251010SAO PAULO      SPUNIAO UMB DOS CULTOS AFRO BRAS    30051810 000002
10231987175000168916200163100    000014074                    000140740000000000000109                     I0214074     30051800000000035003410000017N260218104700000000000103005180000000000000000000000000000000000000000100015903167896PRISCILA APARECIDA SERRANO CLE          MESMO                                   MESMO       02251010SAO PAULO      SPUNIAO UMB DOS CULTOS AFRO BRAS    30051810 000003
10231987175000168916200163100    000014073                    000140730000000000000109                     I0214073     30051800000000035003410000017N260218104700000000000103005180000000000000000000000000000000000000000100015903167896PRISCILA APARECIDA SERRANO CLE          MESMO                                   MESMO       02251010SAO PAULO      SPUNIAO UMB DOS CULTOS AFRO BRAS    30051810 000004
10231987175000168916200163100    000014072                    000140720000000000000109                     I0114072     30041800000000035003410000017N260218104700000000000103004180000000000000000000000000000000000000000100015903167896PRISCILA APARECIDA SERRANO CLE          MESMO                                   MESMO       02251010SAO PAULO      SPUNIAO UMB DOS CULTOS AFRO BRAS    30041810 000005
10231987175000168916200163100    000014071                    000140710000000000000109                     I0114071     30031800000000035003410000017N260218104700000000000103003180000000000000000000000000000000000000000100015903167896PRISCILA APARECIDA SERRANO CLE          MESMO                                   MESMO       02251010SAO PAULO      SPUNIAO UMB DOS CULTOS AFRO BRAS    30031810 000006
10231987175000168916200163100    000014070                    000140700000000000000109                     I0114070     28021800000000070003410000017N260218104700000000000102802180000000000000000000000000000000000000000100006156525734SAFIRA COELHO DA CRUZ                   RUA LUKENIE, 88                         CURICICA - T22775480RIO DE JANEIRO RJUNIAO UMB DOS CULTOS AFRO BRAS    28021810 000007
10231987175000168916200163100    000014069                    000140690000000000000109                     I0114069     30051800000000035003410000017N260218104700000000000103005180000000000000000000000000000000000000000100003253352730LUCINEA DUTRA MEDEIROS                  RUA EVALDO BRAGA                        INDEPENDENCI25645300PETROPOLIS     RJUNIAO UMB DOS CULTOS AFRO BRAS    30051810 000008
10231987175000168916200163100    000014068                    000140680000000000000109                     I0114068     30041800000000035003410000017N260218104700000000000103004180000000000000000000000000000000000000000100003253352730LUCINEA DUTRA MEDEIROS                  RUA EVALDO BRAGA                        INDEPENDENCI25645300PETROPOLIS     RJUNIAO UMB DOS CULTOS AFRO BRAS    30041810 000009
10231987175000168916200163100    000014067                    000140670000000000000109                     I0114067     30031800000000035003410000017N260218104700000000000103003180000000000000000000000000000000000000000100003253352730LUCINEA DUTRA MEDEIROS                  RUA EVALDO BRAGA                        INDEPENDENCI25645300PETROPOLIS     RJUNIAO UMB DOS CULTOS AFRO BRAS    30031810 000010
10231987175000168916200163100    000014066                    000140660000000000000109                     I0114066     05031800000000035003410000017N260218104700000000000100503180000000000000000000000000000000000000000100007804875754EVANDRO MEDEIROS DE OLIVEIRA            RUA 64, LOTE 40 QUADRA 303 CASA 1       JARDIM ATLAN24934045MARICA         RJUNIAO UMB DOS CULTOS AFRO BRAS    05031810 000011
10231987175000168916200163100    000014065                    000140650000000000000109                     I0114065     05031800000000035003410000017N260218104700000000000100503180000000000000000000000000000000000000000100040215326768ANTONIO JOAQUIM DOS SANTOS FIL          RUA SAO FRANCISCO, 137 - CANTO DO RIO   SEROPEDICA -23890000RIO DE JANEIRO RJUNIAO UMB DOS CULTOS AFRO BRAS    05031810 000012
10231987175000168916200163100    000014063                    000140630000000000000109                     I0114063     05031800000000350003410000017N260218104700000000000100503180000000000000000000000000000000000000000100050942490763ANTONIO PAULO TRABACHINI                RUA DO CATETE, 347 LOJA 8               CATETE      22271100RIO DE JANEIRO RJUNIAO UMB DOS CULTOS AFRO BRAS    05031810 000013
10231987175000168916200163100    000014062                    000140620000000000000109                     I0114062     05031800000000025003410000017N260218104700000000000100503180000000000000000000000000000000000000000100052329160363NENI GOMES DE ALMEIDA                   RUA MARIA SANTANA FERNANDES, LOTE 8 QUADJARDIM ACACI23845250SEROPEDICA     RJUNIAO UMB DOS CULTOS AFRO BRAS    05031810 000014
10231987175000168916200163100    000014061                    000140610000000000000109                     I0114061     05031800000000070003410000017N260218104700000000000100503180000000000000000000000000000000000000000100050942490763ANTONIO PAULO TRABACHINI                RUA DO CATETE, 347 LOJA 8               CATETE      22271100RIO DE JANEIRO RJUNIAO UMB DOS CULTOS AFRO BRAS    05031810 000015
10231987175000168916200163100    000014060                    000140600000000000000109                     I0114060     06031800000000035003410000017N260218104700000000000100603180000000000000000000000000000000000000000100002181028796EMERSON DIAS DA COSTA                   RUA PARA, LOTE 10 QUADRA 31             VALE DAS MAN26175370BELFORD ROXO   RJUNIAO UMB DOS CULTOS AFRO BRAS    06031810 000016
10231987175000168916200163100    000014059                    000140590000000000000109                     I0114059     30051800000000035003410000017N260218104700000000000103005180000000000000000000000000000000000000000100013911839758EDSON SILVA DOS SANTOS                  RUA WALDOMIRO JOSE PEREIRA              HELIOPOLIS -26125500BELFORD ROXO   RJUNIAO UMB DOS CULTOS AFRO BRAS    30051810 000017
10231987175000168916200163100    000014058                    000140580000000000000109                     I0114058     30041800000000035003410000017N260218104700000000000103004180000000000000000000000000000000000000000100013911839758EDSON SILVA DOS SANTOS                  RUA WALDOMIRO JOSE PEREIRA              HELIOPOLIS -26125500BELFORD ROXO   RJUNIAO UMB DOS CULTOS AFRO BRAS    30041810 000018
10231987175000168916200163100    000014057                    000140570000000000000109                     I0114057     30031800000000035003410000017N260218104700000000000103003180000000000000000000000000000000000000000100013911839758EDSON SILVA DOS SANTOS                  RUA WALDOMIRO JOSE PEREIRA              HELIOPOLIS -26125500BELFORD ROXO   RJUNIAO UMB DOS CULTOS AFRO BRAS    30031810 000019
10231987175000168916200163100    000014046                    000140460000000000000109                     I0114046     30051800000000035003410000017N260218104700000000000103005180000000000000000000000000000000000000000100003159130452VICENTE FELICIO DA SILVA                RUA LUIZA NEOFILA PIMENTA, 156          ALTO DA CAPE59680000CAMPO GRANDE   RNUNIAO UMB DOS CULTOS AFRO BRAS    30051810 000020
10231987175000168916200163100    000014044                    000140440000000000000109                     I0114044     30031800000000035003410000017N260218104700000000000103003180000000000000000000000000000000000000000100003159130452VICENTE FELICIO DA SILVA                RUA LUIZA NEOFILA PIMENTA, 156          ALTO DA CAPE59680000CAMPO GRANDE   RNUNIAO UMB DOS CULTOS AFRO BRAS    30031810 000021
10231987175000168916200163100    000014043                    000140430000000000000109                     I0114043     30051800000000035003410000017N260218104700000000000103005180000000000000000000000000000000000000000100016685778792PAMELA TAMIRIS DA SILVA CORDEI          RUA DO OURO, 14                         INHOAIBA - R23064140RIO DE JANEIRO RJUNIAO UMB DOS CULTOS AFRO BRAS    30051810 000022
10231987175000168916200163100    000014042                    000140420000000000000109                     I0114042     30041800000000035003410000017N260218104700000000000103004180000000000000000000000000000000000000000100016685778792PAMELA TAMIRIS DA SILVA CORDEI          RUA DO OURO, 14                         INHOAIBA - R23064140RIO DE JANEIRO RJUNIAO UMB DOS CULTOS AFRO BRAS    30041810 000023
10231987175000168916200163100    000014041                    000140410000000000000109                     I0114041     30031800000000035003410000017N260218104700000000000103003180000000000000000000000000000000000000000100016685778792PAMELA TAMIRIS DA SILVA CORDEI          RUA DO OURO, 14                         INHOAIBA - R23064140RIO DE JANEIRO RJUNIAO UMB DOS CULTOS AFRO BRAS    30031810 000024
10231987175000168916200163100    000014040                    000140400000000000000109                     I0114040     30051800000000035003410000017N260218104700000000000103005180000000000000000000000000000000000000000100079096611772MARIO LUIZ BARRETO DE BARROS            RUA GRAVATA, 215                        MARECHAL HER21610510RIO DE JANEIRO RJUNIAO UMB DOS CULTOS AFRO BRAS    30051810 000025
10231987175000168916200163100    000014039                    000140390000000000000109                     I0114039     30041800000000035003410000017N260218104700000000000103004180000000000000000000000000000000000000000100079096611772MARIO LUIZ BARRETO DE BARROS            RUA GRAVATA, 215                        MARECHAL HER21610510RIO DE JANEIRO RJUNIAO UMB DOS CULTOS AFRO BRAS    30041810 000026
10231987175000168916200163100    000014038                    000140380000000000000109                     I0114038     30031800000000035003410000017N260218104700000000000103003180000000000000000000000000000000000000000100079096611772MARIO LUIZ BARRETO DE BARROS            RUA GRAVATA, 215                        MARECHAL HER21610510RIO DE JANEIRO RJUNIAO UMB DOS CULTOS AFRO BRAS    30031810 000027
10231987175000168916200163100    000014037                    000140370000000000000109                     I0114037     30051800000000035003410000017N260218104700000000000103005180000000000000000000000000000000000000000100072962771734MARCIA CARNAVAL                         RUA AJAPI, 580 CASA 2                   COSMOS - RIO23066420RIO DE JANEIRO RJUNIAO UMB DOS CULTOS AFRO BRAS    30051810 000028
10231987175000168916200163100    000014036                    000140360000000000000109                     I0114036     30041800000000035003410000017N260218104700000000000103004180000000000000000000000000000000000000000100072962771734MARCIA CARNAVAL                         RUA AJAPI, 580 CASA 2                   COSMOS - RIO23066420RIO DE JANEIRO RJUNIAO UMB DOS CULTOS AFRO BRAS    30041810 000029
10231987175000168916200163100    000014035                    000140350000000000000109                     I0114035     30031800000000035003410000017N260218104700000000000103003180000000000000000000000000000000000000000100072962771734MARCIA CARNAVAL                         RUA AJAPI, 580 CASA 2                   COSMOS - RIO23066420RIO DE JANEIRO RJUNIAO UMB DOS CULTOS AFRO BRAS    30031810 000030
10231987175000168916200163100    000014034                    000140340000000000000109                     I0114034     30051800000000035003410000017N260218104700000000000103005180000000000000000000000000000000000000000200000000012567FLAVIA DE CARVALHO TORRES               RUA Z N 22                              SANTA TEREZA20251600RIO DE JANEIRO RJUNIAO UMB DOS CULTOS AFRO BRAS    30051810 000031
10231987175000168916200163100    000014033                    000140330000000000000109                     I0114033     30041800000000035003410000017N260218104700000000000103004180000000000000000000000000000000000000000200000000012567FLAVIA DE CARVALHO TORRES               RUA Z N 22                              SANTA TEREZA20251600RIO DE JANEIRO RJUNIAO UMB DOS CULTOS AFRO BRAS    30041810 000032
10231987175000168916200163100    000014032                    000140320000000000000109                     I0114032     30031800000000035003410000017N260218104700000000000103003180000000000000000000000000000000000000000200000000012567FLAVIA DE CARVALHO TORRES               RUA Z N 22                              SANTA TEREZA20251600RIO DE JANEIRO RJUNIAO UMB DOS CULTOS AFRO BRAS    30031810 000033
10231987175000168916200163100    000014031                    000140310000000000000109                     I0114031     30051800000000035003410000017N260218104700000000000103005180000000000000000000000000000000000000000100077301323700CID MOREIRA DE SOUZA                    RUA PROFESSOR MAURITI SANTOS, 399       SANTA TERESA22241240RIO DE JANEIRO RJUNIAO UMB DOS CULTOS AFRO BRAS    30051810 000034
10231987175000168916200163100    000014030                    000140300000000000000109                     I0114030     30041800000000035003410000017N260218104700000000000103004180000000000000000000000000000000000000000100077301323700CID MOREIRA DE SOUZA                    RUA PROFESSOR MAURITI SANTOS, 399       SANTA TERESA22241240RIO DE JANEIRO RJUNIAO UMB DOS CULTOS AFRO BRAS    30041810 000035
10231987175000168916200163100    000014029                    000140290000000000000109                     I0114029     30031800000000035003410000017N260218104700000000000103003180000000000000000000000000000000000000000100077301323700CID MOREIRA DE SOUZA                    RUA PROFESSOR MAURITI SANTOS, 399       SANTA TERESA22241240RIO DE JANEIRO RJUNIAO UMB DOS CULTOS AFRO BRAS    30031810 000036
9                                                                                                                                                                                                                                                                                                                                                                                                         000037
