01REMESSA01COBRANCA       817800093673        União Umb dos Cultos Afro Bra341BANCO ITAU SA  140119                                                                                                                                                                                                                                                                                                      000001
10231987175000168817800093673    000039066                    000390660000000000000109                     I0239066     30031900000000040003410000017N261218104700000000000103003190000000000000000000000000000000000000000100010016543742ALEXANDRE TEIXEIRA CAVALCANTE           RUA DOUTOR NUNES                        OLARIA      21021370RIO DE JANEIRO RJUNIAO UMB DOS CULTOS AFRO BRAS    30031910 000002
10231987175000168817800093673    000039015                    000390150000000000000109                     I0239015     30031900000000040003410000017N261218104700000000000103003190000000000000000000000000000000000000000100075254590700NOELY OUVERNEY PEIXOTO SERRA            RUA DOUTOR BORMAN                       CENTRO      24020320NITEROI        RJUNIAO UMB DOS CULTOS AFRO BRAS    30031910 000003
10231987175000168817800093673    000038633                    000386330000000000000109                     I0238633     30031900000000040003410000017N261218104700000000000103003190000000000000000000000000000000000000000100028004256791JOSE ZEFERINO AQUINO                    RUA DO CARMO                            PARQUE AMORI26185340BELFORD ROXO   RJUNIAO UMB DOS CULTOS AFRO BRAS    30031910 000004
10231987175000168817800093673    000038396                    000383960000000000000109                     I0238396     30031900000000040003410000017N261218104700000000000103003190000000000000000000000000000000000000000100003233654774EDMEA DE SOUZA BAPTISTA                 RUA MANUEL SERRAO                       ANTONINA    24455025SAO GONCALO    RJUNIAO UMB DOS CULTOS AFRO BRAS    30031910 000005
10231987175000168817800093673    000038357                    000383570000000000000109                     I0238357     30031900000000040003410000017N261218104700000000000103003190000000000000000000000000000000000000000100000230182755RITA DE CASSIA RESENDE BASTOS           RUA CAMBUI, 118                         ILHA DO GOVE21911130RIO DE JANEIRO RJUNIAO UMB DOS CULTOS AFRO BRAS    30031910 000006
10231987175000168817800093673    000037679                    000376790000000000000109                     I0237679     30031900000000040003410000017N261218104700000000000103003190000000000000000000000000000000000000000100036920940787MARIA DE FATIMA PREFEITO DOS S          RUA  IPEUVA                             BRAS DE PINA21215400RIO DE JANEIRO RJUNIAO UMB DOS CULTOS AFRO BRAS    30031910 000007
10231987175000168817800093673    000037147                    000371470000000000000109                     I0237147     28021900000000040003410000017N261218104700000000000102802190000000000000000000000000000000000000000100010016543742ALEXANDRE TEIXEIRA CAVALCANTE           RUA DOUTOR NUNES                        OLARIA      21021370RIO DE JANEIRO RJUNIAO UMB DOS CULTOS AFRO BRAS    28021910 000008
10231987175000168817800093673    000037096                    000370960000000000000109                     I0237096     28021900000000040003410000017N261218104700000000000102802190000000000000000000000000000000000000000100075254590700NOELY OUVERNEY PEIXOTO SERRA            RUA DOUTOR BORMAN                       CENTRO      24020320NITEROI        RJUNIAO UMB DOS CULTOS AFRO BRAS    28021910 000009
10231987175000168817800093673    000036715                    000367150000000000000109                     I0236715     28021900000000040003410000017N261218104700000000000102802190000000000000000000000000000000000000000100028004256791JOSE ZEFERINO AQUINO                    RUA DO CARMO                            PARQUE AMORI26185340BELFORD ROXO   RJUNIAO UMB DOS CULTOS AFRO BRAS    28021910 000010
10231987175000168817800093673    000036616                    000366160000000000000109                     I0236616     28021900000000040003410000017N261218104700000000000102802190000000000000000000000000000000000000000100077575644768ROBSON ANDRE GONCALVES OUREM            RUA: MILETO                             CAMPOS ELISE25265008DUQUE DE CAXIASRJUNIAO UMB DOS CULTOS AFRO BRAS    28021910 000011
10231987175000168817800093673    000036479                    000364790000000000000109                     I0236479     28021900000000040003410000017N261218104700000000000102802190000000000000000000000000000000000000000100003233654774EDMEA DE SOUZA BAPTISTA                 RUA MANUEL SERRAO                       ANTONINA    24455025SAO GONCALO    RJUNIAO UMB DOS CULTOS AFRO BRAS    28021910 000012
10231987175000168817800093673    000036440                    000364400000000000000109                     I0236440     28021900000000040003410000017N261218104700000000000102802190000000000000000000000000000000000000000100000230182755RITA DE CASSIA RESENDE BASTOS           RUA CAMBUI, 118                         ILHA DO GOVE21911130RIO DE JANEIRO RJUNIAO UMB DOS CULTOS AFRO BRAS    28021910 000013
10231987175000168817800093673    000035766                    000357660000000000000109                     I0235766     28021900000000040003410000017N261218104700000000000102802190000000000000000000000000000000000000000100036920940787MARIA DE FATIMA PREFEITO DOS S          RUA  IPEUVA                             BRAS DE PINA21215400RIO DE JANEIRO RJUNIAO UMB DOS CULTOS AFRO BRAS    28021910 000014
10231987175000168817800093673    000035236                    000352360000000000000109                     I0235236     31011900000000040003410000017N261218104700000000000103101190000000000000000000000000000000000000000100010016543742ALEXANDRE TEIXEIRA CAVALCANTE           RUA DOUTOR NUNES                        OLARIA      21021370RIO DE JANEIRO RJUNIAO UMB DOS CULTOS AFRO BRAS    31011910 000015
10231987175000168817800093673    000035185                    000351850000000000000109                     I0235185     31011900000000040003410000017N261218104700000000000103101190000000000000000000000000000000000000000100075254590700NOELY OUVERNEY PEIXOTO SERRA            RUA DOUTOR BORMAN                       CENTRO      24020320NITEROI        RJUNIAO UMB DOS CULTOS AFRO BRAS    31011910 000016
10231987175000168817800093673    000035138                    000351380000000000000109                     I0235138     31011900000000045003410000017N261218104700000000000103101190000000000000000000000000000000000000000100007469638741TATIANA ANICETO DE LEMOS SIMOE          RUA REVERENCIA                          CURICICA    22780580RIO DE JANEIRO RJUNIAO UMB DOS CULTOS AFRO BRAS    31011910 000017
10231987175000168817800093673    000034868                    000348680000000000000109                     I0234868     31011900000000040003410000017N261218104700000000000103101190000000000000000000000000000000000000000100094443211772SANDRA LEILA ANACLETO SIQUEIRA          RUA RAUL VEIGA                          QUITANDINHA 25635110PETROPOLIS     RJUNIAO UMB DOS CULTOS AFRO BRAS    31011910 000018
10231987175000168817800093673    000034805                    000348050000000000000109                     I0234805     31011900000000040003410000017N261218104700000000000103101190000000000000000000000000000000000000000100028004256791JOSE ZEFERINO AQUINO                    RUA DO CARMO                            PARQUE AMORI26185340BELFORD ROXO   RJUNIAO UMB DOS CULTOS AFRO BRAS    31011910 000019
10231987175000168817800093673    000034706                    000347060000000000000109                     I0234706     31011900000000040003410000017N261218104700000000000103101190000000000000000000000000000000000000000100077575644768ROBSON ANDRE GONCALVES OUREM            RUA: MILETO                             CAMPOS ELISE25265008DUQUE DE CAXIASRJUNIAO UMB DOS CULTOS AFRO BRAS    31011910 000020
10231987175000168817800093673    000034570                    000345700000000000000109                     I0234570     31011900000000040003410000017N261218104700000000000103101190000000000000000000000000000000000000000100003233654774EDMEA DE SOUZA BAPTISTA                 RUA MANUEL SERRAO                       ANTONINA    24455025SAO GONCALO    RJUNIAO UMB DOS CULTOS AFRO BRAS    31011910 000021
10231987175000168817800093673    000034531                    000345310000000000000109                     I0234531     31011900000000040003410000017N261218104700000000000103101190000000000000000000000000000000000000000100000230182755RITA DE CASSIA RESENDE BASTOS           RUA CAMBUI, 118                         ILHA DO GOVE21911130RIO DE JANEIRO RJUNIAO UMB DOS CULTOS AFRO BRAS    31011910 000022
10231987175000168817800093673    000033864                    000338640000000000000109                     I0233864     31011900000000040003410000017N261218104700000000000103101190000000000000000000000000000000000000000100036920940787MARIA DE FATIMA PREFEITO DOS S          RUA  IPEUVA                             BRAS DE PINA21215400RIO DE JANEIRO RJUNIAO UMB DOS CULTOS AFRO BRAS    31011910 000023
10231987175000168817800093673    000032914                    000329140000000000000109                     I0232914     20121800000000350003410000017N291018104700000000000102012180000000000000000000000000000000000000000100010016543742ALEXANDRE TEIXEIRA CAVALCANTE           RUA DOUTOR NUNES                        OLARIA      21021370RIO DE JANEIRO RJUNIAO UMB DOS CULTOS AFRO BRAS    20121810 000024
10231987175000168817800093673    000032835                    000328350000000000000109                     I0232835     20121800000000400003410000017N291018104700000000000102012180000000000000000000000000000000000000000100075254590700NOELY OUVERNEY PEIXOTO SERRA            RUA DOUTOR BORMAN                       CENTRO      24020320NITEROI        RJUNIAO UMB DOS CULTOS AFRO BRAS    20121810 000025
10231987175000168817800093673    000032770                    000327700000000000000109                     I0232770     20121800000000400003410000017N291018104700000000000102012180000000000000000000000000000000000000000100007469638741TATIANA ANICETO DE LEMOS SIMOE          RUA REVERENCIA                          CURICICA    22780580RIO DE JANEIRO RJUNIAO UMB DOS CULTOS AFRO BRAS    20121810 000026
10231987175000168817800093673    000032391                    000323910000000000000109                     I0232391     20121800000000350003410000017N291018104700000000000102012180000000000000000000000000000000000000000100094443211772SANDRA LEILA ANACLETO SIQUEIRA          RUA RAUL VEIGA                          QUITANDINHA 25635110PETROPOLIS     RJUNIAO UMB DOS CULTOS AFRO BRAS    20121810 000027
10231987175000168817800093673    000032278                    000322780000000000000109                     I0232278     20121800000000350003410000017N291018104700000000000102012180000000000000000000000000000000000000000100028004256791JOSE ZEFERINO AQUINO                    RUA DO CARMO                            PARQUE AMORI26185340BELFORD ROXO   RJUNIAO UMB DOS CULTOS AFRO BRAS    20121810 000028
10231987175000168817800093673    000032127                    000321270000000000000109                     I0232127     20121800000000350003410000017N291018104700000000000102012180000000000000000000000000000000000000000100077575644768ROBSON ANDRE GONCALVES OUREM            RUA: MILETO                             CAMPOS ELISE25265008DUQUE DE CAXIASRJUNIAO UMB DOS CULTOS AFRO BRAS    20121810 000029
10231987175000168817800093673    000031930                    000319300000000000000109                     I0231930     20121800000000400003410000017N291018104700000000000102012180000000000000000000000000000000000000000100003233654774EDMEA DE SOUZA BAPTISTA                 RUA MANUEL SERRAO                       ANTONINA    24455025SAO GONCALO    RJUNIAO UMB DOS CULTOS AFRO BRAS    20121810 000030
10231987175000168817800093673    000031866                    000318660000000000000109                     I0231866     20121800000000350003410000017N291018104700000000000102012180000000000000000000000000000000000000000100000230182755RITA DE CASSIA RESENDE BASTOS           RUA CAMBUI, 118                         ILHA DO GOVE21911130RIO DE JANEIRO RJUNIAO UMB DOS CULTOS AFRO BRAS    20121810 000031
10231987175000168817800093673    000030791                    000307910000000000000109                     I0230791     20121800000000350003410000017N291018104700000000000102012180000000000000000000000000000000000000000100036920940787MARIA DE FATIMA PREFEITO DOS S          RUA  IPEUVA                             BRAS DE PINA21215400RIO DE JANEIRO RJUNIAO UMB DOS CULTOS AFRO BRAS    20121810 000032
10231987175000168817800093673    000030126                    000301260000000000000109                     I0230126     20121800000000035003410000017N291018104700000000000102012180000000000000000000000000000000000000000100010016543742ALEXANDRE TEIXEIRA CAVALCANTE           RUA DOUTOR NUNES                        OLARIA      21021370RIO DE JANEIRO RJUNIAO UMB DOS CULTOS AFRO BRAS    20121810 000033
10231987175000168817800093673    000029839                    000298390000000000000109                     I0229839     20121800000000035003410000017N291018104700000000000102012180000000000000000000000000000000000000000100094443211772SANDRA LEILA ANACLETO SIQUEIRA          RUA RAUL VEIGA                          QUITANDINHA 25635110PETROPOLIS     RJUNIAO UMB DOS CULTOS AFRO BRAS    20121810 000034
10231987175000168817800093673    000029803                    000298030000000000000109                     I0229803     20121800000000035003410000017N291018104700000000000102012180000000000000000000000000000000000000000100064775640763TANIA CORREA LEITE                      RUA: DOUTOR LUIS GAUDIE LEY             PENHA       21070100RIO DE JANEIRO RJUNIAO UMB DOS CULTOS AFRO BRAS    20121810 000035
10231987175000168817800093673    000028232                    000282320000000000000109                     I0228232     30111800000000035003410000017N200818104700000000000103011180000000000000000000000000000000000000000100010016543742ALEXANDRE TEIXEIRA CAVALCANTE           RUA DOUTOR NUNES                        OLARIA      21021370RIO DE JANEIRO RJUNIAO UMB DOS CULTOS AFRO BRAS    30111810 000036
10231987175000168817800093673    000027925                    000279250000000000000109                     I0227925     30111800000000035003410000017N200818104700000000000103011180000000000000000000000000000000000000000100094443211772SANDRA LEILA ANACLETO SIQUEIRA          RUA RAUL VEIGA                          QUITANDINHA 25635110PETROPOLIS     RJUNIAO UMB DOS CULTOS AFRO BRAS    30111810 000037
10231987175000168817800093673    000027889                    000278890000000000000109                     I0227889     30111800000000035003410000017N200818104700000000000103011180000000000000000000000000000000000000000100064775640763TANIA CORREA LEITE                      RUA: DOUTOR LUIS GAUDIE LEY             PENHA       21070100RIO DE JANEIRO RJUNIAO UMB DOS CULTOS AFRO BRAS    30111810 000038
9                                                                                                                                                                                                                                                                                                                                                                                                         000039
