01REMESSA01COBRANCA       916200163100        União Umb dos Cultos Afro Bra341BANCO ITAU SA  060219                                                                                                                                                                                                                                                                                                      000001
10231987175000168916200163100    000039742                    000397420000000000000109                     I0139742     15021900000000040003410000017N060219104700000000000101502190000000000000000000000000000000000000000100081531095704ROSANA ALMEIDA SILVA                    RUA JOAQUIM MARIANO DE MOURA N 246,     PONTO CHIC  26032840NOVA IGUACU    RJUNIAO UMB DOS CULTOS AFRO BRAS    15021910 000002
9                                                                                                                                                                                                                                                                                                                                                                                                         000003
