01REMESSA01COBRANCA       916200163100        União Umb dos Cultos Afro Bra341BANCO ITAU SA  030419                                                                                                                                                                                                                                                                                                      000001
10231987175000168916200163100    000044988                    000449880000000000000109                     I0144988     30061900000000040003410000017N030419104700000000000103006190000000000000000000000000000000000000000100007660344706LUCIANA DE OLIVEIRA SOUZA               RUA BARBARA LAISN 29, APT 101           VILA LAIS   25581001SAO JOAO DE MERRJUNIAO UMB DOS CULTOS AFRO BRAS    30061910 000002
10231987175000168916200163100    000044987                    000449870000000000000109                     I0144987     30051900000000040003410000017N030419104700000000000103005190000000000000000000000000000000000000000100007660344706LUCIANA DE OLIVEIRA SOUZA               RUA BARBARA LAISN 29, APT 101           VILA LAIS   25581001SAO JOAO DE MERRJUNIAO UMB DOS CULTOS AFRO BRAS    30051910 000003
10231987175000168916200163100    000044986                    000449860000000000000109                     I0144986     30041900000000040003410000017N030419104700000000000103004190000000000000000000000000000000000000000100007660344706LUCIANA DE OLIVEIRA SOUZA               RUA BARBARA LAISN 29, APT 101           VILA LAIS   25581001SAO JOAO DE MERRJUNIAO UMB DOS CULTOS AFRO BRAS    30041910 000004
10231987175000168916200163100    000044985                    000449850000000000000109                     I0144985     30061900000000040003410000017N030419104700000000000103006190000000000000000000000000000000000000000100066385881768MADALENA ESPERANCA PINTO                PRAIA DA GUANABARAN 1299,               FREGUESIA (I21911090RIO DE JANEIRO RJUNIAO UMB DOS CULTOS AFRO BRAS    30061910 000005
10231987175000168916200163100    000044984                    000449840000000000000109                     I0144984     30051900000000040003410000017N030419104700000000000103005190000000000000000000000000000000000000000100066385881768MADALENA ESPERANCA PINTO                PRAIA DA GUANABARAN 1299,               FREGUESIA (I21911090RIO DE JANEIRO RJUNIAO UMB DOS CULTOS AFRO BRAS    30051910 000006
10231987175000168916200163100    000044983                    000449830000000000000109                     I0144983     30061900000000060003410000017N030419104700000000000103006190000000000000000000000000000000000000000100088763765772VERONICA CECILIA DE AGUIAR              RUA LAURELINO FREIREN 101, CASA 7       GUAXINDIBA  24722330SAO GONCALO    RJUNIAO UMB DOS CULTOS AFRO BRAS    30061910 000007
10231987175000168916200163100    000044982                    000449820000000000000109                     I0144982     30051900000000060003410000017N030419104700000000000103005190000000000000000000000000000000000000000100088763765772VERONICA CECILIA DE AGUIAR              RUA LAURELINO FREIREN 101, CASA 7       GUAXINDIBA  24722330SAO GONCALO    RJUNIAO UMB DOS CULTOS AFRO BRAS    30051910 000008
10231987175000168916200163100    000044981                    000449810000000000000109                     I0144981     30041900000000060003410000017N030419104700000000000103004190000000000000000000000000000000000000000100088763765772VERONICA CECILIA DE AGUIAR              RUA LAURELINO FREIREN 101, CASA 7       GUAXINDIBA  24722330SAO GONCALO    RJUNIAO UMB DOS CULTOS AFRO BRAS    30041910 000009
10231987175000168916200163100    000044123                    000441230000000000000109                     I0244123     30061900000000040003410000017N130319104700000000000103006190000000000000000000000000000000000000000100001868270750CARLOS ALBERTO DO NASCIMENTO L          RUA: GUARABUN 70,                       INHAUMA     20761060RIO DE JANEIRO RJUNIAO UMB DOS CULTOS AFRO BRAS    30061910 000010
10231987175000168916200163100    000043571                    000435710000000000000109                     I0243571     30061900000000040003410000017N130319104700000000000103006190000000000000000000000000000000000000000100000905106741RICARDO DE SOUZA GOUVEA                 RUA: DOS ARAUJON 0, LOTE 6 QUADRA 8     PARQUE FLUMI26185260BELFORD ROXO   RJUNIAO UMB DOS CULTOS AFRO BRAS    30061910 000011
10231987175000168916200163100    000043040                    000430400000000000000109                     I0243040     30051900000000040003410000017N130319104700000000000103005190000000000000000000000000000000000000000100001786216760WASHINGTON FERNANDO DA CONCEIC          RUA DONA ELVIRAN 0, LOTE 18 QUADRA 61 CANOVO HORIZON25937112MAGE           RJUNIAO UMB DOS CULTOS AFRO BRAS    30051910 000012
10231987175000168916200163100    000042477                    000424770000000000000109                     I0242477     30051900000000040003410000017N130319104700000000000103005190000000000000000000000000000000000000000100001868270750CARLOS ALBERTO DO NASCIMENTO L          RUA: GUARABUN 70,                       INHAUMA     20761060RIO DE JANEIRO RJUNIAO UMB DOS CULTOS AFRO BRAS    30051910 000013
10231987175000168916200163100    000041927                    000419270000000000000109                     I0241927     30051900000000040003410000017N130319104700000000000103005190000000000000000000000000000000000000000100000905106741RICARDO DE SOUZA GOUVEA                 RUA: DOS ARAUJON 0, LOTE 6 QUADRA 8     PARQUE FLUMI26185260BELFORD ROXO   RJUNIAO UMB DOS CULTOS AFRO BRAS    30051910 000014
10231987175000168916200163100    000041398                    000413980000000000000109                     I0241398     30041900000000040003410000017N120319104700000000000103004190000000000000000000000000000000000000000100001786216760WASHINGTON FERNANDO DA CONCEIC          RUA DONA ELVIRAN 0, LOTE 18 QUADRA 61 CANOVO HORIZON25937112MAGE           RJUNIAO UMB DOS CULTOS AFRO BRAS    30041910 000015
10231987175000168916200163100    000041163                    000411630000000000000109                     I0241163     30041900000000040003410000017N120319104700000000000103004190000000000000000000000000000000000000000100003346596710ROSILENI ROSA DA SILVA                  RUA SOARES TAVARESN 133,                ITAIPU      24342110NITEROI        RJUNIAO UMB DOS CULTOS AFRO BRAS    30041910 000016
10231987175000168916200163100    000040840                    000408400000000000000109                     I0240840     30041900000000040003410000017N120319104700000000000103004190000000000000000000000000000000000000000100001868270750CARLOS ALBERTO DO NASCIMENTO L          RUA: GUARABUN 70,                       INHAUMA     20761060RIO DE JANEIRO RJUNIAO UMB DOS CULTOS AFRO BRAS    30041910 000017
10231987175000168916200163100    000040674                    000406740000000000000109                     I0240674     30041900000000040003410000017N120319104700000000000103004190000000000000000000000000000000000000000100048357480772MARIA DE FATIMA FRANCO DE LIMA          RUA DONA CORINA N 285,                  PIABETA     25935718MAGE           RJUNIAO UMB DOS CULTOS AFRO BRAS    30041910 000018
10231987175000168916200163100    000040293                    000402930000000000000109                     I0240293     30041900000000040003410000017N120319104700000000000103004190000000000000000000000000000000000000000100000905106741RICARDO DE SOUZA GOUVEA                 RUA: DOS ARAUJON 0, LOTE 6 QUADRA 8     PARQUE FLUMI26185260BELFORD ROXO   RJUNIAO UMB DOS CULTOS AFRO BRAS    30041910 000019
9                                                                                                                                                                                                                                                                                                                                                                                                         000020
