01REMESSA01COBRANCA       817800093673        União Umb dos Cultos Afro Bra341BANCO ITAU SA  230519                                                                                                                                                                                                                                                                                                      000001
10231987175000168817800093673    000045304                    000453040000000000000109                     I0145304     20061900000000350003410000017N230519105700000000000102006190000000000000000000000000000000000000000100003591710792NILDA MARIA JOSE DE LIMA                RUA: GERALDO DE ALMEIDAN 185,           DORANDIA    27160000BARRA DO PIRAI RJUNIAO UMB DOS CULTOS AFRO BRAS    20061915 000002
10231987175000168817800093673    000045303                    000453030000000000000109                     I0145303     30061900000000040003410000017N230519105700000000000103006190000000000000000000000000000000000000000100008578432738WANDERSON DOS SANTOS LOPES              RUA SATURNO N 0, QUADRA 12 LOTE 16      VILA GENI   23825517COROA GRANDE   RJUNIAO UMB DOS CULTOS AFRO BRAS    30061915 000003
10231987175000168817800093673    000045302                    000453020000000000000109                     I0145302     30061900000000040003410000017N230519105700000000000103006190000000000000000000000000000000000000000100008899626774LEONARDO JOAQUIM                        ESTRADA DOS VIEIRAS - RUA DAS FLORESN 30PACIENCIA   23587610RIO DE JANEIRO RJUNIAO UMB DOS CULTOS AFRO BRAS    30061915 000004
10231987175000168817800093673    000045301                    000453010000000000000109                     I0145301     30061900000000040003410000017N230519105700000000000103006190000000000000000000000000000000000000000100052122832720ANTONIO JOVINO FELIX                    ESTRADA DOS VIEIRAS - RUA 8 N 105,      PACIENCIA   23587610RIO DE JANEIRO RJUNIAO UMB DOS CULTOS AFRO BRAS    30061915 000005
10231987175000168817800093673    000045300                    000453000000000000000109                     I0145300     30061900000000040003410000017N230519105700000000000103006190000000000000000000000000000000000000000100009931437766FABIO OLIVEIRA WANDERMUREM DE           RUA SAO BERNARDON 113,                  RICARDO DE A21620560RIO DE JANEIRO RJUNIAO UMB DOS CULTOS AFRO BRAS    30061915 000006
10231987175000168817800093673    000037847                    000378470000000000000109                     I0237847     30031900000000040003410000017N261218105700000000000103003190000000000000000000000000000000000000000100005689170739KATIA SILENE MACEDO DOS SANTOS          RUA EUCLIDES ROXON 185,                 REALENGO    21765590RIO DE JANEIRO RJUNIAO UMB DOS CULTOS AFRO BRAS    30031915 000007
10231987175000168817800093673    000037646                    000376460000000000000109                     I0237646     30031900000000040003410000017N261218105700000000000103003190000000000000000000000000000000000000000218374653000104ASSOCIACAO INZO NKOSI                   RUA: MARQUES CANARION 725,              NOSSA SENHOR26520770NILOPOLIS      RJUNIAO UMB DOS CULTOS AFRO BRAS    30031915 000008
10231987175000168817800093673    000037603                    000376030000000000000109                     I0237603     30031900000000040003410000017N261218105700000000000103003190000000000000000000000000000000000000000100069381933715NEUSA CAMPOS BRITO PINTO                RUA XAVIER PINHEIRON 525,               VIGARIO GERA21241320RIO DE JANEIRO RJUNIAO UMB DOS CULTOS AFRO BRAS    30031915 000009
10231987175000168817800093673    000037522                    000375220000000000000109                     I0237522     30031900000000040003410000017N261218105700000000000103003190000000000000000000000000000000000000000100031569250715JORGE FRANCISCO SANTOS                  RUA EXPEDICIONARIO SEBASTIAO RIBEIRON 14COLUBANDE   24451710SAO GONCALO    RJUNIAO UMB DOS CULTOS AFRO BRAS    30031915 000010
9                                                                                                                                                                                                                                                                                                                                                                                                         000011
