01REMESSA01COBRANCA       817800093673        União Umb dos Cultos Afro Bra341BANCO ITAU SA  050218                                                                                                                                                                                                                                                                                                      000001
10231987175000168817800093673    00008301                     000083010000000000000109                     I028301      28021800000000035003410000017N291217104700000000000102802180000000000000000000000000000000000000000100011790209790NOILDA SANTIAGO DA SILVA                RUA ADRIANA N 203 FUNDOS                VALVERDE - N26290645NOVA IGUACU    RJUNIAO UMB DOS CULTOS AFRO BRAS    28021810 000002
10231987175000168817800093673    00008167                     000081670000000000000109                     I028167      28021800000000035003410000017N291217104700000000000102802180000000000000000000000000000000000000000100078348048715CRISTIANE MARIA CARROZINO GAUD          ESTRADA DO DENDE, 1148 APTO 102         MONERO - ILH21920001RIO DE JANEIRO RJUNIAO UMB DOS CULTOS AFRO BRAS    28021810 000003
10231987175000168817800093673    00008145                     000081450000000000000109                     I028145      28021800000000035003410000017N291217104700000000000102802180000000000000000000000000000000000000000100010373820720ELTON LUIZ DAS NEVES CATARINO           RUA TURMALINA,  LOTE 33 QUADRA 48 - ANTIJD CATARINA 24715670SAO GONCALO    RJUNIAO UMB DOS CULTOS AFRO BRAS    28021810 000004
10231987175000168817800093673    00007278                     000072780000000000000109                     I027278      28021800000000035003410000017N271217104700000000000102802180000000000000000000000000000000000000000100002621693717JUREMA DE OLIVEIRA RODRIGUES            ESTRADA INTENDENTE MAGALHAES N 196 APT 1CAMPINHO - R21341330RIO DE JANEIRO RJUNIAO UMB DOS CULTOS AFRO BRAS    28021810 000005
10231987175000168817800093673    00006835                     000068350000000000000109                     I026835      28021800000000035003410000017N271217104700000000000102802180000000000000000000000000000000000000000200026135911746ELINDOMAR JORGE DA COSTA                RUA ITUVERAVA, 108 LOTE 10 QUADRA 1     MONJOLO - SA24724800SAO GONCALO    RJUNIAO UMB DOS CULTOS AFRO BRAS    28021810 000006
10231987175000168817800093673    00006753                     000067530000000000000109                     I026753      28021800000000035003410000017N271217104700000000000102802180000000000000000000000000000000000000000100070175225753LEDA FERREIRA FIGUEIREDO                O MESMO                                 O MESMO     21331420RIO DE JANEIRO RJUNIAO UMB DOS CULTOS AFRO BRAS    28021810 000007
10231987175000168817800093673    00006440                     000064400000000000000109                     I026440      28021800000000035003410000017N271217104700000000000102802180000000000000000000000000000000000000000100062792920700LUIZ CESAR DE OLIVEIRA                  RUA PEREIRA DE FIGUEIREDO, 627          OSWALDO CRUZ21340030RIO DE JANEIRO RJUNIAO UMB DOS CULTOS AFRO BRAS    28021810 000008
10231987175000168817800093673    00006331                     000063310000000000000109                     I026331      28021800000000035003410000017N271217104700000000000102802180000000000000000000000000000000000000000100008763637707JUSSARA SILVA DE ALBUQUERQUE            RUA: ARGOS Nº 281 FUNDOS - GUADALUPE   RIO DE JANEI21660050RIO DE JANEIRO RJUNIAO UMB DOS CULTOS AFRO BRAS    28021810 000009
10231987175000168817800093673    00006121                     000061210000000000000109                     I026121      28021800000000035003410000017N271217104700000000000102802180000000000000000000000000000000000000000100048685917700CELIO DO NASCIMENTO                     RUA DO CATETE, 123 CASA 4 APTO 101      CATETE - RIO22220000RIO DE JANEIRO RJUNIAO UMB DOS CULTOS AFRO BRAS    28021810 000010
10231987175000168817800093673    00006028                     000060280000000000000109                     I026028      31011800000000035003410000017N261217104700000000000103101180000000000000000000000000000000000000000100002621693717JUREMA DE OLIVEIRA RODRIGUES            ESTRADA INTENDENTE MAGALHAES N 196 APT 1CAMPINHO - R21341330RIO DE JANEIRO RJUNIAO UMB DOS CULTOS AFRO BRAS    31011810 000011
10231987175000168817800093673    00005973                     000059730000000000000109                     I025973      31011800000000035003410000017N261217104700000000000103101180000000000000000000000000000000000000000100014520518792STEPHANI MATOS MONTEIRO                 ESTRADA DOUTOR PLINIO CASADO N 3599     CENTRO - BEL26130622BELFORD ROXO   RJUNIAO UMB DOS CULTOS AFRO BRAS    31011810 000012
10231987175000168817800093673    00005585                     000055850000000000000109                     I025585      31011800000000035003410000017N261217104700000000000103101180000000000000000000000000000000000000000200026135911746ELINDOMAR JORGE DA COSTA                RUA ITUVERAVA, 108 LOTE 10 QUADRA 1     MONJOLO - SA24724800SAO GONCALO    RJUNIAO UMB DOS CULTOS AFRO BRAS    31011810 000013
10231987175000168817800093673    00005549                     000055490000000000000109                     I025549      31011800000000035003410000017N261217104700000000000103101180000000000000000000000000000000000000000100010591612739ROSEMERE SOUZA DA SILVA                 O MESMO                                 O MESMO     21230354RIO DE JANEIRO RJUNIAO UMB DOS CULTOS AFRO BRAS    31011810 000014
10231987175000168817800093673    00005503                     000055030000000000000109                     I025503      31011800000000035003410000017N261217104700000000000103101180000000000000000000000000000000000000000100070175225753LEDA FERREIRA FIGUEIREDO                O MESMO                                 O MESMO     21331420RIO DE JANEIRO RJUNIAO UMB DOS CULTOS AFRO BRAS    31011810 000015
10231987175000168817800093673    00005253                     000052530000000000000109                     I025253      31011800000000035003410000017N261217104700000000000103101180000000000000000000000000000000000000000100043194869787JORGE PINHEIRO DE ALMEIDA               RUA CERQUEIRA CESAR N 121 CASA 1        MADUREIRA - 21351070RIO DE JANEIRO RJUNIAO UMB DOS CULTOS AFRO BRAS    31011810 000016
10231987175000168817800093673    00005190                     000051900000000000000109                     I025190      31011800000000035003410000017N261217104700000000000103101180000000000000000000000000000000000000000100062792920700LUIZ CESAR DE OLIVEIRA                  RUA PEREIRA DE FIGUEIREDO, 627          OSWALDO CRUZ21340030RIO DE JANEIRO RJUNIAO UMB DOS CULTOS AFRO BRAS    31011810 000017
10231987175000168817800093673    00005081                     000050810000000000000109                     I025081      31011800000000035003410000017N261217104700000000000103101180000000000000000000000000000000000000000100008763637707JUSSARA SILVA DE ALBUQUERQUE            RUA: ARGOS Nº 281 FUNDOS - GUADALUPE   RIO DE JANEI21660050RIO DE JANEIRO RJUNIAO UMB DOS CULTOS AFRO BRAS    31011810 000018
10231987175000168817800093673    00004871                     000048710000000000000109                     I024871      31011800000000035003410000017N261217104700000000000103101180000000000000000000000000000000000000000100048685917700CELIO DO NASCIMENTO                     RUA DO CATETE, 123 CASA 4 APTO 101      CATETE - RIO22220000RIO DE JANEIRO RJUNIAO UMB DOS CULTOS AFRO BRAS    31011810 000019
10231987175000168817800093673    00004868                     000048680000000000000109                     I024868      31011800000000035003410000017N261217104700000000000103101180000000000000000000000000000000000000000100053011783772MARIA APARECIDA DA SILVA                RUA JOANA RESENDE, 61 - FAZENDA CAXIAS  SEROPEDICA -23836380RIO DE JANEIRO RJUNIAO UMB DOS CULTOS AFRO BRAS    31011810 000020
10231987175000168817800093673    00001662                     000016620000000000000109                     I021662      20121700000000400003410000017N301017104700000000000102012170000000000000000000000000000000000000000100070175225753LEDA FERREIRA FIGUEIREDO                O MESMO                                 O MESMO     21331420RIO DE JANEIRO RJUNIAO UMB DOS CULTOS AFRO BRAS    20121710 000021
10231987175000168817800093673    00001513                     000015130000000000000109                     I021513      20121700000000210003410000017N251017104700000000000102012170000000000000000000000000000000000000000100007361878717KATIA ARANDA DO NASCIMENTO              RUA DAS ARARAS CLARAS  75               COLONIA JACA22713581RIO DE JANEIRO RJUNIAO UMB DOS CULTOS AFRO BRAS    20121710 000022
10231987175000168817800093673    00001408                     000014080000000000000109                     I021408      20121700000000400003410000017N241017104700000000000102012170000000000000000000000000000000000000000100047657383704JAIR LOURENCO DE LIMA                   O MESMO                                 O MESMO     25640340PETROPOLIS     RJUNIAO UMB DOS CULTOS AFRO BRAS    20121710 000023
10231987175000168817800093673    0000988                      000009880000000000000109                     I02988       20121700000000340003410000017N171017104700000000000102012170000000000000000000000000000000000000000100002621693717JUREMA DE OLIVEIRA RODRIGUES            ESTRADA INTENDENTE MAGALHAES N 196 APT 1CAMPINHO - R21341330RIO DE JANEIRO RJUNIAO UMB DOS CULTOS AFRO BRAS    20121710 000024
10231987175000168817800093673    0000863                      000008630000000000000109                     I02863       20121700000000350003410000017N171017104700000000000102012170000000000000000000000000000000000000000100010373820720ELTON LUIZ DAS NEVES CATARINO           RUA TURMALINA,  LOTE 33 QUADRA 48 - ANTIJD CATARINA 24715670SAO GONCALO    RJUNIAO UMB DOS CULTOS AFRO BRAS    20121710 000025
10231987175000168817800093673    0000763                      000007630000000000000109                     I02763       20121700000000340003410000017N171017104700000000000102012170000000000000000000000000000000000000000100002248004770ROSANE ALVES DE AZEVEDO                 RUA W, 14 LOTE 180 CASA 1               LAGOMAR - MA27970130MACAE          RJUNIAO UMB DOS CULTOS AFRO BRAS    20121710 000026
10231987175000168817800093673    0000500                      000005000000000000000109                     I02500       20121700000000340003410000017N101017104700000000000102012170000000000000000000000000000000000000000100011790209790NOILDA SANTIAGO DA SILVA                RUA ADRIANA N 203 FUNDOS                VALVERDE - N26290645NOVA IGUACU    RJUNIAO UMB DOS CULTOS AFRO BRAS    20121710 000027
10231987175000168817800093673    0000291                      000002910000000000000109                     I02291       20121700000000340003410000017N101017104700000000000102012170000000000000000000000000000000000000000100061692000730JOAQUIM PEIXOTO                         RUA W 14 LOTE 180 CASA 1                LAGOMAR - MA27970130MACAE          RJUNIAO UMB DOS CULTOS AFRO BRAS    20121710 000028
10231987175000168817800093673    0000173                      000001730000000000000109                     I02173       20121700000000350003410000017N101017104700000000000102012170000000000000000000000000000000000000000100078348048715CRISTIANE MARIA CARROZINO GAUD          ESTRADA DO DENDE, 1148 APTO 102         MONERO - ILH21920001RIO DE JANEIRO RJUNIAO UMB DOS CULTOS AFRO BRAS    20121710 000029
9                                                                                                                                                                                                                                                                                                                                                                                                         000030
