01REMESSA01COBRANCA       916200163100        União Umb dos Cultos Afro Bra341BANCO ITAU SA  260618                                                                                                                                                                                                                                                                                                      000001
10231987175000168916200163100    000021123                    000211230000000000000109                     I0221123     10061800000000175003410000017N290518104700000000000101006180000000000000000000000000000000000000000100069833850715WALTER LIMA DE AVELLAR                  RUA SAO JOSE, S/N QUADRA 47 LOTE 19     ITAIPUACU - 24900000MARICA         RJUNIAO UMB DOS CULTOS AFRO BRAS    10061810 000002
10231987175000168916200163100    000020776                    000207760000000000000109                     I0220776     30081800000000035003410000017N070518104700000000000103008180000000000000000000000000000000000000000100007337231792SAMANTHA PRISCILA MARQUES MORE          RUA INSPETOR CASTRO                     SARACURUNA  25211410DUQUE DE CAXIASRJUNIAO UMB DOS CULTOS AFRO BRAS    30081810 000003
10231987175000168916200163100    000020751                    000207510000000000000109                     I3420751     30081800000000035003410000017N070518104700000000000103008180000000000000000000000000000000000000000100010154945790SIMONE DE OLIVEIRA CUNHA                RUA ONZE                                JARDIM ROTSE25270080DUQUE DE CAXIASRJUNIAO UMB DOS CULTOS AFRO BRAS    30081810 000004
10231987175000168916200163100    000020468                    000204680000000000000109                     I0220468     30081800000000035003410000017N070518104700000000000103008180000000000000000000000000000000000000000100013513344890LUCIANO MAURICIO ESTEVES OSTER          ESTRADA ANTONIO DOS REIS CARNEIRO       SAO JOSE    26193320BELFORD ROXO   RJUNIAO UMB DOS CULTOS AFRO BRAS    30081810 000005
10231987175000168916200163100    000020006                    000200060000000000000109                     I0220006     30081800000000035003410000017N070518104700000000000103008180000000000000000000000000000000000000000100002486800727MARCIA REGINA DA SILVA SANTOS           RUA JACIRENDI                           COLEGIO     21545290RIO DE JANEIRO RJUNIAO UMB DOS CULTOS AFRO BRAS    30081810 000006
10231987175000168916200163100    000019743                    000197430000000000000109                     I0219743     30081800000000035003410000017N070518104700000000000103008180000000000000000000000000000000000000000100063607379734FATIMA CONCEICAO GONCALVES DA           RUA: AMANDIU                            IRAJA       21371440RIO DE JANEIRO RJUNIAO UMB DOS CULTOS AFRO BRAS    30081810 000007
10231987175000168916200163100    000019469                    000194690000000000000109                     I3419469     30081800000000035003410000017N070518104700000000000103008180000000000000000000000000000000000000000100001799273709ANSELMO FERREIRA DEGENAR                RUA CARLOS LACERDA LOTE 11 QUADRA 16    JARDIM DA PO00000000RIO DE JANEIRO RJUNIAO UMB DOS CULTOS AFRO BRAS    30081810 000008
10231987175000168916200163100    000019206                    000192060000000000000109                     I0219206     30071800000000035003410000017N070518104700000000000103007180000000000000000000000000000000000000000100007337231792SAMANTHA PRISCILA MARQUES MORE          RUA INSPETOR CASTRO                     SARACURUNA  25211410DUQUE DE CAXIASRJUNIAO UMB DOS CULTOS AFRO BRAS    30071810 000009
10231987175000168916200163100    000019181                    000191810000000000000109                     I3419181     30071800000000035003410000017N070518104700000000000103007180000000000000000000000000000000000000000100010154945790SIMONE DE OLIVEIRA CUNHA                RUA ONZE                                JARDIM ROTSE25270080DUQUE DE CAXIASRJUNIAO UMB DOS CULTOS AFRO BRAS    30071810 000010
10231987175000168916200163100    000018898                    000188980000000000000109                     I0218898     30071800000000035003410000017N070518104700000000000103007180000000000000000000000000000000000000000100013513344890LUCIANO MAURICIO ESTEVES OSTER          ESTRADA ANTONIO DOS REIS CARNEIRO       SAO JOSE    26193320BELFORD ROXO   RJUNIAO UMB DOS CULTOS AFRO BRAS    30071810 000011
10231987175000168916200163100    000018436                    000184360000000000000109                     I0218436     30071800000000035003410000017N070518104700000000000103007180000000000000000000000000000000000000000100002486800727MARCIA REGINA DA SILVA SANTOS           RUA JACIRENDI                           COLEGIO     21545290RIO DE JANEIRO RJUNIAO UMB DOS CULTOS AFRO BRAS    30071810 000012
10231987175000168916200163100    000018265                    000182650000000000000109                     I3418265     30071800000000035003410000017N070518104700000000000103007180000000000000000000000000000000000000000100000308305752MAGDA DA SILVA DINELLY                  ESTRADA DO CASOROTIBA, RUA G N 768 (CONDINOA - MARIC24900000RIO DE JANEIRO RJUNIAO UMB DOS CULTOS AFRO BRAS    30071810 000013
10231987175000168916200163100    000018173                    000181730000000000000109                     I0218173     30071800000000035003410000017N070518104700000000000103007180000000000000000000000000000000000000000100063607379734FATIMA CONCEICAO GONCALVES DA           RUA: AMANDIU                            IRAJA       21371440RIO DE JANEIRO RJUNIAO UMB DOS CULTOS AFRO BRAS    30071810 000014
10231987175000168916200163100    000017899                    000178990000000000000109                     I3417899     30071800000000035003410000017N070518104700000000000103007180000000000000000000000000000000000000000100001799273709ANSELMO FERREIRA DEGENAR                RUA CARLOS LACERDA LOTE 11 QUADRA 16    JARDIM DA PO00000000RIO DE JANEIRO RJUNIAO UMB DOS CULTOS AFRO BRAS    30071810 000015
10231987175000168916200163100    000016016                    000160160000000000000109                     I0216016     30061800000000035003410000017N070518104700000000000103006180000000000000000000000000000000000000000100007337231792SAMANTHA PRISCILA MARQUES MORE          RUA INSPETOR CASTRO                     SARACURUNA  25211410DUQUE DE CAXIASRJUNIAO UMB DOS CULTOS AFRO BRAS    30061810 000016
10231987175000168916200163100    000015991                    000159910000000000000109                     I3415991     30061800000000035003410000017N070518104700000000000103006180000000000000000000000000000000000000000100010154945790SIMONE DE OLIVEIRA CUNHA                RUA ONZE                                JARDIM ROTSE25270080DUQUE DE CAXIASRJUNIAO UMB DOS CULTOS AFRO BRAS    30061810 000017
10231987175000168916200163100    000015846                    000158460000000000000109                     I3415846     30061800000000035003410000017N070518104700000000000103006180000000000000000000000000000000000000000100005646881773DEBORA LINS                             RUA LACONIA N 89 CASA 3                 JARDIM AMAPA26182230BELFORD ROXO   RJUNIAO UMB DOS CULTOS AFRO BRAS    30061810 000018
10231987175000168916200163100    000015708                    000157080000000000000109                     I0215708     30061800000000035003410000017N070518104700000000000103006180000000000000000000000000000000000000000100013513344890LUCIANO MAURICIO ESTEVES OSTER          ESTRADA ANTONIO DOS REIS CARNEIRO       SAO JOSE    26193320BELFORD ROXO   RJUNIAO UMB DOS CULTOS AFRO BRAS    30061810 000019
10231987175000168916200163100    000015247                    000152470000000000000109                     I0215247     30061800000000035003410000017N070518104700000000000103006180000000000000000000000000000000000000000100002486800727MARCIA REGINA DA SILVA SANTOS           RUA JACIRENDI                           COLEGIO     21545290RIO DE JANEIRO RJUNIAO UMB DOS CULTOS AFRO BRAS    30061810 000020
10231987175000168916200163100    000015234                    000152340000000000000109                     I0215234     30061800000000035003410000017N070518104700000000000103006180000000000000000000000000000000000000000100060471859753MARLENE IBRAIN                          RUA: DOUTOR ALVARO DA PAIXAO JR         PARQUE AEROP27971180MACAE          RJUNIAO UMB DOS CULTOS AFRO BRAS    30061810 000021
10231987175000168916200163100    000015076                    000150760000000000000109                     I3415076     30061800000000035003410000017N070518104700000000000103006180000000000000000000000000000000000000000100000308305752MAGDA DA SILVA DINELLY                  ESTRADA DO CASOROTIBA, RUA G N 768 (CONDINOA - MARIC24900000RIO DE JANEIRO RJUNIAO UMB DOS CULTOS AFRO BRAS    30061810 000022
10231987175000168916200163100    000014984                    000149840000000000000109                     I0214984     30061800000000035003410000017N070518104700000000000103006180000000000000000000000000000000000000000100063607379734FATIMA CONCEICAO GONCALVES DA           RUA: AMANDIU                            IRAJA       21371440RIO DE JANEIRO RJUNIAO UMB DOS CULTOS AFRO BRAS    30061810 000023
10231987175000168916200163100    000014932                    000149320000000000000109                     I3414932     30061800000000035003410000017N070518104700000000000103006180000000000000000000000000000000000000000100062792920700LUIZ CESAR DE OLIVEIRA                  RUA PEREIRA DE FIGUEIREDO, 627          OSWALDO CRUZ21340030RIO DE JANEIRO RJUNIAO UMB DOS CULTOS AFRO BRAS    30061810 000024
10231987175000168916200163100    000014406                    000144060000000000000109                     I0214406     30051800000000035003410000017N160418104700000000000103005180000000000000000000000000000000000000000100005436665730JORGE LUIZ VICTORIO LIMA                MARCOVALDI                              NOVA ESPERAN26113040BELFORD ROXO   RJUNIAO UMB DOS CULTOS AFRO BRAS    30051810 000025
9                                                                                                                                                                                                                                                                                                                                                                                                         000026
