01REMESSA01COBRANCA       817800093673        União Umb dos Cultos Afro Bra341BANCO ITAU SA  180119                                                                                                                                                                                                                                                                                                      000001
10231987175000168817800093673    000039619                    000396190000000000000109                     I0139619     08021900000000105003410000017N180119104700000000000100802190000000000000000000000000000000000000000100074624792734MARILZA COSTA FERREIRA                  RUA ANTONIO JOAO                        CORDOVIL    21250150RIO DE JANEIRO RJUNIAO UMB DOS CULTOS AFRO BRAS    08021910 000002
10231987175000168817800093673    000039618                    000396180000000000000109                     I0139618     31011900000000245003410000017N180119104700000000000103101190000000000000000000000000000000000000000100012687881716DAIANA SANTANA DE LIMA                  RUA MANAUS                              CAMPOS ELISE25225000DUQUE DE CAXIASRJUNIAO UMB DOS CULTOS AFRO BRAS    31011910 000003
10231987175000168817800093673    000039617                    000396170000000000000109                     I0139617     21011900000000350003410000017N180119104700000000000102101190000000000000000000000000000000000000000100002167919794ANDERSON CLEI BRANDAO TEIXEIRA          ESTRADA DO CANTAGALO                    CAMPO GRANDE23036440RIO DE JANEIRO RJUNIAO UMB DOS CULTOS AFRO BRAS    21011910 000004
10231987175000168817800093673    000039616                    000396160000000000000109                     I0139616     08021900000000280003410000017N180119104700000000000100802190000000000000000000000000000000000000000100008133276799AROLDO VAZ DE COSTA                     AVENIDA SAO JOAO DE MERITI              JARDIM METRO25571161SAO JOAO DE MERRJUNIAO UMB DOS CULTOS AFRO BRAS    08021910 000005
10231987175000168817800093673    000039615                    000396150000000000000109                     I0139615     31031900000000040003410000017N180119104700000000000103103190000000000000000000000000000000000000000100079448712715ADELINA GONCALVES                       AVENIDA JOAQUIM CAMARA FERREIRA         VILA KENEDY 21850180RIO DE JANEIRO RJUNIAO UMB DOS CULTOS AFRO BRAS    31031910 000006
10231987175000168817800093673    000039614                    000396140000000000000109                     I0139614     28021900000000040003410000017N180119104700000000000102802190000000000000000000000000000000000000000100079448712715ADELINA GONCALVES                       AVENIDA JOAQUIM CAMARA FERREIRA         VILA KENEDY 21850180RIO DE JANEIRO RJUNIAO UMB DOS CULTOS AFRO BRAS    28021910 000007
10231987175000168817800093673    000039613                    000396130000000000000109                     I0139613     31011900000000040003410000017N180119104700000000000103101190000000000000000000000000000000000000000100079448712715ADELINA GONCALVES                       AVENIDA JOAQUIM CAMARA FERREIRA         VILA KENEDY 21850180RIO DE JANEIRO RJUNIAO UMB DOS CULTOS AFRO BRAS    31011910 000008
10231987175000168817800093673    000039612                    000396120000000000000109                     I0139612     24011900000000350003410000017N180119104700000000000102401190000000000000000000000000000000000000000100000695677720MARIA DE LOURDES SILVA                  RUA ROCHA LIMA                          SANTA RITA  26050540NOVA IGUACU    RJUNIAO UMB DOS CULTOS AFRO BRAS    24011910 000009
10231987175000168817800093673    000039611                    000396110000000000000109                     I0139611     25011900000000350003410000017N180119104700000000000102501190000000000000000000000000000000000000000100008774131770CLEYSON MANHAES NERY                    RUA CORONEL BARROS                      PARQUE SARAI28110000CAMPO DOS GOYTARJUNIAO UMB DOS CULTOS AFRO BRAS    25011910 000010
10231987175000168817800093673    000039187                    000391870000000000000109                     I0239187     30031900000000040003410000017N261218104700000000000103003190000000000000000000000000000000000000000100000227210700ROSIMAR TELLES DE SA                    RUA ACAPU                               MARECHAL HER21550570RIO DE JANEIRO RJUNIAO UMB DOS CULTOS AFRO BRAS    30031910 000011
10231987175000168817800093673    000038448                    000384480000000000000109                     I0238448     30031900000000040003410000017N261218104700000000000103003190000000000000000000000000000000000000000100079448712715ADELINA GONCALVES                       AVENIDA JOAQUIM CAMARA FERREIRA         VILA KENEDY 21850180RIO DE JANEIRO RJUNIAO UMB DOS CULTOS AFRO BRAS    30031910 000012
10231987175000168817800093673    000037268                    000372680000000000000109                     I0237268     28021900000000040003410000017N261218104700000000000102802190000000000000000000000000000000000000000100000227210700ROSIMAR TELLES DE SA                    RUA ACAPU                               MARECHAL HER21550570RIO DE JANEIRO RJUNIAO UMB DOS CULTOS AFRO BRAS    28021910 000013
10231987175000168817800093673    000036531                    000365310000000000000109                     I0236531     28021900000000040003410000017N261218104700000000000102802190000000000000000000000000000000000000000100079448712715ADELINA GONCALVES                       AVENIDA JOAQUIM CAMARA FERREIRA         VILA KENEDY 21850180RIO DE JANEIRO RJUNIAO UMB DOS CULTOS AFRO BRAS    28021910 000014
10231987175000168817800093673    000035355                    000353550000000000000109                     I0235355     31011900000000040003410000017N261218104700000000000103101190000000000000000000000000000000000000000100000227210700ROSIMAR TELLES DE SA                    RUA ACAPU                               MARECHAL HER21550570RIO DE JANEIRO RJUNIAO UMB DOS CULTOS AFRO BRAS    31011910 000015
10231987175000168817800093673    000034622                    000346220000000000000109                     I0234622     31011900000000040003410000017N261218104700000000000103101190000000000000000000000000000000000000000100079448712715ADELINA GONCALVES                       AVENIDA JOAQUIM CAMARA FERREIRA         VILA KENEDY 21850180RIO DE JANEIRO RJUNIAO UMB DOS CULTOS AFRO BRAS    31011910 000016
10231987175000168817800093673    000033682                    000336820000000000000109                     I0233682     31011900000000040003410000017N261218104700000000000103101190000000000000000000000000000000000000000100005412696740MONICA MIRALHA MESSINA                  RUA JOAQUIM NORBERTO                    CAVALCANTI  21370350RIO DE JANEIRO RJUNIAO UMB DOS CULTOS AFRO BRAS    31011910 000017
10231987175000168817800093673    000033203                    000332030000000000000109                     I0233203     20121800000000350003410000017N291018104700000000000102012180000000000000000000000000000000000000000100004474665775REGINALDO RAMOS DA SILVA                RUA JULIO DE CASTILHOS                  JARDIM ROTSE25270210DUQUE DE CAXIASRJUNIAO UMB DOS CULTOS AFRO BRAS    20121810 000018
10231987175000168817800093673    000033195                    000331950000000000000109                     I0233195     20121800000000350003410000017N291018104700000000000102012180000000000000000000000000000000000000000100069852219715GREIZI DE CARVALHO CARVALHAES           RUA BUENOS AIRES                        JARDIM PERNA26275390NOVA IGUACU    RJUNIAO UMB DOS CULTOS AFRO BRAS    20121810 000019
10231987175000168817800093673    000033188                    000331880000000000000109                     I0233188     20121800000000350003410000017N291018104700000000000102012180000000000000000000000000000000000000000100012218258790WILIAM ULERICH MARTINS                  RUA ANTONIO AUSTREGESILO                INHAUMA     21061300RIO DE JANEIRO RJUNIAO UMB DOS CULTOS AFRO BRAS    20121810 000020
10231987175000168817800093673    000033128                    000331280000000000000109                     I0233128     20121800000000350003410000017N291018104700000000000102012180000000000000000000000000000000000000000100000227210700ROSIMAR TELLES DE SA                    RUA ACAPU                               MARECHAL HER21550570RIO DE JANEIRO RJUNIAO UMB DOS CULTOS AFRO BRAS    20121810 000021
10231987175000168817800093673    000032153                    000321530000000000000109                     I0232153     20121800000000350003410000017N291018104700000000000102012180000000000000000000000000000000000000000100003276628759HERCULES LIMA TAVARES                   RUA: ALFREDO MANSUR                     MORRO GAMA  27150430BARRA DO PIRAI RJUNIAO UMB DOS CULTOS AFRO BRAS    20121810 000022
10231987175000168817800093673    000031740                    000317400000000000000109                     I0231740     18011900000000350003410000017N291018104700000000000101801190000000000000000000000000000000000000000100008774131770CLEYSON MANHAES NERY                    RUA CORONEL BARROS                      PARQUE SARAI28110000CAMPO DOS GOYTARJUNIAO UMB DOS CULTOS AFRO BRAS    18011910 000023
10231987175000168817800093673    000031624                    000316240000000000000109                     I0231624     20121800000000350003410000017N291018104700000000000102012180000000000000000000000000000000000000000100002167919794ANDERSON CLEI BRANDAO TEIXEIRA          ESTRADA DO CANTAGALO                    CAMPO GRANDE23036440RIO DE JANEIRO RJUNIAO UMB DOS CULTOS AFRO BRAS    20121810 000024
10231987175000168817800093673    000031202                    000312020000000000000109                     I0231202     20121800000000380003410000017N291018104700000000000102012180000000000000000000000000000000000000000100073871729787RENATO GOMES SILVA                      RUA JURIPIRANGA                         COSMOS      23060020RIO DE JANEIRO RJUNIAO UMB DOS CULTOS AFRO BRAS    20121810 000025
10231987175000168817800093673    000030311                    000303110000000000000109                     I0230311     20121800000000035003410000017N291018104700000000000102012180000000000000000000000000000000000000000100069852219715GREIZI DE CARVALHO CARVALHAES           RUA BUENOS AIRES                        JARDIM PERNA26275390NOVA IGUACU    RJUNIAO UMB DOS CULTOS AFRO BRAS    20121810 000026
10231987175000168817800093673    000029611                    000296110000000000000109                     I0229611     20121800000000035003410000017N291018104700000000000102012180000000000000000000000000000000000000000100000241089794MARA LUCIA CANDIDO RAMOS                RUA NOSSA SENHORA DA PENHA              MANGUEIRAL -21755140RIO DE JANEIRO RJUNIAO UMB DOS CULTOS AFRO BRAS    20121810 000027
10231987175000168817800093673    000027822                    000278220000000000000109                     I0227822     30111800000000035003410000017N200818104700000000000103011180000000000000000000000000000000000000000100003276628759HERCULES LIMA TAVARES                   RUA: ALFREDO MANSUR                     MORRO GAMA  27150430BARRA DO PIRAI RJUNIAO UMB DOS CULTOS AFRO BRAS    30111810 000028
9                                                                                                                                                                                                                                                                                                                                                                                                         000029
