01REMESSA01COBRANCA       916200163100        União Umb dos Cultos Afro Bra341BANCO ITAU SA  080819                                                                                                                                                                                                                                                                                                      000001
10231987175000168916200163100    000054015                    000540150000000000000109                     I0154015     12081900000000160003410000017N080819105700000000000531208190000000000000000000000000000000000000000100087969998704ROBERTO LUIZ MEDEIROS                   RUA OLIMPICON 0, LOTE 35 QUADRA 29      SAO FRANCISC26125215BELFORD ROXO   RJUNIAO UMB DOS CULTOS AFRO BRAS    12081915 000002
21120820190000000000320                                                                                                                                                                                                                                                                                                                                                                                   000003
10231987175000168916200163100    000054014                    000540140000000000000109                     I0254014     12081900000000160003410000017N080819105700000000000531208190000000000000000000000000000000000000000100087969998704ROBERTO LUIZ MEDEIROS                   RUA OLIMPICON 0, LOTE 35 QUADRA 29      SAO FRANCISC26125215BELFORD ROXO   RJUNIAO UMB DOS CULTOS AFRO BRAS    12081915 000004
21120820190000000000320                                                                                                                                                                                                                                                                                                                                                                                   000005
10231987175000168916200163100    000054013                    000540130000000000000109                     I0154013     30091900000000040003410000017N080819105700000000000133009190000000000000000000000000000000000000000100071926305787PEDRO PAULO DE ARAUJO MALHEIRO          RUA RAFAEL BORDALON 31,                 GUARATIBA   23032590RIO DE JANEIRO RJUNIAO UMB DOS CULTOS AFRO BRAS    30091915 000006
21300920190000000000080                                                                                                                                                                                                                                                                                                                                                                                   000007
10231987175000168916200163100    000054012                    000540120000000000000109                     I0154012     30091900000000040003410000017N080819105700000000000133009190000000000000000000000000000000000000000100000879615710VAGNER DA SILVA CASTELLANO              TRAVESSA SILVA PINTON 34,               GUARATIBA   23035440RIO DE JANEIRO RJUNIAO UMB DOS CULTOS AFRO BRAS    30091915 000008
21300920190000000000080                                                                                                                                                                                                                                                                                                                                                                                   000009
10231987175000168916200163100    000054011                    000540110000000000000109                     I0154011     12081900000000080003410000017N080819105700000000000261208190000000000000000000000000000000000000000100053411200782ELZA MORAES DA SILVA                    RUA WALTER JORGE BRAGAN 19,             PARQUE TELES25581171SAO JOAO DE MERRJUNIAO UMB DOS CULTOS AFRO BRAS    12081915 000010
21120820190000000000160                                                                                                                                                                                                                                                                                                                                                                                   000011
10231987175000168916200163100    000054010                    000540100000000000000109                     I0154010     07101900000000350003410000017N080819105700000000001160710190000000000000000000000000000000000000000100089717775753ROBERTO ZAMORANO ABI-ZAID               RUA BENTO GONCALVESN 184,               ENGENHO DE D20755310RIO DE JANEIRO RJUNIAO UMB DOS CULTOS AFRO BRAS    07101915 000012
21071020190000000000700                                                                                                                                                                                                                                                                                                                                                                                   000013
10231987175000168916200163100    000054009                    000540090000000000000109                     I0154009     09091900000000350003410000017N080819105700000000001160909190000000000000000000000000000000000000000100089717775753ROBERTO ZAMORANO ABI-ZAID               RUA BENTO GONCALVESN 184,               ENGENHO DE D20755310RIO DE JANEIRO RJUNIAO UMB DOS CULTOS AFRO BRAS    09091915 000014
21090920190000000000700                                                                                                                                                                                                                                                                                                                                                                                   000015
10231987175000168916200163100    000050007                    000500070000000000000109                     I0250007     06081900000000040003410000017N310719105700000000000130608190000000000000000000000000000000000000000100053411200782ELZA MORAES DA SILVA                    RUA WALTER JORGE BRAGAN 19,             PARQUE TELES25581171SAO JOAO DE MERRJUNIAO UMB DOS CULTOS AFRO BRAS    06081915 000016
21060820190000000000080                                                                                                                                                                                                                                                                                                                                                                                   000017
10231987175000168916200163100    000049913                    000499130000000000000109                     I0249913     16071900000000400003410000017N120719105700000000001321607190000000000000000000000000000000000000000100007775553790ANDRE BATISTA DO NASCIMENTO AR          RUA DOUTOR BERNARDINON 559, CASA 101 BLOPRACA SECA  21320020RIO DE JANEIRO RJUNIAO UMB DOS CULTOS AFRO BRAS    16071915 000018
21160720190000000000800                                                                                                                                                                                                                                                                                                                                                                                   000019
10231987175000168916200163100    000044273                    000442730000000000000109                     I0244273     30061900000000040003410000017N130319105700000000000133006190000000000000000000000000000000000000000100071926305787PEDRO PAULO DE ARAUJO MALHEIRO          RUA RAFAEL BORDALON 31,                 GUARATIBA   23032590RIO DE JANEIRO RJUNIAO UMB DOS CULTOS AFRO BRAS    30061915 000020
21300620190000000000080                                                                                                                                                                                                                                                                                                                                                                                   000021
10231987175000168916200163100    000043950                    000439500000000000000109                     I0243950     30061900000000040003410000017N130319105700000000000133006190000000000000000000000000000000000000000100090085310700ROSANGELA VILELA FERREIRA               RUA MATURACAN 380, LOTE 19 QUADRA R 1   PENHA CIRCUL21210360RIO DE JANEIRO RJUNIAO UMB DOS CULTOS AFRO BRAS    30061915 000022
21300620190000000000080                                                                                                                                                                                                                                                                                                                                                                                   000023
10231987175000168916200163100    000043496                    000434960000000000000109                     I0243496     30061900000000040003410000017N130319105700000000000133006190000000000000000000000000000000000000000100069876207768JUREMA DIONISIO RODRIGUES               RUA CARLOS OLIMPIO DE MELLON 59, CASA 1 PACIENCIA   23585160RIO DE JANEIRO RJUNIAO UMB DOS CULTOS AFRO BRAS    30061915 000024
21300620190000000000080                                                                                                                                                                                                                                                                                                                                                                                   000025
10231987175000168916200163100    000043324                    000433240000000000000109                     I0243324     30061900000000040003410000017N130319105700000000000133006190000000000000000000000000000000000000000100087969998704ROBERTO LUIZ MEDEIROS                   RUA OLIMPICON 0, LOTE 35 QUADRA 29      SAO FRANCISC26125215BELFORD ROXO   RJUNIAO UMB DOS CULTOS AFRO BRAS    30061915 000026
21300620190000000000080                                                                                                                                                                                                                                                                                                                                                                                   000027
9                                                                                                                                                                                                                                                                                                                                                                                                         000028
