01REMESSA01COBRANCA       817800093673        União Umb dos Cultos Afro Bra341BANCO ITAU SA  230719                                                                                                                                                                                                                                                                                                      000001
10231987175000168817800093673    000048635                    000486350000000000000109                     I0248635     30091900000000040003410000017N100619105700000000000133009190000000000000000000000000000000000000000100059088230749MARILENE NESTOR CORDEIRO                RUA ALMEIDA E SOUSAN 638,               MAGALHAES BA21745310RIO DE JANEIRO RJUNIAO UMB DOS CULTOS AFRO BRAS    30091915 000002
21300920190000000000080                                                                                                                                                                                                                                                                                                                                                                                   000003
10231987175000168817800093673    000048376                    000483760000000000000109                     I0248376     30091900000000040003410000017N100619105700000000000133009190000000000000000000000000000000000000000100063533758753SONIA MARIA MEIRA DE SOUZA              ESTRADA DA PACIENCIAN 120, ASSOCIACAO   PACIENCIA   23060372RIO DE JANEIRO RJUNIAO UMB DOS CULTOS AFRO BRAS    30091915 000004
21300920190000000000080                                                                                                                                                                                                                                                                                                                                                                                   000005
10231987175000168817800093673    000047198                    000471980000000000000109                     I0247198     30081900000000040003410000017N100619105700000000000133008190000000000000000000000000000000000000000100059088230749MARILENE NESTOR CORDEIRO                RUA ALMEIDA E SOUSAN 638,               MAGALHAES BA21745310RIO DE JANEIRO RJUNIAO UMB DOS CULTOS AFRO BRAS    30081915 000006
21300820190000000000080                                                                                                                                                                                                                                                                                                                                                                                   000007
10231987175000168817800093673    000046941                    000469410000000000000109                     I0246941     30081900000000040003410000017N100619105700000000000133008190000000000000000000000000000000000000000100063533758753SONIA MARIA MEIRA DE SOUZA              ESTRADA DA PACIENCIAN 120, ASSOCIACAO   PACIENCIA   23060372RIO DE JANEIRO RJUNIAO UMB DOS CULTOS AFRO BRAS    30081915 000008
21300820190000000000080                                                                                                                                                                                                                                                                                                                                                                                   000009
10231987175000168817800093673    000045520                    000455200000000000000109                     I0245520     30071900000000040003410000017N100619105700000000000133007190000000000000000000000000000000000000000100063533758753SONIA MARIA MEIRA DE SOUZA              ESTRADA DA PACIENCIAN 120, ASSOCIACAO   PACIENCIA   23060372RIO DE JANEIRO RJUNIAO UMB DOS CULTOS AFRO BRAS    30071915 000010
21300720190000000000080                                                                                                                                                                                                                                                                                                                                                                                   000011
9                                                                                                                                                                                                                                                                                                                                                                                                         000012
