01REMESSA01COBRANCA       916200163100        União Umb dos Cultos Afro Bra341BANCO ITAU SA  120419                                                                                                                                                                                                                                                                                                      000001
10231987175000168916200163100    000045056                    000450560000000000000109                     I0145056     30061900000000040003410000017N120419105700000000000103006190000000000000000000000000000000000000000100005348183741MARTA CRISTINA V. ANDRADE COVE          ESTRADA DAS AGULHAS NEGRASN 44, B       CAMPO GRANDE23042500RIO DE JANEIRO RJUNIAO UMB DOS CULTOS AFRO BRAS    30061915 000002
10231987175000168916200163100    000045055                    000450550000000000000109                     I0145055     30051900000000040003410000017N120419105700000000000103005190000000000000000000000000000000000000000100005348183741MARTA CRISTINA V. ANDRADE COVE          ESTRADA DAS AGULHAS NEGRASN 44, B       CAMPO GRANDE23042500RIO DE JANEIRO RJUNIAO UMB DOS CULTOS AFRO BRAS    30051915 000003
10231987175000168916200163100    000045054                    000450540000000000000109                     I0145054     22041900000000600003410000017N120419105700000000000102204190000000000000000000000000000000000000000100010908673795EDSON ANTONIO GONCALVES CORDEI          RUA DOUTOR BEDAN 383,                   PARQUE ROSAR28026591CAMPOS DOS GOYTRJUNIAO UMB DOS CULTOS AFRO BRAS    22041915 000004
10231987175000168916200163100    000045053                    000450530000000000000109                     I0145053     30061900000000040003410000017N120419105700000000000103006190000000000000000000000000000000000000000100079179690700SANDRA BAPTISTA DA SILVA                RUA SOLDADO HIVIL MILIATON 141,         CAMPO GRANDE23042430RIO DE JANEIRO RJUNIAO UMB DOS CULTOS AFRO BRAS    30061915 000005
10231987175000168916200163100    000045052                    000450520000000000000109                     I0145052     30051900000000040003410000017N120419105700000000000103005190000000000000000000000000000000000000000100079179690700SANDRA BAPTISTA DA SILVA                RUA SOLDADO HIVIL MILIATON 141,         CAMPO GRANDE23042430RIO DE JANEIRO RJUNIAO UMB DOS CULTOS AFRO BRAS    30051915 000006
10231987175000168916200163100    000045051                    000450510000000000000109                     I0145051     30061900000000040003410000017N120419105700000000000103006190000000000000000000000000000000000000000100077126610734FRANCISCO MUNIZ NETO                    RUA HOMERON 26,                         ROCHA MIRAND21510160RIO DE JANEIRO RJUNIAO UMB DOS CULTOS AFRO BRAS    30061915 000007
10231987175000168916200163100    000045050                    000450500000000000000109                     I0145050     30051900000000040003410000017N120419105700000000000103005190000000000000000000000000000000000000000100077126610734FRANCISCO MUNIZ NETO                    RUA HOMERON 26,                         ROCHA MIRAND21510160RIO DE JANEIRO RJUNIAO UMB DOS CULTOS AFRO BRAS    30051915 000008
10231987175000168916200163100    000045049                    000450490000000000000109                     I0145049     30061900000000040003410000017N120419105700000000000103006190000000000000000000000000000000000000000100052086879768IZABEL CRISTINA PINHEIRO DOS S          RUA LIRIO DO VALEN 26,                  CAMPO GRANDE23090070RIO DE JANEIRO RJUNIAO UMB DOS CULTOS AFRO BRAS    30061915 000009
10231987175000168916200163100    000045048                    000450480000000000000109                     I0145048     30051900000000040003410000017N120419105700000000000103005190000000000000000000000000000000000000000100052086879768IZABEL CRISTINA PINHEIRO DOS S          RUA LIRIO DO VALEN 26,                  CAMPO GRANDE23090070RIO DE JANEIRO RJUNIAO UMB DOS CULTOS AFRO BRAS    30051915 000010
10231987175000168916200163100    000045047                    000450470000000000000109                     I0145047     12041900000000040003410000017N110419105700000000000101204190000000000000000000000000000000000000000100005851795735JOAO LUIZ DE OLIVEIRA MAGALHAE          RUA ANTONIO CARLOS PARANHOSN 29,        VILA VALQUEI21321340RIO DE JANEIRO RJUNIAO UMB DOS CULTOS AFRO BRAS    12041915 000011
10231987175000168916200163100    000044765                    000447650000000000000109                     I0244765     30061900000000050003410000017N130319105700000000000103006190000000000000000000000000000000000000000100001860673724FATIMA ANDREA PINTO DE ALMEIDA          AVENIDA PAULO DE FRONTINN 667,          RIO COMPRIDO20261241RIO DE JANEIRO RJUNIAO UMB DOS CULTOS AFRO BRAS    30061915 000012
10231987175000168916200163100    000044121                    000441210000000000000109                     I0244121     30061900000000040003410000017N130319105700000000000103006190000000000000000000000000000000000000000100055041388768GERALDO JOSE DE OLIVEIRA                RUA CARDEAL DOM SEBASTIAO LEMEN 115, APTSANTA TEREZA22040010RIO DE JANEIRO RJUNIAO UMB DOS CULTOS AFRO BRAS    30061915 000013
10231987175000168916200163100    000043880                    000438800000000000000109                     I0243880     30061900000000040003410000017N130319105700000000000103006190000000000000000000000000000000000000000100088271544772ELIZABETE GERN                          RUA: TREZEN 0, LOTE 36 QUADRA 8         IPIRANGA    26293489NOVA IGUACU    RJUNIAO UMB DOS CULTOS AFRO BRAS    30061915 000014
10231987175000168916200163100    000043634                    000436340000000000000109                     I0243634     30061900000000040003410000017N130319105700000000000103006190000000000000000000000000000000000000000100099272946700MARCOS ANTONIO DA SILVA                 RUA APIACABAN 100,                      VILA MARILIA26040210NOVA IGUACU    RJUNIAO UMB DOS CULTOS AFRO BRAS    30061915 000015
10231987175000168916200163100    000043492                    000434920000000000000109                     I0243492     30061900000000040003410000017N130319105700000000000103006190000000000000000000000000000000000000000100000009434798CELSO LINS ROSA                         RUA LAGEADON 70,                        COLEGIO     21540680RIO DE JANEIRO RJUNIAO UMB DOS CULTOS AFRO BRAS    30061915 000016
10231987175000168916200163100    000043111                    000431110000000000000109                     I0243111     30051900000000050003410000017N130319105700000000000103005190000000000000000000000000000000000000000100001860673724FATIMA ANDREA PINTO DE ALMEIDA          AVENIDA PAULO DE FRONTINN 667,          RIO COMPRIDO20261241RIO DE JANEIRO RJUNIAO UMB DOS CULTOS AFRO BRAS    30051915 000017
10231987175000168916200163100    000042475                    000424750000000000000109                     I0242475     30051900000000040003410000017N130319105700000000000103005190000000000000000000000000000000000000000100055041388768GERALDO JOSE DE OLIVEIRA                RUA CARDEAL DOM SEBASTIAO LEMEN 115, APTSANTA TEREZA22040010RIO DE JANEIRO RJUNIAO UMB DOS CULTOS AFRO BRAS    30051915 000018
10231987175000168916200163100    000042235                    000422350000000000000109                     I0242235     30051900000000040003410000017N130319105700000000000103005190000000000000000000000000000000000000000100088271544772ELIZABETE GERN                          RUA: TREZEN 0, LOTE 36 QUADRA 8         IPIRANGA    26293489NOVA IGUACU    RJUNIAO UMB DOS CULTOS AFRO BRAS    30051915 000019
10231987175000168916200163100    000041990                    000419900000000000000109                     I0241990     30051900000000040003410000017N130319105700000000000103005190000000000000000000000000000000000000000100099272946700MARCOS ANTONIO DA SILVA                 RUA APIACABAN 100,                      VILA MARILIA26040210NOVA IGUACU    RJUNIAO UMB DOS CULTOS AFRO BRAS    30051915 000020
10231987175000168916200163100    000041849                    000418490000000000000109                     I0241849     30051900000000040003410000017N130319105700000000000103005190000000000000000000000000000000000000000100000009434798CELSO LINS ROSA                         RUA LAGEADON 70,                        COLEGIO     21540680RIO DE JANEIRO RJUNIAO UMB DOS CULTOS AFRO BRAS    30051915 000021
10231987175000168916200163100    000041842                    000418420000000000000109                     I0241842     30051900000000040003410000017N130319105700000000000103005190000000000000000000000000000000000000000207280383000148CANTINHO DA VOVO MARIA CONGA D          RUA SARGENTO MARQUETI N 5,              MARECHAL HER21611000RIO DE JANEIRO RJUNIAO UMB DOS CULTOS AFRO BRAS    30051915 000022
10231987175000168916200163100    000041469                    000414690000000000000109                     I0241469     30041900000000050003410000017N120319105700000000000103004190000000000000000000000000000000000000000100001860673724FATIMA ANDREA PINTO DE ALMEIDA          AVENIDA PAULO DE FRONTINN 667,          RIO COMPRIDO20261241RIO DE JANEIRO RJUNIAO UMB DOS CULTOS AFRO BRAS    30041915 000023
10231987175000168916200163100    000040838                    000408380000000000000109                     I0240838     30041900000000040003410000017N120319105700000000000103004190000000000000000000000000000000000000000100055041388768GERALDO JOSE DE OLIVEIRA                RUA CARDEAL DOM SEBASTIAO LEMEN 115, APTSANTA TEREZA22040010RIO DE JANEIRO RJUNIAO UMB DOS CULTOS AFRO BRAS    30041915 000024
10231987175000168916200163100    000040355                    000403550000000000000109                     I0240355     30041900000000040003410000017N120319105700000000000103004190000000000000000000000000000000000000000100099272946700MARCOS ANTONIO DA SILVA                 RUA APIACABAN 100,                      VILA MARILIA26040210NOVA IGUACU    RJUNIAO UMB DOS CULTOS AFRO BRAS    30041915 000025
10231987175000168916200163100    000040346                    000403460000000000000109                     I0240346     30041900000000040003410000017N120319105700000000000103004190000000000000000000000000000000000000000100062792920700LUIZ CESAR DE OLIVEIRA                  RUA PEREIRA DE FIGUEIREDON 627,         OSWALDO CRUZ21340030RIO DE JANEIRO RJUNIAO UMB DOS CULTOS AFRO BRAS    30041915 000026
10231987175000168916200163100    000040216                    000402160000000000000109                     I0240216     30041900000000040003410000017N120319105700000000000103004190000000000000000000000000000000000000000100000009434798CELSO LINS ROSA                         RUA LAGEADON 70,                        COLEGIO     21540680RIO DE JANEIRO RJUNIAO UMB DOS CULTOS AFRO BRAS    30041915 000027
10231987175000168916200163100    000040209                    000402090000000000000109                     I0240209     30041900000000040003410000017N120319105700000000000103004190000000000000000000000000000000000000000207280383000148CANTINHO DA VOVO MARIA CONGA D          RUA SARGENTO MARQUETI N 5,              MARECHAL HER21611000RIO DE JANEIRO RJUNIAO UMB DOS CULTOS AFRO BRAS    30041915 000028
9                                                                                                                                                                                                                                                                                                                                                                                                         000029
