01REMESSA01COBRANCA       817800093673        União Umb dos Cultos Afro Bra341BANCO ITAU SA  020819                                                                                                                                                                                                                                                                                                      000001
10231987175000168817800093673    000050479                    000504790000000000000109                     I0150479     10091900000000050003410000017N020819105700000000000171009190000000000000000000000000000000000000000207882095000178CASA UMBANDISTA PAI JOAQUIM DE          RUA MANHUACUN 0, QUADRA 46 LOTE 35      JARDIM GRAMA25055380DUQUE DE CAXIASRJUNIAO UMB DOS CULTOS AFRO BRAS    10091915 000002
21100920190000000000100                                                                                                                                                                                                                                                                                                                                                                                   000003
9                                                                                                                                                                                                                                                                                                                                                                                                         000004
