01REMESSA01COBRANCA       916200163100        União Umb dos Cultos Afro Bra341BANCO ITAU SA  250118                                                                                                                                                                                                                                                                                                      000001
10231987175000168916200163100    00009067                     000090670000000000000109                     I019067      28021800000000035003410000017N250118104700000000000102802180000000000000000000000000000000000000000100060407875700KATIA DE AZEVEDO FURTADO                RUA SOUZA PITANGA, 82                   THOMAS COELH21381230RIO DE JANEIRO RJUNIAO UMB DOS CULTOS AFRO BRAS    28021810 000002
10231987175000168916200163100    00008987                     000089870000000000000109                     I028987      28021800000000035003410000017N040118104700000000000102802180000000000000000000000000000000000000000100001799273709ANSELMO FERREIRA DEGENAR                RUA NOSSA SENHORA DE NAZARE N 31        PAVUNA      21655550RIO DE JANEIRO RJUNIAO UMB DOS CULTOS AFRO BRAS    28021810 000003
10231987175000168916200163100    00008986                     000089860000000000000109                     I028986      31011800000000035003410000017N040118104700000000000103101180000000000000000000000000000000000000000100001799273709ANSELMO FERREIRA DEGENAR                RUA NOSSA SENHORA DE NAZARE N 31        PAVUNA      21655550RIO DE JANEIRO RJUNIAO UMB DOS CULTOS AFRO BRAS    31011810 000004
10231987175000168916200163100    00008983                     000089830000000000000109                     I028983      28021800000000035003410000017N030118104700000000000102802180000000000000000000000000000000000000000100004253784704ALEXANDRE SIMOES NASCIMENTO             RUA SEBASTIAO DRUMOND N 179             ANCHIETA - R21640360RIO DE JANEIRO RJUNIAO UMB DOS CULTOS AFRO BRAS    28021810 000005
10231987175000168916200163100    00008982                     000089820000000000000109                     I028982      31011800000000035003410000017N030118104700000000000103101180000000000000000000000000000000000000000100004253784704ALEXANDRE SIMOES NASCIMENTO             RUA SEBASTIAO DRUMOND N 179             ANCHIETA - R21640360RIO DE JANEIRO RJUNIAO UMB DOS CULTOS AFRO BRAS    31011810 000006
10231987175000168916200163100    00008788                     000087880000000000000109                     I028788      31011800000000035003410000017N020118104700000000000103101180000000000000000000000000000000000000000100073494682704MARILENE VIEIRA DE CARVALHO             RUA CRISTIANO MACHADO, 282              JARDIM AMERI21240470RIO DE JANEIRO RJUNIAO UMB DOS CULTOS AFRO BRAS    31011810 000007
10231987175000168916200163100    00008761                     000087610000000000000109                     I028761      31011800000000035003410000017N020118104700000000000103101180000000000000000000000000000000000000000100000939178729ANA LUCIA LIMA DA SILVA                 RUA ESTADOS UNIDOS LT 20 E 21 QD 276    JD PARQUE ES26064300RIO DE JANEIRO RJUNIAO UMB DOS CULTOS AFRO BRAS    31011810 000008
10231987175000168916200163100    00008678                     000086780000000000000109                     I028678      31011800000000035003410000017N020118104700000000000103101180000000000000000000000000000000000000000100001609402731LUCIANO RANGEL                          ESTRADA DOUTOR FARRULA, 52              HELIOPOLIS -26125400BELFORD ROXO   RJUNIAO UMB DOS CULTOS AFRO BRAS    31011810 000009
10231987175000168916200163100    00008409                     000084090000000000000109                     I028409      31011800000000035003410000017N020118104700000000000103101180000000000000000000000000000000000000000100002880527732ARANI BARRETO DE SANTANA FONSE          RUA JABIRI N 303                        MARECHAL HER21615300RIO DE JANEIRO RJUNIAO UMB DOS CULTOS AFRO BRAS    31011810 000010
10231987175000168916200163100    00004630                     000046300000000000000109                     I024630      22121700000000350003410000017N171117104700000000000102212170000000000000000000000000000000000000000100004253784704ALEXANDRE SIMOES NASCIMENTO             RUA SEBASTIAO DRUMOND N 179             ANCHIETA - R21640360RIO DE JANEIRO RJUNIAO UMB DOS CULTOS AFRO BRAS    22121710 000011
10231987175000168916200163100    00004468                     000044680000000000000109                     I024468      22121700000000350003410000017N171117104700000000000102212170000000000000000000000000000000000000000100062988050791REGINA LUCIA DE SOUZA SANTOS T          RUA ENGENHEIRO LAFAYETE STOCKLER N 742  VILA DA PENH21221390RIO DE JANEIRO RJUNIAO UMB DOS CULTOS AFRO BRAS    22121710 000012
10231987175000168916200163100    00003846                     000038460000000000000109                     I023846      22121700000000350003410000017N171117104700000000000102212170000000000000000000000000000000000000000100071567747784MARIA DO CARMO MARIANO DOS SAN          RUA PERI, SN LOTE 36                    EDEN - SAO J25535162SAO JOAO DE MERRJUNIAO UMB DOS CULTOS AFRO BRAS    22121710 000013
10231987175000168916200163100    00003816                     000038160000000000000109                     I023816      22121700000000350003410000017N171117104700000000000102212170000000000000000000000000000000000000000100037551868704NAKAYRA DA MOTTA LOBO                   RUA DOUTOR ARTUR MARTINS, 182           MUTUA - SAO 24460350SAO GONCALO    RJUNIAO UMB DOS CULTOS AFRO BRAS    22121710 000014
10231987175000168916200163100    00003634                     000036340000000000000109                     I023634      22121700000000350003410000017N171117104700000000000102212170000000000000000000000000000000000000000100060407875700KATIA DE AZEVEDO FURTADO                RUA SOUZA PITANGA, 82                   THOMAS COELH21381230RIO DE JANEIRO RJUNIAO UMB DOS CULTOS AFRO BRAS    22121710 000015
10231987175000168916200163100    00003182                     000031820000000000000109                     I023182      31121700000000035003410000017N131117104700000000000103112170000000000000000000000000000000000000000100004253784704ALEXANDRE SIMOES NASCIMENTO             RUA SEBASTIAO DRUMOND N 179             ANCHIETA - R21640360RIO DE JANEIRO RJUNIAO UMB DOS CULTOS AFRO BRAS    31121710 000016
10231987175000168916200163100    00002360                     000023600000000000000109                     I022360      31121700000000035003410000017N131117104700000000000103112170000000000000000000000000000000000000000100071567747784MARIA DO CARMO MARIANO DOS SAN          RUA PERI, SN LOTE 36                    EDEN - SAO J25535162SAO JOAO DE MERRJUNIAO UMB DOS CULTOS AFRO BRAS    31121710 000017
10231987175000168916200163100    00002146                     000021460000000000000109                     I022146      31121700000000035003410000017N131117104700000000000103112170000000000000000000000000000000000000000100060407875700KATIA DE AZEVEDO FURTADO                RUA SOUZA PITANGA, 82                   THOMAS COELH21381230RIO DE JANEIRO RJUNIAO UMB DOS CULTOS AFRO BRAS    31121710 000018
9                                                                                                                                                                                                                                                                                                                                                                                                         000019
