01REMESSA01COBRANCA       916200163100        União Umb dos Cultos Afro Bra341BANCO ITAU SA  150818                                                                                                                                                                                                                                                                                                      000001
10231987175000168916200163100    000020930                    000209300000000000000109                     I3420930     30071800000000040003410000017N100518104700000000000103007180000000000000000000000000000000000000000100019685726787ADELMIR HAMELIN SODRE                   RUA ITAIM N 361                         COLEGIO - RJ00000000RIO DE JANEIRO RJUNIAO UMB DOS CULTOS AFRO BRAS    30071810 000002
10231987175000168916200163100    000020559                    000205590000000000000109                     I0220559     30081800000000035003410000017N070518104700000000000103008180000000000000000000000000000000000000000100000160903774REGINA CELIA DE OLIVEIRA DA SI          RUA VENANCIO ADRES LOTE 23 QUADRA 13    OLAVO BILAC 25035340DUQUE DE CAXIASRJUNIAO UMB DOS CULTOS AFRO BRAS    30081810 000003
10231987175000168916200163100    000020105                    000201050000000000000109                     I0220105     30081800000000035003410000017N070518104700000000000103008180000000000000000000000000000000000000000100007403285735MARCIO BAPTISTA CARVALHO                RUA ENALDO DOS SANTOS ARAUJO, 85        ENGENHEIRO L21370200RIO DE JANEIRO RJUNIAO UMB DOS CULTOS AFRO BRAS    30081810 000004
10231987175000168916200163100    000020043                    000200430000000000000109                     I3420043     30081800000000035003410000017N070518104700000000000103008180000000000000000000000000000000000000000100073431850715SIDNEY MEGE                             RUA: GENERAL CORREIA DO LAGO            HONORIO GURG21511320RIO DE JANEIRO RJUNIAO UMB DOS CULTOS AFRO BRAS    30081810 000005
10231987175000168916200163100    000019524                    000195240000000000000109                     I0219524     30081800000000035003410000017N070518104700000000000103008180000000000000000000000000000000000000000100076744515772GELSON CORREA DE CARVALHO               RUA: MANOEL MACHADO                     VAZ LOBO - R21361090RIO DE JANEIRO RJUNIAO UMB DOS CULTOS AFRO BRAS    30081810 000006
10231987175000168916200163100    000019411                    000194110000000000000109                     I0219411     30081800000000035003410000017N070518104700000000000103008180000000000000000000000000000000000000000100003351761783CLAUDIA LUZIA PEREIRA                   O MESMO                                 O MESMO     26187495BELFORD ROXO   RJUNIAO UMB DOS CULTOS AFRO BRAS    30081810 000007
10231987175000168916200163100    000019342                    000193420000000000000109                     I3419342     30081800000000035003410000017N070518104700000000000103008180000000000000000000000000000000000000000100001115386700DILZA TORRES PINTO DE JESUS             RUA: MARECHAL BARBEDO                   REALENGO - R21735340RIO DE JANEIRO RJUNIAO UMB DOS CULTOS AFRO BRAS    30081810 000008
10231987175000168916200163100    000018989                    000189890000000000000109                     I0218989     30071800000000035003410000017N070518104700000000000103007180000000000000000000000000000000000000000100000160903774REGINA CELIA DE OLIVEIRA DA SI          RUA VENANCIO ADRES LOTE 23 QUADRA 13    OLAVO BILAC 25035340DUQUE DE CAXIASRJUNIAO UMB DOS CULTOS AFRO BRAS    30071810 000009
10231987175000168916200163100    000018845                    000188450000000000000109                     I0218845     30071800000000035003410000017N070518104700000000000103007180000000000000000000000000000000000000000100009079674770FERNANDA DOS SANTOS SILVA               TRAVESSA IPACARAI, 70 CASA 5            COLUBANDE - 24451290SAO GONCALO    RJUNIAO UMB DOS CULTOS AFRO BRAS    30071810 000010
10231987175000168916200163100    000018535                    000185350000000000000109                     I0218535     30071800000000035003410000017N070518104700000000000103007180000000000000000000000000000000000000000100007403285735MARCIO BAPTISTA CARVALHO                RUA ENALDO DOS SANTOS ARAUJO, 85        ENGENHEIRO L21370200RIO DE JANEIRO RJUNIAO UMB DOS CULTOS AFRO BRAS    30071810 000011
10231987175000168916200163100    000018503                    000185030000000000000109                     I3418503     30071800000000035003410000017N070518104700000000000103007180000000000000000000000000000000000000000100003561463754NORMA CRISTINA JUSTO PRUDENTE           RUA ALUISIO LIRA                        PARQUE ANCHI21635040RIO DE JANEIRO RJUNIAO UMB DOS CULTOS AFRO BRAS    30071810 000012
10231987175000168916200163100    000018444                    000184440000000000000109                     I3418444     30071800000000035003410000017N070518104700000000000103007180000000000000000000000000000000000000000100059475161791MARIA NAZARETE ALVES ANTONIO            TRAVESSA SANTOS DUMONT                  ILHA DO GOVE21910490RIO DE JANEIRO RJUNIAO UMB DOS CULTOS AFRO BRAS    30071810 000013
10231987175000168916200163100    000018290                    000182900000000000000109                     I0218290     30071800000000035003410000017N070518104700000000000103007180000000000000000000000000000000000000000100099029359749ANDRE LUIZ REIS GRACIO                  RUA PIRAMBOIA N 130                     SENADOR VASC23012300RIO DE JANEIRO RJUNIAO UMB DOS CULTOS AFRO BRAS    30071810 000014
10231987175000168916200163100    000018212                    000182120000000000000109                     I3418212     30071800000000035003410000017N070518104700000000000103007180000000000000000000000000000000000000000100043194869787JORGE PINHEIRO DE ALMEIDA               RUA CERQUEIRA CESAR N 121 CASA 1        MADUREIRA - 21351070RIO DE JANEIRO RJUNIAO UMB DOS CULTOS AFRO BRAS    30071810 000015
10231987175000168916200163100    000017954                    000179540000000000000109                     I0217954     30071800000000035003410000017N070518104700000000000103007180000000000000000000000000000000000000000100076744515772GELSON CORREA DE CARVALHO               RUA: MANOEL MACHADO                     VAZ LOBO - R21361090RIO DE JANEIRO RJUNIAO UMB DOS CULTOS AFRO BRAS    30071810 000016
10231987175000168916200163100    000017945                    000179450000000000000109                     I0217945     30071800000000035003410000017N070518104700000000000103007180000000000000000000000000000000000000000100072090499753JOSEFINA PAULINA RODRIGUES              RUA JOAQUIM SOARES NETO, 416            NOVA AMERICA26021560NOVA IGUACU    RJUNIAO UMB DOS CULTOS AFRO BRAS    30071810 000017
10231987175000168916200163100    000017841                    000178410000000000000109                     I0217841     30071800000000035003410000017N070518104700000000000103007180000000000000000000000000000000000000000100003351761783CLAUDIA LUZIA PEREIRA                   O MESMO                                 O MESMO     26187495BELFORD ROXO   RJUNIAO UMB DOS CULTOS AFRO BRAS    30071810 000018
10231987175000168916200163100    000017721                    000177210000000000000109                     I3417721     30071800000000035003410000017N070518104700000000000103007180000000000000000000000000000000000000000100001974559726ELIZABETH BRITO DE JESUS                O MESMO                                 O MESMO     21210000RIO DE JANEIRO RJUNIAO UMB DOS CULTOS AFRO BRAS    30071810 000019
10231987175000168916200163100    000017709                    000177090000000000000109                     I0217709     30071800000000035003410000017N070518104700000000000103007180000000000000000000000000000000000000000100055570720715ATILA CARDOSO DE LIMA                   RUA EUGENIO SOARES, 270                 CENTRO - MES26550007MESQUITA       RJUNIAO UMB DOS CULTOS AFRO BRAS    30071810 000020
10231987175000168916200163100    000015799                    000157990000000000000109                     I0215799     30061800000000035003410000017N070518104700000000000103006180000000000000000000000000000000000000000100000160903774REGINA CELIA DE OLIVEIRA DA SI          RUA VENANCIO ADRES LOTE 23 QUADRA 13    OLAVO BILAC 25035340DUQUE DE CAXIASRJUNIAO UMB DOS CULTOS AFRO BRAS    30061810 000021
10231987175000168916200163100    000015655                    000156550000000000000109                     I0215655     30061800000000035003410000017N070518104700000000000103006180000000000000000000000000000000000000000100009079674770FERNANDA DOS SANTOS SILVA               TRAVESSA IPACARAI, 70 CASA 5            COLUBANDE - 24451290SAO GONCALO    RJUNIAO UMB DOS CULTOS AFRO BRAS    30061810 000022
10231987175000168916200163100    000015345                    000153450000000000000109                     I0215345     30061800000000035003410000017N070518104700000000000103006180000000000000000000000000000000000000000100007403285735MARCIO BAPTISTA CARVALHO                RUA ENALDO DOS SANTOS ARAUJO, 85        ENGENHEIRO L21370200RIO DE JANEIRO RJUNIAO UMB DOS CULTOS AFRO BRAS    30061810 000023
10231987175000168916200163100    000015313                    000153130000000000000109                     I3415313     30061800000000035003410000017N070518104700000000000103006180000000000000000000000000000000000000000100003561463754NORMA CRISTINA JUSTO PRUDENTE           RUA ALUISIO LIRA                        PARQUE ANCHI21635040RIO DE JANEIRO RJUNIAO UMB DOS CULTOS AFRO BRAS    30061810 000024
10231987175000168916200163100    000015292                    000152920000000000000109                     I0215292     30061800000000035003410000017N070518104700000000000103006180000000000000000000000000000000000000000100002349584720UANDERSON MARTINS DE PAULA              RUA MUNIZ E BARROS                      RIO D OURO  26910000MIGUEL PEREIRA RJUNIAO UMB DOS CULTOS AFRO BRAS    30061810 000025
10231987175000168916200163100    000015255                    000152550000000000000109                     I3415255     30061800000000035003410000017N070518104700000000000103006180000000000000000000000000000000000000000100059475161791MARIA NAZARETE ALVES ANTONIO            TRAVESSA SANTOS DUMONT                  ILHA DO GOVE21910490RIO DE JANEIRO RJUNIAO UMB DOS CULTOS AFRO BRAS    30061810 000026
10231987175000168916200163100    000015101                    000151010000000000000109                     I0215101     30061800000000035003410000017N070518104700000000000103006180000000000000000000000000000000000000000100099029359749ANDRE LUIZ REIS GRACIO                  RUA PIRAMBOIA N 130                     SENADOR VASC23012300RIO DE JANEIRO RJUNIAO UMB DOS CULTOS AFRO BRAS    30061810 000027
10231987175000168916200163100    000014765                    000147650000000000000109                     I0214765     30061800000000035003410000017N070518104700000000000103006180000000000000000000000000000000000000000100076744515772GELSON CORREA DE CARVALHO               RUA: MANOEL MACHADO                     VAZ LOBO - R21361090RIO DE JANEIRO RJUNIAO UMB DOS CULTOS AFRO BRAS    30061810 000028
10231987175000168916200163100    000014652                    000146520000000000000109                     I0214652     30061800000000035003410000017N070518104700000000000103006180000000000000000000000000000000000000000100003351761783CLAUDIA LUZIA PEREIRA                   O MESMO                                 O MESMO     26187495BELFORD ROXO   RJUNIAO UMB DOS CULTOS AFRO BRAS    30061810 000029
10231987175000168916200163100    000014520                    000145200000000000000109                     I0214520     30061800000000035003410000017N070518104700000000000103006180000000000000000000000000000000000000000100055570720715ATILA CARDOSO DE LIMA                   RUA EUGENIO SOARES, 270                 CENTRO - MES26550007MESQUITA       RJUNIAO UMB DOS CULTOS AFRO BRAS    30061810 000030
10231987175000168916200163100    000014484                    000144840000000000000109                     I0214484     30061800000000035003410000017N070518104700000000000103006180000000000000000000000000000000000000000100000000000133JORGE ALAN COSTA DE CASTRO              RUA: NICOLAU BARBOSA                    IPIRANGA    00000000BARRA DO PIRAI RJUNIAO UMB DOS CULTOS AFRO BRAS    30061810 000031
10231987175000168916200163100    000014481                    000144810000000000000109                     I0214481     30061800000000035003410000017N070518104700000000000103006180000000000000000000000000000000000000000200000000001155REINALDO GONCALVES DA ROCHA             RUA FATIMA, 13 C                        JACAREPAGUA 22713570RIO DE JANEIRO RJUNIAO UMB DOS CULTOS AFRO BRAS    30061810 000032
10231987175000168916200163100    000014480                    000144800000000000000109                     I0214480     30061800000000035003410000017N070518104700000000000103006180000000000000000000000000000000000000000200000000000896LENIR SILVA MAFRA                       RUA JOAO BARBALHO, 455                  QUINTINO BOC20740010RIO DE JANEIRO RJUNIAO UMB DOS CULTOS AFRO BRAS    30061810 000033
10231987175000168916200163100    000014479                    000144790000000000000109                     I0214479     30061800000000035003410000017N070518104700000000000103006180000000000000000000000000000000000000000200000000000842IDINEIA RIBEIRO DE AZEVEDO              RUA MOZOLANDIA LOTE 27 QUADRA 105       GUARATIBA - 21660260RIO DE JANEIRO RJUNIAO UMB DOS CULTOS AFRO BRAS    30061810 000034
9                                                                                                                                                                                                                                                                                                                                                                                                         000035
