01REMESSA01COBRANCA       817800093673        União Umb dos Cultos Afro Bra341BANCO ITAU SA  160118                                                                                                                                                                                                                                                                                                      000001
10231987175000168817800093673    00009033                     000090330000000000000109                     I019033      28021800000000035003410000017N160118050900000000000102802180000000000000000000000000000000000000000100009424589743RONALDO DE JESUS ALVES JUNIOR           RUA: 32 QUADRA 263 LOTE 4 - JD ATLANTICOITAIPUACU - 20530420RIO DE JANEIRO RJUNIAO UMB DOS CULTOS AFRO BRAS    28021810 000002
10231987175000168817800093673    00009032                     000090320000000000000109                     I019032      28021800000000035003410000017N160118050900000000000102802180000000000000000000000000000000000000000100003018847733MARIA AILHA BERNARDO PINTO              RUA RUBIAO JUNIOR                       CENTRO      23860000MANGARATIBA    RJUNIAO UMB DOS CULTOS AFRO BRAS    28021810 000003
10231987175000168817800093673    00009031                     000090310000000000000109                     I019031      28021800000000035003410000017N160118050900000000000102802180000000000000000000000000000000000000000100012345678910LUCIANO GONCALVES DE SOUZA              RUA CLARIMUNDO DE MELO                  PIEDADE     20740323RIO DE JANEIRO RJUNIAO UMB DOS CULTOS AFRO BRAS    28021810 000004
10231987175000168817800093673    00006973                     000069730000000000000109                     I016973      28021800000000035003410000017N271217050900000000000102802180000000000000000000000000000000000000000100089823753768MARIA JOSE DA ROCHA NOBREGA             MESMO                                   MESMO       26150071BELFORD ROXO   RJUNIAO UMB DOS CULTOS AFRO BRAS    28021810 000005
10231987175000168817800093673    00006972                     000069720000000000000109                     I016972      28021800000000035003410000017N271217050900000000000102802180000000000000000000000000000000000000000100082977852700ISAURA FERNANDES FERREIRA               RUA DENVER, LOTE 23 QUADRA 15           PIAM - BELFO26115590BELFORD ROXO   RJUNIAO UMB DOS CULTOS AFRO BRAS    28021810 000006
10231987175000168817800093673    00006971                     000069710000000000000109                     I016971      28021800000000035003410000017N271217050900000000000102802180000000000000000000000000000000000000000100007953958767PATRICIA DE OLIVEIRA ROIF               RUA MATURACA, LOTE 2 QUADRA 1           PENHA CIRCUL21210360RIO DE JANEIRO RJUNIAO UMB DOS CULTOS AFRO BRAS    28021810 000007
10231987175000168817800093673    00006970                     000069700000000000000109                     I016970      28021800000000035003410000017N271217050900000000000102802180000000000000000000000000000000000000000100010910780765TIAGO DE ANDRADE ALMEIDA                RUA PAULO DE FRONTIM , 29               GOVERNADOR P26910000MIGUEL PEREIRA RJUNIAO UMB DOS CULTOS AFRO BRAS    28021810 000008
10231987175000168817800093673    00006969                     000069690000000000000109                     I016969      28021800000000035003410000017N271217050900000000000102802180000000000000000000000000000000000000000100088481638749COSME JOSE ANDRADE DE OLIVEIRA          RUA OLIVEIRA REIS, 94                   SANTA BARBAR27113240BARRA DO PIRAI RJUNIAO UMB DOS CULTOS AFRO BRAS    28021810 000009
10231987175000168817800093673    00006968                     000069680000000000000109                     I016968      28021800000000035003410000017N271217050900000000000102802180000000000000000000000000000000000000000100024721975864LIDIANE FERNANDA BON SCHIAVI S          RUA ALBERTO SANTOS DRUMONT, 161         BELVEDERE DA27113330BARRA DO PIRAI RJUNIAO UMB DOS CULTOS AFRO BRAS    28021810 000010
10231987175000168817800093673    00006967                     000069670000000000000109                     I016967      28021800000000035003410000017N271217050900000000000102802180000000000000000000000000000000000000000100084290951791ZUELI DA SILVA                          RUA JOSE MARIO FERREIRA, 64             COIMBRA - BA27115180BARRA DO PIRAI RJUNIAO UMB DOS CULTOS AFRO BRAS    28021810 000011
10231987175000168817800093673    00006966                     000069660000000000000109                     I016966      28021800000000035003410000017N271217050900000000000102802180000000000000000000000000000000000000000100001794872728JORGE TEIXEIRA DE LIMA                  ESTRADA DO GUERENGUE, 2118              CURICICA  - 22713001RIO DE JANEIRO RJUNIAO UMB DOS CULTOS AFRO BRAS    28021810 000012
10231987175000168817800093673    00006965                     000069650000000000000109                     I016965      28021800000000035003410000017N271217050900000000000102802180000000000000000000000000000000000000000100089770250791JUREMA DA MACENA RAYMUNDO               RUA DAS DALIAS, 78                      VILA VALQUEI21330740RIO DE JANEIRO RJUNIAO UMB DOS CULTOS AFRO BRAS    28021810 000013
10231987175000168817800093673    00006964                     000069640000000000000109                     I016964      28021800000000035003410000017N271217050900000000000102802180000000000000000000000000000000000000000100014326136774CAIO CESAR LIMA DA CRUZ                 RUA QUINTINO BOCAIUVA, 349              NOVA CIDADE 26535130NILOPOLIS      RJUNIAO UMB DOS CULTOS AFRO BRAS    28021810 000014
10231987175000168817800093673    00006963                     000069630000000000000109                     I016963      28021800000000035003410000017N271217050900000000000102802180000000000000000000000000000000000000000100005878475731CLEITOM RODRIGUES DE OLIVEIRA           RUA ARARI, 621 BLOCO 38 APT 304         BANGU - RJ  21875260RIO DE JANEIRO RJUNIAO UMB DOS CULTOS AFRO BRAS    28021810 000015
10231987175000168817800093673    00006962                     000069620000000000000109                     I016962      28021800000000035003410000017N271217050900000000000102802180000000000000000000000000000000000000000100000556390709ANNA MENDONCA BORGES                    RUA I, LOTEAMENTO SAO SEBASTIAO, 1089   FRAGOSO - MA25935486MAGE           RJUNIAO UMB DOS CULTOS AFRO BRAS    28021810 000016
10231987175000168817800093673    00006961                     000069610000000000000109                     I016961      28021800000000035003410000017N271217050900000000000102802180000000000000000000000000000000000000000100044331762734ELMA HONORIA DAS NEVES                  RUA CORREIA DIAS, 1052 CASA 6           VIGARIO GERA21241310RIO DE JANEIRO RJUNIAO UMB DOS CULTOS AFRO BRAS    28021810 000017
10231987175000168817800093673    00006960                     000069600000000000000109                     I016960      28021800000000035003410000017N271217050900000000000102802180000000000000000000000000000000000000000100062820125700LUIS AFONSO DOS SANTOS                  RUA RETIRO FELIZ, 2                     PARQUE AIDA 26193020BELFORD ROXO   RJUNIAO UMB DOS CULTOS AFRO BRAS    28021810 000018
10231987175000168817800093673    00006958                     000069580000000000000109                     I016958      28021800000000035003410000017N271217050900000000000102802180000000000000000000000000000000000000000100002200754760VANESSA MEDINA DA SILVA                 RUA JOAQUIM MOREIRA, 45                 SEPETIBA - R23545003RIO DE JANEIRO RJUNIAO UMB DOS CULTOS AFRO BRAS    28021810 000019
10231987175000168817800093673    00006957                     000069570000000000000109                     I016957      28021800000000035003410000017N271217050900000000000102802180000000000000000000000000000000000000000100003350774717ROGERIO SILVA DE SOUZA                  RUA TACARATU, 118                       ROCHA MIRAND21555010RIO DE JANEIRO RJUNIAO UMB DOS CULTOS AFRO BRAS    28021810 000020
10231987175000168817800093673    00006956                     000069560000000000000109                     I016956      28021800000000035003410000017N271217050900000000000102802180000000000000000000000000000000000000000100008612394740SEBASTIAO PORTES NETO                   RUA MARIETA, 451                        PARQUE SAO N25530093SAO JOAO DE MERRJUNIAO UMB DOS CULTOS AFRO BRAS    28021810 000021
10231987175000168817800093673    00006955                     000069550000000000000109                     I016955      28021800000000035003410000017N271217050900000000000102802180000000000000000000000000000000000000000100007812146707GRASIELI RIBEIRO DE ALMEIDA             RUA PADRE ARMANDO NOGUEIRA, 30          AGUA SANTA -20745120RIO DE JANEIRO RJUNIAO UMB DOS CULTOS AFRO BRAS    28021810 000022
10231987175000168817800093673    00006954                     000069540000000000000109                     I016954      28021800000000035003410000017N271217050900000000000102802180000000000000000000000000000000000000000100003558966724ANDREA CORDEIRO DA CONCEICAO S          RUA  PARATI, 379 - KM 35                BOM JESUS - 26298183NOVA IGUACU    RJUNIAO UMB DOS CULTOS AFRO BRAS    28021810 000023
10231987175000168817800093673    00006953                     000069530000000000000109                     I016953      28021800000000035003410000017N271217050900000000000102802180000000000000000000000000000000000000000100096051523715MARIA DE LOURDES PEREIRA                RUA MAX MANOEL MOLTER LOTE 42           QUARTEIRAO B25680211PETROPOLIS     RJUNIAO UMB DOS CULTOS AFRO BRAS    28021810 000024
10231987175000168817800093673    00006941                     000069410000000000000109                     I016941      28021800000000035003410000017N271217050900000000000102802180000000000000000000000000000000000000000100087394464768LEILA MARIA ROSA MARTINS                RUA EDNA MEDEIROS, 155                  CORUMBA - NO26042430NOVA IGUACU    RJUNIAO UMB DOS CULTOS AFRO BRAS    28021810 000025
10231987175000168817800093673    00006940                     000069400000000000000109                     I016940      28021800000000035003410000017N271217050900000000000102802180000000000000000000000000000000000000000100004245693703JONETE DA SILVA FRANCISCO               RUA MOZART FIRMESA, 20 COBERTURA 303    RECREIO - RJ22795365RIO DE JANEIRO RJUNIAO UMB DOS CULTOS AFRO BRAS    28021810 000026
10231987175000168817800093673    00006939                     000069390000000000000109                     I016939      28021800000000035003410000017N271217050900000000000102802180000000000000000000000000000000000000000100069296715415VANDA FEIJO DE MELO DE CASTRO           RUA DOUTOR GARNIER, 687 CASA 2          ROCHA - RIO 20975000RIO DE JANEIRO RJUNIAO UMB DOS CULTOS AFRO BRAS    28021810 000027
10231987175000168817800093673    00006938                     000069380000000000000109                     I016938      28021800000000035003410000017N271217050900000000000102802180000000000000000000000000000000000000000100003360087755ELIENE GONCALVES JACINTO                TRAVESSA DAS FLORES, 20                 PARQUE LAFAI25010695DUQUE DE CAXIASRJUNIAO UMB DOS CULTOS AFRO BRAS    28021810 000028
10231987175000168817800093673    00006937                     000069370000000000000109                     I016937      28021800000000035003410000017N271217050900000000000102802180000000000000000000000000000000000000000100007547737790ALESSANDRO CRUZ GONCALVES               RUA DIONISIO FERNANDES, 297 BLOCO 1 APTOENGENHO DE D20730400RIO DE JANEIRO RJUNIAO UMB DOS CULTOS AFRO BRAS    28021810 000029
10231987175000168817800093673    00006936                     000069360000000000000109                     I016936      28021800000000035003410000017N271217050900000000000102802180000000000000000000000000000000000000000100005836497770SIDEAN LEANDRO DOS SANTOS CRUZ          RUA MENDES RIBEIRO, 696                 PATRONATO - 24431635SAO GONCALO    RJUNIAO UMB DOS CULTOS AFRO BRAS    28021810 000030
10231987175000168817800093673    00006935                     000069350000000000000109                     I016935      28021800000000035003410000017N271217050900000000000102802180000000000000000000000000000000000000000100075911140772MARCIA FIGUEIREDO DOS SANTOS G          RUA FERNANDO LOBO, 571 - RUA B QUADRA B GUADALUPE - 21665070RIO DE JANEIRO RJUNIAO UMB DOS CULTOS AFRO BRAS    28021810 000031
9                                                                                                                                                                                                                                                                                                                                                                                                         000032
