01REMESSA01COBRANCA       817800093673        União Umb dos Cultos Afro Bra341BANCO ITAU SA  161118                                                                                                                                                                                                                                                                                                      000001
10231987175000168817800093673    000033422                    000334220000000000000109                     I0133422     30111800000000105003410000017N151118104700000000000103011180000000000000000000000000000000000000000100060407875700KATIA DE AZEVEDO FURTADO                RUA SOUZA PITANGA                       THOMAS COELH21381230RIO DE JANEIRO RJUNIAO UMB DOS CULTOS AFRO BRAS    30111810 000002
10231987175000168817800093673    000033421                    000334210000000000000109                     I0133421     10121800000000210003410000017N151118104700000000000101012180000000000000000000000000000000000000000100003761710739ALMIRA DE SOUZA SANTOS                  RUA CARMELITA DE JESUS                  ELISA MARIA 23076440RIO DE JANEIRO RJUNIAO UMB DOS CULTOS AFRO BRAS    10121810 000003
10231987175000168817800093673    000033420                    000334200000000000000109                     I0133420     15121800000000350003410000017N151118104700000000000101512180000000000000000000000000000000000000000100065138210700TANIA CRISTINA DOS SANTOS PERE          RUA: BOM JARDIM                         GRAMACHO    25035060DUQUE DE CAXIASRJUNIAO UMB DOS CULTOS AFRO BRAS    15121810 000004
10231987175000168817800093673    000033419                    000334190000000000000109                     I0133419     30111800000000080003410000017N141118104700000000000103011180000000000000000000000000000000000000000100070550891749CELSO POYDO MENDES                      RUA: SOUZA FREITAS                      PILARES     20760710RIO DE JANEIRO RJUNIAO UMB DOS CULTOS AFRO BRAS    30111810 000005
10231987175000168817800093673    000032849                    000328490000000000000109                     I3432849     20121800000000400003410000017N291018104700000000000102012180000000000000000000000000000000000000000100085931357734DENISE PEREIRA DA SILVA                 AVENIDA SAO JOSE MARIA ESCRIVA          ITANHANGA   22753200RIO DE JANEIRO RJUNIAO UMB DOS CULTOS AFRO BRAS    20121810 000006
10231987175000168817800093673    000032284                    000322840000000000000109                     I3432284     20121800000000350003410000017N291018104700000000000102012180000000000000000000000000000000000000000100066620899749ANTONIO MANOEL DE OLIVEIRA              RUA GASTAO LEITE CABRAL ZUMBI           CACUIA-ILHA 21930530RIO DE JANEIRO RJUNIAO UMB DOS CULTOS AFRO BRAS    20121810 000007
10231987175000168817800093673    000031846                    000318460000000000000109                     I0231846     20121800000000350003410000017N291018104700000000000102012180000000000000000000000000000000000000000100001015649700JORGE LUIZ PEIXOTO DO NASCIMEN          RUA: SALDANHA MARINHO                   NEVES       24425225SAO GONCALO    RJUNIAO UMB DOS CULTOS AFRO BRAS    20121810 000008
10231987175000168817800093673    000030716                    000307160000000000000109                     I3430716     20121800000000350003410000017N291018104700000000000102012180000000000000000000000000000000000000000100005206125741MARIA DA GRACA PEREIRA DA SILV          RUA PADRE MIGUEL CASTILLO               JARDIM PORTU25046460DUQUE DE CAXIASRJUNIAO UMB DOS CULTOS AFRO BRAS    20121810 000009
10231987175000168817800093673    000030560                    000305600000000000000109                     I0230560     20121800000000350003410000017N291018104700000000000102012180000000000000000000000000000000000000000100071129537749IVAN FLORENCIO DE SOUZA                 RUA CRISTIANO OTONI                     JARDIM GRAMA25055370DUQUE DE CAXIASRJUNIAO UMB DOS CULTOS AFRO BRAS    20121810 000010
10231987175000168817800093673    000029598                    000295980000000000000109                     I0229598     20121800000000035003410000017N291018104700000000000102012180000000000000000000000000000000000000000100001015649700JORGE LUIZ PEIXOTO DO NASCIMEN          RUA: SALDANHA MARINHO                   NEVES       24425225SAO GONCALO    RJUNIAO UMB DOS CULTOS AFRO BRAS    20121810 000011
9                                                                                                                                                                                                                                                                                                                                                                                                         000012
