01REMESSA01COBRANCA       916200163100        União Umb dos Cultos Afro Bra341BANCO ITAU SA  290419                                                                                                                                                                                                                                                                                                      000001
10231987175000168916200163100    000045046                    000450460000000000000109                     I3445046     12041900000000005003410000017N110419105700000000000101204190000000000000000000000000000000000000000100005851795735JOAO LUIZ DE OLIVEIRA MAGALHAE          RUA ANTONIO CARLOS PARANHOSN 29,        VILA VALQUEI21321340RIO DE JANEIRO RJUNIAO UMB DOS CULTOS AFRO BRAS    12041915 000002
9                                                                                                                                                                                                                                                                                                                                                                                                         000003
