01REMESSA01COBRANCA       916200163100        União Umb dos Cultos Afro Bra341BANCO ITAU SA  310719                                                                                                                                                                                                                                                                                                      000001
10231987175000168916200163100    000050008                    000500080000000000000109                     I0150008     16081900000000120003410000017N310719105700000000000401608190000000000000000000000000000000000000000100005209152758LAZARO OLIVEIRA DE ARAUJO               RUA MULULO DA VEIGAN 1045,              NEVES       24425460SAO GONCALO    RJUNIAO UMB DOS CULTOS AFRO BRAS    16081915 000002
21160820190000000000240                                                                                                                                                                                                                                                                                                                                                                                   000003
10231987175000168916200163100    000050007                    000500070000000000000109                     I0150007     06081900000000040003410000017N310719105700000000000130608190000000000000000000000000000000000000000100053411200782ELZA MORAES DA SILVA                    RUA WALTER JORGE BRAGAN 19,             PARQUE TELES25581171SAO JOAO DE MERRJUNIAO UMB DOS CULTOS AFRO BRAS    06081915 000004
21060820190000000000080                                                                                                                                                                                                                                                                                                                                                                                   000005
10231987175000168916200163100    000044877                    000448770000000000000109                     I0244877     30061900000000040003410000017N220319105700000000000133006190000000000000000000000000000000000000000100007541296759NELMA DOS ANJOS SOUZA GONCALVE          ESTRADA PEDRINHASN 23, QUADRA 8         VENDA VELHA 25580660SAO JOAO DE MERRJUNIAO UMB DOS CULTOS AFRO BRAS    30061915 000006
21300620190000000000080                                                                                                                                                                                                                                                                                                                                                                                   000007
10231987175000168916200163100    000044676                    000446760000000000000109                     I3444676     30061900000000040003410000017N130319105700000000000133006190000000000000000000000000000000000000000100085737437787NIVALDA PIRES RUFINO                    RUA: MARIO CARPENTERN 830,              ABOLICAO    20755065RIO DE JANEIRO RJUNIAO UMB DOS CULTOS AFRO BRAS    30061915 000008
21300620190000000000080                                                                                                                                                                                                                                                                                                                                                                                   000009
10231987175000168916200163100    000044296                    000442960000000000000109                     I0244296     30061900000000040003410000017N130319105700000000000133006190000000000000000000000000000000000000000100024540285734FERNANDO PEREIRA DE SOUZA               RUA ALECRIM N 1001,                     VILA KOSMOS 21220050RIO DE JANEIRO RJUNIAO UMB DOS CULTOS AFRO BRAS    30061915 000010
21300620190000000000080                                                                                                                                                                                                                                                                                                                                                                                   000011
10231987175000168916200163100    000043591                    000435910000000000000109                     I0243591     30061900000000040003410000017N130319105700000000000133006190000000000000000000000000000000000000000100082059403715SANDRA HELENA VILLAMOR MONTASS          RUA ARGOS N 693,                        GUADALUPE   21660050RIO DE JANEIRO RJUNIAO UMB DOS CULTOS AFRO BRAS    30061915 000012
21300620190000000000080                                                                                                                                                                                                                                                                                                                                                                                   000013
10231987175000168916200163100    000043227                    000432270000000000000109                     I0243227     30061900000000040003410000017N130319105700000000000133006190000000000000000000000000000000000000000100053411200782ELZA MORAES DA SILVA                    RUA WALTER JORGE BRAGAN 19,             PARQUE TELES25581171SAO JOAO DE MERRJUNIAO UMB DOS CULTOS AFRO BRAS    30061915 000014
21300620190000000000080                                                                                                                                                                                                                                                                                                                                                                                   000015
9                                                                                                                                                                                                                                                                                                                                                                                                         000016
