01REMESSA01COBRANCA       817800093673        União Umb dos Cultos Afro Bra341BANCO ITAU SA  050619                                                                                                                                                                                                                                                                                                      000001
10231987175000168817800093673    000045354                    000453540000000000000109                     I0145354     05061900000000300003410000017N050619105700000000000990506190000000000000000000000000000000000000000100005851795735JOAO LUIZ DE OLIVEIRA MAGALHAE          RUA ANTONIO CARLOS PARANHOSN 29,        VILA VALQUEI21321340RIO DE JANEIRO RJUNIAO UMB DOS CULTOS AFRO BRAS    05061915 000002
21050620190000000003000                                                                                                                                                                                                                                                                                                                                                                                   000003
10231987175000168817800093673    000045353                    000453530000000000000109                     I0145353     30061900000000080003410000017N050619105700000000000263006190000000000000000000000000000000000000000100073918784720CLAUDIO GOMES DA SILVA                  RUA JABOTIANAN 25,                      ROCHA MIRAND21540670RIO DE JANEIRO RJUNIAO UMB DOS CULTOS AFRO BRAS    30061915 000004
21300620190000000000800                                                                                                                                                                                                                                                                                                                                                                                   000005
10231987175000168817800093673    000045352                    000453520000000000000109                     I0145352     07061900000000900003410000017N050619105700000000002970706190000000000000000000000000000000000000000100003399021755MARIA DA GLORIA DA COSTA ESTEV          RUA SOUTO CARVALHON 14,                 ENGENHO NOVO20950310RIO DE JANEIRO RJUNIAO UMB DOS CULTOS AFRO BRAS    07061915 000006
21070620190000000009000                                                                                                                                                                                                                                                                                                                                                                                   000007
10231987175000168817800093673    000045346                    000453460000000000000109                     I0245346     30061900000000300003410000017N040619105700000000000993006190000000000000000000000000000000000000000100000890225729MARINA DA SILVA ANGELO                  RUA DOZEN 0, LOTE 6 QUADRA 36 FUNDOS    JOAO CAETANO24866456ITABORAI       RJUNIAO UMB DOS CULTOS AFRO BRAS    30061915 000008
21300620190000000003000                                                                                                                                                                                                                                                                                                                                                                                   000009
10231987175000168817800093673    000045323                    000453230000000000000109                     I0145323     07061900000000350003410000017N290519105700000000001160706190000000000000000000000000000000000000000100088966330797ZENIRA DE CARVALHO CONCEICAO            AVENIDA ALMIRANTE AMORIM DO VALEN 25, QUVISTA ALEGRE24724560SAO GONCALO    RJUNIAO UMB DOS CULTOS AFRO BRAS    07061915 000010
21070620190000000003500                                                                                                                                                                                                                                                                                                                                                                                   000011
9                                                                                                                                                                                                                                                                                                                                                                                                         000012
