01REMESSA01COBRANCA       817800093673        União Umb dos Cultos Afro Bra341BANCO ITAU SA  060819                                                                                                                                                                                                                                                                                                      000001
10231987175000168817800093673    000049075                    000490750000000000000109                     I0249075     30091900000000040003410000017N100619105700000000000133009190000000000000000000000000000000000000000100013222358729AMANDA PAULA TORRES DE SOUZA            RUA JOAO VICENTEN 261,                  MADUREIRA   21340020RIO DE JANEIRO RJUNIAO UMB DOS CULTOS AFRO BRAS    30091915 000002
21300920190000000000080                                                                                                                                                                                                                                                                                                                                                                                   000003
10231987175000168817800093673    000047636                    000476360000000000000109                     I0247636     30081900000000040003410000017N100619105700000000000133008190000000000000000000000000000000000000000100013222358729AMANDA PAULA TORRES DE SOUZA            RUA JOAO VICENTEN 261,                  MADUREIRA   21340020RIO DE JANEIRO RJUNIAO UMB DOS CULTOS AFRO BRAS    30081915 000004
21300820190000000000080                                                                                                                                                                                                                                                                                                                                                                                   000005
10231987175000168817800093673    000046206                    000462060000000000000109                     I0246206     30071900000000040003410000017N100619105700000000000133007190000000000000000000000000000000000000000100013222358729AMANDA PAULA TORRES DE SOUZA            RUA JOAO VICENTEN 261,                  MADUREIRA   21340020RIO DE JANEIRO RJUNIAO UMB DOS CULTOS AFRO BRAS    30071915 000006
21300720190000000000080                                                                                                                                                                                                                                                                                                                                                                                   000007
10231987175000168817800093673    000046002                    000460020000000000000109                     I0246002     30071900000000040003410000017N100619105700000000000133007190000000000000000000000000000000000000000100005243182710JACIRA HELENA MAURICIO ARRUDA           AVENIDA TENENTE REBELON 531, APT 104    IRAJA       21230075RIO DE JANEIRO RJUNIAO UMB DOS CULTOS AFRO BRAS    30071915 000008
21300720190000000000080                                                                                                                                                                                                                                                                                                                                                                                   000009
9                                                                                                                                                                                                                                                                                                                                                                                                         000010
