01REMESSA01COBRANCA       817800093673        União Umb dos Cultos Afro Bra341BANCO ITAU SA  170419                                                                                                                                                                                                                                                                                                      000001
10231987175000168817800093673    000045082                    000450820000000000000109                     I0145082     30061900000000040003410000017N170419105700000000000103006190000000000000000000000000000000000000000100087962454768JORGE TADEU FERREIRA DA SILVA           RUA ANTONIO TOLEDON 383,                GALO BRANCO 24422020SAO GONCALO    RJUNIAO UMB DOS CULTOS AFRO BRAS    30061915 000002
10231987175000168817800093673    000045081                    000450810000000000000109                     I0145081     30051900000000040003410000017N170419105700000000000103005190000000000000000000000000000000000000000100087962454768JORGE TADEU FERREIRA DA SILVA           RUA ANTONIO TOLEDON 383,                GALO BRANCO 24422020SAO GONCALO    RJUNIAO UMB DOS CULTOS AFRO BRAS    30051915 000003
10231987175000168817800093673    000045080                    000450800000000000000109                     I0145080     30061900000000040003410000017N170419105700000000000103006190000000000000000000000000000000000000000100015039577729JEFERSON LIMA VIDAL DA SILVA            RUA PARANAN 26, FURQUIM MENDES          VIGARIO GERA21241340RIO DE JANEIRO RJUNIAO UMB DOS CULTOS AFRO BRAS    30061915 000004
10231987175000168817800093673    000045079                    000450790000000000000109                     I0145079     30051900000000040003410000017N170419105700000000000103005190000000000000000000000000000000000000000100015039577729JEFERSON LIMA VIDAL DA SILVA            RUA PARANAN 26, FURQUIM MENDES          VIGARIO GERA21241340RIO DE JANEIRO RJUNIAO UMB DOS CULTOS AFRO BRAS    30051915 000005
10231987175000168817800093673    000045078                    000450780000000000000109                     I0145078     30061900000000040003410000017N170419105700000000000103006190000000000000000000000000000000000000000100026787024720SHIRLEI AVELAR DA SILVA                 ESTRADA DO BARRO VERMELHON 1181,        COLEGIO     21540502RIO DE JANEIRO RJUNIAO UMB DOS CULTOS AFRO BRAS    30061915 000006
10231987175000168817800093673    000045077                    000450770000000000000109                     I0145077     30051900000000040003410000017N170419105700000000000103005190000000000000000000000000000000000000000100026787024720SHIRLEI AVELAR DA SILVA                 ESTRADA DO BARRO VERMELHON 1181,        COLEGIO     21540502RIO DE JANEIRO RJUNIAO UMB DOS CULTOS AFRO BRAS    30051915 000007
10231987175000168817800093673    000045076                    000450760000000000000109                     I0145076     30061900000000040003410000017N170419105700000000000103006190000000000000000000000000000000000000000100098692500763ELIANA DE OLIVEIRA RAMOS                RUA APARECIDAN 749,                     CARMARI     26022181NOVA IGUACU    RJUNIAO UMB DOS CULTOS AFRO BRAS    30061915 000008
10231987175000168817800093673    000045075                    000450750000000000000109                     I0145075     30051900000000040003410000017N170419105700000000000103005190000000000000000000000000000000000000000100098692500763ELIANA DE OLIVEIRA RAMOS                RUA APARECIDAN 749,                     CARMARI     26022181NOVA IGUACU    RJUNIAO UMB DOS CULTOS AFRO BRAS    30051915 000009
10231987175000168817800093673    000045074                    000450740000000000000109                     I0145074     05051900000000120003410000017N170419105700000000000100505190000000000000000000000000000000000000000100007648724782MARLENE INACIA NUNES DO NASCIM          RUA DOUTOR BERNARDINO TEIXEIRAN 753,    EDEN        25545110SAO JOAO DE MERRJUNIAO UMB DOS CULTOS AFRO BRAS    05051915 000010
10231987175000168817800093673    000039631                    000396310000000000000109                     I0239631     31031900000000040003410000017N210119105700000000000103103190000000000000000000000000000000000000000100007648724782MARLENE INACIA NUNES DO NASCIM          RUA DOUTOR BERNARDINO TEIXEIRAN 753,    EDEN        25545110SAO JOAO DE MERRJUNIAO UMB DOS CULTOS AFRO BRAS    31031915 000011
10231987175000168817800093673    000039630                    000396300000000000000109                     I0239630     28021900000000040003410000017N210119105700000000000102802190000000000000000000000000000000000000000100007648724782MARLENE INACIA NUNES DO NASCIM          RUA DOUTOR BERNARDINO TEIXEIRAN 753,    EDEN        25545110SAO JOAO DE MERRJUNIAO UMB DOS CULTOS AFRO BRAS    28021915 000012
10231987175000168817800093673    000039263                    000392630000000000000109                     I0239263     30031900000000040003410000017N261218105700000000000103003190000000000000000000000000000000000000000100010440702771AMANDA APARECIDA AZEVEDO CARDO          RUA COREMASN 0, LOTE 22 QUADRA 76       COSMOS      23060040RIO DE JANEIRO RJUNIAO UMB DOS CULTOS AFRO BRAS    30031915 000013
10231987175000168817800093673    000039126                    000391260000000000000109                     I0239126     30031900000000040003410000017N261218105700000000000103003190000000000000000000000000000000000000000100076348547787EDIVANICE DE OLIVEIRA DA CRUZ           RUA J J COWSERT N 300, CASA 20          TOMAS COELHO21370450RIO DE JANEIRO RJUNIAO UMB DOS CULTOS AFRO BRAS    30031915 000014
10231987175000168817800093673    000038906                    000389060000000000000109                     I0238906     30031900000000040003410000017N261218105700000000000103003190000000000000000000000000000000000000000100001383163766RENATA DOMINGUES COSTA LIMA JA          RUA CALIFAN 7,                          LAGOINHA    26298012NOVA IGUACU    RJUNIAO UMB DOS CULTOS AFRO BRAS    30031915 000015
10231987175000168817800093673    000038716                    000387160000000000000109                     I0238716     30031900000000040003410000017N261218105700000000000103003190000000000000000000000000000000000000000100047783877753RAIMUNDO NONATO VALENCA RIBEIR          AVENIDA PREFEITO BRAULINO DE MATOS REISNCOPACABANA  25060440DUQUE DE CAXIASRJUNIAO UMB DOS CULTOS AFRO BRAS    30031915 000016
10231987175000168817800093673    000038258                    000382580000000000000109                     I0238258     30031900000000040003410000017N261218105700000000000103003190000000000000000000000000000000000000000100087868172720ADHEMAR ACHILLES AVILLA JUNIOR          RUA PADRE GILN 20,                      PARQUE BONEV25907096MAGE           RJUNIAO UMB DOS CULTOS AFRO BRAS    30031915 000017
10231987175000168817800093673    000038192                    000381920000000000000109                     I0238192     30031900000000040003410000017N261218105700000000000103003190000000000000000000000000000000000000000100068754485720LUCIA DA CONCEICAO GREGORIO             RUA EPITACIO PESSOAN 0, LOTE 5 QUADRA 15VILA HELIOPO26125520BELFORD ROXO   RJUNIAO UMB DOS CULTOS AFRO BRAS    30031915 000018
10231987175000168817800093673    000037344                    000373440000000000000109                     I0237344     28021900000000040003410000017N261218105700000000000102802190000000000000000000000000000000000000000100010440702771AMANDA APARECIDA AZEVEDO CARDO          RUA COREMASN 0, LOTE 22 QUADRA 76       COSMOS      23060040RIO DE JANEIRO RJUNIAO UMB DOS CULTOS AFRO BRAS    28021915 000019
10231987175000168817800093673    000037207                    000372070000000000000109                     I0237207     28021900000000040003410000017N261218105700000000000102802190000000000000000000000000000000000000000100076348547787EDIVANICE DE OLIVEIRA DA CRUZ           RUA J J COWSERT N 300, CASA 20          TOMAS COELHO21370450RIO DE JANEIRO RJUNIAO UMB DOS CULTOS AFRO BRAS    28021915 000020
10231987175000168817800093673    000036987                    000369870000000000000109                     I0236987     28021900000000040003410000017N261218105700000000000102802190000000000000000000000000000000000000000100001383163766RENATA DOMINGUES COSTA LIMA JA          RUA CALIFAN 7,                          LAGOINHA    26298012NOVA IGUACU    RJUNIAO UMB DOS CULTOS AFRO BRAS    28021915 000021
10231987175000168817800093673    000036798                    000367980000000000000109                     I0236798     28021900000000040003410000017N261218105700000000000102802190000000000000000000000000000000000000000100047783877753RAIMUNDO NONATO VALENCA RIBEIR          AVENIDA PREFEITO BRAULINO DE MATOS REISNCOPACABANA  25060440DUQUE DE CAXIASRJUNIAO UMB DOS CULTOS AFRO BRAS    28021915 000022
10231987175000168817800093673    000036342                    000363420000000000000109                     I0236342     28021900000000040003410000017N261218105700000000000102802190000000000000000000000000000000000000000100087868172720ADHEMAR ACHILLES AVILLA JUNIOR          RUA PADRE GILN 20,                      PARQUE BONEV25907096MAGE           RJUNIAO UMB DOS CULTOS AFRO BRAS    28021915 000023
10231987175000168817800093673    000036276                    000362760000000000000109                     I0236276     28021900000000040003410000017N261218105700000000000102802190000000000000000000000000000000000000000100068754485720LUCIA DA CONCEICAO GREGORIO             RUA EPITACIO PESSOAN 0, LOTE 5 QUADRA 15VILA HELIOPO26125520BELFORD ROXO   RJUNIAO UMB DOS CULTOS AFRO BRAS    28021915 000024
9                                                                                                                                                                                                                                                                                                                                                                                                         000025
