01REMESSA01COBRANCA       817800093673        União Umb dos Cultos Afro Bra341BANCO ITAU SA  190118                                                                                                                                                                                                                                                                                                      000001
10231987175000168817800093673    00007216                     000072160000000000000109                     I017216      28021800000000035003410000017N271217104700000000000102802180000000000000000000000000000000000000000100005225598757JOSUE DA SILVA SANTOS                   RUA BARAO DO AMAPA S/N LOTE 1 QUADRA 40 AMAPA - DUQU21211007DUQUE DE CAXIASRJUNIAO UMB DOS CULTOS AFRO BRAS    28021810 000002
10231987175000168817800093673    00007003                     000070030000000000000109                     I017003      28021800000000035003410000017N271217104700000000000102802180000000000000000000000000000000000000000100000137585780ARLINDA CAMILO DOS SANTOS               RUA MANOEL PAULO DE FARIA, 435 ANTIGA RUFRAGOSO - MA25935298MAGE           RJUNIAO UMB DOS CULTOS AFRO BRAS    28021810 000003
9                                                                                                                                                                                                                                                                                                                                                                                                         000004
