01REMESSA01COBRANCA       817800093673        União Umb dos Cultos Afro Bra341BANCO ITAU SA  140519                                                                                                                                                                                                                                                                                                      000001
10231987175000168817800093673    000045275                    000452750000000000000109                     I0145275     30051900000000005003410000017N140519105700000000000103005190000000000000000000000000000000000000000100005851795735JOAO LUIZ DE OLIVEIRA MAGALHAE          RUA ANTONIO CARLOS PARANHOSN 29,        VILA VALQUEI21321340RIO DE JANEIRO RJUNIAO UMB DOS CULTOS AFRO BRAS    30051915 000002
9                                                                                                                                                                                                                                                                                                                                                                                                         000003
