01REMESSA01COBRANCA       817800093673        União Umb dos Cultos Afro Bra341BANCO ITAU SA  261218                                                                                                                                                                                                                                                                                                      000001
10231987175000168817800093673    000038372                    000383720000000000000109                     I0138372     30031900000000040003410000017N261218104700000000000103003190000000000000000000000000000000000000000100086357522791ANDRE VEIGA PEIXOTO                     ALAMEDA SAO BENTO                       PARQUE SAO V26172130BELFORD ROXO   RJUNIAO UMB DOS CULTOS AFRO BRAS    30031910 000002
10231987175000168817800093673    000038371                    000383710000000000000109                     I0138371     30031900000000040003410000017N261218104700000000000103003190000000000000000000000000000000000000000100081230737715MARIA HELENA ORNELLAS DA COSTA          RUA CACEQUI                             CALIFORNIA  26220150NOVA IGUACU    RJUNIAO UMB DOS CULTOS AFRO BRAS    30031910 000003
10231987175000168817800093673    000038370                    000383700000000000000109                     I0138370     30031900000000040003410000017N261218104700000000000103003190000000000000000000000000000000000000000100088513505749IDALINA BONIFACIO GUIRA                 RUA CYRENE MORAES COSTA                 CENTRO      26389000RIO DE JANEIRO RJUNIAO UMB DOS CULTOS AFRO BRAS    30031910 000004
10231987175000168817800093673    000038369                    000383690000000000000109                     I0138369     30031900000000040003410000017N261218104700000000000103003190000000000000000000000000000000000000000100001416091769SUELY CORREA MACEDO SILVA               RUA DOUTOR MONTEIRO DE BARROS           SAO JOAO DE 00000000RIO DE JANEIRO RJUNIAO UMB DOS CULTOS AFRO BRAS    30031910 000005
10231987175000168817800093673    000038368                    000383680000000000000109                     I0138368     30031900000000040003410000017N261218104700000000000103003190000000000000000000000000000000000000000100024391537368RENATO SILVA HOTTZ                      RUA GENERAL PEREIRA DA SILVA            ICARAI      24220031NITEROI        RJUNIAO UMB DOS CULTOS AFRO BRAS    30031910 000006
10231987175000168817800093673    000038367                    000383670000000000000109                     I0138367     30031900000000040003410000017N261218104700000000000103003190000000000000000000000000000000000000000100001057692743ANDRE LUIZ PEDROZA VARELLA              RUA: DOIS DE FEVEREIRO                  ENCANTADO   20730452RIO DE JANEIRO RJUNIAO UMB DOS CULTOS AFRO BRAS    30031910 000007
10231987175000168817800093673    000038366                    000383660000000000000109                     I0138366     30031900000000040003410000017N261218104700000000000103003190000000000000000000000000000000000000000100069184585749MARIA DOLORES MARSAL NIN                RUA VINTE E SEIS                        BRISAMAR    23823380ITAGUAI        RJUNIAO UMB DOS CULTOS AFRO BRAS    30031910 000008
10231987175000168817800093673    000038365                    000383650000000000000109                     I0138365     30031900000000040003410000017N261218104700000000000103003190000000000000000000000000000000000000000100011782583785JORGE MARCIO DOS SANTOS SOUZA           RUA PEDRO JOSE DE OLIVEIRA              VARGEM GRAND27145232BARRA DO PIRAI RJUNIAO UMB DOS CULTOS AFRO BRAS    30031910 000009
10231987175000168817800093673    000038364                    000383640000000000000109                     I0138364     30031900000000040003410000017N261218104700000000000103003190000000000000000000000000000000000000000100000000010273MARCIA DO NASCIMENTO LOPES              RUA: PROFESSOR ELI MARIA DA SILVA BRAGA BOA SORTE   27150260BARRA DO PIRAI RJUNIAO UMB DOS CULTOS AFRO BRAS    30031910 000010
10231987175000168817800093673    000038363                    000383630000000000000109                     I0138363     30031900000000040003410000017N261218104700000000000103003190000000000000000000000000000000000000000100084908157715RAQUEL TAVARES FERREIRA DA SIL          RUA CATULO CEARENSE                     VILA GENI   23825290ITAGUAI        RJUNIAO UMB DOS CULTOS AFRO BRAS    30031910 000011
10231987175000168817800093673    000038362                    000383620000000000000109                     I0138362     30031900000000040003410000017N261218104700000000000103003190000000000000000000000000000000000000000100000000010261CARLOS ALBERTO DE SOUZA CALDAS          RUA: DALVA DE OLIVEIRA                  LAGOINHA    26351590NOVA IGUACU    RJUNIAO UMB DOS CULTOS AFRO BRAS    30031910 000012
10231987175000168817800093673    000038361                    000383610000000000000109                     I0138361     30031900000000040003410000017N261218104700000000000103003190000000000000000000000000000000000000000100000000001026MARA LUCIA CANDIDO RAMOS                RUA NOSSA SENHORA DA PENHA              MANGUEIRAL -21755140RIO DE JANEIRO RJUNIAO UMB DOS CULTOS AFRO BRAS    30031910 000013
10231987175000168817800093673    000038360                    000383600000000000000109                     I0138360     30031900000000040003410000017N261218104700000000000103003190000000000000000000000000000000000000000100007893369795CINTIA DE MENEZES MELO                  RUA HERCULANO PENA                      CAVALCANTI  21381410RIO DE JANEIRO RJUNIAO UMB DOS CULTOS AFRO BRAS    30031910 000014
10231987175000168817800093673    000038359                    000383590000000000000109                     I0138359     30031900000000040003410000017N261218104700000000000103003190000000000000000000000000000000000000000100067514090363ANTONIO MARTINS CHAVES                  RUA REGINA REIS                         QUINTINO BOC20740060RIO DE JANEIRO RJUNIAO UMB DOS CULTOS AFRO BRAS    30031910 000015
10231987175000168817800093673    000038358                    000383580000000000000109                     I0138358     30031900000000040003410000017N261218104700000000000103003190000000000000000000000000000000000000000100000000001024LUIZ CLAUDIO TEIXEIRA ALUIZIO           RUA ALBERTO SOARES SAMPAIO              TAQUARA - JA22715300RIO DE JANEIRO RJUNIAO UMB DOS CULTOS AFRO BRAS    30031910 000016
10231987175000168817800093673    000038357                    000383570000000000000109                     I0138357     30031900000000040003410000017N261218104700000000000103003190000000000000000000000000000000000000000100000230182755RITA DE CASSIA RESENDE BASTOS           RUA CAMBUI, 118                         ILHA DO GOVE21911130RIO DE JANEIRO RJUNIAO UMB DOS CULTOS AFRO BRAS    30031910 000017
10231987175000168817800093673    000038356                    000383560000000000000109                     I0138356     30031900000000040003410000017N261218104700000000000103003190000000000000000000000000000000000000000100071567747784MARIA DO CARMO MARIANO DOS SAN          RUA PERI                                EDEN        25535162SAO JOAO DE MERRJUNIAO UMB DOS CULTOS AFRO BRAS    30031910 000018
10231987175000168817800093673    000038355                    000383550000000000000109                     I0138355     30031900000000040003410000017N261218104700000000000103003190000000000000000000000000000000000000000100009856785774RAQUEL APARECIDA PEREIRA FLORE          RUA FRANCISCA ESTEVAO                   VALENCA     27600000RIO DE JANEIRO RJUNIAO UMB DOS CULTOS AFRO BRAS    30031910 000019
10231987175000168817800093673    000038354                    000383540000000000000109                     I0138354     30031900000000040003410000017N261218104700000000000103003190000000000000000000000000000000000000000100033291241720MARIA JOSE LOPES SOUSA                  RUA ALTAMIRO DOMICIANO DA CRUZ          SANTA CANDID23830640ITAGUAI        RJUNIAO UMB DOS CULTOS AFRO BRAS    30031910 000020
10231987175000168817800093673    000038353                    000383530000000000000109                     I0138353     30031900000000040003410000017N261218104700000000000103003190000000000000000000000000000000000000000100004273880741SOLANGE VICTORIO DE CARVALHO            RUA CELIDONIA                           CINCO MARIAS23032610GUARATIBA      RJUNIAO UMB DOS CULTOS AFRO BRAS    30031910 000021
10231987175000168817800093673    000038352                    000383520000000000000109                     I0138352     30031900000000040003410000017N261218104700000000000103003190000000000000000000000000000000000000000100054421500372ANTONIO IVANISIO DE SOUZA               RUA OUTONO                              POSSE       26020750NOVA IGUACU    RJUNIAO UMB DOS CULTOS AFRO BRAS    30031910 000022
10231987175000168817800093673    000038351                    000383510000000000000109                     I0138351     30031900000000040003410000017N261218104700000000000103003190000000000000000000000000000000000000000100003351716729WAGNER CONCEICAO DO NASCIMENTO          RUA CRISANTEMOS                         HITERLAND -S26171430BELFORD ROXO   RJUNIAO UMB DOS CULTOS AFRO BRAS    30031910 000023
10231987175000168817800093673    000038350                    000383500000000000000109                     I0138350     30031900000000040003410000017N261218104700000000000103003190000000000000000000000000000000000000000100012907979787CINARA CUNHA                            RUA OURO PRETO                          QUINTINO BOC21380380RIO DE JANEIRO RJUNIAO UMB DOS CULTOS AFRO BRAS    30031910 000024
10231987175000168817800093673    000038349                    000383490000000000000109                     I0138349     30031900000000040003410000017N261218104700000000000103003190000000000000000000000000000000000000000100080802273734LUIZ EDUARDO DA SILVA DE ANDRA          RUA CORONEL JOAO MAGALHAES              SAO JOAQUIM 02480000RIO DE JANEIRO RJUNIAO UMB DOS CULTOS AFRO BRAS    30031910 000025
10231987175000168817800093673    000038348                    000383480000000000000109                     I0138348     30031900000000040003410000017N261218104700000000000103003190000000000000000000000000000000000000000100091126037753SHEILA DE CARVALHO ALVARES              RUA MAGALHAES CASTRO                    RIACHUELO   20961020RIO DE JANEIRO RJUNIAO UMB DOS CULTOS AFRO BRAS    30031910 000026
10231987175000168817800093673    000038347                    000383470000000000000109                     I0138347     30031900000000040003410000017N261218104700000000000103003190000000000000000000000000000000000000000100069496161715JANICE DE CARVALHO                      RUA BRISA DO VALE                       CURICICA    22710530RIO DE JANEIRO RJUNIAO UMB DOS CULTOS AFRO BRAS    30031910 000027
10231987175000168817800093673    000038346                    000383460000000000000109                     I0138346     30031900000000040003410000017N261218104700000000000103003190000000000000000000000000000000000000000100011080748717ALVARO CHIANELLI DE AZEREDO             RUA 14 DE JULHO                         VILA SAO LUI25065061RIO DE JANEIRO RJUNIAO UMB DOS CULTOS AFRO BRAS    30031910 000028
10231987175000168817800093673    000038345                    000383450000000000000109                     I0138345     30031900000000040003410000017N261218104700000000000103003190000000000000000000000000000000000000000100000000001020MARILANE BARROSO BERNARDES              RUA MARIA LIMA VIEIRA                   VILA MARGARI23821050RIO DE JANEIRO RJUNIAO UMB DOS CULTOS AFRO BRAS    30031910 000029
10231987175000168817800093673    000038344                    000383440000000000000109                     I0138344     30031900000000040003410000017N261218104700000000000103003190000000000000000000000000000000000000000100059374179768ROSANGELA MARIA DE CASTRO BEZE          RUA DONA ISABEL                         BONSUCESSO  21032060RIO DE JANEIRO RJUNIAO UMB DOS CULTOS AFRO BRAS    30031910 000030
10231987175000168817800093673    000038343                    000383430000000000000109                     I0138343     30031900000000040003410000017N261218104700000000000103003190000000000000000000000000000000000000000100001556268769ANTONIO CARLOS DA CONCEICAO SA          RUA EMILIA MARTINS                      VILA MARTINS26043010NOVA IGUACU    RJUNIAO UMB DOS CULTOS AFRO BRAS    30031910 000031
10231987175000168817800093673    000038342                    000383420000000000000109                     I0138342     30031900000000040003410000017N261218104700000000000103003190000000000000000000000000000000000000000100061143766768RITA CRISTINA BENJAMIN CORREA           RUA ROSEO FONTES                        SANTA DALILA25921000MAGE           RJUNIAO UMB DOS CULTOS AFRO BRAS    30031910 000032
10231987175000168817800093673    000038341                    000383410000000000000109                     I0138341     30031900000000040003410000017N261218104700000000000103003190000000000000000000000000000000000000000100000000001019MARCELLIS ALELUIA BARRETO               ESTRADA TRES                            ITAIPUACU   24320070NITEROI        RJUNIAO UMB DOS CULTOS AFRO BRAS    30031910 000033
10231987175000168817800093673    000038340                    000383400000000000000109                     I0138340     30031900000000040003410000017N261218104700000000000103003190000000000000000000000000000000000000000100008232649712ADRIANO DA SILVA SANTOS                 AVENIDA JOAO  RIBEIRO                   PILARES     20750094RIO DE JANEIRO RJUNIAO UMB DOS CULTOS AFRO BRAS    30031910 000034
10231987175000168817800093673    000038339                    000383390000000000000109                     I0138339     30031900000000040003410000017N261218104700000000000103003190000000000000000000000000000000000000000100085148610778JACQUELINE MARQUES BARBOSA              RUA, 63                                 JD ATLANTICO00000000RIO DE JANEIRO RJUNIAO UMB DOS CULTOS AFRO BRAS    30031910 000035
10231987175000168817800093673    000038338                    000383380000000000000109                     I0138338     30031900000000040003410000017N261218104700000000000103003190000000000000000000000000000000000000000100002145317759ANDRE LUIZ MENDES                       RUA MARANGA                             PRACA SECA  21321060RIO DE JANEIRO RJUNIAO UMB DOS CULTOS AFRO BRAS    30031910 000036
10231987175000168817800093673    000038337                    000383370000000000000109                     I0138337     30031900000000040003410000017N261218104700000000000103003190000000000000000000000000000000000000000100026659840753IVANI DE OLIVEIRA COUTO                 RUA ITAJUBARA,                          RAMOS       21060180RIO DE JANEIRO RJUNIAO UMB DOS CULTOS AFRO BRAS    30031910 000037
10231987175000168817800093673    000038336                    000383360000000000000109                     I0138336     30031900000000040003410000017N261218104700000000000103003190000000000000000000000000000000000000000100002601405708ALEX VANDER VARGAS                      RUA QUEMARU                             ROCHA MIRAND21540510RIO DE JANEIRO RJUNIAO UMB DOS CULTOS AFRO BRAS    30031910 000038
10231987175000168817800093673    000038335                    000383350000000000000109                     I0138335     30031900000000040003410000017N261218104700000000000103003190000000000000000000000000000000000000000100005209152758LAZARO OLIVEIRA DE ARAUJO               RUA MULULO DA VEIGA                     NEVES       24425460SAO GONCALO    RJUNIAO UMB DOS CULTOS AFRO BRAS    30031910 000039
10231987175000168817800093673    000038334                    000383340000000000000109                     I0138334     30031900000000040003410000017N261218104700000000000103003190000000000000000000000000000000000000000100000000001016ANA MARIA DE CARVALHO MENEZES           RUA OASIS                               PRAIA DA BRI23028320GUARATIBA      RJUNIAO UMB DOS CULTOS AFRO BRAS    30031910 000040
10231987175000168817800093673    000038333                    000383330000000000000109                     I0138333     30031900000000040003410000017N261218104700000000000103003190000000000000000000000000000000000000000100085906859772JULIO CESAR DA SILVA                    RUA PROFESSOR MARIO BRANT               REALENGO    21760420RIO DE JANEIRO RJUNIAO UMB DOS CULTOS AFRO BRAS    30031910 000041
10231987175000168817800093673    000038332                    000383320000000000000109                     I0138332     30031900000000040003410000017N261218104700000000000103003190000000000000000000000000000000000000000100000000001015UILMA VIEIRA TEIXEIRA                   RUA: ITU                                JARDIM GRAMA25060350CAXIAS         RJUNIAO UMB DOS CULTOS AFRO BRAS    30031910 000042
10231987175000168817800093673    000038331                    000383310000000000000109                     I0138331     30031900000000040003410000017N261218104700000000000103003190000000000000000000000000000000000000000100088873366791CRISTINA SOUZA CAVALCANTE               RUA ARALIA                              CURICICA - J22710010RIO DE JANEIRO RJUNIAO UMB DOS CULTOS AFRO BRAS    30031910 000043
10231987175000168817800093673    000038330                    000383300000000000000109                     I0138330     30031900000000040003410000017N261218104700000000000103003190000000000000000000000000000000000000000100081929773749OSMAR FERREIRA DA SILVA                 ESTRADA BENTO BARBOSA DE CARVALHO       TINGUA      26062460NOVA IGUACU    RJUNIAO UMB DOS CULTOS AFRO BRAS    30031910 000044
10231987175000168817800093673    000038329                    000383290000000000000109                     I0138329     30031900000000040003410000017N261218104700000000000103003190000000000000000000000000000000000000000100036924997791EDILBERTO CAMPOS BRANDAO                RUA PERIANDRO JOSE DE MOURA             CANAL - 1º 25916256MAGE           RJUNIAO UMB DOS CULTOS AFRO BRAS    30031910 000045
10231987175000168817800093673    000038328                    000383280000000000000109                     I0138328     30031900000000040003410000017N261218104700000000000103003190000000000000000000000000000000000000000100000000010128PATRICIA DE ALMEIDA                     RUA: FRANCISCO MENDES FRANCO            CENTRO      27135170BARRA DO PIRAI RJUNIAO UMB DOS CULTOS AFRO BRAS    30031910 000046
10231987175000168817800093673    000038327                    000383270000000000000109                     I0138327     30031900000000040003410000017N261218104700000000000103003190000000000000000000000000000000000000000100002046332733CLAUDIONIRA DA SILVA CORREIA            RUA LUIZ CAMERANO                       BELVEDERE DA27113260BARRA DO PIRAI RJUNIAO UMB DOS CULTOS AFRO BRAS    30031910 000047
10231987175000168817800093673    000038326                    000383260000000000000109                     I0138326     30031900000000040003410000017N261218104700000000000103003190000000000000000000000000000000000000000100009468685730VERA LUCIA LOPES BRANDAO                RUA ORLANDO CARDELHAS DOS SANTOS        PARQUE CRUZ 25561331SAO JOAO DE MERRJUNIAO UMB DOS CULTOS AFRO BRAS    30031910 000048
10231987175000168817800093673    000038325                    000383250000000000000109                     I0138325     30031900000000040003410000017N261218104700000000000103003190000000000000000000000000000000000000000100081891423720MAURO DINIZ                             RUA UTUPEVA                             QUINTINO    00000000MARICA         RJUNIAO UMB DOS CULTOS AFRO BRAS    30031910 000049
10231987175000168817800093673    000038324                    000383240000000000000109                     I0138324     30031900000000040003410000017N261218104700000000000103003190000000000000000000000000000000000000000100000000001009CONCEICAO ROSA STANESCO NICOLI          RUA NOSSA SENHORA DE COPACABANA         COPACABANA  22050002RIO DE JANEIRO RJUNIAO UMB DOS CULTOS AFRO BRAS    30031910 000050
10231987175000168817800093673    000038323                    000383230000000000000109                     I0138323     30031900000000040003410000017N261218104700000000000103003190000000000000000000000000000000000000000100007702380764MARIA DO ROSARIO REZENDE                RUA ALCINO GUANABARA,                   CENTRO      25940000GUAPIMIRIM     RJUNIAO UMB DOS CULTOS AFRO BRAS    30031910 000051
10231987175000168817800093673    000038322                    000383220000000000000109                     I0138322     30031900000000040003410000017N261218104700000000000103003190000000000000000000000000000000000000000100033315574715MARIA DE LOURDES CARVALHO               RUA DOUTOR LUCIO                        VILA TIRADEN25525240SAO JOAO DE MERRJUNIAO UMB DOS CULTOS AFRO BRAS    30031910 000052
10231987175000168817800093673    000038321                    000383210000000000000109                     I0138321     30031900000000040003410000017N261218104700000000000103003190000000000000000000000000000000000000000100097343218700MIRIAM PEREIRA DA SILVA                 RUA MOREIRA CASTELO, LOTE 119           COLUBANDE   24744400SAO GONCALO    RJUNIAO UMB DOS CULTOS AFRO BRAS    30031910 000053
10231987175000168817800093673    000038320                    000383200000000000000109                     I0138320     30031900000000040003410000017N261218104700000000000103003190000000000000000000000000000000000000000100070818169753ZILAH MELO DIAS DA SILVA                RUA ALMIRANTE FIGUEIREDO                FREGUESIA - 21911150RIO DE JANEIRO RJUNIAO UMB DOS CULTOS AFRO BRAS    30031910 000054
10231987175000168817800093673    000038319                    000383190000000000000109                     I0138319     30031900000000040003410000017N261218104700000000000103003190000000000000000000000000000000000000000100004462221788ALEXSANDRO JULIO DE SOUZA               RUA CORURIPE                            MARECHAL HER21555490RIO DE JANEIRO RJUNIAO UMB DOS CULTOS AFRO BRAS    30031910 000055
10231987175000168817800093673    000038318                    000383180000000000000109                     I0138318     30031900000000040003410000017N261218104700000000000103003190000000000000000000000000000000000000000100015098659779JOAO ANDRE CASEMIRO MONTEIRO C          RUA DAS ARAUCARIAS                      CINCO LAGOS 26700000MENDES         RJUNIAO UMB DOS CULTOS AFRO BRAS    30031910 000056
10231987175000168817800093673    000038317                    000383170000000000000109                     I0138317     30031900000000040003410000017N261218104700000000000103003190000000000000000000000000000000000000000100002558274740RITA DE CASSIA BRITO DE SOUZA           RUA HOMERO PINTO CAPUTO                 BANGU       21863080RIO DE JANEIRO RJUNIAO UMB DOS CULTOS AFRO BRAS    30031910 000057
10231987175000168817800093673    000038316                    000383160000000000000109                     I0138316     30031900000000040003410000017N261218104700000000000103003190000000000000000000000000000000000000000100091228239720MIRIAN DA SILVA PEREIRA                 RUA  NORDESTE                           JARDIM PARAI26000000RIO DE JANEIRO RJUNIAO UMB DOS CULTOS AFRO BRAS    30031910 000058
10231987175000168817800093673    000038315                    000383150000000000000109                     I0138315     30031900000000040003410000017N261218104700000000000103003190000000000000000000000000000000000000000100096266031787CARLA DE FRANCA                         RUA REGINA                              PARQUE SUECI26187110BELFORD ROXO   RJUNIAO UMB DOS CULTOS AFRO BRAS    30031910 000059
10231987175000168817800093673    000038314                    000383140000000000000109                     I0138314     30031900000000040003410000017N261218104700000000000103003190000000000000000000000000000000000000000100003019825709BARBARA CRISPINIANO SIMOES CUN          RUA DOUTOR MARIO VALADARES              CENTRO      26535338NILOPOLIS      RJUNIAO UMB DOS CULTOS AFRO BRAS    30031910 000060
10231987175000168817800093673    000038313                    000383130000000000000109                     I0138313     30031900000000040003410000017N261218104700000000000103003190000000000000000000000000000000000000000100004766843746ALESSANDRO MEDEIROS BRITO               RUA SETE DE SETEMBRO                    PARQUE ESTRE25938280RIO DE JANEIRO RJUNIAO UMB DOS CULTOS AFRO BRAS    30031910 000061
10231987175000168817800093673    000038312                    000383120000000000000109                     I0138312     30031900000000040003410000017N261218104700000000000103003190000000000000000000000000000000000000000100037551868704NAKAYRA DA MOTTA LOBO                   RUA DOUTOR ARTUR MARTINS                MUTUA       24460350SAO GONCALO    RJUNIAO UMB DOS CULTOS AFRO BRAS    30031910 000062
10231987175000168817800093673    000038311                    000383110000000000000109                     I0138311     30031900000000040003410000017N261218104700000000000103003190000000000000000000000000000000000000000100002543752781MARIA DO SOCORRO MAMEDES DA SI          RUA GENERAL MARIANTE                    PARADA ANGEL25272410DUQUE DE CAXIASRJUNIAO UMB DOS CULTOS AFRO BRAS    30031910 000063
10231987175000168817800093673    000038310                    000383100000000000000109                     I0138310     30031900000000040003410000017N261218104700000000000103003190000000000000000000000000000000000000000100021973989700NILZA ARAGUEZ                           RUA PAJURA                              TAQUARA     22740210RIO DE JANEIRO RJUNIAO UMB DOS CULTOS AFRO BRAS    30031910 000064
10231987175000168817800093673    000038309                    000383090000000000000109                     I0138309     30031900000000040003410000017N261218104700000000000103003190000000000000000000000000000000000000000100078348048715CRISTIANE MARIA CARROZINO GAUD          ESTRADA: DO DENDE                       MONERO - ILH21920001RIO DE JANEIRO RJUNIAO UMB DOS CULTOS AFRO BRAS    30031910 000065
10231987175000168817800093673    000038308                    000383080000000000000109                     I0138308     30031900000000040003410000017N261218104700000000000103003190000000000000000000000000000000000000000100007039849771MARCIA SILVA DOS SANTOS FALCAO          ESTRADA DA BARREIRA                     CENTRO      25946070GUAPIMIRIM     RJUNIAO UMB DOS CULTOS AFRO BRAS    30031910 000066
10231987175000168817800093673    000038306                    000383060000000000000109                     I0138306     30031900000000040003410000017N261218104700000000000103003190000000000000000000000000000000000000000100007128617779NEIDE TELES DO NASCIMENTO               RUA ARACA                               RICARDO DE A21620050RIO DE JANEIRO RJUNIAO UMB DOS CULTOS AFRO BRAS    30031910 000067
10231987175000168817800093673    000038305                    000383050000000000000109                     I0138305     30031900000000040003410000017N261218104700000000000103003190000000000000000000000000000000000000000100066079527715MARIA GORETH GONCALVES                  RUA JERONIMO PINTO                      CAMPINHO    21320200RIO DE JANEIRO RJUNIAO UMB DOS CULTOS AFRO BRAS    30031910 000068
10231987175000168817800093673    000038304                    000383040000000000000109                     I0138304     30031900000000040003410000017N261218104700000000000103003190000000000000000000000000000000000000000100065096100782TANIA REGINA FIRMINO                    RUA TREZE DE MAIO                       VILA OPERARI25080410DUQUE DE CAXIASRJUNIAO UMB DOS CULTOS AFRO BRAS    30031910 000069
10231987175000168817800093673    000038303                    000383030000000000000109                     I0138303     30031900000000040003410000017N261218104700000000000103003190000000000000000000000000000000000000000100005576283775TATIANA DE PAULA                        RUA PASTOR FRANCISCO SOREN              BRAS DE PINA21215510RIO DE JANEIRO RJUNIAO UMB DOS CULTOS AFRO BRAS    30031910 000070
10231987175000168817800093673    000038302                    000383020000000000000109                     I0138302     30031900000000040003410000017N261218104700000000000103003190000000000000000000000000000000000000000100027788199753FABIO FERNANDES DE SOUZA                RUA DA ADUTORA                          SAO FRANCISC25900000MAGE           RJUNIAO UMB DOS CULTOS AFRO BRAS    30031910 000071
10231987175000168817800093673    000038301                    000383010000000000000109                     I0138301     30031900000000040003410000017N261218104700000000000103003190000000000000000000000000000000000000000100002134169729ALEXANDRE DE ALMEIDA                    RUA SERITINGA                           BRAS DE PINA21215480RIO DE JANEIRO RJUNIAO UMB DOS CULTOS AFRO BRAS    30031910 000072
10231987175000168817800093673    000038300                    000383000000000000000109                     I0138300     30031900000000040003410000017N261218104700000000000103003190000000000000000000000000000000000000000100000218582765LUIZ CARLOS DO AMARAL                   RUA TRIMONTE                            PARQUE BOM R25223820DUQUE DE CAXIASRJUNIAO UMB DOS CULTOS AFRO BRAS    30031910 000073
10231987175000168817800093673    000038299                    000382990000000000000109                     I0138299     30031900000000040003410000017N261218104700000000000103003190000000000000000000000000000000000000000100096270500753REINALDO MONTEIRO                       RUA SEBASTIAO DRUMOND                   ANCHIETA    21640360RIO DE JANEIRO RJUNIAO UMB DOS CULTOS AFRO BRAS    30031910 000074
10231987175000168817800093673    000038298                    000382980000000000000109                     I0138298     30031900000000040003410000017N261218104700000000000103003190000000000000000000000000000000000000000100067293816715SCHEYLA ARNALDO                         RUA PRAIA DA FERRADURA                  CAMINHO DE B28900000RIO DE JANEIRO RJUNIAO UMB DOS CULTOS AFRO BRAS    30031910 000075
10231987175000168817800093673    000038297                    000382970000000000000109                     I0138297     30031900000000040003410000017N261218104700000000000103003190000000000000000000000000000000000000000100002203155798CARLOS EDUARDO MOREIRA BENTO            RUA WENCESLAU BRAS                      IMBARIE     25275160DUQUE DE CAXIASRJUNIAO UMB DOS CULTOS AFRO BRAS    30031910 000076
10231987175000168817800093673    000038296                    000382960000000000000109                     I0138296     30031900000000040003410000017N261218104700000000000103003190000000000000000000000000000000000000000100005183653798CLAUDIA DE OLIVEIRA ROCHA SABI          RUA DA PROSPERIDADE                     COSTA BARROS21532200RIO DE JANEIRO RJUNIAO UMB DOS CULTOS AFRO BRAS    30031910 000077
10231987175000168817800093673    000038295                    000382950000000000000109                     I0138295     30031900000000040003410000017N261218104700000000000103003190000000000000000000000000000000000000000100000692299700JORGE LUIZ LIMA BASTOS                  RUA PLANALTINA                          REALENGO    21760160RIO DE JANEIRO RJUNIAO UMB DOS CULTOS AFRO BRAS    30031910 000078
10231987175000168817800093673    000038294                    000382940000000000000109                     I0138294     30031900000000040003410000017N261218104700000000000103003190000000000000000000000000000000000000000100000000000991MARIA CRISTINA FURTADO DOS SAN          RUA: IVAN FORTES RUCH                   MONTE FORMOS24738660SAO GONCALO    RJUNIAO UMB DOS CULTOS AFRO BRAS    30031910 000079
10231987175000168817800093673    000038293                    000382930000000000000109                     I0138293     30031900000000040003410000017N261218104700000000000103003190000000000000000000000000000000000000000100011741673780BRUNO SANTOS CARDOSO                    RUA CARTIER                             DUQUE DE CAX25220300DUQUE DE CAXIASRJUNIAO UMB DOS CULTOS AFRO BRAS    30031910 000080
10231987175000168817800093673    000038292                    000382920000000000000109                     I0138292     30031900000000040003410000017N261218104700000000000103003190000000000000000000000000000000000000000100002771098768FRANCISCO AREAS                         RUA CARMINDA                            COELHO DA RO25550135SAO JOAO DE MERRJUNIAO UMB DOS CULTOS AFRO BRAS    30031910 000081
10231987175000168817800093673    000038291                    000382910000000000000109                     I0138291     30031900000000040003410000017N261218104700000000000103003190000000000000000000000000000000000000000100029878268772DORALICE SILVA ORMONDE                  AVENIDA GUANABARA                       VILA SAO LUI25065020RIO DE JANEIRO RJUNIAO UMB DOS CULTOS AFRO BRAS    30031910 000082
10231987175000168817800093673    000038290                    000382900000000000000109                     I0138290     30031900000000040003410000017N261218104700000000000103003190000000000000000000000000000000000000000100058657231700IMPERALINA OLIVEIRA COSTA               RUA VISCONDE DE BARBACENA               SARACURUNA  25000000DUQUE DE CAXIASRJUNIAO UMB DOS CULTOS AFRO BRAS    30031910 000083
10231987175000168817800093673    000038289                    000382890000000000000109                     I0138289     30031900000000040003410000017N261218104700000000000103003190000000000000000000000000000000000000000100007703254754ROBERTO DOS SANTOS CARVALHO             RUA ESPIRITO SANTO                      SARACURUNA  00000000DUQUE DE CAXIASRJUNIAO UMB DOS CULTOS AFRO BRAS    30031910 000084
10231987175000168817800093673    000038288                    000382880000000000000109                     I0138288     30031900000000040003410000017N261218104700000000000103003190000000000000000000000000000000000000000100007526128751SORAYA ROBERTA PINHEIRO DE ALM          ALAMEDA TENENTE ANTONIO JOAO,           URCA        22291150RIO DE JANEIRO RJUNIAO UMB DOS CULTOS AFRO BRAS    30031910 000085
10231987175000168817800093673    000038287                    000382870000000000000109                     I0138287     30031900000000040003410000017N261218104700000000000103003190000000000000000000000000000000000000000100059480904772EDSON CORREIA                           RUA NOVA ATLANTIDA                      ROSA DOS VEN26278757NOVA IGUACU    RJUNIAO UMB DOS CULTOS AFRO BRAS    30031910 000086
10231987175000168817800093673    000038286                    000382860000000000000109                     I0138286     30031900000000040003410000017N261218104700000000000103003190000000000000000000000000000000000000000100007609502707WALDENILSON DUARTE DOS SANTOS           RUA ITABAIANA                           CABUCU      26355500RIO DE JANEIRO RJUNIAO UMB DOS CULTOS AFRO BRAS    30031910 000087
10231987175000168817800093673    000038285                    000382850000000000000109                     I0138285     30031900000000040003410000017N261218104700000000000103003190000000000000000000000000000000000000000100060921051723GEIZA RODRIGUES GANDRA                  RUA MARTINS JUNIOR                      VAL VERDE   26335320NOVA IGUACU    RJUNIAO UMB DOS CULTOS AFRO BRAS    30031910 000088
10231987175000168817800093673    000038284                    000382840000000000000109                     I0138284     30031900000000040003410000017N261218104700000000000103003190000000000000000000000000000000000000000100052256073734AROLDO GOMES SOARES                     AVENIDA IMPERADOR                       PRAIA DE MAU25900000MAGE           RJUNIAO UMB DOS CULTOS AFRO BRAS    30031910 000089
10231987175000168817800093673    000038283                    000382830000000000000109                     I0138283     30031900000000040003410000017N261218104700000000000103003190000000000000000000000000000000000000000100097181935704ANDREA MARTINS SANTANA                  RUA AMANDIU                             IRAJA       21371440RIO DE JANEIRO RJUNIAO UMB DOS CULTOS AFRO BRAS    30031910 000090
10231987175000168817800093673    000038282                    000382820000000000000109                     I0138282     30031900000000040003410000017N261218104700000000000103003190000000000000000000000000000000000000000100039182010749HUGO EDSON RODRIGUES DOS SANTO          RUA QUINTILIANO DA FONSECA              COLUBANDE   24451250SAO GONCALO    RJUNIAO UMB DOS CULTOS AFRO BRAS    30031910 000091
10231987175000168817800093673    000038281                    000382810000000000000109                     I0138281     30031900000000040003410000017N261218104700000000000103003190000000000000000000000000000000000000000100003533022790ELAINE LIMA FERREIRA DA COSTA           RUA BELA                                SAO CRISTOVA00000000RIO DE JANEIRO RJUNIAO UMB DOS CULTOS AFRO BRAS    30031910 000092
10231987175000168817800093673    000038280                    000382800000000000000109                     I0138280     30031900000000040003410000017N261218104700000000000103003190000000000000000000000000000000000000000100050262319772NELCY MARIA DE MATTOS                   RUA FILADELFIA                          MONJOLO     24723365SAO GONCALO    RJUNIAO UMB DOS CULTOS AFRO BRAS    30031910 000093
10231987175000168817800093673    000038279                    000382790000000000000109                     I0138279     30031900000000040003410000017N261218104700000000000103003190000000000000000000000000000000000000000100099029359749ANDRE LUIZ REIS GRACIO                  RUA SAFIRA                              JESUIDAS    23012300RIO DE JANEIRO RJUNIAO UMB DOS CULTOS AFRO BRAS    30031910 000094
10231987175000168817800093673    000038278                    000382780000000000000109                     I0138278     30031900000000040003410000017N261218104700000000000103003190000000000000000000000000000000000000000100063345862700GLORIA MARIA DAMASCENO DE OLIV          AVENIDA JOSE MARIANO PASSOS             CENTRO      26130570BELFORD ROXO   RJUNIAO UMB DOS CULTOS AFRO BRAS    30031910 000095
10231987175000168817800093673    000038277                    000382770000000000000109                     I0138277     30031900000000040003410000017N261218104700000000000103003190000000000000000000000000000000000000000100002096604737GISELLE BRAGA TORRES DE SOUZA           RUA JOAO VICENTE                        MADUREIRA   00000000RIO DE JANEIRO RJUNIAO UMB DOS CULTOS AFRO BRAS    30031910 000096
10231987175000168817800093673    000038276                    000382760000000000000109                     I0138276     30031900000000040003410000017N261218104700000000000103003190000000000000000000000000000000000000000100085258610730CRISTINA ROSA DE JESUS BASILIO          RUA DOIS DE JULHO                       CABUCU      00000000MESQUITA       RJUNIAO UMB DOS CULTOS AFRO BRAS    30031910 000097
10231987175000168817800093673    000038275                    000382750000000000000109                     I0138275     30031900000000040003410000017N261218104700000000000103003190000000000000000000000000000000000000000100077165772715EDNA SANTOS DA TRINDADE                 RUA PARAISO                             SANTA CRUZ  23560130RIO DE JANEIRO RJUNIAO UMB DOS CULTOS AFRO BRAS    30031910 000098
10231987175000168817800093673    000038274                    000382740000000000000109                     I0138274     30031900000000040003410000017N261218104700000000000103003190000000000000000000000000000000000000000100033151440797LAUDICEIA FERRO DOS SANTOS              RUA ADISABEL                            NOVA AURORA 26155110BELFORD ROXO   RJUNIAO UMB DOS CULTOS AFRO BRAS    30031910 000099
10231987175000168817800093673    000038273                    000382730000000000000109                     I0138273     30031900000000040003410000017N261218104700000000000103003190000000000000000000000000000000000000000100040229637787JOSE PAULO SERPA DE MORAES              RUA CANALIZADA                          CAMPO LINDO 23845410SEROPEDICA     RJUNIAO UMB DOS CULTOS AFRO BRAS    30031910 000100
10231987175000168817800093673    000038272                    000382720000000000000109                     I0138272     30031900000000040003410000017N261218104700000000000103003190000000000000000000000000000000000000000100086945971791GELSON RAMOS DE CARVALHO                RUA BARAUNA,                            ANCHIETA    21645050RIO DE JANEIRO RJUNIAO UMB DOS CULTOS AFRO BRAS    30031910 000101
10231987175000168817800093673    000038271                    000382710000000000000109                     I0138271     30031900000000040003410000017N261218104700000000000103003190000000000000000000000000000000000000000100060856467715JANAINA COELHO MELO                     RUA SANTO APIANO                        IRAJA       21361420RIO DE JANEIRO RJUNIAO UMB DOS CULTOS AFRO BRAS    30031910 000102
10231987175000168817800093673    000038270                    000382700000000000000109                     I0138270     30031900000000040003410000017N261218104700000000000103003190000000000000000000000000000000000000000100085114308734MARISTELA BISPO DOS SANTOS              RUA: VINTE E TRES DE SETEMBRO           IPIRANGA    26293342NOVA IGUACU    RJUNIAO UMB DOS CULTOS AFRO BRAS    30031910 000103
10231987175000168817800093673    000038269                    000382690000000000000109                     I0138269     30031900000000040003410000017N261218104700000000000103003190000000000000000000000000000000000000000100085485527787CHEILA CRISTINA DA ROCHA SANTO          RUA MARIA SANTANA FERNANDES             JARDIM ACACI23845250SEROPEDICA     RJUNIAO UMB DOS CULTOS AFRO BRAS    30031910 000104
10231987175000168817800093673    000038268                    000382680000000000000109                     I0138268     30031900000000040003410000017N261218104700000000000103003190000000000000000000000000000000000000000100000255430752JUACIRA ALVES TOTTA                     RUA DOS RUBIS                           ROCHA MIRAND21510011RIO DE JANEIRO RJUNIAO UMB DOS CULTOS AFRO BRAS    30031910 000105
10231987175000168817800093673    000038267                    000382670000000000000109                     I0138267     30031900000000040003410000017N261218104700000000000103003190000000000000000000000000000000000000000100077175522720ARLINE FAUSTINA DA SILVA MAGNO          RUA GILMAR WILSON FRANCISCO             BOA FE      23855004SEROPEDICA     RJUNIAO UMB DOS CULTOS AFRO BRAS    30031910 000106
10231987175000168817800093673    000038266                    000382660000000000000109                     I0138266     30031900000000040003410000017N261218104700000000000103003190000000000000000000000000000000000000000100008067836728BRUNO HENRIQUE DA COSTA SILVA           RUA JOSE MACHADO                        IRAJA       21361360RIO DE JANEIRO RJUNIAO UMB DOS CULTOS AFRO BRAS    30031910 000107
10231987175000168817800093673    000038265                    000382650000000000000109                     I0138265     30031900000000040003410000017N261218104700000000000103003190000000000000000000000000000000000000000100008774131770CLEYSON MANHAES NERY                    RUA CORONEL BARROS                      PARQUE SARAI28110000CAMPO DOS GOYTARJUNIAO UMB DOS CULTOS AFRO BRAS    30031910 000108
10231987175000168817800093673    000038264                    000382640000000000000109                     I0138264     30031900000000040003410000017N261218104700000000000103003190000000000000000000000000000000000000000100041247078787ANTONIO NARCISO RUSSI DA SILVA          RUA DEOLINDA MARTINS                    JARDIM CENTR23845110SEROPEDICA     RJUNIAO UMB DOS CULTOS AFRO BRAS    30031910 000109
10231987175000168817800093673    000038263                    000382630000000000000109                     I0138263     30031900000000040003410000017N261218104700000000000103003190000000000000000000000000000000000000000100086008773772ADEVIR CORREIA DOS SANTOS               RUA: JOAO CABETE                        SERRA GRANDE24342760NITEROI        RJUNIAO UMB DOS CULTOS AFRO BRAS    30031910 000110
10231987175000168817800093673    000038262                    000382620000000000000109                     I0138262     30031900000000040003410000017N261218104700000000000103003190000000000000000000000000000000000000000100000000009735NILZA DE OLIVEIRA FRANCISCO             RUA: SAO MIGUEL                         VILA DE CAVA26052533NOVA IGUACU    RJUNIAO UMB DOS CULTOS AFRO BRAS    30031910 000111
10231987175000168817800093673    000038261                    000382610000000000000109                     I0138261     30031900000000040003410000017N261218104700000000000103003190000000000000000000000000000000000000000100088046060704NATALINA DE JESUS PEREIRA DE O          RUA SAPOPEMBA                           BENTO RIBEIR21331240RIO DE JANEIRO RJUNIAO UMB DOS CULTOS AFRO BRAS    30031910 000112
10231987175000168817800093673    000038260                    000382600000000000000109                     I0138260     30031900000000040003410000017N261218104700000000000103003190000000000000000000000000000000000000000100097989037734LUIS EDUARDO ALMEIDA BAHRI              RUA: DEGAS                              DEL CASTILHO20771580RIO DE JANEIRO RJUNIAO UMB DOS CULTOS AFRO BRAS    30031910 000113
10231987175000168817800093673    000038259                    000382590000000000000109                     I0138259     30031900000000040003410000017N261218104700000000000103003190000000000000000000000000000000000000000100072148675753ROGERIO TEIXEIRA TEOFILO                RUA BOM JARDIM                          CABUCU      26347225NOVA IGUACU    RJUNIAO UMB DOS CULTOS AFRO BRAS    30031910 000114
10231987175000168817800093673    000038258                    000382580000000000000109                     I0138258     30031900000000040003410000017N261218104700000000000103003190000000000000000000000000000000000000000100087868172720ADHEMAR ACHILLES AVILLA JUNIOR          RUA: PADRE GIL                          PARQUE BONEV25907096MAGE           RJUNIAO UMB DOS CULTOS AFRO BRAS    30031910 000115
10231987175000168817800093673    000038257                    000382570000000000000109                     I0138257     30031900000000040003410000017N261218104700000000000103003190000000000000000000000000000000000000000100000672393743RAFAEL CASAMASSO DA COSTA               RUA: DO ACUDE                           ESTRELA     25610010PETROPOLIS     RJUNIAO UMB DOS CULTOS AFRO BRAS    30031910 000116
10231987175000168817800093673    000038256                    000382560000000000000109                     I0138256     30031900000000040003410000017N261218104700000000000103003190000000000000000000000000000000000000000100049275291772ARINETE GARCIA DA PAIXAO                RUA ROBERT DANON                        GERARD DANON26042201NOVA IGUACU    RJUNIAO UMB DOS CULTOS AFRO BRAS    30031910 000117
10231987175000168817800093673    000038255                    000382550000000000000109                     I0138255     30031900000000040003410000017N261218104700000000000103003190000000000000000000000000000000000000000100049214276749MARIA CELESTE HORACIO REIS              RUA QUARENTA E CINCO                    CAMPO LINDO 23890000NOVA IGUACU    RJUNIAO UMB DOS CULTOS AFRO BRAS    30031910 000118
10231987175000168817800093673    000038254                    000382540000000000000109                     I0138254     30031900000000040003410000017N261218104700000000000103003190000000000000000000000000000000000000000100095949925734RITA DE CASSIA COCCARO                  RUA JUCARI                              IRAJA       21371320RIO DE JANEIRO RJUNIAO UMB DOS CULTOS AFRO BRAS    30031910 000119
10231987175000168817800093673    000038253                    000382530000000000000109                     I0138253     30031900000000040003410000017N261218104700000000000103003190000000000000000000000000000000000000000100000308305752MAGDA DA SILVA DINELLY                  ESTRADA DO CASOROTIBA, RUA G N 768 (CONDINOA        24900000RIO DE JANEIRO RJUNIAO UMB DOS CULTOS AFRO BRAS    30031910 000120
10231987175000168817800093673    000038252                    000382520000000000000109                     I0138252     30031900000000040003410000017N261218104700000000000103003190000000000000000000000000000000000000000100085212091772ADAO DIAS FUNCHAL FILHO                 RUA WALTER FERREIRA                     MAUA        25900000MAGE           RJUNIAO UMB DOS CULTOS AFRO BRAS    30031910 000121
10231987175000168817800093673    000038251                    000382510000000000000109                     I0138251     30031900000000040003410000017N261218104700000000000103003190000000000000000000000000000000000000000100047171322704EUCEA GONCALVES BRANDAO                 RUA PEREIRA DE FIGUEIREDO               OSWALDO CRUZ21341030RIO DE JANEIRO RJUNIAO UMB DOS CULTOS AFRO BRAS    30031910 000122
10231987175000168817800093673    000038250                    000382500000000000000109                     I0138250     30031900000000040003410000017N261218104700000000000103003190000000000000000000000000000000000000000100003462948768JUSSARA DOS SANTOS                      RUA DOIS                                PARQUE FLUMI25045395DUQUE DE CAXIASRJUNIAO UMB DOS CULTOS AFRO BRAS    30031910 000123
10231987175000168817800093673    000038249                    000382490000000000000109                     I0138249     30031900000000040003410000017N261218104700000000000103003190000000000000000000000000000000000000000100001609402731LUCIANO RANGEL                          ESTRADA DOUTOR FARRULA, 52              HELIOPOLIS  26125400BELFORD ROXO   RJUNIAO UMB DOS CULTOS AFRO BRAS    30031910 000124
10231987175000168817800093673    000038248                    000382480000000000000109                     I0138248     30031900000000040003410000017N261218104700000000000103003190000000000000000000000000000000000000000100001206849770EUGENIO ALBERTO DA SILVA LOPES          RUA COMENDADOR BASTOS                   FREGUESIA  -21911220RIO DE JANEIRO RJUNIAO UMB DOS CULTOS AFRO BRAS    30031910 000125
10231987175000168817800093673    000038247                    000382470000000000000109                     I0138247     30031900000000040003410000017N261218104700000000000103003190000000000000000000000000000000000000000100053365836772CRISTINA MARIA DE SANT ANNA SI          RUA: ESTRADA DA FONTINHA                BENTO RIBEIR00000000RIO DE JANEIRO RJUNIAO UMB DOS CULTOS AFRO BRAS    30031910 000126
10231987175000168817800093673    000038246                    000382460000000000000109                     I0138246     30031900000000040003410000017N261218104700000000000103003190000000000000000000000000000000000000000100062821598734CLAUDEMIR APARECIDO FREITAS SI          TRAVESSA PIACAVA                        BANCO DE ARE26570210MESQUITA       RJUNIAO UMB DOS CULTOS AFRO BRAS    30031910 000127
10231987175000168817800093673    000038245                    000382450000000000000109                     I0138245     30031900000000040003410000017N261218104700000000000103003190000000000000000000000000000000000000000100005306993702EVA DOS SANTOS PEREIRA                  RUA DOUTOR ABELARDO DE BARROS           TIJUCA      20521030RIO DE JANEIRO RJUNIAO UMB DOS CULTOS AFRO BRAS    30031910 000128
10231987175000168817800093673    000038244                    000382440000000000000109                     I0138244     30031900000000040003410000017N261218104700000000000103003190000000000000000000000000000000000000000100000000009659SHIRLEY GOMES FRANCISCO DE SOU          RUA: TEIXEIRA RAMALHO                   CACUIA      26082125NOVA IGUACU    RJUNIAO UMB DOS CULTOS AFRO BRAS    30031910 000129
10231987175000168817800093673    000038243                    000382430000000000000109                     I0138243     30031900000000040003410000017N261218104700000000000103003190000000000000000000000000000000000000000100033205094700IRACEMA PAZ DA MOTTA                    RUA CARDOSO QUINTAO                     PIDEDADE    21381460RIO DE JANEIRO RJUNIAO UMB DOS CULTOS AFRO BRAS    30031910 000130
10231987175000168817800093673    000038242                    000382420000000000000109                     I0138242     30031900000000040003410000017N261218104700000000000103003190000000000000000000000000000000000000000100077597443749RONALDO SILVA DOS SANTOS                RUA: ITAPECERICA                        REALENGO    21730190RIO DE JANEIRO RJUNIAO UMB DOS CULTOS AFRO BRAS    30031910 000131
10231987175000168817800093673    000038241                    000382410000000000000109                     I0138241     30031900000000040003410000017N261218104700000000000103003190000000000000000000000000000000000000000100007564771747BARBARA LISBOA PINTO                    RUA SOUZA BARROS                        ENGENHO NOVO00000000RIO DE JANEIRO RJUNIAO UMB DOS CULTOS AFRO BRAS    30031910 000132
10231987175000168817800093673    000038240                    000382400000000000000109                     I0138240     30031900000000040003410000017N261218104700000000000103003190000000000000000000000000000000000000000100008852284729DILMA DE OLIVEIRA CORDEIRO              RUA: VEREADOR OSCAR DIAS OLIVEIRA       CHACRINHA   25065160DUQUE DE CAXIASRJUNIAO UMB DOS CULTOS AFRO BRAS    30031910 000133
10231987175000168817800093673    000038239                    000382390000000000000109                     I0138239     30031900000000040003410000017N261218104700000000000103003190000000000000000000000000000000000000000100000158250788ROBSON BARBOZA VIEIRA                   RUA NOVE                                FAZENDA IGUA28960000IGUABA GRANDE  RJUNIAO UMB DOS CULTOS AFRO BRAS    30031910 000134
10231987175000168817800093673    000038238                    000382380000000000000109                     I0138238     30031900000000040003410000017N261218104700000000000103003190000000000000000000000000000000000000000100067616569749NADIA MARIA DO NASCIMENTO LEMO          RUA 503                                 TREVO PIRATI24350000NITEROI        RJUNIAO UMB DOS CULTOS AFRO BRAS    30031910 000135
10231987175000168817800093673    000038237                    000382370000000000000109                     I0138237     30031900000000040003410000017N261218104700000000000103003190000000000000000000000000000000000000000100092080570706EUZAMAR FONSECA SANTOS                  RUA MARAPENDI                           MARECHAL HER21557130RIO DE JANEIRO RJUNIAO UMB DOS CULTOS AFRO BRAS    30031910 000136
10231987175000168817800093673    000038236                    000382360000000000000109                     I0138236     30031900000000040003410000017N261218104700000000000103003190000000000000000000000000000000000000000100002379534713ALEX EVANDRO CORREIA PETITINGA          RUA FRANCISCO MANUEL                    BENFICA     00000000RIO DE JANEIRO RJUNIAO UMB DOS CULTOS AFRO BRAS    30031910 000137
10231987175000168817800093673    000038235                    000382350000000000000109                     I0138235     30031900000000040003410000017N261218104700000000000103003190000000000000000000000000000000000000000100085778351704MARIA NILZA DA SILVA                    RUA OTAVIO TARQUINO DE SOUZA            TANQUE      22733140RIO DE JANEIRO RJUNIAO UMB DOS CULTOS AFRO BRAS    30031910 000138
10231987175000168817800093673    000038234                    000382340000000000000109                     I0138234     30031900000000040003410000017N261218104700000000000103003190000000000000000000000000000000000000000100043641717787YWONE AMELIA VAZ COSTA                  RUA CASTRO MENEZES                      BRAZ DE PINA21215250RIO DE JANEIRO RJUNIAO UMB DOS CULTOS AFRO BRAS    30031910 000139
10231987175000168817800093673    000038233                    000382330000000000000109                     I0138233     30031900000000040003410000017N261218104700000000000103003190000000000000000000000000000000000000000100007332496712ELENICE ROSA DA SILVA                   RUA SEPETIBA                            PADRE JOSE B25565250NOVA IGUACU    RJUNIAO UMB DOS CULTOS AFRO BRAS    30031910 000140
10231987175000168817800093673    000038232                    000382320000000000000109                     I0138232     30031900000000040003410000017N261218104700000000000103003190000000000000000000000000000000000000000100002735190773EDIVAN FARIAS DA SILVA                  RUA EDNA MEDEIROS                       CORUMBA     26042430NOVA IGUACU    RJUNIAO UMB DOS CULTOS AFRO BRAS    30031910 000141
10231987175000168817800093673    000038231                    000382310000000000000109                     I0138231     30031900000000040003410000017N261218104700000000000103003190000000000000000000000000000000000000000100000633999709KATIA REGINA LEITE RAMOS                RUA GUIRATIM                            IRAJA       21371410RIO DE JANEIRO RJUNIAO UMB DOS CULTOS AFRO BRAS    30031910 000142
10231987175000168817800093673    000038230                    000382300000000000000109                     I0138230     30031900000000040003410000017N261218104700000000000103003190000000000000000000000000000000000000000100005365022777PAULA DOS REIS MOITA                    RUA IGUABA GRANDE                       PAVUNA      21655340RIO DE JANEIRO RJUNIAO UMB DOS CULTOS AFRO BRAS    30031910 000143
10231987175000168817800093673    000038229                    000382290000000000000109                     I0138229     30031900000000040003410000017N261218104700000000000103003190000000000000000000000000000000000000000100009237411782RODRIGO NOGUEIRA MARTINS                RUA DOUTOR AUGUSTO FIGUEIREDO           BANGU       21840600RIO DE JANEIRO RJUNIAO UMB DOS CULTOS AFRO BRAS    30031910 000144
10231987175000168817800093673    000038228                    000382280000000000000109                     I0138228     30031900000000040003410000017N261218104700000000000103003190000000000000000000000000000000000000000100041795458704VERA LUCIA DE MACEDO                    AVENIDA LITORANEA                       GUARATIBA   23025080MARICA         RJUNIAO UMB DOS CULTOS AFRO BRAS    30031910 000145
10231987175000168817800093673    000038227                    000382270000000000000109                     I0138227     30031900000000040003410000017N261218104700000000000103003190000000000000000000000000000000000000000100007965913771ANDREA CARLA FREITAS E SILVA            RUA SAO MARCOS                          KM 32       26298548NOVA IGUACU    RJUNIAO UMB DOS CULTOS AFRO BRAS    30031910 000146
10231987175000168817800093673    000038226                    000382260000000000000109                     I0138226     30031900000000040003410000017N261218104700000000000103003190000000000000000000000000000000000000000100004746270716ANTONIO CARLOS FERNANDES                RUA FRANCISCO DE CASTRO                 SANTA TERESA20241300RIO DE JANEIRO RJUNIAO UMB DOS CULTOS AFRO BRAS    30031910 000147
10231987175000168817800093673    000038225                    000382250000000000000109                     I0138225     30031900000000040003410000017N261218104700000000000103003190000000000000000000000000000000000000000100001304629775ZILDA DA SILVA RIBEIRO                  RUA LAURA RAFANELLI                     ITAIPUACU   24935500MARICA         RJUNIAO UMB DOS CULTOS AFRO BRAS    30031910 000148
10231987175000168817800093673    000038224                    000382240000000000000109                     I0138224     30031900000000040003410000017N261218104700000000000103003190000000000000000000000000000000000000000100086457640753MARLUCE AUGUSTO BLANCO NOVOA            RUA: REGINA                             PARQUE SUECI21187110BELFORD ROXO   RJUNIAO UMB DOS CULTOS AFRO BRAS    30031910 000149
10231987175000168817800093673    000038223                    000382230000000000000109                     I0138223     30031900000000040003410000017N261218104700000000000103003190000000000000000000000000000000000000000100063761092768JANET BATISTA DA CONCEICAO              RUA SERRA VELHA                         RAIZ DA SERR25935000MAGE           RJUNIAO UMB DOS CULTOS AFRO BRAS    30031910 000150
10231987175000168817800093673    000038222                    000382220000000000000109                     I0138222     30031900000000040003410000017N261218104700000000000103003190000000000000000000000000000000000000000100005634227771BRUNO MACHADO TETE                      RUA SANATORIO                           MADUREIRA   21350191RIO DE JANEIRO RJUNIAO UMB DOS CULTOS AFRO BRAS    30031910 000151
10231987175000168817800093673    000038221                    000382210000000000000109                     I0138221     30031900000000040003410000017N261218104700000000000103003190000000000000000000000000000000000000000100060855916753MARIZE DOS SANTOS LESSA DE VAS          RUA: CABO MILTON COSME DOS SANTOS       BANGU       21725620RIO DE JANERIRORJUNIAO UMB DOS CULTOS AFRO BRAS    30031910 000152
10231987175000168817800093673    000038220                    000382200000000000000109                     I0138220     30031900000000040003410000017N261218104700000000000103003190000000000000000000000000000000000000000100000000000000MARIA DE LOURDES MATTOS DA SIL          RUA ADEMAR                              BELA VISTA  26157180BELFORD ROXO   RJUNIAO UMB DOS CULTOS AFRO BRAS    30031910 000153
10231987175000168817800093673    000038219                    000382190000000000000109                     I0138219     30031900000000040003410000017N261218104700000000000103003190000000000000000000000000000000000000000100048507458734MARCOS DE OLIVEIRA ROSA                 RUA CALDAS NOVAS                        VILA ZULMIRA25540530SAO JOAO DE MERRJUNIAO UMB DOS CULTOS AFRO BRAS    30031910 000154
10231987175000168817800093673    000038218                    000382180000000000000109                     I0138218     30031900000000040003410000017N261218104700000000000103003190000000000000000000000000000000000000000100015323972750PEDRO HENRIQUE CARVALHO DA FON          RUA CADETE POLONIA,                     ENGENHO NOVO20961050RIO DE JANEIRO RJUNIAO UMB DOS CULTOS AFRO BRAS    30031910 000155
10231987175000168817800093673    000038217                    000382170000000000000109                     I0138217     30031900000000040003410000017N261218104700000000000103003190000000000000000000000000000000000000000100066812034704LYDIAMAR NAZARETH BRANDAO DE A          RUA: HELEODORA                          PILARES     20760722RIO DE JANEIRO RJUNIAO UMB DOS CULTOS AFRO BRAS    30031910 000156
10231987175000168817800093673    000038216                    000382160000000000000109                     I0138216     30031900000000040003410000017N261218104700000000000103003190000000000000000000000000000000000000000100054504430720ISABELA BARBOSA LIMA DA SILVA           RUA SOUSA BARROS                        ENGENHO NOVO20961150RIO DE JANEIRO RJUNIAO UMB DOS CULTOS AFRO BRAS    30031910 000157
10231987175000168817800093673    000038215                    000382150000000000000109                     I0138215     30031900000000040003410000017N261218104700000000000103003190000000000000000000000000000000000000000100008013752747GIVANILDO MENDES LAGOA                  RUA DOS CORAIS                          PIRATININGA 24320358NITEROI        RJUNIAO UMB DOS CULTOS AFRO BRAS    30031910 000158
10231987175000168817800093673    000038214                    000382140000000000000109                     I0138214     30031900000000040003410000017N261218104700000000000103003190000000000000000000000000000000000000000100009070035758LILIAN DUARTE COSTA                     RUA DELFIM MOREIRA, 2397                VALE PARAISO25976016TERESOPOLIS    RJUNIAO UMB DOS CULTOS AFRO BRAS    30031910 000159
10231987175000168817800093673    000038213                    000382130000000000000109                     I0138213     30031900000000040003410000017N261218104700000000000103003190000000000000000000000000000000000000000100001071031767NEIDE MARIA VIANA SOUZA                 RUA VINTE E UM,                         SAO CAMPELO 23830000ITAGUAI        RJUNIAO UMB DOS CULTOS AFRO BRAS    30031910 000160
10231987175000168817800093673    000038212                    000382120000000000000109                     I0138212     30031900000000040003410000017N261218104700000000000103003190000000000000000000000000000000000000000100002824875739EVONETE DA CONCEICAO DA SILVA           RUA COIMBRA                             RECANTO DO S28948010SAO PEDRO DA ALRJUNIAO UMB DOS CULTOS AFRO BRAS    30031910 000161
10231987175000168817800093673    000038211                    000382110000000000000109                     I0138211     30031900000000040003410000017N261218104700000000000103003190000000000000000000000000000000000000000100037356178753TEREZA BRAGA DE AZEVEDO                 RUA ANDRE ROCHA                         TAQUARA - RI22730522RIO DE JANEIRO RJUNIAO UMB DOS CULTOS AFRO BRAS    30031910 000162
10231987175000168817800093673    000038210                    000382100000000000000109                     I0138210     30031900000000040003410000017N261218104700000000000103003190000000000000000000000000000000000000000100005199150707RITA LUSIE DE MELLO CASTRO              RUA IARA                                SAO MATEUS  25525410SAO JOAO DE MERRJUNIAO UMB DOS CULTOS AFRO BRAS    30031910 000163
10231987175000168817800093673    000038209                    000382090000000000000109                     I0138209     30031900000000040003410000017N261218104700000000000103003190000000000000000000000000000000000000000100001220001708ANDRE AMERICO DA SILVA                  RUA QUATRO                              ROCINHA     22451340RIO DE JANEIRO RJUNIAO UMB DOS CULTOS AFRO BRAS    30031910 000164
10231987175000168817800093673    000038208                    000382080000000000000109                     I0138208     30031900000000040003410000017N261218104700000000000103003190000000000000000000000000000000000000000100047515090715JOSE CARLOS DA SILVA GENUNCIO           RUA VEREADOR MAURICIO SOUZA             ENGENHOCA   24110539NITEROI        RJUNIAO UMB DOS CULTOS AFRO BRAS    30031910 000165
10231987175000168817800093673    000038207                    000382070000000000000109                     I0138207     30031900000000040003410000017N261218104700000000000103003190000000000000000000000000000000000000000100085127183749CLAUDIA JORGE DA SILVA GAMA             RUA HONORIO                             CACHAMBI    20771421RIO DE JANEIRO RJUNIAO UMB DOS CULTOS AFRO BRAS    30031910 000166
10231987175000168817800093673    000038206                    000382060000000000000109                     I0138206     30031900000000040003410000017N261218104700000000000103003190000000000000000000000000000000000000000100074726005715SOLANGE DA SILVA ARAUJO                 RUA CAMINHO DO JAMBUI                   DILMAS FILHO26116540RIO DE JANEIRO RJUNIAO UMB DOS CULTOS AFRO BRAS    30031910 000167
10231987175000168817800093673    000038205                    000382050000000000000109                     I0138205     30031900000000040003410000017N261218104700000000000103003190000000000000000000000000000000000000000100064321800749MARLENE BALBINO DA SILVA                RUA MANOEL ANTONIO DE ALMEIDA           TRES CRUZ   36700000LEOPOLDINA     MGUNIAO UMB DOS CULTOS AFRO BRAS    30031910 000168
10231987175000168817800093673    000038204                    000382040000000000000109                     I0138204     30031900000000040003410000017N261218104700000000000103003190000000000000000000000000000000000000000100006935690773ELAINE DA COSTA MARTINS                 O MESMO                                 O MESMO     25220407DUQUE DE CAXIASRJUNIAO UMB DOS CULTOS AFRO BRAS    30031910 000169
10231987175000168817800093673    000038203                    000382030000000000000109                     I0138203     30031900000000040003410000017N261218104700000000000103003190000000000000000000000000000000000000000100013540201756RUTE MEDEIROS VIEIRA                    RUA DESSESEIS                           CONJUNTO NOV23565450SANTA CRUZ     RJUNIAO UMB DOS CULTOS AFRO BRAS    30031910 000170
10231987175000168817800093673    000038202                    000382020000000000000109                     I0138202     30031900000000040003410000017N261218104700000000000103003190000000000000000000000000000000000000000100090876857772MARCO AURELIO PEREIRA VASCONCE          RUA DOUTOR MANUEL MARREIROS             FREGUESIA - 21910080RIO DE JANEIRO RJUNIAO UMB DOS CULTOS AFRO BRAS    30031910 000171
10231987175000168817800093673    000038201                    000382010000000000000109                     I0138201     30031900000000040003410000017N261218104700000000000103003190000000000000000000000000000000000000000100037125893791ELIANA DOS SANTOS VITAL                 RUA CAPITAO VIEIRA                      TURIACU     21540330RIO DE JANEIRO RJUNIAO UMB DOS CULTOS AFRO BRAS    30031910 000172
10231987175000168817800093673    000038200                    000382000000000000000109                     I0138200     30031900000000040003410000017N261218104700000000000103003190000000000000000000000000000000000000000100005426043701CLARA DANIELE BROWN FLAUZINO            RUA ZAMBIA                              BANGU       21850510RIO DE JANEIRO RJUNIAO UMB DOS CULTOS AFRO BRAS    30031910 000173
10231987175000168817800093673    000038199                    000381990000000000000109                     I0138199     30031900000000040003410000017N261218104700000000000103003190000000000000000000000000000000000000000100000000000000SILAS SOUZA ALSELMO                     RUA DO CANAVIAL                         PARQUE ANTAR26053040NOVA IGUACU    RJUNIAO UMB DOS CULTOS AFRO BRAS    30031910 000174
10231987175000168817800093673    000038198                    000381980000000000000109                     I0138198     30031900000000040003410000017N261218104700000000000103003190000000000000000000000000000000000000000100086101145700SARITA XAVIER DA SILVA PROENCA          RUA BEIRA RIO                           SAO BENTO   25045026DUQUE DE CAXIASRJUNIAO UMB DOS CULTOS AFRO BRAS    30031910 000175
10231987175000168817800093673    000038197                    000381970000000000000109                     I0138197     30031900000000040003410000017N261218104700000000000103003190000000000000000000000000000000000000000100041402685734ITAMAR DE OLIVEIRA FERREIRA             RUA AGRIPINO DE CAMPOS                  MUTUA       24461320SAO GONCALO    RJUNIAO UMB DOS CULTOS AFRO BRAS    30031910 000176
10231987175000168817800093673    000038196                    000381960000000000000109                     I0138196     30031900000000040003410000017N261218104700000000000103003190000000000000000000000000000000000000000100067160891791ELIZABETH VIEGAS GUALHANO               RUA MARIZ DE BARROS                     PRACA DA BAN20785330RIO DE JANEIRO RJUNIAO UMB DOS CULTOS AFRO BRAS    30031910 000177
10231987175000168817800093673    000038195                    000381950000000000000109                     I0138195     30031900000000040003410000017N261218104700000000000103003190000000000000000000000000000000000000000100059555815704PAULO FERNANDES                         RUA MONTE CARMELO                       BENTO RIBERI24110539RIO DE JANEIRO RJUNIAO UMB DOS CULTOS AFRO BRAS    30031910 000178
10231987175000168817800093673    000038194                    000381940000000000000109                     I0138194     30031900000000040003410000017N261218104700000000000103003190000000000000000000000000000000000000000100003661917100DUCILENE MADEIRA VIEIRA                 ALAMEDA CLAUDINHA                       JARDIM NAZAR25915000MAGE           RJUNIAO UMB DOS CULTOS AFRO BRAS    30031910 000179
10231987175000168817800093673    000038193                    000381930000000000000109                     I0138193     30031900000000040003410000017N261218104700000000000103003190000000000000000000000000000000000000000100060296836168ALEXANDRE MONTEIRO DA ROSA              MONTE CASTELO                           CORONEL VEIG25655500PETROPOLIS     RJUNIAO UMB DOS CULTOS AFRO BRAS    30031910 000180
10231987175000168817800093673    000038192                    000381920000000000000109                     I0138192     30031900000000040003410000017N261218104700000000000103003190000000000000000000000000000000000000000100068754485720LUCIA DA CONCEICAO GREGORIO             RUA PAULO OLIVEIRA DE CARVALHO          VILA SAO LUI26012510NOVA IGUACU    RJUNIAO UMB DOS CULTOS AFRO BRAS    30031910 000181
10231987175000168817800093673    000038191                    000381910000000000000109                     I0138191     30031900000000040003410000017N261218104700000000000103003190000000000000000000000000000000000000000100057370770710MARY MARCOS DE FIGUEIREDO               TRAVESSA LINO ESTEVES, 126 - ENGENHOCA  BARRETO     24110145NITEROI        RJUNIAO UMB DOS CULTOS AFRO BRAS    30031910 000182
10231987175000168817800093673    000038190                    000381900000000000000109                     I0138190     30031900000000040003410000017N261218104700000000000103003190000000000000000000000000000000000000000100002167919794ANDERSON CLEI BRANDAO TEIXEIRA          ESTRADA DO CANTAGALO                    CAMPO GRANDE23036440RIO DE JANEIRO RJUNIAO UMB DOS CULTOS AFRO BRAS    30031910 000183
10231987175000168817800093673    000038189                    000381890000000000000109                     I0138189     30031900000000040003410000017N261218104700000000000103003190000000000000000000000000000000000000000100009527172713FABIANA DA SILVA FERNANDES              RUA ITAPACI                             COSMOS      23060440RIO DE JANEIRO RJUNIAO UMB DOS CULTOS AFRO BRAS    30031910 000184
10231987175000168817800093673    000038188                    000381880000000000000109                     I0138188     30031900000000040003410000017N261218104700000000000103003190000000000000000000000000000000000000000100000000000932WILMA DE CASTRO GOUVEA                  RUA DAMASIO BATISTA                     OLINDA      26515126NILOPOLIS      RJUNIAO UMB DOS CULTOS AFRO BRAS    30031910 000185
10231987175000168817800093673    000038187                    000381870000000000000109                     I0138187     30031900000000040003410000017N261218104700000000000103003190000000000000000000000000000000000000000100001680132741SANDRA NOGUEIRA DE BRITO                RUA BARATA RIBEIRO                      COPACABANA  22051000RIO DE JANEIRO RJUNIAO UMB DOS CULTOS AFRO BRAS    30031910 000186
10231987175000168817800093673    000038186                    000381860000000000000109                     I0138186     30031900000000040003410000017N261218104700000000000103003190000000000000000000000000000000000000000100071406085715VALDENIR CORNELIO                       RUA DAS VIOLETAS                        SEPETIBA    23530000RIO DE JANEIRO RJUNIAO UMB DOS CULTOS AFRO BRAS    30031910 000187
10231987175000168817800093673    000038185                    000381850000000000000109                     I0138185     30031900000000040003410000017N261218104700000000000103003190000000000000000000000000000000000000000100008083468738WAGNER DE ANDRADE SACRAMENTO            RUA SAGRADO CORACAO DE JESUS            NOVA CIDADE 26535140NILOPOLIS      RJUNIAO UMB DOS CULTOS AFRO BRAS    30031910 000188
10231987175000168817800093673    000038184                    000381840000000000000109                     I0138184     30031900000000040003410000017N261218104700000000000103003190000000000000000000000000000000000000000100000000000000IRENE SIMONE DE SOUZA NOGUEIRA          RUA NOVE DE JUNHO                       IPIRANGA    26293354NOVA IGUACU    RJUNIAO UMB DOS CULTOS AFRO BRAS    30031910 000189
10231987175000168817800093673    000038183                    000381830000000000000109                     I0138183     30031900000000040003410000017N261218104700000000000103003190000000000000000000000000000000000000000100070614628768CREUZA GOMES DA ROCHA                   RUA DA GLORIA                           MONTE ALTO  28930000RIO DE JANEIRO RJUNIAO UMB DOS CULTOS AFRO BRAS    30031910 000190
10231987175000168817800093673    000038182                    000381820000000000000109                     I0138182     30031900000000040003410000017N261218104700000000000103003190000000000000000000000000000000000000000100084161973772MARCOS ANTONIO VIEIRA BAPTISTA          RUA CARLOS GONCALVES PENNA              ENGENHO DA R20761330RIO DE JANEIRO RJUNIAO UMB DOS CULTOS AFRO BRAS    30031910 000191
10231987175000168817800093673    000038181                    000381810000000000000109                     I0138181     30031900000000040003410000017N261218104700000000000103003190000000000000000000000000000000000000000100002175979717CLAUDIA PILAR PERES SANTOS DE           RUA JOAO MACIEIRA                       MADUREIRA   21310090RIO DE JANEIRO RJUNIAO UMB DOS CULTOS AFRO BRAS    30031910 000192
10231987175000168817800093673    000038180                    000381800000000000000109                     I0138180     30031900000000040003410000017N261218104700000000000103003190000000000000000000000000000000000000000100002190466709CARLOS ROBERTO RIBEIRO DA CONC          RUA NOSSA SENHORA DAS GRACAS            MOSELA      25675111PETROPOLIS     RJUNIAO UMB DOS CULTOS AFRO BRAS    30031910 000193
10231987175000168817800093673    000038179                    000381790000000000000109                     I0138179     30031900000000040003410000017N261218104700000000000103003190000000000000000000000000000000000000000100025891693704EDSON DA SILVA ALVES                    RUA: JOAO MACIEIRA                      MADUREIRA   21310090RIO DE JANEIRO RJUNIAO UMB DOS CULTOS AFRO BRAS    30031910 000194
10231987175000168817800093673    000038177                    000381770000000000000109                     I0138177     30031900000000040003410000017N261218104700000000000103003190000000000000000000000000000000000000000100000000000000SAMUEL MUNIZ PORTELA                    LOTEAMENTO CAMPO LINDO                  CAMPO LINDO 21745380RIO DE JANEIRO RJUNIAO UMB DOS CULTOS AFRO BRAS    30031910 000195
10231987175000168817800093673    000038176                    000381760000000000000109                     I0138176     30031900000000040003410000017N261218104700000000000103003190000000000000000000000000000000000000000100000000000928THIAGO BARBOSA DA SILVA                 RUA PEDRO DOMINGUES                     ENCANTADO   20756080RIO DE JANEIRO RJUNIAO UMB DOS CULTOS AFRO BRAS    30031910 000196
10231987175000168817800093673    000038175                    000381750000000000000109                     I0138175     30031900000000040003410000017N261218104700000000000103003190000000000000000000000000000000000000000100043194869787JORGE PINHEIRO DE ALMEIDA               RUA CERQUEIRA CESAR                     MADUREIRA   21351070RIO DE JANEIRO RJUNIAO UMB DOS CULTOS AFRO BRAS    30031910 000197
10231987175000168817800093673    000038174                    000381740000000000000109                     I0138174     30031900000000040003410000017N261218104700000000000103003190000000000000000000000000000000000000000100033712417772IRANIR RIBEIRO DE CASTRO                RUA NOVE                                CAMPO GRANDE23067060RIO DE JANEIRO RJUNIAO UMB DOS CULTOS AFRO BRAS    30031910 000198
10231987175000168817800093673    000038173                    000381730000000000000109                     I0138173     30031900000000040003410000017N261218104700000000000103003190000000000000000000000000000000000000000100000907631738IDA ANGELICA PEREIRA CALDAS             RUA SILVEIRA LOBO                       CACHAMBI    20780310RIO DE JANEIRO RJUNIAO UMB DOS CULTOS AFRO BRAS    30031910 000199
10231987175000168817800093673    000038172                    000381720000000000000109                     I0138172     30031900000000040003410000017N261218104700000000000103003190000000000000000000000000000000000000000100061912131749LACYR DE ALVARENGA RAMOS                RUA NOSSA SENHORA DAS GRACAS            CHARITAS    24370630NITEROI        RJUNIAO UMB DOS CULTOS AFRO BRAS    30031910 000200
10231987175000168817800093673    000038171                    000381710000000000000109                     I0138171     30031900000000040003410000017N261218104700000000000103003190000000000000000000000000000000000000000100074789600734SOLANGE MARTINS                         RUA ITAJIBA                             COSMOS      23060450RIO DE JANEIRO RJUNIAO UMB DOS CULTOS AFRO BRAS    30031910 000201
10231987175000168817800093673    000038169                    000381690000000000000109                     I0138169     30031900000000040003410000017N261218104700000000000103003190000000000000000000000000000000000000000100008331240723MONIQUE SUZANO ASSUNCAO DE OLI          RUA: DIVINOPOLIS                        BENTO RIBEIR21550280RIO DE JANEIRO RJUNIAO UMB DOS CULTOS AFRO BRAS    30031910 000202
10231987175000168817800093673    000038168                    000381680000000000000109                     I0138168     30031900000000040003410000017N261218104700000000000103003190000000000000000000000000000000000000000100086506439734DULCILENE EDUARDO                       RUA DONA HILDA                          PIABETA     25931686MAGE           RJUNIAO UMB DOS CULTOS AFRO BRAS    30031910 000203
10231987175000168817800093673    000038166                    000381660000000000000109                     I0138166     30031900000000040003410000017N261218104700000000000103003190000000000000000000000000000000000000000100075078392734MARCIA HELENA DE AZEVEDO MUNIZ          RUA OSMUNDO PIMENTEL                    BRAZ DE PINA21250070RIO DE JANEIRO RJUNIAO UMB DOS CULTOS AFRO BRAS    30031910 000204
10231987175000168817800093673    000038165                    000381650000000000000109                     I0138165     30031900000000040003410000017N261218104700000000000103003190000000000000000000000000000000000000000100002418033732EDSON LUIZ ALVES DE CARVALHO            AVENIDA PORTO SEGURO                    LAGOMAR     27966870MACAE          RJUNIAO UMB DOS CULTOS AFRO BRAS    30031910 000205
10231987175000168817800093673    000038164                    000381640000000000000109                     I0138164     30031900000000040003410000017N261218104700000000000103003190000000000000000000000000000000000000000100065196171720MARIA DAS GRACAS OLIVEIRA               RUA FRANCISCO MANOEL                    PONTO CHIQUE26032835NOVA IGUACU    RJUNIAO UMB DOS CULTOS AFRO BRAS    30031910 000206
10231987175000168817800093673    000038163                    000381630000000000000109                     I0138163     30031900000000040003410000017N261218104700000000000103003190000000000000000000000000000000000000000100000000000000MEYRE CHAVES SOARES                     AVENIDA BEIRA MAR                       SAO FRANCISC25900000RIO DE JANEIRO RJUNIAO UMB DOS CULTOS AFRO BRAS    30031910 000207
10231987175000168817800093673    000038162                    000381620000000000000109                     I0138162     30031900000000040003410000017N261218104700000000000103003190000000000000000000000000000000000000000100059395656700NADIA MARIZA CORREA TRINDADE            RUA JORGE SILVA                         PARQUE SAO J23890000SEROPEDICA     RJUNIAO UMB DOS CULTOS AFRO BRAS    30031910 000208
10231987175000168817800093673    000038161                    000381610000000000000109                     I0138161     30031900000000040003410000017N261218104700000000000103003190000000000000000000000000000000000000000100026958538749ANTONIO LUCIO ALVES                     RUA LEMOS DE BRITO                      QUINTINO    21311380RIO DE JANEIRO RJUNIAO UMB DOS CULTOS AFRO BRAS    30031910 000209
10231987175000168817800093673    000038160                    000381600000000000000109                     I0138160     30031900000000040003410000017N261218104700000000000103003190000000000000000000000000000000000000000100089080475734MARCIA MARIA CORREIA DA SILVA           RUA ALVARES CABRAL                      CACHAMBI    20780320RIO DE JANEIRO RJUNIAO UMB DOS CULTOS AFRO BRAS    30031910 000210
10231987175000168817800093673    000038159                    000381590000000000000109                     I0138159     30031900000000040003410000017N261218104700000000000103003190000000000000000000000000000000000000000100008544039731FABIO DA SILVA CONDE                    RUA: FERREIRA DE MENEZES                ENGENHO DA R20761250RIO DE JANEIRO RJUNIAO UMB DOS CULTOS AFRO BRAS    30031910 000211
10231987175000168817800093673    000038158                    000381580000000000000109                     I0138158     30031900000000040003410000017N261218104700000000000103003190000000000000000000000000000000000000000100058098445704ARLETE DA SILVA BARBOSA FRANCO          RUA DOUTOR MUNIZ                        ROCHA SOBRIN26130020BELFORD ROXO   RJUNIAO UMB DOS CULTOS AFRO BRAS    30031910 000212
10231987175000168817800093673    000038157                    000381570000000000000109                     I0138157     30031900000000040003410000017N261218104700000000000103003190000000000000000000000000000000000000000100057316600772ESTELA FERREIRA                         AVENIDA BORIS                           MUTONDO     24422730SAO GONCALO    RJUNIAO UMB DOS CULTOS AFRO BRAS    30031910 000213
10231987175000168817800093673    000038156                    000381560000000000000109                     I0138156     30031900000000040003410000017N261218104700000000000103003190000000000000000000000000000000000000000100063579081772CRISTINA ALBUQUERQUE DE ARAUJO          RUA CORONEL CABRITA                     SAO CRISTOVA20920400RIO DE JANEIRO RJUNIAO UMB DOS CULTOS AFRO BRAS    30031910 000214
10231987175000168817800093673    000038155                    000381550000000000000109                     I0138155     30031900000000040003410000017N261218104700000000000103003190000000000000000000000000000000000000000100094635650782ALFREDO DOMINGOS HAFNER                 RUA DONA EMILIA                         PIABETA     25931606MAGE           RJUNIAO UMB DOS CULTOS AFRO BRAS    30031910 000215
10231987175000168817800093673    000038154                    000381540000000000000109                     I0138154     30031900000000040003410000017N261218104700000000000103003190000000000000000000000000000000000000000100005721435755ALEX ARAUJO BRAGA                       RUA MARTE                               MESQUITA    26240290NOVA IGUACU    RJUNIAO UMB DOS CULTOS AFRO BRAS    30031910 000216
10231987175000168817800093673    000038153                    000381530000000000000109                     I0138153     30031900000000040003410000017N261218104700000000000103003190000000000000000000000000000000000000000100050942490763ANTONIO PAULO TRABACHINI                RUA DO CATETE                           CATETE      22271100RIO DE JANEIRO RJUNIAO UMB DOS CULTOS AFRO BRAS    30031910 000217
10231987175000168817800093673    000038152                    000381520000000000000109                     I0138152     30031900000000040003410000017N261218104700000000000103003190000000000000000000000000000000000000000100001145934773ELENICE DE SOUZA SILVA ARRUDA           RUA PROJETADA 5                         SANTA CRUZ D25260059RIO DE JANEIRO RJUNIAO UMB DOS CULTOS AFRO BRAS    30031910 000218
10231987175000168817800093673    000038151                    000381510000000000000109                     I0138151     30031900000000040003410000017N261218104700000000000103003190000000000000000000000000000000000000000100021207275700GEORGETE MARIA SILVA DE JESUS           RUA BECO DO MIJANCAH                    PRAIA DA BRI23028696PEDRA DE GUARATRJUNIAO UMB DOS CULTOS AFRO BRAS    30031910 000219
10231987175000168817800093673    000038150                    000381500000000000000109                     I0138150     30031900000000040003410000017N261218104700000000000103003190000000000000000000000000000000000000000100093719744787SERGIO PEREIRA FRAGA                    RUA JURUBAIBA                           HONORIO GURG21555170RIO DE JANEIRO RJUNIAO UMB DOS CULTOS AFRO BRAS    30031910 000220
10231987175000168817800093673    000038149                    000381490000000000000109                     I0138149     30031900000000040003410000017N261218104700000000000103003190000000000000000000000000000000000000000100001256782742VANDA BARBOSA BASTOS                    RUA CERES                               BANGU       21862070RIO DE JANEIRO RJUNIAO UMB DOS CULTOS AFRO BRAS    30031910 000221
10231987175000168817800093673    000038148                    000381480000000000000109                     I0138148     30031900000000040003410000017N261218104700000000000103003190000000000000000000000000000000000000000100011105998703FABRICIO SILVEIRA DE SOUZA              RUA JOAO EVANGELISTA DE CARVALHO        CENTRO      26520500NILOPOLIS      RJUNIAO UMB DOS CULTOS AFRO BRAS    30031910 000222
10231987175000168817800093673    000038147                    000381470000000000000109                     I0138147     30031900000000025003410000017N261218104700000000000103003190000000000000000000000000000000000000000100012470639840RICARDO DE OLIVEIRA                     RUA FELINTO MARQUES CERQUEIRA           CAPUCHINHOS 44076040FEIRA DE SANTANBAUNIAO UMB DOS CULTOS AFRO BRAS    30031910 000223
10231987175000168817800093673    000038146                    000381460000000000000109                     I0138146     30031900000000040003410000017N261218104700000000000103003190000000000000000000000000000000000000000100005189662756MARILZA FRANCA DA CRUZ                  RUA QUITO                               PENHA       21020330RIO DE JANEIRO RJUNIAO UMB DOS CULTOS AFRO BRAS    30031910 000224
10231987175000168817800093673    000038145                    000381450000000000000109                     I0138145     30031900000000040003410000017N261218104700000000000103003190000000000000000000000000000000000000000100035838493704CELMO JOSE DE SOUZA                     RUA DA CONCEICAO                        CENTRO      24020087NITEROI        RJUNIAO UMB DOS CULTOS AFRO BRAS    30031910 000225
10231987175000168817800093673    000038144                    000381440000000000000109                     I0138144     30031900000000040003410000017N261218104700000000000103003190000000000000000000000000000000000000000100067267258753RITA DE CASSIA DIACOVO PELLITO          RUA ANDRE AZEVEDO                       OLARIA      21021480RIO DE JANEIRO RJUNIAO UMB DOS CULTOS AFRO BRAS    30031910 000226
10231987175000168817800093673    000038143                    000381430000000000000109                     I0138143     30031900000000040003410000017N261218104700000000000103003190000000000000000000000000000000000000000100008501649740ADILSON PEREIRA DIAS                    RUA ALBERTO MARTIRES ASTH               SAO GERALDO 28630485NOVA FRIBURGO  RJUNIAO UMB DOS CULTOS AFRO BRAS    30031910 000227
10231987175000168817800093673    000038142                    000381420000000000000109                     I0138142     30031900000000040003410000017N261218104700000000000103003190000000000000000000000000000000000000000100099225158734MARIA MAGALI DE OLIVEIRA SOUZA          RUA PIRACAIA                            MARECHAL HER20720012RIO DE JANEIRO RJUNIAO UMB DOS CULTOS AFRO BRAS    30031910 000228
10231987175000168817800093673    000038141                    000381410000000000000109                     I0138141     30031900000000040003410000017N261218104700000000000103003190000000000000000000000000000000000000000100093635540749REGINALDO ALVES DA SILVA                ESTRADA DA SERRA VELHA DA ESTRELA       MEIO DA SERR00000000PETROPOLIS     RJUNIAO UMB DOS CULTOS AFRO BRAS    30031910 000229
10231987175000168817800093673    000038140                    000381400000000000000109                     I0138140     30031900000000040003410000017N261218104700000000000103003190000000000000000000000000000000000000000100000000000907AGUINALDO DE PAULA BORGES               RUA GEREZ                               LAGOINHA    26296228RIO DE JANEIRO RJUNIAO UMB DOS CULTOS AFRO BRAS    30031910 000230
10231987175000168817800093673    000038139                    000381390000000000000109                     I0138139     30031900000000040003410000017N261218104700000000000103003190000000000000000000000000000000000000000100000000000907JOSE WAGNER DOS SANTOS                  RUA ZILDA SILVARES                      VISTA ALEGRE24722200SAO GONCALO    RJUNIAO UMB DOS CULTOS AFRO BRAS    30031910 000231
10231987175000168817800093673    000038138                    000381380000000000000109                     I0138138     30031900000000040003410000017N261218104700000000000103003190000000000000000000000000000000000000000100091892627787JUSSARA MELLO DOS SANTOS OLIVE          RUA ANANIAS ANTERO DA COSTA             EDEN        25545090RIO DE JANEIRO RJUNIAO UMB DOS CULTOS AFRO BRAS    30031910 000232
10231987175000168817800093673    000038137                    000381370000000000000109                     I0138137     30031900000000040003410000017N261218104700000000000103003190000000000000000000000000000000000000000100088341534720RAIMUNDA BERNADINA DE OLIVEIRA          RUA 4                                   ROCINHA - GA22451530RIO DE JANEIRO RJUNIAO UMB DOS CULTOS AFRO BRAS    30031910 000233
10231987175000168817800093673    000038136                    000381360000000000000109                     I0138136     30031900000000040003410000017N261218104700000000000103003190000000000000000000000000000000000000000100015197047712MARCELLE SOARES ZIMBRAO                 RUA NOSSA SENHORA DAS GRACAS            MOSELA      25675111PETROPOLIS     RJUNIAO UMB DOS CULTOS AFRO BRAS    30031910 000234
10231987175000168817800093673    000038135                    000381350000000000000109                     I0138135     30031900000000040003410000017N261218104700000000000103003190000000000000000000000000000000000000000100085725730700MARIA LUCIA DA SILVA BORGES             RUA CACIPORE                            JARDIM OLAVO25036040DUQUE DE CAXIASRJUNIAO UMB DOS CULTOS AFRO BRAS    30031910 000235
10231987175000168817800093673    000038134                    000381340000000000000109                     I0138134     30031900000000040003410000017N261218104700000000000103003190000000000000000000000000000000000000000100002248004770ROSANE ALVES DE AZEVEDO                 AVENIDA ATLANTICA                       LAGOMAR     27910970MACAE          RJUNIAO UMB DOS CULTOS AFRO BRAS    30031910 000236
10231987175000168817800093673    000038133                    000381330000000000000109                     I0138133     30031900000000040003410000017N261218104700000000000103003190000000000000000000000000000000000000000100011778537790MARIVONE ANTONIA DOS SANTOS             RUA TOMAS FONSECA                       COMENDADOR S26031512NOVA IGUACU    RJUNIAO UMB DOS CULTOS AFRO BRAS    30031910 000237
10231987175000168817800093673    000038132                    000381320000000000000109                     I0138132     30031900000000040003410000017N261218104700000000000103003190000000000000000000000000000000000000000100000238705757ANGELA DA MOTTA NUNES SILVA             RUA RIACHO DOCE                         OSVALDO CRUZ21340340RIO DE JANEIRO RJUNIAO UMB DOS CULTOS AFRO BRAS    30031910 000238
10231987175000168817800093673    000038131                    000381310000000000000109                     I0138131     30031900000000040003410000017N261218104700000000000103003190000000000000000000000000000000000000000100045910383787PAULO ROBERTO DE OLIVEIRA DRUB          ESTRADA CAMBOATA                        GUADALUPE   21660005RIO DE JANEIRO RJUNIAO UMB DOS CULTOS AFRO BRAS    30031910 000239
10231987175000168817800093673    000038130                    000381300000000000000109                     I0138130     30031900000000040003410000017N261218104700000000000103003190000000000000000000000000000000000000000100009295304705GEORGE ALBERTO GONZAGA DOS SAN          RUA: GUARABU                            INHAUMA     20761060RIO DE JANEIRO RJUNIAO UMB DOS CULTOS AFRO BRAS    30031910 000240
10231987175000168817800093673    000038129                    000381290000000000000109                     I0138129     30031900000000040003410000017N261218104700000000000103003190000000000000000000000000000000000000000100085901512715ZENILDA MACHADO VICENTE LEITE           RUA VILLAGE IMPERIAL                    PARQUE MAMBU23954270ANGRA DOS REIS RJUNIAO UMB DOS CULTOS AFRO BRAS    30031910 000241
10231987175000168817800093673    000038128                    000381280000000000000109                     I0138128     30031900000000040003410000017N261218104700000000000103003190000000000000000000000000000000000000000100003617355706INAIA DE MACEDO SANTOS                  TRAVESSA PARAIBA DO SUL                 NILOPOLIS   26525470RIO DE JANEIRO RJUNIAO UMB DOS CULTOS AFRO BRAS    30031910 000242
10231987175000168817800093673    000038127                    000381270000000000000109                     I0138127     30031900000000040003410000017N261218104700000000000103003190000000000000000000000000000000000000000100054371333753MARIZETE ALVES DA SILVA                 RUA DELHIR                              ANCHIETA    00000000RIO DE JANEIRO RJUNIAO UMB DOS CULTOS AFRO BRAS    30031910 000243
10231987175000168817800093673    000038126                    000381260000000000000109                     I0138126     30031900000000040003410000017N261218104700000000000103003190000000000000000000000000000000000000000100063607379734FATIMA CONCEICAO GONCALVES DA           RUA: AMANDIU                            IRAJA       21371440RIO DE JANEIRO RJUNIAO UMB DOS CULTOS AFRO BRAS    30031910 000244
10231987175000168817800093673    000038125                    000381250000000000000109                     I0138125     30031900000000040003410000017N261218104700000000000103003190000000000000000000000000000000000000000100085194557787CELIA MARIA FERNANDES DE CASTR          RUA IRAPIRANGA                          ROCHA MIRAND21540710RIO DE JANEIRO RJUNIAO UMB DOS CULTOS AFRO BRAS    30031910 000245
10231987175000168817800093673    000038124                    000381240000000000000109                     I0138124     30031900000000040003410000017N261218104700000000000103003190000000000000000000000000000000000000000100010126360707NONILHA DA CONCEICAO FERREIRA           RUA MANOEL DE JESUS PEREIRA             PIABETA     25931470MAGE           RJUNIAO UMB DOS CULTOS AFRO BRAS    30031910 000246
10231987175000168817800093673    000038123                    000381230000000000000109                     I0138123     30031900000000040003410000017N261218104700000000000103003190000000000000000000000000000000000000000100072520388749REINALDO SILVA DOS SANTOS               RUA: FRANCISCA DE OLIVEIRA              ENGENHEIRO B25520170SAO JOAO DE MERRJUNIAO UMB DOS CULTOS AFRO BRAS    30031910 000247
10231987175000168817800093673    000038122                    000381220000000000000109                     I0138122     30031900000000040003410000017N261218104700000000000103003190000000000000000000000000000000000000000100002480281701CESAR AUGUSTO DA SILVA MARCIAL          RUA, TRES                               MANUELLE    00000000MARICA         RJUNIAO UMB DOS CULTOS AFRO BRAS    30031910 000248
10231987175000168817800093673    000038121                    000381210000000000000109                     I0138121     30031900000000040003410000017N261218104700000000000103003190000000000000000000000000000000000000000100080236499734REGINALDO VIEIRA CAPTIVO                RUA DOUTOR NUNES                        OLARIA      21021370RIO DE JANEIRO RJUNIAO UMB DOS CULTOS AFRO BRAS    30031910 000249
