01REMESSA01COBRANCA       916200163100        União Umb dos Cultos Afro Bra341BANCO ITAU SA  250419                                                                                                                                                                                                                                                                                                      000001
10231987175000168916200163100    000045115                    000451150000000000000109                     I0145115     06051900000000080003410000017N250419105700000000000100605190000000000000000000000000000000000000000100004474701755JACIRA DE ALMEIDA BATISTA JULI          AVENIDA SAO PAULON 0, LOTE 11 QUADRA 18 PARQUE MARIL25225660DUQUE DE CAXIASRJUNIAO UMB DOS CULTOS AFRO BRAS    06051915 000002
10231987175000168916200163100    000045114                    000451140000000000000109                     I0145114     28061900000000040003410000017N250419105700000000000102806190000000000000000000000000000000000000000100008276159737TEREZINHA DE JESUS SILVA                RUA MIL E VINTE E CINCON 45,            VOLTA GRANDE27211830VOLTA REDONDA  RJUNIAO UMB DOS CULTOS AFRO BRAS    28061915 000003
10231987175000168916200163100    000045113                    000451130000000000000109                     I0145113     31051900000000040003410000017N250419105700000000000103105190000000000000000000000000000000000000000100008276159737TEREZINHA DE JESUS SILVA                RUA MIL E VINTE E CINCON 45,            VOLTA GRANDE27211830VOLTA REDONDA  RJUNIAO UMB DOS CULTOS AFRO BRAS    31051915 000004
10231987175000168916200163100    000045112                    000451120000000000000109                     I0145112     30061900000000040003410000017N250419105700000000000103006190000000000000000000000000000000000000000100009605715740SONIA LUCIA DOS SANTOS                  RUA AN 320, AVENIDA MINISTRO AMARAL PEIXSIDERLANDIA 27350470BARRA MANSA    RJUNIAO UMB DOS CULTOS AFRO BRAS    30061915 000005
10231987175000168916200163100    000045111                    000451110000000000000109                     I0145111     30051900000000040003410000017N250419105700000000000103005190000000000000000000000000000000000000000100009605715740SONIA LUCIA DOS SANTOS                  RUA AN 320, AVENIDA MINISTRO AMARAL PEIXSIDERLANDIA 27350470BARRA MANSA    RJUNIAO UMB DOS CULTOS AFRO BRAS    30051915 000006
10231987175000168916200163100    000043878                    000438780000000000000109                     I0243878     30061900000000040003410000017N130319105700000000000103006190000000000000000000000000000000000000000100073296333720IRACEMA HILARIO DA SILVA                AVENIDA: ROOSEVELTN 672,                VILA GENI - 23825780ITAGUAI        RJUNIAO UMB DOS CULTOS AFRO BRAS    30061915 000007
10231987175000168916200163100    000042233                    000422330000000000000109                     I0242233     30051900000000040003410000017N130319105700000000000103005190000000000000000000000000000000000000000100073296333720IRACEMA HILARIO DA SILVA                AVENIDA: ROOSEVELTN 672,                VILA GENI - 23825780ITAGUAI        RJUNIAO UMB DOS CULTOS AFRO BRAS    30051915 000008
10231987175000168916200163100    000040736                    000407360000000000000109                     I0240736     30041900000000040003410000017N120319105700000000000103004190000000000000000000000000000000000000000100011704321743TATIENE DE SOUZA FRANCA DA SIL          RUA VENTURAN 0, LOTE 14 QUADRA 72       CURICICA    22780640RIO DE JANEIRO RJUNIAO UMB DOS CULTOS AFRO BRAS    30041915 000009
9                                                                                                                                                                                                                                                                                                                                                                                                         000010
