01REMESSA01COBRANCA       817800093673        União Umb dos Cultos Afro Bra341BANCO ITAU SA  230818                                                                                                                                                                                                                                                                                                      000001
10231987175000168817800093673    000028577                    000285770000000000000109                     I0128577     30111800000000035003410000017N230818104700000000000103011180000000000000000000000000000000000000000100001251801790AMARO LYRA DOS SANTOS FILHO             RUA JOAO VICENTE                        MADUREIRA   21340020RIO DE JANEIRO RJUNIAO UMB DOS CULTOS AFRO BRAS    30111810 000002
10231987175000168817800093673    000028576                    000285760000000000000109                     I0128576     30101800000000035003410000017N230818104700000000000103010180000000000000000000000000000000000000000100001251801790AMARO LYRA DOS SANTOS FILHO             RUA JOAO VICENTE                        MADUREIRA   21340020RIO DE JANEIRO RJUNIAO UMB DOS CULTOS AFRO BRAS    30101810 000003
10231987175000168817800093673    000028575                    000285750000000000000109                     I0128575     30091800000000035003410000017N230818104700000000000103009180000000000000000000000000000000000000000100001251801790AMARO LYRA DOS SANTOS FILHO             RUA JOAO VICENTE                        MADUREIRA   21340020RIO DE JANEIRO RJUNIAO UMB DOS CULTOS AFRO BRAS    30091810 000004
10231987175000168817800093673    000028574                    000285740000000000000109                     I0128574     30111800000000035003410000017N230818104700000000000103011180000000000000000000000000000000000000000100069426864768ANA MARIA DO SACRAMENTO                 RUA ZILA MENDONCA                       BARRACAO    24735055SAO GONCALO    RJUNIAO UMB DOS CULTOS AFRO BRAS    30111810 000005
10231987175000168817800093673    000028573                    000285730000000000000109                     I0128573     30101800000000035003410000017N230818104700000000000103010180000000000000000000000000000000000000000100069426864768ANA MARIA DO SACRAMENTO                 RUA ZILA MENDONCA                       BARRACAO    24735055SAO GONCALO    RJUNIAO UMB DOS CULTOS AFRO BRAS    30101810 000006
10231987175000168817800093673    000028572                    000285720000000000000109                     I0128572     30091800000000035003410000017N230818104700000000000103009180000000000000000000000000000000000000000100069426864768ANA MARIA DO SACRAMENTO                 RUA ZILA MENDONCA                       BARRACAO    24735055SAO GONCALO    RJUNIAO UMB DOS CULTOS AFRO BRAS    30091810 000007
10231987175000168817800093673    000028571                    000285710000000000000109                     I0128571     30111800000000035003410000017N230818104700000000000103011180000000000000000000000000000000000000000100012663149705DIEGO PARREIRA DE ARAUJO                RUA ERMENEGILDO DE SOUZA                JARDIM SAO J23890103SEROPEDICA     RJUNIAO UMB DOS CULTOS AFRO BRAS    30111810 000008
10231987175000168817800093673    000028570                    000285700000000000000109                     I0128570     30101800000000035003410000017N230818104700000000000103010180000000000000000000000000000000000000000100012663149705DIEGO PARREIRA DE ARAUJO                RUA ERMENEGILDO DE SOUZA                JARDIM SAO J23890103SEROPEDICA     RJUNIAO UMB DOS CULTOS AFRO BRAS    30101810 000009
10231987175000168817800093673    000028569                    000285690000000000000109                     I0128569     30091800000000035003410000017N230818104700000000000103009180000000000000000000000000000000000000000100012663149705DIEGO PARREIRA DE ARAUJO                RUA ERMENEGILDO DE SOUZA                JARDIM SAO J23890103SEROPEDICA     RJUNIAO UMB DOS CULTOS AFRO BRAS    30091810 000010
10231987175000168817800093673    000028568                    000285680000000000000109                     I0128568     30111800000000035003410000017N230818104700000000000103011180000000000000000000000000000000000000000100011110357761THYAGO ALBERT MORAES CYRILLO S          RUA VINTE E SEIS                        JARDIM DA PA25926765RIO DE JANEIRO RJUNIAO UMB DOS CULTOS AFRO BRAS    30111810 000011
10231987175000168817800093673    000028567                    000285670000000000000109                     I0128567     30101800000000035003410000017N230818104700000000000103010180000000000000000000000000000000000000000100011110357761THYAGO ALBERT MORAES CYRILLO S          RUA VINTE E SEIS                        JARDIM DA PA25926765RIO DE JANEIRO RJUNIAO UMB DOS CULTOS AFRO BRAS    30101810 000012
10231987175000168817800093673    000028566                    000285660000000000000109                     I0128566     30091800000000035003410000017N230818104700000000000103009180000000000000000000000000000000000000000100011110357761THYAGO ALBERT MORAES CYRILLO S          RUA VINTE E SEIS                        JARDIM DA PA25926765RIO DE JANEIRO RJUNIAO UMB DOS CULTOS AFRO BRAS    30091810 000013
10231987175000168817800093673    000028565                    000285650000000000000109                     I0128565     30111800000000035003410000017N230818104700000000000103011180000000000000000000000000000000000000000100040375161791JORGE LUIZ NOGUEIRA                     ESTRADA CAPOEIRA GRANDE N 983           GUARATIBA - 23026220RIO DE JANEIRO RJUNIAO UMB DOS CULTOS AFRO BRAS    30111810 000014
10231987175000168817800093673    000028564                    000285640000000000000109                     I0128564     30101800000000035003410000017N230818104700000000000103010180000000000000000000000000000000000000000100040375161791JORGE LUIZ NOGUEIRA                     ESTRADA CAPOEIRA GRANDE N 983           GUARATIBA - 23026220RIO DE JANEIRO RJUNIAO UMB DOS CULTOS AFRO BRAS    30101810 000015
10231987175000168817800093673    000028563                    000285630000000000000109                     I0128563     30111800000000035003410000017N230818104700000000000103011180000000000000000000000000000000000000000100008762385763JANAINA CORREIA DA ROCHA                RUA VISCONDE DE MAGE, LOTE 4 QUADRA 22  TAQUARA - DU25275050DUQUE DE CAXIASRJUNIAO UMB DOS CULTOS AFRO BRAS    30111810 000016
10231987175000168817800093673    000028562                    000285620000000000000109                     I0128562     30101800000000035003410000017N230818104700000000000103010180000000000000000000000000000000000000000100008762385763JANAINA CORREIA DA ROCHA                RUA VISCONDE DE MAGE, LOTE 4 QUADRA 22  TAQUARA - DU25275050DUQUE DE CAXIASRJUNIAO UMB DOS CULTOS AFRO BRAS    30101810 000017
10231987175000168817800093673    000028561                    000285610000000000000109                     I0128561     30091800000000035003410000017N230818104700000000000103009180000000000000000000000000000000000000000100008762385763JANAINA CORREIA DA ROCHA                RUA VISCONDE DE MAGE, LOTE 4 QUADRA 22  TAQUARA - DU25275050DUQUE DE CAXIASRJUNIAO UMB DOS CULTOS AFRO BRAS    30091810 000018
10231987175000168817800093673    000028560                    000285600000000000000109                     I0128560     30111800000000035003410000017N230818104700000000000103011180000000000000000000000000000000000000000100007057227752EDMAR ADAO                              RUA: ECLIPSE LOTE 7 QUADRA 7 - GUANDU   JAPERI - RJ 26420000JAPERI         RJUNIAO UMB DOS CULTOS AFRO BRAS    30111810 000019
10231987175000168817800093673    000028559                    000285590000000000000109                     I0128559     30101800000000035003410000017N230818104700000000000103010180000000000000000000000000000000000000000100007057227752EDMAR ADAO                              RUA: ECLIPSE LOTE 7 QUADRA 7 - GUANDU   JAPERI - RJ 26420000JAPERI         RJUNIAO UMB DOS CULTOS AFRO BRAS    30101810 000020
10231987175000168817800093673    000028558                    000285580000000000000109                     I0128558     30091800000000035003410000017N230818104700000000000103009180000000000000000000000000000000000000000100007057227752EDMAR ADAO                              RUA: ECLIPSE LOTE 7 QUADRA 7 - GUANDU   JAPERI - RJ 26420000JAPERI         RJUNIAO UMB DOS CULTOS AFRO BRAS    30091810 000021
10231987175000168817800093673    000028557                    000285570000000000000109                     I0128557     30111800000000035003410000017N230818104700000000000103011180000000000000000000000000000000000000000100001645493741MARIA FERRAZ DO NASCIMENTO              RUA A JOAO IZAQUE, 292                  BELVEDERE - 27113350BARRA DO PIRAI RJUNIAO UMB DOS CULTOS AFRO BRAS    30111810 000022
10231987175000168817800093673    000028556                    000285560000000000000109                     I0128556     30101800000000035003410000017N230818104700000000000103010180000000000000000000000000000000000000000100001645493741MARIA FERRAZ DO NASCIMENTO              RUA A JOAO IZAQUE, 292                  BELVEDERE - 27113350BARRA DO PIRAI RJUNIAO UMB DOS CULTOS AFRO BRAS    30101810 000023
10231987175000168817800093673    000028555                    000285550000000000000109                     I0128555     30091800000000035003410000017N230818104700000000000103009180000000000000000000000000000000000000000100001645493741MARIA FERRAZ DO NASCIMENTO              RUA A JOAO IZAQUE, 292                  BELVEDERE - 27113350BARRA DO PIRAI RJUNIAO UMB DOS CULTOS AFRO BRAS    30091810 000024
10231987175000168817800093673    000028554                    000285540000000000000109                     I0128554     30111800000000035003410000017N230818104700000000000103011180000000000000000000000000000000000000000100000579409759CLAUDIA VALERIA MIRAGLIA                RUA ANTONIO RODRIGUES OLIVEIRA          CENTRO      26556520MESQUITA       RJUNIAO UMB DOS CULTOS AFRO BRAS    30111810 000025
10231987175000168817800093673    000028553                    000285530000000000000109                     I0128553     30101800000000035003410000017N230818104700000000000103010180000000000000000000000000000000000000000100000579409759CLAUDIA VALERIA MIRAGLIA                RUA ANTONIO RODRIGUES OLIVEIRA          CENTRO      26556520MESQUITA       RJUNIAO UMB DOS CULTOS AFRO BRAS    30101810 000026
10231987175000168817800093673    000028552                    000285520000000000000109                     I0128552     30091800000000035003410000017N230818104700000000000103009180000000000000000000000000000000000000000100000579409759CLAUDIA VALERIA MIRAGLIA                RUA ANTONIO RODRIGUES OLIVEIRA          CENTRO      26556520MESQUITA       RJUNIAO UMB DOS CULTOS AFRO BRAS    30091810 000027
10231987175000168817800093673    000028551                    000285510000000000000109                     I0128551     30111800000000035003410000017N230818104700000000000103011180000000000000000000000000000000000000000100065196171720MARIA DAS GRACAS OLIVEIRA               RUA FRANCISCO MANOEL, 22                PONTO CHIQUE26032835NOVA IGUACU    RJUNIAO UMB DOS CULTOS AFRO BRAS    30111810 000028
10231987175000168817800093673    000028550                    000285500000000000000109                     I0128550     30101800000000035003410000017N230818104700000000000103010180000000000000000000000000000000000000000100065196171720MARIA DAS GRACAS OLIVEIRA               RUA FRANCISCO MANOEL, 22                PONTO CHIQUE26032835NOVA IGUACU    RJUNIAO UMB DOS CULTOS AFRO BRAS    30101810 000029
10231987175000168817800093673    000028549                    000285490000000000000109                     I0128549     30091800000000035003410000017N230818104700000000000103009180000000000000000000000000000000000000000100065196171720MARIA DAS GRACAS OLIVEIRA               RUA FRANCISCO MANOEL, 22                PONTO CHIQUE26032835NOVA IGUACU    RJUNIAO UMB DOS CULTOS AFRO BRAS    30091810 000030
10231987175000168817800093673    000028548                    000285480000000000000109                     I0128548     30111800000000035003410000017N230818104700000000000103011180000000000000000000000000000000000000000100007346014766LUCIANO FREIRE DE FRANCA                AV. AMARO CAVALCANTE, 2283 CASA 5       ENGENHO DE D20735042RIO DE JANEIRO RJUNIAO UMB DOS CULTOS AFRO BRAS    30111810 000031
10231987175000168817800093673    000028547                    000285470000000000000109                     I0128547     30101800000000035003410000017N230818104700000000000103010180000000000000000000000000000000000000000100007346014766LUCIANO FREIRE DE FRANCA                AV. AMARO CAVALCANTE, 2283 CASA 5       ENGENHO DE D20735042RIO DE JANEIRO RJUNIAO UMB DOS CULTOS AFRO BRAS    30101810 000032
10231987175000168817800093673    000028546                    000285460000000000000109                     I0128546     30091800000000035003410000017N230818104700000000000103009180000000000000000000000000000000000000000100007346014766LUCIANO FREIRE DE FRANCA                AV. AMARO CAVALCANTE, 2283 CASA 5       ENGENHO DE D20735042RIO DE JANEIRO RJUNIAO UMB DOS CULTOS AFRO BRAS    30091810 000033
10231987175000168817800093673    000028545                    000285450000000000000109                     I0128545     30111800000000025003410000017N230818104700000000000103011180000000000000000000000000000000000000000100012470639840RICARDO DE OLIVEIRA                     RUA FELINTO MARQUES CERQUEIRA, 270 - CAPCAPUCHINHOS 44076040FEIRA DE SANTANBAUNIAO UMB DOS CULTOS AFRO BRAS    30111810 000034
10231987175000168817800093673    000028544                    000285440000000000000109                     I0128544     31081800000000070003410000017N230818104700000000000103108180000000000000000000000000000000000000000100001582280738NATALICIA LOPES PEREIRA                 ALAMEDA JORGINHO, 36 LOTE 11 QUADRA 24  FRAGOSO - MA29000000MAGE           RJUNIAO UMB DOS CULTOS AFRO BRAS    31081810 000035
10231987175000168817800093673    000028543                    000285430000000000000109                     I0128543     30101800000000025003410000017N230818104700000000000103010180000000000000000000000000000000000000000100012470639840RICARDO DE OLIVEIRA                     RUA FELINTO MARQUES CERQUEIRA, 270 - CAPCAPUCHINHOS 44076040FEIRA DE SANTANBAUNIAO UMB DOS CULTOS AFRO BRAS    30101810 000036
10231987175000168817800093673    000028542                    000285420000000000000109                     I0128542     30091800000000025003410000017N230818104700000000000103009180000000000000000000000000000000000000000100012470639840RICARDO DE OLIVEIRA                     RUA FELINTO MARQUES CERQUEIRA, 270 - CAPCAPUCHINHOS 44076040FEIRA DE SANTANBAUNIAO UMB DOS CULTOS AFRO BRAS    30091810 000037
10231987175000168817800093673    000028541                    000285410000000000000109                     I0128541     30111800000000035003410000017N230818104700000000000103011180000000000000000000000000000000000000000100010648504727ALINE DA SILVA RAMOS                    RUA GENERAL LOUREIRO, 231               BOACU - SAO 24467400SAO GONCALO    RJUNIAO UMB DOS CULTOS AFRO BRAS    30111810 000038
10231987175000168817800093673    000028540                    000285400000000000000109                     I0128540     30101800000000035003410000017N230818104700000000000103010180000000000000000000000000000000000000000100010648504727ALINE DA SILVA RAMOS                    RUA GENERAL LOUREIRO, 231               BOACU - SAO 24467400SAO GONCALO    RJUNIAO UMB DOS CULTOS AFRO BRAS    30101810 000039
10231987175000168817800093673    000028539                    000285390000000000000109                     I0128539     30091800000000035003410000017N230818104700000000000103009180000000000000000000000000000000000000000100010648504727ALINE DA SILVA RAMOS                    RUA GENERAL LOUREIRO, 231               BOACU - SAO 24467400SAO GONCALO    RJUNIAO UMB DOS CULTOS AFRO BRAS    30091810 000040
10231987175000168817800093673    000028538                    000285380000000000000109                     I0128538     30111800000000035003410000017N230818104700000000000103011180000000000000000000000000000000000000000100000000000712MARINEIDE SERGIO CABRAL                 RUA INAMBA N 59                         POSSE - NOVA26021160NOVA IGUACU    RJUNIAO UMB DOS CULTOS AFRO BRAS    30111810 000041
10231987175000168817800093673    000028537                    000285370000000000000109                     I0128537     30101800000000035003410000017N230818104700000000000103010180000000000000000000000000000000000000000100000000000712MARINEIDE SERGIO CABRAL                 RUA INAMBA N 59                         POSSE - NOVA26021160NOVA IGUACU    RJUNIAO UMB DOS CULTOS AFRO BRAS    30101810 000042
10231987175000168817800093673    000028536                    000285360000000000000109                     I0128536     30091800000000035003410000017N230818104700000000000103009180000000000000000000000000000000000000000100000000000712MARINEIDE SERGIO CABRAL                 RUA INAMBA N 59                         POSSE - NOVA26021160NOVA IGUACU    RJUNIAO UMB DOS CULTOS AFRO BRAS    30091810 000043
10231987175000168817800093673    000028535                    000285350000000000000109                     I0128535     30111800000000035003410000017N230818104700000000000103011180000000000000000000000000000000000000000100000000000656GINO ZACARIAS DE JESUS                  RUA NOVE, 2                             VILA GENI - 23830010RIO DE JANEIRO RJUNIAO UMB DOS CULTOS AFRO BRAS    30111810 000044
10231987175000168817800093673    000028534                    000285340000000000000109                     I0128534     30101800000000035003410000017N230818104700000000000103010180000000000000000000000000000000000000000100000000000656GINO ZACARIAS DE JESUS                  RUA NOVE, 2                             VILA GENI - 23830010RIO DE JANEIRO RJUNIAO UMB DOS CULTOS AFRO BRAS    30101810 000045
10231987175000168817800093673    000028533                    000285330000000000000109                     I0128533     30091800000000035003410000017N230818104700000000000103009180000000000000000000000000000000000000000100000000000656GINO ZACARIAS DE JESUS                  RUA NOVE, 2                             VILA GENI - 23830010RIO DE JANEIRO RJUNIAO UMB DOS CULTOS AFRO BRAS    30091810 000046
10231987175000168817800093673    000028532                    000285320000000000000109                     I0128532     30111800000000035003410000017N230818104700000000000103011180000000000000000000000000000000000000000100010949478733AUCELIA MARIA DE SOUZA LIMA             RUA JOSE FRANCISCO DE SOUZA PORTO, 229  ARNALDO EUGE23016010RIO DE JANEIRO RJUNIAO UMB DOS CULTOS AFRO BRAS    30111810 000047
10231987175000168817800093673    000028531                    000285310000000000000109                     I0128531     30101800000000035003410000017N230818104700000000000103010180000000000000000000000000000000000000000100010949478733AUCELIA MARIA DE SOUZA LIMA             RUA JOSE FRANCISCO DE SOUZA PORTO, 229  ARNALDO EUGE23016010RIO DE JANEIRO RJUNIAO UMB DOS CULTOS AFRO BRAS    30101810 000048
10231987175000168817800093673    000028530                    000285300000000000000109                     I0128530     30091800000000035003410000017N230818104700000000000103009180000000000000000000000000000000000000000100010949478733AUCELIA MARIA DE SOUZA LIMA             RUA JOSE FRANCISCO DE SOUZA PORTO, 229  ARNALDO EUGE23016010RIO DE JANEIRO RJUNIAO UMB DOS CULTOS AFRO BRAS    30091810 000049
10231987175000168817800093673    000028529                    000285290000000000000109                     I0128529     30111800000000035003410000017N230818104700000000000103011180000000000000000000000000000000000000000100091307740715SERGIO FERREIRA DA SILVA                RUA: DO OURO                            SARAPUI     25050120DUQUE DE CAXIASRJUNIAO UMB DOS CULTOS AFRO BRAS    30111810 000050
10231987175000168817800093673    000028528                    000285280000000000000109                     I0128528     30101800000000035003410000017N230818104700000000000103010180000000000000000000000000000000000000000100091307740715SERGIO FERREIRA DA SILVA                RUA: DO OURO                            SARAPUI     25050120DUQUE DE CAXIASRJUNIAO UMB DOS CULTOS AFRO BRAS    30101810 000051
10231987175000168817800093673    000028527                    000285270000000000000109                     I0128527     30111800000000035003410000017N230818104700000000000103011180000000000000000000000000000000000000000100003863156714VILMA TEREZA DE SOUZA AMARAL            RUA GUATEMALENSE, LOTE 7 QUADRA 32      JARDIM MERIT25555700SAO JOAO DE MERRJUNIAO UMB DOS CULTOS AFRO BRAS    30111810 000052
10231987175000168817800093673    000028526                    000285260000000000000109                     I0128526     30101800000000035003410000017N230818104700000000000103010180000000000000000000000000000000000000000100003863156714VILMA TEREZA DE SOUZA AMARAL            RUA GUATEMALENSE, LOTE 7 QUADRA 32      JARDIM MERIT25555700SAO JOAO DE MERRJUNIAO UMB DOS CULTOS AFRO BRAS    30101810 000053
10231987175000168817800093673    000028525                    000285250000000000000109                     I0128525     30091800000000035003410000017N230818104700000000000103009180000000000000000000000000000000000000000100003863156714VILMA TEREZA DE SOUZA AMARAL            RUA GUATEMALENSE, LOTE 7 QUADRA 32      JARDIM MERIT25555700SAO JOAO DE MERRJUNIAO UMB DOS CULTOS AFRO BRAS    30091810 000054
10231987175000168817800093673    000028524                    000285240000000000000109                     I0128524     30111800000000035003410000017N230818104700000000000103011180000000000000000000000000000000000000000100078759676787VANDA LUCIA LIMA DA SILVA               RUA ALMIRANTE JUSTINO PROENCA, 395      CAMPO GRANDE23090310RIO DE JANEIRO RJUNIAO UMB DOS CULTOS AFRO BRAS    30111810 000055
10231987175000168817800093673    000028523                    000285230000000000000109                     I0128523     30101800000000035003410000017N230818104700000000000103010180000000000000000000000000000000000000000100078759676787VANDA LUCIA LIMA DA SILVA               RUA ALMIRANTE JUSTINO PROENCA, 395      CAMPO GRANDE23090310RIO DE JANEIRO RJUNIAO UMB DOS CULTOS AFRO BRAS    30101810 000056
10231987175000168817800093673    000028522                    000285220000000000000109                     I0128522     30091800000000035003410000017N230818104700000000000103009180000000000000000000000000000000000000000100078759676787VANDA LUCIA LIMA DA SILVA               RUA ALMIRANTE JUSTINO PROENCA, 395      CAMPO GRANDE23090310RIO DE JANEIRO RJUNIAO UMB DOS CULTOS AFRO BRAS    30091810 000057
10231987175000168817800093673    000028521                    000285210000000000000109                     I0128521     30111800000000035003410000017N230818104700000000000103011180000000000000000000000000000000000000000100035914661749CELSO NERY GALDARD                      RUA: BENJAMIN DA ROCHA JUNIOR           PARQUE FLUMI25045010DUQUE DE CAXIASRJUNIAO UMB DOS CULTOS AFRO BRAS    30111810 000058
10231987175000168817800093673    000028520                    000285200000000000000109                     I0128520     30101800000000035003410000017N230818104700000000000103010180000000000000000000000000000000000000000100035914661749CELSO NERY GALDARD                      RUA: BENJAMIN DA ROCHA JUNIOR           PARQUE FLUMI25045010DUQUE DE CAXIASRJUNIAO UMB DOS CULTOS AFRO BRAS    30101810 000059
10231987175000168817800093673    000028519                    000285190000000000000109                     I0128519     30091800000000035003410000017N230818104700000000000103009180000000000000000000000000000000000000000100035914661749CELSO NERY GALDARD                      RUA: BENJAMIN DA ROCHA JUNIOR           PARQUE FLUMI25045010DUQUE DE CAXIASRJUNIAO UMB DOS CULTOS AFRO BRAS    30091810 000060
10231987175000168817800093673    000028518                    000285180000000000000109                     I0128518     30111800000000035003410000017N230818104700000000000103011180000000000000000000000000000000000000000100000000000047JOANE ZAGALIA DA CUNHA                  RUA JABIRI, 365                         MARECHAL HER21615300MARECHAL HERMESRJUNIAO UMB DOS CULTOS AFRO BRAS    30111810 000061
10231987175000168817800093673    000028517                    000285170000000000000109                     I0128517     30101800000000035003410000017N230818104700000000000103010180000000000000000000000000000000000000000100000000000047JOANE ZAGALIA DA CUNHA                  RUA JABIRI, 365                         MARECHAL HER21615300MARECHAL HERMESRJUNIAO UMB DOS CULTOS AFRO BRAS    30101810 000062
10231987175000168817800093673    000028516                    000285160000000000000109                     I0128516     30091800000000035003410000017N230818104700000000000103009180000000000000000000000000000000000000000100000000000047JOANE ZAGALIA DA CUNHA                  RUA JABIRI, 365                         MARECHAL HER21615300MARECHAL HERMESRJUNIAO UMB DOS CULTOS AFRO BRAS    30091810 000063
10231987175000168817800093673    000028515                    000285150000000000000109                     I0128515     30111800000000040003410000017N220818104700000000000103011180000000000000000000000000000000000000000100016840152782DARIO JOSE DA SILVA FILHO               RUA: PEDRO II                           VILA IBIRAPI23512530RIO DE JANEIRO RJUNIAO UMB DOS CULTOS AFRO BRAS    30111810 000064
10231987175000168817800093673    000028514                    000285140000000000000109                     I0128514     30101800000000040003410000017N220818104700000000000103010180000000000000000000000000000000000000000100016840152782DARIO JOSE DA SILVA FILHO               RUA: PEDRO II                           VILA IBIRAPI23512530RIO DE JANEIRO RJUNIAO UMB DOS CULTOS AFRO BRAS    30101810 000065
10231987175000168817800093673    000028513                    000285130000000000000109                     I0128513     30091800000000040003410000017N220818104700000000000103009180000000000000000000000000000000000000000100016840152782DARIO JOSE DA SILVA FILHO               RUA: PEDRO II                           VILA IBIRAPI23512530RIO DE JANEIRO RJUNIAO UMB DOS CULTOS AFRO BRAS    30091810 000066
10231987175000168817800093673    000028512                    000285120000000000000109                     I0128512     30111800000000040003410000017N220818104700000000000103011180000000000000000000000000000000000000000100003005342727MAURICIO ESTORQUE                       RUA SERDIVAO JOSE NICOLAY               JARDIM FEO  25965430TERESOPOLIS    RJUNIAO UMB DOS CULTOS AFRO BRAS    30111810 000067
10231987175000168817800093673    000028511                    000285110000000000000109                     I0128511     30101800000000040003410000017N220818104700000000000103010180000000000000000000000000000000000000000100003005342727MAURICIO ESTORQUE                       RUA SERDIVAO JOSE NICOLAY               JARDIM FEO  25965430TERESOPOLIS    RJUNIAO UMB DOS CULTOS AFRO BRAS    30101810 000068
10231987175000168817800093673    000028510                    000285100000000000000109                     I0128510     30091800000000040003410000017N220818104700000000000103009180000000000000000000000000000000000000000100003005342727MAURICIO ESTORQUE                       RUA SERDIVAO JOSE NICOLAY               JARDIM FEO  25965430TERESOPOLIS    RJUNIAO UMB DOS CULTOS AFRO BRAS    30091810 000069
10231987175000168817800093673    000028509                    000285090000000000000109                     I0128509     30081800000000070003410000017N220818104700000000000103008180000000000000000000000000000000000000000100006915594736CINTIA FERREIRA                         RUA VALDEMAR GALDINO                    JARDIM BELO 22631004RIO DE JANEIRO RJUNIAO UMB DOS CULTOS AFRO BRAS    30081810 000070
10231987175000168817800093673    000028508                    000285080000000000000109                     I0128508     31081800000000040003410000017N220818104700000000000103108180000000000000000000000000000000000000000100073243728720MARCOS AURELIO REIS DE CASTRO           RUA DAS ROSAS                           VILA VALQUEI21321382RIO DE JANEIRO RJUNIAO UMB DOS CULTOS AFRO BRAS    31081810 000071
10231987175000168817800093673    000028507                    000285070000000000000109                     I0128507     30111800000000035003410000017N220818104700000000000103011180000000000000000000000000000000000000000100075164779749IVANILDO FURTADO DA SILVA               RUA: LUIZ DE CASTRO                     PILARES     21760732RIO DE JANEIRO RJUNIAO UMB DOS CULTOS AFRO BRAS    30111810 000072
10231987175000168817800093673    000028506                    000285060000000000000109                     I0128506     30101800000000035003410000017N220818104700000000000103010180000000000000000000000000000000000000000100075164779749IVANILDO FURTADO DA SILVA               RUA: LUIZ DE CASTRO                     PILARES     21760732RIO DE JANEIRO RJUNIAO UMB DOS CULTOS AFRO BRAS    30101810 000073
10231987175000168817800093673    000028505                    000285050000000000000109                     I0128505     30091800000000035003410000017N220818104700000000000103009180000000000000000000000000000000000000000100075164779749IVANILDO FURTADO DA SILVA               RUA: LUIZ DE CASTRO                     PILARES     21760732RIO DE JANEIRO RJUNIAO UMB DOS CULTOS AFRO BRAS    30091810 000074
10231987175000168817800093673    000028272                    000282720000000000000109                     I0228272     30111800000000035003410000017N200818104700000000000103011180000000000000000000000000000000000000000100000000001288JOSE ANTONIO DA SILVA JUNIOR            RUA HUMAITA                             PIABETA     25915000MAGE           RJUNIAO UMB DOS CULTOS AFRO BRAS    30111810 000075
10231987175000168817800093673    000028270                    000282700000000000000109                     I0228270     30111800000000035003410000017N200818104700000000000103011180000000000000000000000000000000000000000100008834107705JOSELI TIADULINO                        RUA MARIA TEREZA                        JARDIM CANAA26263230NOVA IGUACU    RJUNIAO UMB DOS CULTOS AFRO BRAS    30111810 000076
10231987175000168817800093673    000028242                    000282420000000000000109                     I0228242     30111800000000035003410000017N200818104700000000000103011180000000000000000000000000000000000000000100063692546734CARLOS LUIZ DA SILVA                    ESTRADA DE SEPETIBA                     SEPETIBA    23545003RIO DE JANEIRO RJUNIAO UMB DOS CULTOS AFRO BRAS    30111810 000077
10231987175000168817800093673    000027351                    000273510000000000000109                     I0227351     30111800000000035003410000017N200818104700000000000103011180000000000000000000000000000000000000000100046626247700SHEILA MARIA DE ANDRADE                 ESTRADA ANTONIO JOSE BITTENCOURT        CENTRO      26535000NILOPOLIS      RJUNIAO UMB DOS CULTOS AFRO BRAS    30111810 000078
10231987175000168817800093673    000026851                    000268510000000000000109                     I0226851     30091800000000035003410000017N200818104700000000000103009180000000000000000000000000000000000000000100000000001288JOSE ANTONIO DA SILVA JUNIOR            RUA HUMAITA                             PIABETA     25915000MAGE           RJUNIAO UMB DOS CULTOS AFRO BRAS    30091810 000079
10231987175000168817800093673    000026849                    000268490000000000000109                     I0226849     30091800000000035003410000017N200818104700000000000103009180000000000000000000000000000000000000000100008834107705JOSELI TIADULINO                        RUA MARIA TEREZA                        JARDIM CANAA26263230NOVA IGUACU    RJUNIAO UMB DOS CULTOS AFRO BRAS    30091810 000080
10231987175000168817800093673    000026821                    000268210000000000000109                     I0226821     30091800000000035003410000017N200818104700000000000103009180000000000000000000000000000000000000000100063692546734CARLOS LUIZ DA SILVA                    ESTRADA DE SEPETIBA                     SEPETIBA    23545003RIO DE JANEIRO RJUNIAO UMB DOS CULTOS AFRO BRAS    30091810 000081
10231987175000168817800093673    000026200                    000262000000000000000109                     I3426200     30091800000000035003410000017N200818104700000000000103009180000000000000000000000000000000000000000100088046060704NATALINA DE JESUS PEREIRA DE O          RUA SAPOPEMBA N 524                     BENTO RIBEIR21331240RIO DE JANEIRO RJUNIAO UMB DOS CULTOS AFRO BRAS    30091810 000082
10231987175000168817800093673    000025935                    000259350000000000000109                     I0225935     30091800000000035003410000017N200818104700000000000103009180000000000000000000000000000000000000000100046626247700SHEILA MARIA DE ANDRADE                 ESTRADA ANTONIO JOSE BITTENCOURT        CENTRO      26535000NILOPOLIS      RJUNIAO UMB DOS CULTOS AFRO BRAS    30091810 000083
10231987175000168817800093673    000025435                    000254350000000000000109                     I0225435     30101800000000035003410000017N200818104700000000000103010180000000000000000000000000000000000000000100000000001288JOSE ANTONIO DA SILVA JUNIOR            RUA HUMAITA                             PIABETA     25915000MAGE           RJUNIAO UMB DOS CULTOS AFRO BRAS    30101810 000084
10231987175000168817800093673    000025433                    000254330000000000000109                     I0225433     30101800000000035003410000017N200818104700000000000103010180000000000000000000000000000000000000000100008834107705JOSELI TIADULINO                        RUA MARIA TEREZA                        JARDIM CANAA26263230NOVA IGUACU    RJUNIAO UMB DOS CULTOS AFRO BRAS    30101810 000085
10231987175000168817800093673    000025405                    000254050000000000000109                     I0225405     30101800000000035003410000017N200818104700000000000103010180000000000000000000000000000000000000000100063692546734CARLOS LUIZ DA SILVA                    ESTRADA DE SEPETIBA                     SEPETIBA    23545003RIO DE JANEIRO RJUNIAO UMB DOS CULTOS AFRO BRAS    30101810 000086
9                                                                                                                                                                                                                                                                                                                                                                                                         000087
