01REMESSA01COBRANCA       817800093673        União Umb dos Cultos Afro Bra341BANCO ITAU SA  110918                                                                                                                                                                                                                                                                                                      000001
10231987175000168817800093673    000028290                    000282900000000000000109                     I3428290     30111800000000035003410000017N200818104700000000000103011180000000000000000000000000000000000000000100090618254749NELY MOREIRA GOMES                      RUA GOMES CARNEIRO                      SARACURUNA  25211050DUQUE DE CAXIASRJUNIAO UMB DOS CULTOS AFRO BRAS    30111810 000002
10231987175000168817800093673    000028014                    000280140000000000000109                     I3428014     30111800000000035003410000017N200818104700000000000103011180000000000000000000000000000000000000000100002110875720ALEX DA SILVA GUEDES                    RUA: PURUS                              PIEDADE     20751295RIO DE JANEIRO RJUNIAO UMB DOS CULTOS AFRO BRAS    30111810 000003
10231987175000168817800093673    000026996                    000269960000000000000109                     I0226996     30091800000000035003410000017N200818104700000000000103009180000000000000000000000000000000000000000100079034780791PAULO ROBERTO DE SOUZA MORENO           RUA CORONEL MALHAES                     TIRADENTES  26351180NOVA IGUACU    RJUNIAO UMB DOS CULTOS AFRO BRAS    30091810 000004
10231987175000168817800093673    000026757                    000267570000000000000109                     I3426757     30091800000000035003410000017N200818104700000000000103009180000000000000000000000000000000000000000100089497899734UGO SILVA FILHO                         RUA CADETE ULISSES VEIGA N 22           SAO CRISTOVA20940240RIO DE JANEIRO RJUNIAO UMB DOS CULTOS AFRO BRAS    30091810 000005
10231987175000168817800093673    000026608                    000266080000000000000109                     I0226608     30091800000000035003410000017N200818104700000000000103009180000000000000000000000000000000000000000100010949550434JOAO BATISTA PEREIRA DE VASCON          RUA NEIDE ALVES DA SILVA                JARDIM SAO S58306450BAYEUX         PBUNIAO UMB DOS CULTOS AFRO BRAS    30091810 000006
10231987175000168817800093673    000026594                    000265940000000000000109                     I3426594     30091800000000035003410000017N200818104700000000000103009180000000000000000000000000000000000000000100002110875720ALEX DA SILVA GUEDES                    RUA: PURUS                              PIEDADE     20751295RIO DE JANEIRO RJUNIAO UMB DOS CULTOS AFRO BRAS    30091810 000007
10231987175000168817800093673    000026344                    000263440000000000000109                     I3426344     30091800000000035003410000017N200818104700000000000103009180000000000000000000000000000000000000000100002673106766JANAINA MARQUES ALVES SANTOS T          RUA C                                   BASILIO     28800000RIO DE JANEIRO RJUNIAO UMB DOS CULTOS AFRO BRAS    30091810 000008
10231987175000168817800093673    000025452                    000254520000000000000109                     I3425452     30101800000000035003410000017N200818104700000000000103010180000000000000000000000000000000000000000100090618254749NELY MOREIRA GOMES                      RUA GOMES CARNEIRO                      SARACURUNA  25211050DUQUE DE CAXIASRJUNIAO UMB DOS CULTOS AFRO BRAS    30101810 000009
10231987175000168817800093673    000025177                    000251770000000000000109                     I3425177     30101800000000035003410000017N200818104700000000000103010180000000000000000000000000000000000000000100002110875720ALEX DA SILVA GUEDES                    RUA: PURUS                              PIEDADE     20751295RIO DE JANEIRO RJUNIAO UMB DOS CULTOS AFRO BRAS    30101810 000010
9                                                                                                                                                                                                                                                                                                                                                                                                         000011
