01REMESSA01COBRANCA       916200163100        União Umb dos Cultos Afro Bra341BANCO ITAU SA  290818                                                                                                                                                                                                                                                                                                      000001
10231987175000168916200163100    000028607                    000286070000000000000109                     I0128607     10091800000000175003410000017N290818104700000000000101009180000000000000000000000000000000000000000100001653081767DEISE SIQUEIRA                          RUA PARLON SIQUEIRA N 59 CX P 93        BARRA DE GUA23020510RIO DE JANEIRO RJUNIAO UMB DOS CULTOS AFRO BRAS    10091810 000002
10231987175000168916200163100    000028606                    000286060000000000000109                     I0128606     31081800000000035003410000017N290818104700000000000103108180000000000000000000000000000000000000000100039622100759LEIR AUGUSTO DA SILVA                   RUA ARTHUR DO NASCIMENTO JUNIOR CASA 23 FRAGOSO - MA25932890MAGE           RJUNIAO UMB DOS CULTOS AFRO BRAS    31081810 000003
10231987175000168916200163100    000028605                    000286050000000000000109                     I0128605     30111800000000040003410000017N290818104700000000000103011180000000000000000000000000000000000000000100001359669736JUCILENE DOS SANTOS GALVAO              RUA: ALICE FREITAS                      VICENTE DE C21371220RIO DE JANEIRO RJUNIAO UMB DOS CULTOS AFRO BRAS    30111810 000004
10231987175000168916200163100    000028604                    000286040000000000000109                     I0128604     31101800000000040003410000017N290818104700000000000103110180000000000000000000000000000000000000000100001359669736JUCILENE DOS SANTOS GALVAO              RUA: ALICE FREITAS                      VICENTE DE C21371220RIO DE JANEIRO RJUNIAO UMB DOS CULTOS AFRO BRAS    31101810 000005
10231987175000168916200163100    000028603                    000286030000000000000109                     I0128603     28091800000000040003410000017N290818104700000000000102809180000000000000000000000000000000000000000100001359669736JUCILENE DOS SANTOS GALVAO              RUA: ALICE FREITAS                      VICENTE DE C21371220RIO DE JANEIRO RJUNIAO UMB DOS CULTOS AFRO BRAS    28091810 000006
10231987175000168916200163100    000028602                    000286020000000000000109                     I0128602     14091800000000420003410000017N280818104700000000000101409180000000000000000000000000000000000000000100080962190730NILCE TAVARES DA SILVA                  ESTRADA DO ZEPELIN                      SANTA CRUZ  23555220RIO DE JANEIRO RJUNIAO UMB DOS CULTOS AFRO BRAS    14091810 000007
10231987175000168916200163100    000028600                    000286000000000000000109                     I0128600     29081800000000035003410000017N280818104700000000000102908180000000000000000000000000000000000000000100013118884703WESLEI FERREIRA DE CARVALHO             ESTRADA: DO GUERENGUE                   TAQUARA     22713004RIO DE JANEIRO RJUNIAO UMB DOS CULTOS AFRO BRAS    29081810 000008
10231987175000168916200163100    000028599                    000285990000000000000109                     I0128599     30081800000000035003410000017N280818104700000000000103008180000000000000000000000000000000000000000100063629852734ZULEICA JANINA BOMFIM AMARAL            RUA DA CAPELA                           ESTACIO     20250051RIO DE JANEIRO RJUNIAO UMB DOS CULTOS AFRO BRAS    30081810 000009
10231987175000168916200163100    000028598                    000285980000000000000109                     I0128598     30111800000000040003410000017N280818104700000000000103011180000000000000000000000000000000000000000100007202542722MIRLA SUSANI DA SILVA SALES             RUA: DOUTOR FREDERICO                   LAGOINHA    26296414NOVA IGUACU    RJUNIAO UMB DOS CULTOS AFRO BRAS    30111810 000010
10231987175000168916200163100    000028597                    000285970000000000000109                     I0128597     30101800000000040003410000017N280818104700000000000103010180000000000000000000000000000000000000000100007202542722MIRLA SUSANI DA SILVA SALES             RUA: DOUTOR FREDERICO                   LAGOINHA    26296414NOVA IGUACU    RJUNIAO UMB DOS CULTOS AFRO BRAS    30101810 000011
10231987175000168916200163100    000028596                    000285960000000000000109                     I0128596     30091800000000040003410000017N280818104700000000000103009180000000000000000000000000000000000000000100007202542722MIRLA SUSANI DA SILVA SALES             RUA: DOUTOR FREDERICO                   LAGOINHA    26296414NOVA IGUACU    RJUNIAO UMB DOS CULTOS AFRO BRAS    30091810 000012
10231987175000168916200163100    000021290                    000212900000000000000109                     I0221290     20071800000000315003410000017N130718104700000000000102007180000000000000000000000000000000000000000100034415688772JORGE FERNANDES BEZERRA                 RUA: LEOCADIA                           REALENGO    21770190RIO DE JANEIRO RJUNIAO UMB DOS CULTOS AFRO BRAS    20071810 000013
10231987175000168916200163100    000021071                    000210710000000000000109                     I3421071     10081800000000129003410000017N250518104700000000000101008180000000000000000000000000000000000000000100058183868720ZILDA SIMOES DO NASCIMENTO MAN          RUA IBITINGA N 31 LOTE 9                PARQUE SAO B26167160BELFORD ROXO   RJUNIAO UMB DOS CULTOS AFRO BRAS    10081810 000014
10231987175000168916200163100    000020872                    000208720000000000000109                     I0220872     30081800000000035003410000017N100518104700000000000103008180000000000000000000000000000000000000000100069725209753YRACE MOEMA GRAULT SCHNOOR              RUA ATILIO PIFIER                       SEPETIBA    23535010RIO DE JANEIRO RJUNIAO UMB DOS CULTOS AFRO BRAS    30081810 000015
10231987175000168916200163100    000020847                    000208470000000000000109                     I0220847     30081800000000035003410000017N090518104700000000000103008180000000000000000000000000000000000000000100009906412798RONNEY NUNES POLI                       RUA NOVA HORIZONTE                      SEPETIBA    23540133RIO DE JANEIRO RJUNIAO UMB DOS CULTOS AFRO BRAS    30081810 000016
10231987175000168916200163100    000020846                    000208460000000000000109                     I0220846     30071800000000035003410000017N090518104700000000000103007180000000000000000000000000000000000000000100009906412798RONNEY NUNES POLI                       RUA NOVA HORIZONTE                      SEPETIBA    23540133RIO DE JANEIRO RJUNIAO UMB DOS CULTOS AFRO BRAS    30071810 000017
10231987175000168916200163100    000020843                    000208430000000000000109                     I0220843     30081800000000035003410000017N090518104700000000000103008180000000000000000000000000000000000000000100064576469720ANA LUCIA VENANCIO                      RUA GRUPIARA                            IPIRANGA    26293426NOVA IGUACU    RJUNIAO UMB DOS CULTOS AFRO BRAS    30081810 000018
10231987175000168916200163100    000020484                    000204840000000000000109                     I3420484     30081800000000035003410000017N070518104700000000000103008180000000000000000000000000000000000000000100058183868720ZILDA SIMOES DO NASCIMENTO MAN          RUA IBITINGA N 31 LOTE 9                PARQUE SAO B26167160BELFORD ROXO   RJUNIAO UMB DOS CULTOS AFRO BRAS    30081810 000019
10231987175000168916200163100    000020393                    000203930000000000000109                     I3420393     30081800000000035003410000017N070518104700000000000103008180000000000000000000000000000000000000000100005878475731CLEITOM RODRIGUES DE OLIVEIRA           RUA ARARI, 621 BLOCO 38 APT 304         BANGU - RJ  21875260RIO DE JANEIRO RJUNIAO UMB DOS CULTOS AFRO BRAS    30081810 000020
10231987175000168916200163100    000020376                    000203760000000000000109                     I0220376     30081800000000035003410000017N070518104700000000000103008180000000000000000000000000000000000000000100016685778792PAMELA TAMIRIS DA SILVA CORDEI          RUA DO OURO, 14                         INHOAIBA - R23064140RIO DE JANEIRO RJUNIAO UMB DOS CULTOS AFRO BRAS    30081810 000021
10231987175000168916200163100    000020367                    000203670000000000000109                     I0220367     30081800000000035003410000017N070518104700000000000103008180000000000000000000000000000000000000000100007682577789CLAUDIA CRISTINA CARVALHO AREA          RUA ALFAZEMA, 91 CASA 1                 PADRE MIGUEL21720360RIO DE JANEIRO RJUNIAO UMB DOS CULTOS AFRO BRAS    30081810 000022
10231987175000168916200163100    000020319                    000203190000000000000109                     I0220319     30081800000000035003410000017N070518104700000000000103008180000000000000000000000000000000000000000100060894628704TERESINHA DE JESUS BIL RAMOS T          RUA GENERAL MIGUEL FERREIRA             TAQUARA     22770590RIO DE JANEIRO RJUNIAO UMB DOS CULTOS AFRO BRAS    30081810 000023
10231987175000168916200163100    000020198                    000201980000000000000109                     I0220198     30081800000000035003410000017N070518104700000000000103008180000000000000000000000000000000000000000100051562430700EMILIA SANTANA MORAIS                   RUA JORNALISTA MOACIR PADILHA           CENTRO      24020350NITEROI        RJUNIAO UMB DOS CULTOS AFRO BRAS    30081810 000024
10231987175000168916200163100    000020145                    000201450000000000000109                     I3420145     30081800000000035003410000017N070518104700000000000103008180000000000000000000000000000000000000000100011981552723DIEGO DE SIQUEIRA VIEIRA                RUA ACU                                 REALENGO    21765640RIO DE JANEIRO RJUNIAO UMB DOS CULTOS AFRO BRAS    30081810 000025
10231987175000168916200163100    000020104                    000201040000000000000109                     I3420104     30081800000000035003410000017N070518104700000000000103008180000000000000000000000000000000000000000100005776594723WALACE RODRIGUES                        ESTRADA: DOS TEIXEIRAS                  TAQUARA     22723205RIO DE JANEIRO RJUNIAO UMB DOS CULTOS AFRO BRAS    30081810 000026
10231987175000168916200163100    000019988                    000199880000000000000109                     I0219988     30081800000000035003410000017N070518104700000000000103008180000000000000000000000000000000000000000100034415688772JORGE FERNANDES BEZERRA                 RUA: LEOCADIA                           REALENGO    21770190RIO DE JANEIRO RJUNIAO UMB DOS CULTOS AFRO BRAS    30081810 000027
10231987175000168916200163100    000019945                    000199450000000000000109                     I0219945     30081800000000035003410000017N070518104700000000000103008180000000000000000000000000000000000000000100002381411798MARIA RISONETE DE OLIVEIRA SOA          ESTRADA DA COIVARA, 224                 VILA MARIA H25251090DUQUE DE CAXIASRJUNIAO UMB DOS CULTOS AFRO BRAS    30081810 000028
10231987175000168916200163100    000019918                    000199180000000000000109                     I0219918     30081800000000035003410000017N070518104700000000000103008180000000000000000000000000000000000000000200000000010260MARA LUCIA CANDIDO RAMOS                RUA NOSSA SENHORA DA PENHA, CASA 7 B    MANGUEIRAL -21755140RIO DE JANEIRO RJUNIAO UMB DOS CULTOS AFRO BRAS    30081810 000029
10231987175000168916200163100    000019890                    000198900000000000000109                     I0219890     30081800000000035003410000017N070518104700000000000103008180000000000000000000000000000000000000000100004462221788ALEXANDRO JULIO DE SOUZA                RUA CORURIPE, 410                       MARECHAL HER21555490RIO DE JANEIRO RJUNIAO UMB DOS CULTOS AFRO BRAS    30081810 000030
10231987175000168916200163100    000019873                    000198730000000000000109                     I0219873     30081800000000035003410000017N070518104700000000000103008180000000000000000000000000000000000000000100005183653798CLAUDIA DE OLIVEIRA ROCHA SABI          RUA ISAAC ZAIDMANN                      COSTA BARROS21526090RIO DE JANEIRO RJUNIAO UMB DOS CULTOS AFRO BRAS    30081810 000031
10231987175000168916200163100    000019660                    000196600000000000000109                     I3419660     30081800000000035003410000017N070518104700000000000103008180000000000000000000000000000000000000000100088677079734MARIA APARECIDA MORAIS DOS SAN          RUA OLAVO GAMA, TRAVESSA F - PROJETADA BGUARATIBA - 23040400SEROPEDICA     RJUNIAO UMB DOS CULTOS AFRO BRAS    30081810 000032
10231987175000168916200163100    000019577                    000195770000000000000109                     I0219577     30081800000000035003410000017N070518104700000000000103008180000000000000000000000000000000000000000100071741798787JAILTON DA SILVA VIEIRA                 RUA: DA GAVEA                           VILA LEOPOLD25060300DUQUE DE CAXIASRJUNIAO UMB DOS CULTOS AFRO BRAS    30081810 000033
10231987175000168916200163100    000019412                    000194120000000000000109                     I0219412     30081800000000035003410000017N070518104700000000000103008180000000000000000000000000000000000000000100087969998704ROBERTO LUIZ MEDEIROS                   RUA OLIMPIO, LOTE 35 QUADRA 29          HELIOPOLIS  26125215BELFORD ROXO   RJUNIAO UMB DOS CULTOS AFRO BRAS    30081810 000034
10231987175000168916200163100    000019323                    000193230000000000000109                     I0219323     30081800000000040003410000017N070518104700000000000103008180000000000000000000000000000000000000000100087292971768ANTONIA HERMINIA DA SILVA               RUA PROFESSOR SILVIO ELIAS              VARGEM GRAND22783235RIO DE JANEIRO RJUNIAO UMB DOS CULTOS AFRO BRAS    30081810 000035
10231987175000168916200163100    000019204                    000192040000000000000109                     I0219204     30071800000000035003410000017N070518104700000000000103007180000000000000000000000000000000000000000100013118884703WESLEI FERREIRA DE CARVALHO             ESTRADA: DO GUERENGUE                   TAQUARA     22713004RIO DE JANEIRO RJUNIAO UMB DOS CULTOS AFRO BRAS    30071810 000036
10231987175000168916200163100    000019112                    000191120000000000000109                     I3419112     30071800000000035003410000017N070518104700000000000103007180000000000000000000000000000000000000000100009416663794IGOR DO NASCIMENTO RODRIGUES            RUA FIGUEIREDO ROCHA                    VIGARIO GERA21240660RIO DE JANEIRO RJUNIAO UMB DOS CULTOS AFRO BRAS    30071810 000037
10231987175000168916200163100    000018917                    000189170000000000000109                     I3418917     30081800000000035003410000017N070518104700000000000103008180000000000000000000000000000000000000000100005474832796VANESSA MANTUANO FERNANDES              RUA DOM JOAO VI LOTE 4 QUADRA 118 A PA 2JARDIM NOSSA23097722RIO DE JANEIRO RJUNIAO UMB DOS CULTOS AFRO BRAS    30081810 000038
10231987175000168916200163100    000018825                    000188250000000000000109                     I3418825     30071800000000035003410000017N070518104700000000000103007180000000000000000000000000000000000000000100089770250791JUREMA DA MACENA RAYMUNDO               RUA JORGE DA SILVA N 17 KM 41           JARDINS - SE23890100RIO DE JANEIRO RJUNIAO UMB DOS CULTOS AFRO BRAS    30071810 000039
10231987175000168916200163100    000018797                    000187970000000000000109                     I0218797     30071800000000035003410000017N070518104700000000000103007180000000000000000000000000000000000000000100007682577789CLAUDIA CRISTINA CARVALHO AREA          RUA ALFAZEMA, 91 CASA 1                 PADRE MIGUEL21720360RIO DE JANEIRO RJUNIAO UMB DOS CULTOS AFRO BRAS    30071810 000040
10231987175000168916200163100    000018792                    000187920000000000000109                     I3418792     30071800000000035003410000017N070518104700000000000103007180000000000000000000000000000000000000000100003360087755ELIENE GONCALVES JACINTO                RUA ALMIRANTE CROCHEME LOTE 6 QUADRA 2  PARADA MORAB25010695DUQUE DE CAXIASRJUNIAO UMB DOS CULTOS AFRO BRAS    30071810 000041
10231987175000168916200163100    000018628                    000186280000000000000109                     I0218628     30071800000000035003410000017N070518104700000000000103007180000000000000000000000000000000000000000100051562430700EMILIA SANTANA MORAIS                   RUA JORNALISTA MOACIR PADILHA           CENTRO      24020350NITEROI        RJUNIAO UMB DOS CULTOS AFRO BRAS    30071810 000042
10231987175000168916200163100    000018418                    000184180000000000000109                     I0218418     30071800000000035003410000017N070518104700000000000103007180000000000000000000000000000000000000000100034415688772JORGE FERNANDES BEZERRA                 RUA: LEOCADIA                           REALENGO    21770190RIO DE JANEIRO RJUNIAO UMB DOS CULTOS AFRO BRAS    30071810 000043
10231987175000168916200163100    000018375                    000183750000000000000109                     I0218375     30071800000000035003410000017N070518104700000000000103007180000000000000000000000000000000000000000100002381411798MARIA RISONETE DE OLIVEIRA SOA          ESTRADA DA COIVARA, 224                 VILA MARIA H25251090DUQUE DE CAXIASRJUNIAO UMB DOS CULTOS AFRO BRAS    30071810 000044
10231987175000168916200163100    000018303                    000183030000000000000109                     I0218303     30071800000000035003410000017N070518104700000000000103007180000000000000000000000000000000000000000100005183653798CLAUDIA DE OLIVEIRA ROCHA SABI          RUA ISAAC ZAIDMANN                      COSTA BARROS21526090RIO DE JANEIRO RJUNIAO UMB DOS CULTOS AFRO BRAS    30071810 000045
10231987175000168916200163100    000018091                    000180910000000000000109                     I0218091     30071800000000035003410000017N070518104700000000000103007180000000000000000000000000000000000000000100060407875700KATIA DE AZEVEDO FURTADO                RUA SOUZA PITANGA                       THOMAS COELH21381230RIO DE JANEIRO RJUNIAO UMB DOS CULTOS AFRO BRAS    30071810 000046
10231987175000168916200163100    000018007                    000180070000000000000109                     I0218007     30071800000000035003410000017N070518104700000000000103007180000000000000000000000000000000000000000100071741798787JAILTON DA SILVA VIEIRA                 RUA: DA GAVEA                           VILA LEOPOLD25060300DUQUE DE CAXIASRJUNIAO UMB DOS CULTOS AFRO BRAS    30071810 000047
10231987175000168916200163100    000017753                    000177530000000000000109                     I0217753     30071800000000040003410000017N070518104700000000000103007180000000000000000000000000000000000000000100087292971768ANTONIA HERMINIA DA SILVA               RUA PROFESSOR SILVIO ELIAS              VARGEM GRAND22783235RIO DE JANEIRO RJUNIAO UMB DOS CULTOS AFRO BRAS    30071810 000048
9                                                                                                                                                                                                                                                                                                                                                                                                         000049
