01REMESSA01COBRANCA       817800093673        União Umb dos Cultos Afro Bra341BANCO ITAU SA  220319                                                                                                                                                                                                                                                                                                      000001
10231987175000168817800093673    000044872                    000448720000000000000109                     I0144872     03051900000000080003410000017N220319104700000000000100305190000000000000000000000000000000000000000100055570720715ATILA CARDOSO DE LIMA                   RUA EUGENIO TAVARESN 270,               CENTRO      26550007MESQUITA       RJUNIAO UMB DOS CULTOS AFRO BRAS    03051910 000002
10231987175000168817800093673    000044871                    000448710000000000000109                     I0144871     03041900000000175003410000017N220319104700000000000100304190000000000000000000000000000000000000000100002402869798LEONARDO BEZERRA XAVIER                 RUA GODOFREDO SILVAN 121, FUNDOS        PENHA CIRCUL21221020RIO DE JANEIRO RJUNIAO UMB DOS CULTOS AFRO BRAS    03041910 000003
10231987175000168817800093673    000044870                    000448700000000000000109                     I0144870     20041900000000350003410000017N220319104700000000000102004190000000000000000000000000000000000000000100064250121704ANGELA MARIA BRAZ MANHAES               RUA JUTAIN 0,  LOTE 20 QUADRA 151       PERIQUITO   25025290DUQUE DE CAXIASRJUNIAO UMB DOS CULTOS AFRO BRAS    20041910 000004
10231987175000168817800093673    000044869                    000448690000000000000109                     I0144869     29031900000000350003410000017N220319104700000000000102903190000000000000000000000000000000000000000100004244337709WANDERSON SANTOS DA SILVA               RUA ARMANDO SANTOSN 113, CASA 2         RECREIO DOS 22790330RIO DE JANEIRO RJUNIAO UMB DOS CULTOS AFRO BRAS    29031910 000005
10231987175000168817800093673    000044868                    000448680000000000000109                     I0144868     30031900000000120003410000017N220319104700000000000103003190000000000000000000000000000000000000000100066220254791ROSANGELA MARTINS DA SILVA              RUA ANTONIO VARGASN 156, CASA 27        PIEDADE     20751360RIO DE JANEIRO RJUNIAO UMB DOS CULTOS AFRO BRAS    30031910 000006
10231987175000168817800093673    000044867                    000448670000000000000109                     I0144867     29031900000000040003410000017N220319104700000000000102903190000000000000000000000000000000000000000100007446571721ANDREA GUEDES PINHEIRO GOMES            RUA ADOLFO BERGAMINI N 155, CASA 1      CENTRO      26341490NILOPOLIS      RJUNIAO UMB DOS CULTOS AFRO BRAS    29031910 000007
10231987175000168817800093673    000044866                    000448660000000000000109                     I0144866     29031900000000120003410000017N210319104700000000000102903190000000000000000000000000000000000000000100001248895738JUSSARA SILVEIRA LOPES DA FONS          RUA SAQUAREMAN 1442, CASA 3             SANTO ALEIXO25914000MAGE           RJUNIAO UMB DOS CULTOS AFRO BRAS    29031910 000008
10231987175000168817800093673    000039280                    000392800000000000000109                     I0239280     30031900000000040003410000017N261218104700000000000103003190000000000000000000000000000000000000000100092802737791CARMEN DEA NOGUEIRA DIAS                AVENIDA MACHADO DE ASSISN 0, LOTE 17 QUAVILA IBIRAPI23811820ITAGUAI        RJUNIAO UMB DOS CULTOS AFRO BRAS    30031910 000009
10231987175000168817800093673    000038655                    000386550000000000000109                     I0238655     30031900000000040003410000017N261218104700000000000103003190000000000000000000000000000000000000000100096329610720ELVIRA FLAUZINA CELSO                   RUA: DA CONCEICAON 112,                 SANTA ROSA -27155000BARRA DO PIRAI RJUNIAO UMB DOS CULTOS AFRO BRAS    30031910 000010
10231987175000168817800093673    000038322                    000383220000000000000109                     I0238322     30031900000000040003410000017N261218104700000000000103003190000000000000000000000000000000000000000100033315574715MARIA DE LOURDES CARVALHO               RUA DOUTOR LUCION 63,                   VILA TIRADEN25525240SAO JOAO DE MERRJUNIAO UMB DOS CULTOS AFRO BRAS    30031910 000011
10231987175000168817800093673    000037361                    000373610000000000000109                     I0237361     28021900000000040003410000017N261218104700000000000102802190000000000000000000000000000000000000000100092802737791CARMEN DEA NOGUEIRA DIAS                AVENIDA MACHADO DE ASSISN 0, LOTE 17 QUAVILA IBIRAPI23811820ITAGUAI        RJUNIAO UMB DOS CULTOS AFRO BRAS    28021910 000012
10231987175000168817800093673    000036737                    000367370000000000000109                     I0236737     28021900000000040003410000017N261218104700000000000102802190000000000000000000000000000000000000000100096329610720ELVIRA FLAUZINA CELSO                   RUA: DA CONCEICAON 112,                 SANTA ROSA -27155000BARRA DO PIRAI RJUNIAO UMB DOS CULTOS AFRO BRAS    28021910 000013
10231987175000168817800093673    000036035                    000360350000000000000109                     I0236035     28021900000000040003410000017N261218104700000000000102802190000000000000000000000000000000000000000100007446571721ANDREA GUEDES PINHEIRO GOMES            RUA ADOLFO BERGAMINI N 155, CASA 1      CENTRO      26341490NILOPOLIS      RJUNIAO UMB DOS CULTOS AFRO BRAS    28021910 000014
10231987175000168817800093673    000035603                    000356030000000000000109                     I0235603     28021900000000045003410000017N261218104700000000000102802190000000000000000000000000000000000000000100055570720715ATILA CARDOSO DE LIMA                   RUA EUGENIO TAVARESN 270,               CENTRO      26550007MESQUITA       RJUNIAO UMB DOS CULTOS AFRO BRAS    28021910 000015
9                                                                                                                                                                                                                                                                                                                                                                                                         000016
