01REMESSA01COBRANCA       817800093673        União Umb dos Cultos Afro Bra341BANCO ITAU SA  290818                                                                                                                                                                                                                                                                                                      000001
10231987175000168817800093673    000028541                    000285410000000000000109                     I0228541     30111800000000035003410000017N230818104700000000000103011180000000000000000000000000000000000000000100010648504727ALINE DA SILVA RAMOS                    RUA GENERAL LOUREIRO                    BOACU       24467400SAO GONCALO    RJUNIAO UMB DOS CULTOS AFRO BRAS    30111810 000002
10231987175000168817800093673    000028540                    000285400000000000000109                     I0228540     30101800000000035003410000017N230818104700000000000103010180000000000000000000000000000000000000000100010648504727ALINE DA SILVA RAMOS                    RUA GENERAL LOUREIRO                    BOACU       24467400SAO GONCALO    RJUNIAO UMB DOS CULTOS AFRO BRAS    30101810 000003
10231987175000168817800093673    000028539                    000285390000000000000109                     I0228539     30091800000000035003410000017N230818104700000000000103009180000000000000000000000000000000000000000100010648504727ALINE DA SILVA RAMOS                    RUA GENERAL LOUREIRO                    BOACU       24467400SAO GONCALO    RJUNIAO UMB DOS CULTOS AFRO BRAS    30091810 000004
10231987175000168817800093673    000028096                    000280960000000000000109                     I0228096     30111800000000035003410000017N200818104700000000000103011180000000000000000000000000000000000000000100064576469720ANA LUCIA VENANCIO                      RUA GRUPIARA                            IPIRANGA    26293426NOVA IGUACU    RJUNIAO UMB DOS CULTOS AFRO BRAS    30111810 000005
10231987175000168817800093673    000028074                    000280740000000000000109                     I0228074     30111800000000035003410000017N200818104700000000000103011180000000000000000000000000000000000000000100016685778792PAMELA TAMIRIS DA SILVA CORDEI          RUA DO OURO, 14                         INHOAIBA - R23064140RIO DE JANEIRO RJUNIAO UMB DOS CULTOS AFRO BRAS    30111810 000006
10231987175000168817800093673    000027712                    000277120000000000000109                     I0227712     30111800000000035003410000017N200818104700000000000103011180000000000000000000000000000000000000000100002381411798MARIA RISONETE DE OLIVEIRA SOA          ESTRADA DA COIVARA, 224                 VILA MARIA H25251090DUQUE DE CAXIASRJUNIAO UMB DOS CULTOS AFRO BRAS    30111810 000007
10231987175000168817800093673    000027709                    000277090000000000000109                     I0227709     30111800000000035003410000017N200818104700000000000103011180000000000000000000000000000000000000000100069725209753YRACE MOEMA GRAULT SCHNOOR              RUA ATILIO PIFIER                       SEPETIBA    23535010RIO DE JANEIRO RJUNIAO UMB DOS CULTOS AFRO BRAS    30111810 000008
10231987175000168817800093673    000027645                    000276450000000000000109                     I0227645     30111800000000035003410000017N200818104700000000000103011180000000000000000000000000000000000000000100005183653798CLAUDIA DE OLIVEIRA ROCHA SABI          RUA ISAAC ZAIDMANN                      COSTA BARROS21526090RIO DE JANEIRO RJUNIAO UMB DOS CULTOS AFRO BRAS    30111810 000009
10231987175000168817800093673    000027381                    000273810000000000000109                     I0227381     30111800000000035003410000017N200818104700000000000103011180000000000000000000000000000000000000000100071741798787JAILTON DA SILVA VIEIRA                 RUA: DA GAVEA                           VILA LEOPOLD25060300DUQUE DE CAXIASRJUNIAO UMB DOS CULTOS AFRO BRAS    30111810 000010
10231987175000168817800093673    000027219                    000272190000000000000109                     I0227219     30111800000000035003410000017N200818104700000000000103011180000000000000000000000000000000000000000100087969998704ROBERTO LUIZ MEDEIROS                   RUA OLIMPIO, LOTE 35 QUADRA 29          HELIOPOLIS  26125215BELFORD ROXO   RJUNIAO UMB DOS CULTOS AFRO BRAS    30111810 000011
10231987175000168817800093673    000027014                    000270140000000000000109                     I3427014     30091800000000035003410000017N200818104700000000000103009180000000000000000000000000000000000000000100062788396791SERGIO LUCAS DE SOUZA E DINARA          TRAVESSA CARLOS XAVIER                  MADUREIRA   21310010RIO DE JANEIRO RJUNIAO UMB DOS CULTOS AFRO BRAS    30091810 000012
10231987175000168817800093673    000026676                    000266760000000000000109                     I0226676     30091800000000035003410000017N200818104700000000000103009180000000000000000000000000000000000000000100064576469720ANA LUCIA VENANCIO                      RUA GRUPIARA                            IPIRANGA    26293426NOVA IGUACU    RJUNIAO UMB DOS CULTOS AFRO BRAS    30091810 000013
10231987175000168817800093673    000026654                    000266540000000000000109                     I0226654     30091800000000035003410000017N200818104700000000000103009180000000000000000000000000000000000000000100016685778792PAMELA TAMIRIS DA SILVA CORDEI          RUA DO OURO, 14                         INHOAIBA - R23064140RIO DE JANEIRO RJUNIAO UMB DOS CULTOS AFRO BRAS    30091810 000014
10231987175000168817800093673    000026294                    000262940000000000000109                     I0226294     30091800000000035003410000017N200818104700000000000103009180000000000000000000000000000000000000000100002381411798MARIA RISONETE DE OLIVEIRA SOA          ESTRADA DA COIVARA, 224                 VILA MARIA H25251090DUQUE DE CAXIASRJUNIAO UMB DOS CULTOS AFRO BRAS    30091810 000015
10231987175000168817800093673    000026291                    000262910000000000000109                     I0226291     30091800000000035003410000017N200818104700000000000103009180000000000000000000000000000000000000000100069725209753YRACE MOEMA GRAULT SCHNOOR              RUA ATILIO PIFIER                       SEPETIBA    23535010RIO DE JANEIRO RJUNIAO UMB DOS CULTOS AFRO BRAS    30091810 000016
10231987175000168817800093673    000026227                    000262270000000000000109                     I0226227     30091800000000035003410000017N200818104700000000000103009180000000000000000000000000000000000000000100005183653798CLAUDIA DE OLIVEIRA ROCHA SABI          RUA ISAAC ZAIDMANN                      COSTA BARROS21526090RIO DE JANEIRO RJUNIAO UMB DOS CULTOS AFRO BRAS    30091810 000017
10231987175000168817800093673    000025965                    000259650000000000000109                     I0225965     30091800000000035003410000017N200818104700000000000103009180000000000000000000000000000000000000000100071741798787JAILTON DA SILVA VIEIRA                 RUA: DA GAVEA                           VILA LEOPOLD25060300DUQUE DE CAXIASRJUNIAO UMB DOS CULTOS AFRO BRAS    30091810 000018
10231987175000168817800093673    000025804                    000258040000000000000109                     I0225804     30091800000000035003410000017N200818104700000000000103009180000000000000000000000000000000000000000100087969998704ROBERTO LUIZ MEDEIROS                   RUA OLIMPIO, LOTE 35 QUADRA 29          HELIOPOLIS  26125215BELFORD ROXO   RJUNIAO UMB DOS CULTOS AFRO BRAS    30091810 000019
10231987175000168817800093673    000025259                    000252590000000000000109                     I0225259     30101800000000035003410000017N200818104700000000000103010180000000000000000000000000000000000000000100064576469720ANA LUCIA VENANCIO                      RUA GRUPIARA                            IPIRANGA    26293426NOVA IGUACU    RJUNIAO UMB DOS CULTOS AFRO BRAS    30101810 000020
10231987175000168817800093673    000025237                    000252370000000000000109                     I0225237     30101800000000035003410000017N200818104700000000000103010180000000000000000000000000000000000000000100016685778792PAMELA TAMIRIS DA SILVA CORDEI          RUA DO OURO, 14                         INHOAIBA - R23064140RIO DE JANEIRO RJUNIAO UMB DOS CULTOS AFRO BRAS    30101810 000021
10231987175000168817800093673    000024875                    000248750000000000000109                     I0224875     30101800000000035003410000017N200818104700000000000103010180000000000000000000000000000000000000000100002381411798MARIA RISONETE DE OLIVEIRA SOA          ESTRADA DA COIVARA, 224                 VILA MARIA H25251090DUQUE DE CAXIASRJUNIAO UMB DOS CULTOS AFRO BRAS    30101810 000022
10231987175000168817800093673    000024872                    000248720000000000000109                     I0224872     30101800000000035003410000017N200818104700000000000103010180000000000000000000000000000000000000000100069725209753YRACE MOEMA GRAULT SCHNOOR              RUA ATILIO PIFIER                       SEPETIBA    23535010RIO DE JANEIRO RJUNIAO UMB DOS CULTOS AFRO BRAS    30101810 000023
10231987175000168817800093673    000024808                    000248080000000000000109                     I0224808     30101800000000035003410000017N200818104700000000000103010180000000000000000000000000000000000000000100005183653798CLAUDIA DE OLIVEIRA ROCHA SABI          RUA ISAAC ZAIDMANN                      COSTA BARROS21526090RIO DE JANEIRO RJUNIAO UMB DOS CULTOS AFRO BRAS    30101810 000024
10231987175000168817800093673    000024545                    000245450000000000000109                     I0224545     30101800000000035003410000017N200818104700000000000103010180000000000000000000000000000000000000000100071741798787JAILTON DA SILVA VIEIRA                 RUA: DA GAVEA                           VILA LEOPOLD25060300DUQUE DE CAXIASRJUNIAO UMB DOS CULTOS AFRO BRAS    30101810 000025
10231987175000168817800093673    000024385                    000243850000000000000109                     I0224385     30101800000000035003410000017N200818104700000000000103010180000000000000000000000000000000000000000100087969998704ROBERTO LUIZ MEDEIROS                   RUA OLIMPIO, LOTE 35 QUADRA 29          HELIOPOLIS  26125215BELFORD ROXO   RJUNIAO UMB DOS CULTOS AFRO BRAS    30101810 000026
10231987175000168817800093673    000021369                    000213690000000000000109                     I0221369     15081800000000350003410000017N060818104700000000000101508180000000000000000000000000000000000000000100069725209753YRACE MOEMA GRAULT SCHNOOR              RUA ATILIO PIFIER                       SEPETIBA    23535010RIO DE JANEIRO RJUNIAO UMB DOS CULTOS AFRO BRAS    15081810 000027
10231987175000168817800093673    000021360                    000213600000000000000109                     I3421360     30081800000000040003410000017N010818104700000000000103008180000000000000000000000000000000000000000100092802737791CARMEN DEA NOGUEIRA DIAS                AVENIDA: MACHADO DE ASSIS               VILA IBIRAPI23811820ITAGUAI        RJUNIAO UMB DOS CULTOS AFRO BRAS    30081810 000028
10231987175000168817800093673    000021164                    000211640000000000000109                     I3421164     30081800000000035003410000017N070618104700000000000103008180000000000000000000000000000000000000000100062788396791SERGIO LUCAS DE SOUZA E DINARA          TRAVESSA CARLOS XAVIER                  MADUREIRA   21310010RIO DE JANEIRO RJUNIAO UMB DOS CULTOS AFRO BRAS    30081810 000029
9                                                                                                                                                                                                                                                                                                                                                                                                         000030
