01REMESSA01COBRANCA       817800093673        União Umb dos Cultos Afro Bra341BANCO ITAU SA  221118                                                                                                                                                                                                                                                                                                      000001
10231987175000168817800093673    000033466                    000334660000000000000109                     I0133466     30111800000000280003410000017N221118104700000000000103011180000000000000000000000000000000000000000100000000000000GUILHERME SANTOS LINHARES               RUA ROUGET LISLE                        PANTANAL    25040360RIO DE JANEIRO RJUNIAO UMB DOS CULTOS AFRO BRAS    30111810 000002
9                                                                                                                                                                                                                                                                                                                                                                                                         000003
