01REMESSA01COBRANCA       916200163100        União Umb dos Cultos Afro Bra341BANCO ITAU SA  191218                                                                                                                                                                                                                                                                                                      000001
10231987175000168916200163100    000033625                    000336250000000000000109                     I0133625     31121800000000350003410000017N191218104700000000000103112180000000000000000000000000000000000000000100001050327780MARIA LUCIA DE FATIMA FERREIRA          RUA BUDAPESTE                           BANCARIOS - 21911300RIO DE JANEIRO RJUNIAO UMB DOS CULTOS AFRO BRAS    31121810 000002
10231987175000168916200163100    000033624                    000336240000000000000109                     I0233624     31121800000000350003410000017N191218104700000000000103112180000000000000000000000000000000000000000100001050327780MARIA LUCIA DE FATIMA FERREIRA          RUA BUDAPESTE                           BANCARIOS - 21911300RIO DE JANEIRO RJUNIAO UMB DOS CULTOS AFRO BRAS    31121810 000003
10231987175000168916200163100    000033623                    000336230000000000000109                     I0133623     07011900000000350003410000017N191218104700000000000100701190000000000000000000000000000000000000000100091323762787MARIA ISABEL DE ALBUQUERQUE PI          RUA JUIZ JOSE PELINE                    VALVERDE    26290639NOVA IGUACU    RJUNIAO UMB DOS CULTOS AFRO BRAS    07011910 000004
10231987175000168916200163100    000033622                    000336220000000000000109                     I0133622     15011900000000350003410000017N191218104700000000000101501190000000000000000000000000000000000000000100001649750714CRISTIANE JOSE DA SILVA                 AVENIDA CALOMBE                         PARQUE ELDOR25231020DUQUE DE CAXIASRJUNIAO UMB DOS CULTOS AFRO BRAS    15011910 000005
10231987175000168916200163100    000033621                    000336210000000000000109                     I0133621     31121800000000350003410000017N191218104700000000000103112180000000000000000000000000000000000000000100064075923720MARIA EDITE MERENCIANA                  AVENIDA PAPA JOAO XXIII                 RIO VARZEA  24812010ITABORAI       RJUNIAO UMB DOS CULTOS AFRO BRAS    31121810 000006
10231987175000168916200163100    000033620                    000336200000000000000109                     I0133620     04011900000000035003410000017N191218104700000000000100401190000000000000000000000000000000000000000100001649750714CRISTIANE JOSE DA SILVA                 AVENIDA CALOMBE                         PARQUE ELDOR25231020DUQUE DE CAXIASRJUNIAO UMB DOS CULTOS AFRO BRAS    04011910 000007
10231987175000168916200163100    000033619                    000336190000000000000109                     I0133619     31121800000000350003410000017N191218104700000000000103112180000000000000000000000000000000000000000100064250121704ANGELA MARIA BRAZ MANHAES               RUA JUTAI                               PERIQUITO   25025290DUQUE DE CAXIASRJUNIAO UMB DOS CULTOS AFRO BRAS    31121810 000008
10231987175000168916200163100    000033618                    000336180000000000000109                     I0133618     15011900000000350003410000017N191218104700000000000101501190000000000000000000000000000000000000000100049660632720MARINETE SANTOS DE OLIVEIRA             AVENIDA SANTA CRUZ                      SENADOR CAMA23010003RIO DE JANEIRO RJUNIAO UMB DOS CULTOS AFRO BRAS    15011910 000009
10231987175000168916200163100    000033616                    000336160000000000000109                     I0133616     04011900000000035003410000017N191218104700000000000100401190000000000000000000000000000000000000000100049660632720MARINETE SANTOS DE OLIVEIRA             AVENIDA SANTA CRUZ                      SENADOR CAMA23010003RIO DE JANEIRO RJUNIAO UMB DOS CULTOS AFRO BRAS    04011910 000010
10231987175000168916200163100    000033615                    000336150000000000000109                     I0133615     15011900000000315003410000017N191218104700000000000101501190000000000000000000000000000000000000000100058756280734SANDRA REGINA DA CONCEICAO              RUA BUENOS AIRES                        JARDIM PERNA26275390NOVA IGUACU    RJUNIAO UMB DOS CULTOS AFRO BRAS    15011910 000011
10231987175000168916200163100    000033614                    000336140000000000000109                     I0133614     31121800000000035003410000017N191218104700000000000103112180000000000000000000000000000000000000000100046858229787IOLANDA CUSTODIA DA ROSA                RUA CLODOMIR LUCAS DOS REIS             JACAREPAGUA 22713562RIO DE JANEIRO RJUNIAO UMB DOS CULTOS AFRO BRAS    31121810 000012
10231987175000168916200163100    000033613                    000336130000000000000109                     I0133613     07011900000000385003410000017N191218104700000000000100701190000000000000000000000000000000000000000100008267557717MARCIA REGINA FELIPE DE SOUZA           ESTRADA DO MENDANHA                     MENDANHA - C23087283RIO DE JANEIRO RJUNIAO UMB DOS CULTOS AFRO BRAS    07011910 000013
10231987175000168916200163100    000033612                    000336120000000000000109                     I0133612     24121800000000100003410000017N191218104700000000000102412180000000000000000000000000000000000000000100096143967768MARIA CANDIDA BRANDAO ALVES             RUA MARLICE EMANUEL                     JARDIM ALVOR26265230NOVA IGUACU    RJUNIAO UMB DOS CULTOS AFRO BRAS    24121810 000014
10231987175000168916200163100    000033599                    000335990000000000000109                     I0233599     31121800000000035003410000017N181218104700000000000103112180000000000000000000000000000000000000000100049660632720MARINETE SANTOS DE OLIVEIRA             AVENIDA SANTA CRUZ                      SENADOR CAMA23010003RIO DE JANEIRO RJUNIAO UMB DOS CULTOS AFRO BRAS    31121810 000015
9                                                                                                                                                                                                                                                                                                                                                                                                         000016
