01REMESSA01COBRANCA       817800093673        União Umb dos Cultos Afro Bra341BANCO ITAU SA  300419                                                                                                                                                                                                                                                                                                      000001
10231987175000168817800093673    000045190                    000451900000000000000109                     I0145190     28061900000000040003410000017N300419105700000000000102806190000000000000000000000000000000000000000100013000533729IGOR DA SILVA NOGUEROL DOS SAN          AVENIDA ALDO BOTELHON 328,              CAMPO GRANDE23055630RIO DE JANEIRO RJUNIAO UMB DOS CULTOS AFRO BRAS    28061915 000002
10231987175000168817800093673    000045189                    000451890000000000000109                     I0145189     31051900000000040003410000017N300419105700000000000103105190000000000000000000000000000000000000000100013000533729IGOR DA SILVA NOGUEROL DOS SAN          AVENIDA ALDO BOTELHON 328,              CAMPO GRANDE23055630RIO DE JANEIRO RJUNIAO UMB DOS CULTOS AFRO BRAS    31051915 000003
10231987175000168817800093673    000045188                    000451880000000000000109                     I0145188     15051900000000200003410000017N300419105700000000000101505190000000000000000000000000000000000000000100008664578796ATILA LARRICE GALDINO                   RUA MINERVINA NUNES DA COSTAN 238, FUNDOPARQUE ANCHI21635350RIO DE JANEIRO RJUNIAO UMB DOS CULTOS AFRO BRAS    15051915 000004
10231987175000168817800093673    000045187                    000451870000000000000109                     I0245187     15051900000002000003410000017N300419105700000000000101505190000000000000000000000000000000000000000100008664578796ATILA LARRICE GALDINO                   RUA MINERVINA NUNES DA COSTAN 238, FUNDOPARQUE ANCHI21635350RIO DE JANEIRO RJUNIAO UMB DOS CULTOS AFRO BRAS    15051915 000005
10231987175000168817800093673    000045186                    000451860000000000000109                     I0145186     10051900000000040003410000017N300419105700000000000101005190000000000000000000000000000000000000000100046582908715WANDERLEI ABRANTES TEIXEIRA             RUA LOURDES BARBOSA PASSASN 26, QUADRA 2BRISA MAR   23826360ITAGUAI        RJUNIAO UMB DOS CULTOS AFRO BRAS    10051915 000006
10231987175000168817800093673    000045185                    000451850000000000000109                     I0145185     30061900000000040003410000017N300419105700000000000103006190000000000000000000000000000000000000000100011130957764MARCUS ULYSSES DE FIGUEIREDO P          RUA SAO JORGEN 764,                     CAMPO ALEGRE26292228NOVA IGUACU    RJUNIAO UMB DOS CULTOS AFRO BRAS    30061915 000007
10231987175000168817800093673    000045184                    000451840000000000000109                     I0145184     31051900000000040003410000017N300419105700000000000103105190000000000000000000000000000000000000000100011130957764MARCUS ULYSSES DE FIGUEIREDO P          RUA SAO JORGEN 764,                     CAMPO ALEGRE26292228NOVA IGUACU    RJUNIAO UMB DOS CULTOS AFRO BRAS    31051915 000008
10231987175000168817800093673    000045183                    000451830000000000000109                     I0145183     20051900000000040003410000017N300419105700000000000102005190000000000000000000000000000000000000000100092269516753HELENA MARIA DA SILVA                   RUA VINTE E QUATRO DE OUTUBRON 0,  QUADRJARDIM BARRO25267450DUQUE DE CAXIASRJUNIAO UMB DOS CULTOS AFRO BRAS    20051915 000009
10231987175000168817800093673    000045182                    000451820000000000000109                     I0145182     30061900000000040003410000017N300419105700000000000103006190000000000000000000000000000000000000000100054475023734JUPIRACY RODRIGUES DO NASCIMEN          RUA AQUIDABAN 0, LOTE 3 QUADRA 4        CAMPO ALEGRE26292171NOVA IGUACU    RJUNIAO UMB DOS CULTOS AFRO BRAS    30061915 000010
10231987175000168817800093673    000045181                    000451810000000000000109                     I0145181     31051900000000040003410000017N300419105700000000000103105190000000000000000000000000000000000000000100054475023734JUPIRACY RODRIGUES DO NASCIMEN          RUA AQUIDABAN 0, LOTE 3 QUADRA 4        CAMPO ALEGRE26292171NOVA IGUACU    RJUNIAO UMB DOS CULTOS AFRO BRAS    31051915 000011
10231987175000168817800093673    000045180                    000451800000000000000109                     I0145180     30061900000000040003410000017N300419105700000000000103006190000000000000000000000000000000000000000100099644630734KLEBER BERNARDINO                       RUA AQUIDABAN 0, LOTE 4 QUADRA 2        CAMPO ALEGRE26292171NOVA IGUACU    RJUNIAO UMB DOS CULTOS AFRO BRAS    30061915 000012
10231987175000168817800093673    000045179                    000451790000000000000109                     I0145179     31051900000000040003410000017N300419105700000000000103105190000000000000000000000000000000000000000100099644630734KLEBER BERNARDINO                       RUA AQUIDABAN 0, LOTE 4 QUADRA 2        CAMPO ALEGRE26292171NOVA IGUACU    RJUNIAO UMB DOS CULTOS AFRO BRAS    31051915 000013
10231987175000168817800093673    000045178                    000451780000000000000109                     I0145178     30061900000000040003410000017N300419105700000000000103006190000000000000000000000000000000000000000100083011358753PAULO ROBERTO RAMOS DA SILVA            RUA BELAN 30,                           CAMPO ALEGRE26292168NOVA IGUACU    RJUNIAO UMB DOS CULTOS AFRO BRAS    30061915 000014
10231987175000168817800093673    000045177                    000451770000000000000109                     I0145177     31051900000000040003410000017N300419105700000000000103105190000000000000000000000000000000000000000100083011358753PAULO ROBERTO RAMOS DA SILVA            RUA BELAN 30,                           CAMPO ALEGRE26292168NOVA IGUACU    RJUNIAO UMB DOS CULTOS AFRO BRAS    31051915 000015
10231987175000168817800093673    000045176                    000451760000000000000109                     I0145176     30061900000000040003410000017N300419105700000000000103006190000000000000000000000000000000000000000100012921241722WALQUIRIA WAM LUME SOUZA                RUA MARIO BARBOSAN 0,                   CABUCU      26291416NOVA IGUACU    RJUNIAO UMB DOS CULTOS AFRO BRAS    30061915 000016
10231987175000168817800093673    000045175                    000451750000000000000109                     I0145175     31051900000000040003410000017N300419105700000000000103105190000000000000000000000000000000000000000100012921241722WALQUIRIA WAM LUME SOUZA                RUA MARIO BARBOSAN 0,                   CABUCU      26291416NOVA IGUACU    RJUNIAO UMB DOS CULTOS AFRO BRAS    31051915 000017
10231987175000168817800093673    000045174                    000451740000000000000109                     I0145174     30061900000000040003410000017N300419105700000000000103006190000000000000000000000000000000000000000100002299564756SONIA ALVES DE PAULA                    ESTRADA CABUCUN 295,                    CABUCU      26291257NOVA IGUACU    RJUNIAO UMB DOS CULTOS AFRO BRAS    30061915 000018
10231987175000168817800093673    000045173                    000451730000000000000109                     I0145173     31051900000000040003410000017N300419105700000000000103105190000000000000000000000000000000000000000100002299564756SONIA ALVES DE PAULA                    ESTRADA CABUCUN 295,                    CABUCU      26291257NOVA IGUACU    RJUNIAO UMB DOS CULTOS AFRO BRAS    31051915 000019
10231987175000168817800093673    000045172                    000451720000000000000109                     I0145172     30061900000000040003410000017N300419105700000000000103006190000000000000000000000000000000000000000100048024252791ISRAELINA RODRIGUES GABRIEL             RUA MANUEL LUIZ DE ANDRADEN 59,         VALVERDE    26290804NOVA IGUACU    RJUNIAO UMB DOS CULTOS AFRO BRAS    30061915 000020
10231987175000168817800093673    000045171                    000451710000000000000109                     I0145171     31051900000000040003410000017N300419105700000000000103105190000000000000000000000000000000000000000100048024252791ISRAELINA RODRIGUES GABRIEL             RUA MANUEL LUIZ DE ANDRADEN 59,         VALVERDE    26290804NOVA IGUACU    RJUNIAO UMB DOS CULTOS AFRO BRAS    31051915 000021
10231987175000168817800093673    000039141                    000391410000000000000109                     I0239141     30031900000000040003410000017N261218105700000000000103003190000000000000000000000000000000000000000100002621693717JUREMA DE OLIVEIRA RODRIGUES            ESTRADA: INTENDENTE MAGALHAES N 196, APACAMPINHO    21341330RIO DE JANEIRO RJUNIAO UMB DOS CULTOS AFRO BRAS    30031915 000022
10231987175000168817800093673    000039036                    000390360000000000000109                     I0239036     30031900000000040003410000017N261218105700000000000103003190000000000000000000000000000000000000000100001148949739MARIA DAS GRACAS SEBASTIANA DO          RUA PEREIRA PINTO N 91,                 TOMAS COELHO20761350RIO DE JANEIRO RJUNIAO UMB DOS CULTOS AFRO BRAS    30031915 000023
10231987175000168817800093673    000038691                    000386910000000000000109                     I0238691     30031900000000040003410000017N261218105700000000000103003190000000000000000000000000000000000000000100051562430700EMILIA SANTANA MORAIS                   RUA JORNALISTA MOACIR PADILHAN 276, FUNDCENTRO      24020350NITEROI        RJUNIAO UMB DOS CULTOS AFRO BRAS    30031915 000024
10231987175000168817800093673    000038529                    000385290000000000000109                     I0238529     30031900000000040003410000017N261218105700000000000103003190000000000000000000000000000000000000000100003546040740MONICA DA SILVA OLIVEIRA                RUA CORREIA DIASN 1029,                 VIGARIO GERA21241310RIO DE JANEIRO RJUNIAO UMB DOS CULTOS AFRO BRAS    30031915 000025
10231987175000168817800093673    000037834                    000378340000000000000109                     I0237834     30031900000000040003410000017N261218105700000000000103003190000000000000000000000000000000000000000100082335400720PAULO FONSECA DA SILVA                  RUA ANDALUZIAN 431, FUNDOS              BENTO RIBEIR21555100RIO DE JANEIRO RJUNIAO UMB DOS CULTOS AFRO BRAS    30031915 000026
10231987175000168817800093673    000037596                    000375960000000000000109                     I0237596     30031900000000040003410000017N261218105700000000000103003190000000000000000000000000000000000000000100001796220728MARIA ROSA ALVES DA SILVA               RUA DOUTOR JOAQUIM OTTONIN 389,         PARQUE SENHO25025325DUQUE DE CAXIASRJUNIAO UMB DOS CULTOS AFRO BRAS    30031915 000027
10231987175000168817800093673    000037511                    000375110000000000000109                     I0237511     30031900000000040003410000017N261218105700000000000103003190000000000000000000000000000000000000000100045935742772SANDRA ANDRADE DE ARAUJO                AV. MINISTRO EDGARD ROMERON 679, VILA EMVAZ LOBO    21360202RIO DE JANEIRO RJUNIAO UMB DOS CULTOS AFRO BRAS    30031915 000028
9                                                                                                                                                                                                                                                                                                                                                                                                         000029
