01REMESSA01COBRANCA       817800093673        União Umb dos Cultos Afro Bra341BANCO ITAU SA  150819                                                                                                                                                                                                                                                                                                      000001
10231987175000168817800093673    000054038                    000540380000000000000109                     I0154038     16091900000000120003410000017N150819105700000000000401609190000000000000000000000000000000000000000100080236499734REGINALDO VIEIRA CAPTIVO                RUA DOUTOR NUNESN 1099, FUNDOS          OLARIA      21021370RIO DE JANEIRO RJUNIAO UMB DOS CULTOS AFRO BRAS    16091915 000002
21160920190000000000240                                                                                                                                                                                                                                                                                                                                                                                   000003
10231987175000168817800093673    000054037                    000540370000000000000109                     I0154037     16091900000000300003410000017N150819105700000000000991609190000000000000000000000000000000000000000100068567855772ZAILDA MASCARENHAS DOS SANTOS           RUA FRANCISCO ANTONIO NASCIMENTON 57,   MIGUEL COUTO26070467NOVA IGUACU    RJUNIAO UMB DOS CULTOS AFRO BRAS    16091915 000004
21160920190000000000600                                                                                                                                                                                                                                                                                                                                                                                   000005
10231987175000168817800093673    000054036                    000540360000000000000109                     I0154036     20081900000000043443410000017N150819105700000000000142008190000000000000000000000000000000000000000100002344767703ROSINETE FERREIRA CAMARGO               RUA ARAGON 131,                         TANQUE      22733130RIO DE JANEIRO RJUNIAO UMB DOS CULTOS AFRO BRAS    20081915 000006
21200820190000000000087                                                                                                                                                                                                                                                                                                                                                                                   000007
10231987175000168817800093673    000054035                    000540350000000000000109                     I0154035     20081900000000047403410000017N150819105700000000000162008190000000000000000000000000000000000000000100002344767703ROSINETE FERREIRA CAMARGO               RUA ARAGON 131,                         TANQUE      22733130RIO DE JANEIRO RJUNIAO UMB DOS CULTOS AFRO BRAS    20081915 000008
21200820190000000000095                                                                                                                                                                                                                                                                                                                                                                                   000009
10231987175000168817800093673    000054034                    000540340000000000000109                     I0154034     20081900000000080003410000017N140819105700000000000262008190000000000000000000000000000000000000000100002344767703ROSINETE FERREIRA CAMARGO               RUA ARAGON 131,                         TANQUE      22733130RIO DE JANEIRO RJUNIAO UMB DOS CULTOS AFRO BRAS    20081915 000010
21200820190000000000160                                                                                                                                                                                                                                                                                                                                                                                   000011
10231987175000168817800093673    000053179                    000531790000000000000109                     I0253179     30081900000000250003410000017N020819105700000000000833008190000000000000000000000000000000000000000100002820506712EURICO BARROSO JUNIOR                   RUA BERNARDINO CAMPOSN 97, APT 203      PIEDADE     20756150RIO DE JANEIRO RJUNIAO UMB DOS CULTOS AFRO BRAS    30081915 000012
21300820190000000000500                                                                                                                                                                                                                                                                                                                                                                                   000013
10231987175000168817800093673    000050229                    000502290000000000000109                     I0250229     10091900000000200003410000017N020819105700000000000661009190000000000000000000000000000000000000000100012394130172ELIAS FERREIRA DA SILVA                 RUA: GUARUJA N 10, QUADRA 35            JARDIM IPANE75380000TRINDADE       GOUNIAO UMB DOS CULTOS AFRO BRAS    10091915 000014
21100920190000000000400                                                                                                                                                                                                                                                                                                                                                                                   000015
10231987175000168817800093673    000049112                    000491120000000000000109                     I0249112     30091900000000040003410000017N100619105700000000000133009190000000000000000000000000000000000000000100044833520753JOSE ROBERTO OLIVEIRA DA SILVA          TRAVESSA DONA MARIAN 4,                 ANDRADE ARAU26130693BELFORD ROXO   RJUNIAO UMB DOS CULTOS AFRO BRAS    30091915 000016
21300920190000000000080                                                                                                                                                                                                                                                                                                                                                                                   000017
10231987175000168817800093673    000048453                    000484530000000000000109                     I0248453     30091900000000040003410000017N100619105700000000000133009190000000000000000000000000000000000000000100076744515772GELSON CORREA DE CARVALHO               RUA MANUEL MACHADON 77,                 VAZ LOBO    21361090RIO DE JANEIRO RJUNIAO UMB DOS CULTOS AFRO BRAS    30091915 000018
21300920190000000000080                                                                                                                                                                                                                                                                                                                                                                                   000019
10231987175000168817800093673    000047016                    000470160000000000000109                     I0247016     30081900000000040003410000017N100619105700000000000133008190000000000000000000000000000000000000000100076744515772GELSON CORREA DE CARVALHO               RUA MANUEL MACHADON 77,                 VAZ LOBO    21361090RIO DE JANEIRO RJUNIAO UMB DOS CULTOS AFRO BRAS    30081915 000020
21300820190000000000080                                                                                                                                                                                                                                                                                                                                                                                   000021
10231987175000168817800093673    000045641                    000456410000000000000109                     I0245641     30071900000000040003410000017N100619105700000000000133007190000000000000000000000000000000000000000100002344767703ROSINETE FERREIRA CAMARGO               RUA ARAGON 131,                         TANQUE      22733130RIO DE JANEIRO RJUNIAO UMB DOS CULTOS AFRO BRAS    30071915 000022
21300720190000000000080                                                                                                                                                                                                                                                                                                                                                                                   000023
10231987175000168817800093673    000045594                    000455940000000000000109                     I0245594     30071900000000040003410000017N100619105700000000000133007190000000000000000000000000000000000000000100076744515772GELSON CORREA DE CARVALHO               RUA MANUEL MACHADON 77,                 VAZ LOBO    21361090RIO DE JANEIRO RJUNIAO UMB DOS CULTOS AFRO BRAS    30071915 000024
21300720190000000000080                                                                                                                                                                                                                                                                                                                                                                                   000025
9                                                                                                                                                                                                                                                                                                                                                                                                         000026
