01REMESSA01COBRANCA       817800093673        União Umb dos Cultos Afro Bra341BANCO ITAU SA  110119                                                                                                                                                                                                                                                                                                      000001
10231987175000168817800093673    000039557                    000395570000000000000109                     I0139557     16011900000000035003410000017N110119104700000000000101601190000000000000000000000000000000000000000100002134169729ALEXANDRE DE ALMEIDA                    RUA SERITINGA                           BRAS DE PINA21215480RIO DE JANEIRO RJUNIAO UMB DOS CULTOS AFRO BRAS    16011910 000002
10231987175000168817800093673    000039556                    000395560000000000000109                     I0139556     31031900000000040003410000017N110119104700000000000103103190000000000000000000000000000000000000000100010880272708FERNANDA DOS SANTOS PEREIRA             RUA LINS DE VASCONCELOS                 LINS DE VASC20710130RIO DE JANEIRO RJUNIAO UMB DOS CULTOS AFRO BRAS    31031910 000003
10231987175000168817800093673    000039555                    000395550000000000000109                     I0139555     28021900000000040003410000017N110119104700000000000102802190000000000000000000000000000000000000000100010880272708FERNANDA DOS SANTOS PEREIRA             RUA LINS DE VASCONCELOS                 LINS DE VASC20710130RIO DE JANEIRO RJUNIAO UMB DOS CULTOS AFRO BRAS    28021910 000004
10231987175000168817800093673    000039554                    000395540000000000000109                     I0139554     31011900000000040003410000017N110119104700000000000103101190000000000000000000000000000000000000000100010880272708FERNANDA DOS SANTOS PEREIRA             RUA LINS DE VASCONCELOS                 LINS DE VASC20710130RIO DE JANEIRO RJUNIAO UMB DOS CULTOS AFRO BRAS    31011910 000005
10231987175000168817800093673    000039553                    000395530000000000000109                     I0139553     08021900000000180003410000017N110119104700000000000100802190000000000000000000000000000000000000000100010880272708FERNANDA DOS SANTOS PEREIRA             RUA LINS DE VASCONCELOS                 LINS DE VASC20710130RIO DE JANEIRO RJUNIAO UMB DOS CULTOS AFRO BRAS    08021910 000006
10231987175000168817800093673    000039552                    000395520000000000000109                     I0139552     18011900000000350003410000017N110119104700000000000101801190000000000000000000000000000000000000000100081891423720MAURO DINIZ                             RUA UTUPEVA                             QUINTINO    00000000MARICA         RJUNIAO UMB DOS CULTOS AFRO BRAS    18011910 000007
10231987175000168817800093673    000039551                    000395510000000000000109                     I0139551     18011900000000175003410000017N110119104700000000000101801190000000000000000000000000000000000000000100008527396726JUSSARA BALBINO GENUARIO                RUA DAS MARGARIDAS                      CHAPERO     23830240ITAGUAI        RJUNIAO UMB DOS CULTOS AFRO BRAS    18011910 000008
10231987175000168817800093673    000039550                    000395500000000000000109                     I0239550     15011900000000175003410000017N110119104700000000000101501190000000000000000000000000000000000000000100008527396726JUSSARA BALBINO GENUARIO                RUA DAS MARGARIDAS                      CHAPERO     23830240ITAGUAI        RJUNIAO UMB DOS CULTOS AFRO BRAS    15011910 000009
10231987175000168817800093673    000039549                    000395490000000000000109                     I0139549     29031900000000000003410000017N110119104700000000000102903190000000000000000000000000000000000000000100084892978787GLEYDS GRANDEN GUERRERO                 RUA ANA GUIMARAES                       ROCHA       20960040RIO DE JANEIRO RJUNIAO UMB DOS CULTOS AFRO BRAS    29031910 000010
10231987175000168817800093673    000039548                    000395480000000000000109                     I0139548     28021900000000040003410000017N110119104700000000000102802190000000000000000000000000000000000000000100084892978787GLEYDS GRANDEN GUERRERO                 RUA ANA GUIMARAES                       ROCHA       20960040RIO DE JANEIRO RJUNIAO UMB DOS CULTOS AFRO BRAS    28021910 000011
10231987175000168817800093673    000039547                    000395470000000000000109                     I0139547     31011900000000040003410000017N110119104700000000000103101190000000000000000000000000000000000000000100084892978787GLEYDS GRANDEN GUERRERO                 RUA ANA GUIMARAES                       ROCHA       20960040RIO DE JANEIRO RJUNIAO UMB DOS CULTOS AFRO BRAS    31011910 000012
10231987175000168817800093673    000039546                    000395460000000000000109                     I0139546     15011900000000035003410000017N110119104700000000000101501190000000000000000000000000000000000000000100014641727732DAVI SILVA BARBOSA LIMA                 TRAVESSA ANTONIO AARAO                  SEPETIBA    23540030RIO DE JANEIRO RJUNIAO UMB DOS CULTOS AFRO BRAS    15011910 000013
10231987175000168817800093673    000039545                    000395450000000000000109                     I0139545     18011900000000350003410000017N110119104700000000000101801190000000000000000000000000000000000000000100091917654715JORGE RICARDO MORENO CRISPIM            RUA VINTE E CINCO                       BAIA BRANCA 25930000RIO DE JANEIRO RJUNIAO UMB DOS CULTOS AFRO BRAS    18011910 000014
10231987175000168817800093673    000039273                    000392730000000000000109                     I0239273     30031900000000040003410000017N261218104700000000000103003190000000000000000000000000000000000000000100085748781700NELSON TEIXEIRA RUI FILHO               RUA CAROLINA AMADO                      IRAJA       21361320RIO DE JANEIRO RJUNIAO UMB DOS CULTOS AFRO BRAS    30031910 000015
10231987175000168817800093673    000038922                    000389220000000000000109                     I0238922     30031900000000040003410000017N261218104700000000000103003190000000000000000000000000000000000000000100010880272708FERNANDA DOS SANTOS PEREIRA             RUA LINS DE VASCONCELOS                 LINS DE VASC20710130RIO DE JANEIRO RJUNIAO UMB DOS CULTOS AFRO BRAS    30031910 000016
10231987175000168817800093673    000038325                    000383250000000000000109                     I0238325     30031900000000040003410000017N261218104700000000000103003190000000000000000000000000000000000000000100081891423720MAURO DINIZ                             RUA UTUPEVA                             QUINTINO    00000000MARICA         RJUNIAO UMB DOS CULTOS AFRO BRAS    30031910 000017
10231987175000168817800093673    000038172                    000381720000000000000109                     I0238172     30031900000000040003410000017N261218104700000000000103003190000000000000000000000000000000000000000100061912131749LACYR DE ALVARENGA RAMOS                RUA NOSSA SENHORA DAS GRACAS            CHARITAS    24370630NITEROI        RJUNIAO UMB DOS CULTOS AFRO BRAS    30031910 000018
10231987175000168817800093673    000037786                    000377860000000000000109                     I0237786     30031900000000040003410000017N261218104700000000000103003190000000000000000000000000000000000000000100048137880763PEDRO SILVA DO NASCIMENTO               ESTRADA: DO TAQUARAL                    BANGU       21842550RIO DE JANEIRO RJUNIAO UMB DOS CULTOS AFRO BRAS    30031910 000019
10231987175000168817800093673    000037744                    000377440000000000000109                     I0237744     30031900000000040003410000017N261218104700000000000103003190000000000000000000000000000000000000000100032615515772WALDEMIR JOSE ALVES                     ESTRADA SAO JOAO DE FORA                PARQUE SAO J26193540DUQUE DE CAXIASRJUNIAO UMB DOS CULTOS AFRO BRAS    30031910 000020
10231987175000168817800093673    000037592                    000375920000000000000109                     I0237592     30031900000000040003410000017N261218104700000000000103003190000000000000000000000000000000000000000100054946018700SIDNEY ESTRELA EVANGELISTA              RUA ELZA                                JARDIM GUANA26321020QUEIMADOS      RJUNIAO UMB DOS CULTOS AFRO BRAS    30031910 000021
10231987175000168817800093673    000037354                    000373540000000000000109                     I0237354     28021900000000040003410000017N261218104700000000000102802190000000000000000000000000000000000000000100085748781700NELSON TEIXEIRA RUI FILHO               RUA CAROLINA AMADO                      IRAJA       21361320RIO DE JANEIRO RJUNIAO UMB DOS CULTOS AFRO BRAS    28021910 000022
10231987175000168817800093673    000037003                    000370030000000000000109                     I0237003     28021900000000040003410000017N261218104700000000000102802190000000000000000000000000000000000000000100010880272708FERNANDA DOS SANTOS PEREIRA             RUA LINS DE VASCONCELOS                 LINS DE VASC20710130RIO DE JANEIRO RJUNIAO UMB DOS CULTOS AFRO BRAS    28021910 000023
10231987175000168817800093673    000036408                    000364080000000000000109                     I0236408     28021900000000040003410000017N261218104700000000000102802190000000000000000000000000000000000000000100081891423720MAURO DINIZ                             RUA UTUPEVA                             QUINTINO    00000000MARICA         RJUNIAO UMB DOS CULTOS AFRO BRAS    28021910 000024
10231987175000168817800093673    000036256                    000362560000000000000109                     I0236256     28021900000000040003410000017N261218104700000000000102802190000000000000000000000000000000000000000100061912131749LACYR DE ALVARENGA RAMOS                RUA NOSSA SENHORA DAS GRACAS            CHARITAS    24370630NITEROI        RJUNIAO UMB DOS CULTOS AFRO BRAS    28021910 000025
10231987175000168817800093673    000035872                    000358720000000000000109                     I0235872     28021900000000040003410000017N261218104700000000000102802190000000000000000000000000000000000000000100048137880763PEDRO SILVA DO NASCIMENTO               ESTRADA: DO TAQUARAL                    BANGU       21842550RIO DE JANEIRO RJUNIAO UMB DOS CULTOS AFRO BRAS    28021910 000026
10231987175000168817800093673    000035831                    000358310000000000000109                     I0235831     28021900000000040003410000017N261218104700000000000102802190000000000000000000000000000000000000000100032615515772WALDEMIR JOSE ALVES                     ESTRADA SAO JOAO DE FORA                PARQUE SAO J26193540DUQUE DE CAXIASRJUNIAO UMB DOS CULTOS AFRO BRAS    28021910 000027
10231987175000168817800093673    000035679                    000356790000000000000109                     I0235679     28021900000000040003410000017N261218104700000000000102802190000000000000000000000000000000000000000100054946018700SIDNEY ESTRELA EVANGELISTA              RUA ELZA                                JARDIM GUANA26321020QUEIMADOS      RJUNIAO UMB DOS CULTOS AFRO BRAS    28021910 000028
10231987175000168817800093673    000035093                    000350930000000000000109                     I0235093     31011900000000040003410000017N261218104700000000000103101190000000000000000000000000000000000000000100010880272708FERNANDA DOS SANTOS PEREIRA             RUA LINS DE VASCONCELOS                 LINS DE VASC20710130RIO DE JANEIRO RJUNIAO UMB DOS CULTOS AFRO BRAS    31011910 000029
10231987175000168817800093673    000034499                    000344990000000000000109                     I0234499     31011900000000040003410000017N261218104700000000000103101190000000000000000000000000000000000000000100081891423720MAURO DINIZ                             RUA UTUPEVA                             QUINTINO    00000000MARICA         RJUNIAO UMB DOS CULTOS AFRO BRAS    31011910 000030
10231987175000168817800093673    000034348                    000343480000000000000109                     I0234348     31011900000000040003410000017N261218104700000000000103101190000000000000000000000000000000000000000100061912131749LACYR DE ALVARENGA RAMOS                RUA NOSSA SENHORA DAS GRACAS            CHARITAS    24370630NITEROI        RJUNIAO UMB DOS CULTOS AFRO BRAS    31011910 000031
10231987175000168817800093673    000034045                    000340450000000000000109                     I0234045     31011900000000040003410000017N261218104700000000000103101190000000000000000000000000000000000000000100008763637707JUSSARA SILVA DE ALBUQUERQUE            RUA ARGOS                               GUADALUPE   21660050RIO DE JANEIRO RJUNIAO UMB DOS CULTOS AFRO BRAS    31011910 000032
10231987175000168817800093673    000033968                    000339680000000000000109                     I0233968     31011900000000040003410000017N261218104700000000000103101190000000000000000000000000000000000000000100048137880763PEDRO SILVA DO NASCIMENTO               ESTRADA: DO TAQUARAL                    BANGU       21842550RIO DE JANEIRO RJUNIAO UMB DOS CULTOS AFRO BRAS    31011910 000033
10231987175000168817800093673    000033928                    000339280000000000000109                     I0233928     31011900000000040003410000017N261218104700000000000103101190000000000000000000000000000000000000000100032615515772WALDEMIR JOSE ALVES                     ESTRADA SAO JOAO DE FORA                PARQUE SAO J26193540DUQUE DE CAXIASRJUNIAO UMB DOS CULTOS AFRO BRAS    31011910 000034
10231987175000168817800093673    000033805                    000338050000000000000109                     I0233805     31011900000000040003410000017N261218104700000000000103101190000000000000000000000000000000000000000100001045146714ELIANE RIBEIRO MACEDO                   RUA SANTA GLICERIA                      PADRE MIGUEL21725320RIO DE JANEIRO RJUNIAO UMB DOS CULTOS AFRO BRAS    31011910 000035
10231987175000168817800093673    000033777                    000337770000000000000109                     I0233777     31011900000000040003410000017N261218104700000000000103101190000000000000000000000000000000000000000100054946018700SIDNEY ESTRELA EVANGELISTA              RUA ELZA                                JARDIM GUANA26321020QUEIMADOS      RJUNIAO UMB DOS CULTOS AFRO BRAS    31011910 000036
10231987175000168817800093673    000033403                    000334030000000000000109                     I0233403     20121800000000350003410000017N121118104700000000000102012180000000000000000000000000000000000000000100091917654715JORGE RICARDO MORENO CRISPIM            RUA VINTE E CINCO                       BAIA BRANCA 25930000RIO DE JANEIRO RJUNIAO UMB DOS CULTOS AFRO BRAS    20121810 000037
10231987175000168817800093673    000032956                    000329560000000000000109                     I0232956     20121800000000350003410000017N291018104700000000000102012180000000000000000000000000000000000000000100014641727732DAVI SILVA BARBOSA LIMA                 TRAVESSA ANTONIO AARAO                  SEPETIBA    23540030RIO DE JANEIRO RJUNIAO UMB DOS CULTOS AFRO BRAS    20121810 000038
10231987175000168817800093673    000031825                    000318250000000000000109                     I0231825     20121800000000350003410000017N291018104700000000000102012180000000000000000000000000000000000000000100081891423720MAURO DINIZ                             RUA UTUPEVA                             QUINTINO    00000000MARICA         RJUNIAO UMB DOS CULTOS AFRO BRAS    20121810 000039
10231987175000168817800093673    000031794                    000317940000000000000109                     I0231794     20121800000000350003410000017N291018104700000000000102012180000000000000000000000000000000000000000100002134169729ALEXANDRE DE ALMEIDA                    RUA SERITINGA                           BRAS DE PINA21215480RIO DE JANEIRO RJUNIAO UMB DOS CULTOS AFRO BRAS    20121810 000040
10231987175000168817800093673    000031093                    000310930000000000000109                     I0231093     20121800000000350003410000017N291018104700000000000102012180000000000000000000000000000000000000000100008763637707JUSSARA SILVA DE ALBUQUERQUE            RUA ARGOS                               GUADALUPE   21660050RIO DE JANEIRO RJUNIAO UMB DOS CULTOS AFRO BRAS    20121810 000041
10231987175000168817800093673    000030961                    000309610000000000000109                     I0230961     20121800000000350003410000017N291018104700000000000102012180000000000000000000000000000000000000000100048137880763PEDRO SILVA DO NASCIMENTO               ESTRADA: DO TAQUARAL                    BANGU       21842550RIO DE JANEIRO RJUNIAO UMB DOS CULTOS AFRO BRAS    20121810 000042
10231987175000168817800093673    000030902                    000309020000000000000109                     I0230902     20121800000000350003410000017N291018104700000000000102012180000000000000000000000000000000000000000100032615515772WALDEMIR JOSE ALVES                     ESTRADA SAO JOAO DE FORA                PARQUE SAO J26193540DUQUE DE CAXIASRJUNIAO UMB DOS CULTOS AFRO BRAS    20121810 000043
10231987175000168817800093673    000030149                    000301490000000000000109                     I0230149     20121800000000040003410000017N291018104700000000000102012180000000000000000000000000000000000000000100014641727732DAVI SILVA BARBOSA LIMA                 TRAVESSA ANTONIO AARAO                  SEPETIBA    23540030RIO DE JANEIRO RJUNIAO UMB DOS CULTOS AFRO BRAS    20121810 000044
10231987175000168817800093673    000030096                    000300960000000000000109                     I0230096     20121800000000035003410000017N291018104700000000000102012180000000000000000000000000000000000000000100008527396726JUSSARA BALBINO GENUARIO                RUA DAS MARGARIDAS                      CHAPERO     23830240ITAGUAI        RJUNIAO UMB DOS CULTOS AFRO BRAS    20121810 000045
10231987175000168817800093673    000029571                    000295710000000000000109                     I0229571     20121800000000035003410000017N291018104700000000000102012180000000000000000000000000000000000000000100002134169729ALEXANDRE DE ALMEIDA                    RUA SERITINGA                           BRAS DE PINA21215480RIO DE JANEIRO RJUNIAO UMB DOS CULTOS AFRO BRAS    20121810 000046
10231987175000168817800093673    000028199                    000281990000000000000109                     I0228199     30111800000000035003410000017N200818104700000000000103011180000000000000000000000000000000000000000100008527396726JUSSARA BALBINO GENUARIO                RUA DAS MARGARIDAS                      CHAPERO     23830240ITAGUAI        RJUNIAO UMB DOS CULTOS AFRO BRAS    30111810 000047
9                                                                                                                                                                                                                                                                                                                                                                                                         000048
