01REMESSA01COBRANCA       916200163100        União Umb dos Cultos Afro Bra341BANCO ITAU SA  040118                                                                                                                                                                                                                                                                                                      000001
10231987175000168916200163100    00008651                     000086510000000000000109                     I018651      31011800000000035003410000017N020118050900000000000103101180000000000000000000000000000000000000000100083697799720ANGELA MARIA FERRAZ FARIAS              RUA LUIS BELTRAO, 1171                  VILA VALQUEI21321230RIO DE JANEIRO RJUNIAO UMB DOS CULTOS AFRO BRAS    31011810 000002
10231987175000168916200163100    00008649                     000086490000000000000109                     I018649      31011800000000035003410000017N020118050900000000000103101180000000000000000000000000000000000000000100033712417772IRANIR RIBEIRO DE CASTRO                RUA DO RIACHUELO, 333 COBERTURA 6       CENTRO - RIO20230011RIO DE JANEIRO RJUNIAO UMB DOS CULTOS AFRO BRAS    31011810 000003
10231987175000168916200163100    00008647                     000086470000000000000109                     I018647      31011800000000035003410000017N020118050900000000000103101180000000000000000000000000000000000000000100059395656700NADIA MARIZA CORREA TRINDADE            RUA JORGE SILVA, 25                     PARQUE SAO J23890000RIO DE JANEIRO RJUNIAO UMB DOS CULTOS AFRO BRAS    31011810 000004
10231987175000168916200163100    00008646                     000086460000000000000109                     I018646      31011800000000035003410000017N020118050900000000000103101180000000000000000000000000000000000000000100005721435755ALEX ARAUJO BRAGA                       RUA MARTE, 685 CASA 2                   MESQUITA - N26240290NOVA IGUACU    RJUNIAO UMB DOS CULTOS AFRO BRAS    31011810 000005
10231987175000168916200163100    00008645                     000086450000000000000109                     I018645      31011800000000035003410000017N020118050900000000000103101180000000000000000000000000000000000000000100021207275700GEORGETE MARIA SILVA DE JESUS           RUA BECO DO MIJANCAH, 30                PRAIA DA BRI23028696PEDRA DE GUARATRJUNIAO UMB DOS CULTOS AFRO BRAS    31011810 000006
10231987175000168916200163100    00008644                     000086440000000000000109                     I018644      31011800000000035003410000017N020118050900000000000103101180000000000000000000000000000000000000000100093719744787SERGIO PEREIRA FRAGA                    RUA JURUBAIBA, 163 FUNDOS               HONORIO GURG21555170RIO DE JANEIRO RJUNIAO UMB DOS CULTOS AFRO BRAS    31011810 000007
10231987175000168916200163100    00008643                     000086430000000000000109                     I018643      31011800000000035003410000017N020118050900000000000103101180000000000000000000000000000000000000000100012470639840RICARDO DE OLIVEIRA                     RUA FELINTO MARQUES CERQUEIRA, 270 - CAPCAPUCHINHOS 44076040FEIRA DE SANTANBAUNIAO UMB DOS CULTOS AFRO BRAS    31011810 000008
10231987175000168916200163100    00008642                     000086420000000000000109                     I018642      31011800000000035003410000017N020118050900000000000103101180000000000000000000000000000000000000000100058781887704DENORIDES DE ALMEIDA                    RUA GOIANIA, 802                        VILAR NOVO -26116590BELFORD ROXO   RJUNIAO UMB DOS CULTOS AFRO BRAS    31011810 000009
10231987175000168916200163100    00008641                     000086410000000000000109                     I018641      31011800000000035003410000017N020118050900000000000103101180000000000000000000000000000000000000000100008501649740ADILSON PEREIRA DIAS                    RUA ALBERTO MARTIRES ASTH, 260          SAO GERALDO 28630485NOVA FRIBURGO  RJUNIAO UMB DOS CULTOS AFRO BRAS    31011810 000010
10231987175000168916200163100    00008640                     000086400000000000000109                     I018640      31011800000000035003410000017N020118050900000000000103101180000000000000000000000000000000000000000100099225158734MARIA MAGALI DE OLIVEIRA SOUZA          RUA PIRACAIA, 756 FUNDOS                MARECHAL HER21555260RIO DE JANEIRO RJUNIAO UMB DOS CULTOS AFRO BRAS    31011810 000011
9                                                                                                                                                                                                                                                                                                                                                                                                         000012
