01REMESSA01COBRANCA       916200163100        União Umb dos Cultos Afro Bra341BANCO ITAU SA  040118                                                                                                                                                                                                                                                                                                      000001
10231987175000168916200163100    00008813                     000088130000000000000109                     I018813      31011800000000035003410000017N020118050900000000000103101180000000000000000000000000000000000000000100001123258740ZALA PEREIRA DE OLIVEIRA                RUA CORDEIROPOLIS, QUADRA 62 LOTE 24    PACIENCIA - 23585510RIO DE JANEIRO RJUNIAO UMB DOS CULTOS AFRO BRAS    31011810 000002
10231987175000168916200163100    00008812                     000088120000000000000109                     I018812      31011800000000035003410000017N020118050900000000000103101180000000000000000000000000000000000000000100012874409758CLAUDIA DA SILVA NOBRE DE MIRA          RUA SEIS, 70 - FIGUEIRA                 MAUA - MAGE 25930000MAGE           RJUNIAO UMB DOS CULTOS AFRO BRAS    31011810 000003
10231987175000168916200163100    00008811                     000088110000000000000109                     I018811      31011800000000035003410000017N020118050900000000000103101180000000000000000000000000000000000000000100068824238734MARINETE LOPES DE MOURA                 RUA GENERAL, LOTE 4 QUADRA 2 N 9        PIABETA - MA25915000MAGE           RJUNIAO UMB DOS CULTOS AFRO BRAS    31011810 000004
10231987175000168916200163100    00008810                     000088100000000000000109                     I018810      31011800000000035003410000017N020118050900000000000103101180000000000000000000000000000000000000000100037506587734MARIA JOSE ALVES DIAS                   RUA CLODOMIRO, 105                      SANTA CRUZ/R23550020RIO DE JANEIRO RJUNIAO UMB DOS CULTOS AFRO BRAS    31011810 000005
10231987175000168916200163100    00008809                     000088090000000000000109                     I018809      31011800000000035003410000017N020118050900000000000103101180000000000000000000000000000000000000000100058075402715GENECY GOMES FERNANDES                  RUA MARIA HELENA, 209                   VILA FORMOSA25915000MAGE           RJUNIAO UMB DOS CULTOS AFRO BRAS    31011810 000006
10231987175000168916200163100    00008808                     000088080000000000000109                     I018808      31011800000000035003410000017N020118050900000000000103101180000000000000000000000000000000000000000100065753313787ELVIRA FLAUZINA CELSO                   RUA DA CONCEICAO, 112                   SANTA ROSA /27155000BARRA DO PIRAI RJUNIAO UMB DOS CULTOS AFRO BRAS    31011810 000007
10231987175000168916200163100    00008807                     000088070000000000000109                     I018807      31011800000000035003410000017N020118050900000000000103101180000000000000000000000000000000000000000100007986589752LEANDRO DOS SANTOS RODRIGUES            AVENIDA GASPAR DE LEMOS, 13             ILHA DE GUAR23020230RIO DE JANEIRO RJUNIAO UMB DOS CULTOS AFRO BRAS    31011810 000008
10231987175000168916200163100    00008806                     000088060000000000000109                     I018806      31011800000000035003410000017N020118050900000000000103101180000000000000000000000000000000000000000100007991824780DANIELLE OLIVEIRA DOS SANTOS            RUA GAMO, 4                             JARDIM METRO25575380SAO JOAO DE MERRJUNIAO UMB DOS CULTOS AFRO BRAS    31011810 000009
10231987175000168916200163100    00008805                     000088050000000000000109                     I018805      31011800000000035003410000017N020118050900000000000103101180000000000000000000000000000000000000000100010525485716JORGE SANTOS DA SILVA                   RUA TENENTE CUSTODIO MOREIRA, 24        JARDIM XAVAN26125000BELFORD ROXO   RJUNIAO UMB DOS CULTOS AFRO BRAS    31011810 000010
10231987175000168916200163100    00008804                     000088040000000000000109                     I018804      31011800000000035003410000017N020118050900000000000103101180000000000000000000000000000000000000000100008169125723SANDRA PRAXEDES SILVA BRAGA             RUA NOVENTA TRES, LOTE 36 QUADRA 131    CORDEIRINHO 24921464MARICA         RJUNIAO UMB DOS CULTOS AFRO BRAS    31011810 000011
10231987175000168916200163100    00008803                     000088030000000000000109                     I018803      31011800000000035003410000017N020118050900000000000103101180000000000000000000000000000000000000000100010548215774MARCUS ULYSSES ALVAREZ BARBOSA          RUA TIBOIM, 590                         BRAS DE PINA21011650RIO DE JANEIRO RJUNIAO UMB DOS CULTOS AFRO BRAS    31011810 000012
10231987175000168916200163100    00008802                     000088020000000000000109                     I018802      31011800000000035003410000017N020118050900000000000103101180000000000000000000000000000000000000000100006940060766JAQUELINE BEZERRA DA SILVA              RUA ATOR JECE VALADAO, 329 - ANTIGA 73  PEDRA DE GUA23020718RIO DE JANEIRO RJUNIAO UMB DOS CULTOS AFRO BRAS    31011810 000013
10231987175000168916200163100    00008801                     000088010000000000000109                     I018801      31011800000000035003410000017N020118050900000000000103101180000000000000000000000000000000000000000100080113397704SOLANGE DE SOUZA SILVA                  RUA PEDRO DE MELO, 174 FUNDOS           PADRE MIGUEL21775410RIO DE JANEIRO RJUNIAO UMB DOS CULTOS AFRO BRAS    31011810 000014
10231987175000168916200163100    00008800                     000088000000000000000109                     I018800      31011800000000035003410000017N020118050900000000000103101180000000000000000000000000000000000000000100098077899749WANDERLEY PACHECO                       RUA NOSSA SENHORA DA CONCEICAO, S/N LOTEPILAR - DUQU25233070DUQUE DE CAXIASRJUNIAO UMB DOS CULTOS AFRO BRAS    31011810 000015
10231987175000168916200163100    00008799                     000087990000000000000109                     I018799      31011800000000035003410000017N020118050900000000000103101180000000000000000000000000000000000000000100022002020778MARIA PALMIRA DE AMORIM LOPES           ESTRADA ANTONIO CARVALHO VENTURA, 1720 QALBUQUERQUE 25977280TERESOPOLIS    RJUNIAO UMB DOS CULTOS AFRO BRAS    31011810 000016
10231987175000168916200163100    00008798                     000087980000000000000109                     I018798      31011800000000035003410000017N020118050900000000000103101180000000000000000000000000000000000000000100080252540700GEORGET MARIA CONCEICAO DE OLI          RUA CONDE DE LINHARES, 75 FUNDOS        OSWALDO CRUZ21341190RIO DE JANEIRO RJUNIAO UMB DOS CULTOS AFRO BRAS    31011810 000017
10231987175000168916200163100    00008797                     000087970000000000000109                     I018797      31011800000000035003410000017N020118050900000000000103101180000000000000000000000000000000000000000100008528931757LUCIMARA DA CONCEICAO CORTES            RUA PROFESSOR CHARLEY LACHMUND, 360 FUNDGUARATIBA - 23032570RIO DE JANEIRO RJUNIAO UMB DOS CULTOS AFRO BRAS    31011810 000018
10231987175000168916200163100    00008795                     000087950000000000000109                     I018795      31011800000000035003410000017N020118050900000000000103101180000000000000000000000000000000000000000100083904069772MARCIA MARIA DUARTE MILANEZ VI          RUA DO FRAGOSO, 480                     GUARATIBA - 23032280RIO DE JANEIRO RJUNIAO UMB DOS CULTOS AFRO BRAS    31011810 000019
10231987175000168916200163100    00008794                     000087940000000000000109                     I018794      31011800000000035003410000017N020118050900000000000103101180000000000000000000000000000000000000000100000635840774MARCOS DE OLIVEIRA                      RUA MARCILIO DIAS, 408                  JARDIM CAICA28910080CABO FRIO      RJUNIAO UMB DOS CULTOS AFRO BRAS    31011810 000020
10231987175000168916200163100    00008793                     000087930000000000000109                     I018793      31011800000000035003410000017N020118050900000000000103101180000000000000000000000000000000000000000100009488185732RODRIGO MARTINS DE ANDRADE              RUA SAO CARLOS, 441                     ESTACIO - RJ20250052RIO DE JANEIRO RJUNIAO UMB DOS CULTOS AFRO BRAS    31011810 000021
10231987175000168916200163100    00008792                     000087920000000000000109                     I018792      31011800000000035003410000017N020118050900000000000103101180000000000000000000000000000000000000000100000360973736CLAUDIA PINHEIRO CID                    RUA BRAGA, 106 CASA 2                   PENHA - RJ  21011500RIO DE JANEIRO RJUNIAO UMB DOS CULTOS AFRO BRAS    31011810 000022
10231987175000168916200163100    00008791                     000087910000000000000109                     I018791      31011800000000035003410000017N020118050900000000000103101180000000000000000000000000000000000000000100000043874738ANDREA COSTA                            RUA ATHOS BULCAO, 68 CASA C             RECREIO DOS 22790661RIO DE JANEIRO RJUNIAO UMB DOS CULTOS AFRO BRAS    31011810 000023
10231987175000168916200163100    00008790                     000087900000000000000109                     I018790      31011800000000035003410000017N020118050900000000000103101180000000000000000000000000000000000000000100073296902791CARLOS ALEXANDRE FERNANDES SAM          RUA BORJA REIS, 525                     ENGENHO DE D20745100RIO DE JANEIRO RJUNIAO UMB DOS CULTOS AFRO BRAS    31011810 000024
10231987175000168916200163100    00008789                     000087890000000000000109                     I018789      31011800000000035003410000017N020118050900000000000103101180000000000000000000000000000000000000000100062990772715MARLISE VINAGRE SILVA                   RUA SILVEIRA MARTINS, 30 APTO 704       CATETE - RJ 26299042RIO DE JANEIRO RJUNIAO UMB DOS CULTOS AFRO BRAS    31011810 000025
10231987175000168916200163100    00008788                     000087880000000000000109                     I018788      31011800000000035003410000017N020118050900000000000103101180000000000000000000000000000000000000000100073494682704MARILENE VIEIRA DE CARVALHO             RUA CRISTIANO MACHADO, 282              JARDIM AMERI21240470RIO DE JANEIRO RJUNIAO UMB DOS CULTOS AFRO BRAS    31011810 000026
10231987175000168916200163100    00008786                     000087860000000000000109                     I018786      31011800000000035003410000017N020118050900000000000103101180000000000000000000000000000000000000000100003538138770ELIZABETH DE SANTANA                    RUA FIGUEIREDO PIMENTEL, 84 CASA 1      ABOLICAO - R20750200RIO DE JANEIRO RJUNIAO UMB DOS CULTOS AFRO BRAS    31011810 000027
10231987175000168916200163100    00008785                     000087850000000000000109                     I018785      31011800000000035003410000017N020118050900000000000103101180000000000000000000000000000000000000000100007315512730SIDCLAY MEDEIROS DOS SANTOS             TRAVESSA ANES DIAS, 9                   SANTISSIMO -23094010RIO DE JANEIRO RJUNIAO UMB DOS CULTOS AFRO BRAS    31011810 000028
10231987175000168916200163100    00008784                     000087840000000000000109                     I018784      31011800000000035003410000017N020118050900000000000103101180000000000000000000000000000000000000000100003322124754CATIA REGINA DE AQUINO MACHADO          RUA CLAUDINO BARATA, 863 CASA 5         REALENGO - R21770200RIO DE JANEIRO RJUNIAO UMB DOS CULTOS AFRO BRAS    31011810 000029
10231987175000168916200163100    00008783                     000087830000000000000109                     I018783      31011800000000035003410000017N020118050900000000000103101180000000000000000000000000000000000000000100064075338720VALDENICE CONCEICAO DA SILVA C          RUA FELIX ANTONIO DA SILVA, LOTE 47     ENGENHO PEQU24417580SAO GONCALO    RJUNIAO UMB DOS CULTOS AFRO BRAS    31011810 000030
10231987175000168916200163100    00008782                     000087820000000000000109                     I018782      31011800000000035003410000017N020118050900000000000103101180000000000000000000000000000000000000000100007403285735MARCIO BAPTISTA CARVALHO                RUA ENALDO DOS SANTOS ARAUJO, 85        ENGENHEIRO L21370200RIO DE JANEIRO RJUNIAO UMB DOS CULTOS AFRO BRAS    31011810 000031
10231987175000168916200163100    00008781                     000087810000000000000109                     I018781      31011800000000035003410000017N020118050900000000000103101180000000000000000000000000000000000000000100098630164700LEILA DE JESUS FREIRE                   RUA JABUTICABEIRA, 52 CASA 1            SENADOR CAMA21832340RIO DE JANEIRO RJUNIAO UMB DOS CULTOS AFRO BRAS    31011810 000032
10231987175000168916200163100    00008780                     000087800000000000000109                     I018780      31011800000000035003410000017N020118050900000000000103101180000000000000000000000000000000000000000100085775576772LUSIA DE FREITAS SERVA                  RUA PEREIRA NETO S/N LOTE 35 QUADRA 38  GUARATIBA - 23032540RIO DE JANEIRO RJUNIAO UMB DOS CULTOS AFRO BRAS    31011810 000033
10231987175000168916200163100    00008779                     000087790000000000000109                     I018779      31011800000000035003410000017N020118050900000000000103101180000000000000000000000000000000000000000100005444285797CICERO PEREIRA GOMES NETO               RUA CAPITAO RUBENS, 1 BL 8 APTO 108     MARECHAL HER21610290RIO DE JANEIRO RJUNIAO UMB DOS CULTOS AFRO BRAS    31011810 000034
10231987175000168916200163100    00008778                     000087780000000000000109                     I018778      31011800000000035003410000017N020118050900000000000103101180000000000000000000000000000000000000000100083469559791ALEXANDRE DA SILVA SOUZA                RUA AFONSO RIBEIRO, 582                 PENHA - RJ  21031700RIO DE JANEIRO RJUNIAO UMB DOS CULTOS AFRO BRAS    31011810 000035
10231987175000168916200163100    00008777                     000087770000000000000109                     I018777      31011800000000035003410000017N020118050900000000000103101180000000000000000000000000000000000000000100086450328304ANA MARIA SOUZA MACIEL                  RUA DOUTOR ANTONIO LEAL, 42             HONORIO GURG21511070RIO DE JANEIRO RJUNIAO UMB DOS CULTOS AFRO BRAS    31011810 000036
10231987175000168916200163100    00008776                     000087760000000000000109                     I018776      31011800000000035003410000017N020118050900000000000103101180000000000000000000000000000000000000000100059841672715MONICA TARDELLE                         RUA EUBANQUE 16 APTO 201                ENGENHO DA R20766600RIO DE JANEIRO RJUNIAO UMB DOS CULTOS AFRO BRAS    31011810 000037
10231987175000168916200163100    00008774                     000087740000000000000109                     I018774      31011800000000035003410000017N020118050900000000000103101180000000000000000000000000000000000000000100082993610791JOSE CARLOS ROSA DA CONCEICAO           AVENIDA CANAL DA FIGUEIRA, QUADRA A LOTEJD ANHANGA -25264160DUQUE DE CAXIASRJUNIAO UMB DOS CULTOS AFRO BRAS    31011810 000038
10231987175000168916200163100    00008773                     000087730000000000000109                     I018773      31011800000000035003410000017N020118050900000000000103101180000000000000000000000000000000000000000100003317113707WIRANI MARTINS                          RUA ETELVINA DE CASTRO LOTE 16 QUADRA 14PQ ELDORADO 25240390DUQUE DE CAXIASRJUNIAO UMB DOS CULTOS AFRO BRAS    31011810 000039
10231987175000168916200163100    00008772                     000087720000000000000109                     I018772      31011800000000035003410000017N020118050900000000000103101180000000000000000000000000000000000000000100011418927740JORGE MARCOS DE SA FREIRE               RUA RIO ALVA LOTE 6 QUADRA 9            PARQUE COMER25041430DUQUE DE CAXIASRJUNIAO UMB DOS CULTOS AFRO BRAS    31011810 000040
10231987175000168916200163100    00008771                     000087710000000000000109                     I018771      31011800000000035003410000017N020118050900000000000103101180000000000000000000000000000000000000000100091097810787SOLANGE VALENTIM DA SILVA               RUA URUCUIA, 773                        VILA VALQUEI21321310RIO DE JANEIRO RJUNIAO UMB DOS CULTOS AFRO BRAS    31011810 000041
10231987175000168916200163100    00008770                     000087700000000000000109                     I018770      31011800000000035003410000017N020118050900000000000103101180000000000000000000000000000000000000000100061458317749BENEDITA DEODORO DE MORAIS              RUA GENTIL DINIZ, 69 - NOVO MEXICO      NOVO MEXICO 27130170BARRA DO PIRAI RJUNIAO UMB DOS CULTOS AFRO BRAS    31011810 000042
10231987175000168916200163100    00008769                     000087690000000000000109                     I018769      31011800000000035003410000017N020118050900000000000103101180000000000000000000000000000000000000000100008417913769SANDERSON DOS SANTOS LOBO               RUA GUARANHUNS, 167 CASA 1              JARDIM BRASI26193070BELFORD ROXO   RJUNIAO UMB DOS CULTOS AFRO BRAS    31011810 000043
10231987175000168916200163100    00008768                     000087680000000000000109                     I018768      31011800000000035003410000017N020118050900000000000103101180000000000000000000000000000000000000000100086257277787WLADIMIR DO CARMO PINTO                 RUA ARLETE CELESTINO AYRES VANDERLEY, 33JARDIM SULAC21745650RIO DE JANEIRO RJUNIAO UMB DOS CULTOS AFRO BRAS    31011810 000044
10231987175000168916200163100    00008767                     000087670000000000000109                     I018767      31011800000000035003410000017N020118050900000000000103101180000000000000000000000000000000000000000100003546040740MONICA DA SILVA OLIVEIRA                RUA CORREIA DIAS, 1029                  VIGARIO GERA21241310RIO DE JANEIRO RJUNIAO UMB DOS CULTOS AFRO BRAS    31011810 000045
10231987175000168916200163100    00008766                     000087660000000000000109                     I018766      31011800000000035003410000017N020118050900000000000103101180000000000000000000000000000000000000000100006715164851MARISA DA SILVA                         RUA DOZE, 19                            MARACAIBO - 12120000TREMEMBE       SPUNIAO UMB DOS CULTOS AFRO BRAS    31011810 000046
10231987175000168916200163100    00008765                     000087650000000000000109                     I018765      31011800000000035003410000017N020118050900000000000103101180000000000000000000000000000000000000000100002865366766LUCIA DA SILVA CESAR                    RUA NOVE DE JUNHO, LOTE 17 QUADRA 15    JARDIM CABUC26335000RIO DE JANEIRO RJUNIAO UMB DOS CULTOS AFRO BRAS    31011810 000047
9                                                                                                                                                                                                                                                                                                                                                                                                         000048
