01REMESSA01COBRANCA       817800093673        União Umb dos Cultos Afro Bra341BANCO ITAU SA  240519                                                                                                                                                                                                                                                                                                      000001
10231987175000168817800093673    000044859                    000448590000000000000109                     I3444859     31051900000000040003410000017N210319105700000000000103105190000000000000000000000000000000000000000100097163180730CLEA DE OLIVEIRA BRASIL                 RUA ARACI COSTAN 67,                    GUADALUPE   21665010RIO DE JANEIRO RJUNIAO UMB DOS CULTOS AFRO BRAS    31051915 000002
9                                                                                                                                                                                                                                                                                                                                                                                                         000003
