01REMESSA01COBRANCA       817800093673        União Umb dos Cultos Afro Bra341BANCO ITAU SA  020819                                                                                                                                                                                                                                                                                                      000001
10231987175000168817800093673    000050467                    000504670000000000000109                     I0150467     10091900000000200003410000017N020819105700000000000661009190000000000000000000000000000000000000000100002801970719JORGE LUIZ DE A. FELISBERTO             RUA LUIZ CARLOSN 43,                    COLEGIO     21236330RIO DE JANEIRO RJUNIAO UMB DOS CULTOS AFRO BRAS    10091915 000002
21100920190000000000400                                                                                                                                                                                                                                                                                                                                                                                   000003
10231987175000168817800093673    000050464                    000504640000000000000109                     I0150464     10091900000000200003410000017N020819105700000000000661009190000000000000000000000000000000000000000100019825595787GERACINO PINTO DA ROCHA                 RUA DOUTOR OTAVIO TARQUINO N 1139, APT 3CENTRO      26215340NOVA IGUACU    RJUNIAO UMB DOS CULTOS AFRO BRAS    10091915 000004
21100920190000000000400                                                                                                                                                                                                                                                                                                                                                                                   000005
10231987175000168817800093673    000050462                    000504620000000000000109                     I0150462     10091900000000200003410000017N020819105700000000000661009190000000000000000000000000000000000000000100001194949061ANTONIO ALEXANDRE REZENDE DOS           RUA: 17N 250,                           SANTA LUZIA 95555000CAPAO DA CANOA RSUNIAO UMB DOS CULTOS AFRO BRAS    10091915 000006
21100920190000000000400                                                                                                                                                                                                                                                                                                                                                                                   000007
10231987175000168817800093673    000050461                    000504610000000000000109                     I0150461     10091900000000200003410000017N020819105700000000000661009190000000000000000000000000000000000000000100097860972387TANMAYK DA SILVA NERY                   RUA: SAO LUCASN 71,                     SANTA CATARI68488000BREU BRANCO    PAUNIAO UMB DOS CULTOS AFRO BRAS    10091915 000008
21100920190000000000400                                                                                                                                                                                                                                                                                                                                                                                   000009
10231987175000168817800093673    000050459                    000504590000000000000109                     I0150459     10091900000000200003410000017N020819105700000000000661009190000000000000000000000000000000000000000100001175546771ALEXANDRE DE MELO COSTA                 RUA: RAUL RIFFN 250,                    CATIRI      21863435BANGU          RJUNIAO UMB DOS CULTOS AFRO BRAS    10091915 000010
21100920190000000000400                                                                                                                                                                                                                                                                                                                                                                                   000011
10231987175000168817800093673    000050458                    000504580000000000000109                     I0150458     10091900000000200003410000017N020819105700000000000661009190000000000000000000000000000000000000000100001434943097IURI FONSECA DA CUNHA                   RUA FAUSTO BORBA PRATISN 381, ZONA A    ZONA A      95595000CIDREIRA       SCUNIAO UMB DOS CULTOS AFRO BRAS    10091915 000012
21100920190000000000400                                                                                                                                                                                                                                                                                                                                                                                   000013
10231987175000168817800093673    000050453                    000504530000000000000109                     I0150453     10091900000000200003410000017N020819105700000000000661009190000000000000000000000000000000000000000100054972353791LOURDES XAVIER DOS SANTOS               RUA FERNANDO GONCALVES DE ALMEIDAN 1677,CABUIS      26540290NILOPOLIS      RJUNIAO UMB DOS CULTOS AFRO BRAS    10091915 000014
21100920190000000000400                                                                                                                                                                                                                                                                                                                                                                                   000015
10231987175000168817800093673    000050451                    000504510000000000000109                     I0150451     10091900000000200003410000017N020819105700000000000661009190000000000000000000000000000000000000000100001650975740ROGERIO SANTOS DE SOUZA                 RUA: PARAN 20,                          ILHA DO GOVE21930380RIO DE JANEIRO RJUNIAO UMB DOS CULTOS AFRO BRAS    10091915 000016
21100920190000000000400                                                                                                                                                                                                                                                                                                                                                                                   000017
10231987175000168817800093673    000050448                    000504480000000000000109                     I0150448     10091900000000200003410000017N020819105700000000000661009190000000000000000000000000000000000000000100007173669600LIANE FABRICIA DE OLIVEIRA              RUA: CORONEL ANTONIO TEIXEIRAN 0,       BOA MORTE   36201024BARBACENA      MGUNIAO UMB DOS CULTOS AFRO BRAS    10091915 000018
21100920190000000000400                                                                                                                                                                                                                                                                                                                                                                                   000019
10231987175000168817800093673    000050447                    000504470000000000000109                     I0150447     10091900000000200003410000017N020819105700000000000661009190000000000000000000000000000000000000000100003949546618LUIZ HENRIQUE DE OLIVEIRA               RUA: SAO CRISTOVAON 161, FUNDOS CASA 23 SAO CRISTOVA36880000MURIAE         MGUNIAO UMB DOS CULTOS AFRO BRAS    10091915 000020
21100920190000000000400                                                                                                                                                                                                                                                                                                                                                                                   000021
10231987175000168817800093673    000050445                    000504450000000000000109                     I0150445     10091900000000200003410000017N020819105700000000000661009190000000000000000000000000000000000000000100005624330740JOSE LUIZ NEVES DA SILVA                RUA: SETECENTOS E CINQUENTA E OITO N 345CASA DE PEDR27257200VOLTA REDONDA  RJUNIAO UMB DOS CULTOS AFRO BRAS    10091915 000022
21100920190000000000400                                                                                                                                                                                                                                                                                                                                                                                   000023
10231987175000168817800093673    000050444                    000504440000000000000109                     I0150444     10091900000000200003410000017N020819105700000000000661009190000000000000000000000000000000000000000100001294737740MARIA CICERA DOS SANTOS                 AVENIDA: RODOLFO SIQUEIRA N 153,  FUNDOSITAOCA      24471736SAO GONCALO    RJUNIAO UMB DOS CULTOS AFRO BRAS    10091915 000024
21100920190000000000400                                                                                                                                                                                                                                                                                                                                                                                   000025
10231987175000168817800093673    000050437                    000504370000000000000109                     I0150437     10091900000000200003410000017N020819105700000000000661009190000000000000000000000000000000000000000100051679868772ROSANGELA DA CONCEICAO CALDAS           RUA NAGIB TANUS GASTINN 87,             JARDIM BOTUC04173170SAO PAULO      SPUNIAO UMB DOS CULTOS AFRO BRAS    10091915 000026
21100920190000000000400                                                                                                                                                                                                                                                                                                                                                                                   000027
10231987175000168817800093673    000050432                    000504320000000000000109                     I0150432     10091900000000200003410000017N020819105700000000000661009190000000000000000000000000000000000000000100040166368768JACKSON NASCIMENTO DOS SANTOS           RUA PACO DO LUMIARN 166,                PECHINCHA   22770080RIO DE JANEIRO RJUNIAO UMB DOS CULTOS AFRO BRAS    10091915 000028
21100920190000000000400                                                                                                                                                                                                                                                                                                                                                                                   000029
10231987175000168817800093673    000050430                    000504300000000000000109                     I0150430     10091900000000200003410000017N020819105700000000000661009190000000000000000000000000000000000000000100040374726787VERA MARIA DE SOUZA SANTOS              RUA BRAS CUBASN 188,                    PAVUNA      21520050RIO DE JANEIRO RJUNIAO UMB DOS CULTOS AFRO BRAS    10091915 000030
21100920190000000000400                                                                                                                                                                                                                                                                                                                                                                                   000031
10231987175000168817800093673    000050429                    000504290000000000000109                     I0150429     10091900000000200003410000017N020819105700000000000661009190000000000000000000000000000000000000000100003316639705JOSE LUCILANE DA SILVA                  AVENIDA NOVA YORKN 0,                   BONSUCESSO  21041040RIO DE JANEIRO RJUNIAO UMB DOS CULTOS AFRO BRAS    10091915 000032
21100920190000000000400                                                                                                                                                                                                                                                                                                                                                                                   000033
10231987175000168817800093673    000050428                    000504280000000000000109                     I0150428     10091900000000200003410000017N020819105700000000000661009190000000000000000000000000000000000000000100097875341515ELIANDRO FRANCISCO DA SILVA             RUA: LAPAO N 0, LOTE 16 QUADRA 60       SANTA CRUZ  81294428BAHIA          BAUNIAO UMB DOS CULTOS AFRO BRAS    10091915 000034
21100920190000000000400                                                                                                                                                                                                                                                                                                                                                                                   000035
10231987175000168817800093673    000050427                    000504270000000000000109                     I0150427     10091900000000200003410000017N020819105700000000000661009190000000000000000000000000000000000000000100013735221866NOEL SOUZA DA CRUZ                      RUA SUMAREN 103,                        VILA REAL   13222164VARZEA PAULISTASPUNIAO UMB DOS CULTOS AFRO BRAS    10091915 000036
21100920190000000000400                                                                                                                                                                                                                                                                                                                                                                                   000037
10231987175000168817800093673    000050425                    000504250000000000000109                     I0150425     10091900000000200003410000017N020819105700000000000661009190000000000000000000000000000000000000000100000749457775LEVI OLIVEIRA DO NASCIMENTO             ALAMEDA UMN 197,                        BELO HORIZON27278290VOLTA REDONDA  RJUNIAO UMB DOS CULTOS AFRO BRAS    10091915 000038
21100920190000000000400                                                                                                                                                                                                                                                                                                                                                                                   000039
10231987175000168817800093673    000050424                    000504240000000000000109                     I0150424     10091900000000200003410000017N020819105700000000000661009190000000000000000000000000000000000000000100088753247949ROSELI DOS SANTOS                       RUA: PADRE JOAO BATISTA VIECELLIN 229,  CENTRO      88600000SAO JOAQUIM    SCUNIAO UMB DOS CULTOS AFRO BRAS    10091915 000040
21100920190000000000400                                                                                                                                                                                                                                                                                                                                                                                   000041
10231987175000168817800093673    000050423                    000504230000000000000109                     I0150423     10091900000000200003410000017N020819105700000000000661009190000000000000000000000000000000000000000100031528479807IDARLAN ALEX MARINS RAMOS (ODE          RUA: JOSE PROCOPIO DA MATTA N 257,      FRAGOSO     25935000MAGE           RJUNIAO UMB DOS CULTOS AFRO BRAS    10091915 000042
21100920190000000000400                                                                                                                                                                                                                                                                                                                                                                                   000043
10231987175000168817800093673    000050422                    000504220000000000000109                     I0150422     10091900000000200003410000017N020819105700000000000661009190000000000000000000000000000000000000000100002478166712FLAVIO AZEVEDO COUTINHO                 RUA LAURA DE ARAUJON 129,               CIDADE NOVA 20211170RIO DE JANEIRO RJUNIAO UMB DOS CULTOS AFRO BRAS    10091915 000044
21100920190000000000400                                                                                                                                                                                                                                                                                                                                                                                   000045
10231987175000168817800093673    000050421                    000504210000000000000109                     I0150421     10091900000000200003410000017N020819105700000000000661009190000000000000000000000000000000000000000100008953273765FABIANE SANTANA                         RUA NORTEN 1305,                        CIDADE HORAC25931262MAGE           RJUNIAO UMB DOS CULTOS AFRO BRAS    10091915 000046
21100920190000000000400                                                                                                                                                                                                                                                                                                                                                                                   000047
10231987175000168817800093673    000050420                    000504200000000000000109                     I0150420     10091900000000200003410000017N020819105700000000000661009190000000000000000000000000000000000000000100007365707720LEONARDO LOURENCO DA MOTA               RUA: DOIS N 0, QUADRA 1 LOTE 5          ITAIPUACU   24900000MARICA         RJUNIAO UMB DOS CULTOS AFRO BRAS    10091915 000048
21100920190000000000400                                                                                                                                                                                                                                                                                                                                                                                   000049
10231987175000168817800093673    000050417                    000504170000000000000109                     I0150417     10091900000000200003410000017N020819105700000000000661009190000000000000000000000000000000000000000100062785230787PEROLA REGINA PETERMANN                 AVENIDA CARNAUBEIRAN 0, QUADRA 18 LOTE 2GUARATIBA   23032080RIO DE JANEIRO RJUNIAO UMB DOS CULTOS AFRO BRAS    10091915 000050
21100920190000000000400                                                                                                                                                                                                                                                                                                                                                                                   000051
10231987175000168817800093673    000050416                    000504160000000000000109                     I0150416     10091900000000200003410000017N020819105700000000000661009190000000000000000000000000000000000000000100053483375791MARIA JOSE OLIVEIRA DA SILVA            RUA ARARAQUARAN 0,  LOTE 9 QUADRA 2     IPIRANGA    26293471NOVA IGUACU    RJUNIAO UMB DOS CULTOS AFRO BRAS    10091915 000052
21100920190000000000400                                                                                                                                                                                                                                                                                                                                                                                   000053
10231987175000168817800093673    000050413                    000504130000000000000109                     I0150413     10091900000000200003410000017N020819105700000000000661009190000000000000000000000000000000000000000100007640924723MARCIA REGINA BARRETO DA SILVA          RUA DEZOITON 0, LOTE 9                  BELMONTE    26315000QUEIMADOS      RJUNIAO UMB DOS CULTOS AFRO BRAS    10091915 000054
21100920190000000000400                                                                                                                                                                                                                                                                                                                                                                                   000055
9                                                                                                                                                                                                                                                                                                                                                                                                         000056
