01REMESSA01COBRANCA       817800093673        Uni√£o Umb dos Cultos Afro Bra341BANCO ITAU SA  261118                                                                                                                                                                                                                                                                                                      000001
10231987175000168817800093673    000033482                    000334820000000000000109                     I0133482     27121800000000350003410000017N261118104700000000000102712180000000000000000000000000000000000000000100012253859702FRANCINY CABRAL FONTES                  AVENIDA HUMBERTO SOEIRO DE CARVALHO     IPITUNA     28550000SAO SEBASTIAO DRJUNIAO UMB DOS CULTOS AFRO BRAS    27121810 000002
10231987175000168817800093673    000033481                    000334810000000000000109                     I0133481     20121800000000035003410000017N261118104700000000000102012180000000000000000000000000000000000000000100012253859702FRANCINY CABRAL FONTES                  AVENIDA HUMBERTO SOEIRO DE CARVALHO     IPITUNA     28550000SAO SEBASTIAO DRJUNIAO UMB DOS CULTOS AFRO BRAS    20121810 000003
10231987175000168817800093673    000033480                    000334800000000000000109                     I0133480     30111800000000035003410000017N261118104700000000000103011180000000000000000000000000000000000000000100047783877753RAIMUNDO NONATO VALENCA RIBEIR          AVENIDA PREFEITO BRAULINO DE MATOS REIS COPACABANA  25060440DUQUE DE CAXIASRJUNIAO UMB DOS CULTOS AFRO BRAS    30111810 000004
10231987175000168817800093673    000033479                    000334790000000000000109                     I0133479     30111800000000010003410000017N261118104700000000000103011180000000000000000000000000000000000000000100048512630744CARLOS MURILO CARDOSO DE CARVA          RUA MAJOR RUBENS VAZ                    TIRADENTES -24732110SAO GONCALO    RJUNIAO UMB DOS CULTOS AFRO BRAS    30111810 000005
10231987175000168817800093673    000033478                    000334780000000000000109                     I0133478     20121800000000300003410000017N261118104700000000000102012180000000000000000000000000000000000000000100029040943766NELSON PEREIRA DE CARVALHO              RUA DO CAMPO                            CONCEICAO DE23885000MANGARATIBA    RJUNIAO UMB DOS CULTOS AFRO BRAS    20121810 000006
10231987175000168817800093673    000033477                    000334770000000000000109                     I0133477     20121800000000040003410000017N261118104700000000000102012180000000000000000000000000000000000000000100029040943766NELSON PEREIRA DE CARVALHO              RUA DO CAMPO                            CONCEICAO DE23885000MANGARATIBA    RJUNIAO UMB DOS CULTOS AFRO BRAS    20121810 000007
10231987175000168817800093673    000033476                    000334760000000000000109                     I0133476     07121800000000035003410000017N261118104700000000000100712180000000000000000000000000000000000000000100000000000761SONIA MARIA DA SILVA DELLIVENE          AV PLINIO GOMES DE MATTOS FILHO         VARZEA DAS M24330430SAO GONCALO    RJUNIAO UMB DOS CULTOS AFRO BRAS    07121810 000008
10231987175000168817800093673    000033475                    000334750000000000000109                     I0133475     07121800000000035003410000017N261118104700000000000100712180000000000000000000000000000000000000000100000000000761SONIA MARIA DA SILVA DELLIVENE          AV PLINIO GOMES DE MATTOS FILHO         VARZEA DAS M24330430SAO GONCALO    RJUNIAO UMB DOS CULTOS AFRO BRAS    07121810 000009
10231987175000168817800093673    000033474                    000334740000000000000109                     I0133474     10121800000000100003410000017N241118104700000000000101012180000000000000000000000000000000000000000100070175225753LEDA FERREIRA FIGUEIREDO                RUA: SANTA ROSA                         BENTO RIBEIR21331420RIO DE JANEIRO RJUNIAO UMB DOS CULTOS AFRO BRAS    10121810 000010
10231987175000168817800093673    000033473                    000334730000000000000109                     I0133473     05121800000000035003410000017N241118104700000000000100512180000000000000000000000000000000000000000100048672068734NOEMIA CONCEICAO DE SOUZA               ESTRADA DO CAMORIM                      JACAREPAGUA 20765040RIO DE JANEIRO RJUNIAO UMB DOS CULTOS AFRO BRAS    05121810 000011
10231987175000168817800093673    000033472                    000334720000000000000109                     I0133472     05121800000000070003410000017N241118104700000000000100512180000000000000000000000000000000000000000100001272334740VALERIA MARIA MOREIRA                   RUA EUDINO EGGER                        JARDIM CATAR24717015SAO GONCALO    RJUNIAO UMB DOS CULTOS AFRO BRAS    05121810 000012
10231987175000168817800093673    000033471                    000334710000000000000109                     I0133471     05121800000000070003410000017N241118104700000000000100512180000000000000000000000000000000000000000100005836497770SIDEAN LEANDRO DOS SANTOS CRUZ          RUA MENDES RIBEIRO                      PATRONATO   24431635SAO GONCALO    RJUNIAO UMB DOS CULTOS AFRO BRAS    05121810 000013
10231987175000168817800093673    000033470                    000334700000000000000109                     I0133470     04121800000000070003410000017N241118104700000000000100412180000000000000000000000000000000000000000100002541954743DENISE DIAS DE OLIVEIRA                 RUA BERNARDINO DE CAMPOS                OLAVO BILAC 25035530DUQUE DE CAXIASRJUNIAO UMB DOS CULTOS AFRO BRAS    04121810 000014
10231987175000168817800093673    000033469                    000334690000000000000109                     I0133469     27111800000000070003410000017N241118104700000000000102711180000000000000000000000000000000000000000100002541954743DENISE DIAS DE OLIVEIRA                 RUA BERNARDINO DE CAMPOS                OLAVO BILAC 25035530DUQUE DE CAXIASRJUNIAO UMB DOS CULTOS AFRO BRAS    27111810 000015
10231987175000168817800093673    000033468                    000334680000000000000109                     I0133468     06121800000000150003410000017N241118104700000000000100612180000000000000000000000000000000000000000100010526277734FRANCISCO DJALMA MOTA                   PRACA CORONEL JOAO ZANI                 COLEGIO     20710130RIO DE JANEIRO  RUNIAO UMB DOS CULTOS AFRO BRAS    06121810 000016
10231987175000168817800093673    000033465                    000334650000000000000109                     I3433465     30111800000000035003410000017N221118104700000000000103011180000000000000000000000000000000000000000100008350095725LUIZ LUCIANO ADAO                       RUA ALAGOAS                             SANTA CRUZ D25255070DUQUE DE CAXIASRJUNIAO UMB DOS CULTOS AFRO BRAS    30111810 000017
10231987175000168817800093673    000033463                    000334630000000000000109                     I0233463     20121800000000040003410000017N221118104700000000000102012180000000000000000000000000000000000000000100003371449742LUCIA HELENA CHAVES MOREIRA             RUA LUISA BARATA                        REALENGO    21770230RIO DE JANEIRO RJUNIAO UMB DOS CULTOS AFRO BRAS    20121810 000018
10231987175000168817800093673    000033416                    000334160000000000000109                     I3433416     30111800000000210003410000017N131118104700000000000103011180000000000000000000000000000000000000000100081561326704MARCIO ELIAS GONCALVES                  RUA: NOVA                               GUARATIBA   21820210RIO DE JANEIRO RJUNIAO UMB DOS CULTOS AFRO BRAS    30111810 000019
10231987175000168817800093673    000032376                    000323760000000000000109                     I3432376     20121800000000350003410000017N291018104700000000000102012180000000000000000000000000000000000000000100031709294749ELIETE DE OLIVEIRA FONSECA              ESTRADA DO MAGARCA                      GUARATIBA   23035380RIO DE JANEIRO RJUNIAO UMB DOS CULTOS AFRO BRAS    20121810 000020
10231987175000168817800093673    000032080                    000320800000000000000109                     I3432080     20121800000000350003410000017N291018104700000000000102012180000000000000000000000000000000000000000100010102282773DANIEL BORGES DINIZ VIEIRA              ESTRADA DE SEPETIBA                     SEPETIBA    23545003RIO DE JANEIRO RJUNIAO UMB DOS CULTOS AFRO BRAS    20121810 000021
10231987175000168817800093673    000031902                    000319020000000000000109                     I3431902     20121800000000350003410000017N291018104700000000000102012180000000000000000000000000000000000000000100008903088700JORGINA CARDOSO DE FREITAS              RUA OSWALDO LINO                        MANGUEIRA   23530155RIO DE JANEIRO RJUNIAO UMB DOS CULTOS AFRO BRAS    20121810 000022
10231987175000168817800093673    000031801                    000318010000000000000109                     I3431801     20121800000000350003410000017N291018104700000000000102012180000000000000000000000000000000000000000100002888419726MARIA TEREZINHA PEREIRA RODRIG          RUA SANTA CATARINA                      CHACARA GRAN25925000MAGE           RJUNIAO UMB DOS CULTOS AFRO BRAS    20121810 000023
10231987175000168817800093673    000031734                    000317340000000000000109                     I3431734     20121800000000350003410000017N291018104700000000000102012180000000000000000000000000000000000000000100082117756700CLAUDIO ROBERTO DA SILVA                RUA SETENTA E DOIS                      ITAIPUACU   24900000MARICA         RJUNIAO UMB DOS CULTOS AFRO BRAS    20121810 000024
10231987175000168817800093673    000031290                    000312900000000000000109                     I3431290     20121800000000350003410000017N291018104700000000000102012180000000000000000000000000000000000000000100000000000466LEONIRIA MARIA DE OLIVEIRA PER          ESTRADA DO CONDE                        VILA PAULINE26170210BELFORD ROXO   RJUNIAO UMB DOS CULTOS AFRO BRAS    20121810 000025
10231987175000168817800093673    000031259                    000312590000000000000109                     I3431259     20121800000000350003410000017N291018104700000000000102012180000000000000000000000000000000000000000100059198338749IRACEMA ADELL ALVES FERNANDES           RUA: VAZ LOBO                           VAZ LOBO    21361030RIO DE JANEIRO RJUNIAO UMB DOS CULTOS AFRO BRAS    20121810 000026
10231987175000168817800093673    000031225                    000312250000000000000109                     I3431225     20121800000000350003410000017N291018104700000000000102012180000000000000000000000000000000000000000100001132984718JANE DA SILVA SANTOS                    RUA: ARARIBOIA                          SANTA LUCIA 25271370DUQUE DE CAXIASRJUNIAO UMB DOS CULTOS AFRO BRAS    20121810 000027
10231987175000168817800093673    000031137                    000311370000000000000109                     I3431137     20121800000000350003410000017N291018104700000000000102012180000000000000000000000000000000000000000100001657566757DENIZE ALVES PERES                      PRACA MARCIA MENDES                     CAMPINHO    21341410RIO DE JANEIRO RJUNIAO UMB DOS CULTOS AFRO BRAS    20121810 000028
10231987175000168817800093673    000030922                    000309220000000000000109                     I3430922     20121800000000350003410000017N291018104700000000000102012180000000000000000000000000000000000000000100029964725787ALCIR SOARES CORREA                     AVENIDA DON PEDRO II                    LEQUE AZUL -25900000MAUA           RJUNIAO UMB DOS CULTOS AFRO BRAS    20121810 000029
10231987175000168817800093673    000030658                    000306580000000000000109                     I3430658     20121800000000350003410000017N291018104700000000000102012180000000000000000000000000000000000000000100002037985703MARCELO KALLUT MARABUTO                 RUA DOUTOR BERNARDINO                   PRACA SECA  21320020RIO DE JANEIRO RJUNIAO UMB DOS CULTOS AFRO BRAS    20121810 000030
10231987175000168817800093673    000029980                    000299800000000000000109                     I0229980     20121800000000035003410000017N291018104700000000000102012180000000000000000000000000000000000000000100003003808789ADRIANA LUCIANA DA SILVA                AVENIDA VICENTE DE CARVALHO             VICENTE DE C21210024RIO DE JANEIRO RJUNIAO UMB DOS CULTOS AFRO BRAS    20121810 000031
10231987175000168817800093673    000029942                    000299420000000000000109                     I3429942     20121800000000035003410000017N291018104700000000000102012180000000000000000000000000000000000000000100015415831777DOUGLAS DA SILVA DE SOUZA               RUA CAPINTUBA                           IRAJA       21361210RIO DE JANEIRO RJUNIAO UMB DOS CULTOS AFRO BRAS    20121810 000032
10231987175000168817800093673    000029834                    000298340000000000000109                     I0229834     20121800000000035003410000017N291018104700000000000102012180000000000000000000000000000000000000000100031709294749ELIETE DE OLIVEIRA FONSECA              ESTRADA DO MAGARCA                      GUARATIBA   23035380RIO DE JANEIRO RJUNIAO UMB DOS CULTOS AFRO BRAS    20121810 000033
10231987175000168817800093673    000029730                    000297300000000000000109                     I3429730     20121800000000035003410000017N291018104700000000000102012180000000000000000000000000000000000000000100077575644768ROBSON ANDRE GONCALVES OUREM            RUA: MILETO                             CAMPOS ELISE25265008DUQUE DE CAXIASRJUNIAO UMB DOS CULTOS AFRO BRAS    20121810 000034
10231987175000168817800093673    000029668                    000296680000000000000109                     I3429668     20121800000000035003410000017N291018104700000000000102012180000000000000000000000000000000000000000100081561326704MARCIO ELIAS GONCALVES                  RUA: NOVA                               GUARATIBA   21820210RIO DE JANEIRO RJUNIAO UMB DOS CULTOS AFRO BRAS    20121810 000035
10231987175000168817800093673    000029345                    000293450000000000000109                     I3429345     20121800000000035003410000017N291018104700000000000102012180000000000000000000000000000000000000000100018780962572INALVA LAZARO DRUMOND                   AVENIDA MARECHAL RONDON                 RIACHUELO   20950071RIO DE JANEIRO RJUNIAO UMB DOS CULTOS AFRO BRAS    20121810 000036
10231987175000168817800093673    000029281                    000292810000000000000109                     I0229281     20121800000000035003410000017N291018104700000000000102012180000000000000000000000000000000000000000100038923335720MARILENE LOPES                          RUA LIBERATO                            VILA EMIL   26235180MESQUITA       RJUNIAO UMB DOS CULTOS AFRO BRAS    20121810 000037
10231987175000168817800093673    000029093                    000290930000000000000109                     I0229093     20121800000000035003410000017N291018104700000000000102012180000000000000000000000000000000000000000100001796220728MARIA ROSA ALVES DA SILVA               RUA DOUTOR ARRUDA NEGREIRO              PARQUE SENHO25025325DUQUE DE CAXIASRJUNIAO UMB DOS CULTOS AFRO BRAS    20121810 000038
10231987175000168817800093673    000028924                    000289240000000000000109                     I0228924     15101800000000105003410000017N111018104700000000000101510180000000000000000000000000000000000000000100010880272308FERNANDA DOS SANTOS PEREIRA             RUA LINS DE VASCONCELOS                 LINS DE VASC20710130RIO DE JANEIRO RJUNIAO UMB DOS CULTOS AFRO BRAS    15101810 000039
10231987175000168817800093673    000028918                    000289180000000000000109                     I0228918     11101800000000035003410000017N101018104700000000000101110180000000000000000000000000000000000000000100000000011431MARIA DAS GRACAS GONCALVES              O MESMO                                 O MESMO     20950360RIO DE JANEIRO RJUNIAO UMB DOS CULTOS AFRO BRAS    11101810 000040
10231987175000168817800093673    000028910                    000289100000000000000109                     I0228910     15101800000000070003410000017N091018104700000000000101510180000000000000000000000000000000000000000100000000000000VALDEA PEREIRA SIQUEIRA                 RUA BORDA DO MATO                       GRAJAU      20561200RIO DE JANEIRO RJUNIAO UMB DOS CULTOS AFRO BRAS    15101810 000041
10231987175000168817800093673    000028909                    000289090000000000000109                     I0228909     15101800000000035003410000017N091018104700000000000101510180000000000000000000000000000000000000000100000330025767NUBIA VIRGINIA DE ANDRADE MAGA          RUA ADEMAR MOREIRA                      SANTA CRUZ  23573100RIO DE JANEIRO RJUNIAO UMB DOS CULTOS AFRO BRAS    15101810 000042
10231987175000168817800093673    000028901                    000289010000000000000109                     I0228901     16101800000000300003410000017N081018104700000000000101610180000000000000000000000000000000000000000100004273880741SOLANGE VICTORIO DE CARVALHO            RUA CELIDONIA                           CINCO MARIAS23032610GUARATIBA      RJUNIAO UMB DOS CULTOS AFRO BRAS    16101810 000043
10231987175000168817800093673    000028898                    000288980000000000000109                     I0228898     15101800000000070003410000017N051018104700000000000101510180000000000000000000000000000000000000000100003561463754NORMA CRISTINA JUSTO PRUDENTE           RUA ALUISIO LIRA                        PARQUE ANCHI21635040RIO DE JANEIRO RJUNIAO UMB DOS CULTOS AFRO BRAS    15101810 000044
10231987175000168817800093673    000028879                    000288790000000000000109                     I0228879     15101800000000380003410000017N041018104700000000000101510180000000000000000000000000000000000000000100004770414773CARLOS ALBERTO TORRES NOGUEIRA          ESTRADA DO LAMEIRAO                     SANTISSIMO  23092031RIO DE JANEIRO RJUNIAO UMB DOS CULTOS AFRO BRAS    15101810 000045
10231987175000168817800093673    000028859                    000288590000000000000109                     I0228859     10101800000000070003410000017N031018104700000000000101010180000000000000000000000000000000000000000100003601608758NILDA MAURA RODRIGUES DE JESUS          RUA ARI VILAR                           COSTA BARROS21520860RIO DE JANEIRO RJUNIAO UMB DOS CULTOS AFRO BRAS    10101810 000046
10231987175000168817800093673    000028851                    000288510000000000000109                     I0228851     20101800000000105003410000017N021018104700000000000102010180000000000000000000000000000000000000000100007000973765SILVIA DAS GRACAS SANTANA               RUA NELIO CHAMBARELLI                   NOSSA SENHOR26313040QUEIMADOS      RJUNIAO UMB DOS CULTOS AFRO BRAS    20101810 000047
10231987175000168817800093673    000028850                    000288500000000000000109                     I0228850     20101800000000175003410000017N021018104700000000000102010180000000000000000000000000000000000000000100007000973765SILVIA DAS GRACAS SANTANA               RUA NELIO CHAMBARELLI                   NOSSA SENHOR26313040QUEIMADOS      RJUNIAO UMB DOS CULTOS AFRO BRAS    20101810 000048
10231987175000168817800093673    000028849                    000288490000000000000109                     I0228849     20101800000000280003410000017N021018104700000000000102010180000000000000000000000000000000000000000100001413305709LUCIO MAURO DE AQUINO BARBOSA           RUA FAIA                                ROCHA MIRAND26032835RIO DE JANEIRO RJUNIAO UMB DOS CULTOS AFRO BRAS    20101810 000049
10231987175000168817800093673    000028832                    000288320000000000000109                     I0228832     10101800000000420483410000017N011018104700000000000101010180000000000000000000000000000000000000000100068760680725ANNA LUCIA DE SOUZA                     RUA: JOAO DANIEL                        BENTO RIBEIR21550480RIO DE JANEIRO RJUNIAO UMB DOS CULTOS AFRO BRAS    10101810 000050
10231987175000168817800093673    000028831                    000288310000000000000109                     I0228831     10101800000000529243410000017N011018104700000000000101010180000000000000000000000000000000000000000100093728467791ALEX DE SOUZA MARTINS                   RUA: JOAO DANIEL                        BENTO RIBEIR21550480RIO DE JANEIRO RJUNIAO UMB DOS CULTOS AFRO BRAS    10101810 000051
10231987175000168817800093673    000028823                    000288230000000000000109                     I0228823     19101800000000385003410000017N011018104700000000000101910180000000000000000000000000000000000000000100000129467707SANDRA CRISTINA DOS SANTOS TIT          RUA DAVI                                CIDADE DE DE22777243JACAREPAGUA    RJUNIAO UMB DOS CULTOS AFRO BRAS    19101810 000052
10231987175000168817800093673    000028587                    000285870000000000000109                     I0228587     30091800000000035003410000017N270818104700000000000103009180000000000000000000000000000000000000000100008283050800JOSE RICARDO DE MOURA                   RUA TENENTE SILVINO                     CERAMICA    26030126NOVA IGUACU    RJUNIAO UMB DOS CULTOS AFRO BRAS    30091810 000053
10231987175000168817800093673    000028575                    000285750000000000000109                     I0228575     30091800000000035003410000017N230818104700000000000103009180000000000000000000000000000000000000000100001251801790AMARO LYRA DOS SANTOS FILHO             RUA DOUTOR ANTONIO MARTINS              TAQUARA     22723650RIO DE JANEIRO RJUNIAO UMB DOS CULTOS AFRO BRAS    30091810 000054
10231987175000168817800093673    000028569                    000285690000000000000109                     I0228569     30091800000000035003410000017N230818104700000000000103009180000000000000000000000000000000000000000100012663149705DIEGO PARREIRA DE ARAUJO                RUA ERMENEGILDO DE SOUZA                JARDIM SAO J23890103SEROPEDICA     RJUNIAO UMB DOS CULTOS AFRO BRAS    30091810 000055
10231987175000168817800093673    000028566                    000285660000000000000109                     I0228566     30091800000000035003410000017N230818104700000000000103009180000000000000000000000000000000000000000100011110357761THYAGO ALBERT MORAES CYRILLO S          RUA VINTE E SEIS                        JARDIM DA PA25926765RIO DE JANEIRO RJUNIAO UMB DOS CULTOS AFRO BRAS    30091810 000056
10231987175000168817800093673    000028555                    000285550000000000000109                     I0228555     30091800000000035003410000017N230818104700000000000103009180000000000000000000000000000000000000000100001645493741MARIA FERRAZ DO NASCIMENTO              RUA A JOAO IZAQUE                       BELVEDERE   26032835BARRA DO PIRAI RJUNIAO UMB DOS CULTOS AFRO BRAS    30091810 000057
10231987175000168817800093673    000028546                    000285460000000000000109                     I0228546     30091800000000035003410000017N230818104700000000000103009180000000000000000000000000000000000000000100007346014766LUCIANO FREIRE DE FRANCA                AV. AMARO CAVALCANTE                    ENGENHO DE D20735042RIO DE JANEIRO RJUNIAO UMB DOS CULTOS AFRO BRAS    30091810 000058
10231987175000168817800093673    000028536                    000285360000000000000109                     I0228536     30091800000000035003410000017N230818104700000000000103009180000000000000000000000000000000000000000100000000000000MARINEIDE SERGIO CABRAL                 RUA INAMBA                              POSSE       26021160NOVA IGUACU    RJUNIAO UMB DOS CULTOS AFRO BRAS    30091810 000059
10231987175000168817800093673    000028533                    000285330000000000000109                     I0228533     30091800000000035003410000017N230818104700000000000103009180000000000000000000000000000000000000000100000000000656GINO ZACARIAS DE JESUS                  RUA NOVE                                VILA GENI   23830010ITAGUAI        RJUNIAO UMB DOS CULTOS AFRO BRAS    30091810 000060
10231987175000168817800093673    000028530                    000285300000000000000109                     I0228530     30091800000000035003410000017N230818104700000000000103009180000000000000000000000000000000000000000100010949478733AUCELIA MARIA DE SOUZA LIMA             RUA JOSE FRANCISCO DE SOUZA PORTO, 229  ARNALDO EUGE23016010RIO DE JANEIRO RJUNIAO UMB DOS CULTOS AFRO BRAS    30091810 000061
10231987175000168817800093673    000028525                    000285250000000000000109                     I0228525     30091800000000035003410000017N230818104700000000000103009180000000000000000000000000000000000000000100003863156714VILMA TEREZA DE SOUZA AMARAL            RUA GUATEMALENSE                        JARDIM MERIT25555700SAO JOAO DE MERRJUNIAO UMB DOS CULTOS AFRO BRAS    30091810 000062
10231987175000168817800093673    000028522                    000285220000000000000109                     I0228522     30091800000000035003410000017N230818104700000000000103009180000000000000000000000000000000000000000100078759676787VANDA LUCIA LIMA DA SILVA               RUA ALMIRANTE JUSTINO PROENCA           CAMPO GRANDE23090310RIO DE JANEIRO RJUNIAO UMB DOS CULTOS AFRO BRAS    30091810 000063
10231987175000168817800093673    000028519                    000285190000000000000109                     I0228519     30091800000000035003410000017N230818104700000000000103009180000000000000000000000000000000000000000100035914661749CELSO NERY GALDARD                      RUA: BENJAMIN DA ROCHA JUNIOR           PARQUE FLUMI25045010DUQUE DE CAXIASRJUNIAO UMB DOS CULTOS AFRO BRAS    30091810 000064
10231987175000168817800093673    000028510                    000285100000000000000109                     I0228510     30091800000000040003410000017N220818104700000000000103009180000000000000000000000000000000000000000100003005342727MAURICIO ESTORQUE                       RUA SERDIVAO JOSE NICOLAY               JARDIM FEO  25965430TERESOPOLIS    RJUNIAO UMB DOS CULTOS AFRO BRAS    30091810 000065
10231987175000168817800093673    000028505                    000285050000000000000109                     I0228505     30091800000000035003410000017N220818104700000000000103009180000000000000000000000000000000000000000100075164779749IVANILDO FURTADO DA SILVA               RUA: LUIZ DE CASTRO                     PILARES     21760732RIO DE JANEIRO RJUNIAO UMB DOS CULTOS AFRO BRAS    30091810 000066
10231987175000168817800093673    000028332                    000283320000000000000109                     I3428332     30111800000000035003410000017N200818104700000000000103011180000000000000000000000000000000000000000100004253784704ALEXANDRE SIMOES NASCIMENTO             RUA SEBASTIAO DRUMOND                   ANCHIETA    21640360RIO DE JANEIRO RJUNIAO UMB DOS CULTOS AFRO BRAS    30111810 000067
10231987175000168817800093673    000028230                    000282300000000000000109                     I0228230     30111800000000035003410000017N200818104700000000000103011180000000000000000000000000000000000000000100002846505608DIONE ROSA FERNANDES                    RUA MARQUES DE LEAO                     ENGENHO NOVO20780140RIO DE JANEIRO RJUNIAO UMB DOS CULTOS AFRO BRAS    30111810 000068
10231987175000168817800093673    000028075                    000280750000000000000109                     I0228075     30111800000000035003410000017N200818104700000000000103011180000000000000000000000000000000000000000100003003808789ADRIANA LUCIANA DA SILVA                AVENIDA VICENTE DE CARVALHO             VICENTE DE C21210024RIO DE JANEIRO RJUNIAO UMB DOS CULTOS AFRO BRAS    30111810 000069
10231987175000168817800093673    000028035                    000280350000000000000109                     I3428035     30111800000000035003410000017N200818104700000000000103011180000000000000000000000000000000000000000100015415831777DOUGLAS DA SILVA DE SOUZA               RUA CAPINTUBA                           IRAJA       21361210RIO DE JANEIRO RJUNIAO UMB DOS CULTOS AFRO BRAS    30111810 000070
10231987175000168817800093673    000027810                    000278100000000000000109                     I3427810     30111800000000035003410000017N200818104700000000000103011180000000000000000000000000000000000000000100077575644768ROBSON ANDRE GONCALVES OUREM            RUA: MILETO                             CAMPOS ELISE25265008DUQUE DE CAXIASRJUNIAO UMB DOS CULTOS AFRO BRAS    30111810 000071
10231987175000168817800093673    000027633                    000276330000000000000109                     I0227633     30111800000000035003410000017N200818104700000000000103011180000000000000000000000000000000000000000100050262319772NELCY MARIA DE MATTOS                   RUA FILADELFIA                          MONJOLO     24723365SAO GONCALO    RJUNIAO UMB DOS CULTOS AFRO BRAS    30111810 000072
10231987175000168817800093673    000027483                    000274830000000000000109                     I3427483     30111800000000035003410000017N200818104700000000000103011180000000000000000000000000000000000000000100062792920700LUIZ CESAR DE OLIVEIRA                  RUA PEREIRA DE FIGUEIREDO               OSWALDO CRUZ21340030RIO DE JANEIRO RJUNIAO UMB DOS CULTOS AFRO BRAS    30111810 000073
10231987175000168817800093673    000027458                    000274580000000000000109                     I3427458     30111800000000035003410000017N200818104700000000000103011180000000000000000000000000000000000000000100082059403715SANDRA HELENA VILLAMOR MONTASS          RUA ARGOS                               GUADALUPE   21660050RIO DE JANEIRO RJUNIAO UMB DOS CULTOS AFRO BRAS    30111810 000074
10231987175000168817800093673    000027418                    000274180000000000000109                     I3427418     30111800000000035003410000017N200818104700000000000103011180000000000000000000000000000000000000000100018780962572INALVA LAZARO DRUMOND                   AVENIDA MARECHAL RONDON                 RIACHUELO   20950071RIO DE JANEIRO RJUNIAO UMB DOS CULTOS AFRO BRAS    30111810 000075
10231987175000168817800093673    000027337                    000273370000000000000109                     I3427337     30111800000000035003410000017N200818104700000000000103011180000000000000000000000000000000000000000100075643081768ELISABETE MOREIRA FREIRE DA SI          RUA NOVENTA E OITO                      VILA CARIOCA21220770RIO DE JANEIRO RJUNIAO UMB DOS CULTOS AFRO BRAS    30111810 000076
10231987175000168817800093673    000027154                    000271540000000000000109                     I0227154     30111800000000035003410000017N200818104700000000000103011180000000000000000000000000000000000000000100001796220728MARIA ROSA ALVES DA SILVA               RUA DOUTOR ARRUDA NEGREIRO              PARQUE SENHO25025325DUQUE DE CAXIASRJUNIAO UMB DOS CULTOS AFRO BRAS    30111810 000077
10231987175000168817800093673    000027145                    000271450000000000000109                     I3427145     30111800000000035003410000017N200818104700000000000103011180000000000000000000000000000000000000000100043082033768LEILA RAMOS DE OLIVEIRA                 RUA CAPIBARIBE                          CABUCU      26346290NOVA IGUACU    RJUNIAO UMB DOS CULTOS AFRO BRAS    30111810 000078
10231987175000168817800093673    000027064                    000270640000000000000109                     I0227064     30091800000000040003410000017N200818104700000000000103009180000000000000000000000000000000000000000100002098051700FELIPE LOPES DA COSTA CHAVES            RUA: JOSE PINTO FAUSTINO                IPIRANGA    26293441NOVA IGUACU    RJUNIAO UMB DOS CULTOS AFRO BRAS    30091810 000079
10231987175000168817800093673    000027056                    000270560000000000000109                     I0227056     30091800000000040003410000017N200818104700000000000103009180000000000000000000000000000000000000000100066645352700NILZA BELISARIO DAMIAO                  RUA ESPERANCA                           JARDIM PARAI00000000RIO DE JANEIRO RJUNIAO UMB DOS CULTOS AFRO BRAS    30091810 000080
10231987175000168817800093673    000027052                    000270520000000000000109                     I0227052     30091800000000040003410000017N200818104700000000000103009180000000000000000000000000000000000000000100053860225120OTILIA REGINA DE ALENCAR                RUA PROJETADA                           VERIDIANA   00000000RIO DE JANEIRO RJUNIAO UMB DOS CULTOS AFRO BRAS    30091810 000081
10231987175000168817800093673    000027046                    000270460000000000000109                     I0227046     30091800000000040003410000017N200818104700000000000103009180000000000000000000000000000000000000000100014328358740SILAS BARBOSA DE SOUZA                  ESTRADA REAL DE MAUA                    JARDIM DA PA25926684RIO DE JANEIRO RJUNIAO UMB DOS CULTOS AFRO BRAS    30091810 000082
10231987175000168817800093673    000027043                    000270430000000000000109                     I0227043     30091800000000035003410000017N200818104700000000000103009180000000000000000000000000000000000000000100005818072789MARLUCE MARIA DE OLIVEIRA               RUA PAHAND                              SANTA TEREZA26193500BELFORD ROXO   RJUNIAO UMB DOS CULTOS AFRO BRAS    30091810 000083
10231987175000168817800093673    000027038                    000270380000000000000109                     I0227038     30091800000000040003410000017N200818104700000000000103009180000000000000000000000000000000000000000100093265883787ROSANGELA BARBOSA DE CARVALHO           CAMINHO DOS TELEGRAFOS                  SENADOR CAMA21832415RIO DE JANEIRO RJUNIAO UMB DOS CULTOS AFRO BRAS    30091810 000084
10231987175000168817800093673    000027037                    000270370000000000000109                     I0227037     30091800000000040003410000017N200818104700000000000103009180000000000000000000000000000000000000000100010212584740TIAGO VEROL DE SOUZA                    RUA: REGISTRO                           SENADOR CAMA21832006RIO DE JANEIRO RJUNIAO UMB DOS CULTOS AFRO BRAS    30091810 000085
10231987175000168817800093673    000027033                    000270330000000000000109                     I0227033     30091800000000040003410000017N200818104700000000000103009180000000000000000000000000000000000000000100007416975727ANGELICA AMARAL GOTELIP BARBOS          RUA MARECHAL MARCIANO - TRAVESSA 120    REALENGO    21735652RIO DE JANEIRO RJUNIAO UMB DOS CULTOS AFRO BRAS    30091810 000086
10231987175000168817800093673    000027031                    000270310000000000000109                     I0227031     30091800000000035003410000017N200818104700000000000103009180000000000000000000000000000000000000000100009329422705FABIO SANTANA DE ANDRADE                RUA: LUIS BRAILE                        VILA SANTA M00000000RIO DE JANEIRO RJUNIAO UMB DOS CULTOS AFRO BRAS    30091810 000087
10231987175000168817800093673    000027030                    000270300000000000000109                     I0227030     30091800000000040003410000017N200818104700000000000103009180000000000000000000000000000000000000000100009297297730FLAVIO JOAQUIM DOS SANTOS               RUA: SAO PAULO                          PALMARES    23585800RIO DE JANEIRO RJUNIAO UMB DOS CULTOS AFRO BRAS    30091810 000088
10231987175000168817800093673    000027029                    000270290000000000000109                     I0227029     30091800000000040003410000017N200818104700000000000103009180000000000000000000000000000000000000000100005283706721LEVY ANDRE ASSIS FERREIRA DA S          TRAVESSA SANTO ANTONIO                  MARECHAL HER21557190RIO DE JANEIRO RJUNIAO UMB DOS CULTOS AFRO BRAS    30091810 000089
10231987175000168817800093673    000027028                    000270280000000000000109                     I0227028     30091800000000040003410000017N200818104700000000000103009180000000000000000000000000000000000000000100010440702771AMANDA APARECIDA AZEVEDO CARDO          RUA IVONETE                             CONJUNTO SAN00000000RIO DE JANEIRO RJUNIAO UMB DOS CULTOS AFRO BRAS    30091810 000090
10231987175000168817800093673    000027027                    000270270000000000000109                     I0227027     30091800000000040003410000017N200818104700000000000103009180000000000000000000000000000000000000000100011709590775JOYCE MARA PINHEIRO DA SILVA            RUA SILVIO TIBIRICA                     TURIACU     21540200RIO DE JANEIRO RJUNIAO UMB DOS CULTOS AFRO BRAS    30091810 000091
10231987175000168817800093673    000027025                    000270250000000000000109                     I0227025     30091800000000035003410000017N200818104700000000000103009180000000000000000000000000000000000000000100002305172770VALDIRENE ALBUQUERQUE MARCIEL           RUA GUARAGUATATUBA                      VILA ROSARIO25030040DUQUE DE CAXIASRJUNIAO UMB DOS CULTOS AFRO BRAS    30091810 000092
10231987175000168817800093673    000027024                    000270240000000000000109                     I0227024     30091800000000040003410000017N200818104700000000000103009180000000000000000000000000000000000000000100085737437787NIVALDA PIRES RUFINO                    RUA: MARIO CARPENTER                    ABOLICAO    20755065RIO DE JANEIRO RJUNIAO UMB DOS CULTOS AFRO BRAS    30091810 000093
10231987175000168817800093673    000027022                    000270220000000000000109                     I0227022     30091800000000035003410000017N200818104700000000000103009180000000000000000000000000000000000000000100005380679773ROBERTO DE OLIVEIRA RIBEIRO JU          RUA VINTE E TRES                        SANTA CRUZ  23500000RIO DE JANEIRO RJUNIAO UMB DOS CULTOS AFRO BRAS    30091810 000094
10231987175000168817800093673    000027019                    000270190000000000000109                     I0227019     30091800000000040003410000017N200818104700000000000103009180000000000000000000000000000000000000000100010486021769SIDNEY RODRIGUES DA SILVA JUNI          RUA DAS VIDEIRAS                        MORADA VERDE23065520PACIENCIA      RJUNIAO UMB DOS CULTOS AFRO BRAS    30091810 000095
10231987175000168817800093673    000027017                    000270170000000000000109                     I0227017     30091800000000035003410000017N200818104700000000000103009180000000000000000000000000000000000000000100003256338780REGINALDO ROSA DA SILVA                 RUA PAULO AFONSO                        IPIRANGA ALI26293381NOVA IGUACU    RJUNIAO UMB DOS CULTOS AFRO BRAS    30091810 000096
10231987175000168817800093673    000027016                    000270160000000000000109                     I0227016     30091800000000035003410000017N200818104700000000000103009180000000000000000000000000000000000000000100004474665775REGINALDO RAMOS DA SILVA                RUA JULIO DE CASTILHOS                  JARDIM ROTSE25270210DUQUE DE CAXIASRJUNIAO UMB DOS CULTOS AFRO BRAS    30091810 000097
10231987175000168817800093673    000027011                    000270110000000000000109                     I0227011     30091800000000035003410000017N200818104700000000000103009180000000000000000000000000000000000000000100093678754791ROSINETE MARIA DE OLIVEIRA              RUA ANGOLA                              CAPIVARI    25145080DUQUE DE CAXIASRJUNIAO UMB DOS CULTOS AFRO BRAS    30091810 000098
10231987175000168817800093673    000027010                    000270100000000000000109                     I0227010     30091800000000035003410000017N200818104700000000000103009180000000000000000000000000000000000000000100009289778709HELAINE FRANKLIN TEIXEIRA               RUA CACHOEIRA ALTA                      JARDIM MARAV23031070CAMPO GRANDE   RJUNIAO UMB DOS CULTOS AFRO BRAS    30091810 000099
10231987175000168817800093673    000027008                    000270080000000000000109                     I0227008     30091800000000035003410000017N200818104700000000000103009180000000000000000000000000000000000000000100001096953722CLAUDIA GUIMARAES                       ESTRADA GUANDU DO SENA - RUA 29         CAMPO GRANDE23091220RIO DE JANEIRO RJUNIAO UMB DOS CULTOS AFRO BRAS    30091810 000100
10231987175000168817800093673    000027005                    000270050000000000000109                     I0227005     30091800000000040003410000017N200818104700000000000103009180000000000000000000000000000000000000000100095760024787LUCIMARA DIAS DE OLIVEIRA               RUA SANTO ELIAS                         TURIACU     21540390RIO DE JANEIRO RJUNIAO UMB DOS CULTOS AFRO BRAS    30091810 000101
10231987175000168817800093673    000027003                    000270030000000000000109                     I0227003     30091800000000035003410000017N200818104700000000000103009180000000000000000000000000000000000000000100012218258790WILIAM ULERICH MARTINS                  RUA ANTONIO AUSTREGESILO                INHAUMA     21061300RIO DE JANEIRO RJUNIAO UMB DOS CULTOS AFRO BRAS    30091810 000102
10231987175000168817800093673    000027001                    000270010000000000000109                     I0227001     30091800000000035003410000017N200818104700000000000103009180000000000000000000000000000000000000000100009924715790JOSEFA MARIA DA SILVA                   TRAVESSA DOS LAVRADORES                 VILA SAO DOM26271340NOVA IGUACU    RJUNIAO UMB DOS CULTOS AFRO BRAS    30091810 000103
10231987175000168817800093673    000027000                    000270000000000000000109                     I0227000     30091800000000035003410000017N200818104700000000000103009180000000000000000000000000000000000000000100012687881716DAIANA SANTANA DE LIMA                  RUA MANAUS                              CAMPOS ELISE25225000DUQUE DE CAXIASRJUNIAO UMB DOS CULTOS AFRO BRAS    30091810 000104
10231987175000168817800093673    000026999                    000269990000000000000109                     I0226999     30091800000000035003410000017N200818104700000000000103009180000000000000000000000000000000000000000100007040620707MONICA BORGES MATTOS                    RUA INHAMUNS                            VILA VALQUEI21321330RIO DE JANEIRO RJUNIAO UMB DOS CULTOS AFRO BRAS    30091810 000105
10231987175000168817800093673    000026997                    000269970000000000000109                     I0226997     30091800000000035003410000017N200818104700000000000103009180000000000000000000000000000000000000000100093255586704GRECIETE GOUDARD                        ESTRADA DO CAMPINHO                     CAMPO GRANDE23066540RIO DE JANEIRO RJUNIAO UMB DOS CULTOS AFRO BRAS    30091810 000106
10231987175000168817800093673    000026995                    000269950000000000000109                     I0226995     30091800000000035003410000017N200818104700000000000103009180000000000000000000000000000000000000000100005229971711CATIA CILENE MASCARENHAS                TRAVESSA AMOR DO CAMPO                  CONJUNTO SAN21843743CAMPO GRANDE   RJUNIAO UMB DOS CULTOS AFRO BRAS    30091810 000107
10231987175000168817800093673    000026994                    000269940000000000000109                     I0226994     30091800000000035003410000017N200818104700000000000103009180000000000000000000000000000000000000000100089982118749LENIR SILVA DOS SANTOS                  RUA DA LUTA                             JARDIM LARAN26291278RIO DE JANEIRO RJUNIAO UMB DOS CULTOS AFRO BRAS    30091810 000108
10231987175000168817800093673    000026990                    000269900000000000000109                     I0226990     30091800000000040003410000017N200818104700000000000103009180000000000000000000000000000000000000000100064494527734RONALDO ROSAS ALVES                     ESTRADA COMANDANTE                      PRATA       25976140TERESOPOLIS    RJUNIAO UMB DOS CULTOS AFRO BRAS    30091810 000109
10231987175000168817800093673    000026983                    000269830000000000000109                     I0226983     30091800000000040003410000017N200818104700000000000103009180000000000000000000000000000000000000000100012295676746JEFFERSON ANTONIO TELLES GALDI          RUA MOUZIN DE ALBUQUERQUE               SAO VICENTE 26178080BELFORD ROXO   RJUNIAO UMB DOS CULTOS AFRO BRAS    30091810 000110
10231987175000168817800093673    000026982                    000269820000000000000109                     I0226982     30091800000000040003410000017N200818104700000000000103009180000000000000000000000000000000000000000100091083532715MARCOS AURELIO PEREIRA RAMOS            RUA MATO GROSSO                         SANTA CECILI25957250TERESOPOLIS    RJUNIAO UMB DOS CULTOS AFRO BRAS    30091810 000111
10231987175000168817800093673    000026980                    000269800000000000000109                     I0226980     30091800000000035003410000017N200818104700000000000103009180000000000000000000000000000000000000000100005436665730JORGE LUIZ VICTORIO LIMA                AVENIDA MARCOVALDI                      NOVA ESPERAN26113040BELFORD ROXO   RJUNIAO UMB DOS CULTOS AFRO BRAS    30091810 000112
10231987175000168817800093673    000026978                    000269780000000000000109                     I0226978     30091800000000035003410000017N200818104700000000000103009180000000000000000000000000000000000000000100003250570596VERONICA LUCIA DA CRUZ                  ESTRADA DOUTOR FARRULA                  SAO FRANCISC26125400BELFORD ROXO   RJUNIAO UMB DOS CULTOS AFRO BRAS    30091810 000113
10231987175000168817800093673    000026977                    000269770000000000000109                     I0226977     30091800000000035003410000017N200818104700000000000103009180000000000000000000000000000000000000000100002527980740ARMANDO DE ALMEIDA                      RUA PEDRO JOSE DE OLIVEIRA              VARGEM GRAND27145231BARRA DO PIRAI RJUNIAO UMB DOS CULTOS AFRO BRAS    30091810 000114
10231987175000168817800093673    000026976                    000269760000000000000109                     I0226976     30091800000000035003410000017N200818104700000000000103009180000000000000000000000000000000000000000100005978854785ALEXANDRE MOTA DOS SANTOS               RUA BRUNO SENDER                        JARDIM NOVA 26266040NOVA IGUACU    RJUNIAO UMB DOS CULTOS AFRO BRAS    30091810 000115
10231987175000168817800093673    000026970                    000269700000000000000109                     I0226970     30091800000000035003410000017N200818104700000000000103009180000000000000000000000000000000000000000100002176741781SUSI DE OLIVEIRA LOUREIRO               RUA FATIMA CRISTINA                     ROSA DOS VEN26278525RIO DE JANEIRO RJUNIAO UMB DOS CULTOS AFRO BRAS    30091810 000116
10231987175000168817800093673    000026969                    000269690000000000000109                     I0226969     30091800000000035003410000017N200818104700000000000103009180000000000000000000000000000000000000000100095846190715ANA MARIA NICANOR DE QUADRO             RUA PASSO FUNDO                         JARDIM GUAND26298189NOVA IGUACU    RJUNIAO UMB DOS CULTOS AFRO BRAS    30091810 000117
10231987175000168817800093673    000026968                    000269680000000000000109                     I0226968     30091800000000035003410000017N200818104700000000000103009180000000000000000000000000000000000000000100001161586709ALEXANDRE PIMPAREL DA SILVA             RUA: COMENDADOR VENACIO                 PALHADA     26290204NOVA IGUACU    RJUNIAO UMB DOS CULTOS AFRO BRAS    30091810 000118
10231987175000168817800093673    000026967                    000269670000000000000109                     I0226967     30091800000000035003410000017N200818104700000000000103009180000000000000000000000000000000000000000100000000000000FABIO DA SILVA                          RUA CAMORIM                             JARDIM DELAM26317140QUEIMADOS      RJUNIAO UMB DOS CULTOS AFRO BRAS    30091810 000119
10231987175000168817800093673    000026966                    000269660000000000000109                     I0226966     30091800000000035003410000017N200818104700000000000103009180000000000000000000000000000000000000000100010765062755IVONE JOAO PEDRO                        RUA MARMIARI                            SENADOR CAMA21831000RIO DE JANEIRO RJUNIAO UMB DOS CULTOS AFRO BRAS    30091810 000120
10231987175000168817800093673    000026965                    000269650000000000000109                     I0226965     30091800000000035003410000017N200818104700000000000103009180000000000000000000000000000000000000000100085957679720MARIA DA APARECIDA VICENTE DUQ          RUA FRANCISCO VIOLTI                    HELIOPLOIS  26125440BELFORD ROXO   RJUNIAO UMB DOS CULTOS AFRO BRAS    30091810 000121
10231987175000168817800093673    000026963                    000269630000000000000109                     I0226963     30091800000000035003410000017N200818104700000000000103009180000000000000000000000000000000000000000100010018753701PAULA DE BRITO                          RUA FRANCISCO VIOLTE                    HELIOPOLIS  26125440RIO DE JANEIRO RJUNIAO UMB DOS CULTOS AFRO BRAS    30091810 000122
10231987175000168817800093673    000026959                    000269590000000000000109                     I0226959     30091800000000035003410000017N200818104700000000000103009180000000000000000000000000000000000000000100058756280734SANDRA REGINA DA CONCEICAO              RUA BUENOS AIRES                        JARDIM PERNA26275390NOVA IGUACU    RJUNIAO UMB DOS CULTOS AFRO BRAS    30091810 000123
10231987175000168817800093673    000026955                    000269550000000000000109                     I0226955     30091800000000035003410000017N200818104700000000000103009180000000000000000000000000000000000000000100000858723778GEOVANI FERNANDA DA SILVA               RUA SOFIA BARRETO                       DUMAS - SANT23550700RIO DE JANEIRO RJUNIAO UMB DOS CULTOS AFRO BRAS    30091810 000124
10231987175000168817800093673    000026953                    000269530000000000000109                     I0226953     30091800000000035003410000017N200818104700000000000103009180000000000000000000000000000000000000000100000919377793JOSE IVAN MARCELINO FILHO               RUA ERNANE PEREIRA                      CARLOS SAMPA26089115NOVA IGUACU    RJUNIAO UMB DOS CULTOS AFRO BRAS    30091810 000125
10231987175000168817800093673    000026952                    000269520000000000000109                     I0226952     30091800000000035003410000017N200818104700000000000103009180000000000000000000000000000000000000000100001649750714CRISTIANE JOSE DA SILVA                 AVENIDA CALOMBE                         PARQUE ELDOR25231020DUQUE DE CAXIASRJUNIAO UMB DOS CULTOS AFRO BRAS    30091810 000126
10231987175000168817800093673    000026947                    000269470000000000000109                     I0226947     30091800000000040003410000017N200818104700000000000103009180000000000000000000000000000000000000000100005234258726LUANNA RODRIGUES NASCIMENTO LO          RUA SETE                                VALERIO     28680000CACHOEIRA DE MARJUNIAO UMB DOS CULTOS AFRO BRAS    30091810 000127
10231987175000168817800093673    000026946                    000269460000000000000109                     I0226946     30091800000000040003410000017N200818104700000000000103009180000000000000000000000000000000000000000100005770480742NARAYAMA MARTINS RODRIGUES LOU          RUA NABYCALIFA                          TABORDA     28680000CACHOEIRA DE MARJUNIAO UMB DOS CULTOS AFRO BRAS    30091810 000128
10231987175000168817800093673    000026945                    000269450000000000000109                     I0226945     30091800000000040003410000017N200818104700000000000103009180000000000000000000000000000000000000000100002965368736REGINA CONCEICAO                        AVENIDA BOQUEIRAO                       BOA VISTA   28680000CACHOEIRA DE MARJUNIAO UMB DOS CULTOS AFRO BRAS    30091810 000129
10231987175000168817800093673    000026944                    000269440000000000000109                     I0226944     30091800000000040003410000017N200818104700000000000103009180000000000000000000000000000000000000000100009963194761FERNANDO PECANHA PIRES                  RUA GENERAL BASILIO                     TABORDA     28680000CACHOEIRA DE MARJUNIAO UMB DOS CULTOS AFRO BRAS    30091810 000130
10231987175000168817800093673    000026942                    000269420000000000000109                     I0226942     30091800000000035003410000017N200818104700000000000103009180000000000000000000000000000000000000000100002331392730ANA MARIA DOS SANTOS VIEIRA             RUA OITO                                PARQUE ALVOR26053220NOVA IGUACU    RJUNIAO UMB DOS CULTOS AFRO BRAS    30091810 000131
10231987175000168817800093673    000026940                    000269400000000000000109                     I0226940     30091800000000035003410000017N200818104700000000000103009180000000000000000000000000000000000000000100003018847733MARIA AILHA BERNARDO PINTO              RUA RUBIAO JUNIOR                       CENTRO      23860000MANGARATIBA    RJUNIAO UMB DOS CULTOS AFRO BRAS    30091810 000132
10231987175000168817800093673    000026938                    000269380000000000000109                     I0226938     30091800000000035003410000017N200818104700000000000103009180000000000000000000000000000000000000000100012345678910LUCIANO GONCALVES DE SOUZA              RUA CLARIMUNDO DE MELO                  PIEDADE     20740323RIO DE JANEIRO RJUNIAO UMB DOS CULTOS AFRO BRAS    30091810 000133
10231987175000168817800093673    000026937                    000269370000000000000109                     I0226937     30091800000000035003410000017N200818104700000000000103009180000000000000000000000000000000000000000100001162883707SUNEY MENEZES MACHADO                   ESTRADA DO ENCANAMENTO                  BARBADO     23060000RIO DE JANEIRO RJUNIAO UMB DOS CULTOS AFRO BRAS    30091810 000134
10231987175000168817800093673    000026935                    000269350000000000000109                     I0226935     30091800000000035003410000017N200818104700000000000103009180000000000000000000000000000000000000000100007852297790IRENE FRANCISCO LIMA                    RUA VIRGILIO VARZEA                     VILA SAO LUI25051110DUQUE DE CAXIASRJUNIAO UMB DOS CULTOS AFRO BRAS    30091810 000135
10231987175000168817800093673    000026933                    000269330000000000000109                     I0226933     30091800000000035003410000017N200818104700000000000103009180000000000000000000000000000000000000000100050246534753TANIA MARIA DA SILVA OLIVEIRA           TRAVESSA MARAJO                         LINDO PARQUE24420100SAO GONCALO    RJUNIAO UMB DOS CULTOS AFRO BRAS    30091810 000136
10231987175000168817800093673    000026929                    000269290000000000000109                     I0226929     30091800000000035003410000017N200818104700000000000103009180000000000000000000000000000000000000000100003387547720APARECIDA DOS SANTOS                    RUA CRACATUA                            HELIOPOLIS  26125170BELFORD ROXO   RJUNIAO UMB DOS CULTOS AFRO BRAS    30091810 000137
10231987175000168817800093673    000026928                    000269280000000000000109                     I0226928     30091800000000035003410000017N200818104700000000000103009180000000000000000000000000000000000000000100009409455766DANIELE MARTINS MEDEIROS DE FR          RUA D                                   BELA VISTA  23860000MANGARATIBA    RJUNIAO UMB DOS CULTOS AFRO BRAS    30091810 000138
10231987175000168817800093673    000026927                    000269270000000000000109                     I0226927     30091800000000035003410000017N200818104700000000000103009180000000000000000000000000000000000000000100090219023700GUARACIARA CORREA PASCHOAL              RUA JOSE CABRAL                         VAL VERDE   26290783NOVA IGUACU    RJUNIAO UMB DOS CULTOS AFRO BRAS    30091810 000139
10231987175000168817800093673    000026924                    000269240000000000000109                     I0226924     30091800000000035003410000017N200818104700000000000103009180000000000000000000000000000000000000000100023970090563MARCIA VIEIRA SALES                     RUA LOPO SARAIVA                        TANQUE - JAC22740220RIO DE JANEIRO RJUNIAO UMB DOS CULTOS AFRO BRAS    30091810 000140
10231987175000168817800093673    000026922                    000269220000000000000109                     I0226922     30091800000000035003410000017N200818104700000000000103009180000000000000000000000000000000000000000100006726905432DAYVIDY RAMON CANDIDO                   RUA MARACA                              PARQUE MUCAJ26415055JAPERI         RJUNIAO UMB DOS CULTOS AFRO BRAS    30091810 000141
10231987175000168817800093673    000026920                    000269200000000000000109                     I0226920     30091800000000035003410000017N200818104700000000000103009180000000000000000000000000000000000000000100009445907728VICTOR DOS SANTOS ALLEN                 RUA PEDRO TELES                         CENTRO      25515032SAO JOAO DE MERRJUNIAO UMB DOS CULTOS AFRO BRAS    30091810 000142
10231987175000168817800093673    000026919                    000269190000000000000109                     I0226919     30091800000000035003410000017N200818104700000000000103009180000000000000000000000000000000000000000100011549239759RENATA DE OLIVEIRA GASPAR               RUA GUANABARA                           MADUREIRA   21350230RIO DE JANEIRO RJUNIAO UMB DOS CULTOS AFRO BRAS    30091810 000143
10231987175000168817800093673    000026918                    000269180000000000000109                     I0226918     30091800000000035003410000017N200818104700000000000103009180000000000000000000000000000000000000000100009145082707ELAINE CRISTINA DE MORAES               RUA GENTIL DO OURO                      AGUIAR TORRE23063340INHOAIBA       RJUNIAO UMB DOS CULTOS AFRO BRAS    30091810 000144
10231987175000168817800093673    000026917                    000269170000000000000109                     I0226917     30091800000000035003410000017N200818104700000000000103009180000000000000000000000000000000000000000100015429555134OBIRACI SILVA DO NASCIMENTO             ESTRADA VELHA DE MARICA                 MARIA PAULA 24756280SAO GONCALO    RJUNIAO UMB DOS CULTOS AFRO BRAS    30091810 000145
10231987175000168817800093673    000026915                    000269150000000000000109                     I0226915     30091800000000035003410000017N200818104700000000000103009180000000000000000000000000000000000000000100000000000000LUCIANO SOARES DA SILVA                 RUA MEDEIROS AGUAS MARAVILHOSAS         LINHA AZUL  27910000MACAE          RJUNIAO UMB DOS CULTOS AFRO BRAS    30091810 000146
10231987175000168817800093673    000026914                    000269140000000000000109                     I0226914     30091800000000035003410000017N200818104700000000000103009180000000000000000000000000000000000000000100013849060705LEONARDO ENEDINA DE MELO                RUA JULIO VERNER                        SANTA RITA  26050517NOVA IGUACU    RJUNIAO UMB DOS CULTOS AFRO BRAS    30091810 000147
10231987175000168817800093673    000026913                    000269130000000000000109                     I0226913     30091800000000035003410000017N200818104700000000000103009180000000000000000000000000000000000000000100082391106734CASSIO SOUZA DA COSTA                   RUA RIACHUELO                           JARDIM ESTOR26112220BELFORD ROXO   RJUNIAO UMB DOS CULTOS AFRO BRAS    30091810 000148
10231987175000168817800093673    000026912                    000269120000000000000109                     I0226912     30091800000000035003410000017N200818104700000000000103009180000000000000000000000000000000000000000100087798999787NILZETE DA CONCEICAO FELIX              RUA PROJETADA                           JARDIM ANHAN25264030DUQUE DE CAXIASRJUNIAO UMB DOS CULTOS AFRO BRAS    30091810 000149
10231987175000168817800093673    000026908                    000269080000000000000109                     I0226908     30091800000000035003410000017N200818104700000000000103009180000000000000000000000000000000000000000100004474701755JACIRA DE ALMEIDA BATISTA JULI          AVENIDA SAO PAULO                       PARQUE MARIL25225660DUQUE DE CAXIASRJUNIAO UMB DOS CULTOS AFRO BRAS    30091810 000150
10231987175000168817800093673    000026905                    000269050000000000000109                     I0226905     30091800000000035003410000017N200818104700000000000103009180000000000000000000000000000000000000000100009250353782LUIZ CARLOS MATOLA                      APIACA                                  JARDIM PRIMA25056270DUQUE DE CAXIASRJUNIAO UMB DOS CULTOS AFRO BRAS    30091810 000151
10231987175000168817800093673    000026904                    000269040000000000000109                     I0226904     30091800000000035003410000017N200818104700000000000103009180000000000000000000000000000000000000000100012345678910LUCIANA LUISA PEREIRA                   TRAVESSA JOAO DE BARRO                  LAGOMAR     27966870MACAE          RJUNIAO UMB DOS CULTOS AFRO BRAS    30091810 000152
10231987175000168817800093673    000026903                    000269030000000000000109                     I0226903     30091800000000035003410000017N200818104700000000000103009180000000000000000000000000000000000000000100012464631728DIEGO TACITO COSTA HENRIQUE             RUA YONE MUSSI                          MALVINAS    27946310MACAE          RJUNIAO UMB DOS CULTOS AFRO BRAS    30091810 000153
10231987175000168817800093673    000026902                    000269020000000000000109                     I0226902     30091800000000035003410000017N200818104700000000000103009180000000000000000000000000000000000000000100001768493782MARIA DA PENHA CORREA PINTO             RUA UM                                  BOSQUE AZUL 27971250MACAE          RJUNIAO UMB DOS CULTOS AFRO BRAS    30091810 000154
10231987175000168817800093673    000026901                    000269010000000000000109                     I0226901     30091800000000035003410000017N200818104700000000000103009180000000000000000000000000000000000000000100078514533568PAULO SERGIO SANTOS SANTANA             RUA W                                   LAGOMAR     27966590MACAE          RJUNIAO UMB DOS CULTOS AFRO BRAS    30091810 000155
10231987175000168817800093673    000026899                    000268990000000000000109                     I0226899     30091800000000035003410000017N200818104700000000000103009180000000000000000000000000000000000000000100007208431701WEMERSON JOAO FARIAS DA SILVA           RUA: C                                  SEPETIBA    23545040RIO DE JANEIRO RJUNIAO UMB DOS CULTOS AFRO BRAS    30091810 000156
10231987175000168817800093673    000026898                    000268980000000000000109                     I0226898     30091800000000035003410000017N200818104700000000000103009180000000000000000000000000000000000000000100073960560710CLAUDIA MARIA DE OLIVEIRA DOS           RUA CARATUVA                            JARDIM SULAC22725020RIO DE JANEIRO RJUNIAO UMB DOS CULTOS AFRO BRAS    30091810 000157
10231987175000168817800093673    000026897                    000268970000000000000109                     I0226897     30091800000000035003410000017N200818104700000000000103009180000000000000000000000000000000000000000100014933850704LIDIA GABRIELLE DIAS RIBEIRO            RUA JORGE BRAGANCA                      BOM PASTOR  26110080BELFORD ROXO   RJUNIAO UMB DOS CULTOS AFRO BRAS    30091810 000158
10231987175000168817800093673    000026895                    000268950000000000000109                     I0226895     30091800000000035003410000017N200818104700000000000103009180000000000000000000000000000000000000000100001478776790CLEUSA FERREIRA PEREIRA                 RUA THEREMIN                            COELHO NETO 21530290RIO DE JANEIRO RJUNIAO UMB DOS CULTOS AFRO BRAS    30091810 000159
10231987175000168817800093673    000026894                    000268940000000000000109                     I0226894     30091800000000035003410000017N200818104700000000000103009180000000000000000000000000000000000000000100067424647734MARCIA VALERIA VALIATI DOS SAN          RUA GOMES CARNEIRO                      VILA URUSSA√20735090RIO DE JANEIRO RJUNIAO UMB DOS CULTOS AFRO BRAS    30091810 000160
10231987175000168817800093673    000026893                    000268930000000000000109                     I0226893     30091800000000035003410000017N200818104700000000000103009180000000000000000000000000000000000000000100010292272766MARCIA JUPIRA SANTOS GONZAGA            RUA ANTONIO FELIX                       CENTRO      26520081NILOPOLIS      RJUNIAO UMB DOS CULTOS AFRO BRAS    30091810 000161
10231987175000168817800093673    000026892                    000268920000000000000109                     I0226892     30091800000000035003410000017N200818104700000000000103009180000000000000000000000000000000000000000100090490894704EVELINE DA CONCEICAO                    AVENIDA ATLANTIDA                       LAGOMAR     27966000MACAE          RJUNIAO UMB DOS CULTOS AFRO BRAS    30091810 000162
10231987175000168817800093673    000026891                    000268910000000000000109                     I0226891     30091800000000035003410000017N200818104700000000000103009180000000000000000000000000000000000000000100013397736781JOVANE RANGEL DA SILVA                  RUA SILVA JARDIM                        CENTRO      27910340MACAE          RJUNIAO UMB DOS CULTOS AFRO BRAS    30091810 000163
10231987175000168817800093673    000026890                    000268900000000000000109                     I0226890     30091800000000035003410000017N200818104700000000000103009180000000000000000000000000000000000000000100004188514760LUIZ CARLOS PEREIRA DA SILVA            RUA W                                   LAGOMAR     27966755MACAE          RJUNIAO UMB DOS CULTOS AFRO BRAS    30091810 000164
10231987175000168817800093673    000026889                    000268890000000000000109                     I0226889     30091800000000035003410000017N200818104700000000000103009180000000000000000000000000000000000000000100016492108760TIAGO LOPES DE AZEVEDO SILVA            RUA X                                   PARADA MODEL25943365GUAPIMIRIM     RJUNIAO UMB DOS CULTOS AFRO BRAS    30091810 000165
10231987175000168817800093673    000026888                    000268880000000000000109                     I0226888     30091800000000035003410000017N200818104700000000000103009180000000000000000000000000000000000000000100000000000000LEONARDO EUGENIO DOS SANTOS             RUA LUIZ PINTO DA SILVA                 PRAIA CAMPIS27923200MACAE          RJUNIAO UMB DOS CULTOS AFRO BRAS    30091810 000166
10231987175000168817800093673    000026887                    000268870000000000000109                     I0226887     30091800000000035003410000017N200818104700000000000103009180000000000000000000000000000000000000000100095181890725ALEXANDRE DE SOUZA TAVARES SEN          RUA DOM MANOEL                          DOM RODRIGO 26260230NOVA IGUACU    RJUNIAO UMB DOS CULTOS AFRO BRAS    30091810 000167
10231987175000168817800093673    000026886                    000268860000000000000109                     I0226886     30091800000000035003410000017N200818104700000000000103009180000000000000000000000000000000000000000100014527767763THIERRY PADILHA MOTA                    RUA ALCIR BRASIL                        JARDIM NOVA 26266010NOVA IGUACU    RJUNIAO UMB DOS CULTOS AFRO BRAS    30091810 000168
10231987175000168817800093673    000026885                    000268850000000000000109                     I0226885     30091800000000035003410000017N200818104700000000000103009180000000000000000000000000000000000000000100011122717750RODRIGO DINIZ DA COSTA                  RUA ENGENHO DE DENTRO                   VILAR DOS TE25565230SAO JOAO DE MERRJUNIAO UMB DOS CULTOS AFRO BRAS    30091810 000169
10231987175000168817800093673    000026884                    000268840000000000000109                     I0226884     30091800000000035003410000017N200818104700000000000103009180000000000000000000000000000000000000000100013090350750REINALDO GONCALVES DE OLIVEIRA          RUA DOMINGOS LEMOS                      COELHO DA RO25550721SAO JOAO DE MERRJUNIAO UMB DOS CULTOS AFRO BRAS    30091810 000170
10231987175000168817800093673    000026883                    000268830000000000000109                     I0226883     30091800000000035003410000017N200818104700000000000103009180000000000000000000000000000000000000000100005953749724JUCIARA DA SILVA XAVIER                 RUA CONDE DE AZAMBUJA                   MARIA DA GRA20785342RIO DE JANEIRO RJUNIAO UMB DOS CULTOS AFRO BRAS    30091810 000171
10231987175000168817800093673    000026882                    000268820000000000000109                     I0226882     30091800000000035003410000017N200818104700000000000103009180000000000000000000000000000000000000000100006110323764WAGNER MATOS DA SILVA                   RUA OLINDA                              BELA VISTA  26175350BELFORD ROXO   RJUNIAO UMB DOS CULTOS AFRO BRAS    30091810 000172
10231987175000168817800093673    000026881                    000268810000000000000109                     I0226881     30091800000000035003410000017N200818104700000000000103009180000000000000000000000000000000000000000100092111777749WANDERLEY DOS SANTOS MENDES             PRACA EMBOABA                           ENGENHO DA R20761160RIO DE JANEIRO RJUNIAO UMB DOS CULTOS AFRO BRAS    30091810 000173
10231987175000168817800093673    000026880                    000268800000000000000109                     I0226880     30091800000000035003410000017N200818104700000000000103009180000000000000000000000000000000000000000100009416663794IGOR DO NASCIMENTO RODRIGUES            RUA FIGUEIREDO ROCHA                    VIGARIO GERA21240660RIO DE JANEIRO RJUNIAO UMB DOS CULTOS AFRO BRAS    30091810 000174
10231987175000168817800093673    000026879                    000268790000000000000109                     I0226879     30091800000000035003410000017N200818104700000000000103009180000000000000000000000000000000000000000100090432894772ALTAMIRO DAMASCENO MONCAO               RUA TENERIFE                            PARADA DE LU21010000RIO DE JANEIRO RJUNIAO UMB DOS CULTOS AFRO BRAS    30091810 000175
10231987175000168817800093673    000026878                    000268780000000000000109                     I0226878     30091800000000035003410000017N200818104700000000000103009180000000000000000000000000000000000000000100040664325734GENI BARBOSA ROCHA DA SILVA             TRAVESSA DA AMIZADE                     VILA DA PENH25268020RIO DE JANEIRO RJUNIAO UMB DOS CULTOS AFRO BRAS    30091810 000176
10231987175000168817800093673    000026877                    000268770000000000000109                     I0226877     30091800000000035003410000017N200818104700000000000103009180000000000000000000000000000000000000000100011834931770LEANDRO BARROS DA SILVA                 RUA ROMARIO SILVA                       KENNEDY     26020640NOVA IGUACU    RJUNIAO UMB DOS CULTOS AFRO BRAS    30091810 000177
10231987175000168817800093673    000026873                    000268730000000000000109                     I0226873     30091800000000035003410000017N200818104700000000000103009180000000000000000000000000000000000000000100060210389753ROZANA DOS SANTOS                       RUA CAFE FILHO                          INHOAIBA    23060720RIO DE JANEIRO RJUNIAO UMB DOS CULTOS AFRO BRAS    30091810 000178
10231987175000168817800093673    000026872                    000268720000000000000109                     I0226872     30091800000000035003410000017N200818104700000000000103009180000000000000000000000000000000000000000100088041883753JORGE COSTA BRAGA FILHO                 RUA CENTO E VINTE E TRES                MAUA        25900000RIO DE JANEIRO RJUNIAO UMB DOS CULTOS AFRO BRAS    30091810 000179
10231987175000168817800093673    000026870                    000268700000000000000109                     I0226870     30091800000000035003410000017N200818104700000000000103009180000000000000000000000000000000000000000100005234763706LUCIANA FERREIRA DE ALMEIDA             RUA QUATRO                              PARADA MORAB25265220DUQUE DE CAXIASRJUNIAO UMB DOS CULTOS AFRO BRAS    30091810 000180
10231987175000168817800093673    000026869                    000268690000000000000109                     I0226869     30091800000000035003410000017N200818104700000000000103009180000000000000000000000000000000000000000100012009305760DEBORA CRISTINA DE OLIVEIRA BR          RUA LORD COCHRANE                       IBIRAPITANGA23811810ITAGUAI        RJUNIAO UMB DOS CULTOS AFRO BRAS    30091810 000181
10231987175000168817800093673    000026868                    000268680000000000000109                     I0226868     30091800000000035003410000017N200818104700000000000103009180000000000000000000000000000000000000000100000759136742ADRIANA LAPORT ALVES                    RUA DONA CLARA DE ARAUJO                ANDRADE ARAU26010390NOVA IGUACU    RJUNIAO UMB DOS CULTOS AFRO BRAS    30091810 000182
10231987175000168817800093673    000026867                    000268670000000000000109                     I0226867     30091800000000035003410000017N200818104700000000000103009180000000000000000000000000000000000000000100058365737787ALTAMIRA ROSA                           AVENIDA DO CONTORNO                     PARADA MORAB25000000DUQUE DE CAXIASRJUNIAO UMB DOS CULTOS AFRO BRAS    30091810 000183
10231987175000168817800093673    000026866                    000268660000000000000109                     I0226866     30091800000000035003410000017N200818104700000000000103009180000000000000000000000000000000000000000100074171372704ELIANE DE SOUZA MACHADO                 RUA ROQUETE PINTO                       JARDIM ANHAN25265200DUQUE DE CAXIASRJUNIAO UMB DOS CULTOS AFRO BRAS    30091810 000184
10231987175000168817800093673    000026864                    000268640000000000000109                     I0226864     30091800000000035003410000017N200818104700000000000103009180000000000000000000000000000000000000000100082191638791RITA DE CASSIA VALVERDE ROCHA           RUA JOAQUIM SOARES NETO                 NOVA AMERICA26021560NOVA IGUACU    RJUNIAO UMB DOS CULTOS AFRO BRAS    30091810 000185
10231987175000168817800093673    000026861                    000268610000000000000109                     I0226861     30091800000000035003410000017N200818104700000000000103009180000000000000000000000000000000000000000100012727461780SUELMIR LIMA DE ARAUJO                  RUA NOSSA SENHORA DAS GRACAS            PRAIA DO ANI25925708MAGE           RJUNIAO UMB DOS CULTOS AFRO BRAS    30091810 000186
10231987175000168817800093673    000026859                    000268590000000000000109                     I0226859     30091800000000035003410000017N200818104700000000000103009180000000000000000000000000000000000000000100011351878786GLEISSON BITTENCOURT DA SILVA           RUA FLORA DE ARAUJO                     PRATA       26010570NOVA IGUACU    RJUNIAO UMB DOS CULTOS AFRO BRAS    30091810 000187
10231987175000168817800093673    000026855                    000268550000000000000109                     I0226855     30091800000000035003410000017N200818104700000000000103009180000000000000000000000000000000000000000100015110892709YASMIN FIALHO HANGES                    ESTRADA HENRIQUE DE MELO                BENTO RIBEIR21340190RIO DE JANEIRO RJUNIAO UMB DOS CULTOS AFRO BRAS    30091810 000188
10231987175000168817800093673    000026854                    000268540000000000000109                     I0226854     30091800000000035003410000017N200818104700000000000103009180000000000000000000000000000000000000000100030894840720LIGIA REGINA ZACHARIAS DE MELO          RUA MANAPA                              VALVERDE    21051360RIO DE JANEIRO RJUNIAO UMB DOS CULTOS AFRO BRAS    30091810 000189
10231987175000168817800093673    000026852                    000268520000000000000109                     I0226852     30091800000000035003410000017N200818104700000000000103009180000000000000000000000000000000000000000100047442140700MARFIZA FERREIRA DA SILVA VENA          RUA EURICO COELHO                       GRAMA       26060650NOVA IGUACU    RJUNIAO UMB DOS CULTOS AFRO BRAS    30091810 000190
10231987175000168817800093673    000026850                    000268500000000000000109                     I0226850     30091800000000035003410000017N200818104700000000000103009180000000000000000000000000000000000000000100093788150734REGINA DA SILVA VERONEZI DOS S          RUA ABATE                               JARDIM CANAA26263040NOVA IGUACU    RJUNIAO UMB DOS CULTOS AFRO BRAS    30091810 000191
10231987175000168817800093673    000026848                    000268480000000000000109                     I0226848     30091800000000035003410000017N200818104700000000000103009180000000000000000000000000000000000000000100092645933734ROSINEA PRECIOSO DE OLIVEIRA            RUA PROFESSORA MARLY CARVALHO PEREIRA   MIGUEL COUTO26070452NOVA IGUACU    RJUNIAO UMB DOS CULTOS AFRO BRAS    30091810 000192
10231987175000168817800093673    000026845                    000268450000000000000109                     I0226845     30091800000000035003410000017N200818104700000000000103009180000000000000000000000000000000000000000100080578063700SANDRA REGINA NEVES CHAGAS              RUA MARIA LOURENCO                      JARDIM PRIMA25215367DUQUE DE CAXIASRJUNIAO UMB DOS CULTOS AFRO BRAS    30091810 000193
10231987175000168817800093673    000026841                    000268410000000000000109                     I0226841     30091800000000035003410000017N200818104700000000000103009180000000000000000000000000000000000000000100010276278704ROSELI DE OLIVEIRA DUTRA                RUA UM                                  TAQUARA     25275110DUQUE DE CAXIASRJUNIAO UMB DOS CULTOS AFRO BRAS    30091810 000194
10231987175000168817800093673    000026840                    000268400000000000000109                     I0226840     30091800000000035003410000017N200818104700000000000103009180000000000000000000000000000000000000000100005633721735MARCOS AURELIO PAULINO FLORIAN          RUA LEONEL ROCHA                        GUARATIBA   23032460RIO DE JANEIRO RJUNIAO UMB DOS CULTOS AFRO BRAS    30091810 000195
10231987175000168817800093673    000026839                    000268390000000000000109                     I0226839     30091800000000035003410000017N200818104700000000000103009180000000000000000000000000000000000000000100000000000000VIVIANE MORAES ALEXANDRINO              RUA JOAQUIM MOREIRA                     SEPETIBA    23545054RIO DE JANEIRO RJUNIAO UMB DOS CULTOS AFRO BRAS    30091810 000196
10231987175000168817800093673    000026838                    000268380000000000000109                     I0226838     30091800000000035003410000017N200818104700000000000103009180000000000000000000000000000000000000000100004277956726ROSANA OLIVEIRA GUEDES                  RUA CARDOSO QUINTAO                     PIEDADE     21381460RIO DE JANEIRO RJUNIAO UMB DOS CULTOS AFRO BRAS    30091810 000197
10231987175000168817800093673    000026837                    000268370000000000000109                     I0226837     30091800000000035003410000017N200818104700000000000103009180000000000000000000000000000000000000000100001972684710ALEXANDRE MALAQUIAS DE SOUSA P          AVENIDA NELSON DE AQUINO                COROA GRANDE23825670ITAGUAI        RJUNIAO UMB DOS CULTOS AFRO BRAS    30091810 000198
10231987175000168817800093673    000026835                    000268350000000000000109                     I0226835     30091800000000035003410000017N200818104700000000000103009180000000000000000000000000000000000000000100000129467707SANDRA CRISTINA DOS SANTOS TIT          RUA DAVI                                CIDADE DE DE22777243JACAREPAGUA    RJUNIAO UMB DOS CULTOS AFRO BRAS    30091810 000199
10231987175000168817800093673    000026834                    000268340000000000000109                     I0226834     30091800000000035003410000017N200818104700000000000103009180000000000000000000000000000000000000000100060237090791ELIZABETH TELLES DA SILVA               ESTRADA OUTEIRO SANTO                   TAQUARA     22713164RIO DE JANEIRO RJUNIAO UMB DOS CULTOS AFRO BRAS    30091810 000200
10231987175000168817800093673    000026830                    000268300000000000000109                     I0226830     30091800000000035003410000017N200818104700000000000103009180000000000000000000000000000000000000000100014994285705JEFFERSON DOS SANTOS DA SILVA           ESTRADA DO PAU DA FOME                  TAQUARA     22723497RIO DE JANEIRO RJUNIAO UMB DOS CULTOS AFRO BRAS    30091810 000201
10231987175000168817800093673    000026828                    000268280000000000000109                     I0226828     30091800000000035003410000017N200818104700000000000103009180000000000000000000000000000000000000000100007103755736ALESSANDRA COSTA DE BARROS              PRACA OSCAR ROSSIM                      SEPETIBA    23540250RIO DE JANEIRO RJUNIAO UMB DOS CULTOS AFRO BRAS    30091810 000202
10231987175000168817800093673    000026824                    000268240000000000000109                     I0226824     30091800000000035003410000017N200818104700000000000103009180000000000000000000000000000000000000000100015834777724JOAO PAULO SALGUEIRO DA SILVA           RUA TUIBA                               VICENTE DE C21371170RIO DE JANEIRO RJUNIAO UMB DOS CULTOS AFRO BRAS    30091810 000203
10231987175000168817800093673    000026823                    000268230000000000000109                     I0226823     30091800000000035003410000017N200818104700000000000103009180000000000000000000000000000000000000000100002638717703EDINO GOMES DE BARROS JUNIOR            RUA PARANA                              MORRO DO ORI24400000SAO GONCALO    RJUNIAO UMB DOS CULTOS AFRO BRAS    30091810 000204
10231987175000168817800093673    000026822                    000268220000000000000109                     I0226822     30091800000000035003410000017N200818104700000000000103009180000000000000000000000000000000000000000100000920173713JORGE DOS SANTOS LUCAS                  RUA PP                                  JARDIM ANHAN25264360DUQUE DE CAXIASRJUNIAO UMB DOS CULTOS AFRO BRAS    30091810 000205
10231987175000168817800093673    000026820                    000268200000000000000109                     I0226820     30091800000000035003410000017N200818104700000000000103009180000000000000000000000000000000000000000100000497155770CINTIA MARTINS DA SILVA                 RUA POCONE                              ENCANTADO   20745090RIO DE JANEIRO RJUNIAO UMB DOS CULTOS AFRO BRAS    30091810 000206
10231987175000168817800093673    000026818                    000268180000000000000109                     I0226818     30091800000000035003410000017N200818104700000000000103009180000000000000000000000000000000000000000100001797738748PAULO CESAR LONATO SANTOS               RUA SAO MIGUEL ARCANJO                  SAO FRANCISC26011090CAMPO GRANDE   RJUNIAO UMB DOS CULTOS AFRO BRAS    30091810 000207
10231987175000168817800093673    000026817                    000268170000000000000109                     I0226817     30091800000000035003410000017N200818104700000000000103009180000000000000000000000000000000000000000100000000000000ALESSANDRA REIS DOS SANTOS              RUA MARIA TOMAZIA                       CABARAL     21321660RIO DE JANEIRO RJUNIAO UMB DOS CULTOS AFRO BRAS    30091810 000208
10231987175000168817800093673    000026812                    000268120000000000000109                     I0226812     30091800000000035003410000017N200818104700000000000103009180000000000000000000000000000000000000000100001857739744JORGE DE MORAES ESTANISLAU              RUA TITANIC                             REALENGO    21735620RIO DE JANEIRO RJUNIAO UMB DOS CULTOS AFRO BRAS    30091810 000209
10231987175000168817800093673    000026811                    000268110000000000000109                     I0226811     30091800000000035003410000017N200818104700000000000103009180000000000000000000000000000000000000000100010016543752ALEXANDRE TEIXEIRA CAVALCANTE           RUA DOUTOR NUNES                        OLARIA      21021370RIO DE JANEIRO RJUNIAO UMB DOS CULTOS AFRO BRAS    30091810 000210
10231987175000168817800093673    000026807                    000268070000000000000109                     I0226807     30091800000000035003410000017N200818104700000000000103009180000000000000000000000000000000000000000100011640644792MARLY SERPA BORGES                      RUA VISTA ALEGRE                        SANTA TERESA20251410RIO DE JANEIRO RJUNIAO UMB DOS CULTOS AFRO BRAS    30091810 000211
10231987175000168817800093673    000026805                    000268050000000000000109                     I0226805     30091800000000035003410000017N200818104700000000000103009180000000000000000000000000000000000000000100000559929781KLEBER SIQUEIRA CUNHA                   ESTRADA DO PIAI                         GUARATIBA   23028050RIO DE JANEIRO RJUNIAO UMB DOS CULTOS AFRO BRAS    30091810 000212
10231987175000168817800093673    000026800                    000268000000000000000109                     I0226800     30091800000000035003410000017N200818104700000000000103009180000000000000000000000000000000000000000100009199332701LUANDA MOREIRA DOS SANTOS FERN          RUA EMILIA BORBA                        SURUI       25931152RIO DE JANEIRO RJUNIAO UMB DOS CULTOS AFRO BRAS    30091810 000213
10231987175000168817800093673    000026798                    000267980000000000000109                     I0226798     30091800000000040003410000017N200818104700000000000103009180000000000000000000000000000000000000000100099363704734SUELY FERNANDES LAPAS OLIVEIRA          RUA SARUTAIA                            GUARATIBA   23032620RIO DE JANEIRO RJUNIAO UMB DOS CULTOS AFRO BRAS    30091810 000214
10231987175000168817800093673    000026797                    000267970000000000000109                     I0226797     30091800000000035003410000017N200818104700000000000103009180000000000000000000000000000000000000000100002102287768SERGIO RICARDO FERREIRA DOS SA          RUA LAGUNA                              NOVA PIAM   26116620BELFORD ROXO   RJUNIAO UMB DOS CULTOS AFRO BRAS    30091810 000215
10231987175000168817800093673    000026796                    000267960000000000000109                     I0226796     30091800000000035003410000017N200818104700000000000103009180000000000000000000000000000000000000000100076903729704ALUIZO NASCIMENTI DOS SANTOS            RUA DAS ROSAS                           VILA FORMOSA26051370NOVA IGUACU    RJUNIAO UMB DOS CULTOS AFRO BRAS    30091810 000216
10231987175000168817800093673    000026795                    000267950000000000000109                     I0226795     30091800000000035003410000017N200818104700000000000103009180000000000000000000000000000000000000000100003009392729MARIA DA PENHA FLORENCIO                RUA SABUJI DIM ROTSEN                   JARDIM ROTSE25270030DUQUE DE CAXIASRJUNIAO UMB DOS CULTOS AFRO BRAS    30091810 000217
10231987175000168817800093673    000026792                    000267920000000000000109                     I0226792     30091800000000035003410000017N200818104700000000000103009180000000000000000000000000000000000000000100000000001273JORGE CARLOS RODRIGUES DE OLIV          ESTRADA TAQUARAL                        JARDIM NAZAR26062221NOVA IGUACU    RJUNIAO UMB DOS CULTOS AFRO BRAS    30091810 000218
10231987175000168817800093673    000026791                    000267910000000000000109                     I0226791     30091800000000035003410000017N200818104700000000000103009180000000000000000000000000000000000000000100005361904708VANESSA SANTIAGO DE AZEVEDO BA          AVENIDA TEIXEIRA DE CASTRO              RAMOS       21040113RIO DE JANEIRO RJUNIAO UMB DOS CULTOS AFRO BRAS    30091810 000219
10231987175000168817800093673    000026789                    000267890000000000000109                     I0226789     30091800000000035003410000017N200818104700000000000103009180000000000000000000000000000000000000000100010498307760WILLIAM ROSA DA COSTA                   RUA OITENTA                             IPIRANGA - M25927164MAGE           RJUNIAO UMB DOS CULTOS AFRO BRAS    30091810 000220
10231987175000168817800093673    000026782                    000267820000000000000109                     I0226782     30091800000000035003410000017N200818104700000000000103009180000000000000000000000000000000000000000100012781404764RICARDO RIBEIRO DOS SANTOS              RUA ITAGIBA                             COSMOS      23060450RIO DE JANEIRO RJUNIAO UMB DOS CULTOS AFRO BRAS    30091810 000221
10231987175000168817800093673    000026779                    000267790000000000000109                     I0226779     30091800000000035003410000017N200818104700000000000103009180000000000000000000000000000000000000000100007708082714CRISTIANE DEODATO                       ESTRADA REAL DE MAUA                    MAUA        25927304MAGE           RJUNIAO UMB DOS CULTOS AFRO BRAS    30091810 000222
10231987175000168817800093673    000026778                    000267780000000000000109                     I0226778     30091800000000035003410000017N200818104700000000000103009180000000000000000000000000000000000000000100000000000000JUSSARA BALBINO GENUARIO                RUA DAS MARGARIDAS                      CHAPERO     23830240ITAGUAI        RJUNIAO UMB DOS CULTOS AFRO BRAS    30091810 000223
10231987175000168817800093673    000026777                    000267770000000000000109                     I0226777     30091800000000035003410000017N200818104700000000000103009180000000000000000000000000000000000000000100009959898776ANGELICA MONTEIRO DE OLIVEIRA           RUA CINCO                               CHAPERO     23831190ITAGUAI        RJUNIAO UMB DOS CULTOS AFRO BRAS    30091810 000224
10231987175000168817800093673    000026776                    000267760000000000000109                     I0226776     30091800000000035003410000017N200818104700000000000103009180000000000000000000000000000000000000000100080592368491MARIA JOSE PEREIRA NOGUEIRA DE          ALAMEDA GOIANIA                         ENGENHO DO R24752520SAO GONCALO    RJUNIAO UMB DOS CULTOS AFRO BRAS    30091810 000225
10231987175000168817800093673    000026775                    000267750000000000000109                     I0226775     30091800000000035003410000017N200818104700000000000103009180000000000000000000000000000000000000000100015295681700MICHEL FERNANDES BASTOS CRESPO          RUA ROSANGELA TOSTES                    PARQUE FLUMI26185260BELFORD ROXO   RJUNIAO UMB DOS CULTOS AFRO BRAS    30091810 000226
10231987175000168817800093673    000026774                    000267740000000000000109                     I0226774     30091800000000035003410000017N200818104700000000000103009180000000000000000000000000000000000000000100007809907735LUCIANA SANTOS DA SILVA                 BECO ADELIA                             NOSSA SENHOR21932003RIO DE JANEIRO RJUNIAO UMB DOS CULTOS AFRO BRAS    30091810 000227
10231987175000168817800093673    000026772                    000267720000000000000109                     I0226772     30091800000000035003410000017N200818104700000000000103009180000000000000000000000000000000000000000100080974015768SHEYLA REGINA SERAPHIM DA HORA          RUA CAMBAI                              QUINTINO BOC21380300RIO DE JANEIRO RJUNIAO UMB DOS CULTOS AFRO BRAS    30091810 000228
10231987175000168817800093673    000026771                    000267710000000000000109                     I0226771     30091800000000035003410000017N200818104700000000000103009180000000000000000000000000000000000000000100090036018791SILVIA ELAINE GEVEGIR DA SILVA          RUA VINTE                               PARADA MORAB25265130DUQUE DE CAXIASRJUNIAO UMB DOS CULTOS AFRO BRAS    30091810 000229
10231987175000168817800093673    000026770                    000267700000000000000109                     I0226770     30091800000000035003410000017N200818104700000000000103009180000000000000000000000000000000000000000100014653084742THEILOR MORAIS DE MIRANDA               RUA SAO BENEDITO                        VILA GENI   23826010ITAGUAI        RJUNIAO UMB DOS CULTOS AFRO BRAS    30091810 000230
10231987175000168817800093673    000026766                    000267660000000000000109                     I0226766     30091800000000035003410000017N200818104700000000000103009180000000000000000000000000000000000000000100053606259769ROSILANE FRANCISCA DOS SANTOS           RUA ARTUR FARIAS                        RIO DO DOURO25922184MAGE           RJUNIAO UMB DOS CULTOS AFRO BRAS    30091810 000231
10231987175000168817800093673    000026765                    000267650000000000000109                     I0226765     30091800000000035003410000017N200818104700000000000103009180000000000000000000000000000000000000000100001084586797ANA GLORIA NONATO CASTILHO              RUA ANTONIO JOSE DE MORAES              PAVUNA      25515140RIO DE JANEIRO RJUNIAO UMB DOS CULTOS AFRO BRAS    30091810 000232
10231987175000168817800093673    000026764                    000267640000000000000109                     I0226764     30091800000000035003410000017N200818104700000000000103009180000000000000000000000000000000000000000100000000001265PAULO CESAR MARINS DA SILVA             RUA EDUARDO NORONHA                     ROCHA       24420615SAO GONCALO    RJUNIAO UMB DOS CULTOS AFRO BRAS    30091810 000233
10231987175000168817800093673    000026760                    000267600000000000000109                     I0226760     30091800000000035003410000017N200818104700000000000103009180000000000000000000000000000000000000000100001346507783ANDREIA FERREIRA E CUNHA                AVENIDA TIRADENTES                      CONFIDENCIA 26323260NOVA IGUACU    RJUNIAO UMB DOS CULTOS AFRO BRAS    30091810 000234
10231987175000168817800093673    000026759                    000267590000000000000109                     I0226759     30091800000000035003410000017N200818104700000000000103009180000000000000000000000000000000000000000100007429798659LUCIANA DIAS DE ARRUDA                  RUA JULIA TREVIZANO                     SANTO ANTONI36500000UBA            MGUNIAO UMB DOS CULTOS AFRO BRAS    30091810 000235
10231987175000168817800093673    000026756                    000267560000000000000109                     I0226756     30091800000000035003410000017N200818104700000000000103009180000000000000000000000000000000000000000100054968330782REGINA DA MOTA TRINDADE                 RUA CORVILHA                            PARADA MORAB25265353DUQUE DE CAXIASRJUNIAO UMB DOS CULTOS AFRO BRAS    30091810 000236
10231987175000168817800093673    000026755                    000267550000000000000109                     I0226755     30091800000000035003410000017N200818104700000000000103009180000000000000000000000000000000000000000100012097291724CAROLINA BEZERRA DE CASTRO CAV          RUA VITAL                               QUINTINO BOC21380008RIO DE JANEIRO RJUNIAO UMB DOS CULTOS AFRO BRAS    30091810 000237
10231987175000168817800093673    000026753                    000267530000000000000109                     I0226753     30091800000000035003410000017N200818104700000000000103009180000000000000000000000000000000000000000100093130864768SOLANGE GERMANO DA COSTA                RUA KIRBE                               QUEIMADOS   21321310RIO DE JANEIRO RJUNIAO UMB DOS CULTOS AFRO BRAS    30091810 000238
10231987175000168817800093673    000026752                    000267520000000000000109                     I0226752     30091800000000035003410000017N200818104700000000000103009180000000000000000000000000000000000000000100030400942895CLAUDIA REIS SANTOS ARAUJO              RUA LUIS PASQUALLE NETO                 SAO JOAO CLI04241030SAO PAULO      SPUNIAO UMB DOS CULTOS AFRO BRAS    30091810 000239
10231987175000168817800093673    000026741                    000267410000000000000109                     I0226741     30091800000000035003410000017N200818104700000000000103009180000000000000000000000000000000000000000100009948535723ANA CAROLINA VICENTE TELLES GO          RUA PACHECO JUNIOR                      BRAZ DE PINA21211170RIO DE JANEIRO RJUNIAO UMB DOS CULTOS AFRO BRAS    30091810 000240
10231987175000168817800093673    000026738                    000267380000000000000109                     I0226738     30091800000000035003410000017N200818104700000000000103009180000000000000000000000000000000000000000100093743920700RITA DE CASSIA COSTA SENNA              RUA COMANDANTE ARY PARREIRAS            CENTRO      25515080SAO JOAO DE MERRJUNIAO UMB DOS CULTOS AFRO BRAS    30091810 000241
10231987175000168817800093673    000026736                    000267360000000000000109                     I0226736     30091800000000035003410000017N200818104700000000000103009180000000000000000000000000000000000000000100084407883715MAURO FERREIRA MATHEUS                  ESTRADA DO ENGENHO                      PRACA PIQUER21370200RIO DE JANEIRO RJUNIAO UMB DOS CULTOS AFRO BRAS    30091810 000242
10231987175000168817800093673    000026735                    000267350000000000000109                     I0226735     30091800000000035003410000017N200818104700000000000103009180000000000000000000000000000000000000000100000446671754JUSSARA MATHIAS TEIXEIRA                RUA VEREADOR OSVALDO MARCONDES          JOSE BONIFAC25515380SAO JOAO DE MERRJUNIAO UMB DOS CULTOS AFRO BRAS    30091810 000243
10231987175000168817800093673    000026734                    000267340000000000000109                     I0226734     30091800000000035003410000017N200818104700000000000103009180000000000000000000000000000000000000000100072386296700FERNANDO LOPES NARCISO                  RUA IPINAMBES                           TAQUARA     22730210RIO DE JANEIRO RJUNIAO UMB DOS CULTOS AFRO BRAS    30091810 000244
10231987175000168817800093673    000026732                    000267320000000000000109                     I0226732     30091800000000035003410000017N200818104700000000000103009180000000000000000000000000000000000000000100037497030787LINDINALVA AGUIAR PAVANELLI             RUA CRUZ LIMA                           FLAMENGO    22230010RIO DE JANEIRO RJUNIAO UMB DOS CULTOS AFRO BRAS    30091810 000245
10231987175000168817800093673    000026731                    000267310000000000000109                     I0226731     30091800000000035003410000017N200818104700000000000103009180000000000000000000000000000000000000000100060709910797FATIMA REGINA CARVALHO                  RUA MACHADO                             JARDIM ATLAN24935540MARICA         RJUNIAO UMB DOS CULTOS AFRO BRAS    30091810 000246
10231987175000168817800093673    000026726                    000267260000000000000109                     I0226726     30091800000000040003410000017N200818104700000000000103009180000000000000000000000000000000000000000100001902241770JOSE RICARDO CORREA FERREIRA            RUA ALVARO LINS                         TRIBOBO     24750590SAO GONCALO    RJUNIAO UMB DOS CULTOS AFRO BRAS    30091810 000247
10231987175000168817800093673    000026723                    000267230000000000000109                     I0226723     30091800000000035003410000017N200818104700000000000103009180000000000000000000000000000000000000000100077351436649RONALDO MARTINS DOS SANTOS              RUA DOMINGOS MARCOS DA SILVA            SENHOR DOS M36300356SAO JOAO DEL REMGUNIAO UMB DOS CULTOS AFRO BRAS    30091810 000248
10231987175000168817800093673    000026721                    000267210000000000000109                     I0226721     30091800000000035003410000017N200818104700000000000103009180000000000000000000000000000000000000000100083493336772CARLOS FRANCISCO ARAGAO DE GOU          RUA DA CARIDADE                         TAQUARA     25275010DUQUE DE CAXIASRJUNIAO UMB DOS CULTOS AFRO BRAS    30091810 000249
