01REMESSA01COBRANCA       817800093673        União Umb dos Cultos Afro Bra341BANCO ITAU SA  020418                                                                                                                                                                                                                                                                                                      000001
10231987175000168817800093673    00001497                     000014970000000000000109                     I021497      20121700000000270003410000017N251017104700000000000102012170000000000000000000000000000000000000000100039655172791JOSE CARLOS COSTA                       RUA HERTA, 25 - PRAIA DO IMPERADOR      MAUA - MAGE/25900000MAGE           RJUNIAO UMB DOS CULTOS AFRO BRAS    20121710 000002
10231987175000168817800093673    00001471                     000014710000000000000109                     I021471      20121700000000270003410000017N251017104700000000000102012170000000000000000000000000000000000000000100055199801791NAIR JACINTO DE SOUZA                   ESTRADA DOS BANDEIRANTES, 7276 LOTE 3 BLCURICICA - R22780085RIO DE JANEIRO RJUNIAO UMB DOS CULTOS AFRO BRAS    20121710 000003
10231987175000168817800093673    00001462                     000014620000000000000109                     I021462      20121700000000270003410000017N251017104700000000000102012170000000000000000000000000000000000000000100059480904772EDSON CORREIA                           RUA NOVA ATLANTIDA, 543                 ROSA DOS VEN26278757NOVA IGUACU    RJUNIAO UMB DOS CULTOS AFRO BRAS    20121710 000004
10231987175000168817800093673    00001461                     000014610000000000000109                     I021461      20121700000000090003410000017N251017104700000000000102012170000000000000000000000000000000000000000100000001795740MARINA CEZARIO AMARAL                   RUA CORONEL JOAQUIM MENDES, 38          COLUBANDE - 24744570SAO GONCALO    RJUNIAO UMB DOS CULTOS AFRO BRAS    20121710 000005
10231987175000168817800093673    00001460                     000014600000000000000109                     I021460      20121700000000240003410000017N251017104700000000000102012170000000000000000000000000000000000000000100009831383702MARCELO SOUZA MATOS                     AVENIDA MERITI, 1504 FUNDOS             VILA DA PENH21211006RIO DE JANEIRO RJUNIAO UMB DOS CULTOS AFRO BRAS    20121710 000006
10231987175000168817800093673    00001458                     000014580000000000000109                     I021458      20121700000000210003410000017N251017104700000000000102012170000000000000000000000000000000000000000100074338960744GILBERTO JORGE DA CRUZ ARAUJO           RUA SAO FRANCISCO XAVIER, 39 APTO 703   TIJUCA - RIO20550010RIO DE JANEIRO RJUNIAO UMB DOS CULTOS AFRO BRAS    20121710 000007
10231987175000168817800093673    00001457                     000014570000000000000109                     I021457      20121700000000270003410000017N251017104700000000000102012170000000000000000000000000000000000000000100000308305752MAGDA DA SILVA DINELLY                  ESTRADA DOS SETE RIACHOS, 1949 LOTE 10 CSANTISSIMO -23098006RIO DE JANEIRO RJUNIAO UMB DOS CULTOS AFRO BRAS    20121710 000008
10231987175000168817800093673    00001456                     000014560000000000000109                     I021456      20121700000000090003410000017N251017104700000000000102012170000000000000000000000000000000000000000100000579409759CLAUDIA VALERIA MIRAGLIA                RUA ANTONIO RODRIGUES OLIVEIRA, 131     CENTRO - MES26556520MESQUITA       RJUNIAO UMB DOS CULTOS AFRO BRAS    20121710 000009
10231987175000168817800093673    00001455                     000014550000000000000109                     I021455      20121700000000150003410000017N251017104700000000000102012170000000000000000000000000000000000000000100054777860787ANA MARIA DE OLIVEIRA COUTO             ESTRADA DA LAGOINHA, LOTE 5 QDA 4       VILA DOS COQ26296306NOVA IGUACU    RJUNIAO UMB DOS CULTOS AFRO BRAS    20121710 000010
10231987175000168817800093673    00001454                     000014540000000000000109                     I021454      20121700000000150003410000017N251017104700000000000102012170000000000000000000000000000000000000000100059088230749MARILENE NESTOR CORDEIRO                RUA: ALMEIDA E SOUZA                    RIO DE JANEI21745310RIO DE JANEIRO RJUNIAO UMB DOS CULTOS AFRO BRAS    20121710 000011
9                                                                                                                                                                                                                                                                                                                                                                                                         000012
