01REMESSA01COBRANCA       916200163100        União Umb dos Cultos Afro Bra341BANCO ITAU SA  230918                                                                                                                                                                                                                                                                                                      000001
10231987175000168916200163100    000028791                    000287910000000000000109                     I0128791     30091800000000035003410000017N230918104700000000000103009180000000000000000000000000000000000000000100005818072789MARLUCE MARIA DE OLIVEIRA               RUA: PAHAND                             SANTA TEREZA26193500BELFORD ROXO   RJUNIAO UMB DOS CULTOS AFRO BRAS    30091810 000002
10231987175000168916200163100    000028790                    000287900000000000000109                     I0128790     15101800000000400003410000017N220918104700000000000101510180000000000000000000000000000000000000000100068395213700ANA ALICE MAGALHAES BATISTA             RUA ARI BARROSO, 40                     CERAMICA - N26032220NOVA IGUACU    RJUNIAO UMB DOS CULTOS AFRO BRAS    15101810 000003
10231987175000168916200163100    000028789                    000287890000000000000109                     I0128789     26111800000000400003410000017N220918104700000000000102611180000000000000000000000000000000000000000100086903268715MARIA DA PENHA DOS SANTOS CRUZ          RUA ALICE FREITAS                       VAZ LOBO    20765040RIO DE JANEIRO RJUNIAO UMB DOS CULTOS AFRO BRAS    26111810 000004
10231987175000168916200163100    000028788                    000287880000000000000109                     I0128788     15101800000000400003410000017N220918104700000000000101510180000000000000000000000000000000000000000100067238742772DENISE SIMONE MONTEIRO DE ANDR          RUA URUACU                              JARDIM CARIO21921600RIO DE JANEIRO RJUNIAO UMB DOS CULTOS AFRO BRAS    15101810 000005
10231987175000168916200163100    000028787                    000287870000000000000109                     I0128787     05101800000000245003410000017N210918104700000000000100510180000000000000000000000000000000000000000100001346375771CRISTIANE MARIANO RAPELLO               ESTRADA ALBERTO TEIXEIRA CUNHA          NOSSA SENHOR26520070NILOPOLIS      RJUNIAO UMB DOS CULTOS AFRO BRAS    05101810 000006
10231987175000168916200163100    000028786                    000287860000000000000109                     I0128786     30111800000000035003410000017N210918104700000000000103011180000000000000000000000000000000000000000100005576283775TATIANA DE PAULA                        RUA PASTOR FRANCISCO SOREN              BRAS DE PINA21215510RIO DE JANEIRO RJUNIAO UMB DOS CULTOS AFRO BRAS    30111810 000007
10231987175000168916200163100    000028785                    000287850000000000000109                     I0128785     30101800000000035003410000017N210918104700000000000103010180000000000000000000000000000000000000000100005576283775TATIANA DE PAULA                        RUA PASTOR FRANCISCO SOREN              BRAS DE PINA21215510RIO DE JANEIRO RJUNIAO UMB DOS CULTOS AFRO BRAS    30101810 000008
10231987175000168916200163100    000028784                    000287840000000000000109                     I0128784     30111800000000040003410000017N210918104700000000000103011180000000000000000000000000000000000000000100008068599703CLEIDE JANE ROCHA CONTE                 RUA C                                   PARQUE AMORI26185342BELFORD ROXO   RJUNIAO UMB DOS CULTOS AFRO BRAS    30111810 000009
10231987175000168916200163100    000028783                    000287830000000000000109                     I0128783     30101800000000040003410000017N210918104700000000000103010180000000000000000000000000000000000000000100008068599703CLEIDE JANE ROCHA CONTE                 RUA C                                   PARQUE AMORI26185342BELFORD ROXO   RJUNIAO UMB DOS CULTOS AFRO BRAS    30101810 000010
10231987175000168916200163100    000028782                    000287820000000000000109                     I0128782     30091800000000035003410000017N200918104700000000000103009180000000000000000000000000000000000000000100000000001015UILMA VIEIRA TEIXEIRA                   RUA: ITU                                JARDIM GRAMA25060350CAXIAS         RJUNIAO UMB DOS CULTOS AFRO BRAS    30091810 000011
10231987175000168916200163100    000028781                    000287810000000000000109                     I0128781     25091800000000035003410000017N190918104700000000000102509180000000000000000000000000000000000000000100045471240782MARIA HELENA DE SOUZA FREITAS           O MESMO                                 O MESMO     26131970BELFORD ROXO   RJUNIAO UMB DOS CULTOS AFRO BRAS    25091810 000012
10231987175000168916200163100    000028780                    000287800000000000000109                     I0128780     05101800000000500003410000017N190918104700000000000100510180000000000000000000000000000000000000000100065751400763JOSE MARIA MOREIRA FORTUNATO            ESTRADA DORANDIA - IPIABAS              VILA PEGAS  27170000BARRA DO PIRAI RJUNIAO UMB DOS CULTOS AFRO BRAS    05101810 000013
10231987175000168916200163100    000028779                    000287790000000000000109                     I0128779     30111800000000040003410000017N190918104700000000000103011180000000000000000000000000000000000000000100000000003824REGINA CELIA ALMEIDA BASTOS             RUA DERMEVAL LESSA                      PAVUNA      21532330RIO DE JANEIRO RJUNIAO UMB DOS CULTOS AFRO BRAS    30111810 000014
10231987175000168916200163100    000028778                    000287780000000000000109                     I0128778     30101800000000040003410000017N190918104700000000000103010180000000000000000000000000000000000000000100000000003824REGINA CELIA ALMEIDA BASTOS             RUA DERMEVAL LESSA                      PAVUNA      21532330RIO DE JANEIRO RJUNIAO UMB DOS CULTOS AFRO BRAS    30101810 000015
10231987175000168916200163100    000028777                    000287770000000000000109                     I0128777     30091800000000035003410000017N190918104700000000000103009180000000000000000000000000000000000000000100050945653115KLEIDE LEMOS MENDONCA                   RUA COSTA FILHO                         133         21610570RIO DE JANEIRO RJUNIAO UMB DOS CULTOS AFRO BRAS    30091810 000016
10231987175000168916200163100    000028776                    000287760000000000000109                     I0128776     10101800000000105003410000017N190918104700000000000101010180000000000000000000000000000000000000000100057232350791NELSON CARNEIRO DA SILVA                RUA H                                   BADU        24320225NITEROI        RJUNIAO UMB DOS CULTOS AFRO BRAS    10101810 000017
10231987175000168916200163100    000028775                    000287750000000000000109                     I0128775     30111800000000040003410000017N190918104700000000000103011180000000000000000000000000000000000000000100016931588761IGOR RODRIGUES DA SILVA                 RUA: EMBAU                              PAVUNA      21535000RIO DE JANEIRO RJUNIAO UMB DOS CULTOS AFRO BRAS    30111810 000018
10231987175000168916200163100    000028774                    000287740000000000000109                     I0128774     31101800000000040003410000017N190918104700000000000103110180000000000000000000000000000000000000000100016931588761IGOR RODRIGUES DA SILVA                 RUA: EMBAU                              PAVUNA      21535000RIO DE JANEIRO RJUNIAO UMB DOS CULTOS AFRO BRAS    31101810 000019
10231987175000168916200163100    000028773                    000287730000000000000109                     I0128773     05101800000000245003410000017N190918104700000000000100510180000000000000000000000000000000000000000100050262319772NELCY MARIA DE MATTOS                   RUA FILADELFIA, LOTE 15 QUADRA 1        MONJOLO - SA24722660SAO GONCALO    RJUNIAO UMB DOS CULTOS AFRO BRAS    05101810 000020
10231987175000168916200163100    000028772                    000287720000000000000109                     I0128772     05101800000000245003410000017N190918104700000000000100510180000000000000000000000000000000000000000200000000005039MARIA DE SOUZA                          AVENIDA BELO HORIZONTE, 271             SAO GABRIEL 26021670NOVA IGUACU    RJUNIAO UMB DOS CULTOS AFRO BRAS    05101810 000021
10231987175000168916200163100    000028771                    000287710000000000000109                     I0128771     25091800000000070003410000017N190918104700000000000102509180000000000000000000000000000000000000000100099025078753EVA DE OLIVEIRA LOPES                   ESTRADA SANTO ANTONIO Nº 8             CARTA ANISTI26455280RIO DE JANEIRO RJUNIAO UMB DOS CULTOS AFRO BRAS    25091810 000022
10231987175000168916200163100    000021329                    000213290000000000000109                     I0221329     30081800000000035003410000017N270718104700000000000103008180000000000000000000000000000000000000000100005818072789MARLUCE MARIA DE OLIVEIRA               RUA: PAHAND                             SANTA TEREZA26193500BELFORD ROXO   RJUNIAO UMB DOS CULTOS AFRO BRAS    30081810 000023
10231987175000168916200163100    000020941                    000209410000000000000109                     I0220941     30081800000000035003410000017N100518104700000000000103008180000000000000000000000000000000000000000100050945653115KLEIDE LEMOS MENDONCA                   RUA COSTA FILHO                         133         21610570RIO DE JANEIRO RJUNIAO UMB DOS CULTOS AFRO BRAS    30081810 000024
10231987175000168916200163100    000020853                    000208530000000000000109                     I0220853     30081800000000035003410000017N090518104700000000000103008180000000000000000000000000000000000000000100009713273605CAMILA EMANUELE DE ARAUJO CALD          RUA DAS PACAS                           TAMOIOS     28927000DUQUE DE CAXIASRJUNIAO UMB DOS CULTOS AFRO BRAS    30081810 000025
10231987175000168916200163100    000020751                    000207510000000000000109                     I0220751     30081800000000035003410000017N070518104700000000000103008180000000000000000000000000000000000000000100010154945790SIMONE DE OLIVEIRA CUNHA                RUA ONZE                                JARDIM ROTSE25270080DUQUE DE CAXIASRJUNIAO UMB DOS CULTOS AFRO BRAS    30081810 000026
10231987175000168916200163100    000020675                    000206750000000000000109                     I0220675     30081800000000035003410000017N070518104700000000000103008180000000000000000000000000000000000000000100060210389753ROZANA DOS SANTOS                       RUA CAFE FILHO                          INHOAIBA    23060720RIO DE JANEIRO RJUNIAO UMB DOS CULTOS AFRO BRAS    30081810 000027
10231987175000168916200163100    000020648                    000206480000000000000109                     I0220648     30081800000000035003410000017N070518104700000000000103008180000000000000000000000000000000000000000100001346375771CRISTIANE MARIANO RAPELLO               ESTRADA ALBERTO TEIXEIRA CUNHA          NOSSA SENHOR26520070NILOPOLIS      RJUNIAO UMB DOS CULTOS AFRO BRAS    30081810 000028
10231987175000168916200163100    000019898                    000198980000000000000109                     I0219898     30081800000000035003410000017N070518104700000000000103008180000000000000000000000000000000000000000100000000001015UILMA VIEIRA TEIXEIRA                   RUA: ITU                                JARDIM GRAMA25060350CAXIAS         RJUNIAO UMB DOS CULTOS AFRO BRAS    30081810 000029
10231987175000168916200163100    000019875                    000198750000000000000109                     I3419875     30081800000000035003410000017N070518104700000000000103008180000000000000000000000000000000000000000100067293816715SCHEYLA ARNALDO                         RUA PRAIA DA FERRADURA                  CAMINHO DE B28900000RIO DE JANEIRO RJUNIAO UMB DOS CULTOS AFRO BRAS    30081810 000030
10231987175000168916200163100    000019720                    000197200000000000000109                     I0219720     30081800000000035003410000017N070518104700000000000103008180000000000000000000000000000000000000000100099025078753EVA DE OLIVEIRA LOPES                   ESTRADA SANTO ANTONIO Nº 8             CARTA ANISTI26455280RIO DE JANEIRO RJUNIAO UMB DOS CULTOS AFRO BRAS    30081810 000031
10231987175000168916200163100    000019442                    000194420000000000000109                     I0219442     30081800000000035003410000017N070518104700000000000103008180000000000000000000000000000000000000000100054101778787ROSARIA MARIA DAS CHAGAS DA SI          RUA DA AERONAUTICA, 61                  SENADOR CAMA21831410RIO DE JANEIRO RJUNIAO UMB DOS CULTOS AFRO BRAS    30081810 000032
10231987175000168916200163100    000019376                    000193760000000000000109                     I0219376     30081800000000035003410000017N070518104700000000000103008180000000000000000000000000000000000000000100045471240782MARIA HELENA DE SOUZA FREITAS           O MESMO                                 O MESMO     26131970BELFORD ROXO   RJUNIAO UMB DOS CULTOS AFRO BRAS    30081810 000033
10231987175000168916200163100    000019356                    000193560000000000000109                     I0219356     30081800000000035003410000017N070518104700000000000103008180000000000000000000000000000000000000000100000000000661ELOISA SANT ANA                         RUA LINO DE MORAIS,                     REALENGO    21730290RIO DE JANEIRO RJUNIAO UMB DOS CULTOS AFRO BRAS    30081810 000034
10231987175000168916200163100    000019313                    000193130000000000000109                     I0219313     30081800000000035003410000017N070518104700000000000103008180000000000000000000000000000000000000000200000000005039MARIA DE SOUZA                          AVENIDA BELO HORIZONTE, 271             SAO GABRIEL 26021670NOVA IGUACU    RJUNIAO UMB DOS CULTOS AFRO BRAS    30081810 000035
10231987175000168916200163100    000019078                    000190780000000000000109                     I0219078     17081800000000035003410000017N070518104700000000000101708180000000000000000000000000000000000000000100001346375771CRISTIANE MARIANO RAPELLO               ESTRADA ALBERTO TEIXEIRA CUNHA          NOSSA SENHOR26520070NILOPOLIS      RJUNIAO UMB DOS CULTOS AFRO BRAS    17081810 000036
10231987175000168916200163100    000015888                    000158880000000000000109                     I0215888     17081800000000035003410000017N070518104700000000000101708180000000000000000000000000000000000000000100001346375771CRISTIANE MARIANO RAPELLO               ESTRADA ALBERTO TEIXEIRA CUNHA          NOSSA SENHOR26520070NILOPOLIS      RJUNIAO UMB DOS CULTOS AFRO BRAS    17081810 000037
9                                                                                                                                                                                                                                                                                                                                                                                                         000038
