01REMESSA01COBRANCA       817800093673        União Umb dos Cultos Afro Bra341BANCO ITAU SA  080219                                                                                                                                                                                                                                                                                                      000001
10231987175000168817800093673    000039766                    000397660000000000000109                     I0139766     20021900000000035003410000017N080219104700000000000102002190000000000000000000000000000000000000000100092952364753ROSANGELA SILVA SOUZA                   RUA: TAMOIOS N 144, FUNDOS              CENTRO      26520250NILOPOLIS      RJUNIAO UMB DOS CULTOS AFRO BRAS    20021910 000002
10231987175000168817800093673    000039765                    000397650000000000000109                     I0139765     20021900000000035003410000017N080219104700000000000102002190000000000000000000000000000000000000000100092952364753ROSANGELA SILVA SOUZA                   RUA: TAMOIOS N 144, FUNDOS              CENTRO      26520250NILOPOLIS      RJUNIAO UMB DOS CULTOS AFRO BRAS    20021910 000003
10231987175000168817800093673    000039764                    000397640000000000000109                     I0139764     20021900000000040003410000017N080219104700000000000102002190000000000000000000000000000000000000000100092952364753ROSANGELA SILVA SOUZA                   RUA: TAMOIOS N 144, FUNDOS              CENTRO      26520250NILOPOLIS      RJUNIAO UMB DOS CULTOS AFRO BRAS    20021910 000004
10231987175000168817800093673    000039763                    000397630000000000000109                     I0139763     20021900000000300003410000017N080219104700000000000102002190000000000000000000000000000000000000000100003748838743ALESSANDRA REIS DOS SANTOS              RUA HILDEBRANDON 123, BL 3 APTO 303     PRACA SECA  21321660RIO DE JANEIRO RJUNIAO UMB DOS CULTOS AFRO BRAS    20021910 000005
10231987175000168817800093673    000039762                    000397620000000000000109                     I0139762     30031900000000040003410000017N080219104700000000000103003190000000000000000000000000000000000000000100081972148753JORGE ALVES DE MEDEIROS                 RUA LILAZESN 13, PARQUE FLORESTA        PARQUE FLORE26171450BELFORD ROXO   RJUNIAO UMB DOS CULTOS AFRO BRAS    30031910 000006
10231987175000168817800093673    000039761                    000397610000000000000109                     I0139761     28021900000000080003410000017N080219104700000000000102802190000000000000000000000000000000000000000100081972148753JORGE ALVES DE MEDEIROS                 RUA LILAZESN 13, PARQUE FLORESTA        PARQUE FLORE26171450BELFORD ROXO   RJUNIAO UMB DOS CULTOS AFRO BRAS    28021910 000007
10231987175000168817800093673    000039002                    000390020000000000000109                     I0239002     30031900000000040003410000017N261218104700000000000103003190000000000000000000000000000000000000000100089497899734UGO SILVA FILHO                         RUA ITABAIANA N 49, APT 502             GRAJAU      20561050RIO DE JANEIRO RJUNIAO UMB DOS CULTOS AFRO BRAS    30031910 000008
10231987175000168817800093673    000037848                    000378480000000000000109                     I0237848     30031900000000040003410000017N261218104700000000000103003190000000000000000000000000000000000000000100081972148753JORGE ALVES DE MEDEIROS                 RUA LILAZESN 13, PARQUE FLORESTA        PARQUE FLORE26171450BELFORD ROXO   RJUNIAO UMB DOS CULTOS AFRO BRAS    30031910 000009
10231987175000168817800093673    000037083                    000370830000000000000109                     I0237083     28021900000000040003410000017N261218104700000000000102802190000000000000000000000000000000000000000100089497899734UGO SILVA FILHO                         RUA ITABAIANA N 49, APT 502             GRAJAU      20561050RIO DE JANEIRO RJUNIAO UMB DOS CULTOS AFRO BRAS    28021910 000010
10231987175000168817800093673    000035933                    000359330000000000000109                     I0235933     28021900000000040003410000017N261218104700000000000102802190000000000000000000000000000000000000000100081972148753JORGE ALVES DE MEDEIROS                 RUA LILAZESN 13, PARQUE FLORESTA        PARQUE FLORE26171450BELFORD ROXO   RJUNIAO UMB DOS CULTOS AFRO BRAS    28021910 000011
10231987175000168817800093673    000035172                    000351720000000000000109                     I0235172     31011900000000040003410000017N261218104700000000000103101190000000000000000000000000000000000000000100089497899734UGO SILVA FILHO                         RUA ITABAIANA N 49, APT 502             GRAJAU      20561050RIO DE JANEIRO RJUNIAO UMB DOS CULTOS AFRO BRAS    31011910 000012
10231987175000168817800093673    000034833                    000348330000000000000109                     I0234833     31011900000000040003410000017N261218104700000000000103101190000000000000000000000000000000000000000100092952364753ROSANGELA SILVA SOUZA                   RUA: TAMOIOS N 144, FUNDOS              CENTRO      26520250NILOPOLIS      RJUNIAO UMB DOS CULTOS AFRO BRAS    31011910 000013
10231987175000168817800093673    000034029                    000340290000000000000109                     I0234029     31011900000000040003410000017N261218104700000000000103101190000000000000000000000000000000000000000100081972148753JORGE ALVES DE MEDEIROS                 RUA LILAZESN 13, PARQUE FLORESTA        PARQUE FLORE26171450BELFORD ROXO   RJUNIAO UMB DOS CULTOS AFRO BRAS    31011910 000014
10231987175000168817800093673    000032814                    000328140000000000000109                     I0232814     20121800000000350003410000017N291018104700000000000102012180000000000000000000000000000000000000000100089497899734UGO SILVA FILHO                         RUA ITABAIANA N 49, APT 502             GRAJAU      20561050RIO DE JANEIRO RJUNIAO UMB DOS CULTOS AFRO BRAS    20121810 000015
10231987175000168817800093673    000032329                    000323290000000000000109                     I0232329     20121800000000350003410000017N291018104700000000000102012180000000000000000000000000000000000000000100092952364753ROSANGELA SILVA SOUZA                   RUA: TAMOIOS N 144, FUNDOS              CENTRO      26520250NILOPOLIS      RJUNIAO UMB DOS CULTOS AFRO BRAS    20121810 000016
10231987175000168817800093673    000031066                    000310660000000000000109                     I0231066     20121800000000350003410000017N291018104700000000000102012180000000000000000000000000000000000000000100081972148753JORGE ALVES DE MEDEIROS                 RUA LILAZESN 13, PARQUE FLORESTA        PARQUE FLORE26171450BELFORD ROXO   RJUNIAO UMB DOS CULTOS AFRO BRAS    20121810 000017
10231987175000168817800093673    000029810                    000298100000000000000109                     I0229810     20121800000000035003410000017N291018104700000000000102012180000000000000000000000000000000000000000100092952364753ROSANGELA SILVA SOUZA                   RUA: TAMOIOS N 144, FUNDOS              CENTRO      26520250NILOPOLIS      RJUNIAO UMB DOS CULTOS AFRO BRAS    20121810 000018
9                                                                                                                                                                                                                                                                                                                                                                                                         000019
