01REMESSA01COBRANCA       817800093673        União Umb dos Cultos Afro Bra341BANCO ITAU SA  261018                                                                                                                                                                                                                                                                                                      000001
10231987175000168817800093673    000029004                    000290040000000000000109                     I0129004     30111800000000040003410000017N261018104700000000000103011180000000000000000000000000000000000000000100009142845769MICHELE OAZEM MINEIRO                   RUA CARIOCA                             SAO BERNARDO26167210BELFORD ROXO   RJUNIAO UMB DOS CULTOS AFRO BRAS    30111810 000002
10231987175000168817800093673    000029003                    000290030000000000000109                     I0129003     29101800000000290003410000017N261018104700000000000102910180000000000000000000000000000000000000000100080252540700GEORGET MARIA CONCEICAO DE OLI          ESTRADA: DO PAU DA FOME                 TAQUARA     22723497RIO DE JANEIRO RJUNIAO UMB DOS CULTOS AFRO BRAS    29101810 000003
10231987175000168817800093673    000029002                    000290020000000000000109                     I0129002     30111800000000400003410000017N261018104700000000000103011180000000000000000000000000000000000000000100003547724732TANIA GOMES DE LIMA                     RUA AGAPANTO                            PARQUE PRIMA23830020ITAGUAI        RJUNIAO UMB DOS CULTOS AFRO BRAS    30111810 000004
10231987175000168817800093673    000029001                    000290010000000000000109                     I0129001     30101800000000350003410000017N261018104700000000000103010180000000000000000000000000000000000000000100000059525738MONICA SOARES MAGALHAES                 RUA AMALIA                              QUINTINO    21380400RIO DE JANEIRO RJUNIAO UMB DOS CULTOS AFRO BRAS    30101810 000005
10231987175000168817800093673    000029000                    000290000000000000000109                     I0129000     20121800000000040003410000017N261018104700000000000102012180000000000000000000000000000000000000000100088262111753ALDA OLIVEIRA MILITAO GONCALVE          RUA GUATAMBU                            ROMA 1      00000000VOLTA REDONDA  RJUNIAO UMB DOS CULTOS AFRO BRAS    20121810 000006
10231987175000168817800093673    000028999                    000289990000000000000109                     I0128999     30111800000000040003410000017N261018104700000000000103011180000000000000000000000000000000000000000100088262111753ALDA OLIVEIRA MILITAO GONCALVE          RUA GUATAMBU                            ROMA 1      00000000VOLTA REDONDA  RJUNIAO UMB DOS CULTOS AFRO BRAS    30111810 000007
10231987175000168817800093673    000028998                    000289980000000000000109                     I0128998     05111800000000350003410000017N261018104700000000000100511180000000000000000000000000000000000000000100002403387746MARIA APARECIDA MENDES BARBOSA          RUA: DA JAQUEIRA                        MATO ALTO - 21510290RIO DE JANEIRO RJUNIAO UMB DOS CULTOS AFRO BRAS    05111810 000008
10231987175000168817800093673    000028997                    000289970000000000000109                     I0128997     20121800000000035003410000017N261018104700000000000102012180000000000000000000000000000000000000000100001322424780NELY MELIANO DOS SANTOS                 RUA JABOATAO                            VILA ROSARIO25041020DUQUE DE CAXIASRJUNIAO UMB DOS CULTOS AFRO BRAS    20121810 000009
10231987175000168817800093673    000028996                    000289960000000000000109                     I0128996     12111800000000210003410000017N251018104700000000000101211180000000000000000000000000000000000000000100005137259705CRISTINA DE OLIVEIRA DA SILVA           AVENIDA CAMPO MOURAO                    JARDIM MARAV23031080GUARATIBA      RJUNIAO UMB DOS CULTOS AFRO BRAS    12111810 000010
10231987175000168817800093673    000028995                    000289950000000000000109                     I0128995     09111800000000500003410000017N251018104700000000000100911180000000000000000000000000000000000000000100065751400763JOSE MARIA MOREIRA FORTUNATO            ESTRADA: DORANDIA - IPIABAS             VILA PEGAS  27170000BARRA DO PIRAI RJUNIAO UMB DOS CULTOS AFRO BRAS    09111810 000011
10231987175000168817800093673    000028994                    000289940000000000000109                     I0128994     15111800000000035003410000017N251018104700000000000101511180000000000000000000000000000000000000000100004728238768MARIA JOSE ILARIO MANGUEIRA             ESTRADA DA AGUA BRANCA                  REALENGO    21730000RIO DE JANEIRO RJUNIAO UMB DOS CULTOS AFRO BRAS    15111810 000012
10231987175000168817800093673    000028993                    000289930000000000000109                     I0228993     15111800000000035003410000017N251018104700000000000101511180000000000000000000000000000000000000000100000000000139ZILMA DE ANDRADE SILVA                  RUA JOAO PAULA FONSECA, 116             JARDIM AMERI21232970RIO DE JANEIRO RJUNIAO UMB DOS CULTOS AFRO BRAS    15111810 000013
10231987175000168817800093673    000028992                    000289920000000000000109                     I0128992     02111800000000070003410000017N251018104700000000000100211180000000000000000000000000000000000000000100001322424780NELY MELIANO DOS SANTOS                 RUA JABOATAO                            VILA ROSARIO25041020DUQUE DE CAXIASRJUNIAO UMB DOS CULTOS AFRO BRAS    02111810 000014
10231987175000168817800093673    000028991                    000289910000000000000109                     I0128991     30111800000000040003410000017N251018104700000000000103011180000000000000000000000000000000000000000100063464470768ROBSON DE OLIVEIRA ELIZIARIO            RUA GARCIA REDONDO                      CACHAMBI    20775170RIO DE JANEIRO RJUNIAO UMB DOS CULTOS AFRO BRAS    30111810 000015
10231987175000168817800093673    000028990                    000289900000000000000109                     I0128990     26101800000000035003410000017N241018104700000000000102610180000000000000000000000000000000000000000100051265699704MARIA FATIMA DE SOUSA                   RUA MAURITI DOS SANTOS                  EDEN        25525720RIO DE JANEIRO RJUNIAO UMB DOS CULTOS AFRO BRAS    26101810 000016
10231987175000168817800093673    000028989                    000289890000000000000109                     I0128989     20121800000000035003410000017N241018104700000000000102012180000000000000000000000000000000000000000100009483806755MARCO ANTONIO ATAIDE DE MELO            TRAVESSA MARAPE                         COSTA BARROS21515240RIO DE JANEIRO RJUNIAO UMB DOS CULTOS AFRO BRAS    20121810 000017
10231987175000168817800093673    000028988                    000289880000000000000109                     I0128988     30111800000000040003410000017N241018104700000000000103011180000000000000000000000000000000000000000100034463399300MARIA ENOIA DE SOUSA CORREA             RUA: RODEZIA                            BANCARIO - I21910145RIO DE JANEIRO RJUNIAO UMB DOS CULTOS AFRO BRAS    30111810 000018
10231987175000168817800093673    000028987                    000289870000000000000109                     I0228987     30111800000000035003410000017N241018104700000000000103011180000000000000000000000000000000000000000100065751400763JOSE MARIA MOREIRA FORTUNATO            ESTRADA: DORANDIA - IPIABAS             VILA PEGAS  27170000BARRA DO PIRAI RJUNIAO UMB DOS CULTOS AFRO BRAS    30111810 000019
10231987175000168817800093673    000028986                    000289860000000000000109                     I0228986     30111800000000040003410000017N241018104700000000000103011180000000000000000000000000000000000000000100000000000000SUELLEN FENIX / MARIA NIVEA BR          RUA GENERAL ROCA                        TIJUCA      20521071RIO DE JANEIRO RJUNIAO UMB DOS CULTOS AFRO BRAS    30111810 000020
10231987175000168817800093673    000028985                    000289850000000000000109                     I0128985     30111800000000040003410000017N241018104700000000000103011180000000000000000000000000000000000000000100013376872783ELIANE MENDES DA SILVA                  RUAPROJETADA G                          SANTA CRUZ  00000000RIO DE JANEIRO RJUNIAO UMB DOS CULTOS AFRO BRAS    30111810 000021
10231987175000168817800093673    000028984                    000289840000000000000109                     I0128984     24101800000000070003410000017N241018104700000000000102410180000000000000000000000000000000000000000100002176741781SUSI DE OLIVEIRA LOUREIRO               AVENIDA VICENTE DE CARVALHO             VICENTE DE C26278525RIO DE JANEIRO RJUNIAO UMB DOS CULTOS AFRO BRAS    24101810 000022
10231987175000168817800093673    000028983                    000289830000000000000109                     I0128983     30111800000000040003410000017N231018104700000000000103011180000000000000000000000000000000000000000100089308956700COSME NEVES ARRUDA                      RUA SANTO AMARO                         GLORIA      22211230RIO DE JANEIRO RJUNIAO UMB DOS CULTOS AFRO BRAS    30111810 000023
10231987175000168817800093673    000028982                    000289820000000000000109                     I0128982     05111800000000420003410000017N231018104700000000000100511180000000000000000000000000000000000000000100000000000000DALILA DE SOUZA PINHEIRO                RUA JOAO BRIGIDO                        MAGALHAES BA21745480RIO DE JANEIRO RJUNIAO UMB DOS CULTOS AFRO BRAS    05111810 000024
10231987175000168817800093673    000028981                    000289810000000000000109                     I0228981     30111800000000040003410000017N221018104700000000000103011180000000000000000000000000000000000000000100034463399300MARIA ENOIA DE SOUSA CORREA             RUA: RODEZIA                            BANCARIO - I21910145RIO DE JANEIRO RJUNIAO UMB DOS CULTOS AFRO BRAS    30111810 000025
10231987175000168817800093673    000028896                    000288960000000000000109                     I0228896     15101800000000315003410000017N051018104700000000000101510180000000000000000000000000000000000000000100077575644768ROBSON ANDRE GONCALVES OUREM            RUA: RECIFE                             CAMPOS ELISE21032060RIO DE JANEIRO RJUNIAO UMB DOS CULTOS AFRO BRAS    15101810 000026
10231987175000168817800093673    000028518                    000285180000000000000109                     I0228518     30111800000000035003410000017N230818104700000000000103011180000000000000000000000000000000000000000100000000000047JOANE ZAGALIA DA CUNHA                  RUA JABIRI                              MARECHAL HER21615300RIO DE JANEIRO RJUNIAO UMB DOS CULTOS AFRO BRAS    30111810 000027
10231987175000168817800093673    000028517                    000285170000000000000109                     I0228517     30101800000000035003410000017N230818104700000000000103010180000000000000000000000000000000000000000100000000000047JOANE ZAGALIA DA CUNHA                  RUA JABIRI                              MARECHAL HER21615300RIO DE JANEIRO RJUNIAO UMB DOS CULTOS AFRO BRAS    30101810 000028
10231987175000168817800093673    000028516                    000285160000000000000109                     I0228516     30091800000000035003410000017N230818104700000000000103009180000000000000000000000000000000000000000100000000000047JOANE ZAGALIA DA CUNHA                  RUA JABIRI                              MARECHAL HER21615300RIO DE JANEIRO RJUNIAO UMB DOS CULTOS AFRO BRAS    30091810 000029
10231987175000168817800093673    000028437                    000284370000000000000109                     I3428437     30111800000000035003410000017N200818104700000000000103011180000000000000000000000000000000000000000100062788396791SERGIO LUCAS DE SOUZA                   TRAVESSA CARLOS XAVIER                  MADUREIRA   21310010RIO DE JANEIRO RJUNIAO UMB DOS CULTOS AFRO BRAS    30111810 000030
10231987175000168817800093673    000027731                    000277310000000000000109                     I3427731     30111800000000035003410000017N200818104700000000000103011180000000000000000000000000000000000000000100003622363755LUCIENE DA SILVA                        RUA AMADIR LEITE                        JARDIM MONTE26041620NOVA IGUACU    RJUNIAO UMB DOS CULTOS AFRO BRAS    30111810 000031
10231987175000168817800093673    000027481                    000274810000000000000109                     I0227481     30111800000000035003410000017N200818104700000000000103011180000000000000000000000000000000000000000100000000000000POJUCAM LOPES TOLEDO                    RUA LUIS CAPUTI                         CENTRO      27700000VASSOURAS      RJUNIAO UMB DOS CULTOS AFRO BRAS    30111810 000032
10231987175000168817800093673    000026991                    000269910000000000000109                     I0226991     30091800000000035003410000017N200818104700000000000103009180000000000000000000000000000000000000000100051265699704MARIA FATIMA DE SOUSA                   RUA MAURITI DOS SANTOS                  EDEN        25525720RIO DE JANEIRO RJUNIAO UMB DOS CULTOS AFRO BRAS    30091810 000033
10231987175000168817800093673    000026931                    000269310000000000000109                     I3426931     30091800000000035003410000017N200818104700000000000103009180000000000000000000000000000000000000000100011497058767DIEGO FERREIRA DA SILVA                 RUA PRIMEIRO DE MAIO                    IPIRANGA    26293480RIO DE JANEIRO RJUNIAO UMB DOS CULTOS AFRO BRAS    30091810 000034
10231987175000168817800093673    000026819                    000268190000000000000109                     I3426819     30091800000000035003410000017N200818104700000000000103009180000000000000000000000000000000000000000100009483806755MARCO ANTONIO ATAIDE DE MELO            TRAVESSA MARAPE                         COSTA BARROS21515240RIO DE JANEIRO RJUNIAO UMB DOS CULTOS AFRO BRAS    30091810 000035
10231987175000168817800093673    000026743                    000267430000000000000109                     I3426743     30091800000000035003410000017N200818104700000000000103009180000000000000000000000000000000000000000100002596844737NANCI BARCELOS MACIEL                   RUA CAPITAO MACHADO                     PRACA SECA  21320030RIO DE JANEIRO RJUNIAO UMB DOS CULTOS AFRO BRAS    30091810 000036
10231987175000168817800093673    000026391                    000263910000000000000109                     I0226391     30091800000000035003410000017N200818104700000000000103009180000000000000000000000000000000000000000100077575644768ROBSON ANDRE GONCALVES OUREM            RUA: RECIFE                             CAMPOS ELISE21032060RIO DE JANEIRO RJUNIAO UMB DOS CULTOS AFRO BRAS    30091810 000037
10231987175000168817800093673    000026313                    000263130000000000000109                     I3426313     30091800000000035003410000017N200818104700000000000103009180000000000000000000000000000000000000000100003622363755LUCIENE DA SILVA                        RUA AMADIR LEITE                        JARDIM MONTE26041620NOVA IGUACU    RJUNIAO UMB DOS CULTOS AFRO BRAS    30091810 000038
10231987175000168817800093673    000026146                    000261460000000000000109                     I3426146     30091800000000035003410000017N200818104700000000000103009180000000000000000000000000000000000000000100002175979717CLAUDIA PILAR PERES SANTOS DE           RUA JOAO MACIEIRA                       MADUREIRA   21310090RIO DE JANEIRO RJUNIAO UMB DOS CULTOS AFRO BRAS    30091810 000039
10231987175000168817800093673    000026064                    000260640000000000000109                     I0226064     30091800000000035003410000017N200818104700000000000103009180000000000000000000000000000000000000000100000000000000POJUCAM LOPES TOLEDO                    RUA LUIS CAPUTI                         CENTRO      27700000VASSOURAS      RJUNIAO UMB DOS CULTOS AFRO BRAS    30091810 000040
10231987175000168817800093673    000025834                    000258340000000000000109                     I0225834     30091800000000035003410000017N200818104700000000000103009180000000000000000000000000000000000000000100088831051768ELISETE MOREIRA DE OLIVEIRA             RUA JOSE MACHADO                        IRAJA       21361360RIO DE JANEIRO RJUNIAO UMB DOS CULTOS AFRO BRAS    30091810 000041
10231987175000168817800093673    000025599                    000255990000000000000109                     I3425599     30101800000000035003410000017N200818104700000000000103010180000000000000000000000000000000000000000100062788396791SERGIO LUCAS DE SOUZA                   TRAVESSA CARLOS XAVIER                  MADUREIRA   21310010RIO DE JANEIRO RJUNIAO UMB DOS CULTOS AFRO BRAS    30101810 000042
10231987175000168817800093673    000025403                    000254030000000000000109                     I3425403     30101800000000035003410000017N200818104700000000000103010180000000000000000000000000000000000000000100009483806755MARCO ANTONIO ATAIDE DE MELO            TRAVESSA MARAPE                         COSTA BARROS21515240RIO DE JANEIRO RJUNIAO UMB DOS CULTOS AFRO BRAS    30101810 000043
10231987175000168817800093673    000025327                    000253270000000000000109                     I3425327     30101800000000035003410000017N200818104700000000000103010180000000000000000000000000000000000000000100002596844737NANCI BARCELOS MACIEL                   RUA CAPITAO MACHADO                     PRACA SECA  21320030RIO DE JANEIRO RJUNIAO UMB DOS CULTOS AFRO BRAS    30101810 000044
10231987175000168817800093673    000024973                    000249730000000000000109                     I0224973     30101800000000035003410000017N200818104700000000000103010180000000000000000000000000000000000000000100077575644768ROBSON ANDRE GONCALVES OUREM            RUA: RECIFE                             CAMPOS ELISE21032060RIO DE JANEIRO RJUNIAO UMB DOS CULTOS AFRO BRAS    30101810 000045
10231987175000168817800093673    000024894                    000248940000000000000109                     I3424894     30101800000000035003410000017N200818104700000000000103010180000000000000000000000000000000000000000100003622363755LUCIENE DA SILVA                        RUA AMADIR LEITE                        JARDIM MONTE26041620NOVA IGUACU    RJUNIAO UMB DOS CULTOS AFRO BRAS    30101810 000046
10231987175000168817800093673    000024647                    000246470000000000000109                     I3424647     30101800000000035003410000017N200818104700000000000103010180000000000000000000000000000000000000000100062792920700LUIZ CESAR DE OLIVEIRA                  RUA PEREIRA DE FIGUEIREDO               OSWALDO CRUZ21340030RIO DE JANEIRO RJUNIAO UMB DOS CULTOS AFRO BRAS    30101810 000047
10231987175000168817800093673    000024645                    000246450000000000000109                     I0224645     30101800000000035003410000017N200818104700000000000103010180000000000000000000000000000000000000000100000000000000POJUCAM LOPES TOLEDO                    RUA LUIS CAPUTI                         CENTRO      27700000VASSOURAS      RJUNIAO UMB DOS CULTOS AFRO BRAS    30101810 000048
10231987175000168817800093673    000024415                    000244150000000000000109                     I0224415     30101800000000035003410000017N200818104700000000000103010180000000000000000000000000000000000000000100088831051768ELISETE MOREIRA DE OLIVEIRA             RUA JOSE MACHADO                        IRAJA       21361360RIO DE JANEIRO RJUNIAO UMB DOS CULTOS AFRO BRAS    30101810 000049
9                                                                                                                                                                                                                                                                                                                                                                                                         000050
