01REMESSA01COBRANCA       817800093673        União Umb dos Cultos Afro Bra341BANCO ITAU SA  210818                                                                                                                                                                                                                                                                                                      000001
10231987175000168817800093673    000027506                    000275060000000000000109                     I0127506     30111800000000035003410000017N200818104700000000000103011180000000000000000000000000000000000000000100080499306724ANA CLAUDIA DE SOUZA RODRIGUES          RUA CRAVEIRO DE SA,183                  PARADA DE LU21250490RIO DE JANEIRO RJUNIAO UMB DOS CULTOS AFRO BRAS    30111810 000002
10231987175000168817800093673    000027505                    000275050000000000000109                     I0127505     30111800000000035003410000017N200818104700000000000103011180000000000000000000000000000000000000000100002181028796EMERSON DIAS DA COSTA                   RUA PARA, LOTE 10 QUADRA 31             VALE DAS MAN26175370BELFORD ROXO   RJUNIAO UMB DOS CULTOS AFRO BRAS    30111810 000003
10231987175000168817800093673    000027504                    000275040000000000000109                     I0127504     30111800000000035003410000017N200818104700000000000103011180000000000000000000000000000000000000000100008016237746RAFAEL GRACA PEREIRA                    ESTRADA DA COVANCA, 360 CASA            TANQUE - JAC22735020RIO DE JANEIRO RJUNIAO UMB DOS CULTOS AFRO BRAS    30111810 000004
10231987175000168817800093673    000027503                    000275030000000000000109                     I0127503     30111800000000035003410000017N200818104700000000000103011180000000000000000000000000000000000000000100089826930768MARIA DAS DORES SILVA                   RUA JORDAO, 805 CASA 40                 TANQUE - RIO22725549RIO DE JANEIRO RJUNIAO UMB DOS CULTOS AFRO BRAS    30111810 000005
10231987175000168817800093673    000027502                    000275020000000000000109                     I0127502     30111800000000035003410000017N200818104700000000000103011180000000000000000000000000000000000000000100050534173772IARA FRANCISCO                          RUA BARAO DE MELGACO, 279 FUNDOS        CORDOVIL - R21250320RIO DE JANEIRO RJUNIAO UMB DOS CULTOS AFRO BRAS    30111810 000006
10231987175000168817800093673    000027501                    000275010000000000000109                     I0127501     30111800000000035003410000017N200818104700000000000103011180000000000000000000000000000000000000000200000000008601CARLOS ALBERTO PORTO LEAL               RUA FOSCA, 55                           POSSE - NOVA26020015NOVA IGUACU    RJUNIAO UMB DOS CULTOS AFRO BRAS    30111810 000007
10231987175000168817800093673    000027500                    000275000000000000000109                     I0127500     30111800000000035003410000017N200818104700000000000103011180000000000000000000000000000000000000000100007650422747SIDNEI DO VALE FELISBERTO               RUA: DESEMBARGADOR MACHADO GUIMARAES    JARDIM TROPI26011110NOVA IGUACU    RJUNIAO UMB DOS CULTOS AFRO BRAS    30111810 000008
10231987175000168817800093673    000027499                    000274990000000000000109                     I0127499     30111800000000035003410000017N200818104700000000000103011180000000000000000000000000000000000000000100076658961700BEATRIZ DIAS DO NASCIMENTO              RUA SAO BRUNO                           PENHA       21021160RIO DE JANEIRO RJUNIAO UMB DOS CULTOS AFRO BRAS    30111810 000009
10231987175000168817800093673    000027498                    000274980000000000000109                     I0127498     30111800000000035003410000017N200818104700000000000103011180000000000000000000000000000000000000000100036257869749IRANI DA SILVA CORREA                   RUA JATAIZINHO, 11 - JARDIM ORIENTAL    SENADOR VASC23012170RIO DE JANEIRO RJUNIAO UMB DOS CULTOS AFRO BRAS    30111810 000010
10231987175000168817800093673    000027497                    000274970000000000000109                     I0127497     30111800000000035003410000017N200818104700000000000103011180000000000000000000000000000000000000000100062783203715SORAYA BARROS PINHEIRO                  RUA: SANTOS TITARA                      TODOS SANTOS20735240RIO DE JANEIRO RJUNIAO UMB DOS CULTOS AFRO BRAS    30111810 000011
10231987175000168817800093673    000027496                    000274960000000000000109                     I0127496     30111800000000035003410000017N200818104700000000000103011180000000000000000000000000000000000000000100001457331730MIRIAN ANSELMO DE SOUZA SANTOS          RUA CRISTIANO OTONI, LT 25 QD 1         ALMERINDA - 24740004SAO GONCALO    RJUNIAO UMB DOS CULTOS AFRO BRAS    30111810 000012
10231987175000168817800093673    000027495                    000274950000000000000109                     I0127495     30111800000000035003410000017N200818104700000000000103011180000000000000000000000000000000000000000100050775561720LEANDRO MECENAS DA CUNHA                RUA GUATOS N 34                         PARQUE SAO C26051640NOVA IGUACU    RJUNIAO UMB DOS CULTOS AFRO BRAS    30111810 000013
10231987175000168817800093673    000027494                    000274940000000000000109                     I0127494     30111800000000035003410000017N200818104700000000000103011180000000000000000000000000000000000000000100045619581772EDELZUITA PESSOA DA SILVA               RUA DONA JULIETA N 55 - MIGUEL COUTO    MIGUEL COUTO26147160NOVA IGUACU    RJUNIAO UMB DOS CULTOS AFRO BRAS    30111810 000014
10231987175000168817800093673    000027493                    000274930000000000000109                     I0127493     30111800000000035003410000017N200818104700000000000103011180000000000000000000000000000000000000000100002603000713DEBORA DOS SANTOS GOES                  O MESMO                                 O MESMO     25268240DUQUE DE CAXIASRJUNIAO UMB DOS CULTOS AFRO BRAS    30111810 000015
10231987175000168817800093673    000027492                    000274920000000000000109                     I0127492     30111800000000035003410000017N200818104700000000000103011180000000000000000000000000000000000000000100084703741768LINDALVA PEREIRA DE SOUZA               ESTRADA BARRO VERMELHO                  ROCHA MIRAND21540499RIO DE JANEIRO RJUNIAO UMB DOS CULTOS AFRO BRAS    30111810 000016
10231987175000168817800093673    000027491                    000274910000000000000109                     I0127491     30111800000000035003410000017N200818104700000000000103011180000000000000000000000000000000000000000100007295283757DULCE DOS SANTOS MONTEIRO               AVENIDA ESTACIO DE SA                   PARQUE NOVO 25585000SAO JOAO DE MERRJUNIAO UMB DOS CULTOS AFRO BRAS    30111810 000017
10231987175000168817800093673    000027490                    000274900000000000000109                     I0127490     30111800000000035003410000017N200818104700000000000103011180000000000000000000000000000000000000000100099272946700MARCOS ANTONIO DA SILVA                 RUA PIACAVA N 100                       VILA MARILIA26040210NOVA IGUACU    RJUNIAO UMB DOS CULTOS AFRO BRAS    30111810 000018
10231987175000168817800093673    000027489                    000274890000000000000109                     I0127489     30111800000000035003410000017N200818104700000000000103011180000000000000000000000000000000000000000100046180303720ALANIR SOARES DA SILVA                  RUA QUATORZE, LOTE 14 QUADRA 32         SANTA CRUZ -23520292RIO DE JANEIRO RJUNIAO UMB DOS CULTOS AFRO BRAS    30111810 000019
10231987175000168817800093673    000027488                    000274880000000000000109                     I0127488     30111800000000035003410000017N200818104700000000000103011180000000000000000000000000000000000000000100063553830778WILLIAM RODRIGUES                       ESTRADA OTEIRO SANTO, 1022 CASA 3       TAQUARA - RI22713169RIO DE JANEIRO RJUNIAO UMB DOS CULTOS AFRO BRAS    30111810 000020
10231987175000168817800093673    000027487                    000274870000000000000109                     I0127487     30111800000000035003410000017N200818104700000000000103011180000000000000000000000000000000000000000100000000000843MARIA LEOPOLDINO DE MATOS               RUA URUCURANA N 177                     BOA ESPERANC26143140NOVA IGUACU    RJUNIAO UMB DOS CULTOS AFRO BRAS    30111810 000021
10231987175000168817800093673    000027486                    000274860000000000000109                     I0127486     30111800000000035003410000017N200818104700000000000103011180000000000000000000000000000000000000000100010749011777LUIZ CARLOS LOYOLA ALVES                RUA: OURO PRETO                         NOVA IGUACU 26297144NOVA IGUACU    RJUNIAO UMB DOS CULTOS AFRO BRAS    30111810 000022
10231987175000168817800093673    000027485                    000274850000000000000109                     I0127485     30111800000000035003410000017N200818104700000000000103011180000000000000000000000000000000000000000100038370999700JULIO ALEXANDRE FERREIRA                RUA BARAO DE JACUI, 254 CASA 16 FUNDOS  OSWALDO CRUZ21550310RIO DE JANEIRO RJUNIAO UMB DOS CULTOS AFRO BRAS    30111810 000023
10231987175000168817800093673    000027484                    000274840000000000000109                     I0127484     30111800000000035003410000017N200818104700000000000103011180000000000000000000000000000000000000000100000382904729EMERSON DOS SANTOS FIDELIS              RUA: SEVERINO SANTOS                    SARACURUNA  25212668DUQUE DE CAXIASRJUNIAO UMB DOS CULTOS AFRO BRAS    30111810 000024
10231987175000168817800093673    000027483                    000274830000000000000109                     I0127483     30111800000000035003410000017N200818104700000000000103011180000000000000000000000000000000000000000100062792920700LUIZ CESAR DE OLIVEIRA                  RUA PEREIRA DE FIGUEIREDO, 627          OSWALDO CRUZ21340030RIO DE JANEIRO RJUNIAO UMB DOS CULTOS AFRO BRAS    30111810 000025
10231987175000168817800093673    000027482                    000274820000000000000109                     I0127482     30111800000000040003410000017N200818104700000000000103011180000000000000000000000000000000000000000100000000008355THIAGO RODRIGUES DA SILVA MOUR          O MESMO                                 O MESMO     00000000MAGE /         RJUNIAO UMB DOS CULTOS AFRO BRAS    30111810 000026
10231987175000168817800093673    000027481                    000274810000000000000109                     I0127481     30111800000000035003410000017N200818104700000000000103011180000000000000000000000000000000000000000200000000004475POJUCAM LOPES TOLEDO                    RUA LUIS CAPUTI, 469                    CENTRO -VASS27700000VASSOURAS      RJUNIAO UMB DOS CULTOS AFRO BRAS    30111810 000027
10231987175000168817800093673    000027480                    000274800000000000000109                     I0127480     30111800000000040003410000017N200818104700000000000103011180000000000000000000000000000000000000000100055688306734ROBERTO BRAGANCA BAHIA                  TRAVESSA PALADINO GARCIA                CENTRO      26130290BELFORD ROXO   RJUNIAO UMB DOS CULTOS AFRO BRAS    30111810 000028
10231987175000168817800093673    000027479                    000274790000000000000109                     I0127479     30111800000000035003410000017N200818104700000000000103011180000000000000000000000000000000000000000100001117379744VERA LUCIA SOUZA COUTO                  RUA RUDY ALBERTO, 868 - IMPERADOR       MAUA - MAGE 25900000MAGE           RJUNIAO UMB DOS CULTOS AFRO BRAS    30111810 000029
10231987175000168817800093673    000027478                    000274780000000000000109                     I0127478     30111800000000035003410000017N200818104700000000000103011180000000000000000000000000000000000000000100004121968751MARIA ALICE MANOEL DO VALE              RUA B LOTE 9 QUADRA 3 - JARDIM MARAMBAIAJARDIM MARAM24800000ITABORAI       RJUNIAO UMB DOS CULTOS AFRO BRAS    30111810 000030
10231987175000168817800093673    000027477                    000274770000000000000109                     I0127477     30111800000000035003410000017N200818104700000000000103011180000000000000000000000000000000000000000100081051387787ROSA AMELIA COSENZA                     RUA MARIA DA GLORIA BALTAR N 48         NOVA CIDADE 26535290NILOPOLIS      RJUNIAO UMB DOS CULTOS AFRO BRAS    30111810 000031
10231987175000168817800093673    000027476                    000274760000000000000109                     I0127476     30111800000000035003410000017N200818104700000000000103011180000000000000000000000000000000000000000100004501217715JOSE DIOMEDES DO PATROCINIO NE          RUA DOUTOR LAUREANO N 250 - VILA SAO LUIVILA SAO LUI25060220DUQUE DE CAXIASRJUNIAO UMB DOS CULTOS AFRO BRAS    30111810 000032
10231987175000168817800093673    000027475                    000274750000000000000109                     I0127475     30111800000000035003410000017N200818104700000000000103011180000000000000000000000000000000000000000100004753333736ELAINE DOS SANTOS FONTES ARAUJ          O MESMO                                 O MESMO     21775090RIO DE JANEIRO RJUNIAO UMB DOS CULTOS AFRO BRAS    30111810 000033
10231987175000168817800093673    000027474                    000274740000000000000109                     I0127474     30111800000000035003410000017N200818104700000000000103011180000000000000000000000000000000000000000100007342538779DAVID GARDINA FERREIRA LUCIO            O MESMO                                 O MESMO     25550531SAO JOAO DE MERRJUNIAO UMB DOS CULTOS AFRO BRAS    30111810 000034
10231987175000168817800093673    000027473                    000274730000000000000109                     I0127473     30111800000000035003410000017N200818104700000000000103011180000000000000000000000000000000000000000100003316779701WALLACE SILVA SOARES                    RUA QUINZE DE NOVEMBRO LOTE 2 QUADRA N CSARACURUNA -25212690DUQUE DE CAXIASRJUNIAO UMB DOS CULTOS AFRO BRAS    30111810 000035
10231987175000168817800093673    000027472                    000274720000000000000109                     I0127472     30111800000000035003410000017N200818104700000000000103011180000000000000000000000000000000000000000100027686205720DENNIS CLARE                            RUA: RATICLIFF                          RIACHUELO   20950170RIO DE JANEIRO RJUNIAO UMB DOS CULTOS AFRO BRAS    30111810 000036
10231987175000168817800093673    000027471                    000274710000000000000109                     I0127471     30111800000000035003410000017N200818104700000000000103011180000000000000000000000000000000000000000100064949559753CREUZA LEAL COIMBRA                     O MESMO                                 O MESMO     25570393SAO JOAO DE MERRJUNIAO UMB DOS CULTOS AFRO BRAS    30111810 000037
10231987175000168817800093673    000027470                    000274700000000000000109                     I0127470     30111800000000035003410000017N200818104700000000000103011180000000000000000000000000000000000000000100007972604711ADRIANA TAVARES DA CONCEICAO            RUA: PEREIRO                            TAQUARA - JA22723155RIO DE JANEIRO RJUNIAO UMB DOS CULTOS AFRO BRAS    30111810 000038
10231987175000168817800093673    000027469                    000274690000000000000109                     I0127469     30111800000000035003410000017N200818104700000000000103011180000000000000000000000000000000000000000100036386812700VICENCO GEARDINA NETO                   O MESMO                                 O MESMO     26061070NOVA IGUACU    RJUNIAO UMB DOS CULTOS AFRO BRAS    30111810 000039
10231987175000168817800093673    000027468                    000274680000000000000109                     I0127468     30111800000000035003410000017N200818104700000000000103011180000000000000000000000000000000000000000100003027226703MARCIO ALVES DOS SANTOS                 RUA ESTUDANTE ELIANE CASTANHEIRA N 874  CENTRO - SAO25510242SAO JOAO DE MERRJUNIAO UMB DOS CULTOS AFRO BRAS    30111810 000040
10231987175000168817800093673    000027467                    000274670000000000000109                     I0127467     30111800000000035003410000017N200818104700000000000103011180000000000000000000000000000000000000000100093971087787SUELY DE CASSIA NEVES DA SILVA          RUA ANTONIO JOAQUIM DA SILVA N 49       PARQUE BARRE25581140SAO JOAO DE MERRJUNIAO UMB DOS CULTOS AFRO BRAS    30111810 000041
10231987175000168817800093673    000027466                    000274660000000000000109                     I0127466     30111800000000035003410000017N200818104700000000000103011180000000000000000000000000000000000000000100081947712772MARIA COELHO DE LIMA                    O MESMO                                 O MESMO     25040070DUQUE DE CAXIASRJUNIAO UMB DOS CULTOS AFRO BRAS    30111810 000042
10231987175000168817800093673    000027465                    000274650000000000000109                     I0127465     30111800000000035003410000017N200818104700000000000103011180000000000000000000000000000000000000000100096252634700PATRICIA BORGES                         O MESMO                                 O MESMO     23530074RIO DE JANEIRO RJUNIAO UMB DOS CULTOS AFRO BRAS    30111810 000043
10231987175000168817800093673    000027464                    000274640000000000000109                     I0127464     30111800000000035003410000017N200818104700000000000103011180000000000000000000000000000000000000000100010083312790EDINALDO FELIX DA SILVA                 RUA: BERNARDA MARIA DA CONCEICAO        FAZENDA CAXI23895320ILHA DO GOVERNARJUNIAO UMB DOS CULTOS AFRO BRAS    30111810 000044
10231987175000168817800093673    000027463                    000274630000000000000109                     I0127463     30111800000000035003410000017N200818104700000000000103011180000000000000000000000000000000000000000100080295576715DOLORES DAS GRACAS ADRIANO DE           RUA SOLDADO PRIM CANES, QUADRA 198 LOTE VILA MAR - G23025420GUARATIBA      RJUNIAO UMB DOS CULTOS AFRO BRAS    30111810 000045
10231987175000168817800093673    000027462                    000274620000000000000109                     I0127462     30111800000000035003410000017N200818104700000000000103011180000000000000000000000000000000000000000200000000004184CARLOS ALBERTO DA SILVA SANTOS          AVENIDA MARIA DE SENA MOREIRA, 218      INCOFINDENCI26085060RIO DE JANEIRO RJUNIAO UMB DOS CULTOS AFRO BRAS    30111810 000046
10231987175000168817800093673    000027461                    000274610000000000000109                     I0127461     30111800000000035003410000017N200818104700000000000103011180000000000000000000000000000000000000000100001393165745MARCO AURELIO DE BARROS FARIAS          RUA AIROSA GALVAO, 44                   FONSECA - NI24120100NITEROI        RJUNIAO UMB DOS CULTOS AFRO BRAS    30111810 000047
10231987175000168817800093673    000027460                    000274600000000000000109                     I0127460     30111800000000035003410000017N200818104700000000000103011180000000000000000000000000000000000000000100077451953734VANDA NILDA DE ASSIS                    RUA: COELHO LISBOA Nº 168              OSVALDO CRUZ21340260RIO DE JANEIRIORJUNIAO UMB DOS CULTOS AFRO BRAS    30111810 000048
10231987175000168817800093673    000027459                    000274590000000000000109                     I0127459     30111800000000035003410000017N200818104700000000000103011180000000000000000000000000000000000000000100005415694730ALEX SANDRO DA SILVA BANDEIRA           RUA PAULO ROBERTO, 6                    PRAIA DE MAU25900000MAGE           RJUNIAO UMB DOS CULTOS AFRO BRAS    30111810 000049
10231987175000168817800093673    000027458                    000274580000000000000109                     I0127458     30111800000000035003410000017N200818104700000000000103011180000000000000000000000000000000000000000100082059403715SANDRA HELENA VILLAMOR MONTASS          RUA ARGOS                               GUADALUPE   21660050RIO DE JANEIRO RJUNIAO UMB DOS CULTOS AFRO BRAS    30111810 000050
10231987175000168817800093673    000027457                    000274570000000000000109                     I0127457     30111800000000035003410000017N200818104700000000000103011180000000000000000000000000000000000000000100012948872898LUCILENE BARROS                         RUA DO PIANO 21                         CAMPOS ELISI25225218DUQUE DE CAXIASRJUNIAO UMB DOS CULTOS AFRO BRAS    30111810 000051
10231987175000168817800093673    000027456                    000274560000000000000109                     I0127456     30111800000000035003410000017N200818104700000000000103011180000000000000000000000000000000000000000100060407875700KATIA DE AZEVEDO FURTADO                RUA SOUZA PITANGA                       THOMAS COELH21381230RIO DE JANEIRO RJUNIAO UMB DOS CULTOS AFRO BRAS    30111810 000052
10231987175000168817800093673    000027455                    000274550000000000000109                     I0127455     30111800000000035003410000017N200818104700000000000103011180000000000000000000000000000000000000000100088677079734MARIA APARECIDA MORAIS DOS SAN          RUA OLAVO GAMA, TRAVESSA F - PROJETADA BGUARATIBA - 23040400SEROPEDICA     RJUNIAO UMB DOS CULTOS AFRO BRAS    30111810 000053
10231987175000168817800093673    000027454                    000274540000000000000109                     I0127454     30111800000000035003410000017N200818104700000000000103011180000000000000000000000000000000000000000100067023711791EURIDES DOS SANTOS                      RUA CORONEL ALBERTO DE MELO, 47 CASA 1  AREIA BRANCA26112370BELFORD ROXO   RJUNIAO UMB DOS CULTOS AFRO BRAS    30111810 000054
10231987175000168817800093673    000027453                    000274530000000000000109                     I0127453     30111800000000035003410000017N200818104700000000000103011180000000000000000000000000000000000000000100051851229787MARTA DO NASCIMENTO CRISPINO            RUA LEONOR SARAMAGO, 89                 FONSECA - NI24120340NITEROI        RJUNIAO UMB DOS CULTOS AFRO BRAS    30111810 000055
10231987175000168817800093673    000027452                    000274520000000000000109                     I0127452     30111800000000035003410000017N200818104700000000000103011180000000000000000000000000000000000000000100000000004130MARIA ORLANDA ALVES BRAZ                RUA JOSE DE ARAUJO 633                  CAMPO ALEGRE26292008RIO DE JANEIRO RJUNIAO UMB DOS CULTOS AFRO BRAS    30111810 000056
10231987175000168817800093673    000027451                    000274510000000000000109                     I0127451     30111800000000035003410000017N200818104700000000000103011180000000000000000000000000000000000000000100077526694749FATIMA CRISTINA DA CUNHA PINHE          RUA TRAVESSA SANTO MAXIMO, 25           GUADALUPE - 21655780RIO DE JANEIRO RJUNIAO UMB DOS CULTOS AFRO BRAS    30111810 000057
10231987175000168817800093673    000027450                    000274500000000000000109                     I0127450     30111800000000035003410000017N200818104700000000000103011180000000000000000000000000000000000000000100000059525738MONICA SOARES MAGALHAES                 RUA: AMALIA Nº 117                     QUINTINO - R21380400RIO DE JANEIRO RJUNIAO UMB DOS CULTOS AFRO BRAS    30111810 000058
10231987175000168817800093673    000027449                    000274490000000000000109                     I0127449     30111800000000035003410000017N200818104700000000000103011180000000000000000000000000000000000000000100003987884720SAINT CLAIR MACHADO FERNANDES           RUA JACA, QUADRA 4 LOTE 14              PARQUE ESPER26173510BELFORD ROXO   RJUNIAO UMB DOS CULTOS AFRO BRAS    30111810 000059
10231987175000168817800093673    000027448                    000274480000000000000109                     I0127448     30111800000000035003410000017N200818104700000000000103011180000000000000000000000000000000000000000100000000000409CARLOS HENRIQUE LOPES ROSA              RUA: ROSA MULLER                        VILAR DOS TE25560355SAO JOAO DE MERRJUNIAO UMB DOS CULTOS AFRO BRAS    30111810 000060
10231987175000168817800093673    000027447                    000274470000000000000109                     I0127447     30111800000000035003410000017N200818104700000000000103011180000000000000000000000000000000000000000100078935806749MARIA DA CONCEICAO DOS SANTOS           RUA ESTRELA, 26                         VILA SAO MIG26088315NOVA IGUACU    RJUNIAO UMB DOS CULTOS AFRO BRAS    30111810 000061
10231987175000168817800093673    000027446                    000274460000000000000109                     I0127446     30111800000000035003410000017N200818104700000000000103011180000000000000000000000000000000000000000100061523003715MARIA EMILIA RIBEIRO VIEIRA DO          RUA EIMA, 132                           IRAJA - RJ  21220370RIO DE JANEIRO RJUNIAO UMB DOS CULTOS AFRO BRAS    30111810 000062
10231987175000168817800093673    000027445                    000274450000000000000109                     I0127445     30111800000000040003410000017N200818104700000000000103011180000000000000000000000000000000000000000100004253313792VIVIANE ALVES DO ROSARIO                RUA: MANHUACU Nº 692 LOTE 6A E 2A      VARGEM GRAND22790704RIO DE JANEIRO RJUNIAO UMB DOS CULTOS AFRO BRAS    30111810 000063
10231987175000168817800093673    000027444                    000274440000000000000109                     I0127444     30111800000000035003410000017N200818104700000000000103011180000000000000000000000000000000000000000100033382840715MARIA ALICE CONSTANCIO GOMES            RUA PALMARES, 39                        JARDIM PERNA26275310NOVA IGUACU    RJUNIAO UMB DOS CULTOS AFRO BRAS    30111810 000064
10231987175000168817800093673    000027443                    000274430000000000000109                     I0127443     30111800000000035003410000017N200818104700000000000103011180000000000000000000000000000000000000000200000000004033SANDRA REIS DOS SANTOS                  RUA BANGU, 197 - DOUTOR LAUREANO        DUQUE DE CAX25060180DUQUE DE CAXIASRJUNIAO UMB DOS CULTOS AFRO BRAS    30111810 000065
10231987175000168817800093673    000027442                    000274420000000000000109                     I0127442     30111800000000035003410000017N200818104700000000000103011180000000000000000000000000000000000000000100075750384772VERA LUCIA BORGES NAZARETH              RUA DA CAPITAL, 430                     MAUA - SAO F25930000MAGE           RJUNIAO UMB DOS CULTOS AFRO BRAS    30111810 000066
10231987175000168817800093673    000027441                    000274410000000000000109                     I0127441     30111800000000040003410000017N200818104700000000000103011180000000000000000000000000000000000000000100075531585772ROSANGELA PAULINA RODRIGUES             ESTRADA: DA GUARITA N 1581              CARMARI - NO26040010NOVA IGUACU    RJUNIAO UMB DOS CULTOS AFRO BRAS    30111810 000067
10231987175000168817800093673    000027440                    000274400000000000000109                     I0127440     30111800000000035003410000017N200818104700000000000103011180000000000000000000000000000000000000000100064431002715SERGIO MURILO ALVES PEREIRA             RUA ROCHA                               JARDIM BONIF25565161SAO JOAO DE MERRJUNIAO UMB DOS CULTOS AFRO BRAS    30111810 000068
10231987175000168817800093673    000027439                    000274390000000000000109                     I0127439     30111800000000035003410000017N200818104700000000000103011180000000000000000000000000000000000000000100065138210700TANIA CRISTINA DOS SANTOS PERE          RUA: BOM JARDIM                         GRAMACHO    25035060DUQUE DE CAXIASRJUNIAO UMB DOS CULTOS AFRO BRAS    30111810 000069
10231987175000168817800093673    000027438                    000274380000000000000109                     I0127438     30111800000000035003410000017N200818104700000000000103011180000000000000000000000000000000000000000100007150949711SEVERINA BENVINDO FERREIRA              ESTRADA DO CALUNDU, LOTE 32 QUADRA 51   NOSSA SENHOR25040610DUQUE DE CAXIASRJUNIAO UMB DOS CULTOS AFRO BRAS    30111810 000070
10231987175000168817800093673    000027437                    000274370000000000000109                     I0127437     30111800000000025003410000017N200818104700000000000103011180000000000000000000000000000000000000000100052329160363NENI GOMES DE ALMEIDA                   RUA MARIA SANTANA FERNANDES, LOTE 8 QUADJARDIM ACACI23845250SEROPEDICA     RJUNIAO UMB DOS CULTOS AFRO BRAS    30111810 000071
10231987175000168817800093673    000027436                    000274360000000000000109                     I0127436     30111800000000035003410000017N200818104700000000000103011180000000000000000000000000000000000000000100054590604787VANDA PAIVA                             RUA LUIZ JACINTO, LOTE 3                EDEN - SAO J25535161SAO JOAO DE MERRJUNIAO UMB DOS CULTOS AFRO BRAS    30111810 000072
10231987175000168817800093673    000027435                    000274350000000000000109                     I0127435     30111800000000035003410000017N200818104700000000000103011180000000000000000000000000000000000000000100071056319709LAURECI DOS SANTOS                      RUA BERNARDO MONTEIRO, LOTE 7 QUADRA 157JD OLAVO BIL25025320DUQUE DE CAXIASRJUNIAO UMB DOS CULTOS AFRO BRAS    30111810 000073
10231987175000168817800093673    000027434                    000274340000000000000109                     I0127434     30111800000000035003410000017N200818104700000000000103011180000000000000000000000000000000000000000100059099747772EULINA LUCIA RODRIGUES DE SOUZ          RUA XAVIER DOS PASSAROS, 18 FUNDOS      PIEDADE - RJ20740330RIO DE JANEIRO RJUNIAO UMB DOS CULTOS AFRO BRAS    30111810 000074
10231987175000168817800093673    000027433                    000274330000000000000109                     I0127433     30111800000000035003410000017N200818104700000000000103011180000000000000000000000000000000000000000200000000004628RAQUEL RODRIGUES SOBRAL DANTAS          RUA CAPITAO COUTO MENEZES, 110          MADUREIRA - 21310200RIO DE JANEIRO RJUNIAO UMB DOS CULTOS AFRO BRAS    30111810 000075
10231987175000168817800093673    000027432                    000274320000000000000109                     I0127432     30111800000000035003410000017N200818104700000000000103011180000000000000000000000000000000000000000100003737351708TANIA PAULA DOS SANTOS                  RUA PREFEITO JOAO CARLOS VITAL, 80      SEPETIBA - R23540041RIO DE JANEIRO RJUNIAO UMB DOS CULTOS AFRO BRAS    30111810 000076
10231987175000168817800093673    000027431                    000274310000000000000109                     I0127431     30111800000000035003410000017N200818104700000000000103011180000000000000000000000000000000000000000100001057873705ADEMIR ANDRADE CUNHA                    RUA PACHECO DA ROCHA N 636              BENTO RIBEIR21555092RIO DE JANEIRO RJUNIAO UMB DOS CULTOS AFRO BRAS    30111810 000077
10231987175000168817800093673    000027430                    000274300000000000000109                     I0127430     30111800000000035003410000017N200818104700000000000103011180000000000000000000000000000000000000000100011208480758MARIA ANTONIA KIFFER CORREA             AVENIDA MARECHAL HERMES, 1060           VILA SAO LUI25065115DUQUE DE CAXIASRJUNIAO UMB DOS CULTOS AFRO BRAS    30111810 000078
10231987175000168817800093673    000027429                    000274290000000000000109                     I0127429     30111800000000035003410000017N200818104700000000000103011180000000000000000000000000000000000000000100000000000479HELENA ALVES BRAZ                       RUA JUTAI, LOTE 20 QUADRA 151           PERIQUITO - 25025290DUQUE DE CAXIASRJUNIAO UMB DOS CULTOS AFRO BRAS    30111810 000079
10231987175000168817800093673    000027428                    000274280000000000000109                     I0127428     30111800000000035003410000017N200818104700000000000103011180000000000000000000000000000000000000000100088469212753NEIDE CARVALHO D ANGELO                 RUA GENERAL TRAUMATURGO                 VILA ROSARIO25040010DUQUE DE CAXIASRJUNIAO UMB DOS CULTOS AFRO BRAS    30111810 000080
10231987175000168817800093673    000027427                    000274270000000000000109                     I0127427     30111800000000035003410000017N200818104700000000000103011180000000000000000000000000000000000000000200000000004748IVAN SOUZA DIAS                         RUA CARICO, LOTE 27 QUADRA 15 A         JARDIM METRO25575050SAO JOAO DE MERRJUNIAO UMB DOS CULTOS AFRO BRAS    30111810 000081
10231987175000168817800093673    000027426                    000274260000000000000109                     I0127426     30111800000000035003410000017N200818104700000000000103011180000000000000000000000000000000000000000200000000004621NEUZA MARIA MACHADO DA SILVA            RUA AUGUSTO SERGIO BOTELHO, QUADRA 67 LOBARRO BRANCO25267124DUQUE DE CAXIASRJUNIAO UMB DOS CULTOS AFRO BRAS    30111810 000082
10231987175000168817800093673    000027425                    000274250000000000000109                     I0127425     30111800000000035003410000017N200818104700000000000103011180000000000000000000000000000000000000000100001798819732RITA MARIA VIANNA                       RUA IPAMERI, 236                        CORDOVIL - R21012175RIO DE JANEIRO RJUNIAO UMB DOS CULTOS AFRO BRAS    30111810 000083
10231987175000168817800093673    000027424                    000274240000000000000109                     I0127424     30111800000000035003410000017N200818104700000000000103011180000000000000000000000000000000000000000200000000004766EDINALVA MUNIZ VALENTIM                 AVENIDA RIO DE JANEIRO, 21              INCRA - SERO23850220SEROPEDICA     RJUNIAO UMB DOS CULTOS AFRO BRAS    30111810 000084
10231987175000168817800093673    000027423                    000274230000000000000109                     I0127423     30111800000000035003410000017N200818104700000000000103011180000000000000000000000000000000000000000100002912019702JONER BORGES BARCELOS                   RUA OITO, QUADRA 30 LOTE 8              NOVA CAMPINA25000000DUQUE DE CAXIASRJUNIAO UMB DOS CULTOS AFRO BRAS    30111810 000085
10231987175000168817800093673    000027422                    000274220000000000000109                     I0127422     30111800000000035003410000017N200818104700000000000103011180000000000000000000000000000000000000000100001637090765DEBORA VENTURA CESAR                    RUA DOS CONGREGADOS                     HELIOPOLIS  20765040RIO DE JANEIRO RJUNIAO UMB DOS CULTOS AFRO BRAS    30111810 000086
10231987175000168817800093673    000027421                    000274210000000000000109                     I0127421     30111800000000035003410000017N200818104700000000000103011180000000000000000000000000000000000000000100078815428704LUZINETE PINHO DE SA                    ESTRADA: MANOEL FERREIRA CAMPAR Nº 1311POSSE - NOVA26021060NOVA IGUACU    RJUNIAO UMB DOS CULTOS AFRO BRAS    30111810 000087
10231987175000168817800093673    000027420                    000274200000000000000109                     I0127420     30111800000000035003410000017N200818104700000000000103011180000000000000000000000000000000000000000100001925108783HELENA MOREIRA PESSOA                   RUA CAPIVARA, LOTE 639 QUADRA 48        SANTA CRUZ D25260180DUQUE DE CAXIASRJUNIAO UMB DOS CULTOS AFRO BRAS    30111810 000088
10231987175000168817800093673    000027419                    000274190000000000000109                     I0127419     30111800000000035003410000017N200818104700000000000103011180000000000000000000000000000000000000000100007782014735TEREZINHA MARIA DOS SANTOS FER          RUA: UM                                 PARQUE PAULI25525260DUQUE DE CAXIASRJUNIAO UMB DOS CULTOS AFRO BRAS    30111810 000089
10231987175000168817800093673    000027418                    000274180000000000000109                     I0127418     30111800000000035003410000017N200818104700000000000103011180000000000000000000000000000000000000000100018780962572INALVA LAZARO DRUMOND                   AVENIDA MARECHAL RONDON, 2117           RIACHUELO  -20950071RIO DE JANEIRO RJUNIAO UMB DOS CULTOS AFRO BRAS    30111810 000090
10231987175000168817800093673    000027417                    000274170000000000000109                     I0127417     30111800000000035003410000017N200818104700000000000103011180000000000000000000000000000000000000000100001783778806MARIA LUIZA FERREIRA GODINHO C          ESTRADA DO BOIUNA, 2620                 TAQUARA - JA22723018RIO DE JANEIRO RJUNIAO UMB DOS CULTOS AFRO BRAS    30111810 000091
10231987175000168817800093673    000027416                    000274160000000000000109                     I0127416     30111800000000035003410000017N200818104700000000000103011180000000000000000000000000000000000000000100000911446710NELI MONTEIRO DE CASTRO                 RUA ROMILDO Nº 139 - VAZ MARTINS       NOVA IGUACU 20051040RIO DE JANEIRO RJUNIAO UMB DOS CULTOS AFRO BRAS    30111810 000092
10231987175000168817800093673    000027415                    000274150000000000000109                     I0127415     30111800000000035003410000017N200818104700000000000103011180000000000000000000000000000000000000000100010058913700RAMON DO NASCIMENTO MANES               RUA LIGIA, 329                          OLARIA - RJ 21073280RIO DE JANEIRO RJUNIAO UMB DOS CULTOS AFRO BRAS    30111810 000093
10231987175000168817800093673    000027414                    000274140000000000000109                     I0127414     30111800000000035003410000017N200818104700000000000103011180000000000000000000000000000000000000000100005137259705CRISTINA DE OLIVEIRA DA SILVA           AVENIDA CAMPO MOURAO SN APARTAMENTO 102 JARDIM MARAV23031080CAMPO GRANDE   RJUNIAO UMB DOS CULTOS AFRO BRAS    30111810 000094
10231987175000168817800093673    000027413                    000274130000000000000109                     I0127413     30111800000000035003410000017N200818104700000000000103011180000000000000000000000000000000000000000100079469825772VICTOR FRANCISCO PEREIRA NETO           RUA YZ 2 LT 7,8,9 QDRA 27 B/ JD ANHANGA DUQUE DE CAX25036290DUQUE DE CAXIASRJUNIAO UMB DOS CULTOS AFRO BRAS    30111810 000095
10231987175000168817800093673    000027412                    000274120000000000000109                     I0127412     30111800000000035003410000017N200818104700000000000103011180000000000000000000000000000000000000000100007474273721CLARINDO DE MEDEIROS                    RUA SAO MARCOS                          VILAR DOS TE25561220SAO JOAO DE MERRJUNIAO UMB DOS CULTOS AFRO BRAS    30111810 000096
10231987175000168817800093673    000027411                    000274110000000000000109                     I0127411     30111800000000035003410000017N200818104700000000000103011180000000000000000000000000000000000000000100000000000373ANDRE LUIZ DINIZ CARDOSO                RUA CORDOVIL,                           PARADA DE LU21250450RIO DE JANEIRO RJUNIAO UMB DOS CULTOS AFRO BRAS    30111810 000097
10231987175000168817800093673    000027410                    000274100000000000000109                     I0127410     30111800000000035003410000017N200818104700000000000103011180000000000000000000000000000000000000000100022023461715SAULO EMMANUEL FERREIRA GUEDES          AVENIDA: VICENTE DE CARVALHO            VICENTE DE C21210003RIO DE JANEIRO RJUNIAO UMB DOS CULTOS AFRO BRAS    30111810 000098
10231987175000168817800093673    000027409                    000274090000000000000109                     I0127409     30111800000000035003410000017N200818104700000000000103011180000000000000000000000000000000000000000100041216989753CARMEM VIANA DE JESUS                   RUA DAS TULIPAS, LOTE 4 A QUADRA 5      CIDADE DOS M25235040DUQUE DE CAXIASRJUNIAO UMB DOS CULTOS AFRO BRAS    30111810 000099
10231987175000168817800093673    000027408                    000274080000000000000109                     I0127408     30111800000000035003410000017N200818104700000000000103011180000000000000000000000000000000000000000100007446571721ANDREA GUEDES PINHEIRO GOMES            RUA CATARINA SANTANA  169               CABUCU      26341490NILOPOLIS      RJUNIAO UMB DOS CULTOS AFRO BRAS    30111810 000100
10231987175000168817800093673    000027407                    000274070000000000000109                     I0127407     30111800000000035003410000017N200818104700000000000103011180000000000000000000000000000000000000000100000939896796SHIRLEI ARAUJO DO CARMO RODRIG          O MESMO                                 O MESMO     21532170RIO DE JANEIRO RJUNIAO UMB DOS CULTOS AFRO BRAS    30111810 000101
10231987175000168817800093673    000027406                    000274060000000000000109                     I0127406     30111800000000035003410000017N200818104700000000000103011180000000000000000000000000000000000000000100059195711791ELOISA HELENA PEREIRA NUNES             RUA BOAIACA, 330                        BENTO RIBEIR21331600RIO DE JANEIRO RJUNIAO UMB DOS CULTOS AFRO BRAS    30111810 000102
10231987175000168817800093673    000027405                    000274050000000000000109                     I0127405     30111800000000035003410000017N200818104700000000000103011180000000000000000000000000000000000000000100000675108764MARIA CRISTINA SANTOS GENEROSO          RUA  APODI                              PARQUE  SUEC26187300BELFORD ROXO   RJUNIAO UMB DOS CULTOS AFRO BRAS    30111810 000103
10231987175000168817800093673    000027404                    000274040000000000000109                     I0127404     30111800000000035003410000017N200818104700000000000103011180000000000000000000000000000000000000000100063538369704VERA LUCIA SOARES CONCEICAO DE          RUA CARALUNA, 35                        GUARATIBA - 23032070RIO DE JANEIRO RJUNIAO UMB DOS CULTOS AFRO BRAS    30111810 000104
10231987175000168817800093673    000027403                    000274030000000000000109                     I0127403     30111800000000035003410000017N200818104700000000000103011180000000000000000000000000000000000000000200000000003641DARLI ROCHA DO PRADO FERREIRA           O MESMO                                 O MESMO     21930376RIO DE JANEIRO RJUNIAO UMB DOS CULTOS AFRO BRAS    30111810 000105
10231987175000168817800093673    000027402                    000274020000000000000109                     I0127402     30111800000000035003410000017N200818104700000000000103011180000000000000000000000000000000000000000100003408195706MONICA VALERIA COSTA BARAUNA            AVENDIA: CARNAUBEIRA Nº 415 - GUARATIBARIO DE JANEI23032080RIO DE JANEIRO RJUNIAO UMB DOS CULTOS AFRO BRAS    30111810 000106
10231987175000168817800093673    000027401                    000274010000000000000109                     I0127401     30111800000000035003410000017N200818104700000000000103011180000000000000000000000000000000000000000100030011370700HELENA CAVALCANTE MARQUES               RUA DOUTOR PASSOS Nº 35 FUNDOS         MADUREIRA - 21310160RIO DE JANEIRO RJUNIAO UMB DOS CULTOS AFRO BRAS    30111810 000107
10231987175000168817800093673    000027400                    000274000000000000000109                     I0127400     30111800000000035003410000017N200818104700000000000103011180000000000000000000000000000000000000000100090021177791MARIA CRISTINA SOUZA DE OLIVEI          RUA: DA GLORIA Nº 4064 - VILA LEPOLDINADUQUE DE CAX25060240DUQUE DE CAXIASRJUNIAO UMB DOS CULTOS AFRO BRAS    30111810 000108
10231987175000168817800093673    000027399                    000273990000000000000109                     I0127399     30111800000000035003410000017N200818104700000000000103011180000000000000000000000000000000000000000100028031342768ODILA RIBEIRO MARTINS                   O MESMO                                 O MESMO     25560490SAO JOAO DE MERRJUNIAO UMB DOS CULTOS AFRO BRAS    30111810 000109
10231987175000168817800093673    000027398                    000273980000000000000109                     I0127398     30111800000000035003410000017N200818104700000000000103011180000000000000000000000000000000000000000200000000003563CILEIDE REGLE RAPOUZO                   O MESMO                                 O MESMO     25050520DUQUE DE CAXIASRJUNIAO UMB DOS CULTOS AFRO BRAS    30111810 000110
10231987175000168817800093673    000027397                    000273970000000000000109                     I0127397     30111800000000035003410000017N200818104700000000000103011180000000000000000000000000000000000000000100000000000356SANDRA BAPTISTA DA SILVA                O MESMO                                 O MESMO     23047560RIO DE JANEIRO RJUNIAO UMB DOS CULTOS AFRO BRAS    30111810 000111
10231987175000168817800093673    000027396                    000273960000000000000109                     I0127396     30111800000000035003410000017N200818104700000000000103011180000000000000000000000000000000000000000200000000003554ELIZABETH GANTERT DA ROCHA GUI          O MESMO                                 O MESMO     26351140NOVA IGUACU    RJUNIAO UMB DOS CULTOS AFRO BRAS    30111810 000112
10231987175000168817800093673    000027395                    000273950000000000000109                     I0127395     30111800000000035003410000017N200818104700000000000103011180000000000000000000000000000000000000000100054608066749MARCIA GONCALVES LENCASTRE              RUA: NOVO HORIZONTE                     SEPETIBA    23540133RIO DE JANEIRO RJUNIAO UMB DOS CULTOS AFRO BRAS    30111810 000113
10231987175000168817800093673    000027394                    000273940000000000000109                     I0127394     30111800000000035003410000017N200818104700000000000103011180000000000000000000000000000000000000000100010078178797ALINE CORREA SOUZA                      AVENIDA PILAR DO SUL LOTE 42 QUADRA 23  GUARATIBA - 23033160RIO DE JANEIRO RJUNIAO UMB DOS CULTOS AFRO BRAS    30111810 000114
10231987175000168817800093673    000027393                    000273930000000000000109                     I0127393     30111800000000035003410000017N200818104700000000000103011180000000000000000000000000000000000000000100092650716720ANDRE LUIS ALMEIDA SOUZA                RUA CAIMIRIM                            SANTA TEREZI26555050BELFORD ROXO   RJUNIAO UMB DOS CULTOS AFRO BRAS    30111810 000115
10231987175000168817800093673    000027392                    000273920000000000000109                     I0127392     30111800000000035003410000017N200818104700000000000103011180000000000000000000000000000000000000000100044108680715MARIA DA PENHA PEREIRA DOS SAN          O MESMO                                 O MESMO     26530060NILOPOLIS      RJUNIAO UMB DOS CULTOS AFRO BRAS    30111810 000116
10231987175000168817800093673    000027391                    000273910000000000000109                     I0127391     30111800000000035003410000017N200818104700000000000103011180000000000000000000000000000000000000000100010084300728RODRIGO ALVES DE PINHO                  RUA JOVITA FEITOSA N 131                VILA SAO JUD25243570DUQUE DE CAXIASRJUNIAO UMB DOS CULTOS AFRO BRAS    30111810 000117
10231987175000168817800093673    000027390                    000273900000000000000109                     I0127390     30111800000000035003410000017N200818104700000000000103011180000000000000000000000000000000000000000100060052830730PAULO CESAR BARRETO ALVES               RUA ANGELO DOS REIS N 207 FUNDOS        USINA - ALTO20531010RIO DE JANEIRO RJUNIAO UMB DOS CULTOS AFRO BRAS    30111810 000118
10231987175000168817800093673    000027389                    000273890000000000000109                     I0127389     30111800000000035003410000017N200818104700000000000103011180000000000000000000000000000000000000000100000615134742CONCEICAO DE SOUZA CAPITANO             RUA MECA N 103 - SAO BENEDITO           SAO BENEDITO26022540NOVA IGUACU    RJUNIAO UMB DOS CULTOS AFRO BRAS    30111810 000119
10231987175000168817800093673    000027388                    000273880000000000000109                     I0127388     30111800000000035003410000017N200818104700000000000103011180000000000000000000000000000000000000000200000000003410DENIRCE SOUZA ANDRE                     O MESMO                                 O MESMO     20761121RIO DE JANEIRO RJUNIAO UMB DOS CULTOS AFRO BRAS    30111810 000120
10231987175000168817800093673    000027387                    000273870000000000000109                     I0127387     30111800000000035003410000017N200818104700000000000103011180000000000000000000000000000000000000000100002344767703ROSINETE FERREIRA CAMARGO               O MESMO                                 O MESMO     22733130RIO DE JANEIRO RJUNIAO UMB DOS CULTOS AFRO BRAS    30111810 000121
10231987175000168817800093673    000027386                    000273860000000000000109                     I0127386     30111800000000035003410000017N200818104700000000000103011180000000000000000000000000000000000000000100022175534880LUCIANO THOMAZ DE ROSA                  RUA FRANCISCO JOSE DA SILVA, 25         SUZANO - JAR08695060SAO PAULO      SPUNIAO UMB DOS CULTOS AFRO BRAS    30111810 000122
10231987175000168817800093673    000027385                    000273850000000000000109                     I0127385     30111800000000035003410000017N200818104700000000000103011180000000000000000000000000000000000000000100033413525700ALBERICE SILVA OLIVEIRA                 RUA DIAS DA CRUZ 170 APT 201            MEIER       20720012RIO DE JANEIRO RJUNIAO UMB DOS CULTOS AFRO BRAS    30111810 000123
10231987175000168817800093673    000027384                    000273840000000000000109                     I0127384     30111800000000035003410000017N200818104700000000000103011180000000000000000000000000000000000000000100044608268791FAUSTO DOS SANTOS REZENDE               O MESMO                                 O MESMO     21010070RIO DE JANEIRO RJUNIAO UMB DOS CULTOS AFRO BRAS    30111810 000124
10231987175000168817800093673    000027383                    000273830000000000000109                     I0127383     30111800000000035003410000017N200818104700000000000103011180000000000000000000000000000000000000000200000000003341HELENA MARIA DA SILVA                   RUA VINTE E QUATRO DE OUTUBRO,  QUADRA BBARRO BRANCO25267450DUQUE DE CAXIASRJUNIAO UMB DOS CULTOS AFRO BRAS    30111810 000125
10231987175000168817800093673    000027382                    000273820000000000000109                     I0127382     30111800000000035003410000017N200818104700000000000103011180000000000000000000000000000000000000000100007544975770WILLIAMS COSTA SOARES                   O MESMO                                 O MESMO     26261150NOVA IGUACU    RJUNIAO UMB DOS CULTOS AFRO BRAS    30111810 000126
10231987175000168817800093673    000027381                    000273810000000000000109                     I0127381     30111800000000035003410000017N200818104700000000000103011180000000000000000000000000000000000000000100071741798787JAILTON DA SILVA VIEIRA                 RUA DA GAVEA                            VILA LEOPOLD25060300DUQUE DE CAXIASRJUNIAO UMB DOS CULTOS AFRO BRAS    30111810 000127
10231987175000168817800093673    000027380                    000273800000000000000109                     I0127380     30111800000000035003410000017N200818104700000000000103011180000000000000000000000000000000000000000100069876207768JUREMA DIONISIO RODRIGUES               RUA CARLOS OLIMPIO DE MELLO N 59 CASA 1 PACIENCIA - 23585160RIO DE JANEIRO RJUNIAO UMB DOS CULTOS AFRO BRAS    30111810 000128
10231987175000168817800093673    000027379                    000273790000000000000109                     I0127379     30111800000000035003410000017N200818104700000000000103011180000000000000000000000000000000000000000100001859792707REGIS GOMES DE OLIVEIRA                 AVENIDA DO CANAL N 54 - CONDOMINIO VALE ALBUQUERQUE 25976560TERESOPOLIS    RJUNIAO UMB DOS CULTOS AFRO BRAS    30111810 000129
10231987175000168817800093673    000027378                    000273780000000000000109                     I0127378     30111800000000035003410000017N200818104700000000000103011180000000000000000000000000000000000000000100001149312750CLAUDIO SERGIO DE CASTRO                RUA: LAJAO Nº 279 - CENTRO / CONSELHEIRMINAS GERAIS35240000MINAS GERAIS   MGUNIAO UMB DOS CULTOS AFRO BRAS    30111810 000130
10231987175000168817800093673    000027377                    000273770000000000000109                     I0127377     30111800000000035003410000017N200818104700000000000103011180000000000000000000000000000000000000000100002878076737TANIA NACARI AIRES GALVAO               RUA MORRO DAS FLORAS N 25 - CACUIA      CACUIA - ILH21930440ILHA DO GOVERNARJUNIAO UMB DOS CULTOS AFRO BRAS    30111810 000131
10231987175000168817800093673    000027376                    000273760000000000000109                     I0127376     30111800000000035003410000017N200818104700000000000103011180000000000000000000000000000000000000000100001050327780MARIA LUCIA DE FATIMA FERREIRA          RUA BUDAPESTE N 172 CASA 2 - BANCARIOS  BANCARIOS - 21911300RIO DE JANEIRO RJUNIAO UMB DOS CULTOS AFRO BRAS    30111810 000132
10231987175000168817800093673    000027375                    000273750000000000000109                     I0127375     30111800000000035003410000017N200818104700000000000103011180000000000000000000000000000000000000000100003200716851CYNTHIA RITA HERTEL                     FRIBURGO LOTE 17 QUADRA 26 - SAMBAETIBA ITABORAI - R24842220ITABORAI       RJUNIAO UMB DOS CULTOS AFRO BRAS    30111810 000133
10231987175000168817800093673    000027374                    000273740000000000000109                     I0127374     30111800000000035003410000017N200818104700000000000103011180000000000000000000000000000000000000000100005727808774RITA BORGES MOREIRA                     RUA: CIRILO DA SILVEIRA Nº 80 - RUA J LVILA VALQUEI21330735RIO DE JANEIRO RJUNIAO UMB DOS CULTOS AFRO BRAS    30111810 000134
10231987175000168817800093673    000027373                    000273730000000000000109                     I0127373     30111800000000035003410000017N200818104700000000000103011180000000000000000000000000000000000000000100007201140710MARIA DE FATIMA DE OLIVEIRA SI          RUA MUTIRAO, 384                        SANTO AGOSTI27291110VOLTA REDONDA  RJUNIAO UMB DOS CULTOS AFRO BRAS    30111810 000135
10231987175000168817800093673    000027372                    000273720000000000000109                     I0127372     30111800000000035003410000017N200818104700000000000103011180000000000000000000000000000000000000000100009611659792ALUIZIO RODRIGUES RIBEIRO               RUA GARCIA PIRES N° 82 CASA 3          QUINTINO - R21331300RIO DE JANEIRO RJUNIAO UMB DOS CULTOS AFRO BRAS    30111810 000136
10231987175000168817800093673    000027371                    000273710000000000000109                     I0127371     30111800000000035003410000017N200818104700000000000103011180000000000000000000000000000000000000000100058924477749MARIA DAS GRACAS AZEVEDO RIBEI          RUA VICENTE LIMA                        TEL 2662.73625560240SAO JOAO DE MERRJUNIAO UMB DOS CULTOS AFRO BRAS    30111810 000137
10231987175000168817800093673    000027370                    000273700000000000000109                     I0127370     30111800000000035003410000017N200818104700000000000103011180000000000000000000000000000000000000000100070891036768EDNA FERREIRA DE MELO                   RUA SARGENTO MARQUETI N 5               MARECHAL HER21611000RIO DE JANEIRO RJUNIAO UMB DOS CULTOS AFRO BRAS    30111810 000138
10231987175000168817800093673    000027369                    000273690000000000000109                     I0127369     30111800000000035003410000017N200818104700000000000103011180000000000000000000000000000000000000000100003125944708ROGERIO GOMES DA SILVA                  RUA: DOUTOR BERNARDINO GOMES Nº 92     BANCARIOS - 21910130RIO DE JANEIRO RJUNIAO UMB DOS CULTOS AFRO BRAS    30111810 000139
10231987175000168817800093673    000027368                    000273680000000000000109                     I0127368     30111800000000035003410000017N200818104700000000000103011180000000000000000000000000000000000000000100002541954743DENISE DIAS DE OLIVEIRA                 RUA: BERNARDINO DE CAMPOS               DUQUE DE CAX25035530DUQUE DE CAXIASRJUNIAO UMB DOS CULTOS AFRO BRAS    30111810 000140
10231987175000168817800093673    000027367                    000273670000000000000109                     I0127367     30111800000000040003410000017N200818104700000000000103011180000000000000000000000000000000000000000100004252372739BARBARA CRISTINA BATISTA DOS S          O MESMO                                 O MESMO     26352090NOVA IGUACU    RJUNIAO UMB DOS CULTOS AFRO BRAS    30111810 000141
10231987175000168817800093673    000027366                    000273660000000000000109                     I0127366     30111800000000035003410000017N200818104700000000000103011180000000000000000000000000000000000000000100088407721700CELSO DE OLIVEIRA ALBUQUERQUE           RUA ANHANGUERA LOTE 50 QUADRA 11        SAO BERNARDO26160660BELFORD ROXO   RJUNIAO UMB DOS CULTOS AFRO BRAS    30111810 000142
10231987175000168817800093673    000027365                    000273650000000000000109                     I0127365     30111800000000035003410000017N200818104700000000000103011180000000000000000000000000000000000000000100001559752777CLAUDIA DA SILVA FERREIRA ANTO          RUA SAO JOAO N 89                       COSMOS - INH23060720INHOAIBA       RJUNIAO UMB DOS CULTOS AFRO BRAS    30111810 000143
10231987175000168817800093673    000027364                    000273640000000000000109                     I0127364     30111800000000035003410000017N200818104700000000000103011180000000000000000000000000000000000000000100002065913738ROBSON DE FARIA TORRES                  RUA CAPITAO AROLDO LEITAO Nº 54 FUNDOS OLARIA - RJ 21071050RIO DE JANEIRO RJUNIAO UMB DOS CULTOS AFRO BRAS    30111810 000144
10231987175000168817800093673    000027363                    000273630000000000000109                     I0127363     30111800000000035003410000017N200818104700000000000103011180000000000000000000000000000000000000000100018338577715MARILDA ALVES DE ALMEIDA                RUA BORBOREMA  37                       MADUREIRA   21360150RIO DE JANEIRO RJUNIAO UMB DOS CULTOS AFRO BRAS    30111810 000145
10231987175000168817800093673    000027362                    000273620000000000000109                     I0127362     30111800000000035003410000017N200818104700000000000103011180000000000000000000000000000000000000000100049170872791SONIA REGINA BARBOSA CAVATO             AVENIDA: SCHULTZ WENK Nº 183           CORDOVIL - R21012155RIO DE JANEIRO RJUNIAO UMB DOS CULTOS AFRO BRAS    30111810 000146
10231987175000168817800093673    000027361                    000273610000000000000109                     I0127361     30111800000000035003410000017N200818104700000000000103011180000000000000000000000000000000000000000100058486496772CELIA DOMINGOS DA SILVA                 RUA JANETE N 461                        BANCO DE ARE26275020MESQUITA       RJUNIAO UMB DOS CULTOS AFRO BRAS    30111810 000147
10231987175000168817800093673    000027360                    000273600000000000000109                     I0127360     30111800000000035003410000017N200818104700000000000103011180000000000000000000000000000000000000000100058375562734NOELIA NOEMIA PIRES FERREIRA            AV. EUCLIDES DA CUNHA N° 100 A         V. SAO JOAO 22790702RIO DE JANEIRO RJUNIAO UMB DOS CULTOS AFRO BRAS    30111810 000148
10231987175000168817800093673    000027359                    000273590000000000000109                     I0127359     30111800000000035003410000017N200818104700000000000103011180000000000000000000000000000000000000000100008763637707JUSSARA SILVA DE ALBUQUERQUE            RUA: ARGOS Nº 281 FUNDOS - GUADALUPE   RIO DE JANEI21660050RIO DE JANEIRO RJUNIAO UMB DOS CULTOS AFRO BRAS    30111810 000149
10231987175000168817800093673    000027358                    000273580000000000000109                     I0127358     30111800000000035003410000017N200818104700000000000103011180000000000000000000000000000000000000000100003341741738CASSIA GOMES CASTORINO                  RUA: COMENDADOR CRISOSTEMO CRUZ LOTE 13 STª MARIA -26165400BELFORD ROXO   RJUNIAO UMB DOS CULTOS AFRO BRAS    30111810 000150
10231987175000168817800093673    000027357                    000273570000000000000109                     I0127357     30111800000000035003410000017N200818104700000000000103011180000000000000000000000000000000000000000100082940983704JURACIARA DA CONCEICAO                  RUA ASSIS VASCONCELOS N 385             PILARES - RI20755010RIO DE JANEIRO RJUNIAO UMB DOS CULTOS AFRO BRAS    30111810 000151
10231987175000168817800093673    000027356                    000273560000000000000109                     I0127356     30111800000000035003410000017N200818104700000000000103011180000000000000000000000000000000000000000100066391482772VERA LUCIA BARBOSA FERREIRA (D          RUA JOAO VICENTE N 1695 SOBRADO         MARECHAL HER21610210RIO DE JANEIRO RJUNIAO UMB DOS CULTOS AFRO BRAS    30111810 000152
10231987175000168817800093673    000027355                    000273550000000000000109                     I0127355     30111800000000035003410000017N200818104700000000000103011180000000000000000000000000000000000000000100048623334787IOLANDA JOSE PROFIRIO BARRETO           RUA TRES Nº 102                        VILA DO SOL 28900000CABO FRIO      RJUNIAO UMB DOS CULTOS AFRO BRAS    30111810 000153
10231987175000168817800093673    000027354                    000273540000000000000109                     I0127354     30111800000000035003410000017N200818104700000000000103011180000000000000000000000000000000000000000100038923335720MARILENE LOPES                          RUA: LIBERATO                           MESQUITA    26235180MESQUITA       RJUNIAO UMB DOS CULTOS AFRO BRAS    30111810 000154
10231987175000168817800093673    000027353                    000273530000000000000109                     I0127353     30111800000000035003410000017N200818104700000000000103011180000000000000000000000000000000000000000100033745226704LUIZA MARIA DO NASCIMENTO MARQ          CESARIO DE MELO 9756 RUA C 1 LT 10 QD C MONTE SERRA 23028050RIO DE JANEIRO RJUNIAO UMB DOS CULTOS AFRO BRAS    30111810 000155
10231987175000168817800093673    000027352                    000273520000000000000109                     I0127352     30111800000000035003410000017N200818104700000000000103011180000000000000000000000000000000000000000100089682300487STIVES FERREIRA DA SILVA                RUA OSVALDO EVANGELISTA DOS SANTOS N 110BANGU - RIO 21864530RIO DE JANEIRO RJUNIAO UMB DOS CULTOS AFRO BRAS    30111810 000156
10231987175000168817800093673    000027351                    000273510000000000000109                     I0127351     30111800000000035003410000017N200818104700000000000103011180000000000000000000000000000000000000000100046626247700SHEILA MARIA DE ANDRADE                 ESTRADA ANTONIO JOSE BITTENCOURT        CENTRO      26535000NILOPOLIS      RJUNIAO UMB DOS CULTOS AFRO BRAS    30111810 000157
10231987175000168817800093673    000027350                    000273500000000000000109                     I0127350     30111800000000035003410000017N200818104700000000000103011180000000000000000000000000000000000000000100083819991700LUZIA GERALDINA DA SILVA                ESTRADA DA FAZENDINHA N 5 FUNDOS        BADU - NITER23320420NITEROI        RJUNIAO UMB DOS CULTOS AFRO BRAS    30111810 000158
10231987175000168817800093673    000027349                    000273490000000000000109                     I0127349     30111800000000035003410000017N200818104700000000000103011180000000000000000000000000000000000000000200000000002853RUBENS FERNANDO DE OLIVEIRA             ALAMEDA BEM-TE-VI N 114                 PAVUNA - RIO21521200RIO DE JANEIRO RJUNIAO UMB DOS CULTOS AFRO BRAS    30111810 000159
10231987175000168817800093673    000027348                    000273480000000000000109                     I0127348     30111800000000035003410000017N200818104700000000000103011180000000000000000000000000000000000000000200000000002846JORGE ALVES DE MEDEIROS                 RUA LILAZES N 13                        PARQUE FLORE26171450BELFORD ROXO   RJUNIAO UMB DOS CULTOS AFRO BRAS    30111810 000160
10231987175000168817800093673    000027347                    000273470000000000000109                     I0127347     30111800000000035003410000017N200818104700000000000103011180000000000000000000000000000000000000000200000000002796ANA MARIA ROQUE DA SILVA                RUA EUCLIDES ROXO N 185                 REALENGO - R21765590RIO DE JANEIRO RJUNIAO UMB DOS CULTOS AFRO BRAS    30111810 000161
10231987175000168817800093673    000027346                    000273460000000000000109                     I0127346     30111800000000035003410000017N200818104700000000000103011180000000000000000000000000000000000000000100067165664734JAIRINO DOS SANTOS E JUREMA J.          TRAVESSA ALVARENGA N 80                 EDSON PASSOS26246150MESQUITA       RJUNIAO UMB DOS CULTOS AFRO BRAS    30111810 000162
10231987175000168817800093673    000027345                    000273450000000000000109                     I0127345     30111800000000035003410000017N200818104700000000000103011180000000000000000000000000000000000000000100071924337720MARIA DAS DORES FERREIRA PESSA          AVENIDA  RAFAEL DE OLIVEIRA  60         GUADALUPE   21675620RIO DE JANEIRO RJUNIAO UMB DOS CULTOS AFRO BRAS    30111810 000163
10231987175000168817800093673    000027344                    000273440000000000000109                     I0127344     30111800000000035003410000017N200818104700000000000103011180000000000000000000000000000000000000000100078664870730LUCIA MARA RIBEIRO OLIVEIRA             RUA LUIZA N 47                          CHATUBA - ME26584210MESQUITA       RJUNIAO UMB DOS CULTOS AFRO BRAS    30111810 000164
10231987175000168817800093673    000027343                    000273430000000000000109                     I0127343     30111800000000035003410000017N200818104700000000000103011180000000000000000000000000000000000000000100090776704753CLAUDIO ISAAC PEREIRA TEIXEIRA          RUA ARUTI N 57 FUNDOS                   PRACA SECA -21321030RIO DE JANEIRO RJUNIAO UMB DOS CULTOS AFRO BRAS    30111810 000165
10231987175000168817800093673    000027342                    000273420000000000000109                     I0127342     30111800000000035003410000017N200818104700000000000103011180000000000000000000000000000000000000000100079006980753ELIANE BARBOSA RODRIGUES                AVENIDA PASTEUR                         SAO JOAO DE 25550480SAO JOAO DE MERRJUNIAO UMB DOS CULTOS AFRO BRAS    30111810 000166
10231987175000168817800093673    000027341                    000273410000000000000109                     I0127341     30111800000000035003410000017N200818104700000000000103011180000000000000000000000000000000000000000100045469805720NIVALDA MARIA FERREIRA                  RUA LASSANCE LOTE 14 QUADRA 9           JARDIM MARAV23033100CAMPO GRANDE   RJUNIAO UMB DOS CULTOS AFRO BRAS    30111810 000167
10231987175000168817800093673    000027340                    000273400000000000000109                     I0127340     30111800000000035003410000017N200818104700000000000103011180000000000000000000000000000000000000000100000888045778JOSIAS MARANHAO DA SILVA                RUA TRIMONTE                            JARDIM PRIMA25223820DUQUE DE CAXIASRJUNIAO UMB DOS CULTOS AFRO BRAS    30111810 000168
10231987175000168817800093673    000027339                    000273390000000000000109                     I0127339     30111800000000035003410000017N200818104700000000000103011180000000000000000000000000000000000000000200000000002672ADRIANA SANTOS DA SILVA                 RUA URBANO DUARTE N 199                 VILA ROSARIO25042300DUQUE DE CAXIASRJUNIAO UMB DOS CULTOS AFRO BRAS    30111810 000169
10231987175000168817800093673    000027338                    000273380000000000000109                     I0127338     30111800000000035003410000017N200818104700000000000103011180000000000000000000000000000000000000000100048363340715AUREA RAMOS                             ESTRADA DO MAGARCA N 8488               CINCO MARIAS23031201PEDRA DE GUARATRJUNIAO UMB DOS CULTOS AFRO BRAS    30111810 000170
10231987175000168817800093673    000027337                    000273370000000000000109                     I0127337     30111800000000035003410000017N200818104700000000000103011180000000000000000000000000000000000000000100075643081768ELISABETE MOREIRA FREIRE DA SI          RUA NOVENTA E OITO LOTE 15              VILA CARIOCA21220770RIO DE JANEIRO RJUNIAO UMB DOS CULTOS AFRO BRAS    30111810 000171
10231987175000168817800093673    000027336                    000273360000000000000109                     I0127336     30111800000000035003410000017N200818104700000000000103011180000000000000000000000000000000000000000100010491247745JOAO BATISTA MACEDO DE FREITAS          RUA ITAGIBA N 1047 FUNDOS               COSMOS - RIO23060450RIO DE JANEIRO RJUNIAO UMB DOS CULTOS AFRO BRAS    30111810 000172
10231987175000168817800093673    000027335                    000273350000000000000109                     I0127335     30111800000000035003410000017N200818104700000000000103011180000000000000000000000000000000000000000200000000002619MARCOS ROMEU DA SILVA                   CAMINHO DO FERRADOR N 30                GUARATIBA - 23020570CAMPO GRANDE   RJUNIAO UMB DOS CULTOS AFRO BRAS    30111810 000173
10231987175000168817800093673    000027334                    000273340000000000000109                     I0127334     30111800000000035003410000017N200818104700000000000103011180000000000000000000000000000000000000000100082233039734BARBARA DA SILVA CUNHA MOREIRA          RUA EVARISTO PIRES N 290                BANGU - RIO 21840040RIO DE JANEIRO RJUNIAO UMB DOS CULTOS AFRO BRAS    30111810 000174
10231987175000168817800093673    000027333                    000273330000000000000109                     I0127333     30111800000000035003410000017N200818104700000000000103011180000000000000000000000000000000000000000200000000002580EDMILSON DOS SANTOS WINNE DE N          RUA DONA JULIA N 40 FUNDOS              SEPETIBA - R23545570RIO DE JANEIRO RJUNIAO UMB DOS CULTOS AFRO BRAS    30111810 000175
10231987175000168817800093673    000027332                    000273320000000000000109                     I0127332     30111800000000035003410000017N200818104700000000000103011180000000000000000000000000000000000000000200000000002569REGINA CELIA DA SILVA LINS              CONDOMINIO PASSAREDO QUADRA 30 LOTE 3   CAMINHO DE B28921100RIO DE JANEIRO RJUNIAO UMB DOS CULTOS AFRO BRAS    30111810 000176
10231987175000168817800093673    000027331                    000273310000000000000109                     I0127331     30111800000000035003410000017N200818104700000000000103011180000000000000000000000000000000000000000100005744506705SANDRA REGINA DE OLIVEIRA               RUA MARCIA COSTA N 924                  JARDIM NOVA 26271160NOVA IGUACU    RJUNIAO UMB DOS CULTOS AFRO BRAS    30111810 000177
10231987175000168817800093673    000027330                    000273300000000000000109                     I0127330     30111800000000040003410000017N200818104700000000000103011180000000000000000000000000000000000000000207325726570220DAMIANA DE OLIVEIRA PINHEIRO            RUA PROJETADA ALPHA QUADRA 5 LOTE 6     MORADA VERDE23575270SANTA CRUZ     RJUNIAO UMB DOS CULTOS AFRO BRAS    30111810 000178
10231987175000168817800093673    000027329                    000273290000000000000109                     I0127329     30111800000000035003410000017N200818104700000000000103011180000000000000000000000000000000000000000100000000000250ANA LUCIA FRANCISCO BORGES              RUA: DO ACAFRAO                         PADRE MIGUEL21870330RIO DE JANEIRO RJUNIAO UMB DOS CULTOS AFRO BRAS    30111810 000179
10231987175000168817800093673    000027328                    000273280000000000000109                     I0127328     30111800000000035003410000017N200818104700000000000103011180000000000000000000000000000000000000000100001295514737DANUZA JEREMIAS DA SILVA                RUA JOAQUIM RAFAEL, 957                 COELHO - SAO24740020SAO GONCALO    RJUNIAO UMB DOS CULTOS AFRO BRAS    30111810 000180
10231987175000168817800093673    000027327                    000273270000000000000109                     I0127327     30111800000000035003410000017N200818104700000000000103011180000000000000000000000000000000000000000200000000002460EVA ANA ROSA DOS SANTOS                 O MESMO                                 O MESMO     23066080RIO DE JANEIRO RJUNIAO UMB DOS CULTOS AFRO BRAS    30111810 000181
10231987175000168817800093673    000027326                    000273260000000000000109                     I0127326     30111800000000035003410000017N200818104700000000000103011180000000000000000000000000000000000000000100059272570700VERA LUCIA LIMA SILVA                   O MESMO                                 O MESMO     22723510RIO DE JANEIRO RJUNIAO UMB DOS CULTOS AFRO BRAS    30111810 000182
10231987175000168817800093673    000027325                    000273250000000000000109                     I0127325     30111800000000035003410000017N200818104700000000000103011180000000000000000000000000000000000000000100072090499753JOSEFINA PAULINA RODRIGUES              RUA JOAQUIM SOARES NETO, 416            NOVA AMERICA26021560NOVA IGUACU    RJUNIAO UMB DOS CULTOS AFRO BRAS    30111810 000183
10231987175000168817800093673    000027324                    000273240000000000000109                     I0127324     30111800000000035003410000017N200818104700000000000103011180000000000000000000000000000000000000000100079758517791NEY PEREIRA LEITE                       RUA MARECHAL MARCIANO N 368 CASA B TRAVEREALENGO - R21735651RIO DE JANEIRO RJUNIAO UMB DOS CULTOS AFRO BRAS    30111810 000184
10231987175000168817800093673    000027323                    000273230000000000000109                     I0127323     30111800000000035003410000017N200818104700000000000103011180000000000000000000000000000000000000000100005256804707SUSI ROSANA DE OLIVEIRA - JANA          O MESMO                                 O MESMO     21765000RIO DE JANEIRO RJUNIAO UMB DOS CULTOS AFRO BRAS    30111810 000185
10231987175000168817800093673    000027322                    000273220000000000000109                     I0127322     30111800000000040003410000017N200818104700000000000103011180000000000000000000000000000000000000000100000000001242OSVALDO LUIZ ESTRELA FERNANDES          MESMO                                   MESMO       22071110ITAGUAI        RJUNIAO UMB DOS CULTOS AFRO BRAS    30111810 000186
10231987175000168817800093673    000027321                    000273210000000000000109                     I0127321     30111800000000035003410000017N200818104700000000000103011180000000000000000000000000000000000000000100001789073758BERNADETE BURGOS AMORIM RANGEL          RUA: IMBUI Nº 120 - LARGO DO TANQUE    TANQUE / TAQ22730100RIO DE JANEIRO RJUNIAO UMB DOS CULTOS AFRO BRAS    30111810 000187
10231987175000168817800093673    000027320                    000273200000000000000109                     I0127320     30111800000000035003410000017N200818104700000000000103011180000000000000000000000000000000000000000100001388677717EDSON LUIZ COSTA SOARES                 RUA: LEOCADIO MELLO 326                 JARDIM NOVA 26272060NOVA IGUACU    RJUNIAO UMB DOS CULTOS AFRO BRAS    30111810 000188
10231987175000168817800093673    000027319                    000273190000000000000109                     I0127319     30111800000000035003410000017N200818104700000000000103011180000000000000000000000000000000000000000200000000002388JOSE ANTONIO ZANELLI                    RUA LIBANIO PORTO N 26 - SACRAMENTO     SITIO - MONJ24735360NITEROI        RJUNIAO UMB DOS CULTOS AFRO BRAS    30111810 000189
10231987175000168817800093673    000027318                    000273180000000000000109                     I0127318     30111800000000035003410000017N200818104700000000000103011180000000000000000000000000000000000000000100028131576787EVA MOREIRA FERREIRA                    O MESMO                                 O MESMO     25035800DUQUE DE CAXIASRJUNIAO UMB DOS CULTOS AFRO BRAS    30111810 000190
10231987175000168817800093673    000027317                    000273170000000000000109                     I0127317     30111800000000035003410000017N200818104700000000000103011180000000000000000000000000000000000000000100004550883131LINDINALVA MONTEIRO DA SILVA            RUA: TENENTE PALESTRINA                 CORDOVIL    21250550RIO DE JANEIRO RJUNIAO UMB DOS CULTOS AFRO BRAS    30111810 000191
10231987175000168817800093673    000027316                    000273160000000000000109                     I0127316     30111800000000035003410000017N200818104700000000000103011180000000000000000000000000000000000000000100093151179720ELIZABETH DA SILVA GOIS                 RUA RAFAEL HAENNY, 2 LOTE 2 QUADRA 4    SEPETIBA - R23535640RIO DE JANEIRO RJUNIAO UMB DOS CULTOS AFRO BRAS    30111810 000192
10231987175000168817800093673    000027315                    000273150000000000000109                     I0127315     30111800000000035003410000017N200818104700000000000103011180000000000000000000000000000000000000000200000000002322SEBASTIANA MARIANO DIAS                 O MESMO                                 O MESMO     23811560ITAGUAI        RJUNIAO UMB DOS CULTOS AFRO BRAS    30111810 000193
10231987175000168817800093673    000027314                    000273140000000000000109                     I0127314     30111800000000035003410000017N200818104700000000000103011180000000000000000000000000000000000000000100001345348754ADRIANA DE LELIS                        RUA DOIS QUADRA D LOTE 13               BAIRRO SILVE23092080RIO DE JANEIRO RJUNIAO UMB DOS CULTOS AFRO BRAS    30111810 000194
10231987175000168817800093673    000027313                    000273130000000000000109                     I0127313     30111800000000035003410000017N200818104700000000000103011180000000000000000000000000000000000000000200000000002310SEVERINO MIGUEL SIMAO                   RUA CONDOMINIO PASSAREDO, QUADRA 24 LOTECAM.DE BUZIO28910000CABO FRIO      RJUNIAO UMB DOS CULTOS AFRO BRAS    30111810 000195
10231987175000168817800093673    000027312                    000273120000000000000109                     I0127312     30111800000000035003410000017N200818104700000000000103011180000000000000000000000000000000000000000200000000002291DALILA DE SOUZA PINHEIRO                RUA JOAO BRIGIDO, 121                   MAGALHAES BA21745480RIO DE JANEIRO RJUNIAO UMB DOS CULTOS AFRO BRAS    30111810 000196
10231987175000168817800093673    000027311                    000273110000000000000109                     I0127311     30111800000000035003410000017N200818104700000000000103011180000000000000000000000000000000000000000100007070605757DANIEL MARCONDI DE SOUZA                RUA: TUPI Nº 20                        VILA PAULINE26185235BELFORD ROXO   RJUNIAO UMB DOS CULTOS AFRO BRAS    30111810 000197
10231987175000168817800093673    000027310                    000273100000000000000109                     I0127310     30111800000000035003410000017N200818104700000000000103011180000000000000000000000000000000000000000100004287865707MARIA LUISA DE OLIVEIRA LIREO           RUA PORTO CARRERO N 333                 CORDOVIL - R21250260RIO DE JANEIRO RJUNIAO UMB DOS CULTOS AFRO BRAS    30111810 000198
10231987175000168817800093673    000027309                    000273090000000000000109                     I0127309     30111800000000040003410000017N200818104700000000000103011180000000000000000000000000000000000000000100033223190759CELIA DA CONCEICAO RIBEIRO              RUA GENERAL JOSE FAUSTINO               REALENGO    21721050RIO DE JANEIRO RJUNIAO UMB DOS CULTOS AFRO BRAS    30111810 000199
10231987175000168817800093673    000027308                    000273080000000000000109                     I0127308     30111800000000035003410000017N200818104700000000000103011180000000000000000000000000000000000000000100062435710763ELI LIMA DOS SANTOS                     RUA DO VERDE CASA 3                     CURICICA - R22712001RIO DE JANEIRO RJUNIAO UMB DOS CULTOS AFRO BRAS    30111810 000200
10231987175000168817800093673    000027307                    000273070000000000000109                     I0127307     30111800000000035003410000017N200818104700000000000103011180000000000000000000000000000000000000000100083122869772ANDREIA OLIVEIRA DE MENEZES             RUA VICENTE PONTE                       JARDIM CARIO21921740RIO DE JANEIRO RJUNIAO UMB DOS CULTOS AFRO BRAS    30111810 000201
10231987175000168817800093673    000027306                    000273060000000000000109                     I0127306     30111800000000035003410000017N200818104700000000000103011180000000000000000000000000000000000000000100003032033748MARIA MOREIRA TEIXEIRA                  TRAVESSA RIACHAO 130                    AUSTIN - NOV26335090BELFORD ROXO   RJUNIAO UMB DOS CULTOS AFRO BRAS    30111810 000202
10231987175000168817800093673    000027305                    000273050000000000000109                     I0127305     30111800000000035003410000017N200818104700000000000103011180000000000000000000000000000000000000000200000000001688MAGNO AGUIAR DA SILVA                   RUA DOM PEDRO I, 1 FUNDOS               PRAIA GRANDE28930000ARRAIAL DO CABORJUNIAO UMB DOS CULTOS AFRO BRAS    30111810 000203
10231987175000168817800093673    000027304                    000273040000000000000109                     I0127304     30111800000000035003410000017N200818104700000000000103011180000000000000000000000000000000000000000100003725237735LUCIANO LOPES DA SILVA                  ALAMEDA BUENO AIRES                     RIO DO OURO 24752360SAO GONCALO    RJUNIAO UMB DOS CULTOS AFRO BRAS    30111810 000204
10231987175000168817800093673    000027303                    000273030000000000000109                     I0127303     30111800000000035003410000017N200818104700000000000103011180000000000000000000000000000000000000000100006932718766CARLOS EDUARDO DE OLIVEIRA              TRAVESSA CARLOS SAMPAIO QUADRA 2 LOTE 23AUSTIN - NOV26087287NOVA IGUACU    RJUNIAO UMB DOS CULTOS AFRO BRAS    30111810 000205
10231987175000168817800093673    000027302                    000273020000000000000109                     I0127302     30111800000000035003410000017N200818104700000000000103011180000000000000000000000000000000000000000100043116248753NORMA FELIX DA SILVA PEREIRA            RUA HENRIQUE MARTINS LOTE 24 QUADRA 17  LAGOINHA - S24736130SAO GONCALO    RJUNIAO UMB DOS CULTOS AFRO BRAS    30111810 000206
10231987175000168817800093673    000027301                    000273010000000000000109                     I0127301     30111800000000035003410000017N200818104700000000000103011180000000000000000000000000000000000000000200000000007615SONIA MARIA DA SILVA DELLIVENE          AV PLINIO GOMES DE MATTOS FILHO N 278   VARZEA DAS M24330430SAO GONCALO    RJUNIAO UMB DOS CULTOS AFRO BRAS    30111810 000207
10231987175000168817800093673    000027300                    000273000000000000000109                     I0127300     30111800000000035003410000017N200818104700000000000103011180000000000000000000000000000000000000000200000000007561LUCIA PEREIRA                           RUA: ZEFERINO DA COSTA N° 83           CAVALCANTI  21370230RIO DE JANEIRO RJUNIAO UMB DOS CULTOS AFRO BRAS    30111810 000208
10231987175000168817800093673    000027299                    000272990000000000000109                     I0127299     30111800000000035003410000017N200818104700000000000103011180000000000000000000000000000000000000000100071186220791AUREA GOMES                             AVENIDA FRANCISCO ANTONIO FRANCISCO     RETIRO      27276000VOLTA REDONDA  RJUNIAO UMB DOS CULTOS AFRO BRAS    30111810 000209
10231987175000168817800093673    000027298                    000272980000000000000109                     I0127298     30111800000000035003410000017N200818104700000000000103011180000000000000000000000000000000000000000100004455965700MARIA DE LOURDES SOARES DA SIL          ESTRADA RJ 127 KM 25                    ALTO DO CHAF26650000PAULO DE FRONTIRJUNIAO UMB DOS CULTOS AFRO BRAS    30111810 000210
10231987175000168817800093673    000027297                    000272970000000000000109                     I0127297     30111800000000035003410000017N200818104700000000000103011180000000000000000000000000000000000000000100098546686734MARCIO NEVES                            RUA FLORIANOPOLIS N 63                  PRACA SECA -21321050RIO DE JANEIRO RJUNIAO UMB DOS CULTOS AFRO BRAS    30111810 000211
10231987175000168817800093673    000027296                    000272960000000000000109                     I0127296     30111800000000035003410000017N200818104700000000000103011180000000000000000000000000000000000000000100000000000165ZUILA DE MELO E SILVA COVA              RUA: TAMOIOS                            SAO FRANCISC24360380NITEROI        RJUNIAO UMB DOS CULTOS AFRO BRAS    30111810 000212
10231987175000168817800093673    000027295                    000272950000000000000109                     I0127295     30111800000000035003410000017N200818104700000000000103011180000000000000000000000000000000000000000100000000007416ELOIDE GONCALVES GAIA                   O MESMO                                 O MESMO     00000000RIO DE JANEIRO RJUNIAO UMB DOS CULTOS AFRO BRAS    30111810 000213
10231987175000168817800093673    000027294                    000272940000000000000109                     I0127294     30111800000000035003410000017N200818104700000000000103011180000000000000000000000000000000000000000100005538511790VALNEI BARBOSA DA SILVA                 RUA: DOS RUBIS Nº 19 - INHOAIBA        CAMPO GRANDE23064670RIO DE JANEIRO RJUNIAO UMB DOS CULTOS AFRO BRAS    30111810 000214
10231987175000168817800093673    000027293                    000272930000000000000109                     I0127293     30111800000000035003410000017N200818104700000000000103011180000000000000000000000000000000000000000100028842723720HELENITA ANTONIA DE JESUS               RUA: ROBERTO CONSTANTINESCO 334         GUADALUPE   21675450RIO DE JANEIRO RJUNIAO UMB DOS CULTOS AFRO BRAS    30111810 000215
10231987175000168817800093673    000027292                    000272920000000000000109                     I0127292     30111800000000035003410000017N200818104700000000000103011180000000000000000000000000000000000000000100013222460760VITOR NERY DO AMARAL                    RUA MARIA PARIS, 342                    PAIOL - NILO26545600NILOPOLIS      RJUNIAO UMB DOS CULTOS AFRO BRAS    30111810 000216
10231987175000168817800093673    000027291                    000272910000000000000109                     I0127291     30111800000000035003410000017N200818104700000000000103011180000000000000000000000000000000000000000100064262839753MARIA JOSE SOUZA DOS SANTOS             RUA JOSE LIMA DA SILVA, 29              MARIA - BELF26185610BELFORD ROXO   RJUNIAO UMB DOS CULTOS AFRO BRAS    30111810 000217
10231987175000168817800093673    000027290                    000272900000000000000109                     I0127290     30111800000000035003410000017N200818104700000000000103011180000000000000000000000000000000000000000100086374370791IVETE SILVA GOMES                       RUA SEIS                                GEBARA - ITA24867416NITEROI        RJUNIAO UMB DOS CULTOS AFRO BRAS    30111810 000218
10231987175000168817800093673    000027289                    000272890000000000000109                     I0127289     30111800000000035003410000017N200818104700000000000103011180000000000000000000000000000000000000000100007929176770SANSIA MARIA SOBRINHO                   RUA TURMALINA QUADRA 149 LOTE 6         NOVO JARDIM 24175670SAO GONCALO    RJUNIAO UMB DOS CULTOS AFRO BRAS    30111810 000219
10231987175000168817800093673    000027288                    000272880000000000000109                     I0127288     30111800000000035003410000017N200818104700000000000103011180000000000000000000000000000000000000000100059941294704LUZIA LYGIA DO NASCIMENTO CAMA          RUA ONZE 112 CASA 1 QUADRA 57 - NOVA CAMSTA CRUZ DA 25250000DUQUE DE CAXIASRJUNIAO UMB DOS CULTOS AFRO BRAS    30111810 000220
10231987175000168817800093673    000027287                    000272870000000000000109                     I0127287     30111800000000035003410000017N200818104700000000000103011180000000000000000000000000000000000000000100001834521785MARCELO TEIXEIRA ORSI                   RUA A, 15 QUADRA 93 CASA 2              PARADA MORAB25000000DUQUE DE CAXIASRJUNIAO UMB DOS CULTOS AFRO BRAS    30111810 000221
10231987175000168817800093673    000027286                    000272860000000000000109                     I0127286     30111800000000035003410000017N200818104700000000000103011180000000000000000000000000000000000000000100000000000227MARIA DAS GRACAS MORAIS SOARES          AVENIDA LEANDRO DA MOTA, 865            VILA SAO SEB25065175DUQUE DE CAXIASRJUNIAO UMB DOS CULTOS AFRO BRAS    30111810 000222
10231987175000168817800093673    000027285                    000272850000000000000109                     I0127285     30111800000000035003410000017N200818104700000000000103011180000000000000000000000000000000000000000100006957328708ANDRE VALERIO DELGADO GOIS E M          RUA TORRES HOMEM N 147 LOTE 17          JARDIM OLAVO25025380DUQUE DE CAXIASRJUNIAO UMB DOS CULTOS AFRO BRAS    30111810 000223
10231987175000168817800093673    000027284                    000272840000000000000109                     I0127284     30111800000000040003410000017N200818104700000000000103011180000000000000000000000000000000000000000100042153425700MARIA DA CONCEICAO MADUREIRA D          MESMO                                   MESMO       21557010RIO DE JANEIRO RJUNIAO UMB DOS CULTOS AFRO BRAS    30111810 000224
10231987175000168817800093673    000027283                    000272830000000000000109                     I0127283     30111800000000035003410000017N200818104700000000000103011180000000000000000000000000000000000000000200000000007238DERLI DE CARVALHO SILVA                 RUA TEOTONIO SANTOS N 111               MARAMBAIA - 36880000MURIAE         MGUNIAO UMB DOS CULTOS AFRO BRAS    30111810 000225
10231987175000168817800093673    000027282                    000272820000000000000109                     I0127282     30111800000000035003410000017N200818104700000000000103011180000000000000000000000000000000000000000100007253631773CARLOS EDUARDO IZIDORO DE OLIV          RUA BRINCO DE PRINCESA N 980            PARQUE RESID07159630GUARULHOS      SPUNIAO UMB DOS CULTOS AFRO BRAS    30111810 000226
10231987175000168817800093673    000027281                    000272810000000000000109                     I0127281     30111800000000035003410000017N200818104700000000000103011180000000000000000000000000000000000000000100007281066716ZULMIRA DA SILVA RODRIGUES              RUA: BERNARDINO DE CAMPOS               OLAVO BILAC 25035530DUQUE DE CAXIASRJUNIAO UMB DOS CULTOS AFRO BRAS    30111810 000227
10231987175000168817800093673    000027280                    000272800000000000000109                     I0127280     30111800000000035003410000017N200818104700000000000103011180000000000000000000000000000000000000000100083650636780MARIZA MIRANDA                          RUA ALEXANDRINO N 120                   POSSE - NOVA26020247NOVA IGUACU    RJUNIAO UMB DOS CULTOS AFRO BRAS    30111810 000228
10231987175000168817800093673    000027279                    000272790000000000000109                     I0127279     30111800000000035003410000017N200818104700000000000103011180000000000000000000000000000000000000000100005963954770SANDRA MARIA DA SILVA SANTOS            RUA JOAO RAIMUNDO N 171                 VILA SANTO A25041400DUQUE DE CAXIASRJUNIAO UMB DOS CULTOS AFRO BRAS    30111810 000229
10231987175000168817800093673    000027278                    000272780000000000000109                     I0127278     30111800000000035003410000017N200818104700000000000103011180000000000000000000000000000000000000000100007324399738JACANA MONTEIRO DO AMARAL               RUA: MESQUITA Nº 573 - SAO ROQUE       QUEIMADOS - 23310170QUEIMADOS      RJUNIAO UMB DOS CULTOS AFRO BRAS    30111810 000230
10231987175000168817800093673    000027277                    000272770000000000000109                     I0127277     30111800000000035003410000017N200818104700000000000103011180000000000000000000000000000000000000000100064817008768MARINEIDE JOSE DOS SANTOS DA S          RUA: F Nº CASA 29 - ALTO DA POSSE      O MESMO     26020700QUEIMADOS      RJUNIAO UMB DOS CULTOS AFRO BRAS    30111810 000231
10231987175000168817800093673    000027276                    000272760000000000000109                     I0127276     30111800000000035003410000017N200818104700000000000103011180000000000000000000000000000000000000000100000000000165MARIA APARECIDA DOS SANTOS CYP          ESTRADA DO SABONETE, LOTE 25 QUADRA D   ARSENAL     24745224SAO GONCALO    RJUNIAO UMB DOS CULTOS AFRO BRAS    30111810 000232
10231987175000168817800093673    000027275                    000272750000000000000109                     I0127275     30111800000000035003410000017N200818104700000000000103011180000000000000000000000000000000000000000100001799273709ANSELMO FERREIRA DEGENAR                RUA CARLOS LACERDA LOTE 11 QUADRA 16    JARDIM DA PO00000000RIO DE JANEIRO RJUNIAO UMB DOS CULTOS AFRO BRAS    30111810 000233
10231987175000168817800093673    000027274                    000272740000000000000109                     I0127274     30111800000000040003410000017N200818104700000000000103011180000000000000000000000000000000000000000100007830594775EMERSON MODESTO SIQUEIRA                RUA MESQUITA                            REALENGO    21721210RIO DE JANEIRO RJUNIAO UMB DOS CULTOS AFRO BRAS    30111810 000234
10231987175000168817800093673    000027273                    000272730000000000000109                     I0127273     30111800000000035003410000017N200818104700000000000103011180000000000000000000000000000000000000000200000000001055ELZA DE AZEVEDO ALVES                   RUA BADUINIO DE AGUIAR N 220            PARADA DE LU21210760RIO DE JANEIRO RJUNIAO UMB DOS CULTOS AFRO BRAS    30111810 000235
10231987175000168817800093673    000027272                    000272720000000000000109                     I0127272     30111800000000035003410000017N200818104700000000000103011180000000000000000000000000000000000000000100038268264772SANDRA NUNES DE ARAUJO                  O MESMO                                 O MESMO     25041060DUQUE DE CAXIASRJUNIAO UMB DOS CULTOS AFRO BRAS    30111810 000236
10231987175000168817800093673    000027271                    000272710000000000000109                     I0127271     30111800000000035003410000017N200818104700000000000103011180000000000000000000000000000000000000000100003002602117MARCELO DE OLIVEIRA PINHO               O MESMO                                 O MESMO     26066640NOVA IGUACU    RJUNIAO UMB DOS CULTOS AFRO BRAS    30111810 000237
10231987175000168817800093673    000027270                    000272700000000000000109                     I0127270     30111800000000035003410000017N200818104700000000000103011180000000000000000000000000000000000000000100001087376750ALAN RICARDO DA CONCEICAO GAMA          RUA JULIO JOSE DA SILVA                 SANTA CRUZ  22783116RIO DE JANEIRO RJUNIAO UMB DOS CULTOS AFRO BRAS    30111810 000238
10231987175000168817800093673    000027269                    000272690000000000000109                     I0127269     30111800000000035003410000017N200818104700000000000103011180000000000000000000000000000000000000000200000000007946ORQUIDEA JOSE DOS SANTOS                RUA JESSIE VENTURA LOTE 6 QUADRA 7      SANTA CECILI25233130DUQUE DE CAXIASRJUNIAO UMB DOS CULTOS AFRO BRAS    30111810 000239
10231987175000168817800093673    000027268                    000272680000000000000109                     I0127268     30111800000000040003410000017N200818104700000000000103011180000000000000000000000000000000000000000100008214669766MARCO AURELIO RANGEL BARBOSA            RUA GENERAL JOSE FAUSTINO N 200 FUNDOS  PADRE MIGUEL21721050RIO DE JANEIRO RJUNIAO UMB DOS CULTOS AFRO BRAS    30111810 000240
10231987175000168817800093673    000027267                    000272670000000000000109                     I0127267     30111800000000035003410000017N200818104700000000000103011180000000000000000000000000000000000000000100003029004708ANDREA GUIMARAES MARTINS                RUA ANA CRISTINA 31 - VILA GUIMARAES    VILA GUIMARA26088175NOVA IGUACU    RJUNIAO UMB DOS CULTOS AFRO BRAS    30111810 000241
10231987175000168817800093673    000027266                    000272660000000000000109                     I0127266     30111800000000035003410000017N200818104700000000000103011180000000000000000000000000000000000000000100004279924783EDUARDO CARVALHO DE SANTANNA            RUA CINCO N 778                         NOVA CAMPINA25268050DUQUE DE CAXIASRJUNIAO UMB DOS CULTOS AFRO BRAS    30111810 000242
10231987175000168817800093673    000027265                    000272650000000000000109                     I0127265     30111800000000035003410000017N200818104700000000000103011180000000000000000000000000000000000000000100049135570768CLEBER SILVA DE FREITAS                 RUA COBE N 1275                         RIO DA PRATA21820200BANGU          RJUNIAO UMB DOS CULTOS AFRO BRAS    30111810 000243
10231987175000168817800093673    000027264                    000272640000000000000109                     I0127264     30111800000000035003410000017N200818104700000000000103011180000000000000000000000000000000000000000100065213696791SILVIA ELIZABETE RODRIGUES              RUA JOAO BITTENCOURT, 286               EDSON PASSOS26240510MESQUITA       RJUNIAO UMB DOS CULTOS AFRO BRAS    30111810 000244
10231987175000168817800093673    000027263                    000272630000000000000109                     I0127263     30111800000000035003410000017N200818104700000000000103011180000000000000000000000000000000000000000200000000008078ELIZA DA SILVA                          RUA AMILTON NASCIMENTO N 214            CAROLINA - N26012760NOVA IGUACU    RJUNIAO UMB DOS CULTOS AFRO BRAS    30111810 000245
10231987175000168817800093673    000027262                    000272620000000000000109                     I0127262     30111800000000035003410000017N200818104700000000000103011180000000000000000000000000000000000000000100041008154768ELISEU CAMARGO ARTHOU                   ESTRADA DO ENGENHO NOVO N 505 FUNDOS    ANCHIETA    21620241RIO DE JANEIRO RJUNIAO UMB DOS CULTOS AFRO BRAS    30111810 000246
10231987175000168817800093673    000027261                    000272610000000000000109                     I0127261     30111800000000035003410000017N200818104700000000000103011180000000000000000000000000000000000000000100086634402787ZILDA GIMENIZ NOGUEIRA                  RUA: ESPIRITO SANTO Nº 25 - PRAIA LINDASAO PEDRO DA28940000SAO PEDRO DA ALRJUNIAO UMB DOS CULTOS AFRO BRAS    30111810 000247
10231987175000168817800093673    000027260                    000272600000000000000109                     I0127260     30111800000000035003410000017N200818104700000000000103011180000000000000000000000000000000000000000200000000007838JANILTON DA CRUZ ROCHA                  RUA ALUISIO AZEVEDO LOTE 27 QUADRA 40   IMBARIE - PA25275360PARADA ANGELICARJUNIAO UMB DOS CULTOS AFRO BRAS    30111810 000248
10231987175000168817800093673    000027259                    000272590000000000000109                     I0127259     30111800000000035003410000017N200818104700000000000103011180000000000000000000000000000000000000000200000000007600LUCIMAR FIGUEIREDO NASCIMENTO           RUA TAMANDUATEI N 215                   CRUZEIRO DO 26012775NOVA IGUACU    RJUNIAO UMB DOS CULTOS AFRO BRAS    30111810 000249
