01REMESSA01COBRANCA       916200163100        União Umb dos Cultos Afro Bra341BANCO ITAU SA  040118                                                                                                                                                                                                                                                                                                      000001
10231987175000168916200163100    00008924                     000089240000000000000109                     I018924      31011800000000035003410000017N020118050900000000000103101180000000000000000000000000000000000000000100007336257704NERALDO DA ROCHA JUNIOR                 RUA CARAMURU LOTE 36 QUADRA 4           PARADA ANGEL25271320DUQUE DE CAXIASRJUNIAO UMB DOS CULTOS AFRO BRAS    31011810 000002
10231987175000168916200163100    00008923                     000089230000000000000109                     I018923      31011800000000035003410000017N020118050900000000000103101180000000000000000000000000000000000000000100062547429772JABES DE PAIVA PONTES                   RUA HURON, 69                           ANCHIETA - R21645290RIO DE JANEIRO RJUNIAO UMB DOS CULTOS AFRO BRAS    31011810 000003
10231987175000168916200163100    00008921                     000089210000000000000109                     I018921      31011800000000035003410000017N020118050900000000000103101180000000000000000000000000000000000000000100091473209749CRISTOVAO JOSE DA SILVA MAGALH          RUA VICTORIO PEREIRA NUNES, 57          CASTELANEA -25640262PETROPOLIS     RJUNIAO UMB DOS CULTOS AFRO BRAS    31011810 000004
10231987175000168916200163100    00008920                     000089200000000000000109                     I018920      31011800000000035003410000017N020118050900000000000103101180000000000000000000000000000000000000000100009199332701LUANDA MOREIRA DOS SANTOS FERN          RUA SEVERIANO MONTEIRO N 232 APT 302    BRAZ DE PINA21235620RIO DE JANEIRO RJUNIAO UMB DOS CULTOS AFRO BRAS    31011810 000005
10231987175000168916200163100    00008919                     000089190000000000000109                     I018919      31011800000000035003410000017N020118050900000000000103101180000000000000000000000000000000000000000100001456619705ROSANGELA DAMASCENO                     AVENIDA RAUL BARROS VIEIRA, 120         BANGU - RJ  21864230RIO DE JANEIRO RJUNIAO UMB DOS CULTOS AFRO BRAS    31011810 000006
10231987175000168916200163100    00008918                     000089180000000000000109                     I018918      31011800000000035003410000017N020118050900000000000103101180000000000000000000000000000000000000000100090036018791SILVIA ELAINE GEVEGIR DA SILVA          RUA VINTE, QUADRA 305 LOTE 34           PARADA MORAB25265130DUQUE DE CAXIASRJUNIAO UMB DOS CULTOS AFRO BRAS    31011810 000007
10231987175000168916200163100    00008917                     000089170000000000000109                     I018917      31011800000000035003410000017N020118050900000000000103101180000000000000000000000000000000000000000100014653084742THEILOR MORAIS DE MIRANDA               RUA SAO BENEDITO, 25                    VILA GENI - 23826010ITAGUAI        RJUNIAO UMB DOS CULTOS AFRO BRAS    31011810 000008
10231987175000168916200163100    00008916                     000089160000000000000109                     I018916      31011800000000035003410000017N020118050900000000000103101180000000000000000000000000000000000000000100002161361724ELISANGELA VIRGINIA CARVALHO A          RUA JUIZ JORGE SALOMAO, 191 CASA 18     ENGENHO NOVO20950360RIO DE JANEIRO RJUNIAO UMB DOS CULTOS AFRO BRAS    31011810 000009
10231987175000168916200163100    00008915                     000089150000000000000109                     I018915      31011800000000035003410000017N020118050900000000000103101180000000000000000000000000000000000000000100003346596710ROSILENI ROSA DA SILVA                  RUA ADALGISA MONTEIRO N 133             ITAIPU - NIT24342110NITEROI        RJUNIAO UMB DOS CULTOS AFRO BRAS    31011810 000010
10231987175000168916200163100    00008914                     000089140000000000000109                     I018914      31011800000000035003410000017N020118050900000000000103101180000000000000000000000000000000000000000100053606259769ROSILANE FRANCISCA DOS SANTOS           RUA ARTUR FARIAS N 252                  RIO DO DOURO25922184MAGE           RJUNIAO UMB DOS CULTOS AFRO BRAS    31011810 000011
10231987175000168916200163100    00008913                     000089130000000000000109                     I018913      31011800000000035003410000017N020118050900000000000103101180000000000000000000000000000000000000000100000355768712ANA CRISTINA VERISSIMO DA SILV          ESTRADA DO TINGUI  1990                 CAMPO GRANDE23075006RIO DE JANEIRO RJUNIAO UMB DOS CULTOS AFRO BRAS    31011810 000012
10231987175000168916200163100    00008912                     000089120000000000000109                     I018912      31011800000000035003410000017N020118050900000000000103101180000000000000000000000000000000000000000100007429798659LUCIANA DIAS DE ARRUDA                  RUA CECILIA BRAGA N 16 - SANTO ANTONIO  UBA - MINAS 36500000UBA            MGUNIAO UMB DOS CULTOS AFRO BRAS    31011810 000013
10231987175000168916200163100    00008911                     000089110000000000000109                     I018911      31011800000000035003410000017N020118050900000000000103101180000000000000000000000000000000000000000100012097291724CAROLINA B. DE C. CAVALCANTI            AVENIDA DOM HELDER CAMARA N 9111 BLOCO 1QUINTINO BOC21380008RIO DE JANEIRO RJUNIAO UMB DOS CULTOS AFRO BRAS    31011810 000014
10231987175000168916200163100    00008910                     000089100000000000000109                     I018910      31011800000000035003410000017N020118050900000000000103101180000000000000000000000000000000000000000100003248678755CRISTIANO DA SILVA CORREIA              RUA QUATRO N 51                         SANTA AMELIA26115733BELFORD ROXO   RJUNIAO UMB DOS CULTOS AFRO BRAS    31011810 000015
10231987175000168916200163100    00008909                     000089090000000000000109                     I018909      31011800000000035003410000017N020118050900000000000103101180000000000000000000000000000000000000000100093743920700RITA DE CASSIA COSTA SENNA              RUA COMANDANTE ARY PARREIRAS N 181      CENTRO - SAO25515080SAO JOAO DE MERRJUNIAO UMB DOS CULTOS AFRO BRAS    31011810 000016
10231987175000168916200163100    00008908                     000089080000000000000109                     I018908      31011800000000035003410000017N020118050900000000000103101180000000000000000000000000000000000000000100076636429704SONIA REGINA GOMES AMAZONAS             RUA MAJOR PARENTES N 474 FUNDOS         MAGALHAES BA21735100RIO DE JANEIRO RJUNIAO UMB DOS CULTOS AFRO BRAS    31011810 000017
10231987175000168916200163100    00008907                     000089070000000000000109                     I018907      31011800000000035003410000017N020118050900000000000103101180000000000000000000000000000000000000000100084407883715MAURO FERREIRA MATHEUS                  ESTRADA DO ENGENHO, RUA CASTOR DE ANDRADPRACA PIQUER21370200BANGU          RJUNIAO UMB DOS CULTOS AFRO BRAS    31011810 000018
10231987175000168916200163100    00008906                     000089060000000000000109                     I018906      31011800000000035003410000017N020118050900000000000103101180000000000000000000000000000000000000000100000446671754JUSSARA MATHIAS TEIXEIRA                RUA VEREADOR OSVALDO MARCONDES N 106    JOSE BONIFAC25515380SAO JOAO DE MERRJUNIAO UMB DOS CULTOS AFRO BRAS    31011810 000019
10231987175000168916200163100    00008904                     000089040000000000000109                     I018904      31011800000000035003410000017N020118050900000000000103101180000000000000000000000000000000000000000100008091112769ALINE BEATRIZ GARCIA DA SILVA           RUA ENGENHEIRO HENRIQUE LUSSACK N 936   CENTRO - MES26553500MESQUITA       RJUNIAO UMB DOS CULTOS AFRO BRAS    31011810 000020
10231987175000168916200163100    00008903                     000089030000000000000109                     I018903      31011800000000035003410000017N020118050900000000000103101180000000000000000000000000000000000000000100037497030787LINDINALVA AGUIAR PAVANELLI             O MESMO                                 O MESMO     22230010RIO DE JANEIRO RJUNIAO UMB DOS CULTOS AFRO BRAS    31011810 000021
10231987175000168916200163100    00008902                     000089020000000000000109                     I018902      31011800000000035003410000017N020118050900000000000103101180000000000000000000000000000000000000000100015675954724ALDREN LUCAS GOMES FERREIRA             RUA CARIOCA N 18                        PAU GRANDE -25900000MAGE           RJUNIAO UMB DOS CULTOS AFRO BRAS    31011810 000022
10231987175000168916200163100    00008901                     000089010000000000000109                     I018901      31011800000000035003410000017N020118050900000000000103101180000000000000000000000000000000000000000100015116578712RAFAEL DE LIMA FALCAO                   RUA BARRA DO CHOCA N 63                 GUARATIBA - 23028510RIO DE JANEIRO RJUNIAO UMB DOS CULTOS AFRO BRAS    31011810 000023
10231987175000168916200163100    00008900                     000089000000000000000109                     I018900      31011800000000035003410000017N020118050900000000000103101180000000000000000000000000000000000000000100002139519752CARLA MARIA DE BRITO DOS SANTO          RUA QUINZE  275 CASA 4                  PARQUE SANTA25271750DUQUE DE CAXIASRJUNIAO UMB DOS CULTOS AFRO BRAS    31011810 000024
10231987175000168916200163100    00008899                     000088990000000000000109                     I018899      31011800000000035003410000017N020118050900000000000103101180000000000000000000000000000000000000000100000200790790LUIS JORGE MOCO                         RUA: ECA DE QUEIROS LOTE 74 QUADRA 7    PANTANAL - D25040350DUQUE DE CAXIASRJUNIAO UMB DOS CULTOS AFRO BRAS    31011810 000025
10231987175000168916200163100    00008898                     000088980000000000000109                     I018898      31011800000000035003410000017N020118050900000000000103101180000000000000000000000000000000000000000100005953253605MILTON COELHO DO NASCIMENTO JU          RUA BEZERRA DE MENEZES N 73 APT 102     VAZ LOBO - R21361000RIO DE JANEIRO RJUNIAO UMB DOS CULTOS AFRO BRAS    31011810 000026
10231987175000168916200163100    00008896                     000088960000000000000109                     I018896      31011800000000035003410000017N020118050900000000000103101180000000000000000000000000000000000000000100010368667774SUZANA PEREIRA MOIZINHO                 RUA CONCEICAO DA PEDRA N 77             ARNALDO EUGE23016330CAMPO GRANDE   RJUNIAO UMB DOS CULTOS AFRO BRAS    31011810 000027
10231987175000168916200163100    00008895                     000088950000000000000109                     I018895      31011800000000035003410000017N020118050900000000000103101180000000000000000000000000000000000000000100000937144754EGLEA MARIA DE JESUS ROCHA DE           RUA MARIO GARCIA LOTE 7 QUADRA 60       VILA SANTO A25040370DUQUE DE CAXIASRJUNIAO UMB DOS CULTOS AFRO BRAS    31011810 000028
10231987175000168916200163100    00008894                     000088940000000000000109                     I018894      31011800000000035003410000017N020118050900000000000103101180000000000000000000000000000000000000000100049490087734DIRCE MARA DE OLIVEIRA PAULA            RUA OTILIO LIMA LOTE 2 QUADRA 130       SANTA LUZIA 24721490SAO GONCALO    RJUNIAO UMB DOS CULTOS AFRO BRAS    31011810 000029
10231987175000168916200163100    00008893                     000088930000000000000109                     I018893      31011800000000035003410000017N020118050900000000000103101180000000000000000000000000000000000000000100002578661758ANA MARIA BATISTA DA SILVA              RUA SIMOES DE SOUZA SN LOTE 13 QUADRA 20JARDIM PRIMA25223520DUQUE DE CAXIASRJUNIAO UMB DOS CULTOS AFRO BRAS    31011810 000030
10231987175000168916200163100    00008892                     000088920000000000000109                     I018892      31011800000000035003410000017N020118050900000000000103101180000000000000000000000000000000000000000100011341119750ELAINE BARBOSA DOS SANTOS               ESTRADA DO BARRO VERMELHO N 784         ROCHA MIRAND21540500RIO DE JANEIRO RJUNIAO UMB DOS CULTOS AFRO BRAS    31011810 000031
10231987175000168916200163100    00008891                     000088910000000000000109                     I018891      31011800000000035003410000017N020118050900000000000103101180000000000000000000000000000000000000000100010619254718MARIA TEREZA ANDRADE DOS SANTO          RUA: DOUTOR MANUEL LUIZ N 621           VALVERDE - N26291003NOVA IGUACU    RJUNIAO UMB DOS CULTOS AFRO BRAS    31011810 000032
10231987175000168916200163100    00008890                     000088900000000000000109                     I018890      31011800000000035003410000017N020118050900000000000103101180000000000000000000000000000000000000000100081531095704ROSANA ALMEIDA SILVA                    RUA JOAQUIM MARIANO DE MOURA N 246      PONTO CHIC -26032840NOVA IGUACU    RJUNIAO UMB DOS CULTOS AFRO BRAS    31011810 000033
10231987175000168916200163100    00008889                     000088890000000000000109                     I018889      31011800000000035003410000017N020118050900000000000103101180000000000000000000000000000000000000000100078790344715ROSANE ESTEVES DOS SANTOS               RUA VINTE E DOIS DE MARCO N 14          PRAINHA - DU25010730DUQUE DE CAXIASRJUNIAO UMB DOS CULTOS AFRO BRAS    31011810 000034
10231987175000168916200163100    00008888                     000088880000000000000109                     I018888      31011800000000035003410000017N020118050900000000000103101180000000000000000000000000000000000000000100001236998782ELIANE CASEMIRO GOMES BARBOSA           RUA BARONESA, 175 CASA 17               PRACA SECA -21321000RIO DE JANEIRO RJUNIAO UMB DOS CULTOS AFRO BRAS    31011810 000035
10231987175000168916200163100    00008887                     000088870000000000000109                     I018887      31011800000000035003410000017N020118050900000000000103101180000000000000000000000000000000000000000100059744510749ANGELA REGINA ROSA DE SA                RUA SUEZ, 174 - KM 35                   BOM JESUS - 26298180NOVA IGUACU    RJUNIAO UMB DOS CULTOS AFRO BRAS    31011810 000036
10231987175000168916200163100    00008886                     000088860000000000000109                     I018886      31011800000000035003410000017N020118050900000000000103101180000000000000000000000000000000000000000100059680903753TANIA REGINA DOS SANTOS MARQUE          RUA VISCONDE DE MACEIO, 50 - FRENTE     IRAJA - RIO 21235100RIO DE JANEIRO RJUNIAO UMB DOS CULTOS AFRO BRAS    31011810 000037
10231987175000168916200163100    00008885                     000088850000000000000109                     I018885      31011800000000035003410000017N020118050900000000000103101180000000000000000000000000000000000000000100015137144738RAFAEL NUNES ALVES SALSA                RUA PUIPE, 123                          BENTO RIBEIR21550420RIO DE JANEIRO RJUNIAO UMB DOS CULTOS AFRO BRAS    31011810 000038
10231987175000168916200163100    00008884                     000088840000000000000109                     I018884      31011800000000035003410000017N020118050900000000000103101180000000000000000000000000000000000000000100008629571764SILVANA DA COSTA SANTOS                 RUA H, CASA 11 QUADRA 8                 BALNEARIO - 28940000SAO PEDRO DA ALRJUNIAO UMB DOS CULTOS AFRO BRAS    31011810 000039
10231987175000168916200163100    00008883                     000088830000000000000109                     I018883      31011800000000035003410000017N020118050900000000000103101180000000000000000000000000000000000000000100000099070766INSTEFANI LIZETE NEVES FAUSTIN          RUA CONDADO 20                          PIABETA - MA25900000MAGE           RJUNIAO UMB DOS CULTOS AFRO BRAS    31011810 000040
10231987175000168916200163100    00008881                     000088810000000000000109                     I018881      31011800000000035003410000017N020118050900000000000103101180000000000000000000000000000000000000000100007682577789CLAUDIA CRISTINA CARVALHO AREA          RUA ALFAZEMA, 91 CASA 1                 PADRE MIGUEL21720360RIO DE JANEIRO RJUNIAO UMB DOS CULTOS AFRO BRAS    31011810 000041
10231987175000168916200163100    00008880                     000088800000000000000109                     I018880      31011800000000035003410000017N020118050900000000000103101180000000000000000000000000000000000000000100000912311754PAULO HENRIQUE DA SILVA MOURA           RUA QUATI, 112                          MIGUEL COUTO26060420NOVA IGUACU    RJUNIAO UMB DOS CULTOS AFRO BRAS    31011810 000042
10231987175000168916200163100    00008879                     000088790000000000000109                     I018879      31011800000000035003410000017N020118050900000000000103101180000000000000000000000000000000000000000100050600567753MARIA JOSE DA SILVA                     RUA JULIETA, 7 APTO 201                 PIEDADE - RI20751440RIO DE JANEIRO RJUNIAO UMB DOS CULTOS AFRO BRAS    31011810 000043
10231987175000168916200163100    00008878                     000088780000000000000109                     I018878      31011800000000035003410000017N020118050900000000000103101180000000000000000000000000000000000000000100035750553787SUELY PINHEIRO DA SILVA                 RUA MARILENE VIEIRA DE ASSIS, 850 FUNDOSVILA MARIA H25251500DUQUE DE CAXIASRJUNIAO UMB DOS CULTOS AFRO BRAS    31011810 000044
10231987175000168916200163100    00008877                     000088770000000000000109                     I018877      31011800000000035003410000017N020118050900000000000103101180000000000000000000000000000000000000000100005569373764VIVIANE DA SILVA MERIADE DUART          RUA ARISTIDES LOBO N 44 APT 401         RIO COMPRIDO20150450RIO DE JANEIRO RJUNIAO UMB DOS CULTOS AFRO BRAS    31011810 000045
10231987175000168916200163100    00008876                     000088760000000000000109                     I018876      31011800000000035003410000017N020118050900000000000103101180000000000000000000000000000000000000000100007730416727ALESSANDRA REGINA DOS ANJOS             RUA NEVES, 119                          PARQUE TIETE25585380SAO JOAO DE MERRJUNIAO UMB DOS CULTOS AFRO BRAS    31011810 000046
10231987175000168916200163100    00008875                     000088750000000000000109                     I018875      31011800000000035003410000017N020118050900000000000103101180000000000000000000000000000000000000000100047657383704JAIR LOURENCO DE LIMA                   O MESMO                                 O MESMO     25640340PETROPOLIS     RJUNIAO UMB DOS CULTOS AFRO BRAS    31011810 000047
10231987175000168916200163100    00008874                     000088740000000000000109                     I018874      31011800000000035003410000017N020118050900000000000103101180000000000000000000000000000000000000000100091323762787MARIA ISABEL DE ALBUQUERQUE PI          RUA MANAPA, 159                         VALVERDE - N26290639NOVA IGUACU    RJUNIAO UMB DOS CULTOS AFRO BRAS    31011810 000048
10231987175000168916200163100    00008873                     000088730000000000000109                     I018873      31011800000000035003410000017N020118050900000000000103101180000000000000000000000000000000000000000100005368533713DIVALCI COELHO REINALDO                 RUA CEVADA, 17                          PANTANAL    26297108NOVA IGUACU    RJUNIAO UMB DOS CULTOS AFRO BRAS    31011810 000049
10231987175000168916200163100    00008872                     000088720000000000000109                     I018872      31011800000000035003410000017N020118050900000000000103101180000000000000000000000000000000000000000100010093629761DANIELLE DO NASCIMENTO NICACIO          ESTRADA DA GRANJA, 100 FRENTE           PALHADA - NO26290249NOVA IGUACU    RJUNIAO UMB DOS CULTOS AFRO BRAS    31011810 000050
10231987175000168916200163100    00008871                     000088710000000000000109                     I018871      31011800000000035003410000017N020118050900000000000103101180000000000000000000000000000000000000000100000338518754EDUARDO LUIS E SILVA COIMBRA            RUA DOS INVALIDOS, 138 BLOCO 1 APTO 209 LAPA - CENTR20231046RIO DE JANEIRO RJUNIAO UMB DOS CULTOS AFRO BRAS    31011810 000051
10231987175000168916200163100    00008870                     000088700000000000000109                     I018870      31011800000000035003410000017N020118050900000000000103101180000000000000000000000000000000000000000100081905530706ALBERTO DINIZ RODRIGUES GABRIE          RUA AGAI, S/N QUADRA 38 LOTE 14         PACIENCIA   23065620RIO DE JANEIRO RJUNIAO UMB DOS CULTOS AFRO BRAS    31011810 000052
10231987175000168916200163100    00008868                     000088680000000000000109                     I018868      31011800000000035003410000017N020118050900000000000103101180000000000000000000000000000000000000000100008448034724CLAUDIA DA SILVA SANTANA                RUA SANTA LUZIA, 115                    NOVA ERA - N26265560NOVA IGUACU    RJUNIAO UMB DOS CULTOS AFRO BRAS    31011810 000053
10231987175000168916200163100    00008867                     000088670000000000000109                     I018867      31011800000000035003410000017N020118050900000000000103101180000000000000000000000000000000000000000100066859123915ROBERTO ALVES DO NASCIMENTO             RUA MARECHAL DEODORO, 499               CENTRO - PAR23970000PARATY         RJUNIAO UMB DOS CULTOS AFRO BRAS    31011810 000054
10231987175000168916200163100    00008866                     000088660000000000000109                     I018866      31011800000000035003410000017N020118050900000000000103101180000000000000000000000000000000000000000100061178543749ROSILDA ALVES DA COSTA                  RUA CUBA CASA 582                       PENHA CIRCUL21200160RIO DE JANEIRO RJUNIAO UMB DOS CULTOS AFRO BRAS    31011810 000055
10231987175000168916200163100    00008865                     000088650000000000000109                     I018865      31011800000000035003410000017N020118050900000000000103101180000000000000000000000000000000000000000100097402508749MARIA DE OLIVEIRA SOUZA SAMPAI          RUA PROJETADA A, 47                     JARDIM NOVA 25000000DUQUE DE CAXIASRJUNIAO UMB DOS CULTOS AFRO BRAS    31011810 000056
10231987175000168916200163100    00008863                     000088630000000000000109                     I018863      31011800000000035003410000017N020118050900000000000103101180000000000000000000000000000000000000000100071926305787PEDRO PAULO DE ARAUJO MALHEIRO          RUA RAFAEL BORDALO, 31                  GUARATIBA - 23032590RIO DE JANEIRO RJUNIAO UMB DOS CULTOS AFRO BRAS    31011810 000057
10231987175000168916200163100    00008862                     000088620000000000000109                     I018862      31011800000000035003410000017N020118050900000000000103101180000000000000000000000000000000000000000100084394595720FRANCISCO RAUL DA SILVA AZEVED          RUA JORGE LEAL GONCALVES, 37 CASA 2     PACIENCIA - 23587270RIO DE JANEIRO RJUNIAO UMB DOS CULTOS AFRO BRAS    31011810 000058
10231987175000168916200163100    00008861                     000088610000000000000109                     I018861      31011800000000035003410000017N020118050900000000000103101180000000000000000000000000000000000000000100002110875720ALEX DA SILVA GUEDES                    RUA: MOACIR DE ALMEIDA                  TOMAS COELHO20740350RIO DE JANEIRO RJUNIAO UMB DOS CULTOS AFRO BRAS    31011810 000059
10231987175000168916200163100    00008860                     000088600000000000000109                     I018860      31011800000000035003410000017N020118050900000000000103101180000000000000000000000000000000000000000100009770274739DOUGLAS PACHECO PINHEIRO                RUA PROFESSOR ALFREDO GOMES, 43         MANOEL REIS 26515820BELFORD ROXO   RJUNIAO UMB DOS CULTOS AFRO BRAS    31011810 000060
10231987175000168916200163100    00008859                     000088590000000000000109                     I018859      31011800000000035003410000017N020118050900000000000103101180000000000000000000000000000000000000000100004788683750CARLA APARECIDA DA ROCHA RITA           RUA GENERAL SILVEIRA SOBRINHO, 245 APTO VILA DA PENH21221290RIO DE JANEIRO RJUNIAO UMB DOS CULTOS AFRO BRAS    31011810 000061
10231987175000168916200163100    00008858                     000088580000000000000109                     I018858      31011800000000035003410000017N020118050900000000000103101180000000000000000000000000000000000000000100001377431738CARLOS HENRIQUE DOS SANTOS DE           RUA ALVARES CABRAL, 361 CASA 1          CACHAMBI - R20780320RIO DE JANEIRO RJUNIAO UMB DOS CULTOS AFRO BRAS    31011810 000062
10231987175000168916200163100    00008856                     000088560000000000000109                     I018856      31011800000000035003410000017N020118050900000000000103101180000000000000000000000000000000000000000100007258424741SILVIA MARIA CAIADO DE CASTRO           RUA ESMERALDA VALLADARES, 41 LOTEAMENTO ITAIPU - NIT24342000NITEROI        RJUNIAO UMB DOS CULTOS AFRO BRAS    31011810 000063
10231987175000168916200163100    00008855                     000088550000000000000109                     I018855      31011800000000035003410000017N020118050900000000000103101180000000000000000000000000000000000000000100067560555772ADELSON RODRIGUES DE MATTOS             RUA DONA BELA, 17 CASA 2                TRES PONTES 24809230RIO DE JANEIRO RJUNIAO UMB DOS CULTOS AFRO BRAS    31011810 000064
10231987175000168916200163100    00008854                     000088540000000000000109                     I018854      31011800000000035003410000017N020118050900000000000103101180000000000000000000000000000000000000000100053542886734MARIA LUCIA SOARES PONCE                RUA SOLDADO BERNARDINO DA SILVA, 568 APTVILA KOSMOS 21210020RIO DE JANEIRO RJUNIAO UMB DOS CULTOS AFRO BRAS    31011810 000065
10231987175000168916200163100    00008853                     000088530000000000000109                     I018853      31011800000000035003410000017N020118050900000000000103101180000000000000000000000000000000000000000203210312414870MARCELINA DA SILVA COSTA                RUA ALARICO DE SOUZA, 102 CASA 1        ATALAIA - NI24315000NITEROI        RJUNIAO UMB DOS CULTOS AFRO BRAS    31011810 000066
10231987175000168916200163100    00008852                     000088520000000000000109                     I018852      31011800000000035003410000017N020118050900000000000103101180000000000000000000000000000000000000000100003866737726ALESSANDRO ESTRELA RODRIGUES            RUA B 1 SN QD 49 LT 11 - JD GARRIDO     PEDRA DE GUA23026060PEDRA DE GUARATRJUNIAO UMB DOS CULTOS AFRO BRAS    31011810 000067
10231987175000168916200163100    00008851                     000088510000000000000109                     I018851      31011800000000035003410000017N020118050900000000000103101180000000000000000000000000000000000000000100003611090751ANDREA DA COSTA FERREIRA                RUA CORONEL FRANCA LEITE, 657           EDSON PASSOS26585020MESQUITA       RJUNIAO UMB DOS CULTOS AFRO BRAS    31011810 000068
10231987175000168916200163100    00008850                     000088500000000000000109                     I018850      31011800000000035003410000017N020118050900000000000103101180000000000000000000000000000000000000000100060479612749MARIA SEBASTIANA NOGUEIRA PAIX          RUA DOZE DE FEVEREIRO, 900 CASA 4       BANGU - RJ  21815092RIO DE JANEIRO RJUNIAO UMB DOS CULTOS AFRO BRAS    31011810 000069
10231987175000168916200163100    00008849                     000088490000000000000109                     I018849      31011800000000035003410000017N020118050900000000000103101180000000000000000000000000000000000000000100098300989749SOLANGE MONTEIRO DA SILVA LAMB          RUA EMILIA AZEVEDO, 67 - MANTIQUIRA     XEREM - DUQU25250460DUQUE DE CAXIASRJUNIAO UMB DOS CULTOS AFRO BRAS    31011810 000070
9                                                                                                                                                                                                                                                                                                                                                                                                         000071
