01REMESSA01COBRANCA       817800093673        União Umb dos Cultos Afro Bra341BANCO ITAU SA  040419                                                                                                                                                                                                                                                                                                      000001
10231987175000168817800093673    000044996                    000449960000000000000109                     I0144996     08041900000000700003410000017N040419104700000000000100804190000000000000000000000000000000000000000100091401127720ANA CLAUDIA PESSOA                      RUA JOSE RAMALHON 14,                   MUTUAPIRA   24455235SAO GONCALO    RJUNIAO UMB DOS CULTOS AFRO BRAS    08041910 000002
10231987175000168817800093673    000044995                    000449950000000000000109                     I0144995     15041900000000080003410000017N040419104700000000000101504190000000000000000000000000000000000000000100024810517349SILANIA MARIA AGUIAR GOIS               RUA DOMINGOS TAVARES DE SOUZAN 319, APT VIVENDAS DA 36047250JUIZ DE FORA   MGUNIAO UMB DOS CULTOS AFRO BRAS    15041910 000003
10231987175000168817800093673    000044994                    000449940000000000000109                     I0144994     30041900000000040003410000017N040419104700000000000103004190000000000000000000000000000000000000000100007644656782EDILSON DE OLIVEIRA ADAO                RUA VINTE E TRES N 0,  LOTE 11 QUADRA 11PARQUE PAULI25261470DUQUE DE CAXIASRJUNIAO UMB DOS CULTOS AFRO BRAS    30041910 000004
10231987175000168817800093673    000044993                    000449930000000000000109                     I0144993     20041900000000040003410000017N040419104700000000000102004190000000000000000000000000000000000000000100011152568744PAULO ROBERTO CAMARA DOS SANTO          RUA DESEMBARGADOR GASTAO MACEDON 118,   PRACA SECA  21321140RIO DE JANEIRO RJUNIAO UMB DOS CULTOS AFRO BRAS    20041910 000005
10231987175000168817800093673    000044992                    000449920000000000000109                     I0144992     30041900000000040003410000017N040419104700000000000103004190000000000000000000000000000000000000000100079179690700SANDRA BAPTISTA DA SILVA                RUA SOLDADO HIVIL MILIATON 141,         CAMPO GRANDE23042430RIO DE JANEIRO RJUNIAO UMB DOS CULTOS AFRO BRAS    30041910 000006
10231987175000168817800093673    000044991                    000449910000000000000109                     I0144991     30061900000000040003410000017N030419104700000000000103006190000000000000000000000000000000000000000100001087226783ALBA VALERIA GARCIA LIMA MOURA          AVENIDA: CARNAUBEIRAN 135,              GUARATIBA   23032080RIO DE JANEIRO RJUNIAO UMB DOS CULTOS AFRO BRAS    30061910 000007
10231987175000168817800093673    000044990                    000449900000000000000109                     I0144990     30051900000000040003410000017N030419104700000000000103005190000000000000000000000000000000000000000100001087226783ALBA VALERIA GARCIA LIMA MOURA          AVENIDA: CARNAUBEIRAN 135,              GUARATIBA   23032080RIO DE JANEIRO RJUNIAO UMB DOS CULTOS AFRO BRAS    30051910 000008
10231987175000168817800093673    000044989                    000449890000000000000109                     I0144989     30041900000000040003410000017N030419104700000000000103004190000000000000000000000000000000000000000100001087226783ALBA VALERIA GARCIA LIMA MOURA          AVENIDA: CARNAUBEIRAN 135,              GUARATIBA   23032080RIO DE JANEIRO RJUNIAO UMB DOS CULTOS AFRO BRAS    30041910 000009
10231987175000168817800093673    000039343                    000393430000000000000109                     I0239343     30031900000000040003410000017N261218104700000000000103003190000000000000000000000000000000000000000100011124747737JOSE DO NASCIMENTO                      RUA JUTAI N 0, LOTE 25 QUADRA 153       OLAVO BILAC 25025290DUQUE DE CAXIASRJUNIAO UMB DOS CULTOS AFRO BRAS    30031910 000010
10231987175000168817800093673    000038616                    000386160000000000000109                     I0238616     30031900000000040003410000017N261218104700000000000103003190000000000000000000000000000000000000000100068862989768VILMA FLAUSINO ILIDIO                   RUA: GERALDO MACEDO N 230,              HELIOPOLIS  26123090BELFORD ROXO   RJUNIAO UMB DOS CULTOS AFRO BRAS    30031910 000011
10231987175000168817800093673    000037793                    000377930000000000000109                     I0237793     30031900000000040003410000017N261218104700000000000103003190000000000000000000000000000000000000000100003032033748MARIA MOREIRA TEIXEIRA                  AVENIDA GENERAL JOSE MULHERN 1018,      HELIOPOLIS  26140040BELFORD ROXO   RJUNIAO UMB DOS CULTOS AFRO BRAS    30031910 000012
10231987175000168817800093673    000037282                    000372820000000000000109                     I0237282     28021900000000040003410000017N261218104700000000000102802190000000000000000000000000000000000000000100002176741781SUSI DE OLIVEIRA LOUREIRO               AVENIDA: VICENTE DE CARVALHO N 536, CASAVICENTE DE C21371148RIO DE JANEIRO RJUNIAO UMB DOS CULTOS AFRO BRAS    28021910 000013
10231987175000168817800093673    000036699                    000366990000000000000109                     I0236699     28021900000000040003410000017N261218104700000000000102802190000000000000000000000000000000000000000100068862989768VILMA FLAUSINO ILIDIO                   RUA: GERALDO MACEDO N 230,              HELIOPOLIS  26123090BELFORD ROXO   RJUNIAO UMB DOS CULTOS AFRO BRAS    28021910 000014
10231987175000168817800093673    000035879                    000358790000000000000109                     I0235879     28021900000000040003410000017N261218104700000000000102802190000000000000000000000000000000000000000100003032033748MARIA MOREIRA TEIXEIRA                  AVENIDA GENERAL JOSE MULHERN 1018,      HELIOPOLIS  26140040BELFORD ROXO   RJUNIAO UMB DOS CULTOS AFRO BRAS    28021910 000015
9                                                                                                                                                                                                                                                                                                                                                                                                         000016
