01REMESSA01COBRANCA       817800093673        União Umb dos Cultos Afro Bra341BANCO ITAU SA  240218                                                                                                                                                                                                                                                                                                      000001
10231987175000168817800093673    000013941                    000139410000000000000109                     I0113941     28021800000000035003410000017N210218104700000000000102802180000000000000000000000000000000000000000100001783778806MARIA LUIZA FERREIRA GODINHO C          ESTRADA DO BOIUNA, 2620                 TAQUARA - JA22723018RIO DE JANEIRO RJUNIAO UMB DOS CULTOS AFRO BRAS    28021810 000002
10231987175000168817800093673    000013940                    000139400000000000000109                     I0113940     23021800000000105003410000017N200218104700000000000102302180000000000000000000000000000000000000000100077575768734CARLOS ALBERTO BAPTISTA                 RUA DOUTOR NOGUCHI, 220                 RAMOS - RJ  21060420RIO DE JANEIRO RJUNIAO UMB DOS CULTOS AFRO BRAS    23021810 000003
10231987175000168817800093673    000013939                    000139390000000000000109                     I0113939     28021800000000035003410000017N200218104700000000000102802180000000000000000000000000000000000000000100049170872791SONIA REGINA BARBOSA CAVATO             AVENIDA: SCHULTZ WENK Nº 183           CORDOVIL - R21012155RIO DE JANEIRO RJUNIAO UMB DOS CULTOS AFRO BRAS    28021810 000004
10231987175000168817800093673    000013938                    000139380000000000000109                     I0113938     30051800000000035003410000017N200218104700000000000103005180000000000000000000000000000000000000000100000227210700ROSIMAR TELLES DE SA                    RUA: ACAPU                              MARECHAL HER21550570RIO DE JANEIRO RJUNIAO UMB DOS CULTOS AFRO BRAS    30051810 000005
10231987175000168817800093673    000013937                    000139370000000000000109                     I0113937     30051800000000035003410000017N200218104700000000000103005180000000000000000000000000000000000000000100000919377793JOSE IVAN MARCELINO FILHO               RUA ERNANE PEREIRA                      CARLOS SAMPA26089115NOVA IGUACU    RJUNIAO UMB DOS CULTOS AFRO BRAS    30051810 000006
10231987175000168817800093673    000013936                    000139360000000000000109                     I0113936     30051800000000035003410000017N200218104700000000000103005180000000000000000000000000000000000000000100001649750714CRISTIANE JOSE DA SILVA                 AVENIDA CALOMBE                         PARQUE ELDOR25231020DUQUE DE CAXIASRJUNIAO UMB DOS CULTOS AFRO BRAS    30051810 000007
10231987175000168817800093673    000013935                    000139350000000000000109                     I0113935     30051800000000040003410000017N200218104700000000000103005180000000000000000000000000000000000000000100011700984799CRISTIANE SANTOS FEIJO VIEIRA           RUA NICOLAU TOUQUET                     JARDIM CATAR24716403SAO GONCALO    RJUNIAO UMB DOS CULTOS AFRO BRAS    30051810 000008
10231987175000168817800093673    000013934                    000139340000000000000109                     I0113934     30051800000000035003410000017N200218104700000000000103005180000000000000000000000000000000000000000100012345678900MARIA DA GRACA MACHADO DOS SAN          RUA ARCOBELO                            PARQUE ARARU25585560SAO JOAO DE MERRJUNIAO UMB DOS CULTOS AFRO BRAS    30051810 000009
10231987175000168817800093673    000013933                    000139330000000000000109                     I0113933     30051800000000035003410000017N200218104700000000000103005180000000000000000000000000000000000000000100004278587716LUCIANO GONCALVES PIRES                 RUA MARECHAL ANTONIO DE SOUSA           JARDIM AMERI21240430RIO DE JANEIRO RJUNIAO UMB DOS CULTOS AFRO BRAS    30051810 000010
10231987175000168817800093673    000013932                    000139320000000000000109                     I0113932     30051800000000040003410000017N200218104700000000000103005180000000000000000000000000000000000000000100001413508731MARLENE TRAVASSOS DA SILVA              RUA SAO LUIZ GONZAGA                    SAO CRISTOVA20910061RIO DE JANEIRO RJUNIAO UMB DOS CULTOS AFRO BRAS    30051810 000011
10231987175000168817800093673    000013931                    000139310000000000000109                     I0113931     30051800000000035003410000017N200218104700000000000103005180000000000000000000000000000000000000000100010154945790SIMONE DE OLIVEIRA CUNHA                RUA ONZE                                JARDIM ROTSE25270080DUQUE DE CAXIASRJUNIAO UMB DOS CULTOS AFRO BRAS    30051810 000012
10231987175000168817800093673    000013930                    000139300000000000000109                     I0113930     30051800000000040003410000017N200218104700000000000103005180000000000000000000000000000000000000000100005234258726LUANNA RODRIGUES NASCIMENTO LO          RUA HERACLITO BUSQUET                   TABORDA     28680000CACHOEIRA DE MARJUNIAO UMB DOS CULTOS AFRO BRAS    30051810 000013
10231987175000168817800093673    000013929                    000139290000000000000109                     I0113929     30051800000000040003410000017N200218104700000000000103005180000000000000000000000000000000000000000100005770480742NARAYAMA MARTINS RODRIGUES LOU          RUA HERACLITO BUSQUET                   TABORDA     28680000CACHOEIRA DE MARJUNIAO UMB DOS CULTOS AFRO BRAS    30051810 000014
10231987175000168817800093673    000013928                    000139280000000000000109                     I0113928     30051800000000040003410000017N200218104700000000000103005180000000000000000000000000000000000000000100002965368736REGINA CONCEICAO                        AVENIDA BOQUEIRAO                       BOA VISTA   28680000CACHOEIRA DE MARJUNIAO UMB DOS CULTOS AFRO BRAS    30051810 000015
10231987175000168817800093673    000013927                    000139270000000000000109                     I0113927     30051800000000040003410000017N200218104700000000000103005180000000000000000000000000000000000000000100009963194761FERNANDO PECANHA PIRES                  RUA GENERAL BASILIO                     TABORDA     28680000CACHOEIRA DE MARJUNIAO UMB DOS CULTOS AFRO BRAS    30051810 000016
10231987175000168817800093673    000013926                    000139260000000000000109                     I0113926     30051800000000035003410000017N200218104700000000000103005180000000000000000000000000000000000000000100009491065777VIVIAN LUIZA FREITAS DE AGUIAR          RUA ITAPETININGA                        VICENTE DE C21370680RIO DE JANEIRO RJUNIAO UMB DOS CULTOS AFRO BRAS    30051810 000017
10231987175000168817800093673    000013925                    000139250000000000000109                     I0113925     30051800000000035003410000017N200218104700000000000103005180000000000000000000000000000000000000000100002331392730ANA MARIA DOS SANTOS VIEIRA             RUA CRUZ DE SOUZA                       CARMARY POSS26022281NOVA IGUACU    RJUNIAO UMB DOS CULTOS AFRO BRAS    30051810 000018
10231987175000168817800093673    000013924                    000139240000000000000109                     I0113924     30051800000000035003410000017N200218104700000000000103005180000000000000000000000000000000000000000100005964958702MARISLEY AMARO DE SOUZA                 RUA MONTE ALTO                          BANGU       21863010RIO DE JANEIRO RJUNIAO UMB DOS CULTOS AFRO BRAS    30051810 000019
10231987175000168817800093673    000013923                    000139230000000000000109                     I0113923     30051800000000035003410000017N200218104700000000000103005180000000000000000000000000000000000000000100003018847733MARIA AILHA BERNARDO PINTO              RUA RUBIAO JUNIOR                       CENTRO      23860000MANGARATIBA    RJUNIAO UMB DOS CULTOS AFRO BRAS    30051810 000020
10231987175000168817800093673    000013922                    000139220000000000000109                     I0113922     30051800000000035003410000017N200218104700000000000103005180000000000000000000000000000000000000000100089207963787NICEIA SANTOS FRANCA                    RUA SAPUCAI - BECO DO JORDAO            SANTA CRUZ  23550360RIO DE JANEIRO RJUNIAO UMB DOS CULTOS AFRO BRAS    30051810 000021
10231987175000168817800093673    000013921                    000139210000000000000109                     I0113921     30051800000000035003410000017N200218104700000000000103005180000000000000000000000000000000000000000100012345678910LUCIANO GONCALVES DE SOUZA              RUA CLARIMUNDO DE MELO                  PIEDADE     20740323RIO DE JANEIRO RJUNIAO UMB DOS CULTOS AFRO BRAS    30051810 000022
10231987175000168817800093673    000013920                    000139200000000000000109                     I0113920     30051800000000035003410000017N200218104700000000000103005180000000000000000000000000000000000000000100001162883707SUNEY MENEZES MACHADO                   ESTRADA: DO ENCANAMENTO                 BARBADO - CA23060000RIO DE JANEIRO RJUNIAO UMB DOS CULTOS AFRO BRAS    30051810 000023
10231987175000168817800093673    000013919                    000139190000000000000109                     I0113919     30051800000000035003410000017N200218104700000000000103005180000000000000000000000000000000000000000100004275325745MAIKE OLIVEIRA DA COSTA                 TRAVESSA: MARTA DA ROCHA                ABOLICAO    20755030RIO DE JANEIRO RJUNIAO UMB DOS CULTOS AFRO BRAS    30051810 000024
10231987175000168817800093673    000013918                    000139180000000000000109                     I0113918     30051800000000035003410000017N200218104700000000000103005180000000000000000000000000000000000000000100007852297790IRENE FRANCISCO LIMA                    RUA: VIRGILIO VARZEA                    VILA SAO LUI25051110DUQUE DE CAXIASRJUNIAO UMB DOS CULTOS AFRO BRAS    30051810 000025
10231987175000168817800093673    000013917                    000139170000000000000109                     I0113917     30051800000000035003410000017N200218104700000000000103005180000000000000000000000000000000000000000100082396841734LUCIA DE FATIMA DE SOUZA                RUA: RESPLANDECER                       PARAISO     26297159NOVA IGUACU    RJUNIAO UMB DOS CULTOS AFRO BRAS    30051810 000026
10231987175000168817800093673    000013916                    000139160000000000000109                     I0113916     30051800000000035003410000017N200218104700000000000103005180000000000000000000000000000000000000000100001298660750ROSEMBERG EFIGENIO BARBOSA              RUA: TANCREDO MARTINS COSTA             ENGENHO DE D20730310RIO DE JANEIRO RJUNIAO UMB DOS CULTOS AFRO BRAS    30051810 000027
10231987175000168817800093673    000013915                    000139150000000000000109                     I0113915     30051800000000035003410000017N200218104700000000000103005180000000000000000000000000000000000000000100050246534753TANIA MARIA DA SILVA OLIVEIRA           TRAVESSA: MARAJO                        LINDO PARQUE24420100SAO GONCALO    RJUNIAO UMB DOS CULTOS AFRO BRAS    30051810 000028
10231987175000168817800093673    000013914                    000139140000000000000109                     I0113914     30051800000000035003410000017N200218104700000000000103005180000000000000000000000000000000000000000100006915594736CINTIA FERREIRA                         AVENIDA: DAS AMERICAS                   BARRA DA TIJ22631004RIO DE JANEIRO RJUNIAO UMB DOS CULTOS AFRO BRAS    30051810 000029
10231987175000168817800093673    000013913                    000139130000000000000109                     I0113913     30051800000000035003410000017N200218104700000000000103005180000000000000000000000000000000000000000100011497058767DIEGO FERREIRA DA SILVA                 PRIMEIRO DE MAIO                        IPIRANGA    26293480NOVA IGUACU    RJUNIAO UMB DOS CULTOS AFRO BRAS    30051810 000030
10231987175000168817800093673    000013912                    000139120000000000000109                     I0113912     30051800000000035003410000017N200218104700000000000103005180000000000000000000000000000000000000000100044415443753ELIDE LEANDRO BARBOSA                   RUA: ENGENHEIRO PERICLES RIBEIRO        FONSECA     24130350NITEROI        RJUNIAO UMB DOS CULTOS AFRO BRAS    30051810 000031
10231987175000168817800093673    000013911                    000139110000000000000109                     I0113911     30051800000000035003410000017N200218104700000000000103005180000000000000000000000000000000000000000100003387547720APARECIDA DOS SANTOS                    RUA LAOS                                VILA HELIOPO26125170BELFORD ROXO   RJUNIAO UMB DOS CULTOS AFRO BRAS    30051810 000032
10231987175000168817800093673    000013910                    000139100000000000000109                     I0113910     30051800000000035003410000017N200218104700000000000103005180000000000000000000000000000000000000000100090219023700GUARACIARA CORREA PASCHOAL              RUA JOSE CABRAL                         VAL VERDE   26290783NOVA IGUACU    RJUNIAO UMB DOS CULTOS AFRO BRAS    30051810 000033
10231987175000168817800093673    000013909                    000139090000000000000109                     I0113909     30051800000000035003410000017N200218104700000000000103005180000000000000000000000000000000000000000100000640795706CELIA REGINA ALVES DE SOUZA CO          ESTRADA: SAO PEDRO                      VISTA ALEGRE24725240SAO GONCALO    RJUNIAO UMB DOS CULTOS AFRO BRAS    30051810 000034
10231987175000168817800093673    000013908                    000139080000000000000109                     I0113908     30051800000000035003410000017N200218104700000000000103005180000000000000000000000000000000000000000100007459837741LUIZ CARLOS CARDOSO                     O MESMO                                 O MESMO     25917040MAGE           RJUNIAO UMB DOS CULTOS AFRO BRAS    30051810 000035
10231987175000168817800093673    000013907                    000139070000000000000109                     I0113907     30051800000000035003410000017N200218104700000000000103005180000000000000000000000000000000000000000100023970090563MARCIA VIEIRA SALES                     O MESMO                                 O MESMO     22740220RIO DE JANEIRO RJUNIAO UMB DOS CULTOS AFRO BRAS    30051810 000036
10231987175000168817800093673    000013906                    000139060000000000000109                     I0113906     30051800000000035003410000017N200218104700000000000103005180000000000000000000000000000000000000000100011264005725MARECELO VIEIRA GUSMAN FILHO            MESMO                                   MESMO       23066470RIO DE JANEIRO RJUNIAO UMB DOS CULTOS AFRO BRAS    30051810 000037
10231987175000168817800093673    000013905                    000139050000000000000109                     I0113905     30051800000000035003410000017N200218104700000000000103005180000000000000000000000000000000000000000100001343022738LUCIANA FIGUEIRO COUTINHO DA S          O MESMO                                 O MESMO     22785600RIO DE JANEIRO RJUNIAO UMB DOS CULTOS AFRO BRAS    30051810 000038
10231987175000168817800093673    000013904                    000139040000000000000109                     I0113904     30051800000000035003410000017N200218104700000000000103005180000000000000000000000000000000000000000100006726905432DAYVIDY RAMON CANDIDO                   O MESMO                                 O MESMO     26415055JAPERI         RJUNIAO UMB DOS CULTOS AFRO BRAS    30051810 000039
10231987175000168817800093673    000013903                    000139030000000000000109                     I0113903     30051800000000035003410000017N200218104700000000000103005180000000000000000000000000000000000000000100053531396749VITALINA DOS SANTOS                     RUA SAQUAREMA                           GRAMACHO    25035425DUQUE DE CAXIASRJUNIAO UMB DOS CULTOS AFRO BRAS    30051810 000040
10231987175000168817800093673    000013902                    000139020000000000000109                     I0113902     30051800000000035003410000017N200218104700000000000103005180000000000000000000000000000000000000000100003604572746LUCIANA SANTOS DA SILVA DE LIM          O MESMO                                 O MESMO     25585110SAO JOAO DE MERRJUNIAO UMB DOS CULTOS AFRO BRAS    30051810 000041
10231987175000168817800093673    000013901                    000139010000000000000109                     I0113901     30051800000000035003410000017N200218104700000000000103005180000000000000000000000000000000000000000100009445907728VICTOR DOS SANTOS ALLEN                 RUA PEDRO TELES                         SAO JOAO DE 25515032SAO JOAO DE MERRJUNIAO UMB DOS CULTOS AFRO BRAS    30051810 000042
10231987175000168817800093673    000013900                    000139000000000000000109                     I0113900     30051800000000035003410000017N200218104700000000000103005180000000000000000000000000000000000000000100011549239759RENATA DE OLIVEIRA GASPAR               O MESMO                                 O MESMO     21350230RIO DE JANEIRO RJUNIAO UMB DOS CULTOS AFRO BRAS    30051810 000043
10231987175000168817800093673    000013899                    000138990000000000000109                     I0113899     30051800000000035003410000017N200218104700000000000103005180000000000000000000000000000000000000000100009145082707ELAINE CRISTINA DE MORAES               O MESMO                                 O MESMO     23063340RIO DE JANEIRO RJUNIAO UMB DOS CULTOS AFRO BRAS    30051810 000044
10231987175000168817800093673    000013898                    000138980000000000000109                     I0113898     30051800000000035003410000017N200218104700000000000103005180000000000000000000000000000000000000000100015429555134OBIRACI SILVA DO NASCIMENTO             O MESMO                                 O MESMO     24756280SAO GONCALO    RJUNIAO UMB DOS CULTOS AFRO BRAS    30051810 000045
10231987175000168817800093673    000013897                    000138970000000000000109                     I0113897     30051800000000035003410000017N200218104700000000000103005180000000000000000000000000000000000000000100006864504778FABIO GUILHERME DOS SANTOS              O MESMO                                 O MESMO     24723190SAO GONCALO    RJUNIAO UMB DOS CULTOS AFRO BRAS    30051810 000046
10231987175000168817800093673    000013896                    000138960000000000000109                     I0113896     30051800000000035003410000017N200218104700000000000103005180000000000000000000000000000000000000000100001234567890LUCIANO SOARES DA SILVA                 O MESMO                                 O MESMO     27910000MACAE          RJUNIAO UMB DOS CULTOS AFRO BRAS    30051810 000047
10231987175000168817800093673    000013895                    000138950000000000000109                     I0113895     30051800000000035003410000017N200218104700000000000103005180000000000000000000000000000000000000000100013849060705LEONARDO ENEDINA DE MELO                O MESMO                                 O MESMO     26050517NOVA IGUACU    RJUNIAO UMB DOS CULTOS AFRO BRAS    30051810 000048
10231987175000168817800093673    000013894                    000138940000000000000109                     I0113894     30051800000000035003410000017N200218104700000000000103005180000000000000000000000000000000000000000100082391106734CASSIO SOUZA DA COSTA                   O MESMO                                 O MESMO     26112220BELFORD ROXO   RJUNIAO UMB DOS CULTOS AFRO BRAS    30051810 000049
10231987175000168817800093673    000013893                    000138930000000000000109                     I0113893     30051800000000035003410000017N200218104700000000000103005180000000000000000000000000000000000000000100087798999787NILZETE DA CONCEICAO FELIX              O MESMO                                 O MESMO     25264030DUQUE DE CAXIASRJUNIAO UMB DOS CULTOS AFRO BRAS    30051810 000050
10231987175000168817800093673    000013892                    000138920000000000000109                     I0113892     30051800000000035003410000017N200218104700000000000103005180000000000000000000000000000000000000000100002882629729ANA PAULA DE SOUZA RIBEIRO VIL          O MESMO                                 O MESMO     21550130RIO DE JANEIRO RJUNIAO UMB DOS CULTOS AFRO BRAS    30051810 000051
10231987175000168817800093673    000013891                    000138910000000000000109                     I0113891     30051800000000035003410000017N200218104700000000000103005180000000000000000000000000000000000000000100004842101490MARIA DE LOURDES FARIAS DOS SA          RUA HELIO DE OLIVEIRA LOTE 29 QUADRA 407PARADA MORAB25000000DUQUE DE CAXIASRJUNIAO UMB DOS CULTOS AFRO BRAS    30051810 000052
10231987175000168817800093673    000013890                    000138900000000000000109                     I0113890     30051800000000035003410000017N200218104700000000000103005180000000000000000000000000000000000000000100004253784704ALEXANDRE SIMOES NASCIMENTO             RUA SEBASTIAO DRUMOND N 179             ANCHIETA - R21640360RIO DE JANEIRO RJUNIAO UMB DOS CULTOS AFRO BRAS    30051810 000053
10231987175000168817800093673    000013889                    000138890000000000000109                     I0113889     30051800000000035003410000017N200218104700000000000103005180000000000000000000000000000000000000000100004474701755JACIRA DE ALMEIDA BATISTA JULI          O MESMO                                 O MESMO     25225660DUQUE DE CAXIASRJUNIAO UMB DOS CULTOS AFRO BRAS    30051810 000054
10231987175000168817800093673    000013888                    000138880000000000000109                     I0113888     30051800000000035003410000017N200218104700000000000103005180000000000000000000000000000000000000000100077068505791JOSE CLEZIO DE SOUZA                    O MESMO                                 O MESMO     21331100RIO DE JANEIRO RJUNIAO UMB DOS CULTOS AFRO BRAS    30051810 000055
10231987175000168817800093673    000013887                    000138870000000000000109                     I0113887     30051800000000035003410000017N200218104700000000000103005180000000000000000000000000000000000000000100006424589880LUIZ CARLOS BRITO                       O MESMO                                 O MESMO     26063230NOVA IGUACU    RJUNIAO UMB DOS CULTOS AFRO BRAS    30051810 000056
10231987175000168817800093673    000013886                    000138860000000000000109                     I0113886     30051800000000035003410000017N200218104700000000000103005180000000000000000000000000000000000000000100002413242708NIVEA MARIA NARCIZO CONCEICAO           O MESMO                                 O MESMO     24344565NITEROI        RJUNIAO UMB DOS CULTOS AFRO BRAS    30051810 000057
10231987175000168817800093673    000013885                    000138850000000000000109                     I0113885     30051800000000035003410000017N200218104700000000000103005180000000000000000000000000000000000000000100007299785757EDSON NUNES DE SOUZA FILHO              O MESMO                                 O MESMO     24415050SAO GONCALO    RJUNIAO UMB DOS CULTOS AFRO BRAS    30051810 000058
10231987175000168817800093673    000013884                    000138840000000000000109                     I0113884     30051800000000035003410000017N200218104700000000000103005180000000000000000000000000000000000000000100009250353782LUIZ CARLOS MATOLA                      APIACA                                  JARDIM PRIMA25056270DUQUE DE CAXIASRJUNIAO UMB DOS CULTOS AFRO BRAS    30051810 000059
10231987175000168817800093673    000013883                    000138830000000000000109                     I0113883     30051800000000035003410000017N200218104700000000000103005180000000000000000000000000000000000000000100002209208777ELIELSON DOS SANTOS CARVALHAES          RUA TRES QUADRA 21 LOTE 17              LAGOINHA - N26296295NOVA IGUACU    RJUNIAO UMB DOS CULTOS AFRO BRAS    30051810 000060
10231987175000168817800093673    000013882                    000138820000000000000109                     I0113882     30051800000000035003410000017N200218104700000000000103005180000000000000000000000000000000000000000100012345678910LUCIANA LUISA PEREIRA                   AVENIDA PORTO SEGURO N 469              LAGOMAR - MA27966870MACAE          RJUNIAO UMB DOS CULTOS AFRO BRAS    30051810 000061
10231987175000168817800093673    000013881                    000138810000000000000109                     I0113881     30051800000000035003410000017N200218104700000000000103005180000000000000000000000000000000000000000100012464631728DIEGO TACITO COSTA HENRIQUE             RUA YONE MUZZI N 59                     MALVINAS - M27946310MACAE          RJUNIAO UMB DOS CULTOS AFRO BRAS    30051810 000062
10231987175000168817800093673    000013880                    000138800000000000000109                     I0113880     30051800000000035003410000017N200218104700000000000103005180000000000000000000000000000000000000000200000000012990MARIA DA PENHA CORREA PINTO             RUA 1 CONDOMINIO 1 CASA 34              BOSQUE AZUL 27971250MACAE          RJUNIAO UMB DOS CULTOS AFRO BRAS    30051810 000063
10231987175000168817800093673    000013879                    000138790000000000000109                     I0113879     30051800000000035003410000017N200218104700000000000103005180000000000000000000000000000000000000000100078514533568PAULO SERGIO SANTOS SANTANA             RUA: W 12 -  TRAVESSA SENA CASA 10      LAGOMAR - MA27966590MACAE          RJUNIAO UMB DOS CULTOS AFRO BRAS    30051810 000064
10231987175000168817800093673    000013878                    000138780000000000000109                     I0113878     30051800000000035003410000017N200218104700000000000103005180000000000000000000000000000000000000000100010267774702NATHALIA SOUTELINHO FERREIRA            MARIA NATALIA                           GUARATIBA   23028270RIO DE JANEIRO RJUNIAO UMB DOS CULTOS AFRO BRAS    30051810 000065
10231987175000168817800093673    000013877                    000138770000000000000109                     I0113877     30051800000000035003410000017N200218104700000000000103005180000000000000000000000000000000000000000100007208431701WEMERSON JOAO FARIAS DA SILVA           RUA: C N 3 LOTE 3 QUADRA G              SEPETIBA - R23545040RIO DE JANEIRO RJUNIAO UMB DOS CULTOS AFRO BRAS    30051810 000066
10231987175000168817800093673    000013876                    000138760000000000000109                     I0113876     30051800000000035003410000017N200218104700000000000103005180000000000000000000000000000000000000000100073960560710CLAUDIA MARIA DE OLIVEIRA DOS           RUA: CARATUVA N 145                     JARDIM SULAC22725020RIO DE JANEIRO RJUNIAO UMB DOS CULTOS AFRO BRAS    30051810 000067
10231987175000168817800093673    000013875                    000138750000000000000109                     I0113875     30051800000000035003410000017N200218104700000000000103005180000000000000000000000000000000000000000100014933850704LIDIA GABRIELLE DIAS RIBEIRO            RUA JORGE BRAGANCA SN LOTE 28 QUADRA 70 BOM PASTOR -26110080BELFORD ROXO   RJUNIAO UMB DOS CULTOS AFRO BRAS    30051810 000068
10231987175000168817800093673    000013874                    000138740000000000000109                     I0113874     30051800000000035003410000017N200218104700000000000103005180000000000000000000000000000000000000000100097990531704CICERO ROGERIO DA SILVA MATOS           RUA: ROBERTO N 99                       VILA GUIMARA26088425NOVA IGUACU    RJUNIAO UMB DOS CULTOS AFRO BRAS    30051810 000069
10231987175000168817800093673    000013873                    000138730000000000000109                     I0113873     30051800000000035003410000017N200218104700000000000103005180000000000000000000000000000000000000000100001478776790CLEUSA FERREIRA PEREIRA                 RUA THEREMIN N 393                      COELHO NETO 21530290RIO DE JANEIRO RJUNIAO UMB DOS CULTOS AFRO BRAS    30051810 000070
10231987175000168817800093673    000013872                    000138720000000000000109                     I0113872     30051800000000035003410000017N200218104700000000000103005180000000000000000000000000000000000000000100067424647734MARCIA VALERIA VALIATI DOS SAN          RUA CONSTANCA BARBOSA N 65 APT 202      MEIER - RIO 20735090RIO DE JANEIRO RJUNIAO UMB DOS CULTOS AFRO BRAS    30051810 000071
10231987175000168817800093673    000013871                    000138710000000000000109                     I0113871     30051800000000035003410000017N200218104700000000000103005180000000000000000000000000000000000000000100002621693717JUREMA DE OLIVEIRA RODRIGUES            ESTRADA INTENDENTE MAGALHAES N 196 APT 1CAMPINHO - R21341330RIO DE JANEIRO RJUNIAO UMB DOS CULTOS AFRO BRAS    30051810 000072
10231987175000168817800093673    000013870                    000138700000000000000109                     I0113870     30051800000000035003410000017N200218104700000000000103005180000000000000000000000000000000000000000100010292272766MARCIA JUPIRA SANTOS GONZAGA            RUA ANTONIO FELIX N 457                 CENTRO - NIL26520081NILOPOLIS      RJUNIAO UMB DOS CULTOS AFRO BRAS    30051810 000073
10231987175000168817800093673    000013869                    000138690000000000000109                     I0113869     30051800000000035003410000017N200218104700000000000103005180000000000000000000000000000000000000000100090490894704EVELINE DA CONCEICAO                    AVENIDA ATLANTIDA  SN                   LAGOMAR - MA27966000MACAE          RJUNIAO UMB DOS CULTOS AFRO BRAS    30051810 000074
10231987175000168817800093673    000013868                    000138680000000000000109                     I0113868     30051800000000035003410000017N200218104700000000000103005180000000000000000000000000000000000000000100013397736781JOVANE RANGEL DA SILVA                  RUA SILVA JARDIM N 200                  CENTRO - MAC27910340MACAE          RJUNIAO UMB DOS CULTOS AFRO BRAS    30051810 000075
10231987175000168817800093673    000013867                    000138670000000000000109                     I0113867     30051800000000035003410000017N200218104700000000000103005180000000000000000000000000000000000000000100004188514760LUIZ CARLOS PEREIRA DA SILVA            RUA W N 24 TRAVESSA 13                  LAGOMAR - MA27966755MACAE          RJUNIAO UMB DOS CULTOS AFRO BRAS    30051810 000076
10231987175000168817800093673    000013866                    000138660000000000000109                     I0113866     30051800000000035003410000017N200218104700000000000103005180000000000000000000000000000000000000000100016492108760TIAGO LOPES DE AZEVEDO SILVA            RUA X N 24 QUADRA 82                    PARADA MODEL25943365GUAPIMIRIM     RJUNIAO UMB DOS CULTOS AFRO BRAS    30051810 000077
10231987175000168817800093673    000013865                    000138650000000000000109                     I0113865     30051800000000035003410000017N200218104700000000000103005180000000000000000000000000000000000000000200000000012966LEONARDO EUGENIO DOS SANTOS             RUA LUIZ PINTO DA SILVA N 547           PRAIA CAMPIS27923200MACAE          RJUNIAO UMB DOS CULTOS AFRO BRAS    30051810 000078
10231987175000168817800093673    000013864                    000138640000000000000109                     I0113864     30051800000000035003410000017N200218104700000000000103005180000000000000000000000000000000000000000100095181890725ALEXANDRE DE SOUZA TAVARES SEN          O MESMO                                 O MESMO     26260230NOVA IGUACU    RJUNIAO UMB DOS CULTOS AFRO BRAS    30051810 000079
10231987175000168817800093673    000013863                    000138630000000000000109                     I0113863     30051800000000035003410000017N200218104700000000000103005180000000000000000000000000000000000000000100014527767763THIERRY PADILHA MOTA                    RUA ALCIR BRASIL N 706                  JARDIM NOVA 26266010NOVA IGUACU    RJUNIAO UMB DOS CULTOS AFRO BRAS    30051810 000080
10231987175000168817800093673    000013862                    000138620000000000000109                     I0113862     30051800000000035003410000017N200218104700000000000103005180000000000000000000000000000000000000000100011122717750RODRIGO DINIZ DA COSTA                  RUA ENGENHO DE DENTRO N 177 LOTE 26 QUADVILAR DOS TE02556523SAO JOAO DE MERRJUNIAO UMB DOS CULTOS AFRO BRAS    30051810 000081
10231987175000168817800093673    000013861                    000138610000000000000109                     I0113861     30051800000000035003410000017N200218104700000000000103005180000000000000000000000000000000000000000100013090350750REINALDO GONCALVES DE OLIVEIRA          RUA DOMINGOS LEMOS N 99                 COELHO DA RO02550721SAO JOAO DE MERRJUNIAO UMB DOS CULTOS AFRO BRAS    30051810 000082
10231987175000168817800093673    000013860                    000138600000000000000109                     I0113860     30051800000000035003410000017N200218104700000000000103005180000000000000000000000000000000000000000100005953749724JUCIARA DA SILVA XAVIER                 RUA CONDE DE AZAMBUJA N 526             MARIA DA GRA20785342RIO DE JANEIRO RJUNIAO UMB DOS CULTOS AFRO BRAS    30051810 000083
10231987175000168817800093673    000013859                    000138590000000000000109                     I0113859     30051800000000035003410000017N200218104700000000000103005180000000000000000000000000000000000000000100012993228257ANDREIA CRISTINA VICENTE                RUA CORONEL CARLOS MATOS                PARQUE JOAO 25030140DUQUE DE CAXIASRJUNIAO UMB DOS CULTOS AFRO BRAS    30051810 000084
10231987175000168817800093673    000013858                    000138580000000000000109                     I0113858     30051800000000035003410000017N200218104700000000000103005180000000000000000000000000000000000000000100048972215791MARIA PETRONILHA ROSA NATIVIDA          RUA JACARE ACANGA Nº 29 QUADRA 21      VILA MARIA H25255590DUQUE DE CAXIASRJUNIAO UMB DOS CULTOS AFRO BRAS    30051810 000085
10231987175000168817800093673    000013857                    000138570000000000000109                     I0113857     30051800000000035003410000017N200218104700000000000103005180000000000000000000000000000000000000000100006110323764WAGNER MATOS DA SILVA                   RUA OLINDA Nº 425 CASA 3               BELA VISTA -26175350BELFORD ROXO   RJUNIAO UMB DOS CULTOS AFRO BRAS    30051810 000086
10231987175000168817800093673    000013856                    000138560000000000000109                     I0113856     30051800000000035003410000017N200218104700000000000103005180000000000000000000000000000000000000000100092111777749WANDERLEY DOS SANTOS MENDES             PRACA EMBOABA Nº 67                    ENGENHO DA R20761160RIO DE JANEIRO RJUNIAO UMB DOS CULTOS AFRO BRAS    30051810 000087
10231987175000168817800093673    000013855                    000138550000000000000109                     I0113855     30051800000000035003410000017N200218104700000000000103005180000000000000000000000000000000000000000100009416663794IGOR DO NASCIMENTO RODRIGUES            RUA FIGUEIREDO ROCHA N 665              VIGARIO GERA21240660RIO DE JANEIRO RJUNIAO UMB DOS CULTOS AFRO BRAS    30051810 000088
10231987175000168817800093673    000013854                    000138540000000000000109                     I0113854     30051800000000035003410000017N200218104700000000000103005180000000000000000000000000000000000000000100090432894772ALTAMIRO DAMASCENO MONCAO               RUA TENERIFE N 8 - PARADA DE LUCAS      PARADA DE LU21010000RIO DE JANEIRO RJUNIAO UMB DOS CULTOS AFRO BRAS    30051810 000089
10231987175000168817800093673    000013853                    000138530000000000000109                     I0113853     30051800000000035003410000017N200218104700000000000103005180000000000000000000000000000000000000000100040664325734GENI BARBOSA ROCHA DA SILVA             O MESMO                                 O MESMO     25268020RIO DE JANEIROIRJUNIAO UMB DOS CULTOS AFRO BRAS    30051810 000090
10231987175000168817800093673    000013852                    000138520000000000000109                     I0113852     30051800000000035003410000017N200218104700000000000103005180000000000000000000000000000000000000000100011834931770LEANDRO BARROS DA SILVA                 RUA ROMARIO SILVA N 40                  KENNEDY - NO26020640NOVA IGUACU    RJUNIAO UMB DOS CULTOS AFRO BRAS    30051810 000091
10231987175000168817800093673    000013851                    000138510000000000000109                     I0113851     30051800000000035003410000017N200218104700000000000103005180000000000000000000000000000000000000000100012003631755ALEXSANDRO CORREA                       RUA SEBASTIAO DE SOUZA GOUVEIA N 12 CASAIRAJA - RIO 21235410RIO DE JANEIRO RJUNIAO UMB DOS CULTOS AFRO BRAS    30051810 000092
10231987175000168817800093673    000013850                    000138500000000000000109                     I0113850     30051800000000035003410000017N200218104700000000000103005180000000000000000000000000000000000000000100069279500791CLAUDIA ALONSO RODRIGUES                ESTRADA DO PAU FERRO N 851              FREGUESIA - 22745055RIO DE JANEIRO RJUNIAO UMB DOS CULTOS AFRO BRAS    30051810 000093
10231987175000168817800093673    000013849                    000138490000000000000109                     I0113849     30051800000000035003410000017N200218104700000000000103005180000000000000000000000000000000000000000100087306689720JANAINA SANTA CRUZ COSTA                ALAMEDA SANTO ANTONIO N 974             SEPETIBA - R23535660RIO DE JANEIRO RJUNIAO UMB DOS CULTOS AFRO BRAS    30051810 000094
10231987175000168817800093673    000013848                    000138480000000000000109                     I0113848     30051800000000035003410000017N200218104700000000000103005180000000000000000000000000000000000000000100092915434700MARIA MANOLA GIL DE ALMEIDA             RUA MARQUES GUIMARAES N 19              IRAJA - RIO 21230820RIO DE JANEIRO RJUNIAO UMB DOS CULTOS AFRO BRAS    30051810 000095
10231987175000168817800093673    000013847                    000138470000000000000109                     I0113847     30051800000000035003410000017N200218104700000000000103005180000000000000000000000000000000000000000100060210389753ROZANA DOS SANTOS                       RUA MARANHAO N 1057 RUA B CASA 73       MEIER - RIO 23060720RIO DE JANEIRO RJUNIAO UMB DOS CULTOS AFRO BRAS    30051810 000096
10231987175000168817800093673    000013846                    000138460000000000000109                     I0113846     30051800000000035003410000017N200218104700000000000103005180000000000000000000000000000000000000000100088041883753JORGE COSTA BRAGA FILHO                 RUA MARQUES DE JACAREPAGUA N 707 BLOCO 2TAQUARA - RI22730290RIO DE JANEIRO RJUNIAO UMB DOS CULTOS AFRO BRAS    30051810 000097
10231987175000168817800093673    000013845                    000138450000000000000109                     I0113845     30051800000000035003410000017N200218104700000000000103005180000000000000000000000000000000000000000100016618405742MILTON CARLOS JUNIO QUINTANILH          RUA SEIS LOTES 13 E 14 QUADRA 8         PARADA MORAB25265000DUQUE DE CAXIASRJUNIAO UMB DOS CULTOS AFRO BRAS    30051810 000098
10231987175000168817800093673    000013844                    000138440000000000000109                     I0113844     30051800000000035003410000017N200218104700000000000103005180000000000000000000000000000000000000000100005234763706LUCIANA FERREIRA DE ALMEIDA             RUA QUATRO LOTE 1 QUADRA 258            PARADA MORAB25265220DUQUE DE CAXIASRJUNIAO UMB DOS CULTOS AFRO BRAS    30051810 000099
10231987175000168817800093673    000013843                    000138430000000000000109                     I0113843     30051800000000035003410000017N200218104700000000000103005180000000000000000000000000000000000000000100012009305760DEBORA CRISTINA DE OLIVEIRA BR          RUA ORLANDO CARLOS DA CONCEICAO N 10    COROA GRANDE23820800ITAGUAI        RJUNIAO UMB DOS CULTOS AFRO BRAS    30051810 000100
10231987175000168817800093673    000013842                    000138420000000000000109                     I0113842     30051800000000035003410000017N200218104700000000000103005180000000000000000000000000000000000000000100000759136742ADRIANA LAPORT ALVES                    RUA DONA CLARA DE ARAUJO N 681          ANDRADE ARAU26010390NOVA IGUACU    RJUNIAO UMB DOS CULTOS AFRO BRAS    30051810 000101
10231987175000168817800093673    000013841                    000138410000000000000109                     I0113841     30051800000000035003410000017N200218104700000000000103005180000000000000000000000000000000000000000100084301724753ANA LUCIA FERREIRA DA SILVA             RUA HUGO CESAR MONTEIRO DA SILVA N 42   CAICARA - NO26015000NOVA IGUACU    RJUNIAO UMB DOS CULTOS AFRO BRAS    30051810 000102
10231987175000168817800093673    000013840                    000138400000000000000109                     I0113840     30051800000000035003410000017N200218104700000000000103005180000000000000000000000000000000000000000100090618254749NELY MOREIRA GOMES                      RUA GOMES CARNEIRO SN LOTE 12 QUADRA 60 SARACURUNA -25211050DUQUE DE CAXIASRJUNIAO UMB DOS CULTOS AFRO BRAS    30051810 000103
10231987175000168817800093673    000013839                    000138390000000000000109                     I0113839     30051800000000035003410000017N200218104700000000000103005180000000000000000000000000000000000000000100076348547787EDIVANICE DE OLIVEIRA DA CRUZ           RUA J J COWSERT N 300 CASA 20           TOMAS COELHO21370450RIO DE JANEIRO RJUNIAO UMB DOS CULTOS AFRO BRAS    30051810 000104
10231987175000168817800093673    000013838                    000138380000000000000109                     I0113838     30051800000000035003410000017N200218104700000000000103005180000000000000000000000000000000000000000100065000366700DULCINEIA DA SILVA MENDONCA             RUA ALBERTINO LADEIRA N 63              MONTE CASTEL26041510NOVA IGUACU    RJUNIAO UMB DOS CULTOS AFRO BRAS    30051810 000105
10231987175000168817800093673    000013837                    000138370000000000000109                     I0113837     30051800000000035003410000017N200218104700000000000103005180000000000000000000000000000000000000000100000891933778MARIA DAS NEVES FERREIRA DO NA          RUA CAMINHO DA CHACARA N 519            PRACA SECA -22733060RIO DE JANEIRO RJUNIAO UMB DOS CULTOS AFRO BRAS    30051810 000106
10231987175000168817800093673    000013836                    000138360000000000000109                     I0113836     30051800000000035003410000017N200218104700000000000103005180000000000000000000000000000000000000000100012450258728MONIQUE RODRIGUES DE ALMEIDA            RUA CESAR N 277                         REALENGO - R21750400RIO DE JANEIRO RJUNIAO UMB DOS CULTOS AFRO BRAS    30051810 000107
10231987175000168817800093673    000013835                    000138350000000000000109                     I0113835     30051800000000035003410000017N200218104700000000000103005180000000000000000000000000000000000000000100008578432738WANDERSON DOS SANTOS LOPES              RUA SATURNO SN QUADRA 12 LOTE 16        VILA GENI - 23825517COROA GRANDE   RJUNIAO UMB DOS CULTOS AFRO BRAS    30051810 000108
10231987175000168817800093673    000013834                    000138340000000000000109                     I0113834     30051800000000035003410000017N200218104700000000000103005180000000000000000000000000000000000000000100000598812750ELIZABETE DOS SANTOS LUCIANO            RUA GOLGOTA LOTE 44 QUADRA 33           CHACARA RIO 25245060DUQUE DE CAXIASRJUNIAO UMB DOS CULTOS AFRO BRAS    30051810 000109
10231987175000168817800093673    000013833                    000138330000000000000109                     I0113833     30051800000000035003410000017N200218104700000000000103005180000000000000000000000000000000000000000100008401319765ANDRE FERREIRA DE PAULA                 RUA AMERICO ROCHA N 1095 APT 201        MARECHAL HER21555300RIO DE JANEIRO RJUNIAO UMB DOS CULTOS AFRO BRAS    30051810 000110
10231987175000168817800093673    000013832                    000138320000000000000109                     I0113832     30051800000000035003410000017N200218104700000000000103005180000000000000000000000000000000000000000100058365737787ALTAMIRA ROSA                           AVENIDA DO CONTORNO 17                  PARADA MORAB25000000DUQUE DE CAXIASRJUNIAO UMB DOS CULTOS AFRO BRAS    30051810 000111
10231987175000168817800093673    000013831                    000138310000000000000109                     I0113831     30051800000000035003410000017N200218104700000000000103005180000000000000000000000000000000000000000100074171372704ELIANE DE SOUZA MACHADO                 RUA ROQUETE PINTO LOTE 22 QUADRA 290 CASJARDIM ANHAN25265200DUQUE DE CAXIASRJUNIAO UMB DOS CULTOS AFRO BRAS    30051810 000112
10231987175000168817800093673    000013830                    000138300000000000000109                     I0113830     30051800000000035003410000017N200218104700000000000103005180000000000000000000000000000000000000000100053218833787MARLUCE SUELY DA SILVA                  RUA CHRISOSTOMO PIMENTEL DE OLIVEIRA, 63ANCHIETA - R21645521RIO DE JANEIRO RJUNIAO UMB DOS CULTOS AFRO BRAS    30051810 000113
10231987175000168817800093673    000013829                    000138290000000000000109                     I0113829     30051800000000035003410000017N200218104700000000000103005180000000000000000000000000000000000000000100010262557754EDGAR SODRE BANI                        RUA B N 20  LOTE 7 QUADRA 255           PARADA MORAB25265220DUQUE DE CAXIASRJUNIAO UMB DOS CULTOS AFRO BRAS    30051810 000114
10231987175000168817800093673    000013828                    000138280000000000000109                     I0113828     30051800000000035003410000017N200218104700000000000103005180000000000000000000000000000000000000000100006876928730DIONE ASSUNCAO SOARES                   RUA SILVIA VIEIRA SN  LOTE 24           FAZENDA SOSS26088475NOVA IGUACU    RJUNIAO UMB DOS CULTOS AFRO BRAS    30051810 000115
10231987175000168817800093673    000013827                    000138270000000000000109                     I0113827     30051800000000035003410000017N200218104700000000000103005180000000000000000000000000000000000000000100009616694707ROGERIO LUIZ SOARES                     RUA SANTA BARBARA N  20                 AREAL - ARAR28970000ARARUAMA       RJUNIAO UMB DOS CULTOS AFRO BRAS    30051810 000116
10231987175000168817800093673    000013826                    000138260000000000000109                     I0113826     30051800000000035003410000017N200218104700000000000103005180000000000000000000000000000000000000000100063268876749JORGE DA COSTA BARRETO                  AVENIDA JOAQUIM COSTA LIMA LOTE 27 QUADRCENTRO - BEL26112055BELFORD ROXO   RJUNIAO UMB DOS CULTOS AFRO BRAS    30051810 000117
10231987175000168817800093673    000013825                    000138250000000000000109                     I0113825     30051800000000035003410000017N200218104700000000000103005180000000000000000000000000000000000000000100003798443700ALINE MODINA TELLES                     RUA DETETIVE PARADA N 8                 VILA DA PENH21221060RIO DE JANEIRO RJUNIAO UMB DOS CULTOS AFRO BRAS    30051810 000118
10231987175000168817800093673    000013824                    000138240000000000000109                     I0113824     30051800000000035003410000017N200218104700000000000103005180000000000000000000000000000000000000000100079882749704IRIS BRASILINO VILELA                   RUA SETE DE SETEMBRO N 183              CAMARI - NOV26022202NOVA IGUACU    RJUNIAO UMB DOS CULTOS AFRO BRAS    30051810 000119
10231987175000168817800093673    000013823                    000138230000000000000109                     I0113823     30051800000000035003410000017N200218104700000000000103005180000000000000000000000000000000000000000100084441372787LUCIA HELENA DE OLIVEIRA GAMA           RUA PEDRO ANTONIO PEREIRA N 270 FUNDOS  AERO CLUBE -26285291NOVA IGUACU    RJUNIAO UMB DOS CULTOS AFRO BRAS    30051810 000120
10231987175000168817800093673    000013822                    000138220000000000000109                     I0113822     30051800000000035003410000017N200218104700000000000103005180000000000000000000000000000000000000000100082191638791RITA DE CASSIA VALVERDE ROCHA           RUA JOAQUIM SOARES NETO N 250           NOVA AMERICA26021560NOVA IGUACU    RJUNIAO UMB DOS CULTOS AFRO BRAS    30051810 000121
10231987175000168817800093673    000013821                    000138210000000000000109                     I0113821     30051800000000035003410000017N200218104700000000000103005180000000000000000000000000000000000000000100011590456742WANILA LIMA DE BRITO                    RUA REDENTOR LOTE 5 QUADRA 18 CASA 2 FUNJARDIM REDEN26110090BELFORD ROXO   RJUNIAO UMB DOS CULTOS AFRO BRAS    30051810 000122
10231987175000168817800093673    000013820                    000138200000000000000109                     I0113820     30051800000000035003410000017N200218104700000000000103005180000000000000000000000000000000000000000100069052735700ROSANE MARQUES FERREIRA (MONAG          ESTRADA DO TINGUI N 2315 CASA 24        CAMPO GRANDE23075006RIO DE JANEIRO RJUNIAO UMB DOS CULTOS AFRO BRAS    30051810 000123
10231987175000168817800093673    000013819                    000138190000000000000109                     I0113819     30051800000000035003410000017N200218104700000000000103005180000000000000000000000000000000000000000100004244337709WANDERSON SANTOS DA SILVA               AVENIDA DAS AMERICAS 15000              RECREIO DOS 22790330RIO DE JANEIRO RJUNIAO UMB DOS CULTOS AFRO BRAS    30051810 000124
10231987175000168817800093673    000013818                    000138180000000000000109                     I0113818     30051800000000035003410000017N200218104700000000000103005180000000000000000000000000000000000000000100014520518792STEPHANI MATOS MONTEIRO                 ESTRADA DOUTOR PLINIO CASADO N 3599     CENTRO - BEL26130622BELFORD ROXO   RJUNIAO UMB DOS CULTOS AFRO BRAS    30051810 000125
10231987175000168817800093673    000013817                    000138170000000000000109                     I0113817     30051800000000035003410000017N200218104700000000000103005180000000000000000000000000000000000000000100012727461780SUELMIR LIMA DE ARAUJO                  RUA NOSSA SENHORA DAS GRACAS N 98       PRAIA DO ANI25925708MAGE           RJUNIAO UMB DOS CULTOS AFRO BRAS    30051810 000126
10231987175000168817800093673    000013816                    000138160000000000000109                     I0113816     30051800000000035003410000017N200218104700000000000103005180000000000000000000000000000000000000000100009653128795FERNANDO RIBEIRO DE SOUZA               RUA JOAO PEDRO TESCH N 332 D            ALTO DA SERR25635500PETROPOLIS     RJUNIAO UMB DOS CULTOS AFRO BRAS    30051810 000127
10231987175000168817800093673    000013815                    000138150000000000000109                     I0113815     30051800000000035003410000017N200218104700000000000103005180000000000000000000000000000000000000000100002142304737ILAIR FERNANDES BRAZILEIRO BOR          RUA VERISSIMO MACHADO N 395 FUNDOS      ROCHA MIRAND21545060RIO DE JANEIRO RJUNIAO UMB DOS CULTOS AFRO BRAS    30051810 000128
10231987175000168817800093673    000013814                    000138140000000000000109                     I0113814     30051800000000035003410000017N200218104700000000000103005180000000000000000000000000000000000000000100001346375771CRISTIANE MARIANO RAPELLO               ESTRADA ALBERTO TEIXEIRA CUNHA N 1410 CANILOPOLIS - 26520070NILOPOLIS      RJUNIAO UMB DOS CULTOS AFRO BRAS    30051810 000129
10231987175000168817800093673    000013813                    000138130000000000000109                     I0113813     30051800000000035003410000017N200218104700000000000103005180000000000000000000000000000000000000000100011351878786GLEISSON BITTENCOURT DA SILVA           RUA FLORA DE ARAUJO N 310               PRATA - NOVA26010570NOVA IGUACU    RJUNIAO UMB DOS CULTOS AFRO BRAS    30051810 000130
10231987175000168817800093673    000013812                    000138120000000000000109                     I0113812     30051800000000035003410000017N200218104700000000000103005180000000000000000000000000000000000000000100000839586736MAURO CESAR BRANCO OBERLAENDER          RUA IGUARIM N 104 - REALENGO            REALENGO - R21765540RIO DE JANEIRO RJUNIAO UMB DOS CULTOS AFRO BRAS    30051810 000131
10231987175000168817800093673    000013811                    000138110000000000000109                     I0113811     30051800000000035003410000017N200218104700000000000103005180000000000000000000000000000000000000000100005225598757JOSUE DA SILVA SANTOS                   RUA BARAO DO AMAPA S/N LOTE 1 QUADRA 40 AMAPA - DUQU21211007DUQUE DE CAXIASRJUNIAO UMB DOS CULTOS AFRO BRAS    30051810 000132
10231987175000168817800093673    000013810                    000138100000000000000109                     I0113810     30051800000000035003410000017N200218104700000000000103005180000000000000000000000000000000000000000100011766861784MARIA WANDERLEIA MARTINS CRUZ           RUA BRUNO LECINI N 375                  AUSTIN - NOV26279255NOVA IGUACU    RJUNIAO UMB DOS CULTOS AFRO BRAS    30051810 000133
10231987175000168817800093673    000013809                    000138090000000000000109                     I0113809     30051800000000035003410000017N200218104700000000000103005180000000000000000000000000000000000000000100070645523704RICARDO DE SOUZA LIMA                   RUA MAJOR AZEVEDO 344                   IRAJA       21230060RIO DE JANEIRO RJUNIAO UMB DOS CULTOS AFRO BRAS    30051810 000134
10231987175000168817800093673    000013808                    000138080000000000000109                     I0113808     30051800000000035003410000017N200218104700000000000103005180000000000000000000000000000000000000000100015110892709YASMIN FIALHO HANGES                    ESTRADA HENRIQUE DE MELO N 193 FUNDOS   BENTO RIBEIR21340190RIO DE JANEIRO RJUNIAO UMB DOS CULTOS AFRO BRAS    30051810 000135
10231987175000168817800093673    000013807                    000138070000000000000109                     I0113807     30051800000000035003410000017N200218104700000000000103005180000000000000000000000000000000000000000100009503848792JORGE ALEXANDRE TEIXEIRA BRAZ           RUA CAJUIPE N 163 CASA 1                BONSUCESSO -21060490RIO DE JANEIRO RJUNIAO UMB DOS CULTOS AFRO BRAS    30051810 000136
10231987175000168817800093673    000013806                    000138060000000000000109                     I0113806     30051800000000035003410000017N200218104700000000000103005180000000000000000000000000000000000000000100030894840720LIGIA REGINA ZACHARIAS DE MELO          RUA LAGO VERDE N 19 APT 302             INHAUMA - RI21051360RIO DE JANEIRO RJUNIAO UMB DOS CULTOS AFRO BRAS    30051810 000137
10231987175000168817800093673    000013805                    000138050000000000000109                     I0113805     30051800000000035003410000017N200218104700000000000103005180000000000000000000000000000000000000000100007443282761WASHINGTON LUIZ DA SILVA RAMOS          RUA DEZESSETE N 78 - CONJUNTO LIBERDADE SANTA CRUZ -23560600RIO DE JANEIRO RJUNIAO UMB DOS CULTOS AFRO BRAS    30051810 000138
10231987175000168817800093673    000013804                    000138040000000000000109                     I0113804     30051800000000035003410000017N200218104700000000000103005180000000000000000000000000000000000000000100007964006797JOSILENE MONTEIRO HERMOGENES            RUA PADRE MARINHO N 309                 SARACURUNA -25212450DUQUE DE CAXIASRJUNIAO UMB DOS CULTOS AFRO BRAS    30051810 000139
10231987175000168817800093673    000013803                    000138030000000000000109                     I0113803     30051800000000035003410000017N200218104700000000000103005180000000000000000000000000000000000000000100010544644701RENATA DE OLIVEIRA SILVA                RUA NOSSA SENHORA DE NAZARE N 23 A      GERENCIANO -26061700NOVA IGUACU    RJUNIAO UMB DOS CULTOS AFRO BRAS    30051810 000140
10231987175000168817800093673    000013802                    000138020000000000000109                     I0113802     30051800000000035003410000017N200218104700000000000103005180000000000000000000000000000000000000000100068373570772RONILCE CAMILO DA SILVA                 RUA RUBY ALBERTORIA N 2 - GERENCIANO    GERENCIANO -26061155NVOA IGUACU    RJUNIAO UMB DOS CULTOS AFRO BRAS    30051810 000141
10231987175000168817800093673    000013801                    000138010000000000000109                     I0113801     30051800000000035003410000017N200218104700000000000103005180000000000000000000000000000000000000000100047442140700MARFIZA FERREIRA DA SILVA VENA          RUA EURICO COELHO N 50                  GRAMA - NOVA26060650NOVA IGUACU    RJUNIAO UMB DOS CULTOS AFRO BRAS    30051810 000142
10231987175000168817800093673    000013800                    000138000000000000000109                     I0113800     30051800000000035003410000017N200218104700000000000103005180000000000000000000000000000000000000000200000000012882JOSE ANTONIO DA SILVA JUNIOR            RUA HILDEBRANDO DE ARAUJO GOES N 271    PIABETA - MA25936880MAGE           RJUNIAO UMB DOS CULTOS AFRO BRAS    30051810 000143
10231987175000168817800093673    000013799                    000137990000000000000109                     I0113799     30051800000000035003410000017N200218104700000000000103005180000000000000000000000000000000000000000100009956479764TATIANE VASCONCELOS DA SILVA            RUA SANTA MARGARIDA N 337               PIABETA - MA25900000MAGE           RJUNIAO UMB DOS CULTOS AFRO BRAS    30051810 000144
10231987175000168817800093673    000013798                    000137980000000000000109                     I0113798     30051800000000035003410000017N200218104700000000000103005180000000000000000000000000000000000000000100093788150734REGINA DA SILVA VERONEZI DOS S          RUA ABATE 105                           JARDIM CANAA26263040NOVA IGUACU    RJUNIAO UMB DOS CULTOS AFRO BRAS    30051810 000145
10231987175000168817800093673    000013797                    000137970000000000000109                     I0113797     30051800000000035003410000017N200218104700000000000103005180000000000000000000000000000000000000000100008834107705JOSELI TIADULINO                        RUA MARIA TEREZA N 134                  JARDIM CANAA26263230NOVA IGUACU    RJUNIAO UMB DOS CULTOS AFRO BRAS    30051810 000146
10231987175000168817800093673    000013796                    000137960000000000000109                     I0113796     30051800000000035003410000017N200218104700000000000103005180000000000000000000000000000000000000000100092645933734ROSINEA PRECIOSO DE OLIVEIRA            RUA PROFESSORA MARLY CARVALHO PEREIRA N MIGUEL COUTO26070452NOVA IGUACU    RJUNIAO UMB DOS CULTOS AFRO BRAS    30051810 000147
10231987175000168817800093673    000013795                    000137950000000000000109                     I0113795     30051800000000035003410000017N200218104700000000000103005180000000000000000000000000000000000000000100002375024702FATIMA APARECIDA OLIVEIRA DE C          RUA OURO PRETO QD 46 LT 21              COQUEIRAL  A20740280RIO DE JANEIRO RJUNIAO UMB DOS CULTOS AFRO BRAS    30051810 000148
10231987175000168817800093673    000013794                    000137940000000000000109                     I0113794     30051800000000035003410000017N200218104700000000000103005180000000000000000000000000000000000000000100001317692780SELENE FREIRE DE ARAUJO CANNAN          RUA DA CONQUISTA N 442                  JARDIM ESPLA26013330NOVA IGUACU    RJUNIAO UMB DOS CULTOS AFRO BRAS    30051810 000149
10231987175000168817800093673    000013793                    000137930000000000000109                     I0113793     30051800000000035003410000017N200218104700000000000103005180000000000000000000000000000000000000000100080578063700SANDRA REGINA NEVES CHAGAS              RUA MARIA LOURENCO N 12 CASA 2          JARDIM PRIMA25215367DUQUE DE CAXIASRJUNIAO UMB DOS CULTOS AFRO BRAS    30051810 000150
10231987175000168817800093673    000013792                    000137920000000000000109                     I0113792     30051800000000035003410000017N200218104700000000000103005180000000000000000000000000000000000000000100068374208791ROSANA LISBOA DE OLIVEIRA               RUA TEOFILO DIAS LOTE 7 QUADRA 47       PILAR - DUQU25233239DUQUE DE CAXIASRJUNIAO UMB DOS CULTOS AFRO BRAS    30051810 000151
10231987175000168817800093673    000013791                    000137910000000000000109                     I0113791     30051800000000035003410000017N200218104700000000000103005180000000000000000000000000000000000000000100014760475702DEBORAH ROSA                            RUA MARIA LOURENCO GONCALVES N 18 CASA 2JARDIM PRIMA25215367DUQUE DE CAXIASRJUNIAO UMB DOS CULTOS AFRO BRAS    30051810 000152
10231987175000168817800093673    000013790                    000137900000000000000109                     I0113790     30051800000000035003410000017N200218104700000000000103005180000000000000000000000000000000000000000100054336481768PENHA JACIARA DA SILVA                  RUA DEZESSETE N 102 (CONJUNTO LIBERDADE)SANTA CRUZ -23560600RIO DE JANEIRO RJUNIAO UMB DOS CULTOS AFRO BRAS    30051810 000153
10231987175000168817800093673    000013789                    000137890000000000000109                     I0113789     30051800000000035003410000017N200218104700000000000103005180000000000000000000000000000000000000000100004419977752GISELE DE CASTILHO SOARES               RUA ARTHUR MAGALHAES N 64               COMENDADOR S26276605NOVA IGUACU    RJUNIAO UMB DOS CULTOS AFRO BRAS    30051810 000154
10231987175000168817800093673    000013788                    000137880000000000000109                     I0113788     30051800000000035003410000017N200218104700000000000103005180000000000000000000000000000000000000000100055480730797TEREZINHA DE JESUS FERRAZ DOS           RUA TUPINAMBA N 305 - OURO VERDE        OURO VERDE -26262490NOVA IGUACU    RJUNIAO UMB DOS CULTOS AFRO BRAS    30051810 000155
10231987175000168817800093673    000013787                    000137870000000000000109                     I0113787     30051800000000035003410000017N200218104700000000000103005180000000000000000000000000000000000000000100056381832720DAVI LEMOS MOREIRA                      RUA CARLINDA                            VILA DE CAVA26052120NOVA IGUACU    RJUNIAO UMB DOS CULTOS AFRO BRAS    30051810 000156
10231987175000168817800093673    000013786                    000137860000000000000109                     I0113786     30051800000000035003410000017N200218104700000000000103005180000000000000000000000000000000000000000100000889136785EDENILSON DE SOUZA SILVA                RUA GUARACIABA N 210 FUNDOS             CAMPO GRANDE23070420RIO DE JANEIRO RJUNIAO UMB DOS CULTOS AFRO BRAS    30051810 000157
10231987175000168817800093673    000013785                    000137850000000000000109                     I0113785     30051800000000035003410000017N200218104700000000000103005180000000000000000000000000000000000000000100025814712149JAIR FERREIRA FILHO                     RUA ENGENHEIRO PINHO DE MAGALHAES N 70  VILA DA PENH21220410RIO DE JANEIRO RJUNIAO UMB DOS CULTOS AFRO BRAS    30051810 000158
10231987175000168817800093673    000013784                    000137840000000000000109                     I0113784     30051800000000035003410000017N200218104700000000000103005180000000000000000000000000000000000000000100006928635754ADEILSON DA SILVA RIBEIRO               AVENIDA NOSSA SENHORA DE NAZARETH N 3222BOQUEIRAO - 28990000SAQUAREMA      RJUNIAO UMB DOS CULTOS AFRO BRAS    30051810 000159
10231987175000168817800093673    000013783                    000137830000000000000109                     I0113783     30051800000000035003410000017N200218104700000000000103005180000000000000000000000000000000000000000100000915013770ROSANGELA DAS NEVES RESENDE DO          RUA GOIANESIA LOTE 23 QUADRA 101        MARAMBAIA - 24859300ITABORAI       RJUNIAO UMB DOS CULTOS AFRO BRAS    30051810 000160
10231987175000168817800093673    000013782                    000137820000000000000109                     I0113782     30051800000000035003410000017N200218104700000000000103005180000000000000000000000000000000000000000100005411763746MONICA CRUZ DE OLIVEIRA                 AVENIDA JOAO XXIII - RUA QUATORZE QUADRASANTA CRUZ -23565110RIO DE JANEIRO RJUNIAO UMB DOS CULTOS AFRO BRAS    30051810 000161
10231987175000168817800093673    000013781                    000137810000000000000109                     I0113781     30051800000000035003410000017N200218104700000000000103005180000000000000000000000000000000000000000200000000012851JEANE APARECIDA NUNES BITENCOU          RUA MANOEL MENDONCA N 17                DEODORO - RI21616320RIO DE JANEIRO RJUNIAO UMB DOS CULTOS AFRO BRAS    30051810 000162
10231987175000168817800093673    000013780                    000137800000000000000109                     I0113780     30051800000000035003410000017N200218104700000000000103005180000000000000000000000000000000000000000100008246810707LEILA DA SILVA MARQUES                  RUA REDENTOR LOTE 19 QUADRA 18          JARDIM REDEN26110090BELFORD ROXO   RJUNIAO UMB DOS CULTOS AFRO BRAS    30051810 000163
10231987175000168817800093673    000013779                    000137790000000000000109                     I0113779     30051800000000035003410000017N200218104700000000000103005180000000000000000000000000000000000000000100010276278704ROSELI DE OLIVEIRA DUTRA                RUA UM LOTE 7 QUADRA 8                  TAQUARA - DU25275110DUQUE DE CAXIASRJUNIAO UMB DOS CULTOS AFRO BRAS    30051810 000164
10231987175000168817800093673    000013778                    000137780000000000000109                     I0113778     30051800000000035003410000017N200218104700000000000103005180000000000000000000000000000000000000000100005633721735MARCOS AURELIO PAULINO FLORIAN          RUA LEONEL ROCHA N 195 CASA LOTE H      GUARATIBA - 23032460RIO DE JANEIRO RJUNIAO UMB DOS CULTOS AFRO BRAS    30051810 000165
10231987175000168817800093673    000013777                    000137770000000000000109                     I0113777     30051800000000035003410000017N200218104700000000000103005180000000000000000000000000000000000000000200000000012848VIVIANE MORAES ALEXANDRINO              ESTRADA DE JACAREPAGUA N 7473 BLOCO 4 APFREGUESIA - 22753045RIO DE JANEIRO RJUNIAO UMB DOS CULTOS AFRO BRAS    30051810 000166
10231987175000168817800093673    000013776                    000137760000000000000109                     I0113776     30051800000000035003410000017N200218104700000000000103005180000000000000000000000000000000000000000100004277956726ROSANA OLIVEIRA GUEDES                  RUA GRACA MELLO N 640 APT 101 BLOCO 30 -CAVALCANTI -21381300RIO DE JANEIRO RJUNIAO UMB DOS CULTOS AFRO BRAS    30051810 000167
10231987175000168817800093673    000013775                    000137750000000000000109                     I0113775     30051800000000035003410000017N200218104700000000000103005180000000000000000000000000000000000000000100001972684710ALEXANDRE MALAQUIAS DE SOUSA P          AVENIDA NELSON DE AQUINO N 246 - COROA GCOROA GRANDE23825670ITAGUAI        RJUNIAO UMB DOS CULTOS AFRO BRAS    30051810 000168
10231987175000168817800093673    000013774                    000137740000000000000109                     I0113774     30051800000000035003410000017N200218104700000000000103005180000000000000000000000000000000000000000100014641727732DAVI SILVA BARBOSA LIMA                 TRAVESSA ANTONIO AARAO N 9              SEPETIBA - R23540030RIO DE JANEIRO RJUNIAO UMB DOS CULTOS AFRO BRAS    30051810 000169
10231987175000168817800093673    000013773                    000137730000000000000109                     I0113773     30051800000000035003410000017N200218104700000000000103005180000000000000000000000000000000000000000100004554269701PATRICIA CABRAL BOTELHO                 RUA QUINTAO N 995 - PIEDADE             PIEDADE - RI21381050RIO DE JANEIRO RJUNIAO UMB DOS CULTOS AFRO BRAS    30051810 000170
10231987175000168817800093673    000013772                    000137720000000000000109                     I0113772     30051800000000035003410000017N200218104700000000000103005180000000000000000000000000000000000000000100000129467707SANDRA CRISTINA DOS SANTOS TIT          RUA DAVI SN BLOCO 3 APT 303             CIDADE DE DE22777243JACAREPAGUA    RJUNIAO UMB DOS CULTOS AFRO BRAS    30051810 000171
10231987175000168817800093673    000013771                    000137710000000000000109                     I0113771     30051800000000035003410000017N200218104700000000000103005180000000000000000000000000000000000000000100008781471793LURDEUDALIA ARAUJO                      RUA MARIA LOROSA - VITORIA REGIS CASA 8 SANTA CRUZ -23525040RIO DE JANEIRO RJUNIAO UMB DOS CULTOS AFRO BRAS    30051810 000172
10231987175000168817800093673    000013770                    000137700000000000000109                     I0113770     30051800000000035003410000017N200218104700000000000103005180000000000000000000000000000000000000000100060237090791ELIZABETH TELLES DA SILVA               ESTRADA OUTEIRO SANTO  900 LOTE 1 QUADRATAQUARA  RJ 22713164RIO DE JANEIRO RJUNIAO UMB DOS CULTOS AFRO BRAS    30051810 000173
10231987175000168817800093673    000013769                    000137690000000000000109                     I0113769     30051800000000035003410000017N200218104700000000000103005180000000000000000000000000000000000000000100005646881773DEBORA LINS                             RUA LACONIA N 89 CASA 3                 JARDIM AMAPA26182230BELFORD ROXO   RJUNIAO UMB DOS CULTOS AFRO BRAS    30051810 000174
10231987175000168817800093673    000013768                    000137680000000000000109                     I0113768     30051800000000035003410000017N200218104700000000000103005180000000000000000000000000000000000000000100000076412733VALERIA RIBEIRO TEIXEIRA                RUA JIPIOCA N 135 CASA 1                CASCADURA - 21311250RIO DE JANEIRO RJUNIAO UMB DOS CULTOS AFRO BRAS    30051810 000175
10231987175000168817800093673    000013767                    000137670000000000000109                     I0113767     30051800000000035003410000017N200218104700000000000103005180000000000000000000000000000000000000000100059110465715ZEILTON VIEIRA NUNES                    RUA JORNALISTA PAULO FRANCIS N 29 CASA 4RIO DAS OSTR28890000RIO DE JANEIRO RJUNIAO UMB DOS CULTOS AFRO BRAS    30051810 000176
10231987175000168817800093673    000013766                    000137660000000000000109                     I0113766     30051800000000035003410000017N200218104700000000000103005180000000000000000000000000000000000000000100038835568749MARIA DE ALCANTARA GOULART SIL          RUA GAMBIA N 41                         JACAREPAGUA 22775400RIO DE JANEIRO RJUNIAO UMB DOS CULTOS AFRO BRAS    30051810 000177
10231987175000168817800093673    000013765                    000137650000000000000109                     I0113765     30051800000000035003410000017N200218104700000000000103005180000000000000000000000000000000000000000100014994285705JEFFERSON DOS SANTOS DA SILVA           ESTRADA DO PAU DA FOME N 50             TAQUARA - JA22723497RIO DE JANEIRO RJUNIAO UMB DOS CULTOS AFRO BRAS    30051810 000178
10231987175000168817800093673    000013764                    000137640000000000000109                     I0113764     30051800000000035003410000017N200218104700000000000103005180000000000000000000000000000000000000000100035138963791AMILTON PIO                             RUA JOSE DE MELO N 77                   SEPETIBA - R23545165RIO DE JANEIRO RJUNIAO UMB DOS CULTOS AFRO BRAS    30051810 000179
10231987175000168817800093673    000013763                    000137630000000000000109                     I0113763     30051800000000035003410000017N200218104700000000000103005180000000000000000000000000000000000000000100011998959708ARTUR TAVARES DA SILVA NETO             RUA PREFEITO JOAO CARLOS VITAL N 17     CROACIA - SE23540080SEPETIBA       RJUNIAO UMB DOS CULTOS AFRO BRAS    30051810 000180
10231987175000168817800093673    000013762                    000137620000000000000109                     I0113762     30051800000000035003410000017N200218104700000000000103005180000000000000000000000000000000000000000100008502438743ALINE RAMOS DE SOUZA DA SILVA           RUA DOUTOR ISMAEL CAVALCANTI N 240      SEPETIBA - R23545145RIO DE JANEIRO RJUNIAO UMB DOS CULTOS AFRO BRAS    30051810 000181
10231987175000168817800093673    000013761                    000137610000000000000109                     I0113761     30051800000000035003410000017N200218104700000000000103005180000000000000000000000000000000000000000100007103755736ALESSANDRA COSTA DE BARROS              PRACA OSCAR ROSSIM N 84                 SEPETIBA - R23540250RIO DE JANEIRO RJUNIAO UMB DOS CULTOS AFRO BRAS    30051810 000182
10231987175000168817800093673    000013760                    000137600000000000000109                     I0113760     30051800000000035003410000017N200218104700000000000103005180000000000000000000000000000000000000000100002134084731MARINALVA LINDOLFO DA SILVA             AVENIDA GOMES FREIRE N 136              VILA SANTO A25040310DUQUE DE CAXIASRJUNIAO UMB DOS CULTOS AFRO BRAS    30051810 000183
10231987175000168817800093673    000013759                    000137590000000000000109                     I0113759     30051800000000035003410000017N200218104700000000000103005180000000000000000000000000000000000000000100009946366797SIMONE SOARES NEA                       RUA FLAVIO RANGEL SN QUADRA B LOTE 7    CAMPO GRANDE23085430RIO DE JANEIRO RJUNIAO UMB DOS CULTOS AFRO BRAS    30051810 000184
10231987175000168817800093673    000013758                    000137580000000000000109                     I0113758     30051800000000035003410000017N200218104700000000000103005180000000000000000000000000000000000000000100030422175749LENI MENDUIÑA DA SILVA GUERRA          RUA NETUNO N 459 FUNDOS                 PAVUNA - RIO21525690RIO DE JANEIRO RJUNIAO UMB DOS CULTOS AFRO BRAS    30051810 000185
10231987175000168817800093673    000013757                    000137570000000000000109                     I0113757     30051800000000035003410000017N200218104700000000000103005180000000000000000000000000000000000000000100001301453781CARLINDA AZEREDO MATOS                  RUA DOUTOR FERNANDO BRIGADAO N 17       RIACHAO - NO26279180NOVA IGUACU    RJUNIAO UMB DOS CULTOS AFRO BRAS    30051810 000186
10231987175000168817800093673    000013756                    000137560000000000000109                     I0113756     30051800000000035003410000017N200218104700000000000103005180000000000000000000000000000000000000000100014604780706GILMAR GONCALVES FERREIRA               RUA DOIS BLOCO 2 CASA 27                ROCINHA - RI22451400RIO DE JANEIRO RJUNIAO UMB DOS CULTOS AFRO BRAS    30051810 000187
10231987175000168817800093673    000013755                    000137550000000000000109                     I0113755     30051800000000035003410000017N200218104700000000000103005180000000000000000000000000000000000000000100064175499768TEREZA CRISTINA PIRES SILVA RO          RUA GOIAS LOTE 3 QUADRA 4               PLANALTO DO 24859300ITABORAI       RJUNIAO UMB DOS CULTOS AFRO BRAS    30051810 000188
10231987175000168817800093673    000013754                    000137540000000000000109                     I0113754     30051800000000035003410000017N200218104700000000000103005180000000000000000000000000000000000000000100065929039704JUPIACU SALLES                          RUA ANDRE ROCHA QUADRA 83 LOTES 16 E 17 CURICICA - R22570000RIO DE JANEIRO RJUNIAO UMB DOS CULTOS AFRO BRAS    30051810 000189
10231987175000168817800093673    000013753                    000137530000000000000109                     I0113753     30051800000000035003410000017N200218104700000000000103005180000000000000000000000000000000000000000100002171972726RAQUEL DE SOUZA MENESES                 RUA ROMENRO ZENDER N 271 ENTRADA APT 104RAMOS - RIO 21040080RIO DE JANEIRO RJUNIAO UMB DOS CULTOS AFRO BRAS    30051810 000190
10231987175000168817800093673    000013752                    000137520000000000000109                     I0113752     30051800000000035003410000017N200218104700000000000103005180000000000000000000000000000000000000000100015834777724JOAO PAULO SALGUEIRO DA SILVA           RUA MANOEL DO NASCIMENTO N 134          IRAJA  - RIO21361510RIO DE JANEIRO RJUNIAO UMB DOS CULTOS AFRO BRAS    30051810 000191
10231987175000168817800093673    000013751                    000137510000000000000109                     I0113751     30051800000000035003410000017N200218104700000000000103005180000000000000000000000000000000000000000100066003110782MARIA CLAUDIA DE LIMA FOLY              RUA JOAQUIM SOARES NETO N 467           NOVA AMERICA26021560NOVA IGUACU    RJUNIAO UMB DOS CULTOS AFRO BRAS    30051810 000192
10231987175000168817800093673    000013750                    000137500000000000000109                     I0113750     30051800000000035003410000017N200218104700000000000103005180000000000000000000000000000000000000000100089044380710DENISE SAMPAIO DE MOURA MACIEL          RUA XAXA N 10 - RIO DAS PEDRAS          JACAREPAGUA 22753057RIO DE JANEIRO RJUNIAO UMB DOS CULTOS AFRO BRAS    30051810 000193
10231987175000168817800093673    000013749                    000137490000000000000109                     I0113749     30051800000000035003410000017N200218104700000000000103005180000000000000000000000000000000000000000100025875159715SUELI DE OLIVEIRA DIAS                  AVENIDA DAS ALAGOAS N 1.200 - GARDENIA AJACAREPAGUA 22765451RIO DE JANEIRO RJUNIAO UMB DOS CULTOS AFRO BRAS    30051810 000194
10231987175000168817800093673    000013748                    000137480000000000000109                     I0113748     30051800000000035003410000017N200218104700000000000103005180000000000000000000000000000000000000000100002638717703EDINO GOMES DE BARROS JUNIOR            RUA PARANA N 10                         MORRO DO ORI24400000SAO GONCALO    RJUNIAO UMB DOS CULTOS AFRO BRAS    30051810 000195
10231987175000168817800093673    000013747                    000137470000000000000109                     I0113747     30051800000000035003410000017N200218104700000000000103005180000000000000000000000000000000000000000100000920173713JORGE DOS SANTOS LUCAS                  RUA PP, LOTE 5 QUADRA 48                JARDIM ANHAN25264360DUQUE DE CAXIASRJUNIAO UMB DOS CULTOS AFRO BRAS    30051810 000196
10231987175000168817800093673    000013746                    000137460000000000000109                     I0113746     30051800000000035003410000017N200218104700000000000103005180000000000000000000000000000000000000000100000497155770CINTIA MARTIN                           RUA POCONE N 371                        ENCANTADO - 20745090RIO DE JANEIRO RJUNIAO UMB DOS CULTOS AFRO BRAS    30051810 000197
10231987175000168817800093673    000013745                    000137450000000000000109                     I0113745     30051800000000035003410000017N200218104700000000000103005180000000000000000000000000000000000000000100043377483772FERNANDO HOLMES BURCHTEIN               RUA ALBANO N 902                        MAUA - MAGE 25926492MAGE           RJUNIAO UMB DOS CULTOS AFRO BRAS    30051810 000198
10231987175000168817800093673    000013744                    000137440000000000000109                     I0113744     30051800000000035003410000017N200218104700000000000103005180000000000000000000000000000000000000000100009483806755MARCO ANTONIO ATAIDE DE MELO            TRAVESSA MARAPE N 3 FUNDOS              COSTA BARROS21515240RIO DE JANEIRO RJUNIAO UMB DOS CULTOS AFRO BRAS    30051810 000199
10231987175000168817800093673    000013743                    000137430000000000000109                     I0113743     30051800000000035003410000017N200218104700000000000103005180000000000000000000000000000000000000000100013791358774TEREZINHA MENDONCA CORDEIRO             RUA SUEZ N 171                          JARDIM GUAND26298180NOVA IGUACU    RJUNIAO UMB DOS CULTOS AFRO BRAS    30051810 000200
10231987175000168817800093673    000013742                    000137420000000000000109                     I0113742     30051800000000035003410000017N200218104700000000000103005180000000000000000000000000000000000000000100095341048768MARILENE CANDIDA                        RUA NOSSA SENHORA DA GUIA N 162         VILA NOVA DO26062192NOVA IGUACU    RJUNIAO UMB DOS CULTOS AFRO BRAS    30051810 000201
10231987175000168817800093673    000013741                    000137410000000000000109                     I0113741     30051800000000035003410000017N200218104700000000000103005180000000000000000000000000000000000000000100001797738748PAULO CESAR LONATO SANTOS               ESTRADA GUANDU DO SAPE N 1450 BLOCO 18 ACENTRO - CAM22095072CAMPO GRANDE   RJUNIAO UMB DOS CULTOS AFRO BRAS    30051810 000202
10231987175000168817800093673    000013740                    000137400000000000000109                     I0113740     30051800000000035003410000017N200218104700000000000103005180000000000000000000000000000000000000000100014492149759FILIPE FONSECA MARIANO                  RUA DONA JULIA N 16 FUNDOS              SEPETIBA - R23545570RIO DE JANEIRO RJUNIAO UMB DOS CULTOS AFRO BRAS    30051810 000203
10231987175000168817800093673    000013739                    000137390000000000000109                     I0113739     30051800000000035003410000017N200218104700000000000103005180000000000000000000000000000000000000000100007214737760LEANDRO FRAGA DE OLIVEIRA               RUA VAZ LOBO N 522 - VAZ LOBO           VAZ LOBO - R21361030RIO DE JANEIRO RJUNIAO UMB DOS CULTOS AFRO BRAS    30051810 000204
10231987175000168817800093673    000013738                    000137380000000000000109                     I0113738     30051800000000035003410000017N200218104700000000000103005180000000000000000000000000000000000000000200000000012795ALESSANDRA REIS DOS SANTOS              RUA: MARIA TOMAZIA Nº 125 - FUNDOS     CABARAL - NI21321660RIO DE JANEIRO RJUNIAO UMB DOS CULTOS AFRO BRAS    30051810 000205
10231987175000168817800093673    000013737                    000137370000000000000109                     I0113737     30051800000000035003410000017N200218104700000000000103005180000000000000000000000000000000000000000100058101543791JANETE BARBOSA FERREIRA                 O MESMO                                 O MESMO     26127380BELFORD ROXO   RJUNIAO UMB DOS CULTOS AFRO BRAS    30051810 000206
10231987175000168817800093673    000013736                    000137360000000000000109                     I0113736     30051800000000035003410000017N200218104700000000000103005180000000000000000000000000000000000000000100007545291778ANDRE LUIZ DA SILVA                     RUA VASCO DA GAMA N 677                 PARQUE ESTOR26063190NOVA IGUACU    RJUNIAO UMB DOS CULTOS AFRO BRAS    30051810 000207
10231987175000168817800093673    000013735                    000137350000000000000109                     I0113735     30051800000000035003410000017N200218104700000000000103005180000000000000000000000000000000000000000100003025076712MARIA QUITERIA DOS SANTOS PITA          RUA MISSIONARIO CHRISTIE N 43 B         QUISSAMA - P25615250PETROPOLIS     RJUNIAO UMB DOS CULTOS AFRO BRAS    30051810 000208
10231987175000168817800093673    000013734                    000137340000000000000109                     I0113734     30051800000000035003410000017N200218104700000000000103005180000000000000000000000000000000000000000100062988050791REGINA LUCIA DE SOUZA SANTOS T          RUA ENGENHEIRO LAFAYETE STOCKLER N 742  VILA DA PENH21221390RIO DE JANEIRO RJUNIAO UMB DOS CULTOS AFRO BRAS    30051810 000209
10231987175000168817800093673    000013733                    000137330000000000000109                     I0113733     30051800000000035003410000017N200218104700000000000103005180000000000000000000000000000000000000000100003550624700ELAINE DE BARROS CARVALHO DE O          RUA DOUTOR ANTONIO MARTINS N 42 CASA 2 ATAQUARA - JA22723650RIO DE JANEIRO RJUNIAO UMB DOS CULTOS AFRO BRAS    30051810 000210
10231987175000168817800093673    000013732                    000137320000000000000109                     I0113732     30051800000000035003410000017N200218104700000000000103005180000000000000000000000000000000000000000100005649589720RAPHAEL AGUIAR DA SILVA                 ESTRADA DO BONGARVILLE, 869 CASA 42     ANIL - JACAR22753210RIO DE JANEIRO RJUNIAO UMB DOS CULTOS AFRO BRAS    30051810 000211
10231987175000168817800093673    000013731                    000137310000000000000109                     I0113731     30051800000000035003410000017N200218104700000000000103005180000000000000000000000000000000000000000100001857739744JORGE DE MORAES ESTANISLAU              RUA TITANIC N 7 CASA 1 FUNDOS           REALENGO - R21735620RIO DE JANEIRO RJUNIAO UMB DOS CULTOS AFRO BRAS    30051810 000212
10231987175000168817800093673    000013730                    000137300000000000000109                     I0113730     30051800000000035003410000017N200218104700000000000103005180000000000000000000000000000000000000000100011130957764MARCUS ULYSSES DE FIGUEIREDO P          RUA SAO JORGE N 764                     CAMPO ALEGRE26292228NOVA IGUACU    RJUNIAO UMB DOS CULTOS AFRO BRAS    30051810 000213
10231987175000168817800093673    000013729                    000137290000000000000109                     I0113729     30051800000000035003410000017N200218104700000000000103005180000000000000000000000000000000000000000100010016543752ALEXANDRE TEIXEIRA CAVALCANTE           RUA DOUTOR NUNES N 934                  OLARIA - RIO21021370RIO DE JANEIRO RJUNIAO UMB DOS CULTOS AFRO BRAS    30051810 000214
10231987175000168817800093673    000013728                    000137280000000000000109                     I0113728     30051800000000035003410000017N200218104700000000000103005180000000000000000000000000000000000000000100048672068734NOEMIA CONCEICAO DE SOUZA               ESTRADA DO CAMORIM N 926 CASA 7 FRENTE -JACAREPAGUA 22780070RIO DE JANEIRO RJUNIAO UMB DOS CULTOS AFRO BRAS    30051810 000215
10231987175000168817800093673    000013727                    000137270000000000000109                     I0113727     30051800000000035003410000017N200218104700000000000103005180000000000000000000000000000000000000000100002846505608DIONE ROSA FERNANDES                    RUA ERNESTINA N 56                      LINS DE VASC20710000RIO DE JANEIRO RJUNIAO UMB DOS CULTOS AFRO BRAS    30051810 000216
10231987175000168817800093673    000013726                    000137260000000000000109                     I0113726     30051800000000035003410000017N200218104700000000000103005180000000000000000000000000000000000000000100092673562753ALVARO RICARDO DE OLIVEIRA RIB          RUA MARIA ALICE N 18                    MUTONDO - SA24452140SAO GONCALO    RJUNIAO UMB DOS CULTOS AFRO BRAS    30051810 000217
10231987175000168817800093673    000013725                    000137250000000000000109                     I0113725     30051800000000035003410000017N200218104700000000000103005180000000000000000000000000000000000000000100066514118704MARILIA GARCIA DA PAIXAO                RUA FRANCOLIM N 306                     GUADALUPE - 21660130RIO DE JANEIRO RJUNIAO UMB DOS CULTOS AFRO BRAS    30051810 000218
10231987175000168817800093673    000013724                    000137240000000000000109                     I0113724     30051800000000035003410000017N200218104700000000000103005180000000000000000000000000000000000000000100011640644792MARLY SERPA BORGES                      RUA VISTA ALEGRE N 12                   SANTA TERESA20251410RIO DE JANEIRO RJUNIAO UMB DOS CULTOS AFRO BRAS    30051810 000219
10231987175000168817800093673    000013723                    000137230000000000000109                     I0113723     30051800000000035003410000017N200218104700000000000103005180000000000000000000000000000000000000000100005440511733MONICA LEITE CRUZ                       RUA PARDAL N 130 B                      MAGALI - CAM23081070CAMPO GRANDE   RJUNIAO UMB DOS CULTOS AFRO BRAS    30051810 000220
10231987175000168817800093673    000013722                    000137220000000000000109                     I0113722     30051800000000035003410000017N200218104700000000000103005180000000000000000000000000000000000000000100001010828789JUSSARA DA SILVA GONCALVES DAM          RUA TRINTA E TRES LOTE 219              NOVA CIDADE 24850000ITABORAI       RJUNIAO UMB DOS CULTOS AFRO BRAS    30051810 000221
10231987175000168817800093673    000013721                    000137210000000000000109                     I0113721     30051800000000035003410000017N200218104700000000000103005180000000000000000000000000000000000000000100074442163715MONICA BARCELLOS DE PAULA               AVENIDA VICENTE DE CARVALHO, 560        VICENTE DE C21371148RIO DE JANEIRO RJUNIAO UMB DOS CULTOS AFRO BRAS    30051810 000222
10231987175000168817800093673    000013720                    000137200000000000000109                     I0113720     30051800000000035003410000017N200218104700000000000103005180000000000000000000000000000000000000000100007924464700GILCEMAR PEREIRA DE MORAES              RUA JOSE ELEOTERIO N 102                CAMPO LINDO 23898220SEROPEDICA     RJUNIAO UMB DOS CULTOS AFRO BRAS    30051810 000223
10231987175000168817800093673    000013719                    000137190000000000000109                     I0113719     30051800000000035003410000017N200218104700000000000103005180000000000000000000000000000000000000000100014199569731LUIS FILIPE SANTOS COSTA                ESTRADA DOUTOR JOAQUIM NICOLAU N 1529 CAPRACA PONTE 02690000MIGUEL PEREIRA RJUNIAO UMB DOS CULTOS AFRO BRAS    30051810 000224
10231987175000168817800093673    000013718                    000137180000000000000109                     I0113718     30051800000000035003410000017N200218104700000000000103005180000000000000000000000000000000000000000100000160903774REGINA CELIA DE OLIVEIRA DA SI          RUA VENANCIO ADRES LOTE 23 QUADRA 13    OLAVO BILAC 25035340DUQUE DE CAXIASRJUNIAO UMB DOS CULTOS AFRO BRAS    30051810 000225
10231987175000168817800093673    000013717                    000137170000000000000109                     I0113717     30051800000000035003410000017N200218104700000000000103005180000000000000000000000000000000000000000100053211839704ALCIONE SOUZA DOS SANTOS                RUA: MARINO FELIX Nº 26 - SEPETIBA     RIO DE JANEI23535006RIO DE JANEIRO RJUNIAO UMB DOS CULTOS AFRO BRAS    30051810 000226
10231987175000168817800093673    000013716                    000137160000000000000109                     I0113716     30051800000000035003410000017N200218104700000000000103005180000000000000000000000000000000000000000100000559929781KLEBER SIQUEIRA CUNHA                   ESTRADA DO PIAI N 300                   GUARATIBA - 23028050RIO DE JANEIRO RJUNIAO UMB DOS CULTOS AFRO BRAS    30051810 000227
10231987175000168817800093673    000013715                    000137150000000000000109                     I0113715     30051800000000035003410000017N200218104700000000000103005180000000000000000000000000000000000000000100099586860768MARLECI NAVARRO DE FARIA                AVENIDA TENENTE REBELO N 381 APT 303    IRAJA - RIO 21230075RIO DE JANEIRO RJUNIAO UMB DOS CULTOS AFRO BRAS    30051810 000228
10231987175000168817800093673    000013714                    000137140000000000000109                     I0113714     30051800000000035003410000017N200218104700000000000103005180000000000000000000000000000000000000000100001653081767DEISE SIQUEIRA                          RUA PARLON SIQUEIRA N 59 CX P 93        BARRA DE GUA23020510RIO DE JANEIRO RJUNIAO UMB DOS CULTOS AFRO BRAS    30051810 000229
10231987175000168817800093673    000013713                    000137130000000000000109                     I0113713     30051800000000035003410000017N200218104700000000000103005180000000000000000000000000000000000000000100067287581787MARIA DA CONCEICAO DE LIMA              RUA ALTO BOA VISTA N 70                 VILAR DOS TE25565410SAO JOAO DE MERRJUNIAO UMB DOS CULTOS AFRO BRAS    30051810 000230
10231987175000168817800093673    000013712                    000137120000000000000109                     I0113712     30051800000000035003410000017N200218104700000000000103005180000000000000000000000000000000000000000100002721212745MARILIA CLAUDIA DA SILVA CORRE          RUA DELFIM MOREIRA N 410                VILA TIRADEN25525170SAO JOAO DE MERRJUNIAO UMB DOS CULTOS AFRO BRAS    30051810 000231
10231987175000168817800093673    000013711                    000137110000000000000109                     I0113711     30051800000000035003410000017N200218104700000000000103005180000000000000000000000000000000000000000100003013793783GIOVANA SURAMA BRANDAO MONFORT          RUA JOAO TELES LOTE 94 QUADRA 93        CENTRO - MES26550100MESQUITA       RJUNIAO UMB DOS CULTOS AFRO BRAS    30051810 000232
10231987175000168817800093673    000013710                    000137100000000000000109                     I0113710     30051800000000035003410000017N200218104700000000000103005180000000000000000000000000000000000000000100009199332701LUANDA MOREIRA DOS SANTOS FERN          RUA SEVERIANO MONTEIRO N 232 APT 302    BRAZ DE PINA21235620RIO DE JANEIRO RJUNIAO UMB DOS CULTOS AFRO BRAS    30051810 000233
10231987175000168817800093673    000013709                    000137090000000000000109                     I0113709     30051800000000035003410000017N200218104700000000000103005180000000000000000000000000000000000000000100009406419769MAURICIO DOS SANTOS SILVA               RUA CASTANHAL, TRAVESSA PROGRESSO I CASAPARQUE GENEC26061650NOVA IGUACU    RJUNIAO UMB DOS CULTOS AFRO BRAS    30051810 000234
10231987175000168817800093673    000013708                    000137080000000000000109                     I0113708     30051800000000035003410000017N200218104700000000000103005180000000000000000000000000000000000000000100002812320706COSME PAULO DA COSTA CRAVO              RUA PADRE MANOEL DE NOBREGA N 505       QUINTINO BOC21381000RIO DE JANEIRO RJUNIAO UMB DOS CULTOS AFRO BRAS    30051810 000235
10231987175000168817800093673    000013707                    000137070000000000000109                     I0113707     30051800000000035003410000017N200218104700000000000103005180000000000000000000000000000000000000000100099363704734SUELY FERNANDES LAPAS OLIVEIRA          RUA SARUTAIA SN LOTE 37                 GUARATIBA - 23032620RIO DE JANEIRO RJUNIAO UMB DOS CULTOS AFRO BRAS    30051810 000236
10231987175000168817800093673    000013706                    000137060000000000000109                     I0113706     30051800000000035003410000017N200218104700000000000103005180000000000000000000000000000000000000000200000000012748SERGIO RICARDO FERREIRA DOS SA          RUA LAGUNA N 23                         NOVA PIAM - 26116620BELFORD ROXO   RJUNIAO UMB DOS CULTOS AFRO BRAS    30051810 000237
10231987175000168817800093673    000013705                    000137050000000000000109                     I0113705     30051800000000035003410000017N200218104700000000000103005180000000000000000000000000000000000000000100076903729704ALUIZO NASCIMENTI DOS SANTOS            RUA DAS ROSAS N 801                     VILA FORMOSA26051370NOVA IGUACU    RJUNIAO UMB DOS CULTOS AFRO BRAS    30051810 000238
10231987175000168817800093673    000013704                    000137040000000000000109                     I0113704     30051800000000035003410000017N200218104700000000000103005180000000000000000000000000000000000000000100003009392729MARIA DA PENHA FLORENCIO                RUA SABUJI LOTE 5 QUADRA 20             JARDIM ROTSE25270030DUQUE DE CAXIASRJUNIAO UMB DOS CULTOS AFRO BRAS    30051810 000239
10231987175000168817800093673    000013703                    000137030000000000000109                     I0113703     30051800000000035003410000017N200218104700000000000103005180000000000000000000000000000000000000000100003567552740ERICA NADJARA DA LUZ                    RUA ENGENHEIRO ALARIPE N 114            LAGOINHA - N26296588NOVA IGUACU    RJUNIAO UMB DOS CULTOS AFRO BRAS    30051810 000240
10231987175000168817800093673    000013702                    000137020000000000000109                     I0113702     30051800000000035003410000017N200218104700000000000103005180000000000000000000000000000000000000000100001317399722JUSSARA DOS SANTOS MACHADO              RUA ARIES N 36                          PARQUE SAO J26190080BELFORD ROXO   RJUNIAO UMB DOS CULTOS AFRO BRAS    30051810 000241
10231987175000168817800093673    000013701                    000137010000000000000109                     I0113701     30051800000000035003410000017N200218104700000000000103005180000000000000000000000000000000000000000100011309006733TIAGO FEUCHARD DIAS                     RUA QUARENTA E NOVE N 130               IPIABAS - BA27170000BARRA DO PIRAI RJUNIAO UMB DOS CULTOS AFRO BRAS    30051810 000242
10231987175000168817800093673    000013700                    000137000000000000000109                     I0113700     30051800000000035003410000017N200218104700000000000103005180000000000000000000000000000000000000000100095529616704MARCOS LUIZ BORGES FIGUEIREDO           RUA PADUA N 95 - REDENTOR               REDENTOR - B26110250BELFORD ROXO   RJUNIAO UMB DOS CULTOS AFRO BRAS    30051810 000243
10231987175000168817800093673    000013699                    000136990000000000000109                     I0113699     30051800000000035003410000017N200218104700000000000103005180000000000000000000000000000000000000000100002871088489JOSE ADRIANO DA SILVA                   RUA UMEBOSCHE N 430                     JARDIM PARAI26297054NOVA IGUACU    RJUNIAO UMB DOS CULTOS AFRO BRAS    30051810 000244
10231987175000168817800093673    000013698                    000136980000000000000109                     I0113698     30051800000000035003410000017N200218104700000000000103005180000000000000000000000000000000000000000100001147868794VALERIA APARECIDA DE SOUZA              RUA ALCYR BRASIL N 710                  JARDIM NOVA 26266010NOVA IGUACU    RJUNIAO UMB DOS CULTOS AFRO BRAS    30051810 000245
10231987175000168817800093673    000013697                    000136970000000000000109                     I0113697     30051800000000035003410000017N200218104700000000000103005180000000000000000000000000000000000000000100007900227709FLAVIA ARAUJO DA ROCHA SANTOS           RUA MARECHAL AGRICOLA N 186             REALENGO - R21735370RIO DE JANEIRO RJUNIAO UMB DOS CULTOS AFRO BRAS    30051810 000246
10231987175000168817800093673    000013696                    000136960000000000000109                     I0113696     30051800000000035003410000017N200218104700000000000103005180000000000000000000000000000000000000000100013297469706LEANDRO SOUZA DE JESUS                  RUA DAS MARRECAS - RUA CARLOTA SN       PARQUE ANTAR26053310NOVA IGUACU    RJUNIAO UMB DOS CULTOS AFRO BRAS    30051810 000247
10231987175000168817800093673    000013695                    000136950000000000000109                     I0113695     30051800000000035003410000017N200218104700000000000103005180000000000000000000000000000000000000000200000000012736JORGE CARLOS RODRIGUES DE OLIV          ESTRADA TAQUARAL LOTE 12                JARDIM NAZAR26062221NOVA IGUACU    RJUNIAO UMB DOS CULTOS AFRO BRAS    30051810 000248
10231987175000168817800093673    000013694                    000136940000000000000109                     I0113694     30051800000000035003410000017N200218104700000000000103005180000000000000000000000000000000000000000100005361904708VANESSA SANTIAGO DE AZEVEDO BA          AVENIDA PASTOR MARTIN LUTHERKING JR N 64VICENTE DE C21371310RIO DE JANEIRO RJUNIAO UMB DOS CULTOS AFRO BRAS    30051810 000249
