01REMESSA01COBRANCA       916200163100        União Umb dos Cultos Afro Bra341BANCO ITAU SA  110118                                                                                                                                                                                                                                                                                                      000001
10231987175000168916200163100    00009020                     000090200000000000000109                     I019020      17011800000000520003410000017N110118050900000000000101701180000000000000000000000000000000000000000100005754715730RAPHAEL FEITAIS PASSERI                 RUA GOVERNADOR LEONEL BRIZOLA SN LOTE 4 JARDIM ATLAN24934020MARICA         RJUNIAO UMB DOS CULTOS AFRO BRAS    17011810 000002
10231987175000168916200163100    00009019                     000090190000000000000109                     I019019      25011800000000350003410000017N110118050900000000000102501180000000000000000000000000000000000000000100011080748717ALVARO CHIANELLI DE AZEREDO             RUA ANDRE AZEVEDO, 87                   OLARIA - RJ 21021480RIO DE JANEIRO RJUNIAO UMB DOS CULTOS AFRO BRAS    25011810 000003
10231987175000168916200163100    00009018                     000090180000000000000109                     I019018      31011800000000035003410000017N110118050900000000000103101180000000000000000000000000000000000000000100003558966724ANDREA CORDEIRO DA CONCEICAO S          RUA  PARATI, 379 - KM 35                BOM JESUS - 26298183NOVA IGUACU    RJUNIAO UMB DOS CULTOS AFRO BRAS    31011810 000004
10231987175000168916200163100    00009017                     000090170000000000000109                     I019017      23011800000000350003410000017N110118050900000000000102301180000000000000000000000000000000000000000100085906743715FRANCISCA CELIA LEANDRO NEVES           O MESMO                                 O MESMO     21540460RIO DE JANEIRO RJUNIAO UMB DOS CULTOS AFRO BRAS    23011810 000005
10231987175000168916200163100    00008532                     000085320000000000000109                     I018532      31011800000000035003410000017N020118050900000000000103101180000000000000000000000000000000000000000100082335400720PAULO FONSECA DA SILVA                  RUA ANDALUZIA N 431 FUNDOS              BENTO RIBEIR21555100RIO DE JANEIRO RJUNIAO UMB DOS CULTOS AFRO BRAS    31011810 000006
10231987175000168916200163100    00008503                     000085030000000000000109                     I028503      31011800000000035003410000017N020118050900000000000103101180000000000000000000000000000000000000000100050470809787MARIA LUIZA OLIVEIRA MAGALHAES          RUA: ARAUANA                            NOVO ELDORAD26150350BELFORD ROXO   RJUNIAO UMB DOS CULTOS AFRO BRAS    31011810 000007
10231987175000168916200163100    00004349                     000043490000000000000109                     I024349      22121700000000350003410000017N171117050900000000000102212170000000000000000000000000000000000000000100005754715730RAPHAEL FEITAIS PASSERI                 RUA GOVERNADOR LEONEL BRIZOLA SN LOTE 4 JARDIM ATLAN24934020MARICA         RJUNIAO UMB DOS CULTOS AFRO BRAS    22121710 000008
10231987175000168916200163100    00003728                     000037280000000000000109                     I023728      22121700000000350003410000017N171117050900000000000102212170000000000000000000000000000000000000000100058098445704ARLETE DA SILVA BARBOSA FRANCO          RUA DOUTOR MUNIZ, 71                    ROCHA SOBRIN26130020BELFORD ROXO   RJUNIAO UMB DOS CULTOS AFRO BRAS    22121710 000009
10231987175000168916200163100    00002897                     000028970000000000000109                     I022897      31121700000000035003410000017N131117050900000000000103112170000000000000000000000000000000000000000100005754715730RAPHAEL FEITAIS PASSERI                 RUA GOVERNADOR LEONEL BRIZOLA SN LOTE 4 JARDIM ATLAN24934020MARICA         RJUNIAO UMB DOS CULTOS AFRO BRAS    31121710 000010
10231987175000168916200163100    00002240                     000022400000000000000109                     I342240      31121700000000035003410000017N131117050900000000000103112170000000000000000000000000000000000000000100058098445704ARLETE DA SILVA BARBOSA FRANCO          RUA DOUTOR MUNIZ, 71                    ROCHA SOBRIN26130020BELFORD ROXO   RJUNIAO UMB DOS CULTOS AFRO BRAS    31121710 000011
9                                                                                                                                                                                                                                                                                                                                                                                                         000012
