01REMESSA01COBRANCA       916200163100        União Umb dos Cultos Afro Bra341BANCO ITAU SA  110419                                                                                                                                                                                                                                                                                                      000001
10231987175000168916200163100    000045046                    000450460000000000000109                     I0145046     12041900000000005003410000017N110419105700000000000101204190000000000000000000000000000000000000000100005851795735JOAO LUIZ DE OLIVEIRA MAGALHAE          RUA ANTONIO CARLOS PARANHOSN 29,        VILA VALQUEI21321340RIO DE JANEIRO RJUNIAO UMB DOS CULTOS AFRO BRAS    12041915 000002
10231987175000168916200163100    000045045                    000450450000000000000109                     I0245045     12041900000000040003410000017N110419105700000000000101204190000000000000000000000000000000000000000100005851795735JOAO LUIZ DE OLIVEIRA MAGALHAE          RUA ANTONIO CARLOS PARANHOSN 29,        VILA VALQUEI21321340RIO DE JANEIRO RJUNIAO UMB DOS CULTOS AFRO BRAS    12041915 000003
10231987175000168916200163100    000045044                    000450440000000000000109                     I0145044     28061900000000040003410000017N110419105700000000000102806190000000000000000000000000000000000000000100003397760720CRISTIANE DA COSTA FERREIRA             RUA: GENERAL AUGUSTO SISSON N 5,        ANCHIETA    21635220RIO DE JANEIRO RJUNIAO UMB DOS CULTOS AFRO BRAS    28061915 000004
10231987175000168916200163100    000045043                    000450430000000000000109                     I0145043     31051900000000040003410000017N110419105700000000000103105190000000000000000000000000000000000000000100003397760720CRISTIANE DA COSTA FERREIRA             RUA: GENERAL AUGUSTO SISSON N 5,        ANCHIETA    21635220RIO DE JANEIRO RJUNIAO UMB DOS CULTOS AFRO BRAS    31051915 000005
10231987175000168916200163100    000045042                    000450420000000000000109                     I0145042     30041900000000040003410000017N110419105700000000000103004190000000000000000000000000000000000000000100058302140759CLAUDINA PADILHA DA SILVA               RUA ANTONIO FELIXN 1060,                NOSSA SENHOR26520632NILOPOLIS      RJUNIAO UMB DOS CULTOS AFRO BRAS    30041915 000006
10231987175000168916200163100    000045037                    000450370000000000000109                     I0245037     18041900000000120003410000017N100419105700000000000101804190000000000000000000000000000000000000000100013180490756DIEGO CAVALCANTI DA SILVA               RUA CONDE DE RESENDEN 127,              BENTO RIBEIR21550600RIO DE JANEIRO RJUNIAO UMB DOS CULTOS AFRO BRAS    18041915 000007
10231987175000168916200163100    000044183                    000441830000000000000109                     I0244183     30061900000000040003410000017N130319105700000000000103006190000000000000000000000000000000000000000100090556933753CELIA MARIA DA SILVA REGO               RUA GETULION 412, APT 202               TODOS OS SAN20775001RIO DE JANEIRO RJUNIAO UMB DOS CULTOS AFRO BRAS    30061915 000008
10231987175000168916200163100    000044119                    000441190000000000000109                     I0244119     30061900000000040003410000017N130319105700000000000103006190000000000000000000000000000000000000000100010525485716JORGE SANTOS DA SILVA                   RUA: TENENTE CUSTODIO MOREIRAN 24,      JARDIM XAVAN26125000BELFORD ROXO   RJUNIAO UMB DOS CULTOS AFRO BRAS    30061915 000009
10231987175000168916200163100    000043445                    000434450000000000000109                     I0243445     30061900000000040003410000017N130319105700000000000103006190000000000000000000000000000000000000000100005744506705SANDRA REGINA DE OLIVEIRA               RUA MARCIA COSTA N 924,                 JARDIM NOVA 26271160NOVA IGUACU    RJUNIAO UMB DOS CULTOS AFRO BRAS    30061915 000010
10231987175000168916200163100    000042537                    000425370000000000000109                     I0242537     30051900000000040003410000017N130319105700000000000103005190000000000000000000000000000000000000000100090556933753CELIA MARIA DA SILVA REGO               RUA GETULION 412, APT 202               TODOS OS SAN20775001RIO DE JANEIRO RJUNIAO UMB DOS CULTOS AFRO BRAS    30051915 000011
10231987175000168916200163100    000042473                    000424730000000000000109                     I0242473     30051900000000040003410000017N130319105700000000000103005190000000000000000000000000000000000000000100010525485716JORGE SANTOS DA SILVA                   RUA: TENENTE CUSTODIO MOREIRAN 24,      JARDIM XAVAN26125000BELFORD ROXO   RJUNIAO UMB DOS CULTOS AFRO BRAS    30051915 000012
10231987175000168916200163100    000041802                    000418020000000000000109                     I0241802     30051900000000040003410000017N130319105700000000000103005190000000000000000000000000000000000000000100005744506705SANDRA REGINA DE OLIVEIRA               RUA MARCIA COSTA N 924,                 JARDIM NOVA 26271160NOVA IGUACU    RJUNIAO UMB DOS CULTOS AFRO BRAS    30051915 000013
10231987175000168916200163100    000041189                    000411890000000000000109                     I0241189     30041900000000040003410000017N120319105700000000000103004190000000000000000000000000000000000000000100003009392729MARIA DA PENHA FLORENCIO                RUA SABUJI DIM ROTSENN 0, LOTE 5 QUADRA JARDIM ROTSE25270030DUQUE DE CAXIASRJUNIAO UMB DOS CULTOS AFRO BRAS    30041915 000014
10231987175000168916200163100    000040900                    000409000000000000000109                     I0240900     30041900000000040003410000017N120319105700000000000103004190000000000000000000000000000000000000000100090556933753CELIA MARIA DA SILVA REGO               RUA GETULION 412, APT 202               TODOS OS SAN20775001RIO DE JANEIRO RJUNIAO UMB DOS CULTOS AFRO BRAS    30041915 000015
10231987175000168916200163100    000040836                    000408360000000000000109                     I0240836     30041900000000040003410000017N120319105700000000000103004190000000000000000000000000000000000000000100010525485716JORGE SANTOS DA SILVA                   RUA: TENENTE CUSTODIO MOREIRAN 24,      JARDIM XAVAN26125000BELFORD ROXO   RJUNIAO UMB DOS CULTOS AFRO BRAS    30041915 000016
10231987175000168916200163100    000040169                    000401690000000000000109                     I0240169     30041900000000040003410000017N120319105700000000000103004190000000000000000000000000000000000000000100005744506705SANDRA REGINA DE OLIVEIRA               RUA MARCIA COSTA N 924,                 JARDIM NOVA 26271160NOVA IGUACU    RJUNIAO UMB DOS CULTOS AFRO BRAS    30041915 000017
10231987175000168916200163100    000039481                    000394810000000000000109                     I0239481     31031900000000040003410000017N040119105700000000000103103190000000000000000000000000000000000000000100090556933753CELIA MARIA DA SILVA REGO               RUA GETULION 412, APT 202               TODOS OS SAN20775001RIO DE JANEIRO RJUNIAO UMB DOS CULTOS AFRO BRAS    31031915 000018
10231987175000168916200163100    000039480                    000394800000000000000109                     I0239480     28021900000000040003410000017N040119105700000000000102802190000000000000000000000000000000000000000100090556933753CELIA MARIA DA SILVA REGO               RUA GETULION 412, APT 202               TODOS OS SAN20775001RIO DE JANEIRO RJUNIAO UMB DOS CULTOS AFRO BRAS    28021915 000019
9                                                                                                                                                                                                                                                                                                                                                                                                         000020
