01REMESSA01COBRANCA       817800093673        União Umb dos Cultos Afro Bra341BANCO ITAU SA  150219                                                                                                                                                                                                                                                                                                      000001
10231987175000168817800093673    000039799                    000397990000000000000109                     I0139799     28021900000000040003410000017N150219104700000000000102802190000000000000000000000000000000000000000100010058913700RAMON DO NASCIMENTO MANES               RUA LIGIA N 329, CASA 1 FUNDOS          OLARIA      21073280RIO DE JANEIRO RJUNIAO UMB DOS CULTOS AFRO BRAS    28021910 000002
10231987175000168817800093673    000039798                    000397980000000000000109                     I0139798     28021900000000040003410000017N150219104700000000000102802190000000000000000000000000000000000000000100010058913700RAMON DO NASCIMENTO MANES               RUA LIGIA N 329, CASA 1 FUNDOS          OLARIA      21073280RIO DE JANEIRO RJUNIAO UMB DOS CULTOS AFRO BRAS    28021910 000003
10231987175000168817800093673    000039797                    000397970000000000000109                     I0139797     05031900000000200003410000017N150219104700000000000100503190000000000000000000000000000000000000000100003671873701MARCELO DO VALLE ABREU                  RUA: DEPUTADO SA REGON 211, FUNDOS      VILA SAO LUI25060300DUQUE DE CAXIASRJUNIAO UMB DOS CULTOS AFRO BRAS    05031910 000004
10231987175000168817800093673    000039796                    000397960000000000000109                     I0139796     15031900000000350003410000017N150219104700000000000101503190000000000000000000000000000000000000000100004826958706CRISTIANE RABELLO PAZ                   RUA: ROBERTO SILVAN 540,                RAMOS       21060230RIO DE JANEIRO RJUNIAO UMB DOS CULTOS AFRO BRAS    15031910 000005
10231987175000168817800093673    000039795                    000397950000000000000109                     I0139795     22021900000000455003410000017N150219104700000000000102202190000000000000000000000000000000000000000100010549801790THIAGO HENRIQUE FIGUEIREDO NAS          RUA JOSE LOURENCO DE CASTILHON 215, (   JARDIM TROPI26012775NOVA IGUACU    RJUNIAO UMB DOS CULTOS AFRO BRAS    22021910 000006
10231987175000168817800093673    000039794                    000397940000000000000109                     I0139794     28021900000000400003410000017N150219104700000000000102802190000000000000000000000000000000000000000100011639602763PAULO HUMBERTO AZEVEDO PONTE J          AVENIDA: MARECHAL RONDONN 1037, SOBRADO SAO FRANCISC20950003RIO DE JANEIRO RJUNIAO UMB DOS CULTOS AFRO BRAS    28021910 000007
10231987175000168817800093673    000039793                    000397930000000000000109                     I0139793     04031900000000040003410000017N140219104700000000000100403190000000000000000000000000000000000000000100050262319772NELCY MARIA DE MATTOS                   RUA FILADELFIAN 0,  LOTE 15 QUADRA 1    MONJOLO     24723365SAO GONCALO    RJUNIAO UMB DOS CULTOS AFRO BRAS    04031910 000008
10231987175000168817800093673    000039327                    000393270000000000000109                     I0239327     30031900000000040003410000017N261218104700000000000103003190000000000000000000000000000000000000000100000848852702RODNEY MARQUES                          RUA PEREIRA LEITAON 4, A                TURIACU     21550100RIO DE JANEIRO RJUNIAO UMB DOS CULTOS AFRO BRAS    30031910 000009
10231987175000168817800093673    000039300                    000393000000000000000109                     I0239300     30031900000000040003410000017N261218104700000000000103003190000000000000000000000000000000000000000100001359669736JUCILENE DOS SANTOS GALVAO              RUA ALICE FREITAS N 355, FUNDOS         VICENTE DE C21371220RIO DE JANEIRO RJUNIAO UMB DOS CULTOS AFRO BRAS    30031910 000010
10231987175000168817800093673    000037517                    000375170000000000000109                     I0237517     30031900000000040003410000017N261218104700000000000103003190000000000000000000000000000000000000000100048685917700CELIO DO NASCIMENTO                     RUA DO CATETE N 123, CASA 4 APT 101     CATETE      22220000RIO DE JANEIRO RJUNIAO UMB DOS CULTOS AFRO BRAS    30031910 000011
10231987175000168817800093673    000037408                    000374080000000000000109                     I0237408     28021900000000040003410000017N261218104700000000000102802190000000000000000000000000000000000000000100000848852702RODNEY MARQUES                          RUA PEREIRA LEITAON 4, A                TURIACU     21550100RIO DE JANEIRO RJUNIAO UMB DOS CULTOS AFRO BRAS    28021910 000012
10231987175000168817800093673    000037381                    000373810000000000000109                     I0237381     28021900000000040003410000017N261218104700000000000102802190000000000000000000000000000000000000000100001359669736JUCILENE DOS SANTOS GALVAO              RUA ALICE FREITAS N 355, FUNDOS         VICENTE DE C21371220RIO DE JANEIRO RJUNIAO UMB DOS CULTOS AFRO BRAS    28021910 000013
10231987175000168817800093673    000036137                    000361370000000000000109                     I0236137     28021900000000040003410000017N261218104700000000000102802190000000000000000000000000000000000000000100055688306734ROBERTO BRAGANCA BAHIA                  RUA PALADINO GARCIAN 0, LOTE 5 - CASA 2 CENTRO      26130290BELFORD ROXO   RJUNIAO UMB DOS CULTOS AFRO BRAS    28021910 000014
10231987175000168817800093673    000035605                    000356050000000000000109                     I0235605     28021900000000040003410000017N261218104700000000000102802190000000000000000000000000000000000000000100048685917700CELIO DO NASCIMENTO                     RUA DO CATETE N 123, CASA 4 APT 101     CATETE      22220000RIO DE JANEIRO RJUNIAO UMB DOS CULTOS AFRO BRAS    28021910 000015
10231987175000168817800093673    000035468                    000354680000000000000109                     I0235468     31011900000000040003410000017N261218104700000000000103101190000000000000000000000000000000000000000100001359669736JUCILENE DOS SANTOS GALVAO              RUA ALICE FREITAS N 355, FUNDOS         VICENTE DE C21371220RIO DE JANEIRO RJUNIAO UMB DOS CULTOS AFRO BRAS    31011910 000016
10231987175000168817800093673    000034456                    000344560000000000000109                     I0234456     31011900000000040003410000017N261218104700000000000103101190000000000000000000000000000000000000000100050262319772NELCY MARIA DE MATTOS                   RUA FILADELFIAN 0,  LOTE 15 QUADRA 1    MONJOLO     24723365SAO GONCALO    RJUNIAO UMB DOS CULTOS AFRO BRAS    31011910 000017
10231987175000168817800093673    000034229                    000342290000000000000109                     I0234229     31011900000000040003410000017N261218104700000000000103101190000000000000000000000000000000000000000100055688306734ROBERTO BRAGANCA BAHIA                  RUA PALADINO GARCIAN 0, LOTE 5 - CASA 2 CENTRO      26130290BELFORD ROXO   RJUNIAO UMB DOS CULTOS AFRO BRAS    31011910 000018
10231987175000168817800093673    000034142                    000341420000000000000109                     I0234142     31011900000000040003410000017N261218104700000000000103101190000000000000000000000000000000000000000100010058913700RAMON DO NASCIMENTO MANES               RUA LIGIA N 329, CASA 1 FUNDOS          OLARIA      21073280RIO DE JANEIRO RJUNIAO UMB DOS CULTOS AFRO BRAS    31011910 000019
10231987175000168817800093673    000033705                    000337050000000000000109                     I0233705     31011900000000040003410000017N261218104700000000000103101190000000000000000000000000000000000000000100048685917700CELIO DO NASCIMENTO                     RUA DO CATETE N 123, CASA 4 APT 101     CATETE      22220000RIO DE JANEIRO RJUNIAO UMB DOS CULTOS AFRO BRAS    31011910 000020
10231987175000168817800093673    000033265                    000332650000000000000109                     I0233265     20121800000000400003410000017N291018104700000000000102012180000000000000000000000000000000000000000100001359669736JUCILENE DOS SANTOS GALVAO              RUA ALICE FREITAS N 355, FUNDOS         VICENTE DE C21371220RIO DE JANEIRO RJUNIAO UMB DOS CULTOS AFRO BRAS    20121810 000021
10231987175000168817800093673    000032355                    000323550000000000000109                     I0232355     20121800000000350003410000017N291018104700000000000102012180000000000000000000000000000000000000000100011639602763PAULO HUMBERTO AZEVEDO PONTE J          AVENIDA: MARECHAL RONDONN 1037, SOBRADO SAO FRANCISC20950003RIO DE JANEIRO RJUNIAO UMB DOS CULTOS AFRO BRAS    20121810 000022
10231987175000168817800093673    000031762                    000317620000000000000109                     I0231762     20121800000000350003410000017N291018104700000000000102012180000000000000000000000000000000000000000100050262319772NELCY MARIA DE MATTOS                   RUA FILADELFIAN 0,  LOTE 15 QUADRA 1    MONJOLO     24723365SAO GONCALO    RJUNIAO UMB DOS CULTOS AFRO BRAS    20121810 000023
10231987175000168817800093673    000031405                    000314050000000000000109                     I0231405     20121800000000380003410000017N291018104700000000000102012180000000000000000000000000000000000000000100055688306734ROBERTO BRAGANCA BAHIA                  RUA PALADINO GARCIAN 0, LOTE 5 - CASA 2 CENTRO      26130290BELFORD ROXO   RJUNIAO UMB DOS CULTOS AFRO BRAS    20121810 000024
10231987175000168817800093673    000031266                    000312660000000000000109                     I0231266     20121800000000350003410000017N291018104700000000000102012180000000000000000000000000000000000000000100010058913700RAMON DO NASCIMENTO MANES               RUA LIGIA N 329, CASA 1 FUNDOS          OLARIA      21073280RIO DE JANEIRO RJUNIAO UMB DOS CULTOS AFRO BRAS    20121810 000025
10231987175000168817800093673    000030515                    000305150000000000000109                     I0230515     20121800000000350003410000017N291018104700000000000102012180000000000000000000000000000000000000000100048685917700CELIO DO NASCIMENTO                     RUA DO CATETE N 123, CASA 4 APT 101     CATETE      22220000RIO DE JANEIRO RJUNIAO UMB DOS CULTOS AFRO BRAS    20121810 000026
10231987175000168817800093673    000029342                    000293420000000000000109                     I0229342     20121800000000035003410000017N291018104700000000000102012180000000000000000000000000000000000000000100010058913700RAMON DO NASCIMENTO MANES               RUA LIGIA N 329, CASA 1 FUNDOS          OLARIA      21073280RIO DE JANEIRO RJUNIAO UMB DOS CULTOS AFRO BRAS    20121810 000027
9                                                                                                                                                                                                                                                                                                                                                                                                         000028
