01REMESSA01COBRANCA       916200163100        União Umb dos Cultos Afro Bra341BANCO ITAU SA  130819                                                                                                                                                                                                                                                                                                      000001
10231987175000168916200163100    000054027                    000540270000000000000109                     I0154027     30091900000000040003410000017N130819105700000000000133009190000000000000000000000000000000000000000100016185111730LUCAS FABIANO SANTOS FEIJO              AVENIDA JOSE GUIDAN 90, CASA 2          NOSSA SENHOR26443100JAPERI         RJUNIAO UMB DOS CULTOS AFRO BRAS    30091915 000002
21300920190000000000080                                                                                                                                                                                                                                                                                                                                                                                   000003
10231987175000168916200163100    000054026                    000540260000000000000109                     I0154026     30081900000000040003410000017N130819105700000000000133008190000000000000000000000000000000000000000100016185111730LUCAS FABIANO SANTOS FEIJO              AVENIDA JOSE GUIDAN 90, CASA 2          NOSSA SENHOR26443100JAPERI         RJUNIAO UMB DOS CULTOS AFRO BRAS    30081915 000004
21300820190000000000080                                                                                                                                                                                                                                                                                                                                                                                   000005
10231987175000168916200163100    000054004                    000540040000000000000109                     I0254004     30081900000000080003410000017N070819105700000000000263008190000000000000000000000000000000000000000100002375024702FATIMA APARECIDA OLIVEIRA DE C          RUA MANUEL VITORINON 412,               ENCANTADO   20740280RIO DE JANEIRO RJUNIAO UMB DOS CULTOS AFRO BRAS    30081915 000006
21300820190000000000160                                                                                                                                                                                                                                                                                                                                                                                   000007
10231987175000168916200163100    000050318                    000503180000000000000109                     I0250318     10091900000000200003410000017N020819105700000000000661009190000000000000000000000000000000000000000100008653822712ALEXANDRE DA SILVA                      RUA: SENADOR NEREU RAMOS N 2,           NOSSA SENHOR25040530DUQUE DE CAXIASRJUNIAO UMB DOS CULTOS AFRO BRAS    10091915 000008
21100920190000000000400                                                                                                                                                                                                                                                                                                                                                                                   000009
10231987175000168916200163100    000044366                    000443660000000000000109                     I0244366     30061900000000040003410000017N130319105700000000000133006190000000000000000000000000000000000000000100089823753768MARIA JOSE DA ROCHA NOBREGA             RUA DOS LIRIOSN 2, CASA                 SHANGRI-LA  26150071BELFORD ROXO   RJUNIAO UMB DOS CULTOS AFRO BRAS    30061915 000010
21300620190000000000080                                                                                                                                                                                                                                                                                                                                                                                   000011
10231987175000168916200163100    000044136                    000441360000000000000109                     I0244136     30061900000000040003410000017N130319105700000000000133006190000000000000000000000000000000000000000100092952364753ROSANGELA SILVA SOUZA                   RUA TAMOIOSN 144, FUNDOS                CENTRO      26520250NILOPOLIS      RJUNIAO UMB DOS CULTOS AFRO BRAS    30061915 000012
21300620190000000000080                                                                                                                                                                                                                                                                                                                                                                                   000013
9                                                                                                                                                                                                                                                                                                                                                                                                         000014
