01REMESSA01COBRANCA       817800093673        Uni√£o Umb dos Cultos Afro Bra341BANCO ITAU SA  261218                                                                                                                                                                                                                                                                                                      000001
10231987175000168817800093673    000037342                    000373420000000000000109                     I0137342     28021900000000040003410000017N261218104700000000000102802190000000000000000000000000000000000000000100014963009714MICHELLE DA SILVA SOARES                RUA MINAS GERAIS                        PIABETA     25935525MAGE           RJUNIAO UMB DOS CULTOS AFRO BRAS    28021910 000002
10231987175000168817800093673    000037341                    000373410000000000000109                     I0137341     28021900000000040003410000017N261218104700000000000102802190000000000000000000000000000000000000000100002305172770VALDIRENE ALBUQUERQUE MARCIEL           RUA GUARAGUATATUBA                      VILA ROSARIO25030040DUQUE DE CAXIASRJUNIAO UMB DOS CULTOS AFRO BRAS    28021910 000003
10231987175000168817800093673    000037340                    000373400000000000000109                     I0137340     28021900000000040003410000017N261218104700000000000102802190000000000000000000000000000000000000000100000213766701ROSIVANIA CRUZ DA SILVA                 RUA ERNANI DE BRITO                     SEPETIBA    23535131RIO DE JANEIRO RJUNIAO UMB DOS CULTOS AFRO BRAS    28021910 000004
10231987175000168817800093673    000037339                    000373390000000000000109                     I0137339     28021900000000040003410000017N261218104700000000000102802190000000000000000000000000000000000000000100085737437787NIVALDA PIRES RUFINO                    RUA: MARIO CARPENTER                    ABOLICAO    20755065RIO DE JANEIRO RJUNIAO UMB DOS CULTOS AFRO BRAS    28021910 000005
10231987175000168817800093673    000037338                    000373380000000000000109                     I0137338     28021900000000040003410000017N261218104700000000000102802190000000000000000000000000000000000000000100059622091768ALDA GOMES DA SILVA                     RUA: VILA DOZE                          JARDIM PALMA23066186RIO DE JANEIRO RJUNIAO UMB DOS CULTOS AFRO BRAS    28021910 000006
10231987175000168817800093673    000037337                    000373370000000000000109                     I0137337     28021900000000040003410000017N261218104700000000000102802190000000000000000000000000000000000000000100005380679773ROBERTO DE OLIVEIRA RIBEIRO JU          RUA VINTE E TRES                        SANTA CRUZ  23500000RIO DE JANEIRO RJUNIAO UMB DOS CULTOS AFRO BRAS    28021910 000007
10231987175000168817800093673    000037336                    000373360000000000000109                     I0137336     28021900000000040003410000017N261218104700000000000102802190000000000000000000000000000000000000000100006485913793IASMIM SANTANA DA SILVA DE OLI          ILHA DE ITACURUCA                       PRAIA GRANDE23860000RIO DE JANEIRO RJUNIAO UMB DOS CULTOS AFRO BRAS    28021910 000008
10231987175000168817800093673    000037335                    000373350000000000000109                     I0137335     28021900000000040003410000017N261218104700000000000102802190000000000000000000000000000000000000000100052889378772ANGELA MARIA DA SILVA ANDRADE           RUA WILSON GIL DA MATTA                 CENTRO      25515101SAO JOAO DE MERRJUNIAO UMB DOS CULTOS AFRO BRAS    28021910 000009
10231987175000168817800093673    000037334                    000373340000000000000109                     I0137334     28021900000000040003410000017N261218104700000000000102802190000000000000000000000000000000000000000100010486021769SIDNEY RODRIGUES DA SILVA JUNI          RUA DAS VIDEIRAS                        MORADA VERDE23065520PACIENCIA      RJUNIAO UMB DOS CULTOS AFRO BRAS    28021910 000010
10231987175000168817800093673    000037333                    000373330000000000000109                     I0137333     28021900000000040003410000017N261218104700000000000102802190000000000000000000000000000000000000000100001244562785LUIS CARLOS RIBEIRO                     RUA NEIDE AFONSO                        SHANGRILA RO26150020BELFORD ROXO   RJUNIAO UMB DOS CULTOS AFRO BRAS    28021910 000011
10231987175000168817800093673    000037332                    000373320000000000000109                     I0137332     28021900000000040003410000017N261218104700000000000102802190000000000000000000000000000000000000000100003256338780REGINALDO ROSA DA SILVA                 RUA PAULO AFONSO                        IPIRANGA ALI26293381NOVA IGUACU    RJUNIAO UMB DOS CULTOS AFRO BRAS    28021910 000012
10231987175000168817800093673    000037331                    000373310000000000000109                     I0137331     28021900000000040003410000017N261218104700000000000102802190000000000000000000000000000000000000000100004474665775REGINALDO RAMOS DA SILVA                RUA JULIO DE CASTILHOS                  JARDIM ROTSE25270210DUQUE DE CAXIASRJUNIAO UMB DOS CULTOS AFRO BRAS    28021910 000013
10231987175000168817800093673    000037330                    000373300000000000000109                     I0137330     28021900000000040003410000017N261218104700000000000102802190000000000000000000000000000000000000000100041998839753MARIA HELENA FERREIRA DA SILVA          RUA J                                   SANTA CRUZ  23595100RIO DE JANEIRO RJUNIAO UMB DOS CULTOS AFRO BRAS    28021910 000014
10231987175000168817800093673    000037329                    000373290000000000000109                     I0137329     28021900000000040003410000017N261218104700000000000102802190000000000000000000000000000000000000000100062788396791SERGIO LUCAS DE SOUZA                   TRAVESSA CARLOS XAVIER                  MADUREIRA   21310010RIO DE JANEIRO RJUNIAO UMB DOS CULTOS AFRO BRAS    28021910 000015
10231987175000168817800093673    000037328                    000373280000000000000109                     I0137328     28021900000000040003410000017N261218104700000000000102802190000000000000000000000000000000000000000100093521987787KATIA CRISTINA DANNEMBERG               ESTRADA DO PORTINHO                     IRAJA       21235400RIO DE JANEIRO RJUNIAO UMB DOS CULTOS AFRO BRAS    28021910 000016
10231987175000168817800093673    000037327                    000373270000000000000109                     I0137327     28021900000000040003410000017N261218104700000000000102802190000000000000000000000000000000000000000100093678754791ROSINETE MARIA DE OLIVEIRA              RUA ANGOLA                              CAPIVARI    25145080DUQUE DE CAXIASRJUNIAO UMB DOS CULTOS AFRO BRAS    28021910 000017
10231987175000168817800093673    000037326                    000373260000000000000109                     I0137326     28021900000000040003410000017N261218104700000000000102802190000000000000000000000000000000000000000100009289778709HELAINE FRANKLIN TEIXEIRA               RUA CACHOEIRA ALTA                      JARDIM MARAV23031070CAMPO GRANDE   RJUNIAO UMB DOS CULTOS AFRO BRAS    28021910 000018
10231987175000168817800093673    000037325                    000373250000000000000109                     I0137325     28021900000000040003410000017N261218104700000000000102802190000000000000000000000000000000000000000100069852219715GREIZI DE CARVALHO CARVALHAES           RUA BUENOS AIRES                        JARDIM PERNA26275390NOVA IGUACU    RJUNIAO UMB DOS CULTOS AFRO BRAS    28021910 000019
10231987175000168817800093673    000037324                    000373240000000000000109                     I0137324     28021900000000040003410000017N261218104700000000000102802190000000000000000000000000000000000000000100001096953722CLAUDIA GUIMARAES                       ESTRADA GUANDU DO SENA - RUA 29         CAMPO GRANDE23091220RIO DE JANEIRO RJUNIAO UMB DOS CULTOS AFRO BRAS    28021910 000020
10231987175000168817800093673    000037323                    000373230000000000000109                     I0137323     28021900000000040003410000017N261218104700000000000102802190000000000000000000000000000000000000000100080091229715MARCO ANTONIO DE OLIVEIRA TEIX          RUA QUARENTA E UM                       JARDIM NOSSA23097260CAMPO GRANDE   RJUNIAO UMB DOS CULTOS AFRO BRAS    28021910 000021
10231987175000168817800093673    000037322                    000373220000000000000109                     I0137322     28021900000000040003410000017N261218104700000000000102802190000000000000000000000000000000000000000100046840117715TERESA CRISTINA DE MELLO SOARE          RUA CANUTAMA                            OSWALDO CRUZ21340440RIO DE JANEIRO RJUNIAO UMB DOS CULTOS AFRO BRAS    28021910 000022
10231987175000168817800093673    000037321                    000373210000000000000109                     I0137321     28021900000000040003410000017N261218104700000000000102802190000000000000000000000000000000000000000100095760024787LUCIMARA DIAS DE OLIVEIRA               RUA SANTO ELIAS                         TURIACU     21540390RIO DE JANEIRO RJUNIAO UMB DOS CULTOS AFRO BRAS    28021910 000023
10231987175000168817800093673    000037320                    000373200000000000000109                     I0137320     28021900000000040003410000017N261218104700000000000102802190000000000000000000000000000000000000000100003443839703ANDERSON FERNANDES DE PAIVA             RUA JUDITE GUERRA                       PAVUNA      21520260RIO DE JANEIRO RJUNIAO UMB DOS CULTOS AFRO BRAS    28021910 000024
10231987175000168817800093673    000037319                    000373190000000000000109                     I0137319     28021900000000040003410000017N261218104700000000000102802190000000000000000000000000000000000000000100012218258790WILIAM ULERICH MARTINS                  RUA ANTONIO AUSTREGESILO                INHAUMA     21061300RIO DE JANEIRO RJUNIAO UMB DOS CULTOS AFRO BRAS    28021910 000025
10231987175000168817800093673    000037318                    000373180000000000000109                     I0137318     28021900000000040003410000017N261218104700000000000102802190000000000000000000000000000000000000000100003654035710ELLEN CRISTINA DE ORNELAS NARC          RUA MARECHAL MARCIANO                   REALENGO    21721011RIO DE JANEIRO RJUNIAO UMB DOS CULTOS AFRO BRAS    28021910 000026
10231987175000168817800093673    000037317                    000373170000000000000109                     I0137317     28021900000000040003410000017N261218104700000000000102802190000000000000000000000000000000000000000100009924715790JOSEFA MARIA DA SILVA                   TRAVESSA DOS LAVRADORES                 VILA SAO DOM26271340NOVA IGUACU    RJUNIAO UMB DOS CULTOS AFRO BRAS    28021910 000027
10231987175000168817800093673    000037316                    000373160000000000000109                     I0137316     28021900000000040003410000017N261218104700000000000102802190000000000000000000000000000000000000000100012687881716DAIANA SANTANA DE LIMA                  RUA MANAUS                              CAMPOS ELISE25225000DUQUE DE CAXIASRJUNIAO UMB DOS CULTOS AFRO BRAS    28021910 000028
10231987175000168817800093673    000037315                    000373150000000000000109                     I0137315     28021900000000040003410000017N261218104700000000000102802190000000000000000000000000000000000000000100007040620707MONICA BORGES MATTOS                    RUA INHAMUNS                            VILA VALQUEI21321330RIO DE JANEIRO RJUNIAO UMB DOS CULTOS AFRO BRAS    28021910 000029
10231987175000168817800093673    000037314                    000373140000000000000109                     I0137314     28021900000000040003410000017N261218104700000000000102802190000000000000000000000000000000000000000100000000000000JORGE EDUARDO PEREIRA VIANNA            RUA SERGIO MARTINS MOTA                 CABUCU      26291551NOVA IGUACU    RJUNIAO UMB DOS CULTOS AFRO BRAS    28021910 000030
10231987175000168817800093673    000037313                    000373130000000000000109                     I0137313     28021900000000040003410000017N261218104700000000000102802190000000000000000000000000000000000000000100093255586704GRECIETE GOUDARD                        ESTRADA DO CAMPINHO                     CAMPO GRANDE23066540RIO DE JANEIRO RJUNIAO UMB DOS CULTOS AFRO BRAS    28021910 000031
10231987175000168817800093673    000037312                    000373120000000000000109                     I0137312     28021900000000040003410000017N261218104700000000000102802190000000000000000000000000000000000000000100079034780791PAULO ROBERTO DE SOUZA MORENO           RUA CORONEL MALHAES                     TIRADENTES  26351180NOVA IGUACU    RJUNIAO UMB DOS CULTOS AFRO BRAS    28021910 000032
10231987175000168817800093673    000037311                    000373110000000000000109                     I0137311     28021900000000040003410000017N261218104700000000000102802190000000000000000000000000000000000000000100005229971711CATIA CILENE MASCARENHAS                TRAVESSA AMOR DO CAMPO                  CONJUNTO SAN21843743CAMPO GRANDE   RJUNIAO UMB DOS CULTOS AFRO BRAS    28021910 000033
10231987175000168817800093673    000037310                    000373100000000000000109                     I0137310     28021900000000040003410000017N261218104700000000000102802190000000000000000000000000000000000000000100089982118749LENIR SILVA DOS SANTOS                  RUA DA LUTA                             JARDIM LARAN26291278RIO DE JANEIRO RJUNIAO UMB DOS CULTOS AFRO BRAS    28021910 000034
10231987175000168817800093673    000037309                    000373090000000000000109                     I0137309     28021900000000040003410000017N261218104700000000000102802190000000000000000000000000000000000000000100005215608709KARYN GEYZA BATALHA BOECHAT             RUA GERVASEO                            CENTRO      26550020RIO DE JANEIRO RJUNIAO UMB DOS CULTOS AFRO BRAS    28021910 000035
10231987175000168817800093673    000037308                    000373080000000000000109                     I0137308     28021900000000040003410000017N261218104700000000000102802190000000000000000000000000000000000000000100000905236793ROSE GREGO SILVA DE SOUZA               RUA FLEXAL                              INHAUMA     20766610RIO DE JANEIRO RJUNIAO UMB DOS CULTOS AFRO BRAS    28021910 000036
10231987175000168817800093673    000037307                    000373070000000000000109                     I0137307     28021900000000040003410000017N261218104700000000000102802190000000000000000000000000000000000000000100002406515702GILMA RODRIGUES COUTO                   RUA PEREIRA FRAZAO                      PRACA SECA  21320220RIO DE JANEIRO RJUNIAO UMB DOS CULTOS AFRO BRAS    28021910 000037
10231987175000168817800093673    000037306                    000373060000000000000109                     I0137306     28021900000000040003410000017N261218104700000000000102802190000000000000000000000000000000000000000100051265699704MARIA FATIMA DE SOUSA                   RUA MAURITI DOS SANTOS                  EDEN        25525720RIO DE JANEIRO RJUNIAO UMB DOS CULTOS AFRO BRAS    28021910 000038
10231987175000168817800093673    000037305                    000373050000000000000109                     I0137305     28021900000000040003410000017N261218104700000000000102802190000000000000000000000000000000000000000100064494527734RONALDO ROSAS ALVES                     ESTRADA COMANDANTE                      PRATA       25976140TERESOPOLIS    RJUNIAO UMB DOS CULTOS AFRO BRAS    28021910 000039
10231987175000168817800093673    000037304                    000373040000000000000109                     I0137304     28021900000000040003410000017N261218104700000000000102802190000000000000000000000000000000000000000100060223170704MARIA DO CARMO DO NASCIMENTO S          RUA COBE                                BANGU       21820200RIO DE JANEIRO RJUNIAO UMB DOS CULTOS AFRO BRAS    28021910 000040
10231987175000168817800093673    000037303                    000373030000000000000109                     I0137303     28021900000000040003410000017N261218104700000000000102802190000000000000000000000000000000000000000100064506770749TERESINHA MARIA PEREIRA NOGUEI          BR 116 KM 78 - RUA ROSALINA PEREIRA DA MFONTE SANTA 25976060TERESOPOLIS    RJUNIAO UMB DOS CULTOS AFRO BRAS    28021910 000041
10231987175000168817800093673    000037302                    000373020000000000000109                     I0137302     28021900000000040003410000017N261218104700000000000102802190000000000000000000000000000000000000000100028095391700SERGIO GARCIA DE QUEIROZ                RUA MATO GROSSO                         SANTA CECILI25957250TERESOPOLIS    RJUNIAO UMB DOS CULTOS AFRO BRAS    28021910 000042
10231987175000168817800093673    000037301                    000373010000000000000109                     I0137301     28021900000000040003410000017N261218104700000000000102802190000000000000000000000000000000000000000100043397077753JOAO NORATO CEZARIO                     RUA POETA MANOEL BANDEIRA               CABUIS      26540260NILOPOLIS      RJUNIAO UMB DOS CULTOS AFRO BRAS    28021910 000043
10231987175000168817800093673    000037300                    000373000000000000000109                     I0137300     28021900000000040003410000017N261218104700000000000102802190000000000000000000000000000000000000000100012295676746JEFFERSON ANTONIO TELLES GALDI          RUA MOUZIN DE ALBUQUERQUE               SAO VICENTE 26178080BELFORD ROXO   RJUNIAO UMB DOS CULTOS AFRO BRAS    28021910 000044
10231987175000168817800093673    000037299                    000372990000000000000109                     I0137299     28021900000000040003410000017N261218104700000000000102802190000000000000000000000000000000000000000100091083532715MARCOS AURELIO PEREIRA RAMOS            RUA MATO GROSSO                         SANTA CECILI25957250TERESOPOLIS    RJUNIAO UMB DOS CULTOS AFRO BRAS    28021910 000045
10231987175000168817800093673    000037298                    000372980000000000000109                     I0137298     28021900000000040003410000017N261218104700000000000102802190000000000000000000000000000000000000000100003526002762HELOISA HELENA DE OLIVEIRA DA           RUA DOUTOR MUNIZ                        CENTRO      26130020BELFORD ROXO   RJUNIAO UMB DOS CULTOS AFRO BRAS    28021910 000046
10231987175000168817800093673    000037297                    000372970000000000000109                     I0137297     28021900000000040003410000017N261218104700000000000102802190000000000000000000000000000000000000000100005436665730JORGE LUIZ VICTORIO LIMA                AVENIDA MARCOVALDI                      NOVA ESPERAN26113040BELFORD ROXO   RJUNIAO UMB DOS CULTOS AFRO BRAS    28021910 000047
10231987175000168817800093673    000037296                    000372960000000000000109                     I0137296     28021900000000040003410000017N261218104700000000000102802190000000000000000000000000000000000000000100003005342727MAURICIO ESTORQUE                       RUA SERDIVAO JOSE NICOLAY               JARDIM FEO  25965430TERESOPOLIS    RJUNIAO UMB DOS CULTOS AFRO BRAS    28021910 000048
10231987175000168817800093673    000037295                    000372950000000000000109                     I0137295     28021900000000040003410000017N261218104700000000000102802190000000000000000000000000000000000000000100008046598771ANTONIO DA SILVA BARBOSA                MARIA JOSE FERREIRA DUARTE              ERMITAGE    25975780TERESOPOLIS    RJUNIAO UMB DOS CULTOS AFRO BRAS    28021910 000049
10231987175000168817800093673    000037294                    000372940000000000000109                     I0137294     28021900000000040003410000017N261218104700000000000102802190000000000000000000000000000000000000000100009526018770VERONICA MARIA LIMA                     RUA KEMAL PALHA                         VILA SANTO A25040220DUQUE DE CAXIASRJUNIAO UMB DOS CULTOS AFRO BRAS    28021910 000050
10231987175000168817800093673    000037293                    000372930000000000000109                     I0137293     28021900000000040003410000017N261218104700000000000102802190000000000000000000000000000000000000000100003250570596VERONICA LUCIA DA CRUZ                  ESTRADA DOUTOR FARRULA                  SAO FRANCISC26125400BELFORD ROXO   RJUNIAO UMB DOS CULTOS AFRO BRAS    28021910 000051
10231987175000168817800093673    000037292                    000372920000000000000109                     I0137292     28021900000000040003410000017N261218104700000000000102802190000000000000000000000000000000000000000100059598255700TEREZINHA MARIA DE JESUS PINHE          MANOEL DA SILVA PEREIRA                 PRADOS VERDE26299003NOVA IGUACU    RJUNIAO UMB DOS CULTOS AFRO BRAS    28021910 000052
10231987175000168817800093673    000037291                    000372910000000000000109                     I0137291     28021900000000040003410000017N261218104700000000000102802190000000000000000000000000000000000000000100002527980740ARMANDO DE ALMEIDA                      RUA PEDRO JOSE DE OLIVEIRA              VARGEM GRAND27145231BARRA DO PIRAI RJUNIAO UMB DOS CULTOS AFRO BRAS    28021910 000053
10231987175000168817800093673    000037290                    000372900000000000000109                     I0137290     28021900000000040003410000017N261218104700000000000102802190000000000000000000000000000000000000000100005978854785ALEXANDRE MOTA DOS SANTOS               RUA BRUNO SENDER                        JARDIM NOVA 26266040NOVA IGUACU    RJUNIAO UMB DOS CULTOS AFRO BRAS    28021910 000054
10231987175000168817800093673    000037289                    000372890000000000000109                     I0137289     28021900000000040003410000017N261218104700000000000102802190000000000000000000000000000000000000000100014907708793THIAGO CARVALHO VIDAL LIMA              RUA DONA DUCHA                          MARIA CONGA 25901238MAGE           RJUNIAO UMB DOS CULTOS AFRO BRAS    28021910 000055
10231987175000168817800093673    000037288                    000372880000000000000109                     I0137288     28021900000000040003410000017N261218104700000000000102802190000000000000000000000000000000000000000100082187401715JOSE AUGUSTO DA PAIXAO                  RUA GOMES CARNEIRO                      SARACURUNA  25211050DUQUE DE CAXIASRJUNIAO UMB DOS CULTOS AFRO BRAS    28021910 000056
10231987175000168817800093673    000037287                    000372870000000000000109                     I0137287     28021900000000040003410000017N261218104700000000000102802190000000000000000000000000000000000000000100011622292766ROBERT HELENO MACEDO                    TRAVESSA JOSE CARRETEIRO                ENGENHOCA   24110444NITEROI        RJUNIAO UMB DOS CULTOS AFRO BRAS    28021910 000057
10231987175000168817800093673    000037286                    000372860000000000000109                     I0137286     28021900000000040003410000017N261218104700000000000102802190000000000000000000000000000000000000000100007337231792SAMANTHA PRISCILA MARQUES MORE          RUA INSPETOR CASTRO                     SARACURUNA  25211410DUQUE DE CAXIASRJUNIAO UMB DOS CULTOS AFRO BRAS    28021910 000058
10231987175000168817800093673    000037285                    000372850000000000000109                     I0137285     28021900000000040003410000017N261218104700000000000102802190000000000000000000000000000000000000000100060044055749SUELY DE FARIAS EDUARDO                 TRAVESSA JAFIA                          CIDADE DE DE22772190RIO DE JANEIRO RJUNIAO UMB DOS CULTOS AFRO BRAS    28021910 000059
10231987175000168817800093673    000037284                    000372840000000000000109                     I0137284     28021900000000040003410000017N261218104700000000000102802190000000000000000000000000000000000000000100010860605710MARCIA DA SILVA SIRIACO DA CON          RUA PADRE GIL                           PARQUE BONEV25907096MAGE           RJUNIAO UMB DOS CULTOS AFRO BRAS    28021910 000060
10231987175000168817800093673    000037283                    000372830000000000000109                     I0137283     28021900000000040003410000017N261218104700000000000102802190000000000000000000000000000000000000000100013118884703WESLEI FERREIRA DE CARVALHO             ESTRADA DO GUERENGUE                    TAQUARA     22713004RIO DE JANEIRO RJUNIAO UMB DOS CULTOS AFRO BRAS    28021910 000061
10231987175000168817800093673    000037282                    000372820000000000000109                     I0137282     28021900000000040003410000017N261218104700000000000102802190000000000000000000000000000000000000000100002176741781SUSI DE OLIVEIRA LOUREIRO               RUA FATIMA CRISTINA                     ROSA DOS VEN26278525RIO DE JANEIRO RJUNIAO UMB DOS CULTOS AFRO BRAS    28021910 000062
10231987175000168817800093673    000037281                    000372810000000000000109                     I0137281     28021900000000040003410000017N261218104700000000000102802190000000000000000000000000000000000000000100095846190715ANA MARIA NICANOR DE QUADRO             RUA PASSO FUNDO                         JARDIM GUAND26298189NOVA IGUACU    RJUNIAO UMB DOS CULTOS AFRO BRAS    28021910 000063
10231987175000168817800093673    000037280                    000372800000000000000109                     I0137280     28021900000000040003410000017N261218104700000000000102802190000000000000000000000000000000000000000100001161586709ALEXANDRE PIMPAREL DA SILVA             RUA: COMENDADOR VENACIO                 PALHADA     26290204NOVA IGUACU    RJUNIAO UMB DOS CULTOS AFRO BRAS    28021910 000064
10231987175000168817800093673    000037279                    000372790000000000000109                     I0137279     28021900000000040003410000017N261218104700000000000102802190000000000000000000000000000000000000000100000000000000FABIO DA SILVA                          RUA CAMORIM                             JARDIM DELAM26317140QUEIMADOS      RJUNIAO UMB DOS CULTOS AFRO BRAS    28021910 000065
10231987175000168817800093673    000037278                    000372780000000000000109                     I0137278     28021900000000040003410000017N261218104700000000000102802190000000000000000000000000000000000000000100010765062755IVONE JOAO PEDRO                        RUA MARMIARI                            SENADOR CAMA21831000RIO DE JANEIRO RJUNIAO UMB DOS CULTOS AFRO BRAS    28021910 000066
10231987175000168817800093673    000037277                    000372770000000000000109                     I0137277     28021900000000040003410000017N261218104700000000000102802190000000000000000000000000000000000000000100085957679720MARIA DA APARECIDA VICENTE DUQ          RUA FRANCISCO VIOLTI                    HELIOPLOIS  26125440BELFORD ROXO   RJUNIAO UMB DOS CULTOS AFRO BRAS    28021910 000067
10231987175000168817800093673    000037276                    000372760000000000000109                     I0137276     28021900000000040003410000017N261218104700000000000102802190000000000000000000000000000000000000000100005933193704ANA PAULA DA SILVA SANTOS               RUA APIACA                              JARDIM BARRO25267290DUQUE DE CAXIASRJUNIAO UMB DOS CULTOS AFRO BRAS    28021910 000068
10231987175000168817800093673    000037275                    000372750000000000000109                     I0137275     28021900000000040003410000017N261218104700000000000102802190000000000000000000000000000000000000000100003372466705SANDRO NASCIMENTO NOBREGA               RUA JOAO ROMARIZ                        RAMOS       21031700RIO DE JANEIRO RJUNIAO UMB DOS CULTOS AFRO BRAS    28021910 000069
10231987175000168817800093673    000037274                    000372740000000000000109                     I0137274     28021900000000040003410000017N261218104700000000000102802190000000000000000000000000000000000000000100085542091768SUELY PEREIRA DA SILVA CALIXTO          RUA LUSITANIA II                        IMBARIE     25266005DUQUE DE CAXIASRJUNIAO UMB DOS CULTOS AFRO BRAS    28021910 000070
10231987175000168817800093673    000037273                    000372730000000000000109                     I0137273     28021900000000040003410000017N261218104700000000000102802190000000000000000000000000000000000000000100010718180747JOSE CARLOS MELO DA SILVA               RUA DEPUTADO SA REGO                    VILA SAO LUI25065030DUQUE DE CAXIASRJUNIAO UMB DOS CULTOS AFRO BRAS    28021910 000071
10231987175000168817800093673    000037272                    000372720000000000000109                     I0137272     28021900000000040003410000017N261218104700000000000102802190000000000000000000000000000000000000000100032637128764MARLENE DA CRUZ                         AVENIDA ABILIO AUGUSTO TAVORA           VALVERDE    26290600NOVA IGUACU    RJUNIAO UMB DOS CULTOS AFRO BRAS    28021910 000072
10231987175000168817800093673    000037271                    000372710000000000000109                     I0137271     28021900000000040003410000017N261218104700000000000102802190000000000000000000000000000000000000000100049660632720MARINETE SANTOS DE OLIVEIRA             AVENIDA SANTA CRUZ                      SENADOR CAMA23010003RIO DE JANEIRO RJUNIAO UMB DOS CULTOS AFRO BRAS    28021910 000073
10231987175000168817800093673    000037270                    000372700000000000000109                     I0137270     28021900000000040003410000017N261218104700000000000102802190000000000000000000000000000000000000000100003253352730LUCINEA DUTRA MEDEIROS                  RUA EVALDO BRAGA                        INDEPENDENCI25645300PETROPOLIS     RJUNIAO UMB DOS CULTOS AFRO BRAS    28021910 000074
10231987175000168817800093673    000037269                    000372690000000000000109                     I0137269     28021900000000040003410000017N261218104700000000000102802190000000000000000000000000000000000000000100000858723778GEOVANI FERNANDA DA SILVA               RUA SOFIA BARRETO                       DUMAS - SANT23550700RIO DE JANEIRO RJUNIAO UMB DOS CULTOS AFRO BRAS    28021910 000075
10231987175000168817800093673    000037268                    000372680000000000000109                     I0137268     28021900000000040003410000017N261218104700000000000102802190000000000000000000000000000000000000000100000227210700ROSIMAR TELLES DE SA                    RUA ACAPU                               MARECHAL HER21550570RIO DE JANEIRO RJUNIAO UMB DOS CULTOS AFRO BRAS    28021910 000076
10231987175000168817800093673    000037267                    000372670000000000000109                     I0137267     28021900000000040003410000017N261218104700000000000102802190000000000000000000000000000000000000000100011700984799CRISTIANE SANTOS FEIJO VIEIRA           RUA NICOLAU TOUQUET                     JARDIM CATAR24716403SAO GONCALO    RJUNIAO UMB DOS CULTOS AFRO BRAS    28021910 000077
10231987175000168817800093673    000037266                    000372660000000000000109                     I0137266     28021900000000040003410000017N261218104700000000000102802190000000000000000000000000000000000000000100012345678900MARIA DA GRACA MACHADO DOS SAN          RUA ARCOZELO                            PARQUE ARARU25585560SAO JOAO DE MERRJUNIAO UMB DOS CULTOS AFRO BRAS    28021910 000078
10231987175000168817800093673    000037265                    000372650000000000000109                     I0137265     28021900000000040003410000017N261218104700000000000102802190000000000000000000000000000000000000000100004278587716LUCIANO GONCALVES PIRES                 RUA MARECHAL ANTONIO DE SOUSA           JARDIM AMERI21240430RIO DE JANEIRO RJUNIAO UMB DOS CULTOS AFRO BRAS    28021910 000079
10231987175000168817800093673    000037263                    000372630000000000000109                     I0137263     28021900000000040003410000017N261218104700000000000102802190000000000000000000000000000000000000000100010154945790SIMONE DE OLIVEIRA CUNHA                RUA ONZE                                JARDIM ROTSE25270080DUQUE DE CAXIASRJUNIAO UMB DOS CULTOS AFRO BRAS    28021910 000080
10231987175000168817800093673    000037262                    000372620000000000000109                     I0137262     28021900000000040003410000017N261218104700000000000102802190000000000000000000000000000000000000000100002965368736REGINA CONCEICAO                        AVENIDA BOQUEIRAO                       BOA VISTA   28680000CACHOEIRA DE MARJUNIAO UMB DOS CULTOS AFRO BRAS    28021910 000081
10231987175000168817800093673    000037261                    000372610000000000000109                     I0137261     28021900000000040003410000017N261218104700000000000102802190000000000000000000000000000000000000000100009963194761FERNANDO PECANHA PIRES                  RUA GENERAL BASILIO                     TABORDA     28680000CACHOEIRA DE MARJUNIAO UMB DOS CULTOS AFRO BRAS    28021910 000082
10231987175000168817800093673    000037260                    000372600000000000000109                     I0137260     28021900000000040003410000017N261218104700000000000102802190000000000000000000000000000000000000000100009491065777VIVIAN LUIZA FREITAS DE AGUIAR          RUA ITAPETININGA                        VICENTE DE C21370680RIO DE JANEIRO RJUNIAO UMB DOS CULTOS AFRO BRAS    28021910 000083
10231987175000168817800093673    000037259                    000372590000000000000109                     I0137259     28021900000000040003410000017N261218104700000000000102802190000000000000000000000000000000000000000100002331392730ANA MARIA DOS SANTOS VIEIRA             RUA OITO                                PARQUE ALVOR26053220NOVA IGUACU    RJUNIAO UMB DOS CULTOS AFRO BRAS    28021910 000084
10231987175000168817800093673    000037258                    000372580000000000000109                     I0137258     28021900000000040003410000017N261218104700000000000102802190000000000000000000000000000000000000000100005964958702MARISLEY AMARO DE SOUZA                 RUA MONTE ALTO                          BANGU       21863010RIO DE JANEIRO RJUNIAO UMB DOS CULTOS AFRO BRAS    28021910 000085
10231987175000168817800093673    000037257                    000372570000000000000109                     I0137257     28021900000000040003410000017N261218104700000000000102802190000000000000000000000000000000000000000100003018847733MARIA AILHA BERNARDO PINTO              RUA RUBIAO JUNIOR                       CENTRO      23860000MANGARATIBA    RJUNIAO UMB DOS CULTOS AFRO BRAS    28021910 000086
10231987175000168817800093673    000037256                    000372560000000000000109                     I0137256     28021900000000040003410000017N261218104700000000000102802190000000000000000000000000000000000000000100089207963787NICEIA SANTOS FRANCA                    TRAVESSA VIANA BARBOSA                  SEPETIBA    23550360RIO DE JANEIRO RJUNIAO UMB DOS CULTOS AFRO BRAS    28021910 000087
10231987175000168817800093673    000037255                    000372550000000000000109                     I0137255     28021900000000040003410000017N261218104700000000000102802190000000000000000000000000000000000000000100004275325745MAIKE OLIVEIRA DA COSTA                 TRAVESSA MARTA DA ROCHA                 ABOLICAO    20755030RIO DE JANEIRO RJUNIAO UMB DOS CULTOS AFRO BRAS    28021910 000088
10231987175000168817800093673    000037254                    000372540000000000000109                     I0137254     28021900000000040003410000017N261218104700000000000102802190000000000000000000000000000000000000000100007852297790IRENE FRANCISCO LIMA                    RUA VIRGILIO VARZEA                     VILA SAO LUI25051110DUQUE DE CAXIASRJUNIAO UMB DOS CULTOS AFRO BRAS    28021910 000089
10231987175000168817800093673    000037253                    000372530000000000000109                     I0137253     28021900000000040003410000017N261218104700000000000102802190000000000000000000000000000000000000000100001298660750ROSEMBERG EFIGENIO BARBOSA              RUA TANCREDO MARTINS COSTA              ENGENHO DE D20730310RIO DE JANEIRO RJUNIAO UMB DOS CULTOS AFRO BRAS    28021910 000090
10231987175000168817800093673    000037252                    000372520000000000000109                     I0137252     28021900000000040003410000017N261218104700000000000102802190000000000000000000000000000000000000000100050246534753TANIA MARIA DA SILVA OLIVEIRA           TRAVESSA MARAJO                         LINDO PARQUE24420100SAO GONCALO    RJUNIAO UMB DOS CULTOS AFRO BRAS    28021910 000091
10231987175000168817800093673    000037251                    000372510000000000000109                     I0137251     28021900000000040003410000017N261218104700000000000102802190000000000000000000000000000000000000000100006915594736CINTIA FERREIRA                         RUA VALDEMAR GALDINO                    JARDIM BELO 26480410RIO DE JANEIRO RJUNIAO UMB DOS CULTOS AFRO BRAS    28021910 000092
10231987175000168817800093673    000037250                    000372500000000000000109                     I0137250     28021900000000040003410000017N261218104700000000000102802190000000000000000000000000000000000000000100011497058767DIEGO FERREIRA DA SILVA                 RUA PRIMEIRO DE MAIO                    IPIRANGA    26293480RIO DE JANEIRO RJUNIAO UMB DOS CULTOS AFRO BRAS    28021910 000093
10231987175000168817800093673    000037249                    000372490000000000000109                     I0137249     28021900000000040003410000017N261218104700000000000102802190000000000000000000000000000000000000000100044415443753ELIDE LEANDRO BARBOSA                   RUA ENGENHEIRO PERICLES RIBEIRO         FONSECA     24130350NITEROI        RJUNIAO UMB DOS CULTOS AFRO BRAS    28021910 000094
10231987175000168817800093673    000037248                    000372480000000000000109                     I0137248     28021900000000040003410000017N261218104700000000000102802190000000000000000000000000000000000000000100003387547720APARECIDA DOS SANTOS                    RUA CRACATUA                            HELIOPOLIS  26125170BELFORD ROXO   RJUNIAO UMB DOS CULTOS AFRO BRAS    28021910 000095
10231987175000168817800093673    000037247                    000372470000000000000109                     I0137247     28021900000000040003410000017N261218104700000000000102802190000000000000000000000000000000000000000100009409455766DANIELE MARTINS MEDEIROS DE FR          RUA D                                   BELA VISTA  23860000MANGARATIBA    RJUNIAO UMB DOS CULTOS AFRO BRAS    28021910 000096
10231987175000168817800093673    000037246                    000372460000000000000109                     I0137246     28021900000000040003410000017N261218104700000000000102802190000000000000000000000000000000000000000100000640795706CELIA REGINA ALVES DE SOUZA CO          RUA QUARENTA E SETE                     JARDIM ITAMB24725240SAO GONCALO    RJUNIAO UMB DOS CULTOS AFRO BRAS    28021910 000097
10231987175000168817800093673    000037245                    000372450000000000000109                     I0137245     28021900000000040003410000017N261218104700000000000102802190000000000000000000000000000000000000000100007459837741LUIZ CARLOS CARDOSO                     RUA WALDIR CARDOSO                      PAU GRANDE  25917040MAGE           RJUNIAO UMB DOS CULTOS AFRO BRAS    28021910 000098
10231987175000168817800093673    000037244                    000372440000000000000109                     I0137244     28021900000000040003410000017N261218104700000000000102802190000000000000000000000000000000000000000100023970090563MARCIA VIEIRA SALES                     RUA LOPO SARAIVA                        TANQUE - JAC22740220RIO DE JANEIRO RJUNIAO UMB DOS CULTOS AFRO BRAS    28021910 000099
10231987175000168817800093673    000037243                    000372430000000000000109                     I0137243     28021900000000040003410000017N261218104700000000000102802190000000000000000000000000000000000000000100011264005725MARCELO VIEIRA GUSMAN FILHO             AVENIDA MEDIANEIRA                      COSMOS      23066470RIO DE JANEIRO RJUNIAO UMB DOS CULTOS AFRO BRAS    28021910 000100
10231987175000168817800093673    000037242                    000372420000000000000109                     I0137242     28021900000000040003410000017N261218104700000000000102802190000000000000000000000000000000000000000100001343022738LUCIANA FIGUEIRO COUTINHO DA S          RUA: MANHUACU                           VARGEM GRAND22785600RIO DE JANEIRO RJUNIAO UMB DOS CULTOS AFRO BRAS    28021910 000101
10231987175000168817800093673    000037241                    000372410000000000000109                     I0137241     28021900000000040003410000017N261218104700000000000102802190000000000000000000000000000000000000000100053531396749VITALINA DOS SANTOS                     RUA SAQUAREMA                           GRAMACHO    25035425DUQUE DE CAXIASRJUNIAO UMB DOS CULTOS AFRO BRAS    28021910 000102
10231987175000168817800093673    000037240                    000372400000000000000109                     I0137240     28021900000000040003410000017N261218104700000000000102802190000000000000000000000000000000000000000100003604572746LUCIANA SANTOS DA SILVA DE LIM          RUA MARTINICIA                          PARQUE NOVO 25585110SAO JOAO DE MERRJUNIAO UMB DOS CULTOS AFRO BRAS    28021910 000103
10231987175000168817800093673    000037239                    000372390000000000000109                     I0137239     28021900000000040003410000017N261218104700000000000102802190000000000000000000000000000000000000000100011549239759RENATA DE OLIVEIRA GASPAR               RUA GUANABARA                           MADUREIRA   21350230RIO DE JANEIRO RJUNIAO UMB DOS CULTOS AFRO BRAS    28021910 000104
10231987175000168817800093673    000037238                    000372380000000000000109                     I0137238     28021900000000040003410000017N261218104700000000000102802190000000000000000000000000000000000000000100009145082707ELAINE CRISTINA DE MORAES               RUA GENTIL DO OURO                      AGUIAR TORRE23063340INHOAIBA       RJUNIAO UMB DOS CULTOS AFRO BRAS    28021910 000105
10231987175000168817800093673    000037237                    000372370000000000000109                     I0137237     28021900000000040003410000017N261218104700000000000102802190000000000000000000000000000000000000000100006864504778FABIO GUILHERME DOS SANTOS              ESTRADA JOAO DE ABREU                   MONJOLOS    24723190SAO GONCALO    RJUNIAO UMB DOS CULTOS AFRO BRAS    28021910 000106
10231987175000168817800093673    000037236                    000372360000000000000109                     I0137236     28021900000000040003410000017N261218104700000000000102802190000000000000000000000000000000000000000100013849060705LEONARDO ENEDINA DE MELO                RUA JULIO VERNER                        SANTA RITA  26050517NOVA IGUACU    RJUNIAO UMB DOS CULTOS AFRO BRAS    28021910 000107
10231987175000168817800093673    000037235                    000372350000000000000109                     I0137235     28021900000000040003410000017N261218104700000000000102802190000000000000000000000000000000000000000100085906743715FRANCISCA CELIA LEANDRO NEVES           RUA PAULO VIANA                         ROCHA MIRAND21540460RIO DE JANEIRO RJUNIAO UMB DOS CULTOS AFRO BRAS    28021910 000108
10231987175000168817800093673    000037234                    000372340000000000000109                     I0137234     28021900000000040003410000017N261218104700000000000102802190000000000000000000000000000000000000000100002882629729ANA PAULA DE SOUZA RIBEIRO VIL          RUA DUARTE DE AZEVEDO                   TURIACU     21550130RIO DE JANEIRO RJUNIAO UMB DOS CULTOS AFRO BRAS    28021910 000109
10231987175000168817800093673    000037233                    000372330000000000000109                     I0137233     28021900000000040003410000017N261218104700000000000102802190000000000000000000000000000000000000000100008926305740PATRICIA DOS SANTOS LOPES               RUA: CASTELO AZUL                       JARDIM GUAND26298048NOVA IGUACU    RJUNIAO UMB DOS CULTOS AFRO BRAS    28021910 000110
10231987175000168817800093673    000037232                    000372320000000000000109                     I0137232     28021900000000040003410000017N261218104700000000000102802190000000000000000000000000000000000000000100004842101490MARIA DE LOURDES FARIAS DOS SA          RUA HELIO DE OLIVEIRA                   PARADA MORAB25000000DUQUE DE CAXIASRJUNIAO UMB DOS CULTOS AFRO BRAS    28021910 000111
10231987175000168817800093673    000037231                    000372310000000000000109                     I0137231     28021900000000040003410000017N261218104700000000000102802190000000000000000000000000000000000000000100004253784704ALEXANDRE SIMOES NASCIMENTO             RUA SEBASTIAO DRUMOND                   ANCHIETA    21640360RIO DE JANEIRO RJUNIAO UMB DOS CULTOS AFRO BRAS    28021910 000112
10231987175000168817800093673    000037230                    000372300000000000000109                     I0137230     28021900000000040003410000017N261218104700000000000102802190000000000000000000000000000000000000000100004474701755JACIRA DE ALMEIDA BATISTA JULI          AVENIDA SAO PAULO                       PARQUE MARIL25225660DUQUE DE CAXIASRJUNIAO UMB DOS CULTOS AFRO BRAS    28021910 000113
10231987175000168817800093673    000037229                    000372290000000000000109                     I0137229     28021900000000040003410000017N261218104700000000000102802190000000000000000000000000000000000000000100006424589880LUIZ CARLOS BRITO                       RUA DA LIBERDADE                        TINGUA      26063230NOVA IGUACU    RJUNIAO UMB DOS CULTOS AFRO BRAS    28021910 000114
10231987175000168817800093673    000037228                    000372280000000000000109                     I0137228     28021900000000040003410000017N261218104700000000000102802190000000000000000000000000000000000000000100002413242708NIVEA MARIA NARCIZO CONCEICAO           RUA: DOS JACARANDAS                     ENGENHO DO M24344565NITEROI        RJUNIAO UMB DOS CULTOS AFRO BRAS    28021910 000115
10231987175000168817800093673    000037227                    000372270000000000000109                     I0137227     28021900000000040003410000017N261218104700000000000102802190000000000000000000000000000000000000000100007299785757EDSON NUNES DE SOUZA FILHO              AVENIDA GOUVEIA                         VILA LAGE - 24415050SAO GONCALO    RJUNIAO UMB DOS CULTOS AFRO BRAS    28021910 000116
10231987175000168817800093673    000037226                    000372260000000000000109                     I0137226     28021900000000040003410000017N261218104700000000000102802190000000000000000000000000000000000000000100002209208777ELIELSON DOS SANTOS CARVALHAES          RUA TRES                                LAGOINHA    26296295RIO DE JANEIRO RJUNIAO UMB DOS CULTOS AFRO BRAS    28021910 000117
10231987175000168817800093673    000037225                    000372250000000000000109                     I0137225     28021900000000040003410000017N261218104700000000000102802190000000000000000000000000000000000000000100010456888780TIAGO PINTO ESPOSTI                     ESTRADA MACAE CARAPEBUS                 INGAZEIRA   27963672MACAE          RJUNIAO UMB DOS CULTOS AFRO BRAS    28021910 000118
10231987175000168817800093673    000037224                    000372240000000000000109                     I0137224     28021900000000040003410000017N261218104700000000000102802190000000000000000000000000000000000000000100067424647734MARCIA VALERIA VALIATI DOS SAN          RUA GOMES CARNEIRO                      VILA URUSSA√20735090RIO DE JANEIRO RJUNIAO UMB DOS CULTOS AFRO BRAS    28021910 000119
10231987175000168817800093673    000037223                    000372230000000000000109                     I0137223     28021900000000040003410000017N261218104700000000000102802190000000000000000000000000000000000000000100011688945733ENEDIR RODRIGUES RAMOS                  AVENIDA JOAO BRASIL                     ENGENHOCA   24000000NITEROI        RJUNIAO UMB DOS CULTOS AFRO BRAS    28021910 000120
10231987175000168817800093673    000037222                    000372220000000000000109                     I0137222     28021900000000040003410000017N261218104700000000000102802190000000000000000000000000000000000000000100002621693717JUREMA DE OLIVEIRA RODRIGUES            ESTRADA INTENDENTE MAGALHAES            CAMPINHO    21341330RIO DE JANEIRO RJUNIAO UMB DOS CULTOS AFRO BRAS    28021910 000121
10231987175000168817800093673    000037221                    000372210000000000000109                     I0137221     28021900000000040003410000017N261218104700000000000102802190000000000000000000000000000000000000000100010292272766MARCIA JUPIRA SANTOS GONZAGA            RUA ANTONIO FELIX                       CENTRO      26520081NILOPOLIS      RJUNIAO UMB DOS CULTOS AFRO BRAS    28021910 000122
10231987175000168817800093673    000037220                    000372200000000000000109                     I0137220     28021900000000040003410000017N261218104700000000000102802190000000000000000000000000000000000000000100016492108760TIAGO LOPES DE AZEVEDO SILVA            RUA X                                   PARADA MODEL25943365GUAPIMIRIM     RJUNIAO UMB DOS CULTOS AFRO BRAS    28021910 000123
10231987175000168817800093673    000037218                    000372180000000000000109                     I0137218     28021900000000040003410000017N261218104700000000000102802190000000000000000000000000000000000000000100012993228257ANDREIA CRISTINA VICENTE                RUA CORONEL CARLOS MATOS                PARQUE JOAO 25030140DUQUE DE CAXIASRJUNIAO UMB DOS CULTOS AFRO BRAS    28021910 000124
10231987175000168817800093673    000037217                    000372170000000000000109                     I0137217     28021900000000040003410000017N261218104700000000000102802190000000000000000000000000000000000000000100048972215791MARIA PETRONILHA ROSA NATIVIDA          RUA JACARE ACANGA                       VILA MARIA H25255590DUQUE DE CAXIASRJUNIAO UMB DOS CULTOS AFRO BRAS    28021910 000125
10231987175000168817800093673    000037216                    000372160000000000000109                     I0137216     28021900000000040003410000017N261218104700000000000102802190000000000000000000000000000000000000000100009416663794IGOR DO NASCIMENTO RODRIGUES            RUA FIGUEIREDO ROCHA                    VIGARIO GERA21240660RIO DE JANEIRO RJUNIAO UMB DOS CULTOS AFRO BRAS    28021910 000126
10231987175000168817800093673    000037215                    000372150000000000000109                     I0137215     28021900000000040003410000017N261218104700000000000102802190000000000000000000000000000000000000000100040664325734GENI BARBOSA ROCHA DA SILVA             TRAVESSA DA AMIZADE                     VILA DA PENH25268020RIO DE JANEIRO RJUNIAO UMB DOS CULTOS AFRO BRAS    28021910 000127
10231987175000168817800093673    000037214                    000372140000000000000109                     I0137214     28021900000000040003410000017N261218104700000000000102802190000000000000000000000000000000000000000100012003631755ALEXSANDRO CORREA                       RUA DULIO COSTA                         IRAJA       21235410RIO DE JANEIRO RJUNIAO UMB DOS CULTOS AFRO BRAS    28021910 000128
10231987175000168817800093673    000037213                    000372130000000000000109                     I0137213     28021900000000040003410000017N261218104700000000000102802190000000000000000000000000000000000000000100069279500791CLAUDIA ALONSO RODRIGUES                ESTRADA DO PAU FERRO                    FREGUESIA   22745055RIO DE JANEIRO RJUNIAO UMB DOS CULTOS AFRO BRAS    28021910 000129
10231987175000168817800093673    000037212                    000372120000000000000109                     I0137212     28021900000000040003410000017N261218104700000000000102802190000000000000000000000000000000000000000100087306689720JANAINA SANTA CRUZ COSTA                ALAMEDA SANTO ANTONIO                   SEPETIBA    23535660RIO DE JANEIRO RJUNIAO UMB DOS CULTOS AFRO BRAS    28021910 000130
10231987175000168817800093673    000037211                    000372110000000000000109                     I0137211     28021900000000040003410000017N261218104700000000000102802190000000000000000000000000000000000000000100060210389753ROZANA DOS SANTOS                       RUA CAFE FILHO                          INHOAIBA    23060720RIO DE JANEIRO RJUNIAO UMB DOS CULTOS AFRO BRAS    28021910 000131
10231987175000168817800093673    000037210                    000372100000000000000109                     I0137210     28021900000000040003410000017N261218104700000000000102802190000000000000000000000000000000000000000100084301724753ANA LUCIA FERREIRA DA SILVA             RUA HUGO CESAR MONTEIRO DA SILVA        CAICARA     26015000NOVA IGUACU    RJUNIAO UMB DOS CULTOS AFRO BRAS    28021910 000132
10231987175000168817800093673    000037209                    000372090000000000000109                     I0137209     28021900000000040003410000017N261218104700000000000102802190000000000000000000000000000000000000000100024810517349SILANIA MARIA AGUIAR GOIS               AVENIDA RUY BARBOSA                     SANTA TEREZI36045410JUIZ DE FORA   MGUNIAO UMB DOS CULTOS AFRO BRAS    28021910 000133
10231987175000168817800093673    000037208                    000372080000000000000109                     I0137208     28021900000000040003410000017N261218104700000000000102802190000000000000000000000000000000000000000100003836060710SANDRA VIEIRA DA SILVA TEIXEIR          RUA REDENTOR                            JARDIM REDEN26110090BELFORD ROXO   RJUNIAO UMB DOS CULTOS AFRO BRAS    28021910 000134
10231987175000168817800093673    000037207                    000372070000000000000109                     I0137207     28021900000000040003410000017N261218104700000000000102802190000000000000000000000000000000000000000100076348547787EDIVANICE DE OLIVEIRA DA CRUZ           RUA J J COWSERT                         TOMAS COELHO21370450RIO DE JANEIRO RJUNIAO UMB DOS CULTOS AFRO BRAS    28021910 000135
10231987175000168817800093673    000037206                    000372060000000000000109                     I0137206     28021900000000040003410000017N261218104700000000000102802190000000000000000000000000000000000000000100000891933778MARIA DAS NEVES FERREIRA DO NA          RUA CAMINHO DA CHACARA                  PRACA SECA  22733060RIO DE JANEIRO RJUNIAO UMB DOS CULTOS AFRO BRAS    28021910 000136
10231987175000168817800093673    000037205                    000372050000000000000109                     I0137205     28021900000000040003410000017N261218104700000000000102802190000000000000000000000000000000000000000100074979205704ROSANA HELENA PIRES                     RUA AGAPANTO                            VARGEM GRAND22785000RIO DE JANEIRO RJUNIAO UMB DOS CULTOS AFRO BRAS    28021910 000137
10231987175000168817800093673    000037204                    000372040000000000000109                     I0137204     28021900000000040003410000017N261218104700000000000102802190000000000000000000000000000000000000000100040402711734PAULO CESAR ANASTACIO PEREIRA           RUA BOTOCUDOS                           PARADA MORAB25265351DUQUE DE CAXIASRJUNIAO UMB DOS CULTOS AFRO BRAS    28021910 000138
10231987175000168817800093673    000037203                    000372030000000000000109                     I0137203     28021900000000040003410000017N261218104700000000000102802190000000000000000000000000000000000000000100008401319765ANDRE FERREIRA DE PAULA                 RUA AMERICO ROCHA                       MARECHAL HER21555300RIO DE JANEIRO RJUNIAO UMB DOS CULTOS AFRO BRAS    28021910 000139
10231987175000168817800093673    000037202                    000372020000000000000109                     I0137202     28021900000000040003410000017N261218104700000000000102802190000000000000000000000000000000000000000100058365737787ALTAMIRA ROSA                           AVENIDA DO CONTORNO                     PARADA MORAB25000000DUQUE DE CAXIASRJUNIAO UMB DOS CULTOS AFRO BRAS    28021910 000140
10231987175000168817800093673    000037201                    000372010000000000000109                     I0137201     28021900000000040003410000017N261218104700000000000102802190000000000000000000000000000000000000000100074171372704ELIANE DE SOUZA MACHADO                 RUA ROQUETE PINTO                       JARDIM ANHAN25265200DUQUE DE CAXIASRJUNIAO UMB DOS CULTOS AFRO BRAS    28021910 000141
10231987175000168817800093673    000037200                    000372000000000000000109                     I0137200     28021900000000040003410000017N261218104700000000000102802190000000000000000000000000000000000000000100053218833787MARLUCE SUELY DA SILVA                  RUA ESCRAVA ISAURA                      BRIZAMAR    23825380RIO DE JANEIRO RJUNIAO UMB DOS CULTOS AFRO BRAS    28021910 000142
10231987175000168817800093673    000037199                    000371990000000000000109                     I0137199     28021900000000040003410000017N261218104700000000000102802190000000000000000000000000000000000000000100090617249744RAQUEL DA PAZ                           RUA ITABIBOCA                           PARADA MORAB25265188DUQUE DE CAXIASRJUNIAO UMB DOS CULTOS AFRO BRAS    28021910 000143
10231987175000168817800093673    000037198                    000371980000000000000109                     I0137198     28021900000000040003410000017N261218104700000000000102802190000000000000000000000000000000000000000100079882749704IRIS BRASILINO VILELA                   RUA DONA ALZIRA                         FIGUEIRA II 26022202NOVA IGUACU    RJUNIAO UMB DOS CULTOS AFRO BRAS    28021910 000144
10231987175000168817800093673    000037197                    000371970000000000000109                     I0137197     28021900000000040003410000017N261218104700000000000102802190000000000000000000000000000000000000000100082191638791RITA DE CASSIA VALVERDE ROCHA           RUA JOAQUIM SOARES NETO                 NOVA AMERICA26021560NOVA IGUACU    RJUNIAO UMB DOS CULTOS AFRO BRAS    28021910 000145
10231987175000168817800093673    000037196                    000371960000000000000109                     I0137196     28021900000000040003410000017N261218104700000000000102802190000000000000000000000000000000000000000100069052735700ROSANE MARQUES FERREIRA                 AVENIDA PEDRO GERALDO DE ALMEIDA        CAMPO GRANDE23076160RIO DE JANEIRO RJUNIAO UMB DOS CULTOS AFRO BRAS    28021910 000146
10231987175000168817800093673    000037195                    000371950000000000000109                     I0137195     28021900000000040003410000017N261218104700000000000102802190000000000000000000000000000000000000000100004244337709WANDERSON SANTOS DA SILVA               AVENIDA DAS AMERICAS                    RECREIO DOS 22790330RIO DE JANEIRO RJUNIAO UMB DOS CULTOS AFRO BRAS    28021910 000147
10231987175000168817800093673    000037194                    000371940000000000000109                     I0137194     28021900000000040003410000017N261218104700000000000102802190000000000000000000000000000000000000000100014520518792STEPHANI MATOS MONTEIRO                 ESTRADA DOUTOR PLINIO CASADO            CENTRO      26130622BELFORD ROXO   RJUNIAO UMB DOS CULTOS AFRO BRAS    28021910 000148
10231987175000168817800093673    000037193                    000371930000000000000109                     I0137193     28021900000000040003410000017N261218104700000000000102802190000000000000000000000000000000000000000100012727461780SUELMIR LIMA DE ARAUJO                  RUA NOSSA SENHORA DAS GRACAS            PRAIA DO ANI25925708MAGE           RJUNIAO UMB DOS CULTOS AFRO BRAS    28021910 000149
10231987175000168817800093673    000037192                    000371920000000000000109                     I0137192     28021900000000040003410000017N261218104700000000000102802190000000000000000000000000000000000000000100002142304737ILAIR FERNANDES BRAZILEIRO BOR          RUA VERISSIMO MACHADO                   ROCHA MIRAND21545060RIO DE JANEIRO RJUNIAO UMB DOS CULTOS AFRO BRAS    28021910 000150
10231987175000168817800093673    000037191                    000371910000000000000109                     I0137191     28021900000000040003410000017N261218104700000000000102802190000000000000000000000000000000000000000100001346375771CRISTIANE MARIANO RAPELLO               ESTRADA ALBERTO TEIXEIRA CUNHA          NOSSA SENHOR26520070NILOPOLIS      RJUNIAO UMB DOS CULTOS AFRO BRAS    28021910 000151
10231987175000168817800093673    000037190                    000371900000000000000109                     I0137190     28021900000000040003410000017N261218104700000000000102802190000000000000000000000000000000000000000100011351878786GLEISSON BITTENCOURT DA SILVA           RUA FLORA DE ARAUJO                     PRATA       26010570NOVA IGUACU    RJUNIAO UMB DOS CULTOS AFRO BRAS    28021910 000152
10231987175000168817800093673    000037189                    000371890000000000000109                     I0137189     28021900000000040003410000017N261218104700000000000102802190000000000000000000000000000000000000000100000839586736MAURO CESAR BRANCO OBERLAENDER          RUA IGUARIM                             REALENGO    21765540RIO DE JANEIRO RJUNIAO UMB DOS CULTOS AFRO BRAS    28021910 000153
10231987175000168817800093673    000037188                    000371880000000000000109                     I0137188     28021900000000040003410000017N261218104700000000000102802190000000000000000000000000000000000000000100011766861784MARIA WANDERLEIA MARTINS CRUZ           RUA BRUNO LECINI                        AUSTIN      26279255NOVA IGUACU    RJUNIAO UMB DOS CULTOS AFRO BRAS    28021910 000154
10231987175000168817800093673    000037187                    000371870000000000000109                     I0137187     28021900000000040003410000017N261218104700000000000102802190000000000000000000000000000000000000000100070645523704RICARDO DE SOUZA LIMA                   RUA MAJOR AZEVEDO                       IRAJA       21230060RIO DE JANEIRO RJUNIAO UMB DOS CULTOS AFRO BRAS    28021910 000155
10231987175000168817800093673    000037186                    000371860000000000000109                     I0137186     28021900000000040003410000017N261218104700000000000102802190000000000000000000000000000000000000000100068373570772RONILCE CAMILO DA SILVA                 RUA RUBY ALBERTORIA                     GERENCIANO  26061155NOVA IGUACU    RJUNIAO UMB DOS CULTOS AFRO BRAS    28021910 000156
10231987175000168817800093673    000037185                    000371850000000000000109                     I0137185     28021900000000040003410000017N261218104700000000000102802190000000000000000000000000000000000000000100047442140700MARFIZA FERREIRA DA SILVA VENA          RUA EURICO COELHO                       GRAMA       26060650NOVA IGUACU    RJUNIAO UMB DOS CULTOS AFRO BRAS    28021910 000157
10231987175000168817800093673    000037184                    000371840000000000000109                     I0137184     28021900000000040003410000017N261218104700000000000102802190000000000000000000000000000000000000000100007620451157JUCIARA BARRETO DA SILVA                RUA G                                   PIABETA     25900000MAGE           RJUNIAO UMB DOS CULTOS AFRO BRAS    28021910 000158
10231987175000168817800093673    000037183                    000371830000000000000109                     I0137183     28021900000000040003410000017N261218104700000000000102802190000000000000000000000000000000000000000100000680684760CREUSA MARCIA SATURNINO ALVES           RUA NOSSA SENHORA DE NAZARE N           GERENCIANO  26061700NOVA IGUACU    RJUNIAO UMB DOS CULTOS AFRO BRAS    28021910 000159
10231987175000168817800093673    000037182                    000371820000000000000109                     I0137182     28021900000000040003410000017N261218104700000000000102802190000000000000000000000000000000000000000100002375024702FATIMA APARECIDA OLIVEIRA DE C          RUA OURO PRETO                          COQUEIRAL   20740280RIO DE JANEIRO RJUNIAO UMB DOS CULTOS AFRO BRAS    28021910 000160
10231987175000168817800093673    000037181                    000371810000000000000109                     I0137181     28021900000000040003410000017N261218104700000000000102802190000000000000000000000000000000000000000100005828675761THAYS DE FATIMA FERREIRA GOMES          ESTRADA GENERAL AFONSO DE CARVALHO      PADRE MIGUEL21725020RIO DE JANEIRO RJUNIAO UMB DOS CULTOS AFRO BRAS    28021910 000161
10231987175000168817800093673    000037180                    000371800000000000000109                     I0137180     28021900000000040003410000017N261218104700000000000102802190000000000000000000000000000000000000000100076994511715MARIA DAS GRACAS SANTOS DA SIL          RUA ISLANDIA                            SARACURUNA  00000000DUQUE DE CAXIASRJUNIAO UMB DOS CULTOS AFRO BRAS    28021910 000162
10231987175000168817800093673    000037179                    000371790000000000000109                     I0137179     28021900000000040003410000017N261218104700000000000102802190000000000000000000000000000000000000000100001317692780SELENE FREIRE DE ARAUJO CANNAN          RUA DA CONQUISTA                        JARDIM ESPLA26013330NOVA IGUACU    RJUNIAO UMB DOS CULTOS AFRO BRAS    28021910 000163
10231987175000168817800093673    000037178                    000371780000000000000109                     I0137178     28021900000000040003410000017N261218104700000000000102802190000000000000000000000000000000000000000100006027343710SUELI REIS DIAS DA SILVA                RUA TAPAJOS                             OURO VERDE -26262480NOVA IGUACU    RJUNIAO UMB DOS CULTOS AFRO BRAS    28021910 000164
10231987175000168817800093673    000037177                    000371770000000000000109                     I0137177     28021900000000040003410000017N261218104700000000000102802190000000000000000000000000000000000000000100056381832720DAVI LEMOS MOREIRA                      RUA CARLINDA                            VILA DE CAVA26052120NOVA IGUACU    RJUNIAO UMB DOS CULTOS AFRO BRAS    28021910 000165
10231987175000168817800093673    000037176                    000371760000000000000109                     I0137176     28021900000000040003410000017N261218104700000000000102802190000000000000000000000000000000000000000100074824996791ELIANE DA SILVA CAMACHO                 RUA MAJOR REGO                          OLARIA      21073440RIO DE JANEIRO RJUNIAO UMB DOS CULTOS AFRO BRAS    28021910 000166
10231987175000168817800093673    000037175                    000371750000000000000109                     I0137175     28021900000000040003410000017N261218104700000000000102802190000000000000000000000000000000000000000100025814712149JAIR FERREIRA FILHO                     ESTRADA PRESIDENTE CASTELO BRANCO       EDSON PASSOS00000000RIO DE JANEIRO RJUNIAO UMB DOS CULTOS AFRO BRAS    28021910 000167
10231987175000168817800093673    000037174                    000371740000000000000109                     I0137174     28021900000000040003410000017N261218104700000000000102802190000000000000000000000000000000000000000100010276278704ROSELI DE OLIVEIRA DUTRA                RUA UM                                  TAQUARA     25275110DUQUE DE CAXIASRJUNIAO UMB DOS CULTOS AFRO BRAS    28021910 000168
10231987175000168817800093673    000037173                    000371730000000000000109                     I0137173     28021900000000040003410000017N261218104700000000000102802190000000000000000000000000000000000000000100000000000000VIVIANE MORAES ALEXANDRINO              RUA JOAQUIM MOREIRA                     SEPETIBA    23545054RIO DE JANEIRO RJUNIAO UMB DOS CULTOS AFRO BRAS    28021910 000169
10231987175000168817800093673    000037172                    000371720000000000000109                     I0137172     28021900000000040003410000017N261218104700000000000102802190000000000000000000000000000000000000000100014641727732DAVI SILVA BARBOSA LIMA                 TRAVESSA ANTONIO AARAO                  SEPETIBA    23540030RIO DE JANEIRO RJUNIAO UMB DOS CULTOS AFRO BRAS    28021910 000170
10231987175000168817800093673    000037171                    000371710000000000000109                     I0137171     28021900000000040003410000017N261218104700000000000102802190000000000000000000000000000000000000000100056717784768LENIR MARTINS COUTO                     ESTRADA BR 101                          MURIQUI     23870000RIO DE JANEIRO RJUNIAO UMB DOS CULTOS AFRO BRAS    28021910 000171
10231987175000168817800093673    000037170                    000371700000000000000109                     I0137170     28021900000000040003410000017N261218104700000000000102802190000000000000000000000000000000000000000100005646881773DEBORA LINS                             RUA LACONIA                             JARDIM AMAPA26182230BELFORD ROXO   RJUNIAO UMB DOS CULTOS AFRO BRAS    28021910 000172
10231987175000168817800093673    000037169                    000371690000000000000109                     I0137169     28021900000000040003410000017N261218104700000000000102802190000000000000000000000000000000000000000100002377869764ANA PAULA OLIVEIRA DE ANDRADE           RUA FERNANDO DA COSTA                   PARQUE MARTI26183543BELFORD ROXO   RJUNIAO UMB DOS CULTOS AFRO BRAS    28021910 000173
10231987175000168817800093673    000037168                    000371680000000000000109                     I0137168     28021900000000040003410000017N261218104700000000000102802190000000000000000000000000000000000000000100059110465715ZEILTON VIEIRA NUNES                    ESTRADA VELHA RIO DOURADO               PALMITAL    28891090RIO DAS OSTRAS RJUNIAO UMB DOS CULTOS AFRO BRAS    28021910 000174
10231987175000168817800093673    000037167                    000371670000000000000109                     I0137167     28021900000000040003410000017N261218104700000000000102802190000000000000000000000000000000000000000100038835568749MARIA DE ALCANTARA GOULART SIL          RUA GAMBIA                              JACAREPAGUA 22775400RIO DE JANEIRO RJUNIAO UMB DOS CULTOS AFRO BRAS    28021910 000175
10231987175000168817800093673    000037166                    000371660000000000000109                     I0137166     28021900000000040003410000017N261218104700000000000102802190000000000000000000000000000000000000000100011998959708ARTUR TAVARES DA SILVA NETO             RUA PREFEITO JOAO CARLOS VITAL          CROACIA - SE23540080RIO DE JANEIRO RJUNIAO UMB DOS CULTOS AFRO BRAS    28021910 000176
10231987175000168817800093673    000037165                    000371650000000000000109                     I0137165     28021900000000040003410000017N261218104700000000000102802190000000000000000000000000000000000000000100008502438743ALINE RAMOS DE SOUZA DA SILVA           RUA DOUTOR ISMAEL CAVALCANTI            SEPETIBA    23545145RIO DE JANEIRO RJUNIAO UMB DOS CULTOS AFRO BRAS    28021910 000177
10231987175000168817800093673    000037164                    000371640000000000000109                     I0137164     28021900000000040003410000017N261218104700000000000102802190000000000000000000000000000000000000000100007103755736ALESSANDRA COSTA DE BARROS              PRACA OSCAR ROSSIM                      SEPETIBA    23540250RIO DE JANEIRO RJUNIAO UMB DOS CULTOS AFRO BRAS    28021910 000178
10231987175000168817800093673    000037163                    000371630000000000000109                     I0137163     28021900000000040003410000017N261218104700000000000102802190000000000000000000000000000000000000000100002420898796ROSILENE MATHEUS DE CARVALHO            RUA KEMAL PACHA                         VILA SANTO A25040220DUQUE DE CAXIASRJUNIAO UMB DOS CULTOS AFRO BRAS    28021910 000179
10231987175000168817800093673    000037162                    000371620000000000000109                     I0137162     28021900000000040003410000017N261218104700000000000102802190000000000000000000000000000000000000000100014563820717PAULA GOMES DA SILVA MOTTA              RUA GABRIEL DANUSIO                     VILA SANTO A25040230DUQUE DE CAXIASRJUNIAO UMB DOS CULTOS AFRO BRAS    28021910 000180
10231987175000168817800093673    000037161                    000371610000000000000109                     I0137161     28021900000000040003410000017N261218104700000000000102802190000000000000000000000000000000000000000100000000000587IZABEL GONCALVES DA ROCHA               RUA NOSSA SENHORA DA GUIA               VILA DE CAVA26062192NOVA IGUACU    RJUNIAO UMB DOS CULTOS AFRO BRAS    28021910 000181
10231987175000168817800093673    000037160                    000371600000000000000109                     I0137160     28021900000000040003410000017N261218104700000000000102802190000000000000000000000000000000000000000100009946366797SIMONE SOARES NEA                       RUA FLAVIO RANGEL                       CAMPO GRANDE23085430RIO DE JANEIRO RJUNIAO UMB DOS CULTOS AFRO BRAS    28021910 000182
10231987175000168817800093673    000037159                    000371590000000000000109                     I0137159     28021900000000040003410000017N261218104700000000000102802190000000000000000000000000000000000000000100030422175749LENI MENDUI√ëA DA SILVA GUERRA          RUA ADOLFO DE CARVALHO                  ENGENHEIRO B25520240RIO DE JANEIRO RJUNIAO UMB DOS CULTOS AFRO BRAS    28021910 000183
10231987175000168817800093673    000037158                    000371580000000000000109                     I0137158     28021900000000040003410000017N261218104700000000000102802190000000000000000000000000000000000000000100002638717703EDINO GOMES DE BARROS JUNIOR            RUA PARANA                              MORRO DO ORI24400000SAO GONCALO    RJUNIAO UMB DOS CULTOS AFRO BRAS    28021910 000184
10231987175000168817800093673    000037157                    000371570000000000000109                     I0137157     28021900000000040003410000017N261218104700000000000102802190000000000000000000000000000000000000000100000920173713JORGE DOS SANTOS LUCAS                  RUA PP                                  JARDIM ANHAN25264360DUQUE DE CAXIASRJUNIAO UMB DOS CULTOS AFRO BRAS    28021910 000185
10231987175000168817800093673    000037156                    000371560000000000000109                     I0137156     28021900000000040003410000017N261218104700000000000102802190000000000000000000000000000000000000000100009483806755MARCO ANTONIO ATAIDE DE MELO            TRAVESSA MARAPE                         COSTA BARROS21515240RIO DE JANEIRO RJUNIAO UMB DOS CULTOS AFRO BRAS    28021910 000186
10231987175000168817800093673    000037155                    000371550000000000000109                     I0137155     28021900000000040003410000017N261218104700000000000102802190000000000000000000000000000000000000000100013791358774TEREZINHA MENDONCA CORDEIRO             RUA SUEZ                                JARDIM GUAND26298180NOVA IGUACU    RJUNIAO UMB DOS CULTOS AFRO BRAS    28021910 000187
10231987175000168817800093673    000037154                    000371540000000000000109                     I0137154     28021900000000040003410000017N261218104700000000000102802190000000000000000000000000000000000000000100058101543791JANETE BARBOSA FERREIRA                 AVENIDA SUBURBANA                       ITAIPU      26127380BELFORD ROXO   RJUNIAO UMB DOS CULTOS AFRO BRAS    28021910 000188
10231987175000168817800093673    000037153                    000371530000000000000109                     I0137153     28021900000000040003410000017N261218104700000000000102802190000000000000000000000000000000000000000100043488994791CELIA REGINA DA SILVA TEIXEIRA          RUA Y                                   JARDIM PALMA23065583RIO DE JANEIRO RJUNIAO UMB DOS CULTOS AFRO BRAS    28021910 000189
10231987175000168817800093673    000037152                    000371520000000000000109                     I0137152     28021900000000040003410000017N261218104700000000000102802190000000000000000000000000000000000000000100007545291778ANDRE LUIS DA SILVA                     RUA VASCO DA GAMA                       PARQUE ESTOR26063190NOVA IGUACU    RJUNIAO UMB DOS CULTOS AFRO BRAS    28021910 000190
10231987175000168817800093673    000037151                    000371510000000000000109                     I0137151     28021900000000040003410000017N261218104700000000000102802190000000000000000000000000000000000000000100003025076712MARIA QUITERIA DOS SANTOS PITA          RUA MISSIONARIO CHRISTIE                QUISSAMA    25615250PETROPOLIS     RJUNIAO UMB DOS CULTOS AFRO BRAS    28021910 000191
10231987175000168817800093673    000037150                    000371500000000000000109                     I0137150     28021900000000040003410000017N261218104700000000000102802190000000000000000000000000000000000000000100062988050791REGINA LUCIA DE SOUZA SANTOS            RUA ENGENHEIRO LAFAYETE STOCKLER        VILA DA PENH21221390RIO DE JANEIRO RJUNIAO UMB DOS CULTOS AFRO BRAS    28021910 000192
10231987175000168817800093673    000037149                    000371490000000000000109                     I0137149     28021900000000040003410000017N261218104700000000000102802190000000000000000000000000000000000000000100001857739744JORGE DE MORAES ESTANISLAU              RUA TITANIC                             REALENGO    21735620RIO DE JANEIRO RJUNIAO UMB DOS CULTOS AFRO BRAS    28021910 000193
10231987175000168817800093673    000037148                    000371480000000000000109                     I0137148     28021900000000040003410000017N261218104700000000000102802190000000000000000000000000000000000000000100001251801790AMARO LYRA DOS SANTOS FILHO             RUA DOUTOR ANTONIO MARTINS              TAQUARA     22723650RIO DE JANEIRO RJUNIAO UMB DOS CULTOS AFRO BRAS    28021910 000194
10231987175000168817800093673    000037147                    000371470000000000000109                     I0137147     28021900000000040003410000017N261218104700000000000102802190000000000000000000000000000000000000000100010016543752ALEXANDRE TEIXEIRA CAVALCANTE           RUA DOUTOR NUNES                        OLARIA      21021370RIO DE JANEIRO RJUNIAO UMB DOS CULTOS AFRO BRAS    28021910 000195
10231987175000168817800093673    000037146                    000371460000000000000109                     I0137146     28021900000000040003410000017N261218104700000000000102802190000000000000000000000000000000000000000100048672068734NOEMIA CONCEICAO DE SOUZA               ESTRADA DO CAMORIM                      JACAREPAGUA 20765040RIO DE JANEIRO RJUNIAO UMB DOS CULTOS AFRO BRAS    28021910 000196
10231987175000168817800093673    000037145                    000371450000000000000109                     I0137145     28021900000000040003410000017N261218104700000000000102802190000000000000000000000000000000000000000100002846505608DIONE ROSA FERNANDES                    RUA MARQUES DE LEAO                     ENGENHO NOVO20780140RIO DE JANEIRO RJUNIAO UMB DOS CULTOS AFRO BRAS    28021910 000197
10231987175000168817800093673    000037144                    000371440000000000000109                     I0137144     28021900000000040003410000017N261218104700000000000102802190000000000000000000000000000000000000000100002520859733ZILAIR SANTOS BARBOSA                   RUA MARANGA                             PRACA SECA  21321060RIO DE JANEIRO RJUNIAO UMB DOS CULTOS AFRO BRAS    28021910 000198
10231987175000168817800093673    000037143                    000371430000000000000109                     I0137143     28021900000000040003410000017N261218104700000000000102802190000000000000000000000000000000000000000100033890145787ADEMILSON ANTONIO DE MENEZES            RUA ALMEIDA JUNIOR                      PANTANAL    25041390DUQUE DE CAXIASRJUNIAO UMB DOS CULTOS AFRO BRAS    28021910 000199
10231987175000168817800093673    000037142                    000371420000000000000109                     I0137142     28021900000000040003410000017N261218104700000000000102802190000000000000000000000000000000000000000100066514118704MARILIA GARCIA DA PAIXAO                RUA FRANCOLIM                           GUADALUPE   21660130RIO DE JANEIRO RJUNIAO UMB DOS CULTOS AFRO BRAS    28021910 000200
10231987175000168817800093673    000037141                    000371410000000000000109                     I0137141     28021900000000040003410000017N261218104700000000000102802190000000000000000000000000000000000000000100001010828789JUSSARA DA SILVA GONCALVES DAM          RUA TRINTA E TRES                       NOVA CIDADE 24804185ITABORAI       RJUNIAO UMB DOS CULTOS AFRO BRAS    28021910 000201
10231987175000168817800093673    000037140                    000371400000000000000109                     I0137140     28021900000000040003410000017N261218104700000000000102802190000000000000000000000000000000000000000100014199569731LUIS FILIPE SANTOS COSTA                ESTRADA DOUTOR JOAQUIM NICOLAU          PRACA PONTE 26900000MIGUEL PEREIRA RJUNIAO UMB DOS CULTOS AFRO BRAS    28021910 000202
10231987175000168817800093673    000037139                    000371390000000000000109                     I0137139     28021900000000040003410000017N261218104700000000000102802190000000000000000000000000000000000000000100000000012767REGINA CELIA DE OLIVEIRA DA SI          RUA VENANCIO                            OLAVO BILAC 25035340DUQUE DE CAXIASRJUNIAO UMB DOS CULTOS AFRO BRAS    28021910 000203
10231987175000168817800093673    000037138                    000371380000000000000109                     I0137138     28021900000000040003410000017N261218104700000000000102802190000000000000000000000000000000000000000100053470095787OSVALDO VALENTE COELHO FILHO            RUA VISCONDE DE SABOIA                  CAVALCANTI  21370220RIO DE JANEIRO RJUNIAO UMB DOS CULTOS AFRO BRAS    28021910 000204
10231987175000168817800093673    000037137                    000371370000000000000109                     I0137137     28021900000000040003410000017N261218104700000000000102802190000000000000000000000000000000000000000100053211839704ALCIONE SOUZA DOS SANTOS                RUA MARINO FELIX                        SEPETIBA    23535006RIO DE JANEIRO RJUNIAO UMB DOS CULTOS AFRO BRAS    28021910 000205
10231987175000168817800093673    000037136                    000371360000000000000109                     I0137136     28021900000000040003410000017N261218104700000000000102802190000000000000000000000000000000000000000100000559929781KLEBER SIQUEIRA CUNHA                   ESTRADA DO PIAI                         GUARATIBA   23028050RIO DE JANEIRO RJUNIAO UMB DOS CULTOS AFRO BRAS    28021910 000206
10231987175000168817800093673    000037135                    000371350000000000000109                     I0137135     28021900000000040003410000017N261218104700000000000102802190000000000000000000000000000000000000000100099586860768MARLECI NAVARRO DE FARIA                RUA CURUPAETI                           VILA VICOSA 21230075RIO DE JANEIRO RJUNIAO UMB DOS CULTOS AFRO BRAS    28021910 000207
10231987175000168817800093673    000037134                    000371340000000000000109                     I0137134     28021900000000040003410000017N261218104700000000000102802190000000000000000000000000000000000000000100045544085749LUCIANO PORTO DE MORAES                 RUA OLIMPIO DE CARVALHO                 AMENDOEIRA  24732440SAO GONCALO    RJUNIAO UMB DOS CULTOS AFRO BRAS    28021910 000208
10231987175000168817800093673    000037133                    000371330000000000000109                     I0137133     28021900000000040003410000017N261218104700000000000102802190000000000000000000000000000000000000000100091473209749CRISTOVAO JOSE DA SILVA MAGALH          RUA VICTORIO PEREIRA NUNES              CASTELANEA  25640262PETROPOLIS     RJUNIAO UMB DOS CULTOS AFRO BRAS    28021910 000209
10231987175000168817800093673    000037132                    000371320000000000000109                     I0137132     28021900000000040003410000017N261218104700000000000102802190000000000000000000000000000000000000000100001653081767DEISE SIQUEIRA                          RUA PARLON SIQUEIRA                     BARRA DE GUA23020510RIO DE JANEIRO RJUNIAO UMB DOS CULTOS AFRO BRAS    28021910 000210
10231987175000168817800093673    000037131                    000371310000000000000109                     I0137131     28021900000000040003410000017N261218104700000000000102802190000000000000000000000000000000000000000100067287581787MARIA DA CONCEICAO DE LIMA              RUA ALTO BOA VISTA                      VILAR DOS TE25565410SAO JOAO DE MERRJUNIAO UMB DOS CULTOS AFRO BRAS    28021910 000211
10231987175000168817800093673    000037130                    000371300000000000000109                     I0137130     28021900000000040003410000017N261218104700000000000102802190000000000000000000000000000000000000000100002721212745MARILIA CLAUDIA DA SILVA CORRE          RUA CAIRO                               VILA URUSSAY25255470SAO JOAO DE MERRJUNIAO UMB DOS CULTOS AFRO BRAS    28021910 000212
10231987175000168817800093673    000037129                    000371290000000000000109                     I0137129     28021900000000040003410000017N261218104700000000000102802190000000000000000000000000000000000000000100003013793783GIOVANA SURAMA BRANDAO MONFORT          RUA JOAO TELES                          CENTRO      26550100MESQUITA       RJUNIAO UMB DOS CULTOS AFRO BRAS    28021910 000213
10231987175000168817800093673    000037128                    000371280000000000000109                     I0137128     28021900000000040003410000017N261218104700000000000102802190000000000000000000000000000000000000000100009199332701LUANDA MOREIRA DOS SANTOS FERN          RUA EMILIA BORBA                        SURUI       25931152RIO DE JANEIRO RJUNIAO UMB DOS CULTOS AFRO BRAS    28021910 000214
10231987175000168817800093673    000037127                    000371270000000000000109                     I0137127     28021900000000040003410000017N261218104700000000000102802190000000000000000000000000000000000000000100002813320706COSME PAULO DA COSTA CRAVO              RUA: PADRE MANOEL DE NOBREGA            QUINTINO BOC21381009RIO DE JANEIRO RJUNIAO UMB DOS CULTOS AFRO BRAS    28021910 000215
10231987175000168817800093673    000037126                    000371260000000000000109                     I0137126     28021900000000040003410000017N261218104700000000000102802190000000000000000000000000000000000000000100000000001274DALILA REIS PIMENTA                     RUA TESOURO                             SANTA TEREZI00000000NOVA IGUACU    RJUNIAO UMB DOS CULTOS AFRO BRAS    28021910 000216
10231987175000168817800093673    000037125                    000371250000000000000109                     I0137125     28021900000000040003410000017N261218104700000000000102802190000000000000000000000000000000000000000100002102287768SERGIO RICARDO FERREIRA DOS SA          RUA LAGUNA                              NOVA PIAM   26116620BELFORD ROXO   RJUNIAO UMB DOS CULTOS AFRO BRAS    28021910 000217
10231987175000168817800093673    000037124                    000371240000000000000109                     I0137124     28021900000000040003410000017N261218104700000000000102802190000000000000000000000000000000000000000100003009392729MARIA DA PENHA FLORENCIO                RUA SABUJI DIM ROTSEN                   JARDIM ROTSE25270030DUQUE DE CAXIASRJUNIAO UMB DOS CULTOS AFRO BRAS    28021910 000218
10231987175000168817800093673    000037123                    000371230000000000000109                     I0137123     28021900000000040003410000017N261218104700000000000102802190000000000000000000000000000000000000000100001147868794VALERIA APARECIDA DE SOUZA              RUA ALCYR BRASIL                        JARDIM NOVA 26266010NOVA IGUACU    RJUNIAO UMB DOS CULTOS AFRO BRAS    28021910 000219
10231987175000168817800093673    000037122                    000371220000000000000109                     I0137122     28021900000000040003410000017N261218104700000000000102802190000000000000000000000000000000000000000100007900227709FLAVIA ARAUJO DA ROCHA SANTOS           RUA MARECHAL AGRICOLA                   REALENGO    21735370RIO DE JANEIRO RJUNIAO UMB DOS CULTOS AFRO BRAS    28021910 000220
10231987175000168817800093673    000037121                    000371210000000000000109                     I0137121     28021900000000040003410000017N261218104700000000000102802190000000000000000000000000000000000000000100005361904708VANESSA SANTIAGO DE AZEVEDO BA          AVENIDA TEIXEIRA DE CASTRO              RAMOS       21040113RIO DE JANEIRO RJUNIAO UMB DOS CULTOS AFRO BRAS    28021910 000221
10231987175000168817800093673    000037120                    000371200000000000000109                     I0137120     28021900000000040003410000017N261218104700000000000102802190000000000000000000000000000000000000000100099941120749ERNELIA DA SILVA                        RUA JOSE BEZZ                           GABRIEL UM  24856172ITABORAI       RJUNIAO UMB DOS CULTOS AFRO BRAS    28021910 000222
10231987175000168817800093673    000037119                    000371190000000000000109                     I0137119     28021900000000040003410000017N261218104700000000000102802190000000000000000000000000000000000000000100001430160756RITA DE CASSIA CORMACK DE CARV          RUA: MANOEL IVO                         VILA TRES - 24711030SAO GONCALO    RJUNIAO UMB DOS CULTOS AFRO BRAS    28021910 000223
10231987175000168817800093673    000037118                    000371180000000000000109                     I0137118     28021900000000040003410000017N261218104700000000000102802190000000000000000000000000000000000000000100002362714748MAGLENE GOMES ARAUJO                    RUA TENENTE PINTO DUARTE                BENTO RIBEIR21550370RIO DE JANEIRO RJUNIAO UMB DOS CULTOS AFRO BRAS    28021910 000224
10231987175000168817800093673    000037117                    000371170000000000000109                     I0137117     28021900000000040003410000017N261218104700000000000102802190000000000000000000000000000000000000000100001148949739MARIA DAS GRACAS SEBASTIANA DO          RUA PEREIRA PINTO                       TOMAS COELHO20761350RIO DE JANEIRO RJUNIAO UMB DOS CULTOS AFRO BRAS    28021910 000225
10231987175000168817800093673    000037116                    000371160000000000000109                     I0137116     28021900000000040003410000017N261218104700000000000102802190000000000000000000000000000000000000000100088640809704JULIO CESAR SARAIVA PIRES               ESTRADA SANTA MAURA                     CURICICA - J22780170RIO DE JANEIRO RJUNIAO UMB DOS CULTOS AFRO BRAS    28021910 000226
10231987175000168817800093673    000037115                    000371150000000000000109                     I0137115     28021900000000040003410000017N261218104700000000000102802190000000000000000000000000000000000000000100064947130768MARIA GORETE DE SOUSA MIRANDA           AVENIDA PASTEUR                         PARQUE ALIAN25550210SAO JOAO DE MERRJUNIAO UMB DOS CULTOS AFRO BRAS    28021910 000227
10231987175000168817800093673    000037114                    000371140000000000000109                     I0137114     28021900000000040003410000017N261218104700000000000102802190000000000000000000000000000000000000000100001034293796LILIA NERES DE ALMEIDA                  RUA VERISSIMO MACHADO                   ROCHA MIRAND21542060RIO DE JANEIRO RJUNIAO UMB DOS CULTOS AFRO BRAS    28021910 000228
10231987175000168817800093673    000037113                    000371130000000000000109                     I0137113     28021900000000040003410000017N261218104700000000000102802190000000000000000000000000000000000000000100012781404764RICARDO RIBEIRO DOS SANTOS              RUA ITAGIBA                             COSMOS      23060450RIO DE JANEIRO RJUNIAO UMB DOS CULTOS AFRO BRAS    28021910 000229
10231987175000168817800093673    000037112                    000371120000000000000109                     I0137112     28021900000000040003410000017N261218104700000000000102802190000000000000000000000000000000000000000100010426625765ALESSANDRA LAURIANO LIMA DOMIN          RUA PROJETADA                           ANCORA      28899515RIO DAS OSTRAS RJUNIAO UMB DOS CULTOS AFRO BRAS    28021910 000230
10231987175000168817800093673    000037111                    000371110000000000000109                     I0137111     28021900000000040003410000017N261218104700000000000102802190000000000000000000000000000000000000000100077601505716NADIA MARIA DE BRITTO LUCENA            RUA LIBERATO BITENCOURT                 MAGALHAES BA21735120RIO DE JANEIRO RJUNIAO UMB DOS CULTOS AFRO BRAS    28021910 000231
10231987175000168817800093673    000037110                    000371100000000000000109                     I0137110     28021900000000040003410000017N261218104700000000000102802190000000000000000000000000000000000000000100000000000000JUSSARA BALBINO GENUARIO                RUA DAS MARGARIDAS                      CHAPERO     23830240ITAGUAI        RJUNIAO UMB DOS CULTOS AFRO BRAS    28021910 000232
10231987175000168817800093673    000037109                    000371090000000000000109                     I0137109     28021900000000040003410000017N261218104700000000000102802190000000000000000000000000000000000000000100080592368491MARIA JOSE PEREIRA NOGUEIRA DE          ALAMEDA GOIANIA                         ENGENHO DO R24752520SAO GONCALO    RJUNIAO UMB DOS CULTOS AFRO BRAS    28021910 000233
10231987175000168817800093673    000037108                    000371080000000000000109                     I0137108     28021900000000045003410000017N261218104700000000000102802190000000000000000000000000000000000000000100004524099778CRISTIANE VIEIRA DAS CHAGAS             AVENIDA SANTA CRUZ                      BANGU       21830000RIO DE JANEIRO RJUNIAO UMB DOS CULTOS AFRO BRAS    28021910 000234
10231987175000168817800093673    000037107                    000371070000000000000109                     I0137107     28021900000000040003410000017N261218104700000000000102802190000000000000000000000000000000000000000100015295681700MICHEL FERNANDES BASTOS CRESPO          RUA ROSANGELA TOSTES                    PARQUE FLUMI26185260BELFORD ROXO   RJUNIAO UMB DOS CULTOS AFRO BRAS    28021910 000235
10231987175000168817800093673    000037106                    000371060000000000000109                     I0137106     28021900000000040003410000017N261218104700000000000102802190000000000000000000000000000000000000000100001456619705ROSANGELA DAMASCENO                     AVENIDA RAUL BARROS VIEIRA              BANGU       21864230RIO DE JANEIRO RJUNIAO UMB DOS CULTOS AFRO BRAS    28021910 000236
10231987175000168817800093673    000037105                    000371050000000000000109                     I0137105     28021900000000040003410000017N261218104700000000000102802190000000000000000000000000000000000000000100005364326780CARLOS ROBERTO DOLORES CORREA           ESTRADA ADHEMAR BEBIANO                 DEL CASTILHO21051071RIO DE JANEIRO RJUNIAO UMB DOS CULTOS AFRO BRAS    28021910 000237
10231987175000168817800093673    000037104                    000371040000000000000109                     I0137104     28021900000000040003410000017N261218104700000000000102802190000000000000000000000000000000000000000100080974015768SHEYLA REGINA SERAPHIM DA HORA          RUA CAMBAI                              QUINTINO BOC21380300RIO DE JANEIRO RJUNIAO UMB DOS CULTOS AFRO BRAS    28021910 000238
10231987175000168817800093673    000037103                    000371030000000000000109                     I0137103     28021900000000040003410000017N261218104700000000000102802190000000000000000000000000000000000000000100003410130721ADELISE DE FREITAS PALACIO              RUA EMBIRI                              BENTO RIBEIR21331690RIO DE JANEIRO RJUNIAO UMB DOS CULTOS AFRO BRAS    28021910 000239
10231987175000168817800093673    000037102                    000371020000000000000109                     I0137102     28021900000000040003410000017N261218104700000000000102802190000000000000000000000000000000000000000100090036018791SILVIA ELAINE GEVEGIR DA SILVA          RUA VINTE                               PARADA MORAB25265130DUQUE DE CAXIASRJUNIAO UMB DOS CULTOS AFRO BRAS    28021910 000240
10231987175000168817800093673    000037101                    000371010000000000000109                     I0137101     28021900000000040003410000017N261218104700000000000102802190000000000000000000000000000000000000000100014653084742THEILOR MORAIS DE MIRANDA               RUA SAO BENEDITO                        VILA GENI   23826010ITAGUAI        RJUNIAO UMB DOS CULTOS AFRO BRAS    28021910 000241
10231987175000168817800093673    000037100                    000371000000000000000109                     I0137100     28021900000000040003410000017N261218104700000000000102802190000000000000000000000000000000000000000100040433307749IARA BARBOSA MACHADO                    RUA SAO FIDELIS                         PRADOS VERDE26299165NOVA IGUACU    RJUNIAO UMB DOS CULTOS AFRO BRAS    28021910 000242
10231987175000168817800093673    000037099                    000370990000000000000109                     I0137099     28021900000000040003410000017N261218104700000000000102802190000000000000000000000000000000000000000100002045675726ROBSON DOS SANTOS ABREU                 RUA PERCILIANA EMILIA DO NASCIMENTO     SILVESTRE   23092540CAMPO GRANDE   RJUNIAO UMB DOS CULTOS AFRO BRAS    28021910 000243
10231987175000168817800093673    000037098                    000370980000000000000109                     I0137098     28021900000000040003410000017N261218104700000000000102802190000000000000000000000000000000000000000100005793791752WANDERSON DAMASCENO CATARINO            RUA JOAO ROSA                           BARRO VERMEL24415150SAO GONCALO    RJUNIAO UMB DOS CULTOS AFRO BRAS    28021910 000244
10231987175000168817800093673    000037097                    000370970000000000000109                     I0137097     28021900000000040003410000017N261218104700000000000102802190000000000000000000000000000000000000000100001968753790ROSANGELA CRISTINA GOULART              RUA JOSE MANUEL DELGADO                 GRANJA FLORE25964240TERESOPOLIS    RJUNIAO UMB DOS CULTOS AFRO BRAS    28021910 000245
10231987175000168817800093673    000037096                    000370960000000000000109                     I0137096     28021900000000040003410000017N261218104700000000000102802190000000000000000000000000000000000000000100075254590700NOELY OUVERNEY PEIXOTO SERRA            RUA DOUTOR BORMAN                       CENTRO      24020320NITEROI        RJUNIAO UMB DOS CULTOS AFRO BRAS    28021910 000246
10231987175000168817800093673    000037095                    000370950000000000000109                     I0137095     28021900000000040003410000017N261218104700000000000102802190000000000000000000000000000000000000000100003346596710ROSILENI ROSA DA SILVA                  RUA: PARANAVAI                          BOA VISTA   24466170NITEROI        RJUNIAO UMB DOS CULTOS AFRO BRAS    28021910 000247
10231987175000168817800093673    000037094                    000370940000000000000109                     I0137094     28021900000000040003410000017N261218104700000000000102802190000000000000000000000000000000000000000100053606259769ROSILANE FRANCISCA DOS SANTOS           RUA ARTUR FARIAS                        RIO DO DOURO25922184MAGE           RJUNIAO UMB DOS CULTOS AFRO BRAS    28021910 000248
10231987175000168817800093673    000037093                    000370930000000000000109                     I0137093     28021900000000040003410000017N261218104700000000000102802190000000000000000000000000000000000000000100060774282720ROSANGELA MOURA VALENTE                 RUA CINQUENTA E QUATRO                  JARDIM ATLAN24934220MARICA         RJUNIAO UMB DOS CULTOS AFRO BRAS    28021910 000249
