01REMESSA01COBRANCA       916200163100        União Umb dos Cultos Afro Bra341BANCO ITAU SA  080518                                                                                                                                                                                                                                                                                                      000001
10231987175000168916200163100    000014679                    000146790000000000000109                     I0114679     30061800000000035003410000017N070518104700000000000103006180000000000000000000000000000000000000000200000000001769MARIA DA PIEDADE SANTANA DOS S          RUA SERGIO JOAO PEREIRA, 365            HELIOPOLIS -26123460BELFORD ROXO   RJUNIAO UMB DOS CULTOS AFRO BRAS    30061810 000002
10231987175000168916200163100    000014678                    000146780000000000000109                     I0114678     30061800000000035003410000017N070518104700000000000103006180000000000000000000000000000000000000000100076103137774VICENTE DE PAULA PEREIRA                RUA POTINGUARA, 253                     BOA ESPERANC26113720BELFORD ROXO   RJUNIAO UMB DOS CULTOS AFRO BRAS    30061810 000003
10231987175000168916200163100    000014677                    000146770000000000000109                     I0114677     30061800000000035003410000017N070518104700000000000103006180000000000000000000000000000000000000000100010324446730DEBORA ANDRADE SILVA                    O MESMO                                 O MESMO     22720360RIO DE JANEIRO RJUNIAO UMB DOS CULTOS AFRO BRAS    30061810 000004
10231987175000168916200163100    000014676                    000146760000000000000109                     I0114676     30061800000000035003410000017N070518104700000000000103006180000000000000000000000000000000000000000100005556657718EDUARDO DE OLIVEIRA SILVA               AV. GETULIO DE MOURA LOTE 9 QUADRA 1    A.PORTO / S.25520660SAO JOAO DE MERRJUNIAO UMB DOS CULTOS AFRO BRAS    30061810 000005
10231987175000168916200163100    000014675                    000146750000000000000109                     I0114675     30061800000000035003410000017N070518104700000000000103006180000000000000000000000000000000000000000100062497073791SIDIRENE FRANCISCO MACHADO              RUA PALMEIRA DAS MISSOES 422 FUNDOS     VILA SANTA R23015220CAMPO GRANDE   RJUNIAO UMB DOS CULTOS AFRO BRAS    30061810 000006
10231987175000168916200163100    000014674                    000146740000000000000109                     I0114674     30061800000000035003410000017N070518104700000000000103006180000000000000000000000000000000000000000100003250127760MARIA ZULEICA CRUZ DA SILVA             O MESMO                                 O MESMO     26010421NOVA IGUACU    RJUNIAO UMB DOS CULTOS AFRO BRAS    30061810 000007
10231987175000168916200163100    000014673                    000146730000000000000109                     I0114673     30061800000000035003410000017N070518104700000000000103006180000000000000000000000000000000000000000100014708764774ADILSON CARNEIRO PINTO                  R JUREMA 49                             GUARATIBA   23035380RIO DE JANEIRO RJUNIAO UMB DOS CULTOS AFRO BRAS    30061810 000008
10231987175000168916200163100    000014672                    000146720000000000000109                     I0114672     30061800000000035003410000017N070518104700000000000103006180000000000000000000000000000000000000000100009886046716ANA CRISTINA DE ALMEIDA TRINDA          O MESMO                                 O MESMO     21555020RIO DE JANEIRO RJUNIAO UMB DOS CULTOS AFRO BRAS    30061810 000009
10231987175000168916200163100    000014671                    000146710000000000000109                     I0114671     30061800000000035003410000017N070518104700000000000103006180000000000000000000000000000000000000000100063440512720SILVANA MANGIA DE SOUZA                 RUA ACANTO N 20                         BANGU - RJ  21830080RIO DE JANEIRO RJUNIAO UMB DOS CULTOS AFRO BRAS    30061810 000010
10231987175000168916200163100    000014670                    000146700000000000000109                     I0114670     30061800000000035003410000017N070518104700000000000103006180000000000000000000000000000000000000000100063441314700AMARA DE CARVALHO DANIEL                RUA FREDERICO LEAL N 146 CASA 2         BANGU - RIO 21825110RIO DE JANEIRO RJUNIAO UMB DOS CULTOS AFRO BRAS    30061810 000011
10231987175000168916200163100    000014669                    000146690000000000000109                     I0114669     30061800000000035003410000017N070518104700000000000103006180000000000000000000000000000000000000000100072596317753CLAUDIA IVONE CAETANO DA SILVA          RUA NADIA MARIA DA SILVEIRA MENEZES LOTEVENDA VELHA 25580110SAO JOAO DE MERRJUNIAO UMB DOS CULTOS AFRO BRAS    30061810 000012
10231987175000168916200163100    000014668                    000146680000000000000109                     I0114668     30061800000000035003410000017N070518104700000000000103006180000000000000000000000000000000000000000100043397170706VERA LUCIA FERREIRA DA SILVA            RUA ALICE N 183                         COMENDADOR S26262030NOVA IGUACU    RJUNIAO UMB DOS CULTOS AFRO BRAS    30061810 000013
10231987175000168916200163100    000014667                    000146670000000000000109                     I0114667     30061800000000035003410000017N070518104700000000000103006180000000000000000000000000000000000000000100089041950710ANA LUCIA GUIMARAES MOURA ALVE          RUA CARLOS ILIDRO N 189                 BANCARIOS - 21910160ILHA DO GOVERNARJUNIAO UMB DOS CULTOS AFRO BRAS    30061810 000014
10231987175000168916200163100    000014666                    000146660000000000000109                     I0114666     30061800000000035003410000017N070518104700000000000103006180000000000000000000000000000000000000000100015827814784THAYNAN ERNANDES DA SILVA PINH          RUA EXPEDICIONARIO AMERICO FERNANDES N 2RIO DO OURO 24752300SAO GONCALO    RJUNIAO UMB DOS CULTOS AFRO BRAS    30061810 000015
10231987175000168916200163100    000014665                    000146650000000000000109                     I0114665     30061800000000035003410000017N070518104700000000000103006180000000000000000000000000000000000000000200000000007695MARCO ANTONIO DA COSTA                  RUA LOIR NOGUEIRA LOTE 10 QUADRA 11     RIO DO OURO 24752840SAO GONCALO    RJUNIAO UMB DOS CULTOS AFRO BRAS    30061810 000016
10231987175000168916200163100    000014664                    000146640000000000000109                     I0114664     30061800000000035003410000017N070518104700000000000103006180000000000000000000000000000000000000000100020857690701MARCELO ANTONIO COSTA TEIXEIRA          RUA TUPINIQUINS N 220 FUNDOS            VICENTE DE C21370630RIO DE JANEIRO RJUNIAO UMB DOS CULTOS AFRO BRAS    30061810 000017
10231987175000168916200163100    000014663                    000146630000000000000109                     I0114663     30061800000000035003410000017N070518104700000000000103006180000000000000000000000000000000000000000200000000007679HUGO XAVIER                             AVENIDA PRESIDENTE VARGAS, 2007 APTO 130CENTRO - RJ 20210030RIO DE JANEIRO RJUNIAO UMB DOS CULTOS AFRO BRAS    30061810 000018
10231987175000168916200163100    000014662                    000146620000000000000109                     I0114662     30061800000000035003410000017N070518104700000000000103006180000000000000000000000000000000000000000100078980119704SERGIO LUIZ DE BRITO                    TRAVESSA BRANDAO N 145 - ENGENHOCA      BARRETO - NI24110636NITEROI        RJUNIAO UMB DOS CULTOS AFRO BRAS    30061810 000019
10231987175000168916200163100    000014661                    000146610000000000000109                     I0114661     30061800000000035003410000017N070518104700000000000103006180000000000000000000000000000000000000000100073518573772MERCIA DO NASCIMENTO CAVALCANT          RUA BERNARDO MONTEIRO, LT 62 QD 151     JARDIM OLAVO25025320DUQUE DE CAXIASRJUNIAO UMB DOS CULTOS AFRO BRAS    30061810 000020
10231987175000168916200163100    000014660                    000146600000000000000109                     I0114660     30061800000000035003410000017N070518104700000000000103006180000000000000000000000000000000000000000100054222141704WALMIR CARVALHO GUIMARAES               RUA BOA VIAGEM, 186 CASA                IPIRANGA - N26293591NOVA IGUACU    RJUNIAO UMB DOS CULTOS AFRO BRAS    30061810 000021
10231987175000168916200163100    000014659                    000146590000000000000109                     I0114659     30061800000000035003410000017N070518104700000000000103006180000000000000000000000000000000000000000100056864680797SONIA MARIA DA SILVA                    RUA A, 11 - LOTEAMENTO SANTA MARIA      CAMBOTA - VA27600000VALENCIA       RJUNIAO UMB DOS CULTOS AFRO BRAS    30061810 000022
10231987175000168916200163100    000014658                    000146580000000000000109                     I0114658     30061800000000035003410000017N070518104700000000000103006180000000000000000000000000000000000000000100001478169710TANIA MARIA ALVES CANEJO                RUA CAPITAO BARBOSA, 287 APTO 102       PRAIA DA BAN21921525RIO DE JANEIRO RJUNIAO UMB DOS CULTOS AFRO BRAS    30061810 000023
10231987175000168916200163100    000014657                    000146570000000000000109                     I0114657     30061800000000035003410000017N070518104700000000000103006180000000000000000000000000000000000000000100003537257732MARIA APARECIDA RISTICH MACHAD          RUA DIAS DA CRUZ N 923                  MEIER - RIO 20720011RIO DE JANEIRO RJUNIAO UMB DOS CULTOS AFRO BRAS    30061810 000024
10231987175000168916200163100    000014656                    000146560000000000000109                     I0114656     30061800000000035003410000017N070518104700000000000103006180000000000000000000000000000000000000000100000330025767NUBIA VIRGINIA DE ANDRADE MAGA          O MESMO                                 O MESMO     23573100RIO DE JANEIRO RJUNIAO UMB DOS CULTOS AFRO BRAS    30061810 000025
10231987175000168916200163100    000014655                    000146550000000000000109                     I0114655     30061800000000035003410000017N070518104700000000000103006180000000000000000000000000000000000000000100076896960744MARIA LUCIA DE OLIVEIRA NUNES           AVENIDA DO CORRETOR N 116               VILA ALIANCA21842340RIO DE JANEIRO RJUNIAO UMB DOS CULTOS AFRO BRAS    30061810 000026
10231987175000168916200163100    000014654                    000146540000000000000109                     I0114654     30061800000000035003410000017N070518104700000000000103006180000000000000000000000000000000000000000200000000007506APARECIDA SILVA RIBEIRO                 RUA PEDRO TELLES N 566 CASA 4           CENTRO - SAO25515003SAO JOAO DE MERRJUNIAO UMB DOS CULTOS AFRO BRAS    30061810 000027
10231987175000168916200163100    000014653                    000146530000000000000109                     I0114653     30061800000000035003410000017N070518104700000000000103006180000000000000000000000000000000000000000200000000002062ROBERTO LUIZ MEDEIROS                   RUA OLIMPIO, LOTE 35 QUADRA 29          HELIOPOLIS -26125215BELFORD ROXO   RJUNIAO UMB DOS CULTOS AFRO BRAS    30061810 000028
10231987175000168916200163100    000014652                    000146520000000000000109                     I0114652     30061800000000035003410000017N070518104700000000000103006180000000000000000000000000000000000000000100003351761783CLAUDIA LUZIA PEREIRA                   O MESMO                                 O MESMO     26187495BELFORD ROXO   RJUNIAO UMB DOS CULTOS AFRO BRAS    30061810 000029
10231987175000168916200163100    000014651                    000146510000000000000109                     I0114651     30061800000000035003410000017N070518104700000000000103006180000000000000000000000000000000000000000100092410480772JOSE LIMA DA SILVA                      RUA: JURANDIR LIMA Nº 40 - SANTA RITA /NOVA IGUACU 26051040NOVA IGUACU    RJUNIAO UMB DOS CULTOS AFRO BRAS    30061810 000030
10231987175000168916200163100    000014650                    000146500000000000000109                     I0114650     30061800000000035003410000017N070518104700000000000103006180000000000000000000000000000000000000000100000000007532CARLOS MURILO CARDOSO DE CARVA          O MESMO                                 O MESMO     24730002SAO GONCALO    RJUNIAO UMB DOS CULTOS AFRO BRAS    30061810 000031
10231987175000168916200163100    000014649                    000146490000000000000109                     I0114649     30061800000000035003410000017N070518104700000000000103006180000000000000000000000000000000000000000100055177182720VALNEI FERNANDES DA SILVA               RUA DOUTOR JOSE MANOEL N 262            SANTA CATARI24420070SAO GONCALO    RJUNIAO UMB DOS CULTOS AFRO BRAS    30061810 000032
10231987175000168916200163100    000014648                    000146480000000000000109                     I0114648     30061800000000035003410000017N070518104700000000000103006180000000000000000000000000000000000000000100007062360767IVONETE GOMES DOS SANTOS                AVENIDA PORTO DA MADAME, 555            GRADIM - SAO24431310SAO GONCALO    RJUNIAO UMB DOS CULTOS AFRO BRAS    30061810 000033
10231987175000168916200163100    000014647                    000146470000000000000109                     I0114647     30061800000000035003410000017N070518104700000000000103006180000000000000000000000000000000000000000200000000007490CARLOS JOSE PEREIRA                     RUA MESSIAS DE SOUZA N 93               CENTRO - BEL26130280BELFORD ROXO   RJUNIAO UMB DOS CULTOS AFRO BRAS    30061810 000034
10231987175000168916200163100    000014646                    000146460000000000000109                     I0114646     30061800000000035003410000017N070518104700000000000103006180000000000000000000000000000000000000000200000000001981IZABEL DE SOUZA MARTINS                 RUA NOVA YORK, 20                       JARDIM AMERI23810660ITAGUAI        RJUNIAO UMB DOS CULTOS AFRO BRAS    30061810 000035
10231987175000168916200163100    000014645                    000146450000000000000109                     I0114645     30061800000000035003410000017N070518104700000000000103006180000000000000000000000000000000000000000100000475441710KASSIA DAMAZIO SOBRINHO                 RUA OPNIAO LIBERA, 27                   JACAREPAGUA 22715130RIO DE JANEIRO RJUNIAO UMB DOS CULTOS AFRO BRAS    30061810 000036
10231987175000168916200163100    000014644                    000146440000000000000109                     I0114644     30061800000000035003410000017N070518104700000000000103006180000000000000000000000000000000000000000200000000001813JOSE ROMERO LEITE MARTINS               RUA ALCOBACA, 1345 CASA 1               ANCHIETA - R21645001RIO DE JANEIRO RJUNIAO UMB DOS CULTOS AFRO BRAS    30061810 000037
10231987175000168916200163100    000014643                    000146430000000000000109                     I0114643     30061800000000035003410000017N070518104700000000000103006180000000000000000000000000000000000000000200000000001778VANIA MEDEIROS COUTINHO                 RUA TEREZA, LOTE 4 QUADRA 4             PARQUE SUECI25245470BELFORD ROXO   RJUNIAO UMB DOS CULTOS AFRO BRAS    30061810 000038
10231987175000168916200163100    000014642                    000146420000000000000109                     I0114642     30061800000000035003410000017N070518104700000000000103006180000000000000000000000000000000000000000100003449740733JOSE CARLOS MOREIRA BENTO               RUA DELFIM MOREIRA  LOTE 5 QUADRA 12 CASVILA SAPE  M25922220MAGE           RJUNIAO UMB DOS CULTOS AFRO BRAS    30061810 000039
10231987175000168916200163100    000014641                    000146410000000000000109                     I0114641     30061800000000035003410000017N070518104700000000000103006180000000000000000000000000000000000000000200000000007417CECILIA DOS SANTOS                      RUA MARIO DE ALENCAR LOTE 52            LARANJAL - S24725170SAO GONCALO    RJUNIAO UMB DOS CULTOS AFRO BRAS    30061810 000040
10231987175000168916200163100    000014640                    000146400000000000000109                     I0114640     30061800000000035003410000017N070518104700000000000103006180000000000000000000000000000000000000000100037497928791ANASTACIA CANDIDO RAIMUNDO              RUA ALAMEDA 33 - CHAO DE ESTRELAS N 84  PAVUNA - RIO21521100RIO DE JANEIRO RJUNIAO UMB DOS CULTOS AFRO BRAS    30061810 000041
10231987175000168916200163100    000014639                    000146390000000000000109                     I0114639     30061800000000035003410000017N070518104700000000000103006180000000000000000000000000000000000000000200000000001715MARIA DA PENHA ANASTACIA DE OL          RUA MARATUBA, 6 FUNDOS                  RICARDO DE A21620430RIO DE JANEIRO RJUNIAO UMB DOS CULTOS AFRO BRAS    30061810 000042
10231987175000168916200163100    000014638                    000146380000000000000109                     I0114638     30061800000000035003410000017N070518104700000000000103006180000000000000000000000000000000000000000100069085986753CARMEM PIRES DE SOUZA                   RUA PRAIA DE BOTAFOGO N 460 APT 1138    BOTAFOGO - R22250040RIO DE JANEIRO RJUNIAO UMB DOS CULTOS AFRO BRAS    30061810 000043
10231987175000168916200163100    000014637                    000146370000000000000109                     I0114637     30061800000000035003410000017N070518104700000000000103006180000000000000000000000000000000000000000100084964910725LIA MARIA DA SILVA                      RUA LUIZ QUEIROZ DE NOGUEIRA, LOTE 26 QUCOLUBANDE - 24744020SAO GONCALO    RJUNIAO UMB DOS CULTOS AFRO BRAS    30061810 000044
10231987175000168916200163100    000014636                    000146360000000000000109                     I0114636     30061800000000040003410000017N070518104700000000000103006180000000000000000000000000000000000000000200000000002253JOSE AMERICO ELIAS DE MIRANDA           RUA JAIME MUNIZ, LOTE 1 QUADRA 12       ITAUNA - SAO24474070SAO GONCALO    RJUNIAO UMB DOS CULTOS AFRO BRAS    30061810 000045
10231987175000168916200163100    000014635                    000146350000000000000109                     I0114635     30061800000000035003410000017N070518104700000000000103006180000000000000000000000000000000000000000100061991465734JANDIRA AMELIA PAULA DE OLIVEI          RUA SALVADOR DO MONTE, 487 (ANTIGA RUA OBOACU - SAO 24467300SAO GONCALO    RJUNIAO UMB DOS CULTOS AFRO BRAS    30061810 000046
10231987175000168916200163100    000014634                    000146340000000000000109                     I0114634     30061800000000035003410000017N070518104700000000000103006180000000000000000000000000000000000000000100047613165787ANA SUELI DA GAMA GLORIA                RUA DAMAS BATISTA N 902                 JARDIM TROPI26011010NOVA IGUACU    RJUNIAO UMB DOS CULTOS AFRO BRAS    30061810 000047
10231987175000168916200163100    000014633                    000146330000000000000109                     I0114633     30061800000000035003410000017N070518104700000000000103006180000000000000000000000000000000000000000100002734506700CARLOS HENRIQUE ARAUJO                  RUA MARQUES CANARIO N 725               NOSSA SENHOR26520770NILOPOLIS      RJUNIAO UMB DOS CULTOS AFRO BRAS    30061810 000048
10231987175000168916200163100    000014632                    000146320000000000000109                     I0114632     30061800000000035003410000017N070518104700000000000103006180000000000000000000000000000000000000000100044188269715SEBASTIANA SOUZA SANTOS                 RUA ARI BARROSO N 193                   JARDIM LUCIA26050410NOVA IGUACU    RJUNIAO UMB DOS CULTOS AFRO BRAS    30061810 000049
10231987175000168916200163100    000014631                    000146310000000000000109                     I0114631     30061800000000035003410000017N070518104700000000000103006180000000000000000000000000000000000000000200000000007152LECY PEREIRA CARDOSO                    ESTRADA DO CARRO QUEBRADO N 639 CASA 1  FIGUEIRAS - 26051740NOVA IGUACU    RJUNIAO UMB DOS CULTOS AFRO BRAS    30061810 000050
10231987175000168916200163100    000014630                    000146300000000000000109                     I0114630     30061800000000035003410000017N070518104700000000000103006180000000000000000000000000000000000000000200000000007124NORMA RAMOS VIANNA                      AVENIDA PERNAMBUCANA, 1680              V.ROSALI - S25510430SAO JOAO DE MERRJUNIAO UMB DOS CULTOS AFRO BRAS    30061810 000051
10231987175000168916200163100    000014629                    000146290000000000000109                     I0114629     30061800000000035003410000017N070518104700000000000103006180000000000000000000000000000000000000000100082347301772MARISTELA TORQUATO SILVA BRITT          O MESMO                                 O MESMO     26535340NILOPOLIS      RJUNIAO UMB DOS CULTOS AFRO BRAS    30061810 000052
10231987175000168916200163100    000014628                    000146280000000000000109                     I0114628     30061800000000035003410000017N070518104700000000000103006180000000000000000000000000000000000000000200000000002241MARIA CANDIDA BRANDAO ALVES             RUA MARLICE EMANUEL, 155                JARDIM ALVOR26265230NOVA IGUACU    RJUNIAO UMB DOS CULTOS AFRO BRAS    30061810 000053
10231987175000168916200163100    000014627                    000146270000000000000109                     I0114627     30061800000000035003410000017N070518104700000000000103006180000000000000000000000000000000000000000100031471811700GLORIA CORREIA                          RUA SA FERREIRA  120 APTO  1003         COPACABANA  22071100RIO DE JANEIRO RJUNIAO UMB DOS CULTOS AFRO BRAS    30061810 000054
10231987175000168916200163100    000014626                    000146260000000000000109                     I0114626     30061800000000035003410000017N070518104700000000000103006180000000000000000000000000000000000000000200000000002221CRISTIANO LIMA DOS SANTOS               RUA SEBASTIAO GOUVEIA, QUADRA 9 LOTE 39 SAO FRANCISC26353010NOVA IGUACU    RJUNIAO UMB DOS CULTOS AFRO BRAS    30061810 000055
10231987175000168916200163100    000014625                    000146250000000000000109                     I0114625     30061800000000035003410000017N070518104700000000000103006180000000000000000000000000000000000000000100001272334740VALERIA MARIA MOREIRA                   RUA: EUDINO EGGER Nº 70 - JARDIM CATARISAO GONCALO 32472290SAO GONCALO    RJUNIAO UMB DOS CULTOS AFRO BRAS    30061810 000056
10231987175000168916200163100    000014624                    000146240000000000000109                     I0114624     30061800000000035003410000017N070518104700000000000103006180000000000000000000000000000000000000000100097512770782DULCINEIA CAPUTE                        AVENIDA ITAGUAI N 848 A - ENGENHO       ITAGUAI - RJ23820306ITAGUAI        RJUNIAO UMB DOS CULTOS AFRO BRAS    30061810 000057
10231987175000168916200163100    000014623                    000146230000000000000109                     I0114623     30061800000000035003410000017N070518104700000000000103006180000000000000000000000000000000000000000100000237914387JOSE EDILSON RABELO CAULA               RUA DOS INVALIDOS, 138 BL 2 APTO 908    LAPA - RJ   20231046RIO DE JANEIRO RJUNIAO UMB DOS CULTOS AFRO BRAS    30061810 000058
10231987175000168916200163100    000014622                    000146220000000000000109                     I0114622     30061800000000035003410000017N070518104700000000000103006180000000000000000000000000000000000000000100050475142772LUIZ GONCALVES COLARES                  RUA LEONEL BRIZOLA, QUADRA A LOTE 11 - NPACIENCIA - 23587010RIO DE JANEIRO RJUNIAO UMB DOS CULTOS AFRO BRAS    30061810 000059
10231987175000168916200163100    000014621                    000146210000000000000109                     I0114621     30061800000000035003410000017N070518104700000000000103006180000000000000000000000000000000000000000200000000002180ROSINEIA MARTINS DE ARRUDA              RUA ALBERTO DE MELO, 388                COMENDADOR S26280310NOVA IGUACU    RJUNIAO UMB DOS CULTOS AFRO BRAS    30061810 000060
10231987175000168916200163100    000014620                    000146200000000000000109                     I0114620     30061800000000035003410000017N070518104700000000000103006180000000000000000000000000000000000000000100006980782762ALEX SANDRO INACIO DO NASCIMEN          MESMO                                   MESMO       26298686NOVA IGUACU    RJUNIAO UMB DOS CULTOS AFRO BRAS    30061810 000061
10231987175000168916200163100    000014619                    000146190000000000000109                     I0114619     30061800000000035003410000017N070518104700000000000103006180000000000000000000000000000000000000000200000000002168EDEVALDO NUNES                          RUA DO ROTEIRO, 24                      AUGUSTO VASC23012370RIO DE JANEIRO RJUNIAO UMB DOS CULTOS AFRO BRAS    30061810 000062
10231987175000168916200163100    000014618                    000146180000000000000109                     I0114618     30061800000000035003410000017N070518104700000000000103006180000000000000000000000000000000000000000200000000002163NEUSA DA SILVA RODRIGUES                RUA DOM RAFAEL, 5 - PACIENCIA           29 DE MARCO 23060370RIO DE JANEIRO RJUNIAO UMB DOS CULTOS AFRO BRAS    30061810 000063
10231987175000168916200163100    000014617                    000146170000000000000109                     I0114617     30061800000000035003410000017N070518104700000000000103006180000000000000000000000000000000000000000100045471240782MARIA HELENA DE SOUZA FREITAS           O MESMO                                 O MESMO     26131970BELFORD ROXO   RJUNIAO UMB DOS CULTOS AFRO BRAS    30061810 000064
10231987175000168916200163100    000014616                    000146160000000000000109                     I0114616     30061800000000035003410000017N070518104700000000000103006180000000000000000000000000000000000000000100044029640753CREMILDA CONCEICAO LOPES                O MESMO                                 O MESMO     21235250RIO DE JANEIRO RJUNIAO UMB DOS CULTOS AFRO BRAS    30061810 000065
10231987175000168916200163100    000014615                    000146150000000000000109                     I0114615     30061800000000035003410000017N070518104700000000000103006180000000000000000000000000000000000000000100000120098733MARIA APARECIDA SOUZA DA SILVA          RUA NOVE, 424 LOTE 3 QUADRA B - JARDIM DPRAIA DE MAU25930000MAGE           RJUNIAO UMB DOS CULTOS AFRO BRAS    30061810 000066
10231987175000168916200163100    000014614                    000146140000000000000109                     I0114614     30061800000000035003410000017N070518104700000000000103006180000000000000000000000000000000000000000100007120562703JANETE RIBEIRO DE ALMEIDA               O MESMO                                 O MESMO     26347030NOVA IGUACU    RJUNIAO UMB DOS CULTOS AFRO BRAS    30061810 000067
10231987175000168916200163100    000014613                    000146130000000000000109                     I0114613     30061800000000035003410000017N070518104700000000000103006180000000000000000000000000000000000000000100050995510768MARIA DAS GRACAS DE ANDRADE             RUA, CORONEL FRANCA LEITE Nº 93        FABRICA POLV26246430NILOPOLIS      RJUNIAO UMB DOS CULTOS AFRO BRAS    30061810 000068
10231987175000168916200163100    000014612                    000146120000000000000109                     I0114612     30061800000000035003410000017N070518104700000000000103006180000000000000000000000000000000000000000100008839877754DEISE CORREIA ALVES SILVA               PRACA FLAMENGO N 17                     SANTA TEREZA25086090DUQUE DE CAXIASRJUNIAO UMB DOS CULTOS AFRO BRAS    30061810 000069
10231987175000168916200163100    000014611                    000146110000000000000109                     I0114611     30061800000000035003410000017N070518104700000000000103006180000000000000000000000000000000000000000100003026317713RITA DE CASSIA VIEIRA SIMOES F          RUA CABO SAULO DE VASCONCELOS N 120 LOTEJARDIM PALMA23510001PACIENCIA      RJUNIAO UMB DOS CULTOS AFRO BRAS    30061810 000070
10231987175000168916200163100    000014610                    000146100000000000000109                     I0114610     30061800000000035003410000017N070518104700000000000103006180000000000000000000000000000000000000000200000000006836HELOIZA HELENA COSTA LIMA               RUA DOUTOR ALCINDO RAFAEL, 148 - MORRO AITAMARATI - 26262060NOVA IGUACU    RJUNIAO UMB DOS CULTOS AFRO BRAS    30061810 000071
10231987175000168916200163100    000014609                    000146090000000000000109                     I0114609     30061800000000035003410000017N070518104700000000000103006180000000000000000000000000000000000000000200000000006821MANOELINA DE PAULA SILVA                O MESMO                                 O MESMO     25811080TRES RIOS      RJUNIAO UMB DOS CULTOS AFRO BRAS    30061810 000072
10231987175000168916200163100    000014608                    000146080000000000000109                     I0114608     30061800000000035003410000017N070518104700000000000103006180000000000000000000000000000000000000000100001045146714ELIANE RIBEIRO MACEDO                   O MESMO                                 O MESMO     21725320RIO DE JANEIRO RJUNIAO UMB DOS CULTOS AFRO BRAS    30061810 000073
10231987175000168916200163100    000014607                    000146070000000000000109                     I0114607     30061800000000035003410000017N070518104700000000000103006180000000000000000000000000000000000000000100051398060704ELIZABETH MONTEIRO MOREIRA DA           RUA: IBITINGA LOTE 1 QD 3 CASA 1 - PARQUBELFORD ROXO26167160BELFORD ROXO   RJUNIAO UMB DOS CULTOS AFRO BRAS    30061810 000074
10231987175000168916200163100    000014606                    000146060000000000000109                     I0114606     30061800000000035003410000017N070518104700000000000103006180000000000000000000000000000000000000000100071002782791ELIANE PIRES SOUZA                      RUA IBITINGA LT 9 QD 3 - PRQ S BERNARDO O MESMO     26167160BELFORD ROXO   RJUNIAO UMB DOS CULTOS AFRO BRAS    30061810 000075
10231987175000168916200163100    000014605                    000146050000000000000109                     I0114605     30061800000000035003410000017N070518104700000000000103006180000000000000000000000000000000000000000100058739920704ELISABETH DE OLIVEIRA LOUREDO           EST: COMANDANTE LUIZ SOUTO Nº 509 C/ 4DTANQUE - JAC22733040RIO DE JANEIRO RJUNIAO UMB DOS CULTOS AFRO BRAS    30061810 000076
10231987175000168916200163100    000014604                    000146040000000000000109                     I0114604     30061800000000040003410000017N070518104700000000000103006180000000000000000000000000000000000000000100081994699787MARCIA HELENA CORREIA DE LIMA           RUA FRANCISCO ALENCAR                   RIO DE JANEI23530540RIO DE JANEIRO RJUNIAO UMB DOS CULTOS AFRO BRAS    30061810 000077
10231987175000168916200163100    000014603                    000146030000000000000109                     I0114603     30061800000000035003410000017N070518104700000000000103006180000000000000000000000000000000000000000200000000006667HILDETE SACRAMENTO BISPO                O MESMO                                 O MESMO     23060070RIO DE JANEIRO RJUNIAO UMB DOS CULTOS AFRO BRAS    30061810 000078
10231987175000168916200163100    000014602                    000146020000000000000109                     I0114602     30061800000000035003410000017N070518104700000000000103006180000000000000000000000000000000000000000100095274987753PAULO SERGIO BARBOSA DA CUNHA           RUA: DAS BORBOLETAS Nº 21 E 22 - BANGU RIO DE JANEI21866030RIO DE JANEIRO RJUNIAO UMB DOS CULTOS AFRO BRAS    30061810 000079
10231987175000168916200163100    000014601                    000146010000000000000109                     I0114601     30061800000000035003410000017N070518104700000000000103006180000000000000000000000000000000000000000200000000006634ANTONIO CARLOS ANTUNES BASTOS           AVENIDA ITATIAIA, 1615 - 21 DE ABRIL    VILA ITAMARA25065095DUQUE DE CAXIASRJUNIAO UMB DOS CULTOS AFRO BRAS    30061810 000080
10231987175000168916200163100    000014600                    000146000000000000000109                     I0114600     30061800000000035003410000017N070518104700000000000103006180000000000000000000000000000000000000000100070672997720MARTA CAVALCANTE TEIXEIRA               O MESMO                                 O MESMO     22763011RIO DE JANEIRO RJUNIAO UMB DOS CULTOS AFRO BRAS    30061810 000081
10231987175000168916200163100    000014599                    000145990000000000000109                     I0114599     30061800000000035003410000017N070518104700000000000103006180000000000000000000000000000000000000000100084244224734JORGE MARCELO TINTEL                    O MESMO                                 O MESMO     23530220RIO DE JANEIRO RJUNIAO UMB DOS CULTOS AFRO BRAS    30061810 000082
10231987175000168916200163100    000014598                    000145980000000000000109                     I0114598     30061800000000035003410000017N070518104700000000000103006180000000000000000000000000000000000000000200000000006620SONIA MARIA DOS REMEDIOS                RUA SAO LUIZ, 11 CASA 2 - CANAL DO LEITAPRAIA DO SAC23860000MANGARATIBA    RJUNIAO UMB DOS CULTOS AFRO BRAS    30061810 000083
10231987175000168916200163100    000014597                    000145970000000000000109                     I0114597     30061800000000035003410000017N070518104700000000000103006180000000000000000000000000000000000000000200000000006612ELOISA SANT ANA                         RUA LINO DE MORAIS, 322 FUNDOS          REALENGO - R21730290RIO DE JANEIRO RJUNIAO UMB DOS CULTOS AFRO BRAS    30061810 000084
10231987175000168916200163100    000014596                    000145960000000000000109                     I0114596     30061800000000035003410000017N070518104700000000000103006180000000000000000000000000000000000000000200000000006600JULIA MARIA DA CONCEICAO                O MESMO                                 O MESMO     23823290ITAGUAI        RJUNIAO UMB DOS CULTOS AFRO BRAS    30061810 000085
10231987175000168916200163100    000014595                    000145950000000000000109                     I0114595     30061800000000035003410000017N070518104700000000000103006180000000000000000000000000000000000000000200000000006597ROSA MARIA PINHEIRO                     O MESMO                                 O MESMO     23826230ITAGUAI        RJUNIAO UMB DOS CULTOS AFRO BRAS    30061810 000086
10231987175000168916200163100    000014594                    000145940000000000000109                     I0114594     30061800000000035003410000017N070518104700000000000103006180000000000000000000000000000000000000000100098806181734PAULO ROMULO ALVES DE SOUZA             O MESMO                                 O MESMO     26021560NOVA IGUACU    RJUNIAO UMB DOS CULTOS AFRO BRAS    30061810 000087
10231987175000168916200163100    000014593                    000145930000000000000109                     I0114593     30061800000000035003410000017N070518104700000000000103006180000000000000000000000000000000000000000200000000006579LUIZ CLAUDIO BATISTA REIS               O MESMO                                 O MESMO     24315384NITEROI        RJUNIAO UMB DOS CULTOS AFRO BRAS    30061810 000088
10231987175000168916200163100    000014592                    000145920000000000000109                     I0114592     30061800000000035003410000017N070518104700000000000103006180000000000000000000000000000000000000000200000000006577MARIA DARLI BARBOSA                     O MESMO                                 O MESMO     23830000ITAGUAI        RJUNIAO UMB DOS CULTOS AFRO BRAS    30061810 000089
10231987175000168916200163100    000014591                    000145910000000000000109                     I0114591     30061800000000035003410000017N070518104700000000000103006180000000000000000000000000000000000000000100083326952791JOSELITA BATISTA DE OLIVEIRA            O MESMO                                 O MESMO     23830000ITAGUAI        RJUNIAO UMB DOS CULTOS AFRO BRAS    30061810 000090
10231987175000168916200163100    000014590                    000145900000000000000109                     I0114590     30061800000000035003410000017N070518104700000000000103006180000000000000000000000000000000000000000100044451318734NILZA MUNIZ FIRMINO                     RUA: PEDRO AMERICO                      COLUBANDE - 24450480SAO GONCALO    RJUNIAO UMB DOS CULTOS AFRO BRAS    30061810 000091
10231987175000168916200163100    000014589                    000145890000000000000109                     I0114589     30061800000000035003410000017N070518104700000000000103006180000000000000000000000000000000000000000100041602790744PAULO LEANDRO FONTES                    ESTRADA: UNIAO E INDUSTRIA              VOLTA REDOND25720062VOLTA REDONDA  RJUNIAO UMB DOS CULTOS AFRO BRAS    30061810 000092
10231987175000168916200163100    000014588                    000145880000000000000109                     I0114588     30061800000000035003410000017N070518104700000000000103006180000000000000000000000000000000000000000100068331428749IVANILDA DOS SANTOS                     RUA RIBEIRAO DO SUL LOTE 7 QUADRA 29    GUARATIBA - 23026590RIO DE JANEIRO RJUNIAO UMB DOS CULTOS AFRO BRAS    30061810 000093
10231987175000168916200163100    000014587                    000145870000000000000109                     I0114587     30061800000000035003410000017N070518104700000000000103006180000000000000000000000000000000000000000200000000006498MARIA LUCIA BENJAMIN DE FREITA          RUA: QUITO LOTE 12 QD 23 - JD PRIMAVERA DUQUE DE CAX25223150RIO DE JANEIRO RJUNIAO UMB DOS CULTOS AFRO BRAS    30061810 000094
10231987175000168916200163100    000014586                    000145860000000000000109                     I0114586     30061800000000035003410000017N070518104700000000000103006180000000000000000000000000000000000000000200000000006490JOANA MARIA JOSE BORGES                 ESTRADA: UNIAO E INDUSTRIA              ESTRADA: UNI25720062PINHEIRAL      RJUNIAO UMB DOS CULTOS AFRO BRAS    30061810 000095
10231987175000168916200163100    000014585                    000145850000000000000109                     I0114585     30061800000000035003410000017N070518104700000000000103006180000000000000000000000000000000000000000200000000006481SONIA MARIA RODRIGUES LONTRA M          O MESMO                                 O MESMO     23017240RIO DE JANEIRO RJUNIAO UMB DOS CULTOS AFRO BRAS    30061810 000096
10231987175000168916200163100    000014584                    000145840000000000000109                     I0114584     30061800000000035003410000017N070518104700000000000103006180000000000000000000000000000000000000000200000000006480VERA LUCIA DA CRUZ NEVES                O MESMO                                 O MESMO     23017210RIO DE JANEIRO RJUNIAO UMB DOS CULTOS AFRO BRAS    30061810 000097
10231987175000168916200163100    000014583                    000145830000000000000109                     I0114583     30061800000000035003410000017N070518104700000000000103006180000000000000000000000000000000000000000100001115386700DILZA TORRES PINTO DE JESUS             RUA: MARECHAL BARBEDO                   REALENGO - R21735340RIO DE JANEIRO RJUNIAO UMB DOS CULTOS AFRO BRAS    30061810 000098
10231987175000168916200163100    000014582                    000145820000000000000109                     I0114582     30061800000000035003410000017N070518104700000000000103006180000000000000000000000000000000000000000200000000006437DOLARINA CANDIDA DE JESUS               O MESMO                                 O MESMO     23585580RIO DE JANEIRO RJUNIAO UMB DOS CULTOS AFRO BRAS    30061810 000099
10231987175000168916200163100    000014581                    000145810000000000000109                     I0114581     30061800000000035003410000017N070518104700000000000103006180000000000000000000000000000000000000000200000000006430JONAS SILVA SIQUEIRA                    O MESMO                                 O MESMO     21670420RIO DE JANEIRO RJUNIAO UMB DOS CULTOS AFRO BRAS    30061810 000100
10231987175000168916200163100    000014580                    000145800000000000000109                     I0114580     30061800000000035003410000017N070518104700000000000103006180000000000000000000000000000000000000000100085789569749VALMIR DE SOUZA RIBEIRO                 O MESMO                                 O MESMO     21715080RIO DE JANEIRO RJUNIAO UMB DOS CULTOS AFRO BRAS    30061810 000101
10231987175000168916200163100    000014579                    000145790000000000000109                     I0114579     30061800000000035003410000017N070518104700000000000103006180000000000000000000000000000000000000000200000000006397LUIZ CARLOS AMATE                       RUA ITABIRA, 343                        BRAS DE PINA21215310RIO DE JANEIRO RJUNIAO UMB DOS CULTOS AFRO BRAS    30061810 000102
10231987175000168916200163100    000014578                    000145780000000000000109                     I0114578     30061800000000035003410000017N070518104700000000000103006180000000000000000000000000000000000000000100001796220728MARIA ROSA ALVES DA SILVA               RUA DOUTOR ARRUDA NEGREIRO N 100        SENHOR DO BO25025325DUQUE DE CAXIASRJUNIAO UMB DOS CULTOS AFRO BRAS    30061810 000103
10231987175000168916200163100    000014577                    000145770000000000000109                     I0114577     30061800000000035003410000017N070518104700000000000103006180000000000000000000000000000000000000000100071411780744ZULTAMAR MESQUITA DE ALMEIDA            RUA  CORONEL JOSE MUNIZ, 554            OLINDA  - NI26545060NILOPOLIS      RJUNIAO UMB DOS CULTOS AFRO BRAS    30061810 000104
10231987175000168916200163100    000014576                    000145760000000000000109                     I0114576     30061800000000035003410000017N070518104700000000000103006180000000000000000000000000000000000000000100098693043168REJANE VIEIRA GOMES                     RUA: TAPIRANGA                          RIO DE JANEI21775470RIO DE JANEIRO RJUNIAO UMB DOS CULTOS AFRO BRAS    30061810 000105
10231987175000168916200163100    000014575                    000145750000000000000109                     I0114575     30061800000000035003410000017N070518104700000000000103006180000000000000000000000000000000000000000200000000001019CELIO DELDUQUE                          RUA DOMINGOS PIRES, 181/183             PILARES  - R20750160RIO DE JANEIRO RJUNIAO UMB DOS CULTOS AFRO BRAS    30061810 000106
10231987175000168916200163100    000014574                    000145740000000000000109                     I0114574     30061800000000035003410000017N070518104700000000000103006180000000000000000000000000000000000000000200000000001428GABRIEL MENEZES                         RUA DA PAZ, 2                           PARQUE VALE 28940000SAO PEDRO DA ALRJUNIAO UMB DOS CULTOS AFRO BRAS    30061810 000107
10231987175000168916200163100    000014573                    000145730000000000000109                     I0114573     30061800000000035003410000017N070518104700000000000103006180000000000000000000000000000000000000000100030341108715SUELENA DA SILVA MARTINS                RUA PAULO DE AQUINO, 27                 ANCHIETA - R21645500RIO DE JANEIRO RJUNIAO UMB DOS CULTOS AFRO BRAS    30061810 000108
10231987175000168916200163100    000014572                    000145720000000000000109                     I0114572     30061800000000035003410000017N070518104700000000000103006180000000000000000000000000000000000000000100059135085720CELIA MARINHO VIEIRA                    RUA LOURIVAL ABREU SILVA, 565           SULACAP - RI21745760RIO DE JANEIRO RJUNIAO UMB DOS CULTOS AFRO BRAS    30061810 000109
10231987175000168916200163100    000014571                    000145710000000000000109                     I0114571     30061800000000035003410000017N070518104700000000000103006180000000000000000000000000000000000000000200000000005728MARIA JOSE DOS SANTOS                   RUA JOSE MARIOZZI FILHO, 990            PRAIA DA BRI23028400RIO DE JANEIRO RJUNIAO UMB DOS CULTOS AFRO BRAS    30061810 000110
10231987175000168916200163100    000014570                    000145700000000000000109                     I0114570     30061800000000035003410000017N070518104700000000000103006180000000000000000000000000000000000000000100003863156714VILMA TEREZA DE SOUZA AMARAL            RUA GUATEMALENSE, LOTE 7 QUADRA 32      JARDIM MERIT25555700SAO JOAO DE MERRJUNIAO UMB DOS CULTOS AFRO BRAS    30061810 000111
10231987175000168916200163100    000014569                    000145690000000000000109                     I0114569     30061800000000035003410000017N070518104700000000000103006180000000000000000000000000000000000000000100075300931772ALTAIR DE SOUZA COSTA                   RUA SETE DE SETEMBRO, LOTE 15 QUADRA 7 -CABUCU - NOV26293486NOVA IGUACU    RJUNIAO UMB DOS CULTOS AFRO BRAS    30061810 000112
10231987175000168916200163100    000014568                    000145680000000000000109                     I0114568     30061800000000035003410000017N070518104700000000000103006180000000000000000000000000000000000000000100043082033768LEILA RAMOS DE OLIVEIRA                 RUA CAPIBARIBE, 361                     CABUCU - NOV26346290NOVA IGUACU    RJUNIAO UMB DOS CULTOS AFRO BRAS    30061810 000113
10231987175000168916200163100    000014567                    000145670000000000000109                     I0114567     30061800000000035003410000017N070518104700000000000103006180000000000000000000000000000000000000000200000000005008ROSEMERE THEODORO DA SILVA              BECO ECA DE QUEIROZ, 26                 VILA SANTO A25040355DUQUE DE CAXIASRJUNIAO UMB DOS CULTOS AFRO BRAS    30061810 000114
10231987175000168916200163100    000014566                    000145660000000000000109                     I0114566     30061800000000035003410000017N070518104700000000000103006180000000000000000000000000000000000000000100054571715743VILMA OLIVEIRA DOS SANTOS               RUA CORREIA DIAS, 1066                  VIGARIO GERA21241310RIO DE JANEIRO RJUNIAO UMB DOS CULTOS AFRO BRAS    30061810 000115
10231987175000168916200163100    000014565                    000145650000000000000109                     I0114565     30061800000000035003410000017N070518104700000000000103006180000000000000000000000000000000000000000200000000001244JORGE LUCIO                             AVENIDA DOS ITALIANOS N 936 BLOCO A APT ROCHA MIRAND21510104RIO DE JANEIRO RJUNIAO UMB DOS CULTOS AFRO BRAS    30061810 000116
10231987175000168916200163100    000014564                    000145640000000000000109                     I0114564     30061800000000040003410000017N070518104700000000000103006180000000000000000000000000000000000000000100087292971768ANTONIA HERMINIA DA SILVA               RUA PROFESSOR SILVIO ELIAS              VARGEM GRAND22783235RIO DE JANEIRO RJUNIAO UMB DOS CULTOS AFRO BRAS    30061810 000117
10231987175000168916200163100    000014563                    000145630000000000000109                     I0114563     30061800000000035003410000017N070518104700000000000103006180000000000000000000000000000000000000000100003329195797LUCIANO JOAQUIM                         RUA PERUANA, LOTE 27 QUADRA 12          P. BARAO DO 25555540SAO JOAO DE MERRJUNIAO UMB DOS CULTOS AFRO BRAS    30061810 000118
10231987175000168916200163100    000014562                    000145620000000000000109                     I0114562     30061800000000035003410000017N070518104700000000000103006180000000000000000000000000000000000000000200000000005578SOLANGE DOS SANTOS SILVA                RUA QUATORZE, LOTE 35 CASA 131 -ARAUJO  CAMPO GRANDE23090370RIO DE JANEIRO RJUNIAO UMB DOS CULTOS AFRO BRAS    30061810 000119
10231987175000168916200163100    000014561                    000145610000000000000109                     I0114561     30061800000000035003410000017N070518104700000000000103006180000000000000000000000000000000000000000100035914661749CELSO NERY GALDARD                      RUA BENJAMIN DA ROCHA JUNIOR, 1 CASA 6  PARQUE FLUMI25045010DUQUE DE CAXIASRJUNIAO UMB DOS CULTOS AFRO BRAS    30061810 000120
10231987175000168916200163100    000014560                    000145600000000000000109                     I0114560     30061800000000035003410000017N070518104700000000000103006180000000000000000000000000000000000000000100037019449700CELIA REGINA OLIVEIRA DOS SANT          RUA  MINISTRO ARTHUR COSTA, 1283        JARDIM AMERI21240120RIO DE JANEIRO RJUNIAO UMB DOS CULTOS AFRO BRAS    30061810 000121
10231987175000168916200163100    000014559                    000145590000000000000109                     I0114559     30061800000000035003410000017N070518104700000000000103006180000000000000000000000000000000000000000100002477166778BEATRIZ MIRANDA ABRANCHES               RUA GRUCAI, 657                         PENHA - RJ  21020250RIO DE JANEIRO RJUNIAO UMB DOS CULTOS AFRO BRAS    30061810 000122
10231987175000168916200163100    000014558                    000145580000000000000109                     I0114558     30061800000000035003410000017N070518104700000000000103006180000000000000000000000000000000000000000200000000005269SILVIA MARIA DE MOURA                   ESTRADA SANTA EFIGENIA, 461 CASA 14     TAQUARA - JA22775780RIO DE JANEIRO RJUNIAO UMB DOS CULTOS AFRO BRAS    30061810 000123
10231987175000168916200163100    000014557                    000145570000000000000109                     I0114557     30061800000000035003410000017N070518104700000000000103006180000000000000000000000000000000000000000100004550495723MARIA ADELAIDE DA SILVA PROFET          RUA ARACA, 552                          RICARDO DE A21620050RIO DE JANEIRO RJUNIAO UMB DOS CULTOS AFRO BRAS    30061810 000124
10231987175000168916200163100    000014556                    000145560000000000000109                     I0114556     30061800000000035003410000017N070518104700000000000103006180000000000000000000000000000000000000000200000000005090DENILZA THIMOTHEO ROZA                  RUA MARIO CARPENTER, 309 ENTRADA A APTO PILARES - RI20755062RIO DE JANEIRO RJUNIAO UMB DOS CULTOS AFRO BRAS    30061810 000125
10231987175000168916200163100    000014555                    000145550000000000000109                     I0114555     30061800000000035003410000017N070518104700000000000103006180000000000000000000000000000000000000000100000998809705LEDA GONCALVES MENDES                   RUA VINTE DE ABRIL, 5 CASA 2            CENTRO - QUE26327470QUEIMADOS      RJUNIAO UMB DOS CULTOS AFRO BRAS    30061810 000126
10231987175000168916200163100    000014554                    000145540000000000000109                     I0114554     30061800000000035003410000017N070518104700000000000103006180000000000000000000000000000000000000000200000000005039MARIA DE SOUZA                          AVENIDA BELO HORIZONTE, 271             SAO GABRIEL 26021670NOVA IGUACU    RJUNIAO UMB DOS CULTOS AFRO BRAS    30061810 000127
10231987175000168916200163100    000014553                    000145530000000000000109                     I0114553     30061800000000035003410000017N070518104700000000000103006180000000000000000000000000000000000000000100058895780370ELZA MORAES DA SILVA                    RUA WALTER JOSE BRAGA, 19               PARQUE TELES25581171SAO JOAO DE MERRJUNIAO UMB DOS CULTOS AFRO BRAS    30061810 000128
10231987175000168916200163100    000014552                    000145520000000000000109                     I0114552     30061800000000035003410000017N070518104700000000000103006180000000000000000000000000000000000000000200000000001134JOSE CALASANS SILVA FILHO               RUA DAS AMETISTAS, 60                   ROCHA MIRAND22470040RIO DE JANEIRO RJUNIAO UMB DOS CULTOS AFRO BRAS    30061810 000129
10231987175000168916200163100    000014551                    000145510000000000000109                     I0114551     30061800000000035003410000017N070518104700000000000103006180000000000000000000000000000000000000000100095294236753ROSANE MOREIRA DE LIMA                  RUA IRIGUATI Nº 63                     OLARIA      21073320RIO DE JANEIRO RJUNIAO UMB DOS CULTOS AFRO BRAS    30061810 000130
10231987175000168916200163100    000014550                    000145500000000000000109                     I0114550     30061800000000035003410000017N070518104700000000000103006180000000000000000000000000000000000000000100084761512768MIRIAN ALVES DE AQUINO MALTOS           RUA ENGENHO DA RAINHA, 252              INHAUMA - RJ20765040RIO DE JANEIRO RJUNIAO UMB DOS CULTOS AFRO BRAS    30061810 000131
10231987175000168916200163100    000014549                    000145490000000000000109                     I0114549     30061800000000035003410000017N070518104700000000000103006180000000000000000000000000000000000000000100086919105772FLAVIO DA SILVA BARBOSA                 ESTRADA DO QUAFA, 678 RUA B LOTE 43     SANTISSIMO -23098030RIO DE JANEIRO RJUNIAO UMB DOS CULTOS AFRO BRAS    30061810 000132
10231987175000168916200163100    000014548                    000145480000000000000109                     I0114548     30061800000000035003410000017N070518104700000000000103006180000000000000000000000000000000000000000200000000001068ELAINE LOPES GONCALVES FALCAO           RUA TIUBA N 697 - VAZ LOBO              VAZ LOBO - R21371170RIO DE JANEIRO RJUNIAO UMB DOS CULTOS AFRO BRAS    30061810 000133
10231987175000168916200163100    000014547                    000145470000000000000109                     I0114547     30061800000000035003410000017N070518104700000000000103006180000000000000000000000000000000000000000100000441127770NOEMIA DINANTES GOMES                   RUA COELHO DA ROCHA N 596               AGOSTINHO PO25550690SAO JOAO DE MERRJUNIAO UMB DOS CULTOS AFRO BRAS    30061810 000134
10231987175000168916200163100    000014546                    000145460000000000000109                     I0114546     30061800000000035003410000017N070518104700000000000103006180000000000000000000000000000000000000000100062444654749NADIA DA CUNHA SANTOS                   ESTRADA DO CAFUNDA, 621                 TAQUARA - JA22725030RIO DE JANEIRO RJUNIAO UMB DOS CULTOS AFRO BRAS    30061810 000135
10231987175000168916200163100    000014545                    000145450000000000000109                     I0114545     30061800000000035003410000017N070518104700000000000103006180000000000000000000000000000000000000000100096073276753MARIA JOSE DA SILVA                     RUA MANOEL GAMA, LOTE 142               TOMAZINHO - 25525542SAO JOAO DE MERRJUNIAO UMB DOS CULTOS AFRO BRAS    30061810 000136
10231987175000168916200163100    000014544                    000145440000000000000109                     I0114544     30061800000000035003410000017N070518104700000000000103006180000000000000000000000000000000000000000100030995980820JOSE ANACLETO DE LIMA                   RUA FREDI EMANUEL, 144                  JARDIM JASMI26265110NOVA IGUACU    RJUNIAO UMB DOS CULTOS AFRO BRAS    30061810 000137
10231987175000168916200163100    000014543                    000145430000000000000109                     I0114543     30061800000000040003410000017N070518104700000000000103006180000000000000000000000000000000000000000100094378163161ELAINE MARINHO DA SILVA                 RUA GUIRATIM N 117 FUNDOS               IRAJA - RIO 21371410RIO DE JANEIRO RJUNIAO UMB DOS CULTOS AFRO BRAS    30061810 000138
10231987175000168916200163100    000014542                    000145420000000000000109                     I0114542     30061800000000040003410000017N070518104700000000000103006180000000000000000000000000000000000000000100064437860700VALCI BARBOSA CAMPOS                    TRAVESSA PADRE CICERO - 3 FUNDOS        SANTA ROSA -24310340NITEROI        RJUNIAO UMB DOS CULTOS AFRO BRAS    30061810 000139
10231987175000168916200163100    000014541                    000145410000000000000109                     I0114541     30061800000000035003410000017N070518104700000000000103006180000000000000000000000000000000000000000100098456164704JUCEMAR DOS SANTOS ESTEVES              RUA ABEL DE ALVARENGA N 62              CHATUBA - ME26585000MESQUITA       RJUNIAO UMB DOS CULTOS AFRO BRAS    30061810 000140
10231987175000168916200163100    000014540                    000145400000000000000109                     I0114540     30061800000000035003410000017N070518104700000000000103006180000000000000000000000000000000000000000100060495901768ANA CRISTINA PAVAO BARONI               RUA TAMANDUATEI, 197                    JARDIM TROPI26012775NOVA IGUACU    RJUNIAO UMB DOS CULTOS AFRO BRAS    30061810 000141
10231987175000168916200163100    000014539                    000145390000000000000109                     I0114539     30061800000000035003410000017N070518104700000000000103006180000000000000000000000000000000000000000100000903948796MARIA VILANY DE OLIVEIRA BIEGL          RUA D SN LOTE 68 QUADRA 13              PARQUE SANTA25915000MAGE           RJUNIAO UMB DOS CULTOS AFRO BRAS    30061810 000142
10231987175000168916200163100    000014538                    000145380000000000000109                     I0114538     30061800000000035003410000017N070518104700000000000103006180000000000000000000000000000000000000000200000000000302MARIA DA LUZ MAGALHAES                  RUA JOSE FERREIRA MURRO, 20             MIGUEL COUTO26070527NOVA IGUACU    RJUNIAO UMB DOS CULTOS AFRO BRAS    30061810 000143
10231987175000168916200163100    000014537                    000145370000000000000109                     I0114537     30061800000000035003410000017N070518104700000000000103006180000000000000000000000000000000000000000100001322424780NELY MELIANO DOS SANTOS                 RUA JABOATAO, 50 QUADRA A               VILA ROSARIO25041020DUQUE DE CAXIASRJUNIAO UMB DOS CULTOS AFRO BRAS    30061810 000144
10231987175000168916200163100    000014536                    000145360000000000000109                     I0114536     30061800000000035003410000017N070518104700000000000103006180000000000000000000000000000000000000000100000744455707VERA LUCIA CALIXTO DA SILVA             O MESMO                                 O MESMO     27115410BARRA DO PIRAI RJUNIAO UMB DOS CULTOS AFRO BRAS    30061810 000145
10231987175000168916200163100    000014535                    000145350000000000000109                     I0114535     30061800000000035003410000017N070518104700000000000103006180000000000000000000000000000000000000000100042959586700GEORGINA COSTA ISABEL                   O MESMO                                 O MESMO     25015350DUQUE DE CAXIASRJUNIAO UMB DOS CULTOS AFRO BRAS    30061810 000146
10231987175000168916200163100    000014534                    000145340000000000000109                     I0114534     30061800000000035003410000017N070518104700000000000103006180000000000000000000000000000000000000000100033565708700MARLY DA SILVA UCHOA                    AVENIDA MINISTRO EDGARD ROMERO, 597 CASAMADUREIRA - 21360200RIO DE JANEIRO RJUNIAO UMB DOS CULTOS AFRO BRAS    30061810 000147
10231987175000168916200163100    000014533                    000145330000000000000109                     I0114533     30061800000000035003410000017N070518104700000000000103006180000000000000000000000000000000000000000100004125947732FABIO DA FONSECA PAES                   RUA JOAQUIM COUTO, 145                  VILA JURANDI25540370SAO JOAO DE MERRJUNIAO UMB DOS CULTOS AFRO BRAS    30061810 000148
10231987175000168916200163100    000014532                    000145320000000000000109                     I0114532     30061800000000035003410000017N070518104700000000000103006180000000000000000000000000000000000000000100001974559726ELIZABETH BRITO DE JESUS                O MESMO                                 O MESMO     21210000RIO DE JANEIRO RJUNIAO UMB DOS CULTOS AFRO BRAS    30061810 000149
10231987175000168916200163100    000014531                    000145310000000000000109                     I0114531     30061800000000035003410000017N070518104700000000000103006180000000000000000000000000000000000000000100063299615734MAGALI MAXIMO DE SOUZA                  O MESMO                                 O MESMO     26545460NILOPOLIS      RJUNIAO UMB DOS CULTOS AFRO BRAS    30061810 000150
10231987175000168916200163100    000014530                    000145300000000000000109                     I0114530     30061800000000035003410000017N070518104700000000000103006180000000000000000000000000000000000000000100060946563772FLORIPEDES MADUREIRA SIQUEIRA           AVENIDA PARAIBA, 210                    DOM BOSCO - 27286000VOLTA REDONDA  RJUNIAO UMB DOS CULTOS AFRO BRAS    30061810 000151
10231987175000168916200163100    000014529                    000145290000000000000109                     I0114529     30061800000000035003410000017N070518104700000000000103006180000000000000000000000000000000000000000100033434557768VALTER OLIVEIRA MAYRINCK                RUA SARGENTO OSMAR CLARO, 22            AMAZONAS - C23075180RIO DE JANEIRO RJUNIAO UMB DOS CULTOS AFRO BRAS    30061810 000152
10231987175000168916200163100    000014528                    000145280000000000000109                     I0114528     30061800000000035003410000017N070518104700000000000103006180000000000000000000000000000000000000000100078542626753MARIA HELENA FELIX MARINHO              MESMO                                   O MESMO     21011060RIO DE JANEIRO RJUNIAO UMB DOS CULTOS AFRO BRAS    30061810 000153
10231987175000168916200163100    000014527                    000145270000000000000109                     I0114527     30061800000000035003410000017N070518104700000000000103006180000000000000000000000000000000000000000200000000005440DELIA VIEIRA DA COSTA                   RUA CAPITAO BORGES COUTO N 10 B         SENADOR CAMA21832300RIO DE JANEIRO RJUNIAO UMB DOS CULTOS AFRO BRAS    30061810 000154
10231987175000168916200163100    000014526                    000145260000000000000109                     I0114526     30061800000000035003410000017N070518104700000000000103006180000000000000000000000000000000000000000100031569250715JORGE FRANCISCO SANTOS                  EXPEDICIONARIO SEBASTIAO RIBEIRO, 142   COLUBANDE - 24451710SAO GONCALO    RJUNIAO UMB DOS CULTOS AFRO BRAS    30061810 000155
10231987175000168916200163100    000014525                    000145250000000000000109                     I0114525     30061800000000035003410000017N070518104700000000000103006180000000000000000000000000000000000000000100091919835768JORGETE SALGADO                         RUA PARAIM, 64 APTO 203                 ILHA DO GOVE21911050RIO DE JANEIRO RJUNIAO UMB DOS CULTOS AFRO BRAS    30061810 000156
10231987175000168916200163100    000014524                    000145240000000000000109                     I0214524     30061800000000035003410000017N070518104700000000000103006180000000000000000000000000000000000000000100000000000510DIVINA ANGELICA LOPES                   RUA ITAI, 296                           ANCHIETA - R21645300RIO DE JANEIRO RJUNIAO UMB DOS CULTOS AFRO BRAS    30061810 000157
10231987175000168916200163100    000014523                    000145230000000000000109                     I0114523     30061800000000035003410000017N070518104700000000000103006180000000000000000000000000000000000000000100076998460791IRENE DA SILVA CUPOLILLO                RUA VERA, 135                           CORDOVIL - R21012220RIO DE JANEIRO RJUNIAO UMB DOS CULTOS AFRO BRAS    30061810 000158
10231987175000168916200163100    000014522                    000145220000000000000109                     I0114522     30061800000000040003410000017N070518104700000000000103006180000000000000000000000000000000000000000100005206095737FLORIPES RAMOS DE FARIAS                RUA ONESIO MANOEL BELARMINO, 75         ANCHIETA  - 21625330RIO DE JANEIRO RJUNIAO UMB DOS CULTOS AFRO BRAS    30061810 000159
10231987175000168916200163100    000014521                    000145210000000000000109                     I0114521     30061800000000035003410000017N070518104700000000000103006180000000000000000000000000000000000000000100048685917700CELIO DO NASCIMENTO                     RUA DO CATETE, 123 CASA 4 APTO 101      CATETE - RIO22220000RIO DE JANEIRO RJUNIAO UMB DOS CULTOS AFRO BRAS    30061810 000160
10231987175000168916200163100    000014520                    000145200000000000000109                     I0114520     30061800000000035003410000017N070518104700000000000103006180000000000000000000000000000000000000000100055570720715ATILA CARDOSO DE LIMA                   RUA EUGENIO SOARES, 270                 CENTRO - MES26550007MESQUITA       RJUNIAO UMB DOS CULTOS AFRO BRAS    30061810 000161
10231987175000168916200163100    000014519                    000145190000000000000109                     I0114519     30061800000000035003410000017N070518104700000000000103006180000000000000000000000000000000000000000200000000000472JOANE ZAGALIA DA CUNHA                  RUA JABIRI, 365                         MARECHAL HER21615300MARECHAL HERMESRJUNIAO UMB DOS CULTOS AFRO BRAS    30061810 000162
10231987175000168916200163100    000014518                    000145180000000000000109                     I0114518     30061800000000350003410000017N070518104700000000000103006180000000000000000000000000000000000000000100047059770763MARIA MATHIAS DE OLIVEIRA               RUA CAMBUCI N 38                        MUQUECA - BA27140280BARRA DO PIRAI RJUNIAO UMB DOS CULTOS AFRO BRAS    30061810 000163
10231987175000168916200163100    000014517                    000145170000000000000109                     I0114517     30061800000000035003410000017N070518104700000000000103006180000000000000000000000000000000000000000100053011783772MARIA APARECIDA DA SILVA                RUA JOANA RESENDE, 61 - FAZENDA CAXIAS  SEROPEDICA -23836380RIO DE JANEIRO RJUNIAO UMB DOS CULTOS AFRO BRAS    30061810 000164
10231987175000168916200163100    000014516                    000145160000000000000109                     I0114516     30061800000000035003410000017N070518104700000000000103006180000000000000000000000000000000000000000100050713558768ANILSON DA SILVA                        TRAVESSA HELENA, CASA 19 ENTRADA 217    REALENGO - R21760620RIO DE JANEIRO RJUNIAO UMB DOS CULTOS AFRO BRAS    30061810 000165
10231987175000168916200163100    000014515                    000145150000000000000109                     I0114515     30061800000000035003410000017N070518104700000000000103006180000000000000000000000000000000000000000100066564689772CARLOS DE ARAUJO RIBEIRO                RUA DIVISORIA, 235                      BENTO RIBEIR21331250RIO DE JANEIRO RJUNIAO UMB DOS CULTOS AFRO BRAS    30061810 000166
10231987175000168916200163100    000014514                    000145140000000000000109                     I0114514     30061800000000035003410000017N070518104700000000000103006180000000000000000000000000000000000000000100003388076758ROSALINA MARIA NEVES                    RUA LAURINDO FILHO, 199 CASA 6          CASCADURA - 21370260RIO DE JANEIRO RJUNIAO UMB DOS CULTOS AFRO BRAS    30061810 000167
10231987175000168916200163100    000014513                    000145130000000000000109                     I0114513     30061800000000035003410000017N070518104700000000000103006180000000000000000000000000000000000000000100051328054772BALBINA MARIA DE JESUS DEOLIND          RUA DA FELICIDADE, 26                   BANGU - RIO 21862465RIO DE JANEIRO RJUNIAO UMB DOS CULTOS AFRO BRAS    30061810 000168
10231987175000168916200163100    000014512                    000145120000000000000109                     I0114512     30061800000000035003410000017N070518104700000000000103006180000000000000000000000000000000000000000100010518288722RODRIGO JOSE ABREU DOS SANTOS           RUA MARAVILHA, 298                      BANGU - RJ  21815150RIO DE JANEIRO RJUNIAO UMB DOS CULTOS AFRO BRAS    30061810 000169
10231987175000168916200163100    000014511                    000145110000000000000109                     I0114511     30061800000000035003410000017N070518104700000000000103006180000000000000000000000000000000000000000200000000005639MANOELLA MARIA DA CONCEICAO             RUA PIRES DO RIO, 928                   EDEN - SAO J25540510SAO JOAO DE MERRJUNIAO UMB DOS CULTOS AFRO BRAS    30061810 000170
10231987175000168916200163100    000014510                    000145100000000000000109                     I0114510     30061800000000035003410000017N070518104700000000000103006180000000000000000000000000000000000000000100044279388768THEREZA LEOCADIA DA COSTA               RUA VERA CRUZ, 12 - TRINTA E UM DE OUTUBPACIENCIA - 23585817RIO DE JANEIRO RJUNIAO UMB DOS CULTOS AFRO BRAS    30061810 000171
10231987175000168916200163100    000014509                    000145090000000000000109                     I0114509     30061800000000035003410000017N070518104700000000000103006180000000000000000000000000000000000000000100001077338708ANA MONICA FERREIRA DOS SANTOS          RUA ITAIR JOSE VELOSO, 101 CASA 2 - CONJPACIENCIA - 23587390RIO DE JANEIRO RJUNIAO UMB DOS CULTOS AFRO BRAS    30061810 000172
10231987175000168916200163100    000014508                    000145080000000000000109                     I0114508     30061800000000035003410000017N070518104700000000000103006180000000000000000000000000000000000000000100078759676787VANDA LUCIA LIMA DA SILVA               RUA ALMIRANTE JUSTINO PROENCA, 395      CAMPO GRANDE23090310RIO DE JANEIRO RJUNIAO UMB DOS CULTOS AFRO BRAS    30061810 000173
10231987175000168916200163100    000014507                    000145070000000000000109                     I0114507     30061800000000035003410000017N070518104700000000000103006180000000000000000000000000000000000000000100005412696740MONICA MIRALHA MESSINA                  O MESMO                                 O MESMO     21370350RIO DE JANEIRO RJUNIAO UMB DOS CULTOS AFRO BRAS    30061810 000174
10231987175000168916200163100    000014506                    000145060000000000000109                     I0114506     30061800000000035003410000017N070518104700000000000103006180000000000000000000000000000000000000000200000000006267MANOELINA MARIANA DA SILVA RIB          O MESMO                                 O MESMO     26540120NILOPOLIS      RJUNIAO UMB DOS CULTOS AFRO BRAS    30061810 000175
10231987175000168916200163100    000014505                    000145050000000000000109                     I0114505     30061800000000035003410000017N070518104700000000000103006180000000000000000000000000000000000000000100078991455700MARY LUCIA PEREIRA DA SILVA             RUA MONODORA, 95                        GARDENIA AZU22765590RIO DE JANEIRO RJUNIAO UMB DOS CULTOS AFRO BRAS    30061810 000176
10231987175000168916200163100    000014504                    000145040000000000000109                     I0114504     30061800000000035003410000017N070518104700000000000103006180000000000000000000000000000000000000000200000000005779SANDRA MARIA DOS SANTOS DA SIL          RUA AMILTON FERNANDES, 77 - JARDIM NOVO REALENGO - R21760370RIO DE JANEIRO RJUNIAO UMB DOS CULTOS AFRO BRAS    30061810 000177
10231987175000168916200163100    000014503                    000145030000000000000109                     I0114503     30061800000000035003410000017N070518104700000000000103006180000000000000000000000000000000000000000100074624792234MARILZA COSTA FERREIRA                  RUA INHANDUI, 128                       BENFICA - RJ20930120RIO DE JANEIRO RJUNIAO UMB DOS CULTOS AFRO BRAS    30061810 000178
10231987175000168916200163100    000014502                    000145020000000000000109                     I0114502     30061800000000035003410000017N070518104700000000000103006180000000000000000000000000000000000000000100011039470793ZENY FILIPPE DE CASTRO                  RUA PROFESSOR PLINIO OLINDO, 102        PADRE MIGUEL21860160RIO DE JANEIRO RJUNIAO UMB DOS CULTOS AFRO BRAS    30061810 000179
10231987175000168916200163100    000014501                    000145010000000000000109                     I0114501     30061800000000035003410000017N070518104700000000000103006180000000000000000000000000000000000000000100001080847790BENTO FRANCISCO DE LIMA NETO            RUA PITANGAS, 36 A - TIJUQUINHA         BARRA DA TIJ22713330RIO DE JANEIRO RJUNIAO UMB DOS CULTOS AFRO BRAS    30061810 000180
10231987175000168916200163100    000014500                    000145000000000000000109                     I0114500     30061800000000035003410000017N070518104700000000000103006180000000000000000000000000000000000000000200000000006239NEUZA SANTOS DE BRITO                   ESTRADA DO MOINHO, 2373                 CAMPO GRANDE23040550RIO DE JANEIRO RJUNIAO UMB DOS CULTOS AFRO BRAS    30061810 000181
10231987175000168916200163100    000014499                    000144990000000000000109                     I0114499     30061800000000035003410000017N070518104700000000000103006180000000000000000000000000000000000000000100010949478733AUCELIA MARIA DE SOUZA LIMA             RUA JOSE FRANCISCO DE SOUZA PORTO, 229  ARNALDO EUGE23016010RIO DE JANEIRO RJUNIAO UMB DOS CULTOS AFRO BRAS    30061810 000182
10231987175000168916200163100    000014498                    000144980000000000000109                     I0114498     30061800000000035003410000017N070518104700000000000103006180000000000000000000000000000000000000000200000000006204MARIA DAS DORES SANTOS                  ESTRADA DO AREAL, 4                     BOA VISTA DA27165000BARRA DO PIRAI RJUNIAO UMB DOS CULTOS AFRO BRAS    30061810 000183
10231987175000168916200163100    000014497                    000144970000000000000109                     I0114497     30061800000000035003410000017N070518104700000000000103006180000000000000000000000000000000000000000200000000006165ELISABETE JORDAO DOS SANTOS             RUA GENERAL MANOEL RABELO, 1025         VILA SAO LUI25065050DUQUE DE CAXIASRJUNIAO UMB DOS CULTOS AFRO BRAS    30061810 000184
10231987175000168916200163100    000014496                    000144960000000000000109                     I0114496     30061800000000035003410000017N070518104700000000000103006180000000000000000000000000000000000000000200000000006133JOSE CARLOS DE OLIVEIRA                 RUA NICOLAU TOLENTINO, 315              CALIFORNIA -27163000BARRA DO PIRAI RJUNIAO UMB DOS CULTOS AFRO BRAS    30061810 000185
10231987175000168916200163100    000014495                    000144950000000000000109                     I0114495     30061800000000035003410000017N070518104700000000000103006180000000000000000000000000000000000000000100049720147768LEDA MARIA DOS SANTOS LEAL              RUA JOSE FIRMINO DE MELO, 247           QUIMICA - BA27130360BARRA DO PIRAI RJUNIAO UMB DOS CULTOS AFRO BRAS    30061810 000186
10231987175000168916200163100    000014494                    000144940000000000000109                     I0114494     30061800000000035003410000017N070518104700000000000103006180000000000000000000000000000000000000000200000000006073ARACI AMELIA DA SILVA RIBEIRO           RUA ALIPIO GOMES DOS SANTOS, 493        JARDIM AMERI27340230BARRA DO PIRAI RJUNIAO UMB DOS CULTOS AFRO BRAS    30061810 000187
10231987175000168916200163100    000014493                    000144930000000000000109                     I0114493     30061800000000040003410000017N070518104700000000000103006180000000000000000000000000000000000000000100004245577703FERNANDA MEDEIROS VIANA                 RUA TOROPI  LOTE 7 QUADRA 29 FUNDOS     HELIOPOLIS  26123380BELFORD ROXO   RJUNIAO UMB DOS CULTOS AFRO BRAS    30061810 000188
10231987175000168916200163100    000014492                    000144920000000000000109                     I0114492     30061800000000035003410000017N070518104700000000000103006180000000000000000000000000000000000000000200000000005978NEUZA MORAES TAVARES                    RUA RUBENS BARCELLOS, 207               VILA ORLANDE27325260BARRA MANSA    RJUNIAO UMB DOS CULTOS AFRO BRAS    30061810 000189
10231987175000168916200163100    000014491                    000144910000000000000109                     I0114491     30061800000000035003410000017N070518104700000000000103006180000000000000000000000000000000000000000100013911839758EDSON SILVA DOS SANTOS                  RUA WALDOMIRO JOSE PEREIRA              HELIOPOLIS -26125500BELFORD ROXO   RJUNIAO UMB DOS CULTOS AFRO BRAS    30061810 000190
10231987175000168916200163100    000014490                    000144900000000000000109                     I0114490     30061800000000035003410000017N070518104700000000000103006180000000000000000000000000000000000000000100053768175715DAMIANA MARTINS DA SILVA                RUA ARABORI, 262                        ROCHA MIRAND21545120RIO DE JANEIRO RJUNIAO UMB DOS CULTOS AFRO BRAS    30061810 000191
10231987175000168916200163100    000014489                    000144890000000000000109                     I0114489     30061800000000035003410000017N070518104700000000000103006180000000000000000000000000000000000000000100003761710739ALMIRA DE SOUZA SANTOS                  RUA CARMELITA DE JESUS, LOTE 6 QUADRA 3 ELISA MARIA 23076440RIO DE JANEIRO RJUNIAO UMB DOS CULTOS AFRO BRAS    30061810 000192
10231987175000168916200163100    000014488                    000144880000000000000109                     I0114488     30061800000000035003410000017N070518104700000000000103006180000000000000000000000000000000000000000200000000005873JOSE AUGUSTO COELHO DE MENEZES          ESTRADA DA BOIUNA, 2450 - JARDIM BOIUNA TAQUARA - JA22741970RIO DE JANEIRO RJUNIAO UMB DOS CULTOS AFRO BRAS    30061810 000193
10231987175000168916200163100    000014487                    000144870000000000000109                     I0114487     30061800000000035003410000017N070518104700000000000103006180000000000000000000000000000000000000000100090882687700JUCIARA DE SOUZA CAMPOS                 RUA DEMOSTENES, 116                     JARDIM GLAUC26195500BELFORD ROXO   RJUNIAO UMB DOS CULTOS AFRO BRAS    30061810 000194
10231987175000168916200163100    000014486                    000144860000000000000109                     I0114486     30061800000000035003410000017N070518104700000000000103006180000000000000000000000000000000000000000200000000001219IOLANDA CUSTODIA DA ROSA                RUA CLODOMIR LUCAS DOS REIS, 14         CURICICA - J22713562RIO DE JANEIRO RJUNIAO UMB DOS CULTOS AFRO BRAS    30061810 000195
10231987175000168916200163100    000014485                    000144850000000000000109                     I0114485     30061800000000035003410000017N070518104700000000000103006180000000000000000000000000000000000000000200000000001355VALDEA PEREIRA SIQUEIRA                 RUA BORDA DO MATO, 415                  GRAJAU - RIO20561200RIO DE JANEIRO RJUNIAO UMB DOS CULTOS AFRO BRAS    30061810 000196
10231987175000168916200163100    000014484                    000144840000000000000109                     I0114484     30061800000000035003410000017N070518104700000000000103006180000000000000000000000000000000000000000200000000001330JORGE ALAN COSTA DE CASTRO              RUA CAPITAO MARIO NOVAES, 87            CENTRO - BAR27123110BARRA DO PIRAI RJUNIAO UMB DOS CULTOS AFRO BRAS    30061810 000197
10231987175000168916200163100    000014483                    000144830000000000000109                     I0114483     30061800000000035003410000017N070518104700000000000103006180000000000000000000000000000000000000000200000000001308CACILDA AQUINO DOS SANTOS               RUA CATULO CEARENSE, 119                MEIER  - RJ 20730320RIO DE JANEIRO RJUNIAO UMB DOS CULTOS AFRO BRAS    30061810 000198
10231987175000168916200163100    000014482                    000144820000000000000109                     I0114482     30061800000000035003410000017N070518104700000000000103006180000000000000000000000000000000000000000100080266592791ROSINEA DA SILVA CARDOSO                TRAVESSA GITAI, 190 CASA 3              COLONIA - JA22713566RIO DE JANEIRO RJUNIAO UMB DOS CULTOS AFRO BRAS    30061810 000199
10231987175000168916200163100    000014481                    000144810000000000000109                     I0114481     30061800000000035003410000017N070518104700000000000103006180000000000000000000000000000000000000000200000000001155REINALDO GONCALVES DA ROCHA             RUA FATIMA, 13 C                        JACAREPAGUA 22713570RIO DE JANEIRO RJUNIAO UMB DOS CULTOS AFRO BRAS    30061810 000200
10231987175000168916200163100    000014480                    000144800000000000000109                     I0114480     30061800000000035003410000017N070518104700000000000103006180000000000000000000000000000000000000000200000000000896LENIR SILVA MAFRA                       RUA JOAO BARBALHO, 455                  QUINTINO BOC20740010RIO DE JANEIRO RJUNIAO UMB DOS CULTOS AFRO BRAS    30061810 000201
10231987175000168916200163100    000014479                    000144790000000000000109                     I0114479     30061800000000035003410000017N070518104700000000000103006180000000000000000000000000000000000000000200000000000842IDINEIA RIBEIRO DE AZEVEDO              RUA MOZOLANDIA LOTE 27 QUADRA 105       GUARATIBA - 21660260RIO DE JANEIRO RJUNIAO UMB DOS CULTOS AFRO BRAS    30061810 000202
10231987175000168916200163100    000014478                    000144780000000000000109                     I0114478     30061800000000035003410000017N070518104700000000000103006180000000000000000000000000000000000000000100001686254741ADELIA DE OLIVEIRA AZEVEDO              RUA CORONEL CAMISAO N 842               VISTA ALEGRE21250290RIO DE JANEIRO RJUNIAO UMB DOS CULTOS AFRO BRAS    30061810 000203
10231987175000168916200163100    000014477                    000144770000000000000109                     I0114477     30061800000000035003410000017N070518104700000000000103006180000000000000000000000000000000000000000200000000000614VERA REGINA GONCALVES                   RUA ANTONIO ALVES, 417                  COSTA BARROS21650020RIO DE JANEIRO RJUNIAO UMB DOS CULTOS AFRO BRAS    30061810 000204
10231987175000168916200163100    000014476                    000144760000000000000109                     I0114476     30061800000000035003410000017N070518104700000000000103006180000000000000000000000000000000000000000100083780262720MARIA JOANA DOROTEIA DE PAULA           ESTRADA MERINGUAVA, 701 PINHEIRO 11     TAQUARA - JA22725442RIO DE JANEIRO RJUNIAO UMB DOS CULTOS AFRO BRAS    30061810 000205
10231987175000168916200163100    000014475                    000144750000000000000109                     I0114475     30061800000000035003410000017N070518104700000000000103006180000000000000000000000000000000000000000100004728238768MARIA JOSE ILARIO MANGUEIRA             ESTRADA DA AGUA BRANCA, 2160            REALENGO - R21730000RIO DE JANEIRO RJUNIAO UMB DOS CULTOS AFRO BRAS    30061810 000206
10231987175000168916200163100    000014474                    000144740000000000000109                     I0114474     30061800000000350003410000017N070518104700000000000103006180000000000000000000000000000000000000000100089982118749LENIR SILVA DOS SANTOS                  RUA ILDEFONSO ALBANO                    GUADALUPE   26291278RIO DE JANEIRO RJUNIAO UMB DOS CULTOS AFRO BRAS    30061810 000207
10231987175000168916200163100    000014473                    000144730000000000000109                     I0214473     30061800000000350003410000017N070518104700000000000103006180000000000000000000000000000000000000000100089982118749LENIR SILVA DOS SANTOS                  RUA ILDEFONSO ALBANO                    GUADALUPE   26291278RIO DE JANEIRO RJUNIAO UMB DOS CULTOS AFRO BRAS    30061810 000208
10231987175000168916200163100    000014454                    000144540000000000000109                     I3414454     10051800000000883873410000017N020518104700000000000101005180000000000000000000000000000000000000000100049547410768ROSELI DE SAO JOSE MOREIRA              RUA: ALCIDES MAIA                       BENTO RIBEIR21550560RIO DE JANEIRO RJUNIAO UMB DOS CULTOS AFRO BRAS    10051810 000209
10231987175000168916200163100    000014447                    000144470000000000000109                     I3414447     10051800000000419833410000017N020518104700000000000101005180000000000000000000000000000000000000000100068760680725ANNA LUCIA DE SOUZA                     RUA: JOAO DANIEL                        BENTO RIBEIR21550480RIO DE JANEIRO RJUNIAO UMB DOS CULTOS AFRO BRAS    10051810 000210
10231987175000168916200163100    000014208                    000142080000000000000109                     I0214208     30031800000000280003410000017N140318104700000000000103003180000000000000000000000000000000000000000100000672393743RAFAEL CASAMASSO DA COSTA               RUA JOAO CAETANO N 198 A                CENTRO - PET25610010PETROPOLIS     RJUNIAO UMB DOS CULTOS AFRO BRAS    30031810 000211
10231987175000168916200163100    00008929                     000089290000000000000109                     I028929      31011800000000035003410000017N020118104700000000000103101180000000000000000000000000000000000000000100007620451157JUCIARA BARRETO DA SILVA                O MESMO                                 O MESMO     25936690MAGE           RJUNIAO UMB DOS CULTOS AFRO BRAS    31011810 000212
10231987175000168916200163100    00004524                     000045240000000000000109                     I024524      22121700000000350003410000017N171117104700000000000102212170000000000000000000000000000000000000000100014760475702DEBORAH ROSA                            RUA MARIA LOURENCO GONCALVES N 18 CASA 2JARDIM PRIMA25215367DUQUE DE CAXIASRJUNIAO UMB DOS CULTOS AFRO BRAS    22121710 000213
10231987175000168916200163100    00004523                     000045230000000000000109                     I024523      22121700000000350003410000017N171117104700000000000102212170000000000000000000000000000000000000000100054336481768PENHA JACIARA DA SILVA                  RUA DEZESSETE N 102 (CONJUNTO LIBERDADE)SANTA CRUZ -23560600RIO DE JANEIRO RJUNIAO UMB DOS CULTOS AFRO BRAS    22121710 000214
10231987175000168916200163100    00004522                     000045220000000000000109                     I024522      22121700000000350003410000017N171117104700000000000102212170000000000000000000000000000000000000000100004419977752GISELE DE CASTILHO SOARES               RUA ARTHUR MAGALHAES N 64               COMENDADOR S26276605NOVA IGUACU    RJUNIAO UMB DOS CULTOS AFRO BRAS    22121710 000215
10231987175000168916200163100    00004267                     000042670000000000000109                     I024267      22121700000000350003410000017N171117104700000000000102212170000000000000000000000000000000000000000100005878475731CLEITOM RODRIGUES DE OLIVEIRA           RUA ARARI, 621 BLOCO 38 APT 304         BANGU - RJ  21875260RIO DE JANEIRO RJUNIAO UMB DOS CULTOS AFRO BRAS    22121710 000216
10231987175000168916200163100    00004027                     000040270000000000000109                     I024027      22121700000000350003410000017N171117104700000000000102212170000000000000000000000000000000000000000100080728774704NERIANA SILVA DO CARMO                  RUA: NILTON PAULINO Nº 13 A - RAMOS    RIO DE JANEI21061610RIO DE JANEIRO RJUNIAO UMB DOS CULTOS AFRO BRAS    22121710 000217
10231987175000168916200163100    00004011                     000040110000000000000109                     I024011      22121700000000350003410000017N171117104700000000000102212170000000000000000000000000000000000000000100002856003702ANDRE ALVES LIBONATI                    MARIA VARGAS Nº 10 - ANDREA 4107.7702  CACHOEIRA 2721540240RIO DE JANEIRO RJUNIAO UMB DOS CULTOS AFRO BRAS    22121710 000218
10231987175000168916200163100    00004010                     000040100000000000000109                     I024010      22121700000000350003410000017N171117104700000000000102212170000000000000000000000000000000000000000100042996260791ALAYDE CUNHA DE ALMEIDA E SILV          AVENIDA: MARECHAL HERMES Nº 63 - VILA SDUQUE DE CAX25065110DUQUE DE CAXIASRJUNIAO UMB DOS CULTOS AFRO BRAS    22121710 000219
10231987175000168916200163100    00004009                     000040090000000000000109                     I024009      22121700000000350003410000017N171117104700000000000102212170000000000000000000000000000000000000000100047585978715HARILDO FRANCISCO DOS SANTOS            RUA:JOSE PINTO DE MACEDO-TRAV.TODOS OS PARRAIAL DO C28930000ARRAIAL DO CABORJUNIAO UMB DOS CULTOS AFRO BRAS    22121710 000220
10231987175000168916200163100    00003780                     000037800000000000000109                     I023780      22121700000000350003410000017N171117104700000000000102212170000000000000000000000000000000000000000100000672393743RAFAEL CASAMASSO DA COSTA               RUA JOAO CAETANO N 198 A                CENTRO - PET25610010PETROPOLIS     RJUNIAO UMB DOS CULTOS AFRO BRAS    22121710 000221
10231987175000168916200163100    00003756                     000037560000000000000109                     I023756      22121700000000350003410000017N171117104700000000000102212170000000000000000000000000000000000000000100038232103787SUZANE LEMOS DA SILVA                   RUA ASSIS REPUBLICANO N 310 FUNDOS      FREGUESIA - 22745030RIO DE JANEIRO RJUNIAO UMB DOS CULTOS AFRO BRAS    22121710 000222
10231987175000168916200163100    00003753                     000037530000000000000109                     I023753      22121700000000350003410000017N171117104700000000000102212170000000000000000000000000000000000000000100090876857772MARCO AURELIO PEREIRA VASCONCE          RUA VISCONDE DE OURO PRETO N 5          TAUA - ILHA 21910520ILHA DO GOVERNARJUNIAO UMB DOS CULTOS AFRO BRAS    22121710 000223
10231987175000168916200163100    00003500                     000035000000000000000109                     I023500      22121700000000350003410000017N171117104700000000000102212170000000000000000000000000000000000000000100082233039734BARBARA DA SILVA CUNHA MOREIRA          RUA EVARISTO PIRES N 290                BANGU - RIO 21840040RIO DE JANEIRO RJUNIAO UMB DOS CULTOS AFRO BRAS    22121710 000224
10231987175000168916200163100    00003497                     000034970000000000000109                     I023497      22121700000000350003410000017N171117104700000000000102212170000000000000000000000000000000000000000200000000002569REGINA CELIA DA SILVA LINS              RUA JUABA N 296                         GUADALUPE - 21660480RIO DE JANEIRO RJUNIAO UMB DOS CULTOS AFRO BRAS    22121710 000225
10231987175000168916200163100    00003493                     000034930000000000000109                     I023493      22121700000000350003410000017N171117104700000000000102212170000000000000000000000000000000000000000207325726570220DAMIANA DE OLIVEIRA PINHEIRO            RUA PROJETADA ALPHA QUADRA 5 LOTE 6     MORADA VERDE23575270SANTA CRUZ     RJUNIAO UMB DOS CULTOS AFRO BRAS    22121710 000226
10231987175000168916200163100    00003244                     000032440000000000000109                     I023244      22121700000000350003410000017N171117104700000000000102212170000000000000000000000000000000000000000100010518288722RODRIGO JOSE ABREU DOS SANTOS           RUA MARAVILHA, 298                      BANGU - RJ  21815150RIO DE JANEIRO RJUNIAO UMB DOS CULTOS AFRO BRAS    22121710 000227
10231987175000168916200163100    00003243                     000032430000000000000109                     I023243      22121700000000350003410000017N171117104700000000000102212170000000000000000000000000000000000000000200000000005639MANOELLA MARIA DA CONCEICAO             RUA PIRES DO RIO, 928                   EDEN - SAO J25540510SAO JOAO DE MERRJUNIAO UMB DOS CULTOS AFRO BRAS    22121710 000228
10231987175000168916200163100    00003242                     000032420000000000000109                     I023242      22121700000000350003410000017N171117104700000000000102212170000000000000000000000000000000000000000100044279388768THEREZA LEOCADIA DA COSTA               RUA VERA CRUZ, 12 - TRINTA E UM DE OUTUBPACIENCIA - 23585817RIO DE JANEIRO RJUNIAO UMB DOS CULTOS AFRO BRAS    22121710 000229
10231987175000168916200163100    00002663                     000026630000000000000109                     I022663      31121700000000035003410000017N131117104700000000000103112170000000000000000000000000000000000000000100001189035782ANDERSON MELLO DE PAULA                 RUA CARATINGA, 15                       HONORIO GURG21511200RIO DE JANEIRO RJUNIAO UMB DOS CULTOS AFRO BRAS    31121710 000230
10231987175000168916200163100    00002553                     000025530000000000000109                     I022553      31121700000000035003410000017N131117104700000000000103112170000000000000000000000000000000000000000100080728774704NERIANA SILVA DO CARMO                  RUA: NILTON PAULINO Nº 13 A - RAMOS    RIO DE JANEI21061610RIO DE JANEIRO RJUNIAO UMB DOS CULTOS AFRO BRAS    31121710 000231
10231987175000168916200163100    00002484                     000024840000000000000109                     I022484      31121700000000035003410000017N131117104700000000000103112170000000000000000000000000000000000000000100003554736740TANIA CAMPOS CAMILLO                    RUA: GUATAMBU LOTE 4 QUADRA 9 - VILA ERABELFORD ROXO26167750BELFORD ROXO   RJUNIAO UMB DOS CULTOS AFRO BRAS    31121710 000232
10231987175000168916200163100    00002292                     000022920000000000000109                     I022292      31121700000000035003410000017N131117104700000000000103112170000000000000000000000000000000000000000100000672393743RAFAEL CASAMASSO DA COSTA               RUA JOAO CAETANO N 198 A                CENTRO - PET25610010PETROPOLIS     RJUNIAO UMB DOS CULTOS AFRO BRAS    31121710 000233
9                                                                                                                                                                                                                                                                                                                                                                                                         000234
