01REMESSA01COBRANCA       916200163100        União Umb dos Cultos Afro Bra341BANCO ITAU SA  230719                                                                                                                                                                                                                                                                                                      000001
10231987175000168916200163100    000049961                    000499610000000000000109                     I0149961     30071900000000160003410000017N230719105700000000000533007190000000000000000000000000000000000000000100013118884703WESLEI FERREIRA DE CARVALHO             ESTRADA DO GUERENGUEN 1022, FUNODS      TAQUARA     22713004RIO DE JANEIRO RJUNIAO UMB DOS CULTOS AFRO BRAS    30071915 000002
21300720190000000000320                                                                                                                                                                                                                                                                                                                                                                                   000003
10231987175000168916200163100    000049960                    000499600000000000000109                     I0149960     30091900000000040003410000017N230719105700000000000133009190000000000000000000000000000000000000000100000889136785EDENILSON DE SOUZA SILVA                RUA SANTA DOROTEIAN 156, APT 101        CAMPO GRANDE23082450RIO DE JANEIRO RJUNIAO UMB DOS CULTOS AFRO BRAS    30091915 000004
21300920190000000000080                                                                                                                                                                                                                                                                                                                                                                                   000005
10231987175000168916200163100    000049959                    000499590000000000000109                     I0149959     30081900000000040003410000017N230719105700000000000133008190000000000000000000000000000000000000000100000889136785EDENILSON DE SOUZA SILVA                RUA SANTA DOROTEIAN 156, APT 101        CAMPO GRANDE23082450RIO DE JANEIRO RJUNIAO UMB DOS CULTOS AFRO BRAS    30081915 000006
21300820190000000000080                                                                                                                                                                                                                                                                                                                                                                                   000007
10231987175000168916200163100    000049958                    000499580000000000000109                     I0149958     30091900000000040003410000017N230719105700000000000133009190000000000000000000000000000000000000000100094097909720KLEBER ROBERTO DIAS SARAIVA             RUA EMILIA DINIZN 224,                  VILA MARTINS26043020NOVA IGUACU    RJUNIAO UMB DOS CULTOS AFRO BRAS    30091915 000008
21300920190000000000080                                                                                                                                                                                                                                                                                                                                                                                   000009
10231987175000168916200163100    000049957                    000499570000000000000109                     I0149957     30081900000000040003410000017N230719105700000000000133008190000000000000000000000000000000000000000100094097909720KLEBER ROBERTO DIAS SARAIVA             RUA EMILIA DINIZN 224,                  VILA MARTINS26043020NOVA IGUACU    RJUNIAO UMB DOS CULTOS AFRO BRAS    30081915 000010
21300820190000000000080                                                                                                                                                                                                                                                                                                                                                                                   000011
10231987175000168916200163100    000049956                    000499560000000000000109                     I0149956     10081900000000040003410000017N230719105700000000000131008190000000000000000000000000000000000000000100094097909720KLEBER ROBERTO DIAS SARAIVA             RUA EMILIA DINIZN 224,                  VILA MARTINS26043020NOVA IGUACU    RJUNIAO UMB DOS CULTOS AFRO BRAS    10081915 000012
21100820190000000000080                                                                                                                                                                                                                                                                                                                                                                                   000013
10231987175000168916200163100    000049955                    000499550000000000000109                     I0149955     30091900000000040003410000017N230719105700000000000133009190000000000000000000000000000000000000000100076658961700BEATRIZ DIAS DO NASCIMENTO              RUA SAO BRUNON 55, APT 301              PENHA       21021160RIO DE JANEIRO RJUNIAO UMB DOS CULTOS AFRO BRAS    30091915 000014
21300920190000000000080                                                                                                                                                                                                                                                                                                                                                                                   000015
10231987175000168916200163100    000049954                    000499540000000000000109                     I0149954     30081900000000040003410000017N230719105700000000000133008190000000000000000000000000000000000000000100076658961700BEATRIZ DIAS DO NASCIMENTO              RUA SAO BRUNON 55, APT 301              PENHA       21021160RIO DE JANEIRO RJUNIAO UMB DOS CULTOS AFRO BRAS    30081915 000016
21300820190000000000080                                                                                                                                                                                                                                                                                                                                                                                   000017
10231987175000168916200163100    000049953                    000499530000000000000109                     I0149953     10081900000000400003410000017N230719105700000000001321008190000000000000000000000000000000000000000100009289778709HELAINE FRANKLIN TEIXEIRA               RUA: CACHOEIRA ALTA N 0, LOTE 17 QUADRA JARDIM MARAV23031070CAMPO GRANDE   RJUNIAO UMB DOS CULTOS AFRO BRAS    10081915 000018
21100820190000000000800                                                                                                                                                                                                                                                                                                                                                                                   000019
10231987175000168916200163100    000049952                    000499520000000000000109                     I0149952     30091900000000040003410000017N230719105700000000000133009190000000000000000000000000000000000000000100041119177715IRAN DE SOUZA SANTOS                    AVENIDA PIRPIRITUBAN 690,               REALENGO    21760240RIO DE JANEIRO RJUNIAO UMB DOS CULTOS AFRO BRAS    30091915 000020
21300920190000000000080                                                                                                                                                                                                                                                                                                                                                                                   000021
10231987175000168916200163100    000049951                    000499510000000000000109                     I0149951     30081900000000040003410000017N230719105700000000000133008190000000000000000000000000000000000000000100041119177715IRAN DE SOUZA SANTOS                    AVENIDA PIRPIRITUBAN 690,               REALENGO    21760240RIO DE JANEIRO RJUNIAO UMB DOS CULTOS AFRO BRAS    30081915 000022
21300820190000000000080                                                                                                                                                                                                                                                                                                                                                                                   000023
10231987175000168916200163100    000049950                    000499500000000000000109                     I0149950     30071900000000120003410000017N230719105700000000000403007190000000000000000000000000000000000000000218286184000163ILE ASE OBA OLOROKE (ASE OMAN)          RUA GUATAMBUN 0, LOTE 4 QUADRA 9        VILA ERA - S26167750BELFORD ROXO   RJUNIAO UMB DOS CULTOS AFRO BRAS    30071915 000024
21300720190000000000240                                                                                                                                                                                                                                                                                                                                                                                   000025
10231987175000168916200163100    000044702                    000447020000000000000109                     I0244702     30061900000000040003410000017N130319105700000000000133006190000000000000000000000000000000000000000100002098051700FELIPE LOPES DA COSTA CHAVES            RUA: JOSE PINTO FAUSTINON 0, LOTE 14 QUAIPIRANGA    26293441NOVA IGUACU    RJUNIAO UMB DOS CULTOS AFRO BRAS    30061915 000026
21300620190000000000080                                                                                                                                                                                                                                                                                                                                                                                   000027
10231987175000168916200163100    000043721                    000437210000000000000109                     I0243721     30061900000000040003410000017N130319105700000000000133006190000000000000000000000000000000000000000100011426954760THIAGO BARBOSA DA SILVA                 RUA PEDRO DOMINGUESN 52, CASA 2         ENCANTADO   20756080RIO DE JANEIRO RJUNIAO UMB DOS CULTOS AFRO BRAS    30061915 000028
21300620190000000000080                                                                                                                                                                                                                                                                                                                                                                                   000029
10231987175000168916200163100    000043048                    000430480000000000000109                     I0243048     30051900000000040003410000017N130319105700000000000133005190000000000000000000000000000000000000000100002098051700FELIPE LOPES DA COSTA CHAVES            RUA: JOSE PINTO FAUSTINON 0, LOTE 14 QUAIPIRANGA    26293441NOVA IGUACU    RJUNIAO UMB DOS CULTOS AFRO BRAS    30051915 000030
21300520190000000000080                                                                                                                                                                                                                                                                                                                                                                                   000031
10231987175000168916200163100    000042077                    000420770000000000000109                     I0242077     30051900000000040003410000017N130319105700000000000133005190000000000000000000000000000000000000000100011426954760THIAGO BARBOSA DA SILVA                 RUA PEDRO DOMINGUESN 52, CASA 2         ENCANTADO   20756080RIO DE JANEIRO RJUNIAO UMB DOS CULTOS AFRO BRAS    30051915 000032
21300520190000000000080                                                                                                                                                                                                                                                                                                                                                                                   000033
9                                                                                                                                                                                                                                                                                                                                                                                                         000034
