01REMESSA01COBRANCA       817800093673        União Umb dos Cultos Afro Bra341BANCO ITAU SA  130319                                                                                                                                                                                                                                                                                                      000001
10231987175000168817800093673    000039341                    000393410000000000000109                     I0239341     30031900000000040003410000017N261218104700000000000103003190000000000000000000000000000000000000000100007324540775JAQUELINE DE LIMA ALMEIDA DE J          RUA JOAQUIM ARRUDAN 13, QUADRA 39 LOTE 4JARDIM SAO P25935800MAGE           RJUNIAO UMB DOS CULTOS AFRO BRAS    30031910 000002
10231987175000168817800093673    000039253                    000392530000000000000109                     I0239253     30031900000000040003410000017N261218104700000000000103003190000000000000000000000000000000000000000100010486021769SIDNEY RODRIGUES DA SILVA JUNI          RUA NEWTON GARCIAN 130, FUNDOS          PACIENCIA   23065520RIO DE JANEIRO RJUNIAO UMB DOS CULTOS AFRO BRAS    30031910 000003
10231987175000168817800093673    000038469                    000384690000000000000109                     I0238469     30031900000000040003410000017N261218104700000000000103003190000000000000000000000000000000000000000100002673106766JANAINA MARQUES ALVES SANTOS T          RUA DOS RUBISN 519, A SOBRADO           ROCHA MIRAND21510012RIO DE JANEIRO RJUNIAO UMB DOS CULTOS AFRO BRAS    30031910 000004
10231987175000168817800093673    000038077                    000380770000000000000109                     I0238077     30031900000000040003410000017N261218104700000000000103003190000000000000000000000000000000000000000100002554595720ROSA CRISTINA SANTANA BARBOSA           RUA JOSE FERNANDESN 14,                 SEPETIBA    23535450RIO DE JANEIRO RJUNIAO UMB DOS CULTOS AFRO BRAS    30031910 000005
10231987175000168817800093673    000037506                    000375060000000000000109                     I0237506     30031900000000040003410000017N261218104700000000000103003190000000000000000000000000000000000000000100050713558768ANILSON DA SILVA                        TRAVESSA HELENAN 0,  CASA 19 ENTRADA 217REALENGO    21760620RIO DE JANEIRO RJUNIAO UMB DOS CULTOS AFRO BRAS    30031910 000006
10231987175000168817800093673    000037502                    000375020000000000000109                     I0237502     30031900000000040003410000017N261218104700000000000103003190000000000000000000000000000000000000000100003388076758ROSALINA MARIA NEVES                    RUA: LAURINDO FILHON 199, CASA 6        CAVALCANTI  21370260RIO DE JANEIRO RJUNIAO UMB DOS CULTOS AFRO BRAS    30031910 000007
10231987175000168817800093673    000037424                    000374240000000000000109                     I0237424     28021900000000040003410000017N261218104700000000000102802190000000000000000000000000000000000000000100011124747737JOSE DO NASCIMENTO                      RUA JUTAI N 0, LOTE 25 QUADRA 153       OLAVO BILAC 25025290DUQUE DE CAXIASRJUNIAO UMB DOS CULTOS AFRO BRAS    28021910 000008
10231987175000168817800093673    000037422                    000374220000000000000109                     I0237422     28021900000000040003410000017N261218104700000000000102802190000000000000000000000000000000000000000100007324540775JAQUELINE DE LIMA ALMEIDA DE J          RUA JOAQUIM ARRUDAN 13, QUADRA 39 LOTE 4JARDIM SAO P25935800MAGE           RJUNIAO UMB DOS CULTOS AFRO BRAS    28021910 000009
10231987175000168817800093673    000037371                    000373710000000000000109                     I0237371     28021900000000040003410000017N261218104700000000000102802190000000000000000000000000000000000000000100012119575789RAYKA DA SILVA BATISTA                  RUA PARAISON 33,                        PIABETA     25931638MAGE           RJUNIAO UMB DOS CULTOS AFRO BRAS    28021910 000010
10231987175000168817800093673    000037334                    000373340000000000000109                     I0237334     28021900000000040003410000017N261218104700000000000102802190000000000000000000000000000000000000000100010486021769SIDNEY RODRIGUES DA SILVA JUNI          RUA NEWTON GARCIAN 130, FUNDOS          PACIENCIA   23065520RIO DE JANEIRO RJUNIAO UMB DOS CULTOS AFRO BRAS    28021910 000011
10231987175000168817800093673    000036762                    000367620000000000000109                     I0236762     28021900000000040003410000017N261218104700000000000102802190000000000000000000000000000000000000000100010591612739ROSEMERE SOUZA DA SILVA                 RUA OURO BRANCON 1525, BLOCO 24 B APT 20VISTA ALEGRE21230354RIO DE JANEIRO RJUNIAO UMB DOS CULTOS AFRO BRAS    28021910 000012
10231987175000168817800093673    000035703                    000357030000000000000109                     I0235703     28021900000000040003410000017N261218104700000000000102802190000000000000000000000000000000000000000100095274987753PAULO SERGIO BARBOSA DA CUNHA           RUA IPIUNAN 16,                         JARDIM BANGU21866030RIO DE JANEIRO RJUNIAO UMB DOS CULTOS AFRO BRAS    28021910 000013
10231987175000168817800093673    000035594                    000355940000000000000109                     I0235594     28021900000000040003410000017N261218104700000000000102802190000000000000000000000000000000000000000100050713558768ANILSON DA SILVA                        TRAVESSA HELENAN 0,  CASA 19 ENTRADA 217REALENGO    21760620RIO DE JANEIRO RJUNIAO UMB DOS CULTOS AFRO BRAS    28021910 000014
10231987175000168817800093673    000035590                    000355900000000000000109                     I0235590     28021900000000040003410000017N261218104700000000000102802190000000000000000000000000000000000000000100003388076758ROSALINA MARIA NEVES                    RUA: LAURINDO FILHON 199, CASA 6        CAVALCANTI  21370260RIO DE JANEIRO RJUNIAO UMB DOS CULTOS AFRO BRAS    28021910 000015
10231987175000168817800093673    000035458                    000354580000000000000109                     I0235458     31011900000000040003410000017N261218104700000000000103101190000000000000000000000000000000000000000100012119575789RAYKA DA SILVA BATISTA                  RUA PARAISON 33,                        PIABETA     25931638MAGE           RJUNIAO UMB DOS CULTOS AFRO BRAS    31011910 000016
10231987175000168817800093673    000035421                    000354210000000000000109                     I0235421     31011900000000040003410000017N261218104700000000000103101190000000000000000000000000000000000000000100010486021769SIDNEY RODRIGUES DA SILVA JUNI          RUA NEWTON GARCIAN 130, FUNDOS          PACIENCIA   23065520RIO DE JANEIRO RJUNIAO UMB DOS CULTOS AFRO BRAS    31011910 000017
10231987175000168817800093673    000033690                    000336900000000000000109                     I0233690     31011900000000040003410000017N261218104700000000000103101190000000000000000000000000000000000000000100003388076758ROSALINA MARIA NEVES                    RUA: LAURINDO FILHON 199, CASA 6        CAVALCANTI  21370260RIO DE JANEIRO RJUNIAO UMB DOS CULTOS AFRO BRAS    31011910 000018
10231987175000168817800093673    000027043                    000270430000000000000109                     I0227043     30091800000000035003410000017N200818104700000000000103009180000000000000000000000000000000000000000100005818072789MARLUCE MARIA DE OLIVEIRA               RUA PAHANDN 0, LOTE 20 QUADRA 10        SANTA TEREZA26193500BELFORD ROXO   RJUNIAO UMB DOS CULTOS AFRO BRAS    30091810 000019
10231987175000168817800093673    000025629                    000256290000000000000109                     I0225629     30101800000000035003410000017N200818104700000000000103010180000000000000000000000000000000000000000100005818072789MARLUCE MARIA DE OLIVEIRA               RUA PAHANDN 0, LOTE 20 QUADRA 10        SANTA TEREZA26193500BELFORD ROXO   RJUNIAO UMB DOS CULTOS AFRO BRAS    30101810 000020
9                                                                                                                                                                                                                                                                                                                                                                                                         000021
