01REMESSA01COBRANCA       817800093673        União Umb dos Cultos Afro Bra341BANCO ITAU SA  030719                                                                                                                                                                                                                                                                                                      000001
10231987175000168817800093673    000049007                    000490070000000000000109                     I0249007     30091900000000040003410000017N100619105700000000000133009190000000000000000000000000000000000000000100073243728720MARCOS AURELIO REIS DE CASTRO           RUA DAS ROSASN 1930, LOTE 17 QUADRA K   VILA VALQUEI21321382RIO DE JANEIRO RJUNIAO UMB DOS CULTOS AFRO BRAS    30091915 000002
21300920190000000000080                                                                                                                                                                                                                                                                                                                                                                                   000003
10231987175000168817800093673    000048227                    000482270000000000000109                     I3448227     30091900000000040003410000017N100619105700000000000133009190000000000000000000000000000000000000000100072012102700MARIA APARECIDA FELIZARDO POVO          RUA GALVAO BUENON 51,                   BENTO RIBEIR21331430RIO DE JANEIRO RJUNIAO UMB DOS CULTOS AFRO BRAS    30091915 000004
21300920190000000000080                                                                                                                                                                                                                                                                                                                                                                                   000005
10231987175000168817800093673    000046792                    000467920000000000000109                     I3446792     30081900000000040003410000017N100619105700000000000133008190000000000000000000000000000000000000000100072012102700MARIA APARECIDA FELIZARDO POVO          RUA GALVAO BUENON 51,                   BENTO RIBEIR21331430RIO DE JANEIRO RJUNIAO UMB DOS CULTOS AFRO BRAS    30081915 000006
21300820190000000000080                                                                                                                                                                                                                                                                                                                                                                                   000007
10231987175000168817800093673    000046231                    000462310000000000000109                     I3446231     30071900000000040003410000017N100619105700000000000133007190000000000000000000000000000000000000000100004250914739ERIKA BARBOSA DOS SANTOS                AVENIDA ERNANI CARDOSON 53, FUNDOS CASA CASCADURA   21310310RIO DE JANEIRO RJUNIAO UMB DOS CULTOS AFRO BRAS    30071915 000008
21300720190000000000080                                                                                                                                                                                                                                                                                                                                                                                   000009
10231987175000168817800093673    000045893                    000458930000000000000109                     I3445893     30071900000000040003410000017N100619105700000000000133007190000000000000000000000000000000000000000100004462221788ALEXSANDRO JULIO DE SOUZA               RUA CORURIPEN 410,                      MARECHAL HER21555490RIO DE JANEIRO RJUNIAO UMB DOS CULTOS AFRO BRAS    30071915 000010
21300720190000000000080                                                                                                                                                                                                                                                                                                                                                                                   000011
10231987175000168817800093673    000045371                    000453710000000000000109                     I3445371     30071900000000040003410000017N100619105700000000000133007190000000000000000000000000000000000000000100072012102700MARIA APARECIDA FELIZARDO POVO          RUA GALVAO BUENON 51,                   BENTO RIBEIR21331430RIO DE JANEIRO RJUNIAO UMB DOS CULTOS AFRO BRAS    30071915 000012
21300720190000000000080                                                                                                                                                                                                                                                                                                                                                                                   000013
10231987175000168817800093673    000045317                    000453170000000000000109                     I0245317     10061900000000400003410000017N280519105700000000001321006190000000000000000000000000000000000000000100009548831791PEDRO SAMPAIO DA SILVA                  RUA ALZIRA VALDETARON 161,              SAMPAIO     20950070RIO DE JANEIRO RJUNIAO UMB DOS CULTOS AFRO BRAS    10061915 000014
21100620190000000000800                                                                                                                                                                                                                                                                                                                                                                                   000015
9                                                                                                                                                                                                                                                                                                                                                                                                         000016
