01REMESSA01COBRANCA       916200163100        União Umb dos Cultos Afro Bra341BANCO ITAU SA  030119                                                                                                                                                                                                                                                                                                      000001
10231987175000168916200163100    000039430                    000394300000000000000109                     I0239430     31121800000000035003410000017N281218104700000000000103112180000000000000000000000000000000000000000100057231737749ELIZABETE CARVALHO COSTA                RUA EXPEDICIONARIO SIMAO FERNANDES      COLUMBANDE  24451700SAO GONCALO    RJUNIAO UMB DOS CULTOS AFRO BRAS    31121810 000002
9                                                                                                                                                                                                                                                                                                                                                                                                         000003
