01REMESSA01COBRANCA       817800093673        União Umb dos Cultos Afro Bra341BANCO ITAU SA  030918                                                                                                                                                                                                                                                                                                      000001
10231987175000168817800093673    000028427                    000284270000000000000109                     I0228427     30111800000000035003410000017N200818104700000000000103011180000000000000000000000000000000000000000100003443839703ANDERSON FERNANDES DE PAIVA             RUA JUDITE GUERRA                       PAVUNA      21520260RIO DE JANEIRO RJUNIAO UMB DOS CULTOS AFRO BRAS    30111810 000002
10231987175000168817800093673    000028294                    000282940000000000000109                     I0228294     30111800000000040003410000017N200818104700000000000103011180000000000000000000000000000000000000000100016618405742MILTON CARLOS JUNIO QUINTANILH          RUA SEIS                                PARADA MORAB25265000DUQUE DE CAXIASRJUNIAO UMB DOS CULTOS AFRO BRAS    30111810 000003
10231987175000168817800093673    000028264                    000282640000000000000109                     I0228264     30111800000000035003410000017N200818104700000000000103011180000000000000000000000000000000000000000100008204291710STANLEY RODRIGO SILVA BOEHLER           RUA CARLOS DE CAMPOS                    VILA SAPE - 25275230DUQUE DE CAXIASRJUNIAO UMB DOS CULTOS AFRO BRAS    30111810 000004
10231987175000168817800093673    000027877                    000278770000000000000109                     I0227877     30111800000000035003410000017N200818104700000000000103011180000000000000000000000000000000000000000100098077899749WANDERLEY PACHECO                       RUA NOSSA SENHORA DA CONCEICAO          PILAR       25233070DUQUE DE CAXIASRJUNIAO UMB DOS CULTOS AFRO BRAS    30111810 000005
10231987175000168817800093673    000027004                    000270040000000000000109                     I0227004     30091800000000035003410000017N200818104700000000000103009180000000000000000000000000000000000000000100003443839703ANDERSON FERNANDES DE PAIVA             RUA JUDITE GUERRA                       PAVUNA      21520260RIO DE JANEIRO RJUNIAO UMB DOS CULTOS AFRO BRAS    30091810 000006
10231987175000168817800093673    000026871                    000268710000000000000109                     I0226871     30091800000000040003410000017N200818104700000000000103009180000000000000000000000000000000000000000100016618405742MILTON CARLOS JUNIO QUINTANILH          RUA SEIS                                PARADA MORAB25265000DUQUE DE CAXIASRJUNIAO UMB DOS CULTOS AFRO BRAS    30091810 000007
10231987175000168817800093673    000026843                    000268430000000000000109                     I0226843     30091800000000035003410000017N200818104700000000000103009180000000000000000000000000000000000000000100008204291710STANLEY RODRIGO SILVA BOEHLER           RUA CARLOS DE CAMPOS                    VILA SAPE - 25275230DUQUE DE CAXIASRJUNIAO UMB DOS CULTOS AFRO BRAS    30091810 000008
10231987175000168817800093673    000026458                    000264580000000000000109                     I0226458     30091800000000035003410000017N200818104700000000000103009180000000000000000000000000000000000000000100098077899749WANDERLEY PACHECO                       RUA NOSSA SENHORA DA CONCEICAO          PILAR       25233070DUQUE DE CAXIASRJUNIAO UMB DOS CULTOS AFRO BRAS    30091810 000009
10231987175000168817800093673    000025824                    000258240000000000000109                     I3425824     30091800000000035003410000017N200818104700000000000103009180000000000000000000000000000000000000000100009886046716ANA CRISTINA DE ALMEIDA TRINDA          RUA COTIJUBA N 156                      ROCHA MIRAND21555020RIO DE JANEIRO RJUNIAO UMB DOS CULTOS AFRO BRAS    30091810 000010
10231987175000168817800093673    000025589                    000255890000000000000109                     I0225589     30101800000000035003410000017N200818104700000000000103010180000000000000000000000000000000000000000100003443839703ANDERSON FERNANDES DE PAIVA             RUA JUDITE GUERRA                       PAVUNA      21520260RIO DE JANEIRO RJUNIAO UMB DOS CULTOS AFRO BRAS    30101810 000011
10231987175000168817800093673    000025456                    000254560000000000000109                     I0225456     30101800000000040003410000017N200818104700000000000103010180000000000000000000000000000000000000000100016618405742MILTON CARLOS JUNIO QUINTANILH          RUA SEIS                                PARADA MORAB25265000DUQUE DE CAXIASRJUNIAO UMB DOS CULTOS AFRO BRAS    30101810 000012
10231987175000168817800093673    000025427                    000254270000000000000109                     I0225427     30101800000000035003410000017N200818104700000000000103010180000000000000000000000000000000000000000100008204291710STANLEY RODRIGO SILVA BOEHLER           RUA CARLOS DE CAMPOS                    VILA SAPE - 25275230DUQUE DE CAXIASRJUNIAO UMB DOS CULTOS AFRO BRAS    30101810 000013
10231987175000168817800093673    000025040                    000250400000000000000109                     I0225040     30101800000000035003410000017N200818104700000000000103010180000000000000000000000000000000000000000100098077899749WANDERLEY PACHECO                       RUA NOSSA SENHORA DA CONCEICAO          PILAR       25233070DUQUE DE CAXIASRJUNIAO UMB DOS CULTOS AFRO BRAS    30101810 000014
10231987175000168817800093673    000021381                    000213810000000000000109                     I0221381     20081800000000105003410000017N130818104700000000000102008180000000000000000000000000000000000000000100002349584720UANDERSON MARTINS DE PAULA              RUA MUNIZ E BARROS                      RIO D OURO  26910000MIGUEL PEREIRA RJUNIAO UMB DOS CULTOS AFRO BRAS    20081810 000015
9                                                                                                                                                                                                                                                                                                                                                                                                         000016
