01REMESSA01COBRANCA       817800093673        União Umb dos Cultos Afro Bra341BANCO ITAU SA  210219                                                                                                                                                                                                                                                                                                      000001
10231987175000168817800093673    000038047                    000380470000000000000109                     I0238047     30031900000000040003410000017N261218104700000000000103003190000000000000000000000000000000000000000100065091515704MARIA DA PENHA BARBOSA                  RUA HELVIA BRAGANCAN 390, LOTE 33 QUADRABOM PASTOR  26110030BELFORD ROXO   RJUNIAO UMB DOS CULTOS AFRO BRAS    30031910 000002
10231987175000168817800093673    000037192                    000371920000000000000109                     I0237192     28021900000000040003410000017N261218104700000000000102802190000000000000000000000000000000000000000100002142304737ILAIR FERNANDES BRAZILEIRO BOR          RUA VERISSIMO MACHADO N 395, FUNDOS     ROCHA MIRAND21545060RIO DE JANEIRO RJUNIAO UMB DOS CULTOS AFRO BRAS    28021910 000003
10231987175000168817800093673    000036968                    000369680000000000000109                     I0236968     28021900000000040003410000017N261218104700000000000102802190000000000000000000000000000000000000000100003003608789ADRIANA LUCIANA DA SILVA                AVENIDA VICENTE DE CARVALHON 1086,  RUA VICENTE DE C21210024RIO DE JANEIRO RJUNIAO UMB DOS CULTOS AFRO BRAS    28021910 000004
10231987175000168817800093673    000036888                    000368880000000000000109                     I0236888     28021900000000040003410000017N261218104700000000000102802190000000000000000000000000000000000000000100052282171772SONIA MARIA DOS SANTOS                  RUA MIDAN 13, QUADRA 1                  RIACHAO - AU26084050NOVA IGUACU    RJUNIAO UMB DOS CULTOS AFRO BRAS    28021910 000005
10231987175000168817800093673    000036132                    000361320000000000000109                     I0236132     28021900000000040003410000017N261218104700000000000102802190000000000000000000000000000000000000000100065091515704MARIA DA PENHA BARBOSA                  RUA HELVIA BRAGANCAN 390, LOTE 33 QUADRABOM PASTOR  26110030BELFORD ROXO   RJUNIAO UMB DOS CULTOS AFRO BRAS    28021910 000006
10231987175000168817800093673    000035281                    000352810000000000000109                     I0235281     31011900000000040003410000017N261218104700000000000103101190000000000000000000000000000000000000000100002142304737ILAIR FERNANDES BRAZILEIRO BOR          RUA VERISSIMO MACHADO N 395, FUNDOS     ROCHA MIRAND21545060RIO DE JANEIRO RJUNIAO UMB DOS CULTOS AFRO BRAS    31011910 000007
10231987175000168817800093673    000035058                    000350580000000000000109                     I0235058     31011900000000040003410000017N261218104700000000000103101190000000000000000000000000000000000000000100003003608789ADRIANA LUCIANA DA SILVA                AVENIDA VICENTE DE CARVALHON 1086,  RUA VICENTE DE C21210024RIO DE JANEIRO RJUNIAO UMB DOS CULTOS AFRO BRAS    31011910 000008
10231987175000168817800093673    000034978                    000349780000000000000109                     I0234978     31011900000000040003410000017N261218104700000000000103101190000000000000000000000000000000000000000100052282171772SONIA MARIA DOS SANTOS                  RUA MIDAN 13, QUADRA 1                  RIACHAO - AU26084050NOVA IGUACU    RJUNIAO UMB DOS CULTOS AFRO BRAS    31011910 000009
10231987175000168817800093673    000034613                    000346130000000000000109                     I0234613     31011900000000040003410000017N261218104700000000000103101190000000000000000000000000000000000000000100075745658720ELIZIETE COIMBRA DE FRANCA              RUA SAO LOURENCON 99,                   SANTA RITA  26050630NOVA IGUACU    RJUNIAO UMB DOS CULTOS AFRO BRAS    31011910 000010
10231987175000168817800093673    000034559                    000345590000000000000109                     I0234559     31011900000000040003410000017N261218104700000000000103101190000000000000000000000000000000000000000100042598907787IRACI CARDOSO DOS SANTOS                RUA LUIZ FELECIANO  LARANJALN 0, LOTE 16LARANJAL    24725370SAO GONCALO    RJUNIAO UMB DOS CULTOS AFRO BRAS    31011910 000011
10231987175000168817800093673    000034224                    000342240000000000000109                     I0234224     31011900000000040003410000017N261218104700000000000103101190000000000000000000000000000000000000000100065091515704MARIA DA PENHA BARBOSA                  RUA HELVIA BRAGANCAN 390, LOTE 33 QUADRABOM PASTOR  26110030BELFORD ROXO   RJUNIAO UMB DOS CULTOS AFRO BRAS    31011910 000012
9                                                                                                                                                                                                                                                                                                                                                                                                         000013
