01REMESSA01COBRANCA       817800093673        União Umb dos Cultos Afro Bra341BANCO ITAU SA  290119                                                                                                                                                                                                                                                                                                      000001
10231987175000168817800093673    000039667                    000396670000000000000109                     I0139667     05021900000000400003410000017N290119104700000000000100502190000000000000000000000000000000000000000100059413573700LUIZ ANTONIO CARDOSO ARAUJO             RUA SAMUEL DAS NEVES                    PECHINCHA   22770110RIO DE JANEIRO RJUNIAO UMB DOS CULTOS AFRO BRAS    05021910 000002
10231987175000168817800093673    000039666                    000396660000000000000109                     I0239666     05021900000000000003410000017N290119104700000000000100502190000000000000000000000000000000000000000100059413573700LUIZ ANTONIO CARDOSO ARAUJO             RUA SAMUEL DAS NEVES                    PECHINCHA   22770110RIO DE JANEIRO RJUNIAO UMB DOS CULTOS AFRO BRAS    05021910 000003
10231987175000168817800093673    000039665                    000396650000000000000109                     I0139665     05021900000000180003410000017N290119104700000000000100502190000000000000000000000000000000000000000100004474701755JACIRA DE ALMEIDA BATISTA JULI          AVENIDA SAO PAULO                       PARQUE MARIL25225660DUQUE DE CAXIASRJUNIAO UMB DOS CULTOS AFRO BRAS    05021910 000004
10231987175000168817800093673    000039657                    000396570000000000000109                     I0239657     05021900000000350003410000017N280119104700000000000100502190000000000000000000000000000000000000000100004826958706CRISTIANE RABELLO PAZ                   RUA ROBERTO SILVA                       RAMOS       21060230RIO DE JANEIRO RJUNIAO UMB DOS CULTOS AFRO BRAS    05021910 000005
10231987175000168817800093673    000039625                    000396250000000000000109                     I0239625     31011900000000400003410000017N210119104700000000000103101190000000000000000000000000000000000000000100059413573700LUIZ ANTONIO CARDOSO ARAUJO             RUA SAMUEL DAS NEVES                    PECHINCHA   22770110RIO DE JANEIRO RJUNIAO UMB DOS CULTOS AFRO BRAS    31011910 000006
10231987175000168817800093673    000038487                    000384870000000000000109                     I0238487     30031900000000040003410000017N261218104700000000000103003190000000000000000000000000000000000000000100006927798765ROSA MARIA RICARDO PINTO                RUA JOAQUIM BESSA                       TRINDADE    24210205SAO GONCALO    RJUNIAO UMB DOS CULTOS AFRO BRAS    30031910 000007
10231987175000168817800093673    000036816                    000368160000000000000109                     I0236816     28021900000000040003410000017N261218104700000000000102802190000000000000000000000000000000000000000100004826958706CRISTIANE RABELLO PAZ                   RUA ROBERTO SILVA                       RAMOS       21060230RIO DE JANEIRO RJUNIAO UMB DOS CULTOS AFRO BRAS    28021910 000008
10231987175000168817800093673    000036570                    000365700000000000000109                     I0236570     28021900000000040003410000017N261218104700000000000102802190000000000000000000000000000000000000000100006927798765ROSA MARIA RICARDO PINTO                RUA JOAQUIM BESSA                       TRINDADE    24210205SAO GONCALO    RJUNIAO UMB DOS CULTOS AFRO BRAS    28021910 000009
10231987175000168817800093673    000035466                    000354660000000000000109                     I0235466     31011900000000040003410000017N261218104700000000000103101190000000000000000000000000000000000000000100034727272768JOSEFINA AGUIAR CASTRO                  RUA DOUTOR NELSON FERNANDES             PARQUE CAPIV25900000DUQUE DE CAXIASRJUNIAO UMB DOS CULTOS AFRO BRAS    31011910 000010
10231987175000168817800093673    000035096                    000350960000000000000109                     I0235096     31011900000000040003410000017N261218104700000000000103101190000000000000000000000000000000000000000100040262146720ARABELA SILVA CAMPOS DOS REIS           RUA PEQUIM                              PARADA MORAB25265270RIO DE JANEIRO RJUNIAO UMB DOS CULTOS AFRO BRAS    31011910 000011
10231987175000168817800093673    000034906                    000349060000000000000109                     I0234906     31011900000000040003410000017N261218104700000000000103101190000000000000000000000000000000000000000100004826958706CRISTIANE RABELLO PAZ                   RUA ROBERTO SILVA                       RAMOS       21060230RIO DE JANEIRO RJUNIAO UMB DOS CULTOS AFRO BRAS    31011910 000012
10231987175000168817800093673    000034661                    000346610000000000000109                     I0234661     31011900000000040003410000017N261218104700000000000103101190000000000000000000000000000000000000000100006927798765ROSA MARIA RICARDO PINTO                RUA JOAQUIM BESSA                       TRINDADE    24210205SAO GONCALO    RJUNIAO UMB DOS CULTOS AFRO BRAS    31011910 000013
10231987175000168817800093673    000034494                    000344940000000000000109                     I0234494     31011900000000040003410000017N261218104700000000000103101190000000000000000000000000000000000000000100004462221788ALEXSANDRO JULIO DE SOUZA               RUA CORURIPE                            MARECHAL HER21555490RIO DE JANEIRO RJUNIAO UMB DOS CULTOS AFRO BRAS    31011910 000014
10231987175000168817800093673    000034025                    000340250000000000000109                     I0234025     31011900000000040003410000017N261218104700000000000103101190000000000000000000000000000000000000000100079006981753ELIANE BARBOSA RODRIGUES                AVENIDA PASTEUR                         PARQUE ALIAN25550210SAO JOAO DE MERRJUNIAO UMB DOS CULTOS AFRO BRAS    31011910 000015
10231987175000168817800093673    000032159                    000321590000000000000109                     I0232159     20121800000000400003410000017N291018104700000000000102012180000000000000000000000000000000000000000100085949841700GEORGETTE PAIVA MARQUES                 RUA ALVORADA DO SUL,                    INHOAIBA    23062010RIO DE JANEIRO RJUNIAO UMB DOS CULTOS AFRO BRAS    20121810 000016
10231987175000168817800093673    000032062                    000320620000000000000109                     I0232062     20121800000000350003410000017N291018104700000000000102012180000000000000000000000000000000000000000100006927798765ROSA MARIA RICARDO PINTO                RUA JOAQUIM BESSA                       TRINDADE    24210205SAO GONCALO    RJUNIAO UMB DOS CULTOS AFRO BRAS    20121810 000017
10231987175000168817800093673    000029156                    000291560000000000000109                     I0229156     20121800000000035003410000017N291018104700000000000102012180000000000000000000000000000000000000000100076896960744MARIA LUCIA DE OLIVEIRA NUNES           AVENIDA DO CORRETOR                     VILA ALIANCA21842340RIO DE JANEIRO RJUNIAO UMB DOS CULTOS AFRO BRAS    20121810 000018
9                                                                                                                                                                                                                                                                                                                                                                                                         000019
