01REMESSA01COBRANCA       817800093673        Uni√£o Umb dos Cultos Afro Bra341BANCO ITAU SA  210818                                                                                                                                                                                                                                                                                                      000001
10231987175000168817800093673    000028504                    000285040000000000000109                     I0128504     24081800000000315003410000017N210818104700000000000102408180000000000000000000000000000000000000000100007682577789CLAUDIA CRISTINA CARVALHO AREA          RUA ALFAZEMA, 91 CASA 1                 PADRE MIGUEL21720360RIO DE JANEIRO RJUNIAO UMB DOS CULTOS AFRO BRAS    24081810 000002
10231987175000168817800093673    000028503                    000285030000000000000109                     I0128503     30081800000000480003410000017N210818104700000000000103008180000000000000000000000000000000000000000100008578432738WANDERSON DOS SANTOS LOPES              RUA SATURNO                             VILA GENI   23825517COROA GRANDE   RJUNIAO UMB DOS CULTOS AFRO BRAS    30081810 000003
10231987175000168817800093673    000028502                    000285020000000000000109                     I0128502     22081800000000350003410000017N210818104700000000000102208180000000000000000000000000000000000000000100016685778792PAMELA TAMIRIS DA SILVA CORDEI          RUA DO OURO, 14                         INHOAIBA - R23064140RIO DE JANEIRO RJUNIAO UMB DOS CULTOS AFRO BRAS    22081810 000004
10231987175000168817800093673    000028501                    000285010000000000000109                     I0128501     24081800000000400003410000017N210818104700000000000102408180000000000000000000000000000000000000000100010368667774SUZANA PEREIRA MOIZINHO                 RUA CONCEICAO DA PEDRA N 77             ARNALDO EUGE23016330CAMPO GRANDE   RJUNIAO UMB DOS CULTOS AFRO BRAS    24081810 000005
10231987175000168817800093673    000028500                    000285000000000000000109                     I0128500     30081800000000035003410000017N210818104700000000000103008180000000000000000000000000000000000000000100097990531704CICERO ROGERIO DA SILVA MATOS           RUA: ROBERTO                            VILA GUIMARA26088425NOVA IGUACU    RJUNIAO UMB DOS CULTOS AFRO BRAS    30081810 000006
10231987175000168817800093673    000028499                    000284990000000000000109                     I0128499     14091800000000150003410000017N200818104700000000000101409180000000000000000000000000000000000000000100070217491715HELENO FERNANDES DE SOUZA               ESTRADA JORNALISTA JOSE GUINA, 86       COSMOS - RIO23060270RIO DE JANEIRO RJUNIAO UMB DOS CULTOS AFRO BRAS    14091810 000007
10231987175000168817800093673    000028498                    000284980000000000000109                     I0128498     14091800000000120003410000017N200818104700000000000101409180000000000000000000000000000000000000000100004245613793MARIA ELENA DA SILVA SANTOS             AVENIDA ENGENHEIRO SOUSA FILHO, 1176 CASITANHANGA - 22753053RIO DE JANEIRO RJUNIAO UMB DOS CULTOS AFRO BRAS    14091810 000008
10231987175000168817800093673    000028497                    000284970000000000000109                     I0128497     14091800000000150003410000017N200818104700000000000101409180000000000000000000000000000000000000000100008098163776LUIS CARLOS DA ROCHA MARTINS            RUA CORONEL TITO PORTO CARREIRO, 17     PACIENCIA - 23580010RIO DE JANEIRO RJUNIAO UMB DOS CULTOS AFRO BRAS    14091810 000009
10231987175000168817800093673    000028496                    000284960000000000000109                     I0128496     14091800000000200003410000017N200818104700000000000101409180000000000000000000000000000000000000000100000559151756HENIE DA SILVA ALENCAR                  RUA ROBERTO CALDAS                      PARQUE FLUMI26187400BELFORD ROXO   RJUNIAO UMB DOS CULTOS AFRO BRAS    14091810 000010
10231987175000168817800093673    000028495                    000284950000000000000109                     I0128495     14091800000000200003410000017N200818104700000000000101409180000000000000000000000000000000000000000100003028407701MARIA MARINETE OLIVEIRA  DA SI          RUA TURIUVA LOTE 40 QUADRA 54           VILA MELIPOL26150000BELFORD ROXO   RJUNIAO UMB DOS CULTOS AFRO BRAS    14091810 000011
10231987175000168817800093673    000028494                    000284940000000000000109                     I0128494     14091800000000200003410000017N200818104700000000000101409180000000000000000000000000000000000000000200000000007042CARLINDA ELIANE NUNES                   O MESMO                                 O MESMO     25015540DUQUE DE CAXIASRJUNIAO UMB DOS CULTOS AFRO BRAS    14091810 000012
10231987175000168817800093673    000028493                    000284930000000000000109                     I0128493     14091800000000200003410000017N200818104700000000000101409180000000000000000000000000000000000000000100000000000555OLIMPIA SOARES DE ARAUJO                RUA DEZ, LOTE 46 QUADRA 12 - SANTA MARGACOSMOS - RIO23067010RIO DE JANEIRO RJUNIAO UMB DOS CULTOS AFRO BRAS    14091810 000013
10231987175000168817800093673    000028492                    000284920000000000000109                     I0128492     14091800000000200003410000017N200818104700000000000101409180000000000000000000000000000000000000000100064392791734ORDALINA PEDROZO TOMAZ DE AQUI          RUA ABEL DE ALVARENGA                   CHATUBA     26246340MESQUITA       RJUNIAO UMB DOS CULTOS AFRO BRAS    14091810 000014
10231987175000168817800093673    000028491                    000284910000000000000109                     I0128491     14091800000000200003410000017N200818104700000000000101409180000000000000000000000000000000000000000100000000001253TATIANA DA SILVA SANTOS                 RUA IRACEMA                             VILA DE CAVA25065655NOVA IGUACU    RJUNIAO UMB DOS CULTOS AFRO BRAS    14091810 000015
10231987175000168817800093673    000028490                    000284900000000000000109                     I0128490     14091800000000300003410000017N200818104700000000000101409180000000000000000000000000000000000000000100000447643754JANICE LEAL CARRILHO                    RUA DOS BANCARIOS                       TRES PONTES 00000000RIO DE JANEIRO RJUNIAO UMB DOS CULTOS AFRO BRAS    14091810 000016
10231987175000168817800093673    000028489                    000284890000000000000109                     I0128489     30111800000000040003410000017N200818104700000000000103011180000000000000000000000000000000000000000100002520191724ANA LUCIA MENEZES DO NASCIMENT          RUA: VEREADOR FRANCISCO NUNES SILVA     OLINA       26545060NILOPOLIS      RJUNIAO UMB DOS CULTOS AFRO BRAS    30111810 000017
10231987175000168817800093673    000028488                    000284880000000000000109                     I0128488     30111800000000040003410000017N200818104700000000000103011180000000000000000000000000000000000000000100002098051700FELIPE LOPES DA COSTA CHAVES            RUA: JOSE PINTO FAUSTINO                IPIRANGA    26293441NOVA IGUACU    RJUNIAO UMB DOS CULTOS AFRO BRAS    30111810 000018
10231987175000168817800093673    000028487                    000284870000000000000109                     I0128487     30111800000000040003410000017N200818104700000000000103011180000000000000000000000000000000000000000100003134182769SANDRA HELENA DA SILVA                  RUA: MARIA MACHADO PANZA                PACHECO     24732200SAO GONCALO    RJUNIAO UMB DOS CULTOS AFRO BRAS    30111810 000019
10231987175000168817800093673    000028486                    000284860000000000000109                     I0128486     30111800000000035003410000017N200818104700000000000103011180000000000000000000000000000000000000000100012119575789RAYKA DA SILVA BATISTA                  RUA: PARAISO                            PIABETA     25931638MAGE           RJUNIAO UMB DOS CULTOS AFRO BRAS    30111810 000020
10231987175000168817800093673    000028485                    000284850000000000000109                     I0128485     30111800000000040003410000017N200818104700000000000103011180000000000000000000000000000000000000000100015041746745ANAISE SOARES DO CARMO                  RUA: FRANCISCO ALVES                    SEPETIBA    23542120RIO DE JANEIRO RJUNIAO UMB DOS CULTOS AFRO BRAS    30111810 000021
10231987175000168817800093673    000028484                    000284840000000000000109                     I0128484     30111800000000040003410000017N200818104700000000000103011180000000000000000000000000000000000000000100001105664759NANCI GOMES BORGES PINTO                RUA: ORLANDO FRANCISCO JUNIOR           CAMPO LINDO 23898435SEROPEDICA     RJUNIAO UMB DOS CULTOS AFRO BRAS    30111810 000022
10231987175000168817800093673    000028483                    000284830000000000000109                     I0128483     30111800000000040003410000017N200818104700000000000103011180000000000000000000000000000000000000000100053177827733CREUZA FREITAS DOS SANTOS               RUA HERMES DA SILVA                     SANTA CRUZ  23550155RIO DE JANEIRO RJUNIAO UMB DOS CULTOS AFRO BRAS    30111810 000023
10231987175000168817800093673    000028482                    000284820000000000000109                     I0128482     30111800000000035003410000017N200818104700000000000103011180000000000000000000000000000000000000000100001605990752MARCO ANTONIO DA SILVA                  ESTRADA DA SAUDADE                      ESTRADA DA S25610105PETROPOLIS     RJUNIAO UMB DOS CULTOS AFRO BRAS    30111810 000024
10231987175000168817800093673    000028481                    000284810000000000000109                     I0128481     30111800000000040003410000017N200818104700000000000103011180000000000000000000000000000000000000000100002414887702MARGARETH MARIA DA SILVA GONCA          RUA: SEBASTIAO DE CARVALHO              RAMOS       21061670RIO DE JANEIRO RJUNIAO UMB DOS CULTOS AFRO BRAS    30111810 000025
10231987175000168817800093673    000028480                    000284800000000000000109                     I0128480     30111800000000040003410000017N200818104700000000000103011180000000000000000000000000000000000000000100066645352700NILZA BELISARIO DAMIAO                  RUA: ESPERANCA                          JARDIM PARAI00000000RIO DE JANEIRO RJUNIAO UMB DOS CULTOS AFRO BRAS    30111810 000026
10231987175000168817800093673    000028479                    000284790000000000000109                     I0128479     30111800000000040003410000017N200818104700000000000103011180000000000000000000000000000000000000000100009572644700FABIO DE SOUZA BARBOSA                  RUA: DA ESPERANCA                       JARDIM PARAI00000000RIO DE JANEIRO RJUNIAO UMB DOS CULTOS AFRO BRAS    30111810 000027
10231987175000168817800093673    000028478                    000284780000000000000109                     I0128478     30111800000000040003410000017N200818104700000000000103011180000000000000000000000000000000000000000100067559697704LENILSON PEREIRA DA COSTA               TRAVESSA: MANUEL ANGELO                 AREAL       24800566ITABORAI       RJUNIAO UMB DOS CULTOS AFRO BRAS    30111810 000028
10231987175000168817800093673    000028477                    000284770000000000000109                     I0128477     30111800000000035003410000017N200818104700000000000103011180000000000000000000000000000000000000000100001786216760WASHINGTON FERNANDO DA CONCEIC          RUA: DONA ELVIRA                        NOVO HORIZON25937112MAGE           RJUNIAO UMB DOS CULTOS AFRO BRAS    30111810 000029
10231987175000168817800093673    000028476                    000284760000000000000109                     I0128476     30111800000000040003410000017N200818104700000000000103011180000000000000000000000000000000000000000100053860225120OTILIA REGINA DE ALENCAR                RUA: PROJETADA 1                        VERIDIANA   00000000RIO DE JANEIRO RJUNIAO UMB DOS CULTOS AFRO BRAS    30111810 000030
10231987175000168817800093673    000028475                    000284750000000000000109                     I0128475     30111800000000040003410000017N200818104700000000000103011180000000000000000000000000000000000000000100003538359784MARCIO SANTANA DA ROCHA                 ESTRADA: DA CAPOEIRA GRANDE             GUARATIBA   00000000RIO DE JANEIRO RJUNIAO UMB DOS CULTOS AFRO BRAS    30111810 000031
10231987175000168817800093673    000028474                    000284740000000000000109                     I0128474     30111800000000040003410000017N200818104700000000000103011180000000000000000000000000000000000000000100092802737791CARMEN DEA NOGUEIRA DIAS                AVENIDA: MACHADO DE ASSIS               VILA IBIRAPI23811820ITAGUAI        RJUNIAO UMB DOS CULTOS AFRO BRAS    30111810 000032
10231987175000168817800093673    000028473                    000284730000000000000109                     I0128473     30111800000000040003410000017N200818104700000000000103011180000000000000000000000000000000000000000100045965986734ELISABETH BARRETO DO COUTO ALV          RUA: SAMUEL GUIMARAES                   SAO FRANCISC22270000RIO DE JANEIRO RJUNIAO UMB DOS CULTOS AFRO BRAS    30111810 000033
10231987175000168817800093673    000028472                    000284720000000000000109                     I0128472     30111800000000040003410000017N200818104700000000000103011180000000000000000000000000000000000000000100007368804708CARLOS HENRIQUE DE OLIVEIRA             RUA: SESSENTA E TRES                    CAMPO GRANDE23097240RIO DE JANEIRO RJUNIAO UMB DOS CULTOS AFRO BRAS    30111810 000034
10231987175000168817800093673    000028471                    000284710000000000000109                     I0128471     30111800000000035003410000017N200818104700000000000103011180000000000000000000000000000000000000000100000617310726JOSE HENRIQUE PEREIRA DO NASCI          RUA: ZELINHO DE SOUZA                   CHACARA RIO 25230484DUQUE DE CAXIASRJUNIAO UMB DOS CULTOS AFRO BRAS    30111810 000035
10231987175000168817800093673    000028470                    000284700000000000000109                     I0128470     30111800000000040003410000017N200818104700000000000103011180000000000000000000000000000000000000000100014328358740SILAS BARBOSA DE SOUZA                  ESTRADA: REAL DE MAUA                   JARDIM DA PA25900684RIO DE JANEIRO RJUNIAO UMB DOS CULTOS AFRO BRAS    30111810 000036
10231987175000168817800093673    000028469                    000284690000000000000109                     I0128469     30111800000000040003410000017N200818104700000000000103011180000000000000000000000000000000000000000100099099616449JANAINA BORGES DA SILVA                 RUA: PAULO JOSE MAHFUD                  VARGEM PEQUE22783395RIO DE JANEIRO RJUNIAO UMB DOS CULTOS AFRO BRAS    30111810 000037
10231987175000168817800093673    000028468                    000284680000000000000109                     I0128468     30111800000000035003410000017N200818104700000000000103011180000000000000000000000000000000000000000100074641980772IRENE MARQUES DA MOTA                   RUA: PORTO CAMARGO                      JARDIM MARAV23033170GUARATIBA      RJUNIAO UMB DOS CULTOS AFRO BRAS    30111810 000038
10231987175000168817800093673    000028467                    000284670000000000000109                     I0128467     30111800000000035003410000017N200818104700000000000103011180000000000000000000000000000000000000000100005818072789MARLUCE MARIA DE OLIVEIRA               RUA: PAHAND                             SANTA TEREZA26193500BELFORD ROXO   RJUNIAO UMB DOS CULTOS AFRO BRAS    30111810 000039
10231987175000168817800093673    000028466                    000284660000000000000109                     I0128466     30111800000000040003410000017N200818104700000000000103011180000000000000000000000000000000000000000100072610344791SUELY BARROS DE MELO                    ESTRADA: GUANDU DO SENA                 CAMPO GRANDE23097220RIO DE JANEIRO RJUNIAO UMB DOS CULTOS AFRO BRAS    30111810 000040
10231987175000168817800093673    000028465                    000284650000000000000109                     I0128465     30111800000000035003410000017N200818104700000000000103011180000000000000000000000000000000000000000100085748781700NELSON TEIXEIRA RUI FILHO               RUA: CAROLINA AMADO                     IRAJA       21361320RIO DE JANEIRO RJUNIAO UMB DOS CULTOS AFRO BRAS    30111810 000041
10231987175000168817800093673    000028464                    000284640000000000000109                     I0128464     30111800000000040003410000017N200818104700000000000103011180000000000000000000000000000000000000000100081476191700IRLENE DE ALMEIDA LOPES                 RUA: FERNANDEZ GAMA                     REALENGO    21760030RIO DE JANEIRO RJUNIAO UMB DOS CULTOS AFRO BRAS    30111810 000042
10231987175000168817800093673    000028463                    000284630000000000000109                     I0128463     30111800000000040003410000017N200818104700000000000103011180000000000000000000000000000000000000000100029759030730JOSE ROBERTO MELLO COIMBRA              RUA: SALVADOR SABATE                    REALENGO    21760020RIO DE JANEIRO RJUNIAO UMB DOS CULTOS AFRO BRAS    30111810 000043
10231987175000168817800093673    000028462                    000284620000000000000109                     I0128462     30111800000000040003410000017N200818104700000000000103011180000000000000000000000000000000000000000100093265883787ROSANGELA BARBOSA DE CARVALHO           CAMINHO: DOS TELEGRAFOS                 SENADOR CAMA00000000RIO DE JANEIRO RJUNIAO UMB DOS CULTOS AFRO BRAS    30111810 000044
10231987175000168817800093673    000028461                    000284610000000000000109                     I0128461     30111800000000040003410000017N200818104700000000000103011180000000000000000000000000000000000000000100010212584740TIAGO VEROL DE SOUZA                    RUA: REGISTRO                           SENADOR CAMA21832006RIO DE JANEIRO RJUNIAO UMB DOS CULTOS AFRO BRAS    30111810 000045
10231987175000168817800093673    000028460                    000284600000000000000109                     I0128460     30111800000000035003410000017N200818104700000000000103011180000000000000000000000000000000000000000100008768685700RENATA BRUNO MACHADO SANTOS             RUA: CLIVIA                             BENTO RIBEIR21331530RIO DE JANEIRO RJUNIAO UMB DOS CULTOS AFRO BRAS    30111810 000046
10231987175000168817800093673    000028459                    000284590000000000000109                     I0128459     30111800000000035003410000017N200818104700000000000103011180000000000000000000000000000000000000000100039869253768MARIA DE LOURDES FERREIRA               RUA: GERSON TELES RIBEIRO               CENTRO      26193590DUQUE DE CAXIASRJUNIAO UMB DOS CULTOS AFRO BRAS    30111810 000047
10231987175000168817800093673    000028458                    000284580000000000000109                     I0128458     30111800000000035003410000017N200818104700000000000103011180000000000000000000000000000000000000000100001860329780VIVIANE DE PAULA AGNELO                 RUA: DA VITORIA                         PARAISO     26297138NOVA IGUACU    RJUNIAO UMB DOS CULTOS AFRO BRAS    30111810 000048
10231987175000168817800093673    000028457                    000284570000000000000109                     I0128457     30111800000000040003410000017N200818104700000000000103011180000000000000000000000000000000000000000100007416975727ANGELICA AMARAL GOTELIP BARBOS          RUA: MARECHAL MARCIANO - TRAVESSA 120   REALENGO    21735652RIO DE JANEIRO RJUNIAO UMB DOS CULTOS AFRO BRAS    30111810 000049
10231987175000168817800093673    000028456                    000284560000000000000109                     I0128456     30111800000000035003410000017N200818104700000000000103011180000000000000000000000000000000000000000100009350031779TAIS AZEVEDO DOS SANTOS CAMPOS          RUA: CLOTILDE DE OLIVEIRA RODRIGUES     FONSECA     24120170NITEROI        RJUNIAO UMB DOS CULTOS AFRO BRAS    30111810 000050
10231987175000168817800093673    000028455                    000284550000000000000109                     I0128455     30111800000000035003410000017N200818104700000000000103011180000000000000000000000000000000000000000100009329422705FABIO SANTANA DE ANDRADE                RUA: LUIS BRAILE                        VILA SANTA M00000000RIO DE JANEIRO RJUNIAO UMB DOS CULTOS AFRO BRAS    30111810 000051
10231987175000168817800093673    000028454                    000284540000000000000109                     I0128454     30111800000000040003410000017N200818104700000000000103011180000000000000000000000000000000000000000100009297297730FLAVIO JOAQUIM DOS SANTOS               RUA: SAO PAULO                          PALMARES    23585800RIO DE JANEIRO RJUNIAO UMB DOS CULTOS AFRO BRAS    30111810 000052
10231987175000168817800093673    000028453                    000284530000000000000109                     I0128453     30111800000000040003410000017N200818104700000000000103011180000000000000000000000000000000000000000100005283706721LEVY ANDRE ASSIS FERREIRA DA S          TRAVESSA: SANTO ANTONIO                 MARECHAL HER21557190RIO DE JANEIRO RJUNIAO UMB DOS CULTOS AFRO BRAS    30111810 000053
10231987175000168817800093673    000028452                    000284520000000000000109                     I0128452     30111800000000040003410000017N200818104700000000000103011180000000000000000000000000000000000000000100010440702771AMANDA APARECIDA AZEVEDO CARDO          RUA: IVONETE                            CONJUNTO SAN00000000RIO DE JANEIRO RJUNIAO UMB DOS CULTOS AFRO BRAS    30111810 000054
10231987175000168817800093673    000028451                    000284510000000000000109                     I0128451     30111800000000040003410000017N200818104700000000000103011180000000000000000000000000000000000000000100011709590775JOYCE MARA PINHEIRO DA SILVA            RUA: SILVIO TIBIRICA                    TURIACU     21540200RIO DE JANEIRO RJUNIAO UMB DOS CULTOS AFRO BRAS    30111810 000055
10231987175000168817800093673    000028450                    000284500000000000000109                     I0128450     30111800000000035003410000017N200818104700000000000103011180000000000000000000000000000000000000000100014963009714MICHELLE DA SILVA SOARES                RUA: MINAS GERAIS                       PIABETA     25935525MAGE           RJUNIAO UMB DOS CULTOS AFRO BRAS    30111810 000056
10231987175000168817800093673    000028449                    000284490000000000000109                     I0128449     30111800000000035003410000017N200818104700000000000103011180000000000000000000000000000000000000000100002305172770VALDIRENE ALBUQUERQUE MARCIEL           RUA: GUARAGUATATUBA                     VILA ROSARIO25030040DUQUE DE CAXIASRJUNIAO UMB DOS CULTOS AFRO BRAS    30111810 000057
10231987175000168817800093673    000028448                    000284480000000000000109                     I0128448     30111800000000035003410000017N200818104700000000000103011180000000000000000000000000000000000000000100000213766701ROSIVANIA CRUZ DA SILVA                 RUA: ERNANI DE BRITO                    SEPETIBA    23535131RIO DE JANEIRO RJUNIAO UMB DOS CULTOS AFRO BRAS    30111810 000058
10231987175000168817800093673    000028447                    000284470000000000000109                     I0128447     30111800000000040003410000017N200818104700000000000103011180000000000000000000000000000000000000000100085737437787NIVALDA PIRES RUFINO                    RUA: MARIO CARPENTER                    ABOLICAO    20755065RIO DE JANEIRO RJUNIAO UMB DOS CULTOS AFRO BRAS    30111810 000059
10231987175000168817800093673    000028446                    000284460000000000000109                     I0128446     30111800000000040003410000017N200818104700000000000103011180000000000000000000000000000000000000000100059622091762ALDA GOMES DA SILVA                     RUA: VILA DOZE                          JARDIM PALMA23066186RIO DE JANEIRO RJUNIAO UMB DOS CULTOS AFRO BRAS    30111810 000060
10231987175000168817800093673    000028445                    000284450000000000000109                     I0128445     30111800000000035003410000017N200818104700000000000103011180000000000000000000000000000000000000000100005380679773ROBERTO DE OLIVEIRA RIBEIRO JU          RUA VINTE E TRES                        SANTA CRUZ  23500000RIO DE JANEIRO RJUNIAO UMB DOS CULTOS AFRO BRAS    30111810 000061
10231987175000168817800093673    000028444                    000284440000000000000109                     I0128444     30111800000000035003410000017N200818104700000000000103011180000000000000000000000000000000000000000100006485913793IASMIM SANTANA DA SILVA DE OLI          ILHA DE ITACURUCA                       PRAIA GRANDE23860000RIO DE JANEIRO RJUNIAO UMB DOS CULTOS AFRO BRAS    30111810 000062
10231987175000168817800093673    000028443                    000284430000000000000109                     I0128443     30111800000000040003410000017N200818104700000000000103011180000000000000000000000000000000000000000100052889378772ANGELA MARIA DA SILVA ANDRADE           RUA WILSON GIL DA MATTA                 CENTRO      25515101SAO JOAO DE MERRJUNIAO UMB DOS CULTOS AFRO BRAS    30111810 000063
10231987175000168817800093673    000028442                    000284420000000000000109                     I0128442     30111800000000040003410000017N200818104700000000000103011180000000000000000000000000000000000000000100010486021769SIDNEY RODRIGUES DA SILVA JUNI          RUA DAS VIDEIRAS                        MORADA VERDE23065520PACIENCIA      RJUNIAO UMB DOS CULTOS AFRO BRAS    30111810 000064
10231987175000168817800093673    000028441                    000284410000000000000109                     I0128441     30111800000000035003410000017N200818104700000000000103011180000000000000000000000000000000000000000100001244562785LUIS CARLOS RIBEIRO                     RUA NEIDE AFONSO                        SHANGRILA RO26150020BELFORD ROXO   RJUNIAO UMB DOS CULTOS AFRO BRAS    30111810 000065
10231987175000168817800093673    000028440                    000284400000000000000109                     I0128440     30111800000000035003410000017N200818104700000000000103011180000000000000000000000000000000000000000100003256338780REGINALDO ROSA DA SILVA                 RUA PAULO AFONSO                        IPIRANGA ALI26293381NOVA IGUACU    RJUNIAO UMB DOS CULTOS AFRO BRAS    30111810 000066
10231987175000168817800093673    000028439                    000284390000000000000109                     I0128439     30111800000000035003410000017N200818104700000000000103011180000000000000000000000000000000000000000100004474665775REGINALDO RAMOS DA SILVA                RUA JULIO DE CASTILHOS                  JARDIM ROTSE25270210DUQUE DE CAXIASRJUNIAO UMB DOS CULTOS AFRO BRAS    30111810 000067
10231987175000168817800093673    000028438                    000284380000000000000109                     I0128438     30111800000000040003410000017N200818104700000000000103011180000000000000000000000000000000000000000100041998839753MARIA HELENA FERREIRA DA SILVA          RUA J                                   ESTRADA SANT23595100RIO DE JANEIRO RJUNIAO UMB DOS CULTOS AFRO BRAS    30111810 000068
10231987175000168817800093673    000028437                    000284370000000000000109                     I0128437     30111800000000035003410000017N200818104700000000000103011180000000000000000000000000000000000000000100062788396791SERGIO LUCAS DE SOUZA E DINARA          TRAVESSA CARLOS XAVIER                  MADUREIRA   21310010RIO DE JANEIRO RJUNIAO UMB DOS CULTOS AFRO BRAS    30111810 000069
10231987175000168817800093673    000028436                    000284360000000000000109                     I0128436     30111800000000035003410000017N200818104700000000000103011180000000000000000000000000000000000000000100000893865745MONICA DE PONTES                        TRAVESSA OLINDA SANTOS                  TURIACU     21540340RIO DE JANEIRO RJUNIAO UMB DOS CULTOS AFRO BRAS    30111810 000070
10231987175000168817800093673    000028435                    000284350000000000000109                     I0128435     30111800000000035003410000017N200818104700000000000103011180000000000000000000000000000000000000000100093521987787KATIA CRISTINA DANNEMBERG               ESTRADA DO PORTINHO                     IRAJA       21235400RIO DE JANEIRO RJUNIAO UMB DOS CULTOS AFRO BRAS    30111810 000071
10231987175000168817800093673    000028434                    000284340000000000000109                     I0128434     30111800000000035003410000017N200818104700000000000103011180000000000000000000000000000000000000000100093678754791ROSINETE MARIA DE OLIVEIRA              RUA ANGOLA                              CAPIVARI    25145080DUQUE DE CAXIASRJUNIAO UMB DOS CULTOS AFRO BRAS    30111810 000072
10231987175000168817800093673    000028433                    000284330000000000000109                     I0128433     30111800000000035003410000017N200818104700000000000103011180000000000000000000000000000000000000000100009289778709HELAINE FRANKLIN TEIXEIRA               RUA CACHOEIRA ALTA                      JARDIM MARAV23031070CAMPO GRANDE   RJUNIAO UMB DOS CULTOS AFRO BRAS    30111810 000073
10231987175000168817800093673    000028432                    000284320000000000000109                     I0128432     30111800000000035003410000017N200818104700000000000103011180000000000000000000000000000000000000000100069852219715GREIZI DE CARVALHO CARVALHAES           RUA BUENOS AIRES                        JARDIM PERNA26275390NOVA IGUACU    RJUNIAO UMB DOS CULTOS AFRO BRAS    30111810 000074
10231987175000168817800093673    000028431                    000284310000000000000109                     I0128431     30111800000000035003410000017N200818104700000000000103011180000000000000000000000000000000000000000100001096953722CLAUDIA GUIMARAES                       ESTRADA GUANDU DO SENA - RUA 29         CAMPO GRANDE23091220RIO DE JANEIRO RJUNIAO UMB DOS CULTOS AFRO BRAS    30111810 000075
10231987175000168817800093673    000028430                    000284300000000000000109                     I0128430     30111800000000035003410000017N200818104700000000000103011180000000000000000000000000000000000000000100080091229715MARCO ANTONIO DE OLIVEIRA TEIX          RUA QUARENTA E UM                       JARDIM NOSSA23097260CAMPO GRANDE   RJUNIAO UMB DOS CULTOS AFRO BRAS    30111810 000076
10231987175000168817800093673    000028429                    000284290000000000000109                     I0128429     30111800000000035003410000017N200818104700000000000103011180000000000000000000000000000000000000000100046840117715TERESA CRISTINA DE MELLO SOARE          RUA CANUTAMA                            OSWALDO CRUZ21340440RIO DE JANEIRO RJUNIAO UMB DOS CULTOS AFRO BRAS    30111810 000077
10231987175000168817800093673    000028428                    000284280000000000000109                     I0128428     30111800000000040003410000017N200818104700000000000103011180000000000000000000000000000000000000000100095760024787LUCIMARA DIAS DE OLIVEIRA               RUA SANTO ELIAS                         TURIACU     21540390RIO DE JANEIRO RJUNIAO UMB DOS CULTOS AFRO BRAS    30111810 000078
10231987175000168817800093673    000028427                    000284270000000000000109                     I0128427     30111800000000035003410000017N200818104700000000000103011180000000000000000000000000000000000000000100003443839703ANDERSON FERNANDES DE PAIVA             RUA JUDITE GUERRA                       PAVUNA      21520260RIO DE JANEIRO RJUNIAO UMB DOS CULTOS AFRO BRAS    30111810 000079
10231987175000168817800093673    000028426                    000284260000000000000109                     I0128426     30111800000000035003410000017N200818104700000000000103011180000000000000000000000000000000000000000100012218258790WILIAM ULERICH MARTINS                  RUA ANTONIO AUSTREGESILO                INHAUMA     21061300RIO DE JANEIRO RJUNIAO UMB DOS CULTOS AFRO BRAS    30111810 000080
10231987175000168817800093673    000028425                    000284250000000000000109                     I0128425     30111800000000035003410000017N200818104700000000000103011180000000000000000000000000000000000000000100003654035710ELLEN CRISTINA DE ORNELAS NARC          RUA MARECHAL MARCIANO                   REALENGO    21721011RIO DE JANEIRO RJUNIAO UMB DOS CULTOS AFRO BRAS    30111810 000081
10231987175000168817800093673    000028424                    000284240000000000000109                     I0128424     30111800000000035003410000017N200818104700000000000103011180000000000000000000000000000000000000000100009924715790JOSEFA MARIA DA SILVA                   TRAVESSA DOS LAVRADORES                 VILA SAO DOM26271340NOVA IGUACU    RJUNIAO UMB DOS CULTOS AFRO BRAS    30111810 000082
10231987175000168817800093673    000028423                    000284230000000000000109                     I0128423     30111800000000035003410000017N200818104700000000000103011180000000000000000000000000000000000000000100012687881716DAIANA SANTANA DE LIMA                  RUA MANAUS                              CAMPOS ELISE25225000DUQUE DE CAXIASRJUNIAO UMB DOS CULTOS AFRO BRAS    30111810 000083
10231987175000168817800093673    000028422                    000284220000000000000109                     I0128422     30111800000000035003410000017N200818104700000000000103011180000000000000000000000000000000000000000100007040620707MONICA BORGES MATTOS                    RUA INHAMUNS                            VILA VALQUEI21321330RIO DE JANEIRO RJUNIAO UMB DOS CULTOS AFRO BRAS    30111810 000084
10231987175000168817800093673    000028421                    000284210000000000000109                     I0128421     30111800000000035003410000017N200818104700000000000103011180000000000000000000000000000000000000000100000000000000JORGE EDUARDO PEREIRA VIANNA            RUA SERGIO MARTINS MOTA                 CABUCU      26291551NOVA IGUACU    RJUNIAO UMB DOS CULTOS AFRO BRAS    30111810 000085
10231987175000168817800093673    000028420                    000284200000000000000109                     I0128420     30111800000000035003410000017N200818104700000000000103011180000000000000000000000000000000000000000100093255586704GRECIETE GOUDARD                        ESTRADA DO CAMPINHO                     CAMPO GRANDE23066540RIO DE JANEIRO RJUNIAO UMB DOS CULTOS AFRO BRAS    30111810 000086
10231987175000168817800093673    000028419                    000284190000000000000109                     I0128419     30111800000000035003410000017N200818104700000000000103011180000000000000000000000000000000000000000100079034780791PAULO ROBERTO DE SOUZA MORENO           RUA CORONEL MALHAES                     TIRADENTES  26351180NOVA IGUACU    RJUNIAO UMB DOS CULTOS AFRO BRAS    30111810 000087
10231987175000168817800093673    000028418                    000284180000000000000109                     I0128418     30111800000000035003410000017N200818104700000000000103011180000000000000000000000000000000000000000100005229971711CATIA CILENE MASCARENHAS                TRAVESSA AMOR DO CAMPO                  CONJUNTO SAN21843743CAMPO GRANDE   RJUNIAO UMB DOS CULTOS AFRO BRAS    30111810 000088
10231987175000168817800093673    000028417                    000284170000000000000109                     I0128417     30111800000000035003410000017N200818104700000000000103011180000000000000000000000000000000000000000100089982118749LENIR SILVA DOS SANTOS                  RUA DA LUTA                             JARDIM LARAN26291278RIO DE JANEIRO RJUNIAO UMB DOS CULTOS AFRO BRAS    30111810 000089
10231987175000168817800093673    000028416                    000284160000000000000109                     I0128416     30111800000000035003410000017N200818104700000000000103011180000000000000000000000000000000000000000100005215608709KARYN GEYZA BATALHA BOECHAT             RUA GERVASEO                            CENTRO      26550020RIO DE JANEIRO RJUNIAO UMB DOS CULTOS AFRO BRAS    30111810 000090
10231987175000168817800093673    000028415                    000284150000000000000109                     I0128415     30111800000000035003410000017N200818104700000000000103011180000000000000000000000000000000000000000100000905236793ROSE GREGO SILVA DE SOUZA               RUA FLEXAL                              INHAUMA     20766610RIO DE JANEIRO RJUNIAO UMB DOS CULTOS AFRO BRAS    30111810 000091
10231987175000168817800093673    000028414                    000284140000000000000109                     I0128414     30111800000000035003410000017N200818104700000000000103011180000000000000000000000000000000000000000100051265699704MARIA FATIMA DE SOUSA                   RUA MAURITI DOS SANTOS                  EDEN        25525720RIO DE JANEIRO RJUNIAO UMB DOS CULTOS AFRO BRAS    30111810 000092
10231987175000168817800093673    000028413                    000284130000000000000109                     I0128413     30111800000000040003410000017N200818104700000000000103011180000000000000000000000000000000000000000100064494527734RONALDO ROSAS ALVES                     ESTRADA COMANDANTE                      PRATA       25976140TERESOPOLIS    RJUNIAO UMB DOS CULTOS AFRO BRAS    30111810 000093
10231987175000168817800093673    000028412                    000284120000000000000109                     I0128412     30111800000000035003410000017N200818104700000000000103011180000000000000000000000000000000000000000100060223170704MARIA DO CARMO DO NASCIMENTO S          RUA COBE                                BANGU       21820200RIO DE JANEIRO RJUNIAO UMB DOS CULTOS AFRO BRAS    30111810 000094
10231987175000168817800093673    000028411                    000284110000000000000109                     I0128411     30111800000000040003410000017N200818104700000000000103011180000000000000000000000000000000000000000100008722484701ANA PAULA SILVA DA CRUZ                 RUA ELVIRA DA FONSECA                   LARGO DO TAN22733150RIO DE JANEIRO RJUNIAO UMB DOS CULTOS AFRO BRAS    30111810 000095
10231987175000168817800093673    000028410                    000284100000000000000109                     I0128410     30111800000000040003410000017N200818104700000000000103011180000000000000000000000000000000000000000100064506770749TERESINHA MARIA PEREIRA NOGUEI          BR 116 KM 78 - RUA ROSALINA PEREIRA DA MFONTE SANTA 25976060TERESOPOLIS    RJUNIAO UMB DOS CULTOS AFRO BRAS    30111810 000096
10231987175000168817800093673    000028409                    000284090000000000000109                     I0128409     30111800000000040003410000017N200818104700000000000103011180000000000000000000000000000000000000000100075333112720FATIMA CRISTINA MARQUES DE ALM          RUA MANOEL CARREIRO DE MELLO            SAO PEDRO   25956080TERESOPOLIS    RJUNIAO UMB DOS CULTOS AFRO BRAS    30111810 000097
10231987175000168817800093673    000028408                    000284080000000000000109                     I0128408     30111800000000040003410000017N200818104700000000000103011180000000000000000000000000000000000000000100028095391700SERGIO GARCIA DE QUEIROZ                RUA MATO GROSSO                         SANTA CECILI25957250TERESOPOLIS    RJUNIAO UMB DOS CULTOS AFRO BRAS    30111810 000098
10231987175000168817800093673    000028407                    000284070000000000000109                     I0128407     30111800000000035003410000017N200818104700000000000103011180000000000000000000000000000000000000000100043397077753JOAO NORATO CEZARIO                     RUA POETA MANOEL BANDEIRA               CABUIS      26540260NILOPOLIS      RJUNIAO UMB DOS CULTOS AFRO BRAS    30111810 000099
10231987175000168817800093673    000028406                    000284060000000000000109                     I0128406     30111800000000040003410000017N200818104700000000000103011180000000000000000000000000000000000000000100012295676746JEFFERSON ANTONIO TELLES GALDI          RUA MOUZIN DE ALBUQUERQUE               SAO VICENTE 26178080BELFORD ROXO   RJUNIAO UMB DOS CULTOS AFRO BRAS    30111810 000100
10231987175000168817800093673    000028405                    000284050000000000000109                     I0128405     30111800000000040003410000017N200818104700000000000103011180000000000000000000000000000000000000000100091083532715MARCOS AURELIO PEREIRA RAMOS            RUA MATO GROSSO                         SANTA CECILI25957250TERESOPOLIS    RJUNIAO UMB DOS CULTOS AFRO BRAS    30111810 000101
10231987175000168817800093673    000028404                    000284040000000000000109                     I0128404     30111800000000035003410000017N200818104700000000000103011180000000000000000000000000000000000000000100003526002762HELOISA HELENA DE OLIVEIRA DA           RUA DOUTOR MUNIZ                        CENTRO      26130020BELFORD ROXO   RJUNIAO UMB DOS CULTOS AFRO BRAS    30111810 000102
10231987175000168817800093673    000028403                    000284030000000000000109                     I0128403     30111800000000035003410000017N200818104700000000000103011180000000000000000000000000000000000000000100005436665730JORGE LUIZ VICTORIO LIMA                MARCOVALDI                              NOVA ESPERAN26113040BELFORD ROXO   RJUNIAO UMB DOS CULTOS AFRO BRAS    30111810 000103
10231987175000168817800093673    000028402                    000284020000000000000109                     I0128402     30111800000000040003410000017N200818104700000000000103011180000000000000000000000000000000000000000100009526018770VERONICA MARIA LIMA                     RUA KEMAL PALHA                         VILA SANTO A25040220DUQUE DE CAXIASRJUNIAO UMB DOS CULTOS AFRO BRAS    30111810 000104
10231987175000168817800093673    000028401                    000284010000000000000109                     I0128401     30111800000000035003410000017N200818104700000000000103011180000000000000000000000000000000000000000100003250570596VERONICA LUCIA DA CRUZ                  ESTRADA DOUTOR FARRULA                  SAO FRANCISC26125400BELFORD ROXO   RJUNIAO UMB DOS CULTOS AFRO BRAS    30111810 000105
10231987175000168817800093673    000028400                    000284000000000000000109                     I0128400     30111800000000035003410000017N200818104700000000000103011180000000000000000000000000000000000000000100002527980740ARMANDO DE ALMEIDA                      PEDRO JOSE DE OLIVEIRA                  VARGEM GRAND27145231BARRA DO PIRAI RJUNIAO UMB DOS CULTOS AFRO BRAS    30111810 000106
10231987175000168817800093673    000028399                    000283990000000000000109                     I0128399     30111800000000035003410000017N200818104700000000000103011180000000000000000000000000000000000000000100005978854785ALEXANDRE MOTA DOS SANTOS               RUA: BRUNO SENDER                       JARDIM NOVA 26266040NOVA IGUACU    RJUNIAO UMB DOS CULTOS AFRO BRAS    30111810 000107
10231987175000168817800093673    000028398                    000283980000000000000109                     I0128398     30111800000000035003410000017N200818104700000000000103011180000000000000000000000000000000000000000100014907708793THIAGO CARVALHO VIDAL LIMA              RUA: DONA DUCHA                         MARIA CONGA 25900353MAGE           RJUNIAO UMB DOS CULTOS AFRO BRAS    30111810 000108
10231987175000168817800093673    000028397                    000283970000000000000109                     I0128397     30111800000000040003410000017N200818104700000000000103011180000000000000000000000000000000000000000100082187401715JOSE AUGUSTO DA PAIXAO                  RUA GOMES CARNEIRO                      SARACURUNA  25211050DUQUE DE CAXIASRJUNIAO UMB DOS CULTOS AFRO BRAS    30111810 000109
10231987175000168817800093673    000028396                    000283960000000000000109                     I0128396     30111800000000040003410000017N200818104700000000000103011180000000000000000000000000000000000000000100011622292766ROBERT HELENO MACEDO                    TRAVESSA JOSE CARRETEIRO                ENGENHOCA   24110444NITEROI        RJUNIAO UMB DOS CULTOS AFRO BRAS    30111810 000110
10231987175000168817800093673    000028395                    000283950000000000000109                     I0128395     30111800000000035003410000017N200818104700000000000103011180000000000000000000000000000000000000000100060044055749SUELY DE FARIAS EDUARDO                 TRAVESSA: JAFIA                         CIDADE DE DE22772190RIO DE JANEIRO RJUNIAO UMB DOS CULTOS AFRO BRAS    30111810 000111
10231987175000168817800093673    000028394                    000283940000000000000109                     I0128394     30111800000000035003410000017N200818104700000000000103011180000000000000000000000000000000000000000100013118884703WESLEI FERREIRA DE CARVALHO             ESTRADA DO GUERENGUE                    TAQUARA     22713004RIO DE JANEIRO RJUNIAO UMB DOS CULTOS AFRO BRAS    30111810 000112
10231987175000168817800093673    000028393                    000283930000000000000109                     I0128393     30111800000000035003410000017N200818104700000000000103011180000000000000000000000000000000000000000100002176741781SUSI DE OLIVEIRA LOUREIRO               AVENIDA VICENTE DE CARVALHO             VICENTE DE C26278525RIO DE JANEIRO RJUNIAO UMB DOS CULTOS AFRO BRAS    30111810 000113
10231987175000168817800093673    000028392                    000283920000000000000109                     I0128392     30111800000000035003410000017N200818104700000000000103011180000000000000000000000000000000000000000100095846190715ANA MARIA NICANOR DE QUADRO             RUA: PASSO FUNDO                        JARDIM GUAND26298189NOVA IGUACU    RJUNIAO UMB DOS CULTOS AFRO BRAS    30111810 000114
10231987175000168817800093673    000028391                    000283910000000000000109                     I0128391     30111800000000035003410000017N200818104700000000000103011180000000000000000000000000000000000000000100001161586709ALEXANDRE PIMPAREL DA SILVA             RUA: COMENDADOR VENACIO                 PALHADA     26290204NOVA IGUACU    RJUNIAO UMB DOS CULTOS AFRO BRAS    30111810 000115
10231987175000168817800093673    000028390                    000283900000000000000109                     I0128390     30111800000000035003410000017N200818104700000000000103011180000000000000000000000000000000000000000100000000013086FABIO DA SILVA                          RUA: CAMORIM                            JARDIM DELAM26317140QUEIMADOS      RJUNIAO UMB DOS CULTOS AFRO BRAS    30111810 000116
10231987175000168817800093673    000028389                    000283890000000000000109                     I0128389     30111800000000035003410000017N200818104700000000000103011180000000000000000000000000000000000000000100010765062755IVONE JOAO PEDRO                        RUA MARMIARI                            SENADOR CAMA21831000RIO DE JANEIRO RJUNIAO UMB DOS CULTOS AFRO BRAS    30111810 000117
10231987175000168817800093673    000028388                    000283880000000000000109                     I0128388     30111800000000035003410000017N200818104700000000000103011180000000000000000000000000000000000000000100085957679720MARIA DA APARECIDA VICENTE DUQ          RUA: FRANCISCO VIOLTI                   HELIOPLOIS  26125440BELFORD ROXO   RJUNIAO UMB DOS CULTOS AFRO BRAS    30111810 000118
10231987175000168817800093673    000028387                    000283870000000000000109                     I0128387     30111800000000035003410000017N200818104700000000000103011180000000000000000000000000000000000000000100005933193704ANA PAULA DA SILVA SANTOS               RUA: APIACA                             JARDIM BARRO25267290DUQUE DE CAXIASRJUNIAO UMB DOS CULTOS AFRO BRAS    30111810 000119
10231987175000168817800093673    000028386                    000283860000000000000109                     I0128386     30111800000000035003410000017N200818104700000000000103011180000000000000000000000000000000000000000100010018753701PAULA DE BRITO                          RUA FRANCISCO VIOLTI                    HELIOPOLIS  26125440RIO DE JANEIRO RJUNIAO UMB DOS CULTOS AFRO BRAS    30111810 000120
10231987175000168817800093673    000028385                    000283850000000000000109                     I0128385     30111800000000035003410000017N200818104700000000000103011180000000000000000000000000000000000000000100003372466705SANDRO NASCIMENTO NOBREGA               RUA JOAO ROMARIZ                        RAMOS       21031700RIO DE JANEIRO RJUNIAO UMB DOS CULTOS AFRO BRAS    30111810 000121
10231987175000168817800093673    000028384                    000283840000000000000109                     I0128384     30111800000000035003410000017N200818104700000000000103011180000000000000000000000000000000000000000100085542091768SUELY PEREIRA DA SILVA CALIXTO          RUA LUSITANIA II                        IMBARIE     25266005DUQUE DE CAXIASRJUNIAO UMB DOS CULTOS AFRO BRAS    30111810 000122
10231987175000168817800093673    000028383                    000283830000000000000109                     I0128383     30111800000000035003410000017N200818104700000000000103011180000000000000000000000000000000000000000100010718180747JOSE CARLOS MELO DA SILVA               RUA DEPUTADO SA REGO                    VILA SAO LUI25065030DUQUE DE CAXIASRJUNIAO UMB DOS CULTOS AFRO BRAS    30111810 000123
10231987175000168817800093673    000028382                    000283820000000000000109                     I0128382     30111800000000035003410000017N200818104700000000000103011180000000000000000000000000000000000000000100058756280734SANDRA REGINA DA CONCEICAO              RUA BUENOS AIRES                        JARDIM PERNA26275390NOVA IGUACU    RJUNIAO UMB DOS CULTOS AFRO BRAS    30111810 000124
10231987175000168817800093673    000028381                    000283810000000000000109                     I0128381     30111800000000035003410000017N200818104700000000000103011180000000000000000000000000000000000000000100032637128764MARLENE DA CRUZ                         AVENIDA ABILIO AUGUSTO TAVORA           VALVERDE    26290600NOVA IGUACU    RJUNIAO UMB DOS CULTOS AFRO BRAS    30111810 000125
10231987175000168817800093673    000028380                    000283800000000000000109                     I0128380     30111800000000035003410000017N200818104700000000000103011180000000000000000000000000000000000000000100049660632720MARINETE SANTOS DE OLIVEIRA             AVENIDA SANTA CRUZ                      SENADOR CAMA23010003RIO DE JANEIRO RJUNIAO UMB DOS CULTOS AFRO BRAS    30111810 000126
10231987175000168817800093673    000028379                    000283790000000000000109                     I0128379     30111800000000035003410000017N200818104700000000000103011180000000000000000000000000000000000000000100003253352730LUCINEA DUTRA MEDEIROS                  RUA EVALDO BRAGA                        INDEPENDENCI25645300PETROPOLIS     RJUNIAO UMB DOS CULTOS AFRO BRAS    30111810 000127
10231987175000168817800093673    000028378                    000283780000000000000109                     I0128378     30111800000000035003410000017N200818104700000000000103011180000000000000000000000000000000000000000100000858723778GEOVANI FERNANDA DA SILVA               RUA SOFIA BARRETO                       VITOR DUMAS 23550700RIO DE JANEIRO RJUNIAO UMB DOS CULTOS AFRO BRAS    30111810 000128
10231987175000168817800093673    000028377                    000283770000000000000109                     I0128377     30111800000000035003410000017N200818104700000000000103011180000000000000000000000000000000000000000100000227210700ROSIMAR TELLES DE SA                    RUA: ACAPU                              MARECHAL HER21550570RIO DE JANEIRO RJUNIAO UMB DOS CULTOS AFRO BRAS    30111810 000129
10231987175000168817800093673    000028376                    000283760000000000000109                     I0128376     30111800000000035003410000017N200818104700000000000103011180000000000000000000000000000000000000000100000919377793JOSE IVAN MARCELINO FILHO               RUA ERNANE PEREIRA                      CARLOS SAMPA26089115NOVA IGUACU    RJUNIAO UMB DOS CULTOS AFRO BRAS    30111810 000130
10231987175000168817800093673    000028375                    000283750000000000000109                     I0128375     30111800000000035003410000017N200818104700000000000103011180000000000000000000000000000000000000000100001649750714CRISTIANE JOSE DA SILVA                 AVENIDA CALOMBE                         PARQUE ELDOR25231020DUQUE DE CAXIASRJUNIAO UMB DOS CULTOS AFRO BRAS    30111810 000131
10231987175000168817800093673    000028374                    000283740000000000000109                     I0128374     30111800000000040003410000017N200818104700000000000103011180000000000000000000000000000000000000000100011700984799CRISTIANE SANTOS FEIJO VIEIRA           RUA NICOLAU TOUQUET                     JARDIM CATAR24716403SAO GONCALO    RJUNIAO UMB DOS CULTOS AFRO BRAS    30111810 000132
10231987175000168817800093673    000028373                    000283730000000000000109                     I0128373     30111800000000035003410000017N200818104700000000000103011180000000000000000000000000000000000000000100012345678900MARIA DA GRACA MACHADO DOS SAN          RUA ARCOZELO                            PARQUE ARARU25585560SAO JOAO DE MERRJUNIAO UMB DOS CULTOS AFRO BRAS    30111810 000133
10231987175000168817800093673    000028372                    000283720000000000000109                     I0128372     30111800000000035003410000017N200818104700000000000103011180000000000000000000000000000000000000000100004278587716LUCIANO GONCALVES PIRES                 RUA MARECHAL ANTONIO DE SOUSA           JARDIM AMERI21240430RIO DE JANEIRO RJUNIAO UMB DOS CULTOS AFRO BRAS    30111810 000134
10231987175000168817800093673    000028371                    000283710000000000000109                     I0128371     30111800000000035003410000017N200818104700000000000103011180000000000000000000000000000000000000000100010154945790SIMONE DE OLIVEIRA CUNHA                RUA ONZE                                JARDIM ROTSE25270080DUQUE DE CAXIASRJUNIAO UMB DOS CULTOS AFRO BRAS    30111810 000135
10231987175000168817800093673    000028370                    000283700000000000000109                     I0128370     30111800000000040003410000017N200818104700000000000103011180000000000000000000000000000000000000000100005234258726LUANNA RODRIGUES NASCIMENTO LO          RUA SETE SN                             VALERIO     28680000CACHOEIRA DE MARJUNIAO UMB DOS CULTOS AFRO BRAS    30111810 000136
10231987175000168817800093673    000028369                    000283690000000000000109                     I0128369     30111800000000040003410000017N200818104700000000000103011180000000000000000000000000000000000000000100005770480742NARAYAMA MARTINS RODRIGUES LOU          RUA NABYCALIFA                          TABORDA     28680000CACHOEIRA DE MARJUNIAO UMB DOS CULTOS AFRO BRAS    30111810 000137
10231987175000168817800093673    000028368                    000283680000000000000109                     I0128368     30111800000000040003410000017N200818104700000000000103011180000000000000000000000000000000000000000100002965368736REGINA CONCEICAO                        AVENIDA BOQUEIRAO                       BOA VISTA   28680000CACHOEIRA DE MARJUNIAO UMB DOS CULTOS AFRO BRAS    30111810 000138
10231987175000168817800093673    000028367                    000283670000000000000109                     I0128367     30111800000000040003410000017N200818104700000000000103011180000000000000000000000000000000000000000100009963194761FERNANDO PECANHA PIRES                  RUA GENERAL BASILIO                     TABORDA     28680000CACHOEIRA DE MARJUNIAO UMB DOS CULTOS AFRO BRAS    30111810 000139
10231987175000168817800093673    000028366                    000283660000000000000109                     I0128366     30111800000000035003410000017N200818104700000000000103011180000000000000000000000000000000000000000100009491065777VIVIAN LUIZA FREITAS DE AGUIAR          RUA ITAPETININGA                        VICENTE DE C21370680RIO DE JANEIRO RJUNIAO UMB DOS CULTOS AFRO BRAS    30111810 000140
10231987175000168817800093673    000028365                    000283650000000000000109                     I0128365     30111800000000035003410000017N200818104700000000000103011180000000000000000000000000000000000000000100002331392730ANA MARIA DOS SANTOS VIEIRA             RUA OITO                                PARQUE ALVOR26053220NOVA IGUACU    RJUNIAO UMB DOS CULTOS AFRO BRAS    30111810 000141
10231987175000168817800093673    000028364                    000283640000000000000109                     I0128364     30111800000000035003410000017N200818104700000000000103011180000000000000000000000000000000000000000100005964958702MARISLEY AMARO DE SOUZA                 RUA MONTE ALTO                          BANGU       21863010RIO DE JANEIRO RJUNIAO UMB DOS CULTOS AFRO BRAS    30111810 000142
10231987175000168817800093673    000028363                    000283630000000000000109                     I0128363     30111800000000035003410000017N200818104700000000000103011180000000000000000000000000000000000000000100003018847733MARIA AILHA BERNARDO PINTO              RUA RUBIAO JUNIOR                       CENTRO      23860000MANGARATIBA    RJUNIAO UMB DOS CULTOS AFRO BRAS    30111810 000143
10231987175000168817800093673    000028362                    000283620000000000000109                     I0128362     30111800000000035003410000017N200818104700000000000103011180000000000000000000000000000000000000000100089207963787NICEIA SANTOS FRANCA                    TRAVESSA VIANA BARBOSA                  SEPETIBA    23550360RIO DE JANEIRO RJUNIAO UMB DOS CULTOS AFRO BRAS    30111810 000144
10231987175000168817800093673    000028361                    000283610000000000000109                     I0128361     30111800000000035003410000017N200818104700000000000103011180000000000000000000000000000000000000000100012345678910LUCIANO GONCALVES DE SOUZA              RUA CLARIMUNDO DE MELO                  PIEDADE     20740323RIO DE JANEIRO RJUNIAO UMB DOS CULTOS AFRO BRAS    30111810 000145
10231987175000168817800093673    000028360                    000283600000000000000109                     I0128360     30111800000000035003410000017N200818104700000000000103011180000000000000000000000000000000000000000100001162883707SUNEY MENEZES MACHADO                   ESTRADA: DO ENCANAMENTO                 BARBADO     23060000RIO DE JANEIRO RJUNIAO UMB DOS CULTOS AFRO BRAS    30111810 000146
10231987175000168817800093673    000028359                    000283590000000000000109                     I0128359     30111800000000035003410000017N200818104700000000000103011180000000000000000000000000000000000000000100004275325745MAIKE OLIVEIRA DA COSTA                 TRAVESSA: MARTA DA ROCHA                ABOLICAO    20755030RIO DE JANEIRO RJUNIAO UMB DOS CULTOS AFRO BRAS    30111810 000147
10231987175000168817800093673    000028358                    000283580000000000000109                     I0128358     30111800000000035003410000017N200818104700000000000103011180000000000000000000000000000000000000000100007852297790IRENE FRANCISCO LIMA                    RUA: VIRGILIO VARZEA                    VILA SAO LUI25051110DUQUE DE CAXIASRJUNIAO UMB DOS CULTOS AFRO BRAS    30111810 000148
10231987175000168817800093673    000028357                    000283570000000000000109                     I0128357     30111800000000035003410000017N200818104700000000000103011180000000000000000000000000000000000000000100001298660750ROSEMBERG EFIGENIO BARBOSA              RUA: TANCREDO MARTINS COSTA             ENGENHO DE D20730310RIO DE JANEIRO RJUNIAO UMB DOS CULTOS AFRO BRAS    30111810 000149
10231987175000168817800093673    000028356                    000283560000000000000109                     I0128356     30111800000000035003410000017N200818104700000000000103011180000000000000000000000000000000000000000100050246534753TANIA MARIA DA SILVA OLIVEIRA           TRAVESSA: MARAJO                        LINDO PARQUE24420100SAO GONCALO    RJUNIAO UMB DOS CULTOS AFRO BRAS    30111810 000150
10231987175000168817800093673    000028355                    000283550000000000000109                     I0128355     30111800000000035003410000017N200818104700000000000103011180000000000000000000000000000000000000000100006915594736CINTIA FERREIRA                         RUA VALDEMAR GALDINO                    JARDIM BELO 22631004RIO DE JANEIRO RJUNIAO UMB DOS CULTOS AFRO BRAS    30111810 000151
10231987175000168817800093673    000028354                    000283540000000000000109                     I0128354     30111800000000035003410000017N200818104700000000000103011180000000000000000000000000000000000000000100011497058767DIEGO FERREIRA DA SILVA                 RUA PRIMEIRO DE MAIO                    IPIRANGA    26293480RIO DE JANEIRO RJUNIAO UMB DOS CULTOS AFRO BRAS    30111810 000152
10231987175000168817800093673    000028353                    000283530000000000000109                     I0128353     30111800000000035003410000017N200818104700000000000103011180000000000000000000000000000000000000000100044415443753ELIDE LEANDRO BARBOSA                   RUA: ENGENHEIRO PERICLES RIBEIRO        FONSECA     24130350NITEROI        RJUNIAO UMB DOS CULTOS AFRO BRAS    30111810 000153
10231987175000168817800093673    000028352                    000283520000000000000109                     I0128352     30111800000000035003410000017N200818104700000000000103011180000000000000000000000000000000000000000100003387547720APARECIDA DOS SANTOS                    RUA CRACATUA                            HELIOPOLIS  26125170BELFORD ROXO   RJUNIAO UMB DOS CULTOS AFRO BRAS    30111810 000154
10231987175000168817800093673    000028351                    000283510000000000000109                     I0128351     30111800000000035003410000017N200818104700000000000103011180000000000000000000000000000000000000000100009409455766DANIELE MARTINS MEDEIROS DE FR          RUA D                                   BELA VISTA  23860000MANGARATIBA    RJUNIAO UMB DOS CULTOS AFRO BRAS    30111810 000155
10231987175000168817800093673    000028350                    000283500000000000000109                     I0128350     30111800000000035003410000017N200818104700000000000103011180000000000000000000000000000000000000000100090219023700GUARACIARA CORREA PASCHOAL              RUA JOSE CABRAL                         VAL VERDE   26290783NOVA IGUACU    RJUNIAO UMB DOS CULTOS AFRO BRAS    30111810 000156
10231987175000168817800093673    000028349                    000283490000000000000109                     I0128349     30111800000000035003410000017N200818104700000000000103011180000000000000000000000000000000000000000100000640795706CELIA REGINA ALVES DE SOUZA CO          RUA QUARENTA E SETE                     JARDIM ITAMB24725240SAO GONCALO    RJUNIAO UMB DOS CULTOS AFRO BRAS    30111810 000157
10231987175000168817800093673    000028348                    000283480000000000000109                     I0128348     30111800000000035003410000017N200818104700000000000103011180000000000000000000000000000000000000000100007459837741LUIZ CARLOS CARDOSO                     RUA: WALDIR CARDOSO                     PAU GRANDE  25917040MAGE           RJUNIAO UMB DOS CULTOS AFRO BRAS    30111810 000158
10231987175000168817800093673    000028347                    000283470000000000000109                     I0128347     30111800000000035003410000017N200818104700000000000103011180000000000000000000000000000000000000000100023970090563MARCIA VIEIRA SALES                     RUA LOPO SARAIVA                        TANQUE- JACA22740220RIO DE JANEIRO RJUNIAO UMB DOS CULTOS AFRO BRAS    30111810 000159
10231987175000168817800093673    000028346                    000283460000000000000109                     I0128346     30111800000000035003410000017N200818104700000000000103011180000000000000000000000000000000000000000100011264005725MARCELO VIEIRA GUSMAN FILHO             AVENIDA MEDIANEIRA                      COSMOS      23066470RIO DE JANEIRO RJUNIAO UMB DOS CULTOS AFRO BRAS    30111810 000160
10231987175000168817800093673    000028345                    000283450000000000000109                     I0128345     30111800000000035003410000017N200818104700000000000103011180000000000000000000000000000000000000000100006726905432DAYVIDY RAMON CANDIDO                   RUA MARACA                              PARQUE MUCAJ26415055JAPERI         RJUNIAO UMB DOS CULTOS AFRO BRAS    30111810 000161
10231987175000168817800093673    000028344                    000283440000000000000109                     I0128344     30111800000000035003410000017N200818104700000000000103011180000000000000000000000000000000000000000100053531396749VITALINA DOS SANTOS                     RUA SAQUAREMA                           GRAMACHO    25035425DUQUE DE CAXIASRJUNIAO UMB DOS CULTOS AFRO BRAS    30111810 000162
10231987175000168817800093673    000028343                    000283430000000000000109                     I0128343     30111800000000035003410000017N200818104700000000000103011180000000000000000000000000000000000000000100009445907728VICTOR DOS SANTOS ALLEN                 RUA PEDRO TELES                         CENTRO      25515032SAO JOAO DE MERRJUNIAO UMB DOS CULTOS AFRO BRAS    30111810 000163
10231987175000168817800093673    000028342                    000283420000000000000109                     I0128342     30111800000000035003410000017N200818104700000000000103011180000000000000000000000000000000000000000100011549239759RENATA DE OLIVEIRA GASPAR               RUA GUANABARA                           MADUREIRA   21350230RIO DE JANEIRO RJUNIAO UMB DOS CULTOS AFRO BRAS    30111810 000164
10231987175000168817800093673    000028341                    000283410000000000000109                     I0128341     30111800000000035003410000017N200818104700000000000103011180000000000000000000000000000000000000000100009145082707ELAINE CRISTINA DE MORAES               RUA GENTIL DO OURO                      AGUIAR TORRE23063340INHOAIBA       RJUNIAO UMB DOS CULTOS AFRO BRAS    30111810 000165
10231987175000168817800093673    000028340                    000283400000000000000109                     I0128340     30111800000000035003410000017N200818104700000000000103011180000000000000000000000000000000000000000100015429555134OBIRACI SILVA DO NASCIMENTO             ESTRADA VELHA DE MARICA                 MARIA PAULA 24756280SAO GONCALO    RJUNIAO UMB DOS CULTOS AFRO BRAS    30111810 000166
10231987175000168817800093673    000028339                    000283390000000000000109                     I0128339     30111800000000035003410000017N200818104700000000000103011180000000000000000000000000000000000000000100006864504778FABIO GUILHERME DOS SANTOS              ESTRADA JOAO DE ABREU                   MONJOLO     24723190SAO GONCALO    RJUNIAO UMB DOS CULTOS AFRO BRAS    30111810 000167
10231987175000168817800093673    000028338                    000283380000000000000109                     I0128338     30111800000000035003410000017N200818104700000000000103011180000000000000000000000000000000000000000100000000013012LUCIANO SOARES DA SILVA                 RUA: MEDEIROS AGUAS MARAVILHOSAS        LINHA AZUL  27910000MACAE          RJUNIAO UMB DOS CULTOS AFRO BRAS    30111810 000168
10231987175000168817800093673    000028337                    000283370000000000000109                     I0128337     30111800000000035003410000017N200818104700000000000103011180000000000000000000000000000000000000000100013849060705LEONARDO ENEDINA DE MELO                RUA: JULIO VERNER                       SANTA RITA  26050517NOVA IGUACU    RJUNIAO UMB DOS CULTOS AFRO BRAS    30111810 000169
10231987175000168817800093673    000028336                    000283360000000000000109                     I0128336     30111800000000035003410000017N200818104700000000000103011180000000000000000000000000000000000000000100082391106734CASSIO SOUZA DA COSTA                   RUA RIACHUELO                           JARDIM ESTOR26112220BELFORD ROXO   RJUNIAO UMB DOS CULTOS AFRO BRAS    30111810 000170
10231987175000168817800093673    000028335                    000283350000000000000109                     I0128335     30111800000000035003410000017N200818104700000000000103011180000000000000000000000000000000000000000100087798999787NILZETE DA CONCEICAO FELIX              RUA PROJETADA                           JARDIM ANHAN25264030DUQUE DE CAXIASRJUNIAO UMB DOS CULTOS AFRO BRAS    30111810 000171
10231987175000168817800093673    000028334                    000283340000000000000109                     I0128334     30111800000000035003410000017N200818104700000000000103011180000000000000000000000000000000000000000100002882629729ANA PAULA DE SOUZA RIBEIRO VIL          O MESMO                                 O MESMO     21550130RIO DE JANEIRO RJUNIAO UMB DOS CULTOS AFRO BRAS    30111810 000172
10231987175000168817800093673    000028333                    000283330000000000000109                     I0128333     30111800000000035003410000017N200818104700000000000103011180000000000000000000000000000000000000000100004842101490MARIA DE LOURDES FARIAS DOS SA          RUA HELIO DE OLIVEIRA                   PARADA MORAB25000000DUQUE DE CAXIASRJUNIAO UMB DOS CULTOS AFRO BRAS    30111810 000173
10231987175000168817800093673    000028332                    000283320000000000000109                     I0128332     30111800000000035003410000017N200818104700000000000103011180000000000000000000000000000000000000000100004253784704ALEXANDRE SIMOES NASCIMENTO             RUA SEBASTIAO DRUMOND                   ANCHIETA    21640360RIO DE JANEIRO RJUNIAO UMB DOS CULTOS AFRO BRAS    30111810 000174
10231987175000168817800093673    000028331                    000283310000000000000109                     I0128331     30111800000000035003410000017N200818104700000000000103011180000000000000000000000000000000000000000100004474701755JACIRA DE ALMEIDA BATISTA JULI          AVENIDA SAO PAULOA                      PARQUE MARIL25225660DUQUE DE CAXIASRJUNIAO UMB DOS CULTOS AFRO BRAS    30111810 000175
10231987175000168817800093673    000028330                    000283300000000000000109                     I0128330     30111800000000035003410000017N200818104700000000000103011180000000000000000000000000000000000000000100077068505791JOSE CLEZIO DE SOUZA                    RUA. GENERAL CEZAR OBINO                BENTO RIBEIR20720012RIO DE JANEIRO RJUNIAO UMB DOS CULTOS AFRO BRAS    30111810 000176
10231987175000168817800093673    000028329                    000283290000000000000109                     I0128329     30111800000000035003410000017N200818104700000000000103011180000000000000000000000000000000000000000100006424589880LUIZ CARLOS BRITO                       RUA DA LIBERDADE                        TINGUA      26063230NOVA IGUACU    RJUNIAO UMB DOS CULTOS AFRO BRAS    30111810 000177
10231987175000168817800093673    000028328                    000283280000000000000109                     I0128328     30111800000000035003410000017N200818104700000000000103011180000000000000000000000000000000000000000100009250353782LUIZ CARLOS MATOLA                      APIACA                                  JARDIM PRIMA25056270DUQUE DE CAXIASRJUNIAO UMB DOS CULTOS AFRO BRAS    30111810 000178
10231987175000168817800093673    000028327                    000283270000000000000109                     I0128327     30111800000000035003410000017N200818104700000000000103011180000000000000000000000000000000000000000100012345678910LUCIANA LUISA PEREIRA                   TRAVESSA JOAO DE BARRO                  LAGOMAR     27966870MACAE          RJUNIAO UMB DOS CULTOS AFRO BRAS    30111810 000179
10231987175000168817800093673    000028326                    000283260000000000000109                     I0128326     30111800000000035003410000017N200818104700000000000103011180000000000000000000000000000000000000000100012464631728DIEGO TACITO COSTA HENRIQUE             RUA YONE MUSSI                          MALVINAS    27946310MACAE          RJUNIAO UMB DOS CULTOS AFRO BRAS    30111810 000180
10231987175000168817800093673    000028325                    000283250000000000000109                     I0128325     30111800000000035003410000017N200818104700000000000103011180000000000000000000000000000000000000000100000000001299MARIA DA PENHA CORREA PINTO             RUA UM                                  BOSQUE AZUL 27971250MACAE          RJUNIAO UMB DOS CULTOS AFRO BRAS    30111810 000181
10231987175000168817800093673    000028324                    000283240000000000000109                     I0128324     30111800000000035003410000017N200818104700000000000103011180000000000000000000000000000000000000000100078514533568PAULO SERGIO SANTOS SANTANA             RUA: W                                  LAGOMAR     27966590MACAE          RJUNIAO UMB DOS CULTOS AFRO BRAS    30111810 000182
10231987175000168817800093673    000028323                    000283230000000000000109                     I0128323     30111800000000035003410000017N200818104700000000000103011180000000000000000000000000000000000000000100010267774702NATHALIA SOUTELINHO FERREIRA            RUA LEVY NEVES                          PRAIA DA BRI23028270RIO DE JANEIRO RJUNIAO UMB DOS CULTOS AFRO BRAS    30111810 000183
10231987175000168817800093673    000028322                    000283220000000000000109                     I0128322     30111800000000035003410000017N200818104700000000000103011180000000000000000000000000000000000000000100007208431701WEMERSON JOAO FARIAS DA SILVA           RUA: C                                  SEPETIBA    23545040RIO DE JANEIRO RJUNIAO UMB DOS CULTOS AFRO BRAS    30111810 000184
10231987175000168817800093673    000028321                    000283210000000000000109                     I0128321     30111800000000035003410000017N200818104700000000000103011180000000000000000000000000000000000000000100073960560710CLAUDIA MARIA DE OLIVEIRA DOS           RUA: CARATUVA                           JARDIM SULAC22725020RIO DE JANEIRO RJUNIAO UMB DOS CULTOS AFRO BRAS    30111810 000185
10231987175000168817800093673    000028320                    000283200000000000000109                     I0128320     30111800000000035003410000017N200818104700000000000103011180000000000000000000000000000000000000000100014933850704LIDIA GABRIELLE DIAS RIBEIRO            RUA JORGE BRAGANCA                      BOM PASTOR  26110080BELFORD ROXO   RJUNIAO UMB DOS CULTOS AFRO BRAS    30111810 000186
10231987175000168817800093673    000028319                    000283190000000000000109                     I0128319     30111800000000035003410000017N200818104700000000000103011180000000000000000000000000000000000000000100097990531704CICERO ROGERIO DA SILVA MATOS           RUA: ROBERTO                            VILA GUIMARA26088425NOVA IGUACU    RJUNIAO UMB DOS CULTOS AFRO BRAS    30111810 000187
10231987175000168817800093673    000028318                    000283180000000000000109                     I0128318     30111800000000035003410000017N200818104700000000000103011180000000000000000000000000000000000000000100001478776790CLEUSA FERREIRA PEREIRA                 RUA THEREMIN                            COELHO NETO 21530290RIO DE JANEIRO RJUNIAO UMB DOS CULTOS AFRO BRAS    30111810 000188
10231987175000168817800093673    000028317                    000283170000000000000109                     I0128317     30111800000000035003410000017N200818104700000000000103011180000000000000000000000000000000000000000100067424647734MARCIA VALERIA VALIATI DOS SAN          RUA GOMES CARNEIRO                      VILA URUSSA√20735090RIO DE JANEIRO RJUNIAO UMB DOS CULTOS AFRO BRAS    30111810 000189
10231987175000168817800093673    000028316                    000283160000000000000109                     I0128316     30111800000000035003410000017N200818104700000000000103011180000000000000000000000000000000000000000100010292272766MARCIA JUPIRA SANTOS GONZAGA            RUA ANTONIO FELIX                       CENTRO      26520081NILOPOLIS      RJUNIAO UMB DOS CULTOS AFRO BRAS    30111810 000190
10231987175000168817800093673    000028315                    000283150000000000000109                     I0128315     30111800000000035003410000017N200818104700000000000103011180000000000000000000000000000000000000000100090490894704EVELINE DA CONCEICAO                    AVENIDA ATLANTIDA  SN                   LAGOMAR - MA27966000MACAE          RJUNIAO UMB DOS CULTOS AFRO BRAS    30111810 000191
10231987175000168817800093673    000028314                    000283140000000000000109                     I0128314     30111800000000035003410000017N200818104700000000000103011180000000000000000000000000000000000000000100013397736781JOVANE RANGEL DA SILVA                  RUA SILVA JARDIM                        CENTRO      27910340MACAE          RJUNIAO UMB DOS CULTOS AFRO BRAS    30111810 000192
10231987175000168817800093673    000028313                    000283130000000000000109                     I0128313     30111800000000035003410000017N200818104700000000000103011180000000000000000000000000000000000000000100004188514760LUIZ CARLOS PEREIRA DA SILVA            RUA W                                   LAGOMAR     27966755MACAE          RJUNIAO UMB DOS CULTOS AFRO BRAS    30111810 000193
10231987175000168817800093673    000028312                    000283120000000000000109                     I0128312     30111800000000035003410000017N200818104700000000000103011180000000000000000000000000000000000000000100016492108760TIAGO LOPES DE AZEVEDO SILVA            RUA X                                   PARADA MODEL25943365GUAPIMIRIM     RJUNIAO UMB DOS CULTOS AFRO BRAS    30111810 000194
10231987175000168817800093673    000028311                    000283110000000000000109                     I0128311     30111800000000035003410000017N200818104700000000000103011180000000000000000000000000000000000000000100000000001296LEONARDO EUGENIO DOS SANTOS             RUA LUIZ PINTO DA SILVA                 PRAIA CAMPIS27923200MACAE          RJUNIAO UMB DOS CULTOS AFRO BRAS    30111810 000195
10231987175000168817800093673    000028310                    000283100000000000000109                     I0128310     30111800000000035003410000017N200818104700000000000103011180000000000000000000000000000000000000000100095181890725ALEXANDRE DE SOUZA TAVARES SEN          RUA DOM MANOEL                          DOM RODRIGO 26260230NOVA IGUACU    RJUNIAO UMB DOS CULTOS AFRO BRAS    30111810 000196
10231987175000168817800093673    000028309                    000283090000000000000109                     I0128309     30111800000000035003410000017N200818104700000000000103011180000000000000000000000000000000000000000100014527767763THIERRY PADILHA MOTA                    RUA ALCIR BRASIL                        JARDIM NOVA 26266010NOVA IGUACU    RJUNIAO UMB DOS CULTOS AFRO BRAS    30111810 000197
10231987175000168817800093673    000028308                    000283080000000000000109                     I0128308     30111800000000035003410000017N200818104700000000000103011180000000000000000000000000000000000000000100011122717750RODRIGO DINIZ DA COSTA                  RUA ENGENHO DE DENTRO                   VILAR DOS TE25565230SAO JOAO DE MERRJUNIAO UMB DOS CULTOS AFRO BRAS    30111810 000198
10231987175000168817800093673    000028307                    000283070000000000000109                     I0128307     30111800000000035003410000017N200818104700000000000103011180000000000000000000000000000000000000000100013090350750REINALDO GONCALVES DE OLIVEIRA          RUA DOMINGOS LEMOS                      COELHO DA RO25550721SAO JOAO DE MERRJUNIAO UMB DOS CULTOS AFRO BRAS    30111810 000199
10231987175000168817800093673    000028306                    000283060000000000000109                     I0128306     30111800000000035003410000017N200818104700000000000103011180000000000000000000000000000000000000000100005953749724JUCIARA DA SILVA XAVIER                 RUA CONDE DE AZAMBUJA                   MARIA DA GRA20785342RIO DE JANEIRO RJUNIAO UMB DOS CULTOS AFRO BRAS    30111810 000200
10231987175000168817800093673    000028305                    000283050000000000000109                     I0128305     30111800000000035003410000017N200818104700000000000103011180000000000000000000000000000000000000000100006110323764WAGNER MATOS DA SILVA                   RUA OLINDA                              BELA VISTA  26175350BELFORD ROXO   RJUNIAO UMB DOS CULTOS AFRO BRAS    30111810 000201
10231987175000168817800093673    000028304                    000283040000000000000109                     I0128304     30111800000000035003410000017N200818104700000000000103011180000000000000000000000000000000000000000100092111777749WANDERLEY DOS SANTOS MENDES             PRACA EMBOABA                           ENGENHO DA R20761160RIO DE JANEIRO RJUNIAO UMB DOS CULTOS AFRO BRAS    30111810 000202
10231987175000168817800093673    000028303                    000283030000000000000109                     I0128303     30111800000000035003410000017N200818104700000000000103011180000000000000000000000000000000000000000100009416663794IGOR DO NASCIMENTO RODRIGUES            RUA FIGUEIREDO ROCHA                    VIGARIO GERA21240660RIO DE JANEIRO RJUNIAO UMB DOS CULTOS AFRO BRAS    30111810 000203
10231987175000168817800093673    000028302                    000283020000000000000109                     I0128302     30111800000000035003410000017N200818104700000000000103011180000000000000000000000000000000000000000100090432894772ALTAMIRO DAMASCENO MONCAO               RUA TENERIFE                            PARADA DE LU21010000RIO DE JANEIRO RJUNIAO UMB DOS CULTOS AFRO BRAS    30111810 000204
10231987175000168817800093673    000028301                    000283010000000000000109                     I0128301     30111800000000035003410000017N200818104700000000000103011180000000000000000000000000000000000000000100040664325734GENI BARBOSA ROCHA DA SILVA             TRAVESSA DA AMIZADE                     VILA DA PENH25268020RIO DE JANEIRO RJUNIAO UMB DOS CULTOS AFRO BRAS    30111810 000205
10231987175000168817800093673    000028300                    000283000000000000000109                     I0128300     30111800000000035003410000017N200818104700000000000103011180000000000000000000000000000000000000000100011834931770LEANDRO BARROS DA SILVA                 RUA ROMARIO SILVA                       KENNEDY     26020640NOVA IGUACU    RJUNIAO UMB DOS CULTOS AFRO BRAS    30111810 000206
10231987175000168817800093673    000028299                    000282990000000000000109                     I0128299     30111800000000035003410000017N200818104700000000000103011180000000000000000000000000000000000000000100069279500791CLAUDIA ALONSO RODRIGUES                ESTRADA DO PAU FERRO                    FREGUESIA   22745055RIO DE JANEIRO RJUNIAO UMB DOS CULTOS AFRO BRAS    30111810 000207
10231987175000168817800093673    000028298                    000282980000000000000109                     I0128298     30111800000000035003410000017N200818104700000000000103011180000000000000000000000000000000000000000100087306689720JANAINA SANTA CRUZ COSTA                ALAMEDA SANTO ANTONIO                   SEPETIBA    23535660RIO DE JANEIRO RJUNIAO UMB DOS CULTOS AFRO BRAS    30111810 000208
10231987175000168817800093673    000028297                    000282970000000000000109                     I0128297     30111800000000035003410000017N200818104700000000000103011180000000000000000000000000000000000000000100092915434700MARIA MANOLA GIL DE ALMEIDA             RUA AMANDIU                             IRAJA       21230820RIO DE JANEIRO RJUNIAO UMB DOS CULTOS AFRO BRAS    30111810 000209
10231987175000168817800093673    000028296                    000282960000000000000109                     I0128296     30111800000000035003410000017N200818104700000000000103011180000000000000000000000000000000000000000100060210389753ROZANA DOS SANTOS                       RUA CAFE FILHO                          INHOAIBA    23060720RIO DE JANEIRO RJUNIAO UMB DOS CULTOS AFRO BRAS    30111810 000210
10231987175000168817800093673    000028295                    000282950000000000000109                     I0128295     30111800000000035003410000017N200818104700000000000103011180000000000000000000000000000000000000000100088041883753JORGE COSTA BRAGA FILHO                 RUA CENTO E VINTE E TRES                MAUA        25900000RIO DE JANEIRO RJUNIAO UMB DOS CULTOS AFRO BRAS    30111810 000211
10231987175000168817800093673    000028294                    000282940000000000000109                     I0128294     30111800000000040003410000017N200818104700000000000103011180000000000000000000000000000000000000000100016618405742MILTON CARLOS JUNIO QUINTANILH          RUA SEIS                                PARADA MORAB25265000DUQUE DE CAXIASRJUNIAO UMB DOS CULTOS AFRO BRAS    30111810 000212
10231987175000168817800093673    000028293                    000282930000000000000109                     I0128293     30111800000000035003410000017N200818104700000000000103011180000000000000000000000000000000000000000100005234763706LUCIANA FERREIRA DE ALMEIDA             RUA QUATRO                              PARADA MORAB25265220DUQUE DE CAXIASRJUNIAO UMB DOS CULTOS AFRO BRAS    30111810 000213
10231987175000168817800093673    000028292                    000282920000000000000109                     I0128292     30111800000000035003410000017N200818104700000000000103011180000000000000000000000000000000000000000100012009305760DEBORA CRISTINA DE OLIVEIRA BR          RUA LORD COCHRANE                       IBIRAPITANGA23811810ITAGUAI        RJUNIAO UMB DOS CULTOS AFRO BRAS    30111810 000214
10231987175000168817800093673    000028291                    000282910000000000000109                     I0128291     30111800000000035003410000017N200818104700000000000103011180000000000000000000000000000000000000000100000759136742ADRIANA LAPORT ALVES                    RUA DONA CLARA DE ARAUJO                ANDRADE ARAU26010390NOVA IGUACU    RJUNIAO UMB DOS CULTOS AFRO BRAS    30111810 000215
10231987175000168817800093673    000028290                    000282900000000000000109                     I0128290     30111800000000035003410000017N200818104700000000000103011180000000000000000000000000000000000000000100090618254749NELY MOREIRA GOMES                      RUA GOMES CARNEIRO                      SARACURUNA  25211050DUQUE DE CAXIASRJUNIAO UMB DOS CULTOS AFRO BRAS    30111810 000216
10231987175000168817800093673    000028289                    000282890000000000000109                     I0128289     30111800000000035003410000017N200818104700000000000103011180000000000000000000000000000000000000000100058365737787ALTAMIRA ROSA                           AVENIDA DO CONTORNO                     PARADA MORAB25000000DUQUE DE CAXIASRJUNIAO UMB DOS CULTOS AFRO BRAS    30111810 000217
10231987175000168817800093673    000028288                    000282880000000000000109                     I0128288     30111800000000035003410000017N200818104700000000000103011180000000000000000000000000000000000000000100074171372704ELIANE DE SOUZA MACHADO                 RUA ROQUETE PINTO                       JARDIM ANHAN25265200DUQUE DE CAXIASRJUNIAO UMB DOS CULTOS AFRO BRAS    30111810 000218
10231987175000168817800093673    000028287                    000282870000000000000109                     I0128287     30111800000000035003410000017N200818104700000000000103011180000000000000000000000000000000000000000100053218833787MARLUCE SUELY DA SILVA                  RUA CHRISOSTOMO PIMENTEL DE OLIVEIRA, 63ANCHIETA - R21645521RIO DE JANEIRO RJUNIAO UMB DOS CULTOS AFRO BRAS    30111810 000219
10231987175000168817800093673    000028286                    000282860000000000000109                     I0128286     30111800000000035003410000017N200818104700000000000103011180000000000000000000000000000000000000000100082191638791RITA DE CASSIA VALVERDE ROCHA           RUA JOAQUIM SOARES NETO                 NOVA AMERICA26021560NOVA IGUACU    RJUNIAO UMB DOS CULTOS AFRO BRAS    30111810 000220
10231987175000168817800093673    000028285                    000282850000000000000109                     I0128285     30111800000000035003410000017N200818104700000000000103011180000000000000000000000000000000000000000100069052735700ROSANE MARQUES FERREIRA                 AVENIDA PEDRO GERALDO DE ALMEIDA        CAMPO GRANDE23076160RIO DE JANEIRO RJUNIAO UMB DOS CULTOS AFRO BRAS    30111810 000221
10231987175000168817800093673    000028284                    000282840000000000000109                     I0128284     30111800000000035003410000017N200818104700000000000103011180000000000000000000000000000000000000000100014520518792STEPHANI MATOS MONTEIRO                 ESTRADA DOUTOR PLINIO CASADO            CENTRO      26130622BELFORD ROXO   RJUNIAO UMB DOS CULTOS AFRO BRAS    30111810 000222
10231987175000168817800093673    000028283                    000282830000000000000109                     I0128283     30111800000000035003410000017N200818104700000000000103011180000000000000000000000000000000000000000100012727461780SUELMIR LIMA DE ARAUJO                  RUA NOSSA SENHORA DAS GRACAS            PRAIA DO ANI25925708MAGE           RJUNIAO UMB DOS CULTOS AFRO BRAS    30111810 000223
10231987175000168817800093673    000028282                    000282820000000000000109                     I0128282     30111800000000035003410000017N200818104700000000000103011180000000000000000000000000000000000000000100001346375771CRISTIANE MARIANO RAPELLO               ESTRADA ALBERTO TEIXEIRA CUNHA          NOSSA SENHOR26520070NILOPOLIS      RJUNIAO UMB DOS CULTOS AFRO BRAS    30111810 000224
10231987175000168817800093673    000028281                    000282810000000000000109                     I0128281     30111800000000035003410000017N200818104700000000000103011180000000000000000000000000000000000000000100011351878786GLEISSON BITTENCOURT DA SILVA           RUA FLORA DE ARAUJO                     PRATA       26010570NOVA IGUACU    RJUNIAO UMB DOS CULTOS AFRO BRAS    30111810 000225
10231987175000168817800093673    000028280                    000282800000000000000109                     I0128280     30111800000000035003410000017N200818104700000000000103011180000000000000000000000000000000000000000100000839586736MAURO CESAR BRANCO OBERLAENDER          RUA IGUARIM                             REALENGO    21765540RIO DE JANEIRO RJUNIAO UMB DOS CULTOS AFRO BRAS    30111810 000226
10231987175000168817800093673    000028279                    000282790000000000000109                     I0128279     30111800000000035003410000017N200818104700000000000103011180000000000000000000000000000000000000000100011766861784MARIA WANDERLEIA MARTINS CRUZ           RUA BRUNO LECINI N 375                  AUSTIN - NOV26279255NOVA IGUACU    RJUNIAO UMB DOS CULTOS AFRO BRAS    30111810 000227
10231987175000168817800093673    000028278                    000282780000000000000109                     I0128278     30111800000000035003410000017N200818104700000000000103011180000000000000000000000000000000000000000100070645523704RICARDO DE SOUZA LIMA                   RUA MAJOR AZEVEDO 344                   IRAJA       21230060RIO DE JANEIRO RJUNIAO UMB DOS CULTOS AFRO BRAS    30111810 000228
10231987175000168817800093673    000028277                    000282770000000000000109                     I0128277     30111800000000035003410000017N200818104700000000000103011180000000000000000000000000000000000000000100015110892709YASMIN FIALHO HANGES                    ESTRADA HENRIQUE DE MELO N 193 FUNDOS   BENTO RIBEIR21340190RIO DE JANEIRO RJUNIAO UMB DOS CULTOS AFRO BRAS    30111810 000229
10231987175000168817800093673    000028276                    000282760000000000000109                     I0128276     30111800000000035003410000017N200818104700000000000103011180000000000000000000000000000000000000000100030894840720LIGIA REGINA ZACHARIAS DE MELO          RUA MANAPA N 280                        VALVERDE - N21051360RIO DE JANEIRO RJUNIAO UMB DOS CULTOS AFRO BRAS    30111810 000230
10231987175000168817800093673    000028275                    000282750000000000000109                     I0128275     30111800000000035003410000017N200818104700000000000103011180000000000000000000000000000000000000000100068373570772RONILCE CAMILO DA SILVA                 RUA RUBY ALBERTORIA N 2 - GERENCIANO    GERENCIANO -26061155NOVA IGUACU    RJUNIAO UMB DOS CULTOS AFRO BRAS    30111810 000231
10231987175000168817800093673    000028274                    000282740000000000000109                     I0128274     30111800000000035003410000017N200818104700000000000103011180000000000000000000000000000000000000000100047442140700MARFIZA FERREIRA DA SILVA VENA          RUA EURICO COELHO N 50                  GRAMA - NOVA26060650NOVA IGUACU    RJUNIAO UMB DOS CULTOS AFRO BRAS    30111810 000232
10231987175000168817800093673    000028273                    000282730000000000000109                     I0128273     30111800000000035003410000017N200818104700000000000103011180000000000000000000000000000000000000000100007620451157JUCIARA BARRETO DA SILVA                RUA G SN                                PIABETA     25900000MAGE           RJUNIAO UMB DOS CULTOS AFRO BRAS    30111810 000233
10231987175000168817800093673    000028272                    000282720000000000000109                     I0128272     30111800000000035003410000017N200818104700000000000103011180000000000000000000000000000000000000000100000000001288JOSE ANTONIO DA SILVA JUNIOR            RUA HUMAITA                             PIABETA     25915000MAGE           RJUNIAO UMB DOS CULTOS AFRO BRAS    30111810 000234
10231987175000168817800093673    000028271                    000282710000000000000109                     I0128271     30111800000000035003410000017N200818104700000000000103011180000000000000000000000000000000000000000100093788150734REGINA DA SILVA VERONEZI DOS S          RUA ABATE                               JARDIM CANAA26263040NOVA IGUACU    RJUNIAO UMB DOS CULTOS AFRO BRAS    30111810 000235
10231987175000168817800093673    000028270                    000282700000000000000109                     I0128270     30111800000000035003410000017N200818104700000000000103011180000000000000000000000000000000000000000100008834107705JOSELI TIADULINO                        RUA MARIA TEREZA                        JARDIM CANAA26263230NOVA IGUACU    RJUNIAO UMB DOS CULTOS AFRO BRAS    30111810 000236
10231987175000168817800093673    000028269                    000282690000000000000109                     I0128269     30111800000000035003410000017N200818104700000000000103011180000000000000000000000000000000000000000100092645933734ROSINEA PRECIOSO DE OLIVEIRA            RUA PROFESSORA MARLY CARVALHO PEREIRA   MIGUEL COUTO26070452NOVA IGUACU    RJUNIAO UMB DOS CULTOS AFRO BRAS    30111810 000237
10231987175000168817800093673    000028268                    000282680000000000000109                     I0128268     30111800000000035003410000017N200818104700000000000103011180000000000000000000000000000000000000000100002375024702FATIMA APARECIDA OLIVEIRA DE C          RUA OURO PRETO                          COQUEIRAL   20740280RIO DE JANEIRO RJUNIAO UMB DOS CULTOS AFRO BRAS    30111810 000238
10231987175000168817800093673    000028267                    000282670000000000000109                     I0128267     30111800000000035003410000017N200818104700000000000103011180000000000000000000000000000000000000000100001317692780SELENE FREIRE DE ARAUJO CANNAN          RUA DA CONQUISTA                        JARDIM ESPLA26013330NOVA IGUACU    RJUNIAO UMB DOS CULTOS AFRO BRAS    30111810 000239
10231987175000168817800093673    000028266                    000282660000000000000109                     I0128266     30111800000000035003410000017N200818104700000000000103011180000000000000000000000000000000000000000100080578063700SANDRA REGINA NEVES CHAGAS              RUA MARIA LOURENCO N 12 CASA 2          JARDIM PRIMA25215367DUQUE DE CAXIASRJUNIAO UMB DOS CULTOS AFRO BRAS    30111810 000240
10231987175000168817800093673    000028265                    000282650000000000000109                     I0128265     30111800000000035003410000017N200818104700000000000103011180000000000000000000000000000000000000000100074824996791ELIANE DA SILVA CAMACHO                 RUA MAJOR REGO 84                       OLARIA      21073440RIO DE JANEIRO RJUNIAO UMB DOS CULTOS AFRO BRAS    30111810 000241
10231987175000168817800093673    000028264                    000282640000000000000109                     I0128264     30111800000000035003410000017N200818104700000000000103011180000000000000000000000000000000000000000100008204291710STANLEY RODRIGO SILVA BOEHLER           RUA CARLOS DE CAMPOS LOTE 4 QUADRA 36 VIIMBARIE DUQU25275230DUQUE DE CAXIASRJUNIAO UMB DOS CULTOS AFRO BRAS    30111810 000242
10231987175000168817800093673    000028263                    000282630000000000000109                     I0128263     30111800000000035003410000017N200818104700000000000103011180000000000000000000000000000000000000000100009713273605CAMILA EMANUELE DE ARAUJO CALD          RUA DAS PACAS 1004 LOTE M   QUADRA 69   TAMOIOS  CAB28927000DUQUE DE CAXIASRJUNIAO UMB DOS CULTOS AFRO BRAS    30111810 000243
10231987175000168817800093673    000028262                    000282620000000000000109                     I0128262     30111800000000035003410000017N200818104700000000000103011180000000000000000000000000000000000000000100010276278704ROSELI DE OLIVEIRA DUTRA                RUA UM LOTE 7 QUADRA 8                  TAQUARA - DU25275110DUQUE DE CAXIASRJUNIAO UMB DOS CULTOS AFRO BRAS    30111810 000244
10231987175000168817800093673    000028261                    000282610000000000000109                     I0128261     30111800000000035003410000017N200818104700000000000103011180000000000000000000000000000000000000000100005633721735MARCOS AURELIO PAULINO FLORIAN          RUA LEONEL ROCHA N 195 CASA LOTE H      GUARATIBA - 23032460RIO DE JANEIRO RJUNIAO UMB DOS CULTOS AFRO BRAS    30111810 000245
10231987175000168817800093673    000028260                    000282600000000000000109                     I0128260     30111800000000035003410000017N200818104700000000000103011180000000000000000000000000000000000000000100000000001288VIVIANE MORAES ALEXANDRINO              RUA JOAQUIM MOREIRA N¬∫ 37              SEPETIBA    23545054RIO DE JANEIRO RJUNIAO UMB DOS CULTOS AFRO BRAS    30111810 000246
10231987175000168817800093673    000028259                    000282590000000000000109                     I0128259     30111800000000035003410000017N200818104700000000000103011180000000000000000000000000000000000000000100004277956726ROSANA OLIVEIRA GUEDES                  RUA CARDOSO QUINTAO N 24                PIEDADE - RI21381460RIO DE JANEIRO RJUNIAO UMB DOS CULTOS AFRO BRAS    30111810 000247
10231987175000168817800093673    000028258                    000282580000000000000109                     I0128258     30111800000000035003410000017N200818104700000000000103011180000000000000000000000000000000000000000100001972684710ALEXANDRE MALAQUIAS DE SOUSA P          AVENIDA NELSON DE AQUINO N 246 - COROA GCOROA GRANDE23825670ITAGUAI        RJUNIAO UMB DOS CULTOS AFRO BRAS    30111810 000248
10231987175000168817800093673    000028257                    000282570000000000000109                     I0128257     30111800000000040003410000017N200818104700000000000103011180000000000000000000000000000000000000000100014641727732DAVI SILVA BARBOSA LIMA                 TRAVESSA ANTONIO AARAO N 9              SEPETIBA - R23540030RIO DE JANEIRO RJUNIAO UMB DOS CULTOS AFRO BRAS    30111810 000249
