01REMESSA01COBRANCA       916200163100        União Umb dos Cultos Afro Bra341BANCO ITAU SA  120719                                                                                                                                                                                                                                                                                                      000001
10231987175000168916200163100    000049915                    000499150000000000000109                     I0149915     30071900000000120003410000017N120719105700000000000403007190000000000000000000000000000000000000000100079096611772MARIO LUIZ BARRETO DE BARROS            RUA GRAVATAN 215,                       MARECHAL HER21610510RIO DE JANEIRO RJUNIAO UMB DOS CULTOS AFRO BRAS    30071915 000002
21300720190000000000240                                                                                                                                                                                                                                                                                                                                                                                   000003
10231987175000168916200163100    000049914                    000499140000000000000109                     I0149914     31071900000000350003410000017N120719105700000000001163107190000000000000000000000000000000000000000100005569373764VIVIANE DA SILVA MERIADE DUART          RUA ARISTIDES LOBON 44, APARTAMENTO 401 RIO COMPRIDO20250450RIO DE JANEIRO RJUNIAO UMB DOS CULTOS AFRO BRAS    31071915 000004
21310720190000000000700                                                                                                                                                                                                                                                                                                                                                                                   000005
10231987175000168916200163100    000049913                    000499130000000000000109                     I0149913     16071900000000400003410000017N120719105700000000001321607190000000000000000000000000000000000000000100007775553790ANDRE BATISTA DO NASCIMENTO AR          RUA DOUTOR BERNARDINON 559, CASA 101 BLOPRACA SECA  21320020RIO DE JANEIRO RJUNIAO UMB DOS CULTOS AFRO BRAS    16071915 000006
21160720190000000000800                                                                                                                                                                                                                                                                                                                                                                                   000007
10231987175000168916200163100    000049912                    000499120000000000000109                     I0149912     30071900000000040003410000017N120719105700000000000133007190000000000000000000000000000000000000000100008071394750GLAUCIO TEIXEIRA CERQUEIRA              RUA DOS YPESN 808,                      CIDADE DA AL27525066RESENDE        RJUNIAO UMB DOS CULTOS AFRO BRAS    30071915 000008
21300720190000000000080                                                                                                                                                                                                                                                                                                                                                                                   000009
10231987175000168916200163100    000049911                    000499110000000000000109                     I0149911     30071900000000400003410000017N120719105700000000001323007190000000000000000000000000000000000000000100053542886734MARIA LUCIA SOARES PONCE                RUA MAJOR VITOR HUGON 71,               VILA KOSMOS 21221010RIO DE JANEIRO RJUNIAO UMB DOS CULTOS AFRO BRAS    30071915 000010
21300720190000000000800                                                                                                                                                                                                                                                                                                                                                                                   000011
10231987175000168916200163100    000049910                    000499100000000000000109                     I0149910     30091900000000040003410000017N120719105700000000000133009190000000000000000000000000000000000000000100002826175742MARGARETH LOPES VIANNA                  RUA NAVARRON 541, FUNDOS                SANTA TERESA20251190RIO DE JANEIRO RJUNIAO UMB DOS CULTOS AFRO BRAS    30091915 000012
21300920190000000000080                                                                                                                                                                                                                                                                                                                                                                                   000013
10231987175000168916200163100    000049909                    000499090000000000000109                     I0149909     30081900000000040003410000017N120719105700000000000133008190000000000000000000000000000000000000000100002826175742MARGARETH LOPES VIANNA                  RUA NAVARRON 541, FUNDOS                SANTA TERESA20251190RIO DE JANEIRO RJUNIAO UMB DOS CULTOS AFRO BRAS    30081915 000014
21300820190000000000080                                                                                                                                                                                                                                                                                                                                                                                   000015
10231987175000168916200163100    000049856                    000498560000000000000109                     I0249856     10071900000000120003410000017N030719105700000000000401007190000000000000000000000000000000000000000100059475161791MARIA NAZARETE ALVES ANTONIO            RUA SANTOS DUMONTN 23, FUNDOS           TAUA - ILHA 21910490RIO DE JANEIRO RJUNIAO UMB DOS CULTOS AFRO BRAS    10071915 000016
21100720190000000000240                                                                                                                                                                                                                                                                                                                                                                                   000017
10231987175000168916200163100    000044493                    000444930000000000000109                     I0244493     30061900000000040003410000017N130319105700000000000133006190000000000000000000000000000000000000000100001010828789JUSSARA DA SILVA GONCALVES DAM          RUA: TRINTA E TRES N 0, LOTE 219        NOVA CIDADE 24804185ITABORAI       RJUNIAO UMB DOS CULTOS AFRO BRAS    30061915 000018
21300620190000000000080                                                                                                                                                                                                                                                                                                                                                                                   000019
10231987175000168916200163100    000044248                    000442480000000000000109                     I0244248     30061900000000040003410000017N130319105700000000000133006190000000000000000000000000000000000000000100053542886734MARIA LUCIA SOARES PONCE                RUA MAJOR VITOR HUGON 71,               VILA KOSMOS 21221010RIO DE JANEIRO RJUNIAO UMB DOS CULTOS AFRO BRAS    30061915 000020
21300620190000000000080                                                                                                                                                                                                                                                                                                                                                                                   000021
10231987175000168916200163100    000043973                    000439730000000000000109                     I0243973     30061900000000040003410000017N130319105700000000000133006190000000000000000000000000000000000000000100059475161791MARIA NAZARETE ALVES ANTONIO            RUA SANTOS DUMONTN 23, FUNDOS           TAUA - ILHA 21910490RIO DE JANEIRO RJUNIAO UMB DOS CULTOS AFRO BRAS    30061915 000022
21300620190000000000080                                                                                                                                                                                                                                                                                                                                                                                   000023
10231987175000168916200163100    000043669                    000436690000000000000109                     I0243669     30061900000000040003410000017N130319105700000000000133006190000000000000000000000000000000000000000100006957427790ANDREIA CARVALHO DOS SANTOS             RUA DOUTOR LEALN 376,                   ENGENHO DE D20730380RIO DE JANEIRO RJUNIAO UMB DOS CULTOS AFRO BRAS    30061915 000024
21300620190000000000080                                                                                                                                                                                                                                                                                                                                                                                   000025
10231987175000168916200163100    000043640                    000436400000000000000109                     I0243640     30061900000000040003410000017N130319105700000000000133006190000000000000000000000000000000000000000100007775553790ANDRE BATISTA DO NASCIMENTO AR          RUA DOUTOR BERNARDINON 559, CASA 101 BLOPRACA SECA  21320020RIO DE JANEIRO RJUNIAO UMB DOS CULTOS AFRO BRAS    30061915 000026
21300620190000000000080                                                                                                                                                                                                                                                                                                                                                                                   000027
10231987175000168916200163100    000043323                    000433230000000000000109                     I0243323     30061900000000040003410000017N130319105700000000000133006190000000000000000000000000000000000000000100045736278715MARIA DE LOURDES VIEIRA DA SIL          RUA PEDRO FERREIRAN 0, LOTE 28 QUADRA 28JARDIM CATAR24715382SAO GONCALO    RJUNIAO UMB DOS CULTOS AFRO BRAS    30061915 000028
21300620190000000000080                                                                                                                                                                                                                                                                                                                                                                                   000029
10231987175000168916200163100    000043191                    000431910000000000000109                     I3443191     30061900000000040003410000017N130319105700000000000133006190000000000000000000000000000000000000000100045935742772SANDRA ANDRADE DE ARAUJO                AVENIDA MINISTRO EDGARD ROMERON 679, VILMADUREIRA   21360202RIO DE JANEIRO RJUNIAO UMB DOS CULTOS AFRO BRAS    30061915 000030
21300620190000000000080                                                                                                                                                                                                                                                                                                                                                                                   000031
10231987175000168916200163100    000042843                    000428430000000000000109                     I0242843     30051900000000040003410000017N130319105700000000000133005190000000000000000000000000000000000000000100001010828789JUSSARA DA SILVA GONCALVES DAM          RUA: TRINTA E TRES N 0, LOTE 219        NOVA CIDADE 24804185ITABORAI       RJUNIAO UMB DOS CULTOS AFRO BRAS    30051915 000032
21300520190000000000080                                                                                                                                                                                                                                                                                                                                                                                   000033
10231987175000168916200163100    000042601                    000426010000000000000109                     I0242601     30051900000000040003410000017N130319105700000000000133005190000000000000000000000000000000000000000100053542886734MARIA LUCIA SOARES PONCE                RUA MAJOR VITOR HUGON 71,               VILA KOSMOS 21221010RIO DE JANEIRO RJUNIAO UMB DOS CULTOS AFRO BRAS    30051915 000034
21300520190000000000080                                                                                                                                                                                                                                                                                                                                                                                   000035
10231987175000168916200163100    000042327                    000423270000000000000109                     I0242327     30051900000000040003410000017N130319105700000000000133005190000000000000000000000000000000000000000100059475161791MARIA NAZARETE ALVES ANTONIO            RUA SANTOS DUMONTN 23, FUNDOS           TAUA - ILHA 21910490RIO DE JANEIRO RJUNIAO UMB DOS CULTOS AFRO BRAS    30051915 000036
21300520190000000000080                                                                                                                                                                                                                                                                                                                                                                                   000037
10231987175000168916200163100    000042025                    000420250000000000000109                     I0242025     30051900000000040003410000017N130319105700000000000133005190000000000000000000000000000000000000000100006957427790ANDREIA CARVALHO DOS SANTOS             RUA DOUTOR LEALN 376,                   ENGENHO DE D20730380RIO DE JANEIRO RJUNIAO UMB DOS CULTOS AFRO BRAS    30051915 000038
21300520190000000000080                                                                                                                                                                                                                                                                                                                                                                                   000039
10231987175000168916200163100    000041996                    000419960000000000000109                     I0241996     30051900000000040003410000017N130319105700000000000133005190000000000000000000000000000000000000000100007775553790ANDRE BATISTA DO NASCIMENTO AR          RUA DOUTOR BERNARDINON 559, CASA 101 BLOPRACA SECA  21320020RIO DE JANEIRO RJUNIAO UMB DOS CULTOS AFRO BRAS    30051915 000040
21300520190000000000080                                                                                                                                                                                                                                                                                                                                                                                   000041
10231987175000168916200163100    000041683                    000416830000000000000109                     I0241683     30051900000000040003410000017N130319105700000000000133005190000000000000000000000000000000000000000100045736278715MARIA DE LOURDES VIEIRA DA SIL          RUA PEDRO FERREIRAN 0, LOTE 28 QUADRA 28JARDIM CATAR24715382SAO GONCALO    RJUNIAO UMB DOS CULTOS AFRO BRAS    30051915 000042
21300520190000000000080                                                                                                                                                                                                                                                                                                                                                                                   000043
9                                                                                                                                                                                                                                                                                                                                                                                                         000044
