01REMESSA01COBRANCA       916200163100        União Umb dos Cultos Afro Bra341BANCO ITAU SA  250718                                                                                                                                                                                                                                                                                                      000001
10231987175000168916200163100    000021317                    000213170000000000000109                     I0121317     30081800000000140003410000017N250718104700000000000103008180000000000000000000000000000000000000000100064947130768MARIA GORETE DE SOUSA MIRANDA           AVENIDA PASTEUR N 113 A                 PARQUE ALIAN25550210SAO JOAO DE MERRJUNIAO UMB DOS CULTOS AFRO BRAS    30081810 000002
10231987175000168916200163100    000021316                    000213160000000000000109                     I0121316     10081800000000140003410000017N250718104700000000000101008180000000000000000000000000000000000000000100005933193704ANA PAULA DA SILVA SANTOS               RUA: APIACA                             JARDIM BARRO25267290DUQUE DE CAXIASRJUNIAO UMB DOS CULTOS AFRO BRAS    10081810 000003
10231987175000168916200163100    000021315                    000213150000000000000109                     I0121315     30081800000000035003410000017N250718104700000000000103008180000000000000000000000000000000000000000100085748781700NELSON TEIXEIRA RUI FILHO               RUA CAROLINA AMADO                      IRAJA       21361320RIO DE JANEIRO RJUNIAO UMB DOS CULTOS AFRO BRAS    30081810 000004
10231987175000168916200163100    000021314                    000213140000000000000109                     I0121314     30081800000000040003410000017N250718104700000000000103008180000000000000000000000000000000000000000100010426625765ALESSANDRA LAURIANO LIMA DOMIN          RUA PROJETADA N 4                       ANCORA - RIO28899515RIO DAS OSTRAS RJUNIAO UMB DOS CULTOS AFRO BRAS    30081810 000005
10231987175000168916200163100    000021313                    000213130000000000000109                     I0121313     10081800000000035003410000017N230718104700000000000101008180000000000000000000000000000000000000000100007609502707WALDENILSON DUARTE DOS SANTOS           RUA ITABAIANA 93 FDS QD 113 LT 19       CABUCU - NOV26355500RIO DE JANEIRO RJUNIAO UMB DOS CULTOS AFRO BRAS    10081810 000006
10231987175000168916200163100    000021312                    000213120000000000000109                     I0121312     30081800000000040003410000017N230718104700000000000103008180000000000000000000000000000000000000000100081476191700IRLENE DE ALMEIDA LOPES                 RUA FERNANDEZ GAMA                      REALENGO    21760030RIO DE JANEIRO RJUNIAO UMB DOS CULTOS AFRO BRAS    30081810 000007
10231987175000168916200163100    000021311                    000213110000000000000109                     I0121311     30081800000000040003410000017N230718104700000000000103008180000000000000000000000000000000000000000100029759030730JOSE ROBERTO MELLO COIMBRA              RUA SALVADOR SABATE                     REALENGO    21760020RIO DE JANEIRO RJUNIAO UMB DOS CULTOS AFRO BRAS    30081810 000008
10231987175000168916200163100    000021310                    000213100000000000000109                     I0121310     30081800000000040003410000017N230718104700000000000103008180000000000000000000000000000000000000000100093265883787ROSANGELA BARBOSA DE CARVALHO           CAMINHO DOS TELEGRAFOS                  SENADOR CAMA00000000RIO DE JANEIRO RJUNIAO UMB DOS CULTOS AFRO BRAS    30081810 000009
10231987175000168916200163100    000021309                    000213090000000000000109                     I0121309     30081800000000040003410000017N230718104700000000000103008180000000000000000000000000000000000000000100010212584740TIAGO VEROL DE SOUZA                    RUA REGISTRO                            SENADOR CAMA21832006RIO DE JANEIRO RJUNIAO UMB DOS CULTOS AFRO BRAS    30081810 000010
10231987175000168916200163100    000021308                    000213080000000000000109                     I0121308     30081800000000035003410000017N230718104700000000000103008180000000000000000000000000000000000000000100008768685700RENATA BRUNO MACHADO SANTOS             RUA CLIVIA                              BENTO RIBEIR21331530RIO DE JANEIRO RJUNIAO UMB DOS CULTOS AFRO BRAS    30081810 000011
10231987175000168916200163100    000021307                    000213070000000000000109                     I0121307     30081800000000035003410000017N230718104700000000000103008180000000000000000000000000000000000000000100039869253768MARIA DE LOURDES FERREIRA               RUA GERSON TELES RIBEIRO                CENTRO      26193590DUQUE DE CAXIASRJUNIAO UMB DOS CULTOS AFRO BRAS    30081810 000012
10231987175000168916200163100    000021306                    000213060000000000000109                     I0121306     30081800000000035003410000017N230718104700000000000103008180000000000000000000000000000000000000000100001860329780VIVIANE DE PAULA AGNELO                 RUA DA VITORIA                          PARAISO     26297138NOVA IGUACU    RJUNIAO UMB DOS CULTOS AFRO BRAS    30081810 000013
10231987175000168916200163100    000021305                    000213050000000000000109                     I0121305     30081800000000035003410000017N230718104700000000000103008180000000000000000000000000000000000000000100000000012056VIVIANE ALVES DUQUE MORAES              O MESMO                                 O MESMO     21650450RIO DE JANEIRO RJUNIAO UMB DOS CULTOS AFRO BRAS    30081810 000014
10231987175000168916200163100    000021304                    000213040000000000000109                     I0121304     23071800000000035003410000017N160718104700000000000102307180000000000000000000000000000000000000000100044108680715MARIA DA PENHA PEREIRA DOS SAN          O MESMO                                 O MESMO     26530060NILOPOLIS      RJUNIAO UMB DOS CULTOS AFRO BRAS    23071810 000015
10231987175000168916200163100    000021303                    000213030000000000000109                     I0121303     23071800000000035003410000017N160718104700000000000102307180000000000000000000000000000000000000000100095846190715ANA MARIA NICANOR DE QUADRO             RUA: PASSO FUNDO                        JARDIM GUAND26298189NOVA IGUACU    RJUNIAO UMB DOS CULTOS AFRO BRAS    23071810 000016
10231987175000168916200163100    000021302                    000213020000000000000109                     I0121302     23071800000000070003410000017N160718104700000000000102307180000000000000000000000000000000000000000100092952364753ROSANGELA SILVA SOUZA                   RUA TAMOIOS N 144                       CENTRO - NIL26520250NILOPOLIS      RJUNIAO UMB DOS CULTOS AFRO BRAS    23071810 000017
10231987175000168916200163100    000021301                    000213010000000000000109                     I0121301     30081800000000040003410000017N130718104700000000000103008180000000000000000000000000000000000000000100007416975727ANGELICA AMARAL GOTELIP BARBOS          RUA MARECHAL MARCIANO - TRAVESSA 120    REALENGO    21735652RIO DE JANEIRO RJUNIAO UMB DOS CULTOS AFRO BRAS    30081810 000018
10231987175000168916200163100    000021300                    000213000000000000000109                     I0121300     30081800000000040003410000017N130718104700000000000103008180000000000000000000000000000000000000000100008214669766MARCO AURELIO RANGEL BARBOSA            RUA GENERAL JOSE FAUSTINO N 200 FUNDOS  PADRE MIGUEL21721050RIO DE JANEIRO RJUNIAO UMB DOS CULTOS AFRO BRAS    30081810 000019
10231987175000168916200163100    000021299                    000212990000000000000109                     I0121299     16071800000000175003410000017N130718104700000000000101607180000000000000000000000000000000000000000100007986589752LEANDRO DOS SANTOS RODRIGUES            AVENIDA GASPAR DE LEMOS, 13             ILHA DE GUAR23020230RIO DE JANEIRO RJUNIAO UMB DOS CULTOS AFRO BRAS    16071810 000020
10231987175000168916200163100    000020862                    000208620000000000000109                     I3420862     30081800000000035003410000017N100518104700000000000103008180000000000000000000000000000000000000000100064947130768MARIA GORETE DE SOUSA MIRANDA           AVENIDA PASTEUR N 113 A                 PARQUE ALIAN25550210SAO JOAO DE MERRJUNIAO UMB DOS CULTOS AFRO BRAS    30081810 000021
10231987175000168916200163100    000020861                    000208610000000000000109                     I3420861     30071800000000035003410000017N100518104700000000000103007180000000000000000000000000000000000000000100064947130768MARIA GORETE DE SOUSA MIRANDA           AVENIDA PASTEUR N 113 A                 PARQUE ALIAN25550210SAO JOAO DE MERRJUNIAO UMB DOS CULTOS AFRO BRAS    30071810 000022
10231987175000168916200163100    000020860                    000208600000000000000109                     I3420860     30061800000000035003410000017N100518104700000000000103006180000000000000000000000000000000000000000100064947130768MARIA GORETE DE SOUSA MIRANDA           AVENIDA PASTEUR N 113 A                 PARQUE ALIAN25550210SAO JOAO DE MERRJUNIAO UMB DOS CULTOS AFRO BRAS    30061810 000023
10231987175000168916200163100    000020657                    000206570000000000000109                     I0220657     30081800000000035003410000017N070518104700000000000103008180000000000000000000000000000000000000000100079882749704IRIS BRASILINO VILELA                   RUA DONA ALZIRA                         FIGUEIRA II 26022202NOVA IGUACU    RJUNIAO UMB DOS CULTOS AFRO BRAS    30081810 000024
10231987175000168916200163100    000020340                    000203400000000000000109                     I3420340     30081800000000035003410000017N070518104700000000000103008180000000000000000000000000000000000000000100093265042715CARMEN MESQUITA CAMILLO DA SIL          RUA RAUL PEDERNEIRAS, 261               BANGU - RIO 21860210RIO DE JANEIRO RJUNIAO UMB DOS CULTOS AFRO BRAS    30081810 000025
10231987175000168916200163100    000020232                    000202320000000000000109                     I3420232     30081800000000035003410000017N070518104700000000000103008180000000000000000000000000000000000000000100011790209790NOILDA SANTIAGO DA SILVA                RUA ADRIANA N 203 FUNDOS                VALVERDE - N26290645NOVA IGUACU    RJUNIAO UMB DOS CULTOS AFRO BRAS    30081810 000026
10231987175000168916200163100    000020013                    000200130000000000000109                     I3420013     30081800000000035003410000017N070518104700000000000103008180000000000000000000000000000000000000000100043224164700CLEUZA LORETTE GONCALVES                RUA IPE N 22                            VARGEM PEQUE22783409RIO DE JANEIRO RJUNIAO UMB DOS CULTOS AFRO BRAS    30081810 000027
10231987175000168916200163100    000019615                    000196150000000000000109                     I0219615     30081800000000035003410000017N070518104700000000000103008180000000000000000000000000000000000000000100079469825772VICTOR FRANCISCO PEREIRA NETO           RUA YZ 2 LT 7,8,9 QDRA 27 B/ JD ANHANGA DUQUE DE CAX25036290DUQUE DE CAXIASRJUNIAO UMB DOS CULTOS AFRO BRAS    30081810 000028
10231987175000168916200163100    000019308                    000193080000000000000109                     I0219308     30081800000000035003410000017N070518104700000000000103008180000000000000000000000000000000000000000100086919105772FLAVIO DA SILVA BARBOSA                 ESTRADA DO QUAFA, 678 RUA B LOTE 43     SANTISSIMO -23098030RIO DE JANEIRO RJUNIAO UMB DOS CULTOS AFRO BRAS    30081810 000029
10231987175000168916200163100    000019197                    000191970000000000000109                     I0219197     30071800000000035003410000017N070518104700000000000103007180000000000000000000000000000000000000000100005933193704ANA PAULA DA SILVA SANTOS               RUA: APIACA                             JARDIM BARRO25267290DUQUE DE CAXIASRJUNIAO UMB DOS CULTOS AFRO BRAS    30071810 000030
10231987175000168916200163100    000019087                    000190870000000000000109                     I0219087     30071800000000035003410000017N070518104700000000000103007180000000000000000000000000000000000000000100079882749704IRIS BRASILINO VILELA                   RUA DONA ALZIRA                         FIGUEIRA II 26022202NOVA IGUACU    RJUNIAO UMB DOS CULTOS AFRO BRAS    30071810 000031
10231987175000168916200163100    000018937                    000189370000000000000109                     I0218937     30071800000000035003410000017N070518104700000000000103007180000000000000000000000000000000000000000100007726251743ROSANGELA IZAURINA DOS SANTOS           RUA ESPERANCA                           TIRADENTES  11111111NOVA IGUACU    RJUNIAO UMB DOS CULTOS AFRO BRAS    30071810 000032
10231987175000168916200163100    000018807                    000188070000000000000109                     I3418807     30071800000000035003410000017N070518104700000000000103007180000000000000000000000000000000000000000100003003808789ADRIANA LUCIANA DA SILVA                AVENIDA VICENTE DE CARVALHO, 1086, RUA AVICENTE DE C21210024RIO DE JANEIRO RJUNIAO UMB DOS CULTOS AFRO BRAS    30071810 000033
10231987175000168916200163100    000018770                    000187700000000000000109                     I3418770     30071800000000035003410000017N070518104700000000000103007180000000000000000000000000000000000000000100093265042715CARMEN MESQUITA CAMILLO DA SIL          RUA RAUL PEDERNEIRAS, 261               BANGU - RIO 21860210RIO DE JANEIRO RJUNIAO UMB DOS CULTOS AFRO BRAS    30071810 000034
10231987175000168916200163100    000018752                    000187520000000000000109                     I0218752     30071800000000035003410000017N070518104700000000000103007180000000000000000000000000000000000000000100007228447786JEFFERSON CACADOR DE LIMA               ESTRADA DO TINDIBA N 744                TAQUARA - RI22740360RIO DE JANEIRO RJUNIAO UMB DOS CULTOS AFRO BRAS    30071810 000035
10231987175000168916200163100    000018662                    000186620000000000000109                     I3418662     30071800000000035003410000017N070518104700000000000103007180000000000000000000000000000000000000000100011790209790NOILDA SANTIAGO DA SILVA                RUA ADRIANA N 203 FUNDOS                VALVERDE - N26290645NOVA IGUACU    RJUNIAO UMB DOS CULTOS AFRO BRAS    30071810 000036
10231987175000168916200163100    000018519                    000185190000000000000109                     I3418519     30071800000000035003410000017N070518104700000000000103007180000000000000000000000000000000000000000100059841672715MONICA TARDELLE                         RUA: EUBANQUE                           ENGENHO DA R20766600RIO DE JANEIRO RJUNIAO UMB DOS CULTOS AFRO BRAS    30071810 000037
10231987175000168916200163100    000018367                    000183670000000000000109                     I3418367     30071800000000035003410000017N070518104700000000000103007180000000000000000000000000000000000000000100071360573704GREICE DE SOUZA MILHAR DA SILV          RUA BARAO SAO FRANCISCO                 VILA ISABEL 20541372RIO DE JANEIRO RJUNIAO UMB DOS CULTOS AFRO BRAS    30071810 000038
10231987175000168916200163100    000018364                    000183640000000000000109                     I0218364     30071800000000035003410000017N070518104700000000000103007180000000000000000000000000000000000000000100008184015755ELIZABETH DE SOUZA                      RUA MERCURIO, 36 CASA 3 FUNDOS          SANTA TEREZI26553260MESQUITA       RJUNIAO UMB DOS CULTOS AFRO BRAS    30071810 000039
10231987175000168916200163100    000018320                    000183200000000000000109                     I3418320     30071800000000035003410000017N070518104700000000000103007180000000000000000000000000000000000000000100004462221788ALEXANDRO JULIO DE SOUZA                RUA CORURIPE, 410                       MARECHAL HER21555490RIO DE JANEIRO RJUNIAO UMB DOS CULTOS AFRO BRAS    30071810 000040
10231987175000168916200163100    000018306                    000183060000000000000109                     I3418306     30071800000000035003410000017N070518104700000000000103007180000000000000000000000000000000000000000100096270500753REINALDO MONTEIRO                       RUA SEBASTIAO DRUMOND 230               ANCHIETA    21640360RIO DE JANEIRO RJUNIAO UMB DOS CULTOS AFRO BRAS    30071810 000041
10231987175000168916200163100    000018305                    000183050000000000000109                     I3418305     30071800000000035003410000017N070518104700000000000103007180000000000000000000000000000000000000000100067293816715SCHEYLA ARNALDO                         RUA PRAIA DA FERRADURA                  CAMINHO DE B28900000RIO DE JANEIRO RJUNIAO UMB DOS CULTOS AFRO BRAS    30071810 000042
10231987175000168916200163100    000018121                    000181210000000000000109                     I3418121     30071800000000035003410000017N070518104700000000000103007180000000000000000000000000000000000000000100062792920700LUIZ CESAR DE OLIVEIRA                  RUA PEREIRA DE FIGUEIREDO, 627          OSWALDO CRUZ21340030RIO DE JANEIRO RJUNIAO UMB DOS CULTOS AFRO BRAS    30071810 000043
10231987175000168916200163100    000018045                    000180450000000000000109                     I0218045     30071800000000035003410000017N070518104700000000000103007180000000000000000000000000000000000000000100079469825772VICTOR FRANCISCO PEREIRA NETO           RUA YZ 2 LT 7,8,9 QDRA 27 B/ JD ANHANGA DUQUE DE CAX25036290DUQUE DE CAXIASRJUNIAO UMB DOS CULTOS AFRO BRAS    30071810 000044
10231987175000168916200163100    000017865                    000178650000000000000109                     I3417865     30071800000000035003410000017N070518104700000000000103007180000000000000000000000000000000000000000100005556657718EDUARDO DE OLIVEIRA SILVA               AV. GETULIO DE MOURA LOTE 9 QUADRA 1    A.PORTO / S.25520660SAO JOAO DE MERRJUNIAO UMB DOS CULTOS AFRO BRAS    30071810 000045
10231987175000168916200163100    000017757                    000177570000000000000109                     I3417757     30071800000000035003410000017N070518104700000000000103007180000000000000000000000000000000000000000100043082033768LEILA RAMOS DE OLIVEIRA                 RUA CAPIBARIBE, 361                     CABUCU - NOV26346290NOVA IGUACU    RJUNIAO UMB DOS CULTOS AFRO BRAS    30071810 000046
10231987175000168916200163100    000017738                    000177380000000000000109                     I0217738     30071800000000035003410000017N070518104700000000000103007180000000000000000000000000000000000000000100086919105772FLAVIO DA SILVA BARBOSA                 ESTRADA DO QUAFA, 678 RUA B LOTE 43     SANTISSIMO -23098030RIO DE JANEIRO RJUNIAO UMB DOS CULTOS AFRO BRAS    30071810 000047
10231987175000168916200163100    000015747                    000157470000000000000109                     I0215747     30061800000000035003410000017N070518104700000000000103006180000000000000000000000000000000000000000100007726251743ROSANGELA IZAURINA DOS SANTOS           RUA ESPERANCA                           TIRADENTES  11111111NOVA IGUACU    RJUNIAO UMB DOS CULTOS AFRO BRAS    30061810 000048
10231987175000168916200163100    000015617                    000156170000000000000109                     I3415617     30061800000000035003410000017N070518104700000000000103006180000000000000000000000000000000000000000100003003808789ADRIANA LUCIANA DA SILVA                AVENIDA VICENTE DE CARVALHO, 1086, RUA AVICENTE DE C21210024RIO DE JANEIRO RJUNIAO UMB DOS CULTOS AFRO BRAS    30061810 000049
10231987175000168916200163100    000015580                    000155800000000000000109                     I3415580     30061800000000035003410000017N070518104700000000000103006180000000000000000000000000000000000000000100093265042715CARMEN MESQUITA CAMILLO DA SIL          RUA RAUL PEDERNEIRAS, 261               BANGU - RIO 21860210RIO DE JANEIRO RJUNIAO UMB DOS CULTOS AFRO BRAS    30061810 000050
10231987175000168916200163100    000015562                    000155620000000000000109                     I0215562     30061800000000035003410000017N070518104700000000000103006180000000000000000000000000000000000000000100007228447786JEFFERSON CACADOR DE LIMA               ESTRADA DO TINDIBA N 744                TAQUARA - RI22740360RIO DE JANEIRO RJUNIAO UMB DOS CULTOS AFRO BRAS    30061810 000051
10231987175000168916200163100    000015398                    000153980000000000000109                     I0215398     30061800000000035003410000017N070518104700000000000103006180000000000000000000000000000000000000000100007986589752LEANDRO DOS SANTOS RODRIGUES            AVENIDA GASPAR DE LEMOS, 13             ILHA DE GUAR23020230RIO DE JANEIRO RJUNIAO UMB DOS CULTOS AFRO BRAS    30061810 000052
10231987175000168916200163100    000015329                    000153290000000000000109                     I3415329     30061800000000035003410000017N070518104700000000000103006180000000000000000000000000000000000000000100059841672715MONICA TARDELLE                         RUA: EUBANQUE                           ENGENHO DA R20766600RIO DE JANEIRO RJUNIAO UMB DOS CULTOS AFRO BRAS    30061810 000053
10231987175000168916200163100    000015178                    000151780000000000000109                     I3415178     30061800000000035003410000017N070518104700000000000103006180000000000000000000000000000000000000000100071360573704GREICE DE SOUZA MILHAR DA SILV          RUA BARAO SAO FRANCISCO                 VILA ISABEL 20541372RIO DE JANEIRO RJUNIAO UMB DOS CULTOS AFRO BRAS    30061810 000054
10231987175000168916200163100    000015131                    000151310000000000000109                     I3415131     30061800000000035003410000017N070518104700000000000103006180000000000000000000000000000000000000000100004462221788ALEXANDRO JULIO DE SOUZA                RUA CORURIPE, 410                       MARECHAL HER21555490RIO DE JANEIRO RJUNIAO UMB DOS CULTOS AFRO BRAS    30061810 000055
10231987175000168916200163100    000015116                    000151160000000000000109                     I3415116     30061800000000035003410000017N070518104700000000000103006180000000000000000000000000000000000000000100067293816715SCHEYLA ARNALDO                         RUA PRAIA DA FERRADURA                  CAMINHO DE B28900000RIO DE JANEIRO RJUNIAO UMB DOS CULTOS AFRO BRAS    30061810 000056
10231987175000168916200163100    000015105                    000151050000000000000109                     I3415105     30061800000000035003410000017N070518104700000000000103006180000000000000000000000000000000000000000100007609502707WALDENILSON DUARTE DOS SANTOS           RUA ITABAIANA 93 FDS QD 113 LT 19       CABUCU - NOV26355500RIO DE JANEIRO RJUNIAO UMB DOS CULTOS AFRO BRAS    30061810 000057
10231987175000168916200163100    000014919                    000149190000000000000109                     I3414919     30061800000000035003410000017N070518104700000000000103006180000000000000000000000000000000000000000100064949559753CREUZA LEAL COIMBRA                     O MESMO                                 O MESMO     25570393SAO JOAO DE MERRJUNIAO UMB DOS CULTOS AFRO BRAS    30061810 000058
10231987175000168916200163100    000014856                    000148560000000000000109                     I0214856     30061800000000035003410000017N070518104700000000000103006180000000000000000000000000000000000000000100079469825772VICTOR FRANCISCO PEREIRA NETO           RUA YZ 2 LT 7,8,9 QDRA 27 B/ JD ANHANGA DUQUE DE CAX25036290DUQUE DE CAXIASRJUNIAO UMB DOS CULTOS AFRO BRAS    30061810 000059
10231987175000168916200163100    000014855                    000148550000000000000109                     I0214855     30061800000000035003410000017N070518104700000000000103006180000000000000000000000000000000000000000100007474273721CLARINDO DE MEDEIROS                    RUA SAO MARCOS, 145A                    VILAR DOS TE25561220SAO JOAO DE MERRJUNIAO UMB DOS CULTOS AFRO BRAS    30061810 000060
10231987175000168916200163100    000014549                    000145490000000000000109                     I0214549     30061800000000035003410000017N070518104700000000000103006180000000000000000000000000000000000000000100086919105772FLAVIO DA SILVA BARBOSA                 ESTRADA DO QUAFA, 678 RUA B LOTE 43     SANTISSIMO -23098030RIO DE JANEIRO RJUNIAO UMB DOS CULTOS AFRO BRAS    30061810 000061
10231987175000168916200163100    000014089                    000140890000000000000109                     I0214089     30051800000000035003410000017N270218104700000000000103005180000000000000000000000000000000000000000100007726251743ROSANGELA IZAURINA DOS SANTOS           RUA ESPERANCA                           TIRADENTES  11111111NOVA IGUACU    RJUNIAO UMB DOS CULTOS AFRO BRAS    30051810 000062
10231987175000168916200163100    000014088                    000140880000000000000109                     I0214088     30041800000000035003410000017N270218104700000000000103004180000000000000000000000000000000000000000100007726251743ROSANGELA IZAURINA DOS SANTOS           RUA ESPERANCA                           TIRADENTES  11111111NOVA IGUACU    RJUNIAO UMB DOS CULTOS AFRO BRAS    30041810 000063
9                                                                                                                                                                                                                                                                                                                                                                                                         000064
