01REMESSA01COBRANCA       916200163100        União Umb dos Cultos Afro Bra341BANCO ITAU SA  040118                                                                                                                                                                                                                                                                                                      000001
10231987175000168916200163100    00008667                     000086670000000000000109                     I018667      31011800000000035003410000017N020118050900000000000103101180000000000000000000000000000000000000000100009237411782RODRIGO NOGUEIRA MARTINS                RUA DOUTOR AUGUSTO FIGUEIREDO, 298      BANGU - RJ  21840600RIO DE JANEIRO RJUNIAO UMB DOS CULTOS AFRO BRAS    31011810 000002
10231987175000168916200163100    00008666                     000086660000000000000109                     I018666      31011800000000035003410000017N020118050900000000000103101180000000000000000000000000000000000000000100007965913771ANDREA CARLA FREITAS E SILVA            RUA SAO MARCOS, 23 QUADRA 25            KM 32 - NOVA26298548NOVA IGUACU    RJUNIAO UMB DOS CULTOS AFRO BRAS    31011810 000003
10231987175000168916200163100    00008665                     000086650000000000000109                     I018665      31011800000000035003410000017N020118050900000000000103101180000000000000000000000000000000000000000100004746270716ANTONIO CARLOS FERNANDES                RUA FRANCISCO DE CASTRO, 9 CASA 1       SANTA TERESA20241300RIO DE JANEIRO RJUNIAO UMB DOS CULTOS AFRO BRAS    31011810 000004
10231987175000168916200163100    00008661                     000086610000000000000109                     I018661      31011800000000035003410000017N020118050900000000000103101180000000000000000000000000000000000000000100009070035758LILIAN DUARTE COSTA                     RUA DELFIM MOREIRA, 2397                VALE PARAISO25976016TERESOPOLIS    RJUNIAO UMB DOS CULTOS AFRO BRAS    31011810 000005
10231987175000168916200163100    00008660                     000086600000000000000109                     I018660      31011800000000035003410000017N020118050900000000000103101180000000000000000000000000000000000000000100001071031767NEIDE MARIA VIANA SOUZA                 RUA VINTE E UM, LOTE 7 QUADRA 42        SAO CAMPELO 23830000RIO DE JANEIRO RJUNIAO UMB DOS CULTOS AFRO BRAS    31011810 000006
10231987175000168916200163100    00008659                     000086590000000000000109                     I018659      31011800000000035003410000017N020118050900000000000103101180000000000000000000000000000000000000000100001220001708ANDRE AMERICO DA SILVA                  RUA LARGO DO BOIADEIRO DA ROCINHA, 11   ROCINHA - RI22451340RIO DE JANEIRO RJUNIAO UMB DOS CULTOS AFRO BRAS    31011810 000007
10231987175000168916200163100    00008658                     000086580000000000000109                     I018658      31011800000000035003410000017N020118050900000000000103101180000000000000000000000000000000000000000100059555815704PAULO FERNANDES                         RUA MONTE CARMELO 351                   BENTO RIBERI21555120RIO DE JANEIRO RJUNIAO UMB DOS CULTOS AFRO BRAS    31011810 000008
10231987175000168916200163100    00008657                     000086570000000000000109                     I018657      31011800000000035003410000017N020118050900000000000103101180000000000000000000000000000000000000000100060296836168ALEXANDRE MONTEIRO DA ROSA              MONTE CASTELO Nº 143 - CORONEL VEIGA   ILHA        25655500PETROPOLIS     RJUNIAO UMB DOS CULTOS AFRO BRAS    31011810 000009
10231987175000168916200163100    00008654                     000086540000000000000109                     I018654      31011800000000035003410000017N020118050900000000000103101180000000000000000000000000000000000000000100001680132741SANDRA NOGUEIRA DE BRITO                RUA BARATA RIBEIRO 726 APT 602          COPACABANA -22051000RIO DE JANEIRO RJUNIAO UMB DOS CULTOS AFRO BRAS    31011810 000010
10231987175000168916200163100    00008653                     000086530000000000000109                     I018653      31011800000000035003410000017N020118050900000000000103101180000000000000000000000000000000000000000100070614628768CREUZA GOMES DA ROCHA                   RUA ITAPERA, 286 BLOCO 31 APTO 102      VISTA ALEGRE21230500RIO DE JANEIRO RJUNIAO UMB DOS CULTOS AFRO BRAS    31011810 000011
9                                                                                                                                                                                                                                                                                                                                                                                                         000012
