01REMESSA01COBRANCA       916200163100        União Umb dos Cultos Afro Bra341BANCO ITAU SA  040719                                                                                                                                                                                                                                                                                                      000001
10231987175000168916200163100    000049872                    000498720000000000000109                     I0149872     02081900000000120003410000017N040719105700000000000400208190000000000000000000000000000000000000000100066198402720JORGE LUCIO                             AVENIDA DOS ITALIANOS N 936, BLOCO A   AROCHA MIRAND21510104RIO DE JANEIRO RJUNIAO UMB DOS CULTOS AFRO BRAS    02081915 000002
21020820190000000000240                                                                                                                                                                                                                                                                                                                                                                                   000003
10231987175000168916200163100    000049871                    000498710000000000000109                     I0149871     30091900000000040003410000017N040719105700000000000133009190000000000000000000000000000000000000000100040539911704VERA LUCIA MAXIMO MELLO                 RUA SANANDUVAN 200,                     CAMPO GRANDE23016310RIO DE JANEIRO RJUNIAO UMB DOS CULTOS AFRO BRAS    30091915 000004
21300920190000000000080                                                                                                                                                                                                                                                                                                                                                                                   000005
10231987175000168916200163100    000049870                    000498700000000000000109                     I0149870     30081900000000040003410000017N040719105700000000000133008190000000000000000000000000000000000000000100040539911704VERA LUCIA MAXIMO MELLO                 RUA SANANDUVAN 200,                     CAMPO GRANDE23016310RIO DE JANEIRO RJUNIAO UMB DOS CULTOS AFRO BRAS    30081915 000006
21300820190000000000080                                                                                                                                                                                                                                                                                                                                                                                   000007
10231987175000168916200163100    000049869                    000498690000000000000109                     I0149869     30091900000000040003410000017N040719105700000000000133009190000000000000000000000000000000000000000100009035933788KARINA MOTA DE ASSIS GIL DOS S          RUA DOS MACACOSN 0, - TRAVESSA I CASA 4 UNAMAR (TAMO28928176CABO FRIO      RJUNIAO UMB DOS CULTOS AFRO BRAS    30091915 000008
21300920190000000000080                                                                                                                                                                                                                                                                                                                                                                                   000009
10231987175000168916200163100    000049868                    000498680000000000000109                     I0149868     30081900000000040003410000017N040719105700000000000133008190000000000000000000000000000000000000000100009035933788KARINA MOTA DE ASSIS GIL DOS S          RUA DOS MACACOSN 0, - TRAVESSA I CASA 4 UNAMAR (TAMO28928176CABO FRIO      RJUNIAO UMB DOS CULTOS AFRO BRAS    30081915 000010
21300820190000000000080                                                                                                                                                                                                                                                                                                                                                                                   000011
10231987175000168916200163100    000049867                    000498670000000000000109                     I0149867     31071900000000040003410000017N040719105700000000000133107190000000000000000000000000000000000000000100009035933788KARINA MOTA DE ASSIS GIL DOS S          RUA DOS MACACOSN 0, - TRAVESSA I CASA 4 UNAMAR (TAMO28928176CABO FRIO      RJUNIAO UMB DOS CULTOS AFRO BRAS    31071915 000012
21310720190000000000080                                                                                                                                                                                                                                                                                                                                                                                   000013
10231987175000168916200163100    000049738                    000497380000000000000109                     I3449738     10071900000000240003410000017N150619105700000000000791007190000000000000000000000000000000000000000100007373169775CAROLINA ALVES CARLOS                   RUA CLOVIS BEVILACQUAN 0, LOTE 1 QUADRA PARQUE ESTRE25075990DUQUE DE CAXIASRJUNIAO UMB DOS CULTOS AFRO BRAS    10071915 000014
21100720190000000000480                                                                                                                                                                                                                                                                                                                                                                                   000015
10231987175000168916200163100    000044643                    000446430000000000000109                     I0244643     30061900000000040003410000017N130319105700000000000133006190000000000000000000000000000000000000000100008722484701ANA PAULA SILVA DA CRUZ                 RUA: ELVIRA DA FONSECAN 261,            LARGO DO TAN22733150RIO DE JANEIRO RJUNIAO UMB DOS CULTOS AFRO BRAS    30061915 000016
21300620190000000000080                                                                                                                                                                                                                                                                                                                                                                                   000017
10231987175000168916200163100    000044198                    000441980000000000000109                     I0244198     30061900000000040003410000017N130319105700000000000133006190000000000000000000000000000000000000000100008705745748JUCILIANDRO DA CONCEICAO SANTO          LADEIRA SOUSA DOCAN 113,                RIO COMPRIDO20261260RIO DE JANEIRO RJUNIAO UMB DOS CULTOS AFRO BRAS    30061915 000018
21300620190000000000080                                                                                                                                                                                                                                                                                                                                                                                   000019
10231987175000168916200163100    000043894                    000438940000000000000109                     I0243894     30061900000000040003410000017N130319105700000000000133006190000000000000000000000000000000000000000100049007050710AMAURI PAULO RAMOS                      RUA SOMBREIROSN 361,                    VILA IGUACUA26050830NOVA IGUACU    RJUNIAO UMB DOS CULTOS AFRO BRAS    30061915 000020
21300620190000000000080                                                                                                                                                                                                                                                                                                                                                                                   000021
10231987175000168916200163100    000043311                    000433110000000000000109                     I0243311     30061900000000040003410000017N130319105700000000000133006190000000000000000000000000000000000000000100069391513700JOSE ROMERO LEITE MARTINS               RUA ALCOBACAN 1345, CASA 1              ANCHIETA    21645001RIO DE JANEIRO RJUNIAO UMB DOS CULTOS AFRO BRAS    30061915 000022
21300620190000000000080                                                                                                                                                                                                                                                                                                                                                                                   000023
10231987175000168916200163100    000043197                    000431970000000000000109                     I0243197     30061900000000040003410000017N130319105700000000000133006190000000000000000000000000000000000000000100048685917700CELIO DO NASCIMENTO                     RUA DO CATETEN 123, CASA 4 APT 101      CATETE      22220000RIO DE JANEIRO RJUNIAO UMB DOS CULTOS AFRO BRAS    30061915 000024
21300620190000000000080                                                                                                                                                                                                                                                                                                                                                                                   000025
10231987175000168916200163100    000042552                    000425520000000000000109                     I0242552     30051900000000040003410000017N130319105700000000000133005190000000000000000000000000000000000000000100008705745748JUCILIANDRO DA CONCEICAO SANTO          LADEIRA SOUSA DOCAN 113,                RIO COMPRIDO20261260RIO DE JANEIRO RJUNIAO UMB DOS CULTOS AFRO BRAS    30051915 000026
21300520190000000000080                                                                                                                                                                                                                                                                                                                                                                                   000027
10231987175000168916200163100    000042249                    000422490000000000000109                     I0242249     30051900000000040003410000017N130319105700000000000133005190000000000000000000000000000000000000000100049007050710AMAURI PAULO RAMOS                      RUA SOMBREIROSN 361,                    VILA IGUACUA26050830NOVA IGUACU    RJUNIAO UMB DOS CULTOS AFRO BRAS    30051915 000028
21300520190000000000080                                                                                                                                                                                                                                                                                                                                                                                   000029
10231987175000168916200163100    000041671                    000416710000000000000109                     I0241671     30051900000000040003410000017N130319105700000000000133005190000000000000000000000000000000000000000100069391513700JOSE ROMERO LEITE MARTINS               RUA ALCOBACAN 1345, CASA 1              ANCHIETA    21645001RIO DE JANEIRO RJUNIAO UMB DOS CULTOS AFRO BRAS    30051915 000030
21300520190000000000080                                                                                                                                                                                                                                                                                                                                                                                   000031
10231987175000168916200163100    000041557                    000415570000000000000109                     I0241557     30051900000000040003410000017N130319105700000000000133005190000000000000000000000000000000000000000100048685917700CELIO DO NASCIMENTO                     RUA DO CATETEN 123, CASA 4 APT 101      CATETE      22220000RIO DE JANEIRO RJUNIAO UMB DOS CULTOS AFRO BRAS    30051915 000032
21300520190000000000080                                                                                                                                                                                                                                                                                                                                                                                   000033
10231987175000168916200163100    000040039                    000400390000000000000109                     I0240039     30041900000000040003410000017N120319105700000000000133004190000000000000000000000000000000000000000100069391513700JOSE ROMERO LEITE MARTINS               RUA ALCOBACAN 1345, CASA 1              ANCHIETA    21645001RIO DE JANEIRO RJUNIAO UMB DOS CULTOS AFRO BRAS    30041915 000034
21300420190000000000080                                                                                                                                                                                                                                                                                                                                                                                   000035
9                                                                                                                                                                                                                                                                                                                                                                                                         000036
