01REMESSA01COBRANCA       817800093673        União Umb dos Cultos Afro Bra341BANCO ITAU SA  160119                                                                                                                                                                                                                                                                                                      000001
10231987175000168817800093673    000039583                    000395830000000000000109                     I0139583     31031900000000040003410000017N160119104700000000000103103190000000000000000000000000000000000000000100073446416749MARIA DAS GRACAS DE SOUZA LEAO          RUA ANA CARLA                           JARDIM PALMA26277475RIO DE JANEIRO RJUNIAO UMB DOS CULTOS AFRO BRAS    31031910 000002
10231987175000168817800093673    000039582                    000395820000000000000109                     I0139582     28021900000000040003410000017N160119104700000000000102802190000000000000000000000000000000000000000100073446416749MARIA DAS GRACAS DE SOUZA LEAO          RUA ANA CARLA                           JARDIM PALMA26277475RIO DE JANEIRO RJUNIAO UMB DOS CULTOS AFRO BRAS    28021910 000003
10231987175000168817800093673    000039581                    000395810000000000000109                     I0139581     18011900000000350003410000017N160119104700000000000101801190000000000000000000000000000000000000000100080252540700GEORGET MARIA CONCEICAO DE OLI          ESTRADA: DO PAU DA FOME                 TAQUARA     22723497RIO DE JANEIRO RJUNIAO UMB DOS CULTOS AFRO BRAS    18011910 000004
10231987175000168817800093673    000039580                    000395800000000000000109                     I0139580     31011900000000100003410000017N160119104700000000000103101190000000000000000000000000000000000000000100002965368736REGINA CONCEICAO                        AVENIDA BOQUEIRAO                       BOA VISTA   28680000CACHOEIRA DE MARJUNIAO UMB DOS CULTOS AFRO BRAS    31011910 000005
10231987175000168817800093673    000039158                    000391580000000000000109                     I0239158     30031900000000040003410000017N261218104700000000000103003190000000000000000000000000000000000000000100011549239759RENATA DE OLIVEIRA GASPAR               RUA GUANABARA                           MADUREIRA   21350230RIO DE JANEIRO RJUNIAO UMB DOS CULTOS AFRO BRAS    30031910 000006
10231987175000168817800093673    000037701                    000377010000000000000109                     I0137701     30031900000000025003410000017N261218104700000000000103003190000000000000000000000000000000000000000100051238489753NANCY DA SILVA APOLINARIO TEIX          RUA VIDAL DE NEGREIROS                  SANTO CRISTO20220770RIO DE JANEIRO RJUNIAO UMB DOS CULTOS AFRO BRAS    30031910 000007
10231987175000168817800093673    000037239                    000372390000000000000109                     I0237239     28021900000000040003410000017N261218104700000000000102802190000000000000000000000000000000000000000100011549239759RENATA DE OLIVEIRA GASPAR               RUA GUANABARA                           MADUREIRA   21350230RIO DE JANEIRO RJUNIAO UMB DOS CULTOS AFRO BRAS    28021910 000008
10231987175000168817800093673    000035788                    000357880000000000000109                     I0135788     28021900000000025003410000017N261218104700000000000102802190000000000000000000000000000000000000000100051238489753NANCY DA SILVA APOLINARIO TEIX          RUA VIDAL DE NEGREIROS                  SANTO CRISTO20220770RIO DE JANEIRO RJUNIAO UMB DOS CULTOS AFRO BRAS    28021910 000009
10231987175000168817800093673    000035327                    000353270000000000000109                     I0235327     31011900000000040003410000017N261218104700000000000103101190000000000000000000000000000000000000000100011549239759RENATA DE OLIVEIRA GASPAR               RUA GUANABARA                           MADUREIRA   21350230RIO DE JANEIRO RJUNIAO UMB DOS CULTOS AFRO BRAS    31011910 000010
10231987175000168817800093673    000034971                    000349710000000000000109                     I0234971     31011900000000040003410000017N261218104700000000000103101190000000000000000000000000000000000000000100002912143713JANAINA PACHECO PINHEIRO                RUA LEMOS BRITO                         QUINTINO BOC21311380RIO DE JANEIRO RJUNIAO UMB DOS CULTOS AFRO BRAS    31011910 000011
10231987175000168817800093673    000034429                    000344290000000000000109                     I0234429     31011900000000040003410000017N261218104700000000000103101190000000000000000000000000000000000000000100000308305752MAGDA LEOPOLDINA DA SILVA               ESTRADA DO CASOROTIBA, RUA G N 768 (CONDINOA        24900000RIO DE JANEIRO RJUNIAO UMB DOS CULTOS AFRO BRAS    31011910 000012
10231987175000168817800093673    000034419                    000344190000000000000109                     I0234419     31011900000000040003410000017N261218104700000000000103101190000000000000000000000000000000000000000100033205094700IRACEMA PAZ DA MOTTA                    RUA CARDOSO QUINTAO                     PIDEDADE    21381460RIO DE JANEIRO RJUNIAO UMB DOS CULTOS AFRO BRAS    31011910 000013
10231987175000168817800093673    000034266                    000342660000000000000109                     I0234266     31011900000000040003410000017N261218104700000000000103101190000000000000000000000000000000000000000100034371990720MARILDA CONCEICAO SILVEIRA DA           RUA: MARAJA                             AREIA BRANCA26135240BELFORD ROXO   RJUNIAO UMB DOS CULTOS AFRO BRAS    31011910 000014
10231987175000168817800093673    000033886                    000338860000000000000109                     I0133886     31011900000000025003410000017N261218104700000000000103101190000000000000000000000000000000000000000100051238489753NANCY DA SILVA APOLINARIO TEIX          RUA VIDAL DE NEGREIROS                  SANTO CRISTO20220770RIO DE JANEIRO RJUNIAO UMB DOS CULTOS AFRO BRAS    31011910 000015
10231987175000168817800093673    000033507                    000335070000000000000109                     I0233507     10121800000000100003410000017N021218104700000000000101012180000000000000000000000000000000000000000100000308305752MAGDA LEOPOLDINA DA SILVA               ESTRADA DO CASOROTIBA, RUA G N 768 (CONDINOA        24900000RIO DE JANEIRO RJUNIAO UMB DOS CULTOS AFRO BRAS    10121810 000016
10231987175000168817800093673    000033411                    000334110000000000000109                     I0233411     20121800000000350003410000017N131118104700000000000102012180000000000000000000000000000000000000000100034371990720MARILDA CONCEICAO SILVEIRA DA           RUA: MARAJA                             AREIA BRANCA26135240BELFORD ROXO   RJUNIAO UMB DOS CULTOS AFRO BRAS    20121810 000017
10231987175000168817800093673    000033410                    000334100000000000000109                     I0233410     20121800000000035003410000017N131118104700000000000102012180000000000000000000000000000000000000000100034371990720MARILDA CONCEICAO SILVEIRA DA           RUA: MARAJA                             AREIA BRANCA26135240BELFORD ROXO   RJUNIAO UMB DOS CULTOS AFRO BRAS    20121810 000018
10231987175000168817800093673    000033251                    000332510000000000000109                     I0233251     20121800000000400003410000017N291018104700000000000102012180000000000000000000000000000000000000000100053177827753CREUZA FREITAS DOS SANTOS               RUA HERMES DA SILVA                     SANTA CRUZ  23550155RIO DE JANEIRO RJUNIAO UMB DOS CULTOS AFRO BRAS    20121810 000019
10231987175000168817800093673    000033085                    000330850000000000000109                     I0233085     20121800000000350003410000017N291018104700000000000102012180000000000000000000000000000000000000000100011549239759RENATA DE OLIVEIRA GASPAR               RUA GUANABARA                           MADUREIRA   21350230RIO DE JANEIRO RJUNIAO UMB DOS CULTOS AFRO BRAS    20121810 000020
10231987175000168817800093673    000033063                    000330630000000000000109                     I0133063     25011900000000400003410000017N291018104700000000000102501190000000000000000000000000000000000000000100007299785757EDSON NUNES DE SOUZA FILHO              AVENIDA GOUVEIA                         VILA LAGE - 24415050SAO GONCALO    RJUNIAO UMB DOS CULTOS AFRO BRAS    25011910 000021
10231987175000168817800093673    000033026                    000330260000000000000109                     I0233026     20121800000000350003410000017N291018104700000000000102012180000000000000000000000000000000000000000100009416663794IGOR DO NASCIMENTO RODRIGUES            RUA FIGUEIREDO ROCHA                    VIGARIO GERA21240660RIO DE JANEIRO RJUNIAO UMB DOS CULTOS AFRO BRAS    20121810 000022
10231987175000168817800093673    000032536                    000325360000000000000109                     I0232536     20121800000000350003410000017N291018104700000000000102012180000000000000000000000000000000000000000100002912143713JANAINA PACHECO PINHEIRO                RUA LEMOS BRITO                         QUINTINO BOC21311380RIO DE JANEIRO RJUNIAO UMB DOS CULTOS AFRO BRAS    20121810 000023
10231987175000168817800093673    000032265                    000322650000000000000109                     I0232265     20121800000000350003410000017N291018104700000000000102012180000000000000000000000000000000000000000100080252540700GEORGET MARIA CONCEICAO DE OLI          ESTRADA: DO PAU DA FOME                 TAQUARA     22723497RIO DE JANEIRO RJUNIAO UMB DOS CULTOS AFRO BRAS    20121810 000024
10231987175000168817800093673    000031716                    000317160000000000000109                     I0231716     20121800000000350003410000017N291018104700000000000102012180000000000000000000000000000000000000000100000308305752MAGDA LEOPOLDINA DA SILVA               ESTRADA DO CASOROTIBA, RUA G N 768 (CONDINOA        24900000RIO DE JANEIRO RJUNIAO UMB DOS CULTOS AFRO BRAS    20121810 000025
10231987175000168817800093673    000031701                    000317010000000000000109                     I0231701     20121800000000350003410000017N291018104700000000000102012180000000000000000000000000000000000000000100033205094700IRACEMA PAZ DA MOTTA                    RUA CARDOSO QUINTAO                     PIDEDADE    21381460RIO DE JANEIRO RJUNIAO UMB DOS CULTOS AFRO BRAS    20121810 000026
10231987175000168817800093673    000030748                    000307480000000000000109                     I0230748     20121800000000350003410000017N291018104700000000000102012180000000000000000000000000000000000000000100002734506700CARLOS HENRIQUE ARAUJO                  RUA: MARQUES CANARIO                    NOSSA SENHOR26520770NILOPOLIS      RJUNIAO UMB DOS CULTOS AFRO BRAS    20121810 000027
10231987175000168817800093673    000030359                    000303590000000000000109                     I0230359     20121800000000040003410000017N291018104700000000000102012180000000000000000000000000000000000000000100053177827753CREUZA FREITAS DOS SANTOS               RUA HERMES DA SILVA                     SANTA CRUZ  23550155RIO DE JANEIRO RJUNIAO UMB DOS CULTOS AFRO BRAS    20121810 000028
10231987175000168817800093673    000030223                    000302230000000000000109                     I0230223     20121800000000035003410000017N291018104700000000000102012180000000000000000000000000000000000000000100011549239759RENATA DE OLIVEIRA GASPAR               RUA GUANABARA                           MADUREIRA   21350230RIO DE JANEIRO RJUNIAO UMB DOS CULTOS AFRO BRAS    20121810 000029
10231987175000168817800093673    000030186                    000301860000000000000109                     I0230186     20121800000000035003410000017N291018104700000000000102012180000000000000000000000000000000000000000100009416663794IGOR DO NASCIMENTO RODRIGUES            RUA FIGUEIREDO ROCHA                    VIGARIO GERA21240660RIO DE JANEIRO RJUNIAO UMB DOS CULTOS AFRO BRAS    20121810 000030
10231987175000168817800093673    000029915                    000299150000000000000109                     I0229915     20121800000000035003410000017N291018104700000000000102012180000000000000000000000000000000000000000100002912143713JANAINA PACHECO PINHEIRO                RUA LEMOS BRITO                         QUINTINO BOC21311380RIO DE JANEIRO RJUNIAO UMB DOS CULTOS AFRO BRAS    20121810 000031
10231987175000168817800093673    000029532                    000295320000000000000109                     I0229532     20121800000000035003410000017N291018104700000000000102012180000000000000000000000000000000000000000100033205094700IRACEMA PAZ DA MOTTA                    RUA CARDOSO QUINTAO                     PIDEDADE    21381460RIO DE JANEIRO RJUNIAO UMB DOS CULTOS AFRO BRAS    20121810 000032
10231987175000168817800093673    000029142                    000291420000000000000109                     I0229142     20121800000000035003410000017N291018104700000000000102012180000000000000000000000000000000000000000100002734506700CARLOS HENRIQUE ARAUJO                  RUA: MARQUES CANARIO                    NOSSA SENHOR26520770NILOPOLIS      RJUNIAO UMB DOS CULTOS AFRO BRAS    20121810 000033
10231987175000168817800093673    000028483                    000284830000000000000109                     I0228483     30111800000000040003410000017N200818104700000000000103011180000000000000000000000000000000000000000100053177827753CREUZA FREITAS DOS SANTOS               RUA HERMES DA SILVA                     SANTA CRUZ  23550155RIO DE JANEIRO RJUNIAO UMB DOS CULTOS AFRO BRAS    30111810 000034
10231987175000168817800093673    000028342                    000283420000000000000109                     I0228342     30111800000000035003410000017N200818104700000000000103011180000000000000000000000000000000000000000100011549239759RENATA DE OLIVEIRA GASPAR               RUA GUANABARA                           MADUREIRA   21350230RIO DE JANEIRO RJUNIAO UMB DOS CULTOS AFRO BRAS    30111810 000035
10231987175000168817800093673    000028006                    000280060000000000000109                     I0228006     30111800000000035003410000017N200818104700000000000103011180000000000000000000000000000000000000000100002912143713JANAINA PACHECO PINHEIRO                RUA LEMOS BRITO                         QUINTINO BOC21311380RIO DE JANEIRO RJUNIAO UMB DOS CULTOS AFRO BRAS    30111810 000036
10231987175000168817800093673    000027607                    000276070000000000000109                     I0227607     30111800000000035003410000017N200818104700000000000103011180000000000000000000000000000000000000000100033205094700IRACEMA PAZ DA MOTTA                    RUA CARDOSO QUINTAO                     PIDEDADE    21381460RIO DE JANEIRO RJUNIAO UMB DOS CULTOS AFRO BRAS    30111810 000037
9                                                                                                                                                                                                                                                                                                                                                                                                         000038
