01REMESSA01COBRANCA       817800093673        União Umb dos Cultos Afro Bra341BANCO ITAU SA  181018                                                                                                                                                                                                                                                                                                      000001
10231987175000168817800093673    000028960                    000289600000000000000109                     I0128960     20121800000000035003410000017N181018104700000000000102012180000000000000000000000000000000000000000100006485913793IASMIM SANTANA DA SILVA DE OLI          ILHA DE ITACURUCA                       PRAIA GRANDE23860000RIO DE JANEIRO RJUNIAO UMB DOS CULTOS AFRO BRAS    20121810 000002
10231987175000168817800093673    000028614                    000286140000000000000109                     I0228614     10091800000000035003410000017N300818104700000000000101009180000000000000000000000000000000000000000100074624792234MARILZA COSTA FERREIRA                  RUA ANTONIO JOAO                        CORDOVIL    21250150RIO DE JANEIRO RJUNIAO UMB DOS CULTOS AFRO BRAS    10091810 000003
10231987175000168817800093673    000028611                    000286110000000000000109                     I0228611     20091800000000350003410000017N300818104700000000000102009180000000000000000000000000000000000000000100012009305760DEBORA CRISTINA DE OLIVEIRA BR          RUA LORD COCHRANE                       IBIRAPITANGA23811810ITAGUAI        RJUNIAO UMB DOS CULTOS AFRO BRAS    20091810 000004
10231987175000168817800093673    000028544                    000285440000000000000109                     I0228544     31081800000000070003410000017N230818104700000000000103108180000000000000000000000000000000000000000100001582280738NATALICIA LOPES PEREIRA                 ALAMEDA JORGINHO                        FRAGOSO     29000000MAGE           RJUNIAO UMB DOS CULTOS AFRO BRAS    31081810 000005
10231987175000168817800093673    000028508                    000285080000000000000109                     I0228508     31081800000000040003410000017N220818104700000000000103108180000000000000000000000000000000000000000100073243728720MARCOS AURELIO REIS DE CASTRO           RUA DAS ROSAS                           VILA VALQUEI21321382RIO DE JANEIRO RJUNIAO UMB DOS CULTOS AFRO BRAS    31081810 000006
10231987175000168817800093673    000028503                    000285030000000000000109                     I0228503     30081800000000480003410000017N210818104700000000000103008180000000000000000000000000000000000000000100008578432738WANDERSON DOS SANTOS LOPES              RUA SATURNO                             VILA GENI   23825517COROA GRANDE   RJUNIAO UMB DOS CULTOS AFRO BRAS    30081810 000007
10231987175000168817800093673    000028498                    000284980000000000000109                     I0228498     14091800000000120003410000017N200818104700000000000101409180000000000000000000000000000000000000000100004245613793MARIA ELENA DA SILVA SANTOS             AVENIDA ENGENHEIRO SOUSA FILHO          ITANHANGA   22753053RIO DE JANEIRO RJUNIAO UMB DOS CULTOS AFRO BRAS    14091810 000008
10231987175000168817800093673    000028497                    000284970000000000000109                     I0228497     14091800000000150003410000017N200818104700000000000101409180000000000000000000000000000000000000000100008098163776LUIS CARLOS DA ROCHA MARTINS            RUA CORONEL TITO PORTO CARREIRO         PACIENCIA   23580010RIO DE JANEIRO RJUNIAO UMB DOS CULTOS AFRO BRAS    14091810 000009
10231987175000168817800093673    000028496                    000284960000000000000109                     I0228496     14091800000000200003410000017N200818104700000000000101409180000000000000000000000000000000000000000100000559151756HENIE DA SILVA ALENCAR                  RUA ROBERTO CALDAS                      PARQUE FLUMI26187400BELFORD ROXO   RJUNIAO UMB DOS CULTOS AFRO BRAS    14091810 000010
10231987175000168817800093673    000028495                    000284950000000000000109                     I0228495     14091800000000200003410000017N200818104700000000000101409180000000000000000000000000000000000000000100003028407701MARIA MARINETE OLIVEIRA  DA SI          RUA TURIUVA                             VILA MELIPOL26150000BELFORD ROXO   RJUNIAO UMB DOS CULTOS AFRO BRAS    14091810 000011
10231987175000168817800093673    000028494                    000284940000000000000109                     I0228494     14091800000000200003410000017N200818104700000000000101409180000000000000000000000000000000000000000100000000000704CARLINDA ELIANE NUNES                   RUA: ALMIRANTE ALEXANDRINO              PARQUE LAFAI25015540DUQUE DE CAXIASRJUNIAO UMB DOS CULTOS AFRO BRAS    14091810 000012
10231987175000168817800093673    000028493                    000284930000000000000109                     I0228493     14091800000000200003410000017N200818104700000000000101409180000000000000000000000000000000000000000100000000000555OLIMPIA SOARES DE ARAUJO                RUA DEZ                                 COSMOS  - SA23067010RIO DE JANEIRO RJUNIAO UMB DOS CULTOS AFRO BRAS    14091810 000013
10231987175000168817800093673    000028492                    000284920000000000000109                     I0228492     14091800000000200003410000017N200818104700000000000101409180000000000000000000000000000000000000000100064392791734ORDALINA PEDROZO TOMAZ DE AQUI          RUA ABEL DE ALVARENGA                   CHATUBA     26246340MESQUITA       RJUNIAO UMB DOS CULTOS AFRO BRAS    14091810 000014
10231987175000168817800093673    000028491                    000284910000000000000109                     I0228491     14091800000000200003410000017N200818104700000000000101409180000000000000000000000000000000000000000100000000001253TATIANA DA SILVA SANTOS                 RUA IRACEMA                             VILA DE CAVA25065655NOVA IGUACU    RJUNIAO UMB DOS CULTOS AFRO BRAS    14091810 000015
10231987175000168817800093673    000028490                    000284900000000000000109                     I0228490     14091800000000300003410000017N200818104700000000000101409180000000000000000000000000000000000000000100000447643754JANICE LEAL CARRILHO                    RUA DOS BANCARIOS                       TRES PONTES 00000000RIO DE JANEIRO RJUNIAO UMB DOS CULTOS AFRO BRAS    14091810 000016
10231987175000168817800093673    000027021                    000270210000000000000109                     I3427021     30091800000000035003410000017N200818104700000000000103009180000000000000000000000000000000000000000100006485913793IASMIM SANTANA DA SILVA DE OLI          ILHA DE ITACURUCA                       PRAIA GRANDE23860000RIO DE JANEIRO RJUNIAO UMB DOS CULTOS AFRO BRAS    30091810 000017
10231987175000168817800093673    000025606                    000256060000000000000109                     I3425606     30101800000000035003410000017N200818104700000000000103010180000000000000000000000000000000000000000100006485913793IASMIM SANTANA DA SILVA DE OLI          ILHA DE ITACURUCA                       PRAIA GRANDE23860000RIO DE JANEIRO RJUNIAO UMB DOS CULTOS AFRO BRAS    30101810 000018
10231987175000168817800093673    000021398                    000213980000000000000109                     I0221398     30081800000000245003410000017N150818104700000000000103008180000000000000000000000000000000000000000100012663149705DIEGO PARREIRA DE ARAUJO                RUA ERMENEGILDO DE SOUZA                JARDIM SAO J23890103SEROPEDICA     RJUNIAO UMB DOS CULTOS AFRO BRAS    30081810 000019
10231987175000168817800093673    000021393                    000213930000000000000109                     I0221393     30081800000000040003410000017N140818104700000000000103008180000000000000000000000000000000000000000100066645352700NILZA BELISARIO DAMIAO                  RUA ESPERANCA                           JARDIM PARAI00000000RIO DE JANEIRO RJUNIAO UMB DOS CULTOS AFRO BRAS    30081810 000020
10231987175000168817800093673    000021391                    000213910000000000000109                     I0221391     30081800000000520003410000017N140818104700000000000103008180000000000000000000000000000000000000000100096073276753MARIA JOSE DA SILVA                     RUA MANOEL GAMA                         TOMAZINHO - 25525542SAO JOAO DE MERRJUNIAO UMB DOS CULTOS AFRO BRAS    30081810 000021
10231987175000168817800093673    000021380                    000213800000000000000109                     I0221380     30081800000000035003410000017N100818104700000000000103008180000000000000000000000000000000000000000100007281066716ZULMIRA DA SILVA RODRIGUES              RUA: BERNARDINO DE CAMPOS               OLAVO BILAC 25035530DUQUE DE CAXIASRJUNIAO UMB DOS CULTOS AFRO BRAS    30081810 000022
10231987175000168817800093673    000021379                    000213790000000000000109                     I0221379     30081800000000070003410000017N090818104700000000000103008180000000000000000000000000000000000000000100072090499753JOSEFINA PAULINA RODRIGUES              RUA JOAQUIM SOARES NETO                 NOVA AMERICA26021560NOVA IGUACU    RJUNIAO UMB DOS CULTOS AFRO BRAS    30081810 000023
10231987175000168817800093673    000021376                    000213760000000000000109                     I0221376     05091800000000234003410000017N080818104700000000000100509180000000000000000000000000000000000000000100078754143772CARMEN NAJARA BAUCE DA SILVA            RUA NOSSA SENHORA DA GUIA               JARDIM DA PA25926849TERESOPOLIS    RJUNIAO UMB DOS CULTOS AFRO BRAS    05091810 000024
10231987175000168817800093673    000021370                    000213700000000000000109                     I0221370     30081800000000210003410000017N060818104700000000000103008180000000000000000000000000000000000000000100002413896740ADRIANO CAMILO DOS SANTOS               RUA SANTA ISABEL                        PALHADA     26290102NOVA IGUACU    RJUNIAO UMB DOS CULTOS AFRO BRAS    30081810 000025
10231987175000168817800093673    000021368                    000213680000000000000109                     I0221368     30081800000000315003410000017N060818104700000000000103008180000000000000000000000000000000000000000100002413896740ADRIANO CAMILO DOS SANTOS               RUA SANTA ISABEL                        PALHADA     26290102NOVA IGUACU    RJUNIAO UMB DOS CULTOS AFRO BRAS    30081810 000026
10231987175000168817800093673    000021365                    000213650000000000000109                     I0221365     30081800000000035003410000017N030818104700000000000103008180000000000000000000000000000000000000000100000000010261CARLOS ALBERTO DE SOUZA CALDAS          RUA: DALVA DE OLIVEIRA                  LAGOINHA    26351590NOVA IGUACU    RJUNIAO UMB DOS CULTOS AFRO BRAS    30081810 000027
10231987175000168817800093673    000021363                    000213630000000000000109                     I0221363     30081800000000035003410000017N030818104700000000000103008180000000000000000000000000000000000000000100093461526720MARIELZA DE SOUZA COSTA                 RUA 55                                  NOSSA SENHOR23097230RIO DE JANEIRO RJUNIAO UMB DOS CULTOS AFRO BRAS    30081810 000028
10231987175000168817800093673    000021357                    000213570000000000000109                     I0221357     30081800000000280003410000017N010818104700000000000103008180000000000000000000000000000000000000000100005241615776SIMONE ALICE CACCAVO GRIBEL             RUA VENEZA                              PRAIA DE MAU25900000MAGE           RJUNIAO UMB DOS CULTOS AFRO BRAS    30081810 000029
10231987175000168817800093673    000021354                    000213540000000000000109                     I0221354     30081800000000140003410000017N010818104700000000000103008180000000000000000000000000000000000000000100030400942895CLAUDIA REIS SANTOS ARAUJO              RUA LUIS PASQUALLE NETO                 SAO JOAO CLI04241030SAO PAULO      SPUNIAO UMB DOS CULTOS AFRO BRAS    30081810 000030
10231987175000168817800093673    000021353                    000213530000000000000109                     I0221353     30081800000000040003410000017N010818104700000000000103008180000000000000000000000000000000000000000100007368804708CARLOS HENRIQUE DE OLIVEIRA             RUA: SESSENTA E TRES                    CAMPO GRANDE23097240RIO DE JANEIRO RJUNIAO UMB DOS CULTOS AFRO BRAS    30081810 000031
10231987175000168817800093673    000021350                    000213500000000000000109                     I0221350     30081800000000040003410000017N310718104700000000000103008180000000000000000000000000000000000000000100014328358740SILAS BARBOSA DE SOUZA                  ESTRADA REAL DE MAUA                    JARDIM DA PA25900684RIO DE JANEIRO RJUNIAO UMB DOS CULTOS AFRO BRAS    30081810 000032
10231987175000168817800093673    000021247                    000212470000000000000109                     I0221247     30081800000000040003410000017N290618104700000000000103008180000000000000000000000000000000000000000100010440702771AMANDA APARECIDA AZEVEDO CARDO          RUA IVONETE                             CONJUNTO SAN00000000RIO DE JANEIRO RJUNIAO UMB DOS CULTOS AFRO BRAS    30081810 000033
10231987175000168817800093673    000021243                    000212430000000000000109                     I0221243     30081800000000040003410000017N250618104700000000000103008180000000000000000000000000000000000000000100011709590775JOYCE MARA PINHEIRO DA SILVA            RUA SILVIO TIBIRICA                     TURIACU     21540200RIO DE JANEIRO RJUNIAO UMB DOS CULTOS AFRO BRAS    30081810 000034
10231987175000168817800093673    000021235                    000212350000000000000109                     I0221235     30081800000000035003410000017N210618104700000000000103008180000000000000000000000000000000000000000100042533686700ENEDINA MALVINA DO NASCIMENTO           RUA CASTRO MENEZES                      BRAS DE PINA21215250RIO DE JANEIRO RJUNIAO UMB DOS CULTOS AFRO BRAS    30081810 000035
10231987175000168817800093673    000021226                    000212260000000000000109                     I0221226     30081800000000035003410000017N190618104700000000000103008180000000000000000000000000000000000000000100000000011458JOSE ALFREDO BARDASSON MARQUES          TRAVESSA JOAO ROCHA                     PORTO DAS CA24830072ITABORAI       RJUNIAO UMB DOS CULTOS AFRO BRAS    30081810 000036
10231987175000168817800093673    000021196                    000211960000000000000109                     I0221196     30081800000000040003410000017N130618104700000000000103008180000000000000000000000000000000000000000100002875690710KARLA MARIA QUEIROGA MARTINS            RUA: PEREIRA DA COSTA                   MADUREIRA   21360270RIO DE JANEIRO RJUNIAO UMB DOS CULTOS AFRO BRAS    30081810 000037
10231987175000168817800093673    000021193                    000211930000000000000109                     I0221193     30081800000000035003410000017N130618104700000000000103008180000000000000000000000000000000000000000100005380679773ROBERTO DE OLIVEIRA RIBEIRO JU          RUA VINTE E TRES                        SANTA CRUZ  23500000RIO DE JANEIRO RJUNIAO UMB DOS CULTOS AFRO BRAS    30081810 000038
10231987175000168817800093673    000021188                    000211880000000000000109                     I0221188     30081800000000035003410000017N120618104700000000000103008180000000000000000000000000000000000000000100003256338780REGINALDO ROSA DA SILVA                 RUA PAULO AFONSO                        IPIRANGA ALI26293381NOVA IGUACU    RJUNIAO UMB DOS CULTOS AFRO BRAS    30081810 000039
10231987175000168817800093673    000021185                    000211850000000000000109                     I0221185     30081800000000035003410000017N120618104700000000000103008180000000000000000000000000000000000000000100004474665775REGINALDO RAMOS DA SILVA                RUA JULIO DE CASTILHOS                  JARDIM ROTSE25270210DUQUE DE CAXIASRJUNIAO UMB DOS CULTOS AFRO BRAS    30081810 000040
10231987175000168817800093673    000021173                    000211730000000000000109                     I0221173     30081800000000040003410000017N110618104700000000000103008180000000000000000000000000000000000000000100010486021769SIDNEY RODRIGUES DA SILVA JUNI          RUA DAS VIDEIRAS                        MORADA VERDE23065520PACIENCIA      RJUNIAO UMB DOS CULTOS AFRO BRAS    30081810 000041
10231987175000168817800093673    000021150                    000211500000000000000109                     I0221150     30081800000000035003410000017N050618104700000000000103008180000000000000000000000000000000000000000100004455965700MARIA DE LOURDES SOARES DA SIL          ESTRADA RJ 127                          ALTO DO CHAF26650000PAULO DE FRONTIRJUNIAO UMB DOS CULTOS AFRO BRAS    30081810 000042
10231987175000168817800093673    000020999                    000209990000000000000109                     I0220999     30081800000000035003410000017N170518104700000000000103008180000000000000000000000000000000000000000100009924715790JOSEFA MARIA DA SILVA                   TRAVESSA DOS LAVRADORES                 VILA SAO DOM26271340NOVA IGUACU    RJUNIAO UMB DOS CULTOS AFRO BRAS    30081810 000043
9                                                                                                                                                                                                                                                                                                                                                                                                         000044
