01REMESSA01COBRANCA       817800093673        União Umb dos Cultos Afro Bra341BANCO ITAU SA  060519                                                                                                                                                                                                                                                                                                      000001
10231987175000168817800093673    000045232                    000452320000000000000109                     I0145232     30061900000000040003410000017N060519105700000000000103006190000000000000000000000000000000000000000100011304690776FABIO DIAS DA SILVA                     RUA CAPITAO MACHADON 604, CASAS 2 E 3   PRACA SECA  21320030RIO DE JANEIRO RJUNIAO UMB DOS CULTOS AFRO BRAS    30061915 000002
10231987175000168817800093673    000045231                    000452310000000000000109                     I0245231     15051900000000270003410000017N060519105700000000000101505190000000000000000000000000000000000000000100011304690776FABIO DIAS DA SILVA                     RUA CAPITAO MACHADON 604, CASAS 2 E 3   PRACA SECA  21320030RIO DE JANEIRO RJUNIAO UMB DOS CULTOS AFRO BRAS    15051915 000003
10231987175000168817800093673    000045230                    000452300000000000000109                     I0245230     15051900000000270003410000017N060519105700000000000101505190000000000000000000000000000000000000000100011304690776FABIO DIAS DA SILVA                     RUA CAPITAO MACHADON 604, CASAS 2 E 3   PRACA SECA  21320030RIO DE JANEIRO RJUNIAO UMB DOS CULTOS AFRO BRAS    15051915 000004
10231987175000168817800093673    000045229                    000452290000000000000109                     I0145229     20051900000000160003410000017N060519105700000000000102005190000000000000000000000000000000000000000100080091229715MARCO ANTONIO DE OLIVEIRA TEIX          RUA: QUARENTA E UM N 0, QUADRA 47 LOTE 3JARDIM NOSSA23097260CAMPO GRANDE   RJUNIAO UMB DOS CULTOS AFRO BRAS    20051915 000005
10231987175000168817800093673    000045228                    000452280000000000000109                     I0145228     30051900000000400003410000017N060519105700000000000103005190000000000000000000000000000000000000000100035129179846MOACIR DOS SANTOS JUNIOR                RUA RENATO CAMPERONIN 305,              PARQUE DAS O14065786RIBEIRAO PRETO SPUNIAO UMB DOS CULTOS AFRO BRAS    30051915 000006
10231987175000168817800093673    000045227                    000452270000000000000109                     I0145227     30051900000000035003410000017N060519105700000000000103005190000000000000000000000000000000000000000100069085986753CARMEM PIRES DE SOUZA                   PRAIA BOTAFOGON 460, APT 1138           BOTAFOGO    22250040RIO DE JANEIRO RJUNIAO UMB DOS CULTOS AFRO BRAS    30051915 000007
10231987175000168817800093673    000045226                    000452260000000000000109                     I0145226     30051900000000400003410000017N060519105700000000000103005190000000000000000000000000000000000000000100001803265620BENEDITO QUINTINO                       RUA JOSE PARAISON 313,                  RESIDENCIAL 37136044ALFENAS        MGUNIAO UMB DOS CULTOS AFRO BRAS    30051915 000008
10231987175000168817800093673    000038055                    000380550000000000000109                     I0238055     30031900000000040003410000017N261218105700000000000103003190000000000000000000000000000000000000000217168602000155ILE AXE T OGUM XOROKE                   ESTRADA DO CAMBOATAN 2966, N 7 QUADRA C GUADALUPE   21660000RIO DE JANEIRO RJUNIAO UMB DOS CULTOS AFRO BRAS    30031915 000009
9                                                                                                                                                                                                                                                                                                                                                                                                         000010
