01REMESSA01COBRANCA       817800093673        União Umb dos Cultos Afro Bra341BANCO ITAU SA  211118                                                                                                                                                                                                                                                                                                      000001
10231987175000168817800093673    000033450                    000334500000000000000109                     I0133450     20121800000000400003410000017N211118104700000000000102012180000000000000000000000000000000000000000100000564154784RENATA FERNANDES DA COSTA MEIR          RUA QUINTAO                             QUINTINO BOC21381050RIO DE JANEIRO RJUNIAO UMB DOS CULTOS AFRO BRAS    20121810 000002
10231987175000168817800093673    000033449                    000334490000000000000109                     I0133449     20121800000000380003410000017N211118104700000000000102012180000000000000000000000000000000000000000100001510995706JUPIRA FARIAS DE MATTOS                 TRAVESSA AUGUSTO AMERICO DIAS           NEVES       24426240NITEROI        RJUNIAO UMB DOS CULTOS AFRO BRAS    20121810 000003
10231987175000168817800093673    000033448                    000334480000000000000109                     I0133448     20121800000000040003410000017N211118104700000000000102012180000000000000000000000000000000000000000100000564154784RENATA FERNANDES DA COSTA MEIR          RUA QUINTAO                             QUINTINO BOC21381050RIO DE JANEIRO RJUNIAO UMB DOS CULTOS AFRO BRAS    20121810 000004
10231987175000168817800093673    000033447                    000334470000000000000109                     I0133447     20121800000000035003410000017N211118104700000000000102012180000000000000000000000000000000000000000100001510995706JUPIRA FARIAS DE MATTOS                 TRAVESSA AUGUSTO AMERICO DIAS           NEVES       24426240NITEROI        RJUNIAO UMB DOS CULTOS AFRO BRAS    20121810 000005
10231987175000168817800093673    000033446                    000334460000000000000109                     I0133446     21111800000000105003410000017N201118104700000000000102111180000000000000000000000000000000000000000100055570720715ATILA CARDOSO DE LIMA                   RUA EUGENIO SOARES                      CENTRO      26550007MESQUITA       RJUNIAO UMB DOS CULTOS AFRO BRAS    21111810 000006
10231987175000168817800093673    000033445                    000334450000000000000109                     I0133445     04011900000000400003410000017N201118104700000000000100401190000000000000000000000000000000000000000100014708764774ADILSON CARNEIRO PINTO                  RUA JUREMA                              GUARATIBA   23035380RIO DE JANEIRO RJUNIAO UMB DOS CULTOS AFRO BRAS    04011910 000007
10231987175000168817800093673    000033444                    000334440000000000000109                     I0133444     05121800000000460003410000017N201118104700000000000100512180000000000000000000000000000000000000000100014708764774ADILSON CARNEIRO PINTO                  RUA JUREMA                              GUARATIBA   23035380RIO DE JANEIRO RJUNIAO UMB DOS CULTOS AFRO BRAS    05121810 000008
10231987175000168817800093673    000033443                    000334430000000000000109                     I0133443     30111800000000180003410000017N191118104700000000000103011180000000000000000000000000000000000000000100077220145772ANGELA MARIA VIANA DOS SANTOS           RUA ANTONIO ALEXANDRE DE OLIVEIRA       CENTRO      25515050SAO JOAO DE MERRJUNIAO UMB DOS CULTOS AFRO BRAS    30111810 000009
10231987175000168817800093673    000033408                    000334080000000000000109                     I3433408     20111800000000035003410000017N131118104700000000000102011180000000000000000000000000000000000000000100000747523715CLAUDIARA TEIXEIRA DA SILVA             RUA CAMBUCI                             MUQUECA     27140280BARRA DO PIRAI RJUNIAO UMB DOS CULTOS AFRO BRAS    20111810 000010
10231987175000168817800093673    000033020                    000330200000000000000109                     I3433020     20121800000000350003410000017N291018104700000000000102012180000000000000000000000000000000000000000100092915434700MARIA MANOLA GIL DE ALMEIDA             RUA AMANDIU                             IRAJA       21230820RIO DE JANEIRO RJUNIAO UMB DOS CULTOS AFRO BRAS    20121810 000011
10231987175000168817800093673    000032997                    000329970000000000000109                     I3432997     20121800000000350003410000017N291018104700000000000102012180000000000000000000000000000000000000000100010526277734FRANCISCO DJALMA MOTA                   PRACA CORONEL JOAO ZANI                 COLEGIO     20710130RIO DE JANEIRO  RUNIAO UMB DOS CULTOS AFRO BRAS    20121810 000012
10231987175000168817800093673    000032791                    000327910000000000000109                     I3432791     20121800000000350003410000017N291018104700000000000102012180000000000000000000000000000000000000000100011513120791ROSA MARIA DIB MARTE                    RUA CARMEM DE FREITAS SALGADO           CALIFORNIA  26220470NOVA IGUACU    RJUNIAO UMB DOS CULTOS AFRO BRAS    20121810 000013
10231987175000168817800093673    000032700                    000327000000000000000109                     I3432700     20121800000000450003410000017N291018104700000000000102012180000000000000000000000000000000000000000100076857786704ELISABETH CAETANO                       RUA PEREIRA DE ARAUJO                   IRAJA       21235090RIO DE JANEIRO RJUNIAO UMB DOS CULTOS AFRO BRAS    20121810 000014
10231987175000168817800093673    000032324                    000323240000000000000109                     I0232324     20121800000000350003410000017N291018104700000000000102012180000000000000000000000000000000000000000100037506587734MARIA JOSE ALVES DIAS                   RUA CLODOMIRO                           SANTA CRUZ  23550020RIO DE JANEIRO RJUNIAO UMB DOS CULTOS AFRO BRAS    20121810 000015
10231987175000168817800093673    000032268                    000322680000000000000109                     I3432268     20121800000000400003410000017N291018104700000000000102012180000000000000000000000000000000000000000100063478315700MARIA JOSE DE FRANCA MORAES             RUA CHARLES CHAPLIN                     ANAIA PEQUEN24740000SAO GONCALO    RJUNIAO UMB DOS CULTOS AFRO BRAS    20121810 000016
10231987175000168817800093673    000032100                    000321000000000000000109                     I3432100     20121800000000350003410000017N291018104700000000000102012180000000000000000000000000000000000000000100080374174768SIMONE CARVALHO AFFONSO MARINS          RUA SOARES TAVARES                      RAMOS       21030310RIO DE JANEIRO RJUNIAO UMB DOS CULTOS AFRO BRAS    20121810 000017
10231987175000168817800093673    000031916                    000319160000000000000109                     I3431916     20121800000000350003410000017N291018104700000000000102012180000000000000000000000000000000000000000100003633548750LUCIANA MONCORES PORTES DE SOU          RUA CORONEL LEITAO                      IRAJA       21235220RIO DE JANEIRO RJUNIAO UMB DOS CULTOS AFRO BRAS    20121810 000018
10231987175000168817800093673    000030827                    000308270000000000000109                     I0230827     20121800000000400003410000017N291018104700000000000102012180000000000000000000000000000000000000000100014708764774ADILSON CARNEIRO PINTO                  RUA JUREMA                              GUARATIBA   23035380RIO DE JANEIRO RJUNIAO UMB DOS CULTOS AFRO BRAS    20121810 000019
10231987175000168817800093673    000030181                    000301810000000000000109                     I3430181     20121800000000035003410000017N291018104700000000000102012180000000000000000000000000000000000000000100092915434700MARIA MANOLA GIL DE ALMEIDA             RUA AMANDIU                             IRAJA       21230820RIO DE JANEIRO RJUNIAO UMB DOS CULTOS AFRO BRAS    20121810 000020
10231987175000168817800093673    000029808                    000298080000000000000109                     I0229808     20121800000000035003410000017N291018104700000000000102012180000000000000000000000000000000000000000100037506587734MARIA JOSE ALVES DIAS                   RUA CLODOMIRO                           SANTA CRUZ  23550020RIO DE JANEIRO RJUNIAO UMB DOS CULTOS AFRO BRAS    20121810 000021
10231987175000168817800093673    000029174                    000291740000000000000109                     I0229174     20121800000000035003410000017N291018104700000000000102012180000000000000000000000000000000000000000100014708764774ADILSON CARNEIRO PINTO                  RUA JUREMA                              GUARATIBA   23035380RIO DE JANEIRO RJUNIAO UMB DOS CULTOS AFRO BRAS    20121810 000022
10231987175000168817800093673    000028297                    000282970000000000000109                     I3428297     30111800000000035003410000017N200818104700000000000103011180000000000000000000000000000000000000000100092915434700MARIA MANOLA GIL DE ALMEIDA             RUA AMANDIU                             IRAJA       21230820RIO DE JANEIRO RJUNIAO UMB DOS CULTOS AFRO BRAS    30111810 000023
10231987175000168817800093673    000027894                    000278940000000000000109                     I0227894     30111800000000035003410000017N200818104700000000000103011180000000000000000000000000000000000000000100037506587734MARIA JOSE ALVES DIAS                   RUA CLODOMIRO                           SANTA CRUZ  23550020RIO DE JANEIRO RJUNIAO UMB DOS CULTOS AFRO BRAS    30111810 000024
10231987175000168817800093673    000027240                    000272400000000000000109                     I0227240     30111800000000035003410000017N200818104700000000000103011180000000000000000000000000000000000000000100014708764774ADILSON CARNEIRO PINTO                  RUA JUREMA                              GUARATIBA   23035380RIO DE JANEIRO RJUNIAO UMB DOS CULTOS AFRO BRAS    30111810 000025
10231987175000168817800093673    000027101                    000271010000000000000109                     I0227101     30111800000000035003410000017N200818104700000000000103011180000000000000000000000000000000000000000100055570720715ATILA CARDOSO DE LIMA                   RUA EUGENIO SOARES                      CENTRO      26550007MESQUITA       RJUNIAO UMB DOS CULTOS AFRO BRAS    30111810 000026
10231987175000168817800093673    000026475                    000264750000000000000109                     I0226475     30091800000000035003410000017N200818104700000000000103009180000000000000000000000000000000000000000100037506587734MARIA JOSE ALVES DIAS                   RUA CLODOMIRO                           SANTA CRUZ  23550020RIO DE JANEIRO RJUNIAO UMB DOS CULTOS AFRO BRAS    30091810 000027
10231987175000168817800093673    000025825                    000258250000000000000109                     I0225825     30091800000000035003410000017N200818104700000000000103009180000000000000000000000000000000000000000100014708764774ADILSON CARNEIRO PINTO                  RUA JUREMA                              GUARATIBA   23035380RIO DE JANEIRO RJUNIAO UMB DOS CULTOS AFRO BRAS    30091810 000028
10231987175000168817800093673    000025057                    000250570000000000000109                     I0225057     30101800000000035003410000017N200818104700000000000103010180000000000000000000000000000000000000000100037506587734MARIA JOSE ALVES DIAS                   RUA CLODOMIRO                           SANTA CRUZ  23550020RIO DE JANEIRO RJUNIAO UMB DOS CULTOS AFRO BRAS    30101810 000029
10231987175000168817800093673    000024406                    000244060000000000000109                     I0224406     30101800000000035003410000017N200818104700000000000103010180000000000000000000000000000000000000000100014708764774ADILSON CARNEIRO PINTO                  RUA JUREMA                              GUARATIBA   23035380RIO DE JANEIRO RJUNIAO UMB DOS CULTOS AFRO BRAS    30101810 000030
10231987175000168817800093673    000024267                    000242670000000000000109                     I0224267     30101800000000035003410000017N200818104700000000000103010180000000000000000000000000000000000000000100055570720715ATILA CARDOSO DE LIMA                   RUA EUGENIO SOARES                      CENTRO      26550007MESQUITA       RJUNIAO UMB DOS CULTOS AFRO BRAS    30101810 000031
9                                                                                                                                                                                                                                                                                                                                                                                                         000032
