01REMESSA01COBRANCA       817800093673        União Umb dos Cultos Afro Bra341BANCO ITAU SA  110119                                                                                                                                                                                                                                                                                                      000001
10231987175000168817800093673    000039542                    000395420000000000000109                     I0139542     18011900000000350003410000017N100119104700000000000101801190000000000000000000000000000000000000000100022532412100MARIA DA GRACA MACHADO DOS SAN          RUA ARCOZELO                            PARQUE ARARU25585560SAO JOAO DE MERRJUNIAO UMB DOS CULTOS AFRO BRAS    18011910 000002
10231987175000168817800093673    000039541                    000395410000000000000109                     I0139541     18011900000000035003410000017N100119104700000000000101801190000000000000000000000000000000000000000100002635911746ELINDOMAR JORGE DA COSTA                RUA ITUVERAVA                           MONJOLO     24724800SAO GONCALO    RJUNIAO UMB DOS CULTOS AFRO BRAS    18011910 000003
10231987175000168817800093673    000039540                    000395400000000000000109                     I0139540     15011900000000350003410000017N100119104700000000000101501190000000000000000000000000000000000000000100009488185732RODRIGO MARTINS DE ANDRADE              RUA CASTRO LOPES                        INHAUMA     20766050RIO DE JANEIRO RJUNIAO UMB DOS CULTOS AFRO BRAS    15011910 000004
10231987175000168817800093673    000039539                    000395390000000000000109                     I0139539     18011900000000210003410000017N100119104700000000000101801190000000000000000000000000000000000000000100003351761783CLAUDIA LUZIA PEREIRA                   RUA HOMERO SOBRINHO                     JARDIM NOVA 26187495BELFORD ROXO   RJUNIAO UMB DOS CULTOS AFRO BRAS    18011910 000005
10231987175000168817800093673    000039538                    000395380000000000000109                     I0139538     28021900000000300003410000017N100119104700000000000102802190000000000000000000000000000000000000000100066391482772VERA LUCIA BARBOSA FERREIRA             RUA JOAO VICENTE                        MARECHAL HER21610210RIO DE JANEIRO RJUNIAO UMB DOS CULTOS AFRO BRAS    28021910 000006
10231987175000168817800093673    000039537                    000395370000000000000109                     I0139537     28021900000000300003410000017N100119104700000000000102802190000000000000000000000000000000000000000100061487856768ROSELI ROCHA DA SILVA FERREIRA          RUA DOUTOR MESQUITA                     NOSSA SENHOR27113010BARRA DO PIRAI RJUNIAO UMB DOS CULTOS AFRO BRAS    28021910 000007
10231987175000168817800093673    000038683                    000386830000000000000109                     I0238683     30031900000000040003410000017N261218104700000000000103003190000000000000000000000000000000000000000100054588308734SANDRA PINTO CAVAGGIONI                 RUA POCONE                              ENCANTADO   20745090RIO DE JANEIRO RJUNIAO UMB DOS CULTOS AFRO BRAS    30031910 000008
10231987175000168817800093673    000036765                    000367650000000000000109                     I0236765     28021900000000040003410000017N261218104700000000000102802190000000000000000000000000000000000000000100054588308734SANDRA PINTO CAVAGGIONI                 RUA POCONE                              ENCANTADO   20745090RIO DE JANEIRO RJUNIAO UMB DOS CULTOS AFRO BRAS    28021910 000009
10231987175000168817800093673    000034855                    000348550000000000000109                     I0234855     31011900000000040003410000017N261218104700000000000103101190000000000000000000000000000000000000000100054588308734SANDRA PINTO CAVAGGIONI                 RUA POCONE                              ENCANTADO   20745090RIO DE JANEIRO RJUNIAO UMB DOS CULTOS AFRO BRAS    31011910 000010
10231987175000168817800093673    000033123                    000331230000000000000109                     I0233123     20121800000000350003410000017N291018104700000000000102012180000000000000000000000000000000000000000100022532412100MARIA DA GRACA MACHADO DOS SAN          RUA ARCOZELO                            PARQUE ARARU25585560SAO JOAO DE MERRJUNIAO UMB DOS CULTOS AFRO BRAS    20121810 000011
10231987175000168817800093673    000032941                    000329410000000000000109                     I0232941     20121800000000350003410000017N291018104700000000000102012180000000000000000000000000000000000000000100014563820717PAULA GOMES DA SILVA MOTTA              RUA GABRIEL DANUSIO                     VILA SANTO A25040230DUQUE DE CAXIASRJUNIAO UMB DOS CULTOS AFRO BRAS    20121810 000012
10231987175000168817800093673    000032897                    000328970000000000000109                     I0232897     20121800000000350003410000017N291018104700000000000102012180000000000000000000000000000000000000000100091473209749CRISTOVAO JOSE DA SILVA MAGALH          RUA VICTORIO PEREIRA NUNES              CASTELANEA  25640262PETROPOLIS     RJUNIAO UMB DOS CULTOS AFRO BRAS    20121810 000013
10231987175000168817800093673    000032432                    000324320000000000000109                     I0232432     20121800000000350003410000017N291018104700000000000102012180000000000000000000000000000000000000000100002635911746ELINDOMAR JORGE DA COSTA                RUA ITUVERAVA                           MONJOLO     24724800SAO GONCALO    RJUNIAO UMB DOS CULTOS AFRO BRAS    20121810 000014
10231987175000168817800093673    000032366                    000323660000000000000109                     I0232366     20121800000000350003410000017N291018104700000000000102012180000000000000000000000000000000000000000100054588308734SANDRA PINTO CAVAGGIONI                 RUA POCONE                              ENCANTADO   20745090RIO DE JANEIRO RJUNIAO UMB DOS CULTOS AFRO BRAS    20121810 000015
10231987175000168817800093673    000032244                    000322440000000000000109                     I0232244     20121800000000350003410000017N291018104700000000000102012180000000000000000000000000000000000000000100009488185732RODRIGO MARTINS DE ANDRADE              RUA CASTRO LOPES                        INHAUMA     20766050RIO DE JANEIRO RJUNIAO UMB DOS CULTOS AFRO BRAS    20121810 000016
10231987175000168817800093673    000029863                    000298630000000000000109                     I0229863     20121800000000035003410000017N291018104700000000000102012180000000000000000000000000000000000000000100002635911746ELINDOMAR JORGE DA COSTA                RUA ITUVERAVA                           MONJOLO     24724800SAO GONCALO    RJUNIAO UMB DOS CULTOS AFRO BRAS    20121810 000017
10231987175000168817800093673    000029487                    000294870000000000000109                     I0229487     20121800000000035003410000017N291018104700000000000102012180000000000000000000000000000000000000000100043194869787JORGE PINHEIRO DE ALMEIDA               RUA CERQUEIRA CESAR                     MADUREIRA   21351070RIO DE JANEIRO RJUNIAO UMB DOS CULTOS AFRO BRAS    20121810 000018
9                                                                                                                                                                                                                                                                                                                                                                                                         000019
