01REMESSA01COBRANCA       817800093673        União Umb dos Cultos Afro Bra341BANCO ITAU SA  190219                                                                                                                                                                                                                                                                                                      000001
10231987175000168817800093673    000033510                    000335100000000000000109                     I0233510     15011900000000100003410000017N031218104700000000000101501190000000000000000000000000000000000000000100064392791734ORDALINA PEDROZO TOMAZ DE AQUI          RUA ABEL DE ALVARENGA N 210,            CHATUBA     26246340MESQUITA       RJUNIAO UMB DOS CULTOS AFRO BRAS    15011910 000002
10231987175000168817800093673    000033508                    000335080000000000000109                     I0233508     10011900000000100003410000017N021218104700000000000101001190000000000000000000000000000000000000000100000308305752MAGDA LEOPOLDINA DA SILVA               ESTRADA DOS SETE RIACHOSN 1949, LOTE 10 SANTISSIMO  23098006RIO DE JANEIRO RJUNIAO UMB DOS CULTOS AFRO BRAS    10011910 000003
10231987175000168817800093673    000033501                    000335010000000000000109                     I0233501     20121800000000400003410000017N301118104700000000000102012180000000000000000000000000000000000000000100001860673724FATIMA ANDREA PINTO DE ALMEIDA          AVENIDA PAULO DE FRONTINN 667,          RIO COMPRIDO20261241RIO DE JANEIRO RJUNIAO UMB DOS CULTOS AFRO BRAS    20121810 000004
10231987175000168817800093673    000033500                    000335000000000000000109                     I0233500     20121800000000050003410000017N301118104700000000000102012180000000000000000000000000000000000000000100001860673724FATIMA ANDREA PINTO DE ALMEIDA          AVENIDA PAULO DE FRONTINN 667,          RIO COMPRIDO20261241RIO DE JANEIRO RJUNIAO UMB DOS CULTOS AFRO BRAS    20121810 000005
10231987175000168817800093673    000033499                    000334990000000000000109                     I0233499     20121800000000350003410000017N301118104700000000000102012180000000000000000000000000000000000000000100008109127754DAMIANA CRISTINA SILVA DOS SAN          RUA IGARAPE N 203,                      JARDIM OLAVO25025340DUQUE DE CAXIASRJUNIAO UMB DOS CULTOS AFRO BRAS    20121810 000006
10231987175000168817800093673    000033498                    000334980000000000000109                     I0233498     20121800000000040003410000017N301118104700000000000102012180000000000000000000000000000000000000000100008109127754DAMIANA CRISTINA SILVA DOS SAN          RUA IGARAPE N 203,                      JARDIM OLAVO25025340DUQUE DE CAXIASRJUNIAO UMB DOS CULTOS AFRO BRAS    20121810 000007
10231987175000168817800093673    000033496                    000334960000000000000109                     I0233496     20121800000000350003410000017N291118104700000000000102012180000000000000000000000000000000000000000100008852284729DILMA DE OLIVEIRA CORDEIRO              RUA: VEREADOR OSCAR DIAS OLIVEIRA N 12, CHACRINHA   25065160DUQUE DE CAXIASRJUNIAO UMB DOS CULTOS AFRO BRAS    20121810 000008
10231987175000168817800093673    000033493                    000334930000000000000109                     I0233493     20121800000000350003410000017N291118104700000000000102012180000000000000000000000000000000000000000100005170208740DJAIR DE PAULA CAVALCANTI               RUA RESTINGAN 0, LOTE 11 QUADRA 35 A - SCAMPO GRANDE23097650RIO DE JANEIRO RJUNIAO UMB DOS CULTOS AFRO BRAS    20121810 000009
10231987175000168817800093673    000033492                    000334920000000000000109                     I0233492     20121800000000040003410000017N291118104700000000000102012180000000000000000000000000000000000000000100005170208740DJAIR DE PAULA CAVALCANTI               RUA RESTINGAN 0, LOTE 11 QUADRA 35 A - SCAMPO GRANDE23097650RIO DE JANEIRO RJUNIAO UMB DOS CULTOS AFRO BRAS    20121810 000010
10231987175000168817800093673    000033487                    000334870000000000000109                     I0233487     20121800000000100003410000017N271118104700000000000102012180000000000000000000000000000000000000000100060471859753MARLENE IBRAIN                          RUA: DOUTOR ALVARO DA PAIXAO JR N 164, APARQUE AEROP27971180MACAE          RJUNIAO UMB DOS CULTOS AFRO BRAS    20121810 000011
10231987175000168817800093673    000033486                    000334860000000000000109                     I0233486     15011900000000500003410000017N271118104700000000000101501190000000000000000000000000000000000000000100008595310742BEATRIZ DA SILVA VIEIRA                 ESTRADA DO CONTORNON 115,               CAMBOTA     27600000VALENCA        RJUNIAO UMB DOS CULTOS AFRO BRAS    15011910 000012
10231987175000168817800093673    000033485                    000334850000000000000109                     I0233485     20121800000000500003410000017N271118104700000000000102012180000000000000000000000000000000000000000100002960662300CRISTIANO ALVES DOS SANTOS              RUA REIS FILHON 5,                      CENTRO      36455000LAMIM          MGUNIAO UMB DOS CULTOS AFRO BRAS    20121810 000013
10231987175000168817800093673    000033482                    000334820000000000000109                     I0233482     27121800000000350003410000017N261118104700000000000102712180000000000000000000000000000000000000000100012253859702FRANCINY CABRAL FONTES                  AVENIDA HUMBERTO SOEIRO DE CARVALHON 0, IPITUNA     28550000SAO SEBASTIAO DRJUNIAO UMB DOS CULTOS AFRO BRAS    27121810 000014
10231987175000168817800093673    000033478                    000334780000000000000109                     I0233478     20121800000000300003410000017N261118104700000000000102012180000000000000000000000000000000000000000100029040973768NELSON PEREIRA DE CARVALHO              RUA DO CAMPON 35,                       CONCEICAO DE23885000MANGARATIBA    RJUNIAO UMB DOS CULTOS AFRO BRAS    20121810 000015
10231987175000168817800093673    000033477                    000334770000000000000109                     I0233477     20121800000000040003410000017N261118104700000000000102012180000000000000000000000000000000000000000100029040973768NELSON PEREIRA DE CARVALHO              RUA DO CAMPON 35,                       CONCEICAO DE23885000MANGARATIBA    RJUNIAO UMB DOS CULTOS AFRO BRAS    20121810 000016
10231987175000168817800093673    000033464                    000334640000000000000109                     I0233464     20121800000000350003410000017N221118104700000000000102012180000000000000000000000000000000000000000100003371449742LUCIA HELENA CHAVES MOREIRA             RUA LUISA BARATAN 75, CASA 1            REALENGO    21770230RIO DE JANEIRO RJUNIAO UMB DOS CULTOS AFRO BRAS    20121810 000017
10231987175000168817800093673    000033462                    000334620000000000000109                     I0233462     20121800000000350003410000017N221118104700000000000102012180000000000000000000000000000000000000000100010953053792DANIELE FERNANDES DE CARVALHO           RUA BARROSON 0, CASA 1 LOTE 30 QUADRA 97JARDIM CABUC26291428NOVA IGUACU    RJUNIAO UMB DOS CULTOS AFRO BRAS    20121810 000018
10231987175000168817800093673    000033461                    000334610000000000000109                     I0233461     20121800000000040003410000017N221118104700000000000102012180000000000000000000000000000000000000000100010953053792DANIELE FERNANDES DE CARVALHO           RUA BARROSON 0, CASA 1 LOTE 30 QUADRA 97JARDIM CABUC26291428NOVA IGUACU    RJUNIAO UMB DOS CULTOS AFRO BRAS    20121810 000019
10231987175000168817800093673    000033460                    000334600000000000000109                     I0233460     20121800000000350003410000017N221118104700000000000102012180000000000000000000000000000000000000000100009053488774ANTONIO FERREIRA DE SOUZA               RUA ARTUR MOURAN 171,                   JARDIM NOVA 26272140NOVA IGUACU    RJUNIAO UMB DOS CULTOS AFRO BRAS    20121810 000020
10231987175000168817800093673    000033459                    000334590000000000000109                     I0233459     20121800000000040003410000017N221118104700000000000102012180000000000000000000000000000000000000000100009053488774ANTONIO FERREIRA DE SOUZA               RUA ARTUR MOURAN 171,                   JARDIM NOVA 26272140NOVA IGUACU    RJUNIAO UMB DOS CULTOS AFRO BRAS    20121810 000021
10231987175000168817800093673    000033458                    000334580000000000000109                     I0233458     20121800000000350003410000017N221118104700000000000102012180000000000000000000000000000000000000000100009001361706SOLANGE DE SOUZA                        RUA VASSOURASN 0, LOTE 17               CABUCU      26291440NOVA IGUACU    RJUNIAO UMB DOS CULTOS AFRO BRAS    20121810 000022
10231987175000168817800093673    000033457                    000334570000000000000109                     I0233457     20121800000000040003410000017N221118104700000000000102012180000000000000000000000000000000000000000100009001361706SOLANGE DE SOUZA                        RUA VASSOURASN 0, LOTE 17               CABUCU      26291440NOVA IGUACU    RJUNIAO UMB DOS CULTOS AFRO BRAS    20121810 000023
10231987175000168817800093673    000033456                    000334560000000000000109                     I0233456     20121800000000500003410000017N221118104700000000000102012180000000000000000000000000000000000000000100028257955850ANDRE RODRIGUES DE OLIVEIRA             RUA CANDIDA ROSAN 79,                   JARDIM KERAL03828140SAO PAULO      SPUNIAO UMB DOS CULTOS AFRO BRAS    20121810 000024
10231987175000168817800093673    000033455                    000334550000000000000109                     I0233455     20121800000000350003410000017N221118104700000000000102012180000000000000000000000000000000000000000100063520788772JOSE DOMINGOS VICTORINO DE SOU          RUA: ITAGUAIN 306, FUNDOS - JARDIM CARIOILHA DO GOVE21921420RIO DE JANEIRO RJUNIAO UMB DOS CULTOS AFRO BRAS    20121810 000025
10231987175000168817800093673    000033449                    000334490000000000000109                     I0233449     20121800000000380003410000017N211118104700000000000102012180000000000000000000000000000000000000000100001510995706JUPIRA FARIAS DE MATTOS                 ESTRADA ALARICO DE SOUZAN 703, CASA 2   LARGO DA BAT24315320NITEROI        RJUNIAO UMB DOS CULTOS AFRO BRAS    20121810 000026
10231987175000168817800093673    000033440                    000334400000000000000109                     I0233440     20121800000000350003410000017N191118104700000000000102012180000000000000000000000000000000000000000100003544254719EDIJANE PINHEIRO DE LIMA                RUA: DOIS DE JANEIRON 0, LOTE 54 QUADRA CAMPO GRANDE23097588RIO DE JANEIRO RJUNIAO UMB DOS CULTOS AFRO BRAS    20121810 000027
10231987175000168817800093673    000033439                    000334390000000000000109                     I0233439     20121800000000040003410000017N191118104700000000000102012180000000000000000000000000000000000000000100003544254719EDIJANE PINHEIRO DE LIMA                RUA: DOIS DE JANEIRON 0, LOTE 54 QUADRA CAMPO GRANDE23097588RIO DE JANEIRO RJUNIAO UMB DOS CULTOS AFRO BRAS    20121810 000028
10231987175000168817800093673    000033438                    000334380000000000000109                     I0233438     20121800000000350003410000017N191118104700000000000102012180000000000000000000000000000000000000000100013014823740EUGENIA DA SILVA ALVES PEREIRA          RUA BN 0, LOTE 21 QUADRA 15             JARDIM ANHAN25264570DUQUE DE CAXIASRJUNIAO UMB DOS CULTOS AFRO BRAS    20121810 000029
10231987175000168817800093673    000033432                    000334320000000000000109                     I0233432     20121800000000350003410000017N161118104700000000000102012180000000000000000000000000000000000000000100007078239784MARIA TEREZINHA DE MATOS FIGUE          RUA GUATEMALAN 507,                     PENHA CIRCUL21020170RIO DE JANEIRO RJUNIAO UMB DOS CULTOS AFRO BRAS    20121810 000030
10231987175000168817800093673    000033418                    000334180000000000000109                     I0233418     20121800000000350003410000017N131118104700000000000102012180000000000000000000000000000000000000000100000462841766RONALDO SANTOS DE SOUZA                 RUA: PINHEIRON 61,                      VILA CORINGA27321420BARRA MANSA    RJUNIAO UMB DOS CULTOS AFRO BRAS    20121810 000031
9                                                                                                                                                                                                                                                                                                                                                                                                         000032
