01REMESSA01COBRANCA       916200163100        União Umb dos Cultos Afro Bra341BANCO ITAU SA  290418                                                                                                                                                                                                                                                                                                      000001
10231987175000168916200163100    000014292                    000142920000000000000109                     I0214292     10041800000001200003410000017N290318104700000000000101004180000000000000000000000000000000000000000100012701486726MARIANA MAGALHAES DE C. J. I.           RUA: SALOMAO FILHO                      MARECHAL HER21331660RIO DE JANEIRO RJUNIAO UMB DOS CULTOS AFRO BRAS    10041810 000002
10231987175000168916200163100    000014046                    000140460000000000000109                     I0214046     30051800000000035003410000017N260218104700000000000103005180000000000000000000000000000000000000000100003159130452VICENTE FELICIO DA SILVA                RUA LUIZA NEOFILA PIMENTA, 156          ALTO DA CAPE59680000CAMPO GRANDE   RNUNIAO UMB DOS CULTOS AFRO BRAS    30051810 000003
10231987175000168916200163100    00008880                     000088800000000000000109                     I028880      31011800000000035003410000017N020118104700000000000103101180000000000000000000000000000000000000000100000912311754PAULO HENRIQUE DA SILVA MOURA           RUA QUATI, 112                          MIGUEL COUTO26060420NOVA IGUACU    RJUNIAO UMB DOS CULTOS AFRO BRAS    31011810 000004
10231987175000168916200163100    00008756                     000087560000000000000109                     I028756      31011800000000035003410000017N020118104700000000000103101180000000000000000000000000000000000000000100036547107787JOAO CARLOS SALERNO                     RUA CAETANO SALERMO, 54 A               ALTO DA SERR25635020PETROPOLIS     RJUNIAO UMB DOS CULTOS AFRO BRAS    31011810 000005
10231987175000168916200163100    00008749                     000087490000000000000109                     I028749      08021800000000035003410000017N020118104700000000000100802180000000000000000000000000000000000000000100061692000730JOAQUIM PEIXOTO                         RUA W 14 LOTE 180 CASA 1                LAGOMAR - MA27970130MACAE          RJUNIAO UMB DOS CULTOS AFRO BRAS    08021810 000006
10231987175000168916200163100    00008658                     000086580000000000000109                     I028658      31011800000000035003410000017N020118104700000000000103101180000000000000000000000000000000000000000100059555815704PAULO FERNANDES                         RUA MONTE CARMELO 351                   BENTO RIBERI21555120RIO DE JANEIRO RJUNIAO UMB DOS CULTOS AFRO BRAS    31011810 000007
10231987175000168916200163100    00008636                     000086360000000000000109                     I028636      08021800000000035003410000017N020118104700000000000100802180000000000000000000000000000000000000000100002248004770ROSANE ALVES DE AZEVEDO                 RUA W, 14 LOTE 180 CASA 1               LAGOMAR - MA27970130MACAE          RJUNIAO UMB DOS CULTOS AFRO BRAS    08021810 000008
10231987175000168916200163100    00004509                     000045090000000000000109                     I024509      22121700000000350003410000017N171117104700000000000102212170000000000000000000000000000000000000000100004277956726ROSANA OLIVEIRA GUEDES                  RUA GRACA MELLO N 640 APT 101 BLOCO 30 -CAVALCANTI -21381300RIO DE JANEIRO RJUNIAO UMB DOS CULTOS AFRO BRAS    22121710 000009
10231987175000168916200163100    00004507                     000045070000000000000109                     I024507      22121700000000350003410000017N171117104700000000000102212170000000000000000000000000000000000000000100014641727732DAVI SILVA BARBOSA LIMA                 TRAVESSA ANTONIO AARAO N 9              SEPETIBA - R23540030RIO DE JANEIRO RJUNIAO UMB DOS CULTOS AFRO BRAS    22121710 000010
10231987175000168916200163100    00004506                     000045060000000000000109                     I024506      22121700000000350003410000017N171117104700000000000102212170000000000000000000000000000000000000000100004554269701PATRICIA CABRAL BOTELHO                 RUA QUINTAO N 995 - PIEDADE             PIEDADE - RI21381050RIO DE JANEIRO RJUNIAO UMB DOS CULTOS AFRO BRAS    22121710 000011
10231987175000168916200163100    00004505                     000045050000000000000109                     I024505      22121700000000350003410000017N171117104700000000000102212170000000000000000000000000000000000000000100000129467707SANDRA CRISTINA DOS SANTOS TIT          RUA DAVI SN BLOCO 3 APT 303             CIDADE DE DE22777243JACAREPAGUA    RJUNIAO UMB DOS CULTOS AFRO BRAS    22121710 000012
10231987175000168916200163100    00004504                     000045040000000000000109                     I024504      22121700000000350003410000017N171117104700000000000102212170000000000000000000000000000000000000000100008781471793LURDEUDALIA ARAUJO                      RUA MARIA LOROSA - VITORIA REGIS CASA 8 SANTA CRUZ -23525040RIO DE JANEIRO RJUNIAO UMB DOS CULTOS AFRO BRAS    22121710 000013
10231987175000168916200163100    00004503                     000045030000000000000109                     I024503      22121700000000350003410000017N171117104700000000000102212170000000000000000000000000000000000000000100005646881773DEBORA LINS                             RUA LACONIA N 89 CASA 3                 JARDIM AMAPA26182230BELFORD ROXO   RJUNIAO UMB DOS CULTOS AFRO BRAS    22121710 000014
10231987175000168916200163100    00004502                     000045020000000000000109                     I024502      22121700000000350003410000017N171117104700000000000102212170000000000000000000000000000000000000000100000076412733VALERIA RIBEIRO TEIXEIRA                RUA JIPIOCA N 135 CASA 1                CASCADURA - 21311250RIO DE JANEIRO RJUNIAO UMB DOS CULTOS AFRO BRAS    22121710 000015
10231987175000168916200163100    00004501                     000045010000000000000109                     I024501      22121700000000350003410000017N171117104700000000000102212170000000000000000000000000000000000000000100059110465715ZEILTON VIEIRA NUNES                    RUA JORNALISTA PAULO FRANCIS N 29 CASA 4RIO DAS OSTR28890000RIO DE JANEIRO RJUNIAO UMB DOS CULTOS AFRO BRAS    22121710 000016
10231987175000168916200163100    00004500                     000045000000000000000109                     I024500      22121700000000350003410000017N171117104700000000000102212170000000000000000000000000000000000000000100038835568749MARIA DE ALCANTARA GOULART SIL          RUA GAMBIA N 41                         JACAREPAGUA 22775400RIO DE JANEIRO RJUNIAO UMB DOS CULTOS AFRO BRAS    22121710 000017
10231987175000168916200163100    00004499                     000044990000000000000109                     I024499      22121700000000350003410000017N171117104700000000000102212170000000000000000000000000000000000000000100014994285705JEFFERSON DOS SANTOS DA SILVA           ESTRADA DO PAU DA FOME N 50             TAQUARA - JA22723497RIO DE JANEIRO RJUNIAO UMB DOS CULTOS AFRO BRAS    22121710 000018
10231987175000168916200163100    00004498                     000044980000000000000109                     I024498      22121700000000350003410000017N171117104700000000000102212170000000000000000000000000000000000000000100035138963791AMILTON PIO                             RUA JOSE DE MELO N 77                   SEPETIBA - R23545165RIO DE JANEIRO RJUNIAO UMB DOS CULTOS AFRO BRAS    22121710 000019
10231987175000168916200163100    00004497                     000044970000000000000109                     I024497      22121700000000350003410000017N171117104700000000000102212170000000000000000000000000000000000000000100011998959708ARTUR TAVARES DA SILVA NETO             RUA PREFEITO JOAO CARLOS VITAL N 17     CROACIA - SE23540080SEPETIBA       RJUNIAO UMB DOS CULTOS AFRO BRAS    22121710 000020
10231987175000168916200163100    00004496                     000044960000000000000109                     I024496      22121700000000350003410000017N171117104700000000000102212170000000000000000000000000000000000000000100008502438743ALINE RAMOS DE SOUZA DA SILVA           RUA DOUTOR ISMAEL CAVALCANTI N 240      SEPETIBA - R23545145RIO DE JANEIRO RJUNIAO UMB DOS CULTOS AFRO BRAS    22121710 000021
10231987175000168916200163100    00004495                     000044950000000000000109                     I024495      22121700000000350003410000017N171117104700000000000102212170000000000000000000000000000000000000000100007103755736ALESSANDRA COSTA DE BARROS              PRACA OSCAR ROSSIM N 84                 SEPETIBA - R23540250RIO DE JANEIRO RJUNIAO UMB DOS CULTOS AFRO BRAS    22121710 000022
10231987175000168916200163100    00004494                     000044940000000000000109                     I024494      22121700000000350003410000017N171117104700000000000102212170000000000000000000000000000000000000000100002134084731MARINALVA LINDOLFO DA SILVA             AVENIDA GOMES FREIRE N 136              VILA SANTO A25040310DUQUE DE CAXIASRJUNIAO UMB DOS CULTOS AFRO BRAS    22121710 000023
10231987175000168916200163100    00004492                     000044920000000000000109                     I024492      22121700000000350003410000017N171117104700000000000102212170000000000000000000000000000000000000000100009946366797SIMONE SOARES NEA                       RUA FLAVIO RANGEL SN QUADRA B LOTE 7    CAMPO GRANDE23085430RIO DE JANEIRO RJUNIAO UMB DOS CULTOS AFRO BRAS    22121710 000024
10231987175000168916200163100    00004490                     000044900000000000000109                     I024490      22121700000000350003410000017N171117104700000000000102212170000000000000000000000000000000000000000100001301453781CARLINDA AZEREDO MATOS                  RUA DOUTOR FERNANDO BRIGADAO N 17       RIACHAO - NO26279180NOVA IGUACU    RJUNIAO UMB DOS CULTOS AFRO BRAS    22121710 000025
10231987175000168916200163100    00004489                     000044890000000000000109                     I024489      22121700000000350003410000017N171117104700000000000102212170000000000000000000000000000000000000000100014604780706GILMAR GONCALVES FERREIRA               RUA DOIS BLOCO 2 CASA 27                ROCINHA - RI22451400RIO DE JANEIRO RJUNIAO UMB DOS CULTOS AFRO BRAS    22121710 000026
10231987175000168916200163100    00004487                     000044870000000000000109                     I024487      22121700000000350003410000017N171117104700000000000102212170000000000000000000000000000000000000000100064175499768TEREZA CRISTINA PIRES SILVA RO          RUA GOIAS LOTE 3 QUADRA 4               PLANALTO DO 24859300ITABORAI       RJUNIAO UMB DOS CULTOS AFRO BRAS    22121710 000027
10231987175000168916200163100    00004486                     000044860000000000000109                     I024486      22121700000000350003410000017N171117104700000000000102212170000000000000000000000000000000000000000100065929039704JUPIACU SALLES                          RUA ANDRE ROCHA QUADRA 83 LOTES 16 E 17 CURICICA - R22570000RIO DE JANEIRO RJUNIAO UMB DOS CULTOS AFRO BRAS    22121710 000028
10231987175000168916200163100    00004484                     000044840000000000000109                     I024484      22121700000000350003410000017N171117104700000000000102212170000000000000000000000000000000000000000100015834777724JOAO PAULO SALGUEIRO DA SILVA           RUA MANOEL DO NASCIMENTO N 134          IRAJA  - RIO21361510RIO DE JANEIRO RJUNIAO UMB DOS CULTOS AFRO BRAS    22121710 000029
10231987175000168916200163100    00004483                     000044830000000000000109                     I024483      22121700000000350003410000017N171117104700000000000102212170000000000000000000000000000000000000000100066003110782MARIA CLAUDIA DE LIMA FOLY              RUA JOAQUIM SOARES NETO N 467           NOVA AMERICA26021560NOVA IGUACU    RJUNIAO UMB DOS CULTOS AFRO BRAS    22121710 000030
10231987175000168916200163100    00004482                     000044820000000000000109                     I024482      22121700000000350003410000017N171117104700000000000102212170000000000000000000000000000000000000000100089044380710DENISE SAMPAIO DE MOURA MACIEL          RUA XAXA N 10 - RIO DAS PEDRAS          JACAREPAGUA 22753057RIO DE JANEIRO RJUNIAO UMB DOS CULTOS AFRO BRAS    22121710 000031
10231987175000168916200163100    00004481                     000044810000000000000109                     I024481      22121700000000350003410000017N171117104700000000000102212170000000000000000000000000000000000000000100025875159715SUELI DE OLIVEIRA DIAS                  AVENIDA DAS ALAGOAS N 1.200 - GARDENIA AJACAREPAGUA 22765451RIO DE JANEIRO RJUNIAO UMB DOS CULTOS AFRO BRAS    22121710 000032
10231987175000168916200163100    00004480                     000044800000000000000109                     I024480      22121700000000350003410000017N171117104700000000000102212170000000000000000000000000000000000000000100000920173713JORGE DOS SANTOS LUCAS                  RUA PP, LOTE 5 QUADRA 48                JARDIM ANHAN25264360DUQUE DE CAXIASRJUNIAO UMB DOS CULTOS AFRO BRAS    22121710 000033
10231987175000168916200163100    00004479                     000044790000000000000109                     I024479      22121700000000350003410000017N171117104700000000000102212170000000000000000000000000000000000000000100000497155770CINTIA MARTIN                           RUA POCONE N 371                        ENCANTADO - 20745090RIO DE JANEIRO RJUNIAO UMB DOS CULTOS AFRO BRAS    22121710 000034
10231987175000168916200163100    00004477                     000044770000000000000109                     I024477      22121700000000350003410000017N171117104700000000000102212170000000000000000000000000000000000000000100009483806755MARCO ANTONIO ATAIDE DE MELO            TRAVESSA MARAPE N 3 FUNDOS              COSTA BARROS21515240RIO DE JANEIRO RJUNIAO UMB DOS CULTOS AFRO BRAS    22121710 000035
10231987175000168916200163100    00004475                     000044750000000000000109                     I024475      22121700000000350003410000017N171117104700000000000102212170000000000000000000000000000000000000000100095341048768MARILENE CANDIDA                        RUA NOSSA SENHORA DA GUIA N 162         VILA NOVA DO26062192NOVA IGUACU    RJUNIAO UMB DOS CULTOS AFRO BRAS    22121710 000036
10231987175000168916200163100    00004474                     000044740000000000000109                     I024474      22121700000000350003410000017N171117104700000000000102212170000000000000000000000000000000000000000100001797738748PAULO CESAR LONATO SANTOS               ESTRADA GUANDU DO SAPE N 1450 BLOCO 18 ACENTRO - CAM22095072CAMPO GRANDE   RJUNIAO UMB DOS CULTOS AFRO BRAS    22121710 000037
10231987175000168916200163100    00004463                     000044630000000000000109                     I024463      22121700000000350003410000017N171117104700000000000102212170000000000000000000000000000000000000000100010016543752ALEXANDRE TEIXEIRA CAVALCANTE           RUA DOUTOR NUNES N 934                  OLARIA - RIO21021370RIO DE JANEIRO RJUNIAO UMB DOS CULTOS AFRO BRAS    22121710 000038
10231987175000168916200163100    00004451                     000044510000000000000109                     I024451      22121700000000350003410000017N171117104700000000000102212170000000000000000000000000000000000000000100053470095787OSVALDO VALENTE COELHO FILHO            RUA VISCONDE DE SABOIA N 54 - RUA I N 11CAVALCANTI -21370220RIO DE JANEIRO RJUNIAO UMB DOS CULTOS AFRO BRAS    22121710 000039
10231987175000168916200163100    00004251                     000042510000000000000109                     I024251      22121700000000350003410000017N171117104700000000000102212170000000000000000000000000000000000000000100008532905714NUBIA SILVA DA FONSECA                  RUA BRUNO DE OLIVEIRA MARZULO, 54       VAL VERDE - 26290798NOVA IGUACU    RJUNIAO UMB DOS CULTOS AFRO BRAS    22121710 000040
10231987175000168916200163100    00004250                     000042500000000000000109                     I024250      22121700000000350003410000017N171117104700000000000102212170000000000000000000000000000000000000000100063430773791GERMANO ROSEMBERG                       RUA DOUTOR TABAJARA DE ARAUJO GAMA, 694 PIRATININGA 24350694NITEROI        RJUNIAO UMB DOS CULTOS AFRO BRAS    22121710 000041
10231987175000168916200163100    00004249                     000042490000000000000109                     I024249      22121700000000350003410000017N171117104700000000000102212170000000000000000000000000000000000000000100016685778792PAMELA TAMIRIS DA SILVA CORDEI          RUA DO OURO, 14                         INHOAIBA - R23064140RIO DE JANEIRO RJUNIAO UMB DOS CULTOS AFRO BRAS    22121710 000042
10231987175000168916200163100    00004248                     000042480000000000000109                     I024248      22121700000000350003410000017N171117104700000000000102212170000000000000000000000000000000000000000100001156424712VANUSIA DOS SANTOS MOREIRA              AVENIDA JOAO XXIII, 1900 RUA 25 QUADRA 2SANTA CRUZ -23560352RIO DE JANEIRO RJUNIAO UMB DOS CULTOS AFRO BRAS    22121710 000043
10231987175000168916200163100    00004247                     000042470000000000000109                     I024247      22121700000000350003410000017N171117104700000000000102212170000000000000000000000000000000000000000100007798045708LEEUWENHOCK MENDONCA DE MELO            RUA DEBORA, 34                          GRAMACHO - D25040160DUQUE DE CAXIASRJUNIAO UMB DOS CULTOS AFRO BRAS    22121710 000044
10231987175000168916200163100    00004246                     000042460000000000000109                     I024246      22121700000000350003410000017N171117104700000000000102212170000000000000000000000000000000000000000100095674454787GILVANIA RODRIGUES DE SANTANA           RUA TRAVASSOS, LOTE 4 QUADRA B          PARQUE SAO B26183730BELFORD ROXO   RJUNIAO UMB DOS CULTOS AFRO BRAS    22121710 000045
10231987175000168916200163100    00004245                     000042450000000000000109                     I024245      22121700000000350003410000017N171117104700000000000102212170000000000000000000000000000000000000000100011929233752ELIETE COUTO DE MEDEIROS                RUA SILVINO DE AZEREDO, 26 CASA 4       MIGUEL COUTO26079389NOVA IGUACU    RJUNIAO UMB DOS CULTOS AFRO BRAS    22121710 000046
10231987175000168916200163100    00004244                     000042440000000000000109                     I024244      22121700000000350003410000017N171117104700000000000102212170000000000000000000000000000000000000000100013848361795VICTOR ALEXANDRE MAGHELLY G. D          RUA AQUIBADA, LOTE 25 QUADRA 19         CAMPO ALEGRE26292171NOVA IGUACU    RJUNIAO UMB DOS CULTOS AFRO BRAS    22121710 000047
10231987175000168916200163100    00004241                     000042410000000000000109                     I024241      22121700000000350003410000017N171117104700000000000102212170000000000000000000000000000000000000000100058684522400JOSE RICARDO LIMA DE ALMEIDA            RUA MALHERBE, LOTE 28 QUADRA 139        PQ PAULISTA 25261440DUQUE DE CAXIASRJUNIAO UMB DOS CULTOS AFRO BRAS    22121710 000048
10231987175000168916200163100    00004239                     000042390000000000000109                     I024239      22121700000000350003410000017N171117104700000000000102212170000000000000000000000000000000000000000100021840752807PAULO RICARDO DE ALMEIDA CAETA          RUA REV DANIEL SOARES BONFIM, 1000 CASA SANTA BARBAR24141500NITEROI        RJUNIAO UMB DOS CULTOS AFRO BRAS    22121710 000049
10231987175000168916200163100    00004236                     000042360000000000000109                     I024236      22121700000000350003410000017N171117104700000000000102212170000000000000000000000000000000000000000100003360087755ELIENE GONCALVES JACINTO                TRAVESSA DAS FLORES, 20                 PARQUE LAFAI25010695DUQUE DE CAXIASRJUNIAO UMB DOS CULTOS AFRO BRAS    22121710 000050
10231987175000168916200163100    00004235                     000042350000000000000109                     I024235      22121700000000350003410000017N171117104700000000000102212170000000000000000000000000000000000000000100007547737790ALESSANDRO CRUZ GONCALVES               RUA DIONISIO FERNANDES, 297 BLOCO 1 APTOENGENHO DE D20730400RIO DE JANEIRO RJUNIAO UMB DOS CULTOS AFRO BRAS    22121710 000051
10231987175000168916200163100    00004234                     000042340000000000000109                     I024234      22121700000000350003410000017N171117104700000000000102212170000000000000000000000000000000000000000100005836497770SIDEAN LEANDRO DOS SANTOS CRUZ          RUA MENDES RIBEIRO, 696                 PATRONATO - 24431635SAO GONCALO    RJUNIAO UMB DOS CULTOS AFRO BRAS    22121710 000052
10231987175000168916200163100    00004233                     000042330000000000000109                     I024233      22121700000000350003410000017N171117104700000000000102212170000000000000000000000000000000000000000100088978117741CRISTINA MONTEIRO DE PAIVA LOS          BOULEVARD 28 DE SETEMBRO, 122 APTO 303  VILA ISABEL 20551031RIO DE JANEIRO RJUNIAO UMB DOS CULTOS AFRO BRAS    22121710 000053
10231987175000168916200163100    00004232                     000042320000000000000109                     I024232      22121700000000350003410000017N171117104700000000000102212170000000000000000000000000000000000000000100075911140772MARCIA FIGUEIREDO DOS SANTOS G          RUA FERNANDO LOBO, 571 - RUA B QUADRA B GUADALUPE - 21665070RIO DE JANEIRO RJUNIAO UMB DOS CULTOS AFRO BRAS    22121710 000054
10231987175000168916200163100    00004230                     000042300000000000000109                     I024230      22121700000000350003410000017N171117104700000000000102212170000000000000000000000000000000000000000100011037964705DAVID WILIAN DOS SANTOS JORDAO          RUA COMANDANTE GERALDO SA, 329          PEDRAS RUIVA26950000RIO DE JANEIRO RJUNIAO UMB DOS CULTOS AFRO BRAS    22121710 000055
10231987175000168916200163100    00004229                     000042290000000000000109                     I024229      22121700000000350003410000017N171117104700000000000102212170000000000000000000000000000000000000000100003598384726ROSANE QUIRINO DA SILVA                 RUA MANUEL RODRIGUES FONTINHA, 119      NOVA CIDADE 26535270NILOPOLIS      RJUNIAO UMB DOS CULTOS AFRO BRAS    22121710 000056
10231987175000168916200163100    00004228                     000042280000000000000109                     I024228      22121700000000350003410000017N171117104700000000000102212170000000000000000000000000000000000000000100002330389727LENIRA FELIX DA SILVA                   RUA ULISSES ROBERTO, 1524               BOACU - SAO 24467490SAO GONCALO    RJUNIAO UMB DOS CULTOS AFRO BRAS    22121710 000057
10231987175000168916200163100    00004226                     000042260000000000000109                     I024226      22121700000000350003410000017N171117104700000000000102212170000000000000000000000000000000000000000100002380864705MARCELO CISNEIROS DA SILVA              RUA GUAIBA, 481                         VILA DA PENH21215070RIO DE JANEIRO RJUNIAO UMB DOS CULTOS AFRO BRAS    22121710 000058
10231987175000168916200163100    00004225                     000042250000000000000109                     I024225      22121700000000350003410000017N171117104700000000000102212170000000000000000000000000000000000000000100055046010704SONIA REGINA PINTO DA SILVA             RUA ARACOIA, 188 FUNDOS                 BRAZ DE PINA21011140RIO DE JANEIRO RJUNIAO UMB DOS CULTOS AFRO BRAS    22121710 000059
10231987175000168916200163100    00004224                     000042240000000000000109                     I024224      22121700000000350003410000017N171117104700000000000102212170000000000000000000000000000000000000000100001566732743MARCIO HYK BARRETO PINHEIRO             RUA DOUTOR ALFREDO BACKLER, 536 BLOCO 4 ALCANTARA - 24452001SAO GONCALO    RJUNIAO UMB DOS CULTOS AFRO BRAS    22121710 000060
10231987175000168916200163100    00004223                     000042230000000000000109                     I024223      22121700000000350003410000017N171117104700000000000102212170000000000000000000000000000000000000000100085773760797EDIR FERREIRA DA SILVA                  RUA DESEMBARGADOR FERREIRA PINTO, LOTE 3VALVERDE - N26291078NOVA IGUACU    RJUNIAO UMB DOS CULTOS AFRO BRAS    22121710 000061
10231987175000168916200163100    00004222                     000042220000000000000109                     I024222      22121700000000350003410000017N171117104700000000000102212170000000000000000000000000000000000000000100006264292770MARIZIA SILVA MATHIAS                   RUA SHOYO, 129                          PARAISO - NO26297117NOVA IGUACU    RJUNIAO UMB DOS CULTOS AFRO BRAS    22121710 000062
10231987175000168916200163100    00004221                     000042210000000000000109                     I024221      22121700000000350003410000017N171117104700000000000102212170000000000000000000000000000000000000000100009963993729LEANDRO DE SOUZA OLIVEIRA               RUA DA MATRIZ, 876                      CENTRO - SAO25525130SAO JOAO DE MERRJUNIAO UMB DOS CULTOS AFRO BRAS    22121710 000063
10231987175000168916200163100    00004220                     000042200000000000000109                     I024220      22121700000000350003410000017N171117104700000000000102212170000000000000000000000000000000000000000100003439982700ANDRE LUIS SANTIAGO DE ALMEIDA          RUA TANGER, 39                          SANTA CRUZ -23555013RIO DE JANEIRO RJUNIAO UMB DOS CULTOS AFRO BRAS    22121710 000064
10231987175000168916200163100    00004217                     000042170000000000000109                     I024217      22121700000000350003410000017N171117104700000000000102212170000000000000000000000000000000000000000100044239300720WALDIR DAS CHAGAS FILHO                 RUA CALMON CABRAL, 72 CASA 1 FUNDOS     IRAJA - RIO 21235150RIO DE JANEIRO RJUNIAO UMB DOS CULTOS AFRO BRAS    22121710 000065
10231987175000168916200163100    00003999                     000039990000000000000109                     I023999      22121700000000350003410000017N171117104700000000000102212170000000000000000000000000000000000000000100003276628759HERCULES LIMA TAVARES                   RUA: ALFREDO MANSUR Nº 150 CASA 3 - MORBARRA DO PIR27150430BARRA DO PIRAI RJUNIAO UMB DOS CULTOS AFRO BRAS    22121710 000066
10231987175000168916200163100    00003997                     000039970000000000000109                     I023997      22121700000000350003410000017N171117104700000000000102212170000000000000000000000000000000000000000100032759827704TEREZA COSTA DE CASTRO                  RUA JOAO BATISTA DA FONSECA, 72         BARRA DO PIR27115020RIO DE JANEIRO RJUNIAO UMB DOS CULTOS AFRO BRAS    22121710 000067
10231987175000168916200163100    00003996                     000039960000000000000109                     I023996      22121700000000350003410000017N171117104700000000000102212170000000000000000000000000000000000000000100012732003735THAYS CRISTINA CAMPOS BARBOSA           RUA  LUIS BARBALHO 445                  ROCHA MIRAND21510110RIO DE JANEIRO RJUNIAO UMB DOS CULTOS AFRO BRAS    22121710 000068
10231987175000168916200163100    00003995                     000039950000000000000109                     I023995      22121700000000350003410000017N171117104700000000000102212170000000000000000000000000000000000000000100061009865749JORGINA OLEGARIO DE OLIVEIRA            O MESMO                                 O MESMO     24715671SAO GONCALO    RJUNIAO UMB DOS CULTOS AFRO BRAS    22121710 000069
10231987175000168916200163100    00003994                     000039940000000000000109                     I023994      22121700000000350003410000017N171117104700000000000102212170000000000000000000000000000000000000000100053207823734HELENICE TEODORO DA SILVA CARV          O MESMO                                 O MESMO     23026010RIO DE JANEIRO RJUNIAO UMB DOS CULTOS AFRO BRAS    22121710 000070
10231987175000168916200163100    00003993                     000039930000000000000109                     I023993      22121700000000350003410000017N171117104700000000000102212170000000000000000000000000000000000000000100079072283791MYRIAN AMORIM RIBEIRO                   O MESMO                                 O MESMO     21341332RIO DE JANEIRO RJUNIAO UMB DOS CULTOS AFRO BRAS    22121710 000071
10231987175000168916200163100    00003991                     000039910000000000000109                     I023991      22121700000000350003410000017N171117104700000000000102212170000000000000000000000000000000000000000100088224228720VERA MARIA DA SILVA                     O MESMO                                 O MESMO     24722270SAO GONCALO    RJUNIAO UMB DOS CULTOS AFRO BRAS    22121710 000072
10231987175000168916200163100    00003990                     000039900000000000000109                     I023990      22121700000000350003410000017N171117104700000000000102212170000000000000000000000000000000000000000100086464493787MARIA DE FATIMA SOUZA SILVA TE          O MESMO                                 O MESMO     21520290RIO DE JANEIRO RJUNIAO UMB DOS CULTOS AFRO BRAS    22121710 000073
10231987175000168916200163100    00003989                     000039890000000000000109                     I023989      22121700000000350003410000017N171117104700000000000102212170000000000000000000000000000000000000000100070727201700MARIA LUIZA AGENOR BERTHOR              RUA: MANOEL GAMA                        THOMAZINHO  25530361SAO JOAO DE MERRJUNIAO UMB DOS CULTOS AFRO BRAS    22121710 000074
10231987175000168916200163100    00003988                     000039880000000000000109                     I023988      22121700000000350003410000017N171117104700000000000102212170000000000000000000000000000000000000000100088966338797ZENIRA DE CARVALHO CONCEICAO            AVENIDA ALMIRANTE AMORIM DO VALE N 25   MARAMBAIA - 24724560SAO GONCALO    RJUNIAO UMB DOS CULTOS AFRO BRAS    22121710 000075
10231987175000168916200163100    00003986                     000039860000000000000109                     I023986      22121700000000350003410000017N171117104700000000000102212170000000000000000000000000000000000000000100058951733734ROSINEA MIRANDA CORREA DOS SAN          RUA: IGUACU N° 1367 CASA 2 - PARQUE LAFDUQUE DE CAX25015350DUQUE DE CAXIASRJUNIAO UMB DOS CULTOS AFRO BRAS    22121710 000076
10231987175000168916200163100    00003985                     000039850000000000000109                     I023985      22121700000000350003410000017N171117104700000000000102212170000000000000000000000000000000000000000100077575644768ROBSON ANDRE GONCALVES OUREM            RUA: RECIFE N° 237 CAMPOS ELISIOS      DUQUE DE CAX21032060RIO DE JANEIRO RJUNIAO UMB DOS CULTOS AFRO BRAS    22121710 000077
10231987175000168916200163100    00003984                     000039840000000000000109                     I023984      22121700000000350003410000017N171117104700000000000102212170000000000000000000000000000000000000000100078190290720IARA PIO GOMES MARQUES                  RUA MARTINS SARAZATI LT 6 A E B QD 335  GUAXINDIBA -21510170RIO DE JANEIRO RJUNIAO UMB DOS CULTOS AFRO BRAS    22121710 000078
10231987175000168916200163100    00003983                     000039830000000000000109                     I023983      22121700000000350003410000017N171117104700000000000102212170000000000000000000000000000000000000000100008601426719DAMIANA CRISTINA TORRES DA SIL          RUA: JAGUAPITAN LOTE 19 QUADRA 121 - SANCOSMO - CAMP23060210RIO DE JANEIRO RJUNIAO UMB DOS CULTOS AFRO BRAS    22121710 000079
10231987175000168916200163100    00003982                     000039820000000000000109                     I023982      22121700000000350003410000017N171117104700000000000102212170000000000000000000000000000000000000000100063791080768ANTONIO DE OLIVEIRA                     O MESMO                                 O MESMO     24722060SAO GONCALO    RJUNIAO UMB DOS CULTOS AFRO BRAS    22121710 000080
10231987175000168916200163100    00003981                     000039810000000000000109                     I023981      22121700000000350003410000017N171117104700000000000102212170000000000000000000000000000000000000000200000000011110LUCIENE CRISTINA DE OLIVEIRA S          RUA: FRANCISCO MENDES FRANCO            BARRA DO PIR27135170BARRA DO PIRAI RJUNIAO UMB DOS CULTOS AFRO BRAS    22121710 000081
10231987175000168916200163100    00003980                     000039800000000000000109                     I023980      22121700000000350003410000017N171117104700000000000102212170000000000000000000000000000000000000000100004398474381ANDREIA MODESTO DA SILVA                RUA K, LOTE 21 QUADRA 16                JARDIM BARRO26267330DUQUE DE CAXIASRJUNIAO UMB DOS CULTOS AFRO BRAS    22121710 000082
10231987175000168916200163100    00003978                     000039780000000000000109                     I023978      22121700000000350003410000017N171117104700000000000102212170000000000000000000000000000000000000000100011704321743TATIENE DE SOUZA FRANCA DA SIL          RUA: CAMINHO DA ILHA Nº 112            ILHA DE GUAR23020200RIO DE JANEIRO RJUNIAO UMB DOS CULTOS AFRO BRAS    22121710 000083
10231987175000168916200163100    00003977                     000039770000000000000109                     I023977      22121700000000350003410000017N171117104700000000000102212170000000000000000000000000000000000000000100000890225729MARINA DA SILVA ANGELO                  RUA: DOZE LOTE 6 QUADRA 36 FRENTE       ITAMBI - ITA24866456ITABORAI       RJUNIAO UMB DOS CULTOS AFRO BRAS    22121710 000084
10231987175000168916200163100    00003976                     000039760000000000000109                     I023976      22121700000000350003410000017N171117104700000000000102212170000000000000000000000000000000000000000100001343627729RICARDO CADER DA SILVA                  RUA: MONCLARO MENA BARRETO N° 49       VILA VALQUEI22010010RIO DE JANEIRO RJUNIAO UMB DOS CULTOS AFRO BRAS    22121710 000085
10231987175000168916200163100    00003975                     000039750000000000000109                     I023975      22121700000000350003410000017N171117104700000000000102212170000000000000000000000000000000000000000100006193629793ALESSANDRA SANTOS DE OLIVEIRA           AVENIDA: FLEXEIRA N° 1085 - ENGENHEIRO JAPERI - RJ 26413250JAPERI         RJUNIAO UMB DOS CULTOS AFRO BRAS    22121710 000086
10231987175000168916200163100    00003974                     000039740000000000000109                     I023974      22121700000000350003410000017N171117104700000000000102212170000000000000000000000000000000000000000100010026253780NILZA MARIA BERNARDO MATIAS             RUA: MARIA DE ABREU N° 1 - SANTISSIMO  RIO DE JANEI23098050RIO DE JANEIRO RJUNIAO UMB DOS CULTOS AFRO BRAS    22121710 000087
10231987175000168916200163100    00003973                     000039730000000000000109                     I023973      22121700000000350003410000017N171117104700000000000102212170000000000000000000000000000000000000000100001596786760LINDEMBERG DE SOUZA AMARAL              RUA: SACOPAN Nº 98                     BOTAFOGO - N26041480NOVA IGUACU    RJUNIAO UMB DOS CULTOS AFRO BRAS    22121710 000088
10231987175000168916200163100    00003972                     000039720000000000000109                     I023972      22121700000000350003410000017N171117104700000000000102212170000000000000000000000000000000000000000100075874520791MARIA JOSE MELO DA SILVA                RUA SIDNEY, 155 - CONJUNTO BOA ESPERANCAPARAISO - NO26297249NOVA IGUACU    RJUNIAO UMB DOS CULTOS AFRO BRAS    22121710 000089
10231987175000168916200163100    00003971                     000039710000000000000109                     I023971      22121700000000350003410000017N171117104700000000000102212170000000000000000000000000000000000000000100076719588753JULIO CESAR CASTRILON                   RUA: SANTA TEREZINHA Nº 788            MURIQUI - MA23870000MANGARATIBA    RJUNIAO UMB DOS CULTOS AFRO BRAS    22121710 000090
10231987175000168916200163100    00003970                     000039700000000000000109                     I023970      22121700000000350003410000017N171117104700000000000102212170000000000000000000000000000000000000000100003554736740TANIA CAMPOS CAMILLO                    RUA: GUATAMBU LOTE 4 QUADRA 9 - VILA ERABELFORD ROXO26167750BELFORD ROXO   RJUNIAO UMB DOS CULTOS AFRO BRAS    22121710 000091
10231987175000168916200163100    00003969                     000039690000000000000109                     I023969      22121700000000350003410000017N171117104700000000000102212170000000000000000000000000000000000000000100002349584720UANDERSON MARTINS DE PAULA              RUA MUNIZ E BARROS Nº 988 APTº 102    MIGUEL PEREI26910000MIGUEL PEREIRA RJUNIAO UMB DOS CULTOS AFRO BRAS    22121710 000092
10231987175000168916200163100    00003968                     000039680000000000000109                     I023968      22121700000000350003410000017N171117104700000000000102212170000000000000000000000000000000000000000100099213133715CLAUDIO LOPES ALBINO                    RUA: MARECHAL AGRICOLA N° 856 CASA 6   REALENGO - R21735370RIO DE JANEIRO RJUNIAO UMB DOS CULTOS AFRO BRAS    22121710 000093
10231987175000168916200163100    00003967                     000039670000000000000109                     I023967      22121700000000350003410000017N171117104700000000000102212170000000000000000000000000000000000000000100008324809759CARLA DA SILVA JUSTINO                  RUA DAS CAMELIAS, QUADRA 12 LOTE 5      PIRANEMA - I23855220ITAGUAI        RJUNIAO UMB DOS CULTOS AFRO BRAS    22121710 000094
10231987175000168916200163100    00003964                     000039640000000000000109                     I023964      22121700000000350003410000017N171117104700000000000102212170000000000000000000000000000000000000000200000000011045MATEUS SILVA BORGES                     ALAMEDA DOS EUCALIPTOS N 29             GENECIANO - 26061694NOVA IGUACU    RJUNIAO UMB DOS CULTOS AFRO BRAS    22121710 000095
10231987175000168916200163100    00003943                     000039430000000000000109                     I023943      22121700000000350003410000017N171117104700000000000102212170000000000000000000000000000000000000000100008311073759ANDERSON DA ANUNCIACAO SILVA            RUA ROLDAO GONCALVES, 2571 CASA 1       CABRAL - NIL26520541NILOPOLIS      RJUNIAO UMB DOS CULTOS AFRO BRAS    22121710 000096
10231987175000168916200163100    00003815                     000038150000000000000109                     I023815      22121700000000350003410000017N171117104700000000000102212170000000000000000000000000000000000000000100021973989700NILZA ARAGUEZ                           RUA PAJURA, 117 BLOCO 2 APTO 106        TAQUARA - RI22740210RIO DE JANEIRO RJUNIAO UMB DOS CULTOS AFRO BRAS    22121710 000097
10231987175000168916200163100    00003742                     000037420000000000000109                     I023742      22121700000000350003410000017N171117104700000000000102212170000000000000000000000000000000000000000100008874438770MARCIA MARIA DOS SANTOS                 RUA HENRIQUE VALADARES N 47 APT 506     CENTRO - RJ 20231030RIO DE JANEIRO RJUNIAO UMB DOS CULTOS AFRO BRAS    22121710 000098
10231987175000168916200163100    00003740                     000037400000000000000109                     I023740      22121700000000350003410000017N171117104700000000000102212170000000000000000000000000000000000000000100084161973772MARCOS ANTONIO VIEIRA BAPTISTA          RUA CARLOS GONCALVES PENNA, 42          ENGENHO DA R20761330RIO DE JANEIRO RJUNIAO UMB DOS CULTOS AFRO BRAS    22121710 000099
10231987175000168916200163100    00003738                     000037380000000000000109                     I023738      22121700000000350003410000017N171117104700000000000102212170000000000000000000000000000000000000000100002190466709CARLOS ROBERTO RIBEIRO DA CONC          RUA NOSSA SENHORA DAS GRACAS N 40       MOSELA - PET25675111PETROPOLIS     RJUNIAO UMB DOS CULTOS AFRO BRAS    22121710 000100
10231987175000168916200163100    00003735                     000037350000000000000109                     I023735      22121700000000350003410000017N171117104700000000000102212170000000000000000000000000000000000000000100074789600734SOLANGE MARTINS                         RUA ITAJIBA N 889                       COSMOS - RIO23060450RIO DE JANEIRO RJUNIAO UMB DOS CULTOS AFRO BRAS    22121710 000101
10231987175000168916200163100    00003732                     000037320000000000000109                     I023732      22121700000000350003410000017N171117104700000000000102212170000000000000000000000000000000000000000100002418033732EDSON LUIZ ALVES DE CARVALHO            AVENIDA PORTO SEGURO, 526 ANTIGA RUA 30 LAGOMAR - MA27966870MACAE          RJUNIAO UMB DOS CULTOS AFRO BRAS    22121710 000102
10231987175000168916200163100    00003731                     000037310000000000000109                     I023731      22121700000000350003410000017N171117104700000000000102212170000000000000000000000000000000000000000100065196171720MARIA DAS GRACAS OLIVEIRA               RUA FRANCISCO MANOEL, 22                PONTO CHIQUE26032835NOVA IGUACU    RJUNIAO UMB DOS CULTOS AFRO BRAS    22121710 000103
10231987175000168916200163100    00003725                     000037250000000000000109                     I023725      22121700000000350003410000017N171117104700000000000102212170000000000000000000000000000000000000000100007346014766LUCIANO FREIRE DE FRANCA                AV. AMARO CAVALCANTE, 2283 CASA 5       ENGENHO DE D20735042RIO DE JANEIRO RJUNIAO UMB DOS CULTOS AFRO BRAS    22121710 000104
10231987175000168916200163100    00003724                     000037240000000000000109                     I023724      22121700000000350003410000017N171117104700000000000102212170000000000000000000000000000000000000000100044631154772LINDOMAR SOARES BERNARDO                RUA FEIRA DE SANTANA, LOTE 8 QUADRA 17  PARQUE NOVO 25585100SAO JOAO DE MERRJUNIAO UMB DOS CULTOS AFRO BRAS    22121710 000105
10231987175000168916200163100    00003722                     000037220000000000000109                     I023722      22121700000000350003410000017N171117104700000000000102212170000000000000000000000000000000000000000100002691338797MAURICEIA DE OLIVEIRA                   ESTRADA DA BARRINHA, 50                 HABITAT - TR25804970TRES RIOS      RJUNIAO UMB DOS CULTOS AFRO BRAS    22121710 000106
10231987175000168916200163100    00003720                     000037200000000000000109                     I023720      22121700000000350003410000017N171117104700000000000102212170000000000000000000000000000000000000000100001145934773ELENICE DE SOUZA SILVA ARRUDA           RUA SEVERIANO MONTEIRO, 271 CASA 3      VISTA ALEGRE21235620RIO DE JANEIRO RJUNIAO UMB DOS CULTOS AFRO BRAS    22121710 000107
10231987175000168916200163100    00003719                     000037190000000000000109                     I023719      22121700000000350003410000017N171117104700000000000102212170000000000000000000000000000000000000000100031410715787LUZIA ELISIARIA DE FREITAS              RUA EXPEDICIONARIO JOSE AMARO, 84       VILA SAO LUI25065090DUQUE DE CAXIASRJUNIAO UMB DOS CULTOS AFRO BRAS    22121710 000108
10231987175000168916200163100    00003717                     000037170000000000000109                     I023717      22121700000000350003410000017N171117104700000000000102212170000000000000000000000000000000000000000100035838493704CELMO JOSE DE SOUZA                     RUA DA CONCEICAO, 188 SALA 1204 A B     CENTRO - NIT24020087NITEROI        RJUNIAO UMB DOS CULTOS AFRO BRAS    22121710 000109
10231987175000168916200163100    00003716                     000037160000000000000109                     I023716      22121700000000350003410000017N171117104700000000000102212170000000000000000000000000000000000000000100067267258753RITA DE CASSIA DIACOVO PELLITO          RUA ANDRE AZEVEDO, 87 CASA 101 BLOCO 25 OLARIA  - RI21021480RIO DE JANEIRO RJUNIAO UMB DOS CULTOS AFRO BRAS    22121710 000110
10231987175000168916200163100    00003713                     000037130000000000000109                     I023713      22121700000000350003410000017N171117104700000000000102212170000000000000000000000000000000000000000100001376959771CLAUDIA REGINA MARQUES DA SILV          RUA EPITACIO PESSOA, LOTE 23 QUADRA 55  JD.BARRO BRA25267110DUQUE DE CAXIASRJUNIAO UMB DOS CULTOS AFRO BRAS    22121710 000111
10231987175000168916200163100    00003712                     000037120000000000000109                     I023712      22121700000000350003410000017N171117104700000000000102212170000000000000000000000000000000000000000100088341534720RAIMUNDA BERNADINA DE OLIVEIRA          ESTRADA DA GAVEA - TRAVESSA UNIAO, 29 RUGAVEA - RIO 22451530RIO DE JANEIRO RJUNIAO UMB DOS CULTOS AFRO BRAS    22121710 000112
10231987175000168916200163100    00003711                     000037110000000000000109                     I023711      22121700000000350003410000017N171117104700000000000102212170000000000000000000000000000000000000000100010091566754MARIA DE LOURDES LOPES MELLO            AVENIDA ERNANI DO AMARAL PEIXOTO, 460 APCENTRO - NIT24020077NITEROI        RJUNIAO UMB DOS CULTOS AFRO BRAS    22121710 000113
10231987175000168916200163100    00003710                     000037100000000000000109                     I023710      22121700000000350003410000017N171117104700000000000102212170000000000000000000000000000000000000000100085725730700MARIA LUCIA DA SILVA BORGES             RUA CACIPORE, 1273                      JARDIM OLAVO25036040DUQUE DE CAXIASRJUNIAO UMB DOS CULTOS AFRO BRAS    22121710 000114
10231987175000168916200163100    00003709                     000037090000000000000109                     I023709      22121700000000350003410000017N171117104700000000000102212170000000000000000000000000000000000000000100045910303787PAULO ROBERTO DE OLIVEIRA DRUB          RUA ARGEMIRO DE HUNGRIA MACHADO, 195    GUADALUPE - 21670290RIO DE JANEIRO RJUNIAO UMB DOS CULTOS AFRO BRAS    22121710 000115
10231987175000168916200163100    00003486                     000034860000000000000109                     I023486      22121700000000350003410000017N171117104700000000000102212170000000000000000000000000000000000000000100071277574790GILBERTO ALVES DE SOUZA                 O MESMO                                 O MESMO     26083620NOVA IGUACU    RJUNIAO UMB DOS CULTOS AFRO BRAS    22121710 000116
10231987175000168916200163100    00003485                     000034850000000000000109                     I023485      22121700000000350003410000017N171117104700000000000102212170000000000000000000000000000000000000000100079758517791NEY PEREIRA LEITE                       O MESMO                                 O MESMO     21735002RIO DE JANEIRO RJUNIAO UMB DOS CULTOS AFRO BRAS    22121710 000117
10231987175000168916200163100    00003484                     000034840000000000000109                     I023484      22121700000000350003410000017N171117104700000000000102212170000000000000000000000000000000000000000100005256804707SUSI ROSANA DE OLIVEIRA - JANA          O MESMO                                 O MESMO     21765000RIO DE JANEIRO RJUNIAO UMB DOS CULTOS AFRO BRAS    22121710 000118
10231987175000168916200163100    00003483                     000034830000000000000109                     I023483      22121700000000350003410000017N171117104700000000000102212170000000000000000000000000000000000000000100001789073758BERNADETE BURGOS AMORIM RANGEL          RUA: IMBUI Nº 120 - LARGO DO TANQUE    TANQUE / TAQ22730100RIO DE JANEIRO RJUNIAO UMB DOS CULTOS AFRO BRAS    22121710 000119
10231987175000168916200163100    00003482                     000034820000000000000109                     I023482      22121700000000350003410000017N171117104700000000000102212170000000000000000000000000000000000000000200000000002322SEBASTIANA MARIANO DIAS                 O MESMO                                 O MESMO     23811560ITAGUAI        RJUNIAO UMB DOS CULTOS AFRO BRAS    22121710 000120
10231987175000168916200163100    00003481                     000034810000000000000109                     I023481      22121700000000350003410000017N171117104700000000000102212170000000000000000000000000000000000000000100001345348754ADRIANA DE LELIS                        RUA DOIS QUADRA D LOTE 13               BAIRRO SILVE23092080RIO DE JANEIRO RJUNIAO UMB DOS CULTOS AFRO BRAS    22121710 000121
10231987175000168916200163100    00003480                     000034800000000000000109                     I023480      22121700000000350003410000017N171117104700000000000102212170000000000000000000000000000000000000000100000000002295CARLOS RENATO DE ABREU ALMEIDA          RUA GUIRAREIA Nº 131                   IRAJA - RJ  21371420RIO DE JANEIRO RJUNIAO UMB DOS CULTOS AFRO BRAS    22121710 000122
10231987175000168916200163100    00003479                     000034790000000000000109                     I023479      22121700000000350003410000017N171117104700000000000102212170000000000000000000000000000000000000000100004287865707MARIA LUISA DE OLIVEIRA LIREO           RUA PORTO CARRERO N 333                 CORDOVIL - R21250260RIO DE JANEIRO RJUNIAO UMB DOS CULTOS AFRO BRAS    22121710 000123
10231987175000168916200163100    00003478                     000034780000000000000109                     I023478      22121700000000350003410000017N171117104700000000000102212170000000000000000000000000000000000000000100062435710763ELI LIMA DOS SANTOS                     RUA DO VERDE CASA 3                     CURICICA - R22712001RIO DE JANEIRO RJUNIAO UMB DOS CULTOS AFRO BRAS    22121710 000124
10231987175000168916200163100    00003475                     000034750000000000000109                     I023475      22121700000000350003410000017N171117104700000000000102212170000000000000000000000000000000000000000200000000007813ANDIRA DE SOUZA                         RUA PERSEVERANCA N 5                    VILA GRATIDA26087415NOVA IGUACU    RJUNIAO UMB DOS CULTOS AFRO BRAS    22121710 000125
10231987175000168916200163100    00003473                     000034730000000000000109                     I023473      22121700000000350003410000017N171117104700000000000102212170000000000000000000000000000000000000000200000000001688MAGNO AGUIAR DA SILVA                   RUA DOM PEDRO I, 1 FUNDOS               PRAIA GRANDE28930000ARRAIAL DO CABORJUNIAO UMB DOS CULTOS AFRO BRAS    22121710 000126
10231987175000168916200163100    00003471                     000034710000000000000109                     I023471      22121700000000350003410000017N171117104700000000000102212170000000000000000000000000000000000000000100006932718766CARLOS EDUARDO DE OLIVEIRA              TRAVESSA CARLOS SAMPAIO QUADRA 2 LOTE 23AUSTIN - NOV26087287NOVA IGUACU    RJUNIAO UMB DOS CULTOS AFRO BRAS    22121710 000127
10231987175000168916200163100    00003470                     000034700000000000000109                     I023470      22121700000000350003410000017N171117104700000000000102212170000000000000000000000000000000000000000100043116248753NORMA FELIX DA SILVA PEREIRA            RUA HENRIQUE MARTINS LOTE 24 QUADRA 17  LAGOINHA - S24736130SAO GONCALO    RJUNIAO UMB DOS CULTOS AFRO BRAS    22121710 000128
10231987175000168916200163100    00003469                     000034690000000000000109                     I023469      22121700000000350003410000017N171117104700000000000102212170000000000000000000000000000000000000000200000000007615SONIA MARIA DA SILVA DELLIVENE          AV PLINIO GOMES DE MATTOS FILHO N 278   VARZEA DAS M24330430SAO GONCALO    RJUNIAO UMB DOS CULTOS AFRO BRAS    22121710 000129
10231987175000168916200163100    00003468                     000034680000000000000109                     I023468      22121700000000350003410000017N171117104700000000000102212170000000000000000000000000000000000000000100058073787768ELENICE FEITOSA SANTOS                  RUA NOVE LOTE 9                         VILA FLUMINE24800000ITABORAI       RJUNIAO UMB DOS CULTOS AFRO BRAS    22121710 000130
10231987175000168916200163100    00003464                     000034640000000000000109                     I023464      22121700000000350003410000017N171117104700000000000102212170000000000000000000000000000000000000000100073772372791ROBERTO SOARES DE PAIVA                 RUA ROBERTO CABRAL, 247                 JUREMA - GUA23035384GUARATIBA      RJUNIAO UMB DOS CULTOS AFRO BRAS    22121710 000131
10231987175000168916200163100    00003463                     000034630000000000000109                     I023463      22121700000000350003410000017N171117104700000000000102212170000000000000000000000000000000000000000100005552174771COSME DIAS DA SILVA                     TRAVESSA JOSELINA DE ANDRADE N 43       PORTO NOVO -24435811SAO GONCALO    RJUNIAO UMB DOS CULTOS AFRO BRAS    22121710 000132
10231987175000168916200163100    00003462                     000034620000000000000109                     I023462      22121700000000350003410000017N171117104700000000000102212170000000000000000000000000000000000000000100013222460760VITOR NERY DO AMARAL                    RUA MARIA PARIS, 342                    PAIOL - NILO26545600NILOPOLIS      RJUNIAO UMB DOS CULTOS AFRO BRAS    22121710 000133
10231987175000168916200163100    00003461                     000034610000000000000109                     I023461      22121700000000350003410000017N171117104700000000000102212170000000000000000000000000000000000000000100064262839753MARIA JOSE SOUZA DOS SANTOS             RUA JOSE LIMA DA SILVA, 29              MARIA - BELF26185610BELFORD ROXO   RJUNIAO UMB DOS CULTOS AFRO BRAS    22121710 000134
10231987175000168916200163100    00003460                     000034600000000000000109                     I023460      22121700000000350003410000017N171117104700000000000102212170000000000000000000000000000000000000000100086374370791IVETE SILVA GOMES                       RUA SEIS LOTE 329                       GEBARA - ITA24867416NITEROI        RJUNIAO UMB DOS CULTOS AFRO BRAS    22121710 000135
10231987175000168916200163100    00003456                     000034560000000000000109                     I023456      22121700000000350003410000017N171117104700000000000102212170000000000000000000000000000000000000000100083650636780MARIZA MIRANDA                          RUA ALEXANDRINO N 120                   POSSE - NOVA26020247NOVA IGUACU    RJUNIAO UMB DOS CULTOS AFRO BRAS    22121710 000136
10231987175000168916200163100    00003454                     000034540000000000000109                     I023454      22121700000000350003410000017N171117104700000000000102212170000000000000000000000000000000000000000100064817008768MARINEIDE JOSE DOS SANTOS DA S          RUA: F Nº CASA 29 - ALTO DA POSSE      O MESMO     26020700QUEIMADOS      RJUNIAO UMB DOS CULTOS AFRO BRAS    22121710 000137
10231987175000168916200163100    00003453                     000034530000000000000109                     I023453      22121700000000350003410000017N171117104700000000000102212170000000000000000000000000000000000000000200000000001652MARIA APARECIDA DOS SANTOS CYP          ESTRADA DO SABONETE, LOTE 25 QUADRA D   ARSENAL - SA24745224SAO GONCALO    RJUNIAO UMB DOS CULTOS AFRO BRAS    22121710 000138
10231987175000168916200163100    00003452                     000034520000000000000109                     I023452      22121700000000350003410000017N171117104700000000000102212170000000000000000000000000000000000000000100000000006961IVONE GOMES BERNARDES                   O MESMO                                 O MESMO     25030410DUQUE DE CAXIASRJUNIAO UMB DOS CULTOS AFRO BRAS    22121710 000139
10231987175000168916200163100    00003451                     000034510000000000000109                     I023451      22121700000000350003410000017N171117104700000000000102212170000000000000000000000000000000000000000100000000006956ANA MARIA CORREIA DA SILVA              O MESMO                                 O MESMO     25030410DUQUE DE CAXIASRJUNIAO UMB DOS CULTOS AFRO BRAS    22121710 000140
10231987175000168916200163100    00003449                     000034490000000000000109                     I023449      22121700000000350003410000017N171117104700000000000102212170000000000000000000000000000000000000000200000000001055ELZA DE AZEVEDO ALVES                   RUA CACEQUI, 436 APTO 101 FUNDOS        BRAS DE PINA21210760RIO DE JANEIRO RJUNIAO UMB DOS CULTOS AFRO BRAS    22121710 000141
10231987175000168916200163100    00003432                     000034320000000000000109                     I023432      22121700000000350003410000017N171117104700000000000102212170000000000000000000000000000000000000000100086634402787ZILDA GIMENIZ NOGUEIRA                  RUA: ESPIRITO SANTO Nº 25 - PRAIA LINDASAO PEDRO DA28940000SAO PEDRO DA ALRJUNIAO UMB DOS CULTOS AFRO BRAS    22121710 000142
10231987175000168916200163100    00003430                     000034300000000000000109                     I023430      22121700000000350003410000017N171117104700000000000102212170000000000000000000000000000000000000000200000000007677JOSELINA SILVA                          RUA JOSE MELO PIRES LOTE 17 QUADRA 9    COELHO - ARS24745150SAO GONCALO    RJUNIAO UMB DOS CULTOS AFRO BRAS    22121710 000143
10231987175000168916200163100    00003429                     000034290000000000000109                     I023429      22121700000000350003410000017N171117104700000000000102212170000000000000000000000000000000000000000200000000007600LUCIMAR FIGUEIREDO NASCIMENTO           RUA TAMANDUATEI N 215                   CRUZEIRO DO 26012775NOVA IGUACU    RJUNIAO UMB DOS CULTOS AFRO BRAS    22121710 000144
10231987175000168916200163100    00003232                     000032320000000000000109                     I023232      22121700000000350003410000017N171117104700000000000102212170000000000000000000000000000000000000000200000000006239NEUZA SANTOS DE BRITO                   ESTRADA DO MOINHO, 2373                 CAMPO GRANDE23040550RIO DE JANEIRO RJUNIAO UMB DOS CULTOS AFRO BRAS    22121710 000145
10231987175000168916200163100    00003231                     000032310000000000000109                     I023231      22121700000000350003410000017N171117104700000000000102212170000000000000000000000000000000000000000100010949478733AUCELIA MARIA DE SOUZA LIMA             RUA JOSE FRANCISCO DE SOUZA PORTO, 229  ARNALDO EUGE23016010RIO DE JANEIRO RJUNIAO UMB DOS CULTOS AFRO BRAS    22121710 000146
10231987175000168916200163100    00003229                     000032290000000000000109                     I023229      22121700000000350003410000017N171117104700000000000102212170000000000000000000000000000000000000000200000000006165ELISABETE JORDAO DOS SANTOS             RUA GENERAL MANOEL RABELO, 1025         VILA SAO LUI25065050DUQUE DE CAXIASRJUNIAO UMB DOS CULTOS AFRO BRAS    22121710 000147
10231987175000168916200163100    00003228                     000032280000000000000109                     I023228      22121700000000350003410000017N171117104700000000000102212170000000000000000000000000000000000000000200000000006133JOSE CARLOS DE OLIVEIRA                 RUA NICOLAU TOLENTINO, 315              CALIFORNIA -27163000BARRA DO PIRAI RJUNIAO UMB DOS CULTOS AFRO BRAS    22121710 000148
10231987175000168916200163100    00003227                     000032270000000000000109                     I023227      22121700000000350003410000017N171117104700000000000102212170000000000000000000000000000000000000000100049720147768LEDA MARIA DOS SANTOS LEAL              RUA JOSE FIRMINO DE MELO, 247           QUIMICA - BA27130360BARRA DO PIRAI RJUNIAO UMB DOS CULTOS AFRO BRAS    22121710 000149
10231987175000168916200163100    00003226                     000032260000000000000109                     I023226      22121700000000350003410000017N171117104700000000000102212170000000000000000000000000000000000000000200000000006076CLEIA DE OLIVEIRA                       RUA FRANCISCO FRANCO, 134               REPRESA - BA27135110BARRA DO PIRAI RJUNIAO UMB DOS CULTOS AFRO BRAS    22121710 000150
10231987175000168916200163100    00003225                     000032250000000000000109                     I023225      22121700000000350003410000017N171117104700000000000102212170000000000000000000000000000000000000000200000000006073ARACI AMELIA DA SILVA RIBEIRO           RUA ALIPIO GOMES DOS SANTOS, 493        JARDIM AMERI27340230BARRA DO PIRAI RJUNIAO UMB DOS CULTOS AFRO BRAS    22121710 000151
10231987175000168916200163100    00003224                     000032240000000000000109                     I023224      22121700000000350003410000017N171117104700000000000102212170000000000000000000000000000000000000000100000000006052GERALDA PEIXOTO                         AVENIDA MINISTRO AMARAL PEIXOTO, 3640   SIDERLANDIA 27350370BARRA MANSA    RJUNIAO UMB DOS CULTOS AFRO BRAS    22121710 000152
10231987175000168916200163100    00003221                     000032210000000000000109                     I023221      22121700000000350003410000017N171117104700000000000102212170000000000000000000000000000000000000000200000000005978NEUZA MORAES TAVARES                    RUA RUBENS BARCELLOS, 207               VILA ORLANDE27325260BARRA MANSA    RJUNIAO UMB DOS CULTOS AFRO BRAS    22121710 000153
10231987175000168916200163100    00003220                     000032200000000000000109                     I023220      22121700000000350003410000017N171117104700000000000102212170000000000000000000000000000000000000000100001411422783ANITA ANTONIA DOS REIS                  RUA SEABRA SOBRINHO, 413                CENTENARIO -25030190DUQUE DE CAXIASRJUNIAO UMB DOS CULTOS AFRO BRAS    22121710 000154
10231987175000168916200163100    00003219                     000032190000000000000109                     I023219      22121700000000350003410000017N171117104700000000000102212170000000000000000000000000000000000000000100053768175715DAMIANA MARTINS DA SILVA                RUA ARABORI, 262                        ROCHA MIRAND21545120RIO DE JANEIRO RJUNIAO UMB DOS CULTOS AFRO BRAS    22121710 000155
10231987175000168916200163100    00003216                     000032160000000000000109                     I023216      22121700000000350003410000017N171117104700000000000102212170000000000000000000000000000000000000000100000000001303ANGELA MARIA CALIXTO ARRUDA             RUA BRUGES,160                          VILA VALQUEI21330170RIO DE JANEIRO RJUNIAO UMB DOS CULTOS AFRO BRAS    22121710 000156
10231987175000168916200163100    00003215                     000032150000000000000109                     I023215      22121700000000350003410000017N171117104700000000000102212170000000000000000000000000000000000000000200000000001219IOLANDA CUSTODIA DA ROSA                RUA CLODOMIR LUCAS DOS REIS, 14         CURICICA - J22713562RIO DE JANEIRO RJUNIAO UMB DOS CULTOS AFRO BRAS    22121710 000157
10231987175000168916200163100    00003213                     000032130000000000000109                     I023213      22121700000000350003410000017N171117104700000000000102212170000000000000000000000000000000000000000200000000001355VALDEA PEREIRA SIQUEIRA                 RUA BORDA DO MATO, 415                  GRAJAU - RIO20561200RIO DE JANEIRO RJUNIAO UMB DOS CULTOS AFRO BRAS    22121710 000158
10231987175000168916200163100    00003212                     000032120000000000000109                     I023212      22121700000000350003410000017N171117104700000000000102212170000000000000000000000000000000000000000200000000001330JORGE ALAN COSTA DE CASTRO              RUA CAPITAO MARIO NOVAES, 87            CENTRO - BAR27123110BARRA DO PIRAI RJUNIAO UMB DOS CULTOS AFRO BRAS    22121710 000159
10231987175000168916200163100    00003211                     000032110000000000000109                     I023211      22121700000000350003410000017N171117104700000000000102212170000000000000000000000000000000000000000200000000001308CACILDA AQUINO DOS SANTOS               RUA CATULO CEARENSE, 119                MEIER  - RJ 20730320RIO DE JANEIRO RJUNIAO UMB DOS CULTOS AFRO BRAS    22121710 000160
10231987175000168916200163100    00003209                     000032090000000000000109                     I023209      22121700000000350003410000017N171117104700000000000102212170000000000000000000000000000000000000000100080266592791ROSINEA DA SILVA CARDOSO                TRAVESSA GITAI, 190 CASA 3              COLONIA - JA22713566RIO DE JANEIRO RJUNIAO UMB DOS CULTOS AFRO BRAS    22121710 000161
10231987175000168916200163100    00002445                     000024450000000000000109                     I022445      31121700000000035003410000017N131117104700000000000103112170000000000000000000000000000000000000000100005215642710ROBERTA LIMA GRIJO                      RUA FLORANIA, 475                       VISTA ALEGRE21230700RIO DE JANEIRO RJUNIAO UMB DOS CULTOS AFRO BRAS    31121710 000162
9                                                                                                                                                                                                                                                                                                                                                                                                         000163
