01REMESSA01COBRANCA       916200163100        União Umb dos Cultos Afro Bra341BANCO ITAU SA  230519                                                                                                                                                                                                                                                                                                      000001
10231987175000168916200163100    000045001                    000450010000000000000109                     I3445001     30061900000000040003410000017N040419105700000000000103006190000000000000000000000000000000000000000100008039606705LOURDES BEATRIZ DE ALMEIDA              AVENIDA JOAQUIM DE OLIVEIRAN 300,       BOA VISTA   24466142SAO GONCALO    RJUNIAO UMB DOS CULTOS AFRO BRAS    30061915 000002
10231987175000168916200163100    000045000                    000450000000000000000109                     I3445000     30051900000000040003410000017N040419105700000000000103005190000000000000000000000000000000000000000100008039606705LOURDES BEATRIZ DE ALMEIDA              AVENIDA JOAQUIM DE OLIVEIRAN 300,       BOA VISTA   24466142SAO GONCALO    RJUNIAO UMB DOS CULTOS AFRO BRAS    30051915 000003
10231987175000168916200163100    000043485                    000434850000000000000109                     I3443485     30061900000000040003410000017N130319105700000000000103006190000000000000000000000000000000000000000207280383000148CANTINHO DA VOVO MARIA CONGA D          RUA SARGENTO MARQUETIN 5,               MARECHAL HER21611000RIO DE JANEIRO RJUNIAO UMB DOS CULTOS AFRO BRAS    30061915 000004
10231987175000168916200163100    000043261                    000432610000000000000109                     I0243261     30061900000000040003410000017N130319105700000000000103006190000000000000000000000000000000000000000100069381933715NEUSA CAMPOS BRITO PINTO                RUA XAVIER PINHEIRON 525,               VIGARIO GERA21241320RIO DE JANEIRO RJUNIAO UMB DOS CULTOS AFRO BRAS    30061915 000005
10231987175000168916200163100    000041981                    000419810000000000000109                     I3441981     30051900000000040003410000017N130319105700000000000103005190000000000000000000000000000000000000000100062792920700LUIZ CESAR DE OLIVEIRA                  RUA PEREIRA DE FIGUEIREDON 627,         OSWALDO CRUZ21340030RIO DE JANEIRO RJUNIAO UMB DOS CULTOS AFRO BRAS    30051915 000006
10231987175000168916200163100    000041816                    000418160000000000000109                     I0241816     30051900000000040003410000017N130319105700000000000103005190000000000000000000000000000000000000000100005689170739KATIA SILENE MACEDO DOS SANTOS          RUA EUCLIDES ROXON 185,                 REALENGO    21765590RIO DE JANEIRO RJUNIAO UMB DOS CULTOS AFRO BRAS    30051915 000007
10231987175000168916200163100    000041621                    000416210000000000000109                     I0241621     30051900000000040003410000017N130319105700000000000103005190000000000000000000000000000000000000000100069381933715NEUSA CAMPOS BRITO PINTO                RUA XAVIER PINHEIRON 525,               VIGARIO GERA21241320RIO DE JANEIRO RJUNIAO UMB DOS CULTOS AFRO BRAS    30051915 000008
10231987175000168916200163100    000040183                    000401830000000000000109                     I0240183     30041900000000040003410000017N120319105700000000000103004190000000000000000000000000000000000000000100005689170739KATIA SILENE MACEDO DOS SANTOS          RUA EUCLIDES ROXON 185,                 REALENGO    21765590RIO DE JANEIRO RJUNIAO UMB DOS CULTOS AFRO BRAS    30041915 000009
10231987175000168916200163100    000040029                    000400290000000000000109                     I0240029     30041900000000040003410000017N120319105700000000000103004190000000000000000000000000000000000000000218374653000104ASSOCIACAO INZO NKOSI                   RUA: MARQUES CANARION 725,              NOSSA SENHOR26520770NILOPOLIS      RJUNIAO UMB DOS CULTOS AFRO BRAS    30041915 000010
10231987175000168916200163100    000039989                    000399890000000000000109                     I0239989     30041900000000040003410000017N120319105700000000000103004190000000000000000000000000000000000000000100069381933715NEUSA CAMPOS BRITO PINTO                RUA XAVIER PINHEIRON 525,               VIGARIO GERA21241320RIO DE JANEIRO RJUNIAO UMB DOS CULTOS AFRO BRAS    30041915 000011
9                                                                                                                                                                                                                                                                                                                                                                                                         000012
