01REMESSA01COBRANCA       916200163100        União Umb dos Cultos Afro Bra341BANCO ITAU SA  181018                                                                                                                                                                                                                                                                                                      000001
10231987175000168916200163100    000028641                    000286410000000000000109                     I0228641     15091800000000210003410000017N310818104700000000000101509180000000000000000000000000000000000000000100001413305709LUCIO MAURO DE AQUINO BARBOSA           RUA FAIA                                ROCHA MIRAND26032835RIO DE JANEIRO RJUNIAO UMB DOS CULTOS AFRO BRAS    15091810 000002
10231987175000168916200163100    000028619                    000286190000000000000109                     I0228619     15091800000000175003410000017N310818104700000000000101509180000000000000000000000000000000000000000100002161361724ELISANGELA VIRGINIA CARVALHO A          RUA MARIA BENJAMIN                      PILARES     20950360RIO DE JANEIRO RJUNIAO UMB DOS CULTOS AFRO BRAS    15091810 000003
10231987175000168916200163100    000020478                    000204780000000000000109                     I0220478     30081800000000040003410000017N070518104700000000000103008180000000000000000000000000000000000000000100005754715730RAPHAEL FEITAIS PASSERI                 RUA ITAUNA                              SAO JOSE DE 00000000MARICA         RJUNIAO UMB DOS CULTOS AFRO BRAS    30081810 000004
10231987175000168916200163100    000020460                    000204600000000000000109                     I0220460     30081800000000035003410000017N070518104700000000000103008180000000000000000000000000000000000000000100001413305709LUCIO MAURO DE AQUINO BARBOSA           RUA FAIA                                ROCHA MIRAND26032835RIO DE JANEIRO RJUNIAO UMB DOS CULTOS AFRO BRAS    30081810 000005
10231987175000168916200163100    000020069                    000200690000000000000109                     I0220069     30081800000000035003410000017N070518104700000000000103008180000000000000000000000000000000000000000100001230403701DENILSON MOTA DRUMOND                   RUA, ALVES DA COSTA                     CHANGRILA   26140320BELFORD ROXO   RJUNIAO UMB DOS CULTOS AFRO BRAS    30081810 000006
10231987175000168916200163100    000020041                    000200410000000000000109                     I0220041     30081800000000035003410000017N070518104700000000000103008180000000000000000000000000000000000000000100008679284769ANA PAULA DA SILVA BRAGA                RUA ELVIRA DA FONSECA                   TANQUE      22733150RIO DE JANEIRO RJUNIAO UMB DOS CULTOS AFRO BRAS    30081810 000007
10231987175000168916200163100    000020025                    000200250000000000000109                     I0220025     30081800000000035003410000017N070518104700000000000103008180000000000000000000000000000000000000000100007802202779ROBERTO DE OLIVEIRA ALONSO NET          RUA: VEREADOR FRANCISCO NUNES           CENTRO      26540040NILOPOLIS      RJUNIAO UMB DOS CULTOS AFRO BRAS    30081810 000008
10231987175000168916200163100    000019993                    000199930000000000000109                     I0219993     30081800000000035003410000017N070518104700000000000103008180000000000000000000000000000000000000000100060471859753MARLENE IBRAIN                          RUA: DOUTOR ALVARO DA PAIXAO JR         PARQUE AEROP27971180MACAE          RJUNIAO UMB DOS CULTOS AFRO BRAS    30081810 000009
10231987175000168916200163100    000019974                    000199740000000000000109                     I0219974     30081800000000035003410000017N070518104700000000000103008180000000000000000000000000000000000000000100057232350791NELSON CARNEIRO DA SILVA                RUA H                                   BADU        24320225NITEROI        RJUNIAO UMB DOS CULTOS AFRO BRAS    30081810 000010
10231987175000168916200163100    000019829                    000198290000000000000109                     I0219829     30081800000000035003410000017N070518104700000000000103008180000000000000000000000000000000000000000100092080570706EUZAMAR FONSECA SANTOS                  RUA MARAPENDI                           MARECHAL HER21557130RIO DE JANEIRO RJUNIAO UMB DOS CULTOS AFRO BRAS    30081810 000011
9                                                                                                                                                                                                                                                                                                                                                                                                         000012
