01REMESSA01COBRANCA       916200163100        União Umb dos Cultos Afro Bra341BANCO ITAU SA  050118                                                                                                                                                                                                                                                                                                      000001
10231987175000168916200163100    00008941                     000089410000000000000109                     I028941      10011800000000601853410000017N020118050900000000000101001180000000000000000000000000000000000000000100078566738772MARINA SOARES DA SILVA                  RUA: JOAO DANIEL                        BENTO RIBEIR21550480RIO DE JANEIRO RJUNIAO UMB DOS CULTOS AFRO BRAS    10011810 000002
10231987175000168916200163100    00008939                     000089390000000000000109                     I028939      10011800000000419173410000017N020118050900000000000101001180000000000000000000000000000000000000000100068760680725ANNA LUCIA DE SOUZA                     RUA: JOAO DANIEL                        BENTO RIBEIR21550480RIO DE JANEIRO RJUNIAO UMB DOS CULTOS AFRO BRAS    10011810 000003
10231987175000168916200163100    00008864                     000088640000000000000109                     I028864      31011800000000035003410000017N020118050900000000000103101180000000000000000000000000000000000000000100058369473768INDIODIRIA SANTANA DA SILVA             RUA LUIZ CARLOS DE OLIVEIRA 666         MIGUEL COUTO26070209NOVA IGUACU    RJUNIAO UMB DOS CULTOS AFRO BRAS    31011810 000004
10231987175000168916200163100    00008857                     000088570000000000000109                     I028857      31011800000000035003410000017N020118050900000000000103101180000000000000000000000000000000000000000100017483217731EROS PAULINO VELASCO KOPP               RUA VEREADOR ARTHUR MARQUES DOS SANTOS, SANTA RITA -26700000MENDES         RJUNIAO UMB DOS CULTOS AFRO BRAS    31011810 000005
10231987175000168916200163100    00008679                     000086790000000000000109                     I028679      31011800000000035003410000017N020118050900000000000103101180000000000000000000000000000000000000000100047171322704EUCEA GONCALVES BRANDAO                 RUA PEREIRA DE FIGUEIREDO, 280          OSWALDO CRUZ21341030RIO DE JANEIRO RJUNIAO UMB DOS CULTOS AFRO BRAS    31011810 000006
10231987175000168916200163100    00008663                     000086630000000000000109                     I028663      31011800000000035003410000017N020118050900000000000103101180000000000000000000000000000000000000000100005634227771BRUNO MACHADO TETE                      RUA SANATORIO, 173                      MADUREIRA   21350191RIO DE JANEIRO RJUNIAO UMB DOS CULTOS AFRO BRAS    31011810 000007
10231987175000168916200163100    00008497                     000084970000000000000109                     I028497      31011800000000035003410000017N020118050900000000000103101180000000000000000000000000000000000000000100096337273753GENETE FRAZAO DE OLIVEIRA               RUA APURINAS, 218 CASA 1                TURIACU - RJ21540310RIO DE JANEIRO RJUNIAO UMB DOS CULTOS AFRO BRAS    31011810 000008
10231987175000168916200163100    00008495                     000084950000000000000109                     I028495      31011800000000035003410000017N020118050900000000000103101180000000000000000000000000000000000000000100093440707768EDSON MONTEIRO DE ALMEIDA               RUA JOAQUIM TEIXEIRA, 90 APTO 103       OSVALDO CRUZ21351260RIO DE JANEIRO RJUNIAO UMB DOS CULTOS AFRO BRAS    31011810 000009
10231987175000168916200163100    00008421                     000084210000000000000109                     I028421      31011800000000035003410000017N020118050900000000000103101180000000000000000000000000000000000000000100043171974720ELISABETH AUGUSTO DA COSTA              O MESMO                                 O MESMO     21231000RIO DE JANEIRO RJUNIAO UMB DOS CULTOS AFRO BRAS    31011810 000010
10231987175000168916200163100    00004742                     000047420000000000000109                     I024742      05011800000000350003410000017N061217050900000000000100501180000000000000000000000000000000000000000100009409455766DANIELE MARTINS MEDEIROS DE FR          RUA D                                   BELA VISTA  23860000MANGARATIBA    RJUNIAO UMB DOS CULTOS AFRO BRAS    05011810 000011
10231987175000168916200163100    00004738                     000047380000000000000109                     I344738      20121700000000210003410000017N061217050900000000000102012170000000000000000000000000000000000000000100000920173713JORGE DOS SANTOS LUCAS                  RUA PP, LOTE 5 QUADRA 48                JARDIM ANHAN25264360DUQUE DE CAXIASRJUNIAO UMB DOS CULTOS AFRO BRAS    20121710 000012
10231987175000168916200163100    00004736                     000047360000000000000109                     I024736      02011800000000350003410000017N061217050900000000000100201180000000000000000000000000000000000000000100009409455766DANIELE MARTINS MEDEIROS DE FR          RUA D                                   BELA VISTA  23860000MANGARATIBA    RJUNIAO UMB DOS CULTOS AFRO BRAS    02011810 000013
10231987175000168916200163100    00004732                     000047320000000000000109                     I024732      13121700000000140003410000017N051217050900000000000101312170000000000000000000000000000000000000000100003798443700ALINE MODINA TELLES                     RUA DETETIVE PARADA N 8                 VILA DA PENH21221060RIO DE JANEIRO RJUNIAO UMB DOS CULTOS AFRO BRAS    13121710 000014
10231987175000168916200163100    00004703                     000047030000000000000109                     I024703      10121700000000824403410000017N301117050900000000000101012170000000000000000000000000000000000000000100013946879772ALDENI ALBENORA DA SILVA                RUA: JOAO DANIEL                        BENTO RIBEIR21550480RIO DE JANEIRO RJUNIAO UMB DOS CULTOS AFRO BRAS    10121710 000015
10231987175000168916200163100    00004695                     000046950000000000000109                     I344695      10121700000000779483410000017N301117050900000000000101012170000000000000000000000000000000000000000100062788213700MARIA DO ROSARIO DE MAGALHAES           RUA: ALCIDES MAIA                       BENTO RIBEIR21550560RIO DE JANEIRO RJUNIAO UMB DOS CULTOS AFRO BRAS    10121710 000016
10231987175000168916200163100    00004693                     000046930000000000000109                     I024693      10121700000000757893410000017N301117050900000000000101012170000000000000000000000000000000000000000100082228507768IARA LUCIA RIBEIRO QUINTINO             RUA: JOAO DANIEL                        BENTO RIBEIR21550480RIO DE JANEIRO RJUNIAO UMB DOS CULTOS AFRO BRAS    10121710 000017
10231987175000168916200163100    00004641                     000046410000000000000109                     I344641      20121700000000560003410000017N201117050900000000000102012170000000000000000000000000000000000000000100008326943711ANGELO ABREU MARTINS                    RUA D, LOTE 9 QUADRA 22                 MONTE VERDE 24857564ITABORAI       RJUNIAO UMB DOS CULTOS AFRO BRAS    20121710 000018
10231987175000168916200163100    00004640                     000046400000000000000109                     I024640      30111700000000070003410000017N171117050900000000000103011170000000000000000000000000000000000000000100086374370791IVETE SILVA GOMES                       RUA SEIS LOTE 329                       GEBARA - ITA24867416NITEROI        RJUNIAO UMB DOS CULTOS AFRO BRAS    30111710 000019
10231987175000168916200163100    00004577                     000045770000000000000109                     I344577      22121700000000350003410000017N171117050900000000000102212170000000000000000000000000000000000000000100024810517349SILANIA MARIA AGUIAR GOIS               ALAMEDA NOSSA SENHORA DAS GRACAS CASA 16FIGUEIRA - D25230580DUQUE DE CAXIASRJUNIAO UMB DOS CULTOS AFRO BRAS    22121710 000020
10231987175000168916200163100    00004564                     000045640000000000000109                     I024564      22121700000000350003410000017N171117050900000000000102212170000000000000000000000000000000000000000100090617249744RAQUEL DA PAZ                           RUA ITABIBOCA LOTE 10 QUADRA 342 (ANTIGAPARADA MORAB25265188DUQUE DE CAXIASRJUNIAO UMB DOS CULTOS AFRO BRAS    22121710 000021
10231987175000168916200163100    00004532                     000045320000000000000109                     I344532      22121700000000350003410000017N171117050900000000000102212170000000000000000000000000000000000000000100000680684760CREUSA MARCIA SATURNINO ALVES           RUA NOSSA SENHORA DE NAZARE N 8         GERENCIANO -26061700NOVA IGUACU    RJUNIAO UMB DOS CULTOS AFRO BRAS    22121710 000022
10231987175000168916200163100    00004421                     000044210000000000000109                     I024421      22121700000000350003410000017N171117050900000000000102212170000000000000000000000000000000000000000100002362714748MAGLENE GOMES ARAUJO                    RUA TENENTE PINTO DUARTE N 36           BENTO RIBEIR21550370RIO DE JANEIRO RJUNIAO UMB DOS CULTOS AFRO BRAS    22121710 000023
10231987175000168916200163100    00004397                     000043970000000000000109                     I344397      22121700000000350003410000017N171117050900000000000102212170000000000000000000000000000000000000000100003410130721ADELISE DE FREITAS PALACIO              RUA EMBIRI Nº 71 FUNDOS                BENTO RIBEIR21331690RIO DE JANEIRO RJUNIAO UMB DOS CULTOS AFRO BRAS    22121710 000024
10231987175000168916200163100    00004386                     000043860000000000000109                     I344386      22121700000000350003410000017N171117050900000000000102212170000000000000000000000000000000000000000100071653015772VALERIA RANGEL BEZERRA                  RUA FIRMINO FRAGOSO N 131 CASA 8 APT 101MADUREIRA - 21351090RIO DE JANEIRO RJUNIAO UMB DOS CULTOS AFRO BRAS    22121710 000025
10231987175000168916200163100    00004374                     000043740000000000000109                     I024374      22121700000000350003410000017N171117050900000000000102212170000000000000000000000000000000000000000100089497899734UGO SILVA FILHO                         RUA ITABAIANA N 49 APT 502              GRAJAU - RIO20561050RIO DE JANEIRO RJUNIAO UMB DOS CULTOS AFRO BRAS    22121710 000026
10231987175000168916200163100    00004161                     000041610000000000000109                     I024161      22121700000000350003410000017N171117050900000000000102212170000000000000000000000000000000000000000100001621539709ISABEL DA CONCEICAO DO NASCIME          RUA POLICARPO, 272                      SANTO ELIAS 26562100RIO DE JANEIRO RJUNIAO UMB DOS CULTOS AFRO BRAS    22121710 000027
10231987175000168916200163100    00004083                     000040830000000000000109                     I024083      22121700000000350003410000017N171117050900000000000102212170000000000000000000000000000000000000000100003370392755JAIRO TEIXEIRA VIANA                    RUA BELEM, 266                          REALENGO - R21730060RIO DE JANEIRO RJUNIAO UMB DOS CULTOS AFRO BRAS    22121710 000028
10231987175000168916200163100    00003940                     000039400000000000000109                     I343940      22121700000000350003410000017N171117050900000000000102212170000000000000000000000000000000000000000100009935737705MICHEL ANDERSON SPINELLI CANAN          AVENIDA ARAPOGI, 655                    BRAS DE PINA21011280RIO DE JANEIRO RJUNIAO UMB DOS CULTOS AFRO BRAS    22121710 000029
10231987175000168916200163100    00003905                     000039050000000000000109                     I023905      22121700000000350003410000017N171117050900000000000102212170000000000000000000000000000000000000000100001143711726MARLENE GOMES CAETANO AUGUSTO           RUA JOAQUIM CAETANO, 141                JARDIM ALVOR26261350NOVA IGUACU    RJUNIAO UMB DOS CULTOS AFRO BRAS    22121710 000030
10231987175000168916200163100    00003889                     000038890000000000000109                     I343889      22121700000000350003410000017N171117050900000000000102212170000000000000000000000000000000000000000100008802571724ANDRE LUIZ DUCINI SALERNO               RUA SALERNO, 64 - CONRADO               MIGUEL PEREI26920000RIO DE JANEIRO RJUNIAO UMB DOS CULTOS AFRO BRAS    22121710 000031
10231987175000168916200163100    00003872                     000038720000000000000109                     I343872      22121700000000350003410000017N171117050900000000000102212170000000000000000000000000000000000000000100001848078757MARIA DA GRACA DA SILVA GASPAR          RUA TACARATU, 49                        HONORIO GURG21555010RIO DE JANEIRO RJUNIAO UMB DOS CULTOS AFRO BRAS    22121710 000032
10231987175000168916200163100    00003821                     000038210000000000000109                     I343821      22121700000000350003410000017N171117050900000000000102212170000000000000000000000000000000000000000100015098659779JOAO ANDRE CASEMIRO MONTEIRO C          RUA DAS ARAUCARIAS, 472                 CINCO LAGOS 26700000MENDES         RJUNIAO UMB DOS CULTOS AFRO BRAS    22121710 000033
10231987175000168916200163100    00003729                     000037290000000000000109                     I343729      22121700000000350003410000017N171117050900000000000102212170000000000000000000000000000000000000000100008544039731FABIO DA SILVA CONDE                    RUA FERREIRA DE MENEZES, 137 CASA 95 APTENGENHO DA R20761250RIO DE JANEIRO RJUNIAO UMB DOS CULTOS AFRO BRAS    22121710 000034
10231987175000168916200163100    00003657                     000036570000000000000109                     I343657      22121700000000350003410000017N171117050900000000000102212170000000000000000000000000000000000000000100062543148787JOEL FRANCISCO DOS SANTOS               RUA FREDERICO SANTONI,  12              ENGENHO DA R20766520RIO DE JANEIRO RJUNIAO UMB DOS CULTOS AFRO BRAS    22121710 000035
10231987175000168916200163100    00003522                     000035220000000000000109                     I023522      22121700000000350003410000017N171117050900000000000102212170000000000000000000000000000000000000000100008947758710MARIA DO SOCORRO CAVALCANTI RO          RUA: RONDA ALTA                         GUARATIBA   23031320RIO DE JANEIRO RJUNIAO UMB DOS CULTOS AFRO BRAS    22121710 000036
10231987175000168916200163100    00003455                     000034550000000000000109                     I023455      22121700000000350003410000017N171117050900000000000102212170000000000000000000000000000000000000000100005963954770SANDRA MARIA DA SILVA SANTOS            RUA JOAO RAIMUNDO N 171                 VILA SANTO A25041400DUQUE DE CAXIASRJUNIAO UMB DOS CULTOS AFRO BRAS    22121710 000037
10231987175000168916200163100    00003439                     000034390000000000000109                     I343439      22121700000000350003410000017N171117050900000000000102212170000000000000000000000000000000000000000100059176296768CARLOS ROBERTO DA SILVA CARDOS          ARAQUATINS Nº 75                       ANCHIETA    21655090RIO DE JANEIRO RJUNIAO UMB DOS CULTOS AFRO BRAS    22121710 000038
10231987175000168916200163100    00003409                     000034090000000000000109                     I023409      22121700000000350003410000017N171117050900000000000102212170000000000000000000000000000000000000000100009886046716ANA CRISTINA DE ALMEIDA TRINDA          O MESMO                                 O MESMO     21555020RIO DE JANEIRO RJUNIAO UMB DOS CULTOS AFRO BRAS    22121710 000039
10231987175000168916200163100    00003329                     000033290000000000000109                     I343329      22121700000000350003410000017N171117050900000000000102212170000000000000000000000000000000000000000100003750653771ANA VALERIA OLIVEIRA DA SILVA           O MESMO                                 O MESMO     21545170RIO DE JANEIRO RJUNIAO UMB DOS CULTOS AFRO BRAS    22121710 000040
10231987175000168916200163100    00003129                     000031290000000000000109                     I023129      31121700000000035003410000017N131117050900000000000103112170000000000000000000000000000000000000000100024810517349SILANIA MARIA AGUIAR GOIS               ALAMEDA NOSSA SENHORA DAS GRACAS CASA 16FIGUEIRA - D25230580DUQUE DE CAXIASRJUNIAO UMB DOS CULTOS AFRO BRAS    31121710 000041
10231987175000168916200163100    00003115                     000031150000000000000109                     I023115      31121700000000035003410000017N131117050900000000000103112170000000000000000000000000000000000000000100090617249744RAQUEL DA PAZ                           RUA ITABIBOCA LOTE 10 QUADRA 342 (ANTIGAPARADA MORAB25265188DUQUE DE CAXIASRJUNIAO UMB DOS CULTOS AFRO BRAS    31121710 000042
10231987175000168916200163100    00003083                     000030830000000000000109                     I343083      31121700000000035003410000017N131117050900000000000103112170000000000000000000000000000000000000000100000680684760CREUSA MARCIA SATURNINO ALVES           RUA NOSSA SENHORA DE NAZARE N 8         GERENCIANO -26061700NOVA IGUACU    RJUNIAO UMB DOS CULTOS AFRO BRAS    31121710 000043
10231987175000168916200163100    00003033                     000030330000000000000109                     I343033      31121700000000035003410000017N131117050900000000000103112170000000000000000000000000000000000000000100015834777724JOAO PAULO SALGUEIRO DA SILVA           RUA MANOEL DO NASCIMENTO N 134          IRAJA  - RIO21361510RIO DE JANEIRO RJUNIAO UMB DOS CULTOS AFRO BRAS    31121710 000044
10231987175000168916200163100    00003029                     000030290000000000000109                     I023029      31121700000000035003410000017N131117050900000000000103112170000000000000000000000000000000000000000100000920173713JORGE DOS SANTOS LUCAS                  RUA PP, LOTE 5 QUADRA 48                JARDIM ANHAN25264360DUQUE DE CAXIASRJUNIAO UMB DOS CULTOS AFRO BRAS    31121710 000045
10231987175000168916200163100    00002988                     000029880000000000000109                     I342988      31121700000000035003410000017N131117050900000000000103112170000000000000000000000000000000000000000100002812320706COSME PAULO DA COSTA CRAVO              RUA PADRE MANOEL DE NOBREGA N 505       QUINTINO BOC21381000RIO DE JANEIRO RJUNIAO UMB DOS CULTOS AFRO BRAS    31121710 000046
10231987175000168916200163100    00002969                     000029690000000000000109                     I022969      31121700000000035003410000017N131117050900000000000103112170000000000000000000000000000000000000000100002362714748MAGLENE GOMES ARAUJO                    RUA TENENTE PINTO DUARTE N 36           BENTO RIBEIR21550370RIO DE JANEIRO RJUNIAO UMB DOS CULTOS AFRO BRAS    31121710 000047
10231987175000168916200163100    00002945                     000029450000000000000109                     I342945      31121700000000035003410000017N131117050900000000000103112170000000000000000000000000000000000000000100003410130721ADELISE DE FREITAS PALACIO              RUA EMBIRI Nº 71 FUNDOS                BENTO RIBEIR21331690RIO DE JANEIRO RJUNIAO UMB DOS CULTOS AFRO BRAS    31121710 000048
10231987175000168916200163100    00002922                     000029220000000000000109                     I022922      31121700000000035003410000017N131117050900000000000103112170000000000000000000000000000000000000000100089497899734UGO SILVA FILHO                         RUA ITABAIANA N 49 APT 502              GRAJAU - RIO20561050RIO DE JANEIRO RJUNIAO UMB DOS CULTOS AFRO BRAS    31121710 000049
10231987175000168916200163100    00002818                     000028180000000000000109                     I342818      31121700000000035003410000017N131117050900000000000103112170000000000000000000000000000000000000000100089770250791JUREMA DA MACENA RAYMUNDO               RUA DAS DALIAS, 78                      VILA VALQUEI21330740RIO DE JANEIRO RJUNIAO UMB DOS CULTOS AFRO BRAS    31121710 000050
10231987175000168916200163100    00002706                     000027060000000000000109                     I022706      31121700000000035003410000017N131117050900000000000103112170000000000000000000000000000000000000000100001621539709ISABEL DA CONCEICAO DO NASCIME          RUA POLICARPO, 272                      SANTO ELIAS 26562100RIO DE JANEIRO RJUNIAO UMB DOS CULTOS AFRO BRAS    31121710 000051
10231987175000168916200163100    00002664                     000026640000000000000109                     I022664      31121700000000035003410000017N131117050900000000000103112170000000000000000000000000000000000000000100004280484716CARLOS ANDRE ROCHA                      RUA E, 162                              ENGENHO DE D20730170RIO DE JANEIRO RJUNIAO UMB DOS CULTOS AFRO BRAS    31121710 000052
10231987175000168916200163100    00002625                     000026250000000000000109                     I022625      31121700000000035003410000017N131117050900000000000103112170000000000000000000000000000000000000000100003370392755JAIRO TEIXEIRA VIANA                    RUA BELEM, 266                          REALENGO - R21730060RIO DE JANEIRO RJUNIAO UMB DOS CULTOS AFRO BRAS    31121710 000053
10231987175000168916200163100    00002560                     000025600000000000000109                     I022560      31121700000000035003410000017N131117050900000000000103112170000000000000000000000000000000000000000100009456470776JAMES ARNESS BARBOSA DE OLIVEI          R.JOAQUIM DE QUEIROZ TRAV SAO CARLOS 9B RAMOS - RJ  20766220RIO DE JANEIRO RJUNIAO UMB DOS CULTOS AFRO BRAS    31121710 000054
10231987175000168916200163100    00002454                     000024540000000000000109                     I342454      31121700000000035003410000017N131117050900000000000103112170000000000000000000000000000000000000000100009935737705MICHEL ANDERSON SPINELLI CANAN          AVENIDA ARAPOGI, 655                    BRAS DE PINA21011280RIO DE JANEIRO RJUNIAO UMB DOS CULTOS AFRO BRAS    31121710 000055
10231987175000168916200163100    00002432                     000024320000000000000109                     I342432      31121700000000035003410000017N131117050900000000000103112170000000000000000000000000000000000000000100002046107705PAULO SERGIO MILITAO HENRIQUE           RUA VIENA, 41                           BRAS DE PINA21215350RIO DE JANEIRO RJUNIAO UMB DOS CULTOS AFRO BRAS    31121710 000056
10231987175000168916200163100    00002400                     000024000000000000000109                     I342400      31121700000000035003410000017N131117050900000000000103112170000000000000000000000000000000000000000100004523584770LUIZ FERNANDES HASSELMANN               ESTRADA PROENCA, LOTE 3 QUADRA B N      ENGENHEIRO P26475520RIO DE JANEIRO RJUNIAO UMB DOS CULTOS AFRO BRAS    31121710 000057
10231987175000168916200163100    00002386                     000023860000000000000109                     I022386      31121700000000035003410000017N131117050900000000000103112170000000000000000000000000000000000000000100001848078757MARIA DA GRACA DA SILVA GASPAR          RUA TACARATU, 49                        HONORIO GURG21555010RIO DE JANEIRO RJUNIAO UMB DOS CULTOS AFRO BRAS    31121710 000058
10231987175000168916200163100    00002379                     000023790000000000000109                     I342379      31121700000000035003410000017N131117050900000000000103112170000000000000000000000000000000000000000100071360573704GREICE DE SOUZA MILHAR DA SILV          RUA DOUTOR JOVINIANO, 707               MADUREIRA - 21360310RIO DE JANEIRO RJUNIAO UMB DOS CULTOS AFRO BRAS    31121710 000059
10231987175000168916200163100    00002358                     000023580000000000000109                     I342358      31121700000000035003410000017N131117050900000000000103112170000000000000000000000000000000000000000100033291241720MARIA JOSE LOPES SOUSA                  RUA ALTAMIRO DOMICIANO DA CRUZ, LOTE 3 QSANTA CANDID23830640ITAGUAI        RJUNIAO UMB DOS CULTOS AFRO BRAS    31121710 000060
10231987175000168916200163100    00002350                     000023500000000000000109                     I342350      31121700000000035003410000017N131117050900000000000103112170000000000000000000000000000000000000000100001556268767ANTONIO CARLOS DA CONCEICAO SA          RUA EMILIA MARTINS  84                  VILA MARTINS26043010NOVA IGUACU    RJUNIAO UMB DOS CULTOS AFRO BRAS    31121710 000061
10231987175000168916200163100    00002335                     000023350000000000000109                     I342335      31121700000000035003410000017N131117050900000000000103112170000000000000000000000000000000000000000100004462221788ALEXANDRO JULIO DE SOUZA                RUA CORURIPE, 410                       MARECHAL HER21555490RIO DE JANEIRO RJUNIAO UMB DOS CULTOS AFRO BRAS    31121710 000062
10231987175000168916200163100    00002334                     000023340000000000000109                     I342334      31121700000000035003410000017N131117050900000000000103112170000000000000000000000000000000000000000100015098659779JOAO ANDRE CASEMIRO MONTEIRO C          RUA DAS ARAUCARIAS, 472                 CINCO LAGOS 26700000MENDES         RJUNIAO UMB DOS CULTOS AFRO BRAS    31121710 000063
10231987175000168916200163100    00002329                     000023290000000000000109                     I342329      31121700000000035003410000017N131117050900000000000103112170000000000000000000000000000000000000000100037551868704NAKAYRA DA MOTTA LOBO                   RUA DOUTOR ARTUR MARTINS, 182           MUTUA - SAO 24460350SAO GONCALO    RJUNIAO UMB DOS CULTOS AFRO BRAS    31121710 000064
10231987175000168916200163100    00002323                     000023230000000000000109                     I022323      31121700000000035003410000017N131117050900000000000103112170000000000000000000000000000000000000000100042173051768GLORIA SUELI VERISSIMO DA COST          RUA ANICETO GUIMARAES, 47               GRADIM - SAO24430320SAO GONCALO    RJUNIAO UMB DOS CULTOS AFRO BRAS    31121710 000065
10231987175000168916200163100    00002241                     000022410000000000000109                     I342241      31121700000000035003410000017N131117050900000000000103112170000000000000000000000000000000000000000100008544039731FABIO DA SILVA CONDE                    RUA FERREIRA DE MENEZES, 137 CASA 95 APTENGENHO DA R20761250RIO DE JANEIRO RJUNIAO UMB DOS CULTOS AFRO BRAS    31121710 000066
10231987175000168916200163100    00002236                     000022360000000000000109                     I342236      31121700000000035003410000017N131117050900000000000103112170000000000000000000000000000000000000000100044631154772LINDOMAR SOARES BERNARDO                RUA FEIRA DE SANTANA, LOTE 8 QUADRA 17  PARQUE NOVO 25585100SAO JOAO DE MERRJUNIAO UMB DOS CULTOS AFRO BRAS    31121710 000067
10231987175000168916200163100    00002207                     000022070000000000000109                     I342207      31121700000000035003410000017N131117050900000000000103112170000000000000000000000000000000000000000100093473095753ALEXANDER NUNES PICANCO                 RUA REGISTRO, 315                       SENADOR CAMA21832270RIO DE JANEIRO RJUNIAO UMB DOS CULTOS AFRO BRAS    31121710 000068
10231987175000168916200163100    00002189                     000021890000000000000109                     I342189      31121700000000035003410000017N131117050900000000000103112170000000000000000000000000000000000000000100062783203715SORAYA BARROS PINHEIRO                  RUA SANTOS TITARA, 45 APTO 115          TODOS SANTOS20735240RIO DE JANEIRO RJUNIAO UMB DOS CULTOS AFRO BRAS    31121710 000069
10231987175000168916200163100    00002169                     000021690000000000000109                     I342169      31121700000000035003410000017N131117050900000000000103112170000000000000000000000000000000000000000100062543148787JOEL FRANCISCO DOS SANTOS               RUA FREDERICO SANTONI,  12              ENGENHO DA R20766520RIO DE JANEIRO RJUNIAO UMB DOS CULTOS AFRO BRAS    31121710 000070
10231987175000168916200163100    00002131                     000021310000000000000109                     I342131      31121700000000035003410000017N131117050900000000000103112170000000000000000000000000000000000000000100097226165791CELSO MATTOS FERREIRA                   RUA SETENTA E UM, LOTE 1 QUADRA 86      CAMPO GRANDE23097535RIO DE JANEIRO RJUNIAO UMB DOS CULTOS AFRO BRAS    31121710 000071
10231987175000168916200163100    00002105                     000021050000000000000109                     I342105      31121700000000035003410000017N131117050900000000000103112170000000000000000000000000000000000000000100001925108783HELENA MOREIRA PESSOA                   RUA CAPIVARA, LOTE 639 QUADRA 48        SANTA CRUZ D25260180DUQUE DE CAXIASRJUNIAO UMB DOS CULTOS AFRO BRAS    31121710 000072
10231987175000168916200163100    00002053                     000020530000000000000109                     I342053      31121700000000035003410000017N131117050900000000000103112170000000000000000000000000000000000000000100003200716851CYNTHIA RITA HERTEL                     FRIBURGO LOTE 17 QUADRA 26 - SAMBAETIBA ITABORAI - R24842220ITABORAI       RJUNIAO UMB DOS CULTOS AFRO BRAS    31121710 000073
10231987175000168916200163100    00002032                     000020320000000000000109                     I022032      31121700000000035003410000017N131117050900000000000103112170000000000000000000000000000000000000000100008947758710MARIA DO SOCORRO CAVALCANTI RO          RUA: RONDA ALTA                         GUARATIBA   23031320RIO DE JANEIRO RJUNIAO UMB DOS CULTOS AFRO BRAS    31121710 000074
10231987175000168916200163100    00001923                     000019230000000000000109                     I341923      31121700000000035003410000017N131117050900000000000103112170000000000000000000000000000000000000000100010324446730DEBORA ANDRADE SILVA                    O MESMO                                 O MESMO     22720360RIO DE JANEIRO RJUNIAO UMB DOS CULTOS AFRO BRAS    31121710 000075
10231987175000168916200163100    00001910                     000019100000000000000109                     I341910      31121700000000035003410000017N131117050900000000000103112170000000000000000000000000000000000000000100089041950710ANA LUCIA GUIMARAES MOURA ALVE          RUA CARLOS ILIDRO N 189                 BANCARIOS - 21910160ILHA DO GOVERNARJUNIAO UMB DOS CULTOS AFRO BRAS    31121710 000076
10231987175000168916200163100    00001820                     000018200000000000000109                     I341820      31121700000000035003410000017N131117050900000000000103112170000000000000000000000000000000000000000100003350383793RITA DE CASSIA MOREIRA DA SILV          RUA ALBERTO TEIXEIRA DA CUNHA, 1160     CENTRO - NIL26520110NILOPOLIS      RJUNIAO UMB DOS CULTOS AFRO BRAS    31121710 000077
9                                                                                                                                                                                                                                                                                                                                                                                                         000078
