01REMESSA01COBRANCA       817800093673        União Umb dos Cultos Afro Bra341BANCO ITAU SA  120719                                                                                                                                                                                                                                                                                                      000001
10231987175000168817800093673    000049659                    000496590000000000000109                     I0249659     30091900000000040003410000017N100619105700000000000133009190000000000000000000000000000000000000000100008549619760BRUNO SERGIO GONCALVES DA CRUZ          RUA ROBERTO SERGIO OAZENN 0, LOTE 22 QUAADRIANO - CA23088530RIO DE JANEIRO RJUNIAO UMB DOS CULTOS AFRO BRAS    30091915 000002
21300920190000000000080                                                                                                                                                                                                                                                                                                                                                                                   000003
10231987175000168817800093673    000048618                    000486180000000000000109                     I0248618     30091900000000040003410000017N100619105700000000000133009190000000000000000000000000000000000000000100006957427790ANDREIA CARVALHO DOS SANTOS             RUA DOUTOR LEALN 376,                   ENGENHO DE D20730380RIO DE JANEIRO RJUNIAO UMB DOS CULTOS AFRO BRAS    30091915 000004
21300920190000000000080                                                                                                                                                                                                                                                                                                                                                                                   000005
10231987175000168817800093673    000048390                    000483900000000000000109                     I0248390     30091900000000040003410000017N100619105700000000000133009190000000000000000000000000000000000000000100054770122772EDUARDO DOS SANTOS REIS NETO            RUA BURITIN 63,                         MADUREIRA   20231046RIO DE JANEIRO RJUNIAO UMB DOS CULTOS AFRO BRAS    30091915 000006
21300920190000000000080                                                                                                                                                                                                                                                                                                                                                                                   000007
10231987175000168817800093673    000048212                    000482120000000000000109                     I0248212     30081900000000040003410000017N100619105700000000000133008190000000000000000000000000000000000000000100008549619760BRUNO SERGIO GONCALVES DA CRUZ          RUA ROBERTO SERGIO OAZENN 0, LOTE 22 QUAADRIANO - CA23088530RIO DE JANEIRO RJUNIAO UMB DOS CULTOS AFRO BRAS    30081915 000008
21300820190000000000080                                                                                                                                                                                                                                                                                                                                                                                   000009
10231987175000168817800093673    000047181                    000471810000000000000109                     I0247181     30081900000000040003410000017N100619105700000000000133008190000000000000000000000000000000000000000100006957427790ANDREIA CARVALHO DOS SANTOS             RUA DOUTOR LEALN 376,                   ENGENHO DE D20730380RIO DE JANEIRO RJUNIAO UMB DOS CULTOS AFRO BRAS    30081915 000010
21300820190000000000080                                                                                                                                                                                                                                                                                                                                                                                   000011
10231987175000168817800093673    000046955                    000469550000000000000109                     I0246955     30081900000000040003410000017N100619105700000000000133008190000000000000000000000000000000000000000100054770122772EDUARDO DOS SANTOS REIS NETO            RUA BURITIN 63,                         MADUREIRA   20231046RIO DE JANEIRO RJUNIAO UMB DOS CULTOS AFRO BRAS    30081915 000012
21300820190000000000080                                                                                                                                                                                                                                                                                                                                                                                   000013
10231987175000168817800093673    000046820                    000468200000000000000109                     I3446820     30081900000000040003410000017N100619105700000000000133008190000000000000000000000000000000000000000100045935742772SANDRA ANDRADE DE ARAUJO                AVENIDA MINISTRO EDGARD ROMERON 679, VILMADUREIRA   21360202RIO DE JANEIRO RJUNIAO UMB DOS CULTOS AFRO BRAS    30081915 000014
21300820190000000000080                                                                                                                                                                                                                                                                                                                                                                                   000015
10231987175000168817800093673    000046777                    000467770000000000000109                     I0246777     30071900000000040003410000017N100619105700000000000133007190000000000000000000000000000000000000000100008549619760BRUNO SERGIO GONCALVES DA CRUZ          RUA ROBERTO SERGIO OAZENN 0, LOTE 22 QUAADRIANO - CA23088530RIO DE JANEIRO RJUNIAO UMB DOS CULTOS AFRO BRAS    30071915 000016
21300720190000000000080                                                                                                                                                                                                                                                                                                                                                                                   000017
10231987175000168817800093673    000045757                    000457570000000000000109                     I0245757     30071900000000040003410000017N100619105700000000000133007190000000000000000000000000000000000000000100006957427790ANDREIA CARVALHO DOS SANTOS             RUA DOUTOR LEALN 376,                   ENGENHO DE D20730380RIO DE JANEIRO RJUNIAO UMB DOS CULTOS AFRO BRAS    30071915 000018
21300720190000000000080                                                                                                                                                                                                                                                                                                                                                                                   000019
10231987175000168817800093673    000045534                    000455340000000000000109                     I0245534     30071900000000040003410000017N100619105700000000000133007190000000000000000000000000000000000000000100054770122772EDUARDO DOS SANTOS REIS NETO            RUA BURITIN 63,                         MADUREIRA   20231046RIO DE JANEIRO RJUNIAO UMB DOS CULTOS AFRO BRAS    30071915 000020
21300720190000000000080                                                                                                                                                                                                                                                                                                                                                                                   000021
10231987175000168817800093673    000045399                    000453990000000000000109                     I3445399     30071900000000040003410000017N100619105700000000000133007190000000000000000000000000000000000000000100045935742772SANDRA ANDRADE DE ARAUJO                AVENIDA MINISTRO EDGARD ROMERON 679, VILMADUREIRA   21360202RIO DE JANEIRO RJUNIAO UMB DOS CULTOS AFRO BRAS    30071915 000022
21300720190000000000080                                                                                                                                                                                                                                                                                                                                                                                   000023
10231987175000168817800093673    000045341                    000453410000000000000109                     I0245341     14061900000000080003410000017N030619105700000000000261406190000000000000000000000000000000000000000100001010828789JUSSARA DA SILVA GONCALVES DAM          RUA: TRINTA E TRES N 0, LOTE 219        NOVA CIDADE 24804185ITABORAI       RJUNIAO UMB DOS CULTOS AFRO BRAS    14061915 000024
21140620190000000000160                                                                                                                                                                                                                                                                                                                                                                                   000025
10231987175000168817800093673    000045338                    000453380000000000000109                     I0245338     30061900000000040003410000017N030619105700000000000133006190000000000000000000000000000000000000000100008549619760BRUNO SERGIO GONCALVES DA CRUZ          RUA ROBERTO SERGIO OAZENN 0, LOTE 22 QUAADRIANO - CA23088530RIO DE JANEIRO RJUNIAO UMB DOS CULTOS AFRO BRAS    30061915 000026
21300620190000000000080                                                                                                                                                                                                                                                                                                                                                                                   000027
10231987175000168817800093673    000045279                    000452790000000000000109                     I0245279     30051900000000385003410000017N160519105700000000001273005190000000000000000000000000000000000000000100007775553790ANDRE BATISTA DO NASCIMENTO AR          RUA DOUTOR BERNARDINON 559, CASA 101 BLOPRACA SECA  21320020RIO DE JANEIRO RJUNIAO UMB DOS CULTOS AFRO BRAS    30051915 000028
21300520190000000000770                                                                                                                                                                                                                                                                                                                                                                                   000029
10231987175000168817800093673    000045234                    000452340000000000000109                     I0245234     30051900000000280003410000017N070519105700000000000923005190000000000000000000000000000000000000000100053542886734MARIA LUCIA SOARES PONCE                RUA MAJOR VITOR HUGON 71,               VILA KOSMOS 21221010RIO DE JANEIRO RJUNIAO UMB DOS CULTOS AFRO BRAS    30051915 000030
21300520190000000000560                                                                                                                                                                                                                                                                                                                                                                                   000031
9                                                                                                                                                                                                                                                                                                                                                                                                         000032
