01REMESSA01COBRANCA       916200163100        União Umb dos Cultos Afro Bra341BANCO ITAU SA  271218                                                                                                                                                                                                                                                                                                      000001
10231987175000168916200163100    000039421                    000394210000000000000109                     I0139421     30031900000000020003410000017N271218104700000000000103003190000000000000000000000000000000000000000100042799023720MARIA DAS DORES SANTOS                  ESTRADA DO AREAL                        BOA VISTA DA27165000BARRA DO PIRAI RJUNIAO UMB DOS CULTOS AFRO BRAS    30031910 000002
10231987175000168916200163100    000039420                    000394200000000000000109                     I0139420     28021900000000020003410000017N271218104700000000000102802190000000000000000000000000000000000000000100042799023720MARIA DAS DORES SANTOS                  ESTRADA DO AREAL                        BOA VISTA DA27165000BARRA DO PIRAI RJUNIAO UMB DOS CULTOS AFRO BRAS    28021910 000003
10231987175000168916200163100    000039419                    000394190000000000000109                     I0139419     31011900000000020003410000017N271218104700000000000103101190000000000000000000000000000000000000000100042799023720MARIA DAS DORES SANTOS                  ESTRADA DO AREAL                        BOA VISTA DA27165000BARRA DO PIRAI RJUNIAO UMB DOS CULTOS AFRO BRAS    31011910 000004
10231987175000168916200163100    000039418                    000394180000000000000109                     I0139418     02011900000000080003410000017N271218104700000000000100201190000000000000000000000000000000000000000100058657231700IMPERALINA OLIVEIRA COSTA               RUA VISCONDE DE BARBACENA               SARACURUNA  25000000DUQUE DE CAXIASRJUNIAO UMB DOS CULTOS AFRO BRAS    02011910 000005
10231987175000168916200163100    000039417                    000394170000000000000109                     I0139417     31121800000000040003410000017N271218104700000000000103112180000000000000000000000000000000000000000100010083312790EDINALDO FELIX DA SILVA                 RUA BERNARDA MARIA DA CONCEICAO         FAZENDA CAXI23895320ILHA DO GOVERNARJUNIAO UMB DOS CULTOS AFRO BRAS    31121810 000006
10231987175000168916200163100    000039416                    000394160000000000000109                     I0139416     02011900000000350003410000017N271218104700000000000100201190000000000000000000000000000000000000000100024391573768RENATO SILVA HOTTZ                      RUA GENERAL PEREIRA DA SILVA            ICARAI      24220031NITEROI        RJUNIAO UMB DOS CULTOS AFRO BRAS    02011910 000007
10231987175000168916200163100    000039415                    000394150000000000000109                     I0139415     15011900000000385003410000017N271218104700000000000101501190000000000000000000000000000000000000000100099941120749ERNELIA DA SILVA                        RUA JOSE BEZZ                           GABRIEL UM  24856172ITABORAI       RJUNIAO UMB DOS CULTOS AFRO BRAS    15011910 000008
10231987175000168916200163100    000039414                    000394140000000000000109                     I0139414     15011900000000245003410000017N271218104700000000000101501190000000000000000000000000000000000000000100000446671754JUSSARA MATHIAS TEIXEIRA                RUA VEREADOR OSVALDO MARCONDES          JOSE BONIFAC25515380SAO JOAO DE MERRJUNIAO UMB DOS CULTOS AFRO BRAS    15011910 000009
10231987175000168916200163100    000039413                    000394130000000000000109                     I0139413     15011900000000525003410000017N271218104700000000000101501190000000000000000000000000000000000000000100000092416713LOURDES GONCALVES DA SILVA CAB          RUA CINCO                               NOVA IGUABA 00000000RIO DE JANEIRO RJUNIAO UMB DOS CULTOS AFRO BRAS    15011910 000010
10231987175000168916200163100    000039412                    000394120000000000000109                     I0139412     15011900000000315003410000017N271218104700000000000101501190000000000000000000000000000000000000000100008267557717MARCIA REGINA FELIPE DE SOUZA           ESTRADA DO MENDANHA                     MENDANHA - C23087283RIO DE JANEIRO RJUNIAO UMB DOS CULTOS AFRO BRAS    15011910 000011
10231987175000168916200163100    000039411                    000394110000000000000109                     I0139411     15011900000000735003410000017N271218104700000000000101501190000000000000000000000000000000000000000100006932718766CARLOS EDUARDO DE OLIVEIRA              TRAVESSA CARLOS SAMPAIO                 AUSTIN      26087287NOVA IGUACU    RJUNIAO UMB DOS CULTOS AFRO BRAS    15011910 000012
10231987175000168916200163100    000039410                    000394100000000000000109                     I0139410     15011900000000105003410000017N271218104700000000000101501190000000000000000000000000000000000000000100006927798705ROSA MARIA RICARDO PINTO                RUA JOAQUIM BESSA                       TRINDADE    24210205SAO GONCALO    RJUNIAO UMB DOS CULTOS AFRO BRAS    15011910 000013
10231987175000168916200163100    000039409                    000394090000000000000109                     I0139409     15011900000000175003410000017N271218104700000000000101501190000000000000000000000000000000000000000100040215326768ANTONIO JOAQUIM DOS SANTOS FIL          RUA SAO FRANCISCO                       SEROPEDICA  23890000RIO DE JANEIRO RJUNIAO UMB DOS CULTOS AFRO BRAS    15011910 000014
10231987175000168916200163100    000039408                    000394080000000000000109                     I0139408     15011900000000175003410000017N271218104700000000000101501190000000000000000000000000000000000000000100007039849771MARCIA SILVA DOS SANTOS FALCAO          ESTRADA DA BARREIRA                     CENTRO      25946070GUAPIMIRIM     RJUNIAO UMB DOS CULTOS AFRO BRAS    15011910 000015
10231987175000168916200163100    000039407                    000394070000000000000109                     I0139407     15011900000000105003410000017N271218104700000000000101501190000000000000000000000000000000000000000100079583490768ZILDA VICENTE DA SILVA                  RUA MARIA COSTA CORREA                  APOLO 2     24800000ITABORAI       RJUNIAO UMB DOS CULTOS AFRO BRAS    15011910 000016
10231987175000168916200163100    000039406                    000394060000000000000109                     I0139406     15011900000000210003410000017N271218104700000000000101501190000000000000000000000000000000000000000100000022042741ARACI AMELIA DA SILVA RIBEIRO           RUA ALIPIO GOMES DOS SANTOS             JARDIM AMERI26032835BARRA DO PIRAI RJUNIAO UMB DOS CULTOS AFRO BRAS    15011910 000017
10231987175000168916200163100    000039405                    000394050000000000000109                     I0139405     04011900000000070003410000017N271218104700000000000100401190000000000000000000000000000000000000000100001248895738JUSSARA SILVEIRA LOPES DA FONS          RUA: LAURA MAGALHAES TEIXEIRA           SANTO ALEIXO25914130MAGE           RJUNIAO UMB DOS CULTOS AFRO BRAS    04011910 000018
9                                                                                                                                                                                                                                                                                                                                                                                                         000019
