01REMESSA01COBRANCA       916200163100        União Umb dos Cultos Afro Bra341BANCO ITAU SA  160118                                                                                                                                                                                                                                                                                                      000001
10231987175000168916200163100    00003233                     000032330000000000000109                     I013233      22121700000000350003410000017N171117050900000000000102212170000000000000000000000000000000000000000100011039470793ZENY FILIPPE DE CASTRO                  RUA PROFESSOR PLINIO OLINDO, 102        PADRE MIGUEL21860160RIO DE JANEIRO RJUNIAO UMB DOS CULTOS AFRO BRAS    22121710 000002
10231987175000168916200163100    00001739                     000017390000000000000109                     I011739      31121700000000035003410000017N131117050900000000000103112170000000000000000000000000000000000000000100011039470793ZENY FILIPPE DE CASTRO                  RUA PROFESSOR PLINIO OLINDO, 102        PADRE MIGUEL21860160RIO DE JANEIRO RJUNIAO UMB DOS CULTOS AFRO BRAS    31121710 000003
9                                                                                                                                                                                                                                                                                                                                                                                                         000004
