01REMESSA01COBRANCA       916200163100        União Umb dos Cultos Afro Bra341BANCO ITAU SA  280119                                                                                                                                                                                                                                                                                                      000001
10231987175000168916200163100    000039653                    000396530000000000000109                     I0139653     11021900000000050003410000017N260119104700000000000101102190000000000000000000000000000000000000000100007485965778GRACIETE LEAO TANGUA                    RUA ROBERTO RANGEL LIMA                 MAURI - PIAB25915000MAGE           RJUNIAO UMB DOS CULTOS AFRO BRAS    11021910 000002
10231987175000168916200163100    000039652                    000396520000000000000109                     I0239652     12021900000000070003410000017N260119104700000000000101202190000000000000000000000000000000000000000100007485965778GRACIETE LEAO TANGUA                    RUA ROBERTO RANGEL LIMA                 MAURI - PIAB25915000MAGE           RJUNIAO UMB DOS CULTOS AFRO BRAS    12021910 000003
10231987175000168916200163100    000039651                    000396510000000000000109                     I0139651     29031900000000040003410000017N250119104700000000000102903190000000000000000000000000000000000000000100093759215734LACY DE SOUZA NERYS                     RUA ARTICA                              COMENDADOR S26276180NOVA IGUACU    RJUNIAO UMB DOS CULTOS AFRO BRAS    29031910 000004
10231987175000168916200163100    000039650                    000396500000000000000109                     I0139650     28021900000000040003410000017N250119104700000000000102802190000000000000000000000000000000000000000100093759215734LACY DE SOUZA NERYS                     RUA ARTICA                              COMENDADOR S26276180NOVA IGUACU    RJUNIAO UMB DOS CULTOS AFRO BRAS    28021910 000005
10231987175000168916200163100    000039649                    000396490000000000000109                     I0139649     15021900000000350003410000017N250119104700000000000101502190000000000000000000000000000000000000000100051357909772GLICIA CALDAS GONCALVES DA SIL          RUA: HONORIO DE ALMEIDA                 IRAJA       21235490RIO DE JANEIRO RJUNIAO UMB DOS CULTOS AFRO BRAS    15021910 000006
10231987175000168916200163100    000039648                    000396480000000000000109                     I0139648     31011900000000035003410000017N250119104700000000000103101190000000000000000000000000000000000000000100050713558768ANILSON DA SILVA                        TRAVESSA HELENA                         REALENGO    21760620RIO DE JANEIRO RJUNIAO UMB DOS CULTOS AFRO BRAS    31011910 000007
10231987175000168916200163100    000039647                    000396470000000000000109                     I0139647     05021900000000140003410000017N250119104700000000000100502190000000000000000000000000000000000000000100060296836168ALEXANDRE MONTEIRO DA ROSA              MONTE CASTELO                           CORONEL VEIG25655500PETROPOLIS     RJUNIAO UMB DOS CULTOS AFRO BRAS    05021910 000008
10231987175000168916200163100    000039646                    000396460000000000000109                     I0139646     31011900000000350003410000017N240119104700000000000103101190000000000000000000000000000000000000000100002126696723LUCI DA CUNHA ARTUR                     AVENIDA FRANCISCO CHRISOSTOMOS TORRES   PINTO DA SER27286440VOLTA REDONDA  RJUNIAO UMB DOS CULTOS AFRO BRAS    31011910 000009
10231987175000168916200163100    000039502                    000395020000000000000109                     I0239502     31011900000000140003410000017N080119104700000000000103101190000000000000000000000000000000000000000100060296836168ALEXANDRE MONTEIRO DA ROSA              MONTE CASTELO                           CORONEL VEIG25655500PETROPOLIS     RJUNIAO UMB DOS CULTOS AFRO BRAS    31011910 000010
9                                                                                                                                                                                                                                                                                                                                                                                                         000011
