01REMESSA01COBRANCA       817800093673        União Umb dos Cultos Afro Bra341BANCO ITAU SA  110619                                                                                                                                                                                                                                                                                                      000001
10231987175000168817800093673    000049689                    000496890000000000000109                     I0149689     30091900000000040003410000017N110619105700000000000133009190000000000000000000000000000000000000000100074225928772MARIA DAS GRACAS ROCHA DE JESU          RUA MERCURION 104, CASA 4               COELHO DA RO25550280SAO JOAO DE MERRJUNIAO UMB DOS CULTOS AFRO BRAS    30091915 000002
21300920190000000000080                                                                                                                                                                                                                                                                                                                                                                                   000003
10231987175000168817800093673    000049688                    000496880000000000000109                     I0149688     30081900000000040003410000017N110619105700000000000133008190000000000000000000000000000000000000000100074225928772MARIA DAS GRACAS ROCHA DE JESU          RUA MERCURION 104, CASA 4               COELHO DA RO25550280SAO JOAO DE MERRJUNIAO UMB DOS CULTOS AFRO BRAS    30081915 000004
21300820190000000000080                                                                                                                                                                                                                                                                                                                                                                                   000005
10231987175000168817800093673    000049687                    000496870000000000000109                     I0149687     31071900000000040003410000017N110619105700000000000133107190000000000000000000000000000000000000000100074225928772MARIA DAS GRACAS ROCHA DE JESU          RUA MERCURION 104, CASA 4               COELHO DA RO25550280SAO JOAO DE MERRJUNIAO UMB DOS CULTOS AFRO BRAS    31071915 000006
21310720190000000000080                                                                                                                                                                                                                                                                                                                                                                                   000007
10231987175000168817800093673    000049686                    000496860000000000000109                     I0149686     30091900000000040003410000017N110619105700000000000133009190000000000000000000000000000000000000000100069113777734MANOELLA MARIA DA CONCEICAO             RUA PIRES DO RION 928,                  EDEN        25540510SAO JOAO DE MERRJUNIAO UMB DOS CULTOS AFRO BRAS    30091915 000008
21300920190000000000080                                                                                                                                                                                                                                                                                                                                                                                   000009
10231987175000168817800093673    000049685                    000496850000000000000109                     I0149685     30081900000000040003410000017N110619105700000000000133008190000000000000000000000000000000000000000100069113777734MANOELLA MARIA DA CONCEICAO             RUA PIRES DO RION 928,                  EDEN        25540510SAO JOAO DE MERRJUNIAO UMB DOS CULTOS AFRO BRAS    30081915 000010
21300820190000000000080                                                                                                                                                                                                                                                                                                                                                                                   000011
10231987175000168817800093673    000049684                    000496840000000000000109                     I0149684     30071900000000040003410000017N110619105700000000000133007190000000000000000000000000000000000000000100069113777734MANOELLA MARIA DA CONCEICAO             RUA PIRES DO RION 928,                  EDEN        25540510SAO JOAO DE MERRJUNIAO UMB DOS CULTOS AFRO BRAS    30071915 000012
21300720190000000000080                                                                                                                                                                                                                                                                                                                                                                                   000013
10231987175000168817800093673    000049680                    000496800000000000000109                     I0149680     30061900000000080003410000017N110619105700000000000263006190000000000000000000000000000000000000000100010426625765ALESSANDRA LAURIANO LIMA DOMIN          RUA PROJETADAN 4,                       ANCORA      28899515RIO DAS OSTRAS RJUNIAO UMB DOS CULTOS AFRO BRAS    30061915 000014
21300620190000000000160                                                                                                                                                                                                                                                                                                                                                                                   000015
10231987175000168817800093673    000049679                    000496790000000000000109                     I0149679     30091900000000040003410000017N110619105700000000000133009190000000000000000000000000000000000000000100054434564749SONIA MARIA DA SILVA COSTA              TRAVESSA LUCINHON 0, LOTE 5 CASA 1      SAO MATEUS  25525521SAO JOAO DE MERRJUNIAO UMB DOS CULTOS AFRO BRAS    30091915 000016
21300920190000000000080                                                                                                                                                                                                                                                                                                                                                                                   000017
10231987175000168817800093673    000049678                    000496780000000000000109                     I0149678     30081900000000040003410000017N110619105700000000000133008190000000000000000000000000000000000000000100054434564749SONIA MARIA DA SILVA COSTA              TRAVESSA LUCINHON 0, LOTE 5 CASA 1      SAO MATEUS  25525521SAO JOAO DE MERRJUNIAO UMB DOS CULTOS AFRO BRAS    30081915 000018
21300820190000000000080                                                                                                                                                                                                                                                                                                                                                                                   000019
10231987175000168817800093673    000049677                    000496770000000000000109                     I0149677     30071900000000040003410000017N110619105700000000000133007190000000000000000000000000000000000000000100054434564749SONIA MARIA DA SILVA COSTA              TRAVESSA LUCINHON 0, LOTE 5 CASA 1      SAO MATEUS  25525521SAO JOAO DE MERRJUNIAO UMB DOS CULTOS AFRO BRAS    30071915 000020
21300720190000000000080                                                                                                                                                                                                                                                                                                                                                                                   000021
10231987175000168817800093673    000049676                    000496760000000000000109                     I0149676     30091900000000040003410000017N110619105700000000000133009190000000000000000000000000000000000000000100073003101791MARIA DA GLORIA SANTOS VANDERL          RUA ANTONIO HERMONTN 195, CASA 2        SAO MATEUS  25525641SAO JOAO DE MERRJUNIAO UMB DOS CULTOS AFRO BRAS    30091915 000022
21300920190000000000080                                                                                                                                                                                                                                                                                                                                                                                   000023
10231987175000168817800093673    000049675                    000496750000000000000109                     I0149675     30081900000000040003410000017N110619105700000000000133008190000000000000000000000000000000000000000100073003101791MARIA DA GLORIA SANTOS VANDERL          RUA ANTONIO HERMONTN 195, CASA 2        SAO MATEUS  25525641SAO JOAO DE MERRJUNIAO UMB DOS CULTOS AFRO BRAS    30081915 000024
21300820190000000000080                                                                                                                                                                                                                                                                                                                                                                                   000025
10231987175000168817800093673    000049674                    000496740000000000000109                     I0149674     30071900000000040003410000017N110619105700000000000133007190000000000000000000000000000000000000000100073003101791MARIA DA GLORIA SANTOS VANDERL          RUA ANTONIO HERMONTN 195, CASA 2        SAO MATEUS  25525641SAO JOAO DE MERRJUNIAO UMB DOS CULTOS AFRO BRAS    30071915 000026
21300720190000000000080                                                                                                                                                                                                                                                                                                                                                                                   000027
10231987175000168817800093673    000049673                    000496730000000000000109                     I0149673     30091900000000040003410000017N110619105700000000000133009190000000000000000000000000000000000000000100092199593720CLAUDIA SHIRLEI SANTOS DE SOUS          ESTRADA DA PEDRAN 167, RUA MONTEOREBE CASANTA CRUZ  23520241RIO DE JANEIRO RJUNIAO UMB DOS CULTOS AFRO BRAS    30091915 000028
21300920190000000000080                                                                                                                                                                                                                                                                                                                                                                                   000029
10231987175000168817800093673    000049672                    000496720000000000000109                     I0149672     30081900000000040003410000017N110619105700000000000133008190000000000000000000000000000000000000000100092199593720CLAUDIA SHIRLEI SANTOS DE SOUS          ESTRADA DA PEDRAN 167, RUA MONTEOREBE CASANTA CRUZ  23520241RIO DE JANEIRO RJUNIAO UMB DOS CULTOS AFRO BRAS    30081915 000030
21300820190000000000080                                                                                                                                                                                                                                                                                                                                                                                   000031
10231987175000168817800093673    000049671                    000496710000000000000109                     I0149671     31071900000000040003410000017N110619105700000000000133107190000000000000000000000000000000000000000100092199593720CLAUDIA SHIRLEI SANTOS DE SOUS          ESTRADA DA PEDRAN 167, RUA MONTEOREBE CASANTA CRUZ  23520241RIO DE JANEIRO RJUNIAO UMB DOS CULTOS AFRO BRAS    31071915 000032
21310720190000000000080                                                                                                                                                                                                                                                                                                                                                                                   000033
10231987175000168817800093673    000049670                    000496700000000000000109                     I0149670     30091900000000040003410000017N110619105700000000000133009190000000000000000000000000000000000000000100005527334744JORGE LEANDRO DIAS MAIA                 RUA IRINEU CORREIAN 235,                IRAJA       21235540RIO DE JANEIRO RJUNIAO UMB DOS CULTOS AFRO BRAS    30091915 000034
21300920190000000000080                                                                                                                                                                                                                                                                                                                                                                                   000035
10231987175000168817800093673    000049669                    000496690000000000000109                     I0149669     30081900000000040003410000017N110619105700000000000133008190000000000000000000000000000000000000000100005527334744JORGE LEANDRO DIAS MAIA                 RUA IRINEU CORREIAN 235,                IRAJA       21235540RIO DE JANEIRO RJUNIAO UMB DOS CULTOS AFRO BRAS    30081915 000036
21300820190000000000080                                                                                                                                                                                                                                                                                                                                                                                   000037
10231987175000168817800093673    000049668                    000496680000000000000109                     I0149668     31071900000000040003410000017N110619105700000000000133107190000000000000000000000000000000000000000100005527334744JORGE LEANDRO DIAS MAIA                 RUA IRINEU CORREIAN 235,                IRAJA       21235540RIO DE JANEIRO RJUNIAO UMB DOS CULTOS AFRO BRAS    31071915 000038
21310720190000000000080                                                                                                                                                                                                                                                                                                                                                                                   000039
10231987175000168817800093673    000049667                    000496670000000000000109                     I0149667     30061900000000200003410000017N110619105700000000000663006190000000000000000000000000000000000000000100086357522791ANDRE VEIGA PEIXOTO                     ALAMEDA SAO BENTON 43,                  SAO VICENTE 26172130BELFORD ROXO   RJUNIAO UMB DOS CULTOS AFRO BRAS    30061915 000040
21300620190000000000400                                                                                                                                                                                                                                                                                                                                                                                   000041
10231987175000168817800093673    000049666                    000496660000000000000109                     I0149666     30091900000000040003410000017N100619105700000000000133009190000000000000000000000000000000000000000100004467070745MARCELA FARIAS DOS SANTOS               RUA FRANCISCO SCALIN 222,               QUISSAMA    25615240PETROPOLIS     RJUNIAO UMB DOS CULTOS AFRO BRAS    30091915 000042
21300920190000000000080                                                                                                                                                                                                                                                                                                                                                                                   000043
10231987175000168817800093673    000049665                    000496650000000000000109                     I0149665     30091900000000040003410000017N100619105700000000000133009190000000000000000000000000000000000000000100007179369705KATIA CRISTINA DE OLIVEIRA RAN          RUA PAIM PAMPLONAN 735,                 SAMPAIO     20970140RIO DE JANEIRO RJUNIAO UMB DOS CULTOS AFRO BRAS    30091915 000044
21300920190000000000080                                                                                                                                                                                                                                                                                                                                                                                   000045
10231987175000168817800093673    000049664                    000496640000000000000109                     I0149664     30091900000000040003410000017N100619105700000000000133009190000000000000000000000000000000000000000100034578986772REGINA CELY MOREIRA DA SILVA            RUA WANIO JOSE DE MATTOSN 167, CASA 1   CONJUNTO URU23573175RIO DE JANEIRO RJUNIAO UMB DOS CULTOS AFRO BRAS    30091915 000046
21300920190000000000080                                                                                                                                                                                                                                                                                                                                                                                   000047
10231987175000168817800093673    000049663                    000496630000000000000109                     I0149663     30091900000000040003410000017N100619105700000000000133009190000000000000000000000000000000000000000100005367142745ALEXANDRE DE AZEVEDO MASCARENH          RUA SANTA EMILIAN 84,                   PACIENCIA   23580025RIO DE JANEIRO RJUNIAO UMB DOS CULTOS AFRO BRAS    30091915 000048
21300920190000000000080                                                                                                                                                                                                                                                                                                                                                                                   000049
10231987175000168817800093673    000049662                    000496620000000000000109                     I0149662     30091900000000040003410000017N100619105700000000000133009190000000000000000000000000000000000000000100005851795735JOAO LUIZ DE OLIVEIRA MAGALHAE          RUA ANTONIO CARLOS PARANHOSN 29,        VILA VALQUEI21321340RIO DE JANEIRO RJUNIAO UMB DOS CULTOS AFRO BRAS    30091915 000050
21300920190000000000080                                                                                                                                                                                                                                                                                                                                                                                   000051
10231987175000168817800093673    000049661                    000496610000000000000109                     I0149661     30091900000000040003410000017N100619105700000000000133009190000000000000000000000000000000000000000100017927558722JOAO MARCELO GUALBERTO GOMES            RUA MURUPEN 266,                        PACIENCIA   23580120RIO DE JANEIRO RJUNIAO UMB DOS CULTOS AFRO BRAS    30091915 000052
21300920190000000000080                                                                                                                                                                                                                                                                                                                                                                                   000053
10231987175000168817800093673    000049660                    000496600000000000000109                     I0149660     30091900000000040003410000017N100619105700000000000133009190000000000000000000000000000000000000000100007020404790NADIR REGINA CRUZ DA SILVA              RUA DARDON 0, LOTE 1 QUADRA 225         VILAR DOS TE25565020SAO JOAO DE MERRJUNIAO UMB DOS CULTOS AFRO BRAS    30091915 000054
21300920190000000000080                                                                                                                                                                                                                                                                                                                                                                                   000055
10231987175000168817800093673    000049659                    000496590000000000000109                     I0149659     30091900000000040003410000017N100619105700000000000133009190000000000000000000000000000000000000000100008549619760BRUNO SERGIO GONCALVES DA CRUZ          RUA ROBERTO SERGIO OAZENN 0, LOTE 22 QUAADRIANO - CA23088530RIO DE JANEIRO RJUNIAO UMB DOS CULTOS AFRO BRAS    30091915 000056
21300920190000000000080                                                                                                                                                                                                                                                                                                                                                                                   000057
10231987175000168817800093673    000049658                    000496580000000000000109                     I0149658     30091900000000040003410000017N100619105700000000000133009190000000000000000000000000000000000000000100009817733700JULIANA SOUZA DA SILVA                  RUA SAMINN 884, APTº 102               IRAJA       21235210RIO DE JANEIRO RJUNIAO UMB DOS CULTOS AFRO BRAS    30091915 000058
21300920190000000000080                                                                                                                                                                                                                                                                                                                                                                                   000059
10231987175000168817800093673    000049657                    000496570000000000000109                     I0149657     30091900000000040003410000017N100619105700000000000133009190000000000000000000000000000000000000000100000837723752SUELI REGINA DOS SANTOS DA SIL          ESTRADA DOS VIEIRASN 34, RUA LUCI RIBEIRPACIENCIA   23587610RIO DE JANEIRO RJUNIAO UMB DOS CULTOS AFRO BRAS    30091915 000060
21300920190000000000080                                                                                                                                                                                                                                                                                                                                                                                   000061
10231987175000168817800093673    000049656                    000496560000000000000109                     I0149656     30091900000000040003410000017N100619105700000000000133009190000000000000000000000000000000000000000100008374303727FABIO LIMA DA SILVA                     RUA VINTE E SETEN 0, LOTE 25 QUADRA E S MORADA DO SO24865640ITABORAI       RJUNIAO UMB DOS CULTOS AFRO BRAS    30091915 000062
21300920190000000000080                                                                                                                                                                                                                                                                                                                                                                                   000063
10231987175000168817800093673    000049655                    000496550000000000000109                     I0149655     30091900000000040003410000017N100619105700000000000133009190000000000000000000000000000000000000000100002593772794EUNICE ROSA ALVES PEREIRA               ESTRADA DOS VIEIRASN 1586, RUA PROJETADAPACIENCIA   23587610RIO DE JANEIRO RJUNIAO UMB DOS CULTOS AFRO BRAS    30091915 000064
21300920190000000000080                                                                                                                                                                                                                                                                                                                                                                                   000065
10231987175000168817800093673    000049654                    000496540000000000000109                     I0149654     30091900000000040003410000017N100619105700000000000133009190000000000000000000000000000000000000000100073803499704MIRNA OLIVEIRA DO NASCIMENTO            RUA JOSE LOURENCO DA SILVAN 0, QUADRA 2 SAO JOSE DO 24930668MARICA         RJUNIAO UMB DOS CULTOS AFRO BRAS    30091915 000066
21300920190000000000080                                                                                                                                                                                                                                                                                                                                                                                   000067
10231987175000168817800093673    000049653                    000496530000000000000109                     I0149653     30091900000000040003410000017N100619105700000000000133009190000000000000000000000000000000000000000100010941941744LEANDRO REAL DA SILVA                   RUA IBICABAN 70,                        PACIENCIA   23585610RIO DE JANEIRO RJUNIAO UMB DOS CULTOS AFRO BRAS    30091915 000068
21300920190000000000080                                                                                                                                                                                                                                                                                                                                                                                   000069
10231987175000168817800093673    000049652                    000496520000000000000109                     I0149652     30091900000000030003410000017N100619105700000000000103009190000000000000000000000000000000000000000100010243718756ALESSANDRA JESUS DE OLIVEIRA L          RUA ANTONIO JOAQUIM DA SILVAN 49,       PARQUE BARRE25581140SAO JOAO DE MERRJUNIAO UMB DOS CULTOS AFRO BRAS    30091915 000070
21300920190000000000060                                                                                                                                                                                                                                                                                                                                                                                   000071
10231987175000168817800093673    000049651                    000496510000000000000109                     I0149651     30091900000000040003410000017N100619105700000000000133009190000000000000000000000000000000000000000100008039869714LUCILIANE ALVES OLIVEIRA                RUA DOS TATUIS - TRAVESSA ITABORAI COM ESAMBURA (TAM28926800CABO FRIO      RJUNIAO UMB DOS CULTOS AFRO BRAS    30091915 000072
21300920190000000000080                                                                                                                                                                                                                                                                                                                                                                                   000073
10231987175000168817800093673    000049650                    000496500000000000000109                     I0149650     30091900000000040003410000017N100619105700000000000133009190000000000000000000000000000000000000000100098959913715JENAINA ESTEVAO SOARES                  RUA DAS RAPOSASN 11, TRAVESSA TATUIS    SAMBURA (TAM28926736CABO FRIO      RJUNIAO UMB DOS CULTOS AFRO BRAS    30091915 000074
21300920190000000000080                                                                                                                                                                                                                                                                                                                                                                                   000075
10231987175000168817800093673    000049649                    000496490000000000000109                     I0149649     30091900000000040003410000017N100619105700000000000133009190000000000000000000000000000000000000000100008899626774LEONARDO JOAQUIM                        ESTRADA DOS VIEIRAS - RUA DAS FLORESN 30PACIENCIA   23587610RIO DE JANEIRO RJUNIAO UMB DOS CULTOS AFRO BRAS    30091915 000076
21300920190000000000080                                                                                                                                                                                                                                                                                                                                                                                   000077
10231987175000168817800093673    000049648                    000496480000000000000109                     I0149648     30091900000000040003410000017N100619105700000000000133009190000000000000000000000000000000000000000100052122832720ANTONIO JOVINO FELIX                    ESTRADA DOS VIEIRAS - RUA 8 N 105,      PACIENCIA   23587610RIO DE JANEIRO RJUNIAO UMB DOS CULTOS AFRO BRAS    30091915 000078
21300920190000000000080                                                                                                                                                                                                                                                                                                                                                                                   000079
10231987175000168817800093673    000049647                    000496470000000000000109                     I0149647     30091900000000040003410000017N100619105700000000000133009190000000000000000000000000000000000000000100009931437766FABIO OLIVEIRA WANDERMUREM DE           RUA SAO BERNARDON 113,                  RICARDO DE A21620560RIO DE JANEIRO RJUNIAO UMB DOS CULTOS AFRO BRAS    30091915 000080
21300920190000000000080                                                                                                                                                                                                                                                                                                                                                                                   000081
10231987175000168817800093673    000049646                    000496460000000000000109                     I0149646     30091900000000040003410000017N100619105700000000000133009190000000000000000000000000000000000000000100084334690700VICTOR MIRANDA GIORDANO                 RUA UMN 80, PARQUE ALVORADA             NOVA BRASILI26053015NOVA IGUACU    RJUNIAO UMB DOS CULTOS AFRO BRAS    30091915 000082
21300920190000000000080                                                                                                                                                                                                                                                                                                                                                                                   000083
10231987175000168817800093673    000049645                    000496450000000000000109                     I0149645     30091900000000040003410000017N100619105700000000000133009190000000000000000000000000000000000000000100072490993704ELIANE DE OLIVEIRA FARIAS               RUA PEDRO OSORION 0, (RUA B TRAVESSA 5 NGUARATIBA   23031280RIO DE JANEIRO RJUNIAO UMB DOS CULTOS AFRO BRAS    30091915 000084
21300920190000000000080                                                                                                                                                                                                                                                                                                                                                                                   000085
10231987175000168817800093673    000049644                    000496440000000000000109                     I0149644     30091900000000040003410000017N100619105700000000000133009190000000000000000000000000000000000000000100007353323710ROBSON MARTINS SANTOS                   RUA DAS ARARASN 876,                    FLEXEIRAS   25900213MAGE           RJUNIAO UMB DOS CULTOS AFRO BRAS    30091915 000086
21300920190000000000080                                                                                                                                                                                                                                                                                                                                                                                   000087
10231987175000168817800093673    000049643                    000496430000000000000109                     I0149643     30091900000000040003410000017N100619105700000000000133009190000000000000000000000000000000000000000100089300190725NAGE MARGARETE DE OLIVEIRA              AVENIDA SILVEIRA MARTINSN 267,          PARQUE LAFAI25015510DUQUE DE CAXIASRJUNIAO UMB DOS CULTOS AFRO BRAS    30091915 000088
21300920190000000000080                                                                                                                                                                                                                                                                                                                                                                                   000089
10231987175000168817800093673    000049642                    000496420000000000000109                     I0149642     30091900000000040003410000017N100619105700000000000133009190000000000000000000000000000000000000000100097115606749VALTER ANTONIO RAMOS SILVA              RUA ASSUNCAON 0, LOTE 9 QUADRA 115      VILAR DOS TE25561410SAO JOAO DE MERRJUNIAO UMB DOS CULTOS AFRO BRAS    30091915 000090
21300920190000000000080                                                                                                                                                                                                                                                                                                                                                                                   000091
10231987175000168817800093673    000049641                    000496410000000000000109                     I0149641     30091900000000040003410000017N100619105700000000000133009190000000000000000000000000000000000000000100069221545768SERGIO MURILO ALVES DA SILVA            RUA MINHON 296, CASA 1                  DOS FERREIRA26185660BELFORD ROXO   RJUNIAO UMB DOS CULTOS AFRO BRAS    30091915 000092
21300920190000000000080                                                                                                                                                                                                                                                                                                                                                                                   000093
10231987175000168817800093673    000049640                    000496400000000000000109                     I0149640     30091900000000040003410000017N100619105700000000000133009190000000000000000000000000000000000000000100002088399763CLEIDE PADILHA RAMOS                    RUA PAULO FERNANDESN 10,                SAMBURA (TAM28926700CABO FRIO      RJUNIAO UMB DOS CULTOS AFRO BRAS    30091915 000094
21300920190000000000080                                                                                                                                                                                                                                                                                                                                                                                   000095
10231987175000168817800093673    000049639                    000496390000000000000109                     I0149639     30091900000000040003410000017N100619105700000000000133009190000000000000000000000000000000000000000100002366417780ROSEMAR SOARES                          RODOVIA AMARAL PEIXOTON 0, KM 1691 - TRAUNAMAR      28950000CABO FRIO      RJUNIAO UMB DOS CULTOS AFRO BRAS    30091915 000096
21300920190000000000080                                                                                                                                                                                                                                                                                                                                                                                   000097
10231987175000168817800093673    000049638                    000496380000000000000109                     I0149638     30091900000000040003410000017N100619105700000000000133009190000000000000000000000000000000000000000100000957434723SIRLENE MINEIRO DE SA                   RUA ABELARDO BARBOSAN 0, LOTE 14 QUADRA SANTA MARGAR28928704CABO FRIO      RJUNIAO UMB DOS CULTOS AFRO BRAS    30091915 000098
21300920190000000000080                                                                                                                                                                                                                                                                                                                                                                                   000099
10231987175000168817800093673    000049637                    000496370000000000000109                     I0149637     30091900000000040003410000017N100619105700000000000133009190000000000000000000000000000000000000000100007986433744JUCIARA GONCALVES ARRUDA                RUA DOS MACACOSN 38,                    UNAMAR (TAMO28928176CABO FRIO      RJUNIAO UMB DOS CULTOS AFRO BRAS    30091915 000100
21300920190000000000080                                                                                                                                                                                                                                                                                                                                                                                   000101
10231987175000168817800093673    000049636                    000496360000000000000109                     I0149636     30091900000000040003410000017N100619105700000000000133009190000000000000000000000000000000000000000100004791629728CELIO LUIZ DE SANT ANNA                 RUA DAS RAPOSASN 13, TRAVESSA DOS PREAS SAMBURA (TAM28926736CABO FRIO      RJUNIAO UMB DOS CULTOS AFRO BRAS    30091915 000102
21300920190000000000080                                                                                                                                                                                                                                                                                                                                                                                   000103
10231987175000168817800093673    000049635                    000496350000000000000109                     I0149635     30091900000000040003410000017N100619105700000000000133009190000000000000000000000000000000000000000100011615621172DILMA DE ALBUQUERQUE SANTOS             RUA ALECRIMN 481, CASA 2                VILA KOSMOS 21220050RIO DE JANEIRO RJUNIAO UMB DOS CULTOS AFRO BRAS    30091915 000104
21300920190000000000080                                                                                                                                                                                                                                                                                                                                                                                   000105
10231987175000168817800093673    000049634                    000496340000000000000109                     I0149634     30091900000000040003410000017N100619105700000000000133009190000000000000000000000000000000000000000100013000533729IGOR DA SILVA NOGUEROL DOS SAN          AVENIDA ALDO BOTELHON 328,              CAMPO GRANDE23055630RIO DE JANEIRO RJUNIAO UMB DOS CULTOS AFRO BRAS    30091915 000106
21300920190000000000080                                                                                                                                                                                                                                                                                                                                                                                   000107
10231987175000168817800093673    000049633                    000496330000000000000109                     I0149633     30091900000000040003410000017N100619105700000000000133009190000000000000000000000000000000000000000100099644630734KLEBER BERNARDINO                       RUA AQUIDABAN 0, LOTE 4 QUADRA 2        CAMPO ALEGRE26292171NOVA IGUACU    RJUNIAO UMB DOS CULTOS AFRO BRAS    30091915 000108
21300920190000000000080                                                                                                                                                                                                                                                                                                                                                                                   000109
10231987175000168817800093673    000049632                    000496320000000000000109                     I0149632     30091900000000040003410000017N100619105700000000000133009190000000000000000000000000000000000000000100078552214768MARCOS TEIXEIRA DOS SANTOS              RUA FRANCISCA HAIDENN 125, CASA 2       BONSUCESSO  21032090RIO DE JANEIRO RJUNIAO UMB DOS CULTOS AFRO BRAS    30091915 000110
21300920190000000000080                                                                                                                                                                                                                                                                                                                                                                                   000111
10231987175000168817800093673    000049631                    000496310000000000000109                     I0149631     30091900000000040003410000017N100619105700000000000133009190000000000000000000000000000000000000000100083011358753PAULO ROBERTO RAMOS DA SILVA            RUA BELAN 30,                           CAMPO ALEGRE26292168NOVA IGUACU    RJUNIAO UMB DOS CULTOS AFRO BRAS    30091915 000112
21300920190000000000080                                                                                                                                                                                                                                                                                                                                                                                   000113
10231987175000168817800093673    000049630                    000496300000000000000109                     I0149630     30091900000000040003410000017N100619105700000000000133009190000000000000000000000000000000000000000100012921241722WALQUIRIA WAM LUME SOUZA                RUA MARIO BARBOSAN 6,                   CABUCU      26291416NOVA IGUACU    RJUNIAO UMB DOS CULTOS AFRO BRAS    30091915 000114
21300920190000000000080                                                                                                                                                                                                                                                                                                                                                                                   000115
10231987175000168817800093673    000049629                    000496290000000000000109                     I0149629     30091900000000040003410000017N100619105700000000000133009190000000000000000000000000000000000000000100002299564756SONIA ALVES DE PAULA                    ESTRADA CABUCUN 295,                    CABUCU      26291257NOVA IGUACU    RJUNIAO UMB DOS CULTOS AFRO BRAS    30091915 000116
21300920190000000000080                                                                                                                                                                                                                                                                                                                                                                                   000117
10231987175000168817800093673    000049628                    000496280000000000000109                     I0149628     30091900000000040003410000017N100619105700000000000133009190000000000000000000000000000000000000000100048024252791ISRAELINA RODRIGUES GABRIEL             RUA MANUEL LUIZ DE ANDRADEN 59,         VALVERDE    26290804NOVA IGUACU    RJUNIAO UMB DOS CULTOS AFRO BRAS    30091915 000118
21300920190000000000080                                                                                                                                                                                                                                                                                                                                                                                   000119
10231987175000168817800093673    000049627                    000496270000000000000109                     I0149627     30091900000000040003410000017N100619105700000000000133009190000000000000000000000000000000000000000100004428120788LUCINEA DEBORA SILVA DOS SANTO          RUA JACATIRAON 272, CASA 4 (RUA LAURO ARCAROLINA    25060140DUQUE DE CAXIASRJUNIAO UMB DOS CULTOS AFRO BRAS    30091915 000120
21300920190000000000080                                                                                                                                                                                                                                                                                                                                                                                   000121
10231987175000168817800093673    000049626                    000496260000000000000109                     I0149626     30091900000000040003410000017N100619105700000000000133009190000000000000000000000000000000000000000100064992721753REGINA DA SILVA RANGEL                  RUA SERGIO MARTINS DA MOTAN 753,        CABUCU      26291362NOVA IGUACU    RJUNIAO UMB DOS CULTOS AFRO BRAS    30091915 000122
21300920190000000000080                                                                                                                                                                                                                                                                                                                                                                                   000123
10231987175000168817800093673    000049625                    000496250000000000000109                     I0149625     30091900000000040003410000017N100619105700000000000133009190000000000000000000000000000000000000000100013370546744DIEGO LINO VASCONCELOS                  AVENIDA MAUAN 0, TRAVESSA DOIS - LOTE 2 GRANJA SANTA25937244MAGE           RJUNIAO UMB DOS CULTOS AFRO BRAS    30091915 000124
21300920190000000000080                                                                                                                                                                                                                                                                                                                                                                                   000125
10231987175000168817800093673    000049624                    000496240000000000000109                     I0149624     30091900000000040003410000017N100619105700000000000133009190000000000000000000000000000000000000000100038650967787NELSON JOSE DE CARVALHO MARQUE          RUA BARAO DO BOM RETIRON 1742, APTº 602ENGENHO NOVO20715004RIO DE JANEIRO RJUNIAO UMB DOS CULTOS AFRO BRAS    30091915 000126
21300920190000000000080                                                                                                                                                                                                                                                                                                                                                                                   000127
10231987175000168817800093673    000049623                    000496230000000000000109                     I0149623     30091900000000040003410000017N100619105700000000000133009190000000000000000000000000000000000000000100011886231761THALLES CASSIANO SERRA LIMA             RUA SALDANHA DA GAMAN 181,              ENGENHO DO P25015295DUQUE DE CAXIASRJUNIAO UMB DOS CULTOS AFRO BRAS    30091915 000128
21300920190000000000080                                                                                                                                                                                                                                                                                                                                                                                   000129
10231987175000168817800093673    000049622                    000496220000000000000109                     I0149622     30091900000000040003410000017N100619105700000000000133009190000000000000000000000000000000000000000100002412663785BARBARA DE MELO FERREIRA                RUA MARQUESA DE GRIZELDAN 1439, APARTAMECENTRO      26553290MESQUITA       RJUNIAO UMB DOS CULTOS AFRO BRAS    30091915 000130
21300920190000000000080                                                                                                                                                                                                                                                                                                                                                                                   000131
10231987175000168817800093673    000049621                    000496210000000000000109                     I0149621     30091900000000040003410000017N100619105700000000000133009190000000000000000000000000000000000000000100015039577729JEFERSON LIMA VIDAL DA SILVA            RUA PARANAN 26, FURQUIM MENDES          VIGARIO GERA21241340RIO DE JANEIRO RJUNIAO UMB DOS CULTOS AFRO BRAS    30091915 000132
21300920190000000000080                                                                                                                                                                                                                                                                                                                                                                                   000133
10231987175000168817800093673    000049620                    000496200000000000000109                     I0149620     30091900000000040003410000017N100619105700000000000133009190000000000000000000000000000000000000000100026787024720SHIRLEI AVELAR DA SILVA                 ESTRADA DO BARRO VERMELHON 1181,        COLEGIO     21540502RIO DE JANEIRO RJUNIAO UMB DOS CULTOS AFRO BRAS    30091915 000134
21300920190000000000080                                                                                                                                                                                                                                                                                                                                                                                   000135
10231987175000168817800093673    000049619                    000496190000000000000109                     I0149619     30091900000000040003410000017N100619105700000000000133009190000000000000000000000000000000000000000100093331576700MARILENE CARTAXO ANTONIO                AVENIDA BRASILN 3493, TRAVESSA SABINA NSANTISSIMO  20930041RIO DE JANEIRO RJUNIAO UMB DOS CULTOS AFRO BRAS    30091915 000136
21300920190000000000080                                                                                                                                                                                                                                                                                                                                                                                   000137
10231987175000168817800093673    000049618                    000496180000000000000109                     I0149618     30091900000000040003410000017N100619105700000000000133009190000000000000000000000000000000000000000100074878360704KATIA MARIA DA SILVA PINTO              RUA BARBOSA RODRIGUESN 23,              ENGENHEIRO L21370160RIO DE JANEIRO RJUNIAO UMB DOS CULTOS AFRO BRAS    30091915 000138
21300920190000000000080                                                                                                                                                                                                                                                                                                                                                                                   000139
10231987175000168817800093673    000049617                    000496170000000000000109                     I0149617     30091900000000040003410000017N100619105700000000000133009190000000000000000000000000000000000000000100038206480706MARIA ANGELA PACHECO DE SOUSA           RUA CONCEICAO MARIA PEREIRAN 11, QUADRA CAMPO LINDO 23898255SEROPEDICA     RJUNIAO UMB DOS CULTOS AFRO BRAS    30091915 000140
21300920190000000000080                                                                                                                                                                                                                                                                                                                                                                                   000141
10231987175000168817800093673    000049616                    000496160000000000000109                     I0149616     30091900000000040003410000017N100619105700000000000133009190000000000000000000000000000000000000000100005348183741MARTA CRISTINA V. ANDRADE COVE          ESTRADA DAS AGULHAS NEGRASN 44, B       CAMPO GRANDE23042500RIO DE JANEIRO RJUNIAO UMB DOS CULTOS AFRO BRAS    30091915 000142
21300920190000000000080                                                                                                                                                                                                                                                                                                                                                                                   000143
10231987175000168817800093673    000049615                    000496150000000000000109                     I0149615     30091900000000040003410000017N100619105700000000000133009190000000000000000000000000000000000000000100005305498759ANTONIO INACIO REIS DE SOUSA            RUA EMILIA DOS SANTOSN 0, LOTE 1 QUADRA CAMPO LINDO 23898060SEROPEDICA     RJUNIAO UMB DOS CULTOS AFRO BRAS    30091915 000144
21300920190000000000080                                                                                                                                                                                                                                                                                                                                                                                   000145
10231987175000168817800093673    000049614                    000496140000000000000109                     I0149614     30091900000000040003410000017N100619105700000000000133009190000000000000000000000000000000000000000100072069856704FERNANDO GOES DE SANTANA                RUA VASSOURASN 0, LOTE 13 - ENTRE RUA TRIPITANGAS   28992726SAQUAREMA      RJUNIAO UMB DOS CULTOS AFRO BRAS    30091915 000146
21300920190000000000080                                                                                                                                                                                                                                                                                                                                                                                   000147
10231987175000168817800093673    000049613                    000496130000000000000109                     I0149613     30091900000000040003410000017N100619105700000000000133009190000000000000000000000000000000000000000100008039606705LOURDES BEATRIZ DE ALMEIDA              AVENIDA JOAQUIM DE OLIVEIRAN 300,       BOA VISTA   24466142SAO GONCALO    RJUNIAO UMB DOS CULTOS AFRO BRAS    30091915 000148
21300920190000000000080                                                                                                                                                                                                                                                                                                                                                                                   000149
10231987175000168817800093673    000049612                    000496120000000000000109                     I0149612     30091900000000040003410000017N100619105700000000000133009190000000000000000000000000000000000000000100091401127720ANA CLAUDIA PESSOA                      RUA JOSE RAMALHON 14,                   MUTUAPIRA   24455235SAO GONCALO    RJUNIAO UMB DOS CULTOS AFRO BRAS    30091915 000150
21300920190000000000080                                                                                                                                                                                                                                                                                                                                                                                   000151
10231987175000168817800093673    000049611                    000496110000000000000109                     I0149611     30091900000000040003410000017N100619105700000000000133009190000000000000000000000000000000000000000100007660344706LUCIANA DE OLIVEIRA SOUZA               RUA BARBARA LAISN 29, APT 101           VILA LAIS   25581001SAO JOAO DE MERRJUNIAO UMB DOS CULTOS AFRO BRAS    30091915 000152
21300920190000000000080                                                                                                                                                                                                                                                                                                                                                                                   000153
10231987175000168817800093673    000049610                    000496100000000000000109                     I0149610     30091900000000040003410000017N100619105700000000000133009190000000000000000000000000000000000000000100073918784720CLAUDIO GOMES DA SILVA                  RUA JABOTIANAN 25,                      ROCHA MIRAND21540670RIO DE JANEIRO RJUNIAO UMB DOS CULTOS AFRO BRAS    30091915 000154
21300920190000000000080                                                                                                                                                                                                                                                                                                                                                                                   000155
10231987175000168817800093673    000049609                    000496090000000000000109                     I0149609     30091900000000040003410000017N100619105700000000000133009190000000000000000000000000000000000000000100005443030752CRISTINA GONCALVES DA SILVA BR          RUA GENERAL CARVALHO N 1250, CASA 5     CORDOVIL    21250240RIO DE JANEIRO RJUNIAO UMB DOS CULTOS AFRO BRAS    30091915 000156
21300920190000000000080                                                                                                                                                                                                                                                                                                                                                                                   000157
10231987175000168817800093673    000049608                    000496080000000000000109                     I0149608     30091900000000040003410000017N100619105700000000000133009190000000000000000000000000000000000000000100011533112754ANDREA NUNES BRASIL                     RUA AUGUSTO SERGIO BOTELHON 0, QUADRA 2 BARRO BRANCO25267124DUQUE DE CAXIASRJUNIAO UMB DOS CULTOS AFRO BRAS    30091915 000158
21300920190000000000080                                                                                                                                                                                                                                                                                                                                                                                   000159
10231987175000168817800093673    000049607                    000496070000000000000109                     I0149607     30091900000000040003410000017N100619105700000000000133009190000000000000000000000000000000000000000100037408887768GEORGE FERNANDO OLIVEIRA PAIXA          RUA IRITUIAN 119,                       BRAZ DE PINA21215090RIO DE JANEIRO RJUNIAO UMB DOS CULTOS AFRO BRAS    30091915 000160
21300920190000000000080                                                                                                                                                                                                                                                                                                                                                                                   000161
10231987175000168817800093673    000049606                    000496060000000000000109                     I0149606     30091900000000040003410000017N100619105700000000000133009190000000000000000000000000000000000000000100015702435737MARCIO PEIXOTO CORREA                   RUA DO DIALOGO N 65,                    CURICICA - J22780730RIO DE JANEIRO RJUNIAO UMB DOS CULTOS AFRO BRAS    30091915 000162
21300920190000000000080                                                                                                                                                                                                                                                                                                                                                                                   000163
10231987175000168817800093673    000049605                    000496050000000000000109                     I0149605     30091900000000040003410000017N100619105700000000000133009190000000000000000000000000000000000000000100007541296759NELMA DOS ANJOS SOUZA GONCALVE          ESTRADA PEDRINHASN 23, QUADRA 8         VENDA VELHA 25580660SAO JOAO DE MERRJUNIAO UMB DOS CULTOS AFRO BRAS    30091915 000164
21300920190000000000080                                                                                                                                                                                                                                                                                                                                                                                   000165
10231987175000168817800093673    000049604                    000496040000000000000109                     I0149604     30091900000000040003410000017N100619105700000000000133009190000000000000000000000000000000000000000100097163180730CLEA DE OLIVEIRA BRASIL                 RUA ARACI COSTAN 67,                    GUADALUPE   21665010RIO DE JANEIRO RJUNIAO UMB DOS CULTOS AFRO BRAS    30091915 000166
21300920190000000000080                                                                                                                                                                                                                                                                                                                                                                                   000167
10231987175000168817800093673    000049603                    000496030000000000000109                     I0149603     30091900000000040003410000017N100619105700000000000133009190000000000000000000000000000000000000000100010210752726LEANDRO DA PAZ MARTINS                  RUA NOVA DO AMORIMN 206, FRENTE         BENTO RIBEIR21331590RIO DE JANEIRO RJUNIAO UMB DOS CULTOS AFRO BRAS    30091915 000168
21300920190000000000080                                                                                                                                                                                                                                                                                                                                                                                   000169
10231987175000168817800093673    000049602                    000496020000000000000109                     I0149602     30091900000000040003410000017N100619105700000000000133009190000000000000000000000000000000000000000100015242178752EDLAINE RAMOS DE OLIVEIRA               RUA HOMERO PINTO CAPUTON 0, LOTE 23 QUADBANGU       21863080RIO DE JANEIRO RJUNIAO UMB DOS CULTOS AFRO BRAS    30091915 000170
21300920190000000000080                                                                                                                                                                                                                                                                                                                                                                                   000171
10231987175000168817800093673    000049601                    000496010000000000000109                     I0149601     30091900000000040003410000017N100619105700000000000133009190000000000000000000000000000000000000000100006211034709EDUARDO CARLOS FELIZARDO DE SO          AVENIDA CANAL DO ANILN 166, G           GARDENIA AZU22765431RIO DE JANEIRO RJUNIAO UMB DOS CULTOS AFRO BRAS    30091915 000172
21300920190000000000080                                                                                                                                                                                                                                                                                                                                                                                   000173
10231987175000168817800093673    000049600                    000496000000000000000109                     I0149600     30091900000000040003410000017N100619105700000000000133009190000000000000000000000000000000000000000100001232598780VANILDA DE SOUZA AZEREDO DA SI          RUA ARISTOTELINA SILVA LINON 208, GLEBA CHAPERO     23831330ITAGUAI        RJUNIAO UMB DOS CULTOS AFRO BRAS    30091915 000174
21300920190000000000080                                                                                                                                                                                                                                                                                                                                                                                   000175
10231987175000168817800093673    000049599                    000495990000000000000109                     I0149599     30091900000000040003410000017N100619105700000000000133009190000000000000000000000000000000000000000100009699441798LIDIANE DE ASSUNCAO VELOSO RAN          RUA SILVA PINTON 88, APARTAMENTO 502    VILA ISABEL 20551190RIO DE JANEIRO RJUNIAO UMB DOS CULTOS AFRO BRAS    30091915 000176
21300920190000000000080                                                                                                                                                                                                                                                                                                                                                                                   000177
10231987175000168817800093673    000049598                    000495980000000000000109                     I0149598     30091900000000040003410000017N100619105700000000000133009190000000000000000000000000000000000000000100010989429733BRUNO FELIPE CANDIDO DE AMORIM          RUA EULINA RIBEIRON 310, APTº 312 - BLOENGENHO DE D20745110RIO DE JANEIRO RJUNIAO UMB DOS CULTOS AFRO BRAS    30091915 000178
21300920190000000000080                                                                                                                                                                                                                                                                                                                                                                                   000179
10231987175000168817800093673    000049597                    000495970000000000000109                     I0149597     30091900000000040003410000017N100619105700000000000133009190000000000000000000000000000000000000000100007072912754FRANK ALBERT MOREIRA NUNES              TRAVESSA MESTRE HENKEL ASSISN 0,        DEODORO     21616400RIO DE JANEIRO RJUNIAO UMB DOS CULTOS AFRO BRAS    30091915 000180
21300920190000000000080                                                                                                                                                                                                                                                                                                                                                                                   000181
10231987175000168817800093673    000049596                    000495960000000000000109                     I0149596     30091900000000040003410000017N100619105700000000000133009190000000000000000000000000000000000000000100001670149781ANA ELISA SANTOS DE SOUZA               RUA LUIS GURGELN 256, FUNDOS            TOMAS COELHO20750320RIO DE JANEIRO RJUNIAO UMB DOS CULTOS AFRO BRAS    30091915 000182
21300920190000000000080                                                                                                                                                                                                                                                                                                                                                                                   000183
10231987175000168817800093673    000049595                    000495950000000000000109                     I0149595     30091900000000040003410000017N100619105700000000000133009190000000000000000000000000000000000000000100007079433703PABLO CARVALHO KIMMEMGS                 RUA MANOEL DE MATTOS SOUZAN 160, CASA 10CAMPO GRANDE23042060RIO DE JANEIRO RJUNIAO UMB DOS CULTOS AFRO BRAS    30091915 000184
21300920190000000000080                                                                                                                                                                                                                                                                                                                                                                                   000185
10231987175000168817800093673    000049594                    000495940000000000000109                     I0149594     30091900000000040003410000017N100619105700000000000133009190000000000000000000000000000000000000000100013647266701WALLACE BRUNO COUTINHO PEREIRA          RUA RAFAEL WALLACE COUTINHO PEREIRA N 71SANTANA     23811437ITAGUAI        RJUNIAO UMB DOS CULTOS AFRO BRAS    30091915 000186
21300920190000000000080                                                                                                                                                                                                                                                                                                                                                                                   000187
10231987175000168817800093673    000049593                    000495930000000000000109                     I0149593     30091900000000040003410000017N100619105700000000000133009190000000000000000000000000000000000000000100001662021771ROBERTO DOS SANTOS QUEIROGA             RUA EDGAR BARBOSA N 120,                ANCHIETA    21645190RIO DE JANEIRO RJUNIAO UMB DOS CULTOS AFRO BRAS    30091915 000188
21300920190000000000080                                                                                                                                                                                                                                                                                                                                                                                   000189
10231987175000168817800093673    000049592                    000495920000000000000109                     I0149592     30091900000000040003410000017N100619105700000000000133009190000000000000000000000000000000000000000100008942864716NARA VANESSA DA SILVEIRA CASTI          AVENIDA NOVA ORLEANSN 113,              VILA CALIFOR23810210ITAGUAI        RJUNIAO UMB DOS CULTOS AFRO BRAS    30091915 000190
21300920190000000000080                                                                                                                                                                                                                                                                                                                                                                                   000191
10231987175000168817800093673    000049591                    000495910000000000000109                     I0149591     30091900000000040003410000017N100619105700000000000133009190000000000000000000000000000000000000000100001908344717RICARDO JOSE DOS SANTOS TAVARE          RUA MINISTRO PETRONIO PORTELAN 78,      OUTEIRO DAS 24812348ITABORAI       RJUNIAO UMB DOS CULTOS AFRO BRAS    30091915 000192
21300920190000000000080                                                                                                                                                                                                                                                                                                                                                                                   000193
10231987175000168817800093673    000049590                    000495900000000000000109                     I0149590     30091900000000040003410000017N100619105700000000000133009190000000000000000000000000000000000000000100010992504716RENATA BARRETO DA SILVA DUARTE          RUA DA PENHAN 44,                       VILA TIRADEN25520721SAO JOAO DE MERRJUNIAO UMB DOS CULTOS AFRO BRAS    30091915 000194
21300920190000000000080                                                                                                                                                                                                                                                                                                                                                                                   000195
10231987175000168817800093673    000049589                    000495890000000000000109                     I0149589     30091900000000040003410000017N100619105700000000000133009190000000000000000000000000000000000000000100012998933769BRUNO COSTA BATISTA                     RUA MARAPANIMN 0, LOTE 8 QUADRA 21      JARDIM PRIMA25223230DUQUE DE CAXIASRJUNIAO UMB DOS CULTOS AFRO BRAS    30091915 000196
21300920190000000000080                                                                                                                                                                                                                                                                                                                                                                                   000197
10231987175000168817800093673    000049588                    000495880000000000000109                     I0149588     30091900000000040003410000017N100619105700000000000133009190000000000000000000000000000000000000000100005258854710ALESSANDRA ANDRADE MENDES DE S          RUA DESEMBARGADOR FERREIRA PINTON 0, LOTVALVERDE    26291078NOVA IGUACU    RJUNIAO UMB DOS CULTOS AFRO BRAS    30091915 000198
21300920190000000000080                                                                                                                                                                                                                                                                                                                                                                                   000199
10231987175000168817800093673    000049587                    000495870000000000000109                     I0149587     30091900000000040003410000017N100619105700000000000133009190000000000000000000000000000000000000000100069893810787MARIA ALICE VENTURA                     AVENIDA DOS EX-COMBATENTESN 0, BLOCO 380SANTA CRUZ  27288110VOLTA REDONDA  RJUNIAO UMB DOS CULTOS AFRO BRAS    30091915 000200
21300920190000000000080                                                                                                                                                                                                                                                                                                                                                                                   000201
10231987175000168817800093673    000049586                    000495860000000000000109                     I0149586     30091900000000040003410000017N100619105700000000000133009190000000000000000000000000000000000000000100013845707720VAGNER MACENA DE ANDRADE                RUA MARIA HELENAN 170,                  CIDADE HORAC25931346MAGE           RJUNIAO UMB DOS CULTOS AFRO BRAS    30091915 000202
21300920190000000000080                                                                                                                                                                                                                                                                                                                                                                                   000203
10231987175000168817800093673    000049585                    000495850000000000000109                     I0149585     30091900000000040003410000017N100619105700000000000133009190000000000000000000000000000000000000000100064671208768LEIDIMAR DE LIMA EZEQUIEL               RUA TURMALINAS N 50, LOTE 13 CASA 50    COELHO DA RO25550551SAO JOAO DE MERRJUNIAO UMB DOS CULTOS AFRO BRAS    30091915 000204
21300920190000000000080                                                                                                                                                                                                                                                                                                                                                                                   000205
10231987175000168817800093673    000049584                    000495840000000000000109                     I0149584     30091900000000040003410000017N100619105700000000000133009190000000000000000000000000000000000000000100001873460708ERIKA FERNANDES PINTO                   RUA SAO CARLOSN 347,                    ESTACIO     20250052RIO DE JANEIRO RJUNIAO UMB DOS CULTOS AFRO BRAS    30091915 000206
21300920190000000000080                                                                                                                                                                                                                                                                                                                                                                                   000207
10231987175000168817800093673    000049583                    000495830000000000000109                     I0149583     30091900000000030003410000017N100619105700000000000103009190000000000000000000000000000000000000000100005789297676RICARDO SALVIO PEREIRA                  RUA CINCON 0, LOTE 13                   RESERVA DO P28921620CABO FRIO      RJUNIAO UMB DOS CULTOS AFRO BRAS    30091915 000208
21300920190000000000060                                                                                                                                                                                                                                                                                                                                                                                   000209
10231987175000168817800093673    000049582                    000495820000000000000109                     I0149582     30091900000000040003410000017N100619105700000000000133009190000000000000000000000000000000000000000100060442069715NEIDE MARIA DA CONCEICAO BOAVE          RUA SOLDADO VALDEMAR DE ALMEIDAN 28,    CAMPO GRANDE23042100RIO DE JANEIRO RJUNIAO UMB DOS CULTOS AFRO BRAS    30091915 000210
21300920190000000000080                                                                                                                                                                                                                                                                                                                                                                                   000211
10231987175000168817800093673    000049581                    000495810000000000000109                     I0149581     30091900000000040003410000017N100619105700000000000133009190000000000000000000000000000000000000000100079769985449MARIA DA PENHA DA CONCEICAO             RUA SAO FELIX N 30, QUADRA 46 LOTE 607  VILA SANTA C25260107DUQUE DE CAXIASRJUNIAO UMB DOS CULTOS AFRO BRAS    30091915 000212
21300920190000000000080                                                                                                                                                                                                                                                                                                                                                                                   000213
10231987175000168817800093673    000049580                    000495800000000000000109                     I0149580     30091900000000040003410000017N100619105700000000000133009190000000000000000000000000000000000000000100093759215734LACY DE SOUZA NERYS                     RUA ARTICA N 77,                        COMENDADOR S26276180NOVA IGUACU    RJUNIAO UMB DOS CULTOS AFRO BRAS    30091915 000214
21300920190000000000080                                                                                                                                                                                                                                                                                                                                                                                   000215
10231987175000168817800093673    000049579                    000495790000000000000109                     I0149579     30091900000000040003410000017N100619105700000000000133009190000000000000000000000000000000000000000100013300181763JEFFERSON DOUGLAS NASCIMENTO D          RUA ROSA ALVES PACHECON 75,             VALVERDE    26291009NOVA IGUACU    RJUNIAO UMB DOS CULTOS AFRO BRAS    30091915 000216
21300920190000000000080                                                                                                                                                                                                                                                                                                                                                                                   000217
10231987175000168817800093673    000049578                    000495780000000000000109                     I0149578     30091900000000040003410000017N100619105700000000000133009190000000000000000000000000000000000000000100063796600700KATIA REGINA PINTO PACHECO              RUA JOAO RICARDON 0, LOTE 18 QUADRA 2   NOVO MEXICO 24754080SAO GONCALO    RJUNIAO UMB DOS CULTOS AFRO BRAS    30091915 000218
21300920190000000000080                                                                                                                                                                                                                                                                                                                                                                                   000219
10231987175000168817800093673    000049577                    000495770000000000000109                     I0149577     30091900000000040003410000017N100619105700000000000133009190000000000000000000000000000000000000000100005346492704VANESSA NEVES DA CONCEICAO              RUA AMERICO VESPUCION 41, CASA          ENGENHEIRO L21370180RIO DE JANEIRO RJUNIAO UMB DOS CULTOS AFRO BRAS    30091915 000220
21300920190000000000080                                                                                                                                                                                                                                                                                                                                                                                   000221
10231987175000168817800093673    000049576                    000495760000000000000109                     I0149576     30091900000000040003410000017N100619105700000000000133009190000000000000000000000000000000000000000100085838284749NILCE DOS SANTOS GABRIEL                AVENIDA VICENTE DE CARVALHON 1086, RUA FVICENTE DE C21210000RIO DE JANEIRO RJUNIAO UMB DOS CULTOS AFRO BRAS    30091915 000222
21300920190000000000080                                                                                                                                                                                                                                                                                                                                                                                   000223
10231987175000168817800093673    000049575                    000495750000000000000109                     I0149575     30091900000000040003410000017N100619105700000000000133009190000000000000000000000000000000000000000100016085389744LUCIANO MARTINS DE OLIVEIRA             RUA OITENTA E OITON 50, FUNDOS          TUBIACANGA  21932797RIO DE JANEIRO RJUNIAO UMB DOS CULTOS AFRO BRAS    30091915 000224
21300920190000000000080                                                                                                                                                                                                                                                                                                                                                                                   000225
10231987175000168817800093673    000049574                    000495740000000000000109                     I0149574     30091900000000040003410000017N100619105700000000000133009190000000000000000000000000000000000000000100009448785712ANDREIA SOUSA SERRA                     RUA BIRIGUIN 4464,                      BOA VISTA   24466190SAO GONCALO    RJUNIAO UMB DOS CULTOS AFRO BRAS    30091915 000226
21300920190000000000080                                                                                                                                                                                                                                                                                                                                                                                   000227
10231987175000168817800093673    000049573                    000495730000000000000109                     I0149573     30091900000000040003410000017N100619105700000000000133009190000000000000000000000000000000000000000100007717387735VALNICE DA SILVA RODRIGUES MEN          TRAVESSA NOVEN 35, BNH                  VILA VELHA (25912185MAGE           RJUNIAO UMB DOS CULTOS AFRO BRAS    30091915 000228
21300920190000000000080                                                                                                                                                                                                                                                                                                                                                                                   000229
10231987175000168817800093673    000049572                    000495720000000000000109                     I0149572     30091900000000040003410000017N100619105700000000000133009190000000000000000000000000000000000000000100008990276799VIVIANE DE AGUIAR DINIZ                 RUA RIBEYROLLES N 395,                  COELHO NETO 21530310RIO DE JANEIRO RJUNIAO UMB DOS CULTOS AFRO BRAS    30091915 000230
21300920190000000000080                                                                                                                                                                                                                                                                                                                                                                                   000231
10231987175000168817800093673    000049571                    000495710000000000000109                     I0149571     30091900000000040003410000017N100619105700000000000133009190000000000000000000000000000000000000000100001610127790RINALDO JOSELITO DOS SANTOS             RUA RENASCERN 155,                      PARAISO     26297162NOVA IGUACU    RJUNIAO UMB DOS CULTOS AFRO BRAS    30091915 000232
21300920190000000000080                                                                                                                                                                                                                                                                                                                                                                                   000233
10231987175000168817800093673    000049570                    000495700000000000000109                     I0149570     30091900000000040003410000017N100619105700000000000133009190000000000000000000000000000000000000000100004131909782SIMONE ANCHIETA DE AMORIM               RUA CAROLINA CARDOSON 0, FD LT 3 QD 1   PILAR       25233150DUQUE DE CAXIASRJUNIAO UMB DOS CULTOS AFRO BRAS    30091915 000234
21300920190000000000080                                                                                                                                                                                                                                                                                                                                                                                   000235
10231987175000168817800093673    000049569                    000495690000000000000109                     I0149569     30091900000000040003410000017N100619105700000000000133009190000000000000000000000000000000000000000100009607794770ALESSANDRO FRANCISCO DA SILVA           RUA AARAO STEIMBRUCKN 0, LOTE 18 QUADRA VALE DO IPE 26180020BELFORD ROXO   RJUNIAO UMB DOS CULTOS AFRO BRAS    30091915 000236
21300920190000000000080                                                                                                                                                                                                                                                                                                                                                                                   000237
10231987175000168817800093673    000049568                    000495680000000000000109                     I0149568     30091900000000040003410000017N100619105700000000000133009190000000000000000000000000000000000000000100046556281700VERA LUCIA SILVA DE SOUZA               RUA PEDRO JORION 386,                   COELHO NETO 21530030RIO DE JANEIRO RJUNIAO UMB DOS CULTOS AFRO BRAS    30091915 000238
21300920190000000000080                                                                                                                                                                                                                                                                                                                                                                                   000239
10231987175000168817800093673    000049567                    000495670000000000000109                     I0149567     30091900000000040003410000017N100619105700000000000133009190000000000000000000000000000000000000000100010663891795SONIA CRISTINA RODRIGUES FONTO          RUA FRANCISCO BUARQUEN 0, LOTES 13 E 14 JARDIM GUAPI25943377GUAPIMIRIM     RJUNIAO UMB DOS CULTOS AFRO BRAS    30091915 000240
21300920190000000000080                                                                                                                                                                                                                                                                                                                                                                                   000241
10231987175000168817800093673    000049566                    000495660000000000000109                     I0149566     30091900000000040003410000017N100619105700000000000133009190000000000000000000000000000000000000000100004281232796CARLA VEIGA DE FREITAS ROSA             RUA FOMENTON 10, TRAVESSA B             SANTA CRUZ  23555063RIO DE JANEIRO RJUNIAO UMB DOS CULTOS AFRO BRAS    30091915 000242
21300920190000000000080                                                                                                                                                                                                                                                                                                                                                                                   000243
10231987175000168817800093673    000049565                    000495650000000000000109                     I0149565     30091900000000040003410000017N100619105700000000000133009190000000000000000000000000000000000000000229148311000184CANTINHO DO VOVO REI CONGO E O          RUA CONSELHEIRO AGOSTINHON 55, APARTAMENCACHAMBI    20770160RIO DE JANEIRO RJUNIAO UMB DOS CULTOS AFRO BRAS    30091915 000244
21300920190000000000080                                                                                                                                                                                                                                                                                                                                                                                   000245
10231987175000168817800093673    000049564                    000495640000000000000109                     I0149564     30091900000000040003410000017N100619105700000000000133009190000000000000000000000000000000000000000100005948651746DIOGO RODRIGUES DOS SANTOS              RUA PETER LUNDN 38, BLOCO 1 APT 407     SAO CRISTOVA20930390RIO DE JANEIRO RJUNIAO UMB DOS CULTOS AFRO BRAS    30091915 000246
21300920190000000000080                                                                                                                                                                                                                                                                                                                                                                                   000247
10231987175000168817800093673    000049563                    000495630000000000000109                     I0149563     30091900000000040003410000017N100619105700000000000133009190000000000000000000000000000000000000000100011643192728LUCIA FERNANDA DA SILVEIRA              RUA PETROPOLIS N 56,                    VILA DE CAVA26052200NOVA IGUACU    RJUNIAO UMB DOS CULTOS AFRO BRAS    30091915 000248
21300920190000000000080                                                                                                                                                                                                                                                                                                                                                                                   000249
