01REMESSA01COBRANCA       817800093673        Uni√£o Umb dos Cultos Afro Bra341BANCO ITAU SA  291018                                                                                                                                                                                                                                                                                                      000001
10231987175000168817800093673    000030406                    000304060000000000000109                     I0130406     05111800000000140003410000017N291018104700000000000100511180000000000000000000000000000000000000000100044279388768THEREZA LEOCADIA DA COSTA               RUA VERA CRUZ                           PACIENCIA   23585817RIO DE JANEIRO RJUNIAO UMB DOS CULTOS AFRO BRAS    05111810 000002
10231987175000168817800093673    000030405                    000304050000000000000109                     I0130405     20121800000000040003410000017N291018104700000000000102012180000000000000000000000000000000000000000100009142845769MICHELE OAZEM MINEIRO                   RUA CARIOCA                             SAO BERNARDO26167210BELFORD ROXO   RJUNIAO UMB DOS CULTOS AFRO BRAS    20121810 000003
10231987175000168817800093673    000030404                    000304040000000000000109                     I0130404     20121800000000400003410000017N291018104700000000000102012180000000000000000000000000000000000000000100003547724732TANIA GOMES DE LIMA                     RUA AGAPANTO                            PARQUE PRIMA23830020ITAGUAI        RJUNIAO UMB DOS CULTOS AFRO BRAS    20121810 000004
10231987175000168817800093673    000030403                    000304030000000000000109                     I0130403     20121800000000040003410000017N291018104700000000000102012180000000000000000000000000000000000000000100063464470768ROBSON DE OLIVEIRA ELIZIARIO            RUA GARCIA REDONDO                      CACHAMBI    20775170RIO DE JANEIRO RJUNIAO UMB DOS CULTOS AFRO BRAS    20121810 000005
10231987175000168817800093673    000030402                    000304020000000000000109                     I0130402     20121800000000040003410000017N291018104700000000000102012180000000000000000000000000000000000000000100013376872783ELIANE MENDES DA SILVA                  RUAPROJETADA G                          SANTA CRUZ  00000000RIO DE JANEIRO RJUNIAO UMB DOS CULTOS AFRO BRAS    20121810 000006
10231987175000168817800093673    000030401                    000304010000000000000109                     I0130401     20121800000000040003410000017N291018104700000000000102012180000000000000000000000000000000000000000100089308956700COSME NEVES ARRUDA                      RUA SANTO AMARO                         GLORIA      22211230RIO DE JANEIRO RJUNIAO UMB DOS CULTOS AFRO BRAS    20121810 000007
10231987175000168817800093673    000030400                    000304000000000000000109                     I0130400     20121800000000040003410000017N291018104700000000000102012180000000000000000000000000000000000000000100034463399300MARIA ENOIA DE SOUSA CORREA             RUA: RODEZIA                            BANCARIO - I21910145RIO DE JANEIRO RJUNIAO UMB DOS CULTOS AFRO BRAS    20121810 000008
10231987175000168817800093673    000030399                    000303990000000000000109                     I0130399     20121800000000040003410000017N291018104700000000000102012180000000000000000000000000000000000000000100005328326711BARRIE BANGE PEREIRA                    RUA JORGE PAULO DE SOUZA MAIA           CONSELHEIRO 28635540NOVA FRIBURGO  RJUNIAO UMB DOS CULTOS AFRO BRAS    20121810 000009
10231987175000168817800093673    000030398                    000303980000000000000109                     I0130398     20121800000000040003410000017N291018104700000000000102012180000000000000000000000000000000000000000100032140649320ROSA ELENA ALVES DA COSTA               RUA: NILTON CORDEIRO                    MARE        21044052RIO DE JANEIRO RJUNIAO UMB DOS CULTOS AFRO BRAS    20121810 000010
10231987175000168817800093673    000030397                    000303970000000000000109                     I0130397     20121800000000040003410000017N291018104700000000000102012180000000000000000000000000000000000000000100001467028754ROSANE DE FREITAS SOUZA DA SIL          RUA: JACIRENDI                          COLEGIO     20545290RIO DE JANEIRO RJUNIAO UMB DOS CULTOS AFRO BRAS    20121810 000011
10231987175000168817800093673    000030396                    000303960000000000000109                     I0130396     20121800000000040003410000017N291018104700000000000102012180000000000000000000000000000000000000000100073943266753LAINE VERONICA ALVES MONTEIRO           RUA: PREFEITO XAVIER DA SILVEIRA        VILA SANTO A26294303DUQUE DE CAXIASRJUNIAO UMB DOS CULTOS AFRO BRAS    20121810 000012
10231987175000168817800093673    000030395                    000303950000000000000109                     I0130395     20121800000000040003410000017N291018104700000000000102012180000000000000000000000000000000000000000100000000000000NANCY CORREA DA SILVA                   RUA: DA SEPARACAO                       VILAR DO TEL25555620SAO JOAO DE MERRJUNIAO UMB DOS CULTOS AFRO BRAS    20121810 000013
10231987175000168817800093673    000030394                    000303940000000000000109                     I0130394     20121800000000040003410000017N291018104700000000000102012180000000000000000000000000000000000000000100008068599703CLEIDE JANE ROCHA CONTE                 RUA: C                                  PARQUE AMORI26185342BELFORD ROXO   RJUNIAO UMB DOS CULTOS AFRO BRAS    20121810 000014
10231987175000168817800093673    000030393                    000303930000000000000109                     I0130393     20121800000000040003410000017N291018104700000000000102012180000000000000000000000000000000000000000100016931588761IGOR RODRIGUES DA SILVA                 RUA: EMBAU                              PAVUNA      21535000RIO DE JANEIRO RJUNIAO UMB DOS CULTOS AFRO BRAS    20121810 000015
10231987175000168817800093673    000030392                    000303920000000000000109                     I0130392     20121800000000040003410000017N291018104700000000000102012180000000000000000000000000000000000000000100008379116720ALLAN SOUZA PEREIRA FERREIRA            BECO: DOS SONHOS                        SANTA CRUZ  23591400RIO DE JANEIRO RJUNIAO UMB DOS CULTOS AFRO BRAS    20121810 000016
10231987175000168817800093673    000030391                    000303910000000000000109                     I0130391     20121800000000040003410000017N291018104700000000000102012180000000000000000000000000000000000000000100001485344735JULIO CESAR PEREIRA AGRA                RUA: MANAUS                             REALENGO    21730050RIO DE JANEIRO RJUNIAO UMB DOS CULTOS AFRO BRAS    20121810 000017
10231987175000168817800093673    000030390                    000303900000000000000109                     I0130390     20121800000000040003410000017N291018104700000000000102012180000000000000000000000000000000000000000100048639389772ONESIO JOSINO DOS SANTOS                RUA: VINTE E DOIS                       BRISA MAR   23825587ITAGUAI        RJUNIAO UMB DOS CULTOS AFRO BRAS    20121810 000018
10231987175000168817800093673    000030389                    000303890000000000000109                     I0130389     20121800000000040003410000017N291018104700000000000102012180000000000000000000000000000000000000000100099447690700CARLA LESSA QUINTANILHA VASCON          RUA: BORBOREMA                          MADUREIRA   21360150RIO DE JANEIRO RJUNIAO UMB DOS CULTOS AFRO BRAS    20121810 000019
10231987175000168817800093673    000030388                    000303880000000000000109                     I0130388     20121800000000040003410000017N291018104700000000000102012180000000000000000000000000000000000000000100008566591771TAISSA RIBEIRO PETRA MELLO              RUA CLARICE ROSA DA COSTA               JARDIM INTER24900830MARICA         RJUNIAO UMB DOS CULTOS AFRO BRAS    20121810 000020
10231987175000168817800093673    000030387                    000303870000000000000109                     I0130387     20121800000000040003410000017N291018104700000000000102012180000000000000000000000000000000000000000100010089898788MONICA REGINA ELIAS DE SOUZA M          ESTRADA: DA BOA SORTE                   MAUA        25924260MAGE           RJUNIAO UMB DOS CULTOS AFRO BRAS    20121810 000021
10231987175000168817800093673    000030386                    000303860000000000000109                     I0130386     20121800000000040003410000017N291018104700000000000102012180000000000000000000000000000000000000000100014165634743GLAUBER VINICIUS DE ALMEIDA BA          RUA SAO CARLOS                          ESTACIO     20250052RIO DE JANEIRO RJUNIAO UMB DOS CULTOS AFRO BRAS    20121810 000022
10231987175000168817800093673    000030385                    000303850000000000000109                     I0130385     20121800000000040003410000017N291018104700000000000102012180000000000000000000000000000000000000000100012303421764PEDRO JONAS ARAUJO CORDEIRO             RUA JOSE LIMA DA SILVA                  SANTA RITA  26185610BELFORD ROXO   RJUNIAO UMB DOS CULTOS AFRO BRAS    20121810 000023
10231987175000168817800093673    000030384                    000303840000000000000109                     I0130384     20121800000000035003410000017N291018104700000000000102012180000000000000000000000000000000000000000100000000000000REINALDO FERREIRA DOS SANTOS            RUA LESTE                               JARDIM PARAI26297294NOVA IGUACU    RJUNIAO UMB DOS CULTOS AFRO BRAS    20121810 000024
10231987175000168817800093673    000030383                    000303830000000000000109                     I0130383     20121800000000040003410000017N291018104700000000000102012180000000000000000000000000000000000000000100003413776789CRISTIANE DE SOUZA GALANTE INA          RUA SABIA                               SITIO RETIRO26167500SAO JOAO DE MERRJUNIAO UMB DOS CULTOS AFRO BRAS    20121810 000025
10231987175000168817800093673    000030382                    000303820000000000000109                     I0130382     20121800000000040003410000017N291018104700000000000102012180000000000000000000000000000000000000000100085965871791VALERIA MENDES BARBOSA DOS SAN          RUA SAO PATRICIO                        JARDIM NOVA 26265540NOVA IGUACU    RJUNIAO UMB DOS CULTOS AFRO BRAS    20121810 000026
10231987175000168817800093673    000030381                    000303810000000000000109                     I0130381     20121800000000040003410000017N291018104700000000000102012180000000000000000000000000000000000000000100008323642745ROSEMERI DE SOUZA COUTINHO              RUA VERA LUCIA                          CABUCU      26291452NOVA IGUACU    RJUNIAO UMB DOS CULTOS AFRO BRAS    20121810 000027
10231987175000168817800093673    000030380                    000303800000000000000109                     I0130380     20121800000000040003410000017N291018104700000000000102012180000000000000000000000000000000000000000100007147220730LUIS CARLOS DA COSTA OLIVEIRA           RUA MINAS GERAIS                        CAMPO ALEGRE26292141NOVA IGUACU    RJUNIAO UMB DOS CULTOS AFRO BRAS    20121810 000028
10231987175000168817800093673    000030379                    000303790000000000000109                     I0130379     20121800000000040003410000017N291018104700000000000102012180000000000000000000000000000000000000000100036139050782VIRGINIA DANTAS FERREIRA                AVENIDA BEIRA                           COROA GRANDE23821310RIO DE JANEIRO RJUNIAO UMB DOS CULTOS AFRO BRAS    20121810 000029
10231987175000168817800093673    000030378                    000303780000000000000109                     I0130378     20121800000000035003410000017N291018104700000000000102012180000000000000000000000000000000000000000100005749191710DANIELE BATISTA DE ASSIS                RUA MANOEL MACHADO                      VAZ LOBO    21361090RIO DE JANEIRO RJUNIAO UMB DOS CULTOS AFRO BRAS    20121810 000030
10231987175000168817800093673    000030377                    000303770000000000000109                     I0130377     20121800000000040003410000017N291018104700000000000102012180000000000000000000000000000000000000000100009060523784MARTA ANJOS PEREIRA DO NASCIME          RUA DUCLEIA MARTINS POLICARPO           SACRAMENTO  24735845RIO DE JANEIRO RJUNIAO UMB DOS CULTOS AFRO BRAS    20121810 000031
10231987175000168817800093673    000030376                    000303760000000000000109                     I0130376     20121800000000040003410000017N291018104700000000000102012180000000000000000000000000000000000000000100070550891749CELSO POYDO MENDES                      RUA: SOUZA FREITAS                      PILARES     20760710RIO DE JANEIRO RJUNIAO UMB DOS CULTOS AFRO BRAS    20121810 000032
10231987175000168817800093673    000030375                    000303750000000000000109                     I0130375     20121800000000040003410000017N291018104700000000000102012180000000000000000000000000000000000000000100001493061795MARCIO NUNES BARBOSA                    RUA BELA                                SAO CRISTOVA20930380RIO DE JANEIRO RJUNIAO UMB DOS CULTOS AFRO BRAS    20121810 000033
10231987175000168817800093673    000030374                    000303740000000000000109                     I0130374     20121800000000040003410000017N291018104700000000000102012180000000000000000000000000000000000000000100003389142770VANIA VIEIRA                            RUA NAMUR                               VILA VALQUEI21330600RIO DE JANEIRO RJUNIAO UMB DOS CULTOS AFRO BRAS    20121810 000034
10231987175000168817800093673    000030373                    000303730000000000000109                     I0130373     20121800000000035003410000017N291018104700000000000102012180000000000000000000000000000000000000000100008350095725LUIZ LUCIANO ADAO                       RUA ALAGOAS                             SANTA CRUZ D25255070DUQUE DE CAXIASRJUNIAO UMB DOS CULTOS AFRO BRAS    20121810 000035
10231987175000168817800093673    000030372                    000303720000000000000109                     I0130372     20121800000000040003410000017N291018104700000000000102012180000000000000000000000000000000000000000100001359669736JUCILENE DOS SANTOS GALVAO              RUA ALICE FREITAS                       VICENTE DE C21371220RIO DE JANEIRO RJUNIAO UMB DOS CULTOS AFRO BRAS    20121810 000036
10231987175000168817800093673    000030371                    000303710000000000000109                     I0130371     20121800000000040003410000017N291018104700000000000102012180000000000000000000000000000000000000000100007202542722MIRLA SUSANI DA SILVA SALES             RUA: DOUTOR FREDERICO                   LAGOINHA    26296414NOVA IGUACU    RJUNIAO UMB DOS CULTOS AFRO BRAS    20121810 000037
10231987175000168817800093673    000030370                    000303700000000000000109                     I0130370     20121800000000035003410000017N291018104700000000000102012180000000000000000000000000000000000000000100034727272768JOSEFINA AGUIAR CASTRO                  RUA DOUTOR NELSON FERNANDES             PARQUE CAPIV25900000DUQUE DE CAXIASRJUNIAO UMB DOS CULTOS AFRO BRAS    20121810 000038
10231987175000168817800093673    000030369                    000303690000000000000109                     I0130369     20121800000000035003410000017N291018104700000000000102012180000000000000000000000000000000000000000100068117850710GILCLEIDE DOS SANTOS GOMES              AVENIDA: JOAO VINTE E TRES              SANTA CRUZ  23560352RIO DE JANEIRO RJUNIAO UMB DOS CULTOS AFRO BRAS    20121810 000039
10231987175000168817800093673    000030368                    000303680000000000000109                     I0130368     20121800000000035003410000017N291018104700000000000102012180000000000000000000000000000000000000000100008283050800JOSE RICARDO DE MOURA                   RUA TENENTE SILVINO                     CERAMICA    26030126NOVA IGUACU    RJUNIAO UMB DOS CULTOS AFRO BRAS    20121810 000040
10231987175000168817800093673    000030367                    000303670000000000000109                     I0130367     20121800000000040003410000017N291018104700000000000102012180000000000000000000000000000000000000000100016840152782DARIO JOSE DA SILVA FILHO               RUA: PEDRO II                           VILA IBIRAPI23512530RIO DE JANEIRO RJUNIAO UMB DOS CULTOS AFRO BRAS    20121810 000041
10231987175000168817800093673    000030366                    000303660000000000000109                     I0130366     20121800000000035003410000017N291018104700000000000102012180000000000000000000000000000000000000000100075164779749IVANILDO FURTADO DA SILVA               RUA: LUIZ DE CASTRO                     PILARES     21760732RIO DE JANEIRO RJUNIAO UMB DOS CULTOS AFRO BRAS    20121810 000042
10231987175000168817800093673    000030365                    000303650000000000000109                     I0130365     20121800000000040003410000017N291018104700000000000102012180000000000000000000000000000000000000000100002520191724ANA LUCIA MENEZES DO NASCIMENT          RUA: VEREADOR FRANCISCO NUNES SILVA     OLINA       26545060NILOPOLIS      RJUNIAO UMB DOS CULTOS AFRO BRAS    20121810 000043
10231987175000168817800093673    000030364                    000303640000000000000109                     I0130364     20121800000000040003410000017N291018104700000000000102012180000000000000000000000000000000000000000100002098051700FELIPE LOPES DA COSTA CHAVES            RUA: JOSE PINTO FAUSTINO                IPIRANGA    26293441NOVA IGUACU    RJUNIAO UMB DOS CULTOS AFRO BRAS    20121810 000044
10231987175000168817800093673    000030363                    000303630000000000000109                     I0130363     20121800000000040003410000017N291018104700000000000102012180000000000000000000000000000000000000000100003134182769SANDRA HELENA DA SILVA                  RUA MARIA MACHADO PANZA                 PACHECO     24732200SAO GONCALO    RJUNIAO UMB DOS CULTOS AFRO BRAS    20121810 000045
10231987175000168817800093673    000030362                    000303620000000000000109                     I0130362     20121800000000035003410000017N291018104700000000000102012180000000000000000000000000000000000000000100012119575789RAYKA DA SILVA BATISTA                  RUA PARAISO                             PIABETA     25931638MAGE           RJUNIAO UMB DOS CULTOS AFRO BRAS    20121810 000046
10231987175000168817800093673    000030361                    000303610000000000000109                     I0130361     20121800000000040003410000017N291018104700000000000102012180000000000000000000000000000000000000000100015041746745ANAISE SOARES DO CARMO                  RUA FRANCISCO ALVES                     SEPETIBA    23542120RIO DE JANEIRO RJUNIAO UMB DOS CULTOS AFRO BRAS    20121810 000047
10231987175000168817800093673    000030360                    000303600000000000000109                     I0130360     20121800000000040003410000017N291018104700000000000102012180000000000000000000000000000000000000000100001105664759NANCI GOMES BORGES PINTO                RUA: ORLANDO FRANCISCO JUNIOR           CAMPO LINDO 23898435SEROPEDICA     RJUNIAO UMB DOS CULTOS AFRO BRAS    20121810 000048
10231987175000168817800093673    000030359                    000303590000000000000109                     I0130359     20121800000000040003410000017N291018104700000000000102012180000000000000000000000000000000000000000100053177827733CREUZA FREITAS DOS SANTOS               RUA HERMES DA SILVA                     SANTA CRUZ  23550155RIO DE JANEIRO RJUNIAO UMB DOS CULTOS AFRO BRAS    20121810 000049
10231987175000168817800093673    000030358                    000303580000000000000109                     I0130358     20121800000000035003410000017N291018104700000000000102012180000000000000000000000000000000000000000100001605990752MARCO ANTONIO DA SILVA                  ESTRADA DA SAUDADE                      ESTRADA DA S25610105PETROPOLIS     RJUNIAO UMB DOS CULTOS AFRO BRAS    20121810 000050
10231987175000168817800093673    000030357                    000303570000000000000109                     I0130357     20121800000000040003410000017N291018104700000000000102012180000000000000000000000000000000000000000100002414887702MARGARETH MARIA DA SILVA GONCA          RUA: SEBASTIAO DE CARVALHO              RAMOS       21061670RIO DE JANEIRO RJUNIAO UMB DOS CULTOS AFRO BRAS    20121810 000051
10231987175000168817800093673    000030356                    000303560000000000000109                     I0130356     20121800000000040003410000017N291018104700000000000102012180000000000000000000000000000000000000000100066645352700NILZA BELISARIO DAMIAO                  RUA ESPERANCA                           JARDIM PARAI00000000RIO DE JANEIRO RJUNIAO UMB DOS CULTOS AFRO BRAS    20121810 000052
10231987175000168817800093673    000030355                    000303550000000000000109                     I0130355     20121800000000040003410000017N291018104700000000000102012180000000000000000000000000000000000000000100009572644700FABIO DE SOUZA BARBOSA                  RUA DA ESPERANCA                        JARDIM PARAI00000000RIO DE JANEIRO RJUNIAO UMB DOS CULTOS AFRO BRAS    20121810 000053
10231987175000168817800093673    000030354                    000303540000000000000109                     I0130354     20121800000000040003410000017N291018104700000000000102012180000000000000000000000000000000000000000100067559697704LENILSON PEREIRA DA COSTA               TRAVESSA MANUEL ANGELO                  AREAL       24800566ITABORAI       RJUNIAO UMB DOS CULTOS AFRO BRAS    20121810 000054
10231987175000168817800093673    000030353                    000303530000000000000109                     I0130353     20121800000000035003410000017N291018104700000000000102012180000000000000000000000000000000000000000100001786216760WASHINGTON FERNANDO DA CONCEIC          RUA DONA ELVIRA                         NOVO HORIZON25937112MAGE           RJUNIAO UMB DOS CULTOS AFRO BRAS    20121810 000055
10231987175000168817800093673    000030352                    000303520000000000000109                     I0130352     20121800000000040003410000017N291018104700000000000102012180000000000000000000000000000000000000000100053860225120OTILIA REGINA DE ALENCAR                RUA PROJETADA                           VERIDIANA   00000000RIO DE JANEIRO RJUNIAO UMB DOS CULTOS AFRO BRAS    20121810 000056
10231987175000168817800093673    000030351                    000303510000000000000109                     I0130351     20121800000000040003410000017N291018104700000000000102012180000000000000000000000000000000000000000100003538359784MARCIO SANTANA DA ROCHA                 ESTRADA DA CAPOEIRA GRANDE              GUARATIBA   00000000RIO DE JANEIRO RJUNIAO UMB DOS CULTOS AFRO BRAS    20121810 000057
10231987175000168817800093673    000030350                    000303500000000000000109                     I0130350     20121800000000040003410000017N291018104700000000000102012180000000000000000000000000000000000000000100092802737791CARMEN DEA NOGUEIRA DIAS                AVENIDA MACHADO DE ASSIS                VILA IBIRAPI23811820ITAGUAI        RJUNIAO UMB DOS CULTOS AFRO BRAS    20121810 000058
10231987175000168817800093673    000030349                    000303490000000000000109                     I0130349     20121800000000040003410000017N291018104700000000000102012180000000000000000000000000000000000000000100045965986734ELISABETH BARRETO DO COUTO ALV          RUA SAMUEL GUIMARAES                    SAO FRANCISC22270000RIO DE JANEIRO RJUNIAO UMB DOS CULTOS AFRO BRAS    20121810 000059
10231987175000168817800093673    000030348                    000303480000000000000109                     I0130348     20121800000000035003410000017N291018104700000000000102012180000000000000000000000000000000000000000100000617310726JOSE HENRIQUE PEREIRA DO NASCI          RUA: ZELINHO DE SOUZA                   CHACARA RIO 25230484DUQUE DE CAXIASRJUNIAO UMB DOS CULTOS AFRO BRAS    20121810 000060
10231987175000168817800093673    000030347                    000303470000000000000109                     I0130347     20121800000000040003410000017N291018104700000000000102012180000000000000000000000000000000000000000100014328358740SILAS BARBOSA DE SOUZA                  ESTRADA REAL DE MAUA                    JARDIM DA PA25900684RIO DE JANEIRO RJUNIAO UMB DOS CULTOS AFRO BRAS    20121810 000061
10231987175000168817800093673    000030346                    000303460000000000000109                     I0130346     20121800000000040003410000017N291018104700000000000102012180000000000000000000000000000000000000000100099099616449JANAINA BORGES DA SILVA                 RUA: PAULO JOSE MAHFUD                  VARGEM PEQUE22783395RIO DE JANEIRO RJUNIAO UMB DOS CULTOS AFRO BRAS    20121810 000062
10231987175000168817800093673    000030345                    000303450000000000000109                     I0130345     20121800000000035003410000017N291018104700000000000102012180000000000000000000000000000000000000000100074641980772IRENE MARQUES DA MOTA                   RUA: PORTO CAMARGO                      JARDIM MARAV23033170GUARATIBA      RJUNIAO UMB DOS CULTOS AFRO BRAS    20121810 000063
10231987175000168817800093673    000030344                    000303440000000000000109                     I0130344     20121800000000035003410000017N291018104700000000000102012180000000000000000000000000000000000000000100005818072789MARLUCE MARIA DE OLIVEIRA               RUA PAHAND                              SANTA TEREZA26193500BELFORD ROXO   RJUNIAO UMB DOS CULTOS AFRO BRAS    20121810 000064
10231987175000168817800093673    000030343                    000303430000000000000109                     I0130343     20121800000000040003410000017N291018104700000000000102012180000000000000000000000000000000000000000100072610344791SUELY BARROS DE MELO                    ESTRADA: GUANDU DO SENA                 CAMPO GRANDE23097220RIO DE JANEIRO RJUNIAO UMB DOS CULTOS AFRO BRAS    20121810 000065
10231987175000168817800093673    000030342                    000303420000000000000109                     I0130342     20121800000000035003410000017N291018104700000000000102012180000000000000000000000000000000000000000100085748781700NELSON TEIXEIRA RUI FILHO               RUA CAROLINA AMADO                      IRAJA       21361320RIO DE JANEIRO RJUNIAO UMB DOS CULTOS AFRO BRAS    20121810 000066
10231987175000168817800093673    000030341                    000303410000000000000109                     I0130341     20121800000000040003410000017N291018104700000000000102012180000000000000000000000000000000000000000100081476191700IRLENE DE ALMEIDA LOPES                 RUA FERNANDEZ GAMA                      REALENGO    21760030RIO DE JANEIRO RJUNIAO UMB DOS CULTOS AFRO BRAS    20121810 000067
10231987175000168817800093673    000030340                    000303400000000000000109                     I0130340     20121800000000040003410000017N291018104700000000000102012180000000000000000000000000000000000000000100029759030730JOSE ROBERTO MELLO COIMBRA              RUA SALVADOR SABATE                     REALENGO    21760020RIO DE JANEIRO RJUNIAO UMB DOS CULTOS AFRO BRAS    20121810 000068
10231987175000168817800093673    000030339                    000303390000000000000109                     I0130339     20121800000000040003410000017N291018104700000000000102012180000000000000000000000000000000000000000100093265883787ROSANGELA BARBOSA DE CARVALHO           CAMINHO DOS TELEGRAFOS                  SENADOR CAMA21832415RIO DE JANEIRO RJUNIAO UMB DOS CULTOS AFRO BRAS    20121810 000069
10231987175000168817800093673    000030338                    000303380000000000000109                     I0130338     20121800000000040003410000017N291018104700000000000102012180000000000000000000000000000000000000000100010212584740TIAGO VEROL DE SOUZA                    RUA: REGISTRO                           SENADOR CAMA21832006RIO DE JANEIRO RJUNIAO UMB DOS CULTOS AFRO BRAS    20121810 000070
10231987175000168817800093673    000030337                    000303370000000000000109                     I0130337     20121800000000035003410000017N291018104700000000000102012180000000000000000000000000000000000000000100008768685700RENATA BRUNO MACHADO SANTOS             RUA CLIVIA                              BENTO RIBEIR21331530RIO DE JANEIRO RJUNIAO UMB DOS CULTOS AFRO BRAS    20121810 000071
10231987175000168817800093673    000030336                    000303360000000000000109                     I0130336     20121800000000035003410000017N291018104700000000000102012180000000000000000000000000000000000000000100039869253768MARIA DE LOURDES FERREIRA               RUA GERSON TELES RIBEIRO                CENTRO      26193590DUQUE DE CAXIASRJUNIAO UMB DOS CULTOS AFRO BRAS    20121810 000072
10231987175000168817800093673    000030335                    000303350000000000000109                     I0130335     20121800000000035003410000017N291018104700000000000102012180000000000000000000000000000000000000000100001860329780VIVIANE DE PAULA AGNELO                 RUA DA VITORIA                          PARAISO     26297138NOVA IGUACU    RJUNIAO UMB DOS CULTOS AFRO BRAS    20121810 000073
10231987175000168817800093673    000030334                    000303340000000000000109                     I0130334     20121800000000040003410000017N291018104700000000000102012180000000000000000000000000000000000000000100007416975727ANGELICA AMARAL GOTELIP BARBOS          RUA MARECHAL MARCIANO - TRAVESSA 120    REALENGO    21735652RIO DE JANEIRO RJUNIAO UMB DOS CULTOS AFRO BRAS    20121810 000074
10231987175000168817800093673    000030333                    000303330000000000000109                     I0130333     20121800000000035003410000017N291018104700000000000102012180000000000000000000000000000000000000000100009350031779TAIS AZEVEDO DOS SANTOS CAMPOS          RUA: CLOTILDE DE OLIVEIRA RODRIGUES     FONSECA     24120170NITEROI        RJUNIAO UMB DOS CULTOS AFRO BRAS    20121810 000075
10231987175000168817800093673    000030332                    000303320000000000000109                     I0130332     20121800000000035003410000017N291018104700000000000102012180000000000000000000000000000000000000000100009329422705FABIO SANTANA DE ANDRADE                RUA: LUIS BRAILE                        VILA SANTA M00000000RIO DE JANEIRO RJUNIAO UMB DOS CULTOS AFRO BRAS    20121810 000076
10231987175000168817800093673    000030331                    000303310000000000000109                     I0130331     20121800000000040003410000017N291018104700000000000102012180000000000000000000000000000000000000000100009297297730FLAVIO JOAQUIM DOS SANTOS               RUA: SAO PAULO                          PALMARES    23585800RIO DE JANEIRO RJUNIAO UMB DOS CULTOS AFRO BRAS    20121810 000077
10231987175000168817800093673    000030330                    000303300000000000000109                     I0130330     20121800000000040003410000017N291018104700000000000102012180000000000000000000000000000000000000000100005283706721LEVY ANDRE ASSIS FERREIRA DA S          TRAVESSA SANTO ANTONIO                  MARECHAL HER21557190RIO DE JANEIRO RJUNIAO UMB DOS CULTOS AFRO BRAS    20121810 000078
10231987175000168817800093673    000030329                    000303290000000000000109                     I0130329     20121800000000040003410000017N291018104700000000000102012180000000000000000000000000000000000000000100010440702771AMANDA APARECIDA AZEVEDO CARDO          RUA IVONETE                             CONJUNTO SAN00000000RIO DE JANEIRO RJUNIAO UMB DOS CULTOS AFRO BRAS    20121810 000079
10231987175000168817800093673    000030328                    000303280000000000000109                     I0130328     20121800000000040003410000017N291018104700000000000102012180000000000000000000000000000000000000000100011709590775JOYCE MARA PINHEIRO DA SILVA            RUA SILVIO TIBIRICA                     TURIACU     21540200RIO DE JANEIRO RJUNIAO UMB DOS CULTOS AFRO BRAS    20121810 000080
10231987175000168817800093673    000030327                    000303270000000000000109                     I0130327     20121800000000035003410000017N291018104700000000000102012180000000000000000000000000000000000000000100014963009714MICHELLE DA SILVA SOARES                RUA MINAS GERAIS                        PIABETA     25935525MAGE           RJUNIAO UMB DOS CULTOS AFRO BRAS    20121810 000081
10231987175000168817800093673    000030326                    000303260000000000000109                     I0130326     20121800000000035003410000017N291018104700000000000102012180000000000000000000000000000000000000000100002305172770VALDIRENE ALBUQUERQUE MARCIEL           RUA GUARAGUATATUBA                      VILA ROSARIO25030040DUQUE DE CAXIASRJUNIAO UMB DOS CULTOS AFRO BRAS    20121810 000082
10231987175000168817800093673    000030325                    000303250000000000000109                     I0130325     20121800000000035003410000017N291018104700000000000102012180000000000000000000000000000000000000000100000213766701ROSIVANIA CRUZ DA SILVA                 RUA ERNANI DE BRITO                     SEPETIBA    23535131RIO DE JANEIRO RJUNIAO UMB DOS CULTOS AFRO BRAS    20121810 000083
10231987175000168817800093673    000030324                    000303240000000000000109                     I0130324     20121800000000040003410000017N291018104700000000000102012180000000000000000000000000000000000000000100085737437787NIVALDA PIRES RUFINO                    RUA: MARIO CARPENTER                    ABOLICAO    20755065RIO DE JANEIRO RJUNIAO UMB DOS CULTOS AFRO BRAS    20121810 000084
10231987175000168817800093673    000030323                    000303230000000000000109                     I0130323     20121800000000040003410000017N291018104700000000000102012180000000000000000000000000000000000000000100059622091762ALDA GOMES DA SILVA                     RUA: VILA DOZE                          JARDIM PALMA23066186RIO DE JANEIRO RJUNIAO UMB DOS CULTOS AFRO BRAS    20121810 000085
10231987175000168817800093673    000030322                    000303220000000000000109                     I0130322     20121800000000035003410000017N291018104700000000000102012180000000000000000000000000000000000000000100005380679773ROBERTO DE OLIVEIRA RIBEIRO JU          RUA VINTE E TRES                        SANTA CRUZ  23500000RIO DE JANEIRO RJUNIAO UMB DOS CULTOS AFRO BRAS    20121810 000086
10231987175000168817800093673    000030321                    000303210000000000000109                     I0130321     20121800000000040003410000017N291018104700000000000102012180000000000000000000000000000000000000000100052889378772ANGELA MARIA DA SILVA ANDRADE           RUA WILSON GIL DA MATTA                 CENTRO      25515101SAO JOAO DE MERRJUNIAO UMB DOS CULTOS AFRO BRAS    20121810 000087
10231987175000168817800093673    000030320                    000303200000000000000109                     I0130320     20121800000000040003410000017N291018104700000000000102012180000000000000000000000000000000000000000100010486021769SIDNEY RODRIGUES DA SILVA JUNI          RUA DAS VIDEIRAS                        MORADA VERDE23065520PACIENCIA      RJUNIAO UMB DOS CULTOS AFRO BRAS    20121810 000088
10231987175000168817800093673    000030319                    000303190000000000000109                     I0130319     20121800000000035003410000017N291018104700000000000102012180000000000000000000000000000000000000000100001244562785LUIS CARLOS RIBEIRO                     RUA NEIDE AFONSO                        SHANGRILA RO26150020BELFORD ROXO   RJUNIAO UMB DOS CULTOS AFRO BRAS    20121810 000089
10231987175000168817800093673    000030318                    000303180000000000000109                     I0130318     20121800000000035003410000017N291018104700000000000102012180000000000000000000000000000000000000000100003256338780REGINALDO ROSA DA SILVA                 RUA PAULO AFONSO                        IPIRANGA ALI26293381NOVA IGUACU    RJUNIAO UMB DOS CULTOS AFRO BRAS    20121810 000090
10231987175000168817800093673    000030317                    000303170000000000000109                     I0130317     20121800000000035003410000017N291018104700000000000102012180000000000000000000000000000000000000000100004474665775REGINALDO RAMOS DA SILVA                RUA JULIO DE CASTILHOS                  JARDIM ROTSE25270210DUQUE DE CAXIASRJUNIAO UMB DOS CULTOS AFRO BRAS    20121810 000091
10231987175000168817800093673    000030316                    000303160000000000000109                     I0130316     20121800000000040003410000017N291018104700000000000102012180000000000000000000000000000000000000000100041998839753MARIA HELENA FERREIRA DA SILVA          RUA J                                   SANTA CRUZ  23595100RIO DE JANEIRO RJUNIAO UMB DOS CULTOS AFRO BRAS    20121810 000092
10231987175000168817800093673    000030315                    000303150000000000000109                     I0130315     20121800000000035003410000017N291018104700000000000102012180000000000000000000000000000000000000000100062788396791SERGIO LUCAS DE SOUZA                   TRAVESSA CARLOS XAVIER                  MADUREIRA   21310010RIO DE JANEIRO RJUNIAO UMB DOS CULTOS AFRO BRAS    20121810 000093
10231987175000168817800093673    000030314                    000303140000000000000109                     I0130314     20121800000000035003410000017N291018104700000000000102012180000000000000000000000000000000000000000100093521987787KATIA CRISTINA DANNEMBERG               ESTRADA DO PORTINHO                     IRAJA       21235400RIO DE JANEIRO RJUNIAO UMB DOS CULTOS AFRO BRAS    20121810 000094
10231987175000168817800093673    000030313                    000303130000000000000109                     I0130313     20121800000000035003410000017N291018104700000000000102012180000000000000000000000000000000000000000100093678754791ROSINETE MARIA DE OLIVEIRA              RUA ANGOLA                              CAPIVARI    25145080DUQUE DE CAXIASRJUNIAO UMB DOS CULTOS AFRO BRAS    20121810 000095
10231987175000168817800093673    000030312                    000303120000000000000109                     I0130312     20121800000000035003410000017N291018104700000000000102012180000000000000000000000000000000000000000100009289778709HELAINE FRANKLIN TEIXEIRA               RUA CACHOEIRA ALTA                      JARDIM MARAV23031070CAMPO GRANDE   RJUNIAO UMB DOS CULTOS AFRO BRAS    20121810 000096
10231987175000168817800093673    000030311                    000303110000000000000109                     I0130311     20121800000000035003410000017N291018104700000000000102012180000000000000000000000000000000000000000100069852219715GREIZI DE CARVALHO CARVALHAES           RUA BUENOS AIRES                        JARDIM PERNA26275390NOVA IGUACU    RJUNIAO UMB DOS CULTOS AFRO BRAS    20121810 000097
10231987175000168817800093673    000030310                    000303100000000000000109                     I0130310     20121800000000035003410000017N291018104700000000000102012180000000000000000000000000000000000000000100001096953722CLAUDIA GUIMARAES                       ESTRADA GUANDU DO SENA - RUA 29         CAMPO GRANDE23091220RIO DE JANEIRO RJUNIAO UMB DOS CULTOS AFRO BRAS    20121810 000098
10231987175000168817800093673    000030309                    000303090000000000000109                     I0130309     20121800000000035003410000017N291018104700000000000102012180000000000000000000000000000000000000000100080091229715MARCO ANTONIO DE OLIVEIRA TEIX          RUA QUARENTA E UM                       JARDIM NOSSA23097260CAMPO GRANDE   RJUNIAO UMB DOS CULTOS AFRO BRAS    20121810 000099
10231987175000168817800093673    000030308                    000303080000000000000109                     I0130308     20121800000000035003410000017N291018104700000000000102012180000000000000000000000000000000000000000100046840117715TERESA CRISTINA DE MELLO SOARE          RUA CANUTAMA                            OSWALDO CRUZ21340440RIO DE JANEIRO RJUNIAO UMB DOS CULTOS AFRO BRAS    20121810 000100
10231987175000168817800093673    000030307                    000303070000000000000109                     I0130307     20121800000000040003410000017N291018104700000000000102012180000000000000000000000000000000000000000100095760024787LUCIMARA DIAS DE OLIVEIRA               RUA SANTO ELIAS                         TURIACU     21540390RIO DE JANEIRO RJUNIAO UMB DOS CULTOS AFRO BRAS    20121810 000101
10231987175000168817800093673    000030306                    000303060000000000000109                     I0130306     20121800000000035003410000017N291018104700000000000102012180000000000000000000000000000000000000000100012218258790WILIAM ULERICH MARTINS                  RUA ANTONIO AUSTREGESILO                INHAUMA     21061300RIO DE JANEIRO RJUNIAO UMB DOS CULTOS AFRO BRAS    20121810 000102
10231987175000168817800093673    000030305                    000303050000000000000109                     I0130305     20121800000000035003410000017N291018104700000000000102012180000000000000000000000000000000000000000100003654035710ELLEN CRISTINA DE ORNELAS NARC          RUA MARECHAL MARCIANO                   REALENGO    21721011RIO DE JANEIRO RJUNIAO UMB DOS CULTOS AFRO BRAS    20121810 000103
10231987175000168817800093673    000030304                    000303040000000000000109                     I0130304     20121800000000035003410000017N291018104700000000000102012180000000000000000000000000000000000000000100009924715790JOSEFA MARIA DA SILVA                   TRAVESSA DOS LAVRADORES                 VILA SAO DOM26271340NOVA IGUACU    RJUNIAO UMB DOS CULTOS AFRO BRAS    20121810 000104
10231987175000168817800093673    000030303                    000303030000000000000109                     I0130303     20121800000000035003410000017N291018104700000000000102012180000000000000000000000000000000000000000100012687881716DAIANA SANTANA DE LIMA                  RUA MANAUS                              CAMPOS ELISE25225000DUQUE DE CAXIASRJUNIAO UMB DOS CULTOS AFRO BRAS    20121810 000105
10231987175000168817800093673    000030302                    000303020000000000000109                     I0130302     20121800000000035003410000017N291018104700000000000102012180000000000000000000000000000000000000000100007040620707MONICA BORGES MATTOS                    RUA INHAMUNS                            VILA VALQUEI21321330RIO DE JANEIRO RJUNIAO UMB DOS CULTOS AFRO BRAS    20121810 000106
10231987175000168817800093673    000030301                    000303010000000000000109                     I0130301     20121800000000035003410000017N291018104700000000000102012180000000000000000000000000000000000000000100000000000000JORGE EDUARDO PEREIRA VIANNA            RUA SERGIO MARTINS MOTA                 CABUCU      26291551NOVA IGUACU    RJUNIAO UMB DOS CULTOS AFRO BRAS    20121810 000107
10231987175000168817800093673    000030300                    000303000000000000000109                     I0130300     20121800000000035003410000017N291018104700000000000102012180000000000000000000000000000000000000000100093255586704GRECIETE GOUDARD                        ESTRADA DO CAMPINHO                     CAMPO GRANDE23066540RIO DE JANEIRO RJUNIAO UMB DOS CULTOS AFRO BRAS    20121810 000108
10231987175000168817800093673    000030299                    000302990000000000000109                     I0130299     20121800000000035003410000017N291018104700000000000102012180000000000000000000000000000000000000000100079034780791PAULO ROBERTO DE SOUZA MORENO           RUA CORONEL MALHAES                     TIRADENTES  26351180NOVA IGUACU    RJUNIAO UMB DOS CULTOS AFRO BRAS    20121810 000109
10231987175000168817800093673    000030298                    000302980000000000000109                     I0130298     20121800000000035003410000017N291018104700000000000102012180000000000000000000000000000000000000000100005229971711CATIA CILENE MASCARENHAS                TRAVESSA AMOR DO CAMPO                  CONJUNTO SAN21843743CAMPO GRANDE   RJUNIAO UMB DOS CULTOS AFRO BRAS    20121810 000110
10231987175000168817800093673    000030297                    000302970000000000000109                     I0130297     20121800000000035003410000017N291018104700000000000102012180000000000000000000000000000000000000000100089982118749LENIR SILVA DOS SANTOS                  RUA DA LUTA                             JARDIM LARAN26291278RIO DE JANEIRO RJUNIAO UMB DOS CULTOS AFRO BRAS    20121810 000111
10231987175000168817800093673    000030296                    000302960000000000000109                     I0130296     20121800000000035003410000017N291018104700000000000102012180000000000000000000000000000000000000000100005215608709KARYN GEYZA BATALHA BOECHAT             RUA GERVASEO                            CENTRO      26550020RIO DE JANEIRO RJUNIAO UMB DOS CULTOS AFRO BRAS    20121810 000112
10231987175000168817800093673    000030295                    000302950000000000000109                     I0130295     20121800000000035003410000017N291018104700000000000102012180000000000000000000000000000000000000000100000905236793ROSE GREGO SILVA DE SOUZA               RUA FLEXAL                              INHAUMA     20766610RIO DE JANEIRO RJUNIAO UMB DOS CULTOS AFRO BRAS    20121810 000113
10231987175000168817800093673    000030294                    000302940000000000000109                     I0130294     20121800000000035003410000017N291018104700000000000102012180000000000000000000000000000000000000000100051265699704MARIA FATIMA DE SOUSA                   RUA MAURITI DOS SANTOS                  EDEN        25525720RIO DE JANEIRO RJUNIAO UMB DOS CULTOS AFRO BRAS    20121810 000114
10231987175000168817800093673    000030293                    000302930000000000000109                     I0130293     20121800000000040003410000017N291018104700000000000102012180000000000000000000000000000000000000000100064494527734RONALDO ROSAS ALVES                     ESTRADA COMANDANTE                      PRATA       25976140TERESOPOLIS    RJUNIAO UMB DOS CULTOS AFRO BRAS    20121810 000115
10231987175000168817800093673    000030292                    000302920000000000000109                     I0130292     20121800000000035003410000017N291018104700000000000102012180000000000000000000000000000000000000000100060223170704MARIA DO CARMO DO NASCIMENTO S          RUA COBE                                BANGU       21820200RIO DE JANEIRO RJUNIAO UMB DOS CULTOS AFRO BRAS    20121810 000116
10231987175000168817800093673    000030291                    000302910000000000000109                     I0130291     20121800000000040003410000017N291018104700000000000102012180000000000000000000000000000000000000000100064506770749TERESINHA MARIA PEREIRA NOGUEI          BR 116 KM 78 - RUA ROSALINA PEREIRA DA MFONTE SANTA 25976060TERESOPOLIS    RJUNIAO UMB DOS CULTOS AFRO BRAS    20121810 000117
10231987175000168817800093673    000030290                    000302900000000000000109                     I0130290     20121800000000040003410000017N291018104700000000000102012180000000000000000000000000000000000000000100075333112720FATIMA CRISTINA MARQUES DE ALM          RUA MANOEL CARREIRO DE MELLO            SAO PEDRO   25956080TERESOPOLIS    RJUNIAO UMB DOS CULTOS AFRO BRAS    20121810 000118
10231987175000168817800093673    000030289                    000302890000000000000109                     I0130289     20121800000000040003410000017N291018104700000000000102012180000000000000000000000000000000000000000100028095391700SERGIO GARCIA DE QUEIROZ                RUA MATO GROSSO                         SANTA CECILI25957250TERESOPOLIS    RJUNIAO UMB DOS CULTOS AFRO BRAS    20121810 000119
10231987175000168817800093673    000030288                    000302880000000000000109                     I0130288     20121800000000035003410000017N291018104700000000000102012180000000000000000000000000000000000000000100043397077753JOAO NORATO CEZARIO                     RUA POETA MANOEL BANDEIRA               CABUIS      26540260NILOPOLIS      RJUNIAO UMB DOS CULTOS AFRO BRAS    20121810 000120
10231987175000168817800093673    000030287                    000302870000000000000109                     I0130287     20121800000000040003410000017N291018104700000000000102012180000000000000000000000000000000000000000100012295676746JEFFERSON ANTONIO TELLES GALDI          RUA MOUZIN DE ALBUQUERQUE               SAO VICENTE 26178080BELFORD ROXO   RJUNIAO UMB DOS CULTOS AFRO BRAS    20121810 000121
10231987175000168817800093673    000030286                    000302860000000000000109                     I0130286     20121800000000040003410000017N291018104700000000000102012180000000000000000000000000000000000000000100091083532715MARCOS AURELIO PEREIRA RAMOS            RUA MATO GROSSO                         SANTA CECILI25957250TERESOPOLIS    RJUNIAO UMB DOS CULTOS AFRO BRAS    20121810 000122
10231987175000168817800093673    000030285                    000302850000000000000109                     I0130285     20121800000000035003410000017N291018104700000000000102012180000000000000000000000000000000000000000100003526002762HELOISA HELENA DE OLIVEIRA DA           RUA DOUTOR MUNIZ                        CENTRO      26130020BELFORD ROXO   RJUNIAO UMB DOS CULTOS AFRO BRAS    20121810 000123
10231987175000168817800093673    000030284                    000302840000000000000109                     I0130284     20121800000000035003410000017N291018104700000000000102012180000000000000000000000000000000000000000100005436665730JORGE LUIZ VICTORIO LIMA                AVENIDA MARCOVALDI                      NOVA ESPERAN26113040BELFORD ROXO   RJUNIAO UMB DOS CULTOS AFRO BRAS    20121810 000124
10231987175000168817800093673    000030283                    000302830000000000000109                     I0130283     20121800000000040003410000017N291018104700000000000102012180000000000000000000000000000000000000000100003005342727MAURICIO ESTORQUE                       RUA SERDIVAO JOSE NICOLAY               JARDIM FEO  25965430TERESOPOLIS    RJUNIAO UMB DOS CULTOS AFRO BRAS    20121810 000125
10231987175000168817800093673    000030282                    000302820000000000000109                     I0130282     20121800000000040003410000017N291018104700000000000102012180000000000000000000000000000000000000000100009526018770VERONICA MARIA LIMA                     RUA KEMAL PALHA                         VILA SANTO A25040220DUQUE DE CAXIASRJUNIAO UMB DOS CULTOS AFRO BRAS    20121810 000126
10231987175000168817800093673    000030281                    000302810000000000000109                     I0130281     20121800000000035003410000017N291018104700000000000102012180000000000000000000000000000000000000000100003250570596VERONICA LUCIA DA CRUZ                  ESTRADA DOUTOR FARRULA                  SAO FRANCISC26125400BELFORD ROXO   RJUNIAO UMB DOS CULTOS AFRO BRAS    20121810 000127
10231987175000168817800093673    000030280                    000302800000000000000109                     I0130280     20121800000000035003410000017N291018104700000000000102012180000000000000000000000000000000000000000100002527980740ARMANDO DE ALMEIDA                      RUA PEDRO JOSE DE OLIVEIRA              VARGEM GRAND27145231BARRA DO PIRAI RJUNIAO UMB DOS CULTOS AFRO BRAS    20121810 000128
10231987175000168817800093673    000030279                    000302790000000000000109                     I0130279     20121800000000035003410000017N291018104700000000000102012180000000000000000000000000000000000000000100005978854785ALEXANDRE MOTA DOS SANTOS               RUA BRUNO SENDER                        JARDIM NOVA 26266040NOVA IGUACU    RJUNIAO UMB DOS CULTOS AFRO BRAS    20121810 000129
10231987175000168817800093673    000030278                    000302780000000000000109                     I0130278     20121800000000035003410000017N291018104700000000000102012180000000000000000000000000000000000000000100014907708793THIAGO CARVALHO VIDAL LIMA              RUA DONA DUCHA                          MARIA CONGA 25901238MAGE           RJUNIAO UMB DOS CULTOS AFRO BRAS    20121810 000130
10231987175000168817800093673    000030277                    000302770000000000000109                     I0130277     20121800000000040003410000017N291018104700000000000102012180000000000000000000000000000000000000000100082187401715JOSE AUGUSTO DA PAIXAO                  RUA GOMES CARNEIRO                      SARACURUNA  25211050DUQUE DE CAXIASRJUNIAO UMB DOS CULTOS AFRO BRAS    20121810 000131
10231987175000168817800093673    000030276                    000302760000000000000109                     I0130276     20121800000000040003410000017N291018104700000000000102012180000000000000000000000000000000000000000100011622292766ROBERT HELENO MACEDO                    TRAVESSA JOSE CARRETEIRO                ENGENHOCA   24110444NITEROI        RJUNIAO UMB DOS CULTOS AFRO BRAS    20121810 000132
10231987175000168817800093673    000030275                    000302750000000000000109                     I0130275     20121800000000035003410000017N291018104700000000000102012180000000000000000000000000000000000000000100060044055749SUELY DE FARIAS EDUARDO                 TRAVESSA JAFIA                          CIDADE DE DE22772190RIO DE JANEIRO RJUNIAO UMB DOS CULTOS AFRO BRAS    20121810 000133
10231987175000168817800093673    000030274                    000302740000000000000109                     I0130274     20121800000000035003410000017N291018104700000000000102012180000000000000000000000000000000000000000100013118884703WESLEI FERREIRA DE CARVALHO             ESTRADA DO GUERENGUE                    TAQUARA     22713004RIO DE JANEIRO RJUNIAO UMB DOS CULTOS AFRO BRAS    20121810 000134
10231987175000168817800093673    000030273                    000302730000000000000109                     I0130273     20121800000000035003410000017N291018104700000000000102012180000000000000000000000000000000000000000100002176741781SUSI DE OLIVEIRA LOUREIRO               AVENIDA VICENTE DE CARVALHO             VICENTE DE C26278525RIO DE JANEIRO RJUNIAO UMB DOS CULTOS AFRO BRAS    20121810 000135
10231987175000168817800093673    000030272                    000302720000000000000109                     I0130272     20121800000000035003410000017N291018104700000000000102012180000000000000000000000000000000000000000100095846190715ANA MARIA NICANOR DE QUADRO             RUA PASSO FUNDO                         JARDIM GUAND26298189NOVA IGUACU    RJUNIAO UMB DOS CULTOS AFRO BRAS    20121810 000136
10231987175000168817800093673    000030271                    000302710000000000000109                     I0130271     20121800000000035003410000017N291018104700000000000102012180000000000000000000000000000000000000000100001161586709ALEXANDRE PIMPAREL DA SILVA             RUA: COMENDADOR VENACIO                 PALHADA     26290204NOVA IGUACU    RJUNIAO UMB DOS CULTOS AFRO BRAS    20121810 000137
10231987175000168817800093673    000030270                    000302700000000000000109                     I0130270     20121800000000035003410000017N291018104700000000000102012180000000000000000000000000000000000000000100000000000000FABIO DA SILVA                          RUA CAMORIM                             JARDIM DELAM26317140QUEIMADOS      RJUNIAO UMB DOS CULTOS AFRO BRAS    20121810 000138
10231987175000168817800093673    000030269                    000302690000000000000109                     I0130269     20121800000000035003410000017N291018104700000000000102012180000000000000000000000000000000000000000100010765062755IVONE JOAO PEDRO                        RUA MARMIARI                            SENADOR CAMA21831000RIO DE JANEIRO RJUNIAO UMB DOS CULTOS AFRO BRAS    20121810 000139
10231987175000168817800093673    000030268                    000302680000000000000109                     I0130268     20121800000000035003410000017N291018104700000000000102012180000000000000000000000000000000000000000100085957679720MARIA DA APARECIDA VICENTE DUQ          RUA FRANCISCO VIOLTI                    HELIOPLOIS  26125440BELFORD ROXO   RJUNIAO UMB DOS CULTOS AFRO BRAS    20121810 000140
10231987175000168817800093673    000030267                    000302670000000000000109                     I0130267     20121800000000035003410000017N291018104700000000000102012180000000000000000000000000000000000000000100005933193704ANA PAULA DA SILVA SANTOS               RUA APIACA                              JARDIM BARRO25267290DUQUE DE CAXIASRJUNIAO UMB DOS CULTOS AFRO BRAS    20121810 000141
10231987175000168817800093673    000030266                    000302660000000000000109                     I0130266     20121800000000035003410000017N291018104700000000000102012180000000000000000000000000000000000000000100010018753701PAULA DE BRITO                          RUA FRANCISCO VIOLTE                    HELIOPOLIS  26125440RIO DE JANEIRO RJUNIAO UMB DOS CULTOS AFRO BRAS    20121810 000142
10231987175000168817800093673    000030265                    000302650000000000000109                     I0130265     20121800000000035003410000017N291018104700000000000102012180000000000000000000000000000000000000000100003372466705SANDRO NASCIMENTO NOBREGA               RUA JOAO ROMARIZ                        RAMOS       21031700RIO DE JANEIRO RJUNIAO UMB DOS CULTOS AFRO BRAS    20121810 000143
10231987175000168817800093673    000030264                    000302640000000000000109                     I0130264     20121800000000035003410000017N291018104700000000000102012180000000000000000000000000000000000000000100085542091768SUELY PEREIRA DA SILVA CALIXTO          RUA LUSITANIA II                        IMBARIE     25266005DUQUE DE CAXIASRJUNIAO UMB DOS CULTOS AFRO BRAS    20121810 000144
10231987175000168817800093673    000030263                    000302630000000000000109                     I0130263     20121800000000035003410000017N291018104700000000000102012180000000000000000000000000000000000000000100010718180747JOSE CARLOS MELO DA SILVA               RUA DEPUTADO SA REGO                    VILA SAO LUI25065030DUQUE DE CAXIASRJUNIAO UMB DOS CULTOS AFRO BRAS    20121810 000145
10231987175000168817800093673    000030262                    000302620000000000000109                     I0130262     20121800000000035003410000017N291018104700000000000102012180000000000000000000000000000000000000000100058756280734SANDRA REGINA DA CONCEICAO              RUA BUENOS AIRES                        JARDIM PERNA26275390NOVA IGUACU    RJUNIAO UMB DOS CULTOS AFRO BRAS    20121810 000146
10231987175000168817800093673    000030261                    000302610000000000000109                     I0130261     20121800000000035003410000017N291018104700000000000102012180000000000000000000000000000000000000000100032637128764MARLENE DA CRUZ                         AVENIDA ABILIO AUGUSTO TAVORA           VALVERDE    26290600NOVA IGUACU    RJUNIAO UMB DOS CULTOS AFRO BRAS    20121810 000147
10231987175000168817800093673    000030260                    000302600000000000000109                     I0130260     20121800000000035003410000017N291018104700000000000102012180000000000000000000000000000000000000000100049660632720MARINETE SANTOS DE OLIVEIRA             AVENIDA SANTA CRUZ                      SENADOR CAMA23010003RIO DE JANEIRO RJUNIAO UMB DOS CULTOS AFRO BRAS    20121810 000148
10231987175000168817800093673    000030259                    000302590000000000000109                     I0130259     20121800000000035003410000017N291018104700000000000102012180000000000000000000000000000000000000000100003253352730LUCINEA DUTRA MEDEIROS                  RUA EVALDO BRAGA                        INDEPENDENCI25645300PETROPOLIS     RJUNIAO UMB DOS CULTOS AFRO BRAS    20121810 000149
10231987175000168817800093673    000030258                    000302580000000000000109                     I0130258     20121800000000035003410000017N291018104700000000000102012180000000000000000000000000000000000000000100000858723778GEOVANI FERNANDA DA SILVA               RUA SOFIA BARRETO                       DUMAS - SANT23550700RIO DE JANEIRO RJUNIAO UMB DOS CULTOS AFRO BRAS    20121810 000150
10231987175000168817800093673    000030257                    000302570000000000000109                     I0130257     20121800000000035003410000017N291018104700000000000102012180000000000000000000000000000000000000000100000227210700ROSIMAR TELLES DE SA                    RUA ACAPU                               MARECHAL HER21550570RIO DE JANEIRO RJUNIAO UMB DOS CULTOS AFRO BRAS    20121810 000151
10231987175000168817800093673    000030256                    000302560000000000000109                     I0130256     20121800000000035003410000017N291018104700000000000102012180000000000000000000000000000000000000000100000919377793JOSE IVAN MARCELINO FILHO               RUA ERNANE PEREIRA                      CARLOS SAMPA26089115NOVA IGUACU    RJUNIAO UMB DOS CULTOS AFRO BRAS    20121810 000152
10231987175000168817800093673    000030255                    000302550000000000000109                     I0130255     20121800000000035003410000017N291018104700000000000102012180000000000000000000000000000000000000000100001649750714CRISTIANE JOSE DA SILVA                 AVENIDA CALOMBE                         PARQUE ELDOR25231020DUQUE DE CAXIASRJUNIAO UMB DOS CULTOS AFRO BRAS    20121810 000153
10231987175000168817800093673    000030254                    000302540000000000000109                     I0130254     20121800000000040003410000017N291018104700000000000102012180000000000000000000000000000000000000000100011700984799CRISTIANE SANTOS FEIJO VIEIRA           RUA NICOLAU TOUQUET                     JARDIM CATAR24716403SAO GONCALO    RJUNIAO UMB DOS CULTOS AFRO BRAS    20121810 000154
10231987175000168817800093673    000030253                    000302530000000000000109                     I0130253     20121800000000035003410000017N291018104700000000000102012180000000000000000000000000000000000000000100012345678900MARIA DA GRACA MACHADO DOS SAN          RUA ARCOZELO                            PARQUE ARARU25585560SAO JOAO DE MERRJUNIAO UMB DOS CULTOS AFRO BRAS    20121810 000155
10231987175000168817800093673    000030252                    000302520000000000000109                     I0130252     20121800000000035003410000017N291018104700000000000102012180000000000000000000000000000000000000000100004278587716LUCIANO GONCALVES PIRES                 RUA MARECHAL ANTONIO DE SOUSA           JARDIM AMERI21240430RIO DE JANEIRO RJUNIAO UMB DOS CULTOS AFRO BRAS    20121810 000156
10231987175000168817800093673    000030251                    000302510000000000000109                     I0130251     20121800000000040003410000017N291018104700000000000102012180000000000000000000000000000000000000000100005234258726LUANNA RODRIGUES NASCIMENTO LO          RUA SETE                                VALERIO     28680000CACHOEIRA DE MARJUNIAO UMB DOS CULTOS AFRO BRAS    20121810 000157
10231987175000168817800093673    000030250                    000302500000000000000109                     I0130250     20121800000000040003410000017N291018104700000000000102012180000000000000000000000000000000000000000100005770480742NARAYAMA MARTINS RODRIGUES LOU          RUA NABYCALIFA                          TABORDA     28680000CACHOEIRA DE MARJUNIAO UMB DOS CULTOS AFRO BRAS    20121810 000158
10231987175000168817800093673    000030249                    000302490000000000000109                     I0130249     20121800000000040003410000017N291018104700000000000102012180000000000000000000000000000000000000000100002965368736REGINA CONCEICAO                        AVENIDA BOQUEIRAO                       BOA VISTA   28680000CACHOEIRA DE MARJUNIAO UMB DOS CULTOS AFRO BRAS    20121810 000159
10231987175000168817800093673    000030248                    000302480000000000000109                     I0130248     20121800000000040003410000017N291018104700000000000102012180000000000000000000000000000000000000000100009963194761FERNANDO PECANHA PIRES                  RUA GENERAL BASILIO                     TABORDA     28680000CACHOEIRA DE MARJUNIAO UMB DOS CULTOS AFRO BRAS    20121810 000160
10231987175000168817800093673    000030247                    000302470000000000000109                     I0130247     20121800000000035003410000017N291018104700000000000102012180000000000000000000000000000000000000000100009491065777VIVIAN LUIZA FREITAS DE AGUIAR          RUA ITAPETININGA                        VICENTE DE C21370680RIO DE JANEIRO RJUNIAO UMB DOS CULTOS AFRO BRAS    20121810 000161
10231987175000168817800093673    000030246                    000302460000000000000109                     I0130246     20121800000000035003410000017N291018104700000000000102012180000000000000000000000000000000000000000100002331392730ANA MARIA DOS SANTOS VIEIRA             RUA OITO                                PARQUE ALVOR26053220NOVA IGUACU    RJUNIAO UMB DOS CULTOS AFRO BRAS    20121810 000162
10231987175000168817800093673    000030245                    000302450000000000000109                     I0130245     20121800000000035003410000017N291018104700000000000102012180000000000000000000000000000000000000000100005964958702MARISLEY AMARO DE SOUZA                 RUA MONTE ALTO                          BANGU       21863010RIO DE JANEIRO RJUNIAO UMB DOS CULTOS AFRO BRAS    20121810 000163
10231987175000168817800093673    000030244                    000302440000000000000109                     I0130244     20121800000000035003410000017N291018104700000000000102012180000000000000000000000000000000000000000100003018847733MARIA AILHA BERNARDO PINTO              RUA RUBIAO JUNIOR                       CENTRO      23860000MANGARATIBA    RJUNIAO UMB DOS CULTOS AFRO BRAS    20121810 000164
10231987175000168817800093673    000030243                    000302430000000000000109                     I0130243     20121800000000035003410000017N291018104700000000000102012180000000000000000000000000000000000000000100089207963787NICEIA SANTOS FRANCA                    TRAVESSA VIANA BARBOSA                  SEPETIBA    23550360RIO DE JANEIRO RJUNIAO UMB DOS CULTOS AFRO BRAS    20121810 000165
10231987175000168817800093673    000030242                    000302420000000000000109                     I0130242     20121800000000035003410000017N291018104700000000000102012180000000000000000000000000000000000000000100012345678910LUCIANO GONCALVES DE SOUZA              RUA CLARIMUNDO DE MELO                  PIEDADE     20740323RIO DE JANEIRO RJUNIAO UMB DOS CULTOS AFRO BRAS    20121810 000166
10231987175000168817800093673    000030241                    000302410000000000000109                     I0130241     20121800000000035003410000017N291018104700000000000102012180000000000000000000000000000000000000000100001162883707SUNEY MENEZES MACHADO                   ESTRADA DO ENCANAMENTO                  BARBADO     23060000RIO DE JANEIRO RJUNIAO UMB DOS CULTOS AFRO BRAS    20121810 000167
10231987175000168817800093673    000030240                    000302400000000000000109                     I0130240     20121800000000035003410000017N291018104700000000000102012180000000000000000000000000000000000000000100004275325745MAIKE OLIVEIRA DA COSTA                 TRAVESSA MARTA DA ROCHA                 ABOLICAO    20755030RIO DE JANEIRO RJUNIAO UMB DOS CULTOS AFRO BRAS    20121810 000168
10231987175000168817800093673    000030239                    000302390000000000000109                     I0130239     20121800000000035003410000017N291018104700000000000102012180000000000000000000000000000000000000000100007852297790IRENE FRANCISCO LIMA                    RUA VIRGILIO VARZEA                     VILA SAO LUI25051110DUQUE DE CAXIASRJUNIAO UMB DOS CULTOS AFRO BRAS    20121810 000169
10231987175000168817800093673    000030238                    000302380000000000000109                     I0130238     20121800000000035003410000017N291018104700000000000102012180000000000000000000000000000000000000000100001298660750ROSEMBERG EFIGENIO BARBOSA              RUA TANCREDO MARTINS COSTA              ENGENHO DE D20730310RIO DE JANEIRO RJUNIAO UMB DOS CULTOS AFRO BRAS    20121810 000170
10231987175000168817800093673    000030237                    000302370000000000000109                     I0130237     20121800000000035003410000017N291018104700000000000102012180000000000000000000000000000000000000000100050246534753TANIA MARIA DA SILVA OLIVEIRA           TRAVESSA MARAJO                         LINDO PARQUE24420100SAO GONCALO    RJUNIAO UMB DOS CULTOS AFRO BRAS    20121810 000171
10231987175000168817800093673    000030236                    000302360000000000000109                     I0130236     20121800000000035003410000017N291018104700000000000102012180000000000000000000000000000000000000000100006915594736CINTIA FERREIRA                         RUA VALDEMAR GALDINO                    JARDIM BELO 22631004RIO DE JANEIRO RJUNIAO UMB DOS CULTOS AFRO BRAS    20121810 000172
10231987175000168817800093673    000030235                    000302350000000000000109                     I0130235     20121800000000035003410000017N291018104700000000000102012180000000000000000000000000000000000000000100011497058767DIEGO FERREIRA DA SILVA                 RUA PRIMEIRO DE MAIO                    IPIRANGA    26293480RIO DE JANEIRO RJUNIAO UMB DOS CULTOS AFRO BRAS    20121810 000173
10231987175000168817800093673    000030234                    000302340000000000000109                     I0130234     20121800000000035003410000017N291018104700000000000102012180000000000000000000000000000000000000000100044415443753ELIDE LEANDRO BARBOSA                   RUA ENGENHEIRO PERICLES RIBEIRO         FONSECA     24130350NITEROI        RJUNIAO UMB DOS CULTOS AFRO BRAS    20121810 000174
10231987175000168817800093673    000030233                    000302330000000000000109                     I0130233     20121800000000035003410000017N291018104700000000000102012180000000000000000000000000000000000000000100003387547720APARECIDA DOS SANTOS                    RUA CRACATUA                            HELIOPOLIS  26125170BELFORD ROXO   RJUNIAO UMB DOS CULTOS AFRO BRAS    20121810 000175
10231987175000168817800093673    000030232                    000302320000000000000109                     I0130232     20121800000000035003410000017N291018104700000000000102012180000000000000000000000000000000000000000100009409455766DANIELE MARTINS MEDEIROS DE FR          RUA D                                   BELA VISTA  23860000MANGARATIBA    RJUNIAO UMB DOS CULTOS AFRO BRAS    20121810 000176
10231987175000168817800093673    000030231                    000302310000000000000109                     I0130231     20121800000000035003410000017N291018104700000000000102012180000000000000000000000000000000000000000100090219023700GUARACIARA CORREA PASCHOAL              RUA JOSE CABRAL                         VAL VERDE   26290783NOVA IGUACU    RJUNIAO UMB DOS CULTOS AFRO BRAS    20121810 000177
10231987175000168817800093673    000030230                    000302300000000000000109                     I0130230     20121800000000035003410000017N291018104700000000000102012180000000000000000000000000000000000000000100000640795706CELIA REGINA ALVES DE SOUZA CO          RUA QUARENTA E SETE                     JARDIM ITAMB24725240SAO GONCALO    RJUNIAO UMB DOS CULTOS AFRO BRAS    20121810 000178
10231987175000168817800093673    000030229                    000302290000000000000109                     I0130229     20121800000000035003410000017N291018104700000000000102012180000000000000000000000000000000000000000100007459837741LUIZ CARLOS CARDOSO                     RUA WALDIR CARDOSO                      PAU GRANDE  25917040MAGE           RJUNIAO UMB DOS CULTOS AFRO BRAS    20121810 000179
10231987175000168817800093673    000030228                    000302280000000000000109                     I0130228     20121800000000035003410000017N291018104700000000000102012180000000000000000000000000000000000000000100023970090563MARCIA VIEIRA SALES                     RUA LOPO SARAIVA                        TANQUE - JAC22740220RIO DE JANEIRO RJUNIAO UMB DOS CULTOS AFRO BRAS    20121810 000180
10231987175000168817800093673    000030227                    000302270000000000000109                     I0130227     20121800000000035003410000017N291018104700000000000102012180000000000000000000000000000000000000000100011264005725MARCELO VIEIRA GUSMAN FILHO             AVENIDA MEDIANEIRA                      COSMOS      23066470RIO DE JANEIRO RJUNIAO UMB DOS CULTOS AFRO BRAS    20121810 000181
10231987175000168817800093673    000030226                    000302260000000000000109                     I0130226     20121800000000035003410000017N291018104700000000000102012180000000000000000000000000000000000000000100006726905432DAYVIDY RAMON CANDIDO                   RUA MARACA                              PARQUE MUCAJ26415055JAPERI         RJUNIAO UMB DOS CULTOS AFRO BRAS    20121810 000182
10231987175000168817800093673    000030225                    000302250000000000000109                     I0130225     20121800000000035003410000017N291018104700000000000102012180000000000000000000000000000000000000000100053531396749VITALINA DOS SANTOS                     RUA SAQUAREMA                           GRAMACHO    25035425DUQUE DE CAXIASRJUNIAO UMB DOS CULTOS AFRO BRAS    20121810 000183
10231987175000168817800093673    000030224                    000302240000000000000109                     I0130224     20121800000000035003410000017N291018104700000000000102012180000000000000000000000000000000000000000100009445907728VICTOR DOS SANTOS ALLEN                 RUA PEDRO TELES                         CENTRO      25515032SAO JOAO DE MERRJUNIAO UMB DOS CULTOS AFRO BRAS    20121810 000184
10231987175000168817800093673    000030223                    000302230000000000000109                     I0130223     20121800000000035003410000017N291018104700000000000102012180000000000000000000000000000000000000000100011549239759RENATA DE OLIVEIRA GASPAR               RUA GUANABARA                           MADUREIRA   21350230RIO DE JANEIRO RJUNIAO UMB DOS CULTOS AFRO BRAS    20121810 000185
10231987175000168817800093673    000030222                    000302220000000000000109                     I0130222     20121800000000035003410000017N291018104700000000000102012180000000000000000000000000000000000000000100009145082707ELAINE CRISTINA DE MORAES               RUA GENTIL DO OURO                      AGUIAR TORRE23063340INHOAIBA       RJUNIAO UMB DOS CULTOS AFRO BRAS    20121810 000186
10231987175000168817800093673    000030221                    000302210000000000000109                     I0130221     20121800000000035003410000017N291018104700000000000102012180000000000000000000000000000000000000000100015429555134OBIRACI SILVA DO NASCIMENTO             ESTRADA VELHA DE MARICA                 MARIA PAULA 24756280SAO GONCALO    RJUNIAO UMB DOS CULTOS AFRO BRAS    20121810 000187
10231987175000168817800093673    000030220                    000302200000000000000109                     I0130220     20121800000000035003410000017N291018104700000000000102012180000000000000000000000000000000000000000100006864504778FABIO GUILHERME DOS SANTOS              ESTRADA JOAO DE ABREU                   MONJOLO     24723190SAO GONCALO    RJUNIAO UMB DOS CULTOS AFRO BRAS    20121810 000188
10231987175000168817800093673    000030219                    000302190000000000000109                     I0130219     20121800000000035003410000017N291018104700000000000102012180000000000000000000000000000000000000000100000000000000LUCIANO SOARES DA SILVA                 RUA MEDEIROS AGUAS MARAVILHOSAS         LINHA AZUL  27910000MACAE          RJUNIAO UMB DOS CULTOS AFRO BRAS    20121810 000189
10231987175000168817800093673    000030218                    000302180000000000000109                     I0130218     20121800000000035003410000017N291018104700000000000102012180000000000000000000000000000000000000000100013849060705LEONARDO ENEDINA DE MELO                RUA JULIO VERNER                        SANTA RITA  26050517NOVA IGUACU    RJUNIAO UMB DOS CULTOS AFRO BRAS    20121810 000190
10231987175000168817800093673    000030217                    000302170000000000000109                     I0130217     20121800000000035003410000017N291018104700000000000102012180000000000000000000000000000000000000000100082391106734CASSIO SOUZA DA COSTA                   RUA RIACHUELO                           JARDIM ESTOR26112220BELFORD ROXO   RJUNIAO UMB DOS CULTOS AFRO BRAS    20121810 000191
10231987175000168817800093673    000030216                    000302160000000000000109                     I0130216     20121800000000035003410000017N291018104700000000000102012180000000000000000000000000000000000000000100087798999787NILZETE DA CONCEICAO FELIX              RUA PROJETADA                           JARDIM ANHAN25264030DUQUE DE CAXIASRJUNIAO UMB DOS CULTOS AFRO BRAS    20121810 000192
10231987175000168817800093673    000030215                    000302150000000000000109                     I0130215     20121800000000035003410000017N291018104700000000000102012180000000000000000000000000000000000000000100002882629729ANA PAULA DE SOUZA RIBEIRO VIL          RUA DUARTE DE AZEVEDO                   TURIACU     21550130RIO DE JANEIRO RJUNIAO UMB DOS CULTOS AFRO BRAS    20121810 000193
10231987175000168817800093673    000030214                    000302140000000000000109                     I0130214     20121800000000035003410000017N291018104700000000000102012180000000000000000000000000000000000000000100004842101490MARIA DE LOURDES FARIAS DOS SA          RUA HELIO DE OLIVEIRA                   PARADA MORAB25000000DUQUE DE CAXIASRJUNIAO UMB DOS CULTOS AFRO BRAS    20121810 000194
10231987175000168817800093673    000030213                    000302130000000000000109                     I0130213     20121800000000035003410000017N291018104700000000000102012180000000000000000000000000000000000000000100004253784704ALEXANDRE SIMOES NASCIMENTO             RUA SEBASTIAO DRUMOND                   ANCHIETA    21640360RIO DE JANEIRO RJUNIAO UMB DOS CULTOS AFRO BRAS    20121810 000195
10231987175000168817800093673    000030212                    000302120000000000000109                     I0130212     20121800000000035003410000017N291018104700000000000102012180000000000000000000000000000000000000000100004474701755JACIRA DE ALMEIDA BATISTA JULI          AVENIDA SAO PAULOA                      PARQUE MARIL25225660DUQUE DE CAXIASRJUNIAO UMB DOS CULTOS AFRO BRAS    20121810 000196
10231987175000168817800093673    000030211                    000302110000000000000109                     I0130211     20121800000000035003410000017N291018104700000000000102012180000000000000000000000000000000000000000100077068505791JOSE CLEZIO DE SOUZA                    RUA GENERAL CEZAR OBINO                 BENTO RIBEIR20720012RIO DE JANEIRO RJUNIAO UMB DOS CULTOS AFRO BRAS    20121810 000197
10231987175000168817800093673    000030210                    000302100000000000000109                     I0130210     20121800000000035003410000017N291018104700000000000102012180000000000000000000000000000000000000000100006424589880LUIZ CARLOS BRITO                       RUA DA LIBERDADE                        TINGUA      26063230NOVA IGUACU    RJUNIAO UMB DOS CULTOS AFRO BRAS    20121810 000198
10231987175000168817800093673    000030209                    000302090000000000000109                     I0130209     20121800000000035003410000017N291018104700000000000102012180000000000000000000000000000000000000000100009250353782LUIZ CARLOS MATOLA                      APIACA                                  JARDIM PRIMA25056270DUQUE DE CAXIASRJUNIAO UMB DOS CULTOS AFRO BRAS    20121810 000199
10231987175000168817800093673    000030208                    000302080000000000000109                     I0130208     20121800000000035003410000017N291018104700000000000102012180000000000000000000000000000000000000000100012345678910LUCIANA LUISA PEREIRA                   TRAVESSA JOAO DE BARRO                  LAGOMAR     27966870MACAE          RJUNIAO UMB DOS CULTOS AFRO BRAS    20121810 000200
10231987175000168817800093673    000030207                    000302070000000000000109                     I0130207     20121800000000035003410000017N291018104700000000000102012180000000000000000000000000000000000000000100012464631728DIEGO TACITO COSTA HENRIQUE             RUA YONE MUSSI                          MALVINAS    27946310MACAE          RJUNIAO UMB DOS CULTOS AFRO BRAS    20121810 000201
10231987175000168817800093673    000030206                    000302060000000000000109                     I0130206     20121800000000035003410000017N291018104700000000000102012180000000000000000000000000000000000000000100000000001299MARIA DA PENHA CORREA PINTO             RUA UM                                  BOSQUE AZUL 27971250MACAE          RJUNIAO UMB DOS CULTOS AFRO BRAS    20121810 000202
10231987175000168817800093673    000030205                    000302050000000000000109                     I0130205     20121800000000035003410000017N291018104700000000000102012180000000000000000000000000000000000000000100078514533568PAULO SERGIO SANTOS SANTANA             RUA W                                   LAGOMAR     27966590MACAE          RJUNIAO UMB DOS CULTOS AFRO BRAS    20121810 000203
10231987175000168817800093673    000030204                    000302040000000000000109                     I0130204     20121800000000035003410000017N291018104700000000000102012180000000000000000000000000000000000000000100010267774702NATHALIA SOUTELINHO FERREIRA            RUA LEVY NEVES                          PRAIA DA BRI23028270RIO DE JANEIRO RJUNIAO UMB DOS CULTOS AFRO BRAS    20121810 000204
10231987175000168817800093673    000030203                    000302030000000000000109                     I0130203     20121800000000035003410000017N291018104700000000000102012180000000000000000000000000000000000000000100007208431701WEMERSON JOAO FARIAS DA SILVA           RUA: C                                  SEPETIBA    23545040RIO DE JANEIRO RJUNIAO UMB DOS CULTOS AFRO BRAS    20121810 000205
10231987175000168817800093673    000030202                    000302020000000000000109                     I0130202     20121800000000035003410000017N291018104700000000000102012180000000000000000000000000000000000000000100073960560710CLAUDIA MARIA DE OLIVEIRA DOS           RUA CARATUVA                            JARDIM SULAC22725020RIO DE JANEIRO RJUNIAO UMB DOS CULTOS AFRO BRAS    20121810 000206
10231987175000168817800093673    000030201                    000302010000000000000109                     I0130201     20121800000000035003410000017N291018104700000000000102012180000000000000000000000000000000000000000100014933850704LIDIA GABRIELLE DIAS RIBEIRO            RUA JORGE BRAGANCA                      BOM PASTOR  26110080BELFORD ROXO   RJUNIAO UMB DOS CULTOS AFRO BRAS    20121810 000207
10231987175000168817800093673    000030200                    000302000000000000000109                     I0130200     20121800000000035003410000017N291018104700000000000102012180000000000000000000000000000000000000000100097990531704CICERO ROGERIO DA SILVA MATOS           RUA ROBERTO                             VILA GUIMARA26088425NOVA IGUACU    RJUNIAO UMB DOS CULTOS AFRO BRAS    20121810 000208
10231987175000168817800093673    000030199                    000301990000000000000109                     I0130199     20121800000000035003410000017N291018104700000000000102012180000000000000000000000000000000000000000100001478776790CLEUSA FERREIRA PEREIRA                 RUA THEREMIN                            COELHO NETO 21530290RIO DE JANEIRO RJUNIAO UMB DOS CULTOS AFRO BRAS    20121810 000209
10231987175000168817800093673    000030198                    000301980000000000000109                     I0130198     20121800000000035003410000017N291018104700000000000102012180000000000000000000000000000000000000000100067424647734MARCIA VALERIA VALIATI DOS SAN          RUA GOMES CARNEIRO                      VILA URUSSA√20735090RIO DE JANEIRO RJUNIAO UMB DOS CULTOS AFRO BRAS    20121810 000210
10231987175000168817800093673    000030197                    000301970000000000000109                     I0130197     20121800000000035003410000017N291018104700000000000102012180000000000000000000000000000000000000000100010292272766MARCIA JUPIRA SANTOS GONZAGA            RUA ANTONIO FELIX                       CENTRO      26520081NILOPOLIS      RJUNIAO UMB DOS CULTOS AFRO BRAS    20121810 000211
10231987175000168817800093673    000030196                    000301960000000000000109                     I0130196     20121800000000035003410000017N291018104700000000000102012180000000000000000000000000000000000000000100090490894704EVELINE DA CONCEICAO                    AVENIDA ATLANTIDA                       LAGOMAR     27966000MACAE          RJUNIAO UMB DOS CULTOS AFRO BRAS    20121810 000212
10231987175000168817800093673    000030195                    000301950000000000000109                     I0130195     20121800000000035003410000017N291018104700000000000102012180000000000000000000000000000000000000000100013397736781JOVANE RANGEL DA SILVA                  RUA SILVA JARDIM                        CENTRO      27910340MACAE          RJUNIAO UMB DOS CULTOS AFRO BRAS    20121810 000213
10231987175000168817800093673    000030194                    000301940000000000000109                     I0130194     20121800000000035003410000017N291018104700000000000102012180000000000000000000000000000000000000000100004188514760LUIZ CARLOS PEREIRA DA SILVA            RUA W                                   LAGOMAR     27966755MACAE          RJUNIAO UMB DOS CULTOS AFRO BRAS    20121810 000214
10231987175000168817800093673    000030193                    000301930000000000000109                     I0130193     20121800000000035003410000017N291018104700000000000102012180000000000000000000000000000000000000000100016492108760TIAGO LOPES DE AZEVEDO SILVA            RUA X                                   PARADA MODEL25943365GUAPIMIRIM     RJUNIAO UMB DOS CULTOS AFRO BRAS    20121810 000215
10231987175000168817800093673    000030192                    000301920000000000000109                     I0130192     20121800000000035003410000017N291018104700000000000102012180000000000000000000000000000000000000000100000000000000LEONARDO EUGENIO DOS SANTOS             RUA LUIZ PINTO DA SILVA                 PRAIA CAMPIS27923200MACAE          RJUNIAO UMB DOS CULTOS AFRO BRAS    20121810 000216
10231987175000168817800093673    000030191                    000301910000000000000109                     I0130191     20121800000000035003410000017N291018104700000000000102012180000000000000000000000000000000000000000100095181890725ALEXANDRE DE SOUZA TAVARES SEN          RUA DOM MANOEL                          DOM RODRIGO 26260230NOVA IGUACU    RJUNIAO UMB DOS CULTOS AFRO BRAS    20121810 000217
10231987175000168817800093673    000030190                    000301900000000000000109                     I0130190     20121800000000035003410000017N291018104700000000000102012180000000000000000000000000000000000000000100011122717750RODRIGO DINIZ DA COSTA                  RUA ENGENHO DE DENTRO                   VILAR DOS TE25565230SAO JOAO DE MERRJUNIAO UMB DOS CULTOS AFRO BRAS    20121810 000218
10231987175000168817800093673    000030189                    000301890000000000000109                     I0130189     20121800000000035003410000017N291018104700000000000102012180000000000000000000000000000000000000000100013090350750REINALDO GONCALVES DE OLIVEIRA          RUA DOMINGOS LEMOS                      COELHO DA RO25550721SAO JOAO DE MERRJUNIAO UMB DOS CULTOS AFRO BRAS    20121810 000219
10231987175000168817800093673    000030188                    000301880000000000000109                     I0130188     20121800000000035003410000017N291018104700000000000102012180000000000000000000000000000000000000000100005953749724JUCIARA DA SILVA XAVIER                 RUA CONDE DE AZAMBUJA                   MARIA DA GRA20785342RIO DE JANEIRO RJUNIAO UMB DOS CULTOS AFRO BRAS    20121810 000220
10231987175000168817800093673    000030187                    000301870000000000000109                     I0130187     20121800000000035003410000017N291018104700000000000102012180000000000000000000000000000000000000000100092111777749WANDERLEY DOS SANTOS MENDES             PRACA EMBOABA                           ENGENHO DA R20761160RIO DE JANEIRO RJUNIAO UMB DOS CULTOS AFRO BRAS    20121810 000221
10231987175000168817800093673    000030186                    000301860000000000000109                     I0130186     20121800000000035003410000017N291018104700000000000102012180000000000000000000000000000000000000000100009416663794IGOR DO NASCIMENTO RODRIGUES            RUA FIGUEIREDO ROCHA                    VIGARIO GERA21240660RIO DE JANEIRO RJUNIAO UMB DOS CULTOS AFRO BRAS    20121810 000222
10231987175000168817800093673    000030185                    000301850000000000000109                     I0130185     20121800000000035003410000017N291018104700000000000102012180000000000000000000000000000000000000000100040664325734GENI BARBOSA ROCHA DA SILVA             TRAVESSA DA AMIZADE                     VILA DA PENH25268020RIO DE JANEIRO RJUNIAO UMB DOS CULTOS AFRO BRAS    20121810 000223
10231987175000168817800093673    000030184                    000301840000000000000109                     I0130184     20121800000000035003410000017N291018104700000000000102012180000000000000000000000000000000000000000100069279500791CLAUDIA ALONSO RODRIGUES                ESTRADA DO PAU FERRO                    FREGUESIA   22745055RIO DE JANEIRO RJUNIAO UMB DOS CULTOS AFRO BRAS    20121810 000224
10231987175000168817800093673    000030183                    000301830000000000000109                     I0130183     20121800000000035003410000017N291018104700000000000102012180000000000000000000000000000000000000000100087306689720JANAINA SANTA CRUZ COSTA                ALAMEDA SANTO ANTONIO                   SEPETIBA    23535660RIO DE JANEIRO RJUNIAO UMB DOS CULTOS AFRO BRAS    20121810 000225
10231987175000168817800093673    000030182                    000301820000000000000109                     I0130182     20121800000000035003410000017N291018104700000000000102012180000000000000000000000000000000000000000100005451927731MAGDA MARTHA DE OLIVEIRA                RUA: JOSE MARIANO                       CABUCU - PAR26292051NOVA IGUACU    RJUNIAO UMB DOS CULTOS AFRO BRAS    20121810 000226
10231987175000168817800093673    000030181                    000301810000000000000109                     I0130181     20121800000000035003410000017N291018104700000000000102012180000000000000000000000000000000000000000100092915434700MARIA MANOLA GIL DE ALMEIDA             RUA AMANDIU                             IRAJA       21230820RIO DE JANEIRO RJUNIAO UMB DOS CULTOS AFRO BRAS    20121810 000227
10231987175000168817800093673    000030180                    000301800000000000000109                     I0130180     20121800000000035003410000017N291018104700000000000102012180000000000000000000000000000000000000000100060210389753ROZANA DOS SANTOS                       RUA CAFE FILHO                          INHOAIBA    23060720RIO DE JANEIRO RJUNIAO UMB DOS CULTOS AFRO BRAS    20121810 000228
10231987175000168817800093673    000030179                    000301790000000000000109                     I0130179     20121800000000035003410000017N291018104700000000000102012180000000000000000000000000000000000000000100088041883753JORGE COSTA BRAGA FILHO                 RUA CENTO E VINTE E TRES                MAUA        25900000RIO DE JANEIRO RJUNIAO UMB DOS CULTOS AFRO BRAS    20121810 000229
10231987175000168817800093673    000030178                    000301780000000000000109                     I0130178     20121800000000035003410000017N291018104700000000000102012180000000000000000000000000000000000000000100000759136742ADRIANA LAPORT ALVES                    RUA DONA CLARA DE ARAUJO                ANDRADE ARAU26010390NOVA IGUACU    RJUNIAO UMB DOS CULTOS AFRO BRAS    20121810 000230
10231987175000168817800093673    000030177                    000301770000000000000109                     I0130177     20121800000000035003410000017N291018104700000000000102012180000000000000000000000000000000000000000100098464159749MARCOS VINICIUS VASCONCELLOS D          RUA DOS CAJUEIROS                       GUARATIBA   23030150RIO DE JANEIRO RJUNIAO UMB DOS CULTOS AFRO BRAS    20121810 000231
10231987175000168817800093673    000030176                    000301760000000000000109                     I0130176     20121800000000035003410000017N291018104700000000000102012180000000000000000000000000000000000000000100058365737787ALTAMIRA ROSA                           AVENIDA DO CONTORNO                     PARADA MORAB25000000DUQUE DE CAXIASRJUNIAO UMB DOS CULTOS AFRO BRAS    20121810 000232
10231987175000168817800093673    000030175                    000301750000000000000109                     I0130175     20121800000000035003410000017N291018104700000000000102012180000000000000000000000000000000000000000100074171372704ELIANE DE SOUZA MACHADO                 RUA ROQUETE PINTO                       JARDIM ANHAN25265200DUQUE DE CAXIASRJUNIAO UMB DOS CULTOS AFRO BRAS    20121810 000233
10231987175000168817800093673    000030174                    000301740000000000000109                     I0130174     20121800000000035003410000017N291018104700000000000102012180000000000000000000000000000000000000000100053218833787MARLUCE SUELY DA SILVA                  RUA ESCRAVA ISAURA                      BRIZAMAR    23825380RIO DE JANEIRO RJUNIAO UMB DOS CULTOS AFRO BRAS    20121810 000234
10231987175000168817800093673    000030173                    000301730000000000000109                     I0130173     20121800000000035003410000017N291018104700000000000102012180000000000000000000000000000000000000000100082191638791RITA DE CASSIA VALVERDE ROCHA           RUA JOAQUIM SOARES NETO                 NOVA AMERICA26021560NOVA IGUACU    RJUNIAO UMB DOS CULTOS AFRO BRAS    20121810 000235
10231987175000168817800093673    000030172                    000301720000000000000109                     I0130172     20121800000000035003410000017N291018104700000000000102012180000000000000000000000000000000000000000100069052735700ROSANE MARQUES FERREIRA                 AVENIDA PEDRO GERALDO DE ALMEIDA        CAMPO GRANDE23076160RIO DE JANEIRO RJUNIAO UMB DOS CULTOS AFRO BRAS    20121810 000236
10231987175000168817800093673    000030171                    000301710000000000000109                     I0130171     20121800000000035003410000017N291018104700000000000102012180000000000000000000000000000000000000000100014520518792STEPHANI MATOS MONTEIRO                 ESTRADA DOUTOR PLINIO CASADO            CENTRO      26130622BELFORD ROXO   RJUNIAO UMB DOS CULTOS AFRO BRAS    20121810 000237
10231987175000168817800093673    000030170                    000301700000000000000109                     I0130170     20121800000000035003410000017N291018104700000000000102012180000000000000000000000000000000000000000100012727461780SUELMIR LIMA DE ARAUJO                  RUA NOSSA SENHORA DAS GRACAS            PRAIA DO ANI25925708MAGE           RJUNIAO UMB DOS CULTOS AFRO BRAS    20121810 000238
10231987175000168817800093673    000030169                    000301690000000000000109                     I0130169     20121800000000035003410000017N291018104700000000000102012180000000000000000000000000000000000000000100011351878786GLEISSON BITTENCOURT DA SILVA           RUA FLORA DE ARAUJO                     PRATA       26010570NOVA IGUACU    RJUNIAO UMB DOS CULTOS AFRO BRAS    20121810 000239
10231987175000168817800093673    000030168                    000301680000000000000109                     I0130168     20121800000000035003410000017N291018104700000000000102012180000000000000000000000000000000000000000100000839586736MAURO CESAR BRANCO OBERLAENDER          RUA IGUARIM                             REALENGO    21765540RIO DE JANEIRO RJUNIAO UMB DOS CULTOS AFRO BRAS    20121810 000240
10231987175000168817800093673    000030167                    000301670000000000000109                     I0130167     20121800000000035003410000017N291018104700000000000102012180000000000000000000000000000000000000000100011766861784MARIA WANDERLEIA MARTINS CRUZ           RUA BRUNO LECINI                        AUSTIN      26279255NOVA IGUACU    RJUNIAO UMB DOS CULTOS AFRO BRAS    20121810 000241
10231987175000168817800093673    000030166                    000301660000000000000109                     I0130166     20121800000000035003410000017N291018104700000000000102012180000000000000000000000000000000000000000100070645523704RICARDO DE SOUZA LIMA                   RUA MAJOR AZEVEDO                       IRAJA       21230060RIO DE JANEIRO RJUNIAO UMB DOS CULTOS AFRO BRAS    20121810 000242
10231987175000168817800093673    000030165                    000301650000000000000109                     I0130165     20121800000000035003410000017N291018104700000000000102012180000000000000000000000000000000000000000100015110892709YASMIN FIALHO HANGES                    ESTRADA HENRIQUE DE MELO                BENTO RIBEIR21340190RIO DE JANEIRO RJUNIAO UMB DOS CULTOS AFRO BRAS    20121810 000243
10231987175000168817800093673    000030164                    000301640000000000000109                     I0130164     20121800000000035003410000017N291018104700000000000102012180000000000000000000000000000000000000000100030894840720LIGIA REGINA ZACHARIAS DE MELO          RUA MANAPA                              VALVERDE    21051360RIO DE JANEIRO RJUNIAO UMB DOS CULTOS AFRO BRAS    20121810 000244
10231987175000168817800093673    000030163                    000301630000000000000109                     I0130163     20121800000000035003410000017N291018104700000000000102012180000000000000000000000000000000000000000100068373570772RONILCE CAMILO DA SILVA                 RUA RUBY ALBERTORIA                     GERENCIANO  26061155NOVA IGUACU    RJUNIAO UMB DOS CULTOS AFRO BRAS    20121810 000245
10231987175000168817800093673    000030162                    000301620000000000000109                     I0130162     20121800000000035003410000017N291018104700000000000102012180000000000000000000000000000000000000000100047442140700MARFIZA FERREIRA DA SILVA VENA          RUA EURICO COELHO                       GRAMA       26060650NOVA IGUACU    RJUNIAO UMB DOS CULTOS AFRO BRAS    20121810 000246
10231987175000168817800093673    000030161                    000301610000000000000109                     I0130161     20121800000000035003410000017N291018104700000000000102012180000000000000000000000000000000000000000100007620451157JUCIARA BARRETO DA SILVA                RUA G                                   PIABETA     25900000MAGE           RJUNIAO UMB DOS CULTOS AFRO BRAS    20121810 000247
10231987175000168817800093673    000030160                    000301600000000000000109                     I0130160     20121800000000035003410000017N291018104700000000000102012180000000000000000000000000000000000000000100093788150734REGINA DA SILVA VERONEZI DOS S          RUA ABATE                               JARDIM CANAA26263040NOVA IGUACU    RJUNIAO UMB DOS CULTOS AFRO BRAS    20121810 000248
10231987175000168817800093673    000030159                    000301590000000000000109                     I0130159     20121800000000035003410000017N291018104700000000000102012180000000000000000000000000000000000000000100092645933734ROSINEA PRECIOSO DE OLIVEIRA            RUA PROFESSORA MARLY CARVALHO PEREIRA   MIGUEL COUTO26070452NOVA IGUACU    RJUNIAO UMB DOS CULTOS AFRO BRAS    20121810 000249
