01REMESSA01COBRANCA       817800093673        União Umb dos Cultos Afro Bra341BANCO ITAU SA  170119                                                                                                                                                                                                                                                                                                      000001
10231987175000168817800093673    000039215                    000392150000000000000109                     I0239215     30031900000000040003410000017N261218104700000000000103003190000000000000000000000000000000000000000100003005342727MAURICIO ESTORQUE                       RUA SERDIVAO JOSE NICOLAY               JARDIM FEO  25965430TERESOPOLIS    RJUNIAO UMB DOS CULTOS AFRO BRAS    30031910 000002
10231987175000168817800093673    000037533                    000375330000000000000109                     I0237533     30031900000000040003410000017N261218104700000000000103003190000000000000000000000000000000000000000100043185029704SEBASTIAO DA CONCEICAO FILHO            AVENIDA: TENENTE AVIADOR NILTON CAMPOS STOMAZINHO   25525512SAO JOAO DE MERRJUNIAO UMB DOS CULTOS AFRO BRAS    30031910 000003
10231987175000168817800093673    000037296                    000372960000000000000109                     I0237296     28021900000000040003410000017N261218104700000000000102802190000000000000000000000000000000000000000100003005342727MAURICIO ESTORQUE                       RUA SERDIVAO JOSE NICOLAY               JARDIM FEO  25965430TERESOPOLIS    RJUNIAO UMB DOS CULTOS AFRO BRAS    28021910 000004
10231987175000168817800093673    000035621                    000356210000000000000109                     I0235621     28021900000000040003410000017N261218104700000000000102802190000000000000000000000000000000000000000100043185029704SEBASTIAO DA CONCEICAO FILHO            AVENIDA: TENENTE AVIADOR NILTON CAMPOS STOMAZINHO   25525512SAO JOAO DE MERRJUNIAO UMB DOS CULTOS AFRO BRAS    28021910 000005
10231987175000168817800093673    000035383                    000353830000000000000109                     I0235383     31011900000000040003410000017N261218104700000000000103101190000000000000000000000000000000000000000100003005342727MAURICIO ESTORQUE                       RUA SERDIVAO JOSE NICOLAY               JARDIM FEO  25965430TERESOPOLIS    RJUNIAO UMB DOS CULTOS AFRO BRAS    31011910 000006
10231987175000168817800093673    000033720                    000337200000000000000109                     I0233720     31011900000000040003410000017N261218104700000000000103101190000000000000000000000000000000000000000100043185029704SEBASTIAO DA CONCEICAO FILHO            AVENIDA: TENENTE AVIADOR NILTON CAMPOS STOMAZINHO   25525512SAO JOAO DE MERRJUNIAO UMB DOS CULTOS AFRO BRAS    31011910 000007
10231987175000168817800093673    000033389                    000333890000000000000109                     I0233389     10121800000000350003410000017N091118104700000000000101012180000000000000000000000000000000000000000100003005342727MAURICIO ESTORQUE                       RUA SERDIVAO JOSE NICOLAY               JARDIM FEO  25965430TERESOPOLIS    RJUNIAO UMB DOS CULTOS AFRO BRAS    10121810 000008
10231987175000168817800093673    000033161                    000331610000000000000109                     I0233161     20121800000000400003410000017N291018104700000000000102012180000000000000000000000000000000000000000100003005342727MAURICIO ESTORQUE                       RUA SERDIVAO JOSE NICOLAY               JARDIM FEO  25965430TERESOPOLIS    RJUNIAO UMB DOS CULTOS AFRO BRAS    20121810 000009
10231987175000168817800093673    000032807                    000328070000000000000109                     I0132807     24011900000000350003410000017N291018104700000000000102401190000000000000000000000000000000000000000100011553393716MAURO PEREIRA                           RUA RECIFE                              CABUCU      26291374NOVA IGUACU    RJUNIAO UMB DOS CULTOS AFRO BRAS    24011910 000010
10231987175000168817800093673    000030558                    000305580000000000000109                     I0230558     20121800000000350003410000017N291018104700000000000102012180000000000000000000000000000000000000000100043185029704SEBASTIAO DA CONCEICAO FILHO            AVENIDA: TENENTE AVIADOR NILTON CAMPOS STOMAZINHO   25525512SAO JOAO DE MERRJUNIAO UMB DOS CULTOS AFRO BRAS    20121810 000011
10231987175000168817800093673    000030283                    000302830000000000000109                     I0230283     20121800000000040003410000017N291018104700000000000102012180000000000000000000000000000000000000000100003005342727MAURICIO ESTORQUE                       RUA SERDIVAO JOSE NICOLAY               JARDIM FEO  25965430TERESOPOLIS    RJUNIAO UMB DOS CULTOS AFRO BRAS    20121810 000012
10231987175000168817800093673    000029078                    000290780000000000000109                     I0229078     20121800000000035003410000017N291018104700000000000102012180000000000000000000000000000000000000000100002477166778BEATRIZ MIRANDA ABRANCHES               RUA GRUCAI                              PENHA       21020250RIO DE JANEIRO RJUNIAO UMB DOS CULTOS AFRO BRAS    20121810 000013
10231987175000168817800093673    000028512                    000285120000000000000109                     I0228512     30111800000000040003410000017N220818104700000000000103011180000000000000000000000000000000000000000100003005342727MAURICIO ESTORQUE                       RUA SERDIVAO JOSE NICOLAY               JARDIM FEO  25965430TERESOPOLIS    RJUNIAO UMB DOS CULTOS AFRO BRAS    30111810 000014
9                                                                                                                                                                                                                                                                                                                                                                                                         000015
