01REMESSA01COBRANCA       916200163100        União Umb dos Cultos Afro Bra341BANCO ITAU SA  230218                                                                                                                                                                                                                                                                                                      000001
10231987175000168916200163100    000014003                    000140030000000000000109                     I0114003     10031800000000350003410000017N230218104700000000000101003180000000000000000000000000000000000000000100064392791734ORDALINA PEDROZO TOMAZ DE AQUI          RUA ABEL DE ALVARENGA, 210              CHATUBA - ME26246340MESQUITA       RJUNIAO UMB DOS CULTOS AFRO BRAS    10031810 000002
10231987175000168916200163100    000014002                    000140020000000000000109                     I0114002     30051800000000035003410000017N230218104700000000000103005180000000000000000000000000000000000000000100030779723791JAMILTON BISPO DOS SANTOS               ESTRADA DOS PALMARES, 2015 PROJETADA C LMORADA VERDE23575270RIO DE JANEIRO RJUNIAO UMB DOS CULTOS AFRO BRAS    30051810 000003
10231987175000168916200163100    000014001                    000140010000000000000109                     I0114001     30041800000000035003410000017N230218104700000000000103004180000000000000000000000000000000000000000100030779723791JAMILTON BISPO DOS SANTOS               ESTRADA DOS PALMARES, 2015 PROJETADA C LMORADA VERDE23575270RIO DE JANEIRO RJUNIAO UMB DOS CULTOS AFRO BRAS    30041810 000004
10231987175000168916200163100    000014000                    000140000000000000000109                     I0114000     05031800000000070003410000017N230218104700000000000100503180000000000000000000000000000000000000000100068661533791CARLOS RENNAN CORREIA BORGES            RUA AMERICA DOURADA, LOTE 8 QUADRA 34   CAMPO GRANDE23088240RIO DE JANEIRO RJUNIAO UMB DOS CULTOS AFRO BRAS    05031810 000005
10231987175000168916200163100    000013999                    000139990000000000000109                     I0113999     05031800000000105003410000017N230218104700000000000100503180000000000000000000000000000000000000000100009556812784AROLDO ADRIANO DE OLIVEIRA              RUA IBITU, 127 FUNDOS                   REALENGO - R21765510RIO DE JANEIRO RJUNIAO UMB DOS CULTOS AFRO BRAS    05031810 000006
10231987175000168916200163100    000013998                    000139980000000000000109                     I0113998     30051800000000035003410000017N230218104700000000000103005180000000000000000000000000000000000000000100001898047774ELISABETH SANTOS PEREIRA                O MESMO                                 O MESMO     25900000MAGE           RJUNIAO UMB DOS CULTOS AFRO BRAS    30051810 000007
10231987175000168916200163100    000013997                    000139970000000000000109                     I0113997     30041800000000035003410000017N230218104700000000000103004180000000000000000000000000000000000000000100001898047774ELISABETH SANTOS PEREIRA                O MESMO                                 O MESMO     25900000MAGE           RJUNIAO UMB DOS CULTOS AFRO BRAS    30041810 000008
10231987175000168916200163100    000013996                    000139960000000000000109                     I0113996     30031800000000035003410000017N230218104700000000000103003180000000000000000000000000000000000000000100001898047774ELISABETH SANTOS PEREIRA                O MESMO                                 O MESMO     25900000MAGE           RJUNIAO UMB DOS CULTOS AFRO BRAS    30031810 000009
10231987175000168916200163100    000013976                    000139760000000000000109                     I0113976     30051800000000035003410000017N220218104700000000000103005180000000000000000000000000000000000000000100080236499734REGINALDO VIEIRA CAPTIVO                RUA: DOUTOR NUNES N° 1099 FUNDOS       OLARIA - RIO21021370RIO DE JANEIRO RJUNIAO UMB DOS CULTOS AFRO BRAS    30051810 000010
10231987175000168916200163100    000013975                    000139750000000000000109                     I0113975     30041800000000035003410000017N220218104700000000000103004180000000000000000000000000000000000000000100080236499734REGINALDO VIEIRA CAPTIVO                RUA: DOUTOR NUNES N° 1099 FUNDOS       OLARIA - RIO21021370RIO DE JANEIRO RJUNIAO UMB DOS CULTOS AFRO BRAS    30041810 000011
10231987175000168916200163100    000013974                    000139740000000000000109                     I0113974     30031800000000035003410000017N220218104700000000000103003180000000000000000000000000000000000000000100080236499734REGINALDO VIEIRA CAPTIVO                RUA: DOUTOR NUNES N° 1099 FUNDOS       OLARIA - RIO21021370RIO DE JANEIRO RJUNIAO UMB DOS CULTOS AFRO BRAS    30031810 000012
10231987175000168916200163100    000013966                    000139660000000000000109                     I0113966     30031800000000350003410000017N210218104700000000000103003180000000000000000000000000000000000000000100064392791734ORDALINA PEDROZO TOMAZ DE AQUI          RUA ABEL DE ALVARENGA, 210              CHATUBA - ME26246340MESQUITA       RJUNIAO UMB DOS CULTOS AFRO BRAS    30031810 000013
10231987175000168916200163100    000013962                    000139620000000000000109                     I0113962     30031800000000665003410000017N210218104700000000000103003180000000000000000000000000000000000000000200000000005559OLIMPIA SOARES DE ARAUJO                RUA DEZ, LOTE 46 QUADRA 12 - SANTA MARGACOSMOS - RIO23067010RIO DE JANEIRO RJUNIAO UMB DOS CULTOS AFRO BRAS    30031810 000014
10231987175000168916200163100    000013961                    000139610000000000000109                     I0113961     30031800000000420003410000017N210218104700000000000103003180000000000000000000000000000000000000000200000000007042CARLINDA ELIANE NUNES                   O MESMO                                 O MESMO     25015540DUQUE DE CAXIASRJUNIAO UMB DOS CULTOS AFRO BRAS    30031810 000015
10231987175000168916200163100    000013959                    000139590000000000000109                     I0113959     30031800000000700003410000017N210218104700000000000103003180000000000000000000000000000000000000000200000000007900ANORELINA OLIVEIRA DOS SANTOS           RUA MAUA N 27 H QUADRA 14               VILA SAO JOA25570151SAO JOAO DE MERRJUNIAO UMB DOS CULTOS AFRO BRAS    30031810 000016
10231987175000168916200163100    000013958                    000139580000000000000109                     I0113958     30031800000000385003410000017N210218104700000000000103003180000000000000000000000000000000000000000200000000008394HENIE DA SILVA ALENCAR                  RUA ROBERTO CALDAS, LOTE 13 QUADRA B    PRQ FLUMINEN26187400BELFORD ROXO   RJUNIAO UMB DOS CULTOS AFRO BRAS    30031810 000017
10231987175000168916200163100    000013946                    000139460000000000000109                     I0113946     30031800000000315003410000017N210218104700000000000103003180000000000000000000000000000000000000000200000000012538TATIANA DA SILVA SANTOS                 RUA IRACEMA,  176                       VILA DE CAVA25065655NOVA IGUACU    RJUNIAO UMB DOS CULTOS AFRO BRAS    30031810 000018
10231987175000168916200163100    00009100                     000091000000000000000109                     I019100      28021800000000175003410000017N080218104700000000000102802180000000000000000000000000000000000000000200000000002619MARCOS ROMEU DA SILVA                   RUA CAMINHO DO VELOSO N 836 CASA 4      AUGUSTO VASC23013090CAMPO GRANDE   RJUNIAO UMB DOS CULTOS AFRO BRAS    28021810 000019
10231987175000168916200163100    00009099                     000090990000000000000109                     I019099      28021800000000245003410000017N070218104700000000000102802180000000000000000000000000000000000000000200000000006579LUIZ CLAUDIO BATISTA REIS               O MESMO                                 O MESMO     24315384NITEROI        RJUNIAO UMB DOS CULTOS AFRO BRAS    28021810 000020
10231987175000168916200163100    00008759                     000087590000000000000109                     I028759      31011800000000035003410000017N020118104700000000000103101180000000000000000000000000000000000000000100069963979704MARIA CECILIA MOREIRA FIGUEIRE          RUA DO JOGO DA BOLA, 74                 SAUDE - RIO 20081170RIO DE JANEIRO RJUNIAO UMB DOS CULTOS AFRO BRAS    31011810 000021
10231987175000168916200163100    00008664                     000086640000000000000109                     I028664      31011800000000035003410000017N020118104700000000000103101180000000000000000000000000000000000000000100086457640753MARLUCE AUGUSTO BLANCO NOVOA            RUA: REGINA  45                         PARQUE SUECI21187110BELFORD ROXO   RJUNIAO UMB DOS CULTOS AFRO BRAS    31011810 000022
10231987175000168916200163100    00008662                     000086620000000000000109                     I028662      31011800000000035003410000017N020118104700000000000103101180000000000000000000000000000000000000000200000000009545PEDRO HENRIQUE CARVALHO DA FON          RUA CADETE POLONIA, 628 FRENTE          ENGENHO NOVO20961050RIO DE JANEIRO RJUNIAO UMB DOS CULTOS AFRO BRAS    31011810 000023
10231987175000168916200163100    00008608                     000086080000000000000109                     I028608      31011800000000035003410000017N020118104700000000000103101180000000000000000000000000000000000000000100001153058740ALEXANDRE DE ALMEIDA ESPINDOLA          ESTRADA DO CAMBOATA N 2966 - N 7 QUADRA GUADALUPE - 21660000RIO DE JANEIRO RJUNIAO UMB DOS CULTOS AFRO BRAS    31011810 000024
10231987175000168916200163100    00008592                     000085920000000000000109                     I028592      31011800000000035003410000017N020118104700000000000103101180000000000000000000000000000000000000000100000905106741RICARDO DE SOUZA GOUVEA                 RUA: DOS ARAUJO - PARQUE FLUMINENSE     BELFOR ROXO 26185260BELFOR ROXO    RJUNIAO UMB DOS CULTOS AFRO BRAS    31011810 000025
10231987175000168916200163100    00008535                     000085350000000000000109                     I028535      31011800000000035003410000017N020118104700000000000103101180000000000000000000000000000000000000000200000000002672ADRIANA SANTOS DA SILVA                 RUA URBANO DUARTE N 199                 VILA ROSARIO25042300DUQUE DE CAXIASRJUNIAO UMB DOS CULTOS AFRO BRAS    31011810 000026
10231987175000168916200163100    00008512                     000085120000000000000109                     I028512      31011800000000035003410000017N020118104700000000000103101180000000000000000000000000000000000000000200000000007267NANCI EDIR DA SILVA FERNANDES           RUA CALAMA, 305 APTO 503                GUADALUPE - 21660430RIO DE JANEIRO RJUNIAO UMB DOS CULTOS AFRO BRAS    31011810 000027
10231987175000168916200163100    00008479                     000084790000000000000109                     I028479      31011800000000035003410000017N020118104700000000000103101180000000000000000000000000000000000000000200000000001838GILBERTO DA SILVA BORBA                 RUA PROFESSOR JOAO RIBEIRO FILHO, 570   ROCHA SOBRIN26232310RIO DE JANEIRO RJUNIAO UMB DOS CULTOS AFRO BRAS    31011810 000028
10231987175000168916200163100    00008423                     000084230000000000000109                     I028423      31011800000000035003410000017N020118104700000000000103101180000000000000000000000000000000000000000200000000005130JOSE PAULO DA SILVA MARCELINO           RUA ITABAGUA,  53                       RICARDO DE A21620310RIO DE JANEIRO RJUNIAO UMB DOS CULTOS AFRO BRAS    31011810 000029
10231987175000168916200163100    00004592                     000045920000000000000109                     I024592      22121700000000350003410000017N171117104700000000000102212170000000000000000000000000000000000000000100048972215791MARIA PETRONILHA ROSA NATIVIDA          RUA JACARE ACANGA Nº 29 QUADRA 21      VILA MARIA H25255590DUQUE DE CAXIASRJUNIAO UMB DOS CULTOS AFRO BRAS    22121710 000030
10231987175000168916200163100    00004493                     000044930000000000000109                     I024493      22121700000000350003410000017N171117104700000000000102212170000000000000000000000000000000000000000200000000005874IZABEL GONCALVES DA ROCHA               RUA NOSSA SENHORA DA GUIA, 26 CASA 2    VILA DE CAVA26062192NOVA IGUACU    RJUNIAO UMB DOS CULTOS AFRO BRAS    22121710 000031
10231987175000168916200163100    00004331                     000043310000000000000109                     I024331      22121700000000350003410000017N171117104700000000000102212170000000000000000000000000000000000000000100003341576762FATIMA REGINA PAREDE                    RUA NANCI, 116                          DE MAIO - NO26052650NOVA IGUACU    RJUNIAO UMB DOS CULTOS AFRO BRAS    22121710 000032
10231987175000168916200163100    00003609                     000036090000000000000109                     I023609      22121700000000350003410000017N171117104700000000000102212170000000000000000000000000000000000000000100009116311787ETELVINA SOUZA DUARTE                   RUA CAIABU, 137 APTO 403                IRAJA - RJ  21361230RIO DE JANEIRO RJUNIAO UMB DOS CULTOS AFRO BRAS    22121710 000033
10231987175000168916200163100    00003427                     000034270000000000000109                     I023427      22121700000000350003410000017N171117104700000000000102212170000000000000000000000000000000000000000200000000007562CONCHETA PERRONI DE SOUZA BRAN          RUA JUSTINO DE SOUSA N 76 CASA 4        SAO CRISTOVA21920030RIO DE JANEIRO RJUNIAO UMB DOS CULTOS AFRO BRAS    22121710 000034
10231987175000168916200163100    00003326                     000033260000000000000109                     I023326      22121700000000350003410000017N171117104700000000000102212170000000000000000000000000000000000000000200000000006541ARTURINA ALVES DE BRITO - EROT          O MESMO                                 O MESMO     21221330RIO DE JANEIRO RJUNIAO UMB DOS CULTOS AFRO BRAS    22121710 000035
10231987175000168916200163100    00003312                     000033120000000000000109                     I023312      22121700000000350003410000017N171117104700000000000102212170000000000000000000000000000000000000000200000000000299JOSE DOMINGOS VICTORINO DE SOU          RUA ITAGUAI, 306                        ILHA DO GOVE21921420RIO DE JANEIRO RJUNIAO UMB DOS CULTOS AFRO BRAS    22121710 000036
10231987175000168916200163100    00003144                     000031440000000000000109                     I023144      31121700000000035003410000017N131117104700000000000103112170000000000000000000000000000000000000000100048972215791MARIA PETRONILHA ROSA NATIVIDA          RUA JACARE ACANGA Nº 29 QUADRA 21      VILA MARIA H25255590DUQUE DE CAXIASRJUNIAO UMB DOS CULTOS AFRO BRAS    31121710 000037
10231987175000168916200163100    00003042                     000030420000000000000109                     I023042      31121700000000035003410000017N131117104700000000000103112170000000000000000000000000000000000000000200000000005874IZABEL GONCALVES DA ROCHA               RUA NOSSA SENHORA DA GUIA, 26 CASA 2    VILA DE CAVA26062192NOVA IGUACU    RJUNIAO UMB DOS CULTOS AFRO BRAS    31121710 000038
10231987175000168916200163100    00002879                     000028790000000000000109                     I022879      31121700000000035003410000017N131117104700000000000103112170000000000000000000000000000000000000000100003341576762FATIMA REGINA PAREDE                    RUA NANCI, 116                          DE MAIO - NO26052650NOVA IGUACU    RJUNIAO UMB DOS CULTOS AFRO BRAS    31121710 000039
10231987175000168916200163100    00001934                     000019340000000000000109                     I021934      31121700000000035003410000017N131117104700000000000103112170000000000000000000000000000000000000000200000000007562CONCHETA PERRONI DE SOUZA BRAN          RUA JUSTINO DE SOUSA N 76 CASA 4        SAO CRISTOVA21920030RIO DE JANEIRO RJUNIAO UMB DOS CULTOS AFRO BRAS    31121710 000040
10231987175000168916200163100    00001832                     000018320000000000000109                     I021832      31121700000000035003410000017N131117104700000000000103112170000000000000000000000000000000000000000200000000006541ARTURINA ALVES DE BRITO - EROT          O MESMO                                 O MESMO     21221330RIO DE JANEIRO RJUNIAO UMB DOS CULTOS AFRO BRAS    31121710 000041
10231987175000168916200163100    00001818                     000018180000000000000109                     I021818      31121700000000035003410000017N131117104700000000000103112170000000000000000000000000000000000000000200000000000299JOSE DOMINGOS VICTORINO DE SOU          RUA ITAGUAI, 306                        ILHA DO GOVE21921420RIO DE JANEIRO RJUNIAO UMB DOS CULTOS AFRO BRAS    31121710 000042
9                                                                                                                                                                                                                                                                                                                                                                                                         000043
