01REMESSA01COBRANCA       916200163100        União Umb dos Cultos Afro Bra341BANCO ITAU SA  030119                                                                                                                                                                                                                                                                                                      000001
10231987175000168916200163100    000039471                    000394710000000000000109                     I0139471     07011900000000035003410000017N030119104700000000000100701190000000000000000000000000000000000000000100009060523784MARTA ANJOS PEREIRA DO NASCIME          AVENIDA MARECHAL RONDON                 SAMPAIO     20950071RIO DE JANEIRO RJUNIAO UMB DOS CULTOS AFRO BRAS    07011910 000002
10231987175000168916200163100    000039470                    000394700000000000000109                     I0139470     10061900000000070003410000017N030119104700000000000101006190000000000000000000000000000000000000000100064915026787MARTINA SELMA DA COSTA                  RUA BUCARESTE                           VILA CENTRAL26316136QUEIMADOS      RJUNIAO UMB DOS CULTOS AFRO BRAS    10061910 000003
10231987175000168916200163100    000039469                    000394690000000000000109                     I0139469     10051900000000105003410000017N030119104700000000000101005190000000000000000000000000000000000000000100064915026787MARTINA SELMA DA COSTA                  RUA BUCARESTE                           VILA CENTRAL26316136QUEIMADOS      RJUNIAO UMB DOS CULTOS AFRO BRAS    10051910 000004
10231987175000168916200163100    000039468                    000394680000000000000109                     I0139468     10041900000000105003410000017N030119104700000000000101004190000000000000000000000000000000000000000100064915026787MARTINA SELMA DA COSTA                  RUA BUCARESTE                           VILA CENTRAL26316136QUEIMADOS      RJUNIAO UMB DOS CULTOS AFRO BRAS    10041910 000005
10231987175000168916200163100    000039467                    000394670000000000000109                     I0139467     10031900000000105003410000017N030119104700000000000101003190000000000000000000000000000000000000000100064915026787MARTINA SELMA DA COSTA                  RUA BUCARESTE                           VILA CENTRAL26316136QUEIMADOS      RJUNIAO UMB DOS CULTOS AFRO BRAS    10031910 000006
10231987175000168916200163100    000039466                    000394660000000000000109                     I0139466     10021900000000105003410000017N030119104700000000000101002190000000000000000000000000000000000000000100064915026787MARTINA SELMA DA COSTA                  RUA BUCARESTE                           VILA CENTRAL26316136QUEIMADOS      RJUNIAO UMB DOS CULTOS AFRO BRAS    10021910 000007
10231987175000168916200163100    000039465                    000394650000000000000109                     I0139465     10011900000000105003410000017N030119104700000000000101001190000000000000000000000000000000000000000100064915026787MARTINA SELMA DA COSTA                  RUA BUCARESTE                           VILA CENTRAL26316136QUEIMADOS      RJUNIAO UMB DOS CULTOS AFRO BRAS    10011910 000008
10231987175000168916200163100    000039464                    000394640000000000000109                     I0139464     30031900000000040003410000017N030119104700000000000103003190000000000000000000000000000000000000000100055055753749MARIA LUCIA BENJAMIN DE FREITA          RUA QUITO                               JARDIM PRIMA25223150RIO DE JANEIRO RJUNIAO UMB DOS CULTOS AFRO BRAS    30031910 000009
10231987175000168916200163100    000039463                    000394630000000000000109                     I0139463     28021900000000040003410000017N030119104700000000000102802190000000000000000000000000000000000000000100055055753749MARIA LUCIA BENJAMIN DE FREITA          RUA QUITO                               JARDIM PRIMA25223150RIO DE JANEIRO RJUNIAO UMB DOS CULTOS AFRO BRAS    28021910 000010
10231987175000168916200163100    000039462                    000394620000000000000109                     I0139462     31011900000000040003410000017N030119104700000000000103101190000000000000000000000000000000000000000100055055753749MARIA LUCIA BENJAMIN DE FREITA          RUA QUITO                               JARDIM PRIMA25223150RIO DE JANEIRO RJUNIAO UMB DOS CULTOS AFRO BRAS    31011910 000011
10231987175000168916200163100    000039461                    000394610000000000000109                     I0139461     07011900000000070003410000017N030119104700000000000100701190000000000000000000000000000000000000000100055055753749MARIA LUCIA BENJAMIN DE FREITA          RUA QUITO                               JARDIM PRIMA25223150RIO DE JANEIRO RJUNIAO UMB DOS CULTOS AFRO BRAS    07011910 000012
10231987175000168916200163100    000039459                    000394590000000000000109                     I0139459     08021900000000350003410000017N020119104700000000000100802190000000000000000000000000000000000000000100080592368491MARIA JOSE PEREIRA NOGUEIRA DE          ALAMEDA GOIANIA                         ENGENHO DO R24752520SAO GONCALO    RJUNIAO UMB DOS CULTOS AFRO BRAS    08021910 000013
10231987175000168916200163100    000039458                    000394580000000000000109                     I0139458     30011900000000080003410000017N020119104700000000000103001190000000000000000000000000000000000000000100053177827753CREUZA FREITAS DOS SANTOS               RUA HERMES DA SILVA                     SANTA CRUZ  23550155RIO DE JANEIRO RJUNIAO UMB DOS CULTOS AFRO BRAS    30011910 000014
10231987175000168916200163100    000039457                    000394570000000000000109                     I0139457     30031900000000040003410000017N020119104700000000000103003190000000000000000000000000000000000000000100053177827753CREUZA FREITAS DOS SANTOS               RUA HERMES DA SILVA                     SANTA CRUZ  23550155RIO DE JANEIRO RJUNIAO UMB DOS CULTOS AFRO BRAS    30031910 000015
10231987175000168916200163100    000039456                    000394560000000000000109                     I0139456     28021900000000040003410000017N020119104700000000000102802190000000000000000000000000000000000000000100053177827753CREUZA FREITAS DOS SANTOS               RUA HERMES DA SILVA                     SANTA CRUZ  23550155RIO DE JANEIRO RJUNIAO UMB DOS CULTOS AFRO BRAS    28021910 000016
10231987175000168916200163100    000039455                    000394550000000000000109                     I0139455     30011900000000040003410000017N020119104700000000000103001190000000000000000000000000000000000000000100053177827753CREUZA FREITAS DOS SANTOS               RUA HERMES DA SILVA                     SANTA CRUZ  23550155RIO DE JANEIRO RJUNIAO UMB DOS CULTOS AFRO BRAS    30011910 000017
10231987175000168916200163100    000039454                    000394540000000000000109                     I0139454     31011900000000350003410000017N020119104700000000000103101190000000000000000000000000000000000000000100009408897730APARECIDA SILVA RIBEIRO                 RUA ANTONIO ALEXANDRE DE OLIVEIRA       CENTRO      25515053SAO JOAO DE MERRJUNIAO UMB DOS CULTOS AFRO BRAS    31011910 000018
10231987175000168916200163100    000039453                    000394530000000000000109                     I0139453     04011900000000350003410000017N020119104700000000000100401190000000000000000000000000000000000000000100045965986734ELISABETH BARRETO DO COUTO ALV          RUA SAMUEL GUIMARAES                    SAO FRANCISC22270000RIO DE JANEIRO RJUNIAO UMB DOS CULTOS AFRO BRAS    04011910 000019
10231987175000168916200163100    000039452                    000394520000000000000109                     I0139452     29031900000000040003410000017N020119104700000000000102903190000000000000000000000000000000000000000100079310940778JAQUELINE CRISTIANE MARTINS             MESMO                                   MESMO       21220450RIO DE JANEIRO RJUNIAO UMB DOS CULTOS AFRO BRAS    29031910 000020
10231987175000168916200163100    000039451                    000394510000000000000109                     I0139451     28021900000000040003410000017N020119104700000000000102802190000000000000000000000000000000000000000100079310940778JAQUELINE CRISTIANE MARTINS             MESMO                                   MESMO       21220450RIO DE JANEIRO RJUNIAO UMB DOS CULTOS AFRO BRAS    28021910 000021
10231987175000168916200163100    000039450                    000394500000000000000109                     I0139450     30011900000000040003410000017N020119104700000000000103001190000000000000000000000000000000000000000100079310940778JAQUELINE CRISTIANE MARTINS             MESMO                                   MESMO       21220450RIO DE JANEIRO RJUNIAO UMB DOS CULTOS AFRO BRAS    30011910 000022
9                                                                                                                                                                                                                                                                                                                                                                                                         000023
