01REMESSA01COBRANCA       916200163100        União Umb dos Cultos Afro Bra341BANCO ITAU SA  160819                                                                                                                                                                                                                                                                                                      000001
10231987175000168916200163100    000049945                    000499450000000000000109                     I0249945     15081900000000040003410000017N220719105700000000000131508190000000000000000000000000000000000000000100092393632700VERA REGINA GONCALVES                   RUA ANTONIO ALVESN 417,                 COSTA BARROS21650020RIO DE JANEIRO RJUNIAO UMB DOS CULTOS AFRO BRAS    15081915 000002
21150820190000000000080                                                                                                                                                                                                                                                                                                                                                                                   000003
10231987175000168916200163100    000044225                    000442250000000000000109                     I0244225     30061900000000040003410000017N130319105700000000000133006190000000000000000000000000000000000000000100007271009710MARCELLO FERREIRA DE ARAUJO             RUA IPEUVAN 106,                        BRAZ DE PINA21215400RIO DE JANEIRO RJUNIAO UMB DOS CULTOS AFRO BRAS    30061915 000004
21300620190000000000080                                                                                                                                                                                                                                                                                                                                                                                   000005
10231987175000168916200163100    000044187                    000441870000000000000109                     I0244187     30061900000000040003410000017N130319105700000000000133006190000000000000000000000000000000000000000100069833850715WALTER LIMA DE AVELLAR                  RUA SAO JOSEN 0, QUADRA 47 LOTE 19      PRAIA DE ITA24936735MARICA         RJUNIAO UMB DOS CULTOS AFRO BRAS    30061915 000006
21300620190000000000080                                                                                                                                                                                                                                                                                                                                                                                   000007
10231987175000168916200163100    000043940                    000439400000000000000109                     I0243940     30061900000000040003410000017N130319105700000000000133006190000000000000000000000000000000000000000100075745658720ELIZIETE COIMBRA DE FRANCA              RUA SAO LOURENCON 99,                   SANTA RITA  26050630NOVA IGUACU    RJUNIAO UMB DOS CULTOS AFRO BRAS    30061915 000008
21300620190000000000080                                                                                                                                                                                                                                                                                                                                                                                   000009
10231987175000168916200163100    000043789                    000437890000000000000109                     I0243789     30061900000000040003410000017N130319105700000000000133006190000000000000000000000000000000000000000100077175522720ARLINE FAUSTINA DA SILVA MAGNO          RUA GILMAR WILSON FRANCISCON 0, CASA 4 QBOA FE      23855004SEROPEDICA     RJUNIAO UMB DOS CULTOS AFRO BRAS    30061915 000010
21300620190000000000080                                                                                                                                                                                                                                                                                                                                                                                   000011
9                                                                                                                                                                                                                                                                                                                                                                                                         000012
