01REMESSA01COBRANCA       817800093673        União Umb dos Cultos Afro Bra341BANCO ITAU SA  191118                                                                                                                                                                                                                                                                                                      000001
10231987175000168817800093673    000033442                    000334420000000000000109                     I0133442     30111800000000070003410000017N191118104700000000000103011180000000000000000000000000000000000000000100097990531704CICERO ROGERIO DA SILVA MATOS           RUA ROBERTO                             VILA GUIMARA26088425NOVA IGUACU    RJUNIAO UMB DOS CULTOS AFRO BRAS    30111810 000002
10231987175000168817800093673    000033384                    000333840000000000000109                     I0233384     15111800000000070003410000017N081118104700000000000101511180000000000000000000000000000000000000000100097990531704CICERO ROGERIO DA SILVA MATOS           RUA ROBERTO                             VILA GUIMARA26088425NOVA IGUACU    RJUNIAO UMB DOS CULTOS AFRO BRAS    15111810 000003
9                                                                                                                                                                                                                                                                                                                                                                                                         000004
