01REMESSA01COBRANCA       817800093673        União Umb dos Cultos Afro Bra341BANCO ITAU SA  071118                                                                                                                                                                                                                                                                                                      000001
10231987175000168817800093673    000033374                    000333740000000000000109                     I0133374     09111800000000070003410000017N071118104700000000000100911180000000000000000000000000000000000000000100074597035753LUCIMAR DE SOUZA DIAS                   RUA LIGIA MALAGUTI                      BOMBAS DO GU26357000NOVA IGUACU    RJUNIAO UMB DOS CULTOS AFRO BRAS    09111810 000002
10231987175000168817800093673    000033373                    000333730000000000000109                     I0133373     30111800000000280003410000017N061118104700000000000103011180000000000000000000000000000000000000000100023970090563MARCIA VIEIRA SALES                     RUA LOPO SARAIVA                        TANQUE - JAC22740220RIO DE JANEIRO RJUNIAO UMB DOS CULTOS AFRO BRAS    30111810 000003
10231987175000168817800093673    000033372                    000333720000000000000109                     I0133372     16111800000000040003410000017N061118104700000000000101611180000000000000000000000000000000000000000100075531585772ROSANGELA PAULINA RODRIGUES             ESTRADA: DA GUARITA                     CARMARI     26040010NOVA IGUACU    RJUNIAO UMB DOS CULTOS AFRO BRAS    16111810 000004
10231987175000168817800093673    000033371                    000333710000000000000109                     I0133371     16111800000000040003410000017N061118104700000000000101611180000000000000000000000000000000000000000100075531585772ROSANGELA PAULINA RODRIGUES             ESTRADA: DA GUARITA                     CARMARI     26040010NOVA IGUACU    RJUNIAO UMB DOS CULTOS AFRO BRAS    16111810 000005
10231987175000168817800093673    000033370                    000333700000000000000109                     I0133370     20111800000000250003410000017N061118104700000000000102011180000000000000000000000000000000000000000100024540285734FERNANDO PEREIRA DE SOUZA               RUA ALECRIM                             VILA KOSMOS 21220050RIO DE JANEIRO RJUNIAO UMB DOS CULTOS AFRO BRAS    20111810 000006
10231987175000168817800093673    000033369                    000333690000000000000109                     I0133369     12111800000000070003410000017N061118104700000000000101211180000000000000000000000000000000000000000100003372466705SANDRO NASCIMENTO NOBREGA               RUA JOAO ROMARIZ                        RAMOS       21031700RIO DE JANEIRO RJUNIAO UMB DOS CULTOS AFRO BRAS    12111810 000007
10231987175000168817800093673    000033368                    000333680000000000000109                     I0133368     20121800000000400003410000017N061118104700000000000102012180000000000000000000000000000000000000000100054561990763JADIR FRANCISCO DA SILVA                RUA VISCONDE DE NITEROI                 MANGUEIRA   20943000RIO DE JANEIRO RJUNIAO UMB DOS CULTOS AFRO BRAS    20121810 000008
10231987175000168817800093673    000033013                    000330130000000000000109                     I0233013     20121800000000350003410000017N291018104700000000000102012180000000000000000000000000000000000000000100098464159749MARCOS VINICIUS VASCONCELLOS D          RUA DOS CAJUEIROS                       GUARATIBA   23030150RIO DE JANEIRO RJUNIAO UMB DOS CULTOS AFRO BRAS    20121810 000009
10231987175000168817800093673    000032741                    000327410000000000000109                     I3432741     20121800000000350003410000017N291018104700000000000102012180000000000000000000000000000000000000000100004112626703MARIA DO ROSARIO DE OLIVEIRA            ESTRADA DO BICHINHO                     PACHECO     24732510SAO GONCALO    RJUNIAO UMB DOS CULTOS AFRO BRAS    20121810 000010
10231987175000168817800093673    000032294                    000322940000000000000109                     I3432294     20121800000000400003410000017N291018104700000000000102012180000000000000000000000000000000000000000100036013692734SIDNEY OTTOLINE                         RUA VINTE E QUATRO DE FEVEREIRO         BONSUCESSO  21040300RIO DE JANEIRO RJUNIAO UMB DOS CULTOS AFRO BRAS    20121810 000011
10231987175000168817800093673    000030184                    000301840000000000000109                     I0230184     20121800000000035003410000017N291018104700000000000102012180000000000000000000000000000000000000000100069279500791CLAUDIA ALONSO RODRIGUES                ESTRADA DO PAU FERRO                    FREGUESIA   22745055RIO DE JANEIRO RJUNIAO UMB DOS CULTOS AFRO BRAS    20121810 000012
10231987175000168817800093673    000030177                    000301770000000000000109                     I0230177     20121800000000035003410000017N291018104700000000000102012180000000000000000000000000000000000000000100098464159749MARCOS VINICIUS VASCONCELLOS D          RUA DOS CAJUEIROS                       GUARATIBA   23030150RIO DE JANEIRO RJUNIAO UMB DOS CULTOS AFRO BRAS    20121810 000013
10231987175000168817800093673    000029947                    000299470000000000000109                     I0229947     20121800000000035003410000017N291018104700000000000102012180000000000000000000000000000000000000000100024540285734FERNANDO PEREIRA DE SOUZA               RUA ALECRIM                             VILA KOSMOS 21220050RIO DE JANEIRO RJUNIAO UMB DOS CULTOS AFRO BRAS    20121810 000014
10231987175000168817800093673    000028580                    000285800000000000000109                     I0228580     30111800000000035003410000017N230818104700000000000103011180000000000000000000000000000000000000000100098464159749MARCOS VINICIUS VASCONCELLOS D          RUA DOS CAJUEIROS                       GUARATIBA   23030150RIO DE JANEIRO RJUNIAO UMB DOS CULTOS AFRO BRAS    30111810 000015
10231987175000168817800093673    000028579                    000285790000000000000109                     I0228579     30101800000000035003410000017N230818104700000000000103010180000000000000000000000000000000000000000100098464159749MARCOS VINICIUS VASCONCELLOS D          RUA DOS CAJUEIROS                       GUARATIBA   23030150RIO DE JANEIRO RJUNIAO UMB DOS CULTOS AFRO BRAS    30101810 000016
10231987175000168817800093673    000028299                    000282990000000000000109                     I0228299     30111800000000035003410000017N200818104700000000000103011180000000000000000000000000000000000000000100069279500791CLAUDIA ALONSO RODRIGUES                ESTRADA DO PAU FERRO                    FREGUESIA   22745055RIO DE JANEIRO RJUNIAO UMB DOS CULTOS AFRO BRAS    30111810 000017
10231987175000168817800093673    000028072                    000280720000000000000109                     I3428072     30111800000000035003410000017N200818104700000000000103011180000000000000000000000000000000000000000100079096611772MARIO LUIZ BARRETO DE BARROS            RUA GRAVATA                             MARECHAL HER21610510RIO DE JANEIRO RJUNIAO UMB DOS CULTOS AFRO BRAS    30111810 000018
10231987175000168817800093673    000028040                    000280400000000000000109                     I0228040     30111800000000035003410000017N200818104700000000000103011180000000000000000000000000000000000000000100024540285734FERNANDO PEREIRA DE SOUZA               RUA ALECRIM                             VILA KOSMOS 21220050RIO DE JANEIRO RJUNIAO UMB DOS CULTOS AFRO BRAS    30111810 000019
10231987175000168817800093673    000027842                    000278420000000000000109                     I0227842     30111800000000035003410000017N200818104700000000000103011180000000000000000000000000000000000000000100073711616704SANDRA REGINA BESERRA SILVA             ESTRADA: CAMPO DA AREIA                 PECHINCHA   22743311RIO DE JANEIRO RJUNIAO UMB DOS CULTOS AFRO BRAS    30111810 000020
10231987175000168817800093673    000027662                    000276620000000000000109                     I3427662     30111800000000035003410000017N200818104700000000000103011180000000000000000000000000000000000000000100004462221788ALEXSANDRO JULIO DE SOUZA               RUA CORURIPE                            MARECHAL HER21555490RIO DE JANEIRO RJUNIAO UMB DOS CULTOS AFRO BRAS    30111810 000021
10231987175000168817800093673    000026962                    000269620000000000000109                     I0226962     30091800000000035003410000017N200818104700000000000103009180000000000000000000000000000000000000000100003372466705SANDRO NASCIMENTO NOBREGA               RUA JOAO ROMARIZ                        RAMOS       21031700RIO DE JANEIRO RJUNIAO UMB DOS CULTOS AFRO BRAS    30091810 000022
10231987175000168817800093673    000026876                    000268760000000000000109                     I0226876     30091800000000035003410000017N200818104700000000000103009180000000000000000000000000000000000000000100069279500791CLAUDIA ALONSO RODRIGUES                ESTRADA DO PAU FERRO                    FREGUESIA   22745055RIO DE JANEIRO RJUNIAO UMB DOS CULTOS AFRO BRAS    30091810 000023
10231987175000168817800093673    000026620                    000266200000000000000109                     I0226620     30091800000000035003410000017N200818104700000000000103009180000000000000000000000000000000000000000100024540285734FERNANDO PEREIRA DE SOUZA               RUA ALECRIM                             VILA KOSMOS 21220050RIO DE JANEIRO RJUNIAO UMB DOS CULTOS AFRO BRAS    30091810 000024
10231987175000168817800093673    000026423                    000264230000000000000109                     I0226423     30091800000000035003410000017N200818104700000000000103009180000000000000000000000000000000000000000100073711616704SANDRA REGINA BESERRA SILVA             ESTRADA: CAMPO DA AREIA                 PECHINCHA   22743311RIO DE JANEIRO RJUNIAO UMB DOS CULTOS AFRO BRAS    30091810 000025
10231987175000168817800093673    000026407                    000264070000000000000109                     I0226407     30091800000000035003410000017N200818104700000000000103009180000000000000000000000000000000000000000100074597035753LUCIMAR DE SOUZA DIAS                   RUA LIGIA MALAGUTI                      BOMBAS DO GU26357000NOVA IGUACU    RJUNIAO UMB DOS CULTOS AFRO BRAS    30091810 000026
10231987175000168817800093673    000025547                    000255470000000000000109                     I0225547     30101800000000035003410000017N200818104700000000000103010180000000000000000000000000000000000000000100003372466705SANDRO NASCIMENTO NOBREGA               RUA JOAO ROMARIZ                        RAMOS       21031700RIO DE JANEIRO RJUNIAO UMB DOS CULTOS AFRO BRAS    30101810 000027
10231987175000168817800093673    000025461                    000254610000000000000109                     I0225461     30101800000000035003410000017N200818104700000000000103010180000000000000000000000000000000000000000100069279500791CLAUDIA ALONSO RODRIGUES                ESTRADA DO PAU FERRO                    FREGUESIA   22745055RIO DE JANEIRO RJUNIAO UMB DOS CULTOS AFRO BRAS    30101810 000028
10231987175000168817800093673    000025203                    000252030000000000000109                     I0225203     30101800000000035003410000017N200818104700000000000103010180000000000000000000000000000000000000000100024540285734FERNANDO PEREIRA DE SOUZA               RUA ALECRIM                             VILA KOSMOS 21220050RIO DE JANEIRO RJUNIAO UMB DOS CULTOS AFRO BRAS    30101810 000029
10231987175000168817800093673    000025005                    000250050000000000000109                     I0225005     30101800000000035003410000017N200818104700000000000103010180000000000000000000000000000000000000000100073711616704SANDRA REGINA BESERRA SILVA             ESTRADA: CAMPO DA AREIA                 PECHINCHA   22743311RIO DE JANEIRO RJUNIAO UMB DOS CULTOS AFRO BRAS    30101810 000030
10231987175000168817800093673    000024989                    000249890000000000000109                     I0224989     30101800000000035003410000017N200818104700000000000103010180000000000000000000000000000000000000000100074597035753LUCIMAR DE SOUZA DIAS                   RUA LIGIA MALAGUTI                      BOMBAS DO GU26357000NOVA IGUACU    RJUNIAO UMB DOS CULTOS AFRO BRAS    30101810 000031
10231987175000168817800093673    00001620                     000016200000000000000109                     I021620      30111700000000035003410000017N301017104700000000000103011170000000000000000000000000000000000000000100084161973772MARCOS ANTONIO VIEIRA BAPTISTA          RUA CARLOS GONCALVES PENNA              ENGENHO DA R20761330RIO DE JANEIRO RJUNIAO UMB DOS CULTOS AFRO BRAS    30111710 000032
9                                                                                                                                                                                                                                                                                                                                                                                                         000033
