01REMESSA01COBRANCA       916200163100        União Umb dos Cultos Afro Bra341BANCO ITAU SA  160118                                                                                                                                                                                                                                                                                                      000001
10231987175000168916200163100    00009030                     000090300000000000000109                     I019030      31011800000000105003410000017N150118050900000000000103101180000000000000000000000000000000000000000100015415831777DOUGLAS DA SILVA DE SOUZA               RUA CAPINTUBA, 162                      IRAJA - RJ  21361210RIO DE JANEIRO RJUNIAO UMB DOS CULTOS AFRO BRAS    31011810 000002
10231987175000168916200163100    00009029                     000090290000000000000109                     I029029      31011800000000105003410000017N150118050900000000000103101180000000000000000000000000000000000000000100015415831777DOUGLAS DA SILVA DE SOUZA               RUA CAPINTUBA, 162                      IRAJA - RJ  21361210RIO DE JANEIRO RJUNIAO UMB DOS CULTOS AFRO BRAS    31011810 000003
10231987175000168916200163100    00009028                     000090280000000000000109                     I019028      31011800000000350003410000017N150118050900000000000103101180000000000000000000000000000000000000000100042157358749LUIZ OSWALDO DOS SANTOS                 RUA COPIUVA, 23  JARDIM CARIOCA         ILHA DO GOVE21921490RIO DE JANEIRO RJUNIAO UMB DOS CULTOS AFRO BRAS    31011810 000004
10231987175000168916200163100    00009027                     000090270000000000000109                     I019027      31011800000000175003410000017N150118050900000000000103101180000000000000000000000000000000000000000100042157358749LUIZ OSWALDO DOS SANTOS                 RUA COPIUVA, 23  JARDIM CARIOCA         ILHA DO GOVE21921490RIO DE JANEIRO RJUNIAO UMB DOS CULTOS AFRO BRAS    31011810 000005
10231987175000168916200163100    00009026                     000090260000000000000109                     I019026      28021800000000035003410000017N120118050900000000000102802180000000000000000000000000000000000000000100005137259705CRISTINA DE OLIVEIRA DA SILVA           AVENIDA CAMPO MOURAO SN APARTAMENTO 102 JARDIM MARAV23031080CAMPO GRANDE   RJUNIAO UMB DOS CULTOS AFRO BRAS    28021810 000006
10231987175000168916200163100    00009025                     000090250000000000000109                     I019025      31011800000000035003410000017N120118050900000000000103101180000000000000000000000000000000000000000100005137259705CRISTINA DE OLIVEIRA DA SILVA           AVENIDA CAMPO MOURAO SN APARTAMENTO 102 JARDIM MARAV23031080CAMPO GRANDE   RJUNIAO UMB DOS CULTOS AFRO BRAS    31011810 000007
10231987175000168916200163100    00009024                     000090240000000000000109                     I019024      20021800000000340003410000017N120118050900000000000102002180000000000000000000000000000000000000000100082396841734LUCIA DE FATIMA DE SOUZA                RUA: RESPLANDECER                       PARAISO     26297159NOVA IGUACU    RJUNIAO UMB DOS CULTOS AFRO BRAS    20021810 000008
10231987175000168916200163100    00009019                     000090190000000000000109                     I029019      25011800000000350003410000017N110118050900000000000102501180000000000000000000000000000000000000000100011080748717ALVARO CHIANELLI DE AZEREDO             RUA ANDRE AZEVEDO, 87                   OLARIA - RJ 21021480RIO DE JANEIRO RJUNIAO UMB DOS CULTOS AFRO BRAS    25011810 000009
10231987175000168916200163100    00008990                     000089900000000000000109                     I028990      15011800000000070003410000017N050118050900000000000101501180000000000000000000000000000000000000000100042598907787IRACI CARDOSO DOS SANTOS                RUA LUIZ FELECIANO  LARANJAL, LOTE 16 QULARANJAL - S24725370SAO GONCALO    RJUNIAO UMB DOS CULTOS AFRO BRAS    15011810 000010
10231987175000168916200163100    00008947                     000089470000000000000109                     I028947      10011800000000794183410000017N020118050900000000000101001180000000000000000000000000000000000000000100062788213700MARIA DO ROSARIO DE MAGALHAES           RUA: ALCIDES MAIA                       BENTO RIBEIR21550560RIO DE JANEIRO RJUNIAO UMB DOS CULTOS AFRO BRAS    10011810 000011
10231987175000168916200163100    00008927                     000089270000000000000109                     I028927      31011800000000035003410000017N020118050900000000000103101180000000000000000000000000000000000000000100009839983709CAMILA DA SILVA OLIVEIRA                RUA VITORINO DO AMARAL 189              OLARIA RJ   21073300RIO DE JANEIRO RJUNIAO UMB DOS CULTOS AFRO BRAS    31011810 000012
10231987175000168916200163100    00008869                     000088690000000000000109                     I028869      31011800000000035003410000017N020118050900000000000103101180000000000000000000000000000000000000000100002083733738SELMA ESTEVES DE MORAIS                 RUA PROFESSOR LUIZ CATANHEDE, 77        LARANJEIRAS 22245040RIO DE JANEIRO RJUNIAO UMB DOS CULTOS AFRO BRAS    31011810 000013
10231987175000168916200163100    00008793                     000087930000000000000109                     I028793      31011800000000035003410000017N020118050900000000000103101180000000000000000000000000000000000000000100009488185732RODRIGO MARTINS DE ANDRADE              RUA SAO CARLOS, 441                     ESTACIO - RJ20250052RIO DE JANEIRO RJUNIAO UMB DOS CULTOS AFRO BRAS    31011810 000014
10231987175000168916200163100    00008768                     000087680000000000000109                     I028768      31011800000000035003410000017N020118050900000000000103101180000000000000000000000000000000000000000100086257277787WLADIMIR DO CARMO PINTO                 RUA ARLETE CELESTINO AYRES VANDERLEY, 33JARDIM SULAC21745650RIO DE JANEIRO RJUNIAO UMB DOS CULTOS AFRO BRAS    31011810 000015
10231987175000168916200163100    00008755                     000087550000000000000109                     I028755      31011800000000035003410000017N020118050900000000000103101180000000000000000000000000000000000000000100071823131700EDNAH PEREIRA DOS SANTOS                TRAVESSA MONTE SERRAT 11                FONSECA - NI24130310NITEROI        RJUNIAO UMB DOS CULTOS AFRO BRAS    31011810 000016
10231987175000168916200163100    00008634                     000086340000000000000109                     I028634      31011800000000035003410000017N020118050900000000000103101180000000000000000000000000000000000000000100009295304705GEORGE ALBERTO GONZAGA DOS SAN          RUA: GUARABU                            INHAUMA     20761060RIO DE JANEIRO RJUNIAO UMB DOS CULTOS AFRO BRAS    31011810 000017
10231987175000168916200163100    00008595                     000085950000000000000109                     I018595      31011800000000035003410000017N020118050900000000000103101180000000000000000000000000000000000000000100011564970787MARIA ELIZA PINHEIRO SERRA              RUA ULEMAS, 30 - SANTA ISABEL           POSSE - NOVA26020790NOVA IGUACU    RJUNIAO UMB DOS CULTOS AFRO BRAS    31011810 000018
10231987175000168916200163100    00008531                     000085310000000000000109                     I028531      31011800000000035003410000017N020118050900000000000103101180000000000000000000000000000000000000000100033907986768HELOISA HELENA RODRIGUES VALEN          RUA PASCOAL SEGRETO N 86                JOA - BARRA 22611150RIO DE JANEIRO RJUNIAO UMB DOS CULTOS AFRO BRAS    31011810 000019
10231987175000168916200163100    00008485                     000084850000000000000109                     I018485      31011800000000035003410000017N020118050900000000000103101180000000000000000000000000000000000000000100095032061700CILEIA DA ROCHA PACHECO                 RUA DA FLORALIA, 14 FUNDOS              SANTA BARBAR24350000RIO DE JANEIRO RJUNIAO UMB DOS CULTOS AFRO BRAS    31011810 000020
10231987175000168916200163100    00008439                     000084390000000000000109                     I018439      31011800000000035003410000017N020118050900000000000103101180000000000000000000000000000000000000000100043185029704SEBASTIAO DA CONCEICAO FILHO            AVENIDA TENENTE AVIADOR NILTON CAMPOS SOTOMAZINHO - 25525512SAO JOAO DE MERRJUNIAO UMB DOS CULTOS AFRO BRAS    31011810 000021
10231987175000168916200163100    00004528                     000045280000000000000109                     I024528      22121700000000350003410000017N171117050900000000000102212170000000000000000000000000000000000000000100076994511715MARIA DAS GRACAS SANTOS DA SIL          RUA  ISLANDIA LT 7 QD 39  SARACURUNA    DUQUE DE CAX25211050DUQUE DE CAXIASRJUNIAO UMB DOS CULTOS AFRO BRAS    22121710 000022
10231987175000168916200163100    00004492                     000044920000000000000109                     I014492      22121700000000350003410000017N171117050900000000000102212170000000000000000000000000000000000000000100009946366797SIMONE SOARES NEA                       RUA FLAVIO RANGEL SN QUADRA B LOTE 7    CAMPO GRANDE23085430RIO DE JANEIRO RJUNIAO UMB DOS CULTOS AFRO BRAS    22121710 000023
10231987175000168916200163100    00004180                     000041800000000000000109                     I024180      22121700000000350003410000017N171117050900000000000102212170000000000000000000000000000000000000000100009658353754ROSINEI MARIA DOS SANTOS PEIXO          RUA FLORESTA, 1145 CASA A 3             SEPETIBA - R23540430RIO DE JANEIRO RJUNIAO UMB DOS CULTOS AFRO BRAS    22121710 000024
10231987175000168916200163100    00004167                     000041670000000000000109                     I024167      22121700000000350003410000017N171117050900000000000102212170000000000000000000000000000000000000000100007373169775CAROLINA ALVES CARLOS                   RUA: MAPAI                              JARDIM METRO25575180SAO JOAO DE MERRJUNIAO UMB DOS CULTOS AFRO BRAS    22121710 000025
10231987175000168916200163100    00004108                     000041080000000000000109                     I024108      22121700000000350003410000017N171117050900000000000102212170000000000000000000000000000000000000000100042157358749LUIZ OSWALDO DOS SANTOS                 RUA COPIUVA, 23  JARDIM CARIOCA         ILHA DO GOVE21921490RIO DE JANEIRO RJUNIAO UMB DOS CULTOS AFRO BRAS    22121710 000026
10231987175000168916200163100    00004041                     000040410000000000000109                     I024041      22121700000000350003410000017N171117050900000000000102212170000000000000000000000000000000000000000100008208769762BRUNO LEONARDO DOMINGUES DA SI          O MESMO                                 O MESMO     25635401PETROPOLIS     RJUNIAO UMB DOS CULTOS AFRO BRAS    22121710 000027
10231987175000168916200163100    00003992                     000039920000000000000109                     I023992      22121700000000350003410000017N171117050900000000000102212170000000000000000000000000000000000000000100003561463754NORMA CRISTINA JUSTO PRUDENTE           O MESMO                                 O MESMO     21635040RIO DE JANEIRO RJUNIAO UMB DOS CULTOS AFRO BRAS    22121710 000028
10231987175000168916200163100    00003915                     000039150000000000000109                     I023915      22121700000000350003410000017N171117050900000000000102212170000000000000000000000000000000000000000100065936957772ANTONIO CLAUDIO PEREIRA                 RUA RESTINGA, QUADRA 58 LOTE 6          MENDANHA - C23097650RIO DE JANEIRO RJUNIAO UMB DOS CULTOS AFRO BRAS    22121710 000029
10231987175000168916200163100    00003754                     000037540000000000000109                     I023754      22121700000000350003410000017N171117050900000000000102212170000000000000000000000000000000000000000100013540201756RUTE MEDEIROS VIEIRA                    RUA DESSESEIS N 527                     CONJUNTO NOV23565450SANTA CRUZ     RJUNIAO UMB DOS CULTOS AFRO BRAS    22121710 000030
10231987175000168916200163100    00003705                     000037050000000000000109                     I023705      22121700000000350003410000017N171117050900000000000102212170000000000000000000000000000000000000000100085194557787CELIA MARIA FERNANDES DE CASTR          RUA IRAPIRANGA, 98                      ROCHA MIRAND21540710RIO DE JANEIRO RJUNIAO UMB DOS CULTOS AFRO BRAS    22121710 000031
10231987175000168916200163100    00003637                     000036370000000000000109                     I023637      22121700000000350003410000017N171117050900000000000102212170000000000000000000000000000000000000000100005415694730ALEX SANDRO DA SILVA BANDEIRA           RUA PAULO ROBERTO, 6                    PRAIA DE MAU25900000MAGE           RJUNIAO UMB DOS CULTOS AFRO BRAS    22121710 000032
10231987175000168916200163100    00003604                     000036040000000000000109                     I023604      22121700000000350003410000017N171117050900000000000102212170000000000000000000000000000000000000000100088469212753NEIDE CARVALHO D ANGELO                 RUA GENERAL TRAUMATURGO, LOTE 17 QUADRA VILA ROSARIO25040010DUQUE DE CAXIASRJUNIAO UMB DOS CULTOS AFRO BRAS    22121710 000033
10231987175000168916200163100    00003487                     000034870000000000000109                     I013487      22121700000000350003410000017N171117050900000000000102212170000000000000000000000000000000000000000100072090499753JOSEFINA PAULINA RODRIGUES              RUA JOAQUIM SOARES NETO, 416            NOVA AMERICA26021560NOVA IGUACU    RJUNIAO UMB DOS CULTOS AFRO BRAS    22121710 000034
10231987175000168916200163100    00003338                     000033380000000000000109                     I023338      22121700000000350003410000017N171117050900000000000102212170000000000000000000000000000000000000000100084244224734JORGE MARCELO TINTEL                    O MESMO                                 O MESMO     23530220RIO DE JANEIRO RJUNIAO UMB DOS CULTOS AFRO BRAS    22121710 000035
10231987175000168916200163100    00003263                     000032630000000000000109                     I013263      22121700000000350003410000017N171117050900000000000102212170000000000000000000000000000000000000000100060946563772FLORIPEDES MADUREIRA SIQUEIRA           AVENIDA PARAIBA, 210                    DOM BOSCO - 27286000VOLTA REDONDA  RJUNIAO UMB DOS CULTOS AFRO BRAS    22121710 000036
10231987175000168916200163100    00003079                     000030790000000000000109                     I023079      31121700000000035003410000017N131117050900000000000103112170000000000000000000000000000000000000000100076994511715MARIA DAS GRACAS SANTOS DA SIL          RUA  ISLANDIA LT 7 QD 39  SARACURUNA    DUQUE DE CAX25211050DUQUE DE CAXIASRJUNIAO UMB DOS CULTOS AFRO BRAS    31121710 000037
10231987175000168916200163100    00003041                     000030410000000000000109                     I013041      31121700000000035003410000017N131117050900000000000103112170000000000000000000000000000000000000000100009946366797SIMONE SOARES NEA                       RUA FLAVIO RANGEL SN QUADRA B LOTE 7    CAMPO GRANDE23085430RIO DE JANEIRO RJUNIAO UMB DOS CULTOS AFRO BRAS    31121710 000038
10231987175000168916200163100    00002725                     000027250000000000000109                     I022725      31121700000000035003410000017N131117050900000000000103112170000000000000000000000000000000000000000100009658353754ROSINEI MARIA DOS SANTOS PEIXO          RUA FLORESTA, 1145 CASA A 3             SEPETIBA - R23540430RIO DE JANEIRO RJUNIAO UMB DOS CULTOS AFRO BRAS    31121710 000039
10231987175000168916200163100    00002712                     000027120000000000000109                     I022712      31121700000000035003410000017N131117050900000000000103112170000000000000000000000000000000000000000100007373169775CAROLINA ALVES CARLOS                   RUA: MAPAI                              JARDIM METRO25575180SAO JOAO DE MERRJUNIAO UMB DOS CULTOS AFRO BRAS    31121710 000040
10231987175000168916200163100    00002573                     000025730000000000000109                     I022573      31121700000000035003410000017N131117050900000000000103112170000000000000000000000000000000000000000100008208769762BRUNO LEONARDO DOMINGUES DA SI          O MESMO                                 O MESMO     25635401PETROPOLIS     RJUNIAO UMB DOS CULTOS AFRO BRAS    31121710 000041
10231987175000168916200163100    00002506                     000025060000000000000109                     I022506      31121700000000035003410000017N131117050900000000000103112170000000000000000000000000000000000000000100003561463754NORMA CRISTINA JUSTO PRUDENTE           O MESMO                                 O MESMO     21635040RIO DE JANEIRO RJUNIAO UMB DOS CULTOS AFRO BRAS    31121710 000042
10231987175000168916200163100    00002429                     000024290000000000000109                     I022429      31121700000000035003410000017N131117050900000000000103112170000000000000000000000000000000000000000100065936957772ANTONIO CLAUDIO PEREIRA                 RUA RESTINGA, QUADRA 58 LOTE 6          MENDANHA - C23097650RIO DE JANEIRO RJUNIAO UMB DOS CULTOS AFRO BRAS    31121710 000043
10231987175000168916200163100    00002266                     000022660000000000000109                     I022266      31121700000000035003410000017N131117050900000000000103112170000000000000000000000000000000000000000100013540201756RUTE MEDEIROS VIEIRA                    RUA DESSESEIS N 527                     CONJUNTO NOV23565450SANTA CRUZ     RJUNIAO UMB DOS CULTOS AFRO BRAS    31121710 000044
10231987175000168916200163100    00002217                     000022170000000000000109                     I022217      31121700000000035003410000017N131117050900000000000103112170000000000000000000000000000000000000000100085194557787CELIA MARIA FERNANDES DE CASTR          RUA IRAPIRANGA, 98                      ROCHA MIRAND21540710RIO DE JANEIRO RJUNIAO UMB DOS CULTOS AFRO BRAS    31121710 000045
10231987175000168916200163100    00002115                     000021150000000000000109                     I022115      31121700000000035003410000017N131117050900000000000103112170000000000000000000000000000000000000000100088469212753NEIDE CARVALHO D ANGELO                 RUA GENERAL TRAUMATURGO, LOTE 17 QUADRA VILA ROSARIO25040010DUQUE DE CAXIASRJUNIAO UMB DOS CULTOS AFRO BRAS    31121710 000046
10231987175000168916200163100    00001996                     000019960000000000000109                     I011996      31121700000000035003410000017N131117050900000000000103112170000000000000000000000000000000000000000100072090499753JOSEFINA PAULINA RODRIGUES              RUA JOAQUIM SOARES NETO, 416            NOVA AMERICA26021560NOVA IGUACU    RJUNIAO UMB DOS CULTOS AFRO BRAS    31121710 000047
10231987175000168916200163100    00001844                     000018440000000000000109                     I021844      31121700000000035003410000017N131117050900000000000103112170000000000000000000000000000000000000000100084244224734JORGE MARCELO TINTEL                    O MESMO                                 O MESMO     23530220RIO DE JANEIRO RJUNIAO UMB DOS CULTOS AFRO BRAS    31121710 000048
10231987175000168916200163100    00001769                     000017690000000000000109                     I011769      31121700000000035003410000017N131117050900000000000103112170000000000000000000000000000000000000000100060946563772FLORIPEDES MADUREIRA SIQUEIRA           AVENIDA PARAIBA, 210                    DOM BOSCO - 27286000VOLTA REDONDA  RJUNIAO UMB DOS CULTOS AFRO BRAS    31121710 000049
10231987175000168916200163100    00001637                     000016370000000000000109                     I021637      20121700000000340003410000017N301017050900000000000102012170000000000000000000000000000000000000000100060210389753ROZANA DOS SANTOS                       RUA MARANHAO N 1057 RUA B CASA 73       MEIER - RIO 23060720RIO DE JANEIRO RJUNIAO UMB DOS CULTOS AFRO BRAS    20121710 000050
9                                                                                                                                                                                                                                                                                                                                                                                                         000051
