01REMESSA01COBRANCA       817800093673        União Umb dos Cultos Afro Bra341BANCO ITAU SA  240218                                                                                                                                                                                                                                                                                                      000001
10231987175000168817800093673    000012943                    000129430000000000000109                     I0112943     30051800000000035003410000017N200218104700000000000103005180000000000000000000000000000000000000000100037356178753TEREZA BRAGA DE AZEVEDO                 RUA ANDRE ROCHA N 224                   TAQUARA - RI22730522RIO DE JANEIRO RJUNIAO UMB DOS CULTOS AFRO BRAS    30051810 000002
10231987175000168817800093673    000012942                    000129420000000000000109                     I0112942     30051800000000035003410000017N200218104700000000000103005180000000000000000000000000000000000000000100005199150707RITA LUSIE DE MELLO CASTRO              RUA IARA N 118 CASA A                   SAO MATEUS -25525410SAO JOAO DE MERRJUNIAO UMB DOS CULTOS AFRO BRAS    30051810 000003
10231987175000168817800093673    000012941                    000129410000000000000109                     I0112941     30051800000000035003410000017N200218104700000000000103005180000000000000000000000000000000000000000100001220001708ANDRE AMERICO DA SILVA                  RUA LARGO DO BOIADEIRO DA ROCINHA, 11   ROCINHA - RI22451340RIO DE JANEIRO RJUNIAO UMB DOS CULTOS AFRO BRAS    30051810 000004
10231987175000168817800093673    000012940                    000129400000000000000109                     I0112940     30051800000000035003410000017N200218104700000000000103005180000000000000000000000000000000000000000100047515090715JOSE CARLOS DA SILVA GENUNCIO           RUA VEREADOR MAURICIO SOUZA N 97        ENGENHOCA - 24110539NITEROI        RJUNIAO UMB DOS CULTOS AFRO BRAS    30051810 000005
10231987175000168817800093673    000012939                    000129390000000000000109                     I0112939     30051800000000035003410000017N200218104700000000000103005180000000000000000000000000000000000000000100085127183749CLAUDIA JORGE DA SILVA GAMA             RUA DAS MANGUEIRAS N 249                PIEDADE - RI20751080RIO DE JANEIRO RJUNIAO UMB DOS CULTOS AFRO BRAS    30051810 000006
10231987175000168817800093673    000012938                    000129380000000000000109                     I0112938     30051800000000035003410000017N200218104700000000000103005180000000000000000000000000000000000000000100038232103787SUZANE LEMOS DA SILVA                   RUA ASSIS REPUBLICANO N 310 FUNDOS      FREGUESIA - 22745030RIO DE JANEIRO RJUNIAO UMB DOS CULTOS AFRO BRAS    30051810 000007
10231987175000168817800093673    000012937                    000129370000000000000109                     I0112937     30051800000000035003410000017N200218104700000000000103005180000000000000000000000000000000000000000100064321800749MARLENE BALBINO DA SILVA                RUA: MATA MACHADO Nº 49                MARACANA    20271260LEOPOLDINA     MGUNIAO UMB DOS CULTOS AFRO BRAS    30051810 000008
10231987175000168817800093673    000012936                    000129360000000000000109                     I0112936     30051800000000035003410000017N200218104700000000000103005180000000000000000000000000000000000000000100006935690773ELAINE DA COSTA MARTINS                 O MESMO                                 O MESMO     25220407DUQUE DE CAXIASRJUNIAO UMB DOS CULTOS AFRO BRAS    30051810 000009
10231987175000168817800093673    000012935                    000129350000000000000109                     I0112935     30051800000000035003410000017N200218104700000000000103005180000000000000000000000000000000000000000100013540201756RUTE MEDEIROS VIEIRA                    RUA DESSESEIS N 527                     CONJUNTO NOV23565450SANTA CRUZ     RJUNIAO UMB DOS CULTOS AFRO BRAS    30051810 000010
10231987175000168817800093673    000012934                    000129340000000000000109                     I0112934     30051800000000035003410000017N200218104700000000000103005180000000000000000000000000000000000000000100090876857772MARCO AURELIO PEREIRA VASCONCE          RUA VISCONDE DE OURO PRETO N 5          TAUA - ILHA 21910520ILHA DO GOVERNARJUNIAO UMB DOS CULTOS AFRO BRAS    30051810 000011
10231987175000168817800093673    000012933                    000129330000000000000109                     I0112933     30051800000000035003410000017N200218104700000000000103005180000000000000000000000000000000000000000100037125893791ELIANA DOS SANTOS VITAL                 RUA CAPITAO VIEIRA Nº 96               TURIACU - RI21540330RIO DE JANEIRO RJUNIAO UMB DOS CULTOS AFRO BRAS    30051810 000012
10231987175000168817800093673    000012932                    000129320000000000000109                     I0112932     30051800000000035003410000017N200218104700000000000103005180000000000000000000000000000000000000000100005426043701CLARA DANIELE BROWN FLAUZINO            RUA ZAMBIA N 29                         BANGU - RIO 21850510RIO DE JANEIRO RJUNIAO UMB DOS CULTOS AFRO BRAS    30051810 000013
10231987175000168817800093673    000012931                    000129310000000000000109                     I0112931     30051800000000035003410000017N200218104700000000000103005180000000000000000000000000000000000000000200000000009372SILAS SOUZA ALSELMO                     RUA DO CANAVIAL N 207                   PARQUE ANTAR26053040NOVA IGUACU    RJUNIAO UMB DOS CULTOS AFRO BRAS    30051810 000014
10231987175000168817800093673    000012930                    000129300000000000000109                     I0112930     30051800000000035003410000017N200218104700000000000103005180000000000000000000000000000000000000000100000357281756ROSA ELENA DA CONCEICAO ALVES           TRAVESSA TIRADENTES N 23 CASA 4         OLINDA - NIL26535370NILOPOLIS      RJUNIAO UMB DOS CULTOS AFRO BRAS    30051810 000015
10231987175000168817800093673    000012929                    000129290000000000000109                     I0112929     30051800000000035003410000017N200218104700000000000103005180000000000000000000000000000000000000000200000000009363ANTONIO SANTOS DA SILVA                 RUA DAS BANANEIRAS N 42                 BARAO GUANDU26062188NOVA IGUACU    RJUNIAO UMB DOS CULTOS AFRO BRAS    30051810 000016
10231987175000168817800093673    000012928                    000129280000000000000109                     I0112928     30051800000000035003410000017N200218104700000000000103005180000000000000000000000000000000000000000100041402685734ITAMAR DE OLIVEIRA FERREIRA             RUA AGRIPINO DE CAMPOS N 1016           MUTUA - SAO 24461320SAO GONCALO    RJUNIAO UMB DOS CULTOS AFRO BRAS    30051810 000017
10231987175000168817800093673    000012927                    000129270000000000000109                     I0112927     30051800000000035003410000017N200218104700000000000103005180000000000000000000000000000000000000000100067160891791ELIZABETH VIEGAS GUALHANO               RUA MARIZ DE BARROS N 272 APT° 302     PRACA DA BAN20785330RIO DE JANEIRO RJUNIAO UMB DOS CULTOS AFRO BRAS    30051810 000018
10231987175000168817800093673    000012926                    000129260000000000000109                     I0112926     30051800000000035003410000017N200218104700000000000103005180000000000000000000000000000000000000000100059555815704PAULO FERNANDES                         RUA MONTE CARMELO 351                   BENTO RIBERI21555120RIO DE JANEIRO RJUNIAO UMB DOS CULTOS AFRO BRAS    30051810 000019
10231987175000168817800093673    000012925                    000129250000000000000109                     I0112925     30051800000000035003410000017N200218104700000000000103005180000000000000000000000000000000000000000100003661917100DUCILENE MADEIRA VIEIRA                 AVENIDA ZELINHA N 362                   JARDIM NAZAR25915000MAGE           RJUNIAO UMB DOS CULTOS AFRO BRAS    30051810 000020
10231987175000168817800093673    000012924                    000129240000000000000109                     I0112924     30051800000000035003410000017N200218104700000000000103005180000000000000000000000000000000000000000100060296836168ALEXANDRE MONTEIRO DA ROSA              MONTE CASTELO Nº 143 - CORONEL VEIGA   ILHA        25655500PETROPOLIS     RJUNIAO UMB DOS CULTOS AFRO BRAS    30051810 000021
10231987175000168817800093673    000012923                    000129230000000000000109                     I0112923     30051800000000035003410000017N200218104700000000000103005180000000000000000000000000000000000000000100068754485720LUCIA DA CONCEICAO GREGORIO             RUA PAULO OLIVEIRA DE CARVALHO N 56     VILA SAO LUI26012510NOVA IGUACU    RJUNIAO UMB DOS CULTOS AFRO BRAS    30051810 000022
10231987175000168817800093673    000012922                    000129220000000000000109                     I0112922     30051800000000035003410000017N200218104700000000000103005180000000000000000000000000000000000000000100002167919794ANDERSON CLEI BRANDAO TEIXEIRA          ESTRADA DO CANTAGALO Nº 595 A          CAMPO GRANDE23036440RIO DE JANEIRO RJUNIAO UMB DOS CULTOS AFRO BRAS    30051810 000023
10231987175000168817800093673    000012921                    000129210000000000000109                     I0112921     30051800000000035003410000017N200218104700000000000103005180000000000000000000000000000000000000000100008874438770MARCIA MARIA DOS SANTOS                 RUA HENRIQUE VALADARES N 47 APT 506     CENTRO - RJ 20231030RIO DE JANEIRO RJUNIAO UMB DOS CULTOS AFRO BRAS    30051810 000024
10231987175000168817800093673    000012920                    000129200000000000000109                     I0112920     30051800000000035003410000017N200218104700000000000103005180000000000000000000000000000000000000000100009527172713FABIANA DA SILVA FERNANDES              RUA ITAPACI, 56 CASA A                  COSMOS - RJ 23060440RIO DE JANEIRO RJUNIAO UMB DOS CULTOS AFRO BRAS    30051810 000025
10231987175000168817800093673    000012919                    000129190000000000000109                     I0112919     30051800000000035003410000017N200218104700000000000103005180000000000000000000000000000000000000000200000000009322WILMA DE CASTRO GOUVEA                  RUA DAMAZIO BATISTA, 86 CASA 97 - CABRALOLINDA - NIL26515126NILOPOLIS      RJUNIAO UMB DOS CULTOS AFRO BRAS    30051810 000026
10231987175000168817800093673    000012918                    000129180000000000000109                     I0112918     30051800000000035003410000017N200218104700000000000103005180000000000000000000000000000000000000000100001680132741SANDRA NOGUEIRA DE BRITO                RUA BARATA RIBEIRO 726 APT 602          COPACABANA -22051000RIO DE JANEIRO RJUNIAO UMB DOS CULTOS AFRO BRAS    30051810 000027
10231987175000168817800093673    000012917                    000129170000000000000109                     I0112917     30051800000000035003410000017N200218104700000000000103005180000000000000000000000000000000000000000100008083468738WAGNER DE ANDRADE SACRAMENTO            RUA SAGRADO CORACAO DE JESUS 243        NILOPOLIS   26535140NILOPOLIS      RJUNIAO UMB DOS CULTOS AFRO BRAS    30051810 000028
10231987175000168817800093673    000012916                    000129160000000000000109                     I0112916     30051800000000035003410000017N200218104700000000000103005180000000000000000000000000000000000000000200000000009316IRENE SIMONE DE SOUZA NOGUEIRA          RUA: NOVE DE JUNHO LOTE 9 QUADRA 18 - IPNOVA IGUACU 26293354NOVA IGUACU    RJUNIAO UMB DOS CULTOS AFRO BRAS    30051810 000029
10231987175000168817800093673    000012915                    000129150000000000000109                     I0112915     30051800000000035003410000017N200218104700000000000103005180000000000000000000000000000000000000000100070614628768CREUZA GOMES DA ROCHA                   RUA ITAPERA, 286 BLOCO 31 APTO 102      VISTA ALEGRE21230500RIO DE JANEIRO RJUNIAO UMB DOS CULTOS AFRO BRAS    30051810 000030
10231987175000168817800093673    000012914                    000129140000000000000109                     I0112914     30051800000000035003410000017N200218104700000000000103005180000000000000000000000000000000000000000100084161973772MARCOS ANTONIO VIEIRA BAPTISTA          RUA CARLOS GONCALVES PENNA, 42          ENGENHO DA R20761330RIO DE JANEIRO RJUNIAO UMB DOS CULTOS AFRO BRAS    30051810 000031
10231987175000168817800093673    000012913                    000129130000000000000109                     I0112913     30051800000000035003410000017N200218104700000000000103005180000000000000000000000000000000000000000100002175979717CLAUDIA PILAR PERES SANTOS DE           RUA JOAO MACIEIRA N 20                  MADUREIRA - 21310090RIO DE JANEIRO RJUNIAO UMB DOS CULTOS AFRO BRAS    30051810 000032
10231987175000168817800093673    000012912                    000129120000000000000109                     I0112912     30051800000000035003410000017N200218104700000000000103005180000000000000000000000000000000000000000100002190466709CARLOS ROBERTO RIBEIRO DA CONC          RUA NOSSA SENHORA DAS GRACAS N 40       MOSELA - PET25675111PETROPOLIS     RJUNIAO UMB DOS CULTOS AFRO BRAS    30051810 000033
10231987175000168817800093673    000012911                    000129110000000000000109                     I0112911     30051800000000035003410000017N200218104700000000000103005180000000000000000000000000000000000000000100053112032772SERGIO RITO FRANCISCO DA SILVA          AV JOAO XXIII RUA 17, 148 CASA 1 E 2    CONJ. NOVO M23565230RIO DE JANEIRO RJUNIAO UMB DOS CULTOS AFRO BRAS    30051810 000034
10231987175000168817800093673    000012910                    000129100000000000000109                     I0112910     30051800000000035003410000017N200218104700000000000103005180000000000000000000000000000000000000000100083697799720ANGELA MARIA FERRAZ FARIAS              RUA LUIS BELTRAO, 1171                  VILA VALQUEI21321230RIO DE JANEIRO RJUNIAO UMB DOS CULTOS AFRO BRAS    30051810 000035
10231987175000168817800093673    000012909                    000129090000000000000109                     I0112909     30051800000000035003410000017N200218104700000000000103005180000000000000000000000000000000000000000200000000009288SAMUEL MUNIZ PORTELA                    LOTEAMENTO CAMPO LINDO LT 13 Q 57       CAMPO LINDO 21745380RIO DE JANEIRO RJUNIAO UMB DOS CULTOS AFRO BRAS    30051810 000036
10231987175000168817800093673    000012908                    000129080000000000000109                     I0112908     30051800000000035003410000017N200218104700000000000103005180000000000000000000000000000000000000000200000000009287THIAGO BARBOSA DA SILVA                 RUA PEDRO DOMINGUES, 52 CASA 1          ENCANTADO - 20756080RIO DE JANEIRO RJUNIAO UMB DOS CULTOS AFRO BRAS    30051810 000037
10231987175000168817800093673    000012907                    000129070000000000000109                     I0112907     30051800000000035003410000017N200218104700000000000103005180000000000000000000000000000000000000000100043194869787JORGE PINHEIRO DE ALMEIDA               RUA CERQUEIRA CESAR N 121 CASA 1        MADUREIRA - 21351070RIO DE JANEIRO RJUNIAO UMB DOS CULTOS AFRO BRAS    30051810 000038
10231987175000168817800093673    000012906                    000129060000000000000109                     I0112906     30051800000000035003410000017N200218104700000000000103005180000000000000000000000000000000000000000100000907631738IDA ANGELICA PEREIRA CALDAS             RUA SILVEIRA LOBO N 43                  CACHAMBI - R20780310RIO DE JANEIRO RJUNIAO UMB DOS CULTOS AFRO BRAS    30051810 000039
10231987175000168817800093673    000012905                    000129050000000000000109                     I0112905     30051800000000035003410000017N200218104700000000000103005180000000000000000000000000000000000000000100074789600734SOLANGE MARTINS                         RUA ITAJIBA N 889                       COSMOS - RIO23060450RIO DE JANEIRO RJUNIAO UMB DOS CULTOS AFRO BRAS    30051810 000040
10231987175000168817800093673    000012904                    000129040000000000000109                     I0112904     30051800000000035003410000017N200218104700000000000103005180000000000000000000000000000000000000000100086506439734DULCILENE EDUARDO                       RUA NOSSA SENHORA DA GUIA N 45          PIABETA - MA25931686MAGE           RJUNIAO UMB DOS CULTOS AFRO BRAS    30051810 000041
10231987175000168817800093673    000012903                    000129030000000000000109                     I0112903     30051800000000035003410000017N200218104700000000000103005180000000000000000000000000000000000000000100075078392734MARCIA HELENA DE AZEVEDO MUNIZ          RUA OSMUNDO PIMENTEL, 70 CASA 1         BRAZ DE PINA00000001RIO DE JANEIRO RJUNIAO UMB DOS CULTOS AFRO BRAS    30051810 000042
10231987175000168817800093673    000012902                    000129020000000000000109                     I0112902     30051800000000035003410000017N200218104700000000000103005180000000000000000000000000000000000000000100002418033732EDSON LUIZ ALVES DE CARVALHO            AVENIDA PORTO SEGURO, 526 ANTIGA RUA 30 LAGOMAR - MA27966870MACAE          RJUNIAO UMB DOS CULTOS AFRO BRAS    30051810 000043
10231987175000168817800093673    000012901                    000129010000000000000109                     I0112901     30051800000000035003410000017N200218104700000000000103005180000000000000000000000000000000000000000100065196171720MARIA DAS GRACAS OLIVEIRA               RUA FRANCISCO MANOEL, 22                PONTO CHIQUE26032835NOVA IGUACU    RJUNIAO UMB DOS CULTOS AFRO BRAS    30051810 000044
10231987175000168817800093673    000012900                    000129000000000000000109                     I0112900     30051800000000035003410000017N200218104700000000000103005180000000000000000000000000000000000000000200000000009240MEYRE CHAVES SOARES                     RUA MARIO HERMES N 40 CASA 6            BENTO RIBEIR21550555RIO DE JANEIRO RJUNIAO UMB DOS CULTOS AFRO BRAS    30051810 000045
10231987175000168817800093673    000012899                    000128990000000000000109                     I0112899     30051800000000035003410000017N200218104700000000000103005180000000000000000000000000000000000000000100059395656700NADIA MARIZA CORREA TRINDADE            RUA JORGE SILVA, 25                     PARQUE SAO J23890000RIO DE JANEIRO RJUNIAO UMB DOS CULTOS AFRO BRAS    30051810 000046
10231987175000168817800093673    000012898                    000128980000000000000109                     I0112898     30051800000000035003410000017N200218104700000000000103005180000000000000000000000000000000000000000100089080475734MARCIA MARIA CORREIA DA SILVA           RUA ALVARES CABRAL, 520                 CACHAMBI - R20780320RIO DE JANEIRO RJUNIAO UMB DOS CULTOS AFRO BRAS    30051810 000047
10231987175000168817800093673    000012897                    000128970000000000000109                     I0112897     30051800000000035003410000017N200218104700000000000103005180000000000000000000000000000000000000000100058098445704ARLETE DA SILVA BARBOSA FRANCO          RUA DOUTOR MUNIZ, 71                    ROCHA SOBRIN26130020BELFORD ROXO   RJUNIAO UMB DOS CULTOS AFRO BRAS    30051810 000048
10231987175000168817800093673    000012896                    000128960000000000000109                     I0112896     30051800000000035003410000017N200218104700000000000103005180000000000000000000000000000000000000000100057316600772ESTELA FERREIRA                         AVENIDA BORIS, 321                      MUTONDO  - S24422730SAO GONCALO    RJUNIAO UMB DOS CULTOS AFRO BRAS    30051810 000049
10231987175000168817800093673    000012895                    000128950000000000000109                     I0112895     30051800000000035003410000017N200218104700000000000103005180000000000000000000000000000000000000000100007346014766LUCIANO FREIRE DE FRANCA                AV. AMARO CAVALCANTE, 2283 CASA 5       ENGENHO DE D20735042RIO DE JANEIRO RJUNIAO UMB DOS CULTOS AFRO BRAS    30051810 000050
10231987175000168817800093673    000012894                    000128940000000000000109                     I0112894     30051800000000035003410000017N200218104700000000000103005180000000000000000000000000000000000000000100044631154772LINDOMAR SOARES BERNARDO                RUA FEIRA DE SANTANA, LOTE 8 QUADRA 17  PARQUE NOVO 25585100SAO JOAO DE MERRJUNIAO UMB DOS CULTOS AFRO BRAS    30051810 000051
10231987175000168817800093673    000012893                    000128930000000000000109                     I0112893     30051800000000035003410000017N200218104700000000000103005180000000000000000000000000000000000000000100005721435755ALEX ARAUJO BRAGA                       RUA MARTE, 685 CASA 2                   MESQUITA - N26240290NOVA IGUACU    RJUNIAO UMB DOS CULTOS AFRO BRAS    30051810 000052
10231987175000168817800093673    000012892                    000128920000000000000109                     I0112892     30051800000000035003410000017N200218104700000000000103005180000000000000000000000000000000000000000100050942490763ANTONIO PAULO TRABACHINI                RUA DO CATETE, 347 LOJA 8               CATETE      22271100RIO DE JANEIRO RJUNIAO UMB DOS CULTOS AFRO BRAS    30051810 000053
10231987175000168817800093673    000012891                    000128910000000000000109                     I0112891     30051800000000035003410000017N200218104700000000000103005180000000000000000000000000000000000000000100001145934773ELENICE DE SOUZA SILVA ARRUDA           RUA SEVERIANO MONTEIRO, 271 CASA 3      VISTA ALEGRE21235620RIO DE JANEIRO RJUNIAO UMB DOS CULTOS AFRO BRAS    30051810 000054
10231987175000168817800093673    000012890                    000128900000000000000109                     I0112890     30051800000000035003410000017N200218104700000000000103005180000000000000000000000000000000000000000100021207275700GEORGETE MARIA SILVA DE JESUS           RUA BECO DO MIJANCAH, 30                PRAIA DA BRI23028696PEDRA DE GUARATRJUNIAO UMB DOS CULTOS AFRO BRAS    30051810 000055
10231987175000168817800093673    000012889                    000128890000000000000109                     I0112889     30051800000000035003410000017N200218104700000000000103005180000000000000000000000000000000000000000100093719744787SERGIO PEREIRA FRAGA                    RUA JURUBAIBA, 163 FUNDOS               HONORIO GURG21555170RIO DE JANEIRO RJUNIAO UMB DOS CULTOS AFRO BRAS    30051810 000056
10231987175000168817800093673    000012888                    000128880000000000000109                     I0112888     30051800000000035003410000017N200218104700000000000103005180000000000000000000000000000000000000000100031410715787LUZIA ELISIARIA DE FREITAS              RUA EXPEDICIONARIO JOSE AMARO, 84       VILA SAO LUI25065090DUQUE DE CAXIASRJUNIAO UMB DOS CULTOS AFRO BRAS    30051810 000057
10231987175000168817800093673    000012887                    000128870000000000000109                     I0112887     30051800000000035003410000017N200218104700000000000103005180000000000000000000000000000000000000000100001256782742VANDA BARBOSA BASTOS                    RUA CERES, 1058                         BANGU - RIO 21862070RIO DE JANEIRO RJUNIAO UMB DOS CULTOS AFRO BRAS    30051810 000058
10231987175000168817800093673    000012886                    000128860000000000000109                     I0112886     30051800000000035003410000017N200218104700000000000103005180000000000000000000000000000000000000000100011105998703FABRICIO SILVEIRA DE SOUZA              RUA: JOAO EVANGELISTA DE CARVALHO Nº 21CENTRO - NIL26520500NILOPOLIS      RJUNIAO UMB DOS CULTOS AFRO BRAS    30051810 000059
10231987175000168817800093673    000012885                    000128850000000000000109                     I0112885     30051800000000035003410000017N200218104700000000000103005180000000000000000000000000000000000000000100012470639840RICARDO DE OLIVEIRA                     RUA FELINTO MARQUES CERQUEIRA, 270 - CAPCAPUCHINHOS 44076040FEIRA DE SANTANBAUNIAO UMB DOS CULTOS AFRO BRAS    30051810 000060
10231987175000168817800093673    000012884                    000128840000000000000109                     I0112884     30051800000000035003410000017N200218104700000000000103005180000000000000000000000000000000000000000100058781887704DENORIDES DE ALMEIDA                    RUA GOIANIA, 802                        VILAR NOVO -26116590BELFORD ROXO   RJUNIAO UMB DOS CULTOS AFRO BRAS    30051810 000061
10231987175000168817800093673    000012883                    000128830000000000000109                     I0112883     30051800000000035003410000017N200218104700000000000103005180000000000000000000000000000000000000000100035838493704CELMO JOSE DE SOUZA                     RUA DA CONCEICAO, 188 SALA 1204 A B     CENTRO - NIT24020087NITEROI        RJUNIAO UMB DOS CULTOS AFRO BRAS    30051810 000062
10231987175000168817800093673    000012882                    000128820000000000000109                     I0112882     30051800000000035003410000017N200218104700000000000103005180000000000000000000000000000000000000000100067267258753RITA DE CASSIA DIACOVO PELLITO          RUA ANDRE AZEVEDO, 87 CASA 101 BLOCO 25 OLARIA  - RI21021480RIO DE JANEIRO RJUNIAO UMB DOS CULTOS AFRO BRAS    30051810 000063
10231987175000168817800093673    000012881                    000128810000000000000109                     I0112881     30051800000000035003410000017N200218104700000000000103005180000000000000000000000000000000000000000100008501649740ADILSON PEREIRA DIAS                    RUA ALBERTO MARTIRES ASTH, 260          SAO GERALDO 28630485NOVA FRIBURGO  RJUNIAO UMB DOS CULTOS AFRO BRAS    30051810 000064
10231987175000168817800093673    000012880                    000128800000000000000109                     I0112880     30051800000000035003410000017N200218104700000000000103005180000000000000000000000000000000000000000100099225158734MARIA MAGALI DE OLIVEIRA SOUZA          RUA PIRACAIA, 756 FUNDOS                MARECHAL HER21555260RIO DE JANEIRO RJUNIAO UMB DOS CULTOS AFRO BRAS    30051810 000065
10231987175000168817800093673    000012879                    000128790000000000000109                     I0112879     30051800000000035003410000017N200218104700000000000103005180000000000000000000000000000000000000000200000000009079AGUINALDO DE PAULA BORGES               RUA ARNALDO MURINELI, 841 CASA 3        ANCHIETA/RJ 21630060RIO DE JANEIRO RJUNIAO UMB DOS CULTOS AFRO BRAS    30051810 000066
10231987175000168817800093673    000012878                    000128780000000000000109                     I0112878     30051800000000035003410000017N200218104700000000000103005180000000000000000000000000000000000000000100088341534720RAIMUNDA BERNADINA DE OLIVEIRA          ESTRADA DA GAVEA - TRAVESSA UNIAO, 29 RUGAVEA - RIO 22451530RIO DE JANEIRO RJUNIAO UMB DOS CULTOS AFRO BRAS    30051810 000067
10231987175000168817800093673    000012877                    000128770000000000000109                     I0112877     30051800000000035003410000017N200218104700000000000103005180000000000000000000000000000000000000000100091088003753CLARA RIBEIRO FERNANDES                 R:ITACURUCA,213                         MARAMBAIA- S24724410NITEROI        RJUNIAO UMB DOS CULTOS AFRO BRAS    30051810 000068
10231987175000168817800093673    000012876                    000128760000000000000109                     I0112876     30051800000000035003410000017N200218104700000000000103005180000000000000000000000000000000000000000100015197047712MARCELLE SOARES ZIMBRAO                 RUA: NOSSA SENHORA DAS GRACAS Nº 11    MOSELA - PET25675111PETROPOLIS     RJUNIAO UMB DOS CULTOS AFRO BRAS    30051810 000069
10231987175000168817800093673    000012875                    000128750000000000000109                     I0112875     30051800000000035003410000017N200218104700000000000103005180000000000000000000000000000000000000000100085725730700MARIA LUCIA DA SILVA BORGES             RUA CACIPORE, 1273                      JARDIM OLAVO25036040DUQUE DE CAXIASRJUNIAO UMB DOS CULTOS AFRO BRAS    30051810 000070
10231987175000168817800093673    000012874                    000128740000000000000109                     I0112874     30051800000000035003410000017N200218104700000000000103005180000000000000000000000000000000000000000100046530843787EDITH DA SILVA SOUZA                    RUA: OLIVEIRA MELO                      CORDOVIL    21250540RIO DE JANEIRO RJUNIAO UMB DOS CULTOS AFRO BRAS    30051810 000071
10231987175000168817800093673    000012873                    000128730000000000000109                     I0112873     30051800000000035003410000017N200218104700000000000103005180000000000000000000000000000000000000000100002248004770ROSANE ALVES DE AZEVEDO                 RUA W, 14 LOTE 180 CASA 1               LAGOMAR - MA27970130MACAE          RJUNIAO UMB DOS CULTOS AFRO BRAS    30051810 000072
10231987175000168817800093673    000012872                    000128720000000000000109                     I0112872     30051800000000035003410000017N200218104700000000000103005180000000000000000000000000000000000000000100011778537790MARIVONE ANTONIA DOS SANTOS             O MESMO                                 O MESMO     26031512NOVA IGUACU    RJUNIAO UMB DOS CULTOS AFRO BRAS    30051810 000073
10231987175000168817800093673    000012871                    000128710000000000000109                     I0112871     30051800000000035003410000017N200218104700000000000103005180000000000000000000000000000000000000000100000238705757ANGELA DA MOTTA NUNES SILVA             RUA: RIACHO DOCE                        OSVALDO CRUZ21340340RIO DE JANEIRO RJUNIAO UMB DOS CULTOS AFRO BRAS    30051810 000074
10231987175000168817800093673    000012870                    000128700000000000000109                     I0112870     30051800000000035003410000017N200218104700000000000103005180000000000000000000000000000000000000000100045910303787PAULO ROBERTO DE OLIVEIRA DRUB          RUA ARGEMIRO DE HUNGRIA MACHADO, 195    GUADALUPE - 21670290RIO DE JANEIRO RJUNIAO UMB DOS CULTOS AFRO BRAS    30051810 000075
10231987175000168817800093673    000012869                    000128690000000000000109                     I0112869     30051800000000035003410000017N200218104700000000000103005180000000000000000000000000000000000000000100085901512715ZENILDA MACHADO VICENTE LEITE           RUA VILLAGE IMPERIAL, 194               PARQUE MAMBU23954270ANGRA DOS REIS RJUNIAO UMB DOS CULTOS AFRO BRAS    30051810 000076
10231987175000168817800093673    000012868                    000128680000000000000109                     I0112868     30051800000000035003410000017N200218104700000000000103005180000000000000000000000000000000000000000100003617355706INAIA DE MACEDO SANTOS                  TRAVESSA PARAIBA DO SUL, 35             NILOPOLIS - 26525470RIO DE JANEIRO RJUNIAO UMB DOS CULTOS AFRO BRAS    30051810 000077
10231987175000168817800093673    000012867                    000128670000000000000109                     I0112867     30051800000000035003410000017N200218104700000000000103005180000000000000000000000000000000000000000100063607379734FATIMA CONCEICAO GONCALVES DA           RUA: AMANDIU Nº 63                     IRAJA - RIO 21371440RIO DE JANEIRO RJUNIAO UMB DOS CULTOS AFRO BRAS    30051810 000078
10231987175000168817800093673    000012866                    000128660000000000000109                     I0112866     30051800000000035003410000017N200218104700000000000103005180000000000000000000000000000000000000000100085194557787CELIA MARIA FERNANDES DE CASTR          RUA IRAPIRANGA, 98                      ROCHA MIRAND21540710RIO DE JANEIRO RJUNIAO UMB DOS CULTOS AFRO BRAS    30051810 000079
10231987175000168817800093673    000012865                    000128650000000000000109                     I0112865     30051800000000035003410000017N200218104700000000000103005180000000000000000000000000000000000000000100055224644704VALERIA DOS SANTOS NEVES                RUA FRANCISCA ZIEZE, 71                 PILARES - RI20750040RIO DE JANEIRIORJUNIAO UMB DOS CULTOS AFRO BRAS    30051810 000080
10231987175000168817800093673    000012864                    000128640000000000000109                     I0112864     30051800000000035003410000017N200218104700000000000103005180000000000000000000000000000000000000000100026376253768MARIA DE LOURDES DA SILVA FERN          RUA: ESTUDANTE PAULINO DURVAL, QUADRA 3 MAGE - RIO D25931882MAGE           RJUNIAO UMB DOS CULTOS AFRO BRAS    30051810 000081
10231987175000168817800093673    000012863                    000128630000000000000109                     I0112863     30051800000000035003410000017N200218104700000000000103005180000000000000000000000000000000000000000100055365795768YEDA BARROS DE AZEVEDO                  RUA SESSENTA E NOVE QUADRA, 332 LOTE 43 JARDIM ATLAN24910000MARICA         RJUNIAO UMB DOS CULTOS AFRO BRAS    30051810 000082
10231987175000168817800093673    000012862                    000128620000000000000109                     I0112862     30051800000000035003410000017N200218104700000000000103005180000000000000000000000000000000000000000100068567855772ZAILDA MASCARENHAS DOS SANTOS           RUA FRANCISCO ANTONIO NASCIMENTO, 57    MIGUEL COUTO26070467RIO DE JANEIRO RJUNIAO UMB DOS CULTOS AFRO BRAS    30051810 000083
10231987175000168817800093673    000012861                    000128610000000000000109                     I0112861     30051800000000035003410000017N200218104700000000000103005180000000000000000000000000000000000000000200000000008928GILMAR GAMMARO CARVALHO                 RUA GENERAL SEARA, 189                  CAROLINA - D25060010DUQUE CAXIAS   RJUNIAO UMB DOS CULTOS AFRO BRAS    30051810 000084
10231987175000168817800093673    000012860                    000128600000000000000109                     I0112860     30051800000000035003410000017N200218104700000000000103005180000000000000000000000000000000000000000100079583490768ZILDA VICENTE DA SILVA                  RUA MARIA COSTA CORREA, 129 QUADRA E    APOLO 2 - IT24800000ITABORAI       RJUNIAO UMB DOS CULTOS AFRO BRAS    30051810 000085
10231987175000168817800093673    000012859                    000128590000000000000109                     I0112859     30051800000000035003410000017N200218104700000000000103005180000000000000000000000000000000000000000100005383774700VILMA MACEDO COIMBRA DOS SANTO          RUA TOQUIO, 571                         AGOSTINHO PO25545211SAO JOAO DE MERRJUNIAO UMB DOS CULTOS AFRO BRAS    30051810 000086
10231987175000168817800093673    000012858                    000128580000000000000109                     I0112858     30051800000000035003410000017N200218104700000000000103005180000000000000000000000000000000000000000100012201569738PAULO CELSO MACHADO JUNIOR              RUA SEIS LOTE 26 - CHACARA INOA         MARICA - RIO24900000MARICA         RJUNIAO UMB DOS CULTOS AFRO BRAS    30051810 000087
10231987175000168817800093673    000012857                    000128570000000000000109                     I0112857     30051800000000035003410000017N200218104700000000000103005180000000000000000000000000000000000000000100007967809785FERNANDA PAULA SANTA ANNA HERN          TRAVESSA CHAFI CHAIA, 95                CAMPO GRANDE23052200RIO DE JANEIRO RJUNIAO UMB DOS CULTOS AFRO BRAS    30051810 000088
10231987175000168817800093673    000012856                    000128560000000000000109                     I0112856     30051800000000035003410000017N200218104700000000000103005180000000000000000000000000000000000000000100009431078732LUCIA OLIVEIRA BONIFACIO                RUA NINA RIBEIRO, 67 FUNDOS             PAVUNA - RJ 21520290RIO DE JANEIRO RJUNIAO UMB DOS CULTOS AFRO BRAS    30051810 000089
10231987175000168817800093673    000012855                    000128550000000000000109                     I0112855     30051800000000035003410000017N200218104700000000000103005180000000000000000000000000000000000000000100093473095753ALEXANDER NUNES PICANCO                 RUA REGISTRO, 315                       SENADOR CAMA21832270RIO DE JANEIRO RJUNIAO UMB DOS CULTOS AFRO BRAS    30051810 000090
10231987175000168817800093673    000012854                    000128540000000000000109                     I0112854     30051800000000035003410000017N200218104700000000000103005180000000000000000000000000000000000000000100001942477759VILMA MARIA FARIA                       RUA CINQUENTA E SEIS, 473 QUADRA 50     SEPETIBA - R23520660RIO DE JANEIRO RJUNIAO UMB DOS CULTOS AFRO BRAS    30051810 000091
10231987175000168817800093673    000012853                    000128530000000000000109                     I0112853     30051800000000035003410000017N200218104700000000000103005180000000000000000000000000000000000000000100009507261761RODRIGO FELIX DA SILVA                  RUA GENERAL PINTO AMANDO, 231 APTO 302  HONORIO GURG21511330RIO DE JANEIRO RJUNIAO UMB DOS CULTOS AFRO BRAS    30051810 000092
10231987175000168817800093673    000012852                    000128520000000000000109                     I0112852     30051800000000035003410000017N200218104700000000000103005180000000000000000000000000000000000000000200000000008849ANDREIA DANGELA DE ANDRADE LIM          RUA BORGES MONTEIRO, 100                HIGIENOPOLIS21051460RIO DE JANEIRO RJUNIAO UMB DOS CULTOS AFRO BRAS    30051810 000093
10231987175000168817800093673    000012851                    000128510000000000000109                     I0112851     30051800000000035003410000017N200218104700000000000103005180000000000000000000000000000000000000000100003535090784SOLANGE PEREIRA DA SILVA                RUA MANUEL MIRANDA, 226                 ENGENHO NOVO20950300RIO DE JANEIRO RJUNIAO UMB DOS CULTOS AFRO BRAS    30051810 000094
10231987175000168817800093673    000012850                    000128500000000000000109                     I0112850     30051800000000035003410000017N200218104700000000000103005180000000000000000000000000000000000000000100036352624715DEYSE LUZIA DE FREITA BRITTO            RUA DOIS LOTE 13 QUADRA 15 - CHACARAS DEINOA - MARIC24900000INOA - MARICA  RJUNIAO UMB DOS CULTOS AFRO BRAS    30051810 000095
10231987175000168817800093673    000012849                    000128490000000000000109                     I0112849     30051800000000035003410000017N200218104700000000000103005180000000000000000000000000000000000000000100038719444753JOAQUIM ROBERTO TRINDADE MONTE          RUA TAQUARI N 192 CASA 2                BRAS DE PINA21215540RIO DE JANEIRO RJUNIAO UMB DOS CULTOS AFRO BRAS    30051810 000096
10231987175000168817800093673    000012848                    000128480000000000000109                     I0112848     30051800000000035003410000017N200218104700000000000103005180000000000000000000000000000000000000000100072879321753ANA MARIA AGUIAR FERREIRA               RUA BOLIVAR CARVALHO, LOTE 7 QUADRA 46 CJARDIM METRO25575270SAO JOAO DE MERRJUNIAO UMB DOS CULTOS AFRO BRAS    30051810 000097
10231987175000168817800093673    000012847                    000128470000000000000109                     I0112847     30051800000000035003410000017N200218104700000000000103005180000000000000000000000000000000000000000100011193274745WELINGTON PEDRO DOS SANTOS GOM          RUA ARAUJO ROZO, 305 FUNDOS             ANCHIETA - R21635100RIO DE JANEIRO RJUNIAO UMB DOS CULTOS AFRO BRAS    30051810 000098
10231987175000168817800093673    000012846                    000128460000000000000109                     I0112846     30051800000000035003410000017N200218104700000000000103005180000000000000000000000000000000000000000100099025078753EVA DE OLIVEIRA LOPES                   ESTRADA SANTO ANTONIO Nº 8             CARTA ANISTI26455280RIO DE JANEIRO RJUNIAO UMB DOS CULTOS AFRO BRAS    30051810 000099
10231987175000168817800093673    000012845                    000128450000000000000109                     I0112845     30051800000000035003410000017N200218104700000000000103005180000000000000000000000000000000000000000100005333959765CRISTIANE DA CONCEICAO PACHECO          RUA JOSE SEABRA, 6                      PILAR - DUQU25233001DUQUE DE CAXIASRJUNIAO UMB DOS CULTOS AFRO BRAS    30051810 000100
10231987175000168817800093673    000012844                    000128440000000000000109                     I0112844     30051800000000035003410000017N200218104700000000000103005180000000000000000000000000000000000000000100067053424715HELENA DE FATIMA MENDES MARQUE          RUA IRANI, 182                          PENHA - RJ  21020200RIO DE JANEIRO RJUNIAO UMB DOS CULTOS AFRO BRAS    30051810 000101
10231987175000168817800093673    000012843                    000128430000000000000109                     I0112843     30051800000000035003410000017N200218104700000000000103005180000000000000000000000000000000000000000100080499306724ANA CLAUDIA DE SOUZA RODRIGUES          RUA CRAVEIRO DE SA,183                  PARADA DE LU21250490RIO DE JANEIRO RJUNIAO UMB DOS CULTOS AFRO BRAS    30051810 000102
10231987175000168817800093673    000012842                    000128420000000000000109                     I0112842     30051800000000035003410000017N200218104700000000000103005180000000000000000000000000000000000000000100002181028796EMERSON DIAS DA COSTA                   RUA PARA, LOTE 10 QUADRA 31             VALE DAS MAN26175370BELFORD ROXO   RJUNIAO UMB DOS CULTOS AFRO BRAS    30051810 000103
10231987175000168817800093673    000012841                    000128410000000000000109                     I0112841     30051800000000035003410000017N200218104700000000000103005180000000000000000000000000000000000000000100089826930768MARIA DAS DORES SILVA                   RUA JORDAO, 805 CASA 40                 TANQUE - RIO22725549RIO DE JANEIRO RJUNIAO UMB DOS CULTOS AFRO BRAS    30051810 000104
10231987175000168817800093673    000012840                    000128400000000000000109                     I0112840     30051800000000035003410000017N200218104700000000000103005180000000000000000000000000000000000000000100008861162797MARCIO ARAUJO DE MELO SOUZA             RUA GERALDO LOURENCO, 70 - RIACHAO      JARDIM ROMA 26279325NOVA IGUACU    RJUNIAO UMB DOS CULTOS AFRO BRAS    30051810 000105
10231987175000168817800093673    000012839                    000128390000000000000109                     I0112839     30051800000000035003410000017N200218104700000000000103005180000000000000000000000000000000000000000100050534173772IARA FRANCISCO                          RUA BARAO DE MELGACO, 279 FUNDOS        CORDOVIL - R21250320RIO DE JANEIRO RJUNIAO UMB DOS CULTOS AFRO BRAS    30051810 000106
10231987175000168817800093673    000012838                    000128380000000000000109                     I0112838     30051800000000035003410000017N200218104700000000000103005180000000000000000000000000000000000000000200000000008601CARLOS ALBERTO PORTO LEAL               RUA FOSCA, 55                           POSSE - NOVA26020015NOVA IGUACU    RJUNIAO UMB DOS CULTOS AFRO BRAS    30051810 000107
10231987175000168817800093673    000012837                    000128370000000000000109                     I0112837     30051800000000035003410000017N200218104700000000000103005180000000000000000000000000000000000000000100051192055772VALNEI VICENTE                          RUA REGINALDO, LOTE 10 E LOTE 11        CENTRO - BEL26173350BELFORD ROXO   RJUNIAO UMB DOS CULTOS AFRO BRAS    30051810 000108
10231987175000168817800093673    000012836                    000128360000000000000109                     I0112836     30051800000000035003410000017N200218104700000000000103005180000000000000000000000000000000000000000100007650422747SIDNEI DO VALE FELISBERTO               RUA DESEMBARGADOR MACHADO GUIMARAES, 90 JARDIM TROPI26011110NOVA IGUACU    RJUNIAO UMB DOS CULTOS AFRO BRAS    30051810 000109
10231987175000168817800093673    000012835                    000128350000000000000109                     I0112835     30051800000000035003410000017N200218104700000000000103005180000000000000000000000000000000000000000100076658961700BEATRIZ DIAS DO NASCIMENTO              RUA SAO BRUNO N 55 APT 301              PENHA - RIO 21021160RIO DE JANEIRO RJUNIAO UMB DOS CULTOS AFRO BRAS    30051810 000110
10231987175000168817800093673    000012834                    000128340000000000000109                     I0112834     30051800000000035003410000017N200218104700000000000103005180000000000000000000000000000000000000000100036257869749IRANI DA SILVA CORREA                   RUA JATAIZINHO, 11 - JARDIM ORIENTAL    SENADOR VASC23012170RIO DE JANEIRO RJUNIAO UMB DOS CULTOS AFRO BRAS    30051810 000111
10231987175000168817800093673    000012833                    000128330000000000000109                     I0112833     30051800000000035003410000017N200218104700000000000103005180000000000000000000000000000000000000000100062783203715SORAYA BARROS PINHEIRO                  RUA SANTOS TITARA, 45 APTO 115          TODOS SANTOS20735240RIO DE JANEIRO RJUNIAO UMB DOS CULTOS AFRO BRAS    30051810 000112
10231987175000168817800093673    000012832                    000128320000000000000109                     I0112832     30051800000000035003410000017N200218104700000000000103005180000000000000000000000000000000000000000100001457331730MIRIAN ANSELMO DE SOUZA SANTOS          RUA CRISTIANO OTONI, LT 25 QD 1         ALMERINDA - 24740004SAO GONCALO    RJUNIAO UMB DOS CULTOS AFRO BRAS    30051810 000113
10231987175000168817800093673    000012831                    000128310000000000000109                     I0112831     30051800000000035003410000017N200218104700000000000103005180000000000000000000000000000000000000000100058984178772ELIZABETH RIBEIRO VALENTE FARI          RUA VASCO DA GAMA N 1409 - PARQUE ESTORIPARQUE ESTOR26063190NOVA IGUACU    RJUNIAO UMB DOS CULTOS AFRO BRAS    30051810 000114
10231987175000168817800093673    000012830                    000128300000000000000109                     I0112830     30051800000000035003410000017N200218104700000000000103005180000000000000000000000000000000000000000100050775561720LEANDRO MECENAS DA CUNHA                RUA GUATOS N 34                         PARQUE SAO C26051640NOVA IGUACU    RJUNIAO UMB DOS CULTOS AFRO BRAS    30051810 000115
10231987175000168817800093673    000012829                    000128290000000000000109                     I0112829     30051800000000035003410000017N200218104700000000000103005180000000000000000000000000000000000000000100045619581772EDELZUITA PESSOA DA SILVA               RUA DONA JULIETA N 55 - MIGUEL COUTO    MIGUEL COUTO26147160NOVA IGUACU    RJUNIAO UMB DOS CULTOS AFRO BRAS    30051810 000116
10231987175000168817800093673    000012828                    000128280000000000000109                     I0112828     30051800000000035003410000017N200218104700000000000103005180000000000000000000000000000000000000000100092336000768DIVA PINTO ROMUALDO                     RUA PARAISO QUADRA 129 LOTE 26          JARDIM CABUC26357140NOVA IGUACU    RJUNIAO UMB DOS CULTOS AFRO BRAS    30051810 000117
10231987175000168817800093673    000012827                    000128270000000000000109                     I0112827     30051800000000035003410000017N200218104700000000000103005180000000000000000000000000000000000000000100002603000713DEBORA DOS SANTOS GOES                  O MESMO                                 O MESMO     25268240DUQUE DE CAXIASRJUNIAO UMB DOS CULTOS AFRO BRAS    30051810 000118
10231987175000168817800093673    000012826                    000128260000000000000109                     I0112826     30051800000000035003410000017N200218104700000000000103005180000000000000000000000000000000000000000100084703741768LINDALVA PEREIRA DE SOUZA               ESTRADA BARRO VERMELHO, 1366            ROCHA MIRAND21540499RIO DE JANEIRO RJUNIAO UMB DOS CULTOS AFRO BRAS    30051810 000119
10231987175000168817800093673    000012825                    000128250000000000000109                     I0112825     30051800000000035003410000017N200218104700000000000103005180000000000000000000000000000000000000000100007295283757DULCE DOS SANTOS MONTEIRO               AVENIDA ESTACIO DE SA LOTE 32 QUADRA 17 PARQUE NOVO 25585000SAO JOAO DE MERRJUNIAO UMB DOS CULTOS AFRO BRAS    30051810 000120
10231987175000168817800093673    000012824                    000128240000000000000109                     I0112824     30051800000000035003410000017N200218104700000000000103005180000000000000000000000000000000000000000100099272946700MARCOS ANTONIO DA SILVA                 RUA PIACAVA N 100                       VILA MARILIA26040210NOVA IGUACU    RJUNIAO UMB DOS CULTOS AFRO BRAS    30051810 000121
10231987175000168817800093673    000012823                    000128230000000000000109                     I0112823     30051800000000035003410000017N200218104700000000000103005180000000000000000000000000000000000000000100009400587740PAULO JORGE DA SILVA ABDALA             RUA PIRATININGA, LOTE 1 QUADRA 8        PQUE SAO BER26165435BELFORD ROXO   RJUNIAO UMB DOS CULTOS AFRO BRAS    30051810 000122
10231987175000168817800093673    000012822                    000128220000000000000109                     I0112822     30051800000000035003410000017N200218104700000000000103005180000000000000000000000000000000000000000100063553830778WILLIAM RODRIGUES                       ESTRADA OTEIRO SANTO, 1022 CASA 3       TAQUARA - RI22713169RIO DE JANEIRO RJUNIAO UMB DOS CULTOS AFRO BRAS    30051810 000123
10231987175000168817800093673    000012821                    000128210000000000000109                     I0112821     30051800000000035003410000017N200218104700000000000103005180000000000000000000000000000000000000000200000000008438MARIA LEOPOLDINO DE MATOS               RUA URUCURANA N 177                     BOA ESPERANC26143140NOVA IGUACU    RJUNIAO UMB DOS CULTOS AFRO BRAS    30051810 000124
10231987175000168817800093673    000012820                    000128200000000000000109                     I0112820     30051800000000035003410000017N200218104700000000000103005180000000000000000000000000000000000000000200000000008430ALESSANDRO SIQUEIRA ALVES               RUA CARLOTA, 241                        VILA OMEGA -26053350NOVA IGUACU    RJUNIAO UMB DOS CULTOS AFRO BRAS    30051810 000125
10231987175000168817800093673    000012819                    000128190000000000000109                     I0112819     30051800000000035003410000017N200218104700000000000103005180000000000000000000000000000000000000000100007485965778GRACIETE LEAO TANGUA                    RUA ROBERTO RANGEL LIMA LOTE 16 QUADRA GMAURI - PIAB25915000MAGE           RJUNIAO UMB DOS CULTOS AFRO BRAS    30051810 000126
10231987175000168817800093673    000012818                    000128180000000000000109                     I0112818     30051800000000035003410000017N200218104700000000000103005180000000000000000000000000000000000000000100038370999700JULIO ALEXANDRE FERREIRA                RUA BARAO DE JACUI, 254 CASA 16 FUNDOS  OSWALDO CRUZ21550310RIO DE JANEIRO RJUNIAO UMB DOS CULTOS AFRO BRAS    30051810 000127
10231987175000168817800093673    000012817                    000128170000000000000109                     I0112817     30051800000000035003410000017N200218104700000000000103005180000000000000000000000000000000000000000100001934622737ZENY MIRANDA DE SOUZA                   RUA ADRIANA, 63 - RECANTO SANTO ANTONIO SANTA RITA -26051130NOVA IGUACU    RJUNIAO UMB DOS CULTOS AFRO BRAS    30051810 000128
10231987175000168817800093673    000012816                    000128160000000000000109                     I0112816     30051800000000035003410000017N200218104700000000000103005180000000000000000000000000000000000000000200000000008409ESPEDITA DA SILVA SANTOS                AVENIDA CASTELO BRANCO, LOTE 3 QUADRA 83PAQ.ELDORADO25243570DUQUE DE CAXIASRJUNIAO UMB DOS CULTOS AFRO BRAS    30051810 000129
10231987175000168817800093673    000012815                    000128150000000000000109                     I0112815     30051800000000035003410000017N200218104700000000000103005180000000000000000000000000000000000000000100000382904729EMERSON DOS SANTOS FIDELIS              RUA SEVERINO SANTOS, LOTE 20 QUADRA P   SARACURUNA -25212668DUQUE DE CAXIASRJUNIAO UMB DOS CULTOS AFRO BRAS    30051810 000130
10231987175000168817800093673    000012814                    000128140000000000000109                     I0112814     30051800000000035003410000017N200218104700000000000103005180000000000000000000000000000000000000000100062792920700LUIZ CESAR DE OLIVEIRA                  RUA PEREIRA DE FIGUEIREDO, 627          OSWALDO CRUZ21340030RIO DE JANEIRO RJUNIAO UMB DOS CULTOS AFRO BRAS    30051810 000131
10231987175000168817800093673    000012813                    000128130000000000000109                     I0212813     30051800000000035003410000017N200218104700000000000103005180000000000000000000000000000000000000000100001153058740ALEXANDRE DE ALMEIDA ESPINDOLA          ESTRADA DO CAMBOATA N 2966 - N 7 QUADRA GUADALUPE - 21660000RIO DE JANEIRO RJUNIAO UMB DOS CULTOS AFRO BRAS    30051810 000132
10231987175000168817800093673    000012812                    000128120000000000000109                     I0112812     30051800000000035003410000017N200218104700000000000103005180000000000000000000000000000000000000000100002978000783FABIO PINTO MANTUANO                    LAURA MARIA PINTO MANTUANO - MAE        CARTA ANISTI24900000MARICA         RJUNIAO UMB DOS CULTOS AFRO BRAS    30051810 000133
10231987175000168817800093673    000012811                    000128110000000000000109                     I0112811     30051800000000035003410000017N200218104700000000000103005180000000000000000000000000000000000000000200000000004475POJUCAM LOPES TOLEDO                    RUA LUIS CAPUTI, 469                    CENTRO -VASS27700000VASSOURAS      RJUNIAO UMB DOS CULTOS AFRO BRAS    30051810 000134
10231987175000168817800093673    000012810                    000128100000000000000109                     I0112810     30051800000000035003410000017N200218104700000000000103005180000000000000000000000000000000000000000100001117379744VERA LUCIA SOUZA COUTO                  RUA RUDY ALBERTO, 868 - IMPERADOR       MAUA - MAGE 25900000MAGE           RJUNIAO UMB DOS CULTOS AFRO BRAS    30051810 000135
10231987175000168817800093673    000012809                    000128090000000000000109                     I0112809     30051800000000035003410000017N200218104700000000000103005180000000000000000000000000000000000000000200000000008299EMANUELA DE OLIVEIRA CRUZ ROSA          O MESMO                                 O MESMO     25260230DUQUE DE CAXIASRJUNIAO UMB DOS CULTOS AFRO BRAS    30051810 000136
10231987175000168817800093673    000012808                    000128080000000000000109                     I0112808     30051800000000035003410000017N200218104700000000000103005180000000000000000000000000000000000000000200000000008294MARIA ALICE MANOEL DO VALE              RUA B LOTE 9 QUADRA 3 - JARDIM MARAMBAIAJARDIM MARAM24800000ITABORAI       RJUNIAO UMB DOS CULTOS AFRO BRAS    30051810 000137
10231987175000168817800093673    000012807                    000128070000000000000109                     I0112807     30051800000000035003410000017N200218104700000000000103005180000000000000000000000000000000000000000100081051387787ROSA AMELIA COSENZA                     RUA MARIA DA GLORIA BALTAR N 48         NOVA CIDADE 26535290NILOPOLIS      RJUNIAO UMB DOS CULTOS AFRO BRAS    30051810 000138
10231987175000168817800093673    000012806                    000128060000000000000109                     I0112806     30051800000000035003410000017N200218104700000000000103005180000000000000000000000000000000000000000100004501217715JOSE DIOMEDES DO PATROCINIO NE          RUA DOUTOR LAUREANO N 250 - VILA SAO LUIVILA SAO LUI25060220DUQUE DE CAXIASRJUNIAO UMB DOS CULTOS AFRO BRAS    30051810 000139
10231987175000168817800093673    000012805                    000128050000000000000109                     I0112805     30051800000000035003410000017N200218104700000000000103005180000000000000000000000000000000000000000100004753333736ELAINE DOS SANTOS FONTES ARAUJ          O MESMO                                 O MESMO     21775090RIO DE JANEIRO RJUNIAO UMB DOS CULTOS AFRO BRAS    30051810 000140
10231987175000168817800093673    000012804                    000128040000000000000109                     I0112804     30051800000000035003410000017N200218104700000000000103005180000000000000000000000000000000000000000100007342538779DAVID GARDINA FERREIRA LUCIO            O MESMO                                 O MESMO     25550531SAO JOAO DE MERRJUNIAO UMB DOS CULTOS AFRO BRAS    30051810 000141
10231987175000168817800093673    000012803                    000128030000000000000109                     I0112803     30051800000000035003410000017N200218104700000000000103005180000000000000000000000000000000000000000100003316779701WALLACE SILVA SOARES                    RUA QUINZE DE NOVEMBRO LOTE 2 QUADRA N CSARACURUNA -25212690DUQUE DE CAXIASRJUNIAO UMB DOS CULTOS AFRO BRAS    30051810 000142
10231987175000168817800093673    000012802                    000128020000000000000109                     I0112802     30051800000000035003410000017N200218104700000000000103005180000000000000000000000000000000000000000100068506589720MARILDA TEREZA DA SILVA                 O MESMO                                 O MESMO     26327240QUEIMADOS      RJUNIAO UMB DOS CULTOS AFRO BRAS    30051810 000143
10231987175000168817800093673    000012801                    000128010000000000000109                     I0112801     30051800000000035003410000017N200218104700000000000103005180000000000000000000000000000000000000000100027686205720DENNIS CLARE                            RUA: RATICLIFF                          RIACHUELO   20950170RIO DE JANEIRO RJUNIAO UMB DOS CULTOS AFRO BRAS    30051810 000144
10231987175000168817800093673    000012800                    000128000000000000000109                     I0112800     30051800000000035003410000017N200218104700000000000103005180000000000000000000000000000000000000000100064949559753CREUZA LEAL COIMBRA                     O MESMO                                 O MESMO     25570393SAO JOAO DE MERRJUNIAO UMB DOS CULTOS AFRO BRAS    30051810 000145
10231987175000168817800093673    000012799                    000127990000000000000109                     I0112799     30051800000000035003410000017N200218104700000000000103005180000000000000000000000000000000000000000100007972604711ADRIANA TAVARES DA CONCEICAO            O MESMO                                 O MESMO     22723155RIO DE JANEIRO RJUNIAO UMB DOS CULTOS AFRO BRAS    30051810 000146
10231987175000168817800093673    000012798                    000127980000000000000109                     I0112798     30051800000000035003410000017N200218104700000000000103005180000000000000000000000000000000000000000100036386812700VICENCO GEARDINA NETO                   O MESMO                                 O MESMO     26061070NOVA IGUACU    RJUNIAO UMB DOS CULTOS AFRO BRAS    30051810 000147
10231987175000168817800093673    000012797                    000127970000000000000109                     I0112797     30051800000000035003410000017N200218104700000000000103005180000000000000000000000000000000000000000100003027226703MARCIO ALVES DOS SANTOS                 RUA ESTUDANTE ELIANE CASTANHEIRA N 874  CENTRO - SAO25510242SAO JOAO DE MERRJUNIAO UMB DOS CULTOS AFRO BRAS    30051810 000148
10231987175000168817800093673    000012796                    000127960000000000000109                     I0112796     30051800000000035003410000017N200218104700000000000103005180000000000000000000000000000000000000000100093971087787SUELY DE CASSIA NEVES DA SILVA          RUA ANTONIO JOAQUIM DA SILVA N 49       PARQUE BARRE25581140SAO JOAO DE MERRJUNIAO UMB DOS CULTOS AFRO BRAS    30051810 000149
10231987175000168817800093673    000012795                    000127950000000000000109                     I0112795     30051800000000035003410000017N200218104700000000000103005180000000000000000000000000000000000000000100081947712772MARIA COELHO DE LIMA                    O MESMO                                 O MESMO     25040070DUQUE DE CAXIASRJUNIAO UMB DOS CULTOS AFRO BRAS    30051810 000150
10231987175000168817800093673    000012794                    000127940000000000000109                     I0112794     30051800000000035003410000017N200218104700000000000103005180000000000000000000000000000000000000000100096252634700PATRICIA BORGES                         O MESMO                                 O MESMO     23530074RIO DE JANEIRO RJUNIAO UMB DOS CULTOS AFRO BRAS    30051810 000151
10231987175000168817800093673    000012793                    000127930000000000000109                     I0112793     30051800000000035003410000017N200218104700000000000103005180000000000000000000000000000000000000000100080295576715DOLORES DAS GRACAS ADRIANO DE           RUA SOLDADO PRIM CANES, QUADRA 198 LOTE VILA MAR - G23025420GUARATIBA      RJUNIAO UMB DOS CULTOS AFRO BRAS    30051810 000152
10231987175000168817800093673    000012792                    000127920000000000000109                     I0112792     30051800000000035003410000017N200218104700000000000103005180000000000000000000000000000000000000000200000000004184CARLOS ALBERTO DA SILVA SANTOS          AVENIDA MARIA DE SENA MOREIRA, 218      INCOFINDENCI26085060RIO DE JANEIRO RJUNIAO UMB DOS CULTOS AFRO BRAS    30051810 000153
10231987175000168817800093673    000012791                    000127910000000000000109                     I0112791     30051800000000035003410000017N200218104700000000000103005180000000000000000000000000000000000000000100001393165745MARCO AURELIO DE BARROS FARIAS          RUA AIROSA GALVAO, 44                   FONSECA - NI24120100NITEROI        RJUNIAO UMB DOS CULTOS AFRO BRAS    30051810 000154
10231987175000168817800093673    000012790                    000127900000000000000109                     I0112790     30051800000000035003410000017N200218104700000000000103005180000000000000000000000000000000000000000200000000004181LEANDRO HENRIQUE DA SILVA               RUA ALVARO LINS, LOTE 4 QUADRA M        PQ VITORIA -25045490DUQUE DE CAXIASRJUNIAO UMB DOS CULTOS AFRO BRAS    30051810 000155
10231987175000168817800093673    000012789                    000127890000000000000109                     I0112789     30051800000000035003410000017N200218104700000000000103005180000000000000000000000000000000000000000100077451953734VANDA NILDA DE ASSIS                    RUA: COELHO LISBOA Nº 168              OSVALDO CRUZ21340260RIO DE JANEIRIORJUNIAO UMB DOS CULTOS AFRO BRAS    30051810 000156
10231987175000168817800093673    000012788                    000127880000000000000109                     I0112788     30051800000000035003410000017N200218104700000000000103005180000000000000000000000000000000000000000100005415694730ALEX SANDRO DA SILVA BANDEIRA           RUA PAULO ROBERTO, 6                    PRAIA DE MAU25900000MAGE           RJUNIAO UMB DOS CULTOS AFRO BRAS    30051810 000157
10231987175000168817800093673    000012787                    000127870000000000000109                     I0112787     30051800000000035003410000017N200218104700000000000103005180000000000000000000000000000000000000000100013909038778MARIA DO CARMO SILVA DE MOURA           RUA SAO CARLOS, 75                      ESTACIO - RI20250052RIO DE JANEIRO RJUNIAO UMB DOS CULTOS AFRO BRAS    30051810 000158
10231987175000168817800093673    000012786                    000127860000000000000109                     I0112786     30051800000000035003410000017N200218104700000000000103005180000000000000000000000000000000000000000100082059403715SANDRA HELENA VILLAMOR MONTASS          RUA ARGOS, 693                          GUADALUPE   21660050RIO DE JANEIRO RJUNIAO UMB DOS CULTOS AFRO BRAS    30051810 000159
10231987175000168817800093673    000012785                    000127850000000000000109                     I0112785     30051800000000035003410000017N200218104700000000000103005180000000000000000000000000000000000000000100012948872898LUCILENE BARROS                         RUA DO PIANO 21                         CAMPOS ELISI25225218DUQUE DE CAXIASRJUNIAO UMB DOS CULTOS AFRO BRAS    30051810 000160
10231987175000168817800093673    000012784                    000127840000000000000109                     I0112784     30051800000000035003410000017N200218104700000000000103005180000000000000000000000000000000000000000100060407875700KATIA DE AZEVEDO FURTADO                RUA SOUZA PITANGA, 82                   THOMAS COELH21381230RIO DE JANEIRO RJUNIAO UMB DOS CULTOS AFRO BRAS    30051810 000161
10231987175000168817800093673    000012783                    000127830000000000000109                     I0112783     30051800000000035003410000017N200218104700000000000103005180000000000000000000000000000000000000000100088677079734MARIA APARECIDA MORAIS DOS SAN          RUA OLAVO GAMA, TRAVESSA F - PROJETADA BGUARATIBA - 23040400RIO DE JANEIRO RJUNIAO UMB DOS CULTOS AFRO BRAS    30051810 000162
10231987175000168817800093673    000012782                    000127820000000000000109                     I0112782     30051800000000035003410000017N200218104700000000000103005180000000000000000000000000000000000000000100067023711791EURIDES DOS SANTOS                      RUA CORONEL ALBERTO DE MELO, 47 CASA 1  AREIA BRANCA26112370BELFORD ROXO   RJUNIAO UMB DOS CULTOS AFRO BRAS    30051810 000163
10231987175000168817800093673    000012781                    000127810000000000000109                     I0112781     30051800000000035003410000017N200218104700000000000103005180000000000000000000000000000000000000000100051851229787MARTA DO NASCIMENTO CRISPINO            RUA LEONOR SARAMAGO, 89                 FONSECA - NI24120340NITEROI        RJUNIAO UMB DOS CULTOS AFRO BRAS    30051810 000164
10231987175000168817800093673    000012780                    000127800000000000000109                     I0112780     30051800000000035003410000017N200218104700000000000103005180000000000000000000000000000000000000000100077526694749FATIMA CRISTINA DA CUNHA PINHE          RUA TRAVESSA SANTO MAXIMO, 25           GUADALUPE - 21655780RIO DE JANEIRO RJUNIAO UMB DOS CULTOS AFRO BRAS    30051810 000165
10231987175000168817800093673    000012779                    000127790000000000000109                     I0112779     30051800000000035003410000017N200218104700000000000103005180000000000000000000000000000000000000000100000059525738MONICA SOARES MAGALHAES                 RUA: AMALIA Nº 117                     QUINTINO - R21380400RIO DE JANEIRO RJUNIAO UMB DOS CULTOS AFRO BRAS    30051810 000166
10231987175000168817800093673    000012778                    000127780000000000000109                     I0112778     30051800000000035003410000017N200218104700000000000103005180000000000000000000000000000000000000000100003987884720SAINT CLAIR MACHADO FERNANDES           RUA JACA, QUADRA 4 LOTE 14              PARQUE ESPER26173510BELFORD ROXO   RJUNIAO UMB DOS CULTOS AFRO BRAS    30051810 000167
10231987175000168817800093673    000012777                    000127770000000000000109                     I0112777     30051800000000035003410000017N200218104700000000000103005180000000000000000000000000000000000000000200000000004099CARLOS HENRIQUE LOPES ROSA              RUA ROSA MULLER, LOTE 3 CD 1 BLOCO 9 APTVILAR DOS TE25560355SAO JOAO DE MERRJUNIAO UMB DOS CULTOS AFRO BRAS    30051810 000168
10231987175000168817800093673    000012776                    000127760000000000000109                     I0112776     30051800000000035003410000017N200218104700000000000103005180000000000000000000000000000000000000000100066638682768VALERIA COELHO DA SILVA                 RUA DOUTOR ALFREDO BARCELOS, 381        OLARIA - RJ 21021421RIO DE JANEIRO RJUNIAO UMB DOS CULTOS AFRO BRAS    30051810 000169
10231987175000168817800093673    000012775                    000127750000000000000109                     I0112775     30051800000000035003410000017N200218104700000000000103005180000000000000000000000000000000000000000100078935806749MARIA DA CONCEICAO DOS SANTOS           RUA ESTRELA, 26                         VILA SAO MIG26088315NOVA IGUACU    RJUNIAO UMB DOS CULTOS AFRO BRAS    30051810 000170
10231987175000168817800093673    000012774                    000127740000000000000109                     I0112774     30051800000000035003410000017N200218104700000000000103005180000000000000000000000000000000000000000100061523003715MARIA EMILIA RIBEIRO VIEIRA DO          RUA EIMA, 132                           IRAJA - RJ  21220370RIO DE JANEIRO RJUNIAO UMB DOS CULTOS AFRO BRAS    30051810 000171
10231987175000168817800093673    000012773                    000127730000000000000109                     I0112773     30051800000000035003410000017N200218104700000000000103005180000000000000000000000000000000000000000100033382840715MARIA ALICE CONSTANCIO GOMES            RUA PALMARES, 39                        JARDIM PERNA26275310NOVA IGUACU    RJUNIAO UMB DOS CULTOS AFRO BRAS    30051810 000172
10231987175000168817800093673    000012772                    000127720000000000000109                     I0112772     30051800000000035003410000017N200218104700000000000103005180000000000000000000000000000000000000000200000000004033SANDRA REIS DOS SANTOS                  RUA BANGU, 197 - DOUTOR LAUREANO        DUQUE DE CAX25060180DUQUE DE CAXIASRJUNIAO UMB DOS CULTOS AFRO BRAS    30051810 000173
10231987175000168817800093673    000012771                    000127710000000000000109                     I0112771     30051800000000035003410000017N200218104700000000000103005180000000000000000000000000000000000000000100075750384772VERA LUCIA BORGES NAZARETH              RUA DA CAPITAL, 430                     MAUA - SAO F25930000MAGE           RJUNIAO UMB DOS CULTOS AFRO BRAS    30051810 000174
10231987175000168817800093673    000012770                    000127700000000000000109                     I0112770     30051800000000040003410000017N200218104700000000000103005180000000000000000000000000000000000000000100075531585772ROSANGELA PAULINA RODRIGUES             ESTRADA: DA GUARITA N 1581              CARMARI - NO26040010NOVA IGUACU    RJUNIAO UMB DOS CULTOS AFRO BRAS    30051810 000175
10231987175000168817800093673    000012769                    000127690000000000000109                     I0112769     30051800000000035003410000017N200218104700000000000103005180000000000000000000000000000000000000000100064431002715SERGIO MURILO ALVES PEREIRA             RUA ROCHA, LOTE 4 QUADRA 4 CASA 2       JARDIM BONIF25565161SAO JOAO DE MERRJUNIAO UMB DOS CULTOS AFRO BRAS    30051810 000176
10231987175000168817800093673    000012768                    000127680000000000000109                     I0112768     30051800000000035003410000017N200218104700000000000103005180000000000000000000000000000000000000000100088504794768FATIMA MARIA DE OLIVEIRA                RUA TELMA, 22                           CABUCU - JAR26291266NOVA IGUACU    RJUNIAO UMB DOS CULTOS AFRO BRAS    30051810 000177
10231987175000168817800093673    000012767                    000127670000000000000109                     I0112767     30051800000000035003410000017N200218104700000000000103005180000000000000000000000000000000000000000100081628811749MAURO JOSE DE AZEVEDO FALCAO            RUA: LEOPOLDO MACHADO Nº 121 - BOA ESPENOVA IGUACU 26130680NOVA IGUACU    RJUNIAO UMB DOS CULTOS AFRO BRAS    30051810 000178
10231987175000168817800093673    000012766                    000127660000000000000109                     I0212766     30051800000000035003410000017N200218104700000000000103005180000000000000000000000000000000000000000100000905106741RICARDO DE SOUZA GOUVEA                 RUA: DOS ARAUJO - PARQUE FLUMINENSE     BELFOR ROXO 26185260BELFOR ROXO    RJUNIAO UMB DOS CULTOS AFRO BRAS    30051810 000179
10231987175000168817800093673    000012765                    000127650000000000000109                     I0112765     30051800000000035003410000017N200218104700000000000103005180000000000000000000000000000000000000000100025969153753MARIA EUNICE FRUCTUOSO MIGUEL           RUA: VIRGEM PEREGRINA Nº 81            PIEDADE - RI21381070RIO DE JANEIRO RJUNIAO UMB DOS CULTOS AFRO BRAS    30051810 000180
10231987175000168817800093673    000012764                    000127640000000000000109                     I0112764     30051800000000035003410000017N200218104700000000000103005180000000000000000000000000000000000000000100065138210700TANIA CRISTINA DOS SANTOS PERE          RUA: BOM JARDIM Nº 521                 GRAMACHO - D25035060DUQUE DE CAXIASRJUNIAO UMB DOS CULTOS AFRO BRAS    30051810 000181
10231987175000168817800093673    000012763                    000127630000000000000109                     I0112763     30051800000000035003410000017N200218104700000000000103005180000000000000000000000000000000000000000100007150949711SEVERINA BENVINDO FERREIRA              ESTRADA DO CALUNDU, LOTE 32 QUADRA 51   NOSSA SENHOR25040610DUQUE DE CAXIASRJUNIAO UMB DOS CULTOS AFRO BRAS    30051810 000182
10231987175000168817800093673    000012762                    000127620000000000000109                     I0112762     30051800000000025003410000017N200218104700000000000103005180000000000000000000000000000000000000000100052329160363NENI GOMES DE ALMEIDA                   RUA MARIA SANTANA FERNANDES, LOTE 8 QUADJARDIM ACACI23845250SEROPEDICA     RJUNIAO UMB DOS CULTOS AFRO BRAS    30051810 000183
10231987175000168817800093673    000012761                    000127610000000000000109                     I0112761     30051800000000035003410000017N200218104700000000000103005180000000000000000000000000000000000000000100004471243748MARIA IEDA DE ALMEIDA DA SILVA          PRACA JOAO CAETANO, 23 LOTE 23 QUADRA 4 LAUREANO - D25065240DUQUE DE CAXIASRJUNIAO UMB DOS CULTOS AFRO BRAS    30051810 000184
10231987175000168817800093673    000012760                    000127600000000000000109                     I0112760     30051800000000035003410000017N200218104700000000000103005180000000000000000000000000000000000000000100054590604787VANDA PAIVA                             RUA LUIZ JACINTO, LOTE 3                EDEN - SAO J25535161SAO JOAO DE MERRJUNIAO UMB DOS CULTOS AFRO BRAS    30051810 000185
10231987175000168817800093673    000012759                    000127590000000000000109                     I0112759     30051800000000035003410000017N200218104700000000000103005180000000000000000000000000000000000000000100071056319709LAURECI DOS SANTOS                      RUA BERNARDO MONTEIRO, LOTE 7 QUADRA 157JD OLAVO BIL25025320DUQUE DE CAXIASRJUNIAO UMB DOS CULTOS AFRO BRAS    30051810 000186
10231987175000168817800093673    000012758                    000127580000000000000109                     I0112758     30051800000000035003410000017N200218104700000000000103005180000000000000000000000000000000000000000100059099747772EULINA LUCIA RODRIGUES DE SOUZ          RUA XAVIER DOS PASSAROS, 18 FUNDOS      PIEDADE - RJ20740330RIO DE JANEIRO RJUNIAO UMB DOS CULTOS AFRO BRAS    30051810 000187
10231987175000168817800093673    000012757                    000127570000000000000109                     I0112757     30051800000000035003410000017N200218104700000000000103005180000000000000000000000000000000000000000100009116311787ETELVINA SOUZA DUARTE                   RUA CAIABU, 137 APTO 403                IRAJA - RJ  21361230RIO DE JANEIRO RJUNIAO UMB DOS CULTOS AFRO BRAS    30051810 000188
10231987175000168817800093673    000012756                    000127560000000000000109                     I0112756     30051800000000035003410000017N200218104700000000000103005180000000000000000000000000000000000000000200000000004628RAQUEL RODRIGUES SOBRAL DANTAS          RUA CAPITAO COUTO MENEZES, 110          MADUREIRA - 21310200RIO DE JANEIRO RJUNIAO UMB DOS CULTOS AFRO BRAS    30051810 000189
10231987175000168817800093673    000012755                    000127550000000000000109                     I0112755     30051800000000035003410000017N200218104700000000000103005180000000000000000000000000000000000000000100003737351708TANIA PAULA DOS SANTOS                  RUA PREFEITO JOAO CARLOS VITAL, 80      SEPETIBA - R23540041RIO DE JANEIRO RJUNIAO UMB DOS CULTOS AFRO BRAS    30051810 000190
10231987175000168817800093673    000012754                    000127540000000000000109                     I0112754     30051800000000035003410000017N200218104700000000000103005180000000000000000000000000000000000000000100001057873705ADEMIR ANDRADE CUNHA                    RUA PACHECO DA ROCHA N 636              BENTO RIBEIR21555092RIO DE JANEIRO RJUNIAO UMB DOS CULTOS AFRO BRAS    30051810 000191
10231987175000168817800093673    000012753                    000127530000000000000109                     I0112753     30051800000000035003410000017N200218104700000000000103005180000000000000000000000000000000000000000100039341887704NORMA AYRES DA SILVA                    RUA VALENCA, 245                        BAR DOS CAVA25015590DUQUE DE CAXIASRJUNIAO UMB DOS CULTOS AFRO BRAS    30051810 000192
10231987175000168817800093673    000012752                    000127520000000000000109                     I0112752     30051800000000035003410000017N200218104700000000000103005180000000000000000000000000000000000000000100011208480758MARIA ANTONIA KIFFER CORREA             AVENIDA MARECHAL HERMES, 1060           VILA SAO LUI25065115DUQUE DE CAXIASRJUNIAO UMB DOS CULTOS AFRO BRAS    30051810 000193
10231987175000168817800093673    000012751                    000127510000000000000109                     I0112751     30051800000000035003410000017N200218104700000000000103005180000000000000000000000000000000000000000200000000004796HELENA ALVES BRAZ                       RUA JUTAI, LOTE 20 QUADRA 151           PERIQUITO - 25025290DUQUE DE CAXIASRJUNIAO UMB DOS CULTOS AFRO BRAS    30051810 000194
10231987175000168817800093673    000012750                    000127500000000000000109                     I0112750     30051800000000035003410000017N200218104700000000000103005180000000000000000000000000000000000000000100088469212753NEIDE CARVALHO D ANGELO                 RUA GENERAL TRAUMATURGO, LOTE 17 QUADRA VILA ROSARIO25040010DUQUE DE CAXIASRJUNIAO UMB DOS CULTOS AFRO BRAS    30051810 000195
10231987175000168817800093673    000012749                    000127490000000000000109                     I0112749     30051800000000035003410000017N200218104700000000000103005180000000000000000000000000000000000000000200000000004748IVAN SOUZA DIAS                         RUA CARICO, LOTE 27 QUADRA 15 A         JARDIM METRO25575050SAO JOAO DE MERRJUNIAO UMB DOS CULTOS AFRO BRAS    30051810 000196
10231987175000168817800093673    000012748                    000127480000000000000109                     I0112748     30051800000000035003410000017N200218104700000000000103005180000000000000000000000000000000000000000200000000004621NEUZA MARIA MACHADO DA SILVA            RUA AUGUSTO SERGIO BOTELHO, QUADRA 67 LOBARRO BRANCO25267124DUQUE DE CAXIASRJUNIAO UMB DOS CULTOS AFRO BRAS    30051810 000197
10231987175000168817800093673    000012747                    000127470000000000000109                     I0112747     30051800000000035003410000017N200218104700000000000103005180000000000000000000000000000000000000000100001798819732RITA MARIA VIANNA                       RUA IPAMERI, 236                        CORDOVIL - R21012175RIO DE JANEIRO RJUNIAO UMB DOS CULTOS AFRO BRAS    30051810 000198
10231987175000168817800093673    000012746                    000127460000000000000109                     I0112746     30051800000000035003410000017N200218104700000000000103005180000000000000000000000000000000000000000200000000004766EDINALVA MUNIZ VALENTIM                 AVENIDA RIO DE JANEIRO, 21              INCRA - SERO23850220SEROPEDICA     RJUNIAO UMB DOS CULTOS AFRO BRAS    30051810 000199
10231987175000168817800093673    000012745                    000127450000000000000109                     I0112745     30051800000000035003410000017N200218104700000000000103005180000000000000000000000000000000000000000100002912019702JONER BORGES BARCELOS                   RUA OITO, QUADRA 30 LOTE 8              NOVA CAMPINA25000000DUQUE DE CAXIASRJUNIAO UMB DOS CULTOS AFRO BRAS    30051810 000200
10231987175000168817800093673    000012744                    000127440000000000000109                     I0212744     30051800000000035003410000017N200218104700000000000103005180000000000000000000000000000000000000000200000000004818CONCEICAO SOUZA DE FREITAS              RUA SILVA JARDIM, 67                    VILA SAO LUI25086140DUQUE DE CAXIASRJUNIAO UMB DOS CULTOS AFRO BRAS    30051810 000201
10231987175000168817800093673    000012743                    000127430000000000000109                     I0112743     30051800000000035003410000017N200218104700000000000103005180000000000000000000000000000000000000000100001637090765DEBORA VENTURA CESAR                    RUA DOS CONGREGADOS, 105 CASA 2         HELIOPOLIS  26123020RIO DE JANEIRO RJUNIAO UMB DOS CULTOS AFRO BRAS    30051810 000202
10231987175000168817800093673    000012742                    000127420000000000000109                     I0112742     30051800000000035003410000017N200218104700000000000103005180000000000000000000000000000000000000000100078815428704LUZINETE PINHO DE SA                    ESTRADA: MANOEL FERREIRA CAMPAR Nº 1311POSSE - NOVA26021060NOVA IGUACU    RJUNIAO UMB DOS CULTOS AFRO BRAS    30051810 000203
10231987175000168817800093673    000012741                    000127410000000000000109                     I0112741     30051800000000035003410000017N200218104700000000000103005180000000000000000000000000000000000000000100058446559749CELIA ISRAEL DE OLIVEIRA                RUA CARAVELAS, LOTE 42 QUADRA 77        DR. LAUREANO25051230DUQUE DE CAXIASRJUNIAO UMB DOS CULTOS AFRO BRAS    30051810 000204
10231987175000168817800093673    000012740                    000127400000000000000109                     I0112740     30051800000000035003410000017N200218104700000000000103005180000000000000000000000000000000000000000100001925108783HELENA MOREIRA PESSOA                   RUA CAPIVARA, LOTE 639 QUADRA 48        SANTA CRUZ D25260180DUQUE DE CAXIASRJUNIAO UMB DOS CULTOS AFRO BRAS    30051810 000205
10231987175000168817800093673    000012739                    000127390000000000000109                     I0112739     30051800000000035003410000017N200218104700000000000103005180000000000000000000000000000000000000000100001783778806MARIA LUIZA FERREIRA GODINHO C          ESTRADA DO BOIUNA, 2620                 TAQUARA - JA22723018RIO DE JANEIRO RJUNIAO UMB DOS CULTOS AFRO BRAS    30051810 000206
10231987175000168817800093673    000012738                    000127380000000000000109                     I0112738     30051800000000035003410000017N200218104700000000000103005180000000000000000000000000000000000000000100000911446710NELI MONTEIRO DE CASTRO                 RUA ROMILDO Nº 139 - VAZ MARTINS       NOVA IGUACU 20051040RIO DE JANEIRO RJUNIAO UMB DOS CULTOS AFRO BRAS    30051810 000207
10231987175000168817800093673    000012737                    000127370000000000000109                     I0112737     30051800000000035003410000017N200218104700000000000103005180000000000000000000000000000000000000000100010058913700RAMON DO NASCIMENTO MANES               RUA LIGIA, 329                          OLARIA - RJ 21073280RIO DE JANEIRO RJUNIAO UMB DOS CULTOS AFRO BRAS    30051810 000208
10231987175000168817800093673    000012736                    000127360000000000000109                     I0112736     30051800000000035003410000017N200218104700000000000103005180000000000000000000000000000000000000000100005137259705CRISTINA DE OLIVEIRA DA SILVA           AVENIDA CAMPO MOURAO SN APARTAMENTO 102 JARDIM MARAV23031080CAMPO GRANDE   RJUNIAO UMB DOS CULTOS AFRO BRAS    30051810 000209
10231987175000168817800093673    000012735                    000127350000000000000109                     I0112735     30051800000000035003410000017N200218104700000000000103005180000000000000000000000000000000000000000100079469825772VICTOR FRANCISCO PEREIRA NETO           RUA YZ 2 LT 7,8,9 QDRA 27 B/ JD ANHANGA DUQUE DE CAX25036290DUQUE DE CAXIASRJUNIAO UMB DOS CULTOS AFRO BRAS    30051810 000210
10231987175000168817800093673    000012734                    000127340000000000000109                     I0112734     30051800000000035003410000017N200218104700000000000103005180000000000000000000000000000000000000000100004751333747CARLOS EDUARDO DE SOUZA ALVES           RUA: URANOS Nº 563                     BONSUCESSO -21060070RIO DE JANEIRO RJUNIAO UMB DOS CULTOS AFRO BRAS    30051810 000211
10231987175000168817800093673    000012733                    000127330000000000000109                     I0112733     30051800000000035003410000017N200218104700000000000103005180000000000000000000000000000000000000000100007474273721CLARINDO DE MEDEIROS                    RUA SAO MARCOS, 145A                    VILAR DOS TE25561220SAO JOAO DE MERRJUNIAO UMB DOS CULTOS AFRO BRAS    30051810 000212
10231987175000168817800093673    000012732                    000127320000000000000109                     I0112732     30051800000000035003410000017N200218104700000000000103005180000000000000000000000000000000000000000200000000003735ANDRE LUIS DINIS CARDOSO                RUA CORDOVIL, 669 LOTE 2                PARADA DE LU21250450RIO DE JANEIRO RJUNIAO UMB DOS CULTOS AFRO BRAS    30051810 000213
10231987175000168817800093673    000012731                    000127310000000000000109                     I0112731     30051800000000035003410000017N200218104700000000000103005180000000000000000000000000000000000000000100022023461715SAULO EMMANUEL FERREIRA GUEDES          AVENIDA VICENTE DE CARVALHO, 1431 BLOCO VICENTE DE C21210003RIO DE JANEIRO RJUNIAO UMB DOS CULTOS AFRO BRAS    30051810 000214
10231987175000168817800093673    000012730                    000127300000000000000109                     I0112730     30051800000000035003410000017N200218104700000000000103005180000000000000000000000000000000000000000100041216989753CARMEM VIANA DE JESUS                   RUA DAS TULIPAS, LOTE 4 A QUADRA 5      CIDADE DOS M25235040DUQUE DE CAXIASRJUNIAO UMB DOS CULTOS AFRO BRAS    30051810 000215
10231987175000168817800093673    000012729                    000127290000000000000109                     I0112729     30051800000000035003410000017N200218104700000000000103005180000000000000000000000000000000000000000100007446571721ANDREA GUEDES PINHEIRO GOMES            RUA CATARINA SANTANA  169               CABUCU      26341490NILOPOLIS      RJUNIAO UMB DOS CULTOS AFRO BRAS    30051810 000216
10231987175000168817800093673    000012728                    000127280000000000000109                     I0112728     30051800000000035003410000017N200218104700000000000103005180000000000000000000000000000000000000000100000939896796SHIRLEI ARAUJO DO CARMO RODRIG          O MESMO                                 O MESMO     21532170RIO DE JANEIRO RJUNIAO UMB DOS CULTOS AFRO BRAS    30051810 000217
10231987175000168817800093673    000012727                    000127270000000000000109                     I0112727     30051800000000035003410000017N200218104700000000000103005180000000000000000000000000000000000000000100059195711791ELOISA HELENA PEREIRA NUNES             RUA BOAIACA, 330                        BENTO RIBEIR21331600RIO DE JANEIRO RJUNIAO UMB DOS CULTOS AFRO BRAS    30051810 000218
10231987175000168817800093673    000012726                    000127260000000000000109                     I0112726     30051800000000035003410000017N200218104700000000000103005180000000000000000000000000000000000000000100000675108764MARIA CRISTINA SANTOS GENEROSO          RUA  APODI, LOTE 4 QUADRA 47            PARQUE  SUEC26187300BELFORD ROXO   RJUNIAO UMB DOS CULTOS AFRO BRAS    30051810 000219
10231987175000168817800093673    000012725                    000127250000000000000109                     I0112725     30051800000000035003410000017N200218104700000000000103005180000000000000000000000000000000000000000100063538369704VERA LUCIA SOARES CONCEICAO DE          RUA CARALUNA, 35                        GUARATIBA - 23032070RIO DE JANEIRO RJUNIAO UMB DOS CULTOS AFRO BRAS    30051810 000220
10231987175000168817800093673    000012724                    000127240000000000000109                     I0112724     30051800000000035003410000017N200218104700000000000103005180000000000000000000000000000000000000000200000000003641DARLI ROCHA DO PRADO FERREIRA           O MESMO                                 O MESMO     21930376RIO DE JANEIRO RJUNIAO UMB DOS CULTOS AFRO BRAS    30051810 000221
10231987175000168817800093673    000012723                    000127230000000000000109                     I0112723     30051800000000035003410000017N200218104700000000000103005180000000000000000000000000000000000000000100053699394700UBIRAJARA PEREIRA FRANCO                AV. BRASIL 17191 BLOCO 35 APTº 2002    IRAJA       21230240RIO DE JANEIRO RJUNIAO UMB DOS CULTOS AFRO BRAS    30051810 000222
10231987175000168817800093673    000012722                    000127220000000000000109                     I0112722     30051800000000035003410000017N200218104700000000000103005180000000000000000000000000000000000000000100030011370700HELENA CAVALCANTE MARQUES               RUA DOUTOR PASSOS Nº 35 FUNDOS         MADUREIRA - 21310160RIO DE JANEIRO RJUNIAO UMB DOS CULTOS AFRO BRAS    30051810 000223
10231987175000168817800093673    000012721                    000127210000000000000109                     I0112721     30051800000000035003410000017N200218104700000000000103005180000000000000000000000000000000000000000100093431619720GUILHERME LUIZ BASILIO                  RUA, BARAO DO BOM RETIRO Nº 556 FUNDOS ENGENHO NOVO20551140RIO DE JANEIRO RJUNIAO UMB DOS CULTOS AFRO BRAS    30051810 000224
10231987175000168817800093673    000012720                    000127200000000000000109                     I0112720     30051800000000035003410000017N200218104700000000000103005180000000000000000000000000000000000000000200000000003591ALEXANDRE JOSE GONCALVES DE MI          RUA: COIMBRA Nº 16 - N.S. DAS GRACAS   MIGUEL COUTO26032160NOVA IGUACU    RJUNIAO UMB DOS CULTOS AFRO BRAS    30051810 000225
10231987175000168817800093673    000012719                    000127190000000000000109                     I0112719     30051800000000035003410000017N200218104700000000000103005180000000000000000000000000000000000000000100090021177791MARIA CRISTINA SOUZA DE OLIVEI          RUA: DA GLORIA Nº 4064 - VILA LEPOLDINADUQUE DE CAX25060240DUQUE DE CAXIASRJUNIAO UMB DOS CULTOS AFRO BRAS    30051810 000226
10231987175000168817800093673    000012718                    000127180000000000000109                     I0112718     30051800000000035003410000017N200218104700000000000103005180000000000000000000000000000000000000000200000000003581ODILA RIBEIRO MARTINS                   O MESMO                                 O MESMO     25560490SAO JOAO DE MERRJUNIAO UMB DOS CULTOS AFRO BRAS    30051810 000227
10231987175000168817800093673    000012717                    000127170000000000000109                     I0112717     30051800000000035003410000017N200218104700000000000103005180000000000000000000000000000000000000000200000000003563CILEIDE REGLE RAPOUZO                   O MESMO                                 O MESMO     25050520DUQUE DE CAXIASRJUNIAO UMB DOS CULTOS AFRO BRAS    30051810 000228
10231987175000168817800093673    000012716                    000127160000000000000109                     I0112716     30051800000000035003410000017N200218104700000000000103005180000000000000000000000000000000000000000200000000003561SANDRA BAPTISTA DA SILVA                O MESMO                                 O MESMO     23047560RIO DE JANEIRO RJUNIAO UMB DOS CULTOS AFRO BRAS    30051810 000229
10231987175000168817800093673    000012715                    000127150000000000000109                     I0112715     30051800000000035003410000017N200218104700000000000103005180000000000000000000000000000000000000000200000000003554ELIZABETH GANTERT DA ROCHA GUI          O MESMO                                 O MESMO     26351140NOVA IGUACU    RJUNIAO UMB DOS CULTOS AFRO BRAS    30051810 000230
10231987175000168817800093673    000012714                    000127140000000000000109                     I0112714     30051800000000035003410000017N200218104700000000000103005180000000000000000000000000000000000000000200000000003522TANIA MARIA DOS SANTOS DANIEL           O MESMO                                 O MESMO     23097692RIO DE JANEIRO RJUNIAO UMB DOS CULTOS AFRO BRAS    30051810 000231
10231987175000168817800093673    000012713                    000127130000000000000109                     I0112713     30051800000000035003410000017N200218104700000000000103005180000000000000000000000000000000000000000200000000003516GILCINEI CAMPOS PORTUGAL                O MESMO                                 O MESMO     23545100RIO DE JANEIRO RJUNIAO UMB DOS CULTOS AFRO BRAS    30051810 000232
10231987175000168817800093673    000012712                    000127120000000000000109                     I0112712     30051800000000035003410000017N200218104700000000000103005180000000000000000000000000000000000000000100010078178797ALINE CORREA SOUZA                      AVENIDA PILAR DO SUL LOTE 42 QUADRA 23  GUARATIBA - 23033160RIO DE JANEIRO RJUNIAO UMB DOS CULTOS AFRO BRAS    30051810 000233
10231987175000168817800093673    000012711                    000127110000000000000109                     I0112711     30051800000000035003410000017N200218104700000000000103005180000000000000000000000000000000000000000200000000003499ANDRE LUIS ALMEIDA SOUZA                RUA CAIMIRIM Nº 140 - SANTA TEREZINHA  MESQUITA - R26555050BELFORD ROXO   RJUNIAO UMB DOS CULTOS AFRO BRAS    30051810 000234
10231987175000168817800093673    000012710                    000127100000000000000109                     I0112710     30051800000000035003410000017N200218104700000000000103005180000000000000000000000000000000000000000200000000003500MARIA DA PENHA PEREIRA DOS SAN          O MESMO                                 O MESMO     26530060NILOPOLIS      RJUNIAO UMB DOS CULTOS AFRO BRAS    30051810 000235
10231987175000168817800093673    000012709                    000127090000000000000109                     I0112709     30051800000000035003410000017N200218104700000000000103005180000000000000000000000000000000000000000100073871729787RENATO GOMES SILVA                      RUA JURIPIRANGA LOTE 18 QUADRA 129      COSMOS - RIO23060020RIO DE JANEIRO RJUNIAO UMB DOS CULTOS AFRO BRAS    30051810 000236
10231987175000168817800093673    000012708                    000127080000000000000109                     I0112708     30051800000000035003410000017N200218104700000000000103005180000000000000000000000000000000000000000100083441271734NAELSON MAGALHAES DE AVELLAR            RUA ONZE LOTE 1 CASA 1                  GUANDU L - S23560778SANTA CRUZ     RJUNIAO UMB DOS CULTOS AFRO BRAS    30051810 000237
10231987175000168817800093673    000012707                    000127070000000000000109                     I0112707     30051800000000035003410000017N200218104700000000000103005180000000000000000000000000000000000000000100010084300728RODRIGO ALVES DE PINHO                  RUA JOVITA FEITOSA N 131                VILA SAO JUD25243570DUQUE DE CAXIASRJUNIAO UMB DOS CULTOS AFRO BRAS    30051810 000238
10231987175000168817800093673    000012706                    000127060000000000000109                     I0112706     30051800000000035003410000017N200218104700000000000103005180000000000000000000000000000000000000000100005363118700VALDECI LIMA DA COSTA                   O MESMO                                 O MESMO     21210420RIO DE JANEIRO RJUNIAO UMB DOS CULTOS AFRO BRAS    30051810 000239
10231987175000168817800093673    000012705                    000127050000000000000109                     I0112705     30051800000000035003410000017N200218104700000000000103005180000000000000000000000000000000000000000100060052830730PAULO CESAR BARRETO ALVES               RUA ANGELO DOS REIS N 207 FUNDOS        USINA - ALTO20531010RIO DE JANEIRO RJUNIAO UMB DOS CULTOS AFRO BRAS    30051810 000240
10231987175000168817800093673    000012704                    000127040000000000000109                     I0112704     30051800000000035003410000017N200218104700000000000103005180000000000000000000000000000000000000000100000615134742CONCEICAO DE SOUZA CAPITANO             RUA MECA N 103 - SAO BENEDITO           SAO BENEDITO26022540NOVA IGUACU    RJUNIAO UMB DOS CULTOS AFRO BRAS    30051810 000241
10231987175000168817800093673    000012703                    000127030000000000000109                     I0112703     30051800000000035003410000017N200218104700000000000103005180000000000000000000000000000000000000000200000000003441MONALISA DE ALMEIDA CARVALHO            RUA NOSSA SENHORA DA PAZ N 111          SANTA CECILI26130660BELFORD ROXO   RJUNIAO UMB DOS CULTOS AFRO BRAS    30051810 000242
10231987175000168817800093673    000012702                    000127020000000000000109                     I0112702     30051800000000035003410000017N200218104700000000000103005180000000000000000000000000000000000000000100001192135750CREUZA MARIA DA CONCEICAO               RUA BENEDITO LACERDA N 320              VILA CORCUND23071340CAMPO GRANDE   RJUNIAO UMB DOS CULTOS AFRO BRAS    30051810 000243
10231987175000168817800093673    000012701                    000127010000000000000109                     I0112701     30051800000000035003410000017N200218104700000000000103005180000000000000000000000000000000000000000200000000003410DENIRCE SOUZA ANDRE                     O MESMO                                 O MESMO     20761121RIO DE JANEIRO RJUNIAO UMB DOS CULTOS AFRO BRAS    30051810 000244
10231987175000168817800093673    000012700                    000127000000000000000109                     I0112700     30051800000000035003410000017N200218104700000000000103005180000000000000000000000000000000000000000200000000003393ROSINETE FERREIRA CAMARGO               O MESMO                                 O MESMO     22733130RIO DE JANEIRO RJUNIAO UMB DOS CULTOS AFRO BRAS    30051810 000245
10231987175000168817800093673    000012699                    000126990000000000000109                     I0112699     30051800000000035003410000017N200218104700000000000103005180000000000000000000000000000000000000000100022175534880LUCIANO THOMAZ DE ROSA                  RUA FRANCISCO JOSE DA SILVA, 25         SUZANO - JAR08695060SAO PAULO      SPUNIAO UMB DOS CULTOS AFRO BRAS    30051810 000246
10231987175000168817800093673    000012698                    000126980000000000000109                     I0112698     30051800000000035003410000017N200218104700000000000103005180000000000000000000000000000000000000000100044608268791FAUSTO DOS SANTOS REZENDE               O MESMO                                 O MESMO     21010070RIO DE JANEIRO RJUNIAO UMB DOS CULTOS AFRO BRAS    30051810 000247
10231987175000168817800093673    000012697                    000126970000000000000109                     I0112697     30051800000000035003410000017N200218104700000000000103005180000000000000000000000000000000000000000200000000003341HELENA MARIA DA SILVA                   RUA VINTE E QUATRO DE OUTUBRO,  QUADRA BBARRO BRANCO25267450DUQUE DE CAXIASRJUNIAO UMB DOS CULTOS AFRO BRAS    30051810 000248
10231987175000168817800093673    000012696                    000126960000000000000109                     I0112696     30051800000000035003410000017N200218104700000000000103005180000000000000000000000000000000000000000200000000003338RAFAEL LUIZ SOARES FERREIRA             RUA COMANDANTE COELHO, 647              CORDOVIL - R21250510RIO DE JANEIRO RJUNIAO UMB DOS CULTOS AFRO BRAS    30051810 000249
