01REMESSA01COBRANCA       916200163100        Uni찾o Umb dos Cultos Afro Bra341BANCO ITAU SA  050618                                                                                                                                                                                                                                                                                                      000001
10231987175000168916200163100    000021132                    000211320000000000000109                     I0121132     15061800000000175003410000017N040618104700000000000101506180000000000000000000000000000000000000000100018801293704NORMA RAMOS VIANNA                      AVENIDA PERNAMBUCANA, 1680              V.ROSALI - S25510430SAO JOAO DE MERRJUNIAO UMB DOS CULTOS AFRO BRAS    15061810 000002
10231987175000168916200163100    000021131                    000211310000000000000109                     I0121131     04061800000000105003410000017N040618104700000000000100406180000000000000000000000000000000000000000100000120098733MARIA APARECIDA SOUZA DA SILVA          RUA NOVE, 424 LOTE 3 QUADRA B - JARDIM DPRAIA DE MAU25930000MAGE           RJUNIAO UMB DOS CULTOS AFRO BRAS    04061810 000003
10231987175000168916200163100    000021130                    000211300000000000000109                     I0121130     04061800000000245003410000017N040618104700000000000100406180000000000000000000000000000000000000000100008158166776CRISTIANE DE ALMEIDA DA ROCHA           RUA JOANA RESENDE N째 28 - MADUREIRA    RIO DE JANEI21360430RIO DE JANEIRO RJUNIAO UMB DOS CULTOS AFRO BRAS    04061810 000004
10231987175000168916200163100    000019433                    000194330000000000000109                     I3419433     30081800000000035003410000017N070518104700000000000103008180000000000000000000000000000000000000000100003250127760MARIA ZULEICA CRUZ DA SILVA             O MESMO                                 O MESMO     26010421NOVA IGUACU    RJUNIAO UMB DOS CULTOS AFRO BRAS    30081810 000005
10231987175000168916200163100    000019290                    000192900000000000000109                     I0219290     30081800000000035003410000017N070518104700000000000103008180000000000000000000000000000000000000000100063299615734MAGALI MAXIMO DE SOUZA                  RUA: DONA VICENTINA                     PAIOL DE POL26545460NILOPOLIS      RJUNIAO UMB DOS CULTOS AFRO BRAS    30081810 000006
10231987175000168916200163100    000017863                    000178630000000000000109                     I3417863     30071800000000035003410000017N070518104700000000000103007180000000000000000000000000000000000000000100003250127760MARIA ZULEICA CRUZ DA SILVA             O MESMO                                 O MESMO     26010421NOVA IGUACU    RJUNIAO UMB DOS CULTOS AFRO BRAS    30071810 000007
10231987175000168916200163100    000017720                    000177200000000000000109                     I0217720     30071800000000035003410000017N070518104700000000000103007180000000000000000000000000000000000000000100063299615734MAGALI MAXIMO DE SOUZA                  RUA: DONA VICENTINA                     PAIOL DE POL26545460NILOPOLIS      RJUNIAO UMB DOS CULTOS AFRO BRAS    30071810 000008
10231987175000168916200163100    000015091                    000150910000000000000109                     I3415091     30061800000000035003410000017N070518104700000000000103006180000000000000000000000000000000000000000100060856467715JANAINA COELHO MELO                     RUA: SANTO APIANO                       IRAJA       21361420RIO DE JANEIRO RJUNIAO UMB DOS CULTOS AFRO BRAS    30061810 000009
10231987175000168916200163100    000014865                    000148650000000000000109                     I3414865     30061800000000035003410000017N070518104700000000000103006180000000000000000000000000000000000000000100001637090765DEBORA VENTURA CESAR                    RUA DOS CONGREGADOS, 105 CASA 2         HELIOPOLIS  26123020RIO DE JANEIRO RJUNIAO UMB DOS CULTOS AFRO BRAS    30061810 000010
10231987175000168916200163100    000014674                    000146740000000000000109                     I3414674     30061800000000035003410000017N070518104700000000000103006180000000000000000000000000000000000000000100003250127760MARIA ZULEICA CRUZ DA SILVA             O MESMO                                 O MESMO     26010421NOVA IGUACU    RJUNIAO UMB DOS CULTOS AFRO BRAS    30061810 000011
10231987175000168916200163100    000014531                    000145310000000000000109                     I0214531     30061800000000035003410000017N070518104700000000000103006180000000000000000000000000000000000000000100063299615734MAGALI MAXIMO DE SOUZA                  RUA: DONA VICENTINA                     PAIOL DE POL26545460NILOPOLIS      RJUNIAO UMB DOS CULTOS AFRO BRAS    30061810 000012
10231987175000168916200163100    000014117                    000141170000000000000109                     I0214117     10041800000000350003410000017N270218104700000000000101004180000000000000000000000000000000000000000100000085273967JUSSARA BALBINO GENUARIO                RUA DAS MARGARIDAS, 16                  CHAPERO - IT23830240ITAGUAI        RJUNIAO UMB DOS CULTOS AFRO BRAS    10041810 000013
10231987175000168916200163100    000014022                    000140220000000000000109                     I3414022     30051800000000035003410000017N230218104700000000000103005180000000000000000000000000000000000000000100010126360707NONILHA DA CONCEICAO FERREIRA           RUA JUSCELINO KUBITCHEK DE OLIVEIRA ,232PRAIA NOVA -25900000MAGE           RJUNIAO UMB DOS CULTOS AFRO BRAS    30051810 000014
10231987175000168916200163100    000014021                    000140210000000000000109                     I3414021     30041800000000035003410000017N230218104700000000000103004180000000000000000000000000000000000000000100010126360707NONILHA DA CONCEICAO FERREIRA           RUA JUSCELINO KUBITCHEK DE OLIVEIRA ,232PRAIA NOVA -25900000MAGE           RJUNIAO UMB DOS CULTOS AFRO BRAS    30041810 000015
10231987175000168916200163100    000014020                    000140200000000000000109                     I3414020     30031800000000035003410000017N230218104700000000000103003180000000000000000000000000000000000000000100010126360707NONILHA DA CONCEICAO FERREIRA           RUA JUSCELINO KUBITCHEK DE OLIVEIRA ,232PRAIA NOVA -25900000MAGE           RJUNIAO UMB DOS CULTOS AFRO BRAS    30031810 000016
10231987175000168916200163100    00008640                     000086400000000000000109                     I348640      31011800000000035003410000017N020118104700000000000103101180000000000000000000000000000000000000000100099225158734MARIA MAGALI DE OLIVEIRA SOUZA          RUA PIRACAIA, 756 FUNDOS                MARECHAL HER21555260RIO DE JANEIRO RJUNIAO UMB DOS CULTOS AFRO BRAS    31011810 000017
10231987175000168916200163100    00008472                     000084720000000000000109                     I028472      31011800000000035003410000017N020118104700000000000103101180000000000000000000000000000000000000000100018801293704NORMA RAMOS VIANNA                      AVENIDA PERNAMBUCANA, 1680              V.ROSALI - S25510430SAO JOAO DE MERRJUNIAO UMB DOS CULTOS AFRO BRAS    31011810 000018
10231987175000168916200163100    00002602                     000026020000000000000109                     I022602      31121700000000035003410000017N131117104700000000000103112170000000000000000000000000000000000000000100008158166776CRISTIANE DE ALMEIDA DA ROCHA           RUA JOANA RESENDE N째 28 - MADUREIRA    RIO DE JANEI21360430RIO DE JANEIRO RJUNIAO UMB DOS CULTOS AFRO BRAS    31121710 000019
10231987175000168916200163100    00002477                     000024770000000000000109                     I022477      31121700000000035003410000017N131117104700000000000103112170000000000000000000000000000000000000000100033104468753NILZA ALVES CHAROTTA                    RUA LAGUNA N째 83 - NOVA PIAN           CARTA COBR J04610003SAO PAULO      SPUNIAO UMB DOS CULTOS AFRO BRAS    31121710 000020
10231987175000168916200163100    00002224                     000022240000000000000109                     I342224      30011800000000035003410000017N131117104700000000000103001180000000000000000000000000000000000000000100088341534720RAIMUNDA BERNADINA DE OLIVEIRA          ESTRADA DA GAVEA - TRAVESSA UNIAO, 29 RUGAVEA - RIO 22451530RIO DE JANEIRO RJUNIAO UMB DOS CULTOS AFRO BRAS    30011810 000021
10231987175000168916200163100    00001994                     000019940000000000000109                     I021994      31121700000000035003410000017N131117104700000000000103112170000000000000000000000000000000000000000100079758517791NEY PEREIRA LEITE                       RUA MARECHAL MARCIANO N 368 CASA B TRAVEREALENGO - R21735651RIO DE JANEIRO RJUNIAO UMB DOS CULTOS AFRO BRAS    31121710 000022
9                                                                                                                                                                                                                                                                                                                                                                                                         000023
