01REMESSA01COBRANCA       817800093673        União Umb dos Cultos Afro Bra341BANCO ITAU SA  080118                                                                                                                                                                                                                                                                                                      000001
10231987175000168817800093673    00008407                     000084070000000000000109                     I348407      31121700000000035003410000017N291217050900000000000103112170000000000000000000000000000000000000000100009057240700ILAN FERNANDES BRAZILEIRO               RUA NICARAGUA                           PARQUE HOTEL28970000ARARUAMA       RJUNIAO UMB DOS CULTOS AFRO BRAS    31121710 000002
10231987175000168817800093673    00008406                     000084060000000000000109                     I348406      31121700000000035003410000017N291217050900000000000103112170000000000000000000000000000000000000000100009057240700ILAN FERNANDES BRAZILEIRO               RUA NICARAGUA                           PARQUE HOTEL28970000ARARUAMA       RJUNIAO UMB DOS CULTOS AFRO BRAS    31121710 000003
10231987175000168817800093673    00008401                     000084010000000000000109                     I018401      28021800000000035003410000017N291217050900000000000102802180000000000000000000000000000000000000000100005953749724JUCIARA DA SILVA XAVIER                 RUA CONDE DE AZAMBUJA N 526             MARIA DA GRA20785342RIO DE JANEIRO RJUNIAO UMB DOS CULTOS AFRO BRAS    28021810 000004
10231987175000168817800093673    00008400                     000084000000000000000109                     I018400      28021800000000035003410000017N291217050900000000000102802180000000000000000000000000000000000000000100069279500791CLAUDIA ALONSO RODRIGUES                ESTRADA DO PAU FERRO N 851              FREGUESIA - 22745055RIO DE JANEIRO RJUNIAO UMB DOS CULTOS AFRO BRAS    28021810 000005
10231987175000168817800093673    00008399                     000083990000000000000109                     I018399      28021800000000035003410000017N291217050900000000000102802180000000000000000000000000000000000000000100065000366700DULCINEIA DA SILVA MENDONCA             RUA ALBERTINO LADEIRA N 63              MONTE CASTEL26041510NOVA IGUACU    RJUNIAO UMB DOS CULTOS AFRO BRAS    28021810 000006
10231987175000168817800093673    00008398                     000083980000000000000109                     I018398      28021800000000035003410000017N291217050900000000000102802180000000000000000000000000000000000000000100053218833787MARLUCE SUELY DA SILVA                  RUA CHRISOSTOMO PIMENTEL DE OLIVEIRA, 63ANCHIETA - R21645521RIO DE JANEIRO RJUNIAO UMB DOS CULTOS AFRO BRAS    28021810 000007
10231987175000168817800093673    00008397                     000083970000000000000109                     I018397      28021800000000035003410000017N291217050900000000000102802180000000000000000000000000000000000000000100001346375771CRISTIANE MARIANO RAPELLO               ESTRADA ALBERTO TEIXEIRA CUNHA N 1410 CANILOPOLIS - 26520070NILOPOLIS      RJUNIAO UMB DOS CULTOS AFRO BRAS    28021810 000008
10231987175000168817800093673    00008396                     000083960000000000000109                     I018396      28021800000000035003410000017N291217050900000000000102802180000000000000000000000000000000000000000100070645523704RICARDO DE SOUZA LIMA                   RUA MAJOR AZEVEDO 344                   IRAJA       21230060RIO DE JANEIRO RJUNIAO UMB DOS CULTOS AFRO BRAS    28021810 000009
10231987175000168817800093673    00008395                     000083950000000000000109                     I018395      28021800000000035003410000017N291217050900000000000102802180000000000000000000000000000000000000000100015110892709YASMIN FIALHO HANGES                    ESTRADA HENRIQUE DE MELO N 193 FUNDOS   BENTO RIBEIR21340190RIO DE JANEIRO RJUNIAO UMB DOS CULTOS AFRO BRAS    28021810 000010
10231987175000168817800093673    00008394                     000083940000000000000109                     I018394      28021800000000035003410000017N291217050900000000000102802180000000000000000000000000000000000000000100007620451157JUCIARA BARRETO DA SILVA                O MESMO                                 O MESMO     25936690MAGE           RJUNIAO UMB DOS CULTOS AFRO BRAS    28021810 000011
10231987175000168817800093673    00008393                     000083930000000000000109                     I018393      28021800000000035003410000017N291217050900000000000102802180000000000000000000000000000000000000000100093788150734REGINA DA SILVA VERONEZI DOS S          RUA ABATE 105                           JARDIM CANAA26263040NOVA IGUACU    RJUNIAO UMB DOS CULTOS AFRO BRAS    28021810 000012
10231987175000168817800093673    00008392                     000083920000000000000109                     I018392      28021800000000035003410000017N291217050900000000000102802180000000000000000000000000000000000000000100009839983709CAMILA DA SILVA OLIVEIRA                RUA VITORINO DO AMARAL 189              OLARIA RJ   21073300RIO DE JANEIRO RJUNIAO UMB DOS CULTOS AFRO BRAS    28021810 000013
10231987175000168817800093673    00008391                     000083910000000000000109                     I018391      28021800000000035003410000017N291217050900000000000102802180000000000000000000000000000000000000000100060237090791ELIZABETH TELLES DA SILVA               ESTRADA OUTEIRO SANTO  900 LOTE 1 QUADRATAQUARA  RJ 22713164RIO DE JANEIRO RJUNIAO UMB DOS CULTOS AFRO BRAS    28021810 000014
10231987175000168817800093673    00008389                     000083890000000000000109                     I018389      28021800000000035003410000017N291217050900000000000102802180000000000000000000000000000000000000000100007336257704NERALDO DA ROCHA JUNIOR                 RUA CARAMURU LOTE 36 QUADRA 4           PARADA ANGEL25271320DUQUE DE CAXIASRJUNIAO UMB DOS CULTOS AFRO BRAS    28021810 000015
10231987175000168817800093673    00008388                     000083880000000000000109                     I018388      28021800000000035003410000017N291217050900000000000102802180000000000000000000000000000000000000000100062547429772JABES DE PAIVA PONTES                   RUA HURON, 69                           ANCHIETA - R21645290RIO DE JANEIRO RJUNIAO UMB DOS CULTOS AFRO BRAS    28021810 000016
10231987175000168817800093673    00008386                     000083860000000000000109                     I018386      28021800000000035003410000017N291217050900000000000102802180000000000000000000000000000000000000000100091473209749CRISTOVAO JOSE DA SILVA MAGALH          RUA VICTORIO PEREIRA NUNES, 57          CASTELANEA -25640262PETROPOLIS     RJUNIAO UMB DOS CULTOS AFRO BRAS    28021810 000017
10231987175000168817800093673    00008385                     000083850000000000000109                     I018385      28021800000000035003410000017N291217050900000000000102802180000000000000000000000000000000000000000100009199332701LUANDA MOREIRA DOS SANTOS FERN          RUA SEVERIANO MONTEIRO N 232 APT 302    BRAZ DE PINA21235620RIO DE JANEIRO RJUNIAO UMB DOS CULTOS AFRO BRAS    28021810 000018
10231987175000168817800093673    00008384                     000083840000000000000109                     I018384      28021800000000035003410000017N291217050900000000000102802180000000000000000000000000000000000000000100001456619705ROSANGELA DAMASCENO                     AVENIDA RAUL BARROS VIEIRA, 120         BANGU - RJ  21864230RIO DE JANEIRO RJUNIAO UMB DOS CULTOS AFRO BRAS    28021810 000019
10231987175000168817800093673    00008383                     000083830000000000000109                     I018383      28021800000000035003410000017N291217050900000000000102802180000000000000000000000000000000000000000100090036018791SILVIA ELAINE GEVEGIR DA SILVA          RUA VINTE, QUADRA 305 LOTE 34           PARADA MORAB25265130DUQUE DE CAXIASRJUNIAO UMB DOS CULTOS AFRO BRAS    28021810 000020
10231987175000168817800093673    00008382                     000083820000000000000109                     I018382      28021800000000035003410000017N291217050900000000000102802180000000000000000000000000000000000000000100014653084742THEILOR MORAIS DE MIRANDA               RUA SAO BENEDITO, 25                    VILA GENI - 23826010ITAGUAI        RJUNIAO UMB DOS CULTOS AFRO BRAS    28021810 000021
10231987175000168817800093673    00008381                     000083810000000000000109                     I018381      28021800000000035003410000017N291217050900000000000102802180000000000000000000000000000000000000000100002161361724ELISANGELA VIRGINIA CARVALHO A          RUA JUIZ JORGE SALOMAO, 191 CASA 18     ENGENHO NOVO20950360RIO DE JANEIRO RJUNIAO UMB DOS CULTOS AFRO BRAS    28021810 000022
10231987175000168817800093673    00008380                     000083800000000000000109                     I018380      28021800000000035003410000017N291217050900000000000102802180000000000000000000000000000000000000000100003346596710ROSILENI ROSA DA SILVA                  RUA ADALGISA MONTEIRO N 133             ITAIPU - NIT24342110NITEROI        RJUNIAO UMB DOS CULTOS AFRO BRAS    28021810 000023
10231987175000168817800093673    00008379                     000083790000000000000109                     I018379      28021800000000035003410000017N291217050900000000000102802180000000000000000000000000000000000000000100053606259769ROSILANE FRANCISCA DOS SANTOS           RUA ARTUR FARIAS N 252                  RIO DO DOURO25922184MAGE           RJUNIAO UMB DOS CULTOS AFRO BRAS    28021810 000024
10231987175000168817800093673    00008378                     000083780000000000000109                     I018378      28021800000000035003410000017N291217050900000000000102802180000000000000000000000000000000000000000100000355768712ANA CRISTINA VERISSIMO DA SILV          ESTRADA DO TINGUI  1990                 CAMPO GRANDE23075006RIO DE JANEIRO RJUNIAO UMB DOS CULTOS AFRO BRAS    28021810 000025
10231987175000168817800093673    00008377                     000083770000000000000109                     I018377      28021800000000035003410000017N291217050900000000000102802180000000000000000000000000000000000000000100007429798659LUCIANA DIAS DE ARRUDA                  RUA CECILIA BRAGA N 16 - SANTO ANTONIO  UBA - MINAS 36500000UBA            MGUNIAO UMB DOS CULTOS AFRO BRAS    28021810 000026
10231987175000168817800093673    00008376                     000083760000000000000109                     I018376      28021800000000035003410000017N291217050900000000000102802180000000000000000000000000000000000000000100012097291724CAROLINA B. DE C. CAVALCANTI            AVENIDA DOM HELDER CAMARA N 9111 BLOCO 1QUINTINO BOC21380008RIO DE JANEIRO RJUNIAO UMB DOS CULTOS AFRO BRAS    28021810 000027
10231987175000168817800093673    00008375                     000083750000000000000109                     I018375      28021800000000035003410000017N291217050900000000000102802180000000000000000000000000000000000000000100003248678755CRISTIANO DA SILVA CORREIA              RUA QUATRO N 51                         SANTA AMELIA26115733BELFORD ROXO   RJUNIAO UMB DOS CULTOS AFRO BRAS    28021810 000028
10231987175000168817800093673    00008374                     000083740000000000000109                     I018374      28021800000000035003410000017N291217050900000000000102802180000000000000000000000000000000000000000100093743920700RITA DE CASSIA COSTA SENNA              RUA COMANDANTE ARY PARREIRAS N 181      CENTRO - SAO25515080SAO JOAO DE MERRJUNIAO UMB DOS CULTOS AFRO BRAS    28021810 000029
10231987175000168817800093673    00008373                     000083730000000000000109                     I018373      28021800000000035003410000017N291217050900000000000102802180000000000000000000000000000000000000000100076636429704SONIA REGINA GOMES AMAZONAS             RUA MAJOR PARENTES N 474 FUNDOS         MAGALHAES BA21735100RIO DE JANEIRO RJUNIAO UMB DOS CULTOS AFRO BRAS    28021810 000030
10231987175000168817800093673    00008372                     000083720000000000000109                     I018372      28021800000000035003410000017N291217050900000000000102802180000000000000000000000000000000000000000100084407883715MAURO FERREIRA MATHEUS                  ESTRADA DO ENGENHO, RUA CASTOR DE ANDRADPRACA PIQUER21370200BANGU          RJUNIAO UMB DOS CULTOS AFRO BRAS    28021810 000031
10231987175000168817800093673    00008371                     000083710000000000000109                     I018371      28021800000000035003410000017N291217050900000000000102802180000000000000000000000000000000000000000100000446671754JUSSARA MATHIAS TEIXEIRA                RUA VEREADOR OSVALDO MARCONDES N 106    JOSE BONIFAC25515380SAO JOAO DE MERRJUNIAO UMB DOS CULTOS AFRO BRAS    28021810 000032
10231987175000168817800093673    00008369                     000083690000000000000109                     I018369      28021800000000035003410000017N291217050900000000000102802180000000000000000000000000000000000000000100008091112769ALINE BEATRIZ GARCIA DA SILVA           RUA ENGENHEIRO HENRIQUE LUSSACK N 936   CENTRO - MES26553500MESQUITA       RJUNIAO UMB DOS CULTOS AFRO BRAS    28021810 000033
10231987175000168817800093673    00008368                     000083680000000000000109                     I018368      28021800000000035003410000017N291217050900000000000102802180000000000000000000000000000000000000000100037497030787LINDINALVA AGUIAR PAVANELLI             O MESMO                                 O MESMO     22230010RIO DE JANEIRO RJUNIAO UMB DOS CULTOS AFRO BRAS    28021810 000034
10231987175000168817800093673    00008367                     000083670000000000000109                     I018367      28021800000000035003410000017N291217050900000000000102802180000000000000000000000000000000000000000100015675954724ALDREN LUCAS GOMES FERREIRA             RUA CARIOCA N 18                        PAU GRANDE -25900000MAGE           RJUNIAO UMB DOS CULTOS AFRO BRAS    28021810 000035
10231987175000168817800093673    00008366                     000083660000000000000109                     I018366      28021800000000035003410000017N291217050900000000000102802180000000000000000000000000000000000000000100015116578712RAFAEL DE LIMA FALCAO                   RUA BARRA DO CHOCA N 63                 GUARATIBA - 23028510RIO DE JANEIRO RJUNIAO UMB DOS CULTOS AFRO BRAS    28021810 000036
10231987175000168817800093673    00008365                     000083650000000000000109                     I018365      28021800000000035003410000017N291217050900000000000102802180000000000000000000000000000000000000000100002139519752CARLA MARIA DE BRITO DOS SANTO          RUA QUINZE  275 CASA 4                  PARQUE SANTA25271750DUQUE DE CAXIASRJUNIAO UMB DOS CULTOS AFRO BRAS    28021810 000037
10231987175000168817800093673    00008364                     000083640000000000000109                     I018364      28021800000000035003410000017N291217050900000000000102802180000000000000000000000000000000000000000100000200790790LUIS JORGE MOCO                         RUA: ECA DE QUEIROS LOTE 74 QUADRA 7    PANTANAL - D25040350DUQUE DE CAXIASRJUNIAO UMB DOS CULTOS AFRO BRAS    28021810 000038
10231987175000168817800093673    00008363                     000083630000000000000109                     I018363      28021800000000035003410000017N291217050900000000000102802180000000000000000000000000000000000000000100005953253605MILTON COELHO DO NASCIMENTO JU          RUA BEZERRA DE MENEZES N 73 APT 102     VAZ LOBO - R21361000RIO DE JANEIRO RJUNIAO UMB DOS CULTOS AFRO BRAS    28021810 000039
10231987175000168817800093673    00008361                     000083610000000000000109                     I018361      28021800000000035003410000017N291217050900000000000102802180000000000000000000000000000000000000000100010368667774SUZANA PEREIRA MOIZINHO                 RUA CONCEICAO DA PEDRA N 77             ARNALDO EUGE23016330CAMPO GRANDE   RJUNIAO UMB DOS CULTOS AFRO BRAS    28021810 000040
10231987175000168817800093673    00008360                     000083600000000000000109                     I018360      28021800000000035003410000017N291217050900000000000102802180000000000000000000000000000000000000000100000937144754EGLEA MARIA DE JESUS ROCHA DE           RUA MARIO GARCIA LOTE 7 QUADRA 60       VILA SANTO A25040370DUQUE DE CAXIASRJUNIAO UMB DOS CULTOS AFRO BRAS    28021810 000041
10231987175000168817800093673    00008359                     000083590000000000000109                     I018359      28021800000000035003410000017N291217050900000000000102802180000000000000000000000000000000000000000100049490087734DIRCE MARA DE OLIVEIRA PAULA            RUA OTILIO LIMA LOTE 2 QUADRA 130       SANTA LUZIA 24721490SAO GONCALO    RJUNIAO UMB DOS CULTOS AFRO BRAS    28021810 000042
10231987175000168817800093673    00008358                     000083580000000000000109                     I018358      28021800000000035003410000017N291217050900000000000102802180000000000000000000000000000000000000000100002578661758ANA MARIA BATISTA DA SILVA              RUA SIMOES DE SOUZA SN LOTE 13 QUADRA 20JARDIM PRIMA25223520DUQUE DE CAXIASRJUNIAO UMB DOS CULTOS AFRO BRAS    28021810 000043
10231987175000168817800093673    00008357                     000083570000000000000109                     I018357      28021800000000035003410000017N291217050900000000000102802180000000000000000000000000000000000000000100011341119750ELAINE BARBOSA DOS SANTOS               ESTRADA DO BARRO VERMELHO N 784         ROCHA MIRAND21540500RIO DE JANEIRO RJUNIAO UMB DOS CULTOS AFRO BRAS    28021810 000044
10231987175000168817800093673    00008356                     000083560000000000000109                     I018356      28021800000000035003410000017N291217050900000000000102802180000000000000000000000000000000000000000100010619254718MARIA TEREZA ANDRADE DOS SANTO          RUA: DOUTOR MANUEL LUIZ N 621           VALVERDE - N26291003NOVA IGUACU    RJUNIAO UMB DOS CULTOS AFRO BRAS    28021810 000045
10231987175000168817800093673    00008355                     000083550000000000000109                     I018355      28021800000000035003410000017N291217050900000000000102802180000000000000000000000000000000000000000100081531095704ROSANA ALMEIDA SILVA                    RUA JOAQUIM MARIANO DE MOURA N 246      PONTO CHIC -26032840NOVA IGUACU    RJUNIAO UMB DOS CULTOS AFRO BRAS    28021810 000046
10231987175000168817800093673    00008354                     000083540000000000000109                     I018354      28021800000000035003410000017N291217050900000000000102802180000000000000000000000000000000000000000100078790344715ROSANE ESTEVES DOS SANTOS               RUA VINTE E DOIS DE MARCO N 14          PRAINHA - DU25010730DUQUE DE CAXIASRJUNIAO UMB DOS CULTOS AFRO BRAS    28021810 000047
10231987175000168817800093673    00008353                     000083530000000000000109                     I018353      28021800000000035003410000017N291217050900000000000102802180000000000000000000000000000000000000000100001236998782ELIANE CASEMIRO GOMES BARBOSA           RUA BARONESA, 175 CASA 17               PRACA SECA -21321000RIO DE JANEIRO RJUNIAO UMB DOS CULTOS AFRO BRAS    28021810 000048
10231987175000168817800093673    00008352                     000083520000000000000109                     I018352      28021800000000035003410000017N291217050900000000000102802180000000000000000000000000000000000000000100059744510749ANGELA REGINA ROSA DE SA                RUA SUEZ, 174 - KM 35                   BOM JESUS - 26298180NOVA IGUACU    RJUNIAO UMB DOS CULTOS AFRO BRAS    28021810 000049
10231987175000168817800093673    00008351                     000083510000000000000109                     I018351      28021800000000035003410000017N291217050900000000000102802180000000000000000000000000000000000000000100059680903753TANIA REGINA DOS SANTOS MARQUE          RUA VISCONDE DE MACEIO, 50 - FRENTE     IRAJA - RIO 21235100RIO DE JANEIRO RJUNIAO UMB DOS CULTOS AFRO BRAS    28021810 000050
10231987175000168817800093673    00008350                     000083500000000000000109                     I018350      28021800000000035003410000017N291217050900000000000102802180000000000000000000000000000000000000000100015137144738RAFAEL NUNES ALVES SALSA                RUA PUIPE, 123                          BENTO RIBEIR21550420RIO DE JANEIRO RJUNIAO UMB DOS CULTOS AFRO BRAS    28021810 000051
10231987175000168817800093673    00008349                     000083490000000000000109                     I018349      28021800000000035003410000017N291217050900000000000102802180000000000000000000000000000000000000000100008629571764SILVANA DA COSTA SANTOS                 RUA H, CASA 11 QUADRA 8                 BALNEARIO - 28940000SAO PEDRO DA ALRJUNIAO UMB DOS CULTOS AFRO BRAS    28021810 000052
10231987175000168817800093673    00008348                     000083480000000000000109                     I018348      28021800000000035003410000017N291217050900000000000102802180000000000000000000000000000000000000000100000099070766INSTEFANI LIZETE NEVES FAUSTIN          RUA CONDADO 20                          PIABETA - MA25900000MAGE           RJUNIAO UMB DOS CULTOS AFRO BRAS    28021810 000053
10231987175000168817800093673    00008346                     000083460000000000000109                     I018346      28021800000000035003410000017N291217050900000000000102802180000000000000000000000000000000000000000100007682577789CLAUDIA CRISTINA CARVALHO AREA          RUA ALFAZEMA, 91 CASA 1                 PADRE MIGUEL21720360RIO DE JANEIRO RJUNIAO UMB DOS CULTOS AFRO BRAS    28021810 000054
10231987175000168817800093673    00008345                     000083450000000000000109                     I018345      28021800000000035003410000017N291217050900000000000102802180000000000000000000000000000000000000000100000912311754PAULO HENRIQUE DA SILVA MOURA           RUA QUATI, 112                          MIGUEL COUTO26060420NOVA IGUACU    RJUNIAO UMB DOS CULTOS AFRO BRAS    28021810 000055
10231987175000168817800093673    00008344                     000083440000000000000109                     I018344      28021800000000035003410000017N291217050900000000000102802180000000000000000000000000000000000000000100050600567753MARIA JOSE DA SILVA                     RUA JULIETA, 7 APTO 201                 PIEDADE - RI20751440RIO DE JANEIRO RJUNIAO UMB DOS CULTOS AFRO BRAS    28021810 000056
10231987175000168817800093673    00008343                     000083430000000000000109                     I018343      28021800000000035003410000017N291217050900000000000102802180000000000000000000000000000000000000000100035750553787SUELY PINHEIRO DA SILVA                 RUA MARILENE VIEIRA DE ASSIS, 850 FUNDOSVILA MARIA H25251500DUQUE DE CAXIASRJUNIAO UMB DOS CULTOS AFRO BRAS    28021810 000057
10231987175000168817800093673    00008342                     000083420000000000000109                     I018342      28021800000000035003410000017N291217050900000000000102802180000000000000000000000000000000000000000100005569373764VIVIANE DA SILVA MERIADE DUART          RUA ARISTIDES LOBO N 44 APT 401         RIO COMPRIDO20150450RIO DE JANEIRO RJUNIAO UMB DOS CULTOS AFRO BRAS    28021810 000058
10231987175000168817800093673    00008341                     000083410000000000000109                     I018341      28021800000000035003410000017N291217050900000000000102802180000000000000000000000000000000000000000100007730416727ALESSANDRA REGINA DOS ANJOS             RUA NEVES, 119                          PARQUE TIETE25585380SAO JOAO DE MERRJUNIAO UMB DOS CULTOS AFRO BRAS    28021810 000059
10231987175000168817800093673    00008340                     000083400000000000000109                     I018340      28021800000000035003410000017N291217050900000000000102802180000000000000000000000000000000000000000100047657383704JAIR LOURENCO DE LIMA                   O MESMO                                 O MESMO     25640340PETROPOLIS     RJUNIAO UMB DOS CULTOS AFRO BRAS    28021810 000060
10231987175000168817800093673    00008339                     000083390000000000000109                     I018339      28021800000000035003410000017N291217050900000000000102802180000000000000000000000000000000000000000100091323762787MARIA ISABEL DE ALBUQUERQUE PI          RUA MANAPA, 159                         VALVERDE - N26290639NOVA IGUACU    RJUNIAO UMB DOS CULTOS AFRO BRAS    28021810 000061
10231987175000168817800093673    00008338                     000083380000000000000109                     I018338      28021800000000035003410000017N291217050900000000000102802180000000000000000000000000000000000000000100005368533713DIVALCI COELHO REINALDO                 RUA CEVADA, 17                          PANTANAL    26297108NOVA IGUACU    RJUNIAO UMB DOS CULTOS AFRO BRAS    28021810 000062
10231987175000168817800093673    00008337                     000083370000000000000109                     I018337      28021800000000035003410000017N291217050900000000000102802180000000000000000000000000000000000000000100010093629761DANIELLE DO NASCIMENTO NICACIO          ESTRADA DA GRANJA, 100 FRENTE           PALHADA - NO26290249NOVA IGUACU    RJUNIAO UMB DOS CULTOS AFRO BRAS    28021810 000063
10231987175000168817800093673    00008336                     000083360000000000000109                     I018336      28021800000000035003410000017N291217050900000000000102802180000000000000000000000000000000000000000100000338518754EDUARDO LUIS E SILVA COIMBRA            RUA DOS INVALIDOS, 138 BLOCO 1 APTO 209 LAPA - CENTR20231046RIO DE JANEIRO RJUNIAO UMB DOS CULTOS AFRO BRAS    28021810 000064
10231987175000168817800093673    00008335                     000083350000000000000109                     I018335      28021800000000035003410000017N291217050900000000000102802180000000000000000000000000000000000000000100081905530706ALBERTO DINIZ RODRIGUES GABRIE          RUA AGAI, S/N QUADRA 38 LOTE 14         PACIENCIA   23065620RIO DE JANEIRO RJUNIAO UMB DOS CULTOS AFRO BRAS    28021810 000065
10231987175000168817800093673    00008334                     000083340000000000000109                     I018334      28021800000000035003410000017N291217050900000000000102802180000000000000000000000000000000000000000100002083733738SELMA ESTEVES DE MORAIS                 RUA PROFESSOR LUIZ CATANHEDE, 77        LARANJEIRAS 22245040RIO DE JANEIRO RJUNIAO UMB DOS CULTOS AFRO BRAS    28021810 000066
10231987175000168817800093673    00008333                     000083330000000000000109                     I018333      28021800000000035003410000017N291217050900000000000102802180000000000000000000000000000000000000000100008448034724CLAUDIA DA SILVA SANTANA                RUA SANTA LUZIA, 115                    NOVA ERA - N26265560NOVA IGUACU    RJUNIAO UMB DOS CULTOS AFRO BRAS    28021810 000067
10231987175000168817800093673    00008332                     000083320000000000000109                     I018332      28021800000000035003410000017N291217050900000000000102802180000000000000000000000000000000000000000100066859123915ROBERTO ALVES DO NASCIMENTO             RUA MARECHAL DEODORO, 499               CENTRO - PAR23970000PARATY         RJUNIAO UMB DOS CULTOS AFRO BRAS    28021810 000068
10231987175000168817800093673    00008331                     000083310000000000000109                     I018331      28021800000000035003410000017N291217050900000000000102802180000000000000000000000000000000000000000100061178543749ROSILDA ALVES DA COSTA                  RUA CUBA CASA 582                       PENHA CIRCUL21200160RIO DE JANEIRO RJUNIAO UMB DOS CULTOS AFRO BRAS    28021810 000069
10231987175000168817800093673    00008330                     000083300000000000000109                     I018330      28021800000000035003410000017N291217050900000000000102802180000000000000000000000000000000000000000100097402508749MARIA DE OLIVEIRA SOUZA SAMPAI          RUA PROJETADA A, 47                     JARDIM NOVA 25000000DUQUE DE CAXIASRJUNIAO UMB DOS CULTOS AFRO BRAS    28021810 000070
10231987175000168817800093673    00008329                     000083290000000000000109                     I028329      28021800000000035003410000017N291217050900000000000102802180000000000000000000000000000000000000000100058369473768INDIODIRIA SANTANA DA SILVA             RUA LUIZ CARLOS DE OLIVEIRA 666         MIGUEL COUTO26070209NOVA IGUACU    RJUNIAO UMB DOS CULTOS AFRO BRAS    28021810 000071
10231987175000168817800093673    00008328                     000083280000000000000109                     I018328      28021800000000035003410000017N291217050900000000000102802180000000000000000000000000000000000000000100071926305787PEDRO PAULO DE ARAUJO MALHEIRO          RUA RAFAEL BORDALO, 31                  GUARATIBA - 23032590RIO DE JANEIRO RJUNIAO UMB DOS CULTOS AFRO BRAS    28021810 000072
10231987175000168817800093673    00008327                     000083270000000000000109                     I018327      28021800000000035003410000017N291217050900000000000102802180000000000000000000000000000000000000000100084394595720FRANCISCO RAUL DA SILVA AZEVED          RUA JORGE LEAL GONCALVES, 37 CASA 2     PACIENCIA - 23587270RIO DE JANEIRO RJUNIAO UMB DOS CULTOS AFRO BRAS    28021810 000073
10231987175000168817800093673    00008326                     000083260000000000000109                     I018326      28021800000000035003410000017N291217050900000000000102802180000000000000000000000000000000000000000100002110875720ALEX DA SILVA GUEDES                    RUA: MOACIR DE ALMEIDA                  TOMAS COELHO20740350RIO DE JANEIRO RJUNIAO UMB DOS CULTOS AFRO BRAS    28021810 000074
10231987175000168817800093673    00008325                     000083250000000000000109                     I018325      28021800000000035003410000017N291217050900000000000102802180000000000000000000000000000000000000000100009770274739DOUGLAS PACHECO PINHEIRO                RUA PROFESSOR ALFREDO GOMES, 43         MANOEL REIS 26515820BELFORD ROXO   RJUNIAO UMB DOS CULTOS AFRO BRAS    28021810 000075
10231987175000168817800093673    00008324                     000083240000000000000109                     I018324      28021800000000035003410000017N291217050900000000000102802180000000000000000000000000000000000000000100004788683750CARLA APARECIDA DA ROCHA RITA           RUA GENERAL SILVEIRA SOBRINHO, 245 APTO VILA DA PENH21221290RIO DE JANEIRO RJUNIAO UMB DOS CULTOS AFRO BRAS    28021810 000076
10231987175000168817800093673    00008323                     000083230000000000000109                     I018323      28021800000000035003410000017N291217050900000000000102802180000000000000000000000000000000000000000100001377431738CARLOS HENRIQUE DOS SANTOS DE           RUA ALVARES CABRAL, 361 CASA 1          CACHAMBI - R20780320RIO DE JANEIRO RJUNIAO UMB DOS CULTOS AFRO BRAS    28021810 000077
10231987175000168817800093673    00008322                     000083220000000000000109                     I028322      28021800000000035003410000017N291217050900000000000102802180000000000000000000000000000000000000000100017483217731EROS PAULINO VELASCO KOPP               RUA VEREADOR ARTHUR MARQUES DOS SANTOS, SANTA RITA -26700000MENDES         RJUNIAO UMB DOS CULTOS AFRO BRAS    28021810 000078
10231987175000168817800093673    00008321                     000083210000000000000109                     I018321      28021800000000035003410000017N291217050900000000000102802180000000000000000000000000000000000000000100007258424741SILVIA MARIA CAIADO DE CASTRO           RUA ESMERALDA VALLADARES, 41 LOTEAMENTO ITAIPU - NIT24342000NITEROI        RJUNIAO UMB DOS CULTOS AFRO BRAS    28021810 000079
10231987175000168817800093673    00008320                     000083200000000000000109                     I018320      28021800000000035003410000017N291217050900000000000102802180000000000000000000000000000000000000000100067560555772ADELSON RODRIGUES DE MATTOS             RUA DONA BELA, 17 CASA 2                TRES PONTES 24809230RIO DE JANEIRO RJUNIAO UMB DOS CULTOS AFRO BRAS    28021810 000080
10231987175000168817800093673    00008319                     000083190000000000000109                     I018319      28021800000000035003410000017N291217050900000000000102802180000000000000000000000000000000000000000100053542886734MARIA LUCIA SOARES PONCE                RUA SOLDADO BERNARDINO DA SILVA, 568 APTVILA KOSMOS 21210020RIO DE JANEIRO RJUNIAO UMB DOS CULTOS AFRO BRAS    28021810 000081
10231987175000168817800093673    00008318                     000083180000000000000109                     I018318      28021800000000035003410000017N291217050900000000000102802180000000000000000000000000000000000000000203210312414870MARCELINA DA SILVA COSTA                RUA ALARICO DE SOUZA, 102 CASA 1        ATALAIA - NI24315000NITEROI        RJUNIAO UMB DOS CULTOS AFRO BRAS    28021810 000082
10231987175000168817800093673    00008317                     000083170000000000000109                     I018317      28021800000000035003410000017N291217050900000000000102802180000000000000000000000000000000000000000100003866737726ALESSANDRO ESTRELA RODRIGUES            RUA B 1 SN QD 49 LT 11 - JD GARRIDO     PEDRA DE GUA23026060PEDRA DE GUARATRJUNIAO UMB DOS CULTOS AFRO BRAS    28021810 000083
10231987175000168817800093673    00008316                     000083160000000000000109                     I018316      28021800000000035003410000017N291217050900000000000102802180000000000000000000000000000000000000000100003611090751ANDREA DA COSTA FERREIRA                RUA CORONEL FRANCA LEITE, 657           EDSON PASSOS26585020MESQUITA       RJUNIAO UMB DOS CULTOS AFRO BRAS    28021810 000084
10231987175000168817800093673    00008315                     000083150000000000000109                     I018315      28021800000000035003410000017N291217050900000000000102802180000000000000000000000000000000000000000100060479612749MARIA SEBASTIANA NOGUEIRA PAIX          RUA DOZE DE FEVEREIRO, 900 CASA 4       BANGU - RJ  21815092RIO DE JANEIRO RJUNIAO UMB DOS CULTOS AFRO BRAS    28021810 000085
10231987175000168817800093673    00008314                     000083140000000000000109                     I018314      28021800000000035003410000017N291217050900000000000102802180000000000000000000000000000000000000000100098300989749SOLANGE MONTEIRO DA SILVA LAMB          RUA EMILIA AZEVEDO, 67 - MANTIQUIRA     XEREM - DUQU25250460DUQUE DE CAXIASRJUNIAO UMB DOS CULTOS AFRO BRAS    28021810 000086
10231987175000168817800093673    00008313                     000083130000000000000109                     I018313      28021800000000035003410000017N291217050900000000000102802180000000000000000000000000000000000000000100054903416704ANTONIO FERNANDO CORREA DE CAR          RUA OLIVEIROS RODRIGUES ALVES, 1974     POSSE - NOVA26030010NOVA IGUACU    RJUNIAO UMB DOS CULTOS AFRO BRAS    28021810 000087
10231987175000168817800093673    00008312                     000083120000000000000109                     I018312      28021800000000035003410000017N291217050900000000000102802180000000000000000000000000000000000000000100039622100759LEIR AUGUSTO DA SILVA                   RUA FRANCISCA GOMES N 111               FRAGOSO - MA25935480MAGE           RJUNIAO UMB DOS CULTOS AFRO BRAS    28021810 000088
10231987175000168817800093673    00008311                     000083110000000000000109                     I018311      28021800000000035003410000017N291217050900000000000102802180000000000000000000000000000000000000000100087162518715VILMA TEJO PEREIRA MAIA                 RUA RONDA ALTA QUADRA 188 LOTE 37       JARDIM MARAV23031320GUARATIBA      RJUNIAO UMB DOS CULTOS AFRO BRAS    28021810 000089
10231987175000168817800093673    00008310                     000083100000000000000109                     I018310      28021800000000035003410000017N291217050900000000000102802180000000000000000000000000000000000000000100097511145787IVANILDO DA SILVA FERREIRA              AVENIDA NOSSA SENHORA DE COPACABANA, 613COPACABANA  22050002RIO DE JANEIRO RJUNIAO UMB DOS CULTOS AFRO BRAS    28021810 000090
10231987175000168817800093673    00008309                     000083090000000000000109                     I018309      28021800000000035003410000017N291217050900000000000102802180000000000000000000000000000000000000000100000461330796TANIA MARIA PEREIRA                     RUA MAPENDI, 366 BLOCO 2 APTO 505       TAQUARA - JA22710255RIO DE JANEIRO RJUNIAO UMB DOS CULTOS AFRO BRAS    28021810 000091
10231987175000168817800093673    00008308                     000083080000000000000109                     I018308      28021800000000035003410000017N291217050900000000000102802180000000000000000000000000000000000000000100003319281755GENILSON CAETANO DA SILVA               RUA JACO MELOTI, 46                     CORUMBA - NO26041790NOVA IGUACU    RJUNIAO UMB DOS CULTOS AFRO BRAS    28021810 000092
10231987175000168817800093673    00008307                     000083070000000000000109                     I018307      28021800000000035003410000017N291217050900000000000102802180000000000000000000000000000000000000000100096322888749DAUREMA CONCEICAO DOCASAR SERA          RUA CORONEL SILVIO LISBOA DA CUNHA, 20  NOSSA SENHOR25964340TERESOPOLIS    RJUNIAO UMB DOS CULTOS AFRO BRAS    28021810 000093
10231987175000168817800093673    00008306                     000083060000000000000109                     I018306      28021800000000035003410000017N291217050900000000000102802180000000000000000000000000000000000000000100093476930734LUCIENE TEIXEIRA DE OLIVEIRA            RUA CACHAMBI  34 APTO 407               CACHAMBI   R20775182RIO DE JANEIRO RJUNIAO UMB DOS CULTOS AFRO BRAS    28021810 000094
10231987175000168817800093673    00008305                     000083050000000000000109                     I018305      28021800000000035003410000017N291217050900000000000102802180000000000000000000000000000000000000000100009776414737NEUSA MARIA PINTO DE CARVALHO           RUA ARARIBOIA, 253 APTO 402             SAO FRANCISC24360340NITEROI        RJUNIAO UMB DOS CULTOS AFRO BRAS    28021810 000095
10231987175000168817800093673    00008304                     000083040000000000000109                     I018304      28021800000000035003410000017N291217050900000000000102802180000000000000000000000000000000000000000100075923866749SUELI ARAUJO DE SOUZA                   AVENIDA OLIVEIRA BELO, 458              VILA DA PENH21221300RIO DE JANEIRO RJUNIAO UMB DOS CULTOS AFRO BRAS    28021810 000096
9                                                                                                                                                                                                                                                                                                                                                                                                         000097
