01REMESSA01COBRANCA       817800093673        União Umb dos Cultos Afro Bra341BANCO ITAU SA  300719                                                                                                                                                                                                                                                                                                      000001
10231987175000168817800093673    000049110                    000491100000000000000109                     I0249110     30091900000000040003410000017N100619105700000000000133009190000000000000000000000000000000000000000100075871505791CARLOS MAGNO DOS SANTOS COUTO           AVENIDA DOM HELDER CAMARAN 2586, FUNDOS MARIA DA GRA21050455RIO DE JANEIRO RJUNIAO UMB DOS CULTOS AFRO BRAS    30091915 000002
21300920190000000000080                                                                                                                                                                                                                                                                                                                                                                                   000003
10231987175000168817800093673    000047671                    000476710000000000000109                     I0247671     30081900000000040003410000017N100619105700000000000133008190000000000000000000000000000000000000000100075871505791CARLOS MAGNO DOS SANTOS COUTO           AVENIDA DOM HELDER CAMARAN 2586, FUNDOS MARIA DA GRA21050455RIO DE JANEIRO RJUNIAO UMB DOS CULTOS AFRO BRAS    30081915 000004
21300820190000000000080                                                                                                                                                                                                                                                                                                                                                                                   000005
10231987175000168817800093673    000046616                    000466160000000000000109                     I0246616     30071900000000040003410000017N100619105700000000000133007190000000000000000000000000000000000000000100012119575789RAYKA DA SILVA BATISTA                  RUA PARAISON 33,                        PIABETA     25931638MAGE           RJUNIAO UMB DOS CULTOS AFRO BRAS    30071915 000006
21300720190000000000080                                                                                                                                                                                                                                                                                                                                                                                   000007
10231987175000168817800093673    000046241                    000462410000000000000109                     I0246241     30071900000000040003410000017N100619105700000000000133007190000000000000000000000000000000000000000100075871505791CARLOS MAGNO DOS SANTOS COUTO           AVENIDA DOM HELDER CAMARAN 2586, FUNDOS MARIA DA GRA21050455RIO DE JANEIRO RJUNIAO UMB DOS CULTOS AFRO BRAS    30071915 000008
21300720190000000000080                                                                                                                                                                                                                                                                                                                                                                                   000009
10231987175000168817800093673    000045842                    000458420000000000000109                     I0245842     30071900000000040003410000017N100619105700000000000133007190000000000000000000000000000000000000000100049214276749MARIA CELESTE HORACIO REIS              RUA QUARENTA E CINCON 0, LOTE 20 QUADRA CAMPO LINDO 23898170SEROPEDICA     RJUNIAO UMB DOS CULTOS AFRO BRAS    30071915 000010
21300720190000000000080                                                                                                                                                                                                                                                                                                                                                                                   000011
10231987175000168817800093673    000045604                    000456040000000000000109                     I0245604     30071900000000040003410000017N100619105700000000000133007190000000000000000000000000000000000000000100005689170739KATIA SILENE MACEDO DOS SANTOS          RUA EUCLIDES ROXON 185,                 REALENGO    21765590RIO DE JANEIRO RJUNIAO UMB DOS CULTOS AFRO BRAS    30071915 000012
21300720190000000000080                                                                                                                                                                                                                                                                                                                                                                                   000013
9                                                                                                                                                                                                                                                                                                                                                                                                         000014
