01REMESSA01COBRANCA       916200163100        União Umb dos Cultos Afro Bra341BANCO ITAU SA  040619                                                                                                                                                                                                                                                                                                      000001
10231987175000168916200163100    000045270                    000452700000000000000109                     I3445270     20051900000000040003410000017N130519105700000000000332005190000000000000000000000000000000000000000100076896960744MARIA LUCIA DE OLIVEIRA NUNES           AVENIDA DO CORRETOR N 116,              VILA ALIANCA21842340RIO DE JANEIRO RJUNIAO UMB DOS CULTOS AFRO BRAS    20051915 000002
21200520190000000001000                                                                                                                                                                                                                                                                                                                                                                                   000003
10231987175000168916200163100    000044694                    000446940000000000000109                     I0244694     30061900000000040003410000017N130319105700000000000333006190000000000000000000000000000000000000000100001786216760WASHINGTON FERNANDO DA CONCEIC          RUA DONA ELVIRAN 0, LOTE 18 QUADRA 61 CANOVO HORIZON25937112MAGE           RJUNIAO UMB DOS CULTOS AFRO BRAS    30061915 000004
21300620190000000001000                                                                                                                                                                                                                                                                                                                                                                                   000005
10231987175000168916200163100    000044558                    000445580000000000000109                     I0244558     30061900000000040003410000017N130319105700000000000333006190000000000000000000000000000000000000000100090618254749NELY MOREIRA GOMES                      RUA MACHADO DE ASSIS N 2, LOTE 12 QUADRASARACURUNA  25211250DUQUE DE CAXIASRJUNIAO UMB DOS CULTOS AFRO BRAS    30061915 000006
21300620190000000001000                                                                                                                                                                                                                                                                                                                                                                                   000007
10231987175000168916200163100    000044303                    000443030000000000000109                     I0244303     30061900000000040003410000017N130319105700000000000333006190000000000000000000000000000000000000000100049681192753CARMENCITA DA FONSECA ROCHA             RUA BEGEN 351, APTO 201 - CONJUNTO DOM BMARAPICU    26295090NOVA IGUACU    RJUNIAO UMB DOS CULTOS AFRO BRAS    30061915 000008
21300620190000000001000                                                                                                                                                                                                                                                                                                                                                                                   000009
10231987175000168916200163100    000043689                    000436890000000000000109                     I3443689     30061900000000040003410000017N130319105700000000000333006190000000000000000000000000000000000000000100011778537790MARIVONE ANTONIA DOS SANTOS             RUA TOMAS FONSECAN 1237,                COMENDADOR S26031512NOVA IGUACU    RJUNIAO UMB DOS CULTOS AFRO BRAS    30061915 000010
21300620190000000001000                                                                                                                                                                                                                                                                                                                                                                                   000011
10231987175000168916200163100    000043473                    000434730000000000000109                     I0243473     30061900000000040003410000017N130319105700000000000333006190000000000000000000000000000000000000000100002065913738ROBSON DE FARIA TORRES                  RUA GENERAL ROCHA CALADON 556,          OLARIA      21070670RIO DE JANEIRO RJUNIAO UMB DOS CULTOS AFRO BRAS    30061915 000012
21300620190000000001000                                                                                                                                                                                                                                                                                                                                                                                   000013
10231987175000168916200163100    000043385                    000433850000000000000109                     I0243385     30061900000000040003410000017N130319105700000000000333006190000000000000000000000000000000000000000100038268264772SANDRA NUNES DE ARAUJO                  RUA UBERABA N 15, VILA ROSARIO          BAIRRO DA GR25041060DUQUE DE CAXIASRJUNIAO UMB DOS CULTOS AFRO BRAS    30061915 000014
21300620190000000001000                                                                                                                                                                                                                                                                                                                                                                                   000015
10231987175000168916200163100    000043019                    000430190000000000000109                     I0243019     30051900000000040003410000017N130319105700000000000333005190000000000000000000000000000000000000000100052889378772ANGELA MARIA DA SILVA ANDRADE           RUA WILSON GILDA MATAN 240, CASA 2      CENTRO      25515101SAO JOAO DE MERRJUNIAO UMB DOS CULTOS AFRO BRAS    30051915 000016
21300520190000000001000                                                                                                                                                                                                                                                                                                                                                                                   000017
10231987175000168916200163100    000042990                    000429900000000000000109                     I3442990     30051900000000040003410000017N130319105700000000000333005190000000000000000000000000000000000000000100008722484701ANA PAULA SILVA DA CRUZ                 RUA: ELVIRA DA FONSECAN 261,            LARGO DO TAN22733150RIO DE JANEIRO RJUNIAO UMB DOS CULTOS AFRO BRAS    30051915 000018
21300520190000000001000                                                                                                                                                                                                                                                                                                                                                                                   000019
10231987175000168916200163100    000042691                    000426910000000000000109                     I0242691     30051900000000040003410000017N130319105700000000000333005190000000000000000000000000000000000000000100003003608789ADRIANA LUCIANA DA SILVA                AVENIDA VICENTE DE CARVALHON 1086,  RUA VICENTE DE C21210024RIO DE JANEIRO RJUNIAO UMB DOS CULTOS AFRO BRAS    30051915 000020
21300520190000000001000                                                                                                                                                                                                                                                                                                                                                                                   000021
10231987175000168916200163100    000042655                    000426550000000000000109                     I0242655     30051900000000040003410000017N130319105700000000000333005190000000000000000000000000000000000000000100049681192753CARMENCITA DA FONSECA ROCHA             RUA BEGEN 351, APTO 201 - CONJUNTO DOM BMARAPICU    26295090NOVA IGUACU    RJUNIAO UMB DOS CULTOS AFRO BRAS    30051915 000022
21300520190000000001000                                                                                                                                                                                                                                                                                                                                                                                   000023
10231987175000168916200163100    000042085                    000420850000000000000109                     I0242085     30051900000000040003410000017N130319105700000000000333005190000000000000000000000000000000000000000100068754485720LUCIA DA CONCEICAO GREGORIO             RUA EPITACIO PESSOAN 0, LOTE 5 QUADRA 15VILA HELIOPO26125520BELFORD ROXO   RJUNIAO UMB DOS CULTOS AFRO BRAS    30051915 000024
21300520190000000001000                                                                                                                                                                                                                                                                                                                                                                                   000025
10231987175000168916200163100    000042076                    000420760000000000000109                     I0242076     30051900000000040003410000017N130319105700000000000333005190000000000000000000000000000000000000000100043194869787JORGE PINHEIRO DE ALMEIDA               RUA CERQUEIRA CESAR N 121, CASA 1       MADUREIRA   21351070RIO DE JANEIRO RJUNIAO UMB DOS CULTOS AFRO BRAS    30051915 000026
21300520190000000001000                                                                                                                                                                                                                                                                                                                                                                                   000027
10231987175000168916200163100    000041830                    000418300000000000000109                     I0241830     30051900000000040003410000017N130319105700000000000333005190000000000000000000000000000000000000000100002065913738ROBSON DE FARIA TORRES                  RUA GENERAL ROCHA CALADON 556,          OLARIA      21070670RIO DE JANEIRO RJUNIAO UMB DOS CULTOS AFRO BRAS    30051915 000028
21300520190000000001000                                                                                                                                                                                                                                                                                                                                                                                   000029
10231987175000168916200163100    000041804                    000418040000000000000109                     I3441804     30051900000000040003410000017N130319105700000000000333005190000000000000000000000000000000000000000100032996659600FERNANDO JUSTINO PALMEIRA               ESTRADA DE JACONE N 569,                SAMPAIO CORR28990000SAQUAREMA      RJUNIAO UMB DOS CULTOS AFRO BRAS    30051915 000030
21300520190000000001000                                                                                                                                                                                                                                                                                                                                                                                   000031
10231987175000168916200163100    000041743                    000417430000000000000109                     I0241743     30051900000000040003410000017N130319105700000000000333005190000000000000000000000000000000000000000100038268264772SANDRA NUNES DE ARAUJO                  RUA UBERABA N 15, VILA ROSARIO          BAIRRO DA GR25041060DUQUE DE CAXIASRJUNIAO UMB DOS CULTOS AFRO BRAS    30051915 000032
21300520190000000001000                                                                                                                                                                                                                                                                                                                                                                                   000033
10231987175000168916200163100    000041017                    000410170000000000000109                     I0241017     30041900000000040003410000017N120319105700000000000333004190000000000000000000000000000000000000000100049681192753CARMENCITA DA FONSECA ROCHA             RUA BEGEN 351, APTO 201 - CONJUNTO DOM BMARAPICU    26295090NOVA IGUACU    RJUNIAO UMB DOS CULTOS AFRO BRAS    30041915 000034
21300420190000000001000                                                                                                                                                                                                                                                                                                                                                                                   000035
10231987175000168916200163100    000040411                    000404110000000000000109                     I3440411     30041900000000040003410000017N120319105700000000000333004190000000000000000000000000000000000000000100011778537790MARIVONE ANTONIA DOS SANTOS             RUA TOMAS FONSECAN 1237,                COMENDADOR S26031512NOVA IGUACU    RJUNIAO UMB DOS CULTOS AFRO BRAS    30041915 000036
21300420190000000001000                                                                                                                                                                                                                                                                                                                                                                                   000037
10231987175000168916200163100    000040197                    000401970000000000000109                     I0240197     30041900000000040003410000017N120319105700000000000333004190000000000000000000000000000000000000000100002065913738ROBSON DE FARIA TORRES                  RUA GENERAL ROCHA CALADON 556,          OLARIA      21070670RIO DE JANEIRO RJUNIAO UMB DOS CULTOS AFRO BRAS    30041915 000038
21300420190000000001000                                                                                                                                                                                                                                                                                                                                                                                   000039
10231987175000168916200163100    000040111                    000401110000000000000109                     I0240111     30041900000000040003410000017N120319105700000000000333004190000000000000000000000000000000000000000100038268264772SANDRA NUNES DE ARAUJO                  RUA UBERABA N 15, VILA ROSARIO          BAIRRO DA GR25041060DUQUE DE CAXIASRJUNIAO UMB DOS CULTOS AFRO BRAS    30041915 000040
21300420190000000001000                                                                                                                                                                                                                                                                                                                                                                                   000041
9                                                                                                                                                                                                                                                                                                                                                                                                         000042
