01REMESSA01COBRANCA       817800093673        União Umb dos Cultos Afro Bra341BANCO ITAU SA  301018                                                                                                                                                                                                                                                                                                      000001
10231987175000168817800093673    000033335                    000333350000000000000109                     I0133335     05111800000000035003410000017N301018104700000000000100511180000000000000000000000000000000000000000100000907912745JULIO CESAR FRANCA CORREA               RUA ITAPERUNA                           VILA DE CAVA26056260NOVA IGUACU    RJUNIAO UMB DOS CULTOS AFRO BRAS    05111810 000002
10231987175000168817800093673    000033334                    000333340000000000000109                     I0133334     10111800000000070003410000017N301018104700000000000101011180000000000000000000000000000000000000000100057231737749ELIZABETE CARVALHO COSTA                RUA EXPEDICIONARIO SIMAO FERNANDES      COLUMBANDE  24451700SAO GONCALO    RJUNIAO UMB DOS CULTOS AFRO BRAS    10111810 000003
10231987175000168817800093673    000033333                    000333330000000000000109                     I0133333     20121800000000400003410000017N301018104700000000000102012180000000000000000000000000000000000000000100000000000582MARIA DA GLORIA SANTOS MIRANDA          AVENIDA FREDERICO FAULHABER             JARDIM NOVO 21760000RIO DE JANEIRO RJUNIAO UMB DOS CULTOS AFRO BRAS    20121810 000004
10231987175000168817800093673    000033332                    000333320000000000000109                     I0133332     30111800000000500003410000017N301018104700000000000103011180000000000000000000000000000000000000000100012253859702FRANCINY CABRAL FONTES                  AVENIDA HUMBERTO SOEIRO DE CARVALHO     IPITUNA     28550000SAO SEBASTIAO DRJUNIAO UMB DOS CULTOS AFRO BRAS    30111810 000005
10231987175000168817800093673    000033331                    000333310000000000000109                     I0133331     20121800000000380003410000017N301018104700000000000102012180000000000000000000000000000000000000000100000840541740JUCIARA GONCALVES NEPOMUCENO            LOTEAMENTO DEZESSEIS                    GRAMA - MIGU26070000BELFORD ROXO   RJUNIAO UMB DOS CULTOS AFRO BRAS    20121810 000006
10231987175000168817800093673    000032553                    000325530000000000000109                     I0232553     20121800000000350003410000017N291018104700000000000102012180000000000000000000000000000000000000000100001817781731JORGE LUIZ MENDES DA CUNHA              RUA VASCO DA GAMA                       CACHAMBI    20771310RIO DE JANEIRO RJUNIAO UMB DOS CULTOS AFRO BRAS    20121810 000007
10231987175000168817800093673    000029077                    000290770000000000000109                     I0229077     20121800000000035003410000017N291018104700000000000102012180000000000000000000000000000000000000000100010026251736SILVIA MARIA DE MOURA                   ESTRADA: SANTA EFIGENIA,                TAQUARA - JA22775780RIO DE JANEIRO RJUNIAO UMB DOS CULTOS AFRO BRAS    20121810 000008
10231987175000168817800093673    000027138                    000271380000000000000109                     I0227138     30111800000000035003410000017N200818104700000000000103011180000000000000000000000000000000000000000100010026251736SILVIA MARIA DE MOURA                   ESTRADA: SANTA EFIGENIA,                TAQUARA - JA22775780RIO DE JANEIRO RJUNIAO UMB DOS CULTOS AFRO BRAS    30111810 000009
10231987175000168817800093673    000026793                    000267930000000000000109                     I0226793     30091800000000035003410000017N200818104700000000000103009180000000000000000000000000000000000000000100007900227709FLAVIA ARAUJO DA ROCHA SANTOS           RUA MARECHAL AGRICOLA                   REALENGO    21735370RIO DE JANEIRO RJUNIAO UMB DOS CULTOS AFRO BRAS    30091810 000010
10231987175000168817800093673    000026724                    000267240000000000000109                     I0226724     30091800000000035003410000017N200818104700000000000103009180000000000000000000000000000000000000000100057231737749ELIZABETE CARVALHO COSTA                RUA EXPEDICIONARIO SIMAO FERNANDES      COLUMBANDE  24451700SAO GONCALO    RJUNIAO UMB DOS CULTOS AFRO BRAS    30091810 000011
10231987175000168817800093673    000025724                    000257240000000000000109                     I0225724     30091800000000035003410000017N200818104700000000000103009180000000000000000000000000000000000000000100010026251736SILVIA MARIA DE MOURA                   ESTRADA: SANTA EFIGENIA,                TAQUARA - JA22775780RIO DE JANEIRO RJUNIAO UMB DOS CULTOS AFRO BRAS    30091810 000012
10231987175000168817800093673    000024304                    000243040000000000000109                     I0224304     30101800000000035003410000017N200818104700000000000103010180000000000000000000000000000000000000000100010026251736SILVIA MARIA DE MOURA                   ESTRADA: SANTA EFIGENIA,                TAQUARA - JA22775780RIO DE JANEIRO RJUNIAO UMB DOS CULTOS AFRO BRAS    30101810 000013
9                                                                                                                                                                                                                                                                                                                                                                                                         000014
