01REMESSA01COBRANCA       817800093673        União Umb dos Cultos Afro Bra341BANCO ITAU SA  190219                                                                                                                                                                                                                                                                                                      000001
10231987175000168817800093673    000033303                    000333030000000000000109                     I0233303     20121800000000400003410000017N291018104700000000000102012180000000000000000000000000000000000000000100000101414722CELIA REGINA CARVALHO                   RUA FELIPE CAMARAO N 310, BAR DA VALERIARETIRO      25680510PETROPOLIS     RJUNIAO UMB DOS CULTOS AFRO BRAS    20121810 000002
10231987175000168817800093673    000033297                    000332970000000000000109                     I0233297     20121800000000400003410000017N291018104700000000000102012180000000000000000000000000000000000000000100008030521707MONICA MIRANDA DE BARROS                RUA VISCONDE DE TOCANTIS N 43, APTº 403MEIER       20775070RIO DE JANEIRO RJUNIAO UMB DOS CULTOS AFRO BRAS    20121810 000003
10231987175000168817800093673    000033296                    000332960000000000000109                     I0233296     20121800000000400003410000017N291018104700000000000102012180000000000000000000000000000000000000000100002101171767HELENA DE JESUS                         RUA JOAO ROMEIRON 37, CASA 3            CASCADURA   21311000RIO DE JANEIRO RJUNIAO UMB DOS CULTOS AFRO BRAS    20121810 000004
10231987175000168817800093673    000033295                    000332950000000000000109                     I0233295     20121800000000350003410000017N291018104700000000000102012180000000000000000000000000000000000000000100032140649320ROSA ELENA ALVES DA COSTA               RUA: NILTON CORDEIRON 57, CASA          MARE        21044052RIO DE JANEIRO RJUNIAO UMB DOS CULTOS AFRO BRAS    20121810 000005
10231987175000168817800093673    000033293                    000332930000000000000109                     I0233293     20121800000000380003410000017N291018104700000000000102012180000000000000000000000000000000000000000100073943266753LAINE VERONICA ALVES MONTEIRO           RUA: SEABRA SOBRINHO N 749, CASA 1      VILA CENTENA25030190DUQUE DE CAXIASRJUNIAO UMB DOS CULTOS AFRO BRAS    20121810 000006
10231987175000168817800093673    000033291                    000332910000000000000109                     I0233291     20121800000000350003410000017N291018104700000000000102012180000000000000000000000000000000000000000100008068599703CLEIDE JANE ROCHA CONTE                 RUA: CN 111, CASA 1                     PARQUE AMORI26185342BELFORD ROXO   RJUNIAO UMB DOS CULTOS AFRO BRAS    20121810 000007
10231987175000168817800093673    000033290                    000332900000000000000109                     I0233290     20121800000000380003410000017N291018104700000000000102012180000000000000000000000000000000000000000100016931588761IGOR RODRIGUES DA SILVA                 RUA: EMBAUN 1822, PARQUE COLUMBIA       PAVUNA      21535000RIO DE JANEIRO RJUNIAO UMB DOS CULTOS AFRO BRAS    20121810 000008
10231987175000168817800093673    000033289                    000332890000000000000109                     I0233289     20121800000000350003410000017N291018104700000000000102012180000000000000000000000000000000000000000100008379116720ALLAN SOUZA PEREIRA FERREIRA            BECO DOS SONHOSN 9,                     SANTA CRUZ  23591400RIO DE JANEIRO RJUNIAO UMB DOS CULTOS AFRO BRAS    20121810 000009
10231987175000168817800093673    000033285                    000332850000000000000109                     I0233285     20121800000000380003410000017N291018104700000000000102012180000000000000000000000000000000000000000100099447690700CARLA LESSA QUINTANILHA VASCON          RUA: BORBOREMAN 103, CASA 201           MADUREIRA   21360150RIO DE JANEIRO RJUNIAO UMB DOS CULTOS AFRO BRAS    20121810 000010
10231987175000168817800093673    000033284                    000332840000000000000109                     I0233284     20121800000000350003410000017N291018104700000000000102012180000000000000000000000000000000000000000100008566591771TAISSA RIBEIRO PETRA MELLO              RODOVIA AMARAL PEIXOTON 0, KM 29 QUADRA FLAMENGO    24904140MARICA         RJUNIAO UMB DOS CULTOS AFRO BRAS    20121810 000011
10231987175000168817800093673    000033280                    000332800000000000000109                     I0233280     20121800000000380003410000017N291018104700000000000102012180000000000000000000000000000000000000000100014165634743GLAUBER VINICIUS DE ALMEIDA BA          RUA SAO CARLOSN 75,                     ESTACIO     20250052RIO DE JANEIRO RJUNIAO UMB DOS CULTOS AFRO BRAS    20121810 000012
10231987175000168817800093673    000033279                    000332790000000000000109                     I0233279     20121800000000380003410000017N291018104700000000000102012180000000000000000000000000000000000000000100095906746749KATIA LOPES SOARES                      ESTRADA PAU DA FOMEN 3265,              TAQUARA     22723347RIO DE JANEIRO RJUNIAO UMB DOS CULTOS AFRO BRAS    20121810 000013
10231987175000168817800093673    000033278                    000332780000000000000109                     I0233278     20121800000000380003410000017N291018104700000000000102012180000000000000000000000000000000000000000100012303421764PEDRO JONAS ARAUJO CORDEIRO             RUA JOSE LIMA DA SILVAN 0, LOTE 7 QUADRASANTA RITA  26185610BELFORD ROXO   RJUNIAO UMB DOS CULTOS AFRO BRAS    20121810 000014
10231987175000168817800093673    000033277                    000332770000000000000109                     I0233277     20121800000000350003410000017N291018104700000000000102012180000000000000000000000000000000000000000100000000000000REINALDO FERREIRA DOS SANTOS            RUA LESTEN 5,                           JARDIM PARAI26297294NOVA IGUACU    RJUNIAO UMB DOS CULTOS AFRO BRAS    20121810 000015
10231987175000168817800093673    000033276                    000332760000000000000109                     I0233276     20121800000000350003410000017N291018104700000000000102012180000000000000000000000000000000000000000100003413776789CRISTIANE DE SOUZA GALANTE INA          BECO DA SERVIDAON 70, CASA 3            ENGENHEIRO B25520370SAO JOAO DE MERRJUNIAO UMB DOS CULTOS AFRO BRAS    20121810 000016
10231987175000168817800093673    000033275                    000332750000000000000109                     I0233275     20121800000000380003410000017N291018104700000000000102012180000000000000000000000000000000000000000100085965871791VALERIA MENDES BARBOSA DOS SAN          RUA PAULINA SENDERN 118, CASA 1B        JARDIM NOVA 26266140NOVA IGUACU    RJUNIAO UMB DOS CULTOS AFRO BRAS    20121810 000017
10231987175000168817800093673    000033274                    000332740000000000000109                     I0233274     20121800000000380003410000017N291018104700000000000102012180000000000000000000000000000000000000000100008323642745ROSEMERI DE SOUZA COUTINHO              RUA VERA LUCIA N 0, LOTE 20 QUADRA 3    CABUCU      26291452NOVA IGUACU    RJUNIAO UMB DOS CULTOS AFRO BRAS    20121810 000018
10231987175000168817800093673    000033273                    000332730000000000000109                     I0233273     20121800000000380003410000017N291018104700000000000102012180000000000000000000000000000000000000000100007147220730LUIS CARLOS DA COSTA OLIVEIRA           RUA MINAS GERAIS N 0, LOTE 11 QUADRA 159CAMPO ALEGRE26292141NOVA IGUACU    RJUNIAO UMB DOS CULTOS AFRO BRAS    20121810 000019
10231987175000168817800093673    000033272                    000332720000000000000109                     I0233272     20121800000000380003410000017N291018104700000000000102012180000000000000000000000000000000000000000100002834617724LUCIANA CLEMENTE DAS NEVES              RUA INACIO TOSTAN 306, CASA 2           HONORIO GURG21511180RIO DE JANEIRO RJUNIAO UMB DOS CULTOS AFRO BRAS    20121810 000020
10231987175000168817800093673    000033271                    000332710000000000000109                     I0233271     20121800000000400003410000017N291018104700000000000102012180000000000000000000000000000000000000000100036139050782VIRGINIA DANTAS FERREIRA                RUA PROFESSOR ALPHEU PORTELA N 127, CONDTAQUARA     22725130RIO DE JANEIRO RJUNIAO UMB DOS CULTOS AFRO BRAS    20121810 000021
10231987175000168817800093673    000033267                    000332670000000000000109                     I0233267     20121800000000300003410000017N291018104700000000000102012180000000000000000000000000000000000000000100003389142770VANIA VIEIRA                            RUA NAMURN 276, CASA 2                  VILA VALQUEI21330600RIO DE JANEIRO RJUNIAO UMB DOS CULTOS AFRO BRAS    20121810 000022
10231987175000168817800093673    000033266                    000332660000000000000109                     I0233266     20121800000000350003410000017N291018104700000000000102012180000000000000000000000000000000000000000100008350095725LUIZ LUCIANO ADAO                       RUA ALAGOASN 226, FUNDOS                SANTA CRUZ D25255070DUQUE DE CAXIASRJUNIAO UMB DOS CULTOS AFRO BRAS    20121810 000023
10231987175000168817800093673    000033264                    000332640000000000000109                     I0233264     20121800000000350003410000017N291018104700000000000102012180000000000000000000000000000000000000000100007202542722MIRLA SUSANI DA SILVA SALES             RUA: DOUTOR FREDERICON 395,             LAGOINHA    26296414NOVA IGUACU    RJUNIAO UMB DOS CULTOS AFRO BRAS    20121810 000024
10231987175000168817800093673    000033262                    000332620000000000000109                     I0233262     20121800000000350003410000017N291018104700000000000102012180000000000000000000000000000000000000000100068117850710GILCLEIDE DOS SANTOS GOMES              AVENIDA: JOAO VINTE E TRES N 1900, RUA DSANTA CRUZ  23560352RIO DE JANEIRO RJUNIAO UMB DOS CULTOS AFRO BRAS    20121810 000025
10231987175000168817800093673    000033261                    000332610000000000000109                     I0233261     20121800000000350003410000017N291018104700000000000102012180000000000000000000000000000000000000000100008283050800JOSE RICARDO DE MOURA                   RUA TENENTE SILVINON 204,               CERAMICA    26030126NOVA IGUACU    RJUNIAO UMB DOS CULTOS AFRO BRAS    20121810 000026
10231987175000168817800093673    000033259                    000332590000000000000109                     I0233259     20121800000000350003410000017N291018104700000000000102012180000000000000000000000000000000000000000100016840152782DARIO JOSE DA SILVA FILHO               RUA: ALTANEIRA N 0, LOTE 9 QUADRA F     CAMPO GRANDE23095060RIO DE JANEIRO RJUNIAO UMB DOS CULTOS AFRO BRAS    20121810 000027
10231987175000168817800093673    000033258                    000332580000000000000109                     I0233258     20121800000000350003410000017N291018104700000000000102012180000000000000000000000000000000000000000100075164779749IVANILDO FURTADO DA SILVA               RUA: LUIZ DE CASTRON 206, FUNDOS        PILARES     21760732RIO DE JANEIRO RJUNIAO UMB DOS CULTOS AFRO BRAS    20121810 000028
10231987175000168817800093673    000033256                    000332560000000000000109                     I0233256     20121800000000350003410000017N291018104700000000000102012180000000000000000000000000000000000000000100002098051700FELIPE LOPES DA COSTA CHAVES            RUA: JOSE PINTO FAUSTINON 0, LOTE 14 QUAIPIRANGA    26293441NOVA IGUACU    RJUNIAO UMB DOS CULTOS AFRO BRAS    20121810 000029
10231987175000168817800093673    000033254                    000332540000000000000109                     I0233254     20121800000000350003410000017N291018104700000000000102012180000000000000000000000000000000000000000100012119575789RAYKA DA SILVA BATISTA                  RUA PARAISON 33,                        PIABETA     25931638MAGE           RJUNIAO UMB DOS CULTOS AFRO BRAS    20121810 000030
10231987175000168817800093673    000033253                    000332530000000000000109                     I0233253     20121800000000400003410000017N291018104700000000000102012180000000000000000000000000000000000000000100015041746745ANAISE SOARES DO CARMO                  RUA JOSE FRANCISCO ALVESN 48,           SEPETIBA    23542120RIO DE JANEIRO RJUNIAO UMB DOS CULTOS AFRO BRAS    20121810 000031
10231987175000168817800093673    000033252                    000332520000000000000109                     I0233252     20121800000000350003410000017N291018104700000000000102012180000000000000000000000000000000000000000100001105664759NANCI GOMES BORGES PINTO                RUA: ORLANDO FRANCISCO JUNIORN 0, LOTE 2CAMPO LINDO 23898435SEROPEDICA     RJUNIAO UMB DOS CULTOS AFRO BRAS    20121810 000032
10231987175000168817800093673    000033249                    000332490000000000000109                     I0233249     20121800000000400003410000017N291018104700000000000102012180000000000000000000000000000000000000000100002414887702MARGARETH MARIA DA SILVA GONCA          RUA: SEBASTIAO DE CARVALHON 158,        RAMOS       21061670RIO DE JANEIRO RJUNIAO UMB DOS CULTOS AFRO BRAS    20121810 000033
10231987175000168817800093673    000033248                    000332480000000000000109                     I0233248     20121800000000400003410000017N291018104700000000000102012180000000000000000000000000000000000000000100066645352700NILZA BELISARIO DAMIAO                  ESTRADA SANTA VERIDIANA N 1400, BLOCO 1 SANTA CRUZ  23525254RIO DE JANEIRO RJUNIAO UMB DOS CULTOS AFRO BRAS    20121810 000034
10231987175000168817800093673    000033247                    000332470000000000000109                     I0233247     20121800000000400003410000017N291018104700000000000102012180000000000000000000000000000000000000000100009572644700FABIO DE SOUZA BARBOSA                  RUA NOSSA SENHORA DA PAZ N 11, CASA     MANGUEIRA   20941440RIO DE JANEIRO RJUNIAO UMB DOS CULTOS AFRO BRAS    20121810 000035
10231987175000168817800093673    000033244                    000332440000000000000109                     I0233244     20121800000000350003410000017N291018104700000000000102012180000000000000000000000000000000000000000100053860225120OTILIA REGINA DE ALENCAR                RUA ITAPEMIRIMN 87,                     SANTA CRUZ  23550310RIO DE JANEIRO RJUNIAO UMB DOS CULTOS AFRO BRAS    20121810 000036
10231987175000168817800093673    000033242                    000332420000000000000109                     I0233242     20121800000000350003410000017N291018104700000000000102012180000000000000000000000000000000000000000100092802737791CARMEN DEA NOGUEIRA DIAS                AVENIDA MACHADO DE ASSISN 0, LOTE 17 QUAVILA IBIRAPI23811820ITAGUAI        RJUNIAO UMB DOS CULTOS AFRO BRAS    20121810 000037
10231987175000168817800093673    000033238                    000332380000000000000109                     I0233238     20121800000000400003410000017N291018104700000000000102012180000000000000000000000000000000000000000100014328358740SILAS BARBOSA DE SOUZA                  ESTRADA REAL DE MAUA N 1901, CASA 11 TRAJARDIM DA PA25926684RIO DE JANEIRO RJUNIAO UMB DOS CULTOS AFRO BRAS    20121810 000038
10231987175000168817800093673    000033236                    000332360000000000000109                     I0233236     20121800000000350003410000017N291018104700000000000102012180000000000000000000000000000000000000000100074641980772IRENE MARQUES DA MOTA                   RUA: PORTO CAMARGON 0, CASA 1 LOTE 9 QUAJARDIM MARAV23033170GUARATIBA      RJUNIAO UMB DOS CULTOS AFRO BRAS    20121810 000039
10231987175000168817800093673    000033235                    000332350000000000000109                     I0233235     20121800000000350003410000017N291018104700000000000102012180000000000000000000000000000000000000000100005818072789MARLUCE MARIA DE OLIVEIRA               RUA PAHANDN 0, LOTE 20 QUADRA 10        SANTA TEREZA26193500BELFORD ROXO   RJUNIAO UMB DOS CULTOS AFRO BRAS    20121810 000040
10231987175000168817800093673    000033229                    000332290000000000000109                     I0233229     20121800000000350003410000017N291018104700000000000102012180000000000000000000000000000000000000000100029759030730JOSE ROBERTO MELLO COIMBRA              RUA SALVADOR SABATEN 311,               REALENGO    21760020RIO DE JANEIRO RJUNIAO UMB DOS CULTOS AFRO BRAS    20121810 000041
10231987175000168817800093673    000033228                    000332280000000000000109                     I0233228     20121800000000400003410000017N291018104700000000000102012180000000000000000000000000000000000000000100093265883787ROSANGELA BARBOSA DE CARVALHO           RUA DA USINAN 651,                      PARQUE LEOPO21815180RIO DE JANEIRO RJUNIAO UMB DOS CULTOS AFRO BRAS    20121810 000042
10231987175000168817800093673    000033227                    000332270000000000000109                     I0233227     20121800000000350003410000017N291018104700000000000102012180000000000000000000000000000000000000000100010212584740TIAGO VEROL DE SOUZA                    ESTRADA: DO VIEGASN 28, CASA 4          SENADOR CAMA21832006RIO DE JANEIRO RJUNIAO UMB DOS CULTOS AFRO BRAS    20121810 000043
10231987175000168817800093673    000033224                    000332240000000000000109                     I0233224     20121800000000350003410000017N291018104700000000000102012180000000000000000000000000000000000000000100001860329780VIVIANE DE PAULA AGNELO                 RUA DA VITORIAN 175,                    PARAISO     26297138NOVA IGUACU    RJUNIAO UMB DOS CULTOS AFRO BRAS    20121810 000044
10231987175000168817800093673    000033223                    000332230000000000000109                     I0233223     20121800000000350003410000017N291018104700000000000102012180000000000000000000000000000000000000000100007416975727ANGELICA AMARAL GOTELIP BARBOS          RUA MARECHAL MARCIANO - TRAVESSA 120N 0,REALENGO    21735652RIO DE JANEIRO RJUNIAO UMB DOS CULTOS AFRO BRAS    20121810 000045
10231987175000168817800093673    000033222                    000332220000000000000109                     I0233222     20121800000000350003410000017N291018104700000000000102012180000000000000000000000000000000000000000100009350031779TAIS AZEVEDO DOS SANTOS CAMPOS          RUA: CLOTILDE DE OLIVEIRA RODRIGUESN 46,FONSECA     24120170NITEROI        RJUNIAO UMB DOS CULTOS AFRO BRAS    20121810 000046
10231987175000168817800093673    000033221                    000332210000000000000109                     I0233221     20121800000000350003410000017N291018104700000000000102012180000000000000000000000000000000000000000100009329422705FABIO SANTANA DE ANDRADE                RUA: GENERAL SILVEIRA SOBRINHON 452,    VILA DA PENH21221290RIO DE JANEIRO RJUNIAO UMB DOS CULTOS AFRO BRAS    20121810 000047
10231987175000168817800093673    000033219                    000332190000000000000109                     I0233219     20121800000000350003410000017N291018104700000000000102012180000000000000000000000000000000000000000100009297297730FLAVIO JOAQUIM DOS SANTOS               RUA: SAO PAULON 0,                      PALMARES    23585800RIO DE JANEIRO RJUNIAO UMB DOS CULTOS AFRO BRAS    20121810 000048
10231987175000168817800093673    000033218                    000332180000000000000109                     I0233218     20121800000000350003410000017N291018104700000000000102012180000000000000000000000000000000000000000100008283706721LEVY ANDRE ASSIS FERREIRA DA S          TRAVESSA SANTO ANTONIO N 462, CASA 2    MARECHAL HER21557190RIO DE JANEIRO RJUNIAO UMB DOS CULTOS AFRO BRAS    20121810 000049
10231987175000168817800093673    000033217                    000332170000000000000109                     I0233217     20121800000000350003410000017N291018104700000000000102012180000000000000000000000000000000000000000100010440702771AMANDA APARECIDA AZEVEDO CARDO          TRAVESSA MANOELN 5, VILA VERDE          CAMPO GRANDE23071160RIO DE JANEIRO RJUNIAO UMB DOS CULTOS AFRO BRAS    20121810 000050
10231987175000168817800093673    000033216                    000332160000000000000109                     I0233216     20121800000000350003410000017N291018104700000000000102012180000000000000000000000000000000000000000100011709990775JOYCE MARA PINHEIRO DA SILVA            RUA SILVIO TIBIRICAN 507,               TURIACU     21540200RIO DE JANEIRO RJUNIAO UMB DOS CULTOS AFRO BRAS    20121810 000051
10231987175000168817800093673    000033215                    000332150000000000000109                     I0233215     20121800000000350003410000017N291018104700000000000102012180000000000000000000000000000000000000000100014963009714MICHELLE DA SILVA SOARES                RUA DONA CELINAN 215,                   PIABETA     25935702MAGE           RJUNIAO UMB DOS CULTOS AFRO BRAS    20121810 000052
10231987175000168817800093673    000033214                    000332140000000000000109                     I0233214     20121800000000350003410000017N291018104700000000000102012180000000000000000000000000000000000000000100002305172770VALDIRENE ALBUQUERQUE MARCIEL           RUA GUARAGUATATUBAN 320,                VILA ROSARIO25030040DUQUE DE CAXIASRJUNIAO UMB DOS CULTOS AFRO BRAS    20121810 000053
10231987175000168817800093673    000033213                    000332130000000000000109                     I0233213     20121800000000350003410000017N291018104700000000000102012180000000000000000000000000000000000000000100000213766701ROSIVANIA CRUZ DA SILVA                 RUA PRIMEIRAN 0, BLOCO 2                SANTA CRUZ  23515180RIO DE JANEIRO RJUNIAO UMB DOS CULTOS AFRO BRAS    20121810 000054
10231987175000168817800093673    000033209                    000332090000000000000109                     I0233209     20121800000000350003410000017N291018104700000000000102012180000000000000000000000000000000000000000100005380679773ROBERTO DE OLIVEIRA RIBEIRO JU          RUA VINTE E TRESN 149, CASA 2 QUADRA 7  CONJUNTO CES23500000RIO DE JANEIRO RJUNIAO UMB DOS CULTOS AFRO BRAS    20121810 000055
10231987175000168817800093673    000033207                    000332070000000000000109                     I0233207     20121800000000350003410000017N291018104700000000000102012180000000000000000000000000000000000000000100052889378772ANGELA MARIA DA SILVA ANDRADE           RUA WILSON GIL DA MATTAN 240, CASA 3    CENTRO      25515101SAO JOAO DE MERRJUNIAO UMB DOS CULTOS AFRO BRAS    20121810 000056
10231987175000168817800093673    000033206                    000332060000000000000109                     I0233206     20121800000000350003410000017N291018104700000000000102012180000000000000000000000000000000000000000100010486021769SIDNEY RODRIGUES DA SILVA JUNI          RUA NILTON GARCIA N 130, FUNDOS         SAGRADO CORA23065520PACIENCIA      RJUNIAO UMB DOS CULTOS AFRO BRAS    20121810 000057
10231987175000168817800093673    000033205                    000332050000000000000109                     I0233205     20121800000000350003410000017N291018104700000000000102012180000000000000000000000000000000000000000100001244562785LUIS CARLOS RIBEIRO                     RUA: NEIDE AFONSON 0, LOTE 5 QUADRA 14  SHANGRILA RO26150020BELFORD ROXO   RJUNIAO UMB DOS CULTOS AFRO BRAS    20121810 000058
10231987175000168817800093673    000033204                    000332040000000000000109                     I0233204     20121800000000350003410000017N291018104700000000000102012180000000000000000000000000000000000000000100003256338780REGINALDO ROSA DA SILVA                 RUA: TOMINASN 341,                      IPIRANGA ALI26293381NOVA IGUACU    RJUNIAO UMB DOS CULTOS AFRO BRAS    20121810 000059
10231987175000168817800093673    000033202                    000332020000000000000109                     I0233202     20121800000000400003410000017N291018104700000000000102012180000000000000000000000000000000000000000100041998839753MARIA HELENA FERREIRA DA SILVA          RUA: SEBASTIAO DE OLIVEIRAN 2,          PACIENCIA   23595100RIO DE JANEIRO RJUNIAO UMB DOS CULTOS AFRO BRAS    20121810 000060
10231987175000168817800093673    000033198                    000331980000000000000109                     I0233198     20121800000000350003410000017N291018104700000000000102012180000000000000000000000000000000000000000100093521987787KATIA CRISTINA DANNEMBERG               ESTRADA DO PORTINHON 149, CASA          IRAJA       21235400RIO DE JANEIRO RJUNIAO UMB DOS CULTOS AFRO BRAS    20121810 000061
10231987175000168817800093673    000033197                    000331970000000000000109                     I0233197     20121800000000350003410000017N291018104700000000000102012180000000000000000000000000000000000000000100093678754791ROSINETE MARIA DE OLIVEIRA              RUA ANGOLA N 24, ANTIGA RUA 9           CAPIVARI    25145080DUQUE DE CAXIASRJUNIAO UMB DOS CULTOS AFRO BRAS    20121810 000062
10231987175000168817800093673    000033196                    000331960000000000000109                     I0233196     20121800000000350003410000017N291018104700000000000102012180000000000000000000000000000000000000000100009289778709HELAINE FRANKLIN TEIXEIRA               RUA: CACHOEIRA ALTA N 0, LOTE 17 QUADRA JARDIM MARAV23031070CAMPO GRANDE   RJUNIAO UMB DOS CULTOS AFRO BRAS    20121810 000063
10231987175000168817800093673    000033194                    000331940000000000000109                     I0233194     20121800000000350003410000017N291018104700000000000102012180000000000000000000000000000000000000000100001096953722CLAUDIA GUIMARAES                       ESTRADA GUANDU DO SENA - RUA 29N 0, QUADCAMPO GRANDE23091220RIO DE JANEIRO RJUNIAO UMB DOS CULTOS AFRO BRAS    20121810 000064
10231987175000168817800093673    000033193                    000331930000000000000109                     I0233193     20121800000000350003410000017N291018104700000000000102012180000000000000000000000000000000000000000100080091229715MARCO ANTONIO DE OLIVEIRA TEIX          RUA: QUARENTA E UM N 0, QUADRA 47 LOTE 3JARDIM NOSSA23097260CAMPO GRANDE   RJUNIAO UMB DOS CULTOS AFRO BRAS    20121810 000065
10231987175000168817800093673    000033192                    000331920000000000000109                     I0233192     20121800000000350003410000017N291018104700000000000102012180000000000000000000000000000000000000000100046840117715TERESA CRISTINA DE MELLO SOARE          RUA CANUTAMAN 119,                      OSWALDO CRUZ21340440RIO DE JANEIRO RJUNIAO UMB DOS CULTOS AFRO BRAS    20121810 000066
10231987175000168817800093673    000033191                    000331910000000000000109                     I0233191     20121800000000350003410000017N291018104700000000000102012180000000000000000000000000000000000000000100095760024787LUCIMARA DIAS DE OLIVEIRA               RUA SANTO ELIASN 43,                    TURIACU     21540390RIO DE JANEIRO RJUNIAO UMB DOS CULTOS AFRO BRAS    20121810 000067
10231987175000168817800093673    000033189                    000331890000000000000109                     I0233189     20121800000000350003410000017N291018104700000000000102012180000000000000000000000000000000000000000100003443839703ANDERSON FERNANDES DE PAIVA             RUA: JUDITE GUERRAN 142,                PAVUNA      21520260RIO DE JANEIRO RJUNIAO UMB DOS CULTOS AFRO BRAS    20121810 000068
10231987175000168817800093673    000033187                    000331870000000000000109                     I0233187     20121800000000350003410000017N291018104700000000000102012180000000000000000000000000000000000000000100003654035710ELLEN CRISTINA DE ORNELAS NARC          RUA MARECHAL MARCIANO N 648,            REALENGO    21721011RIO DE JANEIRO RJUNIAO UMB DOS CULTOS AFRO BRAS    20121810 000069
10231987175000168817800093673    000033186                    000331860000000000000109                     I0233186     20121800000000350003410000017N291018104700000000000102012180000000000000000000000000000000000000000100009924715790JOSEFA MARIA DA SILVA                   TRAVESSA DOS LAVRADORES N 14,           VILA SAO DOM26271340NOVA IGUACU    RJUNIAO UMB DOS CULTOS AFRO BRAS    20121810 000070
10231987175000168817800093673    000033185                    000331850000000000000109                     I0233185     20121800000000350003410000017N291018104700000000000102012180000000000000000000000000000000000000000100012687881716DAIANA SANTANA DE LIMA                  RUA MANAUSN 149,                        CAMPOS ELISE25225000DUQUE DE CAXIASRJUNIAO UMB DOS CULTOS AFRO BRAS    20121810 000071
10231987175000168817800093673    000033184                    000331840000000000000109                     I0233184     20121800000000350003410000017N291018104700000000000102012180000000000000000000000000000000000000000100007040620707MONICA BORGES MATTOS                    RUA INHAMUNSN 46,                       VILA VALQUEI21321330RIO DE JANEIRO RJUNIAO UMB DOS CULTOS AFRO BRAS    20121810 000072
10231987175000168817800093673    000033183                    000331830000000000000109                     I0233183     20121800000000350003410000017N291018104700000000000102012180000000000000000000000000000000000000000100000000000000JORGE EDUARDO PEREIRA VIANNA            RUA TUIUTIN 98, CASA 4                  CABUCU      26291551NOVA IGUACU    RJUNIAO UMB DOS CULTOS AFRO BRAS    20121810 000073
10231987175000168817800093673    000033182                    000331820000000000000109                     I0233182     20121800000000350003410000017N291018104700000000000102012180000000000000000000000000000000000000000100093255586704GRECIETE GOUDARD                        ESTRADA DO CAMPINHON 4501,              CAMPO GRANDE23066540RIO DE JANEIRO RJUNIAO UMB DOS CULTOS AFRO BRAS    20121810 000074
10231987175000168817800093673    000033181                    000331810000000000000109                     I0233181     20121800000000350003410000017N291018104700000000000102012180000000000000000000000000000000000000000100079034780791PAULO ROBERTO DE SOUZA MORENO           RUA CORONEL MALHAESN 0, LOTE 6 QUADRA 38TIRADENTES  26351180NOVA IGUACU    RJUNIAO UMB DOS CULTOS AFRO BRAS    20121810 000075
10231987175000168817800093673    000033180                    000331800000000000000109                     I0233180     20121800000000350003410000017N291018104700000000000102012180000000000000000000000000000000000000000100005229971711CATIA CILENE MASCARENHAS                RUA BUGANVILLEN 5, CASA 5               CONJUNTO SAN21843743CAMPO GRANDE   RJUNIAO UMB DOS CULTOS AFRO BRAS    20121810 000076
10231987175000168817800093673    000033179                    000331790000000000000109                     I0233179     20121800000000350003410000017N291018104700000000000102012180000000000000000000000000000000000000000100089982118749LENIR SILVA DOS SANTOS                  RUA: ILDEFONSO ALBANON 25, APTº 101    GUADALUPE   21670340RIO DE JANEIRO RJUNIAO UMB DOS CULTOS AFRO BRAS    20121810 000077
10231987175000168817800093673    000033178                    000331780000000000000109                     I0233178     20121800000000350003410000017N291018104700000000000102012180000000000000000000000000000000000000000100005215608709KARYN GEYZA BATALHA BOECHAT             AVENIDA NOSSA SENHORA DE COPACABANAN 110COPACABANA  22060001RIO DE JANEIRO RJUNIAO UMB DOS CULTOS AFRO BRAS    20121810 000078
10231987175000168817800093673    000033177                    000331770000000000000109                     I0233177     20121800000000350003410000017N291018104700000000000102012180000000000000000000000000000000000000000100000905236793ROSE GREGO SILVA DE SOUZA               RUA FLEXALN 42,                         INHAUMA     20766610RIO DE JANEIRO RJUNIAO UMB DOS CULTOS AFRO BRAS    20121810 000079
10231987175000168817800093673    000033175                    000331750000000000000109                     I0233175     20121800000000350003410000017N291018104700000000000102012180000000000000000000000000000000000000000100002406515702GILMA RODRIGUES COUTO                   RUA: PEREIRA FRAZAO N 78, A             PRACA SECA  21320220RIO DE JANEIRO RJUNIAO UMB DOS CULTOS AFRO BRAS    20121810 000080
10231987175000168817800093673    000033174                    000331740000000000000109                     I0233174     20121800000000350003410000017N291018104700000000000102012180000000000000000000000000000000000000000100051265699704MARIA FATIMA DE SOUSA                   RUA PIRAJURAN 93,                       REALENGO    21750360RIO DE JANEIRO RJUNIAO UMB DOS CULTOS AFRO BRAS    20121810 000081
10231987175000168817800093673    000033173                    000331730000000000000109                     I0233173     20121800000000380003410000017N291018104700000000000102012180000000000000000000000000000000000000000100064494527734RONALDO ROSAS ALVES                     ESTRADA COMANDANTEN 777,                PRATA       25976140TERESOPOLIS    RJUNIAO UMB DOS CULTOS AFRO BRAS    20121810 000082
10231987175000168817800093673    000033172                    000331720000000000000109                     I0233172     20121800000000350003410000017N291018104700000000000102012180000000000000000000000000000000000000000100060223170704MARIA DO CARMO DO NASCIMENTO S          RUA: JOAO ADIL DE OLIVEIRAN 57, APT 203 IRAJA       21230175RIO DE JANEIRO RJUNIAO UMB DOS CULTOS AFRO BRAS    20121810 000083
10231987175000168817800093673    000033170                    000331700000000000000109                     I0233170     20121800000000380003410000017N291018104700000000000102012180000000000000000000000000000000000000000100064506770749TERESINHA MARIA PEREIRA NOGUEI          RUA: CAMELIA DOS SANTOS MENDES COUTO N 7CORTA VENTO 25963430TERESOPOLIS    RJUNIAO UMB DOS CULTOS AFRO BRAS    20121810 000084
10231987175000168817800093673    000033168                    000331680000000000000109                     I0233168     20121800000000380003410000017N291018104700000000000102012180000000000000000000000000000000000000000100028095391700SERGIO GARCIA DE QUEIROZ                RUA MATO GROSSON 702,                   SANTA CECILI25957250TERESOPOLIS    RJUNIAO UMB DOS CULTOS AFRO BRAS    20121810 000085
10231987175000168817800093673    000033167                    000331670000000000000109                     I0233167     20121800000000380003410000017N291018104700000000000102012180000000000000000000000000000000000000000100043397077753JOAO NORATO CEZARIO                     RUA POETA MANOEL BANDEIRAN 39, ANTIGO LOCABUIS      26540260NILOPOLIS      RJUNIAO UMB DOS CULTOS AFRO BRAS    20121810 000086
10231987175000168817800093673    000033166                    000331660000000000000109                     I0233166     20121800000000380003410000017N291018104700000000000102012180000000000000000000000000000000000000000100012295676746JEFFERSON ANTONIO TELLES GALDI          RUA MOUZIN DE ALBUQUERQUEN 492,         SAO VICENTE 26178080BELFORD ROXO   RJUNIAO UMB DOS CULTOS AFRO BRAS    20121810 000087
10231987175000168817800093673    000033163                    000331630000000000000109                     I0233163     20121800000000380003410000017N291018104700000000000102012180000000000000000000000000000000000000000100003526002762HELOISA HELENA DE OLIVEIRA DA           RUA DOUTOR MUNIZN 81, CASA 3            CENTRO      26130020BELFORD ROXO   RJUNIAO UMB DOS CULTOS AFRO BRAS    20121810 000088
10231987175000168817800093673    000033159                    000331590000000000000109                     I0233159     20121800000000400003410000017N291018104700000000000102012180000000000000000000000000000000000000000100009526018770VERONICA MARIA LIMA                     RUA KEMAL PALHAN 5,                     VILA SANTO A25040220DUQUE DE CAXIASRJUNIAO UMB DOS CULTOS AFRO BRAS    20121810 000089
10231987175000168817800093673    000033157                    000331570000000000000109                     I0233157     20121800000000380003410000017N291018104700000000000102012180000000000000000000000000000000000000000100003250570796VERONICA LUCIA DA CRUZ                  ESTRADA: DOUTOR FARRULAN 0, LOTE 8 QUADRSAO FRANCISC26125400BELFORD ROXO   RJUNIAO UMB DOS CULTOS AFRO BRAS    20121810 000090
10231987175000168817800093673    000033156                    000331560000000000000109                     I0233156     20121800000000380003410000017N291018104700000000000102012180000000000000000000000000000000000000000100059598255700TEREZINHA MARIA DE JESUS PINHE          RUA: MANOEL DA SILVA PEREIRA N 0, QUADRAPRADOS VERDE26299003NOVA IGUACU    RJUNIAO UMB DOS CULTOS AFRO BRAS    20121810 000091
10231987175000168817800093673    000033155                    000331550000000000000109                     I0233155     20121800000000350003410000017N291018104700000000000102012180000000000000000000000000000000000000000100002527980740ARMANDO DE ALMEIDA                      RUA PEDRO JOSE DE OLIVEIRA N 255,       VARGEM GRAND27145231BARRA DO PIRAI RJUNIAO UMB DOS CULTOS AFRO BRAS    20121810 000092
10231987175000168817800093673    000033154                    000331540000000000000109                     I0233154     20121800000000350003410000017N291018104700000000000102012180000000000000000000000000000000000000000100005978854785ALEXANDRE MOTA DOS SANTOS               RUA BRUNO SENDERN 26,                   JARDIM NOVA 26266040NOVA IGUACU    RJUNIAO UMB DOS CULTOS AFRO BRAS    20121810 000093
10231987175000168817800093673    000033153                    000331530000000000000109                     I0233153     20121800000000350003410000017N291018104700000000000102012180000000000000000000000000000000000000000100014907708793THIAGO CARVALHO VIDAL LIMA              RUA JOAO MARTINS N 265,                 BNH         25900353MAGE           RJUNIAO UMB DOS CULTOS AFRO BRAS    20121810 000094
10231987175000168817800093673    000033150                    000331500000000000000109                     I0233150     20121800000000400003410000017N291018104700000000000102012180000000000000000000000000000000000000000100011622292766ROBERT HELENO MACEDO                    TRAVESSA JOSE CARRETEIRON 175, CASA 12  ENGENHOCA   24110444NITEROI        RJUNIAO UMB DOS CULTOS AFRO BRAS    20121810 000095
10231987175000168817800093673    000033149                    000331490000000000000109                     I0233149     20121800000000380003410000017N291018104700000000000102012180000000000000000000000000000000000000000100007337231792SAMANTHA PRISCILA MARQUES MORE          RUA: INSPETOR CASTRO N 0, QUADRA 2 CASA SARACURUNA  25211410DUQUE DE CAXIASRJUNIAO UMB DOS CULTOS AFRO BRAS    20121810 000096
10231987175000168817800093673    000033148                    000331480000000000000109                     I0233148     20121800000000350003410000017N291018104700000000000102012180000000000000000000000000000000000000000100060044055749SUELY DE FARIAS EDUARDO                 TRAVESSA JAFIA N 1,                     CIDADE DE DE22772190RIO DE JANEIRO RJUNIAO UMB DOS CULTOS AFRO BRAS    20121810 000097
10231987175000168817800093673    000033146                    000331460000000000000109                     I0233146     20121800000000350003410000017N291018104700000000000102012180000000000000000000000000000000000000000100013118884703WESLEI FERREIRA DE CARVALHO             ESTRADA DO  GUERENGUEN 1022, FUNODS     TAQUARA     22713004RIO DE JANEIRO RJUNIAO UMB DOS CULTOS AFRO BRAS    20121810 000098
10231987175000168817800093673    000033144                    000331440000000000000109                     I0233144     20121800000000350003410000017N291018104700000000000102012180000000000000000000000000000000000000000100095846190715ANA MARIA NICANOR DE QUADRO             RUA PASSO FUNDON 118, LOTE 104          JARDIM GUAND26298189NOVA IGUACU    RJUNIAO UMB DOS CULTOS AFRO BRAS    20121810 000099
10231987175000168817800093673    000033143                    000331430000000000000109                     I0233143     20121800000000350003410000017N291018104700000000000102012180000000000000000000000000000000000000000100001161586709ALEXANDRE PIMPAREL DA SILVA             RUA: COMENDADOR VENACION 0,             PALHADA     26290204NOVA IGUACU    RJUNIAO UMB DOS CULTOS AFRO BRAS    20121810 000100
10231987175000168817800093673    000033142                    000331420000000000000109                     I0233142     20121800000000350003410000017N291018104700000000000102012180000000000000000000000000000000000000000100000000000000FABIO DA SILVA                          RUA CAMORIMN 0, LOTE 6 QUADRA 34        JARDIM DELAM26317140QUEIMADOS      RJUNIAO UMB DOS CULTOS AFRO BRAS    20121810 000101
10231987175000168817800093673    000033141                    000331410000000000000109                     I0233141     20121800000000350003410000017N291018104700000000000102012180000000000000000000000000000000000000000100010765062755IVONE JOAO PEDRO                        RUA MARMIARIN 605,                      SENADOR CAMA21831000RIO DE JANEIRO RJUNIAO UMB DOS CULTOS AFRO BRAS    20121810 000102
10231987175000168817800093673    000033140                    000331400000000000000109                     I0233140     20121800000000350003410000017N291018104700000000000102012180000000000000000000000000000000000000000100085957879720MARIA DA APARECIDA VICENTE DUQ          RUA FRANCISCO VIOLTI N 43, CASA 2       HELIOPOLIS  26125440BELFORD ROXO   RJUNIAO UMB DOS CULTOS AFRO BRAS    20121810 000103
10231987175000168817800093673    000033139                    000331390000000000000109                     I0233139     20121800000000350003410000017N291018104700000000000102012180000000000000000000000000000000000000000100005933193704ANA PAULA DA SILVA SANTOS               RUA APIACAN 0, LOTE 12 QUADRA 41        JARDIM BARRO25267290DUQUE DE CAXIASRJUNIAO UMB DOS CULTOS AFRO BRAS    20121810 000104
10231987175000168817800093673    000033138                    000331380000000000000109                     I0233138     20121800000000350003410000017N291018104700000000000102012180000000000000000000000000000000000000000100010018753701PAULA DE BRITO                          RUA FRANCISCO VIOLTEN 44, QUADRA 30     HELIOPOLIS  26125440RIO DE JANEIRO RJUNIAO UMB DOS CULTOS AFRO BRAS    20121810 000105
10231987175000168817800093673    000033137                    000331370000000000000109                     I0233137     20121800000000350003410000017N291018104700000000000102012180000000000000000000000000000000000000000100003372466705SANDRO NASCIMENTO NOBREGA               RUA JOAO ROMARIZN 137,                  RAMOS       21031700RIO DE JANEIRO RJUNIAO UMB DOS CULTOS AFRO BRAS    20121810 000106
10231987175000168817800093673    000033136                    000331360000000000000109                     I0233136     20121800000000350003410000017N291018104700000000000102012180000000000000000000000000000000000000000100085542091768SUELY PEREIRA DA SILVA CALIXTO          RUA RICARDO XAVIER DA SILVEIRA N 31,    IMBARIE     25266005DUQUE DE CAXIASRJUNIAO UMB DOS CULTOS AFRO BRAS    20121810 000107
10231987175000168817800093673    000033134                    000331340000000000000109                     I0233134     20121800000000350003410000017N291018104700000000000102012180000000000000000000000000000000000000000100058756280734SANDRA REGINA DA CONCEICAO              RUA BUENOS AIRES N 94,                  JARDIM PERNA26275390NOVA IGUACU    RJUNIAO UMB DOS CULTOS AFRO BRAS    20121810 000108
10231987175000168817800093673    000033130                    000331300000000000000109                     I0233130     20121800000000350003410000017N291018104700000000000102012180000000000000000000000000000000000000000100003253352730LUCINEA DUTRA MEDEIROS                  RUA EVALDO BRAGAN 212,                  INDEPENDENCI25645300PETROPOLIS     RJUNIAO UMB DOS CULTOS AFRO BRAS    20121810 000109
10231987175000168817800093673    000033129                    000331290000000000000109                     I0233129     20121800000000350003410000017N291018104700000000000102012180000000000000000000000000000000000000000100000858723778GEOVANI FERNANDA DA SILVA               RUA SOFIA BARRETON 34,                  DUMAS - SANT23550700RIO DE JANEIRO RJUNIAO UMB DOS CULTOS AFRO BRAS    20121810 000110
10231987175000168817800093673    000033127                    000331270000000000000109                     I0233127     20121800000000350003410000017N291018104700000000000102012180000000000000000000000000000000000000000100000919377793JOSE IVAN MARCELINO FILHO               RUA ERNANE PEREIRAN 5,                  CARLOS SAMPA26089115NOVA IGUACU    RJUNIAO UMB DOS CULTOS AFRO BRAS    20121810 000111
10231987175000168817800093673    000033125                    000331250000000000000109                     I0233125     20121800000000400003410000017N291018104700000000000102012180000000000000000000000000000000000000000100011700984799CRISTIANE SANTOS FEIJO VIEIRA           RUA NICOLAU TOUQUETN 0, LOTE 20 QUADRA 1JARDIM CATAR24716403SAO GONCALO    RJUNIAO UMB DOS CULTOS AFRO BRAS    20121810 000112
10231987175000168817800093673    000033119                    000331190000000000000109                     I0233119     20121800000000400003410000017N291018104700000000000102012180000000000000000000000000000000000000000100005234258726LUANNA RODRIGUES NASCIMENTO LO          RUA HERACLITO ANTONIO BUSQUET N 140,    TABORDA     28680000CACHOEIRA DE MARJUNIAO UMB DOS CULTOS AFRO BRAS    20121810 000113
10231987175000168817800093673    000033118                    000331180000000000000109                     I0233118     20121800000000400003410000017N291018104700000000000102012180000000000000000000000000000000000000000100005770480742NARAYAMA MARTINS RODRIGUES LOU          RUA HERACLITO ANTONIO BUSQUETN 140,     TABORDA     28680000CACHOEIRA DE MARJUNIAO UMB DOS CULTOS AFRO BRAS    20121810 000114
10231987175000168817800093673    000033117                    000331170000000000000109                     I0233117     20121800000000400003410000017N291018104700000000000102012180000000000000000000000000000000000000000100002965368736REGINA CONCEICAO                        AVENIDA: BOQUEIRAON 17,                 BOA VISTA   28680000CACHOEIRA DE MARJUNIAO UMB DOS CULTOS AFRO BRAS    20121810 000115
10231987175000168817800093673    000033116                    000331160000000000000109                     I0233116     20121800000000380003410000017N291018104700000000000102012180000000000000000000000000000000000000000100009963194761FERNANDO PECANHA PIRES                  RUA: GENERAL BASILION 447,              TABORDA     28680000CACHOEIRA DE MARJUNIAO UMB DOS CULTOS AFRO BRAS    20121810 000116
10231987175000168817800093673    000033115                    000331150000000000000109                     I0233115     20121800000000350003410000017N291018104700000000000102012180000000000000000000000000000000000000000100009491065777VIVIAN LUIZA FREITAS DE AGUIAR          RUA ITAPETININGAN 520,                  VICENTE DE C21370680RIO DE JANEIRO RJUNIAO UMB DOS CULTOS AFRO BRAS    20121810 000117
10231987175000168817800093673    000033114                    000331140000000000000109                     I0233114     20121800000000350003410000017N291018104700000000000102012180000000000000000000000000000000000000000100002331392730ANA MARIA DOS SANTOS VIEIRA             RUA: CRUZ DE SOUZAN 57,                 CARMARY POSS26022281NOVA IGUACU    RJUNIAO UMB DOS CULTOS AFRO BRAS    20121810 000118
10231987175000168817800093673    000033113                    000331130000000000000109                     I0233113     20121800000000350003410000017N291018104700000000000102012180000000000000000000000000000000000000000100005964958702MARISLEY AMARO DE SOUZA                 RUA MONTE ALTON 95,                     BANGU       21863010RIO DE JANEIRO RJUNIAO UMB DOS CULTOS AFRO BRAS    20121810 000119
10231987175000168817800093673    000033112                    000331120000000000000109                     I0233112     20121800000000350003410000017N291018104700000000000102012180000000000000000000000000000000000000000100003018847733MARIA AILHA BERNARDO PINTO              RUA RUBIAO JUNIOR N 109,                CENTRO      23860000MANGARATIBA    RJUNIAO UMB DOS CULTOS AFRO BRAS    20121810 000120
10231987175000168817800093673    000033111                    000331110000000000000109                     I0233111     20121800000000350003410000017N291018104700000000000102012180000000000000000000000000000000000000000100089207963787NICEIA SANTOS FRANCA                    RUA SAPUCAI - BECO DO JORDAON 134,      SANTA CRUZ  23550360RIO DE JANEIRO RJUNIAO UMB DOS CULTOS AFRO BRAS    20121810 000121
10231987175000168817800093673    000033110                    000331100000000000000109                     I0233110     20121800000000350003410000017N291018104700000000000102012180000000000000000000000000000000000000000100005995214730LUCIANO GONCALVES DE SOUZA              RUA CLARIMUNDO DE MELON 714, FUNDOS     PIEDADE     20740323RIO DE JANEIRO RJUNIAO UMB DOS CULTOS AFRO BRAS    20121810 000122
10231987175000168817800093673    000033109                    000331090000000000000109                     I0233109     20121800000000350003410000017N291018104700000000000102012180000000000000000000000000000000000000000100001162883707SUNEY MENEZES MACHADO                   RUA ANTONIO CARLOS NETON 85, CASA 2     CAMPO GRANDE23090630RIO DE JANEIRO RJUNIAO UMB DOS CULTOS AFRO BRAS    20121810 000123
10231987175000168817800093673    000033105                    000331050000000000000109                     I0233105     20121800000000350003410000017N291018104700000000000102012180000000000000000000000000000000000000000100007852297790IRENE FRANCISCO LIMA                    RUA VIRGILIO VARZEAN 0, LOTE 1 QUADRA 1 VILA SAO LUI25051110DUQUE DE CAXIASRJUNIAO UMB DOS CULTOS AFRO BRAS    20121810 000124
10231987175000168817800093673    000033103                    000331030000000000000109                     I0233103     20121800000000350003410000017N291018104700000000000102012180000000000000000000000000000000000000000100001298660750ROSEMBERG EFIGENIO BARBOSA              RUA TANCREDO MARTINS COSTAN 44, FUNDOS CENGENHO DE D20730310RIO DE JANEIRO RJUNIAO UMB DOS CULTOS AFRO BRAS    20121810 000125
10231987175000168817800093673    000033101                    000331010000000000000109                     I0233101     20121800000000350003410000017N291018104700000000000102012180000000000000000000000000000000000000000100006915594736CINTIA FERREIRA                         AVENIDA DAS AMERICASN 4319, BLOCO F 3 APBARRA DA TIJ22631004RIO DE JANEIRO RJUNIAO UMB DOS CULTOS AFRO BRAS    20121810 000126
10231987175000168817800093673    000033100                    000331000000000000000109                     I0233100     20121800000000350003410000017N291018104700000000000102012180000000000000000000000000000000000000000100011497058767DIEGO FERREIRA DA SILVA                 RUA GENERAL GOMES DE CASTRO N 137,      PADRE MIGUEL21721000RIO DE JANEIRO RJUNIAO UMB DOS CULTOS AFRO BRAS    20121810 000127
10231987175000168817800093673    000033099                    000330990000000000000109                     I0233099     20121800000000350003410000017N291018104700000000000102012180000000000000000000000000000000000000000100044415443753ELIDE LEANDRO BARBOSA                   RUA ENGENHEIRO PERICLES RIBEIRON 16, CASFONSECA     24130350NITEROI        RJUNIAO UMB DOS CULTOS AFRO BRAS    20121810 000128
10231987175000168817800093673    000033098                    000330980000000000000109                     I0233098     20121800000000350003410000017N291018104700000000000102012180000000000000000000000000000000000000000100003357548720APARECIDA DOS SANTOS                    RUA LAOSN 0, LOTE 7 QUADRA 11           VILA HELIOPO26125170BELFORD ROXO   RJUNIAO UMB DOS CULTOS AFRO BRAS    20121810 000129
10231987175000168817800093673    000033096                    000330960000000000000109                     I0233096     20121800000000350003410000017N291018104700000000000102012180000000000000000000000000000000000000000100009409455766DANIELE MARTINS MEDEIROS DE FR          RUA ROMANCISTA LUCIO CARDOSON 272,      IBICUI      23860000MANGARATIBA    RJUNIAO UMB DOS CULTOS AFRO BRAS    20121810 000130
10231987175000168817800093673    000033095                    000330950000000000000109                     I0233095     20121800000000350003410000017N291018104700000000000102012180000000000000000000000000000000000000000100090219023700GUARACIARA CORREA PASCHOAL              RUA JOSE CABRALN 758,                   VAL VERDE   26290783NOVA IGUACU    RJUNIAO UMB DOS CULTOS AFRO BRAS    20121810 000131
10231987175000168817800093673    000033094                    000330940000000000000109                     I0233094     20121800000000350003410000017N291018104700000000000102012180000000000000000000000000000000000000000100000640795706CELIA REGINA ALVES DE SOUZA CO          ESTRADA SAO PEDRON 1161, CASA 30        VISTA ALEGRE24725240SAO GONCALO    RJUNIAO UMB DOS CULTOS AFRO BRAS    20121810 000132
10231987175000168817800093673    000033093                    000330930000000000000109                     I0233093     20121800000000350003410000017N291018104700000000000102012180000000000000000000000000000000000000000100007459837741LUIZ CARLOS CARDOSO                     RUA WALDIR CARDOSON 100,                PAU GRANDE  25917040MAGE           RJUNIAO UMB DOS CULTOS AFRO BRAS    20121810 000133
10231987175000168817800093673    000033092                    000330920000000000000109                     I0233092     20121800000000350003410000017N291018104700000000000102012180000000000000000000000000000000000000000100023970090563MARCIA VIEIRA SALES                     RUA LOPO SARAIVAN 214,                  TANQUE - JAC22740220RIO DE JANEIRO RJUNIAO UMB DOS CULTOS AFRO BRAS    20121810 000134
10231987175000168817800093673    000033091                    000330910000000000000109                     I0233091     20121800000000350003410000017N291018104700000000000102012180000000000000000000000000000000000000000100011264005725MARCELO VIEIRA GUSMAN FILHO             AVENIDA MEDIANEIRA N 145, CASA B        COSMOS      23066470RIO DE JANEIRO RJUNIAO UMB DOS CULTOS AFRO BRAS    20121810 000135
10231987175000168817800093673    000033090                    000330900000000000000109                     I0233090     20121800000000350003410000017N291018104700000000000102012180000000000000000000000000000000000000000100006726905432DAYVIDY RAMON CANDIDO                   RUA MARACAN 27,                         PARQUE MUCAJ26415055JAPERI         RJUNIAO UMB DOS CULTOS AFRO BRAS    20121810 000136
10231987175000168817800093673    000033087                    000330870000000000000109                     I0233087     20121800000000350003410000017N291018104700000000000102012180000000000000000000000000000000000000000100003604572746LUCIANA SANTOS DA SILVA DE LIM          RUA: MARTINICIAN 0, LOJA LOTE 22 QUADRA PARQUE NOVO 25585110SAO JOAO DE MERRJUNIAO UMB DOS CULTOS AFRO BRAS    20121810 000137
10231987175000168817800093673    000033086                    000330860000000000000109                     I0233086     20121800000000350003410000017N291018104700000000000102012180000000000000000000000000000000000000000100009445907728VICTOR DOS SANTOS ALLEN                 RUA PEDRO TELESN 146,                   CENTRO      25515032SAO JOAO DE MERRJUNIAO UMB DOS CULTOS AFRO BRAS    20121810 000138
10231987175000168817800093673    000033084                    000330840000000000000109                     I0233084     20121800000000350003410000017N291018104700000000000102012180000000000000000000000000000000000000000100009145082707ELAINE CRISTINA DE MORAES               RUA GENTIL DO OURON 11,                 AGUIAR TORRE23063340INHOAIBA       RJUNIAO UMB DOS CULTOS AFRO BRAS    20121810 000139
10231987175000168817800093673    000033083                    000330830000000000000109                     I0233083     20121800000000350003410000017N291018104700000000000102012180000000000000000000000000000000000000000100015429555134OBIRACI SILVA DO NASCIMENTO             ESTRADA VELHA DE MARICAN 57,            MARIA PAULA 24756280SAO GONCALO    RJUNIAO UMB DOS CULTOS AFRO BRAS    20121810 000140
10231987175000168817800093673    000033081                    000330810000000000000109                     I0233081     20121800000000180003410000017N291018104700000000000102012180000000000000000000000000000000000000000100015903167896PRISCILA APARECIDA SERRANO CLE          RUA: CAPITAO FRANCISCO LIPE N 1206, APTVILA DOM PED02243000SAO PAULO      SPUNIAO UMB DOS CULTOS AFRO BRAS    20121810 000141
10231987175000168817800093673    000033080                    000330800000000000000109                     I0233080     20121800000000350003410000017N291018104700000000000102012180000000000000000000000000000000000000000100006864504778FABIO GUILHERME DOS SANTOS              ESTRADA JOAO DE ABREUN 398,             MONJOLOS    24723190SAO GONCALO    RJUNIAO UMB DOS CULTOS AFRO BRAS    20121810 000142
10231987175000168817800093673    000033079                    000330790000000000000109                     I0233079     20121800000000350003410000017N291018104700000000000102012180000000000000000000000000000000000000000100000000000000LUCIANO SOARES DA SILVA                 RUA KN 59, FUNDOS                       MALVINAS    27910000MACAE          RJUNIAO UMB DOS CULTOS AFRO BRAS    20121810 000143
10231987175000168817800093673    000033078                    000330780000000000000109                     I0233078     20121800000000350003410000017N291018104700000000000102012180000000000000000000000000000000000000000100013849060705LEONARDO ENEDINA DE MELO                RUA JULIO VERNERN 0, QUADRA 24 LOTE 10  SANTA RITA  26050517NOVA IGUACU    RJUNIAO UMB DOS CULTOS AFRO BRAS    20121810 000144
10231987175000168817800093673    000033077                    000330770000000000000109                     I0233077     20121800000000350003410000017N291018104700000000000102012180000000000000000000000000000000000000000100085906743715FRANCISCA CELIA LEANDRO NEVES           RUA PAULO VIANA N 145,                  ROCHA MIRAND21540460RIO DE JANEIRO RJUNIAO UMB DOS CULTOS AFRO BRAS    20121810 000145
10231987175000168817800093673    000033075                    000330750000000000000109                     I0233075     20121800000000350003410000017N291018104700000000000102012180000000000000000000000000000000000000000100082391106734CASSIO SOUZA DA COSTA                   RUA MARIA HADDADN 115,                  AREIA BRANCA26112220BELFORD ROXO   RJUNIAO UMB DOS CULTOS AFRO BRAS    20121810 000146
10231987175000168817800093673    000033074                    000330740000000000000109                     I0233074     20121800000000350003410000017N291018104700000000000102012180000000000000000000000000000000000000000100087798999787NILZETE DA CONCEICAO FELIX              RUA PROJETADAN 0, LOTE 2 QUADRA 1       JARDIM ANHAN25264030DUQUE DE CAXIASRJUNIAO UMB DOS CULTOS AFRO BRAS    20121810 000147
10231987175000168817800093673    000033073                    000330730000000000000109                     I0233073     20121800000000350003410000017N291018104700000000000102012180000000000000000000000000000000000000000100002882629729ANA PAULA DE SOUZA RIBEIRO VIL          RUA DUARTE DE AZEVEDON 39, SOBRADO      TURIACU     21550130RIO DE JANEIRO RJUNIAO UMB DOS CULTOS AFRO BRAS    20121810 000148
10231987175000168817800093673    000033071                    000330710000000000000109                     I0233071     20121800000000350003410000017N291018104700000000000102012180000000000000000000000000000000000000000100008926305740PATRICIA DOS SANTOS LOPES               RUA: CASTELO AZULN 0, LOTE 7 QUADRA A   JARDIM GUAND26298048NOVA IGUACU    RJUNIAO UMB DOS CULTOS AFRO BRAS    20121810 000149
10231987175000168817800093673    000033070                    000330700000000000000109                     I0233070     20121800000000350003410000017N291018104700000000000102012180000000000000000000000000000000000000000100004842101490MARIA DE LOURDES FARIAS DOS SA          RUA HELIO DE OLIVEIRAN 0, LOTE 29 QUADRAPARADA MORAB25000000DUQUE DE CAXIASRJUNIAO UMB DOS CULTOS AFRO BRAS    20121810 000150
10231987175000168817800093673    000033069                    000330690000000000000109                     I0233069     20121800000000350003410000017N291018104700000000000102012180000000000000000000000000000000000000000100004253784704ALEXANDRE SIMOES NASCIMENTO             RUA: SEBASTIAO DRUMONDN 179,            ANCHIETA    21640360RIO DE JANEIRO RJUNIAO UMB DOS CULTOS AFRO BRAS    20121810 000151
10231987175000168817800093673    000033068                    000330680000000000000109                     I0233068     20121800000000350003410000017N291018104700000000000102012180000000000000000000000000000000000000000100004474701755JACIRA DE ALMEIDA BATISTA JULI          AVENIDA SAO PAULON 0, LOTE 11 QUADRA 18 PARQUE MARIL25225660DUQUE DE CAXIASRJUNIAO UMB DOS CULTOS AFRO BRAS    20121810 000152
10231987175000168817800093673    000033065                    000330650000000000000109                     I0233065     20121800000000350003410000017N291018104700000000000102012180000000000000000000000000000000000000000100016424589880LUIZ CARLOS BRITO                       RUA DA LIBERDADEN 368,                  TINGUA      26063230NOVA IGUACU    RJUNIAO UMB DOS CULTOS AFRO BRAS    20121810 000153
10231987175000168817800093673    000033064                    000330640000000000000109                     I0233064     20121800000000350003410000017N291018104700000000000102012180000000000000000000000000000000000000000100002413242708NIVEA MARIA NARCIZO CONCEICAO           RUA: DOS JACARANDAS N 135,              ENGENHO DO M24344565NITEROI        RJUNIAO UMB DOS CULTOS AFRO BRAS    20121810 000154
10231987175000168817800093673    000033062                    000330620000000000000109                     I0233062     20121800000000350003410000017N291018104700000000000102012180000000000000000000000000000000000000000100009250353782LUIZ CARLOS MATOLA                      APIACAN 43,                             JARDIM PRIMA25056270DUQUE DE CAXIASRJUNIAO UMB DOS CULTOS AFRO BRAS    20121810 000155
10231987175000168817800093673    000033061                    000330610000000000000109                     I0233061     20121800000000350003410000017N291018104700000000000102012180000000000000000000000000000000000000000100002209208777ELIELSON DOS SANTOS CARVALHAES          RUA GENTIL DE OURO N 615, BLOCO 12 APT 4INHOAIBA    23063340RIO DE JANEIRO RJUNIAO UMB DOS CULTOS AFRO BRAS    20121810 000156
10231987175000168817800093673    000033060                    000330600000000000000109                     I0233060     20121800000000350003410000017N291018104700000000000102012180000000000000000000000000000000000000000100012345678910LUCIANA LUISA PEREIRA                   AVENIDA PORTO SEGURON 469,              LAGOMAR     27966870MACAE          RJUNIAO UMB DOS CULTOS AFRO BRAS    20121810 000157
10231987175000168817800093673    000033059                    000330590000000000000109                     I0233059     20121800000000350003410000017N291018104700000000000102012180000000000000000000000000000000000000000100012464631728DIEGO TACITO COSTA HENRIQUE             RUA LATIFF MUSSI ROCHA N 109, CASA 102  SOL E MAR   27940160MACAE          RJUNIAO UMB DOS CULTOS AFRO BRAS    20121810 000158
10231987175000168817800093673    000033058                    000330580000000000000109                     I0233058     20121800000000350003410000017N291018104700000000000102012180000000000000000000000000000000000000000100001768493782MARIA DA PENHA CORREA PINTO             RUA UMN 0, CONDOMINIO 1 CASA 34         BOSQUE AZUL 27971250MACAE          RJUNIAO UMB DOS CULTOS AFRO BRAS    20121810 000159
10231987175000168817800093673    000033057                    000330570000000000000109                     I0233057     20121800000000350003410000017N291018104700000000000102012180000000000000000000000000000000000000000100078514533568PAULO SERGIO SANTOS SANTANA             RUA W N 12, TRAVESSA SENA CASA 10       LAGOMAR     27966590MACAE          RJUNIAO UMB DOS CULTOS AFRO BRAS    20121810 000160
10231987175000168817800093673    000033056                    000330560000000000000109                     I0233056     20121800000000350003410000017N291018104700000000000102012180000000000000000000000000000000000000000100010456888780TIAGO PINTO ESPOSTI                     RUA ROSSINA FREITAS MEDEIROSN 38,       PARQUE AEROP27963672MACAE          RJUNIAO UMB DOS CULTOS AFRO BRAS    20121810 000161
10231987175000168817800093673    000033054                    000330540000000000000109                     I0233054     20121800000000350003410000017N291018104700000000000102012180000000000000000000000000000000000000000100007208431701WEMERSON JOAO FARIAS DA SILVA           RUA: C N 3, LOTE 3 QUADRA G             SEPETIBA    23545040RIO DE JANEIRO RJUNIAO UMB DOS CULTOS AFRO BRAS    20121810 000162
10231987175000168817800093673    000033053                    000330530000000000000109                     I0233053     20121800000000350003410000017N291018104700000000000102012180000000000000000000000000000000000000000100073960560710CLAUDIA MARIA DE OLIVEIRA DOS           RUA CARATUVAN 145,                      JARDIM SULAC22725020RIO DE JANEIRO RJUNIAO UMB DOS CULTOS AFRO BRAS    20121810 000163
10231987175000168817800093673    000033052                    000330520000000000000109                     I0233052     20121800000000350003410000017N291018104700000000000102012180000000000000000000000000000000000000000100014933850704LIDIA GABRIELLE DIAS RIBEIRO            RUA JORGE BRAGANCAN 0, LOTE 28 QUADRA 70BOM PASTOR  26110080BELFORD ROXO   RJUNIAO UMB DOS CULTOS AFRO BRAS    20121810 000164
10231987175000168817800093673    000033050                    000330500000000000000109                     I0233050     20121800000000350003410000017N291018104700000000000102012180000000000000000000000000000000000000000100001478776790CLEUSA FERREIRA PEREIRA                 RUA THEREMIN N 393,                     COELHO NETO 21530290RIO DE JANEIRO RJUNIAO UMB DOS CULTOS AFRO BRAS    20121810 000165
10231987175000168817800093673    000033049                    000330490000000000000109                     I0233049     20121800000000350003410000017N291018104700000000000102012180000000000000000000000000000000000000000100068424647734MARCIA VALERIA VALIATI DOS SAN          RUA CONSTANCA BARBOSA N 65, APARTAMENTO MEIER       20735090RIO DE JANEIRO RJUNIAO UMB DOS CULTOS AFRO BRAS    20121810 000166
10231987175000168817800093673    000033048                    000330480000000000000109                     I0233048     20121800000000350003410000017N291018104700000000000102012180000000000000000000000000000000000000000100011688945733ENEDIR RODRIGUES RAMOS                  AVENIDA JOAO BRASIL N 2233,             ENGENHOCA   24000000NITEROI        RJUNIAO UMB DOS CULTOS AFRO BRAS    20121810 000167
10231987175000168817800093673    000033047                    000330470000000000000109                     I0233047     20121800000000350003410000017N291018104700000000000102012180000000000000000000000000000000000000000100002621693717JUREMA DE OLIVEIRA RODRIGUES            ESTRADA: INTENDENTE MAGALHAES N 196, APACAMPINHO    21341330RIO DE JANEIRO RJUNIAO UMB DOS CULTOS AFRO BRAS    20121810 000168
10231987175000168817800093673    000033043                    000330430000000000000109                     I0233043     20121800000000350003410000017N291018104700000000000102012180000000000000000000000000000000000000000100010292272766MARCIA JUPIRA SANTOS GONZAGA            RUA ANTONIO FELIX N 457,                CENTRO      26520081NILOPOLIS      RJUNIAO UMB DOS CULTOS AFRO BRAS    20121810 000169
10231987175000168817800093673    000033042                    000330420000000000000109                     I0233042     20121800000000350003410000017N291018104700000000000102012180000000000000000000000000000000000000000100090490894704EVELINE DA CONCEICAO                    AVENIDA ATLANTIDA N 0,                  LAGOMAR     27966000MACAE          RJUNIAO UMB DOS CULTOS AFRO BRAS    20121810 000170
10231987175000168817800093673    000033041                    000330410000000000000109                     I0233041     20121800000000350003410000017N291018104700000000000102012180000000000000000000000000000000000000000100013397736781JOVANE RANGEL DA SILVA                  RUA SILVA JARDIM N 200,                 CENTRO      27910340MACAE          RJUNIAO UMB DOS CULTOS AFRO BRAS    20121810 000171
10231987175000168817800093673    000033040                    000330400000000000000109                     I0233040     20121800000000350003410000017N291018104700000000000102012180000000000000000000000000000000000000000100004188514760LUIZ CARLOS PEREIRA DA SILVA            RUA W N 24, TRAVESSA 13                 LAGOMAR     27966755MACAE          RJUNIAO UMB DOS CULTOS AFRO BRAS    20121810 000172
10231987175000168817800093673    000033038                    000330380000000000000109                     I0233038     20121800000000350003410000017N291018104700000000000102012180000000000000000000000000000000000000000100016492108760TIAGO LOPES DE AZEVEDO SILVA            RUA: XN 24, QUADRA 82                   PARADA MODEL25943365GUAPIMIRIM     RJUNIAO UMB DOS CULTOS AFRO BRAS    20121810 000173
10231987175000168817800093673    000033035                    000330350000000000000109                     I0233035     20121800000000350003410000017N291018104700000000000102012180000000000000000000000000000000000000000100000000000000LEONARDO EUGENIO DOS SANTOS             RUA LUIZ PINTO DA SILVA N 547,          PRAIA CAMPIS27923200MACAE          RJUNIAO UMB DOS CULTOS AFRO BRAS    20121810 000174
10231987175000168817800093673    000033033                    000330330000000000000109                     I0233033     20121800000000350003410000017N291018104700000000000102012180000000000000000000000000000000000000000100011122717750RODRIGO DINIZ DA COSTA                  RUA ENGENHO DE DENTRON 177, LOTE 26 QUADVILAR DOS TE25565230SAO JOAO DE MERRJUNIAO UMB DOS CULTOS AFRO BRAS    20121810 000175
10231987175000168817800093673    000033032                    000330320000000000000109                     I0233032     20121800000000350003410000017N291018104700000000000102012180000000000000000000000000000000000000000100013090350750REINALDO GONCALVES DE OLIVEIRA          RUA DOMINGOS LEMOSN 99,                 COELHO DA RO25550721SAO JOAO DE MERRJUNIAO UMB DOS CULTOS AFRO BRAS    20121810 000176
10231987175000168817800093673    000033029                    000330290000000000000109                     I0233029     20121800000000350003410000017N291018104700000000000102012180000000000000000000000000000000000000000100012993228757ANDREIA CRISTINA VICENTE                RUA: CORONEL CARLOS MATOSN 32,          PARQUE JOAO 25030140DUQUE DE CAXIASRJUNIAO UMB DOS CULTOS AFRO BRAS    20121810 000177
10231987175000168817800093673    000033028                    000330280000000000000109                     I0233028     20121800000000350003410000017N291018104700000000000102012180000000000000000000000000000000000000000100048972215791MARIA PETRONILHA ROSA NATIVIDA          RUA: JACARE ACANGAN 29, QUADRA 21       VILA MARIA H25255590DUQUE DE CAXIASRJUNIAO UMB DOS CULTOS AFRO BRAS    20121810 000178
10231987175000168817800093673    000033027                    000330270000000000000109                     I0233027     20121800000000350003410000017N291018104700000000000102012180000000000000000000000000000000000000000100092111777749WANDERLEY DOS SANTOS MENDES             PRACA EMBOABAN 67,                      ENGENHO DA R20761160RIO DE JANEIRO RJUNIAO UMB DOS CULTOS AFRO BRAS    20121810 000179
10231987175000168817800093673    000033023                    000330230000000000000109                     I0233023     20121800000000350003410000017N291018104700000000000102012180000000000000000000000000000000000000000100069279500791CLAUDIA ALONSO RODRIGUES                ESTRADA DO PAU FERRO N 851,             FREGUESIA   22745055RIO DE JANEIRO RJUNIAO UMB DOS CULTOS AFRO BRAS    20121810 000180
10231987175000168817800093673    000033022                    000330220000000000000109                     I0233022     20121800000000350003410000017N291018104700000000000102012180000000000000000000000000000000000000000100087306689720JANAINA SANTA CRUZ COSTA                ALAMEDA SANTO ANTONIO N 974,            SEPETIBA    23535660RIO DE JANEIRO RJUNIAO UMB DOS CULTOS AFRO BRAS    20121810 000181
10231987175000168817800093673    000033021                    000330210000000000000109                     I0233021     20121800000000350003410000017N291018104700000000000102012180000000000000000000000000000000000000000100005451927731MAGDA MARTHA DE OLIVEIRA                RUA: JOSE MARIANO  N 0, LOTE 12 QUADRA 4CABUCU - PAR26292051NOVA IGUACU    RJUNIAO UMB DOS CULTOS AFRO BRAS    20121810 000182
10231987175000168817800093673    000033019                    000330190000000000000109                     I0233019     20121800000000350003410000017N291018104700000000000102012180000000000000000000000000000000000000000100060210389753ROZANA DOS SANTOS                       RUA: MARANHAO N 1057, RUA B CASA 73     MEIER       20720230RIO DE JANEIRO RJUNIAO UMB DOS CULTOS AFRO BRAS    20121810 000183
10231987175000168817800093673    000033018                    000330180000000000000109                     I0233018     20121800000000350003410000017N291018104700000000000102012180000000000000000000000000000000000000000100088041883753JORGE COSTA BRAGA FILHO                 RUA MARQUES DE JACAREPAGUA N 707, BLOCO TAQUARA     22730290RIO DE JANEIRO RJUNIAO UMB DOS CULTOS AFRO BRAS    20121810 000184
10231987175000168817800093673    000033016                    000330160000000000000109                     I0233016     20121800000000350003410000017N291018104700000000000102012180000000000000000000000000000000000000000100000759136742ADRIANA LAPORT ALVES                    RUA DONA CLARA DE ARAUJO N 681,         ANDRADE ARAU26010390NOVA IGUACU    RJUNIAO UMB DOS CULTOS AFRO BRAS    20121810 000185
10231987175000168817800093673    000033015                    000330150000000000000109                     I0233015     20121800000000350003410000017N291018104700000000000102012180000000000000000000000000000000000000000100084301724753ANA LUCIA FERREIRA DA SILVA             RUA HUGO CESAR MONTEIRO DA SILVA N 42,  CAICARA     26015000NOVA IGUACU    RJUNIAO UMB DOS CULTOS AFRO BRAS    20121810 000186
10231987175000168817800093673    000033014                    000330140000000000000109                     I0233014     20121800000000350003410000017N291018104700000000000102012180000000000000000000000000000000000000000100024810517349SILANIA MARIA AGUIAR GOIS               AVENIDA RUY BARBOSA N 732, CASA 1       SANTA TEREZI36045410JUIZ DE FORA   MGUNIAO UMB DOS CULTOS AFRO BRAS    20121810 000187
10231987175000168817800093673    000033011                    000330110000000000000109                     I0233011     20121800000000350003410000017N291018104700000000000102012180000000000000000000000000000000000000000100003836060710SANDRA VIEIRA DA SILVA TEIXEIR          RUA REDENTORN 0,  LOTE 33 QUADRA 12     JARDIM REDEN26110090BELFORD ROXO   RJUNIAO UMB DOS CULTOS AFRO BRAS    20121810 000188
10231987175000168817800093673    000033010                    000330100000000000000109                     I0233010     20121800000000350003410000017N291018104700000000000102012180000000000000000000000000000000000000000100076348547787EDIVANICE DE OLIVEIRA DA CRUZ           RUA J J COWSERT N 300, CASA 20          TOMAS COELHO21370450RIO DE JANEIRO RJUNIAO UMB DOS CULTOS AFRO BRAS    20121810 000189
10231987175000168817800093673    000033008                    000330080000000000000109                     I0233008     20121800000000350003410000017N291018104700000000000102012180000000000000000000000000000000000000000100000891933778MARIA DAS NEVES FERREIRA DO NA          RUA CAMINHO DA CHACARA N 519,           PRACA SECA  22733060RIO DE JANEIRO RJUNIAO UMB DOS CULTOS AFRO BRAS    20121810 000190
10231987175000168817800093673    000033007                    000330070000000000000109                     I0233007     20121800000000400003410000017N291018104700000000000102012180000000000000000000000000000000000000000100074979205704ROSANA HELENA PIRES                     RUA ITAUNAS  N 401, BL 29 APT 102       CAMPO GRANDE23068155RIO DE JANEIRO RJUNIAO UMB DOS CULTOS AFRO BRAS    20121810 000191
10231987175000168817800093673    000033006                    000330060000000000000109                     I0233006     20121800000000350003410000017N291018104700000000000102012180000000000000000000000000000000000000000100040402711734PAULO CESAR ANASTACIO PEREIRA           RUA BOTOCUDOSN 0, LOTE 18 QUADRA 347 (ANPARADA MORAB25265351DUQUE DE CAXIASRJUNIAO UMB DOS CULTOS AFRO BRAS    20121810 000192
10231987175000168817800093673    000033005                    000330050000000000000109                     I0233005     20121800000000350003410000017N291018104700000000000102012180000000000000000000000000000000000000000100008401319765ANDRE FERREIRA DE PAULA                 RUA: AMERICO ROCHA N 1095, APARTAMENTO 2MARECHAL HER21555300RIO DE JANEIRO RJUNIAO UMB DOS CULTOS AFRO BRAS    20121810 000193
10231987175000168817800093673    000033004                    000330040000000000000109                     I0233004     20121800000000350003410000017N291018104700000000000102012180000000000000000000000000000000000000000100058365737787ALTAMIRA ROSA                           AVENIDA DO CONTORNON 17, CASA 2         PARADA MORAB25000000DUQUE DE CAXIASRJUNIAO UMB DOS CULTOS AFRO BRAS    20121810 000194
10231987175000168817800093673    000033003                    000330030000000000000109                     I0233003     20121800000000350003410000017N291018104700000000000102012180000000000000000000000000000000000000000100074171372704ELIANE DE SOUZA MACHADO                 RUA ROQUETE PINTON 0, LOTE 22 QUADRA 290JARDIM ANHAN25265200DUQUE DE CAXIASRJUNIAO UMB DOS CULTOS AFRO BRAS    20121810 000195
10231987175000168817800093673    000033002                    000330020000000000000109                     I0233002     20121800000000350003410000017N291018104700000000000102012180000000000000000000000000000000000000000100053218833787MARLUCE SUELY DA SILVA                  RUA CHRISOSTOMO PIMENTEL DE OLIVEIRAN 63ANCHIETA    21645521RIO DE JANEIRO RJUNIAO UMB DOS CULTOS AFRO BRAS    20121810 000196
10231987175000168817800093673    000033000                    000330000000000000000109                     I0233000     20121800000000350003410000017N291018104700000000000102012180000000000000000000000000000000000000000100090617240744RAQUEL DA PAZ                           RUA ITABIBOCAN 0, LOTE 10 QUADRA 342 (ANPARADA MORAB25265188DUQUE DE CAXIASRJUNIAO UMB DOS CULTOS AFRO BRAS    20121810 000197
10231987175000168817800093673    000032995                    000329950000000000000109                     I0232995     20121800000000350003410000017N291018104700000000000102012180000000000000000000000000000000000000000100079882749704IRIS BRASILINO VILELA                   RUA: SETE DE SETEMBRO N 183,            CAMARI      26022202NOVA IGUACU    RJUNIAO UMB DOS CULTOS AFRO BRAS    20121810 000198
10231987175000168817800093673    000032994                    000329940000000000000109                     I0232994     20121800000000350003410000017N291018104700000000000102012180000000000000000000000000000000000000000100082191638791RITA DE CASSIA VALVERDE ROCHA           RUA JOAQUIM SOARES NETO N 250,          NOVA AMERICA26021560NOVA IGUACU    RJUNIAO UMB DOS CULTOS AFRO BRAS    20121810 000199
10231987175000168817800093673    000032993                    000329930000000000000109                     I0232993     20121800000000350003410000017N291018104700000000000102012180000000000000000000000000000000000000000100069052735700ROSANE MARQUES FERREIRA                 ESTRADA DO TINGUI N 2315, CASA 24       CAMPO GRANDE23075006RIO DE JANEIRO RJUNIAO UMB DOS CULTOS AFRO BRAS    20121810 000200
10231987175000168817800093673    000032992                    000329920000000000000109                     I0232992     20121800000000350003410000017N291018104700000000000102012180000000000000000000000000000000000000000100004244337709WANDERSON SANTOS DA SILVA               RUA ARMANDO SANTOS N 113, CASA 2        RECREIO DOS 22795330RIO DE JANEIRO RJUNIAO UMB DOS CULTOS AFRO BRAS    20121810 000201
10231987175000168817800093673    000032991                    000329910000000000000109                     I0232991     20121800000000350003410000017N291018104700000000000102012180000000000000000000000000000000000000000100014520518792STEPHANI MATOS MONTEIRO                 ESTRADA DOUTOR PLINIO CASADO N 3599,    CENTRO      26130622BELFORD ROXO   RJUNIAO UMB DOS CULTOS AFRO BRAS    20121810 000202
10231987175000168817800093673    000032990                    000329900000000000000109                     I0232990     20121800000000350003410000017N291018104700000000000102012180000000000000000000000000000000000000000100012727461780SUELMIR LIMA DE ARAUJO                  RUA NOSSA SENHORA DAS GRACASN 98,       PRAIA DO ANI25925708MAGE           RJUNIAO UMB DOS CULTOS AFRO BRAS    20121810 000203
10231987175000168817800093673    000032989                    000329890000000000000109                     I0232989     20121800000000350003410000017N291018104700000000000102012180000000000000000000000000000000000000000100002142304737ILAIR FERNANDES BRAZILEIRO BOR          RUA VERISSIMO MACHADO N 395, FUNDOS     ROCHA MIRAND21545060RIO DE JANEIRO RJUNIAO UMB DOS CULTOS AFRO BRAS    20121810 000204
10231987175000168817800093673    000032988                    000329880000000000000109                     I0232988     20121800000000350003410000017N291018104700000000000102012180000000000000000000000000000000000000000100001346375771CRISTIANE MARIANO RAPELLO               ESTRADA ALBERTO TEIXEIRA CUNHA N 1410, CNOSSA SENHOR26520070NILOPOLIS      RJUNIAO UMB DOS CULTOS AFRO BRAS    20121810 000205
10231987175000168817800093673    000032987                    000329870000000000000109                     I0232987     20121800000000350003410000017N291018104700000000000102012180000000000000000000000000000000000000000100011351878786GLEISSON BITTENCOURT DA SILVA           RUA FLORA DE ARAUJO N 310,              PRATA       26010570NOVA IGUACU    RJUNIAO UMB DOS CULTOS AFRO BRAS    20121810 000206
10231987175000168817800093673    000032986                    000329860000000000000109                     I0232986     20121800000000350003410000017N291018104700000000000102012180000000000000000000000000000000000000000100000839586736MAURO CESAR BRANCO OBERLAENDER          RUA IGUARIM N 104,                      REALENGO    21765540RIO DE JANEIRO RJUNIAO UMB DOS CULTOS AFRO BRAS    20121810 000207
10231987175000168817800093673    000032985                    000329850000000000000109                     I0232985     20121800000000350003410000017N291018104700000000000102012180000000000000000000000000000000000000000100011766861784MARIA WANDERLEIA MARTINS CRUZ           RUA BRUNO LECININ 375,                  AUSTIN      26279255NOVA IGUACU    RJUNIAO UMB DOS CULTOS AFRO BRAS    20121810 000208
10231987175000168817800093673    000032983                    000329830000000000000109                     I0232983     20121800000000350003410000017N291018104700000000000102012180000000000000000000000000000000000000000100015110892709YASMIN FIALHO HANGES                    ESTRADA HENRIQUE DE MELO N 193, FUNDOS  BENTO RIBEIR21340190RIO DE JANEIRO RJUNIAO UMB DOS CULTOS AFRO BRAS    20121810 000209
10231987175000168817800093673    000032982                    000329820000000000000109                     I0232982     20121800000000350003410000017N291018104700000000000102012180000000000000000000000000000000000000000100030894840720LIGIA REGINA ZACHARIAS DE MELO          RUA LAGO VERDE N 19, APARTAMENTO 302    INHAUMA     21051360RIO DE JANEIRO RJUNIAO UMB DOS CULTOS AFRO BRAS    20121810 000210
10231987175000168817800093673    000032981                    000329810000000000000109                     I0232981     20121800000000350003410000017N291018104700000000000102012180000000000000000000000000000000000000000100068373570772RONILCE CAMILO DA SILVA                 RUA CAPANEMA N 22,                      GENECIANO   26061760NOVA IGUACU    RJUNIAO UMB DOS CULTOS AFRO BRAS    20121810 000211
10231987175000168817800093673    000032980                    000329800000000000000109                     I0232980     20121800000000350003410000017N291018104700000000000102012180000000000000000000000000000000000000000100047442140700MARFIZA FERREIRA DA SILVA VENA          RUA EURICO COELHO N 50,                 GRAMA       26060650NOVA IGUACU    RJUNIAO UMB DOS CULTOS AFRO BRAS    20121810 000212
10231987175000168817800093673    000032979                    000329790000000000000109                     I0232979     20121800000000350003410000017N291018104700000000000102012180000000000000000000000000000000000000000100007620451757JUCIARA BARRETO DA SILVA                RUA DAS FLORES N 181,                   PARQUE CACUL25936690MAGE           RJUNIAO UMB DOS CULTOS AFRO BRAS    20121810 000213
10231987175000168817800093673    000032978                    000329780000000000000109                     I0232978     20121800000000350003410000017N291018104700000000000102012180000000000000000000000000000000000000000100093788150734REGINA DA SILVA VERONEZI DOS S          RUA ABATE N 105,                        JARDIM CANAA26263040NOVA IGUACU    RJUNIAO UMB DOS CULTOS AFRO BRAS    20121810 000214
10231987175000168817800093673    000032977                    000329770000000000000109                     I0232977     20121800000000350003410000017N291018104700000000000102012180000000000000000000000000000000000000000100000680684760CREUSA MARCIA SATURNINO ALVES           RUA NOSSA SENHORA DE NAZAREN 8,         GERENCIANO  26061700NOVA IGUACU    RJUNIAO UMB DOS CULTOS AFRO BRAS    20121810 000215
10231987175000168817800093673    000032976                    000329760000000000000109                     I0232976     20121800000000350003410000017N291018104700000000000102012180000000000000000000000000000000000000000100092645933734ROSINEA PRECIOSO DE OLIVEIRA            RUA PROFESSORA MARLY CARVALHO PEREIRAN 3MIGUEL COUTO26070452NOVA IGUACU    RJUNIAO UMB DOS CULTOS AFRO BRAS    20121810 000216
10231987175000168817800093673    000032975                    000329750000000000000109                     I0232975     20121800000000350003410000017N291018104700000000000102012180000000000000000000000000000000000000000100002375024702FATIMA APARECIDA OLIVEIRA DE C          RUA MANUEL VITORINO N 412,              ENCANTADO   20740280RIO DE JANEIRO RJUNIAO UMB DOS CULTOS AFRO BRAS    20121810 000217
10231987175000168817800093673    000032973                    000329730000000000000109                     I0232973     20121800000000350003410000017N291018104700000000000102012180000000000000000000000000000000000000000100005828675761THAYS DE FATIMA FERREIRA GOMES          ESTRADA GENERAL AFONSO DE CARVALHON 989,PADRE MIGUEL21725020RIO DE JANEIRO RJUNIAO UMB DOS CULTOS AFRO BRAS    20121810 000218
10231987175000168817800093673    000032972                    000329720000000000000109                     I0232972     20121800000000350003410000017N291018104700000000000102012180000000000000000000000000000000000000000100076994511715MARIA DAS GRACAS SANTOS DA SIL          RUA GOMES CARNEIRO N 0, LT 29 QD 39     SARACURUNA  25211050DUQUE DE CAXIASRJUNIAO UMB DOS CULTOS AFRO BRAS    20121810 000219
10231987175000168817800093673    000032971                    000329710000000000000109                     I0232971     20121800000000350003410000017N291018104700000000000102012180000000000000000000000000000000000000000100001317692780SELENE FREIRE DE ARAUJO CANNAN          RUA DA CONQUISTAN 442,                  JARDIM ESPLA26013330NOVA IGUACU    RJUNIAO UMB DOS CULTOS AFRO BRAS    20121810 000220
10231987175000168817800093673    000032970                    000329700000000000000109                     I0232970     20121800000000350003410000017N291018104700000000000102012180000000000000000000000000000000000000000100080578063700SANDRA REGINA NEVES CHAGAS              RUA MARIA LOURENCO N 12, CASA 2         JARDIM PRIMA25215367DUQUE DE CAXIASRJUNIAO UMB DOS CULTOS AFRO BRAS    20121810 000221
10231987175000168817800093673    000032969                    000329690000000000000109                     I0232969     20121800000000350003410000017N291018104700000000000102012180000000000000000000000000000000000000000100006027343710SUELI REIS DIAS DA SILVA                RUA TAPAJOSN 50,                        OURO VERDE -26262480NOVA IGUACU    RJUNIAO UMB DOS CULTOS AFRO BRAS    20121810 000222
10231987175000168817800093673    000032967                    000329670000000000000109                     I0232967     20121800000000350003410000017N291018104700000000000102012180000000000000000000000000000000000000000100056381832720DAVI LEMOS MOREIRA                      RUA CARLINDA N 250, TRIANGULO           VILA DE CAVA26052120NOVA IGUACU    RJUNIAO UMB DOS CULTOS AFRO BRAS    20121810 000223
10231987175000168817800093673    000032966                    000329660000000000000109                     I0232966     20121800000000350003410000017N291018104700000000000102012180000000000000000000000000000000000000000100074824996791ELIANE DA SILVA CAMACHO                 RUA MAJOR REGO N 84,                    OLARIA      21073440RIO DE JANEIRO RJUNIAO UMB DOS CULTOS AFRO BRAS    20121810 000224
10231987175000168817800093673    000032965                    000329650000000000000109                     I0232965     20121800000000350003410000017N291018104700000000000102012180000000000000000000000000000000000000000100025812114749JAIR FERREIRA FILHO                     RUA ENGENHEIRO PINHO DE MAGALHAES N 70, VILA DA PENH21220410RIO DE JANEIRO RJUNIAO UMB DOS CULTOS AFRO BRAS    20121810 000225
10231987175000168817800093673    000032961                    000329610000000000000109                     I0232961     20121800000000350003410000017N291018104700000000000102012180000000000000000000000000000000000000000100010276278704ROSELI DE OLIVEIRA DUTRA                RUA UM N 0, LOTE 7 QUADRA 8             TAQUARA     25275110DUQUE DE CAXIASRJUNIAO UMB DOS CULTOS AFRO BRAS    20121810 000226
10231987175000168817800093673    000032960                    000329600000000000000109                     I0232960     20121800000000350003410000017N291018104700000000000102012180000000000000000000000000000000000000000100005653721735MARCOS AURELIO PAULINO FLORIAN          RUA LEONEL ROCHA N 195, CASA LOTE H     GUARATIBA   23032460RIO DE JANEIRO RJUNIAO UMB DOS CULTOS AFRO BRAS    20121810 000227
10231987175000168817800093673    000032958                    000329580000000000000109                     I0232958     20121800000000350003410000017N291018104700000000000102012180000000000000000000000000000000000000000100004277956726ROSANA OLIVEIRA GUEDES                  RUA GRACA MELLO N 640, APT 101 BLOCO 30 CAVALCANTI  21381300RIO DE JANEIRO RJUNIAO UMB DOS CULTOS AFRO BRAS    20121810 000228
10231987175000168817800093673    000032957                    000329570000000000000109                     I0232957     20121800000000350003410000017N291018104700000000000102012180000000000000000000000000000000000000000100001972684710ALEXANDRE MALAQUIAS DE SOUSA P          AVENIDA NELSON DE AQUINON 246,          COROA GRANDE23825670ITAGUAI        RJUNIAO UMB DOS CULTOS AFRO BRAS    20121810 000229
10231987175000168817800093673    000032955                    000329550000000000000109                     I0232955     20121800000000350003410000017N291018104700000000000102012180000000000000000000000000000000000000000100056717784768LENIR MARTINS COUTO                     RUA CLAUDE MONET  N 27, LOTE 4          RECREIO DOS 22790663RIO DE JANEIRO RJUNIAO UMB DOS CULTOS AFRO BRAS    20121810 000230
10231987175000168817800093673    000032954                    000329540000000000000109                     I0232954     20121800000000350003410000017N291018104700000000000102012180000000000000000000000000000000000000000100000129467707SANDRA CRISTINA DOS SANTOS TIT          RUA DAVI N 0,  BLOCO 3 APT 303          CIDADE DE DE22772430JACAREPAGUA    RJUNIAO UMB DOS CULTOS AFRO BRAS    20121810 000231
10231987175000168817800093673    000032953                    000329530000000000000109                     I0232953     20121800000000350003410000017N291018104700000000000102012180000000000000000000000000000000000000000100060237090791ELIZABETH TELLES DA SILVA               ESTRADA OUTEIRO SANTO  N 1018,  CASA 5  TAQUARA     22713164RIO DE JANEIRO RJUNIAO UMB DOS CULTOS AFRO BRAS    20121810 000232
10231987175000168817800093673    000032952                    000329520000000000000109                     I0232952     20121800000000350003410000017N291018104700000000000102012180000000000000000000000000000000000000000100005646881773DEBORA LINS                             RUA KARLAN 0, LOTE 24 QUADRA 3          VALE DO IPE 26182330BELFORD ROXO   RJUNIAO UMB DOS CULTOS AFRO BRAS    20121810 000233
10231987175000168817800093673    000032951                    000329510000000000000109                     I0232951     20121800000000350003410000017N291018104700000000000102012180000000000000000000000000000000000000000100002373869764ANA PAULA OLIVEIRA DE ANDRADE           RUA FERNANDO DA COSTA N 0,  LOTE 25 QUADPARQUE MARTI26183543BELFORD ROXO   RJUNIAO UMB DOS CULTOS AFRO BRAS    20121810 000234
10231987175000168817800093673    000032948                    000329480000000000000109                     I0232948     20121800000000350003410000017N291018104700000000000102012180000000000000000000000000000000000000000100059110465715ZEILTON VIEIRA NUNES                    RUA JORNALISTA PAULO FRANCIS N 29, CASA EXTENSAO NOV28890000RIO DAS OSTRAS RJUNIAO UMB DOS CULTOS AFRO BRAS    20121810 000235
10231987175000168817800093673    000032947                    000329470000000000000109                     I0232947     20121800000000350003410000017N291018104700000000000102012180000000000000000000000000000000000000000100038835568749MARIA DE ALCANTARA GOULART SIL          RUA GAMBIA N 41,                        JACAREPAGUA 22775400RIO DE JANEIRO RJUNIAO UMB DOS CULTOS AFRO BRAS    20121810 000236
10231987175000168817800093673    000032946                    000329460000000000000109                     I0232946     20121800000000350003410000017N291018104700000000000102012180000000000000000000000000000000000000000100014994285705JEFFERSON DOS SANTOS DA SILVA           ESTRADA DO PAU DA FOMEN 50,             TAQUARA     22723497RIO DE JANEIRO RJUNIAO UMB DOS CULTOS AFRO BRAS    20121810 000237
10231987175000168817800093673    000032945                    000329450000000000000109                     I0232945     20121800000000350003410000017N291018104700000000000102012180000000000000000000000000000000000000000100011998959708ARTUR TAVARES DA SILVA NETO             RUA PREFEITO JOAO CARLOS VITAL N 17,    CROACIA - SE23540080RIO DE JANEIRO RJUNIAO UMB DOS CULTOS AFRO BRAS    20121810 000238
10231987175000168817800093673    000032944                    000329440000000000000109                     I0232944     20121800000000350003410000017N291018104700000000000102012180000000000000000000000000000000000000000100008502438743ALINE RAMOS DE SOUZA DA SILVA           RUA DOUTOR ISMAEL CAVALCANTI N 240,     SEPETIBA    23545145RIO DE JANEIRO RJUNIAO UMB DOS CULTOS AFRO BRAS    20121810 000239
10231987175000168817800093673    000032943                    000329430000000000000109                     I0232943     20121800000000350003410000017N291018104700000000000102012180000000000000000000000000000000000000000100007103755736ALESSANDRA COSTA DE BARROS              PRACA OSCAR ROSSIM N 84,                SEPETIBA    23540250RIO DE JANEIRO RJUNIAO UMB DOS CULTOS AFRO BRAS    20121810 000240
10231987175000168817800093673    000032942                    000329420000000000000109                     I0232942     20121800000000350003410000017N291018104700000000000102012180000000000000000000000000000000000000000100002420898796ROSILENE MATHEUS DE CARVALHO            RUA KEMAL PACHA N 43,                   VILA SANTO A25040220DUQUE DE CAXIASRJUNIAO UMB DOS CULTOS AFRO BRAS    20121810 000241
10231987175000168817800093673    000032938                    000329380000000000000109                     I0232938     20121800000000350003410000017N291018104700000000000102012180000000000000000000000000000000000000000100009946366797SIMONE SOARES NEA                       RUA FLAVIO RANGEL N 0, QUADRA B LOTE 7  CAMPO GRANDE23085430RIO DE JANEIRO RJUNIAO UMB DOS CULTOS AFRO BRAS    20121810 000242
10231987175000168817800093673    000032937                    000329370000000000000109                     I0232937     20121800000000350003410000017N291018104700000000000102012180000000000000000000000000000000000000000100030422175749LENI MENDUIÑA DA SILVA GUERRA          RUA NETUNO N 459, FUNDOS                PAVUNA      21525690RIO DE JANEIRO RJUNIAO UMB DOS CULTOS AFRO BRAS    20121810 000243
10231987175000168817800093673    000032935                    000329350000000000000109                     I0232935     20121800000000350003410000017N291018104700000000000102012180000000000000000000000000000000000000000100015834777724JOAO PAULO SALGUEIRO DA SILVA           RUA MANOEL DO NASCIMENTO N 134,         IRAJA       21361510RIO DE JANEIRO RJUNIAO UMB DOS CULTOS AFRO BRAS    20121810 000244
10231987175000168817800093673    000032934                    000329340000000000000109                     I0232934     20121800000000350003410000017N291018104700000000000102012180000000000000000000000000000000000000000100002638717703EDINO GOMES DE BARROS JUNIOR            RUA PARANA N 10,                        MORRO DO ORI24400000SAO GONCALO    RJUNIAO UMB DOS CULTOS AFRO BRAS    20121810 000245
10231987175000168817800093673    000032933                    000329330000000000000109                     I0232933     20121800000000400003410000017N291018104700000000000102012180000000000000000000000000000000000000000100000920173713JORGE DOS SANTOS LUCAS                  RUA PPN 0,  LOTE 5 QUADRA 48            JARDIM ANHAN25264630DUQUE DE CAXIASRJUNIAO UMB DOS CULTOS AFRO BRAS    20121810 000246
10231987175000168817800093673    000032931                    000329310000000000000109                     I0232931     20121800000000350003410000017N291018104700000000000102012180000000000000000000000000000000000000000100000497155770CINTIA MARTINS DA SILVA                 RUA POCONE N 371,                       ENCANTADO   20745090RIO DE JANEIRO RJUNIAO UMB DOS CULTOS AFRO BRAS    20121810 000247
10231987175000168817800093673    000032929                    000329290000000000000109                     I0232929     20121800000000350003410000017N291018104700000000000102012180000000000000000000000000000000000000000100009483806755MARCO ANTONIO ATAIDE DE MELO            TRAVESSA MARAPEN 3, FUNDOS              COSTA BARROS21515240RIO DE JANEIRO RJUNIAO UMB DOS CULTOS AFRO BRAS    20121810 000248
10231987175000168817800093673    000032926                    000329260000000000000109                     I0232926     20121800000000350003410000017N291018104700000000000102012180000000000000000000000000000000000000000100001797738748PAULO CESAR LONATO SANTOS               ESTRADA GUANDU DO SAPEN 1450, BLOCO 18 ACENTRO      23095072CAMPO GRANDE   RJUNIAO UMB DOS CULTOS AFRO BRAS    20121810 000249
