01REMESSA01COBRANCA       817800093673        União Umb dos Cultos Afro Bra341BANCO ITAU SA  061018                                                                                                                                                                                                                                                                                                      000001
10231987175000168817800093673    000028898                    000288980000000000000109                     I0128898     15101800000000070003410000017N051018104700000000000101510180000000000000000000000000000000000000000100003561463754NORMA CRISTINA JUSTO PRUDENTE           RUA ALUISIO LIRA                        PARQUE ANCHI21635040RIO DE JANEIRO RJUNIAO UMB DOS CULTOS AFRO BRAS    15101810 000002
10231987175000168817800093673    000028897                    000288970000000000000109                     I0128897     08101800000000245003410000017N051018104700000000000100810180000000000000000000000000000000000000000100001230403701DENILSON MOTA DRUMOND                   RUA, ALVES DA COSTA                     CHANGRILA   26140320BELFORD ROXO   RJUNIAO UMB DOS CULTOS AFRO BRAS    08101810 000003
10231987175000168817800093673    000028896                    000288960000000000000109                     I0128896     15101800000000315003410000017N051018104700000000000101510180000000000000000000000000000000000000000100077575644768ROBSON ANDRE GONCALVES OUREM            RUA: RECIFE                             CAMPOS ELISE21032060RIO DE JANEIRO RJUNIAO UMB DOS CULTOS AFRO BRAS    15101810 000004
10231987175000168817800093673    000028895                    000288950000000000000109                     I3428895     20121800000000040003410000017N051018104700000000000102012180000000000000000000000000000000000000000100002085972713ELIANE DOMINGOS DE SOUZA                RUA CAROBEIRA                           CINCO MARIA 23032110GUARATIBA      RJUNIAO UMB DOS CULTOS AFRO BRAS    20121810 000005
10231987175000168817800093673    000028894                    000288940000000000000109                     I0128894     05101800000000035003410000017N051018104700000000000100510180000000000000000000000000000000000000000100081531095704ROSANA ALMEIDA SILVA                    RUA JOAQUIM MARIANO DE MOURA            PONTO CHIC  26032840NOVA IGUACU    RJUNIAO UMB DOS CULTOS AFRO BRAS    05101810 000006
10231987175000168817800093673    000028893                    000288930000000000000109                     I3428893     30111800000000040003410000017N051018104700000000000103011180000000000000000000000000000000000000000100002085972713ELIANE DOMINGOS DE SOUZA                RUA CAROBEIRA                           CINCO MARIA 23032110GUARATIBA      RJUNIAO UMB DOS CULTOS AFRO BRAS    30111810 000007
10231987175000168817800093673    000028892                    000288920000000000000109                     I3428892     30101800000000040003410000017N051018104700000000000103010180000000000000000000000000000000000000000100002085972713ELIANE DOMINGOS DE SOUZA                RUA CAROBEIRA                           CINCO MARIA 23032110GUARATIBA      RJUNIAO UMB DOS CULTOS AFRO BRAS    30101810 000008
10231987175000168817800093673    000028891                    000288910000000000000109                     I0128891     20121800000000035003410000017N051018104700000000000102012180000000000000000000000000000000000000000100099213133715CLAUDIO LOPES ALBINO                    RUA: MARECHAL AGRICOLA                  REALENGO    21735370RIO DE JANEIRO RJUNIAO UMB DOS CULTOS AFRO BRAS    20121810 000009
10231987175000168817800093673    000028890                    000288900000000000000109                     I0128890     20121800000000040003410000017N051018104700000000000102012180000000000000000000000000000000000000000100000848852702RODNEY MARQUES                          RUA PEREIRA LEITAO                      TURIACU     21550100RIO DE JANEIRO RJUNIAO UMB DOS CULTOS AFRO BRAS    20121810 000010
10231987175000168817800093673    000028889                    000288890000000000000109                     I0128889     30111800000000040003410000017N051018104700000000000103011180000000000000000000000000000000000000000100000848852702RODNEY MARQUES                          RUA PEREIRA LEITAO                      TURIACU     21550100RIO DE JANEIRO RJUNIAO UMB DOS CULTOS AFRO BRAS    30111810 000011
10231987175000168817800093673    000028888                    000288880000000000000109                     I0128888     30101800000000040003410000017N051018104700000000000103010180000000000000000000000000000000000000000100000848852702RODNEY MARQUES                          RUA PEREIRA LEITAO                      TURIACU     21550100RIO DE JANEIRO RJUNIAO UMB DOS CULTOS AFRO BRAS    30101810 000012
10231987175000168817800093673    000028887                    000288870000000000000109                     I0128887     30101800000000500003410000017N041018104700000000000103010180000000000000000000000000000000000000000100000864126557IGOR ANDRADE TANIGUSHI                  RUA GERSON MARQUES DA SILVA             PAO REDONDO 05798100SAO PAULO      SPUNIAO UMB DOS CULTOS AFRO BRAS    30101810 000013
10231987175000168817800093673    000028886                    000288860000000000000109                     I0128886     30101800000000700003410000017N041018104700000000000103010180000000000000000000000000000000000000000100001450836755ANDREIA DE MELO BRAGA MOURA             RUA LEONARDO JOSE ANTUNES               INOA        24943255MARICA         RJUNIAO UMB DOS CULTOS AFRO BRAS    30101810 000014
10231987175000168817800093673    000028885                    000288850000000000000109                     I0128885     15101800000000380003410000017N041018104700000000000101510180000000000000000000000000000000000000000100098630164700LEILA DE JESUS FREIRE                   RUA CAMINHO DO CABO                     SANTISSIMO  00000000RIO DE JANEIRO RJUNIAO UMB DOS CULTOS AFRO BRAS    15101810 000015
10231987175000168817800093673    000028093                    000280930000000000000109                     I0228093     30111800000000035003410000017N200818104700000000000103011180000000000000000000000000000000000000000100001794872728JORGE TEIXEIRA DE LIMA                  ESTRADA DO GUERENGUE                    CURICICA    22713001RIO DE JANEIRO RJUNIAO UMB DOS CULTOS AFRO BRAS    30111810 000016
10231987175000168817800093673    000027701                    000277010000000000000109                     I3427701     30111800000000035003410000017N200818104700000000000103011180000000000000000000000000000000000000000100034194924720DELSON ANDRE DO NASCIMENTO              RUA 9                                   SANTA RITA  00000000NOVA IGUACU    RJUNIAO UMB DOS CULTOS AFRO BRAS    30111810 000017
10231987175000168817800093673    000026813                    000268130000000000000109                     I3426813     30091800000000035003410000017N200818104700000000000103009180000000000000000000000000000000000000000100062988050791REGINA LUCIA DE SOUZA SANTOS            RUA ENGENHEIRO LAFAYETE STOCKLER        VILA DA PENH21221390RIO DE JANEIRO RJUNIAO UMB DOS CULTOS AFRO BRAS    30091810 000018
10231987175000168817800093673    000026691                    000266910000000000000109                     I0226691     30091800000000035003410000017N200818104700000000000103009180000000000000000000000000000000000000000100081531095704ROSANA ALMEIDA SILVA                    RUA JOAQUIM MARIANO DE MOURA            PONTO CHIC  26032840NOVA IGUACU    RJUNIAO UMB DOS CULTOS AFRO BRAS    30091810 000019
10231987175000168817800093673    000026673                    000266730000000000000109                     I0226673     30091800000000035003410000017N200818104700000000000103009180000000000000000000000000000000000000000100001794872728JORGE TEIXEIRA DE LIMA                  ESTRADA DO GUERENGUE                    CURICICA    22713001RIO DE JANEIRO RJUNIAO UMB DOS CULTOS AFRO BRAS    30091810 000020
10231987175000168817800093673    000026457                    000264570000000000000109                     I3426457     30091800000000035003410000017N200818104700000000000103009180000000000000000000000000000000000000000100011981552723DIEGO DE SIQUEIRA VIEIRA                RUA ACU                                 REALENGO    21765640RIO DE JANEIRO RJUNIAO UMB DOS CULTOS AFRO BRAS    30091810 000021
10231987175000168817800093673    000026378                    000263780000000000000109                     I0226378     30091800000000035003410000017N200818104700000000000103009180000000000000000000000000000000000000000100099213133715CLAUDIO LOPES ALBINO                    RUA: MARECHAL AGRICOLA                  REALENGO    21735370RIO DE JANEIRO RJUNIAO UMB DOS CULTOS AFRO BRAS    30091810 000022
10231987175000168817800093673    000026307                    000263070000000000000109                     I3426307     30091800000000035003410000017N200818104700000000000103009180000000000000000000000000000000000000000200000000010582NILO SERGIO SANTOS BARCELLOS            ESTRADA CORONEL VIEIRA, 134 BLOCO 4 APTOIRAJA - RJ  21220310RIO DE JANEIRO RJUNIAO UMB DOS CULTOS AFRO BRAS    30091810 000023
10231987175000168817800093673    000026283                    000262830000000000000109                     I3426283     30091800000000035003410000017N200818104700000000000103009180000000000000000000000000000000000000000100034194924720DELSON ANDRE DO NASCIMENTO              RUA 9                                   SANTA RITA  00000000NOVA IGUACU    RJUNIAO UMB DOS CULTOS AFRO BRAS    30091810 000024
10231987175000168817800093673    000026099                    000260990000000000000109                     I0226099     30091800000000035003410000017N200818104700000000000103009180000000000000000000000000000000000000000100009431078732LUCIA OLIVEIRA BONIFACIO                RUA NINA RIBEIRO, 67 FUNDOS             PAVUNA - RJ 21520290RIO DE JANEIRO RJUNIAO UMB DOS CULTOS AFRO BRAS    30091810 000025
10231987175000168817800093673    000025397                    000253970000000000000109                     I3425397     30101800000000035003410000017N200818104700000000000103010180000000000000000000000000000000000000000100062988050791REGINA LUCIA DE SOUZA SANTOS            RUA ENGENHEIRO LAFAYETE STOCKLER        VILA DA PENH21221390RIO DE JANEIRO RJUNIAO UMB DOS CULTOS AFRO BRAS    30101810 000026
10231987175000168817800093673    000025256                    000252560000000000000109                     I0225256     30101800000000035003410000017N200818104700000000000103010180000000000000000000000000000000000000000100001794872728JORGE TEIXEIRA DE LIMA                  ESTRADA DO GUERENGUE                    CURICICA    22713001RIO DE JANEIRO RJUNIAO UMB DOS CULTOS AFRO BRAS    30101810 000027
10231987175000168817800093673    000024960                    000249600000000000000109                     I0224960     30101800000000035003410000017N200818104700000000000103010180000000000000000000000000000000000000000100099213133715CLAUDIO LOPES ALBINO                    RUA: MARECHAL AGRICOLA                  REALENGO    21735370RIO DE JANEIRO RJUNIAO UMB DOS CULTOS AFRO BRAS    30101810 000028
10231987175000168817800093673    000024864                    000248640000000000000109                     I3424864     30101800000000035003410000017N200818104700000000000103010180000000000000000000000000000000000000000100034194924720DELSON ANDRE DO NASCIMENTO              RUA 9                                   SANTA RITA  00000000NOVA IGUACU    RJUNIAO UMB DOS CULTOS AFRO BRAS    30101810 000029
9                                                                                                                                                                                                                                                                                                                                                                                                         000030
