01REMESSA01COBRANCA       916200163100        União Umb dos Cultos Afro Bra341BANCO ITAU SA  180619                                                                                                                                                                                                                                                                                                      000001
10231987175000168916200163100    000045294                    000452940000000000000109                     I0245294     30061900000000040003410000017N220519105700000000000133006190000000000000000000000000000000000000000100009825767731SEBASTIANA LUIZA CARVALHO DA S          RUA BRASILINAN 540,                     VILA VERDE  26178180BELFORD ROXO   RJUNIAO UMB DOS CULTOS AFRO BRAS    30061915 000002
21300620190000000000080                                                                                                                                                                                                                                                                                                                                                                                   000003
10231987175000168916200163100    000042676                    000426760000000000000109                     I0242676     30051900000000040003410000017N130319105700000000000133005190000000000000000000000000000000000000000100003360087755ELIENE GONCALVES JACINTO                TRAVESSA DAS FLORESN 20,                PARQUE LAFAI25010695DUQUE DE CAXIASRJUNIAO UMB DOS CULTOS AFRO BRAS    30051915 000004
21300520190000000000080                                                                                                                                                                                                                                                                                                                                                                                   000005
10231987175000168916200163100    000042634                    000426340000000000000109                     I0242634     30051900000000040003410000017N130319105700000000000133005190000000000000000000000000000000000000000100013180490756DIEGO CAVALCANTI DA SILVA               RUA CONDE DE RESENDEN 127,              BENTO RIBEIR21550600RIO DE JANEIRO RJUNIAO UMB DOS CULTOS AFRO BRAS    30051915 000006
21300520190000000000080                                                                                                                                                                                                                                                                                                                                                                                   000007
10231987175000168916200163100    000041974                    000419740000000000000109                     I0241974     30051900000000040003410000017N130319105700000000000133005190000000000000000000000000000000000000000100055688306734ROBERTO BRAGANCA BAHIA                  TRAVESSA PALADINO GARCIAN 0, LOTE 5 - CASANTO ANTONI26130290BELFORD ROXO   RJUNIAO UMB DOS CULTOS AFRO BRAS    30051915 000008
21300520190000000000080                                                                                                                                                                                                                                                                                                                                                                                   000009
10231987175000168916200163100    000041038                    000410380000000000000109                     I0241038     30041900000000040003410000017N120319105700000000000133004190000000000000000000000000000000000000000100003360087755ELIENE GONCALVES JACINTO                TRAVESSA DAS FLORESN 20,                PARQUE LAFAI25010695DUQUE DE CAXIASRJUNIAO UMB DOS CULTOS AFRO BRAS    30041915 000010
21300420190000000000080                                                                                                                                                                                                                                                                                                                                                                                   000011
10231987175000168916200163100    000040996                    000409960000000000000109                     I0240996     30041900000000040003410000017N120319105700000000000133004190000000000000000000000000000000000000000100013180490756DIEGO CAVALCANTI DA SILVA               RUA CONDE DE RESENDEN 127,              BENTO RIBEIR21550600RIO DE JANEIRO RJUNIAO UMB DOS CULTOS AFRO BRAS    30041915 000012
21300420190000000000080                                                                                                                                                                                                                                                                                                                                                                                   000013
10231987175000168916200163100    000040948                    000409480000000000000109                     I0240948     30041900000000040003410000017N120319105700000000000133004190000000000000000000000000000000000000000100003747539700MARCIA SANTANA DA SILVA COSTA           RUA GUAIAUNA N 392,                     COELHO NETO 21510420RIO DE JANEIRO RJUNIAO UMB DOS CULTOS AFRO BRAS    30041915 000014
21300420190000000000080                                                                                                                                                                                                                                                                                                                                                                                   000015
10231987175000168916200163100    000040339                    000403390000000000000109                     I0240339     30041900000000040003410000017N120319105700000000000133004190000000000000000000000000000000000000000100055688306734ROBERTO BRAGANCA BAHIA                  TRAVESSA PALADINO GARCIAN 0, LOTE 5 - CASANTO ANTONI26130290BELFORD ROXO   RJUNIAO UMB DOS CULTOS AFRO BRAS    30041915 000016
21300420190000000000080                                                                                                                                                                                                                                                                                                                                                                                   000017
9                                                                                                                                                                                                                                                                                                                                                                                                         000018
