01REMESSA01COBRANCA       916200163100        União Umb dos Cultos Afro Bra341BANCO ITAU SA  050718                                                                                                                                                                                                                                                                                                      000001
10231987175000168916200163100    000021277                    000212770000000000000109                     I0121277     30081800000000040003410000017N040718104700000000000103008180000000000000000000000000000000000000000100005283706721LEVY ANDRE ASSIS FERREIRA DA S          TRAVESSA: SANTO ANTONIO                 MARECHAL HER21557190RIO DE JANEIRO RJUNIAO UMB DOS CULTOS AFRO BRAS    30081810 000002
10231987175000168916200163100    000021276                    000212760000000000000109                     I0121276     20071800000000105003410000017N040718104700000000000102007180000000000000000000000000000000000000000100033434557768VALTER OLIVEIRA MAYRINCK                RUA SARGENTO OSMAR CLARO, 22            AMAZONAS - C23075180RIO DE JANEIRO RJUNIAO UMB DOS CULTOS AFRO BRAS    20071810 000003
10231987175000168916200163100    000021275                    000212750000000000000109                     I0121275     10071800000000301353410000017N040718104700000000000101007180000000000000000000000000000000000000000100068760680725ANNA LUCIA DE SOUZA                     RUA: JOAO DANIEL                        BENTO RIBEIR21550480RIO DE JANEIRO RJUNIAO UMB DOS CULTOS AFRO BRAS    10071810 000004
10231987175000168916200163100    000021261                    000212610000000000000109                     I0121261     10071800000000105003410000017N040718104700000000000101007180000000000000000000000000000000000000000100002175979717CLAUDIA PILAR PERES SANTOS DE           RUA JOAO MACIEIRA                       MADUREIRA   21310090RIO DE JANEIRO RJUNIAO UMB DOS CULTOS AFRO BRAS    10071810 000005
10231987175000168916200163100    000019571                    000195710000000000000109                     I0219571     30081800000000035003410000017N070518104700000000000103008180000000000000000000000000000000000000000100004765875733BEATRIZ GOMES DEMIRSKY                  AVENIDA MERITI N 1421 APT 201           VILA DA PENH21220201RIO DE JANEIRO RJUNIAO UMB DOS CULTOS AFRO BRAS    30081810 000006
10231987175000168916200163100    000018001                    000180010000000000000109                     I0218001     30071800000000035003410000017N070518104700000000000103007180000000000000000000000000000000000000000100004765875733BEATRIZ GOMES DEMIRSKY                  AVENIDA MERITI N 1421 APT 201           VILA DA PENH21220201RIO DE JANEIRO RJUNIAO UMB DOS CULTOS AFRO BRAS    30071810 000007
10231987175000168916200163100    000014812                    000148120000000000000109                     I0214812     30061800000000035003410000017N070518104700000000000103006180000000000000000000000000000000000000000100004765875733BEATRIZ GOMES DEMIRSKY                  AVENIDA MERITI N 1421 APT 201           VILA DA PENH21220201RIO DE JANEIRO RJUNIAO UMB DOS CULTOS AFRO BRAS    30061810 000008
10231987175000168916200163100    000014365                    000143650000000000000109                     I0214365     01051800000000350003410000017N100418104700000000000100105180000000000000000000000000000000000000000100004765875733BEATRIZ GOMES DEMIRSKY                  AVENIDA MERITI N 1421 APT 201           VILA DA PENH21220201RIO DE JANEIRO RJUNIAO UMB DOS CULTOS AFRO BRAS    01051810 000009
10231987175000168916200163100    000014281                    000142810000000000000109                     I0214281     10041800000000632903410000017N290318104700000000000101004180000000000000000000000000000000000000000100025937030753MANOEL GABRIEL DA SILVA                 RUA: ALCIDES MAIA                       BENTO RIBEIR21550560RIO DE JANEIRO RJUNIAO UMB DOS CULTOS AFRO BRAS    10041810 000010
9                                                                                                                                                                                                                                                                                                                                                                                                         000011
