01REMESSA01COBRANCA       817800093673        União Umb dos Cultos Afro Bra341BANCO ITAU SA  190219                                                                                                                                                                                                                                                                                                      000001
10231987175000168817800093673    000033402                    000334020000000000000109                     I0233402     20121800000000350003410000017N091118104700000000000102012180000000000000000000000000000000000000000100083883363715ISABEL HELENA CEZARIO MEDEIROS          RUA DUQUE DE CAXIASN 129,               VILA ISABEL 20551050RIO DE JANEIRO RJUNIAO UMB DOS CULTOS AFRO BRAS    20121810 000002
10231987175000168817800093673    000033401                    000334010000000000000109                     I0233401     20121800000000035003410000017N091118104700000000000102012180000000000000000000000000000000000000000100083883363715ISABEL HELENA CEZARIO MEDEIROS          RUA DUQUE DE CAXIASN 129,               VILA ISABEL 20551050RIO DE JANEIRO RJUNIAO UMB DOS CULTOS AFRO BRAS    20121810 000003
10231987175000168817800093673    000033400                    000334000000000000000109                     I0233400     20121800000000350003410000017N091118104700000000000102012180000000000000000000000000000000000000000100011124747737JOSE DO NASCIMENTO                      RUA JUTAI N 0, LOTE 25 QUADRA 153       OLAVO BILAC 25025290DUQUE DE CAXIASRJUNIAO UMB DOS CULTOS AFRO BRAS    20121810 000004
10231987175000168817800093673    000033399                    000333990000000000000109                     I0233399     20121800000000040003410000017N091118104700000000000102012180000000000000000000000000000000000000000100011124747737JOSE DO NASCIMENTO                      RUA JUTAI N 0, LOTE 25 QUADRA 153       OLAVO BILAC 25025290DUQUE DE CAXIASRJUNIAO UMB DOS CULTOS AFRO BRAS    20121810 000005
10231987175000168817800093673    000033396                    000333960000000000000109                     I0233396     20121800000000350003410000017N091118104700000000000102012180000000000000000000000000000000000000000100005359920769MARCIO ROGERIO DE SOUZA MONTE           RUA: MARIA FERREIRA PINTON 25, SANTA MARTINGUI - CAM23075000RIO DE JANEIRO RJUNIAO UMB DOS CULTOS AFRO BRAS    20121810 000006
10231987175000168817800093673    000033395                    000333950000000000000109                     I0233395     20121800000000040003410000017N091118104700000000000102012180000000000000000000000000000000000000000100005359920769MARCIO ROGERIO DE SOUZA MONTE           RUA: MARIA FERREIRA PINTON 25, SANTA MARTINGUI - CAM23075000RIO DE JANEIRO RJUNIAO UMB DOS CULTOS AFRO BRAS    20121810 000007
10231987175000168817800093673    000033388                    000333880000000000000109                     I0233388     20121800000000350003410000017N081118104700000000000102012180000000000000000000000000000000000000000100007324540775JAQUELINE DE LIMA ALMEIDA DE J          RUA JOAQUIM ARRUDAN 13, QUADRA 39 LOTE 4JARDIM SAO P25935800MAGE           RJUNIAO UMB DOS CULTOS AFRO BRAS    20121810 000008
10231987175000168817800093673    000033387                    000333870000000000000109                     I0233387     20121800000000035003410000017N081118104700000000000102012180000000000000000000000000000000000000000100007324540775JAQUELINE DE LIMA ALMEIDA DE J          RUA JOAQUIM ARRUDAN 13, QUADRA 39 LOTE 4JARDIM SAO P25935800MAGE           RJUNIAO UMB DOS CULTOS AFRO BRAS    20121810 000009
10231987175000168817800093673    000033331                    000333310000000000000109                     I0233331     20121800000000380003410000017N301018104700000000000102012180000000000000000000000000000000000000000100000840541740JUCIARA GONCALVES NEPOMUCENO            RUA CASTRO VIEIRAN 174,                 AREIA BRANCA26112360BELFORD ROXO   RJUNIAO UMB DOS CULTOS AFRO BRAS    20121810 000010
10231987175000168817800093673    000033324                    000333240000000000000109                     I0233324     20121800000000380003410000017N301018104700000000000102012180000000000000000000000000000000000000000100088763765772VERONICA CECILIA DE AGUIAR              RUA LAURELINO FREIREN 101, CASA 7       GUAXINDIBA  24722330SAO GONCALO    RJUNIAO UMB DOS CULTOS AFRO BRAS    20121810 000011
9                                                                                                                                                                                                                                                                                                                                                                                                         000012
