01REMESSA01COBRANCA       916200163100        União Umb dos Cultos Afro Bra341BANCO ITAU SA  090918                                                                                                                                                                                                                                                                                                      000001
10231987175000168916200163100    000028690                    000286900000000000000109                     I0128690     14091800000000400003410000017N090918104700000000000101409180000000000000000000000000000000000000000100083452524787PAULO SERGIO MEDEIROS DE AZEVE          RUA LEOPOLDINA BORGES                   ANCHIETA    21630240RIO DE JANEIRO RJUNIAO UMB DOS CULTOS AFRO BRAS    14091810 000002
10231987175000168916200163100    000028689                    000286890000000000000109                     I0128689     30091800000000035003410000017N070918104700000000000103009180000000000000000000000000000000000000000100009057240700ILAN FERNANDES BRAZILEIRO               RUA NICARAGUA                           PARQUE HOTEL28970000ARARUAMA       RJUNIAO UMB DOS CULTOS AFRO BRAS    30091810 000003
10231987175000168916200163100    000028688                    000286880000000000000109                     I0128688     30111800000000040003410000017N060918104700000000000103011180000000000000000000000000000000000000000100070550891749CELSO POYDO MENDES                      RUA: SOUZA FREITAS                      PILARES     20760710RIO DE JANEIRO RJUNIAO UMB DOS CULTOS AFRO BRAS    30111810 000004
10231987175000168916200163100    000028687                    000286870000000000000109                     I0228687     30111800000000040003410000017N060918104700000000000103011180000000000000000000000000000000000000000100070550891749CELSO POYDO MENDES                      RUA: SOUZA FREITAS                      PILARES     20760710RIO DE JANEIRO RJUNIAO UMB DOS CULTOS AFRO BRAS    30111810 000005
10231987175000168916200163100    000028686                    000286860000000000000109                     I0128686     30101800000000040003410000017N060918104700000000000103010180000000000000000000000000000000000000000100070550891749CELSO POYDO MENDES                      RUA: SOUZA FREITAS                      PILARES     20760710RIO DE JANEIRO RJUNIAO UMB DOS CULTOS AFRO BRAS    30101810 000006
10231987175000168916200163100    000028685                    000286850000000000000109                     I0128685     30091800000000040003410000017N060918104700000000000103009180000000000000000000000000000000000000000100070550891749CELSO POYDO MENDES                      RUA: SOUZA FREITAS                      PILARES     20760710RIO DE JANEIRO RJUNIAO UMB DOS CULTOS AFRO BRAS    30091810 000007
10231987175000168916200163100    000028684                    000286840000000000000109                     I0128684     30111800000000040003410000017N060918104700000000000103011180000000000000000000000000000000000000000100085965871791VALERIA MENDES BARBOSA DOS SAN          RUA SAO PATRICIO                        JARDIM NOVA 26265540NOVA IGUACU    RJUNIAO UMB DOS CULTOS AFRO BRAS    30111810 000008
10231987175000168916200163100    000028683                    000286830000000000000109                     I0128683     30101800000000040003410000017N060918104700000000000103010180000000000000000000000000000000000000000100085965871791VALERIA MENDES BARBOSA DOS SAN          RUA SAO PATRICIO                        JARDIM NOVA 26265540NOVA IGUACU    RJUNIAO UMB DOS CULTOS AFRO BRAS    30101810 000009
10231987175000168916200163100    000028682                    000286820000000000000109                     I0128682     30091800000000040003410000017N060918104700000000000103009180000000000000000000000000000000000000000100085965871791VALERIA MENDES BARBOSA DOS SAN          RUA SAO PATRICIO                        JARDIM NOVA 26265540NOVA IGUACU    RJUNIAO UMB DOS CULTOS AFRO BRAS    30091810 000010
10231987175000168916200163100    000028681                    000286810000000000000109                     I0128681     30111800000000040003410000017N060918104700000000000103011180000000000000000000000000000000000000000100008323642745ROSEMERI DE SOUZA COUTINHO              RUA VERA LUCIA                          CABUCU      26291452NOVA IGUACU    RJUNIAO UMB DOS CULTOS AFRO BRAS    30111810 000011
10231987175000168916200163100    000028680                    000286800000000000000109                     I0128680     30101800000000040003410000017N060918104700000000000103010180000000000000000000000000000000000000000100008323642745ROSEMERI DE SOUZA COUTINHO              RUA VERA LUCIA                          CABUCU      26291452NOVA IGUACU    RJUNIAO UMB DOS CULTOS AFRO BRAS    30101810 000012
10231987175000168916200163100    000028679                    000286790000000000000109                     I0128679     30091800000000040003410000017N060918104700000000000103009180000000000000000000000000000000000000000100008323642745ROSEMERI DE SOUZA COUTINHO              RUA VERA LUCIA                          CABUCU      26291452NOVA IGUACU    RJUNIAO UMB DOS CULTOS AFRO BRAS    30091810 000013
10231987175000168916200163100    000028678                    000286780000000000000109                     I0128678     30111800000000040003410000017N060918104700000000000103011180000000000000000000000000000000000000000100007147220730LUIS CARLOS DA COSTA OLIVEIRA           RUA MINAS GERAIS                        CAMPO ALEGRE26292141NOVA IGUACU    RJUNIAO UMB DOS CULTOS AFRO BRAS    30111810 000014
10231987175000168916200163100    000028677                    000286770000000000000109                     I0128677     30101800000000040003410000017N060918104700000000000103010180000000000000000000000000000000000000000100007147220730LUIS CARLOS DA COSTA OLIVEIRA           RUA MINAS GERAIS                        CAMPO ALEGRE26292141NOVA IGUACU    RJUNIAO UMB DOS CULTOS AFRO BRAS    30101810 000015
10231987175000168916200163100    000028676                    000286760000000000000109                     I0128676     30091800000000040003410000017N060918104700000000000103009180000000000000000000000000000000000000000100007147220730LUIS CARLOS DA COSTA OLIVEIRA           RUA MINAS GERAIS                        CAMPO ALEGRE26292141NOVA IGUACU    RJUNIAO UMB DOS CULTOS AFRO BRAS    30091810 000016
10231987175000168916200163100    000028675                    000286750000000000000109                     I0128675     14091800000000035003410000017N060918104700000000000101409180000000000000000000000000000000000000000100008604956719MIRIAN DE MATTOS ALVES                  AVENIDA MOACIR SARAIVA DE CARVALHO      JARDIM METRO25571190SAO JOAO DE MERRJUNIAO UMB DOS CULTOS AFRO BRAS    14091810 000017
10231987175000168916200163100    000028674                    000286740000000000000109                     I0128674     20121800000000040003410000017N060918104700000000000102012180000000000000000000000000000000000000000100000000001242OSVALDO LUIZ ESTRELA FERNANDES          MESMO                                   MESMO       22071110ITAGUAI        RJUNIAO UMB DOS CULTOS AFRO BRAS    20121810 000018
10231987175000168916200163100    000028673                    000286730000000000000109                     I0128673     07091800000000105003410000017N050918104700000000000100709180000000000000000000000000000000000000000100003250570596VERONICA LUCIA DA CRUZ                  ESTRADA DOUTOR FARRULA                  SAO FRANCISC26125400BELFORD ROXO   RJUNIAO UMB DOS CULTOS AFRO BRAS    07091810 000019
10231987175000168916200163100    000028672                    000286720000000000000109                     I0128672     30111800000000035003410000017N050918104700000000000103011180000000000000000000000000000000000000000100098129074753EVANILDO PEDRO DA SILVA FILHO           RUA MANOEL GREGORIO                     SANTISSIMO  21853050RIO DE JANEIRO RJUNIAO UMB DOS CULTOS AFRO BRAS    30111810 000020
10231987175000168916200163100    000028671                    000286710000000000000109                     I0128671     30101800000000035003410000017N050918104700000000000103010180000000000000000000000000000000000000000100098129074753EVANILDO PEDRO DA SILVA FILHO           RUA MANOEL GREGORIO                     SANTISSIMO  21853050RIO DE JANEIRO RJUNIAO UMB DOS CULTOS AFRO BRAS    30101810 000021
10231987175000168916200163100    000028670                    000286700000000000000109                     I0128670     10091800000000105003410000017N050918104700000000000101009180000000000000000000000000000000000000000100033927499749JORGE CARDOSO DE MACEDO                 RUA G                                   GRANJA SANTA25900000MAGE           RJUNIAO UMB DOS CULTOS AFRO BRAS    10091810 000022
10231987175000168916200163100    000028669                    000286690000000000000109                     I0128669     14091800000000035003410000017N050918104700000000000101409180000000000000000000000000000000000000000100010083312790EDINALDO FELIX DA SILVA                 RUA: BERNARDA MARIA DA CONCEICAO        FAZENDA CAXI23895320ILHA DO GOVERNARJUNIAO UMB DOS CULTOS AFRO BRAS    14091810 000023
10231987175000168916200163100    000028668                    000286680000000000000109                     I0128668     10091800000000070003410000017N050918104700000000000101009180000000000000000000000000000000000000000100085725730700MARIA LUCIA DA SILVA BORGES             RUA CACIPORE, 1273                      JARDIM OLAVO25036040DUQUE DE CAXIASRJUNIAO UMB DOS CULTOS AFRO BRAS    10091810 000024
10231987175000168916200163100    000028667                    000286670000000000000109                     I0128667     30111800000000035003410000017N050918104700000000000103011180000000000000000000000000000000000000000100005749191710DANIELE BATISTA DE ASSIS                RUA MANOEL MACHADO                      VAZ LOBO    21361090RIO DE JANEIRO RJUNIAO UMB DOS CULTOS AFRO BRAS    30111810 000025
10231987175000168916200163100    000028666                    000286660000000000000109                     I0128666     30101800000000035003410000017N050918104700000000000103010180000000000000000000000000000000000000000100005749191710DANIELE BATISTA DE ASSIS                RUA MANOEL MACHADO                      VAZ LOBO    21361090RIO DE JANEIRO RJUNIAO UMB DOS CULTOS AFRO BRAS    30101810 000026
10231987175000168916200163100    000028665                    000286650000000000000109                     I0128665     30091800000000035003410000017N050918104700000000000103009180000000000000000000000000000000000000000100005749191710DANIELE BATISTA DE ASSIS                RUA MANOEL MACHADO                      VAZ LOBO    21361090RIO DE JANEIRO RJUNIAO UMB DOS CULTOS AFRO BRAS    30091810 000027
10231987175000168916200163100    000028664                    000286640000000000000109                     I0128664     30111800000000035003410000017N050918104700000000000103011180000000000000000000000000000000000000000100079192653715TERESINHA DE JESUS DOS SANTOS           AVENIDA SYLVIO MOUTINHO                 GUARATIBA   23028180RIO DE JANEIRO RJUNIAO UMB DOS CULTOS AFRO BRAS    30111810 000028
10231987175000168916200163100    000028663                    000286630000000000000109                     I0128663     31101800000000035003410000017N050918104700000000000103110180000000000000000000000000000000000000000100079192653715TERESINHA DE JESUS DOS SANTOS           AVENIDA SYLVIO MOUTINHO                 GUARATIBA   23028180RIO DE JANEIRO RJUNIAO UMB DOS CULTOS AFRO BRAS    31101810 000029
10231987175000168916200163100    000028662                    000286620000000000000109                     I0128662     30091800000000035003410000017N050918104700000000000103009180000000000000000000000000000000000000000100079192653715TERESINHA DE JESUS DOS SANTOS           AVENIDA SYLVIO MOUTINHO                 GUARATIBA   23028180RIO DE JANEIRO RJUNIAO UMB DOS CULTOS AFRO BRAS    30091810 000030
10231987175000168916200163100    000028661                    000286610000000000000109                     I0128661     30111800000000040003410000017N040918104700000000000103011180000000000000000000000000000000000000000100009060523784MARTA ANJOS PEREIRA DO NASCIME          RUA DUCLEIA MARTINS POLICARPO           SACRAMENTO  24735845RIO DE JANEIRO RJUNIAO UMB DOS CULTOS AFRO BRAS    30111810 000031
10231987175000168916200163100    000028660                    000286600000000000000109                     I0128660     30101800000000040003410000017N040918104700000000000103010180000000000000000000000000000000000000000100009060523784MARTA ANJOS PEREIRA DO NASCIME          RUA DUCLEIA MARTINS POLICARPO           SACRAMENTO  24735845RIO DE JANEIRO RJUNIAO UMB DOS CULTOS AFRO BRAS    30101810 000032
10231987175000168916200163100    000028659                    000286590000000000000109                     I0128659     30091800000000040003410000017N040918104700000000000103009180000000000000000000000000000000000000000100009060523784MARTA ANJOS PEREIRA DO NASCIME          RUA DUCLEIA MARTINS POLICARPO           SACRAMENTO  24735845RIO DE JANEIRO RJUNIAO UMB DOS CULTOS AFRO BRAS    30091810 000033
10231987175000168916200163100    000028658                    000286580000000000000109                     I0128658     20091800000000245003410000017N040918104700000000000102009180000000000000000000000000000000000000000100004275325745MAIKE OLIVEIRA DA COSTA                 TRAVESSA: MARTA DA ROCHA                ABOLICAO    20755030RIO DE JANEIRO RJUNIAO UMB DOS CULTOS AFRO BRAS    20091810 000034
10231987175000168916200163100    000020739                    000207390000000000000109                     I0220739     30081800000000035003410000017N070518104700000000000103008180000000000000000000000000000000000000000100004275325745MAIKE OLIVEIRA DA COSTA                 TRAVESSA: MARTA DA ROCHA                ABOLICAO    20755030RIO DE JANEIRO RJUNIAO UMB DOS CULTOS AFRO BRAS    30081810 000035
10231987175000168916200163100    000020713                    000207130000000000000109                     I3420713     30081800000000035003410000017N070518104700000000000103008180000000000000000000000000000000000000000100004842101490MARIA DE LOURDES FARIAS DOS SA          RUA HELIO DE OLIVEIRA                   PARADA MORAB25000000DUQUE DE CAXIASRJUNIAO UMB DOS CULTOS AFRO BRAS    30081810 000036
10231987175000168916200163100    000020564                    000205640000000000000109                     I3420564     30081800000000035003410000017N070518104700000000000103008180000000000000000000000000000000000000000100066514118704MARILIA GARCIA DA PAIXAO                RUA FRANCOLIM N 306                     GUADALUPE - 21660130RIO DE JANEIRO RJUNIAO UMB DOS CULTOS AFRO BRAS    30081810 000037
10231987175000168916200163100    000020481                    000204810000000000000109                     I3420481     30081800000000035003410000017N070518104700000000000103008180000000000000000000000000000000000000000100002596844737NANCI BARCELOS MACIEL                   MESMO                                   MESMO       21320030RIO DE JANEIRO RJUNIAO UMB DOS CULTOS AFRO BRAS    30081810 000038
10231987175000168916200163100    000020415                    000204150000000000000109                     I0220415     30081800000000035003410000017N070518104700000000000103008180000000000000000000000000000000000000000100009079674770FERNANDA DOS SANTOS SILVA               RUA JOAQUIM MANOEL DA ROCHA             TRES PONTES 24809254SAO GONCALO    RJUNIAO UMB DOS CULTOS AFRO BRAS    30081810 000039
10231987175000168916200163100    000020314                    000203140000000000000109                     I0220314     30081800000000035003410000017N070518104700000000000103008180000000000000000000000000000000000000000100005529010750JOELMA MELO DA SILVA                    RUA DIONIZIO RIBEIRO CHAVES             ANAIA - SANT24737660SAO GONCALO    RJUNIAO UMB DOS CULTOS AFRO BRAS    30081810 000040
10231987175000168916200163100    000020296                    000202960000000000000109                     I3420296     30081800000000035003410000017N070518104700000000000103008180000000000000000000000000000000000000000100002912143713JANAINA PACHECO PINHEIRO                RUA FILGUEIRAS LIMA                     RIACHUELO   20950050RIO DE JANEIRO RJUNIAO UMB DOS CULTOS AFRO BRAS    30081810 000041
10231987175000168916200163100    000020282                    000202820000000000000109                     I0220282     30081800000000035003410000017N070518104700000000000103008180000000000000000000000000000000000000000100003210312414MARCELINA DA SILVA COSTA                RUA ALARICO DE SOUZA                    ATALAIA     24315000NITEROI        RJUNIAO UMB DOS CULTOS AFRO BRAS    30081810 000042
10231987175000168916200163100    000020181                    000201810000000000000109                     I3420181     30081800000000035003410000017N070518104700000000000103008180000000000000000000000000000000000000000100007476149739JAQUELINE DE ASSIS                      RUA MIGUEL DE CARVALHO                  GUARATIBA   23035640RIO DE JANEIRO RJUNIAO UMB DOS CULTOS AFRO BRAS    30081810 000043
10231987175000168916200163100    000020018                    000200180000000000000109                     I3420018     30081800000000035003410000017N070518104700000000000103008180000000000000000000000000000000000000000100043839312787GILDA MANOELA                           RUA CRISANTEMOS                         PRADOS VERDE26299039NOVA IGUACU    RJUNIAO UMB DOS CULTOS AFRO BRAS    30081810 000044
10231987175000168916200163100    000019699                    000196990000000000000109                     I3419699     30081800000000035003410000017N070518104700000000000103008180000000000000000000000000000000000000000100063553830778WILLIAM RODRIGUES                       ESTRADA OTEIRO SANTO, 1022 CASA 3       TAQUARA - RI22713169RIO DE JANEIRO RJUNIAO UMB DOS CULTOS AFRO BRAS    30081810 000045
10231987175000168916200163100    000019563                    000195630000000000000109                     I3419563     30081800000000035003410000017N070518104700000000000103008180000000000000000000000000000000000000000100070891036768EDNA FERREIRA DE MELO                   RUA SARGENTO MARQUETI N 5               MARECHAL HER21611000RIO DE JANEIRO RJUNIAO UMB DOS CULTOS AFRO BRAS    30081810 000046
10231987175000168916200163100    000019414                    000194140000000000000109                     I3419414     30081800000000035003410000017N070518104700000000000103008180000000000000000000000000000000000000000100076896960744MARIA LUCIA DE OLIVEIRA NUNES           AVENIDA DO CORRETOR N 116               VILA ALIANCA21842340RIO DE JANEIRO RJUNIAO UMB DOS CULTOS AFRO BRAS    30081810 000047
10231987175000168916200163100    000019169                    000191690000000000000109                     I0219169     30071800000000035003410000017N070518104700000000000103007180000000000000000000000000000000000000000100004275325745MAIKE OLIVEIRA DA COSTA                 TRAVESSA: MARTA DA ROCHA                ABOLICAO    20755030RIO DE JANEIRO RJUNIAO UMB DOS CULTOS AFRO BRAS    30071810 000048
10231987175000168916200163100    000018744                    000187440000000000000109                     I0218744     30071800000000035003410000017N070518104700000000000103007180000000000000000000000000000000000000000100005529010750JOELMA MELO DA SILVA                    RUA DIONIZIO RIBEIRO CHAVES             ANAIA - SANT24737660SAO GONCALO    RJUNIAO UMB DOS CULTOS AFRO BRAS    30071810 000049
10231987175000168916200163100    000018726                    000187260000000000000109                     I3418726     30071800000000035003410000017N070518104700000000000103007180000000000000000000000000000000000000000100002912143713JANAINA PACHECO PINHEIRO                RUA FILGUEIRAS LIMA                     RIACHUELO   20950050RIO DE JANEIRO RJUNIAO UMB DOS CULTOS AFRO BRAS    30071810 000050
10231987175000168916200163100    000018712                    000187120000000000000109                     I0218712     30071800000000035003410000017N070518104700000000000103007180000000000000000000000000000000000000000100003210312414MARCELINA DA SILVA COSTA                RUA ALARICO DE SOUZA                    ATALAIA     24315000NITEROI        RJUNIAO UMB DOS CULTOS AFRO BRAS    30071810 000051
10231987175000168916200163100    000018611                    000186110000000000000109                     I3418611     30071800000000035003410000017N070518104700000000000103007180000000000000000000000000000000000000000100007476149739JAQUELINE DE ASSIS                      RUA MIGUEL DE CARVALHO                  GUARATIBA   23035640RIO DE JANEIRO RJUNIAO UMB DOS CULTOS AFRO BRAS    30071810 000052
10231987175000168916200163100    000018101                    000181010000000000000109                     I0218101     30071800000000035003410000017N070518104700000000000103007180000000000000000000000000000000000000000100010083312790EDINALDO FELIX DA SILVA                 RUA: BERNARDA MARIA DA CONCEICAO        FAZENDA CAXI23895320ILHA DO GOVERNARJUNIAO UMB DOS CULTOS AFRO BRAS    30071810 000053
10231987175000168916200163100    000017993                    000179930000000000000109                     I3417993     30071800000000035003410000017N070518104700000000000103007180000000000000000000000000000000000000000100070891036768EDNA FERREIRA DE MELO                   RUA SARGENTO MARQUETI N 5               MARECHAL HER21611000RIO DE JANEIRO RJUNIAO UMB DOS CULTOS AFRO BRAS    30071810 000054
10231987175000168916200163100    000017844                    000178440000000000000109                     I3417844     30071800000000035003410000017N070518104700000000000103007180000000000000000000000000000000000000000100076896960744MARIA LUCIA DE OLIVEIRA NUNES           AVENIDA DO CORRETOR N 116               VILA ALIANCA21842340RIO DE JANEIRO RJUNIAO UMB DOS CULTOS AFRO BRAS    30071810 000055
10231987175000168916200163100    000015421                    000154210000000000000109                     I3415421     20071800000000035003410000017N070518104700000000000102007180000000000000000000000000000000000000000100007476149739JAQUELINE DE ASSIS                      RUA MIGUEL DE CARVALHO                  GUARATIBA   23035640RIO DE JANEIRO RJUNIAO UMB DOS CULTOS AFRO BRAS    20071810 000056
9                                                                                                                                                                                                                                                                                                                                                                                                         000057
