01REMESSA01COBRANCA       916200163100        União Umb dos Cultos Afro Bra341BANCO ITAU SA  190118                                                                                                                                                                                                                                                                                                      000001
10231987175000168916200163100    00008690                     000086900000000000000109                     I018690      31011800000000035003410000017N020118104700000000000103101180000000000000000000000000000000000000000100097181935704ANDREA MARTINS SANTANA                  RUA AMANDIU, 344                        IRAJA - RIO 21371440RIO DE JANEIRO RJUNIAO UMB DOS CULTOS AFRO BRAS    31011810 000002
9                                                                                                                                                                                                                                                                                                                                                                                                         000003
