01REMESSA01COBRANCA       817800093673        União Umb dos Cultos Afro Bra341BANCO ITAU SA  260319                                                                                                                                                                                                                                                                                                      000001
10231987175000168817800093673    000036964                    000369640000000000000109                     I0236964     28021900000000040003410000017N261218104700000000000102802190000000000000000000000000000000000000000100079096611772MARIO LUIZ BARRETO DE BARROS            RUA GRAVATAN 215,                       MARECHAL HER21610510RIO DE JANEIRO RJUNIAO UMB DOS CULTOS AFRO BRAS    28021910 000002
9                                                                                                                                                                                                                                                                                                                                                                                                         000003
