01REMESSA01COBRANCA       916200163100        União Umb dos Cultos Afro Bra341BANCO ITAU SA  230218                                                                                                                                                                                                                                                                                                      000001
10231987175000168916200163100    000014028                    000140280000000000000109                     I0114028     30051800000000035003410000017N230218104700000000000103005180000000000000000000000000000000000000000100097129461772ROSINEIDE BARBOSA DA SILVA              RUA: ADILSON FERREIRA LOTE 10 - VILA MAGPIABETA - MA24210205MAGE           RJUNIAO UMB DOS CULTOS AFRO BRAS    30051810 000002
10231987175000168916200163100    000014027                    000140270000000000000109                     I0114027     30041800000000035003410000017N230218104700000000000103004180000000000000000000000000000000000000000100097129461772ROSINEIDE BARBOSA DA SILVA              RUA: ADILSON FERREIRA LOTE 10 - VILA MAGPIABETA - MA24210205MAGE           RJUNIAO UMB DOS CULTOS AFRO BRAS    30041810 000003
10231987175000168916200163100    000014026                    000140260000000000000109                     I0114026     30031800000000035003410000017N230218104700000000000103003180000000000000000000000000000000000000000100097129461772ROSINEIDE BARBOSA DA SILVA              RUA: ADILSON FERREIRA LOTE 10 - VILA MAGPIABETA - MA24210205MAGE           RJUNIAO UMB DOS CULTOS AFRO BRAS    30031810 000004
10231987175000168916200163100    000014025                    000140250000000000000109                     I0114025     30051800000000035003410000017N230218104700000000000103005180000000000000000000000000000000000000000100000858723778GEOVANI FERNANDA DA SILVA               RUA SOFIA BARRETO                       VITOR DUMAS 23550700RIO DE JANEIRO RJUNIAO UMB DOS CULTOS AFRO BRAS    30051810 000005
10231987175000168916200163100    000014024                    000140240000000000000109                     I0114024     30041800000000035003410000017N230218104700000000000103004180000000000000000000000000000000000000000100000858723778GEOVANI FERNANDA DA SILVA               RUA SOFIA BARRETO                       VITOR DUMAS 23550700RIO DE JANEIRO RJUNIAO UMB DOS CULTOS AFRO BRAS    30041810 000006
10231987175000168916200163100    000014023                    000140230000000000000109                     I0114023     30031800000000035003410000017N230218104700000000000103003180000000000000000000000000000000000000000100000858723778GEOVANI FERNANDA DA SILVA               RUA SOFIA BARRETO                       VITOR DUMAS 23550700RIO DE JANEIRO RJUNIAO UMB DOS CULTOS AFRO BRAS    30031810 000007
10231987175000168916200163100    000014022                    000140220000000000000109                     I0114022     30051800000000035003410000017N230218104700000000000103005180000000000000000000000000000000000000000100010126360707NONILHA DA CONCEICAO FERREIRA           RUA JUSCELINO KUBITCHEK DE OLIVEIRA ,232PRAIA NOVA -25900000MAGE           RJUNIAO UMB DOS CULTOS AFRO BRAS    30051810 000008
10231987175000168916200163100    000014021                    000140210000000000000109                     I0114021     30041800000000035003410000017N230218104700000000000103004180000000000000000000000000000000000000000100010126360707NONILHA DA CONCEICAO FERREIRA           RUA JUSCELINO KUBITCHEK DE OLIVEIRA ,232PRAIA NOVA -25900000MAGE           RJUNIAO UMB DOS CULTOS AFRO BRAS    30041810 000009
10231987175000168916200163100    000014020                    000140200000000000000109                     I0114020     30031800000000035003410000017N230218104700000000000103003180000000000000000000000000000000000000000100010126360707NONILHA DA CONCEICAO FERREIRA           RUA JUSCELINO KUBITCHEK DE OLIVEIRA ,232PRAIA NOVA -25900000MAGE           RJUNIAO UMB DOS CULTOS AFRO BRAS    30031810 000010
10231987175000168916200163100    000014019                    000140190000000000000109                     I0114019     30051800000000035003410000017N230218104700000000000103005180000000000000000000000000000000000000000100002880433754ROSELANE DOS SANTOS ADAO MENDE          RUA CORREGO DANTA, LOTE 26 QUADRA 22    PEDRA DE GUA23026500GUARATIBA      RJUNIAO UMB DOS CULTOS AFRO BRAS    30051810 000011
10231987175000168916200163100    000014018                    000140180000000000000109                     I0114018     30041800000000035003410000017N230218104700000000000103004180000000000000000000000000000000000000000100002880433754ROSELANE DOS SANTOS ADAO MENDE          RUA CORREGO DANTA, LOTE 26 QUADRA 22    PEDRA DE GUA23026500GUARATIBA      RJUNIAO UMB DOS CULTOS AFRO BRAS    30041810 000012
10231987175000168916200163100    000014017                    000140170000000000000109                     I0114017     30031800000000035003410000017N230218104700000000000103003180000000000000000000000000000000000000000100002880433754ROSELANE DOS SANTOS ADAO MENDE          RUA CORREGO DANTA, LOTE 26 QUADRA 22    PEDRA DE GUA23026500GUARATIBA      RJUNIAO UMB DOS CULTOS AFRO BRAS    30031810 000013
10231987175000168916200163100    000014016                    000140160000000000000109                     I0114016     30051800000000035003410000017N230218104700000000000103005180000000000000000000000000000000000000000100004826958706CRISTIANE RABELLO PAZ                   RUA ROBERTO SILVA N 540                 RAMOS - RIO 21060230RIO DE JANEIRO RJUNIAO UMB DOS CULTOS AFRO BRAS    30051810 000014
10231987175000168916200163100    000014015                    000140150000000000000109                     I0114015     30041800000000035003410000017N230218104700000000000103004180000000000000000000000000000000000000000100004826958706CRISTIANE RABELLO PAZ                   RUA ROBERTO SILVA N 540                 RAMOS - RIO 21060230RIO DE JANEIRO RJUNIAO UMB DOS CULTOS AFRO BRAS    30041810 000015
10231987175000168916200163100    000014014                    000140140000000000000109                     I0114014     30031800000000035003410000017N230218104700000000000103003180000000000000000000000000000000000000000100004826958706CRISTIANE RABELLO PAZ                   RUA ROBERTO SILVA N 540                 RAMOS - RIO 21060230RIO DE JANEIRO RJUNIAO UMB DOS CULTOS AFRO BRAS    30031810 000016
10231987175000168916200163100    000014013                    000140130000000000000109                     I0114013     30051800000000035003410000017N230218104700000000000103005180000000000000000000000000000000000000000100010520857763MARCELO ANTONIO PIMENTA                 RUA ITUMIRIM, 25                        GUARATIBA - 23033270RIO DE JANEIRO RJUNIAO UMB DOS CULTOS AFRO BRAS    30051810 000017
10231987175000168916200163100    000014012                    000140120000000000000109                     I0114012     30041800000000035003410000017N230218104700000000000103004180000000000000000000000000000000000000000100010520857763MARCELO ANTONIO PIMENTA                 RUA ITUMIRIM, 25                        GUARATIBA - 23033270RIO DE JANEIRO RJUNIAO UMB DOS CULTOS AFRO BRAS    30041810 000018
10231987175000168916200163100    000014011                    000140110000000000000109                     I0114011     30031800000000035003410000017N230218104700000000000103003180000000000000000000000000000000000000000100010520857763MARCELO ANTONIO PIMENTA                 RUA ITUMIRIM, 25                        GUARATIBA - 23033270RIO DE JANEIRO RJUNIAO UMB DOS CULTOS AFRO BRAS    30031810 000019
10231987175000168916200163100    000014010                    000140100000000000000109                     I0114010     30051800000000035003410000017N230218104700000000000103005180000000000000000000000000000000000000000100000251892719JULIO CESAR PERRUSO                     RUA MEXIANA, 25                         SOUZA - CAMP23085790RIO DE JANEIRO RJUNIAO UMB DOS CULTOS AFRO BRAS    30051810 000020
10231987175000168916200163100    000014009                    000140090000000000000109                     I0114009     30041800000000035003410000017N230218104700000000000103004180000000000000000000000000000000000000000100000251892719JULIO CESAR PERRUSO                     RUA MEXIANA, 25                         SOUZA - CAMP23085790RIO DE JANEIRO RJUNIAO UMB DOS CULTOS AFRO BRAS    30041810 000021
10231987175000168916200163100    000014008                    000140080000000000000109                     I0114008     30031800000000035003410000017N230218104700000000000103003180000000000000000000000000000000000000000100000251892719JULIO CESAR PERRUSO                     RUA MEXIANA, 25                         SOUZA - CAMP23085790RIO DE JANEIRO RJUNIAO UMB DOS CULTOS AFRO BRAS    30031810 000022
10231987175000168916200163100    000014007                    000140070000000000000109                     I0114007     30051800000000035003410000017N230218104700000000000103005180000000000000000000000000000000000000000100074190741787JOSE ITAGIBA RODRIGUES                  TRAVESSA SANTA ROSA, LOTE 35            CAPELA - MAG25916060MAGE           RJUNIAO UMB DOS CULTOS AFRO BRAS    30051810 000023
10231987175000168916200163100    000014006                    000140060000000000000109                     I0114006     30041800000000035003410000017N230218104700000000000103004180000000000000000000000000000000000000000100074190741787JOSE ITAGIBA RODRIGUES                  TRAVESSA SANTA ROSA, LOTE 35            CAPELA - MAG25916060MAGE           RJUNIAO UMB DOS CULTOS AFRO BRAS    30041810 000024
10231987175000168916200163100    000014005                    000140050000000000000109                     I0114005     30031800000000035003410000017N230218104700000000000103003180000000000000000000000000000000000000000100074190741787JOSE ITAGIBA RODRIGUES                  TRAVESSA SANTA ROSA, LOTE 35            CAPELA - MAG25916060MAGE           RJUNIAO UMB DOS CULTOS AFRO BRAS    30031810 000025
10231987175000168916200163100    000014004                    000140040000000000000109                     I0114004     15031800000000400003410000017N230218104700000000000101503180000000000000000000000000000000000000000100047448865749NEUSA MARIA DA SILVA                    AVENIDA CORONEL PHIDIAS TAVORA, RUA LIRIJARDIM AMERI21535590RIO DE JANEIRO RJUNIAO UMB DOS CULTOS AFRO BRAS    15031810 000026
9                                                                                                                                                                                                                                                                                                                                                                                                         000027
