01REMESSA01COBRANCA       817800093673        União Umb dos Cultos Afro Bra341BANCO ITAU SA  210818                                                                                                                                                                                                                                                                                                      000001
10231987175000168817800093673    000024512                    000245120000000000000109                     I0124512     30101800000000035003410000017N200818104700000000000103010180000000000000000000000000000000000000000200000000002796ANA MARIA ROQUE DA SILVA                RUA EUCLIDES ROXO N 185                 REALENGO - R21765590RIO DE JANEIRO RJUNIAO UMB DOS CULTOS AFRO BRAS    30101810 000002
10231987175000168817800093673    000024511                    000245110000000000000109                     I0124511     30101800000000035003410000017N200818104700000000000103010180000000000000000000000000000000000000000100067165664734JAIRINO DOS SANTOS E JUREMA J.          TRAVESSA ALVARENGA N 80                 EDSON PASSOS26246150MESQUITA       RJUNIAO UMB DOS CULTOS AFRO BRAS    30101810 000003
10231987175000168817800093673    000024510                    000245100000000000000109                     I0124510     30101800000000035003410000017N200818104700000000000103010180000000000000000000000000000000000000000100071924337720MARIA DAS DORES FERREIRA PESSA          AVENIDA  RAFAEL DE OLIVEIRA  60         GUADALUPE   21675620RIO DE JANEIRO RJUNIAO UMB DOS CULTOS AFRO BRAS    30101810 000004
10231987175000168817800093673    000024509                    000245090000000000000109                     I0124509     30101800000000035003410000017N200818104700000000000103010180000000000000000000000000000000000000000100078664870730LUCIA MARA RIBEIRO OLIVEIRA             RUA LUIZA N 47                          CHATUBA - ME26584210MESQUITA       RJUNIAO UMB DOS CULTOS AFRO BRAS    30101810 000005
10231987175000168817800093673    000024508                    000245080000000000000109                     I0124508     30101800000000035003410000017N200818104700000000000103010180000000000000000000000000000000000000000100090776704753CLAUDIO ISAAC PEREIRA TEIXEIRA          RUA ARUTI N 57 FUNDOS                   PRACA SECA -21321030RIO DE JANEIRO RJUNIAO UMB DOS CULTOS AFRO BRAS    30101810 000006
10231987175000168817800093673    000024507                    000245070000000000000109                     I0124507     30101800000000035003410000017N200818104700000000000103010180000000000000000000000000000000000000000100079006980753ELIANE BARBOSA RODRIGUES                AVENIDA PASTEUR                         SAO JOAO DE 25550480SAO JOAO DE MERRJUNIAO UMB DOS CULTOS AFRO BRAS    30101810 000007
10231987175000168817800093673    000024506                    000245060000000000000109                     I0124506     30101800000000035003410000017N200818104700000000000103010180000000000000000000000000000000000000000100045469805720NIVALDA MARIA FERREIRA                  RUA LASSANCE LOTE 14 QUADRA 9           JARDIM MARAV23033100CAMPO GRANDE   RJUNIAO UMB DOS CULTOS AFRO BRAS    30101810 000008
10231987175000168817800093673    000024505                    000245050000000000000109                     I0124505     30101800000000035003410000017N200818104700000000000103010180000000000000000000000000000000000000000100000888045778JOSIAS MARANHAO DA SILVA                RUA TRIMONTE                            JARDIM PRIMA25223820DUQUE DE CAXIASRJUNIAO UMB DOS CULTOS AFRO BRAS    30101810 000009
10231987175000168817800093673    000024504                    000245040000000000000109                     I0124504     30101800000000035003410000017N200818104700000000000103010180000000000000000000000000000000000000000200000000002672ADRIANA SANTOS DA SILVA                 RUA URBANO DUARTE N 199                 VILA ROSARIO25042300DUQUE DE CAXIASRJUNIAO UMB DOS CULTOS AFRO BRAS    30101810 000010
10231987175000168817800093673    000024503                    000245030000000000000109                     I0124503     30101800000000035003410000017N200818104700000000000103010180000000000000000000000000000000000000000100048363340715AUREA RAMOS                             ESTRADA DO MAGARCA N 8488               CINCO MARIAS23031201PEDRA DE GUARATRJUNIAO UMB DOS CULTOS AFRO BRAS    30101810 000011
10231987175000168817800093673    000024502                    000245020000000000000109                     I0124502     30101800000000035003410000017N200818104700000000000103010180000000000000000000000000000000000000000100075643081768ELISABETE MOREIRA FREIRE DA SI          RUA NOVENTA E OITO LOTE 15              VILA CARIOCA21220770RIO DE JANEIRO RJUNIAO UMB DOS CULTOS AFRO BRAS    30101810 000012
10231987175000168817800093673    000024501                    000245010000000000000109                     I0124501     30101800000000035003410000017N200818104700000000000103010180000000000000000000000000000000000000000100010491247745JOAO BATISTA MACEDO DE FREITAS          RUA ITAGIBA N 1047 FUNDOS               COSMOS - RIO23060450RIO DE JANEIRO RJUNIAO UMB DOS CULTOS AFRO BRAS    30101810 000013
10231987175000168817800093673    000024500                    000245000000000000000109                     I0124500     30101800000000035003410000017N200818104700000000000103010180000000000000000000000000000000000000000200000000002619MARCOS ROMEU DA SILVA                   CAMINHO DO FERRADOR N 30                GUARATIBA - 23020570CAMPO GRANDE   RJUNIAO UMB DOS CULTOS AFRO BRAS    30101810 000014
10231987175000168817800093673    000024499                    000244990000000000000109                     I0124499     30101800000000035003410000017N200818104700000000000103010180000000000000000000000000000000000000000100082233039734BARBARA DA SILVA CUNHA MOREIRA          RUA EVARISTO PIRES N 290                BANGU - RIO 21840040RIO DE JANEIRO RJUNIAO UMB DOS CULTOS AFRO BRAS    30101810 000015
10231987175000168817800093673    000024498                    000244980000000000000109                     I0124498     30101800000000035003410000017N200818104700000000000103010180000000000000000000000000000000000000000200000000002580EDMILSON DOS SANTOS WINNE DE N          RUA DONA JULIA N 40 FUNDOS              SEPETIBA - R23545570RIO DE JANEIRO RJUNIAO UMB DOS CULTOS AFRO BRAS    30101810 000016
10231987175000168817800093673    000024497                    000244970000000000000109                     I0124497     30101800000000035003410000017N200818104700000000000103010180000000000000000000000000000000000000000200000000002569REGINA CELIA DA SILVA LINS              CONDOMINIO PASSAREDO QUADRA 30 LOTE 3   CAMINHO DE B28921100RIO DE JANEIRO RJUNIAO UMB DOS CULTOS AFRO BRAS    30101810 000017
10231987175000168817800093673    000024496                    000244960000000000000109                     I0124496     30101800000000035003410000017N200818104700000000000103010180000000000000000000000000000000000000000100005744506705SANDRA REGINA DE OLIVEIRA               RUA MARCIA COSTA N 924                  JARDIM NOVA 26271160NOVA IGUACU    RJUNIAO UMB DOS CULTOS AFRO BRAS    30101810 000018
10231987175000168817800093673    000024495                    000244950000000000000109                     I0124495     30101800000000040003410000017N200818104700000000000103010180000000000000000000000000000000000000000207325726570220DAMIANA DE OLIVEIRA PINHEIRO            RUA PROJETADA ALPHA QUADRA 5 LOTE 6     MORADA VERDE23575270SANTA CRUZ     RJUNIAO UMB DOS CULTOS AFRO BRAS    30101810 000019
10231987175000168817800093673    000024494                    000244940000000000000109                     I0124494     30101800000000035003410000017N200818104700000000000103010180000000000000000000000000000000000000000100000000000250ANA LUCIA FRANCISCO BORGES              RUA: DO ACAFRAO                         PADRE MIGUEL21870330RIO DE JANEIRO RJUNIAO UMB DOS CULTOS AFRO BRAS    30101810 000020
10231987175000168817800093673    000024493                    000244930000000000000109                     I0124493     30101800000000035003410000017N200818104700000000000103010180000000000000000000000000000000000000000100001295514737DANUZA JEREMIAS DA SILVA                RUA JOAQUIM RAFAEL, 957                 COELHO - SAO24740020SAO GONCALO    RJUNIAO UMB DOS CULTOS AFRO BRAS    30101810 000021
10231987175000168817800093673    000024492                    000244920000000000000109                     I0124492     30101800000000035003410000017N200818104700000000000103010180000000000000000000000000000000000000000200000000002460EVA ANA ROSA DOS SANTOS                 O MESMO                                 O MESMO     23066080RIO DE JANEIRO RJUNIAO UMB DOS CULTOS AFRO BRAS    30101810 000022
10231987175000168817800093673    000024491                    000244910000000000000109                     I0124491     30101800000000035003410000017N200818104700000000000103010180000000000000000000000000000000000000000100059272570700VERA LUCIA LIMA SILVA                   O MESMO                                 O MESMO     22723510RIO DE JANEIRO RJUNIAO UMB DOS CULTOS AFRO BRAS    30101810 000023
10231987175000168817800093673    000024490                    000244900000000000000109                     I0124490     30101800000000035003410000017N200818104700000000000103010180000000000000000000000000000000000000000100072090499753JOSEFINA PAULINA RODRIGUES              RUA JOAQUIM SOARES NETO, 416            NOVA AMERICA26021560NOVA IGUACU    RJUNIAO UMB DOS CULTOS AFRO BRAS    30101810 000024
10231987175000168817800093673    000024489                    000244890000000000000109                     I0124489     30101800000000035003410000017N200818104700000000000103010180000000000000000000000000000000000000000100079758517791NEY PEREIRA LEITE                       RUA MARECHAL MARCIANO N 368 CASA B TRAVEREALENGO - R21735651RIO DE JANEIRO RJUNIAO UMB DOS CULTOS AFRO BRAS    30101810 000025
10231987175000168817800093673    000024488                    000244880000000000000109                     I0124488     30101800000000035003410000017N200818104700000000000103010180000000000000000000000000000000000000000100005256804707SUSI ROSANA DE OLIVEIRA - JANA          O MESMO                                 O MESMO     21765000RIO DE JANEIRO RJUNIAO UMB DOS CULTOS AFRO BRAS    30101810 000026
10231987175000168817800093673    000024487                    000244870000000000000109                     I0124487     30101800000000040003410000017N200818104700000000000103010180000000000000000000000000000000000000000100000000001242OSVALDO LUIZ ESTRELA FERNANDES          MESMO                                   MESMO       22071110ITAGUAI        RJUNIAO UMB DOS CULTOS AFRO BRAS    30101810 000027
10231987175000168817800093673    000024486                    000244860000000000000109                     I0124486     30101800000000035003410000017N200818104700000000000103010180000000000000000000000000000000000000000100001789073758BERNADETE BURGOS AMORIM RANGEL          RUA: IMBUI Nº 120 - LARGO DO TANQUE    TANQUE / TAQ22730100RIO DE JANEIRO RJUNIAO UMB DOS CULTOS AFRO BRAS    30101810 000028
10231987175000168817800093673    000024485                    000244850000000000000109                     I0124485     30101800000000035003410000017N200818104700000000000103010180000000000000000000000000000000000000000100001388677717EDSON LUIZ COSTA SOARES                 RUA: LEOCADIO MELLO 326                 JARDIM NOVA 26272060NOVA IGUACU    RJUNIAO UMB DOS CULTOS AFRO BRAS    30101810 000029
10231987175000168817800093673    000024484                    000244840000000000000109                     I0124484     30101800000000035003410000017N200818104700000000000103010180000000000000000000000000000000000000000200000000002388JOSE ANTONIO ZANELLI                    RUA LIBANIO PORTO N 26 - SACRAMENTO     SITIO - MONJ24735360NITEROI        RJUNIAO UMB DOS CULTOS AFRO BRAS    30101810 000030
10231987175000168817800093673    000024483                    000244830000000000000109                     I0124483     30101800000000035003410000017N200818104700000000000103010180000000000000000000000000000000000000000100028131576787EVA MOREIRA FERREIRA                    O MESMO                                 O MESMO     25035800DUQUE DE CAXIASRJUNIAO UMB DOS CULTOS AFRO BRAS    30101810 000031
10231987175000168817800093673    000024482                    000244820000000000000109                     I0124482     30101800000000035003410000017N200818104700000000000103010180000000000000000000000000000000000000000100004550883131LINDINALVA MONTEIRO DA SILVA            RUA: TENENTE PALESTRINA                 CORDOVIL    21250550RIO DE JANEIRO RJUNIAO UMB DOS CULTOS AFRO BRAS    30101810 000032
10231987175000168817800093673    000024481                    000244810000000000000109                     I0124481     30101800000000035003410000017N200818104700000000000103010180000000000000000000000000000000000000000100093151179720ELIZABETH DA SILVA GOIS                 RUA RAFAEL HAENNY, 2 LOTE 2 QUADRA 4    SEPETIBA - R23535640RIO DE JANEIRO RJUNIAO UMB DOS CULTOS AFRO BRAS    30101810 000033
10231987175000168817800093673    000024480                    000244800000000000000109                     I0124480     30101800000000035003410000017N200818104700000000000103010180000000000000000000000000000000000000000200000000002322SEBASTIANA MARIANO DIAS                 O MESMO                                 O MESMO     23811560ITAGUAI        RJUNIAO UMB DOS CULTOS AFRO BRAS    30101810 000034
10231987175000168817800093673    000024479                    000244790000000000000109                     I0124479     30101800000000035003410000017N200818104700000000000103010180000000000000000000000000000000000000000100001345348754ADRIANA DE LELIS                        RUA DOIS QUADRA D LOTE 13               BAIRRO SILVE23092080RIO DE JANEIRO RJUNIAO UMB DOS CULTOS AFRO BRAS    30101810 000035
10231987175000168817800093673    000024478                    000244780000000000000109                     I0124478     30101800000000035003410000017N200818104700000000000103010180000000000000000000000000000000000000000200000000002310SEVERINO MIGUEL SIMAO                   RUA CONDOMINIO PASSAREDO, QUADRA 24 LOTECAM.DE BUZIO28910000CABO FRIO      RJUNIAO UMB DOS CULTOS AFRO BRAS    30101810 000036
10231987175000168817800093673    000024477                    000244770000000000000109                     I0124477     30101800000000035003410000017N200818104700000000000103010180000000000000000000000000000000000000000200000000002291DALILA DE SOUZA PINHEIRO                RUA JOAO BRIGIDO, 121                   MAGALHAES BA21745480RIO DE JANEIRO RJUNIAO UMB DOS CULTOS AFRO BRAS    30101810 000037
10231987175000168817800093673    000024476                    000244760000000000000109                     I0124476     30101800000000035003410000017N200818104700000000000103010180000000000000000000000000000000000000000100007070605757DANIEL MARCONDI DE SOUZA                RUA: TUPI Nº 20                        VILA PAULINE26185235BELFORD ROXO   RJUNIAO UMB DOS CULTOS AFRO BRAS    30101810 000038
10231987175000168817800093673    000024475                    000244750000000000000109                     I0124475     30101800000000035003410000017N200818104700000000000103010180000000000000000000000000000000000000000100004287865707MARIA LUISA DE OLIVEIRA LIREO           RUA PORTO CARRERO N 333                 CORDOVIL - R21250260RIO DE JANEIRO RJUNIAO UMB DOS CULTOS AFRO BRAS    30101810 000039
10231987175000168817800093673    000024474                    000244740000000000000109                     I0124474     30101800000000040003410000017N200818104700000000000103010180000000000000000000000000000000000000000100033223190759CELIA DA CONCEICAO RIBEIRO              RUA GENERAL JOSE FAUSTINO               REALENGO    21721050RIO DE JANEIRO RJUNIAO UMB DOS CULTOS AFRO BRAS    30101810 000040
10231987175000168817800093673    000024473                    000244730000000000000109                     I0124473     30101800000000035003410000017N200818104700000000000103010180000000000000000000000000000000000000000100062435710763ELI LIMA DOS SANTOS                     RUA DO VERDE CASA 3                     CURICICA - R22712001RIO DE JANEIRO RJUNIAO UMB DOS CULTOS AFRO BRAS    30101810 000041
10231987175000168817800093673    000024472                    000244720000000000000109                     I0124472     30101800000000035003410000017N200818104700000000000103010180000000000000000000000000000000000000000100083122869772ANDREIA OLIVEIRA DE MENEZES             RUA VICENTE PONTE                       JARDIM CARIO21921740RIO DE JANEIRO RJUNIAO UMB DOS CULTOS AFRO BRAS    30101810 000042
10231987175000168817800093673    000024471                    000244710000000000000109                     I0124471     30101800000000035003410000017N200818104700000000000103010180000000000000000000000000000000000000000100003032033748MARIA MOREIRA TEIXEIRA                  TRAVESSA RIACHAO 130                    AUSTIN - NOV26335090BELFORD ROXO   RJUNIAO UMB DOS CULTOS AFRO BRAS    30101810 000043
10231987175000168817800093673    000024470                    000244700000000000000109                     I0124470     30101800000000035003410000017N200818104700000000000103010180000000000000000000000000000000000000000200000000001688MAGNO AGUIAR DA SILVA                   RUA DOM PEDRO I, 1 FUNDOS               PRAIA GRANDE28930000ARRAIAL DO CABORJUNIAO UMB DOS CULTOS AFRO BRAS    30101810 000044
10231987175000168817800093673    000024469                    000244690000000000000109                     I0124469     30101800000000035003410000017N200818104700000000000103010180000000000000000000000000000000000000000100003725237735LUCIANO LOPES DA SILVA                  ALAMEDA BUENO AIRES                     RIO DO OURO 24752360SAO GONCALO    RJUNIAO UMB DOS CULTOS AFRO BRAS    30101810 000045
10231987175000168817800093673    000024468                    000244680000000000000109                     I0124468     30101800000000035003410000017N200818104700000000000103010180000000000000000000000000000000000000000100006932718766CARLOS EDUARDO DE OLIVEIRA              TRAVESSA CARLOS SAMPAIO QUADRA 2 LOTE 23AUSTIN - NOV26087287NOVA IGUACU    RJUNIAO UMB DOS CULTOS AFRO BRAS    30101810 000046
10231987175000168817800093673    000024467                    000244670000000000000109                     I0124467     30101800000000035003410000017N200818104700000000000103010180000000000000000000000000000000000000000100043116248753NORMA FELIX DA SILVA PEREIRA            RUA HENRIQUE MARTINS LOTE 24 QUADRA 17  LAGOINHA - S24736130SAO GONCALO    RJUNIAO UMB DOS CULTOS AFRO BRAS    30101810 000047
10231987175000168817800093673    000024466                    000244660000000000000109                     I0124466     30101800000000035003410000017N200818104700000000000103010180000000000000000000000000000000000000000200000000007615SONIA MARIA DA SILVA DELLIVENE          AV PLINIO GOMES DE MATTOS FILHO N 278   VARZEA DAS M24330430SAO GONCALO    RJUNIAO UMB DOS CULTOS AFRO BRAS    30101810 000048
10231987175000168817800093673    000024465                    000244650000000000000109                     I0124465     30101800000000035003410000017N200818104700000000000103010180000000000000000000000000000000000000000200000000007561LUCIA PEREIRA                           RUA: ZEFERINO DA COSTA N° 83           CAVALCANTI  21370230RIO DE JANEIRO RJUNIAO UMB DOS CULTOS AFRO BRAS    30101810 000049
10231987175000168817800093673    000024464                    000244640000000000000109                     I0124464     30101800000000035003410000017N200818104700000000000103010180000000000000000000000000000000000000000100071186220791AUREA GOMES                             AVENIDA FRANCISCO ANTONIO FRANCISCO     RETIRO      27276000VOLTA REDONDA  RJUNIAO UMB DOS CULTOS AFRO BRAS    30101810 000050
10231987175000168817800093673    000024463                    000244630000000000000109                     I0124463     30101800000000035003410000017N200818104700000000000103010180000000000000000000000000000000000000000100004455965700MARIA DE LOURDES SOARES DA SIL          ESTRADA RJ 127 KM 25                    ALTO DO CHAF26650000PAULO DE FRONTIRJUNIAO UMB DOS CULTOS AFRO BRAS    30101810 000051
10231987175000168817800093673    000024462                    000244620000000000000109                     I0124462     30101800000000035003410000017N200818104700000000000103010180000000000000000000000000000000000000000100098546686734MARCIO NEVES                            RUA FLORIANOPOLIS N 63                  PRACA SECA -21321050RIO DE JANEIRO RJUNIAO UMB DOS CULTOS AFRO BRAS    30101810 000052
10231987175000168817800093673    000024461                    000244610000000000000109                     I0124461     30101800000000035003410000017N200818104700000000000103010180000000000000000000000000000000000000000100000000000165ZUILA DE MELO E SILVA COVA              RUA: TAMOIOS                            SAO FRANCISC24360380NITEROI        RJUNIAO UMB DOS CULTOS AFRO BRAS    30101810 000053
10231987175000168817800093673    000024460                    000244600000000000000109                     I0124460     30101800000000035003410000017N200818104700000000000103010180000000000000000000000000000000000000000100000000007416ELOIDE GONCALVES GAIA                   O MESMO                                 O MESMO     00000000RIO DE JANEIRO RJUNIAO UMB DOS CULTOS AFRO BRAS    30101810 000054
10231987175000168817800093673    000024459                    000244590000000000000109                     I0124459     30101800000000035003410000017N200818104700000000000103010180000000000000000000000000000000000000000100005538511790VALNEI BARBOSA DA SILVA                 RUA: DOS RUBIS Nº 19 - INHOAIBA        CAMPO GRANDE23064670RIO DE JANEIRO RJUNIAO UMB DOS CULTOS AFRO BRAS    30101810 000055
10231987175000168817800093673    000024458                    000244580000000000000109                     I0124458     30101800000000035003410000017N200818104700000000000103010180000000000000000000000000000000000000000100028842723720HELENITA ANTONIA DE JESUS               RUA: ROBERTO CONSTANTINESCO 334         GUADALUPE   21675450RIO DE JANEIRO RJUNIAO UMB DOS CULTOS AFRO BRAS    30101810 000056
10231987175000168817800093673    000024457                    000244570000000000000109                     I0124457     30101800000000035003410000017N200818104700000000000103010180000000000000000000000000000000000000000100013222460760VITOR NERY DO AMARAL                    RUA MARIA PARIS, 342                    PAIOL - NILO26545600NILOPOLIS      RJUNIAO UMB DOS CULTOS AFRO BRAS    30101810 000057
10231987175000168817800093673    000024456                    000244560000000000000109                     I0124456     30101800000000035003410000017N200818104700000000000103010180000000000000000000000000000000000000000100064262839753MARIA JOSE SOUZA DOS SANTOS             RUA JOSE LIMA DA SILVA, 29              MARIA - BELF26185610BELFORD ROXO   RJUNIAO UMB DOS CULTOS AFRO BRAS    30101810 000058
10231987175000168817800093673    000024455                    000244550000000000000109                     I0124455     30101800000000035003410000017N200818104700000000000103010180000000000000000000000000000000000000000100086374370791IVETE SILVA GOMES                       RUA SEIS                                GEBARA - ITA24867416NITEROI        RJUNIAO UMB DOS CULTOS AFRO BRAS    30101810 000059
10231987175000168817800093673    000024454                    000244540000000000000109                     I0124454     30101800000000035003410000017N200818104700000000000103010180000000000000000000000000000000000000000100007929176770SANSIA MARIA SOBRINHO                   RUA TURMALINA QUADRA 149 LOTE 6         NOVO JARDIM 24175670SAO GONCALO    RJUNIAO UMB DOS CULTOS AFRO BRAS    30101810 000060
10231987175000168817800093673    000024453                    000244530000000000000109                     I0124453     30101800000000035003410000017N200818104700000000000103010180000000000000000000000000000000000000000100059941294704LUZIA LYGIA DO NASCIMENTO CAMA          RUA ONZE 112 CASA 1 QUADRA 57 - NOVA CAMSTA CRUZ DA 25250000DUQUE DE CAXIASRJUNIAO UMB DOS CULTOS AFRO BRAS    30101810 000061
10231987175000168817800093673    000024452                    000244520000000000000109                     I0124452     30101800000000035003410000017N200818104700000000000103010180000000000000000000000000000000000000000100001834521785MARCELO TEIXEIRA ORSI                   RUA A, 15 QUADRA 93 CASA 2              PARADA MORAB25000000DUQUE DE CAXIASRJUNIAO UMB DOS CULTOS AFRO BRAS    30101810 000062
10231987175000168817800093673    000024451                    000244510000000000000109                     I0124451     30101800000000035003410000017N200818104700000000000103010180000000000000000000000000000000000000000100000000000227MARIA DAS GRACAS MORAIS SOARES          AVENIDA LEANDRO DA MOTA, 865            VILA SAO SEB25065175DUQUE DE CAXIASRJUNIAO UMB DOS CULTOS AFRO BRAS    30101810 000063
10231987175000168817800093673    000024450                    000244500000000000000109                     I0124450     30101800000000035003410000017N200818104700000000000103010180000000000000000000000000000000000000000100006957328708ANDRE VALERIO DELGADO GOIS E M          RUA TORRES HOMEM N 147 LOTE 17          JARDIM OLAVO25025380DUQUE DE CAXIASRJUNIAO UMB DOS CULTOS AFRO BRAS    30101810 000064
10231987175000168817800093673    000024449                    000244490000000000000109                     I0124449     30101800000000040003410000017N200818104700000000000103010180000000000000000000000000000000000000000100042153425700MARIA DA CONCEICAO MADUREIRA D          MESMO                                   MESMO       21557010RIO DE JANEIRO RJUNIAO UMB DOS CULTOS AFRO BRAS    30101810 000065
10231987175000168817800093673    000024448                    000244480000000000000109                     I0124448     30101800000000035003410000017N200818104700000000000103010180000000000000000000000000000000000000000200000000007238DERLI DE CARVALHO SILVA                 RUA TEOTONIO SANTOS N 111               MARAMBAIA - 36880000MURIAE         MGUNIAO UMB DOS CULTOS AFRO BRAS    30101810 000066
10231987175000168817800093673    000024447                    000244470000000000000109                     I0124447     30101800000000035003410000017N200818104700000000000103010180000000000000000000000000000000000000000100007253631773CARLOS EDUARDO IZIDORO DE OLIV          RUA BRINCO DE PRINCESA N 980            PARQUE RESID07159630GUARULHOS      SPUNIAO UMB DOS CULTOS AFRO BRAS    30101810 000067
10231987175000168817800093673    000024446                    000244460000000000000109                     I0124446     30101800000000035003410000017N200818104700000000000103010180000000000000000000000000000000000000000100007281066716ZULMIRA DA SILVA RODRIGUES              RUA: BERNARDINO DE CAMPOS               OLAVO BILAC 25035530DUQUE DE CAXIASRJUNIAO UMB DOS CULTOS AFRO BRAS    30101810 000068
10231987175000168817800093673    000024445                    000244450000000000000109                     I0124445     30101800000000035003410000017N200818104700000000000103010180000000000000000000000000000000000000000100083650636780MARIZA MIRANDA                          RUA ALEXANDRINO N 120                   POSSE - NOVA26020247NOVA IGUACU    RJUNIAO UMB DOS CULTOS AFRO BRAS    30101810 000069
10231987175000168817800093673    000024444                    000244440000000000000109                     I0124444     30101800000000035003410000017N200818104700000000000103010180000000000000000000000000000000000000000100005963954770SANDRA MARIA DA SILVA SANTOS            RUA JOAO RAIMUNDO N 171                 VILA SANTO A25041400DUQUE DE CAXIASRJUNIAO UMB DOS CULTOS AFRO BRAS    30101810 000070
10231987175000168817800093673    000024443                    000244430000000000000109                     I0124443     30101800000000035003410000017N200818104700000000000103010180000000000000000000000000000000000000000100007324399738JACANA MONTEIRO DO AMARAL               RUA: MESQUITA Nº 573 - SAO ROQUE       QUEIMADOS - 23310170QUEIMADOS      RJUNIAO UMB DOS CULTOS AFRO BRAS    30101810 000071
10231987175000168817800093673    000024442                    000244420000000000000109                     I0124442     30101800000000035003410000017N200818104700000000000103010180000000000000000000000000000000000000000100064817008768MARINEIDE JOSE DOS SANTOS DA S          RUA: F Nº CASA 29 - ALTO DA POSSE      O MESMO     26020700QUEIMADOS      RJUNIAO UMB DOS CULTOS AFRO BRAS    30101810 000072
10231987175000168817800093673    000024441                    000244410000000000000109                     I0124441     30101800000000035003410000017N200818104700000000000103010180000000000000000000000000000000000000000100000000000165MARIA APARECIDA DOS SANTOS CYP          ESTRADA DO SABONETE, LOTE 25 QUADRA D   ARSENAL     24745224SAO GONCALO    RJUNIAO UMB DOS CULTOS AFRO BRAS    30101810 000073
10231987175000168817800093673    000024440                    000244400000000000000109                     I0124440     30101800000000040003410000017N200818104700000000000103010180000000000000000000000000000000000000000100007830594775EMERSON MODESTO SIQUEIRA                RUA MESQUITA                            REALENGO    21721210RIO DE JANEIRO RJUNIAO UMB DOS CULTOS AFRO BRAS    30101810 000074
10231987175000168817800093673    000024439                    000244390000000000000109                     I0124439     30101800000000035003410000017N200818104700000000000103010180000000000000000000000000000000000000000200000000001055ELZA DE AZEVEDO ALVES                   RUA BADUINIO DE AGUIAR N 220            PARADA DE LU21210760RIO DE JANEIRO RJUNIAO UMB DOS CULTOS AFRO BRAS    30101810 000075
10231987175000168817800093673    000024438                    000244380000000000000109                     I0124438     30101800000000035003410000017N200818104700000000000103010180000000000000000000000000000000000000000100038268264772SANDRA NUNES DE ARAUJO                  O MESMO                                 O MESMO     25041060DUQUE DE CAXIASRJUNIAO UMB DOS CULTOS AFRO BRAS    30101810 000076
10231987175000168817800093673    000024437                    000244370000000000000109                     I0124437     30101800000000035003410000017N200818104700000000000103010180000000000000000000000000000000000000000100003002602117MARCELO DE OLIVEIRA PINHO               O MESMO                                 O MESMO     26066640NOVA IGUACU    RJUNIAO UMB DOS CULTOS AFRO BRAS    30101810 000077
10231987175000168817800093673    000024436                    000244360000000000000109                     I0124436     30101800000000035003410000017N200818104700000000000103010180000000000000000000000000000000000000000100001087376750ALAN RICARDO DA CONCEICAO GAMA          RUA JULIO JOSE DA SILVA                 SANTA CRUZ  22783116RIO DE JANEIRO RJUNIAO UMB DOS CULTOS AFRO BRAS    30101810 000078
10231987175000168817800093673    000024435                    000244350000000000000109                     I0124435     30101800000000035003410000017N200818104700000000000103010180000000000000000000000000000000000000000200000000007946ORQUIDEA JOSE DOS SANTOS                RUA JESSIE VENTURA LOTE 6 QUADRA 7      SANTA CECILI25233130DUQUE DE CAXIASRJUNIAO UMB DOS CULTOS AFRO BRAS    30101810 000079
10231987175000168817800093673    000024434                    000244340000000000000109                     I0124434     30101800000000040003410000017N200818104700000000000103010180000000000000000000000000000000000000000100008214669766MARCO AURELIO RANGEL BARBOSA            RUA GENERAL JOSE FAUSTINO N 200 FUNDOS  PADRE MIGUEL21721050RIO DE JANEIRO RJUNIAO UMB DOS CULTOS AFRO BRAS    30101810 000080
10231987175000168817800093673    000024433                    000244330000000000000109                     I0124433     30101800000000035003410000017N200818104700000000000103010180000000000000000000000000000000000000000100003029004708ANDREA GUIMARAES MARTINS                RUA ANA CRISTINA 31 - VILA GUIMARAES    VILA GUIMARA26088175NOVA IGUACU    RJUNIAO UMB DOS CULTOS AFRO BRAS    30101810 000081
10231987175000168817800093673    000024432                    000244320000000000000109                     I0124432     30101800000000035003410000017N200818104700000000000103010180000000000000000000000000000000000000000100004279924783EDUARDO CARVALHO DE SANTANNA            RUA CINCO N 778                         NOVA CAMPINA25268050DUQUE DE CAXIASRJUNIAO UMB DOS CULTOS AFRO BRAS    30101810 000082
10231987175000168817800093673    000024431                    000244310000000000000109                     I0124431     30101800000000035003410000017N200818104700000000000103010180000000000000000000000000000000000000000100049135570768CLEBER SILVA DE FREITAS                 RUA COBE N 1275                         RIO DA PRATA21820200BANGU          RJUNIAO UMB DOS CULTOS AFRO BRAS    30101810 000083
10231987175000168817800093673    000024430                    000244300000000000000109                     I0124430     30101800000000035003410000017N200818104700000000000103010180000000000000000000000000000000000000000100065213696791SILVIA ELIZABETE RODRIGUES              RUA JOAO BITTENCOURT, 286               EDSON PASSOS26240510MESQUITA       RJUNIAO UMB DOS CULTOS AFRO BRAS    30101810 000084
10231987175000168817800093673    000024429                    000244290000000000000109                     I0124429     30101800000000035003410000017N200818104700000000000103010180000000000000000000000000000000000000000200000000008078ELIZA DA SILVA                          RUA AMILTON NASCIMENTO N 214            CAROLINA - N26012760NOVA IGUACU    RJUNIAO UMB DOS CULTOS AFRO BRAS    30101810 000085
10231987175000168817800093673    000024428                    000244280000000000000109                     I0124428     30101800000000035003410000017N200818104700000000000103010180000000000000000000000000000000000000000100041008154768ELISEU CAMARGO ARTHOU                   ESTRADA DO ENGENHO NOVO N 505 FUNDOS    ANCHIETA    21620241RIO DE JANEIRO RJUNIAO UMB DOS CULTOS AFRO BRAS    30101810 000086
10231987175000168817800093673    000024427                    000244270000000000000109                     I0124427     30101800000000035003410000017N200818104700000000000103010180000000000000000000000000000000000000000100086634402787ZILDA GIMENIZ NOGUEIRA                  RUA: ESPIRITO SANTO Nº 25 - PRAIA LINDASAO PEDRO DA28940000SAO PEDRO DA ALRJUNIAO UMB DOS CULTOS AFRO BRAS    30101810 000087
10231987175000168817800093673    000024426                    000244260000000000000109                     I0124426     30101800000000035003410000017N200818104700000000000103010180000000000000000000000000000000000000000200000000007838JANILTON DA CRUZ ROCHA                  RUA ALUISIO AZEVEDO LOTE 27 QUADRA 40   IMBARIE - PA25275360PARADA ANGELICARJUNIAO UMB DOS CULTOS AFRO BRAS    30101810 000088
10231987175000168817800093673    000024425                    000244250000000000000109                     I0124425     30101800000000035003410000017N200818104700000000000103010180000000000000000000000000000000000000000200000000007600LUCIMAR FIGUEIREDO NASCIMENTO           RUA TAMANDUATEI N 215                   CRUZEIRO DO 26012775NOVA IGUACU    RJUNIAO UMB DOS CULTOS AFRO BRAS    30101810 000089
10231987175000168817800093673    000024424                    000244240000000000000109                     I0124424     30101800000000035003410000017N200818104700000000000103010180000000000000000000000000000000000000000100000000000759WANDERLEI ABRANTES TEIXEIRA             RUA LOURDES BARBOSA PASSOS, 26 QUADRA 21BRISA AMAR -23826360ITAGUAI        RJUNIAO UMB DOS CULTOS AFRO BRAS    30101810 000090
10231987175000168817800093673    000024423                    000244230000000000000109                     I0124423     30101800000000035003410000017N200818104700000000000103010180000000000000000000000000000000000000000100078893739704DENISE QUEIROZ CARNEIRO                 ESTRADA DO LAMEIRAO/ RUA PAINEIRAS, 30  SANTISSIMO -23092031RIO DE JANEIRO RJUNIAO UMB DOS CULTOS AFRO BRAS    30101810 000091
10231987175000168817800093673    000024422                    000244220000000000000109                     I0124422     30101800000000035003410000017N200818104700000000000103010180000000000000000000000000000000000000000200000000007562CONCHETA PERRONI DE SOUZA BRAN          RUA JUSTINO DE SOUSA N 76 CASA 4        SAO CRISTOVA21920030RIO DE JANEIRO RJUNIAO UMB DOS CULTOS AFRO BRAS    30101810 000092
10231987175000168817800093673    000024421                    000244210000000000000109                     I0124421     30101800000000035003410000017N200818104700000000000103010180000000000000000000000000000000000000000100054770122772EDUARDO DOS SANTOS REIS NETO            RUA: BURITI                             MADUREIRA   20231046RIO DE JANEIRO RJUNIAO UMB DOS CULTOS AFRO BRAS    30101810 000093
10231987175000168817800093673    000024420                    000244200000000000000109                     I0124420     30101800000000035003410000017N200818104700000000000103010180000000000000000000000000000000000000000200000000002044NATERCIA MALVAR GARCIA LEITAO           RUA CIRO COSTA, 491                     ENGENHO PEQU24417226SAO GONCALO    RJUNIAO UMB DOS CULTOS AFRO BRAS    30101810 000094
10231987175000168817800093673    000024419                    000244190000000000000109                     I0124419     30101800000000035003410000017N200818104700000000000103010180000000000000000000000000000000000000000200000000002036MARLENE INACIA NUNES DO NASCIM          RUA DOUTOR BERNARDINO TEIXEIRA, 753     EDEN - SAO J25545110SAO JOAO DE MERRJUNIAO UMB DOS CULTOS AFRO BRAS    30101810 000095
10231987175000168817800093673    000024418                    000244180000000000000109                     I0124418     30101800000000035003410000017N200818104700000000000103010180000000000000000000000000000000000000000100007333127729FRANCISCA GONCALVES                     RUA COQUEIROS N 5                       SANTA CRUZ -23535200RIO DE JANEIRO RJUNIAO UMB DOS CULTOS AFRO BRAS    30101810 000096
10231987175000168817800093673    000024417                    000244170000000000000109                     I0124417     30101800000000035003410000017N200818104700000000000103010180000000000000000000000000000000000000000100079042708700ANTONIO CARLOS DE MIRANDA PACH          RUA: DOUTOR ALFREDO BACKER              ALCANTARA   24452005RIO DE JANEIRO RJUNIAO UMB DOS CULTOS AFRO BRAS    30101810 000097
10231987175000168817800093673    000024416                    000244160000000000000109                     I0124416     30101800000000035003410000017N200818104700000000000103010180000000000000000000000000000000000000000100054101778787ROSARIA MARIA DAS CHAGAS DA SI          RUA DA AERONAUTICA, 61                  SENADOR CAMA21831410RIO DE JANEIRO RJUNIAO UMB DOS CULTOS AFRO BRAS    30101810 000098
10231987175000168817800093673    000024415                    000244150000000000000109                     I0124415     30101800000000035003410000017N200818104700000000000103010180000000000000000000000000000000000000000100088831051768ELISETE MOREIRA DE OLIVEIRA             RUA JOSE MACHADO                        IRAJA       21361360RIO DE JANEIRO RJUNIAO UMB DOS CULTOS AFRO BRAS    30101810 000099
10231987175000168817800093673    000024414                    000244140000000000000109                     I0124414     30101800000000035003410000017N200818104700000000000103010180000000000000000000000000000000000000000100024743216753VANDERLAN JOSE MARVAO                   AVENIDA SAMPAIO CORREIA, 502 - BR 101   SANTA LUZIA 24722500SAO GONCALO    RJUNIAO UMB DOS CULTOS AFRO BRAS    30101810 000100
10231987175000168817800093673    000024413                    000244130000000000000109                     I0124413     30101800000000035003410000017N200818104700000000000103010180000000000000000000000000000000000000000100002036570712ANDREIA SANTANNA DO NASCIMENTO          O MESMO                                 O MESMO     25570190SAO JOAO DE MERRJUNIAO UMB DOS CULTOS AFRO BRAS    30101810 000101
10231987175000168817800093673    000024412                    000244120000000000000109                     I0124412     30101800000000035003410000017N200818104700000000000103010180000000000000000000000000000000000000000100000000000176MARIA DA PIEDADE SANTANA DOS S          RUA: CLARA DE ARAUJO                    HELIOPOLIS  00000000BELFORD ROXO   RJUNIAO UMB DOS CULTOS AFRO BRAS    30101810 000102
10231987175000168817800093673    000024411                    000244110000000000000109                     I0124411     30101800000000035003410000017N200818104700000000000103010180000000000000000000000000000000000000000100076103137774VICENTE DE PAULA PEREIRA                RUA POTINGUARA, 253                     BOA ESPERANC26113720BELFORD ROXO   RJUNIAO UMB DOS CULTOS AFRO BRAS    30101810 000103
10231987175000168817800093673    000024410                    000244100000000000000109                     I0124410     30101800000000035003410000017N200818104700000000000103010180000000000000000000000000000000000000000100010324446730DEBORA ANDRADE SILVA                    O MESMO                                 O MESMO     22720360RIO DE JANEIRO RJUNIAO UMB DOS CULTOS AFRO BRAS    30101810 000104
10231987175000168817800093673    000024409                    000244090000000000000109                     I0124409     30101800000000035003410000017N200818104700000000000103010180000000000000000000000000000000000000000100005556657718EDUARDO DE OLIVEIRA SILVA               AV. GETULIO DE MOURA LOTE 9 QUADRA 1    A.PORTO / S.25520660SAO JOAO DE MERRJUNIAO UMB DOS CULTOS AFRO BRAS    30101810 000105
10231987175000168817800093673    000024408                    000244080000000000000109                     I0124408     30101800000000035003410000017N200818104700000000000103010180000000000000000000000000000000000000000100062497073791SIDIRENE FRANCISCO MACHADO              RUA PALMEIRA DAS MISSOES 422 FUNDOS     VILA SANTA R23015220CAMPO GRANDE   RJUNIAO UMB DOS CULTOS AFRO BRAS    30101810 000106
10231987175000168817800093673    000024407                    000244070000000000000109                     I0124407     30101800000000035003410000017N200818104700000000000103010180000000000000000000000000000000000000000100003250127760MARIA ZULEICA CRUZ DA SILVA             O MESMO                                 O MESMO     26010421NOVA IGUACU    RJUNIAO UMB DOS CULTOS AFRO BRAS    30101810 000107
10231987175000168817800093673    000024406                    000244060000000000000109                     I0124406     30101800000000035003410000017N200818104700000000000103010180000000000000000000000000000000000000000100014708764774ADILSON CARNEIRO PINTO                  R JUREMA 49                             GUARATIBA   23035380RIO DE JANEIRO RJUNIAO UMB DOS CULTOS AFRO BRAS    30101810 000108
10231987175000168817800093673    000024405                    000244050000000000000109                     I0124405     30101800000000035003410000017N200818104700000000000103010180000000000000000000000000000000000000000100009886046716ANA CRISTINA DE ALMEIDA TRINDA          RUA COTIJUBA N 156                      ROCHA MIRAND21555020RIO DE JANEIRO RJUNIAO UMB DOS CULTOS AFRO BRAS    30101810 000109
10231987175000168817800093673    000024404                    000244040000000000000109                     I0124404     30101800000000035003410000017N200818104700000000000103010180000000000000000000000000000000000000000100063440512720SILVANA MANGIA DE SOUZA                 RUA ACANTO N 20                         BANGU - RJ  21830080RIO DE JANEIRO RJUNIAO UMB DOS CULTOS AFRO BRAS    30101810 000110
10231987175000168817800093673    000024403                    000244030000000000000109                     I0124403     30101800000000035003410000017N200818104700000000000103010180000000000000000000000000000000000000000100063441314700AMARA DE CARVALHO DANIEL                RUA FREDERICO LEAL N 146 CASA 2         BANGU - RIO 21825110RIO DE JANEIRO RJUNIAO UMB DOS CULTOS AFRO BRAS    30101810 000111
10231987175000168817800093673    000024402                    000244020000000000000109                     I0124402     30101800000000035003410000017N200818104700000000000103010180000000000000000000000000000000000000000100072596317753CLAUDIA IVONE CAETANO DA SILVA          RUA NADIA MARIA DA SILVEIRA MENEZES LOTEVENDA VELHA 25580110SAO JOAO DE MERRJUNIAO UMB DOS CULTOS AFRO BRAS    30101810 000112
10231987175000168817800093673    000024401                    000244010000000000000109                     I0124401     30101800000000035003410000017N200818104700000000000103010180000000000000000000000000000000000000000100043397170706VERA LUCIA FERREIRA DA SILVA            RUA ALICE N 183                         COMENDADOR S26262030NOVA IGUACU    RJUNIAO UMB DOS CULTOS AFRO BRAS    30101810 000113
10231987175000168817800093673    000024400                    000244000000000000000109                     I0124400     30101800000000035003410000017N200818104700000000000103010180000000000000000000000000000000000000000100089041950710ANA LUCIA GUIMARAES MOURA ALVE          RUA CARLOS ILIDRO N 189                 BANCARIOS - 21910160ILHA DO GOVERNARJUNIAO UMB DOS CULTOS AFRO BRAS    30101810 000114
10231987175000168817800093673    000024399                    000243990000000000000109                     I0124399     30101800000000035003410000017N200818104700000000000103010180000000000000000000000000000000000000000100015827814784THAYNAN ERNANDES DA SILVA PINH          RUA EXPEDICIONARIO AMERICO FERNANDES    RIO DO OURO 24752300SAO GONCALO    RJUNIAO UMB DOS CULTOS AFRO BRAS    30101810 000115
10231987175000168817800093673    000024398                    000243980000000000000109                     I0124398     30101800000000035003410000017N200818104700000000000103010180000000000000000000000000000000000000000200000000007695MARCO ANTONIO DA COSTA                  RUA LOIR NOGUEIRA LOTE 10 QUADRA 11     RIO DO OURO 24752840SAO GONCALO    RJUNIAO UMB DOS CULTOS AFRO BRAS    30101810 000116
10231987175000168817800093673    000024397                    000243970000000000000109                     I0124397     30101800000000035003410000017N200818104700000000000103010180000000000000000000000000000000000000000100020857690701MARCELO ANTONIO COSTA TEIXEIRA          RUA TUPINIQUINS N 220 FUNDOS            VICENTE DE C21370630RIO DE JANEIRO RJUNIAO UMB DOS CULTOS AFRO BRAS    30101810 000117
10231987175000168817800093673    000024396                    000243960000000000000109                     I0124396     30101800000000035003410000017N200818104700000000000103010180000000000000000000000000000000000000000100000000000767HUGO XAVIER                             AVENIDA: PRESIDENTE VARGAS              CENTRO      20210030RIO DE JANEIRO RJUNIAO UMB DOS CULTOS AFRO BRAS    30101810 000118
10231987175000168817800093673    000024395                    000243950000000000000109                     I0124395     30101800000000035003410000017N200818104700000000000103010180000000000000000000000000000000000000000100078980119704SERGIO LUIZ DE BRITO                    TRAVESSA BRANDAO N 145 - ENGENHOCA      BARRETO - NI24110636NITEROI        RJUNIAO UMB DOS CULTOS AFRO BRAS    30101810 000119
10231987175000168817800093673    000024394                    000243940000000000000109                     I0124394     30101800000000035003410000017N200818104700000000000103010180000000000000000000000000000000000000000100073518573772MERCIA DO NASCIMENTO CAVALCANT          RUA BERNARDO MONTEIRO, LT 62 QD 151     JARDIM OLAVO25025320DUQUE DE CAXIASRJUNIAO UMB DOS CULTOS AFRO BRAS    30101810 000120
10231987175000168817800093673    000024393                    000243930000000000000109                     I0124393     30101800000000035003410000017N200818104700000000000103010180000000000000000000000000000000000000000100054222141704WALMIR CARVALHO GUIMARAES               RUA BOA VIAGEM, 186 CASA                IPIRANGA - N26293591NOVA IGUACU    RJUNIAO UMB DOS CULTOS AFRO BRAS    30101810 000121
10231987175000168817800093673    000024392                    000243920000000000000109                     I0124392     30101800000000035003410000017N200818104700000000000103010180000000000000000000000000000000000000000100056864680797SONIA MARIA DA SILVA                    RUA A, 11 - LOTEAMENTO SANTA MARIA      CAMBOTA - VA27600000VALENCIA       RJUNIAO UMB DOS CULTOS AFRO BRAS    30101810 000122
10231987175000168817800093673    000024391                    000243910000000000000109                     I0124391     30101800000000040003410000017N200818104700000000000103010180000000000000000000000000000000000000000100001478169710TANIA MARIA ALVES CANEJO                RUA: CAPITAO BARBOSA                    PRAIA DA BAN20720012RIO DE JANEIRO RJUNIAO UMB DOS CULTOS AFRO BRAS    30101810 000123
10231987175000168817800093673    000024390                    000243900000000000000109                     I0124390     30101800000000035003410000017N200818104700000000000103010180000000000000000000000000000000000000000100003537257732MARIA APARECIDA RISTICH MACHAD          RUA DIAS DA CRUZ N 923                  MEIER - RIO 20720011RIO DE JANEIRO RJUNIAO UMB DOS CULTOS AFRO BRAS    30101810 000124
10231987175000168817800093673    000024389                    000243890000000000000109                     I0124389     30101800000000035003410000017N200818104700000000000103010180000000000000000000000000000000000000000100002309597767ELISETE DE SOUZA GOMES                  RUA CLEIDE TAVORA N 87 CASA 1           MONTE CASTEL26041145NOVA IGUACU    RJUNIAO UMB DOS CULTOS AFRO BRAS    30101810 000125
10231987175000168817800093673    000024388                    000243880000000000000109                     I0124388     30101800000000035003410000017N200818104700000000000103010180000000000000000000000000000000000000000100000330025767NUBIA VIRGINIA DE ANDRADE MAGA          O MESMO                                 O MESMO     23573100RIO DE JANEIRO RJUNIAO UMB DOS CULTOS AFRO BRAS    30101810 000126
10231987175000168817800093673    000024387                    000243870000000000000109                     I0124387     30101800000000035003410000017N200818104700000000000103010180000000000000000000000000000000000000000100076896960744MARIA LUCIA DE OLIVEIRA NUNES           AVENIDA DO CORRETOR N 116               VILA ALIANCA21842340RIO DE JANEIRO RJUNIAO UMB DOS CULTOS AFRO BRAS    30101810 000127
10231987175000168817800093673    000024386                    000243860000000000000109                     I0124386     30101800000000035003410000017N200818104700000000000103010180000000000000000000000000000000000000000200000000007506APARECIDA SILVA RIBEIRO                 RUA PEDRO TELLES N 566 CASA 4           CENTRO - SAO25515003SAO JOAO DE MERRJUNIAO UMB DOS CULTOS AFRO BRAS    30101810 000128
10231987175000168817800093673    000024385                    000243850000000000000109                     I0124385     30101800000000035003410000017N200818104700000000000103010180000000000000000000000000000000000000000200000000002062ROBERTO LUIZ MEDEIROS                   RUA OLIMPIO, LOTE 35 QUADRA 29          HELIOPOLIS -26125215BELFORD ROXO   RJUNIAO UMB DOS CULTOS AFRO BRAS    30101810 000129
10231987175000168817800093673    000024384                    000243840000000000000109                     I0124384     30101800000000035003410000017N200818104700000000000103010180000000000000000000000000000000000000000100092410480772JOSE LIMA DA SILVA                      RUA: JURANDIR LIMA Nº 40 - SANTA RITA /NOVA IGUACU 26051040NOVA IGUACU    RJUNIAO UMB DOS CULTOS AFRO BRAS    30101810 000130
10231987175000168817800093673    000024383                    000243830000000000000109                     I0124383     30101800000000035003410000017N200818104700000000000103010180000000000000000000000000000000000000000100000000007532CARLOS MURILO CARDOSO DE CARVA          O MESMO                                 O MESMO     24730002SAO GONCALO    RJUNIAO UMB DOS CULTOS AFRO BRAS    30101810 000131
10231987175000168817800093673    000024382                    000243820000000000000109                     I0124382     30101800000000035003410000017N200818104700000000000103010180000000000000000000000000000000000000000100055177182720VALNEI FERNANDES DA SILVA               RUA DOUTOR JOSE MANOEL N 262            SANTA CATARI24420070SAO GONCALO    RJUNIAO UMB DOS CULTOS AFRO BRAS    30101810 000132
10231987175000168817800093673    000024381                    000243810000000000000109                     I0124381     30101800000000035003410000017N200818104700000000000103010180000000000000000000000000000000000000000100007062360767IVONETE GOMES DOS SANTOS                AVENIDA PORTO DA MADAME                 GRADIM      24431310SAO GONCALO    RJUNIAO UMB DOS CULTOS AFRO BRAS    30101810 000133
10231987175000168817800093673    000024380                    000243800000000000000109                     I0124380     30101800000000035003410000017N200818104700000000000103010180000000000000000000000000000000000000000100000475441710KASSIA DAMAZIO SOBRINHO                 RUA OPNIAO LIBERA, 27                   JACAREPAGUA 22715130RIO DE JANEIRO RJUNIAO UMB DOS CULTOS AFRO BRAS    30101810 000134
10231987175000168817800093673    000024379                    000243790000000000000109                     I0124379     30101800000000035003410000017N200818104700000000000103010180000000000000000000000000000000000000000200000000001778VANIA MEDEIROS COUTINHO                 RUA TEREZA, LOTE 4 QUADRA 4             PARQUE SUECI25245470BELFORD ROXO   RJUNIAO UMB DOS CULTOS AFRO BRAS    30101810 000135
10231987175000168817800093673    000024378                    000243780000000000000109                     I0124378     30101800000000035003410000017N200818104700000000000103010180000000000000000000000000000000000000000100003449740733JOSE CARLOS MOREIRA BENTO               RUA DELFIM MOREIRA  LOTE 5 QUADRA 12 CASVILA SAPE  M25922220MAGE           RJUNIAO UMB DOS CULTOS AFRO BRAS    30101810 000136
10231987175000168817800093673    000024377                    000243770000000000000109                     I0124377     30101800000000035003410000017N200818104700000000000103010180000000000000000000000000000000000000000200000000001715MARIA DA PENHA ANASTACIA DE OL          RUA MARATUBA, 6 FUNDOS                  RICARDO DE A21620430RIO DE JANEIRO RJUNIAO UMB DOS CULTOS AFRO BRAS    30101810 000137
10231987175000168817800093673    000024376                    000243760000000000000109                     I0124376     30101800000000035003410000017N200818104700000000000103010180000000000000000000000000000000000000000200000000001673DAVID MOREIRA DE MENDONCA               RUA GENERAL RENATO PIQUET, LOTE 27 QUADRVILA GENI - 23825460ITAGUAI        RJUNIAO UMB DOS CULTOS AFRO BRAS    30101810 000138
10231987175000168817800093673    000024375                    000243750000000000000109                     I0124375     30101800000000035003410000017N200818104700000000000103010180000000000000000000000000000000000000000100069085986753CARMEM PIRES DE SOUZA                   RUA PRAIA DE BOTAFOGO N 460 APT 1138    BOTAFOGO - R22250040RIO DE JANEIRO RJUNIAO UMB DOS CULTOS AFRO BRAS    30101810 000139
10231987175000168817800093673    000024374                    000243740000000000000109                     I0124374     30101800000000035003410000017N200818104700000000000103010180000000000000000000000000000000000000000100084964910725LIA MARIA DA SILVA                      RUA ANTONIO CARLOS LOTE 2 QUADRA G      COLUBANDE - 24744020SAO GONCALO    RJUNIAO UMB DOS CULTOS AFRO BRAS    30101810 000140
10231987175000168817800093673    000024373                    000243730000000000000109                     I0124373     30101800000000040003410000017N200818104700000000000103010180000000000000000000000000000000000000000100019685726787ADELMIR HAMELIN SODRE                   RUA ITAIM N 361                         COLEGIO - RJ00000000RIO DE JANEIRO RJUNIAO UMB DOS CULTOS AFRO BRAS    30101810 000141
10231987175000168817800093673    000024372                    000243720000000000000109                     I0124372     30101800000000040003410000017N200818104700000000000103010180000000000000000000000000000000000000000200000000002253JOSE AMERICO ELIAS DE MIRANDA           RUA JAIME MUNIZ, LOTE 1 QUADRA 12       ITAUNA - SAO24474070SAO GONCALO    RJUNIAO UMB DOS CULTOS AFRO BRAS    30101810 000142
10231987175000168817800093673    000024371                    000243710000000000000109                     I0124371     30101800000000035003410000017N200818104700000000000103010180000000000000000000000000000000000000000100061991465734JANDIRA AMELIA PAULA DE OLIVEI          RUA SALVADOR DO MONTE                   BOACU       24467300SAO GONCALO    RJUNIAO UMB DOS CULTOS AFRO BRAS    30101810 000143
10231987175000168817800093673    000024370                    000243700000000000000109                     I0124370     30101800000000035003410000017N200818104700000000000103010180000000000000000000000000000000000000000100047613165787ANA SUELI DA GAMA GLORIA                RUA DAMAS BATISTA N 902                 JARDIM TROPI26011010NOVA IGUACU    RJUNIAO UMB DOS CULTOS AFRO BRAS    30101810 000144
10231987175000168817800093673    000024369                    000243690000000000000109                     I0124369     30101800000000035003410000017N200818104700000000000103010180000000000000000000000000000000000000000100044188269715SEBASTIANA SOUZA SANTOS                 RUA: ARI BARROSO                        JARDIM LUCIA26050410NOVA IGUACU    RJUNIAO UMB DOS CULTOS AFRO BRAS    30101810 000145
10231987175000168817800093673    000024368                    000243680000000000000109                     I0124368     30101800000000035003410000017N200818104700000000000103010180000000000000000000000000000000000000000100000000000715LECY PEREIRA CARDOSO                    ESTRADA: DO CARRO QUEBRADO              FIGUEIRAS   26051740NOVA IGUACU    RJUNIAO UMB DOS CULTOS AFRO BRAS    30101810 000146
10231987175000168817800093673    000024367                    000243670000000000000109                     I0124367     30101800000000035003410000017N200818104700000000000103010180000000000000000000000000000000000000000100018801293704NORMA RAMOS VIANNA                      AVENIDA PERNAMBUCANA, 1680              V.ROSALI - S25510430SAO JOAO DE MERRJUNIAO UMB DOS CULTOS AFRO BRAS    30101810 000147
10231987175000168817800093673    000024366                    000243660000000000000109                     I0124366     30101800000000035003410000017N200818104700000000000103010180000000000000000000000000000000000000000100082347301772MARISTELA TORQUATO SILVA BRITT          O MESMO                                 O MESMO     26535340NILOPOLIS      RJUNIAO UMB DOS CULTOS AFRO BRAS    30101810 000148
10231987175000168817800093673    000024365                    000243650000000000000109                     I0124365     30101800000000035003410000017N200818104700000000000103010180000000000000000000000000000000000000000200000000002241MARIA CANDIDA BRANDAO ALVES             RUA MARLICE EMANUEL, 155                JARDIM ALVOR26265230NOVA IGUACU    RJUNIAO UMB DOS CULTOS AFRO BRAS    30101810 000149
10231987175000168817800093673    000024364                    000243640000000000000109                     I0124364     30101800000000035003410000017N200818104700000000000103010180000000000000000000000000000000000000000100000000019700FATIMA APARECIDA AZEVEDO DE AL          MESMO                                   MESMO       26165420RIO DE JANEIRO RJUNIAO UMB DOS CULTOS AFRO BRAS    30101810 000150
10231987175000168817800093673    000024363                    000243630000000000000109                     I0124363     30101800000000035003410000017N200818104700000000000103010180000000000000000000000000000000000000000100031471811700GLORIA CORREIA                          RUA: SA FERREIRA                        COPACABANA  22071100RIO DE JANEIRO RJUNIAO UMB DOS CULTOS AFRO BRAS    30101810 000151
10231987175000168817800093673    000024362                    000243620000000000000109                     I0124362     30101800000000035003410000017N200818104700000000000103010180000000000000000000000000000000000000000100001272334740VALERIA MARIA MOREIRA                   RUA: EUDINO EGGER Nº 70 - JARDIM CATARISAO GONCALO 32472290SAO GONCALO    RJUNIAO UMB DOS CULTOS AFRO BRAS    30101810 000152
10231987175000168817800093673    000024361                    000243610000000000000109                     I0124361     30101800000000035003410000017N200818104700000000000103010180000000000000000000000000000000000000000100097512770782DULCINEIA CAPUTE                        AVENIDA: ITAGUAI                        ENGENHO     23820306ITAGUAI        RJUNIAO UMB DOS CULTOS AFRO BRAS    30101810 000153
10231987175000168817800093673    000024360                    000243600000000000000109                     I0124360     30101800000000035003410000017N200818104700000000000103010180000000000000000000000000000000000000000100000237914387JOSE EDILSON RABELO CAULA               RUA: DOS INVALIDOS                      LAPA        20231046RIO DE JANEIRO RJUNIAO UMB DOS CULTOS AFRO BRAS    30101810 000154
10231987175000168817800093673    000024359                    000243590000000000000109                     I0124359     30101800000000035003410000017N200818104700000000000103010180000000000000000000000000000000000000000100050475142772LUIZ GONCALVES COLARES                  RUA LEONEL BRIZOLA, QUADRA A LOTE 11 - NPACIENCIA - 23587010RIO DE JANEIRO RJUNIAO UMB DOS CULTOS AFRO BRAS    30101810 000155
10231987175000168817800093673    000024358                    000243580000000000000109                     I0124358     30101800000000035003410000017N200818104700000000000103010180000000000000000000000000000000000000000200000000002180ROSINEIA MARTINS DE ARRUDA              RUA ALBERTO DE MELO, 388                COMENDADOR S26280310NOVA IGUACU    RJUNIAO UMB DOS CULTOS AFRO BRAS    30101810 000156
10231987175000168817800093673    000024357                    000243570000000000000109                     I0124357     30101800000000035003410000017N200818104700000000000103010180000000000000000000000000000000000000000100006980782762ALEX SANDRO INACIO DO NASCIMEN          MESMO                                   MESMO       26298686NOVA IGUACU    RJUNIAO UMB DOS CULTOS AFRO BRAS    30101810 000157
10231987175000168817800093673    000024356                    000243560000000000000109                     I0124356     30101800000000035003410000017N200818104700000000000103010180000000000000000000000000000000000000000200000000002168EDEVALDO NUNES                          RUA DO ROTEIRO, 24                      AUGUSTO VASC23012370RIO DE JANEIRO RJUNIAO UMB DOS CULTOS AFRO BRAS    30101810 000158
10231987175000168817800093673    000024355                    000243550000000000000109                     I0124355     30101800000000035003410000017N200818104700000000000103010180000000000000000000000000000000000000000100045471240782MARIA HELENA DE SOUZA FREITAS           O MESMO                                 O MESMO     26131970BELFORD ROXO   RJUNIAO UMB DOS CULTOS AFRO BRAS    30101810 000159
10231987175000168817800093673    000024354                    000243540000000000000109                     I0124354     30101800000000035003410000017N200818104700000000000103010180000000000000000000000000000000000000000100044029640753CREMILDA CONCEICAO LOPES                O MESMO                                 O MESMO     21235250RIO DE JANEIRO RJUNIAO UMB DOS CULTOS AFRO BRAS    30101810 000160
10231987175000168817800093673    000024353                    000243530000000000000109                     I0124353     30101800000000035003410000017N200818104700000000000103010180000000000000000000000000000000000000000100000120098733MARIA APARECIDA SOUZA DA SILVA          RUA NOVE                                PRAIA DE MAU25930000MAGE           RJUNIAO UMB DOS CULTOS AFRO BRAS    30101810 000161
10231987175000168817800093673    000024352                    000243520000000000000109                     I0124352     30101800000000035003410000017N200818104700000000000103010180000000000000000000000000000000000000000200000000006863HILDA REGINA NICANOR DOS SANTO          O MESMO                                 O MESMO     26298189NOVA IGUACU    RJUNIAO UMB DOS CULTOS AFRO BRAS    30101810 000162
10231987175000168817800093673    000024351                    000243510000000000000109                     I0124351     30101800000000035003410000017N200818104700000000000103010180000000000000000000000000000000000000000100007120562703JANETE RIBEIRO DE ALMEIDA               O MESMO                                 O MESMO     26347030NOVA IGUACU    RJUNIAO UMB DOS CULTOS AFRO BRAS    30101810 000163
10231987175000168817800093673    000024350                    000243500000000000000109                     I0124350     30101800000000035003410000017N200818104700000000000103010180000000000000000000000000000000000000000100050995510768MARIA DAS GRACAS DE ANDRADE             RUA, CORONEL FRANCA LEITE Nº 93        FABRICA POLV26246430NILOPOLIS      RJUNIAO UMB DOS CULTOS AFRO BRAS    30101810 000164
10231987175000168817800093673    000024349                    000243490000000000000109                     I0124349     30101800000000035003410000017N200818104700000000000103010180000000000000000000000000000000000000000100008839877754DEISE CORREIA ALVES SILVA               PRACA: FLAMENGO                         SANTA TEREZA25086090DUQUE DE CAXIASRJUNIAO UMB DOS CULTOS AFRO BRAS    30101810 000165
10231987175000168817800093673    000024348                    000243480000000000000109                     I0124348     30101800000000035003410000017N200818104700000000000103010180000000000000000000000000000000000000000200000000006836HELOIZA HELENA COSTA LIMA               RUA DOUTOR ALCINDO RAFAEL, 148 - MORRO AITAMARATI - 26262060NOVA IGUACU    RJUNIAO UMB DOS CULTOS AFRO BRAS    30101810 000166
10231987175000168817800093673    000024347                    000243470000000000000109                     I0124347     30101800000000035003410000017N200818104700000000000103010180000000000000000000000000000000000000000200000000006821MANOELINA DE PAULA SILVA                O MESMO                                 O MESMO     25811080TRES RIOS      RJUNIAO UMB DOS CULTOS AFRO BRAS    30101810 000167
10231987175000168817800093673    000024346                    000243460000000000000109                     I0124346     30101800000000035003410000017N200818104700000000000103010180000000000000000000000000000000000000000100001045146714ELIANE RIBEIRO MACEDO                   O MESMO                                 O MESMO     21725320RIO DE JANEIRO RJUNIAO UMB DOS CULTOS AFRO BRAS    30101810 000168
10231987175000168817800093673    000024345                    000243450000000000000109                     I0124345     30101800000000035003410000017N200818104700000000000103010180000000000000000000000000000000000000000100051398060704ELIZABETH MONTEIRO MOREIRA DA           RUA: IBITINGA LOTE 1 QD 3 CASA 1 - PARQUBELFORD ROXO26167160BELFORD ROXO   RJUNIAO UMB DOS CULTOS AFRO BRAS    30101810 000169
10231987175000168817800093673    000024344                    000243440000000000000109                     I0124344     30101800000000035003410000017N200818104700000000000103010180000000000000000000000000000000000000000100071002782791ELIANE PIRES SOUZA                      RUA IBITINGA LT 9 QD 3 - PRQ S BERNARDO O MESMO     26167160BELFORD ROXO   RJUNIAO UMB DOS CULTOS AFRO BRAS    30101810 000170
10231987175000168817800093673    000024343                    000243430000000000000109                     I0124343     30101800000000035003410000017N200818104700000000000103010180000000000000000000000000000000000000000100058739920704ELISABETH DE OLIVEIRA LOUREDO           EST: COMANDANTE LUIZ SOUTO Nº 509 C/ 4DTANQUE - JAC22733040RIO DE JANEIRO RJUNIAO UMB DOS CULTOS AFRO BRAS    30101810 000171
10231987175000168817800093673    000024342                    000243420000000000000109                     I0124342     30101800000000040003410000017N200818104700000000000103010180000000000000000000000000000000000000000100081994699787MARCIA HELENA CORREIA DE LIMA           RUA FRANCISCO ALENCAR                   RIO DE JANEI23530540RIO DE JANEIRO RJUNIAO UMB DOS CULTOS AFRO BRAS    30101810 000172
10231987175000168817800093673    000024341                    000243410000000000000109                     I0124341     30101800000000035003410000017N200818104700000000000103010180000000000000000000000000000000000000000100000000000666HILDETE SACRAMENTO BISPO                O MESMO                                 O MESMO     23060070RIO DE JANEIRO RJUNIAO UMB DOS CULTOS AFRO BRAS    30101810 000173
10231987175000168817800093673    000024340                    000243400000000000000109                     I0124340     30101800000000035003410000017N200818104700000000000103010180000000000000000000000000000000000000000100095274987753PAULO SERGIO BARBOSA DA CUNHA           RUA: DAS BORBOLETAS Nº 21 E 22 - BANGU RIO DE JANEI21866030RIO DE JANEIRO RJUNIAO UMB DOS CULTOS AFRO BRAS    30101810 000174
10231987175000168817800093673    000024339                    000243390000000000000109                     I0124339     30101800000000035003410000017N200818104700000000000103010180000000000000000000000000000000000000000200000000006634ANTONIO CARLOS ANTUNES BASTOS           AVENIDA ITATIAIA, 1615 - 21 DE ABRIL    VILA ITAMARA25065095DUQUE DE CAXIASRJUNIAO UMB DOS CULTOS AFRO BRAS    30101810 000175
10231987175000168817800093673    000024338                    000243380000000000000109                     I0124338     30101800000000035003410000017N200818104700000000000103010180000000000000000000000000000000000000000100070672997720MARTA CAVALCANTE TEIXEIRA               O MESMO                                 O MESMO     22763011RIO DE JANEIRO RJUNIAO UMB DOS CULTOS AFRO BRAS    30101810 000176
10231987175000168817800093673    000024337                    000243370000000000000109                     I0124337     30101800000000035003410000017N200818104700000000000103010180000000000000000000000000000000000000000100084244224734JORGE MARCELO TINTEL                    O MESMO                                 O MESMO     23530220RIO DE JANEIRO RJUNIAO UMB DOS CULTOS AFRO BRAS    30101810 000177
10231987175000168817800093673    000024336                    000243360000000000000109                     I0124336     30101800000000035003410000017N200818104700000000000103010180000000000000000000000000000000000000000200000000006620SONIA MARIA DOS REMEDIOS                RUA SAO LUIZ, 11 CASA 2 - CANAL DO LEITAPRAIA DO SAC23860000MANGARATIBA    RJUNIAO UMB DOS CULTOS AFRO BRAS    30101810 000178
10231987175000168817800093673    000024335                    000243350000000000000109                     I0124335     30101800000000035003410000017N200818104700000000000103010180000000000000000000000000000000000000000100000000000661ELOISA SANT ANA                         RUA LINO DE MORAIS,                     REALENGO    21730290RIO DE JANEIRO RJUNIAO UMB DOS CULTOS AFRO BRAS    30101810 000179
10231987175000168817800093673    000024334                    000243340000000000000109                     I0124334     30101800000000035003410000017N200818104700000000000103010180000000000000000000000000000000000000000200000000006600JULIA MARIA DA CONCEICAO                O MESMO                                 O MESMO     23823290ITAGUAI        RJUNIAO UMB DOS CULTOS AFRO BRAS    30101810 000180
10231987175000168817800093673    000024333                    000243330000000000000109                     I0124333     30101800000000035003410000017N200818104700000000000103010180000000000000000000000000000000000000000100077688406749ROSA MARIA PINHEIRO                     O MESMO                                 O MESMO     23826230ITAGUAI        RJUNIAO UMB DOS CULTOS AFRO BRAS    30101810 000181
10231987175000168817800093673    000024332                    000243320000000000000109                     I0124332     30101800000000035003410000017N200818104700000000000103010180000000000000000000000000000000000000000200000000006579LUIZ CLAUDIO BATISTA REIS               O MESMO                                 O MESMO     24315384NITEROI        RJUNIAO UMB DOS CULTOS AFRO BRAS    30101810 000182
10231987175000168817800093673    000024331                    000243310000000000000109                     I0124331     30101800000000035003410000017N200818104700000000000103010180000000000000000000000000000000000000000100000684105730MARIA DARLI BARBOSA                     RUA : DEPUTADO ULISSES GUIMARAES        BRISAMAR    23830000ITAGUAI        RJUNIAO UMB DOS CULTOS AFRO BRAS    30101810 000183
10231987175000168817800093673    000024330                    000243300000000000000109                     I0124330     30101800000000035003410000017N200818104700000000000103010180000000000000000000000000000000000000000100083326952791JOSELITA BATISTA DE OLIVEIRA            O MESMO                                 O MESMO     23830000ITAGUAI        RJUNIAO UMB DOS CULTOS AFRO BRAS    30101810 000184
10231987175000168817800093673    000024329                    000243290000000000000109                     I0124329     30101800000000035003410000017N200818104700000000000103010180000000000000000000000000000000000000000100044451318734NILZA MUNIZ FIRMINO                     RUA: PEDRO AMERICO                      COLUBANDE - 24450480SAO GONCALO    RJUNIAO UMB DOS CULTOS AFRO BRAS    30101810 000185
10231987175000168817800093673    000024328                    000243280000000000000109                     I0124328     30101800000000035003410000017N200818104700000000000103010180000000000000000000000000000000000000000100041602790744PAULO LEANDRO FONTES                    ESTRADA: UNIAO E INDUSTRIA              VOLTA REDOND25720062VOLTA REDONDA  RJUNIAO UMB DOS CULTOS AFRO BRAS    30101810 000186
10231987175000168817800093673    000024327                    000243270000000000000109                     I0124327     30101800000000035003410000017N200818104700000000000103010180000000000000000000000000000000000000000100068331428749IVANILDA DOS SANTOS                     RUA RIBEIRAO DO SUL LOTE 7 QUADRA 29    GUARATIBA - 23026590RIO DE JANEIRO RJUNIAO UMB DOS CULTOS AFRO BRAS    30101810 000187
10231987175000168817800093673    000024326                    000243260000000000000109                     I0124326     30101800000000035003410000017N200818104700000000000103010180000000000000000000000000000000000000000200000000006498MARIA LUCIA BENJAMIN DE FREITA          RUA: QUITO LOTE 12 QD 23 - JD PRIMAVERA DUQUE DE CAX25223150RIO DE JANEIRO RJUNIAO UMB DOS CULTOS AFRO BRAS    30101810 000188
10231987175000168817800093673    000024325                    000243250000000000000109                     I0124325     30101800000000035003410000017N200818104700000000000103010180000000000000000000000000000000000000000200000000006481SONIA MARIA RODRIGUES LONTRA M          O MESMO                                 O MESMO     23017240RIO DE JANEIRO RJUNIAO UMB DOS CULTOS AFRO BRAS    30101810 000189
10231987175000168817800093673    000024324                    000243240000000000000109                     I0124324     30101800000000035003410000017N200818104700000000000103010180000000000000000000000000000000000000000200000000006480VERA LUCIA DA CRUZ NEVES                O MESMO                                 O MESMO     23017210RIO DE JANEIRO RJUNIAO UMB DOS CULTOS AFRO BRAS    30101810 000190
10231987175000168817800093673    000024323                    000243230000000000000109                     I0124323     30101800000000035003410000017N200818104700000000000103010180000000000000000000000000000000000000000100001115386700DILZA TORRES PINTO DE JESUS             RUA: MARECHAL BARBEDO                   REALENGO - R21735340RIO DE JANEIRO RJUNIAO UMB DOS CULTOS AFRO BRAS    30101810 000191
10231987175000168817800093673    000024322                    000243220000000000000109                     I0124322     30101800000000035003410000017N200818104700000000000103010180000000000000000000000000000000000000000100085789569749VALMIR DE SOUZA RIBEIRO                 O MESMO                                 O MESMO     21715080RIO DE JANEIRO RJUNIAO UMB DOS CULTOS AFRO BRAS    30101810 000192
10231987175000168817800093673    000024321                    000243210000000000000109                     I0124321     30101800000000035003410000017N200818104700000000000103010180000000000000000000000000000000000000000200000000006397LUIZ CARLOS AMATE                       RUA ITABIRA, 343                        BRAS DE PINA21215310RIO DE JANEIRO RJUNIAO UMB DOS CULTOS AFRO BRAS    30101810 000193
10231987175000168817800093673    000024320                    000243200000000000000109                     I0124320     30101800000000035003410000017N200818104700000000000103010180000000000000000000000000000000000000000100001796220728MARIA ROSA ALVES DA SILVA               RUA: DOUTOR ARRUDA NEGREIRO             SENHOR DO BO25025325DUQUE DE CAXIASRJUNIAO UMB DOS CULTOS AFRO BRAS    30101810 000194
10231987175000168817800093673    000024319                    000243190000000000000109                     I0124319     30101800000000035003410000017N200818104700000000000103010180000000000000000000000000000000000000000100071411780744ZULTAMAR MESQUITA DE ALMEIDA            RUA DAS CRIANCAS Nº 30                 NOVA JESSICA00000000NILOPOLIS      RJUNIAO UMB DOS CULTOS AFRO BRAS    30101810 000195
10231987175000168817800093673    000024318                    000243180000000000000109                     I0124318     30101800000000035003410000017N200818104700000000000103010180000000000000000000000000000000000000000100098693043168REJANE VIEIRA GOMES                     RUA: TAPIRANGA                          RIO DE JANEI21775470RIO DE JANEIRO RJUNIAO UMB DOS CULTOS AFRO BRAS    30101810 000196
10231987175000168817800093673    000024317                    000243170000000000000109                     I0124317     30101800000000035003410000017N200818104700000000000103010180000000000000000000000000000000000000000200000000001019CELIO DELDUQUE                          RUA DOMINGOS PIRES, 181/183             PILARES  - R20750160RIO DE JANEIRO RJUNIAO UMB DOS CULTOS AFRO BRAS    30101810 000197
10231987175000168817800093673    000024316                    000243160000000000000109                     I0124316     30101800000000035003410000017N200818104700000000000103010180000000000000000000000000000000000000000100001015032702GABRIEL MENEZES                         RUA: LINO FONSECA                       OSVALDO CRUZ21340540SAO PEDRO DA ALRJUNIAO UMB DOS CULTOS AFRO BRAS    30101810 000198
10231987175000168817800093673    000024315                    000243150000000000000109                     I0124315     30101800000000035003410000017N200818104700000000000103010180000000000000000000000000000000000000000100030341108715SUELENA DA SILVA MARTINS                RUA PAULO DE AQUINO, 27                 ANCHIETA - R21645500RIO DE JANEIRO RJUNIAO UMB DOS CULTOS AFRO BRAS    30101810 000199
10231987175000168817800093673    000024314                    000243140000000000000109                     I0124314     30101800000000035003410000017N200818104700000000000103010180000000000000000000000000000000000000000100059135085720CELIA MARINHO VIEIRA                    RUA LOURIVAL ABREU SILVA, 565           SULACAP - RI21745760RIO DE JANEIRO RJUNIAO UMB DOS CULTOS AFRO BRAS    30101810 000200
10231987175000168817800093673    000024313                    000243130000000000000109                     I0124313     30101800000000035003410000017N200818104700000000000103010180000000000000000000000000000000000000000200000000005728MARIA JOSE DOS SANTOS                   RUA JOSE MARIOZZI FILHO, 990            PRAIA DA BRI23028400RIO DE JANEIRO RJUNIAO UMB DOS CULTOS AFRO BRAS    30101810 000201
10231987175000168817800093673    000024312                    000243120000000000000109                     I0124312     30101800000000035003410000017N200818104700000000000103010180000000000000000000000000000000000000000100075300931772ALTAIR DE SOUZA COSTA                   RUA SETE DE SETEMBRO, LOTE 15 QUADRA 7 -CABUCU - NOV26293486NOVA IGUACU    RJUNIAO UMB DOS CULTOS AFRO BRAS    30101810 000202
10231987175000168817800093673    000024311                    000243110000000000000109                     I0124311     30101800000000035003410000017N200818104700000000000103010180000000000000000000000000000000000000000100043082033768LEILA RAMOS DE OLIVEIRA                 RUA CAPIBARIBE, 361                     CABUCU - NOV26346290NOVA IGUACU    RJUNIAO UMB DOS CULTOS AFRO BRAS    30101810 000203
10231987175000168817800093673    000024310                    000243100000000000000109                     I0124310     30101800000000035003410000017N200818104700000000000103010180000000000000000000000000000000000000000100000000000500ROSEMERE THEODORO DA SILVA              BECO ECA DE QUEIROZ                     VILA SANTO A25040355DUQUE DE CAXIASRJUNIAO UMB DOS CULTOS AFRO BRAS    30101810 000204
10231987175000168817800093673    000024309                    000243090000000000000109                     I0124309     30101800000000035003410000017N200818104700000000000103010180000000000000000000000000000000000000000100054571715743VILMA OLIVEIRA DOS SANTOS               RUA CORREIA DIAS, 1066                  VIGARIO GERA21241310RIO DE JANEIRO RJUNIAO UMB DOS CULTOS AFRO BRAS    30101810 000205
10231987175000168817800093673    000024308                    000243080000000000000109                     I0124308     30101800000000035003410000017N200818104700000000000103010180000000000000000000000000000000000000000100000000000124JORGE LUCIO                             AVENIDA: DOS ITALIANOS                  ROCHA MIRAND21510105RIO DE JANEIRO RJUNIAO UMB DOS CULTOS AFRO BRAS    30101810 000206
10231987175000168817800093673    000024307                    000243070000000000000109                     I0124307     30101800000000035003410000017N200818104700000000000103010180000000000000000000000000000000000000000100000000000123MARCOS AURELIO WOLF GARCIA              RUA: PROFESSORA CARMELITA MARTINS Nº 21PRACA SECA -21321220RIO DE JANEIRO RJUNIAO UMB DOS CULTOS AFRO BRAS    30101810 000207
10231987175000168817800093673    000024306                    000243060000000000000109                     I0124306     30101800000000035003410000017N200818104700000000000103010180000000000000000000000000000000000000000200000000005578SOLANGE DOS SANTOS SILVA                RUA QUATORZE, LOTE 35 CASA 131 -ARAUJO  CAMPO GRANDE23090370RIO DE JANEIRO RJUNIAO UMB DOS CULTOS AFRO BRAS    30101810 000208
10231987175000168817800093673    000024305                    000243050000000000000109                     I0124305     30101800000000035003410000017N200818104700000000000103010180000000000000000000000000000000000000000100002477166778BEATRIZ MIRANDA ABRANCHES               RUA GRUCAI                              PENHA       21020250RIO DE JANEIRO RJUNIAO UMB DOS CULTOS AFRO BRAS    30101810 000209
10231987175000168817800093673    000024304                    000243040000000000000109                     I0124304     30101800000000035003410000017N200818104700000000000103010180000000000000000000000000000000000000000100000000000526SILVIA MARIA DE MOURA                   ESTRADA SANTA EFIGENIA,                 TAQUARA - JA22775780RIO DE JANEIRO RJUNIAO UMB DOS CULTOS AFRO BRAS    30101810 000210
10231987175000168817800093673    000024303                    000243030000000000000109                     I0124303     30101800000000035003410000017N200818104700000000000103010180000000000000000000000000000000000000000100090685806715ALDERMAN PAULINO DE OLIVEIRA N          ESTRADA DA AGUA BRANCA                  BANGU - PADR21862371RIO DE JANEIRO RJUNIAO UMB DOS CULTOS AFRO BRAS    30101810 000211
10231987175000168817800093673    000024302                    000243020000000000000109                     I0124302     30101800000000035003410000017N200818104700000000000103010180000000000000000000000000000000000000000100004550495723MARIA ADELAIDE DA SILVA PROFET          RUA ARACA, 552                          RICARDO DE A21620050RIO DE JANEIRO RJUNIAO UMB DOS CULTOS AFRO BRAS    30101810 000212
10231987175000168817800093673    000024301                    000243010000000000000109                     I0124301     30101800000000035003410000017N200818104700000000000103010180000000000000000000000000000000000000000100000000000509DENILZA THIMOTHEO ROZA                  RUA: MARIO CARPENTER                    PILARES - RI20755062RIO DE JANEIRO RJUNIAO UMB DOS CULTOS AFRO BRAS    30101810 000213
10231987175000168817800093673    000024300                    000243000000000000000109                     I0124300     30101800000000035003410000017N200818104700000000000103010180000000000000000000000000000000000000000100000998809705LEDA GONCALVES MENDES                   RUA VINTE DE ABRIL, 5 CASA 2            CENTRO - QUE26327470QUEIMADOS      RJUNIAO UMB DOS CULTOS AFRO BRAS    30101810 000214
10231987175000168817800093673    000024299                    000242990000000000000109                     I0124299     30101800000000035003410000017N200818104700000000000103010180000000000000000000000000000000000000000200000000005039MARIA DE SOUZA                          AVENIDA BELO HORIZONTE, 271             SAO GABRIEL 26021670NOVA IGUACU    RJUNIAO UMB DOS CULTOS AFRO BRAS    30101810 000215
10231987175000168817800093673    000024298                    000242980000000000000109                     I0124298     30101800000000035003410000017N200818104700000000000103010180000000000000000000000000000000000000000100058895780370ELZA MORAES DA SILVA                    RUA: CARLOS PALUT                       TAQUARA     22710310SAO JOAO DE MERRJUNIAO UMB DOS CULTOS AFRO BRAS    30101810 000216
10231987175000168817800093673    000024297                    000242970000000000000109                     I0124297     30101800000000035003410000017N200818104700000000000103010180000000000000000000000000000000000000000200000000001134JOSE CALASANS SILVA FILHO               RUA DAS AMETISTAS, 60                   ROCHA MIRAND21510020RIO DE JANEIRO RJUNIAO UMB DOS CULTOS AFRO BRAS    30101810 000217
10231987175000168817800093673    000024296                    000242960000000000000109                     I0124296     30101800000000035003410000017N200818104700000000000103010180000000000000000000000000000000000000000100095294236753ROSANE MOREIRA DE LIMA                  RUA IRIGUATI Nº 63                     OLARIA      21073320RIO DE JANEIRO RJUNIAO UMB DOS CULTOS AFRO BRAS    30101810 000218
10231987175000168817800093673    000024295                    000242950000000000000109                     I0124295     30101800000000035003410000017N200818104700000000000103010180000000000000000000000000000000000000000100084761512768MIRIAN ALVES DE AQUINO MALTOS           RUA: GUARAPUAVA                         INHAUMA     21371420RIO DE JANEIRO RJUNIAO UMB DOS CULTOS AFRO BRAS    30101810 000219
10231987175000168817800093673    000024294                    000242940000000000000109                     I0124294     30101800000000035003410000017N200818104700000000000103010180000000000000000000000000000000000000000100000000010960DENISE DOS SANTOS OLIVEIRA              MESMO                                   MESMO       26335430RIO DE JANEIRO RJUNIAO UMB DOS CULTOS AFRO BRAS    30101810 000220
10231987175000168817800093673    000024293                    000242930000000000000109                     I0124293     30101800000000035003410000017N200818104700000000000103010180000000000000000000000000000000000000000100066954371734ROBSON MESQUITA                         ESTRADA DO QUAFA                        SANTISSIMO  23098030RIO DE JANEIRO RJUNIAO UMB DOS CULTOS AFRO BRAS    30101810 000221
10231987175000168817800093673    000024292                    000242920000000000000109                     I0124292     30101800000000035003410000017N200818104700000000000103010180000000000000000000000000000000000000000100000000000106ELAINE LOPES GONCALVES FALCAO           RUA: TIUBA                              VAZ LOBO    21371170RIO DE JANEIRO RJUNIAO UMB DOS CULTOS AFRO BRAS    30101810 000222
10231987175000168817800093673    000024291                    000242910000000000000109                     I0124291     30101800000000035003410000017N200818104700000000000103010180000000000000000000000000000000000000000100000441127770NOEMIA DINANTES GOMES                   RUA: IMPERATRIZ LEOPOLDINA              PARQUE ESTOR26064440SAO JOAO DE MERRJUNIAO UMB DOS CULTOS AFRO BRAS    30101810 000223
10231987175000168817800093673    000024290                    000242900000000000000109                     I0124290     30101800000000035003410000017N200818104700000000000103010180000000000000000000000000000000000000000100062444654749NADIA DA CUNHA SANTOS                   RUA CLARIMUNDO DE MELO Nº 1040         QUINTINO - R00000000RIO DE JANEIRO RJUNIAO UMB DOS CULTOS AFRO BRAS    30101810 000224
10231987175000168817800093673    000024289                    000242890000000000000109                     I0124289     30101800000000035003410000017N200818104700000000000103010180000000000000000000000000000000000000000100030995980820JOSE ANACLETO DE LIMA                   RUA FREDI EMANUEL, 144                  JARDIM JASMI26265110NOVA IGUACU    RJUNIAO UMB DOS CULTOS AFRO BRAS    30101810 000225
10231987175000168817800093673    000024288                    000242880000000000000109                     I0124288     30101800000000035003410000017N200818104700000000000103010180000000000000000000000000000000000000000100042533686700ENEDINA MALVINA DO NASCIMENTO           RUA: CASTRO MENEZES                     BRAS DE PINA21215250RIO DE JANEIRO RJUNIAO UMB DOS CULTOS AFRO BRAS    30101810 000226
10231987175000168817800093673    000024287                    000242870000000000000109                     I0124287     30101800000000035003410000017N200818104700000000000103010180000000000000000000000000000000000000000100093461526720MARIELZA DE SOUZA COSTA                 ESTRADA: DO LAMEIRAO                    RIO DE JANEI23092032RIO DE JANEIRO RJUNIAO UMB DOS CULTOS AFRO BRAS    30101810 000227
10231987175000168817800093673    000024286                    000242860000000000000109                     I0124286     30101800000000035003410000017N200818104700000000000103010180000000000000000000000000000000000000000100050945653115KLEIDE LEMOS MENDONCA                   RUA COSTA FILHO                         133         21610570RIO DE JANEIRO RJUNIAO UMB DOS CULTOS AFRO BRAS    30101810 000228
10231987175000168817800093673    000024285                    000242850000000000000109                     I0124285     30101800000000040003410000017N200818104700000000000103010180000000000000000000000000000000000000000100094378163161ELAINE MARINHO DA SILVA                 RUA MAMBUCADA Nº 533                   COELHO NETO 21371410RIO DE JANEIRO RJUNIAO UMB DOS CULTOS AFRO BRAS    30101810 000229
10231987175000168817800093673    000024284                    000242840000000000000109                     I0124284     30101800000000040003410000017N200818104700000000000103010180000000000000000000000000000000000000000100064437860700VALCI BARBOSA CAMPOS                    TRAVESSA PADRE CICERO - 3 FUNDOS        SANTA ROSA -24310340NITEROI        RJUNIAO UMB DOS CULTOS AFRO BRAS    30101810 000230
10231987175000168817800093673    000024283                    000242830000000000000109                     I0124283     30101800000000035003410000017N200818104700000000000103010180000000000000000000000000000000000000000100098456164704JUCEMAR DOS SANTOS ESTEVES              RUA: ABEL DE ALVARENGA                  CHATUBA     26585000MESQUITA       RJUNIAO UMB DOS CULTOS AFRO BRAS    30101810 000231
10231987175000168817800093673    000024282                    000242820000000000000109                     I0124282     30101800000000035003410000017N200818104700000000000103010180000000000000000000000000000000000000000100060495901768ANA CRISTINA PAVAO BARONI               RUA TAMANDUATEI, 197                    JARDIM TROPI26012775NOVA IGUACU    RJUNIAO UMB DOS CULTOS AFRO BRAS    30101810 000232
10231987175000168817800093673    000024281                    000242810000000000000109                     I0124281     30101800000000035003410000017N200818104700000000000103010180000000000000000000000000000000000000000100000903948796MARIA VILANY DE OLIVEIRA BIEGL          RUA: D                                  PARQUE SANTA25915000MAGE           RJUNIAO UMB DOS CULTOS AFRO BRAS    30101810 000233
10231987175000168817800093673    000024280                    000242800000000000000109                     I0124280     30101800000000035003410000017N200818104700000000000103010180000000000000000000000000000000000000000100001322424780NELY MELIANO DOS SANTOS                 RUA JABOATAO,                           VILA ROSARIO25041020DUQUE DE CAXIASRJUNIAO UMB DOS CULTOS AFRO BRAS    30101810 000234
10231987175000168817800093673    000024279                    000242790000000000000109                     I0124279     30101800000000035003410000017N200818104700000000000103010180000000000000000000000000000000000000000100000744455707VERA LUCIA CALIXTO DA SILVA             O MESMO                                 O MESMO     27115410BARRA DO PIRAI RJUNIAO UMB DOS CULTOS AFRO BRAS    30101810 000235
10231987175000168817800093673    000024278                    000242780000000000000109                     I0124278     30101800000000035003410000017N200818104700000000000103010180000000000000000000000000000000000000000100042959586700GEORGINA COSTA ISABEL                   O MESMO                                 O MESMO     25015350DUQUE DE CAXIASRJUNIAO UMB DOS CULTOS AFRO BRAS    30101810 000236
10231987175000168817800093673    000024277                    000242770000000000000109                     I0124277     30101800000000035003410000017N200818104700000000000103010180000000000000000000000000000000000000000100033565708700MARLY DA SILVA UCHOA                    AVENIDA MINISTRO EDGARD ROMERO, 597 CASAMADUREIRA - 21360200RIO DE JANEIRO RJUNIAO UMB DOS CULTOS AFRO BRAS    30101810 000237
10231987175000168817800093673    000024276                    000242760000000000000109                     I0124276     30101800000000035003410000017N200818104700000000000103010180000000000000000000000000000000000000000100004125947732FABIO DA FONSECA PAES                   RUA JOAQUIM COUTO, 145                  VILA JURANDI25540370SAO JOAO DE MERRJUNIAO UMB DOS CULTOS AFRO BRAS    30101810 000238
10231987175000168817800093673    000024275                    000242750000000000000109                     I0124275     30101800000000035003410000017N200818104700000000000103010180000000000000000000000000000000000000000100001974559726ELIZABETH BRITO DE JESUS                O MESMO                                 O MESMO     21210000RIO DE JANEIRO RJUNIAO UMB DOS CULTOS AFRO BRAS    30101810 000239
10231987175000168817800093673    000024274                    000242740000000000000109                     I0124274     30101800000000035003410000017N200818104700000000000103010180000000000000000000000000000000000000000100033434557768VALTER OLIVEIRA MAYRINCK                RUA SARGENTO OSMAR CLARO, 22            AMAZONAS - C23075180RIO DE JANEIRO RJUNIAO UMB DOS CULTOS AFRO BRAS    30101810 000240
10231987175000168817800093673    000024273                    000242730000000000000109                     I0124273     30101800000000035003410000017N200818104700000000000103010180000000000000000000000000000000000000000100078542626753MARIA HELENA FELIX MARINHO              MESMO                                   O MESMO     21011060RIO DE JANEIRO RJUNIAO UMB DOS CULTOS AFRO BRAS    30101810 000241
10231987175000168817800093673    000024272                    000242720000000000000109                     I0124272     30101800000000035003410000017N200818104700000000000103010180000000000000000000000000000000000000000100000000000544DELIA VIEIRA DA COSTA                   RUA: CAPITAO BORGES COUTO               SENADOR CAMA21832300RIO DE JANEIRO RJUNIAO UMB DOS CULTOS AFRO BRAS    30101810 000242
10231987175000168817800093673    000024271                    000242710000000000000109                     I0124271     30101800000000035003410000017N200818104700000000000103010180000000000000000000000000000000000000000100031569250715JORGE FRANCISCO SANTOS                  EXPEDICIONARIO SEBASTIAO RIBEIRO, 142   COLUBANDE - 24451710SAO GONCALO    RJUNIAO UMB DOS CULTOS AFRO BRAS    30101810 000243
10231987175000168817800093673    000024270                    000242700000000000000109                     I0124270     30101800000000035003410000017N200818104700000000000103010180000000000000000000000000000000000000000100091919835768JORGETE SALGADO                         RUA: PARAIM                             ILHA DO GOVE21911050RIO DE JANEIRO RJUNIAO UMB DOS CULTOS AFRO BRAS    30101810 000244
10231987175000168817800093673    000024269                    000242690000000000000109                     I0124269     30101800000000040003410000017N200818104700000000000103010180000000000000000000000000000000000000000100005206095737FLORIPES RAMOS DE FARIAS                RUA ONESIO MANOEL BELARMINO, 75         ANCHIETA  - 21625330RIO DE JANEIRO RJUNIAO UMB DOS CULTOS AFRO BRAS    30101810 000245
10231987175000168817800093673    000024268                    000242680000000000000109                     I0124268     30101800000000035003410000017N200818104700000000000103010180000000000000000000000000000000000000000100048685917700CELIO DO NASCIMENTO                     RUA BORORO Nº 83                       ENGENHO DA R00000000RIO DE JANEIRO RJUNIAO UMB DOS CULTOS AFRO BRAS    30101810 000246
10231987175000168817800093673    000024267                    000242670000000000000109                     I0124267     30101800000000035003410000017N200818104700000000000103010180000000000000000000000000000000000000000100055570720715ATILA CARDOSO DE LIMA                   RUA EUGENIO SOARES, 270                 CENTRO - MES26550007MESQUITA       RJUNIAO UMB DOS CULTOS AFRO BRAS    30101810 000247
10231987175000168817800093673    000024266                    000242660000000000000109                     I0124266     30101800000000035003410000017N200818104700000000000103010180000000000000000000000000000000000000000100053011783772MARIA APARECIDA DA SILVA                RUA JOANA RESENDE, 61 - FAZENDA CAXIAS  SEROPEDICA -23836380RIO DE JANEIRO RJUNIAO UMB DOS CULTOS AFRO BRAS    30101810 000248
10231987175000168817800093673    000024265                    000242650000000000000109                     I0124265     30101800000000035003410000017N200818104700000000000103010180000000000000000000000000000000000000000100050713558768ANILSON DA SILVA                        TRAVESSA HELENA, CASA 19 ENTRADA 217    REALENGO - R21760620RIO DE JANEIRO RJUNIAO UMB DOS CULTOS AFRO BRAS    30101810 000249
