01REMESSA01COBRANCA       817800093673        União Umb dos Cultos Afro Bra341BANCO ITAU SA  030819                                                                                                                                                                                                                                                                                                      000001
10231987175000168817800093673    000053686                    000536860000000000000109                     I0153686     30081900000000250003410000017N020819105700000000000833008190000000000000000000000000000000000000000100009250353782LUIZ CARLOS MATOLA                      APIACAN 43,                             JARDIM PRIMA25056270DUQUE DE CAXIASRJUNIAO UMB DOS CULTOS AFRO BRAS    30081915 000002
21300820190000000000500                                                                                                                                                                                                                                                                                                                                                                                   000003
10231987175000168817800093673    000053685                    000536850000000000000109                     I0153685     30081900000000250003410000017N020819105700000000000833008190000000000000000000000000000000000000000100012464631728DIEGO TACITO COSTA HENRIQUE             RUA LATIFF MUSSI ROCHA N 109, CASA 102  SOL E MAR   27940160MACAE          RJUNIAO UMB DOS CULTOS AFRO BRAS    30081915 000004
21300820190000000000500                                                                                                                                                                                                                                                                                                                                                                                   000005
10231987175000168817800093673    000053684                    000536840000000000000109                     I0153684     30081900000000250003410000017N020819105700000000000833008190000000000000000000000000000000000000000100001768493782MARIA DA PENHA CORREA PINTO             RUA UMN 0, CONDOMINIO 1 CASA 34         BOSQUE AZUL 27971250MACAE          RJUNIAO UMB DOS CULTOS AFRO BRAS    30081915 000006
21300820190000000000500                                                                                                                                                                                                                                                                                                                                                                                   000007
10231987175000168817800093673    000053683                    000536830000000000000109                     I0153683     30081900000000250003410000017N020819105700000000000833008190000000000000000000000000000000000000000100078514533568PAULO SERGIO SANTOS SANTANA             RUA W N 12, TRAVESSA SENA CASA 10       LAGOMAR     27966590MACAE          RJUNIAO UMB DOS CULTOS AFRO BRAS    30081915 000008
21300820190000000000500                                                                                                                                                                                                                                                                                                                                                                                   000009
10231987175000168817800093673    000053682                    000536820000000000000109                     I0153682     30081900000000250003410000017N020819105700000000000833008190000000000000000000000000000000000000000100007208431701WEMERSON JOAO FARIAS DA SILVA           RUA: C N 3, LOTE 3 QUADRA G             SEPETIBA    23545040RIO DE JANEIRO RJUNIAO UMB DOS CULTOS AFRO BRAS    30081915 000010
21300820190000000000500                                                                                                                                                                                                                                                                                                                                                                                   000011
10231987175000168817800093673    000053681                    000536810000000000000109                     I0153681     30081900000000250003410000017N020819105700000000000833008190000000000000000000000000000000000000000100073960560710CLAUDIA MARIA DE OLIVEIRA DOS           RUA CARATUVAN 145,                      JARDIM SULAC22725020RIO DE JANEIRO RJUNIAO UMB DOS CULTOS AFRO BRAS    30081915 000012
21300820190000000000500                                                                                                                                                                                                                                                                                                                                                                                   000013
10231987175000168817800093673    000053680                    000536800000000000000109                     I0153680     30081900000000250003410000017N020819105700000000000833008190000000000000000000000000000000000000000100014933850704LIDIA GABRIELLE DIAS RIBEIRO            RUA JORGE BRAGANCAN 0, LOTE 28 QUADRA 70BOM PASTOR  26110080BELFORD ROXO   RJUNIAO UMB DOS CULTOS AFRO BRAS    30081915 000014
21300820190000000000500                                                                                                                                                                                                                                                                                                                                                                                   000015
10231987175000168817800093673    000053679                    000536790000000000000109                     I0153679     30081900000000250003410000017N020819105700000000000833008190000000000000000000000000000000000000000100010292272766MARCIA JUPIRA SANTOS GONZAGA            RUA ANTONIO FELIX N 457,                CENTRO      26520081NILOPOLIS      RJUNIAO UMB DOS CULTOS AFRO BRAS    30081915 000016
21300820190000000000500                                                                                                                                                                                                                                                                                                                                                                                   000017
10231987175000168817800093673    000053678                    000536780000000000000109                     I0153678     30081900000000250003410000017N020819105700000000000833008190000000000000000000000000000000000000000100090490894704EVELINE DA CONCEICAO                    AVENIDA ATLANTICAN 0,                   CAVALEIROS  27920390MACAE          RJUNIAO UMB DOS CULTOS AFRO BRAS    30081915 000018
21300820190000000000500                                                                                                                                                                                                                                                                                                                                                                                   000019
10231987175000168817800093673    000053677                    000536770000000000000109                     I0153677     30081900000000250003410000017N020819105700000000000833008190000000000000000000000000000000000000000100013397736781JOVANE RANGEL DA SILVA                  RUA SILVA JARDIM N 200,                 CENTRO      27910340MACAE          RJUNIAO UMB DOS CULTOS AFRO BRAS    30081915 000020
21300820190000000000500                                                                                                                                                                                                                                                                                                                                                                                   000021
10231987175000168817800093673    000053676                    000536760000000000000109                     I0153676     30081900000000250003410000017N020819105700000000000833008190000000000000000000000000000000000000000100004188514760LUIZ CARLOS PEREIRA DA SILVA            RUA W N 24, TRAVESSA 13                 LAGOMAR     27966755MACAE          RJUNIAO UMB DOS CULTOS AFRO BRAS    30081915 000022
21300820190000000000500                                                                                                                                                                                                                                                                                                                                                                                   000023
10231987175000168817800093673    000053675                    000536750000000000000109                     I0153675     30081900000000250003410000017N020819105700000000000833008190000000000000000000000000000000000000000100016492108760TIAGO LOPES DE AZEVEDO SILVA            RUA: XN 24, QUADRA 82                   PARADA MODEL25943365GUAPIMIRIM     RJUNIAO UMB DOS CULTOS AFRO BRAS    30081915 000024
21300820190000000000500                                                                                                                                                                                                                                                                                                                                                                                   000025
10231987175000168817800093673    000053674                    000536740000000000000109                     I0153674     30081900000000250003410000017N020819105700000000000833008190000000000000000000000000000000000000000100014527767763THIERRY PADILHA MOTA                    RUA ALCIR BRASIL N 706,                 JARDIM NOVA 26266010NOVA IGUACU    RJUNIAO UMB DOS CULTOS AFRO BRAS    30081915 000026
21300820190000000000500                                                                                                                                                                                                                                                                                                                                                                                   000027
10231987175000168817800093673    000053673                    000536730000000000000109                     I0153673     30081900000000250003410000017N020819105700000000000833008190000000000000000000000000000000000000000100011122717750RODRIGO DINIZ DA COSTA                  RUA ENGENHO DE DENTRON 177, LOTE 26 QUADVILAR DOS TE25565230SAO JOAO DE MERRJUNIAO UMB DOS CULTOS AFRO BRAS    30081915 000028
21300820190000000000500                                                                                                                                                                                                                                                                                                                                                                                   000029
10231987175000168817800093673    000053672                    000536720000000000000109                     I0153672     30081900000000250003410000017N020819105700000000000833008190000000000000000000000000000000000000000100013090350750REINALDO GONCALVES DE OLIVEIRA          RUA DOMINGOS LEMOSN 99,                 COELHO DA RO25550721SAO JOAO DE MERRJUNIAO UMB DOS CULTOS AFRO BRAS    30081915 000030
21300820190000000000500                                                                                                                                                                                                                                                                                                                                                                                   000031
10231987175000168817800093673    000053671                    000536710000000000000109                     I0153671     30081900000000250003410000017N020819105700000000000833008190000000000000000000000000000000000000000100006110323764WAGNER MATOS DA SILVA                   RUA OLINDAN 425, CASA 3                 BELA VISTA  26175350BELFORD ROXO   RJUNIAO UMB DOS CULTOS AFRO BRAS    30081915 000032
21300820190000000000500                                                                                                                                                                                                                                                                                                                                                                                   000033
10231987175000168817800093673    000053670                    000536700000000000000109                     I0153670     30081900000000250003410000017N020819105700000000000833008190000000000000000000000000000000000000000100090432894772ALTAMIRO DAMASCENO MONCAO               RUA TENERIFE N 8,                       PARADA DE LU21010000RIO DE JANEIRO RJUNIAO UMB DOS CULTOS AFRO BRAS    30081915 000034
21300820190000000000500                                                                                                                                                                                                                                                                                                                                                                                   000035
10231987175000168817800093673    000053669                    000536690000000000000109                     I0153669     30081900000000250003410000017N020819105700000000000833008190000000000000000000000000000000000000000100011834931770LEANDRO BARROS DA SILVA                 RUA: ROMARIO SILVA N 40,                KENNEDY     26020640NOVA IGUACU    RJUNIAO UMB DOS CULTOS AFRO BRAS    30081915 000036
21300820190000000000500                                                                                                                                                                                                                                                                                                                                                                                   000037
10231987175000168817800093673    000053668                    000536680000000000000109                     I0153668     30081900000000250003410000017N020819105700000000000833008190000000000000000000000000000000000000000100005451927731MAGDA MARTHA DE OLIVEIRA                RUA: JOSE MARIANO  N 0, LOTE 12 QUADRA 4CABUCU - PAR26292051NOVA IGUACU    RJUNIAO UMB DOS CULTOS AFRO BRAS    30081915 000038
21300820190000000000500                                                                                                                                                                                                                                                                                                                                                                                   000039
10231987175000168817800093673    000053667                    000536670000000000000109                     I0153667     30081900000000250003410000017N020819105700000000000833008190000000000000000000000000000000000000000100088041883753JORGE COSTA BRAGA FILHO                 RUA MARQUES DE JACAREPAGUA N 707, BLOCO TAQUARA     22730290RIO DE JANEIRO RJUNIAO UMB DOS CULTOS AFRO BRAS    30081915 000040
21300820190000000000500                                                                                                                                                                                                                                                                                                                                                                                   000041
10231987175000168817800093673    000053666                    000536660000000000000109                     I0153666     30081900000000250003410000017N020819105700000000000833008190000000000000000000000000000000000000000100005234763706LUCIANA FERREIRA DE ALMEIDA             RUA QUATRON 0, LOTE 1 QUADRA 258        PARADA MORAB25265220DUQUE DE CAXIASRJUNIAO UMB DOS CULTOS AFRO BRAS    30081915 000042
21300820190000000000500                                                                                                                                                                                                                                                                                                                                                                                   000043
10231987175000168817800093673    000053665                    000536650000000000000109                     I0153665     30081900000000250003410000017N020819105700000000000833008190000000000000000000000000000000000000000100012009305760DEBORA CRISTINA DE OLIVEIRA BR          RUA ORLANDO CARLOS DA CONCEICAO N 10, RUCOROA GRANDE23820800ITAGUAI        RJUNIAO UMB DOS CULTOS AFRO BRAS    30081915 000044
21300820190000000000500                                                                                                                                                                                                                                                                                                                                                                                   000045
10231987175000168817800093673    000053664                    000536640000000000000109                     I0153664     30081900000000250003410000017N020819105700000000000833008190000000000000000000000000000000000000000100000759136742ADRIANA LAPORT ALVES                    RUA DONA CLARA DE ARAUJO N 681,         ANDRADE ARAU26010390NOVA IGUACU    RJUNIAO UMB DOS CULTOS AFRO BRAS    30081915 000046
21300820190000000000500                                                                                                                                                                                                                                                                                                                                                                                   000047
10231987175000168817800093673    000053663                    000536630000000000000109                     I0153663     30081900000000250003410000017N020819105700000000000833008190000000000000000000000000000000000000000100012450258728MONIQUE RODRIGUES DE ALMEIDA            RUA CESAR N 277, CASA 101 FUNDOS        REALENGO    21750400RIO DE JANEIRO RJUNIAO UMB DOS CULTOS AFRO BRAS    30081915 000048
21300820190000000000500                                                                                                                                                                                                                                                                                                                                                                                   000049
10231987175000168817800093673    000053662                    000536620000000000000109                     I0153662     30081900000000250003410000017N020819105700000000000833008190000000000000000000000000000000000000000100000598812750ELIZABETE DOS SANTOS LUCIANO            RUA GOLGOTA N 0, LOTE 44 QUADRA 33      CHACARA RIO 25245060DUQUE DE CAXIASRJUNIAO UMB DOS CULTOS AFRO BRAS    30081915 000050
21300820190000000000500                                                                                                                                                                                                                                                                                                                                                                                   000051
10231987175000168817800093673    000053661                    000536610000000000000109                     I0153661     30081900000000250003410000017N020819105700000000000833008190000000000000000000000000000000000000000100074171372704ELIANE DE SOUZA MACHADO                 RUA ROQUETE PINTON 0, LOTE 22 QUADRA 290JARDIM ANHAN25265200DUQUE DE CAXIASRJUNIAO UMB DOS CULTOS AFRO BRAS    30081915 000052
21300820190000000000500                                                                                                                                                                                                                                                                                                                                                                                   000053
10231987175000168817800093673    000053660                    000536600000000000000109                     I0153660     30081900000000250003410000017N020819105700000000000833008190000000000000000000000000000000000000000100010262557754EDGAR SODRE BANI                        RUA BN 20, LOTE 7 QUADRA 255            PARADA MORAB25265220DUQUE DE CAXIASRJUNIAO UMB DOS CULTOS AFRO BRAS    30081915 000054
21300820190000000000500                                                                                                                                                                                                                                                                                                                                                                                   000055
10231987175000168817800093673    000053659                    000536590000000000000109                     I0153659     30081900000000250003410000017N020819105700000000000833008190000000000000000000000000000000000000000100006876928730DIONE ASSUNCAO SOARES                   RUA SILVA VIEIRA N 0, LOTE 24           FAZENDA SOSS26088475NOVA IGUACU    RJUNIAO UMB DOS CULTOS AFRO BRAS    30081915 000056
21300820190000000000500                                                                                                                                                                                                                                                                                                                                                                                   000057
10231987175000168817800093673    000053658                    000536580000000000000109                     I0153658     30081900000000250003410000017N020819105700000000000833008190000000000000000000000000000000000000000100063268876749JORGE DA COSTA BARRETO                  AVENIDA JOAQUIM COSTA LIMA N 0, LOTE 27 CENTRO      26112055BELFORD ROXO   RJUNIAO UMB DOS CULTOS AFRO BRAS    30081915 000058
21300820190000000000500                                                                                                                                                                                                                                                                                                                                                                                   000059
10231987175000168817800093673    000053657                    000536570000000000000109                     I0153657     30081900000000250003410000017N020819105700000000000833008190000000000000000000000000000000000000000100003798443700ALINE MODINA TELLES                     RUA: DETETIVE PARADA N 8,               VILA DA PENH21221060RIO DE JANEIRO RJUNIAO UMB DOS CULTOS AFRO BRAS    30081915 000060
21300820190000000000500                                                                                                                                                                                                                                                                                                                                                                                   000061
10231987175000168817800093673    000053656                    000536560000000000000109                     I0153656     30081900000000250003410000017N020819105700000000000833008190000000000000000000000000000000000000000100079882749704IRIS BRASILINO VILELA                   RUA: SETE DE SETEMBRO N 183,            CAMARI      26022202NOVA IGUACU    RJUNIAO UMB DOS CULTOS AFRO BRAS    30081915 000062
21300820190000000000500                                                                                                                                                                                                                                                                                                                                                                                   000063
10231987175000168817800093673    000053655                    000536550000000000000109                     I0153655     30081900000000250003410000017N020819105700000000000833008190000000000000000000000000000000000000000100084441372787LUCIA HELENA DE OLIVEIRA GAMA           RUA PEDRO ANTONIO PEREIRA N 270, FUNDOS AERO CLUBE  26285291NOVA IGUACU    RJUNIAO UMB DOS CULTOS AFRO BRAS    30081915 000064
21300820190000000000500                                                                                                                                                                                                                                                                                                                                                                                   000065
10231987175000168817800093673    000053654                    000536540000000000000109                     I0153654     30081900000000250003410000017N020819105700000000000833008190000000000000000000000000000000000000000100082191638791RITA DE CASSIA VALVERDE ROCHA           RUA JOAQUIM SOARES NETO N 250,          NOVA AMERICA26021560NOVA IGUACU    RJUNIAO UMB DOS CULTOS AFRO BRAS    30081915 000066
21300820190000000000500                                                                                                                                                                                                                                                                                                                                                                                   000067
10231987175000168817800093673    000053653                    000536530000000000000109                     I0153653     30081900000000250003410000017N020819105700000000000833008190000000000000000000000000000000000000000100011590456742WANILA LIMA DE BRITO                    RUA REDENTOR N 0,  LOTE 5 QUADRA 18 CASAJARDIM REDEN26110090BELFORD ROXO   RJUNIAO UMB DOS CULTOS AFRO BRAS    30081915 000068
21300820190000000000500                                                                                                                                                                                                                                                                                                                                                                                   000069
10231987175000168817800093673    000053652                    000536520000000000000109                     I0153652     30081900000000250003410000017N020819105700000000000833008190000000000000000000000000000000000000000100012727461780SUELMIR LIMA DE ARAUJO                  RUA NOSSA SENHORA DAS GRACASN 98,       PRAIA DO ANI25925708MAGE           RJUNIAO UMB DOS CULTOS AFRO BRAS    30081915 000070
21300820190000000000500                                                                                                                                                                                                                                                                                                                                                                                   000071
10231987175000168817800093673    000053651                    000536510000000000000109                     I0153651     30081900000000250003410000017N020819105700000000000833008190000000000000000000000000000000000000000100096531287950FERNANDO RIBEIRO DE SOUZA               RUA JOAO PEDRO TESCH  N 332, D          ALTO DA SERR25635500PETROPOLIS     RJUNIAO UMB DOS CULTOS AFRO BRAS    30081915 000072
21300820190000000000500                                                                                                                                                                                                                                                                                                                                                                                   000073
10231987175000168817800093673    000053650                    000536500000000000000109                     I0153650     30081900000000250003410000017N020819105700000000000833008190000000000000000000000000000000000000000100011351878786GLEISSON BITTENCOURT DA SILVA           RUA FLORA DE ARAUJO N 310,              PRATA       26010570NOVA IGUACU    RJUNIAO UMB DOS CULTOS AFRO BRAS    30081915 000074
21300820190000000000500                                                                                                                                                                                                                                                                                                                                                                                   000075
10231987175000168817800093673    000053649                    000536490000000000000109                     I0153649     30081900000000250003410000017N020819105700000000000833008190000000000000000000000000000000000000000100005225598757JOSUE DA SILVA SANTOS                   RUA BARAO DO AMAPA N 0, LOTE 1 QUADRA 40AMAPA       25235475DUQUE DE CAXIASRJUNIAO UMB DOS CULTOS AFRO BRAS    30081915 000076
21300820190000000000500                                                                                                                                                                                                                                                                                                                                                                                   000077
10231987175000168817800093673    000053648                    000536480000000000000109                     I0153648     30081900000000250003410000017N020819105700000000000833008190000000000000000000000000000000000000000100015110892709YASMIN FIALHO HANGES                    ESTRADA HENRIQUE DE MELO N 193, FUNDOS  BENTO RIBEIR21340190RIO DE JANEIRO RJUNIAO UMB DOS CULTOS AFRO BRAS    30081915 000078
21300820190000000000500                                                                                                                                                                                                                                                                                                                                                                                   000079
10231987175000168817800093673    000053647                    000536470000000000000109                     I0153647     30081900000000250003410000017N020819105700000000000833008190000000000000000000000000000000000000000100009503848792JORGE ALEXANDRE TEIXEIRA BRAZ           RUA CAJUIPE N 163, CASA 1               BONSUCESSO  21060490RIO DE JANEIRO RJUNIAO UMB DOS CULTOS AFRO BRAS    30081915 000080
21300820190000000000500                                                                                                                                                                                                                                                                                                                                                                                   000081
10231987175000168817800093673    000053646                    000536460000000000000109                     I0153646     30081900000000250003410000017N020819105700000000000833008190000000000000000000000000000000000000000100007443282761WASHINGTON LUIZ DA SILVA RAMOS          RUA DEZESSETE N 78, CONJUNTO LIBERDADE  SANTA CRUZ  23560600RIO DE JANEIRO RJUNIAO UMB DOS CULTOS AFRO BRAS    30081915 000082
21300820190000000000500                                                                                                                                                                                                                                                                                                                                                                                   000083
10231987175000168817800093673    000053645                    000536450000000000000109                     I0153645     30081900000000250003410000017N020819105700000000000833008190000000000000000000000000000000000000000100007964006797JOSILENE MONTEIRO HERMOGENES            RUA PADRE MARINHO N 309,                SARACURUNA  25212450DUQUE DE CAXIASRJUNIAO UMB DOS CULTOS AFRO BRAS    30081915 000084
21300820190000000000500                                                                                                                                                                                                                                                                                                                                                                                   000085
10231987175000168817800093673    000053644                    000536440000000000000109                     I0153644     30081900000000250003410000017N020819105700000000000833008190000000000000000000000000000000000000000100047442140700MARFIZA FERREIRA DA SILVA VENA          RUA ERICO COELHON 50,                   GRAMA       26060650NOVA IGUACU    RJUNIAO UMB DOS CULTOS AFRO BRAS    30081915 000086
21300820190000000000500                                                                                                                                                                                                                                                                                                                                                                                   000087
10231987175000168817800093673    000053643                    000536430000000000000109                     I0153643     30081900000000250003410000017N020819105700000000000833008190000000000000000000000000000000000000000100009956479764TATIANE VASCONCELOS DA SILVA            RUA SANTA MARGARIDA N 337,              PIABETA     25900000MAGE           RJUNIAO UMB DOS CULTOS AFRO BRAS    30081915 000088
21300820190000000000500                                                                                                                                                                                                                                                                                                                                                                                   000089
10231987175000168817800093673    000053642                    000536420000000000000109                     I0153642     30081900000000250003410000017N020819105700000000000833008190000000000000000000000000000000000000000100093788150734REGINA DA SILVA VERONEZI DOS S          RUA ABATE N 105,                        JARDIM CANAA26263040NOVA IGUACU    RJUNIAO UMB DOS CULTOS AFRO BRAS    30081915 000090
21300820190000000000500                                                                                                                                                                                                                                                                                                                                                                                   000091
10231987175000168817800093673    000053641                    000536410000000000000109                     I0153641     30081900000000250003410000017N020819105700000000000833008190000000000000000000000000000000000000000100008834107705JOSELI TIADULINO                        RUA MARIA TEREZA N 134,                 JARDIM CANAA26263230NOVA IGUACU    RJUNIAO UMB DOS CULTOS AFRO BRAS    30081915 000092
21300820190000000000500                                                                                                                                                                                                                                                                                                                                                                                   000093
10231987175000168817800093673    000053640                    000536400000000000000109                     I0153640     30081900000000250003410000017N020819105700000000000833008190000000000000000000000000000000000000000100092645933734ROSINEA PRECIOSO DE OLIVEIRA            RUA PROFESSORA MARLY CARVALHO PEREIRAN 3MIGUEL COUTO26070452NOVA IGUACU    RJUNIAO UMB DOS CULTOS AFRO BRAS    30081915 000094
21300820190000000000500                                                                                                                                                                                                                                                                                                                                                                                   000095
10231987175000168817800093673    000053639                    000536390000000000000109                     I0153639     30081900000000250003410000017N020819105700000000000833008190000000000000000000000000000000000000000100080578063700SANDRA REGINA NEVES CHAGAS              RUA MARIA LOURENCO N 12, CASA 2         JARDIM PRIMA25215367DUQUE DE CAXIASRJUNIAO UMB DOS CULTOS AFRO BRAS    30081915 000096
21300820190000000000500                                                                                                                                                                                                                                                                                                                                                                                   000097
10231987175000168817800093673    000053638                    000536380000000000000109                     I0153638     30081900000000250003410000017N020819105700000000000833008190000000000000000000000000000000000000000100068374208791ROSANA LISBOA DE OLIVEIRA               RUA TEOFILO DIAS N 0, LOTE 7 QUADRA 47  PILAR       25233239DUQUE DE CAXIASRJUNIAO UMB DOS CULTOS AFRO BRAS    30081915 000098
21300820190000000000500                                                                                                                                                                                                                                                                                                                                                                                   000099
10231987175000168817800093673    000053637                    000536370000000000000109                     I0153637     30081900000000250003410000017N020819105700000000000833008190000000000000000000000000000000000000000100014760475702DEBORAH ROSA                            RUA MARIA LOURENCO GONCALVES N 18, CASA JARDIM PRIMA25215367DUQUE DE CAXIASRJUNIAO UMB DOS CULTOS AFRO BRAS    30081915 000100
21300820190000000000500                                                                                                                                                                                                                                                                                                                                                                                   000101
10231987175000168817800093673    000053636                    000536360000000000000109                     I0153636     30081900000000250003410000017N020819105700000000000833008190000000000000000000000000000000000000000100054336481768PENHA JACIARA DA SILVA                  RUA DEZESSETE N 102, CONJUNTO LIBERDADE SAMTA CRUZ  23560600RIO DE JANEIRO RJUNIAO UMB DOS CULTOS AFRO BRAS    30081915 000102
21300820190000000000500                                                                                                                                                                                                                                                                                                                                                                                   000103
10231987175000168817800093673    000053635                    000536350000000000000109                     I0153635     30081900000000250003410000017N020819105700000000000833008190000000000000000000000000000000000000000100004419977752GISELE DE CASTILHO SOARES               RUA ARTHUR MAGALHAES N 64,              COMENDADOR S26276605NOVA IGUACU    RJUNIAO UMB DOS CULTOS AFRO BRAS    30081915 000104
21300820190000000000500                                                                                                                                                                                                                                                                                                                                                                                   000105
10231987175000168817800093673    000053634                    000536340000000000000109                     I0153634     30081900000000250003410000017N020819105700000000000833008190000000000000000000000000000000000000000100055480730797TEREZINHA DE JESUS FERRAZ DOS           RUA TUPINAMBA N 305,                    OURO VERDE  26262490NOVA IGUACU    RJUNIAO UMB DOS CULTOS AFRO BRAS    30081915 000106
21300820190000000000500                                                                                                                                                                                                                                                                                                                                                                                   000107
10231987175000168817800093673    000053633                    000536330000000000000109                     I0153633     30081900000000250003410000017N020819105700000000000833008190000000000000000000000000000000000000000100000915013770ROSANGELA DAS NEVES RESENDE DO          RUA GOIANESIAN 0, LOTE 23 QUADRA 2      MARAMBAIA   24859300ITABORAI       RJUNIAO UMB DOS CULTOS AFRO BRAS    30081915 000108
21300820190000000000500                                                                                                                                                                                                                                                                                                                                                                                   000109
10231987175000168817800093673    000053632                    000536320000000000000109                     I0153632     30081900000000250003410000017N020819105700000000000833008190000000000000000000000000000000000000000100005411763746MONICA CRUZ DE OLIVEIRA                 AVENIDA JOAO XXIII N 0, RUA QUATORZE QUASANTA CRUZ  23565110RIO DE JANEIRO RJUNIAO UMB DOS CULTOS AFRO BRAS    30081915 000110
21300820190000000000500                                                                                                                                                                                                                                                                                                                                                                                   000111
10231987175000168817800093673    000053631                    000536310000000000000109                     I0153631     30081900000000250003410000017N020819105700000000000833008190000000000000000000000000000000000000000100008246810707LEILA DA SILVA MARQUES                  RUA REDENTOR N 0, LOTE 18 QUADRA 19     JARDIM REDEN26110090BELFORD ROXO   RJUNIAO UMB DOS CULTOS AFRO BRAS    30081915 000112
21300820190000000000500                                                                                                                                                                                                                                                                                                                                                                                   000113
10231987175000168817800093673    000053630                    000536300000000000000109                     I0153630     30081900000000250003410000017N020819105700000000000833008190000000000000000000000000000000000000000100010276278704ROSELI DE OLIVEIRA DUTRA                RUA UM N 0, LOTE 7 QUADRA 8             TAQUARA     25275110DUQUE DE CAXIASRJUNIAO UMB DOS CULTOS AFRO BRAS    30081915 000114
21300820190000000000500                                                                                                                                                                                                                                                                                                                                                                                   000115
10231987175000168817800093673    000053629                    000536290000000000000109                     I0153629     30081900000000250003410000017N020819105700000000000833008190000000000000000000000000000000000000000100004277956726ROSANA OLIVEIRA GUEDES                  RUA GRACA MELLO N 640, APT 101 BLOCO 30 CAVALCANTI  21381300RIO DE JANEIRO RJUNIAO UMB DOS CULTOS AFRO BRAS    30081915 000116
21300820190000000000500                                                                                                                                                                                                                                                                                                                                                                                   000117
10231987175000168817800093673    000053628                    000536280000000000000109                     I0153628     30081900000000250003410000017N020819105700000000000833008190000000000000000000000000000000000000000100001972684710ALEXANDRE MALAQUIAS DE SOUSA P          AVENIDA NELSON DE AQUINON 246,          COROA GRANDE23825670ITAGUAI        RJUNIAO UMB DOS CULTOS AFRO BRAS    30081915 000118
21300820190000000000500                                                                                                                                                                                                                                                                                                                                                                                   000119
10231987175000168817800093673    000053627                    000536270000000000000109                     I0153627     30081900000000250003410000017N020819105700000000000833008190000000000000000000000000000000000000000100004554269701PATRICIA CABRAL BOTELHO                 RUA QUINTAO N 995,                      PIEDADE     21381050RIO DE JANEIRO RJUNIAO UMB DOS CULTOS AFRO BRAS    30081915 000120
21300820190000000000500                                                                                                                                                                                                                                                                                                                                                                                   000121
10231987175000168817800093673    000053626                    000536260000000000000109                     I0153626     30081900000000250003410000017N020819105700000000000833008190000000000000000000000000000000000000000100000129467707SANDRA CRISTINA DOS SANTOS TIT          RUA DAVI N 0,  BLOCO 3 APT 303          CIDADE DE DE22772430JACAREPAGUA    RJUNIAO UMB DOS CULTOS AFRO BRAS    30081915 000122
21300820190000000000500                                                                                                                                                                                                                                                                                                                                                                                   000123
10231987175000168817800093673    000053625                    000536250000000000000109                     I0153625     30081900000000250003410000017N020819105700000000000833008190000000000000000000000000000000000000000100008781471793LURDEUDALIA ARAUJO                      RUA MARIA LOROSAN 0, CASA 8 - VITORIA RESANTA CRUZ  23525040RIO DE JANEIRO RJUNIAO UMB DOS CULTOS AFRO BRAS    30081915 000124
21300820190000000000500                                                                                                                                                                                                                                                                                                                                                                                   000125
10231987175000168817800093673    000053624                    000536240000000000000109                     I0153624     30081900000000250003410000017N020819105700000000000833008190000000000000000000000000000000000000000100060237090791ELIZABETH TELLES DA SILVA               ESTRADA OUTEIRO SANTO  N 1018,  CASA 5  TAQUARA     22713164RIO DE JANEIRO RJUNIAO UMB DOS CULTOS AFRO BRAS    30081915 000126
21300820190000000000500                                                                                                                                                                                                                                                                                                                                                                                   000127
10231987175000168817800093673    000053623                    000536230000000000000109                     I0153623     30081900000000250003410000017N020819105700000000000833008190000000000000000000000000000000000000000100000076412733VALERIA RIBEIRO TEIXEIRA                RUA JIPIOCA N 135, CASA 1               CASCADURA   21311250RIO DE JANEIRO RJUNIAO UMB DOS CULTOS AFRO BRAS    30081915 000128
21300820190000000000500                                                                                                                                                                                                                                                                                                                                                                                   000129
10231987175000168817800093673    000053622                    000536220000000000000109                     I0153622     30081900000000250003410000017N020819105700000000000833008190000000000000000000000000000000000000000100014994285705JEFFERSON DOS SANTOS DA SILVA           ESTRADA DO PAU DA FOMEN 50,             TAQUARA     22723497RIO DE JANEIRO RJUNIAO UMB DOS CULTOS AFRO BRAS    30081915 000130
21300820190000000000500                                                                                                                                                                                                                                                                                                                                                                                   000131
10231987175000168817800093673    000053621                    000536210000000000000109                     I0153621     30081900000000250003410000017N020819105700000000000833008190000000000000000000000000000000000000000100035138963791AMILTON PIO                             RUA JOSE DE MELO N 77,                  SEPETIBA    23545165RIO DE JANEIRO RJUNIAO UMB DOS CULTOS AFRO BRAS    30081915 000132
21300820190000000000500                                                                                                                                                                                                                                                                                                                                                                                   000133
10231987175000168817800093673    000053620                    000536200000000000000109                     I0153620     30081900000000250003410000017N020819105700000000000833008190000000000000000000000000000000000000000100011998959708ARTUR TAVARES DA SILVA NETO             RUA JOAO CARLOS VITALN 17, - CROACIA    SEPETIBA    23540080RIO DE JANEIRO RJUNIAO UMB DOS CULTOS AFRO BRAS    30081915 000134
21300820190000000000500                                                                                                                                                                                                                                                                                                                                                                                   000135
10231987175000168817800093673    000053619                    000536190000000000000109                     I0153619     30081900000000250003410000017N020819105700000000000833008190000000000000000000000000000000000000000100007103755736ALESSANDRA COSTA DE BARROS              PRACA OSCAR ROSSIM N 84,                SEPETIBA    23540250RIO DE JANEIRO RJUNIAO UMB DOS CULTOS AFRO BRAS    30081915 000136
21300820190000000000500                                                                                                                                                                                                                                                                                                                                                                                   000137
10231987175000168817800093673    000053618                    000536180000000000000109                     I0153618     30081900000000250003410000017N020819105700000000000833008190000000000000000000000000000000000000000100002134084731MARINALVA LINDOLFO DA SILVA             AVENIDA GOMES FREIREN 136,              VILA SANTO A25040310DUQUE DE CAXIASRJUNIAO UMB DOS CULTOS AFRO BRAS    30081915 000138
21300820190000000000500                                                                                                                                                                                                                                                                                                                                                                                   000139
10231987175000168817800093673    000053617                    000536170000000000000109                     I0153617     30081900000000250003410000017N020819105700000000000833008190000000000000000000000000000000000000000100001301453781CARLINDA AZEREDO MATOS                  RUA DOUTOR FERNANDO BRIGADAON 17,       RIACHAO     26279180NOVA IGUACU    RJUNIAO UMB DOS CULTOS AFRO BRAS    30081915 000140
21300820190000000000500                                                                                                                                                                                                                                                                                                                                                                                   000141
10231987175000168817800093673    000053616                    000536160000000000000109                     I0153616     30081900000000250003410000017N020819105700000000000833008190000000000000000000000000000000000000000100014604780706GILMAR GONCALVES FERREIRA               RUA DOIS N 0, BLOCO 2 CASA 27           ROCINHA     22451400RIO DE JANEIRO RJUNIAO UMB DOS CULTOS AFRO BRAS    30081915 000142
21300820190000000000500                                                                                                                                                                                                                                                                                                                                                                                   000143
10231987175000168817800093673    000053615                    000536150000000000000109                     I0153615     30081900000000250003410000017N020819105700000000000833008190000000000000000000000000000000000000000100064175499768TEREZA CRISTINA PIRES SILVA RO          RUA GOIASN 0, LOTE 3 QUADRA 4           PLANALTO DO 24859300ITABORAI       RJUNIAO UMB DOS CULTOS AFRO BRAS    30081915 000144
21300820190000000000500                                                                                                                                                                                                                                                                                                                                                                                   000145
10231987175000168817800093673    000053614                    000536140000000000000109                     I0153614     30081900000000250003410000017N020819105700000000000833008190000000000000000000000000000000000000000100065929039704JUPIACU SALLES                          RUA ANDRE ROCHAN 0, QUADRA 83 LOTES 16 ECURICICA    22570000RIO DE JANEIRO RJUNIAO UMB DOS CULTOS AFRO BRAS    30081915 000146
21300820190000000000500                                                                                                                                                                                                                                                                                                                                                                                   000147
10231987175000168817800093673    000053613                    000536130000000000000109                     I0153613     30081900000000250003410000017N020819105700000000000833008190000000000000000000000000000000000000000100015834777724JOAO PAULO SALGUEIRO DA SILVA           RUA MANOEL DO NASCIMENTO N 134,         IRAJA       21361510RIO DE JANEIRO RJUNIAO UMB DOS CULTOS AFRO BRAS    30081915 000148
21300820190000000000500                                                                                                                                                                                                                                                                                                                                                                                   000149
10231987175000168817800093673    000053612                    000536120000000000000109                     I0153612     30081900000000250003410000017N020819105700000000000833008190000000000000000000000000000000000000000100089044380710DENISE SAMPAIO DE MOURA MACIEL          RUA XAXA N 10,                          RIO DAS PEDR22753057RIO DE JANEIRO RJUNIAO UMB DOS CULTOS AFRO BRAS    30081915 000150
21300820190000000000500                                                                                                                                                                                                                                                                                                                                                                                   000151
10231987175000168817800093673    000053611                    000536110000000000000109                     I0153611     30081900000000250003410000017N020819105700000000000833008190000000000000000000000000000000000000000100025875159715SUELI DE OLIVEIRA DIAS                  AVENIDA DAS ALAGOAS GARDENIA AZULN 1200,GARDENIA AZU22765451RIO DE JANEIRO RJUNIAO UMB DOS CULTOS AFRO BRAS    30081915 000152
21300820190000000000500                                                                                                                                                                                                                                                                                                                                                                                   000153
10231987175000168817800093673    000053610                    000536100000000000000109                     I0153610     30081900000000250003410000017N020819105700000000000833008190000000000000000000000000000000000000000100000497155770CINTIA MARTINS DA SILVA                 RUA POCONE N 371,                       ENCANTADO   20745090RIO DE JANEIRO RJUNIAO UMB DOS CULTOS AFRO BRAS    30081915 000154
21300820190000000000500                                                                                                                                                                                                                                                                                                                                                                                   000155
10231987175000168817800093673    000053609                    000536090000000000000109                     I0153609     30081900000000250003410000017N020819105700000000000833008190000000000000000000000000000000000000000100095341048768MARILENE CANDIDA                        RUA NOSSA SENHORA DA GUIAN 162,         VILA NOVA DO26062192NOVA IGUACU    RJUNIAO UMB DOS CULTOS AFRO BRAS    30081915 000156
21300820190000000000500                                                                                                                                                                                                                                                                                                                                                                                   000157
10231987175000168817800093673    000053608                    000536080000000000000109                     I0153608     30081900000000250003410000017N020819105700000000000833008190000000000000000000000000000000000000000100014492149759FILIPE FONSECA MARIANO                  RUA DONA JULIAN 16, FUNDOS              SEPETIBA    23545570RIO DE JANEIRO RJUNIAO UMB DOS CULTOS AFRO BRAS    30081915 000158
21300820190000000000500                                                                                                                                                                                                                                                                                                                                                                                   000159
10231987175000168817800093673    000053607                    000536070000000000000109                     I0153607     30081900000000250003410000017N020819105700000000000833008190000000000000000000000000000000000000000100007214737760LEANDRO FRAGA DE OLIVEIRA               RUA VAZ LOBON 522,                      VAZ LOBO    21361030RIO DE JANEIRO RJUNIAO UMB DOS CULTOS AFRO BRAS    30081915 000160
21300820190000000000500                                                                                                                                                                                                                                                                                                                                                                                   000161
9                                                                                                                                                                                                                                                                                                                                                                                                         000162
