01REMESSA01COBRANCA       916200163100        União Umb dos Cultos Afro Bra341BANCO ITAU SA  250118                                                                                                                                                                                                                                                                                                      000001
10231987175000168916200163100    00009068                     000090680000000000000109                     I019068      15021800000000140003410000017N250118104700000000000101502180000000000000000000000000000000000000000100008016237746RAFAEL GRACA PEREIRA                    ESTRADA DA COVANCA, 360 CASA            TANQUE - JAC22735020RIO DE JANEIRO RJUNIAO UMB DOS CULTOS AFRO BRAS    15021810 000002
10231987175000168916200163100    00008923                     000089230000000000000109                     I028923      31011800000000035003410000017N020118104700000000000103101180000000000000000000000000000000000000000100062547429772JABES DE PAIVA PONTES                   RUA HURON, 69                           ANCHIETA - R21645290RIO DE JANEIRO RJUNIAO UMB DOS CULTOS AFRO BRAS    31011810 000003
10231987175000168916200163100    00004576                     000045760000000000000109                     I024576      22121700000000350003410000017N171117104700000000000102212170000000000000000000000000000000000000000100090618254749NELY MOREIRA GOMES                      RUA GOMES CARNEIRO SN LOTE 12 QUADRA 60 SARACURUNA -25211050DUQUE DE CAXIASRJUNIAO UMB DOS CULTOS AFRO BRAS    22121710 000004
10231987175000168916200163100    00003890                     000038900000000000000109                     I023890      22121700000000350003410000017N171117104700000000000102212170000000000000000000000000000000000000000100093154011749ANDERSON GOMES BEZERRA                  RUA DONA ROMANA, 309                    ENGENHO NOVO20710200RIO DE JANEIRO RJUNIAO UMB DOS CULTOS AFRO BRAS    22121710 000005
10231987175000168916200163100    00003684                     000036840000000000000109                     I023684      22121700000000350003410000017N171117104700000000000102212170000000000000000000000000000000000000000100008016237746RAFAEL GRACA PEREIRA                    ESTRADA DA COVANCA, 360 CASA            TANQUE - JAC22735020RIO DE JANEIRO RJUNIAO UMB DOS CULTOS AFRO BRAS    22121710 000006
10231987175000168916200163100    00003588                     000035880000000000000109                     I023588      22121700000000350003410000017N171117104700000000000102212170000000000000000000000000000000000000000100055720277749MARIA DE FATIMA PEREIRA                 RUA CORONEL SEROA DA MOTA, 145          SEPETIBA    23535040RIO DE JANEIRO RJUNIAO UMB DOS CULTOS AFRO BRAS    22121710 000007
10231987175000168916200163100    00003128                     000031280000000000000109                     I023128      31121700000000035003410000017N131117104700000000000103112170000000000000000000000000000000000000000100090618254749NELY MOREIRA GOMES                      RUA GOMES CARNEIRO SN LOTE 12 QUADRA 60 SARACURUNA -25211050DUQUE DE CAXIASRJUNIAO UMB DOS CULTOS AFRO BRAS    31121710 000008
10231987175000168916200163100    00002196                     000021960000000000000109                     I022196      31121700000000035003410000017N131117104700000000000103112170000000000000000000000000000000000000000100008016237746RAFAEL GRACA PEREIRA                    ESTRADA DA COVANCA, 360 CASA            TANQUE - JAC22735020RIO DE JANEIRO RJUNIAO UMB DOS CULTOS AFRO BRAS    31121710 000009
9                                                                                                                                                                                                                                                                                                                                                                                                         000010
