01REMESSA01COBRANCA       916200163100        União Umb dos Cultos Afro Bra341BANCO ITAU SA  181218                                                                                                                                                                                                                                                                                                      000001
10231987175000168916200163100    000033598                    000335980000000000000109                     I0133598     19121800000000200003410000017N171218104700000000000101912180000000000000000000000000000000000000000100090693043768REJANE VIEIRA GOMES                     RUA TAPIRANGA                           PADRE MIGUEL21775470RIO DE JANEIRO RJUNIAO UMB DOS CULTOS AFRO BRAS    19121810 000002
10231987175000168916200163100    000033597                    000335970000000000000109                     I0133597     20121800000000280003410000017N171218104700000000000102012180000000000000000000000000000000000000000100035611073700ANTONIO CARLOS ANTUNES BASTOS           AVENIDA ITATIAIA                        VILA ITAMARA25065095DUQUE DE CAXIASRJUNIAO UMB DOS CULTOS AFRO BRAS    20121810 000003
10231987175000168916200163100    000033596                    000335960000000000000109                     I0133596     21121800000000350003410000017N171218104700000000000102112180000000000000000000000000000000000000000100092053050730SONIA MARIA RODRIGUES LONTRA M          TRAVESSA TITO RABELO                    CAMPO GRANDE23017245RIO DE JANEIRO RJUNIAO UMB DOS CULTOS AFRO BRAS    21121810 000004
10231987175000168916200163100    000033595                    000335950000000000000109                     I0133595     21121800000000035003410000017N171218104700000000000102112180000000000000000000000000000000000000000100092053050730SONIA MARIA RODRIGUES LONTRA M          TRAVESSA TITO RABELO                    CAMPO GRANDE23017245RIO DE JANEIRO RJUNIAO UMB DOS CULTOS AFRO BRAS    21121810 000005
10231987175000168916200163100    000033594                    000335940000000000000109                     I0133594     10011900000000500003410000017N171218104700000000000101001190000000000000000000000000000000000000000100005932478764GABRIEL HAUSSMAM DA SILVA               RUA B                                   SANTO AGOSTI00000000VOLTA REDONDA  RJUNIAO UMB DOS CULTOS AFRO BRAS    10011910 000006
10231987175000168916200163100    000033593                    000335930000000000000109                     I0133593     28121800000000350003410000017N171218104700000000000102812180000000000000000000000000000000000000000100010988939720JEANETTE SALGADO DE OLIVEIRA            RUA DOUTOR MANUEL MARREIROS             BANCARIOS - 21910082RIO DE JANEIRO RJUNIAO UMB DOS CULTOS AFRO BRAS    28121810 000007
10231987175000168916200163100    000033592                    000335920000000000000109                     I0133592     31011900000000350003410000017N171218104700000000000103101190000000000000000000000000000000000000000100061143766768RITA CRISTINA BENJAMIN CORREA           RUA ROSEO FONTES                        SANTA DALILA25921000MAGE           RJUNIAO UMB DOS CULTOS AFRO BRAS    31011910 000008
10231987175000168916200163100    000033589                    000335890000000000000109                     I0133589     20121800000000350003410000017N171218104700000000000102012180000000000000000000000000000000000000000100007809244795DANIELI LUNA DOS SANTOS                 RUA ITUMBIARA                           IPATINGA - C23093410RIO DE JANEIRO RJUNIAO UMB DOS CULTOS AFRO BRAS    20121810 000009
10231987175000168916200163100    000033588                    000335880000000000000109                     I0133588     31121800000000245003410000017N171218104700000000000103112180000000000000000000000000000000000000000100012113754711ANDREZA SALDANHA DA CRUZ                RUA ANA APARICIO                        NOVA EUDORAD26125550BELFORD ROXO   RJUNIAO UMB DOS CULTOS AFRO BRAS    31121810 000010
10231987175000168916200163100    000033587                    000335870000000000000109                     I0233587     31121800000000280003410000017N171218104700000000000103112180000000000000000000000000000000000000000100012113754711ANDREZA SALDANHA DA CRUZ                RUA ANA APARICIO                        NOVA EUDORAD26125550BELFORD ROXO   RJUNIAO UMB DOS CULTOS AFRO BRAS    31121810 000011
10231987175000168916200163100    000033586                    000335860000000000000109                     I0133586     20121800000000105003410000017N171218104700000000000102012180000000000000000000000000000000000000000100009416663794IGOR DO NASCIMENTO RODRIGUES            RUA FIGUEIREDO ROCHA                    VIGARIO GERA21240660RIO DE JANEIRO RJUNIAO UMB DOS CULTOS AFRO BRAS    20121810 000012
10231987175000168916200163100    000033585                    000335850000000000000109                     I0133585     04011900000000350003410000017N171218104700000000000100401190000000000000000000000000000000000000000100018627919704JORGE CAILLEAUX COSTA                   RUA VINTE E UM                          CAMPO LINDO 23850190SEROPEDICA     RJUNIAO UMB DOS CULTOS AFRO BRAS    04011910 000013
10231987175000168916200163100    000033584                    000335840000000000000109                     I0133584     31121800000000070003410000017N171218104700000000000103112180000000000000000000000000000000000000000100054770122772EDUARDO DOS SANTOS REIS NETO            RUA BURITI                              MADUREIRA   20231046RIO DE JANEIRO RJUNIAO UMB DOS CULTOS AFRO BRAS    31121810 000014
10231987175000168916200163100    000033583                    000335830000000000000109                     I0133583     30121800000000160003410000017N171218104700000000000103012180000000000000000000000000000000000000000100033927499749JORGE CARDOSO DE MACEDO                 RUA G                                   GRANJA SANTA25900000MAGE           RJUNIAO UMB DOS CULTOS AFRO BRAS    30121810 000015
10231987175000168916200163100    000033582                    000335820000000000000109                     I0133582     08011900000000100003410000017N151218104700000000000100801190000000000000000000000000000000000000000100005646881773DEBORA LINS                             RUA LACONIA                             JARDIM AMAPA26182230BELFORD ROXO   RJUNIAO UMB DOS CULTOS AFRO BRAS    08011910 000016
10231987175000168916200163100    000028731                    000287310000000000000109                     I0228731     30111800000000040003410000017N110918104700000000000103011180000000000000000000000000000000000000000100014165634743GLAUBER VINICIUS DE ALMEIDA BA          RUA SAO CARLOS                          ESTACIO     20250052RIO DE JANEIRO RJUNIAO UMB DOS CULTOS AFRO BRAS    30111810 000017
10231987175000168916200163100    000028730                    000287300000000000000109                     I0228730     30101800000000040003410000017N110918104700000000000103010180000000000000000000000000000000000000000100014165634743GLAUBER VINICIUS DE ALMEIDA BA          RUA SAO CARLOS                          ESTACIO     20250052RIO DE JANEIRO RJUNIAO UMB DOS CULTOS AFRO BRAS    30101810 000018
9                                                                                                                                                                                                                                                                                                                                                                                                         000019
