01REMESSA01COBRANCA       916200163100        União Umb dos Cultos Afro Bra341BANCO ITAU SA  060819                                                                                                                                                                                                                                                                                                      000001
10231987175000168916200163100    000054000                    000540000000000000000109                     I0154000     30091900000000040003410000017N060819105700000000000133009190000000000000000000000000000000000000000100013222358729AMANDA PAULA TORRES DE SOUZA            RUA JOAO VICENTEN 261,                  MADUREIRA   21340020RIO DE JANEIRO RJUNIAO UMB DOS CULTOS AFRO BRAS    30091915 000002
21300920190000000000080                                                                                                                                                                                                                                                                                                                                                                                   000003
10231987175000168916200163100    000053999                    000539990000000000000109                     I0153999     30081900000000040003410000017N060819105700000000000133008190000000000000000000000000000000000000000100013222358729AMANDA PAULA TORRES DE SOUZA            RUA JOAO VICENTEN 261,                  MADUREIRA   21340020RIO DE JANEIRO RJUNIAO UMB DOS CULTOS AFRO BRAS    30081915 000004
21300820190000000000080                                                                                                                                                                                                                                                                                                                                                                                   000005
10231987175000168916200163100    000053998                    000539980000000000000109                     I0153998     09081900000000040003410000017N060819105700000000000130908190000000000000000000000000000000000000000100013222358729AMANDA PAULA TORRES DE SOUZA            RUA JOAO VICENTEN 261,                  MADUREIRA   21340020RIO DE JANEIRO RJUNIAO UMB DOS CULTOS AFRO BRAS    09081915 000006
21090820190000000000080                                                                                                                                                                                                                                                                                                                                                                                   000007
10231987175000168916200163100    000053997                    000539970000000000000109                     I0153997     30091900000000040003410000017N060819105700000000000133009190000000000000000000000000000000000000000100008702886790MATHEUS FAUSTINO                        RUA CLARIMUNDO DE MELON 723,            PIEDADE     20740320RIO DE JANEIRO RJUNIAO UMB DOS CULTOS AFRO BRAS    30091915 000008
21300920190000000000080                                                                                                                                                                                                                                                                                                                                                                                   000009
10231987175000168916200163100    000043974                    000439740000000000000109                     I0243974     30061900000000040003410000017N130319105700000000000133006190000000000000000000000000000000000000000100005243182710JACIRA HELENA MAURICIO ARRUDA           AVENIDA TENENTE REBELON 531, APT 104    IRAJA       21230075RIO DE JANEIRO RJUNIAO UMB DOS CULTOS AFRO BRAS    30061915 000010
21300620190000000000080                                                                                                                                                                                                                                                                                                                                                                                   000011
9                                                                                                                                                                                                                                                                                                                                                                                                         000012
