01REMESSA01COBRANCA       916200163100        União Umb dos Cultos Afro Bra341BANCO ITAU SA  010819                                                                                                                                                                                                                                                                                                      000001
10231987175000168916200163100    000050015                    000500150000000000000109                     I0150015     30091900000000040003410000017N010819105700000000000133009190000000000000000000000000000000000000000100012959879708KATIELMA MURTA DE MELO                  CAMINHO DO MACACON 0, LOTE 2 QUADRA U   SAO JORGE   26160220BELFORD ROXO   RJUNIAO UMB DOS CULTOS AFRO BRAS    30091915 000002
21300920190000000000080                                                                                                                                                                                                                                                                                                                                                                                   000003
10231987175000168916200163100    000050014                    000500140000000000000109                     I0150014     30081900000000040003410000017N010819105700000000000133008190000000000000000000000000000000000000000100012959879708KATIELMA MURTA DE MELO                  CAMINHO DO MACACON 0, LOTE 2 QUADRA U   SAO JORGE   26160220BELFORD ROXO   RJUNIAO UMB DOS CULTOS AFRO BRAS    30081915 000004
21300820190000000000080                                                                                                                                                                                                                                                                                                                                                                                   000005
10231987175000168916200163100    000050013                    000500130000000000000109                     I0150013     30091900000000040003410000017N010819105700000000000133009190000000000000000000000000000000000000000100060840501749MARGARIDA MARIA DE SOUZA DOS P          RUA VASSOURASN 520, CASA 4              JARDIM MARIL28896010RIO DAS OSTRAS RJUNIAO UMB DOS CULTOS AFRO BRAS    30091915 000006
21300920190000000000080                                                                                                                                                                                                                                                                                                                                                                                   000007
10231987175000168916200163100    000050012                    000500120000000000000109                     I0150012     30081900000000040003410000017N010819105700000000000133008190000000000000000000000000000000000000000100060840501749MARGARIDA MARIA DE SOUZA DOS P          RUA VASSOURASN 520, CASA 4              JARDIM MARIL28896010RIO DAS OSTRAS RJUNIAO UMB DOS CULTOS AFRO BRAS    30081915 000008
21300820190000000000080                                                                                                                                                                                                                                                                                                                                                                                   000009
10231987175000168916200163100    000050011                    000500110000000000000109                     I0150011     30091900000000040003410000017N010819105700000000000133009190000000000000000000000000000000000000000100095121595700LAZARO DOMINGOS DOS SANTOS              AVENIDA BARAO DE TINGUAN 213,           PARQUE ESTOR26062310NOVA IGUACU    RJUNIAO UMB DOS CULTOS AFRO BRAS    30091915 000010
21300920190000000000080                                                                                                                                                                                                                                                                                                                                                                                   000011
10231987175000168916200163100    000050010                    000500100000000000000109                     I0150010     30081900000000040003410000017N010819105700000000000133008190000000000000000000000000000000000000000100095121595700LAZARO DOMINGOS DOS SANTOS              AVENIDA BARAO DE TINGUAN 213,           PARQUE ESTOR26062310NOVA IGUACU    RJUNIAO UMB DOS CULTOS AFRO BRAS    30081915 000012
21300820190000000000080                                                                                                                                                                                                                                                                                                                                                                                   000013
10231987175000168916200163100    000050009                    000500090000000000000109                     I0150009     30091900000000040003410000017N010819105700000000000133009190000000000000000000000000000000000000000100009159447745INGRIS CRISTINA FARIAS DOS SAN          RUA MANUEL CORREIAN 166, FUNDOS         PIEDADE     21381400RIO DE JANEIRO RJUNIAO UMB DOS CULTOS AFRO BRAS    30091915 000014
21300920190000000000080                                                                                                                                                                                                                                                                                                                                                                                   000015
10231987175000168916200163100    000049740                    000497400000000000000109                     I0249740     25061900000000080003410000017N170619105700000000000262506190000000000000000000000000000000000000000100051851229787MARTA DO NASCIMENTO CRISPINO            RUA LEONOR SARAMAGON 89,                FONSECA     24120340NITEROI        RJUNIAO UMB DOS CULTOS AFRO BRAS    25061915 000016
21250620190000000000160                                                                                                                                                                                                                                                                                                                                                                                   000017
10231987175000168916200163100    000049739                    000497390000000000000109                     I0249739     25061900000000040003410000017N170619105700000000000132506190000000000000000000000000000000000000000100051851229787MARTA DO NASCIMENTO CRISPINO            RUA LEONOR SARAMAGON 89,                FONSECA     24120340NITEROI        RJUNIAO UMB DOS CULTOS AFRO BRAS    25061915 000018
21250620190000000000080                                                                                                                                                                                                                                                                                                                                                                                   000019
10231987175000168916200163100    000049722                    000497220000000000000109                     I0249722     19061900000000080003410000017N130619105700000000000261906190000000000000000000000000000000000000000100029759030730JOSE ROBERTO MELLO COIMBRA              RUA SALVADOR SABATEN 311,               REALENGO    21760020RIO DE JANEIRO RJUNIAO UMB DOS CULTOS AFRO BRAS    19061915 000020
21190620190000000000160                                                                                                                                                                                                                                                                                                                                                                                   000021
10231987175000168916200163100    000044606                    000446060000000000000109                     I0244606     30061900000000040003410000017N130319105700000000000133006190000000000000000000000000000000000000000100009491065777VIVIAN LUIZA FREITAS DE AGUIAR          RUA ITAPETININGAN 520,                  VICENTE DE C21370680RIO DE JANEIRO RJUNIAO UMB DOS CULTOS AFRO BRAS    30061915 000022
21300620190000000000080                                                                                                                                                                                                                                                                                                                                                                                   000023
10231987175000168916200163100    000044577                    000445770000000000000109                     I0244577     30061900000000040003410000017N130319105700000000000133006190000000000000000000000000000000000000000100016424589880LUIZ CARLOS BRITO                       RUA LIBERDADEN 368,                     CIDADE JARDI26063230NOVA IGUACU    RJUNIAO UMB DOS CULTOS AFRO BRAS    30061915 000024
21300620190000000000080                                                                                                                                                                                                                                                                                                                                                                                   000025
10231987175000168916200163100    000043490                    000434900000000000000109                     I0243490     30061900000000040003410000017N130319105700000000000133006190000000000000000000000000000000000000000100001050327780MARIA LUCIA DE FATIMA FERREIRA          RUA BUDAPESTEN 172, CASA 2              FREGUESIA (I21911300RIO DE JANEIRO RJUNIAO UMB DOS CULTOS AFRO BRAS    30061915 000026
21300620190000000000080                                                                                                                                                                                                                                                                                                                                                                                   000027
9                                                                                                                                                                                                                                                                                                                                                                                                         000028
