01REMESSA01COBRANCA       916200163100        União Umb dos Cultos Afro Bra341BANCO ITAU SA  190219                                                                                                                                                                                                                                                                                                      000001
10231987175000168916200163100    000039434                    000394340000000000000109                     I0239434     04011900000000350003410000017N020119104700000000000100401190000000000000000000000000000000000000000100003606187742WANDERLUCE GOMES DA SILVA               RUA QN 0, LOTE 16 17 QUADRA 60          JARDIM ANHAN25264460DUQUE DE CAXIASRJUNIAO UMB DOS CULTOS AFRO BRAS    04011910 000002
9                                                                                                                                                                                                                                                                                                                                                                                                         000003
