01REMESSA01COBRANCA       817800093673        União Umb dos Cultos Afro Bra341BANCO ITAU SA  190118                                                                                                                                                                                                                                                                                                      000001
10231987175000168817800093673    00005948                     000059480000000000000109                     I015948      31011800000000035003410000017N261217104700000000000103101180000000000000000000000000000000000000000100068374208791ROSANA LISBOA DE OLIVEIRA               RUA TEOFILO DIAS LOTE 7 QUADRA 47       PILAR - DUQU25233239DUQUE DE CAXIASRJUNIAO UMB DOS CULTOS AFRO BRAS    31011810 000002
10231987175000168817800093673    00005947                     000059470000000000000109                     I015947      31011800000000035003410000017N261217104700000000000103101180000000000000000000000000000000000000000100014760475702DEBORAH ROSA                            RUA MARIA LOURENCO GONCALVES N 18 CASA 2JARDIM PRIMA25215367DUQUE DE CAXIASRJUNIAO UMB DOS CULTOS AFRO BRAS    31011810 000003
10231987175000168817800093673    00005946                     000059460000000000000109                     I015946      31011800000000035003410000017N261217104700000000000103101180000000000000000000000000000000000000000100054336481768PENHA JACIARA DA SILVA                  RUA DEZESSETE N 102 (CONJUNTO LIBERDADE)SANTA CRUZ -23560600RIO DE JANEIRO RJUNIAO UMB DOS CULTOS AFRO BRAS    31011810 000004
10231987175000168817800093673    00005945                     000059450000000000000109                     I015945      31011800000000035003410000017N261217104700000000000103101180000000000000000000000000000000000000000100004419977752GISELE DE CASTILHO SOARES               RUA ARTHUR MAGALHAES N 64               COMENDADOR S26276605NOVA IGUACU    RJUNIAO UMB DOS CULTOS AFRO BRAS    31011810 000005
10231987175000168817800093673    00005944                     000059440000000000000109                     I015944      31011800000000035003410000017N261217104700000000000103101180000000000000000000000000000000000000000100006027343710SUELI REIS DIAS DA SILVA                RUA TAPAJOS N 50                        OURO VERDE -26262480NOVA IGUACU    RJUNIAO UMB DOS CULTOS AFRO BRAS    31011810 000006
10231987175000168817800093673    00005943                     000059430000000000000109                     I015943      31011800000000035003410000017N261217104700000000000103101180000000000000000000000000000000000000000100055480730797TEREZINHA DE JESUS FERRAZ DOS           RUA TUPINAMBA N 305 - OURO VERDE        OURO VERDE -26262490NOVA IGUACU    RJUNIAO UMB DOS CULTOS AFRO BRAS    31011810 000007
10231987175000168817800093673    00005942                     000059420000000000000109                     I015942      31011800000000035003410000017N261217104700000000000103101180000000000000000000000000000000000000000100056381832720DAVI LEMOS MOREIRA                      RUA CARLINDA                            VILA DE CAVA26052120NOVA IGUACU    RJUNIAO UMB DOS CULTOS AFRO BRAS    31011810 000008
10231987175000168817800093673    00005941                     000059410000000000000109                     I015941      31011800000000035003410000017N261217104700000000000103101180000000000000000000000000000000000000000100000889136785EDENILSON DE SOUZA SILVA                RUA GUARACIABA N 210 FUNDOS             CAMPO GRANDE23070420RIO DE JANEIRO RJUNIAO UMB DOS CULTOS AFRO BRAS    31011810 000009
10231987175000168817800093673    00005940                     000059400000000000000109                     I015940      31011800000000035003410000017N261217104700000000000103101180000000000000000000000000000000000000000100025814712149JAIR FERREIRA FILHO                     RUA ENGENHEIRO PINHO DE MAGALHAES N 70  VILA DA PENH21220410RIO DE JANEIRO RJUNIAO UMB DOS CULTOS AFRO BRAS    31011810 000010
10231987175000168817800093673    00005939                     000059390000000000000109                     I015939      31011800000000035003410000017N261217104700000000000103101180000000000000000000000000000000000000000100000915013770ROSANGELA DAS NEVES RESENDE DO          RUA GOIANESIA LOTE 23 QUADRA 101        MARAMBAIA - 24859300ITABORAI       RJUNIAO UMB DOS CULTOS AFRO BRAS    31011810 000011
10231987175000168817800093673    00005938                     000059380000000000000109                     I015938      31011800000000035003410000017N261217104700000000000103101180000000000000000000000000000000000000000100005411763746MONICA CRUZ DE OLIVEIRA                 AVENIDA JOAO XXIII - RUA QUATORZE QUADRASANTA CRUZ -23565110RIO DE JANEIRO RJUNIAO UMB DOS CULTOS AFRO BRAS    31011810 000012
9                                                                                                                                                                                                                                                                                                                                                                                                         000013
