01REMESSA01COBRANCA       817800093673        União Umb dos Cultos Afro Bra341BANCO ITAU SA  160419                                                                                                                                                                                                                                                                                                      000001
10231987175000168817800093673    000045069                    000450690000000000000109                     I0145069     26041900000000200003410000017N160419105700000000000102604190000000000000000000000000000000000000000100003250570796VERONICA LUCIA DA CRUZ                  ESTRADA DOUTOR FARRULAN 0, LOTE 8 QUADRASAO FRANCISC26125400BELFORD ROXO   RJUNIAO UMB DOS CULTOS AFRO BRAS    26041915 000002
10231987175000168817800093673    000045068                    000450680000000000000109                     I0145068     30061900000000040003410000017N160419105700000000000103006190000000000000000000000000000000000000000100005851795735JOAO LUIZ DE OLIVEIRA MAGALHAE          RUA ANTONIO CARLOS PARANHOSN 29,        VILA VALQUEI21321340RIO DE JANEIRO RJUNIAO UMB DOS CULTOS AFRO BRAS    30061915 000003
10231987175000168817800093673    000045067                    000450670000000000000109                     I0145067     30061900000000040003410000017N160419105700000000000103006190000000000000000000000000000000000000000100093331576700MARILENE CARTAXO ANTONIO                AVENIDA DOMINGOS VIEIRA MUNIZN 13, LOJA CAMPO GRANDE23090680RIO DE JANEIRO RJUNIAO UMB DOS CULTOS AFRO BRAS    30061915 000004
10231987175000168817800093673    000045066                    000450660000000000000109                     I0145066     30051900000000040003410000017N160419105700000000000103005190000000000000000000000000000000000000000100093331576700MARILENE CARTAXO ANTONIO                AVENIDA DOMINGOS VIEIRA MUNIZN 13, LOJA CAMPO GRANDE23090680RIO DE JANEIRO RJUNIAO UMB DOS CULTOS AFRO BRAS    30051915 000005
10231987175000168817800093673    000045065                    000450650000000000000109                     I0145065     28061900000000040003410000017N160419105700000000000102806190000000000000000000000000000000000000000100038206480706MARIA ANGELA PACHECO DE SOUSA           RUA CONCEICAO MARIA PEREIRAN 11, QUADRA CAMPO LINDO 23898255SEROPEDICA     RJUNIAO UMB DOS CULTOS AFRO BRAS    28061915 000006
10231987175000168817800093673    000045064                    000450640000000000000109                     I0145064     31051900000000040003410000017N160419105700000000000103105190000000000000000000000000000000000000000100038206480706MARIA ANGELA PACHECO DE SOUSA           RUA CONCEICAO MARIA PEREIRAN 11, QUADRA CAMPO LINDO 23898255SEROPEDICA     RJUNIAO UMB DOS CULTOS AFRO BRAS    31051915 000007
10231987175000168817800093673    000045063                    000450630000000000000109                     I0145063     30061900000000040003410000017N160419105700000000000103006190000000000000000000000000000000000000000100074878360704KATIA MARIA DA SILVA PINTO              RUA BARBOSA RODRIGUESN 23,              ENGENHEIRO L21370160RIO DE JANEIRO RJUNIAO UMB DOS CULTOS AFRO BRAS    30061915 000008
10231987175000168817800093673    000045062                    000450620000000000000109                     I0145062     30051900000000040003410000017N160419105700000000000103005190000000000000000000000000000000000000000100074878360704KATIA MARIA DA SILVA PINTO              RUA BARBOSA RODRIGUESN 23,              ENGENHEIRO L21370160RIO DE JANEIRO RJUNIAO UMB DOS CULTOS AFRO BRAS    30051915 000009
10231987175000168817800093673    000045061                    000450610000000000000109                     I0145061     30041900000000400003410000017N150419105700000000000103004190000000000000000000000000000000000000000100040664325734GENI BARBOSA ROCHA DA SILVA             TRAVESSA DA AMIZADEN 34, APT 602        VILA DA PENH25268020RIO DE JANEIRO RJUNIAO UMB DOS CULTOS AFRO BRAS    30041915 000010
10231987175000168817800093673    000045060                    000450600000000000000109                     I0145060     25041900000000400003410000017N150419105700000000000102504190000000000000000000000000000000000000000100011639602763PAULO HUMBERTO AZEVEDO PONTE J          AVENIDA: MARECHAL RONDONN 1037, SOBRADO SAO FRANCISC20950003RIO DE JANEIRO RJUNIAO UMB DOS CULTOS AFRO BRAS    25041915 000011
10231987175000168817800093673    000045057                    000450570000000000000109                     I0145057     17041900000000040003410000017N120419105700000000000101704190000000000000000000000000000000000000000221568459000166ABASSA D OYA BALE                       RUA JOAO AUGUSTO PAIVAN 45,             JARDINS     23890049SEROPEDICA     RJUNIAO UMB DOS CULTOS AFRO BRAS    17041915 000012
10231987175000168817800093673    000039794                    000397940000000000000109                     I0239794     28021900000000400003410000017N150219105700000000000102802190000000000000000000000000000000000000000100011639602763PAULO HUMBERTO AZEVEDO PONTE J          AVENIDA: MARECHAL RONDONN 1037, SOBRADO SAO FRANCISC20950003RIO DE JANEIRO RJUNIAO UMB DOS CULTOS AFRO BRAS    28021915 000013
10231987175000168817800093673    000039382                    000393820000000000000109                     I0239382     31031900000000040003410000017N261218105700000000000103103190000000000000000000000000000000000000000100000695677720MARIA DE LOURDES SILVA                  RUA ROCHA LIMAN 0, LOTE 6 QUADRA 27     SANTA RITA  26050512NOVA IGUACU    RJUNIAO UMB DOS CULTOS AFRO BRAS    31031915 000014
10231987175000168817800093673    000039381                    000393810000000000000109                     I0239381     28021900000000040003410000017N261218105700000000000102802190000000000000000000000000000000000000000100000695677720MARIA DE LOURDES SILVA                  RUA ROCHA LIMAN 0, LOTE 6 QUADRA 27     SANTA RITA  26050512NOVA IGUACU    RJUNIAO UMB DOS CULTOS AFRO BRAS    28021915 000015
10231987175000168817800093673    000039134                    000391340000000000000109                     I0239134     30031900000000040003410000017N261218105700000000000103003190000000000000000000000000000000000000000100040664325734GENI BARBOSA ROCHA DA SILVA             TRAVESSA DA AMIZADEN 34, APT 602        VILA DA PENH25268020RIO DE JANEIRO RJUNIAO UMB DOS CULTOS AFRO BRAS    30031915 000016
10231987175000168817800093673    000039099                    000390990000000000000109                     I0239099     30031900000000040003410000017N261218105700000000000103003190000000000000000000000000000000000000000100076994511715MARIA DAS GRACAS SANTOS DA SIL          RUA GOMES CARNEIRO N 0, LT 29 QD 39     SARACURUNA  25211050DUQUE DE CAXIASRJUNIAO UMB DOS CULTOS AFRO BRAS    30031915 000017
10231987175000168817800093673    000038891                    000388910000000000000109                     I0238891     30031900000000040003410000017N261218105700000000000103003190000000000000000000000000000000000000000100002415896730ROSIELMA SANTOS SOUZA                   RUA MONDEGON 78,                        RICARDO DE A21665130RIO DE JANEIRO RJUNIAO UMB DOS CULTOS AFRO BRAS    30031915 000018
10231987175000168817800093673    000038809                    000388090000000000000109                     I0238809     30031900000000040003410000017N261218105700000000000103003190000000000000000000000000000000000000000100037433288791VERA LUCIA COSTA MOACYR                 RUA JOANA KALIL N 0, LT 6 QD 51         JARDIM MERIT25555100SAO JOAO DE MERRJUNIAO UMB DOS CULTOS AFRO BRAS    30031915 000019
10231987175000168817800093673    000038319                    000383190000000000000109                     I0238319     30031900000000040003410000017N261218105700000000000103003190000000000000000000000000000000000000000100004462221788ALEXSANDRO JULIO DE SOUZA               RUA CORURIPEN 410,                      MARECHAL HER21555490RIO DE JANEIRO RJUNIAO UMB DOS CULTOS AFRO BRAS    30031915 000020
10231987175000168817800093673    000038269                    000382690000000000000109                     I0238269     30031900000000040003410000017N261218105700000000000103003190000000000000000000000000000000000000000221568459000166ABASSA D OYA BALE                       RUA JOAO AUGUSTO PAIVAN 45,             JARDINS     23890049SEROPEDICA     RJUNIAO UMB DOS CULTOS AFRO BRAS    30031915 000021
10231987175000168817800093673    000037894                    000378940000000000000109                     I0237894     30031900000000040003410000017N261218105700000000000103003190000000000000000000000000000000000000000100000009434798CELSO LINS ROSA                         RUA LAGEADON 70,                        COLEGIO     21540680RIO DE JANEIRO RJUNIAO UMB DOS CULTOS AFRO BRAS    30031915 000022
10231987175000168817800093673    000037892                    000378920000000000000109                     I0237892     30031900000000040003410000017N261218105700000000000103003190000000000000000000000000000000000000000100001050327780MARIA LUCIA DE FATIMA FERREIRA          RUA BUDAPESTEN 172, CASA 2              BANCARIOS - 21911300RIO DE JANEIRO RJUNIAO UMB DOS CULTOS AFRO BRAS    30031915 000023
10231987175000168817800093673    000037464                    000374640000000000000109                     I0237464     30031900000000040003410000017N261218105700000000000103003190000000000000000000000000000000000000000100000000000000CACILDA AQUINO DOS SANTOS               RUA CATULO CEARENSEN 119,               ENGENHO DE D20730320RIO DE JANEIRO RJUNIAO UMB DOS CULTOS AFRO BRAS    30031915 000024
10231987175000168817800093673    000037215                    000372150000000000000109                     I0237215     28021900000000040003410000017N261218105700000000000102802190000000000000000000000000000000000000000100040664325734GENI BARBOSA ROCHA DA SILVA             TRAVESSA DA AMIZADEN 34, APT 602        VILA DA PENH25268020RIO DE JANEIRO RJUNIAO UMB DOS CULTOS AFRO BRAS    28021915 000025
10231987175000168817800093673    000037180                    000371800000000000000109                     I0237180     28021900000000040003410000017N261218105700000000000102802190000000000000000000000000000000000000000100076994511715MARIA DAS GRACAS SANTOS DA SIL          RUA GOMES CARNEIRO N 0, LT 29 QD 39     SARACURUNA  25211050DUQUE DE CAXIASRJUNIAO UMB DOS CULTOS AFRO BRAS    28021915 000026
10231987175000168817800093673    000036890                    000368900000000000000109                     I0236890     28021900000000040003410000017N261218105700000000000102802190000000000000000000000000000000000000000100037433288791VERA LUCIA COSTA MOACYR                 RUA JOANA KALIL N 0, LT 6 QD 51         JARDIM MERIT25555100SAO JOAO DE MERRJUNIAO UMB DOS CULTOS AFRO BRAS    28021915 000027
10231987175000168817800093673    000036403                    000364030000000000000109                     I0236403     28021900000000040003410000017N261218105700000000000102802190000000000000000000000000000000000000000100004462221788ALEXSANDRO JULIO DE SOUZA               RUA CORURIPEN 410,                      MARECHAL HER21555490RIO DE JANEIRO RJUNIAO UMB DOS CULTOS AFRO BRAS    28021915 000028
10231987175000168817800093673    000035979                    000359790000000000000109                     I0235979     28021900000000040003410000017N261218105700000000000102802190000000000000000000000000000000000000000100000009434798CELSO LINS ROSA                         RUA LAGEADON 70,                        COLEGIO     21540680RIO DE JANEIRO RJUNIAO UMB DOS CULTOS AFRO BRAS    28021915 000029
10231987175000168817800093673    000035977                    000359770000000000000109                     I0235977     28021900000000040003410000017N261218105700000000000102802190000000000000000000000000000000000000000100001050327780MARIA LUCIA DE FATIMA FERREIRA          RUA BUDAPESTEN 172, CASA 2              BANCARIOS - 21911300RIO DE JANEIRO RJUNIAO UMB DOS CULTOS AFRO BRAS    28021915 000030
10231987175000168817800093673    000035873                    000358730000000000000109                     I0235873     28021900000000040003410000017N261218105700000000000102802190000000000000000000000000000000000000000100023768649768SONIA MARIA DA SILVA DELLIVENE          AVENIDA PLINIO GOMES DE MATOS FILHON 278VARZEA DAS M24330430NITEROI        RJUNIAO UMB DOS CULTOS AFRO BRAS    28021915 000031
10231987175000168817800093673    000035552                    000355520000000000000109                     I0235552     28021900000000040003410000017N261218105700000000000102802190000000000000000000000000000000000000000100000000000000CACILDA AQUINO DOS SANTOS               RUA CATULO CEARENSEN 119,               ENGENHO DE D20730320RIO DE JANEIRO RJUNIAO UMB DOS CULTOS AFRO BRAS    28021915 000032
9                                                                                                                                                                                                                                                                                                                                                                                                         000033
