01REMESSA01COBRANCA       817800093673        União Umb dos Cultos Afro Bra341BANCO ITAU SA  301018                                                                                                                                                                                                                                                                                                      000001
10231987175000168817800093673    000033330                    000333300000000000000109                     I0133330     12111800000000245003410000017N301018104700000000000101211180000000000000000000000000000000000000000100059135085720CELIA MARINHO VIEIRA                    RUA MARICOABO                           PEDRA DE GUA23028290RIO DE JANEIRO RJUNIAO UMB DOS CULTOS AFRO BRAS    12111810 000002
10231987175000168817800093673    000033329                    000333290000000000000109                     I0133329     15111800000000035003410000017N301018104700000000000101511180000000000000000000000000000000000000000100030995980820JOSE ANACLETO DE LIMA                   RUA FREDI EMANUEL                       JARDIM JASMI26265110NOVA IGUACU    RJUNIAO UMB DOS CULTOS AFRO BRAS    15111810 000003
10231987175000168817800093673    000033328                    000333280000000000000109                     I0133328     05111800000000175003410000017N301018104700000000000100511180000000000000000000000000000000000000000100005529010750JOELMA MELO DA SILVA                    RUA DIONIZIO RIBEIRO CHAVES             ANAIA - SANT24737660SAO GONCALO    RJUNIAO UMB DOS CULTOS AFRO BRAS    05111810 000004
10231987175000168817800093673    000033327                    000333270000000000000109                     I3433327     20121800000000350003410000017N301018104700000000000102012180000000000000000000000000000000000000000100075852470791WAGNER LOPES BARBOSA                    RUA CARDOSO QUINTAO                     PIEDADE     21381460RIO DE JANEIRO RJUNIAO UMB DOS CULTOS AFRO BRAS    20121810 000005
10231987175000168817800093673    000033326                    000333260000000000000109                     I3433326     20121800000000040003410000017N301018104700000000000102012180000000000000000000000000000000000000000100075852470791WAGNER LOPES BARBOSA                    RUA CARDOSO QUINTAO                     PIEDADE     21381460RIO DE JANEIRO RJUNIAO UMB DOS CULTOS AFRO BRAS    20121810 000006
10231987175000168817800093673    000033325                    000333250000000000000109                     I3433325     30111800000000040003410000017N301018104700000000000103011180000000000000000000000000000000000000000100075852470791WAGNER LOPES BARBOSA                    RUA CARDOSO QUINTAO                     PIEDADE     21381460RIO DE JANEIRO RJUNIAO UMB DOS CULTOS AFRO BRAS    30111810 000007
10231987175000168817800093673    000033324                    000333240000000000000109                     I0133324     20121800000000380003410000017N301018104700000000000102012180000000000000000000000000000000000000000100088763765772VERONICA CECILIA DE AGUIAR              RUA LAURELINO FREIRE                    GUAXINDIBA  24722330SAO GONCALO    RJUNIAO UMB DOS CULTOS AFRO BRAS    20121810 000008
10231987175000168817800093673    000033323                    000333230000000000000109                     I0133323     20121800000000040003410000017N301018104700000000000102012180000000000000000000000000000000000000000100088763765772VERONICA CECILIA DE AGUIAR              RUA LAURELINO FREIRE                    GUAXINDIBA  24722330SAO GONCALO    RJUNIAO UMB DOS CULTOS AFRO BRAS    20121810 000009
10231987175000168817800093673    000033322                    000333220000000000000109                     I0133322     30111800000000040003410000017N301018104700000000000103011180000000000000000000000000000000000000000100088763765772VERONICA CECILIA DE AGUIAR              RUA LAURELINO FREIRE                    GUAXINDIBA  24722330SAO GONCALO    RJUNIAO UMB DOS CULTOS AFRO BRAS    30111810 000010
10231987175000168817800093673    000033321                    000333210000000000000109                     I0133321     20111800000000700003410000017N301018104700000000000102011180000000000000000000000000000000000000000100011418098779EDUARDO DA SILVA CARDOZO                AVENIDA: MARECHAL FONTENELLE            CAMPO DOS AF21740001RIO DE JANEIRO RJUNIAO UMB DOS CULTOS AFRO BRAS    20111810 000011
10231987175000168817800093673    000033320                    000333200000000000000109                     I0133320     20111800000000700003410000017N301018104700000000000102011180000000000000000000000000000000000000000100011570617708DANIEL DA SILVA PEREIRA                 O MESMO                                 O MESMO     27240360VOLTA REDONDA  RJUNIAO UMB DOS CULTOS AFRO BRAS    20111810 000012
10231987175000168817800093673    000033319                    000333190000000000000109                     I0233319     20111800000000500003410000017N301018104700000000000102011180000000000000000000000000000000000000000100003319281755GENILSON CAETANO DA SILVA               AVENIDA EDUARDO PACHECO VILENA          CORUMBA - AU26043130NOVA IGUACU    RJUNIAO UMB DOS CULTOS AFRO BRAS    20111810 000013
10231987175000168817800093673    000033318                    000333180000000000000109                     I0133318     30121800000000040003410000017N291018104700000000000103012180000000000000000000000000000000000000000100000840541740JUCIARA GONCALVES NEPOMUCENO            LOTEAMENTO DEZESSEIS                    GRAMA - MIGU26070000BELFORD ROXO   RJUNIAO UMB DOS CULTOS AFRO BRAS    30121810 000014
10231987175000168817800093673    000033317                    000333170000000000000109                     I0133317     30111800000000040003410000017N291018104700000000000103011180000000000000000000000000000000000000000100000840541740JUCIARA GONCALVES NEPOMUCENO            LOTEAMENTO DEZESSEIS                    GRAMA - MIGU26070000BELFORD ROXO   RJUNIAO UMB DOS CULTOS AFRO BRAS    30111810 000015
10231987175000168817800093673    000033316                    000333160000000000000109                     I0133316     20121800000000350003410000017N291018104700000000000102012180000000000000000000000000000000000000000100063658020725JUSSARA MAXIMO DIAS                     RUA: DO BOSQUE                          PACIENCIA   23065250RIO DE JANEIRO RJUNIAO UMB DOS CULTOS AFRO BRAS    20121810 000016
10231987175000168817800093673    000033315                    000333150000000000000109                     I0133315     20121800000000040003410000017N291018104700000000000102012180000000000000000000000000000000000000000100063658020725JUSSARA MAXIMO DIAS                     RUA: DO BOSQUE                          PACIENCIA   23065250RIO DE JANEIRO RJUNIAO UMB DOS CULTOS AFRO BRAS    20121810 000017
10231987175000168817800093673    000033314                    000333140000000000000109                     I0133314     30111800000000040003410000017N291018104700000000000103011180000000000000000000000000000000000000000100063658020725JUSSARA MAXIMO DIAS                     RUA: DO BOSQUE                          PACIENCIA   23065250RIO DE JANEIRO RJUNIAO UMB DOS CULTOS AFRO BRAS    30111810 000018
10231987175000168817800093673    000033308                    000333080000000000000109                     I0233308     20121800000000350003410000017N291018104700000000000102012180000000000000000000000000000000000000000100040557499704CARLOS ZOBERTO DA SILVA                 RUA GLAUCO                              PARQUE PAULI25261510DUQUE DE CAXIASRJUNIAO UMB DOS CULTOS AFRO BRAS    20121810 000019
10231987175000168817800093673    000033306                    000333060000000000000109                     I0233306     20121800000000400003410000017N291018104700000000000102012180000000000000000000000000000000000000000100004412553701ROGERIO LUIS SOUZA                      RUA D PROJETADA                         SANTA CRUZ  23550570RIO DE JANEIRO RJUNIAO UMB DOS CULTOS AFRO BRAS    20121810 000020
10231987175000168817800093673    000033302                    000333020000000000000109                     I0233302     20121800000000350003410000017N291018104700000000000102012180000000000000000000000000000000000000000100001558268758MARCO VALERIO RODRIGUES MONTEI          RUA JOAO CANDIDO                        VILA ROSALI 25510390RIO DE JANEIRO RJUNIAO UMB DOS CULTOS AFRO BRAS    20121810 000021
10231987175000168817800093673    000033282                    000332820000000000000109                     I0233282     20121800000000400003410000017N291018104700000000000102012180000000000000000000000000000000000000000100009079903110FLAVIO JANOVICCI                        RUA: REGENTE LIMA E SILVA               MARECHAL HER21610230RIO DE JANEIRO RJUNIAO UMB DOS CULTOS AFRO BRAS    20121810 000022
10231987175000168817800093673    000033281                    000332810000000000000109                     I0233281     20121800000000400003410000017N291018104700000000000102012180000000000000000000000000000000000000000100009937356490TARCISIO DE OLIVEIRA MELO               RUA: ALCIDES MAIA                       BENTO RIBEIR21550560RIO DE JANEIRO RJUNIAO UMB DOS CULTOS AFRO BRAS    20121810 000023
10231987175000168817800093673    000033260                    000332600000000000000109                     I0233260     20121800000000350003410000017N291018104700000000000102012180000000000000000000000000000000000000000100008888177701GUILHERME DE ALCANTARA SEABRA           RUA: IGARATA                            MARECHAL HER21000000RIO DE JANEIRO RJUNIAO UMB DOS CULTOS AFRO BRAS    20121810 000024
10231987175000168817800093673    000033240                    000332400000000000000109                     I0233240     20121800000000350003410000017N291018104700000000000102012180000000000000000000000000000000000000000100007368804708CARLOS HENRIQUE DE OLIVEIRA             RUA: SESSENTA E TRES                    CAMPO GRANDE23097240RIO DE JANEIRO RJUNIAO UMB DOS CULTOS AFRO BRAS    20121810 000025
10231987175000168817800093673    000033232                    000332320000000000000109                     I0233232     20121800000000350003410000017N291018104700000000000102012180000000000000000000000000000000000000000100010836647785FERNANDO DOS SANTOS DO NORTE            RUA: ITAPAGE                            JARDIM SAO G26381429QUEIMADOS      RJUNIAO UMB DOS CULTOS AFRO BRAS    20121810 000026
10231987175000168817800093673    000033200                    000332000000000000000109                     I0233200     20121800000000350003410000017N291018104700000000000102012180000000000000000000000000000000000000000100058691200715CLARICE ROSANE FELIPE CARNEIRO          RUA MARIA PAULINA BIVAR                 HONORIO GURG21511300RIO DE JANEIRO RJUNIAO UMB DOS CULTOS AFRO BRAS    20121810 000027
10231987175000168817800093673    000033190                    000331900000000000000109                     I0233190     20121800000000350003410000017N291018104700000000000102012180000000000000000000000000000000000000000100027503607734FRANCISCA DA ROCHA TORRES               RUA FERNANDES BASTOS                    IRAJA       21361550RIO DE JANEIRO RJUNIAO UMB DOS CULTOS AFRO BRAS    20121810 000028
10231987175000168817800093673    000033176                    000331760000000000000109                     I0233176     20121800000000350003410000017N291018104700000000000102012180000000000000000000000000000000000000000100009005281766ANDREA JOSE DO NASCIMENTO               RUA JUIZ DE FORA                        PARQUE SUECI25041025DUQUE DE CAXIASRJUNIAO UMB DOS CULTOS AFRO BRAS    20121810 000029
10231987175000168817800093673    000033158                    000331580000000000000109                     I0233158     20121800000000400003410000017N291018104700000000000102012180000000000000000000000000000000000000000100001253277737MARIA JOSE DANTAS MOREIRA               RUA SETE DE JUNHO                       PRAIA DE MAU25925732MAGE           RJUNIAO UMB DOS CULTOS AFRO BRAS    20121810 000030
10231987175000168817800093673    000033152                    000331520000000000000109                     I0233152     20121800000000350003410000017N291018104700000000000102012180000000000000000000000000000000000000000100080705774791MARIA FREITAS DOS SANTOS MACHA          RUA VINTE E QUATRO                      SEPETIBA    23570086RIO DE JANEIRO RJUNIAO UMB DOS CULTOS AFRO BRAS    20121810 000031
10231987175000168817800093673    000033133                    000331330000000000000109                     I0233133     20121800000000350003410000017N291018104700000000000102012180000000000000000000000000000000000000000100005953836708RODRIGO SANTOS DA SILVA                 RUA FLAMINIA                            PENHA CIRCUL21221240RIO DE JANEIRO RJUNIAO UMB DOS CULTOS AFRO BRAS    20121810 000032
10231987175000168817800093673    000033124                    000331240000000000000109                     I0233124     20121800000000350003410000017N291018104700000000000102012180000000000000000000000000000000000000000100074510266715ANA LUCIA DE ALMEIDA BURITY             ESTRADA: DA CAPOEIRA GRANDE             PEDRA DE GUA23026220RIO DE JANEIRO RJUNIAO UMB DOS CULTOS AFRO BRAS    20121810 000033
10231987175000168817800093673    000033120                    000331200000000000000109                     I0233120     20121800000000350003410000017N291018104700000000000102012180000000000000000000000000000000000000000100010154945790SIMONE DE OLIVEIRA CUNHA                RUA ONZE                                JARDIM ROTSE25270080DUQUE DE CAXIASRJUNIAO UMB DOS CULTOS AFRO BRAS    20121810 000034
10231987175000168817800093673    000033017                    000330170000000000000109                     I0233017     20121800000000350003410000017N291018104700000000000102012180000000000000000000000000000000000000000100016618405742MILTON CARLOS JUNIO QUINTANILH          RUA SEIS                                PARADA MORAB25265000DUQUE DE CAXIASRJUNIAO UMB DOS CULTOS AFRO BRAS    20121810 000035
10231987175000168817800093673    000033009                    000330090000000000000109                     I0233009     20121800000000350003410000017N291018104700000000000102012180000000000000000000000000000000000000000100065000366700DULCINEIA DA SILVA MENDONCA             RUA DAS ROSAS                           RANCHO FUNDO26041510NOVA IGUACU    RJUNIAO UMB DOS CULTOS AFRO BRAS    20121810 000036
10231987175000168817800093673    000032968                    000329680000000000000109                     I0232968     20121800000000350003410000017N291018104700000000000102012180000000000000000000000000000000000000000100045600697720CARMEM DE BARROS PIRES                  RUA CLAUDIA                             CANAA - COME26263060NOVA IGUACU    RJUNIAO UMB DOS CULTOS AFRO BRAS    20121810 000037
10231987175000168817800093673    000032962                    000329620000000000000109                     I0232962     20121800000000350003410000017N291018104700000000000102012180000000000000000000000000000000000000000100009713273605CAMILA EMANUELE DE ARAUJO CALD          RUA DAS PACAS                           TAMOIOS     28927000DUQUE DE CAXIASRJUNIAO UMB DOS CULTOS AFRO BRAS    20121810 000038
10231987175000168817800093673    000032940                    000329400000000000000109                     I0232940     20121800000000350003410000017N291018104700000000000102012180000000000000000000000000000000000000000100009906412798RONNEY NUNES POLI                       RUA NOVA HORIZONTE                      SEPETIBA    23540133RIO DE JANEIRO RJUNIAO UMB DOS CULTOS AFRO BRAS    20121810 000039
10231987175000168817800093673    000032932                    000329320000000000000109                     I0232932     20121800000000350003410000017N291018104700000000000102012180000000000000000000000000000000000000000100063692546734CARLOS LUIZ DA SILVA                    ESTRADA DE SEPETIBA                     SEPETIBA    23545003RIO DE JANEIRO RJUNIAO UMB DOS CULTOS AFRO BRAS    20121810 000040
10231987175000168817800093673    000032930                    000329300000000000000109                     I0232930     20121800000000350003410000017N291018104700000000000102012180000000000000000000000000000000000000000100043377483772FERNANDO HOLMES BURCHTEIN               RUA ALBANO                              MAUA        25926492MAGE           RJUNIAO UMB DOS CULTOS AFRO BRAS    20121810 000041
10231987175000168817800093673    000032922                    000329220000000000000109                     I0232922     20121800000000350003410000017N291018104700000000000102012180000000000000000000000000000000000000000100002596126770ANA CRISTINA DA CRUZ                    RUA BURITIZAL                           SEPETIBA    23545100RIO DE JANEIRO RJUNIAO UMB DOS CULTOS AFRO BRAS    20121810 000042
10231987175000168817800093673    000032917                    000329170000000000000109                     I0232917     20121800000000400003410000017N291018104700000000000102012180000000000000000000000000000000000000000100000150852797EDSON SENRA GOMES                       ESTRADA: OUTEIRO SANTO                  TAQUARA     22713170RIO DE JANEIRO RJUNIAO UMB DOS CULTOS AFRO BRAS    20121810 000043
10231987175000168817800093673    000032876                    000328760000000000000109                     I0232876     20121800000000400003410000017N291018104700000000000102012180000000000000000000000000000000000000000100085759600753VERALUCIA DE SOUZA                      RUA NELCINA                             JACAREPAGUA 22753043RIO DE JANEIRO RJUNIAO UMB DOS CULTOS AFRO BRAS    20121810 000044
10231987175000168817800093673    000032871                    000328710000000000000109                     I0232871     20121800000000350003410000017N291018104700000000000102012180000000000000000000000000000000000000000100007442503748SANDRO RICARDO DE OLIVEIRA              RUA LUIZ FERNANDO VITOR FILHO           SANTA CRUZ  00000000RIO DE JANEIRO RJUNIAO UMB DOS CULTOS AFRO BRAS    20121810 000045
10231987175000168817800093673    000032860                    000328600000000000000109                     I0232860     20121800000000400003410000017N291018104700000000000102012180000000000000000000000000000000000000000100001145945708JUREMA MARCIA FREITAS DE ASSIS          ESTRADA DO ENGENHO ROCADO               ENGENHO DO R24751605SAO GONCALO    RJUNIAO UMB DOS CULTOS AFRO BRAS    20121810 000046
10231987175000168817800093673    000032828                    000328280000000000000109                     I0232828     20121800000000350003410000017N291018104700000000000102012180000000000000000000000000000000000000000100007726251743ROSANGELA IZAURINA DOS SANTOS           RUA ESPERANCA                           TIRADENTES  11111111NOVA IGUACU    RJUNIAO UMB DOS CULTOS AFRO BRAS    20121810 000047
10231987175000168817800093673    000032806                    000328060000000000000109                     I0232806     20121800000000350003410000017N291018104700000000000102012180000000000000000000000000000000000000000100081882360710SHIRLEY PEREIRA ALVES DA COSTA          RUA OURINHOS                            PAVUNA      21525180RIO DE JANEIRO RJUNIAO UMB DOS CULTOS AFRO BRAS    20121810 000048
10231987175000168817800093673    000032786                    000327860000000000000109                     I0232786     20121800000000400003410000017N291018104700000000000102012180000000000000000000000000000000000000000100002384314793EVANICE DA SILVA                        ESTRADA SAO PEDRO DE ALCANTARA          MAGALHAES BA21735210RIO DE JANEIRO RJUNIAO UMB DOS CULTOS AFRO BRAS    20121810 000049
10231987175000168817800093673    000032779                    000327790000000000000109                     I0232779     20121800000000350003410000017N291018104700000000000102012180000000000000000000000000000000000000000100000000001257PAULO ANTONIO COELHO DA SILVA           RUA DOS FUNDOS                          VIZELA      04815093VIZELA         PTUNIAO UMB DOS CULTOS AFRO BRAS    20121810 000050
10231987175000168817800093673    000032759                    000327590000000000000109                     I0232759     20121800000000350003410000017N291018104700000000000102012180000000000000000000000000000000000000000100000000000000ANA ISABEL GARCIA RIBEIRO MART          RUA DACOUTADA                           BRAGA       04710243LOMAR          PTUNIAO UMB DOS CULTOS AFRO BRAS    20121810 000051
10231987175000168817800093673    000032716                    000327160000000000000109                     I0232716     20121800000000350003410000017N291018104700000000000102012180000000000000000000000000000000000000000100059588797791VERONICA FARIAS DA ROCHA                RUA DOMINGOS DE MAGALHAES               MARIA DA GRA20785353RIO DE JANEIRO RJUNIAO UMB DOS CULTOS AFRO BRAS    20121810 000052
10231987175000168817800093673    000032709                    000327090000000000000109                     I0232709     20121800000000350003410000017N291018104700000000000102012180000000000000000000000000000000000000000100009079674770FERNANDA DOS SANTOS SILVA               RUA JOAQUIM MANOEL DA ROCHA             TRES PONTES 24809254SAO GONCALO    RJUNIAO UMB DOS CULTOS AFRO BRAS    20121810 000053
10231987175000168817800093673    000032697                    000326970000000000000109                     I0232697     20121800000000350003410000017N291018104700000000000102012180000000000000000000000000000000000000000100068120141768SAMI JORGE DE JESUS                     AVENIDA SEIS                            TIJOLINHO   23545003NOVA SEPETIBA  RJUNIAO UMB DOS CULTOS AFRO BRAS    20121810 000054
10231987175000168817800093673    000032689                    000326890000000000000109                     I0232689     20121800000000350003410000017N291018104700000000000102012180000000000000000000000000000000000000000100064576469720ANA LUCIA VENANCIO                      RUA GRUPIARA                            IPIRANGA    26293426NOVA IGUACU    RJUNIAO UMB DOS CULTOS AFRO BRAS    20121810 000055
10231987175000168817800093673    000032682                    000326820000000000000109                     I0232682     20121800000000350003410000017N291018104700000000000102012180000000000000000000000000000000000000000100001794872728JORGE TEIXEIRA DE LIMA                  ESTRADA DO GUERENGUE                    CURICICA    22713001RIO DE JANEIRO RJUNIAO UMB DOS CULTOS AFRO BRAS    20121810 000056
10231987175000168817800093673    000032669                    000326690000000000000109                     I0232669     20121800000000350003410000017N291018104700000000000102012180000000000000000000000000000000000000000100039655172791JOSE CARLOS COSTA                       RUA HERTA                               MAUA        25900000MAGE           RJUNIAO UMB DOS CULTOS AFRO BRAS    20121810 000057
10231987175000168817800093673    000032658                    000326580000000000000109                     I0232658     20121800000000350003410000017N291018104700000000000102012180000000000000000000000000000000000000000100001804015725ZELIA CAMPOSO FURTADO                   RUA OURO BRANCO                         VILA VALQUEI21321560RIO DE JANEIRO RJUNIAO UMB DOS CULTOS AFRO BRAS    20121810 000058
10231987175000168817800093673    000032651                    000326510000000000000109                     I0232651     20121800000000350003410000017N291018104700000000000102012180000000000000000000000000000000000000000100016685778792PAMELA TAMIRIS DA SILVA CORDEI          RUA DO OURO                             INHOAIBA    23064140RIO DE JANEIRO RJUNIAO UMB DOS CULTOS AFRO BRAS    20121810 000059
10231987175000168817800093673    000032636                    000326360000000000000109                     I0232636     20121800000000350003410000017N291018104700000000000102012180000000000000000000000000000000000000000100000912311754PAULO HENRIQUE DA SILVA MOURA           RUA QUATI                               MIGUEL COUTO26060420NOVA IGUACU    RJUNIAO UMB DOS CULTOS AFRO BRAS    20121810 000060
10231987175000168817800093673    000032630                    000326300000000000000109                     I0232630     20121800000000350003410000017N291018104700000000000102012180000000000000000000000000000000000000000100004258540781HILTON CARLOS RIBEIRO                   AVENIDA MARECHAL FONTENELE              JARDIM SULAC21750001RIO DE JANEIRO RJUNIAO UMB DOS CULTOS AFRO BRAS    20121810 000061
10231987175000168817800093673    000032588                    000325880000000000000109                     I0232588     20121800000000400003410000017N291018104700000000000102012180000000000000000000000000000000000000000100003767602733LUCIANA MIRANDA RIBEIRO                 RUA DA CONSAGRACAO                      CURIACICA - 20765040RIO DE JANEIRO RJUNIAO UMB DOS CULTOS AFRO BRAS    20121810 000062
10231987175000168817800093673    000032559                    000325590000000000000109                     I0232559     20121800000000350003410000017N291018104700000000000102012180000000000000000000000000000000000000000100091493234749ROSIMAR DOMINICALE FOLLY                RUA JOAO MAURICIO CAMPOS DE MEDEIROS    ALMERINDA   24747150SAO GONCALO    RJUNIAO UMB DOS CULTOS AFRO BRAS    20121810 000063
10231987175000168817800093673    000032551                    000325510000000000000109                     I0232551     20121800000000350003410000017N291018104700000000000102012180000000000000000000000000000000000000000100090158601734ANDRILEA PEREIRA BAPTISTA               RUA TELEFONICA                          JARDIM METRO25575080SAO JOAO DE MERRJUNIAO UMB DOS CULTOS AFRO BRAS    20121810 000064
10231987175000168817800093673    000032550                    000325500000000000000109                     I0232550     20121800000000350003410000017N291018104700000000000102012180000000000000000000000000000000000000000100002051058741CRISTIANE SANTANA GURGEL CORTE          RUA  JONAS AMANCIO                      CAMPO GRANDE23092710RIO DE JANEIRO RJUNIAO UMB DOS CULTOS AFRO BRAS    20121810 000065
10231987175000168817800093673    000032549                    000325490000000000000109                     I0232549     20121800000000350003410000017N291018104700000000000102012180000000000000000000000000000000000000000100002110875720ALEX DA SILVA GUEDES                    RUA: PURUS                              PIEDADE     20751295RIO DE JANEIRO RJUNIAO UMB DOS CULTOS AFRO BRAS    20121810 000066
10231987175000168817800093673    000032543                    000325430000000000000109                     I0232543     20121800000000350003410000017N291018104700000000000102012180000000000000000000000000000000000000000100044833520753JOSE ROBERTO OLIVEIRA DA SILVA          TRAVESSA DONA MARIA                     ANDRADE ARAU26130693BELFORD ROXO   RJUNIAO UMB DOS CULTOS AFRO BRAS    20121810 000067
10231987175000168817800093673    000032539                    000325390000000000000109                     I0232539     20121800000000350003410000017N291018104700000000000102012180000000000000000000000000000000000000000100075871505791CARLOS MAGNO DOS SANTOS COUTO           ESTRADA SAO FRANCISCO                   SAO FRANCISC25925300RIO DE JANEIRO RJUNIAO UMB DOS CULTOS AFRO BRAS    20121810 000068
10231987175000168817800093673    000032518                    000325180000000000000109                     I0232518     20121800000000350003410000017N291018104700000000000102012180000000000000000000000000000000000000000100053765052787MARIA APARECIDA DE OLIVEIRA             RUA RIBEIRO DE ANDRADE                  BANGU       21860190RIO DE JANEIRO RJUNIAO UMB DOS CULTOS AFRO BRAS    20121810 000069
10231987175000168817800093673    000032492                    000324920000000000000109                     I0232492     20121800000000350003410000017N291018104700000000000102012180000000000000000000000000000000000000000100085184543791CARLOS ALBERTO TEIXEIRA PEREIR          ESTRADA BOA VISTA                       MARAMBAIA   24859320SAO GONCALO    RJUNIAO UMB DOS CULTOS AFRO BRAS    20121810 000070
10231987175000168817800093673    000032483                    000324830000000000000109                     I0232483     20121800000000350003410000017N291018104700000000000102012180000000000000000000000000000000000000000100069485135734ROBERTO GONCALVES DO NASCIMENT          ESTRADA ZUMBI DOS PALMARES              IGUACU VELHO26062400MESQUITA       RJUNIAO UMB DOS CULTOS AFRO BRAS    20121810 000071
10231987175000168817800093673    000032454                    000324540000000000000109                     I0232454     20121800000000350003410000017N291018104700000000000102012180000000000000000000000000000000000000000100075923866749SUELI ARAUJO DE SOUZA                   AVENIDA OLIVEIRA BELO                   VILA DA PENH21221300RIO DE JANEIRO RJUNIAO UMB DOS CULTOS AFRO BRAS    20121810 000072
10231987175000168817800093673    000032452                    000324520000000000000109                     I0232452     20121800000000350003410000017N291018104700000000000102012180000000000000000000000000000000000000000100010520857763MARCELO ANTONIO PIMENTA                 RUA ITUMIRIM                            GUARATIBA   23033270RIO DE JANEIRO RJUNIAO UMB DOS CULTOS AFRO BRAS    20121810 000073
10231987175000168817800093673    000032450                    000324500000000000000109                     I0232450     20121800000000400003410000017N291018104700000000000102012180000000000000000000000000000000000000000100083452524787PAULO SERGIO MEDEIROS DE AZEVE          RUA LEOPOLDINA BORGES                   ANCHIETA    21630240RIO DE JANEIRO RJUNIAO UMB DOS CULTOS AFRO BRAS    20121810 000074
10231987175000168817800093673    000032386                    000323860000000000000109                     I0232386     20121800000000400003410000017N291018104700000000000102012180000000000000000000000000000000000000000100000251892719JULIO CESAR PERRUSO                     RUA MEXIANA                             CAMPO GRANDE23085790RIO DE JANEIRO RJUNIAO UMB DOS CULTOS AFRO BRAS    20121810 000075
10231987175000168817800093673    000032375                    000323750000000000000109                     I0232375     20121800000000350003410000017N291018104700000000000102012180000000000000000000000000000000000000000100040375161791JORGE LUIZ NOGUEIRA                     ESTRADA CAPOEIRA GRANDE                 GUARATIBA   23026220RIO DE JANEIRO RJUNIAO UMB DOS CULTOS AFRO BRAS    20121810 000076
10231987175000168817800093673    000032373                    000323730000000000000109                     I0232373     20121800000000350003410000017N291018104700000000000102012180000000000000000000000000000000000000000100001837781702LUIS GUSTAVO ROYO VISCONTI DE           AVENIDA PORTUGAL                        VALPARAISO  25655374PETROPOLIS     RJUNIAO UMB DOS CULTOS AFRO BRAS    20121810 000077
10231987175000168817800093673    000032351                    000323510000000000000109                     I0232351     20121800000001500003410000017N291018104700000000000102012180000000000000000000000000000000000000000100005421759750PEDRO MIRANDA - GREGORIO                RUA ENGENHO DA RAINHA                   TODOS OS SAN20765040RIO DE JANEIRO RJUNIAO UMB DOS CULTOS AFRO BRAS    20121810 000078
10231987175000168817800093673    000032338                    000323380000000000000109                     I0232338     20121800000000350003410000017N291018104700000000000102012180000000000000000000000000000000000000000100002648297782ASSOCIACAO ESPIRITA TORRES E L          RUA DOUTOR PIO BORGES, 2181 CASA 2      PITA        24412000SAO GONCALO    RJUNIAO UMB DOS CULTOS AFRO BRAS    20121810 000079
10231987175000168817800093673    000032332                    000323320000000000000109                     I0232332     20121800000000400003410000017N291018104700000000000102012180000000000000000000000000000000000000000100073243728720MARCOS AURELIO REIS DE CASTRO           RUA DAS ROSAS                           VILA VALQUEI21321382RIO DE JANEIRO RJUNIAO UMB DOS CULTOS AFRO BRAS    20121810 000080
10231987175000168817800093673    000032314                    000323140000000000000109                     I0232314     20121800000000400003410000017N291018104700000000000102012180000000000000000000000000000000000000000100067238742772DENISE SIMONE MONTEIRO DE ANDR          RUA URUACU                              JARDIM CARIO21921600RIO DE JANEIRO RJUNIAO UMB DOS CULTOS AFRO BRAS    20121810 000081
10231987175000168817800093673    000032299                    000322990000000000000109                     I0232299     20121800000000350003410000017N291018104700000000000102012180000000000000000000000000000000000000000100055041388768GERALDO JOSE DE OLIVEIRA                RUA CARDEAL DOM SEBASTIAO LEME          SANTA TEREZA22040010RIO DE JANEIRO RJUNIAO UMB DOS CULTOS AFRO BRAS    20121810 000082
10231987175000168817800093673    000032286                    000322860000000000000109                     I0232286     20121800000000350003410000017N291018104700000000000102012180000000000000000000000000000000000000000100009834155794NELY MARIA RODRIGUES DANTAS             RUA DA CONCEICAO                        SANTA ROSA  27155000BARRA DO PIRAI RJUNIAO UMB DOS CULTOS AFRO BRAS    20121810 000083
10231987175000168817800093673    000032283                    000322830000000000000109                     I0232283     20121800000000350003410000017N291018104700000000000102012180000000000000000000000000000000000000000100001402253745HOLNEI DE SOUZA                         RUA B, 27 CASA 1 CONDOMINIO VILAVERDE   ITAUNA      24461593SAO GONCALO    RJUNIAO UMB DOS CULTOS AFRO BRAS    20121810 000084
10231987175000168817800093673    000032279                    000322790000000000000109                     I0232279     20121800000000450003410000017N291018104700000000000102012180000000000000000000000000000000000000000100031197345787HELENA FERREIRA DA SILVA                RUA GENERAL SEZEFREDO                   REALENGO    21715064RIO DE JANEIRO RJUNIAO UMB DOS CULTOS AFRO BRAS    20121810 000085
10231987175000168817800093673    000032273                    000322730000000000000109                     I0232273     20121800000000400003410000017N291018104700000000000102012180000000000000000000000000000000000000000100002880433754ROSELANE DOS SANTOS ADAO MENDE          RUA: CORREGO DANTA                      PEDRA DE GUA23026500RIO DE JANEIRO RJUNIAO UMB DOS CULTOS AFRO BRAS    20121810 000086
10231987175000168817800093673    000032269                    000322690000000000000109                     I0232269     20121800000000350003410000017N291018104700000000000102012180000000000000000000000000000000000000000100007657167718HERONICE BAUNAZ                         RUA: COARACI GENTIL NUNES               GUARATIBA   23032180RIO DE JANEIRO RJUNIAO UMB DOS CULTOS AFRO BRAS    20121810 000087
10231987175000168817800093673    000032233                    000322330000000000000109                     I0232233     20121800000000400003410000017N291018104700000000000102012180000000000000000000000000000000000000000100009130983703SANDRA MARIA DA SILVA                   RUA PORTUGAL                            VIGARIO GERA20720012RIO DE JANEIRO RJUNIAO UMB DOS CULTOS AFRO BRAS    20121810 000088
10231987175000168817800093673    000032196                    000321960000000000000109                     I0232196     20121800000000400003410000017N291018104700000000000102012180000000000000000000000000000000000000000100067262198734LELIA DE OLIVEIRA RAMOS                 RUA: VISCONDE DE SANTA ISABEL           VILA ISABEL 20720012RIO DE JANEIRO RJUNIAO UMB DOS CULTOS AFRO BRAS    20121810 000089
10231987175000168817800093673    000032164                    000321640000000000000109                     I0232164     20121800000000350003410000017N291018104700000000000102012180000000000000000000000000000000000000000100073608351787ANTONIO CARLOS MARTINS DA SILV          ESTRADA DA ESTIVA                       SEPETIBA    00000000RIO DE JANEIRO RJUNIAO UMB DOS CULTOS AFRO BRAS    20121810 000090
10231987175000168817800093673    000032134                    000321340000000000000109                     I0232134     20121800000000350003410000017N291018104700000000000102012180000000000000000000000000000000000000000100002833269722ANA MARIA MARQUES DE AZEVEDO            RUA GUARA                               QUEIMADOS   26470180RIO DE JANEIRO RJUNIAO UMB DOS CULTOS AFRO BRAS    20121810 000091
10231987175000168817800093673    000032106                    000321060000000000000109                     I0232106     20121800000000350003410000017N291018104700000000000102012180000000000000000000000000000000000000000100030779723791JAMILTON BISPO DOS SANTOS               ESTRADA DOS PALMARES                    MORADA VERDE23575270RIO DE JANEIRO RJUNIAO UMB DOS CULTOS AFRO BRAS    20121810 000092
10231987175000168817800093673    000032090                    000320900000000000000109                     I0232090     20121800000000380003410000017N291018104700000000000102012180000000000000000000000000000000000000000100067396682720MARISA BRITES TIBURCIO                  ESTRADA INTENDENTE MAGALHAES            MADUREIRA   21341332RIO DE JANEIRO RJUNIAO UMB DOS CULTOS AFRO BRAS    20121810 000093
10231987175000168817800093673    000032079                    000320790000000000000109                     I0232079     20121800000000400003410000017N291018104700000000000102012180000000000000000000000000000000000000000100068395213700ANA ALICE MAGALHAES BATISTA             RUA ARI BARROSO                         CERAMICA    26032220NOVA IGUACU    RJUNIAO UMB DOS CULTOS AFRO BRAS    20121810 000094
10231987175000168817800093673    000032065                    000320650000000000000109                     I0232065     20121800000000350003410000017N291018104700000000000102012180000000000000000000000000000000000000000100002871832706VILMA LUCI PENEDO DOS SANTOS            RUA OLINDA                              LAGOINHA    26296453NOVA IGUACU    RJUNIAO UMB DOS CULTOS AFRO BRAS    20121810 000095
10231987175000168817800093673    000032061                    000320610000000000000109                     I0232061     20121800000000400003410000017N291018104700000000000102012180000000000000000000000000000000000000000100026413027720MOACYR RODRIGUES DA COSTA FILH          RUA ALVES PINHEIRO                      CAMPO GRANDE23088400RIO DE JANEIRO RJUNIAO UMB DOS CULTOS AFRO BRAS    20121810 000096
10231987175000168817800093673    000032020                    000320200000000000000109                     I0232020     20121800000000350003410000017N291018104700000000000102012180000000000000000000000000000000000000000100001440590702VERONICA MARIA MOREIRA                  RUA QUATORZE DE OUTUBRO                 CHAPERO     23812285ITAGUAI        RJUNIAO UMB DOS CULTOS AFRO BRAS    20121810 000097
10231987175000168817800093673    000032019                    000320190000000000000109                     I0232019     20121800000000400003410000017N291018104700000000000102012180000000000000000000000000000000000000000100009065484701ANTONIO CARLOS TOLEDO MARTINS           RUA: PROFESSORA MARIA EMILIA DUMAS BARRENOVA CIDADE 24804186ITABORAI       RJUNIAO UMB DOS CULTOS AFRO BRAS    20121810 000098
10231987175000168817800093673    000032006                    000320060000000000000109                     I0232006     20121800000000400003410000017N291018104700000000000102012180000000000000000000000000000000000000000100078951534715ELIANA FERNANDES DOS SANTOS ME          RUA: DA INSPIRACAO                      VILA DA PENH21221330RIO DE JANEIRO RJUNIAO UMB DOS CULTOS AFRO BRAS    20121810 000099
10231987175000168817800093673    000032000                    000320000000000000000109                     I0232000     20121800000000400003410000017N291018104700000000000102012180000000000000000000000000000000000000000100076675025791ROMULO CARDOSO DE OLIVEIRA              RUA ALMEIDA BASTOS                      ENCANTADO   20755270RIO DE JANEIRO RJUNIAO UMB DOS CULTOS AFRO BRAS    20121810 000100
10231987175000168817800093673    000031999                    000319990000000000000109                     I0231999     20121800000000350003410000017N291018104700000000000102012180000000000000000000000000000000000000000100055199801791NAIR JACINTO DE SOUZA                   ESTRADA DOS BANDEIRANTES                CURICICA    22780085RIO DE JANEIRO RJUNIAO UMB DOS CULTOS AFRO BRAS    20121810 000101
10231987175000168817800093673    000031971                    000319710000000000000109                     I0231971     20121800000000400003410000017N291018104700000000000102012180000000000000000000000000000000000000000100007913485710MARCELO SILVA VIANA                     RUA CAMBAUBA                            JARDIM GUANA20940001ILHA DO GOVERNARJUNIAO UMB DOS CULTOS AFRO BRAS    20121810 000102
10231987175000168817800093673    000031936                    000319360000000000000109                     I0231936     20121800000000350003410000017N291018104700000000000102012180000000000000000000000000000000000000000100006225968881SIDNEI LUIZ PARREIRA                    RUA NINA RIBEIRO                        PAVUNA      21520290RIO DE JANEIRO RJUNIAO UMB DOS CULTOS AFRO BRAS    20121810 000103
10231987175000168817800093673    000031923                    000319230000000000000109                     I0231923     20121800000000350003410000017N291018104700000000000102012180000000000000000000000000000000000000000100069725209753YRACE MOEMA GRAULT SCHNOOR              RUA ATILIO PIFIER                       SEPETIBA    23535010RIO DE JANEIRO RJUNIAO UMB DOS CULTOS AFRO BRAS    20121810 000104
10231987175000168817800093673    000031889                    000318890000000000000109                     I0231889     20121800000000350003410000017N291018104700000000000102012180000000000000000000000000000000000000000100088271544772ELIZABETE GERN                          RUA TREZE                               IPIRANGA    26293489NOVA IGUACU    RJUNIAO UMB DOS CULTOS AFRO BRAS    20121810 000105
10231987175000168817800093673    000031883                    000318830000000000000109                     I0231883     20121800000000350003410000017N291018104700000000000102012180000000000000000000000000000000000000000100073296333720IRACEMA HILARIO DA SILVA                AVENIDA: ROOSEVELT                      VILA GENI - 23825780ITAGUAI        RJUNIAO UMB DOS CULTOS AFRO BRAS    20121810 000106
10231987175000168817800093673    000031878                    000318780000000000000109                     I0231878     20121800000000400003410000017N291018104700000000000102012180000000000000000000000000000000000000000100001330923723JANICE HELENA GARRIDO ROMA SAN          RUA: CINQUENTA E SEIS                   CAROBINHA - 00000000RIO DE JANEIRO RJUNIAO UMB DOS CULTOS AFRO BRAS    20121810 000107
10231987175000168817800093673    000031877                    000318770000000000000109                     I0231877     20121800000000400003410000017N291018104700000000000102012180000000000000000000000000000000000000000100066377765720PAULO MARCOS TAVARES DA SILVA           RUA: CANTO DO BURITI                    BRAS DE PINA00000000RIO DE JABNEIRORJUNIAO UMB DOS CULTOS AFRO BRAS    20121810 000108
10231987175000168817800093673    000031872                    000318720000000000000109                     I0231872     20121800000000350003410000017N291018104700000000000102012180000000000000000000000000000000000000000100050576046787CELINA CANDIDO LOURENCO                 RUA JOSE DOS REIS                       ENGENHO DE D00000000RIO DE JANEIRO RJUNIAO UMB DOS CULTOS AFRO BRAS    20121810 000109
10231987175000168817800093673    000031836                    000318360000000000000109                     I0231836     20121800000000400003410000017N291018104700000000000102012180000000000000000000000000000000000000000100001494323729LEILA CRISTINA PIMENTEL GONCAL          RUA VIANA DO CASTELO                    CURICICA    22713587RIO DE JANEIRO RJUNIAO UMB DOS CULTOS AFRO BRAS    20121810 000110
10231987175000168817800093673    000031831                    000318310000000000000109                     I0231831     20121800000000350003410000017N291018104700000000000102012180000000000000000000000000000000000000000100042909422804RAMALHO BORBA SILVA                     RUA JOAO DOS SANTOS                     CAMPO LINDO 23845190RIO DE JANEIRO RJUNIAO UMB DOS CULTOS AFRO BRAS    20121810 000111
10231987175000168817800093673    000031822                    000318220000000000000109                     I0231822     20121800000000450003410000017N291018104700000000000102012180000000000000000000000000000000000000000100042460190700EDIR DA SILVA                           RUA: SENADOR VERGUEIRO                  FLAMENGO    22230001RIO DE JANEIRO RJUNIAO UMB DOS CULTOS AFRO BRAS    20121810 000112
10231987175000168817800093673    000031819                    000318190000000000000109                     I0231819     20121800000000350003410000017N291018104700000000000102012180000000000000000000000000000000000000000100033315574715MARIA DE LOURDES CARVALHO               RUA DOUTOR LUCIO                        VILA TIRADEN25525240SAO JOAO DE MERRJUNIAO UMB DOS CULTOS AFRO BRAS    20121810 000113
10231987175000168817800093673    000031792                    000317920000000000000109                     I0231792     20121800000000350003410000017N291018104700000000000102012180000000000000000000000000000000000000000100000135406706MARCOS VENTURA PINHEIRO                 ESTRADA DA PACIENCIA                    COSMOS      23580250RIO DE JANEIRO RJUNIAO UMB DOS CULTOS AFRO BRAS    20121810 000114
10231987175000168817800093673    000031788                    000317880000000000000109                     I0231788     20121800000000350003410000017N291018104700000000000102012180000000000000000000000000000000000000000100005183653798CLAUDIA DE OLIVEIRA ROCHA SABI          RUA DA PROSPERIDADE                     COSTA BARROS21532200RIO DE JANEIRO RJUNIAO UMB DOS CULTOS AFRO BRAS    20121810 000115
10231987175000168817800093673    000031773                    000317730000000000000109                     I0231773     20121800000000350003410000017N291018104700000000000102012180000000000000000000000000000000000000000100000001795740MARINA CEZARIO AMARAL                   RUA CORONEL JOAQUIM MENDES              COLUBANDE   24744570SAO GONCALO    RJUNIAO UMB DOS CULTOS AFRO BRAS    20121810 000116
10231987175000168817800093673    000031769                    000317690000000000000109                     I0231769     20121800000000350003410000017N291018104700000000000102012180000000000000000000000000000000000000000100023544120704ELIAS DA SILVA FILHO                    TRAVESSA SANTA RITA                     ROCHA       24420450SAO GONCALO    RJUNIAO UMB DOS CULTOS AFRO BRAS    20121810 000117
10231987175000168817800093673    000031748                    000317480000000000000109                     I0231748     20121800000000350003410000017N291018104700000000000102012180000000000000000000000000000000000000000100009831383702MARCELO SOUZA MATOS                     AVENIDA MERITI                          VILA DA PENH21211006RIO DE JANEIRO RJUNIAO UMB DOS CULTOS AFRO BRAS    20121810 000118
10231987175000168817800093673    000031737                    000317370000000000000109                     I0231737     20121800000000450003410000017N291018104700000000000102012180000000000000000000000000000000000000000100085602787615VALERIA APARECIDA RODRIGUES LE          RUA JOAO DAMASCENO FONTES               CAMPO LINDO 23845140SEROPEDICA     RJUNIAO UMB DOS CULTOS AFRO BRAS    20121810 000119
10231987175000168817800093673    000031729                    000317290000000000000109                     I0231729     20121800000000400003410000017N291018104700000000000102012180000000000000000000000000000000000000000100016365267720CONCEICAO DAS GRACAS COELHO CA          RUA TRINTA                              CAMPO LINDO 23890000SEROPEDICA     RJUNIAO UMB DOS CULTOS AFRO BRAS    20121810 000120
10231987175000168817800093673    000031725                    000317250000000000000109                     I0231725     20121800000000400003410000017N291018104700000000000102012180000000000000000000000000000000000000000100074338960744GILBERTO JORGE DA CRUZ ARAUJO           RUA: SAO FRANCISCO XAVIER               TIJUCA      20550010RIO DE JANEIRO RJUNIAO UMB DOS CULTOS AFRO BRAS    20121810 000121
10231987175000168817800093673    000031687                    000316870000000000000109                     I0231687     20121800000000400003410000017N291018104700000000000102012180000000000000000000000000000000000000000100004251552776HERCINIA POMPOSA BARBOSA                AVENIDA JOAO PINHEIRO                   PILARES     20750094RIO DE JANEIRO RJUNIAO UMB DOS CULTOS AFRO BRAS    20121810 000122
10231987175000168817800093673    000031676                    000316760000000000000109                     I0231676     20121800000000400003410000017N291018104700000000000102012180000000000000000000000000000000000000000100000619085762DINEA DE FREITAS LEMOS                  RUA MATRIZ DE CAMARAGIPE                BANGU       21870370RIO DE JANEIRO RJUNIAO UMB DOS CULTOS AFRO BRAS    20121810 000123
10231987175000168817800093673    000031668                    000316680000000000000109                     I0231668     20121800000000350003410000017N291018104700000000000102012180000000000000000000000000000000000000000100000579409759CLAUDIA VALERIA MIRAGLIA                RUA ANTONIO RODRIGUES OLIVEIRA          CENTRO      26556520MESQUITA       RJUNIAO UMB DOS CULTOS AFRO BRAS    20121810 000124
10231987175000168817800093673    000031658                    000316580000000000000109                     I0231658     20121800000000350003410000017N291018104700000000000102012180000000000000000000000000000000000000000100054777860787ANA MARIA DE OLIVEIRA COUTO             ESTRADA DA LAGOINHA                     VILA DOS COQ26296306NOVA IGUACU    RJUNIAO UMB DOS CULTOS AFRO BRAS    20121810 000125
10231987175000168817800093673    000031649                    000316490000000000000109                     I0231649     20121800000000400003410000017N291018104700000000000102012180000000000000000000000000000000000000000100072345659734ALEIXO DE SOUSA PIMENTEL                RUA DANIEL MARINHO                      RIO DAS PEDR22765660RIO DE JANEIRO RJUNIAO UMB DOS CULTOS AFRO BRAS    20121810 000126
10231987175000168817800093673    000031642                    000316420000000000000109                     I0231642     20121800000000400003410000017N291018104700000000000102012180000000000000000000000000000000000000000100083006842715HILDA DA CONCEICAO DE SOUZA             AVENIDA PREFEITO JORGE JULIO DA COSTA DOCENTRO      26130010BELFORD ROXO   RJUNIAO UMB DOS CULTOS AFRO BRAS    20121810 000127
10231987175000168817800093673    000031569                    000315690000000000000109                     I0231569     20121800000000400003410000017N291018104700000000000102012180000000000000000000000000000000000000000100007267190723LUIZ FLAVIO VIANNA GUIMARAES B          RUA NOEL ROSA                           IGUABINHA   28970000ARARUAMA       RJUNIAO UMB DOS CULTOS AFRO BRAS    20121810 000128
10231987175000168817800093673    000031540                    000315400000000000000109                     I0231540     20121800000000350003410000017N291018104700000000000102012180000000000000000000000000000000000000000100059088230749MARILENE NESTOR CORDEIRO                RUA: ALMEIDA E SOUZA                    MAGALHAES BA21745310RIO DE JANEIRO RJUNIAO UMB DOS CULTOS AFRO BRAS    20121810 000129
10231987175000168817800093673    000031536                    000315360000000000000109                     I0231536     20121800000000400003410000017N291018104700000000000102012180000000000000000000000000000000000000000100003669100784SUELI DA MOTA COSTA                     RUA PARDAL MALLET                       PARQUE LAFAI25025236DUQUE DE CAXIASRJUNIAO UMB DOS CULTOS AFRO BRAS    20121810 000130
10231987175000168817800093673    000031530                    000315300000000000000109                     I0231530     20121800000000350003410000017N291018104700000000000102012180000000000000000000000000000000000000000100002364852706SHIRLEY RODRIGUES NUNES                 RUA DAHONEY                             JACAROA     24900000NITEROI        RJUNIAO UMB DOS CULTOS AFRO BRAS    20121810 000131
10231987175000168817800093673    000031495                    000314950000000000000109                     I0231495     20121800000000350003410000017N291018104700000000000102012180000000000000000000000000000000000000000100001866064789ALEXANDRE MENDONCA                      RUA TRES DE OUTUBRO                     GLEBA B - EN23830020CHAPERO - ITAGURJUNIAO UMB DOS CULTOS AFRO BRAS    20121810 000132
10231987175000168817800093673    000031484                    000314840000000000000109                     I0231484     20121800000000450003410000017N291018104700000000000102012180000000000000000000000000000000000000000100042242991787SELMA DA SILVA FARIA                    RUA JOSE BORGES N 578 CASA 3            SETE PONTES 24415220SAO GONCALO    RJUNIAO UMB DOS CULTOS AFRO BRAS    20121810 000133
10231987175000168817800093673    000031474                    000314740000000000000109                     I0231474     20121800000000400003410000017N291018104700000000000102012180000000000000000000000000000000000000000100008905160735ALINE NUNES FERREIRA                    ESTRADA DOS COQUEIROS                   SENADOR CAMA21843652RIO DE JANEIRO RJUNIAO UMB DOS CULTOS AFRO BRAS    20121810 000134
10231987175000168817800093673    000031447                    000314470000000000000109                     I0231447     20121800000000350003410000017N291018104700000000000102012180000000000000000000000000000000000000000100002554595720ROSA CRISTINA SANTANA BARBOSA           RUA JOSE FERNANDES                      SEPETIBA    23535450RIO DE JANEIRO RJUNIAO UMB DOS CULTOS AFRO BRAS    20121810 000135
10231987175000168817800093673    000031446                    000314460000000000000109                     I0231446     20121800000000450003410000017N291018104700000000000102012180000000000000000000000000000000000000000100006567490837WILSON JULIO VIEIRA MARTINS             RUA OSCAR DE CARVALHO                   IPIRANGA - M25930000MAGE           RJUNIAO UMB DOS CULTOS AFRO BRAS    20121810 000136
10231987175000168817800093673    000031428                    000314280000000000000109                     I0231428     20121800000000350003410000017N291018104700000000000102012180000000000000000000000000000000000000000100028625153704CARLOS ALBERTO MENDES DA CRUZ           RUA DA LASTENIA                         MALHAPAO    26187070BELFORD ROXO   RJUNIAO UMB DOS CULTOS AFRO BRAS    20121810 000137
10231987175000168817800093673    000031415                    000314150000000000000109                     I0231415     20121800000000450003410000017N291018104700000000000102012180000000000000000000000000000000000000000100002156451702MARIA AMALIA AVELLAR SOUZA              RUA BELMIRA                             PIEDADE     20756200RIO DE JANEIRO RJUNIAO UMB DOS CULTOS AFRO BRAS    20121810 000138
10231987175000168817800093673    000031408                    000314080000000000000109                     I0231408     20121800000000350003410000017N291018104700000000000102012180000000000000000000000000000000000000000100000000000000ENI MOREIRA DE SOUZA                    RUA DAVILA                              SANTA CRUZ  25550640RIO DE JANEIRO RJUNIAO UMB DOS CULTOS AFRO BRAS    20121810 000139
10231987175000168817800093673    000031403                    000314030000000000000109                     I0231403     20121800000000450003410000017N291018104700000000000102012180000000000000000000000000000000000000000100005421729750GREGORIO THOMAS DE OLIVEIRA BR          RUA AIERA                               VILA COSMOS 21220020RIO DE JANEIRO RJUNIAO UMB DOS CULTOS AFRO BRAS    20121810 000140
10231987175000168817800093673    000031397                    000313970000000000000109                     I0231397     20121800000000400003410000017N291018104700000000000102012180000000000000000000000000000000000000000100039828425734DIANA CORREA                            RUA RIO DAS PEDRAS                      OSWALDO CRUZ21351370RIO DE JANEIRO RJUNIAO UMB DOS CULTOS AFRO BRAS    20121810 000141
10231987175000168817800093673    000031369                    000313690000000000000109                     I0231369     20121800000000400003410000017N291018104700000000000102012180000000000000000000000000000000000000000100044851839715MARIA DA PENHA                          RUA ADELINO FERREIRA                    JARDIM VILA 25045310DUQUE DE CAXIASRJUNIAO UMB DOS CULTOS AFRO BRAS    20121810 000142
10231987175000168817800093673    000031326                    000313260000000000000109                     I0231326     20121800000000350003410000017N291018104700000000000102012180000000000000000000000000000000000000000100000905106741RICARDO DE SOUZA GOUVEA                 RUA: DOS ARAUJO                         PARQUE FLUMI26185260BELFORD ROXO   RJUNIAO UMB DOS CULTOS AFRO BRAS    20121810 000143
10231987175000168817800093673    000031310                    000313100000000000000109                     I0231310     20121800000000350003410000017N291018104700000000000102012180000000000000000000000000000000000000000100007309710746ROSA HELENA PINTO MANUEL                RUA CINCINATO CHAVES                    VISTA ALEGRE21236010RIO DE JANEIRO RJUNIAO UMB DOS CULTOS AFRO BRAS    20121810 000144
10231987175000168817800093673    000031288                    000312880000000000000109                     I0231288     20121800000000400003410000017N291018104700000000000102012180000000000000000000000000000000000000000100005201586791WILSON MANOEL DE SOUZA                  RUA PERNANBUCO                          SANTA CRUZ D25251030DUQUE DE CAXIASRJUNIAO UMB DOS CULTOS AFRO BRAS    20121810 000145
10231987175000168817800093673    000031263                    000312630000000000000109                     I0231263     20121800000000350003410000017N291018104700000000000102012180000000000000000000000000000000000000000100055720277749MARIA DE FATIMA PEREIRA                 RUA CORONEL SEROA DA MOTA               SEPETIBA    23535040RIO DE JANEIRO RJUNIAO UMB DOS CULTOS AFRO BRAS    20121810 000146
10231987175000168817800093673    000031257                    000312570000000000000109                     I0231257     20121800000000350003410000017N291018104700000000000102012180000000000000000000000000000000000000000100004751333747CARLOS EDUARDO DE SOUZA ALVES           RUA: URANOS                             BONSUCESSO  21060070RIO DE JANEIRO RJUNIAO UMB DOS CULTOS AFRO BRAS    20121810 000147
10231987175000168817800093673    000031246                    000312460000000000000109                     I0231246     20121800000000350003410000017N291018104700000000000102012180000000000000000000000000000000000000000100005455733788MARIA DA CONCEICAO VIEIRA MEND          RUA LAPENIA                             JARDIM REDEN26110270BELFORD ROXO   RJUNIAO UMB DOS CULTOS AFRO BRAS    20121810 000148
10231987175000168817800093673    000031228                    000312280000000000000109                     I0231228     20121800000000350003410000017N291018104700000000000102012180000000000000000000000000000000000000000100074192523787RUTH DE OLIVEIRA RAMOS                  RUA DONATELO                            PRAIA DA BRI23028210RIO DE JANEIRO RJUNIAO UMB DOS CULTOS AFRO BRAS    20121810 000149
10231987175000168817800093673    000031209                    000312090000000000000109                     I0231209     20121800000000350003410000017N291018104700000000000102012180000000000000000000000000000000000000000100054608066749MARCIA GONCALVES LENCASTRE              RUA: NOVO HORIZONTE                     SEPETIBA    23540133RIO DE JANEIRO RJUNIAO UMB DOS CULTOS AFRO BRAS    20121810 000150
10231987175000168817800093673    000031172                    000311720000000000000109                     I0231172     20121800000000350003410000017N291018104700000000000102012180000000000000000000000000000000000000000100060792078772ROSANGELA DA SILVA                      RUA TUCUNARE                            BRAS DE PINA21215150RIO DE JANEIRO RJUNIAO UMB DOS CULTOS AFRO BRAS    20121810 000151
10231987175000168817800093673    000031164                    000311640000000000000109                     I0231164     20121800000000350003410000017N291018104700000000000102012180000000000000000000000000000000000000000100007742829754CARLOS ANDERSON DA SILVA DIAS           RUA CORONEL FRANCA LEITE                CABRAL      26582020RIO DE JANEIRO RJUNIAO UMB DOS CULTOS AFRO BRAS    20121810 000152
10231987175000168817800093673    000031151                    000311510000000000000109                     I0231151     20121800000000400003410000017N291018104700000000000102012180000000000000000000000000000000000000000100037293591772JUCARI RIBEIRO PIMENTA                  RUA CRISOLIA                            HONORIO GURG21511220RIO DE JANEIRO RJUNIAO UMB DOS CULTOS AFRO BRAS    20121810 000153
10231987175000168817800093673    000031147                    000311470000000000000109                     I0231147     20121800000000380003410000017N291018104700000000000102012180000000000000000000000000000000000000000100003032482704ADELAIDE ALVES DE OLIVEIRA MIR          RUA CLEMENTE PEREIRA LEANDRO            SAO JOAO DE 25561000RIO DE JANEIRO RJUNIAO UMB DOS CULTOS AFRO BRAS    20121810 000154
10231987175000168817800093673    000031100                    000311000000000000000109                     I0231100     20121800000000400003410000017N291018104700000000000102012180000000000000000000000000000000000000000100048941247772MARIA FLOR DE MAIO SANTOS               RUA APOLO                               PAVUNA      22735210RIO DE JANEIRO RJUNIAO UMB DOS CULTOS AFRO BRAS    20121810 000155
10231987175000168817800093673    000031090                    000310900000000000000109                     I0231090     20121800000000450003410000017N291018104700000000000102012180000000000000000000000000000000000000000100095709469791IARA SOARES LIMA DA SILVA               RUA TENENTE LASSANCE                    ANCHIETA    21635440RIO DE JANEIRO RJUNIAO UMB DOS CULTOS AFRO BRAS    20121810 000156
10231987175000168817800093673    000031082                    000310820000000000000109                     I0231082     20121800000000350003410000017N291018104700000000000102012180000000000000000000000000000000000000000100078251329749SOLANGE BASTOS DE ARAUJO                RUA EXPEDICIONARIO SIMAO FERNANDES      COLUBANDE   24451700SAO GONCALO    RJUNIAO UMB DOS CULTOS AFRO BRAS    20121810 000157
10231987175000168817800093673    000031064                    000310640000000000000109                     I0231064     20121800000000350003410000017N291018104700000000000102012180000000000000000000000000000000000000000100069222118715MARIA LUCIA DOS SANTOS FERREIR          RUA FLORIANO PINHEIRO DE CAMPOS         GUARATIBA   20765040RIO DE JANEIRO RJUNIAO UMB DOS CULTOS AFRO BRAS    20121810 000158
10231987175000168817800093673    000031058                    000310580000000000000109                     I0231058     20121800000000450003410000017N291018104700000000000102012180000000000000000000000000000000000000000100051223538753CLEA DA SILVA                           R.CAMINHO DOS TELEGRAFOS                JARDIM VIOLE21832410RIO DE JANEIRO RJUNIAO UMB DOS CULTOS AFRO BRAS    20121810 000159
10231987175000168817800093673    000031034                    000310340000000000000109                     I0231034     20121800000000400003410000017N291018104700000000000102012180000000000000000000000000000000000000000100000000000261SEBASTIAO TEIXEIRA MARQUES              ESTRADA DO SUMARE                       RIO COMPRIDO20261280RIO DE JANEIRO RJUNIAO UMB DOS CULTOS AFRO BRAS    20121810 000160
10231987175000168817800093673    000031024                    000310240000000000000109                     I0231024     20121800000000350003410000017N291018104700000000000102012180000000000000000000000000000000000000000100069737614704EDINEA FERREIRA DA SILVA                RUA DO CAFE                             ROCHA MIRAND21540630RIO DE JANEIRO RJUNIAO UMB DOS CULTOS AFRO BRAS    20121810 000161
10231987175000168817800093673    000031006                    000310060000000000000109                     I0231006     20121800000000350003410000017N291018104700000000000102012180000000000000000000000000000000000000000100092989942734WILLIA SUMAR                            RUA PARDAIS                             SANTA RITA  26050145RIO DE JANEIRO RJUNIAO UMB DOS CULTOS AFRO BRAS    20121810 000162
10231987175000168817800093673    000030979                    000309790000000000000109                     I0230979     20121800000000400003410000017N291018104700000000000102012180000000000000000000000000000000000000000100039319784787PEDRINA MARIANO DE SOUZA                RUA JABOATAO                            VILA ROSARIO25041020DUQUE DE CAXIASRJUNIAO UMB DOS CULTOS AFRO BRAS    20121810 000163
10231987175000168817800093673    000030975                    000309750000000000000109                     I0230975     20121800000000400003410000017N291018104700000000000102012180000000000000000000000000000000000000000100079294308715MARIA DAS GRACAS PIRES DA SILV          RUA: GENUINO SIQUEIRA                   JARDIM MERIT25555300SAO JOAO DE MERRJUNIAO UMB DOS CULTOS AFRO BRAS    20121810 000164
10231987175000168817800093673    000030972                    000309720000000000000109                     I0230972     20121800000000380003410000017N291018104700000000000102012180000000000000000000000000000000000000000100033223190759CELIA DA CONCEICAO RIBEIRO              RUA GENERAL JOSE FAUSTINO               REALENGO    21721050RIO DE JANEIRO RJUNIAO UMB DOS CULTOS AFRO BRAS    20121810 000165
10231987175000168817800093673    000030969                    000309690000000000000109                     I0230969     20121800000000500003410000017N291018104700000000000102012180000000000000000000000000000000000000000100008875373752ROSANA DA SILVA MONTEIRO RODRI          RUA: VICENTE CORTEZ                     PALMEIRAS   24475320SAO GONCALO    RJUNIAO UMB DOS CULTOS AFRO BRAS    20121810 000166
10231987175000168817800093673    000030930                    000309300000000000000109                     I0230930     20121800000000350003410000017N291018104700000000000102012180000000000000000000000000000000000000000100010648504727ALINE DA SILVA RAMOS                    RUA GENERAL LOUREIRO                    BOACU       24467400SAO GONCALO    RJUNIAO UMB DOS CULTOS AFRO BRAS    20121810 000167
10231987175000168817800093673    000030903                    000309030000000000000109                     I0230903     20121800000000350003410000017N291018104700000000000102012180000000000000000000000000000000000000000100000000000210GILBERTO CAMPOS DA SILVA                RUA VIRGILIO DA SILVA                   REALENGO    21760390RIO DE JANEIRO RJUNIAO UMB DOS CULTOS AFRO BRAS    20121810 000168
10231987175000168817800093673    000030899                    000308990000000000000109                     I0230899     20121800000000350003410000017N291018104700000000000102012180000000000000000000000000000000000000000100000339035730RICARDO MARREIROS NETO                  ESTRADA DO MORGADO                      VARGEM GRAND22785550RIO DE JANEIRO RJUNIAO UMB DOS CULTOS AFRO BRAS    20121810 000169
10231987175000168817800093673    000030885                    000308850000000000000109                     I0230885     20121800000000400003410000017N291018104700000000000102012180000000000000000000000000000000000000000100005508288775RICARDO DOS SANTOS GEBER                RUA: MARQUES DE PARANA                  CENTRO      24030215NITEROI        RJUNIAO UMB DOS CULTOS AFRO BRAS    20121810 000170
10231987175000168817800093673    000030867                    000308670000000000000109                     I0230867     20121800000000400003410000017N291018104700000000000102012180000000000000000000000000000000000000000100000000000204MARLENE DA SILVA MARTINS                RUA MARINHO                             TOMAZINHO   25520490SAO JOAO DE MERRJUNIAO UMB DOS CULTOS AFRO BRAS    20121810 000171
10231987175000168817800093673    000030862                    000308620000000000000109                     I0230862     20121800000000550003410000017N291018104700000000000102012180000000000000000000000000000000000000000100060235756768ALNEA DA COSTA VIMERCATI                RUA SAPOPEMBA                           BENTO RIBEIR21331240RIO DE JANEIRO RJUNIAO UMB DOS CULTOS AFRO BRAS    20121810 000172
10231987175000168817800093673    000030851                    000308510000000000000109                     I0230851     20121800000000350003410000017N291018104700000000000102012180000000000000000000000000000000000000000100096337273753GENETE FRAZAO DE OLIVEIRA               RUA APURINAS                            TURIACU     21540310RIO DE JANEIRO RJUNIAO UMB DOS CULTOS AFRO BRAS    20121810 000173
10231987175000168817800093673    000030849                    000308490000000000000109                     I0230849     20121800000000400003410000017N291018104700000000000102012180000000000000000000000000000000000000000100044245548720IVONE DOS SANTOS DA SILVA               RUA FILOMENO COELHO                     JARDIM SANTA26050020NOVA IGUACU    RJUNIAO UMB DOS CULTOS AFRO BRAS    20121810 000174
10231987175000168817800093673    000030825                    000308250000000000000109                     I0230825     20121800000000350003410000017N291018104700000000000102012180000000000000000000000000000000000000000100063533758753SONIA MARIA MEIRA DE SOUZA              ESTRADA DE PACIENCIA                    PACIENCIA   23060372RIO DE JANEIRO RJUNIAO UMB DOS CULTOS AFRO BRAS    20121810 000175
10231987175000168817800093673    000030824                    000308240000000000000109                     I0230824     20121800000000350003410000017N291018104700000000000102012180000000000000000000000000000000000000000100000000000214JORGE PAIXAO MESQUITA ROSA              ESTRADA: DO GUANDU DO SENA              JARDIM NOSSA23097220RIO DE JANEIRO RJUNIAO UMB DOS CULTOS AFRO BRAS    20121810 000176
10231987175000168817800093673    000030739                    000307390000000000000109                     I0230739     20121800000000400003410000017N291018104700000000000102012180000000000000000000000000000000000000000100054148111720JOSE MARIA SERAFIM                      RUA BELEM                               VILA SAO ROQ26310080QUEIMADOS      RJUNIAO UMB DOS CULTOS AFRO BRAS    20121810 000177
10231987175000168817800093673    000030737                    000307370000000000000109                     I0230737     20121800000000350003410000017N291018104700000000000102012180000000000000000000000000000000000000000100000000000224FAUSTO IACOVELLI                        RUA SAO JOAO                            PARQUE.SAO F26369160NOVA IGUACU    RJUNIAO UMB DOS CULTOS AFRO BRAS    20121810 000178
10231987175000168817800093673    000030720                    000307200000000000000109                     I0230720     20121800000000350003410000017N291018104700000000000102012180000000000000000000000000000000000000000100087520427749MARIA DA CONCEICAO VIEIRA CORR          RUA NOSSA SENHORA DOS NAVEGANTES        VILAR DOS TE25561310SAO JOAO DE MERRJUNIAO UMB DOS CULTOS AFRO BRAS    20121810 000179
10231987175000168817800093673    000030700                    000307000000000000000109                     I0230700     20121800000000500003410000017N291018104700000000000102012180000000000000000000000000000000000000000100063173417704TANIA MARA MARINHO POLITANO             RUA DAS OPALAS                          ROCHA MIRAND21510080RIO DE JANEIRO RJUNIAO UMB DOS CULTOS AFRO BRAS    20121810 000180
10231987175000168817800093673    000030684                    000306840000000000000109                     I0230684     20121800000000350003410000017N291018104700000000000102012180000000000000000000000000000000000000000100000000000661ELOISA SANT ANA                         RUA LINO DE MORAIS,                     REALENGO    21730290RIO DE JANEIRO RJUNIAO UMB DOS CULTOS AFRO BRAS    20121810 000181
10231987175000168817800093673    000030672                    000306720000000000000109                     I0230672     20121800000000450003410000017N291018104700000000000102012180000000000000000000000000000000000000000100049482025768MARLENE FELIPPE DOS SANTOS PIN          RUA PROFESSOR CARLOS CHAGAS             MARECHAL HER21670670RIO DE JANEIRO RJUNIAO UMB DOS CULTOS AFRO BRAS    20121810 000182
10231987175000168817800093673    000030623                    000306230000000000000109                     I0230623     20121800000000350003410000017N291018104700000000000102012180000000000000000000000000000000000000000100086990810734ROGY CARLOS OLIVEIRA MELLO              RUA: BORDA DO MATO                      GRAJAU      20561200RIO DE JANEIRO RJUNIAO UMB DOS CULTOS AFRO BRAS    20121810 000183
10231987175000168817800093673    000030604                    000306040000000000000109                     I0230604     20121800000000350003410000017N291018104700000000000102012180000000000000000000000000000000000000000100001306191750PAULO CESAR DE PAULA CALDEIRA           RUA OSCARINA DE FREITAS                 PALMARES - P23065500RIO DE JANEIRO RJUNIAO UMB DOS CULTOS AFRO BRAS    20121810 000184
10231987175000168817800093673    000030568                    000305680000000000000109                     I0230568     20121800000000350003410000017N291018104700000000000102012180000000000000000000000000000000000000000100002066794759MARCELO VIEIRA DA SILVA                 RUA: SIMAS                              ENCANTADO   20745030RIO DE JANEIRO RJUNIAO UMB DOS CULTOS AFRO BRAS    20121810 000185
10231987175000168817800093673    000030551                    000305510000000000000109                     I0230551     20121800000000350003410000017N291018104700000000000102012180000000000000000000000000000000000000000100063299615734MAGALI MAXIMO DE SOUZA                  RUA: DONA VICENTINA                     PAIOL DE POL26545460NILOPOLIS      RJUNIAO UMB DOS CULTOS AFRO BRAS    20121810 000186
10231987175000168817800093673    000030536                    000305360000000000000109                     I0230536     20121800000000450003410000017N291018104700000000000102012180000000000000000000000000000000000000000100066379814787SERGIO MAIA MAGALHAES                   RUA QUINCAS LARANJEIRAS                 IPIRANGA  MA21240630RIO DE JANEIRO RJUNIAO UMB DOS CULTOS AFRO BRAS    20121810 000187
10231987175000168817800093673    000030531                    000305310000000000000109                     I0230531     20121800000000500003410000017N291018104700000000000102012180000000000000000000000000000000000000000100075201240704BARBARA MONTEIRO DE BARROS FIL          RUA: OBIDOS                             BENTO RIBEIR21331550RIO DE JANEIRO RJUNIAO UMB DOS CULTOS AFRO BRAS    20121810 000188
10231987175000168817800093673    000030511                    000305110000000000000109                     I0230511     20121800000000400003410000017N291018104700000000000102012180000000000000000000000000000000000000000100036206071700MARIA ISABEL RAMOS                      RUA MARINA                              BENTO RIBEIR21331070RIO DE JANEIRO RJUNIAO UMB DOS CULTOS AFRO BRAS    20121810 000189
10231987175000168817800093673    000030507                    000305070000000000000109                     I0230507     20121800000000400003410000017N291018104700000000000102012180000000000000000000000000000000000000000100000000000051ADILSI DOS SANTOS CAMPOS                RUA DOS CAJUEIROS                       SEPETIBA    23530074RIO DE JANEIRO RJUNIAO UMB DOS CULTOS AFRO BRAS    20121810 000190
10231987175000168817800093673    000030446                    000304460000000000000109                     I0230446     20121800000000350003410000017N291018104700000000000102012180000000000000000000000000000000000000000100091307740715SERGIO FERREIRA DA SILVA                RUA: DO OURO                            SARAPUI     25050120DUQUE DE CAXIASRJUNIAO UMB DOS CULTOS AFRO BRAS    20121810 000191
10231987175000168817800093673    000030418                    000304180000000000000109                     I0230418     20121800000000350003410000017N291018104700000000000102012180000000000000000000000000000000000000000100001655794710ADRIANA QUEIROZ DE ARAUJO SOAR          RUA: SAMPAIO CORREIA                    JACAREPAGUA 22713371RIO DE JANEIRO RJUNIAO UMB DOS CULTOS AFRO BRAS    20121810 000192
10231987175000168817800093673    000029247                    000292470000000000000109                     I0229247     20121800000000035003410000017N291018104700000000000102012180000000000000000000000000000000000000000100093151179720ELIZABETH DA SILVA GOIS                 RUA RAFAEL HAENNY                       SEPETIBA    23535640RIO DE JANEIRO RJUNIAO UMB DOS CULTOS AFRO BRAS    20121810 000193
10231987175000168817800093673    000028979                    000289790000000000000109                     I0228979     26101800000000175003410000017N221018104700000000000102610180000000000000000000000000000000000000000100005529010750JOELMA MELO DA SILVA                    RUA DIONIZIO RIBEIRO CHAVES             ANAIA - SANT24737660SAO GONCALO    RJUNIAO UMB DOS CULTOS AFRO BRAS    26101810 000194
10231987175000168817800093673    000028943                    000289430000000000000109                     I0228943     20111800000000400003410000017N141018104700000000000102011180000000000000000000000000000000000000000100007173659728DULCINEIA SILVA DE SOUZA                RUA DO SOUTO                            CASCADURA   21311270RIO DE JANEIRO RJUNIAO UMB DOS CULTOS AFRO BRAS    20111810 000195
10231987175000168817800093673    000028371                    000283710000000000000109                     I0228371     30111800000000035003410000017N200818104700000000000103011180000000000000000000000000000000000000000100010154945790SIMONE DE OLIVEIRA CUNHA                RUA ONZE                                JARDIM ROTSE25270080DUQUE DE CAXIASRJUNIAO UMB DOS CULTOS AFRO BRAS    30111810 000196
10231987175000168817800093673    000028178                    000281780000000000000109                     I3428178     30111800000000035003410000017N200818104700000000000103011180000000000000000000000000000000000000000100089497899734UGO SILVA FILHO                         RUA CADETE ULISSES VEIGA                SAO CRISTOVA20940240RIO DE JANEIRO RJUNIAO UMB DOS CULTOS AFRO BRAS    30111810 000197
10231987175000168817800093673    000027899                    000278990000000000000109                     I0227899     30111800000000040003410000017N200818104700000000000103011180000000000000000000000000000000000000000100073243728720MARCOS AURELIO REIS DE CASTRO           RUA DAS ROSAS                           VILA VALQUEI21321382RIO DE JANEIRO RJUNIAO UMB DOS CULTOS AFRO BRAS    30111810 000198
10231987175000168817800093673    000027316                    000273160000000000000109                     I0227316     30111800000000035003410000017N200818104700000000000103011180000000000000000000000000000000000000000100093151179720ELIZABETH DA SILVA GOIS                 RUA RAFAEL HAENNY                       SEPETIBA    23535640RIO DE JANEIRO RJUNIAO UMB DOS CULTOS AFRO BRAS    30111810 000199
10231987175000168817800093673    000027148                    000271480000000000000109                     I0227148     30111800000000035003410000017N200818104700000000000103011180000000000000000000000000000000000000000100059135085720CELIA MARINHO VIEIRA                    RUA MARICOABO                           PEDRA DE GUA23028290RIO DE JANEIRO RJUNIAO UMB DOS CULTOS AFRO BRAS    30111810 000200
10231987175000168817800093673    000026948                    000269480000000000000109                     I0226948     30091800000000035003410000017N200818104700000000000103009180000000000000000000000000000000000000000100010154945790SIMONE DE OLIVEIRA CUNHA                RUA ONZE                                JARDIM ROTSE25270080DUQUE DE CAXIASRJUNIAO UMB DOS CULTOS AFRO BRAS    30091810 000201
10231987175000168817800093673    000026600                    000266000000000000000109                     I0226600     30091800000000035003410000017N200818104700000000000103009180000000000000000000000000000000000000000100005529010750JOELMA MELO DA SILVA                    RUA DIONIZIO RIBEIRO CHAVES             ANAIA - SANT24737660SAO GONCALO    RJUNIAO UMB DOS CULTOS AFRO BRAS    30091810 000202
10231987175000168817800093673    000025734                    000257340000000000000109                     I0225734     30091800000000035003410000017N200818104700000000000103009180000000000000000000000000000000000000000100059135085720CELIA MARINHO VIEIRA                    RUA MARICOABO                           PEDRA DE GUA23028290RIO DE JANEIRO RJUNIAO UMB DOS CULTOS AFRO BRAS    30091810 000203
10231987175000168817800093673    000025533                    000255330000000000000109                     I0225533     30101800000000035003410000017N200818104700000000000103010180000000000000000000000000000000000000000100010154945790SIMONE DE OLIVEIRA CUNHA                RUA ONZE                                JARDIM ROTSE25270080DUQUE DE CAXIASRJUNIAO UMB DOS CULTOS AFRO BRAS    30101810 000204
10231987175000168817800093673    000025341                    000253410000000000000109                     I3425341     30101800000000035003410000017N200818104700000000000103010180000000000000000000000000000000000000000100089497899734UGO SILVA FILHO                         RUA CADETE ULISSES VEIGA                SAO CRISTOVA20940240RIO DE JANEIRO RJUNIAO UMB DOS CULTOS AFRO BRAS    30101810 000205
10231987175000168817800093673    000025062                    000250620000000000000109                     I0225062     30101800000000040003410000017N200818104700000000000103010180000000000000000000000000000000000000000100073243728720MARCOS AURELIO REIS DE CASTRO           RUA DAS ROSAS                           VILA VALQUEI21321382RIO DE JANEIRO RJUNIAO UMB DOS CULTOS AFRO BRAS    30101810 000206
10231987175000168817800093673    000025039                    000250390000000000000109                     I3425039     30101800000000035003410000017N200818104700000000000103010180000000000000000000000000000000000000000100011981552723DIEGO DE SIQUEIRA VIEIRA                RUA ACU                                 REALENGO    21765640RIO DE JANEIRO RJUNIAO UMB DOS CULTOS AFRO BRAS    30101810 000207
10231987175000168817800093673    000024481                    000244810000000000000109                     I0224481     30101800000000035003410000017N200818104700000000000103010180000000000000000000000000000000000000000100093151179720ELIZABETH DA SILVA GOIS                 RUA RAFAEL HAENNY                       SEPETIBA    23535640RIO DE JANEIRO RJUNIAO UMB DOS CULTOS AFRO BRAS    30101810 000208
10231987175000168817800093673    000024314                    000243140000000000000109                     I0224314     30101800000000035003410000017N200818104700000000000103010180000000000000000000000000000000000000000100059135085720CELIA MARINHO VIEIRA                    RUA MARICOABO                           PEDRA DE GUA23028290RIO DE JANEIRO RJUNIAO UMB DOS CULTOS AFRO BRAS    30101810 000209
10231987175000168817800093673    000024289                    000242890000000000000109                     I0224289     30101800000000035003410000017N200818104700000000000103010180000000000000000000000000000000000000000100030995980820JOSE ANACLETO DE LIMA                   RUA FREDI EMANUEL                       JARDIM JASMI26265110NOVA IGUACU    RJUNIAO UMB DOS CULTOS AFRO BRAS    30101810 000210
9                                                                                                                                                                                                                                                                                                                                                                                                         000211
