01REMESSA01COBRANCA       817800093673        União Umb dos Cultos Afro Bra341BANCO ITAU SA  190118                                                                                                                                                                                                                                                                                                      000001
10231987175000168817800093673    00007898                     000078980000000000000109                     I017898      28021800000000035003410000017N291217104700000000000102802180000000000000000000000000000000000000000100000259523747MONICA VALERIA DE JESUS OLIVEI          RUA IANDU, 63                           IRAJA - RJ  21220340RIO DE JANEIRO RJUNIAO UMB DOS CULTOS AFRO BRAS    28021810 000002
10231987175000168817800093673    00007222                     000072220000000000000109                     I017222      28021800000000035003410000017N271217104700000000000102802180000000000000000000000000000000000000000100012727461780SUELMIR LIMA DE ARAUJO                  RUA NOSSA SENHORA DAS GRACAS N 98       PRAIA DO ANI25925708MAGE           RJUNIAO UMB DOS CULTOS AFRO BRAS    28021810 000003
10231987175000168817800093673    00007221                     000072210000000000000109                     I017221      28021800000000035003410000017N271217104700000000000102802180000000000000000000000000000000000000000100009653128795FERNANDO RIBEIRO DE SOUZA               RUA JOAO PEDRO TESCH N 332 D            ALTO DA SERR25635500PETROPOLIS     RJUNIAO UMB DOS CULTOS AFRO BRAS    28021810 000004
10231987175000168817800093673    00007220                     000072200000000000000109                     I017220      28021800000000035003410000017N271217104700000000000102802180000000000000000000000000000000000000000100002142304737ILAIR FERNANDES BRAZILEIRO BOR          RUA VERISSIMO MACHADO N 395 FUNDOS      ROCHA MIRAND21545060RIO DE JANEIRO RJUNIAO UMB DOS CULTOS AFRO BRAS    28021810 000005
10231987175000168817800093673    00007219                     000072190000000000000109                     I017219      28021800000000035003410000017N271217104700000000000102802180000000000000000000000000000000000000000100011351878786GLEISSON BITTENCOURT DA SILVA           RUA FLORA DE ARAUJO N 310               PRATA - NOVA26010570NOVA IGUACU    RJUNIAO UMB DOS CULTOS AFRO BRAS    28021810 000006
10231987175000168817800093673    00007213                     000072130000000000000109                     I017213      28021800000000035003410000017N271217104700000000000102802180000000000000000000000000000000000000000100030894840720LIGIA REGINA ZACHARIAS DE MELO          RUA LAGO VERDE N 19 APT 302             INHAUMA - RI21051360RIO DE JANEIRO RJUNIAO UMB DOS CULTOS AFRO BRAS    28021810 000007
10231987175000168817800093673    00007212                     000072120000000000000109                     I017212      28021800000000035003410000017N271217104700000000000102802180000000000000000000000000000000000000000100007443282761WASHINGTON LUIZ DA SILVA RAMOS          RUA DEZESSETE N 78 - CONJUNTO LIBERDADE SANTA CRUZ -23560600RIO DE JANEIRO RJUNIAO UMB DOS CULTOS AFRO BRAS    28021810 000008
10231987175000168817800093673    00007211                     000072110000000000000109                     I017211      28021800000000035003410000017N271217104700000000000102802180000000000000000000000000000000000000000100007964006797JOSILENE MONTEIRO HERMOGENES            RUA PADRE MARINHO N 309                 SARACURUNA -25212450DUQUE DE CAXIASRJUNIAO UMB DOS CULTOS AFRO BRAS    28021810 000009
10231987175000168817800093673    00007210                     000072100000000000000109                     I017210      28021800000000035003410000017N271217104700000000000102802180000000000000000000000000000000000000000100010544644701RENATA DE OLIVEIRA SILVA                RUA NOSSA SENHORA DE NAZARE N 23 A      GERENCIANO -26061700NOVA IGUACU    RJUNIAO UMB DOS CULTOS AFRO BRAS    28021810 000010
10231987175000168817800093673    00007209                     000072090000000000000109                     I017209      28021800000000035003410000017N271217104700000000000102802180000000000000000000000000000000000000000100068373570772RONILCE CAMILO DA SILVA                 RUA RUBY ALBERTORIA N 2 - GERENCIANO    GERENCIANO -26061155NVOA IGUACU    RJUNIAO UMB DOS CULTOS AFRO BRAS    28021810 000011
10231987175000168817800093673    00007208                     000072080000000000000109                     I017208      28021800000000035003410000017N271217104700000000000102802180000000000000000000000000000000000000000100047442140700MARFIZA FERREIRA DA SILVA VENA          RUA EURICO COELHO N 50                  GRAMA - NOVA26060650NOVA IGUACU    RJUNIAO UMB DOS CULTOS AFRO BRAS    28021810 000012
9                                                                                                                                                                                                                                                                                                                                                                                                         000013
