01REMESSA01COBRANCA       916200163100        União Umb dos Cultos Afro Bra341BANCO ITAU SA  310119                                                                                                                                                                                                                                                                                                      000001
10231987175000168916200163100    000039701                    000397010000000000000109                     I0139701     31031900000000040003410000017N310119104700000000000103103190000000000000000000000000000000000000000100064431002715SERGIO MURILO ALVES PEREIRA             RUA CARLOS ACIOLI                       CABUCU      26351270SAO JOAO DE MERRJUNIAO UMB DOS CULTOS AFRO BRAS    31031910 000002
10231987175000168916200163100    000039700                    000397000000000000000109                     I0139700     28021900000000040003410000017N310119104700000000000102802190000000000000000000000000000000000000000100064431002715SERGIO MURILO ALVES PEREIRA             RUA CARLOS ACIOLI                       CABUCU      26351270SAO JOAO DE MERRJUNIAO UMB DOS CULTOS AFRO BRAS    28021910 000003
10231987175000168916200163100    000039699                    000396990000000000000109                     I0139699     08021900000000075003410000017N310119104700000000000100802190000000000000000000000000000000000000000100064431002715SERGIO MURILO ALVES PEREIRA             RUA CARLOS ACIOLI                       CABUCU      26351270SAO JOAO DE MERRJUNIAO UMB DOS CULTOS AFRO BRAS    08021910 000004
10231987175000168916200163100    000039698                    000396980000000000000109                     I0139698     06021900000000040003410000017N310119104700000000000100602190000000000000000000000000000000000000000100009350031779TAIS AZEVEDO DOS SANTOS CAMPOS          RUA: CLOTILDE DE OLIVEIRA RODRIGUES     FONSECA     24120170NITEROI        RJUNIAO UMB DOS CULTOS AFRO BRAS    06021910 000005
10231987175000168916200163100    000039697                    000396970000000000000109                     I0139697     31031900000000040003410000017N310119104700000000000103103190000000000000000000000000000000000000000100015477441704RAFAEL LOPES DOS SANTOS                 RUA ARARUAMA                            VILAR DOS TE25555820SAO JOAO DE MERRJUNIAO UMB DOS CULTOS AFRO BRAS    31031910 000006
10231987175000168916200163100    000039696                    000396960000000000000109                     I0139696     28021900000000040003410000017N310119104700000000000102802190000000000000000000000000000000000000000100015477441704RAFAEL LOPES DOS SANTOS                 RUA ARARUAMA                            VILAR DOS TE25555820SAO JOAO DE MERRJUNIAO UMB DOS CULTOS AFRO BRAS    28021910 000007
10231987175000168916200163100    000039695                    000396950000000000000109                     I0139695     06021900000000040003410000017N310119104700000000000100602190000000000000000000000000000000000000000100015477441704RAFAEL LOPES DOS SANTOS                 RUA ARARUAMA                            VILAR DOS TE25555820SAO JOAO DE MERRJUNIAO UMB DOS CULTOS AFRO BRAS    06021910 000008
10231987175000168916200163100    000039694                    000396940000000000000109                     I0139694     05021900000000350003410000017N310119104700000000000100502190000000000000000000000000000000000000000100002480281701CESAR AUGUSTO DA SILVA MARCIAL          RUA, TRES                               MANUELLE    00000000MARICA         RJUNIAO UMB DOS CULTOS AFRO BRAS    05021910 000009
10231987175000168916200163100    000039693                    000396930000000000000109                     I0139693     25021900000000400003410000017N310119104700000000000102502190000000000000000000000000000000000000000100001796220728MARIA ROSA ALVES DA SILVA               RUA DOUTOR ARRUDA NEGREIRO              PARQUE SENHO25025325DUQUE DE CAXIASRJUNIAO UMB DOS CULTOS AFRO BRAS    25021910 000010
10231987175000168916200163100    000039692                    000396920000000000000109                     I0139692     10021900000000400003410000017N310119104700000000000101002190000000000000000000000000000000000000000100007812001725FLAVIA DA ROSA SANTANA                  RUA PEDRO TELES                         CENTRO      25515030SAO JOAO DE MERRJUNIAO UMB DOS CULTOS AFRO BRAS    10021910 000011
10231987175000168916200163100    000039691                    000396910000000000000109                     I0139691     15021900000000350003410000017N310119104700000000000101502190000000000000000000000000000000000000000100045544085749LUCIANO PORTO DE MORAES                 RUA OLIMPIO DE CARVALHO                 AMENDOEIRA  24732440SAO GONCALO    RJUNIAO UMB DOS CULTOS AFRO BRAS    15021910 000012
9                                                                                                                                                                                                                                                                                                                                                                                                         000013
