01REMESSA01COBRANCA       817800093673        União Umb dos Cultos Afro Bra341BANCO ITAU SA  041218                                                                                                                                                                                                                                                                                                      000001
10231987175000168817800093673    000033535                    000335350000000000000109                     I0133535     10121800000000806153410000017N041218104700000000000101012180000000000000000000000000000000000000000100099608421420NEHILTON ANTONIO DOS SANTOS             RUA: ALCIDES MAIA                       BENTO RIBEIR21550560RIO DE JANEIRO RJUNIAO UMB DOS CULTOS AFRO BRAS    10121810 000002
10231987175000168817800093673    000033534                    000335340000000000000109                     I0133534     10121800000000600003410000017N041218104700000000000101012180000000000000000000000000000000000000000100087309173791SERGIO RICARDO MANHAES SILVA            RUA: ALCIDES MAIA                       BENTO RIBEIR21550560RIO DE JANEIRO RJUNIAO UMB DOS CULTOS AFRO BRAS    10121810 000003
10231987175000168817800093673    000033533                    000335330000000000000109                     I0133533     10121800000000850723410000017N041218104700000000000101012180000000000000000000000000000000000000000100013946879772ALDENI ALBENORA DA SILVA                RUA: JOAO DANIEL                        BENTO RIBEIR21550480RIO DE JANEIRO RJUNIAO UMB DOS CULTOS AFRO BRAS    10121810 000004
10231987175000168817800093673    000033532                    000335320000000000000109                     I0133532     10121800000000895723410000017N041218104700000000000101012180000000000000000000000000000000000000000100049547410768ROSELI DE SAO JOSE MOREIRA              RUA: ALCIDES MAIA                       BENTO RIBEIR21550560RIO DE JANEIRO RJUNIAO UMB DOS CULTOS AFRO BRAS    10121810 000005
10231987175000168817800093673    000033531                    000335310000000000000109                     I0133531     10121800000000720953410000017N041218104700000000000101012180000000000000000000000000000000000000000100004244110755ANA PAULA SILVA BARBOSA                 RUA: ALCIDES MAIA                       BENTO RIBEIR21550560RIO DE JANEIRO RJUNIAO UMB DOS CULTOS AFRO BRAS    10121810 000006
10231987175000168817800093673    000033530                    000335300000000000000109                     I0133530     10121800000000706153410000017N041218104700000000000101012180000000000000000000000000000000000000000100001061174751SAMUEL ANTONIO TRINDADE                 RUA: ALCIDES MAIA                       BENTO RIBEIR21550560RIO DE JANEIRO RJUNIAO UMB DOS CULTOS AFRO BRAS    10121810 000007
10231987175000168817800093673    000033529                    000335290000000000000109                     I0133529     10121800000000600673410000017N041218104700000000000101012180000000000000000000000000000000000000000100007854516766NATALIE SILVA DE LIMA                   RUA: JOAO DANIEL                        BENTO RIBEIR21550480RIO DE JANEIRO RJUNIAO UMB DOS CULTOS AFRO BRAS    10121810 000008
10231987175000168817800093673    000033528                    000335280000000000000109                     I0133528     10121800000000770723410000017N041218104700000000000101012180000000000000000000000000000000000000000100082228507768IARA LUCIA RIBEIRO QUINTINO             RUA: JOAO DANIEL                        BENTO RIBEIR21550480RIO DE JANEIRO RJUNIAO UMB DOS CULTOS AFRO BRAS    10121810 000009
10231987175000168817800093673    000033527                    000335270000000000000109                     I0133527     10121800000000300983410000017N041218104700000000000101012180000000000000000000000000000000000000000100068760680725ANNA LUCIA DE SOUZA                     RUA: JOAO DANIEL                        BENTO RIBEIR21550480RIO DE JANEIRO RJUNIAO UMB DOS CULTOS AFRO BRAS    10121810 000010
10231987175000168817800093673    000033526                    000335260000000000000109                     I0133526     10121800000000600723410000017N041218104700000000000101012180000000000000000000000000000000000000000100078566738772MARINA SOARES DA SILVA                  RUA: JOAO DANIEL                        BENTO RIBEIR21550480RIO DE JANEIRO RJUNIAO UMB DOS CULTOS AFRO BRAS    10121810 000011
10231987175000168817800093673    000033525                    000335250000000000000109                     I0133525     10121800000000420983410000017N041218104700000000000101012180000000000000000000000000000000000000000100068760680725ANNA LUCIA DE SOUZA                     RUA: JOAO DANIEL                        BENTO RIBEIR21550480RIO DE JANEIRO RJUNIAO UMB DOS CULTOS AFRO BRAS    10121810 000012
10231987175000168817800093673    000033524                    000335240000000000000109                     I0133524     10121800000000535723410000017N041218104700000000000101012180000000000000000000000000000000000000000100093728467791ALEX DE SOUZA MARTINS                   RUA: JOAO DANIEL                        BENTO RIBEIR21550480RIO DE JANEIRO RJUNIAO UMB DOS CULTOS AFRO BRAS    10121810 000013
10231987175000168817800093673    000033523                    000335230000000000000109                     I0133523     10121800000001200003410000017N041218104700000000000101012180000000000000000000000000000000000000000100012701486726MARIANA MAGALHAES DE C. J. I.           RUA: SALOMAO FILHO                      MARECHAL HER21331660RIO DE JANEIRO RJUNIAO UMB DOS CULTOS AFRO BRAS    10121810 000014
10231987175000168817800093673    000033522                    000335220000000000000109                     I0133522     07011900000000350003410000017N041218104700000000000100701190000000000000000000000000000000000000000100000000008400DANIEL DOMINGOS DA SILVA                O MESMO                                 O MESMO     00000000NOVA IGUACU    RJUNIAO UMB DOS CULTOS AFRO BRAS    07011910 000015
10231987175000168817800093673    000033521                    000335210000000000000109                     I0133521     30121800000000350003410000017N041218104700000000000103012180000000000000000000000000000000000000000100099363704734SUELY FERNANDES LAPAS OLIVEIRA          RUA SARUTAIA                            GUARATIBA   23032620RIO DE JANEIRO RJUNIAO UMB DOS CULTOS AFRO BRAS    30121810 000016
10231987175000168817800093673    000033520                    000335200000000000000109                     I0133520     20121800000000350003410000017N041218104700000000000102012180000000000000000000000000000000000000000100049175920700WANDA ALVES DE LIMA LEAL                RUA: PORTO RICO                         VIGARIO GERA00000000RIO DE JANEIRO RJUNIAO UMB DOS CULTOS AFRO BRAS    20121810 000017
10231987175000168817800093673    000033519                    000335190000000000000109                     I0133519     20121800000000040003410000017N041218104700000000000102012180000000000000000000000000000000000000000100049175920700WANDA ALVES DE LIMA LEAL                RUA: PORTO RICO                         VIGARIO GERA00000000RIO DE JANEIRO RJUNIAO UMB DOS CULTOS AFRO BRAS    20121810 000018
10231987175000168817800093673    000033518                    000335180000000000000109                     I0133518     20121800000000250003410000017N041218104700000000000102012180000000000000000000000000000000000000000100001814469796LEILA FERNANDES DA COSTA                RUA: PASTOR MARTINS LUTHER KING JUNIOR  IRAJA       21371312RIO DE JANEIRO RJUNIAO UMB DOS CULTOS AFRO BRAS    20121810 000019
10231987175000168817800093673    000033379                    000333790000000000000109                     I0233379     30111800000000210003410000017N071118104700000000000103011180000000000000000000000000000000000000000100000000000000ZUILA DE MELO E SILVA COVA              RUA TAMOIOS                             SAO FRANCISC24360380NITEROI        RJUNIAO UMB DOS CULTOS AFRO BRAS    30111810 000020
10231987175000168817800093673    000032659                    000326590000000000000109                     I3432659     20121800000000350003410000017N291018104700000000000102012180000000000000000000000000000000000000000100069602131772JOESSE JOSE DE OLIVEIRA                 RUA BOA ESPERANCA                       RIO COMPRIDO20250495RIO DE JANEIRO RJUNIAO UMB DOS CULTOS AFRO BRAS    20121810 000021
10231987175000168817800093673    000032516                    000325160000000000000109                     I0232516     20121800000000350003410000017N291018104700000000000102012180000000000000000000000000000000000000000100054581184720MARIA LUIZA DE SOUZA                    RUA JASMIM                              POSSE - JARD26021720NOVA IGUACU    RJUNIAO UMB DOS CULTOS AFRO BRAS    20121810 000022
10231987175000168817800093673    000032229                    000322290000000000000109                     I3432229     20121800000000350003410000017N291018104700000000000102012180000000000000000000000000000000000000000100002576674747MINERVINA DOS SANTOS TERRA              AVENIDA: JOAO RIBEIRO                   PILARES     20750092RIO DE JANEIRO RJUNIAO UMB DOS CULTOS AFRO BRAS    20121810 000023
10231987175000168817800093673    000032144                    000321440000000000000109                     I0232144     20121800000000350003410000017N291018104700000000000102012180000000000000000000000000000000000000000100066255970744MARIA HELENA OLIVEIRA ALBUQUER          RUA CONDE DE RESENDE                    BENTO RIBEIR21550600RIO DE JANEIRO RJUNIAO UMB DOS CULTOS AFRO BRAS    20121810 000024
10231987175000168817800093673    000032088                    000320880000000000000109                     I3432088     20121800000000350003410000017N291018104700000000000102012180000000000000000000000000000000000000000100051364476720JOSE DA SILVA BIDES                     TRAVESSA SANTA LUZIA                    SENADOR CAMA21832307RIO DE JANEIRO RJUNIAO UMB DOS CULTOS AFRO BRAS    20121810 000025
10231987175000168817800093673    000031856                    000318560000000000000109                     I3431856     20121800000000350003410000017N291018104700000000000102012180000000000000000000000000000000000000000100002534185349MARIA JOSE DINIZ                        RUA DOM VITAL                           BENTO RIBEIR21550430RIO DE JANEIRO RJUNIAO UMB DOS CULTOS AFRO BRAS    20121810 000026
10231987175000168817800093673    000031406                    000314060000000000000109                     I3431406     20121800000000350003410000017N291018104700000000000102012180000000000000000000000000000000000000000100062543148787JOEL FRANCISCO DOS SANTOS               RUA FREDERICO SANTONI                   ENGENHO DA R20766520RIO DE JANEIRO RJUNIAO UMB DOS CULTOS AFRO BRAS    20121810 000027
10231987175000168817800093673    000031183                    000311830000000000000109                     I0231183     20121800000000350003410000017N291018104700000000000102012180000000000000000000000000000000000000000100001814469796LEILA FERNANDES DA COSTA                RUA: PASTOR MARTINS LUTHER KING JUNIOR  IRAJA       21371312RIO DE JANEIRO RJUNIAO UMB DOS CULTOS AFRO BRAS    20121810 000028
10231987175000168817800093673    000030135                    000301350000000000000109                     I0230135     20121800000000035003410000017N291018104700000000000102012180000000000000000000000000000000000000000100000920173713JORGE DOS SANTOS LUCAS                  RUA PP                                  JARDIM ANHAN25264360DUQUE DE CAXIASRJUNIAO UMB DOS CULTOS AFRO BRAS    20121810 000029
10231987175000168817800093673    000029979                    000299790000000000000109                     I3429979     20121800000000035003410000017N291018104700000000000102012180000000000000000000000000000000000000000100008997230719RAIMUNDA DE SOUZA MEDEIROS              RUA DANIEL MARINHO                      RIO DAS PEDR22753039RIO DE JANEIRO RJUNIAO UMB DOS CULTOS AFRO BRAS    20121810 000030
10231987175000168817800093673    000028925                    000289250000000000000109                     I0228925     30101800000000350003410000017N111018104700000000000103010180000000000000000000000000000000000000000100001660709717ALEXANDRE TEIXEIRA DE OLIVEIRA          RUA ITU                                 PARQUE SAO B26167200BELFORD ROXO   RJUNIAO UMB DOS CULTOS AFRO BRAS    30101810 000031
10231987175000168817800093673    000028243                    000282430000000000000109                     I0228243     30111800000000035003410000017N200818104700000000000103011180000000000000000000000000000000000000000100000920173713JORGE DOS SANTOS LUCAS                  RUA PP                                  JARDIM ANHAN25264360DUQUE DE CAXIASRJUNIAO UMB DOS CULTOS AFRO BRAS    30111810 000032
10231987175000168817800093673    000027296                    000272960000000000000109                     I0227296     30111800000000035003410000017N200818104700000000000103011180000000000000000000000000000000000000000100000000000000ZUILA DE MELO E SILVA COVA              RUA TAMOIOS                             SAO FRANCISC24360380NITEROI        RJUNIAO UMB DOS CULTOS AFRO BRAS    30111810 000033
10231987175000168817800093673    000027235                    000272350000000000000109                     I0227235     30111800000000035003410000017N200818104700000000000103011180000000000000000000000000000000000000000100043397170706VERA LUCIA FERREIRA DA SILVA            RUA ALICE                               COMENDADOR S26262030NOVA IGUACU    RJUNIAO UMB DOS CULTOS AFRO BRAS    30111810 000034
10231987175000168817800093673    000025406                    000254060000000000000109                     I0225406     30101800000000035003410000017N200818104700000000000103010180000000000000000000000000000000000000000100000920173713JORGE DOS SANTOS LUCAS                  RUA PP                                  JARDIM ANHAN25264360DUQUE DE CAXIASRJUNIAO UMB DOS CULTOS AFRO BRAS    30101810 000035
9                                                                                                                                                                                                                                                                                                                                                                                                         000036
