01REMESSA01COBRANCA       817800093673        União Umb dos Cultos Afro Bra341BANCO ITAU SA  310318                                                                                                                                                                                                                                                                                                      000001
10231987175000168817800093673    000014299                    000142990000000000000109                     I0214299     30051800000000035003410000017N290318104700000000000103005180000000000000000000000000000000000000000100082187401715JOSE AUGUSTO DA PAIXAO                  RUA GOMES CARNEIRO                      SARACURUNA  25211050DUQUE DE CAXIASRJUNIAO UMB DOS CULTOS AFRO BRAS    30051810 000002
10231987175000168817800093673    000014298                    000142980000000000000109                     I0214298     30041800000000035003410000017N290318104700000000000103004180000000000000000000000000000000000000000100082187401715JOSE AUGUSTO DA PAIXAO                  RUA GOMES CARNEIRO                      SARACURUNA  25211050DUQUE DE CAXIASRJUNIAO UMB DOS CULTOS AFRO BRAS    30041810 000003
10231987175000168817800093673    000014297                    000142970000000000000109                     I0214297     30051800000000035003410000017N290318104700000000000103005180000000000000000000000000000000000000000100011622292766ROBERT HELENO MACEDO                    TRAVESSA JOSE CARRETEIRO                ENGENHOCA   24110444NITEROI        RJUNIAO UMB DOS CULTOS AFRO BRAS    30051810 000004
10231987175000168817800093673    000014296                    000142960000000000000109                     I0214296     30041800000000035003410000017N290318104700000000000103004180000000000000000000000000000000000000000100011622292766ROBERT HELENO MACEDO                    TRAVESSA JOSE CARRETEIRO                ENGENHOCA   24110444NITEROI        RJUNIAO UMB DOS CULTOS AFRO BRAS    30041810 000005
10231987175000168817800093673    000014295                    000142950000000000000109                     I0214295     30051800000000035003410000017N290318104700000000000103005180000000000000000000000000000000000000000100064437860700VALCI BARBOSA CAMPOS                    TRAVESSA PADRE CICERO - 3 FUNDOS        SANTA ROSA -24310340NITEROI        RJUNIAO UMB DOS CULTOS AFRO BRAS    30051810 000006
10231987175000168817800093673    000014294                    000142940000000000000109                     I0214294     30041800000000035003410000017N290318104700000000000103004180000000000000000000000000000000000000000100064437860700VALCI BARBOSA CAMPOS                    TRAVESSA PADRE CICERO - 3 FUNDOS        SANTA ROSA -24310340NITEROI        RJUNIAO UMB DOS CULTOS AFRO BRAS    30041810 000007
10231987175000168817800093673    000014255                    000142550000000000000109                     I0214255     30031800000000070003410000017N210318104700000000000103003180000000000000000000000000000000000000000100013565688742CAIO CESAR DUARTE DE SOUZA              RUA CALUMBI, 300 APT 305                IRAJA - RIO 21361260RIO DE JANEIRO RJUNIAO UMB DOS CULTOS AFRO BRAS    30031810 000008
10231987175000168817800093673    000010274                    000102740000000000000109                     I0210274     30031800000000035003410000017N200218104700000000000103003180000000000000000000000000000000000000000100013565688742CAIO CESAR DUARTE DE SOUZA              RUA CALUMBI, 300 APT 305                IRAJA - RIO 21361260RIO DE JANEIRO RJUNIAO UMB DOS CULTOS AFRO BRAS    30031810 000009
10231987175000168817800093673    00005676                     000056760000000000000109                     I025676      31011800000000035003410000017N261217104700000000000103101180000000000000000000000000000000000000000100013565688742CAIO CESAR DUARTE DE SOUZA              RUA CALUMBI, 300 APT 305                IRAJA - RIO 21361260RIO DE JANEIRO RJUNIAO UMB DOS CULTOS AFRO BRAS    31011810 000010
10231987175000168817800093673    00004679                     000046790000000000000109                     I024679      20121700000000700003410000017N291117104700000000000102012170000000000000000000000000000000000000000100005447634750CRISTIANO DIEFENTHAELER                 O MESMO                                 O MESMO     25977035TERESOPOLIS    RJUNIAO UMB DOS CULTOS AFRO BRAS    20121710 000011
10231987175000168817800093673    00004664                     000046640000000000000109                     I024664      20121700000000350003410000017N241117104700000000000102012170000000000000000000000000000000000000000100094443211772SANDRA LEILA ANACLETO SIQUEIRA          RUA RAUL VEIGA, 315                     QUITANDINHA 25635110PETROPOLIS     RJUNIAO UMB DOS CULTOS AFRO BRAS    20121710 000012
10231987175000168817800093673    00004661                     000046610000000000000109                     I024661      20121700000000350003410000017N241117104700000000000102012170000000000000000000000000000000000000000100000441487718DALVA LUIZ GOMES                        RUA: PARAISO LOTE 10 QUADRA 94 CASA 3 - NOVA IGUACU 26291446NOVA IGUACU    RJUNIAO UMB DOS CULTOS AFRO BRAS    20121710 000013
10231987175000168817800093673    00004659                     000046590000000000000109                     I024659      20121700000000350003410000017N241117104700000000000102012170000000000000000000000000000000000000000100080618901787RENIL DE MELLO FILHO                    RUA FREDERICO KRONEMBERGER, 287         MOSELA - PET25675090PETROPOLIS     RJUNIAO UMB DOS CULTOS AFRO BRAS    20121710 000014
10231987175000168817800093673    00004656                     000046560000000000000109                     I024656      20121700000000350003410000017N241117104700000000000102012170000000000000000000000000000000000000000100000559929781KLEBER SIQUEIRA CUNHA                   ESTRADA DO PIAI N 300                   GUARATIBA - 23028050RIO DE JANEIRO RJUNIAO UMB DOS CULTOS AFRO BRAS    20121710 000015
10231987175000168817800093673    00004643                     000046430000000000000109                     I024643      20121700000000340003410000017N211117104700000000000102012170000000000000000000000000000000000000000100013849060705LEONARDO ENEDINA DE MELO                O MESMO                                 O MESMO     26050517NOVA IGUACU    RJUNIAO UMB DOS CULTOS AFRO BRAS    20121710 000016
10231987175000168817800093673    00001669                     000016690000000000000109                     I021669      20121700000000400003410000017N011117104700000000000102012170000000000000000000000000000000000000000100001680132741SANDRA NOGUEIRA DE BRITO                RUA BARATA RIBEIRO 726 APT 602          COPACABANA -22051000RIO DE JANEIRO RJUNIAO UMB DOS CULTOS AFRO BRAS    20121710 000017
10231987175000168817800093673    00001663                     000016630000000000000109                     I021663      20121700000000400003410000017N311017104700000000000102012170000000000000000000000000000000000000000100009263590702JEAN CARLOS DOS SANTOS                  RUA NEVES LOTE 8 QUADRA 3               PARQUE ARARU25585580SAO JOAO DE MERRJUNIAO UMB DOS CULTOS AFRO BRAS    20121710 000018
10231987175000168817800093673    00001661                     000016610000000000000109                     I021661      20121700000000400003410000017N301017104700000000000102012170000000000000000000000000000000000000000100007151714700VERONICA CONCEICAO DE SOUZA AN          O MESMO                                 0 MESMO     21545420RIO DE JANEIRO RJUNIAO UMB DOS CULTOS AFRO BRAS    20121710 000019
10231987175000168817800093673    00001598                     000015980000000000000109                     I021598      20121700000000300003410000017N251017104700000000000102012170000000000000000000000000000000000000000100007429798659LUCIANA DIAS DE ARRUDA                  RUA CECILIA BRAGA N 16 - SANTO ANTONIO  UBA - MINAS 36500000UBA            MGUNIAO UMB DOS CULTOS AFRO BRAS    20121710 000020
10231987175000168817800093673    00001597                     000015970000000000000109                     I021597      20121700000000400003410000017N251017104700000000000102012170000000000000000000000000000000000000000100037497030787LINDINALVA AGUIAR PAVANELLI             O MESMO                                 O MESMO     22230010RIO DE JANEIRO RJUNIAO UMB DOS CULTOS AFRO BRAS    20121710 000021
10231987175000168817800093673    00001595                     000015950000000000000109                     I021595      20121700000000300003410000017N251017104700000000000102012170000000000000000000000000000000000000000100097402508749MARIA DE OLIVEIRA SOUZA SAMPAI          RUA PROJETADA A, 47                     JARDIM NOVA 25000000DUQUE DE CAXIASRJUNIAO UMB DOS CULTOS AFRO BRAS    20121710 000022
10231987175000168817800093673    00001592                     000015920000000000000109                     I021592      20121700000000340003410000017N251017104700000000000102012170000000000000000000000000000000000000000100003538138770ELIZABETH DE SANTANA                    RUA FIGUEIREDO PIMENTEL, 84 CASA 1      ABOLICAO - R20750200RIO DE JANEIRO RJUNIAO UMB DOS CULTOS AFRO BRAS    20121710 000023
10231987175000168817800093673    00001589                     000015890000000000000109                     I021589      20121700000000340003410000017N251017104700000000000102012170000000000000000000000000000000000000000100060921051723GEIZA RODRIGUES GANDRA                  RUA MARTINS JUNIOR, 16                  VAL VERDE - 26335320NOVA IGUACU    RJUNIAO UMB DOS CULTOS AFRO BRAS    20121710 000024
10231987175000168817800093673    00001588                     000015880000000000000109                     I021588      20121700000000340003410000017N251017104700000000000102012170000000000000000000000000000000000000000100099029359749ANDRE LUIZ REIS GRACIO                  RUA PIRAMBOIA N 130                     SENADOR VASC23012300RIO DE JANEIRO RJUNIAO UMB DOS CULTOS AFRO BRAS    20121710 000025
10231987175000168817800093673    00001587                     000015870000000000000109                     I021587      20121700000000340003410000017N251017104700000000000102012170000000000000000000000000000000000000000100085258610730CRISTINA ROSA DE JESUS BASILIO          RUA NILZA GURGEL, 615 CASA 3            VILA EMIL - 26580310MESQUITA       RJUNIAO UMB DOS CULTOS AFRO BRAS    20121710 000026
10231987175000168817800093673    00001586                     000015860000000000000109                     I021586      20121700000000340003410000017N251017104700000000000102012170000000000000000000000000000000000000000100086945971791GELSON RAMOS DE CARVALHO                RUA BARAUNA, 249                        ANCHIETA - R21645050RIO DE JANEIRO RJUNIAO UMB DOS CULTOS AFRO BRAS    20121710 000027
10231987175000168817800093673    00001584                     000015840000000000000109                     I021584      20121700000000340003410000017N251017104700000000000102012170000000000000000000000000000000000000000100068351828734MARIA DAS GRACAS RODRIGUES FEL          RUA ALVARES GONCALVES, 450 - PARQUE SAUDVILA DE CAVA26052300NOVA IGUACU    RJUNIAO UMB DOS CULTOS AFRO BRAS    20121710 000028
10231987175000168817800093673    00001577                     000015770000000000000109                     I021577      20121700000000340003410000017N251017104700000000000102012170000000000000000000000000000000000000000100082940983704JURACIARA DA CONCEICAO                  RUA ASSIS VASCONCELOS N 385             PILARES - RI20755010RIO DE JANEIRO RJUNIAO UMB DOS CULTOS AFRO BRAS    20121710 000029
10231987175000168817800093673    00001572                     000015720000000000000109                     I021572      20121700000000340003410000017N251017104700000000000102012170000000000000000000000000000000000000000200000000007124NORMA RAMOS VIANNA                      AVENIDA PERNAMBUCANA, 1680              V.ROSALI - S25510430SAO JOAO DE MERRJUNIAO UMB DOS CULTOS AFRO BRAS    20121710 000030
10231987175000168817800093673    00001569                     000015690000000000000109                     I021569      20121700000000340003410000017N251017104700000000000102012170000000000000000000000000000000000000000200000000001244JORGE LUCIO                             AVENIDA DOS ITALIANOS N 936 BLOCO A APT ROCHA MIRAND21510104RIO DE JANEIRO RJUNIAO UMB DOS CULTOS AFRO BRAS    20121710 000031
10231987175000168817800093673    00001566                     000015660000000000000109                     I021566      20121700000000340003410000017N251017104700000000000102012170000000000000000000000000000000000000000100000062208780CELSO ROBERTO NUNES DE ANDRADE          RUA  BERTIOGA, 161 CASA 2               BRAS DE PINA21215218RIO DE JANEIRO RJUNIAO UMB DOS CULTOS AFRO BRAS    20121710 000032
10231987175000168817800093673    00001562                     000015620000000000000109                     I021562      20121700000000340003410000017N251017104700000000000102012170000000000000000000000000000000000000000100001306191750PAULO CESAR DE PAULA CALDEIRA           RUA OSCARINA DE FREITAS, 188 - SAGRADO CPALMARES - P23065500RIO DE JANEIRO RJUNIAO UMB DOS CULTOS AFRO BRAS    20121710 000033
10231987175000168817800093673    00001560                     000015600000000000000109                     I021560      20121700000000340003410000017N251017104700000000000102012170000000000000000000000000000000000000000100000441127770NOEMIA DINANTES GOMES                   RUA COELHO DA ROCHA N 596               AGOSTINHO PO25550690SAO JOAO DE MERRJUNIAO UMB DOS CULTOS AFRO BRAS    20121710 000034
10231987175000168817800093673    00001412                     000014120000000000000109                     I021412      20121700000000350003410000017N241017104700000000000102012170000000000000000000000000000000000000000100010267774702NATHALIA SOUTELINHO FERREIRA            MARIA NATALIA                           GUARATIBA   23028270RIO DE JANEIRO RJUNIAO UMB DOS CULTOS AFRO BRAS    20121710 000035
10231987175000168817800093673    00001407                     000014070000000000000109                     I021407      20121700000000340003410000017N241017104700000000000102012170000000000000000000000000000000000000000100087162518715VILMA TEJO PEREIRA MAIA                 RUA RONDA ALTA QUADRA 188 LOTE 37       JARDIM MARAV23031320GUARATIBA      RJUNIAO UMB DOS CULTOS AFRO BRAS    20121710 000036
10231987175000168817800093673    00001404                     000014040000000000000109                     I021404      20121700000000350003410000017N241017104700000000000102012170000000000000000000000000000000000000000100003436203750ANDRE HENRIQUE FELICIO DE AZEV          ESTRADA: VELHA DO PIAI Nº 328 B        SEPETIBA - R23530800RIO DE JANEIRO RJUNIAO UMB DOS CULTOS AFRO BRAS    20121710 000037
10231987175000168817800093673    00001401                     000014010000000000000109                     I021401      20121700000000340003410000017N241017104700000000000102012170000000000000000000000000000000000000000100099029359749ANDRE LUIZ REIS GRACIO                  RUA PIRAMBOIA N 130                     SENADOR VASC23012300RIO DE JANEIRO RJUNIAO UMB DOS CULTOS AFRO BRAS    20121710 000038
10231987175000168817800093673    00001392                     000013920000000000000109                     I021392      20121700000000340003410000017N241017104700000000000102012170000000000000000000000000000000000000000100050775561720LEANDRO MECENAS DA CUNHA                RUA GUATOS N 34                         PARQUE SAO C26051640NOVA IGUACU    RJUNIAO UMB DOS CULTOS AFRO BRAS    20121710 000039
10231987175000168817800093673    00001391                     000013910000000000000109                     I021391      20121700000000340003410000017N241017104700000000000102012170000000000000000000000000000000000000000100045619581772EDELZUITA PESSOA DA SILVA               RUA DONA JULIETA N 55 - MIGUEL COUTO    MIGUEL COUTO26147160NOVA IGUACU    RJUNIAO UMB DOS CULTOS AFRO BRAS    20121710 000040
10231987175000168817800093673    00001387                     000013870000000000000109                     I021387      20121700000000340003410000017N241017104700000000000102012170000000000000000000000000000000000000000100007295283757DULCE DOS SANTOS MONTEIRO               AVENIDA ESTACIO DE SA LOTE 32 QUADRA 17 PARQUE NOVO 25585000SAO JOAO DE MERRJUNIAO UMB DOS CULTOS AFRO BRAS    20121710 000041
10231987175000168817800093673    00001386                     000013860000000000000109                     I021386      20121700000000340003410000017N241017104700000000000102012170000000000000000000000000000000000000000100099272946700MARCOS ANTONIO DA SILVA                 RUA PIACAVA N 100                       VILA MARILIA26040210NOVA IGUACU    RJUNIAO UMB DOS CULTOS AFRO BRAS    20121710 000042
10231987175000168817800093673    00001385                     000013850000000000000109                     I021385      20121700000000340003410000017N241017104700000000000102012170000000000000000000000000000000000000000100058194606772MARIA DA PENHA BARREIRO REIS            RUA RODOLFO N 951                       CAIOABA - MI26070518NOVA IGUACU    RJUNIAO UMB DOS CULTOS AFRO BRAS    20121710 000043
10231987175000168817800093673    00001382                     000013820000000000000109                     I021382      20121700000000340003410000017N241017104700000000000102012170000000000000000000000000000000000000000200000000008438MARIA LEOPOLDINO DE MATOS               RUA URUCURANA N 177                     BOA ESPERANC26143140NOVA IGUACU    RJUNIAO UMB DOS CULTOS AFRO BRAS    20121710 000044
10231987175000168817800093673    00001379                     000013790000000000000109                     I021379      20121700000000340003410000017N241017104700000000000102012170000000000000000000000000000000000000000100007485965778GRACIETE LEAO TANGUA                    RUA ROBERTO RANGEL LIMA LOTE 16 QUADRA GMAURI - PIAB25915000MAGE           RJUNIAO UMB DOS CULTOS AFRO BRAS    20121710 000045
10231987175000168817800093673    00001372                     000013720000000000000109                     I021372      20121700000000340003410000017N241017104700000000000102012170000000000000000000000000000000000000000100050390473715TUPIARA LOPES MATHIAS                   RUA IGUACU  532                         ENGENHOCA BA24111210NITEROI        RJUNIAO UMB DOS CULTOS AFRO BRAS    20121710 000046
10231987175000168817800093673    00001371                     000013710000000000000109                     I021371      20121700000000340003410000017N241017104700000000000102012170000000000000000000000000000000000000000100007039391732LAIZ ANDRADE DA CRUZ                    RUA GURUPATUBA N 15                     BRAS DE PINA21012300RIO DE JANEIRO RJUNIAO UMB DOS CULTOS AFRO BRAS    20121710 000047
10231987175000168817800093673    00001367                     000013670000000000000109                     I021367      20121700000000340003410000017N241017104700000000000102012170000000000000000000000000000000000000000200000000008294MARIA ALICE MANOEL DO VALE              RUA B LOTE 9 QUADRA 3 - JARDIM MARAMBAIAJARDIM MARAM24800000ITABORAI       RJUNIAO UMB DOS CULTOS AFRO BRAS    20121710 000048
10231987175000168817800093673    00001364                     000013640000000000000109                     I021364      20121700000000340003410000017N241017104700000000000102012170000000000000000000000000000000000000000200000000004184CARLOS ALBERTO DA SILVA SANTOS          AVENIDA MARIA DE SENA MOREIRA, 218      INCOFINDENCI26085060RIO DE JANEIRO RJUNIAO UMB DOS CULTOS AFRO BRAS    20121710 000049
10231987175000168817800093673    00001359                     000013590000000000000109                     I021359      20121700000000340003410000017N241017104700000000000102012170000000000000000000000000000000000000000100002919276700ALTIVA CARVALHO DE QUEIROZ              RUA IGARATA, 760                        MARECHAL HER21555250RIO DE JANEIRO RJUNIAO UMB DOS CULTOS AFRO BRAS    20121710 000050
10231987175000168817800093673    00001356                     000013560000000000000109                     I021356      20121700000000340003410000017N241017104700000000000102012170000000000000000000000000000000000000000100077526694749FATIMA CRISTINA DA CUNHA PINHE          RUA TRAVESSA SANTO MAXIMO, 25           GUADALUPE - 21655780RIO DE JANEIRO RJUNIAO UMB DOS CULTOS AFRO BRAS    20121710 000051
10231987175000168817800093673    00001354                     000013540000000000000109                     I021354      20121700000000400003410000017N241017104700000000000102012170000000000000000000000000000000000000000100000059525738MONICA SOARES MAGALHAES                 RUA: AMALIA Nº 117                     QUINTINO - R21380400RIO DE JANEIRO RJUNIAO UMB DOS CULTOS AFRO BRAS    20121710 000052
10231987175000168817800093673    00001351                     000013510000000000000109                     I021351      20121700000000300003410000017N241017104700000000000102012170000000000000000000000000000000000000000100073900052700MARIA D AJUDA PESSOA                    RUA: PONTA PORA LOTE 5 QUADRA 3 - AMAPA DUQUE DE CAX25055230DUQUE DE CAXIASRJUNIAO UMB DOS CULTOS AFRO BRAS    20121710 000053
10231987175000168817800093673    00001343                     000013430000000000000109                     I021343      20121700000000300003410000017N241017104700000000000102012170000000000000000000000000000000000000000100041280784768LUCIENE RIBEIRO EVA                     RUA: A LOTE 37 QUADRA 16                JARDIM ANHAN25264580DUQUE DE CAXIASRJUNIAO UMB DOS CULTOS AFRO BRAS    20121710 000054
10231987175000168817800093673    00001341                     000013410000000000000109                     I021341      20121700000000340003410000017N241017104700000000000102012170000000000000000000000000000000000000000100003667865716MARIA DO SOCORRO DA SILVA ANGE          RUA: ARISTOTELES LOTE 10 QUADRA 55 - VILDUQUE DE CAX25041180DUQUE DE CAXIASRJUNIAO UMB DOS CULTOS AFRO BRAS    20121710 000055
10231987175000168817800093673    00001339                     000013390000000000000109                     I021339      20121700000000400003410000017N241017104700000000000102012170000000000000000000000000000000000000000100065138210700TANIA CRISTINA DOS SANTOS PERE          RUA: BOM JARDIM Nº 521                 GRAMACHO - D25035060DUQUE DE CAXIASRJUNIAO UMB DOS CULTOS AFRO BRAS    20121710 000056
10231987175000168817800093673    00001336                     000013360000000000000109                     I021336      20121700000000340003410000017N241017104700000000000102012170000000000000000000000000000000000000000100071056319709LAURECI DOS SANTOS                      RUA BERNARDO MONTEIRO, LOTE 7 QUADRA 157JD OLAVO BIL25025320DUQUE DE CAXIASRJUNIAO UMB DOS CULTOS AFRO BRAS    20121710 000057
10231987175000168817800093673    00001331                     000013310000000000000109                     I021331      20121700000000340003410000017N241017104700000000000102012170000000000000000000000000000000000000000200000000004796HELENA ALVES BRAZ                       RUA JUTAI, LOTE 20 QUADRA 151           PERIQUITO - 25025290DUQUE DE CAXIASRJUNIAO UMB DOS CULTOS AFRO BRAS    20121710 000058
10231987175000168817800093673    00001329                     000013290000000000000109                     I021329      20121700000000300003410000017N241017104700000000000102012170000000000000000000000000000000000000000200000000004748IVAN SOUZA DIAS                         RUA CARICO, LOTE 27 QUADRA 15 A         JARDIM METRO25575050SAO JOAO DE MERRJUNIAO UMB DOS CULTOS AFRO BRAS    20121710 000059
10231987175000168817800093673    00001328                     000013280000000000000109                     I021328      20121700000000300003410000017N241017104700000000000102012170000000000000000000000000000000000000000200000000004621NEUZA MARIA MACHADO DA SILVA            RUA AUGUSTO SERGIO BOTELHO, QUADRA 67 LOBARRO BRANCO25267124DUQUE DE CAXIASRJUNIAO UMB DOS CULTOS AFRO BRAS    20121710 000060
10231987175000168817800093673    00001327                     000013270000000000000109                     I021327      20121700000000340003410000017N241017104700000000000102012170000000000000000000000000000000000000000100001402504764ANTONIA PAULO DINIZ                     RUA C, LOTE 3 QUADRA C                  SARACURUNA -22511300DUQUE DE CAXIASRJUNIAO UMB DOS CULTOS AFRO BRAS    20121710 000061
10231987175000168817800093673    00001324                     000013240000000000000109                     I021324      20121700000000340003410000017N241017104700000000000102012170000000000000000000000000000000000000000100001798819732RITA MARIA VIANNA                       RUA IPAMERI, 236                        CORDOVIL - R21012175RIO DE JANEIRO RJUNIAO UMB DOS CULTOS AFRO BRAS    20121710 000062
10231987175000168817800093673    00001321                     000013210000000000000109                     I021321      20121700000000340003410000017N241017104700000000000102012170000000000000000000000000000000000000000100005201586791WILSON MANOEL DE SOUZA                  RUA PERNANBUCO, LOTE 1 QUADRA 3         SANTA CRUZ D25251030DUQUE DE CAXIASRJUNIAO UMB DOS CULTOS AFRO BRAS    20121710 000063
10231987175000168817800093673    00001319                     000013190000000000000109                     I021319      20121700000000300003410000017N241017104700000000000102012170000000000000000000000000000000000000000100078815428704LUZINETE PINHO DE SA                    ESTRADA: MANOEL FERREIRA CAMPAR Nº 1311POSSE - NOVA26021060NOVA IGUACU    RJUNIAO UMB DOS CULTOS AFRO BRAS    20121710 000064
10231987175000168817800093673    00001316                     000013160000000000000109                     I021316      20121700000000300003410000017N241017104700000000000102012170000000000000000000000000000000000000000100087955016734LINO FERNANDO DE CARVALHO PAES          RUA   MARIA AUGUSTA DA SILVA            CENTRO      25515040SAO JOAO DE MERRJUNIAO UMB DOS CULTOS AFRO BRAS    20121710 000065
10231987175000168817800093673    00001315                     000013150000000000000109                     I021315      20121700000000300003410000017N241017104700000000000102012170000000000000000000000000000000000000000100098716000706CELIA ROSA SILVA DA CRUZ                RUA: CARAVELAS Nº 52 - JARDIM GRAMACHO DR. LAUREANO25051230DUQUE DE CAXIASRJUNIAO UMB DOS CULTOS AFRO BRAS    20121710 000066
10231987175000168817800093673    00001312                     000013120000000000000109                     I021312      20121700000000300003410000017N241017104700000000000102012170000000000000000000000000000000000000000100042447941749MARIA NEIDE DE OLIVEIRA SILVA           RUA PROSPERIDADE, LOTE 8 QUADRA 43      PILAR - DUQU25230080DUQUE DE CAIXASRJUNIAO UMB DOS CULTOS AFRO BRAS    20121710 000067
10231987175000168817800093673    00001310                     000013100000000000000109                     I021310      20121700000000340003410000017N241017104700000000000102012170000000000000000000000000000000000000000100000911446710NELI MONTEIRO DE CASTRO                 RUA ROMILDO Nº 139 - VAZ MARTINS       NOVA IGUACU 20051040RIO DE JANEIRO RJUNIAO UMB DOS CULTOS AFRO BRAS    20121710 000068
10231987175000168817800093673    00001305                     000013050000000000000109                     I021305      20121700000000340003410000017N241017104700000000000102012170000000000000000000000000000000000000000100079469825772VICTOR FRANCISCO PEREIRA NETO           RUA YZ 2 LT 7,8,9 QDRA 27 B/ JD ANHANGA DUQUE DE CAX25036290DUQUE DE CAXIASRJUNIAO UMB DOS CULTOS AFRO BRAS    20121710 000069
10231987175000168817800093673    00001296                     000012960000000000000109                     I021296      20121700000000340003410000017N241017104700000000000102012170000000000000000000000000000000000000000100000939896796SHIRLEI ARAUJO DO CARMO RODRIG          O MESMO                                 O MESMO     21532170RIO DE JANEIRO RJUNIAO UMB DOS CULTOS AFRO BRAS    20121710 000070
10231987175000168817800093673    00001293                     000012930000000000000109                     I021293      20121700000000300003410000017N241017104700000000000102012170000000000000000000000000000000000000000100042478154749LENIRA DOS SANTOS MORAIS LUGO           RUA: ANTONIO JOAO Nº 1469 CASA 3       CORDOVIL - R21250150RIO DE JANEIRO RJUNIAO UMB DOS CULTOS AFRO BRAS    20121710 000071
10231987175000168817800093673    00001289                     000012890000000000000109                     I021289      20121700000000300003410000017N241017104700000000000102012170000000000000000000000000000000000000000100001132984718JANE DA SILVA SANTOS                    RUA: ARARIBOIA LOTE 2 QUADRA 26 - SANTA DUQUE DE CAX25271370DUQUE DE CAXIASRJUNIAO UMB DOS CULTOS AFRO BRAS    20121710 000072
10231987175000168817800093673    00001160                     000011600000000000000109                     I021160      20121700000000340003410000017N241017104700000000000102012170000000000000000000000000000000000000000200000000002388JOSE ANTONIO ZANELLI                    PRAIA DE ICARAI, 267 LOJA 102           ICARAI - NIT24230004NITEROI        RJUNIAO UMB DOS CULTOS AFRO BRAS    20121710 000073
10231987175000168817800093673    00001155                     000011550000000000000109                     I021155      20121700000000340003410000017N241017104700000000000102012170000000000000000000000000000000000000000200000000002340BRAULIO ESPINI RIBEIRO                  RUA EMBOABA, 7 - PARQUE COLONIAL        LOTE XV - BE26180060BELFORD ROXO   RJUNIAO UMB DOS CULTOS AFRO BRAS    20121710 000074
10231987175000168817800093673    00001150                     000011500000000000000109                     I021150      20121700000000340003410000017N241017104700000000000102012170000000000000000000000000000000000000000200000000002310SEVERINO MIGUEL SIMAO                   RUA CONDOMINIO PASSAREDO, QUADRA 24 LOTECAM.DE BUZIO28910000CABO FRIO      RJUNIAO UMB DOS CULTOS AFRO BRAS    20121710 000075
10231987175000168817800093673    00001148                     000011480000000000000109                     I021148      20121700000000340003410000017N241017104700000000000102012170000000000000000000000000000000000000000200000000002291DALILA DE SOUZA PINHEIRO                RUA JOAO BRIGIDO, 121                   MAGALHAES BA21745480RIO DE JANEIRO RJUNIAO UMB DOS CULTOS AFRO BRAS    20121710 000076
10231987175000168817800093673    00001145                     000011450000000000000109                     I021145      20121700000000340003410000017N241017104700000000000102012170000000000000000000000000000000000000000200000000001997MARIA DALVA DE MELO                     RUA GG, 8 QUADRA 7                      JARDIM ANHAN25264670DUQUE DE CAXIASRJUNIAO UMB DOS CULTOS AFRO BRAS    20121710 000077
10231987175000168817800093673    00001143                     000011430000000000000109                     I021143      20121700000000340003410000017N241017104700000000000102012170000000000000000000000000000000000000000200000000001497PAULO FRANCISCO DA SILVA DANIE          RUA OTAWA, 407                          PARADA DE LU21241220RIO DE JANEIRO RJUNIAO UMB DOS CULTOS AFRO BRAS    20121710 000078
10231987175000168817800093673    00001140                     000011400000000000000109                     I021140      20121700000000340003410000017N241017104700000000000102012170000000000000000000000000000000000000000200000000002273MARIA DAS GRACAS MORAIS SOARES          AVENIDA LEANDRO DA MOTA, 865            VILA SAO SEB25065175DUQUE DE CAXIASRJUNIAO UMB DOS CULTOS AFRO BRAS    20121710 000079
10231987175000168817800093673    00001131                     000011310000000000000109                     I021131      20121700000000400003410000017N241017104700000000000102012170000000000000000000000000000000000000000100001824511787CARLOS ALBERTO FERNANDES DE MA          RUA IBIA, 517 BLOCO 2 APTO 904          ROCHA MIRAND21540070RIO DE JANEIRO RJUNIAO UMB DOS CULTOS AFRO BRAS    20121710 000080
10231987175000168817800093673    00001127                     000011270000000000000109                     I021127      20121700000000340003410000017N241017104700000000000102012170000000000000000000000000000000000000000100054101778787ROSARIA MARIA DAS CHAGAS DA SI          RUA DA AERONAUTICA, 61                  SENADOR CAMA21831410RIO DE JANEIRO RJUNIAO UMB DOS CULTOS AFRO BRAS    20121710 000081
10231987175000168817800093673    00001125                     000011250000000000000109                     I021125      20121700000000400003410000017N241017104700000000000102012170000000000000000000000000000000000000000100088831051768ELISETE MOREIRA DE OLIVEIRA             RUA JOSE MACHADO, 55                    IRAJA       21361360RIO DE JANEIRO RJUNIAO UMB DOS CULTOS AFRO BRAS    20121710 000082
10231987175000168817800093673    00001124                     000011240000000000000109                     I021124      20121700000000340003410000017N241017104700000000000102012170000000000000000000000000000000000000000200000000001769MARIA DA PIEDADE SANTANA DOS S          RUA SERGIO JOAO PEREIRA, 365            HELIOPOLIS -26123460BELFORD ROXO   RJUNIAO UMB DOS CULTOS AFRO BRAS    20121710 000083
10231987175000168817800093673    00001121                     000011210000000000000109                     I021121      20121700000000340003410000017N241017104700000000000102012170000000000000000000000000000000000000000200000000002125LEONILA FARIAS DA COSTA                 AVENIDA PIRPIRITUBA, 481 - JARDIM NOVO  REALENGO - R21760240RIO DE JANEIRO RJUNIAO UMB DOS CULTOS AFRO BRAS    20121710 000084
10231987175000168817800093673    00001119                     000011190000000000000109                     I021119      20121700000000340003410000017N241017104700000000000102012170000000000000000000000000000000000000000200000000002062ROBERTO LUIZ MEDEIROS                   RUA OLIMPIO, LOTE 35 QUADRA 29          HELIOPOLIS -26125215BELFORD ROXO   RJUNIAO UMB DOS CULTOS AFRO BRAS    20121710 000085
10231987175000168817800093673    00001113                     000011130000000000000109                     I021113      20121700000000340003410000017N241017104700000000000102012170000000000000000000000000000000000000000200000000001813JOSE ROMERO LEITE MARTINS               RUA ALCOBACA, 1345 CASA 1               ANCHIETA - R21645001RIO DE JANEIRO RJUNIAO UMB DOS CULTOS AFRO BRAS    20121710 000086
10231987175000168817800093673    00001107                     000011070000000000000109                     I021107      20121700000000340003410000017N241017104700000000000102012170000000000000000000000000000000000000000100086978608734SANDRA REIS ALVES                       RUA IRETE, 197                          COMENDADOR S26276580NOVA IGUACU    RJUNIAO UMB DOS CULTOS AFRO BRAS    20121710 000087
10231987175000168817800093673    00001105                     000011050000000000000109                     I021105      20121700000000340003410000017N241017104700000000000102012170000000000000000000000000000000000000000100084964910725LIA MARIA DA SILVA                      RUA LUIZ QUEIROZ DE NOGUEIRA, LOTE 26 QUCOLUBANDE - 24744020SAO GONCALO    RJUNIAO UMB DOS CULTOS AFRO BRAS    20121710 000088
10231987175000168817800093673    00001104                     000011040000000000000109                     I021104      20121700000000340003410000017N241017104700000000000102012170000000000000000000000000000000000000000200000000002253JOSE AMERICO ELIAS DE MIRANDA           RUA JAIME MUNIZ, LOTE 1 QUADRA 12       ITAUNA - SAO24474070SAO GONCALO    RJUNIAO UMB DOS CULTOS AFRO BRAS    20121710 000089
10231987175000168817800093673    00001103                     000011030000000000000109                     I021103      20121700000000340003410000017N241017104700000000000102012170000000000000000000000000000000000000000100061991465734JANDIRA AMELIA PAULA DE OLIVEI          RUA SALVADOR DO MONTE, 487 (ANTIGA RUA OBOACU - SAO 24467300SAO GONCALO    RJUNIAO UMB DOS CULTOS AFRO BRAS    20121710 000090
10231987175000168817800093673    00001101                     000011010000000000000109                     I021101      20121700000000340003410000017N241017104700000000000102012170000000000000000000000000000000000000000100050475142772LUIZ GONCALVES COLARES                  RUA LEONEL BRIZOLA, QUADRA A LOTE 11 - NPACIENCIA - 23587010RIO DE JANEIRO RJUNIAO UMB DOS CULTOS AFRO BRAS    20121710 000091
10231987175000168817800093673    00001100                     000011000000000000000109                     I021100      20121700000000400003410000017N241017104700000000000102012170000000000000000000000000000000000000000200000000002168EDEVALDO NUNES                          RUA DO ROTEIRO, 24                      AUGUSTO VASC23012370RIO DE JANEIRO RJUNIAO UMB DOS CULTOS AFRO BRAS    20121710 000092
10231987175000168817800093673    00001096                     000010960000000000000109                     I021096      20121700000000300003410000017N241017104700000000000102012170000000000000000000000000000000000000000100087520427749MARIA DA CONCEICAO VIEIRA CORR          RUA NOSSA SENHORA DOS NAVEGANTES, LOTE 2VILAR DOS TE25561310SAO JOAO DE MERRJUNIAO UMB DOS CULTOS AFRO BRAS    20121710 000093
10231987175000168817800093673    00001095                     000010950000000000000109                     I021095      20121700000000340003410000017N241017104700000000000102012170000000000000000000000000000000000000000100000120098733MARIA APARECIDA SOUZA DA SILVA          RUA NOVE, 424 LOTE 3 QUADRA B - JARDIM DPRAIA DE MAU25930000MAGE           RJUNIAO UMB DOS CULTOS AFRO BRAS    20121710 000094
10231987175000168817800093673    00001084                     000010840000000000000109                     I021084      20121700000000340003410000017N241017104700000000000102012170000000000000000000000000000000000000000100063173417704TANIA MARA MARINHO POLITANO             RUA DAS OPALAS, 97                      ROCHA MIRAND21510080RIO DE JANEIRO RJUNIAO UMB DOS CULTOS AFRO BRAS    20121710 000095
10231987175000168817800093673    00001081                     000010810000000000000109                     I021081      20121700000000300003410000017N241017104700000000000102012170000000000000000000000000000000000000000100000950707708MAURO DOS SANTOS MARTINS                RUA ALTOLANDIA, 170                     SANTA MARGAR23066400RIO DE JANEIRO RJUNIAO UMB DOS CULTOS AFRO BRAS    20121710 000096
10231987175000168817800093673    00001078                     000010780000000000000109                     I021078      20121700000000340003410000017N241017104700000000000102012170000000000000000000000000000000000000000100078903297768IRACEMA DA CONCEICAO MENDES SI          ESTRADA RIO SANTOS, 57 KM 32            MURIQUI - RI23812101RIO DE JANEIRO RJUNIAO UMB DOS CULTOS AFRO BRAS    20121710 000097
10231987175000168817800093673    00001077                     000010770000000000000109                     I021077      20121700000000340003410000017N241017104700000000000102012170000000000000000000000000000000000000000200000000006634ANTONIO CARLOS ANTUNES BASTOS           AVENIDA ITATIAIA, 1615 - 21 DE ABRIL    VILA ITAMARA25065095DUQUE DE CAXIASRJUNIAO UMB DOS CULTOS AFRO BRAS    20121710 000098
10231987175000168817800093673    00001076                     000010760000000000000109                     I021076      20121700000000420003410000017N241017104700000000000102012170000000000000000000000000000000000000000200000000006620SONIA MARIA DOS REMEDIOS                RUA SAO LUIZ, 11 CASA 2 - CANAL DO LEITAPRAIA DO SAC23860000MANGARATIBA    RJUNIAO UMB DOS CULTOS AFRO BRAS    20121710 000099
10231987175000168817800093673    00001075                     000010750000000000000109                     I021075      20121700000000340003410000017N241017104700000000000102012170000000000000000000000000000000000000000200000000006612ELOISA SANT ANA                         RUA LINO DE MORAIS, 322 FUNDOS          REALENGO - R21730290RIO DE JANEIRO RJUNIAO UMB DOS CULTOS AFRO BRAS    20121710 000100
10231987175000168817800093673    00001064                     000010640000000000000109                     I021064      20121700000000300003410000017N241017104700000000000102012170000000000000000000000000000000000000000100034688188749MARIADE AMELIA HENRIQUE DOS SA          RUA AGRARIO MENEZES, 709                VAZ LOBO - R21371180RIO DE JANEIRO RJUNIAO UMB DOS CULTOS AFRO BRAS    20121710 000101
10231987175000168817800093673    00001061                     000010610000000000000109                     I021061      20121700000000340003410000017N241017104700000000000102012170000000000000000000000000000000000000000200000000006397LUIZ CARLOS AMATE                       RUA ITABIRA, 343                        BRAS DE PINA21215310RIO DE JANEIRO RJUNIAO UMB DOS CULTOS AFRO BRAS    20121710 000102
10231987175000168817800093673    00001060                     000010600000000000000109                     I021060      20121700000000300003410000017N241017104700000000000102012170000000000000000000000000000000000000000100000064595790JORGE ERNESTO FERREIRA VICHI            RUA PAULO RIBEIRO BASTOS, 148 CASA 2    PACIENCIA - 23587230RIO DE JANEIRO RJUNIAO UMB DOS CULTOS AFRO BRAS    20121710 000103
10231987175000168817800093673    00001047                     000010470000000000000109                     I021047      20121700000000340003410000017N241017104700000000000102012170000000000000000000000000000000000000000100070540691768ALVARO DE FREITAS FEILO                 PRACA GUANARE, 48                       SANTA CRUZ -23520530RIO DE JANEIRO RJUNIAO UMB DOS CULTOS AFRO BRAS    20121710 000104
10231987175000168817800093673    00001045                     000010450000000000000109                     I021045      20121700000000300003410000017N241017104700000000000102012170000000000000000000000000000000000000000200000000005079AURORA MARTINS BELLO                    RUA ITAPEMIRIM, 444                     BANCO DE ARE26570130RIO DE JANEIRO RJUNIAO UMB DOS CULTOS AFRO BRAS    20121710 000105
10231987175000168817800093673    00001044                     000010440000000000000109                     I021044      20121700000000300003410000017N241017104700000000000102012170000000000000000000000000000000000000000200000000005061IDALINA DA COSTA PEREIRA                RUA BICUIBA, 458                        BANCO DE ARE26350140RIO DE JANEIRO RJUNIAO UMB DOS CULTOS AFRO BRAS    20121710 000106
10231987175000168817800093673    00001042                     000010420000000000000109                     I021042      20121700000000340003410000017N241017104700000000000102012170000000000000000000000000000000000000000200000000005039MARIA DE SOUZA                          AVENIDA BELO HORIZONTE, 271             SAO GABRIEL 26021670NOVA IGUACU    RJUNIAO UMB DOS CULTOS AFRO BRAS    20121710 000107
10231987175000168817800093673    00001041                     000010410000000000000109                     I021041      20121700000000340003410000017N241017104700000000000102012170000000000000000000000000000000000000000100095294236753ROSANE MOREIRA DE LIMA                  RUA IRIGUATI Nº 63                     OLARIA      21073320RIO DE JANEIRO RJUNIAO UMB DOS CULTOS AFRO BRAS    20121710 000108
10231987175000168817800093673    00001038                     000010380000000000000109                     I021038      20121700000000340003410000017N241017104700000000000102012170000000000000000000000000000000000000000100004125947732FABIO DA FONSECA PAES                   RUA JOAQUIM COUTO, 145                  VILA JURANDI25540370SAO JOAO DE MERRJUNIAO UMB DOS CULTOS AFRO BRAS    20121710 000109
10231987175000168817800093673    00001036                     000010360000000000000109                     I021036      20121700000000340003410000017N241017104700000000000102012170000000000000000000000000000000000000000200000000006225EDNA VIANA DOS SANTOS                   ALAMEDA TRINTA E QUATRO CASA, 111       PAVUNA - RIO21530170RIO DE JANEIRO RJUNIAO UMB DOS CULTOS AFRO BRAS    20121710 000110
10231987175000168817800093673    0000897                      000008970000000000000109                     I02897       20121700000000400003410000017N171017104700000000000102012170000000000000000000000000000000000000000100085181390749ALMIR DE MACEDO MATTOSO                 RUA DOMINGOS DE MAGALHAES 1374 CASA 1   MARIA DA GRA20785351RIO DE JANEIRO RJUNIAO UMB DOS CULTOS AFRO BRAS    20121710 000111
10231987175000168817800093673    0000896                      000008960000000000000109                     I02896       20121700000000400003410000017N171017104700000000000102012170000000000000000000000000000000000000000100094081352706ELIZETH BARROS DOS REIS TELACI          RUA PONTO CHIQUE 29 APTO 105            CORDOVIL  RJ21010310RIO DE JANEIRO RJUNIAO UMB DOS CULTOS AFRO BRAS    20121710 000112
10231987175000168817800093673    0000894                      000008940000000000000109                     I02894       20121700000000400003410000017N171017104700000000000102012170000000000000000000000000000000000000000100048357480872MARIA DE FATIMA FRANCO DE LIMA          RUA  DONA CORINA, 285                   PIABETA - MA25935718MAGE           RJUNIAO UMB DOS CULTOS AFRO BRAS    20121710 000113
10231987175000168817800093673    0000893                      000008930000000000000109                     I02893       20121700000000350003410000017N171017104700000000000102012170000000000000000000000000000000000000000100002626885738MARIA LUISA DIAS CRUZ                   RUA DIONISIO FERNANDES N 297 BLOCO 2 APTENGENHO DE D20730400RIO DE JANEIRO RJUNIAO UMB DOS CULTOS AFRO BRAS    20121710 000114
10231987175000168817800093673    0000891                      000008910000000000000109                     I02891       20121700000000400003410000017N171017104700000000000102012170000000000000000000000000000000000000000100090789407787ANA CLAUDIA DOS SANTOS TITO             RUA ONZE LOTE 17 QUADRA 48              PIABETA  MAG23025210RIO DE JANEIRO RJUNIAO UMB DOS CULTOS AFRO BRAS    20121710 000115
10231987175000168817800093673    0000886                      000008860000000000000109                     I02886       20121700000000400003410000017N171017104700000000000102012170000000000000000000000000000000000000000100000692299700JORGE LUIZ LIMA BASTOS                  RUA PLANALTINA, 71                      REALENGO - R21760160RIO DE JANEIRO RJUNIAO UMB DOS CULTOS AFRO BRAS    20121710 000116
10231987175000168817800093673    0000883                      000008830000000000000109                     I02883       20121700000000340003410000017N171017104700000000000102012170000000000000000000000000000000000000000100059334258772LUIZ ROBERTO REGO GAMA                  RUA MIGUEL POMBEIRO, 112                REALENGO - R21735280RIO DE JANEIRO RJUNIAO UMB DOS CULTOS AFRO BRAS    20121710 000117
10231987175000168817800093673    0000881                      000008810000000000000109                     I02881       20121700000000340003410000017N171017104700000000000102012170000000000000000000000000000000000000000100007526128751SORAYA ROBERTA PINHEIRO DE ALM          ALAMEDA TENENTE ANTONIO JOAO, CASA 17   URCA - RIO D22291150RIO DE JANEIRO RJUNIAO UMB DOS CULTOS AFRO BRAS    20121710 000118
10231987175000168817800093673    0000879                      000008790000000000000109                     I02879       20121700000000340003410000017N171017104700000000000102012170000000000000000000000000000000000000000100002539387756GERSON TELLES GUIMARAES                 RUA DOUTOR AFONSO PENA, LOTE 20 QUADRA 2IMBARIE - DU25275430DUQUE DE CAXIASRJUNIAO UMB DOS CULTOS AFRO BRAS    20121710 000119
10231987175000168817800093673    0000876                      000008760000000000000109                     I02876       20121700000000340003410000017N171017104700000000000102012170000000000000000000000000000000000000000100060921051723GEIZA RODRIGUES GANDRA                  RUA MARTINS JUNIOR, 16                  VAL VERDE - 26335320NOVA IGUACU    RJUNIAO UMB DOS CULTOS AFRO BRAS    20121710 000120
10231987175000168817800093673    0000873                      000008730000000000000109                     I02873       20121700000000340003410000017N171017104700000000000102012170000000000000000000000000000000000000000100039182010749HUGO EDSON RODRIGUES DOS SANTO          RUA QUINTILIANO DA FONSECA, 406         COLUBANDE - 24451250SAO GONCALO    RJUNIAO UMB DOS CULTOS AFRO BRAS    20121710 000121
10231987175000168817800093673    0000870                      000008700000000000000109                     I02870       20121700000000340003410000017N171017104700000000000102012170000000000000000000000000000000000000000100003533022790ELAINE LIMA FERREIRA DA COSTA           RUA HEBER DE BOSCOLI, 71                VILA ISABEL 20551110RIO DE JANEIRO RJUNIAO UMB DOS CULTOS AFRO BRAS    20121710 000122
10231987175000168817800093673    0000865                      000008650000000000000109                     I02865       20121700000000340003410000017N171017104700000000000102012170000000000000000000000000000000000000000100040229637787JOSE PAULO SERPA DE MORAES              RUA CANALIZADA, LOTE 4 QUADRA 203 KM 39 CAMPO LINDO 23845410RIO DE JANEIRO RJUNIAO UMB DOS CULTOS AFRO BRAS    20121710 000123
10231987175000168817800093673    0000856                      000008560000000000000109                     I02856       20121700000000300003410000017N171017104700000000000102012170000000000000000000000000000000000000000100086008773772ADEVIR CORREIA DOS SANTOS               RUA JOAO CABETE, LOTE 3 QUADRA 75 CASA 2SERRA GRANDE24342760NITEROI        RJUNIAO UMB DOS CULTOS AFRO BRAS    20121710 000124
10231987175000168817800093673    0000842                      000008420000000000000109                     I02842       20121700000000340003410000017N171017104700000000000102012170000000000000000000000000000000000000000100053365836772CRISTINA MARIA DE SANT ANNA SI          RUA GUSTAVO SAMPAIO, 172 APTO 201       LEME - RIO D22010010RIO DE JANEIRO RJUNIAO UMB DOS CULTOS AFRO BRAS    20121710 000125
10231987175000168817800093673    0000841                      000008410000000000000109                     I02841       20121700000000340003410000017N171017104700000000000102012170000000000000000000000000000000000000000100062821598734CLAUDEMIR APARECIDO FREITAS SI          TRAVESSA PIACAVA, 156                   BANCO DE ARE26570210MESQUITA       RJUNIAO UMB DOS CULTOS AFRO BRAS    20121710 000126
10231987175000168817800093673    0000831                      000008310000000000000109                     I02831       20121700000000400003410000017N171017104700000000000102012170000000000000000000000000000000000000000100090823516768ALEXANDRE LUIZ DE OLIVEIRA NET          RUA JOSE SOMBRA  539                    IRAJA  RIO D21230240RIO DE JANEIRO RJUNIAO UMB DOS CULTOS AFRO BRAS    20121710 000127
10231987175000168817800093673    0000830                      000008300000000000000109                     I02830       20121700000000400003410000017N171017104700000000000102012170000000000000000000000000000000000000000100002379534713ALEX EVANDRO CORREIA PETITINGA          RUA CARDOSO QUINTAO, 40                 PIEDADE - RJ21381460RIO DE JANEIRO RJUNIAO UMB DOS CULTOS AFRO BRAS    20121710 000128
10231987175000168817800093673    0000827                      000008270000000000000109                     I02827       20121700000000350003410000017N171017104700000000000102012170000000000000000000000000000000000000000100007332496712ELENICE ROSA DA SILVA                   RUA BERNARDINO DE MELO, 4705 - BAIRRO DAVILA CAVA - 26052060NOVA IGUACU    RJUNIAO UMB DOS CULTOS AFRO BRAS    20121710 000129
10231987175000168817800093673    0000823                      000008230000000000000109                     I02823       20121700000000350003410000017N171017104700000000000102012170000000000000000000000000000000000000000100009237411782RODRIGO NOGUEIRA MARTINS                RUA DOUTOR AUGUSTO FIGUEIREDO, 298      BANGU - RJ  21840600RIO DE JANEIRO RJUNIAO UMB DOS CULTOS AFRO BRAS    20121710 000130
10231987175000168817800093673    0000816                      000008160000000000000109                     I02816       20121700000000300003410000017N171017104700000000000102012170000000000000000000000000000000000000000100009070035758LILIAN DUARTE COSTA                     RUA DELFIM MOREIRA, 2397                VALE PARAISO25976016TERESOPOLIS    RJUNIAO UMB DOS CULTOS AFRO BRAS    20121710 000131
10231987175000168817800093673    0000815                      000008150000000000000109                     I02815       20121700000000340003410000017N171017104700000000000102012170000000000000000000000000000000000000000100001071031767NEIDE MARIA VIANA SOUZA                 RUA VINTE E UM, LOTE 7 QUADRA 42        SAO CAMPELO 23830000RIO DE JANEIRO RJUNIAO UMB DOS CULTOS AFRO BRAS    20121710 000132
10231987175000168817800093673    0000812                      000008120000000000000109                     I02812       20121700000000340003410000017N171017104700000000000102012170000000000000000000000000000000000000000100001220001708ANDRE AMERICO DA SILVA                  RUA LARGO DO BOIADEIRO DA ROCINHA, 11   ROCINHA - RI22451340RIO DE JANEIRO RJUNIAO UMB DOS CULTOS AFRO BRAS    20121710 000133
10231987175000168817800093673    0000804                      000008040000000000000109                     I02804       20121700000000300003410000017N171017104700000000000102012170000000000000000000000000000000000000000100057370770710MARY MARCOS DE FIGUEIREDO               TRAVESSA LINO ESTEVES, 126 - ENGENHOCA  BARRETO - NI24110145NITEROI        RJUNIAO UMB DOS CULTOS AFRO BRAS    20121710 000134
10231987175000168817800093673    0000800                      000008000000000000000109                     I02800       20121700000000340003410000017N171017104700000000000102012170000000000000000000000000000000000000000200000000009322WILMA DE CASTRO GOUVEA                  RUA DAMAZIO BATISTA, 86 CASA 97 - CABRALOLINDA - NIL26515126NILOPOLIS      RJUNIAO UMB DOS CULTOS AFRO BRAS    20121710 000135
10231987175000168817800093673    0000795                      000007950000000000000109                     I02795       20121700000000340003410000017N171017104700000000000102012170000000000000000000000000000000000000000100083697799720ANGELA MARIA FERRAZ FARIAS              RUA LUIS BELTRAO, 1171                  VILA VALQUEI21321230RIO DE JANEIRO RJUNIAO UMB DOS CULTOS AFRO BRAS    20121710 000136
10231987175000168817800093673    0000794                      000007940000000000000109                     I02794       20121700000000340003410000017N171017104700000000000102012170000000000000000000000000000000000000000100007648501724MARIA LUCIA ROSA DAS NEVES              RUA DO SAPE, 226                        NOVA BRASILI26052700NOVA IGUACU    RJUNIAO UMB DOS CULTOS AFRO BRAS    20121710 000137
10231987175000168817800093673    0000785                      000007850000000000000109                     I02785       20121700000000340003410000017N171017104700000000000102012170000000000000000000000000000000000000000100059395656700NADIA MARIZA CORREA TRINDADE            RUA JORGE SILVA, 25                     PARQUE SAO J23890000RIO DE JANEIRO RJUNIAO UMB DOS CULTOS AFRO BRAS    20121710 000138
10231987175000168817800093673    0000783                      000007830000000000000109                     I02783       20121700000000300003410000017N171017104700000000000102012170000000000000000000000000000000000000000100007622581798WAGNER SILVA DE SOUZA                   RUA SOUZA COSTA, LOTE 10 QUADRA 360 - JAGUAXINDIBA -24780322SAO GONCALO    RJUNIAO UMB DOS CULTOS AFRO BRAS    20121710 000139
10231987175000168817800093673    0000780                      000007800000000000000109                     I02780       20121700000000340003410000017N171017104700000000000102012170000000000000000000000000000000000000000100005721435755ALEX ARAUJO BRAGA                       RUA MARTE, 685 CASA 2                   MESQUITA - N26240290NOVA IGUACU    RJUNIAO UMB DOS CULTOS AFRO BRAS    20121710 000140
10231987175000168817800093673    0000660                      000006600000000000000109                     I02660       20121700000000300003410000017N171017104700000000000102012170000000000000000000000000000000000000000200000000007679HUGO XAVIER                             AVENIDA PRESIDENTE VARGAS, 2007 APTO 130CENTRO - RJ 20210030RIO DE JANEIRO RJUNIAO UMB DOS CULTOS AFRO BRAS    20121710 000141
10231987175000168817800093673    0000653                      000006530000000000000109                     I02653       20121700000000350003410000017N171017104700000000000102012170000000000000000000000000000000000000000100007062360767IVONETE GOMES DOS SANTOS                AVENIDA PORTO DA MADAME, 555            GRADIM - SAO24431310SAO GONCALO    RJUNIAO UMB DOS CULTOS AFRO BRAS    20121710 000142
10231987175000168817800093673    0000647                      000006470000000000000109                     I02647       20121700000000340003410000017N171017104700000000000102012170000000000000000000000000000000000000000100070348197772ROSANE ANTONIO FONSECA                  RUA IMPERADOR, 86                       PARQUE FLORA26041070NOVA IGUACU    RJUNIAO UMB DOS CULTOS AFRO BRAS    20121710 000143
10231987175000168817800093673    0000644                      000006440000000000000109                     I02644       20121700000000340003410000017N171017104700000000000102012170000000000000000000000000000000000000000200000000005728MARIA JOSE DOS SANTOS                   RUA JOSE MARIOZZI FILHO, 990            PRAIA DA BRI23028400RIO DE JANEIRO RJUNIAO UMB DOS CULTOS AFRO BRAS    20121710 000144
10231987175000168817800093673    0000631                      000006310000000000000109                     I02631       20121700000000300003410000017N171017104700000000000102012170000000000000000000000000000000000000000100028711459700LEA MARIA GOMES FERREIRA                AVENIDA CANAL, 16                       VILAR DOS TE25560510SAO JOAO DE MERRJUNIAO UMB DOS CULTOS AFRO BRAS    20121710 000145
10231987175000168817800093673    0000630                      000006300000000000000109                     I02630       20121700000000300003410000017N171017104700000000000102012170000000000000000000000000000000000000000200000000005744IRACEMA HEMERENCIANO TORRES BA          RUA RIO GRANDE DO SUL, 588 QD 19        STA CRUZ DA 25243610DUQUE DE CAXIASRJUNIAO UMB DOS CULTOS AFRO BRAS    20121710 000146
10231987175000168817800093673    0000613                      000006130000000000000109                     I02613       20121700000000400003410000017N101017104700000000000102012170000000000000000000000000000000000000000100005953749724JUCIARA DA SILVA XAVIER                 RUA CONDE DE AZAMBUJA N 526             MARIA DA GRA20785342RIO DE JANEIRO RJUNIAO UMB DOS CULTOS AFRO BRAS    20121710 000147
10231987175000168817800093673    0000610                      000006100000000000000109                     I02610       20121700000000350003410000017N101017104700000000000102012170000000000000000000000000000000000000000100070645523704RICARDO DE SOUZA LIMA                   RUA MAJOR AZEVEDO 344                   IRAJA       21230060RIO DE JANEIRO RJUNIAO UMB DOS CULTOS AFRO BRAS    20121710 000148
10231987175000168817800093673    0000608                      000006080000000000000109                     I02608       20121700000000350003410000017N101017104700000000000102012170000000000000000000000000000000000000000100093788150734REGINA DA SILVA VERONEZI DOS S          RUA ABATE 105                           JARDIM CANAA26263040NOVA IGUACU    RJUNIAO UMB DOS CULTOS AFRO BRAS    20121710 000149
10231987175000168817800093673    0000596                      000005960000000000000109                     I02596       20121700000000300003410000017N101017104700000000000102012170000000000000000000000000000000000000000100096135182749ANTONIO CANDIDO DA SILVA                RUA ANA LIMA N 18 - PARQUE SAO NICOLAU  SAO JOAO DE 25530040SAO JOAO DE MERRJUNIAO UMB DOS CULTOS AFRO BRAS    20121710 000150
10231987175000168817800093673    0000595                      000005950000000000000109                     I02595       20121700000000340003410000017N101017104700000000000102012170000000000000000000000000000000000000000100081531095704ROSANA ALMEIDA SILVA                    RUA JOAQUIM MARIANO DE MOURA N 246      PONTO CHIC -26032840NOVA IGUACU    RJUNIAO UMB DOS CULTOS AFRO BRAS    20121710 000151
10231987175000168817800093673    0000592                      000005920000000000000109                     I02592       20121700000000400003410000017N101017104700000000000102012170000000000000000000000000000000000000000100076857786704ELISABETH CAETANO                       RUA PEREIRA DE ARAUJO N 211 APT 203     IRAJA - RJ  21235090RIO DE JANEIRO RJUNIAO UMB DOS CULTOS AFRO BRAS    20121710 000152
10231987175000168817800093673    0000591                      000005910000000000000109                     I02591       20121700000000340003410000017N101017104700000000000102012170000000000000000000000000000000000000000100078790344715ROSANE ESTEVES DOS SANTOS               RUA VINTE E DOIS DE MARCO N 14          PRAINHA - DU25010730DUQUE DE CAXIASRJUNIAO UMB DOS CULTOS AFRO BRAS    20121710 000153
10231987175000168817800093673    0000587                      000005870000000000000109                     I02587       20121700000000340003410000017N101017104700000000000102012170000000000000000000000000000000000000000100053887085787MARIA WALKIRIA DA SILVA                 RUA JEREMIAS LOTE 21 QUADRA 14 - CAMPO ANOVA IGUACU 26292254NOVA IGUACU    RJUNIAO UMB DOS CULTOS AFRO BRAS    20121710 000154
10231987175000168817800093673    0000584                      000005840000000000000109                     I02584       20121700000000400003410000017N101017104700000000000102012170000000000000000000000000000000000000000100059680903753TANIA REGINA DOS SANTOS MARQUE          RUA VISCONDE DE MACEIO, 50 - FRENTE     IRAJA - RIO 21235100RIO DE JANEIRO RJUNIAO UMB DOS CULTOS AFRO BRAS    20121710 000155
10231987175000168817800093673    0000582                      000005820000000000000109                     I02582       20121700000000340003410000017N101017104700000000000102012170000000000000000000000000000000000000000100015137144738RAFAEL NUNES ALVES SALSA                RUA PUIPE, 123                          BENTO RIBEIR21550420RIO DE JANEIRO RJUNIAO UMB DOS CULTOS AFRO BRAS    20121710 000156
10231987175000168817800093673    0000577                      000005770000000000000109                     I02577       20121700000000400003410000017N101017104700000000000102012170000000000000000000000000000000000000000100040412253704FRANCISCO CARLOS DA COSTA CHRI          RUA ENGENHO DA RAINHA, 196 FRENTE       INHAUMA - RJ20765040RIO DE JANEIRO RJUNIAO UMB DOS CULTOS AFRO BRAS    20121710 000157
10231987175000168817800093673    0000575                      000005750000000000000109                     I02575       20121700000000340003410000017N101017104700000000000102012170000000000000000000000000000000000000000100008629571764SILVANA DA COSTA SANTOS                 RUA H, CASA 11 QUADRA 8                 BALNEARIO - 28940000SAO PEDRO DA ALRJUNIAO UMB DOS CULTOS AFRO BRAS    20121710 000158
10231987175000168817800093673    0000570                      000005700000000000000109                     I02570       20121700000000340003410000017N101017104700000000000102012170000000000000000000000000000000000000000100000912311754PAULO HENRIQUE DA SILVA MOURA           RUA QUATI, 112                          MIGUEL COUTO26060420NOVA IGUACU    RJUNIAO UMB DOS CULTOS AFRO BRAS    20121710 000159
10231987175000168817800093673    0000568                      000005680000000000000109                     I02568       20121700000000400003410000017N101017104700000000000102012170000000000000000000000000000000000000000100050600567753MARIA JOSE DA SILVA                     RUA JULIETA, 7 APTO 201                 PIEDADE - RI20751440RIO DE JANEIRO RJUNIAO UMB DOS CULTOS AFRO BRAS    20121710 000160
10231987175000168817800093673    0000565                      000005650000000000000109                     I02565       20121700000000340003410000017N101017104700000000000102012170000000000000000000000000000000000000000100035750553787SUELY PINHEIRO DA SILVA                 RUA MARILENE VIEIRA DE ASSIS, 850 FUNDOSVILA MARIA H25251500DUQUE DE CAXIASRJUNIAO UMB DOS CULTOS AFRO BRAS    20121710 000161
10231987175000168817800093673    0000559                      000005590000000000000109                     I02559       20121700000000300003410000017N101017104700000000000102012170000000000000000000000000000000000000000100007730416727ALESSANDRA REGINA DOS ANJOS             RUA NEVES, 119                          PARQUE TIETE25585380SAO JOAO DE MERRJUNIAO UMB DOS CULTOS AFRO BRAS    20121710 000162
10231987175000168817800093673    0000557                      000005570000000000000109                     I02557       20121700000000340003410000017N101017104700000000000102012170000000000000000000000000000000000000000100091323762787MARIA ISABEL DE ALBUQUERQUE PI          RUA MANAPA, 159                         VALVERDE - N26290639NOVA IGUACU    RJUNIAO UMB DOS CULTOS AFRO BRAS    20121710 000163
10231987175000168817800093673    0000556                      000005560000000000000109                     I02556       20121700000000340003410000017N101017104700000000000102012170000000000000000000000000000000000000000100005368533713DIVALCI COELHO REINALDO                 RUA CEVADA, 17                          PANTANAL    26297108NOVA IGUACU    RJUNIAO UMB DOS CULTOS AFRO BRAS    20121710 000164
10231987175000168817800093673    0000555                      000005550000000000000109                     I02555       20121700000000340003410000017N101017104700000000000102012170000000000000000000000000000000000000000100010093629761DANIELLE DO NASCIMENTO NICACIO          ESTRADA DA GRANJA, 100 FRENTE           PALHADA - NO26290249NOVA IGUACU    RJUNIAO UMB DOS CULTOS AFRO BRAS    20121710 000165
10231987175000168817800093673    0000553                      000005530000000000000109                     I02553       20121700000000340003410000017N101017104700000000000102012170000000000000000000000000000000000000000100000338518754EDUARDO LUIS E SILVA COIMBRA            RUA DOS INVALIDOS, 138 BLOCO 1 APTO 209 LAPA - CENTR20231046RIO DE JANEIRO RJUNIAO UMB DOS CULTOS AFRO BRAS    20121710 000166
10231987175000168817800093673    0000546                      000005460000000000000109                     I02546       20121700000000340003410000017N101017104700000000000102012170000000000000000000000000000000000000000100093946538720MONICA FERREIRA DE OLIVEIRA             RUA VISCONDE DE PIRAJA, 584 APTO 804    IPANEMA - RJ22410002RIO DE JANEIRO RJUNIAO UMB DOS CULTOS AFRO BRAS    20121710 000167
10231987175000168817800093673    0000544                      000005440000000000000109                     I02544       20121700000000340003410000017N101017104700000000000102012170000000000000000000000000000000000000000100008448034724CLAUDIA DA SILVA SANTANA                RUA SANTA LUZIA, 115                    NOVA ERA - N26265560NOVA IGUACU    RJUNIAO UMB DOS CULTOS AFRO BRAS    20121710 000168
10231987175000168817800093673    0000543                      000005430000000000000109                     I02543       20121700000000340003410000017N101017104700000000000102012170000000000000000000000000000000000000000100066859123915ROBERTO ALVES DO NASCIMENTO             RUA MARECHAL DEODORO, 499               CENTRO - PAR23970000PARATY         RJUNIAO UMB DOS CULTOS AFRO BRAS    20121710 000169
10231987175000168817800093673    0000538                      000005380000000000000109                     I02538       20121700000000340003410000017N101017104700000000000102012170000000000000000000000000000000000000000100091493234749ROSIMAR DOMINICALE FOLLY                RUA JOAO MAURICIO CAMPOS DE MEDEIROS, 10ALMERINDA  S24747150SAO GONCALO    RJUNIAO UMB DOS CULTOS AFRO BRAS    20121710 000170
10231987175000168817800093673    0000537                      000005370000000000000109                     I02537       20121700000000340003410000017N101017104700000000000102012170000000000000000000000000000000000000000100071926305787PEDRO PAULO DE ARAUJO MALHEIRO          RUA RAFAEL BORDALO, 31                  GUARATIBA - 23032590RIO DE JANEIRO RJUNIAO UMB DOS CULTOS AFRO BRAS    20121710 000171
10231987175000168817800093673    0000533                      000005330000000000000109                     I02533       20121700000000340003410000017N101017104700000000000102012170000000000000000000000000000000000000000100004788683750CARLA APARECIDA DA ROCHA RITA           RUA GENERAL SILVEIRA SOBRINHO, 245 APTO VILA DA PENH21221290RIO DE JANEIRO RJUNIAO UMB DOS CULTOS AFRO BRAS    20121710 000172
10231987175000168817800093673    0000531                      000005310000000000000109                     I02531       20121700000000340003410000017N101017104700000000000102012170000000000000000000000000000000000000000100001377431738CARLOS HENRIQUE DOS SANTOS DE           RUA ALVARES CABRAL, 361 CASA 1          CACHAMBI - R20780320RIO DE JANEIRO RJUNIAO UMB DOS CULTOS AFRO BRAS    20121710 000173
10231987175000168817800093673    0000526                      000005260000000000000109                     I02526       20121700000000340003410000017N101017104700000000000102012170000000000000000000000000000000000000000100007258424741SILVIA MARIA CAIADO DE CASTRO           RUA ESMERALDA VALLADARES, 41 LOTEAMENTO ITAIPU - NIT24342000NITEROI        RJUNIAO UMB DOS CULTOS AFRO BRAS    20121710 000174
10231987175000168817800093673    0000388                      000003880000000000000109                     I02388       20121700000000340003410000017N101017104700000000000102012170000000000000000000000000000000000000000100092906850772CARLOS HENRIQUE FIO RODRIGUES           RUA JOSE GOMES DA COSTA JUNIOR, 2475    POSSE - TERE25973003TERESOPOLIS    RJUNIAO UMB DOS CULTOS AFRO BRAS    20121710 000175
10231987175000168817800093673    0000384                      000003840000000000000109                     I02384       20121700000000340003410000017N101017104700000000000102012170000000000000000000000000000000000000000100007315512730SIDCLAY MEDEIROS DOS SANTOS             TRAVESSA ANES DIAS, 9                   SANTISSIMO -23094010RIO DE JANEIRO RJUNIAO UMB DOS CULTOS AFRO BRAS    20121710 000176
10231987175000168817800093673    0000381                      000003810000000000000109                     I02381       20121700000000340003410000017N101017104700000000000102012170000000000000000000000000000000000000000100003322124754CATIA REGINA DE AQUINO MACHADO          RUA CLAUDINO BARATA, 863 CASA 5         REALENGO - R21770200RIO DE JANEIRO RJUNIAO UMB DOS CULTOS AFRO BRAS    20121710 000177
10231987175000168817800093673    0000379                      000003790000000000000109                     I02379       20121700000000300003410000017N101017104700000000000102012170000000000000000000000000000000000000000100011914616707GENESIO FERREIRA RAMOS                  RUA: PROFETA EZEQUIEL LOTE 15           SAO GONCALO 24752250SAO GONCALO    RJUNIAO UMB DOS CULTOS AFRO BRAS    20121710 000178
10231987175000168817800093673    0000375                      000003750000000000000109                     I02375       20121700000000300003410000017N101017104700000000000102012170000000000000000000000000000000000000000100007403285735MARCIO BAPTISTA CARVALHO                RUA ENALDO DOS SANTOS ARAUJO, 85        ENGENHEIRO L21370200RIO DE JANEIRO RJUNIAO UMB DOS CULTOS AFRO BRAS    20121710 000179
10231987175000168817800093673    0000373                      000003730000000000000109                     I02373       20121700000000300003410000017N101017104700000000000102012170000000000000000000000000000000000000000100095999620791CARLOS HENRIQUE CARDOSO DA PAI          RUA DAS AZALEIAS, 651                   PEDREIRA - M24900000MARICA         RJUNIAO UMB DOS CULTOS AFRO BRAS    20121710 000180
10231987175000168817800093673    0000371                      000003710000000000000109                     I02371       20121700000000340003410000017N101017104700000000000102012170000000000000000000000000000000000000000100085775576772LUSIA DE FREITAS SERVA                  RUA PEREIRA NETO S/N LOTE 35 QUADRA 38  GUARATIBA - 23032540RIO DE JANEIRO RJUNIAO UMB DOS CULTOS AFRO BRAS    20121710 000181
10231987175000168817800093673    0000370                      000003700000000000000109                     I02370       20121700000000340003410000017N101017104700000000000102012170000000000000000000000000000000000000000100005444285797CICERO PEREIRA GOMES NETO               RUA CAPITAO RUBENS, 1 BL 8 APTO 108     MARECHAL HER21610290RIO DE JANEIRO RJUNIAO UMB DOS CULTOS AFRO BRAS    20121710 000182
10231987175000168817800093673    0000369                      000003690000000000000109                     I02369       20121700000000340003410000017N101017104700000000000102012170000000000000000000000000000000000000000100043625517787DIONETE DE AGUIAR DE OLIVEIRA           RUA CORREIA DUTRA, 99 APTO 1028         FLAMENGO - R22210050RIO DE JANEIRO RJUNIAO UMB DOS CULTOS AFRO BRAS    20121710 000183
10231987175000168817800093673    0000366                      000003660000000000000109                     I02366       20121700000000340003410000017N101017104700000000000102012170000000000000000000000000000000000000000100003336084709SORAIA GOMES DUARTE                     AVENIDA GASPAR DE LEMOS, 200 CASA 11 A  ILHA DE GUAR23020110RIO DE JANEIRO RJUNIAO UMB DOS CULTOS AFRO BRAS    20121710 000184
10231987175000168817800093673    0000365                      000003650000000000000109                     I02365       20121700000000400003410000017N101017104700000000000102012170000000000000000000000000000000000000000100083469559791ALEXANDRE DA SILVA SOUZA                RUA AFONSO RIBEIRO, 582                 PENHA - RJ  21031700RIO DE JANEIRO RJUNIAO UMB DOS CULTOS AFRO BRAS    20121710 000185
10231987175000168817800093673    0000363                      000003630000000000000109                     I02363       20121700000000350003410000017N101017104700000000000102012170000000000000000000000000000000000000000100000074752375CLAUDIARA TEIXEIRA DA SILVA             RUA CAMBUCI, 295                        MUQUECA - BA27140280BARRA DO PIRAI RJUNIAO UMB DOS CULTOS AFRO BRAS    20121710 000186
10231987175000168817800093673    0000356                      000003560000000000000109                     I02356       20121700000000300003410000017N101017104700000000000102012170000000000000000000000000000000000000000100001190921740CELIA FERREIRA DE BRITO REIS            RUA DANIEL THOMPSON, 110                SANTISSIMO -23093010RIO DE JANEIRO RJUNIAO UMB DOS CULTOS AFRO BRAS    20121710 000187
10231987175000168817800093673    0000355                      000003550000000000000109                     I02355       20121700000000400003410000017N101017104700000000000102012170000000000000000000000000000000000000000100004750450766ALEX KELLY CALDERARO                    RUA TENENTE JERONIMO MESQUITA  53       IRAJA   RJ  21371300RIO DE JANEIRO RJUNIAO UMB DOS CULTOS AFRO BRAS    20121710 000188
10231987175000168817800093673    0000353                      000003530000000000000109                     I02353       20121700000000340003410000017N101017104700000000000102012170000000000000000000000000000000000000000100082993610791JOSE CARLOS ROSA DA CONCEICAO           AVENIDA CANAL DA FIGUEIRA, QUADRA A LOTEJD ANHANGA -25264160DUQUE DE CAXIASRJUNIAO UMB DOS CULTOS AFRO BRAS    20121710 000189
10231987175000168817800093673    0000346                      000003460000000000000109                     I02346       20121700000000340003410000017N101017104700000000000102012170000000000000000000000000000000000000000100061458317749BENEDITA DEODORO DE MORAIS              RUA GENTIL DINIZ, 69 - NOVO MEXICO      NOVO MEXICO 27130170BARRA DO PIRAI RJUNIAO UMB DOS CULTOS AFRO BRAS    20121710 000190
10231987175000168817800093673    0000336                      000003360000000000000109                     I02336       20121700000000340003410000017N101017104700000000000102012170000000000000000000000000000000000000000100008417913769SANDERSON DOS SANTOS LOBO               RUA GUARANHUNS, 167 CASA 1              JARDIM BRASI26193070BELFORD ROXO   RJUNIAO UMB DOS CULTOS AFRO BRAS    20121710 000191
10231987175000168817800093673    0000321                      000003210000000000000109                     I02321       20121700000000340003410000017N101017104700000000000102012170000000000000000000000000000000000000000100008679284769ANA PAULA DA SILVA BRAGA                RUA ELVIRA DA FONSECA, 149 CASA 1 FUNDOSTANQUE - JAC22733150RIO DE JANEIRO RJUNIAO UMB DOS CULTOS AFRO BRAS    20121710 000192
10231987175000168817800093673    0000318                      000003180000000000000109                     I02318       20121700000000340003410000017N101017104700000000000102012170000000000000000000000000000000000000000100061172413720ELVIRA CRISTINA DE OLIVEIRA             RUA JOSE DOS REIS, 2265 BLOCO 3 APTO 103INHAUMA - RJ20760245RIO DE JANEIRO RJUNIAO UMB DOS CULTOS AFRO BRAS    20121710 000193
10231987175000168817800093673    0000311                      000003110000000000000109                     I02311       20121700000000340003410000017N101017104700000000000102012170000000000000000000000000000000000000000100059023198700CARLOS ALBERTO PEREIRA FERNAND          ESTRADA DO AMAPA, 506                   AMAPA - DUQU25235475DUQUE DE CAXIASRJUNIAO UMB DOS CULTOS AFRO BRAS    20121710 000194
10231987175000168817800093673    0000307                      000003070000000000000109                     I02307       20121700000000340003410000017N101017104700000000000102012170000000000000000000000000000000000000000100006898116754JANETE GLORIA SILVA CRUZ                RUA JOAO DE CARVALHO, 6                 JARDIM DE ME25550010SAO JOAO DE MERRJUNIAO UMB DOS CULTOS AFRO BRAS    20121710 000195
10231987175000168817800093673    0000306                      000003060000000000000109                     I02306       20121700000000340003410000017N101017104700000000000102012170000000000000000000000000000000000000000100000934452709ROGERIO DOS SANTOS MAGALHAES            RUA KLEBER SANTOS DE CARVALHO,  QUADRA 2JARDIM IRES 25576261SAO JOAO DE MERRJUNIAO UMB DOS CULTOS AFRO BRAS    20121710 000196
10231987175000168817800093673    0000304                      000003040000000000000109                     I02304       20121700000000340003410000017N101017104700000000000102012170000000000000000000000000000000000000000100036547107787JOAO CARLOS SALERNO                     RUA CAETANO SALERMO, 54 A               ALTO DA SERR25635020PETROPOLIS     RJUNIAO UMB DOS CULTOS AFRO BRAS    20121710 000197
10231987175000168817800093673    0000300                      000003000000000000000109                     I02300       20121700000000340003410000017N101017104700000000000102012170000000000000000000000000000000000000000100004756437710FABIANA DE SOUZA CAMPOS                 RUA SAO RAIMUNDO SN QUADRA 161 LOTE 5 - NOVA IGUACU/26298722RIO DE JANEIRO RJUNIAO UMB DOS CULTOS AFRO BRAS    20121710 000198
10231987175000168817800093673    0000298                      000002980000000000000109                     I02298       20121700000000340003410000017N101017104700000000000102012170000000000000000000000000000000000000000100098194542715MARCIA CRISTINA LEAL DA ROCHA           RUA PADRE ANCHIETA, 42                  ALTO DA SERR25635150PETROPOLIS     RJUNIAO UMB DOS CULTOS AFRO BRAS    20121710 000199
10231987175000168817800093673    0000297                      000002970000000000000109                     I02297       20121700000000340003410000017N101017104700000000000102012170000000000000000000000000000000000000000100050946510725MARIA LUIZA DOS SANTOS                  RUA J QUADRA 4 LOTE 8 FUNDOS            CAMPINHO - R21330735RIO DE JANEIRO RJUNIAO UMB DOS CULTOS AFRO BRAS    20121710 000200
9                                                                                                                                                                                                                                                                                                                                                                                                         000201
