01REMESSA01COBRANCA       817800093673        União Umb dos Cultos Afro Bra341BANCO ITAU SA  090119                                                                                                                                                                                                                                                                                                      000001
10231987175000168817800093673    000039520                    000395200000000000000109                     I0139520     30011900000000350003410000017N090119104700000000000103001190000000000000000000000000000000000000000100007403387732MARCOS MAURICIO DOS SANTOS COS          RUA: BOA VISTA                          CARAMUJO    24140460NITEROI        RJUNIAO UMB DOS CULTOS AFRO BRAS    30011910 000002
10231987175000168817800093673    000033287                    000332870000000000000109                     I0233287     20121800000000350003410000017N291018104700000000000102012180000000000000000000000000000000000000000100007403387732MARCOS MAURICIO DOS SANTOS COS          RUA: BOA VISTA                          CARAMUJO    24140460NITEROI        RJUNIAO UMB DOS CULTOS AFRO BRAS    20121810 000003
9                                                                                                                                                                                                                                                                                                                                                                                                         000004
