01REMESSA01COBRANCA       916200163100        União Umb dos Cultos Afro Bra341BANCO ITAU SA  181218                                                                                                                                                                                                                                                                                                      000001
10231987175000168916200163100    000033591                    000335910000000000000109                     I0133591     24121800000000380003410000017N171218104700000000000102412180000000000000000000000000000000000000000100044845251787REGINA CELIA ALMEIDA BASTOS             RUA DERMEVAL LESSA                      PAVUNA      21532330RIO DE JANEIRO RJUNIAO UMB DOS CULTOS AFRO BRAS    24121810 000002
10231987175000168916200163100    000033590                    000335900000000000000109                     I0133590     24121800000000040003410000017N171218104700000000000102412180000000000000000000000000000000000000000100044845251787REGINA CELIA ALMEIDA BASTOS             RUA DERMEVAL LESSA                      PAVUNA      21532330RIO DE JANEIRO RJUNIAO UMB DOS CULTOS AFRO BRAS    24121810 000003
9                                                                                                                                                                                                                                                                                                                                                                                                         000004
