01REMESSA01COBRANCA       916200163100        União Umb dos Cultos Afro Bra341BANCO ITAU SA  030719                                                                                                                                                                                                                                                                                                      000001
10231987175000168916200163100    000049863                    000498630000000000000109                     I0149863     30091900000000040003410000017N030719105700000000000133009190000000000000000000000000000000000000000100001478776790CLEUSA FERREIRA PEREIRA                 RUA THEREMINN 393,                      COELHO NETO 21530290RIO DE JANEIRO RJUNIAO UMB DOS CULTOS AFRO BRAS    30091915 000002
21300920190000000000080                                                                                                                                                                                                                                                                                                                                                                                   000003
10231987175000168916200163100    000049862                    000498620000000000000109                     I0149862     30081900000000040003410000017N030719105700000000000133008190000000000000000000000000000000000000000100001478776790CLEUSA FERREIRA PEREIRA                 RUA THEREMINN 393,                      COELHO NETO 21530290RIO DE JANEIRO RJUNIAO UMB DOS CULTOS AFRO BRAS    30081915 000004
21300820190000000000080                                                                                                                                                                                                                                                                                                                                                                                   000005
10231987175000168916200163100    000049861                    000498610000000000000109                     I0149861     30071900000000040003410000017N030719105700000000000133007190000000000000000000000000000000000000000100001478776790CLEUSA FERREIRA PEREIRA                 RUA THEREMINN 393,                      COELHO NETO 21530290RIO DE JANEIRO RJUNIAO UMB DOS CULTOS AFRO BRAS    30071915 000006
21300720190000000000080                                                                                                                                                                                                                                                                                                                                                                                   000007
10231987175000168916200163100    000049860                    000498600000000000000109                     I0149860     02081900000000400003410000017N030719105700000000001320208190000000000000000000000000000000000000000100009548831791PEDRO SAMPAIO DA SILVA                  RUA ALZIRA VALDETARON 161,              SAMPAIO     20950070RIO DE JANEIRO RJUNIAO UMB DOS CULTOS AFRO BRAS    02081915 000008
21020820190000000000800                                                                                                                                                                                                                                                                                                                                                                                   000009
10231987175000168916200163100    000049859                    000498590000000000000109                     I0149859     10071900000000560003410000017N030719105700000000001851007190000000000000000000000000000000000000000100064392791734ORDALINA PEDROZO TOMAZ DE AQUI          RUA ABEL DE ALVARENGAN 210,             CHATUBA     26585000MESQUITA       RJUNIAO UMB DOS CULTOS AFRO BRAS    10071915 000010
21100720190000000001120                                                                                                                                                                                                                                                                                                                                                                                   000011
10231987175000168916200163100    000049858                    000498580000000000000109                     I0149858     12071900000000400003410000017N030719105700000000001321207190000000000000000000000000000000000000000100002826175742MARGARETH LOPES VIANNA                  RUA NAVARRON 541, FUNDOS                SANTA TERESA20251190RIO DE JANEIRO RJUNIAO UMB DOS CULTOS AFRO BRAS    12071915 000012
21120720190000000000800                                                                                                                                                                                                                                                                                                                                                                                   000013
10231987175000168916200163100    000049857                    000498570000000000000109                     I0149857     05071900000000160003410000017N030719105700000000000530507190000000000000000000000000000000000000000100064431002715SERGIO MURILO ALVES PEREIRA             RUA ROCHAN 0, LOTE 4 QUADRA 4 CASA 2    JARDIM JOSE 25565161SAO JOAO DE MERRJUNIAO UMB DOS CULTOS AFRO BRAS    05071915 000014
21050720190000000000320                                                                                                                                                                                                                                                                                                                                                                                   000015
10231987175000168916200163100    000049856                    000498560000000000000109                     I0149856     10071900000000120003410000017N030719105700000000000401007190000000000000000000000000000000000000000100059475161791MARIA NAZARETE ALVES ANTONIO            RUA SANTOS DUMONTN 23, FUNDOS           TAUA - ILHA 21910490RIO DE JANEIRO RJUNIAO UMB DOS CULTOS AFRO BRAS    10071915 000016
21100720190000000000240                                                                                                                                                                                                                                                                                                                                                                                   000017
10231987175000168916200163100    000049855                    000498550000000000000109                     I0149855     10071900000000320003410000017N030719105700000000001601007190000000000000000000000000000000000000000100003013793783GIOVANA SURAMA BRANDAO MONFORT          RUA JOAO TELESN 0, LOTE 94 QUADRA 93    CENTRO      26550100MESQUITA       RJUNIAO UMB DOS CULTOS AFRO BRAS    10071915 000018
21100720190000000000640                                                                                                                                                                                                                                                                                                                                                                                   000019
10231987175000168916200163100    000044585                    000445850000000000000109                     I3444585     30061900000000040003410000017N130319105700000000000133006190000000000000000000000000000000000000000100006864504778FABIO GUILHERME DOS SANTOS              ESTRADA JOAO DE ABREUN 398,             MONJOLOS    24723190SAO GONCALO    RJUNIAO UMB DOS CULTOS AFRO BRAS    30061915 000020
21300620190000000000080                                                                                                                                                                                                                                                                                                                                                                                   000021
10231987175000168916200163100    000044251                    000442510000000000000109                     I3444251     30061900000000040003410000017N130319105700000000000133006190000000000000000000000000000000000000000100004250914739ERIKA BARBOSA DOS SANTOS                AVENIDA ERNANI CARDOSON 53, FUNDOS CASA CASCADURA   21310310RIO DE JANEIRO RJUNIAO UMB DOS CULTOS AFRO BRAS    30061915 000022
21300620190000000000080                                                                                                                                                                                                                                                                                                                                                                                   000023
10231987175000168916200163100    000043923                    000439230000000000000109                     I0243923     30061900000000040003410000017N130319105700000000000133006190000000000000000000000000000000000000000100059259523753NILO SERGIO SANTOS BARCELLOS            ESTRADA CORONEL VIEIRAN 134, BLOCO 4 APTIRAJA       21220310RIO DE JANEIRO RJUNIAO UMB DOS CULTOS AFRO BRAS    30061915 000024
21300620190000000000080                                                                                                                                                                                                                                                                                                                                                                                   000025
10231987175000168916200163100    000043911                    000439110000000000000109                     I0243911     30061900000000040003410000017N130319105700000000000133006190000000000000000000000000000000000000000100009548831791PEDRO SAMPAIO DA SILVA                  RUA ALZIRA VALDETARON 161,              SAMPAIO     20950070RIO DE JANEIRO RJUNIAO UMB DOS CULTOS AFRO BRAS    30061915 000026
21300620190000000000080                                                                                                                                                                                                                                                                                                                                                                                   000027
10231987175000168916200163100    000043353                    000433530000000000000109                     I0243353     30061900000000040003410000017N130319105700000000000133006190000000000000000000000000000000000000000100005556657718EDUARDO DE OLIVEIRA SILVA               RUA DELIO GUARANA N 0, LOTE 15          EDEN        25545100SAO JOAO DE MERRJUNIAO UMB DOS CULTOS AFRO BRAS    30061915 000028
21300620190000000000080                                                                                                                                                                                                                                                                                                                                                                                   000029
10231987175000168916200163100    000042932                    000429320000000000000109                     I3442932     30051900000000040003410000017N130319105700000000000133005190000000000000000000000000000000000000000100006864504778FABIO GUILHERME DOS SANTOS              ESTRADA JOAO DE ABREUN 398,             MONJOLOS    24723190SAO GONCALO    RJUNIAO UMB DOS CULTOS AFRO BRAS    30051915 000030
21300520190000000000080                                                                                                                                                                                                                                                                                                                                                                                   000031
10231987175000168916200163100    000042604                    000426040000000000000109                     I3442604     30051900000000040003410000017N130319105700000000000133005190000000000000000000000000000000000000000100004250914739ERIKA BARBOSA DOS SANTOS                AVENIDA ERNANI CARDOSON 53, FUNDOS CASA CASCADURA   21310310RIO DE JANEIRO RJUNIAO UMB DOS CULTOS AFRO BRAS    30051915 000032
21300520190000000000080                                                                                                                                                                                                                                                                                                                                                                                   000033
10231987175000168916200163100    000042265                    000422650000000000000109                     I0242265     30051900000000040003410000017N130319105700000000000133005190000000000000000000000000000000000000000100009548831791PEDRO SAMPAIO DA SILVA                  RUA ALZIRA VALDETARON 161,              SAMPAIO     20950070RIO DE JANEIRO RJUNIAO UMB DOS CULTOS AFRO BRAS    30051915 000034
21300520190000000000080                                                                                                                                                                                                                                                                                                                                                                                   000035
10231987175000168916200163100    000041712                    000417120000000000000109                     I0241712     30051900000000040003410000017N130319105700000000000133005190000000000000000000000000000000000000000100005556657718EDUARDO DE OLIVEIRA SILVA               RUA DELIO GUARANA N 0, LOTE 15          EDEN        25545100SAO JOAO DE MERRJUNIAO UMB DOS CULTOS AFRO BRAS    30051915 000036
21300520190000000000080                                                                                                                                                                                                                                                                                                                                                                                   000037
10231987175000168916200163100    000041290                    000412900000000000000109                     I3441290     30041900000000040003410000017N120319105700000000000133004190000000000000000000000000000000000000000100006864504778FABIO GUILHERME DOS SANTOS              ESTRADA JOAO DE ABREUN 398,             MONJOLOS    24723190SAO GONCALO    RJUNIAO UMB DOS CULTOS AFRO BRAS    30041915 000038
21300420190000000000080                                                                                                                                                                                                                                                                                                                                                                                   000039
10231987175000168916200163100    000040966                    000409660000000000000109                     I3440966     30041900000000040003410000017N120319105700000000000133004190000000000000000000000000000000000000000100004250914739ERIKA BARBOSA DOS SANTOS                AVENIDA ERNANI CARDOSON 53, FUNDOS CASA CASCADURA   21310310RIO DE JANEIRO RJUNIAO UMB DOS CULTOS AFRO BRAS    30041915 000040
21300420190000000000080                                                                                                                                                                                                                                                                                                                                                                                   000041
10231987175000168916200163100    000040628                    000406280000000000000109                     I0240628     30041900000000040003410000017N120319105700000000000133004190000000000000000000000000000000000000000100009548831791PEDRO SAMPAIO DA SILVA                  RUA ALZIRA VALDETARON 161,              SAMPAIO     20950070RIO DE JANEIRO RJUNIAO UMB DOS CULTOS AFRO BRAS    30041915 000042
21300420190000000000080                                                                                                                                                                                                                                                                                                                                                                                   000043
10231987175000168916200163100    000040080                    000400800000000000000109                     I0240080     30041900000000040003410000017N120319105700000000000133004190000000000000000000000000000000000000000100005556657718EDUARDO DE OLIVEIRA SILVA               RUA DELIO GUARANA N 0, LOTE 15          EDEN        25545100SAO JOAO DE MERRJUNIAO UMB DOS CULTOS AFRO BRAS    30041915 000044
21300420190000000000080                                                                                                                                                                                                                                                                                                                                                                                   000045
9                                                                                                                                                                                                                                                                                                                                                                                                         000046
