01REMESSA01COBRANCA       916200163100        União Umb dos Cultos Afro Bra341BANCO ITAU SA  210818                                                                                                                                                                                                                                                                                                      000001
10231987175000168916200163100    000021316                    000213160000000000000109                     I0221316     10081800000000140003410000017N250718104700000000000101008180000000000000000000000000000000000000000100005933193704ANA PAULA DA SILVA SANTOS               RUA: APIACA                             JARDIM BARRO25267290DUQUE DE CAXIASRJUNIAO UMB DOS CULTOS AFRO BRAS    10081810 000002
10231987175000168916200163100    000021293                    000212930000000000000109                     I3421293     30081800000000040003410000017N130718104700000000000103008180000000000000000000000000000000000000000100007830594775EMERSON MODESTO SIQUEIRA                RUA MESQUITA                            REALENGO    21721210RIO DE JANEIRO RJUNIAO UMB DOS CULTOS AFRO BRAS    30081810 000003
10231987175000168916200163100    000020767                    000207670000000000000109                     I3420767     30081800000000035003410000017N070518104700000000000103008180000000000000000000000000000000000000000100005933193704ANA PAULA DA SILVA SANTOS               RUA: APIACA                             JARDIM BARRO25267290DUQUE DE CAXIASRJUNIAO UMB DOS CULTOS AFRO BRAS    30081810 000004
10231987175000168916200163100    000020575                    000205750000000000000109                     I3420575     30081800000000035003410000017N070518104700000000000103008180000000000000000000000000000000000000000100003025076712MARIA QUITERIA DOS SANTOS PITA          RUA MISSIONARIO CHRISTIE N 43 B         QUISSAMA - P25615250PETROPOLIS     RJUNIAO UMB DOS CULTOS AFRO BRAS    30081810 000005
10231987175000168916200163100    000020509                    000205090000000000000109                     I0220509     30081800000000040003410000017N070518104700000000000103008180000000000000000000000000000000000000000100003346596710ROSILENI ROSA DA SILVA                  RUA PARANAVAI                           BOA VISTA   24342110NITEROI        RJUNIAO UMB DOS CULTOS AFRO BRAS    30081810 000006
10231987175000168916200163100    000019450                    000194500000000000000109                     I3419450     30081800000000035003410000017N070518104700000000000103008180000000000000000000000000000000000000000100000000000759WANDERLEI ABRANTES TEIXEIRA             RUA LOURDES BARBOSA PASSOS, 26 QUADRA 21BRISA AMAR -23826360ITAGUAI        RJUNIAO UMB DOS CULTOS AFRO BRAS    30081810 000007
10231987175000168916200163100    000019447                    000194470000000000000109                     I0219447     30081800000000035003410000017N070518104700000000000103008180000000000000000000000000000000000000000100054770122772EDUARDO DOS SANTOS REIS NETO            RUA: BURITI                             MADUREIRA   20231046RIO DE JANEIRO RJUNIAO UMB DOS CULTOS AFRO BRAS    30081810 000008
10231987175000168916200163100    000018939                    000189390000000000000109                     I0218939     30071800000000040003410000017N070518104700000000000103007180000000000000000000000000000000000000000100003346596710ROSILENI ROSA DA SILVA                  RUA PARANAVAI                           BOA VISTA   24342110NITEROI        RJUNIAO UMB DOS CULTOS AFRO BRAS    30071810 000009
10231987175000168916200163100    000018339                    000183390000000000000109                     I3418339     30071800000000035003410000017N070518104700000000000103007180000000000000000000000000000000000000000100059374179768ROSANGELA MARIA DE CASTRO BEZE          RUA: DONA ISABEL                        BONSUCESSO  21032060RIO DE JANEIRO RJUNIAO UMB DOS CULTOS AFRO BRAS    30071810 000010
10231987175000168916200163100    000018187                    000181870000000000000109                     I3418187     30071800000000035003410000017N070518104700000000000103007180000000000000000000000000000000000000000100099225158734MARIA MAGALI DE OLIVEIRA SOUZA          RUA PIRACAIA                            MARECHAL HER20720012RIO DE JANEIRO RJUNIAO UMB DOS CULTOS AFRO BRAS    30071810 000011
10231987175000168916200163100    000017880                    000178800000000000000109                     I3417880     30071800000000035003410000017N070518104700000000000103007180000000000000000000000000000000000000000100000000000759WANDERLEI ABRANTES TEIXEIRA             RUA LOURDES BARBOSA PASSOS, 26 QUADRA 21BRISA AMAR -23826360ITAGUAI        RJUNIAO UMB DOS CULTOS AFRO BRAS    30071810 000012
10231987175000168916200163100    000017877                    000178770000000000000109                     I0217877     30071800000000035003410000017N070518104700000000000103007180000000000000000000000000000000000000000100054770122772EDUARDO DOS SANTOS REIS NETO            RUA: BURITI                             MADUREIRA   20231046RIO DE JANEIRO RJUNIAO UMB DOS CULTOS AFRO BRAS    30071810 000013
10231987175000168916200163100    000017687                    000176870000000000000109                     I0217687     30071800000000035003410000017N070518104700000000000103007180000000000000000000000000000000000000000100000000000620MARIA DAS DORES SANTOS                  ESTRADA DO AREAL                        BOA VISTA DA27165000BARRA DO PIRAI RJUNIAO UMB DOS CULTOS AFRO BRAS    30071810 000014
9                                                                                                                                                                                                                                                                                                                                                                                                         000015
