01REMESSA01COBRANCA       817800093673        União Umb dos Cultos Afro Bra341BANCO ITAU SA  121218                                                                                                                                                                                                                                                                                                      000001
10231987175000168817800093673    000033563                    000335630000000000000109                     I0133563     30121800000000035003410000017N121218104700000000000103012180000000000000000000000000000000000000000100077601505716NADIA MARIA DE BRITTO LUCENA            RUA LIBERATO BITENCOURT                 MAGALHAES BA21735120RIO DE JANEIRO RJUNIAO UMB DOS CULTOS AFRO BRAS    30121810 000002
10231987175000168817800093673    000033562                    000335620000000000000109                     I0133562     30121800000000035003410000017N121218104700000000000103012180000000000000000000000000000000000000000100077601505716NADIA MARIA DE BRITTO LUCENA            RUA LIBERATO BITENCOURT                 MAGALHAES BA21735120RIO DE JANEIRO RJUNIAO UMB DOS CULTOS AFRO BRAS    30121810 000003
10231987175000168817800093673    000033560                    000335600000000000000109                     I0133560     20121800000000010003410000017N121218104700000000000102012180000000000000000000000000000000000000000100005851795733JOAO LUIZ DE OLIVEIRA MAGALHAE          RUA ANTONIO CARLOS PARANHOS             VILA VALQUEI21321340RIO DE JANEIRO RJUNIAO UMB DOS CULTOS AFRO BRAS    20121810 000004
10231987175000168817800093673    000033559                    000335590000000000000109                     I0133559     20011900000000330003410000017N121218104700000000000102001190000000000000000000000000000000000000000100007802202779ROBERTO DE OLIVEIRA ALONSO NET          RUA HENRIQUE MARTINS                    LAGOINHA    24736130MESQUITA       RJUNIAO UMB DOS CULTOS AFRO BRAS    20011910 000005
10231987175000168817800093673    000033558                    000335580000000000000109                     I0133558     20121800000000070003410000017N121218104700000000000102012180000000000000000000000000000000000000000100053218833787MARLUCE SUELY DA SILVA                  RUA ESCRAVA ISAURA                      BRIZAMAR    23825380RIO DE JANEIRO RJUNIAO UMB DOS CULTOS AFRO BRAS    20121810 000006
10231987175000168817800093673    000033557                    000335570000000000000109                     I0133557     20121800000000035003410000017N121218104700000000000102012180000000000000000000000000000000000000000100053211839704ALCIONE SOUZA DOS SANTOS                RUA MARINO FELIX                        SEPETIBA    23535006RIO DE JANEIRO RJUNIAO UMB DOS CULTOS AFRO BRAS    20121810 000007
10231987175000168817800093673    000033556                    000335560000000000000109                     I0133556     20121800000000035003410000017N121218104700000000000102012180000000000000000000000000000000000000000100005529010750JOELMA MELO DA SILVA                    RUA DIONIZIO RIBEIRO CHAVES             ANAIA - SANT24737660SAO GONCALO    RJUNIAO UMB DOS CULTOS AFRO BRAS    20121810 000008
10231987175000168817800093673    000032880                    000328800000000000000109                     I3432880     20121800000000350003410000017N291018104700000000000102012180000000000000000000000000000000000000000100000000001273JORGE CARLOS RODRIGUES DE OLIV          ESTRADA TAQUARAL                        JARDIM NAZAR26062221NOVA IGUACU    RJUNIAO UMB DOS CULTOS AFRO BRAS    20121810 000009
10231987175000168817800093673    000032691                    000326910000000000000109                     I0232691     20121800000000350003410000017N291018104700000000000102012180000000000000000000000000000000000000000100008313656760PAULA DAMIANA FRANCA NUNES RAM          RUA ARICURI                             MAGALI      23081331CAMPO GRANDE   RJUNIAO UMB DOS CULTOS AFRO BRAS    20121810 000010
10231987175000168817800093673    000032405                    000324050000000000000109                     I3432405     20121800000000350003410000017N291018104700000000000102012180000000000000000000000000000000000000000100027403254791JOSE CARLOS ALVES GOMES                 RUA ARISTIDES CAIRE                     MEIER       20775090RIO DE JANEIRO RJUNIAO UMB DOS CULTOS AFRO BRAS    20121810 000011
10231987175000168817800093673    000032069                    000320690000000000000109                     I0232069     20121800000000350003410000017N291018104700000000000102012180000000000000000000000000000000000000000100007802202779ROBERTO DE OLIVEIRA ALONSO NET          RUA HENRIQUE MARTINS                    LAGOINHA    24736130MESQUITA       RJUNIAO UMB DOS CULTOS AFRO BRAS    20121810 000012
10231987175000168817800093673    000030315                    000303150000000000000109                     I3430315     20121800000000035003410000017N291018104700000000000102012180000000000000000000000000000000000000000100062788396791SERGIO LUCAS DE SOUZA                   TRAVESSA CARLOS XAVIER                  MADUREIRA   21310010RIO DE JANEIRO RJUNIAO UMB DOS CULTOS AFRO BRAS    20121810 000013
10231987175000168817800093673    000030098                    000300980000000000000109                     I0130098     30121800000000035003410000017N291018104700000000000103012180000000000000000000000000000000000000000100077601505716NADIA MARIA DE BRITTO LUCENA            RUA LIBERATO BITENCOURT                 MAGALHAES BA21735120RIO DE JANEIRO RJUNIAO UMB DOS CULTOS AFRO BRAS    30121810 000014
10231987175000168817800093673    000029922                    000299220000000000000109                     I0229922     20121800000000035003410000017N291018104700000000000102012180000000000000000000000000000000000000000100052282171772SONIA MARIA DOS SANTOS                  RUA MIDA                                RIACHAO - AU26084050NOVA IGUACU    RJUNIAO UMB DOS CULTOS AFRO BRAS    20121810 000015
10231987175000168817800093673    000029762                    000297620000000000000109                     I3429762     20121800000000035003410000017N291018104700000000000102012180000000000000000000000000000000000000000100070175225753LEDA FERREIRA FIGUEIREDO                RUA: SANTA ROSA                         BENTO RIBEIR21331420RIO DE JANEIRO RJUNIAO UMB DOS CULTOS AFRO BRAS    20121810 000016
10231987175000168817800093673    000029703                    000297030000000000000109                     I0229703     20121800000000035003410000017N291018104700000000000102012180000000000000000000000000000000000000000100007802202779ROBERTO DE OLIVEIRA ALONSO NET          RUA HENRIQUE MARTINS                    LAGOINHA    24736130MESQUITA       RJUNIAO UMB DOS CULTOS AFRO BRAS    20121810 000017
10231987175000168817800093673    000029382                    000293820000000000000109                     I0229382     20121800000000035003410000017N291018104700000000000102012180000000000000000000000000000000000000000100088677079734MARIA APARECIDA MORAIS DOS SAN          RUA SAO FRANCISCO                       PRADO VERDE 26299180RIO DE JANEIRO RJUNIAO UMB DOS CULTOS AFRO BRAS    20121810 000018
10231987175000168817800093673    000028951                    000289510000000000000109                     I0228951     30101800000000350003410000017N161018104700000000000103010180000000000000000000000000000000000000000100007802202779ROBERTO DE OLIVEIRA ALONSO NET          RUA HENRIQUE MARTINS                    LAGOINHA    24736130MESQUITA       RJUNIAO UMB DOS CULTOS AFRO BRAS    30101810 000019
10231987175000168817800093673    000028287                    000282870000000000000109                     I0228287     30111800000000035003410000017N200818104700000000000103011180000000000000000000000000000000000000000100053218833787MARLUCE SUELY DA SILVA                  RUA ESCRAVA ISAURA                      BRIZAMAR    23825380RIO DE JANEIRO RJUNIAO UMB DOS CULTOS AFRO BRAS    30111810 000020
10231987175000168817800093673    000028227                    000282270000000000000109                     I0228227     30111800000000035003410000017N200818104700000000000103011180000000000000000000000000000000000000000100053211839704ALCIONE SOUZA DOS SANTOS                RUA MARINO FELIX                        SEPETIBA    23535006RIO DE JANEIRO RJUNIAO UMB DOS CULTOS AFRO BRAS    30111810 000021
10231987175000168817800093673    000028213                    000282130000000000000109                     I0228213     30111800000000035003410000017N200818104700000000000103011180000000000000000000000000000000000000000100000000001273JORGE CARLOS RODRIGUES DE OLIV          ESTRADA TAQUARAL                        JARDIM NAZAR26062221NOVA IGUACU    RJUNIAO UMB DOS CULTOS AFRO BRAS    30111810 000022
10231987175000168817800093673    000028201                    000282010000000000000109                     I0228201     30111800000000035003410000017N200818104700000000000103011180000000000000000000000000000000000000000100077601505716NADIA MARIA DE BRITTO LUCENA            RUA LIBERATO BITENCOURT                 MAGALHAES BA21735120RIO DE JANEIRO RJUNIAO UMB DOS CULTOS AFRO BRAS    30111810 000023
10231987175000168817800093673    000028020                    000280200000000000000109                     I0228020     30111800000000035003410000017N200818104700000000000103011180000000000000000000000000000000000000000100005529010750JOELMA MELO DA SILVA                    RUA DIONIZIO RIBEIRO CHAVES             ANAIA - SANT24737660SAO GONCALO    RJUNIAO UMB DOS CULTOS AFRO BRAS    30111810 000024
10231987175000168817800093673    000028013                    000280130000000000000109                     I0228013     30111800000000035003410000017N200818104700000000000103011180000000000000000000000000000000000000000100052282171772SONIA MARIA DOS SANTOS                  RUA MIDA                                RIACHAO - AU26084050NOVA IGUACU    RJUNIAO UMB DOS CULTOS AFRO BRAS    30111810 000025
10231987175000168817800093673    000027845                    000278450000000000000109                     I3427845     30111800000000035003410000017N200818104700000000000103011180000000000000000000000000000000000000000100070175225753LEDA FERREIRA FIGUEIREDO                RUA: SANTA ROSA                         BENTO RIBEIR21331420RIO DE JANEIRO RJUNIAO UMB DOS CULTOS AFRO BRAS    30111810 000026
10231987175000168817800093673    000027779                    000277790000000000000109                     I0227779     30111800000000035003410000017N200818104700000000000103011180000000000000000000000000000000000000000100007802202779ROBERTO DE OLIVEIRA ALONSO NET          RUA HENRIQUE MARTINS                    LAGOINHA    24736130MESQUITA       RJUNIAO UMB DOS CULTOS AFRO BRAS    30111810 000027
10231987175000168817800093673    000027455                    000274550000000000000109                     I0227455     30111800000000035003410000017N200818104700000000000103011180000000000000000000000000000000000000000100088677079734MARIA APARECIDA MORAIS DOS SAN          RUA SAO FRANCISCO                       PRADO VERDE 26299180RIO DE JANEIRO RJUNIAO UMB DOS CULTOS AFRO BRAS    30111810 000028
10231987175000168817800093673    000025449                    000254490000000000000109                     I0225449     30101800000000035003410000017N200818104700000000000103010180000000000000000000000000000000000000000100053218833787MARLUCE SUELY DA SILVA                  RUA ESCRAVA ISAURA                      BRIZAMAR    23825380RIO DE JANEIRO RJUNIAO UMB DOS CULTOS AFRO BRAS    30101810 000029
10231987175000168817800093673    000025376                    000253760000000000000109                     I0225376     30101800000000035003410000017N200818104700000000000103010180000000000000000000000000000000000000000100000000001273JORGE CARLOS RODRIGUES DE OLIV          ESTRADA TAQUARAL                        JARDIM NAZAR26062221NOVA IGUACU    RJUNIAO UMB DOS CULTOS AFRO BRAS    30101810 000030
10231987175000168817800093673    000025183                    000251830000000000000109                     I0225183     30101800000000035003410000017N200818104700000000000103010180000000000000000000000000000000000000000100005529010750JOELMA MELO DA SILVA                    RUA DIONIZIO RIBEIRO CHAVES             ANAIA - SANT24737660SAO GONCALO    RJUNIAO UMB DOS CULTOS AFRO BRAS    30101810 000031
10231987175000168817800093673    000025176                    000251760000000000000109                     I0225176     30101800000000035003410000017N200818104700000000000103010180000000000000000000000000000000000000000100052282171772SONIA MARIA DOS SANTOS                  RUA MIDA                                RIACHAO - AU26084050NOVA IGUACU    RJUNIAO UMB DOS CULTOS AFRO BRAS    30101810 000032
10231987175000168817800093673    000024619                    000246190000000000000109                     I0224619     30101800000000035003410000017N200818104700000000000103010180000000000000000000000000000000000000000100088677079734MARIA APARECIDA MORAIS DOS SAN          RUA SAO FRANCISCO                       PRADO VERDE 26299180RIO DE JANEIRO RJUNIAO UMB DOS CULTOS AFRO BRAS    30101810 000033
9                                                                                                                                                                                                                                                                                                                                                                                                         000034
