01REMESSA01COBRANCA       916200163100        União Umb dos Cultos Afro Bra341BANCO ITAU SA  080518                                                                                                                                                                                                                                                                                                      000001
10231987175000168916200163100    000019811                    000198110000000000000109                     I0119811     30081800000000035003410000017N070518104700000000000103008180000000000000000000000000000000000000000100047515090715JOSE CARLOS DA SILVA GENUNCIO           RUA VEREADOR MAURICIO SOUZA N 97        ENGENHOCA - 24110539NITEROI        RJUNIAO UMB DOS CULTOS AFRO BRAS    30081810 000002
10231987175000168916200163100    000019810                    000198100000000000000109                     I0119810     30081800000000035003410000017N070518104700000000000103008180000000000000000000000000000000000000000100085127183749CLAUDIA JORGE DA SILVA GAMA             RUA DAS MANGUEIRAS N 249                PIEDADE - RI20751080RIO DE JANEIRO RJUNIAO UMB DOS CULTOS AFRO BRAS    30081810 000003
10231987175000168916200163100    000019809                    000198090000000000000109                     I0119809     30081800000000035003410000017N070518104700000000000103008180000000000000000000000000000000000000000100038232103787SUZANE LEMOS DA SILVA                   RUA ASSIS REPUBLICANO N 310 FUNDOS      FREGUESIA - 22745030RIO DE JANEIRO RJUNIAO UMB DOS CULTOS AFRO BRAS    30081810 000004
10231987175000168916200163100    000019808                    000198080000000000000109                     I0119808     30081800000000035003410000017N070518104700000000000103008180000000000000000000000000000000000000000100064321800749MARLENE BALBINO DA SILVA                RUA: MATA MACHADO Nº 49                MARACANA    20271260LEOPOLDINA     MGUNIAO UMB DOS CULTOS AFRO BRAS    30081810 000005
10231987175000168916200163100    000019807                    000198070000000000000109                     I0119807     30081800000000035003410000017N070518104700000000000103008180000000000000000000000000000000000000000100006935690773ELAINE DA COSTA MARTINS                 O MESMO                                 O MESMO     25220407DUQUE DE CAXIASRJUNIAO UMB DOS CULTOS AFRO BRAS    30081810 000006
10231987175000168916200163100    000019806                    000198060000000000000109                     I0119806     30081800000000035003410000017N070518104700000000000103008180000000000000000000000000000000000000000100013540201756RUTE MEDEIROS VIEIRA                    RUA DESSESEIS N 527                     CONJUNTO NOV23565450SANTA CRUZ     RJUNIAO UMB DOS CULTOS AFRO BRAS    30081810 000007
10231987175000168916200163100    000019805                    000198050000000000000109                     I0119805     30081800000000035003410000017N070518104700000000000103008180000000000000000000000000000000000000000100090876857772MARCO AURELIO PEREIRA VASCONCE          RUA VISCONDE DE OURO PRETO N 5          TAUA - ILHA 21910520ILHA DO GOVERNARJUNIAO UMB DOS CULTOS AFRO BRAS    30081810 000008
10231987175000168916200163100    000019804                    000198040000000000000109                     I0119804     30081800000000035003410000017N070518104700000000000103008180000000000000000000000000000000000000000100037125893791ELIANA DOS SANTOS VITAL                 RUA CAPITAO VIEIRA Nº 96               TURIACU - RI21540330RIO DE JANEIRO RJUNIAO UMB DOS CULTOS AFRO BRAS    30081810 000009
10231987175000168916200163100    000019803                    000198030000000000000109                     I0119803     30081800000000035003410000017N070518104700000000000103008180000000000000000000000000000000000000000100005426043701CLARA DANIELE BROWN FLAUZINO            RUA ZAMBIA N 29                         BANGU - RIO 21850510RIO DE JANEIRO RJUNIAO UMB DOS CULTOS AFRO BRAS    30081810 000010
10231987175000168916200163100    000019802                    000198020000000000000109                     I0119802     30081800000000035003410000017N070518104700000000000103008180000000000000000000000000000000000000000200000000009372SILAS SOUZA ALSELMO                     RUA DO CANAVIAL N 207                   PARQUE ANTAR26053040NOVA IGUACU    RJUNIAO UMB DOS CULTOS AFRO BRAS    30081810 000011
10231987175000168916200163100    000019801                    000198010000000000000109                     I0119801     30081800000000035003410000017N070518104700000000000103008180000000000000000000000000000000000000000100000357281756ROSA ELENA DA CONCEICAO ALVES           TRAVESSA TIRADENTES N 23 CASA 4         OLINDA - NIL26535370NILOPOLIS      RJUNIAO UMB DOS CULTOS AFRO BRAS    30081810 000012
10231987175000168916200163100    000019800                    000198000000000000000109                     I0119800     30081800000000035003410000017N070518104700000000000103008180000000000000000000000000000000000000000200000000009363ANTONIO SANTOS DA SILVA                 RUA DAS BANANEIRAS N 42                 BARAO GUANDU26062188NOVA IGUACU    RJUNIAO UMB DOS CULTOS AFRO BRAS    30081810 000013
10231987175000168916200163100    000019799                    000197990000000000000109                     I0119799     30081800000000035003410000017N070518104700000000000103008180000000000000000000000000000000000000000100041402685734ITAMAR DE OLIVEIRA FERREIRA             RUA AGRIPINO DE CAMPOS N 1016           MUTUA - SAO 24461320SAO GONCALO    RJUNIAO UMB DOS CULTOS AFRO BRAS    30081810 000014
10231987175000168916200163100    000019798                    000197980000000000000109                     I0119798     30081800000000035003410000017N070518104700000000000103008180000000000000000000000000000000000000000100067160891791ELIZABETH VIEGAS GUALHANO               RUA MARIZ DE BARROS N 272 APT° 302     PRACA DA BAN20785330RIO DE JANEIRO RJUNIAO UMB DOS CULTOS AFRO BRAS    30081810 000015
10231987175000168916200163100    000019797                    000197970000000000000109                     I0119797     30081800000000035003410000017N070518104700000000000103008180000000000000000000000000000000000000000100003661917100DUCILENE MADEIRA VIEIRA                 AVENIDA ZELINHA N 362                   JARDIM NAZAR25915000MAGE           RJUNIAO UMB DOS CULTOS AFRO BRAS    30081810 000016
10231987175000168916200163100    000019796                    000197960000000000000109                     I0119796     30081800000000035003410000017N070518104700000000000103008180000000000000000000000000000000000000000100060296836168ALEXANDRE MONTEIRO DA ROSA              MONTE CASTELO Nº 143 - CORONEL VEIGA   ILHA        25655500PETROPOLIS     RJUNIAO UMB DOS CULTOS AFRO BRAS    30081810 000017
10231987175000168916200163100    000019795                    000197950000000000000109                     I0119795     30081800000000035003410000017N070518104700000000000103008180000000000000000000000000000000000000000100068754485720LUCIA DA CONCEICAO GREGORIO             RUA PAULO OLIVEIRA DE CARVALHO N 56     VILA SAO LUI26012510NOVA IGUACU    RJUNIAO UMB DOS CULTOS AFRO BRAS    30081810 000018
10231987175000168916200163100    000019794                    000197940000000000000109                     I0119794     30081800000000035003410000017N070518104700000000000103008180000000000000000000000000000000000000000100002167919794ANDERSON CLEI BRANDAO TEIXEIRA          ESTRADA DO CANTAGALO Nº 595 A          CAMPO GRANDE23036440RIO DE JANEIRO RJUNIAO UMB DOS CULTOS AFRO BRAS    30081810 000019
10231987175000168916200163100    000019793                    000197930000000000000109                     I0119793     30081800000000035003410000017N070518104700000000000103008180000000000000000000000000000000000000000100008874438770MARCIA MARIA DOS SANTOS                 RUA HENRIQUE VALADARES N 47 APT 506     CENTRO - RJ 20231030RIO DE JANEIRO RJUNIAO UMB DOS CULTOS AFRO BRAS    30081810 000020
10231987175000168916200163100    000019792                    000197920000000000000109                     I0119792     30081800000000035003410000017N070518104700000000000103008180000000000000000000000000000000000000000200000000009322WILMA DE CASTRO GOUVEA                  RUA DAMAZIO BATISTA, 86 CASA 97 - CABRALOLINDA - NIL26515126NILOPOLIS      RJUNIAO UMB DOS CULTOS AFRO BRAS    30081810 000021
10231987175000168916200163100    000019791                    000197910000000000000109                     I0119791     30081800000000035003410000017N070518104700000000000103008180000000000000000000000000000000000000000100001680132741SANDRA NOGUEIRA DE BRITO                RUA BARATA RIBEIRO 726 APT 602          COPACABANA -22051000RIO DE JANEIRO RJUNIAO UMB DOS CULTOS AFRO BRAS    30081810 000022
10231987175000168916200163100    000019790                    000197900000000000000109                     I0119790     30081800000000035003410000017N070518104700000000000103008180000000000000000000000000000000000000000100008083468738WAGNER DE ANDRADE SACRAMENTO            RUA SAGRADO CORACAO DE JESUS 243        NILOPOLIS   26535140NILOPOLIS      RJUNIAO UMB DOS CULTOS AFRO BRAS    30081810 000023
10231987175000168916200163100    000019789                    000197890000000000000109                     I0119789     30081800000000035003410000017N070518104700000000000103008180000000000000000000000000000000000000000200000000009316IRENE SIMONE DE SOUZA NOGUEIRA          RUA: NOVE DE JUNHO LOTE 9 QUADRA 18 - IPNOVA IGUACU 26293354NOVA IGUACU    RJUNIAO UMB DOS CULTOS AFRO BRAS    30081810 000024
10231987175000168916200163100    000019788                    000197880000000000000109                     I0119788     30081800000000035003410000017N070518104700000000000103008180000000000000000000000000000000000000000100070614628768CREUZA GOMES DA ROCHA                   RUA ITAPERA, 286 BLOCO 31 APTO 102      VISTA ALEGRE21230500RIO DE JANEIRO RJUNIAO UMB DOS CULTOS AFRO BRAS    30081810 000025
10231987175000168916200163100    000019787                    000197870000000000000109                     I0119787     30081800000000035003410000017N070518104700000000000103008180000000000000000000000000000000000000000100084161973772MARCOS ANTONIO VIEIRA BAPTISTA          RUA CARLOS GONCALVES PENNA, 42          ENGENHO DA R20761330RIO DE JANEIRO RJUNIAO UMB DOS CULTOS AFRO BRAS    30081810 000026
10231987175000168916200163100    000019786                    000197860000000000000109                     I0119786     30081800000000035003410000017N070518104700000000000103008180000000000000000000000000000000000000000100002175979717CLAUDIA PILAR PERES SANTOS DE           RUA JOAO MACIEIRA N 20                  MADUREIRA - 21310090RIO DE JANEIRO RJUNIAO UMB DOS CULTOS AFRO BRAS    30081810 000027
10231987175000168916200163100    000019785                    000197850000000000000109                     I0119785     30081800000000035003410000017N070518104700000000000103008180000000000000000000000000000000000000000100002190466709CARLOS ROBERTO RIBEIRO DA CONC          RUA NOSSA SENHORA DAS GRACAS N 40       MOSELA - PET25675111PETROPOLIS     RJUNIAO UMB DOS CULTOS AFRO BRAS    30081810 000028
10231987175000168916200163100    000019784                    000197840000000000000109                     I0119784     30081800000000035003410000017N070518104700000000000103008180000000000000000000000000000000000000000100083697799720ANGELA MARIA FERRAZ FARIAS              RUA LUIS BELTRAO, 1171                  VILA VALQUEI21321230RIO DE JANEIRO RJUNIAO UMB DOS CULTOS AFRO BRAS    30081810 000029
10231987175000168916200163100    000019783                    000197830000000000000109                     I0119783     30081800000000035003410000017N070518104700000000000103008180000000000000000000000000000000000000000200000000009288SAMUEL MUNIZ PORTELA                    LOTEAMENTO CAMPO LINDO LT 13 Q 57       CAMPO LINDO 21745380RIO DE JANEIRO RJUNIAO UMB DOS CULTOS AFRO BRAS    30081810 000030
10231987175000168916200163100    000019782                    000197820000000000000109                     I0119782     30081800000000035003410000017N070518104700000000000103008180000000000000000000000000000000000000000100043194869787JORGE PINHEIRO DE ALMEIDA               RUA CERQUEIRA CESAR N 121 CASA 1        MADUREIRA - 21351070RIO DE JANEIRO RJUNIAO UMB DOS CULTOS AFRO BRAS    30081810 000031
10231987175000168916200163100    000019781                    000197810000000000000109                     I0119781     30081800000000035003410000017N070518104700000000000103008180000000000000000000000000000000000000000100000907631738IDA ANGELICA PEREIRA CALDAS             RUA SILVEIRA LOBO N 43                  CACHAMBI - R20780310RIO DE JANEIRO RJUNIAO UMB DOS CULTOS AFRO BRAS    30081810 000032
10231987175000168916200163100    000019780                    000197800000000000000109                     I0119780     30081800000000040003410000017N070518104700000000000103008180000000000000000000000000000000000000000100074789600734SOLANGE MARTINS                         RUA ITAJIBA N 889                       COSMOS - RIO23060450RIO DE JANEIRO RJUNIAO UMB DOS CULTOS AFRO BRAS    30081810 000033
10231987175000168916200163100    000019779                    000197790000000000000109                     I0119779     30081800000000035003410000017N070518104700000000000103008180000000000000000000000000000000000000000100075078392734MARCIA HELENA DE AZEVEDO MUNIZ          RUA OSMUNDO PIMENTEL, 70 CASA 1         BRAZ DE PINA00000001RIO DE JANEIRO RJUNIAO UMB DOS CULTOS AFRO BRAS    30081810 000034
10231987175000168916200163100    000019778                    000197780000000000000109                     I0119778     30081800000000035003410000017N070518104700000000000103008180000000000000000000000000000000000000000100002418033732EDSON LUIZ ALVES DE CARVALHO            AVENIDA PORTO SEGURO, 526 ANTIGA RUA 30 LAGOMAR - MA27966870MACAE          RJUNIAO UMB DOS CULTOS AFRO BRAS    30081810 000035
10231987175000168916200163100    000019777                    000197770000000000000109                     I0119777     30081800000000035003410000017N070518104700000000000103008180000000000000000000000000000000000000000100065196171720MARIA DAS GRACAS OLIVEIRA               RUA FRANCISCO MANOEL, 22                PONTO CHIQUE26032835NOVA IGUACU    RJUNIAO UMB DOS CULTOS AFRO BRAS    30081810 000036
10231987175000168916200163100    000019776                    000197760000000000000109                     I0119776     30081800000000035003410000017N070518104700000000000103008180000000000000000000000000000000000000000200000000009240MEYRE CHAVES SOARES                     RUA MARIO HERMES N 40 CASA 6            BENTO RIBEIR21550555RIO DE JANEIRO RJUNIAO UMB DOS CULTOS AFRO BRAS    30081810 000037
10231987175000168916200163100    000019775                    000197750000000000000109                     I0119775     30081800000000035003410000017N070518104700000000000103008180000000000000000000000000000000000000000100059395656700NADIA MARIZA CORREA TRINDADE            RUA JORGE SILVA, 25                     PARQUE SAO J23890000RIO DE JANEIRO RJUNIAO UMB DOS CULTOS AFRO BRAS    30081810 000038
10231987175000168916200163100    000019774                    000197740000000000000109                     I0119774     30081800000000035003410000017N070518104700000000000103008180000000000000000000000000000000000000000100089080475734MARCIA MARIA CORREIA DA SILVA           RUA ALVARES CABRAL, 520                 CACHAMBI - R20780320RIO DE JANEIRO RJUNIAO UMB DOS CULTOS AFRO BRAS    30081810 000039
10231987175000168916200163100    000019773                    000197730000000000000109                     I0119773     30081800000000035003410000017N070518104700000000000103008180000000000000000000000000000000000000000100057316600772ESTELA FERREIRA                         AVENIDA BORIS, 321                      MUTONDO  - S24422730SAO GONCALO    RJUNIAO UMB DOS CULTOS AFRO BRAS    30081810 000040
10231987175000168916200163100    000019772                    000197720000000000000109                     I0119772     30081800000000035003410000017N070518104700000000000103008180000000000000000000000000000000000000000100007346014766LUCIANO FREIRE DE FRANCA                AV. AMARO CAVALCANTE, 2283 CASA 5       ENGENHO DE D20735042RIO DE JANEIRO RJUNIAO UMB DOS CULTOS AFRO BRAS    30081810 000041
10231987175000168916200163100    000019771                    000197710000000000000109                     I0119771     30081800000000040003410000017N070518104700000000000103008180000000000000000000000000000000000000000100094635650782ALFREDO DOMINGOS HAFNER                 O MESMO                                 O MESMO     25931606MAGE           RJUNIAO UMB DOS CULTOS AFRO BRAS    30081810 000042
10231987175000168916200163100    000019770                    000197700000000000000109                     I0119770     30081800000000035003410000017N070518104700000000000103008180000000000000000000000000000000000000000100044631154772LINDOMAR SOARES BERNARDO                RUA FEIRA DE SANTANA, LOTE 8 QUADRA 17  PARQUE NOVO 25585100SAO JOAO DE MERRJUNIAO UMB DOS CULTOS AFRO BRAS    30081810 000043
10231987175000168916200163100    000019769                    000197690000000000000109                     I0119769     30081800000000035003410000017N070518104700000000000103008180000000000000000000000000000000000000000100005721435755ALEX ARAUJO BRAGA                       RUA MARTE, 685 CASA 2                   MESQUITA - N26240290NOVA IGUACU    RJUNIAO UMB DOS CULTOS AFRO BRAS    30081810 000044
10231987175000168916200163100    000019768                    000197680000000000000109                     I0119768     30081800000000035003410000017N070518104700000000000103008180000000000000000000000000000000000000000100001145934773ELENICE DE SOUZA SILVA ARRUDA           RUA SEVERIANO MONTEIRO, 271 CASA 3      VISTA ALEGRE21235620RIO DE JANEIRO RJUNIAO UMB DOS CULTOS AFRO BRAS    30081810 000045
10231987175000168916200163100    000019767                    000197670000000000000109                     I0119767     30081800000000035003410000017N070518104700000000000103008180000000000000000000000000000000000000000100021207275700GEORGETE MARIA SILVA DE JESUS           RUA BECO DO MIJANCAH, 30                PRAIA DA BRI23028696PEDRA DE GUARATRJUNIAO UMB DOS CULTOS AFRO BRAS    30081810 000046
10231987175000168916200163100    000019766                    000197660000000000000109                     I0119766     30081800000000035003410000017N070518104700000000000103008180000000000000000000000000000000000000000100093719744787SERGIO PEREIRA FRAGA                    RUA JURUBAIBA, 163 FUNDOS               HONORIO GURG21555170RIO DE JANEIRO RJUNIAO UMB DOS CULTOS AFRO BRAS    30081810 000047
10231987175000168916200163100    000019765                    000197650000000000000109                     I0119765     30081800000000035003410000017N070518104700000000000103008180000000000000000000000000000000000000000100031410715787LUZIA ELISIARIA DE FREITAS              RUA EXPEDICIONARIO JOSE AMARO, 84       VILA SAO LUI25065090DUQUE DE CAXIASRJUNIAO UMB DOS CULTOS AFRO BRAS    30081810 000048
10231987175000168916200163100    000019764                    000197640000000000000109                     I0119764     30081800000000035003410000017N070518104700000000000103008180000000000000000000000000000000000000000100001256782742VANDA BARBOSA BASTOS                    RUA CERES, 1058                         BANGU - RIO 21862070RIO DE JANEIRO RJUNIAO UMB DOS CULTOS AFRO BRAS    30081810 000049
10231987175000168916200163100    000019763                    000197630000000000000109                     I0119763     30081800000000035003410000017N070518104700000000000103008180000000000000000000000000000000000000000100011105998703FABRICIO SILVEIRA DE SOUZA              RUA: JOAO EVANGELISTA DE CARVALHO Nº 21CENTRO - NIL26520500NILOPOLIS      RJUNIAO UMB DOS CULTOS AFRO BRAS    30081810 000050
10231987175000168916200163100    000019762                    000197620000000000000109                     I0119762     30081800000000025003410000017N070518104700000000000103008180000000000000000000000000000000000000000100012470639840RICARDO DE OLIVEIRA                     RUA FELINTO MARQUES CERQUEIRA, 270 - CAPCAPUCHINHOS 44076040FEIRA DE SANTANBAUNIAO UMB DOS CULTOS AFRO BRAS    30081810 000051
10231987175000168916200163100    000019761                    000197610000000000000109                     I0119761     30081800000000035003410000017N070518104700000000000103008180000000000000000000000000000000000000000100058781887704DENORIDES DE ALMEIDA                    RUA GOIANIA, 802                        VILAR NOVO -26116590BELFORD ROXO   RJUNIAO UMB DOS CULTOS AFRO BRAS    30081810 000052
10231987175000168916200163100    000019760                    000197600000000000000109                     I0119760     30081800000000035003410000017N070518104700000000000103008180000000000000000000000000000000000000000100035838493704CELMO JOSE DE SOUZA                     RUA DA CONCEICAO, 188 SALA 1204 A B     CENTRO - NIT24020087NITEROI        RJUNIAO UMB DOS CULTOS AFRO BRAS    30081810 000053
10231987175000168916200163100    000019759                    000197590000000000000109                     I0119759     30081800000000035003410000017N070518104700000000000103008180000000000000000000000000000000000000000100067267258753RITA DE CASSIA DIACOVO PELLITO          RUA ANDRE AZEVEDO, 87 CASA 101 BLOCO 25 OLARIA  - RI21021480RIO DE JANEIRO RJUNIAO UMB DOS CULTOS AFRO BRAS    30081810 000054
10231987175000168916200163100    000019758                    000197580000000000000109                     I0119758     30081800000000035003410000017N070518104700000000000103008180000000000000000000000000000000000000000100008501649740ADILSON PEREIRA DIAS                    RUA ALBERTO MARTIRES ASTH, 260          SAO GERALDO 28630485NOVA FRIBURGO  RJUNIAO UMB DOS CULTOS AFRO BRAS    30081810 000055
10231987175000168916200163100    000019757                    000197570000000000000109                     I0119757     30081800000000035003410000017N070518104700000000000103008180000000000000000000000000000000000000000100099225158734MARIA MAGALI DE OLIVEIRA SOUZA          RUA PIRACAIA, 756 FUNDOS                MARECHAL HER21555260RIO DE JANEIRO RJUNIAO UMB DOS CULTOS AFRO BRAS    30081810 000056
10231987175000168916200163100    000019756                    000197560000000000000109                     I0119756     30081800000000050003410000017N070518104700000000000103008180000000000000000000000000000000000000000100005294848708AMANDA CONCEICAO DOS SANTOS E           RUA CORONEL BERNARDINO DE MELO,  2165 APCENTRO - NOV26255140RIO DE JANEIRO RJUNIAO UMB DOS CULTOS AFRO BRAS    30081810 000057
10231987175000168916200163100    000019755                    000197550000000000000109                     I0119755     30081800000000035003410000017N070518104700000000000103008180000000000000000000000000000000000000000200000000009079AGUINALDO DE PAULA BORGES               RUA ARNALDO MURINELI, 841 CASA 3        ANCHIETA/RJ 21630060RIO DE JANEIRO RJUNIAO UMB DOS CULTOS AFRO BRAS    30081810 000058
10231987175000168916200163100    000019754                    000197540000000000000109                     I0119754     30081800000000035003410000017N070518104700000000000103008180000000000000000000000000000000000000000100088341534720RAIMUNDA BERNADINA DE OLIVEIRA          ESTRADA DA GAVEA - TRAVESSA UNIAO, 29 RUGAVEA - RIO 22451530RIO DE JANEIRO RJUNIAO UMB DOS CULTOS AFRO BRAS    30081810 000059
10231987175000168916200163100    000019753                    000197530000000000000109                     I0119753     30081800000000035003410000017N070518104700000000000103008180000000000000000000000000000000000000000100091088003753CLARA RIBEIRO FERNANDES                 R:ITACURUCA,213                         MARAMBAIA- S24724410NITEROI        RJUNIAO UMB DOS CULTOS AFRO BRAS    30081810 000060
10231987175000168916200163100    000019752                    000197520000000000000109                     I0119752     30081800000000035003410000017N070518104700000000000103008180000000000000000000000000000000000000000100015197047712MARCELLE SOARES ZIMBRAO                 RUA: NOSSA SENHORA DAS GRACAS Nº 11    MOSELA - PET25675111PETROPOLIS     RJUNIAO UMB DOS CULTOS AFRO BRAS    30081810 000061
10231987175000168916200163100    000019751                    000197510000000000000109                     I0119751     30081800000000035003410000017N070518104700000000000103008180000000000000000000000000000000000000000100085725730700MARIA LUCIA DA SILVA BORGES             RUA CACIPORE, 1273                      JARDIM OLAVO25036040DUQUE DE CAXIASRJUNIAO UMB DOS CULTOS AFRO BRAS    30081810 000062
10231987175000168916200163100    000019750                    000197500000000000000109                     I0119750     30081800000000035003410000017N070518104700000000000103008180000000000000000000000000000000000000000100046530843787EDITH DA SILVA SOUZA                    RUA: OLIVEIRA MELO                      CORDOVIL    21250540RIO DE JANEIRO RJUNIAO UMB DOS CULTOS AFRO BRAS    30081810 000063
10231987175000168916200163100    000019749                    000197490000000000000109                     I0119749     30081800000000035003410000017N070518104700000000000103008180000000000000000000000000000000000000000100002248004770ROSANE ALVES DE AZEVEDO                 RUA W, 14 LOTE 180 CASA 1               LAGOMAR - MA27970130MACAE          RJUNIAO UMB DOS CULTOS AFRO BRAS    30081810 000064
10231987175000168916200163100    000019748                    000197480000000000000109                     I0119748     30081800000000035003410000017N070518104700000000000103008180000000000000000000000000000000000000000100011778537790MARIVONE ANTONIA DOS SANTOS             O MESMO                                 O MESMO     26031512NOVA IGUACU    RJUNIAO UMB DOS CULTOS AFRO BRAS    30081810 000065
10231987175000168916200163100    000019747                    000197470000000000000109                     I0119747     30081800000000035003410000017N070518104700000000000103008180000000000000000000000000000000000000000100000238705757ANGELA DA MOTTA NUNES SILVA             RUA: RIACHO DOCE                        OSVALDO CRUZ21340340RIO DE JANEIRO RJUNIAO UMB DOS CULTOS AFRO BRAS    30081810 000066
10231987175000168916200163100    000019746                    000197460000000000000109                     I0119746     30081800000000035003410000017N070518104700000000000103008180000000000000000000000000000000000000000100045910303787PAULO ROBERTO DE OLIVEIRA DRUB          RUA ARGEMIRO DE HUNGRIA MACHADO, 195    GUADALUPE - 21670290RIO DE JANEIRO RJUNIAO UMB DOS CULTOS AFRO BRAS    30081810 000067
10231987175000168916200163100    000019745                    000197450000000000000109                     I0119745     30081800000000035003410000017N070518104700000000000103008180000000000000000000000000000000000000000100085901512715ZENILDA MACHADO VICENTE LEITE           RUA VILLAGE IMPERIAL, 194               PARQUE MAMBU23954270ANGRA DOS REIS RJUNIAO UMB DOS CULTOS AFRO BRAS    30081810 000068
10231987175000168916200163100    000019744                    000197440000000000000109                     I0119744     30081800000000035003410000017N070518104700000000000103008180000000000000000000000000000000000000000100003617355706INAIA DE MACEDO SANTOS                  TRAVESSA PARAIBA DO SUL, 35             NILOPOLIS - 26525470RIO DE JANEIRO RJUNIAO UMB DOS CULTOS AFRO BRAS    30081810 000069
10231987175000168916200163100    000019743                    000197430000000000000109                     I0119743     30081800000000035003410000017N070518104700000000000103008180000000000000000000000000000000000000000100063607379734FATIMA CONCEICAO GONCALVES DA           RUA: AMANDIU Nº 63                     IRAJA - RIO 21371440RIO DE JANEIRO RJUNIAO UMB DOS CULTOS AFRO BRAS    30081810 000070
10231987175000168916200163100    000019742                    000197420000000000000109                     I0119742     30081800000000035003410000017N070518104700000000000103008180000000000000000000000000000000000000000100085194557787CELIA MARIA FERNANDES DE CASTR          RUA IRAPIRANGA, 98                      ROCHA MIRAND21540710RIO DE JANEIRO RJUNIAO UMB DOS CULTOS AFRO BRAS    30081810 000071
10231987175000168916200163100    000019741                    000197410000000000000109                     I0119741     30081800000000035003410000017N070518104700000000000103008180000000000000000000000000000000000000000100010126360707NONILHA DA CONCEICAO FERREIRA           RUA JUSCELINO KUBITCHEK DE OLIVEIRA ,232PRAIA NOVA -25900000MAGE           RJUNIAO UMB DOS CULTOS AFRO BRAS    30081810 000072
10231987175000168916200163100    000019740                    000197400000000000000109                     I0119740     30081800000000035003410000017N070518104700000000000103008180000000000000000000000000000000000000000100080236499734REGINALDO VIEIRA CAPTIVO                RUA: DOUTOR NUNES N° 1099 FUNDOS       OLARIA - RIO21021370RIO DE JANEIRO RJUNIAO UMB DOS CULTOS AFRO BRAS    30081810 000073
10231987175000168916200163100    000019739                    000197390000000000000109                     I0119739     30081800000000035003410000017N070518104700000000000103008180000000000000000000000000000000000000000100055224644704VALERIA DOS SANTOS NEVES                RUA FRANCISCA ZIEZE, 71                 PILARES - RI20750040RIO DE JANEIRIORJUNIAO UMB DOS CULTOS AFRO BRAS    30081810 000074
10231987175000168916200163100    000019738                    000197380000000000000109                     I0119738     30081800000000035003410000017N070518104700000000000103008180000000000000000000000000000000000000000100026376253768MARIA DE LOURDES DA SILVA FERN          RUA: ESTUDANTE PAULINO DURVAL, QUADRA 3 MAGE - RIO D25931882MAGE           RJUNIAO UMB DOS CULTOS AFRO BRAS    30081810 000075
10231987175000168916200163100    000019737                    000197370000000000000109                     I0119737     30081800000000035003410000017N070518104700000000000103008180000000000000000000000000000000000000000100055365795768YEDA BARROS DE AZEVEDO                  RUA SESSENTA E NOVE QUADRA, 332 LOTE 43 JARDIM ATLAN24910000MARICA         RJUNIAO UMB DOS CULTOS AFRO BRAS    30081810 000076
10231987175000168916200163100    000019736                    000197360000000000000109                     I0119736     30081800000000035003410000017N070518104700000000000103008180000000000000000000000000000000000000000100068567855772ZAILDA MASCARENHAS DOS SANTOS           RUA FRANCISCO ANTONIO NASCIMENTO, 57    MIGUEL COUTO26070467RIO DE JANEIRO RJUNIAO UMB DOS CULTOS AFRO BRAS    30081810 000077
10231987175000168916200163100    000019735                    000197350000000000000109                     I0119735     30081800000000035003410000017N070518104700000000000103008180000000000000000000000000000000000000000200000000008928GILMAR GAMMARO CARVALHO                 RUA GENERAL SEARA, 189                  CAROLINA - D25060010DUQUE CAXIAS   RJUNIAO UMB DOS CULTOS AFRO BRAS    30081810 000078
10231987175000168916200163100    000019734                    000197340000000000000109                     I0119734     30081800000000035003410000017N070518104700000000000103008180000000000000000000000000000000000000000100065065325749MARIA LUISA CHAGAS SILVA                RUA BOGARI N°16  BELFORD ROXO          JD XAVANTES 26160190BELFORD ROXO   RJUNIAO UMB DOS CULTOS AFRO BRAS    30081810 000079
10231987175000168916200163100    000019733                    000197330000000000000109                     I0119733     30081800000000035003410000017N070518104700000000000103008180000000000000000000000000000000000000000100079583490768ZILDA VICENTE DA SILVA                  RUA MARIA COSTA CORREA, 129 QUADRA E    APOLO 2 - IT24800000ITABORAI       RJUNIAO UMB DOS CULTOS AFRO BRAS    30081810 000080
10231987175000168916200163100    000019732                    000197320000000000000109                     I0119732     30081800000000035003410000017N070518104700000000000103008180000000000000000000000000000000000000000100005383774700VILMA MACEDO COIMBRA DOS SANTO          RUA TOQUIO, 571                         AGOSTINHO PO25545211SAO JOAO DE MERRJUNIAO UMB DOS CULTOS AFRO BRAS    30081810 000081
10231987175000168916200163100    000019731                    000197310000000000000109                     I0119731     30081800000000035003410000017N070518104700000000000103008180000000000000000000000000000000000000000100012201569738PAULO CELSO MACHADO JUNIOR              RUA SEIS LOTE 26 - CHACARA INOA         MARICA - RIO24900000MARICA         RJUNIAO UMB DOS CULTOS AFRO BRAS    30081810 000082
10231987175000168916200163100    000019730                    000197300000000000000109                     I0119730     30081800000000035003410000017N070518104700000000000103008180000000000000000000000000000000000000000100007967809785FERNANDA PAULA SANTA ANNA HERN          TRAVESSA CHAFI CHAIA, 95                CAMPO GRANDE23052200RIO DE JANEIRO RJUNIAO UMB DOS CULTOS AFRO BRAS    30081810 000083
10231987175000168916200163100    000019729                    000197290000000000000109                     I0119729     30081800000000035003410000017N070518104700000000000103008180000000000000000000000000000000000000000100009431078732LUCIA OLIVEIRA BONIFACIO                RUA NINA RIBEIRO, 67 FUNDOS             PAVUNA - RJ 21520290RIO DE JANEIRO RJUNIAO UMB DOS CULTOS AFRO BRAS    30081810 000084
10231987175000168916200163100    000019728                    000197280000000000000109                     I0119728     30081800000000035003410000017N070518104700000000000103008180000000000000000000000000000000000000000100093473095753ALEXANDER NUNES PICANCO                 RUA REGISTRO, 315                       SENADOR CAMA21832270RIO DE JANEIRO RJUNIAO UMB DOS CULTOS AFRO BRAS    30081810 000085
10231987175000168916200163100    000019727                    000197270000000000000109                     I0119727     30081800000000035003410000017N070518104700000000000103008180000000000000000000000000000000000000000100001942477759VILMA MARIA FARIA                       RUA CINQUENTA E SEIS, 473 QUADRA 50     SEPETIBA - R23520660RIO DE JANEIRO RJUNIAO UMB DOS CULTOS AFRO BRAS    30081810 000086
10231987175000168916200163100    000019726                    000197260000000000000109                     I0119726     30081800000000035003410000017N070518104700000000000103008180000000000000000000000000000000000000000100009507261761RODRIGO FELIX DA SILVA                  RUA GENERAL PINTO AMANDO, 231 APTO 302  HONORIO GURG21511330RIO DE JANEIRO RJUNIAO UMB DOS CULTOS AFRO BRAS    30081810 000087
10231987175000168916200163100    000019725                    000197250000000000000109                     I0119725     30081800000000035003410000017N070518104700000000000103008180000000000000000000000000000000000000000200000000008849ANDREIA DANGELA DE ANDRADE LIM          RUA BORGES MONTEIRO, 100                HIGIENOPOLIS21051460RIO DE JANEIRO RJUNIAO UMB DOS CULTOS AFRO BRAS    30081810 000088
10231987175000168916200163100    000019724                    000197240000000000000109                     I0119724     30081800000000035003410000017N070518104700000000000103008180000000000000000000000000000000000000000100003535090784SOLANGE PEREIRA DA SILVA                RUA MANUEL MIRANDA, 226                 ENGENHO NOVO20950300RIO DE JANEIRO RJUNIAO UMB DOS CULTOS AFRO BRAS    30081810 000089
10231987175000168916200163100    000019723                    000197230000000000000109                     I0119723     30081800000000035003410000017N070518104700000000000103008180000000000000000000000000000000000000000100038719444753JOAQUIM ROBERTO TRINDADE MONTE          RUA TAQUARI N 192 CASA 2                BRAS DE PINA21215540RIO DE JANEIRO RJUNIAO UMB DOS CULTOS AFRO BRAS    30081810 000090
10231987175000168916200163100    000019722                    000197220000000000000109                     I0119722     30081800000000035003410000017N070518104700000000000103008180000000000000000000000000000000000000000100072879321753ANA MARIA AGUIAR FERREIRA               RUA BOLIVAR CARVALHO, LOTE 7 QUADRA 46 CJARDIM METRO25575270SAO JOAO DE MERRJUNIAO UMB DOS CULTOS AFRO BRAS    30081810 000091
10231987175000168916200163100    000019721                    000197210000000000000109                     I0119721     30081800000000035003410000017N070518104700000000000103008180000000000000000000000000000000000000000100011193274745WELINGTON PEDRO DOS SANTOS GOM          RUA ARAUJO ROZO, 305 FUNDOS             ANCHIETA - R21635100RIO DE JANEIRO RJUNIAO UMB DOS CULTOS AFRO BRAS    30081810 000092
10231987175000168916200163100    000019720                    000197200000000000000109                     I0119720     30081800000000035003410000017N070518104700000000000103008180000000000000000000000000000000000000000100099025078753EVA DE OLIVEIRA LOPES                   ESTRADA SANTO ANTONIO Nº 8             CARTA ANISTI26455280RIO DE JANEIRO RJUNIAO UMB DOS CULTOS AFRO BRAS    30081810 000093
10231987175000168916200163100    000019719                    000197190000000000000109                     I0119719     30081800000000035003410000017N070518104700000000000103008180000000000000000000000000000000000000000100067053424715HELENA DE FATIMA MENDES MARQUE          RUA IRANI, 182                          PENHA - RJ  21020200RIO DE JANEIRO RJUNIAO UMB DOS CULTOS AFRO BRAS    30081810 000094
10231987175000168916200163100    000019718                    000197180000000000000109                     I0119718     30081800000000035003410000017N070518104700000000000103008180000000000000000000000000000000000000000100080499306724ANA CLAUDIA DE SOUZA RODRIGUES          RUA CRAVEIRO DE SA,183                  PARADA DE LU21250490RIO DE JANEIRO RJUNIAO UMB DOS CULTOS AFRO BRAS    30081810 000095
10231987175000168916200163100    000019717                    000197170000000000000109                     I0119717     30081800000000035003410000017N070518104700000000000103008180000000000000000000000000000000000000000100002181028796EMERSON DIAS DA COSTA                   RUA PARA, LOTE 10 QUADRA 31             VALE DAS MAN26175370BELFORD ROXO   RJUNIAO UMB DOS CULTOS AFRO BRAS    30081810 000096
10231987175000168916200163100    000019716                    000197160000000000000109                     I0119716     30081800000000035003410000017N070518104700000000000103008180000000000000000000000000000000000000000100008016237746RAFAEL GRACA PEREIRA                    ESTRADA DA COVANCA, 360 CASA            TANQUE - JAC22735020RIO DE JANEIRO RJUNIAO UMB DOS CULTOS AFRO BRAS    30081810 000097
10231987175000168916200163100    000019715                    000197150000000000000109                     I0119715     30081800000000035003410000017N070518104700000000000103008180000000000000000000000000000000000000000100089826930768MARIA DAS DORES SILVA                   RUA JORDAO, 805 CASA 40                 TANQUE - RIO22725549RIO DE JANEIRO RJUNIAO UMB DOS CULTOS AFRO BRAS    30081810 000098
10231987175000168916200163100    000019714                    000197140000000000000109                     I0119714     30081800000000035003410000017N070518104700000000000103008180000000000000000000000000000000000000000100050534173772IARA FRANCISCO                          RUA BARAO DE MELGACO, 279 FUNDOS        CORDOVIL - R21250320RIO DE JANEIRO RJUNIAO UMB DOS CULTOS AFRO BRAS    30081810 000099
10231987175000168916200163100    000019713                    000197130000000000000109                     I0119713     30081800000000035003410000017N070518104700000000000103008180000000000000000000000000000000000000000200000000008601CARLOS ALBERTO PORTO LEAL               RUA FOSCA, 55                           POSSE - NOVA26020015NOVA IGUACU    RJUNIAO UMB DOS CULTOS AFRO BRAS    30081810 000100
10231987175000168916200163100    000019712                    000197120000000000000109                     I0119712     30081800000000035003410000017N070518104700000000000103008180000000000000000000000000000000000000000100007650422747SIDNEI DO VALE FELISBERTO               RUA DESEMBARGADOR MACHADO GUIMARAES, 90 JARDIM TROPI26011110NOVA IGUACU    RJUNIAO UMB DOS CULTOS AFRO BRAS    30081810 000101
10231987175000168916200163100    000019711                    000197110000000000000109                     I0119711     30081800000000035003410000017N070518104700000000000103008180000000000000000000000000000000000000000100076658961700BEATRIZ DIAS DO NASCIMENTO              RUA SAO BRUNO N 55 APT 301              PENHA - RIO 21021160RIO DE JANEIRO RJUNIAO UMB DOS CULTOS AFRO BRAS    30081810 000102
10231987175000168916200163100    000019710                    000197100000000000000109                     I0119710     30081800000000035003410000017N070518104700000000000103008180000000000000000000000000000000000000000100036257869749IRANI DA SILVA CORREA                   RUA JATAIZINHO, 11 - JARDIM ORIENTAL    SENADOR VASC23012170RIO DE JANEIRO RJUNIAO UMB DOS CULTOS AFRO BRAS    30081810 000103
10231987175000168916200163100    000019709                    000197090000000000000109                     I0119709     30081800000000035003410000017N070518104700000000000103008180000000000000000000000000000000000000000100062783203715SORAYA BARROS PINHEIRO                  RUA SANTOS TITARA, 45 APTO 115          TODOS SANTOS20735240RIO DE JANEIRO RJUNIAO UMB DOS CULTOS AFRO BRAS    30081810 000104
10231987175000168916200163100    000019708                    000197080000000000000109                     I0119708     30081800000000035003410000017N070518104700000000000103008180000000000000000000000000000000000000000100001457331730MIRIAN ANSELMO DE SOUZA SANTOS          RUA CRISTIANO OTONI, LT 25 QD 1         ALMERINDA - 24740004SAO GONCALO    RJUNIAO UMB DOS CULTOS AFRO BRAS    30081810 000105
10231987175000168916200163100    000019707                    000197070000000000000109                     I0119707     30081800000000035003410000017N070518104700000000000103008180000000000000000000000000000000000000000100050775561720LEANDRO MECENAS DA CUNHA                RUA GUATOS N 34                         PARQUE SAO C26051640NOVA IGUACU    RJUNIAO UMB DOS CULTOS AFRO BRAS    30081810 000106
10231987175000168916200163100    000019706                    000197060000000000000109                     I0119706     30081800000000035003410000017N070518104700000000000103008180000000000000000000000000000000000000000100045619581772EDELZUITA PESSOA DA SILVA               RUA DONA JULIETA N 55 - MIGUEL COUTO    MIGUEL COUTO26147160NOVA IGUACU    RJUNIAO UMB DOS CULTOS AFRO BRAS    30081810 000107
10231987175000168916200163100    000019705                    000197050000000000000109                     I0119705     30081800000000035003410000017N070518104700000000000103008180000000000000000000000000000000000000000100002603000713DEBORA DOS SANTOS GOES                  O MESMO                                 O MESMO     25268240DUQUE DE CAXIASRJUNIAO UMB DOS CULTOS AFRO BRAS    30081810 000108
10231987175000168916200163100    000019704                    000197040000000000000109                     I0119704     30081800000000035003410000017N070518104700000000000103008180000000000000000000000000000000000000000100084703741768LINDALVA PEREIRA DE SOUZA               ESTRADA BARRO VERMELHO, 1366            ROCHA MIRAND21540499RIO DE JANEIRO RJUNIAO UMB DOS CULTOS AFRO BRAS    30081810 000109
10231987175000168916200163100    000019703                    000197030000000000000109                     I0119703     30081800000000035003410000017N070518104700000000000103008180000000000000000000000000000000000000000100007295283757DULCE DOS SANTOS MONTEIRO               AVENIDA ESTACIO DE SA LOTE 32 QUADRA 17 PARQUE NOVO 25585000SAO JOAO DE MERRJUNIAO UMB DOS CULTOS AFRO BRAS    30081810 000110
10231987175000168916200163100    000019702                    000197020000000000000109                     I0119702     30081800000000035003410000017N070518104700000000000103008180000000000000000000000000000000000000000100099272946700MARCOS ANTONIO DA SILVA                 RUA PIACAVA N 100                       VILA MARILIA26040210NOVA IGUACU    RJUNIAO UMB DOS CULTOS AFRO BRAS    30081810 000111
10231987175000168916200163100    000019701                    000197010000000000000109                     I0119701     30081800000000035003410000017N070518104700000000000103008180000000000000000000000000000000000000000100009400587740PAULO JORGE DA SILVA ABDALA             RUA PIRATININGA, LOTE 1 QUADRA 8        PQUE SAO BER26165435BELFORD ROXO   RJUNIAO UMB DOS CULTOS AFRO BRAS    30081810 000112
10231987175000168916200163100    000019700                    000197000000000000000109                     I0119700     30081800000000035003410000017N070518104700000000000103008180000000000000000000000000000000000000000100046180303720ALANIR SOARES DA SILVA                  RUA QUATORZE, LOTE 14 QUADRA 32         SANTA CRUZ -23520292RIO DE JANEIRO RJUNIAO UMB DOS CULTOS AFRO BRAS    30081810 000113
10231987175000168916200163100    000019699                    000196990000000000000109                     I0119699     30081800000000035003410000017N070518104700000000000103008180000000000000000000000000000000000000000100063553830778WILLIAM RODRIGUES                       ESTRADA OTEIRO SANTO, 1022 CASA 3       TAQUARA - RI22713169RIO DE JANEIRO RJUNIAO UMB DOS CULTOS AFRO BRAS    30081810 000114
10231987175000168916200163100    000019698                    000196980000000000000109                     I0119698     30081800000000035003410000017N070518104700000000000103008180000000000000000000000000000000000000000200000000008438MARIA LEOPOLDINO DE MATOS               RUA URUCURANA N 177                     BOA ESPERANC26143140NOVA IGUACU    RJUNIAO UMB DOS CULTOS AFRO BRAS    30081810 000115
10231987175000168916200163100    000019697                    000196970000000000000109                     I0119697     30081800000000035003410000017N070518104700000000000103008180000000000000000000000000000000000000000200000000008430ALESSANDRO SIQUEIRA ALVES               RUA CARLOTA, 241                        VILA OMEGA -26053350NOVA IGUACU    RJUNIAO UMB DOS CULTOS AFRO BRAS    30081810 000116
10231987175000168916200163100    000019696                    000196960000000000000109                     I0119696     30081800000000035003410000017N070518104700000000000103008180000000000000000000000000000000000000000100007485965778GRACIETE LEAO TANGUA                    RUA ROBERTO RANGEL LIMA LOTE 16 QUADRA GMAURI - PIAB25915000MAGE           RJUNIAO UMB DOS CULTOS AFRO BRAS    30081810 000117
10231987175000168916200163100    000019695                    000196950000000000000109                     I0119695     30081800000000035003410000017N070518104700000000000103008180000000000000000000000000000000000000000100038370999700JULIO ALEXANDRE FERREIRA                RUA BARAO DE JACUI, 254 CASA 16 FUNDOS  OSWALDO CRUZ21550310RIO DE JANEIRO RJUNIAO UMB DOS CULTOS AFRO BRAS    30081810 000118
10231987175000168916200163100    000019694                    000196940000000000000109                     I0119694     30081800000000035003410000017N070518104700000000000103008180000000000000000000000000000000000000000100001934622737ZENY MIRANDA DE SOUZA                   RUA ADRIANA, 63 - RECANTO SANTO ANTONIO SANTA RITA -26051130NOVA IGUACU    RJUNIAO UMB DOS CULTOS AFRO BRAS    30081810 000119
10231987175000168916200163100    000019693                    000196930000000000000109                     I0119693     30081800000000035003410000017N070518104700000000000103008180000000000000000000000000000000000000000100000681004770ESPEDITA NUNES DA SILVA                 AVENIDA CASTELO BRANCO, LOTE 3 QUADRA 83PAQ.ELDORADO25243570DUQUE DE CAXIASRJUNIAO UMB DOS CULTOS AFRO BRAS    30081810 000120
10231987175000168916200163100    000019692                    000196920000000000000109                     I0119692     30081800000000035003410000017N070518104700000000000103008180000000000000000000000000000000000000000100000382904729EMERSON DOS SANTOS FIDELIS              RUA SEVERINO SANTOS, LOTE 20 QUADRA P   SARACURUNA -25212668DUQUE DE CAXIASRJUNIAO UMB DOS CULTOS AFRO BRAS    30081810 000121
10231987175000168916200163100    000019691                    000196910000000000000109                     I0119691     30081800000000035003410000017N070518104700000000000103008180000000000000000000000000000000000000000100062792920700LUIZ CESAR DE OLIVEIRA                  RUA PEREIRA DE FIGUEIREDO, 627          OSWALDO CRUZ21340030RIO DE JANEIRO RJUNIAO UMB DOS CULTOS AFRO BRAS    30081810 000122
10231987175000168916200163100    000019690                    000196900000000000000109                     I0119690     30081800000000035003410000017N070518104700000000000103008180000000000000000000000000000000000000000100002978000783FABIO PINTO MANTUANO                    LAURA MARIA PINTO MANTUANO - MAE        O MESMO     24900000MARICA         RJUNIAO UMB DOS CULTOS AFRO BRAS    30081810 000123
10231987175000168916200163100    000019689                    000196890000000000000109                     I0119689     30081800000000035003410000017N070518104700000000000103008180000000000000000000000000000000000000000200000000004475POJUCAM LOPES TOLEDO                    RUA LUIS CAPUTI, 469                    CENTRO -VASS27700000VASSOURAS      RJUNIAO UMB DOS CULTOS AFRO BRAS    30081810 000124
10231987175000168916200163100    000019688                    000196880000000000000109                     I0119688     30081800000000035003410000017N070518104700000000000103008180000000000000000000000000000000000000000100001117379744VERA LUCIA SOUZA COUTO                  RUA RUDY ALBERTO, 868 - IMPERADOR       MAUA - MAGE 25900000MAGE           RJUNIAO UMB DOS CULTOS AFRO BRAS    30081810 000125
10231987175000168916200163100    000019687                    000196870000000000000109                     I0119687     30081800000000035003410000017N070518104700000000000103008180000000000000000000000000000000000000000200000000008299EMANUELA DE OLIVEIRA CRUZ ROSA          O MESMO                                 O MESMO     25260230DUQUE DE CAXIASRJUNIAO UMB DOS CULTOS AFRO BRAS    30081810 000126
10231987175000168916200163100    000019686                    000196860000000000000109                     I0119686     30081800000000035003410000017N070518104700000000000103008180000000000000000000000000000000000000000200000000008294MARIA ALICE MANOEL DO VALE              RUA B LOTE 9 QUADRA 3 - JARDIM MARAMBAIAJARDIM MARAM24800000ITABORAI       RJUNIAO UMB DOS CULTOS AFRO BRAS    30081810 000127
10231987175000168916200163100    000019685                    000196850000000000000109                     I0119685     30081800000000035003410000017N070518104700000000000103008180000000000000000000000000000000000000000100081051387787ROSA AMELIA COSENZA                     RUA MARIA DA GLORIA BALTAR N 48         NOVA CIDADE 26535290NILOPOLIS      RJUNIAO UMB DOS CULTOS AFRO BRAS    30081810 000128
10231987175000168916200163100    000019684                    000196840000000000000109                     I0119684     30081800000000035003410000017N070518104700000000000103008180000000000000000000000000000000000000000100004501217715JOSE DIOMEDES DO PATROCINIO NE          RUA DOUTOR LAUREANO N 250 - VILA SAO LUIVILA SAO LUI25060220DUQUE DE CAXIASRJUNIAO UMB DOS CULTOS AFRO BRAS    30081810 000129
10231987175000168916200163100    000019683                    000196830000000000000109                     I0119683     30081800000000035003410000017N070518104700000000000103008180000000000000000000000000000000000000000100004753333736ELAINE DOS SANTOS FONTES ARAUJ          O MESMO                                 O MESMO     21775090RIO DE JANEIRO RJUNIAO UMB DOS CULTOS AFRO BRAS    30081810 000130
10231987175000168916200163100    000019682                    000196820000000000000109                     I0119682     30081800000000035003410000017N070518104700000000000103008180000000000000000000000000000000000000000100007342538779DAVID GARDINA FERREIRA LUCIO            O MESMO                                 O MESMO     25550531SAO JOAO DE MERRJUNIAO UMB DOS CULTOS AFRO BRAS    30081810 000131
10231987175000168916200163100    000019681                    000196810000000000000109                     I0119681     30081800000000035003410000017N070518104700000000000103008180000000000000000000000000000000000000000100003316779701WALLACE SILVA SOARES                    RUA QUINZE DE NOVEMBRO LOTE 2 QUADRA N CSARACURUNA -25212690DUQUE DE CAXIASRJUNIAO UMB DOS CULTOS AFRO BRAS    30081810 000132
10231987175000168916200163100    000019680                    000196800000000000000109                     I0119680     30081800000000035003410000017N070518104700000000000103008180000000000000000000000000000000000000000100068506589720MARILDA TEREZA DA SILVA                 O MESMO                                 O MESMO     26327240QUEIMADOS      RJUNIAO UMB DOS CULTOS AFRO BRAS    30081810 000133
10231987175000168916200163100    000019679                    000196790000000000000109                     I0119679     30081800000000035003410000017N070518104700000000000103008180000000000000000000000000000000000000000100027686205720DENNIS CLARE                            RUA: RATICLIFF                          RIACHUELO   20950170RIO DE JANEIRO RJUNIAO UMB DOS CULTOS AFRO BRAS    30081810 000134
10231987175000168916200163100    000019678                    000196780000000000000109                     I0119678     30081800000000035003410000017N070518104700000000000103008180000000000000000000000000000000000000000100064949559753CREUZA LEAL COIMBRA                     O MESMO                                 O MESMO     25570393SAO JOAO DE MERRJUNIAO UMB DOS CULTOS AFRO BRAS    30081810 000135
10231987175000168916200163100    000019677                    000196770000000000000109                     I0119677     30081800000000035003410000017N070518104700000000000103008180000000000000000000000000000000000000000100007972604711ADRIANA TAVARES DA CONCEICAO            O MESMO                                 O MESMO     22723155RIO DE JANEIRO RJUNIAO UMB DOS CULTOS AFRO BRAS    30081810 000136
10231987175000168916200163100    000019676                    000196760000000000000109                     I0119676     30081800000000035003410000017N070518104700000000000103008180000000000000000000000000000000000000000100036386812700VICENCO GEARDINA NETO                   O MESMO                                 O MESMO     26061070NOVA IGUACU    RJUNIAO UMB DOS CULTOS AFRO BRAS    30081810 000137
10231987175000168916200163100    000019675                    000196750000000000000109                     I0119675     30081800000000035003410000017N070518104700000000000103008180000000000000000000000000000000000000000100003027226703MARCIO ALVES DOS SANTOS                 RUA ESTUDANTE ELIANE CASTANHEIRA N 874  CENTRO - SAO25510242SAO JOAO DE MERRJUNIAO UMB DOS CULTOS AFRO BRAS    30081810 000138
10231987175000168916200163100    000019674                    000196740000000000000109                     I0119674     30081800000000035003410000017N070518104700000000000103008180000000000000000000000000000000000000000100093971087787SUELY DE CASSIA NEVES DA SILVA          RUA ANTONIO JOAQUIM DA SILVA N 49       PARQUE BARRE25581140SAO JOAO DE MERRJUNIAO UMB DOS CULTOS AFRO BRAS    30081810 000139
10231987175000168916200163100    000019673                    000196730000000000000109                     I0119673     30081800000000035003410000017N070518104700000000000103008180000000000000000000000000000000000000000100081947712772MARIA COELHO DE LIMA                    O MESMO                                 O MESMO     25040070DUQUE DE CAXIASRJUNIAO UMB DOS CULTOS AFRO BRAS    30081810 000140
10231987175000168916200163100    000019672                    000196720000000000000109                     I0119672     30081800000000035003410000017N070518104700000000000103008180000000000000000000000000000000000000000100096252634700PATRICIA BORGES                         O MESMO                                 O MESMO     23530074RIO DE JANEIRO RJUNIAO UMB DOS CULTOS AFRO BRAS    30081810 000141
10231987175000168916200163100    000019671                    000196710000000000000109                     I0119671     30081800000000035003410000017N070518104700000000000103008180000000000000000000000000000000000000000100010083312790EDINALDO FELIX DA SILVA                 RUA POJUCA Nº 174 CASA 3               ZUMBI - ILHA21930180SEROPEDICA     RJUNIAO UMB DOS CULTOS AFRO BRAS    30081810 000142
10231987175000168916200163100    000019670                    000196700000000000000109                     I0119670     30081800000000035003410000017N070518104700000000000103008180000000000000000000000000000000000000000100080295576715DOLORES DAS GRACAS ADRIANO DE           RUA SOLDADO PRIM CANES, QUADRA 198 LOTE VILA MAR - G23025420GUARATIBA      RJUNIAO UMB DOS CULTOS AFRO BRAS    30081810 000143
10231987175000168916200163100    000019669                    000196690000000000000109                     I0119669     30081800000000035003410000017N070518104700000000000103008180000000000000000000000000000000000000000200000000004184CARLOS ALBERTO DA SILVA SANTOS          AVENIDA MARIA DE SENA MOREIRA, 218      INCOFINDENCI26085060RIO DE JANEIRO RJUNIAO UMB DOS CULTOS AFRO BRAS    30081810 000144
10231987175000168916200163100    000019668                    000196680000000000000109                     I0119668     30081800000000035003410000017N070518104700000000000103008180000000000000000000000000000000000000000100001393165745MARCO AURELIO DE BARROS FARIAS          RUA AIROSA GALVAO, 44                   FONSECA - NI24120100NITEROI        RJUNIAO UMB DOS CULTOS AFRO BRAS    30081810 000145
10231987175000168916200163100    000019667                    000196670000000000000109                     I0119667     30081800000000035003410000017N070518104700000000000103008180000000000000000000000000000000000000000200000000004181LEANDRO HENRIQUE DA SILVA               RUA ALVARO LINS, LOTE 4 QUADRA M        PQ VITORIA -25045490DUQUE DE CAXIASRJUNIAO UMB DOS CULTOS AFRO BRAS    30081810 000146
10231987175000168916200163100    000019666                    000196660000000000000109                     I0119666     30081800000000035003410000017N070518104700000000000103008180000000000000000000000000000000000000000100077451953734VANDA NILDA DE ASSIS                    RUA: COELHO LISBOA Nº 168              OSVALDO CRUZ21340260RIO DE JANEIRIORJUNIAO UMB DOS CULTOS AFRO BRAS    30081810 000147
10231987175000168916200163100    000019665                    000196650000000000000109                     I0119665     30081800000000035003410000017N070518104700000000000103008180000000000000000000000000000000000000000100005415694730ALEX SANDRO DA SILVA BANDEIRA           RUA PAULO ROBERTO, 6                    PRAIA DE MAU25900000MAGE           RJUNIAO UMB DOS CULTOS AFRO BRAS    30081810 000148
10231987175000168916200163100    000019664                    000196640000000000000109                     I0119664     30081800000000035003410000017N070518104700000000000103008180000000000000000000000000000000000000000100013909038778MARIA DO CARMO SILVA DE MOURA           RUA SAO CARLOS, 75                      ESTACIO - RI20250052RIO DE JANEIRO RJUNIAO UMB DOS CULTOS AFRO BRAS    30081810 000149
10231987175000168916200163100    000019663                    000196630000000000000109                     I0119663     30081800000000035003410000017N070518104700000000000103008180000000000000000000000000000000000000000100082059403715SANDRA HELENA VILLAMOR MONTASS          RUA ARGOS, 693                          GUADALUPE   21660050RIO DE JANEIRO RJUNIAO UMB DOS CULTOS AFRO BRAS    30081810 000150
10231987175000168916200163100    000019662                    000196620000000000000109                     I0119662     30081800000000035003410000017N070518104700000000000103008180000000000000000000000000000000000000000100012948872898LUCILENE BARROS                         RUA DO PIANO 21                         CAMPOS ELISI25225218DUQUE DE CAXIASRJUNIAO UMB DOS CULTOS AFRO BRAS    30081810 000151
10231987175000168916200163100    000019661                    000196610000000000000109                     I0119661     30081800000000035003410000017N070518104700000000000103008180000000000000000000000000000000000000000100060407875700KATIA DE AZEVEDO FURTADO                RUA SOUZA PITANGA, 82                   THOMAS COELH21381230RIO DE JANEIRO RJUNIAO UMB DOS CULTOS AFRO BRAS    30081810 000152
10231987175000168916200163100    000019660                    000196600000000000000109                     I0119660     30081800000000035003410000017N070518104700000000000103008180000000000000000000000000000000000000000100088677079734MARIA APARECIDA MORAIS DOS SAN          RUA OLAVO GAMA, TRAVESSA F - PROJETADA BGUARATIBA - 23040400SEROPEDICA     RJUNIAO UMB DOS CULTOS AFRO BRAS    30081810 000153
10231987175000168916200163100    000019659                    000196590000000000000109                     I0119659     30081800000000035003410000017N070518104700000000000103008180000000000000000000000000000000000000000100067023711791EURIDES DOS SANTOS                      RUA CORONEL ALBERTO DE MELO, 47 CASA 1  AREIA BRANCA26112370BELFORD ROXO   RJUNIAO UMB DOS CULTOS AFRO BRAS    30081810 000154
10231987175000168916200163100    000019658                    000196580000000000000109                     I0119658     30081800000000035003410000017N070518104700000000000103008180000000000000000000000000000000000000000100051851229787MARTA DO NASCIMENTO CRISPINO            RUA LEONOR SARAMAGO, 89                 FONSECA - NI24120340NITEROI        RJUNIAO UMB DOS CULTOS AFRO BRAS    30081810 000155
10231987175000168916200163100    000019657                    000196570000000000000109                     I0119657     30081800000000035003410000017N070518104700000000000103008180000000000000000000000000000000000000000100000000004130MARIA ORLANDA ALVES BRAZ                RUA JOSE DE ARAUJO 633                  CAMPO ALEGRE26292008RIO DE JANEIRO RJUNIAO UMB DOS CULTOS AFRO BRAS    30081810 000156
10231987175000168916200163100    000019656                    000196560000000000000109                     I0119656     30081800000000035003410000017N070518104700000000000103008180000000000000000000000000000000000000000100077526694749FATIMA CRISTINA DA CUNHA PINHE          RUA TRAVESSA SANTO MAXIMO, 25           GUADALUPE - 21655780RIO DE JANEIRO RJUNIAO UMB DOS CULTOS AFRO BRAS    30081810 000157
10231987175000168916200163100    000019655                    000196550000000000000109                     I0119655     30081800000000035003410000017N070518104700000000000103008180000000000000000000000000000000000000000100000059525738MONICA SOARES MAGALHAES                 RUA: AMALIA Nº 117                     QUINTINO - R21380400RIO DE JANEIRO RJUNIAO UMB DOS CULTOS AFRO BRAS    30081810 000158
10231987175000168916200163100    000019654                    000196540000000000000109                     I0119654     30081800000000035003410000017N070518104700000000000103008180000000000000000000000000000000000000000100003987884720SAINT CLAIR MACHADO FERNANDES           RUA JACA, QUADRA 4 LOTE 14              PARQUE ESPER26173510BELFORD ROXO   RJUNIAO UMB DOS CULTOS AFRO BRAS    30081810 000159
10231987175000168916200163100    000019653                    000196530000000000000109                     I0119653     30081800000000035003410000017N070518104700000000000103008180000000000000000000000000000000000000000200000000004099CARLOS HENRIQUE LOPES ROSA              RUA ROSA MULLER, LOTE 3 CD 1 BLOCO 9 APTVILAR DOS TE25560355SAO JOAO DE MERRJUNIAO UMB DOS CULTOS AFRO BRAS    30081810 000160
10231987175000168916200163100    000019652                    000196520000000000000109                     I0119652     30081800000000035003410000017N070518104700000000000103008180000000000000000000000000000000000000000100066638682768VALERIA COELHO DA SILVA                 RUA DOUTOR ALFREDO BARCELOS, 381        OLARIA - RJ 21021421RIO DE JANEIRO RJUNIAO UMB DOS CULTOS AFRO BRAS    30081810 000161
10231987175000168916200163100    000019651                    000196510000000000000109                     I0119651     30081800000000035003410000017N070518104700000000000103008180000000000000000000000000000000000000000100078935806749MARIA DA CONCEICAO DOS SANTOS           RUA ESTRELA, 26                         VILA SAO MIG26088315NOVA IGUACU    RJUNIAO UMB DOS CULTOS AFRO BRAS    30081810 000162
10231987175000168916200163100    000019650                    000196500000000000000109                     I0119650     30081800000000035003410000017N070518104700000000000103008180000000000000000000000000000000000000000100061523003715MARIA EMILIA RIBEIRO VIEIRA DO          RUA EIMA, 132                           IRAJA - RJ  21220370RIO DE JANEIRO RJUNIAO UMB DOS CULTOS AFRO BRAS    30081810 000163
10231987175000168916200163100    000019649                    000196490000000000000109                     I0119649     30081800000000035003410000017N070518104700000000000103008180000000000000000000000000000000000000000100033382840715MARIA ALICE CONSTANCIO GOMES            RUA PALMARES, 39                        JARDIM PERNA26275310NOVA IGUACU    RJUNIAO UMB DOS CULTOS AFRO BRAS    30081810 000164
10231987175000168916200163100    000019648                    000196480000000000000109                     I0119648     30081800000000035003410000017N070518104700000000000103008180000000000000000000000000000000000000000200000000004033SANDRA REIS DOS SANTOS                  RUA BANGU, 197 - DOUTOR LAUREANO        DUQUE DE CAX25060180DUQUE DE CAXIASRJUNIAO UMB DOS CULTOS AFRO BRAS    30081810 000165
10231987175000168916200163100    000019647                    000196470000000000000109                     I0119647     30081800000000035003410000017N070518104700000000000103008180000000000000000000000000000000000000000100075750384772VERA LUCIA BORGES NAZARETH              RUA DA CAPITAL, 430                     MAUA - SAO F25930000MAGE           RJUNIAO UMB DOS CULTOS AFRO BRAS    30081810 000166
10231987175000168916200163100    000019646                    000196460000000000000109                     I0119646     30081800000000040003410000017N070518104700000000000103008180000000000000000000000000000000000000000100075531585772ROSANGELA PAULINA RODRIGUES             ESTRADA: DA GUARITA N 1581              CARMARI - NO26040010NOVA IGUACU    RJUNIAO UMB DOS CULTOS AFRO BRAS    30081810 000167
10231987175000168916200163100    000019645                    000196450000000000000109                     I0119645     30081800000000035003410000017N070518104700000000000103008180000000000000000000000000000000000000000100064431002715SERGIO MURILO ALVES PEREIRA             RUA ROCHA, LOTE 4 QUADRA 4 CASA 2       JARDIM BONIF25565161SAO JOAO DE MERRJUNIAO UMB DOS CULTOS AFRO BRAS    30081810 000168
10231987175000168916200163100    000019644                    000196440000000000000109                     I0119644     30081800000000035003410000017N070518104700000000000103008180000000000000000000000000000000000000000100088504794768FATIMA MARIA DE OLIVEIRA                RUA TELMA, 22                           CABUCU - JAR26291266NOVA IGUACU    RJUNIAO UMB DOS CULTOS AFRO BRAS    30081810 000169
10231987175000168916200163100    000019643                    000196430000000000000109                     I0119643     30081800000000035003410000017N070518104700000000000103008180000000000000000000000000000000000000000100025969153753MARIA EUNICE FRUCTUOSO MIGUEL           RUA: VIRGEM PEREGRINA Nº 81            PIEDADE - RI21381070RIO DE JANEIRO RJUNIAO UMB DOS CULTOS AFRO BRAS    30081810 000170
10231987175000168916200163100    000019642                    000196420000000000000109                     I0119642     30081800000000035003410000017N070518104700000000000103008180000000000000000000000000000000000000000100065138210700TANIA CRISTINA DOS SANTOS PERE          RUA: BOM JARDIM Nº 521                 GRAMACHO - D25035060DUQUE DE CAXIASRJUNIAO UMB DOS CULTOS AFRO BRAS    30081810 000171
10231987175000168916200163100    000019641                    000196410000000000000109                     I0119641     30081800000000035003410000017N070518104700000000000103008180000000000000000000000000000000000000000100007150949711SEVERINA BENVINDO FERREIRA              ESTRADA DO CALUNDU, LOTE 32 QUADRA 51   NOSSA SENHOR25040610DUQUE DE CAXIASRJUNIAO UMB DOS CULTOS AFRO BRAS    30081810 000172
10231987175000168916200163100    000019640                    000196400000000000000109                     I0119640     30081800000000025003410000017N070518104700000000000103008180000000000000000000000000000000000000000100052329160363NENI GOMES DE ALMEIDA                   RUA MARIA SANTANA FERNANDES, LOTE 8 QUADJARDIM ACACI23845250SEROPEDICA     RJUNIAO UMB DOS CULTOS AFRO BRAS    30081810 000173
10231987175000168916200163100    000019639                    000196390000000000000109                     I0119639     30081800000000035003410000017N070518104700000000000103008180000000000000000000000000000000000000000100054590604787VANDA PAIVA                             RUA LUIZ JACINTO, LOTE 3                EDEN - SAO J25535161SAO JOAO DE MERRJUNIAO UMB DOS CULTOS AFRO BRAS    30081810 000174
10231987175000168916200163100    000019638                    000196380000000000000109                     I0119638     30081800000000035003410000017N070518104700000000000103008180000000000000000000000000000000000000000100071056319709LAURECI DOS SANTOS                      RUA BERNARDO MONTEIRO, LOTE 7 QUADRA 157JD OLAVO BIL25025320DUQUE DE CAXIASRJUNIAO UMB DOS CULTOS AFRO BRAS    30081810 000175
10231987175000168916200163100    000019637                    000196370000000000000109                     I0119637     30081800000000035003410000017N070518104700000000000103008180000000000000000000000000000000000000000100059099747772EULINA LUCIA RODRIGUES DE SOUZ          RUA XAVIER DOS PASSAROS, 18 FUNDOS      PIEDADE - RJ20740330RIO DE JANEIRO RJUNIAO UMB DOS CULTOS AFRO BRAS    30081810 000176
10231987175000168916200163100    000019636                    000196360000000000000109                     I0119636     30081800000000035003410000017N070518104700000000000103008180000000000000000000000000000000000000000100009116311787ETELVINA SOUZA DUARTE                   RUA CAIABU, 137 APTO 403                IRAJA - RJ  21361230RIO DE JANEIRO RJUNIAO UMB DOS CULTOS AFRO BRAS    30081810 000177
10231987175000168916200163100    000019635                    000196350000000000000109                     I0119635     30081800000000035003410000017N070518104700000000000103008180000000000000000000000000000000000000000200000000004628RAQUEL RODRIGUES SOBRAL DANTAS          RUA CAPITAO COUTO MENEZES, 110          MADUREIRA - 21310200RIO DE JANEIRO RJUNIAO UMB DOS CULTOS AFRO BRAS    30081810 000178
10231987175000168916200163100    000019634                    000196340000000000000109                     I0119634     30081800000000035003410000017N070518104700000000000103008180000000000000000000000000000000000000000100003737351708TANIA PAULA DOS SANTOS                  RUA PREFEITO JOAO CARLOS VITAL, 80      SEPETIBA - R23540041RIO DE JANEIRO RJUNIAO UMB DOS CULTOS AFRO BRAS    30081810 000179
10231987175000168916200163100    000019633                    000196330000000000000109                     I0119633     30081800000000035003410000017N070518104700000000000103008180000000000000000000000000000000000000000100001057873705ADEMIR ANDRADE CUNHA                    RUA PACHECO DA ROCHA N 636              BENTO RIBEIR21555092RIO DE JANEIRO RJUNIAO UMB DOS CULTOS AFRO BRAS    30081810 000180
10231987175000168916200163100    000019632                    000196320000000000000109                     I0119632     30081800000000035003410000017N070518104700000000000103008180000000000000000000000000000000000000000100011208480758MARIA ANTONIA KIFFER CORREA             AVENIDA MARECHAL HERMES, 1060           VILA SAO LUI25065115DUQUE DE CAXIASRJUNIAO UMB DOS CULTOS AFRO BRAS    30081810 000181
10231987175000168916200163100    000019631                    000196310000000000000109                     I0119631     30081800000000035003410000017N070518104700000000000103008180000000000000000000000000000000000000000200000000004796HELENA ALVES BRAZ                       RUA JUTAI, LOTE 20 QUADRA 151           PERIQUITO - 25025290DUQUE DE CAXIASRJUNIAO UMB DOS CULTOS AFRO BRAS    30081810 000182
10231987175000168916200163100    000019630                    000196300000000000000109                     I0119630     30081800000000035003410000017N070518104700000000000103008180000000000000000000000000000000000000000100088469212753NEIDE CARVALHO D ANGELO                 RUA GENERAL TRAUMATURGO, LOTE 17 QUADRA VILA ROSARIO25040010DUQUE DE CAXIASRJUNIAO UMB DOS CULTOS AFRO BRAS    30081810 000183
10231987175000168916200163100    000019629                    000196290000000000000109                     I0119629     30081800000000035003410000017N070518104700000000000103008180000000000000000000000000000000000000000200000000004748IVAN SOUZA DIAS                         RUA CARICO, LOTE 27 QUADRA 15 A         JARDIM METRO25575050SAO JOAO DE MERRJUNIAO UMB DOS CULTOS AFRO BRAS    30081810 000184
10231987175000168916200163100    000019628                    000196280000000000000109                     I0119628     30081800000000035003410000017N070518104700000000000103008180000000000000000000000000000000000000000200000000004621NEUZA MARIA MACHADO DA SILVA            RUA AUGUSTO SERGIO BOTELHO, QUADRA 67 LOBARRO BRANCO25267124DUQUE DE CAXIASRJUNIAO UMB DOS CULTOS AFRO BRAS    30081810 000185
10231987175000168916200163100    000019627                    000196270000000000000109                     I0119627     30081800000000035003410000017N070518104700000000000103008180000000000000000000000000000000000000000100001798819732RITA MARIA VIANNA                       RUA IPAMERI, 236                        CORDOVIL - R21012175RIO DE JANEIRO RJUNIAO UMB DOS CULTOS AFRO BRAS    30081810 000186
10231987175000168916200163100    000019626                    000196260000000000000109                     I0119626     30081800000000035003410000017N070518104700000000000103008180000000000000000000000000000000000000000200000000004766EDINALVA MUNIZ VALENTIM                 AVENIDA RIO DE JANEIRO, 21              INCRA - SERO23850220SEROPEDICA     RJUNIAO UMB DOS CULTOS AFRO BRAS    30081810 000187
10231987175000168916200163100    000019625                    000196250000000000000109                     I0119625     30081800000000035003410000017N070518104700000000000103008180000000000000000000000000000000000000000100002912019702JONER BORGES BARCELOS                   RUA OITO, QUADRA 30 LOTE 8              NOVA CAMPINA25000000DUQUE DE CAXIASRJUNIAO UMB DOS CULTOS AFRO BRAS    30081810 000188
10231987175000168916200163100    000019624                    000196240000000000000109                     I0119624     30081800000000035003410000017N070518104700000000000103008180000000000000000000000000000000000000000100001637090765DEBORA VENTURA CESAR                    RUA DOS CONGREGADOS, 105 CASA 2         HELIOPOLIS  26123020RIO DE JANEIRO RJUNIAO UMB DOS CULTOS AFRO BRAS    30081810 000189
10231987175000168916200163100    000019623                    000196230000000000000109                     I0119623     30081800000000035003410000017N070518104700000000000103008180000000000000000000000000000000000000000100078815428704LUZINETE PINHO DE SA                    ESTRADA: MANOEL FERREIRA CAMPAR Nº 1311POSSE - NOVA26021060NOVA IGUACU    RJUNIAO UMB DOS CULTOS AFRO BRAS    30081810 000190
10231987175000168916200163100    000019622                    000196220000000000000109                     I0119622     30081800000000035003410000017N070518104700000000000103008180000000000000000000000000000000000000000100058446559749CELIA ISRAEL DE OLIVEIRA                RUA CARAVELAS, LOTE 42 QUADRA 77        DR. LAUREANO25051230DUQUE DE CAXIASRJUNIAO UMB DOS CULTOS AFRO BRAS    30081810 000191
10231987175000168916200163100    000019621                    000196210000000000000109                     I0119621     30081800000000035003410000017N070518104700000000000103008180000000000000000000000000000000000000000100001925108783HELENA MOREIRA PESSOA                   RUA CAPIVARA, LOTE 639 QUADRA 48        SANTA CRUZ D25260180DUQUE DE CAXIASRJUNIAO UMB DOS CULTOS AFRO BRAS    30081810 000192
10231987175000168916200163100    000019620                    000196200000000000000109                     I0119620     30081800000000035003410000017N070518104700000000000103008180000000000000000000000000000000000000000100000000003806INALVA LAZARO DRUMOND                   AVENIDA MARECHAL RONDON, 2117           RIACHUELO  -20950071RIO DE JANEIRO RJUNIAO UMB DOS CULTOS AFRO BRAS    30081810 000193
10231987175000168916200163100    000019619                    000196190000000000000109                     I0119619     30081800000000035003410000017N070518104700000000000103008180000000000000000000000000000000000000000100001783778806MARIA LUIZA FERREIRA GODINHO C          ESTRADA DO BOIUNA, 2620                 TAQUARA - JA22723018RIO DE JANEIRO RJUNIAO UMB DOS CULTOS AFRO BRAS    30081810 000194
10231987175000168916200163100    000019618                    000196180000000000000109                     I0119618     30081800000000035003410000017N070518104700000000000103008180000000000000000000000000000000000000000100000911446710NELI MONTEIRO DE CASTRO                 RUA ROMILDO Nº 139 - VAZ MARTINS       NOVA IGUACU 20051040RIO DE JANEIRO RJUNIAO UMB DOS CULTOS AFRO BRAS    30081810 000195
10231987175000168916200163100    000019617                    000196170000000000000109                     I0119617     30081800000000035003410000017N070518104700000000000103008180000000000000000000000000000000000000000100010058913700RAMON DO NASCIMENTO MANES               RUA LIGIA, 329                          OLARIA - RJ 21073280RIO DE JANEIRO RJUNIAO UMB DOS CULTOS AFRO BRAS    30081810 000196
10231987175000168916200163100    000019616                    000196160000000000000109                     I0119616     30081800000000035003410000017N070518104700000000000103008180000000000000000000000000000000000000000100005137259705CRISTINA DE OLIVEIRA DA SILVA           AVENIDA CAMPO MOURAO SN APARTAMENTO 102 JARDIM MARAV23031080CAMPO GRANDE   RJUNIAO UMB DOS CULTOS AFRO BRAS    30081810 000197
10231987175000168916200163100    000019615                    000196150000000000000109                     I0119615     30081800000000035003410000017N070518104700000000000103008180000000000000000000000000000000000000000100079469825772VICTOR FRANCISCO PEREIRA NETO           RUA YZ 2 LT 7,8,9 QDRA 27 B/ JD ANHANGA DUQUE DE CAX25036290DUQUE DE CAXIASRJUNIAO UMB DOS CULTOS AFRO BRAS    30081810 000198
10231987175000168916200163100    000019614                    000196140000000000000109                     I0119614     30081800000000035003410000017N070518104700000000000103008180000000000000000000000000000000000000000100007474273721CLARINDO DE MEDEIROS                    RUA SAO MARCOS, 145A                    VILAR DOS TE25561220SAO JOAO DE MERRJUNIAO UMB DOS CULTOS AFRO BRAS    30081810 000199
10231987175000168916200163100    000019613                    000196130000000000000109                     I0119613     30081800000000035003410000017N070518104700000000000103008180000000000000000000000000000000000000000200000000003735ANDRE LUIS DINIS CARDOSO                RUA CORDOVIL, 669 LOTE 2                PARADA DE LU21250450RIO DE JANEIRO RJUNIAO UMB DOS CULTOS AFRO BRAS    30081810 000200
10231987175000168916200163100    000019612                    000196120000000000000109                     I0119612     30081800000000035003410000017N070518104700000000000103008180000000000000000000000000000000000000000100022023461715SAULO EMMANUEL FERREIRA GUEDES          AVENIDA VICENTE DE CARVALHO, 1431 BLOCO VICENTE DE C21210003RIO DE JANEIRO RJUNIAO UMB DOS CULTOS AFRO BRAS    30081810 000201
10231987175000168916200163100    000019611                    000196110000000000000109                     I0119611     30081800000000035003410000017N070518104700000000000103008180000000000000000000000000000000000000000100041216989753CARMEM VIANA DE JESUS                   RUA DAS TULIPAS, LOTE 4 A QUADRA 5      CIDADE DOS M25235040DUQUE DE CAXIASRJUNIAO UMB DOS CULTOS AFRO BRAS    30081810 000202
10231987175000168916200163100    000019610                    000196100000000000000109                     I0119610     30081800000000035003410000017N070518104700000000000103008180000000000000000000000000000000000000000100007446571721ANDREA GUEDES PINHEIRO GOMES            RUA CATARINA SANTANA  169               CABUCU      26341490NILOPOLIS      RJUNIAO UMB DOS CULTOS AFRO BRAS    30081810 000203
10231987175000168916200163100    000019609                    000196090000000000000109                     I0119609     30081800000000035003410000017N070518104700000000000103008180000000000000000000000000000000000000000100000939896796SHIRLEI ARAUJO DO CARMO RODRIG          O MESMO                                 O MESMO     21532170RIO DE JANEIRO RJUNIAO UMB DOS CULTOS AFRO BRAS    30081810 000204
10231987175000168916200163100    000019608                    000196080000000000000109                     I0119608     30081800000000035003410000017N070518104700000000000103008180000000000000000000000000000000000000000100059195711791ELOISA HELENA PEREIRA NUNES             RUA BOAIACA, 330                        BENTO RIBEIR21331600RIO DE JANEIRO RJUNIAO UMB DOS CULTOS AFRO BRAS    30081810 000205
10231987175000168916200163100    000019607                    000196070000000000000109                     I0119607     30081800000000035003410000017N070518104700000000000103008180000000000000000000000000000000000000000100000675108764MARIA CRISTINA SANTOS GENEROSO          RUA  APODI, LOTE 4 QUADRA 47            PARQUE  SUEC26187300BELFORD ROXO   RJUNIAO UMB DOS CULTOS AFRO BRAS    30081810 000206
10231987175000168916200163100    000019606                    000196060000000000000109                     I0119606     30081800000000035003410000017N070518104700000000000103008180000000000000000000000000000000000000000100063538369704VERA LUCIA SOARES CONCEICAO DE          RUA CARALUNA, 35                        GUARATIBA - 23032070RIO DE JANEIRO RJUNIAO UMB DOS CULTOS AFRO BRAS    30081810 000207
10231987175000168916200163100    000019605                    000196050000000000000109                     I0119605     30081800000000035003410000017N070518104700000000000103008180000000000000000000000000000000000000000200000000003641DARLI ROCHA DO PRADO FERREIRA           O MESMO                                 O MESMO     21930376RIO DE JANEIRO RJUNIAO UMB DOS CULTOS AFRO BRAS    30081810 000208
10231987175000168916200163100    000019604                    000196040000000000000109                     I0119604     30081800000000035003410000017N070518104700000000000103008180000000000000000000000000000000000000000100053699394700UBIRAJARA PEREIRA FRANCO                AV. BRASIL 17191 BLOCO 35 APTº 2002    IRAJA       21230240RIO DE JANEIRO RJUNIAO UMB DOS CULTOS AFRO BRAS    30081810 000209
10231987175000168916200163100    000019603                    000196030000000000000109                     I0119603     30081800000000035003410000017N070518104700000000000103008180000000000000000000000000000000000000000100030011370700HELENA CAVALCANTE MARQUES               RUA DOUTOR PASSOS Nº 35 FUNDOS         MADUREIRA - 21310160RIO DE JANEIRO RJUNIAO UMB DOS CULTOS AFRO BRAS    30081810 000210
10231987175000168916200163100    000019602                    000196020000000000000109                     I0119602     30081800000000035003410000017N070518104700000000000103008180000000000000000000000000000000000000000200000000003591ALEXANDRE JOSE GONCALVES DE MI          RUA: COIMBRA Nº 16 - N.S. DAS GRACAS   MIGUEL COUTO26032160NOVA IGUACU    RJUNIAO UMB DOS CULTOS AFRO BRAS    30081810 000211
10231987175000168916200163100    000019601                    000196010000000000000109                     I0119601     30081800000000035003410000017N070518104700000000000103008180000000000000000000000000000000000000000100090021177791MARIA CRISTINA SOUZA DE OLIVEI          RUA: DA GLORIA Nº 4064 - VILA LEPOLDINADUQUE DE CAX25060240DUQUE DE CAXIASRJUNIAO UMB DOS CULTOS AFRO BRAS    30081810 000212
10231987175000168916200163100    000019600                    000196000000000000000109                     I0119600     30081800000000035003410000017N070518104700000000000103008180000000000000000000000000000000000000000100028031342768ODILA RIBEIRO MARTINS                   O MESMO                                 O MESMO     25560490SAO JOAO DE MERRJUNIAO UMB DOS CULTOS AFRO BRAS    30081810 000213
10231987175000168916200163100    000019599                    000195990000000000000109                     I0119599     30081800000000035003410000017N070518104700000000000103008180000000000000000000000000000000000000000200000000003563CILEIDE REGLE RAPOUZO                   O MESMO                                 O MESMO     25050520DUQUE DE CAXIASRJUNIAO UMB DOS CULTOS AFRO BRAS    30081810 000214
10231987175000168916200163100    000019598                    000195980000000000000109                     I0119598     30081800000000035003410000017N070518104700000000000103008180000000000000000000000000000000000000000200000000003561SANDRA BAPTISTA DA SILVA                O MESMO                                 O MESMO     23047560RIO DE JANEIRO RJUNIAO UMB DOS CULTOS AFRO BRAS    30081810 000215
10231987175000168916200163100    000019597                    000195970000000000000109                     I0119597     30081800000000035003410000017N070518104700000000000103008180000000000000000000000000000000000000000200000000003554ELIZABETH GANTERT DA ROCHA GUI          O MESMO                                 O MESMO     26351140NOVA IGUACU    RJUNIAO UMB DOS CULTOS AFRO BRAS    30081810 000216
10231987175000168916200163100    000019596                    000195960000000000000109                     I0119596     30081800000000035003410000017N070518104700000000000103008180000000000000000000000000000000000000000200000000003522TANIA MARIA DOS SANTOS DANIEL           O MESMO                                 O MESMO     23097692RIO DE JANEIRO RJUNIAO UMB DOS CULTOS AFRO BRAS    30081810 000217
10231987175000168916200163100    000019595                    000195950000000000000109                     I0119595     30081800000000035003410000017N070518104700000000000103008180000000000000000000000000000000000000000200000000003516GILCINEI CAMPOS PORTUGAL                O MESMO                                 O MESMO     23545100RIO DE JANEIRO RJUNIAO UMB DOS CULTOS AFRO BRAS    30081810 000218
10231987175000168916200163100    000019594                    000195940000000000000109                     I0119594     30081800000000035003410000017N070518104700000000000103008180000000000000000000000000000000000000000100010078178797ALINE CORREA SOUZA                      AVENIDA PILAR DO SUL LOTE 42 QUADRA 23  GUARATIBA - 23033160RIO DE JANEIRO RJUNIAO UMB DOS CULTOS AFRO BRAS    30081810 000219
10231987175000168916200163100    000019593                    000195930000000000000109                     I0119593     30081800000000035003410000017N070518104700000000000103008180000000000000000000000000000000000000000200000000003499ANDRE LUIS ALMEIDA SOUZA                RUA CAIMIRIM Nº 140 - SANTA TEREZINHA  MESQUITA - R26555050BELFORD ROXO   RJUNIAO UMB DOS CULTOS AFRO BRAS    30081810 000220
10231987175000168916200163100    000019592                    000195920000000000000109                     I0119592     30081800000000035003410000017N070518104700000000000103008180000000000000000000000000000000000000000200000000003500MARIA DA PENHA PEREIRA DOS SAN          O MESMO                                 O MESMO     26530060NILOPOLIS      RJUNIAO UMB DOS CULTOS AFRO BRAS    30081810 000221
10231987175000168916200163100    000019591                    000195910000000000000109                     I0119591     30081800000000035003410000017N070518104700000000000103008180000000000000000000000000000000000000000100073871729787RENATO GOMES SILVA                      RUA JURIPIRANGA LOTE 18 QUADRA 129      COSMOS - RIO23060020RIO DE JANEIRO RJUNIAO UMB DOS CULTOS AFRO BRAS    30081810 000222
10231987175000168916200163100    000019590                    000195900000000000000109                     I0119590     30081800000000035003410000017N070518104700000000000103008180000000000000000000000000000000000000000100083441271734NAELSON MAGALHAES DE AVELLAR            RUA ONZE LOTE 1 CASA 1                  GUANDU L - S23560778SANTA CRUZ     RJUNIAO UMB DOS CULTOS AFRO BRAS    30081810 000223
10231987175000168916200163100    000019589                    000195890000000000000109                     I0119589     30081800000000035003410000017N070518104700000000000103008180000000000000000000000000000000000000000100010084300728RODRIGO ALVES DE PINHO                  RUA JOVITA FEITOSA N 131                VILA SAO JUD25243570DUQUE DE CAXIASRJUNIAO UMB DOS CULTOS AFRO BRAS    30081810 000224
10231987175000168916200163100    000019588                    000195880000000000000109                     I0119588     30081800000000035003410000017N070518104700000000000103008180000000000000000000000000000000000000000100005363118700VALDECI LIMA DA COSTA                   O MESMO                                 O MESMO     21210420RIO DE JANEIRO RJUNIAO UMB DOS CULTOS AFRO BRAS    30081810 000225
10231987175000168916200163100    000019587                    000195870000000000000109                     I0119587     30081800000000035003410000017N070518104700000000000103008180000000000000000000000000000000000000000100060052830730PAULO CESAR BARRETO ALVES               RUA ANGELO DOS REIS N 207 FUNDOS        USINA - ALTO20531010RIO DE JANEIRO RJUNIAO UMB DOS CULTOS AFRO BRAS    30081810 000226
10231987175000168916200163100    000019586                    000195860000000000000109                     I0119586     30081800000000035003410000017N070518104700000000000103008180000000000000000000000000000000000000000100000615134742CONCEICAO DE SOUZA CAPITANO             RUA MECA N 103 - SAO BENEDITO           SAO BENEDITO26022540NOVA IGUACU    RJUNIAO UMB DOS CULTOS AFRO BRAS    30081810 000227
10231987175000168916200163100    000019585                    000195850000000000000109                     I0119585     30081800000000035003410000017N070518104700000000000103008180000000000000000000000000000000000000000200000000003441MONALISA DE ALMEIDA CARVALHO            RUA NOSSA SENHORA DA PAZ N 111          SANTA CECILI26130660BELFORD ROXO   RJUNIAO UMB DOS CULTOS AFRO BRAS    30081810 000228
10231987175000168916200163100    000019584                    000195840000000000000109                     I0119584     30081800000000035003410000017N070518104700000000000103008180000000000000000000000000000000000000000200000000003410DENIRCE SOUZA ANDRE                     O MESMO                                 O MESMO     20761121RIO DE JANEIRO RJUNIAO UMB DOS CULTOS AFRO BRAS    30081810 000229
10231987175000168916200163100    000019583                    000195830000000000000109                     I0119583     30081800000000035003410000017N070518104700000000000103008180000000000000000000000000000000000000000100002344767703ROSINETE FERREIRA CAMARGO               O MESMO                                 O MESMO     22733130RIO DE JANEIRO RJUNIAO UMB DOS CULTOS AFRO BRAS    30081810 000230
10231987175000168916200163100    000019582                    000195820000000000000109                     I0119582     30081800000000035003410000017N070518104700000000000103008180000000000000000000000000000000000000000100022175534880LUCIANO THOMAZ DE ROSA                  RUA FRANCISCO JOSE DA SILVA, 25         SUZANO - JAR08695060SAO PAULO      SPUNIAO UMB DOS CULTOS AFRO BRAS    30081810 000231
10231987175000168916200163100    000019581                    000195810000000000000109                     I0119581     30081800000000035003410000017N070518104700000000000103008180000000000000000000000000000000000000000100033413525700ALBERICE SILVA OLIVEIRA                 RUA DIAS DA CRUZ 170 APT 201            MEIER       20720012RIO DE JANEIRO RJUNIAO UMB DOS CULTOS AFRO BRAS    30081810 000232
10231987175000168916200163100    000019580                    000195800000000000000109                     I0119580     30081800000000035003410000017N070518104700000000000103008180000000000000000000000000000000000000000100044608268791FAUSTO DOS SANTOS REZENDE               O MESMO                                 O MESMO     21010070RIO DE JANEIRO RJUNIAO UMB DOS CULTOS AFRO BRAS    30081810 000233
10231987175000168916200163100    000019579                    000195790000000000000109                     I0119579     30081800000000035003410000017N070518104700000000000103008180000000000000000000000000000000000000000200000000003341HELENA MARIA DA SILVA                   RUA VINTE E QUATRO DE OUTUBRO,  QUADRA BBARRO BRANCO25267450DUQUE DE CAXIASRJUNIAO UMB DOS CULTOS AFRO BRAS    30081810 000234
10231987175000168916200163100    000019578                    000195780000000000000109                     I0119578     30081800000000035003410000017N070518104700000000000103008180000000000000000000000000000000000000000100007544975770WILLIAMS COSTA SOARES                   O MESMO                                 O MESMO     26261150NOVA IGUACU    RJUNIAO UMB DOS CULTOS AFRO BRAS    30081810 000235
10231987175000168916200163100    000019577                    000195770000000000000109                     I0119577     30081800000000035003410000017N070518104700000000000103008180000000000000000000000000000000000000000100071741798787JAILTON DA SILVA VIEIRA                 RUA DA GAVEA N 3911                     VILA LEOPOLD25060300DUQUE DE CAXIASRJUNIAO UMB DOS CULTOS AFRO BRAS    30081810 000236
10231987175000168916200163100    000019576                    000195760000000000000109                     I0119576     30081800000000035003410000017N070518104700000000000103008180000000000000000000000000000000000000000100069876207768JUREMA DIONISIO RODRIGUES               RUA CARLOS OLIMPIO DE MELLO N 59 CASA 1 PACIENCIA - 23585160RIO DE JANEIRO RJUNIAO UMB DOS CULTOS AFRO BRAS    30081810 000237
10231987175000168916200163100    000019575                    000195750000000000000109                     I0119575     30081800000000035003410000017N070518104700000000000103008180000000000000000000000000000000000000000100001859792707REGIS GOMES DE OLIVEIRA                 AVENIDA DO CANAL N 54 - CONDOMINIO VALE ALBUQUERQUE 25976560TERESOPOLIS    RJUNIAO UMB DOS CULTOS AFRO BRAS    30081810 000238
10231987175000168916200163100    000019574                    000195740000000000000109                     I0119574     30081800000000035003410000017N070518104700000000000103008180000000000000000000000000000000000000000100001149312750CLAUDIO SERGIO DE CASTRO                RUA: LAJAO Nº 279 - CENTRO / CONSELHEIRMINAS GERAIS35240000MINAS GERAIS   MGUNIAO UMB DOS CULTOS AFRO BRAS    30081810 000239
10231987175000168916200163100    000019573                    000195730000000000000109                     I0119573     30081800000000035003410000017N070518104700000000000103008180000000000000000000000000000000000000000100002878076737TANIA NACARI AIRES GALVAO               RUA MORRO DAS FLORAS N 25 - CACUIA      CACUIA - ILH21930440ILHA DO GOVERNARJUNIAO UMB DOS CULTOS AFRO BRAS    30081810 000240
10231987175000168916200163100    000019572                    000195720000000000000109                     I0119572     30081800000000035003410000017N070518104700000000000103008180000000000000000000000000000000000000000100001050327780MARIA LUCIA DE FATIMA FERREIRA          RUA BUDAPESTE N 172 CASA 2 - BANCARIOS  BANCARIOS - 21911300RIO DE JANEIRO RJUNIAO UMB DOS CULTOS AFRO BRAS    30081810 000241
10231987175000168916200163100    000019571                    000195710000000000000109                     I0119571     30081800000000035003410000017N070518104700000000000103008180000000000000000000000000000000000000000100004765875733BEATRIZ GOMES DEMIRSKY                  AVENIDA MERITI N 1421 APT 201           VILA DA PENH21220201RIO DE JANEIRO RJUNIAO UMB DOS CULTOS AFRO BRAS    30081810 000242
10231987175000168916200163100    000019570                    000195700000000000000109                     I0119570     30081800000000035003410000017N070518104700000000000103008180000000000000000000000000000000000000000100003200716851CYNTHIA RITA HERTEL                     FRIBURGO LOTE 17 QUADRA 26 - SAMBAETIBA ITABORAI - R24842220ITABORAI       RJUNIAO UMB DOS CULTOS AFRO BRAS    30081810 000243
10231987175000168916200163100    000019569                    000195690000000000000109                     I0119569     30081800000000035003410000017N070518104700000000000103008180000000000000000000000000000000000000000100005727808774RITA BORGES MOREIRA                     RUA: CIRILO DA SILVEIRA Nº 80 - RUA J LVILA VALQUEI21330735RIO DE JANEIRO RJUNIAO UMB DOS CULTOS AFRO BRAS    30081810 000244
10231987175000168916200163100    000019568                    000195680000000000000109                     I0119568     30081800000000035003410000017N070518104700000000000103008180000000000000000000000000000000000000000100007201140710MARIA DE FATIMA DE OLIVEIRA SI          RUA MUTIRAO, 384                        SANTO AGOSTI27291110VOLTA REDONDA  RJUNIAO UMB DOS CULTOS AFRO BRAS    30081810 000245
10231987175000168916200163100    000019567                    000195670000000000000109                     I0119567     30081800000000035003410000017N070518104700000000000103008180000000000000000000000000000000000000000100000633058793ROSA MARIA SILVA RIBEIRO                RUA DOM BOSCO, 118                      EUCALIPTAL -27263050VOLTA REDONDA  RJUNIAO UMB DOS CULTOS AFRO BRAS    30081810 000246
10231987175000168916200163100    000019566                    000195660000000000000109                     I0119566     30081800000000035003410000017N070518104700000000000103008180000000000000000000000000000000000000000100096094702700NERTAN SIGWARD RODRIGUES                RUA BARAO DE VARGEM ALEGRE, 50          VARGEM ALEGR27155000BARRA DO PIRAI RJUNIAO UMB DOS CULTOS AFRO BRAS    30081810 000247
10231987175000168916200163100    000019565                    000195650000000000000109                     I0119565     30081800000000035003410000017N070518104700000000000103008180000000000000000000000000000000000000000100009611659792ALUIZIO RODRIGUES RIBEIRO               RUA GARCIA PIRES N° 82 CASA 3          QUINTINO - R21331300RIO DE JANEIRO RJUNIAO UMB DOS CULTOS AFRO BRAS    30081810 000248
10231987175000168916200163100    000019564                    000195640000000000000109                     I0119564     30081800000000035003410000017N070518104700000000000103008180000000000000000000000000000000000000000100058924477749MARIA DAS GRACAS AZEVEDO RIBEI          RUA VICENTE LIMA                        TEL 2662.73625560240SAO JOAO DE MERRJUNIAO UMB DOS CULTOS AFRO BRAS    30081810 000249
