01REMESSA01COBRANCA       817800093673        União Umb dos Cultos Afro Bra341BANCO ITAU SA  190118                                                                                                                                                                                                                                                                                                      000001
10231987175000168817800093673    00007223                     000072230000000000000109                     I017223      28021800000000035003410000017N271217104700000000000102802180000000000000000000000000000000000000000100014520518792STEPHANI MATOS MONTEIRO                 ESTRADA DOUTOR PLINIO CASADO N 3599     CENTRO - BEL26130622BELFORD ROXO   RJUNIAO UMB DOS CULTOS AFRO BRAS    28021810 000002
9                                                                                                                                                                                                                                                                                                                                                                                                         000003
