01REMESSA01COBRANCA       817800093673        União Umb dos Cultos Afro Bra341BANCO ITAU SA  290119                                                                                                                                                                                                                                                                                                      000001
10231987175000168817800093673    000039679                    000396790000000000000109                     I0139679     11031900000000200003410000017N290119104700000000000101103190000000000000000000000000000000000000000100048123765720JUANJARA HENRIQUE DOS SANTOS            AVENIDA: CHOPIN                         JARDIM GRAMA25050580DUQUE DE CAXIASRJUNIAO UMB DOS CULTOS AFRO BRAS    11031910 000002
10231987175000168817800093673    000039678                    000396780000000000000109                     I0139678     11021900000000200003410000017N290119104700000000000101102190000000000000000000000000000000000000000100048123765720JUANJARA HENRIQUE DOS SANTOS            AVENIDA: CHOPIN                         JARDIM GRAMA25050580DUQUE DE CAXIASRJUNIAO UMB DOS CULTOS AFRO BRAS    11021910 000003
10231987175000168817800093673    000039677                    000396770000000000000109                     I0139677     11031900000000460003410000017N290119104700000000000101103190000000000000000000000000000000000000000100014708764774ADILSON CARNEIRO PINTO                  RUA JUREMA                              GUARATIBA   23035380RIO DE JANEIRO RJUNIAO UMB DOS CULTOS AFRO BRAS    11031910 000004
10231987175000168817800093673    000039676                    000396760000000000000109                     I0139676     08021900000000350003410000017N290119104700000000000100802190000000000000000000000000000000000000000100051562430700EMILIA SANTANA MORAIS                   RUA AFONSO ARINOS                       JARDIM BOM R24020121NITEROI        RJUNIAO UMB DOS CULTOS AFRO BRAS    08021910 000005
10231987175000168817800093673    000039675                    000396750000000000000109                     I0139675     08021900000000035003410000017N290119104700000000000100802190000000000000000000000000000000000000000100051562430700EMILIA SANTANA MORAIS                   RUA AFONSO ARINOS                       JARDIM BOM R24020121NITEROI        RJUNIAO UMB DOS CULTOS AFRO BRAS    08021910 000006
10231987175000168817800093673    000034301                    000343010000000000000109                     I0234301     31011900000000040003410000017N261218104700000000000103101190000000000000000000000000000000000000000100085194557787CELIA MARIA FERNANDES DE CASTR          RUA IRAPIRANGA                          ROCHA MIRAND21540710RIO DE JANEIRO RJUNIAO UMB DOS CULTOS AFRO BRAS    31011910 000007
10231987175000168817800093673    000033445                    000334450000000000000109                     I0233445     04011900000000400003410000017N201118104700000000000100401190000000000000000000000000000000000000000100014708764774ADILSON CARNEIRO PINTO                  RUA JUREMA                              GUARATIBA   23035380RIO DE JANEIRO RJUNIAO UMB DOS CULTOS AFRO BRAS    04011910 000008
10231987175000168817800093673    000032377                    000323770000000000000109                     I0232377     30011900000000350003410000017N291018104700000000000103001190000000000000000000000000000000000000000100051562430700EMILIA SANTANA MORAIS                   RUA AFONSO ARINOS                       JARDIM BOM R24020121NITEROI        RJUNIAO UMB DOS CULTOS AFRO BRAS    30011910 000009
10231987175000168817800093673    000029835                    000298350000000000000109                     I0229835     18011900000000035003410000017N291018104700000000000101801190000000000000000000000000000000000000000100051562430700EMILIA SANTANA MORAIS                   RUA AFONSO ARINOS                       JARDIM BOM R24020121NITEROI        RJUNIAO UMB DOS CULTOS AFRO BRAS    18011910 000010
9                                                                                                                                                                                                                                                                                                                                                                                                         000011
