01REMESSA01COBRANCA       817800093673        União Umb dos Cultos Afro Bra341BANCO ITAU SA  170519                                                                                                                                                                                                                                                                                                      000001
10231987175000168817800093673    000045283                    000452830000000000000109                     I0145283     24051900000000350003410000017N170519105700000000000102405190000000000000000000000000000000000000000100059395656700NADIA MARIZA CORREA TRINDADE            RUA JORGE DA SILVAN 25,                 JARDINS     23890100SEROPEDICA     RJUNIAO UMB DOS CULTOS AFRO BRAS    24051915 000002
10231987175000168817800093673    000045282                    000452820000000000000109                     I0145282     05061900000000400003410000017N170519105700000000000100506190000000000000000000000000000000000000000212395736000195ASSOCIACAO ESPIRITA VOVO REI C          RUA GUARABUN 390, FUNDOS                INHAUMA     20761060RIO DE JANEIRO RJUNIAO UMB DOS CULTOS AFRO BRAS    05061915 000003
10231987175000168817800093673    000045281                    000452810000000000000109                     I0145281     30051900000000010003410000017N170519105700000000000103005190000000000000000000000000000000000000000100005851795735JOAO LUIZ DE OLIVEIRA MAGALHAE          RUA ANTONIO CARLOS PARANHOSN 29,        VILA VALQUEI21321340RIO DE JANEIRO RJUNIAO UMB DOS CULTOS AFRO BRAS    30051915 000004
10231987175000168817800093673    000045280                    000452800000000000000109                     I0145280     30061900000000040003410000017N170519105700000000000103006190000000000000000000000000000000000000000100007353323710ROBSON MARTINS SANTOS                   RUA DAS ARARASN 876,                    FLEXEIRAS   25900213MAGE           RJUNIAO UMB DOS CULTOS AFRO BRAS    30061915 000005
10231987175000168817800093673    000039165                    000391650000000000000109                     I0239165     30031900000000040003410000017N261218105700000000000103003190000000000000000000000000000000000000000100000640795706CELIA REGINA ALVES DE SOUZA CO          ESTRADA SAO PEDRON 1161, CASA 30        VISTA ALEGRE24725240SAO GONCALO    RJUNIAO UMB DOS CULTOS AFRO BRAS    30031915 000006
10231987175000168817800093673    000039056                    000390560000000000000109                     I0239056     30031900000000040003410000017N261218105700000000000103003190000000000000000000000000000000000000000100053211839704ALCIONE SOUZA DOS SANTOS                RUA MARINO FELIXN 26,                   SEPETIBA    23535006RIO DE JANEIRO RJUNIAO UMB DOS CULTOS AFRO BRAS    30031915 000007
10231987175000168817800093673    000038377                    000383770000000000000109                     I0238377     30031900000000040003410000017N261218105700000000000103003190000000000000000000000000000000000000000100083679472749SILVIA REGINA DE SOUZA NAZARET          PRACA ALMIRANTE JULIO DE NORONHAN 2, SOBLEME        22010020RIO DE JANEIRO RJUNIAO UMB DOS CULTOS AFRO BRAS    30031915 000008
10231987175000168817800093673    000038131                    000381310000000000000109                     I0238131     30031900000000040003410000017N261218105700000000000103003190000000000000000000000000000000000000000100045910383787PAULO ROBERTO DE OLIVEIRA DRUB          RUA ARGEMIRO DE HUNGRIA MACHADON 195,   GUADALUPE   21670290RIO DE JANEIRO RJUNIAO UMB DOS CULTOS AFRO BRAS    30031915 000009
9                                                                                                                                                                                                                                                                                                                                                                                                         000010
