01REMESSA01COBRANCA       916200163100        União Umb dos Cultos Afro Bra341BANCO ITAU SA  050219                                                                                                                                                                                                                                                                                                      000001
10231987175000168916200163100    000039728                    000397280000000000000109                     I0139728     20021900000000735003410000017N050219104700000000000102002190000000000000000000000000000000000000000100003367432709KHRYSTIENE COSTA MOTTA                  RUA CAROLINA MACHADON 886,              MADUREIRA   21351021RIO DE JANEIRO RJUNIAO UMB DOS CULTOS AFRO BRAS    20021910 000002
10231987175000168916200163100    000039714                    000397140000000000000109                     I0139714     28021900000000360003410000017N030219104700000000000102802190000000000000000000000000000000000000000100079034780791PAULO ROBERTO DE SOUZA MORENO           RUA CORONEL MALHAESN 0, LOTE 6 QUADRA 38TIRADENTES  26351180NOVA IGUACU    RJUNIAO UMB DOS CULTOS AFRO BRAS    28021910 000003
10231987175000168916200163100    000039713                    000397130000000000000109                     I0139713     07021900000000040003410000017N030219104700000000000100702190000000000000000000000000000000000000000100079034780791PAULO ROBERTO DE SOUZA MORENO           RUA CORONEL MALHAESN 0, LOTE 6 QUADRA 38TIRADENTES  26351180NOVA IGUACU    RJUNIAO UMB DOS CULTOS AFRO BRAS    07021910 000004
10231987175000168916200163100    000039712                    000397120000000000000109                     I0139712     07021900000000160003410000017N030219104700000000000100702190000000000000000000000000000000000000000100079034780791PAULO ROBERTO DE SOUZA MORENO           RUA CORONEL MALHAESN 0, LOTE 6 QUADRA 38TIRADENTES  26351180NOVA IGUACU    RJUNIAO UMB DOS CULTOS AFRO BRAS    07021910 000005
10231987175000168916200163100    000039711                    000397110000000000000109                     I0139711     08021900000000100003410000017N020219104700000000000100802190000000000000000000000000000000000000000100002593509740MARIA DA PENHA FERREIRA                 RUA JERICON 17,                         INHOAIBA    23064180RIO DE JANEIRO RJUNIAO UMB DOS CULTOS AFRO BRAS    08021910 000006
10231987175000168916200163100    000039698                    000396980000000000000109                     I0239698     06021900000000040003410000017N310119104700000000000100602190000000000000000000000000000000000000000100009350031779TAIS AZEVEDO DOS SANTOS CAMPOS          RUA: CLOTILDE DE OLIVEIRA RODRIGUESN 46,FONSECA     24120170NITEROI        RJUNIAO UMB DOS CULTOS AFRO BRAS    06021910 000007
10231987175000168916200163100    000039670                    000396700000000000000109                     I0239670     15021900000000105003410000017N290119104700000000000101502190000000000000000000000000000000000000000100006927798765ROSA MARIA RICARDO PINTO                RUA JOAQUIM BESSAN 169, 148 / RUA DOIS  TRINDADE    24210205SAO GONCALO    RJUNIAO UMB DOS CULTOS AFRO BRAS    15021910 000008
10231987175000168916200163100    000039410                    000394100000000000000109                     I0239410     15011900000000105003410000017N271218104700000000000101501190000000000000000000000000000000000000000100006927798765ROSA MARIA RICARDO PINTO                RUA JOAQUIM BESSAN 169, 148 / RUA DOIS  TRINDADE    24210205SAO GONCALO    RJUNIAO UMB DOS CULTOS AFRO BRAS    15011910 000009
9                                                                                                                                                                                                                                                                                                                                                                                                         000010
