01REMESSA01COBRANCA       817800093673        União Umb dos Cultos Afro Bra341BANCO ITAU SA  210318                                                                                                                                                                                                                                                                                                      000001
10231987175000168817800093673    000014255                    000142550000000000000109                     I0114255     30031800000000070003410000017N210318104700000000000103003180000000000000000000000000000000000000000100013565688742CAIO CESAR DUARTE DE SOUZA              RUA CALUMBI, 300 APT 305                IRAJA - RIO 21361260RIO DE JANEIRO RJUNIAO UMB DOS CULTOS AFRO BRAS    30031810 000002
10231987175000168817800093673    000014254                    000142540000000000000109                     I0114254     30031800000000105003410000017N210318104700000000000103003180000000000000000000000000000000000000000100023061987152NICEAS FERREIRA BRITO FILHO             RUA ALBINO PAIVA, 486                   SENADOR CAMA21830490RIO DE JANEIRO RJUNIAO UMB DOS CULTOS AFRO BRAS    30031810 000003
10231987175000168817800093673    000014243                    000142430000000000000109                     I0214243     30051800000000035003410000017N200318104700000000000103005180000000000000000000000000000000000000000100093372302753MARCIO LUIZ SILVESTRE                   RUA CANDIDO MARIANO, 226                JARDIM NOVA 26266080NOVA IGUACU    RJUNIAO UMB DOS CULTOS AFRO BRAS    30051810 000004
10231987175000168817800093673    000014242                    000142420000000000000109                     I0214242     10041800000000105003410000017N200318104700000000000101004180000000000000000000000000000000000000000100093372302753MARCIO LUIZ SILVESTRE                   RUA CANDIDO MARIANO, 226                JARDIM NOVA 26266080NOVA IGUACU    RJUNIAO UMB DOS CULTOS AFRO BRAS    10041810 000005
10231987175000168817800093673    000013918                    000139180000000000000109                     I0213918     30051800000000035003410000017N200218104700000000000103005180000000000000000000000000000000000000000100007852297790IRENE FRANCISCO LIMA                    RUA: VIRGILIO VARZEA                    VILA SAO LUI25051110DUQUE DE CAXIASRJUNIAO UMB DOS CULTOS AFRO BRAS    30051810 000006
10231987175000168817800093673    000013051                    000130510000000000000109                     I0213051     30051800000000035003410000017N200218104700000000000103005180000000000000000000000000000000000000000100033291241720MARIA JOSE LOPES SOUSA                  RUA ALTAMIRO DOMICIANO DA CRUZ, LOTE 3 QSANTA CANDID23830640ITAGUAI        RJUNIAO UMB DOS CULTOS AFRO BRAS    30051810 000007
10231987175000168817800093673    000012904                    000129040000000000000109                     I0212904     30051800000000035003410000017N200218104700000000000103005180000000000000000000000000000000000000000100086506439734DULCILENE EDUARDO                       RUA NOSSA SENHORA DA GUIA N 45          PIABETA - MA25931686MAGE           RJUNIAO UMB DOS CULTOS AFRO BRAS    30051810 000008
10231987175000168817800093673    000012507                    000125070000000000000109                     I0212507     30051800000000040003410000017N200218104700000000000103005180000000000000000000000000000000000000000100019685726787ADELMIR HAMELIN SODRE                   RUA JOAQUIM DE SOUSA, 311 FUNDOS        ROCHA MIRAND21540370RIO DE JANEIRO RJUNIAO UMB DOS CULTOS AFRO BRAS    30051810 000009
10231987175000168817800093673    000012309                    000123090000000000000109                     I0212309     30041800000000035003410000017N200218104700000000000103004180000000000000000000000000000000000000000100007852297790IRENE FRANCISCO LIMA                    RUA: VIRGILIO VARZEA                    VILA SAO LUI25051110DUQUE DE CAXIASRJUNIAO UMB DOS CULTOS AFRO BRAS    30041810 000010
10231987175000168817800093673    000011442                    000114420000000000000109                     I0211442     30041800000000035003410000017N200218104700000000000103004180000000000000000000000000000000000000000100033291241720MARIA JOSE LOPES SOUSA                  RUA ALTAMIRO DOMICIANO DA CRUZ, LOTE 3 QSANTA CANDID23830640ITAGUAI        RJUNIAO UMB DOS CULTOS AFRO BRAS    30041810 000011
10231987175000168817800093673    000011295                    000112950000000000000109                     I0211295     30041800000000035003410000017N200218104700000000000103004180000000000000000000000000000000000000000100086506439734DULCILENE EDUARDO                       RUA NOSSA SENHORA DA GUIA N 45          PIABETA - MA25931686MAGE           RJUNIAO UMB DOS CULTOS AFRO BRAS    30041810 000012
10231987175000168817800093673    000010898                    000108980000000000000109                     I0210898     30041800000000040003410000017N200218104700000000000103004180000000000000000000000000000000000000000100019685726787ADELMIR HAMELIN SODRE                   RUA JOAQUIM DE SOUSA, 311 FUNDOS        ROCHA MIRAND21540370RIO DE JANEIRO RJUNIAO UMB DOS CULTOS AFRO BRAS    30041810 000013
10231987175000168817800093673    000010700                    000107000000000000000109                     I0210700     30031800000000035003410000017N200218104700000000000103003180000000000000000000000000000000000000000100007852297790IRENE FRANCISCO LIMA                    RUA: VIRGILIO VARZEA                    VILA SAO LUI25051110DUQUE DE CAXIASRJUNIAO UMB DOS CULTOS AFRO BRAS    30031810 000014
10231987175000168817800093673    000010083                    000100830000000000000109                     I3410083     30031800000000035003410000017N200218104700000000000103003180000000000000000000000000000000000000000100001868270750CARLOS ALBERTO DO NASCIMENTO L          O MESMO                                 O MESMO     20761060RIO DE JANEIRO RJUNIAO UMB DOS CULTOS AFRO BRAS    30031810 000015
10231987175000168817800093673    00009833                     000098330000000000000109                     I029833      30031800000000035003410000017N200218104700000000000103003180000000000000000000000000000000000000000100033291241720MARIA JOSE LOPES SOUSA                  RUA ALTAMIRO DOMICIANO DA CRUZ, LOTE 3 QSANTA CANDID23830640ITAGUAI        RJUNIAO UMB DOS CULTOS AFRO BRAS    30031810 000016
10231987175000168817800093673    00009686                     000096860000000000000109                     I029686      30031800000000035003410000017N200218104700000000000103003180000000000000000000000000000000000000000100086506439734DULCILENE EDUARDO                       RUA NOSSA SENHORA DA GUIA N 45          PIABETA - MA25931686MAGE           RJUNIAO UMB DOS CULTOS AFRO BRAS    30031810 000017
10231987175000168817800093673    00009289                     000092890000000000000109                     I029289      30031800000000040003410000017N200218104700000000000103003180000000000000000000000000000000000000000100019685726787ADELMIR HAMELIN SODRE                   RUA JOAQUIM DE SOUSA, 311 FUNDOS        ROCHA MIRAND21540370RIO DE JANEIRO RJUNIAO UMB DOS CULTOS AFRO BRAS    30031810 000018
10231987175000168817800093673    00008998                     000089980000000000000109                     I028998      28021800000000035003410000017N090118104700000000000102802180000000000000000000000000000000000000000100007852297790IRENE FRANCISCO LIMA                    RUA: VIRGILIO VARZEA                    VILA SAO LUI25051110DUQUE DE CAXIASRJUNIAO UMB DOS CULTOS AFRO BRAS    28021810 000019
10231987175000168817800093673    00008997                     000089970000000000000109                     I028997      31011800000000035003410000017N090118104700000000000103101180000000000000000000000000000000000000000100007852297790IRENE FRANCISCO LIMA                    RUA: VIRGILIO VARZEA                    VILA SAO LUI25051110DUQUE DE CAXIASRJUNIAO UMB DOS CULTOS AFRO BRAS    31011810 000020
10231987175000168817800093673    00008209                     000082090000000000000109                     I348209      28021800000000035003410000017N291217104700000000000102802180000000000000000000000000000000000000000100011297806786THIAGO PEREIRA DE BRITO                 RUA SAO JANUARIO                        269         24130386NITEROI        RJUNIAO UMB DOS CULTOS AFRO BRAS    28021810 000021
10231987175000168817800093673    00007871                     000078710000000000000109                     I027871      28021800000000035003410000017N291217104700000000000102802180000000000000000000000000000000000000000200000000001151MARIA APARECIDA LOPES DA SILVA          AV SAMPAIO CORREA Nº 109 - COLONIA     JACAREPAGUA 22713650RIO DE JANEIRO RJUNIAO UMB DOS CULTOS AFRO BRAS    28021810 000022
10231987175000168817800093673    00006807                     000068070000000000000109                     I026807      28021800000000035003410000017N271217104700000000000102802180000000000000000000000000000000000000000100023061987152NICEAS FERREIRA BRITO FILHO             RUA ALBINO PAIVA, 486                   SENADOR CAMA21830490RIO DE JANEIRO RJUNIAO UMB DOS CULTOS AFRO BRAS    28021810 000023
10231987175000168817800093673    00006782                     000067820000000000000109                     I026782      28021800000000035003410000017N271217104700000000000102802180000000000000000000000000000000000000000100001868270750CARLOS ALBERTO DO NASCIMENTO L          O MESMO                                 O MESMO     20761060RIO DE JANEIRO RJUNIAO UMB DOS CULTOS AFRO BRAS    28021810 000024
10231987175000168817800093673    00006672                     000066720000000000000109                     I346672      28021800000000035003410000017N271217104700000000000102802180000000000000000000000000000000000000000100042956765787ARACILDA DOS SANTOS FREITAS             RUA BAHIA, 182 - COREIA                 JUSCELINO - 26556440RIO DE JANEIRO RJUNIAO UMB DOS CULTOS AFRO BRAS    28021810 000025
10231987175000168817800093673    00006602                     000066020000000000000109                     I026602      28021800000000035003410000017N271217104700000000000102802180000000000000000000000000000000000000000100033291241720MARIA JOSE LOPES SOUSA                  RUA ALTAMIRO DOMICIANO DA CRUZ, LOTE 3 QSANTA CANDID23830640ITAGUAI        RJUNIAO UMB DOS CULTOS AFRO BRAS    28021810 000026
10231987175000168817800093673    00006500                     000065000000000000000109                     I026500      28021800000000035003410000017N271217104700000000000102802180000000000000000000000000000000000000000100086506439734DULCILENE EDUARDO                       RUA NOSSA SENHORA DA GUIA N 45          PIABETA - MA25931686MAGE           RJUNIAO UMB DOS CULTOS AFRO BRAS    28021810 000027
10231987175000168817800093673    00006240                     000062400000000000000109                     I346240      28021800000000035003410000017N271217104700000000000102802180000000000000000000000000000000000000000100063440512720SILVANA MANGIA DE SOUZA                 RUA ACANTO N 20                         BANGU - RJ  21830080RIO DE JANEIRO RJUNIAO UMB DOS CULTOS AFRO BRAS    28021810 000028
10231987175000168817800093673    00006106                     000061060000000000000109                     I026106      28021800000000035003410000017N271217104700000000000102802180000000000000000000000000000000000000000100074624792234MARILZA COSTA FERREIRA                  RUA INHANDUI, 128                       BENFICA - RJ20930120RIO DE JANEIRO RJUNIAO UMB DOS CULTOS AFRO BRAS    28021810 000029
10231987175000168817800093673    00005557                     000055570000000000000109                     I025557      31011800000000035003410000017N261217104700000000000103101180000000000000000000000000000000000000000100023061987152NICEAS FERREIRA BRITO FILHO             RUA ALBINO PAIVA, 486                   SENADOR CAMA21830490RIO DE JANEIRO RJUNIAO UMB DOS CULTOS AFRO BRAS    31011810 000030
10231987175000168817800093673    00005532                     000055320000000000000109                     I345532      31011800000000035003410000017N261217104700000000000103101180000000000000000000000000000000000000000100001868270750CARLOS ALBERTO DO NASCIMENTO L          O MESMO                                 O MESMO     20761060RIO DE JANEIRO RJUNIAO UMB DOS CULTOS AFRO BRAS    31011810 000031
10231987175000168817800093673    00005352                     000053520000000000000109                     I025352      31011800000000035003410000017N261217104700000000000103101180000000000000000000000000000000000000000100033291241720MARIA JOSE LOPES SOUSA                  RUA ALTAMIRO DOMICIANO DA CRUZ, LOTE 3 QSANTA CANDID23830640ITAGUAI        RJUNIAO UMB DOS CULTOS AFRO BRAS    31011810 000032
10231987175000168817800093673    00005250                     000052500000000000000109                     I025250      31011800000000035003410000017N261217104700000000000103101180000000000000000000000000000000000000000100086506439734DULCILENE EDUARDO                       RUA NOSSA SENHORA DA GUIA N 45          PIABETA - MA25931686MAGE           RJUNIAO UMB DOS CULTOS AFRO BRAS    31011810 000033
10231987175000168817800093673    00004990                     000049900000000000000109                     I344990      31011800000000035003410000017N261217104700000000000103101180000000000000000000000000000000000000000100063440512720SILVANA MANGIA DE SOUZA                 RUA ACANTO N 20                         BANGU - RJ  21830080RIO DE JANEIRO RJUNIAO UMB DOS CULTOS AFRO BRAS    31011810 000034
10231987175000168817800093673    00004856                     000048560000000000000109                     I024856      31011800000000035003410000017N261217104700000000000103101180000000000000000000000000000000000000000100074624792234MARILZA COSTA FERREIRA                  RUA INHANDUI, 128                       BENFICA - RJ20930120RIO DE JANEIRO RJUNIAO UMB DOS CULTOS AFRO BRAS    31011810 000035
10231987175000168817800093673    00001431                     000014310000000000000109                     I021431      20121700000000270003410000017N251017104700000000000102012170000000000000000000000000000000000000000200000000002244FAUSTO IACOVELLI                        RUA SAO JOAO, LOTE 15 QUADRA 29 - KM 32 PQ.SAO FRANC26369160NOVA IGUACU    RJUNIAO UMB DOS CULTOS AFRO BRAS    20121710 000036
10231987175000168817800093673    00001004                     000010040000000000000109                     I341004      20121700000000340003410000017N241017104700000000000102012170000000000000000000000000000000000000000200000000001151MARIA APARECIDA LOPES DA SILVA          AV SAMPAIO CORREA Nº 109 - COLONIA     JACAREPAGUA 22713650RIO DE JANEIRO RJUNIAO UMB DOS CULTOS AFRO BRAS    20121710 000037
10231987175000168817800093673    0000278                      000002780000000000000109                     I02278       20121700000000400003410000017N101017104700000000000102012170000000000000000000000000000000000000000100011297806786THIAGO PEREIRA DE BRITO                 RUA SAO JANUARIO                        269         24130386NITEROI        RJUNIAO UMB DOS CULTOS AFRO BRAS    20121710 000038
9                                                                                                                                                                                                                                                                                                                                                                                                         000039
