01REMESSA01COBRANCA       817800093673        União Umb dos Cultos Afro Bra341BANCO ITAU SA  260618                                                                                                                                                                                                                                                                                                      000001
10231987175000168817800093673    000021244                    000212440000000000000109                     I0121244     30061800000000035003410000017N260618104700000000000103006180000000000000000000000000000000000000000100047783877753RAIMUNDO NONATO VALENCA RIBEIR          AVENIDA PREFEITO BRAULINO DE MATOS REIS,COPACABANA -25060440DUQUE DE CAXIASRJUNIAO UMB DOS CULTOS AFRO BRAS    30061810 000002
10231987175000168817800093673    000021243                    000212430000000000000109                     I0121243     30081800000000040003410000017N250618104700000000000103008180000000000000000000000000000000000000000100011709590775JOYCE MARA PINHEIRO DA SILVA            RUA SILVIO TIBIRICA                     TURIACU     21540200RIO DE JANEIRO RJUNIAO UMB DOS CULTOS AFRO BRAS    30081810 000003
10231987175000168817800093673    000021242                    000212420000000000000109                     I0121242     30071800000000040003410000017N250618104700000000000103007180000000000000000000000000000000000000000100011709590775JOYCE MARA PINHEIRO DA SILVA            RUA SILVIO TIBIRICA                     TURIACU     21540200RIO DE JANEIRO RJUNIAO UMB DOS CULTOS AFRO BRAS    30071810 000004
10231987175000168817800093673    000021241                    000212410000000000000109                     I0121241     30061800000000040003410000017N250618104700000000000103006180000000000000000000000000000000000000000100075333112720FATIMA CRISTINA MARQUES DE ALM          RUA MANOEL CARREIRO DE MELLO            SAO PEDRO   25956080TERESOPOLIS    RJUNIAO UMB DOS CULTOS AFRO BRAS    30061810 000005
10231987175000168817800093673    000021240                    000212400000000000000109                     I0121240     30081800000000035003410000017N250618104700000000000103008180000000000000000000000000000000000000000100014963009714MICHELLE DA SILVA SOARES                RUA MINAS GERAIS                        PIABETA     25935525MAGE           RJUNIAO UMB DOS CULTOS AFRO BRAS    30081810 000006
10231987175000168817800093673    000021239                    000212390000000000000109                     I0121239     30071800000000035003410000017N250618104700000000000103007180000000000000000000000000000000000000000100014963009714MICHELLE DA SILVA SOARES                RUA MINAS GERAIS                        PIABETA     25935525MAGE           RJUNIAO UMB DOS CULTOS AFRO BRAS    30071810 000007
10231987175000168817800093673    000021238                    000212380000000000000109                     I0121238     30081800000000035003410000017N250618104700000000000103008180000000000000000000000000000000000000000100002305172770VALDIRENE ALBUQUERQUE MARCIEL           RUA: GUARAGUATATUBA                     VILA ROSARIO25030040DUQUE DE CAXIASRJUNIAO UMB DOS CULTOS AFRO BRAS    30081810 000008
10231987175000168817800093673    000021237                    000212370000000000000109                     I0121237     30071800000000035003410000017N250618104700000000000103007180000000000000000000000000000000000000000100002305172770VALDIRENE ALBUQUERQUE MARCIEL           RUA: GUARAGUATATUBA                     VILA ROSARIO25030040DUQUE DE CAXIASRJUNIAO UMB DOS CULTOS AFRO BRAS    30071810 000009
10231987175000168817800093673    000021236                    000212360000000000000109                     I0121236     30061800000000175003410000017N250618104700000000000103006180000000000000000000000000000000000000000100069833850715WALTER LIMA DE AVELLAR                  RUA SAO JOSE, S/N QUADRA 47 LOTE 19     ITAIPUACU - 24900000MARICA         RJUNIAO UMB DOS CULTOS AFRO BRAS    30061810 000010
10231987175000168817800093673    000021235                    000212350000000000000109                     I0121235     30081800000000035003410000017N210618104700000000000103008180000000000000000000000000000000000000000100042533686700ENEDINA MALVINA DO NASCIMENTO           RUA: CASTRO MENEZES                     BRAS DE PINA21215250RIO DE JANEIRO RJUNIAO UMB DOS CULTOS AFRO BRAS    30081810 000011
10231987175000168817800093673    000021234                    000212340000000000000109                     I0121234     30071800000000035003410000017N210618104700000000000103007180000000000000000000000000000000000000000100042533686700ENEDINA MALVINA DO NASCIMENTO           RUA: CASTRO MENEZES                     BRAS DE PINA21215250RIO DE JANEIRO RJUNIAO UMB DOS CULTOS AFRO BRAS    30071810 000012
10231987175000168817800093673    000021233                    000212330000000000000109                     I0121233     10071800000000210003410000017N210618104700000000000101007180000000000000000000000000000000000000000100060471859753MARLENE IBRAIN                          RUA: DOUTOR ALVARO DA PAIXAO JR         PARQUE AEROP27971180MACAE          RJUNIAO UMB DOS CULTOS AFRO BRAS    10071810 000013
10231987175000168817800093673    000021232                    000212320000000000000109                     I0121232     30061800000000105003410000017N210618104700000000000103006180000000000000000000000000000000000000000100008604956719MIRIAN DE MATTOS ALVES                  AVENIDA MOACIR SARAIVA DE CARVALHO      JARDIM METRO25571190SAO JOAO DE MERRJUNIAO UMB DOS CULTOS AFRO BRAS    30061810 000014
10231987175000168817800093673    000021231                    000212310000000000000109                     I0121231     05071800000000035003410000017N210618104700000000000100507180000000000000000000000000000000000000000100005199150707RITA LUSIE DE MELLO CASTRO              RUA IARA N 118 CASA A                   SAO MATEUS -25525410SAO JOAO DE MERRJUNIAO UMB DOS CULTOS AFRO BRAS    05071810 000015
10231987175000168817800093673    000021230                    000212300000000000000109                     I0121230     30061800000000035003410000017N210618104700000000000103006180000000000000000000000000000000000000000100005199150707RITA LUSIE DE MELLO CASTRO              RUA IARA N 118 CASA A                   SAO MATEUS -25525410SAO JOAO DE MERRJUNIAO UMB DOS CULTOS AFRO BRAS    30061810 000016
10231987175000168817800093673    000021229                    000212290000000000000109                     I0121229     15071800000000210003410000017N200618104700000000000101507180000000000000000000000000000000000000000100079013686753NEIVA NUNES SENNA                       ALAMEDA SAO SEBASTIAO LOTE 23 QUADRA 12 SAO FRANCISC26352680NOVA IGUACU    RJUNIAO UMB DOS CULTOS AFRO BRAS    15071810 000017
10231987175000168817800093673    000021214                    000212140000000000000109                     I0221214     20061800000000105003410000017N150618104700000000000102006180000000000000000000000000000000000000000100008604956719MIRIAN DE MATTOS ALVES                  AVENIDA MOACIR SARAIVA DE CARVALHO      JARDIM METRO25571190SAO JOAO DE MERRJUNIAO UMB DOS CULTOS AFRO BRAS    20061810 000018
10231987175000168817800093673    000014422                    000144220000000000000109                     I0214422     30051800000000040003410000017N180418104700000000000103005180000000000000000000000000000000000000000100075333112720FATIMA CRISTINA MARQUES DE ALM          RUA MANOEL CARREIRO DE MELLO            SAO PEDRO   25956080TERESOPOLIS    RJUNIAO UMB DOS CULTOS AFRO BRAS    30051810 000019
10231987175000168817800093673    000014420                    000144200000000000000109                     I0214420     30041800000000105003410000017N180418104700000000000103004180000000000000000000000000000000000000000100069833850715WALTER LIMA DE AVELLAR                  RUA SAO JOSE, S/N QUADRA 47 LOTE 19     ITAIPUACU - 24900000MARICA         RJUNIAO UMB DOS CULTOS AFRO BRAS    30041810 000020
10231987175000168817800093673    000014265                    000142650000000000000109                     I0214265     30051800000000035003410000017N270318104700000000000103005180000000000000000000000000000000000000000100007337231792SAMANTHA PRISCILA MARQUES MORE          RUA INSPETOR CASTRO                     SARACURUNA  25211410DUQUE DE CAXIASRJUNIAO UMB DOS CULTOS AFRO BRAS    30051810 000021
10231987175000168817800093673    000014264                    000142640000000000000109                     I0214264     30041800000000035003410000017N270318104700000000000103004180000000000000000000000000000000000000000100007337231792SAMANTHA PRISCILA MARQUES MORE          RUA INSPETOR CASTRO                     SARACURUNA  25211410DUQUE DE CAXIASRJUNIAO UMB DOS CULTOS AFRO BRAS    30041810 000022
10231987175000168817800093673    000013931                    000139310000000000000109                     I3413931     30051800000000035003410000017N200218104700000000000103005180000000000000000000000000000000000000000100010154945790SIMONE DE OLIVEIRA CUNHA                RUA ONZE                                JARDIM ROTSE25270080DUQUE DE CAXIASRJUNIAO UMB DOS CULTOS AFRO BRAS    30051810 000023
10231987175000168817800093673    000013769                    000137690000000000000109                     I0213769     30051800000000035003410000017N200218104700000000000103005180000000000000000000000000000000000000000100005646881773DEBORA LINS                             RUA LACONIA N 89 CASA 3                 JARDIM AMAPA26182230BELFORD ROXO   RJUNIAO UMB DOS CULTOS AFRO BRAS    30051810 000024
10231987175000168817800093673    000013617                    000136170000000000000109                     I0213617     30051800000000035003410000017N200218104700000000000103005180000000000000000000000000000000000000000100013513344890LUCIANO MAURICIO ESTEVES OSTER          ESTRADA ANTONIO DOS REIS CARNEIRO       SAO JOSE    26193320BELFORD ROXO   RJUNIAO UMB DOS CULTOS AFRO BRAS    30051810 000025
10231987175000168817800093673    000013528                    000135280000000000000109                     I0213528     30051800000000035003410000017N200218104700000000000103005180000000000000000000000000000000000000000100008604956719MIRIAN DE MATTOS ALVES                  AVENIDA MOACIR SARAIVA DE CARVALHO      JARDIM METRO25571190SAO JOAO DE MERRJUNIAO UMB DOS CULTOS AFRO BRAS    30051810 000026
10231987175000168817800093673    000013370                    000133700000000000000109                     I0213370     30051800000000035003410000017N200218104700000000000103005180000000000000000000000000000000000000000100069833850715WALTER LIMA DE AVELLAR                  RUA SAO JOSE, S/N QUADRA 47 LOTE 19     ITAIPUACU - 24900000MARICA         RJUNIAO UMB DOS CULTOS AFRO BRAS    30051810 000027
10231987175000168817800093673    000013369                    000133690000000000000109                     I0213369     30051800000000035003410000017N200218104700000000000103005180000000000000000000000000000000000000000100047783877753RAIMUNDO NONATO VALENCA RIBEIR          AVENIDA PREFEITO BRAULINO DE MATOS REIS,COPACABANA -25060440DUQUE DE CAXIASRJUNIAO UMB DOS CULTOS AFRO BRAS    30051810 000028
10231987175000168817800093673    000013147                    000131470000000000000109                     I0213147     30051800000000035003410000017N200218104700000000000103005180000000000000000000000000000000000000000100002486800727MARCIA REGINA DA SILVA SANTOS           RUA JACIRENDI                           COLEGIO     21545290RIO DE JANEIRO RJUNIAO UMB DOS CULTOS AFRO BRAS    30051810 000029
10231987175000168817800093673    000013132                    000131320000000000000109                     I0213132     30051800000000035003410000017N200218104700000000000103005180000000000000000000000000000000000000000100060471859753MARLENE IBRAIN                          RUA: DOUTOR ALVARO DA PAIXAO JR         PARQUE AEROP27971180MACAE          RJUNIAO UMB DOS CULTOS AFRO BRAS    30051810 000030
10231987175000168817800093673    000012964                    000129640000000000000109                     I3412964     30051800000000035003410000017N200218104700000000000103005180000000000000000000000000000000000000000100090823516768ALEXANDRE LUIZ DE OLIVEIRA NET          ESTRADA DO COVANCA                      LARGO DO TAN22735020RIO DE JANEIRO RJUNIAO UMB DOS CULTOS AFRO BRAS    30051810 000031
10231987175000168817800093673    000012867                    000128670000000000000109                     I0212867     30051800000000035003410000017N200218104700000000000103005180000000000000000000000000000000000000000100063607379734FATIMA CONCEICAO GONCALVES DA           RUA: AMANDIU                            IRAJA       21371440RIO DE JANEIRO RJUNIAO UMB DOS CULTOS AFRO BRAS    30051810 000032
10231987175000168817800093673    000012845                    000128450000000000000109                     I0212845     30051800000000035003410000017N200218104700000000000103005180000000000000000000000000000000000000000100005333959765CRISTIANE DA CONCEICAO PACHECO          RUA JOSE SEABRA, 6                      PILAR       25233001DUQUE DE CAXIASRJUNIAO UMB DOS CULTOS AFRO BRAS    30051810 000033
10231987175000168817800093673    000012617                    000126170000000000000109                     I3412617     30051800000000035003410000017N200218104700000000000103005180000000000000000000000000000000000000000100001345348754ADRIANA DE LELIS                        RUA DOIS QUADRA D LOTE 13               BAIRRO SILVE23092080RIO DE JANEIRO RJUNIAO UMB DOS CULTOS AFRO BRAS    30051810 000034
10231987175000168817800093673    000012160                    000121600000000000000109                     I0212160     30041800000000035003410000017N200218104700000000000103004180000000000000000000000000000000000000000100005646881773DEBORA LINS                             RUA LACONIA N 89 CASA 3                 JARDIM AMAPA26182230BELFORD ROXO   RJUNIAO UMB DOS CULTOS AFRO BRAS    30041810 000035
10231987175000168817800093673    000012008                    000120080000000000000109                     I0212008     30041800000000035003410000017N200218104700000000000103004180000000000000000000000000000000000000000100013513344890LUCIANO MAURICIO ESTEVES OSTER          ESTRADA ANTONIO DOS REIS CARNEIRO       SAO JOSE    26193320BELFORD ROXO   RJUNIAO UMB DOS CULTOS AFRO BRAS    30041810 000036
10231987175000168817800093673    000011919                    000119190000000000000109                     I0211919     30041800000000035003410000017N200218104700000000000103004180000000000000000000000000000000000000000100008604956719MIRIAN DE MATTOS ALVES                  AVENIDA MOACIR SARAIVA DE CARVALHO      JARDIM METRO25571190SAO JOAO DE MERRJUNIAO UMB DOS CULTOS AFRO BRAS    30041810 000037
10231987175000168817800093673    000011538                    000115380000000000000109                     I0211538     30041800000000035003410000017N200218104700000000000103004180000000000000000000000000000000000000000100002486800727MARCIA REGINA DA SILVA SANTOS           RUA JACIRENDI                           COLEGIO     21545290RIO DE JANEIRO RJUNIAO UMB DOS CULTOS AFRO BRAS    30041810 000038
10231987175000168817800093673    000011523                    000115230000000000000109                     I0211523     30041800000000035003410000017N200218104700000000000103004180000000000000000000000000000000000000000100060471859753MARLENE IBRAIN                          RUA: DOUTOR ALVARO DA PAIXAO JR         PARQUE AEROP27971180MACAE          RJUNIAO UMB DOS CULTOS AFRO BRAS    30041810 000039
10231987175000168817800093673    000011355                    000113550000000000000109                     I3411355     30041800000000035003410000017N200218104700000000000103004180000000000000000000000000000000000000000100090823516768ALEXANDRE LUIZ DE OLIVEIRA NET          ESTRADA DO COVANCA                      LARGO DO TAN22735020RIO DE JANEIRO RJUNIAO UMB DOS CULTOS AFRO BRAS    30041810 000040
10231987175000168817800093673    000011333                    000113330000000000000109                     I0211333     30041800000000035003410000017N200218104700000000000103004180000000000000000000000000000000000000000100005199150707RITA LUSIE DE MELLO CASTRO              RUA IARA N 118 CASA A                   SAO MATEUS -25525410SAO JOAO DE MERRJUNIAO UMB DOS CULTOS AFRO BRAS    30041810 000041
10231987175000168817800093673    000011258                    000112580000000000000109                     I0211258     30041800000000035003410000017N200218104700000000000103004180000000000000000000000000000000000000000100063607379734FATIMA CONCEICAO GONCALVES DA           RUA: AMANDIU                            IRAJA       21371440RIO DE JANEIRO RJUNIAO UMB DOS CULTOS AFRO BRAS    30041810 000042
10231987175000168817800093673    000011236                    000112360000000000000109                     I0211236     30041800000000035003410000017N200218104700000000000103004180000000000000000000000000000000000000000100005333959765CRISTIANE DA CONCEICAO PACHECO          RUA JOSE SEABRA, 6                      PILAR       25233001DUQUE DE CAXIASRJUNIAO UMB DOS CULTOS AFRO BRAS    30041810 000043
9                                                                                                                                                                                                                                                                                                                                                                                                         000044
