01REMESSA01COBRANCA       916200163100        União Umb dos Cultos Afro Bra341BANCO ITAU SA  040118                                                                                                                                                                                                                                                                                                      000001
10231987175000168916200163100    00001778                     000017780000000000000109                     I341778      31121700000000035003410000017N131117050900000000000103112170000000000000000000000000000000000000000100077575768734CARLOS ALBERTO BAPTISTA                 RUA DOUTOR NOGUCHI, 220                 RAMOS - RJ  21060420RIO DE JANEIRO RJUNIAO UMB DOS CULTOS AFRO BRAS    31121710 000002
9                                                                                                                                                                                                                                                                                                                                                                                                         000003
