01REMESSA01COBRANCA       916200163100        União Umb dos Cultos Afro Bra341BANCO ITAU SA  290319                                                                                                                                                                                                                                                                                                      000001
10231987175000168916200163100    000044935                    000449350000000000000109                     I0144935     15041900000000200003410000017N290319104700000000000101504190000000000000000000000000000000000000000100001902241770JOSE RICARDO CORREA FERREIRA            RUA BIRIGUIN 4459,                      BOA VISTA   24466190SAO GONCALO    RJUNIAO UMB DOS CULTOS AFRO BRAS    15041910 000002
10231987175000168916200163100    000044934                    000449340000000000000109                     I0144934     28061900000000040003410000017N290319104700000000000102806190000000000000000000000000000000000000000100007692207704ALEXANDRA CRISTINE DOS SANTOS           RUA: CAMINHO DO CEUN 0,  LOTE 10 QUADRA CURICICA    22780660RIO DE JANEIRO RJUNIAO UMB DOS CULTOS AFRO BRAS    28061910 000003
10231987175000168916200163100    000044933                    000449330000000000000109                     I0144933     31051900000000040003410000017N290319104700000000000103105190000000000000000000000000000000000000000100007692207704ALEXANDRA CRISTINE DOS SANTOS           RUA: CAMINHO DO CEUN 0,  LOTE 10 QUADRA CURICICA    22780660RIO DE JANEIRO RJUNIAO UMB DOS CULTOS AFRO BRAS    31051910 000004
10231987175000168916200163100    000044932                    000449320000000000000109                     I0144932     19041900000000700003410000017N290319104700000000000101904190000000000000000000000000000000000000000100008658808750LUIS CARLOS FARIAS DUARTE               RUA: RODOLFO GARCIA N 90, FUNDOS        CAMPO GRANDE23070430RIO DE JANEIRO RJUNIAO UMB DOS CULTOS AFRO BRAS    19041910 000005
10231987175000168916200163100    000044931                    000449310000000000000109                     I0144931     26041900000000200003410000017N290319104700000000000102604190000000000000000000000000000000000000000100004701154750VIVIANE FELIX GOMES                     RUA VANDA VASCONCELOS N 0, QD 8 LOTE 14 JARDIM REDEN26195460BELFORD ROXO   RJUNIAO UMB DOS CULTOS AFRO BRAS    26041910 000006
10231987175000168916200163100    000044930                    000449300000000000000109                     I0144930     10041900000000120003410000017N290319104700000000000101004190000000000000000000000000000000000000000100087969998704ROBERTO LUIZ MEDEIROS                   RUA OLIMPION 0, LOTE 35 QUADRA 29       HELIOPOLIS  26125215BELFORD ROXO   RJUNIAO UMB DOS CULTOS AFRO BRAS    10041910 000007
10231987175000168916200163100    000044929                    000449290000000000000109                     I0144929     12041900000000350003410000017N290319104700000000000101204190000000000000000000000000000000000000000100002295785782ELVIRA RODRIGUES DE MELLO               RUA ARAGUARIN 182, COMPLEMENTO 183      VILI SAO SEB26160250BELFORD ROXO   RJUNIAO UMB DOS CULTOS AFRO BRAS    12041910 000008
10231987175000168916200163100    000044928                    000449280000000000000109                     I0144928     20041900000000200003410000017N290319104700000000000102004190000000000000000000000000000000000000000100002875690710KARLA MARIA QUEIROGA MARTINS            RUA PEREIRA DA COSTAN 18, FUNDOS        MADUREIRA   21360270RIO DE JANEIRO RJUNIAO UMB DOS CULTOS AFRO BRAS    20041910 000009
10231987175000168916200163100    000044927                    000449270000000000000109                     I0144927     30061900000000040003410000017N290319104700000000000103006190000000000000000000000000000000000000000100001162883707SUNEY MENEZES MACHADO                   RUA ANTONIO CARLOS NETON 85, CASA 2     CAMPO GRANDE23090630RIO DE JANEIRO RJUNIAO UMB DOS CULTOS AFRO BRAS    30061910 000010
10231987175000168916200163100    000044926                    000449260000000000000109                     I0144926     30051900000000040003410000017N290319104700000000000103005190000000000000000000000000000000000000000100001162883707SUNEY MENEZES MACHADO                   RUA ANTONIO CARLOS NETON 85, CASA 2     CAMPO GRANDE23090630RIO DE JANEIRO RJUNIAO UMB DOS CULTOS AFRO BRAS    30051910 000011
10231987175000168916200163100    000044925                    000449250000000000000109                     I0144925     30041900000000040003410000017N290319104700000000000103004190000000000000000000000000000000000000000100001162883707SUNEY MENEZES MACHADO                   RUA ANTONIO CARLOS NETON 85, CASA 2     CAMPO GRANDE23090630RIO DE JANEIRO RJUNIAO UMB DOS CULTOS AFRO BRAS    30041910 000012
10231987175000168916200163100    000044924                    000449240000000000000109                     I0144924     05041900000000040003410000017N290319104700000000000100504190000000000000000000000000000000000000000100011264005725MARCELO VIEIRA GUSMAN FILHO             AVENIDA MEDIANEIRA N 145, CASA B        COSMOS      23066470RIO DE JANEIRO RJUNIAO UMB DOS CULTOS AFRO BRAS    05041910 000013
10231987175000168916200163100    000044923                    000449230000000000000109                     I0144923     05041900000000080003410000017N290319104700000000000100504190000000000000000000000000000000000000000100064954528704CELIA REGINA DA SILVA                   RUA ARNALDO MENEZESN 0, QUADRA 6 LOTE 1 PARQUE BARRE25581250SAO JOAO DE MERRJUNIAO UMB DOS CULTOS AFRO BRAS    05041910 000014
10231987175000168916200163100    000044922                    000449220000000000000109                     I0144922     03041900000000040003410000017N290319104700000000000100304190000000000000000000000000000000000000000100015295681700MICHEL FERNANDES BASTOS CRESPO          RUA ROSANGELA TOSTES N 0, LOTE 8 QD 21  PARQUE FLUMI26185260BELFORD ROXO   RJUNIAO UMB DOS CULTOS AFRO BRAS    03041910 000015
10231987175000168916200163100    000044921                    000449210000000000000109                     I0144921     05041900000000040003410000017N290319104700000000000100504190000000000000000000000000000000000000000100007062360767IVONETE GOMES DOS SANTOS                RUA SOARES TAVARESN 555,                GRADIM      24431310SAO GONCALO    RJUNIAO UMB DOS CULTOS AFRO BRAS    05041910 000016
10231987175000168916200163100    000044920                    000449200000000000000109                     I0144920     10041900000000150003410000017N290319104700000000000101004190000000000000000000000000000000000000000100003230389727LENIRA FELIX DA SILVA                   RUA ULISSES ROBERTON 1524,              BOACU       24467490SAO GONCALO    RJUNIAO UMB DOS CULTOS AFRO BRAS    10041910 000017
10231987175000168916200163100    000044919                    000449190000000000000109                     I0144919     05041900000000470003410000017N290319104700000000000100504190000000000000000000000000000000000000000100091126037753SHEILA DE CARVALHO ALVARES              RUA MAGALHAES CASTRON 111, FUNDOS       RIACHUELO   20961020RIO DE JANEIRO RJUNIAO UMB DOS CULTOS AFRO BRAS    05041910 000018
10231987175000168916200163100    000044289                    000442890000000000000109                     I0244289     30061900000000040003410000017N130319104700000000000103006190000000000000000000000000000000000000000100001055608710IARA DA SILVA REGO                      RUA ALCOBACAN 1333, CASA 1              ANCHIETA    21645001RIO DE JANEIRO RJUNIAO UMB DOS CULTOS AFRO BRAS    30061910 000019
10231987175000168916200163100    000043792                    000437920000000000000109                     I0243792     30061900000000040003410000017N130319104700000000000103006190000000000000000000000000000000000000000100009831383702MARCELO SOUZA MATOS                     AVENIDA MERITIN 1504, FUNDOS            VILA DA PENH21211006RIO DE JANEIRO RJUNIAO UMB DOS CULTOS AFRO BRAS    30061910 000020
10231987175000168916200163100    000043270                    000432700000000000000109                     I0243270     30061900000000040003410000017N130319104700000000000103006190000000000000000000000000000000000000000100080887376720JULIA MARIA DA CONCEICAO                RUA ELIZETE DA SILVA TARGINO N 0, LOTE 6BRISAMAR    23823290ITAGUAI        RJUNIAO UMB DOS CULTOS AFRO BRAS    30061910 000021
10231987175000168916200163100    000042641                    000426410000000000000109                     I0242641     30051900000000040003410000017N130319104700000000000103005190000000000000000000000000000000000000000100001055608710IARA DA SILVA REGO                      RUA ALCOBACAN 1333, CASA 1              ANCHIETA    21645001RIO DE JANEIRO RJUNIAO UMB DOS CULTOS AFRO BRAS    30051910 000022
10231987175000168916200163100    000042147                    000421470000000000000109                     I0242147     30051900000000040003410000017N130319104700000000000103005190000000000000000000000000000000000000000100009831383702MARCELO SOUZA MATOS                     AVENIDA MERITIN 1504, FUNDOS            VILA DA PENH21211006RIO DE JANEIRO RJUNIAO UMB DOS CULTOS AFRO BRAS    30051910 000023
10231987175000168916200163100    000041630                    000416300000000000000109                     I0241630     30051900000000040003410000017N130319104700000000000103005190000000000000000000000000000000000000000100080887376720JULIA MARIA DA CONCEICAO                RUA ELIZETE DA SILVA TARGINO N 0, LOTE 6BRISAMAR    23823290ITAGUAI        RJUNIAO UMB DOS CULTOS AFRO BRAS    30051910 000024
10231987175000168916200163100    000041003                    000410030000000000000109                     I0241003     30041900000000040003410000017N120319104700000000000103004190000000000000000000000000000000000000000100001055608710IARA DA SILVA REGO                      RUA ALCOBACAN 1333, CASA 1              ANCHIETA    21645001RIO DE JANEIRO RJUNIAO UMB DOS CULTOS AFRO BRAS    30041910 000025
10231987175000168916200163100    000040512                    000405120000000000000109                     I0240512     30041900000000040003410000017N120319104700000000000103004190000000000000000000000000000000000000000100009831383702MARCELO SOUZA MATOS                     AVENIDA MERITIN 1504, FUNDOS            VILA DA PENH21211006RIO DE JANEIRO RJUNIAO UMB DOS CULTOS AFRO BRAS    30041910 000026
10231987175000168916200163100    000040075                    000400750000000000000109                     I0240075     30041900000000040003410000017N120319104700000000000103004190000000000000000000000000000000000000000100009886046716ANA CRISTINA DE ALMEIDA TRINDA          RUA COTIJUBAN 156,                      ROCHA MIRAND21555020RIO DE JANEIRO RJUNIAO UMB DOS CULTOS AFRO BRAS    30041910 000027
10231987175000168916200163100    000039998                    000399980000000000000109                     I0239998     30041900000000040003410000017N120319104700000000000103004190000000000000000000000000000000000000000100080887376720JULIA MARIA DA CONCEICAO                RUA ELIZETE DA SILVA TARGINO N 0, LOTE 6BRISAMAR    23823290ITAGUAI        RJUNIAO UMB DOS CULTOS AFRO BRAS    30041910 000028
10231987175000168916200163100    000039697                    000396970000000000000109                     I0239697     31031900000000040003410000017N310119104700000000000103103190000000000000000000000000000000000000000100015477441704RAFAEL LOPES DOS SANTOS                 RUA SANTA TERESINHAN 11, CASA 2         JARDIM METRO25571430SAO JOAO DE MERRJUNIAO UMB DOS CULTOS AFRO BRAS    31031910 000029
10231987175000168916200163100    000039609                    000396090000000000000109                     I0239609     29031900000000040003410000017N180119104700000000000102903190000000000000000000000000000000000000000100064954528704CELIA REGINA DA SILVA                   RUA ARNALDO MENEZESN 0, QUADRA 6 LOTE 1 PARQUE BARRE25581250SAO JOAO DE MERRJUNIAO UMB DOS CULTOS AFRO BRAS    29031910 000030
10231987175000168916200163100    000039608                    000396080000000000000109                     I0239608     28021900000000040003410000017N180119104700000000000102802190000000000000000000000000000000000000000100064954528704CELIA REGINA DA SILVA                   RUA ARNALDO MENEZESN 0, QUADRA 6 LOTE 1 PARQUE BARRE25581250SAO JOAO DE MERRJUNIAO UMB DOS CULTOS AFRO BRAS    28021910 000031
9                                                                                                                                                                                                                                                                                                                                                                                                         000032
