01REMESSA01COBRANCA       817800093673        União Umb dos Cultos Afro Bra341BANCO ITAU SA  170619                                                                                                                                                                                                                                                                                                      000001
10231987175000168817800093673    000049134                    000491340000000000000109                     I0249134     30091900000000040003410000017N100619105700000000000133009190000000000000000000000000000000000000000100000487738756MARY LUCY PEREIRA DA SILVA              RUA URUCUIAN 846, CASA 31               VILA VALQUEI21321310RIO DE JANEIRO RJUNIAO UMB DOS CULTOS AFRO BRAS    30091915 000002
21300920190000000000080                                                                                                                                                                                                                                                                                                                                                                                   000003
10231987175000168817800093673    000048888                    000488880000000000000109                     I0248888     30091900000000040003410000017N100619105700000000000133009190000000000000000000000000000000000000000100082096260787MARIA INACIA DE ALVARENGA COUT          RUA UBIRATAN 373, FRENTE                HIGIENOPOLIS21051030RIO DE JANEIRO RJUNIAO UMB DOS CULTOS AFRO BRAS    30091915 000004
21300920190000000000080                                                                                                                                                                                                                                                                                                                                                                                   000005
10231987175000168817800093673    000047693                    000476930000000000000109                     I0247693     30081900000000040003410000017N100619105700000000000133008190000000000000000000000000000000000000000100000487738756MARY LUCY PEREIRA DA SILVA              RUA URUCUIAN 846, CASA 31               VILA VALQUEI21321310RIO DE JANEIRO RJUNIAO UMB DOS CULTOS AFRO BRAS    30081915 000006
21300820190000000000080                                                                                                                                                                                                                                                                                                                                                                                   000007
10231987175000168817800093673    000047449                    000474490000000000000109                     I0247449     30081900000000040003410000017N100619105700000000000133008190000000000000000000000000000000000000000100082096260787MARIA INACIA DE ALVARENGA COUT          RUA UBIRATAN 373, FRENTE                HIGIENOPOLIS21051030RIO DE JANEIRO RJUNIAO UMB DOS CULTOS AFRO BRAS    30081915 000008
21300820190000000000080                                                                                                                                                                                                                                                                                                                                                                                   000009
10231987175000168817800093673    000046262                    000462620000000000000109                     I0246262     30071900000000040003410000017N100619105700000000000133007190000000000000000000000000000000000000000100000487738756MARY LUCY PEREIRA DA SILVA              RUA URUCUIAN 846, CASA 31               VILA VALQUEI21321310RIO DE JANEIRO RJUNIAO UMB DOS CULTOS AFRO BRAS    30071915 000010
21300720190000000000080                                                                                                                                                                                                                                                                                                                                                                                   000011
10231987175000168817800093673    000046020                    000460200000000000000109                     I0246020     30071900000000040003410000017N100619105700000000000133007190000000000000000000000000000000000000000100082096260787MARIA INACIA DE ALVARENGA COUT          RUA UBIRATAN 373, FRENTE                HIGIENOPOLIS21051030RIO DE JANEIRO RJUNIAO UMB DOS CULTOS AFRO BRAS    30071915 000012
21300720190000000000080                                                                                                                                                                                                                                                                                                                                                                                   000013
9                                                                                                                                                                                                                                                                                                                                                                                                         000014
