01REMESSA01COBRANCA       817800093673        União Umb dos Cultos Afro Bra341BANCO ITAU SA  120318                                                                                                                                                                                                                                                                                                      000001
10231987175000168817800093673    000014196                    000141960000000000000109                     I0114196     30051800000000035003410000017N120318104700000000000103005180000000000000000000000000000000000000000100010718180747JOSE CARLOS MELO DA SILVA               RUA DEPUTADO SA REGO                    VILA SAO LUI25065030DUQUE DE CAXIASRJUNIAO UMB DOS CULTOS AFRO BRAS    30051810 000002
10231987175000168817800093673    000014195                    000141950000000000000109                     I0114195     30041800000000035003410000017N120318104700000000000103004180000000000000000000000000000000000000000100010718180747JOSE CARLOS MELO DA SILVA               RUA DEPUTADO SA REGO                    VILA SAO LUI25065030DUQUE DE CAXIASRJUNIAO UMB DOS CULTOS AFRO BRAS    30041810 000003
10231987175000168817800093673    000014194                    000141940000000000000109                     I0114194     22031800000000175003410000017N120318104700000000000102203180000000000000000000000000000000000000000100001582280738NATALICIA LOPES PEREIRA                 ALAMEDA JORGINHO, 36 LOTE 11 QUADRA 24  FRAGOSO - MA29000000MAGE           RJUNIAO UMB DOS CULTOS AFRO BRAS    22031810 000004
10231987175000168817800093673    000013668                    000136680000000000000109                     I0213668     30051800000000035003410000017N200218104700000000000103005180000000000000000000000000000000000000000100002161361724ELISANGELA VIRGINIA CARVALHO A          RUA JUIZ JORGE SALOMAO, 191 CASA 18     ENGENHO NOVO20950360RIO DE JANEIRO RJUNIAO UMB DOS CULTOS AFRO BRAS    30051810 000005
10231987175000168817800093673    000013385                    000133850000000000000109                     I3413385     30051800000000035003410000017N200218104700000000000103005180000000000000000000000000000000000000000100001030634718EDILENE DE OLIVEIRA FERREIRA            RUA IPE LOTE 18 QUADRA 128              PRADO VERDE 26299279NOVA IGUACU    RJUNIAO UMB DOS CULTOS AFRO BRAS    30051810 000006
10231987175000168817800093673    000013307                    000133070000000000000109                     I0213307     30051800000000035003410000017N200218104700000000000103005180000000000000000000000000000000000000000100072461780749FATIMA GARCIA                           RODOVIA 116 KM 3,5 LT 31 QD 2 SAMBAETIBAITABORAI - R24843000RIO DE JANEIRO RJUNIAO UMB DOS CULTOS AFRO BRAS    30051810 000007
10231987175000168817800093673    000012592                    000125920000000000000109                     I0212592     30051800000000035003410000017N200218104700000000000103005180000000000000000000000000000000000000000100086901770782EVANILDE DE ARAUJO                      RUA MARQUES CANARIO, 471                CHATUBA - ME26587650RIO DE JANEIRO RJUNIAO UMB DOS CULTOS AFRO BRAS    30051810 000008
10231987175000168817800093673    000012059                    000120590000000000000109                     I0212059     30041800000000035003410000017N200218104700000000000103004180000000000000000000000000000000000000000100002161361724ELISANGELA VIRGINIA CARVALHO A          RUA JUIZ JORGE SALOMAO, 191 CASA 18     ENGENHO NOVO20950360RIO DE JANEIRO RJUNIAO UMB DOS CULTOS AFRO BRAS    30041810 000009
10231987175000168817800093673    000011776                    000117760000000000000109                     I3411776     30041800000000035003410000017N200218104700000000000103004180000000000000000000000000000000000000000100001030634718EDILENE DE OLIVEIRA FERREIRA            RUA IPE LOTE 18 QUADRA 128              PRADO VERDE 26299279NOVA IGUACU    RJUNIAO UMB DOS CULTOS AFRO BRAS    30041810 000010
10231987175000168817800093673    000011698                    000116980000000000000109                     I0211698     30041800000000035003410000017N200218104700000000000103004180000000000000000000000000000000000000000100072461780749FATIMA GARCIA                           RODOVIA 116 KM 3,5 LT 31 QD 2 SAMBAETIBAITABORAI - R24843000RIO DE JANEIRO RJUNIAO UMB DOS CULTOS AFRO BRAS    30041810 000011
10231987175000168817800093673    000010983                    000109830000000000000109                     I0210983     30041800000000035003410000017N200218104700000000000103004180000000000000000000000000000000000000000100086901770782EVANILDE DE ARAUJO                      RUA MARQUES CANARIO, 471                CHATUBA - ME26587650RIO DE JANEIRO RJUNIAO UMB DOS CULTOS AFRO BRAS    30041810 000012
10231987175000168817800093673    000010450                    000104500000000000000109                     I0210450     30031800000000035003410000017N200218104700000000000103003180000000000000000000000000000000000000000100002161361724ELISANGELA VIRGINIA CARVALHO A          RUA JUIZ JORGE SALOMAO, 191 CASA 18     ENGENHO NOVO20950360RIO DE JANEIRO RJUNIAO UMB DOS CULTOS AFRO BRAS    30031810 000013
10231987175000168817800093673    000010361                    000103610000000000000109                     I0210361     30031800000000035003410000017N200218104700000000000103003180000000000000000000000000000000000000000100001582280738NATALICIA LOPES PEREIRA                 ALAMEDA JORGINHO, 36 LOTE 11 QUADRA 24  FRAGOSO - MA29000000MAGE           RJUNIAO UMB DOS CULTOS AFRO BRAS    30031810 000014
10231987175000168817800093673    000010167                    000101670000000000000109                     I3410167     30031800000000035003410000017N200218104700000000000103003180000000000000000000000000000000000000000100001030634718EDILENE DE OLIVEIRA FERREIRA            RUA IPE LOTE 18 QUADRA 128              PRADO VERDE 26299279NOVA IGUACU    RJUNIAO UMB DOS CULTOS AFRO BRAS    30031810 000015
10231987175000168817800093673    000010089                    000100890000000000000109                     I0210089     30031800000000035003410000017N200218104700000000000103003180000000000000000000000000000000000000000100072461780749FATIMA GARCIA                           RODOVIA 116 KM 3,5 LT 31 QD 2 SAMBAETIBAITABORAI - R24843000RIO DE JANEIRO RJUNIAO UMB DOS CULTOS AFRO BRAS    30031810 000016
10231987175000168817800093673    00009967                     000099670000000000000109                     I029967      30031800000000035003410000017N200218104700000000000103003180000000000000000000000000000000000000000100002411217790WANDERLEI DA CONCEICAO LUIZ             RUA PEREIRA DA NOBREGA, 297 CASA 3      MARECHAL HER21610460RIO DE JANEIRO RJUNIAO UMB DOS CULTOS AFRO BRAS    30031810 000017
10231987175000168817800093673    00009374                     000093740000000000000109                     I029374      30031800000000035003410000017N200218104700000000000103003180000000000000000000000000000000000000000100086901770782EVANILDE DE ARAUJO                      RUA MARQUES CANARIO, 471                CHATUBA - ME26587650RIO DE JANEIRO RJUNIAO UMB DOS CULTOS AFRO BRAS    30031810 000018
10231987175000168817800093673    00008303                     000083030000000000000109                     I348303      28021800000000035003410000017N291217104700000000000102802180000000000000000000000000000000000000000100001030634718EDILENE DE OLIVEIRA FERREIRA            RUA IPE LOTE 18 QUADRA 128              PRADO VERDE 26299279NOVA IGUACU    RJUNIAO UMB DOS CULTOS AFRO BRAS    28021810 000019
10231987175000168817800093673    00007978                     000079780000000000000109                     I027978      28021800000000035003410000017N291217104700000000000102802180000000000000000000000000000000000000000100086901770782EVANILDE DE ARAUJO                      RUA MARQUES CANARIO, 471                CHATUBA - ME26587650RIO DE JANEIRO RJUNIAO UMB DOS CULTOS AFRO BRAS    28021810 000020
10231987175000168817800093673    00007001                     000070010000000000000109                     I027001      28021800000000035003410000017N271217104700000000000102802180000000000000000000000000000000000000000100001582280738NATALICIA LOPES PEREIRA                 ALAMEDA JORGINHO, 36 LOTE 11 QUADRA 24  FRAGOSO - MA29000000MAGE           RJUNIAO UMB DOS CULTOS AFRO BRAS    28021810 000021
10231987175000168817800093673    00006786                     000067860000000000000109                     I026786      28021800000000035003410000017N271217104700000000000102802180000000000000000000000000000000000000000100072461780749FATIMA GARCIA                           RODOVIA 116 KM 3,5 LT 31 QD 2 SAMBAETIBAITABORAI - R24843000RIO DE JANEIRO RJUNIAO UMB DOS CULTOS AFRO BRAS    28021810 000022
10231987175000168817800093673    00006254                     000062540000000000000109                     I346254      28021800000000035003410000017N271217104700000000000102802180000000000000000000000000000000000000000200000000007562CONCHETA PERRONI DE SOUZA BRAN          RUA JUSTINO DE SOUSA N 76 CASA 4        SAO CRISTOVA21920030RIO DE JANEIRO RJUNIAO UMB DOS CULTOS AFRO BRAS    28021810 000023
10231987175000168817800093673    00005751                     000057510000000000000109                     I025751      31011800000000035003410000017N261217104700000000000103101180000000000000000000000000000000000000000100001582280738NATALICIA LOPES PEREIRA                 ALAMEDA JORGINHO, 36 LOTE 11 QUADRA 24  FRAGOSO - MA29000000MAGE           RJUNIAO UMB DOS CULTOS AFRO BRAS    31011810 000024
10231987175000168817800093673    00005536                     000055360000000000000109                     I025536      31011800000000035003410000017N261217104700000000000103101180000000000000000000000000000000000000000100072461780749FATIMA GARCIA                           RODOVIA 116 KM 3,5 LT 31 QD 2 SAMBAETIBAITABORAI - R24843000RIO DE JANEIRO RJUNIAO UMB DOS CULTOS AFRO BRAS    31011810 000025
10231987175000168817800093673    00001142                     000011420000000000000109                     I021142      20121700000000340003410000017N241017104700000000000102012170000000000000000000000000000000000000000100086901770782EVANILDE DE ARAUJO                      RUA MARQUES CANARIO, 471                CHATUBA - ME26587650RIO DE JANEIRO RJUNIAO UMB DOS CULTOS AFRO BRAS    20121710 000026
10231987175000168817800093673    0000685                      000006850000000000000109                     I02685       20121700000000450003410000017N171017104700000000000102012170000000000000000000000000000000000000000100060235756768ALNEA DA COSTA VIMERCATI                RUA SAPOPEMBA, 115                      BENTO RIBEIR21331240RIO DE JANEIRO RJUNIAO UMB DOS CULTOS AFRO BRAS    20121710 000027
10231987175000168817800093673    0000508                      000005080000000000000109                     I02508       20121700000000340003410000017N101017104700000000000102012170000000000000000000000000000000000000000100001030634718EDILENE DE OLIVEIRA FERREIRA            RUA IPE LOTE 18 QUADRA 128              PRADO VERDE 26299279NOVA IGUACU    RJUNIAO UMB DOS CULTOS AFRO BRAS    20121710 000028
9                                                                                                                                                                                                                                                                                                                                                                                                         000029
