01REMESSA01COBRANCA       817800093673        União Umb dos Cultos Afro Bra341BANCO ITAU SA  040119                                                                                                                                                                                                                                                                                                      000001
10231987175000168817800093673    000038847                    000388470000000000000109                     I0238847     30031900000000040003410000017N261218104700000000000103003190000000000000000000000000000000000000000100013538841713WILLIAM CRUZ DE OLIVEIRA                RUA ANTONIO BENJAMIN FARIAS             PARAISO     00000000NOVA IGUACU    RJUNIAO UMB DOS CULTOS AFRO BRAS    30031910 000002
10231987175000168817800093673    000038713                    000387130000000000000109                     I0238713     30031900000000040003410000017N261218104700000000000103003190000000000000000000000000000000000000000100090556933753CELIA MARIA DA SILVA REGO               RUA PRNICIPE DA BEIRA                   DEL CASTILHO25916256RIO DE JANEIRO RJUNIAO UMB DOS CULTOS AFRO BRAS    30031910 000003
10231987175000168817800093673    000038399                    000383990000000000000109                     I0238399     30031900000000040003410000017N261218104700000000000103003190000000000000000000000000000000000000000100001848078757MARIA DA GRACA DA SILVA GASPAR          RUA CAROLINA MACHADO                    BENTO RIBEIR21550000RIO DE JANEIRO RJUNIAO UMB DOS CULTOS AFRO BRAS    30031910 000004
10231987175000168817800093673    000038161                    000381610000000000000109                     I0238161     30031900000000040003410000017N261218104700000000000103003190000000000000000000000000000000000000000100026958538749ANTONIO LUCIO ALVES                     RUA LEMOS DE BRITO                      QUINTINO    21311380RIO DE JANEIRO RJUNIAO UMB DOS CULTOS AFRO BRAS    30031910 000005
10231987175000168817800093673    000038146                    000381460000000000000109                     I0238146     30031900000000040003410000017N261218104700000000000103003190000000000000000000000000000000000000000100005189662756MARILZA FRANCA DA CRUZ                  RUA QUITO                               PENHA       21020330RIO DE JANEIRO RJUNIAO UMB DOS CULTOS AFRO BRAS    30031910 000006
10231987175000168817800093673    000036928                    000369280000000000000109                     I0236928     28021900000000040003410000017N261218104700000000000102802190000000000000000000000000000000000000000100013538841713WILLIAM CRUZ DE OLIVEIRA                RUA ANTONIO BENJAMIN FARIAS             PARAISO     00000000NOVA IGUACU    RJUNIAO UMB DOS CULTOS AFRO BRAS    28021910 000007
10231987175000168817800093673    000036795                    000367950000000000000109                     I0236795     28021900000000040003410000017N261218104700000000000102802190000000000000000000000000000000000000000100090556933753CELIA MARIA DA SILVA REGO               RUA PRNICIPE DA BEIRA                   DEL CASTILHO25916256RIO DE JANEIRO RJUNIAO UMB DOS CULTOS AFRO BRAS    28021910 000008
10231987175000168817800093673    000036482                    000364820000000000000109                     I0236482     28021900000000040003410000017N261218104700000000000102802190000000000000000000000000000000000000000100001848078757MARIA DA GRACA DA SILVA GASPAR          RUA CAROLINA MACHADO                    BENTO RIBEIR21550000RIO DE JANEIRO RJUNIAO UMB DOS CULTOS AFRO BRAS    28021910 000009
10231987175000168817800093673    000036245                    000362450000000000000109                     I0236245     28021900000000040003410000017N261218104700000000000102802190000000000000000000000000000000000000000100026958538749ANTONIO LUCIO ALVES                     RUA LEMOS DE BRITO                      QUINTINO    21311380RIO DE JANEIRO RJUNIAO UMB DOS CULTOS AFRO BRAS    28021910 000010
10231987175000168817800093673    000036230                    000362300000000000000109                     I0236230     28021900000000040003410000017N261218104700000000000102802190000000000000000000000000000000000000000100005189662756MARILZA FRANCA DA CRUZ                  RUA QUITO                               PENHA       21020330RIO DE JANEIRO RJUNIAO UMB DOS CULTOS AFRO BRAS    28021910 000011
10231987175000168817800093673    000035018                    000350180000000000000109                     I0235018     31011900000000040003410000017N261218104700000000000103101190000000000000000000000000000000000000000100013538841713WILLIAM CRUZ DE OLIVEIRA                RUA ANTONIO BENJAMIN FARIAS             PARAISO     00000000NOVA IGUACU    RJUNIAO UMB DOS CULTOS AFRO BRAS    31011910 000012
10231987175000168817800093673    000034885                    000348850000000000000109                     I0234885     31011900000000040003410000017N261218104700000000000103101190000000000000000000000000000000000000000100090556933753CELIA MARIA DA SILVA REGO               RUA PRNICIPE DA BEIRA                   DEL CASTILHO25916256RIO DE JANEIRO RJUNIAO UMB DOS CULTOS AFRO BRAS    31011910 000013
10231987175000168817800093673    000034573                    000345730000000000000109                     I0234573     31011900000000040003410000017N261218104700000000000103101190000000000000000000000000000000000000000100001848078757MARIA DA GRACA DA SILVA GASPAR          RUA CAROLINA MACHADO                    BENTO RIBEIR21550000RIO DE JANEIRO RJUNIAO UMB DOS CULTOS AFRO BRAS    31011910 000014
10231987175000168817800093673    000034337                    000343370000000000000109                     I0234337     31011900000000040003410000017N261218104700000000000103101190000000000000000000000000000000000000000100026958538749ANTONIO LUCIO ALVES                     RUA LEMOS DE BRITO                      QUINTINO    21311380RIO DE JANEIRO RJUNIAO UMB DOS CULTOS AFRO BRAS    31011910 000015
10231987175000168817800093673    000034322                    000343220000000000000109                     I0234322     31011900000000040003410000017N261218104700000000000103101190000000000000000000000000000000000000000100005189662756MARILZA FRANCA DA CRUZ                  RUA QUITO                               PENHA       21020330RIO DE JANEIRO RJUNIAO UMB DOS CULTOS AFRO BRAS    31011910 000016
10231987175000168817800093673    000034049                    000340490000000000000109                     I0234049     31011900000000040003410000017N261218104700000000000103101190000000000000000000000000000000000000000100002065913738ROBSON DE FARIA TORRES                  RUA CAPITAO AROLDO LEITAO               OLARIA      21071050RIO DE JANEIRO RJUNIAO UMB DOS CULTOS AFRO BRAS    31011910 000017
10231987175000168817800093673    000032596                    000325960000000000000109                     I0232596     20121800000000350003410000017N291018104700000000000102012180000000000000000000000000000000000000000100013538841713WILLIAM CRUZ DE OLIVEIRA                RUA ANTONIO BENJAMIN FARIAS             PARAISO     00000000NOVA IGUACU    RJUNIAO UMB DOS CULTOS AFRO BRAS    20121810 000018
10231987175000168817800093673    000031589                    000315890000000000000109                     I0231589     20121800000000350003410000017N291018104700000000000102012180000000000000000000000000000000000000000100026958538749ANTONIO LUCIO ALVES                     RUA LEMOS DE BRITO                      QUINTINO    21311380RIO DE JANEIRO RJUNIAO UMB DOS CULTOS AFRO BRAS    20121810 000019
10231987175000168817800093673    000031564                    000315640000000000000109                     I0231564     20121800000000350003410000017N291018104700000000000102012180000000000000000000000000000000000000000100005189662756MARILZA FRANCA DA CRUZ                  RUA QUITO                               PENHA       21020330RIO DE JANEIRO RJUNIAO UMB DOS CULTOS AFRO BRAS    20121810 000020
10231987175000168817800093673    000031469                    000314690000000000000109                     I0231469     20121800000000350003410000017N291018104700000000000102012180000000000000000000000000000000000000000100008016237746RAFAEL GRACA PEREIRA                    ESTRADA DA COVANCA                      TANQUE - JAC22735020RIO DE JANEIRO RJUNIAO UMB DOS CULTOS AFRO BRAS    20121810 000021
10231987175000168817800093673    000031385                    000313850000000000000109                     I0231385     20121800000000420003410000017N291018104700000000000102012180000000000000000000000000000000000000000100090853784787MARIA LUCIA PEREIRA DA SILVA            RUA CORACAO DE MARIA                    MEIER       20775050RIO DE JANEIRO RJUNIAO UMB DOS CULTOS AFRO BRAS    20121810 000022
10231987175000168817800093673    000030509                    000305090000000000000109                     I0230509     20121800000000350003410000017N291018104700000000000102012180000000000000000000000000000000000000000100081473885787CELIA DA SILVA ALEXANDRE                AVENIDA MARECHAL FONTENELE              LOTEAMENTO V21750000RIO DE JANEIRO RJUNIAO UMB DOS CULTOS AFRO BRAS    20121810 000023
10231987175000168817800093673    000030285                    000302850000000000000109                     I0230285     20121800000000035003410000017N291018104700000000000102012180000000000000000000000000000000000000000100003526002762HELOISA HELENA DE OLIVEIRA DA           RUA DOUTOR MUNIZ                        CENTRO      26130020BELFORD ROXO   RJUNIAO UMB DOS CULTOS AFRO BRAS    20121810 000024
10231987175000168817800093673    000030067                    000300670000000000000109                     I0230067     20121800000000035003410000017N291018104700000000000102012180000000000000000000000000000000000000000100005474832796VANESSA MANTUANO FERNANDES              RUA DOM JOAO VI                         JARDIM NOSSA23097722RIO DE JANEIRO RJUNIAO UMB DOS CULTOS AFRO BRAS    20121810 000025
10231987175000168817800093673    000029927                    000299270000000000000109                     I0229927     20121800000000035003410000017N291018104700000000000102012180000000000000000000000000000000000000000100005529010750JOELMA MELO DA SILVA                    RUA DIONIZIO RIBEIRO CHAVES             ANAIA - SANT24737660SAO GONCALO    RJUNIAO UMB DOS CULTOS AFRO BRAS    20121810 000026
10231987175000168817800093673    000029429                    000294290000000000000109                     I0229429     20121800000000035003410000017N291018104700000000000102012180000000000000000000000000000000000000000100008016237746RAFAEL GRACA PEREIRA                    ESTRADA DA COVANCA                      TANQUE - JAC22735020RIO DE JANEIRO RJUNIAO UMB DOS CULTOS AFRO BRAS    20121810 000027
10231987175000168817800093673    000029290                    000292900000000000000109                     I0229290     20121800000000035003410000017N291018104700000000000102012180000000000000000000000000000000000000000100002065913738ROBSON DE FARIA TORRES                  RUA CAPITAO AROLDO LEITAO               OLARIA      21071050RIO DE JANEIRO RJUNIAO UMB DOS CULTOS AFRO BRAS    20121810 000028
10231987175000168817800093673    000029285                    000292850000000000000109                     I0229285     20121800000000035003410000017N291018104700000000000102012180000000000000000000000000000000000000000100003341744738CASSIA GOMES CASTORINO                  RUA COMENDADOR CRISOSTEMO CRUZ          SANTA MARIA 26165400BELFORD ROXO   RJUNIAO UMB DOS CULTOS AFRO BRAS    20121810 000029
10231987175000168817800093673    000029169                    000291690000000000000109                     I0229169     20121800000000035003410000017N291018104700000000000102012180000000000000000000000000000000000000000100043397140706VERA LUCIA FERREIRA DA SILVA            RUA ALICE                               COMENDADOR S26262030NOVA IGUACU    RJUNIAO UMB DOS CULTOS AFRO BRAS    20121810 000030
10231987175000168817800093673    000029141                    000291410000000000000109                     I0229141     20121800000000035003410000017N291018104700000000000102012180000000000000000000000000000000000000000100044188269715SEBASTIANA SOUZA SANTOS                 RUA: ARI BARROSO                        JARDIM LUCIA26050410NOVA IGUACU    RJUNIAO UMB DOS CULTOS AFRO BRAS    20121810 000031
10231987175000168817800093673    000029113                    000291130000000000000109                     I0229113     20121800000000040003410000017N291018104700000000000102012180000000000000000000000000000000000000000100081994699787MARCIA HELENA CORREIA DE LIMA           RUA FRANCISCO ALENCAR                   SEPETIBA    23530540RIO DE JANEIRO RJUNIAO UMB DOS CULTOS AFRO BRAS    20121810 000032
10231987175000168817800093673    000027504                    000275040000000000000109                     I0227504     30111800000000035003410000017N200818104700000000000103011180000000000000000000000000000000000000000100008016237746RAFAEL GRACA PEREIRA                    ESTRADA DA COVANCA                      TANQUE - JAC22735020RIO DE JANEIRO RJUNIAO UMB DOS CULTOS AFRO BRAS    30111810 000033
10231987175000168817800093673    000027358                    000273580000000000000109                     I0227358     30111800000000035003410000017N200818104700000000000103011180000000000000000000000000000000000000000100003341744738CASSIA GOMES CASTORINO                  RUA COMENDADOR CRISOSTEMO CRUZ          SANTA MARIA 26165400BELFORD ROXO   RJUNIAO UMB DOS CULTOS AFRO BRAS    30111810 000034
10231987175000168817800093673    000027203                    000272030000000000000109                     I0227203     30111800000000035003410000017N200818104700000000000103011180000000000000000000000000000000000000000100044188269715SEBASTIANA SOUZA SANTOS                 RUA: ARI BARROSO                        JARDIM LUCIA26050410NOVA IGUACU    RJUNIAO UMB DOS CULTOS AFRO BRAS    30111810 000035
9                                                                                                                                                                                                                                                                                                                                                                                                         000036
