01REMESSA01COBRANCA       916200163100        União Umb dos Cultos Afro Bra341BANCO ITAU SA  110418                                                                                                                                                                                                                                                                                                      000001
9                                                                                                                                                                                                                                                                                                                                                                                                         000002
