01REMESSA01COBRANCA       817800093673        União Umb dos Cultos Afro Bra341BANCO ITAU SA  010219                                                                                                                                                                                                                                                                                                      000001
10231987175000168817800093673    000039613                    000396130000000000000109                     I0239613     31011900000000040003410000017N180119104700000000000103101190000000000000000000000000000000000000000100079448712715ADELINA GONCALVES                       AVENIDA JOAQUIM CAMARA FERREIRA         VILA KENEDY 21850180RIO DE JANEIRO RJUNIAO UMB DOS CULTOS AFRO BRAS    31011910 000002
10231987175000168817800093673    000037690                    000376900000000000000109                     I0237690     30031900000000040003410000017N261218104700000000000103003190000000000000000000000000000000000000000100001568681720MARCO ANTONIO DA COSTA                  RUA LOIR NOGUEIRA                       RIO DO OURO 24752840SAO GONCALO    RJUNIAO UMB DOS CULTOS AFRO BRAS    30031910 000003
10231987175000168817800093673    000037683                    000376830000000000000109                     I0237683     30031900000000040003410000017N261218104700000000000103003190000000000000000000000000000000000000000100054222141704WALMIR CARVALHO GUIMARAES               RUA BOA VIAGEM                          IPIRANGA    26293591NOVA IGUACU    RJUNIAO UMB DOS CULTOS AFRO BRAS    30031910 000004
10231987175000168817800093673    000037557                    000375570000000000000109                     I0237557     30031900000000040003410000017N261218104700000000000103003190000000000000000000000000000000000000000100076696286772JOSE CALASANS SILVA FILHO               RUA DAS AMETISTAS                       ROCHA MIRAND21510020RIO DE JANEIRO RJUNIAO UMB DOS CULTOS AFRO BRAS    30031910 000005
10231987175000168817800093673    000037510                    000375100000000000000109                     I0237510     30031900000000040003410000017N261218104700000000000103003190000000000000000000000000000000000000000100005541292727CAROLINA DA SILVA CARDOSO               RUA MONODORA                            GARDENIA AZU22765590RIO DE JANEIRO RJUNIAO UMB DOS CULTOS AFRO BRAS    30031910 000006
10231987175000168817800093673    000035777                    000357770000000000000109                     I0235777     28021900000000040003410000017N261218104700000000000102802190000000000000000000000000000000000000000100001568681720MARCO ANTONIO DA COSTA                  RUA LOIR NOGUEIRA                       RIO DO OURO 24752840SAO GONCALO    RJUNIAO UMB DOS CULTOS AFRO BRAS    28021910 000007
10231987175000168817800093673    000035770                    000357700000000000000109                     I0235770     28021900000000040003410000017N261218104700000000000102802190000000000000000000000000000000000000000100054222141704WALMIR CARVALHO GUIMARAES               RUA BOA VIAGEM                          IPIRANGA    26293591NOVA IGUACU    RJUNIAO UMB DOS CULTOS AFRO BRAS    28021910 000008
10231987175000168817800093673    000035645                    000356450000000000000109                     I0235645     28021900000000040003410000017N261218104700000000000102802190000000000000000000000000000000000000000100076696286772JOSE CALASANS SILVA FILHO               RUA DAS AMETISTAS                       ROCHA MIRAND21510020RIO DE JANEIRO RJUNIAO UMB DOS CULTOS AFRO BRAS    28021910 000009
10231987175000168817800093673    000035598                    000355980000000000000109                     I0235598     28021900000000040003410000017N261218104700000000000102802190000000000000000000000000000000000000000100005541292727CAROLINA DA SILVA CARDOSO               RUA MONODORA                            GARDENIA AZU22765590RIO DE JANEIRO RJUNIAO UMB DOS CULTOS AFRO BRAS    28021910 000010
10231987175000168817800093673    000035459                    000354590000000000000109                     I0235459     31011900000000040003410000017N261218104700000000000103101190000000000000000000000000000000000000000100003134182769SANDRA HELENA DA SILVA                  RUA MARIA MACHADO PANZA                 PACHECO     24732200SAO GONCALO    RJUNIAO UMB DOS CULTOS AFRO BRAS    31011910 000011
10231987175000168817800093673    000034431                    000344310000000000000109                     I0234431     31011900000000040003410000017N261218104700000000000103101190000000000000000000000000000000000000000100049214276749MARIA CELESTE HORACIO REIS              RUA QUARENTA E CINCO                    CAMPO LINDO 23890000NOVA IGUACU    RJUNIAO UMB DOS CULTOS AFRO BRAS    31011910 000012
10231987175000168817800093673    000034349                    000343490000000000000109                     I0234349     31011900000000040003410000017N261218104700000000000103101190000000000000000000000000000000000000000100000907631738IDA ANGELICA PEREIRA CALDAS             RUA SILVEIRA LOBO                       CACHAMBI    20780310RIO DE JANEIRO RJUNIAO UMB DOS CULTOS AFRO BRAS    31011910 000013
10231987175000168817800093673    000034010                    000340100000000000000109                     I0234010     31011900000000040003410000017N261218104700000000000103101190000000000000000000000000000000000000000100032996659600FERNANDO JUSTINO PALMEIRA               ESTRADA DE JACONE                       SAMPAIO CORR28990000SAQUAREMA      RJUNIAO UMB DOS CULTOS AFRO BRAS    31011910 000014
10231987175000168817800093673    000033875                    000338750000000000000109                     I0233875     31011900000000040003410000017N261218104700000000000103101190000000000000000000000000000000000000000100001568681720MARCO ANTONIO DA COSTA                  RUA LOIR NOGUEIRA                       RIO DO OURO 24752840SAO GONCALO    RJUNIAO UMB DOS CULTOS AFRO BRAS    31011910 000015
10231987175000168817800093673    000033868                    000338680000000000000109                     I0233868     31011900000000040003410000017N261218104700000000000103101190000000000000000000000000000000000000000100054222141704WALMIR CARVALHO GUIMARAES               RUA BOA VIAGEM                          IPIRANGA    26293591NOVA IGUACU    RJUNIAO UMB DOS CULTOS AFRO BRAS    31011910 000016
10231987175000168817800093673    000033744                    000337440000000000000109                     I0233744     31011900000000040003410000017N261218104700000000000103101190000000000000000000000000000000000000000100076696286772JOSE CALASANS SILVA FILHO               RUA DAS AMETISTAS                       ROCHA MIRAND21510020RIO DE JANEIRO RJUNIAO UMB DOS CULTOS AFRO BRAS    31011910 000017
10231987175000168817800093673    000033698                    000336980000000000000109                     I0233698     31011900000000040003410000017N261218104700000000000103101190000000000000000000000000000000000000000100005541292727CAROLINA DA SILVA CARDOSO               RUA MONODORA                            GARDENIA AZU22765590RIO DE JANEIRO RJUNIAO UMB DOS CULTOS AFRO BRAS    31011910 000018
10231987175000168817800093673    000033255                    000332550000000000000109                     I0233255     20121800000000380003410000017N291018104700000000000102012180000000000000000000000000000000000000000100003134182769SANDRA HELENA DA SILVA                  RUA MARIA MACHADO PANZA                 PACHECO     24732200SAO GONCALO    RJUNIAO UMB DOS CULTOS AFRO BRAS    20121810 000019
10231987175000168817800093673    000032705                    000327050000000000000109                     I0232705     20121800000000350003410000017N291018104700000000000102012180000000000000000000000000000000000000000100010880272708FERNANDA DOS SANTOS PEREIRA             RUA LINS DE VASCONCELOS                 LINS DE VASC20710130RIO DE JANEIRO RJUNIAO UMB DOS CULTOS AFRO BRAS    20121810 000020
10231987175000168817800093673    000032009                    000320090000000000000109                     I0232009     20121800000000350003410000017N291018104700000000000102012180000000000000000000000000000000000000000100079448712715ADELINA GONCALVES                       AVENIDA JOAQUIM CAMARA FERREIRA         VILA KENEDY 21850180RIO DE JANEIRO RJUNIAO UMB DOS CULTOS AFRO BRAS    20121810 000021
10231987175000168817800093673    000031720                    000317200000000000000109                     I0231720     20121800000000350003410000017N291018104700000000000102012180000000000000000000000000000000000000000100049214276749MARIA CELESTE HORACIO REIS              RUA QUARENTA E CINCO                    CAMPO LINDO 23890000NOVA IGUACU    RJUNIAO UMB DOS CULTOS AFRO BRAS    20121810 000022
10231987175000168817800093673    000031032                    000310320000000000000109                     I0231032     20121800000000350003410000017N291018104700000000000102012180000000000000000000000000000000000000000100032996659600FERNANDO JUSTINO PALMEIRA               ESTRADA DE JACONE                       SAMPAIO CORR28990000SAQUAREMA      RJUNIAO UMB DOS CULTOS AFRO BRAS    20121810 000023
10231987175000168817800093673    000030804                    000308040000000000000109                     I0230804     20121800000000350003410000017N291018104700000000000102012180000000000000000000000000000000000000000100001568681720MARCO ANTONIO DA COSTA                  RUA LOIR NOGUEIRA                       RIO DO OURO 24752840SAO GONCALO    RJUNIAO UMB DOS CULTOS AFRO BRAS    20121810 000024
10231987175000168817800093673    000030796                    000307960000000000000109                     I0230796     20121800000000350003410000017N291018104700000000000102012180000000000000000000000000000000000000000100054222141704WALMIR CARVALHO GUIMARAES               RUA BOA VIAGEM                          IPIRANGA    26293591NOVA IGUACU    RJUNIAO UMB DOS CULTOS AFRO BRAS    20121810 000025
10231987175000168817800093673    000030491                    000304910000000000000109                     I0230491     20121800000000350003410000017N291018104700000000000102012180000000000000000000000000000000000000000100005541292727CAROLINA DA SILVA CARDOSO               RUA MONODORA                            GARDENIA AZU22765590RIO DE JANEIRO RJUNIAO UMB DOS CULTOS AFRO BRAS    20121810 000026
10231987175000168817800093673    000030008                    000300080000000000000109                     I0230008     20121800000000035003410000017N291018104700000000000102012180000000000000000000000000000000000000000100010880272708FERNANDA DOS SANTOS PEREIRA             RUA LINS DE VASCONCELOS                 LINS DE VASC20710130RIO DE JANEIRO RJUNIAO UMB DOS CULTOS AFRO BRAS    20121810 000027
10231987175000168817800093673    000029538                    000295380000000000000109                     I0229538     20121800000000035003410000017N291018104700000000000102012180000000000000000000000000000000000000000100049214276749MARIA CELESTE HORACIO REIS              RUA QUARENTA E CINCO                    CAMPO LINDO 23890000NOVA IGUACU    RJUNIAO UMB DOS CULTOS AFRO BRAS    20121810 000028
9                                                                                                                                                                                                                                                                                                                                                                                                         000029
