01REMESSA01COBRANCA       916200163100        União Umb dos Cultos Afro Bra341BANCO ITAU SA  050819                                                                                                                                                                                                                                                                                                      000001
10231987175000168916200163100    000053995                    000539950000000000000109                     I0153995     30091900000000040003410000017N050819105700000000000133009190000000000000000000000000000000000000000100008528931757LUCIMARA DA CONCEICAO CORTES            RUA: PROFESSOR CHARLEY LACHMUNDN 360, FUGUARATIBA   23032570RIO DE JANEIRO RJUNIAO UMB DOS CULTOS AFRO BRAS    30091915 000002
21300920190000000000080                                                                                                                                                                                                                                                                                                                                                                                   000003
10231987175000168916200163100    000053994                    000539940000000000000109                     I0153994     30091900000000040003410000017N050819105700000000000133009190000000000000000000000000000000000000000100075741660720JOSE ENEDINO DA COSTA                   ESTRADA DA PEDRAN 4977,                 GUARATIBA   23030380RIO DE JANEIRO RJUNIAO UMB DOS CULTOS AFRO BRAS    30091915 000004
21300920190000000000080                                                                                                                                                                                                                                                                                                                                                                                   000005
10231987175000168916200163100    000053993                    000539930000000000000109                     I0153993     30081900000000040003410000017N050819105700000000000133008190000000000000000000000000000000000000000100075741660720JOSE ENEDINO DA COSTA                   ESTRADA DA PEDRAN 4977,                 GUARATIBA   23030380RIO DE JANEIRO RJUNIAO UMB DOS CULTOS AFRO BRAS    30081915 000006
21300820190000000000080                                                                                                                                                                                                                                                                                                                                                                                   000007
10231987175000168916200163100    000053992                    000539920000000000000109                     I0153992     02091900000000700003410000017N050819105700000000002310209190000000000000000000000000000000000000000100009844142741ANA CLAUDIA BRITO DA SILVA              RUA JOAO BRUNON 210,                    FIGUEIRA    25901613MAGE           RJUNIAO UMB DOS CULTOS AFRO BRAS    02091915 000008
21020920190000000001400                                                                                                                                                                                                                                                                                                                                                                                   000009
10231987175000168916200163100    000053991                    000539910000000000000109                     I0153991     30091900000000040003410000017N050819105700000000000133009190000000000000000000000000000000000000000100095589473772JOANE ZAGALIA DA CUNHA                  RUA JABIRIN 365,                        MARECHAL HER21557300RIO DE JANEIRO RJUNIAO UMB DOS CULTOS AFRO BRAS    30091915 000010
21300920190000000000080                                                                                                                                                                                                                                                                                                                                                                                   000011
10231987175000168916200163100    000053990                    000539900000000000000109                     I3453990     30091900000000040003410000017N050819105700000000000133009190000000000000000000000000000000000000000100088193160720VALMIR DE OLIVEIRA GOMES                ESTRADA PORTO NACIONALN 257, FUNDOS     BANGU       21870380RIO DE JANEIRO RJUNIAO UMB DOS CULTOS AFRO BRAS    30091915 000012
21300920190000000000080                                                                                                                                                                                                                                                                                                                                                                                   000013
10231987175000168916200163100    000053989                    000539890000000000000109                     I0153989     20081900000000160003410000017N050819105700000000000532008190000000000000000000000000000000000000000100009839961721MARIO DE OLIVEIRA CARLOS                RUA BRAUNAN 0,  LOTE 7 QUADRA 3         JARDIM PRIMA25000000DUQUE DE CAXIASRJUNIAO UMB DOS CULTOS AFRO BRAS    20081915 000014
21200820190000000000320                                                                                                                                                                                                                                                                                                                                                                                   000015
10231987175000168916200163100    000053988                    000539880000000000000109                     I0153988     30091900000000040003410000017N050819105700000000000133009190000000000000000000000000000000000000000100060442069715NEIDE MARIA DA CONCEICAO BOAVE          RUA SOLDADO VALDEMAR DE ALMEIDAN 28,    CAMPO GRANDE23042100RIO DE JANEIRO RJUNIAO UMB DOS CULTOS AFRO BRAS    30091915 000016
21300920190000000000080                                                                                                                                                                                                                                                                                                                                                                                   000017
10231987175000168916200163100    000053987                    000539870000000000000109                     I0153987     30081900000000040003410000017N050819105700000000000133008190000000000000000000000000000000000000000100060442069715NEIDE MARIA DA CONCEICAO BOAVE          RUA SOLDADO VALDEMAR DE ALMEIDAN 28,    CAMPO GRANDE23042100RIO DE JANEIRO RJUNIAO UMB DOS CULTOS AFRO BRAS    30081915 000018
21300820190000000000080                                                                                                                                                                                                                                                                                                                                                                                   000019
10231987175000168916200163100    000049930                    000499300000000000000109                     I0249930     30091900000000040003410000017N170719105700000000000133009190000000000000000000000000000000000000000100094953309715ESTER SOUZA SOARES                      RUA TREZEN 88,                          JARDIM ITATI27580000ITATIAIA       RJUNIAO UMB DOS CULTOS AFRO BRAS    30091915 000020
21300920190000000000080                                                                                                                                                                                                                                                                                                                                                                                   000021
10231987175000168916200163100    000049929                    000499290000000000000109                     I0249929     30081900000000040003410000017N170719105700000000000133008190000000000000000000000000000000000000000100094953309715ESTER SOUZA SOARES                      RUA TREZEN 88,                          JARDIM ITATI27580000ITATIAIA       RJUNIAO UMB DOS CULTOS AFRO BRAS    30081915 000022
21300820190000000000080                                                                                                                                                                                                                                                                                                                                                                                   000023
9                                                                                                                                                                                                                                                                                                                                                                                                         000024
