01REMESSA01COBRANCA       916200163100        União Umb dos Cultos Afro Bra341BANCO ITAU SA  041018                                                                                                                                                                                                                                                                                                      000001
10231987175000168916200163100    000028640                    000286400000000000000109                     I0228640     10091800000000070003410000017N310818104700000000000101009180000000000000000000000000000000000000000100003601608758NILDA MAURA RODRIGUES DE JESUS          RUA ARI VILAR                           COSTA BARROS21520860RIO DE JANEIRO RJUNIAO UMB DOS CULTOS AFRO BRAS    10091810 000002
10231987175000168916200163100    000021323                    000213230000000000000109                     I0221323     20081800000000350003410000017N260718104700000000000102008180000000000000000000000000000000000000000100086094750772IARA MUNIZ DA SILVA BORGES              RUA FLAMBOYANT                          VARGEM PEQUE22783117RIO DE JANEIRO RJUNIAO UMB DOS CULTOS AFRO BRAS    20081810 000003
10231987175000168916200163100    000021256                    000212560000000000000109                     I0221256     15081800000000350003410000017N030718104700000000000101508180000000000000000000000000000000000000000100065196171720MARIA DAS GRACAS OLIVEIRA               RUA FRANCISCO MANOEL,                   PONTO CHIQUE26032835NOVA IGUACU    RJUNIAO UMB DOS CULTOS AFRO BRAS    15081810 000004
10231987175000168916200163100    000020427                    000204270000000000000109                     I0220427     30081800000000035003410000017N070518104700000000000103008180000000000000000000000000000000000000000100010503933767THIAGO MARQUES DE CARVALHO              TRAVESSA DA SERVIDAO                    CAMPO GRANDE23017405RIO DE JANEIRO RJUNIAO UMB DOS CULTOS AFRO BRAS    30081810 000005
10231987175000168916200163100    000020138                    000201380000000000000109                     I3420138     30081800000000035003410000017N070518104700000000000103008180000000000000000000000000000000000000000100091156386772MARILENE PEREIRA DOS SANTOS CO          ESTRADA DO PORTELA                      TURIACU     21351050RIO DE JANEIRO RJUNIAO UMB DOS CULTOS AFRO BRAS    30081810 000006
10231987175000168916200163100    000020095                    000200950000000000000109                     I0220095     30081800000000035003410000017N070518104700000000000103008180000000000000000000000000000000000000000100083469559791ALEXANDRE DA SILVA SOUZA                RUA AFONSO RIBEIRO                      PENHA       21031700RIO DE JANEIRO RJUNIAO UMB DOS CULTOS AFRO BRAS    30081810 000007
10231987175000168916200163100    000020089                    000200890000000000000109                     I0220089     30081800000000035003410000017N070518104700000000000103008180000000000000000000000000000000000000000100059841672715MONICA TARDELLE                         RUA: EUBANQUE                           ENGENHO DA R20766600RIO DE JANEIRO RJUNIAO UMB DOS CULTOS AFRO BRAS    30081810 000008
10231987175000168916200163100    000019989                    000199890000000000000109                     I0219989     30081800000000035003410000017N070518104700000000000103008180000000000000000000000000000000000000000100011297806786THIAGO PEREIRA DE BRITO                 RUA DAS FLORES                          PENEDO      24800000NITEROI        RJUNIAO UMB DOS CULTOS AFRO BRAS    30081810 000009
10231987175000168916200163100    000019914                    000199140000000000000109                     I0219914     30081800000000035003410000017N070518104700000000000103008180000000000000000000000000000000000000000100003351716729WAGNER CONCEICAO DO NASCIMENTO          RUA CRISANTEMOS, 152 CASA 48 FRENTE - SAHITERLAND - 26171430BELFORD ROXO   RJUNIAO UMB DOS CULTOS AFRO BRAS    30081810 000010
10231987175000168916200163100    000019837                    000198370000000000000109                     I3419837     30081800000000035003410000017N070518104700000000000103008180000000000000000000000000000000000000000100095949925734RITA DE CASSIA COCCARO                  RUA JUCARI N 563                        IRAJA - RIO 21371320RIO DE JANEIRO RJUNIAO UMB DOS CULTOS AFRO BRAS    30081810 000011
10231987175000168916200163100    000019835                    000198350000000000000109                     I0219835     30081800000000035003410000017N070518104700000000000103008180000000000000000000000000000000000000000100000308305752MAGDA DA SILVA DINELLY                  ESTRADA DO CASOROTIBA, RUA G N 768 (CONDINOA        24900000RIO DE JANEIRO RJUNIAO UMB DOS CULTOS AFRO BRAS    30081810 000012
10231987175000168916200163100    000019392                    000193920000000000000109                     I0219392     30081800000000035003410000017N070518104700000000000103008180000000000000000000000000000000000000000100002734506700CARLOS HENRIQUE ARAUJO                  RUA: MARQUES CANARIO                    NOSSA SENHOR26520770NILOPOLIS      RJUNIAO UMB DOS CULTOS AFRO BRAS    30081810 000013
9                                                                                                                                                                                                                                                                                                                                                                                                         000014
