01REMESSA01COBRANCA       817800093673        União Umb dos Cultos Afro Bra341BANCO ITAU SA  291018                                                                                                                                                                                                                                                                                                      000001
10231987175000168817800093673    000029321                    000293210000000000000109                     I0129321     20121800000000035003410000017N291018104700000000000102012180000000000000000000000000000000000000000100010078178797ALINE CORREA SOUZA                      AVENIDA PILAR DO SUL                    GUARATIBA   23033160RIO DE JANEIRO RJUNIAO UMB DOS CULTOS AFRO BRAS    20121810 000002
10231987175000168817800093673    000029320                    000293200000000000000109                     I0129320     20121800000000035003410000017N291018104700000000000102012180000000000000000000000000000000000000000100092650716720ANDRE LUIS ALMEIDA SOUZA                RUA CAIMIRIM                            SANTA TEREZI26555050BELFORD ROXO   RJUNIAO UMB DOS CULTOS AFRO BRAS    20121810 000003
10231987175000168817800093673    000029319                    000293190000000000000109                     I0129319     20121800000000035003410000017N291018104700000000000102012180000000000000000000000000000000000000000100044108680715MARIA DA PENHA PEREIRA DOS SAN          RUA LUCIO TAVARES                       CENTRO      26530060NILOPOLIS      RJUNIAO UMB DOS CULTOS AFRO BRAS    20121810 000004
10231987175000168817800093673    000029318                    000293180000000000000109                     I0129318     20121800000000035003410000017N291018104700000000000102012180000000000000000000000000000000000000000100010084300728RODRIGO ALVES DE PINHO                  RUA JOVITA FEITOSA                      VILA SAO JUD25243570DUQUE DE CAXIASRJUNIAO UMB DOS CULTOS AFRO BRAS    20121810 000005
10231987175000168817800093673    000029317                    000293170000000000000109                     I0129317     20121800000000035003410000017N291018104700000000000102012180000000000000000000000000000000000000000100060052830730PAULO CESAR BARRETO ALVES               RUA ANGELO DOS REIS                     TIJUCA      20531010RIO DE JANEIRO RJUNIAO UMB DOS CULTOS AFRO BRAS    20121810 000006
10231987175000168817800093673    000029316                    000293160000000000000109                     I0129316     20121800000000035003410000017N291018104700000000000102012180000000000000000000000000000000000000000100000615134742CONCEICAO DE SOUZA CAPITANO             RUA MECA                                SAO BENEDITO26022540NOVA IGUACU    RJUNIAO UMB DOS CULTOS AFRO BRAS    20121810 000007
10231987175000168817800093673    000029315                    000293150000000000000109                     I0129315     20121800000000035003410000017N291018104700000000000102012180000000000000000000000000000000000000000100000000000000DENIRCE SOUZA ANDRE                     AVENIDA PASTOR MARTIN LUTHER KING JUNIORTOMAS COELHO20761121RIO DE JANEIRO RJUNIAO UMB DOS CULTOS AFRO BRAS    20121810 000008
10231987175000168817800093673    000029314                    000293140000000000000109                     I0129314     20121800000000035003410000017N291018104700000000000102012180000000000000000000000000000000000000000100002344767703ROSINETE FERREIRA CAMARGO               RUA ARAGO                               JACAREPAGUA 22733130RIO DE JANEIRO RJUNIAO UMB DOS CULTOS AFRO BRAS    20121810 000009
10231987175000168817800093673    000029313                    000293130000000000000109                     I0129313     20121800000000035003410000017N291018104700000000000102012180000000000000000000000000000000000000000100079192653715TERESINHA DE JESUS DOS SANTOS           AVENIDA SYLVIO MOUTINHO                 GUARATIBA   23028180RIO DE JANEIRO RJUNIAO UMB DOS CULTOS AFRO BRAS    20121810 000010
10231987175000168817800093673    000029312                    000293120000000000000109                     I0129312     20121800000000035003410000017N291018104700000000000102012180000000000000000000000000000000000000000100022175534880LUCIANO THOMAZ DE ROSA                  RUA FRANCISCO JOSE DA SILVA             SUZANO - JAR08695060SAO PAULO      SPUNIAO UMB DOS CULTOS AFRO BRAS    20121810 000011
10231987175000168817800093673    000029311                    000293110000000000000109                     I0129311     20121800000000035003410000017N291018104700000000000102012180000000000000000000000000000000000000000100033413525700ALBERICE SILVA OLIVEIRA                 RUA DIAS DA CRUZ                        MEIER       20720012RIO DE JANEIRO RJUNIAO UMB DOS CULTOS AFRO BRAS    20121810 000012
10231987175000168817800093673    000029310                    000293100000000000000109                     I0129310     20121800000000035003410000017N291018104700000000000102012180000000000000000000000000000000000000000100044608268791FAUSTO DOS SANTOS REZENDE               RUA CARUNA                              PARADA DE LU21010070RIO DE JANEIRO RJUNIAO UMB DOS CULTOS AFRO BRAS    20121810 000013
10231987175000168817800093673    000029309                    000293090000000000000109                     I0129309     20121800000000035003410000017N291018104700000000000102012180000000000000000000000000000000000000000100000000000334HELENA MARIA DA SILVA                   RUA VINTE E QUATRO DE OUTUBRO           BARRO BRANCO25267450DUQUE DE CAXIASRJUNIAO UMB DOS CULTOS AFRO BRAS    20121810 000014
10231987175000168817800093673    000029308                    000293080000000000000109                     I0129308     20121800000000040003410000017N291018104700000000000102012180000000000000000000000000000000000000000100088676889791JANE LUCIA LESSA SILVA                  RUA OLIVEIRA JUNQUEIRA                  BENTO RIBEIR21331170RIO DE JANEIRO RJUNIAO UMB DOS CULTOS AFRO BRAS    20121810 000015
10231987175000168817800093673    000029307                    000293070000000000000109                     I0129307     20121800000000035003410000017N291018104700000000000102012180000000000000000000000000000000000000000100007544975770WILLIAMS COSTA SOARES                   RUA LEILA                               COMENDADOR S26261150NOVA IGUACU    RJUNIAO UMB DOS CULTOS AFRO BRAS    20121810 000016
10231987175000168817800093673    000029306                    000293060000000000000109                     I0129306     20121800000000035003410000017N291018104700000000000102012180000000000000000000000000000000000000000100069876207768JUREMA DIONISIO RODRIGUES               RUA CARLOS OLIMPIO DE MELLO             PACIENCIA   23585160RIO DE JANEIRO RJUNIAO UMB DOS CULTOS AFRO BRAS    20121810 000017
10231987175000168817800093673    000029305                    000293050000000000000109                     I0129305     20121800000000035003410000017N291018104700000000000102012180000000000000000000000000000000000000000100001859792707REGIS GOMES DE OLIVEIRA                 AVENIDA DO CANAL                        ALBUQUERQUE 25976560TERESOPOLIS    RJUNIAO UMB DOS CULTOS AFRO BRAS    20121810 000018
10231987175000168817800093673    000029304                    000293040000000000000109                     I0129304     20121800000000035003410000017N291018104700000000000102012180000000000000000000000000000000000000000100001149312750CLAUDIO SERGIO DE CASTRO                RUA LAJAO                               CENTRO      35240000CONSELHEIRO PENMGUNIAO UMB DOS CULTOS AFRO BRAS    20121810 000019
10231987175000168817800093673    000029303                    000293030000000000000109                     I0129303     20121800000000035003410000017N291018104700000000000102012180000000000000000000000000000000000000000100002878076737TANIA NACARI AIRES GALVAO               ESTRADA DO DENDE                        DENDE - ILHA25000000RIO DE JANEIRO RJUNIAO UMB DOS CULTOS AFRO BRAS    20121810 000020
10231987175000168817800093673    000029302                    000293020000000000000109                     I0129302     20121800000000035003410000017N291018104700000000000102012180000000000000000000000000000000000000000100001050327780MARIA LUCIA DE FATIMA FERREIRA          RUA BUDAPESTE                           BANCARIOS - 21911300RIO DE JANEIRO RJUNIAO UMB DOS CULTOS AFRO BRAS    20121810 000021
10231987175000168817800093673    000029301                    000293010000000000000109                     I0129301     20121800000000035003410000017N291018104700000000000102012180000000000000000000000000000000000000000100003200716851CYNTHIA RITA HERTEL                     RUA FRIBURGO                            SAMBAETIBA  24842220ITABORAI       RJUNIAO UMB DOS CULTOS AFRO BRAS    20121810 000022
10231987175000168817800093673    000029300                    000293000000000000000109                     I0129300     20121800000000040003410000017N291018104700000000000102012180000000000000000000000000000000000000000100077294653704RICARDO JOSE LIMA LINHARES              RUA DEOLINDA MOTA GUEDES                DANON       26270230RIO DE JANEIRO RJUNIAO UMB DOS CULTOS AFRO BRAS    20121810 000023
10231987175000168817800093673    000029299                    000292990000000000000109                     I0129299     20121800000000035003410000017N291018104700000000000102012180000000000000000000000000000000000000000100005727808774RITA BORGES MOREIRA                     RUA CIRILO DA SILVEIRA                  VILA VALQUEI21330735RIO DE JANEIRO RJUNIAO UMB DOS CULTOS AFRO BRAS    20121810 000024
10231987175000168817800093673    000029298                    000292980000000000000109                     I0129298     20121800000000035003410000017N291018104700000000000102012180000000000000000000000000000000000000000100009611659792ALUIZIO RODRIGUES RIBEIRO               RUA GARCIA PIRES                        QUINTINO    21311300RIO DE JANEIRO RJUNIAO UMB DOS CULTOS AFRO BRAS    20121810 000025
10231987175000168817800093673    000029297                    000292970000000000000109                     I0129297     20121800000000035003410000017N291018104700000000000102012180000000000000000000000000000000000000000100058924477749MARIA DAS GRACAS AZEVEDO RIBEI          RUA VICENTE LIMA                        VILAR DOS TE25560240SAO JOAO DE MERRJUNIAO UMB DOS CULTOS AFRO BRAS    20121810 000026
10231987175000168817800093673    000029296                    000292960000000000000109                     I0129296     20121800000000035003410000017N291018104700000000000102012180000000000000000000000000000000000000000100070891036768EDNA FERREIRA DE MELO                   RUA SARGENTO MARQUETI                   MARECHAL HER21611000RIO DE JANEIRO RJUNIAO UMB DOS CULTOS AFRO BRAS    20121810 000027
10231987175000168817800093673    000029295                    000292950000000000000109                     I0129295     20121800000000035003410000017N291018104700000000000102012180000000000000000000000000000000000000000100003125944708ROGERIO GOMES DA SILVA                  RUA DOUTOR BERNARDINO GOMES             BANCARIOS - 21910130RIO DE JANEIRO RJUNIAO UMB DOS CULTOS AFRO BRAS    20121810 000028
10231987175000168817800093673    000029294                    000292940000000000000109                     I0129294     20121800000000035003410000017N291018104700000000000102012180000000000000000000000000000000000000000100002541954743DENISE DIAS DE OLIVEIRA                 RUA BERNARDINO DE CAMPOS                OLAVO BILAC 25035530DUQUE DE CAXIASRJUNIAO UMB DOS CULTOS AFRO BRAS    20121810 000029
10231987175000168817800093673    000029293                    000292930000000000000109                     I0129293     20121800000000040003410000017N291018104700000000000102012180000000000000000000000000000000000000000100004252372739BARBARA CRISTINA BATISTA DOS S          RUA JAVA                                BOM JESUS   26352090NOVA IGUACU    RJUNIAO UMB DOS CULTOS AFRO BRAS    20121810 000030
10231987175000168817800093673    000029292                    000292920000000000000109                     I0129292     20121800000000035003410000017N291018104700000000000102012180000000000000000000000000000000000000000100088407721700CELSO DE OLIVEIRA ALBUQUERQUE           RUA ANHANGUERA                          SAO BERNARDO26160660BELFORD ROXO   RJUNIAO UMB DOS CULTOS AFRO BRAS    20121810 000031
10231987175000168817800093673    000029291                    000292910000000000000109                     I0129291     20121800000000035003410000017N291018104700000000000102012180000000000000000000000000000000000000000100001559752777CLAUDIA DA SILVA FERREIRA ANTO          ESTRADA DA PENA                         COSMOS      23060720RIO DE JANEIRO RJUNIAO UMB DOS CULTOS AFRO BRAS    20121810 000032
10231987175000168817800093673    000029290                    000292900000000000000109                     I0129290     20121800000000035003410000017N291018104700000000000102012180000000000000000000000000000000000000000100002065913738ROBSON DE FARIA TORRES                  RUA CAPITAO AROLDO LEITAO               OLARIA      21071050RIO DE JANEIRO RJUNIAO UMB DOS CULTOS AFRO BRAS    20121810 000033
10231987175000168817800093673    000029289                    000292890000000000000109                     I0129289     20121800000000035003410000017N291018104700000000000102012180000000000000000000000000000000000000000100049170872791SONIA REGINA BARBOSA CAVATO             AVENIDA: SCHULTZ WENK                   CORDOVIL    22711270RIO DE JANEIRO RJUNIAO UMB DOS CULTOS AFRO BRAS    20121810 000034
10231987175000168817800093673    000029288                    000292880000000000000109                     I0129288     20121800000000035003410000017N291018104700000000000102012180000000000000000000000000000000000000000100058486496772CELIA DOMINGOS DA SILVA                 RUA JANETE                              BANCO DE ARE26275020MESQUITA       RJUNIAO UMB DOS CULTOS AFRO BRAS    20121810 000035
10231987175000168817800093673    000029287                    000292870000000000000109                     I0129287     20121800000000035003410000017N291018104700000000000102012180000000000000000000000000000000000000000100058375562734NOELIA NOEMIA PIRES FERREIRA            AVENIDA EUCLIDES DA CUNHA               VILA SAO JOA25570162RIO DE JANEIRO RJUNIAO UMB DOS CULTOS AFRO BRAS    20121810 000036
10231987175000168817800093673    000029286                    000292860000000000000109                     I0129286     20121800000000035003410000017N291018104700000000000102012180000000000000000000000000000000000000000100008763637707JUSSARA SILVA DE ALBUQUERQUE            RUA: ARGOS                              GUADALUPE   21660050RIO DE JANEIRO RJUNIAO UMB DOS CULTOS AFRO BRAS    20121810 000037
10231987175000168817800093673    000029285                    000292850000000000000109                     I0129285     20121800000000035003410000017N291018104700000000000102012180000000000000000000000000000000000000000100003341741738CASSIA GOMES CASTORINO                  RUA COMENDADOR CRISOSTEMO CRUZ          SANTA MARIA 26165400BELFORD ROXO   RJUNIAO UMB DOS CULTOS AFRO BRAS    20121810 000038
10231987175000168817800093673    000029284                    000292840000000000000109                     I0129284     20121800000000035003410000017N291018104700000000000102012180000000000000000000000000000000000000000100066391482772VERA LUCIA BARBOSA FERREIRA             RUA JOAO VICENTE                        MARECHAL HER21610210RIO DE JANEIRO RJUNIAO UMB DOS CULTOS AFRO BRAS    20121810 000039
10231987175000168817800093673    000029283                    000292830000000000000109                     I0129283     20121800000000035003410000017N291018104700000000000102012180000000000000000000000000000000000000000100048623334787IOLANDA JOSE PROFIRIO BARRETO           RUA SUECIA                              JARDIM CAICA28910240CABO FRIO      RJUNIAO UMB DOS CULTOS AFRO BRAS    20121810 000040
10231987175000168817800093673    000029282                    000292820000000000000109                     I0129282     20121800000000040003410000017N291018104700000000000102012180000000000000000000000000000000000000000100085146595704CARLA MARY MONSORES REGO                RUA: D                                  TINGUI      23075570RIO DE JANEIRO RJUNIAO UMB DOS CULTOS AFRO BRAS    20121810 000041
10231987175000168817800093673    000029281                    000292810000000000000109                     I0129281     20121800000000035003410000017N291018104700000000000102012180000000000000000000000000000000000000000100038923335720MARILENE LOPES                          RUA LIBERATO                            VILA EMIL   26235180MESQUITA       RJUNIAO UMB DOS CULTOS AFRO BRAS    20121810 000042
10231987175000168817800093673    000029280                    000292800000000000000109                     I0129280     20121800000000035003410000017N291018104700000000000102012180000000000000000000000000000000000000000100089682300487STIVES FERREIRA DA SILVA                RUA OSVALDO EVANGELISTA DOS SANTOS      BANGU       21864530RIO DE JANEIRO RJUNIAO UMB DOS CULTOS AFRO BRAS    20121810 000043
10231987175000168817800093673    000029279                    000292790000000000000109                     I0129279     20121800000000035003410000017N291018104700000000000102012180000000000000000000000000000000000000000100083819991700LUZIA GERALDINA DA SILVA                ESTRADA DA FAZENDINHA                   BADU        23320420NITEROI        RJUNIAO UMB DOS CULTOS AFRO BRAS    20121810 000044
10231987175000168817800093673    000029278                    000292780000000000000109                     I0129278     20121800000000035003410000017N291018104700000000000102012180000000000000000000000000000000000000000100000000000000JORGE ALVES DE MEDEIROS                 RUA LILAZES                             TRES SETAS  26171450BELFORD ROXO   RJUNIAO UMB DOS CULTOS AFRO BRAS    20121810 000045
10231987175000168817800093673    000029277                    000292770000000000000109                     I0129277     20121800000000035003410000017N291018104700000000000102012180000000000000000000000000000000000000000100000000000000ANA MARIA ROQUE DA SILVA                RUA EUCLIDES ROXO                       REALENGO    21765590RIO DE JANEIRO RJUNIAO UMB DOS CULTOS AFRO BRAS    20121810 000046
10231987175000168817800093673    000029276                    000292760000000000000109                     I0129276     20121800000000035003410000017N291018104700000000000102012180000000000000000000000000000000000000000100067165664734JUREMA JUCIARA DOS SANTOS               TRAVESSA ALVARENGA                      EDSON PASSOS26246150MESQUITA       RJUNIAO UMB DOS CULTOS AFRO BRAS    20121810 000047
10231987175000168817800093673    000029275                    000292750000000000000109                     I0129275     20121800000000035003410000017N291018104700000000000102012180000000000000000000000000000000000000000100071924337720MARIA DAS DORES FERREIRA PESSA          AVENIDA RAFAEL DE OLIVEIRA              GUADALUPE   21675620RIO DE JANEIRO RJUNIAO UMB DOS CULTOS AFRO BRAS    20121810 000048
10231987175000168817800093673    000029274                    000292740000000000000109                     I0129274     20121800000000035003410000017N291018104700000000000102012180000000000000000000000000000000000000000100078664870730LUCIA MARA RIBEIRO OLIVEIRA             RUA LUIZA                               CHATUBA     26584210MESQUITA       RJUNIAO UMB DOS CULTOS AFRO BRAS    20121810 000049
10231987175000168817800093673    000029273                    000292730000000000000109                     I0129273     20121800000000035003410000017N291018104700000000000102012180000000000000000000000000000000000000000100090776704753CLAUDIO ISAAC PEREIRA TEIXEIRA          RUA ARUTI                               PRACA SECA  21321030RIO DE JANEIRO RJUNIAO UMB DOS CULTOS AFRO BRAS    20121810 000050
10231987175000168817800093673    000029272                    000292720000000000000109                     I0129272     20121800000000035003410000017N291018104700000000000102012180000000000000000000000000000000000000000100079006980753ELIANE BARBOSA RODRIGUES                AVENIDA PASTEUR                         PARQUE ALIAN25550210SAO JOAO DE MERRJUNIAO UMB DOS CULTOS AFRO BRAS    20121810 000051
10231987175000168817800093673    000029271                    000292710000000000000109                     I0129271     20121800000000035003410000017N291018104700000000000102012180000000000000000000000000000000000000000100045469805720NIVALDA MARIA FERREIRA                  RUA LASSANCE LOTE 14 QUADRA 9           JARDIM MARAV23033100CAMPO GRANDE   RJUNIAO UMB DOS CULTOS AFRO BRAS    20121810 000052
10231987175000168817800093673    000029270                    000292700000000000000109                     I0129270     20121800000000035003410000017N291018104700000000000102012180000000000000000000000000000000000000000100000000000267ADRIANA SANTOS DA SILVA                 RUA URBANO DUARTE                       VILA ROSARIO25042300DUQUE DE CAXIASRJUNIAO UMB DOS CULTOS AFRO BRAS    20121810 000053
10231987175000168817800093673    000029269                    000292690000000000000109                     I0129269     20121800000000035003410000017N291018104700000000000102012180000000000000000000000000000000000000000100048363340715AUREA RAMOS                             ESTRADA DO MAGARCA                      CINCO MARIAS23031201PEDRA DE GUARATRJUNIAO UMB DOS CULTOS AFRO BRAS    20121810 000054
10231987175000168817800093673    000029268                    000292680000000000000109                     I0129268     20121800000000035003410000017N291018104700000000000102012180000000000000000000000000000000000000000100075643081768ELISABETE MOREIRA FREIRE DA SI          RUA NOVENTA E OITO                      VILA CARIOCA21220770RIO DE JANEIRO RJUNIAO UMB DOS CULTOS AFRO BRAS    20121810 000055
10231987175000168817800093673    000029267                    000292670000000000000109                     I0129267     20121800000000035003410000017N291018104700000000000102012180000000000000000000000000000000000000000100010491247745JOAO BATISTA MACEDO DE FREITAS          RUA ITAGIBA                             COSMOS      23060450RIO DE JANEIRO RJUNIAO UMB DOS CULTOS AFRO BRAS    20121810 000056
10231987175000168817800093673    000029266                    000292660000000000000109                     I0129266     20121800000000035003410000017N291018104700000000000102012180000000000000000000000000000000000000000100000000000261MARCOS ROMEU DA SILVA                   RUA CAMINHO DO FERRADOR                 GUARATIBA   23020570CAMPO GRANDE   RJUNIAO UMB DOS CULTOS AFRO BRAS    20121810 000057
10231987175000168817800093673    000029265                    000292650000000000000109                     I0129265     20121800000000035003410000017N291018104700000000000102012180000000000000000000000000000000000000000100082233039734BARBARA DA SILVA CUNHA MOREIRA          RUA EVARISTO PIRES                      BANGU       21840040RIO DE JANEIRO RJUNIAO UMB DOS CULTOS AFRO BRAS    20121810 000058
10231987175000168817800093673    000029264                    000292640000000000000109                     I0129264     20121800000000035003410000017N291018104700000000000102012180000000000000000000000000000000000000000100000000000000EDMILSON DOS SANTOS WINNE DE N          RUA DONA JULIA                          SEPETIBA    23545570RIO DE JANEIRO RJUNIAO UMB DOS CULTOS AFRO BRAS    20121810 000059
10231987175000168817800093673    000029263                    000292630000000000000109                     I0129263     20121800000000035003410000017N291018104700000000000102012180000000000000000000000000000000000000000100000000000000REGINA CELIA DA SILVA LINS              CONDOMINIO PASSAREDO                    CAMINHO DE B28921100RIO DE JANEIRO RJUNIAO UMB DOS CULTOS AFRO BRAS    20121810 000060
10231987175000168817800093673    000029262                    000292620000000000000109                     I0129262     20121800000000035003410000017N291018104700000000000102012180000000000000000000000000000000000000000100005744506705SANDRA REGINA DE OLIVEIRA               RUA MARCIA COSTA                        JARDIM NOVA 26271160NOVA IGUACU    RJUNIAO UMB DOS CULTOS AFRO BRAS    20121810 000061
10231987175000168817800093673    000029261                    000292610000000000000109                     I0129261     20121800000000040003410000017N291018104700000000000102012180000000000000000000000000000000000000000100073257265702DAMIANA DE OLIVEIRA PINHEIRO            RUA PROJETADA ALPHA                     PALMARES    23575270SANTA CRUZ     RJUNIAO UMB DOS CULTOS AFRO BRAS    20121810 000062
10231987175000168817800093673    000029260                    000292600000000000000109                     I0129260     20121800000000035003410000017N291018104700000000000102012180000000000000000000000000000000000000000100000000000251NEUZA DE OLIVEIRA                       RUA: CINQUENTA E CINCO                  NOVA SEPETIB23547490SEPETIBA       RJUNIAO UMB DOS CULTOS AFRO BRAS    20121810 000063
10231987175000168817800093673    000029259                    000292590000000000000109                     I0129259     20121800000000035003410000017N291018104700000000000102012180000000000000000000000000000000000000000100000000000250ANA LUCIA FRANCISCO BORGES              ESTRADA DA ESTIVA                       SEPETIBA    23057120RIO DE JANEIRO RJUNIAO UMB DOS CULTOS AFRO BRAS    20121810 000064
10231987175000168817800093673    000029258                    000292580000000000000109                     I0129258     20121800000000035003410000017N291018104700000000000102012180000000000000000000000000000000000000000100001295514737DANUZA JEREMIAS DA SILVA                RUA JOAQUIM RAFAEL                      COELHO      24740020SAO GONCALO    RJUNIAO UMB DOS CULTOS AFRO BRAS    20121810 000065
10231987175000168817800093673    000029257                    000292570000000000000109                     I0129257     20121800000000035003410000017N291018104700000000000102012180000000000000000000000000000000000000000100000000000000EVA ANA ROSA DOS SANTOS                 RUA SARGENTO ANDIRAS DE ABREU           PALMARES - P23066080RIO DE JANEIRO RJUNIAO UMB DOS CULTOS AFRO BRAS    20121810 000066
10231987175000168817800093673    000029256                    000292560000000000000109                     I0129256     20121800000000035003410000017N291018104700000000000102012180000000000000000000000000000000000000000100059272570700VERA LUCIA LIMA SILVA                   RUA DOS BIOLOGOS                        TAQUARA - JA22723510RIO DE JANEIRO RJUNIAO UMB DOS CULTOS AFRO BRAS    20121810 000067
10231987175000168817800093673    000029255                    000292550000000000000109                     I0129255     20121800000000035003410000017N291018104700000000000102012180000000000000000000000000000000000000000100072090499753JOSEFINA PAULINA RODRIGUES              RUA JOAQUIM SOARES NETO                 NOVA AMERICA26021560NOVA IGUACU    RJUNIAO UMB DOS CULTOS AFRO BRAS    20121810 000068
10231987175000168817800093673    000029254                    000292540000000000000109                     I0129254     20121800000000035003410000017N291018104700000000000102012180000000000000000000000000000000000000000100079758517791NEY PEREIRA LEITE                       RUA MARECHAL MARCIANO                   REALENGO    21735651RIO DE JANEIRO RJUNIAO UMB DOS CULTOS AFRO BRAS    20121810 000069
10231987175000168817800093673    000029253                    000292530000000000000109                     I0129253     20121800000000035003410000017N291018104700000000000102012180000000000000000000000000000000000000000100005256804707JANAINA MARIA COSTA                     RUA GENERAL AZEREDO                     REALENGO    21765000RIO DE JANEIRO RJUNIAO UMB DOS CULTOS AFRO BRAS    20121810 000070
10231987175000168817800093673    000029252                    000292520000000000000109                     I0129252     20121800000000035003410000017N291018104700000000000102012180000000000000000000000000000000000000000100001789073758BERNADETE BURGOS AMORIM RANGEL          RUA IMBUI                               TAQUARA     22730100RIO DE JANEIRO RJUNIAO UMB DOS CULTOS AFRO BRAS    20121810 000071
10231987175000168817800093673    000029251                    000292510000000000000109                     I0129251     20121800000000035003410000017N291018104700000000000102012180000000000000000000000000000000000000000100001388677717EDSON LUIZ COSTA SOARES                 RUA LEOCADIO MELLO                      JARDIM NOVA 26272060NOVA IGUACU    RJUNIAO UMB DOS CULTOS AFRO BRAS    20121810 000072
10231987175000168817800093673    000029250                    000292500000000000000109                     I0129250     20121800000000035003410000017N291018104700000000000102012180000000000000000000000000000000000000000100000000000000JOSE ANTONIO ZANELLI                    RUA LIBANIO FERREIRA PORTO              MONJOLO     24735360NITEROI        RJUNIAO UMB DOS CULTOS AFRO BRAS    20121810 000073
10231987175000168817800093673    000029249                    000292490000000000000109                     I0129249     20121800000000035003410000017N291018104700000000000102012180000000000000000000000000000000000000000100028131576787EVA MOREIRA FERREIRA                    RUA PEDRO LESSA                         VILA LEOPOLD25035800DUQUE DE CAXIASRJUNIAO UMB DOS CULTOS AFRO BRAS    20121810 000074
10231987175000168817800093673    000029248                    000292480000000000000109                     I0129248     20121800000000035003410000017N291018104700000000000102012180000000000000000000000000000000000000000100004550883131LINDINALVA MONTEIRO DA SILVA            RUA TENENTE PALESTRINA                  CORDOVIL    21250550RIO DE JANEIRO RJUNIAO UMB DOS CULTOS AFRO BRAS    20121810 000075
10231987175000168817800093673    000029247                    000292470000000000000109                     I0129247     20121800000000035003410000017N291018104700000000000102012180000000000000000000000000000000000000000100093151179720ELIZABETH DA SILVA GOIS                 RUA RAFAEL HAENNY                       SEPETIBA    23535640RIO DE JANEIRO RJUNIAO UMB DOS CULTOS AFRO BRAS    20121810 000076
10231987175000168817800093673    000029246                    000292460000000000000109                     I0129246     20121800000000035003410000017N291018104700000000000102012180000000000000000000000000000000000000000100000000000000SEBASTIANA MARIANO DIAS                 RUA XAVANTES                            VILA IBIRAPI23811560ITAGUAI        RJUNIAO UMB DOS CULTOS AFRO BRAS    20121810 000077
10231987175000168817800093673    000029245                    000292450000000000000109                     I0129245     20121800000000035003410000017N291018104700000000000102012180000000000000000000000000000000000000000100001345348754ADRIANA DE LELIS                        RUA DOIS                                BAIRRO SILVE23092080RIO DE JANEIRO RJUNIAO UMB DOS CULTOS AFRO BRAS    20121810 000078
10231987175000168817800093673    000029244                    000292440000000000000109                     I0129244     20121800000000035003410000017N291018104700000000000102012180000000000000000000000000000000000000000100027016005704SEVERINO MIGUEL SIMAO                   RUA CONDOMINIO PASSAREDO                CAM.DE BUZIO28910000CABO FRIO      RJUNIAO UMB DOS CULTOS AFRO BRAS    20121810 000079
10231987175000168817800093673    000029243                    000292430000000000000109                     I0129243     20121800000000035003410000017N291018104700000000000102012180000000000000000000000000000000000000000100000000000000DALILA DE SOUZA PINHEIRO                RUA JOAO BRIGIDO                        MAGALHAES BA21745480RIO DE JANEIRO RJUNIAO UMB DOS CULTOS AFRO BRAS    20121810 000080
10231987175000168817800093673    000029242                    000292420000000000000109                     I0129242     20121800000000035003410000017N291018104700000000000102012180000000000000000000000000000000000000000100007070605757DANIEL MARCONDI DE SOUZA                RUA TUPI                                VILA PAULINE26185235BELFORD ROXO   RJUNIAO UMB DOS CULTOS AFRO BRAS    20121810 000081
10231987175000168817800093673    000029241                    000292410000000000000109                     I0129241     20121800000000035003410000017N291018104700000000000102012180000000000000000000000000000000000000000100004287865707MARIA LUISA DE OLIVEIRA LIREO           RUA PORTO CARRERO                       CORDOVIL    21250260RIO DE JANEIRO RJUNIAO UMB DOS CULTOS AFRO BRAS    20121810 000082
10231987175000168817800093673    000029240                    000292400000000000000109                     I0129240     20121800000000035003410000017N291018104700000000000102012180000000000000000000000000000000000000000100083122869772ANDREIA OLIVEIRA DE MENEZES             RUA VICENTE PONTE                       ILHA DO GOVE21921740RIO DE JANEIRO RJUNIAO UMB DOS CULTOS AFRO BRAS    20121810 000083
10231987175000168817800093673    000029239                    000292390000000000000109                     I0129239     20121800000000035003410000017N291018104700000000000102012180000000000000000000000000000000000000000100003032033748MARIA MOREIRA TEIXEIRA                  TRAVESSA RIACHAO                        AUSTIN      26335090BELFORD ROXO   RJUNIAO UMB DOS CULTOS AFRO BRAS    20121810 000084
10231987175000168817800093673    000029238                    000292380000000000000109                     I0129238     20121800000000035003410000017N291018104700000000000102012180000000000000000000000000000000000000000100000000000000MAGNO AGUIAR DA SILVA                   RUA DOM PEDRO I                         PRAIA GRANDE28930000ARRAIAL DO CABORJUNIAO UMB DOS CULTOS AFRO BRAS    20121810 000085
10231987175000168817800093673    000029237                    000292370000000000000109                     I0129237     20121800000000035003410000017N291018104700000000000102012180000000000000000000000000000000000000000100003725237735LUCIANO LOPES DA SILVA                  ALAMEDA BUENO AIRES                     RIO DO OURO 24752360SAO GONCALO    RJUNIAO UMB DOS CULTOS AFRO BRAS    20121810 000086
10231987175000168817800093673    000029236                    000292360000000000000109                     I0129236     20121800000000035003410000017N291018104700000000000102012180000000000000000000000000000000000000000100006932718766CARLOS EDUARDO DE OLIVEIRA              TRAVESSA CARLOS SAMPAIO                 AUSTIN      26087287NOVA IGUACU    RJUNIAO UMB DOS CULTOS AFRO BRAS    20121810 000087
10231987175000168817800093673    000029235                    000292350000000000000109                     I0129235     20121800000000035003410000017N291018104700000000000102012180000000000000000000000000000000000000000100043116248753NORMA FELIX DA SILVA PEREIRA            RUA HENRIQUE MARTINS                    LAGOINHA    24736130SAO GONCALO    RJUNIAO UMB DOS CULTOS AFRO BRAS    20121810 000088
10231987175000168817800093673    000029234                    000292340000000000000109                     I0129234     20121800000000035003410000017N291018104700000000000102012180000000000000000000000000000000000000000100000000000761SONIA MARIA DA SILVA DELLIVENE          AV PLINIO GOMES DE MATTOS FILHO         VARZEA DAS M24330430SAO GONCALO    RJUNIAO UMB DOS CULTOS AFRO BRAS    20121810 000089
10231987175000168817800093673    000029233                    000292330000000000000109                     I0129233     20121800000000035003410000017N291018104700000000000102012180000000000000000000000000000000000000000100000000000000LUCIA PEREIRA                           RUA ZEFERINO DA COSTA                   CAVALCANTI  21370230RIO DE JANEIRO RJUNIAO UMB DOS CULTOS AFRO BRAS    20121810 000090
10231987175000168817800093673    000029232                    000292320000000000000109                     I0129232     20121800000000035003410000017N291018104700000000000102012180000000000000000000000000000000000000000100071186220791AUREA GOMES                             AVENIDA FRANCISCO ANTONIO FRANCISCO     RETIRO      27276000VOLTA REDONDA  RJUNIAO UMB DOS CULTOS AFRO BRAS    20121810 000091
10231987175000168817800093673    000029231                    000292310000000000000109                     I0129231     20121800000000035003410000017N291018104700000000000102012180000000000000000000000000000000000000000100004455965700MARIA DE LOURDES SOARES DA SIL          ESTRADA RJ 127                          ALTO DO CHAF26650000PAULO DE FRONTIRJUNIAO UMB DOS CULTOS AFRO BRAS    20121810 000092
10231987175000168817800093673    000029230                    000292300000000000000109                     I0129230     20121800000000035003410000017N291018104700000000000102012180000000000000000000000000000000000000000100098546686734MARCIO NEVES                            RUA FLORIANOPOLIS                       PRACA SECA  21321050RIO DE JANEIRO RJUNIAO UMB DOS CULTOS AFRO BRAS    20121810 000093
10231987175000168817800093673    000029229                    000292290000000000000109                     I0129229     20121800000000035003410000017N291018104700000000000102012180000000000000000000000000000000000000000100000000000000ZUILA DE MELO E SILVA COVA              RUA TAMOIOS                             SAO FRANCISC24360380NITEROI        RJUNIAO UMB DOS CULTOS AFRO BRAS    20121810 000094
10231987175000168817800093673    000029228                    000292280000000000000109                     I0129228     20121800000000035003410000017N291018104700000000000102012180000000000000000000000000000000000000000100000000000000ELOIDE GONCALVES GAIA                   RUA IBIA                                ROCHA MIRAND21540070RIO DE JANEIRO RJUNIAO UMB DOS CULTOS AFRO BRAS    20121810 000095
10231987175000168817800093673    000029227                    000292270000000000000109                     I0129227     20121800000000035003410000017N291018104700000000000102012180000000000000000000000000000000000000000100005538511790VALNEI BARBOSA DA SILVA                 RUA DOS RUBIS                           INHOAIBA - C23064670RIO DE JANEIRO RJUNIAO UMB DOS CULTOS AFRO BRAS    20121810 000096
10231987175000168817800093673    000029226                    000292260000000000000109                     I0129226     20121800000000035003410000017N291018104700000000000102012180000000000000000000000000000000000000000100028842723720HELENITA ANTONIA DE JESUS               RUA ROBERTO CONSTANTINESCO              GUADALUPE   21675450RIO DE JANEIRO RJUNIAO UMB DOS CULTOS AFRO BRAS    20121810 000097
10231987175000168817800093673    000029225                    000292250000000000000109                     I0129225     20121800000000035003410000017N291018104700000000000102012180000000000000000000000000000000000000000100013222460760VITOR NERY DO AMARAL                    RUA MARIA PARIS                         PAIOL       26545600NILOPOLIS      RJUNIAO UMB DOS CULTOS AFRO BRAS    20121810 000098
10231987175000168817800093673    000029224                    000292240000000000000109                     I0129224     20121800000000035003410000017N291018104700000000000102012180000000000000000000000000000000000000000100064262839753MARIA JOSE SOUZA DOS SANTOS             RUA JOSE LIMA DA SILVA                  MARIA       26185610BELFORD ROXO   RJUNIAO UMB DOS CULTOS AFRO BRAS    20121810 000099
10231987175000168817800093673    000029223                    000292230000000000000109                     I0129223     20121800000000035003410000017N291018104700000000000102012180000000000000000000000000000000000000000100086374370791IVETE SILVA GOMES                       RUA VENANCIO AIRES                      OLAVO BILAC 25035340NITEROI        RJUNIAO UMB DOS CULTOS AFRO BRAS    20121810 000100
10231987175000168817800093673    000029222                    000292220000000000000109                     I0129222     20121800000000035003410000017N291018104700000000000102012180000000000000000000000000000000000000000100007929176770SANSIA MARIA SOBRINHO                   RUA TURMALINA                           NOVO JARDIM 24175670SAO GONCALO    RJUNIAO UMB DOS CULTOS AFRO BRAS    20121810 000101
10231987175000168817800093673    000029221                    000292210000000000000109                     I0129221     20121800000000035003410000017N291018104700000000000102012180000000000000000000000000000000000000000100059941294704LUZIA LYGIA DO NASCIMENTO CAMA          AVENIDA CARIOCA                         VILA ROSALI 25555332DUQUE DE CAXIASRJUNIAO UMB DOS CULTOS AFRO BRAS    20121810 000102
10231987175000168817800093673    000029220                    000292200000000000000109                     I0129220     20121800000000035003410000017N291018104700000000000102012180000000000000000000000000000000000000000100001834521785MARCELO TEIXEIRA ORSI                   RUA A                                   PARADA MORAB25000000NOVA IGUACU    RJUNIAO UMB DOS CULTOS AFRO BRAS    20121810 000103
10231987175000168817800093673    000029219                    000292190000000000000109                     I0129219     20121800000000035003410000017N291018104700000000000102012180000000000000000000000000000000000000000100000000000000MARIA DAS GRACAS MORAIS SOARES          AVENIDA LEANDRO DA MOTA                 VILA SAO SEB25065175DUQUE DE CAXIASRJUNIAO UMB DOS CULTOS AFRO BRAS    20121810 000104
10231987175000168817800093673    000029218                    000292180000000000000109                     I0129218     20121800000000035003410000017N291018104700000000000102012180000000000000000000000000000000000000000100006957328708ANDRE VALERIO DELGADO GOIS E M          RUA TORRES HOMEM                        JARDIM OLAVO25025380DUQUE DE CAXIASRJUNIAO UMB DOS CULTOS AFRO BRAS    20121810 000105
10231987175000168817800093673    000029217                    000292170000000000000109                     I0129217     20121800000000040003410000017N291018104700000000000102012180000000000000000000000000000000000000000100042153425700MARIA DA CONCEICAO MADUREIRA D          RUA SARAVATA                            MARECHAL HER21557010RIO DE JANEIRO RJUNIAO UMB DOS CULTOS AFRO BRAS    20121810 000106
10231987175000168817800093673    000029216                    000292160000000000000109                     I0129216     20121800000000035003410000017N291018104700000000000102012180000000000000000000000000000000000000000200000000007238DERLI DE CARVALHO SILVA                 RUA TEOTONIO SANTOS N 111               MARAMBAIA - 36880000MURIAE         MGUNIAO UMB DOS CULTOS AFRO BRAS    20121810 000107
10231987175000168817800093673    000029215                    000292150000000000000109                     I0129215     20121800000000035003410000017N291018104700000000000102012180000000000000000000000000000000000000000100007253631773CARLOS EDUARDO IZIDORO DE OLIV          AVENIDA JOSE BRUMATTI                   LAVRAS      25015350GUARULHOS      SPUNIAO UMB DOS CULTOS AFRO BRAS    20121810 000108
10231987175000168817800093673    000029214                    000292140000000000000109                     I0129214     20121800000000035003410000017N291018104700000000000102012180000000000000000000000000000000000000000100000000000000MARINEIDE SERGIO CABRAL                 RUA INAMBA                              POSSE       26021160NOVA IGUACU    RJUNIAO UMB DOS CULTOS AFRO BRAS    20121810 000109
10231987175000168817800093673    000029213                    000292130000000000000109                     I0129213     20121800000000035003410000017N291018104700000000000102012180000000000000000000000000000000000000000100007281066716ZULMIRA DA SILVA RODRIGUES              RUA: BERNARDINO DE CAMPOS               OLAVO BILAC 25035530DUQUE DE CAXIASRJUNIAO UMB DOS CULTOS AFRO BRAS    20121810 000110
10231987175000168817800093673    000029212                    000292120000000000000109                     I0129212     20121800000000035003410000017N291018104700000000000102012180000000000000000000000000000000000000000100005963954770SANDRA MARIA DA SILVA SANTOS            RUA JOAO RAIMUNDO                       VILA SANTO A25041400DUQUE DE CAXIASRJUNIAO UMB DOS CULTOS AFRO BRAS    20121810 000111
10231987175000168817800093673    000029211                    000292110000000000000109                     I0129211     20121800000000035003410000017N291018104700000000000102012180000000000000000000000000000000000000000100007324399738JACANA MONTEIRO DO AMARAL               RUA MESQUITA                            SAO ROQUE   23310170QUEIMADOS      RJUNIAO UMB DOS CULTOS AFRO BRAS    20121810 000112
10231987175000168817800093673    000029210                    000292100000000000000109                     I0129210     20121800000000035003410000017N291018104700000000000102012180000000000000000000000000000000000000000100064817008768MARINEIDE JOSE DOS SANTOS DA S          RUA F                                   ALTO DA POSS26020001QUEIMADOS      RJUNIAO UMB DOS CULTOS AFRO BRAS    20121810 000113
10231987175000168817800093673    000029209                    000292090000000000000109                     I0129209     20121800000000035003410000017N291018104700000000000102012180000000000000000000000000000000000000000100000000000165MARIA APARECIDA DOS SANTOS CYP          ESTRADA DO SABONETE                     ARSENAL     24745224SAO GONCALO    RJUNIAO UMB DOS CULTOS AFRO BRAS    20121810 000114
10231987175000168817800093673    000029208                    000292080000000000000109                     I0129208     20121800000000040003410000017N291018104700000000000102012180000000000000000000000000000000000000000100007830594775EMERSON MODESTO SIQUEIRA                RUA MESQUITA                            REALENGO    21721210RIO DE JANEIRO RJUNIAO UMB DOS CULTOS AFRO BRAS    20121810 000115
10231987175000168817800093673    000029207                    000292070000000000000109                     I0129207     20121800000000035003410000017N291018104700000000000102012180000000000000000000000000000000000000000100000000000105ELZA DE AZEVEDO ALVES                   RUA BADUINIO DE AGUIAR                  PARADA DE LU21250460RIO DE JANEIRO RJUNIAO UMB DOS CULTOS AFRO BRAS    20121810 000116
10231987175000168817800093673    000029206                    000292060000000000000109                     I0129206     20121800000000035003410000017N291018104700000000000102012180000000000000000000000000000000000000000100038268264772SANDRA NUNES DE ARAUJO                  RUA UBERABA                             GRACAS      25041060DUQUE DE CAXIASRJUNIAO UMB DOS CULTOS AFRO BRAS    20121810 000117
10231987175000168817800093673    000029205                    000292050000000000000109                     I0129205     20121800000000035003410000017N291018104700000000000102012180000000000000000000000000000000000000000100001087376750ALAN RICARDO DA CONCEICAO GAMA          RUA JULIO JOSE DA SILVA                 SANTA CRUZ  22783116RIO DE JANEIRO RJUNIAO UMB DOS CULTOS AFRO BRAS    20121810 000118
10231987175000168817800093673    000029204                    000292040000000000000109                     I0129204     20121800000000035003410000017N291018104700000000000102012180000000000000000000000000000000000000000100000000000000ORQUIDEA JOSE DOS SANTOS                RUA JESSIE VENTURA                      SANTA CECILI25233130DUQUE DE CAXIASRJUNIAO UMB DOS CULTOS AFRO BRAS    20121810 000119
10231987175000168817800093673    000029203                    000292030000000000000109                     I0129203     20121800000000040003410000017N291018104700000000000102012180000000000000000000000000000000000000000100008214669766MARCO AURELIO RANGEL BARBOSA            RUA GENERAL JOSE FAUSTINO               PADRE MIGUEL21721050RIO DE JANEIRO RJUNIAO UMB DOS CULTOS AFRO BRAS    20121810 000120
10231987175000168817800093673    000029202                    000292020000000000000109                     I0129202     20121800000000035003410000017N291018104700000000000102012180000000000000000000000000000000000000000100003029004708ANDREA GUIMARAES MARTINS                RUA ANA CRISTINA                        VILA GUIMARA26088175NOVA IGUACU    RJUNIAO UMB DOS CULTOS AFRO BRAS    20121810 000121
10231987175000168817800093673    000029201                    000292010000000000000109                     I0129201     20121800000000035003410000017N291018104700000000000102012180000000000000000000000000000000000000000100004279924783EDUARDO CARVALHO DE SANTANNA            AVENIDA RUI BARBOSA                     JARDIM GRAMA25268050DUQUE DE CAXIASRJUNIAO UMB DOS CULTOS AFRO BRAS    20121810 000122
10231987175000168817800093673    000029200                    000292000000000000000109                     I0129200     20121800000000035003410000017N291018104700000000000102012180000000000000000000000000000000000000000100049135570768CLEBER SILVA DE FREITAS                 RUA COBE                                RIO DA PRATA21820200BANGU          RJUNIAO UMB DOS CULTOS AFRO BRAS    20121810 000123
10231987175000168817800093673    000029199                    000291990000000000000109                     I0129199     20121800000000035003410000017N291018104700000000000102012180000000000000000000000000000000000000000100065213696791SILVIA ELIZABETE RODRIGUES              RUA JOAO BITTENCOURT                    EDSON PASSOS26240510MESQUITA       RJUNIAO UMB DOS CULTOS AFRO BRAS    20121810 000124
10231987175000168817800093673    000029198                    000291980000000000000109                     I0129198     20121800000000035003410000017N291018104700000000000102012180000000000000000000000000000000000000000100000000000807ELIZA DA SILVA                          RUA AMILTON NASCIMENTO                  CAROLINA    26012760NOVA IGUACU    RJUNIAO UMB DOS CULTOS AFRO BRAS    20121810 000125
10231987175000168817800093673    000029197                    000291970000000000000109                     I0129197     20121800000000035003410000017N291018104700000000000102012180000000000000000000000000000000000000000100041008154768ELISEU CAMARGO ARTHOU                   ESTRADA DO ENGENHO NOVO                 ANCHIETA    21620241RIO DE JANEIRO RJUNIAO UMB DOS CULTOS AFRO BRAS    20121810 000126
10231987175000168817800093673    000029196                    000291960000000000000109                     I0129196     20121800000000035003410000017N291018104700000000000102012180000000000000000000000000000000000000000100086634402787ZILDA GIMENIZ NOGUEIRA                  RUA ESPIRITO SANTO                      PRAIA LINDA 28940000SAO PEDRO DA ALRJUNIAO UMB DOS CULTOS AFRO BRAS    20121810 000127
10231987175000168817800093673    000029195                    000291950000000000000109                     I0129195     20121800000000035003410000017N291018104700000000000102012180000000000000000000000000000000000000000100000000000000JANILTON DA CRUZ ROCHA                  RUA ALUISIO AZEVEDO                     IMBARIE - PA25275360DUQUE DE CAXIASRJUNIAO UMB DOS CULTOS AFRO BRAS    20121810 000128
10231987175000168817800093673    000029194                    000291940000000000000109                     I0129194     20121800000000035003410000017N291018104700000000000102012180000000000000000000000000000000000000000100000000000000LUCIMAR FIGUEIREDO NASCIMENTO           RUA TAMANDUATEI                         CRUZEIRO DO 26012775NOVA IGUACU    RJUNIAO UMB DOS CULTOS AFRO BRAS    20121810 000129
10231987175000168817800093673    000029193                    000291930000000000000109                     I0129193     20121800000000035003410000017N291018104700000000000102012180000000000000000000000000000000000000000100000000000000WANDERLEI ABRANTES TEIXEIRA             AVENIDA BEIRA MAR                       COROA GRANDE23821310ITAGUAI        RJUNIAO UMB DOS CULTOS AFRO BRAS    20121810 000130
10231987175000168817800093673    000029192                    000291920000000000000109                     I0129192     20121800000000035003410000017N291018104700000000000102012180000000000000000000000000000000000000000100078893739704DENISE QUEIROZ CARNEIRO                 ESTRADA DO LAMEIRAO - RUA PAINEIRAS     SANTISSIMO  23092031RIO DE JANEIRO RJUNIAO UMB DOS CULTOS AFRO BRAS    20121810 000131
10231987175000168817800093673    000029191                    000291910000000000000109                     I0129191     20121800000000035003410000017N291018104700000000000102012180000000000000000000000000000000000000000100000000000756CONCHETA PERRONI DE SOUZA BRAN          RUA JUSTINO DE SOUSA                    SAO CRISTOVA21920030RIO DE JANEIRO RJUNIAO UMB DOS CULTOS AFRO BRAS    20121810 000132
10231987175000168817800093673    000029190                    000291900000000000000109                     I0129190     20121800000000035003410000017N291018104700000000000102012180000000000000000000000000000000000000000100054770122772EDUARDO DOS SANTOS REIS NETO            RUA: BURITI                             MADUREIRA   20231046RIO DE JANEIRO RJUNIAO UMB DOS CULTOS AFRO BRAS    20121810 000133
10231987175000168817800093673    000029189                    000291890000000000000109                     I0129189     20121800000000035003410000017N291018104700000000000102012180000000000000000000000000000000000000000100000000000000NATERCIA MALVAR GARCIA LEITAO           RUA CIRO COSTA                          ENGENHO PEQU24417226SAO GONCALO    RJUNIAO UMB DOS CULTOS AFRO BRAS    20121810 000134
10231987175000168817800093673    000029188                    000291880000000000000109                     I0129188     20121800000000035003410000017N291018104700000000000102012180000000000000000000000000000000000000000100000000000000MARLENE INACIA NUNES DO NASCIM          RUA DOUTOR BERNARDINO TEIXEIRA          EDEN        25545110SAO JOAO DE MERRJUNIAO UMB DOS CULTOS AFRO BRAS    20121810 000135
10231987175000168817800093673    000029187                    000291870000000000000109                     I0129187     20121800000000035003410000017N291018104700000000000102012180000000000000000000000000000000000000000100007333127729FRANCISCA GONCALVES                     RUA COQUEIROS                           SANTA CRUZ  23535200RIO DE JANEIRO RJUNIAO UMB DOS CULTOS AFRO BRAS    20121810 000136
10231987175000168817800093673    000029186                    000291860000000000000109                     I0129186     20121800000000035003410000017N291018104700000000000102012180000000000000000000000000000000000000000100079042708700ANTONIO CARLOS DE MIRANDA PACH          RUA SOLDADO BRUNO ESTRIFICA             CURICICA - J22780600RIO DE JANEIRO RJUNIAO UMB DOS CULTOS AFRO BRAS    20121810 000137
10231987175000168817800093673    000029185                    000291850000000000000109                     I0129185     20121800000000035003410000017N291018104700000000000102012180000000000000000000000000000000000000000100054101778787ROSARIA MARIA DAS CHAGAS DA SI          RUA DA AERONAUTICA                      SENADOR CAMA21831410RIO DE JANEIRO RJUNIAO UMB DOS CULTOS AFRO BRAS    20121810 000138
10231987175000168817800093673    000029184                    000291840000000000000109                     I0129184     20121800000000035003410000017N291018104700000000000102012180000000000000000000000000000000000000000100088831051768ELISETE MOREIRA DE OLIVEIRA             RUA JOSE MACHADO                        IRAJA       21361360RIO DE JANEIRO RJUNIAO UMB DOS CULTOS AFRO BRAS    20121810 000139
10231987175000168817800093673    000029183                    000291830000000000000109                     I0129183     20121800000000035003410000017N291018104700000000000102012180000000000000000000000000000000000000000100070852600763RITA MORAES DA SILVA                    RUA SAFIRA                              COELHO DA RO25550580SAO JOAO DE MERRJUNIAO UMB DOS CULTOS AFRO BRAS    20121810 000140
10231987175000168817800093673    000029182                    000291820000000000000109                     I0129182     20121800000000035003410000017N291018104700000000000102012180000000000000000000000000000000000000000100024743216753VANDERLAN JOSE MARVAO                   AVENIDA SAMPAIO CORREIA                 SANTA LUZIA 24722500SAO GONCALO    RJUNIAO UMB DOS CULTOS AFRO BRAS    20121810 000141
10231987175000168817800093673    000029181                    000291810000000000000109                     I0129181     20121800000000035003410000017N291018104700000000000102012180000000000000000000000000000000000000000100002036570712ANDREIA SANTANNA DO NASCIMENTO          RUA ARARIBOIA                           VILAR DOS TE25570190SAO JOAO DE MERRJUNIAO UMB DOS CULTOS AFRO BRAS    20121810 000142
10231987175000168817800093673    000029180                    000291800000000000000109                     I0129180     20121800000000035003410000017N291018104700000000000102012180000000000000000000000000000000000000000100000000000000MARIA DA PIEDADE SANTANA DOS S          RUA SERGIO JOAO PEREIRA                 HELIOPOLIS  26123120BELFORD ROXO   RJUNIAO UMB DOS CULTOS AFRO BRAS    20121810 000143
10231987175000168817800093673    000029179                    000291790000000000000109                     I0129179     20121800000000035003410000017N291018104700000000000102012180000000000000000000000000000000000000000100076103137774VICENTE DE PAULA PEREIRA                RUA POTINGUARA                          BOA ESPERANC26113720BELFORD ROXO   RJUNIAO UMB DOS CULTOS AFRO BRAS    20121810 000144
10231987175000168817800093673    000029178                    000291780000000000000109                     I0129178     20121800000000035003410000017N291018104700000000000102012180000000000000000000000000000000000000000100010324446730DEBORA ANDRADE SILVA                    RUA NILTON MOLINA                       MAGALHAES BA21746030RIO DE JANEIRO RJUNIAO UMB DOS CULTOS AFRO BRAS    20121810 000145
10231987175000168817800093673    000029177                    000291770000000000000109                     I0129177     20121800000000035003410000017N291018104700000000000102012180000000000000000000000000000000000000000100005556657718EDUARDO DE OLIVEIRA SILVA               AV GETULIO DE MOURA                     A. PORTO    25520660SAO JOAO DE MERRJUNIAO UMB DOS CULTOS AFRO BRAS    20121810 000146
10231987175000168817800093673    000029176                    000291760000000000000109                     I0129176     20121800000000035003410000017N291018104700000000000102012180000000000000000000000000000000000000000100062497073791SIDIRENE FRANCISCO MACHADO              RUA CAMPO MAIOR                         VILA SANTA R23015200CAMPO GRANDE   RJUNIAO UMB DOS CULTOS AFRO BRAS    20121810 000147
10231987175000168817800093673    000029175                    000291750000000000000109                     I0129175     20121800000000035003410000017N291018104700000000000102012180000000000000000000000000000000000000000100003250127760MARIA ZULEICA CRUZ DA SILVA             ESTRADA DOUTOR PLINIO CASADO            PARQUE ROSAR26010421NOVA IGUACU    RJUNIAO UMB DOS CULTOS AFRO BRAS    20121810 000148
10231987175000168817800093673    000029174                    000291740000000000000109                     I0129174     20121800000000035003410000017N291018104700000000000102012180000000000000000000000000000000000000000100014708764774ADILSON CARNEIRO PINTO                  R JUREMA                                GUARATIBA   23035380RIO DE JANEIRO RJUNIAO UMB DOS CULTOS AFRO BRAS    20121810 000149
10231987175000168817800093673    000029173                    000291730000000000000109                     I0129173     20121800000000035003410000017N291018104700000000000102012180000000000000000000000000000000000000000100009886046716ANA CRISTINA DE ALMEIDA TRINDA          RUA COTIJUBA                            ROCHA MIRAND21555020RIO DE JANEIRO RJUNIAO UMB DOS CULTOS AFRO BRAS    20121810 000150
10231987175000168817800093673    000029172                    000291720000000000000109                     I0129172     20121800000000035003410000017N291018104700000000000102012180000000000000000000000000000000000000000100063440512720SILVANA MANGIA DE SOUZA                 RUA ACANTO                              BANGU       21830080RIO DE JANEIRO RJUNIAO UMB DOS CULTOS AFRO BRAS    20121810 000151
10231987175000168817800093673    000029171                    000291710000000000000109                     I0129171     20121800000000035003410000017N291018104700000000000102012180000000000000000000000000000000000000000100063441314700AMARA DE CARVALHO DANIEL                RUA FREDERICO LEAL                      BANGU       21825110RIO DE JANEIRO RJUNIAO UMB DOS CULTOS AFRO BRAS    20121810 000152
10231987175000168817800093673    000029170                    000291700000000000000109                     I0129170     20121800000000035003410000017N291018104700000000000102012180000000000000000000000000000000000000000100072596317753CLAUDIA IVONE CAETANO DA SILVA          RUA NADIA MARIA DA SILVEIRA MENEZES     VENDA VELHA 25580110SAO JOAO DE MERRJUNIAO UMB DOS CULTOS AFRO BRAS    20121810 000153
10231987175000168817800093673    000029169                    000291690000000000000109                     I0129169     20121800000000035003410000017N291018104700000000000102012180000000000000000000000000000000000000000100043397170706VERA LUCIA FERREIRA DA SILVA            RUA ALICE                               COMENDADOR S26262030NOVA IGUACU    RJUNIAO UMB DOS CULTOS AFRO BRAS    20121810 000154
10231987175000168817800093673    000029168                    000291680000000000000109                     I0129168     20121800000000035003410000017N291018104700000000000102012180000000000000000000000000000000000000000100089041950710ANA LUCIA GUIMARAES MOURA ALVE          RUA CAMBAUDA                            JARDIM GUANA20940000RIO DE JANEIRO RJUNIAO UMB DOS CULTOS AFRO BRAS    20121810 000155
10231987175000168817800093673    000029167                    000291670000000000000109                     I0129167     20121800000000035003410000017N291018104700000000000102012180000000000000000000000000000000000000000100015827814784THAYNAN ERNANDES DA SILVA PINH          RUA EXPEDICIONARIO AMERICO FERNANDES    RIO DO OURO 24752300SAO GONCALO    RJUNIAO UMB DOS CULTOS AFRO BRAS    20121810 000156
10231987175000168817800093673    000029166                    000291660000000000000109                     I0129166     20121800000000035003410000017N291018104700000000000102012180000000000000000000000000000000000000000100000000000000MARCO ANTONIO DA COSTA                  RUA LOIR NOGUEIRA                       RIO DO OURO 24752840SAO GONCALO    RJUNIAO UMB DOS CULTOS AFRO BRAS    20121810 000157
10231987175000168817800093673    000029165                    000291650000000000000109                     I0129165     20121800000000035003410000017N291018104700000000000102012180000000000000000000000000000000000000000100020857690701MARCELO ANTONIO COSTA TEIXEIRA          RUA TUPINIQUINS                         VICENTE DE C21370630RIO DE JANEIRO RJUNIAO UMB DOS CULTOS AFRO BRAS    20121810 000158
10231987175000168817800093673    000029164                    000291640000000000000109                     I0129164     20121800000000035003410000017N291018104700000000000102012180000000000000000000000000000000000000000100000000000767HUGO XAVIER                             RUA EUGENIO SIMOES                      ITAUNA      24473000RIO DE JANEIRO RJUNIAO UMB DOS CULTOS AFRO BRAS    20121810 000159
10231987175000168817800093673    000029163                    000291630000000000000109                     I0129163     20121800000000035003410000017N291018104700000000000102012180000000000000000000000000000000000000000100078980119704SERGIO LUIZ DE BRITO                    TRAVESSA BRANDAO                        BARRETO     24110636NITEROI        RJUNIAO UMB DOS CULTOS AFRO BRAS    20121810 000160
10231987175000168817800093673    000029162                    000291620000000000000109                     I0129162     20121800000000035003410000017N291018104700000000000102012180000000000000000000000000000000000000000100073518573772MERCIA DO NASCIMENTO CAVALCANT          RUA BERNARDO MONTEIRO                   JARDIM OLAVO25025320DUQUE DE CAXIASRJUNIAO UMB DOS CULTOS AFRO BRAS    20121810 000161
10231987175000168817800093673    000029161                    000291610000000000000109                     I0129161     20121800000000035003410000017N291018104700000000000102012180000000000000000000000000000000000000000100054222141704WALMIR CARVALHO GUIMARAES               RUA BOA VIAGEM                          IPIRANGA    26293591NOVA IGUACU    RJUNIAO UMB DOS CULTOS AFRO BRAS    20121810 000162
10231987175000168817800093673    000029160                    000291600000000000000109                     I0129160     20121800000000035003410000017N291018104700000000000102012180000000000000000000000000000000000000000100056864680797SONIA MARIA DA SILVA                    RUA A                                   CAMBOTA     27600000VALENCIA       RJUNIAO UMB DOS CULTOS AFRO BRAS    20121810 000163
10231987175000168817800093673    000029159                    000291590000000000000109                     I0129159     20121800000000040003410000017N291018104700000000000102012180000000000000000000000000000000000000000100001478169710TANIA MARIA ALVES CANEJO                ESTRADA DA CONCEICAO                    SURUI       25920530RIO DE JANEIRO RJUNIAO UMB DOS CULTOS AFRO BRAS    20121810 000164
10231987175000168817800093673    000029158                    000291580000000000000109                     I0129158     20121800000000035003410000017N291018104700000000000102012180000000000000000000000000000000000000000100003537257732MARIA APARECIDA RISTICH MACHAD          RUA DIAS DA CRUZ                        MEIER       20720011RIO DE JANEIRO RJUNIAO UMB DOS CULTOS AFRO BRAS    20121810 000165
10231987175000168817800093673    000029157                    000291570000000000000109                     I0129157     20121800000000035003410000017N291018104700000000000102012180000000000000000000000000000000000000000100002309597767ELISETE DE SOUZA GOMES                  RUA CLEIDE TAVORA                       MONTE CASTEL26041145NOVA IGUACU    RJUNIAO UMB DOS CULTOS AFRO BRAS    20121810 000166
10231987175000168817800093673    000029156                    000291560000000000000109                     I0129156     20121800000000035003410000017N291018104700000000000102012180000000000000000000000000000000000000000100076896960744MARIA LUCIA DE OLIVEIRA NUNES           AVENIDA DO CORRETOR                     VILA ALIANCA21842340RIO DE JANEIRO RJUNIAO UMB DOS CULTOS AFRO BRAS    20121810 000167
10231987175000168817800093673    000029155                    000291550000000000000109                     I0129155     20121800000000035003410000017N291018104700000000000102012180000000000000000000000000000000000000000100000000000000APARECIDA SILVA RIBEIRO                 RUA ANTONIO ALEXANDRE DE OLIVEIRA       CENTRO      25515053SAO JOAO DE MERRJUNIAO UMB DOS CULTOS AFRO BRAS    20121810 000168
10231987175000168817800093673    000029154                    000291540000000000000109                     I0129154     20121800000000035003410000017N291018104700000000000102012180000000000000000000000000000000000000000100092410480772JOSE LIMA DA SILVA                      RUA JURANDIR LIMA                       SANTA RITA -26051040NOVA IGUACU    RJUNIAO UMB DOS CULTOS AFRO BRAS    20121810 000169
10231987175000168817800093673    000029153                    000291530000000000000109                     I0129153     20121800000000035003410000017N291018104700000000000102012180000000000000000000000000000000000000000100000000007532CARLOS MURILO CARDOSO DE CARVA          RUA FRANCISCO JOSE DA SILVA             PACHECO     24730002SAO GONCALO    RJUNIAO UMB DOS CULTOS AFRO BRAS    20121810 000170
10231987175000168817800093673    000029152                    000291520000000000000109                     I0129152     20121800000000035003410000017N291018104700000000000102012180000000000000000000000000000000000000000100055177182720VALNEI FERNANDES DA SILVA               RUA DOUTOR JOSE MANOEL                  SANTA CATARI24420070SAO GONCALO    RJUNIAO UMB DOS CULTOS AFRO BRAS    20121810 000171
10231987175000168817800093673    000029151                    000291510000000000000109                     I0129151     20121800000000035003410000017N291018104700000000000102012180000000000000000000000000000000000000000100007062360767IVONETE GOMES DOS SANTOS                AVENIDA PORTO DA MADAME                 GRADIM      24431310SAO GONCALO    RJUNIAO UMB DOS CULTOS AFRO BRAS    20121810 000172
10231987175000168817800093673    000029150                    000291500000000000000109                     I0129150     20121800000000035003410000017N291018104700000000000102012180000000000000000000000000000000000000000100000475441710KASSIA DAMAZIO SOBRINHO                 RUA OPNIAO LIBERA                       JACAREPAGUA 22715130RIO DE JANEIRO RJUNIAO UMB DOS CULTOS AFRO BRAS    20121810 000173
10231987175000168817800093673    000029149                    000291490000000000000109                     I0129149     20121800000000035003410000017N291018104700000000000102012180000000000000000000000000000000000000000100000000000000VANIA MEDEIROS COUTINHO                 RUA TEREZA                              PARQUE SUECI25245470BELFORD ROXO   RJUNIAO UMB DOS CULTOS AFRO BRAS    20121810 000174
10231987175000168817800093673    000029148                    000291480000000000000109                     I0129148     20121800000000035003410000017N291018104700000000000102012180000000000000000000000000000000000000000100000000000000MARIA DA PENHA ANASTACIA DE OL          RUA MARATUBA                            RICARDO DE A21620430RIO DE JANEIRO RJUNIAO UMB DOS CULTOS AFRO BRAS    20121810 000175
10231987175000168817800093673    000029147                    000291470000000000000109                     I0129147     20121800000000035003410000017N291018104700000000000102012180000000000000000000000000000000000000000100000000000000DAVID MOREIRA DE MENDONCA               RUA GENERAL RENATO PIQUET               VILA PARAISO23825460ITAGUAI        RJUNIAO UMB DOS CULTOS AFRO BRAS    20121810 000176
10231987175000168817800093673    000029146                    000291460000000000000109                     I0129146     20121800000000035003410000017N291018104700000000000102012180000000000000000000000000000000000000000100069085986753CARMEM PIRES DE SOUZA                   RUA PRAIA DE BOTAFOGO                   BOTAFOGO    22250040RIO DE JANEIRO RJUNIAO UMB DOS CULTOS AFRO BRAS    20121810 000177
10231987175000168817800093673    000029145                    000291450000000000000109                     I0129145     20121800000000035003410000017N291018104700000000000102012180000000000000000000000000000000000000000100084964910725LIA MARIA DA SILVA                      RUA ANTONIO CARLOS                      COLUBANDE   24744020SAO GONCALO    RJUNIAO UMB DOS CULTOS AFRO BRAS    20121810 000178
10231987175000168817800093673    000029144                    000291440000000000000109                     I0129144     20121800000000040003410000017N291018104700000000000102012180000000000000000000000000000000000000000100000000000000JOSE AMERICO ELIAS DE MIRANDA           RUA JAIME MUNIZ                         ITAUNA      24474070SAO GONCALO    RJUNIAO UMB DOS CULTOS AFRO BRAS    20121810 000179
10231987175000168817800093673    000029143                    000291430000000000000109                     I0129143     20121800000000035003410000017N291018104700000000000102012180000000000000000000000000000000000000000100061991465734JANDIRA AMELIA PAULA DE OLIVEI          RUA SALVADOR DO MONTE                   BOACU       24467300SAO GONCALO    RJUNIAO UMB DOS CULTOS AFRO BRAS    20121810 000180
10231987175000168817800093673    000029142                    000291420000000000000109                     I0129142     20121800000000035003410000017N291018104700000000000102012180000000000000000000000000000000000000000100002734506700CARLOS HENRIQUE ARAUJO                  RUA: MARQUES CANARIO                    NOSSA SENHOR26520770NILOPOLIS      RJUNIAO UMB DOS CULTOS AFRO BRAS    20121810 000181
10231987175000168817800093673    000029141                    000291410000000000000109                     I0129141     20121800000000035003410000017N291018104700000000000102012180000000000000000000000000000000000000000100044188269715SEBASTIANA SOUZA SANTOS                 RUA: ARI BARROSO                        JARDIM LUCIA26050410NOVA IGUACU    RJUNIAO UMB DOS CULTOS AFRO BRAS    20121810 000182
10231987175000168817800093673    000029140                    000291400000000000000109                     I0129140     20121800000000035003410000017N291018104700000000000102012180000000000000000000000000000000000000000100000000000715LECY PEREIRA CARDOSO                    ESTRADA: DO CARRO QUEBRADO              FIGUEIRAS   26051740NOVA IGUACU    RJUNIAO UMB DOS CULTOS AFRO BRAS    20121810 000183
10231987175000168817800093673    000029139                    000291390000000000000109                     I0129139     20121800000000035003410000017N291018104700000000000102012180000000000000000000000000000000000000000100018801293704NORMA RAMOS VIANNA                      AVENIDA PERNAMBUCANA                    VILA ROSALI 25510430SAO JOAO DE MERRJUNIAO UMB DOS CULTOS AFRO BRAS    20121810 000184
10231987175000168817800093673    000029138                    000291380000000000000109                     I0129138     20121800000000035003410000017N291018104700000000000102012180000000000000000000000000000000000000000100082347301772MARISTELA TORQUATO SILVA BRITT          RUA JOAO DA MATA PEIXOTO                CENTRO      26535340NILOPOLIS      RJUNIAO UMB DOS CULTOS AFRO BRAS    20121810 000185
10231987175000168817800093673    000029137                    000291370000000000000109                     I0129137     20121800000000035003410000017N291018104700000000000102012180000000000000000000000000000000000000000100000000000000MARIA CANDIDA BRANDAO ALVES             RUA MARLICE EMANUEL                     JARDIM ALVOR26265230NOVA IGUACU    RJUNIAO UMB DOS CULTOS AFRO BRAS    20121810 000186
10231987175000168817800093673    000029136                    000291360000000000000109                     I0129136     20121800000000035003410000017N291018104700000000000102012180000000000000000000000000000000000000000100000000019700FATIMA APARECIDA AZEVEDO DE AL          MESMO                                   MESMO       26165420RIO DE JANEIRO RJUNIAO UMB DOS CULTOS AFRO BRAS    20121810 000187
10231987175000168817800093673    000029135                    000291350000000000000109                     I0129135     20121800000000035003410000017N291018104700000000000102012180000000000000000000000000000000000000000100031471811700GLORIA CORREIA                          RUA SA FERREIRA                         COPACABANA  22071101RIO DE JANEIRO RJUNIAO UMB DOS CULTOS AFRO BRAS    20121810 000188
10231987175000168817800093673    000029134                    000291340000000000000109                     I0129134     20121800000000035003410000017N291018104700000000000102012180000000000000000000000000000000000000000100001272334740VALERIA MARIA MOREIRA                   RUA EUDINO EGGER                        JARDIM CATAR24717015SAO GONCALO    RJUNIAO UMB DOS CULTOS AFRO BRAS    20121810 000189
10231987175000168817800093673    000029133                    000291330000000000000109                     I0129133     20121800000000040003410000017N291018104700000000000102012180000000000000000000000000000000000000000100041006321711WALMIR DURAES LEAL                      RUA TUPACERETA                          SAO BERNARDO26165200BELFORD ROXO   RJUNIAO UMB DOS CULTOS AFRO BRAS    20121810 000190
10231987175000168817800093673    000029132                    000291320000000000000109                     I0129132     20121800000000035003410000017N291018104700000000000102012180000000000000000000000000000000000000000100097512770782DULCINEIA CAPUTE                        AVENIDA ITAGUAI                         ENGENHO     23820306ITAGUAI        RJUNIAO UMB DOS CULTOS AFRO BRAS    20121810 000191
10231987175000168817800093673    000029131                    000291310000000000000109                     I0129131     20121800000000035003410000017N291018104700000000000102012180000000000000000000000000000000000000000100000237914387JOSE EDILSON RABELO CAULA               ESTRADA DOS BANDEIRANTES                VARGEM GRAND20231046RIO DE JANEIRO RJUNIAO UMB DOS CULTOS AFRO BRAS    20121810 000192
10231987175000168817800093673    000029130                    000291300000000000000109                     I0129130     20121800000000035003410000017N291018104700000000000102012180000000000000000000000000000000000000000100050475142772LUIZ GONCALVES COLARES                  RUA LEONEL BRIZOLA                      PACIENCIA   23587010RIO DE JANEIRO RJUNIAO UMB DOS CULTOS AFRO BRAS    20121810 000193
10231987175000168817800093673    000029129                    000291290000000000000109                     I0129129     20121800000000035003410000017N291018104700000000000102012180000000000000000000000000000000000000000100000000000000ROSINEIA MARTINS DE ARRUDA              RUA ALBERTO DE MELO                     COMENDADOR S26280310NOVA IGUACU    RJUNIAO UMB DOS CULTOS AFRO BRAS    20121810 000194
10231987175000168817800093673    000029128                    000291280000000000000109                     I0129128     20121800000000035003410000017N291018104700000000000102012180000000000000000000000000000000000000000100006980782762ALEX SANDRO INACIO DO NASCIMEN          TRAVESSA SAO TIAGO                      PARQUE SAO F26298686NOVA IGUACU    RJUNIAO UMB DOS CULTOS AFRO BRAS    20121810 000195
10231987175000168817800093673    000029127                    000291270000000000000109                     I0129127     20121800000000035003410000017N291018104700000000000102012180000000000000000000000000000000000000000100000000000000EDEVALDO NUNES                          RUA DO ROTEIRO                          AUGUSTO VASC23012370RIO DE JANEIRO RJUNIAO UMB DOS CULTOS AFRO BRAS    20121810 000196
10231987175000168817800093673    000029126                    000291260000000000000109                     I0129126     20121800000000035003410000017N291018104700000000000102012180000000000000000000000000000000000000000100045471240782MARIA HELENA DE SOUZA FREITAS           ESTRADA BELFORD ROXO                    BOM PASTOR  26131970BELFORD ROXO   RJUNIAO UMB DOS CULTOS AFRO BRAS    20121810 000197
10231987175000168817800093673    000029125                    000291250000000000000109                     I0129125     20121800000000035003410000017N291018104700000000000102012180000000000000000000000000000000000000000100044029640753CREMILDA CONCEICAO LOPES                RUA MARQUES DE ARACATU                  IRAJA       21235250RIO DE JANEIRO RJUNIAO UMB DOS CULTOS AFRO BRAS    20121810 000198
10231987175000168817800093673    000029124                    000291240000000000000109                     I0129124     20121800000000035003410000017N291018104700000000000102012180000000000000000000000000000000000000000100000120098733MARIA APARECIDA SOUZA DA SILVA          RUA NOVE                                PRAIA DE MAU25930000MAGE           RJUNIAO UMB DOS CULTOS AFRO BRAS    20121810 000199
10231987175000168817800093673    000029123                    000291230000000000000109                     I0129123     20121800000000035003410000017N291018104700000000000102012180000000000000000000000000000000000000000100000000000686HILDA REGINA NICANOR DOS SANTO          RUA PASSO FUNDO - KM 35                 JARDIM GUAND26298189NOVA IGUACU    RJUNIAO UMB DOS CULTOS AFRO BRAS    20121810 000200
10231987175000168817800093673    000029122                    000291220000000000000109                     I0129122     20121800000000035003410000017N291018104700000000000102012180000000000000000000000000000000000000000100007120562703JANETE RIBEIRO DE ALMEIDA               RUA MARIA TEREZA                        CABUCU      26347030NOVA IGUACU    RJUNIAO UMB DOS CULTOS AFRO BRAS    20121810 000201
10231987175000168817800093673    000029121                    000291210000000000000109                     I0129121     20121800000000035003410000017N291018104700000000000102012180000000000000000000000000000000000000000100050995510768MARIA DAS GRACAS DE ANDRADE             RUA CORONEL FRANCA LEITE                FABRICA POLV26246430NILOPOLIS      RJUNIAO UMB DOS CULTOS AFRO BRAS    20121810 000202
10231987175000168817800093673    000029120                    000291200000000000000109                     I0129120     20121800000000035003410000017N291018104700000000000102012180000000000000000000000000000000000000000100008839877754DEISE CORREIA ALVES SILVA               PRACA FLAMENGO                          SANTA TEREZA25086090DUQUE DE CAXIASRJUNIAO UMB DOS CULTOS AFRO BRAS    20121810 000203
10231987175000168817800093673    000029119                    000291190000000000000109                     I0129119     20121800000000035003410000017N291018104700000000000102012180000000000000000000000000000000000000000100000000000000HELOIZA HELENA COSTA LIMA               RUA DOUTOR ALCINDO RAFAEL               ITAMARATI   26262060NOVA IGUACU    RJUNIAO UMB DOS CULTOS AFRO BRAS    20121810 000204
10231987175000168817800093673    000029118                    000291180000000000000109                     I0129118     20121800000000035003410000017N291018104700000000000102012180000000000000000000000000000000000000000100000000000682MANOELINA DE PAULA SILVA                TRAVESSA FRANCISCO COUTO                VILA ISABEL 25811080TRES RIOS      RJUNIAO UMB DOS CULTOS AFRO BRAS    20121810 000205
10231987175000168817800093673    000029117                    000291170000000000000109                     I0129117     20121800000000035003410000017N291018104700000000000102012180000000000000000000000000000000000000000100001045146714ELIANE RIBEIRO MACEDO                   RUA SANTA GLICERIA                      PADRE MIGUEL21725320RIO DE JANEIRO RJUNIAO UMB DOS CULTOS AFRO BRAS    20121810 000206
10231987175000168817800093673    000029116                    000291160000000000000109                     I0129116     20121800000000035003410000017N291018104700000000000102012180000000000000000000000000000000000000000100051398060704ELIZABETH MONTEIRO MOREIRA DA           RUA IBITINGA                            PARQUE SAO B26167160BELFORD ROXO   RJUNIAO UMB DOS CULTOS AFRO BRAS    20121810 000207
10231987175000168817800093673    000029115                    000291150000000000000109                     I0129115     20121800000000035003410000017N291018104700000000000102012180000000000000000000000000000000000000000100071002782791ELIANE PIRES SOUZA                      RUA IBITINGA                            PARQUE SAO B26167160BELFORD ROXO   RJUNIAO UMB DOS CULTOS AFRO BRAS    20121810 000208
10231987175000168817800093673    000029114                    000291140000000000000109                     I0129114     20121800000000035003410000017N291018104700000000000102012180000000000000000000000000000000000000000100058739920704ELISABETH DE OLIVEIRA LOUREDO           EST: COMANDANTE LUIZ SOUTO              TANQUE - JAC22733040RIO DE JANEIRO RJUNIAO UMB DOS CULTOS AFRO BRAS    20121810 000209
10231987175000168817800093673    000029113                    000291130000000000000109                     I0129113     20121800000000040003410000017N291018104700000000000102012180000000000000000000000000000000000000000100081994699787MARCIA HELENA CORREIA DE LIMA           RUA FRANCISCO ALENCAR                   SEPETIBA    23530540RIO DE JANEIRO RJUNIAO UMB DOS CULTOS AFRO BRAS    20121810 000210
10231987175000168817800093673    000029112                    000291120000000000000109                     I0129112     20121800000000035003410000017N291018104700000000000102012180000000000000000000000000000000000000000100095274987753PAULO SERGIO BARBOSA DA CUNHA           RUA DAS BORBOLETAS                      BANGU       26323450RIO DE JANEIRO RJUNIAO UMB DOS CULTOS AFRO BRAS    20121810 000211
10231987175000168817800093673    000029111                    000291110000000000000109                     I0129111     20121800000000035003410000017N291018104700000000000102012180000000000000000000000000000000000000000100000000000000ANTONIO CARLOS ANTUNES BASTOS           AVENIDA ITATIAIA                        VILA ITAMARA25065095DUQUE DE CAXIASRJUNIAO UMB DOS CULTOS AFRO BRAS    20121810 000212
10231987175000168817800093673    000029110                    000291100000000000000109                     I0129110     20121800000000035003410000017N291018104700000000000102012180000000000000000000000000000000000000000100084244224734JORGE MARCELO TINTEL                    RUA ANTONIO BRAGA FILHO                 SEPETIBA    23530220RIO DE JANEIRO RJUNIAO UMB DOS CULTOS AFRO BRAS    20121810 000213
10231987175000168817800093673    000029109                    000291090000000000000109                     I0129109     20121800000000035003410000017N291018104700000000000102012180000000000000000000000000000000000000000100000000000000SONIA MARIA DOS REMEDIOS                RUA SAO LUIZ                            PRAIA DO SAC23860000MANGARATIBA    RJUNIAO UMB DOS CULTOS AFRO BRAS    20121810 000214
10231987175000168817800093673    000029108                    000291080000000000000109                     I0129108     20121800000000035003410000017N291018104700000000000102012180000000000000000000000000000000000000000100000000000000JULIA MARIA DA CONCEICAO                RUA ELIZETE DA SILVA TARGINO            BRISAMAR    23823290ITAGUAI        RJUNIAO UMB DOS CULTOS AFRO BRAS    20121810 000215
10231987175000168817800093673    000029107                    000291070000000000000109                     I0129107     20121800000000035003410000017N291018104700000000000102012180000000000000000000000000000000000000000100077688406749ROSA MARIA PINHEIRO                     RUA K                                   BRISAMAR    23826230ITAGUAI        RJUNIAO UMB DOS CULTOS AFRO BRAS    20121810 000216
10231987175000168817800093673    000029106                    000291060000000000000109                     I0129106     20121800000000035003410000017N291018104700000000000102012180000000000000000000000000000000000000000100000000000657LUIZ CLAUDIO BATISTA REIS               RUA ANTONIO LOPES DOS SANTOS            LARGO DA BAT24315384NITEROI        RJUNIAO UMB DOS CULTOS AFRO BRAS    20121810 000217
10231987175000168817800093673    000029105                    000291050000000000000109                     I0129105     20121800000000035003410000017N291018104700000000000102012180000000000000000000000000000000000000000100000684105730MARIA DARLI BARBOSA                     RUA DEPUTADO ULISSES GUIMARAES          BRISAMAR    23826433ITAGUAI        RJUNIAO UMB DOS CULTOS AFRO BRAS    20121810 000218
10231987175000168817800093673    000029104                    000291040000000000000109                     I0129104     20121800000000035003410000017N291018104700000000000102012180000000000000000000000000000000000000000100083326952791JOSELITA BATISTA DE OLIVEIRA            RUA: ELIZETE DA SILVA TAGINO            BRISAMAR    23830000ITAGUAI        RJUNIAO UMB DOS CULTOS AFRO BRAS    20121810 000219
10231987175000168817800093673    000029103                    000291030000000000000109                     I0129103     20121800000000035003410000017N291018104700000000000102012180000000000000000000000000000000000000000100044451318734NILZA MUNIZ FIRMINO                     RUA PEDRO AMERICO                       COLUBANDE   24450480SAO GONCALO    RJUNIAO UMB DOS CULTOS AFRO BRAS    20121810 000220
10231987175000168817800093673    000029102                    000291020000000000000109                     I0129102     20121800000000035003410000017N291018104700000000000102012180000000000000000000000000000000000000000100000000000656GINO ZACARIAS DE JESUS                  RUA NOVE                                VILA GENI   23830010ITAGUAI        RJUNIAO UMB DOS CULTOS AFRO BRAS    20121810 000221
10231987175000168817800093673    000029101                    000291010000000000000109                     I0129101     20121800000000035003410000017N291018104700000000000102012180000000000000000000000000000000000000000100041602790744PAULO LEANDRO FONTES                    RUA PADRE JULIO MARIA                   SANTA CRUZ  27288490VOLTA REDONDA  RJUNIAO UMB DOS CULTOS AFRO BRAS    20121810 000222
10231987175000168817800093673    000029100                    000291000000000000000109                     I0129100     20121800000000035003410000017N291018104700000000000102012180000000000000000000000000000000000000000100068331428749IVANILDA DOS SANTOS                     RUA RIBEIRAO DO SUL                     GUARATIBA   23026590RIO DE JANEIRO RJUNIAO UMB DOS CULTOS AFRO BRAS    20121810 000223
10231987175000168817800093673    000029099                    000290990000000000000109                     I0129099     20121800000000035003410000017N291018104700000000000102012180000000000000000000000000000000000000000100000000000000MARIA LUCIA BENJAMIN DE FREITA          RUA QUITO                               JARDIM PRIMA25223150RIO DE JANEIRO RJUNIAO UMB DOS CULTOS AFRO BRAS    20121810 000224
10231987175000168817800093673    000029098                    000290980000000000000109                     I0129098     20121800000000035003410000017N291018104700000000000102012180000000000000000000000000000000000000000100000000000000SONIA MARIA RODRIGUES LONTRA M          TRAVESSA TITO RABELO                    CAMPO GRANDE23017240RIO DE JANEIRO RJUNIAO UMB DOS CULTOS AFRO BRAS    20121810 000225
10231987175000168817800093673    000029097                    000290970000000000000109                     I0129097     20121800000000035003410000017N291018104700000000000102012180000000000000000000000000000000000000000100037345095720VERA LUCIA DA CRUZ NEVES                RUA RODRIGUES CAMPELO                   CAMPO GRANDE23017210RIO DE JANEIRO RJUNIAO UMB DOS CULTOS AFRO BRAS    20121810 000226
10231987175000168817800093673    000029096                    000290960000000000000109                     I0129096     20121800000000035003410000017N291018104700000000000102012180000000000000000000000000000000000000000100001115386700DILZA TORRES PINTO DE JESUS             RUA MARECHAL BARBEDO                    REALENGO    21735340RIO DE JANEIRO RJUNIAO UMB DOS CULTOS AFRO BRAS    20121810 000227
10231987175000168817800093673    000029095                    000290950000000000000109                     I0129095     20121800000000035003410000017N291018104700000000000102012180000000000000000000000000000000000000000100085789569749VALMIR DE SOUZA RIBEIRO                 RUA NEPOMUCENO                          REALENGO    21715080RIO DE JANEIRO RJUNIAO UMB DOS CULTOS AFRO BRAS    20121810 000228
10231987175000168817800093673    000029094                    000290940000000000000109                     I0129094     20121800000000035003410000017N291018104700000000000102012180000000000000000000000000000000000000000100000000000000LUIZ CARLOS AMATE                       RUA ITABIRA                             BRAS DE PINA21215310RIO DE JANEIRO RJUNIAO UMB DOS CULTOS AFRO BRAS    20121810 000229
10231987175000168817800093673    000029093                    000290930000000000000109                     I0129093     20121800000000035003410000017N291018104700000000000102012180000000000000000000000000000000000000000100001796220728MARIA ROSA ALVES DA SILVA               RUA DOUTOR ARRUDA NEGREIRO              PARQUE SENHO25025325DUQUE DE CAXIASRJUNIAO UMB DOS CULTOS AFRO BRAS    20121810 000230
10231987175000168817800093673    000029092                    000290920000000000000109                     I0129092     20121800000000035003410000017N291018104700000000000102012180000000000000000000000000000000000000000100071411780744ZULTAMAR MESQUITA DE ALMEIDA            RUA DAS CRIANCAS                        INHOAIBA - P23059487NILOPOLIS      RJUNIAO UMB DOS CULTOS AFRO BRAS    20121810 000231
10231987175000168817800093673    000029091                    000290910000000000000109                     I0129091     20121800000000035003410000017N291018104700000000000102012180000000000000000000000000000000000000000100098693043168REJANE VIEIRA GOMES                     RUA TAPIRANGA                           PADRE MIGUEL21775470RIO DE JANEIRO RJUNIAO UMB DOS CULTOS AFRO BRAS    20121810 000232
10231987175000168817800093673    000029090                    000290900000000000000109                     I0129090     20121800000000035003410000017N291018104700000000000102012180000000000000000000000000000000000000000100000000000000CELIO DELDUQUE                          RUA DOMINGOS PIRES                      PILARES     20750160RIO DE JANEIRO RJUNIAO UMB DOS CULTOS AFRO BRAS    20121810 000233
10231987175000168817800093673    000029089                    000290890000000000000109                     I0129089     20121800000000035003410000017N291018104700000000000102012180000000000000000000000000000000000000000100001015032702GABRIEL MENEZES                         RUA LINO FONSECA                        OSVALDO CRUZ21340540SAO PEDRO DA ALRJUNIAO UMB DOS CULTOS AFRO BRAS    20121810 000234
10231987175000168817800093673    000029088                    000290880000000000000109                     I0129088     20121800000000035003410000017N291018104700000000000102012180000000000000000000000000000000000000000100030341108715SUELENA DA SILVA MARTINS                RUA PAULO DE AQUINO                     ANCHIETA    21645500RIO DE JANEIRO RJUNIAO UMB DOS CULTOS AFRO BRAS    20121810 000235
10231987175000168817800093673    000029087                    000290870000000000000109                     I0129087     20121800000000035003410000017N291018104700000000000102012180000000000000000000000000000000000000000100059135085720CELIA MARINHO VIEIRA                    RUA MARICOABO                           PEDRA DE GUA23028290RIO DE JANEIRO RJUNIAO UMB DOS CULTOS AFRO BRAS    20121810 000236
10231987175000168817800093673    000029086                    000290860000000000000109                     I0129086     20121800000000035003410000017N291018104700000000000102012180000000000000000000000000000000000000000100000000000000MARIA JOSE DOS SANTOS                   RUA JOSE MARIOZZI FILHO                 PRAIA DA BRI23028400RIO DE JANEIRO RJUNIAO UMB DOS CULTOS AFRO BRAS    20121810 000237
10231987175000168817800093673    000029085                    000290850000000000000109                     I0129085     20121800000000035003410000017N291018104700000000000102012180000000000000000000000000000000000000000100075300931772ALTAIR DE SOUZA COSTA                   RUA SETE DE SETEMBRO                    CABUCU      26293486NOVA IGUACU    RJUNIAO UMB DOS CULTOS AFRO BRAS    20121810 000238
10231987175000168817800093673    000029084                    000290840000000000000109                     I0129084     20121800000000035003410000017N291018104700000000000102012180000000000000000000000000000000000000000100043082033768LEILA RAMOS DE OLIVEIRA                 RUA CAPIBARIBE                          CABUCU      26346290NOVA IGUACU    RJUNIAO UMB DOS CULTOS AFRO BRAS    20121810 000239
10231987175000168817800093673    000029083                    000290830000000000000109                     I0129083     20121800000000035003410000017N291018104700000000000102012180000000000000000000000000000000000000000100000000000000ROSEMERE THEODORO DA SILVA              BECO ECA DE QUEIROZ                     VILA SANTO A25040355DUQUE DE CAXIASRJUNIAO UMB DOS CULTOS AFRO BRAS    20121810 000240
10231987175000168817800093673    000029082                    000290820000000000000109                     I0129082     20121800000000035003410000017N291018104700000000000102012180000000000000000000000000000000000000000100054571715743VILMA OLIVEIRA DOS SANTOS               RUA CORREIA DIAS                        VIGARIO GERA21241310RIO DE JANEIRO RJUNIAO UMB DOS CULTOS AFRO BRAS    20121810 000241
10231987175000168817800093673    000029081                    000290810000000000000109                     I0129081     20121800000000035003410000017N291018104700000000000102012180000000000000000000000000000000000000000100000000000000JORGE LUCIO                             AVENIDA DOS ITALIANOS                   ROCHA MIRAND21510105RIO DE JANEIRO RJUNIAO UMB DOS CULTOS AFRO BRAS    20121810 000242
10231987175000168817800093673    000029080                    000290800000000000000109                     I0129080     20121800000000035003410000017N291018104700000000000102012180000000000000000000000000000000000000000100000000000000MARCOS AURELIO WOLF GARCIA              RUA PROFESSORA CARMELITA MARTINS        PRACA SECA  21321220RIO DE JANEIRO RJUNIAO UMB DOS CULTOS AFRO BRAS    20121810 000243
10231987175000168817800093673    000029079                    000290790000000000000109                     I0129079     20121800000000035003410000017N291018104700000000000102012180000000000000000000000000000000000000000100000000000000SOLANGE DOS SANTOS SILVA                RUA QUATORZE                            CAMPO GRANDE23090370RIO DE JANEIRO RJUNIAO UMB DOS CULTOS AFRO BRAS    20121810 000244
10231987175000168817800093673    000029078                    000290780000000000000109                     I0129078     20121800000000035003410000017N291018104700000000000102012180000000000000000000000000000000000000000100002477166778BEATRIZ MIRANDA ABRANCHES               RUA GRUCAI                              PENHA       21020250RIO DE JANEIRO RJUNIAO UMB DOS CULTOS AFRO BRAS    20121810 000245
10231987175000168817800093673    000029077                    000290770000000000000109                     I0129077     20121800000000035003410000017N291018104700000000000102012180000000000000000000000000000000000000000100000000000526SILVIA MARIA DE MOURA                   ESTRADA SANTA EFIGENIA,                 TAQUARA - JA22775780RIO DE JANEIRO RJUNIAO UMB DOS CULTOS AFRO BRAS    20121810 000246
10231987175000168817800093673    000029076                    000290760000000000000109                     I0129076     20121800000000035003410000017N291018104700000000000102012180000000000000000000000000000000000000000100090685806715ALDERMAN PAULINO DE OLIVEIRA N          ESTRADA DA AGUA BRANCA                  BANGU - PADR21862371RIO DE JANEIRO RJUNIAO UMB DOS CULTOS AFRO BRAS    20121810 000247
10231987175000168817800093673    000029075                    000290750000000000000109                     I0129075     20121800000000035003410000017N291018104700000000000102012180000000000000000000000000000000000000000100004550495723MARIA ADELAIDE DA SILVA PROFET          RUA ARACA                               RICARDO DE A21620050RIO DE JANEIRO RJUNIAO UMB DOS CULTOS AFRO BRAS    20121810 000248
10231987175000168817800093673    000029074                    000290740000000000000109                     I0129074     20121800000000035003410000017N291018104700000000000102012180000000000000000000000000000000000000000100000000000509DENILZA THIMOTHEO ROZA                  RUA CATAGUASES                          OSWALDO CRUZ21340250RIO DE JANEIRO RJUNIAO UMB DOS CULTOS AFRO BRAS    20121810 000249
