01REMESSA01COBRANCA       916200163100        União Umb dos Cultos Afro Bra341BANCO ITAU SA  040118                                                                                                                                                                                                                                                                                                      000001
10231987175000168916200163100    00008763                     000087630000000000000109                     I018763      31011800000000035003410000017N020118050900000000000103101180000000000000000000000000000000000000000100002411217790WANDERLEI DA CONCEICAO LUIZ             RUA PEREIRA DA NOBREGA, 297 CASA 3      MARECHAL HER21610460RIO DE JANEIRO RJUNIAO UMB DOS CULTOS AFRO BRAS    31011810 000002
10231987175000168916200163100    00008621                     000086210000000000000109                     I018621      31011800000000035003410000017N020118050900000000000103101180000000000000000000000000000000000000000100008861162797MARCIO ARAUJO DE MELO SOUZA             RUA GERALDO LOURENCO, 70 - RIACHAO      JARDIM ROMA 26279325NOVA IGUACU    RJUNIAO UMB DOS CULTOS AFRO BRAS    31011810 000003
10231987175000168916200163100    00008620                     000086200000000000000109                     I018620      31011800000000035003410000017N020118050900000000000103101180000000000000000000000000000000000000000100050534173772IARA FRANCISCO                          RUA BARAO DE MELGACO, 279 FUNDOS        CORDOVIL - R21250320RIO DE JANEIRO RJUNIAO UMB DOS CULTOS AFRO BRAS    31011810 000004
10231987175000168916200163100    00008619                     000086190000000000000109                     I018619      31011800000000035003410000017N020118050900000000000103101180000000000000000000000000000000000000000100051192055772VALNEI VICENTE                          RUA REGINALDO, LOTE 10 E LOTE 11        CENTRO - BEL26173350BELFORD ROXO   RJUNIAO UMB DOS CULTOS AFRO BRAS    31011810 000005
10231987175000168916200163100    00008618                     000086180000000000000109                     I018618      31011800000000035003410000017N020118050900000000000103101180000000000000000000000000000000000000000100076658961700BEATRIZ DIAS DO NASCIMENTO              RUA SAO BRUNO N 55 APT 301              PENHA - RIO 21021160RIO DE JANEIRO RJUNIAO UMB DOS CULTOS AFRO BRAS    31011810 000006
10231987175000168916200163100    00008617                     000086170000000000000109                     I018617      31011800000000035003410000017N020118050900000000000103101180000000000000000000000000000000000000000100058984178772ELIZABETH RIBEIRO VALENTE FARI          RUA VASCO DA GAMA N 1409 - PARQUE ESTORIPARQUE ESTOR26063190NOVA IGUACU    RJUNIAO UMB DOS CULTOS AFRO BRAS    31011810 000007
10231987175000168916200163100    00008616                     000086160000000000000109                     I018616      31011800000000035003410000017N020118050900000000000103101180000000000000000000000000000000000000000100050775561720LEANDRO MECENAS DA CUNHA                RUA GUATOS N 34                         PARQUE SAO C26051640NOVA IGUACU    RJUNIAO UMB DOS CULTOS AFRO BRAS    31011810 000008
10231987175000168916200163100    00008615                     000086150000000000000109                     I018615      31011800000000035003410000017N020118050900000000000103101180000000000000000000000000000000000000000100045619581772EDELZUITA PESSOA DA SILVA               RUA DONA JULIETA N 55 - MIGUEL COUTO    MIGUEL COUTO26147160NOVA IGUACU    RJUNIAO UMB DOS CULTOS AFRO BRAS    31011810 000009
10231987175000168916200163100    00008614                     000086140000000000000109                     I018614      31011800000000035003410000017N020118050900000000000103101180000000000000000000000000000000000000000100092336000768DIVA PINTO ROMUALDO                     RUA PARAISO QUADRA 129 LOTE 26          JARDIM CABUC26357140NOVA IGUACU    RJUNIAO UMB DOS CULTOS AFRO BRAS    31011810 000010
10231987175000168916200163100    00008613                     000086130000000000000109                     I018613      31011800000000035003410000017N020118050900000000000103101180000000000000000000000000000000000000000100007295283757DULCE DOS SANTOS MONTEIRO               AVENIDA ESTACIO DE SA LOTE 32 QUADRA 17 PARQUE NOVO 25585000SAO JOAO DE MERRJUNIAO UMB DOS CULTOS AFRO BRAS    31011810 000011
9                                                                                                                                                                                                                                                                                                                                                                                                         000012
