01REMESSA01COBRANCA       916200163100        União Umb dos Cultos Afro Bra341BANCO ITAU SA  180918                                                                                                                                                                                                                                                                                                      000001
10231987175000168916200163100    000028770                    000287700000000000000109                     I0128770     30111800000000040003410000017N180918104700000000000103011180000000000000000000000000000000000000000100008379116720ALLAN SOUZA PEREIRA FERREIRA            BECO DOS SONHOS                         SANTA CRUZ  23591400RIO DE JANEIRO RJUNIAO UMB DOS CULTOS AFRO BRAS    30111810 000002
10231987175000168916200163100    000028769                    000287690000000000000109                     I0128769     30101800000000040003410000017N180918104700000000000103010180000000000000000000000000000000000000000100008379116720ALLAN SOUZA PEREIRA FERREIRA            BECO DOS SONHOS                         SANTA CRUZ  23591400RIO DE JANEIRO RJUNIAO UMB DOS CULTOS AFRO BRAS    30101810 000003
10231987175000168916200163100    000028768                    000287680000000000000109                     I0128768     30091800000000350003410000017N180918104700000000000103009180000000000000000000000000000000000000000100012450258728MONIQUE RODRIGUES DE ALMEIDA            RUA SESSENTA                            JARDIM MARAV21750400RIO DE JANEIRO RJUNIAO UMB DOS CULTOS AFRO BRAS    30091810 000004
10231987175000168916200163100    000028767                    000287670000000000000109                     I0128767     30111800000000040003410000017N180918104700000000000103011180000000000000000000000000000000000000000100077294653704RICARDO JOSE LIMA LINHARES              RUA DEOLINDA MOTA GUEDES                DANON       26270230RIO DE JANEIRO RJUNIAO UMB DOS CULTOS AFRO BRAS    30111810 000005
10231987175000168916200163100    000028766                    000287660000000000000109                     I0128766     30101800000000040003410000017N180918104700000000000103010180000000000000000000000000000000000000000100077294653704RICARDO JOSE LIMA LINHARES              RUA DEOLINDA MOTA GUEDES                DANON       26270230RIO DE JANEIRO RJUNIAO UMB DOS CULTOS AFRO BRAS    30101810 000006
10231987175000168916200163100    000028765                    000287650000000000000109                     I0128765     21091800000000035003410000017N180918104700000000000102109180000000000000000000000000000000000000000100012745403729BENEDITA CIRLEIDE RODRIGUES BR          RUA JOAO FLORIANO                       JARDIM CATAR24717520SAO GONCALO    RJUNIAO UMB DOS CULTOS AFRO BRAS    21091810 000007
10231987175000168916200163100    000028764                    000287640000000000000109                     I0128764     30091800000000035003410000017N170918104700000000000103009180000000000000000000000000000000000000000100072090499753JOSEFINA PAULINA RODRIGUES              RUA JOAQUIM SOARES NETO                 NOVA AMERICA26021560NOVA IGUACU    RJUNIAO UMB DOS CULTOS AFRO BRAS    30091810 000008
10231987175000168916200163100    000028763                    000287630000000000000109                     I0228763     30111800000000035003410000017N170918104700000000000103011180000000000000000000000000000000000000000100007403387732MARCOS MAURICIO DOS SANTOS COS          RUA BOA VISTA                           CARAMUJO    24140460NITEROI        RJUNIAO UMB DOS CULTOS AFRO BRAS    30111810 000009
10231987175000168916200163100    000028762                    000287620000000000000109                     I0228762     30101800000000035003410000017N170918104700000000000103010180000000000000000000000000000000000000000100007403387732MARCOS MAURICIO DOS SANTOS COS          RUA BOA VISTA                           CARAMUJO    24140460NITEROI        RJUNIAO UMB DOS CULTOS AFRO BRAS    30101810 000010
10231987175000168916200163100    000028761                    000287610000000000000109                     I0128761     30111800000000040003410000017N170918104700000000000103011180000000000000000000000000000000000000000100048639389772ONESIO JOSINO DOS SANTOS                RUA VINTE E DOIS                        BRISA MAR   23825587ITAGUAI        RJUNIAO UMB DOS CULTOS AFRO BRAS    30111810 000011
10231987175000168916200163100    000028760                    000287600000000000000109                     I0128760     30101800000000040003410000017N170918104700000000000103010180000000000000000000000000000000000000000100048639389772ONESIO JOSINO DOS SANTOS                RUA VINTE E DOIS                        BRISA MAR   23825587ITAGUAI        RJUNIAO UMB DOS CULTOS AFRO BRAS    30101810 000012
10231987175000168916200163100    000028759                    000287590000000000000109                     I0128759     21091800000000035003410000017N170918104700000000000102109180000000000000000000000000000000000000000100069833850715WALTER LIMA DE AVELLAR                  RUA SAO JOSE                            ITAIPUACU   24900000MARICA         RJUNIAO UMB DOS CULTOS AFRO BRAS    21091810 000013
10231987175000168916200163100    000028758                    000287580000000000000109                     I0128758     21091800000000400003410000017N160918104700000000000102109180000000000000000000000000000000000000000100001199518786ADRIANA DE OLIVEIRA COUTO               RUA ITALIA                              PIABETA     25916256MAGE           RJUNIAO UMB DOS CULTOS AFRO BRAS    21091810 000014
10231987175000168916200163100    000028757                    000287570000000000000109                     I0128757     28091800000000035003410000017N160918104700000000000102809180000000000000000000000000000000000000000100004790121720IATA ANDERSON JESUS PEREIRA             RUA ITAJUBARA                           RAMOS       21060180RIO DE JANEIRO RJUNIAO UMB DOS CULTOS AFRO BRAS    28091810 000015
10231987175000168916200163100    000028756                    000287560000000000000109                     I0128756     22101800000000400003410000017N160918104700000000000102210180000000000000000000000000000000000000000100046367225749JOSE MARINALDO ARAUJO DOS SANT          RUA BELIZARIO PENA                      PARQUE SAO V26178130BELFORD ROXO   RJUNIAO UMB DOS CULTOS AFRO BRAS    22101810 000016
10231987175000168916200163100    000028755                    000287550000000000000109                     I0128755     15101800000000400003410000017N160918104700000000000101510180000000000000000000000000000000000000000100044245548720IVONE DOS SANTOS DA SILVA               RUA FILOMENO COELHO                     JARDIM SANTA26050020NOVA IGUACU    RJUNIAO UMB DOS CULTOS AFRO BRAS    15101810 000017
10231987175000168916200163100    000028754                    000287540000000000000109                     I0128754     28091800000000100003410000017N150918104700000000000102809180000000000000000000000000000000000000000100012745403729BENEDITA CIRLEIDE RODRIGUES BR          RUA JOAO FLORIANO                       JARDIM CATAR24717520SAO GONCALO    RJUNIAO UMB DOS CULTOS AFRO BRAS    28091810 000018
10231987175000168916200163100    000028753                    000287530000000000000109                     I0128753     05101800000000360003410000017N150918104700000000000100510180000000000000000000000000000000000000000100000000000089LENIR SILVA MAFRA                       RUA: JOAO BARBALHO                      QUINTINO BOC20740010RIO DE JANEIRO RJUNIAO UMB DOS CULTOS AFRO BRAS    05101810 000019
10231987175000168916200163100    000028752                    000287520000000000000109                     I0128752     30111800000000040003410000017N140918104700000000000103011180000000000000000000000000000000000000000100099447690700CARLA LESSA QUINTANILHA VASCON          RUA BORBOREMA                           MADUREIRA   21360150RIO DE JANEIRO RJUNIAO UMB DOS CULTOS AFRO BRAS    30111810 000020
10231987175000168916200163100    000028751                    000287510000000000000109                     I0128751     30101800000000040003410000017N140918104700000000000103010180000000000000000000000000000000000000000100099447690700CARLA LESSA QUINTANILHA VASCON          RUA BORBOREMA                           MADUREIRA   21360150RIO DE JANEIRO RJUNIAO UMB DOS CULTOS AFRO BRAS    30101810 000021
10231987175000168916200163100    000028750                    000287500000000000000109                     I0128750     30111800000000040003410000017N140918104700000000000103011180000000000000000000000000000000000000000100008566591771TAISSA RIBEIRO PETRA MELLO              RUA CLARICE ROSA DA COSTA               JARDIM INTER24900830MARICA         RJUNIAO UMB DOS CULTOS AFRO BRAS    30111810 000022
10231987175000168916200163100    000028749                    000287490000000000000109                     I0128749     30101800000000040003410000017N140918104700000000000103010180000000000000000000000000000000000000000100008566591771TAISSA RIBEIRO PETRA MELLO              RUA CLARICE ROSA DA COSTA               JARDIM INTER24900830MARICA         RJUNIAO UMB DOS CULTOS AFRO BRAS    30101810 000023
10231987175000168916200163100    000028748                    000287480000000000000109                     I0128748     20091800000000035003410000017N140918104700000000000102009180000000000000000000000000000000000000000100085148610778JACQUELINE MARQUES BARBOSA              RUA, 63                                 JD ATLANTICO00000000RIO DE JANEIRO RJUNIAO UMB DOS CULTOS AFRO BRAS    20091810 000024
10231987175000168916200163100    000028747                    000287470000000000000109                     I0128747     30111800000000040003410000017N130918104700000000000103011180000000000000000000000000000000000000000100010089898788MONICA REGINA ELIAS DE SOUZA M          ESTRADA:DA BOA SORTE                    MAUA        00000000MAGE           RJUNIAO UMB DOS CULTOS AFRO BRAS    30111810 000025
10231987175000168916200163100    000028746                    000287460000000000000109                     I0128746     30101800000000040003410000017N130918104700000000000103010180000000000000000000000000000000000000000100010089898788MONICA REGINA ELIAS DE SOUZA M          ESTRADA:DA BOA SORTE                    MAUA        00000000MAGE           RJUNIAO UMB DOS CULTOS AFRO BRAS    30101810 000026
10231987175000168916200163100    000028745                    000287450000000000000109                     I0128745     20091800000000070003410000017N130918104700000000000102009180000000000000000000000000000000000000000100005361904708VANESSA SANTIAGO DE AZEVEDO BA          AVENIDA TEIXEIRA DE CASTRO              RAMOS       21040113RIO DE JANEIRO RJUNIAO UMB DOS CULTOS AFRO BRAS    20091810 000027
10231987175000168916200163100    000028744                    000287440000000000000109                     I0128744     21091800000000035003410000017N130918104700000000000102109180000000000000000000000000000000000000000100008326943711ANGELO ABREU MARTINS                    RUA D                                   MONTE VERDE 24857564ITABORAI       RJUNIAO UMB DOS CULTOS AFRO BRAS    21091810 000028
10231987175000168916200163100    000028743                    000287430000000000000109                     I0128743     30111800000000040003410000017N130918104700000000000103011180000000000000000000000000000000000000000100008331240723MONIQUE SUZANO ASSUNCAO DE OLI          RUA: DIVINOPOLIS                        BENTO RIBEIR21550280RIO DE JANEIRO RJUNIAO UMB DOS CULTOS AFRO BRAS    30111810 000029
10231987175000168916200163100    000028742                    000287420000000000000109                     I0128742     30101800000000040003410000017N130918104700000000000103010180000000000000000000000000000000000000000100008331240723MONIQUE SUZANO ASSUNCAO DE OLI          RUA: DIVINOPOLIS                        BENTO RIBEIR21550280RIO DE JANEIRO RJUNIAO UMB DOS CULTOS AFRO BRAS    30101810 000030
10231987175000168916200163100    000028652                    000286520000000000000109                     I3428652     30091800000000350003410000017N030918104700000000000103009180000000000000000000000000000000000000000100090158601734ANDRILEA PEREIRA BAPTISTA               RUA TELEFONICA                          JARDIM METRO25575080SAO JOAO DE MERRJUNIAO UMB DOS CULTOS AFRO BRAS    30091810 000031
10231987175000168916200163100    000020669                    000206690000000000000109                     I0220669     30081800000000035003410000017N070518104700000000000103008180000000000000000000000000000000000000000100084301724753ANA LUCIA FERREIRA DA SILVA             RUA HUGO CESAR MONTEIRO DA SILVA        CAICARA     26015000NOVA IGUACU    RJUNIAO UMB DOS CULTOS AFRO BRAS    30081810 000032
10231987175000168916200163100    000020536                    000205360000000000000109                     I0220536     30081800000000035003410000017N070518104700000000000103008180000000000000000000000000000000000000000100005361904708VANESSA SANTIAGO DE AZEVEDO BA          AVENIDA TEIXEIRA DE CASTRO              RAMOS       21040113RIO DE JANEIRO RJUNIAO UMB DOS CULTOS AFRO BRAS    30081810 000033
10231987175000168916200163100    000020532                    000205320000000000000109                     I3420532     30081800000000035003410000017N070518104700000000000103008180000000000000000000000000000000000000000100002362714748MAGLENE GOMES ARAUJO                    RUA TENENTE PINTO DUARTE                BENTO RIBEIR21550370RIO DE JANEIRO RJUNIAO UMB DOS CULTOS AFRO BRAS    30081810 000034
10231987175000168916200163100    000020530                    000205300000000000000109                     I0220530     30081800000000035003410000017N070518104700000000000103008180000000000000000000000000000000000000000100001148949739MARIA DAS GRACAS SEBASTIANA DO          RUA PEREIRA PINTO                       TOMAS COELHO20761350RIO DE JANEIRO RJUNIAO UMB DOS CULTOS AFRO BRAS    30081810 000035
10231987175000168916200163100    000020288                    000202880000000000000109                     I3420288     30081800000000035003410000017N070518104700000000000103008180000000000000000000000000000000000000000100004250914739ERIKA BARBOSA DOS SANTOS                AVENIDA ERNANI CARDOSO                  CASCADURA   21310310RIO DE JANEIRO RJUNIAO UMB DOS CULTOS AFRO BRAS    30081810 000036
10231987175000168916200163100    000020188                    000201880000000000000109                     I3420188     30081800000000035003410000017N070518104700000000000103008180000000000000000000000000000000000000000100004790121720IATA ANDERSON JESUS PEREIRA             RUA ITAJUBARA                           RAMOS       21060180RIO DE JANEIRO RJUNIAO UMB DOS CULTOS AFRO BRAS    30081810 000037
10231987175000168916200163100    000020172                    000201720000000000000109                     I3420172     30081800000000035003410000017N070518104700000000000103008180000000000000000000000000000000000000000100000412773767LUIZA MARTA ADAO                        RUA: ECLIPSE                            GUANDU      26032835JAPERI         RJUNIAO UMB DOS CULTOS AFRO BRAS    30081810 000038
10231987175000168916200163100    000019824                    000198240000000000000109                     I3419824     30081800000000035003410000017N070518104700000000000103008180000000000000000000000000000000000000000100000633999709KATIA REGINA LEITE RAMOS                RUA GUIRATIM                            IRAJA       21371410RIO DE JANEIRO RJUNIAO UMB DOS CULTOS AFRO BRAS    30081810 000039
10231987175000168916200163100    000019543                    000195430000000000000109                     I0219543     30081800000000035003410000017N070518104700000000000103008180000000000000000000000000000000000000000100033745226704LUIZA MARIA DO NASCIMENTO MARQ          CESARIO DE MELO 9756 RUA C 1 LT 10 QD C MONTE SERRA 23028050RIO DE JANEIRO RJUNIAO UMB DOS CULTOS AFRO BRAS    30081810 000040
10231987175000168916200163100    000019530                    000195300000000000000109                     I3419530     30081800000000035003410000017N070518104700000000000103008180000000000000000000000000000000000000000100000000000267ADRIANA SANTOS DA SILVA                 RUA URBANO DUARTE N 199                 VILA ROSARIO25042300DUQUE DE CAXIASRJUNIAO UMB DOS CULTOS AFRO BRAS    30081810 000041
10231987175000168916200163100    000019515                    000195150000000000000109                     I0219515     14091800000000035003410000017N070518104700000000000101409180000000000000000000000000000000000000000100072090499753JOSEFINA PAULINA RODRIGUES              RUA JOAQUIM SOARES NETO                 NOVA AMERICA26021560NOVA IGUACU    RJUNIAO UMB DOS CULTOS AFRO BRAS    14091810 000042
10231987175000168916200163100    000019286                    000192860000000000000109                     I0219286     30081800000000035003410000017N070518104700000000000103008180000000000000000000000000000000000000000100000000000544DELIA VIEIRA DA COSTA                   RUA: CAPITAO BORGES COUTO               SENADOR CAMA21832300RIO DE JANEIRO RJUNIAO UMB DOS CULTOS AFRO BRAS    30081810 000043
10231987175000168916200163100    000019239                    000192390000000000000109                     I0219239     30081800000000035003410000017N070518104700000000000103008180000000000000000000000000000000000000000100000000000089LENIR SILVA MAFRA                       RUA: JOAO BARBALHO                      QUINTINO BOC20740010RIO DE JANEIRO RJUNIAO UMB DOS CULTOS AFRO BRAS    30081810 000044
9                                                                                                                                                                                                                                                                                                                                                                                                         000045
