01REMESSA01COBRANCA       916200163100        União Umb dos Cultos Afro Bra341BANCO ITAU SA  040118                                                                                                                                                                                                                                                                                                      000001
10231987175000168916200163100    00008674                     000086740000000000000109                     I018674      31011800000000035003410000017N020118050900000000000103101180000000000000000000000000000000000000000100096161736772EDILEA APARECIDA MATTOS                 RUA GERALDO MARTINS, 75 APTO 1504       ICARAI - NIT24220380NITEROI        RJUNIAO UMB DOS CULTOS AFRO BRAS    31011810 000002
9                                                                                                                                                                                                                                                                                                                                                                                                         000003
