01REMESSA01COBRANCA       817800093673        União Umb dos Cultos Afro Bra341BANCO ITAU SA  090719                                                                                                                                                                                                                                                                                                      000001
10231987175000168817800093673    000049156                    000491560000000000000109                     I0249156     30091900000000040003410000017N100619105700000000000133009190000000000000000000000000000000000000000100002211701701SERGIO LUIZ RIBEIRO ROSA                RUA AMERICO DA ROCHAN 992, CASA 1       MARECHAL HER21555300RIO DE JANEIRO RJUNIAO UMB DOS CULTOS AFRO BRAS    30091915 000002
21300920190000000000080                                                                                                                                                                                                                                                                                                                                                                                   000003
10231987175000168817800093673    000048899                    000488990000000000000109                     I0248899     30091900000000040003410000017N100619105700000000000133009190000000000000000000000000000000000000000100006715164851MARISA DA SILVA                         RUA DOZEN 19,                           MARACAIBO   12120000TREMEMBE       SPUNIAO UMB DOS CULTOS AFRO BRAS    30091915 000004
21300920190000000000080                                                                                                                                                                                                                                                                                                                                                                                   000005
10231987175000168817800093673    000047715                    000477150000000000000109                     I0247715     30081900000000040003410000017N100619105700000000000133008190000000000000000000000000000000000000000100002211701701SERGIO LUIZ RIBEIRO ROSA                RUA AMERICO DA ROCHAN 992, CASA 1       MARECHAL HER21555300RIO DE JANEIRO RJUNIAO UMB DOS CULTOS AFRO BRAS    30081915 000006
21300820190000000000080                                                                                                                                                                                                                                                                                                                                                                                   000007
10231987175000168817800093673    000047460                    000474600000000000000109                     I0247460     30081900000000040003410000017N100619105700000000000133008190000000000000000000000000000000000000000100006715164851MARISA DA SILVA                         RUA DOZEN 19,                           MARACAIBO   12120000TREMEMBE       SPUNIAO UMB DOS CULTOS AFRO BRAS    30081915 000008
21300820190000000000080                                                                                                                                                                                                                                                                                                                                                                                   000009
10231987175000168817800093673    000046284                    000462840000000000000109                     I0246284     30071900000000040003410000017N100619105700000000000133007190000000000000000000000000000000000000000100002211701701SERGIO LUIZ RIBEIRO ROSA                RUA AMERICO DA ROCHAN 992, CASA 1       MARECHAL HER21555300RIO DE JANEIRO RJUNIAO UMB DOS CULTOS AFRO BRAS    30071915 000010
21300720190000000000080                                                                                                                                                                                                                                                                                                                                                                                   000011
10231987175000168817800093673    000046060                    000460600000000000000109                     I0246060     30071900000000040003410000017N100619105700000000000133007190000000000000000000000000000000000000000100008389266733BEATRIZ DE AZEVEDO NUNES                RUA MARION 78, APT° 101                PRACA SECA  21341450RIO DE JANEIRO RJUNIAO UMB DOS CULTOS AFRO BRAS    30071915 000012
21300720190000000000080                                                                                                                                                                                                                                                                                                                                                                                   000013
10231987175000168817800093673    000046031                    000460310000000000000109                     I0246031     30071900000000040003410000017N100619105700000000000133007190000000000000000000000000000000000000000100006715164851MARISA DA SILVA                         RUA DOZEN 19,                           MARACAIBO   12120000TREMEMBE       SPUNIAO UMB DOS CULTOS AFRO BRAS    30071915 000014
21300720190000000000080                                                                                                                                                                                                                                                                                                                                                                                   000015
9                                                                                                                                                                                                                                                                                                                                                                                                         000016
