01REMESSA01COBRANCA       916200163100        União Umb dos Cultos Afro Bra341BANCO ITAU SA  040118                                                                                                                                                                                                                                                                                                      000001
10231987175000168916200163100    00008848                     000088480000000000000109                     I018848      31011800000000035003410000017N020118050900000000000103101180000000000000000000000000000000000000000100054903416704ANTONIO FERNANDO CORREA DE CAR          RUA OLIVEIROS RODRIGUES ALVES, 1974     POSSE - NOVA26030010NOVA IGUACU    RJUNIAO UMB DOS CULTOS AFRO BRAS    31011810 000002
10231987175000168916200163100    00008847                     000088470000000000000109                     I018847      31011800000000035003410000017N020118050900000000000103101180000000000000000000000000000000000000000100039622100759LEIR AUGUSTO DA SILVA                   RUA FRANCISCA GOMES N 111               FRAGOSO - MA25935480MAGE           RJUNIAO UMB DOS CULTOS AFRO BRAS    31011810 000003
10231987175000168916200163100    00008846                     000088460000000000000109                     I018846      31011800000000035003410000017N020118050900000000000103101180000000000000000000000000000000000000000100087162518715VILMA TEJO PEREIRA MAIA                 RUA RONDA ALTA QUADRA 188 LOTE 37       JARDIM MARAV23031320GUARATIBA      RJUNIAO UMB DOS CULTOS AFRO BRAS    31011810 000004
10231987175000168916200163100    00008845                     000088450000000000000109                     I018845      31011800000000035003410000017N020118050900000000000103101180000000000000000000000000000000000000000100097511145787IVANILDO DA SILVA FERREIRA              AVENIDA NOSSA SENHORA DE COPACABANA, 613COPACABANA  22050002RIO DE JANEIRO RJUNIAO UMB DOS CULTOS AFRO BRAS    31011810 000005
10231987175000168916200163100    00008844                     000088440000000000000109                     I018844      31011800000000035003410000017N020118050900000000000103101180000000000000000000000000000000000000000100000461330796TANIA MARIA PEREIRA                     RUA MAPENDI, 366 BLOCO 2 APTO 505       TAQUARA - JA22710255RIO DE JANEIRO RJUNIAO UMB DOS CULTOS AFRO BRAS    31011810 000006
10231987175000168916200163100    00008843                     000088430000000000000109                     I018843      31011800000000035003410000017N020118050900000000000103101180000000000000000000000000000000000000000100003319281755GENILSON CAETANO DA SILVA               RUA JACO MELOTI, 46                     CORUMBA - NO26041790NOVA IGUACU    RJUNIAO UMB DOS CULTOS AFRO BRAS    31011810 000007
10231987175000168916200163100    00008842                     000088420000000000000109                     I018842      31011800000000035003410000017N020118050900000000000103101180000000000000000000000000000000000000000100096322888749DAUREMA CONCEICAO DOCASAR SERA          RUA CORONEL SILVIO LISBOA DA CUNHA, 20  NOSSA SENHOR25964340TERESOPOLIS    RJUNIAO UMB DOS CULTOS AFRO BRAS    31011810 000008
10231987175000168916200163100    00008841                     000088410000000000000109                     I018841      31011800000000035003410000017N020118050900000000000103101180000000000000000000000000000000000000000100093476930734LUCIENE TEIXEIRA DE OLIVEIRA            RUA CACHAMBI  34 APTO 407               CACHAMBI   R20775182RIO DE JANEIRO RJUNIAO UMB DOS CULTOS AFRO BRAS    31011810 000009
10231987175000168916200163100    00008840                     000088400000000000000109                     I018840      31011800000000035003410000017N020118050900000000000103101180000000000000000000000000000000000000000100009776414737NEUSA MARIA PINTO DE CARVALHO           RUA ARARIBOIA, 253 APTO 402             SAO FRANCISC24360340NITEROI        RJUNIAO UMB DOS CULTOS AFRO BRAS    31011810 000010
10231987175000168916200163100    00008839                     000088390000000000000109                     I018839      31011800000000035003410000017N020118050900000000000103101180000000000000000000000000000000000000000100075923866749SUELI ARAUJO DE SOUZA                   AVENIDA OLIVEIRA BELO, 458              VILA DA PENH21221300RIO DE JANEIRO RJUNIAO UMB DOS CULTOS AFRO BRAS    31011810 000011
10231987175000168916200163100    00008838                     000088380000000000000109                     I018838      31011800000000035003410000017N020118050900000000000103101180000000000000000000000000000000000000000100001030634718EDILENE DE OLIVEIRA FERREIRA            RUA IPE LOTE 18 QUADRA 128              PRADO VERDE 26299279NOVA IGUACU    RJUNIAO UMB DOS CULTOS AFRO BRAS    31011810 000012
10231987175000168916200163100    00008837                     000088370000000000000109                     I018837      31011800000000035003410000017N020118050900000000000103101180000000000000000000000000000000000000000100002819747728ANDRE RENATO DOS SANTOS VIANA           RUA RODRIGUES ALVES SN LOTE 38 QUADRA 82VILA SAPE - 25275440DUQUE DE CAXIASRJUNIAO UMB DOS CULTOS AFRO BRAS    31011810 000013
10231987175000168916200163100    00008836                     000088360000000000000109                     I018836      31011800000000035003410000017N020118050900000000000103101180000000000000000000000000000000000000000100011790209790NOILDA SANTIAGO DA SILVA                RUA ADRIANA N 203 FUNDOS                VALVERDE - N26290645NOVA IGUACU    RJUNIAO UMB DOS CULTOS AFRO BRAS    31011810 000014
10231987175000168916200163100    00008834                     000088340000000000000109                     I018834      31011800000000035003410000017N020118050900000000000103101180000000000000000000000000000000000000000100007279623700RODRIGO AYRES                           RUA CARIJOS N 23 CASA 1                 MEIER - RIO 20720360RIO DE JANEIRO RJUNIAO UMB DOS CULTOS AFRO BRAS    31011810 000015
10231987175000168916200163100    00008833                     000088330000000000000109                     I018833      31011800000000035003410000017N020118050900000000000103101180000000000000000000000000000000000000000100011036139794CARLA COUTO DE SOUZA                    RUA C N 150                             AMAPA - DUQU25235265DUQUE DE CAXIASRJUNIAO UMB DOS CULTOS AFRO BRAS    31011810 000016
10231987175000168916200163100    00008832                     000088320000000000000109                     I018832      31011800000000035003410000017N020118050900000000000103101180000000000000000000000000000000000000000100001199518786ADRIANA DE OLIVEIRA COUTO               RUA ITALIA LOTE 9 QUADRA 70             CACHOEIRINHA25916256PIABETA - MAGE RJUNIAO UMB DOS CULTOS AFRO BRAS    31011810 000017
10231987175000168916200163100    00008831                     000088310000000000000109                     I018831      31011800000000035003410000017N020118050900000000000103101180000000000000000000000000000000000000000100008133276799AROLDO VAZ DE COSTA                     AVENIDA SAO JOAO DE MERITI LOTE 3 QUADRAJARDIM METRO25571161SAO JOAO DE MERRJUNIAO UMB DOS CULTOS AFRO BRAS    31011810 000018
10231987175000168916200163100    00008830                     000088300000000000000109                     I018830      31011800000000035003410000017N020118050900000000000103101180000000000000000000000000000000000000000100003601608758NILDA MAURA RODRIGUES DE JESUS          RUA ARI VILAR, SERVIDAO 1 CASA 17       COSTA BARROS21520860RIO DE JANEIRO RJUNIAO UMB DOS CULTOS AFRO BRAS    31011810 000019
10231987175000168916200163100    00008829                     000088290000000000000109                     I018829      31011800000000035003410000017N020118050900000000000103101180000000000000000000000000000000000000000100093546602749JANE FERNANDES DAS CHAGAS HENR          ESTRADA DO PRE, 54 FUNDOS               SENADOR VASC23013550RIO DE JANEIRO RJUNIAO UMB DOS CULTOS AFRO BRAS    31011810 000020
10231987175000168916200163100    00008828                     000088280000000000000109                     I018828      31011800000000035003410000017N020118050900000000000103101180000000000000000000000000000000000000000100043385184720CELINA MONTEIRO DE OLIVEIRA             TRAVESSA ANTONIO GONCALVES, 18          CUBANGO - NI24240396NITEROI        RJUNIAO UMB DOS CULTOS AFRO BRAS    31011810 000021
10231987175000168916200163100    00008827                     000088270000000000000109                     I018827      31011800000000035003410000017N020118050900000000000103101180000000000000000000000000000000000000000100066320577720RICARDO DE CASSIO TEIXEIRA DIA          RUA PORTO SEGURO,  LOTE 7 QUADRA 99     DOUTOR LAURE25051080DUQUE DE CAXIASRJUNIAO UMB DOS CULTOS AFRO BRAS    31011810 000022
10231987175000168916200163100    00008826                     000088260000000000000109                     I018826      31011800000000035003410000017N020118050900000000000103101180000000000000000000000000000000000000000100002533273775GLAUCE MAGALHAES JARDELINO              RUA JABORANDI, 171 FUNDOS               VILA COSMO -21220220RIO DE JANEIRO RJUNIAO UMB DOS CULTOS AFRO BRAS    31011810 000023
10231987175000168916200163100    00008825                     000088250000000000000109                     I018825      31011800000000035003410000017N020118050900000000000103101180000000000000000000000000000000000000000100000292323760MAURICIO MANTELLI                       AVENIDA GETULIO VARGAS 2589             CENTRO - NIL26525012NILOPOLIS      RJUNIAO UMB DOS CULTOS AFRO BRAS    31011810 000024
10231987175000168916200163100    00008824                     000088240000000000000109                     I018824      31011800000000035003410000017N020118050900000000000103101180000000000000000000000000000000000000000100048366030725SILVIA REGINA DE SOUZA CASTILH          RUA SOLDADO FILISBINO DOS SANTOS, 278   PALMARES - P23066000RIO DE JANEIRO RJUNIAO UMB DOS CULTOS AFRO BRAS    31011810 000025
10231987175000168916200163100    00008823                     000088230000000000000109                     I018823      31011800000000035003410000017N020118050900000000000103101180000000000000000000000000000000000000000100001872874738ADENILDES ARIFES DE OLIVEIRA            RUA CARLOS SAMPAIO, 246 APTO 702        CENTRO - RJ 20231085RIO DE JANEIRO RJUNIAO UMB DOS CULTOS AFRO BRAS    31011810 000026
10231987175000168916200163100    00008822                     000088220000000000000109                     I018822      31011800000000035003410000017N020118050900000000000103101180000000000000000000000000000000000000000100005241615776SIMONE ALICE CACCAVO GRIBEL             RUA VENEZA, 142                         PRAIA DE MAU25900000MAGE           RJUNIAO UMB DOS CULTOS AFRO BRAS    31011810 000027
10231987175000168916200163100    00008821                     000088210000000000000109                     I018821      31011800000000035003410000017N020118050900000000000103101180000000000000000000000000000000000000000100011519708750GERALDINA DA SILVA MENDONCA             AV. ALBERTINO LADEIRA, 63               ENGENHEIRO R26041510NOVA IGUACU    RJUNIAO UMB DOS CULTOS AFRO BRAS    31011810 000028
10231987175000168916200163100    00008820                     000088200000000000000109                     I018820      31011800000000035003410000017N020118050900000000000103101180000000000000000000000000000000000000000100007399837767CINTIA SILVA MIRANDA                    RUA COSTA RICA, 30 APTO 202             PENHA - RJ  21020340RIO DE JANEIRO RJUNIAO UMB DOS CULTOS AFRO BRAS    31011810 000029
10231987175000168916200163100    00008819                     000088190000000000000109                     I018819      31011800000000035003410000017N020118050900000000000103101180000000000000000000000000000000000000000100062642049787ROSALIA FERREIRA DA SILVA               RUA CLARIMUNDO DE MELO, 680             PIEDADE - RJ21311300RIO DE JANEIRO RJUNIAO UMB DOS CULTOS AFRO BRAS    31011810 000030
10231987175000168916200163100    00008818                     000088180000000000000109                     I018818      31011800000000035003410000017N020118050900000000000103101180000000000000000000000000000000000000000100011639602763PAULO HUMBERTO AZEVEDO PONTE J          RUA MARECHAL RONDON, 1037 - SOBRADO     SAO FRANCISC20950003RIO DE JANEIRO RJUNIAO UMB DOS CULTOS AFRO BRAS    31011810 000031
10231987175000168916200163100    00008817                     000088170000000000000109                     I018817      31011800000000035003410000017N020118050900000000000103101180000000000000000000000000000000000000000100012106775717VITOR GABRIEL CARVALHO DE FIGU          RUA GENERAL BELFORD, 295 CASA 12        ROCHA - RJ  20961000RIO DE JANEIRO RJUNIAO UMB DOS CULTOS AFRO BRAS    31011810 000032
10231987175000168916200163100    00008816                     000088160000000000000109                     I018816      31011800000000035003410000017N020118050900000000000103101180000000000000000000000000000000000000000100095685774753ADEMIR GOMES DOS SANTOS                 AVENIDA NOSSA SENHORA DAS GRACAS, 546   SAO JOAO DE 25515001RIO DE JANEIRO RJUNIAO UMB DOS CULTOS AFRO BRAS    31011810 000033
10231987175000168916200163100    00008815                     000088150000000000000109                     I018815      31011800000000035003410000017N020118050900000000000103101180000000000000000000000000000000000000000100010355748703MARIA LUIZA LOPES                       RUA DOUTOR NUNES, 1243 APTO 302         OLARIA - RJ 21021370RIO DE JANEIRO RJUNIAO UMB DOS CULTOS AFRO BRAS    31011810 000034
9                                                                                                                                                                                                                                                                                                                                                                                                         000035
