01REMESSA01COBRANCA       817800093673        União Umb dos Cultos Afro Bra341BANCO ITAU SA  230918                                                                                                                                                                                                                                                                                                      000001
10231987175000168817800093673    000028263                    000282630000000000000109                     I0228263     30111800000000035003410000017N200818104700000000000103011180000000000000000000000000000000000000000100009713273605CAMILA EMANUELE DE ARAUJO CALD          RUA DAS PACAS                           TAMOIOS     28927000DUQUE DE CAXIASRJUNIAO UMB DOS CULTOS AFRO BRAS    30111810 000002
10231987175000168817800093673    000027746                    000277460000000000000109                     I3427746     30111800000000035003410000017N200818104700000000000103011180000000000000000000000000000000000000000100052417760797TANIA CRISTINA DOS SANTOS MORE          RUA NOVA ESPANHA                        TRES MARIAS 26292327NOVA IGUACU    RJUNIAO UMB DOS CULTOS AFRO BRAS    30111810 000003
10231987175000168817800093673    000027357                    000273570000000000000109                     I0227357     30111800000000035003410000017N200818104700000000000103011180000000000000000000000000000000000000000100082940983704JURACIARA DA CONCEICAO                  RUA ASSIS VASCONCELOS                   PILARES     20755010RIO DE JANEIRO RJUNIAO UMB DOS CULTOS AFRO BRAS    30111810 000004
10231987175000168817800093673    000027169                    000271690000000000000109                     I0227169     30111800000000035003410000017N200818104700000000000103011180000000000000000000000000000000000000000100000000000661ELOISA SANT ANA                         RUA LINO DE MORAIS,                     REALENGO    21730290RIO DE JANEIRO RJUNIAO UMB DOS CULTOS AFRO BRAS    30111810 000005
10231987175000168817800093673    000026842                    000268420000000000000109                     I0226842     30091800000000035003410000017N200818104700000000000103009180000000000000000000000000000000000000000100009713273605CAMILA EMANUELE DE ARAUJO CALD          RUA DAS PACAS                           TAMOIOS     28927000DUQUE DE CAXIASRJUNIAO UMB DOS CULTOS AFRO BRAS    30091810 000006
10231987175000168817800093673    000026066                    000260660000000000000109                     I3426066     30091800000000035003410000017N200818104700000000000103009180000000000000000000000000000000000000000100062792920700LUIZ CESAR DE OLIVEIRA                  RUA PEREIRA DE FIGUEIREDO, 627          OSWALDO CRUZ21340030RIO DE JANEIRO RJUNIAO UMB DOS CULTOS AFRO BRAS    30091810 000007
10231987175000168817800093673    000025941                    000259410000000000000109                     I0225941     30091800000000035003410000017N200818104700000000000103009180000000000000000000000000000000000000000100082940983704JURACIARA DA CONCEICAO                  RUA ASSIS VASCONCELOS                   PILARES     20755010RIO DE JANEIRO RJUNIAO UMB DOS CULTOS AFRO BRAS    30091810 000008
10231987175000168817800093673    000025754                    000257540000000000000109                     I0225754     30091800000000035003410000017N200818104700000000000103009180000000000000000000000000000000000000000100000000000661ELOISA SANT ANA                         RUA LINO DE MORAIS,                     REALENGO    21730290RIO DE JANEIRO RJUNIAO UMB DOS CULTOS AFRO BRAS    30091810 000009
10231987175000168817800093673    000025731                    000257310000000000000109                     I3425731     30091800000000035003410000017N200818104700000000000103009180000000000000000000000000000000000000000100043082033768LEILA RAMOS DE OLIVEIRA                 RUA CAPIBARIBE, 361                     CABUCU - NOV26346290NOVA IGUACU    RJUNIAO UMB DOS CULTOS AFRO BRAS    30091810 000010
10231987175000168817800093673    000025719                    000257190000000000000109                     I0225719     30091800000000035003410000017N200818104700000000000103009180000000000000000000000000000000000000000200000000005039MARIA DE SOUZA                          AVENIDA BELO HORIZONTE, 271             SAO GABRIEL 26021670NOVA IGUACU    RJUNIAO UMB DOS CULTOS AFRO BRAS    30091810 000011
10231987175000168817800093673    000025426                    000254260000000000000109                     I0225426     30101800000000035003410000017N200818104700000000000103010180000000000000000000000000000000000000000100009713273605CAMILA EMANUELE DE ARAUJO CALD          RUA DAS PACAS                           TAMOIOS     28927000DUQUE DE CAXIASRJUNIAO UMB DOS CULTOS AFRO BRAS    30101810 000012
10231987175000168817800093673    000024909                    000249090000000000000109                     I3424909     30101800000000035003410000017N200818104700000000000103010180000000000000000000000000000000000000000100052417760797TANIA CRISTINA DOS SANTOS MORE          RUA NOVA ESPANHA                        TRES MARIAS 26292327NOVA IGUACU    RJUNIAO UMB DOS CULTOS AFRO BRAS    30101810 000013
10231987175000168817800093673    000024521                    000245210000000000000109                     I0224521     30101800000000035003410000017N200818104700000000000103010180000000000000000000000000000000000000000100082940983704JURACIARA DA CONCEICAO                  RUA ASSIS VASCONCELOS                   PILARES     20755010RIO DE JANEIRO RJUNIAO UMB DOS CULTOS AFRO BRAS    30101810 000014
10231987175000168817800093673    000024335                    000243350000000000000109                     I0224335     30101800000000035003410000017N200818104700000000000103010180000000000000000000000000000000000000000100000000000661ELOISA SANT ANA                         RUA LINO DE MORAIS,                     REALENGO    21730290RIO DE JANEIRO RJUNIAO UMB DOS CULTOS AFRO BRAS    30101810 000015
9                                                                                                                                                                                                                                                                                                                                                                                                         000016
