01REMESSA01COBRANCA       916200163100        União Umb dos Cultos Afro Bra341BANCO ITAU SA  150319                                                                                                                                                                                                                                                                                                      000001
10231987175000168916200163100    000044766                    000447660000000000000109                     I0244766     30061900000000020003410000017N130319104700000000000103006190000000000000000000000000000000000000000100004116092380CLEUDIOMAR RIBEIRO DA CONCEICA          RUA SANTO ANTONION 20,                  SANTA RITA D65580000TUTOIA         MAUNIAO UMB DOS CULTOS AFRO BRAS    30061910 000002
10231987175000168916200163100    000044118                    000441180000000000000109                     I0244118     30061900000000040003410000017N130319104700000000000103006190000000000000000000000000000000000000000100016855704700SANDRA REGINA DUTRA DOS SANTOS          RUA CLODOMIRO DE OLIVEIRAN 1825,        GRAMACHO    25035410DUQUE DE CAXIASRJUNIAO UMB DOS CULTOS AFRO BRAS    30061910 000003
10231987175000168916200163100    000044109                    000441090000000000000109                     I0244109     30061900000000040003410000017N130319104700000000000103006190000000000000000000000000000000000000000100098077899749WANDERLEY PACHECO                       RUA: NOSSA SENHORA DA CONCEICAON 0, LOTEPILAR       25233070DUQUE DE CAXIASRJUNIAO UMB DOS CULTOS AFRO BRAS    30061910 000004
10231987175000168916200163100    000044080                    000440800000000000000109                     I0244080     30061900000000040003410000017N130319104700000000000103006190000000000000000000000000000000000000000100080728774704NERIANA SILVA DO CARMO                  RUA AREALN 262,                         SEPETIBA    23535730RIO DE JANEIRO RJUNIAO UMB DOS CULTOS AFRO BRAS    30061910 000005
10231987175000168916200163100    000044020                    000440200000000000000109                     I0244020     30061900000000040003410000017N130319104700000000000103006190000000000000000000000000000000000000000100074190741787JOSE ITAGIBA RODRIGUES                  TRAVESSA SANTA ROSAN 0, LOTE 35         CAPELA      25916060MAGE           RJUNIAO UMB DOS CULTOS AFRO BRAS    30061910 000006
10231987175000168916200163100    000043770                    000437700000000000000109                     I0143770     30061900000000040003410000017N130319104700000000000103006190000000000000000000000000000000000000000100000000000000SHIRLEY GOMES FRANCISCO DE SOU          RUA TEIXEIRA RAMALHON 185,              CACUIA      26082125NOVA IGUACU    RJUNIAO UMB DOS CULTOS AFRO BRAS    30061910 000007
10231987175000168916200163100    000043619                    000436190000000000000109                     I0243619     30061900000000040003410000017N130319104700000000000103006190000000000000000000000000000000000000000100002978000783FABIO PINTO MANTUANO                    RUA: DAS AMOREIRAS N 23, QUADRA 4       INOA        24943760MARICA         RJUNIAO UMB DOS CULTOS AFRO BRAS    30061910 000008
10231987175000168916200163100    000043432                    000434320000000000000109                     I0243432     30061900000000040003410000017N130319104700000000000103006190000000000000000000000000000000000000000100000000000000JOSE ANTONIO ZANELLI                    PRAIA DE ICARAIN 267, LOJA 102          ICARAI      24230004NITEROI        RJUNIAO UMB DOS CULTOS AFRO BRAS    30061910 000009
10231987175000168916200163100    000043380                    000433800000000000000109                     I0243380     30061900000000040003410000017N130319104700000000000103006190000000000000000000000000000000000000000100004279924783EDUARDO CARVALHO DE SANTANNA            RUA CINCO N 778, CASA 2 AREA II         NOVA CAMPINA25268050DUQUE DE CAXIASRJUNIAO UMB DOS CULTOS AFRO BRAS    30061910 000010
10231987175000168916200163100    000043112                    000431120000000000000109                     I0243112     30051900000000020003410000017N130319104700000000000103005190000000000000000000000000000000000000000100004116092380CLEUDIOMAR RIBEIRO DA CONCEICA          RUA SANTO ANTONION 20,                  SANTA RITA D65580000TUTOIA         MAUNIAO UMB DOS CULTOS AFRO BRAS    30051910 000011
10231987175000168916200163100    000042472                    000424720000000000000109                     I0242472     30051900000000040003410000017N130319104700000000000103005190000000000000000000000000000000000000000100016855704700SANDRA REGINA DUTRA DOS SANTOS          RUA CLODOMIRO DE OLIVEIRAN 1825,        GRAMACHO    25035410DUQUE DE CAXIASRJUNIAO UMB DOS CULTOS AFRO BRAS    30051910 000012
10231987175000168916200163100    000042463                    000424630000000000000109                     I0242463     30051900000000040003410000017N130319104700000000000103005190000000000000000000000000000000000000000100098077899749WANDERLEY PACHECO                       RUA: NOSSA SENHORA DA CONCEICAON 0, LOTEPILAR       25233070DUQUE DE CAXIASRJUNIAO UMB DOS CULTOS AFRO BRAS    30051910 000013
10231987175000168916200163100    000042434                    000424340000000000000109                     I0242434     30051900000000040003410000017N130319104700000000000103005190000000000000000000000000000000000000000100080728774704NERIANA SILVA DO CARMO                  RUA AREALN 262,                         SEPETIBA    23535730RIO DE JANEIRO RJUNIAO UMB DOS CULTOS AFRO BRAS    30051910 000014
10231987175000168916200163100    000042374                    000423740000000000000109                     I0242374     30051900000000040003410000017N130319104700000000000103005190000000000000000000000000000000000000000100074190741787JOSE ITAGIBA RODRIGUES                  TRAVESSA SANTA ROSAN 0, LOTE 35         CAPELA      25916060MAGE           RJUNIAO UMB DOS CULTOS AFRO BRAS    30051910 000015
10231987175000168916200163100    000042126                    000421260000000000000109                     I0142126     30051900000000040003410000017N130319104700000000000103005190000000000000000000000000000000000000000100000000000000SHIRLEY GOMES FRANCISCO DE SOU          RUA TEIXEIRA RAMALHON 185,              CACUIA      26082125NOVA IGUACU    RJUNIAO UMB DOS CULTOS AFRO BRAS    30051910 000016
10231987175000168916200163100    000041975                    000419750000000000000109                     I0241975     30051900000000040003410000017N130319104700000000000103005190000000000000000000000000000000000000000100002978000783FABIO PINTO MANTUANO                    RUA: DAS AMOREIRAS N 23, QUADRA 4       INOA        24943760MARICA         RJUNIAO UMB DOS CULTOS AFRO BRAS    30051910 000017
10231987175000168916200163100    000041789                    000417890000000000000109                     I0241789     30051900000000040003410000017N130319104700000000000103005190000000000000000000000000000000000000000100000000000000JOSE ANTONIO ZANELLI                    PRAIA DE ICARAIN 267, LOJA 102          ICARAI      24230004NITEROI        RJUNIAO UMB DOS CULTOS AFRO BRAS    30051910 000018
10231987175000168916200163100    000041738                    000417380000000000000109                     I0241738     30051900000000040003410000017N130319104700000000000103005190000000000000000000000000000000000000000100004279924783EDUARDO CARVALHO DE SANTANNA            RUA CINCO N 778, CASA 2 AREA II         NOVA CAMPINA25268050DUQUE DE CAXIASRJUNIAO UMB DOS CULTOS AFRO BRAS    30051910 000019
10231987175000168916200163100    000041470                    000414700000000000000109                     I0241470     30041900000000020003410000017N120319104700000000000103004190000000000000000000000000000000000000000100004116092380CLEUDIOMAR RIBEIRO DA CONCEICA          RUA SANTO ANTONION 20,                  SANTA RITA D65580000TUTOIA         MAUNIAO UMB DOS CULTOS AFRO BRAS    30041910 000020
10231987175000168916200163100    000040835                    000408350000000000000109                     I0240835     30041900000000040003410000017N120319104700000000000103004190000000000000000000000000000000000000000100016855704700SANDRA REGINA DUTRA DOS SANTOS          RUA CLODOMIRO DE OLIVEIRAN 1825,        GRAMACHO    25035410DUQUE DE CAXIASRJUNIAO UMB DOS CULTOS AFRO BRAS    30041910 000021
10231987175000168916200163100    000040826                    000408260000000000000109                     I0240826     30041900000000040003410000017N120319104700000000000103004190000000000000000000000000000000000000000100098077899749WANDERLEY PACHECO                       RUA: NOSSA SENHORA DA CONCEICAON 0, LOTEPILAR       25233070DUQUE DE CAXIASRJUNIAO UMB DOS CULTOS AFRO BRAS    30041910 000022
10231987175000168916200163100    000040797                    000407970000000000000109                     I0240797     30041900000000040003410000017N120319104700000000000103004190000000000000000000000000000000000000000100080728774704NERIANA SILVA DO CARMO                  RUA AREALN 262,                         SEPETIBA    23535730RIO DE JANEIRO RJUNIAO UMB DOS CULTOS AFRO BRAS    30041910 000023
10231987175000168916200163100    000040737                    000407370000000000000109                     I0240737     30041900000000040003410000017N120319104700000000000103004190000000000000000000000000000000000000000100074190741787JOSE ITAGIBA RODRIGUES                  TRAVESSA SANTA ROSAN 0, LOTE 35         CAPELA      25916060MAGE           RJUNIAO UMB DOS CULTOS AFRO BRAS    30041910 000024
10231987175000168916200163100    000040491                    000404910000000000000109                     I0140491     30041900000000040003410000017N120319104700000000000103004190000000000000000000000000000000000000000100000000000000SHIRLEY GOMES FRANCISCO DE SOU          RUA TEIXEIRA RAMALHON 185,              CACUIA      26082125NOVA IGUACU    RJUNIAO UMB DOS CULTOS AFRO BRAS    30041910 000025
10231987175000168916200163100    000040340                    000403400000000000000109                     I0240340     30041900000000040003410000017N120319104700000000000103004190000000000000000000000000000000000000000100002978000783FABIO PINTO MANTUANO                    RUA: DAS AMOREIRAS N 23, QUADRA 4       INOA        24943760MARICA         RJUNIAO UMB DOS CULTOS AFRO BRAS    30041910 000026
10231987175000168916200163100    000040156                    000401560000000000000109                     I0240156     30041900000000040003410000017N120319104700000000000103004190000000000000000000000000000000000000000100000000000000JOSE ANTONIO ZANELLI                    PRAIA DE ICARAIN 267, LOJA 102          ICARAI      24230004NITEROI        RJUNIAO UMB DOS CULTOS AFRO BRAS    30041910 000027
10231987175000168916200163100    000040106                    000401060000000000000109                     I0240106     30041900000000040003410000017N120319104700000000000103004190000000000000000000000000000000000000000100004279924783EDUARDO CARVALHO DE SANTANNA            RUA CINCO N 778, CASA 2 AREA II         NOVA CAMPINA25268050DUQUE DE CAXIASRJUNIAO UMB DOS CULTOS AFRO BRAS    30041910 000028
10231987175000168916200163100    000039815                    000398150000000000000109                     I0239815     29031900000000040003410000017N190219104700000000000102903190000000000000000000000000000000000000000100016855704700SANDRA REGINA DUTRA DOS SANTOS          RUA CLODOMIRO DE OLIVEIRAN 1825,        GRAMACHO    25035410DUQUE DE CAXIASRJUNIAO UMB DOS CULTOS AFRO BRAS    29031910 000029
9                                                                                                                                                                                                                                                                                                                                                                                                         000030
