01REMESSA01COBRANCA       817800093673        União Umb dos Cultos Afro Bra341BANCO ITAU SA  130819                                                                                                                                                                                                                                                                                                      000001
10231987175000168817800093673    000053475                    000534750000000000000109                     I0253475     30081900000000250003410000017N020819105700000000000833008190000000000000000000000000000000000000000100089823753768MARIA JOSE DA ROCHA NOBREGA             RUA DOS LIRIOSN 2, CASA                 SHANGRI-LA  26150071BELFORD ROXO   RJUNIAO UMB DOS CULTOS AFRO BRAS    30081915 000002
21300820190000000000500                                                                                                                                                                                                                                                                                                                                                                                   000003
10231987175000168817800093673    000051220                    000512200000000000000109                     I0251220     30081900000000250003410000017N020819105700000000000833008190000000000000000000000000000000000000000100069876207768JUREMA DIONISIO RODRIGUES               RUA CARLOS OLIMPIO DE MELLON 59, CASA 1 PACIENCIA   23585160RIO DE JANEIRO RJUNIAO UMB DOS CULTOS AFRO BRAS    30081915 000004
21300820190000000000500                                                                                                                                                                                                                                                                                                                                                                                   000005
10231987175000168817800093673    000051039                    000510390000000000000109                     I0251039     30081900000000250003410000017N020819105700000000000833008190000000000000000000000000000000000000000100010101529716JOUZE DIAS LEITAO (MEDIUN)              RUA TENENTE SERAFIMN 0, GLEBA C QUADRA 3DEODORO     21616510RIO DE JANEIRO RJUNIAO UMB DOS CULTOS AFRO BRAS    30081915 000006
21300820190000000000500                                                                                                                                                                                                                                                                                                                                                                                   000007
10231987175000168817800093673    000047752                    000477520000000000000109                     I0247752     30081900000000040003410000017N100619105700000000000133008190000000000000000000000000000000000000000100089823753768MARIA JOSE DA ROCHA NOBREGA             RUA DOS LIRIOSN 2, CASA                 SHANGRI-LA  26150071BELFORD ROXO   RJUNIAO UMB DOS CULTOS AFRO BRAS    30081915 000008
21300820190000000000080                                                                                                                                                                                                                                                                                                                                                                                   000009
10231987175000168817800093673    000047319                    000473190000000000000109                     I3447319     30081900000000040003410000017N100619105700000000000133008190000000000000000000000000000000000000000100004462221788ALEXSANDRO JULIO DE SOUZA               RUA CORURIPEN 410,                      MARECHAL HER21555490RIO DE JANEIRO RJUNIAO UMB DOS CULTOS AFRO BRAS    30081915 000010
21300820190000000000080                                                                                                                                                                                                                                                                                                                                                                                   000011
10231987175000168817800093673    000046401                    000464010000000000000109                     I0246401     30071900000000040003410000017N100619105700000000000133007190000000000000000000000000000000000000000100009959898776ANGELICA MONTEIRO DE OLIVEIRA           RUA CINCON 313, GLEBA A                 CHAPERO     23831190ITAGUAI        RJUNIAO UMB DOS CULTOS AFRO BRAS    30071915 000012
21300720190000000000080                                                                                                                                                                                                                                                                                                                                                                                   000013
10231987175000168817800093673    000046319                    000463190000000000000109                     I0246319     30071900000000040003410000017N100619105700000000000133007190000000000000000000000000000000000000000100089823753768MARIA JOSE DA ROCHA NOBREGA             RUA DOS LIRIOSN 2, CASA                 SHANGRI-LA  26150071BELFORD ROXO   RJUNIAO UMB DOS CULTOS AFRO BRAS    30071915 000014
21300720190000000000080                                                                                                                                                                                                                                                                                                                                                                                   000015
10231987175000168817800093673    000046136                    000461360000000000000109                     I0246136     30071900000000040003410000017N100619105700000000000133007190000000000000000000000000000000000000000100092952364753ROSANGELA SILVA SOUZA                   RUA TAMOIOSN 144, FUNDOS                CENTRO      26520250NILOPOLIS      RJUNIAO UMB DOS CULTOS AFRO BRAS    30071915 000016
21300720190000000000080                                                                                                                                                                                                                                                                                                                                                                                   000017
9                                                                                                                                                                                                                                                                                                                                                                                                         000018
