01REMESSA01COBRANCA       817800093673        União Umb dos Cultos Afro Bra341BANCO ITAU SA  120319                                                                                                                                                                                                                                                                                                      000001
10231987175000168817800093673    000039874                    000398740000000000000109                     I0139874     31031900000000040003410000017N120319104700000000000103103190000000000000000000000000000000000000000100099586800768MARLECI NAVARRO DE FARIA                AVENIDA TENENTE REBELON 381, APT 303    IRAJA       21230075RIO DE JANEIRO RJUNIAO UMB DOS CULTOS AFRO BRAS    31031910 000002
10231987175000168817800093673    000039873                    000398730000000000000109                     I0139873     31031900000000040003410000017N120319104700000000000103103190000000000000000000000000000000000000000100099586800768MARLECI NAVARRO DE FARIA                AVENIDA TENENTE REBELON 381, APT 303    IRAJA       21230075RIO DE JANEIRO RJUNIAO UMB DOS CULTOS AFRO BRAS    31031910 000003
9                                                                                                                                                                                                                                                                                                                                                                                                         000004
