01REMESSA01COBRANCA       817800093673        União Umb dos Cultos Afro Bra341BANCO ITAU SA  011118                                                                                                                                                                                                                                                                                                      000001
10231987175000168817800093673    000033355                    000333550000000000000109                     I0133355     10111800000000035003410000017N011118104700000000000101011180000000000000000000000000000000000000000100000747523715CLAUDIARA TEIXEIRA DA SILVA             RUA CAMBUCI                             MUQUECA     27140280BARRA DO PIRAI RJUNIAO UMB DOS CULTOS AFRO BRAS    10111810 000002
10231987175000168817800093673    000033354                    000333540000000000000109                     I0133354     05111800000000385003410000017N311018104700000000000100511180000000000000000000000000000000000000000100011080748717ALVARO CHIANELLI DE AZEREDO             RUA 14 DE JULHO                         VILA SAO LUI25065061RIO DE JANEIRO RJUNIAO UMB DOS CULTOS AFRO BRAS    05111810 000003
10231987175000168817800093673    000033353                    000333530000000000000109                     I0133353     09111800000000350003410000017N311018104700000000000100911180000000000000000000000000000000000000000100009145082707ELAINE CRISTINA DE MORAES               RUA GENTIL DO OURO                      AGUIAR TORRE23063340INHOAIBA       RJUNIAO UMB DOS CULTOS AFRO BRAS    09111810 000004
10231987175000168817800093673    000029603                    000296030000000000000109                     I0229603     20121800000000035003410000017N291018104700000000000102012180000000000000000000000000000000000000000100011080748717ALVARO CHIANELLI DE AZEREDO             RUA 14 DE JULHO                         VILA SAO LUI25065061RIO DE JANEIRO RJUNIAO UMB DOS CULTOS AFRO BRAS    20121810 000005
10231987175000168817800093673    000027681                    000276810000000000000109                     I0227681     30111800000000035003410000017N200818104700000000000103011180000000000000000000000000000000000000000100011080748717ALVARO CHIANELLI DE AZEREDO             RUA 14 DE JULHO                         VILA SAO LUI25065061RIO DE JANEIRO RJUNIAO UMB DOS CULTOS AFRO BRAS    30111810 000006
10231987175000168817800093673    000026263                    000262630000000000000109                     I0226263     30091800000000035003410000017N200818104700000000000103009180000000000000000000000000000000000000000100011080748717ALVARO CHIANELLI DE AZEREDO             RUA 14 DE JULHO                         VILA SAO LUI25065061RIO DE JANEIRO RJUNIAO UMB DOS CULTOS AFRO BRAS    30091810 000007
10231987175000168817800093673    000024994                    000249940000000000000109                     I0224994     30101800000000035003410000017N200818104700000000000103010180000000000000000000000000000000000000000100000747523715CLAUDIARA TEIXEIRA DA SILVA             RUA CAMBUCI                             MUQUECA     27140280BARRA DO PIRAI RJUNIAO UMB DOS CULTOS AFRO BRAS    30101810 000008
10231987175000168817800093673    000024844                    000248440000000000000109                     I0224844     30101800000000035003410000017N200818104700000000000103010180000000000000000000000000000000000000000100011080748717ALVARO CHIANELLI DE AZEREDO             RUA 14 DE JULHO                         VILA SAO LUI25065061RIO DE JANEIRO RJUNIAO UMB DOS CULTOS AFRO BRAS    30101810 000009
9                                                                                                                                                                                                                                                                                                                                                                                                         000010
