01REMESSA01COBRANCA       916200163100        União Umb dos Cultos Afro Bra341BANCO ITAU SA  020519                                                                                                                                                                                                                                                                                                      000001
10231987175000168916200163100    000045121                    000451210000000000000109                     I0245121     30041900000000400003410000017N260419105700000000000103004190000000000000000000000000000000000000000100007955134702SOLANGE LAPOENTE PORTO                  ESTRADA DE INHOAIBA N 26,               CAMPO GRANDE23083010RIO DE JANEIRO RJUNIAO UMB DOS CULTOS AFRO BRAS    30041915 000002
10231987175000168916200163100    000043897                    000438970000000000000109                     I0243897     30061900000000040003410000017N130319105700000000000103006190000000000000000000000000000000000000000100000916014797ANGELA DA SILVA RIBEIRO                 TRAVESSA CARLOS SAMPAION 28,            VILA ZENITE 26088040NOVA IGUACU    RJUNIAO UMB DOS CULTOS AFRO BRAS    30061915 000003
10231987175000168916200163100    000042252                    000422520000000000000109                     I0242252     30051900000000040003410000017N130319105700000000000103005190000000000000000000000000000000000000000100000916014797ANGELA DA SILVA RIBEIRO                 TRAVESSA CARLOS SAMPAION 28,            VILA ZENITE 26088040NOVA IGUACU    RJUNIAO UMB DOS CULTOS AFRO BRAS    30051915 000004
10231987175000168916200163100    000040941                    000409410000000000000109                     I0240941     30041900000000040003410000017N120319105700000000000103004190000000000000000000000000000000000000000100007271009710MARCELLO FERREIRA DE ARAUJO             RUA IPEUVAN 106,                        BRAZ DE PINA21215400RIO DE JANEIRO RJUNIAO UMB DOS CULTOS AFRO BRAS    30041915 000005
10231987175000168916200163100    000040640                    000406400000000000000109                     I0240640     30041900000000040003410000017N120319105700000000000103004190000000000000000000000000000000000000000100059259523753NILO SERGIO SANTOS BARCELLOS            ESTRADA DO MENDANHAN 134, BLOCO 4 APTO 5IRAJA       21220310RIO DE JANEIRO RJUNIAO UMB DOS CULTOS AFRO BRAS    30041915 000006
10231987175000168916200163100    000040615                    000406150000000000000109                     I0240615     30041900000000040003410000017N120319105700000000000103004190000000000000000000000000000000000000000100000916014797ANGELA DA SILVA RIBEIRO                 TRAVESSA CARLOS SAMPAION 28,            VILA ZENITE 26088040NOVA IGUACU    RJUNIAO UMB DOS CULTOS AFRO BRAS    30041915 000007
10231987175000168916200163100    000040558                    000405580000000000000109                     I0240558     30041900000000040003410000017N120319105700000000000103004190000000000000000000000000000000000000000100004462221788ALEXSANDRO JULIO DE SOUZA               RUA CORURIPEN 410,                      MARECHAL HER21555490RIO DE JANEIRO RJUNIAO UMB DOS CULTOS AFRO BRAS    30041915 000008
10231987175000168916200163100    000040310                    000403100000000000000109                     I0240310     30041900000000040003410000017N120319105700000000000103004190000000000000000000000000000000000000000100088677079734MARIA APARECIDA MORAIS DOS SAN          RUA OLAVO GAMAN 0, TRAVESSA F - PROJETADLARGO DO COR23040400RIO DE JANEIRO RJUNIAO UMB DOS CULTOS AFRO BRAS    30041915 000009
9                                                                                                                                                                                                                                                                                                                                                                                                         000010
