01REMESSA01COBRANCA       916200163100        União Umb dos Cultos Afro Bra341BANCO ITAU SA  080519                                                                                                                                                                                                                                                                                                      000001
10231987175000168916200163100    000045027                    000450270000000000000109                     I0245027     30061900000000040003410000017N080419105700000000000103006190000000000000000000000000000000000000000100072012102700MARIA APARECIDA FELIZARDO POVO          RUA GALVAO BUENON 51,                   BENTO RIBEIR21331430RIO DE JANEIRO RJUNIAO UMB DOS CULTOS AFRO BRAS    30061915 000002
10231987175000168916200163100    000045026                    000450260000000000000109                     I0245026     30051900000000040003410000017N080419105700000000000103005190000000000000000000000000000000000000000100072012102700MARIA APARECIDA FELIZARDO POVO          RUA GALVAO BUENON 51,                   BENTO RIBEIR21331430RIO DE JANEIRO RJUNIAO UMB DOS CULTOS AFRO BRAS    30051915 000003
10231987175000168916200163100    000044268                    000442680000000000000109                     I0244268     30061900000000070003410000017N130319105700000000000103006190000000000000000000000000000000000000000100052282171772SONIA MARIA DOS SANTOS                  RUA MIDAN 13, QUADRA 1                  RIACHAO - AU26084050NOVA IGUACU    RJUNIAO UMB DOS CULTOS AFRO BRAS    30061915 000004
10231987175000168916200163100    000044107                    000441070000000000000109                     I0244107     30061900000000040003410000017N130319105700000000000103006190000000000000000000000000000000000000000100002880433754ROSELANE DOS SANTOS ADAO MENDE          RUA CORREGO DANTAN 0, LOTE 26 QUADRA 22 PEDRA DE GUA23026500RIO DE JANEIRO RJUNIAO UMB DOS CULTOS AFRO BRAS    30061915 000005
10231987175000168916200163100    000042924                    000429240000000000000109                     I0242924     30051900000000040003410000017N130319105700000000000103005190000000000000000000000000000000000000000100016424589880LUIZ CARLOS BRITO                       RUA LIBERDADEN 368,                     CIDADE JARDI26063230NOVA IGUACU    RJUNIAO UMB DOS CULTOS AFRO BRAS    30051915 000006
10231987175000168916200163100    000042620                    000426200000000000000109                     I0242620     30051900000000070003410000017N130319105700000000000103005190000000000000000000000000000000000000000100052282171772SONIA MARIA DOS SANTOS                  RUA MIDAN 13, QUADRA 1                  RIACHAO - AU26084050NOVA IGUACU    RJUNIAO UMB DOS CULTOS AFRO BRAS    30051915 000007
10231987175000168916200163100    000042461                    000424610000000000000109                     I0242461     30051900000000040003410000017N130319105700000000000103005190000000000000000000000000000000000000000100002880433754ROSELANE DOS SANTOS ADAO MENDE          RUA CORREGO DANTAN 0, LOTE 26 QUADRA 22 PEDRA DE GUA23026500RIO DE JANEIRO RJUNIAO UMB DOS CULTOS AFRO BRAS    30051915 000008
10231987175000168916200163100    000042297                    000422970000000000000109                     I0242297     30051900000000040003410000017N130319105700000000000103005190000000000000000000000000000000000000000100081561326704MARCIO ELIAS GONCALVES                  RUA: AMANAJO N 515,                     BANGU       21820210RIO DE JANEIRO RJUNIAO UMB DOS CULTOS AFRO BRAS    30051915 000009
10231987175000168916200163100    000041826                    000418260000000000000109                     I0241826     30051900000000040003410000017N130319105700000000000103005190000000000000000000000000000000000000000100008763637707JUSSARA SILVA DE ALBUQUERQUE            RUA ARGOSN 281, FUNDOS                  GUADALUPE   21660050RIO DE JANEIRO RJUNIAO UMB DOS CULTOS AFRO BRAS    30051915 000010
10231987175000168916200163100    000041583                    000415830000000000000109                     I0241583     30051900000000040003410000017N130319105700000000000103005190000000000000000000000000000000000000000100004462200780ELAINE LOPES GONCALVES FALCAO           RUA TIUBAN 697,                         VICENTE DE C21371170RIO DE JANEIRO RJUNIAO UMB DOS CULTOS AFRO BRAS    30051915 000011
10231987175000168916200163100    000041282                    000412820000000000000109                     I0241282     30041900000000040003410000017N120319105700000000000103004190000000000000000000000000000000000000000100016424589880LUIZ CARLOS BRITO                       RUA LIBERDADEN 368,                     CIDADE JARDI26063230NOVA IGUACU    RJUNIAO UMB DOS CULTOS AFRO BRAS    30041915 000012
10231987175000168916200163100    000040982                    000409820000000000000109                     I0240982     30041900000000070003410000017N120319105700000000000103004190000000000000000000000000000000000000000100052282171772SONIA MARIA DOS SANTOS                  RUA MIDAN 13, QUADRA 1                  RIACHAO - AU26084050NOVA IGUACU    RJUNIAO UMB DOS CULTOS AFRO BRAS    30041915 000013
10231987175000168916200163100    000040853                    000408530000000000000109                     I0240853     30041900000000040003410000017N120319105700000000000103004190000000000000000000000000000000000000000100092952364753ROSANGELA SILVA SOUZA                   RUA TAMOIOSN 144, FUNDOS                CENTRO      26520250NILOPOLIS      RJUNIAO UMB DOS CULTOS AFRO BRAS    30041915 000014
10231987175000168916200163100    000040824                    000408240000000000000109                     I0240824     30041900000000040003410000017N120319105700000000000103004190000000000000000000000000000000000000000100002880433754ROSELANE DOS SANTOS ADAO MENDE          RUA CORREGO DANTAN 0, LOTE 26 QUADRA 22 PEDRA DE GUA23026500RIO DE JANEIRO RJUNIAO UMB DOS CULTOS AFRO BRAS    30041915 000015
10231987175000168916200163100    000040660                    000406600000000000000109                     I0240660     30041900000000040003410000017N120319105700000000000103004190000000000000000000000000000000000000000100081561326704MARCIO ELIAS GONCALVES                  RUA: AMANAJO N 515,                     BANGU       21820210RIO DE JANEIRO RJUNIAO UMB DOS CULTOS AFRO BRAS    30041915 000016
10231987175000168916200163100    000040543                    000405430000000000000109                     I0240543     30041900000000040003410000017N120319105700000000000103004190000000000000000000000000000000000000000100002134169729ALEXANDRE DE ALMEIDA                    RUA SERITINGAN 105,  BLOCO 5 APTO 108 FUBRAS DE PINA21215480RIO DE JANEIRO RJUNIAO UMB DOS CULTOS AFRO BRAS    30041915 000017
10231987175000168916200163100    000039951                    000399510000000000000109                     I0239951     30041900000000040003410000017N120319105700000000000103004190000000000000000000000000000000000000000100004462200780ELAINE LOPES GONCALVES FALCAO           RUA TIUBAN 697,                         VICENTE DE C21371170RIO DE JANEIRO RJUNIAO UMB DOS CULTOS AFRO BRAS    30041915 000018
10231987175000168916200163100    000039448                    000394480000000000000109                     I0239448     30031900000000040003410000017N020119105700000000000103003190000000000000000000000000000000000000000100016424589880LUIZ CARLOS BRITO                       RUA LIBERDADEN 368,                     CIDADE JARDI26063230NOVA IGUACU    RJUNIAO UMB DOS CULTOS AFRO BRAS    30031915 000019
9                                                                                                                                                                                                                                                                                                                                                                                                         000020
