01REMESSA01COBRANCA       916200163100        União Umb dos Cultos Afro Bra341BANCO ITAU SA  201218                                                                                                                                                                                                                                                                                                      000001
10231987175000168916200163100    000033632                    000336320000000000000109                     I0133632     28121800000000200003410000017N201218104700000000000102812180000000000000000000000000000000000000000100060192305700ADALCINA MARIA CARDOSO                  RUA BRASILIA                            FARRULA     25550720SAO JOAO DE MERRJUNIAO UMB DOS CULTOS AFRO BRAS    28121810 000002
10231987175000168916200163100    000033631                    000336310000000000000109                     I0133631     15011900000000210003410000017N201218104700000000000101501190000000000000000000000000000000000000000100005836497770SIDEAN LEANDRO DOS SANTOS CRUZ          RUA MENDES RIBEIRO                      PATRONATO   24431635SAO GONCALO    RJUNIAO UMB DOS CULTOS AFRO BRAS    15011910 000003
10231987175000168916200163100    000033630                    000336300000000000000109                     I0133630     31121800000000070003410000017N201218104700000000000103112180000000000000000000000000000000000000000100015295681700MICHEL FERNANDES BASTOS CRESPO          RUA ROSANGELA TOSTES                    PARQUE FLUMI26185260BELFORD ROXO   RJUNIAO UMB DOS CULTOS AFRO BRAS    31121810 000004
10231987175000168916200163100    000033629                    000336290000000000000109                     I0133629     10011900000000200003410000017N201218104700000000000101001190000000000000000000000000000000000000000100064561968768EUCLIDALINA MARIA DOS SANTOS V          RUA CAPANEMA                            PARADA MORAB25265080DUQUE DE CAXIASRJUNIAO UMB DOS CULTOS AFRO BRAS    10011910 000005
10231987175000168916200163100    000033628                    000336280000000000000109                     I0133628     21121800000000350003410000017N201218104700000000000102112180000000000000000000000000000000000000000100001898047774ELISABETH SANTOS PEREIRA                RUA: C                                  FRAGOSO     25935302MAGE           RJUNIAO UMB DOS CULTOS AFRO BRAS    21121810 000006
10231987175000168916200163100    000033627                    000336270000000000000109                     I0133627     21121800000000035003410000017N201218104700000000000102112180000000000000000000000000000000000000000100001898047774ELISABETH SANTOS PEREIRA                RUA: C                                  FRAGOSO     25935302MAGE           RJUNIAO UMB DOS CULTOS AFRO BRAS    21121810 000007
10231987175000168916200163100    000033626                    000336260000000000000109                     I0133626     30121800000000200003410000017N191218104700000000000103012180000000000000000000000000000000000000000100085737437787NIVALDA PIRES RUFINO                    RUA: MARIO CARPENTER                    ABOLICAO    20755065RIO DE JANEIRO RJUNIAO UMB DOS CULTOS AFRO BRAS    30121810 000008
10231987175000168916200163100    000028794                    000287940000000000000109                     I0228794     31101800000000040003410000017N240918104700000000000103110180000000000000000000000000000000000000000100096599170749LUCINEA LOPES DA SILVA                  FLAVIA REGINA DE SOUZA                  CABUCU      00000000NOVA IGUACU    RJUNIAO UMB DOS CULTOS AFRO BRAS    31101810 000009
10231987175000168916200163100    000028766                    000287660000000000000109                     I0228766     30101800000000040003410000017N180918104700000000000103010180000000000000000000000000000000000000000100077294653704RICARDO JOSE LIMA LINHARES              RUA DEOLINDA MOTA GUEDES                DANON       26270230RIO DE JANEIRO RJUNIAO UMB DOS CULTOS AFRO BRAS    30101810 000010
10231987175000168916200163100    000028746                    000287460000000000000109                     I0228746     30101800000000040003410000017N130918104700000000000103010180000000000000000000000000000000000000000100010089898788MONICA REGINA ELIAS DE SOUZA M          ESTRADA: DA BOA SORTE                   MAUA        25924260MAGE           RJUNIAO UMB DOS CULTOS AFRO BRAS    30101810 000011
10231987175000168916200163100    000028720                    000287200000000000000109                     I0228720     30101800000000040003410000017N100918104700000000000103010180000000000000000000000000000000000000000100012303421764PEDRO JONAS ARAUJO CORDEIRO             RUA JOSE LIMA DA SILVA                  SANTA RITA  26185610BELFORD ROXO   RJUNIAO UMB DOS CULTOS AFRO BRAS    30101810 000012
10231987175000168916200163100    000028717                    000287170000000000000109                     I0228717     30101800000000035003410000017N100918104700000000000103010180000000000000000000000000000000000000000100000000000000REINALDO FERREIRA DOS SANTOS            RUA LESTE                               JARDIM PARAI26297294NOVA IGUACU    RJUNIAO UMB DOS CULTOS AFRO BRAS    30101810 000013
10231987175000168916200163100    000028714                    000287140000000000000109                     I0228714     30101800000000040003410000017N100918104700000000000103010180000000000000000000000000000000000000000100003413776789CRISTIANE DE SOUZA GALANTE INA          RUA SABIA                               SITIO RETIRO26167500SAO JOAO DE MERRJUNIAO UMB DOS CULTOS AFRO BRAS    30101810 000014
10231987175000168916200163100    000028711                    000287110000000000000109                     I0228711     30101800000000040003410000017N100918104700000000000103010180000000000000000000000000000000000000000100036139050782VIRGINIA DANTAS FERREIRA                AVENIDA BEIRA                           COROA GRANDE23821310RIO DE JANEIRO RJUNIAO UMB DOS CULTOS AFRO BRAS    30101810 000015
10231987175000168916200163100    000028708                    000287080000000000000109                     I0228708     30101800000000035003410000017N100918104700000000000103010180000000000000000000000000000000000000000100005451927731MAGDA MARTHA DE OLIVEIRA                RUA: JOSE MARIANO                       CABUCU - PAR26292051NOVA IGUACU    RJUNIAO UMB DOS CULTOS AFRO BRAS    30101810 000016
10231987175000168916200163100    000028705                    000287050000000000000109                     I0228705     30101800000000040003410000017N100918104700000000000103010180000000000000000000000000000000000000000100047627816734DORACI BARBARA RIBEIRO DO COUT          RUA PRIMEIRO DE MAIO                    PARQUE IPIRA26359510MESQUITA       RJUNIAO UMB DOS CULTOS AFRO BRAS    30101810 000017
10231987175000168916200163100    000028702                    000287020000000000000109                     I0228702     30101800000000040003410000017N100918104700000000000103010180000000000000000000000000000000000000000100001686004710CLAUDIA CORREA DA SILVA                 RUA MARISTER                            CABUCU      00000000NOVA IGUACU    RJUNIAO UMB DOS CULTOS AFRO BRAS    30101810 000018
10231987175000168916200163100    000028699                    000286990000000000000109                     I0228699     30101800000000035003410000017N100918104700000000000103010180000000000000000000000000000000000000000100085114308734MARISTELA BISPO DOS SANTOS              RUA: VINTE E TRES DE SETEMBRO           IPIRANGA    26293342NOVA IGUACU    RJUNIAO UMB DOS CULTOS AFRO BRAS    30101810 000019
10231987175000168916200163100    000028696                    000286960000000000000109                     I0228696     30101800000000040003410000017N100918104700000000000103010180000000000000000000000000000000000000000100075037017734ORLY PEREIRA DE AZEVEDO                 RUA BUTUCARAI                           CAMPOS ELISI00000000DUQUE DE CAXIASRJUNIAO UMB DOS CULTOS AFRO BRAS    30101810 000020
10231987175000168916200163100    000028683                    000286830000000000000109                     I0228683     30101800000000040003410000017N060918104700000000000103010180000000000000000000000000000000000000000100085965871791VALERIA MENDES BARBOSA DOS SAN          RUA SAO PATRICIO                        JARDIM NOVA 26265540NOVA IGUACU    RJUNIAO UMB DOS CULTOS AFRO BRAS    30101810 000021
10231987175000168916200163100    000028680                    000286800000000000000109                     I0228680     30101800000000040003410000017N060918104700000000000103010180000000000000000000000000000000000000000100008323642745ROSEMERI DE SOUZA COUTINHO              RUA VERA LUCIA                          CABUCU      26291452NOVA IGUACU    RJUNIAO UMB DOS CULTOS AFRO BRAS    30101810 000022
10231987175000168916200163100    000028597                    000285970000000000000109                     I0228597     30101800000000040003410000017N280818104700000000000103010180000000000000000000000000000000000000000100007202542722MIRLA SUSANI DA SILVA SALES             RUA: DOUTOR FREDERICO                   LAGOINHA    26296414NOVA IGUACU    RJUNIAO UMB DOS CULTOS AFRO BRAS    30101810 000023
10231987175000168916200163100    000020773                    000207730000000000000109                     I0220773     05111800000000035003410000017N070518104700000000000100511180000000000000000000000000000000000000000100002176741781SUSI DE OLIVEIRA LOUREIRO               RUA FATIMA CRISTINA                     ROSA DOS VEN26278525RIO DE JANEIRO RJUNIAO UMB DOS CULTOS AFRO BRAS    05111810 000024
9                                                                                                                                                                                                                                                                                                                                                                                                         000025
