01REMESSA01COBRANCA       817800093673        União Umb dos Cultos Afro Bra341BANCO ITAU SA  310818                                                                                                                                                                                                                                                                                                      000001
10231987175000168817800093673    000028616                    000286160000000000000109                     I0128616     10091800000000035003410000017N300818104700000000000101009180000000000000000000000000000000000000000100004493547766ROBSON FRANCISCO ESCHOLASTICO           RUA MATHIAS MACHADO                     ARSENAL     24745050SAO GONCALO    RJUNIAO UMB DOS CULTOS AFRO BRAS    10091810 000002
10231987175000168817800093673    000028615                    000286150000000000000109                     I0128615     05091800000000035003410000017N300818104700000000000100509180000000000000000000000000000000000000000100004790121720IATA ANDERSON JESUS PEREIRA             RUA ITAJUBARA                           RAMOS       21060180RIO DE JANEIRO RJUNIAO UMB DOS CULTOS AFRO BRAS    05091810 000003
10231987175000168817800093673    000028614                    000286140000000000000109                     I0128614     10091800000000035003410000017N300818104700000000000101009180000000000000000000000000000000000000000100074624792234MARILZA COSTA FERREIRA                  RUA INHANDUI, 128                       BENFICA - RJ20930120RIO DE JANEIRO RJUNIAO UMB DOS CULTOS AFRO BRAS    10091810 000004
10231987175000168817800093673    000028613                    000286130000000000000109                     I0128613     17091800000000035003410000017N300818104700000000000101709180000000000000000000000000000000000000000100022023461715SAULO EMMANUEL FERREIRA GUEDES          AVENIDA: VICENTE DE CARVALHO            VICENTE DE C21210003RIO DE JANEIRO RJUNIAO UMB DOS CULTOS AFRO BRAS    17091810 000005
10231987175000168817800093673    000028612                    000286120000000000000109                     I0128612     03091800000000105003410000017N300818104700000000000100309180000000000000000000000000000000000000000100055046010704SONIA REGINA PINTO DA SILVA             RUA ARACOIA, 188 FUNDOS                 BRAZ DE PINA21011140RIO DE JANEIRO RJUNIAO UMB DOS CULTOS AFRO BRAS    03091810 000006
10231987175000168817800093673    000028611                    000286110000000000000109                     I0128611     20091800000000350003410000017N300818104700000000000102009180000000000000000000000000000000000000000100012009305760DEBORA CRISTINA DE OLIVEIRA BR          RUA LORD COCHRANE                       IBIRAPITANGA23811810ITAGUAI        RJUNIAO UMB DOS CULTOS AFRO BRAS    20091810 000007
10231987175000168817800093673    000028610                    000286100000000000000109                     I0128610     07091800000000175003410000017N300818104700000000000100709180000000000000000000000000000000000000000100002638717703EDINO GOMES DE BARROS JUNIOR            RUA PARANA N 10                         MORRO DO ORI24400000SAO GONCALO    RJUNIAO UMB DOS CULTOS AFRO BRAS    07091810 000008
10231987175000168817800093673    000028609                    000286090000000000000109                     I0128609     20091800000000140003410000017N300818104700000000000102009180000000000000000000000000000000000000000100066859123915ROBERTO ALVES DO NASCIMENTO             RUA MARECHAL DEODORO, 499               CENTRO - PAR23970000PARATY         RJUNIAO UMB DOS CULTOS AFRO BRAS    20091810 000009
10231987175000168817800093673    000028608                    000286080000000000000109                     I0128608     20121800000000040003410000017N300818104700000000000102012180000000000000000000000000000000000000000100001902241770JOSE RICARDO CORREA FERREIRA            RUA ALVARO LINS 174 CASA 2              TRIBOBO - SA24750590SAO GONCALO    RJUNIAO UMB DOS CULTOS AFRO BRAS    20121810 000010
10231987175000168817800093673    000028436                    000284360000000000000109                     I3428436     30111800000000035003410000017N200818104700000000000103011180000000000000000000000000000000000000000100000893865745MONICA DE PONTES                        TRAVESSA OLINDA SANTOS                  TURIACU     21540340RIO DE JANEIRO RJUNIAO UMB DOS CULTOS AFRO BRAS    30111810 000011
10231987175000168817800093673    000027207                    000272070000000000000109                     I0227207     30111800000000040003410000017N200818104700000000000103011180000000000000000000000000000000000000000100019685726787ADELMIR HAMELIN SODRE                   RUA ITAIM                               COLEGIO     00000000RIO DE JANEIRO RJUNIAO UMB DOS CULTOS AFRO BRAS    30111810 000012
10231987175000168817800093673    000027013                    000270130000000000000109                     I3427013     30091800000000035003410000017N200818104700000000000103009180000000000000000000000000000000000000000100000893865745MONICA DE PONTES                        TRAVESSA OLINDA SANTOS                  TURIACU     21540340RIO DE JANEIRO RJUNIAO UMB DOS CULTOS AFRO BRAS    30091810 000013
10231987175000168817800093673    000025792                    000257920000000000000109                     I0225792     30091800000000040003410000017N200818104700000000000103009180000000000000000000000000000000000000000100019685726787ADELMIR HAMELIN SODRE                   RUA ITAIM                               COLEGIO     00000000RIO DE JANEIRO RJUNIAO UMB DOS CULTOS AFRO BRAS    30091810 000014
10231987175000168817800093673    000025729                    000257290000000000000109                     I3425729     30091800000000035003410000017N200818104700000000000103009180000000000000000000000000000000000000000100054571715743VILMA OLIVEIRA DOS SANTOS               RUA CORREIA DIAS                        VIGARIO GERA21241310RIO DE JANEIRO RJUNIAO UMB DOS CULTOS AFRO BRAS    30091810 000015
10231987175000168817800093673    000025598                    000255980000000000000109                     I3425598     30101800000000035003410000017N200818104700000000000103010180000000000000000000000000000000000000000100000893865745MONICA DE PONTES                        TRAVESSA OLINDA SANTOS                  TURIACU     21540340RIO DE JANEIRO RJUNIAO UMB DOS CULTOS AFRO BRAS    30101810 000016
10231987175000168817800093673    000024373                    000243730000000000000109                     I0224373     30101800000000040003410000017N200818104700000000000103010180000000000000000000000000000000000000000100019685726787ADELMIR HAMELIN SODRE                   RUA ITAIM                               COLEGIO     00000000RIO DE JANEIRO RJUNIAO UMB DOS CULTOS AFRO BRAS    30101810 000017
10231987175000168817800093673    000024309                    000243090000000000000109                     I3424309     30101800000000035003410000017N200818104700000000000103010180000000000000000000000000000000000000000100054571715743VILMA OLIVEIRA DOS SANTOS               RUA CORREIA DIAS                        VIGARIO GERA21241310RIO DE JANEIRO RJUNIAO UMB DOS CULTOS AFRO BRAS    30101810 000018
9                                                                                                                                                                                                                                                                                                                                                                                                         000019
