01REMESSA01COBRANCA       916200163100        União Umb dos Cultos Afro Bra341BANCO ITAU SA  130319                                                                                                                                                                                                                                                                                                      000001
10231987175000168916200163100    000042806                    000428060000000000000109                     I0142806     30051900000000040003410000017N130319104700000000000103005190000000000000000000000000000000000000000100040433307749IARA BARBOSA MACHADO                    RUA SAO FIDELIS N 0, LOTE 16 QUADRA 25  PRADOS VERDE26299165NOVA IGUACU    RJUNIAO UMB DOS CULTOS AFRO BRAS    30051910 000002
10231987175000168916200163100    000042805                    000428050000000000000109                     I0142805     30051900000000040003410000017N130319104700000000000103005190000000000000000000000000000000000000000100002045675726ROBSON DOS SANTOS ABREU                 RUA PERCILIANA EMILIA DO NASCIMENTO N 24SILVESTRE   23092540CAMPO GRANDE   RJUNIAO UMB DOS CULTOS AFRO BRAS    30051910 000003
10231987175000168916200163100    000042804                    000428040000000000000109                     I0142804     30051900000000040003410000017N130319104700000000000103005190000000000000000000000000000000000000000100005793791752WANDERSON DAMASCENO CATARINO            TRAVESSA ALBERTO PITTA N 427,           BARRO VERMEL24416060SAO GONCALO    RJUNIAO UMB DOS CULTOS AFRO BRAS    30051910 000004
10231987175000168916200163100    000042803                    000428030000000000000109                     I0142803     30051900000000040003410000017N130319104700000000000103005190000000000000000000000000000000000000000100001969753790ROSANGELA CRISTINA GOULART              RUA LUIZ BATISTA LOPES N 35,            IUCAS       25964240TERESOPOLIS    RJUNIAO UMB DOS CULTOS AFRO BRAS    30051910 000005
10231987175000168916200163100    000042802                    000428020000000000000109                     I0142802     30051900000000040003410000017N130319104700000000000103005190000000000000000000000000000000000000000100003346596710ROSILENI ROSA DA SILVA                  RUA SOARES TAVARESN 133,                ITAIPU      24342110NITEROI        RJUNIAO UMB DOS CULTOS AFRO BRAS    30051910 000006
10231987175000168916200163100    000042801                    000428010000000000000109                     I0142801     30051900000000040003410000017N130319104700000000000103005190000000000000000000000000000000000000000100001084586797ANA GLORIA NONATO CASTILHO              RUA GENERAL BELEGARDEN 104, CASA 34 APT ENGENHO NOVO20710003RIO DE JANEIRO RJUNIAO UMB DOS CULTOS AFRO BRAS    30051910 000007
10231987175000168916200163100    000042800                    000428000000000000000109                     I0142800     30051900000000040003410000017N130319104700000000000103005190000000000000000000000000000000000000000100002644948738PAULO CESAR MARINS DA SILVA             RUA: EDUARDO NORONHA N 35,              ROCHA       24420615SAO GONCALO    RJUNIAO UMB DOS CULTOS AFRO BRAS    30051910 000008
10231987175000168916200163100    000042799                    000427990000000000000109                     I0142799     30051900000000040003410000017N130319104700000000000103005190000000000000000000000000000000000000000100000907912745JULIO CESAR FRANCA CORREA               RUA ITAPERUNA N 55,                     VILA DE CAVA26056260NOVA IGUACU    RJUNIAO UMB DOS CULTOS AFRO BRAS    30051910 000009
10231987175000168916200163100    000042798                    000427980000000000000109                     I0142798     30051900000000040003410000017N130319104700000000000103005190000000000000000000000000000000000000000100000355768712ANA CRISTINA VERISSIMO DA SILV          ESTRADA DO TINGUI N 1990,               CAMPO GRANDE23075006RIO DE JANEIRO RJUNIAO UMB DOS CULTOS AFRO BRAS    30051910 000010
10231987175000168916200163100    000042797                    000427970000000000000109                     I0142797     30051900000000040003410000017N130319104700000000000103005190000000000000000000000000000000000000000100067321364704MARGARETH SOARES PECHIR                 RUA PRACINHA CESARIO AGUIAR N 256,      PITANGUEIRAS21930230RIO DE JANEIRO RJUNIAO UMB DOS CULTOS AFRO BRAS    30051910 000011
10231987175000168916200163100    000042796                    000427960000000000000109                     I0142796     30051900000000040003410000017N130319104700000000000103005190000000000000000000000000000000000000000100008304619733LEILA DO NASCIMENTO COUTINHO            AVENIDA VICENTE DE CARVALHON 1086,  RUA VILA KOSMOS 21210024RIO DE JANEIRO RJUNIAO UMB DOS CULTOS AFRO BRAS    30051910 000012
10231987175000168916200163100    000042795                    000427950000000000000109                     I0142795     30051900000000040003410000017N130319104700000000000103005190000000000000000000000000000000000000000100001346507783ANDREIA FERREIRA E CUNHA                AVENIDA TIRADENTES N 465, CASA 4        CONFIDENCIA 26323260NOVA IGUACU    RJUNIAO UMB DOS CULTOS AFRO BRAS    30051910 000013
10231987175000168916200163100    000042794                    000427940000000000000109                     I0142794     30051900000000040003410000017N130319104700000000000103005190000000000000000000000000000000000000000100007429798659LUCIANA DIAS DE ARRUDA                  RUA CECILIA BRAGA N 16,                 SANTO ANTONI36500000UBA            MGUNIAO UMB DOS CULTOS AFRO BRAS    30051910 000014
10231987175000168916200163100    000042793                    000427930000000000000109                     I0142793     30051900000000040003410000017N130319104700000000000103005190000000000000000000000000000000000000000100078885647715NELMA ARLOY VIEIRA                      RUA QUIRIRIM N 1523, CASA 34 SUBSOLO    VILA VALQUEI21380658RIO DE JANEIRO RJUNIAO UMB DOS CULTOS AFRO BRAS    30051910 000015
10231987175000168916200163100    000042792                    000427920000000000000109                     I0142792     30051900000000040003410000017N130319104700000000000103005190000000000000000000000000000000000000000100089497899734UGO SILVA FILHO                         RUA ITABAIANA N 49, APT 502             GRAJAU      20561050RIO DE JANEIRO RJUNIAO UMB DOS CULTOS AFRO BRAS    30051910 000016
10231987175000168916200163100    000042791                    000427910000000000000109                     I0142791     30051900000000040003410000017N130319104700000000000103005190000000000000000000000000000000000000000100054968330782REGINA DA MOTA TRINDADE                 RUA CORVILHA N 0, LOTE 5 QUADRA 351     PARADA MORAB25265353DUQUE DE CAXIASRJUNIAO UMB DOS CULTOS AFRO BRAS    30051910 000017
10231987175000168916200163100    000042790                    000427900000000000000109                     I0142790     30051900000000040003410000017N130319104700000000000103005190000000000000000000000000000000000000000100012097291724CAROLINA BEZERRA DE CASTRO CAV          AVENIDA DOM HELDER CAMARAN 9111, BLOCO 1QUINTINO BOC21380008RIO DE JANEIRO RJUNIAO UMB DOS CULTOS AFRO BRAS    30051910 000018
10231987175000168916200163100    000042789                    000427890000000000000109                     I0142789     30051900000000040003410000017N130319104700000000000103005190000000000000000000000000000000000000000100004150910715IVONICE DA CONCEICAO                    AVENIDA DOM HELDER CAMARAN 6789,  CASA 1PILARES     20751000RIO DE JANEIRO RJUNIAO UMB DOS CULTOS AFRO BRAS    30051910 000019
10231987175000168916200163100    000042788                    000427880000000000000109                     I0142788     30051900000000040003410000017N130319104700000000000103005190000000000000000000000000000000000000000100093130864768SOLANGE GERMANO DA COSTA                RUA URUCUIAN 689, CASA 1                VILA VALQUEI21321310RIO DE JANEIRO RJUNIAO UMB DOS CULTOS AFRO BRAS    30051910 000020
10231987175000168916200163100    000042787                    000427870000000000000109                     I0142787     30051900000000040003410000017N130319104700000000000103005190000000000000000000000000000000000000000100030400942895CLAUDIA REIS SANTOS ARAUJO              RUA LUIS PASQUALLE NETON 218,           SAO JOAO CLI04241030SAO PAULO      SPUNIAO UMB DOS CULTOS AFRO BRAS    30051910 000021
10231987175000168916200163100    000042786                    000427860000000000000109                     I0142786     30051900000000040003410000017N130319104700000000000103005190000000000000000000000000000000000000000100007049805769DAYSI LUCIA FREIRE DE AZEVEDO           ESTRADA CAETANO MONTEIRON 747,          LARGO DA BAT24320570NITEROI        RJUNIAO UMB DOS CULTOS AFRO BRAS    30051910 000022
10231987175000168916200163100    000042785                    000427850000000000000109                     I0142785     30051900000000040003410000017N130319104700000000000103005190000000000000000000000000000000000000000100037257331715WALTANIR LOURENCO DOS SANTOS            RUA APORUNA N 52,                       PARQUE SAO J26190130BELFORD ROXO   RJUNIAO UMB DOS CULTOS AFRO BRAS    30051910 000023
10231987175000168916200163100    000042784                    000427840000000000000109                     I0142784     30051900000000040003410000017N130319104700000000000103005190000000000000000000000000000000000000000100005474832796VANESSA MANTUANO FERNANDES              RUA CANINDE N 29, CASA 1                JACARE      20975010RIO DE JANEIRO RJUNIAO UMB DOS CULTOS AFRO BRAS    30051910 000024
10231987175000168916200163100    000042783                    000427830000000000000109                     I0142783     30051900000000040003410000017N130319104700000000000103005190000000000000000000000000000000000000000100005785015706JOSE TOMASIO                            RUA: DA FIGUEIRAN 102,                  TRES POCOS  27240590VOLTA REDONDA  RJUNIAO UMB DOS CULTOS AFRO BRAS    30051910 000025
10231987175000168916200163100    000042782                    000427820000000000000109                     I0142782     30051900000000040003410000017N130319104700000000000103005190000000000000000000000000000000000000000100080869513753DINA LADISLAU DE SOUZA                  RUA ANGELA ABELANEN 0, LOTE 18 QUADRA 15BRISAMAR    23826420ITAGUAI        RJUNIAO UMB DOS CULTOS AFRO BRAS    30051910 000026
10231987175000168916200163100    000042781                    000427810000000000000109                     I0142781     30051900000000040003410000017N130319104700000000000103005190000000000000000000000000000000000000000100058183868720ZILDA SIMOES DO NASCIMENTO MAN          RUA IBITINGA N 31, LOTE 9               PARQUE SAO B26167160BELFORD ROXO   RJUNIAO UMB DOS CULTOS AFRO BRAS    30051910 000027
10231987175000168916200163100    000042780                    000427800000000000000109                     I0142780     30051900000000040003410000017N130319104700000000000103005190000000000000000000000000000000000000000100084597763791VERA LUCIA PASSOS DA COSTA              ESTRADA PAU DA FOME N 2360, CASA 19 A   TAQUARA     22723497RIO DE JANEIRO RJUNIAO UMB DOS CULTOS AFRO BRAS    30051910 000028
10231987175000168916200163100    000042779                    000427790000000000000109                     I0142779     30051900000000040003410000017N130319104700000000000103005190000000000000000000000000000000000000000100002596844737NANCI BARCELOS MACIEL                   RUA CAPITAO MACHADO  N 607,             PRACA SECA  21320030RIO DE JANEIRO RJUNIAO UMB DOS CULTOS AFRO BRAS    30051910 000029
10231987175000168916200163100    000042778                    000427780000000000000109                     I0142778     30051900000000040003410000017N130319104700000000000103005190000000000000000000000000000000000000000100015477441704RAFAEL LOPES DOS SANTOS                 RUA SANTA TERESINHAN 11, CASA 2         JARDIM METRO25571430SAO JOAO DE MERRJUNIAO UMB DOS CULTOS AFRO BRAS    30051910 000030
10231987175000168916200163100    000042777                    000427770000000000000109                     I0142777     30051900000000040003410000017N130319104700000000000103005190000000000000000000000000000000000000000100009948535723ANA CAROLINA VICENTE TELLES GO          RUA PACHECO JUNIOR N 151,               BRAZ DE PINA21211170RIO DE JANEIRO RJUNIAO UMB DOS CULTOS AFRO BRAS    30051910 000031
10231987175000168916200163100    000042776                    000427760000000000000109                     I0142776     30051900000000040003410000017N130319104700000000000103005190000000000000000000000000000000000000000100089227140778ISIS FONSECA ALVES                      RUA GUACIRAN 135, FUNDOS                BRAS DE PINA21011170RIO DE JANEIRO RJUNIAO UMB DOS CULTOS AFRO BRAS    30051910 000032
10231987175000168916200163100    000042775                    000427750000000000000109                     I0142775     30051900000000040003410000017N130319104700000000000103005190000000000000000000000000000000000000000100093743920700RITA DE CASSIA COSTA SENNA              RUA COMANDANTE ARY PARREIRAS N 181,     CENTRO      25515080SAO JOAO DE MERRJUNIAO UMB DOS CULTOS AFRO BRAS    30051910 000033
10231987175000168916200163100    000042774                    000427740000000000000109                     I0142774     30051900000000040003410000017N130319104700000000000103005190000000000000000000000000000000000000000100088262111753ALDA OLIVEIRA MILITAO GONCALVE          RUA 756N 377,                           CASA DE PEDR27257220VOLTA REDONDA  RJUNIAO UMB DOS CULTOS AFRO BRAS    30051910 000034
10231987175000168916200163100    000042773                    000427730000000000000109                     I0142773     30051900000000040003410000017N130319104700000000000103005190000000000000000000000000000000000000000100085339695700DAYSE DE ALMEIDA SOARES                 RUA: COMANDANTE RUBENS SILVA N 700, BLOCJACAREPAGUA 22750054RIO DE JANEIRO RJUNIAO UMB DOS CULTOS AFRO BRAS    30051910 000035
10231987175000168916200163100    000042772                    000427720000000000000109                     I0142772     30051900000000040003410000017N130319104700000000000103005190000000000000000000000000000000000000000100084407883715MAURO FERREIRA MATHEUS                  ESTRADA DO ENGENHO, N 1981, RUA CASTOR DPRACA PIQUER21370200RIO DE JANEIRO RJUNIAO UMB DOS CULTOS AFRO BRAS    30051910 000036
10231987175000168916200163100    000042771                    000427710000000000000109                     I0142771     30051900000000040003410000017N130319104700000000000103005190000000000000000000000000000000000000000100000446671754JUSSARA MATHIAS TEIXEIRA                RUA VEREADOR OSVALDO MARCONDES N 106,   JOSE BONIFAC25515380SAO JOAO DE MERRJUNIAO UMB DOS CULTOS AFRO BRAS    30051910 000037
10231987175000168916200163100    000042770                    000427700000000000000109                     I0142770     30051900000000040003410000017N130319104700000000000103005190000000000000000000000000000000000000000100008091112769ALINE BEATRIZ GARCIA DA SILVA           RUA ENGENHEIRO HENRIQUE LUSSACK N 936,  CENTRO      26553500MESQUITA       RJUNIAO UMB DOS CULTOS AFRO BRAS    30051910 000038
10231987175000168916200163100    000042769                    000427690000000000000109                     I0142769     30051900000000040003410000017N130319104700000000000103005190000000000000000000000000000000000000000100013553344890LUCIANO MAURICIO ESTEVES OSTER          ESTRADA ANTONIO DOS REIS CARNEIRON 154, SAO JOSE    26193320BELFORD ROXO   RJUNIAO UMB DOS CULTOS AFRO BRAS    30051910 000039
10231987175000168916200163100    000042768                    000427680000000000000109                     I0142768     30051900000000040003410000017N130319104700000000000103005190000000000000000000000000000000000000000100037497030787LINDINALVA AGUIAR PAVANELLI             RUA CRUZ LIMA  N 41, APT 801            FLAMENGO    22230010RIO DE JANEIRO RJUNIAO UMB DOS CULTOS AFRO BRAS    30051910 000040
10231987175000168916200163100    000042767                    000427670000000000000109                     I0142767     30051900000000040003410000017N130319104700000000000103005190000000000000000000000000000000000000000100060709910797FATIMA REGINA CARVALHO                  RUA GENERAL EMIRN 0,  QUADRA 39 LOTE 1 CITAIPUCU    24935540MARICA         RJUNIAO UMB DOS CULTOS AFRO BRAS    30051910 000041
10231987175000168916200163100    000042766                    000427660000000000000109                     I0142766     30051900000000040003410000017N130319104700000000000103005190000000000000000000000000000000000000000100009952239718EVANGELO RAIMUNDO                       RUA GENUINO SIQUEIRAN 52,               JARDIM MERIT25555300SAO JOAO DE MERRJUNIAO UMB DOS CULTOS AFRO BRAS    30051910 000042
10231987175000168916200163100    000042765                    000427650000000000000109                     I0142765     30051900000000040003410000017N130319104700000000000103005190000000000000000000000000000000000000000100005626387765VANIA SANTIAGO                          RUA MANOEL VIEIRAN 576,                 CENTRO      25020210DUQUE DE CAXIASRJUNIAO UMB DOS CULTOS AFRO BRAS    30051910 000043
10231987175000168916200163100    000042764                    000427640000000000000109                     I0142764     30051900000000040003410000017N130319104700000000000103005190000000000000000000000000000000000000000100083492909787MARCIA DA COSTA BRANDAO                 TRAVESSA MALAFAIAN 49,                  DEL CASTILHO21050620RIO DE JANEIRO RJUNIAO UMB DOS CULTOS AFRO BRAS    30051910 000044
10231987175000168916200163100    000042763                    000427630000000000000109                     I0142763     30051900000000040003410000017N130319104700000000000103005190000000000000000000000000000000000000000100003867378789ANGELA MIRANDA                          RUA MAZONHAN 0, LOTE 1 QUADRA 14 - LOTEACHAPERO     23812245ITAGUAI        RJUNIAO UMB DOS CULTOS AFRO BRAS    30051910 000045
10231987175000168916200163100    000042762                    000427620000000000000109                     I0142762     30051900000000040003410000017N130319104700000000000103005190000000000000000000000000000000000000000100001902241770JOSE RICARDO CORREA FERREIRA            RUA BIRIGUIN 4459,                      BOA VISTA   24466190SAO GONCALO    RJUNIAO UMB DOS CULTOS AFRO BRAS    30051910 000046
10231987175000168916200163100    000042761                    000427610000000000000109                     I0142761     30051900000000045003410000017N130319104700000000000103005190000000000000000000000000000000000000000100007469638741TATIANA ANICETO DE LEMOS SIMOE          RUA REVERENCIA  N 86,                   CURICICA    22780580RIO DE JANEIRO RJUNIAO UMB DOS CULTOS AFRO BRAS    30051910 000047
10231987175000168916200163100    000042760                    000427600000000000000109                     I0142760     30051900000000040003410000017N130319104700000000000103005190000000000000000000000000000000000000000100007631285705ANDERSON DE OLIVEIRA INACIO             RUA NOSSA SENHORA DE FATIMAN 29,        PENHA       21072750RIO DE JANEIRO RJUNIAO UMB DOS CULTOS AFRO BRAS    30051910 000048
10231987175000168916200163100    000042759                    000427590000000000000109                     I0142759     30051900000000040003410000017N130319104700000000000103005190000000000000000000000000000000000000000100003341576762FATIMA REGINA PAREDE                    RUA NANCIN 116,                         DE MAIO     26052650NOVA IGUACU    RJUNIAO UMB DOS CULTOS AFRO BRAS    30051910 000049
10231987175000168916200163100    000042758                    000427580000000000000109                     I0142758     30051900000000040003410000017N130319104700000000000103005190000000000000000000000000000000000000000100057231737749ELIZABETE CARVALHO COSTA                RUA EXPEDICIONARIO SIMAO FERNANDESN 31, COLUMBANDE  24451700SAO GONCALO    RJUNIAO UMB DOS CULTOS AFRO BRAS    30051910 000050
10231987175000168916200163100    000042757                    000427570000000000000109                     I0142757     30051900000000040003410000017N130319104700000000000103005190000000000000000000000000000000000000000100077351436649RONALDO MARTINS DOS SANTOS              RUA DOMINGOS MARCOS DA SILVA N 196,     SENHOR DOS M36300356SAO JOAO DEL REMGUNIAO UMB DOS CULTOS AFRO BRAS    30051910 000051
10231987175000168916200163100    000042756                    000427560000000000000109                     I0142756     30051900000000040003410000017N130319104700000000000103005190000000000000000000000000000000000000000100010610164716TATIANA DA SILVA SANTOS                 RUA IRACEMAN 176,                       VILA DE CAVA25065655NOVA IGUACU    RJUNIAO UMB DOS CULTOS AFRO BRAS    30051910 000052
10231987175000168916200163100    000042755                    000427550000000000000109                     I0142755     30051900000000040003410000017N130319104700000000000103005190000000000000000000000000000000000000000100015458844718ANDRE LUIZ TRINDADE FORTES JUN          RUA HERTAN 25,                          IMPERADOR   25900001MAGE           RJUNIAO UMB DOS CULTOS AFRO BRAS    30051910 000053
10231987175000168916200163100    000042754                    000427540000000000000109                     I0142754     30051900000000040003410000017N130319104700000000000103005190000000000000000000000000000000000000000100003139923716ANDRE MARQUES POLICARPO                 RUA PIRACANJUBA N 0, LOTE 11 QUADRA 209 JARDIM CATAR24716051SAO GONCALO    RJUNIAO UMB DOS CULTOS AFRO BRAS    30051910 000054
10231987175000168916200163100    000042753                    000427530000000000000109                     I0142753     30051900000000040003410000017N130319104700000000000103005190000000000000000000000000000000000000000100002139519752CARLA MARIA DE BRITO DOS SANTO          RUA ECHEVERRIAN 309, BLOCO 08 APT 501   BARRO BRANCO25267142DUQUE DE CAXIASRJUNIAO UMB DOS CULTOS AFRO BRAS    30051910 000055
10231987175000168916200163100    000042752                    000427520000000000000109                     I0142752     30051900000000040003410000017N130319104700000000000103005190000000000000000000000000000000000000000100000200790790LUIS JORGE MOCO                         RUA ECA DE QUEIROSN 0, LOTE 74 QUADRA 7 PANTANAL    25040350DUQUE DE CAXIASRJUNIAO UMB DOS CULTOS AFRO BRAS    30051910 000056
10231987175000168916200163100    000042751                    000427510000000000000109                     I0142751     30051900000000040003410000017N130319104700000000000103005190000000000000000000000000000000000000000100005953253605MILTON COELHO DO NASCIMENTO JU          RUA BEZERRA DE MENEZES N 73, APT 102    VAZ LOBO    21361000RIO DE JANEIRO RJUNIAO UMB DOS CULTOS AFRO BRAS    30051910 000057
10231987175000168916200163100    000042750                    000427500000000000000109                     I0142750     30051900000000040003410000017N130319104700000000000103005190000000000000000000000000000000000000000100002730493727ALBERTO ALEXANDRE DOS SANTOS M          RUA ECA DE QUEIROZN 0, QUADRA 60 LOTE 2 PANTANAL    25040350DUQUE DE CAXIASRJUNIAO UMB DOS CULTOS AFRO BRAS    30051910 000058
10231987175000168916200163100    000042749                    000427490000000000000109                     I0142749     30051900000000040003410000017N130319104700000000000103005190000000000000000000000000000000000000000100006156525734SAFIRA COELHO DA CRUZ                   RUA LUKENIEN 88,                        CURICICA - T22775480RIO DE JANEIRO RJUNIAO UMB DOS CULTOS AFRO BRAS    30051910 000059
10231987175000168916200163100    000042748                    000427480000000000000109                     I0142748     30051900000000040003410000017N130319104700000000000103005190000000000000000000000000000000000000000100000000000000GUILHERME SANTOS LINHARES               TRAVESSA EUGENIA N 34, CASA 102         RAMOS       21060440RIO DE JANEIRO RJUNIAO UMB DOS CULTOS AFRO BRAS    30051910 000060
10231987175000168916200163100    000042747                    000427470000000000000109                     I0142747     30051900000000040003410000017N130319104700000000000103005190000000000000000000000000000000000000000100027313590725JOAO BATISTA FERREIRA                   RUA TEIXEIRA PINTON 116,                ENGENHEIRO B25520210SAO JOAO DE MERRJUNIAO UMB DOS CULTOS AFRO BRAS    30051910 000061
10231987175000168916200163100    000042746                    000427460000000000000109                     I0142746     30051900000000040003410000017N130319104700000000000103005190000000000000000000000000000000000000000100016212777713TAYNARA LUZIA SILVA SOUZA               RODOVIA LUCIO MEIRAN 45772, KM 249 BR-39MINUANO     27115190BARRA DO PIRAI RJUNIAO UMB DOS CULTOS AFRO BRAS    30051910 000062
10231987175000168916200163100    000042745                    000427450000000000000109                     I0142745     30051900000000040003410000017N130319104700000000000103005190000000000000000000000000000000000000000100000437025110WAGNER GOMES SILVA                      ESTRADA DA PEDRA - SERVIENTE DEZ N 0, LOSANTA CRUZ  23520480RIO DE JANEIRO RJUNIAO UMB DOS CULTOS AFRO BRAS    30051910 000063
10231987175000168916200163100    000042744                    000427440000000000000109                     I0142744     30051900000000040003410000017N130319104700000000000103005190000000000000000000000000000000000000000100010368667774SUZANA PEREIRA MOIZINHO                 RUA CONCEICAO DA PEDRA N 77,            ARNALDO EUGE23016330CAMPO GRANDE   RJUNIAO UMB DOS CULTOS AFRO BRAS    30051910 000064
10231987175000168916200163100    000042743                    000427430000000000000109                     I0142743     30051900000000040003410000017N130319104700000000000103005190000000000000000000000000000000000000000100061269743791JUREMA MARCIA COELHO CETERUELO          RUA TERESOPOLISN 46,                    JARDIM METRO25570371SAO JOAO DE MERRJUNIAO UMB DOS CULTOS AFRO BRAS    30051910 000065
10231987175000168916200163100    000042742                    000427420000000000000109                     I0142742     30051900000000040003410000017N130319104700000000000103005190000000000000000000000000000000000000000100012661069798REGINA DA CONCEICAO VIANA               RUA POTIN 10,                           PARQUE FLUMI25042610DUQUE DE CAXIASRJUNIAO UMB DOS CULTOS AFRO BRAS    30051910 000066
10231987175000168916200163100    000042741                    000427410000000000000109                     I0142741     30051900000000040003410000017N130319104700000000000103005190000000000000000000000000000000000000000100000937144754EGLEA MARIA DE JESUS ROCHA DE           RUA MARIO GARCIA N 0, LOTE 7 QUADRA 60  VILA SANTO A25040370DUQUE DE CAXIASRJUNIAO UMB DOS CULTOS AFRO BRAS    30051910 000067
10231987175000168916200163100    000042740                    000427400000000000000109                     I0142740     30051900000000040003410000017N130319104700000000000103005190000000000000000000000000000000000000000100049490087734DIRCE MARA DE OLIVEIRA PAULA            RUA OTILIO LIMA N 0, LOTE 2 QUADRA 130  SANTA LUZIA 24721490SAO GONCALO    RJUNIAO UMB DOS CULTOS AFRO BRAS    30051910 000068
10231987175000168916200163100    000042739                    000427390000000000000109                     I0142739     30051900000000040003410000017N130319104700000000000103005190000000000000000000000000000000000000000100069865752700HUGO MAGALHAES PEREIRA FILHO            RUA BAGDAN 70,                          PANTANAL    25040400DUQUE DE CAXIASRJUNIAO UMB DOS CULTOS AFRO BRAS    30051910 000069
10231987175000168916200163100    000042738                    000427380000000000000109                     I0142738     30051900000000040003410000017N130319104700000000000103005190000000000000000000000000000000000000000100079227422749ROGERIO DOS SANTOS                      RUA LOURENCO CAMPOSN 156, CASA 1        SAO MATEUS  25525711SAO JOAO DE MERRJUNIAO UMB DOS CULTOS AFRO BRAS    30051910 000070
10231987175000168916200163100    000042737                    000427370000000000000109                     I0142737     30051900000000040003410000017N130319104700000000000103005190000000000000000000000000000000000000000100001582280738NATALICIA LOPES PEREIRA                 ALAMEDA JORGINHON 36, LOTE 11 QUADRA 24 FRAGOSO     29000000MAGE           RJUNIAO UMB DOS CULTOS AFRO BRAS    30051910 000071
10231987175000168916200163100    000042736                    000427360000000000000109                     I0142736     30051900000000040003410000017N130319104700000000000103005190000000000000000000000000000000000000000100002578661758ANA MARIA BATISTA DA SILVA              RUA SIMOES DE SOUZA N 0, LOTE 13 QUADRA JARDIM PRIMA25223520DUQUE DE CAXIASRJUNIAO UMB DOS CULTOS AFRO BRAS    30051910 000072
10231987175000168916200163100    000042735                    000427350000000000000109                     I0142735     30051900000000040003410000017N130319104700000000000103005190000000000000000000000000000000000000000100004701154750VIVIANE FELIX GOMES                     RUA VANDA VASCONCELOS N 0, QD 8 LOTE 14 JARDIM REDEN26195460BELFORD ROXO   RJUNIAO UMB DOS CULTOS AFRO BRAS    30051910 000073
10231987175000168916200163100    000042734                    000427340000000000000109                     I0142734     30051900000000040003410000017N130319104700000000000103005190000000000000000000000000000000000000000100063579588753EDSON DOS SANTOS ROSA                   RUA VENANCIO ADRESN 1669, CASA 1        GRAMACHO    25036170DUQUE DE CAXIASRJUNIAO UMB DOS CULTOS AFRO BRAS    30051910 000074
10231987175000168916200163100    000042733                    000427330000000000000109                     I0142733     30051900000000040003410000017N130319104700000000000103005190000000000000000000000000000000000000000100004163698981LEANDRO VIEIRA DOS SANTOS               RUA DIAS DA CRUZN 50,                   JARDIM MERIT25555280RIO DE JANEIRO RJUNIAO UMB DOS CULTOS AFRO BRAS    30051910 000075
10231987175000168916200163100    000042732                    000427320000000000000109                     I0142732     30051900000000040003410000017N130319104700000000000103005190000000000000000000000000000000000000000100010503933767THIAGO MARQUES DE CARVALHO              TRAVESSA DA SERVIDAON 17,               CAMPO GRANDE23017405RIO DE JANEIRO RJUNIAO UMB DOS CULTOS AFRO BRAS    30051910 000076
10231987175000168916200163100    000042731                    000427310000000000000109                     I0142731     30051900000000040003410000017N130319104700000000000103005190000000000000000000000000000000000000000100011341119750ELAINE BARBOSA DOS SANTOS               ESTRADA DO BARRO VERMELHO N 784,        ROCHA MIRAND21540500RIO DE JANEIRO RJUNIAO UMB DOS CULTOS AFRO BRAS    30051910 000077
10231987175000168916200163100    000042730                    000427300000000000000109                     I0142730     30051900000000040003410000017N130319104700000000000103005190000000000000000000000000000000000000000100068786220772HELOISA HELENA DE SOUZA DUARTE          RUA BARAO DE IPANEMAN 127, APTº 803    COPACABANA  22050031RIO DE JANEIRO RJUNIAO UMB DOS CULTOS AFRO BRAS    30051910 000078
10231987175000168916200163100    000042729                    000427290000000000000109                     I0142729     30051900000000040003410000017N130319104700000000000103005190000000000000000000000000000000000000000100011964838762CARLOS RENNAN CORREIA BORGES            RUA AMERICA DOURADAN 0, LOTE 8 QUADRA 34CAMPO GRANDE23088240RIO DE JANEIRO RJUNIAO UMB DOS CULTOS AFRO BRAS    30051910 000079
10231987175000168916200163100    000042728                    000427280000000000000109                     I0142728     30051900000000040003410000017N130319104700000000000103005190000000000000000000000000000000000000000100093461755753MARCIA SILVA DE ABREU                   AVENIDA DO CATEQUISTAN 43,              BANGU       21842130RIO DE JANEIRO RJUNIAO UMB DOS CULTOS AFRO BRAS    30051910 000080
10231987175000168916200163100    000042727                    000427270000000000000109                     I0142727     30051900000000040003410000017N130319104700000000000103005190000000000000000000000000000000000000000100040883612704JOAO ROBERTO RAJO SIMOES                RUA QUITON 384,                         PENHA       21020330RIO DE JANEIRO RJUNIAO UMB DOS CULTOS AFRO BRAS    30051910 000081
10231987175000168916200163100    000042726                    000427260000000000000109                     I0142726     30051900000000040003410000017N130319104700000000000103005190000000000000000000000000000000000000000100009556812784AROLDO ADRIANO DE OLIVEIRA              RUA IBITUN 127, FUNDOS                  REALENGO    21765510RIO DE JANEIRO RJUNIAO UMB DOS CULTOS AFRO BRAS    30051910 000082
10231987175000168916200163100    000042725                    000427250000000000000109                     I0142725     30051900000000040003410000017N130319104700000000000103005190000000000000000000000000000000000000000100081531095704ROSANA ALMEIDA SILVA                    RUA JOAQUIM MARIANO DE MOURA N 246,     PONTO CHIC  26032840NOVA IGUACU    RJUNIAO UMB DOS CULTOS AFRO BRAS    30051910 000083
10231987175000168916200163100    000042724                    000427240000000000000109                     I0142724     30051900000000040003410000017N130319104700000000000103005190000000000000000000000000000000000000000100040262146720ARABELA SILVA CAMPOS DOS REIS           RUA DUARTE TEIXEIRAN 349, CASA 4        QUINTINO BOC21311330RIO DE JANEIRO RJUNIAO UMB DOS CULTOS AFRO BRAS    30051910 000084
10231987175000168916200163100    000042723                    000427230000000000000109                     I0142723     30051900000000040003410000017N130319104700000000000103005190000000000000000000000000000000000000000100009079674770FERNANDA DOS SANTOS SILVA               TRAVESSA IPACARAIN 70, CASA 5           COLUBANDE   24451290SAO GONCALO    RJUNIAO UMB DOS CULTOS AFRO BRAS    30051910 000085
10231987175000168916200163100    000042722                    000427220000000000000109                     I0142722     30051900000000040003410000017N130319104700000000000103005190000000000000000000000000000000000000000100050002317753IVO DE AZEVEDO COELHO                   RUA REVERINO ABIDIAS NOBREN 277, CASA 1 COIMBRA     21105170BARRA DO PIRAI RJUNIAO UMB DOS CULTOS AFRO BRAS    30051910 000086
10231987175000168916200163100    000042721                    000427210000000000000109                     I0142721     30051900000000040003410000017N130319104700000000000103005190000000000000000000000000000000000000000100000856003778ANA ELIZABETE ANTUNES SANTOS            RUA GETULIO VARGASN 1,                  SEPETIBA    23540130RIO DE JANEIRO RJUNIAO UMB DOS CULTOS AFRO BRAS    30051910 000087
10231987175000168916200163100    000042720                    000427200000000000000109                     I0142720     30051900000000040003410000017N130319104700000000000103005190000000000000000000000000000000000000000100002202729720ANA CLAUDIA NEVES BARRETO               RUA ACARAN 402,                         VAZ LOBO    21361310RIO DE JANEIRO RJUNIAO UMB DOS CULTOS AFRO BRAS    30051910 000088
10231987175000168916200163100    000042719                    000427190000000000000109                     I0142719     30051900000000040003410000017N130319104700000000000103005190000000000000000000000000000000000000000100008681117750DAVIS CANDIDO PEREIRA                   RUA BALTAZARN 0, QUADRA 2 LOTE 21       CAMPO ALEGRE26292276NOVA IGUACU    RJUNIAO UMB DOS CULTOS AFRO BRAS    30051910 000089
10231987175000168916200163100    000042718                    000427180000000000000109                     I0142718     30051900000000040003410000017N130319104700000000000103005190000000000000000000000000000000000000000100089823753768MARIA JOSE DA ROCHA NOBREGA             RUA DOS LIRIOSN 2, CASA                 SHANGRILA   26150071BELFORD ROXO   RJUNIAO UMB DOS CULTOS AFRO BRAS    30051910 000090
10231987175000168916200163100    000042717                    000427170000000000000109                     I0142717     30051900000000040003410000017N130319104700000000000103005190000000000000000000000000000000000000000100082977852700ISAURA FERNANDES FERREIRA               RUA DENVERN 0,  LOTE 23 QUADRA 15       PIAM        26115590BELFORD ROXO   RJUNIAO UMB DOS CULTOS AFRO BRAS    30051910 000091
10231987175000168916200163100    000042716                    000427160000000000000109                     I0142716     30051900000000040003410000017N130319104700000000000103005190000000000000000000000000000000000000000100001366350758EDWILSON GOMES DA ROCHA                 TRAVESSA ELIZEU PINHALN 61,             SEPETIBA    23540320RIO DE JANEIRO RJUNIAO UMB DOS CULTOS AFRO BRAS    30051910 000092
10231987175000168916200163100    000042715                    000427150000000000000109                     I0142715     30051900000000040003410000017N130319104700000000000103005190000000000000000000000000000000000000000100007953958767PATRICIA DE OLIVEIRA ROIF               RUA MATURACAN 0, LOTE 2 QUADRA 1        PENHA CIRCUL21210360RIO DE JANEIRO RJUNIAO UMB DOS CULTOS AFRO BRAS    30051910 000093
10231987175000168916200163100    000042714                    000427140000000000000109                     I0142714     30051900000000040003410000017N130319104700000000000103005190000000000000000000000000000000000000000100008388149725WAGNER FERRELE DA SILVA                 RUA BENFICAN 0, LOTE 40 QUADRA 13       GRAMACHO    25060290DUQUE DE CAXIASRJUNIAO UMB DOS CULTOS AFRO BRAS    30051910 000094
10231987175000168916200163100    000042713                    000427130000000000000109                     I0142713     30051900000000040003410000017N130319104700000000000103005190000000000000000000000000000000000000000100010910780765TIAGO DE ANDRADE ALMEIDA                RUA PAULO DE FRONTIMN 29,               GOVERNADOR P26910000MIGUEL PEREIRA RJUNIAO UMB DOS CULTOS AFRO BRAS    30051910 000095
10231987175000168916200163100    000042712                    000427120000000000000109                     I0142712     30051900000000040003410000017N130319104700000000000103005190000000000000000000000000000000000000000100000028136705SHEILA DOS REIS VIEIRA                  RUA DINIZ BARRETON 172,                 MADUREIRA   21341250RIO DE JANEIRO RJUNIAO UMB DOS CULTOS AFRO BRAS    30051910 000096
10231987175000168916200163100    000042711                    000427110000000000000109                     I0142711     30051900000000040003410000017N130319104700000000000103005190000000000000000000000000000000000000000100024721975864LIDIANE FERNANDA BON SCHIAVI S          RUA LUIZ CAMERANO N 284,                BELVEDERE DA27113260BARRA DO PIRAI RJUNIAO UMB DOS CULTOS AFRO BRAS    30051910 000097
10231987175000168916200163100    000042710                    000427100000000000000109                     I0142710     30051900000000040003410000017N130319104700000000000103005190000000000000000000000000000000000000000100001383163766RENATA DOMINGUES COSTA LIMA JA          RUA CALIFAN 7,                          LAGOINHA    26298012NOVA IGUACU    RJUNIAO UMB DOS CULTOS AFRO BRAS    30051910 000098
10231987175000168916200163100    000042709                    000427090000000000000109                     I0142709     30051900000000040003410000017N130319104700000000000103005190000000000000000000000000000000000000000100089770250791JUREMA DA MACENA RAYMUNDO               RUA DAS DALIASN 78,                     VILA VALQUEI21330740RIO DE JANEIRO RJUNIAO UMB DOS CULTOS AFRO BRAS    30051910 000099
10231987175000168916200163100    000042708                    000427080000000000000109                     I0142708     30051900000000040003410000017N130319104700000000000103005190000000000000000000000000000000000000000100014326136774CAIO CESAR LIMA DA CRUZ                 RUA QUINTINO BOCAIUVAN 349,             NOVA CIDADE 26535130NILOPOLIS      RJUNIAO UMB DOS CULTOS AFRO BRAS    30051910 000100
10231987175000168916200163100    000042707                    000427070000000000000109                     I0142707     30051900000000040003410000017N130319104700000000000103005190000000000000000000000000000000000000000100005878475731CLEITOM RODRIGUES DE OLIVEIRA           RUA ARARIN 621, BLOCO 38 APTº 304      BANGU       21875260RIO DE JANEIRO RJUNIAO UMB DOS CULTOS AFRO BRAS    30051910 000101
10231987175000168916200163100    000042706                    000427060000000000000109                     I0142706     30051900000000040003410000017N130319104700000000000103005190000000000000000000000000000000000000000100000556390709ANNA MENDONCA BORGES                    RUA IN 1089, LOTEAMENTO SAO SEBASTIAO   FRAGOSO     25935486MAGE           RJUNIAO UMB DOS CULTOS AFRO BRAS    30051910 000102
10231987175000168916200163100    000042705                    000427050000000000000109                     I0142705     30051900000000040003410000017N130319104700000000000103005190000000000000000000000000000000000000000100003350774717ROGERIO SILVA DE SOUZA                  RUA TACARATUN 118,                      ROCHA MIRAND21555010RIO DE JANEIRO RJUNIAO UMB DOS CULTOS AFRO BRAS    30051910 000103
10231987175000168916200163100    000042704                    000427040000000000000109                     I0142704     30051900000000040003410000017N130319104700000000000103005190000000000000000000000000000000000000000100007812146707GRASIELI RIBEIRO DE ALMEIDA             RUA PADRE ARMANDO NOGUEIRAN 30,         AGUA SANTA  20745120RIO DE JANEIRO RJUNIAO UMB DOS CULTOS AFRO BRAS    30051910 000104
10231987175000168916200163100    000042703                    000427030000000000000109                     I0142703     30051900000000040003410000017N130319104700000000000103005190000000000000000000000000000000000000000100059744510749ANGELA REGINA ROSA DE SA                RUA SUEZN 174, KM 35                    BOM JESUS   26298180NOVA IGUACU    RJUNIAO UMB DOS CULTOS AFRO BRAS    30051910 000105
10231987175000168916200163100    000042702                    000427020000000000000109                     I0142702     30051900000000040003410000017N130319104700000000000103005190000000000000000000000000000000000000000100003558966724ANDREA CORDEIRO DA CONCEICAO S          RUA PARATIN 379, KM 35                  BOM JESUS   26298183NOVA IGUACU    RJUNIAO UMB DOS CULTOS AFRO BRAS    30051910 000106
10231987175000168916200163100    000042701                    000427010000000000000109                     I0142701     30051900000000040003410000017N130319104700000000000103005190000000000000000000000000000000000000000100039655172791JOSE CARLOS COSTA                       RUA HERTAN 25, PRAIA DO IMPERADOR       MAUA        25900000MAGE           RJUNIAO UMB DOS CULTOS AFRO BRAS    30051910 000107
10231987175000168916200163100    000042700                    000427000000000000000109                     I0142700     30051900000000040003410000017N130319104700000000000103005190000000000000000000000000000000000000000100096051523715MARIA DE LOURDES PEREIRA                RUA MAX MANOEL MOLTERN 0, LOTE 42       QUARTEIRO BR25680211PETROPOLIS     RJUNIAO UMB DOS CULTOS AFRO BRAS    30051910 000108
10231987175000168916200163100    000042699                    000426990000000000000109                     I0142699     30051900000000040003410000017N130319104700000000000103005190000000000000000000000000000000000000000100009168799764JANAINA BEMVINDO DOS SANTOS             RUA NOVA OLINDA N 42, FRENTE            PAVUNA      21520040RIO DE JANEIRO RJUNIAO UMB DOS CULTOS AFRO BRAS    30051910 000109
10231987175000168916200163100    000042698                    000426980000000000000109                     I0142698     30051900000000040003410000017N130319104700000000000103005190000000000000000000000000000000000000000100042897297700JOSE CARLOS LOUREIRO CORTEZ             RUA JOAO LUSON 215,                     REALENGO    21765620RIO DE JANEIRO RJUNIAO UMB DOS CULTOS AFRO BRAS    30051910 000110
10231987175000168916200163100    000042697                    000426970000000000000109                     I0142697     30051900000000040003410000017N130319104700000000000103005190000000000000000000000000000000000000000100008604956719MIRIAN DE MATTOS ALVES                  AVENIDA MOACIR SARAIVA DE CARVALHON 0,  JARDIM METRO25571190SAO JOAO DE MERRJUNIAO UMB DOS CULTOS AFRO BRAS    30051910 000111
10231987175000168916200163100    000042696                    000426960000000000000109                     I0142696     30051900000000040003410000017N130319104700000000000103005190000000000000000000000000000000000000000100002295785782ELVIRA RODRIGUES DE MELLO               RUA ARAGUARIN 182, COMPLEMENTO 183      VILI SAO SEB26160250BELFORD ROXO   RJUNIAO UMB DOS CULTOS AFRO BRAS    30051910 000112
10231987175000168916200163100    000042695                    000426950000000000000109                     I0142695     30051900000000040003410000017N130319104700000000000103005190000000000000000000000000000000000000000100002415896730ROSIELMA SANTOS SOUZA                   RUA MONDEGON 78,                        RICARDO DE A21665130RIO DE JANEIRO RJUNIAO UMB DOS CULTOS AFRO BRAS    30051910 000113
10231987175000168916200163100    000042694                    000426940000000000000109                     I0142694     30051900000000040003410000017N130319104700000000000103005190000000000000000000000000000000000000000100059680903753TANIA REGINA DOS SANTOS MARQUE          RUA VISCONDE DE MACEION 50, FRENTE      IRAJA       21235100RIO DE JANEIRO RJUNIAO UMB DOS CULTOS AFRO BRAS    30051910 000114
10231987175000168916200163100    000042693                    000426930000000000000109                     I0142693     30051900000000040003410000017N130319104700000000000103005190000000000000000000000000000000000000000100000249913925ANDREA ARAUJO DA FONSECA CAVAL          RUA BARAO DO FLAMENGON 4, APTO 1106     FLAMENGO    22220080RIO DE JANEIRO RJUNIAO UMB DOS CULTOS AFRO BRAS    30051910 000115
10231987175000168916200163100    000042692                    000426920000000000000109                     I0142692     30051900000000040003410000017N130319104700000000000103005190000000000000000000000000000000000000000100015137144738RAFAEL NUNES ALVES SALSA                RUA PUIPEN 123,                         BENTO RIBEIR21550420RIO DE JANEIRO RJUNIAO UMB DOS CULTOS AFRO BRAS    30051910 000116
10231987175000168916200163100    000042691                    000426910000000000000109                     I0142691     30051900000000040003410000017N130319104700000000000103005190000000000000000000000000000000000000000100003003608789ADRIANA LUCIANA DA SILVA                AVENIDA VICENTE DE CARVALHON 1086,  RUA VICENTE DE C21210024RIO DE JANEIRO RJUNIAO UMB DOS CULTOS AFRO BRAS    30051910 000117
10231987175000168916200163100    000042690                    000426900000000000000109                     I0142690     30051900000000040003410000017N130319104700000000000103005190000000000000000000000000000000000000000100008997230719RAIMUNDA DE SOUZA MEDEIROS              RUA ARATICUMN 835,                      ANIL - JACAR22753500RIO DE JANEIRO RJUNIAO UMB DOS CULTOS AFRO BRAS    30051910 000118
10231987175000168916200163100    000042689                    000426890000000000000109                     I0142689     30051900000000040003410000017N130319104700000000000103005190000000000000000000000000000000000000000100095674454787GILVANIA RODRIGUES DE SANTANA           RUA TRAVASSOSN 0, LOTE 4 QUADRA B       PARQUE SAO B26183730BELFORD ROXO   RJUNIAO UMB DOS CULTOS AFRO BRAS    30051910 000119
10231987175000168916200163100    000042688                    000426880000000000000109                     I0142688     30051900000000040003410000017N130319104700000000000103005190000000000000000000000000000000000000000100079096611772MARIO LUIZ BARRETO DE BARROS            RUA GRAVATAN 215,                       MARECHAL HER21610510RIO DE JANEIRO RJUNIAO UMB DOS CULTOS AFRO BRAS    30051910 000120
10231987175000168916200163100    000042687                    000426870000000000000109                     I0142687     30051900000000040003410000017N130319104700000000000103005190000000000000000000000000000000000000000100008629571764SILVANA DA COSTA SANTOS                 RUA HN 0, CASA 11 QUADRA 8              BALNEARIO   28940000SAO PEDRO DA ALRJUNIAO UMB DOS CULTOS AFRO BRAS    30051910 000121
10231987175000168916200163100    000042686                    000426860000000000000109                     I0142686     30051900000000040003410000017N130319104700000000000103005190000000000000000000000000000000000000000224183032000138TENDA ESPIRITA REINO DE NANA            RUA PROFESSOR LACEN 134, APTO 404       RAMOS       21060120RIO DE JANEIRO RJUNIAO UMB DOS CULTOS AFRO BRAS    30051910 000122
10231987175000168916200163100    000042685                    000426850000000000000109                     I0142685     30051900000000040003410000017N130319104700000000000103005190000000000000000000000000000000000000000100000099070766INSTEFANI LIZETE NEVES FAUSTIN          RUA: CONDADO N 20,                      PIABETA     25900000MAGE           RJUNIAO UMB DOS CULTOS AFRO BRAS    30051910 000123
10231987175000168916200163100    000042684                    000426840000000000000109                     I0142684     30051900000000040003410000017N130319104700000000000103005190000000000000000000000000000000000000000100002318035750ADILSON LIMA MACIEIRA                   RUA CORONEL FRANCA LEITEN 1139, CASA 3  MANOEL REIS 26515030NILOPOLIS      RJUNIAO UMB DOS CULTOS AFRO BRAS    30051910 000124
10231987175000168916200163100    000042683                    000426830000000000000109                     I0142683     30051900000000040003410000017N130319104700000000000103005190000000000000000000000000000000000000000100007682577789CLAUDIA CRISTINA CARVALHO AREA          RUA ALFAZEMAN 91, CASA 1                PADRE MIGUEL21720360RIO DE JANEIRO RJUNIAO UMB DOS CULTOS AFRO BRAS    30051910 000125
10231987175000168916200163100    000042682                    000426820000000000000109                     I0142682     30051900000000040003410000017N130319104700000000000103005190000000000000000000000000000000000000000100000912311754PAULO HENRIQUE DA SILVA MOURA           RUA QUATIN 112,                         MIGUEL COUTO26060420NOVA IGUACU    RJUNIAO UMB DOS CULTOS AFRO BRAS    30051910 000126
10231987175000168916200163100    000042681                    000426810000000000000109                     I0142681     30051900000000040003410000017N130319104700000000000103005190000000000000000000000000000000000000000100087394464768LEILA MARIA ROSA MARTINS                RUA EDNA MEDEIROSN 155,                 CORUMBA     26042430NOVA IGUACU    RJUNIAO UMB DOS CULTOS AFRO BRAS    30051910 000127
10231987175000168916200163100    000042680                    000426800000000000000109                     I0142680     30051900000000040003410000017N130319104700000000000103005190000000000000000000000000000000000000000100002875690710KARLA MARIA QUEIROGA MARTINS            RUA PEREIRA DA COSTAN 18, FUNDOS        MADUREIRA   21360270RIO DE JANEIRO RJUNIAO UMB DOS CULTOS AFRO BRAS    30051910 000128
10231987175000168916200163100    000042679                    000426790000000000000109                     I0142679     30051900000000040003410000017N130319104700000000000103005190000000000000000000000000000000000000000100050600567753MARIA JOSE DA SILVA                     RUA JULIETAN 7, APTO 201                PIEDADE     20751440RIO DE JANEIRO RJUNIAO UMB DOS CULTOS AFRO BRAS    30051910 000129
10231987175000168916200163100    000042678                    000426780000000000000109                     I0142678     30051900000000040003410000017N130319104700000000000103005190000000000000000000000000000000000000000100002211701701SERGIO LUIZ RIBEIRO ROSA                RUA AMERICO DA ROCHAN 992, CASA 1       MARECHAL HER21555300RIO DE JANEIRO RJUNIAO UMB DOS CULTOS AFRO BRAS    30051910 000130
10231987175000168916200163100    000042677                    000426770000000000000109                     I0142677     30051900000000040003410000017N130319104700000000000103005190000000000000000000000000000000000000000100004245693703JONETE DA SILVA FRANCISCO               RUA MOZART FIRMESAN 20, COBERTURA 303   RECREIO     22795365RIO DE JANEIRO RJUNIAO UMB DOS CULTOS AFRO BRAS    30051910 000131
10231987175000168916200163100    000042676                    000426760000000000000109                     I0142676     30051900000000040003410000017N130319104700000000000103005190000000000000000000000000000000000000000100003360087755ELIENE GONCALVES JACINTO                TRAVESSA DAS FLORESN 20,                PARQUE LAFAI25010695DUQUE DE CAXIASRJUNIAO UMB DOS CULTOS AFRO BRAS    30051910 000132
10231987175000168916200163100    000042675                    000426750000000000000109                     I0142675     30051900000000040003410000017N130319104700000000000103005190000000000000000000000000000000000000000100035750553787SUELY PINHEIRO DA SILVA                 RUA MARILENE VIEIRA DE ASSISN 850, FUNDOVILA MARIA H25251500DUQUE DE CAXIASRJUNIAO UMB DOS CULTOS AFRO BRAS    30051910 000133
10231987175000168916200163100    000042674                    000426740000000000000109                     I0142674     30051900000000040003410000017N130319104700000000000103005190000000000000000000000000000000000000000100040600645720FERNANDO MINERVINO DO CARMO             RUA MARIA AMALIAN 867, FUNDOS           TIJUCA      20510130RIO DE JANEIRO RJUNIAO UMB DOS CULTOS AFRO BRAS    30051910 000134
10231987175000168916200163100    000042673                    000426730000000000000109                     I0142673     30051900000000040003410000017N130319104700000000000103005190000000000000000000000000000000000000000100058362924772CLEUSA BARBOZA ABRAHAO                  RUA DUBLINN 0,  LOTE 13 QUADRA 85       PARQUE PAULI25261380DUQUE DE CAXIASRJUNIAO UMB DOS CULTOS AFRO BRAS    30051910 000135
10231987175000168916200163100    000042672                    000426720000000000000109                     I0142672     30051900000000040003410000017N130319104700000000000103005190000000000000000000000000000000000000000100007547737790ALESSANDRO CRUZ GONCALVES               RUA TENOR ROBERTO CALHEIROS DE MIRANDAN SERRA GRANDE24342800NITEROI        RJUNIAO UMB DOS CULTOS AFRO BRAS    30051910 000136
10231987175000168916200163100    000042671                    000426710000000000000109                     I0142671     30051900000000040003410000017N130319104700000000000103005190000000000000000000000000000000000000000100005569373764VIVIANE DA SILVA MERIADE DUART          RUA ARISTIDES LOBO N 44, APARTAMENTO 401RIO COMPRIDO20150450RIO DE JANEIRO RJUNIAO UMB DOS CULTOS AFRO BRAS    30051910 000137
10231987175000168916200163100    000042670                    000426700000000000000109                     I0142670     30051900000000040003410000017N130319104700000000000103005190000000000000000000000000000000000000000100007730416727ALESSANDRA REGINA DOS ANJOS             RUA NEVESN 124,                         PARQUE TIETE25585380SAO JOAO DE MERRJUNIAO UMB DOS CULTOS AFRO BRAS    30051910 000138
10231987175000168916200163100    000042669                    000426690000000000000109                     I0142669     30051900000000040003410000017N130319104700000000000103005190000000000000000000000000000000000000000100047657383704JAIR LOURENCO DE LIMA                   RUA CONDE DEU N 199, B                  CASTELANEA  25640340PETROPOLIS     RJUNIAO UMB DOS CULTOS AFRO BRAS    30051910 000139
10231987175000168916200163100    000042668                    000426680000000000000109                     I0142668     30051900000000040003410000017N130319104700000000000103005190000000000000000000000000000000000000000100089209001753ALDIR TEIXEIRA DE SOUZA                 RUA BELO HORIZONTEN 381,                BANGU       21815141RIO DE JANEIRO RJUNIAO UMB DOS CULTOS AFRO BRAS    30051910 000140
10231987175000168916200163100    000042667                    000426670000000000000109                     I0142667     30051900000000040003410000017N130319104700000000000103005190000000000000000000000000000000000000000100003598384726ROSANE QUIRINO DA SILVA                 RUA MANUEL RODRIGUES FONTINHAN 119,     NOVA CIDADE 26535270NILOPOLIS      RJUNIAO UMB DOS CULTOS AFRO BRAS    30051910 000141
10231987175000168916200163100    000042666                    000426660000000000000109                     I0142666     30051900000000040003410000017N130319104700000000000103005190000000000000000000000000000000000000000100003230389727LENIRA FELIX DA SILVA                   RUA ULISSES ROBERTON 1524,              BOACU       24467490SAO GONCALO    RJUNIAO UMB DOS CULTOS AFRO BRAS    30051910 000142
10231987175000168916200163100    000042665                    000426650000000000000109                     I0142665     30051900000000040003410000017N130319104700000000000103005190000000000000000000000000000000000000000100005368533713DIVALCI COELHO REINALDO                 RUA CEVADAN 17,                         PANTANAL    26297108NOVA IGUACU    RJUNIAO UMB DOS CULTOS AFRO BRAS    30051910 000143
10231987175000168916200163100    000042664                    000426640000000000000109                     I0142664     30051900000000040003410000017N130319104700000000000103005190000000000000000000000000000000000000000100007429687741MAURO ROBERTO NEVES DA HORA             RUA BRAS CUBASN 112, BLOCO 3 APTO 106 - PAVUNA      21520030RIO DE JANEIRO RJUNIAO UMB DOS CULTOS AFRO BRAS    30051910 000144
10231987175000168916200163100    000042663                    000426630000000000000109                     I0142663     30051900000000040003410000017N130319104700000000000103005190000000000000000000000000000000000000000100010093629761DANIELLE DO NASCIMENTO NICACIO          ESTRADA DA GRANJAN 100, FRENTE          PALHADA     26290249NOVA IGUACU    RJUNIAO UMB DOS CULTOS AFRO BRAS    30051910 000145
10231987175000168916200163100    000042662                    000426620000000000000109                     I0142662     30051900000000040003410000017N130319104700000000000103005190000000000000000000000000000000000000000100009963993729LEANDRO DE SOUZA OLIVEIRA               RUA DA MATRIZN 876,                     CENTRO      25525130SAO JOAO DE MERRJUNIAO UMB DOS CULTOS AFRO BRAS    30051910 000146
10231987175000168916200163100    000042661                    000426610000000000000109                     I0142661     30051900000000040003410000017N130319104700000000000103005190000000000000000000000000000000000000000100003439982700ANDRE LUIS SANTIAGO DE ALMEIDA          RUA TANGERN 39,                         SANTA CRUZ  23555013RIO DE JANEIRO RJUNIAO UMB DOS CULTOS AFRO BRAS    30051910 000147
10231987175000168916200163100    000042660                    000426600000000000000109                     I0142660     30051900000000040003410000017N130319104700000000000103005190000000000000000000000000000000000000000100000338518754EDUARDO LUIS E SILVA COIMBRA            RUA DOS INVALIDOSN 138,  BLOCO 1 APTO 20LAPA        20231046RIO DE JANEIRO RJUNIAO UMB DOS CULTOS AFRO BRAS    30051910 000148
10231987175000168916200163100    000042659                    000426590000000000000109                     I0142659     30051900000000040003410000017N130319104700000000000103005190000000000000000000000000000000000000000100013565688742CAIO CESAR DUARTE DE SOUZA              RUA CALUMBI N 300, APT 305              IRAJA       21361260RIO DE JANEIRO RJUNIAO UMB DOS CULTOS AFRO BRAS    30051910 000149
10231987175000168916200163100    000042658                    000426580000000000000109                     I0142658     30051900000000040003410000017N130319104700000000000103005190000000000000000000000000000000000000000100081905530706ALBERTO DINIZ RODRIGUES GABRIE          RUA AGAIN 0, QUADRA 38 LOTE 14          PACIENCIA   23065620RIO DE JANEIRO RJUNIAO UMB DOS CULTOS AFRO BRAS    30051910 000150
10231987175000168916200163100    000042657                    000426570000000000000109                     I0142657     30051900000000040003410000017N130319104700000000000103005190000000000000000000000000000000000000000100086873130710NOEMIA PEREIRA LOPES                    RUA WILSON ARAUJON 2172,                XEREM       25250460DUQUE DE CAXIASRJUNIAO UMB DOS CULTOS AFRO BRAS    30051910 000151
10231987175000168916200163100    000042656                    000426560000000000000109                     I0142656     30051900000000040003410000017N130319104700000000000103005190000000000000000000000000000000000000000100093946538720MONICA FERREIRA DE OLIVEIRA             RUA VISCONDE DE PIRAJAN 584, APTO 804   IPANEMA     22410002RIO DE JANEIRO RJUNIAO UMB DOS CULTOS AFRO BRAS    30051910 000152
10231987175000168916200163100    000042655                    000426550000000000000109                     I0142655     30051900000000040003410000017N130319104700000000000103005190000000000000000000000000000000000000000100049681192753CARMENCITA DA FONSECA ROCHA             RUA BEGEN 351, APTO 201 - CONJUNTO DOM BMARAPICU    26295090NOVA IGUACU    RJUNIAO UMB DOS CULTOS AFRO BRAS    30051910 000153
10231987175000168916200163100    000042654                    000426540000000000000109                     I0142654     30051900000000040003410000017N130319104700000000000103005190000000000000000000000000000000000000000100044239300720WALDIR DAS CHAGAS FILHO                 RUA CALMON CABRALN 72,  CASA 1 FUNDOS   IRAJA       21235150RIO DE JANEIRO RJUNIAO UMB DOS CULTOS AFRO BRAS    30051910 000154
10231987175000168916200163100    000042653                    000426530000000000000109                     I0142653     30051900000000040003410000017N130319104700000000000103005190000000000000000000000000000000000000000100071276920768ELIZABETH DOS SANTOS FRAGA SAR          RUA ANGELA N 16,                        PRATA       26130740BELFORD ROXO   RJUNIAO UMB DOS CULTOS AFRO BRAS    30051910 000155
10231987175000168916200163100    000042652                    000426520000000000000109                     I0142652     30051900000000040003410000017N130319104700000000000103005190000000000000000000000000000000000000000100093265042715CARMEN MESQUITA CAMILLO DA SIL          RUA RAUL PEDERNEIRASN 261,              BANGU       21860210RIO DE JANEIRO RJUNIAO UMB DOS CULTOS AFRO BRAS    30051910 000156
10231987175000168916200163100    000042651                    000426510000000000000109                     I0142651     30051900000000040003410000017N130319104700000000000103005190000000000000000000000000000000000000000100008448034724CLAUDIA DA SILVA SANTANA                RUA SANTA LUZIAN 115,                   NOVA ERA    26265560NOVA IGUACU    RJUNIAO UMB DOS CULTOS AFRO BRAS    30051910 000157
10231987175000168916200163100    000042650                    000426500000000000000109                     I0142650     30051900000000040003410000017N130319104700000000000103005190000000000000000000000000000000000000000100066859123915ROBERTO ALVES DO NASCIMENTO             RUA MARECHAL DEODORON 499,              CENTRO      23970000PARATY         RJUNIAO UMB DOS CULTOS AFRO BRAS    30051910 000158
10231987175000168916200163100    000042649                    000426490000000000000109                     I0142649     30051900000000040003410000017N130319104700000000000103005190000000000000000000000000000000000000000100049630903768ADELSON MARIANO PEREIRA                 ESTRADA SAO DOMINGOS SAVION 868,  RUA C SANTA CRUZ  23525033RIO DE JANEIRO RJUNIAO UMB DOS CULTOS AFRO BRAS    30051910 000159
10231987175000168916200163100    000042648                    000426480000000000000109                     I0142648     30051900000000040003410000017N130319104700000000000103005190000000000000000000000000000000000000000100024540285734FERNANDO PEREIRA DE SOUZA               RUA ALECRIM N 1001,                     VILA KOSMOS 21220050RIO DE JANEIRO RJUNIAO UMB DOS CULTOS AFRO BRAS    30051910 000160
10231987175000168916200163100    000042647                    000426470000000000000109                     I0142647     30051900000000040003410000017N130319104700000000000103005190000000000000000000000000000000000000000100077763505753RITA DE CASSIA DE OLIVEIRA AND          RUA RAMIS GALVAON 131, CASA 201         ANCHIETA    21645510RIO DE JANEIRO RJUNIAO UMB DOS CULTOS AFRO BRAS    30051910 000161
10231987175000168916200163100    000042646                    000426460000000000000109                     I0142646     30051900000000050003410000017N130319104700000000000103005190000000000000000000000000000000000000000100033075514772MARIA ELISA DOS SANTOS                  RUA PADRE TELEMACO  N 172, CASA 15      CASCADURA   21311050RIO DE JANEIRO RJUNIAO UMB DOS CULTOS AFRO BRAS    30051910 000162
10231987175000168916200163100    000042645                    000426450000000000000109                     I0142645     30051900000000040003410000017N130319104700000000000103005190000000000000000000000000000000000000000100061178543749ROSILDA ALVES DA COSTA                  RUA CUBAN 582, CASA                     PENHA CIRCUL21200160RIO DE JANEIRO RJUNIAO UMB DOS CULTOS AFRO BRAS    30051910 000163
10231987175000168916200163100    000042644                    000426440000000000000109                     I0142644     30051900000000040003410000017N130319104700000000000103005190000000000000000000000000000000000000000100000487738756MARY LUCY PEREIRA DA SILVA              RUA URUCUIAN 846, CASA 31               VILA VALQUEI21321310RIO DE JANEIRO RJUNIAO UMB DOS CULTOS AFRO BRAS    30051910 000164
10231987175000168916200163100    000042643                    000426430000000000000109                     I0142643     30051900000000040003410000017N130319104700000000000103005190000000000000000000000000000000000000000100083765778753MARCIA REGINA NUNES DA SILVA            RUA DOS BIOLOGOSN 0, LT 11 QD 13        TAQUARA     22723510RIO DE JANEIRO RJUNIAO UMB DOS CULTOS AFRO BRAS    30051910 000165
10231987175000168916200163100    000042642                    000426420000000000000109                     I0142642     30051900000000040003410000017N130319104700000000000103005190000000000000000000000000000000000000000100015475831777DOUGLAS DA SILVA DE SOUZA               RUA CAPINTUBAN 126,                     IRAJA       21361210RIO DE JANEIRO RJUNIAO UMB DOS CULTOS AFRO BRAS    30051910 000166
10231987175000168916200163100    000042641                    000426410000000000000109                     I0142641     30051900000000040003410000017N130319104700000000000103005190000000000000000000000000000000000000000100001055608710IARA DA SILVA REGO                      RUA ALCOBACA N 1333, CASA 1             ANCHIETA    21645001RIO DE JANEIRO RJUNIAO UMB DOS CULTOS AFRO BRAS    30051910 000167
10231987175000168916200163100    000042640                    000426400000000000000109                     I0142640     30051900000000040003410000017N130319104700000000000103005190000000000000000000000000000000000000000100074906615791MARIA DE FATIMA FERREIRA TENOR          RUA PRACINHA WALLACE PAES LEMEN 1483,   CENTRO      26525046NILOPOLIS      RJUNIAO UMB DOS CULTOS AFRO BRAS    30051910 000168
10231987175000168916200163100    000042639                    000426390000000000000109                     I0142639     30051900000000040003410000017N130319104700000000000103005190000000000000000000000000000000000000000100000119220792ANA MARIA PASSOS INOCENCIO              RUA: CACONDE N 258,                     BENTO RIBEIR21331415RIO DE JANEIRO RJUNIAO UMB DOS CULTOS AFRO BRAS    30051910 000169
10231987175000168916200163100    000042638                    000426380000000000000109                     I0142638     30051900000000040003410000017N130319104700000000000103005190000000000000000000000000000000000000000100077819306734UENES DA SILVA DE OLIVEIRA              RUA GENERAL CARVALHO  N 1148, CASA 1 FUNCORDOVIL    21250240RIO DE JANEIRO RJUNIAO UMB DOS CULTOS AFRO BRAS    30051910 000170
10231987175000168916200163100    000042637                    000426370000000000000109                     I0142637     30051900000000040003410000017N130319104700000000000103005190000000000000000000000000000000000000000100003159130452VICENTE FELICIO DA SILVA                RUA LUIZA NEOFILA PIMENTAN 156,         ALTO DA CAPE59680000CAMPO GRANDE   RNUNIAO UMB DOS CULTOS AFRO BRAS    30051910 000171
10231987175000168916200163100    000042636                    000426360000000000000109                     I0142636     30051900000000040003410000017N130319104700000000000103005190000000000000000000000000000000000000000100001613673728PAULO DA CONCEICAO SOARES               RUA PAULICEIA N 18,                     PARQUE SAO B26176380BELFORD ROXO   RJUNIAO UMB DOS CULTOS AFRO BRAS    30051910 000172
10231987175000168916200163100    000042635                    000426350000000000000109                     I0142635     30051900000000040003410000017N130319104700000000000103005190000000000000000000000000000000000000000100097402508749MARIA DE OLIVEIRA SOUZA SAMPAI          RUA PROJETADA AN 47,                    JARDIM NOVA 25000000DUQUE DE CAXIASRJUNIAO UMB DOS CULTOS AFRO BRAS    30051910 000173
10231987175000168916200163100    000042634                    000426340000000000000109                     I0142634     30051900000000040003410000017N130319104700000000000103005190000000000000000000000000000000000000000100013180490756DIEGO CAVALCANTI DA SILVA               RUA CONDE DE RESENDEN 127,              BENTO RIBEIR21550600RIO DE JANEIRO RJUNIAO UMB DOS CULTOS AFRO BRAS    30051910 000174
10231987175000168916200163100    000042633                    000426330000000000000109                     I0142633     30051900000000040003410000017N130319104700000000000103005190000000000000000000000000000000000000000100010949550434JOAO BATISTA PEREIRA DE VASCON          RUA NEIDE ALVES DA SILVAN 162,          JARDIM SAO S58306450BAYEUX         PBUNIAO UMB DOS CULTOS AFRO BRAS    30051910 000175
10231987175000168916200163100    000042632                    000426320000000000000109                     I0142632     30051900000000040003410000017N130319104700000000000103005190000000000000000000000000000000000000000100007228447786JEFFERSON CACADOR DE LIMA               ESTRADA DO TINDIBAN 744, SOBRELOJA      TAQUARA     22740360RIO DE JANEIRO RJUNIAO UMB DOS CULTOS AFRO BRAS    30051910 000176
10231987175000168916200163100    000042631                    000426310000000000000109                     I0142631     30051900000000040003410000017N130319104700000000000103005190000000000000000000000000000000000000000100001215240783SONIA MARIA ROSA BRANDAO                RUA ARARUAMAN 280,                      BANGU       21562050RIO DE JANEIRO RJUNIAO UMB DOS CULTOS AFRO BRAS    30051910 000177
10231987175000168916200163100    000042630                    000426300000000000000109                     I0142630     30051900000000040003410000017N130319104700000000000103005190000000000000000000000000000000000000000100060894628704TERESINHA DE JESUS BIL RAMOS T          RUA GENERAL MIGUEL FERREIRAN 178, RUA E TAQUARA     22770590RIO DE JANEIRO RJUNIAO UMB DOS CULTOS AFRO BRAS    30051910 000178
10231987175000168916200163100    000042629                    000426290000000000000109                     I0142629     30051900000000040003410000017N130319104700000000000103005190000000000000000000000000000000000000000100005235517709SIDNEY ROBERTO SILVA DE CARVAL          RUA DONATELON 0,  LOTE 27 QUADRA 38     GUARATIBA   23028210RIO DE JANEIRO RJUNIAO UMB DOS CULTOS AFRO BRAS    30051910 000179
10231987175000168916200163100    000042628                    000426280000000000000109                     I0142628     30051900000000040003410000017N130319104700000000000103005190000000000000000000000000000000000000000100058369473768INDIODIRIA SANTANA DA SILVA             RUA LUIZ CARLOS DE OLIVEIRAN 666, JARDIMMIGUEL COUTO26070209NOVA IGUACU    RJUNIAO UMB DOS CULTOS AFRO BRAS    30051910 000180
10231987175000168916200163100    000042627                    000426270000000000000109                     I0142627     30051900000000040003410000017N130319104700000000000103005190000000000000000000000000000000000000000100063629852734ZULEICA JANINA BOMFIM AMARAL            RUA DA CAPELAN 744,                     ESTACIO     20250051RIO DE JANEIRO RJUNIAO UMB DOS CULTOS AFRO BRAS    30051910 000181
10231987175000168916200163100    000042626                    000426260000000000000109                     I0142626     30051900000000040003410000017N130319104700000000000103005190000000000000000000000000000000000000000100005529010750JOELMA MELO DA SILVA                    RUA ELIEZER ALVES DA ROCHAN 226,        RAUL VEIGA  24710640SAO GONCALO    RJUNIAO UMB DOS CULTOS AFRO BRAS    30051910 000182
10231987175000168916200163100    000042625                    000426250000000000000109                     I0142625     30051900000000040003410000017N130319104700000000000103005190000000000000000000000000000000000000000100071926305787PEDRO PAULO DE ARAUJO MALHEIRO          RUA RAFAEL BORDALON 31,                 GUARATIBA   23032590RIO DE JANEIRO RJUNIAO UMB DOS CULTOS AFRO BRAS    30051910 000183
10231987175000168916200163100    000042624                    000426240000000000000109                     I0142624     30051900000000040003410000017N130319104700000000000103005190000000000000000000000000000000000000000225990357000195TENDA ESPIRITA PAI CAMBINDO             RUA JORGE LEAL GONCALVESN 37, CASA 2    PACIENCIA   23587270RIO DE JANEIRO RJUNIAO UMB DOS CULTOS AFRO BRAS    30051910 000184
10231987175000168916200163100    000042623                    000426230000000000000109                     I0142623     30051900000000040003410000017N130319104700000000000103005190000000000000000000000000000000000000000100085958549715TANIA REGINA LONTRA BITTENCOUR          ESTRADA DA GRANJAN 699,                 JARDIM LARAN26290249NOVA IGUACU    RJUNIAO UMB DOS CULTOS AFRO BRAS    30051910 000185
10231987175000168916200163100    000042622                    000426220000000000000109                     I0142622     30051900000000040003410000017N130319104700000000000103005190000000000000000000000000000000000000000100037433288791VERA LUCIA COSTA MOACYR                 RUA JOANA KALIL N 0, LT 6 QD 51         JARDIM MERIT25555100SAO JOAO DE MERRJUNIAO UMB DOS CULTOS AFRO BRAS    30051910 000186
10231987175000168916200163100    000042621                    000426210000000000000109                     I0142621     30051900000000040003410000017N130319104700000000000103005190000000000000000000000000000000000000000100001817781731JORGE LUIZ MENDES DA CUNHA              RUA VASCO DA GAMA  N 36,                CACHAMBI    20771310RIO DE JANEIRO RJUNIAO UMB DOS CULTOS AFRO BRAS    30051910 000187
10231987175000168916200163100    000042620                    000426200000000000000109                     I0142620     30051900000000070003410000017N130319104700000000000103005190000000000000000000000000000000000000000100052282171772SONIA MARIA DOS SANTOS                  RUA MIDAN 13, QUADRA 1                  RIACHAO - AU26084050NOVA IGUACU    RJUNIAO UMB DOS CULTOS AFRO BRAS    30051910 000188
10231987175000168916200163100    000042619                    000426190000000000000109                     I0142619     30051900000000040003410000017N130319104700000000000103005190000000000000000000000000000000000000000100009770274739DOUGLAS PACHECO PINHEIRO                RUA: PROFESSOR ALFREDO GOMESN 43,       MANOEL REIS 26515820BELFORD ROXO   RJUNIAO UMB DOS CULTOS AFRO BRAS    30051910 000189
10231987175000168916200163100    000042618                    000426180000000000000109                     I0142618     30051900000000040003410000017N130319104700000000000103005190000000000000000000000000000000000000000100004788683750CARLA APARECIDA DA ROCHA RITA           RUA GENERAL SILVEIRA SOBRINHON 245, APTOVILA DA PENH21221290RIO DE JANEIRO RJUNIAO UMB DOS CULTOS AFRO BRAS    30051910 000190
10231987175000168916200163100    000042617                    000426170000000000000109                     I0142617     30051900000000040003410000017N130319104700000000000103005190000000000000000000000000000000000000000100093778244787GENEILDA RANGEL SMITH                   RUA MARIA LUIZA REIS  N 850, APT 104    ENGENHEIRO D25015045DUQUE DE CAXIASRJUNIAO UMB DOS CULTOS AFRO BRAS    30051910 000191
10231987175000168916200163100    000042616                    000426160000000000000109                     I0142616     30051900000000040003410000017N130319104700000000000103005190000000000000000000000000000000000000000100000904501752ALEXANDRE DOS ANJOS PIMENTEL            AVENIDA DOM HELDER CAMARAN 1595, BLOCO 1BENFICA     20973011RIO DE JANEIRO RJUNIAO UMB DOS CULTOS AFRO BRAS    30051910 000192
10231987175000168916200163100    000042615                    000426150000000000000109                     I0142615     30051900000000040003410000017N130319104700000000000103005190000000000000000000000000000000000000000100000377539759WELLINGTON LUIS RODRIGUES               RUA ARGENTINA REIS N 80, FUNDOS         QUINTINO BOC20740040RIO DE JANEIRO RJUNIAO UMB DOS CULTOS AFRO BRAS    30051910 000193
10231987175000168916200163100    000042614                    000426140000000000000109                     I0142614     30051900000000040003410000017N130319104700000000000103005190000000000000000000000000000000000000000100009396919730CATIA DE SOUZA SANTIAGO                 ESTRADA SAO FRANCISCON 766,             SURUI       25900000MAGE           RJUNIAO UMB DOS CULTOS AFRO BRAS    30051910 000194
10231987175000168916200163100    000042613                    000426130000000000000109                     I0142613     30051900000000040003410000017N130319104700000000000103005190000000000000000000000000000000000000000100002912143713JANAINA PACHECO PINHEIRO                RUA LEMOS BRITON 768,                   QUINTINO BOC21311380RIO DE JANEIRO RJUNIAO UMB DOS CULTOS AFRO BRAS    30051910 000195
10231987175000168916200163100    000042612                    000426120000000000000109                     I0142612     30051900000000040003410000017N130319104700000000000103005190000000000000000000000000000000000000000100001377431738CARLOS HENRIQUE DOS SANTOS DE           RUA ALVARES CABRALN 361, CASA 1         CACHAMBI    20780320RIO DE JANEIRO RJUNIAO UMB DOS CULTOS AFRO BRAS    30051910 000196
10231987175000168916200163100    000042611                    000426110000000000000109                     I0142611     30051900000000040003410000017N130319104700000000000103005190000000000000000000000000000000000000000100012113754711ANDREZA SALDANHA DA CRUZ                RUA DA MINAN 0, LOTE 3 QUADRA 30        HELIOPOLIS  26125550BELFORD ROXO   RJUNIAO UMB DOS CULTOS AFRO BRAS    30051910 000197
10231987175000168916200163100    000042610                    000426100000000000000109                     I0142610     30051900000000040003410000017N130319104700000000000103005190000000000000000000000000000000000000000100017483217731EROS PAULINO VELASCO KOPP               RUA VEREADOR ARTHUR MARQUES DOS SANTOSN SANTA RITA  26700000MENDES         RJUNIAO UMB DOS CULTOS AFRO BRAS    30051910 000198
10231987175000168916200163100    000042609                    000426090000000000000109                     I0142609     30051900000000040003410000017N130319104700000000000103005190000000000000000000000000000000000000000100008522446733ELOIZA SANTOS DA COSTA                  RUA LAPLACEN 105, SAO CLAUDIO           CAMPO GRANDE23080340RIO DE JANEIRO RJUNIAO UMB DOS CULTOS AFRO BRAS    30051910 000199
10231987175000168916200163100    000042608                    000426080000000000000109                     I0142608     30051900000000040003410000017N130319104700000000000103005190000000000000000000000000000000000000000100054085071734DENISE SANTANA MACIEL                   ESTRADA DO CAFUNDAN 1757, BL 4 AP 710   TAQUARA - JA22725030RIO DE JANEIRO RJUNIAO UMB DOS CULTOS AFRO BRAS    30051910 000200
10231987175000168916200163100    000042607                    000426070000000000000109                     I0142607     30051900000000040003410000017N130319104700000000000103005190000000000000000000000000000000000000000100007258424741SILVIA MARIA CAIADO DE CASTRO           RUA ESMERALDA VALLADARESN 41, LOTEAMENTOITAIPU      24342000NITEROI        RJUNIAO UMB DOS CULTOS AFRO BRAS    30051910 000201
10231987175000168916200163100    000042606                    000426060000000000000109                     I0142606     30051900000000040003410000017N130319104700000000000103005190000000000000000000000000000000000000000100085442240753IARA SANDRA CARDOSO SETTA SILV          RUA MARQUESA DE GRIZELDAN 821,          EDSON PASSOS26553290MESQUITA       RJUNIAO UMB DOS CULTOS AFRO BRAS    30051910 000202
10231987175000168916200163100    000042605                    000426050000000000000109                     I0142605     30051900000000040003410000017N130319104700000000000103005190000000000000000000000000000000000000000100082981191772DEJANIRA LOPES FERREIRA                 RUA JOSE BENTO DE OLIVEIRAN 129,        QUIMICA     27130270BARRA DO PIRAI RJUNIAO UMB DOS CULTOS AFRO BRAS    30051910 000203
10231987175000168916200163100    000042604                    000426040000000000000109                     I0142604     30051900000000040003410000017N130319104700000000000103005190000000000000000000000000000000000000000100004250914739ERIKA BARBOSA DOS SANTOS                AVENIDA ERNANI CARDOSON 53, FUNDOS CASA CASCADURA   21310310RIO DE JANEIRO RJUNIAO UMB DOS CULTOS AFRO BRAS    30051910 000204
10231987175000168916200163100    000042603                    000426030000000000000109                     I0142603     30051900000000040003410000017N130319104700000000000103005190000000000000000000000000000000000000000100067560555772ADELSON RODRIGUES DE MATTO              RUA DONA BELAN 17, CASA 2               TRES PONTES 24809230ITABORAI       RJUNIAO UMB DOS CULTOS AFRO BRAS    30051910 000205
10231987175000168916200163100    000042602                    000426020000000000000109                     I0142602     30051900000000040003410000017N130319104700000000000103005190000000000000000000000000000000000000000100008478002707ALEXSANDRO JOAO MARTINS                 RUA CARMO DO RIO CLARON 266,            SAO GABRIEL 26021830NOVA IGUACU    RJUNIAO UMB DOS CULTOS AFRO BRAS    30051910 000206
10231987175000168916200163100    000042601                    000426010000000000000109                     I0142601     30051900000000040003410000017N130319104700000000000103005190000000000000000000000000000000000000000100053542886734MARIA LUCIA SOARES PONCE                RUA SOLDADO BERNARDINO DA SILVAN 568, APVICENTE DE C21210020RIO DE JANEIRO RJUNIAO UMB DOS CULTOS AFRO BRAS    30051910 000207
10231987175000168916200163100    000042600                    000426000000000000000109                     I0142600     30051900000000040003410000017N130319104700000000000103005190000000000000000000000000000000000000000100007484684716VIVIANE ALVES DUQUE MORAES              RUA GIBRAUTARN 33,                      PAVUNA      21650450RIO DE JANEIRO RJUNIAO UMB DOS CULTOS AFRO BRAS    30051910 000208
10231987175000168916200163100    000042599                    000425990000000000000109                     I0142599     30051900000000040003410000017N130319104700000000000103005190000000000000000000000000000000000000000100009424589743RONALDO DE JESUS ALVES JUNIOR           RUA SAO MIGUEL N 556, CASA 4            TIJUCA      20530420RIO DE JANEIRO RJUNIAO UMB DOS CULTOS AFRO BRAS    30051910 000209
10231987175000168916200163100    000042598                    000425980000000000000109                     I0142598     30051900000000040003410000017N130319104700000000000103005190000000000000000000000000000000000000000100003124148703MARCELINA DA SILVA COSTA                RUA ALARICO DE SOUZAN 102, CASA 1       ATALAIA     24315000NITEROI        RJUNIAO UMB DOS CULTOS AFRO BRAS    30051910 000210
10231987175000168916200163100    000042597                    000425970000000000000109                     I0142597     30051900000000040003410000017N130319104700000000000103005190000000000000000000000000000000000000000100003611090751ANDREA DA COSTA FERREIRA                RUA CORONEL FRANCA LEITEN 657,          EDSON PASSOS26585020MESQUITA       RJUNIAO UMB DOS CULTOS AFRO BRAS    30051910 000211
10231987175000168916200163100    000042596                    000425960000000000000109                     I0142596     30051900000000040003410000017N130319104700000000000103005190000000000000000000000000000000000000000100000055376738MARIA DA GRACA BRANDAO                  RUA MATARAZZON 0, QUADRA 17 LOTE 5      GUARATIBA   23028750RIO DE JANEIRO RJUNIAO UMB DOS CULTOS AFRO BRAS    30051910 000212
10231987175000168916200163100    000042595                    000425950000000000000109                     I0142595     30051900000000040003410000017N130319104700000000000103005190000000000000000000000000000000000000000100064915026787MARTINA SELMA DA COSTA                  RUA: BUCARESTEN 0, LOTE 27 QUADRA 79    VILA CENTRAL26316136QUEIMADOS      RJUNIAO UMB DOS CULTOS AFRO BRAS    30051910 000213
10231987175000168916200163100    000042594                    000425940000000000000109                     I0142594     30051900000000040003410000017N130319104700000000000103005190000000000000000000000000000000000000000100004162486751IVONETE CRISTINA MARTINS MACHA          RUA DO CATETEN 5, FUNDOS                VILA LEOPOLD25060230DUQUE DE CAXIASRJUNIAO UMB DOS CULTOS AFRO BRAS    30051910 000214
10231987175000168916200163100    000042593                    000425930000000000000109                     I0142593     30051900000000040003410000017N130319104700000000000103005190000000000000000000000000000000000000000100067348793720MARCIO DE SOUZA MOURA                   RUA CAJUIPEN 110,                       BONSUCESSO  21060490RIO DE JANEIRO RJUNIAO UMB DOS CULTOS AFRO BRAS    30051910 000215
10231987175000168916200163100    000042592                    000425920000000000000109                     I0142592     30051900000000040003410000017N130319104700000000000103005190000000000000000000000000000000000000000100008548472782ADRIANO MENDES DA COSTA                 RUA  JN 16, CASA                        CAMPINHO    21330735RIO DE JANEIRO RJUNIAO UMB DOS CULTOS AFRO BRAS    30051910 000216
10231987175000168916200163100    000042591                    000425910000000000000109                     I0142591     30051900000000040003410000017N130319104700000000000103005190000000000000000000000000000000000000000100072214171720ROBSON ROGERIO CRUZ                     TRAVESSA ALMERINDA FREITASN 25,  SALA 40MADUREIRA   21350280RIO DE JANEIRO RJUNIAO UMB DOS CULTOS AFRO BRAS    30051910 000217
10231987175000168916200163100    000042590                    000425900000000000000109                     I0142590     30051900000000040003410000017N130319104700000000000103005190000000000000000000000000000000000000000100011817246780MARCELO MARTINS NASCIMENTO SAN          RUA PRINCESA LEOPOLDINA N 421, CASA 3   REALENGO    21710421RIO DE JANEIRO RJUNIAO UMB DOS CULTOS AFRO BRAS    30051910 000218
10231987175000168916200163100    000042589                    000425890000000000000109                     I0142589     30051900000000040003410000017N130319104700000000000103005190000000000000000000000000000000000000000100014806247723JEFFERSON DA CUNHA AREAS                RUA: DOZEN 196,                         NOVA MARILIA25900000MAGE           RJUNIAO UMB DOS CULTOS AFRO BRAS    30051910 000219
10231987175000168916200163100    000042588                    000425880000000000000109                     I0142588     30051900000000040003410000017N130319104700000000000103005190000000000000000000000000000000000000000100060479612749MARIA SEBASTIANA NOGUEIRA PAIX          RUA: DOZE DE FEVEREIRON 900, CASA 4     BANGU       21815092RIO DE JANEIRO RJUNIAO UMB DOS CULTOS AFRO BRAS    30051910 000220
10231987175000168916200163100    000042587                    000425870000000000000109                     I0142587     30051900000000040003410000017N130319104700000000000103005190000000000000000000000000000000000000000100098300989749SOLANGE MONTEIRO DA SILVA LAMB          RUA EMILIA AZEVEDON 67,  MANTIQUIRA     XEREM       25250466DUQUE DE CAXIASRJUNIAO UMB DOS CULTOS AFRO BRAS    30051910 000221
10231987175000168916200163100    000042586                    000425860000000000000109                     I0142586     30051900000000040003410000017N130319104700000000000103005190000000000000000000000000000000000000000100003747539700MARCIA SANTANA DA SILVA COSTA           RUA GUAIAUNA N 392,                     COELHO NETO 21510420RIO DE JANEIRO RJUNIAO UMB DOS CULTOS AFRO BRAS    30051910 000222
10231987175000168916200163100    000042585                    000425850000000000000109                     I0142585     30051900000000040003410000017N130319104700000000000103005190000000000000000000000000000000000000000100089511000730JORGE LUIS DE OLIVEIRA QUEIROZ          RUA JOSE ALVES PIMENTAN 912, CASA 1     MATADOURO   27115010BARRA DO PIRAI RJUNIAO UMB DOS CULTOS AFRO BRAS    30051910 000223
10231987175000168916200163100    000042584                    000425840000000000000109                     I0142584     30051900000000040003410000017N130319104700000000000103005190000000000000000000000000000000000000000100039622100759LEIR AUGUSTO DA SILVA                   RUA ARTHUR DO NASCIMENTO JUNIOR N 0, CASFRAGOSO     25932890MAGE           RJUNIAO UMB DOS CULTOS AFRO BRAS    30051910 000224
10231987175000168916200163100    000042583                    000425830000000000000109                     I0142583     30051900000000040003410000017N130319104700000000000103005190000000000000000000000000000000000000000100087188775753LETICIA SANTOS RIBEIRO                  RUA PROJETADA BN 0, LOTE 7 QUADRA A     SANTISSIMO  23093327RIO DE JANEIRO RJUNIAO UMB DOS CULTOS AFRO BRAS    30051910 000225
10231987175000168916200163100    000042582                    000425820000000000000109                     I0142582     30051900000000040003410000017N130319104700000000000103005190000000000000000000000000000000000000000100011110357761THYAGO ALBERT MORAES CYRILLO S          RUA THALES DE CARVALHON 120, AP 201     JARDIM AMERI21240330RIO DE JANEIRO RJUNIAO UMB DOS CULTOS AFRO BRAS    30051910 000226
10231987175000168916200163100    000042581                    000425810000000000000109                     I0142581     30051900000000040003410000017N130319104700000000000103005190000000000000000000000000000000000000000100015188766760VICTOR DOS ANJOS PAVAO                  RUA DOUTOR ARI CHAGASN 497,             SEPETIBA    23540000RIO DE JANEIRO RJUNIAO UMB DOS CULTOS AFRO BRAS    30051910 000227
10231987175000168916200163100    000042580                    000425800000000000000109                     I0142580     30051900000000040003410000017N130319104700000000000103005190000000000000000000000000000000000000000100073921947804GILSON ANDRADE                          RUA TANGIN 0, LOTE 12 QUADRA C          PARQUE REAL 26175025BELFORD ROXO   RJUNIAO UMB DOS CULTOS AFRO BRAS    30051910 000228
10231987175000168916200163100    000042579                    000425790000000000000109                     I0142579     30051900000000040003410000017N130319104700000000000103005190000000000000000000000000000000000000000100007271009710MARCELLO FERREIRA DE ARAUJO             RUA IPEUVAN 106,                        VILA DA PENH21215400RIO DE JANEIRO RJUNIAO UMB DOS CULTOS AFRO BRAS    30051910 000229
10231987175000168916200163100    000042578                    000425780000000000000109                     I0142578     30051900000000040003410000017N130319104700000000000103005190000000000000000000000000000000000000000100069485135734ROBERTO GONCALVES DO NASCIMENT          RUA JULIANAN 578,                       SANTO ELIAS 26562120MESQUITA       RJUNIAO UMB DOS CULTOS AFRO BRAS    30051910 000230
10231987175000168916200163100    000042577                    000425770000000000000109                     I0142577     30051900000000040003410000017N130319104700000000000103005190000000000000000000000000000000000000000100091613965591SIMONE OLIVEIRA MACEDO                  ESTRADA CANCELA PRETAN 2120,            BANGU       21725010RIO DE JANEIRO RJUNIAO UMB DOS CULTOS AFRO BRAS    30051910 000231
10231987175000168916200163100    000042576                    000425760000000000000109                     I0142576     30051900000000040003410000017N130319104700000000000103005190000000000000000000000000000000000000000100003259472797IVONETE MARIA DA SILVA                  RUA RAFAEL LANGONEN 192,                CENTRO      25880000SAPUCAIA       RJUNIAO UMB DOS CULTOS AFRO BRAS    30051910 000232
10231987175000168916200163100    000042575                    000425750000000000000109                     I0142575     30051900000000040003410000017N130319104700000000000103005190000000000000000000000000000000000000000100013222358729AMANDA PAULA TORRES DE SOUZA            RUA JOAO VICENTEN 261,                  MADUREIRA   21340020RIO DE JANEIRO RJUNIAO UMB DOS CULTOS AFRO BRAS    30051910 000233
10231987175000168916200163100    000042574                    000425740000000000000109                     I0142574     30051900000000040003410000017N130319104700000000000103005190000000000000000000000000000000000000000100009811465703ANDERSON FELIX BERNARDO DA SIL          TRAVESSA CORDEIRO N 58,                 CENTRO      26521410NILOPOLIS      RJUNIAO UMB DOS CULTOS AFRO BRAS    30051910 000234
10231987175000168916200163100    000042573                    000425730000000000000109                     I0142573     30051900000000040003410000017N130319104700000000000103005190000000000000000000000000000000000000000100049630563720SANDRA DOS SANTOS                       RUA ASTECAN 0, LOTE 1 QUADRA 4          JARDIM CACHO26053540NOVA IGUACU    RJUNIAO UMB DOS CULTOS AFRO BRAS    30051910 000235
10231987175000168916200163100    000042572                    000425720000000000000109                     I0142572     30051900000000040003410000017N130319104700000000000103005190000000000000000000000000000000000000000100046772243749CARLOS ROBERTO DA SILVA                 RUA GUINEZAN 26,                        ENGENHO DE D20755330RIO DE JANEIRO RJUNIAO UMB DOS CULTOS AFRO BRAS    30051910 000236
10231987175000168916200163100    000042571                    000425710000000000000109                     I0142571     30051900000000040003410000017N130319104700000000000103005190000000000000000000000000000000000000000100003319281755GENILSON CAETANO DA SILVA               RUA JACO MELOTIN 46,                    CORUMBA     26041790NOVA IGUACU    RJUNIAO UMB DOS CULTOS AFRO BRAS    30051910 000237
10231987175000168916200163100    000042570                    000425700000000000000109                     I0142570     30051900000000040003410000017N130319104700000000000103005190000000000000000000000000000000000000000100000092416713LOURDES GONCALVES DA SILVA CAB          RUA GUATEMALAN 467, CASA 1 FRENTE       PENHA CIRCUL21020170RIO DE JANEIRO RJUNIAO UMB DOS CULTOS AFRO BRAS    30051910 000238
10231987175000168916200163100    000042569                    000425690000000000000109                     I0142569     30051900000000040003410000017N130319104700000000000103005190000000000000000000000000000000000000000100000896315797ROSANGELA GONCALVES BONZOUMET           RUA CORREIO DO RION 155,                TAQUARA     22715010RIO DE JANEIRO RJUNIAO UMB DOS CULTOS AFRO BRAS    30051910 000239
10231987175000168916200163100    000042568                    000425680000000000000109                     I0142568     30051900000000040003410000017N130319104700000000000103005190000000000000000000000000000000000000000100074734440778NILMA SANTOS ANDRADE                    RUA AGUIA BRANCA N 0, LOTE 15 QUADRA 68 CAROBINHA   23097630RIO DE JANEIRO RJUNIAO UMB DOS CULTOS AFRO BRAS    30051910 000240
10231987175000168916200163100    000042567                    000425670000000000000109                     I0142567     30051900000000040003410000017N130319104700000000000103005190000000000000000000000000000000000000000100002478890755GRETGHEN LUIZ DE MELO                   RUA MANOEL GAMAN 198, A 1 ANDAR         VILA TIRADEN25525390SAO JOAO DE MERRJUNIAO UMB DOS CULTOS AFRO BRAS    30051910 000241
10231987175000168916200163100    000042566                    000425660000000000000109                     I0142566     30051900000000040003410000017N130319104700000000000103005190000000000000000000000000000000000000000100011376749700ROGERIO CORREIA DA COSTA JUNIO          RUA SANTA CATARINAN 18, JD MARIANA      IMBARIE     25271010DUQUE DE CAXIASRJUNIAO UMB DOS CULTOS AFRO BRAS    30051910 000242
10231987175000168916200163100    000042565                    000425650000000000000109                     I0142565     30051900000000040003410000017N130319104700000000000103005190000000000000000000000000000000000000000100077217942772LUIZ CLAUDIO CONCEICAO MAIA             RUA DOUTOR THOUZETN 577, B FUNDOS       QUITANDINHA 25650061PETROPOLIS     RJUNIAO UMB DOS CULTOS AFRO BRAS    30051910 000243
10231987175000168916200163100    000042564                    000425640000000000000109                     I0142564     30051900000000040003410000017N130319104700000000000103005190000000000000000000000000000000000000000100002725570727JOSE DE RIBAMAR PEREIRA DOS PA          RUA CELESTINON 370,                     PRESIDENTE J26225030NOVA IGUACU    RJUNIAO UMB DOS CULTOS AFRO BRAS    30051910 000244
10231987175000168916200163100    000042563                    000425630000000000000109                     I0142563     30051900000000040003410000017N130319104700000000000103005190000000000000000000000000000000000000000100093476930734LUCIENE TEIXEIRA DE OLIVEIRA            RUA CACHAMBIN 34, APT 407               CACHAMBI    20775182RIO DE JANEIRO RJUNIAO UMB DOS CULTOS AFRO BRAS    30051910 000245
10231987175000168916200163100    000042562                    000425620000000000000109                     I0142562     30051900000000040003410000017N130319104700000000000103005190000000000000000000000000000000000000000100008326943711ANGELO ABREU MARTINS                    RUA DN 0, LOTE 9 QUADRA 22              MONTE VERDE 24857564ITABORAI       RJUNIAO UMB DOS CULTOS AFRO BRAS    30051910 000246
10231987175000168916200163100    000042561                    000425610000000000000109                     I0142561     30051900000000040003410000017N130319104700000000000103005190000000000000000000000000000000000000000100010520857763MARCELO ANTONIO PIMENTA                 RUA ITUMIRIMN 25,                       GUARATIBA   23033270RIO DE JANEIRO RJUNIAO UMB DOS CULTOS AFRO BRAS    30051910 000247
10231987175000168916200163100    000042560                    000425600000000000000109                     I0142560     30051900000000040003410000017N130319104700000000000103005190000000000000000000000000000000000000000100010475138708CAMILA ARAUJO DA MOTTA                  RUA SAO BRAZN 232, APTO 202             TODOS OS SAN20770150RIO DE JANEIRO RJUNIAO UMB DOS CULTOS AFRO BRAS    30051910 000248
10231987175000168916200163100    000042559                    000425590000000000000109                     I0142559     30051900000000040003410000017N130319104700000000000103005190000000000000000000000000000000000000000100014324870780ANDREY SANTOS ESTEVES                   RUA GENERAL SEZEFREDON 7,               REALENGO    21715060RIO DE JANEIRO RJUNIAO UMB DOS CULTOS AFRO BRAS    30051910 000249
