01REMESSA01COBRANCA       916200163100        União Umb dos Cultos Afro Bra341BANCO ITAU SA  040419                                                                                                                                                                                                                                                                                                      000001
10231987175000168916200163100    000045005                    000450050000000000000109                     I0145005     30061900000000035003410000017N040419104700000000000103006190000000000000000000000000000000000000000100068862989768VILMA FLAUSINO ILIDIO                   RUA: GERALDO MACEDO N 230,              HELIOPOLIS  26123090BELFORD ROXO   RJUNIAO UMB DOS CULTOS AFRO BRAS    30061910 000002
10231987175000168916200163100    000045004                    000450040000000000000109                     I0145004     30051900000000035003410000017N040419104700000000000103005190000000000000000000000000000000000000000100068862989768VILMA FLAUSINO ILIDIO                   RUA: GERALDO MACEDO N 230,              HELIOPOLIS  26123090BELFORD ROXO   RJUNIAO UMB DOS CULTOS AFRO BRAS    30051910 000003
10231987175000168916200163100    000045003                    000450030000000000000109                     I0145003     30041900000000040003410000017N040419104700000000000103004190000000000000000000000000000000000000000100077126610734FRANCISCO MUNIZ NETO                    RUA HOMERON 26,                         ROCHA MIRAND21510160RIO DE JANEIRO RJUNIAO UMB DOS CULTOS AFRO BRAS    30041910 000004
10231987175000168916200163100    000045002                    000450020000000000000109                     I0145002     08041900000000040003410000017N040419104700000000000100804190000000000000000000000000000000000000000100001582280738NATALICIA LOPES PEREIRA                 ALAMEDA JORGINHON 36, LOTE 11 QUADRA 24 FRAGOSO     29000000MAGE           RJUNIAO UMB DOS CULTOS AFRO BRAS    08041910 000005
10231987175000168916200163100    000045001                    000450010000000000000109                     I0145001     30061900000000040003410000017N040419104700000000000103006190000000000000000000000000000000000000000100008039606705LOURDES BEATRIZ DE ALMEIDA              AVENIDA JOAQUIM DE OLIVEIRAN 300,       BOA VISTA   24466142SAO GONCALO    RJUNIAO UMB DOS CULTOS AFRO BRAS    30061910 000006
10231987175000168916200163100    000045000                    000450000000000000000109                     I0145000     30051900000000040003410000017N040419104700000000000103005190000000000000000000000000000000000000000100008039606705LOURDES BEATRIZ DE ALMEIDA              AVENIDA JOAQUIM DE OLIVEIRAN 300,       BOA VISTA   24466142SAO GONCALO    RJUNIAO UMB DOS CULTOS AFRO BRAS    30051910 000007
10231987175000168916200163100    000044999                    000449990000000000000109                     I0144999     30061900000000040003410000017N040419104700000000000103006190000000000000000000000000000000000000000100008019858709ACIR TEIXEIRA                           AVENIDA PERNAMBUCANAN 1910,             VILA ROSALI 25510430SAO JOAO DE MERRJUNIAO UMB DOS CULTOS AFRO BRAS    30061910 000008
10231987175000168916200163100    000044998                    000449980000000000000109                     I0144998     30051900000000040003410000017N040419104700000000000103005190000000000000000000000000000000000000000100008019858709ACIR TEIXEIRA                           AVENIDA PERNAMBUCANAN 1910,             VILA ROSALI 25510430SAO JOAO DE MERRJUNIAO UMB DOS CULTOS AFRO BRAS    30051910 000009
10231987175000168916200163100    000044997                    000449970000000000000109                     I0144997     20041900000000120003410000017N040419104700000000000102004190000000000000000000000000000000000000000100011124747737JOSE DO NASCIMENTO                      RUA JUTAI N 0, LOTE 25 QUADRA 153       OLAVO BILAC 25025290DUQUE DE CAXIASRJUNIAO UMB DOS CULTOS AFRO BRAS    20041910 000010
10231987175000168916200163100    000044809                    000448090000000000000109                     I0244809     22031900000000040003410000017N140319104700000000000102203190000000000000000000000000000000000000000100001582280738NATALICIA LOPES PEREIRA                 ALAMEDA JORGINHON 36, LOTE 11 QUADRA 24 FRAGOSO     29000000MAGE           RJUNIAO UMB DOS CULTOS AFRO BRAS    22031910 000011
10231987175000168916200163100    000044097                    000440970000000000000109                     I0244097     30061900000000040003410000017N130319104700000000000103006190000000000000000000000000000000000000000100068862989768VILMA FLAUSINO ILIDIO                   RUA: GERALDO MACEDO N 230,              HELIOPOLIS  26123090BELFORD ROXO   RJUNIAO UMB DOS CULTOS AFRO BRAS    30061910 000012
10231987175000168916200163100    000042451                    000424510000000000000109                     I0242451     30051900000000040003410000017N130319104700000000000103005190000000000000000000000000000000000000000100068862989768VILMA FLAUSINO ILIDIO                   RUA: GERALDO MACEDO N 230,              HELIOPOLIS  26123090BELFORD ROXO   RJUNIAO UMB DOS CULTOS AFRO BRAS    30051910 000013
10231987175000168916200163100    000041508                    000415080000000000000109                     I0241508     22031900000000040003410000017N130319104700000000000102203190000000000000000000000000000000000000000100011124747737JOSE DO NASCIMENTO                      RUA JUTAI N 0, LOTE 25 QUADRA 153       OLAVO BILAC 25025290DUQUE DE CAXIASRJUNIAO UMB DOS CULTOS AFRO BRAS    22031910 000014
10231987175000168916200163100    000041507                    000415070000000000000109                     I0241507     22031900000000040003410000017N130319104700000000000102203190000000000000000000000000000000000000000100011124747737JOSE DO NASCIMENTO                      RUA JUTAI N 0, LOTE 25 QUADRA 153       OLAVO BILAC 25025290DUQUE DE CAXIASRJUNIAO UMB DOS CULTOS AFRO BRAS    22031910 000015
10231987175000168916200163100    000040814                    000408140000000000000109                     I0240814     30041900000000040003410000017N120319104700000000000103004190000000000000000000000000000000000000000100068862989768VILMA FLAUSINO ILIDIO                   RUA: GERALDO MACEDO N 230,              HELIOPOLIS  26123090BELFORD ROXO   RJUNIAO UMB DOS CULTOS AFRO BRAS    30041910 000016
9                                                                                                                                                                                                                                                                                                                                                                                                         000017
