01REMESSA01COBRANCA       817800093673        União Umb dos Cultos Afro Bra341BANCO ITAU SA  201218                                                                                                                                                                                                                                                                                                      000001
10231987175000168817800093673    000033633                    000336330000000000000109                     I0133633     28121800000000350003410000017N201218104700000000000102812180000000000000000000000000000000000000000100002877150780CENIRA DOS SANTOS FERREIRA              RUA SAO BENTO                           BABILONIA   22010060RIO DE JANEIRO RJUNIAO UMB DOS CULTOS AFRO BRAS    28121810 000002
10231987175000168817800093673    000033164                    000331640000000000000109                     I0233164     20121800000000380003410000017N291018104700000000000102012180000000000000000000000000000000000000000100063662329700MARCO LUIS FREITAS DE AMORIM            RUA DAS DALIAS                          VILA VALQUEI20720012RIO DE JANEIRO RJUNIAO UMB DOS CULTOS AFRO BRAS    20121810 000003
10231987175000168817800093673    000033045                    000330450000000000000109                     I0233045     20121800000000350003410000017N291018104700000000000102012180000000000000000000000000000000000000000100043895255734LUIZ ANTONIO GUEDES ALVES               RUA ANANY CHARLES VIEIRA                JARDIM GUAPI25943383GUAPIMIRIM     RJUNIAO UMB DOS CULTOS AFRO BRAS    20121810 000004
10231987175000168817800093673    000032895                    000328950000000000000109                     I0232895     20121800000000350003410000017N291018104700000000000102012180000000000000000000000000000000000000000100083493956720SAINT-CLAIR FERREIRA BARBOSA            RUA: HONORIO PECANHA                    SEPETIBA    23535127RIO DE JANEIRO RJUNIAO UMB DOS CULTOS AFRO BRAS    20121810 000005
10231987175000168817800093673    000032380                    000323800000000000000109                     I0232380     20121800000000400003410000017N291018104700000000000102012180000000000000000000000000000000000000000100013784705758CESAR CALABRIA DE ANDRADE               RUA JAPURA                              PRACA SECA  21320000RIO DE JANEIRO RJUNIAO UMB DOS CULTOS AFRO BRAS    20121810 000006
10231987175000168817800093673    000032177                    000321770000000000000109                     I0232177     20121800000000400003410000017N291018104700000000000102012180000000000000000000000000000000000000000100070859086704MARIA CRISTINA DA SILVA SANTAN          RUA: SEBASTIAN BACH                     JARDIM AMERI21240370RIO DE JANEIRO RJUNIAO UMB DOS CULTOS AFRO BRAS    20121810 000007
10231987175000168817800093673    000032168                    000321680000000000000109                     I0232168     20121800000000350003410000017N291018104700000000000102012180000000000000000000000000000000000000000100002877150780CENIRA DOS SANTOS FERREIRA              RUA SAO BENTO                           BABILONIA   22010060RIO DE JANEIRO RJUNIAO UMB DOS CULTOS AFRO BRAS    20121810 000008
10231987175000168817800093673    000031487                    000314870000000000000109                     I0231487     20121800000000380003410000017N291018104700000000000102012180000000000000000000000000000000000000000100009175685752DAVID ASTH DA SILVA                     RUA DEZENOVE DE NOVEMBRO                ILHA DO GOVE21922530RIO DE JANEIRO RJUNIAO UMB DOS CULTOS AFRO BRAS    20121810 000009
10231987175000168817800093673    000031077                    000310770000000000000109                     I0231077     20121800000000350003410000017N291018104700000000000102012180000000000000000000000000000000000000000100033745226704LUIZA MARIA DO NASCIMENTO MARQ          RUA CESARIO DE MELO                     MONTE SERRA 23585127RIO DE JANEIRO RJUNIAO UMB DOS CULTOS AFRO BRAS    20121810 000010
10231987175000168817800093673    000030985                    000309850000000000000109                     I0230985     20121800000000350003410000017N291018104700000000000102012180000000000000000000000000000000000000000100000000000232SONIA PEREIRA SALGADO                   ESTRADA BOUGAINVILLE                    JACAREPAGUA 22753210RIO DE JANEIRO RJUNIAO UMB DOS CULTOS AFRO BRAS    20121810 000011
10231987175000168817800093673    000030910                    000309100000000000000109                     I0230910     20121800000000380003410000017N291018104700000000000102012180000000000000000000000000000000000000000100008214669766MARCO AURELIO RANGEL BARBOSA            RUA GENERAL JOSE FAUSTINO               PADRE MIGUEL21721050RIO DE JANEIRO RJUNIAO UMB DOS CULTOS AFRO BRAS    20121810 000012
10231987175000168817800093673    000029203                    000292030000000000000109                     I0229203     20121800000000040003410000017N291018104700000000000102012180000000000000000000000000000000000000000100008214669766MARCO AURELIO RANGEL BARBOSA            RUA GENERAL JOSE FAUSTINO               PADRE MIGUEL21721050RIO DE JANEIRO RJUNIAO UMB DOS CULTOS AFRO BRAS    20121810 000013
10231987175000168817800093673    000029050                    000290500000000000000109                     I0229050     20121800000000035003410000017N291018104700000000000102012180000000000000000000000000000000000000000100004125947732FABIO DA FONSECA PAES                   RUA JOAQUIM COUTO                       VILA JURANDI25540370SAO JOAO DE MERRJUNIAO UMB DOS CULTOS AFRO BRAS    20121810 000014
10231987175000168817800093673    000029004                    000290040000000000000109                     I0129004     26121800000000040003410000017N261018104700000000000102612180000000000000000000000000000000000000000100009142845769MICHELE OAZEM MINEIRO                   RUA CARIOCA                             SAO BERNARDO26167210BELFORD ROXO   RJUNIAO UMB DOS CULTOS AFRO BRAS    26121810 000015
10231987175000168817800093673    000027268                    000272680000000000000109                     I0227268     30111800000000040003410000017N200818104700000000000103011180000000000000000000000000000000000000000100008214669766MARCO AURELIO RANGEL BARBOSA            RUA GENERAL JOSE FAUSTINO               PADRE MIGUEL21721050RIO DE JANEIRO RJUNIAO UMB DOS CULTOS AFRO BRAS    30111810 000016
10231987175000168817800093673    000027110                    000271100000000000000109                     I0227110     30111800000000035003410000017N200818104700000000000103011180000000000000000000000000000000000000000100004125947732FABIO DA FONSECA PAES                   RUA JOAQUIM COUTO                       VILA JURANDI25540370SAO JOAO DE MERRJUNIAO UMB DOS CULTOS AFRO BRAS    30111810 000017
9                                                                                                                                                                                                                                                                                                                                                                                                         000018
