01REMESSA01COBRANCA       817800093673        União Umb dos Cultos Afro Bra341BANCO ITAU SA  020419                                                                                                                                                                                                                                                                                                      000001
10231987175000168817800093673    000039762                    000397620000000000000109                     I0239762     30031900000000040003410000017N080219104700000000000103003190000000000000000000000000000000000000000100081972148753JORGE ALVES DE MEDEIROS                 RUA LILAZES N 13, PARQUE FLORESTA       TRES SETAS  26171450BELFORD ROXO   RJUNIAO UMB DOS CULTOS AFRO BRAS    30031910 000002
10231987175000168817800093673    000039324                    000393240000000000000109                     I0239324     30031900000000040003410000017N261218104700000000000103003190000000000000000000000000000000000000000100032140649320ROSA ELENA ALVES DA COSTA               RUA: NILTON CORDEIRON 57, CASA          MARE        21044052RIO DE JANEIRO RJUNIAO UMB DOS CULTOS AFRO BRAS    30031910 000003
10231987175000168817800093673    000038849                    000388490000000000000109                     I0238849     30031900000000040003410000017N261218104700000000000103003190000000000000000000000000000000000000000100086873130710NOEMIA PEREIRA LOPES                    RUA WILSON ARAUJON 2172,                XEREM       25250460DUQUE DE CAXIASRJUNIAO UMB DOS CULTOS AFRO BRAS    30031910 000004
10231987175000168817800093673    000038382                    000383820000000000000109                     I0238382     30031900000000040003410000017N261218104700000000000103003190000000000000000000000000000000000000000100011140864793CLAUDIA THEODORO                        RUA VINTE E NOVE DE SETEMBRON 1760,     CARAMBITA   27600000VALENCA        RJUNIAO UMB DOS CULTOS AFRO BRAS    30031910 000005
10231987175000168817800093673    000037885                    000378850000000000000109                     I0237885     30031900000000040003410000017N261218104700000000000103003190000000000000000000000000000000000000000207280383000148CANTINHO DA VOVO MARIA CONGA D          RUA SARGENTO MARQUETI N 5,              MARECHAL HER21611000RIO DE JANEIRO RJUNIAO UMB DOS CULTOS AFRO BRAS    30031910 000006
10231987175000168817800093673    000037828                    000378280000000000000109                     I0237828     30031900000000040003410000017N261218104700000000000103003190000000000000000000000000000000000000000100032996659600FERNANDO JUSTINO PALMEIRA               ESTRADA DE JACONE N 569,                SAMPAIO CORR28990000SAQUAREMA      RJUNIAO UMB DOS CULTOS AFRO BRAS    30031910 000007
10231987175000168817800093673    000037472                    000374720000000000000109                     I0237472     30031900000000040003410000017N261218104700000000000103003190000000000000000000000000000000000000000100053768175715DAMIANA MARTINS DA SILVA                RUA ARABORIN 262,                       ROCHA MIRAND21545120RIO DE JANEIRO RJUNIAO UMB DOS CULTOS AFRO BRAS    30031910 000008
10231987175000168817800093673    000036930                    000369300000000000000109                     I0236930     28021900000000040003410000017N261218104700000000000102802190000000000000000000000000000000000000000100086873130710NOEMIA PEREIRA LOPES                    RUA WILSON ARAUJON 2172,                XEREM       25250460DUQUE DE CAXIASRJUNIAO UMB DOS CULTOS AFRO BRAS    28021910 000009
10231987175000168817800093673    000036919                    000369190000000000000109                     I0236919     28021900000000040003410000017N261218104700000000000102802190000000000000000000000000000000000000000100024540285734FERNANDO PEREIRA DE SOUZA               RUA ALECRIM N 1001,                     VILA KOSMOS 21220050RIO DE JANEIRO RJUNIAO UMB DOS CULTOS AFRO BRAS    28021910 000010
10231987175000168817800093673    000036465                    000364650000000000000109                     I0236465     28021900000000040003410000017N261218104700000000000102802190000000000000000000000000000000000000000100011140864793CLAUDIA THEODORO                        RUA VINTE E NOVE DE SETEMBRON 1760,     CARAMBITA   27600000VALENCA        RJUNIAO UMB DOS CULTOS AFRO BRAS    28021910 000011
10231987175000168817800093673    000035914                    000359140000000000000109                     I0235914     28021900000000040003410000017N261218104700000000000102802190000000000000000000000000000000000000000100032996659600FERNANDO JUSTINO PALMEIRA               ESTRADA DE JACONE N 569,                SAMPAIO CORR28990000SAQUAREMA      RJUNIAO UMB DOS CULTOS AFRO BRAS    28021910 000012
10231987175000168817800093673    000035560                    000355600000000000000109                     I0235560     28021900000000040003410000017N261218104700000000000102802190000000000000000000000000000000000000000100053768175715DAMIANA MARTINS DA SILVA                RUA ARABORIN 262,                       ROCHA MIRAND21545120RIO DE JANEIRO RJUNIAO UMB DOS CULTOS AFRO BRAS    28021910 000013
9                                                                                                                                                                                                                                                                                                                                                                                                         000014
