01REMESSA01COBRANCA       817800093673        União Umb dos Cultos Afro Bra341BANCO ITAU SA  200219                                                                                                                                                                                                                                                                                                      000001
10231987175000168817800093673    000039763                    000397630000000000000109                     I0239763     20021900000000300003410000017N080219104700000000000102002190000000000000000000000000000000000000000100003748838743ALESSANDRA REIS DOS SANTOS              RUA MARANGA N 123, BL 3 APTO 303        PRACA SECA  21321660RIO DE JANEIRO RJUNIAO UMB DOS CULTOS AFRO BRAS    20021910 000002
10231987175000168817800093673    000038890                    000388900000000000000109                     I0238890     30031900000000040003410000017N261218104700000000000103003190000000000000000000000000000000000000000100059680903753TANIA REGINA DOS SANTOS MARQUE          RUA VISCONDE DE MACEION 50, FRENTE      IRAJA       21235100RIO DE JANEIRO RJUNIAO UMB DOS CULTOS AFRO BRAS    30031910 000003
10231987175000168817800093673    000038765                    000387650000000000000109                     I0238765     30031900000000040003410000017N261218104700000000000103003190000000000000000000000000000000000000000100097314919704CLAUDIA ESTRELA RODRIGUES SERA          RUA NORTEN 298,                         ROSA DOS VEN26276620NOVA IGUACU    RJUNIAO UMB DOS CULTOS AFRO BRAS    30031910 000004
10231987175000168817800093673    000038168                    000381680000000000000109                     I0238168     30031900000000040003410000017N261218104700000000000103003190000000000000000000000000000000000000000100086506439734DULCILENE EDUARDO                       RUA: NOSSA SENHORA DA GUIA N 45,        PIABETA     25931686MAGE           RJUNIAO UMB DOS CULTOS AFRO BRAS    30031910 000005
10231987175000168817800093673    000037151                    000371510000000000000109                     I0237151     28021900000000040003410000017N261218104700000000000102802190000000000000000000000000000000000000000100003025076712MARIA QUITERIA DOS SANTOS PITA          RUA MISSIONARIO CHRISTIE N 43, B        QUISSAMA    25615250PETROPOLIS     RJUNIAO UMB DOS CULTOS AFRO BRAS    28021910 000006
10231987175000168817800093673    000036971                    000369710000000000000109                     I0236971     28021900000000040003410000017N261218104700000000000102802190000000000000000000000000000000000000000100059680903753TANIA REGINA DOS SANTOS MARQUE          RUA VISCONDE DE MACEION 50, FRENTE      IRAJA       21235100RIO DE JANEIRO RJUNIAO UMB DOS CULTOS AFRO BRAS    28021910 000007
10231987175000168817800093673    000036846                    000368460000000000000109                     I0236846     28021900000000040003410000017N261218104700000000000102802190000000000000000000000000000000000000000100097314919704CLAUDIA ESTRELA RODRIGUES SERA          RUA NORTEN 298,                         ROSA DOS VEN26276620NOVA IGUACU    RJUNIAO UMB DOS CULTOS AFRO BRAS    28021910 000008
10231987175000168817800093673    000036385                    000363850000000000000109                     I0236385     28021900000000040003410000017N261218104700000000000102802190000000000000000000000000000000000000000100002134169729ALEXANDRE DE ALMEIDA                    RUA SERITINGAN 105,  BLOCO 5 APTO 108 FUBRAS DE PINA21215480RIO DE JANEIRO RJUNIAO UMB DOS CULTOS AFRO BRAS    28021910 000009
10231987175000168817800093673    000036252                    000362520000000000000109                     I0236252     28021900000000040003410000017N261218104700000000000102802190000000000000000000000000000000000000000100086506439734DULCILENE EDUARDO                       RUA: NOSSA SENHORA DA GUIA N 45,        PIABETA     25931686MAGE           RJUNIAO UMB DOS CULTOS AFRO BRAS    28021910 000010
10231987175000168817800093673    000035949                    000359490000000000000109                     I0235949     28021900000000040003410000017N261218104700000000000102802190000000000000000000000000000000000000000100008763637707JUSSARA SILVA DE ALBUQUERQUE            RUA ARGOS N 281, FUNDOS                 GUADALUPE   21660050RIO DE JANEIRO RJUNIAO UMB DOS CULTOS AFRO BRAS    28021910 000011
10231987175000168817800093673    000034936                    000349360000000000000109                     I0234936     31011900000000040003410000017N261218104700000000000103101190000000000000000000000000000000000000000100097314919704CLAUDIA ESTRELA RODRIGUES SERA          RUA NORTEN 298,                         ROSA DOS VEN26276620NOVA IGUACU    RJUNIAO UMB DOS CULTOS AFRO BRAS    31011910 000012
10231987175000168817800093673    000034766                    000347660000000000000109                     I0234766     31011900000000040003410000017N261218104700000000000103101190000000000000000000000000000000000000000100080728774704NERIANA SILVA DO CARMO                  RUA AREAL N 262,                        SEPETIBA    23535730RIO DE JANEIRO RJUNIAO UMB DOS CULTOS AFRO BRAS    31011910 000013
10231987175000168817800093673    000033958                    000339580000000000000109                     I0233958     31011900000000040003410000017N261218104700000000000103101190000000000000000000000000000000000000000100028842723720HELENITA ANTONIA DE JESUS               RUA DIVINOLANDIAN 225, CASA 1           CAMPO GRANDE23066440RIO DE JANEIRO RJUNIAO UMB DOS CULTOS AFRO BRAS    31011910 000014
9                                                                                                                                                                                                                                                                                                                                                                                                         000015
