01REMESSA01COBRANCA       817800093673        União Umb dos Cultos Afro Bra341BANCO ITAU SA  131118                                                                                                                                                                                                                                                                                                      000001
10231987175000168817800093673    000033418                    000334180000000000000109                     I0133418     20121800000000350003410000017N131118104700000000000102012180000000000000000000000000000000000000000100000462841766RONALDO SANTOS DE SOUZA                 RUA: PINHEIRO                           VILA CORINGA27321420BARRA MANSA    RJUNIAO UMB DOS CULTOS AFRO BRAS    20121810 000002
10231987175000168817800093673    000033417                    000334170000000000000109                     I0133417     20121800000000035003410000017N131118104700000000000102012180000000000000000000000000000000000000000100000462841766RONALDO SANTOS DE SOUZA                 RUA: PINHEIRO                           VILA CORINGA27321420BARRA MANSA    RJUNIAO UMB DOS CULTOS AFRO BRAS    20121810 000003
10231987175000168817800093673    000033416                    000334160000000000000109                     I0133416     30111800000000210003410000017N131118104700000000000103011180000000000000000000000000000000000000000100081561326704MARCIO ELIAS GONCALVES                  RUA: NOVA                               GUARATIBA   21820210RIO DE JANEIRO RJUNIAO UMB DOS CULTOS AFRO BRAS    30111810 000004
10231987175000168817800093673    000033415                    000334150000000000000109                     I0133415     20121800000000350003410000017N131118104700000000000102012180000000000000000000000000000000000000000100007245028745SANDRA REGINA MARQUES                   RUA MIGUEL UNAMUNO                      JARDIM ROTSE25270120DUQUE DE CAXIASRJUNIAO UMB DOS CULTOS AFRO BRAS    20121810 000005
10231987175000168817800093673    000033414                    000334140000000000000109                     I0133414     20121800000000035003410000017N131118104700000000000102012180000000000000000000000000000000000000000100007245028745SANDRA REGINA MARQUES                   RUA MIGUEL UNAMUNO                      JARDIM ROTSE25270120DUQUE DE CAXIASRJUNIAO UMB DOS CULTOS AFRO BRAS    20121810 000006
10231987175000168817800093673    000033413                    000334130000000000000109                     I0133413     20121800000000035003410000017N131118104700000000000102012180000000000000000000000000000000000000000100050660098768ENI MARIA DA CONCEICAO MOURA            RUA IPIRANGA                            BARRO BRANCO25267365DUQUE DE CAXIASRJUNIAO UMB DOS CULTOS AFRO BRAS    20121810 000007
10231987175000168817800093673    000033412                    000334120000000000000109                     I0133412     20121800000000350003410000017N131118104700000000000102012180000000000000000000000000000000000000000100050660098768ENI MARIA DA CONCEICAO MOURA            RUA IPIRANGA                            BARRO BRANCO25267365DUQUE DE CAXIASRJUNIAO UMB DOS CULTOS AFRO BRAS    20121810 000008
10231987175000168817800093673    000033411                    000334110000000000000109                     I0133411     20121800000000350003410000017N131118104700000000000102012180000000000000000000000000000000000000000100034371990720MARILDA CONCEICAO SILVEIRA DA           RUA: MARAJA                             AREIA BRANCA26135240BELFORD ROXO   RJUNIAO UMB DOS CULTOS AFRO BRAS    20121810 000009
10231987175000168817800093673    000033410                    000334100000000000000109                     I0133410     20121800000000035003410000017N131118104700000000000102012180000000000000000000000000000000000000000100034371990720MARILDA CONCEICAO SILVEIRA DA           RUA: MARAJA                             AREIA BRANCA26135240BELFORD ROXO   RJUNIAO UMB DOS CULTOS AFRO BRAS    20121810 000010
10231987175000168817800093673    000033408                    000334080000000000000109                     I0133408     20111800000000035003410000017N131118104700000000000102011180000000000000000000000000000000000000000100000747523715CLAUDIARA TEIXEIRA DA SILVA             RUA CAMBUCI                             MUQUECA     27140280BARRA DO PIRAI RJUNIAO UMB DOS CULTOS AFRO BRAS    20111810 000011
10231987175000168817800093673    000033407                    000334070000000000000109                     I0133407     14111800000000140003410000017N131118104700000000000101411180000000000000000000000000000000000000000100003558966724ANDREA CORDEIRO DA CONCEICAO S          RUA PARATI                              BOM JESUS   26298183NOVA IGUACU    RJUNIAO UMB DOS CULTOS AFRO BRAS    14111810 000012
10231987175000168817800093673    000033385                    000333850000000000000109                     I0233385     12111800000000140003410000017N081118104700000000000101211180000000000000000000000000000000000000000100003558966724ANDREA CORDEIRO DA CONCEICAO S          RUA PARATI                              BOM JESUS   26298183NOVA IGUACU    RJUNIAO UMB DOS CULTOS AFRO BRAS    12111810 000013
10231987175000168817800093673    000033355                    000333550000000000000109                     I0233355     16111800000000035003410000017N011118104700000000000101611180000000000000000000000000000000000000000100000747523715CLAUDIARA TEIXEIRA DA SILVA             RUA CAMBUCI                             MUQUECA     27140280BARRA DO PIRAI RJUNIAO UMB DOS CULTOS AFRO BRAS    16111810 000014
10231987175000168817800093673    000032184                    000321840000000000000109                     I0232184     20121800000000350003410000017N291018104700000000000102012180000000000000000000000000000000000000000100006067864738MARLY ROSA DIAS CUNHA                   RUA: ALVARO RAMOS                       COLONIA - JA00000000RIO DE JANEIRO RJUNIAO UMB DOS CULTOS AFRO BRAS    20121810 000015
10231987175000168817800093673    000032121                    000321210000000000000109                     I0232121     20121800000000350003410000017N291018104700000000000102012180000000000000000000000000000000000000000100087407396787ALAIDE DA CONCEICAO                     RUA SAO JOSE                            PONTE DO ROC27700000VASSOURAS      RJUNIAO UMB DOS CULTOS AFRO BRAS    20121810 000016
10231987175000168817800093673    000031898                    000318980000000000000109                     I3431898     20121800000000350003410000017N291018104700000000000102012180000000000000000000000000000000000000000100063893843787DORA MARCIA DE SOUZA ALMEIDA            RUA PRADO JUNIOR                        SANTA CRUZ  23550101RIO DE JANEIRO RJUNIAO UMB DOS CULTOS AFRO BRAS    20121810 000017
10231987175000168817800093673    000031205                    000312050000000000000109                     I3431205     20121800000000350003410000017N291018104700000000000102012180000000000000000000000000000000000000000100001230614745LUIZ ANTONIO MARQUES TONDATO            RUA: TRES                               IPIRANGA    00000000RIO DE JANEIRO RJUNIAO UMB DOS CULTOS AFRO BRAS    20121810 000018
10231987175000168817800093673    000030957                    000309570000000000000109                     I3430957     20121800000000350003410000017N291018104700000000000102012180000000000000000000000000000000000000000100000000000199MARIA DALVA DE MELO                     RUA GG                                  JARDIM ANHAN25264670DUQUE DE CAXIASRJUNIAO UMB DOS CULTOS AFRO BRAS    20121810 000019
10231987175000168817800093673    000030842                    000308420000000000000109                     I3430842     20121800000000350003410000017N291018104700000000000102012180000000000000000000000000000000000000000100070852600763RITA MORAES DA SILVA                    RUA SAFIRA                              COELHO DA RO25550580SAO JOAO DE MERRJUNIAO UMB DOS CULTOS AFRO BRAS    20121810 000020
10231987175000168817800093673    000029407                    000294070000000000000109                     I3429407     20121800000000040003410000017N291018104700000000000102012180000000000000000000000000000000000000000100055688306734ROBERTO BRAGANCA BAHIA                  TRAVESSA PALADINO GARCIA                CENTRO      26130290BELFORD ROXO   RJUNIAO UMB DOS CULTOS AFRO BRAS    20121810 000021
10231987175000168817800093673    000029356                    000293560000000000000109                     I0229356     20121800000000035003410000017N291018104700000000000102012180000000000000000000000000000000000000000100000000000000HELENA ALVES BRAZ                       RUA JUTAI                               PERIQUITO   25025290DUQUE DE CAXIASRJUNIAO UMB DOS CULTOS AFRO BRAS    20121810 000022
10231987175000168817800093673    000029183                    000291830000000000000109                     I0229183     20121800000000035003410000017N291018104700000000000102012180000000000000000000000000000000000000000100070852600763RITA MORAES DA SILVA                    RUA SAFIRA                              COELHO DA RO25550580SAO JOAO DE MERRJUNIAO UMB DOS CULTOS AFRO BRAS    20121810 000023
10231987175000168817800093673    000027743                    000277430000000000000109                     I0227743     30111800000000035003410000017N200818104700000000000103011180000000000000000000000000000000000000000100081561326704MARCIO ELIAS GONCALVES                  RUA: NOVA                               GUARATIBA   21820210RIO DE JANEIRO RJUNIAO UMB DOS CULTOS AFRO BRAS    30111810 000024
10231987175000168817800093673    000027429                    000274290000000000000109                     I0227429     30111800000000035003410000017N200818104700000000000103011180000000000000000000000000000000000000000100000000000000HELENA ALVES BRAZ                       RUA JUTAI                               PERIQUITO   25025290DUQUE DE CAXIASRJUNIAO UMB DOS CULTOS AFRO BRAS    30111810 000025
10231987175000168817800093673    000026826                    000268260000000000000109                     I3426826     30091800000000035003410000017N200818104700000000000103009180000000000000000000000000000000000000000100009946366797SIMONE SOARES NEA                       RUA FLAVIO RANGEL                       CAMPO GRANDE23085430RIO DE JANEIRO RJUNIAO UMB DOS CULTOS AFRO BRAS    30091810 000026
10231987175000168817800093673    000026351                    000263510000000000000109                     I3426351     30091800000000035003410000017N200818104700000000000103009180000000000000000000000000000000000000000100059475161791MARIA NAZARETE ALVES ANTONIO            TRAVESSA SANTOS DUMONT                  ILHA DO GOVE21910490RIO DE JANEIRO RJUNIAO UMB DOS CULTOS AFRO BRAS    30091810 000027
10231987175000168817800093673    000026325                    000263250000000000000109                     I0226325     30091800000000035003410000017N200818104700000000000103009180000000000000000000000000000000000000000100081561326704MARCIO ELIAS GONCALVES                  RUA: NOVA                               GUARATIBA   21820210RIO DE JANEIRO RJUNIAO UMB DOS CULTOS AFRO BRAS    30091810 000028
10231987175000168817800093673    000026013                    000260130000000000000109                     I0226013     30091800000000035003410000017N200818104700000000000103009180000000000000000000000000000000000000000100000000000000HELENA ALVES BRAZ                       RUA JUTAI                               PERIQUITO   25025290DUQUE DE CAXIASRJUNIAO UMB DOS CULTOS AFRO BRAS    30091810 000029
10231987175000168817800093673    000025591                    000255910000000000000109                     I0225591     30101800000000035003410000017N200818104700000000000103010180000000000000000000000000000000000000000100046840117715TERESA CRISTINA DE MELLO SOARE          RUA CANUTAMA                            OSWALDO CRUZ21340440RIO DE JANEIRO RJUNIAO UMB DOS CULTOS AFRO BRAS    30101810 000030
10231987175000168817800093673    000024933                    000249330000000000000109                     I3424933     30101800000000035003410000017N200818104700000000000103010180000000000000000000000000000000000000000100059475161791MARIA NAZARETE ALVES ANTONIO            TRAVESSA SANTOS DUMONT                  ILHA DO GOVE21910490RIO DE JANEIRO RJUNIAO UMB DOS CULTOS AFRO BRAS    30101810 000031
10231987175000168817800093673    000024906                    000249060000000000000109                     I0224906     30101800000000035003410000017N200818104700000000000103010180000000000000000000000000000000000000000100081561326704MARCIO ELIAS GONCALVES                  RUA: NOVA                               GUARATIBA   21820210RIO DE JANEIRO RJUNIAO UMB DOS CULTOS AFRO BRAS    30101810 000032
10231987175000168817800093673    000024593                    000245930000000000000109                     I0224593     30101800000000035003410000017N200818104700000000000103010180000000000000000000000000000000000000000100000000000000HELENA ALVES BRAZ                       RUA JUTAI                               PERIQUITO   25025290DUQUE DE CAXIASRJUNIAO UMB DOS CULTOS AFRO BRAS    30101810 000033
10231987175000168817800093673    000024368                    000243680000000000000109                     I0224368     30101800000000035003410000017N200818104700000000000103010180000000000000000000000000000000000000000100000000000715LECY PEREIRA CARDOSO                    ESTRADA: DO CARRO QUEBRADO              FIGUEIRAS   26051740NOVA IGUACU    RJUNIAO UMB DOS CULTOS AFRO BRAS    30101810 000034
9                                                                                                                                                                                                                                                                                                                                                                                                         000035
