01REMESSA01COBRANCA       817800093673        União Umb dos Cultos Afro Bra341BANCO ITAU SA  041018                                                                                                                                                                                                                                                                                                      000001
10231987175000168817800093673    000028884                    000288840000000000000109                     I0128884     04011900000000175003410000017N041018104700000000000100401190000000000000000000000000000000000000000100003351716729WAGNER CONCEICAO DO NASCIMENTO          RUA CRISANTEMOS, 152 CASA 48 FRENTE - SAHITERLAND - 26171430BELFORD ROXO   RJUNIAO UMB DOS CULTOS AFRO BRAS    04011910 000002
10231987175000168817800093673    000028883                    000288830000000000000109                     I0128883     05121800000000140003410000017N041018104700000000000100512180000000000000000000000000000000000000000100003351716729WAGNER CONCEICAO DO NASCIMENTO          RUA CRISANTEMOS, 152 CASA 48 FRENTE - SAHITERLAND - 26171430BELFORD ROXO   RJUNIAO UMB DOS CULTOS AFRO BRAS    05121810 000003
10231987175000168817800093673    000028882                    000288820000000000000109                     I0128882     05111800000000140003410000017N041018104700000000000100511180000000000000000000000000000000000000000100003351716729WAGNER CONCEICAO DO NASCIMENTO          RUA CRISANTEMOS, 152 CASA 48 FRENTE - SAHITERLAND - 26171430BELFORD ROXO   RJUNIAO UMB DOS CULTOS AFRO BRAS    05111810 000004
10231987175000168817800093673    000028881                    000288810000000000000109                     I0128881     31101800000001500003410000017N041018104700000000000103110180000000000000000000000000000000000000000100005421759750PEDRO MIRANDA - GREGORIO                RUA ENGENHO DA RAINHA                   TODOS OS SAN20765040RIO DE JANEIRO RJUNIAO UMB DOS CULTOS AFRO BRAS    31101810 000005
10231987175000168817800093673    000028880                    000288800000000000000109                     I0128880     31101800000000400003410000017N041018104700000000000103110180000000000000000000000000000000000000000100005421729750GREGORIO THOMAS DE OLIVEIRA BR          RUA AIERA                               VILA COSMOS 21220020RIO DE JANEIRO RJUNIAO UMB DOS CULTOS AFRO BRAS    31101810 000006
10231987175000168817800093673    000028879                    000288790000000000000109                     I0128879     15101800000000380003410000017N041018104700000000000101510180000000000000000000000000000000000000000100004770414773CARLOS ALBERTO TORRES NOGUEIRA          ESTRADA DO LAMEIRAO                     SANTISSIMO  23092031RIO DE JANEIRO RJUNIAO UMB DOS CULTOS AFRO BRAS    15101810 000007
10231987175000168817800093673    000028878                    000288780000000000000109                     I0128878     10101800000000070003410000017N041018104700000000000101010180000000000000000000000000000000000000000100079006980753ELIANE BARBOSA RODRIGUES                AVENIDA PASTEUR                         PARQUE ALIAN25550210SAO JOAO DE MERRJUNIAO UMB DOS CULTOS AFRO BRAS    10101810 000008
10231987175000168817800093673    000028877                    000288770000000000000109                     I0128877     15101800000000350003410000017N041018104700000000000101510180000000000000000000000000000000000000000100008679284769ANA PAULA DA SILVA BRAGA                RUA ELVIRA DA FONSECA                   TANQUE      22733150RIO DE JANEIRO RJUNIAO UMB DOS CULTOS AFRO BRAS    15101810 000009
10231987175000168817800093673    000028874                    000288740000000000000109                     I0128874     20121800000000035003410000017N041018104700000000000102012180000000000000000000000000000000000000000100008030521707MONICA MIRANDA DE BARROS                RUA CATULO CEARENSE                     ENGENHO DE D00000000RIO DE JANEIRO RJUNIAO UMB DOS CULTOS AFRO BRAS    20121810 000010
10231987175000168817800093673    000028864                    000288640000000000000109                     I0128864     30111800000000040003410000017N031018104700000000000103011180000000000000000000000000000000000000000100005328326711BARRIE BANGE PEREIRA                    RUA JORGE PAULO DE SOUZA MAIA           CONSELHEIRO 28635540NOVA FRIBURGO  RJUNIAO UMB DOS CULTOS AFRO BRAS    30111810 000011
10231987175000168817800093673    000028863                    000288630000000000000109                     I0128863     30101800000000040003410000017N031018104700000000000103010180000000000000000000000000000000000000000100005328326711BARRIE BANGE PEREIRA                    RUA JORGE PAULO DE SOUZA MAIA           CONSELHEIRO 28635540NOVA FRIBURGO  RJUNIAO UMB DOS CULTOS AFRO BRAS    30101810 000012
10231987175000168817800093673    000028862                    000288620000000000000109                     I0128862     20121800000000035003410000017N031018104700000000000102012180000000000000000000000000000000000000000100007609502707WALDENILSON DUARTE DOS SANTOS           RUA ITABAIANA 93 FDS QD 113 LT 19       CABUCU - NOV26355500RIO DE JANEIRO RJUNIAO UMB DOS CULTOS AFRO BRAS    20121810 000013
10231987175000168817800093673    000028861                    000288610000000000000109                     I0128861     30111800000000040003410000017N031018104700000000000103011180000000000000000000000000000000000000000100010503933767THIAGO MARQUES DE CARVALHO              TRAVESSA DA SERVIDAO                    CAMPO GRANDE23017405RIO DE JANEIRO RJUNIAO UMB DOS CULTOS AFRO BRAS    30111810 000014
10231987175000168817800093673    000028860                    000288600000000000000109                     I0128860     08101800000000420003410000017N031018104700000000000100810180000000000000000000000000000000000000000100007802202779ROBERTO DE OLIVEIRA ALONSO NET          RUA: VEREADOR FRANCISCO NUNES           CENTRO      26540040NILOPOLIS      RJUNIAO UMB DOS CULTOS AFRO BRAS    08101810 000015
10231987175000168817800093673    000028859                    000288590000000000000109                     I0128859     10101800000000070003410000017N031018104700000000000101010180000000000000000000000000000000000000000100003601608758NILDA MAURA RODRIGUES DE JESUS          RUA ARI VILAR                           COSTA BARROS21520860RIO DE JANEIRO RJUNIAO UMB DOS CULTOS AFRO BRAS    10101810 000016
10231987175000168817800093673    000028858                    000288580000000000000109                     I0128858     30101800000000380003410000017N031018104700000000000103010180000000000000000000000000000000000000000100002734506700CARLOS HENRIQUE ARAUJO                  RUA: MARQUES CANARIO                    NOSSA SENHOR26520770NILOPOLIS      RJUNIAO UMB DOS CULTOS AFRO BRAS    30101810 000017
10231987175000168817800093673    000028857                    000288570000000000000109                     I0128857     30101800000000350003410000017N031018104700000000000103010180000000000000000000000000000000000000000100075453738715MARCIA REGINA DE MELLO SANTOS           RUA FRANCISCO FRAMBACK                  CASCATINHA  25620003PETROPOLIS     RJUNIAO UMB DOS CULTOS AFRO BRAS    30101810 000018
10231987175000168817800093673    000028856                    000288560000000000000109                     I0128856     15101800000000280003410000017N021018104700000000000101510180000000000000000000000000000000000000000100060471859753MARLENE IBRAIN                          RUA: DOUTOR ALVARO DA PAIXAO JR         PARQUE AEROP27971180MACAE          RJUNIAO UMB DOS CULTOS AFRO BRAS    15101810 000019
10231987175000168817800093673    000028855                    000288550000000000000109                     I0128855     30111800000000035003410000017N021018104700000000000103011180000000000000000000000000000000000000000100008030521707MONICA MIRANDA DE BARROS                RUA CATULO CEARENSE                     ENGENHO DE D00000000RIO DE JANEIRO RJUNIAO UMB DOS CULTOS AFRO BRAS    30111810 000020
10231987175000168817800093673    000028854                    000288540000000000000109                     I0128854     30101800000000035003410000017N021018104700000000000103010180000000000000000000000000000000000000000100008030521707MONICA MIRANDA DE BARROS                RUA CATULO CEARENSE                     ENGENHO DE D00000000RIO DE JANEIRO RJUNIAO UMB DOS CULTOS AFRO BRAS    30101810 000021
10231987175000168817800093673    000028853                    000288530000000000000109                     I0128853     30111800000000040003410000017N021018104700000000000103011180000000000000000000000000000000000000000100025891693704EDSON DA SILVA ALVES                    RUA: JOAO MACIEIRA                      MADUREIRA   21310090RIO DE JANEIRO RJUNIAO UMB DOS CULTOS AFRO BRAS    30111810 000022
10231987175000168817800093673    000028852                    000288520000000000000109                     I0128852     30101800000000040003410000017N021018104700000000000103010180000000000000000000000000000000000000000100025891693704EDSON DA SILVA ALVES                    RUA: JOAO MACIEIRA                      MADUREIRA   21310090RIO DE JANEIRO RJUNIAO UMB DOS CULTOS AFRO BRAS    30101810 000023
10231987175000168817800093673    000028851                    000288510000000000000109                     I0128851     20101800000000105003410000017N021018104700000000000102010180000000000000000000000000000000000000000100007000973765SILVIA DAS GRACAS SANTANA               RUA NELIO CHAMBARELLI                   JARDIM SAO M26313040QUEIMADOS      RJUNIAO UMB DOS CULTOS AFRO BRAS    20101810 000024
10231987175000168817800093673    000028850                    000288500000000000000109                     I0128850     20101800000000175003410000017N021018104700000000000102010180000000000000000000000000000000000000000100007000973765SILVIA DAS GRACAS SANTANA               RUA NELIO CHAMBARELLI                   JARDIM SAO M26313040QUEIMADOS      RJUNIAO UMB DOS CULTOS AFRO BRAS    20101810 000025
10231987175000168817800093673    000028849                    000288490000000000000109                     I0128849     20101800000000280003410000017N021018104700000000000102010180000000000000000000000000000000000000000100001413305709LUCIO MAURO DE AQUINO BARBOSA           RUA FAIA                                ROCHA MIRAND26032835RIO DE JANEIRO RJUNIAO UMB DOS CULTOS AFRO BRAS    20101810 000026
10231987175000168817800093673    000028848                    000288480000000000000109                     I0128848     10101800000000210003410000017N021018104700000000000101010180000000000000000000000000000000000000000100001413305709LUCIO MAURO DE AQUINO BARBOSA           RUA FAIA                                ROCHA MIRAND26032835RIO DE JANEIRO RJUNIAO UMB DOS CULTOS AFRO BRAS    10101810 000027
10231987175000168817800093673    000028847                    000288470000000000000109                     I0128847     30111800000000040003410000017N021018104700000000000103011180000000000000000000000000000000000000000100002101171767HELENA DE JESUS                         RUA JOAO ROMEIRO                        CASCADURA   21311000RIO DE JANEIRO RJUNIAO UMB DOS CULTOS AFRO BRAS    30111810 000028
10231987175000168817800093673    000028846                    000288460000000000000109                     I3428846     31101800000000040003410000017N021018104700000000000103110180000000000000000000000000000000000000000100002101171767HELENA DE JESUS                         RUA JOAO ROMEIRO                        CASCADURA   21311000RIO DE JANEIRO RJUNIAO UMB DOS CULTOS AFRO BRAS    31101810 000029
10231987175000168817800093673    000028845                    000288450000000000000109                     I0128845     10101800000000070003410000017N021018104700000000000101010180000000000000000000000000000000000000000100011297806786THIAGO PEREIRA DE BRITO                 RUA DAS FLORES                          PENEDO      24800000NITEROI        RJUNIAO UMB DOS CULTOS AFRO BRAS    10101810 000030
10231987175000168817800093673    000028844                    000288440000000000000109                     I0128844     20121800000000035003410000017N021018104700000000000102012180000000000000000000000000000000000000000100008158166776CRISTIANE DE ALMEIDA DA ROCHA           RUA JOANA RESENDE                       MADUREIRA   21360430RIO DE JANEIRO RJUNIAO UMB DOS CULTOS AFRO BRAS    20121810 000031
10231987175000168817800093673    000028501                    000285010000000000000109                     I0228501     24081800000000400003410000017N210818104700000000000102408180000000000000000000000000000000000000000100010368667774SUZANA PEREIRA MOIZINHO                 RUA CONCEICAO DA PEDRA                  ARNALDO EUGE23016330CAMPO GRANDE   RJUNIAO UMB DOS CULTOS AFRO BRAS    24081810 000032
10231987175000168817800093673    000027865                    000278650000000000000109                     I0227865     30111800000000035003410000017N200818104700000000000103011180000000000000000000000000000000000000000100083904069772MARCIA MARIA DUARTE MILANEZ VI          RUA DO FRAGOSO                          GUARATIBA   23032280RIO DE JANEIRO RJUNIAO UMB DOS CULTOS AFRO BRAS    30111810 000033
10231987175000168817800093673    000027832                    000278320000000000000109                     I0227832     30111800000000035003410000017N200818104700000000000103011180000000000000000000000000000000000000000100083469559791ALEXANDRE DA SILVA SOUZA                RUA AFONSO RIBEIRO                      PENHA       21031700RIO DE JANEIRO RJUNIAO UMB DOS CULTOS AFRO BRAS    30111810 000034
10231987175000168817800093673    000027827                    000278270000000000000109                     I0227827     30111800000000035003410000017N200818104700000000000103011180000000000000000000000000000000000000000100059841672715MONICA TARDELLE                         RUA: EUBANQUE                           ENGENHO DA R20766600RIO DE JANEIRO RJUNIAO UMB DOS CULTOS AFRO BRAS    30111810 000035
10231987175000168817800093673    000027684                    000276840000000000000109                     I0227684     30111800000000035003410000017N200818104700000000000103011180000000000000000000000000000000000000000100003351716729WAGNER CONCEICAO DO NASCIMENTO          RUA CRISANTEMOS, 152 CASA 48 FRENTE - SAHITERLAND - 26171430BELFORD ROXO   RJUNIAO UMB DOS CULTOS AFRO BRAS    30111810 000036
10231987175000168817800093673    000027611                    000276110000000000000109                     I3427611     30111800000000035003410000017N200818104700000000000103011180000000000000000000000000000000000000000100000308305752MAGDA DA SILVA DINELLY                  ESTRADA DO CASOROTIBA, RUA G N 768 (CONDINOA        24900000RIO DE JANEIRO RJUNIAO UMB DOS CULTOS AFRO BRAS    30111810 000037
10231987175000168817800093673    000027309                    000273090000000000000109                     I0227309     30111800000000040003410000017N200818104700000000000103011180000000000000000000000000000000000000000100033223190759CELIA DA CONCEICAO RIBEIRO              RUA GENERAL JOSE FAUSTINO               REALENGO    21721050RIO DE JANEIRO RJUNIAO UMB DOS CULTOS AFRO BRAS    30111810 000038
10231987175000168817800093673    000026960                    000269600000000000000109                     I3426960     30091800000000035003410000017N200818104700000000000103009180000000000000000000000000000000000000000100010718180747JOSE CARLOS MELO DA SILVA               RUA DEPUTADO SA REGO                    VILA SAO LUI25065030DUQUE DE CAXIASRJUNIAO UMB DOS CULTOS AFRO BRAS    30091810 000039
10231987175000168817800093673    000026643                    000266430000000000000109                     I3426643     30091800000000035003410000017N200818104700000000000103009180000000000000000000000000000000000000000100003360087755ELIENE GONCALVES JACINTO                RUA ALMIRANTE CROCHEME                  PARADA MORAB25010695DUQUE DE CAXIASRJUNIAO UMB DOS CULTOS AFRO BRAS    30091810 000040
10231987175000168817800093673    000026449                    000264490000000000000109                     I3426449     30091800000000035003410000017N200818104700000000000103009180000000000000000000000000000000000000000100091156386772MARILENE PEREIRA DOS SANTOS CO          ESTRADA DO PORTELA                      TURIACU     21351050RIO DE JANEIRO RJUNIAO UMB DOS CULTOS AFRO BRAS    30091810 000041
10231987175000168817800093673    000026446                    000264460000000000000109                     I0226446     30091800000000035003410000017N200818104700000000000103009180000000000000000000000000000000000000000100083904069772MARCIA MARIA DUARTE MILANEZ VI          RUA DO FRAGOSO                          GUARATIBA   23032280RIO DE JANEIRO RJUNIAO UMB DOS CULTOS AFRO BRAS    30091810 000042
10231987175000168817800093673    000026413                    000264130000000000000109                     I0226413     30091800000000035003410000017N200818104700000000000103009180000000000000000000000000000000000000000100083469559791ALEXANDRE DA SILVA SOUZA                RUA AFONSO RIBEIRO                      PENHA       21031700RIO DE JANEIRO RJUNIAO UMB DOS CULTOS AFRO BRAS    30091810 000043
10231987175000168817800093673    000026408                    000264080000000000000109                     I0226408     30091800000000035003410000017N200818104700000000000103009180000000000000000000000000000000000000000100059841672715MONICA TARDELLE                         RUA: EUBANQUE                           ENGENHO DA R20766600RIO DE JANEIRO RJUNIAO UMB DOS CULTOS AFRO BRAS    30091810 000044
10231987175000168817800093673    000026329                    000263290000000000000109                     I0226329     30091800000000035003410000017N200818104700000000000103009180000000000000000000000000000000000000000100011297806786THIAGO PEREIRA DE BRITO                 RUA DAS FLORES                          PENEDO      24800000NITEROI        RJUNIAO UMB DOS CULTOS AFRO BRAS    30091810 000045
10231987175000168817800093673    000026281                    000262810000000000000109                     I3426281     30091800000000035003410000017N200818104700000000000103009180000000000000000000000000000000000000000100083679472749SILVIA REGINA DE SOUZA BAPTIST          RUA  LAFAIETE JOSE MEDINA, 2            CHAPEU MANGU22010020RIO DE JANEIRO RJUNIAO UMB DOS CULTOS AFRO BRAS    30091810 000046
10231987175000168817800093673    000026271                    000262710000000000000109                     I3426271     30091800000000035003410000017N200818104700000000000103009180000000000000000000000000000000000000000200000000010260MARA LUCIA CANDIDO RAMOS                RUA NOSSA SENHORA DA PENHA, CASA 7 B    MANGUEIRAL -21755140RIO DE JANEIRO RJUNIAO UMB DOS CULTOS AFRO BRAS    30091810 000047
10231987175000168817800093673    000026266                    000262660000000000000109                     I0226266     30091800000000035003410000017N200818104700000000000103009180000000000000000000000000000000000000000100003351716729WAGNER CONCEICAO DO NASCIMENTO          RUA CRISANTEMOS, 152 CASA 48 FRENTE - SAHITERLAND - 26171430BELFORD ROXO   RJUNIAO UMB DOS CULTOS AFRO BRAS    30091810 000048
10231987175000168817800093673    000026218                    000262180000000000000109                     I3426218     30091800000000035003410000017N200818104700000000000103009180000000000000000000000000000000000000000100007609502707WALDENILSON DUARTE DOS SANTOS           RUA ITABAIANA 93 FDS QD 113 LT 19       CABUCU - NOV26355500RIO DE JANEIRO RJUNIAO UMB DOS CULTOS AFRO BRAS    30091810 000049
10231987175000168817800093673    000026193                    000261930000000000000109                     I0226193     30091800000000035003410000017N200818104700000000000103009180000000000000000000000000000000000000000100000308305752MAGDA DA SILVA DINELLY                  ESTRADA DO CASOROTIBA, RUA G N 768 (CONDINOA        24900000RIO DE JANEIRO RJUNIAO UMB DOS CULTOS AFRO BRAS    30091810 000050
10231987175000168817800093673    000026142                    000261420000000000000109                     I3426142     30091800000000035003410000017N200818104700000000000103009180000000000000000000000000000000000000000100043194869787JORGE PINHEIRO DE ALMEIDA               RUA CERQUEIRA CESAR                     MADUREIRA   21351070RIO DE JANEIRO RJUNIAO UMB DOS CULTOS AFRO BRAS    30091810 000051
10231987175000168817800093673    000026039                    000260390000000000000109                     I3426039     30091800000000035003410000017N200818104700000000000103009180000000000000000000000000000000000000000100088677079734MARIA APARECIDA MORAIS DOS SAN          RUA OLAVO GAMA                          CAMPO GRANDE23040400SEROPEDICA     RJUNIAO UMB DOS CULTOS AFRO BRAS    30091810 000052
10231987175000168817800093673    000025926                    000259260000000000000109                     I0225926     30091800000000035003410000017N200818104700000000000103009180000000000000000000000000000000000000000100079006980753ELIANE BARBOSA RODRIGUES                AVENIDA PASTEUR                         PARQUE ALIAN25550210SAO JOAO DE MERRJUNIAO UMB DOS CULTOS AFRO BRAS    30091810 000053
10231987175000168817800093673    000025893                    000258930000000000000109                     I0225893     30091800000000040003410000017N200818104700000000000103009180000000000000000000000000000000000000000100033223190759CELIA DA CONCEICAO RIBEIRO              RUA GENERAL JOSE FAUSTINO               REALENGO    21721050RIO DE JANEIRO RJUNIAO UMB DOS CULTOS AFRO BRAS    30091810 000054
10231987175000168817800093673    000025859                    000258590000000000000109                     I3425859     30091800000000040003410000017N200818104700000000000103009180000000000000000000000000000000000000000100007830594775EMERSON MODESTO SIQUEIRA                RUA MESQUITA                            REALENGO    21721210RIO DE JANEIRO RJUNIAO UMB DOS CULTOS AFRO BRAS    30091810 000055
10231987175000168817800093673    000025688                    000256880000000000000109                     I3425688     30091800000000035003410000017N200818104700000000000103009180000000000000000000000000000000000000000100048685917700CELIO DO NASCIMENTO                     RUA BORORO                              ENGENHO DA R20766570RIO DE JANEIRO RJUNIAO UMB DOS CULTOS AFRO BRAS    30091810 000056
10231987175000168817800093673    000025028                    000250280000000000000109                     I0225028     30101800000000035003410000017N200818104700000000000103010180000000000000000000000000000000000000000100083904069772MARCIA MARIA DUARTE MILANEZ VI          RUA DO FRAGOSO                          GUARATIBA   23032280RIO DE JANEIRO RJUNIAO UMB DOS CULTOS AFRO BRAS    30101810 000057
10231987175000168817800093673    000024995                    000249950000000000000109                     I0224995     30101800000000035003410000017N200818104700000000000103010180000000000000000000000000000000000000000100083469559791ALEXANDRE DA SILVA SOUZA                RUA AFONSO RIBEIRO                      PENHA       21031700RIO DE JANEIRO RJUNIAO UMB DOS CULTOS AFRO BRAS    30101810 000058
10231987175000168817800093673    000024990                    000249900000000000000109                     I0224990     30101800000000035003410000017N200818104700000000000103010180000000000000000000000000000000000000000100059841672715MONICA TARDELLE                         RUA: EUBANQUE                           ENGENHO DA R20766600RIO DE JANEIRO RJUNIAO UMB DOS CULTOS AFRO BRAS    30101810 000059
10231987175000168817800093673    000024862                    000248620000000000000109                     I3424862     30101800000000035003410000017N200818104700000000000103010180000000000000000000000000000000000000000100083679472749SILVIA REGINA DE SOUZA BAPTIST          RUA  LAFAIETE JOSE MEDINA, 2            CHAPEU MANGU22010020RIO DE JANEIRO RJUNIAO UMB DOS CULTOS AFRO BRAS    30101810 000060
10231987175000168817800093673    000024847                    000248470000000000000109                     I0224847     30101800000000035003410000017N200818104700000000000103010180000000000000000000000000000000000000000100003351716729WAGNER CONCEICAO DO NASCIMENTO          RUA CRISANTEMOS, 152 CASA 48 FRENTE - SAHITERLAND - 26171430BELFORD ROXO   RJUNIAO UMB DOS CULTOS AFRO BRAS    30101810 000061
10231987175000168817800093673    000024825                    000248250000000000000109                     I3424825     30101800000000035003410000017N200818104700000000000103010180000000000000000000000000000000000000000100004462221788ALEXSANDRO JULIO DE SOUZA               RUA CORURIPE                            MARECHAL HER21555490RIO DE JANEIRO RJUNIAO UMB DOS CULTOS AFRO BRAS    30101810 000062
10231987175000168817800093673    000024774                    000247740000000000000109                     I3424774     30101800000000035003410000017N200818104700000000000103010180000000000000000000000000000000000000000100000308305752MAGDA DA SILVA DINELLY                  ESTRADA DO CASOROTIBA, RUA G N 768 (CONDINOA        24900000RIO DE JANEIRO RJUNIAO UMB DOS CULTOS AFRO BRAS    30101810 000063
10231987175000168817800093673    000024474                    000244740000000000000109                     I0224474     30101800000000040003410000017N200818104700000000000103010180000000000000000000000000000000000000000100033223190759CELIA DA CONCEICAO RIBEIRO              RUA GENERAL JOSE FAUSTINO               REALENGO    21721050RIO DE JANEIRO RJUNIAO UMB DOS CULTOS AFRO BRAS    30101810 000064
10231987175000168817800093673    000021403                    000214030000000000000109                     I0221403     20081800000000455003410000017N170818104700000000000102008180000000000000000000000000000000000000000100004419977752GISELE DE CASTILHO SOARES               RUA ARTHUR MAGALHAES                    COMENDADOR S26276605NOVA IGUACU    RJUNIAO UMB DOS CULTOS AFRO BRAS    20081810 000065
10231987175000168817800093673    000021374                    000213740000000000000109                     I0221374     20081800000000700003410000017N070818104700000000000102008180000000000000000000000000000000000000000100000000011915LUIS CARLOS FARIAS DUARTE               O MESMO                                 O MESMO     23070430RIO DE JANEIRO RJUNIAO UMB DOS CULTOS AFRO BRAS    20081810 000066
10231987175000168817800093673    000021332                    000213320000000000000109                     I0221332     20081800000000280003410000017N290718104700000000000102008180000000000000000000000000000000000000000100006935690773ELAINE DA COSTA MARTINS                 O MESMO                                 O MESMO     25220407DUQUE DE CAXIASRJUNIAO UMB DOS CULTOS AFRO BRAS    20081810 000067
9                                                                                                                                                                                                                                                                                                                                                                                                         000068
