01REMESSA01COBRANCA       916200163100        União Umb dos Cultos Afro Bra341BANCO ITAU SA  120219                                                                                                                                                                                                                                                                                                      000001
10231987175000168916200163100    000039773                    000397730000000000000109                     I0139773     28021900000000400003410000017N110219104700000000000102802190000000000000000000000000000000000000000100002167919794ANDERSON CLEI BRANDAO TEIXEIRA          ESTRADA DO CANTAGALON 595, A            CAMPO GRANDE23036440RIO DE JANEIRO RJUNIAO UMB DOS CULTOS AFRO BRAS    28021910 000002
10231987175000168916200163100    000039772                    000397720000000000000109                     I0139772     29031900000000040003410000017N110219104700000000000102903190000000000000000000000000000000000000000100060208287515MARCONE DE AZEVEDO MAIA                 RUA MANOEL NOVAZN 0, LOTE 7 QUADRA 32   MIMOSO 2    47850000LUIS EDUARDO MABAUNIAO UMB DOS CULTOS AFRO BRAS    29031910 000003
10231987175000168916200163100    000039771                    000397710000000000000109                     I0139771     28021900000000040003410000017N110219104700000000000102802190000000000000000000000000000000000000000100060208287515MARCONE DE AZEVEDO MAIA                 RUA MANOEL NOVAZN 0, LOTE 7 QUADRA 32   MIMOSO 2    47850000LUIS EDUARDO MABAUNIAO UMB DOS CULTOS AFRO BRAS    28021910 000004
10231987175000168916200163100    000039770                    000397700000000000000109                     I0139770     28021900000000040003410000017N110219104700000000000102802190000000000000000000000000000000000000000100060208287515MARCONE DE AZEVEDO MAIA                 RUA MANOEL NOVAZN 0, LOTE 7 QUADRA 32   MIMOSO 2    47850000LUIS EDUARDO MABAUNIAO UMB DOS CULTOS AFRO BRAS    28021910 000005
10231987175000168916200163100    000039769                    000397690000000000000109                     I0139769     28021900000000300003410000017N110219104700000000000102802190000000000000000000000000000000000000000100060208287515MARCONE DE AZEVEDO MAIA                 RUA MANOEL NOVAZN 0, LOTE 7 QUADRA 32   MIMOSO 2    47850000LUIS EDUARDO MABAUNIAO UMB DOS CULTOS AFRO BRAS    28021910 000006
10231987175000168916200163100    000039768                    000397680000000000000109                     I0139768     29031900000000040003410000017N110219104700000000000102903190000000000000000000000000000000000000000100001873460708ERIKA FERNANDES PINTO                   RUA SAO CARLOSN 347,                    ESTACIO     20250052RIO DE JANEIRO RJUNIAO UMB DOS CULTOS AFRO BRAS    29031910 000007
10231987175000168916200163100    000039767                    000397670000000000000109                     I0139767     28021900000000040003410000017N110219104700000000000102802190000000000000000000000000000000000000000100001873460708ERIKA FERNANDES PINTO                   RUA SAO CARLOSN 347,                    ESTACIO     20250052RIO DE JANEIRO RJUNIAO UMB DOS CULTOS AFRO BRAS    28021910 000008
10231987175000168916200163100    000039702                    000397020000000000000109                     I0239702     07021900000000040003410000017N010219104700000000000100702190000000000000000000000000000000000000000100003134182769SANDRA HELENA DA SILVA                  RUA MARIA MACHADO PANZAN 15,            PACHECO     24732200SAO GONCALO    RJUNIAO UMB DOS CULTOS AFRO BRAS    07021910 000009
10231987175000168916200163100    000039691                    000396910000000000000109                     I0239691     15021900000000350003410000017N310119104700000000000101502190000000000000000000000000000000000000000100045544085749LUCIANO PORTO DE MORAES                 RUA: OLIMPIO DE CARVALHON 120,          AMENDOEIRA  24732440SAO GONCALO    RJUNIAO UMB DOS CULTOS AFRO BRAS    15021910 000010
9                                                                                                                                                                                                                                                                                                                                                                                                         000011
