01REMESSA01COBRANCA       817800093673        União Umb dos Cultos Afro Bra341BANCO ITAU SA  170719                                                                                                                                                                                                                                                                                                      000001
10231987175000168817800093673    000049643                    000496430000000000000109                     I0249643     30091900000000040003410000017N100619105700000000000133009190000000000000000000000000000000000000000100089300190725NAGE MARGARETE DE OLIVEIRA              AVENIDA SILVEIRA MARTINSN 267,          PARQUE LAFAI25015510DUQUE DE CAXIASRJUNIAO UMB DOS CULTOS AFRO BRAS    30091915 000002
21300920190000000000080                                                                                                                                                                                                                                                                                                                                                                                   000003
10231987175000168817800093673    000049339                    000493390000000000000109                     I0249339     30091900000000040003410000017N100619105700000000000133009190000000000000000000000000000000000000000100005828675761THAYS DE FATIMA FERREIRA GOMES          ESTRADA GENERAL AFONSO DE CARVALHON 989,PADRE MIGUEL21725020RIO DE JANEIRO RJUNIAO UMB DOS CULTOS AFRO BRAS    30091915 000004
21300920190000000000080                                                                                                                                                                                                                                                                                                                                                                                   000005
10231987175000168817800093673    000048982                    000489820000000000000109                     I0248982     30091900000000040003410000017N100619105700000000000133009190000000000000000000000000000000000000000100007657167718HERONICE BAUNAZ                         RUA COARACI GENTIL NUNESN 83, A         GUARATIBA   23032180RIO DE JANEIRO RJUNIAO UMB DOS CULTOS AFRO BRAS    30091915 000006
21300920190000000000080                                                                                                                                                                                                                                                                                                                                                                                   000007
10231987175000168817800093673    000048862                    000488620000000000000109                     I0248862     30091900000000040003410000017N100619105700000000000133009190000000000000000000000000000000000000000100002673106766JANAINA MARQUES ALVES SANTOS T          RUA DOS RUBISN 519, A SOBRADO           ROCHA MIRAND21510012RIO DE JANEIRO RJUNIAO UMB DOS CULTOS AFRO BRAS    30091915 000008
21300920190000000000080                                                                                                                                                                                                                                                                                                                                                                                   000009
10231987175000168817800093673    000048196                    000481960000000000000109                     I0248196     30081900000000040003410000017N100619105700000000000133008190000000000000000000000000000000000000000100089300190725NAGE MARGARETE DE OLIVEIRA              AVENIDA SILVEIRA MARTINSN 267,          PARQUE LAFAI25015510DUQUE DE CAXIASRJUNIAO UMB DOS CULTOS AFRO BRAS    30081915 000010
21300820190000000000080                                                                                                                                                                                                                                                                                                                                                                                   000011
10231987175000168817800093673    000047895                    000478950000000000000109                     I0247895     30081900000000040003410000017N100619105700000000000133008190000000000000000000000000000000000000000100005828675761THAYS DE FATIMA FERREIRA GOMES          ESTRADA GENERAL AFONSO DE CARVALHON 989,PADRE MIGUEL21725020RIO DE JANEIRO RJUNIAO UMB DOS CULTOS AFRO BRAS    30081915 000012
21300820190000000000080                                                                                                                                                                                                                                                                                                                                                                                   000013
10231987175000168817800093673    000047869                    000478690000000000000109                     I0247869     30081900000000040003410000017N100619105700000000000133008190000000000000000000000000000000000000000100062988050791REGINA LUCIA DE SOUZA SANTOS            RUA ENGENHEIRO LAFAYETE STOCKLER N 742, VILA DA PENH21221390RIO DE JANEIRO RJUNIAO UMB DOS CULTOS AFRO BRAS    30081915 000014
21300820190000000000080                                                                                                                                                                                                                                                                                                                                                                                   000015
10231987175000168817800093673    000047543                    000475430000000000000109                     I0247543     30081900000000040003410000017N100619105700000000000133008190000000000000000000000000000000000000000100007657167718HERONICE BAUNAZ                         RUA COARACI GENTIL NUNESN 83, A         GUARATIBA   23032180RIO DE JANEIRO RJUNIAO UMB DOS CULTOS AFRO BRAS    30081915 000016
21300820190000000000080                                                                                                                                                                                                                                                                                                                                                                                   000017
10231987175000168817800093673    000047465                    000474650000000000000109                     I0247465     30081900000000040003410000017N100619105700000000000133008190000000000000000000000000000000000000000100053387473753ALAN PINTO DE OLIVEIRA                  RUA FRANCISCO FRAGOSON 46, FRENTE       ENCANTADO   20745010RIO DE JANEIRO RJUNIAO UMB DOS CULTOS AFRO BRAS    30081915 000018
21300820190000000000080                                                                                                                                                                                                                                                                                                                                                                                   000019
10231987175000168817800093673    000047423                    000474230000000000000109                     I0247423     30081900000000040003410000017N100619105700000000000133008190000000000000000000000000000000000000000100002673106766JANAINA MARQUES ALVES SANTOS T          RUA DOS RUBISN 519, A SOBRADO           ROCHA MIRAND21510012RIO DE JANEIRO RJUNIAO UMB DOS CULTOS AFRO BRAS    30081915 000020
21300820190000000000080                                                                                                                                                                                                                                                                                                                                                                                   000021
10231987175000168817800093673    000047045                    000470450000000000000109                     I3447045     30081900000000040003410000017N100619105700000000000133008190000000000000000000000000000000000000000207280383000148CANTINHO DA VOVO MARIA CONGA D          RUA SARGENTO MARQUETIN 5,               MARECHAL HER21611000RIO DE JANEIRO RJUNIAO UMB DOS CULTOS AFRO BRAS    30081915 000022
21300820190000000000080                                                                                                                                                                                                                                                                                                                                                                                   000023
10231987175000168817800093673    000046761                    000467610000000000000109                     I0246761     30071900000000040003410000017N100619105700000000000133007190000000000000000000000000000000000000000100089300190725NAGE MARGARETE DE OLIVEIRA              AVENIDA SILVEIRA MARTINSN 267,          PARQUE LAFAI25015510DUQUE DE CAXIASRJUNIAO UMB DOS CULTOS AFRO BRAS    30071915 000024
21300720190000000000080                                                                                                                                                                                                                                                                                                                                                                                   000025
10231987175000168817800093673    000046462                    000464620000000000000109                     I0246462     30071900000000040003410000017N100619105700000000000133007190000000000000000000000000000000000000000100005828675761THAYS DE FATIMA FERREIRA GOMES          ESTRADA GENERAL AFONSO DE CARVALHON 989,PADRE MIGUEL21725020RIO DE JANEIRO RJUNIAO UMB DOS CULTOS AFRO BRAS    30071915 000026
21300720190000000000080                                                                                                                                                                                                                                                                                                                                                                                   000027
10231987175000168817800093673    000046436                    000464360000000000000109                     I0246436     30071900000000040003410000017N100619105700000000000133007190000000000000000000000000000000000000000100062988050791REGINA LUCIA DE SOUZA SANTOS            RUA ENGENHEIRO LAFAYETE STOCKLER N 742, VILA DA PENH21221390RIO DE JANEIRO RJUNIAO UMB DOS CULTOS AFRO BRAS    30071915 000028
21300720190000000000080                                                                                                                                                                                                                                                                                                                                                                                   000029
10231987175000168817800093673    000046429                    000464290000000000000109                     I0246429     30071900000000040003410000017N100619105700000000000133007190000000000000000000000000000000000000000100001010828789JUSSARA DA SILVA GONCALVES DAM          RUA: TRINTA E TRES N 0, LOTE 219        NOVA CIDADE 24804185ITABORAI       RJUNIAO UMB DOS CULTOS AFRO BRAS    30071915 000030
21300720190000000000080                                                                                                                                                                                                                                                                                                                                                                                   000031
10231987175000168817800093673    000046114                    000461140000000000000109                     I0246114     30071900000000040003410000017N100619105700000000000133007190000000000000000000000000000000000000000100007657167718HERONICE BAUNAZ                         RUA COARACI GENTIL NUNESN 83, A         GUARATIBA   23032180RIO DE JANEIRO RJUNIAO UMB DOS CULTOS AFRO BRAS    30071915 000032
21300720190000000000080                                                                                                                                                                                                                                                                                                                                                                                   000033
10231987175000168817800093673    000046036                    000460360000000000000109                     I0246036     30071900000000040003410000017N100619105700000000000133007190000000000000000000000000000000000000000100053387473753ALAN PINTO DE OLIVEIRA                  RUA FRANCISCO FRAGOSON 46, FRENTE       ENCANTADO   20745010RIO DE JANEIRO RJUNIAO UMB DOS CULTOS AFRO BRAS    30071915 000034
21300720190000000000080                                                                                                                                                                                                                                                                                                                                                                                   000035
10231987175000168817800093673    000045994                    000459940000000000000109                     I0245994     30071900000000040003410000017N100619105700000000000133007190000000000000000000000000000000000000000100002673106766JANAINA MARQUES ALVES SANTOS T          RUA DOS RUBISN 519, A SOBRADO           ROCHA MIRAND21510012RIO DE JANEIRO RJUNIAO UMB DOS CULTOS AFRO BRAS    30071915 000036
21300720190000000000080                                                                                                                                                                                                                                                                                                                                                                                   000037
10231987175000168817800093673    000045623                    000456230000000000000109                     I3445623     30071900000000040003410000017N100619105700000000000133007190000000000000000000000000000000000000000207280383000148CANTINHO DA VOVO MARIA CONGA D          RUA SARGENTO MARQUETIN 5,               MARECHAL HER21611000RIO DE JANEIRO RJUNIAO UMB DOS CULTOS AFRO BRAS    30071915 000038
21300720190000000000080                                                                                                                                                                                                                                                                                                                                                                                   000039
10231987175000168817800093673    000045343                    000453430000000000000109                     I0245343     10061900000000150003410000017N030619105700000000000501006190000000000000000000000000000000000000000100053387473753ALAN PINTO DE OLIVEIRA                  RUA FRANCISCO FRAGOSON 46, FRENTE       ENCANTADO   20745010RIO DE JANEIRO RJUNIAO UMB DOS CULTOS AFRO BRAS    10061915 000040
21100620190000000000300                                                                                                                                                                                                                                                                                                                                                                                   000041
9                                                                                                                                                                                                                                                                                                                                                                                                         000042
