01REMESSA01COBRANCA       916200163100        União Umb dos Cultos Afro Bra341BANCO ITAU SA  180719                                                                                                                                                                                                                                                                                                      000001
10231987175000168916200163100    000049938                    000499380000000000000109                     I0149938     30091900000000040003410000017N180719105700000000000133009190000000000000000000000000000000000000000100009701830709ADRIANO ALVES BEZERRA                   AVENIDA DO CONTORNON 0, LOTE 12 QUADRA 3PARADA MORAB25265340DUQUE DE CAXIASRJUNIAO UMB DOS CULTOS AFRO BRAS    30091915 000002
21300920190000000000080                                                                                                                                                                                                                                                                                                                                                                                   000003
10231987175000168916200163100    000049937                    000499370000000000000109                     I0149937     30081900000000040003410000017N180719105700000000000133008190000000000000000000000000000000000000000100009701830709ADRIANO ALVES BEZERRA                   AVENIDA DO CONTORNON 0, LOTE 12 QUADRA 3PARADA MORAB25265340DUQUE DE CAXIASRJUNIAO UMB DOS CULTOS AFRO BRAS    30081915 000004
21300820190000000000080                                                                                                                                                                                                                                                                                                                                                                                   000005
10231987175000168916200163100    000049936                    000499360000000000000109                     I0149936     30091900000000040003410000017N180719105700000000000133009190000000000000000000000000000000000000000100003797479875GERSONITA ANTONIA DE LIMA CARD          RUA MOZERN 31,                          JARDIM CORUM26041295NOVA IGUACU    RJUNIAO UMB DOS CULTOS AFRO BRAS    30091915 000006
21300920190000000000080                                                                                                                                                                                                                                                                                                                                                                                   000007
10231987175000168916200163100    000049935                    000499350000000000000109                     I0149935     30081900000000040003410000017N180719105700000000000133008190000000000000000000000000000000000000000100003797479875GERSONITA ANTONIA DE LIMA CARD          RUA MOZERN 31,                          JARDIM CORUM26041295NOVA IGUACU    RJUNIAO UMB DOS CULTOS AFRO BRAS    30081915 000008
21300820190000000000080                                                                                                                                                                                                                                                                                                                                                                                   000009
10231987175000168916200163100    000043381                    000433810000000000000109                     I0243381     30061900000000040003410000017N130319105700000000000133006190000000000000000000000000000000000000000100003029004708ANDREA GUIMARAES MARTINS                RUA ANA CRISTINAN 31,                   VILA GUIMARA26088170NOVA IGUACU    RJUNIAO UMB DOS CULTOS AFRO BRAS    30061915 000010
21300620190000000000080                                                                                                                                                                                                                                                                                                                                                                                   000011
10231987175000168916200163100    000041739                    000417390000000000000109                     I0241739     30051900000000040003410000017N130319105700000000000133005190000000000000000000000000000000000000000100003029004708ANDREA GUIMARAES MARTINS                RUA ANA CRISTINAN 31,                   VILA GUIMARA26088170NOVA IGUACU    RJUNIAO UMB DOS CULTOS AFRO BRAS    30051915 000012
21300520190000000000080                                                                                                                                                                                                                                                                                                                                                                                   000013
9                                                                                                                                                                                                                                                                                                                                                                                                         000014
