01REMESSA01COBRANCA       817800093673        União Umb dos Cultos Afro Bra341BANCO ITAU SA  250118                                                                                                                                                                                                                                                                                                      000001
10231987175000168817800093673    00006456                     000064560000000000000109                     I026456      28021800000000035003410000017N271217104700000000000102802180000000000000000000000000000000000000000100008016237746RAFAEL GRACA PEREIRA                    ESTRADA DA COVANCA, 360 CASA            TANQUE - JAC22735020RIO DE JANEIRO RJUNIAO UMB DOS CULTOS AFRO BRAS    28021810 000002
10231987175000168817800093673    00006380                     000063800000000000000109                     I026380      28021800000000035003410000017N271217104700000000000102802180000000000000000000000000000000000000000100055720277749MARIA DE FATIMA PEREIRA                 RUA CORONEL SEROA DA MOTA, 145          SEPETIBA    23535040RIO DE JANEIRO RJUNIAO UMB DOS CULTOS AFRO BRAS    28021810 000003
10231987175000168817800093673    00005206                     000052060000000000000109                     I025206      31011800000000035003410000017N261217104700000000000103101180000000000000000000000000000000000000000100008016237746RAFAEL GRACA PEREIRA                    ESTRADA DA COVANCA, 360 CASA            TANQUE - JAC22735020RIO DE JANEIRO RJUNIAO UMB DOS CULTOS AFRO BRAS    31011810 000004
10231987175000168817800093673    00005130                     000051300000000000000109                     I025130      31011800000000035003410000017N261217104700000000000103101180000000000000000000000000000000000000000100055720277749MARIA DE FATIMA PEREIRA                 RUA CORONEL SEROA DA MOTA, 145          SEPETIBA    23535040RIO DE JANEIRO RJUNIAO UMB DOS CULTOS AFRO BRAS    31011810 000005
10231987175000168817800093673    00001350                     000013500000000000000109                     I021350      20121700000000340003410000017N241017104700000000000102012170000000000000000000000000000000000000000100004256373799ALCIDES FRANCISCO DE ALBUQUERQ          AVENIDA: CALOMBE Nº 32 - CHACARAS RIO PDUQUE DE CAX25230050DUQUE DE CAXIASRJUNIAO UMB DOS CULTOS AFRO BRAS    20121710 000006
10231987175000168817800093673    00001118                     000011180000000000000109                     I021118      20121700000000350003410000017N241017104700000000000102012170000000000000000000000000000000000000000100076571122715MARLI MENDES DE OLIVEIRA                RUA CORUMBAIBA, 850 - PEDREGOSO         CAMPO GRANDE23095290RIO DE JANEIRO RJUNIAO UMB DOS CULTOS AFRO BRAS    20121710 000007
10231987175000168817800093673    0000847                      000008470000000000000109                     I02847       20121700000000340003410000017N171017104700000000000102012170000000000000000000000000000000000000000100001609402731LUCIANO RANGEL                          ESTRADA DOUTOR FARRULA, 52              HELIOPOLIS -26125400BELFORD ROXO   RJUNIAO UMB DOS CULTOS AFRO BRAS    20121710 000008
10231987175000168817800093673    0000320                      000003200000000000000109                     I02320       20121700000000300003410000017N101017104700000000000102012170000000000000000000000000000000000000000100000939178729ANA LUCIA LIMA DA SILVA                 RUA ESTADOS UNIDOS LT 20 E 21 QD 276    JD PARQUE ES26064300RIO DE JANEIRO RJUNIAO UMB DOS CULTOS AFRO BRAS    20121710 000009
9                                                                                                                                                                                                                                                                                                                                                                                                         000010
