01REMESSA01COBRANCA       817800093673        União Umb dos Cultos Afro Bra341BANCO ITAU SA  260219                                                                                                                                                                                                                                                                                                      000001
10231987175000168817800093673    000039069                    000390690000000000000109                     I0239069     30031900000000040003410000017N261218104700000000000103003190000000000000000000000000000000000000000100062988050791REGINA LUCIA DE SOUZA SANTOS            RUA ENGENHEIRO LAFAYETE STOCKLER N 742, VILA DA PENH21221390RIO DE JANEIRO RJUNIAO UMB DOS CULTOS AFRO BRAS    30031910 000002
10231987175000168817800093673    000038629                    000386290000000000000109                     I0238629     30031900000000040003410000017N261218104700000000000103003190000000000000000000000000000000000000000100002880433754ROSELANE DOS SANTOS ADAO MENDE          RUA CORREGO DANTAN 0, LOTE 26 QUADRA 22 PEDRA DE GUA23026500RIO DE JANEIRO RJUNIAO UMB DOS CULTOS AFRO BRAS    30031910 000003
10231987175000168817800093673    000038553                    000385530000000000000109                     I0238553     30031900000000040003410000017N261218104700000000000103003190000000000000000000000000000000000000000100008389266733BEATRIZ DE AZEVEDO NUNES                RUA: ABACAIN 55, CASA 5 FUNDOS          OSVALDO CRUZ21340380RIO DE JANEIRO RJUNIAO UMB DOS CULTOS AFRO BRAS    30031910 000004
10231987175000168817800093673    000038271                    000382710000000000000109                     I0238271     30031900000000040003410000017N261218104700000000000103003190000000000000000000000000000000000000000100060856467715JANAINA COELHO MELO                     RUA SANTO APIANO N 288, FUNDOS          IRAJA       21361420RIO DE JANEIRO RJUNIAO UMB DOS CULTOS AFRO BRAS    30031910 000005
10231987175000168817800093673    000037999                    000379990000000000000109                     I0237999     30031900000000040003410000017N261218104700000000000103003190000000000000000000000000000000000000000100081628811749MAURO JOSE DE AZEVEDO FALCAO            RUA: LEOPOLDO MACHADON 121,             BOA ESPERANC26130680NOVA IGUACU    RJUNIAO UMB DOS CULTOS AFRO BRAS    30031910 000006
10231987175000168817800093673    000037965                    000379650000000000000109                     I0237965     30031900000000040003410000017N261218104700000000000103003190000000000000000000000000000000000000000100018780962572INALVA LAZARO DRUMOND                   AVENIDA MARECHAL RONDONN 2117,          RIACHUELO   20950071RIO DE JANEIRO RJUNIAO UMB DOS CULTOS AFRO BRAS    30031910 000007
10231987175000168817800093673    000037846                    000378460000000000000109                     I0237846     30031900000000040003410000017N261218104700000000000103003190000000000000000000000000000000000000000220014025000151ILE ASE OBA ORUN                        RUA FLORIANO PINHEIRO DE CAMPOSN 2,     GUARATIBA   23032260RIO DE JANEIRO RJUNIAO UMB DOS CULTOS AFRO BRAS    30031910 000008
10231987175000168817800093673    000037194                    000371940000000000000109                     I0237194     28021900000000040003410000017N261218104700000000000102802190000000000000000000000000000000000000000100014520518792STEPHANI MATOS MONTEIRO                 ESTRADA DOUTOR PLINIO CASADO N 3599,    CENTRO      26130622BELFORD ROXO   RJUNIAO UMB DOS CULTOS AFRO BRAS    28021910 000009
10231987175000168817800093673    000037049                    000370490000000000000109                     I0237049     28021900000000045003410000017N261218104700000000000102802190000000000000000000000000000000000000000100007469638741TATIANA ANICETO DE LEMOS SIMOE          RUA REVERENCIA  N 86,                   CURICICA    22780580RIO DE JANEIRO RJUNIAO UMB DOS CULTOS AFRO BRAS    28021910 000010
10231987175000168817800093673    000036636                    000366360000000000000109                     I0236636     28021900000000040003410000017N261218104700000000000102802190000000000000000000000000000000000000000100008389266733BEATRIZ DE AZEVEDO NUNES                RUA: ABACAIN 55, CASA 5 FUNDOS          OSVALDO CRUZ21340380RIO DE JANEIRO RJUNIAO UMB DOS CULTOS AFRO BRAS    28021910 000011
10231987175000168817800093673    000036145                    000361450000000000000109                     I0236145     28021900000000040003410000017N261218104700000000000102802190000000000000000000000000000000000000000100062792920700LUIZ CESAR DE OLIVEIRA                  RUA PEREIRA DE FIGUEIREDON 627,         OSWALDO CRUZ21340030RIO DE JANEIRO RJUNIAO UMB DOS CULTOS AFRO BRAS    28021910 000012
10231987175000168817800093673    000036084                    000360840000000000000109                     I0236084     28021900000000040003410000017N261218104700000000000102802190000000000000000000000000000000000000000100081628811749MAURO JOSE DE AZEVEDO FALCAO            RUA: LEOPOLDO MACHADON 121,             BOA ESPERANC26130680NOVA IGUACU    RJUNIAO UMB DOS CULTOS AFRO BRAS    28021910 000013
10231987175000168817800093673    000036050                    000360500000000000000109                     I0236050     28021900000000040003410000017N261218104700000000000102802190000000000000000000000000000000000000000100018780962572INALVA LAZARO DRUMOND                   AVENIDA MARECHAL RONDONN 2117,          RIACHUELO   20950071RIO DE JANEIRO RJUNIAO UMB DOS CULTOS AFRO BRAS    28021910 000014
10231987175000168817800093673    000035283                    000352830000000000000109                     I0235283     31011900000000040003410000017N261218104700000000000103101190000000000000000000000000000000000000000100014520518792STEPHANI MATOS MONTEIRO                 ESTRADA DOUTOR PLINIO CASADO N 3599,    CENTRO      26130622BELFORD ROXO   RJUNIAO UMB DOS CULTOS AFRO BRAS    31011910 000015
10231987175000168817800093673    000034854                    000348540000000000000109                     I0234854     31011900000000040003410000017N261218104700000000000103101190000000000000000000000000000000000000000100004790121720IATA ANDERSON JESUS PEREIRA             RUA: ITAJUBARAN 92, FRENTE              RAMOS       21060180RIO DE JANEIRO RJUNIAO UMB DOS CULTOS AFRO BRAS    31011910 000016
10231987175000168817800093673    000034178                    000341780000000000000109                     I0234178     31011900000000040003410000017N261218104700000000000103101190000000000000000000000000000000000000000100081628811749MAURO JOSE DE AZEVEDO FALCAO            RUA: LEOPOLDO MACHADON 121,             BOA ESPERANC26130680NOVA IGUACU    RJUNIAO UMB DOS CULTOS AFRO BRAS    31011910 000017
10231987175000168817800093673    000034145                    000341450000000000000109                     I0234145     31011900000000040003410000017N261218104700000000000103101190000000000000000000000000000000000000000100018780962572INALVA LAZARO DRUMOND                   AVENIDA MARECHAL RONDONN 2117,          RIACHUELO   20950071RIO DE JANEIRO RJUNIAO UMB DOS CULTOS AFRO BRAS    31011910 000018
10231987175000168817800093673    000034047                    000340470000000000000109                     I0234047     31011900000000040003410000017N261218104700000000000103101190000000000000000000000000000000000000000100049170872791SONIA REGINA BARBOSA CAVATO             AVENIDA SCHULTZ WENKN 183,              CORDOVIL    21012155RIO DE JANEIRO RJUNIAO UMB DOS CULTOS AFRO BRAS    31011910 000019
9                                                                                                                                                                                                                                                                                                                                                                                                         000020
