01REMESSA01COBRANCA       916200163100        União Umb dos Cultos Afro Bra341BANCO ITAU SA  261118                                                                                                                                                                                                                                                                                                      000001
10231987175000168916200163100    000028820                    000288200000000000000109                     I0228820     30091800000000005553410000017N280918104700000000000103009180000000000000000000000000000000000000000100005851795735JOAO LUIZ DE OLIVEIRA MAGALHAE          RUA ANTONIO CARLOS PARANHOS             VILA VALQUEI21321340RIO DE JANEIRO RJUNIAO UMB DOS CULTOS AFRO BRAS    30091810 000002
10231987175000168916200163100    000028819                    000288190000000000000109                     I0228819     01101800000000035003410000017N280918104700000000000100110180000000000000000000000000000000000000000100000000000761SONIA MARIA DA SILVA DELLIVENE          AV PLINIO GOMES DE MATTOS FILHO         VARZEA DAS M24330430SAO GONCALO    RJUNIAO UMB DOS CULTOS AFRO BRAS    01101810 000003
10231987175000168916200163100    000028815                    000288150000000000000109                     I0228815     10101800000000105003410000017N270918104700000000000101010180000000000000000000000000000000000000000100009409455766DANIELE MARTINS MEDEIROS DE FR          RUA D                                   BELA VISTA  23860000MANGARATIBA    RJUNIAO UMB DOS CULTOS AFRO BRAS    10101810 000004
10231987175000168916200163100    000028805                    000288050000000000000109                     I0228805     10101800000000280003410000017N260918104700000000000101010180000000000000000000000000000000000000000100000000000607ARACI AMELIA DA SILVA RIBEIRO           RUA ALIPIO GOMES DOS SANTOS             JARDIM AMERI26032835BARRA DO PIRAI RJUNIAO UMB DOS CULTOS AFRO BRAS    10101810 000005
10231987175000168916200163100    000028803                    000288030000000000000109                     I0228803     30111800000000040003410000017N260918104700000000000103011180000000000000000000000000000000000000000100001467028754ROSANE DE FREITAS SOUZA DA SIL          RUA: JACIRENDI                          COLEGIO     20545290RIO DE JANEIRO RJUNIAO UMB DOS CULTOS AFRO BRAS    30111810 000006
10231987175000168916200163100    000028802                    000288020000000000000109                     I0228802     30101800000000040003410000017N260918104700000000000103010180000000000000000000000000000000000000000100001467028754ROSANE DE FREITAS SOUZA DA SIL          RUA: JACIRENDI                          COLEGIO     20545290RIO DE JANEIRO RJUNIAO UMB DOS CULTOS AFRO BRAS    30101810 000007
10231987175000168916200163100    000028793                    000287930000000000000109                     I0228793     16101800000000480003410000017N240918104700000000000101610180000000000000000000000000000000000000000100018708579768CARLOS HENRIQUE PAES CRUZ               RUA ITACURUCA                           MARAMBAIA   24724410NITEROI        RJUNIAO UMB DOS CULTOS AFRO BRAS    16101810 000008
10231987175000168916200163100    000028780                    000287800000000000000109                     I0228780     05101800000000500003410000017N190918104700000000000100510180000000000000000000000000000000000000000100065751400763JOSE MARIA MOREIRA FORTUNATO            ESTRADA: DORANDIA - IPIABAS             VILA PEGAS  27170000BARRA DO PIRAI RJUNIAO UMB DOS CULTOS AFRO BRAS    05101810 000009
10231987175000168916200163100    000028777                    000287770000000000000109                     I0228777     30091800000000035003410000017N190918104700000000000103009180000000000000000000000000000000000000000100050945653115KLEIDE LEMOS MENDONCA                   RUA COSTA FILHO                         MARECHAL HER21610570RIO DE JANEIRO RJUNIAO UMB DOS CULTOS AFRO BRAS    30091810 000010
10231987175000168916200163100    000028768                    000287680000000000000109                     I0228768     30091800000000350003410000017N180918104700000000000103009180000000000000000000000000000000000000000100012450258728MONIQUE RODRIGUES DE ALMEIDA            RUA SESSENTA                            JARDIM MARAV21750400RIO DE JANEIRO RJUNIAO UMB DOS CULTOS AFRO BRAS    30091810 000011
10231987175000168916200163100    000028761                    000287610000000000000109                     I0228761     30111800000000040003410000017N170918104700000000000103011180000000000000000000000000000000000000000100048639389772ONESIO JOSINO DOS SANTOS                RUA: VINTE E DOIS                       BRISA MAR   23825587ITAGUAI        RJUNIAO UMB DOS CULTOS AFRO BRAS    30111810 000012
10231987175000168916200163100    000028760                    000287600000000000000109                     I0228760     30101800000000040003410000017N170918104700000000000103010180000000000000000000000000000000000000000100048639389772ONESIO JOSINO DOS SANTOS                RUA: VINTE E DOIS                       BRISA MAR   23825587ITAGUAI        RJUNIAO UMB DOS CULTOS AFRO BRAS    30101810 000013
10231987175000168916200163100    000028756                    000287560000000000000109                     I0228756     22101800000000400003410000017N160918104700000000000102210180000000000000000000000000000000000000000100046367225749JOSE MARINALDO ARAUJO DOS SANT          RUA BELIZARIO PENA                      PARQUE SAO V26178130BELFORD ROXO   RJUNIAO UMB DOS CULTOS AFRO BRAS    22101810 000014
10231987175000168916200163100    000028729                    000287290000000000000109                     I0228729     30091800000000140003410000017N110918104700000000000103009180000000000000000000000000000000000000000100083326952791JOSELITA BATISTA DE OLIVEIRA            RUA: ELIZETE DA SILVA TAGINO            BRISAMAR    23830000ITAGUAI        RJUNIAO UMB DOS CULTOS AFRO BRAS    30091810 000015
10231987175000168916200163100    000028719                    000287190000000000000109                     I0228719     30091800000000040003410000017N100918104700000000000103009180000000000000000000000000000000000000000100012303421764PEDRO JONAS ARAUJO CORDEIRO             RUA JOSE LIMA DA SILVA                  SANTA RITA  26185610BELFORD ROXO   RJUNIAO UMB DOS CULTOS AFRO BRAS    30091810 000016
10231987175000168916200163100    000028716                    000287160000000000000109                     I0228716     30091800000000035003410000017N100918104700000000000103009180000000000000000000000000000000000000000100000000000000REINALDO FERREIRA DOS SANTOS            RUA LESTE                               JARDIM PARAI26297294NOVA IGUACU    RJUNIAO UMB DOS CULTOS AFRO BRAS    30091810 000017
10231987175000168916200163100    000028713                    000287130000000000000109                     I0228713     30091800000000040003410000017N100918104700000000000103009180000000000000000000000000000000000000000100003413776789CRISTIANE DE SOUZA GALANTE INA          RUA SABIA                               SITIO RETIRO26167500SAO JOAO DE MERRJUNIAO UMB DOS CULTOS AFRO BRAS    30091810 000018
10231987175000168916200163100    000028710                    000287100000000000000109                     I0228710     30091800000000040003410000017N100918104700000000000103009180000000000000000000000000000000000000000100036139050782VIRGINIA DANTAS FERREIRA                AVENIDA BEIRA                           COROA GRANDE23821310RIO DE JANEIRO RJUNIAO UMB DOS CULTOS AFRO BRAS    30091810 000019
10231987175000168916200163100    000028707                    000287070000000000000109                     I0228707     30091800000000035003410000017N100918104700000000000103009180000000000000000000000000000000000000000100005451927731MAGDA MARTHA DE OLIVEIRA                RUA: JOSE MARIANO                       CABUCU - PAR26292051NOVA IGUACU    RJUNIAO UMB DOS CULTOS AFRO BRAS    30091810 000020
10231987175000168916200163100    000028704                    000287040000000000000109                     I0228704     30091800000000040003410000017N100918104700000000000103009180000000000000000000000000000000000000000100047627816734DORACI BARBARA RIBEIRO DO COUT          RUA PRIMEIRO DE MAIO                    PARQUE IPIRA26359510MESQUITA       RJUNIAO UMB DOS CULTOS AFRO BRAS    30091810 000021
10231987175000168916200163100    000028701                    000287010000000000000109                     I0228701     30091800000000040003410000017N100918104700000000000103009180000000000000000000000000000000000000000100001686004710CLAUDIA CORREA DA SILVA                 RUA MARISTER                            CABUCU      00000000NOVA IGUACU    RJUNIAO UMB DOS CULTOS AFRO BRAS    30091810 000022
10231987175000168916200163100    000028698                    000286980000000000000109                     I0228698     30091800000000035003410000017N100918104700000000000103009180000000000000000000000000000000000000000100085114308734MARISTELA BISPO DOS SANTOS              RUA: VINTE E TRES DE SETEMBRO           IPIRANGA    26293342NOVA IGUACU    RJUNIAO UMB DOS CULTOS AFRO BRAS    30091810 000023
10231987175000168916200163100    000028695                    000286950000000000000109                     I0228695     30091800000000040003410000017N100918104700000000000103009180000000000000000000000000000000000000000100075037017734ORLY PEREIRA DE AZEVEDO                 RUA BUTUCARAI                           CAMPOS ELISI00000000DUQUE DE CAXIASRJUNIAO UMB DOS CULTOS AFRO BRAS    30091810 000024
10231987175000168916200163100    000028686                    000286860000000000000109                     I0228686     30101800000000040003410000017N060918104700000000000103010180000000000000000000000000000000000000000100070550891749CELSO POYDO MENDES                      RUA: SOUZA FREITAS                      PILARES     20760710RIO DE JANEIRO RJUNIAO UMB DOS CULTOS AFRO BRAS    30101810 000025
10231987175000168916200163100    000028685                    000286850000000000000109                     I0228685     30091800000000040003410000017N060918104700000000000103009180000000000000000000000000000000000000000100070550891749CELSO POYDO MENDES                      RUA: SOUZA FREITAS                      PILARES     20760710RIO DE JANEIRO RJUNIAO UMB DOS CULTOS AFRO BRAS    30091810 000026
10231987175000168916200163100    000028682                    000286820000000000000109                     I0228682     30091800000000040003410000017N060918104700000000000103009180000000000000000000000000000000000000000100085965871791VALERIA MENDES BARBOSA DOS SAN          RUA SAO PATRICIO                        JARDIM NOVA 26265540NOVA IGUACU    RJUNIAO UMB DOS CULTOS AFRO BRAS    30091810 000027
10231987175000168916200163100    000028679                    000286790000000000000109                     I0228679     30091800000000040003410000017N060918104700000000000103009180000000000000000000000000000000000000000100008323642745ROSEMERI DE SOUZA COUTINHO              RUA VERA LUCIA                          CABUCU      26291452NOVA IGUACU    RJUNIAO UMB DOS CULTOS AFRO BRAS    30091810 000028
10231987175000168916200163100    000028676                    000286760000000000000109                     I0228676     30091800000000040003410000017N060918104700000000000103009180000000000000000000000000000000000000000100007147220730LUIS CARLOS DA COSTA OLIVEIRA           RUA MINAS GERAIS                        CAMPO ALEGRE26292141NOVA IGUACU    RJUNIAO UMB DOS CULTOS AFRO BRAS    30091810 000029
10231987175000168916200163100    000028649                    000286490000000000000109                     I0228649     30111800000000035003410000017N030918104700000000000103011180000000000000000000000000000000000000000100008350095725LUIZ LUCIANO ADAO                       RUA ALAGOAS                             SANTA CRUZ D25255070DUQUE DE CAXIASRJUNIAO UMB DOS CULTOS AFRO BRAS    30111810 000030
10231987175000168916200163100    000028642                    000286420000000000000109                     I0228642     30091800000000210003410000017N310818104700000000000103009180000000000000000000000000000000000000000100001413305709LUCIO MAURO DE AQUINO BARBOSA           RUA FAIA                                ROCHA MIRAND26032835RIO DE JANEIRO RJUNIAO UMB DOS CULTOS AFRO BRAS    30091810 000031
10231987175000168916200163100    000028596                    000285960000000000000109                     I0228596     30091800000000040003410000017N280818104700000000000103009180000000000000000000000000000000000000000100007202542722MIRLA SUSANI DA SILVA SALES             RUA: DOUTOR FREDERICO                   LAGOINHA    26296414NOVA IGUACU    RJUNIAO UMB DOS CULTOS AFRO BRAS    30091810 000032
9                                                                                                                                                                                                                                                                                                                                                                                                         000033
