01REMESSA01COBRANCA       817800093673        União Umb dos Cultos Afro Bra341BANCO ITAU SA  050819                                                                                                                                                                                                                                                                                                      000001
10231987175000168817800093673    000050696                    000506960000000000000109                     I0250696     30081900000000250003410000017N020819105700000000000833008190000000000000000000000000000000000000000100075741660720JOSE ENEDINO DA COSTA                   ESTRADA DA PEDRAN 4977,                 GUARATIBA   23030380RIO DE JANEIRO RJUNIAO UMB DOS CULTOS AFRO BRAS    30081915 000002
21300820190000000000500                                                                                                                                                                                                                                                                                                                                                                                   000003
10231987175000168817800093673    000049582                    000495820000000000000109                     I0249582     30091900000000040003410000017N100619105700000000000133009190000000000000000000000000000000000000000100060442069715NEIDE MARIA DA CONCEICAO BOAVE          RUA SOLDADO VALDEMAR DE ALMEIDAN 28,    CAMPO GRANDE23042100RIO DE JANEIRO RJUNIAO UMB DOS CULTOS AFRO BRAS    30091915 000004
21300920190000000000080                                                                                                                                                                                                                                                                                                                                                                                   000005
10231987175000168817800093673    000048705                    000487050000000000000109                     I0248705     30091900000000040003410000017N100619105700000000000133009190000000000000000000000000000000000000000100095949925734RITA DE CASSIA COCCARO                  RUA JUCARIN 563,                        IRAJA       21371320RIO DE JANEIRO RJUNIAO UMB DOS CULTOS AFRO BRAS    30091915 000006
21300920190000000000080                                                                                                                                                                                                                                                                                                                                                                                   000007
10231987175000168817800093673    000048441                    000484410000000000000109                     I0248441     30091900000000040003410000017N100619105700000000000133009190000000000000000000000000000000000000000100033223190759CELIA DA CONCEICAO RIBEIRO              RUA GENERAL JOSE FAUSTINON 228,         REALENGO    21721050RIO DE JANEIRO RJUNIAO UMB DOS CULTOS AFRO BRAS    30091915 000008
21300920190000000000080                                                                                                                                                                                                                                                                                                                                                                                   000009
10231987175000168817800093673    000048256                    000482560000000000000109                     I0248256     30091900000000040003410000017N100619105700000000000133009190000000000000000000000000000000000000000100095589473772JOANE ZAGALIA DA CUNHA                  RUA JABIRIN 365,                        MARECHAL HER21557300RIO DE JANEIRO RJUNIAO UMB DOS CULTOS AFRO BRAS    30091915 000010
21300920190000000000080                                                                                                                                                                                                                                                                                                                                                                                   000011
10231987175000168817800093673    000048135                    000481350000000000000109                     I0248135     30081900000000040003410000017N100619105700000000000133008190000000000000000000000000000000000000000100060442069715NEIDE MARIA DA CONCEICAO BOAVE          RUA SOLDADO VALDEMAR DE ALMEIDAN 28,    CAMPO GRANDE23042100RIO DE JANEIRO RJUNIAO UMB DOS CULTOS AFRO BRAS    30081915 000012
21300820190000000000080                                                                                                                                                                                                                                                                                                                                                                                   000013
10231987175000168817800093673    000047267                    000472670000000000000109                     I0247267     30081900000000040003410000017N100619105700000000000133008190000000000000000000000000000000000000000100095949925734RITA DE CASSIA COCCARO                  RUA JUCARIN 563,                        IRAJA       21371320RIO DE JANEIRO RJUNIAO UMB DOS CULTOS AFRO BRAS    30081915 000014
21300820190000000000080                                                                                                                                                                                                                                                                                                                                                                                   000015
10231987175000168817800093673    000047252                    000472520000000000000109                     I3447252     30081900000000040003410000017N100619105700000000000133008190000000000000000000000000000000000000000231678433000124CENTRO ESPIRITA JUSTICA E AMOR          RUA: IGUABA GRANDEN 78, BLOCO 6 APT 1206PAVUNA      21655340RIO DE JANEIRO RJUNIAO UMB DOS CULTOS AFRO BRAS    30081915 000016
21300820190000000000080                                                                                                                                                                                                                                                                                                                                                                                   000017
10231987175000168817800093673    000047082                    000470820000000000000109                     I3447082     30081900000000040003410000017N100619105700000000000133008190000000000000000000000000000000000000000100022023461715SAULO EMMANUEL FERREIRA GUEDES          AVENIDA VICENTE DE CARVALHON 1431, BLOCOPENHA CIRCUL21210154RIO DE JANEIRO RJUNIAO UMB DOS CULTOS AFRO BRAS    30081915 000018
21300820190000000000080                                                                                                                                                                                                                                                                                                                                                                                   000019
10231987175000168817800093673    000045905                    000459050000000000000109                     I0245905     30071900000000040003410000017N100619105700000000000133007190000000000000000000000000000000000000000100040337065772UILMA VIEIRA TEIXEIRA                   RUA: ITUN 0, LOTE 3 QUADRA 22           JARDIM GRAMA25060350DUQUE DE CAXIASRJUNIAO UMB DOS CULTOS AFRO BRAS    30071915 000020
21300720190000000000080                                                                                                                                                                                                                                                                                                                                                                                   000021
9                                                                                                                                                                                                                                                                                                                                                                                                         000022
