01REMESSA01COBRANCA       817800093673        União Umb dos Cultos Afro Bra341BANCO ITAU SA  100119                                                                                                                                                                                                                                                                                                      000001
10231987175000168817800093673    000039536                    000395360000000000000109                     I0139536     15011900000000040003410000017N100119104700000000000101501190000000000000000000000000000000000000000100021973989700NILZA ARAGUEZ                           RUA PAJURA                              TAQUARA     22740210RIO DE JANEIRO RJUNIAO UMB DOS CULTOS AFRO BRAS    15011910 000002
10231987175000168817800093673    000039535                    000395350000000000000109                     I0139535     31031900000000040003410000017N100119104700000000000103103190000000000000000000000000000000000000000100002325846725ISRAEL AUGUSTO NUNES CALDEIRAO          O MESMO                                 O MESMO     25025400RIO DE JANEIRO RJUNIAO UMB DOS CULTOS AFRO BRAS    31031910 000003
10231987175000168817800093673    000039534                    000395340000000000000109                     I0139534     28021900000000040003410000017N100119104700000000000102802190000000000000000000000000000000000000000100002325846725ISRAEL AUGUSTO NUNES CALDEIRAO          O MESMO                                 O MESMO     25025400RIO DE JANEIRO RJUNIAO UMB DOS CULTOS AFRO BRAS    28021910 000004
10231987175000168817800093673    000039533                    000395330000000000000109                     I0139533     10021900000000110003410000017N100119104700000000000101002190000000000000000000000000000000000000000100048950572753ORQUIDEA JOSE DOS SANTOS                RUA JESSIE VENTURA                      SANTA CECILI25233130DUQUE DE CAXIASRJUNIAO UMB DOS CULTOS AFRO BRAS    10021910 000005
10231987175000168817800093673    000039532                    000395320000000000000109                     I0139532     14011900000000145003410000017N100119104700000000000101401190000000000000000000000000000000000000000100054770122772EDUARDO DOS SANTOS REIS NETO            RUA BURITI                              MADUREIRA   20231046RIO DE JANEIRO RJUNIAO UMB DOS CULTOS AFRO BRAS    14011910 000006
10231987175000168817800093673    000039531                    000395310000000000000109                     I0139531     31011900000000040003410000017N100119104700000000000103101190000000000000000000000000000000000000000100082187401715JOSE AUGUSTO DA PAIXAO                  RUA GOMES CARNEIRO                      SARACURUNA  25211050DUQUE DE CAXIASRJUNIAO UMB DOS CULTOS AFRO BRAS    31011910 000007
10231987175000168817800093673    000039530                    000395300000000000000109                     I0139530     31031900000000040003410000017N100119104700000000000103103190000000000000000000000000000000000000000100001969753790ROSANGELA CRISTINA GOULART              RUA JOSE MANUEL DELGADO                 GRANJA FLORE25964240TERESOPOLIS    RJUNIAO UMB DOS CULTOS AFRO BRAS    31031910 000008
10231987175000168817800093673    000039529                    000395290000000000000109                     I0139529     28021900000000040003410000017N100119104700000000000102802190000000000000000000000000000000000000000100001969753790ROSANGELA CRISTINA GOULART              RUA JOSE MANUEL DELGADO                 GRANJA FLORE25964240TERESOPOLIS    RJUNIAO UMB DOS CULTOS AFRO BRAS    28021910 000009
10231987175000168817800093673    000039528                    000395280000000000000109                     I0139528     18011900000000350003410000017N100119104700000000000101801190000000000000000000000000000000000000000100001789073758BERNADETE BURGOS AMORIM RANGEL          RUA IMBUI                               TAQUARA     22730100RIO DE JANEIRO RJUNIAO UMB DOS CULTOS AFRO BRAS    18011910 000010
10231987175000168817800093673    000039527                    000395270000000000000109                     I0139527     31011900000000040003410000017N100119104700000000000103101190000000000000000000000000000000000000000100001969753790ROSANGELA CRISTINA GOULART              RUA JOSE MANUEL DELGADO                 GRANJA FLORE25964240TERESOPOLIS    RJUNIAO UMB DOS CULTOS AFRO BRAS    31011910 000011
10231987175000168817800093673    000039526                    000395260000000000000109                     I0139526     18011900000000350003410000017N100119104700000000000101801190000000000000000000000000000000000000000100025569929720JOSE WILSON DE ARAUJO                   RUA C 2                                 JARDIM GUARR00000000RIO DE JANEIRO RJUNIAO UMB DOS CULTOS AFRO BRAS    18011910 000012
10231987175000168817800093673    000039523                    000395230000000000000109                     I0139523     18011900000000350003410000017N090119104700000000000101801190000000000000000000000000000000000000000100079558763772HUGO XAVIER                             RUA EUGENIO SIMOES                      ITAUNA      24473000RIO DE JANEIRO RJUNIAO UMB DOS CULTOS AFRO BRAS    18011910 000013
10231987175000168817800093673    000039522                    000395220000000000000109                     I0139522     18011900000000315003410000017N090119104700000000000101801190000000000000000000000000000000000000000100079558763772HUGO XAVIER                             RUA EUGENIO SIMOES                      ITAUNA      24473000RIO DE JANEIRO RJUNIAO UMB DOS CULTOS AFRO BRAS    18011910 000014
10231987175000168817800093673    000039521                    000395210000000000000109                     I0139521     31011900000000490003410000017N090119104700000000000103101190000000000000000000000000000000000000000100047401680734RAQUEL RODRIGUES SOBRAL DANTAS          RUA CAPITAO COUTO MENEZES               MADUREIRA   21310200RIO DE JANEIRO RJUNIAO UMB DOS CULTOS AFRO BRAS    31011910 000015
10231987175000168817800093673    000039318                    000393180000000000000109                     I0239318     30031900000000040003410000017N261218104700000000000103003190000000000000000000000000000000000000000100048639389772ONESIO JOSINO DOS SANTOS                RUA: VINTE E DOIS                       BRISA MAR   23825587ITAGUAI        RJUNIAO UMB DOS CULTOS AFRO BRAS    30031910 000016
10231987175000168817800093673    000039016                    000390160000000000000109                     I0239016     30031900000000040003410000017N261218104700000000000103003190000000000000000000000000000000000000000100001969753790ROSANGELA CRISTINA GOULART              RUA JOSE MANUEL DELGADO                 GRANJA FLORE25964240TERESOPOLIS    RJUNIAO UMB DOS CULTOS AFRO BRAS    30031910 000017
10231987175000168817800093673    000038955                    000389550000000000000109                     I0238955     30031900000000040003410000017N261218104700000000000103003190000000000000000000000000000000000000000100080801048753SUZEEL RODRIGUES BISPO BENJAMI          RUA CURITIBA                            REALENGO    21730240RIO DE JANEIRO RJUNIAO UMB DOS CULTOS AFRO BRAS    30031910 000018
10231987175000168817800093673    000038920                    000389200000000000000109                     I0238920     30031900000000040003410000017N261218104700000000000103003190000000000000000000000000000000000000000100000261600729ELIANE ZELIA DE OLIVEIRA                RUA VENANCIO AIRES                      GRAMACHO    25035340DUQUE DE CAXIASRJUNIAO UMB DOS CULTOS AFRO BRAS    30031910 000019
10231987175000168817800093673    000038783                    000387830000000000000109                     I0238783     30031900000000040003410000017N261218104700000000000103003190000000000000000000000000000000000000000100000447643754JANICE LEAL CARRILHO                    RUA DOS BANCARIOS                       TRES PONTES 00000000RIO DE JANEIRO RJUNIAO UMB DOS CULTOS AFRO BRAS    30031910 000020
10231987175000168817800093673    000038419                    000384190000000000000109                     I0238419     30031900000000040003410000017N261218104700000000000103003190000000000000000000000000000000000000000100000000001059CLARA MONTE PADILHA PINHEIRO            RUA E                                   HUMAITA     25915000DUQUE DE CAXIASRJUNIAO UMB DOS CULTOS AFRO BRAS    30031910 000021
10231987175000168817800093673    000038391                    000383910000000000000109                     I0238391     30031900000000040003410000017N261218104700000000000103003190000000000000000000000000000000000000000100036213373772DULCINEIA RODRIGUES FEITAL              RUA CARNAUBAIS                          JARDIM CAXAN23012380RIO DE JANEIRO RJUNIAO UMB DOS CULTOS AFRO BRAS    30031910 000022
10231987175000168817800093673    000038338                    000383380000000000000109                     I0238338     30031900000000040003410000017N261218104700000000000103003190000000000000000000000000000000000000000100002145317759ANDRE LUIZ MENDES                       RUA MARANGA                             PRACA SECA  21321060RIO DE JANEIRO RJUNIAO UMB DOS CULTOS AFRO BRAS    30031910 000023
10231987175000168817800093673    000038017                    000380170000000000000109                     I0238017     30031900000000040003410000017N261218104700000000000103003190000000000000000000000000000000000000000100001625846797MARIA ORLANDA ALVES BRAZ                RUA JOSEFA DE ARAUJO                    CAMPO ALEGRE26292003NOVA IGUACU    RJUNIAO UMB DOS CULTOS AFRO BRAS    30031910 000024
10231987175000168817800093673    000037859                    000378590000000000000109                     I0237859     30031900000000040003410000017N261218104700000000000103003190000000000000000000000000000000000000000100066391482772VERA LUCIA BARBOSA FERREIRA             RUA JOAO VICENTE                        MARECHAL HER21610210RIO DE JANEIRO RJUNIAO UMB DOS CULTOS AFRO BRAS    30031910 000025
10231987175000168817800093673    000037734                    000377340000000000000109                     I0237734     30031900000000040003410000017N261218104700000000000103003190000000000000000000000000000000000000000100007801283708MARCO ANTONIO DUARTE                    RUA GONCALO PAIVA GOMES                 ARSENAL     24751200SAO GONCALO    RJUNIAO UMB DOS CULTOS AFRO BRAS    30031910 000026
10231987175000168817800093673    000037712                    000377120000000000000109                     I0237712     30031900000000040003410000017N261218104700000000000103003190000000000000000000000000000000000000000100089816137704NOEMIA LIMA DA SILVA                    RUA JOSE GUIDA                          MIGUEL COUTO26150620NOVA IGUACU    RJUNIAO UMB DOS CULTOS AFRO BRAS    30031910 000027
10231987175000168817800093673    000037628                    000376280000000000000109                     I0237628     30031900000000040003410000017N261218104700000000000103003190000000000000000000000000000000000000000100036910473787MILTON DE OLIVEIRA NASCIMENTO           RUA JAVATA                              ANCHIETA    21655410RIO DE JANEIRO RJUNIAO UMB DOS CULTOS AFRO BRAS    30031910 000028
10231987175000168817800093673    000037490                    000374900000000000000109                     I0237490     30031900000000040003410000017N261218104700000000000103003190000000000000000000000000000000000000000100001357274726JUREMA MEDEIROS MARTINS                 RUA SOLDADO LAERCIO DE MENDONCA,        INHOAIBA    23063190RIO DE JANEIRO RJUNIAO UMB DOS CULTOS AFRO BRAS    30031910 000029
10231987175000168817800093673    000037479                    000374790000000000000109                     I0237479     30031900000000040003410000017N261218104700000000000103003190000000000000000000000000000000000000000100098136259704MARIA DAS DORES RODRIGUES SILV          RUA JOAO OLIMPIO MAGALHAES              ROSELANDIA  27338530BARRA MANSA    RJUNIAO UMB DOS CULTOS AFRO BRAS    30031910 000030
10231987175000168817800093673    000037453                    000374530000000000000109                     I0237453     30031900000000040003410000017N261218104700000000000103003190000000000000000000000000000000000000000100002880527732ARANI BARRETO DE SANTANA FONSE          RUA GENERAL MIGUEL COSTA                GUADALUPE   21665230RIO DE JANEIRO RJUNIAO UMB DOS CULTOS AFRO BRAS    30031910 000031
10231987175000168817800093673    000037399                    000373990000000000000109                     I0237399     28021900000000040003410000017N261218104700000000000102802190000000000000000000000000000000000000000100048639389772ONESIO JOSINO DOS SANTOS                RUA: VINTE E DOIS                       BRISA MAR   23825587ITAGUAI        RJUNIAO UMB DOS CULTOS AFRO BRAS    28021910 000032
10231987175000168817800093673    000037097                    000370970000000000000109                     I0237097     28021900000000040003410000017N261218104700000000000102802190000000000000000000000000000000000000000100001969753790ROSANGELA CRISTINA GOULART              RUA JOSE MANUEL DELGADO                 GRANJA FLORE25964240TERESOPOLIS    RJUNIAO UMB DOS CULTOS AFRO BRAS    28021910 000033
10231987175000168817800093673    000037036                    000370360000000000000109                     I0237036     28021900000000040003410000017N261218104700000000000102802190000000000000000000000000000000000000000100080801048753SUZEEL RODRIGUES BISPO BENJAMI          RUA CURITIBA                            REALENGO    21730240RIO DE JANEIRO RJUNIAO UMB DOS CULTOS AFRO BRAS    28021910 000034
10231987175000168817800093673    000037001                    000370010000000000000109                     I0237001     28021900000000040003410000017N261218104700000000000102802190000000000000000000000000000000000000000100000261600729ELIANE ZELIA DE OLIVEIRA                RUA VENANCIO AIRES                      GRAMACHO    25035340DUQUE DE CAXIASRJUNIAO UMB DOS CULTOS AFRO BRAS    28021910 000035
10231987175000168817800093673    000036864                    000368640000000000000109                     I0236864     28021900000000040003410000017N261218104700000000000102802190000000000000000000000000000000000000000100000447643754JANICE LEAL CARRILHO                    RUA DOS BANCARIOS                       TRES PONTES 00000000RIO DE JANEIRO RJUNIAO UMB DOS CULTOS AFRO BRAS    28021910 000036
10231987175000168817800093673    000036502                    000365020000000000000109                     I0236502     28021900000000040003410000017N261218104700000000000102802190000000000000000000000000000000000000000100000000001059CLARA MONTE PADILHA PINHEIRO            RUA E                                   HUMAITA     25915000DUQUE DE CAXIASRJUNIAO UMB DOS CULTOS AFRO BRAS    28021910 000037
10231987175000168817800093673    000036474                    000364740000000000000109                     I0236474     28021900000000040003410000017N261218104700000000000102802190000000000000000000000000000000000000000100036213373772DULCINEIA RODRIGUES FEITAL              RUA CARNAUBAIS                          JARDIM CAXAN23012380RIO DE JANEIRO RJUNIAO UMB DOS CULTOS AFRO BRAS    28021910 000038
10231987175000168817800093673    000036421                    000364210000000000000109                     I0236421     28021900000000040003410000017N261218104700000000000102802190000000000000000000000000000000000000000100002145317759ANDRE LUIZ MENDES                       RUA MARANGA                             PRACA SECA  21321060RIO DE JANEIRO RJUNIAO UMB DOS CULTOS AFRO BRAS    28021910 000039
10231987175000168817800093673    000036102                    000361020000000000000109                     I0236102     28021900000000040003410000017N261218104700000000000102802190000000000000000000000000000000000000000100001625846797MARIA ORLANDA ALVES BRAZ                RUA JOSEFA DE ARAUJO                    CAMPO ALEGRE26292003NOVA IGUACU    RJUNIAO UMB DOS CULTOS AFRO BRAS    28021910 000040
10231987175000168817800093673    000035944                    000359440000000000000109                     I0235944     28021900000000040003410000017N261218104700000000000102802190000000000000000000000000000000000000000100066391482772VERA LUCIA BARBOSA FERREIRA             RUA JOAO VICENTE                        MARECHAL HER21610210RIO DE JANEIRO RJUNIAO UMB DOS CULTOS AFRO BRAS    28021910 000041
10231987175000168817800093673    000035821                    000358210000000000000109                     I0235821     28021900000000040003410000017N261218104700000000000102802190000000000000000000000000000000000000000100007801283708MARCO ANTONIO DUARTE                    RUA GONCALO PAIVA GOMES                 ARSENAL     24751200SAO GONCALO    RJUNIAO UMB DOS CULTOS AFRO BRAS    28021910 000042
10231987175000168817800093673    000035799                    000357990000000000000109                     I0235799     28021900000000040003410000017N261218104700000000000102802190000000000000000000000000000000000000000100089816137704NOEMIA LIMA DA SILVA                    RUA JOSE GUIDA                          MIGUEL COUTO26150620NOVA IGUACU    RJUNIAO UMB DOS CULTOS AFRO BRAS    28021910 000043
10231987175000168817800093673    000035715                    000357150000000000000109                     I0235715     28021900000000040003410000017N261218104700000000000102802190000000000000000000000000000000000000000100036910473787MILTON DE OLIVEIRA NASCIMENTO           RUA JAVATA                              ANCHIETA    21655410RIO DE JANEIRO RJUNIAO UMB DOS CULTOS AFRO BRAS    28021910 000044
10231987175000168817800093673    000035578                    000355780000000000000109                     I0235578     28021900000000040003410000017N261218104700000000000102802190000000000000000000000000000000000000000100001357274726JUREMA MEDEIROS MARTINS                 RUA SOLDADO LAERCIO DE MENDONCA,        INHOAIBA    23063190RIO DE JANEIRO RJUNIAO UMB DOS CULTOS AFRO BRAS    28021910 000045
10231987175000168817800093673    000035567                    000355670000000000000109                     I0235567     28021900000000040003410000017N261218104700000000000102802190000000000000000000000000000000000000000100098136259704MARIA DAS DORES RODRIGUES SILV          RUA JOAO OLIMPIO MAGALHAES              ROSELANDIA  27338530BARRA MANSA    RJUNIAO UMB DOS CULTOS AFRO BRAS    28021910 000046
10231987175000168817800093673    000035541                    000355410000000000000109                     I0235541     28021900000000040003410000017N261218104700000000000102802190000000000000000000000000000000000000000100002880527732ARANI BARRETO DE SANTANA FONSE          RUA GENERAL MIGUEL COSTA                GUADALUPE   21665230RIO DE JANEIRO RJUNIAO UMB DOS CULTOS AFRO BRAS    28021910 000047
10231987175000168817800093673    000035486                    000354860000000000000109                     I0235486     31011900000000040003410000017N261218104700000000000103101190000000000000000000000000000000000000000100048639389772ONESIO JOSINO DOS SANTOS                RUA: VINTE E DOIS                       BRISA MAR   23825587ITAGUAI        RJUNIAO UMB DOS CULTOS AFRO BRAS    31011910 000048
10231987175000168817800093673    000035186                    000351860000000000000109                     I0235186     31011900000000040003410000017N261218104700000000000103101190000000000000000000000000000000000000000100001969753790ROSANGELA CRISTINA GOULART              RUA JOSE MANUEL DELGADO                 GRANJA FLORE25964240TERESOPOLIS    RJUNIAO UMB DOS CULTOS AFRO BRAS    31011910 000049
10231987175000168817800093673    000035125                    000351250000000000000109                     I0235125     31011900000000040003410000017N261218104700000000000103101190000000000000000000000000000000000000000100080801048753SUZEEL RODRIGUES BISPO BENJAMI          RUA CURITIBA                            REALENGO    21730240RIO DE JANEIRO RJUNIAO UMB DOS CULTOS AFRO BRAS    31011910 000050
10231987175000168817800093673    000035091                    000350910000000000000109                     I0235091     31011900000000040003410000017N261218104700000000000103101190000000000000000000000000000000000000000100000261600729ELIANE ZELIA DE OLIVEIRA                RUA VENANCIO AIRES                      GRAMACHO    25035340DUQUE DE CAXIASRJUNIAO UMB DOS CULTOS AFRO BRAS    31011910 000051
10231987175000168817800093673    000034954                    000349540000000000000109                     I0234954     31011900000000040003410000017N261218104700000000000103101190000000000000000000000000000000000000000100000447643754JANICE LEAL CARRILHO                    RUA DOS BANCARIOS                       TRES PONTES 00000000RIO DE JANEIRO RJUNIAO UMB DOS CULTOS AFRO BRAS    31011910 000052
10231987175000168817800093673    000034593                    000345930000000000000109                     I0234593     31011900000000040003410000017N261218104700000000000103101190000000000000000000000000000000000000000100000000001059CLARA MONTE PADILHA PINHEIRO            RUA E                                   HUMAITA     25915000DUQUE DE CAXIASRJUNIAO UMB DOS CULTOS AFRO BRAS    31011910 000053
10231987175000168817800093673    000034565                    000345650000000000000109                     I0234565     31011900000000040003410000017N261218104700000000000103101190000000000000000000000000000000000000000100036213373772DULCINEIA RODRIGUES FEITAL              RUA CARNAUBAIS                          JARDIM CAXAN23012380RIO DE JANEIRO RJUNIAO UMB DOS CULTOS AFRO BRAS    31011910 000054
10231987175000168817800093673    000034512                    000345120000000000000109                     I0234512     31011900000000040003410000017N261218104700000000000103101190000000000000000000000000000000000000000100002145317759ANDRE LUIZ MENDES                       RUA MARANGA                             PRACA SECA  21321060RIO DE JANEIRO RJUNIAO UMB DOS CULTOS AFRO BRAS    31011910 000055
10231987175000168817800093673    000034196                    000341960000000000000109                     I0234196     31011900000000040003410000017N261218104700000000000103101190000000000000000000000000000000000000000100001625846797MARIA ORLANDA ALVES BRAZ                RUA JOSEFA DE ARAUJO                    CAMPO ALEGRE26292003NOVA IGUACU    RJUNIAO UMB DOS CULTOS AFRO BRAS    31011910 000056
10231987175000168817800093673    000034040                    000340400000000000000109                     I0234040     31011900000000040003410000017N261218104700000000000103101190000000000000000000000000000000000000000100066391482772VERA LUCIA BARBOSA FERREIRA             RUA JOAO VICENTE                        MARECHAL HER21610210RIO DE JANEIRO RJUNIAO UMB DOS CULTOS AFRO BRAS    31011910 000057
10231987175000168817800093673    000033932                    000339320000000000000109                     I0233932     31011900000000040003410000017N261218104700000000000103101190000000000000000000000000000000000000000100048950572753ORQUIDEA JOSE DOS SANTOS                RUA JESSIE VENTURA                      SANTA CECILI25233130DUQUE DE CAXIASRJUNIAO UMB DOS CULTOS AFRO BRAS    31011910 000058
10231987175000168817800093673    000033918                    000339180000000000000109                     I0233918     31011900000000040003410000017N261218104700000000000103101190000000000000000000000000000000000000000100007801283708MARCO ANTONIO DUARTE                    RUA GONCALO PAIVA GOMES                 ARSENAL     24751200SAO GONCALO    RJUNIAO UMB DOS CULTOS AFRO BRAS    31011910 000059
10231987175000168817800093673    000033910                    000339100000000000000109                     I0233910     31011900000000040003410000017N261218104700000000000103101190000000000000000000000000000000000000000100054770122772EDUARDO DOS SANTOS REIS NETO            RUA BURITI                              MADUREIRA   20231046RIO DE JANEIRO RJUNIAO UMB DOS CULTOS AFRO BRAS    31011910 000060
10231987175000168817800093673    000033896                    000338960000000000000109                     I0233896     31011900000000040003410000017N261218104700000000000103101190000000000000000000000000000000000000000100089816137704NOEMIA LIMA DA SILVA                    RUA JOSE GUIDA                          MIGUEL COUTO26150620NOVA IGUACU    RJUNIAO UMB DOS CULTOS AFRO BRAS    31011910 000061
10231987175000168817800093673    000033813                    000338130000000000000109                     I0233813     31011900000000040003410000017N261218104700000000000103101190000000000000000000000000000000000000000100036910473787MILTON DE OLIVEIRA NASCIMENTO           RUA JAVATA                              ANCHIETA    21655410RIO DE JANEIRO RJUNIAO UMB DOS CULTOS AFRO BRAS    31011910 000062
10231987175000168817800093673    000033678                    000336780000000000000109                     I0233678     31011900000000040003410000017N261218104700000000000103101190000000000000000000000000000000000000000100001357274726JUREMA MEDEIROS MARTINS                 RUA SOLDADO LAERCIO DE MENDONCA,        INHOAIBA    23063190RIO DE JANEIRO RJUNIAO UMB DOS CULTOS AFRO BRAS    31011910 000063
10231987175000168817800093673    000033667                    000336670000000000000109                     I0233667     31011900000000040003410000017N261218104700000000000103101190000000000000000000000000000000000000000100098136259704MARIA DAS DORES RODRIGUES SILV          RUA JOAO OLIMPIO MAGALHAES              ROSELANDIA  27338530BARRA MANSA    RJUNIAO UMB DOS CULTOS AFRO BRAS    31011910 000064
10231987175000168817800093673    000033641                    000336410000000000000109                     I0233641     31011900000000040003410000017N261218104700000000000103101190000000000000000000000000000000000000000100002880527732ARANI BARRETO DE SANTANA FONSE          RUA GENERAL MIGUEL COSTA                GUADALUPE   21665230RIO DE JANEIRO RJUNIAO UMB DOS CULTOS AFRO BRAS    31011910 000065
10231987175000168817800093673    000033286                    000332860000000000000109                     I0233286     20121800000000400003410000017N291018104700000000000102012180000000000000000000000000000000000000000100048639389772ONESIO JOSINO DOS SANTOS                RUA: VINTE E DOIS                       BRISA MAR   23825587ITAGUAI        RJUNIAO UMB DOS CULTOS AFRO BRAS    20121810 000066
10231987175000168817800093673    000033151                    000331510000000000000109                     I0233151     20121800000000400003410000017N291018104700000000000102012180000000000000000000000000000000000000000100082187401715JOSE AUGUSTO DA PAIXAO                  RUA GOMES CARNEIRO                      SARACURUNA  25211050DUQUE DE CAXIASRJUNIAO UMB DOS CULTOS AFRO BRAS    20121810 000067
10231987175000168817800093673    000032750                    000327500000000000000109                     I0232750     20121800000000350003410000017N291018104700000000000102012180000000000000000000000000000000000000000100080801048753SUZEEL RODRIGUES BISPO BENJAMI          RUA CURITIBA                            REALENGO    21730240RIO DE JANEIRO RJUNIAO UMB DOS CULTOS AFRO BRAS    20121810 000068
10231987175000168817800093673    000032703                    000327030000000000000109                     I0232703     20121800000000350003410000017N291018104700000000000102012180000000000000000000000000000000000000000100000261600729ELIANE ZELIA DE OLIVEIRA                RUA VENANCIO AIRES                      GRAMACHO    25035340DUQUE DE CAXIASRJUNIAO UMB DOS CULTOS AFRO BRAS    20121810 000069
10231987175000168817800093673    000032511                    000325110000000000000109                     I0232511     20121800000000350003410000017N291018104700000000000102012180000000000000000000000000000000000000000100000447643754JANICE LEAL CARRILHO                    RUA DOS BANCARIOS                       TRES PONTES 00000000RIO DE JANEIRO RJUNIAO UMB DOS CULTOS AFRO BRAS    20121810 000070
10231987175000168817800093673    000032347                    000323470000000000000109                     I0232347     20121800000000350003410000017N291018104700000000000102012180000000000000000000000000000000000000000100095685774753ADEMIR GOMES DOS SANTOS                 RUA IARA                                VILA TIRADEN00000000SAO JOAO DE MERRJUNIAO UMB DOS CULTOS AFRO BRAS    20121810 000071
10231987175000168817800093673    000031924                    000319240000000000000109                     I0231924     20121800000000350003410000017N291018104700000000000102012180000000000000000000000000000000000000000100036213373772DULCINEIA RODRIGUES FEITAL              RUA CARNAUBAIS                          JARDIM CAXAN23012380RIO DE JANEIRO RJUNIAO UMB DOS CULTOS AFRO BRAS    20121810 000072
10231987175000168817800093673    000031806                    000318060000000000000109                     I0231806     20121800000000350003410000017N291018104700000000000102012180000000000000000000000000000000000000000100021973989700NILZA ARAGUEZ                           RUA PAJURA                              TAQUARA     22740210RIO DE JANEIRO RJUNIAO UMB DOS CULTOS AFRO BRAS    20121810 000073
10231987175000168817800093673    000031354                    000313540000000000000109                     I0231354     20121800000000350003410000017N291018104700000000000102012180000000000000000000000000000000000000000100001625846797MARIA ORLANDA ALVES BRAZ                RUA JOSEFA DE ARAUJO                    CAMPO ALEGRE26292003NOVA IGUACU    RJUNIAO UMB DOS CULTOS AFRO BRAS    20121810 000074
10231987175000168817800093673    000031085                    000310850000000000000109                     I0231085     20121800000000350003410000017N291018104700000000000102012180000000000000000000000000000000000000000100066391482772VERA LUCIA BARBOSA FERREIRA             RUA JOAO VICENTE                        MARECHAL HER21610210RIO DE JANEIRO RJUNIAO UMB DOS CULTOS AFRO BRAS    20121810 000075
10231987175000168817800093673    000030999                    000309990000000000000109                     I0230999     20121800000000350003410000017N291018104700000000000102012180000000000000000000000000000000000000000100001789073758BERNADETE BURGOS AMORIM RANGEL          RUA IMBUI                               TAQUARA     22730100RIO DE JANEIRO RJUNIAO UMB DOS CULTOS AFRO BRAS    20121810 000076
10231987175000168817800093673    000030911                    000309110000000000000109                     I0230911     20121800000000350003410000017N291018104700000000000102012180000000000000000000000000000000000000000100048950572753ORQUIDEA JOSE DOS SANTOS                RUA JESSIE VENTURA                      SANTA CECILI25233130DUQUE DE CAXIASRJUNIAO UMB DOS CULTOS AFRO BRAS    20121810 000077
10231987175000168817800093673    000030872                    000308720000000000000109                     I0230872     20121800000000350003410000017N291018104700000000000102012180000000000000000000000000000000000000000100054770122772EDUARDO DOS SANTOS REIS NETO            RUA BURITI                              MADUREIRA   20231046RIO DE JANEIRO RJUNIAO UMB DOS CULTOS AFRO BRAS    20121810 000078
10231987175000168817800093673    000030844                    000308440000000000000109                     I0230844     20121800000000350003410000017N291018104700000000000102012180000000000000000000000000000000000000000100089816137704NOEMIA LIMA DA SILVA                    RUA JOSE GUIDA                          MIGUEL COUTO26150620NOVA IGUACU    RJUNIAO UMB DOS CULTOS AFRO BRAS    20121810 000079
10231987175000168817800093673    000030802                    000308020000000000000109                     I0230802     20121800000000350003410000017N291018104700000000000102012180000000000000000000000000000000000000000100079558763772HUGO XAVIER                             RUA EUGENIO SIMOES                      ITAUNA      24473000RIO DE JANEIRO RJUNIAO UMB DOS CULTOS AFRO BRAS    20121810 000080
10231987175000168817800093673    000030717                    000307170000000000000109                     I0230717     20121800000000350003410000017N291018104700000000000102012180000000000000000000000000000000000000000100036910473787MILTON DE OLIVEIRA NASCIMENTO           RUA JAVATA                              ANCHIETA    21655410RIO DE JANEIRO RJUNIAO UMB DOS CULTOS AFRO BRAS    20121810 000081
10231987175000168817800093673    000030462                    000304620000000000000109                     I0230462     20121800000000350003410000017N291018104700000000000102012180000000000000000000000000000000000000000100001357274726JUREMA MEDEIROS MARTINS                 RUA SOLDADO LAERCIO DE MENDONCA,        INHOAIBA    23063190RIO DE JANEIRO RJUNIAO UMB DOS CULTOS AFRO BRAS    20121810 000082
10231987175000168817800093673    000030277                    000302770000000000000109                     I0230277     20121800000000040003410000017N291018104700000000000102012180000000000000000000000000000000000000000100082187401715JOSE AUGUSTO DA PAIXAO                  RUA GOMES CARNEIRO                      SARACURUNA  25211050DUQUE DE CAXIASRJUNIAO UMB DOS CULTOS AFRO BRAS    20121810 000083
10231987175000168817800093673    000030233                    000302330000000000000109                     I0230233     20121800000000035003410000017N291018104700000000000102012180000000000000000000000000000000000000000100003387547720APARECIDA DOS SANTOS                    RUA CRACATUA                            HELIOPOLIS  26125170BELFORD ROXO   RJUNIAO UMB DOS CULTOS AFRO BRAS    20121810 000084
10231987175000168817800093673    000030034                    000300340000000000000109                     I0230034     20121800000000035003410000017N291018104700000000000102012180000000000000000000000000000000000000000100080801048753SUZEEL RODRIGUES BISPO BENJAMI          RUA CURITIBA                            REALENGO    21730240RIO DE JANEIRO RJUNIAO UMB DOS CULTOS AFRO BRAS    20121810 000085
10231987175000168817800093673    000030006                    000300060000000000000109                     I0230006     20121800000000035003410000017N291018104700000000000102012180000000000000000000000000000000000000000100000261600729ELIANE ZELIA DE OLIVEIRA                RUA VENANCIO AIRES                      GRAMACHO    25035340DUQUE DE CAXIASRJUNIAO UMB DOS CULTOS AFRO BRAS    20121810 000086
10231987175000168817800093673    000029587                    000295870000000000000109                     I0229587     20121800000000035003410000017N291018104700000000000102012180000000000000000000000000000000000000000100061487856768ROSELI ROCHA DA SILVA FERREIRA          RUA DOUTOR MESQUITA                     NOSSA SENHOR27113010BARRA DO PIRAI RJUNIAO UMB DOS CULTOS AFRO BRAS    20121810 000087
10231987175000168817800093673    000029577                    000295770000000000000109                     I0229577     20121800000000035003410000017N291018104700000000000102012180000000000000000000000000000000000000000100021973989700NILZA ARAGUEZ                           RUA PAJURA                              TAQUARA     22740210RIO DE JANEIRO RJUNIAO UMB DOS CULTOS AFRO BRAS    20121810 000088
10231987175000168817800093673    000029284                    000292840000000000000109                     I0229284     20121800000000035003410000017N291018104700000000000102012180000000000000000000000000000000000000000100066391482772VERA LUCIA BARBOSA FERREIRA             RUA JOAO VICENTE                        MARECHAL HER21610210RIO DE JANEIRO RJUNIAO UMB DOS CULTOS AFRO BRAS    20121810 000089
10231987175000168817800093673    000029204                    000292040000000000000109                     I0229204     20121800000000035003410000017N291018104700000000000102012180000000000000000000000000000000000000000100048950572753ORQUIDEA JOSE DOS SANTOS                RUA JESSIE VENTURA                      SANTA CECILI25233130DUQUE DE CAXIASRJUNIAO UMB DOS CULTOS AFRO BRAS    20121810 000090
10231987175000168817800093673    000029190                    000291900000000000000109                     I0229190     20121800000000035003410000017N291018104700000000000102012180000000000000000000000000000000000000000100054770122772EDUARDO DOS SANTOS REIS NETO            RUA BURITI                              MADUREIRA   20231046RIO DE JANEIRO RJUNIAO UMB DOS CULTOS AFRO BRAS    20121810 000091
10231987175000168817800093673    000029164                    000291640000000000000109                     I0229164     20121800000000035003410000017N291018104700000000000102012180000000000000000000000000000000000000000100079558763772HUGO XAVIER                             RUA EUGENIO SIMOES                      ITAUNA      24473000RIO DE JANEIRO RJUNIAO UMB DOS CULTOS AFRO BRAS    20121810 000092
10231987175000168817800093673    000028352                    000283520000000000000109                     I0228352     30111800000000035003410000017N200818104700000000000103011180000000000000000000000000000000000000000100003387547720APARECIDA DOS SANTOS                    RUA CRACATUA                            HELIOPOLIS  26125170BELFORD ROXO   RJUNIAO UMB DOS CULTOS AFRO BRAS    30111810 000093
10231987175000168817800093673    000028134                    000281340000000000000109                     I0228134     30111800000000035003410000017N200818104700000000000103011180000000000000000000000000000000000000000100080801048753SUZEEL RODRIGUES BISPO BENJAMI          RUA CURITIBA                            REALENGO    21730240RIO DE JANEIRO RJUNIAO UMB DOS CULTOS AFRO BRAS    30111810 000094
10231987175000168817800093673    000027665                    000276650000000000000109                     I0227665     30111800000000035003410000017N200818104700000000000103011180000000000000000000000000000000000000000100061487856768ROSELI ROCHA DA SILVA FERREIRA          RUA DOUTOR MESQUITA                     NOSSA SENHOR27113010BARRA DO PIRAI RJUNIAO UMB DOS CULTOS AFRO BRAS    30111810 000095
10231987175000168817800093673    000027269                    000272690000000000000109                     I0227269     30111800000000035003410000017N200818104700000000000103011180000000000000000000000000000000000000000100048950572753ORQUIDEA JOSE DOS SANTOS                RUA JESSIE VENTURA                      SANTA CECILI25233130DUQUE DE CAXIASRJUNIAO UMB DOS CULTOS AFRO BRAS    30111810 000096
10231987175000168817800093673    000027230                    000272300000000000000109                     I0227230     30111800000000035003410000017N200818104700000000000103011180000000000000000000000000000000000000000100079558763772HUGO XAVIER                             RUA EUGENIO SIMOES                      ITAUNA      24473000RIO DE JANEIRO RJUNIAO UMB DOS CULTOS AFRO BRAS    30111810 000097
9                                                                                                                                                                                                                                                                                                                                                                                                         000098
