01REMESSA01COBRANCA       817800093673        União Umb dos Cultos Afro Bra341BANCO ITAU SA  290119                                                                                                                                                                                                                                                                                                      000001
10231987175000168817800093673    000039659                    000396590000000000000109                     I0139659     31031900000000025003410000017N280119104700000000000103103190000000000000000000000000000000000000000100052329160763NENI GOMES DE ALMEIDA                   RUA MARIA SANTANA FERNANDES             JARDIM ACACI23845250SEROPEDICA     RJUNIAO UMB DOS CULTOS AFRO BRAS    31031910 000002
10231987175000168817800093673    000039658                    000396580000000000000109                     I0139658     28021900000000025003410000017N280119104700000000000102802190000000000000000000000000000000000000000100052329160763NENI GOMES DE ALMEIDA                   RUA MARIA SANTANA FERNANDES             JARDIM ACACI23845250SEROPEDICA     RJUNIAO UMB DOS CULTOS AFRO BRAS    28021910 000003
10231987175000168817800093673    000039657                    000396570000000000000109                     I0139657     05021900000000350003410000017N280119104700000000000100502190000000000000000000000000000000000000000100004826958706CRISTIANE RABELLO PAZ                   RUA ROBERTO SILVA                       RAMOS       21060230RIO DE JANEIRO RJUNIAO UMB DOS CULTOS AFRO BRAS    05021910 000004
10231987175000168817800093673    000039656                    000396560000000000000109                     I0139656     29031900000000040003410000017N280119104700000000000102903190000000000000000000000000000000000000000100000729885763MANOEL BENEDITO DOS SANTOS              RUA CEARA                               CIDADE BEIRA28890200RIO DAS OSTRAS RJUNIAO UMB DOS CULTOS AFRO BRAS    29031910 000005
10231987175000168817800093673    000039655                    000396550000000000000109                     I0139655     28021900000000040003410000017N280119104700000000000102802190000000000000000000000000000000000000000100000729885763MANOEL BENEDITO DOS SANTOS              RUA CEARA                               CIDADE BEIRA28890200RIO DAS OSTRAS RJUNIAO UMB DOS CULTOS AFRO BRAS    28021910 000006
10231987175000168817800093673    000039654                    000396540000000000000109                     I0139654     05021900000000350003410000017N280119104700000000000100502190000000000000000000000000000000000000000100002126696723LUCI DA CUNHA ARTUR                     AVENIDA FRANCISCO CHRISOSTOMOS TORRES   PINTO DA SER27286440VOLTA REDONDA  RJUNIAO UMB DOS CULTOS AFRO BRAS    05021910 000007
10231987175000168817800093673    000038570                    000385700000000000000109                     I0238570     30031900000000040003410000017N261218104700000000000103003190000000000000000000000000000000000000000100097431613768SIMONE DE FIGUEIREDO GOMES AZI          RUA SANTA LUZ                           VISTA ALEGRE00000000RIO DE JANEIRO RJUNIAO UMB DOS CULTOS AFRO BRAS    30031910 000008
10231987175000168817800093673    000037994                    000379940000000000000109                     I0237994     30031900000000025003410000017N261218104700000000000103003190000000000000000000000000000000000000000100052329160763NENI GOMES DE ALMEIDA                   RUA MARIA SANTANA FERNANDES             JARDIM ACACI23845250SEROPEDICA     RJUNIAO UMB DOS CULTOS AFRO BRAS    30031910 000009
10231987175000168817800093673    000036653                    000366530000000000000109                     I0236653     28021900000000040003410000017N261218104700000000000102802190000000000000000000000000000000000000000100097431613768SIMONE DE FIGUEIREDO GOMES AZI          RUA SANTA LUZ                           VISTA ALEGRE00000000RIO DE JANEIRO RJUNIAO UMB DOS CULTOS AFRO BRAS    28021910 000010
10231987175000168817800093673    000036079                    000360790000000000000109                     I0236079     28021900000000025003410000017N261218104700000000000102802190000000000000000000000000000000000000000100052329160763NENI GOMES DE ALMEIDA                   RUA MARIA SANTANA FERNANDES             JARDIM ACACI23845250SEROPEDICA     RJUNIAO UMB DOS CULTOS AFRO BRAS    28021910 000011
10231987175000168817800093673    000034743                    000347430000000000000109                     I0234743     31011900000000040003410000017N261218104700000000000103101190000000000000000000000000000000000000000100097431613768SIMONE DE FIGUEIREDO GOMES AZI          RUA SANTA LUZ                           VISTA ALEGRE00000000RIO DE JANEIRO RJUNIAO UMB DOS CULTOS AFRO BRAS    31011910 000012
10231987175000168817800093673    000034174                    000341740000000000000109                     I0234174     31011900000000025003410000017N261218104700000000000103101190000000000000000000000000000000000000000100052329160763NENI GOMES DE ALMEIDA                   RUA MARIA SANTANA FERNANDES             JARDIM ACACI23845250SEROPEDICA     RJUNIAO UMB DOS CULTOS AFRO BRAS    31011910 000013
10231987175000168817800093673    000032446                    000324460000000000000109                     I0232446     20121800000000350003410000017N291018104700000000000102012180000000000000000000000000000000000000000100004826958706CRISTIANE RABELLO PAZ                   RUA ROBERTO SILVA                       RAMOS       21060230RIO DE JANEIRO RJUNIAO UMB DOS CULTOS AFRO BRAS    20121810 000014
10231987175000168817800093673    000032048                    000320480000000000000109                     I0232048     20121800000000350003410000017N291018104700000000000102012180000000000000000000000000000000000000000100059475161791MARIA NAZARETE ALVES ANTONIO            TRAVESSA SANTOS DUMONT                  ILHA DO GOVE21910490RIO DE JANEIRO RJUNIAO UMB DOS CULTOS AFRO BRAS    20121810 000015
10231987175000168817800093673    000031320                    000313200000000000000109                     I0231320     20121800000000250003410000017N291018104700000000000102012180000000000000000000000000000000000000000100052329160763NENI GOMES DE ALMEIDA                   RUA MARIA SANTANA FERNANDES             JARDIM ACACI23845250SEROPEDICA     RJUNIAO UMB DOS CULTOS AFRO BRAS    20121810 000016
9                                                                                                                                                                                                                                                                                                                                                                                                         000017
