01REMESSA01COBRANCA       817800093673        União Umb dos Cultos Afro Bra341BANCO ITAU SA  011018                                                                                                                                                                                                                                                                                                      000001
10231987175000168817800093673    000028829                    000288290000000000000109                     I0128829     05101800000000035003410000017N011018104700000000000100510180000000000000000000000000000000000000000100007326065780MARCELO BORGES DE SOUZA                 TRAVESSA: MOTA                          BARRO VERMEL24415390NITEROI        RJUNIAO UMB DOS CULTOS AFRO BRAS    05101810 000002
10231987175000168817800093673    000028828                    000288280000000000000109                     I0128828     15111800000000400003410000017N011018104700000000000101511180000000000000000000000000000000000000000100058137840710GUARACIARA DA SILVA FERREIRA            RUA ANA MARIA DE QUEIROZ MATOSO         PARQUE ANALA25571161SAO JOAO DE MERRJUNIAO UMB DOS CULTOS AFRO BRAS    15111810 000003
10231987175000168817800093673    000028827                    000288270000000000000109                     I0128827     02101800000000040003410000017N011018104700000000000100210180000000000000000000000000000000000000000100008722484701ANA PAULA SILVA DA CRUZ                 RUA ELVIRA DA FONSECA                   LARGO DO TAN22733150RIO DE JANEIRO RJUNIAO UMB DOS CULTOS AFRO BRAS    02101810 000004
10231987175000168817800093673    000028826                    000288260000000000000109                     I0128826     30111800000000040003410000017N011018104700000000000103011180000000000000000000000000000000000000000100088676889791JANE LUCIA LESSA SILVA                  RUA: OLIVEIRA JUNQUEIRA                 BENTO RIBEIR21331170RIO DE JANEIRO RJUNIAO UMB DOS CULTOS AFRO BRAS    30111810 000005
10231987175000168817800093673    000028825                    000288250000000000000109                     I0128825     31101800000000040003410000017N011018104700000000000103110180000000000000000000000000000000000000000100088676889791JANE LUCIA LESSA SILVA                  RUA: OLIVEIRA JUNQUEIRA                 BENTO RIBEIR21331170RIO DE JANEIRO RJUNIAO UMB DOS CULTOS AFRO BRAS    31101810 000006
10231987175000168817800093673    000028824                    000288240000000000000109                     I0128824     31101800000000350003410000017N011018104700000000000103110180000000000000000000000000000000000000000100037660896768JORGE LESSA TRUGILHO                    RUA: MADALENA                           SENADOR CAMA21843000RIO DE JANEIRO RJUNIAO UMB DOS CULTOS AFRO BRAS    31101810 000007
10231987175000168817800093673    000028823                    000288230000000000000109                     I0128823     19101800000000385003410000017N011018104700000000000101910180000000000000000000000000000000000000000100000129467707SANDRA CRISTINA DOS SANTOS TIT          RUA DAVI                                CIDADE DE DE22777243JACAREPAGUA    RJUNIAO UMB DOS CULTOS AFRO BRAS    19101810 000008
10231987175000168817800093673    000028822                    000288220000000000000109                     I0128822     30101800000000400003410000017N300918104700000000000103010180000000000000000000000000000000000000000100076636429704SONIA REGINA GOMES AMAZONAS             RUA MAJOR PARENTES                      MAGALHAES BA21735100RIO DE JANEIRO RJUNIAO UMB DOS CULTOS AFRO BRAS    30101810 000009
10231987175000168817800093673    000028348                    000283480000000000000109                     I3428348     30111800000000035003410000017N200818104700000000000103011180000000000000000000000000000000000000000100007459837741LUIZ CARLOS CARDOSO                     RUA WALDIR CARDOSO                      PAU GRANDE  25917040MAGE           RJUNIAO UMB DOS CULTOS AFRO BRAS    30111810 000010
10231987175000168817800093673    000027955                    000279550000000000000109                     I3427955     30111800000000035003410000017N200818104700000000000103011180000000000000000000000000000000000000000100002830222725SHEILA RODRIGUES                        RUA: DOS OPERARIOS                      NOVO MUNDO  25900000MAGE           RJUNIAO UMB DOS CULTOS AFRO BRAS    30111810 000011
10231987175000168817800093673    000027615                    000276150000000000000109                     I0227615     30111800000000035003410000017N200818104700000000000103011180000000000000000000000000000000000000000100000672393743RAFAEL CASAMASSO DA COSTA               RUA: JOAO CAETANO                       CENTRO      25610010PETROPOLIS     RJUNIAO UMB DOS CULTOS AFRO BRAS    30111810 000012
10231987175000168817800093673    000026925                    000269250000000000000109                     I3426925     30091800000000035003410000017N200818104700000000000103009180000000000000000000000000000000000000000100007459837741LUIZ CARLOS CARDOSO                     RUA WALDIR CARDOSO                      PAU GRANDE  25917040MAGE           RJUNIAO UMB DOS CULTOS AFRO BRAS    30091810 000013
10231987175000168817800093673    000026862                    000268620000000000000109                     I3426862     30091800000000035003410000017N200818104700000000000103009180000000000000000000000000000000000000000100014520518792STEPHANI MATOS MONTEIRO                 ESTRADA DOUTOR PLINIO CASADO            CENTRO      26130622BELFORD ROXO   RJUNIAO UMB DOS CULTOS AFRO BRAS    30091810 000014
10231987175000168817800093673    000026814                    000268140000000000000109                     I3426814     30091800000000035003410000017N200818104700000000000103009180000000000000000000000000000000000000000100003025076712MARIA QUITERIA DOS SANTOS PITA          RUA MISSIONARIO CHRISTIE                QUISSAMA    25615250PETROPOLIS     RJUNIAO UMB DOS CULTOS AFRO BRAS    30091810 000015
10231987175000168817800093673    000026535                    000265350000000000000109                     I3426535     30091800000000035003410000017N200818104700000000000103009180000000000000000000000000000000000000000100002830222725SHEILA RODRIGUES                        RUA: DOS OPERARIOS                      NOVO MUNDO  25900000MAGE           RJUNIAO UMB DOS CULTOS AFRO BRAS    30091810 000016
10231987175000168817800093673    000026484                    000264840000000000000109                     I3426484     30091800000000035003410000017N200818104700000000000103009180000000000000000000000000000000000000000100013814528760TIAGO FRANCISLEI PEREIRA REALI          RUA HONORIO ROQUE                       ARTUR CATALD24115260BARRA DO PIRAI RJUNIAO UMB DOS CULTOS AFRO BRAS    30091810 000017
10231987175000168817800093673    000026197                    000261970000000000000109                     I0226197     30091800000000035003410000017N200818104700000000000103009180000000000000000000000000000000000000000100000672393743RAFAEL CASAMASSO DA COSTA               RUA: JOAO CAETANO                       CENTRO      25610010PETROPOLIS     RJUNIAO UMB DOS CULTOS AFRO BRAS    30091810 000018
10231987175000168817800093673    000026095                    000260950000000000000109                     I3426095     30091800000000035003410000017N200818104700000000000103009180000000000000000000000000000000000000000100003535090784SOLANGE PEREIRA DA SILVA                RUA MANUEL MIRANDA, 226                 ENGENHO NOVO20950300RIO DE JANEIRO RJUNIAO UMB DOS CULTOS AFRO BRAS    30091810 000019
10231987175000168817800093673    000025510                    000255100000000000000109                     I3425510     30101800000000035003410000017N200818104700000000000103010180000000000000000000000000000000000000000100007459837741LUIZ CARLOS CARDOSO                     RUA WALDIR CARDOSO                      PAU GRANDE  25917040MAGE           RJUNIAO UMB DOS CULTOS AFRO BRAS    30101810 000020
10231987175000168817800093673    000025118                    000251180000000000000109                     I3425118     30101800000000035003410000017N200818104700000000000103010180000000000000000000000000000000000000000100002830222725SHEILA RODRIGUES                        RUA: DOS OPERARIOS                      NOVO MUNDO  25900000MAGE           RJUNIAO UMB DOS CULTOS AFRO BRAS    30101810 000021
10231987175000168817800093673    000024778                    000247780000000000000109                     I0224778     30101800000000035003410000017N200818104700000000000103010180000000000000000000000000000000000000000100000672393743RAFAEL CASAMASSO DA COSTA               RUA: JOAO CAETANO                       CENTRO      25610010PETROPOLIS     RJUNIAO UMB DOS CULTOS AFRO BRAS    30101810 000022
10231987175000168817800093673    000024405                    000244050000000000000109                     I3424405     30101800000000035003410000017N200818104700000000000103010180000000000000000000000000000000000000000100009886046716ANA CRISTINA DE ALMEIDA TRINDA          RUA COTIJUBA N 156                      ROCHA MIRAND21555020RIO DE JANEIRO RJUNIAO UMB DOS CULTOS AFRO BRAS    30101810 000023
10231987175000168817800093673    000021338                    000213380000000000000109                     I0221338     10081800000000533513410000017N300718104700000000000101008180000000000000000000000000000000000000000100093728467791ALEX DE SOUZA MARTINS                   RUA: JOAO DANIEL                        BENTO RIBEIR21550480RIO DE JANEIRO RJUNIAO UMB DOS CULTOS AFRO BRAS    10081810 000024
10231987175000168817800093673    000021336                    000213360000000000000109                     I0221336     10081800000000175003410000017N300718104700000000000101008180000000000000000000000000000000000000000100015295681700MICHEL FERNANDES BASTOS CRESPO          RUA ROSANGELA TOSTES                    PARQUE FLUMI26185260BELFORD ROXO   RJUNIAO UMB DOS CULTOS AFRO BRAS    10081810 000025
10231987175000168817800093673    000021260                    000212600000000000000109                     I0221260     05081800000000210003410000017N040718104700000000000100508180000000000000000000000000000000000000000100014963009714MICHELLE DA SILVA SOARES                RUA MINAS GERAIS                        PIABETA     25935525MAGE           RJUNIAO UMB DOS CULTOS AFRO BRAS    05081810 000026
9                                                                                                                                                                                                                                                                                                                                                                                                         000027
