01REMESSA01COBRANCA       916200163100        União Umb dos Cultos Afro Bra341BANCO ITAU SA  150318                                                                                                                                                                                                                                                                                                      000001
10231987175000168916200163100    000014212                    000142120000000000000109                     I0114212     30051800000000035003410000017N140318104700000000000103005180000000000000000000000000000000000000000100003372466705SANDRO NASCIMENTO NOBREGA               RUA JOAO ROMARIZ                        RAMOS       21031700RIO DE JANEIRO RJUNIAO UMB DOS CULTOS AFRO BRAS    30051810 000002
10231987175000168916200163100    000014211                    000142110000000000000109                     I0114211     30041800000000035003410000017N140318104700000000000103004180000000000000000000000000000000000000000100003372466705SANDRO NASCIMENTO NOBREGA               RUA JOAO ROMARIZ                        RAMOS       21031700RIO DE JANEIRO RJUNIAO UMB DOS CULTOS AFRO BRAS    30041810 000003
10231987175000168916200163100    000014210                    000142100000000000000109                     I0114210     30051800000000035003410000017N140318104700000000000103005180000000000000000000000000000000000000000100085542091768SUELY PEREIRA DA SILVA CALIXTO          RICARDO XAVIER DA SILVEIRA              IMBARIE     25266005DUQUE DE CAXIASRJUNIAO UMB DOS CULTOS AFRO BRAS    30051810 000004
10231987175000168916200163100    000014209                    000142090000000000000109                     I0114209     30041800000000035003410000017N140318104700000000000103004180000000000000000000000000000000000000000100085542091768SUELY PEREIRA DA SILVA CALIXTO          RICARDO XAVIER DA SILVEIRA              IMBARIE     25266005DUQUE DE CAXIASRJUNIAO UMB DOS CULTOS AFRO BRAS    30041810 000005
10231987175000168916200163100    000014208                    000142080000000000000109                     I0114208     30031800000000280003410000017N140318104700000000000103003180000000000000000000000000000000000000000100000672393743RAFAEL CASAMASSO DA COSTA               RUA JOAO CAETANO N 198 A                CENTRO - PET25610010PETROPOLIS     RJUNIAO UMB DOS CULTOS AFRO BRAS    30031810 000006
10231987175000168916200163100    000014207                    000142070000000000000109                     I0114207     13041800000000330003410000017N130318104700000000000101304180000000000000000000000000000000000000000100002161361724ELISANGELA VIRGINIA CARVALHO A          RUA JUIZ JORGE SALOMAO, 191 CASA 18     ENGENHO NOVO20950360RIO DE JANEIRO RJUNIAO UMB DOS CULTOS AFRO BRAS    13041810 000007
10231987175000168916200163100    000014139                    000141390000000000000109                     I0214139     05031800000000070003410000017N010318104700000000000100503180000000000000000000000000000000000000000100077165772715EDNA SANTOS DA TRINDADE                 ESTRADA DO PIAI N 3910 - QUADRA B CASA 7SEPETIBA - R23530610RIO DE JANEIRI RJUNIAO UMB DOS CULTOS AFRO BRAS    05031810 000008
10231987175000168916200163100    000014136                    000141360000000000000109                     I3414136     10031800000000633883410000017N280218104700000000000101003180000000000000000000000000000000000000000100025937030753MANOEL GABRIEL DA SILVA                 RUA: ALCIDES MAIA                       BENTO RIBEIR21550560RIO DE JANEIRO RJUNIAO UMB DOS CULTOS AFRO BRAS    10031810 000009
10231987175000168916200163100    00008726                     000087260000000000000109                     I028726      31011800000000035003410000017N020118104700000000000103101180000000000000000000000000000000000000000100036213373772DULCINEIA RODRIGUES FEITAL              RUA CARNAUBAIS, 15                      SENADOR VASC23012380RIO DE JANEIRO RJUNIAO UMB DOS CULTOS AFRO BRAS    31011810 000010
10231987175000168916200163100    00008700                     000087000000000000000109                     I028700      31011800000000035003410000017N020118104700000000000103101180000000000000000000000000000000000000000100002203155798CARLOS EDUARDO MOREIRA BENTO            RUA WENCESLAU BRAS, SN LOTE 24 QUADRA 27IMBARIE - DU25275160DUQUE DE CAXIASRJUNIAO UMB DOS CULTOS AFRO BRAS    31011810 000011
10231987175000168916200163100    00008653                     000086530000000000000109                     I028653      31011800000000035003410000017N020118104700000000000103101180000000000000000000000000000000000000000100070614628768CREUZA GOMES DA ROCHA                   RUA ITAPERA, 286 BLOCO 31 APTO 102      VISTA ALEGRE21230500RIO DE JANEIRO RJUNIAO UMB DOS CULTOS AFRO BRAS    31011810 000012
10231987175000168916200163100    00008621                     000086210000000000000109                     I028621      31011800000000035003410000017N020118104700000000000103101180000000000000000000000000000000000000000100008861162797MARCIO ARAUJO DE MELO SOUZA             RUA GERALDO LOURENCO, 70 - RIACHAO      JARDIM ROMA 26279325NOVA IGUACU    RJUNIAO UMB DOS CULTOS AFRO BRAS    31011810 000013
10231987175000168916200163100    00004587                     000045870000000000000109                     I024587      22121700000000350003410000017N171117104700000000000102212170000000000000000000000000000000000000000100040664325734GENI BARBOSA ROCHA DA SILVA             O MESMO                                 O MESMO     25268020RIO DE JANEIROIRJUNIAO UMB DOS CULTOS AFRO BRAS    22121710 000014
10231987175000168916200163100    00004031                     000040310000000000000109                     I024031      22121700000000350003410000017N171117104700000000000102212170000000000000000000000000000000000000000100041294270753DENISE ROCHA ROSA                       RUA, TRIESTE LOTES 41 E 42 QUADRA 2     PIABETA - MA25915000MAGE           RJUNIAO UMB DOS CULTOS AFRO BRAS    22121710 000015
10231987175000168916200163100    00004016                     000040160000000000000109                     I024016      22121700000000350003410000017N171117104700000000000102212170000000000000000000000000000000000000000100073711616704SANDRA REGINA BESERRA SILVA             ESTRADA: CAMPO DA AREIA Nº 301 - PECHINJACAREPAGUA 22743311RIO DE JANEIRO RJUNIAO UMB DOS CULTOS AFRO BRAS    22121710 000016
10231987175000168916200163100    00003796                     000037960000000000000109                     I023796      22121700000000350003410000017N171117104700000000000102212170000000000000000000000000000000000000000100077165772715EDNA SANTOS DA TRINDADE                 ESTRADA DO PIAI N 3910 - QUADRA B CASA 7SEPETIBA - R23530610RIO DE JANEIRI RJUNIAO UMB DOS CULTOS AFRO BRAS    22121710 000017
10231987175000168916200163100    00003536                     000035360000000000000109                     I023536      22121700000000350003410000017N171117104700000000000102212170000000000000000000000000000000000000000100070891036768EDNA FERREIRA DE MELO                   RUA SARGENTO MARQUETI N 5               MARECHAL HER21611000RIO DE JANEIRO RJUNIAO UMB DOS CULTOS AFRO BRAS    22121710 000018
9                                                                                                                                                                                                                                                                                                                                                                                                         000019
