01REMESSA01COBRANCA       916200163100        União Umb dos Cultos Afro Bra341BANCO ITAU SA  140519                                                                                                                                                                                                                                                                                                      000001
10231987175000168916200163100    000041612                    000416120000000000000109                     I0241612     30051900000000040003410000017N130319105700000000000103005190000000000000000000000000000000000000000100063520788772JOSE DOMINGOS VICTORINO DE SOU          RUA ITAGUAIN 306, FUNDOS - JARDIM CARIOCJARDIM CARIO21921420RIO DE JANEIRO RJUNIAO UMB DOS CULTOS AFRO BRAS    30051915 000002
10231987175000168916200163100    000039980                    000399800000000000000109                     I0239980     30041900000000040003410000017N120319105700000000000103004190000000000000000000000000000000000000000100063520788772JOSE DOMINGOS VICTORINO DE SOU          RUA ITAGUAIN 306, FUNDOS - JARDIM CARIOCJARDIM CARIO21921420RIO DE JANEIRO RJUNIAO UMB DOS CULTOS AFRO BRAS    30041915 000003
9                                                                                                                                                                                                                                                                                                                                                                                                         000004
