01REMESSA01COBRANCA       916200163100        União Umb dos Cultos Afro Bra341BANCO ITAU SA  120318                                                                                                                                                                                                                                                                                                      000001
10231987175000168916200163100    000014206                    000142060000000000000109                     I0114206     13041800000000330003410000017N120318104700000000000101304180000000000000000000000000000000000000000100002161361724ELISANGELA VIRGINIA CARVALHO A          RUA JUIZ JORGE SALOMAO, 191 CASA 18     ENGENHO NOVO20950360RIO DE JANEIRO RJUNIAO UMB DOS CULTOS AFRO BRAS    13041810 000002
10231987175000168916200163100    000014203                    000142030000000000000109                     I0214203     13041800000000330003410000017N120318104700000000000101304180000000000000000000000000000000000000000100009057240700ILAN FERNANDES BRAZILEIRO               RUA NICARAGUA                           PARQUE HOTEL28970000ARARUAMA       RJUNIAO UMB DOS CULTOS AFRO BRAS    13041810 000003
10231987175000168916200163100    000014202                    000142020000000000000109                     I0214202     21031800000000035003410000017N120318104700000000000102103180000000000000000000000000000000000000000100005851795735JOAO LUIZ DE OLIVEIRA MAGALHAE          RUA ANTONIO CARLOS PARANHOS             VILA VALQUEI21321340RIO DE JANEIRO RJUNIAO UMB DOS CULTOS AFRO BRAS    21031810 000004
10231987175000168916200163100    000014201                    000142010000000000000109                     I0214201     31031800000000012003410000017N120318104700000000000103103180000000000000000000000000000000000000000100009057240700ILAN FERNANDES BRAZILEIRO               RUA NICARAGUA                           PARQUE HOTEL28970000ARARUAMA       RJUNIAO UMB DOS CULTOS AFRO BRAS    31031810 000005
10231987175000168916200163100    000014199                    000141990000000000000109                     I0114199     30051800000000035003410000017N120318104700000000000103005180000000000000000000000000000000000000000100002161361724ELISANGELA VIRGINIA CARVALHO A          RUA JUIZ JORGE SALOMAO, 191 CASA 18     ENGENHO NOVO20950360RIO DE JANEIRO RJUNIAO UMB DOS CULTOS AFRO BRAS    30051810 000006
10231987175000168916200163100    000014198                    000141980000000000000109                     I0114198     30041800000000035003410000017N120318104700000000000103004180000000000000000000000000000000000000000100002161361724ELISANGELA VIRGINIA CARVALHO A          RUA JUIZ JORGE SALOMAO, 191 CASA 18     ENGENHO NOVO20950360RIO DE JANEIRO RJUNIAO UMB DOS CULTOS AFRO BRAS    30041810 000007
10231987175000168916200163100    000014197                    000141970000000000000109                     I0114197     30031800000000035003410000017N120318104700000000000103003180000000000000000000000000000000000000000100002161361724ELISANGELA VIRGINIA CARVALHO A          RUA JUIZ JORGE SALOMAO, 191 CASA 18     ENGENHO NOVO20950360RIO DE JANEIRO RJUNIAO UMB DOS CULTOS AFRO BRAS    30031810 000008
10231987175000168916200163100    00008838                     000088380000000000000109                     I348838      31011800000000035003410000017N020118104700000000000103101180000000000000000000000000000000000000000100001030634718EDILENE DE OLIVEIRA FERREIRA            RUA IPE LOTE 18 QUADRA 128              PRADO VERDE 26299279NOVA IGUACU    RJUNIAO UMB DOS CULTOS AFRO BRAS    31011810 000009
10231987175000168916200163100    00008514                     000085140000000000000109                     I028514      31011800000000035003410000017N020118104700000000000103101180000000000000000000000000000000000000000100086901770782EVANILDE DE ARAUJO                      RUA MARQUES CANARIO, 471                CHATUBA - ME26587650RIO DE JANEIRO RJUNIAO UMB DOS CULTOS AFRO BRAS    31011810 000010
10231987175000168916200163100    00004310                     000043100000000000000109                     I024310      22121700000000350003410000017N171117104700000000000102212170000000000000000000000000000000000000000100001582280738NATALICIA LOPES PEREIRA                 ALAMEDA JORGINHO, 36 LOTE 11 QUADRA 24  FRAGOSO - MA29000000MAGE           RJUNIAO UMB DOS CULTOS AFRO BRAS    22121710 000011
10231987175000168916200163100    00004052                     000040520000000000000109                     I024052      22121700000000350003410000017N171117104700000000000102212170000000000000000000000000000000000000000100072461780749FATIMA GARCIA                           RODOVIA 116 KM 3,5 LT 31 QD 2 SAMBAETIBAITABORAI - R24843000RIO DE JANEIRO RJUNIAO UMB DOS CULTOS AFRO BRAS    22121710 000012
10231987175000168916200163100    00002858                     000028580000000000000109                     I022858      31121700000000035003410000017N131117104700000000000103112170000000000000000000000000000000000000000100001582280738NATALICIA LOPES PEREIRA                 ALAMEDA JORGINHO, 36 LOTE 11 QUADRA 24  FRAGOSO - MA29000000MAGE           RJUNIAO UMB DOS CULTOS AFRO BRAS    31121710 000013
10231987175000168916200163100    00002590                     000025900000000000000109                     I022590      31121700000000035003410000017N131117104700000000000103112170000000000000000000000000000000000000000100072461780749FATIMA GARCIA                           RODOVIA 116 KM 3,5 LT 31 QD 2 SAMBAETIBAITABORAI - R24843000RIO DE JANEIRO RJUNIAO UMB DOS CULTOS AFRO BRAS    31121710 000014
9                                                                                                                                                                                                                                                                                                                                                                                                         000015
