01REMESSA01COBRANCA       817800093673        União Umb dos Cultos Afro Bra341BANCO ITAU SA  200519                                                                                                                                                                                                                                                                                                      000001
10231987175000168817800093673    000045281                    000452810000000000000109                     I3445281     30051900000000010003410000017N170519105700000000000103005190000000000000000000000000000000000000000100005851795735JOAO LUIZ DE OLIVEIRA MAGALHAE          RUA ANTONIO CARLOS PARANHOSN 29,        VILA VALQUEI21321340RIO DE JANEIRO RJUNIAO UMB DOS CULTOS AFRO BRAS    30051915 000002
10231987175000168817800093673    000038424                    000384240000000000000109                     I0238424     30031900000000040003410000017N261218105700000000000103003190000000000000000000000000000000000000000100011452515794DEBORAH CHRISTINA DA SILVA CAN          RUA LAZARO MONCEFN 53,                  SEPETIBA    23540190RIO DE JANEIRO RJUNIAO UMB DOS CULTOS AFRO BRAS    30031915 000003
9                                                                                                                                                                                                                                                                                                                                                                                                         000004
