01REMESSA01COBRANCA       916200163100        União Umb dos Cultos Afro Bra341BANCO ITAU SA  080118                                                                                                                                                                                                                                                                                                      000001
10231987175000168916200163100    00008585                     000085850000000000000109                     I028585      31011800000000035003410000017N020118050900000000000103101180000000000000000000000000000000000000000100064891712791MOSENIRA DA SILVA COSTA                 RUA MARQUESA DE SANTOS, LOTE 8 QUADRA 50VILA ROSARIO25040070DUQUE DE CAXIASRJUNIAO UMB DOS CULTOS AFRO BRAS    31011810 000002
9                                                                                                                                                                                                                                                                                                                                                                                                         000003
