01REMESSA01COBRANCA       817800093673        União Umb dos Cultos Afro Bra341BANCO ITAU SA  090118                                                                                                                                                                                                                                                                                                      000001
10231987175000168817800093673    00006080                     000060800000000000000109                     I016080      05011800000000140003410000017N271217050900000000000100501180000000000000000000000000000000000000000100003341741738CASSIA GOMES CASTORINO                  RUA: COMENDADOR CRISOSTEMO CRUZ LOTE 13 STª MARIA -26165400BELFORD ROXO   RJUNIAO UMB DOS CULTOS AFRO BRAS    05011810 000002
10231987175000168817800093673    00006079                     000060790000000000000109                     I016079      31011800000000035003410000017N261217050900000000000103101180000000000000000000000000000000000000000100001298660750ROSEMBERG EFIGENIO BARBOSA              RUA: TANCREDO MARTINS COSTA             ENGENHO DE D20730310RIO DE JANEIRO RJUNIAO UMB DOS CULTOS AFRO BRAS    31011810 000003
10231987175000168817800093673    00006078                     000060780000000000000109                     I016078      31011800000000035003410000017N261217050900000000000103101180000000000000000000000000000000000000000100050246534753TANIA MARIA DA SILVA OLIVEIRA           TRAVESSA: MARAJO                        LINDO PARQUE24420100SAO GONCALO    RJUNIAO UMB DOS CULTOS AFRO BRAS    31011810 000004
10231987175000168817800093673    00006077                     000060770000000000000109                     I016077      31011800000000035003410000017N261217050900000000000103101180000000000000000000000000000000000000000100006915594736CINTIA FERREIRA                         AVENIDA: DAS AMERICAS                   BARRA DA TIJ22631004RIO DE JANEIRO RJUNIAO UMB DOS CULTOS AFRO BRAS    31011810 000005
10231987175000168817800093673    00006076                     000060760000000000000109                     I016076      31011800000000035003410000017N261217050900000000000103101180000000000000000000000000000000000000000100011497058767DIEGO FERREIRA DA SILVA                 PRIMEIRO DE MAIO                        IPIRANGA    26293480NOVA IGUACU    RJUNIAO UMB DOS CULTOS AFRO BRAS    31011810 000006
10231987175000168817800093673    00006075                     000060750000000000000109                     I016075      31011800000000035003410000017N261217050900000000000103101180000000000000000000000000000000000000000100044415443753ELIDE LEANDRO BARBOSA                   RUA: ENGENHEIRO PERICLES RIBEIRO        FONSECA     24130350NITEROI        RJUNIAO UMB DOS CULTOS AFRO BRAS    31011810 000007
10231987175000168817800093673    00006074                     000060740000000000000109                     I016074      31011800000000035003410000017N261217050900000000000103101180000000000000000000000000000000000000000100003387547720APARECIDA DOS SANTOS                    RUA LAOS                                VILA HELIOPO26125170BELFORD ROXO   RJUNIAO UMB DOS CULTOS AFRO BRAS    31011810 000008
10231987175000168817800093673    00006073                     000060730000000000000109                     I016073      31011800000000035003410000017N261217050900000000000103101180000000000000000000000000000000000000000100062663810797PAULO AMERICO MOTTA DE AGUIAR           RUA CORURIPE                            MARECHAL HER21555490RIO DE JANEIRO RJUNIAO UMB DOS CULTOS AFRO BRAS    31011810 000009
10231987175000168817800093673    00006071                     000060710000000000000109                     I016071      31011800000000035003410000017N261217050900000000000103101180000000000000000000000000000000000000000100090219023700GUARACIARA CORREA PASCHOAL              RUA JOSE CABRAL                         VAL VERDE   26290783NOVA IGUACU    RJUNIAO UMB DOS CULTOS AFRO BRAS    31011810 000010
10231987175000168817800093673    00006070                     000060700000000000000109                     I016070      31011800000000035003410000017N261217050900000000000103101180000000000000000000000000000000000000000100000640795706CELIA REGINA ALVES DE SOUZA CO          ESTRADA: SAO PEDRO                      VISTA ALEGRE24725240SAO GONCALO    RJUNIAO UMB DOS CULTOS AFRO BRAS    31011810 000011
10231987175000168817800093673    00006069                     000060690000000000000109                     I016069      31011800000000035003410000017N261217050900000000000103101180000000000000000000000000000000000000000100007459837741LUIZ CARLOS CARDOSO                     O MESMO                                 O MESMO     25917040MAGE           RJUNIAO UMB DOS CULTOS AFRO BRAS    31011810 000012
10231987175000168817800093673    00006068                     000060680000000000000109                     I016068      31011800000000035003410000017N261217050900000000000103101180000000000000000000000000000000000000000100023970090563MARCIA VIEIRA SALES                     O MESMO                                 O MESMO     22740220RIO DE JANEIRO RJUNIAO UMB DOS CULTOS AFRO BRAS    31011810 000013
10231987175000168817800093673    00006067                     000060670000000000000109                     I016067      31011800000000035003410000017N261217050900000000000103101180000000000000000000000000000000000000000100011264005725MARECELO VIEIRA GUSMAN FILHO            MESMO                                   MESMO       23066470RIO DE JANEIRO RJUNIAO UMB DOS CULTOS AFRO BRAS    31011810 000014
10231987175000168817800093673    00006066                     000060660000000000000109                     I016066      31011800000000035003410000017N261217050900000000000103101180000000000000000000000000000000000000000100001343022738LUCIANA FIGUEIRO COUTINHO DA S          O MESMO                                 O MESMO     22785600RIO DE JANEIRO RJUNIAO UMB DOS CULTOS AFRO BRAS    31011810 000015
10231987175000168817800093673    00006065                     000060650000000000000109                     I016065      31011800000000035003410000017N261217050900000000000103101180000000000000000000000000000000000000000100006726905432DAYVIDY RAMON CANDIDO                   O MESMO                                 O MESMO     26415055JAPERI         RJUNIAO UMB DOS CULTOS AFRO BRAS    31011810 000016
10231987175000168817800093673    00006064                     000060640000000000000109                     I016064      31011800000000035003410000017N261217050900000000000103101180000000000000000000000000000000000000000100053531396749VITALINA DOS SANTOS                     RUA SAQUAREMA                           GRAMACHO    25035425DUQUE DE CAXIASRJUNIAO UMB DOS CULTOS AFRO BRAS    31011810 000017
10231987175000168817800093673    00006063                     000060630000000000000109                     I016063      31011800000000035003410000017N261217050900000000000103101180000000000000000000000000000000000000000100003604572746LUCIANA SANTOS DA SILVA DE LIM          O MESMO                                 O MESMO     25585110SAO JOAO DE MERRJUNIAO UMB DOS CULTOS AFRO BRAS    31011810 000018
10231987175000168817800093673    00006062                     000060620000000000000109                     I016062      31011800000000035003410000017N261217050900000000000103101180000000000000000000000000000000000000000100009445907728VICTOR DOS SANTOS ALLEN                 RUA PEDRO TELES                         SAO JOAO DE 25515032SAO JOAO DE MERRJUNIAO UMB DOS CULTOS AFRO BRAS    31011810 000019
10231987175000168817800093673    00006061                     000060610000000000000109                     I016061      31011800000000035003410000017N261217050900000000000103101180000000000000000000000000000000000000000100011549239759RENATA DE OLIVEIRA GASPAR               O MESMO                                 O MESMO     21350230RIO DE JANEIRO RJUNIAO UMB DOS CULTOS AFRO BRAS    31011810 000020
10231987175000168817800093673    00006059                     000060590000000000000109                     I016059      31011800000000035003410000017N261217050900000000000103101180000000000000000000000000000000000000000100015429555134OBIRACI SILVA DO NASCIMENTO             O MESMO                                 O MESMO     24756280SAO GONCALO    RJUNIAO UMB DOS CULTOS AFRO BRAS    31011810 000021
10231987175000168817800093673    00006058                     000060580000000000000109                     I016058      31011800000000035003410000017N261217050900000000000103101180000000000000000000000000000000000000000100012519709740KARINE NOVAIS DE ANDRADE                O MESMO                                 O MESMO     22780610RIO DE JANEIRO RJUNIAO UMB DOS CULTOS AFRO BRAS    31011810 000022
10231987175000168817800093673    00006057                     000060570000000000000109                     I016057      31011800000000020003410000017N261217050900000000000103101180000000000000000000000000000000000000000100015903167896PRISCILA APARECIDA SERRANO CLE          MESMO                                   MESMO       02251010SAO PAULO      SPUNIAO UMB DOS CULTOS AFRO BRAS    31011810 000023
10231987175000168817800093673    00006056                     000060560000000000000109                     I016056      31011800000000035003410000017N261217050900000000000103101180000000000000000000000000000000000000000100006864504778FABIO GUILHERME DOS SANTOS              O MESMO                                 O MESMO     24723190SAO GONCALO    RJUNIAO UMB DOS CULTOS AFRO BRAS    31011810 000024
10231987175000168817800093673    00006055                     000060550000000000000109                     I016055      31011800000000035003410000017N261217050900000000000103101180000000000000000000000000000000000000000100001234567890LUCIANO SOARES DA SILVA                 O MESMO                                 O MESMO     27910000MACAE          RJUNIAO UMB DOS CULTOS AFRO BRAS    31011810 000025
10231987175000168817800093673    00006054                     000060540000000000000109                     I016054      31011800000000035003410000017N261217050900000000000103101180000000000000000000000000000000000000000100013849060705LEONARDO ENEDINA DE MELO                O MESMO                                 O MESMO     26050517NOVA IGUACU    RJUNIAO UMB DOS CULTOS AFRO BRAS    31011810 000026
10231987175000168817800093673    00006053                     000060530000000000000109                     I016053      31011800000000035003410000017N261217050900000000000103101180000000000000000000000000000000000000000100085906743715FRANCISCA CELIA LEANDRO NEVES           O MESMO                                 O MESMO     21540460RIO DE JANEIRO RJUNIAO UMB DOS CULTOS AFRO BRAS    31011810 000027
10231987175000168817800093673    00006051                     000060510000000000000109                     I016051      31011800000000035003410000017N261217050900000000000103101180000000000000000000000000000000000000000100082391106734CASSIO SOUZA DA COSTA                   O MESMO                                 O MESMO     26112220BELFORD ROXO   RJUNIAO UMB DOS CULTOS AFRO BRAS    31011810 000028
10231987175000168817800093673    00006050                     000060500000000000000109                     I016050      31011800000000035003410000017N261217050900000000000103101180000000000000000000000000000000000000000100087798999787NILZETE DA CONCEICAO FELIX              O MESMO                                 O MESMO     25264030DUQUE DE CAXIASRJUNIAO UMB DOS CULTOS AFRO BRAS    31011810 000029
10231987175000168817800093673    00006049                     000060490000000000000109                     I016049      31011800000000035003410000017N261217050900000000000103101180000000000000000000000000000000000000000100002882629729ANA PAULA DE SOUZA RIBEIRO VIL          O MESMO                                 O MESMO     21550130RIO DE JANEIRO RJUNIAO UMB DOS CULTOS AFRO BRAS    31011810 000030
10231987175000168817800093673    00006048                     000060480000000000000109                     I016048      31011800000000035003410000017N261217050900000000000103101180000000000000000000000000000000000000000100004842101490MARIA DE LOURDES FARIAS DOS SA          RUA HELIO DE OLIVEIRA LOTE 29 QUADRA 407PARADA MORAB25000000DUQUE DE CAXIASRJUNIAO UMB DOS CULTOS AFRO BRAS    31011810 000031
10231987175000168817800093673    00006047                     000060470000000000000109                     I016047      31011800000000035003410000017N261217050900000000000103101180000000000000000000000000000000000000000100004474701755JACIRA DE ALMEIDA BATISTA JULI          O MESMO                                 O MESMO     25225660DUQUE DE CAXIASRJUNIAO UMB DOS CULTOS AFRO BRAS    31011810 000032
10231987175000168817800093673    00006046                     000060460000000000000109                     I016046      31011800000000035003410000017N261217050900000000000103101180000000000000000000000000000000000000000100077068505791JOSE CLEZIO DE SOUZA                    O MESMO                                 O MESMO     21331100RIO DE JANEIRO RJUNIAO UMB DOS CULTOS AFRO BRAS    31011810 000033
10231987175000168817800093673    00006045                     000060450000000000000109                     I016045      31011800000000035003410000017N261217050900000000000103101180000000000000000000000000000000000000000100038378345734ADELIR MARIA DAS NEVES TEIXEIR          O MESMO                                 O MESMO     25267320DUQUE DE CAXIASRJUNIAO UMB DOS CULTOS AFRO BRAS    31011810 000034
10231987175000168817800093673    00006044                     000060440000000000000109                     I016044      31011800000000035003410000017N261217050900000000000103101180000000000000000000000000000000000000000100006424589880LUIZ CARLOS BRITO                       O MESMO                                 O MESMO     26063230NOVA IGUACU    RJUNIAO UMB DOS CULTOS AFRO BRAS    31011810 000035
10231987175000168817800093673    00006043                     000060430000000000000109                     I016043      31011800000000035003410000017N261217050900000000000103101180000000000000000000000000000000000000000100002413242708NIVEA MARIA NARCIZO CONCEICAO           O MESMO                                 O MESMO     24344565NITEROI        RJUNIAO UMB DOS CULTOS AFRO BRAS    31011810 000036
10231987175000168817800093673    00006042                     000060420000000000000109                     I016042      31011800000000035003410000017N261217050900000000000103101180000000000000000000000000000000000000000100007299785757EDSON NUNES DE SOUZA FILHO              O MESMO                                 O MESMO     24415050SAO GONCALO    RJUNIAO UMB DOS CULTOS AFRO BRAS    31011810 000037
10231987175000168817800093673    00006041                     000060410000000000000109                     I016041      31011800000000035003410000017N261217050900000000000103101180000000000000000000000000000000000000000100009250353782LUIZ CARLOS MATOLA                      APIACA                                  JARDIM PRIMA25056270DUQUE DE CAXIASRJUNIAO UMB DOS CULTOS AFRO BRAS    31011810 000038
10231987175000168817800093673    00006040                     000060400000000000000109                     I016040      31011800000000035003410000017N261217050900000000000103101180000000000000000000000000000000000000000100002209208777ELIELSON DOS SANTOS CARVALHAES          RUA TRES QUADRA 21 LOTE 17              LAGOINHA - N26296295NOVA IGUACU    RJUNIAO UMB DOS CULTOS AFRO BRAS    31011810 000039
10231987175000168817800093673    00006039                     000060390000000000000109                     I016039      31011800000000035003410000017N261217050900000000000103101180000000000000000000000000000000000000000100012345678910LUCIANA LUISA PEREIRA                   AVENIDA PORTO SEGURO N 469              LAGOMAR - MA27966870MACAE          RJUNIAO UMB DOS CULTOS AFRO BRAS    31011810 000040
10231987175000168817800093673    00006038                     000060380000000000000109                     I016038      31011800000000035003410000017N261217050900000000000103101180000000000000000000000000000000000000000100012464631728DIEGO TACITO COSTA HENRIQUE             RUA YONE MUZZI N 59                     MALVINAS - M27946310MACAE          RJUNIAO UMB DOS CULTOS AFRO BRAS    31011810 000041
9                                                                                                                                                                                                                                                                                                                                                                                                         000042
