01REMESSA01COBRANCA       916200163100        União Umb dos Cultos Afro Bra341BANCO ITAU SA  050719                                                                                                                                                                                                                                                                                                      000001
10231987175000168916200163100    000049883                    000498830000000000000109                     I0149883     30091900000000040003410000017N050719105700000000000133009190000000000000000000000000000000000000000100066198402720JORGE LUCIO                             AVENIDA DOS ITALIANOS N 936, BLOCO A   AROCHA MIRAND21510104RIO DE JANEIRO RJUNIAO UMB DOS CULTOS AFRO BRAS    30091915 000002
21300920190000000000080                                                                                                                                                                                                                                                                                                                                                                                   000003
10231987175000168916200163100    000049882                    000498820000000000000109                     I0149882     30081900000000040003410000017N050719105700000000000133008190000000000000000000000000000000000000000100066198402720JORGE LUCIO                             AVENIDA DOS ITALIANOS N 936, BLOCO A   AROCHA MIRAND21510104RIO DE JANEIRO RJUNIAO UMB DOS CULTOS AFRO BRAS    30081915 000004
21300820190000000000080                                                                                                                                                                                                                                                                                                                                                                                   000005
10231987175000168916200163100    000049881                    000498810000000000000109                     I0149881     30091900000000040003410000017N050719105700000000000133009190000000000000000000000000000000000000000100010491247745JOAO BATISTA MACEDO DE FREITAS          RUA ITAGIBAN 1047, FUNDOS               COSMOS      23060450RIO DE JANEIRO RJUNIAO UMB DOS CULTOS AFRO BRAS    30091915 000006
21300920190000000000080                                                                                                                                                                                                                                                                                                                                                                                   000007
10231987175000168916200163100    000049880                    000498800000000000000109                     I0149880     30081900000000040003410000017N050719105700000000000133008190000000000000000000000000000000000000000100010491247745JOAO BATISTA MACEDO DE FREITAS          RUA ITAGIBAN 1047, FUNDOS               COSMOS      23060450RIO DE JANEIRO RJUNIAO UMB DOS CULTOS AFRO BRAS    30081915 000008
21300820190000000000080                                                                                                                                                                                                                                                                                                                                                                                   000009
10231987175000168916200163100    000049879                    000498790000000000000109                     I0149879     31071900000000040003410000017N050719105700000000000133107190000000000000000000000000000000000000000100010491247745JOAO BATISTA MACEDO DE FREITAS          RUA ITAGIBAN 1047, FUNDOS               COSMOS      23060450RIO DE JANEIRO RJUNIAO UMB DOS CULTOS AFRO BRAS    31071915 000010
21310720190000000000080                                                                                                                                                                                                                                                                                                                                                                                   000011
10231987175000168916200163100    000049878                    000498780000000000000109                     I0149878     30091900000000040003410000017N050719105700000000000133009190000000000000000000000000000000000000000100099431866749NEUSA VIEIRA DE ALMEIDA                 RUA FERNANDO SABOYA DE FIUZAN 0, QUADRA CAMPO GRANDE23088600RIO DE JANEIRO RJUNIAO UMB DOS CULTOS AFRO BRAS    30091915 000012
21300920190000000000080                                                                                                                                                                                                                                                                                                                                                                                   000013
10231987175000168916200163100    000049877                    000498770000000000000109                     I0149877     30081900000000040003410000017N050719105700000000000133008190000000000000000000000000000000000000000100099431866749NEUSA VIEIRA DE ALMEIDA                 RUA FERNANDO SABOYA DE FIUZAN 0, QUADRA CAMPO GRANDE23088600RIO DE JANEIRO RJUNIAO UMB DOS CULTOS AFRO BRAS    30081915 000014
21300820190000000000080                                                                                                                                                                                                                                                                                                                                                                                   000015
10231987175000168916200163100    000049876                    000498760000000000000109                     I0149876     31071900000000040003410000017N050719105700000000000133107190000000000000000000000000000000000000000100099431866749NEUSA VIEIRA DE ALMEIDA                 RUA FERNANDO SABOYA DE FIUZAN 0, QUADRA CAMPO GRANDE23088600RIO DE JANEIRO RJUNIAO UMB DOS CULTOS AFRO BRAS    31071915 000016
21310720190000000000080                                                                                                                                                                                                                                                                                                                                                                                   000017
10231987175000168916200163100    000049875                    000498750000000000000109                     I0149875     30091900000000040003410000017N050719105700000000000133009190000000000000000000000000000000000000000100001442126760CRISTIANO DA CONCEICAO                  RUA ANDRE ROCHAN 372, BL 1 AP 1205      TAQUARA     22730522RIO DE JANEIRO RJUNIAO UMB DOS CULTOS AFRO BRAS    30091915 000018
21300920190000000000080                                                                                                                                                                                                                                                                                                                                                                                   000019
10231987175000168916200163100    000049874                    000498740000000000000109                     I0149874     30081900000000040003410000017N050719105700000000000133008190000000000000000000000000000000000000000100001442126760CRISTIANO DA CONCEICAO                  RUA ANDRE ROCHAN 372, BL 1 AP 1205      TAQUARA     22730522RIO DE JANEIRO RJUNIAO UMB DOS CULTOS AFRO BRAS    30081915 000020
21300820190000000000080                                                                                                                                                                                                                                                                                                                                                                                   000021
10231987175000168916200163100    000049873                    000498730000000000000109                     I0149873     12071900000000120003410000017N050719105700000000000401207190000000000000000000000000000000000000000100001010828789JUSSARA DA SILVA GONCALVES DAM          RUA: TRINTA E TRES N 0, LOTE 219        NOVA CIDADE 24804185ITABORAI       RJUNIAO UMB DOS CULTOS AFRO BRAS    12071915 000022
21120720190000000000240                                                                                                                                                                                                                                                                                                                                                                                   000023
10231987175000168916200163100    000044587                    000445870000000000000109                     I0244587     30061900000000040003410000017N130319105700000000000133006190000000000000000000000000000000000000000100053531396749VITALINA DOS SANTOS                     RUA SAQUAREMAN 1863,                    GRAMACHO    25035425DUQUE DE CAXIASRJUNIAO UMB DOS CULTOS AFRO BRAS    30061915 000024
21300620190000000000080                                                                                                                                                                                                                                                                                                                                                                                   000025
10231987175000168916200163100    000044438                    000444380000000000000109                     I0244438     30061900000000040003410000017N130319105700000000000133006190000000000000000000000000000000000000000100093130864768SOLANGE GERMANO DA COSTA                RUA URUCUIAN 689, CASA 1                VILA VALQUEI21321310RIO DE JANEIRO RJUNIAO UMB DOS CULTOS AFRO BRAS    30061915 000026
21300620190000000000080                                                                                                                                                                                                                                                                                                                                                                                   000027
10231987175000168916200163100    000044076                    000440760000000000000109                     I0244076     30061900000000040003410000017N130319105700000000000133006190000000000000000000000000000000000000000100002499344776EUNIRA DA SALINA DE PAULA               ESTRADA: SAPUCAIAN 12,                  ITAUNA      24473330SAO GONCALO    RJUNIAO UMB DOS CULTOS AFRO BRAS    30061915 000028
21300620190000000000080                                                                                                                                                                                                                                                                                                                                                                                   000029
10231987175000168916200163100    000043711                    000437110000000000000109                     I0243711     30061900000000040003410000017N130319105700000000000133006190000000000000000000000000000000000000000100089080475734MARCIA MARIA CORREIA DA SILVA           RUA ALVARES CABRALN 520,                CACHAMBI    20780320RIO DE JANEIRO RJUNIAO UMB DOS CULTOS AFRO BRAS    30061915 000030
21300620190000000000080                                                                                                                                                                                                                                                                                                                                                                                   000031
10231987175000168916200163100    000043629                    000436290000000000000109                     I0243629     30061900000000040003410000017N130319105700000000000133006190000000000000000000000000000000000000000100038370999700JULIO ALEXANDRE FERREIRA                RUA BARAO DE JACUIN 254, CASA 16 FUNDOS OSWALDO CRUZ21550310RIO DE JANEIRO RJUNIAO UMB DOS CULTOS AFRO BRAS    30061915 000032
21300620190000000000080                                                                                                                                                                                                                                                                                                                                                                                   000033
10231987175000168916200163100    000042788                    000427880000000000000109                     I0242788     30051900000000040003410000017N130319105700000000000133005190000000000000000000000000000000000000000100093130864768SOLANGE GERMANO DA COSTA                RUA URUCUIAN 689, CASA 1                VILA VALQUEI21321310RIO DE JANEIRO RJUNIAO UMB DOS CULTOS AFRO BRAS    30051915 000034
21300520190000000000080                                                                                                                                                                                                                                                                                                                                                                                   000035
10231987175000168916200163100    000042430                    000424300000000000000109                     I0242430     30051900000000040003410000017N130319105700000000000133005190000000000000000000000000000000000000000100002499344776EUNIRA DA SALINA DE PAULA               ESTRADA: SAPUCAIAN 12,                  ITAUNA      24473330SAO GONCALO    RJUNIAO UMB DOS CULTOS AFRO BRAS    30051915 000036
21300520190000000000080                                                                                                                                                                                                                                                                                                                                                                                   000037
10231987175000168916200163100    000042404                    000424040000000000000109                     I0242404     30051900000000040003410000017N130319105700000000000133005190000000000000000000000000000000000000000100092372473700WANDERLEIA MACIEL DE AZEVEDO            RUA SAO JOAQUIMN 166,                   VILA SAO LUI25086070DUQUE DE CAXIASRJUNIAO UMB DOS CULTOS AFRO BRAS    30051915 000038
21300520190000000000080                                                                                                                                                                                                                                                                                                                                                                                   000039
10231987175000168916200163100    000042067                    000420670000000000000109                     I0242067     30051900000000040003410000017N130319105700000000000133005190000000000000000000000000000000000000000100089080475734MARCIA MARIA CORREIA DA SILVA           RUA ALVARES CABRALN 520,                CACHAMBI    20780320RIO DE JANEIRO RJUNIAO UMB DOS CULTOS AFRO BRAS    30051915 000040
21300520190000000000080                                                                                                                                                                                                                                                                                                                                                                                   000041
10231987175000168916200163100    000041985                    000419850000000000000109                     I0241985     30051900000000040003410000017N130319105700000000000133005190000000000000000000000000000000000000000100038370999700JULIO ALEXANDRE FERREIRA                RUA BARAO DE JACUIN 254, CASA 16 FUNDOS OSWALDO CRUZ21550310RIO DE JANEIRO RJUNIAO UMB DOS CULTOS AFRO BRAS    30051915 000042
21300520190000000000080                                                                                                                                                                                                                                                                                                                                                                                   000043
9                                                                                                                                                                                                                                                                                                                                                                                                         000044
