01REMESSA01COBRANCA       817800093673        União Umb dos Cultos Afro Bra341BANCO ITAU SA  051118                                                                                                                                                                                                                                                                                                      000001
10231987175000168817800093673    000033367                    000333670000000000000109                     I0133367     22111800000000070003410000017N051118104700000000000102211180000000000000000000000000000000000000000100001143711726MARLENE GOMES CAETANO AUGUSTO           BECO DO QUINTANDA                       COSTA BARROS21532200NOVA IGUACU    RJUNIAO UMB DOS CULTOS AFRO BRAS    22111810 000002
10231987175000168817800093673    000033366                    000333660000000000000109                     I0133366     12111800000000035003410000017N051118104700000000000101211180000000000000000000000000000000000000000100031569250715JORGE FRANCISCO SANTOS                  RUA NOSSA SENHORA DAS GRACAS            LAGOINHA    26260450SAO GONCALO    RJUNIAO UMB DOS CULTOS AFRO BRAS    12111810 000003
10231987175000168817800093673    000033365                    000333650000000000000109                     I0133365     20121800000000380003410000017N051118104700000000000102012180000000000000000000000000000000000000000100001436096707LEILA DE OLIVEIRA DUTTON DA SI          RUA PARANA                              PIEDADE     20745250RIO DE JANEIRO RJUNIAO UMB DOS CULTOS AFRO BRAS    20121810 000004
10231987175000168817800093673    000033364                    000333640000000000000109                     I0233364     20121800000000040003410000017N051118104700000000000102012180000000000000000000000000000000000000000100001436096707LEILA DE OLIVEIRA DUTTON DA SI          RUA PARANA                              PIEDADE     20745250RIO DE JANEIRO RJUNIAO UMB DOS CULTOS AFRO BRAS    20121810 000005
10231987175000168817800093673    000033363                    000333630000000000000109                     I0133363     12111800000000035003410000017N051118104700000000000101211180000000000000000000000000000000000000000100001447704746MARCOS FAGUNDES MARTINS                 ESTRADA DA PEDRA                        SANTA CRUZ  23520241RIO DE JANEIRO RJUNIAO UMB DOS CULTOS AFRO BRAS    12111810 000006
10231987175000168817800093673    000033362                    000333620000000000000109                     I0133362     12111800000000035003410000017N051118104700000000000101211180000000000000000000000000000000000000000100081531095704ROSANA ALMEIDA SILVA                    RUA JOAQUIM MARIANO DE MOURA            PONTO CHIC  26032840NOVA IGUACU    RJUNIAO UMB DOS CULTOS AFRO BRAS    12111810 000007
10231987175000168817800093673    000033361                    000333610000000000000109                     I0133361     10121800000000400003410000017N031118104700000000000101012180000000000000000000000000000000000000000100048123765720JUANJARA HENRIQUE DOS SANTOS            O MESMO                                 O MESMO     00000000DUQUE DE CAXIASRJUNIAO UMB DOS CULTOS AFRO BRAS    10121810 000008
10231987175000168817800093673    000033360                    000333600000000000000109                     I0133360     05111800000000140003410000017N021118104700000000000100511180000000000000000000000000000000000000000100005209152758LAZARO OLIVEIRA DE ARAUJO               RUA MULULO DA VEIGA                     NEVES       24425460SAO GONCALO    RJUNIAO UMB DOS CULTOS AFRO BRAS    05111810 000009
10231987175000168817800093673    000033359                    000333590000000000000109                     I0133359     10111800000000350003410000017N011118104700000000000101011180000000000000000000000000000000000000000100003598384726ROSANE QUIRINO DA SILVA                 RUA MANUEL RODRIGUES FONTINHA           NOVA CIDADE 26535270NILOPOLIS      RJUNIAO UMB DOS CULTOS AFRO BRAS    10111810 000010
10231987175000168817800093673    000033358                    000333580000000000000109                     I0133358     05111800000000070003410000017N011118104700000000000100511180000000000000000000000000000000000000000100092952364753ROSANGELA SILVA SOUZA                   RUA ROSA                                CABUCU      26520250NILOPOLIS      RJUNIAO UMB DOS CULTOS AFRO BRAS    05111810 000011
10231987175000168817800093673    000033357                    000333570000000000000109                     I0133357     05111800000000035003410000017N011118104700000000000100511180000000000000000000000000000000000000000100088224228720VERA MARIA DA SILVA                     AVENIDA FARROUPILHA - ANTIGA RUA 6      GUAXINDIBA  24722270RIO DE JANEIRO RJUNIAO UMB DOS CULTOS AFRO BRAS    05111810 000012
10231987175000168817800093673    000033356                    000333560000000000000109                     I0133356     15111800000000175003410000017N011118104700000000000101511180000000000000000000000000000000000000000100000000000000ZUILA DE MELO E SILVA COVA              RUA TAMOIOS                             SAO FRANCISC24360380NITEROI        RJUNIAO UMB DOS CULTOS AFRO BRAS    15111810 000013
10231987175000168817800093673    000033354                    000333540000000000000109                     I3433354     05111800000000385003410000017N311018104700000000000100511180000000000000000000000000000000000000000100011080748717ALVARO CHIANELLI DE AZEREDO             RUA 14 DE JULHO                         VILA SAO LUI25065061RIO DE JANEIRO RJUNIAO UMB DOS CULTOS AFRO BRAS    05111810 000014
10231987175000168817800093673    000033338                    000333380000000000000109                     I0233338     01111800000000140003410000017N311018104700000000000100111180000000000000000000000000000000000000000100005209152758LAZARO OLIVEIRA DE ARAUJO               RUA MULULO DA VEIGA                     NEVES       24425460SAO GONCALO    RJUNIAO UMB DOS CULTOS AFRO BRAS    01111810 000015
10231987175000168817800093673    000032634                    000326340000000000000109                     I3432634     20121800000000400003410000017N291018104700000000000102012180000000000000000000000000000000000000000100009115127729MIGUEL GUSTAVO DE CARVALHO FER          RUA: CABUCU                             LINS DE VASC20710300RIO DE JANEIRO RJUNIAO UMB DOS CULTOS AFRO BRAS    20121810 000016
10231987175000168817800093673    000032552                    000325520000000000000109                     I0232552     20121800000000400003410000017N291018104700000000000102012180000000000000000000000000000000000000000100007540937785MICHEL FREIRE HUGUENIN                  RUA CARLOS XAVIER                       OSWALDO CRUZ21310000RIO DE JANEIRO RJUNIAO UMB DOS CULTOS AFRO BRAS    20121810 000017
10231987175000168817800093673    000032402                    000324020000000000000109                     I3432402     20121800000000450003410000017N291018104700000000000102012180000000000000000000000000000000000000000100000504784781MARCO ANTONIO TEIXEIRA                  RUA ANGELO JOAO BRAND                   INDEPENDENCI25645240PETROPOLIS     RJUNIAO UMB DOS CULTOS AFRO BRAS    20121810 000018
10231987175000168817800093673    000032393                    000323930000000000000109                     I3432393     20121800000000350003410000017N291018104700000000000102012180000000000000000000000000000000000000000100002533273775GLAUCE MAGALHAES JARDELINO              RUA JABORANDI                           VILA COSMOS 21220220RIO DE JANEIRO RJUNIAO UMB DOS CULTOS AFRO BRAS    20121810 000019
10231987175000168817800093673    000032340                    000323400000000000000109                     I3432340     20121800000000400003410000017N291018104700000000000102012180000000000000000000000000000000000000000100008710781803ELIANA LEITE                            RUA INGLES DE SOUZA                     JARDIM LEOPO25051010DUQUE DE CAXIASRJUNIAO UMB DOS CULTOS AFRO BRAS    20121810 000020
10231987175000168817800093673    000031919                    000319190000000000000109                     I3431919     20121800000000450003410000017N291018104700000000000102012180000000000000000000000000000000000000000100063326590768WANDERLEY BEFF MARTINS                  RUA ISAC DE OLIVEIRA                    INHAUMA     20766515RIO DE JANEIRO RJUNIAO UMB DOS CULTOS AFRO BRAS    20121810 000021
10231987175000168817800093673    000030772                    000307720000000000000109                     I3430772     20121800000000350003410000017N291018104700000000000102012180000000000000000000000000000000000000000100000000002004CATARINA BARBOSA DA SILVA               RUA MARIA RASUK VILELA                  AGOSTINHO PO25555350SAO JOAO DE MERRJUNIAO UMB DOS CULTOS AFRO BRAS    20121810 000022
10231987175000168817800093673    000030210                    000302100000000000000109                     I0230210     20121800000000035003410000017N291018104700000000000102012180000000000000000000000000000000000000000100006424589880LUIZ CARLOS BRITO                       RUA DA LIBERDADE                        TINGUA      26063230NOVA IGUACU    RJUNIAO UMB DOS CULTOS AFRO BRAS    20121810 000023
10231987175000168817800093673    000029966                    000299660000000000000109                     I3429966     20121800000000035003410000017N291018104700000000000102012180000000000000000000000000000000000000000100047657383704JAIR LOURENCO DE LIMA                   RUA CONDE DEU                           CASTELANEA  25640340PETROPOLIS     RJUNIAO UMB DOS CULTOS AFRO BRAS    20121810 000024
10231987175000168817800093673    000029840                    000298400000000000000109                     I3429840     20121800000000035003410000017N291018104700000000000102012180000000000000000000000000000000000000000100002533273775GLAUCE MAGALHAES JARDELINO              RUA JABORANDI                           VILA COSMOS 21220220RIO DE JANEIRO RJUNIAO UMB DOS CULTOS AFRO BRAS    20121810 000025
10231987175000168817800093673    000029787                    000297870000000000000109                     I0229787     20121800000000035003410000017N291018104700000000000102012180000000000000000000000000000000000000000100007980690745JOSE ALFREDO BARDASSON MARQUES          TRAVESSA JOAO ROCHA                     PORTO DAS CA24830072ITABORAI       RJUNIAO UMB DOS CULTOS AFRO BRAS    20121810 000026
10231987175000168817800093673    000029585                    000295850000000000000109                     I3429585     20121800000000035003410000017N291018104700000000000102012180000000000000000000000000000000000000000100070818169753ZILAH MELO DIAS DA SILVA                RUA ALMIRANTE FIGUEIREDO                FREGUESIA - 21911150RIO DE JANEIRO RJUNIAO UMB DOS CULTOS AFRO BRAS    20121810 000027
10231987175000168817800093673    000029278                    000292780000000000000109                     I0229278     20121800000000035003410000017N291018104700000000000102012180000000000000000000000000000000000000000100000000000000JORGE ALVES DE MEDEIROS                 RUA LILAZES                             TRES SETAS  26171450BELFORD ROXO   RJUNIAO UMB DOS CULTOS AFRO BRAS    20121810 000028
10231987175000168817800093673    000029013                    000290130000000000000109                     I0229013     20121800000000040003410000017N291018104700000000000102012180000000000000000000000000000000000000000100053658191791LENIR SILVA MAFRA                       RUA JOAO BARBALHO                       QUINTINO BOC20740010RIO DE JANEIRO RJUNIAO UMB DOS CULTOS AFRO BRAS    20121810 000029
10231987175000168817800093673    000028908                    000289080000000000000109                     I0228908     15101800000000035003410000017N091018104700000000000101510180000000000000000000000000000000000000000100000330025767NUBIA VIRGINIA DE ANDRADE MAGA          RUA ADEMAR MOREIRA                      SANTA CRUZ  23573100RIO DE JANEIRO RJUNIAO UMB DOS CULTOS AFRO BRAS    15101810 000030
10231987175000168817800093673    000028329                    000283290000000000000109                     I0228329     30111800000000035003410000017N200818104700000000000103011180000000000000000000000000000000000000000100006424589880LUIZ CARLOS BRITO                       RUA DA LIBERDADE                        TINGUA      26063230NOVA IGUACU    RJUNIAO UMB DOS CULTOS AFRO BRAS    30111810 000031
10231987175000168817800093673    000028059                    000280590000000000000109                     I3428059     30111800000000035003410000017N200818104700000000000103011180000000000000000000000000000000000000000100047657383704JAIR LOURENCO DE LIMA                   RUA CONDE DEU                           CASTELANEA  25640340PETROPOLIS     RJUNIAO UMB DOS CULTOS AFRO BRAS    30111810 000032
10231987175000168817800093673    000027871                    000278710000000000000109                     I0227871     30111800000000035003410000017N200818104700000000000103011180000000000000000000000000000000000000000100007980690745JOSE ALFREDO BARDASSON MARQUES          TRAVESSA JOAO ROCHA                     PORTO DAS CA24830072ITABORAI       RJUNIAO UMB DOS CULTOS AFRO BRAS    30111810 000033
10231987175000168817800093673    000027663                    000276630000000000000109                     I3427663     30111800000000035003410000017N200818104700000000000103011180000000000000000000000000000000000000000100070818169753ZILAH MELO DIAS DA SILVA                RUA ALMIRANTE FIGUEIREDO                FREGUESIA - 21911150RIO DE JANEIRO RJUNIAO UMB DOS CULTOS AFRO BRAS    30111810 000034
10231987175000168817800093673    000027348                    000273480000000000000109                     I0227348     30111800000000035003410000017N200818104700000000000103011180000000000000000000000000000000000000000100000000000000JORGE ALVES DE MEDEIROS                 RUA LILAZES                             TRES SETAS  26171450BELFORD ROXO   RJUNIAO UMB DOS CULTOS AFRO BRAS    30111810 000035
10231987175000168817800093673    000027070                    000270700000000000000109                     I0227070     30111800000000040003410000017N200818104700000000000103011180000000000000000000000000000000000000000100053658191791LENIR SILVA MAFRA                       RUA JOAO BARBALHO                       QUINTINO BOC20740010RIO DE JANEIRO RJUNIAO UMB DOS CULTOS AFRO BRAS    30111810 000036
10231987175000168817800093673    000027062                    000270620000000000000109                     I0227062     30091800000000035003410000017N200818104700000000000103009180000000000000000000000000000000000000000100012119575789RAYKA DA SILVA BATISTA                  RUA PARAISO                             PIABETA     25931638MAGE           RJUNIAO UMB DOS CULTOS AFRO BRAS    30091810 000037
10231987175000168817800093673    000026906                    000269060000000000000109                     I0226906     30091800000000035003410000017N200818104700000000000103009180000000000000000000000000000000000000000100006424589880LUIZ CARLOS BRITO                       RUA DA LIBERDADE                        TINGUA      26063230NOVA IGUACU    RJUNIAO UMB DOS CULTOS AFRO BRAS    30091810 000038
10231987175000168817800093673    000026639                    000266390000000000000109                     I0226639     30091800000000035003410000017N200818104700000000000103009180000000000000000000000000000000000000000100047657383704JAIR LOURENCO DE LIMA                   RUA CONDE DEU                           CASTELANEA  25640340PETROPOLIS     RJUNIAO UMB DOS CULTOS AFRO BRAS    30091810 000039
10231987175000168817800093673    000026545                    000265450000000000000109                     I0226545     30091800000000035003410000017N200818104700000000000103009180000000000000000000000000000000000000000100001447704746MARCOS FAGUNDES MARTINS                 ESTRADA DA PEDRA                        SANTA CRUZ  23520241RIO DE JANEIRO RJUNIAO UMB DOS CULTOS AFRO BRAS    30091810 000040
10231987175000168817800093673    000026540                    000265400000000000000109                     I0226540     30091800000000035003410000017N200818104700000000000103009180000000000000000000000000000000000000000100008326943711ANGELO ABREU MARTINS                    RUA D                                   MONTE VERDE 24857564ITABORAI       RJUNIAO UMB DOS CULTOS AFRO BRAS    30091810 000041
10231987175000168817800093673    000026506                    000265060000000000000109                     I0226506     30091800000000035003410000017N200818104700000000000103009180000000000000000000000000000000000000000100094443211772SANDRA LEILA ANACLETO SIQUEIRA          RUA RAUL VEIGA                          QUITANDINHA 25635110PETROPOLIS     RJUNIAO UMB DOS CULTOS AFRO BRAS    30091810 000042
10231987175000168817800093673    000026477                    000264770000000000000109                     I0226477     30091800000000035003410000017N200818104700000000000103009180000000000000000000000000000000000000000100092952364753ROSANGELA SILVA SOUZA                   RUA ROSA                                CABUCU      26520250NILOPOLIS      RJUNIAO UMB DOS CULTOS AFRO BRAS    30091810 000043
10231987175000168817800093673    000026452                    000264520000000000000109                     I0226452     30091800000000035003410000017N200818104700000000000103009180000000000000000000000000000000000000000100007980690745JOSE ALFREDO BARDASSON MARQUES          TRAVESSA JOAO ROCHA                     PORTO DAS CA24830072ITABORAI       RJUNIAO UMB DOS CULTOS AFRO BRAS    30091810 000044
10231987175000168817800093673    000026254                    000262540000000000000109                     I0226254     30091800000000035003410000017N200818104700000000000103009180000000000000000000000000000000000000000100005209152758LAZARO OLIVEIRA DE ARAUJO               RUA MULULO DA VEIGA                     NEVES       24425460SAO GONCALO    RJUNIAO UMB DOS CULTOS AFRO BRAS    30091810 000045
10231987175000168817800093673    000026245                    000262450000000000000109                     I0226245     30091800000000035003410000017N200818104700000000000103009180000000000000000000000000000000000000000100070818169753ZILAH MELO DIAS DA SILVA                RUA ALMIRANTE FIGUEIREDO                FREGUESIA - 21911150RIO DE JANEIRO RJUNIAO UMB DOS CULTOS AFRO BRAS    30091810 000046
10231987175000168817800093673    000025932                    000259320000000000000109                     I0225932     30091800000000035003410000017N200818104700000000000103009180000000000000000000000000000000000000000100000000000000JORGE ALVES DE MEDEIROS                 RUA LILAZES                             TRES SETAS  26171450BELFORD ROXO   RJUNIAO UMB DOS CULTOS AFRO BRAS    30091810 000047
10231987175000168817800093673    000025648                    000256480000000000000109                     I0225648     30101800000000035003410000017N200818104700000000000103010180000000000000000000000000000000000000000100012119575789RAYKA DA SILVA BATISTA                  RUA PARAISO                             PIABETA     25931638MAGE           RJUNIAO UMB DOS CULTOS AFRO BRAS    30101810 000048
10231987175000168817800093673    000025491                    000254910000000000000109                     I0225491     30101800000000035003410000017N200818104700000000000103010180000000000000000000000000000000000000000100006424589880LUIZ CARLOS BRITO                       RUA DA LIBERDADE                        TINGUA      26063230NOVA IGUACU    RJUNIAO UMB DOS CULTOS AFRO BRAS    30101810 000049
10231987175000168817800093673    000025398                    000253980000000000000109                     I0225398     30101800000000035003410000017N200818104700000000000103010180000000000000000000000000000000000000000100003025076712MARIA QUITERIA DOS SANTOS PITA          RUA MISSIONARIO CHRISTIE                QUISSAMA    25615250PETROPOLIS     RJUNIAO UMB DOS CULTOS AFRO BRAS    30101810 000050
10231987175000168817800093673    000025370                    000253700000000000000109                     I3425370     30101800000000035003410000017N200818104700000000000103010180000000000000000000000000000000000000000100001148949739MARIA DAS GRACAS SEBASTIANA DO          RUA PEREIRA PINTO                       TOMAS COELHO20761350RIO DE JANEIRO RJUNIAO UMB DOS CULTOS AFRO BRAS    30101810 000051
10231987175000168817800093673    000025274                    000252740000000000000109                     I0225274     30101800000000035003410000017N200818104700000000000103010180000000000000000000000000000000000000000100081531095704ROSANA ALMEIDA SILVA                    RUA JOAQUIM MARIANO DE MOURA            PONTO CHIC  26032840NOVA IGUACU    RJUNIAO UMB DOS CULTOS AFRO BRAS    30101810 000052
10231987175000168817800093673    000025222                    000252220000000000000109                     I0225222     30101800000000035003410000017N200818104700000000000103010180000000000000000000000000000000000000000100047657383704JAIR LOURENCO DE LIMA                   RUA CONDE DEU                           CASTELANEA  25640340PETROPOLIS     RJUNIAO UMB DOS CULTOS AFRO BRAS    30101810 000053
10231987175000168817800093673    000025088                    000250880000000000000109                     I0225088     30101800000000035003410000017N200818104700000000000103010180000000000000000000000000000000000000000100094443211772SANDRA LEILA ANACLETO SIQUEIRA          RUA RAUL VEIGA                          QUITANDINHA 25635110PETROPOLIS     RJUNIAO UMB DOS CULTOS AFRO BRAS    30101810 000054
10231987175000168817800093673    000025059                    000250590000000000000109                     I0225059     30101800000000035003410000017N200818104700000000000103010180000000000000000000000000000000000000000100092952364753ROSANGELA SILVA SOUZA                   RUA ROSA                                CABUCU      26520250NILOPOLIS      RJUNIAO UMB DOS CULTOS AFRO BRAS    30101810 000055
10231987175000168817800093673    000025034                    000250340000000000000109                     I0225034     30101800000000035003410000017N200818104700000000000103010180000000000000000000000000000000000000000100007980690745JOSE ALFREDO BARDASSON MARQUES          TRAVESSA JOAO ROCHA                     PORTO DAS CA24830072ITABORAI       RJUNIAO UMB DOS CULTOS AFRO BRAS    30101810 000056
10231987175000168817800093673    000024826                    000248260000000000000109                     I0224826     30101800000000035003410000017N200818104700000000000103010180000000000000000000000000000000000000000100070818169753ZILAH MELO DIAS DA SILVA                RUA ALMIRANTE FIGUEIREDO                FREGUESIA - 21911150RIO DE JANEIRO RJUNIAO UMB DOS CULTOS AFRO BRAS    30101810 000057
10231987175000168817800093673    000024513                    000245130000000000000109                     I0224513     30101800000000035003410000017N200818104700000000000103010180000000000000000000000000000000000000000100000000000000JORGE ALVES DE MEDEIROS                 RUA LILAZES                             TRES SETAS  26171450BELFORD ROXO   RJUNIAO UMB DOS CULTOS AFRO BRAS    30101810 000058
10231987175000168817800093673    000024271                    000242710000000000000109                     I0224271     30101800000000035003410000017N200818104700000000000103010180000000000000000000000000000000000000000100031569250715JORGE FRANCISCO SANTOS                  RUA NOSSA SENHORA DAS GRACAS            LAGOINHA    26260450SAO GONCALO    RJUNIAO UMB DOS CULTOS AFRO BRAS    30101810 000059
10231987175000168817800093673    000024236                    000242360000000000000109                     I0224236     30101800000000040003410000017N200818104700000000000103010180000000000000000000000000000000000000000100053658191791LENIR SILVA MAFRA                       RUA JOAO BARBALHO                       QUINTINO BOC20740010RIO DE JANEIRO RJUNIAO UMB DOS CULTOS AFRO BRAS    30101810 000060
9                                                                                                                                                                                                                                                                                                                                                                                                         000061
