01REMESSA01COBRANCA       817800093673        União Umb dos Cultos Afro Bra341BANCO ITAU SA  080719                                                                                                                                                                                                                                                                                                      000001
10231987175000168817800093673    000049263                    000492630000000000000109                     I0249263     30091900000000040003410000017N100619105700000000000133009190000000000000000000000000000000000000000100080020542704DENISE PINHEIRO MOURA                   RUA SOTERO VAZ N 128, CASA 101 FUNDOS   IRAJA       21230140RIO DE JANEIRO RJUNIAO UMB DOS CULTOS AFRO BRAS    30091915 000002
21300920190000000000080                                                                                                                                                                                                                                                                                                                                                                                   000003
10231987175000168817800093673    000047821                    000478210000000000000109                     I0247821     30081900000000040003410000017N100619105700000000000133008190000000000000000000000000000000000000000100080020542704DENISE PINHEIRO MOURA                   RUA SOTERO VAZ N 128, CASA 101 FUNDOS   IRAJA       21230140RIO DE JANEIRO RJUNIAO UMB DOS CULTOS AFRO BRAS    30081915 000004
21300820190000000000080                                                                                                                                                                                                                                                                                                                                                                                   000005
10231987175000168817800093673    000046718                    000467180000000000000109                     I0246718     30071900000000040003410000017N100619105700000000000133007190000000000000000000000000000000000000000100001232598780VANILDA DE SOUZA AZEREDO DA SI          RUA ARISTOTELINA SILVA LINON 208, GLEBA CHAPERO     23831330ITAGUAI        RJUNIAO UMB DOS CULTOS AFRO BRAS    30071915 000006
21300720190000000000080                                                                                                                                                                                                                                                                                                                                                                                   000007
10231987175000168817800093673    000046388                    000463880000000000000109                     I0246388     30071900000000040003410000017N100619105700000000000133007190000000000000000000000000000000000000000100080020542704DENISE PINHEIRO MOURA                   RUA SOTERO VAZ N 128, CASA 101 FUNDOS   IRAJA       21230140RIO DE JANEIRO RJUNIAO UMB DOS CULTOS AFRO BRAS    30071915 000008
21300720190000000000080                                                                                                                                                                                                                                                                                                                                                                                   000009
10231987175000168817800093673    000046105                    000461050000000000000109                     I3446105     30071900000000035003410000017N100619105700000000000123007190000000000000000000000000000000000000000100068862989768VILMA FLAUSINO ILIDIO                   RUA GERALDO MACEDON 230,                HELIOPOLIS  26123090BELFORD ROXO   RJUNIAO UMB DOS CULTOS AFRO BRAS    30071915 000010
21300720190000000000070                                                                                                                                                                                                                                                                                                                                                                                   000011
10231987175000168817800093673    000045687                    000456870000000000000109                     I0245687     30071900000000040003410000017N100619105700000000000133007190000000000000000000000000000000000000000100064431002715SERGIO MURILO ALVES PEREIRA             RUA ROCHAN 0, LOTE 4 QUADRA 4 CASA 2    JARDIM JOSE 25565161SAO JOAO DE MERRJUNIAO UMB DOS CULTOS AFRO BRAS    30071915 000012
21300720190000000000080                                                                                                                                                                                                                                                                                                                                                                                   000013
10231987175000168817800093673    000045612                    000456120000000000000109                     I0245612     30071900000000040003410000017N100619105700000000000133007190000000000000000000000000000000000000000100008763637707JUSSARA SILVA DE ALBUQUERQUE            RUA ARGOSN 281, FUNDOS                  GUADALUPE   21660050RIO DE JANEIRO RJUNIAO UMB DOS CULTOS AFRO BRAS    30071915 000014
21300720190000000000080                                                                                                                                                                                                                                                                                                                                                                                   000015
10231987175000168817800093673    000044843                    000448430000000000000109                     I0244843     30061900000000040003410000017N210319105700000000000133006190000000000000000000000000000000000000000100001232598780VANILDA DE SOUZA AZEREDO DA SI          RUA ARISTOTELINA SILVA LINON 208, GLEBA CHAPERO     23831330ITAGUAI        RJUNIAO UMB DOS CULTOS AFRO BRAS    30061915 000016
21300620190000000000080                                                                                                                                                                                                                                                                                                                                                                                   000017
10231987175000168817800093673    000044842                    000448420000000000000109                     I0244842     30051900000000040003410000017N210319105700000000000133005190000000000000000000000000000000000000000100001232598780VANILDA DE SOUZA AZEREDO DA SI          RUA ARISTOTELINA SILVA LINON 208, GLEBA CHAPERO     23831330ITAGUAI        RJUNIAO UMB DOS CULTOS AFRO BRAS    30051915 000018
21300520190000000000080                                                                                                                                                                                                                                                                                                                                                                                   000019
9                                                                                                                                                                                                                                                                                                                                                                                                         000020
