01REMESSA01COBRANCA       817800093673        União Umb dos Cultos Afro Bra341BANCO ITAU SA  231218                                                                                                                                                                                                                                                                                                      000001
10231987175000168817800093673    000033638                    000336380000000000000109                     I0133638     26121800000000080003410000017N231218104700000000000102612180000000000000000000000000000000000000000100058657231700IMPERALINA OLIVEIRA COSTA               RUA VISCONDE DE BARBACENA               SARACURUNA  25000000DUQUE DE CAXIASRJUNIAO UMB DOS CULTOS AFRO BRAS    26121810 000002
10231987175000168817800093673    000033637                    000336370000000000000109                     I0133637     30121800000000350003410000017N211218104700000000000103012180000000000000000000000000000000000000000100070614628768CREUZA GOMES DA ROCHA                   RUA DA GLORIA                           MONTE ALTO  28930000RIO DE JANEIRO RJUNIAO UMB DOS CULTOS AFRO BRAS    30121810 000003
10231987175000168817800093673    000033636                    000336360000000000000109                     I0133636     24121800000000350003410000017N211218104700000000000102412180000000000000000000000000000000000000000100001581557779MONICA MARTINS DA SILVA                 TRAVESSA JOSE LEONARDO                  NEVES       24425040SAO GONCALO    RJUNIAO UMB DOS CULTOS AFRO BRAS    24121810 000004
10231987175000168817800093673    000033635                    000336350000000000000109                     I0133635     31121800000000070003410000017N211218104700000000000103112180000000000000000000000000000000000000000100008604956719MIRIAN DE MATTOS ALVES                  AVENIDA MOACIR SARAIVA DE CARVALHO      JARDIM METRO25571190SAO JOAO DE MERRJUNIAO UMB DOS CULTOS AFRO BRAS    31121810 000005
10231987175000168817800093673    000033634                    000336340000000000000109                     I0133634     31121800000000350003410000017N211218104700000000000103112180000000000000000000000000000000000000000100012254455745LUIZ DE OLIVEIRA NERY NETO              RUA ISOLINA                             MEIER       20710070RIO DE JANEIRO RJUNIAO UMB DOS CULTOS AFRO BRAS    31121810 000006
10231987175000168817800093673    000033447                    000334470000000000000109                     I0233447     20121800000000035003410000017N211118104700000000000102012180000000000000000000000000000000000000000100001510995706JUPIRA FARIAS DE MATTOS                 TRAVESSA AUGUSTO AMERICO DIAS           NEVES       24426240NITEROI        RJUNIAO UMB DOS CULTOS AFRO BRAS    20121810 000007
10231987175000168817800093673    000033243                    000332430000000000000109                     I0233243     20121800000000350003410000017N291018104700000000000102012180000000000000000000000000000000000000000100003538359784MARCIO SANTANA DA ROCHA                 ESTRADA DA CAPOEIRA GRANDE              GUARATIBA   00000000RIO DE JANEIRO RJUNIAO UMB DOS CULTOS AFRO BRAS    20121810 000008
10231987175000168817800093673    000032772                    000327720000000000000109                     I0232772     20121800000000350003410000017N291018104700000000000102012180000000000000000000000000000000000000000100004283641790GERAILTON ALVES DE OLIVEIRA             RUA VERISSIMO MACHADO                   ROCHA MIRAND21545060RIO DE JANEIRO RJUNIAO UMB DOS CULTOS AFRO BRAS    20121810 000009
10231987175000168817800093673    000032271                    000322710000000000000109                     I0232271     20121800000000350003410000017N291018104700000000000102012180000000000000000000000000000000000000000100022002020778MARIA PALMIRA DE AMORIM LOPES           ESTRADA: ANTONIO CARVALHO VENTURA       ALBUQUERQUE 25977280TERESOPOLIS    RJUNIAO UMB DOS CULTOS AFRO BRAS    20121810 000010
10231987175000168817800093673    000032224                    000322240000000000000109                     I0232224     20121800000000350003410000017N291018104700000000000102012180000000000000000000000000000000000000000100012254455745LUIZ DE OLIVEIRA NERY NETO              RUA ISOLINA                             MEIER       20710070RIO DE JANEIRO RJUNIAO UMB DOS CULTOS AFRO BRAS    20121810 000011
10231987175000168817800093673    000032221                    000322210000000000000109                     I0232221     20121800000000400003410000017N291018104700000000000102012180000000000000000000000000000000000000000100011648306780PEDRO HENRIQUE MARQUES RODRIGU          ESTRADA JOSE GOMES DA COSTA JUNIOR      POSSE       25973003TERESOPOLIS    RJUNIAO UMB DOS CULTOS AFRO BRAS    20121810 000012
10231987175000168817800093673    000032149                    000321490000000000000109                     I0232149     20121800000000350003410000017N291018104700000000000102012180000000000000000000000000000000000000000100087188144700ILSON ALVES DE MELLO                    RUA MAESTRO CLAUDIONOR DA SILVA         FRAGOSO     25935506MAGE           RJUNIAO UMB DOS CULTOS AFRO BRAS    20121810 000013
10231987175000168817800093673    000031781                    000317810000000000000109                     I0231781     20121800000000350003410000017N291018104700000000000102012180000000000000000000000000000000000000000100058657231700IMPERALINA OLIVEIRA COSTA               RUA VISCONDE DE BARBACENA               SARACURUNA  25000000DUQUE DE CAXIASRJUNIAO UMB DOS CULTOS AFRO BRAS    20121810 000014
10231987175000168817800093673    000031616                    000316160000000000000109                     I0231616     20121800000000350003410000017N291018104700000000000102012180000000000000000000000000000000000000000100070614628768CREUZA GOMES DA ROCHA                   RUA DA GLORIA                           MONTE ALTO  28930000RIO DE JANEIRO RJUNIAO UMB DOS CULTOS AFRO BRAS    20121810 000015
10231987175000168817800093673    000031167                    000311670000000000000109                     I0131167     04011900000000350003410000017N291018104700000000000100401190000000000000000000000000000000000000000100053516176768ROBERTO DE ALMEIDA DA CRUZ              AVENIDA AUTOMOVEL CLUB                  BARRO BRANCO25267135DUQUE DE CAXIASRJUNIAO UMB DOS CULTOS AFRO BRAS    04011910 000016
10231987175000168817800093673    000030494                    000304940000000000000109                     I0230494     20121800000000350003410000017N291018104700000000000102012180000000000000000000000000000000000000000100001581557779MONICA MARTINS DA SILVA                 TRAVESSA JOSE LEONARDO                  NEVES       24425040SAO GONCALO    RJUNIAO UMB DOS CULTOS AFRO BRAS    20121810 000017
10231987175000168817800093673    000030430                    000304300000000000000109                     I0130430     21121800000000350003410000017N291018104700000000000102112180000000000000000000000000000000000000000100007554539728MARIA CRISTINA DE AZEVEDO               ESTRADA DO QUITITE                      ANIL - JACAR22753790RIO DE JANEIRO RJUNIAO UMB DOS CULTOS AFRO BRAS    21121810 000018
10231987175000168817800093673    000030351                    000303510000000000000109                     I0230351     20121800000000040003410000017N291018104700000000000102012180000000000000000000000000000000000000000100003538359784MARCIO SANTANA DA ROCHA                 ESTRADA DA CAPOEIRA GRANDE              GUARATIBA   00000000RIO DE JANEIRO RJUNIAO UMB DOS CULTOS AFRO BRAS    20121810 000019
10231987175000168817800093673    000029563                    000295630000000000000109                     I0229563     20121800000000035003410000017N291018104700000000000102012180000000000000000000000000000000000000000100058657231700IMPERALINA OLIVEIRA COSTA               RUA VISCONDE DE BARBACENA               SARACURUNA  25000000DUQUE DE CAXIASRJUNIAO UMB DOS CULTOS AFRO BRAS    20121810 000020
10231987175000168817800093673    000028475                    000284750000000000000109                     I0228475     30111800000000040003410000017N200818104700000000000103011180000000000000000000000000000000000000000100003538359784MARCIO SANTANA DA ROCHA                 ESTRADA DA CAPOEIRA GRANDE              GUARATIBA   00000000RIO DE JANEIRO RJUNIAO UMB DOS CULTOS AFRO BRAS    30111810 000021
10231987175000168817800093673    000027640                    000276400000000000000109                     I0227640     30111800000000035003410000017N200818104700000000000103011180000000000000000000000000000000000000000100058657231700IMPERALINA OLIVEIRA COSTA               RUA VISCONDE DE BARBACENA               SARACURUNA  25000000DUQUE DE CAXIASRJUNIAO UMB DOS CULTOS AFRO BRAS    30111810 000022
10231987175000168817800093673    000027566                    000275660000000000000109                     I0227566     30111800000000035003410000017N200818104700000000000103011180000000000000000000000000000000000000000100070614628768CREUZA GOMES DA ROCHA                   RUA DA GLORIA                           MONTE ALTO  28930000RIO DE JANEIRO RJUNIAO UMB DOS CULTOS AFRO BRAS    30111810 000023
9                                                                                                                                                                                                                                                                                                                                                                                                         000024
