01REMESSA01COBRANCA       817800093673        União Umb dos Cultos Afro Bra341BANCO ITAU SA  261118                                                                                                                                                                                                                                                                                                      000001
10231987175000168817800093673    000031316                    000313160000000000000109                     I3431316     20121800000000350003410000017N291018104700000000000102012180000000000000000000000000000000000000000100007201355759MARIA EDILEUZA MENDES                   RUA ALTAMIRO BARONE                     VILA MAIA   26160480BELFORD ROXO   RJUNIAO UMB DOS CULTOS AFRO BRAS    20121810 000002
9                                                                                                                                                                                                                                                                                                                                                                                                         000003
