01REMESSA01COBRANCA       916200163100        União Umb dos Cultos Afro Bra341BANCO ITAU SA  160719                                                                                                                                                                                                                                                                                                      000001
10231987175000168916200163100    000049922                    000499220000000000000109                     I0149922     30091900000000040003410000017N160719105700000000000133009190000000000000000000000000000000000000000100066069840763VANDA LUCIA DE ASSIS                    AVENIDA OLIVEIRA BELON 1073, CASA 1 FUNDVILA DA PENH21221300RIO DE JANEIRO RJUNIAO UMB DOS CULTOS AFRO BRAS    30091915 000002
21300920190000000000080                                                                                                                                                                                                                                                                                                                                                                                   000003
10231987175000168916200163100    000049921                    000499210000000000000109                     I0149921     30081900000000040003410000017N160719105700000000000133008190000000000000000000000000000000000000000100066069840763VANDA LUCIA DE ASSIS                    AVENIDA OLIVEIRA BELON 1073, CASA 1 FUNDVILA DA PENH21221300RIO DE JANEIRO RJUNIAO UMB DOS CULTOS AFRO BRAS    30081915 000004
21300820190000000000080                                                                                                                                                                                                                                                                                                                                                                                   000005
10231987175000168916200163100    000049920                    000499200000000000000109                     I0149920     30071900000000040003410000017N160719105700000000000133007190000000000000000000000000000000000000000100066069840763VANDA LUCIA DE ASSIS                    AVENIDA OLIVEIRA BELON 1073, CASA 1 FUNDVILA DA PENH21221300RIO DE JANEIRO RJUNIAO UMB DOS CULTOS AFRO BRAS    30071915 000006
21300720190000000000080                                                                                                                                                                                                                                                                                                                                                                                   000007
10231987175000168916200163100    000049919                    000499190000000000000109                     I0149919     09081900000000040003410000017N160719105700000000000130908190000000000000000000000000000000000000000100089080475734MARCIA MARIA CORREIA DA SILVA           RUA ALVARES CABRALN 520,                CACHAMBI    20780320RIO DE JANEIRO RJUNIAO UMB DOS CULTOS AFRO BRAS    09081915 000008
21090820190000000000080                                                                                                                                                                                                                                                                                                                                                                                   000009
10231987175000168916200163100    000049918                    000499180000000000000109                     I0149918     30091900000000040003410000017N160719105700000000000133009190000000000000000000000000000000000000000100009430272764MARCELA DE CARVALHO RE CARDOSO          RUA RENATO MEIRA LIMAN 58, A            TANQUE      22735120RIO DE JANEIRO RJUNIAO UMB DOS CULTOS AFRO BRAS    30091915 000010
21300920190000000000080                                                                                                                                                                                                                                                                                                                                                                                   000011
10231987175000168916200163100    000049917                    000499170000000000000109                     I0149917     30081900000000040003410000017N160719105700000000000133008190000000000000000000000000000000000000000100009430272764MARCELA DE CARVALHO RE CARDOSO          RUA RENATO MEIRA LIMAN 58, A            TANQUE      22735120RIO DE JANEIRO RJUNIAO UMB DOS CULTOS AFRO BRAS    30081915 000012
21300820190000000000080                                                                                                                                                                                                                                                                                                                                                                                   000013
9                                                                                                                                                                                                                                                                                                                                                                                                         000014
