01REMESSA01COBRANCA       817800093673        União Umb dos Cultos Afro Bra341BANCO ITAU SA  210319                                                                                                                                                                                                                                                                                                      000001
10231987175000168817800093673    000044860                    000448600000000000000109                     I0144860     28061900000000040003410000017N210319104700000000000102806190000000000000000000000000000000000000000100097163180730CLEA DE OLIVEIRA BRASIL                 RUA ARACI COSTAN 67,                    GUADALUPE   21665010RIO DE JANEIRO RJUNIAO UMB DOS CULTOS AFRO BRAS    28061910 000002
10231987175000168817800093673    000044859                    000448590000000000000109                     I0144859     31051900000000040003410000017N210319104700000000000103105190000000000000000000000000000000000000000100097163180730CLEA DE OLIVEIRA BRASIL                 RUA ARACI COSTAN 67,                    GUADALUPE   21665010RIO DE JANEIRO RJUNIAO UMB DOS CULTOS AFRO BRAS    31051910 000003
10231987175000168817800093673    000044858                    000448580000000000000109                     I0144858     30041900000000040003410000017N210319104700000000000103004190000000000000000000000000000000000000000100097163180730CLEA DE OLIVEIRA BRASIL                 RUA ARACI COSTAN 67,                    GUADALUPE   21665010RIO DE JANEIRO RJUNIAO UMB DOS CULTOS AFRO BRAS    30041910 000004
10231987175000168817800093673    000044857                    000448570000000000000109                     I0144857     30061900000000040003410000017N210319104700000000000103006190000000000000000000000000000000000000000100075597543768MARCIA REGINA DE ALMEIDA XAVIE          RUA SANTA CLARAN 161, APTº 903         COPACABANA  22041011RIO DE JANEIRO RJUNIAO UMB DOS CULTOS AFRO BRAS    30061910 000005
10231987175000168817800093673    000044856                    000448560000000000000109                     I0144856     30051900000000040003410000017N210319104700000000000103005190000000000000000000000000000000000000000100075597543768MARCIA REGINA DE ALMEIDA XAVIE          RUA SANTA CLARAN 161, APTº 903         COPACABANA  22041011RIO DE JANEIRO RJUNIAO UMB DOS CULTOS AFRO BRAS    30051910 000006
10231987175000168817800093673    000044855                    000448550000000000000109                     I0144855     30041900000000040003410000017N210319104700000000000103004190000000000000000000000000000000000000000100075597543768MARCIA REGINA DE ALMEIDA XAVIE          RUA SANTA CLARAN 161, APTº 903         COPACABANA  22041011RIO DE JANEIRO RJUNIAO UMB DOS CULTOS AFRO BRAS    30041910 000007
10231987175000168817800093673    000044854                    000448540000000000000109                     I0144854     30061900000000040003410000017N210319104700000000000103006190000000000000000000000000000000000000000100010210752726LEANDRO DA PAZ MARTINS                  RUA NOVA DO AMORIMN 206, FRENTE         BENTO RIBEIR21331590RIO DE JANEIRO RJUNIAO UMB DOS CULTOS AFRO BRAS    30061910 000008
10231987175000168817800093673    000044853                    000448530000000000000109                     I0144853     30051900000000040003410000017N210319104700000000000103005190000000000000000000000000000000000000000100010210752726LEANDRO DA PAZ MARTINS                  RUA NOVA DO AMORIMN 206, FRENTE         BENTO RIBEIR21331590RIO DE JANEIRO RJUNIAO UMB DOS CULTOS AFRO BRAS    30051910 000009
10231987175000168817800093673    000044852                    000448520000000000000109                     I0144852     30041900000000040003410000017N210319104700000000000103004190000000000000000000000000000000000000000100010210752726LEANDRO DA PAZ MARTINS                  RUA NOVA DO AMORIMN 206, FRENTE         BENTO RIBEIR21331590RIO DE JANEIRO RJUNIAO UMB DOS CULTOS AFRO BRAS    30041910 000010
10231987175000168817800093673    000044851                    000448510000000000000109                     I0144851     30061900000000040003410000017N210319104700000000000103006190000000000000000000000000000000000000000100015242178752EDLAINE RAMOS DE OLIVEIRA               RUA HOMERO PINTO CAPUTON 0, LOTE 23 QUADBANGU       21863080RIO DE JANEIRO RJUNIAO UMB DOS CULTOS AFRO BRAS    30061910 000011
10231987175000168817800093673    000044850                    000448500000000000000109                     I0144850     30051900000000040003410000017N210319104700000000000103005190000000000000000000000000000000000000000100015242178752EDLAINE RAMOS DE OLIVEIRA               RUA HOMERO PINTO CAPUTON 0, LOTE 23 QUADBANGU       21863080RIO DE JANEIRO RJUNIAO UMB DOS CULTOS AFRO BRAS    30051910 000012
10231987175000168817800093673    000044849                    000448490000000000000109                     I0144849     30041900000000040003410000017N210319104700000000000103004190000000000000000000000000000000000000000100015242178752EDLAINE RAMOS DE OLIVEIRA               RUA HOMERO PINTO CAPUTON 0, LOTE 23 QUADBANGU       21863080RIO DE JANEIRO RJUNIAO UMB DOS CULTOS AFRO BRAS    30041910 000013
10231987175000168817800093673    000044848                    000448480000000000000109                     I0144848     30061900000000040003410000017N210319104700000000000103006190000000000000000000000000000000000000000100006211034709EDUARDO CARLOS FELIZARDO DE SO          AVENIDA CANAL DO ANILN 166, G           GARDENIA AZU22765431RIO DE JANEIRO RJUNIAO UMB DOS CULTOS AFRO BRAS    30061910 000014
10231987175000168817800093673    000044847                    000448470000000000000109                     I0144847     30051900000000040003410000017N210319104700000000000103005190000000000000000000000000000000000000000100006211034709EDUARDO CARLOS FELIZARDO DE SO          AVENIDA CANAL DO ANILN 166, G           GARDENIA AZU22765431RIO DE JANEIRO RJUNIAO UMB DOS CULTOS AFRO BRAS    30051910 000015
10231987175000168817800093673    000044846                    000448460000000000000109                     I0144846     30041900000000040003410000017N210319104700000000000103004190000000000000000000000000000000000000000100006211034709EDUARDO CARLOS FELIZARDO DE SO          AVENIDA CANAL DO ANILN 166, G           GARDENIA AZU22765431RIO DE JANEIRO RJUNIAO UMB DOS CULTOS AFRO BRAS    30041910 000016
10231987175000168817800093673    000044845                    000448450000000000000109                     I0144845     30031900000000160003410000017N210319104700000000000103003190000000000000000000000000000000000000000100008271397729ELIZABETH GANTERT DA ROCHA GUI          RUA ADRIANAN 204,                       VAL VERDE - 26351140NOVA IGUACU    RJUNIAO UMB DOS CULTOS AFRO BRAS    30031910 000017
10231987175000168817800093673    000044844                    000448440000000000000109                     I0244844     29031900000000160003410000017N210319104700000000000102903190000000000000000000000000000000000000000100008271397729ELIZABETH GANTERT DA ROCHA GUI          RUA ADRIANAN 204,                       VAL VERDE - 26351140NOVA IGUACU    RJUNIAO UMB DOS CULTOS AFRO BRAS    29031910 000018
10231987175000168817800093673    000044843                    000448430000000000000109                     I0144843     30061900000000040003410000017N210319104700000000000103006190000000000000000000000000000000000000000100001232598780VANILDA DE SOUZA AZEREDO DA SI          RUA ARISTOTELINA SILVA LINON 208, GLEBA CHAPERO     23831330ITAGUAI        RJUNIAO UMB DOS CULTOS AFRO BRAS    30061910 000019
10231987175000168817800093673    000044842                    000448420000000000000109                     I0144842     30051900000000040003410000017N210319104700000000000103005190000000000000000000000000000000000000000100001232598780VANILDA DE SOUZA AZEREDO DA SI          RUA ARISTOTELINA SILVA LINON 208, GLEBA CHAPERO     23831330ITAGUAI        RJUNIAO UMB DOS CULTOS AFRO BRAS    30051910 000020
10231987175000168817800093673    000044841                    000448410000000000000109                     I0144841     30041900000000040003410000017N210319104700000000000103004190000000000000000000000000000000000000000100001232598780VANILDA DE SOUZA AZEREDO DA SI          RUA ARISTOTELINA SILVA LINON 208, GLEBA CHAPERO     23831330ITAGUAI        RJUNIAO UMB DOS CULTOS AFRO BRAS    30041910 000021
10231987175000168817800093673    000039776                    000397760000000000000109                     I0239776     20021900000000040003410000017N120219104700000000000102002190000000000000000000000000000000000000000100034415688772JORGE FERNANDES BEZERRA                 RUA: CARMEN GOMESN 11,                  REALENGO    21770080RIO DE JANEIRO RJUNIAO UMB DOS CULTOS AFRO BRAS    20021910 000022
10231987175000168817800093673    000039747                    000397470000000000000109                     I0239747     20021900000000040003410000017N070219104700000000000102002190000000000000000000000000000000000000000100081994699787MARCIA HELENA CORREIA DE LIMA           RUA FRANCISCO ALENCARN 37,              SEPETIBA    23530540RIO DE JANEIRO RJUNIAO UMB DOS CULTOS AFRO BRAS    20021910 000023
10231987175000168817800093673    000039744                    000397440000000000000109                     I0239744     20021900000000040003410000017N070219104700000000000102002190000000000000000000000000000000000000000100004275325745MAIKE OLIVEIRA DA COSTA                 TRAVESSA MARTA DA ROCHA N 57,           ABOLICAO    20755030RIO DE JANEIRO RJUNIAO UMB DOS CULTOS AFRO BRAS    20021910 000024
10231987175000168817800093673    000039736                    000397360000000000000109                     I0239736     20021900000000040003410000017N050219104700000000000102002190000000000000000000000000000000000000000100005436665730JORGE LUIZ VICTORIO LIMA                AVENIDA MARCOVALDI N 271,               NOVA ESPERAN26113040BELFORD ROXO   RJUNIAO UMB DOS CULTOS AFRO BRAS    20021910 000025
10231987175000168817800093673    000039733                    000397330000000000000109                     I0239733     15021900000000080003410000017N050219104700000000000101502190000000000000000000000000000000000000000100053218833787MARLUCE SUELY DA SILVA                  RUA CHRISOSTOMO PIMENTEL DE OLIVEIRAN 63ANCHIETA    21645521RIO DE JANEIRO RJUNIAO UMB DOS CULTOS AFRO BRAS    15021910 000026
10231987175000168817800093673    000039724                    000397240000000000000109                     I0239724     11021900000000115003410000017N050219104700000000000101102190000000000000000000000000000000000000000100010749011777LUIZ CARLOS LOYOLA ALVES                RUA OURO PRETON 40,                     COMUNIDADE T26297144NOVA IGUACU    RJUNIAO UMB DOS CULTOS AFRO BRAS    11021910 000027
10231987175000168817800093673    000039723                    000397230000000000000109                     I0239723     11021900000000035003410000017N050219104700000000000101102190000000000000000000000000000000000000000100010749011777LUIZ CARLOS LOYOLA ALVES                RUA OURO PRETON 40,                     COMUNIDADE T26297144NOVA IGUACU    RJUNIAO UMB DOS CULTOS AFRO BRAS    11021910 000028
10231987175000168817800093673    000039678                    000396780000000000000109                     I0239678     11021900000000200003410000017N290119104700000000000101102190000000000000000000000000000000000000000100048123765720JUANJARA HENRIQUE DOS SANTOS            AVENIDA: CHOPIN N 75, A                 JARDIM GRAMA25050580DUQUE DE CAXIASRJUNIAO UMB DOS CULTOS AFRO BRAS    11021910 000029
10231987175000168817800093673    000039676                    000396760000000000000109                     I0239676     08021900000000350003410000017N290119104700000000000100802190000000000000000000000000000000000000000100051562430700EMILIA SANTANA MORAIS                   RUA JORNALISTA MOACIR PADILHAN 276, FUNDCENTRO      24020350NITEROI        RJUNIAO UMB DOS CULTOS AFRO BRAS    08021910 000030
10231987175000168817800093673    000039675                    000396750000000000000109                     I0239675     08021900000000035003410000017N290119104700000000000100802190000000000000000000000000000000000000000100051562430700EMILIA SANTANA MORAIS                   RUA JORNALISTA MOACIR PADILHAN 276, FUNDCENTRO      24020350NITEROI        RJUNIAO UMB DOS CULTOS AFRO BRAS    08021910 000031
10231987175000168817800093673    000039662                    000396620000000000000109                     I0239662     22021900000000300003410000017N290119104700000000000102202190000000000000000000000000000000000000000100005414691770UANDERSON DE SOUZA XAVIER               RUA: ALFREDO MANSURN 130,               MORRO GAMA  27150430BARRA DO PIRAI RJUNIAO UMB DOS CULTOS AFRO BRAS    22021910 000032
10231987175000168817800093673    000039629                    000396290000000000000109                     I0239629     08021900000000040003410000017N210119104700000000000100802190000000000000000000000000000000000000000100007648724782MARLENE INACIA NUNES DO NASCIM          RUA DOUTOR BERNARDINO TEIXEIRAN 753,    EDEN        25545110SAO JOAO DE MERRJUNIAO UMB DOS CULTOS AFRO BRAS    08021910 000033
10231987175000168817800093673    000039626                    000396260000000000000109                     I0239626     05021900000000700003410000017N210119104700000000000100502190000000000000000000000000000000000000000100000582969727MARCIO RIBEIRO                          AVENIDA CORONEL SISSOM N 0, LOTE 7 QUADRPARADA ANGEL25266000DUQUE DE CAXIASRJUNIAO UMB DOS CULTOS AFRO BRAS    05021910 000034
10231987175000168817800093673    000039619                    000396190000000000000109                     I0239619     08021900000000105003410000017N180119104700000000000100802190000000000000000000000000000000000000000100074624792734MARILZA COSTA FERREIRA                  RUA INHANDUIN 128,                      BENFICA     20930120RIO DE JANEIRO RJUNIAO UMB DOS CULTOS AFRO BRAS    08021910 000035
10231987175000168817800093673    000039618                    000396180000000000000109                     I0239618     31011900000000245003410000017N180119104700000000000103101190000000000000000000000000000000000000000100012687881716DAIANA SANTANA DE LIMA                  RUA MANAUSN 149,                        CAMPOS ELISE25225000DUQUE DE CAXIASRJUNIAO UMB DOS CULTOS AFRO BRAS    31011910 000036
10231987175000168817800093673    000039554                    000395540000000000000109                     I0239554     31011900000000040003410000017N110119104700000000000103101190000000000000000000000000000000000000000100010880272708FERNANDA DOS SANTOS PEREIRA             RUA LINS DE VASCONCELOSN 593,           LINS DE VASC20710130RIO DE JANEIRO RJUNIAO UMB DOS CULTOS AFRO BRAS    31011910 000037
10231987175000168817800093673    000039533                    000395330000000000000109                     I0239533     10021900000000110003410000017N100119104700000000000101002190000000000000000000000000000000000000000100048950572753ORQUIDEA JOSE DOS SANTOS                RUA JESSIE VENTURAN 0, LOTE 6 QUADRA 7  SANTA CECILI25233130DUQUE DE CAXIASRJUNIAO UMB DOS CULTOS AFRO BRAS    10021910 000038
10231987175000168817800093673    000039521                    000395210000000000000109                     I0239521     31011900000000490003410000017N090119104700000000000103101190000000000000000000000000000000000000000100047401680734RAQUEL RODRIGUES SOBRAL DANTAS          RUA CAPITAO COUTO MENEZES N 110,        MADUREIRA   21310200RIO DE JANEIRO RJUNIAO UMB DOS CULTOS AFRO BRAS    31011910 000039
10231987175000168817800093673    000039402                    000394020000000000000109                     I0239402     31011900000000040003410000017N271218104700000000000103101190000000000000000000000000000000000000000100066220254791ROSANGELA MARTINS DA SILVA              RUA ANTONIO VARGASN 156, CASA 27        PIEDADE     20751360RIO DE JANEIRO RJUNIAO UMB DOS CULTOS AFRO BRAS    31011910 000040
10231987175000168817800093673    000039399                    000393990000000000000109                     I0239399     31011900000000040003410000017N271218104700000000000103101190000000000000000000000000000000000000000100006067864738MARLY ROSA DIAS CUNHA                   RUA: MARARIN 196, CASA 1                BRAZ DE PINA21011200RIO DE JANEIRO RJUNIAO UMB DOS CULTOS AFRO BRAS    31011910 000041
10231987175000168817800093673    000039396                    000393960000000000000109                     I0239396     31011900000000040003410000017N271218104700000000000103101190000000000000000000000000000000000000000100059962615704ILMA DA SILVA PETRONILHO                RUA: ARINDAN 318,                       VILA DE CAVA26052640NOVA IGUACU    RJUNIAO UMB DOS CULTOS AFRO BRAS    31011910 000042
10231987175000168817800093673    000039383                    000393830000000000000109                     I0239383     31011900000000040003410000017N261218104700000000000103101190000000000000000000000000000000000000000100088033945753JOSE RICARDO RIBEIRO DE AMORIM          RUA IGARATAN 994, CASA 1                MARECHAL HER21555250RIO DE JANEIRO RJUNIAO UMB DOS CULTOS AFRO BRAS    31011910 000043
10231987175000168817800093673    000039307                    000393070000000000000109                     I0239307     30031900000000040003410000017N261218104700000000000103003190000000000000000000000000000000000000000100002834617724LUCIANA CLEMENTE DAS NEVES              RUA INACIO TOSTAN 306, CASA 2           HONORIO GURG21511180RIO DE JANEIRO RJUNIAO UMB DOS CULTOS AFRO BRAS    30031910 000044
10231987175000168817800093673    000039288                    000392880000000000000109                     I0239288     30031900000000040003410000017N261218104700000000000103003190000000000000000000000000000000000000000100001105664759NANCI GOMES BORGES PINTO                RUA: ORLANDO FRANCISCO JUNIORN 0, LOTE 2CAMPO LINDO 23898435SEROPEDICA     RJUNIAO UMB DOS CULTOS AFRO BRAS    30031910 000045
10231987175000168817800093673    000038862                    000388620000000000000109                     I0238862     30031900000000040003410000017N261218104700000000000103003190000000000000000000000000000000000000000100003598384726ROSANE QUIRINO DA SILVA                 RUA MANUEL RODRIGUES FONTINHAN 119,     NOVA CIDADE 26535270NILOPOLIS      RJUNIAO UMB DOS CULTOS AFRO BRAS    30031910 000046
10231987175000168817800093673    000038643                    000386430000000000000109                     I0238643     30031900000000040003410000017N261218104700000000000103003190000000000000000000000000000000000000000100076862062700MARIO LUIS DE SOUZA                     RUA: FERREIRA CHAVES N 139, CASA 2      VILA DA PENH21221090RIO DE JANEIRO RJUNIAO UMB DOS CULTOS AFRO BRAS    30031910 000047
10231987175000168817800093673    000038395                    000383950000000000000109                     I0238395     30031900000000040003410000017N261218104700000000000103003190000000000000000000000000000000000000000100002387294785ANDREA CONDOR GUIMARAES PINHEI          RUA SEBASTIAO DE SOUZA GOUVEAN 41,      IRAJA       21235410RIO DE JANEIRO RJUNIAO UMB DOS CULTOS AFRO BRAS    30031910 000048
10231987175000168817800093673    000038121                    000381210000000000000109                     I0238121     30031900000000040003410000017N261218104700000000000103003190000000000000000000000000000000000000000100080236499734REGINALDO VIEIRA CAPTIVO                RUA DOUTOR NUNESN 1099, FUNDOS          OLARIA      21021370RIO DE JANEIRO RJUNIAO UMB DOS CULTOS AFRO BRAS    30031910 000049
10231987175000168817800093673    000038052                    000380520000000000000109                     I0238052     30031900000000040003410000017N261218104700000000000103003190000000000000000000000000000000000000000100055688306734ROBERTO BRAGANCA BAHIA                  RUA PALADINO GARCIAN 0, LOTE 5 - CASA 2 CENTRO      26130290BELFORD ROXO   RJUNIAO UMB DOS CULTOS AFRO BRAS    30031910 000050
10231987175000168817800093673    000037388                    000373880000000000000109                     I0237388     28021900000000040003410000017N261218104700000000000102802190000000000000000000000000000000000000000100002834617724LUCIANA CLEMENTE DAS NEVES              RUA INACIO TOSTAN 306, CASA 2           HONORIO GURG21511180RIO DE JANEIRO RJUNIAO UMB DOS CULTOS AFRO BRAS    28021910 000051
10231987175000168817800093673    000036943                    000369430000000000000109                     I0236943     28021900000000040003410000017N261218104700000000000102802190000000000000000000000000000000000000000100003598384726ROSANE QUIRINO DA SILVA                 RUA MANUEL RODRIGUES FONTINHAN 119,     NOVA CIDADE 26535270NILOPOLIS      RJUNIAO UMB DOS CULTOS AFRO BRAS    28021910 000052
10231987175000168817800093673    000036725                    000367250000000000000109                     I0236725     28021900000000040003410000017N261218104700000000000102802190000000000000000000000000000000000000000100076862062700MARIO LUIS DE SOUZA                     RUA: FERREIRA CHAVES N 139, CASA 2      VILA DA PENH21221090RIO DE JANEIRO RJUNIAO UMB DOS CULTOS AFRO BRAS    28021910 000053
10231987175000168817800093673    000036478                    000364780000000000000109                     I0236478     28021900000000040003410000017N261218104700000000000102802190000000000000000000000000000000000000000100002387294785ANDREA CONDOR GUIMARAES PINHEI          RUA SEBASTIAO DE SOUZA GOUVEAN 41,      IRAJA       21235410RIO DE JANEIRO RJUNIAO UMB DOS CULTOS AFRO BRAS    28021910 000054
10231987175000168817800093673    000035538                    000355380000000000000109                     I0235538     31011900000000040003410000017N261218104700000000000103101190000000000000000000000000000000000000000100004131909782SIMONE ANCHIETA DE AMORIM               RUA CAROLINA CARDOSON 0, FD LT 3 QD 1   PILAR       25233150DUQUE DE CAXIASRJUNIAO UMB DOS CULTOS AFRO BRAS    31011910 000055
10231987175000168817800093673    000035530                    000355300000000000000109                     I0235530     31011900000000040003410000017N261218104700000000000103101190000000000000000000000000000000000000000229148311000184CANTINHO DO VOVO REI CONGO E O          RUA CONSELHEIRO AGOSTINHON 55, APARTAMENCACHAMBI    20770160RIO DE JANEIRO RJUNIAO UMB DOS CULTOS AFRO BRAS    31011910 000056
10231987175000168817800093673    000035529                    000355290000000000000109                     I0235529     31011900000000040003410000017N261218104700000000000103101190000000000000000000000000000000000000000100005948651746DIOGO RODRIGUES DOS SANTOS              RUA PETER LUNDN 38, BLOCO 1 APT 407     SAO CRISTOVA20930390RIO DE JANEIRO RJUNIAO UMB DOS CULTOS AFRO BRAS    31011910 000057
10231987175000168817800093673    000035526                    000355260000000000000109                     I0235526     31011900000000050003410000017N261218104700000000000103101190000000000000000000000000000000000000000100001860673724FATIMA ANDREA PINTO DE ALMEIDA          AVENIDA PAULO DE FRONTINN 667,          RIO COMPRIDO20261241RIO DE JANEIRO RJUNIAO UMB DOS CULTOS AFRO BRAS    31011910 000058
10231987175000168817800093673    000035525                    000355250000000000000109                     I0235525     31011900000000040003410000017N261218104700000000000103101190000000000000000000000000000000000000000100008109127754DAMIANA CRISTINA SILVA DOS SAN          RUA IGARAPE N 203,                      JARDIM OLAVO25025340DUQUE DE CAXIASRJUNIAO UMB DOS CULTOS AFRO BRAS    31011910 000059
10231987175000168817800093673    000035524                    000355240000000000000109                     I0235524     31011900000000040003410000017N261218104700000000000103101190000000000000000000000000000000000000000100005170208740DJAIR DE PAULA CAVALCANTI               RUA RESTINGAN 0, LOTE 11 QUADRA 35 A - SCAMPO GRANDE23097650RIO DE JANEIRO RJUNIAO UMB DOS CULTOS AFRO BRAS    31011910 000060
10231987175000168817800093673    000035523                    000355230000000000000109                     I0235523     31011900000000040003410000017N261218104700000000000103101190000000000000000000000000000000000000000100029040973768NELSON PEREIRA DE CARVALHO              RUA DO CAMPON 35,                       CONCEICAO DE23885000MANGARATIBA    RJUNIAO UMB DOS CULTOS AFRO BRAS    31011910 000061
10231987175000168817800093673    000035521                    000355210000000000000109                     I0235521     31011900000000040003410000017N261218104700000000000103101190000000000000000000000000000000000000000100010953053792DANIELE FERNANDES DE CARVALHO           RUA BARROSON 0, CASA 1 LOTE 30 QUADRA 97JARDIM CABUC26291428NOVA IGUACU    RJUNIAO UMB DOS CULTOS AFRO BRAS    31011910 000062
10231987175000168817800093673    000035519                    000355190000000000000109                     I0235519     31011900000000040003410000017N261218104700000000000103101190000000000000000000000000000000000000000100009001361706SOLANGE DE SOUZA                        RUA VASSOURASN 0, LOTE 17               CABUCU      26291440NOVA IGUACU    RJUNIAO UMB DOS CULTOS AFRO BRAS    31011910 000063
10231987175000168817800093673    000035517                    000355170000000000000109                     I0235517     31011900000000040003410000017N261218104700000000000103101190000000000000000000000000000000000000000100001510995706JUPIRA FARIAS DE MATTOS                 ESTRADA ALARICO DE SOUZAN 703, CASA 2   LARGO DA BAT24315320NITEROI        RJUNIAO UMB DOS CULTOS AFRO BRAS    31011910 000064
10231987175000168817800093673    000035516                    000355160000000000000109                     I0235516     31011900000000040003410000017N261218104700000000000103101190000000000000000000000000000000000000000100003544254719EDIJANE PINHEIRO DE LIMA                RUA: DOIS DE JANEIRON 0, LOTE 54 QUADRA CAMPO GRANDE23097588RIO DE JANEIRO RJUNIAO UMB DOS CULTOS AFRO BRAS    31011910 000065
10231987175000168817800093673    000035514                    000355140000000000000109                     I0235514     31011900000000040003410000017N261218104700000000000103101190000000000000000000000000000000000000000100002171972726RAQUEL DE SOUZA MENESES                 RUA ROMERO ZANDER N 271, ENTRADA A - AP RAMOS       21040080RIO DE JANEIRO RJUNIAO UMB DOS CULTOS AFRO BRAS    31011910 000066
10231987175000168817800093673    000035513                    000355130000000000000109                     I0235513     31011900000000040003410000017N261218104700000000000103101190000000000000000000000000000000000000000100007245028745SANDRA REGINA MARQUES                   RUA MIGUEL UNAMUNON 0, LOTE 18 QUADRA 4 JARDIM ROTSE25270120DUQUE DE CAXIASRJUNIAO UMB DOS CULTOS AFRO BRAS    31011910 000067
10231987175000168817800093673    000035506                    000355060000000000000109                     I0235506     31011900000000040003410000017N261218104700000000000103101190000000000000000000000000000000000000000100088763765772VERONICA CECILIA DE AGUIAR              RUA LAURELINO FREIREN 101, CASA 7       GUAXINDIBA  24722330SAO GONCALO    RJUNIAO UMB DOS CULTOS AFRO BRAS    31011910 000068
10231987175000168817800093673    000035505                    000355050000000000000109                     I0235505     31011900000000040003410000017N261218104700000000000103101190000000000000000000000000000000000000000100000840541740JUCIARA GONCALVES NEPOMUCENO            RUA CASTRO VIEIRAN 174,                 AREIA BRANCA26112360BELFORD ROXO   RJUNIAO UMB DOS CULTOS AFRO BRAS    31011910 000069
10231987175000168817800093673    000035500                    000355000000000000000109                     I0235500     31011900000000040003410000017N261218104700000000000103101190000000000000000000000000000000000000000100013376872783ELIANE MENDES DA SILVA                  RUA BECO BARREIRAN 68,                  SANTA CRUZ  23555110RIO DE JANEIRO RJUNIAO UMB DOS CULTOS AFRO BRAS    31011910 000070
10231987175000168817800093673    000035498                    000354980000000000000109                     I0235498     31011900000000040003410000017N261218104700000000000103101190000000000000000000000000000000000000000100034463399300MARIA ENOIA DE SOUSA CORREA             RUA RODEZIAN 37, CASA 1                 BANCARIOS   21910145RIO DE JANEIRO RJUNIAO UMB DOS CULTOS AFRO BRAS    31011910 000071
10231987175000168817800093673    000035487                    000354870000000000000109                     I0235487     31011900000000040003410000017N261218104700000000000103101190000000000000000000000000000000000000000100007403387732MARCOS MAURICIO DOS SANTOS COS          RUA: BOA VISTAN 299,                    CARAMUJO    24140460NITEROI        RJUNIAO UMB DOS CULTOS AFRO BRAS    31011910 000072
10231987175000168817800093673    000035485                    000354850000000000000109                     I0235485     31011900000000040003410000017N261218104700000000000103101190000000000000000000000000000000000000000100099447690700CARLA LESSA QUINTANILHA VASCON          RUA: BORBOREMAN 103, CASA 201           MADUREIRA   21360150RIO DE JANEIRO RJUNIAO UMB DOS CULTOS AFRO BRAS    31011910 000073
10231987175000168817800093673    000035483                    000354830000000000000109                     I0235483     31011900000000040003410000017N261218104700000000000103101190000000000000000000000000000000000000000100014165634743GLAUBER VINICIUS DE ALMEIDA BA          RUA SAO CARLOSN 75,                     ESTACIO     20250052RIO DE JANEIRO RJUNIAO UMB DOS CULTOS AFRO BRAS    31011910 000074
10231987175000168817800093673    000035482                    000354820000000000000109                     I0235482     31011900000000040003410000017N261218104700000000000103101190000000000000000000000000000000000000000100095906746749KATIA LOPES SOARES                      ESTRADA PAU DA FOMEN 3265,              TAQUARA     22723347RIO DE JANEIRO RJUNIAO UMB DOS CULTOS AFRO BRAS    31011910 000075
10231987175000168817800093673    000035481                    000354810000000000000109                     I0235481     31011900000000040003410000017N261218104700000000000103101190000000000000000000000000000000000000000100012303421764PEDRO JONAS ARAUJO CORDEIRO             RUA JOSE LIMA DA SILVAN 0, LOTE 7 QUADRASANTA RITA  26185610BELFORD ROXO   RJUNIAO UMB DOS CULTOS AFRO BRAS    31011910 000076
10231987175000168817800093673    000035479                    000354790000000000000109                     I0235479     31011900000000040003410000017N261218104700000000000103101190000000000000000000000000000000000000000100003413776789CRISTIANE DE SOUZA GALANTE INA          BECO DA SERVIDAON 70, CASA 3            ENGENHEIRO B25520370SAO JOAO DE MERRJUNIAO UMB DOS CULTOS AFRO BRAS    31011910 000077
10231987175000168817800093673    000035477                    000354770000000000000109                     I0235477     31011900000000040003410000017N261218104700000000000103101190000000000000000000000000000000000000000100008323642745ROSEMERI DE SOUZA COUTINHO              RUA VERA LUCIA N 0, LOTE 20 QUADRA 3    CABUCU      26291452NOVA IGUACU    RJUNIAO UMB DOS CULTOS AFRO BRAS    31011910 000078
10231987175000168817800093673    000035476                    000354760000000000000109                     I0235476     31011900000000040003410000017N261218104700000000000103101190000000000000000000000000000000000000000100007147220730LUIS CARLOS DA COSTA OLIVEIRA           RUA MINAS GERAIS N 0, LOTE 11 QUADRA 159CAMPO ALEGRE26292141NOVA IGUACU    RJUNIAO UMB DOS CULTOS AFRO BRAS    31011910 000079
10231987175000168817800093673    000035475                    000354750000000000000109                     I0235475     31011900000000040003410000017N261218104700000000000103101190000000000000000000000000000000000000000100002834617724LUCIANA CLEMENTE DAS NEVES              RUA INACIO TOSTAN 306, CASA 2           HONORIO GURG21511180RIO DE JANEIRO RJUNIAO UMB DOS CULTOS AFRO BRAS    31011910 000080
10231987175000168817800093673    000035474                    000354740000000000000109                     I0235474     31011900000000040003410000017N261218104700000000000103101190000000000000000000000000000000000000000100036139050782VIRGINIA DANTAS FERREIRA                RUA PROFESSOR ALPHEU PORTELA N 127, CONDTAQUARA     22725130RIO DE JANEIRO RJUNIAO UMB DOS CULTOS AFRO BRAS    31011910 000081
10231987175000168817800093673    000035467                    000354670000000000000109                     I0235467     31011900000000040003410000017N261218104700000000000103101190000000000000000000000000000000000000000100007202542722MIRLA SUSANI DA SILVA SALES             RUA: DOUTOR FREDERICON 395,             LAGOINHA    26296414NOVA IGUACU    RJUNIAO UMB DOS CULTOS AFRO BRAS    31011910 000082
10231987175000168817800093673    000035464                    000354640000000000000109                     I0235464     31011900000000040003410000017N261218104700000000000103101190000000000000000000000000000000000000000100008283050800JOSE RICARDO DE MOURA                   RUA TENENTE SILVINON 204,               CERAMICA    26030126NOVA IGUACU    RJUNIAO UMB DOS CULTOS AFRO BRAS    31011910 000083
10231987175000168817800093673    000035462                    000354620000000000000109                     I0235462     31011900000000040003410000017N261218104700000000000103101190000000000000000000000000000000000000000100075164779749IVANILDO FURTADO DA SILVA               RUA: LUIZ DE CASTRON 206, FUNDOS        PILARES     21760732RIO DE JANEIRO RJUNIAO UMB DOS CULTOS AFRO BRAS    31011910 000084
10231987175000168817800093673    000035460                    000354600000000000000109                     I0235460     31011900000000040003410000017N261218104700000000000103101190000000000000000000000000000000000000000100002098051700FELIPE LOPES DA COSTA CHAVES            RUA: JOSE PINTO FAUSTINON 0, LOTE 14 QUAIPIRANGA    26293441NOVA IGUACU    RJUNIAO UMB DOS CULTOS AFRO BRAS    31011910 000085
10231987175000168817800093673    000035454                    000354540000000000000109                     I0235454     31011900000000040003410000017N261218104700000000000103101190000000000000000000000000000000000000000100002414887702MARGARETH MARIA DA SILVA GONCA          RUA: SEBASTIAO DE CARVALHON 158,        RAMOS       21061670RIO DE JANEIRO RJUNIAO UMB DOS CULTOS AFRO BRAS    31011910 000086
10231987175000168817800093673    000035453                    000354530000000000000109                     I0235453     31011900000000040003410000017N261218104700000000000103101190000000000000000000000000000000000000000100066645352700NILZA BELISARIO DAMIAO                  ESTRADA SANTA VERIDIANA N 1400, BLOCO 1 SANTA CRUZ  23525254RIO DE JANEIRO RJUNIAO UMB DOS CULTOS AFRO BRAS    31011910 000087
10231987175000168817800093673    000035449                    000354490000000000000109                     I0235449     31011900000000040003410000017N261218104700000000000103101190000000000000000000000000000000000000000100053860225120OTILIA REGINA DE ALENCAR                RUA ITAPEMIRIMN 87,                     SANTA CRUZ  23550310RIO DE JANEIRO RJUNIAO UMB DOS CULTOS AFRO BRAS    31011910 000088
10231987175000168817800093673    000035446                    000354460000000000000109                     I0235446     31011900000000040003410000017N261218104700000000000103101190000000000000000000000000000000000000000100014328358740SILAS BARBOSA DE SOUZA                  ESTRADA REAL DE MAUA N 1901, CASA 11 TRAJARDIM DA PA25926684RIO DE JANEIRO RJUNIAO UMB DOS CULTOS AFRO BRAS    31011910 000089
10231987175000168817800093673    000035445                    000354450000000000000109                     I0235445     31011900000000040003410000017N261218104700000000000103101190000000000000000000000000000000000000000100099099616449JANAINA BORGES DA SILVA                 RUA: PAULO JOSE MAHFUDN 44,             VARGEM PEQUE22783395RIO DE JANEIRO RJUNIAO UMB DOS CULTOS AFRO BRAS    31011910 000090
10231987175000168817800093673    000035438                    000354380000000000000109                     I0235438     31011900000000040003410000017N261218104700000000000103101190000000000000000000000000000000000000000100010212584740TIAGO VEROL DE SOUZA                    ESTRADA: DO VIEGASN 28, CASA 4          SENADOR CAMA21832006RIO DE JANEIRO RJUNIAO UMB DOS CULTOS AFRO BRAS    31011910 000091
10231987175000168817800093673    000035437                    000354370000000000000109                     I0235437     31011900000000040003410000017N261218104700000000000103101190000000000000000000000000000000000000000100039869253768MARIA DE LOURDES FERREIRA               RODOVIA WASHINGTON LUIZN 136,           PARQUE BEIRA25055008DUQUE DE CAXIASRJUNIAO UMB DOS CULTOS AFRO BRAS    31011910 000092
10231987175000168817800093673    000035436                    000354360000000000000109                     I0235436     31011900000000040003410000017N261218104700000000000103101190000000000000000000000000000000000000000100001860329780VIVIANE DE PAULA AGNELO                 RUA DA VITORIAN 175,                    PARAISO     26297138NOVA IGUACU    RJUNIAO UMB DOS CULTOS AFRO BRAS    31011910 000093
10231987175000168817800093673    000035435                    000354350000000000000109                     I0235435     31011900000000040003410000017N261218104700000000000103101190000000000000000000000000000000000000000100007416975727ANGELICA AMARAL GOTELIP BARBOS          RUA MARECHAL MARCIANO - TRAVESSA 120N 0,REALENGO    21735652RIO DE JANEIRO RJUNIAO UMB DOS CULTOS AFRO BRAS    31011910 000094
10231987175000168817800093673    000035433                    000354330000000000000109                     I0235433     31011900000000040003410000017N261218104700000000000103101190000000000000000000000000000000000000000100009297297730FLAVIO JOAQUIM DOS SANTOS               RUA: SAO PAULON 0,                      PALMARES    23585800RIO DE JANEIRO RJUNIAO UMB DOS CULTOS AFRO BRAS    31011910 000095
10231987175000168817800093673    000035432                    000354320000000000000109                     I0235432     31011900000000040003410000017N261218104700000000000103101190000000000000000000000000000000000000000100008283706721LEVY ANDRE ASSIS FERREIRA DA S          TRAVESSA SANTO ANTONIO N 462, CASA 2    MARECHAL HER21557190RIO DE JANEIRO RJUNIAO UMB DOS CULTOS AFRO BRAS    31011910 000096
10231987175000168817800093673    000035431                    000354310000000000000109                     I0235431     31011900000000040003410000017N261218104700000000000103101190000000000000000000000000000000000000000100010440702771AMANDA APARECIDA AZEVEDO CARDO          TRAVESSA MANOELN 5, VILA VERDE          CAMPO GRANDE23071160RIO DE JANEIRO RJUNIAO UMB DOS CULTOS AFRO BRAS    31011910 000097
10231987175000168817800093673    000035430                    000354300000000000000109                     I0235430     31011900000000040003410000017N261218104700000000000103101190000000000000000000000000000000000000000100011709990775JOYCE MARA PINHEIRO DA SILVA            RUA SILVIO TIBIRICAN 507,               TURIACU     21540200RIO DE JANEIRO RJUNIAO UMB DOS CULTOS AFRO BRAS    31011910 000098
10231987175000168817800093673    000035429                    000354290000000000000109                     I0235429     31011900000000040003410000017N261218104700000000000103101190000000000000000000000000000000000000000100014963009714MICHELLE DA SILVA SOARES                RUA DONA CELINAN 215,                   PIABETA     25935702MAGE           RJUNIAO UMB DOS CULTOS AFRO BRAS    31011910 000099
10231987175000168817800093673    000035427                    000354270000000000000109                     I0235427     31011900000000040003410000017N261218104700000000000103101190000000000000000000000000000000000000000100000213766701ROSIVANIA CRUZ DA SILVA                 RUA PRIMEIRAN 0, BLOCO 2                SANTA CRUZ  23515180RIO DE JANEIRO RJUNIAO UMB DOS CULTOS AFRO BRAS    31011910 000100
10231987175000168817800093673    000035424                    000354240000000000000109                     I0235424     31011900000000040003410000017N261218104700000000000103101190000000000000000000000000000000000000000100005380679773ROBERTO DE OLIVEIRA RIBEIRO JU          RUA VINTE E TRESN 149, CASA 2 QUADRA 7  CONJUNTO CES23500000RIO DE JANEIRO RJUNIAO UMB DOS CULTOS AFRO BRAS    31011910 000101
10231987175000168817800093673    000035420                    000354200000000000000109                     I0235420     31011900000000040003410000017N261218104700000000000103101190000000000000000000000000000000000000000100001244562785LUIS CARLOS RIBEIRO                     RUA: NEIDE AFONSON 0, LOTE 5 QUADRA 14  SHANGRILA RO26150020BELFORD ROXO   RJUNIAO UMB DOS CULTOS AFRO BRAS    31011910 000102
10231987175000168817800093673    000035419                    000354190000000000000109                     I0235419     31011900000000040003410000017N261218104700000000000103101190000000000000000000000000000000000000000100003256338780REGINALDO ROSA DA SILVA                 RUA: TOMINASN 341,                      IPIRANGA ALI26293381NOVA IGUACU    RJUNIAO UMB DOS CULTOS AFRO BRAS    31011910 000103
10231987175000168817800093673    000035414                    000354140000000000000109                     I0235414     31011900000000040003410000017N261218104700000000000103101190000000000000000000000000000000000000000100093678754791ROSINETE MARIA DE OLIVEIRA              RUA ANGOLA N 24, ANTIGA RUA 9           CAPIVARI    25145080DUQUE DE CAXIASRJUNIAO UMB DOS CULTOS AFRO BRAS    31011910 000104
10231987175000168817800093673    000035413                    000354130000000000000109                     I0235413     31011900000000040003410000017N261218104700000000000103101190000000000000000000000000000000000000000100009289778709HELAINE FRANKLIN TEIXEIRA               RUA: CACHOEIRA ALTA N 0, LOTE 17 QUADRA JARDIM MARAV23031070CAMPO GRANDE   RJUNIAO UMB DOS CULTOS AFRO BRAS    31011910 000105
10231987175000168817800093673    000035411                    000354110000000000000109                     I0235411     31011900000000040003410000017N261218104700000000000103101190000000000000000000000000000000000000000100001096953722CLAUDIA GUIMARAES                       ESTRADA GUANDU DO SENA - RUA 29N 0, QUADCAMPO GRANDE23091220RIO DE JANEIRO RJUNIAO UMB DOS CULTOS AFRO BRAS    31011910 000106
10231987175000168817800093673    000035410                    000354100000000000000109                     I0235410     31011900000000040003410000017N261218104700000000000103101190000000000000000000000000000000000000000100080091229715MARCO ANTONIO DE OLIVEIRA TEIX          RUA: QUARENTA E UM N 0, QUADRA 47 LOTE 3JARDIM NOSSA23097260CAMPO GRANDE   RJUNIAO UMB DOS CULTOS AFRO BRAS    31011910 000107
10231987175000168817800093673    000035408                    000354080000000000000109                     I0235408     31011900000000040003410000017N261218104700000000000103101190000000000000000000000000000000000000000100095760024787LUCIMARA DIAS DE OLIVEIRA               RUA SANTO ELIASN 43,                    TURIACU     21540390RIO DE JANEIRO RJUNIAO UMB DOS CULTOS AFRO BRAS    31011910 000108
10231987175000168817800093673    000035405                    000354050000000000000109                     I0235405     31011900000000040003410000017N261218104700000000000103101190000000000000000000000000000000000000000100003654035710ELLEN CRISTINA DE ORNELAS NARC          RUA MARECHAL MARCIANO N 648,            REALENGO    21721011RIO DE JANEIRO RJUNIAO UMB DOS CULTOS AFRO BRAS    31011910 000109
10231987175000168817800093673    000035403                    000354030000000000000109                     I0235403     31011900000000040003410000017N261218104700000000000103101190000000000000000000000000000000000000000100012687881716DAIANA SANTANA DE LIMA                  RUA MANAUSN 149,                        CAMPOS ELISE25225000DUQUE DE CAXIASRJUNIAO UMB DOS CULTOS AFRO BRAS    31011910 000110
10231987175000168817800093673    000035402                    000354020000000000000109                     I0235402     31011900000000040003410000017N261218104700000000000103101190000000000000000000000000000000000000000100007040620707MONICA BORGES MATTOS                    RUA INHAMUNSN 46,                       VILA VALQUEI21321330RIO DE JANEIRO RJUNIAO UMB DOS CULTOS AFRO BRAS    31011910 000111
10231987175000168817800093673    000035400                    000354000000000000000109                     I0235400     31011900000000040003410000017N261218104700000000000103101190000000000000000000000000000000000000000100093255586704GRECIETE GOUDARD                        ESTRADA DO CAMPINHON 4501,              CAMPO GRANDE23066540RIO DE JANEIRO RJUNIAO UMB DOS CULTOS AFRO BRAS    31011910 000112
10231987175000168817800093673    000035399                    000353990000000000000109                     I0235399     31011900000000040003410000017N261218104700000000000103101190000000000000000000000000000000000000000100079034780791PAULO ROBERTO DE SOUZA MORENO           RUA CORONEL MALHAESN 0, LOTE 6 QUADRA 38TIRADENTES  26351180NOVA IGUACU    RJUNIAO UMB DOS CULTOS AFRO BRAS    31011910 000113
10231987175000168817800093673    000035398                    000353980000000000000109                     I0235398     31011900000000040003410000017N261218104700000000000103101190000000000000000000000000000000000000000100005229971711CATIA CILENE MASCARENHAS                RUA BUGANVILLEN 5, CASA 5               CONJUNTO SAN21843743CAMPO GRANDE   RJUNIAO UMB DOS CULTOS AFRO BRAS    31011910 000114
10231987175000168817800093673    000035397                    000353970000000000000109                     I0235397     31011900000000040003410000017N261218104700000000000103101190000000000000000000000000000000000000000100089982118749LENIR SILVA DOS SANTOS                  RUA: ILDEFONSO ALBANON 25, APTº 101    GUADALUPE   21670340RIO DE JANEIRO RJUNIAO UMB DOS CULTOS AFRO BRAS    31011910 000115
10231987175000168817800093673    000035394                    000353940000000000000109                     I0235394     31011900000000040003410000017N261218104700000000000103101190000000000000000000000000000000000000000100002406515702GILMA RODRIGUES COUTO                   RUA: PEREIRA FRAZAO N 78, A             PRACA SECA  21320220RIO DE JANEIRO RJUNIAO UMB DOS CULTOS AFRO BRAS    31011910 000116
10231987175000168817800093673    000035392                    000353920000000000000109                     I0235392     31011900000000040003410000017N261218104700000000000103101190000000000000000000000000000000000000000100064494527734RONALDO ROSAS ALVES                     ESTRADA COMANDANTEN 777,                PRATA       25976140TERESOPOLIS    RJUNIAO UMB DOS CULTOS AFRO BRAS    31011910 000117
10231987175000168817800093673    000035389                    000353890000000000000109                     I0235389     31011900000000040003410000017N261218104700000000000103101190000000000000000000000000000000000000000100028095391700SERGIO GARCIA DE QUEIROZ                RUA MATO GROSSON 702,                   SANTA CECILI25957250TERESOPOLIS    RJUNIAO UMB DOS CULTOS AFRO BRAS    31011910 000118
10231987175000168817800093673    000035388                    000353880000000000000109                     I0235388     31011900000000040003410000017N261218104700000000000103101190000000000000000000000000000000000000000100043397077753JOAO NORATO CEZARIO                     RUA POETA MANOEL BANDEIRAN 39, ANTIGO LOCABUIS      26540260NILOPOLIS      RJUNIAO UMB DOS CULTOS AFRO BRAS    31011910 000119
10231987175000168817800093673    000035387                    000353870000000000000109                     I0235387     31011900000000040003410000017N261218104700000000000103101190000000000000000000000000000000000000000100012295676746JEFFERSON ANTONIO TELLES GALDI          RUA MOUZIN DE ALBUQUERQUEN 492,         SAO VICENTE 26178080BELFORD ROXO   RJUNIAO UMB DOS CULTOS AFRO BRAS    31011910 000120
10231987175000168817800093673    000035381                    000353810000000000000109                     I0235381     31011900000000040003410000017N261218104700000000000103101190000000000000000000000000000000000000000100009526018770VERONICA MARIA LIMA                     RUA KEMAL PALHAN 5,                     VILA SANTO A25040220DUQUE DE CAXIASRJUNIAO UMB DOS CULTOS AFRO BRAS    31011910 000121
10231987175000168817800093673    000035380                    000353800000000000000109                     I0235380     31011900000000040003410000017N261218104700000000000103101190000000000000000000000000000000000000000100003250570796VERONICA LUCIA DA CRUZ                  ESTRADA: DOUTOR FARRULAN 0, LOTE 8 QUADRSAO FRANCISC26125400BELFORD ROXO   RJUNIAO UMB DOS CULTOS AFRO BRAS    31011910 000122
10231987175000168817800093673    000035379                    000353790000000000000109                     I0235379     31011900000000040003410000017N261218104700000000000103101190000000000000000000000000000000000000000100059598255700TEREZINHA MARIA DE JESUS PINHE          RUA: MANOEL DA SILVA PEREIRA N 0, QUADRAPRADOS VERDE26299003NOVA IGUACU    RJUNIAO UMB DOS CULTOS AFRO BRAS    31011910 000123
10231987175000168817800093673    000035378                    000353780000000000000109                     I0235378     31011900000000040003410000017N261218104700000000000103101190000000000000000000000000000000000000000100002527980740ARMANDO DE ALMEIDA                      RUA PEDRO JOSE DE OLIVEIRA N 255,       VARGEM GRAND27145231BARRA DO PIRAI RJUNIAO UMB DOS CULTOS AFRO BRAS    31011910 000124
10231987175000168817800093673    000035377                    000353770000000000000109                     I0235377     31011900000000040003410000017N261218104700000000000103101190000000000000000000000000000000000000000100005978854785ALEXANDRE MOTA DOS SANTOS               RUA BRUNO SENDERN 26,                   JARDIM NOVA 26266040NOVA IGUACU    RJUNIAO UMB DOS CULTOS AFRO BRAS    31011910 000125
10231987175000168817800093673    000035376                    000353760000000000000109                     I0235376     31011900000000040003410000017N261218104700000000000103101190000000000000000000000000000000000000000100014907708793THIAGO CARVALHO VIDAL LIMA              RUA JOAO MARTINS N 265,                 BNH         25900353MAGE           RJUNIAO UMB DOS CULTOS AFRO BRAS    31011910 000126
10231987175000168817800093673    000035373                    000353730000000000000109                     I0235373     31011900000000040003410000017N261218104700000000000103101190000000000000000000000000000000000000000100007337231792SAMANTHA PRISCILA MARQUES MORE          RUA: INSPETOR CASTRO N 0, QUADRA 2 CASA SARACURUNA  25211410DUQUE DE CAXIASRJUNIAO UMB DOS CULTOS AFRO BRAS    31011910 000127
10231987175000168817800093673    000035368                    000353680000000000000109                     I0235368     31011900000000040003410000017N261218104700000000000103101190000000000000000000000000000000000000000100095846190715ANA MARIA NICANOR DE QUADRO             RUA PASSO FUNDON 118, LOTE 104          JARDIM GUAND26298189NOVA IGUACU    RJUNIAO UMB DOS CULTOS AFRO BRAS    31011910 000128
10231987175000168817800093673    000035367                    000353670000000000000109                     I0235367     31011900000000040003410000017N261218104700000000000103101190000000000000000000000000000000000000000100001161586709ALEXANDRE PIMPAREL DA SILVA             RUA: COMENDADOR VENACION 0,             PALHADA     26290204NOVA IGUACU    RJUNIAO UMB DOS CULTOS AFRO BRAS    31011910 000129
10231987175000168817800093673    000035365                    000353650000000000000109                     I0235365     31011900000000040003410000017N261218104700000000000103101190000000000000000000000000000000000000000100010765062755IVONE JOAO PEDRO                        RUA MARMIARIN 605,                      SENADOR CAMA21831000RIO DE JANEIRO RJUNIAO UMB DOS CULTOS AFRO BRAS    31011910 000130
10231987175000168817800093673    000035364                    000353640000000000000109                     I0235364     31011900000000040003410000017N261218104700000000000103101190000000000000000000000000000000000000000100085957879720MARIA DA APARECIDA VICENTE DUQ          RUA FRANCISCO VIOLTI N 43, CASA 2       HELIOPOLIS  26125440BELFORD ROXO   RJUNIAO UMB DOS CULTOS AFRO BRAS    31011910 000131
10231987175000168817800093673    000035363                    000353630000000000000109                     I0235363     31011900000000040003410000017N261218104700000000000103101190000000000000000000000000000000000000000100005933193704ANA PAULA DA SILVA SANTOS               RUA APIACAN 0, LOTE 12 QUADRA 41        JARDIM BARRO25267290DUQUE DE CAXIASRJUNIAO UMB DOS CULTOS AFRO BRAS    31011910 000132
10231987175000168817800093673    000035361                    000353610000000000000109                     I0235361     31011900000000040003410000017N261218104700000000000103101190000000000000000000000000000000000000000100085542091768SUELY PEREIRA DA SILVA CALIXTO          RUA RICARDO XAVIER DA SILVEIRA N 31,    IMBARIE     25266005DUQUE DE CAXIASRJUNIAO UMB DOS CULTOS AFRO BRAS    31011910 000133
10231987175000168817800093673    000035356                    000353560000000000000109                     I0235356     31011900000000040003410000017N261218104700000000000103101190000000000000000000000000000000000000000100000858723778GEOVANI FERNANDA DA SILVA               RUA SOFIA BARRETON 34,                  DUMAS - SANT23550700RIO DE JANEIRO RJUNIAO UMB DOS CULTOS AFRO BRAS    31011910 000134
10231987175000168817800093673    000035354                    000353540000000000000109                     I0235354     31011900000000040003410000017N261218104700000000000103101190000000000000000000000000000000000000000100011700984799CRISTIANE SANTOS FEIJO VIEIRA           RUA NICOLAU TOUQUETN 0, LOTE 20 QUADRA 1JARDIM CATAR24716403SAO GONCALO    RJUNIAO UMB DOS CULTOS AFRO BRAS    31011910 000135
10231987175000168817800093673    000035353                    000353530000000000000109                     I0235353     31011900000000040003410000017N261218104700000000000103101190000000000000000000000000000000000000000100022532412100MARIA DA GRACA MACHADO DOS SAN          RUA: ARCOZELON 0, QUADRA 115 LOTE 19    PARQUE ARARU25585560SAO JOAO DE MERRJUNIAO UMB DOS CULTOS AFRO BRAS    31011910 000136
10231987175000168817800093673    000035349                    000353490000000000000109                     I0235349     31011900000000040003410000017N261218104700000000000103101190000000000000000000000000000000000000000100009963194761FERNANDO PECANHA PIRES                  RUA: GENERAL BASILION 447,              TABORDA     28680000CACHOEIRA DE MARJUNIAO UMB DOS CULTOS AFRO BRAS    31011910 000137
10231987175000168817800093673    000035348                    000353480000000000000109                     I0235348     31011900000000040003410000017N261218104700000000000103101190000000000000000000000000000000000000000100009491065777VIVIAN LUIZA FREITAS DE AGUIAR          RUA ITAPETININGAN 520,                  VICENTE DE C21370680RIO DE JANEIRO RJUNIAO UMB DOS CULTOS AFRO BRAS    31011910 000138
10231987175000168817800093673    000035347                    000353470000000000000109                     I0235347     31011900000000040003410000017N261218104700000000000103101190000000000000000000000000000000000000000100002331392730ANA MARIA DOS SANTOS VIEIRA             RUA: CRUZ DE SOUZAN 57,                 CARMARY POSS26022281NOVA IGUACU    RJUNIAO UMB DOS CULTOS AFRO BRAS    31011910 000139
10231987175000168817800093673    000035345                    000353450000000000000109                     I0235345     31011900000000040003410000017N261218104700000000000103101190000000000000000000000000000000000000000100003018847733MARIA AILHA BERNARDO PINTO              RUA RUBIAO JUNIOR N 109,                CENTRO      23860000MANGARATIBA    RJUNIAO UMB DOS CULTOS AFRO BRAS    31011910 000140
10231987175000168817800093673    000035342                    000353420000000000000109                     I0235342     31011900000000040003410000017N261218104700000000000103101190000000000000000000000000000000000000000100007852297790IRENE FRANCISCO LIMA                    RUA VIRGILIO VARZEAN 0, LOTE 1 QUADRA 1 VILA SAO LUI25051110DUQUE DE CAXIASRJUNIAO UMB DOS CULTOS AFRO BRAS    31011910 000141
10231987175000168817800093673    000035326                    000353260000000000000109                     I0235326     31011900000000040003410000017N261218104700000000000103101190000000000000000000000000000000000000000100009145082707ELAINE CRISTINA DE MORAES               RUA GENTIL DO OURON 11,                 AGUIAR TORRE23063340INHOAIBA       RJUNIAO UMB DOS CULTOS AFRO BRAS    31011910 000142
10231987175000168817800093673    000035324                    000353240000000000000109                     I0235324     31011900000000040003410000017N261218104700000000000103101190000000000000000000000000000000000000000100013849060705LEONARDO ENEDINA DE MELO                RUA JULIO VERNERN 0, QUADRA 24 LOTE 10  SANTA RITA  26050517NOVA IGUACU    RJUNIAO UMB DOS CULTOS AFRO BRAS    31011910 000143
10231987175000168817800093673    000035321                    000353210000000000000109                     I0235321     31011900000000040003410000017N261218104700000000000103101190000000000000000000000000000000000000000100008926305740PATRICIA DOS SANTOS LOPES               RUA: CASTELO AZULN 0, LOTE 7 QUADRA A   JARDIM GUAND26298048NOVA IGUACU    RJUNIAO UMB DOS CULTOS AFRO BRAS    31011910 000144
10231987175000168817800093673    000035320                    000353200000000000000109                     I0235320     31011900000000040003410000017N261218104700000000000103101190000000000000000000000000000000000000000100004842101490MARIA DE LOURDES FARIAS DOS SA          RUA HELIO DE OLIVEIRAN 0, LOTE 29 QUADRAPARADA MORAB25000000DUQUE DE CAXIASRJUNIAO UMB DOS CULTOS AFRO BRAS    31011910 000145
10231987175000168817800093673    000035318                    000353180000000000000109                     I0235318     31011900000000040003410000017N261218104700000000000103101190000000000000000000000000000000000000000100004474701755JACIRA DE ALMEIDA BATISTA JULI          AVENIDA SAO PAULON 0, LOTE 11 QUADRA 18 PARQUE MARIL25225660DUQUE DE CAXIASRJUNIAO UMB DOS CULTOS AFRO BRAS    31011910 000146
10231987175000168817800093673    000035314                    000353140000000000000109                     I0235314     31011900000000040003410000017N261218104700000000000103101190000000000000000000000000000000000000000100002209208777ELIELSON DOS SANTOS CARVALHAES          RUA GENTIL DE OURO N 615, BLOCO 12 APT 4INHOAIBA    23063340RIO DE JANEIRO RJUNIAO UMB DOS CULTOS AFRO BRAS    31011910 000147
10231987175000168817800093673    000035313                    000353130000000000000109                     I0235313     31011900000000040003410000017N261218104700000000000103101190000000000000000000000000000000000000000100010456888780TIAGO PINTO ESPOSTI                     RUA ROSSINA FREITAS MEDEIROSN 38,       PARQUE AEROP27963672MACAE          RJUNIAO UMB DOS CULTOS AFRO BRAS    31011910 000148
10231987175000168817800093673    000035311                    000353110000000000000109                     I0235311     31011900000000040003410000017N261218104700000000000103101190000000000000000000000000000000000000000100011688945733ENEDIR RODRIGUES RAMOS                  AVENIDA JOAO BRASIL N 2233,             ENGENHOCA   24000000NITEROI        RJUNIAO UMB DOS CULTOS AFRO BRAS    31011910 000149
10231987175000168817800093673    000035310                    000353100000000000000109                     I0235310     31011900000000040003410000017N261218104700000000000103101190000000000000000000000000000000000000000100002621693717JUREMA DE OLIVEIRA RODRIGUES            ESTRADA: INTENDENTE MAGALHAES N 196, APACAMPINHO    21341330RIO DE JANEIRO RJUNIAO UMB DOS CULTOS AFRO BRAS    31011910 000150
10231987175000168817800093673    000035309                    000353090000000000000109                     I0235309     31011900000000040003410000017N261218104700000000000103101190000000000000000000000000000000000000000100010292272766MARCIA JUPIRA SANTOS GONZAGA            RUA ANTONIO FELIX N 457,                CENTRO      26520081NILOPOLIS      RJUNIAO UMB DOS CULTOS AFRO BRAS    31011910 000151
10231987175000168817800093673    000035308                    000353080000000000000109                     I0235308     31011900000000040003410000017N261218104700000000000103101190000000000000000000000000000000000000000100016492108760TIAGO LOPES DE AZEVEDO SILVA            RUA: XN 24, QUADRA 82                   PARADA MODEL25943365GUAPIMIRIM     RJUNIAO UMB DOS CULTOS AFRO BRAS    31011910 000152
10231987175000168817800093673    000035306                    000353060000000000000109                     I0235306     31011900000000040003410000017N261218104700000000000103101190000000000000000000000000000000000000000100012993228757ANDREIA CRISTINA VICENTE                RUA: CORONEL CARLOS MATOSN 32,          PARQUE JOAO 25030140DUQUE DE CAXIASRJUNIAO UMB DOS CULTOS AFRO BRAS    31011910 000153
10231987175000168817800093673    000035305                    000353050000000000000109                     I0235305     31011900000000040003410000017N261218104700000000000103101190000000000000000000000000000000000000000100048972215791MARIA PETRONILHA ROSA NATIVIDA          RUA: JACARE ACANGAN 29, QUADRA 21       VILA MARIA H25255590DUQUE DE CAXIASRJUNIAO UMB DOS CULTOS AFRO BRAS    31011910 000154
10231987175000168817800093673    000035304                    000353040000000000000109                     I0235304     31011900000000040003410000017N261218104700000000000103101190000000000000000000000000000000000000000100009416663794IGOR DO NASCIMENTO RODRIGUES            RUA FIGUEIREDO ROCHA N 665,             VIGARIO GERA21240660RIO DE JANEIRO RJUNIAO UMB DOS CULTOS AFRO BRAS    31011910 000155
10231987175000168817800093673    000035303                    000353030000000000000109                     I0235303     31011900000000040003410000017N261218104700000000000103101190000000000000000000000000000000000000000100040664325734GENI BARBOSA ROCHA DA SILVA             TRAVESSA DA AMIZADEN 34, APT 602        VILA DA PENH25268020RIO DE JANEIRO RJUNIAO UMB DOS CULTOS AFRO BRAS    31011910 000156
10231987175000168817800093673    000035301                    000353010000000000000109                     I0235301     31011900000000040003410000017N261218104700000000000103101190000000000000000000000000000000000000000100069279500791CLAUDIA ALONSO RODRIGUES                ESTRADA DO PAU FERRO N 851,             FREGUESIA   22745055RIO DE JANEIRO RJUNIAO UMB DOS CULTOS AFRO BRAS    31011910 000157
10231987175000168817800093673    000035299                    000352990000000000000109                     I0235299     31011900000000040003410000017N261218104700000000000103101190000000000000000000000000000000000000000100084301724753ANA LUCIA FERREIRA DA SILVA             RUA HUGO CESAR MONTEIRO DA SILVA N 42,  CAICARA     26015000NOVA IGUACU    RJUNIAO UMB DOS CULTOS AFRO BRAS    31011910 000158
10231987175000168817800093673    000035298                    000352980000000000000109                     I0235298     31011900000000040003410000017N261218104700000000000103101190000000000000000000000000000000000000000100024810517349SILANIA MARIA AGUIAR GOIS               RUA DOMINGOS TAVARES DE SOUZAN 319, APT VIVENDAS DA 36047250JUIZ DE FORA   MGUNIAO UMB DOS CULTOS AFRO BRAS    31011910 000159
10231987175000168817800093673    000035296                    000352960000000000000109                     I0235296     31011900000000040003410000017N261218104700000000000103101190000000000000000000000000000000000000000100076348547787EDIVANICE DE OLIVEIRA DA CRUZ           RUA J J COWSERT N 300, CASA 20          TOMAS COELHO21370450RIO DE JANEIRO RJUNIAO UMB DOS CULTOS AFRO BRAS    31011910 000160
10231987175000168817800093673    000035295                    000352950000000000000109                     I0235295     31011900000000040003410000017N261218104700000000000103101190000000000000000000000000000000000000000100000891933778MARIA DAS NEVES FERREIRA DO NA          RUA CAMINHO DA CHACARA N 519,           PRACA SECA  22733060RIO DE JANEIRO RJUNIAO UMB DOS CULTOS AFRO BRAS    31011910 000161
10231987175000168817800093673    000035294                    000352940000000000000109                     I0235294     31011900000000040003410000017N261218104700000000000103101190000000000000000000000000000000000000000100074979205704ROSANA HELENA PIRES                     RUA ITAUNAS  N 401, BL 29 APT 102       CAMPO GRANDE23068155RIO DE JANEIRO RJUNIAO UMB DOS CULTOS AFRO BRAS    31011910 000162
10231987175000168817800093673    000035293                    000352930000000000000109                     I0235293     31011900000000040003410000017N261218104700000000000103101190000000000000000000000000000000000000000100040402711734PAULO CESAR ANASTACIO PEREIRA           RUA BOTOCUDOSN 0, LOTE 18 QUADRA 347 (ANPARADA MORAB25265351DUQUE DE CAXIASRJUNIAO UMB DOS CULTOS AFRO BRAS    31011910 000163
10231987175000168817800093673    000035292                    000352920000000000000109                     I0235292     31011900000000040003410000017N261218104700000000000103101190000000000000000000000000000000000000000100008401319765ANDRE FERREIRA DE PAULA                 RUA: AMERICO ROCHA N 1095, APARTAMENTO 2MARECHAL HER21555300RIO DE JANEIRO RJUNIAO UMB DOS CULTOS AFRO BRAS    31011910 000164
10231987175000168817800093673    000035291                    000352910000000000000109                     I0235291     31011900000000040003410000017N261218104700000000000103101190000000000000000000000000000000000000000100058365737787ALTAMIRA ROSA                           AVENIDA DO CONTORNON 17, CASA 2         PARADA MORAB25000000DUQUE DE CAXIASRJUNIAO UMB DOS CULTOS AFRO BRAS    31011910 000165
10231987175000168817800093673    000035290                    000352900000000000000109                     I0235290     31011900000000040003410000017N261218104700000000000103101190000000000000000000000000000000000000000100074171372704ELIANE DE SOUZA MACHADO                 RUA ROQUETE PINTON 0, LOTE 22 QUADRA 290JARDIM ANHAN25265200DUQUE DE CAXIASRJUNIAO UMB DOS CULTOS AFRO BRAS    31011910 000166
10231987175000168817800093673    000035289                    000352890000000000000109                     I0235289     31011900000000040003410000017N261218104700000000000103101190000000000000000000000000000000000000000100053218833787MARLUCE SUELY DA SILVA                  RUA CHRISOSTOMO PIMENTEL DE OLIVEIRAN 63ANCHIETA    21645521RIO DE JANEIRO RJUNIAO UMB DOS CULTOS AFRO BRAS    31011910 000167
10231987175000168817800093673    000035288                    000352880000000000000109                     I0235288     31011900000000040003410000017N261218104700000000000103101190000000000000000000000000000000000000000100090617240744RAQUEL DA PAZ                           RUA ITABIBOCAN 0, LOTE 10 QUADRA 342 (ANPARADA MORAB25265188DUQUE DE CAXIASRJUNIAO UMB DOS CULTOS AFRO BRAS    31011910 000168
10231987175000168817800093673    000035287                    000352870000000000000109                     I0235287     31011900000000040003410000017N261218104700000000000103101190000000000000000000000000000000000000000100079882749704IRIS BRASILINO VILELA                   RUA: SETE DE SETEMBRO N 183,            CAMARI      26022202NOVA IGUACU    RJUNIAO UMB DOS CULTOS AFRO BRAS    31011910 000169
10231987175000168817800093673    000035286                    000352860000000000000109                     I0235286     31011900000000040003410000017N261218104700000000000103101190000000000000000000000000000000000000000100082191638791RITA DE CASSIA VALVERDE ROCHA           RUA JOAQUIM SOARES NETO N 250,          NOVA AMERICA26021560NOVA IGUACU    RJUNIAO UMB DOS CULTOS AFRO BRAS    31011910 000170
10231987175000168817800093673    000035284                    000352840000000000000109                     I0235284     31011900000000040003410000017N261218104700000000000103101190000000000000000000000000000000000000000100004244337709WANDERSON SANTOS DA SILVA               RUA ARMANDO SANTOS N 113, CASA 2        RECREIO DOS 22795330RIO DE JANEIRO RJUNIAO UMB DOS CULTOS AFRO BRAS    31011910 000171
10231987175000168817800093673    000035282                    000352820000000000000109                     I0235282     31011900000000040003410000017N261218104700000000000103101190000000000000000000000000000000000000000100012727461780SUELMIR LIMA DE ARAUJO                  RUA NOSSA SENHORA DAS GRACASN 98,       PRAIA DO ANI25925708MAGE           RJUNIAO UMB DOS CULTOS AFRO BRAS    31011910 000172
10231987175000168817800093673    000035280                    000352800000000000000109                     I0235280     31011900000000040003410000017N261218104700000000000103101190000000000000000000000000000000000000000100001346375771CRISTIANE MARIANO RAPELLO               ESTRADA ALBERTO TEIXEIRA CUNHA N 1410, CNOSSA SENHOR26520070NILOPOLIS      RJUNIAO UMB DOS CULTOS AFRO BRAS    31011910 000173
10231987175000168817800093673    000035279                    000352790000000000000109                     I0235279     31011900000000040003410000017N261218104700000000000103101190000000000000000000000000000000000000000100011351878786GLEISSON BITTENCOURT DA SILVA           RUA FLORA DE ARAUJO N 310,              PRATA       26010570NOVA IGUACU    RJUNIAO UMB DOS CULTOS AFRO BRAS    31011910 000174
10231987175000168817800093673    000035276                    000352760000000000000109                     I0235276     31011900000000040003410000017N261218104700000000000103101190000000000000000000000000000000000000000100070645523704RICARDO DE SOUZA LIMA                   RUA MAJOR AZEVEDO N 344,                IRAJA       21230060RIO DE JANEIRO RJUNIAO UMB DOS CULTOS AFRO BRAS    31011910 000175
10231987175000168817800093673    000035275                    000352750000000000000109                     I0235275     31011900000000040003410000017N261218104700000000000103101190000000000000000000000000000000000000000100068373570772RONILCE CAMILO DA SILVA                 RUA RUBY ALBERTORIAN 158, APT 101       BARAO DE GUA26061155NOVA IGUACU    RJUNIAO UMB DOS CULTOS AFRO BRAS    31011910 000176
10231987175000168817800093673    000035274                    000352740000000000000109                     I0235274     31011900000000040003410000017N261218104700000000000103101190000000000000000000000000000000000000000100047442140700MARFIZA FERREIRA DA SILVA VENA          RUA EURICO COELHO N 50,                 GRAMA       26060650NOVA IGUACU    RJUNIAO UMB DOS CULTOS AFRO BRAS    31011910 000177
10231987175000168817800093673    000035272                    000352720000000000000109                     I0235272     31011900000000040003410000017N261218104700000000000103101190000000000000000000000000000000000000000100000680684760CREUSA MARCIA SATURNINO ALVES           RUA NOSSA SENHORA DE NAZAREN 8,         GERENCIANO  26061700NOVA IGUACU    RJUNIAO UMB DOS CULTOS AFRO BRAS    31011910 000178
10231987175000168817800093673    000035270                    000352700000000000000109                     I0235270     31011900000000040003410000017N261218104700000000000103101190000000000000000000000000000000000000000100005828675761THAYS DE FATIMA FERREIRA GOMES          ESTRADA GENERAL AFONSO DE CARVALHON 989,PADRE MIGUEL21725020RIO DE JANEIRO RJUNIAO UMB DOS CULTOS AFRO BRAS    31011910 000179
10231987175000168817800093673    000035269                    000352690000000000000109                     I0235269     31011900000000040003410000017N261218104700000000000103101190000000000000000000000000000000000000000100076994511715MARIA DAS GRACAS SANTOS DA SIL          RUA GOMES CARNEIRO N 0, LT 29 QD 39     SARACURUNA  25211050DUQUE DE CAXIASRJUNIAO UMB DOS CULTOS AFRO BRAS    31011910 000180
10231987175000168817800093673    000035266                    000352660000000000000109                     I0235266     31011900000000040003410000017N261218104700000000000103101190000000000000000000000000000000000000000100056381832720DAVI LEMOS MOREIRA                      RUA CARLINDA N 250, TRIANGULO           VILA DE CAVA26052120NOVA IGUACU    RJUNIAO UMB DOS CULTOS AFRO BRAS    31011910 000181
10231987175000168817800093673    000035264                    000352640000000000000109                     I0235264     31011900000000040003410000017N261218104700000000000103101190000000000000000000000000000000000000000100025812114749JAIR FERREIRA FILHO                     RUA ENGENHEIRO PINHO DE MAGALHAES N 70, VILA DA PENH21220410RIO DE JANEIRO RJUNIAO UMB DOS CULTOS AFRO BRAS    31011910 000182
10231987175000168817800093673    000035263                    000352630000000000000109                     I0235263     31011900000000040003410000017N261218104700000000000103101190000000000000000000000000000000000000000100010276278704ROSELI DE OLIVEIRA DUTRA                RUA UM N 0, LOTE 7 QUADRA 8             TAQUARA     25275110DUQUE DE CAXIASRJUNIAO UMB DOS CULTOS AFRO BRAS    31011910 000183
10231987175000168817800093673    000035259                    000352590000000000000109                     I0235259     31011900000000040003410000017N261218104700000000000103101190000000000000000000000000000000000000000100005646881773DEBORA LINS                             RUA KARLAN 0, LOTE 24 QUADRA 3          VALE DO IPE 26182330BELFORD ROXO   RJUNIAO UMB DOS CULTOS AFRO BRAS    31011910 000184
10231987175000168817800093673    000035258                    000352580000000000000109                     I0235258     31011900000000040003410000017N261218104700000000000103101190000000000000000000000000000000000000000100002373869764ANA PAULA OLIVEIRA DE ANDRADE           RUA FERNANDO DA COSTA N 0,  LOTE 25 QUADPARQUE MARTI26183543BELFORD ROXO   RJUNIAO UMB DOS CULTOS AFRO BRAS    31011910 000185
10231987175000168817800093673    000035256                    000352560000000000000109                     I0235256     31011900000000040003410000017N261218104700000000000103101190000000000000000000000000000000000000000100038835568749MARIA DE ALCANTARA GOULART SIL          RUA GAMBIA N 41,                        JACAREPAGUA 22775400RIO DE JANEIRO RJUNIAO UMB DOS CULTOS AFRO BRAS    31011910 000186
10231987175000168817800093673    000035255                    000352550000000000000109                     I0235255     31011900000000040003410000017N261218104700000000000103101190000000000000000000000000000000000000000100011998959708ARTUR TAVARES DA SILVA NETO             RUA PREFEITO JOAO CARLOS VITAL N 17,    CROACIA - SE23540080RIO DE JANEIRO RJUNIAO UMB DOS CULTOS AFRO BRAS    31011910 000187
10231987175000168817800093673    000035254                    000352540000000000000109                     I0235254     31011900000000040003410000017N261218104700000000000103101190000000000000000000000000000000000000000100008502438743ALINE RAMOS DE SOUZA DA SILVA           RUA DOUTOR ISMAEL CAVALCANTI N 240,     SEPETIBA    23545145RIO DE JANEIRO RJUNIAO UMB DOS CULTOS AFRO BRAS    31011910 000188
10231987175000168817800093673    000035253                    000352530000000000000109                     I0235253     31011900000000040003410000017N261218104700000000000103101190000000000000000000000000000000000000000100007103755736ALESSANDRA COSTA DE BARROS              PRACA OSCAR ROSSIM N 84,                SEPETIBA    23540250RIO DE JANEIRO RJUNIAO UMB DOS CULTOS AFRO BRAS    31011910 000189
10231987175000168817800093673    000035252                    000352520000000000000109                     I0235252     31011900000000040003410000017N261218104700000000000103101190000000000000000000000000000000000000000100002420898796ROSILENE MATHEUS DE CARVALHO            RUA KEMAL PACHA N 43,                   VILA SANTO A25040220DUQUE DE CAXIASRJUNIAO UMB DOS CULTOS AFRO BRAS    31011910 000190
10231987175000168817800093673    000035251                    000352510000000000000109                     I0235251     31011900000000040003410000017N261218104700000000000103101190000000000000000000000000000000000000000100014563820717PAULA GOMES DA SILVA MOTTA              RUA GABRIEL DANUSION 10, FUNDOS         VILA SANTO A25040230DUQUE DE CAXIASRJUNIAO UMB DOS CULTOS AFRO BRAS    31011910 000191
10231987175000168817800093673    000035247                    000352470000000000000109                     I0235247     31011900000000040003410000017N261218104700000000000103101190000000000000000000000000000000000000000100002638717703EDINO GOMES DE BARROS JUNIOR            RUA PARANA N 10,                        MORRO DO ORI24400000SAO GONCALO    RJUNIAO UMB DOS CULTOS AFRO BRAS    31011910 000192
10231987175000168817800093673    000035246                    000352460000000000000109                     I0235246     31011900000000040003410000017N261218104700000000000103101190000000000000000000000000000000000000000100000920173713JORGE DOS SANTOS LUCAS                  RUA PPN 0,  LOTE 5 QUADRA 48            JARDIM ANHAN25264630DUQUE DE CAXIASRJUNIAO UMB DOS CULTOS AFRO BRAS    31011910 000193
10231987175000168817800093673    000035238                    000352380000000000000109                     I0235238     31011900000000040003410000017N261218104700000000000103101190000000000000000000000000000000000000000100001857739744JORGE DE MORAES ESTANISLAU              RUA TITANICN 7, CASA 1 FUNDOS           REALENGO    21735620RIO DE JANEIRO RJUNIAO UMB DOS CULTOS AFRO BRAS    31011910 000194
10231987175000168817800093673    000035237                    000352370000000000000109                     I0235237     31011900000000040003410000017N261218104700000000000103101190000000000000000000000000000000000000000100001251801790AMARO LYRA DOS SANTOS FILHO             RUA JOAO VICENTE N 281, CASA 5          MADUREIRA   21340020RIO DE JANEIRO RJUNIAO UMB DOS CULTOS AFRO BRAS    31011910 000195
10231987175000168817800093673    000035233                    000352330000000000000109                     I0235233     31011900000000040003410000017N261218104700000000000103101190000000000000000000000000000000000000000100002520859733ZILAIR SANTOS BARBOSA                   RUA MARANGAN 48,                        PRACA SECA  21321060RIO DE JANEIRO RJUNIAO UMB DOS CULTOS AFRO BRAS    31011910 000196
10231987175000168817800093673    000035229                    000352290000000000000109                     I0235229     31011900000000040003410000017N261218104700000000000103101190000000000000000000000000000000000000000100014199569731LUIS FILIPE SANTOS COSTA                ESTRADA DOUTOR JOAQUIM NICOLAU N 1529, CPRACA PONTE 26900000MIGUEL PEREIRA RJUNIAO UMB DOS CULTOS AFRO BRAS    31011910 000197
10231987175000168817800093673    000035227                    000352270000000000000109                     I0235227     31011900000000040003410000017N261218104700000000000103101190000000000000000000000000000000000000000100053470095787OSVALDO VALENTE COELHO FILHO            RUA VISCONDE DE SABOIA N 54, RUA I N 111CAVALCANTI  21370220RIO DE JANEIRO RJUNIAO UMB DOS CULTOS AFRO BRAS    31011910 000198
10231987175000168817800093673    000035218                    000352180000000000000109                     I0235218     31011900000000040003410000017N261218104700000000000103101190000000000000000000000000000000000000000100003013793783GIOVANA SURAMA BRANDAO MONFORT          RUA JOAO TELESN 0, LOTE 94 QUADRA 93    CENTRO      26550100MESQUITA       RJUNIAO UMB DOS CULTOS AFRO BRAS    31011910 000199
10231987175000168817800093673    000035217                    000352170000000000000109                     I0235217     31011900000000040003410000017N261218104700000000000103101190000000000000000000000000000000000000000100009199332701LUANDA MOREIRA DOS SANTOS FERN          RUA SEVERIANO MONTEIRON 232, APT 302    BRAZ DE PINA21235620RIO DE JANEIRO RJUNIAO UMB DOS CULTOS AFRO BRAS    31011910 000200
10231987175000168817800093673    000035214                    000352140000000000000109                     I0235214     31011900000000040003410000017N261218104700000000000103101190000000000000000000000000000000000000000100002102287769SERGIO RICARDO FERREIRA DOS SA          RUA LAGUNA N 23,                        NOVA PIAM   26051370BELFORD ROXO   RJUNIAO UMB DOS CULTOS AFRO BRAS    31011910 000201
10231987175000168817800093673    000035213                    000352130000000000000109                     I0235213     31011900000000040003410000017N261218104700000000000103101190000000000000000000000000000000000000000100003009392729MARIA DA PENHA FLORENCIO                RUA SABUJI DIM ROTSENN 0, LOTE 5 QUADRA JARDIM ROTSE25270030DUQUE DE CAXIASRJUNIAO UMB DOS CULTOS AFRO BRAS    31011910 000202
10231987175000168817800093673    000035212                    000352120000000000000109                     I0235212     31011900000000040003410000017N261218104700000000000103101190000000000000000000000000000000000000000100001147868794VALERIA APARECIDA DE SOUZA              RUA ALCYR BRASIL N 710,                 JARDIM NOVA 26266010NOVA IGUACU    RJUNIAO UMB DOS CULTOS AFRO BRAS    31011910 000203
10231987175000168817800093673    000035211                    000352110000000000000109                     I0235211     31011900000000040003410000017N261218104700000000000103101190000000000000000000000000000000000000000100007900227709FLAVIA ARAUJO DA ROCHA SANTOS           RUA MARECHAL BIBIANO COSTALAT N 588,    REALENGO    21735350RIO DE JANEIRO RJUNIAO UMB DOS CULTOS AFRO BRAS    31011910 000204
10231987175000168817800093673    000035209                    000352090000000000000109                     I0235209     31011900000000040003410000017N261218104700000000000103101190000000000000000000000000000000000000000100099941120749ERNELIA DA SILVA                        RUA JOSE BEZZ N 23, LOTE 299 QUADRA 9   GABRIEL UM  24856172ITABORAI       RJUNIAO UMB DOS CULTOS AFRO BRAS    31011910 000205
10231987175000168817800093673    000035207                    000352070000000000000109                     I0235207     31011900000000040003410000017N261218104700000000000103101190000000000000000000000000000000000000000100002362714748MAGLENE GOMES ARAUJO                    RUA TENENTE PINTO DUARTE N 36,          BENTO RIBEIR21550370RIO DE JANEIRO RJUNIAO UMB DOS CULTOS AFRO BRAS    31011910 000206
10231987175000168817800093673    000035204                    000352040000000000000109                     I0235204     31011900000000040003410000017N261218104700000000000103101190000000000000000000000000000000000000000100064947130768MARIA GORETE DE SOUSA MIRANDA           AVENIDA PASTEUR N 113, A                PARQUE ALIAN25550210SAO JOAO DE MERRJUNIAO UMB DOS CULTOS AFRO BRAS    31011910 000207
10231987175000168817800093673    000035202                    000352020000000000000109                     I0235202     31011900000000040003410000017N261218104700000000000103101190000000000000000000000000000000000000000100012781404764RICARDO RIBEIRO DOS SANTOS              RUA MARIA FRANCISCAN 16, B              CENTRO - CAM23050030RIO DE JANEIRO RJUNIAO UMB DOS CULTOS AFRO BRAS    31011910 000208
10231987175000168817800093673    000035197                    000351970000000000000109                     I0235197     31011900000000045003410000017N261218104700000000000103101190000000000000000000000000000000000000000100004524099778CRISTIANE VIEIRA DAS CHAGAS             AVENIDA FLAMBOYNTS N 100, BLOCO 2 APT 50BARRA DA TIJ22776070RIO DE JANEIRO RJUNIAO UMB DOS CULTOS AFRO BRAS    31011910 000209
10231987175000168817800093673    000035196                    000351960000000000000109                     I0235196     31011900000000040003410000017N261218104700000000000103101190000000000000000000000000000000000000000100015295681700MICHEL FERNANDES BASTOS CRESPO          RUA ROSANGELA TOSTES N 0, LOTE 8 QD 21  PARQUE FLUMI26185260BELFORD ROXO   RJUNIAO UMB DOS CULTOS AFRO BRAS    31011910 000210
10231987175000168817800093673    000035193                    000351930000000000000109                     I0235193     31011900000000040003410000017N261218104700000000000103101190000000000000000000000000000000000000000100080974015768SHEYLA REGINA SERAPHIM DA HORA          RUA CAMBAIN 49,                         QUINTINO BOC21380300RIO DE JANEIRO RJUNIAO UMB DOS CULTOS AFRO BRAS    31011910 000211
10231987175000168817800093673    000035191                    000351910000000000000109                     I0235191     31011900000000040003410000017N261218104700000000000103101190000000000000000000000000000000000000000100090036018791SILVIA ELAINE GEVEGIR DA SILVA          RUA VINTEN 0, QUADRA 305 LOTE 34        PARADA MORAB25265130DUQUE DE CAXIASRJUNIAO UMB DOS CULTOS AFRO BRAS    31011910 000212
10231987175000168817800093673    000035190                    000351900000000000000109                     I0235190     31011900000000040003410000017N261218104700000000000103101190000000000000000000000000000000000000000100014653084742THEILOR MORAIS DE MIRANDA               RUA SAO BENEDITON 25,                   VILA GENI   23826010ITAGUAI        RJUNIAO UMB DOS CULTOS AFRO BRAS    31011910 000213
10231987175000168817800093673    000035189                    000351890000000000000109                     I0235189     31011900000000040003410000017N261218104700000000000103101190000000000000000000000000000000000000000100040433307749IARA BARBOSA MACHADO                    RUA SAO FIDELIS N 0, LOTE 16 QUADRA 25  PRADOS VERDE26299165NOVA IGUACU    RJUNIAO UMB DOS CULTOS AFRO BRAS    31011910 000214
10231987175000168817800093673    000035188                    000351880000000000000109                     I0235188     31011900000000040003410000017N261218104700000000000103101190000000000000000000000000000000000000000100002045675726ROBSON DOS SANTOS ABREU                 RUA PERCILIANA EMILIA DO NASCIMENTO N 24SILVESTRE   23092540CAMPO GRANDE   RJUNIAO UMB DOS CULTOS AFRO BRAS    31011910 000215
10231987175000168817800093673    000035187                    000351870000000000000109                     I0235187     31011900000000040003410000017N261218104700000000000103101190000000000000000000000000000000000000000100005793791752WANDERSON DAMASCENO CATARINO            TRAVESSA ALBERTO PITTA N 427,           BARRO VERMEL24416060SAO GONCALO    RJUNIAO UMB DOS CULTOS AFRO BRAS    31011910 000216
10231987175000168817800093673    000035183                    000351830000000000000109                     I0235183     31011900000000040003410000017N261218104700000000000103101190000000000000000000000000000000000000000100003606459769ROSILANE FRANCISCA DOS SANTOS           RUA ARTUR FARIASN 252,                  RIO DO OURO 25922184MAGE           RJUNIAO UMB DOS CULTOS AFRO BRAS    31011910 000217
10231987175000168817800093673    000035182                    000351820000000000000109                     I0235182     31011900000000040003410000017N261218104700000000000103101190000000000000000000000000000000000000000100060774282720ROSANGELA MOURA VALENTE                 RUA: CINQUENTA E QUATRON 0, LOTE 38 QUADJARDIM ATLAN24934220MARICA         RJUNIAO UMB DOS CULTOS AFRO BRAS    31011910 000218
10231987175000168817800093673    000035181                    000351810000000000000109                     I0235181     31011900000000040003410000017N261218104700000000000103101190000000000000000000000000000000000000000100001084586797ANA GLORIA NONATO CASTILHO              RUA GENERAL BELEGARDEN 104, CASA 34 APT ENGENHO NOVO20710003RIO DE JANEIRO RJUNIAO UMB DOS CULTOS AFRO BRAS    31011910 000219
10231987175000168817800093673    000035180                    000351800000000000000109                     I0235180     31011900000000040003410000017N261218104700000000000103101190000000000000000000000000000000000000000100002644948738PAULO CESAR MARINS DA SILVA             RUA: EDUARDO NORONHA N 35,              ROCHA       24420615SAO GONCALO    RJUNIAO UMB DOS CULTOS AFRO BRAS    31011910 000220
10231987175000168817800093673    000035179                    000351790000000000000109                     I0235179     31011900000000040003410000017N261218104700000000000103101190000000000000000000000000000000000000000100000907912745JULIO CESAR FRANCA CORREA               RUA ITAPERUNA N 55,                     VILA DE CAVA26056260NOVA IGUACU    RJUNIAO UMB DOS CULTOS AFRO BRAS    31011910 000221
10231987175000168817800093673    000035177                    000351770000000000000109                     I0235177     31011900000000040003410000017N261218104700000000000103101190000000000000000000000000000000000000000100067321364704MARGARETH SOARES PECHIR                 RUA PRACINHA CESARIO AGUIAR N 256,      PITANGUEIRAS21930230RIO DE JANEIRO RJUNIAO UMB DOS CULTOS AFRO BRAS    31011910 000222
10231987175000168817800093673    000035175                    000351750000000000000109                     I0235175     31011900000000040003410000017N261218104700000000000103101190000000000000000000000000000000000000000100001346507783ANDREIA FERREIRA E CUNHA                AVENIDA TIRADENTES N 465, CASA 4        CONFIDENCIA 26323260NOVA IGUACU    RJUNIAO UMB DOS CULTOS AFRO BRAS    31011910 000223
10231987175000168817800093673    000035170                    000351700000000000000109                     I0235170     31011900000000040003410000017N261218104700000000000103101190000000000000000000000000000000000000000100012097291724CAROLINA BEZERRA DE CASTRO CAV          AVENIDA DOM HELDER CAMARAN 9111, BLOCO 1QUINTINO BOC21380008RIO DE JANEIRO RJUNIAO UMB DOS CULTOS AFRO BRAS    31011910 000224
10231987175000168817800093673    000035168                    000351680000000000000109                     I0235168     31011900000000040003410000017N261218104700000000000103101190000000000000000000000000000000000000000100093130864768SOLANGE GERMANO DA COSTA                RUA URUCUIAN 689, CASA 1                VILA VALQUEI21321310RIO DE JANEIRO RJUNIAO UMB DOS CULTOS AFRO BRAS    31011910 000225
10231987175000168817800093673    000035167                    000351670000000000000109                     I0235167     31011900000000040003410000017N261218104700000000000103101190000000000000000000000000000000000000000100030400942895CLAUDIA REIS SANTOS ARAUJO              RUA LUIS PASQUALLE NETON 218,           SAO JOAO CLI04241030SAO PAULO      SPUNIAO UMB DOS CULTOS AFRO BRAS    31011910 000226
10231987175000168817800093673    000035162                    000351620000000000000109                     I0235162     31011900000000040003410000017N261218104700000000000103101190000000000000000000000000000000000000000100005785015706JOSE TOMASIO                            RUA: DA FIGUEIRAN 102,                  TRES POCOS  27240590VOLTA REDONDA  RJUNIAO UMB DOS CULTOS AFRO BRAS    31011910 000227
10231987175000168817800093673    000035155                    000351550000000000000109                     I0235155     31011900000000040003410000017N261218104700000000000103101190000000000000000000000000000000000000000100009948535723ANA CAROLINA VICENTE TELLES GO          RUA PACHECO JUNIOR N 151,               BRAZ DE PINA21211170RIO DE JANEIRO RJUNIAO UMB DOS CULTOS AFRO BRAS    31011910 000228
10231987175000168817800093673    000035153                    000351530000000000000109                     I0235153     31011900000000040003410000017N261218104700000000000103101190000000000000000000000000000000000000000100093743920700RITA DE CASSIA COSTA SENNA              RUA COMANDANTE ARY PARREIRAS N 181,     CENTRO      25515080SAO JOAO DE MERRJUNIAO UMB DOS CULTOS AFRO BRAS    31011910 000229
10231987175000168817800093673    000035151                    000351510000000000000109                     I0235151     31011900000000040003410000017N261218104700000000000103101190000000000000000000000000000000000000000100085339695700DAYSE DE ALMEIDA SOARES                 RUA: COMANDANTE RUBENS SILVA N 700, BLOCJACAREPAGUA 22750054RIO DE JANEIRO RJUNIAO UMB DOS CULTOS AFRO BRAS    31011910 000230
10231987175000168817800093673    000035150                    000351500000000000000109                     I0235150     31011900000000040003410000017N261218104700000000000103101190000000000000000000000000000000000000000100084407883715MAURO FERREIRA MATHEUS                  ESTRADA DO ENGENHO, N 1981, RUA CASTOR DPRACA PIQUER21370200RIO DE JANEIRO RJUNIAO UMB DOS CULTOS AFRO BRAS    31011910 000231
10231987175000168817800093673    000035149                    000351490000000000000109                     I0235149     31011900000000040003410000017N261218104700000000000103101190000000000000000000000000000000000000000100000446671754JUSSARA MATHIAS TEIXEIRA                RUA VEREADOR OSVALDO MARCONDES N 106,   JOSE BONIFAC25515380SAO JOAO DE MERRJUNIAO UMB DOS CULTOS AFRO BRAS    31011910 000232
10231987175000168817800093673    000035148                    000351480000000000000109                     I0235148     31011900000000040003410000017N261218104700000000000103101190000000000000000000000000000000000000000100072386290700FERNANDO LOPES NARCISO                  RUA IPINAMBESN 196,                     TAQUARA     22730210RIO DE JANEIRO RJUNIAO UMB DOS CULTOS AFRO BRAS    31011910 000233
10231987175000168817800093673    000035146                    000351460000000000000109                     I0235146     31011900000000040003410000017N261218104700000000000103101190000000000000000000000000000000000000000100013553344890LUCIANO MAURICIO ESTEVES OSTER          ESTRADA ANTONIO DOS REIS CARNEIRON 154, SAO JOSE    26193320BELFORD ROXO   RJUNIAO UMB DOS CULTOS AFRO BRAS    31011910 000234
10231987175000168817800093673    000035145                    000351450000000000000109                     I0235145     31011900000000040003410000017N261218104700000000000103101190000000000000000000000000000000000000000100037497030787LINDINALVA AGUIAR PAVANELLI             RUA CRUZ LIMA  N 41, APT 801            FLAMENGO    22230010RIO DE JANEIRO RJUNIAO UMB DOS CULTOS AFRO BRAS    31011910 000235
10231987175000168817800093673    000035144                    000351440000000000000109                     I0235144     31011900000000040003410000017N261218104700000000000103101190000000000000000000000000000000000000000100060709910797FATIMA REGINA CARVALHO                  RUA GENERAL EMIRN 0,  QUADRA 39 LOTE 1 CITAIPUCU    24935540MARICA         RJUNIAO UMB DOS CULTOS AFRO BRAS    31011910 000236
10231987175000168817800093673    000035142                    000351420000000000000109                     I0235142     31011900000000040003410000017N261218104700000000000103101190000000000000000000000000000000000000000100005626387765VANIA SANTIAGO                          RUA MANOEL VIEIRAN 576,                 CENTRO      25020210DUQUE DE CAXIASRJUNIAO UMB DOS CULTOS AFRO BRAS    31011910 000237
10231987175000168817800093673    000035139                    000351390000000000000109                     I0235139     31011900000000040003410000017N261218104700000000000103101190000000000000000000000000000000000000000100001902241770JOSE RICARDO CORREA FERREIRA            RUA BIRIGUIN 4459,                      BOA VISTA   24466190SAO GONCALO    RJUNIAO UMB DOS CULTOS AFRO BRAS    31011910 000238
10231987175000168817800093673    000035134                    000351340000000000000109                     I0235134     31011900000000040003410000017N261218104700000000000103101190000000000000000000000000000000000000000100057231737749ELIZABETE CARVALHO COSTA                RUA EXPEDICIONARIO SIMAO FERNANDESN 31, COLUMBANDE  24451700SAO GONCALO    RJUNIAO UMB DOS CULTOS AFRO BRAS    31011910 000239
10231987175000168817800093673    000035133                    000351330000000000000109                     I0235133     31011900000000040003410000017N261218104700000000000103101190000000000000000000000000000000000000000100077351436649RONALDO MARTINS DOS SANTOS              RUA DOMINGOS MARCOS DA SILVA N 196,     SENHOR DOS M36300356SAO JOAO DEL REMGUNIAO UMB DOS CULTOS AFRO BRAS    31011910 000240
10231987175000168817800093673    000035131                    000351310000000000000109                     I0235131     31011900000000040003410000017N261218104700000000000103101190000000000000000000000000000000000000000100010610164716TATIANA DA SILVA SANTOS                 RUA IRACEMAN 176,                       VILA DE CAVA25065655NOVA IGUACU    RJUNIAO UMB DOS CULTOS AFRO BRAS    31011910 000241
10231987175000168817800093673    000035130                    000351300000000000000109                     I0235130     31011900000000040003410000017N261218104700000000000103101190000000000000000000000000000000000000000100015458844718ANDRE LUIZ TRINDADE FORTES JUN          RUA HERTAN 25,                          IMPERADOR   25900001MAGE           RJUNIAO UMB DOS CULTOS AFRO BRAS    31011910 000242
10231987175000168817800093673    000035129                    000351290000000000000109                     I0235129     31011900000000040003410000017N261218104700000000000103101190000000000000000000000000000000000000000100003139923716ANDRE MARQUES POLICARPO                 RUA PIRACANJUBA N 0, LOTE 11 QUADRA 209 JARDIM CATAR24716051SAO GONCALO    RJUNIAO UMB DOS CULTOS AFRO BRAS    31011910 000243
10231987175000168817800093673    000035128                    000351280000000000000109                     I0235128     31011900000000040003410000017N261218104700000000000103101190000000000000000000000000000000000000000100002139519752CARLA MARIA DE BRITO DOS SANTO          RUA ECHEVERRIAN 309, BLOCO 08 APT 501   JARDIM ROTSE25267142DUQUE DE CAXIASRJUNIAO UMB DOS CULTOS AFRO BRAS    31011910 000244
10231987175000168817800093673    000035127                    000351270000000000000109                     I0235127     31011900000000040003410000017N261218104700000000000103101190000000000000000000000000000000000000000100000200790790LUIS JORGE MOCO                         RUA ECA DE QUEIROSN 0, LOTE 74 QUADRA 7 PANTANAL    25040350DUQUE DE CAXIASRJUNIAO UMB DOS CULTOS AFRO BRAS    31011910 000245
10231987175000168817800093673    000035126                    000351260000000000000109                     I0235126     31011900000000040003410000017N261218104700000000000103101190000000000000000000000000000000000000000100005953253605MILTON COELHO DO NASCIMENTO JU          RUA BEZERRA DE MENEZES N 73, APT 102    VAZ LOBO    21361000RIO DE JANEIRO RJUNIAO UMB DOS CULTOS AFRO BRAS    31011910 000246
10231987175000168817800093673    000035124                    000351240000000000000109                     I0235124     31011900000000040003410000017N261218104700000000000103101190000000000000000000000000000000000000000100002730493727ALBERTO ALEXANDRE DOS SANTOS M          RUA ECA DE QUEIROZN 0, QUADRA 60 LOTE 2 PANTANAL    25040350DUQUE DE CAXIASRJUNIAO UMB DOS CULTOS AFRO BRAS    31011910 000247
10231987175000168817800093673    000035120                    000351200000000000000109                     I0235120     31011900000000040003410000017N261218104700000000000103101190000000000000000000000000000000000000000100027313590725JOAO BATISTA FERREIRA                   RUA TEIXEIRA PINTON 116,                ENGENHEIRO B25520210SAO JOAO DE MERRJUNIAO UMB DOS CULTOS AFRO BRAS    31011910 000248
10231987175000168817800093673    000035119                    000351190000000000000109                     I0235119     31011900000000040003410000017N261218104700000000000103101190000000000000000000000000000000000000000100016212777713TAYNARA LUZIA SILVA SOUZA               RODOVIA LUCIO MEIRAN 45772, KM 249 BR-39MINUANO     27115190BARRA DO PIRAI RJUNIAO UMB DOS CULTOS AFRO BRAS    31011910 000249
