01REMESSA01COBRANCA       817800093673        União Umb dos Cultos Afro Bra341BANCO ITAU SA  121118                                                                                                                                                                                                                                                                                                      000001
10231987175000168817800093673    000033406                    000334060000000000000109                     I0133406     15111800000000035003410000017N121118104700000000000101511180000000000000000000000000000000000000000100057231737749ELIZABETE CARVALHO COSTA                RUA EXPEDICIONARIO SIMAO FERNANDES      COLUMBANDE  24451700SAO GONCALO    RJUNIAO UMB DOS CULTOS AFRO BRAS    15111810 000002
10231987175000168817800093673    000033405                    000334050000000000000109                     I0133405     15111800000000070003410000017N121118104700000000000101511180000000000000000000000000000000000000000100057231737749ELIZABETE CARVALHO COSTA                RUA EXPEDICIONARIO SIMAO FERNANDES      COLUMBANDE  24451700SAO GONCALO    RJUNIAO UMB DOS CULTOS AFRO BRAS    15111810 000003
10231987175000168817800093673    000033404                    000334040000000000000109                     I0133404     10121800000000500003410000017N121118104700000000000101012180000000000000000000000000000000000000000100000853849250MANOEL NAZARENO SOUZA AMORIM            RUA ANTONIO GERMANO                     AGROVILA SAN68747000CASTANHAL      PAUNIAO UMB DOS CULTOS AFRO BRAS    10121810 000004
10231987175000168817800093673    000033403                    000334030000000000000109                     I0133403     20121800000000350003410000017N121118104700000000000102012180000000000000000000000000000000000000000100091917654715JORGE RICARDO MORENO CRISPIM            AVENIDA: DOS FLAMBOYANTS                BARRA DA TIJ22776070RIO DE JANEIRO RJUNIAO UMB DOS CULTOS AFRO BRAS    20121810 000005
10231987175000168817800093673    000033402                    000334020000000000000109                     I0133402     20121800000000350003410000017N091118104700000000000102012180000000000000000000000000000000000000000100083883363715ISABEL HELENA CEZARIO MEDEIROS          RUA DUQUE DE CAXIAS                     VILA ISABEL 20551050RIO DE JANEIRO RJUNIAO UMB DOS CULTOS AFRO BRAS    20121810 000006
10231987175000168817800093673    000033401                    000334010000000000000109                     I0133401     20121800000000035003410000017N091118104700000000000102012180000000000000000000000000000000000000000100083883363715ISABEL HELENA CEZARIO MEDEIROS          RUA DUQUE DE CAXIAS                     VILA ISABEL 20551050RIO DE JANEIRO RJUNIAO UMB DOS CULTOS AFRO BRAS    20121810 000007
10231987175000168817800093673    000033400                    000334000000000000000109                     I0133400     20121800000000350003410000017N091118104700000000000102012180000000000000000000000000000000000000000100011124747737JOSE DO NASCIMENTO                      RUA DO SOSSEGO                          JARDIM AMERI21240815DUQUE DE CAXIASRJUNIAO UMB DOS CULTOS AFRO BRAS    20121810 000008
10231987175000168817800093673    000033399                    000333990000000000000109                     I0133399     20121800000000040003410000017N091118104700000000000102012180000000000000000000000000000000000000000100011124747737JOSE DO NASCIMENTO                      RUA DO SOSSEGO                          JARDIM AMERI21240815DUQUE DE CAXIASRJUNIAO UMB DOS CULTOS AFRO BRAS    20121810 000009
10231987175000168817800093673    000033398                    000333980000000000000109                     I0233398     20121800000000350003410000017N091118104700000000000102012180000000000000000000000000000000000000000100083883363715ISABEL HELENA CEZARIO MEDEIROS          RUA DUQUE DE CAXIAS                     VILA ISABEL 20551050RIO DE JANEIRO RJUNIAO UMB DOS CULTOS AFRO BRAS    20121810 000010
10231987175000168817800093673    000033397                    000333970000000000000109                     I0233397     30111800000000035003410000017N091118104700000000000103011180000000000000000000000000000000000000000100083883363715ISABEL HELENA CEZARIO MEDEIROS          RUA DUQUE DE CAXIAS                     VILA ISABEL 20551050RIO DE JANEIRO RJUNIAO UMB DOS CULTOS AFRO BRAS    30111810 000011
10231987175000168817800093673    000033396                    000333960000000000000109                     I0133396     20121800000000350003410000017N091118104700000000000102012180000000000000000000000000000000000000000100005359920769MARCIO ROGERIO DE SOUZA MONTE           RUA: MARIA FERREIRA PINTO               TINGUI - CAM23075000RIO DE JANEIRO RJUNIAO UMB DOS CULTOS AFRO BRAS    20121810 000012
10231987175000168817800093673    000033395                    000333950000000000000109                     I0133395     20121800000000040003410000017N091118104700000000000102012180000000000000000000000000000000000000000100005359920769MARCIO ROGERIO DE SOUZA MONTE           RUA: MARIA FERREIRA PINTO               TINGUI - CAM23075000RIO DE JANEIRO RJUNIAO UMB DOS CULTOS AFRO BRAS    20121810 000013
10231987175000168817800093673    000033394                    000333940000000000000109                     I0133394     30111800000000040003410000017N091118104700000000000103011180000000000000000000000000000000000000000100005359920769MARCIO ROGERIO DE SOUZA MONTE           RUA: MARIA FERREIRA PINTO               TINGUI - CAM23075000RIO DE JANEIRO RJUNIAO UMB DOS CULTOS AFRO BRAS    30111810 000014
10231987175000168817800093673    000033393                    000333930000000000000109                     I0133393     30111800000000700003410000017N091118104700000000000103011180000000000000000000000000000000000000000100000000011276NOEMIA FALCAO MANOEL                    O MESMO                                 O MESMO     27175000BARRA DO PIRAI RJUNIAO UMB DOS CULTOS AFRO BRAS    30111810 000015
10231987175000168817800093673    000033392                    000333920000000000000109                     I0133392     20121800000000350003410000017N091118104700000000000102012180000000000000000000000000000000000000000100009282036707REGILDA CANDIDO DE OLIVEIRA             RUA PROJETADA P                         VILA URUSSAI25212147DUQUE DE CAXIASRJUNIAO UMB DOS CULTOS AFRO BRAS    20121810 000016
10231987175000168817800093673    000033391                    000333910000000000000109                     I3433391     20121800000000040003410000017N091118104700000000000102012180000000000000000000000000000000000000000100009282036707REGILDA CANDIDO DE OLIVEIRA             RUA PROJETADA P                         VILA URUSSAI25212147DUQUE DE CAXIASRJUNIAO UMB DOS CULTOS AFRO BRAS    20121810 000017
10231987175000168817800093673    000033389                    000333890000000000000109                     I0133389     10121800000000350003410000017N091118104700000000000101012180000000000000000000000000000000000000000100003005342727MAURICIO ESTORQUE                       RUA SERDIVAO JOSE NICOLAY               JARDIM FEO  25965430TERESOPOLIS    RJUNIAO UMB DOS CULTOS AFRO BRAS    10121810 000018
10231987175000168817800093673    000033388                    000333880000000000000109                     I0133388     20121800000000350003410000017N081118104700000000000102012180000000000000000000000000000000000000000100007324540775JAQUELINE DE LIMA ALMEIDA DE J          RUA JOAQUIM ARRUDA                      JARDIM SAO P25935800MAGE           RJUNIAO UMB DOS CULTOS AFRO BRAS    20121810 000019
10231987175000168817800093673    000033387                    000333870000000000000109                     I0133387     20121800000000035003410000017N081118104700000000000102012180000000000000000000000000000000000000000100007324540775JAQUELINE DE LIMA ALMEIDA DE J          RUA JOAQUIM ARRUDA                      JARDIM SAO P25935800MAGE           RJUNIAO UMB DOS CULTOS AFRO BRAS    20121810 000020
10231987175000168817800093673    000033341                    000333410000000000000109                     I3433341     10111800000000533393410000017N311018104700000000000101011180000000000000000000000000000000000000000100093728467791ALEX DE SOUZA MARTINS                   RUA: JOAO DANIEL                        BENTO RIBEIR21550480RIO DE JANEIRO RJUNIAO UMB DOS CULTOS AFRO BRAS    10111810 000021
10231987175000168817800093673    000033334                    000333340000000000000109                     I0233334     10111800000000070003410000017N301018104700000000000101011180000000000000000000000000000000000000000100057231737749ELIZABETE CARVALHO COSTA                RUA EXPEDICIONARIO SIMAO FERNANDES      COLUMBANDE  24451700SAO GONCALO    RJUNIAO UMB DOS CULTOS AFRO BRAS    10111810 000022
10231987175000168817800093673    000032792                    000327920000000000000109                     I0232792     20121800000000400003410000017N291018104700000000000102012180000000000000000000000000000000000000000100005754715730RAPHAEL FEITAIS PASSERI                 RUA ITAUNA                              SAO JOSE DE 00000000MARICA         RJUNIAO UMB DOS CULTOS AFRO BRAS    20121810 000023
10231987175000168817800093673    000032469                    000324690000000000000109                     I3432469     20121800000000350003410000017N291018104700000000000102012180000000000000000000000000000000000000000100000188086706NEIDE DRUMOND DE ARAUJO                 ESTRADA DO MENDANHA                     CAMPO GRANDE21351380RIO DE JANEIRO RJUNIAO UMB DOS CULTOS AFRO BRAS    20121810 000024
10231987175000168817800093673    000032290                    000322900000000000000109                     I3432290     20121800000000350003410000017N291018104700000000000102012180000000000000000000000000000000000000000100062968033700ROBSON DOS SANTOS FRANCA                RUA MOZART BACELAR                      BANGU       21815250RIO DE JANEIRO RJUNIAO UMB DOS CULTOS AFRO BRAS    20121810 000025
10231987175000168817800093673    000032021                    000320210000000000000109                     I3432021     20121800000000350003410000017N291018104700000000000102012180000000000000000000000000000000000000000100009414806741ATILA DE FREITAS JUNIOR                 RUA ALADIR DE MELO                      ENGENHO PEQU26011360NOVA IGUACU    RJUNIAO UMB DOS CULTOS AFRO BRAS    20121810 000026
10231987175000168817800093673    000031757                    000317570000000000000109                     I3431757     20121800000000350003410000017N291018104700000000000102012180000000000000000000000000000000000000000100036536970772LECI CHAVES DE MENEZES MICHELL          RUA TOMAZ FONSECA                       COMENDADOR S26280375RIO DE JANEIRO RJUNIAO UMB DOS CULTOS AFRO BRAS    20121810 000027
10231987175000168817800093673    000031707                    000317070000000000000109                     I0231707     20121800000000350003410000017N291018104700000000000102012180000000000000000000000000000000000000000100001677514760MARIA JOSE DE SENA VERGACAS             RUA PROFESSOR NICANOR LEMGRUBER         BARATA - REA21765600RIO DE JANEIRO RJUNIAO UMB DOS CULTOS AFRO BRAS    20121810 000028
10231987175000168817800093673    000031499                    000314990000000000000109                     I3431499     20121800000000350003410000017N291018104700000000000102012180000000000000000000000000000000000000000100099167182704ANTONIO CARLOS AZEVEDO BASTOS           RUA VITORIA                             PRESIDENTE J26553360MESQUITA       RJUNIAO UMB DOS CULTOS AFRO BRAS    20121810 000029
10231987175000168817800093673    000031422                    000314220000000000000109                     I3431422     20121800000000350003410000017N291018104700000000000102012180000000000000000000000000000000000000000100092821987749MARCELO DA SILVA PAIVA                  RUA AIDA                                MIGUEL COUTO26061320RIO DE JANEIRO RJUNIAO UMB DOS CULTOS AFRO BRAS    20121810 000030
10231987175000168817800093673    000031292                    000312920000000000000109                     I3431292     20121800000000350003410000017N291018104700000000000102012180000000000000000000000000000000000000000100000000000476EDINALVA MUNIZ VALENTIM                 AVENIDA RIO DE JANEIRO                  INCRA       23850220SEROPEDICA     RJUNIAO UMB DOS CULTOS AFRO BRAS    20121810 000031
10231987175000168817800093673    000031214                    000312140000000000000109                     I3431214     20121800000000400003410000017N291018104700000000000102012180000000000000000000000000000000000000000100075425114753MONICA FRANGELLI TORRES DOERR           RUA MARIO BARBEDO                       VILA VALQUEI24536728RIO DE JANEIRO RJUNIAO UMB DOS CULTOS AFRO BRAS    20121810 000032
10231987175000168817800093673    000031201                    000312010000000000000109                     I3431201     20121800000000350003410000017N291018104700000000000102012180000000000000000000000000000000000000000100030402808720NILZA AGUILERA NUNES DA CUNHA           RUA: DIVINO SALVADOR                    PIEDADE     20756210RIO DE JANEIRO RJUNIAO UMB DOS CULTOS AFRO BRAS    20121810 000033
10231987175000168817800093673    000030883                    000308830000000000000109                     I3430883     20121800000000350003410000017N291018104700000000000102012180000000000000000000000000000000000000000100061201316715ELZA CORREA BORGES                      RUA VICENTE PONTE                       JARDIM CARIO21921740RIO DE JANEIRO RJUNIAO UMB DOS CULTOS AFRO BRAS    20121810 000034
10231987175000168817800093673    000030502                    000305020000000000000109                     I0230502     20121800000000400003410000017N291018104700000000000102012180000000000000000000000000000000000000000100076389910797CARMEN LUCIA ROSA DA LUZ                RUA GASTAO LEITE CABRAL                 COLONIA Z 1021930530ILHA DO GOVERNARJUNIAO UMB DOS CULTOS AFRO BRAS    20121810 000035
10231987175000168817800093673    000030059                    000300590000000000000109                     I0230059     20121800000000040003410000017N291018104700000000000102012180000000000000000000000000000000000000000100005754715730RAPHAEL FEITAIS PASSERI                 RUA ITAUNA                              SAO JOSE DE 00000000MARICA         RJUNIAO UMB DOS CULTOS AFRO BRAS    20121810 000036
10231987175000168817800093673    000029955                    000299550000000000000109                     I0229955     20121800000000035003410000017N291018104700000000000102012180000000000000000000000000000000000000000100013565688742CAIO CESAR DUARTE DE SOUZA              RUA CALUMBI                             IRAJA       21361260RIO DE JANEIRO RJUNIAO UMB DOS CULTOS AFRO BRAS    20121810 000037
10231987175000168817800093673    000029766                    000297660000000000000109                     I0229766     20121800000000035003410000017N291018104700000000000102012180000000000000000000000000000000000000000100003538138770ELIZABETH DE SANTANA                    ESTRADA DA PACIENCIA                    PACIENCIA   23580250RIO DE JANEIRO RJUNIAO UMB DOS CULTOS AFRO BRAS    20121810 000038
10231987175000168817800093673    000029687                    000296870000000000000109                     I3429687     20121800000000035003410000017N291018104700000000000102012180000000000000000000000000000000000000000100002673106766JANAINA MARQUES ALVES SANTOS T          RUA C                                   BASILIO     28800000RIO DE JANEIRO RJUNIAO UMB DOS CULTOS AFRO BRAS    20121810 000039
10231987175000168817800093673    000029352                    000293520000000000000109                     I3429352     20121800000000035003410000017N291018104700000000000102012180000000000000000000000000000000000000000100000000000476EDINALVA MUNIZ VALENTIM                 AVENIDA RIO DE JANEIRO                  INCRA       23850220SEROPEDICA     RJUNIAO UMB DOS CULTOS AFRO BRAS    20121810 000040
10231987175000168817800093673    000028941                    000289410000000000000109                     I3428941     20111800000000450003410000017N141018104700000000000102011180000000000000000000000000000000000000000100008834807782MARCELO LINO ISHIMINE                   RUA BARROSO PEREIRA                     IRAJA       20720012RIO DE JANEIRO RJUNIAO UMB DOS CULTOS AFRO BRAS    20111810 000041
10231987175000168817800093673    000028235                    000282350000000000000109                     I3428235     30111800000000035003410000017N200818104700000000000103011180000000000000000000000000000000000000000100003025076712MARIA QUITERIA DOS SANTOS PITA          RUA MISSIONARIO CHRISTIE                QUISSAMA    25615250PETROPOLIS     RJUNIAO UMB DOS CULTOS AFRO BRAS    30111810 000042
10231987175000168817800093673    000028161                    000281610000000000000109                     I0228161     30111800000000040003410000017N200818104700000000000103011180000000000000000000000000000000000000000100005754715730RAPHAEL FEITAIS PASSERI                 RUA ITAUNA                              SAO JOSE DE 00000000MARICA         RJUNIAO UMB DOS CULTOS AFRO BRAS    30111810 000043
10231987175000168817800093673    000028048                    000280480000000000000109                     I0228048     30111800000000035003410000017N200818104700000000000103011180000000000000000000000000000000000000000100013565688742CAIO CESAR DUARTE DE SOUZA              RUA CALUMBI                             IRAJA       21361260RIO DE JANEIRO RJUNIAO UMB DOS CULTOS AFRO BRAS    30111810 000044
10231987175000168817800093673    000027849                    000278490000000000000109                     I0227849     30111800000000035003410000017N200818104700000000000103011180000000000000000000000000000000000000000100003538138770ELIZABETH DE SANTANA                    ESTRADA DA PACIENCIA                    PACIENCIA   23580250RIO DE JANEIRO RJUNIAO UMB DOS CULTOS AFRO BRAS    30111810 000045
10231987175000168817800093673    000027763                    000277630000000000000109                     I3427763     30111800000000035003410000017N200818104700000000000103011180000000000000000000000000000000000000000100002673106766JANAINA MARQUES ALVES SANTOS T          RUA C                                   BASILIO     28800000RIO DE JANEIRO RJUNIAO UMB DOS CULTOS AFRO BRAS    30111810 000046
10231987175000168817800093673    000027702                    000277020000000000000109                     I3427702     30111800000000025003410000017N200818104700000000000103011180000000000000000000000000000000000000000100015744914587ARISTOCLEMILDA PEREIRA DOS SAN          RUA M                                   VILA EMA    25271540DUQUE DE CAXIASRJUNIAO UMB DOS CULTOS AFRO BRAS    30111810 000047
10231987175000168817800093673    000027424                    000274240000000000000109                     I3427424     30111800000000035003410000017N200818104700000000000103011180000000000000000000000000000000000000000100000000000476EDINALVA MUNIZ VALENTIM                 AVENIDA RIO DE JANEIRO                  INCRA       23850220SEROPEDICA     RJUNIAO UMB DOS CULTOS AFRO BRAS    30111810 000048
10231987175000168817800093673    000027359                    000273590000000000000109                     I3427359     30111800000000035003410000017N200818104700000000000103011180000000000000000000000000000000000000000100008763637707JUSSARA SILVA DE ALBUQUERQUE            RUA: ARGOS                              GUADALUPE   21660050RIO DE JANEIRO RJUNIAO UMB DOS CULTOS AFRO BRAS    30111810 000049
10231987175000168817800093673    000026628                    000266280000000000000109                     I0226628     30091800000000035003410000017N200818104700000000000103009180000000000000000000000000000000000000000100013565688742CAIO CESAR DUARTE DE SOUZA              RUA CALUMBI                             IRAJA       21361260RIO DE JANEIRO RJUNIAO UMB DOS CULTOS AFRO BRAS    30091810 000050
10231987175000168817800093673    000026430                    000264300000000000000109                     I0226430     30091800000000035003410000017N200818104700000000000103009180000000000000000000000000000000000000000100003538138770ELIZABETH DE SANTANA                    ESTRADA DA PACIENCIA                    PACIENCIA   23580250RIO DE JANEIRO RJUNIAO UMB DOS CULTOS AFRO BRAS    30091810 000051
10231987175000168817800093673    000026008                    000260080000000000000109                     I3426008     30091800000000035003410000017N200818104700000000000103009180000000000000000000000000000000000000000100000000000476EDINALVA MUNIZ VALENTIM                 AVENIDA RIO DE JANEIRO                  INCRA       23850220SEROPEDICA     RJUNIAO UMB DOS CULTOS AFRO BRAS    30091810 000052
10231987175000168817800093673    000025800                    000258000000000000000109                     I0225800     30091800000000035003410000017N200818104700000000000103009180000000000000000000000000000000000000000100007062360767IVONETE GOMES DOS SANTOS                AVENIDA PORTO DA MADAME                 GRADIM      24431310SAO GONCALO    RJUNIAO UMB DOS CULTOS AFRO BRAS    30091810 000053
10231987175000168817800093673    000025308                    000253080000000000000109                     I0225308     10111800000000035003410000017N200818104700000000000101011180000000000000000000000000000000000000000100057231737749ELIZABETE CARVALHO COSTA                RUA EXPEDICIONARIO SIMAO FERNANDES      COLUMBANDE  24451700SAO GONCALO    RJUNIAO UMB DOS CULTOS AFRO BRAS    10111810 000054
10231987175000168817800093673    000025211                    000252110000000000000109                     I0225211     30101800000000035003410000017N200818104700000000000103010180000000000000000000000000000000000000000100013565688742CAIO CESAR DUARTE DE SOUZA              RUA CALUMBI                             IRAJA       21361260RIO DE JANEIRO RJUNIAO UMB DOS CULTOS AFRO BRAS    30101810 000055
10231987175000168817800093673    000025012                    000250120000000000000109                     I0225012     30101800000000035003410000017N200818104700000000000103010180000000000000000000000000000000000000000100003538138770ELIZABETH DE SANTANA                    ESTRADA DA PACIENCIA                    PACIENCIA   23580250RIO DE JANEIRO RJUNIAO UMB DOS CULTOS AFRO BRAS    30101810 000056
10231987175000168817800093673    000024926                    000249260000000000000109                     I3424926     30101800000000035003410000017N200818104700000000000103010180000000000000000000000000000000000000000100002673106766JANAINA MARQUES ALVES SANTOS T          RUA C                                   BASILIO     28800000RIO DE JANEIRO RJUNIAO UMB DOS CULTOS AFRO BRAS    30101810 000057
10231987175000168817800093673    000024865                    000248650000000000000109                     I3424865     30101800000000025003410000017N200818104700000000000103010180000000000000000000000000000000000000000100015744914587ARISTOCLEMILDA PEREIRA DOS SAN          RUA M                                   VILA EMA    25271540DUQUE DE CAXIASRJUNIAO UMB DOS CULTOS AFRO BRAS    30101810 000058
10231987175000168817800093673    000024588                    000245880000000000000109                     I3424588     30101800000000035003410000017N200818104700000000000103010180000000000000000000000000000000000000000100000000000476EDINALVA MUNIZ VALENTIM                 AVENIDA RIO DE JANEIRO                  INCRA       23850220SEROPEDICA     RJUNIAO UMB DOS CULTOS AFRO BRAS    30101810 000059
10231987175000168817800093673    000024381                    000243810000000000000109                     I0224381     30101800000000035003410000017N200818104700000000000103010180000000000000000000000000000000000000000100007062360767IVONETE GOMES DOS SANTOS                AVENIDA PORTO DA MADAME                 GRADIM      24431310SAO GONCALO    RJUNIAO UMB DOS CULTOS AFRO BRAS    30101810 000060
9                                                                                                                                                                                                                                                                                                                                                                                                         000061
