01REMESSA01COBRANCA       916200163100        União Umb dos Cultos Afro Bra341BANCO ITAU SA  080518                                                                                                                                                                                                                                                                                                      000001
10231987175000168916200163100    000019288                    000192880000000000000109                     I0119288     30081800000000035003410000017N070518104700000000000103008180000000000000000000000000000000000000000100033434557768VALTER OLIVEIRA MAYRINCK                RUA SARGENTO OSMAR CLARO, 22            AMAZONAS - C23075180RIO DE JANEIRO RJUNIAO UMB DOS CULTOS AFRO BRAS    30081810 000002
10231987175000168916200163100    000019287                    000192870000000000000109                     I0119287     30081800000000035003410000017N070518104700000000000103008180000000000000000000000000000000000000000100078542626753MARIA HELENA FELIX MARINHO              MESMO                                   O MESMO     21011060RIO DE JANEIRO RJUNIAO UMB DOS CULTOS AFRO BRAS    30081810 000003
10231987175000168916200163100    000019286                    000192860000000000000109                     I0119286     30081800000000035003410000017N070518104700000000000103008180000000000000000000000000000000000000000200000000005440DELIA VIEIRA DA COSTA                   RUA CAPITAO BORGES COUTO N 10 B         SENADOR CAMA21832300RIO DE JANEIRO RJUNIAO UMB DOS CULTOS AFRO BRAS    30081810 000004
10231987175000168916200163100    000019285                    000192850000000000000109                     I0119285     30081800000000035003410000017N070518104700000000000103008180000000000000000000000000000000000000000100031569250715JORGE FRANCISCO SANTOS                  EXPEDICIONARIO SEBASTIAO RIBEIRO, 142   COLUBANDE - 24451710SAO GONCALO    RJUNIAO UMB DOS CULTOS AFRO BRAS    30081810 000005
10231987175000168916200163100    000019284                    000192840000000000000109                     I0119284     30081800000000035003410000017N070518104700000000000103008180000000000000000000000000000000000000000100091919835768JORGETE SALGADO                         RUA PARAIM, 64 APTO 203                 ILHA DO GOVE21911050RIO DE JANEIRO RJUNIAO UMB DOS CULTOS AFRO BRAS    30081810 000006
10231987175000168916200163100    000019283                    000192830000000000000109                     I0219283     30081800000000035003410000017N070518104700000000000103008180000000000000000000000000000000000000000100000000000510DIVINA ANGELICA LOPES                   RUA ITAI, 296                           ANCHIETA - R21645300RIO DE JANEIRO RJUNIAO UMB DOS CULTOS AFRO BRAS    30081810 000007
10231987175000168916200163100    000019282                    000192820000000000000109                     I0119282     30081800000000035003410000017N070518104700000000000103008180000000000000000000000000000000000000000100076998460791IRENE DA SILVA CUPOLILLO                RUA VERA, 135                           CORDOVIL - R21012220RIO DE JANEIRO RJUNIAO UMB DOS CULTOS AFRO BRAS    30081810 000008
10231987175000168916200163100    000019281                    000192810000000000000109                     I0119281     30081800000000040003410000017N070518104700000000000103008180000000000000000000000000000000000000000100005206095737FLORIPES RAMOS DE FARIAS                RUA ONESIO MANOEL BELARMINO, 75         ANCHIETA  - 21625330RIO DE JANEIRO RJUNIAO UMB DOS CULTOS AFRO BRAS    30081810 000009
10231987175000168916200163100    000019280                    000192800000000000000109                     I0119280     30081800000000035003410000017N070518104700000000000103008180000000000000000000000000000000000000000100048685917700CELIO DO NASCIMENTO                     RUA DO CATETE, 123 CASA 4 APTO 101      CATETE - RIO22220000RIO DE JANEIRO RJUNIAO UMB DOS CULTOS AFRO BRAS    30081810 000010
10231987175000168916200163100    000019279                    000192790000000000000109                     I0119279     30081800000000035003410000017N070518104700000000000103008180000000000000000000000000000000000000000100055570720715ATILA CARDOSO DE LIMA                   RUA EUGENIO SOARES, 270                 CENTRO - MES26550007MESQUITA       RJUNIAO UMB DOS CULTOS AFRO BRAS    30081810 000011
10231987175000168916200163100    000019278                    000192780000000000000109                     I0119278     30081800000000035003410000017N070518104700000000000103008180000000000000000000000000000000000000000200000000000472JOANE ZAGALIA DA CUNHA                  RUA JABIRI, 365                         MARECHAL HER21615300MARECHAL HERMESRJUNIAO UMB DOS CULTOS AFRO BRAS    30081810 000012
10231987175000168916200163100    000019277                    000192770000000000000109                     I0119277     30081800000000350003410000017N070518104700000000000103008180000000000000000000000000000000000000000100047059770763MARIA MATHIAS DE OLIVEIRA               RUA CAMBUCI N 38                        MUQUECA - BA27140280BARRA DO PIRAI RJUNIAO UMB DOS CULTOS AFRO BRAS    30081810 000013
10231987175000168916200163100    000019276                    000192760000000000000109                     I0119276     30081800000000035003410000017N070518104700000000000103008180000000000000000000000000000000000000000100053011783772MARIA APARECIDA DA SILVA                RUA JOANA RESENDE, 61 - FAZENDA CAXIAS  SEROPEDICA -23836380RIO DE JANEIRO RJUNIAO UMB DOS CULTOS AFRO BRAS    30081810 000014
10231987175000168916200163100    000019275                    000192750000000000000109                     I0119275     30081800000000035003410000017N070518104700000000000103008180000000000000000000000000000000000000000100050713558768ANILSON DA SILVA                        TRAVESSA HELENA, CASA 19 ENTRADA 217    REALENGO - R21760620RIO DE JANEIRO RJUNIAO UMB DOS CULTOS AFRO BRAS    30081810 000015
10231987175000168916200163100    000019274                    000192740000000000000109                     I0119274     30081800000000035003410000017N070518104700000000000103008180000000000000000000000000000000000000000100066564689772CARLOS DE ARAUJO RIBEIRO                RUA DIVISORIA, 235                      BENTO RIBEIR21331250RIO DE JANEIRO RJUNIAO UMB DOS CULTOS AFRO BRAS    30081810 000016
10231987175000168916200163100    000019273                    000192730000000000000109                     I0119273     30081800000000035003410000017N070518104700000000000103008180000000000000000000000000000000000000000100003388076758ROSALINA MARIA NEVES                    RUA LAURINDO FILHO, 199 CASA 6          CASCADURA - 21370260RIO DE JANEIRO RJUNIAO UMB DOS CULTOS AFRO BRAS    30081810 000017
10231987175000168916200163100    000019272                    000192720000000000000109                     I0119272     30081800000000035003410000017N070518104700000000000103008180000000000000000000000000000000000000000100051328054772BALBINA MARIA DE JESUS DEOLIND          RUA DA FELICIDADE, 26                   BANGU - RIO 21862465RIO DE JANEIRO RJUNIAO UMB DOS CULTOS AFRO BRAS    30081810 000018
10231987175000168916200163100    000019271                    000192710000000000000109                     I0119271     30081800000000035003410000017N070518104700000000000103008180000000000000000000000000000000000000000100010518288722RODRIGO JOSE ABREU DOS SANTOS           RUA MARAVILHA, 298                      BANGU - RJ  21815150RIO DE JANEIRO RJUNIAO UMB DOS CULTOS AFRO BRAS    30081810 000019
10231987175000168916200163100    000019270                    000192700000000000000109                     I0119270     30081800000000035003410000017N070518104700000000000103008180000000000000000000000000000000000000000200000000005639MANOELLA MARIA DA CONCEICAO             RUA PIRES DO RIO, 928                   EDEN - SAO J25540510SAO JOAO DE MERRJUNIAO UMB DOS CULTOS AFRO BRAS    30081810 000020
10231987175000168916200163100    000019269                    000192690000000000000109                     I0119269     30081800000000035003410000017N070518104700000000000103008180000000000000000000000000000000000000000100044279388768THEREZA LEOCADIA DA COSTA               RUA VERA CRUZ, 12 - TRINTA E UM DE OUTUBPACIENCIA - 23585817RIO DE JANEIRO RJUNIAO UMB DOS CULTOS AFRO BRAS    30081810 000021
10231987175000168916200163100    000019268                    000192680000000000000109                     I0119268     30081800000000035003410000017N070518104700000000000103008180000000000000000000000000000000000000000100001077338708ANA MONICA FERREIRA DOS SANTOS          RUA ITAIR JOSE VELOSO, 101 CASA 2 - CONJPACIENCIA - 23587390RIO DE JANEIRO RJUNIAO UMB DOS CULTOS AFRO BRAS    30081810 000022
10231987175000168916200163100    000019267                    000192670000000000000109                     I0119267     30081800000000035003410000017N070518104700000000000103008180000000000000000000000000000000000000000100078759676787VANDA LUCIA LIMA DA SILVA               RUA ALMIRANTE JUSTINO PROENCA, 395      CAMPO GRANDE23090310RIO DE JANEIRO RJUNIAO UMB DOS CULTOS AFRO BRAS    30081810 000023
10231987175000168916200163100    000019266                    000192660000000000000109                     I0119266     30081800000000035003410000017N070518104700000000000103008180000000000000000000000000000000000000000100005412696740MONICA MIRALHA MESSINA                  O MESMO                                 O MESMO     21370350RIO DE JANEIRO RJUNIAO UMB DOS CULTOS AFRO BRAS    30081810 000024
10231987175000168916200163100    000019265                    000192650000000000000109                     I0119265     30081800000000035003410000017N070518104700000000000103008180000000000000000000000000000000000000000200000000006267MANOELINA MARIANA DA SILVA RIB          O MESMO                                 O MESMO     26540120NILOPOLIS      RJUNIAO UMB DOS CULTOS AFRO BRAS    30081810 000025
10231987175000168916200163100    000019264                    000192640000000000000109                     I0119264     30081800000000035003410000017N070518104700000000000103008180000000000000000000000000000000000000000100078991455700MARY LUCIA PEREIRA DA SILVA             RUA MONODORA, 95                        GARDENIA AZU22765590RIO DE JANEIRO RJUNIAO UMB DOS CULTOS AFRO BRAS    30081810 000026
10231987175000168916200163100    000019263                    000192630000000000000109                     I0119263     30081800000000035003410000017N070518104700000000000103008180000000000000000000000000000000000000000200000000005779SANDRA MARIA DOS SANTOS DA SIL          RUA AMILTON FERNANDES, 77 - JARDIM NOVO REALENGO - R21760370RIO DE JANEIRO RJUNIAO UMB DOS CULTOS AFRO BRAS    30081810 000027
10231987175000168916200163100    000019262                    000192620000000000000109                     I0119262     30081800000000035003410000017N070518104700000000000103008180000000000000000000000000000000000000000100074624792234MARILZA COSTA FERREIRA                  RUA INHANDUI, 128                       BENFICA - RJ20930120RIO DE JANEIRO RJUNIAO UMB DOS CULTOS AFRO BRAS    30081810 000028
10231987175000168916200163100    000019261                    000192610000000000000109                     I0119261     30081800000000035003410000017N070518104700000000000103008180000000000000000000000000000000000000000100011039470793ZENY FILIPPE DE CASTRO                  RUA PROFESSOR PLINIO OLINDO, 102        PADRE MIGUEL21860160RIO DE JANEIRO RJUNIAO UMB DOS CULTOS AFRO BRAS    30081810 000029
10231987175000168916200163100    000019260                    000192600000000000000109                     I0119260     30081800000000035003410000017N070518104700000000000103008180000000000000000000000000000000000000000100001080847790BENTO FRANCISCO DE LIMA NETO            RUA PITANGAS, 36 A - TIJUQUINHA         BARRA DA TIJ22713330RIO DE JANEIRO RJUNIAO UMB DOS CULTOS AFRO BRAS    30081810 000030
10231987175000168916200163100    000019259                    000192590000000000000109                     I0119259     30081800000000035003410000017N070518104700000000000103008180000000000000000000000000000000000000000200000000006239NEUZA SANTOS DE BRITO                   ESTRADA DO MOINHO, 2373                 CAMPO GRANDE23040550RIO DE JANEIRO RJUNIAO UMB DOS CULTOS AFRO BRAS    30081810 000031
10231987175000168916200163100    000019258                    000192580000000000000109                     I0119258     30081800000000035003410000017N070518104700000000000103008180000000000000000000000000000000000000000100010949478733AUCELIA MARIA DE SOUZA LIMA             RUA JOSE FRANCISCO DE SOUZA PORTO, 229  ARNALDO EUGE23016010RIO DE JANEIRO RJUNIAO UMB DOS CULTOS AFRO BRAS    30081810 000032
10231987175000168916200163100    000019257                    000192570000000000000109                     I0119257     30081800000000035003410000017N070518104700000000000103008180000000000000000000000000000000000000000200000000006204MARIA DAS DORES SANTOS                  ESTRADA DO AREAL, 4                     BOA VISTA DA27165000BARRA DO PIRAI RJUNIAO UMB DOS CULTOS AFRO BRAS    30081810 000033
10231987175000168916200163100    000019256                    000192560000000000000109                     I0119256     30081800000000035003410000017N070518104700000000000103008180000000000000000000000000000000000000000200000000006165ELISABETE JORDAO DOS SANTOS             RUA GENERAL MANOEL RABELO, 1025         VILA SAO LUI25065050DUQUE DE CAXIASRJUNIAO UMB DOS CULTOS AFRO BRAS    30081810 000034
10231987175000168916200163100    000019255                    000192550000000000000109                     I0119255     30081800000000035003410000017N070518104700000000000103008180000000000000000000000000000000000000000200000000006133JOSE CARLOS DE OLIVEIRA                 RUA NICOLAU TOLENTINO, 315              CALIFORNIA -27163000BARRA DO PIRAI RJUNIAO UMB DOS CULTOS AFRO BRAS    30081810 000035
10231987175000168916200163100    000019254                    000192540000000000000109                     I0119254     30081800000000035003410000017N070518104700000000000103008180000000000000000000000000000000000000000100049720147768LEDA MARIA DOS SANTOS LEAL              RUA JOSE FIRMINO DE MELO, 247           QUIMICA - BA27130360BARRA DO PIRAI RJUNIAO UMB DOS CULTOS AFRO BRAS    30081810 000036
10231987175000168916200163100    000019253                    000192530000000000000109                     I0119253     30081800000000035003410000017N070518104700000000000103008180000000000000000000000000000000000000000200000000006073ARACI AMELIA DA SILVA RIBEIRO           RUA ALIPIO GOMES DOS SANTOS, 493        JARDIM AMERI27340230BARRA DO PIRAI RJUNIAO UMB DOS CULTOS AFRO BRAS    30081810 000037
10231987175000168916200163100    000019252                    000192520000000000000109                     I0119252     30081800000000040003410000017N070518104700000000000103008180000000000000000000000000000000000000000100004245577703FERNANDA MEDEIROS VIANA                 RUA TOROPI  LOTE 7 QUADRA 29 FUNDOS     HELIOPOLIS  26123380BELFORD ROXO   RJUNIAO UMB DOS CULTOS AFRO BRAS    30081810 000038
10231987175000168916200163100    000019251                    000192510000000000000109                     I0119251     30081800000000035003410000017N070518104700000000000103008180000000000000000000000000000000000000000200000000005978NEUZA MORAES TAVARES                    RUA RUBENS BARCELLOS, 207               VILA ORLANDE27325260BARRA MANSA    RJUNIAO UMB DOS CULTOS AFRO BRAS    30081810 000039
10231987175000168916200163100    000019250                    000192500000000000000109                     I0119250     30081800000000035003410000017N070518104700000000000103008180000000000000000000000000000000000000000100013911839758EDSON SILVA DOS SANTOS                  RUA WALDOMIRO JOSE PEREIRA              HELIOPOLIS -26125500BELFORD ROXO   RJUNIAO UMB DOS CULTOS AFRO BRAS    30081810 000040
10231987175000168916200163100    000019249                    000192490000000000000109                     I0119249     30081800000000035003410000017N070518104700000000000103008180000000000000000000000000000000000000000100053768175715DAMIANA MARTINS DA SILVA                RUA ARABORI, 262                        ROCHA MIRAND21545120RIO DE JANEIRO RJUNIAO UMB DOS CULTOS AFRO BRAS    30081810 000041
10231987175000168916200163100    000019248                    000192480000000000000109                     I0119248     30081800000000035003410000017N070518104700000000000103008180000000000000000000000000000000000000000100003761710739ALMIRA DE SOUZA SANTOS                  RUA CARMELITA DE JESUS, LOTE 6 QUADRA 3 ELISA MARIA 23076440RIO DE JANEIRO RJUNIAO UMB DOS CULTOS AFRO BRAS    30081810 000042
10231987175000168916200163100    000019247                    000192470000000000000109                     I0119247     30081800000000035003410000017N070518104700000000000103008180000000000000000000000000000000000000000200000000005873JOSE AUGUSTO COELHO DE MENEZES          ESTRADA DA BOIUNA, 2450 - JARDIM BOIUNA TAQUARA - JA22741970RIO DE JANEIRO RJUNIAO UMB DOS CULTOS AFRO BRAS    30081810 000043
10231987175000168916200163100    000019246                    000192460000000000000109                     I0119246     30081800000000035003410000017N070518104700000000000103008180000000000000000000000000000000000000000100090882687700JUCIARA DE SOUZA CAMPOS                 RUA DEMOSTENES, 116                     JARDIM GLAUC26195500BELFORD ROXO   RJUNIAO UMB DOS CULTOS AFRO BRAS    30081810 000044
10231987175000168916200163100    000019245                    000192450000000000000109                     I0119245     30081800000000035003410000017N070518104700000000000103008180000000000000000000000000000000000000000200000000001219IOLANDA CUSTODIA DA ROSA                RUA CLODOMIR LUCAS DOS REIS, 14         CURICICA - J22713562RIO DE JANEIRO RJUNIAO UMB DOS CULTOS AFRO BRAS    30081810 000045
10231987175000168916200163100    000019244                    000192440000000000000109                     I0119244     30081800000000035003410000017N070518104700000000000103008180000000000000000000000000000000000000000200000000001355VALDEA PEREIRA SIQUEIRA                 RUA BORDA DO MATO, 415                  GRAJAU - RIO20561200RIO DE JANEIRO RJUNIAO UMB DOS CULTOS AFRO BRAS    30081810 000046
10231987175000168916200163100    000019243                    000192430000000000000109                     I0119243     30081800000000035003410000017N070518104700000000000103008180000000000000000000000000000000000000000200000000001330JORGE ALAN COSTA DE CASTRO              RUA CAPITAO MARIO NOVAES, 87            CENTRO - BAR27123110BARRA DO PIRAI RJUNIAO UMB DOS CULTOS AFRO BRAS    30081810 000047
10231987175000168916200163100    000019242                    000192420000000000000109                     I0119242     30081800000000035003410000017N070518104700000000000103008180000000000000000000000000000000000000000200000000001308CACILDA AQUINO DOS SANTOS               RUA CATULO CEARENSE, 119                MEIER  - RJ 20730320RIO DE JANEIRO RJUNIAO UMB DOS CULTOS AFRO BRAS    30081810 000048
10231987175000168916200163100    000019241                    000192410000000000000109                     I0119241     30081800000000035003410000017N070518104700000000000103008180000000000000000000000000000000000000000100080266592791ROSINEA DA SILVA CARDOSO                TRAVESSA GITAI, 190 CASA 3              COLONIA - JA22713566RIO DE JANEIRO RJUNIAO UMB DOS CULTOS AFRO BRAS    30081810 000049
10231987175000168916200163100    000019240                    000192400000000000000109                     I0119240     30081800000000035003410000017N070518104700000000000103008180000000000000000000000000000000000000000200000000001155REINALDO GONCALVES DA ROCHA             RUA FATIMA, 13 C                        JACAREPAGUA 22713570RIO DE JANEIRO RJUNIAO UMB DOS CULTOS AFRO BRAS    30081810 000050
10231987175000168916200163100    000019239                    000192390000000000000109                     I0119239     30081800000000035003410000017N070518104700000000000103008180000000000000000000000000000000000000000200000000000896LENIR SILVA MAFRA                       RUA JOAO BARBALHO, 455                  QUINTINO BOC20740010RIO DE JANEIRO RJUNIAO UMB DOS CULTOS AFRO BRAS    30081810 000051
10231987175000168916200163100    000019238                    000192380000000000000109                     I0119238     30081800000000035003410000017N070518104700000000000103008180000000000000000000000000000000000000000200000000000842IDINEIA RIBEIRO DE AZEVEDO              RUA MOZOLANDIA LOTE 27 QUADRA 105       GUARATIBA - 21660260RIO DE JANEIRO RJUNIAO UMB DOS CULTOS AFRO BRAS    30081810 000052
10231987175000168916200163100    000019237                    000192370000000000000109                     I0119237     30081800000000035003410000017N070518104700000000000103008180000000000000000000000000000000000000000100001686254741ADELIA DE OLIVEIRA AZEVEDO              RUA CORONEL CAMISAO N 842               VISTA ALEGRE21250290RIO DE JANEIRO RJUNIAO UMB DOS CULTOS AFRO BRAS    30081810 000053
10231987175000168916200163100    000019236                    000192360000000000000109                     I0119236     30081800000000035003410000017N070518104700000000000103008180000000000000000000000000000000000000000200000000000614VERA REGINA GONCALVES                   RUA ANTONIO ALVES, 417                  COSTA BARROS21650020RIO DE JANEIRO RJUNIAO UMB DOS CULTOS AFRO BRAS    30081810 000054
10231987175000168916200163100    000019235                    000192350000000000000109                     I0119235     30081800000000035003410000017N070518104700000000000103008180000000000000000000000000000000000000000100083780262720MARIA JOANA DOROTEIA DE PAULA           ESTRADA MERINGUAVA, 701 PINHEIRO 11     TAQUARA - JA22725442RIO DE JANEIRO RJUNIAO UMB DOS CULTOS AFRO BRAS    30081810 000055
10231987175000168916200163100    000019234                    000192340000000000000109                     I0119234     30081800000000035003410000017N070518104700000000000103008180000000000000000000000000000000000000000100004728238768MARIA JOSE ILARIO MANGUEIRA             ESTRADA DA AGUA BRANCA, 2160            REALENGO - R21730000RIO DE JANEIRO RJUNIAO UMB DOS CULTOS AFRO BRAS    30081810 000056
10231987175000168916200163100    000019233                    000192330000000000000109                     I0119233     30071800000000035003410000017N070518104700000000000103007180000000000000000000000000000000000000000100089982118749LENIR SILVA DOS SANTOS                  RUA ILDEFONSO ALBANO                    GUADALUPE   26291278RIO DE JANEIRO RJUNIAO UMB DOS CULTOS AFRO BRAS    30071810 000057
10231987175000168916200163100    000019232                    000192320000000000000109                     I0119232     30071800000000035003410000017N070518104700000000000103007180000000000000000000000000000000000000000100005215608709KARYN GEYZA BATALHA BOECHAT             AVENIDA NOSSA SENHORA DE COPACABANA     COPACABANA  22060001RIO DE JANEIRO RJUNIAO UMB DOS CULTOS AFRO BRAS    30071810 000058
10231987175000168916200163100    000019231                    000192310000000000000109                     I0119231     30071800000000035003410000017N070518104700000000000103007180000000000000000000000000000000000000000100000905236793ROSE GREGO SILVA DE SOUZA               RUA FLEXAL                              INHAUMA     20766610RIO DE JANEIRO RJUNIAO UMB DOS CULTOS AFRO BRAS    30071810 000059
10231987175000168916200163100    000019230                    000192300000000000000109                     I0119230     30071800000000040003410000017N070518104700000000000103007180000000000000000000000000000000000000000100009005281766ANDREA JOSE DO NASCIMENTO               TRAVESSA JABOATAO                       PARQUE SUECI25041025DUQUE DE CAXIASRJUNIAO UMB DOS CULTOS AFRO BRAS    30071810 000060
10231987175000168916200163100    000019229                    000192290000000000000109                     I0119229     30071800000000035003410000017N070518104700000000000103007180000000000000000000000000000000000000000100051265699704MARIA FATIMA DE SOUSA                   RUA MAURITI DOS SANTOS                  EDEN        25525720SAO JOAO DE MERRJUNIAO UMB DOS CULTOS AFRO BRAS    30071810 000061
10231987175000168916200163100    000019228                    000192280000000000000109                     I0119228     30071800000000040003410000017N070518104700000000000103007180000000000000000000000000000000000000000100064494527734RONALDO ROSAS ALVES                     ESTRADA COMANDANTE                      PRATA       25976140TERESOPOLIS    RJUNIAO UMB DOS CULTOS AFRO BRAS    30071810 000062
10231987175000168916200163100    000019227                    000192270000000000000109                     I0119227     30071800000000035003410000017N070518104700000000000103007180000000000000000000000000000000000000000100060223170704MARIA DO CARMO DO NASCIMENTO S          RUA JOAO ADIL DE OLIVEIRA               IRAJA       21230175RIO DE JANEIRO RJUNIAO UMB DOS CULTOS AFRO BRAS    30071810 000063
10231987175000168916200163100    000019226                    000192260000000000000109                     I0119226     30071800000000040003410000017N070518104700000000000103007180000000000000000000000000000000000000000100008722484701ANA PAULA SILVA DA CRUZ                 RUA ELVIRA DA FONSECA                   LARGO DO TAN22733150RIO DE JANEIRO RJUNIAO UMB DOS CULTOS AFRO BRAS    30071810 000064
10231987175000168916200163100    000019225                    000192250000000000000109                     I0119225     30071800000000040003410000017N070518104700000000000103007180000000000000000000000000000000000000000100064506770749TERESINHA MARIA PEREIRA NOGUEI          RUA CAMELIA DOS SANTOS MENDES COUTO     CORTA VENTO 25963430TERESOPOLIS    RJUNIAO UMB DOS CULTOS AFRO BRAS    30071810 000065
10231987175000168916200163100    000019224                    000192240000000000000109                     I0119224     30071800000000040003410000017N070518104700000000000103007180000000000000000000000000000000000000000100075333112720FATIMA CRISTINA MARQUES DE ALM          RUA MANOEL CARREIRO DE MELLO            SAO PEDRO   25956080TERESOPOLIS    RJUNIAO UMB DOS CULTOS AFRO BRAS    30071810 000066
10231987175000168916200163100    000019223                    000192230000000000000109                     I0119223     30071800000000040003410000017N070518104700000000000103007180000000000000000000000000000000000000000100028095391700SERGIO GARCIA DE QUEIROZ                RUA MATO GROSSO                         SANTA CECILI25957250TERESOPOLIS    RJUNIAO UMB DOS CULTOS AFRO BRAS    30071810 000067
10231987175000168916200163100    000019222                    000192220000000000000109                     I0119222     30071800000000035003410000017N070518104700000000000103007180000000000000000000000000000000000000000100043397077753JOAO NORATO CEZARIO                     RUA POETA MANOEL BANDEIRA               CABUIS      26540260NILOPOLIS      RJUNIAO UMB DOS CULTOS AFRO BRAS    30071810 000068
10231987175000168916200163100    000019221                    000192210000000000000109                     I0119221     30071800000000040003410000017N070518104700000000000103007180000000000000000000000000000000000000000100012295676746JEFFERSON ANTONIO TELLES GALDI          RUA MOUZIN DE ALBUQUERQUE               SAO VICENTE 26178080BELFORD ROXO   RJUNIAO UMB DOS CULTOS AFRO BRAS    30071810 000069
10231987175000168916200163100    000019220                    000192200000000000000109                     I0119220     30071800000000040003410000017N070518104700000000000103007180000000000000000000000000000000000000000100091083532715MARCOS AURELIO PEREIRA RAMOS            RUA MATO GROSSO                         SANTA CECILI25957250TERESOPOLIS    RJUNIAO UMB DOS CULTOS AFRO BRAS    30071810 000070
10231987175000168916200163100    000019219                    000192190000000000000109                     I0119219     30071800000000035003410000017N070518104700000000000103007180000000000000000000000000000000000000000100063662329700MARCO LUIS FREITAS DE AMORIM            RUA DAS DALIAS                          VILA VALQUEI21330740RIO DE JANEIRO RJUNIAO UMB DOS CULTOS AFRO BRAS    30071810 000071
10231987175000168916200163100    000019218                    000192180000000000000109                     I0119218     30071800000000035003410000017N070518104700000000000103007180000000000000000000000000000000000000000100003526002762HELOISA HELENA DE OLIVEIRA DA           RUA DOUTOR MUNIZ                        CENTRO      26130020BELFORD ROXO   RJUNIAO UMB DOS CULTOS AFRO BRAS    30071810 000072
10231987175000168916200163100    000019217                    000192170000000000000109                     I0119217     30071800000000035003410000017N070518104700000000000103007180000000000000000000000000000000000000000100005436665730JORGE LUIZ VICTORIO LIMA                MARCOVALDI                              NOVA ESPERAN26113040BELFORD ROXO   RJUNIAO UMB DOS CULTOS AFRO BRAS    30071810 000073
10231987175000168916200163100    000019216                    000192160000000000000109                     I0119216     30071800000000040003410000017N070518104700000000000103007180000000000000000000000000000000000000000100003005342727MAURICIO ESTORQUE                       RUA AMERICO BERLIM                      JARDIM FEO  25965430TERESOPOLIS    RJUNIAO UMB DOS CULTOS AFRO BRAS    30071810 000074
10231987175000168916200163100    000019215                    000192150000000000000109                     I0119215     30071800000000040003410000017N070518104700000000000103007180000000000000000000000000000000000000000100008046598771ANTONIO DA SILVA BARBOSA                MARIA JOSE FERREIRA DUARTE              ERMITAGE    25975780TERESOPOLIS    RJUNIAO UMB DOS CULTOS AFRO BRAS    30071810 000075
10231987175000168916200163100    000019214                    000192140000000000000109                     I0119214     30071800000000040003410000017N070518104700000000000103007180000000000000000000000000000000000000000100009526018770VERONICA MARIA LIMA                     RUA KEMAL PALHA                         VILA SANTO A25040220DUQUE DE CAXIASRJUNIAO UMB DOS CULTOS AFRO BRAS    30071810 000076
10231987175000168916200163100    000019213                    000192130000000000000109                     I0119213     30071800000000040003410000017N070518104700000000000103007180000000000000000000000000000000000000000100001253277737MARIA JOSE DANTAS MOREIRA               RUA SETE DE JUNHO                       PRAIA DE MAU25925732MAGE           RJUNIAO UMB DOS CULTOS AFRO BRAS    30071810 000077
10231987175000168916200163100    000019212                    000192120000000000000109                     I0119212     30071800000000035003410000017N070518104700000000000103007180000000000000000000000000000000000000000100003250570596VERONICA LUCIA DA CRUZ                  ESTRADA DOUTOR FARRULA                  SAO FRANCISC26125400BELFORD ROXO   RJUNIAO UMB DOS CULTOS AFRO BRAS    30071810 000078
10231987175000168916200163100    000019211                    000192110000000000000109                     I0119211     30071800000000035003410000017N070518104700000000000103007180000000000000000000000000000000000000000100002527980740ARMANDO DE ALMEIDA                      PEDRO JOSE DE OLIVEIRA                  VARGEM GRAND27145231BARRA DO PIRAI RJUNIAO UMB DOS CULTOS AFRO BRAS    30071810 000079
10231987175000168916200163100    000019210                    000192100000000000000109                     I0119210     30071800000000035003410000017N070518104700000000000103007180000000000000000000000000000000000000000100005978854785ALEXANDRE MOTA DOS SANTOS               RUA: BRUNO SENDER                       JARDIM NOVA 26266040NOVA IGUACU    RJUNIAO UMB DOS CULTOS AFRO BRAS    30071810 000080
10231987175000168916200163100    000019209                    000192090000000000000109                     I0119209     30071800000000035003410000017N070518104700000000000103007180000000000000000000000000000000000000000100014907708793THIAGO CARVALHO VIDAL LIMA              RUA DONA DUCHA QUADRA 5 LOTE 7          MARIA CONGA 25900353MAGE           RJUNIAO UMB DOS CULTOS AFRO BRAS    30071810 000081
10231987175000168916200163100    000019208                    000192080000000000000109                     I0119208     30071800000000040003410000017N070518104700000000000103007180000000000000000000000000000000000000000100082187401715JOSE AUGUSTO DA PAIXAO                  RUA GOMES CARNEIRO                      SARACURUNA  25211050DUQUE DE CAXIASRJUNIAO UMB DOS CULTOS AFRO BRAS    30071810 000082
10231987175000168916200163100    000019207                    000192070000000000000109                     I0119207     30071800000000040003410000017N070518104700000000000103007180000000000000000000000000000000000000000100011622292766ROBERT HELENO MACEDO                    TRAVESSA JOSE CARRETEIRO                ENGENHOCA   24110444NITEROI        RJUNIAO UMB DOS CULTOS AFRO BRAS    30071810 000083
10231987175000168916200163100    000019206                    000192060000000000000109                     I0119206     30071800000000035003410000017N070518104700000000000103007180000000000000000000000000000000000000000100007337231792SAMANTHA PRISCILA MARQUES MORE          RUA INSPETOR CASTRO                     SARACURUNA  25211410DUQUE DE CAXIASRJUNIAO UMB DOS CULTOS AFRO BRAS    30071810 000084
10231987175000168916200163100    000019205                    000192050000000000000109                     I0119205     30071800000000035003410000017N070518104700000000000103007180000000000000000000000000000000000000000100060044055749SUELY DE FARIAS EDUARDO                 TRAVESSA: JAFIA                         CIDADE DE DE22772190RIO DE JANEIRO RJUNIAO UMB DOS CULTOS AFRO BRAS    30071810 000085
10231987175000168916200163100    000019204                    000192040000000000000109                     I0119204     30071800000000035003410000017N070518104700000000000103007180000000000000000000000000000000000000000100013118884703WESLEI FERREIRA DE CARVALHO             ESTRADA DO GUERENGUE                    TAQUARA     22713004RIO DE JANEIRO RJUNIAO UMB DOS CULTOS AFRO BRAS    30071810 000086
10231987175000168916200163100    000019203                    000192030000000000000109                     I0119203     30071800000000035003410000017N070518104700000000000103007180000000000000000000000000000000000000000100002176741781SUSI DE OLIVEIRA LOUREIRO               AVENIDA VICENTE DE CARVALHO             VICENTE DE C21371148RIO DE JANEIRO RJUNIAO UMB DOS CULTOS AFRO BRAS    30071810 000087
10231987175000168916200163100    000019202                    000192020000000000000109                     I0119202     30071800000000035003410000017N070518104700000000000103007180000000000000000000000000000000000000000100095846190715ANA MARIA NICANOR DE QUADRO             RUA: PASSO FUNDO                        JARDIM GUAND26298189NOVA IGUACU    RJUNIAO UMB DOS CULTOS AFRO BRAS    30071810 000088
10231987175000168916200163100    000019201                    000192010000000000000109                     I0119201     30071800000000035003410000017N070518104700000000000103007180000000000000000000000000000000000000000100001161586709ALEXANDRE PIMPAREL DA SILVA             RUA: COMENDADOR VENACIO                 PALHADA     26290204NOVA IGUACU    RJUNIAO UMB DOS CULTOS AFRO BRAS    30071810 000089
10231987175000168916200163100    000019200                    000192000000000000000109                     I0119200     30071800000000035003410000017N070518104700000000000103007180000000000000000000000000000000000000000100000000013086FABIO DA SILVA                          RUA: CAMORIM                            JARDIM DELAM26317140QUEIMADOS      RJUNIAO UMB DOS CULTOS AFRO BRAS    30071810 000090
10231987175000168916200163100    000019199                    000191990000000000000109                     I0119199     30071800000000035003410000017N070518104700000000000103007180000000000000000000000000000000000000000100010765062755IVONE JOAO PEDRO                        RUA MARMIARI                            SENADOR CAMA21831000RIO DE JANEIRO RJUNIAO UMB DOS CULTOS AFRO BRAS    30071810 000091
10231987175000168916200163100    000019198                    000191980000000000000109                     I0119198     30071800000000035003410000017N070518104700000000000103007180000000000000000000000000000000000000000100085957679720MARIA DA APARECIDA VICENTE DUQ          RUA: FRANCISCO VIOLTI                   HELIOPLOIS  26125440BELFORD ROXO   RJUNIAO UMB DOS CULTOS AFRO BRAS    30071810 000092
10231987175000168916200163100    000019197                    000191970000000000000109                     I0119197     30071800000000035003410000017N070518104700000000000103007180000000000000000000000000000000000000000100005933193704ANA PAULA DA SILVA SANTOS               RUA: APIACA                             JARDIM BARRO25267290DUQUE DE CAXIASRJUNIAO UMB DOS CULTOS AFRO BRAS    30071810 000093
10231987175000168916200163100    000019196                    000191960000000000000109                     I0119196     30071800000000035003410000017N070518104700000000000103007180000000000000000000000000000000000000000100010018753701PAULA DE BRITO                          RUA FRANCISCO VIOLTI                    HELIOPOLIS  26125440RIO DE JANEIRO RJUNIAO UMB DOS CULTOS AFRO BRAS    30071810 000094
10231987175000168916200163100    000019195                    000191950000000000000109                     I0119195     30071800000000035003410000017N070518104700000000000103007180000000000000000000000000000000000000000100003372466705SANDRO NASCIMENTO NOBREGA               RUA JOAO ROMARIZ                        RAMOS       21031700RIO DE JANEIRO RJUNIAO UMB DOS CULTOS AFRO BRAS    30071810 000095
10231987175000168916200163100    000019194                    000191940000000000000109                     I0119194     30071800000000035003410000017N070518104700000000000103007180000000000000000000000000000000000000000100085542091768SUELY PEREIRA DA SILVA CALIXTO          RICARDO XAVIER DA SILVEIRA              IMBARIE     25266005DUQUE DE CAXIASRJUNIAO UMB DOS CULTOS AFRO BRAS    30071810 000096
10231987175000168916200163100    000019193                    000191930000000000000109                     I0119193     30071800000000035003410000017N070518104700000000000103007180000000000000000000000000000000000000000100010718180747JOSE CARLOS MELO DA SILVA               RUA DEPUTADO SA REGO                    VILA SAO LUI25065030DUQUE DE CAXIASRJUNIAO UMB DOS CULTOS AFRO BRAS    30071810 000097
10231987175000168916200163100    000019192                    000191920000000000000109                     I0119192     30071800000000035003410000017N070518104700000000000103007180000000000000000000000000000000000000000100058756280734SANDRA REGINA DA CONCEICAO              RUA BUENOS AIRES                        JARDIM PERNA26275390NOVA IGUACU    RJUNIAO UMB DOS CULTOS AFRO BRAS    30071810 000098
10231987175000168916200163100    000019191                    000191910000000000000109                     I0119191     30071800000000035003410000017N070518104700000000000103007180000000000000000000000000000000000000000100032637128764MARLENE DA CRUZ                         AVENIDA ABILIO AUGUSTO TAVORA           VALVERDE    26290600NOVA IGUACU    RJUNIAO UMB DOS CULTOS AFRO BRAS    30071810 000099
10231987175000168916200163100    000019190                    000191900000000000000109                     I0119190     30071800000000035003410000017N070518104700000000000103007180000000000000000000000000000000000000000100049660632720MARINETE SANTOS DE OLIVEIRA             AVENIDA SANTA CRUZ                      SENADOR CAMA23010003RIO DE JANEIRO RJUNIAO UMB DOS CULTOS AFRO BRAS    30071810 000100
10231987175000168916200163100    000019189                    000191890000000000000109                     I0119189     30071800000000035003410000017N070518104700000000000103007180000000000000000000000000000000000000000100003253352730LUCINEA DUTRA MEDEIROS                  RUA EVALDO BRAGA                        INDEPENDENCI25645300PETROPOLIS     RJUNIAO UMB DOS CULTOS AFRO BRAS    30071810 000101
10231987175000168916200163100    000019188                    000191880000000000000109                     I0119188     30071800000000035003410000017N070518104700000000000103007180000000000000000000000000000000000000000100000858723778GEOVANI FERNANDA DA SILVA               RUA SOFIA BARRETO                       VITOR DUMAS 23550700RIO DE JANEIRO RJUNIAO UMB DOS CULTOS AFRO BRAS    30071810 000102
10231987175000168916200163100    000019187                    000191870000000000000109                     I0119187     30071800000000035003410000017N070518104700000000000103007180000000000000000000000000000000000000000100000227210700ROSIMAR TELLES DE SA                    RUA: ACAPU                              MARECHAL HER21550570RIO DE JANEIRO RJUNIAO UMB DOS CULTOS AFRO BRAS    30071810 000103
10231987175000168916200163100    000019186                    000191860000000000000109                     I0119186     30071800000000035003410000017N070518104700000000000103007180000000000000000000000000000000000000000100000919377793JOSE IVAN MARCELINO FILHO               RUA ERNANE PEREIRA                      CARLOS SAMPA26089115NOVA IGUACU    RJUNIAO UMB DOS CULTOS AFRO BRAS    30071810 000104
10231987175000168916200163100    000019185                    000191850000000000000109                     I0119185     30071800000000035003410000017N070518104700000000000103007180000000000000000000000000000000000000000100001649750714CRISTIANE JOSE DA SILVA                 AVENIDA CALOMBE                         PARQUE ELDOR25231020DUQUE DE CAXIASRJUNIAO UMB DOS CULTOS AFRO BRAS    30071810 000105
10231987175000168916200163100    000019184                    000191840000000000000109                     I0119184     30071800000000040003410000017N070518104700000000000103007180000000000000000000000000000000000000000100011700984799CRISTIANE SANTOS FEIJO VIEIRA           RUA NICOLAU TOUQUET                     JARDIM CATAR24716403SAO GONCALO    RJUNIAO UMB DOS CULTOS AFRO BRAS    30071810 000106
10231987175000168916200163100    000019183                    000191830000000000000109                     I0119183     30071800000000035003410000017N070518104700000000000103007180000000000000000000000000000000000000000100012345678900MARIA DA GRACA MACHADO DOS SAN          RUA ARCOBELO                            PARQUE ARARU25585560SAO JOAO DE MERRJUNIAO UMB DOS CULTOS AFRO BRAS    30071810 000107
10231987175000168916200163100    000019182                    000191820000000000000109                     I0119182     30071800000000035003410000017N070518104700000000000103007180000000000000000000000000000000000000000100004278587716LUCIANO GONCALVES PIRES                 RUA MARECHAL ANTONIO DE SOUSA           JARDIM AMERI21240430RIO DE JANEIRO RJUNIAO UMB DOS CULTOS AFRO BRAS    30071810 000108
10231987175000168916200163100    000019181                    000191810000000000000109                     I0119181     30071800000000035003410000017N070518104700000000000103007180000000000000000000000000000000000000000100010154945790SIMONE DE OLIVEIRA CUNHA                RUA ONZE                                JARDIM ROTSE25270080DUQUE DE CAXIASRJUNIAO UMB DOS CULTOS AFRO BRAS    30071810 000109
10231987175000168916200163100    000019180                    000191800000000000000109                     I0119180     30071800000000040003410000017N070518104700000000000103007180000000000000000000000000000000000000000100005234258726LUANNA RODRIGUES NASCIMENTO LO          RUA HERACLITO BUSQUET                   TABORDA     28680000CACHOEIRA DE MARJUNIAO UMB DOS CULTOS AFRO BRAS    30071810 000110
10231987175000168916200163100    000019179                    000191790000000000000109                     I0119179     30071800000000040003410000017N070518104700000000000103007180000000000000000000000000000000000000000100005770480742NARAYAMA MARTINS RODRIGUES LOU          RUA HERACLITO BUSQUET                   TABORDA     28680000CACHOEIRA DE MARJUNIAO UMB DOS CULTOS AFRO BRAS    30071810 000111
10231987175000168916200163100    000019178                    000191780000000000000109                     I0119178     30071800000000040003410000017N070518104700000000000103007180000000000000000000000000000000000000000100002965368736REGINA CONCEICAO                        AVENIDA BOQUEIRAO                       BOA VISTA   28680000CACHOEIRA DE MARJUNIAO UMB DOS CULTOS AFRO BRAS    30071810 000112
10231987175000168916200163100    000019177                    000191770000000000000109                     I0119177     30071800000000040003410000017N070518104700000000000103007180000000000000000000000000000000000000000100009963194761FERNANDO PECANHA PIRES                  RUA GENERAL BASILIO                     TABORDA     28680000CACHOEIRA DE MARJUNIAO UMB DOS CULTOS AFRO BRAS    30071810 000113
10231987175000168916200163100    000019176                    000191760000000000000109                     I0119176     30071800000000035003410000017N070518104700000000000103007180000000000000000000000000000000000000000100009491065777VIVIAN LUIZA FREITAS DE AGUIAR          RUA ITAPETININGA                        VICENTE DE C21370680RIO DE JANEIRO RJUNIAO UMB DOS CULTOS AFRO BRAS    30071810 000114
10231987175000168916200163100    000019175                    000191750000000000000109                     I0119175     30071800000000035003410000017N070518104700000000000103007180000000000000000000000000000000000000000100002331392730ANA MARIA DOS SANTOS VIEIRA             RUA CRUZ DE SOUZA                       CARMARY POSS26022281NOVA IGUACU    RJUNIAO UMB DOS CULTOS AFRO BRAS    30071810 000115
10231987175000168916200163100    000019174                    000191740000000000000109                     I0119174     30071800000000035003410000017N070518104700000000000103007180000000000000000000000000000000000000000100005964958702MARISLEY AMARO DE SOUZA                 RUA MONTE ALTO                          BANGU       21863010RIO DE JANEIRO RJUNIAO UMB DOS CULTOS AFRO BRAS    30071810 000116
10231987175000168916200163100    000019173                    000191730000000000000109                     I0119173     30071800000000035003410000017N070518104700000000000103007180000000000000000000000000000000000000000100003018847733MARIA AILHA BERNARDO PINTO              RUA RUBIAO JUNIOR                       CENTRO      23860000MANGARATIBA    RJUNIAO UMB DOS CULTOS AFRO BRAS    30071810 000117
10231987175000168916200163100    000019172                    000191720000000000000109                     I0119172     30071800000000035003410000017N070518104700000000000103007180000000000000000000000000000000000000000100089207963787NICEIA SANTOS FRANCA                    RUA SAPUCAI - BECO DO JORDAO            SANTA CRUZ  23550360RIO DE JANEIRO RJUNIAO UMB DOS CULTOS AFRO BRAS    30071810 000118
10231987175000168916200163100    000019171                    000191710000000000000109                     I0119171     30071800000000035003410000017N070518104700000000000103007180000000000000000000000000000000000000000100012345678910LUCIANO GONCALVES DE SOUZA              RUA CLARIMUNDO DE MELO                  PIEDADE     20740323RIO DE JANEIRO RJUNIAO UMB DOS CULTOS AFRO BRAS    30071810 000119
10231987175000168916200163100    000019170                    000191700000000000000109                     I0119170     30071800000000035003410000017N070518104700000000000103007180000000000000000000000000000000000000000100001162883707SUNEY MENEZES MACHADO                   ESTRADA: DO ENCANAMENTO                 BARBADO - CA23060000RIO DE JANEIRO RJUNIAO UMB DOS CULTOS AFRO BRAS    30071810 000120
10231987175000168916200163100    000019169                    000191690000000000000109                     I0119169     30071800000000035003410000017N070518104700000000000103007180000000000000000000000000000000000000000100004275325745MAIKE OLIVEIRA DA COSTA                 TRAVESSA: MARTA DA ROCHA                ABOLICAO    20755030RIO DE JANEIRO RJUNIAO UMB DOS CULTOS AFRO BRAS    30071810 000121
10231987175000168916200163100    000019168                    000191680000000000000109                     I0119168     30071800000000035003410000017N070518104700000000000103007180000000000000000000000000000000000000000100001298660750ROSEMBERG EFIGENIO BARBOSA              RUA: TANCREDO MARTINS COSTA             ENGENHO DE D20730310RIO DE JANEIRO RJUNIAO UMB DOS CULTOS AFRO BRAS    30071810 000122
10231987175000168916200163100    000019167                    000191670000000000000109                     I0119167     30071800000000035003410000017N070518104700000000000103007180000000000000000000000000000000000000000100050246534753TANIA MARIA DA SILVA OLIVEIRA           TRAVESSA: MARAJO                        LINDO PARQUE24420100SAO GONCALO    RJUNIAO UMB DOS CULTOS AFRO BRAS    30071810 000123
10231987175000168916200163100    000019166                    000191660000000000000109                     I0119166     30071800000000035003410000017N070518104700000000000103007180000000000000000000000000000000000000000100006915594736CINTIA FERREIRA                         AVENIDA: DAS AMERICAS                   BARRA DA TIJ22631004RIO DE JANEIRO RJUNIAO UMB DOS CULTOS AFRO BRAS    30071810 000124
10231987175000168916200163100    000019165                    000191650000000000000109                     I0119165     30071800000000035003410000017N070518104700000000000103007180000000000000000000000000000000000000000100011497058767DIEGO FERREIRA DA SILVA                 PRIMEIRO DE MAIO                        IPIRANGA    26293480NOVA IGUACU    RJUNIAO UMB DOS CULTOS AFRO BRAS    30071810 000125
10231987175000168916200163100    000019164                    000191640000000000000109                     I0119164     30071800000000035003410000017N070518104700000000000103007180000000000000000000000000000000000000000100044415443753ELIDE LEANDRO BARBOSA                   RUA: ENGENHEIRO PERICLES RIBEIRO        FONSECA     24130350NITEROI        RJUNIAO UMB DOS CULTOS AFRO BRAS    30071810 000126
10231987175000168916200163100    000019163                    000191630000000000000109                     I0119163     30071800000000035003410000017N070518104700000000000103007180000000000000000000000000000000000000000100003387547720APARECIDA DOS SANTOS                    RUA LAOS                                VILA HELIOPO26125170BELFORD ROXO   RJUNIAO UMB DOS CULTOS AFRO BRAS    30071810 000127
10231987175000168916200163100    000019162                    000191620000000000000109                     I0119162     30071800000000035003410000017N070518104700000000000103007180000000000000000000000000000000000000000100090219023700GUARACIARA CORREA PASCHOAL              RUA JOSE CABRAL                         VAL VERDE   26290783NOVA IGUACU    RJUNIAO UMB DOS CULTOS AFRO BRAS    30071810 000128
10231987175000168916200163100    000019161                    000191610000000000000109                     I0119161     30071800000000035003410000017N070518104700000000000103007180000000000000000000000000000000000000000100000640795706CELIA REGINA ALVES DE SOUZA CO          ESTRADA: SAO PEDRO                      VISTA ALEGRE24725240SAO GONCALO    RJUNIAO UMB DOS CULTOS AFRO BRAS    30071810 000129
10231987175000168916200163100    000019160                    000191600000000000000109                     I0119160     30071800000000035003410000017N070518104700000000000103007180000000000000000000000000000000000000000100007459837741LUIZ CARLOS CARDOSO                     O MESMO                                 O MESMO     25917040MAGE           RJUNIAO UMB DOS CULTOS AFRO BRAS    30071810 000130
10231987175000168916200163100    000019159                    000191590000000000000109                     I0119159     30071800000000035003410000017N070518104700000000000103007180000000000000000000000000000000000000000100023970090563MARCIA VIEIRA SALES                     O MESMO                                 O MESMO     22740220RIO DE JANEIRO RJUNIAO UMB DOS CULTOS AFRO BRAS    30071810 000131
10231987175000168916200163100    000019158                    000191580000000000000109                     I0119158     30071800000000035003410000017N070518104700000000000103007180000000000000000000000000000000000000000100011264005725MARECELO VIEIRA GUSMAN FILHO            MESMO                                   MESMO       23066470RIO DE JANEIRO RJUNIAO UMB DOS CULTOS AFRO BRAS    30071810 000132
10231987175000168916200163100    000019157                    000191570000000000000109                     I0119157     30071800000000035003410000017N070518104700000000000103007180000000000000000000000000000000000000000100001343022738LUCIANA FIGUEIRO COUTINHO DA S          O MESMO                                 O MESMO     22785600RIO DE JANEIRO RJUNIAO UMB DOS CULTOS AFRO BRAS    30071810 000133
10231987175000168916200163100    000019156                    000191560000000000000109                     I0119156     30071800000000035003410000017N070518104700000000000103007180000000000000000000000000000000000000000100006726905432DAYVIDY RAMON CANDIDO                   O MESMO                                 O MESMO     26415055JAPERI         RJUNIAO UMB DOS CULTOS AFRO BRAS    30071810 000134
10231987175000168916200163100    000019155                    000191550000000000000109                     I0119155     30071800000000035003410000017N070518104700000000000103007180000000000000000000000000000000000000000100053531396749VITALINA DOS SANTOS                     RUA SAQUAREMA                           GRAMACHO    25035425DUQUE DE CAXIASRJUNIAO UMB DOS CULTOS AFRO BRAS    30071810 000135
10231987175000168916200163100    000019154                    000191540000000000000109                     I0119154     30071800000000035003410000017N070518104700000000000103007180000000000000000000000000000000000000000100003604572746LUCIANA SANTOS DA SILVA DE LIM          O MESMO                                 O MESMO     25585110SAO JOAO DE MERRJUNIAO UMB DOS CULTOS AFRO BRAS    30071810 000136
10231987175000168916200163100    000019153                    000191530000000000000109                     I0119153     30071800000000035003410000017N070518104700000000000103007180000000000000000000000000000000000000000100009445907728VICTOR DOS SANTOS ALLEN                 RUA PEDRO TELES                         SAO JOAO DE 25515032SAO JOAO DE MERRJUNIAO UMB DOS CULTOS AFRO BRAS    30071810 000137
10231987175000168916200163100    000019152                    000191520000000000000109                     I0119152     30071800000000035003410000017N070518104700000000000103007180000000000000000000000000000000000000000100011549239759RENATA DE OLIVEIRA GASPAR               O MESMO                                 O MESMO     21350230RIO DE JANEIRO RJUNIAO UMB DOS CULTOS AFRO BRAS    30071810 000138
10231987175000168916200163100    000019151                    000191510000000000000109                     I0119151     30071800000000035003410000017N070518104700000000000103007180000000000000000000000000000000000000000100009145082707ELAINE CRISTINA DE MORAES               O MESMO                                 O MESMO     23063340RIO DE JANEIRO RJUNIAO UMB DOS CULTOS AFRO BRAS    30071810 000139
10231987175000168916200163100    000019150                    000191500000000000000109                     I0119150     30071800000000035003410000017N070518104700000000000103007180000000000000000000000000000000000000000100015429555134OBIRACI SILVA DO NASCIMENTO             O MESMO                                 O MESMO     24756280SAO GONCALO    RJUNIAO UMB DOS CULTOS AFRO BRAS    30071810 000140
10231987175000168916200163100    000019149                    000191490000000000000109                     I0119149     30071800000000035003410000017N070518104700000000000103007180000000000000000000000000000000000000000100006864504778FABIO GUILHERME DOS SANTOS              O MESMO                                 O MESMO     24723190SAO GONCALO    RJUNIAO UMB DOS CULTOS AFRO BRAS    30071810 000141
10231987175000168916200163100    000019148                    000191480000000000000109                     I0119148     30071800000000035003410000017N070518104700000000000103007180000000000000000000000000000000000000000100001234567890LUCIANO SOARES DA SILVA                 O MESMO                                 O MESMO     27910000MACAE          RJUNIAO UMB DOS CULTOS AFRO BRAS    30071810 000142
10231987175000168916200163100    000019147                    000191470000000000000109                     I0119147     30071800000000035003410000017N070518104700000000000103007180000000000000000000000000000000000000000100013849060705LEONARDO ENEDINA DE MELO                O MESMO                                 O MESMO     26050517NOVA IGUACU    RJUNIAO UMB DOS CULTOS AFRO BRAS    30071810 000143
10231987175000168916200163100    000019146                    000191460000000000000109                     I0119146     30071800000000035003410000017N070518104700000000000103007180000000000000000000000000000000000000000100082391106734CASSIO SOUZA DA COSTA                   O MESMO                                 O MESMO     26112220BELFORD ROXO   RJUNIAO UMB DOS CULTOS AFRO BRAS    30071810 000144
10231987175000168916200163100    000019145                    000191450000000000000109                     I0119145     30071800000000035003410000017N070518104700000000000103007180000000000000000000000000000000000000000100087798999787NILZETE DA CONCEICAO FELIX              O MESMO                                 O MESMO     25264030DUQUE DE CAXIASRJUNIAO UMB DOS CULTOS AFRO BRAS    30071810 000145
10231987175000168916200163100    000019144                    000191440000000000000109                     I0119144     30071800000000035003410000017N070518104700000000000103007180000000000000000000000000000000000000000100002882629729ANA PAULA DE SOUZA RIBEIRO VIL          O MESMO                                 O MESMO     21550130RIO DE JANEIRO RJUNIAO UMB DOS CULTOS AFRO BRAS    30071810 000146
10231987175000168916200163100    000019143                    000191430000000000000109                     I0119143     30071800000000035003410000017N070518104700000000000103007180000000000000000000000000000000000000000100004842101490MARIA DE LOURDES FARIAS DOS SA          RUA HELIO DE OLIVEIRA LOTE 29 QUADRA 407PARADA MORAB25000000DUQUE DE CAXIASRJUNIAO UMB DOS CULTOS AFRO BRAS    30071810 000147
10231987175000168916200163100    000019142                    000191420000000000000109                     I0119142     30071800000000035003410000017N070518104700000000000103007180000000000000000000000000000000000000000100004253784704ALEXANDRE SIMOES NASCIMENTO             RUA SEBASTIAO DRUMOND N 179             ANCHIETA - R21640360RIO DE JANEIRO RJUNIAO UMB DOS CULTOS AFRO BRAS    30071810 000148
10231987175000168916200163100    000019141                    000191410000000000000109                     I0119141     30071800000000035003410000017N070518104700000000000103007180000000000000000000000000000000000000000100004474701755JACIRA DE ALMEIDA BATISTA JULI          O MESMO                                 O MESMO     25225660DUQUE DE CAXIASRJUNIAO UMB DOS CULTOS AFRO BRAS    30071810 000149
10231987175000168916200163100    000019140                    000191400000000000000109                     I0119140     30071800000000035003410000017N070518104700000000000103007180000000000000000000000000000000000000000100077068505791JOSE CLEZIO DE SOUZA                    O MESMO                                 O MESMO     21331100RIO DE JANEIRO RJUNIAO UMB DOS CULTOS AFRO BRAS    30071810 000150
10231987175000168916200163100    000019139                    000191390000000000000109                     I0119139     30071800000000035003410000017N070518104700000000000103007180000000000000000000000000000000000000000100006424589880LUIZ CARLOS BRITO                       O MESMO                                 O MESMO     26063230NOVA IGUACU    RJUNIAO UMB DOS CULTOS AFRO BRAS    30071810 000151
10231987175000168916200163100    000019138                    000191380000000000000109                     I0119138     30071800000000035003410000017N070518104700000000000103007180000000000000000000000000000000000000000100007299785757EDSON NUNES DE SOUZA FILHO              O MESMO                                 O MESMO     24415050SAO GONCALO    RJUNIAO UMB DOS CULTOS AFRO BRAS    30071810 000152
10231987175000168916200163100    000019137                    000191370000000000000109                     I0119137     30071800000000035003410000017N070518104700000000000103007180000000000000000000000000000000000000000100009250353782LUIZ CARLOS MATOLA                      APIACA                                  JARDIM PRIMA25056270DUQUE DE CAXIASRJUNIAO UMB DOS CULTOS AFRO BRAS    30071810 000153
10231987175000168916200163100    000019136                    000191360000000000000109                     I0119136     30071800000000035003410000017N070518104700000000000103007180000000000000000000000000000000000000000100012345678910LUCIANA LUISA PEREIRA                   AVENIDA PORTO SEGURO N 469              LAGOMAR - MA27966870MACAE          RJUNIAO UMB DOS CULTOS AFRO BRAS    30071810 000154
10231987175000168916200163100    000019135                    000191350000000000000109                     I0119135     30071800000000035003410000017N070518104700000000000103007180000000000000000000000000000000000000000100012464631728DIEGO TACITO COSTA HENRIQUE             RUA YONE MUZZI N 59                     MALVINAS - M27946310MACAE          RJUNIAO UMB DOS CULTOS AFRO BRAS    30071810 000155
10231987175000168916200163100    000019134                    000191340000000000000109                     I0119134     30071800000000035003410000017N070518104700000000000103007180000000000000000000000000000000000000000200000000012990MARIA DA PENHA CORREA PINTO             RUA 1 CONDOMINIO 1 CASA 34              BOSQUE AZUL 27971250MACAE          RJUNIAO UMB DOS CULTOS AFRO BRAS    30071810 000156
10231987175000168916200163100    000019133                    000191330000000000000109                     I0119133     30071800000000035003410000017N070518104700000000000103007180000000000000000000000000000000000000000100078514533568PAULO SERGIO SANTOS SANTANA             RUA: W 12 -  TRAVESSA SENA CASA 10      LAGOMAR - MA27966590MACAE          RJUNIAO UMB DOS CULTOS AFRO BRAS    30071810 000157
10231987175000168916200163100    000019132                    000191320000000000000109                     I0119132     30071800000000035003410000017N070518104700000000000103007180000000000000000000000000000000000000000100010267774702NATHALIA SOUTELINHO FERREIRA            MARIA NATALIA                           GUARATIBA   23028270RIO DE JANEIRO RJUNIAO UMB DOS CULTOS AFRO BRAS    30071810 000158
10231987175000168916200163100    000019131                    000191310000000000000109                     I0119131     30071800000000035003410000017N070518104700000000000103007180000000000000000000000000000000000000000100007208431701WEMERSON JOAO FARIAS DA SILVA           RUA: C N 3 LOTE 3 QUADRA G              SEPETIBA - R23545040RIO DE JANEIRO RJUNIAO UMB DOS CULTOS AFRO BRAS    30071810 000159
10231987175000168916200163100    000019130                    000191300000000000000109                     I0119130     30071800000000035003410000017N070518104700000000000103007180000000000000000000000000000000000000000100073960560710CLAUDIA MARIA DE OLIVEIRA DOS           RUA: CARATUVA N 145                     JARDIM SULAC22725020RIO DE JANEIRO RJUNIAO UMB DOS CULTOS AFRO BRAS    30071810 000160
10231987175000168916200163100    000019129                    000191290000000000000109                     I0119129     30071800000000035003410000017N070518104700000000000103007180000000000000000000000000000000000000000100014933850704LIDIA GABRIELLE DIAS RIBEIRO            RUA JORGE BRAGANCA SN LOTE 28 QUADRA 70 BOM PASTOR -26110080BELFORD ROXO   RJUNIAO UMB DOS CULTOS AFRO BRAS    30071810 000161
10231987175000168916200163100    000019128                    000191280000000000000109                     I0119128     30071800000000035003410000017N070518104700000000000103007180000000000000000000000000000000000000000100097990531704CICERO ROGERIO DA SILVA MATOS           RUA: ROBERTO N 99                       VILA GUIMARA26088425NOVA IGUACU    RJUNIAO UMB DOS CULTOS AFRO BRAS    30071810 000162
10231987175000168916200163100    000019127                    000191270000000000000109                     I0119127     30071800000000035003410000017N070518104700000000000103007180000000000000000000000000000000000000000100001478776790CLEUSA FERREIRA PEREIRA                 RUA THEREMIN N 393                      COELHO NETO 21530290RIO DE JANEIRO RJUNIAO UMB DOS CULTOS AFRO BRAS    30071810 000163
10231987175000168916200163100    000019126                    000191260000000000000109                     I0119126     30071800000000035003410000017N070518104700000000000103007180000000000000000000000000000000000000000100067424647734MARCIA VALERIA VALIATI DOS SAN          RUA CONSTANCA BARBOSA N 65 APT 202      MEIER - RIO 20735090RIO DE JANEIRO RJUNIAO UMB DOS CULTOS AFRO BRAS    30071810 000164
10231987175000168916200163100    000019125                    000191250000000000000109                     I0119125     30071800000000035003410000017N070518104700000000000103007180000000000000000000000000000000000000000100010292272766MARCIA JUPIRA SANTOS GONZAGA            RUA ANTONIO FELIX N 457                 CENTRO - NIL26520081NILOPOLIS      RJUNIAO UMB DOS CULTOS AFRO BRAS    30071810 000165
10231987175000168916200163100    000019124                    000191240000000000000109                     I0119124     30071800000000035003410000017N070518104700000000000103007180000000000000000000000000000000000000000100090490894704EVELINE DA CONCEICAO                    AVENIDA ATLANTIDA  SN                   LAGOMAR - MA27966000MACAE          RJUNIAO UMB DOS CULTOS AFRO BRAS    30071810 000166
10231987175000168916200163100    000019123                    000191230000000000000109                     I0119123     30071800000000035003410000017N070518104700000000000103007180000000000000000000000000000000000000000100013397736781JOVANE RANGEL DA SILVA                  RUA SILVA JARDIM N 200                  CENTRO - MAC27910340MACAE          RJUNIAO UMB DOS CULTOS AFRO BRAS    30071810 000167
10231987175000168916200163100    000019122                    000191220000000000000109                     I0119122     30071800000000035003410000017N070518104700000000000103007180000000000000000000000000000000000000000100004188514760LUIZ CARLOS PEREIRA DA SILVA            RUA W N 24 TRAVESSA 13                  LAGOMAR - MA27966755MACAE          RJUNIAO UMB DOS CULTOS AFRO BRAS    30071810 000168
10231987175000168916200163100    000019121                    000191210000000000000109                     I0119121     30071800000000035003410000017N070518104700000000000103007180000000000000000000000000000000000000000100016492108760TIAGO LOPES DE AZEVEDO SILVA            RUA X N 24 QUADRA 82                    PARADA MODEL25943365GUAPIMIRIM     RJUNIAO UMB DOS CULTOS AFRO BRAS    30071810 000169
10231987175000168916200163100    000019120                    000191200000000000000109                     I0119120     30071800000000035003410000017N070518104700000000000103007180000000000000000000000000000000000000000200000000012966LEONARDO EUGENIO DOS SANTOS             RUA LUIZ PINTO DA SILVA N 547           PRAIA CAMPIS27923200MACAE          RJUNIAO UMB DOS CULTOS AFRO BRAS    30071810 000170
10231987175000168916200163100    000019119                    000191190000000000000109                     I0119119     30071800000000035003410000017N070518104700000000000103007180000000000000000000000000000000000000000100095181890725ALEXANDRE DE SOUZA TAVARES SEN          O MESMO                                 O MESMO     26260230NOVA IGUACU    RJUNIAO UMB DOS CULTOS AFRO BRAS    30071810 000171
10231987175000168916200163100    000019118                    000191180000000000000109                     I0119118     30071800000000035003410000017N070518104700000000000103007180000000000000000000000000000000000000000100014527767763THIERRY PADILHA MOTA                    RUA ALCIR BRASIL N 706                  JARDIM NOVA 26266010NOVA IGUACU    RJUNIAO UMB DOS CULTOS AFRO BRAS    30071810 000172
10231987175000168916200163100    000019117                    000191170000000000000109                     I0119117     30071800000000035003410000017N070518104700000000000103007180000000000000000000000000000000000000000100011122717750RODRIGO DINIZ DA COSTA                  RUA ENGENHO DE DENTRO N 177 LOTE 26 QUADVILAR DOS TE25565230SAO JOAO DE MERRJUNIAO UMB DOS CULTOS AFRO BRAS    30071810 000173
10231987175000168916200163100    000019116                    000191160000000000000109                     I0119116     30071800000000035003410000017N070518104700000000000103007180000000000000000000000000000000000000000100013090350750REINALDO GONCALVES DE OLIVEIRA          RUA DOMINGOS LEMOS N 99                 COELHO DA RO25550721SAO JOAO DE MERRJUNIAO UMB DOS CULTOS AFRO BRAS    30071810 000174
10231987175000168916200163100    000019115                    000191150000000000000109                     I0119115     30071800000000035003410000017N070518104700000000000103007180000000000000000000000000000000000000000100005953749724JUCIARA DA SILVA XAVIER                 RUA CONDE DE AZAMBUJA N 526             MARIA DA GRA20785342RIO DE JANEIRO RJUNIAO UMB DOS CULTOS AFRO BRAS    30071810 000175
10231987175000168916200163100    000019114                    000191140000000000000109                     I0119114     30071800000000035003410000017N070518104700000000000103007180000000000000000000000000000000000000000100006110323764WAGNER MATOS DA SILVA                   RUA OLINDA Nº 425 CASA 3               BELA VISTA -26175350BELFORD ROXO   RJUNIAO UMB DOS CULTOS AFRO BRAS    30071810 000176
10231987175000168916200163100    000019113                    000191130000000000000109                     I0119113     30071800000000035003410000017N070518104700000000000103007180000000000000000000000000000000000000000100092111777749WANDERLEY DOS SANTOS MENDES             PRACA EMBOABA Nº 67                    ENGENHO DA R20761160RIO DE JANEIRO RJUNIAO UMB DOS CULTOS AFRO BRAS    30071810 000177
10231987175000168916200163100    000019112                    000191120000000000000109                     I0119112     30071800000000035003410000017N070518104700000000000103007180000000000000000000000000000000000000000100009416663794IGOR DO NASCIMENTO RODRIGUES            RUA FIGUEIREDO ROCHA N 665              VIGARIO GERA21240660RIO DE JANEIRO RJUNIAO UMB DOS CULTOS AFRO BRAS    30071810 000178
10231987175000168916200163100    000019111                    000191110000000000000109                     I0119111     30071800000000035003410000017N070518104700000000000103007180000000000000000000000000000000000000000100090432894772ALTAMIRO DAMASCENO MONCAO               RUA TENERIFE N 8 - PARADA DE LUCAS      PARADA DE LU21010000RIO DE JANEIRO RJUNIAO UMB DOS CULTOS AFRO BRAS    30071810 000179
10231987175000168916200163100    000019110                    000191100000000000000109                     I0119110     30071800000000035003410000017N070518104700000000000103007180000000000000000000000000000000000000000100040664325734GENI BARBOSA ROCHA DA SILVA             O MESMO                                 O MESMO     25268020RIO DE JANEIROIRJUNIAO UMB DOS CULTOS AFRO BRAS    30071810 000180
10231987175000168916200163100    000019109                    000191090000000000000109                     I0119109     30071800000000035003410000017N070518104700000000000103007180000000000000000000000000000000000000000100011834931770LEANDRO BARROS DA SILVA                 RUA ROMARIO SILVA N 40                  KENNEDY - NO26020640NOVA IGUACU    RJUNIAO UMB DOS CULTOS AFRO BRAS    30071810 000181
10231987175000168916200163100    000019108                    000191080000000000000109                     I0119108     30071800000000035003410000017N070518104700000000000103007180000000000000000000000000000000000000000100069279500791CLAUDIA ALONSO RODRIGUES                ESTRADA DO PAU FERRO N 851              FREGUESIA - 22745055RIO DE JANEIRO RJUNIAO UMB DOS CULTOS AFRO BRAS    30071810 000182
10231987175000168916200163100    000019107                    000191070000000000000109                     I0119107     30071800000000035003410000017N070518104700000000000103007180000000000000000000000000000000000000000100087306689720JANAINA SANTA CRUZ COSTA                ALAMEDA SANTO ANTONIO N 974             SEPETIBA - R23535660RIO DE JANEIRO RJUNIAO UMB DOS CULTOS AFRO BRAS    30071810 000183
10231987175000168916200163100    000019106                    000191060000000000000109                     I0119106     30071800000000035003410000017N070518104700000000000103007180000000000000000000000000000000000000000100092915434700MARIA MANOLA GIL DE ALMEIDA             RUA MARQUES GUIMARAES N 19              IRAJA - RIO 21230820RIO DE JANEIRO RJUNIAO UMB DOS CULTOS AFRO BRAS    30071810 000184
10231987175000168916200163100    000019105                    000191050000000000000109                     I0119105     30071800000000035003410000017N070518104700000000000103007180000000000000000000000000000000000000000100060210389753ROZANA DOS SANTOS                       RUA MARANHAO N 1057 RUA B CASA 73       MEIER - RIO 23060720RIO DE JANEIRO RJUNIAO UMB DOS CULTOS AFRO BRAS    30071810 000185
10231987175000168916200163100    000019104                    000191040000000000000109                     I0119104     30071800000000035003410000017N070518104700000000000103007180000000000000000000000000000000000000000100088041883753JORGE COSTA BRAGA FILHO                 RUA MARQUES DE JACAREPAGUA N 707 BLOCO 2TAQUARA - RI22730290RIO DE JANEIRO RJUNIAO UMB DOS CULTOS AFRO BRAS    30071810 000186
10231987175000168916200163100    000019103                    000191030000000000000109                     I0119103     30071800000000035003410000017N070518104700000000000103007180000000000000000000000000000000000000000100016618405742MILTON CARLOS JUNIO QUINTANILH          RUA SEIS LOTES 13 E 14 QUADRA 8         PARADA MORAB25265000DUQUE DE CAXIASRJUNIAO UMB DOS CULTOS AFRO BRAS    30071810 000187
10231987175000168916200163100    000019102                    000191020000000000000109                     I0119102     30071800000000035003410000017N070518104700000000000103007180000000000000000000000000000000000000000100005234763706LUCIANA FERREIRA DE ALMEIDA             RUA QUATRO LOTE 1 QUADRA 258            PARADA MORAB25265220DUQUE DE CAXIASRJUNIAO UMB DOS CULTOS AFRO BRAS    30071810 000188
10231987175000168916200163100    000019101                    000191010000000000000109                     I0119101     30071800000000035003410000017N070518104700000000000103007180000000000000000000000000000000000000000100012009305760DEBORA CRISTINA DE OLIVEIRA BR          RUA ORLANDO CARLOS DA CONCEICAO N 10    COROA GRANDE23820800ITAGUAI        RJUNIAO UMB DOS CULTOS AFRO BRAS    30071810 000189
10231987175000168916200163100    000019100                    000191000000000000000109                     I0119100     30071800000000035003410000017N070518104700000000000103007180000000000000000000000000000000000000000100000759136742ADRIANA LAPORT ALVES                    RUA DONA CLARA DE ARAUJO N 681          ANDRADE ARAU26010390NOVA IGUACU    RJUNIAO UMB DOS CULTOS AFRO BRAS    30071810 000190
10231987175000168916200163100    000019099                    000190990000000000000109                     I0119099     30071800000000035003410000017N070518104700000000000103007180000000000000000000000000000000000000000100084301724753ANA LUCIA FERREIRA DA SILVA             RUA HUGO CESAR MONTEIRO DA SILVA N 42   CAICARA - NO26015000NOVA IGUACU    RJUNIAO UMB DOS CULTOS AFRO BRAS    30071810 000191
10231987175000168916200163100    000019098                    000190980000000000000109                     I0119098     30071800000000035003410000017N070518104700000000000103007180000000000000000000000000000000000000000100090618254749NELY MOREIRA GOMES                      RUA GOMES CARNEIRO SN LOTE 12 QUADRA 60 SARACURUNA -25211050DUQUE DE CAXIASRJUNIAO UMB DOS CULTOS AFRO BRAS    30071810 000192
10231987175000168916200163100    000019097                    000190970000000000000109                     I0119097     30071800000000035003410000017N070518104700000000000103007180000000000000000000000000000000000000000100065000366700DULCINEIA DA SILVA MENDONCA             RUA ALBERTINO LADEIRA N 63              MONTE CASTEL26041510NOVA IGUACU    RJUNIAO UMB DOS CULTOS AFRO BRAS    30071810 000193
10231987175000168916200163100    000019096                    000190960000000000000109                     I0119096     30071800000000035003410000017N070518104700000000000103007180000000000000000000000000000000000000000100012450258728MONIQUE RODRIGUES DE ALMEIDA            RUA CESAR N 277                         REALENGO - R21750400RIO DE JANEIRO RJUNIAO UMB DOS CULTOS AFRO BRAS    30071810 000194
10231987175000168916200163100    000019095                    000190950000000000000109                     I0119095     30071800000000035003410000017N070518104700000000000103007180000000000000000000000000000000000000000100008578432738WANDERSON DOS SANTOS LOPES              RUA SATURNO SN QUADRA 12 LOTE 16        VILA GENI - 23825517COROA GRANDE   RJUNIAO UMB DOS CULTOS AFRO BRAS    30071810 000195
10231987175000168916200163100    000019094                    000190940000000000000109                     I0119094     30071800000000035003410000017N070518104700000000000103007180000000000000000000000000000000000000000100058365737787ALTAMIRA ROSA                           AVENIDA DO CONTORNO 17                  PARADA MORAB25000000DUQUE DE CAXIASRJUNIAO UMB DOS CULTOS AFRO BRAS    30071810 000196
10231987175000168916200163100    000019093                    000190930000000000000109                     I0119093     30071800000000035003410000017N070518104700000000000103007180000000000000000000000000000000000000000100074171372704ELIANE DE SOUZA MACHADO                 RUA ROQUETE PINTO LOTE 22 QUADRA 290 CASJARDIM ANHAN25265200DUQUE DE CAXIASRJUNIAO UMB DOS CULTOS AFRO BRAS    30071810 000197
10231987175000168916200163100    000019092                    000190920000000000000109                     I0119092     30071800000000035003410000017N070518104700000000000103007180000000000000000000000000000000000000000100053218833787MARLUCE SUELY DA SILVA                  RUA CHRISOSTOMO PIMENTEL DE OLIVEIRA, 63ANCHIETA - R21645521RIO DE JANEIRO RJUNIAO UMB DOS CULTOS AFRO BRAS    30071810 000198
10231987175000168916200163100    000019091                    000190910000000000000109                     I0119091     30071800000000035003410000017N070518104700000000000103007180000000000000000000000000000000000000000100010262557754EDGAR SODRE BANI                        RUA B N 20  LOTE 7 QUADRA 255           PARADA MORAB25265220DUQUE DE CAXIASRJUNIAO UMB DOS CULTOS AFRO BRAS    30071810 000199
10231987175000168916200163100    000019090                    000190900000000000000109                     I0119090     30071800000000035003410000017N070518104700000000000103007180000000000000000000000000000000000000000100006876928730DIONE ASSUNCAO SOARES                   RUA SILVIA VIEIRA SN  LOTE 24           FAZENDA SOSS26088475NOVA IGUACU    RJUNIAO UMB DOS CULTOS AFRO BRAS    30071810 000200
10231987175000168916200163100    000019089                    000190890000000000000109                     I0119089     30071800000000035003410000017N070518104700000000000103007180000000000000000000000000000000000000000100063268876749JORGE DA COSTA BARRETO                  AVENIDA JOAQUIM COSTA LIMA LOTE 27 QUADRCENTRO - BEL26112055BELFORD ROXO   RJUNIAO UMB DOS CULTOS AFRO BRAS    30071810 000201
10231987175000168916200163100    000019088                    000190880000000000000109                     I0119088     30071800000000035003410000017N070518104700000000000103007180000000000000000000000000000000000000000100003798443700ALINE MODINA TELLES                     RUA DETETIVE PARADA N 8                 VILA DA PENH21221060RIO DE JANEIRO RJUNIAO UMB DOS CULTOS AFRO BRAS    30071810 000202
10231987175000168916200163100    000019087                    000190870000000000000109                     I0119087     30071800000000035003410000017N070518104700000000000103007180000000000000000000000000000000000000000100079882749704IRIS BRASILINO VILELA                   RUA SETE DE SETEMBRO N 183              CAMARI - NOV26022202NOVA IGUACU    RJUNIAO UMB DOS CULTOS AFRO BRAS    30071810 000203
10231987175000168916200163100    000019086                    000190860000000000000109                     I0119086     30071800000000035003410000017N070518104700000000000103007180000000000000000000000000000000000000000100084441372787LUCIA HELENA DE OLIVEIRA GAMA           RUA PEDRO ANTONIO PEREIRA N 270 FUNDOS  AERO CLUBE -26285291NOVA IGUACU    RJUNIAO UMB DOS CULTOS AFRO BRAS    30071810 000204
10231987175000168916200163100    000019085                    000190850000000000000109                     I0119085     30071800000000035003410000017N070518104700000000000103007180000000000000000000000000000000000000000100082191638791RITA DE CASSIA VALVERDE ROCHA           RUA JOAQUIM SOARES NETO N 250           NOVA AMERICA26021560NOVA IGUACU    RJUNIAO UMB DOS CULTOS AFRO BRAS    30071810 000205
10231987175000168916200163100    000019084                    000190840000000000000109                     I0119084     30071800000000035003410000017N070518104700000000000103007180000000000000000000000000000000000000000100011590456742WANILA LIMA DE BRITO                    RUA REDENTOR LOTE 5 QUADRA 18 CASA 2 FUNJARDIM REDEN26110090BELFORD ROXO   RJUNIAO UMB DOS CULTOS AFRO BRAS    30071810 000206
10231987175000168916200163100    000019083                    000190830000000000000109                     I0119083     30071800000000035003410000017N070518104700000000000103007180000000000000000000000000000000000000000100069052735700ROSANE MARQUES FERREIRA                 ESTRADA DO TINGUI N 2315 CASA 24        CAMPO GRANDE23075006RIO DE JANEIRO RJUNIAO UMB DOS CULTOS AFRO BRAS    30071810 000207
10231987175000168916200163100    000019082                    000190820000000000000109                     I0119082     30071800000000035003410000017N070518104700000000000103007180000000000000000000000000000000000000000100014520518792STEPHANI MATOS MONTEIRO                 ESTRADA DOUTOR PLINIO CASADO N 3599     CENTRO - BEL26130622BELFORD ROXO   RJUNIAO UMB DOS CULTOS AFRO BRAS    30071810 000208
10231987175000168916200163100    000019081                    000190810000000000000109                     I0119081     30071800000000035003410000017N070518104700000000000103007180000000000000000000000000000000000000000100012727461780SUELMIR LIMA DE ARAUJO                  RUA NOSSA SENHORA DAS GRACAS N 98       PRAIA DO ANI25925708MAGE           RJUNIAO UMB DOS CULTOS AFRO BRAS    30071810 000209
10231987175000168916200163100    000019080                    000190800000000000000109                     I0119080     30071800000000035003410000017N070518104700000000000103007180000000000000000000000000000000000000000100009653128795FERNANDO RIBEIRO DE SOUZA               RUA JOAO PEDRO TESCH N 332 D            ALTO DA SERR25635500PETROPOLIS     RJUNIAO UMB DOS CULTOS AFRO BRAS    30071810 000210
10231987175000168916200163100    000019079                    000190790000000000000109                     I0119079     30071800000000035003410000017N070518104700000000000103007180000000000000000000000000000000000000000100002142304737ILAIR FERNANDES BRAZILEIRO BOR          RUA VERISSIMO MACHADO N 395 FUNDOS      ROCHA MIRAND21545060RIO DE JANEIRO RJUNIAO UMB DOS CULTOS AFRO BRAS    30071810 000211
10231987175000168916200163100    000019078                    000190780000000000000109                     I0119078     30071800000000035003410000017N070518104700000000000103007180000000000000000000000000000000000000000100001346375771CRISTIANE MARIANO RAPELLO               ESTRADA ALBERTO TEIXEIRA CUNHA N 1410 CANILOPOLIS - 26520070NILOPOLIS      RJUNIAO UMB DOS CULTOS AFRO BRAS    30071810 000212
10231987175000168916200163100    000019077                    000190770000000000000109                     I0119077     30071800000000035003410000017N070518104700000000000103007180000000000000000000000000000000000000000100011351878786GLEISSON BITTENCOURT DA SILVA           RUA FLORA DE ARAUJO N 310               PRATA - NOVA26010570NOVA IGUACU    RJUNIAO UMB DOS CULTOS AFRO BRAS    30071810 000213
10231987175000168916200163100    000019076                    000190760000000000000109                     I0119076     30071800000000035003410000017N070518104700000000000103007180000000000000000000000000000000000000000100000839586736MAURO CESAR BRANCO OBERLAENDER          RUA IGUARIM N 104 - REALENGO            REALENGO - R21765540RIO DE JANEIRO RJUNIAO UMB DOS CULTOS AFRO BRAS    30071810 000214
10231987175000168916200163100    000019075                    000190750000000000000109                     I0119075     30071800000000035003410000017N070518104700000000000103007180000000000000000000000000000000000000000100005225598757JOSUE DA SILVA SANTOS                   RUA BARAO DO AMAPA S/N LOTE 1 QUADRA 40 AMAPA - DUQU21211007DUQUE DE CAXIASRJUNIAO UMB DOS CULTOS AFRO BRAS    30071810 000215
10231987175000168916200163100    000019074                    000190740000000000000109                     I0119074     30071800000000035003410000017N070518104700000000000103007180000000000000000000000000000000000000000100011766861784MARIA WANDERLEIA MARTINS CRUZ           RUA BRUNO LECINI N 375                  AUSTIN - NOV26279255NOVA IGUACU    RJUNIAO UMB DOS CULTOS AFRO BRAS    30071810 000216
10231987175000168916200163100    000019073                    000190730000000000000109                     I0119073     30071800000000035003410000017N070518104700000000000103007180000000000000000000000000000000000000000100070645523704RICARDO DE SOUZA LIMA                   RUA MAJOR AZEVEDO 344                   IRAJA       21230060RIO DE JANEIRO RJUNIAO UMB DOS CULTOS AFRO BRAS    30071810 000217
10231987175000168916200163100    000019072                    000190720000000000000109                     I0119072     30071800000000035003410000017N070518104700000000000103007180000000000000000000000000000000000000000100015110892709YASMIN FIALHO HANGES                    ESTRADA HENRIQUE DE MELO N 193 FUNDOS   BENTO RIBEIR21340190RIO DE JANEIRO RJUNIAO UMB DOS CULTOS AFRO BRAS    30071810 000218
10231987175000168916200163100    000019071                    000190710000000000000109                     I0119071     30071800000000035003410000017N070518104700000000000103007180000000000000000000000000000000000000000100009503848792JORGE ALEXANDRE TEIXEIRA BRAZ           RUA CAJUIPE N 163 CASA 1                BONSUCESSO -21060490RIO DE JANEIRO RJUNIAO UMB DOS CULTOS AFRO BRAS    30071810 000219
10231987175000168916200163100    000019070                    000190700000000000000109                     I0119070     30071800000000035003410000017N070518104700000000000103007180000000000000000000000000000000000000000100030894840720LIGIA REGINA ZACHARIAS DE MELO          RUA LAGO VERDE N 19 APT 302             INHAUMA - RI21051360RIO DE JANEIRO RJUNIAO UMB DOS CULTOS AFRO BRAS    30071810 000220
10231987175000168916200163100    000019069                    000190690000000000000109                     I0119069     30071800000000035003410000017N070518104700000000000103007180000000000000000000000000000000000000000100007443282761WASHINGTON LUIZ DA SILVA RAMOS          RUA DEZESSETE N 78 - CONJUNTO LIBERDADE SANTA CRUZ -23560600RIO DE JANEIRO RJUNIAO UMB DOS CULTOS AFRO BRAS    30071810 000221
10231987175000168916200163100    000019068                    000190680000000000000109                     I0119068     30071800000000035003410000017N070518104700000000000103007180000000000000000000000000000000000000000100007964006797JOSILENE MONTEIRO HERMOGENES            RUA PADRE MARINHO N 309                 SARACURUNA -25212450DUQUE DE CAXIASRJUNIAO UMB DOS CULTOS AFRO BRAS    30071810 000222
10231987175000168916200163100    000019067                    000190670000000000000109                     I0119067     30071800000000035003410000017N070518104700000000000103007180000000000000000000000000000000000000000100010544644701RENATA DE OLIVEIRA SILVA                RUA NOSSA SENHORA DE NAZARE N 23 A      GERENCIANO -26061700NOVA IGUACU    RJUNIAO UMB DOS CULTOS AFRO BRAS    30071810 000223
10231987175000168916200163100    000019066                    000190660000000000000109                     I0119066     30071800000000035003410000017N070518104700000000000103007180000000000000000000000000000000000000000100068373570772RONILCE CAMILO DA SILVA                 RUA RUBY ALBERTORIA N 2 - GERENCIANO    GERENCIANO -26061155NVOA IGUACU    RJUNIAO UMB DOS CULTOS AFRO BRAS    30071810 000224
10231987175000168916200163100    000019065                    000190650000000000000109                     I0119065     30071800000000035003410000017N070518104700000000000103007180000000000000000000000000000000000000000100047442140700MARFIZA FERREIRA DA SILVA VENA          RUA EURICO COELHO N 50                  GRAMA - NOVA26060650NOVA IGUACU    RJUNIAO UMB DOS CULTOS AFRO BRAS    30071810 000225
10231987175000168916200163100    000019064                    000190640000000000000109                     I0119064     30071800000000035003410000017N070518104700000000000103007180000000000000000000000000000000000000000200000000012882JOSE ANTONIO DA SILVA JUNIOR            RUA HILDEBRANDO DE ARAUJO GOES N 271    PIABETA - MA25936880MAGE           RJUNIAO UMB DOS CULTOS AFRO BRAS    30071810 000226
10231987175000168916200163100    000019063                    000190630000000000000109                     I0119063     30071800000000035003410000017N070518104700000000000103007180000000000000000000000000000000000000000100009956479764TATIANE VASCONCELOS DA SILVA            RUA SANTA MARGARIDA N 337               PIABETA - MA25900000MAGE           RJUNIAO UMB DOS CULTOS AFRO BRAS    30071810 000227
10231987175000168916200163100    000019062                    000190620000000000000109                     I0119062     30071800000000035003410000017N070518104700000000000103007180000000000000000000000000000000000000000100093788150734REGINA DA SILVA VERONEZI DOS S          RUA ABATE 105                           JARDIM CANAA26263040NOVA IGUACU    RJUNIAO UMB DOS CULTOS AFRO BRAS    30071810 000228
10231987175000168916200163100    000019061                    000190610000000000000109                     I0119061     30071800000000035003410000017N070518104700000000000103007180000000000000000000000000000000000000000100008834107705JOSELI TIADULINO                        RUA MARIA TEREZA N 134                  JARDIM CANAA26263230NOVA IGUACU    RJUNIAO UMB DOS CULTOS AFRO BRAS    30071810 000229
10231987175000168916200163100    000019060                    000190600000000000000109                     I0119060     30071800000000035003410000017N070518104700000000000103007180000000000000000000000000000000000000000100092645933734ROSINEA PRECIOSO DE OLIVEIRA            RUA PROFESSORA MARLY CARVALHO PEREIRA N MIGUEL COUTO26070452NOVA IGUACU    RJUNIAO UMB DOS CULTOS AFRO BRAS    30071810 000230
10231987175000168916200163100    000019059                    000190590000000000000109                     I0119059     30071800000000035003410000017N070518104700000000000103007180000000000000000000000000000000000000000100002375024702FATIMA APARECIDA OLIVEIRA DE C          RUA OURO PRETO QD 46 LT 21              COQUEIRAL  A20740280RIO DE JANEIRO RJUNIAO UMB DOS CULTOS AFRO BRAS    30071810 000231
10231987175000168916200163100    000019058                    000190580000000000000109                     I0119058     30071800000000035003410000017N070518104700000000000103007180000000000000000000000000000000000000000100001317692780SELENE FREIRE DE ARAUJO CANNAN          RUA DA CONQUISTA N 442                  JARDIM ESPLA26013330NOVA IGUACU    RJUNIAO UMB DOS CULTOS AFRO BRAS    30071810 000232
10231987175000168916200163100    000019057                    000190570000000000000109                     I0119057     30071800000000035003410000017N070518104700000000000103007180000000000000000000000000000000000000000100080578063700SANDRA REGINA NEVES CHAGAS              RUA MARIA LOURENCO N 12 CASA 2          JARDIM PRIMA25215367DUQUE DE CAXIASRJUNIAO UMB DOS CULTOS AFRO BRAS    30071810 000233
10231987175000168916200163100    000019056                    000190560000000000000109                     I0119056     30071800000000035003410000017N070518104700000000000103007180000000000000000000000000000000000000000100068374208791ROSANA LISBOA DE OLIVEIRA               RUA TEOFILO DIAS LOTE 7 QUADRA 47       PILAR - DUQU25233239DUQUE DE CAXIASRJUNIAO UMB DOS CULTOS AFRO BRAS    30071810 000234
10231987175000168916200163100    000019055                    000190550000000000000109                     I0119055     30071800000000035003410000017N070518104700000000000103007180000000000000000000000000000000000000000100014760475702DEBORAH ROSA                            RUA MARIA LOURENCO GONCALVES N 18 CASA 2JARDIM PRIMA25215367DUQUE DE CAXIASRJUNIAO UMB DOS CULTOS AFRO BRAS    30071810 000235
10231987175000168916200163100    000019054                    000190540000000000000109                     I0119054     30071800000000035003410000017N070518104700000000000103007180000000000000000000000000000000000000000100054336481768PENHA JACIARA DA SILVA                  RUA DEZESSETE N 102 (CONJUNTO LIBERDADE)SANTA CRUZ -23560600RIO DE JANEIRO RJUNIAO UMB DOS CULTOS AFRO BRAS    30071810 000236
10231987175000168916200163100    000019053                    000190530000000000000109                     I0119053     30071800000000035003410000017N070518104700000000000103007180000000000000000000000000000000000000000100004419977752GISELE DE CASTILHO SOARES               RUA ARTHUR MAGALHAES N 64               COMENDADOR S26276605NOVA IGUACU    RJUNIAO UMB DOS CULTOS AFRO BRAS    30071810 000237
10231987175000168916200163100    000019052                    000190520000000000000109                     I0119052     30071800000000035003410000017N070518104700000000000103007180000000000000000000000000000000000000000100055480730797TEREZINHA DE JESUS FERRAZ DOS           RUA TUPINAMBA N 305 - OURO VERDE        OURO VERDE -26262490NOVA IGUACU    RJUNIAO UMB DOS CULTOS AFRO BRAS    30071810 000238
10231987175000168916200163100    000019051                    000190510000000000000109                     I0119051     30071800000000035003410000017N070518104700000000000103007180000000000000000000000000000000000000000100000889136785EDENILSON DE SOUZA SILVA                RUA GUARACIABA N 210 FUNDOS             CAMPO GRANDE23070420RIO DE JANEIRO RJUNIAO UMB DOS CULTOS AFRO BRAS    30071810 000239
10231987175000168916200163100    000019050                    000190500000000000000109                     I0119050     30071800000000035003410000017N070518104700000000000103007180000000000000000000000000000000000000000100000915013770ROSANGELA DAS NEVES RESENDE DO          RUA GOIANESIA LOTE 23 QUADRA 101        MARAMBAIA - 24859300ITABORAI       RJUNIAO UMB DOS CULTOS AFRO BRAS    30071810 000240
10231987175000168916200163100    000019049                    000190490000000000000109                     I0119049     30071800000000035003410000017N070518104700000000000103007180000000000000000000000000000000000000000100005411763746MONICA CRUZ DE OLIVEIRA                 AVENIDA JOAO XXIII - RUA QUATORZE QUADRASANTA CRUZ -23565110RIO DE JANEIRO RJUNIAO UMB DOS CULTOS AFRO BRAS    30071810 000241
10231987175000168916200163100    000019048                    000190480000000000000109                     I0119048     30071800000000035003410000017N070518104700000000000103007180000000000000000000000000000000000000000200000000012851JEANE APARECIDA NUNES BITENCOU          RUA MANOEL MENDONCA N 17                DEODORO - RI21616320RIO DE JANEIRO RJUNIAO UMB DOS CULTOS AFRO BRAS    30071810 000242
10231987175000168916200163100    000019047                    000190470000000000000109                     I0119047     30071800000000035003410000017N070518104700000000000103007180000000000000000000000000000000000000000100008246810707LEILA DA SILVA MARQUES                  RUA REDENTOR LOTE 19 QUADRA 18          JARDIM REDEN26110090BELFORD ROXO   RJUNIAO UMB DOS CULTOS AFRO BRAS    30071810 000243
10231987175000168916200163100    000019046                    000190460000000000000109                     I0119046     30071800000000035003410000017N070518104700000000000103007180000000000000000000000000000000000000000100010276278704ROSELI DE OLIVEIRA DUTRA                RUA UM LOTE 7 QUADRA 8                  TAQUARA - DU25275110DUQUE DE CAXIASRJUNIAO UMB DOS CULTOS AFRO BRAS    30071810 000244
10231987175000168916200163100    000019045                    000190450000000000000109                     I0119045     30071800000000035003410000017N070518104700000000000103007180000000000000000000000000000000000000000100005633721735MARCOS AURELIO PAULINO FLORIAN          RUA LEONEL ROCHA N 195 CASA LOTE H      GUARATIBA - 23032460RIO DE JANEIRO RJUNIAO UMB DOS CULTOS AFRO BRAS    30071810 000245
10231987175000168916200163100    000019044                    000190440000000000000109                     I0119044     30071800000000035003410000017N070518104700000000000103007180000000000000000000000000000000000000000200000000012848VIVIANE MORAES ALEXANDRINO              RUA JOAQUIM MOREIRA Nº 37              SEPETIBA    23545054RIO DE JANEIRO RJUNIAO UMB DOS CULTOS AFRO BRAS    30071810 000246
10231987175000168916200163100    000019043                    000190430000000000000109                     I0119043     30071800000000035003410000017N070518104700000000000103007180000000000000000000000000000000000000000100004277956726ROSANA OLIVEIRA GUEDES                  RUA GRACA MELLO N 640 APT 101 BLOCO 30 -CAVALCANTI -21381300RIO DE JANEIRO RJUNIAO UMB DOS CULTOS AFRO BRAS    30071810 000247
10231987175000168916200163100    000019042                    000190420000000000000109                     I0119042     30071800000000035003410000017N070518104700000000000103007180000000000000000000000000000000000000000100001972684710ALEXANDRE MALAQUIAS DE SOUSA P          AVENIDA NELSON DE AQUINO N 246 - COROA GCOROA GRANDE23825670ITAGUAI        RJUNIAO UMB DOS CULTOS AFRO BRAS    30071810 000248
10231987175000168916200163100    000019041                    000190410000000000000109                     I0119041     30071800000000035003410000017N070518104700000000000103007180000000000000000000000000000000000000000100014641727732DAVI SILVA BARBOSA LIMA                 TRAVESSA ANTONIO AARAO N 9              SEPETIBA - R23540030RIO DE JANEIRO RJUNIAO UMB DOS CULTOS AFRO BRAS    30071810 000249
