01REMESSA01COBRANCA       817800093673        União Umb dos Cultos Afro Bra341BANCO ITAU SA  080819                                                                                                                                                                                                                                                                                                      000001
10231987175000168817800093673    000049129                    000491290000000000000109                     I0249129     30091900000000040003410000017N100619105700000000000133009190000000000000000000000000000000000000000100009979098708WASHINGTON BENTO DA CUNHA               RUA ABAETEN 101,                        EDEN        25535190SAO JOAO DE MERRJUNIAO UMB DOS CULTOS AFRO BRAS    30091915 000002
21300920190000000000080                                                                                                                                                                                                                                                                                                                                                                                   000003
10231987175000168817800093673    000048601                    000486010000000000000109                     I3448601     30091900000000040003410000017N100619105700000000000133009190000000000000000000000000000000000000000100007775553790ANDRE BATISTA DO NASCIMENTO AR          RUA DOUTOR BERNARDINON 559, CASA 101 BLOPRACA SECA  21320020RIO DE JANEIRO RJUNIAO UMB DOS CULTOS AFRO BRAS    30091915 000004
21300920190000000000080                                                                                                                                                                                                                                                                                                                                                                                   000005
10231987175000168817800093673    000047688                    000476880000000000000109                     I0247688     30081900000000040003410000017N100619105700000000000133008190000000000000000000000000000000000000000100009979098708WASHINGTON BENTO DA CUNHA               RUA ABAETEN 101,                        EDEN        25535190SAO JOAO DE MERRJUNIAO UMB DOS CULTOS AFRO BRAS    30081915 000006
21300820190000000000080                                                                                                                                                                                                                                                                                                                                                                                   000007
10231987175000168817800093673    000047164                    000471640000000000000109                     I3447164     30081900000000040003410000017N100619105700000000000133008190000000000000000000000000000000000000000100007775553790ANDRE BATISTA DO NASCIMENTO AR          RUA DOUTOR BERNARDINON 559, CASA 101 BLOPRACA SECA  21320020RIO DE JANEIRO RJUNIAO UMB DOS CULTOS AFRO BRAS    30081915 000008
21300820190000000000080                                                                                                                                                                                                                                                                                                                                                                                   000009
10231987175000168817800093673    000047156                    000471560000000000000109                     I0247156     30081900000000040003410000017N100619105700000000000133008190000000000000000000000000000000000000000100038370999700JULIO ALEXANDRE FERREIRA                RUA BARAO DE JACUIN 254, CASA 16 FUNDOS OSWALDO CRUZ21550310RIO DE JANEIRO RJUNIAO UMB DOS CULTOS AFRO BRAS    30081915 000010
21300820190000000000080                                                                                                                                                                                                                                                                                                                                                                                   000011
10231987175000168817800093673    000047034                    000470340000000000000109                     I0247034     30081900000000040003410000017N100619105700000000000133008190000000000000000000000000000000000000000100008763637707JUSSARA SILVA DE ALBUQUERQUE            RUA ARGOSN 281, FUNDOS                  GUADALUPE   21660050RIO DE JANEIRO RJUNIAO UMB DOS CULTOS AFRO BRAS    30081915 000012
21300820190000000000080                                                                                                                                                                                                                                                                                                                                                                                   000013
10231987175000168817800093673    000046325                    000463250000000000000109                     I0246325     30071900000000040003410000017N100619105700000000000133007190000000000000000000000000000000000000000100081531095704ROSANA ALMEIDA SILVA                    RUA JOAQUIM MARIANO DE MOURA N 246,     PONTO CHIC  26032840NOVA IGUACU    RJUNIAO UMB DOS CULTOS AFRO BRAS    30071915 000014
21300720190000000000080                                                                                                                                                                                                                                                                                                                                                                                   000015
10231987175000168817800093673    000046257                    000462570000000000000109                     I0246257     30071900000000040003410000017N100619105700000000000133007190000000000000000000000000000000000000000100009979098708WASHINGTON BENTO DA CUNHA               RUA ABAETEN 101,                        EDEN        25535190SAO JOAO DE MERRJUNIAO UMB DOS CULTOS AFRO BRAS    30071915 000016
21300720190000000000080                                                                                                                                                                                                                                                                                                                                                                                   000017
10231987175000168817800093673    000046069                    000460690000000000000109                     I0246069     30071900000000040003410000017N100619105700000000000133007190000000000000000000000000000000000000000100000747523754CLAUDIARA TEIXEIRA DA SILVA             RUA CAMBUCIN 295, CASA 1 PORTAO DE GARAGMUQUECA     27140280BARRA DO PIRAI RJUNIAO UMB DOS CULTOS AFRO BRAS    30071915 000018
21300720190000000000080                                                                                                                                                                                                                                                                                                                                                                                   000019
10231987175000168817800093673    000045978                    000459780000000000000109                     I0245978     30071900000000040003410000017N100619105700000000000133007190000000000000000000000000000000000000000100090085310700ROSANGELA VILELA FERREIRA               RUA MATURACAN 380, LOTE 19 QUADRA R 1   PENHA CIRCUL21210360RIO DE JANEIRO RJUNIAO UMB DOS CULTOS AFRO BRAS    30071915 000020
21300720190000000000080                                                                                                                                                                                                                                                                                                                                                                                   000021
10231987175000168817800093673    000045741                    000457410000000000000109                     I0245741     30071900000000040003410000017N100619105700000000000133007190000000000000000000000000000000000000000100007775553790ANDRE BATISTA DO NASCIMENTO AR          RUA DOUTOR BERNARDINON 559, CASA 101 BLOPRACA SECA  21320020RIO DE JANEIRO RJUNIAO UMB DOS CULTOS AFRO BRAS    30071915 000022
21300720190000000000080                                                                                                                                                                                                                                                                                                                                                                                   000023
10231987175000168817800093673    000045733                    000457330000000000000109                     I0245733     30071900000000040003410000017N100619105700000000000133007190000000000000000000000000000000000000000100038370999700JULIO ALEXANDRE FERREIRA                RUA BARAO DE JACUIN 254, CASA 16 FUNDOS OSWALDO CRUZ21550310RIO DE JANEIRO RJUNIAO UMB DOS CULTOS AFRO BRAS    30071915 000024
21300720190000000000080                                                                                                                                                                                                                                                                                                                                                                                   000025
10231987175000168817800093673    000045611                    000456110000000000000109                     I0245611     30071900000000040003410000017N100619105700000000000133007190000000000000000000000000000000000000000100003341744738CASSIA GOMES CASTORINO                  RUA COMENDADOR CRISOSTOMO CRUZN 0, LOTE SANTA MARIA 26165400BELFORD ROXO   RJUNIAO UMB DOS CULTOS AFRO BRAS    30071915 000026
21300720190000000000080                                                                                                                                                                                                                                                                                                                                                                                   000027
10231987175000168817800093673    000045500                    000455000000000000000109                     I0245500     30071900000000040003410000017N100619105700000000000133007190000000000000000000000000000000000000000100076896960744MARIA LUCIA DE OLIVEIRA NUNES           AVENIDA DO CORRETOR N 116,              VILA ALIANCA21842340RIO DE JANEIRO RJUNIAO UMB DOS CULTOS AFRO BRAS    30071915 000028
21300720190000000000080                                                                                                                                                                                                                                                                                                                                                                                   000029
10231987175000168817800093673    000045498                    000454980000000000000109                     I0245498     30071900000000040003410000017N100619105700000000000133007190000000000000000000000000000000000000000100087969998704ROBERTO LUIZ MEDEIROS                   RUA OLIMPICON 0, LOTE 35 QUADRA 29      SAO FRANCISC26125215BELFORD ROXO   RJUNIAO UMB DOS CULTOS AFRO BRAS    30071915 000030
21300720190000000000080                                                                                                                                                                                                                                                                                                                                                                                   000031
10231987175000168817800093673    000045427                    000454270000000000000109                     I0245427     30071900000000040003410000017N100619105700000000000133007190000000000000000000000000000000000000000100053411200782ELZA MORAES DA SILVA                    RUA WALTER JORGE BRAGAN 19,             PARQUE TELES25581171SAO JOAO DE MERRJUNIAO UMB DOS CULTOS AFRO BRAS    30071915 000032
21300720190000000000080                                                                                                                                                                                                                                                                                                                                                                                   000033
9                                                                                                                                                                                                                                                                                                                                                                                                         000034
