01REMESSA01COBRANCA       817800093673        União Umb dos Cultos Afro Bra341BANCO ITAU SA  291018                                                                                                                                                                                                                                                                                                      000001
10231987175000168817800093673    000031317                    000313170000000000000109                     I0131317     20121800000000350003410000017N291018104700000000000102012180000000000000000000000000000000000000000100054590604787VANDA PAIVA                             RUA LUIZ JACINTO                        EDEN        25535161SAO JOAO DE MERRJUNIAO UMB DOS CULTOS AFRO BRAS    20121810 000002
10231987175000168817800093673    000031316                    000313160000000000000109                     I0131316     20121800000000350003410000017N291018104700000000000102012180000000000000000000000000000000000000000100007201355759MARIA EDILEUZA MENDES                   RUA ALTAMIRO BARONE                     VILA MAIA   26160480BELFORD ROXO   RJUNIAO UMB DOS CULTOS AFRO BRAS    20121810 000003
10231987175000168817800093673    000031315                    000313150000000000000109                     I0131315     20121800000000350003410000017N291018104700000000000102012180000000000000000000000000000000000000000100071056319709LAURECI DOS SANTOS                      RUA CANDIDO BENICIO                     PRACA SECA  21321801DUQUE DE CAXIASRJUNIAO UMB DOS CULTOS AFRO BRAS    20121810 000004
10231987175000168817800093673    000031314                    000313140000000000000109                     I0131314     20121800000000350003410000017N291018104700000000000102012180000000000000000000000000000000000000000100059099747772EULINA LUCIA RODRIGUES DE SOUZ          RUA XAVIER DOS PASSAROS                 PIEDADE     20740330RIO DE JANEIRO RJUNIAO UMB DOS CULTOS AFRO BRAS    20121810 000005
10231987175000168817800093673    000031313                    000313130000000000000109                     I0131313     20121800000000350003410000017N291018104700000000000102012180000000000000000000000000000000000000000100051091895791NEUSA MARIA FRANCISCO                   RUA: CONDESSA BELMONTE                  ENGENHO NOVO20710280RIO DE JANEIRO RJUNIAO UMB DOS CULTOS AFRO BRAS    20121810 000006
10231987175000168817800093673    000031312                    000313120000000000000109                     I0131312     20121800000000350003410000017N291018104700000000000102012180000000000000000000000000000000000000000100000000000485ANTONIO DOS SANTOS PENNA                PRACA DO BANDOLIM                       CURICICA - J22780793RIO DE JANEIRO RJUNIAO UMB DOS CULTOS AFRO BRAS    20121810 000007
10231987175000168817800093673    000031311                    000313110000000000000109                     I0131311     20121800000000350003410000017N291018104700000000000102012180000000000000000000000000000000000000000100009116311787ETELVINA SOUZA DUARTE                   RUA DUBLIN                              PARQUE PAULI25261380RIO DE JANEIRO RJUNIAO UMB DOS CULTOS AFRO BRAS    20121810 000008
10231987175000168817800093673    000031310                    000313100000000000000109                     I0131310     20121800000000350003410000017N291018104700000000000102012180000000000000000000000000000000000000000100007309710746ROSA HELENA PINTO MANUEL                RUA CINCINATO CHAVES                    VISTA ALEGRE21236010RIO DE JANEIRO RJUNIAO UMB DOS CULTOS AFRO BRAS    20121810 000009
10231987175000168817800093673    000031309                    000313090000000000000109                     I0131309     20121800000000350003410000017N291018104700000000000102012180000000000000000000000000000000000000000100000000000000RAQUEL RODRIGUES SOBRAL DANTAS          RUA CAPITAO COUTO MENEZES               MADUREIRA   21310200RIO DE JANEIRO RJUNIAO UMB DOS CULTOS AFRO BRAS    20121810 000010
10231987175000168817800093673    000031308                    000313080000000000000109                     I0131308     20121800000000350003410000017N291018104700000000000102012180000000000000000000000000000000000000000100040442764715JUCIARA RODRIGUES DE OLIVEIRA           RUA MORRO DAS PEDRAS                    VILAR DOS TE25560370SAO JOAO DE MERRJUNIAO UMB DOS CULTOS AFRO BRAS    20121810 000011
10231987175000168817800093673    000031307                    000313070000000000000109                     I0131307     20121800000000350003410000017N291018104700000000000102012180000000000000000000000000000000000000000100003737351708TANIA PAULA DOS SANTOS                  RUA PREFEITO JOAO CARLOS VITAL          SEPETIBA    23540041RIO DE JANEIRO RJUNIAO UMB DOS CULTOS AFRO BRAS    20121810 000012
10231987175000168817800093673    000031306                    000313060000000000000109                     I0131306     20121800000000350003410000017N291018104700000000000102012180000000000000000000000000000000000000000100009839961721MARIO DE OLIVEIRA CARLOS                RUA BRAUNA                              JARDIM PRIMA25000000DUQUE DE CAXIASRJUNIAO UMB DOS CULTOS AFRO BRAS    20121810 000013
10231987175000168817800093673    000031305                    000313050000000000000109                     I0131305     20121800000000350003410000017N291018104700000000000102012180000000000000000000000000000000000000000100001057873705ADEMIR ANDRADE CUNHA                    RUA PACHECO DA ROCHA                    BENTO RIBEIR21555092RIO DE JANEIRO RJUNIAO UMB DOS CULTOS AFRO BRAS    20121810 000014
10231987175000168817800093673    000031304                    000313040000000000000109                     I0131304     20121800000000350003410000017N291018104700000000000102012180000000000000000000000000000000000000000100039341887704NORMA AYRES DA SILVA                    RUA VALENCA                             BAR DOS CAVA25015590DUQUE DE CAXIASRJUNIAO UMB DOS CULTOS AFRO BRAS    20121810 000015
10231987175000168817800093673    000031303                    000313030000000000000109                     I0131303     20121800000000350003410000017N291018104700000000000102012180000000000000000000000000000000000000000100011208480758MARIA ANTONIA KIFFER CORREA             AVENIDA MARECHAL HERMES                 VILA SAO LUI25065115DUQUE DE CAXIASRJUNIAO UMB DOS CULTOS AFRO BRAS    20121810 000016
10231987175000168817800093673    000031302                    000313020000000000000109                     I0131302     20121800000000350003410000017N291018104700000000000102012180000000000000000000000000000000000000000100000000000479HELENA ALVES BRAZ                       RUA JUTAI                               PERIQUITO   25025290DUQUE DE CAXIASRJUNIAO UMB DOS CULTOS AFRO BRAS    20121810 000017
10231987175000168817800093673    000031301                    000313010000000000000109                     I0131301     20121800000000350003410000017N291018104700000000000102012180000000000000000000000000000000000000000100088469212753NEIDE CARVALHO D ANGELO                 RUA GENERAL TRAUMATURGO                 VILA ROSARIO25040010DUQUE DE CAXIASRJUNIAO UMB DOS CULTOS AFRO BRAS    20121810 000018
10231987175000168817800093673    000031300                    000313000000000000000109                     I0131300     20121800000000350003410000017N291018104700000000000102012180000000000000000000000000000000000000000100001578595762CASSIA MARIA DE OLIVEIRA                RUA CEARA                               PIABETA     25932145MAGE           RJUNIAO UMB DOS CULTOS AFRO BRAS    20121810 000019
10231987175000168817800093673    000031299                    000312990000000000000109                     I0131299     20121800000000350003410000017N291018104700000000000102012180000000000000000000000000000000000000000100000000000000IVAN SOUZA DIAS                         RUA CARICO                              JARDIM METRO25575050SAO JOAO DE MERRJUNIAO UMB DOS CULTOS AFRO BRAS    20121810 000020
10231987175000168817800093673    000031298                    000312980000000000000109                     I0131298     20121800000000350003410000017N291018104700000000000102012180000000000000000000000000000000000000000100000000000000NEUZA MARIA MACHADO DA SILVA            RUA AUGUSTO SERGIO BOTELHO              BARRO BRANCO25267124DUQUE DE CAXIASRJUNIAO UMB DOS CULTOS AFRO BRAS    20121810 000021
10231987175000168817800093673    000031297                    000312970000000000000109                     I0131297     20121800000000350003410000017N291018104700000000000102012180000000000000000000000000000000000000000100001402504764ANTONIA PAULO DINIZ                     RUA C                                   SARACURUNA  22511300DUQUE DE CAXIASRJUNIAO UMB DOS CULTOS AFRO BRAS    20121810 000022
10231987175000168817800093673    000031296                    000312960000000000000109                     I0131296     20121800000000400003410000017N291018104700000000000102012180000000000000000000000000000000000000000100070030928753VIRGILANE COSTA DE SOUZA                RUA  GAMO                               GUARANI     25575380SAO JOAO DE MERRJUNIAO UMB DOS CULTOS AFRO BRAS    20121810 000023
10231987175000168817800093673    000031295                    000312950000000000000109                     I0131295     20121800000000350003410000017N291018104700000000000102012180000000000000000000000000000000000000000100028872878772JOSE TITO DOS SANTOS                    RUA: DA CARIDADE                        TAQUARA     25275010DUQUE DE CAXIASRJUNIAO UMB DOS CULTOS AFRO BRAS    20121810 000024
10231987175000168817800093673    000031294                    000312940000000000000109                     I0131294     20121800000000350003410000017N291018104700000000000102012180000000000000000000000000000000000000000100064891712791MOSENIRA DA SILVA COSTA                 RUA MARQUESA DE SANTOS                  VILA ROSARIO25040070DUQUE DE CAXIASRJUNIAO UMB DOS CULTOS AFRO BRAS    20121810 000025
10231987175000168817800093673    000031293                    000312930000000000000109                     I0131293     20121800000000350003410000017N291018104700000000000102012180000000000000000000000000000000000000000100059414731768LUCILA JESUS DE OLIVEIRA                ESTRADA CIRCULAR                        PQ SAO VICEN26172160BELFORD ROXO   RJUNIAO UMB DOS CULTOS AFRO BRAS    20121810 000026
10231987175000168817800093673    000031292                    000312920000000000000109                     I0131292     20121800000000350003410000017N291018104700000000000102012180000000000000000000000000000000000000000100000000000476EDINALVA MUNIZ VALENTIM                 AVENIDA RIO DE JANEIRO                  INCRA       23850220SEROPEDICA     RJUNIAO UMB DOS CULTOS AFRO BRAS    20121810 000027
10231987175000168817800093673    000031291                    000312910000000000000109                     I0131291     20121800000000350003410000017N291018104700000000000102012180000000000000000000000000000000000000000100035985291715ANGELA MARIA IBRAHIM                    ESTRADA: DO RIO PEQUENO                 TAQUARA     22723195RIO DE JANEIRO RJUNIAO UMB DOS CULTOS AFRO BRAS    20121810 000028
10231987175000168817800093673    000031290                    000312900000000000000109                     I0131290     20121800000000350003410000017N291018104700000000000102012180000000000000000000000000000000000000000100000000000466LEONIRIA MARIA DE OLIVEIRA PER          ESTRADA DO CONDE                        VILA PAULINE26170210BELFORD ROXO   RJUNIAO UMB DOS CULTOS AFRO BRAS    20121810 000029
10231987175000168817800093673    000031289                    000312890000000000000109                     I0131289     20121800000000350003410000017N291018104700000000000102012180000000000000000000000000000000000000000100000080766773SONIA CRISTINA DA SILVA ALVES           RUA AMARO AGUIAR BRANDAO                BECO MAUA - 26193600BELFORD ROXO   RJUNIAO UMB DOS CULTOS AFRO BRAS    20121810 000030
10231987175000168817800093673    000031288                    000312880000000000000109                     I0131288     20121800000000400003410000017N291018104700000000000102012180000000000000000000000000000000000000000100005201586791WILSON MANOEL DE SOUZA                  RUA PERNANBUCO                          SANTA CRUZ D25251030DUQUE DE CAXIASRJUNIAO UMB DOS CULTOS AFRO BRAS    20121810 000031
10231987175000168817800093673    000031287                    000312870000000000000109                     I0131287     20121800000000350003410000017N291018104700000000000102012180000000000000000000000000000000000000000100002912019702JONER BORGES BARCELOS                   RUA OITO                                NOVA CAMPINA25000000DUQUE DE CAXIASRJUNIAO UMB DOS CULTOS AFRO BRAS    20121810 000032
10231987175000168817800093673    000031286                    000312860000000000000109                     I0131286     20121800000000350003410000017N291018104700000000000102012180000000000000000000000000000000000000000100075890801791ELENIRA FELICIO DE SOUZA                AVENIDA LEANDRO DA MOTA                 VILA SAO SEB25065175DUQUE DE CAXIASRJUNIAO UMB DOS CULTOS AFRO BRAS    20121810 000033
10231987175000168817800093673    000031285                    000312850000000000000109                     I0131285     20121800000000350003410000017N291018104700000000000102012180000000000000000000000000000000000000000100001637090765DEBORA VENTURA CESAR                    RUA TACOARI                             HELIOPOLIS  20765040RIO DE JANEIRO RJUNIAO UMB DOS CULTOS AFRO BRAS    20121810 000034
10231987175000168817800093673    000031284                    000312840000000000000109                     I0131284     20121800000000350003410000017N291018104700000000000102012180000000000000000000000000000000000000000100001488703760AGISELDA DE MENEZES MEDEIROS            RUA ITACARE                             VILAR DOS TE25560480SAO JOAO DE MERRJUNIAO UMB DOS CULTOS AFRO BRAS    20121810 000035
10231987175000168817800093673    000031283                    000312830000000000000109                     I0131283     20121800000000350003410000017N291018104700000000000102012180000000000000000000000000000000000000000100078815428704LUZINETE PINHO DE SA                    ESTRADA MANOEL FERREIRA CAMPAR          POSSE       26021060NOVA IGUACU    RJUNIAO UMB DOS CULTOS AFRO BRAS    20121810 000036
10231987175000168817800093673    000031282                    000312820000000000000109                     I0131282     20121800000000400003410000017N291018104700000000000102012180000000000000000000000000000000000000000100054291771720WALMIR DAS CHAGAS DE PAIVA              RUA EXPEDICIONARIO AQUINO DE ARAUJO     ENG DO PORTO25015100DUQUE DE CAXIASRJUNIAO UMB DOS CULTOS AFRO BRAS    20121810 000037
10231987175000168817800093673    000031281                    000312810000000000000109                     I0131281     20121800000000350003410000017N291018104700000000000102012180000000000000000000000000000000000000000100071221247700NADIA LUSIA DE ALMEIDA                  AVENIDA PREFEITO BRAULINO DE MATO REIS  VILA LEOPOLD25060445DUQUE DE CAXIASRJUNIAO UMB DOS CULTOS AFRO BRAS    20121810 000038
10231987175000168817800093673    000031280                    000312800000000000000109                     I0131280     20121800000000350003410000017N291018104700000000000102012180000000000000000000000000000000000000000100004418873767SANDRA REGINA DA SILVA                  AVENIDA: PERNAMBUCANA                   COELHO DA RO25555080SAO JOAO DE MERRJUNIAO UMB DOS CULTOS AFRO BRAS    20121810 000039
10231987175000168817800093673    000031279                    000312790000000000000109                     I0131279     20121800000000350003410000017N291018104700000000000102012180000000000000000000000000000000000000000100033943885704VALMIR FERREIRA                         RUA C,                                  VILAR DOS TE25565260SAO JOAO DE MERRJUNIAO UMB DOS CULTOS AFRO BRAS    20121810 000040
10231987175000168817800093673    000031278                    000312780000000000000109                     I0131278     20121800000000350003410000017N291018104700000000000102012180000000000000000000000000000000000000000100087955016734LINO FERNANDO DE CARVALHO PAES          RUA   MARIA AUGUSTA DA SILVA            CENTRO      25515040SAO JOAO DE MERRJUNIAO UMB DOS CULTOS AFRO BRAS    20121810 000041
10231987175000168817800093673    000031277                    000312770000000000000109                     I0131277     20121800000000350003410000017N291018104700000000000102012180000000000000000000000000000000000000000100098716000706CELIA ROSA SILVA DA CRUZ                RUA: CARAVELAS                          DR. LAUREANO25051230DUQUE DE CAXIASRJUNIAO UMB DOS CULTOS AFRO BRAS    20121810 000042
10231987175000168817800093673    000031276                    000312760000000000000109                     I0131276     20121800000000350003410000017N291018104700000000000102012180000000000000000000000000000000000000000100000000000366SUELI REGINA DA SILVA                   ESTRADA: DA FAZENDA                     JARDFIM ESPL26013470NOVA IGUACU    RJUNIAO UMB DOS CULTOS AFRO BRAS    20121810 000043
10231987175000168817800093673    000031275                    000312750000000000000109                     I0131275     20121800000000350003410000017N291018104700000000000102012180000000000000000000000000000000000000000100001925108783HELENA MOREIRA PESSOA                   RUA CAPIVARA                            SANTA CRUZ D25260180DUQUE DE CAXIASRJUNIAO UMB DOS CULTOS AFRO BRAS    20121810 000044
10231987175000168817800093673    000031274                    000312740000000000000109                     I0131274     20121800000000350003410000017N291018104700000000000102012180000000000000000000000000000000000000000100084904593715EURIDICE PRADO DA SILVA                 RUA MEXICANA                            JARDIM MERIT25555640SAO JOAO DE MERRJUNIAO UMB DOS CULTOS AFRO BRAS    20121810 000045
10231987175000168817800093673    000031273                    000312730000000000000109                     I0131273     20121800000000350003410000017N291018104700000000000102012180000000000000000000000000000000000000000100003756140792LUIZ HENRIQUE DINIZ SIMOES              RUA  BUCARESTE                          VIGARIO GERA21241250RIO DE JANEIRO RJUNIAO UMB DOS CULTOS AFRO BRAS    20121810 000046
10231987175000168817800093673    000031272                    000312720000000000000109                     I0131272     20121800000000350003410000017N291018104700000000000102012180000000000000000000000000000000000000000100042447941749MARIA NEIDE DE OLIVEIRA SILVA           RUA PROSPERIDADE                        PILAR       25230080DUQUE DE CAIXASRJUNIAO UMB DOS CULTOS AFRO BRAS    20121810 000047
10231987175000168817800093673    000031271                    000312710000000000000109                     I0131271     20121800000000380003410000017N291018104700000000000102012180000000000000000000000000000000000000000100000000003824REGINA CELIA ALMEIDA BASTOS             RUA DERMEVAL LESSA                      PAVUNA      21532330RIO DE JANEIRO RJUNIAO UMB DOS CULTOS AFRO BRAS    20121810 000048
10231987175000168817800093673    000031270                    000312700000000000000109                     I0131270     20121800000000350003410000017N291018104700000000000102012180000000000000000000000000000000000000000100007782014735TEREZINHA MARIA DOS SANTOS FER          RUA: UM                                 PARQUE PAULI25525260DUQUE DE CAXIASRJUNIAO UMB DOS CULTOS AFRO BRAS    20121810 000049
10231987175000168817800093673    000031269                    000312690000000000000109                     I0131269     20121800000000350003410000017N291018104700000000000102012180000000000000000000000000000000000000000100018780962572INALVA LAZARO DRUMOND                   AVENIDA MARECHAL RONDON                 RIACHUELO   20950071RIO DE JANEIRO RJUNIAO UMB DOS CULTOS AFRO BRAS    20121810 000050
10231987175000168817800093673    000031268                    000312680000000000000109                     I0131268     20121800000000350003410000017N291018104700000000000102012180000000000000000000000000000000000000000100001783778806MARIA LUIZA FERREIRA GODINHO C          ESTRADA DO BOIUNA                       TAQUARA - JA22723018RIO DE JANEIRO RJUNIAO UMB DOS CULTOS AFRO BRAS    20121810 000051
10231987175000168817800093673    000031267                    000312670000000000000109                     I0131267     20121800000000350003410000017N291018104700000000000102012180000000000000000000000000000000000000000100000911446710NELI MONTEIRO DE CASTRO                 RUA ROMILDO                             VAZ MARTINS 26290090RIO DE JANEIRO RJUNIAO UMB DOS CULTOS AFRO BRAS    20121810 000052
10231987175000168817800093673    000031266                    000312660000000000000109                     I0131266     20121800000000350003410000017N291018104700000000000102012180000000000000000000000000000000000000000100010058913700RAMON DO NASCIMENTO MANES               RUA LIGIA                               OLARIA      21073280RIO DE JANEIRO RJUNIAO UMB DOS CULTOS AFRO BRAS    20121810 000053
10231987175000168817800093673    000031265                    000312650000000000000109                     I0131265     20121800000000350003410000017N291018104700000000000102012180000000000000000000000000000000000000000100068469845772MARIA FRANCISCA DA SILVA                RUA GUARUJA                             GRAMACHO -JA25051090DUQUE DE CAXIASRJUNIAO UMB DOS CULTOS AFRO BRAS    20121810 000054
10231987175000168817800093673    000031264                    000312640000000000000109                     I0131264     20121800000000350003410000017N291018104700000000000102012180000000000000000000000000000000000000000100005137259705CRISTINA DE OLIVEIRA DA SILVA           AVENIDA CAMPO MOURAO                    JARDIM MARAV23031080GUARATIBA      RJUNIAO UMB DOS CULTOS AFRO BRAS    20121810 000055
10231987175000168817800093673    000031263                    000312630000000000000109                     I0131263     20121800000000350003410000017N291018104700000000000102012180000000000000000000000000000000000000000100055720277749MARIA DE FATIMA PEREIRA                 RUA CORONEL SEROA DA MOTA               SEPETIBA    23535040RIO DE JANEIRO RJUNIAO UMB DOS CULTOS AFRO BRAS    20121810 000056
10231987175000168817800093673    000031262                    000312620000000000000109                     I0131262     20121800000000400003410000017N291018104700000000000102012180000000000000000000000000000000000000000100097225959700MARCOS ANTONIO FERREIRA SOARES          RUA BERNARDO DE VASCONCELOS             REALENGO    21715250RIO DE JANEIRO RJUNIAO UMB DOS CULTOS AFRO BRAS    20121810 000057
10231987175000168817800093673    000031261                    000312610000000000000109                     I0131261     20121800000000350003410000017N291018104700000000000102012180000000000000000000000000000000000000000100004153245720NADIA MARIA BRAZ DOS SANTOS             RUA: PADRE ROBERTO SARA                 PQ. LAFAIETE25015310DUQUE DE CAXIASRJUNIAO UMB DOS CULTOS AFRO BRAS    20121810 000058
10231987175000168817800093673    000031260                    000312600000000000000109                     I0131260     20121800000000350003410000017N291018104700000000000102012180000000000000000000000000000000000000000100038605783753DJANIRA DOS SANTOS                      RUA: CACEQUI                            BRAS DE PINA21210760RIO DE JANEIRO RJUNIAO UMB DOS CULTOS AFRO BRAS    20121810 000059
10231987175000168817800093673    000031259                    000312590000000000000109                     I0131259     20121800000000350003410000017N291018104700000000000102012180000000000000000000000000000000000000000100059198338749IRACEMA ADELL ALVES FERNANDES           RUA: VAZ LOBO                           VAZ LOBO    21361030RIO DE JANEIRO RJUNIAO UMB DOS CULTOS AFRO BRAS    20121810 000060
10231987175000168817800093673    000031258                    000312580000000000000109                     I0131258     20121800000000350003410000017N291018104700000000000102012180000000000000000000000000000000000000000100079469825772VICTOR FRANCISCO PEREIRA NETO           RUA YZ                                  JARDIM ANHAN25000000DUQUE DE CAXIASRJUNIAO UMB DOS CULTOS AFRO BRAS    20121810 000061
10231987175000168817800093673    000031257                    000312570000000000000109                     I0131257     20121800000000350003410000017N291018104700000000000102012180000000000000000000000000000000000000000100004751333747CARLOS EDUARDO DE SOUZA ALVES           RUA: URANOS                             BONSUCESSO  21060070RIO DE JANEIRO RJUNIAO UMB DOS CULTOS AFRO BRAS    20121810 000062
10231987175000168817800093673    000031256                    000312560000000000000109                     I0131256     20121800000000350003410000017N291018104700000000000102012180000000000000000000000000000000000000000100054318335704JANE DA COSTA MATTOS                    RUA AMANDIU                             IRAJA       21371440RIO DE JANEIRO RJUNIAO UMB DOS CULTOS AFRO BRAS    20121810 000063
10231987175000168817800093673    000031255                    000312550000000000000109                     I0131255     20121800000000350003410000017N291018104700000000000102012180000000000000000000000000000000000000000100003248430702CRISTIANA ROSA DE OLIVEIRA              ESTRADA: DA PORTEIRA                    JARDIM MAR  23821140ITAGUAI        RJUNIAO UMB DOS CULTOS AFRO BRAS    20121810 000064
10231987175000168817800093673    000031254                    000312540000000000000109                     I0131254     20121800000000400003410000017N291018104700000000000102012180000000000000000000000000000000000000000100000583249760MARLY FERREIRA JUSTO                    AVENIDA HENRIQUE VALADARES              PARQUE LAFAI25010302DUQUE DE CAXIASRJUNIAO UMB DOS CULTOS AFRO BRAS    20121810 000065
10231987175000168817800093673    000031253                    000312530000000000000109                     I0131253     20121800000000350003410000017N291018104700000000000102012180000000000000000000000000000000000000000100007474273721CLARINDO DE MEDEIROS                    RUA SAO MARCOS                          VILAR DOS TE25561220SAO JOAO DE MERRJUNIAO UMB DOS CULTOS AFRO BRAS    20121810 000066
10231987175000168817800093673    000031252                    000312520000000000000109                     I0131252     20121800000000350003410000017N291018104700000000000102012180000000000000000000000000000000000000000100003386212700ANDRE LUIZ DINIZ CARDOSO                RUA CORDOVIL,                           PARADA DE LU21250450RIO DE JANEIRO RJUNIAO UMB DOS CULTOS AFRO BRAS    20121810 000067
10231987175000168817800093673    000031251                    000312510000000000000109                     I0131251     20121800000000350003410000017N291018104700000000000102012180000000000000000000000000000000000000000100082432244753GEORGETE DE OLIVEIRA PINHEIRO           RUA DOS CAQUIZEIROS                     COSMOS      23056070RIO DE JANEIRO RJUNIAO UMB DOS CULTOS AFRO BRAS    20121810 000068
10231987175000168817800093673    000031250                    000312500000000000000109                     I0131250     20121800000000350003410000017N291018104700000000000102012180000000000000000000000000000000000000000100022023461715SAULO EMMANUEL FERREIRA GUEDES          AVENIDA: VICENTE DE CARVALHO            VICENTE DE C21210003RIO DE JANEIRO RJUNIAO UMB DOS CULTOS AFRO BRAS    20121810 000069
10231987175000168817800093673    000031249                    000312490000000000000109                     I0131249     20121800000000350003410000017N291018104700000000000102012180000000000000000000000000000000000000000100041216989753CARMEM VIANA DE JESUS                   RUA DAS TULIPAS                         CIDADE DOS M25235040DUQUE DE CAXIASRJUNIAO UMB DOS CULTOS AFRO BRAS    20121810 000070
10231987175000168817800093673    000031248                    000312480000000000000109                     I0131248     20121800000000350003410000017N291018104700000000000102012180000000000000000000000000000000000000000100087683431753MARINEIDE DOS SANTOS GUIMARAES          RUA: ERNESTO CARDOSO                    CENTRO - CHA26521450NILOPOLIS      RJUNIAO UMB DOS CULTOS AFRO BRAS    20121810 000071
10231987175000168817800093673    000031247                    000312470000000000000109                     I0131247     20121800000000350003410000017N291018104700000000000102012180000000000000000000000000000000000000000100007446571721ANDREA GUEDES PINHEIRO GOMES            RUA CATARINA SANTANA                    CABUCU      26291245NILOPOLIS      RJUNIAO UMB DOS CULTOS AFRO BRAS    20121810 000072
10231987175000168817800093673    000031246                    000312460000000000000109                     I0131246     20121800000000350003410000017N291018104700000000000102012180000000000000000000000000000000000000000100005455733788MARIA DA CONCEICAO VIEIRA MEND          RUA LAPENIA                             JARDIM REDEN26110270BELFORD ROXO   RJUNIAO UMB DOS CULTOS AFRO BRAS    20121810 000073
10231987175000168817800093673    000031245                    000312450000000000000109                     I0131245     20121800000000350003410000017N291018104700000000000102012180000000000000000000000000000000000000000100038947986704LUIZ ALBERTO SEIXAS DA SILVA            RUA HELIANTO                            PADRE MIGUEL21775090RIO DE JANEIRO RJUNIAO UMB DOS CULTOS AFRO BRAS    20121810 000074
10231987175000168817800093673    000031244                    000312440000000000000109                     I0131244     20121800000000350003410000017N291018104700000000000102012180000000000000000000000000000000000000000100092014950725ROSIMERE LUCIA DOS SANTOS               RUA ALICE TIBIRICA                      PENHA       21230354RIO DE JANEIRO RJUNIAO UMB DOS CULTOS AFRO BRAS    20121810 000075
10231987175000168817800093673    000031243                    000312430000000000000109                     I0131243     20121800000000350003410000017N291018104700000000000102012180000000000000000000000000000000000000000100051393905749FRANCISCA MOURA BARREIRA                RUA: PORTO RICO                         VIGARIO GERA21241200RIO DE JANEIRO RJUNIAO UMB DOS CULTOS AFRO BRAS    20121810 000076
10231987175000168817800093673    000031242                    000312420000000000000109                     I0131242     20121800000000350003410000017N291018104700000000000102012180000000000000000000000000000000000000000100000939896796SHIRLEI ARAUJO DO CARMO RODRIG          RUA PATIO DA ESTACAO                    COSTA BARROS21532170RIO DE JANEIRO RJUNIAO UMB DOS CULTOS AFRO BRAS    20121810 000077
10231987175000168817800093673    000031241                    000312410000000000000109                     I0131241     20121800000000350003410000017N291018104700000000000102012180000000000000000000000000000000000000000100086851713772JOSE CARLOS ANTONIO DE CAMPOS           ESTRADA DO PILAR                        PILAR       20785200RIO DE JANEIRO RJUNIAO UMB DOS CULTOS AFRO BRAS    20121810 000078
10231987175000168817800093673    000031240                    000312400000000000000109                     I0131240     20121800000000350003410000017N291018104700000000000102012180000000000000000000000000000000000000000100081478143720JOAO BATISTA MARQUES                    RUA: DIONEIA                            ROCINHA / GA22451330RIO DE JANEIRO RJUNIAO UMB DOS CULTOS AFRO BRAS    20121810 000079
10231987175000168817800093673    000031239                    000312390000000000000109                     I0131239     20121800000000350003410000017N291018104700000000000102012180000000000000000000000000000000000000000100059195711791ELOISA HELENA PEREIRA NUNES             RUA BOAIACA                             BENTO RIBEIR21331600RIO DE JANEIRO RJUNIAO UMB DOS CULTOS AFRO BRAS    20121810 000080
10231987175000168817800093673    000031238                    000312380000000000000109                     I0131238     20121800000000350003410000017N291018104700000000000102012180000000000000000000000000000000000000000100000203243757AMARILDO FLECHAS MAGALHAES BAT          RUA ALDEBARAM                           JARDIM SILVA26195370BELFORD ROXO   RJUNIAO UMB DOS CULTOS AFRO BRAS    20121810 000081
10231987175000168817800093673    000031237                    000312370000000000000109                     I0131237     20121800000000350003410000017N291018104700000000000102012180000000000000000000000000000000000000000100042478154749LENIRA DOS SANTOS MORAIS LUGO           RUA: ANTONIO JOAO                       CORDOVIL    21250150RIO DE JANEIRO RJUNIAO UMB DOS CULTOS AFRO BRAS    20121810 000082
10231987175000168817800093673    000031236                    000312360000000000000109                     I0131236     20121800000000350003410000017N291018104700000000000102012180000000000000000000000000000000000000000100000675108764MARIA CRISTINA SANTOS GENEROSO          RUA  APODI                              PARQUE  SUEC26187300BELFORD ROXO   RJUNIAO UMB DOS CULTOS AFRO BRAS    20121810 000083
10231987175000168817800093673    000031235                    000312350000000000000109                     I0131235     20121800000000350003410000017N291018104700000000000102012180000000000000000000000000000000000000000100004473869718ELIANA ABILIO PASTOR                    RUA: AMAPA                              JARDIM GRAMA25056110DUQUE DE CAXIASRJUNIAO UMB DOS CULTOS AFRO BRAS    20121810 000084
10231987175000168817800093673    000031234                    000312340000000000000109                     I0131234     20121800000000350003410000017N291018104700000000000102012180000000000000000000000000000000000000000100058500677791ROSANE ALVES DA SILVA                   RUA: CARLOS XAVIER                      OSVALDO CRUZ21310000RIO DE JANEIRO RJUNIAO UMB DOS CULTOS AFRO BRAS    20121810 000085
10231987175000168817800093673    000031233                    000312330000000000000109                     I0131233     20121800000000350003410000017N291018104700000000000102012180000000000000000000000000000000000000000100063538369704VERA LUCIA SOARES CONCEICAO DE          RUA CARALUNA                            GUARATIBA - 23032070RIO DE JANEIRO RJUNIAO UMB DOS CULTOS AFRO BRAS    20121810 000086
10231987175000168817800093673    000031232                    000312320000000000000109                     I0131232     20121800000000400003410000017N291018104700000000000102012180000000000000000000000000000000000000000100055715907772ISVALDETE LIMA                          RUA: JABOATAO                           VILA ROSARIO25041020DUQUE DE CAXIASRJUNIAO UMB DOS CULTOS AFRO BRAS    20121810 000087
10231987175000168817800093673    000031231                    000312310000000000000109                     I0131231     20121800000000350003410000017N291018104700000000000102012180000000000000000000000000000000000000000100000000000000DARLI ROCHA DO PRADO FERREIRA           RUA MONJOLO                             ILHA DO GOVE21930376RIO DE JANEIRO RJUNIAO UMB DOS CULTOS AFRO BRAS    20121810 000088
10231987175000168817800093673    000031230                    000312300000000000000109                     I0131230     20121800000000350003410000017N291018104700000000000102012180000000000000000000000000000000000000000100000879400781DEBORA NANCY DA SILVA COELHO            RUA OSCAR                               MIGUEL COUTO26145210NOVA IGUACU    RJUNIAO UMB DOS CULTOS AFRO BRAS    20121810 000089
10231987175000168817800093673    000031229                    000312290000000000000109                     I0131229     20121800000000350003410000017N291018104700000000000102012180000000000000000000000000000000000000000100063712954700SUELHIR MARIA LAURIANO DA SILV          RUA: PINTOR LEANDRO JOAQUIM             FREGUESIA - 22770650RIO DE JANEIRO RJUNIAO UMB DOS CULTOS AFRO BRAS    20121810 000090
10231987175000168817800093673    000031228                    000312280000000000000109                     I0131228     20121800000000350003410000017N291018104700000000000102012180000000000000000000000000000000000000000100074192523787RUTH DE OLIVEIRA RAMOS                  RUA DONATELO                            PRAIA DA BRI23028210RIO DE JANEIRO RJUNIAO UMB DOS CULTOS AFRO BRAS    20121810 000091
10231987175000168817800093673    000031227                    000312270000000000000109                     I0131227     20121800000000400003410000017N291018104700000000000102012180000000000000000000000000000000000000000100002520223782LUCEMILDA DOS SANTOS ALVES              AVENIDA ROBERTO SILVEIRA                OLINDA      26545770NILOPOLIS      RJUNIAO UMB DOS CULTOS AFRO BRAS    20121810 000092
10231987175000168817800093673    000031226                    000312260000000000000109                     I0131226     20121800000000350003410000017N291018104700000000000102012180000000000000000000000000000000000000000100003408195706MONICA VALERIA COSTA BARAUNA            AVENDIA CARNAUBEIRA                     GUARATIBA   23032080RIO DE JANEIRO RJUNIAO UMB DOS CULTOS AFRO BRAS    20121810 000093
10231987175000168817800093673    000031225                    000312250000000000000109                     I0131225     20121800000000350003410000017N291018104700000000000102012180000000000000000000000000000000000000000100001132984718JANE DA SILVA SANTOS                    RUA: ARARIBOIA                          SANTA LUCIA 25271370DUQUE DE CAXIASRJUNIAO UMB DOS CULTOS AFRO BRAS    20121810 000094
10231987175000168817800093673    000031224                    000312240000000000000109                     I0131224     20121800000000350003410000017N291018104700000000000102012180000000000000000000000000000000000000000100000000000360NIZIA DE OLIVEIRA GLORIA                RUA: MARQUES DE MARICA                  VILA LEOPOLD25030480DUQUE DE CAXIASRJUNIAO UMB DOS CULTOS AFRO BRAS    20121810 000095
10231987175000168817800093673    000031223                    000312230000000000000109                     I0131223     20121800000000350003410000017N291018104700000000000102012180000000000000000000000000000000000000000100054196159753FRANCISCA DAVI DE OLIVEIRA              AVENIDA GILKA MACHADO                   RECREIO DO B22795570RIO DE JANEIRO RJUNIAO UMB DOS CULTOS AFRO BRAS    20121810 000096
10231987175000168817800093673    000031222                    000312220000000000000109                     I0131222     20121800000000350003410000017N291018104700000000000102012180000000000000000000000000000000000000000100053699394700UBIRAJARA PEREIRA FRANCO                AV. BRASIL                              IRAJA       21230240RIO DE JANEIRO RJUNIAO UMB DOS CULTOS AFRO BRAS    20121810 000097
10231987175000168817800093673    000031221                    000312210000000000000109                     I0131221     20121800000000350003410000017N291018104700000000000102012180000000000000000000000000000000000000000100030011370700HELENA CAVALCANTE MARQUES               RUA DOUTOR PASSOS                       MADUREIRA   21310160RIO DE JANEIRO RJUNIAO UMB DOS CULTOS AFRO BRAS    20121810 000098
10231987175000168817800093673    000031220                    000312200000000000000109                     I0131220     20121800000000350003410000017N291018104700000000000102012180000000000000000000000000000000000000000100093431619720GUILHERME LUIZ BASILIO                  RUA SOUTO CARVALHO                      ENGENHO NOVO20950310RIO DE JANEIRO RJUNIAO UMB DOS CULTOS AFRO BRAS    20121810 000099
10231987175000168817800093673    000031219                    000312190000000000000109                     I0131219     20121800000000350003410000017N291018104700000000000102012180000000000000000000000000000000000000000100090021177791MARIA CRISTINA SOUZA DE OLIVEI          RUA DA GLORIA                           VILA LEOPOLD25060240DUQUE DE CAXIASRJUNIAO UMB DOS CULTOS AFRO BRAS    20121810 000100
10231987175000168817800093673    000031218                    000312180000000000000109                     I0131218     20121800000000350003410000017N291018104700000000000102012180000000000000000000000000000000000000000100065072502791GENILDA PEREIRA DA SILVA                RUA: SILVA PEIXOTO                      OUTEIRO     26183565BELFORD ROXO   RJUNIAO UMB DOS CULTOS AFRO BRAS    20121810 000101
10231987175000168817800093673    000031217                    000312170000000000000109                     I0131217     20121800000000350003410000017N291018104700000000000102012180000000000000000000000000000000000000000100088188710725MARIA DE NAZARETH DA COSTA SAN          RUA: AURIZONA                           CAMPO GRANDE23095010RIO DE JANEIRO RJUNIAO UMB DOS CULTOS AFRO BRAS    20121810 000102
10231987175000168817800093673    000031216                    000312160000000000000109                     I0131216     20121800000000350003410000017N291018104700000000000102012180000000000000000000000000000000000000000100028031342768ODILA RIBEIRO MARTINS                   RUA ITAPORE                             VILAR DOS TE25560490SAO JOAO DE MERRJUNIAO UMB DOS CULTOS AFRO BRAS    20121810 000103
10231987175000168817800093673    000031215                    000312150000000000000109                     I0131215     20121800000000350003410000017N291018104700000000000102012180000000000000000000000000000000000000000100075037017734ORLY PEREIRA DE AZEVEDO                 RUA BUTUCARAI                           CAMPOS ELISI00000000DUQUE DE CAXIASRJUNIAO UMB DOS CULTOS AFRO BRAS    20121810 000104
10231987175000168817800093673    000031214                    000312140000000000000109                     I0131214     20121800000000400003410000017N291018104700000000000102012180000000000000000000000000000000000000000100075425114753MONICA FRANGELLI TORRES DOERR           RUA MARIO BARBEDO                       VILA VALQUEI24536728RIO DE JANEIRO RJUNIAO UMB DOS CULTOS AFRO BRAS    20121810 000105
10231987175000168817800093673    000031213                    000312130000000000000109                     I0131213     20121800000000350003410000017N291018104700000000000102012180000000000000000000000000000000000000000100000000000000CILEIDE REGLE RAPOUZO                   RUA DOS ANDRADA                         SARAPUI     25050520DUQUE DE CAXIASRJUNIAO UMB DOS CULTOS AFRO BRAS    20121810 000106
10231987175000168817800093673    000031212                    000312120000000000000109                     I0131212     20121800000000350003410000017N291018104700000000000102012180000000000000000000000000000000000000000100000000000356SANDRA BAPTISTA DA SILVA                RUA: CONGONHAS DO NORTE                 JARDIM NOVA 23047560RIO DE JANEIRO RJUNIAO UMB DOS CULTOS AFRO BRAS    20121810 000107
10231987175000168817800093673    000031211                    000312110000000000000109                     I0131211     20121800000000350003410000017N291018104700000000000102012180000000000000000000000000000000000000000100000000000000ELIZABETH GANTERT DA ROCHA GUI          RUA ADRIANA                             VAL VERDE - 26351140NOVA IGUACU    RJUNIAO UMB DOS CULTOS AFRO BRAS    20121810 000108
10231987175000168817800093673    000031210                    000312100000000000000109                     I0131210     20121800000000350003410000017N291018104700000000000102012180000000000000000000000000000000000000000100000000000354MARIA DAS DORES DA SILVA                RUA INACIO ACIOLI                       PENHA       21210260RIO DE JANEIRO RJUNIAO UMB DOS CULTOS AFRO BRAS    20121810 000109
10231987175000168817800093673    000031209                    000312090000000000000109                     I0131209     20121800000000350003410000017N291018104700000000000102012180000000000000000000000000000000000000000100054608066749MARCIA GONCALVES LENCASTRE              RUA: NOVO HORIZONTE                     SEPETIBA    23540133RIO DE JANEIRO RJUNIAO UMB DOS CULTOS AFRO BRAS    20121810 000110
10231987175000168817800093673    000031208                    000312080000000000000109                     I0131208     20121800000000350003410000017N291018104700000000000102012180000000000000000000000000000000000000000100000000000354DANIELI LUNA DOS SANTOS                 RUA ITUMBIARA                           IPATINGA - C23093410RIO DE JANEIRO RJUNIAO UMB DOS CULTOS AFRO BRAS    20121810 000111
10231987175000168817800093673    000031207                    000312070000000000000109                     I0131207     20121800000000350003410000017N291018104700000000000102012180000000000000000000000000000000000000000100010078178797ALINE CORREA SOUZA                      AVENIDA PILAR DO SUL                    GUARATIBA   23033160RIO DE JANEIRO RJUNIAO UMB DOS CULTOS AFRO BRAS    20121810 000112
10231987175000168817800093673    000031206                    000312060000000000000109                     I0131206     20121800000000400003410000017N291018104700000000000102012180000000000000000000000000000000000000000100023596937787NOEMIA ARMINDA DE SEIXAS                RUA FRANCISCA ZIEZE                     PILARES     20750040RIO DE JANEIRO RJUNIAO UMB DOS CULTOS AFRO BRAS    20121810 000113
10231987175000168817800093673    000031205                    000312050000000000000109                     I0131205     20121800000000350003410000017N291018104700000000000102012180000000000000000000000000000000000000000100001230614745LUIZ ANTONIO MARQUES TONDATO            RUA 3                                   IPIRANGA    00000000RIO DE JANEIRO RJUNIAO UMB DOS CULTOS AFRO BRAS    20121810 000114
10231987175000168817800093673    000031204                    000312040000000000000109                     I0131204     20121800000000350003410000017N291018104700000000000102012180000000000000000000000000000000000000000100092650716720ANDRE LUIS ALMEIDA SOUZA                RUA CAIMIRIM                            SANTA TEREZI26555050BELFORD ROXO   RJUNIAO UMB DOS CULTOS AFRO BRAS    20121810 000115
10231987175000168817800093673    000031203                    000312030000000000000109                     I0131203     20121800000000350003410000017N291018104700000000000102012180000000000000000000000000000000000000000100044108680715MARIA DA PENHA PEREIRA DOS SAN          RUA LUCIO TAVARES                       CENTRO      26530060NILOPOLIS      RJUNIAO UMB DOS CULTOS AFRO BRAS    20121810 000116
10231987175000168817800093673    000031202                    000312020000000000000109                     I0131202     20121800000000380003410000017N291018104700000000000102012180000000000000000000000000000000000000000100073871729787RENATO GOMES SILVA                      RUA JURIPIRANGA                         COSMOS      23060020RIO DE JANEIRO RJUNIAO UMB DOS CULTOS AFRO BRAS    20121810 000117
10231987175000168817800093673    000031201                    000312010000000000000109                     I0131201     20121800000000350003410000017N291018104700000000000102012180000000000000000000000000000000000000000100030402808720NILZA AGUILERA NUNES DA CUNHA           RUA: DIVINO SALVADOR                    PIEDADE     20756210RIO DE JANEIRO RJUNIAO UMB DOS CULTOS AFRO BRAS    20121810 000118
10231987175000168817800093673    000031200                    000312000000000000000109                     I0131200     20121800000000350003410000017N291018104700000000000102012180000000000000000000000000000000000000000100002330426798MARIA ALVES FERREIRA                    RUA: ANTONIO JACINTO                    COMENDADOR S26280700NOVA IGUACU    RJUNIAO UMB DOS CULTOS AFRO BRAS    20121810 000119
10231987175000168817800093673    000031199                    000311990000000000000109                     I0131199     20121800000000360003410000017N291018104700000000000102012180000000000000000000000000000000000000000100083441271734NAELSON MAGALHAES DE AVELLAR            RUA ONZE                                GUANDU L    23560778SANTA CRUZ     RJUNIAO UMB DOS CULTOS AFRO BRAS    20121810 000120
10231987175000168817800093673    000031198                    000311980000000000000109                     I0131198     20121800000000350003410000017N291018104700000000000102012180000000000000000000000000000000000000000100010084300728RODRIGO ALVES DE PINHO                  RUA JOVITA FEITOSA                      VILA SAO JUD25243570DUQUE DE CAXIASRJUNIAO UMB DOS CULTOS AFRO BRAS    20121810 000121
10231987175000168817800093673    000031197                    000311970000000000000109                     I0131197     20121800000000350003410000017N291018104700000000000102012180000000000000000000000000000000000000000100005363118700VALDECI LIMA DA COSTA                   RUA: CRATO                              PENHA CIRCUL21210420RIO DE JANEIRO RJUNIAO UMB DOS CULTOS AFRO BRAS    20121810 000122
10231987175000168817800093673    000031196                    000311960000000000000109                     I0131196     20121800000000350003410000017N291018104700000000000102012180000000000000000000000000000000000000000100008885121713MARIA DA CONCEICAO PINTO REIS           RUA SERGIO BERNARDINO                   PRATA       23535135SEPETIBA       RJUNIAO UMB DOS CULTOS AFRO BRAS    20121810 000123
10231987175000168817800093673    000031195                    000311950000000000000109                     I0131195     20121800000000350003410000017N291018104700000000000102012180000000000000000000000000000000000000000100091225829787EDNA LUIZA MARINHO SOUTINHO             RUA QUIRIRIM                            VILA VALQUEI21330650RIO DE JANEIRO RJUNIAO UMB DOS CULTOS AFRO BRAS    20121810 000124
10231987175000168817800093673    000031194                    000311940000000000000109                     I0131194     20121800000000350003410000017N291018104700000000000102012180000000000000000000000000000000000000000100060052830730PAULO CESAR BARRETO ALVES               RUA ANGELO DOS REIS                     TIJUCA      20531010RIO DE JANEIRO RJUNIAO UMB DOS CULTOS AFRO BRAS    20121810 000125
10231987175000168817800093673    000031193                    000311930000000000000109                     I0131193     20121800000000350003410000017N291018104700000000000102012180000000000000000000000000000000000000000100000615134742CONCEICAO DE SOUZA CAPITANO             RUA MECA                                SAO BENEDITO26022540NOVA IGUACU    RJUNIAO UMB DOS CULTOS AFRO BRAS    20121810 000126
10231987175000168817800093673    000031192                    000311920000000000000109                     I0131192     20121800000000350003410000017N291018104700000000000102012180000000000000000000000000000000000000000100066428220725AMELIA CORREA MESQUITA                  RUA BERNARDO PERES                      ITAUNA      24473060SAO GONCALO    RJUNIAO UMB DOS CULTOS AFRO BRAS    20121810 000127
10231987175000168817800093673    000031191                    000311910000000000000109                     I0131191     20121800000000350003410000017N291018104700000000000102012180000000000000000000000000000000000000000100000000000344SEBASTIAO PAULO PINHO VIEIRA            RUA HIDELGARDO DE NORONHA               ARNALDO EUGE23016180CAMPO GRANDE   RJUNIAO UMB DOS CULTOS AFRO BRAS    20121810 000128
10231987175000168817800093673    000031190                    000311900000000000000109                     I0131190     20121800000000350003410000017N291018104700000000000102012180000000000000000000000000000000000000000100004470061778EVANDRO DE OLIVEIRA PIO                 AVENIDA CORONEL RAIMUNDO SAMPAIO        VILA SAO JOA25570393SAO JOAO DE MERRJUNIAO UMB DOS CULTOS AFRO BRAS    20121810 000129
10231987175000168817800093673    000031189                    000311890000000000000109                     I0131189     20121800000000400003410000017N291018104700000000000102012180000000000000000000000000000000000000000100000000000344MONALISA DE ALMEIDA CARVALHO            RUA NOSSA SENHORA DA PAZ                SANTA CECILI26130660BELFORD ROXO   RJUNIAO UMB DOS CULTOS AFRO BRAS    20121810 000130
10231987175000168817800093673    000031188                    000311880000000000000109                     I0131188     20121800000000350003410000017N291018104700000000000102012180000000000000000000000000000000000000000100001192135750CREUZA MARIA DA CONCEICAO               RUA BENEDITO LACERDA                    VILA CORCUND23071340CAMPO GRANDE   RJUNIAO UMB DOS CULTOS AFRO BRAS    20121810 000131
10231987175000168817800093673    000031187                    000311870000000000000109                     I0131187     20121800000000350003410000017N291018104700000000000102012180000000000000000000000000000000000000000100003601205718MARIA APARECIDA FERREIRA                RUA NOE MOREIRA DE NOBREGA              PARQUE RESID26032640NOVA IGUACU    RJUNIAO UMB DOS CULTOS AFRO BRAS    20121810 000132
10231987175000168817800093673    000031186                    000311860000000000000109                     I0131186     20121800000000350003410000017N291018104700000000000102012180000000000000000000000000000000000000000100001226405789WILLER DE ALMEIDA                       RUA QUEIROZ JUNIOR N                    BARRA DA TIJ22775170RIO DE JANEIRO RJUNIAO UMB DOS CULTOS AFRO BRAS    20121810 000133
10231987175000168817800093673    000031185                    000311850000000000000109                     I0131185     20121800000000350003410000017N291018104700000000000102012180000000000000000000000000000000000000000100034539883704ADILSON MARTINS COELHO                  RUA ROQUE BARBOSA                       JARDIM BANGU21863420BANGU          RJUNIAO UMB DOS CULTOS AFRO BRAS    20121810 000134
10231987175000168817800093673    000031184                    000311840000000000000109                     I0131184     20121800000000350003410000017N291018104700000000000102012180000000000000000000000000000000000000000100000000000000DENIRCE SOUZA ANDRE                     AVENIDA PASTOR MARTIN LUTHER KING JUNIORTOMAS COELHO20761121RIO DE JANEIRO RJUNIAO UMB DOS CULTOS AFRO BRAS    20121810 000135
10231987175000168817800093673    000031183                    000311830000000000000109                     I0131183     20121800000000350003410000017N291018104700000000000102012180000000000000000000000000000000000000000100001814469796LEILA FERNANDES DA COSTA                RUA: PASTOR MARTINS LUTHER KING JUNIOR  IRAJA       21371312RIO DE JANEIRO RJUNIAO UMB DOS CULTOS AFRO BRAS    20121810 000136
10231987175000168817800093673    000031182                    000311820000000000000109                     I0131182     20121800000000350003410000017N291018104700000000000102012180000000000000000000000000000000000000000100000000000340VERA LUCIA BARBOSA DA CUNHA             RUA PORTO RICO                          VIGARIO GERA21241200RIO DE JANEIRO RJUNIAO UMB DOS CULTOS AFRO BRAS    20121810 000137
10231987175000168817800093673    000031181                    000311810000000000000109                     I0131181     20121800000000350003410000017N291018104700000000000102012180000000000000000000000000000000000000000100002344767703ROSINETE FERREIRA CAMARGO               RUA ARAGO                               JACAREPAGUA 22733130RIO DE JANEIRO RJUNIAO UMB DOS CULTOS AFRO BRAS    20121810 000138
10231987175000168817800093673    000031180                    000311800000000000000109                     I0131180     20121800000000350003410000017N291018104700000000000102012180000000000000000000000000000000000000000100002053662794JOSE DE MELLO FILHO                     RUA: OLIMPIO DA MOTA                    IRAJA       21235510RIO DE JANEIRO RJUNIAO UMB DOS CULTOS AFRO BRAS    20121810 000139
10231987175000168817800093673    000031179                    000311790000000000000109                     I0131179     20121800000000350003410000017N291018104700000000000102012180000000000000000000000000000000000000000100000000000339JUCELIO MONTINHO MAIA                   RUA OLIMPIO DA MOTA                     IRAJA       21235510RIO DE JANEIRO RJUNIAO UMB DOS CULTOS AFRO BRAS    20121810 000140
10231987175000168817800093673    000031178                    000311780000000000000109                     I0131178     20121800000000350003410000017N291018104700000000000102012180000000000000000000000000000000000000000100053057457720MARIA CHRISTINA MARINS ROSA             RUA ARAGO                               TANQUE - JAC22733130RIO DE JANEIRO RJUNIAO UMB DOS CULTOS AFRO BRAS    20121810 000141
10231987175000168817800093673    000031177                    000311770000000000000109                     I0131177     20121800000000350003410000017N291018104700000000000102012180000000000000000000000000000000000000000100079192653715TERESINHA DE JESUS DOS SANTOS           AVENIDA SYLVIO MOUTINHO                 GUARATIBA   23028180RIO DE JANEIRO RJUNIAO UMB DOS CULTOS AFRO BRAS    20121810 000142
10231987175000168817800093673    000031176                    000311760000000000000109                     I0131176     20121800000000350003410000017N291018104700000000000102012180000000000000000000000000000000000000000100022175534880LUCIANO THOMAZ DE ROSA                  RUA FRANCISCO JOSE DA SILVA             SUZANO - JAR08695060SAO PAULO      SPUNIAO UMB DOS CULTOS AFRO BRAS    20121810 000143
10231987175000168817800093673    000031175                    000311750000000000000109                     I0131175     20121800000000350003410000017N291018104700000000000102012180000000000000000000000000000000000000000100054558093772PAULO DOS SANTOS ROSA                   RUA AZAMOR                              LINS DE VASC20710120RIO DE JANEIRO RJUNIAO UMB DOS CULTOS AFRO BRAS    20121810 000144
10231987175000168817800093673    000031174                    000311740000000000000109                     I0131174     20121800000000350003410000017N291018104700000000000102012180000000000000000000000000000000000000000100011054721750ANDREA FERNANDES LAGOAS                 AVENIDA SETE                            PIRATININGA 24365279NITEROI        RJUNIAO UMB DOS CULTOS AFRO BRAS    20121810 000145
10231987175000168817800093673    000031173                    000311730000000000000109                     I0131173     20121800000000350003410000017N291018104700000000000102012180000000000000000000000000000000000000000100066053560715CELSO IZIDORO FELIX                     RUA AGAI                                JARDIM PALMA23065620SANTA CRUZ     RJUNIAO UMB DOS CULTOS AFRO BRAS    20121810 000146
10231987175000168817800093673    000031172                    000311720000000000000109                     I0131172     20121800000000350003410000017N291018104700000000000102012180000000000000000000000000000000000000000100060792078772ROSANGELA DA SILVA                      RUA TUCUNARE                            BRAS DE PINA21215150RIO DE JANEIRO RJUNIAO UMB DOS CULTOS AFRO BRAS    20121810 000147
10231987175000168817800093673    000031171                    000311710000000000000109                     I0131171     20121800000000350003410000017N291018104700000000000102012180000000000000000000000000000000000000000100081294913700JACIMARA DE SOUZA OLIVEIRA              RUA ATILA DE SA PEIXOTO                 REALENGO    21760320RIO DE JANEIRO RJUNIAO UMB DOS CULTOS AFRO BRAS    20121810 000148
10231987175000168817800093673    000031170                    000311700000000000000109                     I0131170     20121800000000350003410000017N291018104700000000000102012180000000000000000000000000000000000000000100033413525700ALBERICE SILVA OLIVEIRA                 RUA DIAS DA CRUZ                        MEIER       20720012RIO DE JANEIRO RJUNIAO UMB DOS CULTOS AFRO BRAS    20121810 000149
10231987175000168817800093673    000031169                    000311690000000000000109                     I0131169     20121800000000350003410000017N291018104700000000000102012180000000000000000000000000000000000000000100044608268791FAUSTO DOS SANTOS REZENDE               RUA CARUNA                              PARADA DE LU21010070RIO DE JANEIRO RJUNIAO UMB DOS CULTOS AFRO BRAS    20121810 000150
10231987175000168817800093673    000031168                    000311680000000000000109                     I0131168     20121800000000350003410000017N291018104700000000000102012180000000000000000000000000000000000000000100000000000334HELENA MARIA DA SILVA                   RUA VINTE E QUATRO DE OUTUBRO           BARRO BRANCO25267450DUQUE DE CAXIASRJUNIAO UMB DOS CULTOS AFRO BRAS    20121810 000151
10231987175000168817800093673    000031167                    000311670000000000000109                     I0131167     20121800000000350003410000017N291018104700000000000102012180000000000000000000000000000000000000000100053516176768ROBERTO DE ALMEIDA DA CRUZ              AVENIDA AUTOMOVEL CLUB                  BARRO BRANCO25267135DUQUE DE CAXIASRJUNIAO UMB DOS CULTOS AFRO BRAS    20121810 000152
10231987175000168817800093673    000031166                    000311660000000000000109                     I0131166     20121800000000350003410000017N291018104700000000000102012180000000000000000000000000000000000000000100009443831732RAFAEL LUIZ SOARES FERREIRA             RUA COMANDANTE COELHO                   CORDOVIL    21250510RIO DE JANEIRO RJUNIAO UMB DOS CULTOS AFRO BRAS    20121810 000153
10231987175000168817800093673    000031165                    000311650000000000000109                     I0131165     20121800000000350003410000017N291018104700000000000102012180000000000000000000000000000000000000000100043917208768HOSANA FERREIRA DE MOURA                RUA HOMERIO PINTO CAPUTU                JARDIM PROGR22020011RIO DE JANEIRO RJUNIAO UMB DOS CULTOS AFRO BRAS    20121810 000154
10231987175000168817800093673    000031164                    000311640000000000000109                     I0131164     20121800000000350003410000017N291018104700000000000102012180000000000000000000000000000000000000000100007742829754CARLOS ANDERSON DA SILVA DIAS           RUA CORONEL FRANCA LEITE                CABRAL      26582020RIO DE JANEIRO RJUNIAO UMB DOS CULTOS AFRO BRAS    20121810 000155
10231987175000168817800093673    000031163                    000311630000000000000109                     I0131163     20121800000000400003410000017N291018104700000000000102012180000000000000000000000000000000000000000100088676889791JANE LUCIA LESSA SILVA                  RUA OLIVEIRA JUNQUEIRA                  BENTO RIBEIR21331170RIO DE JANEIRO RJUNIAO UMB DOS CULTOS AFRO BRAS    20121810 000156
10231987175000168817800093673    000031162                    000311620000000000000109                     I0131162     20121800000000350003410000017N291018104700000000000102012180000000000000000000000000000000000000000100062552139787JOSE ANTONIO VICTORIA DUARTE            RUA GOIAS                               PIEDADE     20756121RIO DE JANEIRO RJUNIAO UMB DOS CULTOS AFRO BRAS    20121810 000157
10231987175000168817800093673    000031161                    000311610000000000000109                     I0131161     20121800000000350003410000017N291018104700000000000102012180000000000000000000000000000000000000000100070421609753DERIVALDA DE JESUS MOREIRA              AVENIDA OSWALDO CRUZ                    CENTRO      26530100NILOPOLIS      RJUNIAO UMB DOS CULTOS AFRO BRAS    20121810 000158
10231987175000168817800093673    000031160                    000311600000000000000109                     I0131160     20121800000000350003410000017N291018104700000000000102012180000000000000000000000000000000000000000100007544975770WILLIAMS COSTA SOARES                   RUA LEILA                               COMENDADOR S26261150NOVA IGUACU    RJUNIAO UMB DOS CULTOS AFRO BRAS    20121810 000159
10231987175000168817800093673    000031159                    000311590000000000000109                     I0131159     20121800000000350003410000017N291018104700000000000102012180000000000000000000000000000000000000000100061263699715WALTER DA SILVA RIBEIRO                 TRAVESSA DA PAZ N                       MORRO DO CAS24410580RIO DE JANEIRO RJUNIAO UMB DOS CULTOS AFRO BRAS    20121810 000160
10231987175000168817800093673    000031158                    000311580000000000000109                     I0131158     20121800000000350003410000017N291018104700000000000102012180000000000000000000000000000000000000000100003666096700MARIA DOS SANTOS MACHADO                RUA JOAO RAIMUNDO                       VILA SANTO A25041400DUQUE DE CAXIASRJUNIAO UMB DOS CULTOS AFRO BRAS    20121810 000161
10231987175000168817800093673    000031157                    000311570000000000000109                     I0131157     20121800000000350003410000017N291018104700000000000102012180000000000000000000000000000000000000000100007359102782MARIA GORETE DA CONCEICAO               RUA: CINTIA                             NOVA IGUACU 26262070NOVA IGUACU    RJUNIAO UMB DOS CULTOS AFRO BRAS    20121810 000162
10231987175000168817800093673    000031156                    000311560000000000000109                     I0131156     20121800000000350003410000017N291018104700000000000102012180000000000000000000000000000000000000000100071741798787JAILTON DA SILVA VIEIRA                 RUA: DA GAVEA                           VILA LEOPOLD25060300DUQUE DE CAXIASRJUNIAO UMB DOS CULTOS AFRO BRAS    20121810 000163
10231987175000168817800093673    000031155                    000311550000000000000109                     I0131155     20121800000000350003410000017N291018104700000000000102012180000000000000000000000000000000000000000100069876207768JUREMA DIONISIO RODRIGUES               RUA CARLOS OLIMPIO DE MELLO             PACIENCIA   23585160RIO DE JANEIRO RJUNIAO UMB DOS CULTOS AFRO BRAS    20121810 000164
10231987175000168817800093673    000031154                    000311540000000000000109                     I0131154     20121800000000350003410000017N291018104700000000000102012180000000000000000000000000000000000000000100001859792707REGIS GOMES DE OLIVEIRA                 AVENIDA DO CANAL                        ALBUQUERQUE 25976560TERESOPOLIS    RJUNIAO UMB DOS CULTOS AFRO BRAS    20121810 000165
10231987175000168817800093673    000031153                    000311530000000000000109                     I0131153     20121800000000350003410000017N291018104700000000000102012180000000000000000000000000000000000000000100062188739787MARIO MACHADO DA CAMARA BRAZAO          RUA ALDEMAR PAIVA                       BADU - PENDO24320230NITEROI        RJUNIAO UMB DOS CULTOS AFRO BRAS    20121810 000166
10231987175000168817800093673    000031152                    000311520000000000000109                     I0131152     20121800000000350003410000017N291018104700000000000102012180000000000000000000000000000000000000000100001149312750CLAUDIO SERGIO DE CASTRO                RUA LAJAO                               CENTRO      35240000CONSELHEIRO PENMGUNIAO UMB DOS CULTOS AFRO BRAS    20121810 000167
10231987175000168817800093673    000031151                    000311510000000000000109                     I0131151     20121800000000400003410000017N291018104700000000000102012180000000000000000000000000000000000000000100037293591772JUCARI RIBEIRO PIMENTA                  RUA CRISOLIA                            HONORIO GURG21511220RIO DE JANEIRO RJUNIAO UMB DOS CULTOS AFRO BRAS    20121810 000168
10231987175000168817800093673    000031150                    000311500000000000000109                     I0131150     20121800000000350003410000017N291018104700000000000102012180000000000000000000000000000000000000000100012001167717JOSEILTON DA SILVA MOREIRA              RUA IBIRARUNA                           VILA SANTA C25240482DUQUE DE CAXIASRJUNIAO UMB DOS CULTOS AFRO BRAS    20121810 000169
10231987175000168817800093673    000031149                    000311490000000000000109                     I0131149     20121800000000350003410000017N291018104700000000000102012180000000000000000000000000000000000000000100001037627792FRANCE BATISTA CRESPO                   RUA CAPITAO MACHADO                     PRACA SECA  20740230RIO DE JANEIRO RJUNIAO UMB DOS CULTOS AFRO BRAS    20121810 000170
10231987175000168817800093673    000031148                    000311480000000000000109                     I0131148     20121800000000350003410000017N291018104700000000000102012180000000000000000000000000000000000000000100089721411787FATIMA REGINA VALENTE MARTINS           RUA CAPITAO MACHADO                     PRACA SECA  21320030RIO DE JANEIRO RJUNIAO UMB DOS CULTOS AFRO BRAS    20121810 000171
10231987175000168817800093673    000031147                    000311470000000000000109                     I0131147     20121800000000380003410000017N291018104700000000000102012180000000000000000000000000000000000000000100003032482704ADELAIDE ALVES DE OLIVEIRA MIR          RUA CLEMENTE PEREIRA LEANDRO            SAO JOAO DE 25561000RIO DE JANEIRO RJUNIAO UMB DOS CULTOS AFRO BRAS    20121810 000172
10231987175000168817800093673    000031146                    000311460000000000000109                     I0131146     20121800000000350003410000017N291018104700000000000102012180000000000000000000000000000000000000000100000000934798CELSO LINS ROSA (OGAN)                  RUA ACENICO                             PARQUE ALIAN00000000RIO DE JANEIRO RJUNIAO UMB DOS CULTOS AFRO BRAS    20121810 000173
10231987175000168817800093673    000031145                    000311450000000000000109                     I0131145     20121800000000350003410000017N291018104700000000000102012180000000000000000000000000000000000000000100002878076737TANIA NACARI AIRES GALVAO               ESTRADA DO DENDE                        DENDE - ILHA25000000RIO DE JANEIRO RJUNIAO UMB DOS CULTOS AFRO BRAS    20121810 000174
10231987175000168817800093673    000031144                    000311440000000000000109                     I0131144     20121800000000350003410000017N291018104700000000000102012180000000000000000000000000000000000000000100001050327780MARIA LUCIA DE FATIMA FERREIRA          RUA BUDAPESTE                           BANCARIOS - 21911300RIO DE JANEIRO RJUNIAO UMB DOS CULTOS AFRO BRAS    20121810 000175
10231987175000168817800093673    000031143                    000311430000000000000109                     I0131143     20121800000000350003410000017N291018104700000000000102012180000000000000000000000000000000000000000100004765875733BEATRIZ GOMES DEMIRSKY                  AVENIDA MERITI                          VILA DA PENH21220201RIO DE JANEIRO RJUNIAO UMB DOS CULTOS AFRO BRAS    20121810 000176
10231987175000168817800093673    000031142                    000311420000000000000109                     I0131142     20121800000000350003410000017N291018104700000000000102012180000000000000000000000000000000000000000100019270542734NELSON VALENTE                          RUA PROFESSOR CLEMENTE FERREIRA         BANGU       21810141RIO DE JANEIRO RJUNIAO UMB DOS CULTOS AFRO BRAS    20121810 000177
10231987175000168817800093673    000031141                    000311410000000000000109                     I0131141     20121800000000350003410000017N291018104700000000000102012180000000000000000000000000000000000000000100003200716851CYNTHIA RITA HERTEL                     RUA FRIBURGO                            SAMBAETIBA  24842220ITABORAI       RJUNIAO UMB DOS CULTOS AFRO BRAS    20121810 000178
10231987175000168817800093673    000031140                    000311400000000000000109                     I0131140     20121800000000350003410000017N291018104700000000000102012180000000000000000000000000000000000000000100077294653704RICARDO JOSE LIMA LINHARES              RUA DEOLINDA MOTA GUEDES                DANON       26270230RIO DE JANEIRO RJUNIAO UMB DOS CULTOS AFRO BRAS    20121810 000179
10231987175000168817800093673    000031139                    000311390000000000000109                     I0131139     20121800000000350003410000017N291018104700000000000102012180000000000000000000000000000000000000000100068147546734SUELI TEIXEIRA NEVES                    RUA E                                   INOA        21220010RIO DE JANEIRO RJUNIAO UMB DOS CULTOS AFRO BRAS    20121810 000180
10231987175000168817800093673    000031138                    000311380000000000000109                     I0131138     20121800000000350003410000017N291018104700000000000102012180000000000000000000000000000000000000000100012354907770BARBARA CRISTINA DE OLIVEIRA B          RUA PROFESSOR PLINIO OLINTO             BANGU       21860160RIO DE JANEIRO RJUNIAO UMB DOS CULTOS AFRO BRAS    20121810 000181
10231987175000168817800093673    000031137                    000311370000000000000109                     I0131137     20121800000000350003410000017N291018104700000000000102012180000000000000000000000000000000000000000100001657566757DENIZE ALVES PERES                      PRACA MARCIA MENDES                     CAMPINHO    21341410RIO DE JANEIRO RJUNIAO UMB DOS CULTOS AFRO BRAS    20121810 000182
10231987175000168817800093673    000031136                    000311360000000000000109                     I0131136     20121800000000350003410000017N291018104700000000000102012180000000000000000000000000000000000000000100005727808774RITA BORGES MOREIRA                     RUA CIRILO DA SILVEIRA                  VILA VALQUEI21330735RIO DE JANEIRO RJUNIAO UMB DOS CULTOS AFRO BRAS    20121810 000183
10231987175000168817800093673    000031135                    000311350000000000000109                     I0131135     20121800000000350003410000017N291018104700000000000102012180000000000000000000000000000000000000000100089550374734HONORATO RICARDO BEATRIZ                RUA PRAIA DE BOTAFOGO                   BOTAFOGO    22250040RIO DE JANEIRO RJUNIAO UMB DOS CULTOS AFRO BRAS    20121810 000184
10231987175000168817800093673    000031134                    000311340000000000000109                     I0131134     20121800000000350003410000017N291018104700000000000102012180000000000000000000000000000000000000000100000000000489SEBASTIAO DOS SANTOS GUIMARAES          AVENIDA VERA CRUZ,                      MARACANA    27140360BARRA DO PIRAI RJUNIAO UMB DOS CULTOS AFRO BRAS    20121810 000185
10231987175000168817800093673    000031133                    000311330000000000000109                     I0131133     20121800000000350003410000017N291018104700000000000102012180000000000000000000000000000000000000000100000000000490LUCI DA CUNHA ARTUR                     AVENIDA FRANCISCO CHRISOSTOMOS TORRES   PINTO DA SER27286440VOLTA REDONDA  RJUNIAO UMB DOS CULTOS AFRO BRAS    20121810 000186
10231987175000168817800093673    000031132                    000311320000000000000109                     I0131132     20121800000000350003410000017N291018104700000000000102012180000000000000000000000000000000000000000100000000000493ANTONIO CARLOS GUIMARAES COTIA          AVENIDA PRESIDENTE KENNEDY              ANO BOM     27273280BARRA MANSA    RJUNIAO UMB DOS CULTOS AFRO BRAS    20121810 000187
10231987175000168817800093673    000031131                    000311310000000000000109                     I0131131     20121800000000350003410000017N291018104700000000000102012180000000000000000000000000000000000000000100009611659792ALUIZIO RODRIGUES RIBEIRO               RUA GARCIA PIRES                        QUINTINO    21311300RIO DE JANEIRO RJUNIAO UMB DOS CULTOS AFRO BRAS    20121810 000188
10231987175000168817800093673    000031130                    000311300000000000000109                     I0131130     20121800000000350003410000017N291018104700000000000102012180000000000000000000000000000000000000000100058924477749MARIA DAS GRACAS AZEVEDO RIBEI          RUA VICENTE LIMA                        VILAR DOS TE25560240SAO JOAO DE MERRJUNIAO UMB DOS CULTOS AFRO BRAS    20121810 000189
10231987175000168817800093673    000031129                    000311290000000000000109                     I0131129     20121800000000350003410000017N291018104700000000000102012180000000000000000000000000000000000000000100070891036768EDNA FERREIRA DE MELO                   RUA SARGENTO MARQUETI                   MARECHAL HER21611000RIO DE JANEIRO RJUNIAO UMB DOS CULTOS AFRO BRAS    20121810 000190
10231987175000168817800093673    000031128                    000311280000000000000109                     I0131128     20121800000000350003410000017N291018104700000000000102012180000000000000000000000000000000000000000100081667795791RENATO JOSE DE ARAUJO VAZ CURA          RUA: CRISTOVAO COLOMBO                  MEIER       00000000RIO DE JANEIRO RJUNIAO UMB DOS CULTOS AFRO BRAS    20121810 000191
10231987175000168817800093673    000031127                    000311270000000000000109                     I0131127     20121800000000350003410000017N291018104700000000000102012180000000000000000000000000000000000000000100088482170791LUCIMAR MARIA DA SILVA CRUZ             RUA GILDER                              VARGEM ALEGR27155000BARRA DO PIRAI RJUNIAO UMB DOS CULTOS AFRO BRAS    20121810 000192
10231987175000168817800093673    000031126                    000311260000000000000109                     I0131126     20121800000000350003410000017N291018104700000000000102012180000000000000000000000000000000000000000100030187504000JOSE ROBERTO SOARES COSTA               ESTRADA DO CARIBU                       FREGUESIA   22765010RIO DE JANEIRO RJUNIAO UMB DOS CULTOS AFRO BRAS    20121810 000193
10231987175000168817800093673    000031125                    000311250000000000000109                     I0131125     20121800000000350003410000017N291018104700000000000102012180000000000000000000000000000000000000000100052894835787CARMITA DE JESUS DA SILVA               RUA VISCONDE DE NITEROI                 MANGUEIRA   20943000RIO DE JANEIRO RJUNIAO UMB DOS CULTOS AFRO BRAS    20121810 000194
10231987175000168817800093673    000031124                    000311240000000000000109                     I0131124     20121800000000350003410000017N291018104700000000000102012180000000000000000000000000000000000000000100062822900744FATIMA LUCRECIA DE CARVALHO CA          ESTRADA RIO DO PAU                      ANCHIETA    21645520RIO DE JANEIRO RJUNIAO UMB DOS CULTOS AFRO BRAS    20121810 000195
10231987175000168817800093673    000031123                    000311230000000000000109                     I0131123     20121800000000350003410000017N291018104700000000000102012180000000000000000000000000000000000000000100060570207849ISABEL CARVALHO DA COSTA                AVENIDA DOS ITALIANOS                   VILA CONQUIS21510101COELHO NETO    RJUNIAO UMB DOS CULTOS AFRO BRAS    20121810 000196
10231987175000168817800093673    000031122                    000311220000000000000109                     I0131122     20121800000000350003410000017N291018104700000000000102012180000000000000000000000000000000000000000100007812001725FLAVIA DA ROSA SANTANA                  RUA PEDRO TELES                         CENTRO      25515030SAO JOAO DE MERRJUNIAO UMB DOS CULTOS AFRO BRAS    20121810 000197
10231987175000168817800093673    000031121                    000311210000000000000109                     I0131121     20121800000000350003410000017N291018104700000000000102012180000000000000000000000000000000000000000100006993931753MARCOS ANTONIO AYROZA DE OLIVE          RUA ALTO PARNAIBA                       ARNALDO EUGE23015210CAMPO GRANDE   RJUNIAO UMB DOS CULTOS AFRO BRAS    20121810 000198
10231987175000168817800093673    000031120                    000311200000000000000109                     I0131120     20121800000000350003410000017N291018104700000000000102012180000000000000000000000000000000000000000100003750023751NILZA HELENA BASILIO                    RUA MUPIA                               IRAJA       21220320RIO DE JANEIRO RJUNIAO UMB DOS CULTOS AFRO BRAS    20121810 000199
10231987175000168817800093673    000031119                    000311190000000000000109                     I0131119     20121800000000350003410000017N291018104700000000000102012180000000000000000000000000000000000000000100031668500744TERESA CRISTINA PINTO DE NOVAE          AVENIDA: GLAUCIO GIL                    RECREIO DOS 22795172RIO DE JANEIRO RJUNIAO UMB DOS CULTOS AFRO BRAS    20121810 000200
10231987175000168817800093673    000031118                    000311180000000000000109                     I0131118     20121800000000350003410000017N291018104700000000000102012180000000000000000000000000000000000000000100003125944708ROGERIO GOMES DA SILVA                  RUA DOUTOR BERNARDINO GOMES             BANCARIOS - 21910130RIO DE JANEIRO RJUNIAO UMB DOS CULTOS AFRO BRAS    20121810 000201
10231987175000168817800093673    000031117                    000311170000000000000109                     I0131117     20121800000000350003410000017N291018104700000000000102012180000000000000000000000000000000000000000100066334012720ROBERTO LUIZ POMBO DA SILVA             RUA BERNADINO RIBEIRO                   COSTA BARROS20250000RIO DE JANEIRO RJUNIAO UMB DOS CULTOS AFRO BRAS    20121810 000202
10231987175000168817800093673    000031116                    000311160000000000000109                     I0131116     20121800000000350003410000017N291018104700000000000102012180000000000000000000000000000000000000000100000129820750JONAS DE SOUZA FERREIRA                 RUA RIACHO DOCE                         OSWALDO CRUZ21340340RIO DE JANEIRO RJUNIAO UMB DOS CULTOS AFRO BRAS    20121810 000203
10231987175000168817800093673    000031115                    000311150000000000000109                     I0131115     20121800000000350003410000017N291018104700000000000102012180000000000000000000000000000000000000000100002541954743DENISE DIAS DE OLIVEIRA                 RUA BERNARDINO DE CAMPOS                OLAVO BILAC 25035530DUQUE DE CAXIASRJUNIAO UMB DOS CULTOS AFRO BRAS    20121810 000204
10231987175000168817800093673    000031114                    000311140000000000000109                     I0131114     20121800000000400003410000017N291018104700000000000102012180000000000000000000000000000000000000000100004252372739BARBARA CRISTINA BATISTA DOS S          RUA JAVA                                BOM JESUS   26352090NOVA IGUACU    RJUNIAO UMB DOS CULTOS AFRO BRAS    20121810 000205
10231987175000168817800093673    000031113                    000311130000000000000109                     I0131113     20121800000000350003410000017N291018104700000000000102012180000000000000000000000000000000000000000100071631534734JORGETE TAVARES DE SOUZA                RUA PROFESSOR NICANOR LEMGRUBER         REALENGO    21765600RIO DE JANEIRO RJUNIAO UMB DOS CULTOS AFRO BRAS    20121810 000206
10231987175000168817800093673    000031112                    000311120000000000000109                     I0131112     20121800000000350003410000017N291018104700000000000102012180000000000000000000000000000000000000000100094445966720NOEMIA DO NASCIMENTO ROSENDO            ESTRADA DO TINGUI                       AMAZONAS    23075010CAMPO GRANDE   RJUNIAO UMB DOS CULTOS AFRO BRAS    20121810 000207
10231987175000168817800093673    000031111                    000311110000000000000109                     I0131111     20121800000000350003410000017N291018104700000000000102012180000000000000000000000000000000000000000100036231835715DIVINO BEZERRA PEREIRA                  RUA DO LAVRADIO                         CENTRO      20230070RIO DE JANEIRO RJUNIAO UMB DOS CULTOS AFRO BRAS    20121810 000208
10231987175000168817800093673    000031110                    000311100000000000000109                     I0131110     20121800000000350003410000017N291018104700000000000102012180000000000000000000000000000000000000000100064539199749LENI MARTINS GONCALVES                  RUA MAUA                                PARQUE SAO B26165110BELFORD ROXO   RJUNIAO UMB DOS CULTOS AFRO BRAS    20121810 000209
10231987175000168817800093673    000031109                    000311090000000000000109                     I0131109     20121800000000350003410000017N291018104700000000000102012180000000000000000000000000000000000000000100090682211753ELIZABETH VALENTIM                      AL: SEIS                                CAMPO LINDO 23845190RIO DE JANEIRO RJUNIAO UMB DOS CULTOS AFRO BRAS    20121810 000210
10231987175000168817800093673    000031108                    000311080000000000000109                     I0131108     20121800000000350003410000017N291018104700000000000102012180000000000000000000000000000000000000000100000000000304MARIA FERNANDA NUNES FORTUNATO          RUA RICARDO CAMPELO                     CAMARAO     24436790SAO GONCALO    RJUNIAO UMB DOS CULTOS AFRO BRAS    20121810 000211
10231987175000168817800093673    000031107                    000311070000000000000109                     I0131107     20121800000000350003410000017N291018104700000000000102012180000000000000000000000000000000000000000100002560529726LUIZ CARLOS DIAS MACHADO                RUA BERNARDO DE VASCONCELOS             REALENGO    21715251RIO DE JANEIRO RJUNIAO UMB DOS CULTOS AFRO BRAS    20121810 000212
10231987175000168817800093673    000031106                    000311060000000000000109                     I0131106     20121800000000450003410000017N291018104700000000000102012180000000000000000000000000000000000000000100093515693734VILMA SANTOS MARTINS                    RUA JOAO ADIL DE OLIVEIRA               IRAJA       21231210RIO DE JANEIRO RJUNIAO UMB DOS CULTOS AFRO BRAS    20121810 000213
10231987175000168817800093673    000031105                    000311050000000000000109                     I0131105     20121800000000350003410000017N291018104700000000000102012180000000000000000000000000000000000000000100088407721700CELSO DE OLIVEIRA ALBUQUERQUE           RUA ANHANGUERA                          SAO BERNARDO26160660BELFORD ROXO   RJUNIAO UMB DOS CULTOS AFRO BRAS    20121810 000214
10231987175000168817800093673    000031104                    000311040000000000000109                     I0131104     20121800000000350003410000017N291018104700000000000102012180000000000000000000000000000000000000000100096290986791CENTRO ESPIRITA DAMIAO (NEIL D          RUA VICENTE CELESTINO                   COLUMBANDE  24744740SAO GONCALO    RJUNIAO UMB DOS CULTOS AFRO BRAS    20121810 000215
10231987175000168817800093673    000031103                    000311030000000000000109                     I0131103     20121800000000350003410000017N291018104700000000000102012180000000000000000000000000000000000000000100001559752777CLAUDIA DA SILVA FERREIRA ANTO          ESTRADA DA PENA                         COSMOS      23060720RIO DE JANEIRO RJUNIAO UMB DOS CULTOS AFRO BRAS    20121810 000216
10231987175000168817800093673    000031102                    000311020000000000000109                     I0131102     20121800000000350003410000017N291018104700000000000102012180000000000000000000000000000000000000000100003792312762MARCIA REGINA DE SOUZA DA SILV          AVENIDA ALHAMBRA                        BEL CRIMA   23045805CAMPO GRANDE   RJUNIAO UMB DOS CULTOS AFRO BRAS    20121810 000217
10231987175000168817800093673    000031101                    000311010000000000000109                     I0131101     20121800000000350003410000017N291018104700000000000102012180000000000000000000000000000000000000000100075459221749MARINETE DIAS DA SILVA                  ALAMEDA SANTA CRUZ                      PAVUNA      21521020RIO DE JANEIRO RJUNIAO UMB DOS CULTOS AFRO BRAS    20121810 000218
10231987175000168817800093673    000031100                    000311000000000000000109                     I0131100     20121800000000400003410000017N291018104700000000000102012180000000000000000000000000000000000000000100048941247772MARIA FLOR DE MAIO SANTOS               RUA APOLO                               PAVUNA      22735210RIO DE JANEIRO RJUNIAO UMB DOS CULTOS AFRO BRAS    20121810 000219
10231987175000168817800093673    000031099                    000310990000000000000109                     I0131099     20121800000000350003410000017N291018104700000000000102012180000000000000000000000000000000000000000100052421422787ACIOLY DUARTE DIAS                      RUA DOUTOR WALMIR                       ANDRADE ARAU26012840NOVA IGUACU    RJUNIAO UMB DOS CULTOS AFRO BRAS    20121810 000220
10231987175000168817800093673    000031098                    000310980000000000000109                     I0131098     20121800000000350003410000017N291018104700000000000102012180000000000000000000000000000000000000000100002065913738ROBSON DE FARIA TORRES                  RUA CAPITAO AROLDO LEITAO               OLARIA      21071050RIO DE JANEIRO RJUNIAO UMB DOS CULTOS AFRO BRAS    20121810 000221
10231987175000168817800093673    000031097                    000310970000000000000109                     I0131097     20121800000000400003410000017N291018104700000000000102012180000000000000000000000000000000000000000100018338577715MARILDA ALVES DE ALMEIDA                RUA BORBOREMA                           MADUREIRA   21360150RIO DE JANEIRO RJUNIAO UMB DOS CULTOS AFRO BRAS    20121810 000222
10231987175000168817800093673    000031096                    000310960000000000000109                     I0131096     20121800000000350003410000017N291018104700000000000102012180000000000000000000000000000000000000000100049170872791SONIA REGINA BARBOSA CAVATO             AVENIDA: SCHULTZ WENK                   CORDOVIL    22711270RIO DE JANEIRO RJUNIAO UMB DOS CULTOS AFRO BRAS    20121810 000223
10231987175000168817800093673    000031095                    000310950000000000000109                     I0131095     20121800000000350003410000017N291018104700000000000102012180000000000000000000000000000000000000000100058486496772CELIA DOMINGOS DA SILVA                 RUA JANETE                              BANCO DE ARE26275020MESQUITA       RJUNIAO UMB DOS CULTOS AFRO BRAS    20121810 000224
10231987175000168817800093673    000031094                    000310940000000000000109                     I0131094     20121800000000350003410000017N291018104700000000000102012180000000000000000000000000000000000000000100058375562734NOELIA NOEMIA PIRES FERREIRA            AVENIDA EUCLIDES DA CUNHA               VILA SAO JOA25570162RIO DE JANEIRO RJUNIAO UMB DOS CULTOS AFRO BRAS    20121810 000225
10231987175000168817800093673    000031093                    000310930000000000000109                     I0131093     20121800000000350003410000017N291018104700000000000102012180000000000000000000000000000000000000000100008763637707JUSSARA SILVA DE ALBUQUERQUE            RUA: ARGOS                              GUADALUPE   21660050RIO DE JANEIRO RJUNIAO UMB DOS CULTOS AFRO BRAS    20121810 000226
10231987175000168817800093673    000031092                    000310920000000000000109                     I0131092     20121800000000350003410000017N291018104700000000000102012180000000000000000000000000000000000000000100002318759758MARIA EDNEA DE PAULA CHAGAS             RUA DEOCLECIANO RAMOS                   ANCHIETA    21645180RIO DE JANEIRO RJUNIAO UMB DOS CULTOS AFRO BRAS    20121810 000227
10231987175000168817800093673    000031091                    000310910000000000000109                     I0131091     20121800000000350003410000017N291018104700000000000102012180000000000000000000000000000000000000000100005316045785MERI CONCEICAO FRANCA MANO              RUA LOURENCO INACIO                     COLUMBANDE  24744610SAO GONCALO    RJUNIAO UMB DOS CULTOS AFRO BRAS    20121810 000228
10231987175000168817800093673    000031090                    000310900000000000000109                     I0131090     20121800000000450003410000017N291018104700000000000102012180000000000000000000000000000000000000000100095709469791IARA SOARES LIMA DA SILVA               RUA TENENTE LASSANCE                    ANCHIETA    21635440RIO DE JANEIRO RJUNIAO UMB DOS CULTOS AFRO BRAS    20121810 000229
10231987175000168817800093673    000031089                    000310890000000000000109                     I0131089     20121800000000350003410000017N291018104700000000000102012180000000000000000000000000000000000000000100003341741738CASSIA GOMES CASTORINO                  RUA COMENDADOR CRISOSTEMO CRUZ          SANTA MARIA 26165400BELFORD ROXO   RJUNIAO UMB DOS CULTOS AFRO BRAS    20121810 000230
10231987175000168817800093673    000031088                    000310880000000000000109                     I0131088     20121800000000350003410000017N291018104700000000000102012180000000000000000000000000000000000000000100058234110730FRANCISCA ARAUJO VASCONCELOS            RUA DAS CAMELIAS                        PRADO VERDE 26051470RIO DE JANEIRO RJUNIAO UMB DOS CULTOS AFRO BRAS    20121810 000231
10231987175000168817800093673    000031087                    000310870000000000000109                     I0131087     20121800000000350003410000017N291018104700000000000102012180000000000000000000000000000000000000000100000000000294MARILDA DA CONCEICAO AGUADO             RUA 1                                   MAPUA - TAQU22713270RIO DE JANEIRO RJUNIAO UMB DOS CULTOS AFRO BRAS    20121810 000232
10231987175000168817800093673    000031086                    000310860000000000000109                     I0131086     20121800000000350003410000017N291018104700000000000102012180000000000000000000000000000000000000000100082940983704JURACIARA DA CONCEICAO                  RUA ASSIS VASCONCELOS                   PILARES     20755010RIO DE JANEIRO RJUNIAO UMB DOS CULTOS AFRO BRAS    20121810 000233
10231987175000168817800093673    000031085                    000310850000000000000109                     I0131085     20121800000000350003410000017N291018104700000000000102012180000000000000000000000000000000000000000100066391482772VERA LUCIA BARBOSA FERREIRA             RUA JOAO VICENTE                        MARECHAL HER21610210RIO DE JANEIRO RJUNIAO UMB DOS CULTOS AFRO BRAS    20121810 000234
10231987175000168817800093673    000031084                    000310840000000000000109                     I0131084     20121800000000350003410000017N291018104700000000000102012180000000000000000000000000000000000000000100002547438704JORGE EDUARDO CAVALCANTI REIS           RUA ROSA DA FONSECA                     MANGUINHOS  21041240RIO DE JANEIRO RJUNIAO UMB DOS CULTOS AFRO BRAS    20121810 000235
10231987175000168817800093673    000031083                    000310830000000000000109                     I0131083     20121800000000350003410000017N291018104700000000000102012180000000000000000000000000000000000000000100048623334787IOLANDA JOSE PROFIRIO BARRETO           RUA SUECIA                              JARDIM CAICA28910240CABO FRIO      RJUNIAO UMB DOS CULTOS AFRO BRAS    20121810 000236
10231987175000168817800093673    000031082                    000310820000000000000109                     I0131082     20121800000000350003410000017N291018104700000000000102012180000000000000000000000000000000000000000100078251329749SOLANGE BASTOS DE ARAUJO                RUA EXPEDICIONARIO SIMAO FERNANDES      COLUBANDE   24451700SAO GONCALO    RJUNIAO UMB DOS CULTOS AFRO BRAS    20121810 000237
10231987175000168817800093673    000031081                    000310810000000000000109                     I0131081     20121800000000350003410000017N291018104700000000000102012180000000000000000000000000000000000000000100004151403744ANDRE DOMINGOS NUNES                    RUA ISAC MADEIRA                        SEPETIBA    23535801RIO DE JANEIRO RJUNIAO UMB DOS CULTOS AFRO BRAS    20121810 000238
10231987175000168817800093673    000031080                    000310800000000000000109                     I0131080     20121800000000350003410000017N291018104700000000000102012180000000000000000000000000000000000000000100093665536700IVANILDA DE AZEVEDO DOS SANTOS          RUA TENENTE PORTELA                     JARDIM MARAV23033200CAMPO GRANDE   RJUNIAO UMB DOS CULTOS AFRO BRAS    20121810 000239
10231987175000168817800093673    000031079                    000310790000000000000109                     I0131079     20121800000000350003410000017N291018104700000000000102012180000000000000000000000000000000000000000100085146595704CARLA MARY MONSORES REGO                RUA: D                                  TINGUI      23075570RIO DE JANEIRO RJUNIAO UMB DOS CULTOS AFRO BRAS    20121810 000240
10231987175000168817800093673    000031078                    000310780000000000000109                     I0131078     20121800000000350003410000017N291018104700000000000102012180000000000000000000000000000000000000000100038923335720MARILENE LOPES                          RUA LIBERATO                            VILA EMIL   26235180MESQUITA       RJUNIAO UMB DOS CULTOS AFRO BRAS    20121810 000241
10231987175000168817800093673    000031077                    000310770000000000000109                     I0131077     20121800000000350003410000017N291018104700000000000102012180000000000000000000000000000000000000000100033745226704LUIZA MARIA DO NASCIMENTO MARQ          RUA: CESARIO DE MELO                    MONTE SERRA 23585127RIO DE JANEIRO RJUNIAO UMB DOS CULTOS AFRO BRAS    20121810 000242
10231987175000168817800093673    000031076                    000310760000000000000109                     I0131076     20121800000000350003410000017N291018104700000000000102012180000000000000000000000000000000000000000100029004284753DELMISIO AGOSTINHO TAVARES              RUA FERNAO DE MAGALHAES                 CACHAMORRA  23040276CAMPO GRANDE   RJUNIAO UMB DOS CULTOS AFRO BRAS    20121810 000243
10231987175000168817800093673    000031075                    000310750000000000000109                     I0131075     20121800000000350003410000017N291018104700000000000102012180000000000000000000000000000000000000000100000000000288ZULEIDE DOS SANTOS MOREIRA              RUA ANTONIO ALEIXO                      GUARATIBA   23028170RIO DE JANEIRO RJUNIAO UMB DOS CULTOS AFRO BRAS    20121810 000244
10231987175000168817800093673    000031074                    000310740000000000000109                     I0131074     20121800000000350003410000017N291018104700000000000102012180000000000000000000000000000000000000000100000000000288MARIA DO CARMO SILVA PEREIRA            ESTRADA DO PRE                          SENADOR VASC23013550CAMPO GRANDE   RJUNIAO UMB DOS CULTOS AFRO BRAS    20121810 000245
10231987175000168817800093673    000031073                    000310730000000000000109                     I0131073     20121800000000350003410000017N291018104700000000000102012180000000000000000000000000000000000000000100075028310700JOSE MAURO GONCALVES NUNES              ESTRADA TRES IRMAOS                     PARQUE GENEC26061590NOVA IGUACU    RJUNIAO UMB DOS CULTOS AFRO BRAS    20121810 000246
10231987175000168817800093673    000031072                    000310720000000000000109                     I0131072     20121800000000350003410000017N291018104700000000000102012180000000000000000000000000000000000000000100001122766793ERICA VALERIA VIDAL DOS SANTOS          RUA ARMISTICIO                          SENADOR CAMA21831390RIO DE JANEIRO RJUNIAO UMB DOS CULTOS AFRO BRAS    20121810 000247
10231987175000168817800093673    000031071                    000310710000000000000109                     I0131071     20121800000000350003410000017N291018104700000000000102012180000000000000000000000000000000000000000100073887145704MARIA LUCIA APOLINARIO                  RUA AMERICO DA ROCHA                    MARECHAL HER21555300RIO DE JANEIRO RJUNIAO UMB DOS CULTOS AFRO BRAS    20121810 000248
10231987175000168817800093673    000031070                    000310700000000000000109                     I0131070     20121800000000350003410000017N291018104700000000000102012180000000000000000000000000000000000000000100089682300487STIVES FERREIRA DA SILVA                RUA OSVALDO EVANGELISTA DOS SANTOS      BANGU       21864530RIO DE JANEIRO RJUNIAO UMB DOS CULTOS AFRO BRAS    20121810 000249
