01REMESSA01COBRANCA       916200163100        União Umb dos Cultos Afro Bra341BANCO ITAU SA  080518                                                                                                                                                                                                                                                                                                      000001
10231987175000168916200163100    000020809                    000208090000000000000109                     I0120809     10051800000000035003410000017N080518104700000000000101005180000000000000000000000000000000000000000100008486144612BRUNO FELIPE KALIL HOMSE                RUA JOAQUIM BENEDITO DE PAULA, 639      SAO GERALDO 37558101POUSO ALEGRE   MGUNIAO UMB DOS CULTOS AFRO BRAS    10051810 000002
10231987175000168916200163100    000020808                    000208080000000000000109                     I0120808     30081800000000035003410000017N080518104700000000000103008180000000000000000000000000000000000000000100005229971711CATIA CILENE MASCARENHAS                RUA BUGANVILLE                          CONJUNTO SAN21843743CAMPO GRANDE   RJUNIAO UMB DOS CULTOS AFRO BRAS    30081810 000003
10231987175000168916200163100    000020807                    000208070000000000000109                     I0120807     30071800000000035003410000017N080518104700000000000103007180000000000000000000000000000000000000000100005229971711CATIA CILENE MASCARENHAS                RUA BUGANVILLE                          CONJUNTO SAN21843743CAMPO GRANDE   RJUNIAO UMB DOS CULTOS AFRO BRAS    30071810 000004
10231987175000168916200163100    000020806                    000208060000000000000109                     I0120806     30061800000000035003410000017N080518104700000000000103006180000000000000000000000000000000000000000100005229971711CATIA CILENE MASCARENHAS                RUA BUGANVILLE                          CONJUNTO SAN21843743CAMPO GRANDE   RJUNIAO UMB DOS CULTOS AFRO BRAS    30061810 000005
10231987175000168916200163100    000020805                    000208050000000000000109                     I0120805     30051800000000070003410000017N080518104700000000000103005180000000000000000000000000000000000000000100086374370791IVETE SILVA GOMES                       RUA SEIS LOTE 329                       GEBARA - ITA24867416NITEROI        RJUNIAO UMB DOS CULTOS AFRO BRAS    30051810 000006
10231987175000168916200163100    000020804                    000208040000000000000109                     I0120804     09051800000000175003410000017N080518104700000000000100905180000000000000000000000000000000000000000100080728774704NERIANA SILVA DO CARMO                  RUA: NILTON PAULINO Nº 13 A - RAMOS    RIO DE JANEI21061610RIO DE JANEIRO RJUNIAO UMB DOS CULTOS AFRO BRAS    09051810 000007
10231987175000168916200163100    000020803                    000208030000000000000109                     I0120803     30081800000000035003410000017N070518104700000000000103008180000000000000000000000000000000000000000100089982118749LENIR SILVA DOS SANTOS                  RUA ILDEFONSO ALBANO                    GUADALUPE   26291278RIO DE JANEIRO RJUNIAO UMB DOS CULTOS AFRO BRAS    30081810 000008
10231987175000168916200163100    000020802                    000208020000000000000109                     I0120802     30081800000000035003410000017N070518104700000000000103008180000000000000000000000000000000000000000100005215608709KARYN GEYZA BATALHA BOECHAT             AVENIDA NOSSA SENHORA DE COPACABANA     COPACABANA  22060001RIO DE JANEIRO RJUNIAO UMB DOS CULTOS AFRO BRAS    30081810 000009
10231987175000168916200163100    000020801                    000208010000000000000109                     I0120801     30081800000000035003410000017N070518104700000000000103008180000000000000000000000000000000000000000100000905236793ROSE GREGO SILVA DE SOUZA               RUA FLEXAL                              INHAUMA     20766610RIO DE JANEIRO RJUNIAO UMB DOS CULTOS AFRO BRAS    30081810 000010
10231987175000168916200163100    000020800                    000208000000000000000109                     I0120800     30081800000000040003410000017N070518104700000000000103008180000000000000000000000000000000000000000100009005281766ANDREA JOSE DO NASCIMENTO               TRAVESSA JABOATAO                       PARQUE SUECI25041025DUQUE DE CAXIASRJUNIAO UMB DOS CULTOS AFRO BRAS    30081810 000011
10231987175000168916200163100    000020799                    000207990000000000000109                     I0120799     30081800000000035003410000017N070518104700000000000103008180000000000000000000000000000000000000000100051265699704MARIA FATIMA DE SOUSA                   RUA MAURITI DOS SANTOS                  EDEN        25525720SAO JOAO DE MERRJUNIAO UMB DOS CULTOS AFRO BRAS    30081810 000012
10231987175000168916200163100    000020798                    000207980000000000000109                     I0120798     30081800000000040003410000017N070518104700000000000103008180000000000000000000000000000000000000000100064494527734RONALDO ROSAS ALVES                     ESTRADA COMANDANTE                      PRATA       25976140TERESOPOLIS    RJUNIAO UMB DOS CULTOS AFRO BRAS    30081810 000013
10231987175000168916200163100    000020797                    000207970000000000000109                     I0120797     30081800000000035003410000017N070518104700000000000103008180000000000000000000000000000000000000000100060223170704MARIA DO CARMO DO NASCIMENTO S          RUA JOAO ADIL DE OLIVEIRA               IRAJA       21230175RIO DE JANEIRO RJUNIAO UMB DOS CULTOS AFRO BRAS    30081810 000014
10231987175000168916200163100    000020796                    000207960000000000000109                     I0120796     30081800000000040003410000017N070518104700000000000103008180000000000000000000000000000000000000000100008722484701ANA PAULA SILVA DA CRUZ                 RUA ELVIRA DA FONSECA                   LARGO DO TAN22733150RIO DE JANEIRO RJUNIAO UMB DOS CULTOS AFRO BRAS    30081810 000015
10231987175000168916200163100    000020795                    000207950000000000000109                     I0120795     30081800000000040003410000017N070518104700000000000103008180000000000000000000000000000000000000000100064506770749TERESINHA MARIA PEREIRA NOGUEI          RUA CAMELIA DOS SANTOS MENDES COUTO     CORTA VENTO 25963430TERESOPOLIS    RJUNIAO UMB DOS CULTOS AFRO BRAS    30081810 000016
10231987175000168916200163100    000020794                    000207940000000000000109                     I0120794     30081800000000040003410000017N070518104700000000000103008180000000000000000000000000000000000000000100075333112720FATIMA CRISTINA MARQUES DE ALM          RUA MANOEL CARREIRO DE MELLO            SAO PEDRO   25956080TERESOPOLIS    RJUNIAO UMB DOS CULTOS AFRO BRAS    30081810 000017
10231987175000168916200163100    000020793                    000207930000000000000109                     I0120793     30081800000000040003410000017N070518104700000000000103008180000000000000000000000000000000000000000100028095391700SERGIO GARCIA DE QUEIROZ                RUA MATO GROSSO                         SANTA CECILI25957250TERESOPOLIS    RJUNIAO UMB DOS CULTOS AFRO BRAS    30081810 000018
10231987175000168916200163100    000020792                    000207920000000000000109                     I0120792     30081800000000035003410000017N070518104700000000000103008180000000000000000000000000000000000000000100043397077753JOAO NORATO CEZARIO                     RUA POETA MANOEL BANDEIRA               CABUIS      26540260NILOPOLIS      RJUNIAO UMB DOS CULTOS AFRO BRAS    30081810 000019
10231987175000168916200163100    000020791                    000207910000000000000109                     I0120791     30081800000000040003410000017N070518104700000000000103008180000000000000000000000000000000000000000100012295676746JEFFERSON ANTONIO TELLES GALDI          RUA MOUZIN DE ALBUQUERQUE               SAO VICENTE 26178080BELFORD ROXO   RJUNIAO UMB DOS CULTOS AFRO BRAS    30081810 000020
10231987175000168916200163100    000020790                    000207900000000000000109                     I0120790     30081800000000040003410000017N070518104700000000000103008180000000000000000000000000000000000000000100091083532715MARCOS AURELIO PEREIRA RAMOS            RUA MATO GROSSO                         SANTA CECILI25957250TERESOPOLIS    RJUNIAO UMB DOS CULTOS AFRO BRAS    30081810 000021
10231987175000168916200163100    000020789                    000207890000000000000109                     I0120789     30081800000000035003410000017N070518104700000000000103008180000000000000000000000000000000000000000100063662329700MARCO LUIS FREITAS DE AMORIM            RUA DAS DALIAS                          VILA VALQUEI21330740RIO DE JANEIRO RJUNIAO UMB DOS CULTOS AFRO BRAS    30081810 000022
10231987175000168916200163100    000020788                    000207880000000000000109                     I0120788     30081800000000035003410000017N070518104700000000000103008180000000000000000000000000000000000000000100003526002762HELOISA HELENA DE OLIVEIRA DA           RUA DOUTOR MUNIZ                        CENTRO      26130020BELFORD ROXO   RJUNIAO UMB DOS CULTOS AFRO BRAS    30081810 000023
10231987175000168916200163100    000020787                    000207870000000000000109                     I0120787     30081800000000035003410000017N070518104700000000000103008180000000000000000000000000000000000000000100005436665730JORGE LUIZ VICTORIO LIMA                MARCOVALDI                              NOVA ESPERAN26113040BELFORD ROXO   RJUNIAO UMB DOS CULTOS AFRO BRAS    30081810 000024
10231987175000168916200163100    000020786                    000207860000000000000109                     I0120786     30081800000000040003410000017N070518104700000000000103008180000000000000000000000000000000000000000100003005342727MAURICIO ESTORQUE                       RUA AMERICO BERLIM                      JARDIM FEO  25965430TERESOPOLIS    RJUNIAO UMB DOS CULTOS AFRO BRAS    30081810 000025
10231987175000168916200163100    000020785                    000207850000000000000109                     I0120785     30081800000000040003410000017N070518104700000000000103008180000000000000000000000000000000000000000100008046598771ANTONIO DA SILVA BARBOSA                MARIA JOSE FERREIRA DUARTE              ERMITAGE    25975780TERESOPOLIS    RJUNIAO UMB DOS CULTOS AFRO BRAS    30081810 000026
10231987175000168916200163100    000020784                    000207840000000000000109                     I0120784     30081800000000040003410000017N070518104700000000000103008180000000000000000000000000000000000000000100009526018770VERONICA MARIA LIMA                     RUA KEMAL PALHA                         VILA SANTO A25040220DUQUE DE CAXIASRJUNIAO UMB DOS CULTOS AFRO BRAS    30081810 000027
10231987175000168916200163100    000020783                    000207830000000000000109                     I0120783     30081800000000040003410000017N070518104700000000000103008180000000000000000000000000000000000000000100001253277737MARIA JOSE DANTAS MOREIRA               RUA SETE DE JUNHO                       PRAIA DE MAU25925732MAGE           RJUNIAO UMB DOS CULTOS AFRO BRAS    30081810 000028
10231987175000168916200163100    000020782                    000207820000000000000109                     I0120782     30081800000000035003410000017N070518104700000000000103008180000000000000000000000000000000000000000100003250570596VERONICA LUCIA DA CRUZ                  ESTRADA DOUTOR FARRULA                  SAO FRANCISC26125400BELFORD ROXO   RJUNIAO UMB DOS CULTOS AFRO BRAS    30081810 000029
10231987175000168916200163100    000020781                    000207810000000000000109                     I0120781     30081800000000035003410000017N070518104700000000000103008180000000000000000000000000000000000000000100002527980740ARMANDO DE ALMEIDA                      PEDRO JOSE DE OLIVEIRA                  VARGEM GRAND27145231BARRA DO PIRAI RJUNIAO UMB DOS CULTOS AFRO BRAS    30081810 000030
10231987175000168916200163100    000020780                    000207800000000000000109                     I0120780     30081800000000035003410000017N070518104700000000000103008180000000000000000000000000000000000000000100005978854785ALEXANDRE MOTA DOS SANTOS               RUA: BRUNO SENDER                       JARDIM NOVA 26266040NOVA IGUACU    RJUNIAO UMB DOS CULTOS AFRO BRAS    30081810 000031
10231987175000168916200163100    000020779                    000207790000000000000109                     I0120779     30081800000000035003410000017N070518104700000000000103008180000000000000000000000000000000000000000100014907708793THIAGO CARVALHO VIDAL LIMA              RUA DONA DUCHA QUADRA 5 LOTE 7          MARIA CONGA 25900353MAGE           RJUNIAO UMB DOS CULTOS AFRO BRAS    30081810 000032
10231987175000168916200163100    000020778                    000207780000000000000109                     I0120778     30081800000000040003410000017N070518104700000000000103008180000000000000000000000000000000000000000100082187401715JOSE AUGUSTO DA PAIXAO                  RUA GOMES CARNEIRO                      SARACURUNA  25211050DUQUE DE CAXIASRJUNIAO UMB DOS CULTOS AFRO BRAS    30081810 000033
10231987175000168916200163100    000020777                    000207770000000000000109                     I0120777     30081800000000040003410000017N070518104700000000000103008180000000000000000000000000000000000000000100011622292766ROBERT HELENO MACEDO                    TRAVESSA JOSE CARRETEIRO                ENGENHOCA   24110444NITEROI        RJUNIAO UMB DOS CULTOS AFRO BRAS    30081810 000034
10231987175000168916200163100    000020776                    000207760000000000000109                     I0120776     30081800000000035003410000017N070518104700000000000103008180000000000000000000000000000000000000000100007337231792SAMANTHA PRISCILA MARQUES MORE          RUA INSPETOR CASTRO                     SARACURUNA  25211410DUQUE DE CAXIASRJUNIAO UMB DOS CULTOS AFRO BRAS    30081810 000035
10231987175000168916200163100    000020775                    000207750000000000000109                     I0120775     30081800000000035003410000017N070518104700000000000103008180000000000000000000000000000000000000000100060044055749SUELY DE FARIAS EDUARDO                 TRAVESSA: JAFIA                         CIDADE DE DE22772190RIO DE JANEIRO RJUNIAO UMB DOS CULTOS AFRO BRAS    30081810 000036
10231987175000168916200163100    000020774                    000207740000000000000109                     I0120774     30081800000000035003410000017N070518104700000000000103008180000000000000000000000000000000000000000100013118884703WESLEI FERREIRA DE CARVALHO             ESTRADA DO GUERENGUE                    TAQUARA     22713004RIO DE JANEIRO RJUNIAO UMB DOS CULTOS AFRO BRAS    30081810 000037
10231987175000168916200163100    000020773                    000207730000000000000109                     I0120773     30081800000000035003410000017N070518104700000000000103008180000000000000000000000000000000000000000100002176741781SUSI DE OLIVEIRA LOUREIRO               AVENIDA VICENTE DE CARVALHO             VICENTE DE C21371148RIO DE JANEIRO RJUNIAO UMB DOS CULTOS AFRO BRAS    30081810 000038
10231987175000168916200163100    000020772                    000207720000000000000109                     I0120772     30081800000000035003410000017N070518104700000000000103008180000000000000000000000000000000000000000100095846190715ANA MARIA NICANOR DE QUADRO             RUA: PASSO FUNDO                        JARDIM GUAND26298189NOVA IGUACU    RJUNIAO UMB DOS CULTOS AFRO BRAS    30081810 000039
10231987175000168916200163100    000020771                    000207710000000000000109                     I0120771     30081800000000035003410000017N070518104700000000000103008180000000000000000000000000000000000000000100001161586709ALEXANDRE PIMPAREL DA SILVA             RUA: COMENDADOR VENACIO                 PALHADA     26290204NOVA IGUACU    RJUNIAO UMB DOS CULTOS AFRO BRAS    30081810 000040
10231987175000168916200163100    000020770                    000207700000000000000109                     I0120770     30081800000000035003410000017N070518104700000000000103008180000000000000000000000000000000000000000100000000013086FABIO DA SILVA                          RUA: CAMORIM                            JARDIM DELAM26317140QUEIMADOS      RJUNIAO UMB DOS CULTOS AFRO BRAS    30081810 000041
10231987175000168916200163100    000020769                    000207690000000000000109                     I0120769     30081800000000035003410000017N070518104700000000000103008180000000000000000000000000000000000000000100010765062755IVONE JOAO PEDRO                        RUA MARMIARI                            SENADOR CAMA21831000RIO DE JANEIRO RJUNIAO UMB DOS CULTOS AFRO BRAS    30081810 000042
10231987175000168916200163100    000020768                    000207680000000000000109                     I0120768     30081800000000035003410000017N070518104700000000000103008180000000000000000000000000000000000000000100085957679720MARIA DA APARECIDA VICENTE DUQ          RUA: FRANCISCO VIOLTI                   HELIOPLOIS  26125440BELFORD ROXO   RJUNIAO UMB DOS CULTOS AFRO BRAS    30081810 000043
10231987175000168916200163100    000020767                    000207670000000000000109                     I0120767     30081800000000035003410000017N070518104700000000000103008180000000000000000000000000000000000000000100005933193704ANA PAULA DA SILVA SANTOS               RUA: APIACA                             JARDIM BARRO25267290DUQUE DE CAXIASRJUNIAO UMB DOS CULTOS AFRO BRAS    30081810 000044
10231987175000168916200163100    000020766                    000207660000000000000109                     I0120766     30081800000000035003410000017N070518104700000000000103008180000000000000000000000000000000000000000100010018753701PAULA DE BRITO                          RUA FRANCISCO VIOLTI                    HELIOPOLIS  26125440RIO DE JANEIRO RJUNIAO UMB DOS CULTOS AFRO BRAS    30081810 000045
10231987175000168916200163100    000020765                    000207650000000000000109                     I0120765     30081800000000035003410000017N070518104700000000000103008180000000000000000000000000000000000000000100003372466705SANDRO NASCIMENTO NOBREGA               RUA JOAO ROMARIZ                        RAMOS       21031700RIO DE JANEIRO RJUNIAO UMB DOS CULTOS AFRO BRAS    30081810 000046
10231987175000168916200163100    000020764                    000207640000000000000109                     I0120764     30081800000000035003410000017N070518104700000000000103008180000000000000000000000000000000000000000100085542091768SUELY PEREIRA DA SILVA CALIXTO          RICARDO XAVIER DA SILVEIRA              IMBARIE     25266005DUQUE DE CAXIASRJUNIAO UMB DOS CULTOS AFRO BRAS    30081810 000047
10231987175000168916200163100    000020763                    000207630000000000000109                     I0120763     30081800000000035003410000017N070518104700000000000103008180000000000000000000000000000000000000000100010718180747JOSE CARLOS MELO DA SILVA               RUA DEPUTADO SA REGO                    VILA SAO LUI25065030DUQUE DE CAXIASRJUNIAO UMB DOS CULTOS AFRO BRAS    30081810 000048
10231987175000168916200163100    000020762                    000207620000000000000109                     I0120762     30081800000000035003410000017N070518104700000000000103008180000000000000000000000000000000000000000100058756280734SANDRA REGINA DA CONCEICAO              RUA BUENOS AIRES                        JARDIM PERNA26275390NOVA IGUACU    RJUNIAO UMB DOS CULTOS AFRO BRAS    30081810 000049
10231987175000168916200163100    000020761                    000207610000000000000109                     I0120761     30081800000000035003410000017N070518104700000000000103008180000000000000000000000000000000000000000100032637128764MARLENE DA CRUZ                         AVENIDA ABILIO AUGUSTO TAVORA           VALVERDE    26290600NOVA IGUACU    RJUNIAO UMB DOS CULTOS AFRO BRAS    30081810 000050
10231987175000168916200163100    000020760                    000207600000000000000109                     I0120760     30081800000000035003410000017N070518104700000000000103008180000000000000000000000000000000000000000100049660632720MARINETE SANTOS DE OLIVEIRA             AVENIDA SANTA CRUZ                      SENADOR CAMA23010003RIO DE JANEIRO RJUNIAO UMB DOS CULTOS AFRO BRAS    30081810 000051
10231987175000168916200163100    000020759                    000207590000000000000109                     I0120759     30081800000000035003410000017N070518104700000000000103008180000000000000000000000000000000000000000100003253352730LUCINEA DUTRA MEDEIROS                  RUA EVALDO BRAGA                        INDEPENDENCI25645300PETROPOLIS     RJUNIAO UMB DOS CULTOS AFRO BRAS    30081810 000052
10231987175000168916200163100    000020758                    000207580000000000000109                     I0120758     30081800000000035003410000017N070518104700000000000103008180000000000000000000000000000000000000000100000858723778GEOVANI FERNANDA DA SILVA               RUA SOFIA BARRETO                       VITOR DUMAS 23550700RIO DE JANEIRO RJUNIAO UMB DOS CULTOS AFRO BRAS    30081810 000053
10231987175000168916200163100    000020757                    000207570000000000000109                     I0120757     30081800000000035003410000017N070518104700000000000103008180000000000000000000000000000000000000000100000227210700ROSIMAR TELLES DE SA                    RUA: ACAPU                              MARECHAL HER21550570RIO DE JANEIRO RJUNIAO UMB DOS CULTOS AFRO BRAS    30081810 000054
10231987175000168916200163100    000020756                    000207560000000000000109                     I0120756     30081800000000035003410000017N070518104700000000000103008180000000000000000000000000000000000000000100000919377793JOSE IVAN MARCELINO FILHO               RUA ERNANE PEREIRA                      CARLOS SAMPA26089115NOVA IGUACU    RJUNIAO UMB DOS CULTOS AFRO BRAS    30081810 000055
10231987175000168916200163100    000020755                    000207550000000000000109                     I0120755     30081800000000035003410000017N070518104700000000000103008180000000000000000000000000000000000000000100001649750714CRISTIANE JOSE DA SILVA                 AVENIDA CALOMBE                         PARQUE ELDOR25231020DUQUE DE CAXIASRJUNIAO UMB DOS CULTOS AFRO BRAS    30081810 000056
10231987175000168916200163100    000020754                    000207540000000000000109                     I0120754     30081800000000040003410000017N070518104700000000000103008180000000000000000000000000000000000000000100011700984799CRISTIANE SANTOS FEIJO VIEIRA           RUA NICOLAU TOUQUET                     JARDIM CATAR24716403SAO GONCALO    RJUNIAO UMB DOS CULTOS AFRO BRAS    30081810 000057
10231987175000168916200163100    000020753                    000207530000000000000109                     I0120753     30081800000000035003410000017N070518104700000000000103008180000000000000000000000000000000000000000100012345678900MARIA DA GRACA MACHADO DOS SAN          RUA ARCOBELO                            PARQUE ARARU25585560SAO JOAO DE MERRJUNIAO UMB DOS CULTOS AFRO BRAS    30081810 000058
10231987175000168916200163100    000020752                    000207520000000000000109                     I0120752     30081800000000035003410000017N070518104700000000000103008180000000000000000000000000000000000000000100004278587716LUCIANO GONCALVES PIRES                 RUA MARECHAL ANTONIO DE SOUSA           JARDIM AMERI21240430RIO DE JANEIRO RJUNIAO UMB DOS CULTOS AFRO BRAS    30081810 000059
10231987175000168916200163100    000020751                    000207510000000000000109                     I0120751     30081800000000035003410000017N070518104700000000000103008180000000000000000000000000000000000000000100010154945790SIMONE DE OLIVEIRA CUNHA                RUA ONZE                                JARDIM ROTSE25270080DUQUE DE CAXIASRJUNIAO UMB DOS CULTOS AFRO BRAS    30081810 000060
10231987175000168916200163100    000020750                    000207500000000000000109                     I0120750     30081800000000040003410000017N070518104700000000000103008180000000000000000000000000000000000000000100005234258726LUANNA RODRIGUES NASCIMENTO LO          RUA HERACLITO BUSQUET                   TABORDA     28680000CACHOEIRA DE MARJUNIAO UMB DOS CULTOS AFRO BRAS    30081810 000061
10231987175000168916200163100    000020749                    000207490000000000000109                     I0120749     30081800000000040003410000017N070518104700000000000103008180000000000000000000000000000000000000000100005770480742NARAYAMA MARTINS RODRIGUES LOU          RUA HERACLITO BUSQUET                   TABORDA     28680000CACHOEIRA DE MARJUNIAO UMB DOS CULTOS AFRO BRAS    30081810 000062
10231987175000168916200163100    000020748                    000207480000000000000109                     I0120748     30081800000000040003410000017N070518104700000000000103008180000000000000000000000000000000000000000100002965368736REGINA CONCEICAO                        AVENIDA BOQUEIRAO                       BOA VISTA   28680000CACHOEIRA DE MARJUNIAO UMB DOS CULTOS AFRO BRAS    30081810 000063
10231987175000168916200163100    000020747                    000207470000000000000109                     I0120747     30081800000000040003410000017N070518104700000000000103008180000000000000000000000000000000000000000100009963194761FERNANDO PECANHA PIRES                  RUA GENERAL BASILIO                     TABORDA     28680000CACHOEIRA DE MARJUNIAO UMB DOS CULTOS AFRO BRAS    30081810 000064
10231987175000168916200163100    000020746                    000207460000000000000109                     I0120746     30081800000000035003410000017N070518104700000000000103008180000000000000000000000000000000000000000100009491065777VIVIAN LUIZA FREITAS DE AGUIAR          RUA ITAPETININGA                        VICENTE DE C21370680RIO DE JANEIRO RJUNIAO UMB DOS CULTOS AFRO BRAS    30081810 000065
10231987175000168916200163100    000020745                    000207450000000000000109                     I0120745     30081800000000035003410000017N070518104700000000000103008180000000000000000000000000000000000000000100002331392730ANA MARIA DOS SANTOS VIEIRA             RUA CRUZ DE SOUZA                       CARMARY POSS26022281NOVA IGUACU    RJUNIAO UMB DOS CULTOS AFRO BRAS    30081810 000066
10231987175000168916200163100    000020744                    000207440000000000000109                     I0120744     30081800000000035003410000017N070518104700000000000103008180000000000000000000000000000000000000000100005964958702MARISLEY AMARO DE SOUZA                 RUA MONTE ALTO                          BANGU       21863010RIO DE JANEIRO RJUNIAO UMB DOS CULTOS AFRO BRAS    30081810 000067
10231987175000168916200163100    000020743                    000207430000000000000109                     I0120743     30081800000000035003410000017N070518104700000000000103008180000000000000000000000000000000000000000100003018847733MARIA AILHA BERNARDO PINTO              RUA RUBIAO JUNIOR                       CENTRO      23860000MANGARATIBA    RJUNIAO UMB DOS CULTOS AFRO BRAS    30081810 000068
10231987175000168916200163100    000020742                    000207420000000000000109                     I0120742     30081800000000035003410000017N070518104700000000000103008180000000000000000000000000000000000000000100089207963787NICEIA SANTOS FRANCA                    RUA SAPUCAI - BECO DO JORDAO            SANTA CRUZ  23550360RIO DE JANEIRO RJUNIAO UMB DOS CULTOS AFRO BRAS    30081810 000069
10231987175000168916200163100    000020741                    000207410000000000000109                     I0120741     30081800000000035003410000017N070518104700000000000103008180000000000000000000000000000000000000000100012345678910LUCIANO GONCALVES DE SOUZA              RUA CLARIMUNDO DE MELO                  PIEDADE     20740323RIO DE JANEIRO RJUNIAO UMB DOS CULTOS AFRO BRAS    30081810 000070
10231987175000168916200163100    000020740                    000207400000000000000109                     I0120740     30081800000000035003410000017N070518104700000000000103008180000000000000000000000000000000000000000100001162883707SUNEY MENEZES MACHADO                   ESTRADA: DO ENCANAMENTO                 BARBADO - CA23060000RIO DE JANEIRO RJUNIAO UMB DOS CULTOS AFRO BRAS    30081810 000071
10231987175000168916200163100    000020739                    000207390000000000000109                     I0120739     30081800000000035003410000017N070518104700000000000103008180000000000000000000000000000000000000000100004275325745MAIKE OLIVEIRA DA COSTA                 TRAVESSA: MARTA DA ROCHA                ABOLICAO    20755030RIO DE JANEIRO RJUNIAO UMB DOS CULTOS AFRO BRAS    30081810 000072
10231987175000168916200163100    000020738                    000207380000000000000109                     I0120738     30081800000000035003410000017N070518104700000000000103008180000000000000000000000000000000000000000100001298660750ROSEMBERG EFIGENIO BARBOSA              RUA: TANCREDO MARTINS COSTA             ENGENHO DE D20730310RIO DE JANEIRO RJUNIAO UMB DOS CULTOS AFRO BRAS    30081810 000073
10231987175000168916200163100    000020737                    000207370000000000000109                     I0120737     30081800000000035003410000017N070518104700000000000103008180000000000000000000000000000000000000000100050246534753TANIA MARIA DA SILVA OLIVEIRA           TRAVESSA: MARAJO                        LINDO PARQUE24420100SAO GONCALO    RJUNIAO UMB DOS CULTOS AFRO BRAS    30081810 000074
10231987175000168916200163100    000020736                    000207360000000000000109                     I0120736     30081800000000035003410000017N070518104700000000000103008180000000000000000000000000000000000000000100006915594736CINTIA FERREIRA                         AVENIDA: DAS AMERICAS                   BARRA DA TIJ22631004RIO DE JANEIRO RJUNIAO UMB DOS CULTOS AFRO BRAS    30081810 000075
10231987175000168916200163100    000020735                    000207350000000000000109                     I0120735     30081800000000035003410000017N070518104700000000000103008180000000000000000000000000000000000000000100011497058767DIEGO FERREIRA DA SILVA                 PRIMEIRO DE MAIO                        IPIRANGA    26293480NOVA IGUACU    RJUNIAO UMB DOS CULTOS AFRO BRAS    30081810 000076
10231987175000168916200163100    000020734                    000207340000000000000109                     I0120734     30081800000000035003410000017N070518104700000000000103008180000000000000000000000000000000000000000100044415443753ELIDE LEANDRO BARBOSA                   RUA: ENGENHEIRO PERICLES RIBEIRO        FONSECA     24130350NITEROI        RJUNIAO UMB DOS CULTOS AFRO BRAS    30081810 000077
10231987175000168916200163100    000020733                    000207330000000000000109                     I0120733     30081800000000035003410000017N070518104700000000000103008180000000000000000000000000000000000000000100003387547720APARECIDA DOS SANTOS                    RUA LAOS                                VILA HELIOPO26125170BELFORD ROXO   RJUNIAO UMB DOS CULTOS AFRO BRAS    30081810 000078
10231987175000168916200163100    000020732                    000207320000000000000109                     I0120732     30081800000000035003410000017N070518104700000000000103008180000000000000000000000000000000000000000100090219023700GUARACIARA CORREA PASCHOAL              RUA JOSE CABRAL                         VAL VERDE   26290783NOVA IGUACU    RJUNIAO UMB DOS CULTOS AFRO BRAS    30081810 000079
10231987175000168916200163100    000020731                    000207310000000000000109                     I0120731     30081800000000035003410000017N070518104700000000000103008180000000000000000000000000000000000000000100000640795706CELIA REGINA ALVES DE SOUZA CO          ESTRADA: SAO PEDRO                      VISTA ALEGRE24725240SAO GONCALO    RJUNIAO UMB DOS CULTOS AFRO BRAS    30081810 000080
10231987175000168916200163100    000020730                    000207300000000000000109                     I0120730     30081800000000035003410000017N070518104700000000000103008180000000000000000000000000000000000000000100007459837741LUIZ CARLOS CARDOSO                     O MESMO                                 O MESMO     25917040MAGE           RJUNIAO UMB DOS CULTOS AFRO BRAS    30081810 000081
10231987175000168916200163100    000020729                    000207290000000000000109                     I0120729     30081800000000035003410000017N070518104700000000000103008180000000000000000000000000000000000000000100023970090563MARCIA VIEIRA SALES                     O MESMO                                 O MESMO     22740220RIO DE JANEIRO RJUNIAO UMB DOS CULTOS AFRO BRAS    30081810 000082
10231987175000168916200163100    000020728                    000207280000000000000109                     I0120728     30081800000000035003410000017N070518104700000000000103008180000000000000000000000000000000000000000100011264005725MARECELO VIEIRA GUSMAN FILHO            MESMO                                   MESMO       23066470RIO DE JANEIRO RJUNIAO UMB DOS CULTOS AFRO BRAS    30081810 000083
10231987175000168916200163100    000020727                    000207270000000000000109                     I0120727     30081800000000035003410000017N070518104700000000000103008180000000000000000000000000000000000000000100001343022738LUCIANA FIGUEIRO COUTINHO DA S          O MESMO                                 O MESMO     22785600RIO DE JANEIRO RJUNIAO UMB DOS CULTOS AFRO BRAS    30081810 000084
10231987175000168916200163100    000020726                    000207260000000000000109                     I0120726     30081800000000035003410000017N070518104700000000000103008180000000000000000000000000000000000000000100006726905432DAYVIDY RAMON CANDIDO                   O MESMO                                 O MESMO     26415055JAPERI         RJUNIAO UMB DOS CULTOS AFRO BRAS    30081810 000085
10231987175000168916200163100    000020725                    000207250000000000000109                     I0120725     30081800000000035003410000017N070518104700000000000103008180000000000000000000000000000000000000000100053531396749VITALINA DOS SANTOS                     RUA SAQUAREMA                           GRAMACHO    25035425DUQUE DE CAXIASRJUNIAO UMB DOS CULTOS AFRO BRAS    30081810 000086
10231987175000168916200163100    000020724                    000207240000000000000109                     I0120724     30081800000000035003410000017N070518104700000000000103008180000000000000000000000000000000000000000100003604572746LUCIANA SANTOS DA SILVA DE LIM          O MESMO                                 O MESMO     25585110SAO JOAO DE MERRJUNIAO UMB DOS CULTOS AFRO BRAS    30081810 000087
10231987175000168916200163100    000020723                    000207230000000000000109                     I0120723     30081800000000035003410000017N070518104700000000000103008180000000000000000000000000000000000000000100009445907728VICTOR DOS SANTOS ALLEN                 RUA PEDRO TELES                         SAO JOAO DE 25515032SAO JOAO DE MERRJUNIAO UMB DOS CULTOS AFRO BRAS    30081810 000088
10231987175000168916200163100    000020722                    000207220000000000000109                     I0120722     30081800000000035003410000017N070518104700000000000103008180000000000000000000000000000000000000000100011549239759RENATA DE OLIVEIRA GASPAR               O MESMO                                 O MESMO     21350230RIO DE JANEIRO RJUNIAO UMB DOS CULTOS AFRO BRAS    30081810 000089
10231987175000168916200163100    000020721                    000207210000000000000109                     I0120721     30081800000000035003410000017N070518104700000000000103008180000000000000000000000000000000000000000100009145082707ELAINE CRISTINA DE MORAES               O MESMO                                 O MESMO     23063340RIO DE JANEIRO RJUNIAO UMB DOS CULTOS AFRO BRAS    30081810 000090
10231987175000168916200163100    000020720                    000207200000000000000109                     I0120720     30081800000000035003410000017N070518104700000000000103008180000000000000000000000000000000000000000100015429555134OBIRACI SILVA DO NASCIMENTO             O MESMO                                 O MESMO     24756280SAO GONCALO    RJUNIAO UMB DOS CULTOS AFRO BRAS    30081810 000091
10231987175000168916200163100    000020719                    000207190000000000000109                     I0120719     30081800000000035003410000017N070518104700000000000103008180000000000000000000000000000000000000000100006864504778FABIO GUILHERME DOS SANTOS              O MESMO                                 O MESMO     24723190SAO GONCALO    RJUNIAO UMB DOS CULTOS AFRO BRAS    30081810 000092
10231987175000168916200163100    000020718                    000207180000000000000109                     I0120718     30081800000000035003410000017N070518104700000000000103008180000000000000000000000000000000000000000100001234567890LUCIANO SOARES DA SILVA                 O MESMO                                 O MESMO     27910000MACAE          RJUNIAO UMB DOS CULTOS AFRO BRAS    30081810 000093
10231987175000168916200163100    000020717                    000207170000000000000109                     I0120717     30081800000000035003410000017N070518104700000000000103008180000000000000000000000000000000000000000100013849060705LEONARDO ENEDINA DE MELO                O MESMO                                 O MESMO     26050517NOVA IGUACU    RJUNIAO UMB DOS CULTOS AFRO BRAS    30081810 000094
10231987175000168916200163100    000020716                    000207160000000000000109                     I0120716     30081800000000035003410000017N070518104700000000000103008180000000000000000000000000000000000000000100082391106734CASSIO SOUZA DA COSTA                   O MESMO                                 O MESMO     26112220BELFORD ROXO   RJUNIAO UMB DOS CULTOS AFRO BRAS    30081810 000095
10231987175000168916200163100    000020715                    000207150000000000000109                     I0120715     30081800000000035003410000017N070518104700000000000103008180000000000000000000000000000000000000000100087798999787NILZETE DA CONCEICAO FELIX              O MESMO                                 O MESMO     25264030DUQUE DE CAXIASRJUNIAO UMB DOS CULTOS AFRO BRAS    30081810 000096
10231987175000168916200163100    000020714                    000207140000000000000109                     I0120714     30081800000000035003410000017N070518104700000000000103008180000000000000000000000000000000000000000100002882629729ANA PAULA DE SOUZA RIBEIRO VIL          O MESMO                                 O MESMO     21550130RIO DE JANEIRO RJUNIAO UMB DOS CULTOS AFRO BRAS    30081810 000097
10231987175000168916200163100    000020713                    000207130000000000000109                     I0120713     30081800000000035003410000017N070518104700000000000103008180000000000000000000000000000000000000000100004842101490MARIA DE LOURDES FARIAS DOS SA          RUA HELIO DE OLIVEIRA LOTE 29 QUADRA 407PARADA MORAB25000000DUQUE DE CAXIASRJUNIAO UMB DOS CULTOS AFRO BRAS    30081810 000098
10231987175000168916200163100    000020712                    000207120000000000000109                     I0120712     30081800000000035003410000017N070518104700000000000103008180000000000000000000000000000000000000000100004253784704ALEXANDRE SIMOES NASCIMENTO             RUA SEBASTIAO DRUMOND N 179             ANCHIETA - R21640360RIO DE JANEIRO RJUNIAO UMB DOS CULTOS AFRO BRAS    30081810 000099
10231987175000168916200163100    000020711                    000207110000000000000109                     I0120711     30081800000000035003410000017N070518104700000000000103008180000000000000000000000000000000000000000100004474701755JACIRA DE ALMEIDA BATISTA JULI          O MESMO                                 O MESMO     25225660DUQUE DE CAXIASRJUNIAO UMB DOS CULTOS AFRO BRAS    30081810 000100
10231987175000168916200163100    000020710                    000207100000000000000109                     I0120710     30081800000000035003410000017N070518104700000000000103008180000000000000000000000000000000000000000100077068505791JOSE CLEZIO DE SOUZA                    O MESMO                                 O MESMO     21331100RIO DE JANEIRO RJUNIAO UMB DOS CULTOS AFRO BRAS    30081810 000101
10231987175000168916200163100    000020709                    000207090000000000000109                     I0120709     30081800000000035003410000017N070518104700000000000103008180000000000000000000000000000000000000000100006424589880LUIZ CARLOS BRITO                       O MESMO                                 O MESMO     26063230NOVA IGUACU    RJUNIAO UMB DOS CULTOS AFRO BRAS    30081810 000102
10231987175000168916200163100    000020708                    000207080000000000000109                     I0120708     30081800000000035003410000017N070518104700000000000103008180000000000000000000000000000000000000000100007299785757EDSON NUNES DE SOUZA FILHO              O MESMO                                 O MESMO     24415050SAO GONCALO    RJUNIAO UMB DOS CULTOS AFRO BRAS    30081810 000103
10231987175000168916200163100    000020707                    000207070000000000000109                     I0120707     30081800000000035003410000017N070518104700000000000103008180000000000000000000000000000000000000000100009250353782LUIZ CARLOS MATOLA                      APIACA                                  JARDIM PRIMA25056270DUQUE DE CAXIASRJUNIAO UMB DOS CULTOS AFRO BRAS    30081810 000104
10231987175000168916200163100    000020706                    000207060000000000000109                     I0120706     30081800000000035003410000017N070518104700000000000103008180000000000000000000000000000000000000000100012345678910LUCIANA LUISA PEREIRA                   AVENIDA PORTO SEGURO N 469              LAGOMAR - MA27966870MACAE          RJUNIAO UMB DOS CULTOS AFRO BRAS    30081810 000105
10231987175000168916200163100    000020705                    000207050000000000000109                     I0120705     30081800000000035003410000017N070518104700000000000103008180000000000000000000000000000000000000000100012464631728DIEGO TACITO COSTA HENRIQUE             RUA YONE MUZZI N 59                     MALVINAS - M27946310MACAE          RJUNIAO UMB DOS CULTOS AFRO BRAS    30081810 000106
10231987175000168916200163100    000020704                    000207040000000000000109                     I0120704     30081800000000035003410000017N070518104700000000000103008180000000000000000000000000000000000000000200000000012990MARIA DA PENHA CORREA PINTO             RUA 1 CONDOMINIO 1 CASA 34              BOSQUE AZUL 27971250MACAE          RJUNIAO UMB DOS CULTOS AFRO BRAS    30081810 000107
10231987175000168916200163100    000020703                    000207030000000000000109                     I0120703     30081800000000035003410000017N070518104700000000000103008180000000000000000000000000000000000000000100078514533568PAULO SERGIO SANTOS SANTANA             RUA: W 12 -  TRAVESSA SENA CASA 10      LAGOMAR - MA27966590MACAE          RJUNIAO UMB DOS CULTOS AFRO BRAS    30081810 000108
10231987175000168916200163100    000020702                    000207020000000000000109                     I0120702     30081800000000035003410000017N070518104700000000000103008180000000000000000000000000000000000000000100010267774702NATHALIA SOUTELINHO FERREIRA            MARIA NATALIA                           GUARATIBA   23028270RIO DE JANEIRO RJUNIAO UMB DOS CULTOS AFRO BRAS    30081810 000109
10231987175000168916200163100    000020701                    000207010000000000000109                     I0120701     30081800000000035003410000017N070518104700000000000103008180000000000000000000000000000000000000000100007208431701WEMERSON JOAO FARIAS DA SILVA           RUA: C N 3 LOTE 3 QUADRA G              SEPETIBA - R23545040RIO DE JANEIRO RJUNIAO UMB DOS CULTOS AFRO BRAS    30081810 000110
10231987175000168916200163100    000020700                    000207000000000000000109                     I0120700     30081800000000035003410000017N070518104700000000000103008180000000000000000000000000000000000000000100073960560710CLAUDIA MARIA DE OLIVEIRA DOS           RUA: CARATUVA N 145                     JARDIM SULAC22725020RIO DE JANEIRO RJUNIAO UMB DOS CULTOS AFRO BRAS    30081810 000111
10231987175000168916200163100    000020699                    000206990000000000000109                     I0120699     30081800000000035003410000017N070518104700000000000103008180000000000000000000000000000000000000000100014933850704LIDIA GABRIELLE DIAS RIBEIRO            RUA JORGE BRAGANCA SN LOTE 28 QUADRA 70 BOM PASTOR -26110080BELFORD ROXO   RJUNIAO UMB DOS CULTOS AFRO BRAS    30081810 000112
10231987175000168916200163100    000020698                    000206980000000000000109                     I0120698     30081800000000035003410000017N070518104700000000000103008180000000000000000000000000000000000000000100097990531704CICERO ROGERIO DA SILVA MATOS           RUA: ROBERTO N 99                       VILA GUIMARA26088425NOVA IGUACU    RJUNIAO UMB DOS CULTOS AFRO BRAS    30081810 000113
10231987175000168916200163100    000020697                    000206970000000000000109                     I0120697     30081800000000035003410000017N070518104700000000000103008180000000000000000000000000000000000000000100001478776790CLEUSA FERREIRA PEREIRA                 RUA THEREMIN N 393                      COELHO NETO 21530290RIO DE JANEIRO RJUNIAO UMB DOS CULTOS AFRO BRAS    30081810 000114
10231987175000168916200163100    000020696                    000206960000000000000109                     I0120696     30081800000000035003410000017N070518104700000000000103008180000000000000000000000000000000000000000100067424647734MARCIA VALERIA VALIATI DOS SAN          RUA CONSTANCA BARBOSA N 65 APT 202      MEIER - RIO 20735090RIO DE JANEIRO RJUNIAO UMB DOS CULTOS AFRO BRAS    30081810 000115
10231987175000168916200163100    000020695                    000206950000000000000109                     I0120695     30081800000000035003410000017N070518104700000000000103008180000000000000000000000000000000000000000100010292272766MARCIA JUPIRA SANTOS GONZAGA            RUA ANTONIO FELIX N 457                 CENTRO - NIL26520081NILOPOLIS      RJUNIAO UMB DOS CULTOS AFRO BRAS    30081810 000116
10231987175000168916200163100    000020694                    000206940000000000000109                     I0120694     30081800000000035003410000017N070518104700000000000103008180000000000000000000000000000000000000000100090490894704EVELINE DA CONCEICAO                    AVENIDA ATLANTIDA  SN                   LAGOMAR - MA27966000MACAE          RJUNIAO UMB DOS CULTOS AFRO BRAS    30081810 000117
10231987175000168916200163100    000020693                    000206930000000000000109                     I0120693     30081800000000035003410000017N070518104700000000000103008180000000000000000000000000000000000000000100013397736781JOVANE RANGEL DA SILVA                  RUA SILVA JARDIM N 200                  CENTRO - MAC27910340MACAE          RJUNIAO UMB DOS CULTOS AFRO BRAS    30081810 000118
10231987175000168916200163100    000020692                    000206920000000000000109                     I0120692     30081800000000035003410000017N070518104700000000000103008180000000000000000000000000000000000000000100004188514760LUIZ CARLOS PEREIRA DA SILVA            RUA W N 24 TRAVESSA 13                  LAGOMAR - MA27966755MACAE          RJUNIAO UMB DOS CULTOS AFRO BRAS    30081810 000119
10231987175000168916200163100    000020691                    000206910000000000000109                     I0120691     30081800000000035003410000017N070518104700000000000103008180000000000000000000000000000000000000000100016492108760TIAGO LOPES DE AZEVEDO SILVA            RUA X N 24 QUADRA 82                    PARADA MODEL25943365GUAPIMIRIM     RJUNIAO UMB DOS CULTOS AFRO BRAS    30081810 000120
10231987175000168916200163100    000020690                    000206900000000000000109                     I0120690     30081800000000035003410000017N070518104700000000000103008180000000000000000000000000000000000000000200000000012966LEONARDO EUGENIO DOS SANTOS             RUA LUIZ PINTO DA SILVA N 547           PRAIA CAMPIS27923200MACAE          RJUNIAO UMB DOS CULTOS AFRO BRAS    30081810 000121
10231987175000168916200163100    000020689                    000206890000000000000109                     I0120689     30081800000000035003410000017N070518104700000000000103008180000000000000000000000000000000000000000100095181890725ALEXANDRE DE SOUZA TAVARES SEN          O MESMO                                 O MESMO     26260230NOVA IGUACU    RJUNIAO UMB DOS CULTOS AFRO BRAS    30081810 000122
10231987175000168916200163100    000020688                    000206880000000000000109                     I0120688     30081800000000035003410000017N070518104700000000000103008180000000000000000000000000000000000000000100014527767763THIERRY PADILHA MOTA                    RUA ALCIR BRASIL N 706                  JARDIM NOVA 26266010NOVA IGUACU    RJUNIAO UMB DOS CULTOS AFRO BRAS    30081810 000123
10231987175000168916200163100    000020687                    000206870000000000000109                     I0120687     30081800000000035003410000017N070518104700000000000103008180000000000000000000000000000000000000000100011122717750RODRIGO DINIZ DA COSTA                  RUA ENGENHO DE DENTRO N 177 LOTE 26 QUADVILAR DOS TE25565230SAO JOAO DE MERRJUNIAO UMB DOS CULTOS AFRO BRAS    30081810 000124
10231987175000168916200163100    000020686                    000206860000000000000109                     I0120686     30081800000000035003410000017N070518104700000000000103008180000000000000000000000000000000000000000100013090350750REINALDO GONCALVES DE OLIVEIRA          RUA DOMINGOS LEMOS N 99                 COELHO DA RO25550721SAO JOAO DE MERRJUNIAO UMB DOS CULTOS AFRO BRAS    30081810 000125
10231987175000168916200163100    000020685                    000206850000000000000109                     I0120685     30081800000000035003410000017N070518104700000000000103008180000000000000000000000000000000000000000100005953749724JUCIARA DA SILVA XAVIER                 RUA CONDE DE AZAMBUJA N 526             MARIA DA GRA20785342RIO DE JANEIRO RJUNIAO UMB DOS CULTOS AFRO BRAS    30081810 000126
10231987175000168916200163100    000020684                    000206840000000000000109                     I0120684     30081800000000035003410000017N070518104700000000000103008180000000000000000000000000000000000000000100006110323764WAGNER MATOS DA SILVA                   RUA OLINDA Nº 425 CASA 3               BELA VISTA -26175350BELFORD ROXO   RJUNIAO UMB DOS CULTOS AFRO BRAS    30081810 000127
10231987175000168916200163100    000020683                    000206830000000000000109                     I0120683     30081800000000035003410000017N070518104700000000000103008180000000000000000000000000000000000000000100092111777749WANDERLEY DOS SANTOS MENDES             PRACA EMBOABA Nº 67                    ENGENHO DA R20761160RIO DE JANEIRO RJUNIAO UMB DOS CULTOS AFRO BRAS    30081810 000128
10231987175000168916200163100    000020682                    000206820000000000000109                     I0120682     30081800000000035003410000017N070518104700000000000103008180000000000000000000000000000000000000000100009416663794IGOR DO NASCIMENTO RODRIGUES            RUA FIGUEIREDO ROCHA N 665              VIGARIO GERA21240660RIO DE JANEIRO RJUNIAO UMB DOS CULTOS AFRO BRAS    30081810 000129
10231987175000168916200163100    000020681                    000206810000000000000109                     I0120681     30081800000000035003410000017N070518104700000000000103008180000000000000000000000000000000000000000100090432894772ALTAMIRO DAMASCENO MONCAO               RUA TENERIFE N 8 - PARADA DE LUCAS      PARADA DE LU21010000RIO DE JANEIRO RJUNIAO UMB DOS CULTOS AFRO BRAS    30081810 000130
10231987175000168916200163100    000020680                    000206800000000000000109                     I0120680     30081800000000035003410000017N070518104700000000000103008180000000000000000000000000000000000000000100040664325734GENI BARBOSA ROCHA DA SILVA             O MESMO                                 O MESMO     25268020RIO DE JANEIROIRJUNIAO UMB DOS CULTOS AFRO BRAS    30081810 000131
10231987175000168916200163100    000020679                    000206790000000000000109                     I0120679     30081800000000035003410000017N070518104700000000000103008180000000000000000000000000000000000000000100011834931770LEANDRO BARROS DA SILVA                 RUA ROMARIO SILVA N 40                  KENNEDY - NO26020640NOVA IGUACU    RJUNIAO UMB DOS CULTOS AFRO BRAS    30081810 000132
10231987175000168916200163100    000020678                    000206780000000000000109                     I0120678     30081800000000035003410000017N070518104700000000000103008180000000000000000000000000000000000000000100069279500791CLAUDIA ALONSO RODRIGUES                ESTRADA DO PAU FERRO N 851              FREGUESIA - 22745055RIO DE JANEIRO RJUNIAO UMB DOS CULTOS AFRO BRAS    30081810 000133
10231987175000168916200163100    000020677                    000206770000000000000109                     I0120677     30081800000000035003410000017N070518104700000000000103008180000000000000000000000000000000000000000100087306689720JANAINA SANTA CRUZ COSTA                ALAMEDA SANTO ANTONIO N 974             SEPETIBA - R23535660RIO DE JANEIRO RJUNIAO UMB DOS CULTOS AFRO BRAS    30081810 000134
10231987175000168916200163100    000020676                    000206760000000000000109                     I0120676     30081800000000035003410000017N070518104700000000000103008180000000000000000000000000000000000000000100092915434700MARIA MANOLA GIL DE ALMEIDA             RUA MARQUES GUIMARAES N 19              IRAJA - RIO 21230820RIO DE JANEIRO RJUNIAO UMB DOS CULTOS AFRO BRAS    30081810 000135
10231987175000168916200163100    000020675                    000206750000000000000109                     I0120675     30081800000000035003410000017N070518104700000000000103008180000000000000000000000000000000000000000100060210389753ROZANA DOS SANTOS                       RUA MARANHAO N 1057 RUA B CASA 73       MEIER - RIO 23060720RIO DE JANEIRO RJUNIAO UMB DOS CULTOS AFRO BRAS    30081810 000136
10231987175000168916200163100    000020674                    000206740000000000000109                     I0120674     30081800000000035003410000017N070518104700000000000103008180000000000000000000000000000000000000000100088041883753JORGE COSTA BRAGA FILHO                 RUA MARQUES DE JACAREPAGUA N 707 BLOCO 2TAQUARA - RI22730290RIO DE JANEIRO RJUNIAO UMB DOS CULTOS AFRO BRAS    30081810 000137
10231987175000168916200163100    000020673                    000206730000000000000109                     I0120673     30081800000000035003410000017N070518104700000000000103008180000000000000000000000000000000000000000100016618405742MILTON CARLOS JUNIO QUINTANILH          RUA SEIS LOTES 13 E 14 QUADRA 8         PARADA MORAB25265000DUQUE DE CAXIASRJUNIAO UMB DOS CULTOS AFRO BRAS    30081810 000138
10231987175000168916200163100    000020672                    000206720000000000000109                     I0120672     30081800000000035003410000017N070518104700000000000103008180000000000000000000000000000000000000000100005234763706LUCIANA FERREIRA DE ALMEIDA             RUA QUATRO LOTE 1 QUADRA 258            PARADA MORAB25265220DUQUE DE CAXIASRJUNIAO UMB DOS CULTOS AFRO BRAS    30081810 000139
10231987175000168916200163100    000020671                    000206710000000000000109                     I0120671     30081800000000035003410000017N070518104700000000000103008180000000000000000000000000000000000000000100012009305760DEBORA CRISTINA DE OLIVEIRA BR          RUA ORLANDO CARLOS DA CONCEICAO N 10    COROA GRANDE23820800ITAGUAI        RJUNIAO UMB DOS CULTOS AFRO BRAS    30081810 000140
10231987175000168916200163100    000020670                    000206700000000000000109                     I0120670     30081800000000035003410000017N070518104700000000000103008180000000000000000000000000000000000000000100000759136742ADRIANA LAPORT ALVES                    RUA DONA CLARA DE ARAUJO N 681          ANDRADE ARAU26010390NOVA IGUACU    RJUNIAO UMB DOS CULTOS AFRO BRAS    30081810 000141
10231987175000168916200163100    000020669                    000206690000000000000109                     I0120669     30081800000000035003410000017N070518104700000000000103008180000000000000000000000000000000000000000100084301724753ANA LUCIA FERREIRA DA SILVA             RUA HUGO CESAR MONTEIRO DA SILVA N 42   CAICARA - NO26015000NOVA IGUACU    RJUNIAO UMB DOS CULTOS AFRO BRAS    30081810 000142
10231987175000168916200163100    000020668                    000206680000000000000109                     I0120668     30081800000000035003410000017N070518104700000000000103008180000000000000000000000000000000000000000100090618254749NELY MOREIRA GOMES                      RUA GOMES CARNEIRO SN LOTE 12 QUADRA 60 SARACURUNA -25211050DUQUE DE CAXIASRJUNIAO UMB DOS CULTOS AFRO BRAS    30081810 000143
10231987175000168916200163100    000020667                    000206670000000000000109                     I0120667     30081800000000035003410000017N070518104700000000000103008180000000000000000000000000000000000000000100065000366700DULCINEIA DA SILVA MENDONCA             RUA ALBERTINO LADEIRA N 63              MONTE CASTEL26041510NOVA IGUACU    RJUNIAO UMB DOS CULTOS AFRO BRAS    30081810 000144
10231987175000168916200163100    000020666                    000206660000000000000109                     I0120666     30081800000000035003410000017N070518104700000000000103008180000000000000000000000000000000000000000100012450258728MONIQUE RODRIGUES DE ALMEIDA            RUA CESAR N 277                         REALENGO - R21750400RIO DE JANEIRO RJUNIAO UMB DOS CULTOS AFRO BRAS    30081810 000145
10231987175000168916200163100    000020665                    000206650000000000000109                     I0120665     30081800000000035003410000017N070518104700000000000103008180000000000000000000000000000000000000000100008578432738WANDERSON DOS SANTOS LOPES              RUA SATURNO SN QUADRA 12 LOTE 16        VILA GENI - 23825517COROA GRANDE   RJUNIAO UMB DOS CULTOS AFRO BRAS    30081810 000146
10231987175000168916200163100    000020664                    000206640000000000000109                     I0120664     30081800000000035003410000017N070518104700000000000103008180000000000000000000000000000000000000000100058365737787ALTAMIRA ROSA                           AVENIDA DO CONTORNO 17                  PARADA MORAB25000000DUQUE DE CAXIASRJUNIAO UMB DOS CULTOS AFRO BRAS    30081810 000147
10231987175000168916200163100    000020663                    000206630000000000000109                     I0120663     30081800000000035003410000017N070518104700000000000103008180000000000000000000000000000000000000000100074171372704ELIANE DE SOUZA MACHADO                 RUA ROQUETE PINTO LOTE 22 QUADRA 290 CASJARDIM ANHAN25265200DUQUE DE CAXIASRJUNIAO UMB DOS CULTOS AFRO BRAS    30081810 000148
10231987175000168916200163100    000020662                    000206620000000000000109                     I0120662     30081800000000035003410000017N070518104700000000000103008180000000000000000000000000000000000000000100053218833787MARLUCE SUELY DA SILVA                  RUA CHRISOSTOMO PIMENTEL DE OLIVEIRA, 63ANCHIETA - R21645521RIO DE JANEIRO RJUNIAO UMB DOS CULTOS AFRO BRAS    30081810 000149
10231987175000168916200163100    000020661                    000206610000000000000109                     I0120661     30081800000000035003410000017N070518104700000000000103008180000000000000000000000000000000000000000100010262557754EDGAR SODRE BANI                        RUA B N 20  LOTE 7 QUADRA 255           PARADA MORAB25265220DUQUE DE CAXIASRJUNIAO UMB DOS CULTOS AFRO BRAS    30081810 000150
10231987175000168916200163100    000020660                    000206600000000000000109                     I0120660     30081800000000035003410000017N070518104700000000000103008180000000000000000000000000000000000000000100006876928730DIONE ASSUNCAO SOARES                   RUA SILVIA VIEIRA SN  LOTE 24           FAZENDA SOSS26088475NOVA IGUACU    RJUNIAO UMB DOS CULTOS AFRO BRAS    30081810 000151
10231987175000168916200163100    000020659                    000206590000000000000109                     I0120659     30081800000000035003410000017N070518104700000000000103008180000000000000000000000000000000000000000100063268876749JORGE DA COSTA BARRETO                  AVENIDA JOAQUIM COSTA LIMA LOTE 27 QUADRCENTRO - BEL26112055BELFORD ROXO   RJUNIAO UMB DOS CULTOS AFRO BRAS    30081810 000152
10231987175000168916200163100    000020658                    000206580000000000000109                     I0120658     30081800000000035003410000017N070518104700000000000103008180000000000000000000000000000000000000000100003798443700ALINE MODINA TELLES                     RUA DETETIVE PARADA N 8                 VILA DA PENH21221060RIO DE JANEIRO RJUNIAO UMB DOS CULTOS AFRO BRAS    30081810 000153
10231987175000168916200163100    000020657                    000206570000000000000109                     I0120657     30081800000000035003410000017N070518104700000000000103008180000000000000000000000000000000000000000100079882749704IRIS BRASILINO VILELA                   RUA SETE DE SETEMBRO N 183              CAMARI - NOV26022202NOVA IGUACU    RJUNIAO UMB DOS CULTOS AFRO BRAS    30081810 000154
10231987175000168916200163100    000020656                    000206560000000000000109                     I0120656     30081800000000035003410000017N070518104700000000000103008180000000000000000000000000000000000000000100084441372787LUCIA HELENA DE OLIVEIRA GAMA           RUA PEDRO ANTONIO PEREIRA N 270 FUNDOS  AERO CLUBE -26285291NOVA IGUACU    RJUNIAO UMB DOS CULTOS AFRO BRAS    30081810 000155
10231987175000168916200163100    000020655                    000206550000000000000109                     I0120655     30081800000000035003410000017N070518104700000000000103008180000000000000000000000000000000000000000100082191638791RITA DE CASSIA VALVERDE ROCHA           RUA JOAQUIM SOARES NETO N 250           NOVA AMERICA26021560NOVA IGUACU    RJUNIAO UMB DOS CULTOS AFRO BRAS    30081810 000156
10231987175000168916200163100    000020654                    000206540000000000000109                     I0120654     30081800000000035003410000017N070518104700000000000103008180000000000000000000000000000000000000000100011590456742WANILA LIMA DE BRITO                    RUA REDENTOR LOTE 5 QUADRA 18 CASA 2 FUNJARDIM REDEN26110090BELFORD ROXO   RJUNIAO UMB DOS CULTOS AFRO BRAS    30081810 000157
10231987175000168916200163100    000020653                    000206530000000000000109                     I0120653     30081800000000035003410000017N070518104700000000000103008180000000000000000000000000000000000000000100069052735700ROSANE MARQUES FERREIRA                 ESTRADA DO TINGUI N 2315 CASA 24        CAMPO GRANDE23075006RIO DE JANEIRO RJUNIAO UMB DOS CULTOS AFRO BRAS    30081810 000158
10231987175000168916200163100    000020652                    000206520000000000000109                     I0120652     30081800000000035003410000017N070518104700000000000103008180000000000000000000000000000000000000000100014520518792STEPHANI MATOS MONTEIRO                 ESTRADA DOUTOR PLINIO CASADO N 3599     CENTRO - BEL26130622BELFORD ROXO   RJUNIAO UMB DOS CULTOS AFRO BRAS    30081810 000159
10231987175000168916200163100    000020651                    000206510000000000000109                     I0120651     30081800000000035003410000017N070518104700000000000103008180000000000000000000000000000000000000000100012727461780SUELMIR LIMA DE ARAUJO                  RUA NOSSA SENHORA DAS GRACAS N 98       PRAIA DO ANI25925708MAGE           RJUNIAO UMB DOS CULTOS AFRO BRAS    30081810 000160
10231987175000168916200163100    000020650                    000206500000000000000109                     I0120650     30081800000000035003410000017N070518104700000000000103008180000000000000000000000000000000000000000100009653128795FERNANDO RIBEIRO DE SOUZA               RUA JOAO PEDRO TESCH N 332 D            ALTO DA SERR25635500PETROPOLIS     RJUNIAO UMB DOS CULTOS AFRO BRAS    30081810 000161
10231987175000168916200163100    000020649                    000206490000000000000109                     I0120649     30081800000000035003410000017N070518104700000000000103008180000000000000000000000000000000000000000100002142304737ILAIR FERNANDES BRAZILEIRO BOR          RUA VERISSIMO MACHADO N 395 FUNDOS      ROCHA MIRAND21545060RIO DE JANEIRO RJUNIAO UMB DOS CULTOS AFRO BRAS    30081810 000162
10231987175000168916200163100    000020648                    000206480000000000000109                     I0120648     30081800000000035003410000017N070518104700000000000103008180000000000000000000000000000000000000000100001346375771CRISTIANE MARIANO RAPELLO               ESTRADA ALBERTO TEIXEIRA CUNHA N 1410 CANILOPOLIS - 26520070NILOPOLIS      RJUNIAO UMB DOS CULTOS AFRO BRAS    30081810 000163
10231987175000168916200163100    000020647                    000206470000000000000109                     I0120647     30081800000000035003410000017N070518104700000000000103008180000000000000000000000000000000000000000100011351878786GLEISSON BITTENCOURT DA SILVA           RUA FLORA DE ARAUJO N 310               PRATA - NOVA26010570NOVA IGUACU    RJUNIAO UMB DOS CULTOS AFRO BRAS    30081810 000164
10231987175000168916200163100    000020646                    000206460000000000000109                     I0120646     30081800000000035003410000017N070518104700000000000103008180000000000000000000000000000000000000000100000839586736MAURO CESAR BRANCO OBERLAENDER          RUA IGUARIM N 104 - REALENGO            REALENGO - R21765540RIO DE JANEIRO RJUNIAO UMB DOS CULTOS AFRO BRAS    30081810 000165
10231987175000168916200163100    000020645                    000206450000000000000109                     I0120645     30081800000000035003410000017N070518104700000000000103008180000000000000000000000000000000000000000100005225598757JOSUE DA SILVA SANTOS                   RUA BARAO DO AMAPA S/N LOTE 1 QUADRA 40 AMAPA - DUQU21211007DUQUE DE CAXIASRJUNIAO UMB DOS CULTOS AFRO BRAS    30081810 000166
10231987175000168916200163100    000020644                    000206440000000000000109                     I0120644     30081800000000035003410000017N070518104700000000000103008180000000000000000000000000000000000000000100011766861784MARIA WANDERLEIA MARTINS CRUZ           RUA BRUNO LECINI N 375                  AUSTIN - NOV26279255NOVA IGUACU    RJUNIAO UMB DOS CULTOS AFRO BRAS    30081810 000167
10231987175000168916200163100    000020643                    000206430000000000000109                     I0120643     30081800000000035003410000017N070518104700000000000103008180000000000000000000000000000000000000000100070645523704RICARDO DE SOUZA LIMA                   RUA MAJOR AZEVEDO 344                   IRAJA       21230060RIO DE JANEIRO RJUNIAO UMB DOS CULTOS AFRO BRAS    30081810 000168
10231987175000168916200163100    000020642                    000206420000000000000109                     I0120642     30081800000000035003410000017N070518104700000000000103008180000000000000000000000000000000000000000100015110892709YASMIN FIALHO HANGES                    ESTRADA HENRIQUE DE MELO N 193 FUNDOS   BENTO RIBEIR21340190RIO DE JANEIRO RJUNIAO UMB DOS CULTOS AFRO BRAS    30081810 000169
10231987175000168916200163100    000020641                    000206410000000000000109                     I0120641     30081800000000035003410000017N070518104700000000000103008180000000000000000000000000000000000000000100009503848792JORGE ALEXANDRE TEIXEIRA BRAZ           RUA CAJUIPE N 163 CASA 1                BONSUCESSO -21060490RIO DE JANEIRO RJUNIAO UMB DOS CULTOS AFRO BRAS    30081810 000170
10231987175000168916200163100    000020640                    000206400000000000000109                     I0120640     30081800000000035003410000017N070518104700000000000103008180000000000000000000000000000000000000000100030894840720LIGIA REGINA ZACHARIAS DE MELO          RUA LAGO VERDE N 19 APT 302             INHAUMA - RI21051360RIO DE JANEIRO RJUNIAO UMB DOS CULTOS AFRO BRAS    30081810 000171
10231987175000168916200163100    000020639                    000206390000000000000109                     I0120639     30081800000000035003410000017N070518104700000000000103008180000000000000000000000000000000000000000100007443282761WASHINGTON LUIZ DA SILVA RAMOS          RUA DEZESSETE N 78 - CONJUNTO LIBERDADE SANTA CRUZ -23560600RIO DE JANEIRO RJUNIAO UMB DOS CULTOS AFRO BRAS    30081810 000172
10231987175000168916200163100    000020638                    000206380000000000000109                     I0120638     30081800000000035003410000017N070518104700000000000103008180000000000000000000000000000000000000000100007964006797JOSILENE MONTEIRO HERMOGENES            RUA PADRE MARINHO N 309                 SARACURUNA -25212450DUQUE DE CAXIASRJUNIAO UMB DOS CULTOS AFRO BRAS    30081810 000173
10231987175000168916200163100    000020637                    000206370000000000000109                     I0120637     30081800000000035003410000017N070518104700000000000103008180000000000000000000000000000000000000000100010544644701RENATA DE OLIVEIRA SILVA                RUA NOSSA SENHORA DE NAZARE N 23 A      GERENCIANO -26061700NOVA IGUACU    RJUNIAO UMB DOS CULTOS AFRO BRAS    30081810 000174
10231987175000168916200163100    000020636                    000206360000000000000109                     I0120636     30081800000000035003410000017N070518104700000000000103008180000000000000000000000000000000000000000100068373570772RONILCE CAMILO DA SILVA                 RUA RUBY ALBERTORIA N 2 - GERENCIANO    GERENCIANO -26061155NVOA IGUACU    RJUNIAO UMB DOS CULTOS AFRO BRAS    30081810 000175
10231987175000168916200163100    000020635                    000206350000000000000109                     I0120635     30081800000000035003410000017N070518104700000000000103008180000000000000000000000000000000000000000100047442140700MARFIZA FERREIRA DA SILVA VENA          RUA EURICO COELHO N 50                  GRAMA - NOVA26060650NOVA IGUACU    RJUNIAO UMB DOS CULTOS AFRO BRAS    30081810 000176
10231987175000168916200163100    000020634                    000206340000000000000109                     I0120634     30081800000000035003410000017N070518104700000000000103008180000000000000000000000000000000000000000200000000012882JOSE ANTONIO DA SILVA JUNIOR            RUA HILDEBRANDO DE ARAUJO GOES N 271    PIABETA - MA25936880MAGE           RJUNIAO UMB DOS CULTOS AFRO BRAS    30081810 000177
10231987175000168916200163100    000020633                    000206330000000000000109                     I0120633     30081800000000035003410000017N070518104700000000000103008180000000000000000000000000000000000000000100009956479764TATIANE VASCONCELOS DA SILVA            RUA SANTA MARGARIDA N 337               PIABETA - MA25900000MAGE           RJUNIAO UMB DOS CULTOS AFRO BRAS    30081810 000178
10231987175000168916200163100    000020632                    000206320000000000000109                     I0120632     30081800000000035003410000017N070518104700000000000103008180000000000000000000000000000000000000000100093788150734REGINA DA SILVA VERONEZI DOS S          RUA ABATE 105                           JARDIM CANAA26263040NOVA IGUACU    RJUNIAO UMB DOS CULTOS AFRO BRAS    30081810 000179
10231987175000168916200163100    000020631                    000206310000000000000109                     I0120631     30081800000000035003410000017N070518104700000000000103008180000000000000000000000000000000000000000100008834107705JOSELI TIADULINO                        RUA MARIA TEREZA N 134                  JARDIM CANAA26263230NOVA IGUACU    RJUNIAO UMB DOS CULTOS AFRO BRAS    30081810 000180
10231987175000168916200163100    000020630                    000206300000000000000109                     I0120630     30081800000000035003410000017N070518104700000000000103008180000000000000000000000000000000000000000100092645933734ROSINEA PRECIOSO DE OLIVEIRA            RUA PROFESSORA MARLY CARVALHO PEREIRA N MIGUEL COUTO26070452NOVA IGUACU    RJUNIAO UMB DOS CULTOS AFRO BRAS    30081810 000181
10231987175000168916200163100    000020629                    000206290000000000000109                     I0120629     30081800000000035003410000017N070518104700000000000103008180000000000000000000000000000000000000000100002375024702FATIMA APARECIDA OLIVEIRA DE C          RUA OURO PRETO QD 46 LT 21              COQUEIRAL  A20740280RIO DE JANEIRO RJUNIAO UMB DOS CULTOS AFRO BRAS    30081810 000182
10231987175000168916200163100    000020628                    000206280000000000000109                     I0120628     30081800000000035003410000017N070518104700000000000103008180000000000000000000000000000000000000000100001317692780SELENE FREIRE DE ARAUJO CANNAN          RUA DA CONQUISTA N 442                  JARDIM ESPLA26013330NOVA IGUACU    RJUNIAO UMB DOS CULTOS AFRO BRAS    30081810 000183
10231987175000168916200163100    000020627                    000206270000000000000109                     I0120627     30081800000000035003410000017N070518104700000000000103008180000000000000000000000000000000000000000100080578063700SANDRA REGINA NEVES CHAGAS              RUA MARIA LOURENCO N 12 CASA 2          JARDIM PRIMA25215367DUQUE DE CAXIASRJUNIAO UMB DOS CULTOS AFRO BRAS    30081810 000184
10231987175000168916200163100    000020626                    000206260000000000000109                     I0120626     30081800000000035003410000017N070518104700000000000103008180000000000000000000000000000000000000000100068374208791ROSANA LISBOA DE OLIVEIRA               RUA TEOFILO DIAS LOTE 7 QUADRA 47       PILAR - DUQU25233239DUQUE DE CAXIASRJUNIAO UMB DOS CULTOS AFRO BRAS    30081810 000185
10231987175000168916200163100    000020625                    000206250000000000000109                     I0120625     30081800000000035003410000017N070518104700000000000103008180000000000000000000000000000000000000000100014760475702DEBORAH ROSA                            RUA MARIA LOURENCO GONCALVES N 18 CASA 2JARDIM PRIMA25215367DUQUE DE CAXIASRJUNIAO UMB DOS CULTOS AFRO BRAS    30081810 000186
10231987175000168916200163100    000020624                    000206240000000000000109                     I0120624     30081800000000035003410000017N070518104700000000000103008180000000000000000000000000000000000000000100054336481768PENHA JACIARA DA SILVA                  RUA DEZESSETE N 102 (CONJUNTO LIBERDADE)SANTA CRUZ -23560600RIO DE JANEIRO RJUNIAO UMB DOS CULTOS AFRO BRAS    30081810 000187
10231987175000168916200163100    000020623                    000206230000000000000109                     I0120623     30081800000000035003410000017N070518104700000000000103008180000000000000000000000000000000000000000100004419977752GISELE DE CASTILHO SOARES               RUA ARTHUR MAGALHAES N 64               COMENDADOR S26276605NOVA IGUACU    RJUNIAO UMB DOS CULTOS AFRO BRAS    30081810 000188
10231987175000168916200163100    000020622                    000206220000000000000109                     I0120622     30081800000000035003410000017N070518104700000000000103008180000000000000000000000000000000000000000100055480730797TEREZINHA DE JESUS FERRAZ DOS           RUA TUPINAMBA N 305 - OURO VERDE        OURO VERDE -26262490NOVA IGUACU    RJUNIAO UMB DOS CULTOS AFRO BRAS    30081810 000189
10231987175000168916200163100    000020621                    000206210000000000000109                     I0120621     30081800000000035003410000017N070518104700000000000103008180000000000000000000000000000000000000000100000889136785EDENILSON DE SOUZA SILVA                RUA GUARACIABA N 210 FUNDOS             CAMPO GRANDE23070420RIO DE JANEIRO RJUNIAO UMB DOS CULTOS AFRO BRAS    30081810 000190
10231987175000168916200163100    000020620                    000206200000000000000109                     I0120620     30081800000000035003410000017N070518104700000000000103008180000000000000000000000000000000000000000100000915013770ROSANGELA DAS NEVES RESENDE DO          RUA GOIANESIA LOTE 23 QUADRA 101        MARAMBAIA - 24859300ITABORAI       RJUNIAO UMB DOS CULTOS AFRO BRAS    30081810 000191
10231987175000168916200163100    000020619                    000206190000000000000109                     I0120619     30081800000000035003410000017N070518104700000000000103008180000000000000000000000000000000000000000100005411763746MONICA CRUZ DE OLIVEIRA                 AVENIDA JOAO XXIII - RUA QUATORZE QUADRASANTA CRUZ -23565110RIO DE JANEIRO RJUNIAO UMB DOS CULTOS AFRO BRAS    30081810 000192
10231987175000168916200163100    000020618                    000206180000000000000109                     I0120618     30081800000000035003410000017N070518104700000000000103008180000000000000000000000000000000000000000200000000012851JEANE APARECIDA NUNES BITENCOU          RUA MANOEL MENDONCA N 17                DEODORO - RI21616320RIO DE JANEIRO RJUNIAO UMB DOS CULTOS AFRO BRAS    30081810 000193
10231987175000168916200163100    000020617                    000206170000000000000109                     I0120617     30081800000000035003410000017N070518104700000000000103008180000000000000000000000000000000000000000100008246810707LEILA DA SILVA MARQUES                  RUA REDENTOR LOTE 19 QUADRA 18          JARDIM REDEN26110090BELFORD ROXO   RJUNIAO UMB DOS CULTOS AFRO BRAS    30081810 000194
10231987175000168916200163100    000020616                    000206160000000000000109                     I0120616     30081800000000035003410000017N070518104700000000000103008180000000000000000000000000000000000000000100010276278704ROSELI DE OLIVEIRA DUTRA                RUA UM LOTE 7 QUADRA 8                  TAQUARA - DU25275110DUQUE DE CAXIASRJUNIAO UMB DOS CULTOS AFRO BRAS    30081810 000195
10231987175000168916200163100    000020615                    000206150000000000000109                     I0120615     30081800000000035003410000017N070518104700000000000103008180000000000000000000000000000000000000000100005633721735MARCOS AURELIO PAULINO FLORIAN          RUA LEONEL ROCHA N 195 CASA LOTE H      GUARATIBA - 23032460RIO DE JANEIRO RJUNIAO UMB DOS CULTOS AFRO BRAS    30081810 000196
10231987175000168916200163100    000020614                    000206140000000000000109                     I0120614     30081800000000035003410000017N070518104700000000000103008180000000000000000000000000000000000000000200000000012848VIVIANE MORAES ALEXANDRINO              RUA JOAQUIM MOREIRA Nº 37              SEPETIBA    23545054RIO DE JANEIRO RJUNIAO UMB DOS CULTOS AFRO BRAS    30081810 000197
10231987175000168916200163100    000020613                    000206130000000000000109                     I0120613     30081800000000035003410000017N070518104700000000000103008180000000000000000000000000000000000000000100004277956726ROSANA OLIVEIRA GUEDES                  RUA GRACA MELLO N 640 APT 101 BLOCO 30 -CAVALCANTI -21381300RIO DE JANEIRO RJUNIAO UMB DOS CULTOS AFRO BRAS    30081810 000198
10231987175000168916200163100    000020612                    000206120000000000000109                     I0120612     30081800000000035003410000017N070518104700000000000103008180000000000000000000000000000000000000000100001972684710ALEXANDRE MALAQUIAS DE SOUSA P          AVENIDA NELSON DE AQUINO N 246 - COROA GCOROA GRANDE23825670ITAGUAI        RJUNIAO UMB DOS CULTOS AFRO BRAS    30081810 000199
10231987175000168916200163100    000020611                    000206110000000000000109                     I0120611     30081800000000035003410000017N070518104700000000000103008180000000000000000000000000000000000000000100014641727732DAVI SILVA BARBOSA LIMA                 TRAVESSA ANTONIO AARAO N 9              SEPETIBA - R23540030RIO DE JANEIRO RJUNIAO UMB DOS CULTOS AFRO BRAS    30081810 000200
10231987175000168916200163100    000020610                    000206100000000000000109                     I0120610     30081800000000035003410000017N070518104700000000000103008180000000000000000000000000000000000000000100004554269701PATRICIA CABRAL BOTELHO                 RUA QUINTAO N 995 - PIEDADE             PIEDADE - RI21381050RIO DE JANEIRO RJUNIAO UMB DOS CULTOS AFRO BRAS    30081810 000201
10231987175000168916200163100    000020609                    000206090000000000000109                     I0120609     30081800000000035003410000017N070518104700000000000103008180000000000000000000000000000000000000000100000129467707SANDRA CRISTINA DOS SANTOS TIT          RUA DAVI SN BLOCO 3 APT 303             CIDADE DE DE22777243JACAREPAGUA    RJUNIAO UMB DOS CULTOS AFRO BRAS    30081810 000202
10231987175000168916200163100    000020608                    000206080000000000000109                     I0120608     30081800000000035003410000017N070518104700000000000103008180000000000000000000000000000000000000000100008781471793LURDEUDALIA ARAUJO                      RUA MARIA LOROSA - VITORIA REGIS CASA 8 SANTA CRUZ -23525040RIO DE JANEIRO RJUNIAO UMB DOS CULTOS AFRO BRAS    30081810 000203
10231987175000168916200163100    000020607                    000206070000000000000109                     I0120607     30081800000000035003410000017N070518104700000000000103008180000000000000000000000000000000000000000100060237090791ELIZABETH TELLES DA SILVA               ESTRADA OUTEIRO SANTO  900 LOTE 1 QUADRATAQUARA  RJ 22713164RIO DE JANEIRO RJUNIAO UMB DOS CULTOS AFRO BRAS    30081810 000204
10231987175000168916200163100    000020606                    000206060000000000000109                     I0120606     30081800000000035003410000017N070518104700000000000103008180000000000000000000000000000000000000000100005646881773DEBORA LINS                             RUA LACONIA N 89 CASA 3                 JARDIM AMAPA26182230BELFORD ROXO   RJUNIAO UMB DOS CULTOS AFRO BRAS    30081810 000205
10231987175000168916200163100    000020605                    000206050000000000000109                     I0120605     30081800000000035003410000017N070518104700000000000103008180000000000000000000000000000000000000000100000076412733VALERIA RIBEIRO TEIXEIRA                RUA JIPIOCA N 135 CASA 1                CASCADURA - 21311250RIO DE JANEIRO RJUNIAO UMB DOS CULTOS AFRO BRAS    30081810 000206
10231987175000168916200163100    000020604                    000206040000000000000109                     I0120604     30081800000000035003410000017N070518104700000000000103008180000000000000000000000000000000000000000100059110465715ZEILTON VIEIRA NUNES                    RUA JORNALISTA PAULO FRANCIS N 29 CASA 4RIO DAS OSTR28890000RIO DE JANEIRO RJUNIAO UMB DOS CULTOS AFRO BRAS    30081810 000207
10231987175000168916200163100    000020603                    000206030000000000000109                     I0120603     30081800000000035003410000017N070518104700000000000103008180000000000000000000000000000000000000000100038835568749MARIA DE ALCANTARA GOULART SIL          RUA GAMBIA N 41                         JACAREPAGUA 22775400RIO DE JANEIRO RJUNIAO UMB DOS CULTOS AFRO BRAS    30081810 000208
10231987175000168916200163100    000020602                    000206020000000000000109                     I0120602     30081800000000035003410000017N070518104700000000000103008180000000000000000000000000000000000000000100014994285705JEFFERSON DOS SANTOS DA SILVA           ESTRADA DO PAU DA FOME N 50             TAQUARA - JA22723497RIO DE JANEIRO RJUNIAO UMB DOS CULTOS AFRO BRAS    30081810 000209
10231987175000168916200163100    000020601                    000206010000000000000109                     I0120601     30081800000000035003410000017N070518104700000000000103008180000000000000000000000000000000000000000100035138963791AMILTON PIO                             RUA JOSE DE MELO N 77                   SEPETIBA - R23545165RIO DE JANEIRO RJUNIAO UMB DOS CULTOS AFRO BRAS    30081810 000210
10231987175000168916200163100    000020600                    000206000000000000000109                     I0120600     30081800000000035003410000017N070518104700000000000103008180000000000000000000000000000000000000000100011998959708ARTUR TAVARES DA SILVA NETO             RUA PREFEITO JOAO CARLOS VITAL N 17     CROACIA - SE23540080SEPETIBA       RJUNIAO UMB DOS CULTOS AFRO BRAS    30081810 000211
10231987175000168916200163100    000020599                    000205990000000000000109                     I0120599     30081800000000035003410000017N070518104700000000000103008180000000000000000000000000000000000000000100008502438743ALINE RAMOS DE SOUZA DA SILVA           RUA DOUTOR ISMAEL CAVALCANTI N 240      SEPETIBA - R23545145RIO DE JANEIRO RJUNIAO UMB DOS CULTOS AFRO BRAS    30081810 000212
10231987175000168916200163100    000020598                    000205980000000000000109                     I0120598     30081800000000035003410000017N070518104700000000000103008180000000000000000000000000000000000000000100007103755736ALESSANDRA COSTA DE BARROS              PRACA OSCAR ROSSIM N 84                 SEPETIBA - R23540250RIO DE JANEIRO RJUNIAO UMB DOS CULTOS AFRO BRAS    30081810 000213
10231987175000168916200163100    000020597                    000205970000000000000109                     I0120597     30081800000000035003410000017N070518104700000000000103008180000000000000000000000000000000000000000100002134084731MARINALVA LINDOLFO DA SILVA             AVENIDA GOMES FREIRE N 136              VILA SANTO A25040310DUQUE DE CAXIASRJUNIAO UMB DOS CULTOS AFRO BRAS    30081810 000214
10231987175000168916200163100    000020596                    000205960000000000000109                     I0120596     30081800000000035003410000017N070518104700000000000103008180000000000000000000000000000000000000000100009946366797SIMONE SOARES NEA                       RUA FLAVIO RANGEL SN QUADRA B LOTE 7    CAMPO GRANDE23085430RIO DE JANEIRO RJUNIAO UMB DOS CULTOS AFRO BRAS    30081810 000215
10231987175000168916200163100    000020595                    000205950000000000000109                     I0120595     30081800000000035003410000017N070518104700000000000103008180000000000000000000000000000000000000000100030422175749LENI MENDUIÑA DA SILVA GUERRA          RUA ADOLFO DE CARVALHO Nº 59 CASA 1    ENGENHEIRO B25520240SAO JOAO DE MERRJUNIAO UMB DOS CULTOS AFRO BRAS    30081810 000216
10231987175000168916200163100    000020594                    000205940000000000000109                     I0120594     30081800000000035003410000017N070518104700000000000103008180000000000000000000000000000000000000000100001301453781CARLINDA AZEREDO MATOS                  RUA DOUTOR FERNANDO BRIGADAO N 17       RIACHAO - NO26279180NOVA IGUACU    RJUNIAO UMB DOS CULTOS AFRO BRAS    30081810 000217
10231987175000168916200163100    000020593                    000205930000000000000109                     I0120593     30081800000000035003410000017N070518104700000000000103008180000000000000000000000000000000000000000100014604780706GILMAR GONCALVES FERREIRA               RUA DOIS BLOCO 2 CASA 27                ROCINHA - RI22451400RIO DE JANEIRO RJUNIAO UMB DOS CULTOS AFRO BRAS    30081810 000218
10231987175000168916200163100    000020592                    000205920000000000000109                     I0120592     30081800000000035003410000017N070518104700000000000103008180000000000000000000000000000000000000000100064175499768TEREZA CRISTINA PIRES SILVA RO          RUA GOIAS LOTE 3 QUADRA 4               PLANALTO DO 24859300ITABORAI       RJUNIAO UMB DOS CULTOS AFRO BRAS    30081810 000219
10231987175000168916200163100    000020591                    000205910000000000000109                     I0120591     30081800000000035003410000017N070518104700000000000103008180000000000000000000000000000000000000000100065929039704JUPIACU SALLES                          RUA ANDRE ROCHA QUADRA 83 LOTES 16 E 17 CURICICA - R22570000RIO DE JANEIRO RJUNIAO UMB DOS CULTOS AFRO BRAS    30081810 000220
10231987175000168916200163100    000020590                    000205900000000000000109                     I0120590     30081800000000035003410000017N070518104700000000000103008180000000000000000000000000000000000000000100015834777724JOAO PAULO SALGUEIRO DA SILVA           RUA MANOEL DO NASCIMENTO N 134          IRAJA  - RIO21361510RIO DE JANEIRO RJUNIAO UMB DOS CULTOS AFRO BRAS    30081810 000221
10231987175000168916200163100    000020589                    000205890000000000000109                     I0120589     30081800000000035003410000017N070518104700000000000103008180000000000000000000000000000000000000000100066003110782MARIA CLAUDIA DE LIMA FOLY              RUA JOAQUIM SOARES NETO N 467           NOVA AMERICA26021560NOVA IGUACU    RJUNIAO UMB DOS CULTOS AFRO BRAS    30081810 000222
10231987175000168916200163100    000020588                    000205880000000000000109                     I0120588     30081800000000035003410000017N070518104700000000000103008180000000000000000000000000000000000000000100089044380710DENISE SAMPAIO DE MOURA MACIEL          RUA XAXA N 10 - RIO DAS PEDRAS          JACAREPAGUA 22753057RIO DE JANEIRO RJUNIAO UMB DOS CULTOS AFRO BRAS    30081810 000223
10231987175000168916200163100    000020587                    000205870000000000000109                     I0120587     30081800000000035003410000017N070518104700000000000103008180000000000000000000000000000000000000000100025875159715SUELI DE OLIVEIRA DIAS                  AVENIDA DAS ALAGOAS N 1.200 - GARDENIA AJACAREPAGUA 22765451RIO DE JANEIRO RJUNIAO UMB DOS CULTOS AFRO BRAS    30081810 000224
10231987175000168916200163100    000020586                    000205860000000000000109                     I0120586     30081800000000035003410000017N070518104700000000000103008180000000000000000000000000000000000000000100002638717703EDINO GOMES DE BARROS JUNIOR            RUA PARANA N 10                         MORRO DO ORI24400000SAO GONCALO    RJUNIAO UMB DOS CULTOS AFRO BRAS    30081810 000225
10231987175000168916200163100    000020585                    000205850000000000000109                     I0120585     30081800000000035003410000017N070518104700000000000103008180000000000000000000000000000000000000000100000920173713JORGE DOS SANTOS LUCAS                  RUA PP, LOTE 5 QUADRA 48                JARDIM ANHAN25264360DUQUE DE CAXIASRJUNIAO UMB DOS CULTOS AFRO BRAS    30081810 000226
10231987175000168916200163100    000020584                    000205840000000000000109                     I0120584     30081800000000035003410000017N070518104700000000000103008180000000000000000000000000000000000000000100000497155770CINTIA MARTIN                           RUA POCONE N 371                        ENCANTADO - 20745090RIO DE JANEIRO RJUNIAO UMB DOS CULTOS AFRO BRAS    30081810 000227
10231987175000168916200163100    000020583                    000205830000000000000109                     I0120583     30081800000000035003410000017N070518104700000000000103008180000000000000000000000000000000000000000100009483806755MARCO ANTONIO ATAIDE DE MELO            TRAVESSA MARAPE N 3 FUNDOS              COSTA BARROS21515240RIO DE JANEIRO RJUNIAO UMB DOS CULTOS AFRO BRAS    30081810 000228
10231987175000168916200163100    000020582                    000205820000000000000109                     I0120582     30081800000000035003410000017N070518104700000000000103008180000000000000000000000000000000000000000100095341048768MARILENE CANDIDA                        RUA NOSSA SENHORA DA GUIA N 162         VILA NOVA DO26062192NOVA IGUACU    RJUNIAO UMB DOS CULTOS AFRO BRAS    30081810 000229
10231987175000168916200163100    000020581                    000205810000000000000109                     I0120581     30081800000000035003410000017N070518104700000000000103008180000000000000000000000000000000000000000100001797738748PAULO CESAR LONATO SANTOS               ESTRADA GUANDU DO SAPE N 1450 BLOCO 18 ACENTRO - CAM22095072CAMPO GRANDE   RJUNIAO UMB DOS CULTOS AFRO BRAS    30081810 000230
10231987175000168916200163100    000020580                    000205800000000000000109                     I0120580     30081800000000035003410000017N070518104700000000000103008180000000000000000000000000000000000000000100014492149759FILIPE FONSECA MARIANO                  RUA DONA JULIA N 16 FUNDOS              SEPETIBA - R23545570RIO DE JANEIRO RJUNIAO UMB DOS CULTOS AFRO BRAS    30081810 000231
10231987175000168916200163100    000020579                    000205790000000000000109                     I0120579     30081800000000035003410000017N070518104700000000000103008180000000000000000000000000000000000000000100007214737760LEANDRO FRAGA DE OLIVEIRA               RUA VAZ LOBO N 522 - VAZ LOBO           VAZ LOBO - R21361030RIO DE JANEIRO RJUNIAO UMB DOS CULTOS AFRO BRAS    30081810 000232
10231987175000168916200163100    000020578                    000205780000000000000109                     I0120578     30081800000000035003410000017N070518104700000000000103008180000000000000000000000000000000000000000200000000012795ALESSANDRA REIS DOS SANTOS              RUA: MARIA TOMAZIA Nº 125 - FUNDOS     CABARAL - NI21321660RIO DE JANEIRO RJUNIAO UMB DOS CULTOS AFRO BRAS    30081810 000233
10231987175000168916200163100    000020577                    000205770000000000000109                     I0120577     30081800000000035003410000017N070518104700000000000103008180000000000000000000000000000000000000000100058101543791JANETE BARBOSA FERREIRA                 O MESMO                                 O MESMO     26127380BELFORD ROXO   RJUNIAO UMB DOS CULTOS AFRO BRAS    30081810 000234
10231987175000168916200163100    000020576                    000205760000000000000109                     I0120576     30081800000000035003410000017N070518104700000000000103008180000000000000000000000000000000000000000100007545291778ANDRE LUIS DA SILVA                     RUA VASCO DA GAMA N 677                 PARQUE ESTOR26063190NOVA IGUACU    RJUNIAO UMB DOS CULTOS AFRO BRAS    30081810 000235
10231987175000168916200163100    000020575                    000205750000000000000109                     I0120575     30081800000000035003410000017N070518104700000000000103008180000000000000000000000000000000000000000100003025076712MARIA QUITERIA DOS SANTOS PITA          RUA MISSIONARIO CHRISTIE N 43 B         QUISSAMA - P25615250PETROPOLIS     RJUNIAO UMB DOS CULTOS AFRO BRAS    30081810 000236
10231987175000168916200163100    000020574                    000205740000000000000109                     I0120574     30081800000000035003410000017N070518104700000000000103008180000000000000000000000000000000000000000100062988050791REGINA LUCIA DE SOUZA SANTOS T          RUA ENGENHEIRO LAFAYETE STOCKLER N 742  VILA DA PENH21221390RIO DE JANEIRO RJUNIAO UMB DOS CULTOS AFRO BRAS    30081810 000237
10231987175000168916200163100    000020573                    000205730000000000000109                     I0120573     30081800000000035003410000017N070518104700000000000103008180000000000000000000000000000000000000000100000150852797EDSON SENRA GOMES                       ESTRADA OUTEIRO SANTO                   TAQUARA     11713170RIO DE JANEIRO RJUNIAO UMB DOS CULTOS AFRO BRAS    30081810 000238
10231987175000168916200163100    000020572                    000205720000000000000109                     I0120572     30081800000000035003410000017N070518104700000000000103008180000000000000000000000000000000000000000100003550624700ELAINE DE BARROS CARVALHO DE O          RUA DOUTOR ANTONIO MARTINS N 42 CASA 2 ATAQUARA - JA22723650RIO DE JANEIRO RJUNIAO UMB DOS CULTOS AFRO BRAS    30081810 000239
10231987175000168916200163100    000020571                    000205710000000000000109                     I0120571     30081800000000035003410000017N070518104700000000000103008180000000000000000000000000000000000000000100005649589720RAPHAEL AGUIAR DA SILVA                 ESTRADA DO BONGARVILLE, 869 CASA 42     ANIL - JACAR22753210RIO DE JANEIRO RJUNIAO UMB DOS CULTOS AFRO BRAS    30081810 000240
10231987175000168916200163100    000020570                    000205700000000000000109                     I0120570     30081800000000035003410000017N070518104700000000000103008180000000000000000000000000000000000000000100001857739744JORGE DE MORAES ESTANISLAU              RUA TITANIC N 7 CASA 1 FUNDOS           REALENGO - R21735620RIO DE JANEIRO RJUNIAO UMB DOS CULTOS AFRO BRAS    30081810 000241
10231987175000168916200163100    000020569                    000205690000000000000109                     I0120569     30081800000000035003410000017N070518104700000000000103008180000000000000000000000000000000000000000100011130957764MARCUS ULYSSES DE FIGUEIREDO P          RUA SAO JORGE N 764                     CAMPO ALEGRE26292228NOVA IGUACU    RJUNIAO UMB DOS CULTOS AFRO BRAS    30081810 000242
10231987175000168916200163100    000020568                    000205680000000000000109                     I0120568     30081800000000035003410000017N070518104700000000000103008180000000000000000000000000000000000000000100010016543752ALEXANDRE TEIXEIRA CAVALCANTE           RUA DOUTOR NUNES N 934                  OLARIA - RIO21021370RIO DE JANEIRO RJUNIAO UMB DOS CULTOS AFRO BRAS    30081810 000243
10231987175000168916200163100    000020567                    000205670000000000000109                     I0120567     30081800000000035003410000017N070518104700000000000103008180000000000000000000000000000000000000000100048672068734NOEMIA CONCEICAO DE SOUZA               ESTRADA DO CAMORIM N 926 CASA 7 FRENTE -JACAREPAGUA 22780070RIO DE JANEIRO RJUNIAO UMB DOS CULTOS AFRO BRAS    30081810 000244
10231987175000168916200163100    000020566                    000205660000000000000109                     I0120566     30081800000000035003410000017N070518104700000000000103008180000000000000000000000000000000000000000100002846505608DIONE ROSA FERNANDES                    RUA ERNESTINA N 56                      LINS DE VASC20710000RIO DE JANEIRO RJUNIAO UMB DOS CULTOS AFRO BRAS    30081810 000245
10231987175000168916200163100    000020565                    000205650000000000000109                     I0120565     30081800000000035003410000017N070518104700000000000103008180000000000000000000000000000000000000000100092673562753ALVARO RICARDO DE OLIVEIRA RIB          RUA MARIA ALICE N 18                    MUTONDO - SA24452140SAO GONCALO    RJUNIAO UMB DOS CULTOS AFRO BRAS    30081810 000246
10231987175000168916200163100    000020564                    000205640000000000000109                     I0120564     30081800000000035003410000017N070518104700000000000103008180000000000000000000000000000000000000000100066514118704MARILIA GARCIA DA PAIXAO                RUA FRANCOLIM N 306                     GUADALUPE - 21660130RIO DE JANEIRO RJUNIAO UMB DOS CULTOS AFRO BRAS    30081810 000247
10231987175000168916200163100    000020563                    000205630000000000000109                     I0120563     30081800000000035003410000017N070518104700000000000103008180000000000000000000000000000000000000000100011640644792MARLY SERPA BORGES                      RUA VISTA ALEGRE N 12                   SANTA TERESA20251410RIO DE JANEIRO RJUNIAO UMB DOS CULTOS AFRO BRAS    30081810 000248
10231987175000168916200163100    000020562                    000205620000000000000109                     I0120562     30081800000000035003410000017N070518104700000000000103008180000000000000000000000000000000000000000100005440511733MONICA LEITE CRUZ                       RUA PARDAL N 130 B                      MAGALI - CAM23081070CAMPO GRANDE   RJUNIAO UMB DOS CULTOS AFRO BRAS    30081810 000249
