01REMESSA01COBRANCA       817800093673        União Umb dos Cultos Afro Bra341BANCO ITAU SA  280319                                                                                                                                                                                                                                                                                                      000001
10231987175000168817800093673    000044918                    000449180000000000000109                     I0144918     15041900000000160003410000017N280319104700000000000101504190000000000000000000000000000000000000000100037433288791VERA LUCIA COSTA MOACYR                 RUA JOANA KALIL N 0, LT 6 QD 51         JARDIM MERIT25555100SAO JOAO DE MERRJUNIAO UMB DOS CULTOS AFRO BRAS    15041910 000002
10231987175000168817800093673    000044917                    000449170000000000000109                     I0144917     20041900000000200003410000017N280319104700000000000102004190000000000000000000000000000000000000000100053542886734MARIA LUCIA SOARES PONCE                RUA SOLDADO BERNARDINO DA SILVAN 568, APVICENTE DE C21210020RIO DE JANEIRO RJUNIAO UMB DOS CULTOS AFRO BRAS    20041910 000003
10231987175000168817800093673    000044916                    000449160000000000000109                     I0144916     10041900000000400003410000017N280319104700000000000101004190000000000000000000000000000000000000000100045910383787PAULO ROBERTO DE OLIVEIRA DRUB          RUA ARGEMIRO DE HUNGRIA MACHADON 195,   GUADALUPE   21670290RIO DE JANEIRO RJUNIAO UMB DOS CULTOS AFRO BRAS    10041910 000004
10231987175000168817800093673    000044915                    000449150000000000000109                     I0144915     15041900000000120003410000017N280319104700000000000101504190000000000000000000000000000000000000000100004162486751IVONETE CRISTINA MARTINS MACHA          RUA DO CATETEN 5, FUNDOS                VILA LEOPOLD25060230DUQUE DE CAXIASRJUNIAO UMB DOS CULTOS AFRO BRAS    15041910 000005
10231987175000168817800093673    000044914                    000449140000000000000109                     I0144914     10051900000000100003410000017N280319104700000000000101005190000000000000000000000000000000000000000100067348793720MARCIO DE SOUZA MOURA                   RUA CAJUIPEN 110,                       BONSUCESSO  21060490RIO DE JANEIRO RJUNIAO UMB DOS CULTOS AFRO BRAS    10051910 000006
10231987175000168817800093673    000044913                    000449130000000000000109                     I0144913     10041900000000100003410000017N280319104700000000000101004190000000000000000000000000000000000000000100067348793720MARCIO DE SOUZA MOURA                   RUA CAJUIPEN 110,                       BONSUCESSO  21060490RIO DE JANEIRO RJUNIAO UMB DOS CULTOS AFRO BRAS    10041910 000007
10231987175000168817800093673    000044912                    000449120000000000000109                     I0144912     20041900000000700003410000017N280319104700000000000102004190000000000000000000000000000000000000000100010593660706IGOR ANDRE AZEVEDO DE SOUZA             RUA IRMA DULCEN 0, LOTE 14 QUADRA 47    SANTA LUCIA 25275650DUQUE DE CAXIASRJUNIAO UMB DOS CULTOS AFRO BRAS    20041910 000008
10231987175000168817800093673    000044911                    000449110000000000000109                     I0144911     05041900000000040003410000017N280319104700000000000100504190000000000000000000000000000000000000000100051265699704MARIA FATIMA DE SOUSA                   RUA PIRAJURAN 93,                       REALENGO    21750360RIO DE JANEIRO RJUNIAO UMB DOS CULTOS AFRO BRAS    05041910 000009
10231987175000168817800093673    000044906                    000449060000000000000109                     I0244906     10041900000000400003410000017N270319104700000000000101004190000000000000000000000000000000000000000100009959898776ANGELICA MONTEIRO DE OLIVEIRA           RUA CINCO N 313, GLEBA A                CHAPERO     23831190ITAGUAI        RJUNIAO UMB DOS CULTOS AFRO BRAS    10041910 000010
10231987175000168817800093673    000044905                    000449050000000000000109                     I0144905     01041900000000120003410000017N270319104700000000000100104190000000000000000000000000000000000000000100039341887704NORMA AYRES DA SILVA                    RUA VALENCA N 245,                      BAR DOS CAVA25015590DUQUE DE CAXIASRJUNIAO UMB DOS CULTOS AFRO BRAS    01041910 000011
10231987175000168817800093673    000044904                    000449040000000000000109                     I0244904     30041900000000035003410000017N270319104700000000000103004190000000000000000000000000000000000000000100089207963787NICEIA SANTOS FRANCA                    RUA SAPUCAI - BECO DO JORDAON 134,      SANTA CRUZ  23550360RIO DE JANEIRO RJUNIAO UMB DOS CULTOS AFRO BRAS    30041910 000012
10231987175000168817800093673    000044903                    000449030000000000000109                     I0144903     15041900000000020003410000017N270319104700000000000101504190000000000000000000000000000000000000000100042799023720MARIA DAS DORES SANTOS                  ESTRADA DO AREAL N 4,                   BOA VISTA DA27165000BARRA DO PIRAI RJUNIAO UMB DOS CULTOS AFRO BRAS    15041910 000013
10231987175000168817800093673    000038743                    000387430000000000000109                     I0238743     30031900000000040003410000017N261218104700000000000103003190000000000000000000000000000000000000000100002725570727JOSE DE RIBAMAR PEREIRA DOS PA          RUA CELESTINON 370,                     PRESIDENTE J26225030NOVA IGUACU    RJUNIAO UMB DOS CULTOS AFRO BRAS    30031910 000014
10231987175000168817800093673    000038404                    000384040000000000000109                     I0238404     30031900000000040003410000017N261218104700000000000103003190000000000000000000000000000000000000000100088364607715ELISABETE DA CONCEICAO LIMA             RUA ABILIO MACHADO N 163,               VILA TIRADEN25525160SAO JOAO DE MERRJUNIAO UMB DOS CULTOS AFRO BRAS    30031910 000015
10231987175000168817800093673    000038195                    000381950000000000000109                     I0238195     30031900000000040003410000017N261218104700000000000103003190000000000000000000000000000000000000000100059555815704PAULO FERNANDES                         RUA MONTE CARMELON 351,                 BENTO RIBEIR21555120RIO DE JANEIRO RJUNIAO UMB DOS CULTOS AFRO BRAS    30031910 000016
10231987175000168817800093673    000038109                    000381090000000000000109                     I0238109     30031900000000040003410000017N261218104700000000000103003190000000000000000000000000000000000000000100093473095753ALEXANDER NUNES PICANCO                 RUA MATUSALEMN 315,                     SENADOR CAMA21832270RIO DE JANEIRO RJUNIAO UMB DOS CULTOS AFRO BRAS    30031910 000017
10231987175000168817800093673    000037667                    000376670000000000000109                     I0237667     30031900000000040003410000017N261218104700000000000103003190000000000000000000000000000000000000000100003351761783CLAUDIA LUZIA PEREIRA                   RUA HOMERO SOBRINHO N 0, LOTE 12 QUADRA JARDIM NOVA 26187495BELFORD ROXO   RJUNIAO UMB DOS CULTOS AFRO BRAS    30031910 000018
10231987175000168817800093673    000036824                    000368240000000000000109                     I0236824     28021900000000040003410000017N261218104700000000000102802190000000000000000000000000000000000000000100002725570727JOSE DE RIBAMAR PEREIRA DOS PA          RUA CELESTINON 370,                     PRESIDENTE J26225030NOVA IGUACU    RJUNIAO UMB DOS CULTOS AFRO BRAS    28021910 000019
10231987175000168817800093673    000036487                    000364870000000000000109                     I0236487     28021900000000040003410000017N261218104700000000000102802190000000000000000000000000000000000000000100088364607715ELISABETE DA CONCEICAO LIMA             RUA ABILIO MACHADO N 163,               VILA TIRADEN25525160SAO JOAO DE MERRJUNIAO UMB DOS CULTOS AFRO BRAS    28021910 000020
10231987175000168817800093673    000036279                    000362790000000000000109                     I0236279     28021900000000040003410000017N261218104700000000000102802190000000000000000000000000000000000000000100059555815704PAULO FERNANDES                         RUA MONTE CARMELON 351,                 BENTO RIBEIR21555120RIO DE JANEIRO RJUNIAO UMB DOS CULTOS AFRO BRAS    28021910 000021
10231987175000168817800093673    000036193                    000361930000000000000109                     I0236193     28021900000000040003410000017N261218104700000000000102802190000000000000000000000000000000000000000100093473095753ALEXANDER NUNES PICANCO                 RUA MATUSALEMN 315,                     SENADOR CAMA21832270RIO DE JANEIRO RJUNIAO UMB DOS CULTOS AFRO BRAS    28021910 000022
10231987175000168817800093673    000035754                    000357540000000000000109                     I0235754     28021900000000040003410000017N261218104700000000000102802190000000000000000000000000000000000000000100003351761783CLAUDIA LUZIA PEREIRA                   RUA HOMERO SOBRINHO N 0, LOTE 12 QUADRA JARDIM NOVA 26187495BELFORD ROXO   RJUNIAO UMB DOS CULTOS AFRO BRAS    28021910 000023
10231987175000168817800093673    000035663                    000356630000000000000109                     I0235663     28021900000000040003410000017N261218104700000000000102802190000000000000000000000000000000000000000100054571715749VILMA OLIVEIRA DOS SANTOS               RUA CORREIA DIAS N 1066,                VIGARIO GERA21241310RIO DE JANEIRO RJUNIAO UMB DOS CULTOS AFRO BRAS    28021910 000024
9                                                                                                                                                                                                                                                                                                                                                                                                         000025
