01REMESSA01COBRANCA       817800093673        União Umb dos Cultos Afro Bra341BANCO ITAU SA  290719                                                                                                                                                                                                                                                                                                      000001
10231987175000168817800093673    000049336                    000493360000000000000109                     I0249336     30091900000000040003410000017N100619105700000000000133009190000000000000000000000000000000000000000100045600597720CARMEM DE BARROS PIRES                  RUA CLAUDIAN 74, - CANAA                COMENDADOR S26263060NOVA IGUACU    RJUNIAO UMB DOS CULTOS AFRO BRAS    30091915 000002
21300920190000000000080                                                                                                                                                                                                                                                                                                                                                                                   000003
10231987175000168817800093673    000048821                    000488210000000000000109                     I0248821     30091900000000040003410000017N100619105700000000000133009190000000000000000000000000000000000000000100063658020725JUSSARA MAXIMO DIAS                     RUA: DO BOSQUEN 41, / 43                PACIENCIA   23065250RIO DE JANEIRO RJUNIAO UMB DOS CULTOS AFRO BRAS    30091915 000004
21300920190000000000080                                                                                                                                                                                                                                                                                                                                                                                   000005
10231987175000168817800093673    000048545                    000485450000000000000109                     I0248545     30091900000000025003410000017N100619105700000000000803009190000000000000000000000000000000000000000100052329160763NENI GOMES DE ALMEIDA                   RUA MARIA SANTANA FERNANDESN 0, LOTE 8 QJARDINS     23890052SEROPEDICA     RJUNIAO UMB DOS CULTOS AFRO BRAS    30091915 000006
21300920190000000000050                                                                                                                                                                                                                                                                                                                                                                                   000007
10231987175000168817800093673    000047382                    000473820000000000000109                     I0247382     30081900000000040003410000017N100619105700000000000133008190000000000000000000000000000000000000000100063658020725JUSSARA MAXIMO DIAS                     RUA: DO BOSQUEN 41, / 43                PACIENCIA   23065250RIO DE JANEIRO RJUNIAO UMB DOS CULTOS AFRO BRAS    30081915 000008
21300820190000000000080                                                                                                                                                                                                                                                                                                                                                                                   000009
10231987175000168817800093673    000047108                    000471080000000000000109                     I0247108     30081900000000025003410000017N100619105700000000000803008190000000000000000000000000000000000000000100052329160763NENI GOMES DE ALMEIDA                   RUA MARIA SANTANA FERNANDESN 0, LOTE 8 QJARDINS     23890052SEROPEDICA     RJUNIAO UMB DOS CULTOS AFRO BRAS    30081915 000010
21300820190000000000050                                                                                                                                                                                                                                                                                                                                                                                   000011
10231987175000168817800093673    000045953                    000459530000000000000109                     I0245953     30071900000000040003410000017N100619105700000000000133007190000000000000000000000000000000000000000100063658020725JUSSARA MAXIMO DIAS                     RUA: DO BOSQUEN 41, / 43                PACIENCIA   23065250RIO DE JANEIRO RJUNIAO UMB DOS CULTOS AFRO BRAS    30071915 000012
21300720190000000000080                                                                                                                                                                                                                                                                                                                                                                                   000013
10231987175000168817800093673    000045685                    000456850000000000000109                     I0245685     30071900000000025003410000017N100619105700000000000803007190000000000000000000000000000000000000000100052329160763NENI GOMES DE ALMEIDA                   RUA MARIA SANTANA FERNANDESN 0, LOTE 8 QJARDINS     23890052SEROPEDICA     RJUNIAO UMB DOS CULTOS AFRO BRAS    30071915 000014
21300720190000000000050                                                                                                                                                                                                                                                                                                                                                                                   000015
9                                                                                                                                                                                                                                                                                                                                                                                                         000016
