01REMESSA01COBRANCA       916200163100        União Umb dos Cultos Afro Bra341BANCO ITAU SA  050619                                                                                                                                                                                                                                                                                                      000001
10231987175000168916200163100    000045355                    000453550000000000000109                     I0145355     10061900000000080003410000017N050619105700000000000261006190000000000000000000000000000000000000000100074789600734SOLANGE MARTINS                         RUA ITAGIBAN 889,                       COSMOS      23060450RIO DE JANEIRO RJUNIAO UMB DOS CULTOS AFRO BRAS    10061915 000002
21100620190000000000800                                                                                                                                                                                                                                                                                                                                                                                   000003
9                                                                                                                                                                                                                                                                                                                                                                                                         000004
