01REMESSA01COBRANCA       817800093673        União Umb dos Cultos Afro Bra341BANCO ITAU SA  050718                                                                                                                                                                                                                                                                                                      000001
10231987175000168817800093673    000021274                    000212740000000000000109                     I0121274     10071800000000812223410000017N040718104700000000000101007180000000000000000000000000000000000000000100099608421420NEHILTON ANTONIO DOS SANTOS             RUA: ALCIDES MAIA                       BENTO RIBEIR21550560RIO DE JANEIRO RJUNIAO UMB DOS CULTOS AFRO BRAS    10071810 000002
10231987175000168817800093673    000021273                    000212730000000000000109                     I0121273     10071800000000620223410000017N040718104700000000000101007180000000000000000000000000000000000000000100025937030753MANOEL GABRIEL DA SILVA                 RUA: ALCIDES MAIA                       BENTO RIBEIR21550560RIO DE JANEIRO RJUNIAO UMB DOS CULTOS AFRO BRAS    10071810 000003
10231987175000168817800093673    000021272                    000212720000000000000109                     I0121272     10071800000000833253410000017N040718104700000000000101007180000000000000000000000000000000000000000100013946879772ALDENI ALBENORA DA SILVA                RUA: JOAO DANIEL                        BENTO RIBEIR21550480RIO DE JANEIRO RJUNIAO UMB DOS CULTOS AFRO BRAS    10071810 000004
10231987175000168817800093673    000021271                    000212710000000000000109                     I0121271     10071800000000886863410000017N040718104700000000000101007180000000000000000000000000000000000000000100049547410768ROSELI DE SAO JOSE MOREIRA              RUA: ALCIDES MAIA                       BENTO RIBEIR21550560RIO DE JANEIRO RJUNIAO UMB DOS CULTOS AFRO BRAS    10071810 000005
10231987175000168817800093673    000021270                    000212700000000000000109                     I0121270     10071800000000727023410000017N040718104700000000000101007180000000000000000000000000000000000000000100000424410755ANA PAULA SILVA BARBOSA                 RUA: ALCIDES MAIA                       BENTO RIBEIR21550560RIO DE JANEIRO RJUNIAO UMB DOS CULTOS AFRO BRAS    10071810 000006
10231987175000168817800093673    000021269                    000212690000000000000109                     I0121269     10071800000000712223410000017N040718104700000000000101007180000000000000000000000000000000000000000100001061174751SAMUEL ANTONIO TRINDADE                 RUA: ALCIDES MAIA                       BENTO RIBEIR21550560RIO DE JANEIRO RJUNIAO UMB DOS CULTOS AFRO BRAS    10071810 000007
10231987175000168817800093673    000021268                    000212680000000000000109                     I0121268     10071800000000577253410000017N040718104700000000000101007180000000000000000000000000000000000000000100007854516766NATALIE SILVA DE LIMA                   RUA: JOAO DANIEL                        BENTO RIBEIR21550480RIO DE JANEIRO RJUNIAO UMB DOS CULTOS AFRO BRAS    10071810 000008
10231987175000168817800093673    000021267                    000212670000000000000109                     I0121267     10071800000000768253410000017N040718104700000000000101007180000000000000000000000000000000000000000100082228507768IARA LUCIA RIBEIRO QUINTINO             RUA: JOAO DANIEL                        BENTO RIBEIR21550480RIO DE JANEIRO RJUNIAO UMB DOS CULTOS AFRO BRAS    10071810 000009
10231987175000168817800093673    000021266                    000212660000000000000109                     I0221266     10071800000000301353410000017N040718104700000000000101007180000000000000000000000000000000000000000100082228507768IARA LUCIA RIBEIRO QUINTINO             RUA: JOAO DANIEL                        BENTO RIBEIR21550480RIO DE JANEIRO RJUNIAO UMB DOS CULTOS AFRO BRAS    10071810 000010
10231987175000168817800093673    000021265                    000212650000000000000109                     I0121265     10071800000000598253410000017N040718104700000000000101007180000000000000000000000000000000000000000100078566738772MARINA SOARES DA SILVA                  RUA: JOAO DANIEL                        BENTO RIBEIR21550480RIO DE JANEIRO RJUNIAO UMB DOS CULTOS AFRO BRAS    10071810 000011
10231987175000168817800093673    000021264                    000212640000000000000109                     I0121264     10071800000000421353410000017N040718104700000000000101007180000000000000000000000000000000000000000100068760680725ANNA LUCIA DE SOUZA                     RUA: JOAO DANIEL                        BENTO RIBEIR21550480RIO DE JANEIRO RJUNIAO UMB DOS CULTOS AFRO BRAS    10071810 000012
10231987175000168817800093673    000021263                    000212630000000000000109                     I0121263     10071800000000533253410000017N040718104700000000000101007180000000000000000000000000000000000000000100093728467791ALEX DE SOUZA MARTINS                   RUA: JOAO DANIEL                        BENTO RIBEIR21550480RIO DE JANEIRO RJUNIAO UMB DOS CULTOS AFRO BRAS    10071810 000013
10231987175000168817800093673    000021262                    000212620000000000000109                     I0121262     10071800000001200003410000017N040718104700000000000101007180000000000000000000000000000000000000000100012701486726MARIANA MAGALHAES DE C. J. I.           RUA: SALOMAO FILHO                      MARECHAL HER21331660RIO DE JANEIRO RJUNIAO UMB DOS CULTOS AFRO BRAS    10071810 000014
10231987175000168817800093673    000021260                    000212600000000000000109                     I0121260     05081800000000210003410000017N040718104700000000000100508180000000000000000000000000000000000000000100014963009714MICHELLE DA SILVA SOARES                RUA: MINAS GERAIS                       PIABETA     25935525MAGE           RJUNIAO UMB DOS CULTOS AFRO BRAS    05081810 000015
10231987175000168817800093673    000012684                    000126840000000000000109                     I0212684     30051800000000035003410000017N200218104700000000000103005180000000000000000000000000000000000000000100004765875733BEATRIZ GOMES DEMIRSKY                  AVENIDA MERITI N 1421 APT 201           VILA DA PENH21220201RIO DE JANEIRO RJUNIAO UMB DOS CULTOS AFRO BRAS    30051810 000016
10231987175000168817800093673    000011075                    000110750000000000000109                     I0211075     30041800000000035003410000017N200218104700000000000103004180000000000000000000000000000000000000000100004765875733BEATRIZ GOMES DEMIRSKY                  AVENIDA MERITI N 1421 APT 201           VILA DA PENH21220201RIO DE JANEIRO RJUNIAO UMB DOS CULTOS AFRO BRAS    30041810 000017
9                                                                                                                                                                                                                                                                                                                                                                                                         000018
