01REMESSA01COBRANCA       817800093673        União Umb dos Cultos Afro Bra341BANCO ITAU SA  250718                                                                                                                                                                                                                                                                                                      000001
10231987175000168817800093673    000021064                    000210640000000000000109                     I0221064     04061800000000105003410000017N230518104700000000000100406180000000000000000000000000000000000000000100007986589752LEANDRO DOS SANTOS RODRIGUES            AVENIDA GASPAR DE LEMOS, 13             ILHA DE GUAR23020230RIO DE JANEIRO RJUNIAO UMB DOS CULTOS AFRO BRAS    04061810 000002
10231987175000168817800093673    000014249                    000142490000000000000109                     I0214249     30051800000000035003410000017N200318104700000000000103005180000000000000000000000000000000000000000100095846190715ANA MARIA NICANOR DE QUADRO             RUA: PASSO FUNDO                        JARDIM GUAND26298189NOVA IGUACU    RJUNIAO UMB DOS CULTOS AFRO BRAS    30051810 000003
10231987175000168817800093673    000013663                    000136630000000000000109                     I0213663     30051800000000035003410000017N200218104700000000000103005180000000000000000000000000000000000000000100007726251743ROSANGELA IZAURINA DOS SANTOS           RUA ESPERANCA                           TIRADENTES  11111111NOVA IGUACU    RJUNIAO UMB DOS CULTOS AFRO BRAS    30051810 000004
10231987175000168817800093673    000013523                    000135230000000000000109                     I3413523     30051800000000035003410000017N200218104700000000000103005180000000000000000000000000000000000000000100003003808789ADRIANA LUCIANA DA SILVA                AVENIDA VICENTE DE CARVALHO, 1086, RUA AVICENTE DE C21210024RIO DE JANEIRO RJUNIAO UMB DOS CULTOS AFRO BRAS    30051810 000005
10231987175000168817800093673    000013488                    000134880000000000000109                     I3413488     30051800000000035003410000017N200218104700000000000103005180000000000000000000000000000000000000000100093265042715CARMEN MESQUITA CAMILLO DA SIL          RUA RAUL PEDERNEIRAS, 261               BANGU - RIO 21860210RIO DE JANEIRO RJUNIAO UMB DOS CULTOS AFRO BRAS    30051810 000006
10231987175000168817800093673    000013470                    000134700000000000000109                     I0213470     30051800000000035003410000017N200218104700000000000103005180000000000000000000000000000000000000000100007228447786JEFFERSON CACADOR DE LIMA               ESTRADA DO TINDIBA N 744                TAQUARA - RI22740360RIO DE JANEIRO RJUNIAO UMB DOS CULTOS AFRO BRAS    30051810 000007
10231987175000168817800093673    000013302                    000133020000000000000109                     I0213302     30051800000000035003410000017N200218104700000000000103005180000000000000000000000000000000000000000100007986589752LEANDRO DOS SANTOS RODRIGUES            AVENIDA GASPAR DE LEMOS, 13             ILHA DE GUAR23020230RIO DE JANEIRO RJUNIAO UMB DOS CULTOS AFRO BRAS    30051810 000008
10231987175000168817800093673    000013076                    000130760000000000000109                     I3413076     30051800000000035003410000017N200218104700000000000103005180000000000000000000000000000000000000000100071360573704GREICE DE SOUZA MILHAR DA SILV          RUA BARAO SAO FRANCISCO                 VILA ISABEL 20541372RIO DE JANEIRO RJUNIAO UMB DOS CULTOS AFRO BRAS    30051810 000009
10231987175000168817800093673    000012547                    000125470000000000000109                     I3412547     30051800000000035003410000017N200218104700000000000103005180000000000000000000000000000000000000000100005556657718EDUARDO DE OLIVEIRA SILVA               AV. GETULIO DE MOURA LOTE 9 QUADRA 1    A.PORTO / S.25520660SAO JOAO DE MERRJUNIAO UMB DOS CULTOS AFRO BRAS    30051810 000010
10231987175000168817800093673    000012412                    000124120000000000000109                     I0212412     30051800000000035003410000017N200218104700000000000103005180000000000000000000000000000000000000000100086919105772FLAVIO DA SILVA BARBOSA                 ESTRADA DO QUAFA, 678 RUA B LOTE 43     SANTISSIMO -23098030RIO DE JANEIRO RJUNIAO UMB DOS CULTOS AFRO BRAS    30051810 000011
10231987175000168817800093673    000012054                    000120540000000000000109                     I0212054     30041800000000035003410000017N200218104700000000000103004180000000000000000000000000000000000000000100007726251743ROSANGELA IZAURINA DOS SANTOS           RUA ESPERANCA                           TIRADENTES  11111111NOVA IGUACU    RJUNIAO UMB DOS CULTOS AFRO BRAS    30041810 000012
10231987175000168817800093673    000011914                    000119140000000000000109                     I3411914     30041800000000035003410000017N200218104700000000000103004180000000000000000000000000000000000000000100003003808789ADRIANA LUCIANA DA SILVA                AVENIDA VICENTE DE CARVALHO, 1086, RUA AVICENTE DE C21210024RIO DE JANEIRO RJUNIAO UMB DOS CULTOS AFRO BRAS    30041810 000013
10231987175000168817800093673    000011861                    000118610000000000000109                     I0211861     30041800000000035003410000017N200218104700000000000103004180000000000000000000000000000000000000000100007228447786JEFFERSON CACADOR DE LIMA               ESTRADA DO TINDIBA N 744                TAQUARA - RI22740360RIO DE JANEIRO RJUNIAO UMB DOS CULTOS AFRO BRAS    30041810 000014
10231987175000168817800093673    000011623                    000116230000000000000109                     I3411623     30041800000000035003410000017N200218104700000000000103004180000000000000000000000000000000000000000100059841672715MONICA TARDELLE                         RUA: EUBANQUE                           ENGENHO DA R20766600RIO DE JANEIRO RJUNIAO UMB DOS CULTOS AFRO BRAS    30041810 000015
10231987175000168817800093673    000011467                    000114670000000000000109                     I3411467     30041800000000035003410000017N200218104700000000000103004180000000000000000000000000000000000000000100071360573704GREICE DE SOUZA MILHAR DA SILV          RUA BARAO SAO FRANCISCO                 VILA ISABEL 20541372RIO DE JANEIRO RJUNIAO UMB DOS CULTOS AFRO BRAS    30041810 000016
10231987175000168817800093673    000011126                    000111260000000000000109                     I0211126     30041800000000035003410000017N200218104700000000000103004180000000000000000000000000000000000000000100079469825772VICTOR FRANCISCO PEREIRA NETO           RUA YZ 2 LT 7,8,9 QDRA 27 B/ JD ANHANGA DUQUE DE CAX25036290DUQUE DE CAXIASRJUNIAO UMB DOS CULTOS AFRO BRAS    30041810 000017
10231987175000168817800093673    000010803                    000108030000000000000109                     I0210803     30041800000000035003410000017N200218104700000000000103004180000000000000000000000000000000000000000100086919105772FLAVIO DA SILVA BARBOSA                 ESTRADA DO QUAFA, 678 RUA B LOTE 43     SANTISSIMO -23098030RIO DE JANEIRO RJUNIAO UMB DOS CULTOS AFRO BRAS    30041810 000018
9                                                                                                                                                                                                                                                                                                                                                                                                         000019
