01REMESSA01COBRANCA       817800093673        União Umb dos Cultos Afro Bra341BANCO ITAU SA  240218                                                                                                                                                                                                                                                                                                      000001
10231987175000168817800093673    00009949                     000099490000000000000109                     I019949      30031800000000035003410000017N200218104700000000000103003180000000000000000000000000000000000000000100008311073759ANDERSON DA ANUNCIACAO SILVA            RUA ROLDAO GONCALVES, 2571 CASA 1       CABRAL - NIL26520541NILOPOLIS      RJUNIAO UMB DOS CULTOS AFRO BRAS    30031810 000002
10231987175000168817800093673    00009948                     000099480000000000000109                     I019948      30031800000000035003410000017N200218104700000000000103003180000000000000000000000000000000000000000100014662958725LUAN HENRIQUE MONTEIRO                  ESTRADA DO PARAISO N 209                CASTELANEA -25635412PETROPOLIS     RJUNIAO UMB DOS CULTOS AFRO BRAS    30031810 000003
10231987175000168817800093673    00009947                     000099470000000000000109                     I019947      30031800000000035003410000017N200218104700000000000103003180000000000000000000000000000000000000000100008098163776LUIS CARLOS DA ROCHA MARTINS            RUA CORONEL TITO PORTO CARREIRO, 17     PACIENCIA - 23580010RIO DE JANEIRO RJUNIAO UMB DOS CULTOS AFRO BRAS    30031810 000004
10231987175000168817800093673    00009946                     000099460000000000000109                     I019946      30031800000000035003410000017N200218104700000000000103003180000000000000000000000000000000000000000100002871832706VILMA LUCI PENEDO DOS SANTOS            RUA OLINDA, SN QUADRA E LOTE 1          LAGOINHA - N26296453NOVA IGUACU    RJUNIAO UMB DOS CULTOS AFRO BRAS    30031810 000005
10231987175000168817800093673    00009945                     000099450000000000000109                     I019945      30031800000000035003410000017N200218104700000000000103003180000000000000000000000000000000000000000100018324860797ORLANDO ROCHA                           RUA EDUARDO CESAR MACHADO, 616          ANCHIETA - R21635140RIO DE JANEIRO RJUNIAO UMB DOS CULTOS AFRO BRAS    30031810 000006
10231987175000168817800093673    00009944                     000099440000000000000109                     I019944      30031800000000035003410000017N200218104700000000000103003180000000000000000000000000000000000000000100006927798705ROSA MARIA RICARDO PINTO                RUA JOAQUIM BESSA, 148 / RUA DOIS, 169  TRINDADE - S24210205SAO GONCALO    RJUNIAO UMB DOS CULTOS AFRO BRAS    30031810 000007
10231987175000168817800093673    00009943                     000099430000000000000109                     I019943      30031800000000035003410000017N200218104700000000000103003180000000000000000000000000000000000000000100000934452709ROGERIO DOS SANTOS MAGALHAES            RUA KLEBER SANTOS DE CARVALHO,  QUADRA 2JARDIM IRES 25576261SAO JOAO DE MERRJUNIAO UMB DOS CULTOS AFRO BRAS    30031810 000008
10231987175000168817800093673    00009942                     000099420000000000000109                     I019942      30031800000000035003410000017N200218104700000000000103003180000000000000000000000000000000000000000100036547107787JOAO CARLOS SALERNO                     RUA CAETANO SALERMO, 54 A               ALTO DA SERR25635020PETROPOLIS     RJUNIAO UMB DOS CULTOS AFRO BRAS    30031810 000009
10231987175000168817800093673    00009941                     000099410000000000000109                     I019941      30031800000000035003410000017N200218104700000000000103003180000000000000000000000000000000000000000100043013350725CARLOS ALBERTO DUARTE                   RUA EUNAPIO DEIRO, 13                   REALENGO - R21710020RIO DE JANEIRO RJUNIAO UMB DOS CULTOS AFRO BRAS    30031810 000010
10231987175000168817800093673    00009940                     000099400000000000000109                     I019940      30031800000000035003410000017N200218104700000000000103003180000000000000000000000000000000000000000100043839312787GILDA MANOELA                           RUA CRISANTEMOS, LOTE 28 QUADRA 20      PRADOS VERDE26299039NOVA IGUACU    RJUNIAO UMB DOS CULTOS AFRO BRAS    30031810 000011
10231987175000168817800093673    00009939                     000099390000000000000109                     I019939      30031800000000035003410000017N200218104700000000000103003180000000000000000000000000000000000000000100011187294713RONAN RICARDO SANTOS DE ASSIS           RUA DOUTOR LUIZ GALDIER-LEI, 108        PENHA - RIO 21070100RIO DE JANEIRO RJUNIAO UMB DOS CULTOS AFRO BRAS    30031810 000012
10231987175000168817800093673    00009938                     000099380000000000000109                     I019938      30031800000000035003410000017N200218104700000000000103003180000000000000000000000000000000000000000100004756437710FABIANA DE SOUZA CAMPOS                 RUA SAO RAIMUNDO SN QUADRA 161 LOTE 5 - NOVA IGUACU/26298722RIO DE JANEIRO RJUNIAO UMB DOS CULTOS AFRO BRAS    30031810 000013
10231987175000168817800093673    00009937                     000099370000000000000109                     I019937      30031800000000035003410000017N200218104700000000000103003180000000000000000000000000000000000000000100005243182710JACIRA HELENA MAURICIO ARRUDA           AVENIDA TENENTE REBELO, 531 / 104       IRAJA - RIO 21241460RIO DE JANEIRO RJUNIAO UMB DOS CULTOS AFRO BRAS    30031810 000014
10231987175000168817800093673    00009936                     000099360000000000000109                     I019936      30031800000000035003410000017N200218104700000000000103003180000000000000000000000000000000000000000100059475161791MARIA NAZARETE ALVES ANTONIO            TRAVESSA SANTOS DUMONT, 23 FUNDOS       ILHA DO GOVE21910490RIO DE JANEIRO RJUNIAO UMB DOS CULTOS AFRO BRAS    30031810 000015
10231987175000168817800093673    00009935                     000099350000000000000109                     I019935      30031800000000035003410000017N200218104700000000000103003180000000000000000000000000000000000000000100043224164700CLEUZA LORETTE GONCALVES                RUA EMILIA RIBEIRO, 91 A                BENTO RIBEIR21550530RIO DE JANEIRO RJUNIAO UMB DOS CULTOS AFRO BRAS    30031810 000016
10231987175000168817800093673    00009934                     000099340000000000000109                     I019934      30031800000000035003410000017N200218104700000000000103003180000000000000000000000000000000000000000100098194542715MARCIA CRISTINA LEAL DA ROCHA           RUA PADRE ANCHIETA, 42                  ALTO DA SERR25635150PETROPOLIS     RJUNIAO UMB DOS CULTOS AFRO BRAS    30031810 000017
10231987175000168817800093673    00009933                     000099330000000000000109                     I019933      30031800000000050003410000017N200218104700000000000103003180000000000000000000000000000000000000000100005215642710ROBERTA LIMA GRIJO                      RUA FLORANIA, 475                       VISTA ALEGRE21230700RIO DE JANEIRO RJUNIAO UMB DOS CULTOS AFRO BRAS    30031810 000018
10231987175000168817800093673    00009932                     000099320000000000000109                     I019932      30031800000000035003410000017N200218104700000000000103003180000000000000000000000000000000000000000100050946510725MARIA LUIZA DOS SANTOS                  RUA J QUADRA 4 LOTE 8 FUNDOS            CAMPINHO - R21330735RIO DE JANEIRO RJUNIAO UMB DOS CULTOS AFRO BRAS    30031810 000019
10231987175000168817800093673    00009931                     000099310000000000000109                     I019931      30031800000000035003410000017N200218104700000000000103003180000000000000000000000000000000000000000100042956765787ARACILDA DOS SANTOS FREITAS             RUA BAHIA, 182 - COREIA                 JUSCELINO - 26556440RIO DE JANEIRO RJUNIAO UMB DOS CULTOS AFRO BRAS    30031810 000020
10231987175000168817800093673    00009930                     000099300000000000000109                     I029930      30031800000000035003410000017N200218104700000000000103003180000000000000000000000000000000000000000100002673106766JANAINA MARQUES ALVES SANTOS T          RUA C LOTE 6 QUADRA 3                   BASILIO - RI28800000RIO DE JANEIRO RJUNIAO UMB DOS CULTOS AFRO BRAS    30031810 000021
10231987175000168817800093673    00009929                     000099290000000000000109                     I019929      30031800000000035003410000017N200218104700000000000103003180000000000000000000000000000000000000000100002486800727MARCIA REGINA DA SILVA SANTOS           ESTRADA DO PORTO VELHO, 555 ENTRADA A CACORDOVIL - R21012140RIO DE JANEIRO RJUNIAO UMB DOS CULTOS AFRO BRAS    30031810 000022
10231987175000168817800093673    00009928                     000099280000000000000109                     I019928      30031800000000035003410000017N200218104700000000000103003180000000000000000000000000000000000000000100090285646753JORGE LUIZ SILVA ARAUJO                 RUA MANOEL FRANCISCO ALVES, 99          IMPOERADOR -25926346MAGE           RJUNIAO UMB DOS CULTOS AFRO BRAS    30031810 000023
10231987175000168817800093673    00009927                     000099270000000000000109                     I019927      30031800000000035003410000017N200218104700000000000103003180000000000000000000000000000000000000000100005215146730ALEX HIKL JACOB                         RUA SUELI, LOTE 11 QUADRA 9             PARQUE SAO J26193030BELFORD ROXO   RJUNIAO UMB DOS CULTOS AFRO BRAS    30031810 000024
10231987175000168817800093673    00009926                     000099260000000000000109                     I019926      30031800000000035003410000017N200218104700000000000103003180000000000000000000000000000000000000000100040215326768ANTONIO JOAQUIM DOS SANTOS FIL          RUA SAO FRANCISCO, 137 - CANTO DO RIO   SEROPEDICA -23890000RIO DE JANEIRO RJUNIAO UMB DOS CULTOS AFRO BRAS    30031810 000025
10231987175000168817800093673    00009925                     000099250000000000000109                     I019925      30031800000000035003410000017N200218104700000000000103003180000000000000000000000000000000000000000100077220145772ANGELA MARIA VIANA DOS SANTOS           RUA ANTONIO ALEXANDRE DE OLIVEIRA, 276  CENTRO - SAO25515050SAO JOAO DE MERRJUNIAO UMB DOS CULTOS AFRO BRAS    30031810 000026
10231987175000168817800093673    00009924                     000099240000000000000109                     I019924      30031800000000035003410000017N200218104700000000000103003180000000000000000000000000000000000000000100061692000730JOAQUIM PEIXOTO                         RUA W 14 LOTE 180 CASA 1                LAGOMAR - MA27970130MACAE          RJUNIAO UMB DOS CULTOS AFRO BRAS    30031810 000027
10231987175000168817800093673    00009923                     000099230000000000000109                     I019923      30031800000000035003410000017N200218104700000000000103003180000000000000000000000000000000000000000100007000973765SILVIA DAS GRACAS SANTANA               RUA NELIO CHAMBARELLI, 1 QUADRA K - JARDN.S.DE FATIM26313040RIO DE JANEIRO RJUNIAO UMB DOS CULTOS AFRO BRAS    30031810 000028
10231987175000168817800093673    00009922                     000099220000000000000109                     I019922      30031800000000035003410000017N200218104700000000000103003180000000000000000000000000000000000000000100047448865749NEUSA MARIA DA SILVA                    AVENIDA CORONEL PHIDIAS TAVORA, RUA LIRIJARDIM AMERI21535590RIO DE JANEIRO RJUNIAO UMB DOS CULTOS AFRO BRAS    30031810 000029
10231987175000168817800093673    00009921                     000099210000000000000109                     I019921      30031800000000035003410000017N200218104700000000000103003180000000000000000000000000000000000000000100008664578756ATILA LARRICE GALDINO                   RUA MINERVINA NUNES DA COSTA, 238 FUNDOSPARQUE ANCHI21635350RIO DE JANEIRO RJUNIAO UMB DOS CULTOS AFRO BRAS    30031810 000030
10231987175000168817800093673    00009920                     000099200000000000000109                     I019920      30031800000000035003410000017N200218104700000000000103003180000000000000000000000000000000000000000100008468031780JANAINA QUINTELLA BARROS                RUA TEIXEIRA DE FREITAS, 962            FONSECA - NI24130606NITEROI        RJUNIAO UMB DOS CULTOS AFRO BRAS    30031810 000031
10231987175000168817800093673    00009919                     000099190000000000000109                     I019919      30031800000000035003410000017N200218104700000000000103003180000000000000000000000000000000000000000100004764270706FLAVIO AILTON BRAGA FERREIRA            RUA CABURI, 11                          ROCHA MIRAND21550050RIO DE JANEIRO RJUNIAO UMB DOS CULTOS AFRO BRAS    30031810 000032
10231987175000168817800093673    00009918                     000099180000000000000109                     I019918      30031800000000035003410000017N200218104700000000000103003180000000000000000000000000000000000000000100002626885738MARIA LUISA DIAS CRUZ                   RUA DIONISIO FERNANDES N 297 BLOCO 2 APTENGENHO DE D20730400RIO DE JANEIRO RJUNIAO UMB DOS CULTOS AFRO BRAS    30031810 000033
10231987175000168817800093673    00009917                     000099170000000000000109                     I019917      30031800000000035003410000017N200218104700000000000103003180000000000000000000000000000000000000000100002046107705PAULO SERGIO MILITAO HENRIQUE           RUA VIENA, 41                           BRAS DE PINA21215350RIO DE JANEIRO RJUNIAO UMB DOS CULTOS AFRO BRAS    30031810 000034
10231987175000168817800093673    00009916                     000099160000000000000109                     I019916      30031800000000035003410000017N200218104700000000000103003180000000000000000000000000000000000000000100002575759790TERESA QUITA                            AVENIDA PRIMEIRO DE MAIO, 2786 GLEBA B  CHAPERO - IT23831350ITAGUAI        RJUNIAO UMB DOS CULTOS AFRO BRAS    30031810 000035
10231987175000168817800093673    00009915                     000099150000000000000109                     I019915      30031800000000035003410000017N200218104700000000000103003180000000000000000000000000000000000000000100000581452067VERA LUCIA BATISTA DOS SANTOS           AV PRESD. JUSCELINO KUBISCHECK DE OLIVEIBELFORD ROXO26173515RIO DE JANEIRO RJUNIAO UMB DOS CULTOS AFRO BRAS    30031810 000036
10231987175000168817800093673    00009914                     000099140000000000000109                     I019914      30031800000000035003410000017N200218104700000000000103003180000000000000000000000000000000000000000100060471859753MARLENE IBRAIN                          O MESMO                                 O MESMO     27971180MACAE          RJUNIAO UMB DOS CULTOS AFRO BRAS    30031810 000037
10231987175000168817800093673    00009913                     000099130000000000000109                     I019913      30031800000000035003410000017N200218104700000000000103003180000000000000000000000000000000000000000100033630631720JOSE ANTONIO CERQUEIRA                  RUA MAESTRO VILA LOBOS, 1 APTO 704      TIJUCA - RIO20260220RIO DE JANEIRO RJUNIAO UMB DOS CULTOS AFRO BRAS    30031810 000038
10231987175000168817800093673    00009912                     000099120000000000000109                     I019912      30031800000000035003410000017N200218104700000000000103003180000000000000000000000000000000000000000100065936957772ANTONIO CLAUDIO PEREIRA                 RUA RESTINGA, QUADRA 58 LOTE 6          MENDANHA - C23097650RIO DE JANEIRO RJUNIAO UMB DOS CULTOS AFRO BRAS    30031810 000039
10231987175000168817800093673    00009911                     000099110000000000000109                     I019911      30031800000000035003410000017N200218104700000000000103003180000000000000000000000000000000000000000100090085310700ROSANGELA VILELA FERREIRA               RUA MATURACA, 380 LOTE 19 QUADRA R 1    PENHA CIRCUL21210360RIO DE JANEIRO RJUNIAO UMB DOS CULTOS AFRO BRAS    30031810 000040
10231987175000168817800093673    00009910                     000099100000000000000109                     I019910      30031800000000035003410000017N200218104700000000000103003180000000000000000000000000000000000000000100011297806786THIAGO PEREIRA DE BRITO                 RUA SAO JANUARIO                        269         24130386NITEROI        RJUNIAO UMB DOS CULTOS AFRO BRAS    30031810 000041
10231987175000168817800093673    00009909                     000099090000000000000109                     I019909      30031800000000035003410000017N200218104700000000000103003180000000000000000000000000000000000000000100089448712715ADELINA GONCALVES                       AVENIDA JOAQUIM CAMARA FERREIRA, 687    VILA KENEDY 21850180RIO DE JANEIRO RJUNIAO UMB DOS CULTOS AFRO BRAS    30031810 000042
10231987175000168817800093673    00009908                     000099080000000000000109                     I019908      30031800000000035003410000017N200218104700000000000103003180000000000000000000000000000000000000000100052417760797TANIA CRISTINA DOS SANTOS MORE          RUA NOVA ESPANHA, 235 - CAMPO ALEGRE    TRES MARIAS 26292327NOVA IGUACU    RJUNIAO UMB DOS CULTOS AFRO BRAS    30031810 000043
10231987175000168817800093673    00009907                     000099070000000000000109                     I019907      30031800000000035003410000017N200218104700000000000103003180000000000000000000000000000000000000000100003436203750ANDRE HENRIQUE FELICIO DE AZEV          ESTRADA: VELHA DO PIAI Nº 328 B        SEPETIBA - R23530800RIO DE JANEIRO RJUNIAO UMB DOS CULTOS AFRO BRAS    30031810 000044
10231987175000168817800093673    00009906                     000099060000000000000109                     I019906      30031800000000035003410000017N200218104700000000000103003180000000000000000000000000000000000000000200000000010723MARIA DAS GRACAS DA SILVA EDMU          RUA LUIZ FELIPE, 121 CASA 3 - VILA BORGECOMENDADOR S26277360NOVA IGUACU    RJUNIAO UMB DOS CULTOS AFRO BRAS    30031810 000045
10231987175000168817800093673    00009905                     000099050000000000000109                     I019905      30031800000000035003410000017N200218104700000000000103003180000000000000000000000000000000000000000100077031714703LEILIANE NOGUEIRA OLIVEIRA              TRAVESSA VINTE E OITO, 6                PARQUE SANTA26115230BELFORD ROXO   RJUNIAO UMB DOS CULTOS AFRO BRAS    30031810 000046
10231987175000168817800093673    00009904                     000099040000000000000109                     I019904      30031800000000035003410000017N200218104700000000000103003180000000000000000000000000000000000000000100081561326704MARCIO ELIAS GONCALVES                  RUA: NOVA Nº 654-A - GUARATIBA         CAMPO GRANDE21820210RIO DE JANEIRO RJUNIAO UMB DOS CULTOS AFRO BRAS    30031810 000047
10231987175000168817800093673    00009903                     000099030000000000000109                     I019903      30031800000000035003410000017N200218104700000000000103003180000000000000000000000000000000000000000100001936810727ALEX SALES ABBAS                        RUA BRASILIA, LOTE 6 QUADRA D CASA 4    COELHO DA RO25507200SAO JOAO DE MERRJUNIAO UMB DOS CULTOS AFRO BRAS    30031810 000048
10231987175000168817800093673    00009902                     000099020000000000000109                     I019902      30031800000000035003410000017N200218104700000000000103003180000000000000000000000000000000000000000100001143711726MARLENE GOMES CAETANO AUGUSTO           RUA JOAQUIM CAETANO, 141                JARDIM ALVOR26261350NOVA IGUACU    RJUNIAO UMB DOS CULTOS AFRO BRAS    30031810 000049
10231987175000168817800093673    00009901                     000099010000000000000109                     I019901      30031800000000035003410000017N200218104700000000000103003180000000000000000000000000000000000000000100075745658720ELIZIETE COIMBRA DE FRANCA              RUA SAO LOURENCO, 99 - SANTA RITA       SANTA RITA -26050630NOVA IGUACU    RJUNIAO UMB DOS CULTOS AFRO BRAS    30031810 000050
10231987175000168817800093673    00009900                     000099000000000000000109                     I019900      30031800000000035003410000017N200218104700000000000103003180000000000000000000000000000000000000000100007326065780MARCELO BORGES DE SOUZA                 RUA PLINIO CASADO, 109 CASA 2           ENGENHOCA - 24110475RIO DE JANEIRO RJUNIAO UMB DOS CULTOS AFRO BRAS    30031810 000051
10231987175000168817800093673    00009899                     000098990000000000000109                     I019899      30031800000000035003410000017N200218104700000000000103003180000000000000000000000000000000000000000100043548628753MARIA SALETTE MATTOSO RODRIGUE          RUA PERNAMBUCO, 1254                    ENCANTADO - 20730030RIO DE JANEIRO RJUNIAO UMB DOS CULTOS AFRO BRAS    30031810 000052
10231987175000168817800093673    00009898                     000098980000000000000109                     I019898      30031800000000035003410000017N200218104700000000000103003180000000000000000000000000000000000000000100007117717742MARCELO VITAL DOMINATO                  RUA ATIBA, 44 FUNDOS - JACARE           CACHAMBI - R20785110RIO DE JANEIRO RJUNIAO UMB DOS CULTOS AFRO BRAS    30031810 000053
10231987175000168817800093673    00009897                     000098970000000000000109                     I019897      30031800000000035003410000017N200218104700000000000103003180000000000000000000000000000000000000000100014399025778ALAN MARTINS RIBEIRO                    RUA CACEQUI, 65                         CALIFORNIA -26220150NOVA IGUACU    RJUNIAO UMB DOS CULTOS AFRO BRAS    30031810 000054
10231987175000168817800093673    00009896                     000098960000000000000109                     I019896      30031800000000035003410000017N200218104700000000000103003180000000000000000000000000000000000000000100057232350791NELSON CARNEIRO DA SILVA                RUA MATO GROSSO, 73                     SAPE - NITER24315460NITEROI        RJUNIAO UMB DOS CULTOS AFRO BRAS    30031810 000055
10231987175000168817800093673    00009895                     000098950000000000000109                     I019895      30031800000000035003410000017N200218104700000000000103003180000000000000000000000000000000000000000100071115498720CLEVELAND JOSE LOPES JUNIOR             AVENIDA JOAO RIBEIRO, 507 APTO 101  FUNDPILARES - RI20750094RIO DE JANEIRO RJUNIAO UMB DOS CULTOS AFRO BRAS    30031810 000056
10231987175000168817800093673    00009894                     000098940000000000000109                     I019894      30031800000000035003410000017N200218104700000000000103003180000000000000000000000000000000000000000100001326484745IRACEMA DE OLIVEIRA ROSA BARBO          RUA TOQUIO, 1873                        COELHO DA RO25550140SAO JOAO DE MERRJUNIAO UMB DOS CULTOS AFRO BRAS    30031810 000057
10231987175000168817800093673    00009893                     000098930000000000000109                     I019893      30031800000000035003410000017N200218104700000000000103003180000000000000000000000000000000000000000100087419939772EMANUEL JOSE DOS SANTOS                 RUA MANUEL DE FREITAS, QUADRA D LOTE 10 PANTANAL - D25041500DUQUE CAXIAS   RJUNIAO UMB DOS CULTOS AFRO BRAS    30031810 000058
10231987175000168817800093673    00009892                     000098920000000000000109                     I019892      30031800000000035003410000017N200218104700000000000103003180000000000000000000000000000000000000000100003622363755LUCIENE DA SILVA                        RUA AMADIR LEITE, 106                   JARDIM MONTE26041620NOVA IGUACU    RJUNIAO UMB DOS CULTOS AFRO BRAS    30031810 000059
10231987175000168817800093673    00009891                     000098910000000000000109                     I019891      30031800000000035003410000017N200218104700000000000103003180000000000000000000000000000000000000000100001647427789SELMA CRISTINA DE HOLANDA PERR          AVENIDA MANAUS, 540                     TRINDADE - S24456320SAO GONCALO    RJUNIAO UMB DOS CULTOS AFRO BRAS    30031810 000060
10231987175000168817800093673    00009890                     000098900000000000000109                     I019890      30031800000000035003410000017N200218104700000000000103003180000000000000000000000000000000000000000100004223999737CLEONICE LIMA NASCIMENTO                O MESMO                                 O MESMO     25267300DUQUE DE CAXIASRJUNIAO UMB DOS CULTOS AFRO BRAS    30031810 000061
10231987175000168817800093673    00009889                     000098890000000000000109                     I019889      30031800000000035003410000017N200218104700000000000103003180000000000000000000000000000000000000000200000000010622MARCELO DO VALLE ABREU                  RUA DEPUTADO SA REGO, 211 FUNDOS        VILA SAO LUI25065030DUQUE DE CAXIASRJUNIAO UMB DOS CULTOS AFRO BRAS    30031810 000062
10231987175000168817800093673    00009888                     000098880000000000000109                     I019888      30031800000000035003410000017N200218104700000000000103003180000000000000000000000000000000000000000100011452515794DEBORAH CHRISTINA DA SILVA CAN          RUA LAZARO MONCEF , 53                  SEPETIBA - R23540190RIO DE JANEIRO RJUNIAO UMB DOS CULTOS AFRO BRAS    30031810 000063
10231987175000168817800093673    00009887                     000098870000000000000109                     I019887      30031800000000035003410000017N200218104700000000000103003180000000000000000000000000000000000000000100009485186770MARTA FERREIRA BENVINDO PIMENT          RUA: JOSE MARIA Nº 169                 PENHA - RJ  21070140RIO DE JANEIRO RJUNIAO UMB DOS CULTOS AFRO BRAS    30031810 000064
10231987175000168817800093673    00009886                     000098860000000000000109                     I019886      30031800000000035003410000017N200218104700000000000103003180000000000000000000000000000000000000000100008486144612BRUNO FELIPE KALIL HOMSE                RUA JOAQUIM BENEDITO DE PAULA, 639      SAO GERALDO 37558101POUSO ALEGRE   MGUNIAO UMB DOS CULTOS AFRO BRAS    30031810 000065
10231987175000168817800093673    00009885                     000098850000000000000109                     I019885      30031800000000035003410000017N200218104700000000000103003180000000000000000000000000000000000000000100002316322743REGIANE DE LIMA SANTANA SOBRAL          RUA KATAR RECHUAN 534                   GRANDE RIO -25540040SAO JOAO DE MERRJUNIAO UMB DOS CULTOS AFRO BRAS    30031810 000066
10231987175000168817800093673    00009884                     000098840000000000000109                     I019884      30031800000000035003410000017N200218104700000000000103003180000000000000000000000000000000000000000200000000010582NILO SERGIO SANTOS BARCELLOS            ESTRADA CORONEL VIEIRA, 134 BLOCO 4 APTOIRAJA - RJ  21220310RIO DE JANEIRO RJUNIAO UMB DOS CULTOS AFRO BRAS    30031810 000067
10231987175000168817800093673    00009883                     000098830000000000000109                     I019883      30031800000000035003410000017N200218104700000000000103003180000000000000000000000000000000000000000100073885169720MACARIO RODRIGUES DA FONSECA J          RUA GILDA MARIA, 21                     PARQUE FLORA26040820NOVA IGUACU    RJUNIAO UMB DOS CULTOS AFRO BRAS    30031810 000068
10231987175000168817800093673    00009882                     000098820000000000000109                     I019882      30031800000000035003410000017N200218104700000000000103003180000000000000000000000000000000000000000200000000010546SIMONE MOREIRA MORAIS                   RUA TRAJANO DE MORAIS, 547 - CAIXA D AGUCAIXA D AGUA27135280BARRA DO PIRAI RJUNIAO UMB DOS CULTOS AFRO BRAS    30031810 000069
10231987175000168817800093673    00009881                     000098810000000000000109                     I019881      30031800000000035003410000017N200218104700000000000103003180000000000000000000000000000000000000000100001928256740MARILZA SANTOS DE OLIVEIRA              RUA DOS PINHEIROS, 368 CASA 1 - VILA DE PRQ ANTARTIC26052720NOVA IGUACU    RJUNIAO UMB DOS CULTOS AFRO BRAS    30031810 000070
10231987175000168817800093673    00009880                     000098800000000000000109                     I019880      30031800000000035003410000017N200218104700000000000103003180000000000000000000000000000000000000000100043599745749VANIA MARIA GOMES PEREIRA               RUA AJAPI, 510 CASA A 2                 COSMOS - RJ 23066420RIO DE JANEIRO RJUNIAO UMB DOS CULTOS AFRO BRAS    30031810 000071
10231987175000168817800093673    00009879                     000098790000000000000109                     I019879      30031800000000035003410000017N200218104700000000000103003180000000000000000000000000000000000000000100001961346761MARLENE DE OLIVEIRA MARCOLINO           O MESMO                                 O MESMO     25623519PETROPOLIS     RJUNIAO UMB DOS CULTOS AFRO BRAS    30031810 000072
10231987175000168817800093673    00009878                     000098780000000000000109                     I019878      30031800000000035003410000017N200218104700000000000103003180000000000000000000000000000000000000000100009545367709VERONICA BRAZ DA SILVA                  RUA SANTA RITA LOTE 17 E 18 QDA 39      PQ. SAO FRAN26355000NOVA IGUACU    RJUNIAO UMB DOS CULTOS AFRO BRAS    30031810 000073
10231987175000168817800093673    00009877                     000098770000000000000109                     I019877      30031800000000035003410000017N200218104700000000000103003180000000000000000000000000000000000000000100004493547766ROBSON FRANCISCO ESCHOLASTICO           RUA MATHIAS MACHADO, 87                 ARSENAL - SA24745050SAO GONCALO    RJUNIAO UMB DOS CULTOS AFRO BRAS    30031810 000074
10231987175000168817800093673    00009876                     000098760000000000000109                     I019876      30031800000000035003410000017N200218104700000000000103003180000000000000000000000000000000000000000100010329411705RODRIGO SILVA DO NASCIMENTO SA          RUA: PAPA FOLHA LOTE 2 QUADRA 28 - VILA DUQUE DE CAX25255190DUQUE DE CAXIASRJUNIAO UMB DOS CULTOS AFRO BRAS    30031810 000075
10231987175000168817800093673    00009875                     000098750000000000000109                     I019875      30031800000000035003410000017N200218104700000000000103003180000000000000000000000000000000000000000100088364607715ELISABETE DA CONCEICAO LIMA             RUA ABILIO MACHADO, 163                 VILA TIRADEN25525160SAO JOAO DE MERRJUNIAO UMB DOS CULTOS AFRO BRAS    30031810 000076
10231987175000168817800093673    00009874                     000098740000000000000109                     I019874      30031800000000035003410000017N200218104700000000000103003180000000000000000000000000000000000000000100058835652715LUCY ALMEIDA MARTINS DA SILVA           RUA JOAO MENINO,49 FUNDOS               ITACURUCA - 23860000MANGARATIBA    RJUNIAO UMB DOS CULTOS AFRO BRAS    30031810 000077
10231987175000168817800093673    00009873                     000098730000000000000109                     I019873      30031800000000035003410000017N200218104700000000000103003180000000000000000000000000000000000000000200000000010499MARIA DA GRACA RODRIGUEZ                RUA PINTO TELES, 1048 A                 VILA VALQUEI21341270RIO DE JANEIRO RJUNIAO UMB DOS CULTOS AFRO BRAS    30031810 000078
10231987175000168817800093673    00009872                     000098720000000000000109                     I019872      30031800000000035003410000017N200218104700000000000103003180000000000000000000000000000000000000000100001820956733JUREMA RODRIGUES DE OLIVEIRA            RUA ANTONIO TEODORO DE CASTRO, 88 CASA 1PACIENCIA - 23573200RIO DE JANEIRO RJUNIAO UMB DOS CULTOS AFRO BRAS    30031810 000079
10231987175000168817800093673    00009871                     000098710000000000000109                     I019871      30031800000000035003410000017N200218104700000000000103003180000000000000000000000000000000000000000100091334306753LUCIA DE ANDRADE VAZ DE MELLO           RUA SANTO AGOSTINHO, 200 CASA 47        ANDARAI - RI20541260RIO DE JANEIRO RJUNIAO UMB DOS CULTOS AFRO BRAS    30031810 000080
10231987175000168817800093673    00009870                     000098700000000000000109                     I019870      30031800000000035003410000017N200218104700000000000103003180000000000000000000000000000000000000000100081632746700LEILA DOS SANTOS SILVA                  RUA VIRGILIO BRIGIDO, 369               CAMPO GRANDE23045805RIO DE JANEIRO RJUNIAO UMB DOS CULTOS AFRO BRAS    30031810 000081
10231987175000168817800093673    00009869                     000098690000000000000109                     I019869      30031800000000035003410000017N200218104700000000000103003180000000000000000000000000000000000000000100001876672765AGUIMAR FERREIRA PIRES                  RUA ZELIO DE MORAES, 435 PARADA 40      SAO GONCALO 24435080SAO GONCALO    RJUNIAO UMB DOS CULTOS AFRO BRAS    30031810 000082
10231987175000168817800093673    00009868                     000098680000000000000109                     I019868      30031800000000035003410000017N200218104700000000000103003180000000000000000000000000000000000000000100079291040797CELMA DA SILVA                          RUA MONS TOMAS TEIJERINA, 373           MONTE D OURO27600000VALENCA        RJUNIAO UMB DOS CULTOS AFRO BRAS    30031810 000083
10231987175000168817800093673    00009867                     000098670000000000000109                     I019867      30031800000000035003410000017N200218104700000000000103003180000000000000000000000000000000000000000100002387294785ANDREA CONDOR GUIMARAES PINHEI          RUA SEBASTIAO DE SOUZA GOUVEA 41        IRAJA  RJ   21235410RIO DE JANEIRO RJUNIAO UMB DOS CULTOS AFRO BRAS    30031810 000084
10231987175000168817800093673    00009866                     000098660000000000000109                     I019866      30031800000000035003410000017N200218104700000000000103003180000000000000000000000000000000000000000100002381411798MARIA RISONETE DE OLIVEIRA SOA          ESTRADA DA COIVARA, 224                 VILA MARIA H25251090DUQUE DE CAXIASRJUNIAO UMB DOS CULTOS AFRO BRAS    30031810 000085
10231987175000168817800093673    00009865                     000098650000000000000109                     I019865      30031800000000035003410000017N200218104700000000000103003180000000000000000000000000000000000000000100025569929720JOSE WILSON DE ARAUJO                   RUA SEABRA FILHO, 829                   INHOAIBA - R23062000RIO DE JANEIRO RJUNIAO UMB DOS CULTOS AFRO BRAS    30031810 000086
10231987175000168817800093673    00009864                     000098640000000000000109                     I019864      30031800000000035003410000017N200218104700000000000103003180000000000000000000000000000000000000000100090789407787ANA CLAUDIA DOS SANTOS TITO             RUA ONZE LOTE 17 QUADRA 48              PIABETA  MAG23025210RIO DE JANEIRO RJUNIAO UMB DOS CULTOS AFRO BRAS    30031810 000087
10231987175000168817800093673    00009863                     000098630000000000000109                     I019863      30031800000000035003410000017N200218104700000000000103003180000000000000000000000000000000000000000100036213373772DULCINEIA RODRIGUES FEITAL              RUA CARNAUBAIS, 15                      SENADOR VASC23012380RIO DE JANEIRO RJUNIAO UMB DOS CULTOS AFRO BRAS    30031810 000088
10231987175000168817800093673    00009862                     000098620000000000000109                     I019862      30031800000000035003410000017N200218104700000000000103003180000000000000000000000000000000000000000100068863292787MARIA JOSE DA SILVA                     RUA LAVOISIER LOTE 7 QUADRA 121         PARQUE PAULI25261390DUQUE DE CAXIASRJUNIAO UMB DOS CULTOS AFRO BRAS    30031810 000089
10231987175000168817800093673    00009861                     000098610000000000000109                     I019861      30031800000000035003410000017N200218104700000000000103003180000000000000000000000000000000000000000100003421604789MARILEA GUIMARAES CASEMIRO BAR          RUA JAGUARI, 136                        MONTE LIBANO26010450RIO DE JANEIRO RJUNIAO UMB DOS CULTOS AFRO BRAS    30031810 000090
10231987175000168817800093673    00009860                     000098600000000000000109                     I019860      30031800000000035003410000017N200218104700000000000103003180000000000000000000000000000000000000000100047627816734DORACI BARBARA RIBEIRO DO COUT          RUA PRIMEIRO DE MAIO, LOTE 15 QUADRA 19 PARQUE IPIRA26359510MESQUITA       RJUNIAO UMB DOS CULTOS AFRO BRAS    30031810 000091
10231987175000168817800093673    00009859                     000098590000000000000109                     I019859      30031800000000035003410000017N200218104700000000000103003180000000000000000000000000000000000000000100002413896740ADRIANO CAMILO DOS SANTOS               RUA SANTA ISABEL, 328 CASA 9            PALHADA - NO26335260NOVA IGUACU    RJUNIAO UMB DOS CULTOS AFRO BRAS    30031810 000092
10231987175000168817800093673    00009858                     000098580000000000000109                     I019858      30031800000000035003410000017N200218104700000000000103003180000000000000000000000000000000000000000100071360573704GREICE DE SOUZA MILHAR DA SILV          RUA DOUTOR JOVINIANO, 707               MADUREIRA - 21360310RIO DE JANEIRO RJUNIAO UMB DOS CULTOS AFRO BRAS    30031810 000093
10231987175000168817800093673    00009857                     000098570000000000000109                     I019857      30031800000000035003410000017N200218104700000000000103003180000000000000000000000000000000000000000100000596984707MARGARETH WAMBURG DE SIQUEIRA           RUA SAO FRANCISCO XAVIER, 953           TEL 97262.9720550011RIO DE JANEIRO RJUNIAO UMB DOS CULTOS AFRO BRAS    30031810 000094
10231987175000168817800093673    00009856                     000098560000000000000109                     I019856      30031800000000035003410000017N200218104700000000000103003180000000000000000000000000000000000000000100049007050710AMAURI PAULO RAMOS                      RUA SOMBREIROS, 361                     SANTA RITA -26050830NOVA IGUACU    RJUNIAO UMB DOS CULTOS AFRO BRAS    30031810 000095
10231987175000168817800093673    00009855                     000098550000000000000109                     I019855      30031800000000035003410000017N200218104700000000000103003180000000000000000000000000000000000000000100077417232787MARIA IZABEL CUNHA DA SILVA             RUA 1 DE MAIO, LOTE 4 QUADRA 20         IPIRANGA - N26293480NOVA IGUACU    RJUNIAO UMB DOS CULTOS AFRO BRAS    30031810 000096
10231987175000168817800093673    00009854                     000098540000000000000109                     I019854      30031800000000035003410000017N200218104700000000000103003180000000000000000000000000000000000000000100042598907787IRACI CARDOSO DOS SANTOS                RUA LUIZ FELECIANO  LARANJAL, LOTE 16 QULARANJAL - S24725370SAO GONCALO    RJUNIAO UMB DOS CULTOS AFRO BRAS    30031810 000097
10231987175000168817800093673    00009853                     000098530000000000000109                     I019853      30031800000000035003410000017N200218104700000000000103003180000000000000000000000000000000000000000100008184015755ELIZABETH DE SOUZA                      RUA MERCURIO, 36 CASA 3 FUNDOS          SANTA TEREZI26553260MESQUITA       RJUNIAO UMB DOS CULTOS AFRO BRAS    30031810 000098
10231987175000168817800093673    00009852                     000098520000000000000109                     I019852      30031800000000035003410000017N200218104700000000000103003180000000000000000000000000000000000000000100011140864793CLAUDIA THEODORO                        RUA VINTE E NOVE DE SETEMBRO, 1760      CARAMBITA - 27600000VALENCA        RJUNIAO UMB DOS CULTOS AFRO BRAS    30031810 000099
10231987175000168817800093673    00009851                     000098510000000000000109                     I019851      30031800000000035003410000017N200218104700000000000103003180000000000000000000000000000000000000000100011694897702RONIVON BASILIO TEXEIRA                 RUA PROJETADA 1, 28                     VILA MARIA H25213335DUQUE DE CAXIASRJUNIAO UMB DOS CULTOS AFRO BRAS    30031810 000100
10231987175000168817800093673    00009850                     000098500000000000000109                     I019850      30031800000000025003410000017N200218104700000000000103003180000000000000000000000000000000000000000100015744914587ARISTOCLEMILDA PEREIRA DOS SAN          RUA M, LOTE 23 QUADRA 67                VILA EMA - I25271540DUQUE DE CAXIASRJUNIAO UMB DOS CULTOS AFRO BRAS    30031810 000101
10231987175000168817800093673    00009849                     000098490000000000000109                     I019849      30031800000000035003410000017N200218104700000000000103003180000000000000000000000000000000000000000100034194924720DELSON ANDRE DO NASCIMENTO              RUA TRES, 152                           CORUMBA - NO26033530NOVA IGUACU    RJUNIAO UMB DOS CULTOS AFRO BRAS    30031810 000102
10231987175000168817800093673    00009848                     000098480000000000000109                     I019848      30031800000000035003410000017N200218104700000000000103003180000000000000000000000000000000000000000200000000010388CARLOS JOSE GOMES DA SILVA              RUA JABOTI, 200  CASA 2                 PEDIR DADOS 21215330RIO DE JANEIRO RJUNIAO UMB DOS CULTOS AFRO BRAS    30031810 000103
10231987175000168817800093673    00009847                     000098470000000000000109                     I019847      30031800000000035003410000017N200218104700000000000103003180000000000000000000000000000000000000000100083679472749SILVIA REGINA DE SOUZA BAPTIST          RUA  LAFAIETE JOSE MEDINA, 2            CHAPEU MANGU22010020RIO DE JANEIRO RJUNIAO UMB DOS CULTOS AFRO BRAS    30031810 000104
10231987175000168817800093673    00009846                     000098460000000000000109                     I019846      30031800000000035003410000017N200218104700000000000103003180000000000000000000000000000000000000000100008014210719JOERC VITORINO MATOS                    RUA ANTONIO SALEMA, 607 FUNDOS          VILA DE CAVA26052320NOVA IGUACU    RJUNIAO UMB DOS CULTOS AFRO BRAS    30031810 000105
10231987175000168817800093673    00009845                     000098450000000000000109                     I019845      30031800000000035003410000017N200218104700000000000103003180000000000000000000000000000000000000000100037256246749MARIA HELENA ARQUIMEDES CHAGAS          RUA MARIA MACIEIRA, 9 CASA 2 FUNDOS     MADUREIRA - 21310070RIO DE JANEIRO RJUNIAO UMB DOS CULTOS AFRO BRAS    30031810 000106
10231987175000168817800093673    00009844                     000098440000000000000109                     I019844      30031800000000035003410000017N200218104700000000000103003180000000000000000000000000000000000000000100080609066749ELIANE RODRIGUES PIRES                  RUA PARAMIRIM, 710                      BENTO RIBEIR21550610RIO DE JANEIRO RJUNIAO UMB DOS CULTOS AFRO BRAS    30031810 000107
10231987175000168817800093673    00009843                     000098430000000000000109                     I019843      30031800000000035003410000017N200218104700000000000103003180000000000000000000000000000000000000000100007507770796MARIA DO CARMO MENDONCA MATTOS          RUA NAMUR, 325 CASA 3                   VL VALQUEIRE21330600RIO DE JANEIRO RJUNIAO UMB DOS CULTOS AFRO BRAS    30031810 000108
10231987175000168817800093673    00009842                     000098420000000000000109                     I019842      30031800000000035003410000017N200218104700000000000103003180000000000000000000000000000000000000000100086357522791ANDRE VEIGA PEIXOTO                     ALAMEDA SAO BENTO, 43                   PARQUE SAO V26172130BELFORD ROXO   RJUNIAO UMB DOS CULTOS AFRO BRAS    30031810 000109
10231987175000168817800093673    00009841                     000098410000000000000109                     I019841      30031800000000035003410000017N200218104700000000000103003180000000000000000000000000000000000000000100001416091769SUELY CORREA MACEDO SILVA               RUA CARVALHO DE SOUSA, 137 BLOCO 4 COB 7SAO JOAO DE 21350180RIO DE JANEIRO RJUNIAO UMB DOS CULTOS AFRO BRAS    30031810 000110
10231987175000168817800093673    00009840                     000098400000000000000109                     I019840      30031800000000035003410000017N200218104700000000000103003180000000000000000000000000000000000000000100050704281791JOSE CICERO ALVES DOS SANTOS            RUA PRESIDENTE CASTELO BRANCO, LOTE 3   TEIXEIRA - I23840240ITAGUAI        RJUNIAO UMB DOS CULTOS AFRO BRAS    30031810 000111
10231987175000168817800093673    00009839                     000098390000000000000109                     I019839      30031800000000035003410000017N200218104700000000000103003180000000000000000000000000000000000000000100011782583785JORGE MARCIO DOS SANTOS SOUZA           RUA PEDRO JOSE DE OLIVEIRA, 126 CASA 2  VARGEM GRAND27145232BARRA DO PIRAI RJUNIAO UMB DOS CULTOS AFRO BRAS    30031810 000112
10231987175000168817800093673    00009838                     000098380000000000000109                     I019838      30031800000000035003410000017N200218104700000000000103003180000000000000000000000000000000000000000200000000010260MARA LUCIA CANDIDO RAMOS                RUA NOSSA SENHORA DA PENHA, CASA 7 B    MANGUEIRAL -21755140RIO DE JANEIRO RJUNIAO UMB DOS CULTOS AFRO BRAS    30031810 000113
10231987175000168817800093673    00009837                     000098370000000000000109                     I019837      30031800000000035003410000017N200218104700000000000103003180000000000000000000000000000000000000000100067514090363ANTONIO MARTINS CHAVES                  RUA REGINA REIS  339 CASA               QUINTINO BOC20740060RIO DE JANEIRO RJUNIAO UMB DOS CULTOS AFRO BRAS    30031810 000114
10231987175000168817800093673    00009836                     000098360000000000000109                     I019836      30031800000000035003410000017N200218104700000000000103003180000000000000000000000000000000000000000200000000010241LUIZ CLAUDIO TEIXEIRA ALUIZIO           RUA ALBERTO SOARES SAMPAIO, 430 FUNDOS  TAQUARA - JA22715300RIO DE JANEIRO RJUNIAO UMB DOS CULTOS AFRO BRAS    30031810 000115
10231987175000168817800093673    00009835                     000098350000000000000109                     I019835      30031800000000035003410000017N200218104700000000000103003180000000000000000000000000000000000000000100071567747784MARIA DO CARMO MARIANO DOS SAN          RUA PERI, SN LOTE 36                    EDEN - SAO J25535162SAO JOAO DE MERRJUNIAO UMB DOS CULTOS AFRO BRAS    30031810 000116
10231987175000168817800093673    00009834                     000098340000000000000109                     I019834      30031800000000035003410000017N200218104700000000000103003180000000000000000000000000000000000000000100009856785774RAQUEL APARECIDA PEREIRA FLORE          RUA FRANCISACA ESTEVAO, 362             VALENCA - RI27600000RIO DE JANEIRO RJUNIAO UMB DOS CULTOS AFRO BRAS    30031810 000117
10231987175000168817800093673    00009833                     000098330000000000000109                     I019833      30031800000000035003410000017N200218104700000000000103003180000000000000000000000000000000000000000100033291241720MARIA JOSE LOPES SOUSA                  RUA ALTAMIRO DOMICIANO DA CRUZ, LOTE 3 QSANTA CANDID23830640ITAGUAI        RJUNIAO UMB DOS CULTOS AFRO BRAS    30031810 000118
10231987175000168817800093673    00009832                     000098320000000000000109                     I019832      30031800000000035003410000017N200218104700000000000103003180000000000000000000000000000000000000000100003351716729WAGNER CONCEICAO DO NASCIMENTO          RUA CRISANTEMOS, 152 CASA 48 FRENTE - SAHITERLAND - 26171430BELFORD ROXO   RJUNIAO UMB DOS CULTOS AFRO BRAS    30031810 000119
10231987175000168817800093673    00009831                     000098310000000000000109                     I019831      30031800000000035003410000017N200218104700000000000103003180000000000000000000000000000000000000000100091126037753SHEILA DE CARVALHO ALVARES              RUA MAGALHAES CASTRO, 111 FUNDOS        RIACHUELO - 20961020RIO DE JANEIRO RJUNIAO UMB DOS CULTOS AFRO BRAS    30031810 000120
10231987175000168817800093673    00009830                     000098300000000000000109                     I019830      30031800000000035003410000017N200218104700000000000103003180000000000000000000000000000000000000000100069496161715JANICE DE CARVALHO                      RUA BRISA DO VALE, LOTE 23 QUADRA E     CURICICA - J22710530RIO DE JANEIRO RJUNIAO UMB DOS CULTOS AFRO BRAS    30031810 000121
10231987175000168817800093673    00009829                     000098290000000000000109                     I019829      30031800000000035003410000017N200218104700000000000103003180000000000000000000000000000000000000000100011080748717ALVARO CHIANELLI DE AZEREDO             RUA ANDRE AZEVEDO, 87                   OLARIA - RJ 21021480RIO DE JANEIRO RJUNIAO UMB DOS CULTOS AFRO BRAS    30031810 000122
10231987175000168817800093673    00009828                     000098280000000000000109                     I019828      30031800000000035003410000017N200218104700000000000103003180000000000000000000000000000000000000000200000000010205MARILANE BARROSO BERNARDES              RUA ORICA, 89 CASA                      BRAS DE PINA21215260RIO DE JANEIRO RJUNIAO UMB DOS CULTOS AFRO BRAS    30031810 000123
10231987175000168817800093673    00009827                     000098270000000000000109                     I019827      30031800000000035003410000017N200218104700000000000103003180000000000000000000000000000000000000000100059374179768ROSANGELA MARIA DE CASTRO BEZE          RUA DONA ISABEL, 1170                   BONSUCESSO -21032060RIO DE JANEIRO RJUNIAO UMB DOS CULTOS AFRO BRAS    30031810 000124
10231987175000168817800093673    00009826                     000098260000000000000109                     I019826      30031800000000035003410000017N200218104700000000000103003180000000000000000000000000000000000000000100001556268767ANTONIO CARLOS DA CONCEICAO SA          RUA EMILIA MARTINS  84                  VILA MARTINS26043010NOVA IGUACU    RJUNIAO UMB DOS CULTOS AFRO BRAS    30031810 000125
10231987175000168817800093673    00009825                     000098250000000000000109                     I019825      30031800000000035003410000017N200218104700000000000103003180000000000000000000000000000000000000000100061143766768RITA CRISTINA BENJAMIN CORREA           RUA ROSEO FONTES, 743 FUNDOS            SANTA DALILA25921000MAGE           RJUNIAO UMB DOS CULTOS AFRO BRAS    30031810 000126
10231987175000168817800093673    00009824                     000098240000000000000109                     I019824      30031800000000035003410000017N200218104700000000000103003180000000000000000000000000000000000000000200000000010190MARCELLIS ALELUIA BARRETO               RUA LAURENTINA ALVES PEREIRA, CASA 45   BADU - NITER24320070NITEROI        RJUNIAO UMB DOS CULTOS AFRO BRAS    30031810 000127
10231987175000168817800093673    00009823                     000098230000000000000109                     I019823      30031800000000035003410000017N200218104700000000000103003180000000000000000000000000000000000000000100008232649712ADRIANO DA SILVA SANTOS                 AVENIDA JOAO  RIBEIRO 455 BL 1 APT 301  PILARES     20750094RIO DE JANEIRO RJUNIAO UMB DOS CULTOS AFRO BRAS    30031810 000128
10231987175000168817800093673    00009822                     000098220000000000000109                     I019822      30031800000000035003410000017N200218104700000000000103003180000000000000000000000000000000000000000100001015649700JORGE LUIZ PEIXOTO DO NASCIMEN          RUA JOAO BATISTA, 161                   NEVES - SAO 24425060SAO GONCALO    RJUNIAO UMB DOS CULTOS AFRO BRAS    30031810 000129
10231987175000168817800093673    00009821                     000098210000000000000109                     I019821      30031800000000035003410000017N200218104700000000000103003180000000000000000000000000000000000000000100026659840753IVANI DE OLIVEIRA COUTO                 RUA ITAJUBARA, 66                       RAMOS - RIO 21060180RIO DE JANEIRO RJUNIAO UMB DOS CULTOS AFRO BRAS    30031810 000130
10231987175000168817800093673    00009820                     000098200000000000000109                     I019820      30031800000000035003410000017N200218104700000000000103003180000000000000000000000000000000000000000100002601405708ALEX VANDER VARGAS                      RUA QUEMARU, 84                         ROCHA MIRAND21540510RIO DE JANEIRO RJUNIAO UMB DOS CULTOS AFRO BRAS    30031810 000131
10231987175000168817800093673    00009819                     000098190000000000000109                     I019819      30031800000000035003410000017N200218104700000000000103003180000000000000000000000000000000000000000100005209152758LAZARO OLIVEIRA DE ARAUJO               RUA CONEGO GOULARD, 1045                NEVES - SAO 24400000SAO GONCALO    RJUNIAO UMB DOS CULTOS AFRO BRAS    30031810 000132
10231987175000168817800093673    00009818                     000098180000000000000109                     I019818      30031800000000035003410000017N200218104700000000000103003180000000000000000000000000000000000000000200000000010166ANA MARIA DE CARVALHO MENEZES           RUA OASIS, 187                          PRAIA DA BRI23028320GUARATIBA - RJ RJUNIAO UMB DOS CULTOS AFRO BRAS    30031810 000133
10231987175000168817800093673    00009817                     000098170000000000000109                     I019817      30031800000000035003410000017N200218104700000000000103003180000000000000000000000000000000000000000100085906859772JULIO CESAR DA SILVA                    RUA PROFESSOR MARIO BRANT, 573          REALENGO - R21760420RIO DE JANEIRO RJUNIAO UMB DOS CULTOS AFRO BRAS    30031810 000134
10231987175000168817800093673    00009816                     000098160000000000000109                     I019816      30031800000000035003410000017N200218104700000000000103003180000000000000000000000000000000000000000200000000010150UILMA VIEIRA TEIXEIRA                   RUA ITU,  LOTE 3 QUADRA 22              JARDIM GRAMA25060350CAXIAS         RJUNIAO UMB DOS CULTOS AFRO BRAS    30031810 000135
10231987175000168817800093673    00009815                     000098150000000000000109                     I019815      30031800000000035003410000017N200218104700000000000103003180000000000000000000000000000000000000000100088873366791CRISTINA SOUZA CAVALCANTE               RUA ARALIA, 345                         CURICICA - J22710010RIO DE JANEIRO RJUNIAO UMB DOS CULTOS AFRO BRAS    30031810 000136
10231987175000168817800093673    00009814                     000098140000000000000109                     I019814      30031800000000035003410000017N200218104700000000000103003180000000000000000000000000000000000000000100081929773749OSMAR FERREIRA DA SILVA                 ESTRADA BENTO BARBOSA DE CARVALHO, 2931 TINGUA - NOV26062460NOVA IGUACU    RJUNIAO UMB DOS CULTOS AFRO BRAS    30031810 000137
10231987175000168817800093673    00009813                     000098130000000000000109                     I019813      30031800000000035003410000017N200218104700000000000103003180000000000000000000000000000000000000000100042909422804RAMALHO BORBA SILVA                     RUA HENRI DUMONT, 841                   CAMPO GRANDE23052350RIO DE JANEIRO RJUNIAO UMB DOS CULTOS AFRO BRAS    30031810 000138
10231987175000168817800093673    00009812                     000098120000000000000109                     I019812      30031800000000035003410000017N200218104700000000000103003180000000000000000000000000000000000000000100001645493741MARIA FERRAZ DO NASCIMENTO              RUA A JOAO IZAQUE, 292                  BELVEDERE - 27113350BARRA DO PIRAI RJUNIAO UMB DOS CULTOS AFRO BRAS    30031810 000139
10231987175000168817800093673    00009811                     000098110000000000000109                     I019811      30031800000000035003410000017N200218104700000000000103003180000000000000000000000000000000000000000100061487856768ROSELI ROCHA DA SILVA FERREIRA          RUA DOUTOR MESQUITA, 442                NOSSA SRA DE27113010BARRA DO PIRAI RJUNIAO UMB DOS CULTOS AFRO BRAS    30031810 000140
10231987175000168817800093673    00009810                     000098100000000000000109                     I019810      30031800000000035003410000017N200218104700000000000103003180000000000000000000000000000000000000000100007702380764MARIA DO ROSARIO REZENDE                RUA ALCINO GUANABARA, 281               CENTRO - GUA25940000GUAPIMIRIM     RJUNIAO UMB DOS CULTOS AFRO BRAS    30031810 000141
10231987175000168817800093673    00009809                     000098090000000000000109                     I019809      30031800000000035003410000017N200218104700000000000103003180000000000000000000000000000000000000000100070818169753ZILAH MELO DIAS DA SILVA                RUA ALMIRANTE FIGUEIREDO, 19            FREGUESIA - 21911150RIO DE JANEIRO RJUNIAO UMB DOS CULTOS AFRO BRAS    30031810 000142
10231987175000168817800093673    00009808                     000098080000000000000109                     I019808      30031800000000035003410000017N200218104700000000000103003180000000000000000000000000000000000000000100004462221788ALEXANDRO JULIO DE SOUZA                RUA CORURIPE, 410                       MARECHAL HER21555490RIO DE JANEIRO RJUNIAO UMB DOS CULTOS AFRO BRAS    30031810 000143
10231987175000168817800093673    00009807                     000098070000000000000109                     I019807      30031800000000035003410000017N200218104700000000000103003180000000000000000000000000000000000000000100002558274740RITA DE CASSIA BRITO DE SOUZA           RUA HOMERO PINTO CAPUTO, 90 CASA 102    BANGU - RIO 21863080RIO DE JANEIRO RJUNIAO UMB DOS CULTOS AFRO BRAS    30031810 000144
10231987175000168817800093673    00009806                     000098060000000000000109                     I019806      30031800000000035003410000017N200218104700000000000103003180000000000000000000000000000000000000000100091228239720MIRIAN DA SILVA PEREIRA                 RUA  NORDESTE  40   JARDIM PARAISO 2    NOVA IGUACU 26000000RIO DE JANEIRO RJUNIAO UMB DOS CULTOS AFRO BRAS    30031810 000145
10231987175000168817800093673    00009805                     000098050000000000000109                     I019805      30031800000000035003410000017N200218104700000000000103003180000000000000000000000000000000000000000100096266031787CARLA DE FRANCA                         RUA REGINA, 15 B QUADRA F               PARQUE SUECI26187110BELFORD ROXO   RJUNIAO UMB DOS CULTOS AFRO BRAS    30031810 000146
10231987175000168817800093673    00009804                     000098040000000000000109                     I019804      30031800000000035003410000017N200218104700000000000103003180000000000000000000000000000000000000000100003019825709BARBARA CRISPINIANO SIMOES CUN          RUA DOUTOR MARIO VALADARES, 568         CENTRO - NIL26535338NILOPOLIS      RJUNIAO UMB DOS CULTOS AFRO BRAS    30031810 000147
10231987175000168817800093673    00009803                     000098030000000000000109                     I019803      30031800000000035003410000017N200218104700000000000103003180000000000000000000000000000000000000000100004766843746ALESSANDRO MEDEIROS BRITO               RUA MARUPIARA, 198                      ROCHA MIRAND21510210RIO DE JANEIRO RJUNIAO UMB DOS CULTOS AFRO BRAS    30031810 000148
10231987175000168817800093673    00009802                     000098020000000000000109                     I019802      30031800000000035003410000017N200218104700000000000103003180000000000000000000000000000000000000000100002543752781MARIA DO SOCORRO MAMEDES DA SI          AVENIDA SANTA CRUZ, LOTE 2 QUADRA 82 APTSARACURUNA -25211220DUQUE DE CAXIASRJUNIAO UMB DOS CULTOS AFRO BRAS    30031810 000149
10231987175000168817800093673    00009801                     000098010000000000000109                     I019801      30031800000000035003410000017N200218104700000000000103003180000000000000000000000000000000000000000100021973989700NILZA ARAGUEZ                           RUA PAJURA, 117 BLOCO 2 APTO 106        TAQUARA - RI22740210RIO DE JANEIRO RJUNIAO UMB DOS CULTOS AFRO BRAS    30031810 000150
10231987175000168817800093673    00009800                     000098000000000000000109                     I019800      30031800000000035003410000017N200218104700000000000103003180000000000000000000000000000000000000000100007039849771MARCIA SILVA DOS SANTOS FALCAO          ESTRADA DA BARREIRA, 577                CENTRO - GUA25946070GUAPIMIRIM     RJUNIAO UMB DOS CULTOS AFRO BRAS    30031810 000151
10231987175000168817800093673    00009799                     000097990000000000000109                     I019799      30031800000000035003410000017N200218104700000000000103003180000000000000000000000000000000000000000100065096100782TANIA REGINA FIRMINO                    RUA PARA, 13                            PILAR - DUQU25233060DUQUE DE CAXIASRJUNIAO UMB DOS CULTOS AFRO BRAS    30031810 000152
10231987175000168817800093673    00009798                     000097980000000000000109                     I019798      30031800000000035003410000017N200218104700000000000103003180000000000000000000000000000000000000000100094051259749VANDA DA SILVA BARBOSA                  RUA MARIA DA GLORIA SANTOS, 13          SAO FERNANDO23565230RIO DE JANEIRO RJUNIAO UMB DOS CULTOS AFRO BRAS    30031810 000153
10231987175000168817800093673    00009797                     000097970000000000000109                     I019797      30031800000000035003410000017N200218104700000000000103003180000000000000000000000000000000000000000100027788199753FABIO FERNANDES DE SOUZA                ESTRADA DE SAO FRANCISCO N 1585         SAO FRANCISC25900000MAGE           RJUNIAO UMB DOS CULTOS AFRO BRAS    30031810 000154
10231987175000168817800093673    00009796                     000097960000000000000109                     I019796      30031800000000035003410000017N200218104700000000000103003180000000000000000000000000000000000000000100002134169729ALEXANDRE DE ALMEIDA                    RUA SERITINGA, 105 BLOCO 5 APTO 108 FUNDBRAS DE PINA21215480RIO DE JANEIRO RJUNIAO UMB DOS CULTOS AFRO BRAS    30031810 000155
10231987175000168817800093673    00009795                     000097950000000000000109                     I019795      30031800000000035003410000017N200218104700000000000103003180000000000000000000000000000000000000000100000218582765LUIZ CARLOS DO AMARAL                   RUA TRIMONTE QUADRA 9 LOTE 44           PARQUE BOM R25223820DUQUE DE CAXIASRJUNIAO UMB DOS CULTOS AFRO BRAS    30031810 000156
10231987175000168817800093673    00009794                     000097940000000000000109                     I019794      30031800000000035003410000017N200218104700000000000103003180000000000000000000000000000000000000000100096270500753REINALDO MONTEIRO                       RUA: PINTO GOMES N 253 APT 305          OSWALDO CRUZ21341010RIO DE JANEIRO RJUNIAO UMB DOS CULTOS AFRO BRAS    30031810 000157
10231987175000168817800093673    00009793                     000097930000000000000109                     I019793      30031800000000035003410000017N200218104700000000000103003180000000000000000000000000000000000000000100067293816715SCHEYLA ARNALDO                         RUA JOSE SOMBRA N 260 BLOCO C APT 202   IRAJA - RIO 21230240RIO DE JANEIRO RJUNIAO UMB DOS CULTOS AFRO BRAS    30031810 000158
10231987175000168817800093673    00009792                     000097920000000000000109                     I019792      30031800000000035003410000017N200218104700000000000103003180000000000000000000000000000000000000000100002203155798CARLOS EDUARDO MOREIRA BENTO            RUA WENCESLAU BRAS, SN LOTE 24 QUADRA 27IMBARIE - DU25275160DUQUE DE CAXIASRJUNIAO UMB DOS CULTOS AFRO BRAS    30031810 000159
10231987175000168817800093673    00009791                     000097910000000000000109                     I019791      30031800000000035003410000017N200218104700000000000103003180000000000000000000000000000000000000000100005183653798CLAUDIA DE OLIVEIRA ROCHA SABI          RUA ISAAC ZAIDMANN, 228 VILA F          COSTA BARROS21526090RIO DE JANEIRO RJUNIAO UMB DOS CULTOS AFRO BRAS    30031810 000160
10231987175000168817800093673    00009790                     000097900000000000000109                     I019790      30031800000000035003410000017N200218104700000000000103003180000000000000000000000000000000000000000100000692299700JORGE LUIZ LIMA BASTOS                  RUA PLANALTINA, 71                      REALENGO - R21760160RIO DE JANEIRO RJUNIAO UMB DOS CULTOS AFRO BRAS    30031810 000161
10231987175000168817800093673    00009789                     000097890000000000000109                     I019789      30031800000000035003410000017N200218104700000000000103003180000000000000000000000000000000000000000200000000009918MARIA CRISTINA FURTADO DOS SAN          RUA IVAN FORTES RUCH,  LOTE 14 - LOTEAMEMONTE FORMOS24738660S.GONCALO      RJUNIAO UMB DOS CULTOS AFRO BRAS    30031810 000162
10231987175000168817800093673    00009788                     000097880000000000000109                     I019788      30031800000000035003410000017N200218104700000000000103003180000000000000000000000000000000000000000100011741673780BRUNO SANTOS CARDOSO                    RUA CARTIER                             DUQUE DE CAX25212100DUQUE DE CAXIASRJUNIAO UMB DOS CULTOS AFRO BRAS    30031810 000163
10231987175000168817800093673    00009787                     000097870000000000000109                     I019787      30031800000000035003410000017N200218104700000000000103003180000000000000000000000000000000000000000100002771098768FRANCISCO AREAS                         RUA CARMINDA, 969                       COELHO DA RO25550135SAO JOAO DE MERRJUNIAO UMB DOS CULTOS AFRO BRAS    30031810 000164
10231987175000168817800093673    00009786                     000097860000000000000109                     I019786      30031800000000035003410000017N200218104700000000000103003180000000000000000000000000000000000000000100059334258772LUIZ ROBERTO REGO GAMA                  RUA MIGUEL POMBEIRO, 112                REALENGO - R21735280RIO DE JANEIRO RJUNIAO UMB DOS CULTOS AFRO BRAS    30031810 000165
10231987175000168817800093673    00009785                     000097850000000000000109                     I019785      30031800000000035003410000017N200218104700000000000103003180000000000000000000000000000000000000000100058657231700IMPERALINA OLIVEIRA COSTA               AVENIDA MIGUEL COUTO N 75               PARQUE LAFAI25025505DUQUE DE CAXIASRJUNIAO UMB DOS CULTOS AFRO BRAS    30031810 000166
10231987175000168817800093673    00009784                     000097840000000000000109                     I019784      30031800000000035003410000017N200218104700000000000103003180000000000000000000000000000000000000000100007526128751SORAYA ROBERTA PINHEIRO DE ALM          ALAMEDA TENENTE ANTONIO JOAO, CASA 17   URCA - RIO D22291150RIO DE JANEIRO RJUNIAO UMB DOS CULTOS AFRO BRAS    30031810 000167
10231987175000168817800093673    00009783                     000097830000000000000109                     I019783      30031800000000035003410000017N200218104700000000000103003180000000000000000000000000000000000000000100002539387756GERSON TELLES GUIMARAES                 RUA DOUTOR AFONSO PENA, LOTE 20 QUADRA 2IMBARIE - DU25275430DUQUE DE CAXIASRJUNIAO UMB DOS CULTOS AFRO BRAS    30031810 000168
10231987175000168817800093673    00009782                     000097820000000000000109                     I019782      30031800000000035003410000017N200218104700000000000103003180000000000000000000000000000000000000000100007609502707WALDENILSON DUARTE DOS SANTOS           RUA CAMPISTA 90                         CABUCU - NOV26355500RIO DE JANEIRO RJUNIAO UMB DOS CULTOS AFRO BRAS    30031810 000169
10231987175000168817800093673    00009781                     000097810000000000000109                     I019781      30031800000000035003410000017N200218104700000000000103003180000000000000000000000000000000000000000100060921051723GEIZA RODRIGUES GANDRA                  RUA MARTINS JUNIOR, 16                  VAL VERDE - 26335320NOVA IGUACU    RJUNIAO UMB DOS CULTOS AFRO BRAS    30031810 000170
10231987175000168817800093673    00009780                     000097800000000000000109                     I019780      30031800000000035003410000017N200218104700000000000103003180000000000000000000000000000000000000000100039182010749HUGO EDSON RODRIGUES DOS SANTO          RUA QUINTILIANO DA FONSECA, 406         COLUBANDE - 24451250SAO GONCALO    RJUNIAO UMB DOS CULTOS AFRO BRAS    30031810 000171
10231987175000168817800093673    00009779                     000097790000000000000109                     I019779      30031800000000035003410000017N200218104700000000000103003180000000000000000000000000000000000000000100003533022790ELAINE LIMA FERREIRA DA COSTA           RUA HEBER DE BOSCOLI, 71                VILA ISABEL 20551110RIO DE JANEIRO RJUNIAO UMB DOS CULTOS AFRO BRAS    30031810 000172
10231987175000168817800093673    00009778                     000097780000000000000109                     I019778      30031800000000035003410000017N200218104700000000000103003180000000000000000000000000000000000000000100050262319772NELCY MARIA DE MATTOS                   RUA FILADELFIA, LOTE 15 QUADRA 1        MONJOLO - SA24722660SAO GONCALO    RJUNIAO UMB DOS CULTOS AFRO BRAS    30031810 000173
10231987175000168817800093673    00009777                     000097770000000000000109                     I019777      30031800000000035003410000017N200218104700000000000103003180000000000000000000000000000000000000000100099029359749ANDRE LUIZ REIS GRACIO                  RUA PIRAMBOIA N 130                     SENADOR VASC23012300RIO DE JANEIRO RJUNIAO UMB DOS CULTOS AFRO BRAS    30031810 000174
10231987175000168817800093673    00009776                     000097760000000000000109                     I019776      30031800000000035003410000017N200218104700000000000103003180000000000000000000000000000000000000000100063345862700GLORIA MARIA DAMASCENO DE OLIV          AVENIDA JOSE MARIANO PASSOS N 1495      CENTRO - BEL26130570BELFORD ROXO   RJUNIAO UMB DOS CULTOS AFRO BRAS    30031810 000175
10231987175000168817800093673    00009775                     000097750000000000000109                     I019775      30031800000000035003410000017N200218104700000000000103003180000000000000000000000000000000000000000100002096604737GISELLE BRAGA TORRES DE SOUZA           RUA LEOPOLDINA REGO N 619 APT 1005      OLARIA - RIO21021523RIO DE JANEIRO RJUNIAO UMB DOS CULTOS AFRO BRAS    30031810 000176
10231987175000168817800093673    00009774                     000097740000000000000109                     I019774      30031800000000035003410000017N200218104700000000000103003180000000000000000000000000000000000000000100085258610730CRISTINA ROSA DE JESUS BASILIO          RUA NILZA GURGEL, 615 CASA 3            VILA EMIL - 26580310MESQUITA       RJUNIAO UMB DOS CULTOS AFRO BRAS    30031810 000177
10231987175000168817800093673    00009773                     000097730000000000000109                     I019773      30031800000000035003410000017N200218104700000000000103003180000000000000000000000000000000000000000100022958908291JOSE WILSON SCHARTZ BITTENCOUR          RUA GERALDO RIBEIRO N 345               PORTO NOVO -24435690SAO GONCALO    RJUNIAO UMB DOS CULTOS AFRO BRAS    30031810 000178
10231987175000168817800093673    00009772                     000097720000000000000109                     I019772      30031800000000035003410000017N200218104700000000000103003180000000000000000000000000000000000000000100077165772715EDNA SANTOS DA TRINDADE                 ESTRADA DO PIAI N 3910 - QUADRA B CASA 7SEPETIBA - R23530610RIO DE JANEIRI RJUNIAO UMB DOS CULTOS AFRO BRAS    30031810 000179
10231987175000168817800093673    00009771                     000097710000000000000109                     I019771      30031800000000035003410000017N200218104700000000000103003180000000000000000000000000000000000000000100000000009804VANIA FARIA DE VILHENA TORRES           ESTRADA DA COVANCA, 312 FUNDOS          TANQUE - JAC22735020RIO DE JANEIRO RJUNIAO UMB DOS CULTOS AFRO BRAS    30031810 000180
10231987175000168817800093673    00009770                     000097700000000000000109                     I019770      30031800000000035003410000017N200218104700000000000103003180000000000000000000000000000000000000000100033151440797LAUDICEIA FERRO DOS SANTOS              RUA ADISABEL, LOTE 10 QUADRA 39         NOVA AURORA 26155110BELFORD ROXO   RJUNIAO UMB DOS CULTOS AFRO BRAS    30031810 000181
10231987175000168817800093673    00009769                     000097690000000000000109                     I019769      30031800000000035003410000017N200218104700000000000103003180000000000000000000000000000000000000000100040229637787JOSE PAULO SERPA DE MORAES              RUA CANALIZADA, LOTE 4 QUADRA 203 KM 39 CAMPO LINDO 23845410RIO DE JANEIRO RJUNIAO UMB DOS CULTOS AFRO BRAS    30031810 000182
10231987175000168817800093673    00009768                     000097680000000000000109                     I019768      30031800000000035003410000017N200218104700000000000103003180000000000000000000000000000000000000000100086945971791GELSON RAMOS DE CARVALHO                RUA BARAUNA, 249                        ANCHIETA - R21645050RIO DE JANEIRO RJUNIAO UMB DOS CULTOS AFRO BRAS    30031810 000183
10231987175000168817800093673    00009767                     000097670000000000000109                     I019767      30031800000000035003410000017N200218104700000000000103003180000000000000000000000000000000000000000100060856467715JANAINA COELHO MELO                     O MESMO                                 O MESMO     21361420RIO DE JANEIRO RJUNIAO UMB DOS CULTOS AFRO BRAS    30031810 000184
10231987175000168817800093673    00009766                     000097660000000000000109                     I019766      30031800000000035003410000017N200218104700000000000103003180000000000000000000000000000000000000000100085485527787CHEILA CRISTINA DA ROCHA SANTO          RUA MARIA SANTANA FERNANDES QUADRA 4 LOTJARDIM ACACI23845250SEROPEDICA     RJUNIAO UMB DOS CULTOS AFRO BRAS    30031810 000185
10231987175000168817800093673    00009765                     000097650000000000000109                     I019765      30031800000000035003410000017N200218104700000000000103003180000000000000000000000000000000000000000100000255430752JUACIRA ALVES TOTTA                     RUA DOS RUBIS 519                       ROCHA MIRAND21510011RIO DE JANEIRO RJUNIAO UMB DOS CULTOS AFRO BRAS    30031810 000186
10231987175000168817800093673    00009764                     000097640000000000000109                     I019764      30031800000000035003410000017N200218104700000000000103003180000000000000000000000000000000000000000100008067836728BRUNO HENRIQUE DA COSTA SILVA           O MESMO                                 O MESMO     21361360RIO DE JANEIRO RJUNIAO UMB DOS CULTOS AFRO BRAS    30031810 000187
10231987175000168817800093673    00009763                     000097630000000000000109                     I019763      30031800000000035003410000017N200218104700000000000103003180000000000000000000000000000000000000000100008774131770CLEYSON MANHAES NERY                    RUA CORONEL BARROS N 288                PARQUE SARAI28110000CAMPO DOS GOYTARJUNIAO UMB DOS CULTOS AFRO BRAS    30031810 000188
10231987175000168817800093673    00009762                     000097620000000000000109                     I019762      30031800000000035003410000017N200218104700000000000103003180000000000000000000000000000000000000000100002911521714JUPIRA COSTA SOARES                     RUA TRINTA E DOIS LOTE 14 QUADRA 214    CAMPO LINDO 23890000SEROPEDICA     RJUNIAO UMB DOS CULTOS AFRO BRAS    30031810 000189
10231987175000168817800093673    00009761                     000097610000000000000109                     I019761      30031800000000035003410000017N200218104700000000000103003180000000000000000000000000000000000000000100041247078787ANTONIO NARCISO RUSSI DA SILVA          RUA DEOLINDA MARTINS N 359 KM 42        JARDIM CENTR23845110SEROPEDICA     RJUNIAO UMB DOS CULTOS AFRO BRAS    30031810 000190
10231987175000168817800093673    00009760                     000097600000000000000109                     I019760      30031800000000035003410000017N200218104700000000000103003180000000000000000000000000000000000000000100045935530759SUELI MONTANHA GOMES                    RUA PAULINO DE OLIVEIRA N 345 - CENTRAL CENTRAL - CA23080670CAMPO GRANDE   RJUNIAO UMB DOS CULTOS AFRO BRAS    30031810 000191
10231987175000168817800093673    00009759                     000097590000000000000109                     I019759      30031800000000035003410000017N200218104700000000000103003180000000000000000000000000000000000000000100088046060704NATALINA DE JESUS PEREIRA DE O          RUA SAPOPEMBA N 524                     BENTO RIBEIR21331240RIO DE JANEIRO RJUNIAO UMB DOS CULTOS AFRO BRAS    30031810 000192
10231987175000168817800093673    00009758                     000097580000000000000109                     I019758      30031800000000035003410000017N200218104700000000000103003180000000000000000000000000000000000000000100050825860768YEDA PEREIRA DA SILVA                   RUA TRINTA E QUATRO LOTE 22 QUADRA 180  CAMPO LINDO 23890000SEROPEDICA     RJUNIAO UMB DOS CULTOS AFRO BRAS    30031810 000193
10231987175000168817800093673    00009757                     000097570000000000000109                     I019757      30031800000000035003410000017N200218104700000000000103003180000000000000000000000000000000000000000100072148675753ROGERIO TEIXEIRA TEOFILO                RUA BOM JARDIM N 40 - CABUCU            CABUCU - NOV26347225NOVA IGUACU    RJUNIAO UMB DOS CULTOS AFRO BRAS    30031810 000194
10231987175000168817800093673    00009756                     000097560000000000000109                     I019756      30031800000000035003410000017N200218104700000000000103003180000000000000000000000000000000000000000100087868172720ADHEMAR ACHILLES AVILLA JUNIOR          RUA: PADRE GIL Nº 20                   PARQUE BONEV25907096RIO DE JANEIRO RJUNIAO UMB DOS CULTOS AFRO BRAS    30031810 000195
10231987175000168817800093673    00009755                     000097550000000000000109                     I019755      30031800000000035003410000017N200218104700000000000103003180000000000000000000000000000000000000000100083762507791LOURIZETE SANTOS DA SILVA LEIT          RUA MARIA RITA                          PORTO NOVO -24431740SAO GONCALO    RJUNIAO UMB DOS CULTOS AFRO BRAS    30031810 000196
10231987175000168817800093673    00009754                     000097540000000000000109                     I019754      30031800000000035003410000017N200218104700000000000103003180000000000000000000000000000000000000000100000672393743RAFAEL CASAMASSO DA COSTA               RUA JOAO CAETANO N 198 A                CENTRO - PET25610010PETROPOLIS     RJUNIAO UMB DOS CULTOS AFRO BRAS    30031810 000197
10231987175000168817800093673    00009753                     000097530000000000000109                     I019753      30031800000000035003410000017N200218104700000000000103003180000000000000000000000000000000000000000100049214276749MARIA CELESTE HORACIO REIS              RUA QUARENTA E CINCO LOTE 20 QUADRA 230 CAMPO LINDO 23890000NOVA IGUACU    RJUNIAO UMB DOS CULTOS AFRO BRAS    30031810 000198
10231987175000168817800093673    00009752                     000097520000000000000109                     I019752      30031800000000035003410000017N200218104700000000000103003180000000000000000000000000000000000000000100095949925734RITA DE CASSIA COCCARO                  RUA JUCARI N 563                        IRAJA - RIO 21371320RIO DE JANEIRO RJUNIAO UMB DOS CULTOS AFRO BRAS    30031810 000199
10231987175000168817800093673    00009751                     000097510000000000000109                     I019751      30031800000000035003410000017N200218104700000000000103003180000000000000000000000000000000000000000100071757724753MIGUEL ABRAHAO FILHO                    RUA FRANCISCO ANTONIO NASCIMENTO QUADRA MIGUEL COUTO26070467NOVA IGUACU    RJUNIAO UMB DOS CULTOS AFRO BRAS    30031810 000200
10231987175000168817800093673    00009750                     000097500000000000000109                     I019750      30031800000000035003410000017N200218104700000000000103003180000000000000000000000000000000000000000100085212091772ADAO DIAS FUNCHAL FILHO                 RUA WALTER FERREIRA, 1752 - SAO FRANCISCMAUA - MAGE 25900000MAGE           RJUNIAO UMB DOS CULTOS AFRO BRAS    30031810 000201
10231987175000168817800093673    00009749                     000097490000000000000109                     I019749      30031800000000035003410000017N200218104700000000000103003180000000000000000000000000000000000000000100053365836772CRISTINA MARIA DE SANT ANNA SI          RUA GUSTAVO SAMPAIO, 172 APTO 201       LEME - RIO D22010010RIO DE JANEIRO RJUNIAO UMB DOS CULTOS AFRO BRAS    30031810 000202
10231987175000168817800093673    00009748                     000097480000000000000109                     I019748      30031800000000035003410000017N200218104700000000000103003180000000000000000000000000000000000000000100062821598734CLAUDEMIR APARECIDO FREITAS SI          TRAVESSA PIACAVA, 156                   BANCO DE ARE26570210MESQUITA       RJUNIAO UMB DOS CULTOS AFRO BRAS    30031810 000203
10231987175000168817800093673    00009747                     000097470000000000000109                     I019747      30031800000000035003410000017N200218104700000000000103003180000000000000000000000000000000000000000100033205094700IRACEMA PAZ DA MOTTA                    RUA PADRE ILDEFONSO PENALBA N 90 BLOCO 1MEIER - RIO 20775020RIO DE JANEIRO RJUNIAO UMB DOS CULTOS AFRO BRAS    30031810 000204
10231987175000168817800093673    00009746                     000097460000000000000109                     I019746      30031800000000035003410000017N200218104700000000000103003180000000000000000000000000000000000000000100090823516768ALEXANDRE LUIZ DE OLIVEIRA NET          RUA JOSE SOMBRA  539                    IRAJA  RIO D21230240RIO DE JANEIRO RJUNIAO UMB DOS CULTOS AFRO BRAS    30031810 000205
10231987175000168817800093673    00009745                     000097450000000000000109                     I019745      30031800000000035003410000017N200218104700000000000103003180000000000000000000000000000000000000000100092080570706EUZAMAR FONSECA SANTOS                  RUA DONA EMILIA N 195 CASA 4            INHAUMA - RI20765110RIO DE JANEIRO RJUNIAO UMB DOS CULTOS AFRO BRAS    30031810 000206
10231987175000168817800093673    00009744                     000097440000000000000109                     I019744      30031800000000035003410000017N200218104700000000000103003180000000000000000000000000000000000000000100002379534713ALEX EVANDRO CORREIA PETITINGA          RUA CARDOSO QUINTAO, 40                 PIEDADE - RJ21381460RIO DE JANEIRO RJUNIAO UMB DOS CULTOS AFRO BRAS    30031810 000207
10231987175000168817800093673    00009743                     000097430000000000000109                     I019743      30031800000000035003410000017N200218104700000000000103003180000000000000000000000000000000000000000100043641717787YWONE AMELIA VAZ COSTA                  RUA CASTRO MENEZES N 284 CASA 1         BRAZ DE PINA21215250RIO DE JANEIRO RJUNIAO UMB DOS CULTOS AFRO BRAS    30031810 000208
10231987175000168817800093673    00009742                     000097420000000000000109                     I019742      30031800000000035003410000017N200218104700000000000103003180000000000000000000000000000000000000000100007332496712ELENICE ROSA DA SILVA                   RUA BERNARDINO DE MELO, 4705 - BAIRRO DAVILA CAVA - 26052060NOVA IGUACU    RJUNIAO UMB DOS CULTOS AFRO BRAS    30031810 000209
10231987175000168817800093673    00009741                     000097410000000000000109                     I019741      30031800000000035003410000017N200218104700000000000103003180000000000000000000000000000000000000000100000633999709KATIA REGINA LEITE RAMOS                RUA GUIRATIM N 260                      IRAJA - RIO 21371410RIO DE JANEIRO RJUNIAO UMB DOS CULTOS AFRO BRAS    30031810 000210
10231987175000168817800093673    00009740                     000097400000000000000109                     I029740      30031800000000035003410000017N200218104700000000000103003180000000000000000000000000000000000000000100005365022777PAULA DOS REIS MOITA                    RUA IGUABA GRANDE N 78 BLOCO 6 APT 1206 PAVUNA - RIO21655340RIO DE JANEIRO RJUNIAO UMB DOS CULTOS AFRO BRAS    30031810 000211
10231987175000168817800093673    00009739                     000097390000000000000109                     I019739      30031800000000035003410000017N200218104700000000000103003180000000000000000000000000000000000000000100009237411782RODRIGO NOGUEIRA MARTINS                RUA DOUTOR AUGUSTO FIGUEIREDO, 298      BANGU - RJ  21840600RIO DE JANEIRO RJUNIAO UMB DOS CULTOS AFRO BRAS    30031810 000212
10231987175000168817800093673    00009738                     000097380000000000000109                     I019738      30031800000000035003410000017N200218104700000000000103003180000000000000000000000000000000000000000100041795458704VERA LUCIA DE MACEDO                    RUA JOSE CARLOS PACE, 50 CASA 50        CENTRO - MAR24900000MARICA         RJUNIAO UMB DOS CULTOS AFRO BRAS    30031810 000213
10231987175000168817800093673    00009737                     000097370000000000000109                     I019737      30031800000000035003410000017N200218104700000000000103003180000000000000000000000000000000000000000100007965913771ANDREA CARLA FREITAS E SILVA            RUA SAO MARCOS, 23 QUADRA 25            KM 32 - NOVA26298548NOVA IGUACU    RJUNIAO UMB DOS CULTOS AFRO BRAS    30031810 000214
10231987175000168817800093673    00009736                     000097360000000000000109                     I019736      30031800000000035003410000017N200218104700000000000103003180000000000000000000000000000000000000000100063761092768JANET BATISTA DA CONCEICAO              RUA SERRA VELHA, 41                     RAIZ DA SERR25935000MAGE           RJUNIAO UMB DOS CULTOS AFRO BRAS    30031810 000215
10231987175000168817800093673    00009735                     000097350000000000000109                     I019735      30031800000000035003410000017N200218104700000000000103003180000000000000000000000000000000000000000100064304345753MARIA ELISABETH DE OLIVEIRA CA          O MESMO                                 O MESMO     25670010PETROPOLIS     RJUNIAO UMB DOS CULTOS AFRO BRAS    30031810 000216
10231987175000168817800093673    00009734                     000097340000000000000109                     I019734      30031800000000035003410000017N200218104700000000000103003180000000000000000000000000000000000000000100000000000955MARIA DE LOURDES MATTOS DA SIL          RUA: ADEMAR                             BELFORD ROXO26157180BELFORD ROXO   RJUNIAO UMB DOS CULTOS AFRO BRAS    30031810 000217
10231987175000168817800093673    00009733                     000097330000000000000109                     I019733      30031800000000035003410000017N200218104700000000000103003180000000000000000000000000000000000000000100048507458734MARCOS DE OLIVEIRA ROSA                 RUA CALDAS NOVAS N 135                  VILA ZULMIRA25540530SAO JOAO DE MERRJUNIAO UMB DOS CULTOS AFRO BRAS    30031810 000218
10231987175000168817800093673    00009732                     000097320000000000000109                     I019732      30031800000000035003410000017N200218104700000000000103003180000000000000000000000000000000000000000200000000009545PEDRO HENRIQUE CARVALHO DA FON          RUA CADETE POLONIA, 628 FRENTE          ENGENHO NOVO20961050RIO DE JANEIRO RJUNIAO UMB DOS CULTOS AFRO BRAS    30031810 000219
10231987175000168817800093673    00009731                     000097310000000000000109                     I019731      30031800000000035003410000017N200218104700000000000103003180000000000000000000000000000000000000000100066812034704LYDIAMAR NAZARETH BRANDAO DE A          RUA: HELEODORA Nº 246 FUNDOS           PILARES - RJ20760722RIO DE JANEIRO RJUNIAO UMB DOS CULTOS AFRO BRAS    30031810 000220
10231987175000168817800093673    00009730                     000097300000000000000109                     I019730      30031800000000035003410000017N200218104700000000000103003180000000000000000000000000000000000000000100054504430720ISABELA BARBOSA LIMA DA SILVA           RUA SOUSA BARROS N 106 A FUNDOS         ENGENHO NOVO20961150RIO DE JANEIRO RJUNIAO UMB DOS CULTOS AFRO BRAS    30031810 000221
10231987175000168817800093673    00009729                     000097290000000000000109                     I019729      30031800000000035003410000017N200218104700000000000103003180000000000000000000000000000000000000000100008013752747GIVANILDO MENDES LAGOA                  RUA DOS CORAIS LOTE 19 QUADRA 46 CASA 3 PIRATININGA 24320358NITEROI        RJUNIAO UMB DOS CULTOS AFRO BRAS    30031810 000222
10231987175000168817800093673    00009728                     000097280000000000000109                     I019728      30031800000000035003410000017N200218104700000000000103003180000000000000000000000000000000000000000100004121499743ELENICE FIGUEIREDO DA SILVA             O MESMO                                 O MESMO     24230210NITEROI        RJUNIAO UMB DOS CULTOS AFRO BRAS    30031810 000223
10231987175000168817800093673    00009727                     000097270000000000000109                     I019727      30031800000000035003410000017N200218104700000000000103003180000000000000000000000000000000000000000100009070035758LILIAN DUARTE COSTA                     RUA DELFIM MOREIRA, 2397                VALE PARAISO25976016TERESOPOLIS    RJUNIAO UMB DOS CULTOS AFRO BRAS    30031810 000224
10231987175000168817800093673    00009726                     000097260000000000000109                     I019726      30031800000000035003410000017N200218104700000000000103003180000000000000000000000000000000000000000100001071031767NEIDE MARIA VIANA SOUZA                 RUA VINTE E UM, LOTE 7 QUADRA 42        SAO CAMPELO 23830000RIO DE JANEIRO RJUNIAO UMB DOS CULTOS AFRO BRAS    30031810 000225
10231987175000168817800093673    00009725                     000097250000000000000109                     I019725      30031800000000035003410000017N200218104700000000000103003180000000000000000000000000000000000000000100037356178753TEREZA BRAGA DE AZEVEDO                 RUA ANDRE ROCHA N 224                   TAQUARA - RI22730522RIO DE JANEIRO RJUNIAO UMB DOS CULTOS AFRO BRAS    30031810 000226
10231987175000168817800093673    00009724                     000097240000000000000109                     I019724      30031800000000035003410000017N200218104700000000000103003180000000000000000000000000000000000000000100005199150707RITA LUSIE DE MELLO CASTRO              RUA IARA N 118 CASA A                   SAO MATEUS -25525410SAO JOAO DE MERRJUNIAO UMB DOS CULTOS AFRO BRAS    30031810 000227
10231987175000168817800093673    00009723                     000097230000000000000109                     I019723      30031800000000035003410000017N200218104700000000000103003180000000000000000000000000000000000000000100001220001708ANDRE AMERICO DA SILVA                  RUA LARGO DO BOIADEIRO DA ROCINHA, 11   ROCINHA - RI22451340RIO DE JANEIRO RJUNIAO UMB DOS CULTOS AFRO BRAS    30031810 000228
10231987175000168817800093673    00009722                     000097220000000000000109                     I019722      30031800000000035003410000017N200218104700000000000103003180000000000000000000000000000000000000000100047515090715JOSE CARLOS DA SILVA GENUNCIO           RUA VEREADOR MAURICIO SOUZA N 97        ENGENHOCA - 24110539NITEROI        RJUNIAO UMB DOS CULTOS AFRO BRAS    30031810 000229
10231987175000168817800093673    00009721                     000097210000000000000109                     I019721      30031800000000035003410000017N200218104700000000000103003180000000000000000000000000000000000000000100085127183749CLAUDIA JORGE DA SILVA GAMA             RUA DAS MANGUEIRAS N 249                PIEDADE - RI20751080RIO DE JANEIRO RJUNIAO UMB DOS CULTOS AFRO BRAS    30031810 000230
10231987175000168817800093673    00009720                     000097200000000000000109                     I019720      30031800000000035003410000017N200218104700000000000103003180000000000000000000000000000000000000000100038232103787SUZANE LEMOS DA SILVA                   RUA ASSIS REPUBLICANO N 310 FUNDOS      FREGUESIA - 22745030RIO DE JANEIRO RJUNIAO UMB DOS CULTOS AFRO BRAS    30031810 000231
10231987175000168817800093673    00009719                     000097190000000000000109                     I019719      30031800000000035003410000017N200218104700000000000103003180000000000000000000000000000000000000000100064321800749MARLENE BALBINO DA SILVA                RUA: MATA MACHADO Nº 49                MARACANA    20271260LEOPOLDINA     MGUNIAO UMB DOS CULTOS AFRO BRAS    30031810 000232
10231987175000168817800093673    00009718                     000097180000000000000109                     I019718      30031800000000035003410000017N200218104700000000000103003180000000000000000000000000000000000000000100006935690773ELAINE DA COSTA MARTINS                 O MESMO                                 O MESMO     25220407DUQUE DE CAXIASRJUNIAO UMB DOS CULTOS AFRO BRAS    30031810 000233
10231987175000168817800093673    00009717                     000097170000000000000109                     I019717      30031800000000035003410000017N200218104700000000000103003180000000000000000000000000000000000000000100013540201756RUTE MEDEIROS VIEIRA                    RUA DESSESEIS N 527                     CONJUNTO NOV23565450SANTA CRUZ     RJUNIAO UMB DOS CULTOS AFRO BRAS    30031810 000234
10231987175000168817800093673    00009716                     000097160000000000000109                     I019716      30031800000000035003410000017N200218104700000000000103003180000000000000000000000000000000000000000100090876857772MARCO AURELIO PEREIRA VASCONCE          RUA VISCONDE DE OURO PRETO N 5          TAUA - ILHA 21910520ILHA DO GOVERNARJUNIAO UMB DOS CULTOS AFRO BRAS    30031810 000235
10231987175000168817800093673    00009715                     000097150000000000000109                     I019715      30031800000000035003410000017N200218104700000000000103003180000000000000000000000000000000000000000100037125893791ELIANA DOS SANTOS VITAL                 RUA CAPITAO VIEIRA Nº 96               TURIACU - RI21540330RIO DE JANEIRO RJUNIAO UMB DOS CULTOS AFRO BRAS    30031810 000236
10231987175000168817800093673    00009714                     000097140000000000000109                     I019714      30031800000000035003410000017N200218104700000000000103003180000000000000000000000000000000000000000100005426043701CLARA DANIELE BROWN FLAUZINO            RUA ZAMBIA N 29                         BANGU - RIO 21850510RIO DE JANEIRO RJUNIAO UMB DOS CULTOS AFRO BRAS    30031810 000237
10231987175000168817800093673    00009713                     000097130000000000000109                     I019713      30031800000000035003410000017N200218104700000000000103003180000000000000000000000000000000000000000200000000009372SILAS SOUZA ALSELMO                     RUA DO CANAVIAL N 207                   PARQUE ANTAR26053040NOVA IGUACU    RJUNIAO UMB DOS CULTOS AFRO BRAS    30031810 000238
10231987175000168817800093673    00009712                     000097120000000000000109                     I019712      30031800000000035003410000017N200218104700000000000103003180000000000000000000000000000000000000000100000357281756ROSA ELENA DA CONCEICAO ALVES           TRAVESSA TIRADENTES N 23 CASA 4         OLINDA - NIL26535370NILOPOLIS      RJUNIAO UMB DOS CULTOS AFRO BRAS    30031810 000239
10231987175000168817800093673    00009711                     000097110000000000000109                     I019711      30031800000000035003410000017N200218104700000000000103003180000000000000000000000000000000000000000200000000009363ANTONIO SANTOS DA SILVA                 RUA DAS BANANEIRAS N 42                 BARAO GUANDU26062188NOVA IGUACU    RJUNIAO UMB DOS CULTOS AFRO BRAS    30031810 000240
10231987175000168817800093673    00009710                     000097100000000000000109                     I019710      30031800000000035003410000017N200218104700000000000103003180000000000000000000000000000000000000000100041402685734ITAMAR DE OLIVEIRA FERREIRA             RUA AGRIPINO DE CAMPOS N 1016           MUTUA - SAO 24461320SAO GONCALO    RJUNIAO UMB DOS CULTOS AFRO BRAS    30031810 000241
10231987175000168817800093673    00009709                     000097090000000000000109                     I019709      30031800000000035003410000017N200218104700000000000103003180000000000000000000000000000000000000000100067160891791ELIZABETH VIEGAS GUALHANO               RUA MARIZ DE BARROS N 272 APT° 302     PRACA DA BAN20785330RIO DE JANEIRO RJUNIAO UMB DOS CULTOS AFRO BRAS    30031810 000242
10231987175000168817800093673    00009708                     000097080000000000000109                     I019708      30031800000000035003410000017N200218104700000000000103003180000000000000000000000000000000000000000100059555815704PAULO FERNANDES                         RUA MONTE CARMELO 351                   BENTO RIBERI21555120RIO DE JANEIRO RJUNIAO UMB DOS CULTOS AFRO BRAS    30031810 000243
10231987175000168817800093673    00009707                     000097070000000000000109                     I019707      30031800000000035003410000017N200218104700000000000103003180000000000000000000000000000000000000000100003661917100DUCILENE MADEIRA VIEIRA                 AVENIDA ZELINHA N 362                   JARDIM NAZAR25915000MAGE           RJUNIAO UMB DOS CULTOS AFRO BRAS    30031810 000244
10231987175000168817800093673    00009706                     000097060000000000000109                     I019706      30031800000000035003410000017N200218104700000000000103003180000000000000000000000000000000000000000100060296836168ALEXANDRE MONTEIRO DA ROSA              MONTE CASTELO Nº 143 - CORONEL VEIGA   ILHA        25655500PETROPOLIS     RJUNIAO UMB DOS CULTOS AFRO BRAS    30031810 000245
10231987175000168817800093673    00009705                     000097050000000000000109                     I019705      30031800000000035003410000017N200218104700000000000103003180000000000000000000000000000000000000000100068754485720LUCIA DA CONCEICAO GREGORIO             RUA PAULO OLIVEIRA DE CARVALHO N 56     VILA SAO LUI26012510NOVA IGUACU    RJUNIAO UMB DOS CULTOS AFRO BRAS    30031810 000246
10231987175000168817800093673    00009704                     000097040000000000000109                     I019704      30031800000000035003410000017N200218104700000000000103003180000000000000000000000000000000000000000100002167919794ANDERSON CLEI BRANDAO TEIXEIRA          ESTRADA DO CANTAGALO Nº 595 A          CAMPO GRANDE23036440RIO DE JANEIRO RJUNIAO UMB DOS CULTOS AFRO BRAS    30031810 000247
10231987175000168817800093673    00009703                     000097030000000000000109                     I019703      30031800000000035003410000017N200218104700000000000103003180000000000000000000000000000000000000000100008874438770MARCIA MARIA DOS SANTOS                 RUA HENRIQUE VALADARES N 47 APT 506     CENTRO - RJ 20231030RIO DE JANEIRO RJUNIAO UMB DOS CULTOS AFRO BRAS    30031810 000248
10231987175000168817800093673    00009702                     000097020000000000000109                     I019702      30031800000000035003410000017N200218104700000000000103003180000000000000000000000000000000000000000100009527172713FABIANA DA SILVA FERNANDES              RUA ITAPACI, 56 CASA A                  COSMOS - RJ 23060440RIO DE JANEIRO RJUNIAO UMB DOS CULTOS AFRO BRAS    30031810 000249
