01REMESSA01COBRANCA       817800093673        União Umb dos Cultos Afro Bra341BANCO ITAU SA  020418                                                                                                                                                                                                                                                                                                      000001
10231987175000168817800093673    0000436                      000004360000000000000109                     I02436       20121700000000400003410000017N101017104700000000000102012170000000000000000000000000000000000000000100067238742772DENISE SIMONE MONTEIRO DE ANDR          RUA URUACU, 406                         JARDIM CARIO21921600RIO DE JANEIRO RJUNIAO UMB DOS CULTOS AFRO BRAS    20121710 000002
10231987175000168817800093673    0000428                      000004280000000000000109                     I02428       20121700000000340003410000017N101017104700000000000102012170000000000000000000000000000000000000000100007991824780DANIELLE OLIVEIRA DOS SANTOS            RUA GAMO, 4                             JARDIM METRO25575380SAO JOAO DE MERRJUNIAO UMB DOS CULTOS AFRO BRAS    20121710 000003
10231987175000168817800093673    0000427                      000004270000000000000109                     I02427       20121700000000340003410000017N101017104700000000000102012170000000000000000000000000000000000000000100010525485716JORGE SANTOS DA SILVA                   RUA TENENTE CUSTODIO MOREIRA, 24        JARDIM XAVAN26125000BELFORD ROXO   RJUNIAO UMB DOS CULTOS AFRO BRAS    20121710 000004
10231987175000168817800093673    0000424                      000004240000000000000109                     I02424       20121700000000340003410000017N101017104700000000000102012170000000000000000000000000000000000000000100008169125723SANDRA PRAXEDES SILVA BRAGA             RUA NOVENTA TRES, LOTE 36 QUADRA 131    CORDEIRINHO 24921464MARICA         RJUNIAO UMB DOS CULTOS AFRO BRAS    20121710 000005
10231987175000168817800093673    0000422                      000004220000000000000109                     I02422       02021800000000360003410000017N101017104700000000000100202180000000000000000000000000000000000000000100006940060766JAQUELINE BEZERRA DA SILVA              RUA ATOR JECE VALADAO, 329 - ANTIGA 73  PEDRA DE GUA23020718RIO DE JANEIRO RJUNIAO UMB DOS CULTOS AFRO BRAS    02021810 000006
10231987175000168817800093673    0000421                      000004210000000000000109                     I02421       20121700000000340003410000017N101017104700000000000102012170000000000000000000000000000000000000000100080113397704SOLANGE DE SOUZA SILVA                  RUA PEDRO DE MELO, 174 FUNDOS           PADRE MIGUEL21775410RIO DE JANEIRO RJUNIAO UMB DOS CULTOS AFRO BRAS    20121710 000007
10231987175000168817800093673    0000420                      000004200000000000000109                     I02420       20121700000000340003410000017N101017104700000000000102012170000000000000000000000000000000000000000100031197345787HELENA FERREIRA DA SILVA                RUA GENERAL SEZEFREDO 715               REALENGO  RJ21715064RIO DE JANEIRO RJUNIAO UMB DOS CULTOS AFRO BRAS    20121710 000008
10231987175000168817800093673    0000419                      000004190000000000000109                     I02419       20121700000000340003410000017N101017104700000000000102012170000000000000000000000000000000000000000100098077899749WANDERLEY PACHECO                       RUA NOSSA SENHORA DA CONCEICAO, S/N LOTEPILAR - DUQU25233070DUQUE DE CAXIASRJUNIAO UMB DOS CULTOS AFRO BRAS    20121710 000009
10231987175000168817800093673    0000412                      000004120000000000000109                     I02412       20121700000000340003410000017N101017104700000000000102012170000000000000000000000000000000000000000100080252540700GEORGET MARIA CONCEICAO DE OLI          RUA CONDE DE LINHARES, 75 FUNDOS        OSWALDO CRUZ21341190RIO DE JANEIRO RJUNIAO UMB DOS CULTOS AFRO BRAS    20121710 000010
10231987175000168817800093673    0000411                      000004110000000000000109                     I02411       20121700000000340003410000017N101017104700000000000102012170000000000000000000000000000000000000000100008528931757LUCIMARA DA CONCEICAO CORTES            RUA PROFESSOR CHARLEY LACHMUND, 360 FUNDGUARATIBA - 23032570RIO DE JANEIRO RJUNIAO UMB DOS CULTOS AFRO BRAS    20121710 000011
10231987175000168817800093673    0000407                      000004070000000000000109                     I02407       20121700000000340003410000017N101017104700000000000102012170000000000000000000000000000000000000000100013770029771MICHEL REIS COUTINHO                    ESTRADA ADHEMAR BEBIANO, 3006 RUA 4 CASAINHAUMA - RI20766720RIO DE JANEIRO RJUNIAO UMB DOS CULTOS AFRO BRAS    20121710 000012
10231987175000168817800093673    0000404                      000004040000000000000109                     I02404       20121700000000340003410000017N101017104700000000000102012170000000000000000000000000000000000000000100083904069772MARCIA MARIA DUARTE MILANEZ VI          RUA DO FRAGOSO, 480                     GUARATIBA - 23032280RIO DE JANEIRO RJUNIAO UMB DOS CULTOS AFRO BRAS    20121710 000013
10231987175000168817800093673    0000400                      000004000000000000000109                     I02400       20121700000000340003410000017N101017104700000000000102012170000000000000000000000000000000000000000100000360973736CLAUDIA PINHEIRO CID                    RUA BRAGA, 106 CASA 2                   PENHA - RJ  21011500RIO DE JANEIRO RJUNIAO UMB DOS CULTOS AFRO BRAS    20121710 000014
10231987175000168817800093673    0000399                      000003990000000000000109                     I02399       20121700000000340003410000017N101017104700000000000102012170000000000000000000000000000000000000000100000043874738ANDREA COSTA                            RUA ATHOS BULCAO, 68 CASA C             RECREIO DOS 22790661RIO DE JANEIRO RJUNIAO UMB DOS CULTOS AFRO BRAS    20121710 000015
10231987175000168817800093673    0000398                      000003980000000000000109                     I02398       20121700000000400003410000017N101017104700000000000102012170000000000000000000000000000000000000000100000934031789ISABEL CRISTINA TEIXEIRA DE OL          RUA ALMOFADA, 53 FUNDOS                 P. SAO VIVEN26178030BELFORD ROXO   RJUNIAO UMB DOS CULTOS AFRO BRAS    20121710 000016
10231987175000168817800093673    0000397                      000003970000000000000109                     I02397       20121700000000340003410000017N101017104700000000000102012170000000000000000000000000000000000000000100073296902791CARLOS ALEXANDRE FERNANDES SAM          RUA BORJA REIS, 525                     ENGENHO DE D20745100RIO DE JANEIRO RJUNIAO UMB DOS CULTOS AFRO BRAS    20121710 000017
10231987175000168817800093673    0000396                      000003960000000000000109                     I02396       20121700000000300003410000017N101017104700000000000102012170000000000000000000000000000000000000000100062990772715MARLISE VINAGRE SILVA                   RUA SILVEIRA MARTINS, 30 APTO 704       CATETE - RJ 26299042RIO DE JANEIRO RJUNIAO UMB DOS CULTOS AFRO BRAS    20121710 000018
10231987175000168817800093673    0000393                      000003930000000000000109                     I02393       20121700000000340003410000017N101017104700000000000102012170000000000000000000000000000000000000000100055381898720EULICIA DA SILVA SANTOS                 RUA RIO PRETO, 604                      GRAMACHO - D25035390DUQUE DE CAXIASRJUNIAO UMB DOS CULTOS AFRO BRAS    20121710 000019
10231987175000168817800093673    0000391                      000003910000000000000109                     I02391       20121700000000300003410000017N101017104700000000000102012170000000000000000000000000000000000000000100010839192703ELISANGELA DA CONCEICAO REIS            RUA FELIPE CAMARAO, 310                 RETIRO - PET25715010PETROPOLIS     RJUNIAO UMB DOS CULTOS AFRO BRAS    20121710 000020
10231987175000168817800093673    0000354                      000003540000000000000109                     I02354       20121700000000340003410000017N101017104700000000000102012170000000000000000000000000000000000000000200000000011255CARLOS ALBERTO TORRES NOGUEIRA          ESTRADA DO LAMEIRAO, 667 CASA 9         SANTISSIMO -23092031RIO DE JANEIRO RJUNIAO UMB DOS CULTOS AFRO BRAS    20121710 000021
10231987175000168817800093673    0000348                      000003480000000000000109                     I02348       20121700000000340003410000017N101017104700000000000102012170000000000000000000000000000000000000000100011418927740JORGE MARCOS DE SA FREIRE               RUA RIO ALVA LOTE 6 QUADRA 9            PARQUE COMER25041430DUQUE DE CAXIASRJUNIAO UMB DOS CULTOS AFRO BRAS    20121710 000022
10231987175000168817800093673    0000347                      000003470000000000000109                     I02347       20121700000000340003410000017N101017104700000000000102012170000000000000000000000000000000000000000100091097810787SOLANGE VALENTIM DA SILVA               RUA URUCUIA, 773                        VILA VALQUEI21321310RIO DE JANEIRO RJUNIAO UMB DOS CULTOS AFRO BRAS    20121710 000023
10231987175000168817800093673    0000326                      000003260000000000000109                     I02326       20121700000000340003410000017N101017104700000000000102012170000000000000000000000000000000000000000100003210854777NELIO PEREIRA BARCELOS                  RUA VISCONDE DO URUGUAI, 252 APTO 202   CENTRO - NIT24030073NITEROI        RJUNIAO UMB DOS CULTOS AFRO BRAS    20121710 000024
10231987175000168817800093673    0000241                      000002410000000000000109                     I02241       20121700000000300003410000017N101017104700000000000102012170000000000000000000000000000000000000000100058835652715LUCY ALMEIDA MARTINS DA SILVA           RUA JOAO MENINO,49 FUNDOS               ITACURUCA - 23860000MANGARATIBA    RJUNIAO UMB DOS CULTOS AFRO BRAS    20121710 000025
10231987175000168817800093673    0000239                      000002390000000000000109                     I02239       20121700000000340003410000017N101017104700000000000102012170000000000000000000000000000000000000000100001876672765AGUIMAR FERREIRA PIRES                  RUA ZELIO DE MORAES, 435 PARADA 40      SAO GONCALO 24435080SAO GONCALO    RJUNIAO UMB DOS CULTOS AFRO BRAS    20121710 000026
10231987175000168817800093673    0000236                      000002360000000000000109                     I02236       20121700000000400003410000017N101017104700000000000102012170000000000000000000000000000000000000000100002387294785ANDREA CONDOR GUIMARAES PINHEI          RUA SEBASTIAO DE SOUZA GOUVEA 41        IRAJA  RJ   21235410RIO DE JANEIRO RJUNIAO UMB DOS CULTOS AFRO BRAS    20121710 000027
10231987175000168817800093673    0000235                      000002350000000000000109                     I02235       20121700000000340003410000017N101017104700000000000102012170000000000000000000000000000000000000000100002381411798MARIA RISONETE DE OLIVEIRA SOA          ESTRADA DA COIVARA, 224                 VILA MARIA H25251090DUQUE DE CAXIASRJUNIAO UMB DOS CULTOS AFRO BRAS    20121710 000028
10231987175000168817800093673    0000232                      000002320000000000000109                     I02232       20121700000000300003410000017N101017104700000000000102012170000000000000000000000000000000000000000100068863292787MARIA JOSE DA SILVA                     RUA LAVOISIER LOTE 7 QUADRA 121         PARQUE PAULI25261390DUQUE DE CAXIASRJUNIAO UMB DOS CULTOS AFRO BRAS    20121710 000029
10231987175000168817800093673    0000231                      000002310000000000000109                     I02231       20121700000000340003410000017N101017104700000000000102012170000000000000000000000000000000000000000100003421604789MARILEA GUIMARAES CASEMIRO BAR          RUA JAGUARI, 136                        MONTE LIBANO26010450RIO DE JANEIRO RJUNIAO UMB DOS CULTOS AFRO BRAS    20121710 000030
10231987175000168817800093673    0000226                      000002260000000000000109                     I02226       20121700000000340003410000017N101017104700000000000102012170000000000000000000000000000000000000000100000596984707MARGARETH WAMBURG DE SIQUEIRA           RUA SAO FRANCISCO XAVIER, 953           TEL 97262.9720550011RIO DE JANEIRO RJUNIAO UMB DOS CULTOS AFRO BRAS    20121710 000031
10231987175000168817800093673    0000223                      000002230000000000000109                     I02223       20121700000000340003410000017N101017104700000000000102012170000000000000000000000000000000000000000100057252700763WALDENILDA BORGES RAMOS ALVES           RUA NILO CAIRO, 11 CASA 2               PARAISO - SA24431590SAO GONCALO    RJUNIAO UMB DOS CULTOS AFRO BRAS    20121710 000032
10231987175000168817800093673    0000220                      000002200000000000000109                     I02220       20121700000000300003410000017N101017104700000000000102012170000000000000000000000000000000000000000100008903088700JORGINA CARDOSO DE FREITAS              RUA OSWALDO LINO, 84                    MANGUEIRA - 23530155RIO DE JANEIRO RJUNIAO UMB DOS CULTOS AFRO BRAS    20121710 000033
10231987175000168817800093673    0000219                      000002190000000000000109                     I02219       20121700000000340003410000017N101017104700000000000102012170000000000000000000000000000000000000000200000000010388CARLOS JOSE GOMES DA SILVA              RUA JABOTI, 200  CASA 2                 PEDIR DADOS 21215330RIO DE JANEIRO RJUNIAO UMB DOS CULTOS AFRO BRAS    20121710 000034
10231987175000168817800093673    0000218                      000002180000000000000109                     I02218       20121700000000300003410000017N101017104700000000000102012170000000000000000000000000000000000000000100063893843787DORA MARCIA DE SOUZA ALMEIDA            RUA PRADO JUNIOR, 4                     SANTA CRUZ -23550101RIO DE JANEIRO RJUNIAO UMB DOS CULTOS AFRO BRAS    20121710 000035
10231987175000168817800093673    0000216                      000002160000000000000109                     I02216       20121700000000400003410000017N101017104700000000000102012170000000000000000000000000000000000000000100063604604753MARICELIA SALES FARIA MUNIZ             RUA CAROLINA AMADO Nº 1126 FUNDOS      IRAJA       21361320RIO DE JANEIRO RJUNIAO UMB DOS CULTOS AFRO BRAS    20121710 000036
10231987175000168817800093673    0000215                      000002150000000000000109                     I02215       20121700000000340003410000017N101017104700000000000102012170000000000000000000000000000000000000000100007507770796MARIA DO CARMO MENDONCA MATTOS          RUA NAMUR, 325 CASA 3                   VL VALQUEIRE21330600RIO DE JANEIRO RJUNIAO UMB DOS CULTOS AFRO BRAS    20121710 000037
10231987175000168817800093673    0000212                      000002120000000000000109                     I02212       20121700000000450003410000017N101017104700000000000102012170000000000000000000000000000000000000000100086357522791ANDRE VEIGA PEIXOTO                     ALAMEDA SAO BENTO, 43                   PARQUE SAO V26172130BELFORD ROXO   RJUNIAO UMB DOS CULTOS AFRO BRAS    20121710 000038
10231987175000168817800093673    0000209                      000002090000000000000109                     I02209       20121700000000340003410000017N101017104700000000000102012170000000000000000000000000000000000000000100078074436420LUCIANO DANTAS DE ARAUJO                RUA TRAVESSA FERREIRA, 87 FUNDOS        CENTRO - NIL26525533NILOPOLIS      RJUNIAO UMB DOS CULTOS AFRO BRAS    20121710 000039
10231987175000168817800093673    0000208                      000002080000000000000109                     I02208       20121700000000340003410000017N101017104700000000000102012170000000000000000000000000000000000000000100001416091769SUELY CORREA MACEDO SILVA               RUA CARVALHO DE SOUSA, 137 BLOCO 4 COB 7SAO JOAO DE 21350180RIO DE JANEIRO RJUNIAO UMB DOS CULTOS AFRO BRAS    20121710 000040
10231987175000168817800093673    0000193                      000001930000000000000109                     I02193       20121700000000400003410000017N101017104700000000000102012170000000000000000000000000000000000000000100002601405708ALEX VANDER VARGAS                      RUA QUEMARU, 84                         ROCHA MIRAND21540510RIO DE JANEIRO RJUNIAO UMB DOS CULTOS AFRO BRAS    20121710 000041
9                                                                                                                                                                                                                                                                                                                                                                                                         000042
