01REMESSA01COBRANCA       916200163100        União Umb dos Cultos Afro Bra341BANCO ITAU SA  170119                                                                                                                                                                                                                                                                                                      000001
10231987175000168916200163100    000039598                    000395980000000000000109                     I0139598     31011900000000035003410000017N170119104700000000000103101190000000000000000000000000000000000000000100047783877753RAIMUNDO NONATO VALENCA RIBEIR          AVENIDA PREFEITO BRAULINO DE MATOS REIS COPACABANA  25060440DUQUE DE CAXIASRJUNIAO UMB DOS CULTOS AFRO BRAS    31011910 000002
10231987175000168916200163100    000039597                    000395970000000000000109                     I0139597     31031900000000030003410000017N170119104700000000000103103190000000000000000000000000000000000000000100009082627795LUCIA MARIA DO NASCIMENTO PALM          RUA PAULA BARROS                        VILA DA PENH21221420RIO DE JANEIRO RJUNIAO UMB DOS CULTOS AFRO BRAS    31031910 000003
10231987175000168916200163100    000039596                    000395960000000000000109                     I0239596     31031900000000030003410000017N170119104700000000000103103190000000000000000000000000000000000000000100009082627795LUCIA MARIA DO NASCIMENTO PALM          RUA PAULA BARROS                        VILA DA PENH21221420RIO DE JANEIRO RJUNIAO UMB DOS CULTOS AFRO BRAS    31031910 000004
10231987175000168916200163100    000039595                    000395950000000000000109                     I0139595     28021900000000030003410000017N170119104700000000000102802190000000000000000000000000000000000000000100009082627795LUCIA MARIA DO NASCIMENTO PALM          RUA PAULA BARROS                        VILA DA PENH21221420RIO DE JANEIRO RJUNIAO UMB DOS CULTOS AFRO BRAS    28021910 000005
10231987175000168916200163100    000039594                    000395940000000000000109                     I0139594     31011900000000030003410000017N170119104700000000000103101190000000000000000000000000000000000000000100009082627795LUCIA MARIA DO NASCIMENTO PALM          RUA PAULA BARROS                        VILA DA PENH21221420RIO DE JANEIRO RJUNIAO UMB DOS CULTOS AFRO BRAS    31011910 000006
10231987175000168916200163100    000039593                    000395930000000000000109                     I0139593     29031900000000040003410000017N170119104700000000000102903190000000000000000000000000000000000000000100013300181763JEFFERSON DOUGLAS NASCIMENTO D          RUA ROSA ALVES PACHECO                  VALVERDE    26291009NOVA IGUACU    RJUNIAO UMB DOS CULTOS AFRO BRAS    29031910 000007
10231987175000168916200163100    000039592                    000395920000000000000109                     I0139592     28021900000000040003410000017N170119104700000000000102802190000000000000000000000000000000000000000100013300181763JEFFERSON DOUGLAS NASCIMENTO D          RUA ROSA ALVES PACHECO                  VALVERDE    26291009NOVA IGUACU    RJUNIAO UMB DOS CULTOS AFRO BRAS    28021910 000008
10231987175000168916200163100    000039590                    000395900000000000000109                     I0139590     25011900000000200003410000017N170119104700000000000102501190000000000000000000000000000000000000000100091083532715MARCOS AURELIO PEREIRA RAMOS            RUA MATO GROSSO                         SANTA CECILI25957250TERESOPOLIS    RJUNIAO UMB DOS CULTOS AFRO BRAS    25011910 000009
10231987175000168916200163100    000039589                    000395890000000000000109                     I0139589     31011900000000035003410000017N170119104700000000000103101190000000000000000000000000000000000000000100006957328708ANDRE VALERIO DELGADO GOIS E M          RUA TORRES HOMEM                        JARDIM OLAVO25025380DUQUE DE CAXIASRJUNIAO UMB DOS CULTOS AFRO BRAS    31011910 000010
10231987175000168916200163100    000039588                    000395880000000000000109                     I0139588     31011900000000040003410000017N170119104700000000000103101190000000000000000000000000000000000000000100077165772715EDNA SANTOS DA TRINDADE                 RUA PARAISO                             SANTA CRUZ  23560130RIO DE JANEIRO RJUNIAO UMB DOS CULTOS AFRO BRAS    31011910 000011
10231987175000168916200163100    000039587                    000395870000000000000109                     I0139587     25011900000000105003410000017N170119104700000000000102501190000000000000000000000000000000000000000100002176741781SUSI DE OLIVEIRA LOUREIRO               RUA FATIMA CRISTINA                     ROSA DOS VEN26278525RIO DE JANEIRO RJUNIAO UMB DOS CULTOS AFRO BRAS    25011910 000012
10231987175000168916200163100    000039586                    000395860000000000000109                     I0139586     11021900000000480003410000017N170119104700000000000101102190000000000000000000000000000000000000000100010084300728RODRIGO ALVES DE PINHO                  RUA JOVITA FEITOSA                      VILA SAO JUD25243570DUQUE DE CAXIASRJUNIAO UMB DOS CULTOS AFRO BRAS    11021910 000013
10231987175000168916200163100    000039585                    000395850000000000000109                     I0139585     25011900000000350003410000017N160119104700000000000102501190000000000000000000000000000000000000000100000919377793JOSE IVAN MARCELINO FILHO               RUA ERNANE PEREIRA                      CARLOS SAMPA26089115NOVA IGUACU    RJUNIAO UMB DOS CULTOS AFRO BRAS    25011910 000014
10231987175000168916200163100    000039509                    000395090000000000000109                     I0239509     11011900000000105003410000017N080119104700000000000101101190000000000000000000000000000000000000000100002176741781SUSI DE OLIVEIRA LOUREIRO               RUA FATIMA CRISTINA                     ROSA DOS VEN26278525RIO DE JANEIRO RJUNIAO UMB DOS CULTOS AFRO BRAS    11011910 000015
9                                                                                                                                                                                                                                                                                                                                                                                                         000016
