01REMESSA01COBRANCA       916200163100        União Umb dos Cultos Afro Bra341BANCO ITAU SA  190118                                                                                                                                                                                                                                                                                                      000001
10231987175000168916200163100    00009050                     000090500000000000000109                     I019050      28021800000000035003410000017N190118104700000000000102802180000000000000000000000000000000000000000100009491065777VIVIAN LUIZA FREITAS DE AGUIAR          RUA ITAPETININGA                        VICENTE DE C21370680RIO DE JANEIRO RJUNIAO UMB DOS CULTOS AFRO BRAS    28021810 000002
10231987175000168916200163100    00009049                     000090490000000000000109                     I019049      05021800000000455003410000017N190118104700000000000100502180000000000000000000000000000000000000000100007228447786JEFFERSON CACADOR DE LIMA               RUA GEREMARIO DANTAS, 885 BLOCO 1 APTO 3PECHINCHA - 22743011RIO DE JANEIRO RJUNIAO UMB DOS CULTOS AFRO BRAS    05021810 000003
10231987175000168916200163100    00009048                     000090480000000000000109                     I019048      31011800000000035003410000017N190118104700000000000103101180000000000000000000000000000000000000000100097990531704CICERO ROGERIO DA SILVA MATOS           RUA: ROBERTO N 99                       VILA GUIMARA26088425NOVA IGUACU    RJUNIAO UMB DOS CULTOS AFRO BRAS    31011810 000004
10231987175000168916200163100    00009047                     000090470000000000000109                     I019047      25011800000000035003410000017N190118104700000000000102501180000000000000000000000000000000000000000100089682300487STIVES FERREIRA DA SILVA                RUA OSVALDO EVANGELISTA DOS SANTOS N 110BANGU - RIO 21864530RIO DE JANEIRO RJUNIAO UMB DOS CULTOS AFRO BRAS    25011810 000005
10231987175000168916200163100    00008437                     000084370000000000000109                     I018437      31011800000000035003410000017N020118104700000000000103101180000000000000000000000000000000000000000100000259523747MONICA VALERIA DE JESUS OLIVEI          RUA IANDU, 63                           IRAJA - RJ  21220340RIO DE JANEIRO RJUNIAO UMB DOS CULTOS AFRO BRAS    31011810 000006
10231987175000168916200163100    00004602                     000046020000000000000109                     I344602      22121700000000350003410000017N171117104700000000000102212170000000000000000000000000000000000000000100045672512704MARLUCIA AMADOR DO SERRO PINTO          RUA MARTHA ALCANTARA FARES              MARIA ANGELI25940000GUAPIMIRIM     RJUNIAO UMB DOS CULTOS AFRO BRAS    22121710 000007
10231987175000168916200163100    00003154                     000031540000000000000109                     I343154      31121700000000035003410000017N131117104700000000000103112170000000000000000000000000000000000000000100045672512704MARLUCIA AMADOR DO SERRO PINTO          RUA MARTHA ALCANTARA FARES              MARIA ANGELI25940000GUAPIMIRIM     RJUNIAO UMB DOS CULTOS AFRO BRAS    31121710 000008
10231987175000168916200163100    00002320                     000023200000000000000109                     I022320      31121700000000035003410000017N131117104700000000000103112170000000000000000000000000000000000000000100002134169729ALEXANDRE DE ALMEIDA                    RUA SERITINGA, 105 BLOCO 5 APTO 108 FUNDBRAS DE PINA21215480RIO DE JANEIRO RJUNIAO UMB DOS CULTOS AFRO BRAS    31121710 000009
10231987175000168916200163100    00002028                     000020280000000000000109                     I022028      20011800000000035003410000017N131117104700000000000102001180000000000000000000000000000000000000000100089682300487STIVES FERREIRA DA SILVA                RUA OSVALDO EVANGELISTA DOS SANTOS N 110BANGU - RIO 21864530RIO DE JANEIRO RJUNIAO UMB DOS CULTOS AFRO BRAS    20011810 000010
9                                                                                                                                                                                                                                                                                                                                                                                                         000011
