01REMESSA01COBRANCA       817800093673        União Umb dos Cultos Afro Bra341BANCO ITAU SA  020819                                                                                                                                                                                                                                                                                                      000001
10231987175000168817800093673    000050474                    000504740000000000000109                     I0150474     10091900000000050003410000017N020819105700000000000171009190000000000000000000000000000000000000000100000064595790JORGE ERNESTO FERREIRA VICHI            RUA PAULO RIBEIRO BASTOSN 148, CASA 2   PACIENCIA   23587230RIO DE JANEIRO RJUNIAO UMB DOS CULTOS AFRO BRAS    10091915 000002
21100920190000000000100                                                                                                                                                                                                                                                                                                                                                                                   000003
9                                                                                                                                                                                                                                                                                                                                                                                                         000004
