01REMESSA01COBRANCA       817800093673        União Umb dos Cultos Afro Bra341BANCO ITAU SA  080318                                                                                                                                                                                                                                                                                                      000001
10231987175000168817800093673    000014187                    000141870000000000000109                     I0114187     30051800000000035003410000017N070318104700000000000103005180000000000000000000000000000000000000000100005267669725CARLA REGINA JOSE PEREIRA DA S          O MESMO                                 O MESMO     26272170NOVA IGUACU    RJUNIAO UMB DOS CULTOS AFRO BRAS    30051810 000002
10231987175000168817800093673    000014186                    000141860000000000000109                     I0114186     30041800000000035003410000017N070318104700000000000103004180000000000000000000000000000000000000000100005267669725CARLA REGINA JOSE PEREIRA DA S          O MESMO                                 O MESMO     26272170NOVA IGUACU    RJUNIAO UMB DOS CULTOS AFRO BRAS    30041810 000003
10231987175000168817800093673    000014185                    000141850000000000000109                     I0114185     30031800000000035003410000017N070318104700000000000103003180000000000000000000000000000000000000000100005267669725CARLA REGINA JOSE PEREIRA DA S          O MESMO                                 O MESMO     26272170NOVA IGUACU    RJUNIAO UMB DOS CULTOS AFRO BRAS    30031810 000004
10231987175000168817800093673    000014184                    000141840000000000000109                     I0114184     30051800000000035003410000017N070318104700000000000103005180000000000000000000000000000000000000000100000000004130MARIA ORLANDA ALVES BRAZ                RUA JOSE DE ARAUJO 633                  CAMPO ALEGRE26292008RIO DE JANEIRO RJUNIAO UMB DOS CULTOS AFRO BRAS    30051810 000005
10231987175000168817800093673    000014183                    000141830000000000000109                     I0114183     30041800000000035003410000017N070318104700000000000103004180000000000000000000000000000000000000000100000000004130MARIA ORLANDA ALVES BRAZ                RUA JOSE DE ARAUJO 633                  CAMPO ALEGRE26292008RIO DE JANEIRO RJUNIAO UMB DOS CULTOS AFRO BRAS    30041810 000006
10231987175000168817800093673    000013883                    000138830000000000000109                     I0213883     30051800000000035003410000017N200218104700000000000103005180000000000000000000000000000000000000000100002209208777ELIELSON DOS SANTOS CARVALHAES          RUA TRES QUADRA 21 LOTE 17              LAGOINHA - N26296295NOVA IGUACU    RJUNIAO UMB DOS CULTOS AFRO BRAS    30051810 000007
10231987175000168817800093673    000013819                    000138190000000000000109                     I0213819     30051800000000035003410000017N200218104700000000000103005180000000000000000000000000000000000000000100004244337709WANDERSON SANTOS DA SILVA               AVENIDA DAS AMERICAS 15000              RECREIO DOS 22790330RIO DE JANEIRO RJUNIAO UMB DOS CULTOS AFRO BRAS    30051810 000008
10231987175000168817800093673    000013416                    000134160000000000000109                     I3413416     30051800000000035003410000017N200218104700000000000103005180000000000000000000000000000000000000000100098300989749SOLANGE MONTEIRO DA SILVA LAMB          RUA EMILIA AZEVEDO, 67 - MANTIQUIRA     XEREM - DUQU25250460DUQUE DE CAXIASRJUNIAO UMB DOS CULTOS AFRO BRAS    30051810 000009
10231987175000168817800093673    000012672                    000126720000000000000109                     I0212672     30051800000000035003410000017N200218104700000000000103005180000000000000000000000000000000000000000100090682211753ELIZABETH VALENTIM                      AL: SEIS SN LT 38 QD 182 - CAMPO LINDO  SEROPEDICA -23845190RIO DE JANEIRO RJUNIAO UMB DOS CULTOS AFRO BRAS    30051810 000010
10231987175000168817800093673    000012619                    000126190000000000000109                     I0212619     30051800000000035003410000017N200218104700000000000103005180000000000000000000000000000000000000000100093151179720ELIZABETH DA SILVA GOIS                 RUA RAFAEL HAENNY, 2 LOTE 2 QUADRA 4    SEPETIBA - R23535640RIO DE JANEIRO RJUNIAO UMB DOS CULTOS AFRO BRAS    30051810 000011
10231987175000168817800093673    000012528                    000125280000000000000109                     I0212528     30051800000000035003410000017N200218104700000000000103005180000000000000000000000000000000000000000100007331881760COSMA MARIA DE MELO - BENTO SE          RUA PULMERANIA LOTE 16 QUADRA 27 (ANTIGAPARQUE MODER25023070DUQUE DE CAXIASRJUNIAO UMB DOS CULTOS AFRO BRAS    30051810 000012
10231987175000168817800093673    000012274                    000122740000000000000109                     I0212274     30041800000000035003410000017N200218104700000000000103004180000000000000000000000000000000000000000100002209208777ELIELSON DOS SANTOS CARVALHAES          RUA TRES QUADRA 21 LOTE 17              LAGOINHA - N26296295NOVA IGUACU    RJUNIAO UMB DOS CULTOS AFRO BRAS    30041810 000013
10231987175000168817800093673    000012210                    000122100000000000000109                     I0212210     30041800000000035003410000017N200218104700000000000103004180000000000000000000000000000000000000000100004244337709WANDERSON SANTOS DA SILVA               AVENIDA DAS AMERICAS 15000              RECREIO DOS 22790330RIO DE JANEIRO RJUNIAO UMB DOS CULTOS AFRO BRAS    30041810 000014
10231987175000168817800093673    000011807                    000118070000000000000109                     I3411807     30041800000000035003410000017N200218104700000000000103004180000000000000000000000000000000000000000100098300989749SOLANGE MONTEIRO DA SILVA LAMB          RUA EMILIA AZEVEDO, 67 - MANTIQUIRA     XEREM - DUQU25250460DUQUE DE CAXIASRJUNIAO UMB DOS CULTOS AFRO BRAS    30041810 000015
10231987175000168817800093673    000011063                    000110630000000000000109                     I0211063     30041800000000035003410000017N200218104700000000000103004180000000000000000000000000000000000000000100090682211753ELIZABETH VALENTIM                      AL: SEIS SN LT 38 QD 182 - CAMPO LINDO  SEROPEDICA -23845190RIO DE JANEIRO RJUNIAO UMB DOS CULTOS AFRO BRAS    30041810 000016
10231987175000168817800093673    000010919                    000109190000000000000109                     I0210919     30041800000000035003410000017N200218104700000000000103004180000000000000000000000000000000000000000100007331881760COSMA MARIA DE MELO - BENTO SE          RUA PULMERANIA LOTE 16 QUADRA 27 (ANTIGAPARQUE MODER25023070DUQUE DE CAXIASRJUNIAO UMB DOS CULTOS AFRO BRAS    30041810 000017
10231987175000168817800093673    000010665                    000106650000000000000109                     I0210665     30031800000000035003410000017N200218104700000000000103003180000000000000000000000000000000000000000100002209208777ELIELSON DOS SANTOS CARVALHAES          RUA TRES QUADRA 21 LOTE 17              LAGOINHA - N26296295NOVA IGUACU    RJUNIAO UMB DOS CULTOS AFRO BRAS    30031810 000018
10231987175000168817800093673    000010601                    000106010000000000000109                     I0210601     30031800000000035003410000017N200218104700000000000103003180000000000000000000000000000000000000000100004244337709WANDERSON SANTOS DA SILVA               AVENIDA DAS AMERICAS 15000              RECREIO DOS 22790330RIO DE JANEIRO RJUNIAO UMB DOS CULTOS AFRO BRAS    30031810 000019
10231987175000168817800093673    000010330                    000103300000000000000109                     I0210330     30031800000000035003410000017N200218104700000000000103003180000000000000000000000000000000000000000100082977852700ISAURA FERNANDES FERREIRA               RUA DENVER, LOTE 23 QUADRA 15           PIAM - BELFO26115590BELFORD ROXO   RJUNIAO UMB DOS CULTOS AFRO BRAS    30031810 000020
10231987175000168817800093673    000010198                    000101980000000000000109                     I3410198     30031800000000035003410000017N200218104700000000000103003180000000000000000000000000000000000000000100098300989749SOLANGE MONTEIRO DA SILVA LAMB          RUA EMILIA AZEVEDO, 67 - MANTIQUIRA     XEREM - DUQU25250460DUQUE DE CAXIASRJUNIAO UMB DOS CULTOS AFRO BRAS    30031810 000021
10231987175000168817800093673    000010181                    000101810000000000000109                     I0210181     30031800000000035003410000017N200218104700000000000103003180000000000000000000000000000000000000000100003319281755GENILSON CAETANO DA SILVA               RUA JACO MELOTI, 46                     CORUMBA - NO26041790NOVA IGUACU    RJUNIAO UMB DOS CULTOS AFRO BRAS    30031810 000022
10231987175000168817800093673    00009454                     000094540000000000000109                     I029454      30031800000000035003410000017N200218104700000000000103003180000000000000000000000000000000000000000100090682211753ELIZABETH VALENTIM                      AL: SEIS SN LT 38 QD 182 - CAMPO LINDO  SEROPEDICA -23845190RIO DE JANEIRO RJUNIAO UMB DOS CULTOS AFRO BRAS    30031810 000023
10231987175000168817800093673    00009401                     000094010000000000000109                     I029401      30031800000000035003410000017N200218104700000000000103003180000000000000000000000000000000000000000100093151179720ELIZABETH DA SILVA GOIS                 RUA RAFAEL HAENNY, 2 LOTE 2 QUADRA 4    SEPETIBA - R23535640RIO DE JANEIRO RJUNIAO UMB DOS CULTOS AFRO BRAS    30031810 000024
10231987175000168817800093673    00009310                     000093100000000000000109                     I029310      30031800000000035003410000017N200218104700000000000103003180000000000000000000000000000000000000000100007331881760COSMA MARIA DE MELO - BENTO SE          RUA PULMERANIA LOTE 16 QUADRA 27 (ANTIGAPARQUE MODER25023070DUQUE DE CAXIASRJUNIAO UMB DOS CULTOS AFRO BRAS    30031810 000025
10231987175000168817800093673    00008308                     000083080000000000000109                     I028308      28021800000000035003410000017N291217104700000000000102802180000000000000000000000000000000000000000100003319281755GENILSON CAETANO DA SILVA               RUA JACO MELOTI, 46                     CORUMBA - NO26041790NOVA IGUACU    RJUNIAO UMB DOS CULTOS AFRO BRAS    28021810 000026
10231987175000168817800093673    00007989                     000079890000000000000109                     I027989      28021800000000035003410000017N291217104700000000000102802180000000000000000000000000000000000000000100093151179720ELIZABETH DA SILVA GOIS                 RUA RAFAEL HAENNY, 2 LOTE 2 QUADRA 4    SEPETIBA - R23535640RIO DE JANEIRO RJUNIAO UMB DOS CULTOS AFRO BRAS    28021810 000027
10231987175000168817800093673    00007290                     000072900000000000000109                     I027290      28021800000000035003410000017N271217104700000000000102802180000000000000000000000000000000000000000100002209208777ELIELSON DOS SANTOS CARVALHAES          RUA TRES QUADRA 21 LOTE 17              LAGOINHA - N26296295NOVA IGUACU    RJUNIAO UMB DOS CULTOS AFRO BRAS    28021810 000028
10231987175000168817800093673    00007224                     000072240000000000000109                     I027224      28021800000000035003410000017N271217104700000000000102802180000000000000000000000000000000000000000100004244337709WANDERSON SANTOS DA SILVA               AVENIDA DAS AMERICAS 15000              RECREIO DOS 22790330RIO DE JANEIRO RJUNIAO UMB DOS CULTOS AFRO BRAS    28021810 000029
10231987175000168817800093673    00006420                     000064200000000000000109                     I026420      28021800000000035003410000017N271217104700000000000102802180000000000000000000000000000000000000000100082059403715SANDRA HELENA VILLAMOR MONTASS          RUA ARGOS, 693                          GUADALUPE   21660050RIO DE JANEIRO RJUNIAO UMB DOS CULTOS AFRO BRAS    28021810 000030
10231987175000168817800093673    00006335                     000063350000000000000109                     I026335      28021800000000035003410000017N271217104700000000000102802180000000000000000000000000000000000000000100090682211753ELIZABETH VALENTIM                      AL: SEIS SN LT 38 QD 182 - CAMPO LINDO  SEROPEDICA -23845190RIO DE JANEIRO RJUNIAO UMB DOS CULTOS AFRO BRAS    28021810 000031
10231987175000168817800093673    00006227                     000062270000000000000109                     I026227      28021800000000035003410000017N271217104700000000000102802180000000000000000000000000000000000000000100007331881760COSMA MARIA DE MELO - BENTO SE          RUA PULMERANIA LOTE 16 QUADRA 27 (ANTIGAPARQUE MODER25023070DUQUE DE CAXIASRJUNIAO UMB DOS CULTOS AFRO BRAS    28021810 000032
10231987175000168817800093673    00006040                     000060400000000000000109                     I026040      31011800000000035003410000017N261217104700000000000103101180000000000000000000000000000000000000000100002209208777ELIELSON DOS SANTOS CARVALHAES          RUA TRES QUADRA 21 LOTE 17              LAGOINHA - N26296295NOVA IGUACU    RJUNIAO UMB DOS CULTOS AFRO BRAS    31011810 000033
10231987175000168817800093673    00005974                     000059740000000000000109                     I025974      31011800000000035003410000017N261217104700000000000103101180000000000000000000000000000000000000000100004244337709WANDERSON SANTOS DA SILVA               AVENIDA DAS AMERICAS 15000              RECREIO DOS 22790330RIO DE JANEIRO RJUNIAO UMB DOS CULTOS AFRO BRAS    31011810 000034
10231987175000168817800093673    00005170                     000051700000000000000109                     I025170      31011800000000035003410000017N261217104700000000000103101180000000000000000000000000000000000000000100082059403715SANDRA HELENA VILLAMOR MONTASS          RUA ARGOS, 693                          GUADALUPE   21660050RIO DE JANEIRO RJUNIAO UMB DOS CULTOS AFRO BRAS    31011810 000035
10231987175000168817800093673    00005168                     000051680000000000000109                     I025168      31011800000000035003410000017N261217104700000000000103101180000000000000000000000000000000000000000100088677079734MARIA APARECIDA MORAIS DOS SAN          RUA OLAVO GAMA, TRAVESSA F - PROJETADA BGUARATIBA - 23040400SEROPEDICA     RJUNIAO UMB DOS CULTOS AFRO BRAS    31011810 000036
10231987175000168817800093673    00005134                     000051340000000000000109                     I025134      31011800000000035003410000017N261217104700000000000103101180000000000000000000000000000000000000000100001925108783HELENA MOREIRA PESSOA                   RUA CAPIVARA, LOTE 639 QUADRA 48        SANTA CRUZ D25260180DUQUE DE CAXIASRJUNIAO UMB DOS CULTOS AFRO BRAS    31011810 000037
10231987175000168817800093673    00005085                     000050850000000000000109                     I025085      31011800000000035003410000017N261217104700000000000103101180000000000000000000000000000000000000000100090682211753ELIZABETH VALENTIM                      AL: SEIS SN LT 38 QD 182 - CAMPO LINDO  SEROPEDICA -23845190RIO DE JANEIRO RJUNIAO UMB DOS CULTOS AFRO BRAS    31011810 000038
10231987175000168817800093673    00004977                     000049770000000000000109                     I024977      31011800000000035003410000017N261217104700000000000103101180000000000000000000000000000000000000000100007331881760COSMA MARIA DE MELO - BENTO SE          RUA PULMERANIA LOTE 16 QUADRA 27 (ANTIGAPARQUE MODER25023070DUQUE DE CAXIASRJUNIAO UMB DOS CULTOS AFRO BRAS    31011810 000039
10231987175000168817800093673    00001151                     000011510000000000000109                     I021151      20121700000000340003410000017N241017104700000000000102012170000000000000000000000000000000000000000100093151179720ELIZABETH DA SILVA GOIS                 RUA RAFAEL HAENNY, 2 LOTE 2 QUADRA 4    SEPETIBA - R23535640RIO DE JANEIRO RJUNIAO UMB DOS CULTOS AFRO BRAS    20121710 000040
10231987175000168817800093673    0000909                      000009090000000000000109                     I02909       20121700000000340003410000017N171017104700000000000102012170000000000000000000000000000000000000000100003319281755GENILSON CAETANO DA SILVA               RUA JACO MELOTI, 46                     CORUMBA - NO26041790NOVA IGUACU    RJUNIAO UMB DOS CULTOS AFRO BRAS    20121710 000041
10231987175000168817800093673    0000515                      000005150000000000000109                     I02515       20121700000000340003410000017N101017104700000000000102012170000000000000000000000000000000000000000100098300989749SOLANGE MONTEIRO DA SILVA LAMB          RUA EMILIA AZEVEDO, 67 - MANTIQUIRA     XEREM - DUQU25250460DUQUE DE CAXIASRJUNIAO UMB DOS CULTOS AFRO BRAS    20121710 000042
9                                                                                                                                                                                                                                                                                                                                                                                                         000043
