01REMESSA01COBRANCA       916200163100        União Umb dos Cultos Afro Bra341BANCO ITAU SA  121218                                                                                                                                                                                                                                                                                                      000001
10231987175000168916200163100    000033555                    000335550000000000000109                     I0233555     20121800000000350003410000017N121218104700000000000102012180000000000000000000000000000000000000000100011288949715EDESIO DE OLIVEIRA CASTRO               RUA REPUBLICA DOMINICANA                ITAIPU      24342270NITEROI        RJUNIAO UMB DOS CULTOS AFRO BRAS    20121810 000002
10231987175000168916200163100    000033554                    000335540000000000000109                     I0133554     20121800000000070003410000017N121218104700000000000102012180000000000000000000000000000000000000000100074597035753LUCIMAR DE SOUZA DIAS                   RUA LIGIA MALAGUTI                      BOMBAS DO GU26357000NOVA IGUACU    RJUNIAO UMB DOS CULTOS AFRO BRAS    20121810 000003
10231987175000168916200163100    000033553                    000335530000000000000109                     I0133553     20121800000000350003410000017N111218104700000000000102012180000000000000000000000000000000000000000100001637031750MARISA INEZ ALONSO CARDOSO              ESTRADA DO CAMBOATA                     GUADALUPE   21665001RIO DE JANEIRO RJUNIAO UMB DOS CULTOS AFRO BRAS    20121810 000004
10231987175000168916200163100    000033552                    000335520000000000000109                     I0133552     10011900000000700003410000017N101218104700000000000101001190000000000000000000000000000000000000000100088193160720VALMIR DE OLIVEIRA GOMES                ESTRADA PORTO NACIONAL                  BANGU       21870380RIO DE JANEIRO RJUNIAO UMB DOS CULTOS AFRO BRAS    10011910 000005
10231987175000168916200163100    000033551                    000335510000000000000109                     I0133551     10011900000000350003410000017N101218104700000000000101001190000000000000000000000000000000000000000100050246534753TANIA MARIA DA SILVA OLIVEIRA           TRAVESSA MARAJO                         LINDO PARQUE24420100SAO GONCALO    RJUNIAO UMB DOS CULTOS AFRO BRAS    10011910 000006
10231987175000168916200163100    000033547                    000335470000000000000109                     I0233547     20121800000000350003410000017N061218104700000000000102012180000000000000000000000000000000000000000100012201914770ANA LUISA NUNES AVELINO                 RUA DAS MAGNOLIAS                       SAO JOSE DE 24930488MARICA         RJUNIAO UMB DOS CULTOS AFRO BRAS    20121810 000007
10231987175000168916200163100    000033544                    000335440000000000000109                     I3433544     07121800000000350003410000017N061218104700000000000100712180000000000000000000000000000000000000000100010878187707LUIZ PAULO DA CRUZ TEIXEIRA             RUA DOS CAJUEIROS                       SEPETIBA    23530074RIO DE JANEIRO RJUNIAO UMB DOS CULTOS AFRO BRAS    07121810 000008
10231987175000168916200163100    000033540                    000335400000000000000109                     I0233540     14121800000000350003410000017N051218104700000000000101412180000000000000000000000000000000000000000100011288949715EDESIO DE OLIVEIRA CASTRO               RUA REPUBLICA DOMINICANA                ITAIPU      24342270NITEROI        RJUNIAO UMB DOS CULTOS AFRO BRAS    14121810 000009
9                                                                                                                                                                                                                                                                                                                                                                                                         000010
