01REMESSA01COBRANCA       817800093673        União Umb dos Cultos Afro Bra341BANCO ITAU SA  220119                                                                                                                                                                                                                                                                                                      000001
10231987175000168817800093673    000039638                    000396380000000000000109                     I0139638     31031900000000040003410000017N220119104700000000000103103190000000000000000000000000000000000000000100002203157798CARLOS EDUARDO MOREIRA BENTO            RUA WENCESLAU BRAS                      IMBARIE     25275160DUQUE DE CAXIASRJUNIAO UMB DOS CULTOS AFRO BRAS    31031910 000002
10231987175000168817800093673    000039637                    000396370000000000000109                     I0139637     28021900000000040003410000017N220119104700000000000102802190000000000000000000000000000000000000000100002203157798CARLOS EDUARDO MOREIRA BENTO            RUA WENCESLAU BRAS                      IMBARIE     25275160DUQUE DE CAXIASRJUNIAO UMB DOS CULTOS AFRO BRAS    28021910 000003
10231987175000168817800093673    000039636                    000396360000000000000109                     I0139636     08021900000000040003410000017N220119104700000000000100802190000000000000000000000000000000000000000100002203157798CARLOS EDUARDO MOREIRA BENTO            RUA WENCESLAU BRAS                      IMBARIE     25275160DUQUE DE CAXIASRJUNIAO UMB DOS CULTOS AFRO BRAS    08021910 000004
10231987175000168817800093673    000039635                    000396350000000000000109                     I0139635     31011900000000350003410000017N210119104700000000000103101190000000000000000000000000000000000000000100002480281701CESAR AUGUSTO DA SILVA MARCIAL          RUA, TRES                               MANUELLE    00000000MARICA         RJUNIAO UMB DOS CULTOS AFRO BRAS    31011910 000005
10231987175000168817800093673    000039634                    000396340000000000000109                     I0139634     31031900000000040003410000017N210119104700000000000103103190000000000000000000000000000000000000000100002826493795VALDEA PEREIRA SIQUEIRA                 RUA BORDA DO MATO                       GRAJAU      20561204RIO DE JANEIRO RJUNIAO UMB DOS CULTOS AFRO BRAS    31031910 000006
10231987175000168817800093673    000039633                    000396330000000000000109                     I0139633     28021900000000040003410000017N210119104700000000000102802190000000000000000000000000000000000000000100002826493795VALDEA PEREIRA SIQUEIRA                 RUA BORDA DO MATO                       GRAJAU      20561204RIO DE JANEIRO RJUNIAO UMB DOS CULTOS AFRO BRAS    28021910 000007
10231987175000168817800093673    000039632                    000396320000000000000109                     I0139632     08021900000000040003410000017N210119104700000000000100802190000000000000000000000000000000000000000100002826493795VALDEA PEREIRA SIQUEIRA                 RUA BORDA DO MATO                       GRAJAU      20561204RIO DE JANEIRO RJUNIAO UMB DOS CULTOS AFRO BRAS    08021910 000008
10231987175000168817800093673    000039631                    000396310000000000000109                     I0139631     31031900000000040003410000017N210119104700000000000103103190000000000000000000000000000000000000000100007648724782MARLENE INACIA NUNES DO NASCIM          RUA DOUTOR BERNARDINO TEIXEIRA          EDEN        25545110SAO JOAO DE MERRJUNIAO UMB DOS CULTOS AFRO BRAS    31031910 000009
10231987175000168817800093673    000039630                    000396300000000000000109                     I0139630     28021900000000040003410000017N210119104700000000000102802190000000000000000000000000000000000000000100007648724782MARLENE INACIA NUNES DO NASCIM          RUA DOUTOR BERNARDINO TEIXEIRA          EDEN        25545110SAO JOAO DE MERRJUNIAO UMB DOS CULTOS AFRO BRAS    28021910 000010
10231987175000168817800093673    000039629                    000396290000000000000109                     I0139629     08021900000000040003410000017N210119104700000000000100802190000000000000000000000000000000000000000100007648724782MARLENE INACIA NUNES DO NASCIM          RUA DOUTOR BERNARDINO TEIXEIRA          EDEN        25545110SAO JOAO DE MERRJUNIAO UMB DOS CULTOS AFRO BRAS    08021910 000011
10231987175000168817800093673    000039628                    000396280000000000000109                     I0139628     24011900000000070003410000017N210119104700000000000102401190000000000000000000000000000000000000000100009142845769MICHELE OAZEM MINEIRO                   RUA CARIOCA                             SAO BERNARDO26167210BELFORD ROXO   RJUNIAO UMB DOS CULTOS AFRO BRAS    24011910 000012
10231987175000168817800093673    000039627                    000396270000000000000109                     I0139627     31011900000000070003410000017N210119104700000000000103101190000000000000000000000000000000000000000100066954371734ROBSON MESQUITA                         ESTRADA DO QUAFA                        SANTISSIMO  23098030RIO DE JANEIRO RJUNIAO UMB DOS CULTOS AFRO BRAS    31011910 000013
10231987175000168817800093673    000039626                    000396260000000000000109                     I0139626     05021900000000700003410000017N210119104700000000000100502190000000000000000000000000000000000000000100000582969727MARCIO RIBEIRO                          AVENIDA CORONEL SISSOM                  PARADA ANGEL25266000DUQUE DE CAXIASRJUNIAO UMB DOS CULTOS AFRO BRAS    05021910 000014
10231987175000168817800093673    000039625                    000396250000000000000109                     I0139625     31011900000000400003410000017N210119104700000000000103101190000000000000000000000000000000000000000100059413573700LUIZ ANTONIO CARDOSO ARAUJO             RUA SAMUEL DAS NEVES                    PECHINCHA   22770110RIO DE JANEIRO RJUNIAO UMB DOS CULTOS AFRO BRAS    31011910 000015
10231987175000168817800093673    000039564                    000395640000000000000109                     I0239564     18011900000000400003410000017N140119104700000000000101801190000000000000000000000000000000000000000100059413573700LUIZ ANTONIO CARDOSO ARAUJO             RUA SAMUEL DAS NEVES                    PECHINCHA   22770110RIO DE JANEIRO RJUNIAO UMB DOS CULTOS AFRO BRAS    18011910 000016
10231987175000168817800093673    000039238                    000392380000000000000109                     I0239238     30031900000000040003410000017N261218104700000000000103003190000000000000000000000000000000000000000100012218258790WILIAM ULERICH MARTINS                  RUA ANTONIO AUSTREGESILO                INHAUMA     21061300RIO DE JANEIRO RJUNIAO UMB DOS CULTOS AFRO BRAS    30031910 000017
10231987175000168817800093673    000039080                    000390800000000000000109                     I0239080     30031900000000040003410000017N261218104700000000000103003190000000000000000000000000000000000000000100000000545480IZABEL GONCALVES DA ROCHA               RUA NOSSA SENHORA DA GUIA               VILA DE CAVA26062192NOVA IGUACU    RJUNIAO UMB DOS CULTOS AFRO BRAS    30031910 000018
10231987175000168817800093673    000038989                    000389890000000000000109                     I0238989     30031900000000040003410000017N261218104700000000000103003190000000000000000000000000000000000000000100003248678755CRISTIANO DA SILVA CORREIA              TRAVESSA DAS TORRES                     NAZARENO - P26115733BELFORD ROXO   RJUNIAO UMB DOS CULTOS AFRO BRAS    30031910 000019
10231987175000168817800093673    000038967                    000389670000000000000109                     I0238967     30031900000000040003410000017N261218104700000000000103003190000000000000000000000000000000000000000100015675954724ALDREN LUCAS GOMES FERREIRA             RUA CARIOCA                             PAU GRANDE  25900000MAGE           RJUNIAO UMB DOS CULTOS AFRO BRAS    30031910 000020
10231987175000168817800093673    000038880                    000388800000000000000109                     I0238880     30031900000000040003410000017N261218104700000000000103003190000000000000000000000000000000000000000100095055606720MATILDES VIANA DA COSTA                 RUA FERNANDO QUEIROZ                    COELHO      24460380SAO GONCALO    RJUNIAO UMB DOS CULTOS AFRO BRAS    30031910 000021
10231987175000168817800093673    000038654                    000386540000000000000109                     I0238654     30031900000000040003410000017N261218104700000000000103003190000000000000000000000000000000000000000100002593509740MARIA DA PENHA FERREIRA                 RUA JERICO                              INHOAIBA    23064180RIO DE JANEIRO RJUNIAO UMB DOS CULTOS AFRO BRAS    30031910 000022
10231987175000168817800093673    000038634                    000386340000000000000109                     I0238634     30031900000000040003410000017N261218104700000000000103003190000000000000000000000000000000000000000100011400410703SIDINEA CARVALHO DA LUZ                 RUA GUIMARAES PASSOS                    PORTAO DO RO24476600SAO GONCALO    RJUNIAO UMB DOS CULTOS AFRO BRAS    30031910 000023
10231987175000168817800093673    000038624                    000386240000000000000109                     I0238624     30031900000000040003410000017N261218104700000000000103003190000000000000000000000000000000000000000100077405200710GIOVANE DE SOUZA                        RUA COARACI GENTIL NUNES                GUARATIBA   23032180RIO DE JANEIRO RJUNIAO UMB DOS CULTOS AFRO BRAS    30031910 000024
10231987175000168817800093673    000038598                    000385980000000000000109                     I0238598     30031900000000040003410000017N261218104700000000000103003190000000000000000000000000000000000000000100010839192703ELISANGELA DA CONCEICAO REIS            RUA FELIPE CAMARAO                      RETIRO      25715010PETROPOLIS     RJUNIAO UMB DOS CULTOS AFRO BRAS    30031910 000025
10231987175000168817800093673    000038554                    000385540000000000000109                     I0238554     30031900000000040003410000017N261218104700000000000103003190000000000000000000000000000000000000000100011418927740JORGE MARCOS DE SA FREIRE               RUA RIO ALVA                            PARQUE COMER25041430DUQUE DE CAXIASRJUNIAO UMB DOS CULTOS AFRO BRAS    30031910 000026
10231987175000168817800093673    000038297                    000382970000000000000109                     I0238297     30031900000000040003410000017N261218104700000000000103003190000000000000000000000000000000000000000100002203157798CARLOS EDUARDO MOREIRA BENTO            RUA WENCESLAU BRAS                      IMBARIE     25275160DUQUE DE CAXIASRJUNIAO UMB DOS CULTOS AFRO BRAS    30031910 000027
10231987175000168817800093673    000038285                    000382850000000000000109                     I0238285     30031900000000040003410000017N261218104700000000000103003190000000000000000000000000000000000000000100060921081723GEIZA RODRIGUES GANDRA                  RUA MARTINS JUNIOR                      VAL VERDE   26335320NOVA IGUACU    RJUNIAO UMB DOS CULTOS AFRO BRAS    30031910 000028
10231987175000168817800093673    000038249                    000382490000000000000109                     I0238249     30031900000000040003410000017N261218104700000000000103003190000000000000000000000000000000000000000100001609402731LUCIANO RANGEL                          ESTRADA DOUTOR FARRULA, 52              HELIOPOLIS  26125400BELFORD ROXO   RJUNIAO UMB DOS CULTOS AFRO BRAS    30031910 000029
10231987175000168817800093673    000038233                    000382330000000000000109                     I0238233     30031900000000040003410000017N261218104700000000000103003190000000000000000000000000000000000000000100007332496712ELENICE ROSA DA SILVA                   RUA SEPETIBA                            PADRE JOSE B25565250NOVA IGUACU    RJUNIAO UMB DOS CULTOS AFRO BRAS    30031910 000030
10231987175000168817800093673    000038174                    000381740000000000000109                     I0238174     30031900000000040003410000017N261218104700000000000103003190000000000000000000000000000000000000000100033712417772IRANIR RIBEIRO DE CASTRO                RUA NOVE                                CAMPO GRANDE23067060RIO DE JANEIRO RJUNIAO UMB DOS CULTOS AFRO BRAS    30031910 000031
10231987175000168817800093673    000038151                    000381510000000000000109                     I0238151     30031900000000040003410000017N261218104700000000000103003190000000000000000000000000000000000000000100021207275700GEORGETE MARIA SILVA DE JESUS           RUA BECO DO MIJANCAH                    PRAIA DA BRI23028696PEDRA DE GUARATRJUNIAO UMB DOS CULTOS AFRO BRAS    30031910 000032
10231987175000168817800093673    000037926                    000379260000000000000109                     I0237926     30031900000000040003410000017N261218104700000000000103003190000000000000000000000000000000000000000100073871729787RENATO GOMES SILVA                      RUA JURIPIRANGA                         COSMOS      23060020RIO DE JANEIRO RJUNIAO UMB DOS CULTOS AFRO BRAS    30031910 000033
10231987175000168817800093673    000037923                    000379230000000000000109                     I0237923     30031900000000040003410000017N261218104700000000000103003190000000000000000000000000000000000000000100005363118700VALDECI LIMA DA COSTA                   RUA CRATO                               PENHA CIRCUL21210420RIO DE JANEIRO RJUNIAO UMB DOS CULTOS AFRO BRAS    30031910 000034
10231987175000168817800093673    000037870                    000378700000000000000109                     I0237870     30031900000000040003410000017N261218104700000000000103003190000000000000000000000000000000000000000100003792733747MARCIA REGINA DE SOUZA DA SILV          AVENIDA ALHAMBRA                        BEL CRIMA   23045805CAMPO GRANDE   RJUNIAO UMB DOS CULTOS AFRO BRAS    30031910 000035
10231987175000168817800093673    000037838                    000378380000000000000109                     I0237838     30031900000000050003410000017N261218104700000000000103003190000000000000000000000000000000000000000100006944630788MARCOS AURELIO DO NASCIMENTO B          RUA PEDRO HERNESTO                      ENGENHEIRO P25015290DUQUE DE CAXIASRJUNIAO UMB DOS CULTOS AFRO BRAS    30031910 000036
10231987175000168817800093673    000037764                    000377640000000000000109                     I0237764     30031900000000040003410000017N261218104700000000000103003190000000000000000000000000000000000000000100006957328708ANDRE VALERIO DELGADO GOIS E M          RUA TORRES HOMEM                        JARDIM OLAVO25025380DUQUE DE CAXIASRJUNIAO UMB DOS CULTOS AFRO BRAS    30031910 000037
10231987175000168817800093673    000037723                    000377230000000000000109                     I0237723     30031900000000040003410000017N261218104700000000000103003190000000000000000000000000000000000000000100007648724782MARLENE INACIA NUNES DO NASCIM          RUA DOUTOR BERNARDINO TEIXEIRA          EDEN        25545110SAO JOAO DE MERRJUNIAO UMB DOS CULTOS AFRO BRAS    30031910 000038
10231987175000168817800093673    000037526                    000375260000000000000109                     I0237526     30031900000000040003410000017N261218104700000000000103003190000000000000000000000000000000000000000100000259523747MONICA VALERIA DE JESUS OLIVEI          RUA IANDU                               IRAJA       21220340RIO DE JANEIRO RJUNIAO UMB DOS CULTOS AFRO BRAS    30031910 000039
10231987175000168817800093673    000037465                    000374650000000000000109                     I0237465     30031900000000040003410000017N261218104700000000000103003190000000000000000000000000000000000000000100002826493795VALDEA PEREIRA SIQUEIRA                 RUA BORDA DO MATO                       GRAJAU      20561204RIO DE JANEIRO RJUNIAO UMB DOS CULTOS AFRO BRAS    30031910 000040
10231987175000168817800093673    000037319                    000373190000000000000109                     I0237319     28021900000000040003410000017N261218104700000000000102802190000000000000000000000000000000000000000100012218258790WILIAM ULERICH MARTINS                  RUA ANTONIO AUSTREGESILO                INHAUMA     21061300RIO DE JANEIRO RJUNIAO UMB DOS CULTOS AFRO BRAS    28021910 000041
10231987175000168817800093673    000037161                    000371610000000000000109                     I0237161     28021900000000040003410000017N261218104700000000000102802190000000000000000000000000000000000000000100000000545480IZABEL GONCALVES DA ROCHA               RUA NOSSA SENHORA DA GUIA               VILA DE CAVA26062192NOVA IGUACU    RJUNIAO UMB DOS CULTOS AFRO BRAS    28021910 000042
10231987175000168817800093673    000037070                    000370700000000000000109                     I0237070     28021900000000040003410000017N261218104700000000000102802190000000000000000000000000000000000000000100003248678755CRISTIANO DA SILVA CORREIA              TRAVESSA DAS TORRES                     NAZARENO - P26115733BELFORD ROXO   RJUNIAO UMB DOS CULTOS AFRO BRAS    28021910 000043
10231987175000168817800093673    000037048                    000370480000000000000109                     I0237048     28021900000000040003410000017N261218104700000000000102802190000000000000000000000000000000000000000100015675954724ALDREN LUCAS GOMES FERREIRA             RUA CARIOCA                             PAU GRANDE  25900000MAGE           RJUNIAO UMB DOS CULTOS AFRO BRAS    28021910 000044
10231987175000168817800093673    000036961                    000369610000000000000109                     I0236961     28021900000000040003410000017N261218104700000000000102802190000000000000000000000000000000000000000100095055606720MATILDES VIANA DA COSTA                 RUA FERNANDO QUEIROZ                    COELHO      24460380SAO GONCALO    RJUNIAO UMB DOS CULTOS AFRO BRAS    28021910 000045
10231987175000168817800093673    000036736                    000367360000000000000109                     I0236736     28021900000000040003410000017N261218104700000000000102802190000000000000000000000000000000000000000100002593509740MARIA DA PENHA FERREIRA                 RUA JERICO                              INHOAIBA    23064180RIO DE JANEIRO RJUNIAO UMB DOS CULTOS AFRO BRAS    28021910 000046
10231987175000168817800093673    000036716                    000367160000000000000109                     I0236716     28021900000000040003410000017N261218104700000000000102802190000000000000000000000000000000000000000100011400410703SIDINEA CARVALHO DA LUZ                 RUA GUIMARAES PASSOS                    PORTAO DO RO24476600SAO GONCALO    RJUNIAO UMB DOS CULTOS AFRO BRAS    28021910 000047
10231987175000168817800093673    000036707                    000367070000000000000109                     I0236707     28021900000000040003410000017N261218104700000000000102802190000000000000000000000000000000000000000100077405200710GIOVANE DE SOUZA                        RUA COARACI GENTIL NUNES                GUARATIBA   23032180RIO DE JANEIRO RJUNIAO UMB DOS CULTOS AFRO BRAS    28021910 000048
10231987175000168817800093673    000036681                    000366810000000000000109                     I0236681     28021900000000040003410000017N261218104700000000000102802190000000000000000000000000000000000000000100010839192703ELISANGELA DA CONCEICAO REIS            RUA FELIPE CAMARAO                      RETIRO      25715010PETROPOLIS     RJUNIAO UMB DOS CULTOS AFRO BRAS    28021910 000049
10231987175000168817800093673    000036637                    000366370000000000000109                     I0236637     28021900000000040003410000017N261218104700000000000102802190000000000000000000000000000000000000000100011418927740JORGE MARCOS DE SA FREIRE               RUA RIO ALVA                            PARQUE COMER25041430DUQUE DE CAXIASRJUNIAO UMB DOS CULTOS AFRO BRAS    28021910 000050
10231987175000168817800093673    000036532                    000365320000000000000109                     I0236532     28021900000000040003410000017N261218104700000000000102802190000000000000000000000000000000000000000100011297806786THIAGO PEREIRA DE BRITO                 RUA DAS FLORES                          PENEDO      24800000NITEROI        RJUNIAO UMB DOS CULTOS AFRO BRAS    28021910 000051
10231987175000168817800093673    000036381                    000363810000000000000109                     I0236381     28021900000000040003410000017N261218104700000000000102802190000000000000000000000000000000000000000100002203157798CARLOS EDUARDO MOREIRA BENTO            RUA WENCESLAU BRAS                      IMBARIE     25275160DUQUE DE CAXIASRJUNIAO UMB DOS CULTOS AFRO BRAS    28021910 000052
10231987175000168817800093673    000036369                    000363690000000000000109                     I0236369     28021900000000040003410000017N261218104700000000000102802190000000000000000000000000000000000000000100060921081723GEIZA RODRIGUES GANDRA                  RUA MARTINS JUNIOR                      VAL VERDE   26335320NOVA IGUACU    RJUNIAO UMB DOS CULTOS AFRO BRAS    28021910 000053
10231987175000168817800093673    000036333                    000363330000000000000109                     I0236333     28021900000000040003410000017N261218104700000000000102802190000000000000000000000000000000000000000100001609402731LUCIANO RANGEL                          ESTRADA DOUTOR FARRULA, 52              HELIOPOLIS  26125400BELFORD ROXO   RJUNIAO UMB DOS CULTOS AFRO BRAS    28021910 000054
10231987175000168817800093673    000036317                    000363170000000000000109                     I0236317     28021900000000040003410000017N261218104700000000000102802190000000000000000000000000000000000000000100007332496712ELENICE ROSA DA SILVA                   RUA SEPETIBA                            PADRE JOSE B25565250NOVA IGUACU    RJUNIAO UMB DOS CULTOS AFRO BRAS    28021910 000055
10231987175000168817800093673    000036258                    000362580000000000000109                     I0236258     28021900000000040003410000017N261218104700000000000102802190000000000000000000000000000000000000000100033712417772IRANIR RIBEIRO DE CASTRO                RUA NOVE                                CAMPO GRANDE23067060RIO DE JANEIRO RJUNIAO UMB DOS CULTOS AFRO BRAS    28021910 000056
10231987175000168817800093673    000036235                    000362350000000000000109                     I0236235     28021900000000040003410000017N261218104700000000000102802190000000000000000000000000000000000000000100021207275700GEORGETE MARIA SILVA DE JESUS           RUA BECO DO MIJANCAH                    PRAIA DA BRI23028696PEDRA DE GUARATRJUNIAO UMB DOS CULTOS AFRO BRAS    28021910 000057
10231987175000168817800093673    000036011                    000360110000000000000109                     I0236011     28021900000000040003410000017N261218104700000000000102802190000000000000000000000000000000000000000100073871729787RENATO GOMES SILVA                      RUA JURIPIRANGA                         COSMOS      23060020RIO DE JANEIRO RJUNIAO UMB DOS CULTOS AFRO BRAS    28021910 000058
10231987175000168817800093673    000036008                    000360080000000000000109                     I0236008     28021900000000040003410000017N261218104700000000000102802190000000000000000000000000000000000000000100005363118700VALDECI LIMA DA COSTA                   RUA CRATO                               PENHA CIRCUL21210420RIO DE JANEIRO RJUNIAO UMB DOS CULTOS AFRO BRAS    28021910 000059
10231987175000168817800093673    000035955                    000359550000000000000109                     I0235955     28021900000000040003410000017N261218104700000000000102802190000000000000000000000000000000000000000100003792733747MARCIA REGINA DE SOUZA DA SILV          AVENIDA ALHAMBRA                        BEL CRIMA   23045805CAMPO GRANDE   RJUNIAO UMB DOS CULTOS AFRO BRAS    28021910 000060
10231987175000168817800093673    000035924                    000359240000000000000109                     I0235924     28021900000000050003410000017N261218104700000000000102802190000000000000000000000000000000000000000100006944630788MARCOS AURELIO DO NASCIMENTO B          RUA PEDRO HERNESTO                      ENGENHEIRO P25015290DUQUE DE CAXIASRJUNIAO UMB DOS CULTOS AFRO BRAS    28021910 000061
10231987175000168817800093673    000035850                    000358500000000000000109                     I0235850     28021900000000040003410000017N261218104700000000000102802190000000000000000000000000000000000000000100006957328708ANDRE VALERIO DELGADO GOIS E M          RUA TORRES HOMEM                        JARDIM OLAVO25025380DUQUE DE CAXIASRJUNIAO UMB DOS CULTOS AFRO BRAS    28021910 000062
10231987175000168817800093673    000035810                    000358100000000000000109                     I0235810     28021900000000040003410000017N261218104700000000000102802190000000000000000000000000000000000000000100007648724782MARLENE INACIA NUNES DO NASCIM          RUA DOUTOR BERNARDINO TEIXEIRA          EDEN        25545110SAO JOAO DE MERRJUNIAO UMB DOS CULTOS AFRO BRAS    28021910 000063
10231987175000168817800093673    000035614                    000356140000000000000109                     I0235614     28021900000000040003410000017N261218104700000000000102802190000000000000000000000000000000000000000100000259523747MONICA VALERIA DE JESUS OLIVEI          RUA IANDU                               IRAJA       21220340RIO DE JANEIRO RJUNIAO UMB DOS CULTOS AFRO BRAS    28021910 000064
10231987175000168817800093673    000035553                    000355530000000000000109                     I0235553     28021900000000040003410000017N261218104700000000000102802190000000000000000000000000000000000000000100002826493795VALDEA PEREIRA SIQUEIRA                 RUA BORDA DO MATO                       GRAJAU      20561204RIO DE JANEIRO RJUNIAO UMB DOS CULTOS AFRO BRAS    28021910 000065
10231987175000168817800093673    000035512                    000355120000000000000109                     I0235512     31011900000000040003410000017N261218104700000000000103101190000000000000000000000000000000000000000100050660098768ENI MARIA DA CONCEICAO DE MOUR          RUA IPIRANGA                            BARRO BRANCO25267365DUQUE DE CAXIASRJUNIAO UMB DOS CULTOS AFRO BRAS    31011910 000066
10231987175000168817800093673    000035406                    000354060000000000000109                     I0235406     31011900000000040003410000017N261218104700000000000103101190000000000000000000000000000000000000000100012218258790WILIAM ULERICH MARTINS                  RUA ANTONIO AUSTREGESILO                INHAUMA     21061300RIO DE JANEIRO RJUNIAO UMB DOS CULTOS AFRO BRAS    31011910 000067
10231987175000168817800093673    000035250                    000352500000000000000109                     I0235250     31011900000000040003410000017N261218104700000000000103101190000000000000000000000000000000000000000100000000545480IZABEL GONCALVES DA ROCHA               RUA NOSSA SENHORA DA GUIA               VILA DE CAVA26062192NOVA IGUACU    RJUNIAO UMB DOS CULTOS AFRO BRAS    31011910 000068
10231987175000168817800093673    000035240                    000352400000000000000109                     I0235240     31011900000000040003410000017N261218104700000000000103101190000000000000000000000000000000000000000100003025076712MARIA QUITERIA DOS SANTOS PITA          RUA MISSIONARIO CHRISTIE                QUISSAMA    25615250PETROPOLIS     RJUNIAO UMB DOS CULTOS AFRO BRAS    31011910 000069
10231987175000168817800093673    000035159                    000351590000000000000109                     I0235159     31011900000000040003410000017N261218104700000000000103101190000000000000000000000000000000000000000100003248678755CRISTIANO DA SILVA CORREIA              TRAVESSA DAS TORRES                     NAZARENO - P26115733BELFORD ROXO   RJUNIAO UMB DOS CULTOS AFRO BRAS    31011910 000070
10231987175000168817800093673    000035137                    000351370000000000000109                     I0235137     31011900000000040003410000017N261218104700000000000103101190000000000000000000000000000000000000000100015675954724ALDREN LUCAS GOMES FERREIRA             RUA CARIOCA                             PAU GRANDE  25900000MAGE           RJUNIAO UMB DOS CULTOS AFRO BRAS    31011910 000071
10231987175000168817800093673    000035051                    000350510000000000000109                     I0235051     31011900000000040003410000017N261218104700000000000103101190000000000000000000000000000000000000000100095055606720MATILDES VIANA DA COSTA                 RUA FERNANDO QUEIROZ                    COELHO      24460380SAO GONCALO    RJUNIAO UMB DOS CULTOS AFRO BRAS    31011910 000072
10231987175000168817800093673    000035016                    000350160000000000000109                     I0235016     31011900000000040003410000017N261218104700000000000103101190000000000000000000000000000000000000000100049681192753CARMENCITA DA FONSECA ROCHA             RUA BEGE                                MARAPICU    26295090NOVA IGUACU    RJUNIAO UMB DOS CULTOS AFRO BRAS    31011910 000073
10231987175000168817800093673    000034826                    000348260000000000000109                     I0234826     31011900000000040003410000017N261218104700000000000103101190000000000000000000000000000000000000000100002593509740MARIA DA PENHA FERREIRA                 RUA JERICO                              INHOAIBA    23064180RIO DE JANEIRO RJUNIAO UMB DOS CULTOS AFRO BRAS    31011910 000074
10231987175000168817800093673    000034806                    000348060000000000000109                     I0234806     31011900000000040003410000017N261218104700000000000103101190000000000000000000000000000000000000000100011400410703SIDINEA CARVALHO DA LUZ                 RUA GUIMARAES PASSOS                    PORTAO DO RO24476600SAO GONCALO    RJUNIAO UMB DOS CULTOS AFRO BRAS    31011910 000075
10231987175000168817800093673    000034797                    000347970000000000000109                     I0234797     31011900000000040003410000017N261218104700000000000103101190000000000000000000000000000000000000000100077405200710GIOVANE DE SOUZA                        RUA COARACI GENTIL NUNES                GUARATIBA   23032180RIO DE JANEIRO RJUNIAO UMB DOS CULTOS AFRO BRAS    31011910 000076
10231987175000168817800093673    000034771                    000347710000000000000109                     I0234771     31011900000000040003410000017N261218104700000000000103101190000000000000000000000000000000000000000100010839192703ELISANGELA DA CONCEICAO REIS            RUA FELIPE CAMARAO                      RETIRO      25715010PETROPOLIS     RJUNIAO UMB DOS CULTOS AFRO BRAS    31011910 000077
10231987175000168817800093673    000034727                    000347270000000000000109                     I0234727     31011900000000040003410000017N261218104700000000000103101190000000000000000000000000000000000000000100011418927740JORGE MARCOS DE SA FREIRE               RUA RIO ALVA                            PARQUE COMER25041430DUQUE DE CAXIASRJUNIAO UMB DOS CULTOS AFRO BRAS    31011910 000078
10231987175000168817800093673    000034623                    000346230000000000000109                     I0234623     31011900000000040003410000017N261218104700000000000103101190000000000000000000000000000000000000000100011297806786THIAGO PEREIRA DE BRITO                 RUA DAS FLORES                          PENEDO      24800000NITEROI        RJUNIAO UMB DOS CULTOS AFRO BRAS    31011910 000079
10231987175000168817800093673    000034472                    000344720000000000000109                     I0234472     31011900000000040003410000017N261218104700000000000103101190000000000000000000000000000000000000000100002203157798CARLOS EDUARDO MOREIRA BENTO            RUA WENCESLAU BRAS                      IMBARIE     25275160DUQUE DE CAXIASRJUNIAO UMB DOS CULTOS AFRO BRAS    31011910 000080
10231987175000168817800093673    000034461                    000344610000000000000109                     I0234461     31011900000000040003410000017N261218104700000000000103101190000000000000000000000000000000000000000100060921081723GEIZA RODRIGUES GANDRA                  RUA MARTINS JUNIOR                      VAL VERDE   26335320NOVA IGUACU    RJUNIAO UMB DOS CULTOS AFRO BRAS    31011910 000081
10231987175000168817800093673    000034425                    000344250000000000000109                     I0234425     31011900000000040003410000017N261218104700000000000103101190000000000000000000000000000000000000000100001609402731LUCIANO RANGEL                          ESTRADA DOUTOR FARRULA, 52              HELIOPOLIS  26125400BELFORD ROXO   RJUNIAO UMB DOS CULTOS AFRO BRAS    31011910 000082
10231987175000168817800093673    000034409                    000344090000000000000109                     I0234409     31011900000000040003410000017N261218104700000000000103101190000000000000000000000000000000000000000100007332496712ELENICE ROSA DA SILVA                   RUA SEPETIBA                            PADRE JOSE B25565250NOVA IGUACU    RJUNIAO UMB DOS CULTOS AFRO BRAS    31011910 000083
10231987175000168817800093673    000034350                    000343500000000000000109                     I0234350     31011900000000040003410000017N261218104700000000000103101190000000000000000000000000000000000000000100033712417772IRANIR RIBEIRO DE CASTRO                RUA NOVE                                CAMPO GRANDE23067060RIO DE JANEIRO RJUNIAO UMB DOS CULTOS AFRO BRAS    31011910 000084
10231987175000168817800093673    000034327                    000343270000000000000109                     I0234327     31011900000000040003410000017N261218104700000000000103101190000000000000000000000000000000000000000100021207275700GEORGETE MARIA SILVA DE JESUS           RUA BECO DO MIJANCAH                    PRAIA DA BRI23028696PEDRA DE GUARATRJUNIAO UMB DOS CULTOS AFRO BRAS    31011910 000085
10231987175000168817800093673    000034106                    000341060000000000000109                     I0234106     31011900000000040003410000017N261218104700000000000103101190000000000000000000000000000000000000000100073871729787RENATO GOMES SILVA                      RUA JURIPIRANGA                         COSMOS      23060020RIO DE JANEIRO RJUNIAO UMB DOS CULTOS AFRO BRAS    31011910 000086
10231987175000168817800093673    000034103                    000341030000000000000109                     I0234103     31011900000000040003410000017N261218104700000000000103101190000000000000000000000000000000000000000100005363118700VALDECI LIMA DA COSTA                   RUA CRATO                               PENHA CIRCUL21210420RIO DE JANEIRO RJUNIAO UMB DOS CULTOS AFRO BRAS    31011910 000087
10231987175000168817800093673    000034051                    000340510000000000000109                     I0234051     31011900000000040003410000017N261218104700000000000103101190000000000000000000000000000000000000000100003792733747MARCIA REGINA DE SOUZA DA SILV          AVENIDA ALHAMBRA                        BEL CRIMA   23045805CAMPO GRANDE   RJUNIAO UMB DOS CULTOS AFRO BRAS    31011910 000088
10231987175000168817800093673    000034020                    000340200000000000000109                     I0234020     31011900000000050003410000017N261218104700000000000103101190000000000000000000000000000000000000000100006944630788MARCOS AURELIO DO NASCIMENTO B          RUA PEDRO HERNESTO                      ENGENHEIRO P25015290DUQUE DE CAXIASRJUNIAO UMB DOS CULTOS AFRO BRAS    31011910 000089
10231987175000168817800093673    000033946                    000339460000000000000109                     I0233946     31011900000000040003410000017N261218104700000000000103101190000000000000000000000000000000000000000100006957328708ANDRE VALERIO DELGADO GOIS E M          RUA TORRES HOMEM                        JARDIM OLAVO25025380DUQUE DE CAXIASRJUNIAO UMB DOS CULTOS AFRO BRAS    31011910 000090
10231987175000168817800093673    000033907                    000339070000000000000109                     I0233907     31011900000000040003410000017N261218104700000000000103101190000000000000000000000000000000000000000100007648724782MARLENE INACIA NUNES DO NASCIM          RUA DOUTOR BERNARDINO TEIXEIRA          EDEN        25545110SAO JOAO DE MERRJUNIAO UMB DOS CULTOS AFRO BRAS    31011910 000091
10231987175000168817800093673    000033775                    000337750000000000000109                     I0233775     31011900000000040003410000017N261218104700000000000103101190000000000000000000000000000000000000000100090693043768REJANE VIEIRA GOMES                     RUA TAPIRANGA                           PADRE MIGUEL21775470RIO DE JANEIRO RJUNIAO UMB DOS CULTOS AFRO BRAS    31011910 000092
10231987175000168817800093673    000033763                    000337630000000000000109                     I0233763     31011900000000040003410000017N261218104700000000000103101190000000000000000000000000000000000000000100043082033768LEILA RAMOS DE OLIVEIRA                 RUA CAPIBARIBE                          CABUCU      26346290NOVA IGUACU    RJUNIAO UMB DOS CULTOS AFRO BRAS    31011910 000093
10231987175000168817800093673    000033714                    000337140000000000000109                     I0233714     31011900000000040003410000017N261218104700000000000103101190000000000000000000000000000000000000000100000259523747MONICA VALERIA DE JESUS OLIVEI          RUA IANDU                               IRAJA       21220340RIO DE JANEIRO RJUNIAO UMB DOS CULTOS AFRO BRAS    31011910 000094
10231987175000168817800093673    000033653                    000336530000000000000109                     I0233653     31011900000000040003410000017N261218104700000000000103101190000000000000000000000000000000000000000100002826493795VALDEA PEREIRA SIQUEIRA                 RUA BORDA DO MATO                       GRAJAU      20561204RIO DE JANEIRO RJUNIAO UMB DOS CULTOS AFRO BRAS    31011910 000095
10231987175000168817800093673    000033567                    000335670000000000000109                     I0233567     20121800000000350003410000017N131218104700000000000102012180000000000000000000000000000000000000000100002593509740MARIA DA PENHA FERREIRA                 RUA JERICO                              INHOAIBA    23064180RIO DE JANEIRO RJUNIAO UMB DOS CULTOS AFRO BRAS    20121810 000096
10231987175000168817800093673    000033413                    000334130000000000000109                     I0233413     20121800000000035003410000017N131118104700000000000102012180000000000000000000000000000000000000000100050660098768ENI MARIA DA CONCEICAO DE MOUR          RUA IPIRANGA                            BARRO BRANCO25267365DUQUE DE CAXIASRJUNIAO UMB DOS CULTOS AFRO BRAS    20121810 000097
10231987175000168817800093673    000033412                    000334120000000000000109                     I0233412     20121800000000350003410000017N131118104700000000000102012180000000000000000000000000000000000000000100050660098768ENI MARIA DA CONCEICAO DE MOUR          RUA IPIRANGA                            BARRO BRANCO25267365DUQUE DE CAXIASRJUNIAO UMB DOS CULTOS AFRO BRAS    20121810 000098
10231987175000168817800093673    000033311                    000333110000000000000109                     I0233311     20121800000000380003410000017N291018104700000000000102012180000000000000000000000000000000000000000100009142845769MICHELE OAZEM MINEIRO                   RUA CARIOCA                             SAO BERNARDO26167210BELFORD ROXO   RJUNIAO UMB DOS CULTOS AFRO BRAS    20121810 000099
10231987175000168817800093673    000033211                    000332110000000000000109                     I0233211     20121800000000400003410000017N291018104700000000000102012180000000000000000000000000000000000000000100085737437787NIVALDA PIRES RUFINO                    RUA: MARIO CARPENTER                    ABOLICAO    20755065RIO DE JANEIRO RJUNIAO UMB DOS CULTOS AFRO BRAS    20121810 000100
10231987175000168817800093673    000033025                    000330250000000000000109                     I0233025     20121800000000350003410000017N291018104700000000000102012180000000000000000000000000000000000000000100040664325734GENI BARBOSA ROCHA DA SILVA             TRAVESSA DA AMIZADE                     VILA DA PENH25268020RIO DE JANEIRO RJUNIAO UMB DOS CULTOS AFRO BRAS    20121810 000101
10231987175000168817800093673    000032939                    000329390000000000000109                     I0232939     20121800000000350003410000017N291018104700000000000102012180000000000000000000000000000000000000000100000000545480IZABEL GONCALVES DA ROCHA               RUA NOSSA SENHORA DA GUIA               VILA DE CAVA26062192NOVA IGUACU    RJUNIAO UMB DOS CULTOS AFRO BRAS    20121810 000102
10231987175000168817800093673    000032919                    000329190000000000000109                     I0232919     20121800000000350003410000017N291018104700000000000102012180000000000000000000000000000000000000000100003025076712MARIA QUITERIA DOS SANTOS PITA          RUA MISSIONARIO CHRISTIE                QUISSAMA    25615250PETROPOLIS     RJUNIAO UMB DOS CULTOS AFRO BRAS    20121810 000103
10231987175000168817800093673    000032797                    000327970000000000000109                     I0232797     20121800000000350003410000017N291018104700000000000102012180000000000000000000000000000000000000000100003248678755CRISTIANO DA SILVA CORREIA              TRAVESSA DAS TORRES                     NAZARENO - P26115733BELFORD ROXO   RJUNIAO UMB DOS CULTOS AFRO BRAS    20121810 000104
10231987175000168817800093673    000032768                    000327680000000000000109                     I0232768     20121800000000350003410000017N291018104700000000000102012180000000000000000000000000000000000000000100015675954724ALDREN LUCAS GOMES FERREIRA             RUA CARIOCA                             PAU GRANDE  25900000MAGE           RJUNIAO UMB DOS CULTOS AFRO BRAS    20121810 000105
10231987175000168817800093673    000032641                    000326410000000000000109                     I0232641     20121800000000350003410000017N291018104700000000000102012180000000000000000000000000000000000000000100095055606720MATILDES VIANA DA COSTA                 RUA FERNANDO QUEIROZ                    COELHO      24460380SAO GONCALO    RJUNIAO UMB DOS CULTOS AFRO BRAS    20121810 000106
10231987175000168817800093673    000032594                    000325940000000000000109                     I0232594     20121800000000350003410000017N291018104700000000000102012180000000000000000000000000000000000000000100049681192753CARMENCITA DA FONSECA ROCHA             RUA BEGE                                MARAPICU    26295090NOVA IGUACU    RJUNIAO UMB DOS CULTOS AFRO BRAS    20121810 000107
10231987175000168817800093673    000032280                    000322800000000000000109                     I0232280     20121800000000400003410000017N291018104700000000000102012180000000000000000000000000000000000000000100011400410703SIDINEA CARVALHO DA LUZ                 RUA GUIMARAES PASSOS                    PORTAO DO RO24476600SAO GONCALO    RJUNIAO UMB DOS CULTOS AFRO BRAS    20121810 000108
10231987175000168817800093673    000032263                    000322630000000000000109                     I0232263     20121800000000350003410000017N291018104700000000000102012180000000000000000000000000000000000000000100077405200710GIOVANE DE SOUZA                        RUA COARACI GENTIL NUNES                GUARATIBA   23032180RIO DE JANEIRO RJUNIAO UMB DOS CULTOS AFRO BRAS    20121810 000109
10231987175000168817800093673    000032228                    000322280000000000000109                     I0232228     20121800000000350003410000017N291018104700000000000102012180000000000000000000000000000000000000000100010839192703ELISANGELA DA CONCEICAO REIS            RUA FELIPE CAMARAO                      RETIRO      25715010PETROPOLIS     RJUNIAO UMB DOS CULTOS AFRO BRAS    20121810 000110
10231987175000168817800093673    000032203                    000322030000000000000109                     I0132203     31011900000000350003410000017N291018104700000000000103101190000000000000000000000000000000000000000100021953759734MANUEL PEREIRA                          AVENIDA AMARO CAVALCANTI                ENGENHO DE D20735042RIO DE JANEIRO RJUNIAO UMB DOS CULTOS AFRO BRAS    31011910 000111
10231987175000168817800093673    000032157                    000321570000000000000109                     I0232157     20121800000000350003410000017N291018104700000000000102012180000000000000000000000000000000000000000100011418927740JORGE MARCOS DE SA FREIRE               RUA RIO ALVA                            PARQUE COMER25041430DUQUE DE CAXIASRJUNIAO UMB DOS CULTOS AFRO BRAS    20121810 000112
10231987175000168817800093673    000032010                    000320100000000000000109                     I0232010     20121800000000350003410000017N291018104700000000000102012180000000000000000000000000000000000000000100011297806786THIAGO PEREIRA DE BRITO                 RUA DAS FLORES                          PENEDO      24800000NITEROI        RJUNIAO UMB DOS CULTOS AFRO BRAS    20121810 000113
10231987175000168817800093673    000031884                    000318840000000000000109                     I0231884     20121800000000350003410000017N291018104700000000000102012180000000000000000000000000000000000000000100001057692743ANDRE LUIZ PEDROZA VARELLA              RUA: DOIS DE FEVEREIRO                  ENCANTADO   20730452RIO DE JANEIRO RJUNIAO UMB DOS CULTOS AFRO BRAS    20121810 000114
10231987175000168817800093673    000031841                    000318410000000000000109                     I0231841     20121800000000350003410000017N291018104700000000000102012180000000000000000000000000000000000000000100005209152758LAZARO OLIVEIRA DE ARAUJO               RUA MULULO DA VEIGA                     NEVES       24425460SAO GONCALO    RJUNIAO UMB DOS CULTOS AFRO BRAS    20121810 000115
10231987175000168817800093673    000031770                    000317700000000000000109                     I0231770     20121800000000350003410000017N291018104700000000000102012180000000000000000000000000000000000000000100060921081723GEIZA RODRIGUES GANDRA                  RUA MARTINS JUNIOR                      VAL VERDE   26335320NOVA IGUACU    RJUNIAO UMB DOS CULTOS AFRO BRAS    20121810 000116
10231987175000168817800093673    000031758                    000317580000000000000109                     I0231758     20121800000000350003410000017N291018104700000000000102012180000000000000000000000000000000000000000100085258610730CRISTINA ROSA DE JESUS BASILIO          RUA DOIS DE JULHO                       CABUCU      00000000MESQUITA       RJUNIAO UMB DOS CULTOS AFRO BRAS    20121810 000117
10231987175000168817800093673    000031710                    000317100000000000000109                     I0231710     20121800000000350003410000017N291018104700000000000102012180000000000000000000000000000000000000000100001609402731LUCIANO RANGEL                          ESTRADA DOUTOR FARRULA, 52              HELIOPOLIS  26125400BELFORD ROXO   RJUNIAO UMB DOS CULTOS AFRO BRAS    20121810 000118
10231987175000168817800093673    000031685                    000316850000000000000109                     I0231685     20121800000000350003410000017N291018104700000000000102012180000000000000000000000000000000000000000100007332496712ELENICE ROSA DA SILVA                   RUA SEPETIBA                            PADRE JOSE B25565250NOVA IGUACU    RJUNIAO UMB DOS CULTOS AFRO BRAS    20121810 000119
10231987175000168817800093673    000031604                    000316040000000000000109                     I0231604     20121800000000350003410000017N291018104700000000000102012180000000000000000000000000000000000000000100033712417772IRANIR RIBEIRO DE CASTRO                RUA NOVE                                CAMPO GRANDE23067060RIO DE JANEIRO RJUNIAO UMB DOS CULTOS AFRO BRAS    20121810 000120
10231987175000168817800093673    000031573                    000315730000000000000109                     I0231573     20121800000000350003410000017N291018104700000000000102012180000000000000000000000000000000000000000100021207275700GEORGETE MARIA SILVA DE JESUS           RUA BECO DO MIJANCAH                    PRAIA DA BRI23028696PEDRA DE GUARATRJUNIAO UMB DOS CULTOS AFRO BRAS    20121810 000121
10231987175000168817800093673    000031522                    000315220000000000000109                     I0231522     20121800000000350003410000017N291018104700000000000102012180000000000000000000000000000000000000000100002480281701CESAR AUGUSTO DA SILVA MARCIAL          RUA, TRES                               MANUELLE    00000000MARICA         RJUNIAO UMB DOS CULTOS AFRO BRAS    20121810 000122
10231987175000168817800093673    000031332                    000313320000000000000109                     I0131332     11021900000000360003410000017N291018104700000000000101102190000000000000000000000000000000000000000100075531585772ROSANGELA PAULINA RODRIGUES             ESTRADA DA GUARITA                      CARMARI     26040010NOVA IGUACU    RJUNIAO UMB DOS CULTOS AFRO BRAS    11021910 000123
10231987175000168817800093673    000031197                    000311970000000000000109                     I0231197     20121800000000350003410000017N291018104700000000000102012180000000000000000000000000000000000000000100005363118700VALDECI LIMA DA COSTA                   RUA CRATO                               PENHA CIRCUL21210420RIO DE JANEIRO RJUNIAO UMB DOS CULTOS AFRO BRAS    20121810 000124
10231987175000168817800093673    000031102                    000311020000000000000109                     I0231102     20121800000000350003410000017N291018104700000000000102012180000000000000000000000000000000000000000100003792733747MARCIA REGINA DE SOUZA DA SILV          AVENIDA ALHAMBRA                        BEL CRIMA   23045805CAMPO GRANDE   RJUNIAO UMB DOS CULTOS AFRO BRAS    20121810 000125
10231987175000168817800093673    000031065                    000310650000000000000109                     I0231065     20121800000000350003410000017N291018104700000000000102012180000000000000000000000000000000000000000100005689170739KATIA CILENE MACEDO DOS SANTOS          RUA EUCLIDES ROXO                       REALENGO    21765590RIO DE JANEIRO RJUNIAO UMB DOS CULTOS AFRO BRAS    20121810 000126
10231987175000168817800093673    000031047                    000310470000000000000109                     I0231047     20121800000000350003410000017N291018104700000000000102012180000000000000000000000000000000000000000100006944630788MARCOS AURELIO DO NASCIMENTO B          RUA PEDRO HERNESTO                      ENGENHEIRO P25015290DUQUE DE CAXIASRJUNIAO UMB DOS CULTOS AFRO BRAS    20121810 000127
10231987175000168817800093673    000030639                    000306390000000000000109                     I0230639     20121800000000350003410000017N291018104700000000000102012180000000000000000000000000000000000000000100090693043768REJANE VIEIRA GOMES                     RUA TAPIRANGA                           PADRE MIGUEL21775470RIO DE JANEIRO RJUNIAO UMB DOS CULTOS AFRO BRAS    20121810 000128
10231987175000168817800093673    000030625                    000306250000000000000109                     I0230625     20121800000000350003410000017N291018104700000000000102012180000000000000000000000000000000000000000100043082033768LEILA RAMOS DE OLIVEIRA                 RUA CAPIBARIBE                          CABUCU      26346290NOVA IGUACU    RJUNIAO UMB DOS CULTOS AFRO BRAS    20121810 000129
10231987175000168817800093673    000030543                    000305430000000000000109                     I0230543     20121800000000350003410000017N291018104700000000000102012180000000000000000000000000000000000000000100000259523747MONICA VALERIA DE JESUS OLIVEI          RUA IANDU                               IRAJA       21220340RIO DE JANEIRO RJUNIAO UMB DOS CULTOS AFRO BRAS    20121810 000130
10231987175000168817800093673    000030405                    000304050000000000000109                     I0230405     20121800000000040003410000017N291018104700000000000102012180000000000000000000000000000000000000000100009142845769MICHELE OAZEM MINEIRO                   RUA CARIOCA                             SAO BERNARDO26167210BELFORD ROXO   RJUNIAO UMB DOS CULTOS AFRO BRAS    20121810 000131
10231987175000168817800093673    000030185                    000301850000000000000109                     I0230185     20121800000000035003410000017N291018104700000000000102012180000000000000000000000000000000000000000100040664325734GENI BARBOSA ROCHA DA SILVA             TRAVESSA DA AMIZADE                     VILA DA PENH25268020RIO DE JANEIRO RJUNIAO UMB DOS CULTOS AFRO BRAS    20121810 000132
10231987175000168817800093673    000029673                    000296730000000000000109                     I0229673     20121800000000035003410000017N291018104700000000000102012180000000000000000000000000000000000000000100011297806786THIAGO PEREIRA DE BRITO                 RUA DAS FLORES                          PENEDO      24800000NITEROI        RJUNIAO UMB DOS CULTOS AFRO BRAS    20121810 000133
10231987175000168817800093673    000029553                    000295530000000000000109                     I0229553     20121800000000035003410000017N291018104700000000000102012180000000000000000000000000000000000000000100085258610730CRISTINA ROSA DE JESUS BASILIO          RUA DOIS DE JULHO                       CABUCU      00000000MESQUITA       RJUNIAO UMB DOS CULTOS AFRO BRAS    20121810 000134
10231987175000168817800093673    000029528                    000295280000000000000109                     I0229528     20121800000000035003410000017N291018104700000000000102012180000000000000000000000000000000000000000100007332496712ELENICE ROSA DA SILVA                   RUA SEPETIBA                            PADRE JOSE B25565250NOVA IGUACU    RJUNIAO UMB DOS CULTOS AFRO BRAS    20121810 000135
10231987175000168817800093673    000029475                    000294750000000000000109                     I0229475     20121800000000035003410000017N291018104700000000000102012180000000000000000000000000000000000000000100021207275700GEORGETE MARIA SILVA DE JESUS           RUA BECO DO MIJANCAH                    PRAIA DA BRI23028696PEDRA DE GUARATRJUNIAO UMB DOS CULTOS AFRO BRAS    20121810 000136
10231987175000168817800093673    000029004                    000290040000000000000109                     I0229004     26121800000000040003410000017N261018104700000000000102612180000000000000000000000000000000000000000100009142845769MICHELE OAZEM MINEIRO                   RUA CARIOCA                             SAO BERNARDO26167210BELFORD ROXO   RJUNIAO UMB DOS CULTOS AFRO BRAS    26121810 000137
10231987175000168817800093673    000028938                    000289380000000000000109                     I0228938     10121800000000400003410000017N131018104700000000000101012180000000000000000000000000000000000000000100005412696740MONICA MIRALHA MESSINA                  RUA JOAQUIM NORBERTO                    CAVALCANTI  21370350RIO DE JANEIRO RJUNIAO UMB DOS CULTOS AFRO BRAS    10121810 000138
10231987175000168817800093673    000028301                    000283010000000000000109                     I0228301     30111800000000035003410000017N200818104700000000000103011180000000000000000000000000000000000000000100040664325734GENI BARBOSA ROCHA DA SILVA             TRAVESSA DA AMIZADE                     VILA DA PENH25268020RIO DE JANEIRO RJUNIAO UMB DOS CULTOS AFRO BRAS    30111810 000139
10231987175000168817800093673    000027748                    000277480000000000000109                     I0227748     30111800000000035003410000017N200818104700000000000103011180000000000000000000000000000000000000000100011297806786THIAGO PEREIRA DE BRITO                 RUA DAS FLORES                          PENEDO      24800000NITEROI        RJUNIAO UMB DOS CULTOS AFRO BRAS    30111810 000140
10231987175000168817800093673    000027629                    000276290000000000000109                     I0227629     30111800000000035003410000017N200818104700000000000103011180000000000000000000000000000000000000000100085258610730CRISTINA ROSA DE JESUS BASILIO          RUA DOIS DE JULHO                       CABUCU      00000000MESQUITA       RJUNIAO UMB DOS CULTOS AFRO BRAS    30111810 000141
10231987175000168817800093673    000027602                    000276020000000000000109                     I0227602     30111800000000035003410000017N200818104700000000000103011180000000000000000000000000000000000000000100007332496712ELENICE ROSA DA SILVA                   RUA SEPETIBA                            PADRE JOSE B25565250NOVA IGUACU    RJUNIAO UMB DOS CULTOS AFRO BRAS    30111810 000142
10231987175000168817800093673    000027549                    000275490000000000000109                     I0227549     30111800000000035003410000017N200818104700000000000103011180000000000000000000000000000000000000000100021207275700GEORGETE MARIA SILVA DE JESUS           RUA BECO DO MIJANCAH                    PRAIA DA BRI23028696PEDRA DE GUARATRJUNIAO UMB DOS CULTOS AFRO BRAS    30111810 000143
9                                                                                                                                                                                                                                                                                                                                                                                                         000144
