01REMESSA01COBRANCA       916200163100        União Umb dos Cultos Afro Bra341BANCO ITAU SA  100419                                                                                                                                                                                                                                                                                                      000001
10231987175000168916200163100    000045037                    000450370000000000000109                     I0145037     18041900000000120003410000017N100419104700000000000101804190000000000000000000000000000000000000000100013180490756DIEGO CAVALCANTI DA SILVA               RUA CONDE DE RESENDEN 127,              BENTO RIBEIR21550600RIO DE JANEIRO RJUNIAO UMB DOS CULTOS AFRO BRAS    18041910 000002
10231987175000168916200163100    000045036                    000450360000000000000109                     I0145036     30061900000000040003410000017N100419104700000000000103006190000000000000000000000000000000000000000100091401127720ANA CLAUDIA PESSOA                      RUA JOSE RAMALHON 14,                   MUTUAPIRA   24455235SAO GONCALO    RJUNIAO UMB DOS CULTOS AFRO BRAS    30061910 000003
10231987175000168916200163100    000045035                    000450350000000000000109                     I0145035     30051900000000040003410000017N100419104700000000000103005190000000000000000000000000000000000000000100091401127720ANA CLAUDIA PESSOA                      RUA JOSE RAMALHON 14,                   MUTUAPIRA   24455235SAO GONCALO    RJUNIAO UMB DOS CULTOS AFRO BRAS    30051910 000004
10231987175000168916200163100    000045034                    000450340000000000000109                     I0145034     22041900000000080003410000017N100419104700000000000102204190000000000000000000000000000000000000000100064431002715SERGIO MURILO ALVES PEREIRA             RUA ROCHA N 0, LOTE 4 QUADRA 4 CASA 2   JARDIM BONIF25565161SAO JOAO DE MERRJUNIAO UMB DOS CULTOS AFRO BRAS    22041910 000005
10231987175000168916200163100    000045033                    000450330000000000000109                     I0145033     30041900000000080003410000017N100419104700000000000103004190000000000000000000000000000000000000000100013222358729AMANDA PAULA TORRES DE SOUZA            RUA JOAO VICENTEN 261,                  MADUREIRA   21340020RIO DE JANEIRO RJUNIAO UMB DOS CULTOS AFRO BRAS    30041910 000006
10231987175000168916200163100    000045032                    000450320000000000000109                     I0145032     30061900000000200003410000017N100419104700000000000103006190000000000000000000000000000000000000000100000916700712MARIA MARGARIDA SOARES DOS SAN          RUA ANTONION 38, A                      COELHO DA RO25550100SAO JOAO DE MERRJUNIAO UMB DOS CULTOS AFRO BRAS    30061910 000007
10231987175000168916200163100    000045031                    000450310000000000000109                     I0145031     30041900000000200003410000017N100419104700000000000103004190000000000000000000000000000000000000000100000916700712MARIA MARGARIDA SOARES DOS SAN          RUA ANTONION 38, A                      COELHO DA RO25550100SAO JOAO DE MERRJUNIAO UMB DOS CULTOS AFRO BRAS    30041910 000008
10231987175000168916200163100    000045030                    000450300000000000000109                     I0245030     12041900000000040003410000017N090419104700000000000101204190000000000000000000000000000000000000000100092952364753ROSANGELA SILVA SOUZA                   RUA TAMOIOSN 144, FUNDOS                CENTRO      26520250NILOPOLIS      RJUNIAO UMB DOS CULTOS AFRO BRAS    12041910 000009
10231987175000168916200163100    000045029                    000450290000000000000109                     I0245029     22041900000000080003410000017N090419104700000000000102204190000000000000000000000000000000000000000100013222358729AMANDA PAULA TORRES DE SOUZA            RUA JOAO VICENTEN 261,                  MADUREIRA   21340020RIO DE JANEIRO RJUNIAO UMB DOS CULTOS AFRO BRAS    22041910 000010
10231987175000168916200163100    000043830                    000438300000000000000109                     I0243830     30061900000000040003410000017N130319104700000000000103006190000000000000000000000000000000000000000100021973989700NILZA ARAGUEZ                           RUA PAJURAN 117, BLOCO 2 APTO 106       TAQUARA     22740210RIO DE JANEIRO RJUNIAO UMB DOS CULTOS AFRO BRAS    30061910 000011
10231987175000168916200163100    000043378                    000433780000000000000109                     I0243378     30061900000000040003410000017N130319104700000000000103006190000000000000000000000000000000000000000100000916700712MARIA MARGARIDA SOARES DOS SAN          RUA ANTONION 38, A                      COELHO DA RO25550100SAO JOAO DE MERRJUNIAO UMB DOS CULTOS AFRO BRAS    30061910 000012
10231987175000168916200163100    000042185                    000421850000000000000109                     I0242185     30051900000000040003410000017N130319104700000000000103005190000000000000000000000000000000000000000100021973989700NILZA ARAGUEZ                           RUA PAJURAN 117, BLOCO 2 APTO 106       TAQUARA     22740210RIO DE JANEIRO RJUNIAO UMB DOS CULTOS AFRO BRAS    30051910 000013
10231987175000168916200163100    000041736                    000417360000000000000109                     I0241736     30051900000000040003410000017N130319104700000000000103005190000000000000000000000000000000000000000100000916700712MARIA MARGARIDA SOARES DOS SAN          RUA ANTONION 38, A                      COELHO DA RO25550100SAO JOAO DE MERRJUNIAO UMB DOS CULTOS AFRO BRAS    30051910 000014
10231987175000168916200163100    000040550                    000405500000000000000109                     I0240550     30041900000000040003410000017N120319104700000000000103004190000000000000000000000000000000000000000100021973989700NILZA ARAGUEZ                           RUA PAJURAN 117, BLOCO 2 APTO 106       TAQUARA     22740210RIO DE JANEIRO RJUNIAO UMB DOS CULTOS AFRO BRAS    30041910 000015
10231987175000168916200163100    000040104                    000401040000000000000109                     I0240104     30041900000000040003410000017N120319104700000000000103004190000000000000000000000000000000000000000100000916700712MARIA MARGARIDA SOARES DOS SAN          RUA ANTONION 38, A                      COELHO DA RO25550100SAO JOAO DE MERRJUNIAO UMB DOS CULTOS AFRO BRAS    30041910 000016
10231987175000168916200163100    000039810                    000398100000000000000109                     I0239810     30031900000000040003410000017N190219104700000000000103003190000000000000000000000000000000000000000100092952364753ROSANGELA SILVA SOUZA                   RUA TAMOIOSN 144, FUNDOS                CENTRO      26520250NILOPOLIS      RJUNIAO UMB DOS CULTOS AFRO BRAS    30031910 000017
9                                                                                                                                                                                                                                                                                                                                                                                                         000018
