01REMESSA01COBRANCA       817800093673        União Umb dos Cultos Afro Bra341BANCO ITAU SA  110619                                                                                                                                                                                                                                                                                                      000001
10231987175000168817800093673    000045686                    000456860000000000000109                     I0145686     30071900000000040003410000017N100619105700000000000133007190000000000000000000000000000000000000000100025969153753MARIA EUNICE FRUCTUOSO MIGUEL           RUA VIRGEM PEREGRINAN 81,               PIEDADE     21381070RIO DE JANEIRO RJUNIAO UMB DOS CULTOS AFRO BRAS    30071915 000002
21300720190000000000080                                                                                                                                                                                                                                                                                                                                                                                   000003
10231987175000168817800093673    000045685                    000456850000000000000109                     I0145685     30071900000000025003410000017N100619105700000000000803007190000000000000000000000000000000000000000100052329160763NENI GOMES DE ALMEIDA                   RUA MARIA SANTANA FERNANDESN 0, LOTE 8 QJARDINS     23890052SEROPEDICA     RJUNIAO UMB DOS CULTOS AFRO BRAS    30071915 000004
21300720190000000000050                                                                                                                                                                                                                                                                                                                                                                                   000005
10231987175000168817800093673    000045684                    000456840000000000000109                     I0145684     30071900000000040003410000017N100619105700000000000133007190000000000000000000000000000000000000000100054590604787VANDA PAIVA                             RUA LUIZ JACINTON 0, LOTE 3             EDEN        25535161SAO JOAO DE MERRJUNIAO UMB DOS CULTOS AFRO BRAS    30071915 000006
21300720190000000000080                                                                                                                                                                                                                                                                                                                                                                                   000007
10231987175000168817800093673    000045683                    000456830000000000000109                     I0145683     30071900000000040003410000017N100619105700000000000133007190000000000000000000000000000000000000000100059099747772EULINA LUCIA RODRIGUES DE SOUZ          RUA XAVIER DOS PASSAROS N 18, FUNDOS    PIEDADE     20740330RIO DE JANEIRO RJUNIAO UMB DOS CULTOS AFRO BRAS    30071915 000008
21300720190000000000080                                                                                                                                                                                                                                                                                                                                                                                   000009
10231987175000168817800093673    000045682                    000456820000000000000109                     I0145682     30071900000000040003410000017N100619105700000000000133007190000000000000000000000000000000000000000100009116311787ETELVINA SOUZA DUARTE                   RUA CAIABUN 137,  APTO 403              IRAJA       21361230RIO DE JANEIRO RJUNIAO UMB DOS CULTOS AFRO BRAS    30071915 000010
21300720190000000000080                                                                                                                                                                                                                                                                                                                                                                                   000011
10231987175000168817800093673    000045681                    000456810000000000000109                     I0145681     30071900000000040003410000017N100619105700000000000133007190000000000000000000000000000000000000000100009839961721MARIO DE OLIVEIRA CARLOS                RUA BRAUNAN 0,  LOTE 7 QUADRA 3         JARDIM PRIMA25000000DUQUE DE CAXIASRJUNIAO UMB DOS CULTOS AFRO BRAS    30071915 000012
21300720190000000000080                                                                                                                                                                                                                                                                                                                                                                                   000013
10231987175000168817800093673    000045680                    000456800000000000000109                     I0145680     30071900000000040003410000017N100619105700000000000133007190000000000000000000000000000000000000000100039341887704NORMA AYRES DA SILVA                    RUA VALENCA N 245,                      BAR DOS CAVA25015590DUQUE DE CAXIASRJUNIAO UMB DOS CULTOS AFRO BRAS    30071915 000014
21300720190000000000080                                                                                                                                                                                                                                                                                                                                                                                   000015
10231987175000168817800093673    000045679                    000456790000000000000109                     I0145679     30071900000000040003410000017N100619105700000000000133007190000000000000000000000000000000000000000100011208480758MARIA ANTONIA KIFFER CORREA             AVENIDA MARECHAL HERMESN 1060,          VILA SAO LUI25065115DUQUE DE CAXIASRJUNIAO UMB DOS CULTOS AFRO BRAS    30071915 000016
21300720190000000000080                                                                                                                                                                                                                                                                                                                                                                                   000017
10231987175000168817800093673    000045678                    000456780000000000000109                     I0145678     30071900000000040003410000017N100619105700000000000133007190000000000000000000000000000000000000000100064250121704ANGELA MARIA BRAZ MANHAES               RUA JUTAIN 0,  LOTE 20 QUADRA 151       PERIQUITO   25025290DUQUE DE CAXIASRJUNIAO UMB DOS CULTOS AFRO BRAS    30071915 000018
21300720190000000000080                                                                                                                                                                                                                                                                                                                                                                                   000019
10231987175000168817800093673    000045677                    000456770000000000000109                     I0145677     30071900000000040003410000017N100619105700000000000133007190000000000000000000000000000000000000000100088469212753NEIDE CARVALHO D ANGELO                 RUA GENERAL TAUMATURGON 0, LOTE 17 QUADRVILA ROSARIO25040010DUQUE DE CAXIASRJUNIAO UMB DOS CULTOS AFRO BRAS    30071915 000020
21300720190000000000080                                                                                                                                                                                                                                                                                                                                                                                   000021
10231987175000168817800093673    000045676                    000456760000000000000109                     I0145676     30071900000000040003410000017N100619105700000000000133007190000000000000000000000000000000000000000100070030928753VIRGILANE COSTA DE SOUZA                RUA GAMO N 611,                         GUARANI     25575380SAO JOAO DE MERRJUNIAO UMB DOS CULTOS AFRO BRAS    30071915 000022
21300720190000000000080                                                                                                                                                                                                                                                                                                                                                                                   000023
10231987175000168817800093673    000045675                    000456750000000000000109                     I0145675     30071900000000040003410000017N100619105700000000000133007190000000000000000000000000000000000000000100059414731768LUCILA JESUS DE OLIVEIRA                ESTRADA CIRCULARN 215,  CASA 44 LG 2    SAO VICENTE 26172100BELFORD ROXO   RJUNIAO UMB DOS CULTOS AFRO BRAS    30071915 000024
21300720190000000000080                                                                                                                                                                                                                                                                                                                                                                                   000025
10231987175000168817800093673    000045674                    000456740000000000000109                     I0145674     30071900000000040003410000017N100619105700000000000133007190000000000000000000000000000000000000000100000080766773SONIA CRISTINA DA SILVA ALVES           ESTRADA DOS TRES RIOSN 2591,            FREGUESIA (J22745004RIO DE JANEIRO RJUNIAO UMB DOS CULTOS AFRO BRAS    30071915 000026
21300720190000000000080                                                                                                                                                                                                                                                                                                                                                                                   000027
10231987175000168817800093673    000045673                    000456730000000000000109                     I0145673     30071900000000040003410000017N100619105700000000000133007190000000000000000000000000000000000000000100001637090765DEBORA VENTURA CESAR                    RUA DOS CONGREGADOS N 105, CASA 2       HELIOPOLIS  26123020RIO DE JANEIRO RJUNIAO UMB DOS CULTOS AFRO BRAS    30071915 000028
21300720190000000000080                                                                                                                                                                                                                                                                                                                                                                                   000029
10231987175000168817800093673    000045672                    000456720000000000000109                     I0145672     30071900000000040003410000017N100619105700000000000133007190000000000000000000000000000000000000000100004418873767SANDRA REGINA DA SILVA                  AVENIDA PERNAMBUCANAN 2282, A           COELHO DA RO25555080SAO JOAO DE MERRJUNIAO UMB DOS CULTOS AFRO BRAS    30071915 000030
21300720190000000000080                                                                                                                                                                                                                                                                                                                                                                                   000031
10231987175000168817800093673    000045671                    000456710000000000000109                     I0145671     30071900000000040003410000017N100619105700000000000133007190000000000000000000000000000000000000000100080331025787DOMINGAS REIS DE SOUZA                  RUA ARAGUAIAN 211,                      VILA SARAPUI25050300DUQUE DE CAXIASRJUNIAO UMB DOS CULTOS AFRO BRAS    30071915 000032
21300720190000000000080                                                                                                                                                                                                                                                                                                                                                                                   000033
10231987175000168817800093673    000045670                    000456700000000000000109                     I0145670     30071900000000040003410000017N100619105700000000000133007190000000000000000000000000000000000000000100001925108783HELENA MOREIRA PESSOA                   ESTRADA CAPIVARAN 0, LOTE 639 QUADRA 48 VILA SANTA C25260180DUQUE DE CAXIASRJUNIAO UMB DOS CULTOS AFRO BRAS    30071915 000034
21300720190000000000080                                                                                                                                                                                                                                                                                                                                                                                   000035
10231987175000168817800093673    000045669                    000456690000000000000109                     I0145669     30071900000000040003410000017N100619105700000000000133007190000000000000000000000000000000000000000100003756140792LUIZ HENRIQUE DINIZ SIMOES              RUA BUCARESTEN 833,                     VIGARIO GERA21241250RIO DE JANEIRO RJUNIAO UMB DOS CULTOS AFRO BRAS    30071915 000036
21300720190000000000080                                                                                                                                                                                                                                                                                                                                                                                   000037
10231987175000168817800093673    000045668                    000456680000000000000109                     I0145668     30071900000000040003410000017N100619105700000000000133007190000000000000000000000000000000000000000100044845251787REGINA CELIA ALMEIDA BASTOS             RUA NELSON PAIXAON 103,                 PAVUNA      21532360RIO DE JANEIRO RJUNIAO UMB DOS CULTOS AFRO BRAS    30071915 000038
21300720190000000000080                                                                                                                                                                                                                                                                                                                                                                                   000039
10231987175000168817800093673    000045667                    000456670000000000000109                     I0145667     30071900000000040003410000017N100619105700000000000133007190000000000000000000000000000000000000000100001095203789VITOR HUGO FERNANDES DE ABREU           RUA DOS DIAMANTESN 1048,                ROCHA MIRAND21510005RIO DE JANEIRO RJUNIAO UMB DOS CULTOS AFRO BRAS    30071915 000040
21300720190000000000080                                                                                                                                                                                                                                                                                                                                                                                   000041
10231987175000168817800093673    000045666                    000456660000000000000109                     I0145666     30071900000000040003410000017N100619105700000000000133007190000000000000000000000000000000000000000100007782014735TEREZINHA MARIA DOS SANTOS FER          RUA UM N 0, LOTE 14 QUADRA 83           PARQUE PAULI25525260DUQUE DE CAXIASRJUNIAO UMB DOS CULTOS AFRO BRAS    30071915 000042
21300720190000000000080                                                                                                                                                                                                                                                                                                                                                                                   000043
10231987175000168817800093673    000045665                    000456650000000000000109                     I0145665     30071900000000040003410000017N100619105700000000000133007190000000000000000000000000000000000000000100018780962572INALVA LAZARO DRUMOND                   AVENIDA MARECHAL RONDONN 2117,          SAMPAIO     20950071RIO DE JANEIRO RJUNIAO UMB DOS CULTOS AFRO BRAS    30071915 000044
21300720190000000000080                                                                                                                                                                                                                                                                                                                                                                                   000045
10231987175000168817800093673    000045664                    000456640000000000000109                     I0145664     30071900000000040003410000017N100619105700000000000133007190000000000000000000000000000000000000000100001783778806MARIA LUIZA FERREIRA GODINHO C          ESTRADA DO BOIUNA N 2620,               TAQUARA - JA22723018RIO DE JANEIRO RJUNIAO UMB DOS CULTOS AFRO BRAS    30071915 000046
21300720190000000000080                                                                                                                                                                                                                                                                                                                                                                                   000047
10231987175000168817800093673    000045663                    000456630000000000000109                     I0145663     30071900000000040003410000017N100619105700000000000133007190000000000000000000000000000000000000000100010058913700RAMON DO NASCIMENTO MANES               RUA LIGIAN 329, CASA 1 FUNDOS           OLARIA      21073280RIO DE JANEIRO RJUNIAO UMB DOS CULTOS AFRO BRAS    30071915 000048
21300720190000000000080                                                                                                                                                                                                                                                                                                                                                                                   000049
10231987175000168817800093673    000045662                    000456620000000000000109                     I0145662     30071900000000040003410000017N100619105700000000000133007190000000000000000000000000000000000000000100097225959700MARCOS ANTONIO FERREIRA SOARES          RUA PEDRO GOMESN 101, FRENTE            REALENGO    21715050RIO DE JANEIRO RJUNIAO UMB DOS CULTOS AFRO BRAS    30071915 000050
21300720190000000000080                                                                                                                                                                                                                                                                                                                                                                                   000051
10231987175000168817800093673    000045661                    000456610000000000000109                     I0145661     30071900000000040003410000017N100619105700000000000133007190000000000000000000000000000000000000000100007474273721CLARINDO DE MEDEIROS                    RUA SAO MARCOSN 145, A                  VILAR DOS TE25561220SAO JOAO DE MERRJUNIAO UMB DOS CULTOS AFRO BRAS    30071915 000052
21300720190000000000080                                                                                                                                                                                                                                                                                                                                                                                   000053
10231987175000168817800093673    000045660                    000456600000000000000109                     I0145660     30071900000000040003410000017N100619105700000000000133007190000000000000000000000000000000000000000100003386212700ANDRE LUIZ DINIZ CARDOSO                RUA CORDOVILN 669, LOTE 2               PARADA DE LU21250450RIO DE JANEIRO RJUNIAO UMB DOS CULTOS AFRO BRAS    30071915 000054
21300720190000000000080                                                                                                                                                                                                                                                                                                                                                                                   000055
10231987175000168817800093673    000045659                    000456590000000000000109                     I0145659     30071900000000040003410000017N100619105700000000000133007190000000000000000000000000000000000000000100022023461715SAULO EMMANUEL FERREIRA GUEDES          AVENIDA VICENTE DE CARVALHON 1431, BLOCOPENHA CIRCUL21210154RIO DE JANEIRO RJUNIAO UMB DOS CULTOS AFRO BRAS    30071915 000056
21300720190000000000080                                                                                                                                                                                                                                                                                                                                                                                   000057
10231987175000168817800093673    000045658                    000456580000000000000109                     I0145658     30071900000000040003410000017N100619105700000000000133007190000000000000000000000000000000000000000100041216989753CARMEM VIANA DE JESUS                   RUA DAS TULIPASN 0, LOTE 4 A QUADRA 5   SANTO ANTONI25235113DUQUE DE CAXIASRJUNIAO UMB DOS CULTOS AFRO BRAS    30071915 000058
21300720190000000000080                                                                                                                                                                                                                                                                                                                                                                                   000059
10231987175000168817800093673    000045657                    000456570000000000000109                     I0145657     30071900000000040003410000017N100619105700000000000133007190000000000000000000000000000000000000000100007446571721ANDREA GUEDES PINHEIRO GOMES            RUA ADOLFO BERGAMININ 155, CASA 1       CENTRO      26535590NILOPOLIS      RJUNIAO UMB DOS CULTOS AFRO BRAS    30071915 000060
21300720190000000000080                                                                                                                                                                                                                                                                                                                                                                                   000061
10231987175000168817800093673    000045656                    000456560000000000000109                     I0145656     30071900000000040003410000017N100619105700000000000133007190000000000000000000000000000000000000000100059195711791ELOISA HELENA PEREIRA NUNES             RUA BOIACAN 330,                        BENTO RIBEIR21331600RIO DE JANEIRO RJUNIAO UMB DOS CULTOS AFRO BRAS    30071915 000062
21300720190000000000080                                                                                                                                                                                                                                                                                                                                                                                   000063
10231987175000168817800093673    000045655                    000456550000000000000109                     I0145655     30071900000000040003410000017N100619105700000000000133007190000000000000000000000000000000000000000207919792000141CENTRO DE UMBANDA VOVO JOANA E          RUA DOUTOR GASTAO REISN 291, A          PARQUE PAULI25080040DUQUE DE CAXIASRJUNIAO UMB DOS CULTOS AFRO BRAS    30071915 000064
21300720190000000000080                                                                                                                                                                                                                                                                                                                                                                                   000065
10231987175000168817800093673    000045654                    000456540000000000000109                     I0145654     30071900000000040003410000017N100619105700000000000133007190000000000000000000000000000000000000000100003667672756NIZIA DE OLIVEIRA GLORIA                RUA MARQUES DE MARICAN 625,             VILA LEOPOLD25030480DUQUE DE CAXIASRJUNIAO UMB DOS CULTOS AFRO BRAS    30071915 000066
21300720190000000000080                                                                                                                                                                                                                                                                                                                                                                                   000067
10231987175000168817800093673    000045653                    000456530000000000000109                     I0145653     30071900000000040003410000017N100619105700000000000133007190000000000000000000000000000000000000000100053699394700UBIRAJARA PEREIRA FRANCO                RUA JOSE SOMBRAN 228, FUNDOS            IRAJA       21230240RIO DE JANEIRO RJUNIAO UMB DOS CULTOS AFRO BRAS    30071915 000068
21300720190000000000080                                                                                                                                                                                                                                                                                                                                                                                   000069
10231987175000168817800093673    000045652                    000456520000000000000109                     I0145652     30071900000000040003410000017N100619105700000000000133007190000000000000000000000000000000000000000100093431619720GUILHERME LUIZ BASILIO                  RUA ARTIDORO DA COSTAN 106, CASA 8      VILA ISABEL 20551140RIO DE JANEIRO RJUNIAO UMB DOS CULTOS AFRO BRAS    30071915 000070
21300720190000000000080                                                                                                                                                                                                                                                                                                                                                                                   000071
10231987175000168817800093673    000045651                    000456510000000000000109                     I0145651     30071900000000040003410000017N100619105700000000000133007190000000000000000000000000000000000000000100028031342768ODILA RIBEIRO MARTINS                   RUA ITAPOREN 65,                        VILA SAO JOA25560490SAO JOAO DE MERRJUNIAO UMB DOS CULTOS AFRO BRAS    30071915 000072
21300720190000000000080                                                                                                                                                                                                                                                                                                                                                                                   000073
10231987175000168817800093673    000045650                    000456500000000000000109                     I0145650     30071900000000040003410000017N100619105700000000000133007190000000000000000000000000000000000000000100079179690700SANDRA BAPTISTA DA SILVA                RUA SOLDADO HIVIL MILIATON 141,         CAMPO GRANDE23042430RIO DE JANEIRO RJUNIAO UMB DOS CULTOS AFRO BRAS    30071915 000074
21300720190000000000080                                                                                                                                                                                                                                                                                                                                                                                   000075
10231987175000168817800093673    000045649                    000456490000000000000109                     I0145649     30071900000000040003410000017N100619105700000000000133007190000000000000000000000000000000000000000100008271397729ELIZABETH GANTERT DA ROCHA GUI          RUA ADRIANAN 204, PARQUE SAO MARCELO    VALVERDE    26290645NOVA IGUACU    RJUNIAO UMB DOS CULTOS AFRO BRAS    30071915 000076
21300720190000000000080                                                                                                                                                                                                                                                                                                                                                                                   000077
10231987175000168817800093673    000045648                    000456480000000000000109                     I0145648     30071900000000040003410000017N100619105700000000000133007190000000000000000000000000000000000000000100023596937787NOEMIA ARMINDA DE SEIXAS                RUA FRANCISCA ZIEZEN 125,               PILARES     20750040RIO DE JANEIRO RJUNIAO UMB DOS CULTOS AFRO BRAS    30071915 000078
21300720190000000000080                                                                                                                                                                                                                                                                                                                                                                                   000079
10231987175000168817800093673    000045647                    000456470000000000000109                     I0145647     30071900000000040003410000017N100619105700000000000133007190000000000000000000000000000000000000000100092650716720ANDRE LUIS ALMEIDA SOUZA                RUA PTOLOMEUN 0, LOTE 30 QUADRA 23      GLAUCIA     26195195BELFORD ROXO   RJUNIAO UMB DOS CULTOS AFRO BRAS    30071915 000080
21300720190000000000080                                                                                                                                                                                                                                                                                                                                                                                   000081
10231987175000168817800093673    000045646                    000456460000000000000109                     I0145646     30071900000000040003410000017N100619105700000000000133007190000000000000000000000000000000000000000100044108680715MARIA DA PENHA PEREIRA DOS SAN          RUA LUCIO TAVARESN 685,                 CENTRO      26530060NILOPOLIS      RJUNIAO UMB DOS CULTOS AFRO BRAS    30071915 000082
21300720190000000000080                                                                                                                                                                                                                                                                                                                                                                                   000083
10231987175000168817800093673    000045645                    000456450000000000000109                     I0145645     30071900000000040003410000017N100619105700000000000133007190000000000000000000000000000000000000000100083441271734NAELSON MAGALHAES DE AVELLAR            RUA ONZEN 0,  LOTE 1 CASA 1             SANTA CRUZ  23560868RIO DE JANEIRO RJUNIAO UMB DOS CULTOS AFRO BRAS    30071915 000084
21300720190000000000080                                                                                                                                                                                                                                                                                                                                                                                   000085
10231987175000168817800093673    000045644                    000456440000000000000109                     I0145644     30071900000000040003410000017N100619105700000000000133007190000000000000000000000000000000000000000100010084300728RODRIGO ALVES DE PINHO                  RUA JOVITA FEITOSAN 131,                VILA SAO JUD25243570DUQUE DE CAXIASRJUNIAO UMB DOS CULTOS AFRO BRAS    30071915 000086
21300720190000000000080                                                                                                                                                                                                                                                                                                                                                                                   000087
10231987175000168817800093673    000045643                    000456430000000000000109                     I0145643     30071900000000040003410000017N100619105700000000000133007190000000000000000000000000000000000000000100060052830730PAULO CESAR BARRETO ALVES               RUA ANGELO DOS REISN 207, FUNDOS        ALTO DA BOA 20531010RIO DE JANEIRO RJUNIAO UMB DOS CULTOS AFRO BRAS    30071915 000088
21300720190000000000080                                                                                                                                                                                                                                                                                                                                                                                   000089
10231987175000168817800093673    000045642                    000456420000000000000109                     I0145642     30071900000000040003410000017N100619105700000000000133007190000000000000000000000000000000000000000100072807229700DENIRCE SOUZA ANDRE                     AVENIDA PASTOR MARTIN LUTHER KING JUNIORTOMAS COELHO20761121RIO DE JANEIRO RJUNIAO UMB DOS CULTOS AFRO BRAS    30071915 000090
21300720190000000000080                                                                                                                                                                                                                                                                                                                                                                                   000091
10231987175000168817800093673    000045641                    000456410000000000000109                     I0145641     30071900000000040003410000017N100619105700000000000133007190000000000000000000000000000000000000000100002344767703ROSINETE FERREIRA CAMARGO               RUA ARAGON 131,                         TANQUE      22733130RIO DE JANEIRO RJUNIAO UMB DOS CULTOS AFRO BRAS    30071915 000092
21300720190000000000080                                                                                                                                                                                                                                                                                                                                                                                   000093
10231987175000168817800093673    000045640                    000456400000000000000109                     I0145640     30071900000000040003410000017N100619105700000000000133007190000000000000000000000000000000000000000100079192653715TERESINHA DE JESUS DOS SANTOS           RUA OLIMPIO DA MOTAN 178,               IRAJA       21235510RIO DE JANEIRO RJUNIAO UMB DOS CULTOS AFRO BRAS    30071915 000094
21300720190000000000080                                                                                                                                                                                                                                                                                                                                                                                   000095
10231987175000168817800093673    000045639                    000456390000000000000109                     I0145639     30071900000000040003410000017N100619105700000000000133007190000000000000000000000000000000000000000100022175534880LUCIANO THOMAZ DE ROSA                  RUA FRANCISCO JOSE DA SILVAN 25,        JARDIM SANTA08695060SUZANO         SPUNIAO UMB DOS CULTOS AFRO BRAS    30071915 000096
21300720190000000000080                                                                                                                                                                                                                                                                                                                                                                                   000097
10231987175000168817800093673    000045638                    000456380000000000000109                     I0145638     30071900000000040003410000017N100619105700000000000133007190000000000000000000000000000000000000000100033413525700ALBERICE SILVA OLIVEIRA                 RUA DIAS DA CRUZN 170, AP 201           MEIER       20720012RIO DE JANEIRO RJUNIAO UMB DOS CULTOS AFRO BRAS    30071915 000098
21300720190000000000080                                                                                                                                                                                                                                                                                                                                                                                   000099
10231987175000168817800093673    000045637                    000456370000000000000109                     I0145637     30071900000000040003410000017N100619105700000000000133007190000000000000000000000000000000000000000100044608268791FAUSTO DOS SANTOS REZENDE               RUA CARUNAN 397,                        PARADA DE LU21010070RIO DE JANEIRO RJUNIAO UMB DOS CULTOS AFRO BRAS    30071915 000100
21300720190000000000080                                                                                                                                                                                                                                                                                                                                                                                   000101
10231987175000168817800093673    000045636                    000456360000000000000109                     I0145636     30071900000000040003410000017N100619105700000000000133007190000000000000000000000000000000000000000100092269516753HELENA MARIA DA SILVA                   RUA VINTE E QUATRO DE OUTUBRON 0,  QUADRJARDIM BARRO25267450DUQUE DE CAXIASRJUNIAO UMB DOS CULTOS AFRO BRAS    30071915 000102
21300720190000000000080                                                                                                                                                                                                                                                                                                                                                                                   000103
10231987175000168817800093673    000045635                    000456350000000000000109                     I0145635     30071900000000040003410000017N100619105700000000000133007190000000000000000000000000000000000000000100009443831732RAFAEL LUIZ SOARES FERREIRA             RUA COMANDANTE COELHON 647,             CORDOVIL    21250510RIO DE JANEIRO RJUNIAO UMB DOS CULTOS AFRO BRAS    30071915 000104
21300720190000000000080                                                                                                                                                                                                                                                                                                                                                                                   000105
10231987175000168817800093673    000045634                    000456340000000000000109                     I0145634     30071900000000040003410000017N100619105700000000000133007190000000000000000000000000000000000000000100007742829754CARLOS ANDERSON DA SILVA DIAS           RUA COSMORAMAN 700, CAMELIA Nº 120     COSMORAMA   26582020MESQUITA       RJUNIAO UMB DOS CULTOS AFRO BRAS    30071915 000106
21300720190000000000080                                                                                                                                                                                                                                                                                                                                                                                   000107
10231987175000168817800093673    000045633                    000456330000000000000109                     I0145633     30071900000000040003410000017N100619105700000000000133007190000000000000000000000000000000000000000100070421609753DERIVALDA DE JESUS MOREIRA              RUA OSVALDO CRUZN 55, APARTAMENTO 101   CENTRO      26530100NILOPOLIS      RJUNIAO UMB DOS CULTOS AFRO BRAS    30071915 000108
21300720190000000000080                                                                                                                                                                                                                                                                                                                                                                                   000109
10231987175000168817800093673    000045632                    000456320000000000000109                     I0145632     30071900000000040003410000017N100619105700000000000133007190000000000000000000000000000000000000000100080373933720LINDINALVA DE LIMA FERREIRA             ESTRADA CRUZ VERMELHA - RUA MARIANO PROCSANTA TERESA26193415BELFORD ROXO   RJUNIAO UMB DOS CULTOS AFRO BRAS    30071915 000110
21300720190000000000080                                                                                                                                                                                                                                                                                                                                                                                   000111
10231987175000168817800093673    000045631                    000456310000000000000109                     I0145631     30071900000000040003410000017N100619105700000000000133007190000000000000000000000000000000000000000100001859792707REGIS GOMES DE OLIVEIRA                 AVENIDA DO CANALN 54, COND VALE FELIZ   ALBUQUERQUE 25976560TERESOPOLIS    RJUNIAO UMB DOS CULTOS AFRO BRAS    30071915 000112
21300720190000000000080                                                                                                                                                                                                                                                                                                                                                                                   000113
10231987175000168817800093673    000045630                    000456300000000000000109                     I0145630     30071900000000040003410000017N100619105700000000000133007190000000000000000000000000000000000000000100098625861768MARA RITA SANTOS BRANDAO DA SI          RUA DOUTOR BORGES DE MEDEIROSN 107, CASAPARQUE JOAO 25220750DUQUE DE CAXIASRJUNIAO UMB DOS CULTOS AFRO BRAS    30071915 000114
21300720190000000000080                                                                                                                                                                                                                                                                                                                                                                                   000115
10231987175000168817800093673    000045629                    000456290000000000000109                     I0145629     30071900000000040003410000017N100619105700000000000133007190000000000000000000000000000000000000000100002878076737TANIA NACARI AIRES GALVAO               RUA MORRO DAS FLORASN 25,               CACUIA      21930440RIO DE JANEIRO RJUNIAO UMB DOS CULTOS AFRO BRAS    30071915 000116
21300720190000000000080                                                                                                                                                                                                                                                                                                                                                                                   000117
10231987175000168817800093673    000045628                    000456280000000000000109                     I0145628     30071900000000040003410000017N100619105700000000000133007190000000000000000000000000000000000000000100001050327780MARIA LUCIA DE FATIMA FERREIRA          RUA BUDAPESTEN 172, CASA 2              FREGUESIA (I21911300RIO DE JANEIRO RJUNIAO UMB DOS CULTOS AFRO BRAS    30071915 000118
21300720190000000000080                                                                                                                                                                                                                                                                                                                                                                                   000119
10231987175000168817800093673    000045627                    000456270000000000000109                     I0145627     30071900000000040003410000017N100619105700000000000133007190000000000000000000000000000000000000000100003200716851CYNTHIA RITA HERTEL                     AVENIDA VINTE E DOIS DE MAION 6270, LOJACENTRO      24800065ITABORAI       RJUNIAO UMB DOS CULTOS AFRO BRAS    30071915 000120
21300720190000000000080                                                                                                                                                                                                                                                                                                                                                                                   000121
10231987175000168817800093673    000045626                    000456260000000000000109                     I0145626     30071900000000040003410000017N100619105700000000000133007190000000000000000000000000000000000000000100003303880700MARIA ADIR DA SILVA                     RUA NUCLEO PRINCESA ISABELN 155,        JARDIM AMALI27253350VOLTA REDONDA  RJUNIAO UMB DOS CULTOS AFRO BRAS    30071915 000122
21300720190000000000080                                                                                                                                                                                                                                                                                                                                                                                   000123
10231987175000168817800093673    000045625                    000456250000000000000109                     I0145625     30071900000000040003410000017N100619105700000000000133007190000000000000000000000000000000000000000100096094702700NERTAN SIGWARD RODRIGUES                RUA BARAO DE VARGEM ALEGRE N 50,        VARGEM ALEGR27155000BARRA DO PIRAI RJUNIAO UMB DOS CULTOS AFRO BRAS    30071915 000124
21300720190000000000080                                                                                                                                                                                                                                                                                                                                                                                   000125
10231987175000168817800093673    000045624                    000456240000000000000109                     I0145624     30071900000000040003410000017N100619105700000000000133007190000000000000000000000000000000000000000100058924477749MARIA DAS GRACAS AZEVEDO RIBEI          RUA ABIGAIL GUIMARAESN 35, BLOCO B2 AP 3VILA ZULMIRA25540070SAO JOAO DE MERRJUNIAO UMB DOS CULTOS AFRO BRAS    30071915 000126
21300720190000000000080                                                                                                                                                                                                                                                                                                                                                                                   000127
10231987175000168817800093673    000045623                    000456230000000000000109                     I0145623     30071900000000040003410000017N100619105700000000000133007190000000000000000000000000000000000000000207280383000148CANTINHO DA VOVO MARIA CONGA D          RUA SARGENTO MARQUETIN 5,               MARECHAL HER21611000RIO DE JANEIRO RJUNIAO UMB DOS CULTOS AFRO BRAS    30071915 000128
21300720190000000000080                                                                                                                                                                                                                                                                                                                                                                                   000129
10231987175000168817800093673    000045622                    000456220000000000000109                     I0145622     30071900000000040003410000017N100619105700000000000133007190000000000000000000000000000000000000000209330771000111TENDA ESPIRITA PENA VERDE - IL          RUA CRISTOVAO COLOMBON 346,             CACHAMBI    20780300RIO DE JANEIRO RJUNIAO UMB DOS CULTOS AFRO BRAS    30071915 000130
21300720190000000000080                                                                                                                                                                                                                                                                                                                                                                                   000131
10231987175000168817800093673    000045621                    000456210000000000000109                     I0145621     30071900000000040003410000017N100619105700000000000133007190000000000000000000000000000000000000000100009605715740SONIA LUCIA DOS SANTOS                  RUA AN 320, AVENIDA MINISTRO AMARAL PEIXSIDERLANDIA 27350470BARRA MANSA    RJUNIAO UMB DOS CULTOS AFRO BRAS    30071915 000132
21300720190000000000080                                                                                                                                                                                                                                                                                                                                                                                   000133
10231987175000168817800093673    000045620                    000456200000000000000109                     I0145620     30071900000000040003410000017N100619105700000000000133007190000000000000000000000000000000000000000100000462841766RONALDO SANTOS DE SOUZA                 RUA PINHEIRON 61,                       VILA CORINGA27321420BARRA MANSA    RJUNIAO UMB DOS CULTOS AFRO BRAS    30071915 000134
21300720190000000000080                                                                                                                                                                                                                                                                                                                                                                                   000135
10231987175000168817800093673    000045619                    000456190000000000000109                     I0145619     30071900000000040003410000017N100619105700000000000133007190000000000000000000000000000000000000000230187504000123TENDA ESPIRITA PAI JOAQUIM  D           RUA PAULO PRADON 20,                    OSWALDO CRUZ21341130RIO DE JANEIRO RJUNIAO UMB DOS CULTOS AFRO BRAS    30071915 000136
21300720190000000000080                                                                                                                                                                                                                                                                                                                                                                                   000137
10231987175000168817800093673    000045618                    000456180000000000000109                     I0145618     30071900000000040003410000017N100619105700000000000133007190000000000000000000000000000000000000000100003125944708ROGERIO GOMES DA SILVA                  RUA ALMIRANTE FIGUEIREDON 118, APT 5 NºFREGUESIA (I21911150RIO DE JANEIRO RJUNIAO UMB DOS CULTOS AFRO BRAS    30071915 000138
21300720190000000000080                                                                                                                                                                                                                                                                                                                                                                                   000139
10231987175000168817800093673    000045617                    000456170000000000000109                     I0145617     30071900000000040003410000017N100619105700000000000133007190000000000000000000000000000000000000000100002541954743DENISE DIAS DE OLIVEIRA                 RUA BERNARDINO DE CAMPOSN 0, LOTE 7 QUADOLAVO BILAC 25035530DUQUE DE CAXIASRJUNIAO UMB DOS CULTOS AFRO BRAS    30071915 000140
21300720190000000000080                                                                                                                                                                                                                                                                                                                                                                                   000141
10231987175000168817800093673    000045616                    000456160000000000000109                     I0145616     30071900000000040003410000017N100619105700000000000133007190000000000000000000000000000000000000000100003397760720CRISTIANE DA COSTA FERREIRA             RUA GENERAL AUGUSTO SISSONN 5,          ANCHIETA    21635220RIO DE JANEIRO RJUNIAO UMB DOS CULTOS AFRO BRAS    30071915 000142
21300720190000000000080                                                                                                                                                                                                                                                                                                                                                                                   000143
10231987175000168817800093673    000045615                    000456150000000000000109                     I0145615     30071900000000040003410000017N100619105700000000000133007190000000000000000000000000000000000000000100052421422787ACIOLY DUARTE DIAS                      RUA DOUTOR WALMIRN 910,                 ANDRADE ARAU26010065NOVA IGUACU    RJUNIAO UMB DOS CULTOS AFRO BRAS    30071915 000144
21300720190000000000080                                                                                                                                                                                                                                                                                                                                                                                   000145
10231987175000168817800093673    000045614                    000456140000000000000109                     I0145614     30071900000000040003410000017N100619105700000000000133007190000000000000000000000000000000000000000100002065913738ROBSON DE FARIA TORRES                  RUA GENERAL ROCHA CALADON 556,          OLARIA      21070670RIO DE JANEIRO RJUNIAO UMB DOS CULTOS AFRO BRAS    30071915 000146
21300720190000000000080                                                                                                                                                                                                                                                                                                                                                                                   000147
10231987175000168817800093673    000045613                    000456130000000000000109                     I0145613     30071900000000040003410000017N100619105700000000000133007190000000000000000000000000000000000000000100049170872791SONIA REGINA BARBOSA CAVATO             AVENIDA SCHULTZ WENKN 183,              CORDOVIL    21012155RIO DE JANEIRO RJUNIAO UMB DOS CULTOS AFRO BRAS    30071915 000148
21300720190000000000080                                                                                                                                                                                                                                                                                                                                                                                   000149
10231987175000168817800093673    000045612                    000456120000000000000109                     I0145612     30071900000000040003410000017N100619105700000000000133007190000000000000000000000000000000000000000100008763637707JUSSARA SILVA DE ALBUQUERQUE            RUA ARGOSN 281, FUNDOS                  GUADALUPE   21660050RIO DE JANEIRO RJUNIAO UMB DOS CULTOS AFRO BRAS    30071915 000150
21300720190000000000080                                                                                                                                                                                                                                                                                                                                                                                   000151
10231987175000168817800093673    000045611                    000456110000000000000109                     I0145611     30071900000000040003410000017N100619105700000000000133007190000000000000000000000000000000000000000100003341744738CASSIA GOMES CASTORINO                  RUA COMENDADOR CRISOSTOMO CRUZN 0, LOTE SANTA MARIA 26165400BELFORD ROXO   RJUNIAO UMB DOS CULTOS AFRO BRAS    30071915 000152
21300720190000000000080                                                                                                                                                                                                                                                                                                                                                                                   000153
10231987175000168817800093673    000045610                    000456100000000000000109                     I0145610     30071900000000040003410000017N100619105700000000000133007190000000000000000000000000000000000000000100058234110730FRANCISCA ARAUJO VASCONCELOS            AVENIDA CESARIO DE MELON 3720, BLOCO 3 ACAMPO GRANDE23050102RIO DE JANEIRO RJUNIAO UMB DOS CULTOS AFRO BRAS    30071915 000154
21300720190000000000080                                                                                                                                                                                                                                                                                                                                                                                   000155
10231987175000168817800093673    000045609                    000456090000000000000109                     I0145609     30071900000000040003410000017N100619105700000000000133007190000000000000000000000000000000000000000232122031000101ALA AFIM KAPINI OBA OLU AIYE            RUA ASSIS VASCONCELOSN 385,             PILARES     20755010RIO DE JANEIRO RJUNIAO UMB DOS CULTOS AFRO BRAS    30071915 000156
21300720190000000000080                                                                                                                                                                                                                                                                                                                                                                                   000157
10231987175000168817800093673    000045608                    000456080000000000000109                     I0145608     30071900000000040003410000017N100619105700000000000133007190000000000000000000000000000000000000000100002547438704JORGE EDUARDO CAVALCANTI REIS           RUA ROSA DA FONSECAN 30, SOBRADO        MANGUINHOS  21041240RIO DE JANEIRO RJUNIAO UMB DOS CULTOS AFRO BRAS    30071915 000158
21300720190000000000080                                                                                                                                                                                                                                                                                                                                                                                   000159
10231987175000168817800093673    000045607                    000456070000000000000109                     I0145607     30071900000000040003410000017N100619105700000000000133007190000000000000000000000000000000000000000100038923335720MARILENE LOPES                          RUA VEREADOR CARLOS CARVALHON 267,      VILA EMIL   26580061MESQUITA       RJUNIAO UMB DOS CULTOS AFRO BRAS    30071915 000160
21300720190000000000080                                                                                                                                                                                                                                                                                                                                                                                   000161
10231987175000168817800093673    000045606                    000456060000000000000109                     I0145606     30071900000000040003410000017N100619105700000000000133007190000000000000000000000000000000000000000100083819991700LUZIA GERALDINA DA SILVA                ESTRADA FAZENDINHAN 5, FUNDOS           BADU        24320420NITEROI        RJUNIAO UMB DOS CULTOS AFRO BRAS    30071915 000162
21300720190000000000080                                                                                                                                                                                                                                                                                                                                                                                   000163
10231987175000168817800093673    000045605                    000456050000000000000109                     I0145605     30071900000000040003410000017N100619105700000000000133007190000000000000000000000000000000000000000100081972148753JORGE ALVES DE MEDEIROS                 RUA LILAZESN 13,                        PARQUE FLORE26171450BELFORD ROXO   RJUNIAO UMB DOS CULTOS AFRO BRAS    30071915 000164
21300720190000000000080                                                                                                                                                                                                                                                                                                                                                                                   000165
10231987175000168817800093673    000045604                    000456040000000000000109                     I0145604     30071900000000040003410000017N100619105700000000000133007190000000000000000000000000000000000000000100005689170739KATIA SILENE MACEDO DOS SANTOS          RUA EUCLIDES ROXON 185,                 REALENGO    21765590RIO DE JANEIRO RJUNIAO UMB DOS CULTOS AFRO BRAS    30071915 000166
21300720190000000000080                                                                                                                                                                                                                                                                                                                                                                                   000167
10231987175000168817800093673    000045603                    000456030000000000000109                     I0145603     30071900000000040003410000017N100619105700000000000133007190000000000000000000000000000000000000000100071924337720MARIA DAS DORES FERREIRA PESSA          TRAVESSA PEREIRAN 20,                   BARROS FILHO21512310RIO DE JANEIRO RJUNIAO UMB DOS CULTOS AFRO BRAS    30071915 000168
21300720190000000000080                                                                                                                                                                                                                                                                                                                                                                                   000169
10231987175000168817800093673    000045602                    000456020000000000000109                     I0145602     30071900000000040003410000017N100619105700000000000133007190000000000000000000000000000000000000000100078664870730LUCIA MARA RIBEIRO OLIVEIRA             RUA LUIZA N 47,                         CHATUBA     26584210MESQUITA       RJUNIAO UMB DOS CULTOS AFRO BRAS    30071915 000170
21300720190000000000080                                                                                                                                                                                                                                                                                                                                                                                   000171
10231987175000168817800093673    000045601                    000456010000000000000109                     I0145601     30071900000000040003410000017N100619105700000000000133007190000000000000000000000000000000000000000100079006981753ELIANE BARBOSA RODRIGUES                AVENIDA PASTEURN 225,                   PARQUE ALIAN25550210SAO JOAO DE MERRJUNIAO UMB DOS CULTOS AFRO BRAS    30071915 000172
21300720190000000000080                                                                                                                                                                                                                                                                                                                                                                                   000173
10231987175000168817800093673    000045600                    000456000000000000000109                     I0145600     30071900000000040003410000017N100619105700000000000133007190000000000000000000000000000000000000000100049586254704ALZIRA MARIA CHAVES DA SILVA            RUA AMANAJON 677,                       BANGU       21820210RIO DE JANEIRO RJUNIAO UMB DOS CULTOS AFRO BRAS    30071915 000174
21300720190000000000080                                                                                                                                                                                                                                                                                                                                                                                   000175
10231987175000168817800093673    000045599                    000455990000000000000109                     I0145599     30071900000000040003410000017N100619105700000000000133007190000000000000000000000000000000000000000100008368694515JOSE MESSIAS RODRIGUES DA COST          RUA ARAREN 51, CASA 1                   REALENGO    21765500RIO DE JANEIRO RJUNIAO UMB DOS CULTOS AFRO BRAS    30071915 000176
21300720190000000000080                                                                                                                                                                                                                                                                                                                                                                                   000177
10231987175000168817800093673    000045598                    000455980000000000000109                     I0145598     30071900000000040003410000017N100619105700000000000133007190000000000000000000000000000000000000000100048363340715AUREA RAMOS                             ESTRADA DO MAGARCAN 8488,               GUARATIBA   23031204RIO DE JANEIRO RJUNIAO UMB DOS CULTOS AFRO BRAS    30071915 000178
21300720190000000000080                                                                                                                                                                                                                                                                                                                                                                                   000179
10231987175000168817800093673    000045597                    000455970000000000000109                     I0145597     30071900000000040003410000017N100619105700000000000133007190000000000000000000000000000000000000000100075643081768ELISABETE MOREIRA FREIRE DA SI          RUA ARACAN 1245,                        RICARDO DE A21620050RIO DE JANEIRO RJUNIAO UMB DOS CULTOS AFRO BRAS    30071915 000180
21300720190000000000080                                                                                                                                                                                                                                                                                                                                                                                   000181
10231987175000168817800093673    000045596                    000455960000000000000109                     I0145596     30071900000000040003410000017N100619105700000000000133007190000000000000000000000000000000000000000100085488526749MARCOS ROMEU DA SILVA                   CAMINHO DO VELOSON 836, CASA 4          CAMPO GRANDE23013090RIO DE JANEIRO RJUNIAO UMB DOS CULTOS AFRO BRAS    30071915 000182
21300720190000000000080                                                                                                                                                                                                                                                                                                                                                                                   000183
10231987175000168817800093673    000045595                    000455950000000000000109                     I0145595     30071900000000040003410000017N100619105700000000000133007190000000000000000000000000000000000000000100032996659600FERNANDO JUSTINO PALMEIRA               ESTRADA DE JACONE N 569,                SAMPAIO CORR28990000SAQUAREMA      RJUNIAO UMB DOS CULTOS AFRO BRAS    30071915 000184
21300720190000000000080                                                                                                                                                                                                                                                                                                                                                                                   000185
10231987175000168817800093673    000045594                    000455940000000000000109                     I0145594     30071900000000040003410000017N100619105700000000000133007190000000000000000000000000000000000000000100076744515772GELSON CORREA DE CARVALHO               RUA MANUEL MACHADON 77,                 VAZ LOBO    21361090RIO DE JANEIRO RJUNIAO UMB DOS CULTOS AFRO BRAS    30071915 000186
21300720190000000000080                                                                                                                                                                                                                                                                                                                                                                                   000187
10231987175000168817800093673    000045593                    000455930000000000000109                     I0145593     30071900000000040003410000017N100619105700000000000133007190000000000000000000000000000000000000000100000910644730JOSE ALEXANDRE IOZZI                    RUA AUGUSTO NUNESN 253, CASA 3          TODOS OS SAN20770270RIO DE JANEIRO RJUNIAO UMB DOS CULTOS AFRO BRAS    30071915 000188
21300720190000000000080                                                                                                                                                                                                                                                                                                                                                                                   000189
10231987175000168817800093673    000045592                    000455920000000000000109                     I0145592     30071900000000040003410000017N100619105700000000000133007190000000000000000000000000000000000000000100001295514737DANUZA JEREMIAS DA SILVA                RUA JOAQUIM RAFAELN 957,                COELHO      24740020SAO GONCALO    RJUNIAO UMB DOS CULTOS AFRO BRAS    30071915 000190
21300720190000000000080                                                                                                                                                                                                                                                                                                                                                                                   000191
10231987175000168817800093673    000045591                    000455910000000000000109                     I0145591     30071900000000040003410000017N100619105700000000000133007190000000000000000000000000000000000000000100072090499753JOSEFINA PAULINA RODRIGUES              RUA JOAQUIM SOARES NETO N 416,          NOVA AMERICA26021560NOVA IGUACU    RJUNIAO UMB DOS CULTOS AFRO BRAS    30071915 000192
21300720190000000000080                                                                                                                                                                                                                                                                                                                                                                                   000193
10231987175000168817800093673    000045590                    000455900000000000000109                     I0145590     30071900000000040003410000017N100619105700000000000133007190000000000000000000000000000000000000000100098416286787CLAUDIO LUIZ DOMINGOS DOS SANT          ESTRADA PRESIDENTE JUSCELINO KUBITSCHEK MARINGA     26173515BELFORD ROXO   RJUNIAO UMB DOS CULTOS AFRO BRAS    30071915 000194
21300720190000000000080                                                                                                                                                                                                                                                                                                                                                                                   000195
10231987175000168817800093673    000045589                    000455890000000000000109                     I0145589     30071900000000040003410000017N100619105700000000000133007190000000000000000000000000000000000000000100001789073758BERNADETE BURGOS AMORIM RANGEL          RUA IMBUIN 120,                         TANQUE      22730100RIO DE JANEIRO RJUNIAO UMB DOS CULTOS AFRO BRAS    30071915 000196
21300720190000000000080                                                                                                                                                                                                                                                                                                                                                                                   000197
10231987175000168817800093673    000045588                    000455880000000000000109                     I0145588     30071900000000040003410000017N100619105700000000000133007190000000000000000000000000000000000000000100075588137787ANA LADAIDES CONSTANTINO TRIND          RUA DOZEN 0, LOTE 2 QUADRA 86           ENGENHO     23820300ITAGUAI        RJUNIAO UMB DOS CULTOS AFRO BRAS    30071915 000198
21300720190000000000080                                                                                                                                                                                                                                                                                                                                                                                   000199
10231987175000168817800093673    000045587                    000455870000000000000109                     I0145587     30071900000000040003410000017N100619105700000000000133007190000000000000000000000000000000000000000100039233219704SEVERINO DA SILVA BARBOSA               RUA ENGENHEIRO BERNARDO SAIAO N 26, QUADCOELHO DA RO25550810SAO JOAO DE MERRJUNIAO UMB DOS CULTOS AFRO BRAS    30071915 000200
21300720190000000000080                                                                                                                                                                                                                                                                                                                                                                                   000201
10231987175000168817800093673    000045586                    000455860000000000000109                     I0145586     30071900000000040003410000017N100619105700000000000133007190000000000000000000000000000000000000000100004550883731LINDINALVA MONTEIRO DA SILVA            RUA TENENTE PALESTRINAN 135,            CORDOVIL    21250550RIO DE JANEIRO RJUNIAO UMB DOS CULTOS AFRO BRAS    30071915 000202
21300720190000000000080                                                                                                                                                                                                                                                                                                                                                                                   000203
10231987175000168817800093673    000045585                    000455850000000000000109                     I0145585     30071900000000040003410000017N100619105700000000000133007190000000000000000000000000000000000000000100001345348754ADRIANA DE LELIS                        ESTRADA JOAO MELON 0, RUA DOIS  - QUADRACAMPO GRANDE23092080RIO DE JANEIRO RJUNIAO UMB DOS CULTOS AFRO BRAS    30071915 000204
21300720190000000000080                                                                                                                                                                                                                                                                                                                                                                                   000205
10231987175000168817800093673    000045584                    000455840000000000000109                     I0145584     30071900000000040003410000017N100619105700000000000133007190000000000000000000000000000000000000000100003807839755WELLINGTON ROSA DA SILVA                RUA PIRACAIAN 806,                      MARECHAL HER21555260RIO DE JANEIRO RJUNIAO UMB DOS CULTOS AFRO BRAS    30071915 000206
21300720190000000000080                                                                                                                                                                                                                                                                                                                                                                                   000207
10231987175000168817800093673    000045583                    000455830000000000000109                     I0145583     30071900000000040003410000017N100619105700000000000133007190000000000000000000000000000000000000000100027016005704SEVERINO MIGUEL SIMAO                   RUA CONDOMINIO PASSAREDON 0, QUADRA 24 LCAMINHO DE B28910000CABO FRIO      RJUNIAO UMB DOS CULTOS AFRO BRAS    30071915 000208
21300720190000000000080                                                                                                                                                                                                                                                                                                                                                                                   000209
10231987175000168817800093673    000045582                    000455820000000000000109                     I0145582     30071900000000040003410000017N100619105700000000000133007190000000000000000000000000000000000000000100083122869772ANDREIA OLIVEIRA DE MENEZES             RUA VICENTE PONTEN 41,                  JARDIM CARIO21921740RIO DE JANEIRO RJUNIAO UMB DOS CULTOS AFRO BRAS    30071915 000210
21300720190000000000080                                                                                                                                                                                                                                                                                                                                                                                   000211
10231987175000168817800093673    000045581                    000455810000000000000109                     I0145581     30071900000000040003410000017N100619105700000000000133007190000000000000000000000000000000000000000100003032033748MARIA MOREIRA TEIXEIRA                  AVENIDA GENERAL JOSE MULLERN 1018,      HELIOPOLIS  26140040BELFORD ROXO   RJUNIAO UMB DOS CULTOS AFRO BRAS    30071915 000212
21300720190000000000080                                                                                                                                                                                                                                                                                                                                                                                   000213
10231987175000168817800093673    000045580                    000455800000000000000109                     I0145580     30071900000000040003410000017N100619105700000000000133007190000000000000000000000000000000000000000100092820824749CRISTINA FERREIRA DOS SANTOS            RUA MADRE SILVAN 95,                    VILA FORMOSA26051424NOVA IGUACU    RJUNIAO UMB DOS CULTOS AFRO BRAS    30071915 000214
21300720190000000000080                                                                                                                                                                                                                                                                                                                                                                                   000215
10231987175000168817800093673    000045579                    000455790000000000000109                     I0145579     30071900000000040003410000017N100619105700000000000133007190000000000000000000000000000000000000000100005474429711RODRIGO VICENTE                         RUA BARREIRAN 12,                       INHOAIBA    23064482RIO DE JANEIRO RJUNIAO UMB DOS CULTOS AFRO BRAS    30071915 000216
21300720190000000000080                                                                                                                                                                                                                                                                                                                                                                                   000217
10231987175000168817800093673    000045578                    000455780000000000000109                     I0145578     30071900000000040003410000017N100619105700000000000133007190000000000000000000000000000000000000000100003725237735LUCIANO LOPES DA SILVA                  ALAMEDA: BUENO AIRES N 370,             RIO DO OURO 24752360SAO GONCALO    RJUNIAO UMB DOS CULTOS AFRO BRAS    30071915 000218
21300720190000000000080                                                                                                                                                                                                                                                                                                                                                                                   000219
10231987175000168817800093673    000045577                    000455770000000000000109                     I0145577     30071900000000040003410000017N100619105700000000000133007190000000000000000000000000000000000000000100006932718766CARLOS EDUARDO DE OLIVEIRA              TRAVESSA CARLOS SAMPAIO N 0, QUADRA 2 LOAUSTIN      26087287NOVA IGUACU    RJUNIAO UMB DOS CULTOS AFRO BRAS    30071915 000220
21300720190000000000080                                                                                                                                                                                                                                                                                                                                                                                   000221
10231987175000168817800093673    000045576                    000455760000000000000109                     I0145576     30071900000000040003410000017N100619105700000000000133007190000000000000000000000000000000000000000100043116248753NORMA FELIX DA SILVA PEREIRA            RUA HENRIQUE MARTINSN 0,  LOTE 24 QUADRALAGOINHA    24736130SAO GONCALO    RJUNIAO UMB DOS CULTOS AFRO BRAS    30071915 000222
21300720190000000000080                                                                                                                                                                                                                                                                                                                                                                                   000223
10231987175000168817800093673    000045575                    000455750000000000000109                     I0145575     30071900000000040003410000017N100619105700000000000133007190000000000000000000000000000000000000000100064210065749DERLY RIBEIRO DOS SANTOS                RUA ALBERTO HILARESN 40,                TRIBOBO     24755270SAO GONCALO    RJUNIAO UMB DOS CULTOS AFRO BRAS    30071915 000224
21300720190000000000080                                                                                                                                                                                                                                                                                                                                                                                   000225
10231987175000168817800093673    000045574                    000455740000000000000109                     I0145574     30071900000000040003410000017N100619105700000000000133007190000000000000000000000000000000000000000100023768649768SONIA MARIA DA SILVA DELLIVENE          AVENIDA PLINIO GOMES DE MATOS FILHON 278VARZEA DAS M24330430NITEROI        RJUNIAO UMB DOS CULTOS AFRO BRAS    30071915 000226
21300720190000000000080                                                                                                                                                                                                                                                                                                                                                                                   000227
10231987175000168817800093673    000045573                    000455730000000000000109                     I0145573     30071900000000040003410000017N100619105700000000000133007190000000000000000000000000000000000000000100071186220791AUREA GOMES                             AVENIDA FRANCISCO ANTONIO FRANCISCON 129ACUDE       27276000VOLTA REDONDA  RJUNIAO UMB DOS CULTOS AFRO BRAS    30071915 000228
21300720190000000000080                                                                                                                                                                                                                                                                                                                                                                                   000229
10231987175000168817800093673    000045572                    000455720000000000000109                     I0145572     30071900000000040003410000017N100619105700000000000133007190000000000000000000000000000000000000000100004455965700MARIA DE LOURDES SOARES DA SIL          ESTRADA RJ 127 N 0, KM 25               ALTO DO CHAF26650000ENGENHEIRO PAULRJUNIAO UMB DOS CULTOS AFRO BRAS    30071915 000230
21300720190000000000080                                                                                                                                                                                                                                                                                                                                                                                   000231
10231987175000168817800093673    000045571                    000455710000000000000109                     I0145571     30071900000000040003410000017N100619105700000000000133007190000000000000000000000000000000000000000208817265000199YLE OMIN ASE OFA FADAKA                 RUA FLORIANOPOLISN 63,                  PRACA SECA  21321050RIO DE JANEIRO RJUNIAO UMB DOS CULTOS AFRO BRAS    30071915 000232
21300720190000000000080                                                                                                                                                                                                                                                                                                                                                                                   000233
10231987175000168817800093673    000045570                    000455700000000000000109                     I0145570     30071900000000040003410000017N100619105700000000000133007190000000000000000000000000000000000000000100039056481720ZUILA DE MELO E SILVA COVA              RUA TAMOIOSN 71, APT 201                SAO FRANCISC24360380NITEROI        RJUNIAO UMB DOS CULTOS AFRO BRAS    30071915 000234
21300720190000000000080                                                                                                                                                                                                                                                                                                                                                                                   000235
10231987175000168817800093673    000045569                    000455690000000000000109                     I0145569     30071900000000040003410000017N100619105700000000000133007190000000000000000000000000000000000000000100003778949748MARLENE PEREIRA DA SILVA MELO           RUA COMENDADOR REISN 481,               CENTRO      25900142MAGE           RJUNIAO UMB DOS CULTOS AFRO BRAS    30071915 000236
21300720190000000000080                                                                                                                                                                                                                                                                                                                                                                                   000237
10231987175000168817800093673    000045568                    000455680000000000000109                     I0145568     30071900000000040003410000017N100619105700000000000133007190000000000000000000000000000000000000000100005359920769MARCIO ROGERIO DE SOUZA MONTE           RUA MARIA FERREIRA N 30, CASA 25        CAMPO GRANDE23078040RIO DE JANEIRO RJUNIAO UMB DOS CULTOS AFRO BRAS    30071915 000238
21300720190000000000080                                                                                                                                                                                                                                                                                                                                                                                   000239
10231987175000168817800093673    000045567                    000455670000000000000109                     I0145567     30071900000000040003410000017N100619105700000000000133007190000000000000000000000000000000000000000100028842723720HELENITA ANTONIA DE JESUS               RUA DIVINOLANDIAN 225, CASA 1           COSMOS      23066440RIO DE JANEIRO RJUNIAO UMB DOS CULTOS AFRO BRAS    30071915 000240
21300720190000000000080                                                                                                                                                                                                                                                                                                                                                                                   000241
10231987175000168817800093673    000045566                    000455660000000000000109                     I0145566     30071900000000040003410000017N100619105700000000000133007190000000000000000000000000000000000000000100013222460760VITOR NERY DO AMARAL                    RUA MARIA PARISN 342,                   PAIOL DE POL26545600NILOPOLIS      RJUNIAO UMB DOS CULTOS AFRO BRAS    30071915 000242
21300720190000000000080                                                                                                                                                                                                                                                                                                                                                                                   000243
10231987175000168817800093673    000045565                    000455650000000000000109                     I0145565     30071900000000040003410000017N100619105700000000000133007190000000000000000000000000000000000000000100064262839753MARIA JOSE SOUZA DOS SANTOS             RUA JOSE LIMA DA SILVAN 29,             DOS FERREIRA26185610BELFORD ROXO   RJUNIAO UMB DOS CULTOS AFRO BRAS    30071915 000244
21300720190000000000080                                                                                                                                                                                                                                                                                                                                                                                   000245
10231987175000168817800093673    000045564                    000455640000000000000109                     I0145564     30071900000000040003410000017N100619105700000000000133007190000000000000000000000000000000000000000100007296951745PAULO FRANCISCO DA SILVA DANIE          RUA OTAWAN 407,                         VIGARIO GERA21241220RIO DE JANEIRO RJUNIAO UMB DOS CULTOS AFRO BRAS    30071915 000246
21300720190000000000080                                                                                                                                                                                                                                                                                                                                                                                   000247
10231987175000168817800093673    000045563                    000455630000000000000109                     I0145563     30071900000000040003410000017N100619105700000000000133007190000000000000000000000000000000000000000100086901770782EVANILDE DE ARAUJO                      RUA MARQUES CANARION 471,               CHATUBA     26587650MESQUITA       RJUNIAO UMB DOS CULTOS AFRO BRAS    30071915 000248
21300720190000000000080                                                                                                                                                                                                                                                                                                                                                                                   000249
