01REMESSA01COBRANCA       817800093673        União Umb dos Cultos Afro Bra341BANCO ITAU SA  240218                                                                                                                                                                                                                                                                                                      000001
10231987175000168817800093673    000010947                    000109470000000000000109                     I0110947     30041800000000035003410000017N200218104700000000000103004180000000000000000000000000000000000000000100007333127729FRANCISCA GONCALVES                     RUA PROJETADA C BECO FRANCA, 4          ROLA - SANTA23520580RIO DE JANEIRO RJUNIAO UMB DOS CULTOS AFRO BRAS    30041810 000002
10231987175000168817800093673    000010946                    000109460000000000000109                     I0110946     30041800000000035003410000017N200218104700000000000103004180000000000000000000000000000000000000000100079042708700ANTONIO CARLOS DE MIRANDA PACH          RUA SOLDADO BRUNO ESTRIFICA N 107       CURICICA - J22780600RIO DE JANEIRO RJUNIAO UMB DOS CULTOS AFRO BRAS    30041810 000003
10231987175000168817800093673    000010945                    000109450000000000000109                     I0110945     30041800000000035003410000017N200218104700000000000103004180000000000000000000000000000000000000000100054101778787ROSARIA MARIA DAS CHAGAS DA SI          RUA DA AERONAUTICA, 61                  SENADOR CAMA21831410RIO DE JANEIRO RJUNIAO UMB DOS CULTOS AFRO BRAS    30041810 000004
10231987175000168817800093673    000010944                    000109440000000000000109                     I0110944     30041800000000035003410000017N200218104700000000000103004180000000000000000000000000000000000000000100088831051768ELISETE MOREIRA DE OLIVEIRA             RUA JOSE MACHADO, 55                    IRAJA       21361360RIO DE JANEIRO RJUNIAO UMB DOS CULTOS AFRO BRAS    30041810 000005
10231987175000168817800093673    000010943                    000109430000000000000109                     I0110943     30041800000000035003410000017N200218104700000000000103004180000000000000000000000000000000000000000200000000007007VANDERLAN JOSE MARVAO                   AVENIDA SAMPAIO CORREIA, 502 - BR 101   SANTA LUZIA 24722500SAO GONCALO    RJUNIAO UMB DOS CULTOS AFRO BRAS    30041810 000006
10231987175000168817800093673    000010942                    000109420000000000000109                     I0110942     30041800000000035003410000017N200218104700000000000103004180000000000000000000000000000000000000000100002036570712ANDREIA SANTANNA DO NASCIMENTO          O MESMO                                 O MESMO     25570190SAO JOAO DE MERRJUNIAO UMB DOS CULTOS AFRO BRAS    30041810 000007
10231987175000168817800093673    000010941                    000109410000000000000109                     I0110941     30041800000000035003410000017N200218104700000000000103004180000000000000000000000000000000000000000200000000001769MARIA DA PIEDADE SANTANA DOS S          RUA SERGIO JOAO PEREIRA, 365            HELIOPOLIS -26123460BELFORD ROXO   RJUNIAO UMB DOS CULTOS AFRO BRAS    30041810 000008
10231987175000168817800093673    000010940                    000109400000000000000109                     I0110940     30041800000000035003410000017N200218104700000000000103004180000000000000000000000000000000000000000100076103137774VICENTE DE PAULA PEREIRA                RUA POTINGUARA, 253                     BOA ESPERANC26113720BELFORD ROXO   RJUNIAO UMB DOS CULTOS AFRO BRAS    30041810 000009
10231987175000168817800093673    000010939                    000109390000000000000109                     I0110939     30041800000000035003410000017N200218104700000000000103004180000000000000000000000000000000000000000100010324446730DEBORA ANDRADE SILVA                    O MESMO                                 O MESMO     22720360RIO DE JANEIRO RJUNIAO UMB DOS CULTOS AFRO BRAS    30041810 000010
10231987175000168817800093673    000010938                    000109380000000000000109                     I0110938     30041800000000035003410000017N200218104700000000000103004180000000000000000000000000000000000000000100005556657718EDUARDO DE OLIVEIRA SILVA               AV. GETULIO DE MOURA LOTE 9 QUADRA 1    A.PORTO / S.25520660SAO JOAO DE MERRJUNIAO UMB DOS CULTOS AFRO BRAS    30041810 000011
10231987175000168817800093673    000010937                    000109370000000000000109                     I0110937     30041800000000035003410000017N200218104700000000000103004180000000000000000000000000000000000000000100062497073791SIDIRENE FRANCISCO MACHADO              RUA PALMEIRA DAS MISSOES 422 FUNDOS     VILA SANTA R23015220CAMPO GRANDE   RJUNIAO UMB DOS CULTOS AFRO BRAS    30041810 000012
10231987175000168817800093673    000010936                    000109360000000000000109                     I0110936     30041800000000035003410000017N200218104700000000000103004180000000000000000000000000000000000000000100003250127760MARIA ZULEICA CRUZ DA SILVA             O MESMO                                 O MESMO     26010421NOVA IGUACU    RJUNIAO UMB DOS CULTOS AFRO BRAS    30041810 000013
10231987175000168817800093673    000010935                    000109350000000000000109                     I0110935     30041800000000035003410000017N200218104700000000000103004180000000000000000000000000000000000000000100014708764774ADILSON CARNEIRO PINTO                  R JUREMA 49                             GUARATIBA   23035380RIO DE JANEIRO RJUNIAO UMB DOS CULTOS AFRO BRAS    30041810 000014
10231987175000168817800093673    000010934                    000109340000000000000109                     I0110934     30041800000000035003410000017N200218104700000000000103004180000000000000000000000000000000000000000100009886046716ANA CRISTINA DE ALMEIDA TRINDA          O MESMO                                 O MESMO     21555020RIO DE JANEIRO RJUNIAO UMB DOS CULTOS AFRO BRAS    30041810 000015
10231987175000168817800093673    000010933                    000109330000000000000109                     I0110933     30041800000000035003410000017N200218104700000000000103004180000000000000000000000000000000000000000100063440512720SILVANA MANGIA DE SOUZA                 RUA ACANTO N 20                         BANGU - RJ  21830080RIO DE JANEIRO RJUNIAO UMB DOS CULTOS AFRO BRAS    30041810 000016
10231987175000168817800093673    000010932                    000109320000000000000109                     I0110932     30041800000000035003410000017N200218104700000000000103004180000000000000000000000000000000000000000100063441314700AMARA DE CARVALHO DANIEL                RUA FREDERICO LEAL N 146 CASA 2         BANGU - RIO 21825110RIO DE JANEIRO RJUNIAO UMB DOS CULTOS AFRO BRAS    30041810 000017
10231987175000168817800093673    000010931                    000109310000000000000109                     I0110931     30041800000000035003410000017N200218104700000000000103004180000000000000000000000000000000000000000100043397170706VERA LUCIA FERREIRA DA SILVA            RUA ALICE N 183                         COMENDADOR S26262030NOVA IGUACU    RJUNIAO UMB DOS CULTOS AFRO BRAS    30041810 000018
10231987175000168817800093673    000010930                    000109300000000000000109                     I0110930     30041800000000035003410000017N200218104700000000000103004180000000000000000000000000000000000000000200000000007710ELIZABETH CRISTIN DOS S. B. DA          RUA GONDIM DA FONSECA, 36 APTO 103      PORTUGUESA -21931575RIO DE JANEIRO RJUNIAO UMB DOS CULTOS AFRO BRAS    30041810 000019
10231987175000168817800093673    000010929                    000109290000000000000109                     I0110929     30041800000000035003410000017N200218104700000000000103004180000000000000000000000000000000000000000100089041950710ANA LUCIA GUIMARAES MOURA ALVE          RUA CARLOS ILIDRO N 189                 BANCARIOS - 21910160ILHA DO GOVERNARJUNIAO UMB DOS CULTOS AFRO BRAS    30041810 000020
10231987175000168817800093673    000010928                    000109280000000000000109                     I0110928     30041800000000035003410000017N200218104700000000000103004180000000000000000000000000000000000000000100015827814784THAYNAN ERNANDES DA SILVA PINH          RUA EXPEDICIONARIO AMERICO FERNANDES N 2RIO DO OURO 24752300SAO GONCALO    RJUNIAO UMB DOS CULTOS AFRO BRAS    30041810 000021
10231987175000168817800093673    000010927                    000109270000000000000109                     I0110927     30041800000000035003410000017N200218104700000000000103004180000000000000000000000000000000000000000200000000007695MARCO ANTONIO DA COSTA                  RUA LOIR NOGUEIRA LOTE 10 QUADRA 11     RIO DO OURO 24752840SAO GONCALO    RJUNIAO UMB DOS CULTOS AFRO BRAS    30041810 000022
10231987175000168817800093673    000010926                    000109260000000000000109                     I0110926     30041800000000035003410000017N200218104700000000000103004180000000000000000000000000000000000000000100020857690701MARCELO ANTONIO COSTA TEIXEIRA          RUA TUPINIQUINS N 220 FUNDOS            VICENTE DE C21370630RIO DE JANEIRO RJUNIAO UMB DOS CULTOS AFRO BRAS    30041810 000023
10231987175000168817800093673    000010925                    000109250000000000000109                     I0110925     30041800000000035003410000017N200218104700000000000103004180000000000000000000000000000000000000000200000000007679HUGO XAVIER                             AVENIDA PRESIDENTE VARGAS, 2007 APTO 130CENTRO - RJ 20210030RIO DE JANEIRO RJUNIAO UMB DOS CULTOS AFRO BRAS    30041810 000024
10231987175000168817800093673    000010924                    000109240000000000000109                     I0110924     30041800000000035003410000017N200218104700000000000103004180000000000000000000000000000000000000000100078980119704SERGIO LUIZ DE BRITO                    TRAVESSA BRANDAO N 145 - ENGENHOCA      BARRETO - NI24110636NITEROI        RJUNIAO UMB DOS CULTOS AFRO BRAS    30041810 000025
10231987175000168817800093673    000010923                    000109230000000000000109                     I0110923     30041800000000035003410000017N200218104700000000000103004180000000000000000000000000000000000000000100073518573772MERCIA DO NASCIMENTO CAVALCANT          RUA BERNARDO MONTEIRO, LT 62 QD 151     JARDIM OLAVO25025320DUQUE DE CAXIASRJUNIAO UMB DOS CULTOS AFRO BRAS    30041810 000026
10231987175000168817800093673    000010922                    000109220000000000000109                     I0110922     30041800000000035003410000017N200218104700000000000103004180000000000000000000000000000000000000000100054222141704WALMIR CARVALHO GUIMARAES               RUA BOA VIAGEM, 186 CASA                IPIRANGA - N26293591NOVA IGUACU    RJUNIAO UMB DOS CULTOS AFRO BRAS    30041810 000027
10231987175000168817800093673    000010921                    000109210000000000000109                     I0110921     30041800000000035003410000017N200218104700000000000103004180000000000000000000000000000000000000000100056864680797SONIA MARIA DA SILVA                    RUA A, 11 - LOTEAMENTO SANTA MARIA      CAMBOTA - VA27600000VALENCIA       RJUNIAO UMB DOS CULTOS AFRO BRAS    30041810 000028
10231987175000168817800093673    000010920                    000109200000000000000109                     I0110920     30041800000000035003410000017N200218104700000000000103004180000000000000000000000000000000000000000100001478169710TANIA MARIA ALVES CANEJO                RUA CAPITAO BARBOSA, 287 APTO 102       PRAIA DA BAN21921525RIO DE JANEIRO RJUNIAO UMB DOS CULTOS AFRO BRAS    30041810 000029
10231987175000168817800093673    000010919                    000109190000000000000109                     I0110919     30041800000000035003410000017N200218104700000000000103004180000000000000000000000000000000000000000100007331881760COSMA MARIA DE MELO - BENTO SE          RUA PULMERANIA LOTE 16 QUADRA 27 (ANTIGAPARQUE MODER25023070DUQUE DE CAXIASRJUNIAO UMB DOS CULTOS AFRO BRAS    30041810 000030
10231987175000168817800093673    000010918                    000109180000000000000109                     I0110918     30041800000000035003410000017N200218104700000000000103004180000000000000000000000000000000000000000100000330025767NUBIA VIRGINIA DE ANDRADE MAGA          O MESMO                                 O MESMO     23573100RIO DE JANEIRO RJUNIAO UMB DOS CULTOS AFRO BRAS    30041810 000031
10231987175000168817800093673    000010917                    000109170000000000000109                     I0110917     30041800000000035003410000017N200218104700000000000103004180000000000000000000000000000000000000000100076896960744MARIA LUCIA DE OLIVEIRA NUNES           AVENIDA DO CORRETOR N 116               VILA ALIANCA21842340RIO DE JANEIRO RJUNIAO UMB DOS CULTOS AFRO BRAS    30041810 000032
10231987175000168817800093673    000010916                    000109160000000000000109                     I0110916     30041800000000035003410000017N200218104700000000000103004180000000000000000000000000000000000000000200000000007506APARECIDA SILVA RIBEIRO                 RUA PEDRO TELLES N 566 CASA 4           CENTRO - SAO25515003SAO JOAO DE MERRJUNIAO UMB DOS CULTOS AFRO BRAS    30041810 000033
10231987175000168817800093673    000010915                    000109150000000000000109                     I0110915     30041800000000035003410000017N200218104700000000000103004180000000000000000000000000000000000000000200000000002062ROBERTO LUIZ MEDEIROS                   RUA OLIMPIO, LOTE 35 QUADRA 29          HELIOPOLIS -26125215BELFORD ROXO   RJUNIAO UMB DOS CULTOS AFRO BRAS    30041810 000034
10231987175000168817800093673    000010914                    000109140000000000000109                     I0110914     30041800000000035003410000017N200218104700000000000103004180000000000000000000000000000000000000000100003351761783CLAUDIA LUZIA PEREIRA                   O MESMO                                 O MESMO     26187495BELFORD ROXO   RJUNIAO UMB DOS CULTOS AFRO BRAS    30041810 000035
10231987175000168817800093673    000010913                    000109130000000000000109                     I0110913     30041800000000035003410000017N200218104700000000000103004180000000000000000000000000000000000000000100092410480772JOSE LIMA DA SILVA                      RUA: JURANDIR LIMA Nº 40 - SANTA RITA /NOVA IGUACU 26051040NOVA IGUACU    RJUNIAO UMB DOS CULTOS AFRO BRAS    30041810 000036
10231987175000168817800093673    000010912                    000109120000000000000109                     I0110912     30041800000000035003410000017N200218104700000000000103004180000000000000000000000000000000000000000100001411697707FERNANDO CRUZ DE OLIVEIRA               RUA IBIRAPUITA N 328                    ROCHA MIRAND21510200RIO DE JANEIRO RJUNIAO UMB DOS CULTOS AFRO BRAS    30041810 000037
10231987175000168817800093673    000010911                    000109110000000000000109                     I0110911     30041800000000035003410000017N200218104700000000000103004180000000000000000000000000000000000000000100055177182720VALNEI FERNANDES DA SILVA               RUA DOUTOR JOSE MANOEL N 262            SANTA CATARI24420070SAO GONCALO    RJUNIAO UMB DOS CULTOS AFRO BRAS    30041810 000038
10231987175000168817800093673    000010910                    000109100000000000000109                     I0110910     30041800000000035003410000017N200218104700000000000103004180000000000000000000000000000000000000000100007062360767IVONETE GOMES DOS SANTOS                AVENIDA PORTO DA MADAME, 555            GRADIM - SAO24431310SAO GONCALO    RJUNIAO UMB DOS CULTOS AFRO BRAS    30041810 000039
10231987175000168817800093673    000010909                    000109090000000000000109                     I0110909     30041800000000035003410000017N200218104700000000000103004180000000000000000000000000000000000000000200000000007490CARLOS JOSE PEREIRA                     RUA MESSIAS DE SOUZA N 93               CENTRO - BEL26130280BELFORD ROXO   RJUNIAO UMB DOS CULTOS AFRO BRAS    30041810 000040
10231987175000168817800093673    000010908                    000109080000000000000109                     I0110908     30041800000000035003410000017N200218104700000000000103004180000000000000000000000000000000000000000200000000001981IZABEL DE SOUZA MARTINS                 RUA NOVA YORK, 20                       JARDIM AMERI23810660ITAGUAI        RJUNIAO UMB DOS CULTOS AFRO BRAS    30041810 000041
10231987175000168817800093673    000010907                    000109070000000000000109                     I0110907     30041800000000035003410000017N200218104700000000000103004180000000000000000000000000000000000000000100000475441710KASSIA DAMAZIO SOBRINHO                 RUA OPNIAO LIBERA, 27                   JACAREPAGUA 22715130RIO DE JANEIRO RJUNIAO UMB DOS CULTOS AFRO BRAS    30041810 000042
10231987175000168817800093673    000010906                    000109060000000000000109                     I0110906     30041800000000035003410000017N200218104700000000000103004180000000000000000000000000000000000000000200000000001813JOSE ROMERO LEITE MARTINS               RUA ALCOBACA, 1345 CASA 1               ANCHIETA - R21645001RIO DE JANEIRO RJUNIAO UMB DOS CULTOS AFRO BRAS    30041810 000043
10231987175000168817800093673    000010905                    000109050000000000000109                     I0110905     30041800000000035003410000017N200218104700000000000103004180000000000000000000000000000000000000000200000000001778VANIA MEDEIROS COUTINHO                 RUA TEREZA, LOTE 4 QUADRA 4             PARQUE SUECI25245470BELFORD ROXO   RJUNIAO UMB DOS CULTOS AFRO BRAS    30041810 000044
10231987175000168817800093673    000010904                    000109040000000000000109                     I0110904     30041800000000035003410000017N200218104700000000000103004180000000000000000000000000000000000000000100003449740733JOSE CARLOS MOREIRA BENTO               RUA DELFIM MOREIRA  LOTE 5 QUADRA 12 CASVILA SAPE  M25922220MAGE           RJUNIAO UMB DOS CULTOS AFRO BRAS    30041810 000045
10231987175000168817800093673    000010903                    000109030000000000000109                     I0110903     30041800000000035003410000017N200218104700000000000103004180000000000000000000000000000000000000000200000000007417CECILIA DOS SANTOS                      RUA MARIO DE ALENCAR LOTE 52            LARANJAL - S24725170SAO GONCALO    RJUNIAO UMB DOS CULTOS AFRO BRAS    30041810 000046
10231987175000168817800093673    000010902                    000109020000000000000109                     I0110902     30041800000000035003410000017N200218104700000000000103004180000000000000000000000000000000000000000100037497928791ANASTACIA CANDIDO RAIMUNDO              RUA ALAMEDA 33 - CHAO DE ESTRELAS N 84  PAVUNA - RIO21521100RIO DE JANEIRO RJUNIAO UMB DOS CULTOS AFRO BRAS    30041810 000047
10231987175000168817800093673    000010901                    000109010000000000000109                     I0110901     30041800000000035003410000017N200218104700000000000103004180000000000000000000000000000000000000000200000000001715MARIA DA PENHA ANASTACIA DE OL          RUA MARATUBA, 6 FUNDOS                  RICARDO DE A21620430RIO DE JANEIRO RJUNIAO UMB DOS CULTOS AFRO BRAS    30041810 000048
10231987175000168817800093673    000010900                    000109000000000000000109                     I0110900     30041800000000035003410000017N200218104700000000000103004180000000000000000000000000000000000000000100069085986753CARMEM PIRES DE SOUZA                   RUA PRAIA DE BOTAFOGO N 460 APT 1138    BOTAFOGO - R22250040RIO DE JANEIRO RJUNIAO UMB DOS CULTOS AFRO BRAS    30041810 000049
10231987175000168817800093673    000010899                    000108990000000000000109                     I0110899     30041800000000035003410000017N200218104700000000000103004180000000000000000000000000000000000000000100084964910725LIA MARIA DA SILVA                      RUA LUIZ QUEIROZ DE NOGUEIRA, LOTE 26 QUCOLUBANDE - 24744020SAO GONCALO    RJUNIAO UMB DOS CULTOS AFRO BRAS    30041810 000050
10231987175000168817800093673    000010898                    000108980000000000000109                     I0110898     30041800000000040003410000017N200218104700000000000103004180000000000000000000000000000000000000000100019685726787ADELMIR HAMELIN SODRE                   RUA JOAQUIM DE SOUSA, 311 FUNDOS        ROCHA MIRAND21540370RIO DE JANEIRO RJUNIAO UMB DOS CULTOS AFRO BRAS    30041810 000051
10231987175000168817800093673    000010897                    000108970000000000000109                     I0110897     30041800000000035003410000017N200218104700000000000103004180000000000000000000000000000000000000000100052357023791DILMA DA SILVA BILONIA                  RUA CERES N 603                         BANGU - RJ  21862070RIO DE JANEIRO RJUNIAO UMB DOS CULTOS AFRO BRAS    30041810 000052
10231987175000168817800093673    000010896                    000108960000000000000109                     I0110896     30041800000000040003410000017N200218104700000000000103004180000000000000000000000000000000000000000200000000002253JOSE AMERICO ELIAS DE MIRANDA           RUA JAIME MUNIZ, LOTE 1 QUADRA 12       ITAUNA - SAO24474070SAO GONCALO    RJUNIAO UMB DOS CULTOS AFRO BRAS    30041810 000053
10231987175000168817800093673    000010895                    000108950000000000000109                     I0110895     30041800000000035003410000017N200218104700000000000103004180000000000000000000000000000000000000000100061991465734JANDIRA AMELIA PAULA DE OLIVEI          RUA SALVADOR DO MONTE, 487 (ANTIGA RUA OBOACU - SAO 24467300SAO GONCALO    RJUNIAO UMB DOS CULTOS AFRO BRAS    30041810 000054
10231987175000168817800093673    000010894                    000108940000000000000109                     I0110894     30041800000000035003410000017N200218104700000000000103004180000000000000000000000000000000000000000100047613165787ANA SUELI DA GAMA GLORIA                RUA DAMAS BATISTA N 902                 JARDIM TROPI26011010NOVA IGUACU    RJUNIAO UMB DOS CULTOS AFRO BRAS    30041810 000055
10231987175000168817800093673    000010893                    000108930000000000000109                     I0110893     30041800000000035003410000017N200218104700000000000103004180000000000000000000000000000000000000000100002734506700CARLOS HENRIQUE ARAUJO                  RUA MARQUES CANARIO N 725               NOSSA SENHOR26520770NILOPOLIS      RJUNIAO UMB DOS CULTOS AFRO BRAS    30041810 000056
10231987175000168817800093673    000010892                    000108920000000000000109                     I0110892     30041800000000035003410000017N200218104700000000000103004180000000000000000000000000000000000000000100044188269715SEBASTIANA SOUZA SANTOS                 RUA ARI BARROSO N 193                   JARDIM LUCIA26050410NOVA IGUACU    RJUNIAO UMB DOS CULTOS AFRO BRAS    30041810 000057
10231987175000168817800093673    000010891                    000108910000000000000109                     I0110891     30041800000000035003410000017N200218104700000000000103004180000000000000000000000000000000000000000200000000007152LECY PEREIRA CARDOSO                    ESTRADA DO CARRO QUEBRADO N 639 CASA 1  FIGUEIRAS - 26051740NOVA IGUACU    RJUNIAO UMB DOS CULTOS AFRO BRAS    30041810 000058
10231987175000168817800093673    000010890                    000108900000000000000109                     I0110890     30041800000000035003410000017N200218104700000000000103004180000000000000000000000000000000000000000200000000007124NORMA RAMOS VIANNA                      AVENIDA PERNAMBUCANA, 1680              V.ROSALI - S25510430SAO JOAO DE MERRJUNIAO UMB DOS CULTOS AFRO BRAS    30041810 000059
10231987175000168817800093673    000010889                    000108890000000000000109                     I0110889     30041800000000035003410000017N200218104700000000000103004180000000000000000000000000000000000000000100082347301772MARISTELA TORQUATO SILVA BRITT          O MESMO                                 O MESMO     26535340NILOPOLIS      RJUNIAO UMB DOS CULTOS AFRO BRAS    30041810 000060
10231987175000168817800093673    000010888                    000108880000000000000109                     I0110888     30041800000000035003410000017N200218104700000000000103004180000000000000000000000000000000000000000200000000002241MARIA CANDIDA BRANDAO ALVES             RUA MARLICE EMANUEL, 155                JARDIM ALVOR26265230NOVA IGUACU    RJUNIAO UMB DOS CULTOS AFRO BRAS    30041810 000061
10231987175000168817800093673    000010887                    000108870000000000000109                     I0110887     30041800000000035003410000017N200218104700000000000103004180000000000000000000000000000000000000000100031471811700GLORIA CORREIA                          RUA SA FERREIRA  120 APTO  1003         COPACABANA  22071100RIO DE JANEIRO RJUNIAO UMB DOS CULTOS AFRO BRAS    30041810 000062
10231987175000168817800093673    000010886                    000108860000000000000109                     I0110886     30041800000000035003410000017N200218104700000000000103004180000000000000000000000000000000000000000200000000002221CRISTIANO LIMA DOS SANTOS               RUA SEBASTIAO GOUVEIA, QUADRA 9 LOTE 39 SAO FRANCISC26353010NOVA IGUACU    RJUNIAO UMB DOS CULTOS AFRO BRAS    30041810 000063
10231987175000168817800093673    000010885                    000108850000000000000109                     I0110885     30041800000000035003410000017N200218104700000000000103004180000000000000000000000000000000000000000100001272334740VALERIA MARIA MOREIRA                   RUA: EUDINO EGGER Nº 70 - JARDIM CATARISAO GONCALO 32472290SAO GONCALO    RJUNIAO UMB DOS CULTOS AFRO BRAS    30041810 000064
10231987175000168817800093673    000010884                    000108840000000000000109                     I0110884     30041800000000035003410000017N200218104700000000000103004180000000000000000000000000000000000000000100097512770782DULCINEIA CAPUTE                        AVENIDA ITAGUAI N 848 A - ENGENHO       ITAGUAI - RJ23820306ITAGUAI        RJUNIAO UMB DOS CULTOS AFRO BRAS    30041810 000065
10231987175000168817800093673    000010883                    000108830000000000000109                     I0110883     30041800000000035003410000017N200218104700000000000103004180000000000000000000000000000000000000000100000237914387JOSE EDILSON RABELO CAULA               RUA DOS INVALIDOS, 138 BL 2 APTO 908    LAPA - RJ   20231046RIO DE JANEIRO RJUNIAO UMB DOS CULTOS AFRO BRAS    30041810 000066
10231987175000168817800093673    000010882                    000108820000000000000109                     I0110882     30041800000000035003410000017N200218104700000000000103004180000000000000000000000000000000000000000100050475142772LUIZ GONCALVES COLARES                  RUA LEONEL BRIZOLA, QUADRA A LOTE 11 - NPACIENCIA - 23587010RIO DE JANEIRO RJUNIAO UMB DOS CULTOS AFRO BRAS    30041810 000067
10231987175000168817800093673    000010881                    000108810000000000000109                     I0110881     30041800000000035003410000017N200218104700000000000103004180000000000000000000000000000000000000000200000000002180ROSINEIA MARTINS DE ARRUDA              RUA ALBERTO DE MELO, 388                COMENDADOR S26280310NOVA IGUACU    RJUNIAO UMB DOS CULTOS AFRO BRAS    30041810 000068
10231987175000168817800093673    000010880                    000108800000000000000109                     I0110880     30041800000000035003410000017N200218104700000000000103004180000000000000000000000000000000000000000100006980782762ALEX SANDRO INACIO DO NASCIMEN          MESMO                                   MESMO       26298686NOVA IGUACU    RJUNIAO UMB DOS CULTOS AFRO BRAS    30041810 000069
10231987175000168817800093673    000010879                    000108790000000000000109                     I0110879     30041800000000035003410000017N200218104700000000000103004180000000000000000000000000000000000000000200000000002168EDEVALDO NUNES                          RUA DO ROTEIRO, 24                      AUGUSTO VASC23012370RIO DE JANEIRO RJUNIAO UMB DOS CULTOS AFRO BRAS    30041810 000070
10231987175000168817800093673    000010878                    000108780000000000000109                     I0110878     30041800000000035003410000017N200218104700000000000103004180000000000000000000000000000000000000000200000000002163NEUSA DA SILVA RODRIGUES                RUA DOM RAFAEL, 5 - PACIENCIA           29 DE MARCO 23060370RIO DE JANEIRO RJUNIAO UMB DOS CULTOS AFRO BRAS    30041810 000071
10231987175000168817800093673    000010877                    000108770000000000000109                     I0110877     30041800000000035003410000017N200218104700000000000103004180000000000000000000000000000000000000000200000000006942MARIA HELENA DE SOUZA FREITAS           O MESMO                                 O MESMO     26131970BELFORD ROXO   RJUNIAO UMB DOS CULTOS AFRO BRAS    30041810 000072
10231987175000168817800093673    000010876                    000108760000000000000109                     I0110876     30041800000000035003410000017N200218104700000000000103004180000000000000000000000000000000000000000100044029640753CREMILDA CONCEICAO LOPES                O MESMO                                 O MESMO     21235250RIO DE JANEIRO RJUNIAO UMB DOS CULTOS AFRO BRAS    30041810 000073
10231987175000168817800093673    000010875                    000108750000000000000109                     I0110875     30041800000000035003410000017N200218104700000000000103004180000000000000000000000000000000000000000100000120098733MARIA APARECIDA SOUZA DA SILVA          RUA NOVE, 424 LOTE 3 QUADRA B - JARDIM DPRAIA DE MAU25930000MAGE           RJUNIAO UMB DOS CULTOS AFRO BRAS    30041810 000074
10231987175000168817800093673    000010874                    000108740000000000000109                     I0110874     30041800000000035003410000017N200218104700000000000103004180000000000000000000000000000000000000000100007120562703JANETE RIBEIRO DE ALMEIDA               O MESMO                                 O MESMO     26347030NOVA IGUACU    RJUNIAO UMB DOS CULTOS AFRO BRAS    30041810 000075
10231987175000168817800093673    000010873                    000108730000000000000109                     I0110873     30041800000000035003410000017N200218104700000000000103004180000000000000000000000000000000000000000100050995510768MARIA DAS GRACAS DE ANDRADE             RUA, CORONEL FRANCA LEITE Nº 93        FABRICA POLV26246430NILOPOLIS      RJUNIAO UMB DOS CULTOS AFRO BRAS    30041810 000076
10231987175000168817800093673    000010872                    000108720000000000000109                     I0110872     30041800000000035003410000017N200218104700000000000103004180000000000000000000000000000000000000000100008839877754DEISE CORREIA ALVES SILVA               PRACA FLAMENGO N 17                     SANTA TEREZA25086090DUQUE DE CAXIASRJUNIAO UMB DOS CULTOS AFRO BRAS    30041810 000077
10231987175000168817800093673    000010871                    000108710000000000000109                     I0110871     30041800000000035003410000017N200218104700000000000103004180000000000000000000000000000000000000000100003026317713RITA DE CASSIA VIEIRA SIMOES F          RUA CABO SAULO DE VASCONCELOS N 120 LOTEJARDIM PALMA23510001PACIENCIA      RJUNIAO UMB DOS CULTOS AFRO BRAS    30041810 000078
10231987175000168817800093673    000010870                    000108700000000000000109                     I0110870     30041800000000035003410000017N200218104700000000000103004180000000000000000000000000000000000000000200000000006837ELIZABETH RODRIGUES DE MATTOS           O MESMO                                 O MESMO     26263290NOVA IGUACU    RJUNIAO UMB DOS CULTOS AFRO BRAS    30041810 000079
10231987175000168817800093673    000010869                    000108690000000000000109                     I0110869     30041800000000035003410000017N200218104700000000000103004180000000000000000000000000000000000000000200000000006836HELOIZA HELENA COSTA LIMA               RUA DOUTOR ALCINDO RAFAEL, 148 - MORRO AITAMARATI - 26262060NOVA IGUACU    RJUNIAO UMB DOS CULTOS AFRO BRAS    30041810 000080
10231987175000168817800093673    000010868                    000108680000000000000109                     I0110868     30041800000000035003410000017N200218104700000000000103004180000000000000000000000000000000000000000200000000006821MANOELINA DE PAULA SILVA                O MESMO                                 O MESMO     25811080TRES RIOS      RJUNIAO UMB DOS CULTOS AFRO BRAS    30041810 000081
10231987175000168817800093673    000010867                    000108670000000000000109                     I0110867     30041800000000035003410000017N200218104700000000000103004180000000000000000000000000000000000000000100001045146714ELIANE RIBEIRO MACEDO                   O MESMO                                 O MESMO     21725320RIO DE JANEIRO RJUNIAO UMB DOS CULTOS AFRO BRAS    30041810 000082
10231987175000168817800093673    000010866                    000108660000000000000109                     I0110866     30041800000000035003410000017N200218104700000000000103004180000000000000000000000000000000000000000100051398060704ELIZABETH MONTEIRO MOREIRA DA           RUA: IBITINGA LOTE 1 QD 3 CASA 1 - PARQUBELFORD ROXO26167160BELFORD ROXO   RJUNIAO UMB DOS CULTOS AFRO BRAS    30041810 000083
10231987175000168817800093673    000010865                    000108650000000000000109                     I0110865     30041800000000035003410000017N200218104700000000000103004180000000000000000000000000000000000000000200000000006705ELIANE PIRES SOUZA                      RUA IBITINGA LT 9 QD 3 - PRQ S BERNARDO O MESMO     26167160BELFORD ROXO   RJUNIAO UMB DOS CULTOS AFRO BRAS    30041810 000084
10231987175000168817800093673    000010864                    000108640000000000000109                     I0110864     30041800000000035003410000017N200218104700000000000103004180000000000000000000000000000000000000000100058739920704ELISABETH DE OLIVEIRA LOUREDO           EST: COMANDANTE LUIZ SOUTO Nº 509 C/ 4DTANQUE - JAC22733040RIO DE JANEIRO RJUNIAO UMB DOS CULTOS AFRO BRAS    30041810 000085
10231987175000168817800093673    000010863                    000108630000000000000109                     I0110863     30041800000000035003410000017N200218104700000000000103004180000000000000000000000000000000000000000200000000006667HILDETE SACRAMENTO BISPO                O MESMO                                 O MESMO     23060070RIO DE JANEIRO RJUNIAO UMB DOS CULTOS AFRO BRAS    30041810 000086
10231987175000168817800093673    000010862                    000108620000000000000109                     I0110862     30041800000000035003410000017N200218104700000000000103004180000000000000000000000000000000000000000100095274987753PAULO SERGIO BARBOSA DA CUNHA           RUA: DAS BORBOLETAS Nº 21 E 22 - BANGU RIO DE JANEI21866030RIO DE JANEIRO RJUNIAO UMB DOS CULTOS AFRO BRAS    30041810 000087
10231987175000168817800093673    000010861                    000108610000000000000109                     I0110861     30041800000000035003410000017N200218104700000000000103004180000000000000000000000000000000000000000200000000006641SONIA ROCHA DA SILVA                    RUA FERNANDO DA COSTA, LOTE 3 QUADRA O  LOTE XV - BE26183540BELFORD ROXO   RJUNIAO UMB DOS CULTOS AFRO BRAS    30041810 000088
10231987175000168817800093673    000010860                    000108600000000000000109                     I0110860     30041800000000035003410000017N200218104700000000000103004180000000000000000000000000000000000000000200000000006634ANTONIO CARLOS ANTUNES BASTOS           AVENIDA ITATIAIA, 1615 - 21 DE ABRIL    VILA ITAMARA25065095DUQUE DE CAXIASRJUNIAO UMB DOS CULTOS AFRO BRAS    30041810 000089
10231987175000168817800093673    000010859                    000108590000000000000109                     I0110859     30041800000000035003410000017N200218104700000000000103004180000000000000000000000000000000000000000100070672997720MARTA CAVALCANTE TEIXEIRA               O MESMO                                 O MESMO     22763011RIO DE JANEIRO RJUNIAO UMB DOS CULTOS AFRO BRAS    30041810 000090
10231987175000168817800093673    000010858                    000108580000000000000109                     I0110858     30041800000000035003410000017N200218104700000000000103004180000000000000000000000000000000000000000100084244224734JORGE MARCELO TINTEL                    O MESMO                                 O MESMO     23530220RIO DE JANEIRO RJUNIAO UMB DOS CULTOS AFRO BRAS    30041810 000091
10231987175000168817800093673    000010857                    000108570000000000000109                     I0110857     30041800000000035003410000017N200218104700000000000103004180000000000000000000000000000000000000000200000000006620SONIA MARIA DOS REMEDIOS                RUA SAO LUIZ, 11 CASA 2 - CANAL DO LEITAPRAIA DO SAC23860000MANGARATIBA    RJUNIAO UMB DOS CULTOS AFRO BRAS    30041810 000092
10231987175000168817800093673    000010856                    000108560000000000000109                     I0110856     30041800000000035003410000017N200218104700000000000103004180000000000000000000000000000000000000000200000000006612ELOISA SANT ANA                         RUA LINO DE MORAIS, 322 FUNDOS          REALENGO - R21730290RIO DE JANEIRO RJUNIAO UMB DOS CULTOS AFRO BRAS    30041810 000093
10231987175000168817800093673    000010855                    000108550000000000000109                     I0110855     30041800000000035003410000017N200218104700000000000103004180000000000000000000000000000000000000000200000000006600JULIA MARIA DA CONCEICAO                O MESMO                                 O MESMO     23823290ITAGUAI        RJUNIAO UMB DOS CULTOS AFRO BRAS    30041810 000094
10231987175000168817800093673    000010854                    000108540000000000000109                     I0110854     30041800000000035003410000017N200218104700000000000103004180000000000000000000000000000000000000000200000000006597ROSA MARIA PINHEIRO                     O MESMO                                 O MESMO     23826230ITAGUAI        RJUNIAO UMB DOS CULTOS AFRO BRAS    30041810 000095
10231987175000168817800093673    000010853                    000108530000000000000109                     I0110853     30041800000000035003410000017N200218104700000000000103004180000000000000000000000000000000000000000100098806181734PAULO ROMULO ALVES DE SOUZA             O MESMO                                 O MESMO     26021560NOVA IGUACU    RJUNIAO UMB DOS CULTOS AFRO BRAS    30041810 000096
10231987175000168817800093673    000010852                    000108520000000000000109                     I0110852     30041800000000035003410000017N200218104700000000000103004180000000000000000000000000000000000000000200000000006579LUIZ CLAUDIO BATISTA REIS               O MESMO                                 O MESMO     24315384NITEROI        RJUNIAO UMB DOS CULTOS AFRO BRAS    30041810 000097
10231987175000168817800093673    000010851                    000108510000000000000109                     I0110851     30041800000000035003410000017N200218104700000000000103004180000000000000000000000000000000000000000200000000006577MARIA DARLI BARBOSA                     O MESMO                                 O MESMO     23830000ITAGUAI        RJUNIAO UMB DOS CULTOS AFRO BRAS    30041810 000098
10231987175000168817800093673    000010850                    000108500000000000000109                     I0110850     30041800000000035003410000017N200218104700000000000103004180000000000000000000000000000000000000000200000000006576JOSELITA BATISTA DE OLIVEIRA            O MESMO                                 O MESMO     23830000ITAGUAI        RJUNIAO UMB DOS CULTOS AFRO BRAS    30041810 000099
10231987175000168817800093673    000010849                    000108490000000000000109                     I0110849     30041800000000035003410000017N200218104700000000000103004180000000000000000000000000000000000000000100044451318734NILZA MUNIZ FIRMINO                     RUA: PEDRO AMERICO                      COLUBANDE - 24450480SAO GONCALO    RJUNIAO UMB DOS CULTOS AFRO BRAS    30041810 000100
10231987175000168817800093673    000010848                    000108480000000000000109                     I0110848     30041800000000035003410000017N200218104700000000000103004180000000000000000000000000000000000000000100041602790744PAULO LEANDRO FONTES                    ESTRADA: UNIAO E INDUSTRIA              VOLTA REDOND25720062VOLTA REDONDA  RJUNIAO UMB DOS CULTOS AFRO BRAS    30041810 000101
10231987175000168817800093673    000010847                    000108470000000000000109                     I0110847     30041800000000035003410000017N200218104700000000000103004180000000000000000000000000000000000000000100068331428749IVANILDA DOS SANTOS                     RUA RIBEIRAO DO SUL LOTE 7 QUADRA 29    GUARATIBA - 23026590RIO DE JANEIRO RJUNIAO UMB DOS CULTOS AFRO BRAS    30041810 000102
10231987175000168817800093673    000010846                    000108460000000000000109                     I0110846     30041800000000035003410000017N200218104700000000000103004180000000000000000000000000000000000000000200000000006498MARIA LUCIA BENJAMIN DE FREITA          RUA: QUITO LOTE 12 QD 23 - JD PRIMAVERA DUQUE DE CAX25223150RIO DE JANEIRO RJUNIAO UMB DOS CULTOS AFRO BRAS    30041810 000103
10231987175000168817800093673    000010845                    000108450000000000000109                     I0110845     30041800000000035003410000017N200218104700000000000103004180000000000000000000000000000000000000000200000000006490JOANA MARIA JOSE BORGES                 ESTRADA: UNIAO E INDUSTRIA              ESTRADA: UNI25720062PINHEIRAL      RJUNIAO UMB DOS CULTOS AFRO BRAS    30041810 000104
10231987175000168817800093673    000010844                    000108440000000000000109                     I0110844     30041800000000035003410000017N200218104700000000000103004180000000000000000000000000000000000000000200000000006481SONIA MARIA RODRIGUES LONTRA M          O MESMO                                 O MESMO     23017240RIO DE JANEIRO RJUNIAO UMB DOS CULTOS AFRO BRAS    30041810 000105
10231987175000168817800093673    000010843                    000108430000000000000109                     I0110843     30041800000000035003410000017N200218104700000000000103004180000000000000000000000000000000000000000200000000006480VERA LUCIA DA CRUZ NEVES                O MESMO                                 O MESMO     23017210RIO DE JANEIRO RJUNIAO UMB DOS CULTOS AFRO BRAS    30041810 000106
10231987175000168817800093673    000010842                    000108420000000000000109                     I0110842     30041800000000035003410000017N200218104700000000000103004180000000000000000000000000000000000000000100001115386700DILZA TORRES PINTO DE JESUS             RUA: MARECHAL BARBEDO                   REALENGO - R21735340RIO DE JANEIRO RJUNIAO UMB DOS CULTOS AFRO BRAS    30041810 000107
10231987175000168817800093673    000010841                    000108410000000000000109                     I0110841     30041800000000035003410000017N200218104700000000000103004180000000000000000000000000000000000000000200000000006437DOLARINA CANDIDA DE JESUS               O MESMO                                 O MESMO     23585580RIO DE JANEIRO RJUNIAO UMB DOS CULTOS AFRO BRAS    30041810 000108
10231987175000168817800093673    000010840                    000108400000000000000109                     I0110840     30041800000000035003410000017N200218104700000000000103004180000000000000000000000000000000000000000200000000006430JONAS SILVA SIQUEIRA                    O MESMO                                 O MESMO     21670420RIO DE JANEIRO RJUNIAO UMB DOS CULTOS AFRO BRAS    30041810 000109
10231987175000168817800093673    000010839                    000108390000000000000109                     I0110839     30041800000000035003410000017N200218104700000000000103004180000000000000000000000000000000000000000100085789569749VALMIR DE SOUZA RIBEIRO                 O MESMO                                 O MESMO     21715080RIO DE JANEIRO RJUNIAO UMB DOS CULTOS AFRO BRAS    30041810 000110
10231987175000168817800093673    000010838                    000108380000000000000109                     I0110838     30041800000000035003410000017N200218104700000000000103004180000000000000000000000000000000000000000200000000006397LUIZ CARLOS AMATE                       RUA ITABIRA, 343                        BRAS DE PINA21215310RIO DE JANEIRO RJUNIAO UMB DOS CULTOS AFRO BRAS    30041810 000111
10231987175000168817800093673    000010837                    000108370000000000000109                     I0110837     30041800000000035003410000017N200218104700000000000103004180000000000000000000000000000000000000000100003350383793RITA DE CASSIA MOREIRA DA SILV          RUA ALBERTO TEIXEIRA DA CUNHA, 1160     CENTRO - NIL26520110NILOPOLIS      RJUNIAO UMB DOS CULTOS AFRO BRAS    30041810 000112
10231987175000168817800093673    000010836                    000108360000000000000109                     I0110836     30041800000000035003410000017N200218104700000000000103004180000000000000000000000000000000000000000100001796220728MARIA ROSA ALVES DA SILVA               RUA DOUTOR ARRUDA NEGREIRO N 100        SENHOR DO BO25025325DUQUE DE CAXIASRJUNIAO UMB DOS CULTOS AFRO BRAS    30041810 000113
10231987175000168817800093673    000010835                    000108350000000000000109                     I0110835     30041800000000035003410000017N200218104700000000000103004180000000000000000000000000000000000000000100071411780744ZULTAMAR MESQUITA DE ALMEIDA            RUA  CORONEL JOSE MUNIZ, 554            OLINDA  - NI26545060NILOPOLIS      RJUNIAO UMB DOS CULTOS AFRO BRAS    30041810 000114
10231987175000168817800093673    000010834                    000108340000000000000109                     I0110834     30041800000000035003410000017N200218104700000000000103004180000000000000000000000000000000000000000100034946018700SIDNEY ESTRELA EVANGELISTA              RUA ELZA SN QUADRA 34 LOTE 39           JARDIM GUANA26321020QUEIMADOS      RJUNIAO UMB DOS CULTOS AFRO BRAS    30041810 000115
10231987175000168817800093673    000010833                    000108330000000000000109                     I0110833     30041800000000035003410000017N200218104700000000000103004180000000000000000000000000000000000000000200000000000736REJANE VIEIRA GOMES                     RUA: TAPIRANGA                          RIO DE JANEI21775470RIO DE JANEIRO RJUNIAO UMB DOS CULTOS AFRO BRAS    30041810 000116
10231987175000168817800093673    000010832                    000108320000000000000109                     I0110832     30041800000000035003410000017N200218104700000000000103004180000000000000000000000000000000000000000200000000001019CELIO DELDUQUE                          RUA DOMINGOS PIRES, 181/183             PILARES  - R20750160RIO DE JANEIRO RJUNIAO UMB DOS CULTOS AFRO BRAS    30041810 000117
10231987175000168817800093673    000010831                    000108310000000000000109                     I0110831     30041800000000035003410000017N200218104700000000000103004180000000000000000000000000000000000000000200000000001428GABRIEL MENEZES                         RUA DA PAZ, 2                           PARQUE VALE 28940000SAO PEDRO DA ALRJUNIAO UMB DOS CULTOS AFRO BRAS    30041810 000118
10231987175000168817800093673    000010830                    000108300000000000000109                     I0110830     30041800000000035003410000017N200218104700000000000103004180000000000000000000000000000000000000000100030341108715SUELENA DA SILVA MARTINS                RUA PAULO DE AQUINO, 27                 ANCHIETA - R21645500RIO DE JANEIRO RJUNIAO UMB DOS CULTOS AFRO BRAS    30041810 000119
10231987175000168817800093673    000010829                    000108290000000000000109                     I0110829     30041800000000035003410000017N200218104700000000000103004180000000000000000000000000000000000000000100059135085720CELIA MARINHO VIEIRA                    RUA LOURIVAL ABREU SILVA, 565           SULACAP - RI21745760RIO DE JANEIRO RJUNIAO UMB DOS CULTOS AFRO BRAS    30041810 000120
10231987175000168817800093673    000010828                    000108280000000000000109                     I0110828     30041800000000035003410000017N200218104700000000000103004180000000000000000000000000000000000000000200000000005728MARIA JOSE DOS SANTOS                   RUA JOSE MARIOZZI FILHO, 990            PRAIA DA BRI23028400RIO DE JANEIRO RJUNIAO UMB DOS CULTOS AFRO BRAS    30041810 000121
10231987175000168817800093673    000010827                    000108270000000000000109                     I0110827     30041800000000035003410000017N200218104700000000000103004180000000000000000000000000000000000000000100003863156714VILMA TEREZA DE SOUZA AMARAL            RUA GUATEMALENSE, LOTE 7 QUADRA 32      JARDIM MERIT25555700SAO JOAO DE MERRJUNIAO UMB DOS CULTOS AFRO BRAS    30041810 000122
10231987175000168817800093673    000010826                    000108260000000000000109                     I0110826     30041800000000035003410000017N200218104700000000000103004180000000000000000000000000000000000000000100075300931772ALTAIR DE SOUZA COSTA                   RUA SETE DE SETEMBRO, LOTE 15 QUADRA 7 -CABUCU - NOV26293486NOVA IGUACU    RJUNIAO UMB DOS CULTOS AFRO BRAS    30041810 000123
10231987175000168817800093673    000010825                    000108250000000000000109                     I0110825     30041800000000035003410000017N200218104700000000000103004180000000000000000000000000000000000000000100043082033768LEILA RAMOS DE OLIVEIRA                 RUA CAPIBARIBE, 361                     CABUCU - NOV26346290NOVA IGUACU    RJUNIAO UMB DOS CULTOS AFRO BRAS    30041810 000124
10231987175000168817800093673    000010824                    000108240000000000000109                     I0110824     30041800000000035003410000017N200218104700000000000103004180000000000000000000000000000000000000000200000000005008ROSEMERE THEODORO DA SILVA              BECO ECA DE QUEIROZ, 26                 VILA SANTO A25040355DUQUE DE CAXIASRJUNIAO UMB DOS CULTOS AFRO BRAS    30041810 000125
10231987175000168817800093673    000010823                    000108230000000000000109                     I0110823     30041800000000035003410000017N200218104700000000000103004180000000000000000000000000000000000000000100054571715743VILMA OLIVEIRA DOS SANTOS               RUA CORREIA DIAS, 1066                  VIGARIO GERA21241310RIO DE JANEIRO RJUNIAO UMB DOS CULTOS AFRO BRAS    30041810 000126
10231987175000168817800093673    000010822                    000108220000000000000109                     I0110822     30041800000000035003410000017N200218104700000000000103004180000000000000000000000000000000000000000200000000001244JORGE LUCIO                             AVENIDA DOS ITALIANOS N 936 BLOCO A APT ROCHA MIRAND21510104RIO DE JANEIRO RJUNIAO UMB DOS CULTOS AFRO BRAS    30041810 000127
10231987175000168817800093673    000010821                    000108210000000000000109                     I0110821     30041800000000040003410000017N200218104700000000000103004180000000000000000000000000000000000000000100087292971768ANTONIA HERMINIA DA SILVA               RUA PROFESSOR SILVIO ELIAS              VARGEM GRAND22783235RIO DE JANEIRO RJUNIAO UMB DOS CULTOS AFRO BRAS    30041810 000128
10231987175000168817800093673    000010820                    000108200000000000000109                     I0110820     30041800000000035003410000017N200218104700000000000103004180000000000000000000000000000000000000000100003329195797LUCIANO JOAQUIM                         RUA PERUANA, LOTE 27 QUADRA 12          P. BARAO DO 25555540SAO JOAO DE MERRJUNIAO UMB DOS CULTOS AFRO BRAS    30041810 000129
10231987175000168817800093673    000010819                    000108190000000000000109                     I0110819     30041800000000035003410000017N200218104700000000000103004180000000000000000000000000000000000000000200000000005578SOLANGE DOS SANTOS SILVA                RUA QUATORZE, LOTE 35 CASA 131 -ARAUJO  CAMPO GRANDE23090370RIO DE JANEIRO RJUNIAO UMB DOS CULTOS AFRO BRAS    30041810 000130
10231987175000168817800093673    000010818                    000108180000000000000109                     I0110818     30041800000000035003410000017N200218104700000000000103004180000000000000000000000000000000000000000100035914661749CELSO NERY GALDARD                      RUA BENJAMIN DA ROCHA JUNIOR, 1 CASA 6  PARQUE FLUMI25045010DUQUE DE CAXIASRJUNIAO UMB DOS CULTOS AFRO BRAS    30041810 000131
10231987175000168817800093673    000010817                    000108170000000000000109                     I0110817     30041800000000035003410000017N200218104700000000000103004180000000000000000000000000000000000000000200000000005508CELIA REGINA OLIVEIRA DOS SANT          RUA  MINISTRO ARTHUR COSTA, 1283        JARDIM AMERI21240120RIO DE JANEIRO RJUNIAO UMB DOS CULTOS AFRO BRAS    30041810 000132
10231987175000168817800093673    000010816                    000108160000000000000109                     I0110816     30041800000000035003410000017N200218104700000000000103004180000000000000000000000000000000000000000100002804485706LEONOR CARINE COSTA WINTRICH            RUA ESTRELA, 24                         BONSUCESSO -21041070RIO DE JANEIRO RJUNIAO UMB DOS CULTOS AFRO BRAS    30041810 000133
10231987175000168817800093673    000010815                    000108150000000000000109                     I0110815     30041800000000035003410000017N200218104700000000000103004180000000000000000000000000000000000000000100002477166778BEATRIZ MIRANDA ABRANCHES               RUA GRUCAI, 657                         PENHA - RJ  21020250RIO DE JANEIRO RJUNIAO UMB DOS CULTOS AFRO BRAS    30041810 000134
10231987175000168817800093673    000010814                    000108140000000000000109                     I0110814     30041800000000035003410000017N200218104700000000000103004180000000000000000000000000000000000000000200000000005269SILVIA MARIA DE MOURA                   ESTRADA SANTA EFIGENIA, 461 CASA 14     TAQUARA - JA22775780RIO DE JANEIRO RJUNIAO UMB DOS CULTOS AFRO BRAS    30041810 000135
10231987175000168817800093673    000010813                    000108130000000000000109                     I0110813     30041800000000035003410000017N200218104700000000000103004180000000000000000000000000000000000000000100021153132753VALDAIR DE ABREU PEREIRA                RUA ITAPARA, 51                         BANGU - RJ  21840170RIO DE JANEIRO RJUNIAO UMB DOS CULTOS AFRO BRAS    30041810 000136
10231987175000168817800093673    000010812                    000108120000000000000109                     I0110812     30041800000000035003410000017N200218104700000000000103004180000000000000000000000000000000000000000100004550495723MARIA ADELAIDE DA SILVA PROFET          RUA ARACA, 552                          RICARDO DE A21620050RIO DE JANEIRO RJUNIAO UMB DOS CULTOS AFRO BRAS    30041810 000137
10231987175000168817800093673    000010811                    000108110000000000000109                     I0110811     30041800000000035003410000017N200218104700000000000103004180000000000000000000000000000000000000000200000000005090DENILZA THIMOTHEO ROZA                  RUA MARIO CARPENTER, 309 ENTRADA A APTO PILARES - RI20755062RIO DE JANEIRO RJUNIAO UMB DOS CULTOS AFRO BRAS    30041810 000138
10231987175000168817800093673    000010810                    000108100000000000000109                     I0110810     30041800000000035003410000017N200218104700000000000103004180000000000000000000000000000000000000000100000998809705LEDA GONCALVES MENDES                   RUA VINTE DE ABRIL, 5 CASA 2            CENTRO - QUE26327470QUEIMADOS      RJUNIAO UMB DOS CULTOS AFRO BRAS    30041810 000139
10231987175000168817800093673    000010809                    000108090000000000000109                     I0110809     30041800000000035003410000017N200218104700000000000103004180000000000000000000000000000000000000000200000000005061IDALINA DA COSTA PEREIRA                RUA BICUIBA, 458                        BANCO DE ARE26350140RIO DE JANEIRO RJUNIAO UMB DOS CULTOS AFRO BRAS    30041810 000140
10231987175000168817800093673    000010808                    000108080000000000000109                     I0110808     30041800000000035003410000017N200218104700000000000103004180000000000000000000000000000000000000000200000000005039MARIA DE SOUZA                          AVENIDA BELO HORIZONTE, 271             SAO GABRIEL 26021670NOVA IGUACU    RJUNIAO UMB DOS CULTOS AFRO BRAS    30041810 000141
10231987175000168817800093673    000010807                    000108070000000000000109                     I0110807     30041800000000035003410000017N200218104700000000000103004180000000000000000000000000000000000000000100058895780370ELZA MORAES DA SILVA                    RUA WALTER JOSE BRAGA, 19               PARQUE TELES25581171SAO JOAO DE MERRJUNIAO UMB DOS CULTOS AFRO BRAS    30041810 000142
10231987175000168817800093673    000010806                    000108060000000000000109                     I0110806     30041800000000035003410000017N200218104700000000000103004180000000000000000000000000000000000000000200000000001134JOSE CALASANS SILVA FILHO               RUA DAS AMETISTAS, 60                   ROCHA MIRAND22470040RIO DE JANEIRO RJUNIAO UMB DOS CULTOS AFRO BRAS    30041810 000143
10231987175000168817800093673    000010805                    000108050000000000000109                     I0110805     30041800000000035003410000017N200218104700000000000103004180000000000000000000000000000000000000000100095294236753ROSANE MOREIRA DE LIMA                  RUA IRIGUATI Nº 63                     OLARIA      21073320RIO DE JANEIRO RJUNIAO UMB DOS CULTOS AFRO BRAS    30041810 000144
10231987175000168817800093673    000010804                    000108040000000000000109                     I0110804     30041800000000035003410000017N200218104700000000000103004180000000000000000000000000000000000000000100084761512768MIRIAN ALVES DE AQUINO MALTOS           RUA ENGENHO DA RAINHA, 252              INHAUMA - RJ20765040RIO DE JANEIRO RJUNIAO UMB DOS CULTOS AFRO BRAS    30041810 000145
10231987175000168817800093673    000010803                    000108030000000000000109                     I0110803     30041800000000035003410000017N200218104700000000000103004180000000000000000000000000000000000000000100086919105772FLAVIO DA SILVA BARBOSA                 ESTRADA DO QUAFA, 678 RUA B LOTE 43     SANTISSIMO -23098030RIO DE JANEIRO RJUNIAO UMB DOS CULTOS AFRO BRAS    30041810 000146
10231987175000168817800093673    000010802                    000108020000000000000109                     I0110802     30041800000000035003410000017N200218104700000000000103004180000000000000000000000000000000000000000200000000001068ELAINE LOPES GONCALVES FALCAO           RUA TIUBA N 697 - VAZ LOBO              VAZ LOBO - R21371170RIO DE JANEIRO RJUNIAO UMB DOS CULTOS AFRO BRAS    30041810 000147
10231987175000168817800093673    000010801                    000108010000000000000109                     I0110801     30041800000000035003410000017N200218104700000000000103004180000000000000000000000000000000000000000100000441127770NOEMIA DINANTES GOMES                   RUA COELHO DA ROCHA N 596               AGOSTINHO PO25550690SAO JOAO DE MERRJUNIAO UMB DOS CULTOS AFRO BRAS    30041810 000148
10231987175000168817800093673    000010800                    000108000000000000000109                     I0110800     30041800000000035003410000017N200218104700000000000103004180000000000000000000000000000000000000000100062444654749NADIA DA CUNHA SANTOS                   ESTRADA DO CAFUNDA, 621                 TAQUARA - JA22725030RIO DE JANEIRO RJUNIAO UMB DOS CULTOS AFRO BRAS    30041810 000149
10231987175000168817800093673    000010799                    000107990000000000000109                     I0110799     30041800000000035003410000017N200218104700000000000103004180000000000000000000000000000000000000000100096073276753MARIA JOSE DA SILVA                     RUA MANOEL GAMA, LOTE 142               TOMAZINHO - 25525542SAO JOAO DE MERRJUNIAO UMB DOS CULTOS AFRO BRAS    30041810 000150
10231987175000168817800093673    000010798                    000107980000000000000109                     I0110798     30041800000000035003410000017N200218104700000000000103004180000000000000000000000000000000000000000100030995980820JOSE ANACLETO DE LIMA                   RUA FREDI EMANUEL, 144                  JARDIM JASMI26265110NOVA IGUACU    RJUNIAO UMB DOS CULTOS AFRO BRAS    30041810 000151
10231987175000168817800093673    000010797                    000107970000000000000109                     I0110797     30041800000000035003410000017N200218104700000000000103004180000000000000000000000000000000000000000100098456164704JUCEMAR DOS SANTOS ESTEVES              RUA ABEL DE ALVARENGA N 62              CHATUBA - ME26585000MESQUITA       RJUNIAO UMB DOS CULTOS AFRO BRAS    30041810 000152
10231987175000168817800093673    000010796                    000107960000000000000109                     I0110796     30041800000000035003410000017N200218104700000000000103004180000000000000000000000000000000000000000100060495901768ANA CRISTINA PAVAO BARONI               RUA TAMANDUATEI, 197                    JARDIM TROPI26012775NOVA IGUACU    RJUNIAO UMB DOS CULTOS AFRO BRAS    30041810 000153
10231987175000168817800093673    000010795                    000107950000000000000109                     I0110795     30041800000000035003410000017N200218104700000000000103004180000000000000000000000000000000000000000100000903948796MARIA VILANY DE OLIVEIRA BIEGL          RUA D SN LOTE 68 QUADRA 13              PARQUE SANTA25915000MAGE           RJUNIAO UMB DOS CULTOS AFRO BRAS    30041810 000154
10231987175000168817800093673    000010794                    000107940000000000000109                     I0110794     30041800000000035003410000017N200218104700000000000103004180000000000000000000000000000000000000000200000000000302MARIA DA LUZ MAGALHAES                  RUA JOSE FERREIRA MURRO, 20             MIGUEL COUTO26070527NOVA IGUACU    RJUNIAO UMB DOS CULTOS AFRO BRAS    30041810 000155
10231987175000168817800093673    000010793                    000107930000000000000109                     I0110793     30041800000000035003410000017N200218104700000000000103004180000000000000000000000000000000000000000100001322424780NELY MELIANO DOS SANTOS                 RUA JABOATAO, 50 QUADRA A               VILA ROSARIO25041020DUQUE DE CAXIASRJUNIAO UMB DOS CULTOS AFRO BRAS    30041810 000156
10231987175000168817800093673    000010792                    000107920000000000000109                     I0110792     30041800000000035003410000017N200218104700000000000103004180000000000000000000000000000000000000000100000744455707VERA LUCIA CALIXTO DA SILVA             O MESMO                                 O MESMO     27115410BARRA DO PIRAI RJUNIAO UMB DOS CULTOS AFRO BRAS    30041810 000157
10231987175000168817800093673    000010791                    000107910000000000000109                     I0110791     30041800000000035003410000017N200218104700000000000103004180000000000000000000000000000000000000000100042959586700GEORGINA COSTA ISABEL                   O MESMO                                 O MESMO     25015350DUQUE DE CAXIASRJUNIAO UMB DOS CULTOS AFRO BRAS    30041810 000158
10231987175000168817800093673    000010790                    000107900000000000000109                     I0110790     30041800000000035003410000017N200218104700000000000103004180000000000000000000000000000000000000000100033565708700MARLY DA SILVA UCHOA                    AVENIDA MINISTRO EDGARD ROMERO, 597 CASAMADUREIRA - 21360200RIO DE JANEIRO RJUNIAO UMB DOS CULTOS AFRO BRAS    30041810 000159
10231987175000168817800093673    000010789                    000107890000000000000109                     I0110789     30041800000000035003410000017N200218104700000000000103004180000000000000000000000000000000000000000100004125947732FABIO DA FONSECA PAES                   RUA JOAQUIM COUTO, 145                  VILA JURANDI25540370SAO JOAO DE MERRJUNIAO UMB DOS CULTOS AFRO BRAS    30041810 000160
10231987175000168817800093673    000010788                    000107880000000000000109                     I0110788     30041800000000035003410000017N200218104700000000000103004180000000000000000000000000000000000000000100001974559726ELIZABETH BRITO DE JESUS                O MESMO                                 O MESMO     21210000RIO DE JANEIRO RJUNIAO UMB DOS CULTOS AFRO BRAS    30041810 000161
10231987175000168817800093673    000010787                    000107870000000000000109                     I0110787     30041800000000035003410000017N200218104700000000000103004180000000000000000000000000000000000000000100063299615734MAGALI MAXIMO DE SOUZA                  O MESMO                                 O MESMO     26545460NILOPOLIS      RJUNIAO UMB DOS CULTOS AFRO BRAS    30041810 000162
10231987175000168817800093673    000010786                    000107860000000000000109                     I0110786     30041800000000035003410000017N200218104700000000000103004180000000000000000000000000000000000000000100060946563772FLORIPEDES MADUREIRA SIQUEIRA           AVENIDA PARAIBA, 210                    DOM BOSCO - 27286000VOLTA REDONDA  RJUNIAO UMB DOS CULTOS AFRO BRAS    30041810 000163
10231987175000168817800093673    000010785                    000107850000000000000109                     I0110785     30041800000000035003410000017N200218104700000000000103004180000000000000000000000000000000000000000100033434557768VALTER OLIVEIRA MAYRINCK                RUA SARGENTO OSMAR CLARO, 22            AMAZONAS - C23075180RIO DE JANEIRO RJUNIAO UMB DOS CULTOS AFRO BRAS    30041810 000164
10231987175000168817800093673    000010784                    000107840000000000000109                     I0110784     30041800000000035003410000017N200218104700000000000103004180000000000000000000000000000000000000000100004291038755MARIA DE FATIMA VIANA DE CARVA          RUA FERREIRA CHAVES, 701                VILA COSMOS 21221090RIO DE JANEIRO RJUNIAO UMB DOS CULTOS AFRO BRAS    30041810 000165
10231987175000168817800093673    000010783                    000107830000000000000109                     I0110783     30041800000000035003410000017N200218104700000000000103004180000000000000000000000000000000000000000100078542626753MARIA HELENA FELIX MARINHO              MESMO                                   O MESMO     21011060RIO DE JANEIRO RJUNIAO UMB DOS CULTOS AFRO BRAS    30041810 000166
10231987175000168817800093673    000010782                    000107820000000000000109                     I0110782     30041800000000035003410000017N200218104700000000000103004180000000000000000000000000000000000000000200000000005440DELIA VIEIRA DA COSTA                   RUA CAPITAO BORGES COUTO N 10 B         SENADOR CAMA21832300RIO DE JANEIRO RJUNIAO UMB DOS CULTOS AFRO BRAS    30041810 000167
10231987175000168817800093673    000010781                    000107810000000000000109                     I0110781     30041800000000035003410000017N200218104700000000000103004180000000000000000000000000000000000000000100031569250715JORGE FRANCISCO SANTOS                  EXPEDICIONARIO SEBASTIAO RIBEIRO, 142   COLUBANDE - 24451710SAO GONCALO    RJUNIAO UMB DOS CULTOS AFRO BRAS    30041810 000168
10231987175000168817800093673    000010780                    000107800000000000000109                     I0110780     30041800000000035003410000017N200218104700000000000103004180000000000000000000000000000000000000000100091919835768JORGETE SALGADO                         RUA PARAIM, 64 APTO 203                 ILHA DO GOVE21911050RIO DE JANEIRO RJUNIAO UMB DOS CULTOS AFRO BRAS    30041810 000169
10231987175000168817800093673    000010779                    000107790000000000000109                     I0110779     30041800000000035003410000017N200218104700000000000103004180000000000000000000000000000000000000000200000000005105DIVINA ANGELICA LOPES                   RUA ITAI, 296                           ANCHIETA - R21645300RIO DE JANEIRO RJUNIAO UMB DOS CULTOS AFRO BRAS    30041810 000170
10231987175000168817800093673    000010778                    000107780000000000000109                     I0110778     30041800000000035003410000017N200218104700000000000103004180000000000000000000000000000000000000000200000000001298IRENE DA SILVA CUPOLILLO                RUA VERA, 135                           CORDOVIL - R21012220RIO DE JANEIRO RJUNIAO UMB DOS CULTOS AFRO BRAS    30041810 000171
10231987175000168817800093673    000010777                    000107770000000000000109                     I0110777     30041800000000040003410000017N200218104700000000000103004180000000000000000000000000000000000000000100005206095737FLORIPES RAMOS DE FARIAS                RUA ONESIO MANOEL BELARMINO, 75         ANCHIETA  - 21625330RIO DE JANEIRO RJUNIAO UMB DOS CULTOS AFRO BRAS    30041810 000172
10231987175000168817800093673    000010776                    000107760000000000000109                     I0110776     30041800000000035003410000017N200218104700000000000103004180000000000000000000000000000000000000000100048685917700CELIO DO NASCIMENTO                     RUA DO CATETE, 123 CASA 4 APTO 101      CATETE - RIO22220000RIO DE JANEIRO RJUNIAO UMB DOS CULTOS AFRO BRAS    30041810 000173
10231987175000168817800093673    000010775                    000107750000000000000109                     I0110775     30041800000000035003410000017N200218104700000000000103004180000000000000000000000000000000000000000100055570720715ATILA CARDOSO DE LIMA                   RUA EUGENIO SOARES, 270                 CENTRO - MES26550007MESQUITA       RJUNIAO UMB DOS CULTOS AFRO BRAS    30041810 000174
10231987175000168817800093673    000010774                    000107740000000000000109                     I0110774     30041800000000035003410000017N200218104700000000000103004180000000000000000000000000000000000000000100081473885787CELIA DA SILVA ALEXANDRE                AVENIDA MARECHAL FONTENELE N 4311 RUA SELOTEAMENTO V21750000RIO DE JANEIRO RJUNIAO UMB DOS CULTOS AFRO BRAS    30041810 000175
10231987175000168817800093673    000010773                    000107730000000000000109                     I0110773     30041800000000035003410000017N200218104700000000000103004180000000000000000000000000000000000000000200000000000472JOANE ZAGALIA DA CUNHA                  RUA JABIRI, 365                         MARECHAL HER21615300MARECHAL HERMESRJUNIAO UMB DOS CULTOS AFRO BRAS    30041810 000176
10231987175000168817800093673    000010772                    000107720000000000000109                     I0110772     30041800000000035003410000017N200218104700000000000103004180000000000000000000000000000000000000000200000000000453JORGE JOSE RIVELO                       RUA MANDAGUARI LOTE 9 QUADRA 124        CURICICA - J22710120RIO DE JANEIRO RJUNIAO UMB DOS CULTOS AFRO BRAS    30041810 000177
10231987175000168817800093673    000010771                    000107710000000000000109                     I0110771     30041800000000350003410000017N200218104700000000000103004180000000000000000000000000000000000000000100047059770763MARIA MATHIAS DE OLIVEIRA               RUA CAMBUCI N 38                        MUQUECA - BA27140280BARRA DO PIRAI RJUNIAO UMB DOS CULTOS AFRO BRAS    30041810 000178
10231987175000168817800093673    000010770                    000107700000000000000109                     I0110770     30041800000000035003410000017N200218104700000000000103004180000000000000000000000000000000000000000100053011783772MARIA APARECIDA DA SILVA                RUA JOANA RESENDE, 61 - FAZENDA CAXIAS  SEROPEDICA -23836380RIO DE JANEIRO RJUNIAO UMB DOS CULTOS AFRO BRAS    30041810 000179
10231987175000168817800093673    000010769                    000107690000000000000109                     I0110769     30041800000000035003410000017N200218104700000000000103004180000000000000000000000000000000000000000100050713558768ANILSON DA SILVA                        TRAVESSA HELENA, CASA 19 ENTRADA 217    REALENGO - R21760620RIO DE JANEIRO RJUNIAO UMB DOS CULTOS AFRO BRAS    30041810 000180
10231987175000168817800093673    000010768                    000107680000000000000109                     I0110768     30041800000000035003410000017N200218104700000000000103004180000000000000000000000000000000000000000100066564689772CARLOS DE ARAUJO RIBEIRO                RUA DIVISORIA, 235                      BENTO RIBEIR21331250RIO DE JANEIRO RJUNIAO UMB DOS CULTOS AFRO BRAS    30041810 000181
10231987175000168817800093673    000010767                    000107670000000000000109                     I0110767     30041800000000035003410000017N200218104700000000000103004180000000000000000000000000000000000000000100003388076758ROSALINA MARIA NEVES                    RUA LAURINDO FILHO, 199 CASA 6          CASCADURA - 21370260RIO DE JANEIRO RJUNIAO UMB DOS CULTOS AFRO BRAS    30041810 000182
10231987175000168817800093673    000010766                    000107660000000000000109                     I0110766     30041800000000035003410000017N200218104700000000000103004180000000000000000000000000000000000000000100051328054772BALBINA MARIA DE JESUS DEOLIND          RUA DA FELICIDADE, 26                   BANGU - RIO 21862465RIO DE JANEIRO RJUNIAO UMB DOS CULTOS AFRO BRAS    30041810 000183
10231987175000168817800093673    000010765                    000107650000000000000109                     I0110765     30041800000000035003410000017N200218104700000000000103004180000000000000000000000000000000000000000100010518288722RODRIGO JOSE ABREU DOS SANTOS           RUA MARAVILHA, 298                      BANGU - RJ  21815150RIO DE JANEIRO RJUNIAO UMB DOS CULTOS AFRO BRAS    30041810 000184
10231987175000168817800093673    000010764                    000107640000000000000109                     I0110764     30041800000000035003410000017N200218104700000000000103004180000000000000000000000000000000000000000200000000005639MANOELLA MARIA DA CONCEICAO             RUA PIRES DO RIO, 928                   EDEN - SAO J25540510SAO JOAO DE MERRJUNIAO UMB DOS CULTOS AFRO BRAS    30041810 000185
10231987175000168817800093673    000010763                    000107630000000000000109                     I0110763     30041800000000035003410000017N200218104700000000000103004180000000000000000000000000000000000000000100044279388768THEREZA LEOCADIA DA COSTA               RUA VERA CRUZ, 12 - TRINTA E UM DE OUTUBPACIENCIA - 23585817RIO DE JANEIRO RJUNIAO UMB DOS CULTOS AFRO BRAS    30041810 000186
10231987175000168817800093673    000010762                    000107620000000000000109                     I0110762     30041800000000035003410000017N200218104700000000000103004180000000000000000000000000000000000000000100001077338708ANA MONICA FERREIRA DOS SANTOS          RUA ITAIR JOSE VELOSO, 101 CASA 2 - CONJPACIENCIA - 23587390RIO DE JANEIRO RJUNIAO UMB DOS CULTOS AFRO BRAS    30041810 000187
10231987175000168817800093673    000010761                    000107610000000000000109                     I0110761     30041800000000035003410000017N200218104700000000000103004180000000000000000000000000000000000000000100078759676787VANDA LUCIA LIMA DA SILVA               RUA ALMIRANTE JUSTINO PROENCA, 395      CAMPO GRANDE23090310RIO DE JANEIRO RJUNIAO UMB DOS CULTOS AFRO BRAS    30041810 000188
10231987175000168817800093673    000010760                    000107600000000000000109                     I0110760     30041800000000035003410000017N200218104700000000000103004180000000000000000000000000000000000000000100005412696740MONICA MIRALHA MESSINA                  O MESMO                                 O MESMO     21370350RIO DE JANEIRO RJUNIAO UMB DOS CULTOS AFRO BRAS    30041810 000189
10231987175000168817800093673    000010759                    000107590000000000000109                     I0110759     30041800000000035003410000017N200218104700000000000103004180000000000000000000000000000000000000000200000000006267MANOELINA MARIANA DA SILVA RIB          O MESMO                                 O MESMO     26540120NILOPOLIS      RJUNIAO UMB DOS CULTOS AFRO BRAS    30041810 000190
10231987175000168817800093673    000010758                    000107580000000000000109                     I0110758     30041800000000035003410000017N200218104700000000000103004180000000000000000000000000000000000000000100078991455700MARY LUCIA PEREIRA DA SILVA             RUA MONODORA, 95                        GARDENIA AZU22765590RIO DE JANEIRO RJUNIAO UMB DOS CULTOS AFRO BRAS    30041810 000191
10231987175000168817800093673    000010757                    000107570000000000000109                     I0110757     30041800000000035003410000017N200218104700000000000103004180000000000000000000000000000000000000000200000000005779SANDRA MARIA DOS SANTOS DA SIL          RUA AMILTON FERNANDES, 77 - JARDIM NOVO REALENGO - R21760370RIO DE JANEIRO RJUNIAO UMB DOS CULTOS AFRO BRAS    30041810 000192
10231987175000168817800093673    000010756                    000107560000000000000109                     I0110756     30041800000000035003410000017N200218104700000000000103004180000000000000000000000000000000000000000100074624792234MARILZA COSTA FERREIRA                  RUA INHANDUI, 128                       BENFICA - RJ20930120RIO DE JANEIRO RJUNIAO UMB DOS CULTOS AFRO BRAS    30041810 000193
10231987175000168817800093673    000010755                    000107550000000000000109                     I0110755     30041800000000035003410000017N200218104700000000000103004180000000000000000000000000000000000000000100011039470793ZENY FILIPPE DE CASTRO                  RUA PROFESSOR PLINIO OLINDO, 102        PADRE MIGUEL21860160RIO DE JANEIRO RJUNIAO UMB DOS CULTOS AFRO BRAS    30041810 000194
10231987175000168817800093673    000010754                    000107540000000000000109                     I0110754     30041800000000035003410000017N200218104700000000000103004180000000000000000000000000000000000000000100001080847790BENTO FRANCISCO DE LIMA NETO            RUA PITANGAS, 36 A - TIJUQUINHA         BARRA DA TIJ22713330RIO DE JANEIRO RJUNIAO UMB DOS CULTOS AFRO BRAS    30041810 000195
10231987175000168817800093673    000010753                    000107530000000000000109                     I0110753     30041800000000035003410000017N200218104700000000000103004180000000000000000000000000000000000000000200000000006239NEUZA SANTOS DE BRITO                   ESTRADA DO MOINHO, 2373                 CAMPO GRANDE23040550RIO DE JANEIRO RJUNIAO UMB DOS CULTOS AFRO BRAS    30041810 000196
10231987175000168817800093673    000010752                    000107520000000000000109                     I0110752     30041800000000035003410000017N200218104700000000000103004180000000000000000000000000000000000000000100010949478733AUCELIA MARIA DE SOUZA LIMA             RUA JOSE FRANCISCO DE SOUZA PORTO, 229  ARNALDO EUGE23016010RIO DE JANEIRO RJUNIAO UMB DOS CULTOS AFRO BRAS    30041810 000197
10231987175000168817800093673    000010751                    000107510000000000000109                     I0110751     30041800000000035003410000017N200218104700000000000103004180000000000000000000000000000000000000000200000000006204MARIA DAS DORES SANTOS                  ESTRADA DO AREAL, 4                     BOA VISTA DA27165000BARRA DO PIRAI RJUNIAO UMB DOS CULTOS AFRO BRAS    30041810 000198
10231987175000168817800093673    000010750                    000107500000000000000109                     I0110750     30041800000000035003410000017N200218104700000000000103004180000000000000000000000000000000000000000200000000006165ELISABETE JORDAO DOS SANTOS             RUA GENERAL MANOEL RABELO, 1025         VILA SAO LUI25065050DUQUE DE CAXIASRJUNIAO UMB DOS CULTOS AFRO BRAS    30041810 000199
10231987175000168817800093673    000010749                    000107490000000000000109                     I0110749     30041800000000035003410000017N200218104700000000000103004180000000000000000000000000000000000000000200000000006160ADIR GOMES DA SILVA                     RUA DOUTOR JOSE THOMAS, 85              PAVUNA - RIO21520020RIO DE JANEIRO RJUNIAO UMB DOS CULTOS AFRO BRAS    30041810 000200
10231987175000168817800093673    000010748                    000107480000000000000109                     I0110748     30041800000000035003410000017N200218104700000000000103004180000000000000000000000000000000000000000200000000006133JOSE CARLOS DE OLIVEIRA                 RUA NICOLAU TOLENTINO, 315              CALIFORNIA -27163000BARRA DO PIRAI RJUNIAO UMB DOS CULTOS AFRO BRAS    30041810 000201
10231987175000168817800093673    000010747                    000107470000000000000109                     I0110747     30041800000000035003410000017N200218104700000000000103004180000000000000000000000000000000000000000100049720147768LEDA MARIA DOS SANTOS LEAL              RUA JOSE FIRMINO DE MELO, 247           QUIMICA - BA27130360BARRA DO PIRAI RJUNIAO UMB DOS CULTOS AFRO BRAS    30041810 000202
10231987175000168817800093673    000010746                    000107460000000000000109                     I0110746     30041800000000035003410000017N200218104700000000000103004180000000000000000000000000000000000000000200000000006076CLEIA DE OLIVEIRA                       RUA FRANCISCO FRANCO, 134               REPRESA - BA27135110BARRA DO PIRAI RJUNIAO UMB DOS CULTOS AFRO BRAS    30041810 000203
10231987175000168817800093673    000010745                    000107450000000000000109                     I0110745     30041800000000035003410000017N200218104700000000000103004180000000000000000000000000000000000000000200000000006073ARACI AMELIA DA SILVA RIBEIRO           RUA ALIPIO GOMES DOS SANTOS, 493        JARDIM AMERI27340230BARRA DO PIRAI RJUNIAO UMB DOS CULTOS AFRO BRAS    30041810 000204
10231987175000168817800093673    000010744                    000107440000000000000109                     I0110744     30041800000000035003410000017N200218104700000000000103004180000000000000000000000000000000000000000100067859372720MARLI MOREIRA ROSA CERQUEIRA            RUA DO POVO 11                          SANTO AGOSTI27214300VOLTA REDONDA  RJUNIAO UMB DOS CULTOS AFRO BRAS    30041810 000205
10231987175000168817800093673    000010743                    000107430000000000000109                     I0110743     30041800000000040003410000017N200218104700000000000103004180000000000000000000000000000000000000000100004245577703FERNANDA MEDEIROS VIANA                 RUA TOROPI  LOTE 7 QUADRA 29 FUNDOS     HELIOPOLIS  26123380BELFORD ROXO   RJUNIAO UMB DOS CULTOS AFRO BRAS    30041810 000206
10231987175000168817800093673    000010742                    000107420000000000000109                     I0110742     30041800000000035003410000017N200218104700000000000103004180000000000000000000000000000000000000000200000000005978NEUZA MORAES TAVARES                    RUA RUBENS BARCELLOS, 207               VILA ORLANDE27325260BARRA MANSA    RJUNIAO UMB DOS CULTOS AFRO BRAS    30041810 000207
10231987175000168817800093673    000010741                    000107410000000000000109                     I0110741     30041800000000035003410000017N200218104700000000000103004180000000000000000000000000000000000000000100053768175715DAMIANA MARTINS DA SILVA                RUA ARABORI, 262                        ROCHA MIRAND21545120RIO DE JANEIRO RJUNIAO UMB DOS CULTOS AFRO BRAS    30041810 000208
10231987175000168817800093673    000010740                    000107400000000000000109                     I0110740     30041800000000035003410000017N200218104700000000000103004180000000000000000000000000000000000000000100003761710739ALMIRA DE SOUZA SANTOS                  RUA CARMELITA DE JESUS, LOTE 6 QUADRA 3 ELISA MARIA 23076440RIO DE JANEIRO RJUNIAO UMB DOS CULTOS AFRO BRAS    30041810 000209
10231987175000168817800093673    000010739                    000107390000000000000109                     I0110739     30041800000000035003410000017N200218104700000000000103004180000000000000000000000000000000000000000200000000005873JOSE AUGUSTO COELHO DE MENEZES          ESTRADA DA BOIUNA, 2450 - JARDIM BOIUNA TAQUARA - JA22741970RIO DE JANEIRO RJUNIAO UMB DOS CULTOS AFRO BRAS    30041810 000210
10231987175000168817800093673    000010738                    000107380000000000000109                     I0110738     30041800000000035003410000017N200218104700000000000103004180000000000000000000000000000000000000000100090882687700JUCIARA DE SOUZA CAMPOS                 RUA DEMOSTENES, 116                     JARDIM GLAUC26195500BELFORD ROXO   RJUNIAO UMB DOS CULTOS AFRO BRAS    30041810 000211
10231987175000168817800093673    000010737                    000107370000000000000109                     I0110737     30041800000000035003410000017N200218104700000000000103004180000000000000000000000000000000000000000200000000001219IOLANDA CUSTODIA DA ROSA                RUA CLODOMIR LUCAS DOS REIS, 14         CURICICA - J22713562RIO DE JANEIRO RJUNIAO UMB DOS CULTOS AFRO BRAS    30041810 000212
10231987175000168817800093673    000010736                    000107360000000000000109                     I0110736     30041800000000035003410000017N200218104700000000000103004180000000000000000000000000000000000000000200000000005089JORGE LUIS DAS NEVES OLIVEIRA           RUA FRANCISCO DE ALMEIDA LOTE 23 QUADRA SAO FRANCISC26350050NOVA IGUACU    RJUNIAO UMB DOS CULTOS AFRO BRAS    30041810 000213
10231987175000168817800093673    000010735                    000107350000000000000109                     I0110735     30041800000000035003410000017N200218104700000000000103004180000000000000000000000000000000000000000200000000001355VALDEA PEREIRA SIQUEIRA                 RUA BORDA DO MATO, 415                  GRAJAU - RIO20561200RIO DE JANEIRO RJUNIAO UMB DOS CULTOS AFRO BRAS    30041810 000214
10231987175000168817800093673    000010734                    000107340000000000000109                     I0110734     30041800000000035003410000017N200218104700000000000103004180000000000000000000000000000000000000000200000000001330JORGE ALAN COSTA DE CASTRO              RUA CAPITAO MARIO NOVAES, 87            CENTRO - BAR27123110BARRA DO PIRAI RJUNIAO UMB DOS CULTOS AFRO BRAS    30041810 000215
10231987175000168817800093673    000010733                    000107330000000000000109                     I0110733     30041800000000035003410000017N200218104700000000000103004180000000000000000000000000000000000000000200000000001308CACILDA AQUINO DOS SANTOS               RUA CATULO CEARENSE, 119                MEIER  - RJ 20730320RIO DE JANEIRO RJUNIAO UMB DOS CULTOS AFRO BRAS    30041810 000216
10231987175000168817800093673    000010732                    000107320000000000000109                     I0210732     30041800000000035003410000017N200218104700000000000103004180000000000000000000000000000000000000000100004792985722MARIA LUIZA BONIFACIO DA SILVA          RUA SAO MARIANO SCOTT, 63               PRACA SECA -21321290RIO DE JANEIRO RJUNIAO UMB DOS CULTOS AFRO BRAS    30041810 000217
10231987175000168817800093673    000010731                    000107310000000000000109                     I0110731     30041800000000035003410000017N200218104700000000000103004180000000000000000000000000000000000000000100080266592791ROSINEA DA SILVA CARDOSO                TRAVESSA GITAI, 190 CASA 3              COLONIA - JA22713566RIO DE JANEIRO RJUNIAO UMB DOS CULTOS AFRO BRAS    30041810 000218
10231987175000168817800093673    000010730                    000107300000000000000109                     I0110730     30041800000000035003410000017N200218104700000000000103004180000000000000000000000000000000000000000200000000001155REINALDO GONCALVES DA ROCHA             RUA FATIMA, 13 C                        JACAREPAGUA 22713570RIO DE JANEIRO RJUNIAO UMB DOS CULTOS AFRO BRAS    30041810 000219
10231987175000168817800093673    000010729                    000107290000000000000109                     I0110729     30041800000000035003410000017N200218104700000000000103004180000000000000000000000000000000000000000100001655794710ADRIANA QUEIROZ DE ARAUJO SOAR          RUA: SAMPAIO CORREIA Nº 113 - COLONIA  JACAREPAGUA 22713371RIO DE JANEIRO RJUNIAO UMB DOS CULTOS AFRO BRAS    30041810 000220
10231987175000168817800093673    000010728                    000107280000000000000109                     I0110728     30041800000000035003410000017N200218104700000000000103004180000000000000000000000000000000000000000200000000001151MARIA APARECIDA LOPES DA SILVA          AV SAMPAIO CORREA Nº 109 - COLONIA     JACAREPAGUA 22713650RIO DE JANEIRO RJUNIAO UMB DOS CULTOS AFRO BRAS    30041810 000221
10231987175000168817800093673    000010727                    000107270000000000000109                     I0110727     30041800000000035003410000017N200218104700000000000103004180000000000000000000000000000000000000000200000000000896LENIR SILVA MAFRA                       RUA JOAO BARBALHO, 455                  QUINTINO BOC20740010RIO DE JANEIRO RJUNIAO UMB DOS CULTOS AFRO BRAS    30041810 000222
10231987175000168817800093673    000010726                    000107260000000000000109                     I0110726     30041800000000035003410000017N200218104700000000000103004180000000000000000000000000000000000000000200000000000842IDINEIA RIBEIRO DE AZEVEDO              RUA MOZOLANDIA LOTE 27 QUADRA 105       GUARATIBA - 21660260RIO DE JANEIRO RJUNIAO UMB DOS CULTOS AFRO BRAS    30041810 000223
10231987175000168817800093673    000010725                    000107250000000000000109                     I0110725     30041800000000035003410000017N200218104700000000000103004180000000000000000000000000000000000000000200000000000723ROSA MONIQUE SPIZA DA SILVA             RUA COSTA JUNIOR, 11                    VILA KENEDY 21853280RIO DE JANEIRO RJUNIAO UMB DOS CULTOS AFRO BRAS    30041810 000224
10231987175000168817800093673    000010724                    000107240000000000000109                     I0110724     30041800000000035003410000017N200218104700000000000103004180000000000000000000000000000000000000000100001686254741ADELIA DE OLIVEIRA AZEVEDO              RUA CORONEL CAMISAO N 842               VISTA ALEGRE21250290RIO DE JANEIRO RJUNIAO UMB DOS CULTOS AFRO BRAS    30041810 000225
10231987175000168817800093673    000010723                    000107230000000000000109                     I0110723     30041800000000035003410000017N200218104700000000000103004180000000000000000000000000000000000000000200000000000614VERA REGINA GONCALVES                   RUA ANTONIO ALVES, 417                  COSTA BARROS21650020RIO DE JANEIRO RJUNIAO UMB DOS CULTOS AFRO BRAS    30041810 000226
10231987175000168817800093673    000010722                    000107220000000000000109                     I0110722     30041800000000035003410000017N200218104700000000000103004180000000000000000000000000000000000000000100083780262720MARIA JOANA DOROTEIA DE PAULA           ESTRADA MERINGUAVA, 701 PINHEIRO 11     TAQUARA - JA22725442RIO DE JANEIRO RJUNIAO UMB DOS CULTOS AFRO BRAS    30041810 000227
10231987175000168817800093673    000010721                    000107210000000000000109                     I0110721     30041800000000035003410000017N200218104700000000000103004180000000000000000000000000000000000000000100004728238768MARIA JOSE ILARIO MANGUEIRA             ESTRADA DA AGUA BRANCA, 2160            REALENGO - R21730000RIO DE JANEIRO RJUNIAO UMB DOS CULTOS AFRO BRAS    30041810 000228
10231987175000168817800093673    000010720                    000107200000000000000109                     I0110720     30031800000000035003410000017N200218104700000000000103003180000000000000000000000000000000000000000100000227210700ROSIMAR TELLES DE SA                    RUA: ACAPU                              MARECHAL HER21550570RIO DE JANEIRO RJUNIAO UMB DOS CULTOS AFRO BRAS    30031810 000229
10231987175000168817800093673    000010719                    000107190000000000000109                     I0110719     30031800000000035003410000017N200218104700000000000103003180000000000000000000000000000000000000000100000919377793JOSE IVAN MARCELINO FILHO               RUA ERNANE PEREIRA                      CARLOS SAMPA26089115NOVA IGUACU    RJUNIAO UMB DOS CULTOS AFRO BRAS    30031810 000230
10231987175000168817800093673    000010718                    000107180000000000000109                     I0110718     30031800000000035003410000017N200218104700000000000103003180000000000000000000000000000000000000000100001649750714CRISTIANE JOSE DA SILVA                 AVENIDA CALOMBE                         PARQUE ELDOR25231020DUQUE DE CAXIASRJUNIAO UMB DOS CULTOS AFRO BRAS    30031810 000231
10231987175000168817800093673    000010717                    000107170000000000000109                     I0110717     30031800000000040003410000017N200218104700000000000103003180000000000000000000000000000000000000000100011700984799CRISTIANE SANTOS FEIJO VIEIRA           RUA NICOLAU TOUQUET                     JARDIM CATAR24716403SAO GONCALO    RJUNIAO UMB DOS CULTOS AFRO BRAS    30031810 000232
10231987175000168817800093673    000010716                    000107160000000000000109                     I0110716     30031800000000035003410000017N200218104700000000000103003180000000000000000000000000000000000000000100012345678900MARIA DA GRACA MACHADO DOS SAN          RUA ARCOBELO                            PARQUE ARARU25585560SAO JOAO DE MERRJUNIAO UMB DOS CULTOS AFRO BRAS    30031810 000233
10231987175000168817800093673    000010715                    000107150000000000000109                     I0110715     30031800000000035003410000017N200218104700000000000103003180000000000000000000000000000000000000000100004278587716LUCIANO GONCALVES PIRES                 RUA MARECHAL ANTONIO DE SOUSA           JARDIM AMERI21240430RIO DE JANEIRO RJUNIAO UMB DOS CULTOS AFRO BRAS    30031810 000234
10231987175000168817800093673    000010714                    000107140000000000000109                     I0110714     30031800000000040003410000017N200218104700000000000103003180000000000000000000000000000000000000000100001413508731MARLENE TRAVASSOS DA SILVA              RUA SAO LUIZ GONZAGA                    SAO CRISTOVA20910061RIO DE JANEIRO RJUNIAO UMB DOS CULTOS AFRO BRAS    30031810 000235
10231987175000168817800093673    000010713                    000107130000000000000109                     I0110713     30031800000000035003410000017N200218104700000000000103003180000000000000000000000000000000000000000100010154945790SIMONE DE OLIVEIRA CUNHA                RUA ONZE                                JARDIM ROTSE25270080DUQUE DE CAXIASRJUNIAO UMB DOS CULTOS AFRO BRAS    30031810 000236
10231987175000168817800093673    000010712                    000107120000000000000109                     I0110712     30031800000000040003410000017N200218104700000000000103003180000000000000000000000000000000000000000100005234258726LUANNA RODRIGUES NASCIMENTO LO          RUA HERACLITO BUSQUET                   TABORDA     28680000CACHOEIRA DE MARJUNIAO UMB DOS CULTOS AFRO BRAS    30031810 000237
10231987175000168817800093673    000010711                    000107110000000000000109                     I0110711     30031800000000040003410000017N200218104700000000000103003180000000000000000000000000000000000000000100005770480742NARAYAMA MARTINS RODRIGUES LOU          RUA HERACLITO BUSQUET                   TABORDA     28680000CACHOEIRA DE MARJUNIAO UMB DOS CULTOS AFRO BRAS    30031810 000238
10231987175000168817800093673    000010710                    000107100000000000000109                     I0110710     30031800000000040003410000017N200218104700000000000103003180000000000000000000000000000000000000000100002965368736REGINA CONCEICAO                        AVENIDA BOQUEIRAO                       BOA VISTA   28680000CACHOEIRA DE MARJUNIAO UMB DOS CULTOS AFRO BRAS    30031810 000239
10231987175000168817800093673    000010709                    000107090000000000000109                     I0110709     30031800000000040003410000017N200218104700000000000103003180000000000000000000000000000000000000000100009963194761FERNANDO PECANHA PIRES                  RUA GENERAL BASILIO                     TABORDA     28680000CACHOEIRA DE MARJUNIAO UMB DOS CULTOS AFRO BRAS    30031810 000240
10231987175000168817800093673    000010708                    000107080000000000000109                     I0110708     30031800000000035003410000017N200218104700000000000103003180000000000000000000000000000000000000000100009491065777VIVIAN LUIZA FREITAS DE AGUIAR          RUA ITAPETININGA                        VICENTE DE C21370680RIO DE JANEIRO RJUNIAO UMB DOS CULTOS AFRO BRAS    30031810 000241
10231987175000168817800093673    000010707                    000107070000000000000109                     I0110707     30031800000000035003410000017N200218104700000000000103003180000000000000000000000000000000000000000100002331392730ANA MARIA DOS SANTOS VIEIRA             RUA CRUZ DE SOUZA                       CARMARY POSS26022281NOVA IGUACU    RJUNIAO UMB DOS CULTOS AFRO BRAS    30031810 000242
10231987175000168817800093673    000010706                    000107060000000000000109                     I0110706     30031800000000035003410000017N200218104700000000000103003180000000000000000000000000000000000000000100005964958702MARISLEY AMARO DE SOUZA                 RUA MONTE ALTO                          BANGU       21863010RIO DE JANEIRO RJUNIAO UMB DOS CULTOS AFRO BRAS    30031810 000243
10231987175000168817800093673    000010705                    000107050000000000000109                     I0110705     30031800000000035003410000017N200218104700000000000103003180000000000000000000000000000000000000000100003018847733MARIA AILHA BERNARDO PINTO              RUA RUBIAO JUNIOR                       CENTRO      23860000MANGARATIBA    RJUNIAO UMB DOS CULTOS AFRO BRAS    30031810 000244
10231987175000168817800093673    000010704                    000107040000000000000109                     I0110704     30031800000000035003410000017N200218104700000000000103003180000000000000000000000000000000000000000100089207963787NICEIA SANTOS FRANCA                    RUA SAPUCAI - BECO DO JORDAO            SANTA CRUZ  23550360RIO DE JANEIRO RJUNIAO UMB DOS CULTOS AFRO BRAS    30031810 000245
10231987175000168817800093673    000010703                    000107030000000000000109                     I0110703     30031800000000035003410000017N200218104700000000000103003180000000000000000000000000000000000000000100012345678910LUCIANO GONCALVES DE SOUZA              RUA CLARIMUNDO DE MELO                  PIEDADE     20740323RIO DE JANEIRO RJUNIAO UMB DOS CULTOS AFRO BRAS    30031810 000246
10231987175000168817800093673    000010702                    000107020000000000000109                     I0110702     30031800000000035003410000017N200218104700000000000103003180000000000000000000000000000000000000000100001162883707SUNEY MENEZES MACHADO                   ESTRADA: DO ENCANAMENTO                 BARBADO - CA23060000RIO DE JANEIRO RJUNIAO UMB DOS CULTOS AFRO BRAS    30031810 000247
10231987175000168817800093673    000010701                    000107010000000000000109                     I0110701     30031800000000035003410000017N200218104700000000000103003180000000000000000000000000000000000000000100004275325745MAIKE OLIVEIRA DA COSTA                 TRAVESSA: MARTA DA ROCHA                ABOLICAO    20755030RIO DE JANEIRO RJUNIAO UMB DOS CULTOS AFRO BRAS    30031810 000248
10231987175000168817800093673    000010700                    000107000000000000000109                     I0110700     30031800000000035003410000017N200218104700000000000103003180000000000000000000000000000000000000000100007852297790IRENE FRANCISCO LIMA                    RUA: VIRGILIO VARZEA                    VILA SAO LUI25051110DUQUE DE CAXIASRJUNIAO UMB DOS CULTOS AFRO BRAS    30031810 000249
