01REMESSA01COBRANCA       817800093673        União Umb dos Cultos Afro Bra341BANCO ITAU SA  190619                                                                                                                                                                                                                                                                                                      000001
10231987175000168817800093673    000048300                    000483000000000000000109                     I0248300     30091900000000040003410000017N100619105700000000000133009190000000000000000000000000000000000000000100001015032702GABRIEL MENEZES                         RUA DA PAZN 2,                          COLINA      28942728SAO PEDRO DA ALRJUNIAO UMB DOS CULTOS AFRO BRAS    30091915 000002
21300920190000000000080                                                                                                                                                                                                                                                                                                                                                                                   000003
10231987175000168817800093673    000046865                    000468650000000000000109                     I0246865     30081900000000040003410000017N100619105700000000000133008190000000000000000000000000000000000000000100001015032702GABRIEL MENEZES                         RUA DA PAZN 2,                          COLINA      28942728SAO PEDRO DA ALRJUNIAO UMB DOS CULTOS AFRO BRAS    30081915 000004
21300820190000000000080                                                                                                                                                                                                                                                                                                                                                                                   000005
10231987175000168817800093673    000045891                    000458910000000000000109                     I0245891     30071900000000040003410000017N100619105700000000000133007190000000000000000000000000000000000000000100091228239720MIRIAN DA SILVA PEREIRA                 RUA DUARTE DE AZEVEDON 46,              TURIACU     21550130RIO DE JANEIRO RJUNIAO UMB DOS CULTOS AFRO BRAS    30071915 000006
21300720190000000000080                                                                                                                                                                                                                                                                                                                                                                                   000007
10231987175000168817800093673    000045444                    000454440000000000000109                     I0245444     30071900000000040003410000017N100619105700000000000133007190000000000000000000000000000000000000000100001015032702GABRIEL MENEZES                         RUA DA PAZN 2,                          COLINA      28942728SAO PEDRO DA ALRJUNIAO UMB DOS CULTOS AFRO BRAS    30071915 000008
21300720190000000000080                                                                                                                                                                                                                                                                                                                                                                                   000009
9                                                                                                                                                                                                                                                                                                                                                                                                         000010
