01REMESSA01COBRANCA       916200163100        União Umb dos Cultos Afro Bra341BANCO ITAU SA  130319                                                                                                                                                                                                                                                                                                      000001
10231987175000168916200163100    000043806                    000438060000000000000109                     I0143806     30061900000000040003410000017N130319104700000000000103006190000000000000000000000000000000000000000100052256073734AROLDO GOMES SOARES                     AVENIDA IMPERADORN 11, FUNDOS - JARDIM DPRAIA DE MAU25900000MAGE           RJUNIAO UMB DOS CULTOS AFRO BRAS    30061910 000002
10231987175000168916200163100    000043805                    000438050000000000000109                     I0143805     30061900000000040003410000017N130319104700000000000103006190000000000000000000000000000000000000000100097181935704ANDREA MARTINS SANTANA                  RUA AMANDIUN 344,                       IRAJA       21371440RIO DE JANEIRO RJUNIAO UMB DOS CULTOS AFRO BRAS    30061910 000003
10231987175000168916200163100    000043804                    000438040000000000000109                     I0143804     30061900000000040003410000017N130319104700000000000103006190000000000000000000000000000000000000000100039182010749HUGO EDSON RODRIGUES DOS SANTO          RUA QUINTILIANO DA FONSECAN 406,        COLUBANDE   24451250SAO GONCALO    RJUNIAO UMB DOS CULTOS AFRO BRAS    30061910 000004
10231987175000168916200163100    000043803                    000438030000000000000109                     I0143803     30061900000000040003410000017N130319104700000000000103006190000000000000000000000000000000000000000100003533022790ELAINE LIMA FERREIRA DA COSTA           RUA HEBER DE BOSCOLIN 71,               VILA ISABEL 20551110RIO DE JANEIRO RJUNIAO UMB DOS CULTOS AFRO BRAS    30061910 000005
10231987175000168916200163100    000043802                    000438020000000000000109                     I0143802     30061900000000040003410000017N130319104700000000000103006190000000000000000000000000000000000000000100050262319772NELCY MARIA DE MATTOS                   RUA FILADELFIAN 0,  LOTE 15 QUADRA 1    MONJOLO     24723365SAO GONCALO    RJUNIAO UMB DOS CULTOS AFRO BRAS    30061910 000006
10231987175000168916200163100    000043801                    000438010000000000000109                     I0143801     30061900000000040003410000017N130319104700000000000103006190000000000000000000000000000000000000000100099029359749ANDRE LUIZ REIS GRACIO                  RUA PIRAMBOIA N 130,                    SENADOR VASC23012300RIO DE JANEIRO RJUNIAO UMB DOS CULTOS AFRO BRAS    30061910 000007
10231987175000168916200163100    000043800                    000438000000000000000109                     I0143800     30061900000000040003410000017N130319104700000000000103006190000000000000000000000000000000000000000100063345862700GLORIA MARIA DAMASCENO DE OLIV          AVENIDA JOSE MARIANO PASSOS N 1495,     CENTRO      26130570BELFORD ROXO   RJUNIAO UMB DOS CULTOS AFRO BRAS    30061910 000008
10231987175000168916200163100    000043799                    000437990000000000000109                     I0143799     30061900000000040003410000017N130319104700000000000103006190000000000000000000000000000000000000000100002096604737GISELLE BRAGA TORRES DE SOUZA           RUA: LEOPOLDINA REGO N 619, AP 1005     OLARIA      21021523RIO DE JANEIRO RJUNIAO UMB DOS CULTOS AFRO BRAS    30061910 000009
10231987175000168916200163100    000043798                    000437980000000000000109                     I0143798     30061900000000040003410000017N130319104700000000000103006190000000000000000000000000000000000000000100077165772715EDNA SANTOS DA TRINDADE                 ESTRADA DO PIAIN 3910, QUADRA B CASA 7  SEPETIBA    23530610RIO DE JANEIRO RJUNIAO UMB DOS CULTOS AFRO BRAS    30061910 000010
10231987175000168916200163100    000043797                    000437970000000000000109                     I0143797     30061900000000040003410000017N130319104700000000000103006190000000000000000000000000000000000000000100033151440797LAUDICEIA FERRO DOS SANTOS              RUA ADISABELN 0, LOTE 10 QUADRA 39      NOVA AURORA 26155110BELFORD ROXO   RJUNIAO UMB DOS CULTOS AFRO BRAS    30061910 000011
10231987175000168916200163100    000043796                    000437960000000000000109                     I0143796     30061900000000040003410000017N130319104700000000000103006190000000000000000000000000000000000000000100040229637787JOSE PAULO SERPA DE MORAES              RUA CANALIZADAN 0,  LOTE 4 QUADRA 203 KMCAMPO LINDO 23845410SEROPEDICA     RJUNIAO UMB DOS CULTOS AFRO BRAS    30061910 000012
10231987175000168916200163100    000043795                    000437950000000000000109                     I0143795     30061900000000040003410000017N130319104700000000000103006190000000000000000000000000000000000000000100086945971791GELSON RAMOS DE CARVALHO                RUA BARAUNAN 249,                       ANCHIETA    21645050RIO DE JANEIRO RJUNIAO UMB DOS CULTOS AFRO BRAS    30061910 000013
10231987175000168916200163100    000043794                    000437940000000000000109                     I0143794     30061900000000040003410000017N130319104700000000000103006190000000000000000000000000000000000000000100060856467715JANAINA COELHO MELO                     RUA SANTO APIANO N 288, FUNDOS          IRAJA       21361420RIO DE JANEIRO RJUNIAO UMB DOS CULTOS AFRO BRAS    30061910 000014
10231987175000168916200163100    000043793                    000437930000000000000109                     I0143793     30061900000000040003410000017N130319104700000000000103006190000000000000000000000000000000000000000100085114308734MARISTELA BISPO DOS SANTOS              RUA: VINTE E TRES DE SETEMBRO N 235,    IPIRANGA    26293342NOVA IGUACU    RJUNIAO UMB DOS CULTOS AFRO BRAS    30061910 000015
10231987175000168916200163100    000043792                    000437920000000000000109                     I0143792     30061900000000040003410000017N130319104700000000000103006190000000000000000000000000000000000000000100009831383702MARCELO SOUZA MATOS                     AVENIDA MERITIN 1504, FUNDOS            VILA DA PENH21211006RIO DE JANEIRO RJUNIAO UMB DOS CULTOS AFRO BRAS    30061910 000016
10231987175000168916200163100    000043791                    000437910000000000000109                     I0143791     30061900000000040003410000017N130319104700000000000103006190000000000000000000000000000000000000000221568459000166ABASSA D OYA BALE                       RUA MARIA SANTANA FERNANDESN 0, QUADRA 4JARDIM ACACI23845250SEROPEDICA     RJUNIAO UMB DOS CULTOS AFRO BRAS    30061910 000017
10231987175000168916200163100    000043790                    000437900000000000000109                     I0143790     30061900000000040003410000017N130319104700000000000103006190000000000000000000000000000000000000000100000255430752JUACIRA ALVES TOTTA                     RUA: DOS RUBISN 519,                    ROCHA MIRAND21510011RIO DE JANEIRO RJUNIAO UMB DOS CULTOS AFRO BRAS    30061910 000018
10231987175000168916200163100    000043789                    000437890000000000000109                     I0143789     30061900000000040003410000017N130319104700000000000103006190000000000000000000000000000000000000000217571483000187INZO D DANDALUNDA E C. E. VOVO          RUA GILMAR WILSON FRANCISCON 0, CASA 4 QBOA FE      23855004SEROPEDICA     RJUNIAO UMB DOS CULTOS AFRO BRAS    30061910 000019
10231987175000168916200163100    000043788                    000437880000000000000109                     I0143788     30061900000000040003410000017N130319104700000000000103006190000000000000000000000000000000000000000100008067836728BRUNO HENRIQUE DA COSTA SILVA           RUA SOARES TAVARESN 51, FUNDOS          IRAJA       21361360RIO DE JANEIRO RJUNIAO UMB DOS CULTOS AFRO BRAS    30061910 000020
10231987175000168916200163100    000043787                    000437870000000000000109                     I0143787     30061900000000040003410000017N130319104700000000000103006190000000000000000000000000000000000000000100041247078787ANTONIO NARCISO RUSSI DA SILVA          RUA DEOLINDA MARTINS N 359,  KM 42      JARDIM CENTR23845110SEROPEDICA     RJUNIAO UMB DOS CULTOS AFRO BRAS    30061910 000021
10231987175000168916200163100    000043786                    000437860000000000000109                     I0143786     30061900000000040003410000017N130319104700000000000103006190000000000000000000000000000000000000000100086008773772ADEVIR CORREIA DOS SANTOS               RUA: JOAO CABETEN 0, LOTE 3 QUADRA 75 CASERRA GRANDE24342760NITEROI        RJUNIAO UMB DOS CULTOS AFRO BRAS    30061910 000022
10231987175000168916200163100    000043785                    000437850000000000000109                     I0143785     30061900000000040003410000017N130319104700000000000103006190000000000000000000000000000000000000000100000000340787NILZA DE OLIVEIRA FRANCISCO             RUA: SAO MIGUEL N 0, LOTE 18 QUADRA E (RVILA DE CAVA26052533NOVA IGUACU    RJUNIAO UMB DOS CULTOS AFRO BRAS    30061910 000023
10231987175000168916200163100    000043784                    000437840000000000000109                     I0143784     30061900000000040003410000017N130319104700000000000103006190000000000000000000000000000000000000000100088046060704NATALINA DE JESUS PEREIRA DE O          RUA SAPOPEMBA N 524,                    BENTO RIBEIR21331240RIO DE JANEIRO RJUNIAO UMB DOS CULTOS AFRO BRAS    30061910 000024
10231987175000168916200163100    000043783                    000437830000000000000109                     I0143783     30061900000000040003410000017N130319104700000000000103006190000000000000000000000000000000000000000100097989037734LUIS EDUARDO ALMEIDA BAHRI              RUA DEGASN 400, BLOCO 2 APTº 1010      DEL CASTILHO20771580RIO DE JANEIRO RJUNIAO UMB DOS CULTOS AFRO BRAS    30061910 000025
10231987175000168916200163100    000043782                    000437820000000000000109                     I0143782     30061900000000040003410000017N130319104700000000000103006190000000000000000000000000000000000000000100072148675753ROGERIO TEIXEIRA TEOFILO                RUA BOM JARDIM N 40,                    CABUCU      26347225NOVA IGUACU    RJUNIAO UMB DOS CULTOS AFRO BRAS    30061910 000026
10231987175000168916200163100    000043781                    000437810000000000000109                     I0143781     30061900000000040003410000017N130319104700000000000103006190000000000000000000000000000000000000000100074338960744GILBERTO JORGE DA CRUZ ARAUJO           RUA: SAO FRANCISCO XAVIERN 39, APTº 703TIJUCA      20550010RIO DE JANEIRO RJUNIAO UMB DOS CULTOS AFRO BRAS    30061910 000027
10231987175000168916200163100    000043780                    000437800000000000000109                     I0143780     30061900000000040003410000017N130319104700000000000103006190000000000000000000000000000000000000000100087868172720ADHEMAR ACHILLES AVILLA JUNIOR          RUA: PADRE GIL N 20,                    PARQUE BONEV25907096MAGE           RJUNIAO UMB DOS CULTOS AFRO BRAS    30061910 000028
10231987175000168916200163100    000043779                    000437790000000000000109                     I0143779     30061900000000040003410000017N130319104700000000000103006190000000000000000000000000000000000000000100000672393743RAFAEL CASAMASSO DA COSTA               RUA: JOAO CAETANON 198, A               CENTRO      25610010PETROPOLIS     RJUNIAO UMB DOS CULTOS AFRO BRAS    30061910 000029
10231987175000168916200163100    000043778                    000437780000000000000109                     I0143778     30061900000000040003410000017N130319104700000000000103006190000000000000000000000000000000000000000212875208000133ILE ASE OMI LOCUM KARE                  RUA QUARENTA E CINCON 0, LOTE 20 QUADRA CAMPO LINDO 23890000NOVA IGUACU    RJUNIAO UMB DOS CULTOS AFRO BRAS    30061910 000030
10231987175000168916200163100    000043777                    000437770000000000000109                     I0143777     30061900000000040003410000017N130319104700000000000103006190000000000000000000000000000000000000000100095949925734RITA DE CASSIA COCCARO                  RUA JUCARI N 563,                       IRAJA       21371320RIO DE JANEIRO RJUNIAO UMB DOS CULTOS AFRO BRAS    30061910 000031
10231987175000168916200163100    000043776                    000437760000000000000109                     I0143776     30061900000000040003410000017N130319104700000000000103006190000000000000000000000000000000000000000100000308305752MAGDA LEOPOLDINA DA SILVA               ESTRADA DOS SETE RIACHOSN 1949, LOTE 10 SANTISSIMO  23098006RIO DE JANEIRO RJUNIAO UMB DOS CULTOS AFRO BRAS    30061910 000032
10231987175000168916200163100    000043775                    000437750000000000000109                     I0143775     30061900000000040003410000017N130319104700000000000103006190000000000000000000000000000000000000000100085212091772ADAO DIAS FUNCHAL FILHO                 RUA WALTER FERREIRAN 1752, SAO FRANCISCOMAUA        25900000MAGE           RJUNIAO UMB DOS CULTOS AFRO BRAS    30061910 000033
10231987175000168916200163100    000043774                    000437740000000000000109                     I0143774     30061900000000040003410000017N130319104700000000000103006190000000000000000000000000000000000000000100001206849770EUGENIO ALBERTO DA SILVA LOPES          RUA COMENDADOR BASTOSN 526, BANANAL     FREGUESIA - 21911020RIO DE JANEIRO RJUNIAO UMB DOS CULTOS AFRO BRAS    30061910 000034
10231987175000168916200163100    000043773                    000437730000000000000109                     I0143773     30061900000000040003410000017N130319104700000000000103006190000000000000000000000000000000000000000100053365836772CRISTINA MARIA DE SANT ANNA SI          RUA: GUSTAVO SAMPAION 172, APTº 201    LEME        22010010RIO DE JANEIRO RJUNIAO UMB DOS CULTOS AFRO BRAS    30061910 000035
10231987175000168916200163100    000043772                    000437720000000000000109                     I0143772     30061900000000040003410000017N130319104700000000000103006190000000000000000000000000000000000000000100062821598734CLAUDEMIR APARECIDO FREITAS SI          TRAVESSA PIACAVAN 156,                  BANCO DE ARE26570210MESQUITA       RJUNIAO UMB DOS CULTOS AFRO BRAS    30061910 000036
10231987175000168916200163100    000043771                    000437710000000000000109                     I0143771     30061900000000040003410000017N130319104700000000000103006190000000000000000000000000000000000000000100005306993702EVA DOS SANTOS PEREIRA                  RUA DOUTOR ABELARDO DE BARROSN 3, APTO 1TIJUCA      20521030RIO DE JANEIRO RJUNIAO UMB DOS CULTOS AFRO BRAS    30061910 000037
10231987175000168916200163100    000043769                    000437690000000000000109                     I0143769     30061900000000040003410000017N130319104700000000000103006190000000000000000000000000000000000000000100033205094700IRACEMA PAZ DA MOTTA                    RUA PADRE ILDEFONSO PENALBA N 90, BLOCO MEIER       20775020RIO DE JANEIRO RJUNIAO UMB DOS CULTOS AFRO BRAS    30061910 000038
10231987175000168916200163100    000043768                    000437680000000000000109                     I0143768     30061900000000040003410000017N130319104700000000000103006190000000000000000000000000000000000000000100007564771747BARBARA LISBOA PINTO                    RUA DOIS DE FEVEREIRON 908, APTº 202   ENCANTADO   20730452RIO DE JANEIRO RJUNIAO UMB DOS CULTOS AFRO BRAS    30061910 000039
10231987175000168916200163100    000043767                    000437670000000000000109                     I0143767     30061900000000040003410000017N130319104700000000000103006190000000000000000000000000000000000000000100008852284729DILMA DE OLIVEIRA CORDEIRO              RUA: VEREADOR OSCAR DIAS OLIVEIRA N 12, CHACRINHA   25065160DUQUE DE CAXIASRJUNIAO UMB DOS CULTOS AFRO BRAS    30061910 000040
10231987175000168916200163100    000043766                    000437660000000000000109                     I0143766     30061900000000040003410000017N130319104700000000000103006190000000000000000000000000000000000000000100000158250788ROBSON BARBOZA VIEIRA                   RUA NOVEN 0, LOTE 13                    FAZENDA IGUA28960000IGUABA GRANDE  RJUNIAO UMB DOS CULTOS AFRO BRAS    30061910 000041
10231987175000168916200163100    000043765                    000437650000000000000109                     I0143765     30061900000000040003410000017N130319104700000000000103006190000000000000000000000000000000000000000100092080570706EUZAMAR FONSECA SANTOS                  RUA DONA EMILIA N 195, CASA 4           INHAUMA     20765110RIO DE JANEIRO RJUNIAO UMB DOS CULTOS AFRO BRAS    30061910 000042
10231987175000168916200163100    000043764                    000437640000000000000109                     I0143764     30061900000000040003410000017N130319104700000000000103006190000000000000000000000000000000000000000100085778351704MARIA NILZA DA SILVA                    RUA OTAVIO TARQUINO DE SOUZAN 158, E 160TANQUE      22733140RIO DE JANEIRO RJUNIAO UMB DOS CULTOS AFRO BRAS    30061910 000043
10231987175000168916200163100    000043763                    000437630000000000000109                     I0143763     30061900000000040003410000017N130319104700000000000103006190000000000000000000000000000000000000000100043641717787YWONE AMELIA VAZ COSTA                  RUA CASTRO MENEZES N 284, CASA 1        BRAZ DE PINA21215250RIO DE JANEIRO RJUNIAO UMB DOS CULTOS AFRO BRAS    30061910 000044
10231987175000168916200163100    000043762                    000437620000000000000109                     I0143762     30061900000000040003410000017N130319104700000000000103006190000000000000000000000000000000000000000100002735190773EDIVAN FARIAS DA SILVA                  RUA EDNA MEDEIROSN 69,  JARDIM MARILICE CORUMBA     26042430NOVA IGUACU    RJUNIAO UMB DOS CULTOS AFRO BRAS    30061910 000045
10231987175000168916200163100    000043761                    000437610000000000000109                     I0143761     30061900000000040003410000017N130319104700000000000103006190000000000000000000000000000000000000000100000633999709KATIA REGINA LEITE RAMOS                RUA GUIRATIM N 260,                     IRAJA       21371410RIO DE JANEIRO RJUNIAO UMB DOS CULTOS AFRO BRAS    30061910 000046
10231987175000168916200163100    000043760                    000437600000000000000109                     I0143760     30061900000000040003410000017N130319104700000000000103006190000000000000000000000000000000000000000231678433000124CENTRO ESPIRITA JUSTICA E AMOR          RUA: IGUABA GRANDEN 78, BLOCO 6 APT 1206PAVUNA      21655340RIO DE JANEIRO RJUNIAO UMB DOS CULTOS AFRO BRAS    30061910 000047
10231987175000168916200163100    000043759                    000437590000000000000109                     I0143759     30061900000000040003410000017N130319104700000000000103006190000000000000000000000000000000000000000100009237411782RODRIGO NOGUEIRA MARTINS                RUA DOUTOR AUGUSTO FIGUEIREDON 298,     BANGU       21840600RIO DE JANEIRO RJUNIAO UMB DOS CULTOS AFRO BRAS    30061910 000048
10231987175000168916200163100    000043758                    000437580000000000000109                     I0143758     30061900000000040003410000017N130319104700000000000103006190000000000000000000000000000000000000000100041795458704VERA LUCIA DE MACEDO                    RUA JOSE CARLOS PACEN 50, CASA 50       CENTRO      24900000MARICA         RJUNIAO UMB DOS CULTOS AFRO BRAS    30061910 000049
10231987175000168916200163100    000043757                    000437570000000000000109                     I0143757     30061900000000040003410000017N130319104700000000000103006190000000000000000000000000000000000000000218318536000115TENDA ESPIRITA SAO COSME E SAO          RUA: SAO MARCOS  N 23, QUADRA 25        KM 32       26298548NOVA IGUACU    RJUNIAO UMB DOS CULTOS AFRO BRAS    30061910 000050
10231987175000168916200163100    000043756                    000437560000000000000109                     I0143756     30061900000000040003410000017N130319104700000000000103006190000000000000000000000000000000000000000100004746270716ANTONIO CARLOS FERNANDES                RUA FRANCISCO DE CASTRO N 9, CASA 1     SANTA TERESA20241300RIO DE JANEIRO RJUNIAO UMB DOS CULTOS AFRO BRAS    30061910 000051
10231987175000168916200163100    000043755                    000437550000000000000109                     I0143755     30061900000000040003410000017N130319104700000000000103006190000000000000000000000000000000000000000100001304629775ZILDA DA SILVA RIBEIRO                  RUA LAURA RAFANELLIN 0,  LOTE 13 QUADRA ITAIPUACU   24935500MARICA         RJUNIAO UMB DOS CULTOS AFRO BRAS    30061910 000052
10231987175000168916200163100    000043754                    000437540000000000000109                     I0143754     30061900000000040003410000017N130319104700000000000103006190000000000000000000000000000000000000000100063761092768JANET BATISTA DA CONCEICAO              RUA SERRA VELHAN 41,                    RAIZ DA SERR25935000MAGE           RJUNIAO UMB DOS CULTOS AFRO BRAS    30061910 000053
10231987175000168916200163100    000043753                    000437530000000000000109                     I0143753     30061900000000040003410000017N130319104700000000000103006190000000000000000000000000000000000000000100005634227771BRUNO MACHADO TETE                      RUA SANATORION 173,                     MADUREIRA   21350191RIO DE JANEIRO RJUNIAO UMB DOS CULTOS AFRO BRAS    30061910 000054
10231987175000168916200163100    000043752                    000437520000000000000109                     I0143752     30061900000000040003410000017N130319104700000000000103006190000000000000000000000000000000000000000100048507458734MARCOS DE OLIVEIRA ROSA                 RUA CALDAS NOVASN 135,                  VILA ZULMIRA25540530SAO JOAO DE MERRJUNIAO UMB DOS CULTOS AFRO BRAS    30061910 000055
10231987175000168916200163100    000043751                    000437510000000000000109                     I0143751     30061900000000040003410000017N130319104700000000000103006190000000000000000000000000000000000000000100015323972750PEDRO HENRIQUE CARVALHO DA FON          RUA: CADETE POLONIAN 628, FRENTE - SAMPAENGENHO NOVO20961050RIO DE JANEIRO RJUNIAO UMB DOS CULTOS AFRO BRAS    30061910 000056
10231987175000168916200163100    000043750                    000437500000000000000109                     I0143750     30061900000000040003410000017N130319104700000000000103006190000000000000000000000000000000000000000100066812054704LYDIAMAR NAZARETH BRANDAO DE A          RUA HELEODORA N 225, FRENTE             PILARES     20760722RIO DE JANEIRO RJUNIAO UMB DOS CULTOS AFRO BRAS    30061910 000057
10231987175000168916200163100    000043749                    000437490000000000000109                     I0143749     30061900000000040003410000017N130319104700000000000103006190000000000000000000000000000000000000000100054504430720ISABELA BARBOSA LIMA DA SILVA           RUA SOUSA BARROSN 106, A FUNDOS         ENGENHO NOVO20961150RIO DE JANEIRO RJUNIAO UMB DOS CULTOS AFRO BRAS    30061910 000058
10231987175000168916200163100    000043748                    000437480000000000000109                     I0143748     30061900000000040003410000017N130319104700000000000103006190000000000000000000000000000000000000000100008013752747GIVANILDO MENDES LAGOA                  RUA DOS CORAISN 0, LOTE 19 QUADRA 46 CASPIRATININGA 24320358NITEROI        RJUNIAO UMB DOS CULTOS AFRO BRAS    30061910 000059
10231987175000168916200163100    000043747                    000437470000000000000109                     I0143747     30061900000000040003410000017N130319104700000000000103006190000000000000000000000000000000000000000100009070035758LILIAN DUARTE COSTA                     RUA: DELFIM MOREIRAN 2397,              VALE PARAISO25976016TERESOPOLIS    RJUNIAO UMB DOS CULTOS AFRO BRAS    30061910 000060
10231987175000168916200163100    000043746                    000437460000000000000109                     I0143746     30061900000000040003410000017N130319104700000000000103006190000000000000000000000000000000000000000100002824875739EVONETE DA CONCEICAO DA SILVA           RUA: DOUTOR ANTONIO ALVESN 0, CAIXA POSTCENTRO      28941156SAO PEDRO DA ALRJUNIAO UMB DOS CULTOS AFRO BRAS    30061910 000061
10231987175000168916200163100    000043745                    000437450000000000000109                     I0143745     30061900000000040003410000017N130319104700000000000103006190000000000000000000000000000000000000000100037356178753TEREZA BRAGA DE AZEVEDO                 RUA ANDRE ROCHA N 224,                  TAQUARA - JA22730522RIO DE JANEIRO RJUNIAO UMB DOS CULTOS AFRO BRAS    30061910 000062
10231987175000168916200163100    000043744                    000437440000000000000109                     I0143744     30061900000000040003410000017N130319104700000000000103006190000000000000000000000000000000000000000100005199150707RITA LUSIE DE MELLO CASTRO              RUA IARAN 118, CASA A                   SAO MATEUS  25525410SAO JOAO DE MERRJUNIAO UMB DOS CULTOS AFRO BRAS    30061910 000063
10231987175000168916200163100    000043743                    000437430000000000000109                     I0143743     30061900000000040003410000017N130319104700000000000103006190000000000000000000000000000000000000000100001220001708ANDRE AMERICO DA SILVA                  RUA LARGO DO BOIADEIRO DA ROCINHAN 11,  ROCINHA     22451340RIO DE JANEIRO RJUNIAO UMB DOS CULTOS AFRO BRAS    30061910 000064
10231987175000168916200163100    000043742                    000437420000000000000109                     I0143742     30061900000000040003410000017N130319104700000000000103006190000000000000000000000000000000000000000100047515090715JOSE CARLOS DA SILVA GENUNCIO           RUA VEREADOR MAURICIO SOUZAN 97,        ENGENHOCA   24110539NITEROI        RJUNIAO UMB DOS CULTOS AFRO BRAS    30061910 000065
10231987175000168916200163100    000043741                    000437410000000000000109                     I0143741     30061900000000040003410000017N130319104700000000000103006190000000000000000000000000000000000000000100085127183749CLAUDIA JORGE DA SILVA GAMA             RUA DAS MANGUEIRAS N 249,               PIEDADE     20751080RIO DE JANEIRO RJUNIAO UMB DOS CULTOS AFRO BRAS    30061910 000066
10231987175000168916200163100    000043740                    000437400000000000000109                     I0143740     30061900000000040003410000017N130319104700000000000103006190000000000000000000000000000000000000000100074726005715SOLANGE DA SILVA ARAUJO                 AVENIDA: MONSENHOR FELIXN 1059, BLOCO 80IRAJA       21235113RIO DE JANEIRO RJUNIAO UMB DOS CULTOS AFRO BRAS    30061910 000067
10231987175000168916200163100    000043739                    000437390000000000000109                     I0143739     30061900000000040003410000017N130319104700000000000103006190000000000000000000000000000000000000000100064321800749MARLENE BALBINO DA SILVA                RUA FRANKLIN JOSE DA SILVAN 65,         PIRINEUS    36700000LEOPOLDINA     MGUNIAO UMB DOS CULTOS AFRO BRAS    30061910 000068
10231987175000168916200163100    000043738                    000437380000000000000109                     I0143738     30061900000000040003410000017N130319104700000000000103006190000000000000000000000000000000000000000100013540020756RUTE MEDEIROS VIEIRA                    RUA DESSESEIS N 527,                    CONJUNTO NOV23565450SANTA CRUZ     RJUNIAO UMB DOS CULTOS AFRO BRAS    30061910 000069
10231987175000168916200163100    000043737                    000437370000000000000109                     I0143737     30061900000000040003410000017N130319104700000000000103006190000000000000000000000000000000000000000100090876857772MARCO AURELIO PEREIRA VASCONCE          RUA VISCONDE DE OURO PRETON 5,          TAUA        21910520RIO DE JANEIRO RJUNIAO UMB DOS CULTOS AFRO BRAS    30061910 000070
10231987175000168916200163100    000043736                    000437360000000000000109                     I0143736     30061900000000040003410000017N130319104700000000000103006190000000000000000000000000000000000000000100037125893791ELIANA DOS SANTOS VITAL                 RUA CAPITAO VIEIRAN 96,                 TURIACU     21540330RIO DE JANEIRO RJUNIAO UMB DOS CULTOS AFRO BRAS    30061910 000071
10231987175000168916200163100    000043735                    000437350000000000000109                     I0143735     30061900000000040003410000017N130319104700000000000103006190000000000000000000000000000000000000000100005426043701CLARA DANIELE BROWN FLAUZINO            RUA ZAMBIA N 29,                        BANGU       21850510RIO DE JANEIRO RJUNIAO UMB DOS CULTOS AFRO BRAS    30061910 000072
10231987175000168916200163100    000043734                    000437340000000000000109                     I0143734     30061900000000040003410000017N130319104700000000000103006190000000000000000000000000000000000000000100009174740741SILAS SOUZA ALSELMO                     RUA DO CANAVIAL N 207,                  PARQUE ANTAR26053040NOVA IGUACU    RJUNIAO UMB DOS CULTOS AFRO BRAS    30061910 000073
10231987175000168916200163100    000043733                    000437330000000000000109                     I0143733     30061900000000040003410000017N130319104700000000000103006190000000000000000000000000000000000000000100041402685734ITAMAR DE OLIVEIRA FERREIRA             RUA AGRIPINO DE CAMPOSN 1016,           MUTUA       24461320SAO GONCALO    RJUNIAO UMB DOS CULTOS AFRO BRAS    30061910 000074
10231987175000168916200163100    000043732                    000437320000000000000109                     I0143732     30061900000000040003410000017N130319104700000000000103006190000000000000000000000000000000000000000100067160891791ELIZABETH VIEGAS GUALHANO               RUA MARIZ DE BARROS N 272, APT 302      PRACA DA BAN20270001RIO DE JANEIRO RJUNIAO UMB DOS CULTOS AFRO BRAS    30061910 000075
10231987175000168916200163100    000043731                    000437310000000000000109                     I0143731     30061900000000040003410000017N130319104700000000000103006190000000000000000000000000000000000000000100059555815704PAULO FERNANDES                         RUA MONTE CARMELO N 351,                BENTO RIBEIR21555120RIO DE JANEIRO RJUNIAO UMB DOS CULTOS AFRO BRAS    30061910 000076
10231987175000168916200163100    000043730                    000437300000000000000109                     I0143730     30061900000000040003410000017N130319104700000000000103006190000000000000000000000000000000000000000100060296836168ALEXANDRE MONTEIRO DA ROSA              RUA MONTE CASTELO   N 143,              CORONEL VEIG25655500PETROPOLIS     RJUNIAO UMB DOS CULTOS AFRO BRAS    30061910 000077
10231987175000168916200163100    000043729                    000437290000000000000109                     I0143729     30061900000000040003410000017N130319104700000000000103006190000000000000000000000000000000000000000100068754485720LUCIA DA CONCEICAO GREGORIO             RUA PAULO OLIVEIRA DE CARVALHO N 56,    VILA SAO LUI26012510NOVA IGUACU    RJUNIAO UMB DOS CULTOS AFRO BRAS    30061910 000078
10231987175000168916200163100    000043728                    000437280000000000000109                     I0143728     30061900000000040003410000017N130319104700000000000103006190000000000000000000000000000000000000000100057370770710MARY MARCOS DE FIGUEIREDO               TRAVESSA LINO ESTEVESN 126,             BARRETO - EN24110145NITEROI        RJUNIAO UMB DOS CULTOS AFRO BRAS    30061910 000079
10231987175000168916200163100    000043727                    000437270000000000000109                     I0143727     30061900000000040003410000017N130319104700000000000103006190000000000000000000000000000000000000000100001680132741SANDRA NOGUEIRA DE BRITO                RUA PAULINO FERNANDESN 87,              BOTAFOGO    22270050RIO DE JANEIRO RJUNIAO UMB DOS CULTOS AFRO BRAS    30061910 000080
10231987175000168916200163100    000043726                    000437260000000000000109                     I0143726     30061900000000040003410000017N130319104700000000000103006190000000000000000000000000000000000000000100008083468738WAGNER DE ANDRADE SACRAMENTO            RUA SAGRADO CORACAO DE JESUSN 243,      NOVA CIDADE 26535140NILOPOLIS      RJUNIAO UMB DOS CULTOS AFRO BRAS    30061910 000081
10231987175000168916200163100    000043725                    000437250000000000000109                     I0143725     30061900000000040003410000017N130319104700000000000103006190000000000000000000000000000000000000000100084161973772MARCOS ANTONIO VIEIRA BAPTISTA          RUA CARLOS GONCALVES PENNA  N 42, BLOCO ENGENHO DA R20761330RIO DE JANEIRO RJUNIAO UMB DOS CULTOS AFRO BRAS    30061910 000082
10231987175000168916200163100    000043724                    000437240000000000000109                     I0143724     30061900000000040003410000017N130319104700000000000103006190000000000000000000000000000000000000000100002175979717CLAUDIA PILAR PERES SANTOS DE           RUA JOAO MACIEIRA N 20,                 MADUREIRA   21310090RIO DE JANEIRO RJUNIAO UMB DOS CULTOS AFRO BRAS    30061910 000083
10231987175000168916200163100    000043723                    000437230000000000000109                     I0143723     30061900000000040003410000017N130319104700000000000103006190000000000000000000000000000000000000000100002190466709CARLOS ROBERTO RIBEIRO DA CONC          RUA NOSSA SENHORA DAS GRACASN 40,       MOSELA      25675111PETROPOLIS     RJUNIAO UMB DOS CULTOS AFRO BRAS    30061910 000084
10231987175000168916200163100    000043722                    000437220000000000000109                     I0143722     30061900000000040003410000017N130319104700000000000103006190000000000000000000000000000000000000000100025891693704EDSON DA SILVA ALVES                    RUA: JOAO MACIEIRA N 11,                MADUREIRA   21310090RIO DE JANEIRO RJUNIAO UMB DOS CULTOS AFRO BRAS    30061910 000085
10231987175000168916200163100    000043721                    000437210000000000000109                     I0143721     30061900000000040003410000017N130319104700000000000103006190000000000000000000000000000000000000000100000000000928THIAGO BARBOSA DA SILVA                 RUA: PEDRO DOMINGUESN 52, CASA 1        ENCANTADO   20756080RIO DE JANEIRO RJUNIAO UMB DOS CULTOS AFRO BRAS    30061910 000086
10231987175000168916200163100    000043720                    000437200000000000000109                     I0143720     30061900000000040003410000017N130319104700000000000103006190000000000000000000000000000000000000000100043194869787JORGE PINHEIRO DE ALMEIDA               RUA CERQUEIRA CESAR N 121, CASA 1       MADUREIRA   21351070RIO DE JANEIRO RJUNIAO UMB DOS CULTOS AFRO BRAS    30061910 000087
10231987175000168916200163100    000043719                    000437190000000000000109                     I0143719     30061900000000040003410000017N130319104700000000000103006190000000000000000000000000000000000000000100000907631738IDA ANGELICA PEREIRA CALDAS             RUA SILVEIRA LOBO N 43,                 CACHAMBI    20780310RIO DE JANEIRO RJUNIAO UMB DOS CULTOS AFRO BRAS    30061910 000088
10231987175000168916200163100    000043718                    000437180000000000000109                     I0143718     30061900000000040003410000017N130319104700000000000103006190000000000000000000000000000000000000000100074789600734SOLANGE MARTINS                         RUA ITAJIBA N 889,                      COSMOS      23060450RIO DE JANEIRO RJUNIAO UMB DOS CULTOS AFRO BRAS    30061910 000089
10231987175000168916200163100    000043717                    000437170000000000000109                     I0143717     30061900000000040003410000017N130319104700000000000103006190000000000000000000000000000000000000000100008331240723MONIQUE SUZANO ASSUNCAO DE OLI          RUA: DIVINOPOLIS N 35,                  BENTO RIBEIR21550280RIO DE JANEIRO RJUNIAO UMB DOS CULTOS AFRO BRAS    30061910 000090
10231987175000168916200163100    000043716                    000437160000000000000109                     I0143716     30061900000000040003410000017N130319104700000000000103006190000000000000000000000000000000000000000100075078392734MARCIA HELENA DE AZEVEDO MUNIZ          RUA ALICE TIBIRICAN 70, CASA 1          BRAZ DE PINA21250070RIO DE JANEIRO RJUNIAO UMB DOS CULTOS AFRO BRAS    30061910 000091
10231987175000168916200163100    000043715                    000437150000000000000109                     I0143715     30061900000000040003410000017N130319104700000000000103006190000000000000000000000000000000000000000100002418033732EDSON LUIZ ALVES DE CARVALHO            AVENIDA PORTO SEGURON 526, ANTIGA RUA TRLAGOMAR     27966870MACAE          RJUNIAO UMB DOS CULTOS AFRO BRAS    30061910 000092
10231987175000168916200163100    000043714                    000437140000000000000109                     I0143714     30061900000000040003410000017N130319104700000000000103006190000000000000000000000000000000000000000100065196171720MARIA DAS GRACAS OLIVEIRA               RUA FRANCISCO MANOEL N 22,              PONTO CHIQUE26032835NOVA IGUACU    RJUNIAO UMB DOS CULTOS AFRO BRAS    30061910 000093
10231987175000168916200163100    000043713                    000437130000000000000109                     I0143713     30061900000000040003410000017N130319104700000000000103006190000000000000000000000000000000000000000100000000000000MEYRE CHAVES SOARES                     RUA MARIO HERMESN 40, CASA 6            BENTO RIBEIR21550555RIO DE JANEIRO RJUNIAO UMB DOS CULTOS AFRO BRAS    30061910 000094
10231987175000168916200163100    000043712                    000437120000000000000109                     I0143712     30061900000000040003410000017N130319104700000000000103006190000000000000000000000000000000000000000100059395656700NADIA MARIZA CORREA TRINDADE            RUA JORGE SILVAN 25,                    PARQUE SAO J23890000SEROPEDICA     RJUNIAO UMB DOS CULTOS AFRO BRAS    30061910 000095
10231987175000168916200163100    000043711                    000437110000000000000109                     I0143711     30061900000000040003410000017N130319104700000000000103006190000000000000000000000000000000000000000100089080475734MARCIA MARIA CORREIA DA SILVA           RUA ALVARES CABRAL N 520,               CACHAMBI    20780320RIO DE JANEIRO RJUNIAO UMB DOS CULTOS AFRO BRAS    30061910 000096
10231987175000168916200163100    000043710                    000437100000000000000109                     I0143710     30061900000000040003410000017N130319104700000000000103006190000000000000000000000000000000000000000100058098445704ARLETE DA SILVA BARBOSA FRANCO          RUA DOUTOR MUNIZN 71,                   ROCHA SOBRIN26130020BELFORD ROXO   RJUNIAO UMB DOS CULTOS AFRO BRAS    30061910 000097
10231987175000168916200163100    000043709                    000437090000000000000109                     I0143709     30061900000000040003410000017N130319104700000000000103006190000000000000000000000000000000000000000100057316600772ESTELA FERREIRA                         AVENIDA BORIS N 321, FUNDOS             MUTONDO     24422730SAO GONCALO    RJUNIAO UMB DOS CULTOS AFRO BRAS    30061910 000098
10231987175000168916200163100    000043708                    000437080000000000000109                     I0143708     30061900000000040003410000017N130319104700000000000103006190000000000000000000000000000000000000000100063579081772CRISTINA ALBUQUERQUE DE ARAUJO          RUA: CAMPOS SALES N 15, APTº 501       TIJUCA      20270212RIO DE JANEIRO RJUNIAO UMB DOS CULTOS AFRO BRAS    30061910 000099
10231987175000168916200163100    000043707                    000437070000000000000109                     I0143707     30061900000000040003410000017N130319104700000000000103006190000000000000000000000000000000000000000100094635650782ALFREDO DOMINGOS HAFNER                 RUA DONA EMILIA N 219, CIDADE DE HORACIOPIABETA     25931606MAGE           RJUNIAO UMB DOS CULTOS AFRO BRAS    30061910 000100
10231987175000168916200163100    000043706                    000437060000000000000109                     I0143706     30061900000000040003410000017N130319104700000000000103006190000000000000000000000000000000000000000100005721435755ALEX ARAUJO BRAGA                       RUA MARTEN 685, CASA 2                  MESQUITA    26240290NOVA IGUACU    RJUNIAO UMB DOS CULTOS AFRO BRAS    30061910 000101
10231987175000168916200163100    000043705                    000437050000000000000109                     I0143705     30061900000000040003410000017N130319104700000000000103006190000000000000000000000000000000000000000100050942490763ANTONIO PAULO TRABACHINI                RUA: DO CATETEN 347, LOJA 8             CATETE      22271100RIO DE JANEIRO RJUNIAO UMB DOS CULTOS AFRO BRAS    30061910 000102
10231987175000168916200163100    000043704                    000437040000000000000109                     I0143704     30061900000000040003410000017N130319104700000000000103006190000000000000000000000000000000000000000100001145934773ELENICE DE SOUZA SILVA ARRUDA           RUA SEVERIANO MONTEIRON 271, CASA 3     VISTA ALEGRE21235620RIO DE JANEIRO RJUNIAO UMB DOS CULTOS AFRO BRAS    30061910 000103
10231987175000168916200163100    000043703                    000437030000000000000109                     I0143703     30061900000000040003410000017N130319104700000000000103006190000000000000000000000000000000000000000100093719744787SERGIO PEREIRA FRAGA                    RUA JURUBAIBAN 163, FUNDOS              HONORIO GURG21555170RIO DE JANEIRO RJUNIAO UMB DOS CULTOS AFRO BRAS    30061910 000104
10231987175000168916200163100    000043702                    000437020000000000000109                     I0143702     30061900000000040003410000017N130319104700000000000103006190000000000000000000000000000000000000000100001256782742VANDA BARBOSA BASTOS                    RUA CERES N 1058,                       BANGU       21862070RIO DE JANEIRO RJUNIAO UMB DOS CULTOS AFRO BRAS    30061910 000105
10231987175000168916200163100    000043701                    000437010000000000000109                     I0143701     30061900000000040003410000017N130319104700000000000103006190000000000000000000000000000000000000000100011105998703FABRICIO SILVEIRA DE SOUZA              RUA JOAO EVANGELISTA DE CARVALHON 2173, CENTRO      26520500NILOPOLIS      RJUNIAO UMB DOS CULTOS AFRO BRAS    30061910 000106
10231987175000168916200163100    000043700                    000437000000000000000109                     I0143700     30061900000000025003410000017N130319104700000000000103006190000000000000000000000000000000000000000100012470639840RICARDO DE OLIVEIRA                     RUA FELINTO MARQUES CERQUEIRAN 270,     CAPUCHINHOS 44076040FEIRA DE SANTANBAUNIAO UMB DOS CULTOS AFRO BRAS    30061910 000107
10231987175000168916200163100    000043699                    000436990000000000000109                     I0143699     30061900000000040003410000017N130319104700000000000103006190000000000000000000000000000000000000000100035838493704CELMO JOSE DE SOUZA                     RUA DA CONCEICAO N 188, SALA 1204 A B   CENTRO      24020087NITEROI        RJUNIAO UMB DOS CULTOS AFRO BRAS    30061910 000108
10231987175000168916200163100    000043698                    000436980000000000000109                     I0143698     30061900000000040003410000017N130319104700000000000103006190000000000000000000000000000000000000000100067237258753RITA DE CASSIA DIACOVO PELLITO          RUA ANDRE AZEVEDO N 87, CASA 101 BLOCO 2OLARIA      21021480RIO DE JANEIRO RJUNIAO UMB DOS CULTOS AFRO BRAS    30061910 000109
10231987175000168916200163100    000043697                    000436970000000000000109                     I0143697     30061900000000040003410000017N130319104700000000000103006190000000000000000000000000000000000000000100008501649740ADILSON PEREIRA DIAS                    RUA ALBERTO MARTIRES ASTHN 260,         SAO GERALDO 28630485NOVA FRIBURGO  RJUNIAO UMB DOS CULTOS AFRO BRAS    30061910 000110
10231987175000168916200163100    000043696                    000436960000000000000109                     I0143696     30061900000000040003410000017N130319104700000000000103006190000000000000000000000000000000000000000100099225158734MARIA MAGALI DE OLIVEIRA SOUZA          RUA PIRACAIAN 756, FUNDOS               MARECHAL HER21555260RIO DE JANEIRO RJUNIAO UMB DOS CULTOS AFRO BRAS    30061910 000111
10231987175000168916200163100    000043695                    000436950000000000000109                     I0143695     30061900000000040003410000017N130319104700000000000103006190000000000000000000000000000000000000000100093635540749REGINALDO ALVES DA SILVA                RUA FLAVIO CAVALCANTEN 268,             CACHAMBU    25615060PETROPOLIS     RJUNIAO UMB DOS CULTOS AFRO BRAS    30061910 000112
10231987175000168916200163100    000043694                    000436940000000000000109                     I0143694     30061900000000040003410000017N130319104700000000000103006190000000000000000000000000000000000000000100000497528711JOSE WAGNER DOS SANTOS                  RUA: ZILDA SILVARES N 0, QUADRA D 296 LOVISTA ALEGRE24722200SAO GONCALO    RJUNIAO UMB DOS CULTOS AFRO BRAS    30061910 000113
10231987175000168916200163100    000043693                    000436930000000000000109                     I0143693     30061900000000040003410000017N130319104700000000000103006190000000000000000000000000000000000000000100088341534720RAIMUNDA BERNADINA DE OLIVEIRA          ESTRADA DA GAVEA N 29,  TRAVESSA UNIAO NROCINHA - GA22451530RIO DE JANEIRO RJUNIAO UMB DOS CULTOS AFRO BRAS    30061910 000114
10231987175000168916200163100    000043692                    000436920000000000000109                     I0143692     30061900000000040003410000017N130319104700000000000103006190000000000000000000000000000000000000000100015197047712MARCELLE SOARES ZIMBRAO                 RUA NOSSA SENHORA DAS GRACSN 11,        MOSELA      25675111PETROPOLIS     RJUNIAO UMB DOS CULTOS AFRO BRAS    30061910 000115
10231987175000168916200163100    000043691                    000436910000000000000109                     I0143691     30061900000000040003410000017N130319104700000000000103006190000000000000000000000000000000000000000100085725730700MARIA LUCIA DA SILVA BORGES             RUA CACIPOREN 1273,                     JARDIM OLAVO25036040DUQUE DE CAXIASRJUNIAO UMB DOS CULTOS AFRO BRAS    30061910 000116
10231987175000168916200163100    000043690                    000436900000000000000109                     I0143690     30061900000000040003410000017N130319104700000000000103006190000000000000000000000000000000000000000100002248004770ROSANE ALVES DE AZEVEDO                 AVENIDA W N 14, LOTE 180 CASA 1         LAGOMAR     27970130MACAE          RJUNIAO UMB DOS CULTOS AFRO BRAS    30061910 000117
10231987175000168916200163100    000043689                    000436890000000000000109                     I0143689     30061900000000040003410000017N130319104700000000000103006190000000000000000000000000000000000000000100011778537790MARIVONE ANTONIA DOS SANTOS             RUA TOMAS FONSECAN 1237,                COMENDADOR S26031512NOVA IGUACU    RJUNIAO UMB DOS CULTOS AFRO BRAS    30061910 000118
10231987175000168916200163100    000043688                    000436880000000000000109                     I0143688     30061900000000040003410000017N130319104700000000000103006190000000000000000000000000000000000000000100000238705757ANGELA DA MOTTA NUNES SILVA             RUA RIACHO DOCEN 125, CASA 28           OSVALDO CRUZ21340340RIO DE JANEIRO RJUNIAO UMB DOS CULTOS AFRO BRAS    30061910 000119
10231987175000168916200163100    000043687                    000436870000000000000109                     I0143687     30061900000000040003410000017N130319104700000000000103006190000000000000000000000000000000000000000100045910383787PAULO ROBERTO DE OLIVEIRA DRUB          RUA ARGEMIRO DE HUNGRIA MACHADON 195,   GUADALUPE   21670290RIO DE JANEIRO RJUNIAO UMB DOS CULTOS AFRO BRAS    30061910 000120
10231987175000168916200163100    000043686                    000436860000000000000109                     I0143686     30061900000000040003410000017N130319104700000000000103006190000000000000000000000000000000000000000212395736000195ASSOCIACAO ESPIRITA VOVO REI C          RUA: GUARABUN 390, FUNDOS               INHAUMA     20761060RIO DE JANEIRO RJUNIAO UMB DOS CULTOS AFRO BRAS    30061910 000121
10231987175000168916200163100    000043685                    000436850000000000000109                     I0143685     30061900000000040003410000017N130319104700000000000103006190000000000000000000000000000000000000000100085901512715ZENILDA MACHADO VICENTE LEITE           RUA VILLAGE IMPERIALN 194,              PARQUE MAMBU23954270ANGRA DOS REIS RJUNIAO UMB DOS CULTOS AFRO BRAS    30061910 000122
10231987175000168916200163100    000043684                    000436840000000000000109                     I0143684     30061900000000040003410000017N130319104700000000000103006190000000000000000000000000000000000000000100003617355706INAIA DE MACEDO SANTOS                  RUA PARAIBA DO SULN 35,                 CENTRO      26525470NILOPOLIS      RJUNIAO UMB DOS CULTOS AFRO BRAS    30061910 000123
10231987175000168916200163100    000043683                    000436830000000000000109                     I0143683     30061900000000040003410000017N130319104700000000000103006190000000000000000000000000000000000000000100060244844704IARA NEVES DA SILVA                     RUA JATAUBAN 125,                       ROCHA MIRAND21540600RIO DE JANEIRO RJUNIAO UMB DOS CULTOS AFRO BRAS    30061910 000124
10231987175000168916200163100    000043682                    000436820000000000000109                     I0143682     30061900000000040003410000017N130319104700000000000103006190000000000000000000000000000000000000000100085194557787CELIA MARIA FERNANDES DE CASTR          RUA IRAPIRANGAN 98,                     ROCHA MIRAND21540710RIO DE JANEIRO RJUNIAO UMB DOS CULTOS AFRO BRAS    30061910 000125
10231987175000168916200163100    000043681                    000436810000000000000109                     I0143681     30061900000000040003410000017N130319104700000000000103006190000000000000000000000000000000000000000100010126360707NONILHA DA CONCEICAO FERREIRA           RUA DOROTHEAN 20, QUADRA 1              PIABETA     25931250MAGE           RJUNIAO UMB DOS CULTOS AFRO BRAS    30061910 000126
10231987175000168916200163100    000043680                    000436800000000000000109                     I0143680     30061900000000040003410000017N130319104700000000000103006190000000000000000000000000000000000000000100072520388749REINALDO SILVA DOS SANTOS               RUA FRANCISCA DE OLIVEIRAN 658,         ENGENHEIRO B25520170SAO JOAO DE MERRJUNIAO UMB DOS CULTOS AFRO BRAS    30061910 000127
10231987175000168916200163100    000043679                    000436790000000000000109                     I0143679     30061900000000040003410000017N130319104700000000000103006190000000000000000000000000000000000000000100002480281701CESAR AUGUSTO DA SILVA MARCIAL          RUA: 65N 0, QUADRA 315 LOTE 7 A CASA 2  JARDIM ATLAN24900000MARICA         RJUNIAO UMB DOS CULTOS AFRO BRAS    30061910 000128
10231987175000168916200163100    000043678                    000436780000000000000109                     I0143678     30061900000000040003410000017N130319104700000000000103006190000000000000000000000000000000000000000100080236499734REGINALDO VIEIRA CAPTIVO                RUA DOUTOR NUNESN 1099, FUNDOS          OLARIA      21021370RIO DE JANEIRO RJUNIAO UMB DOS CULTOS AFRO BRAS    30061910 000129
10231987175000168916200163100    000043677                    000436770000000000000109                     I0143677     30061900000000040003410000017N130319104700000000000103006190000000000000000000000000000000000000000100026376253768MARIA DE LOURDES DA SILVA FERN          RUA ESTUDANTE PAULINO DURVALN 0, QUADRA PIABETA     25931882MAGE           RJUNIAO UMB DOS CULTOS AFRO BRAS    30061910 000130
10231987175000168916200163100    000043676                    000436760000000000000109                     I0143676     30061900000000040003410000017N130319104700000000000103006190000000000000000000000000000000000000000100055365795768YEDA BARROS DE AZEVEDO                  RUA SESSENTA E NOVEN 0, QUADRA 332 LOTE JARDIM ATLAN24910000MARICA         RJUNIAO UMB DOS CULTOS AFRO BRAS    30061910 000131
10231987175000168916200163100    000043675                    000436750000000000000109                     I0143675     30061900000000040003410000017N130319104700000000000103006190000000000000000000000000000000000000000100001246557770JOAO PEREIRA DA SILVA FILHO             RUA JAIR VILLELA DE OLIVEIRA N 312,     PARQUE PAULI25070060DUQUE DE CAXIASRJUNIAO UMB DOS CULTOS AFRO BRAS    30061910 000132
10231987175000168916200163100    000043674                    000436740000000000000109                     I0143674     30061900000000040003410000017N130319104700000000000103006190000000000000000000000000000000000000000100068567855772ZAILDA MASCARENHAS DOS SANTOS           RUA FRANCISCO ANTONIO NASCIMENTON 57,   MIGUEL COUTO26070467BELFORD ROXO   RJUNIAO UMB DOS CULTOS AFRO BRAS    30061910 000133
10231987175000168916200163100    000043673                    000436730000000000000109                     I0143673     30061900000000040003410000017N130319104700000000000103006190000000000000000000000000000000000000000100000000000000GILMAR GAMMARO CARVALHO                 RUA GENERAL SEARAN 187, E 189           CAROLINA    25060010DUQUE DE CAXIASRJUNIAO UMB DOS CULTOS AFRO BRAS    30061910 000134
10231987175000168916200163100    000043672                    000436720000000000000109                     I0143672     30061900000000040003410000017N130319104700000000000103006190000000000000000000000000000000000000000100065065328749MARIA LUISA CHAGAS SILVA                RUA BOGARIN 16,                         JARDIM XAVAN26160190BELFORD ROXO   RJUNIAO UMB DOS CULTOS AFRO BRAS    30061910 000135
10231987175000168916200163100    000043671                    000436710000000000000109                     I0143671     30061900000000040003410000017N130319104700000000000103006190000000000000000000000000000000000000000100079310940778JAQUELINE CRISTIANE MARTINS             RUA CAMBUIN 92, APARTAMENTO  2202       FREGUESIA (I21911130RIO DE JANEIRO RJUNIAO UMB DOS CULTOS AFRO BRAS    30061910 000136
10231987175000168916200163100    000043670                    000436700000000000000109                     I0143670     30061900000000040003410000017N130319104700000000000103006190000000000000000000000000000000000000000100005383774700VILMA MACEDO COIMBRA DOS SANTO          RUA TOQUION 571,                        AGOSTINHO PO25545211SAO JOAO DE MERRJUNIAO UMB DOS CULTOS AFRO BRAS    30061910 000137
10231987175000168916200163100    000043669                    000436690000000000000109                     I0143669     30061900000000040003410000017N130319104700000000000103006190000000000000000000000000000000000000000100006957427790ANDREIA CARVALHO DOS SANTOS             RUA: DOUTOR LEALN 376,                  ENGENHO DE D20730030RIO DE JANEIRO RJUNIAO UMB DOS CULTOS AFRO BRAS    30061910 000138
10231987175000168916200163100    000043668                    000436680000000000000109                     I0143668     30061900000000040003410000017N130319104700000000000103006190000000000000000000000000000000000000000100009431078732LUCIA OLIVEIRA BONIFACIO                RUA NINA RIBEIRON 67, FUNDOS            PAVUNA      21520290RIO DE JANEIRO RJUNIAO UMB DOS CULTOS AFRO BRAS    30061910 000139
10231987175000168916200163100    000043667                    000436670000000000000109                     I0143667     30061900000000040003410000017N130319104700000000000103006190000000000000000000000000000000000000000100093473095753ALEXANDER NUNES PICANCO                 RUA MATUSALEMN 315,                     SENADOR CAMA21832270RIO DE JANEIRO RJUNIAO UMB DOS CULTOS AFRO BRAS    30061910 000140
10231987175000168916200163100    000043666                    000436660000000000000109                     I0143666     30061900000000040003410000017N130319104700000000000103006190000000000000000000000000000000000000000100009507261761RODRIGO FELIX DA SILVA                  RUA GENERAL PINTO AMANDON 231, APTº 302HONORIO GURG21511330RIO DE JANEIRO RJUNIAO UMB DOS CULTOS AFRO BRAS    30061910 000141
10231987175000168916200163100    000043665                    000436650000000000000109                     I0143665     30061900000000040003410000017N130319104700000000000103006190000000000000000000000000000000000000000100000421859717ANDREIA DANGELA DE ANDRADE LIM          RUA BORGES MONTEIRO N 100,              HIGIENOPOLIS21051460RIO DE JANEIRO RJUNIAO UMB DOS CULTOS AFRO BRAS    30061910 000142
10231987175000168916200163100    000043664                    000436640000000000000109                     I0143664     30061900000000040003410000017N130319104700000000000103006190000000000000000000000000000000000000000100060208287515MARCONE DE AZEVEDO MAIA                 RUA AMAZONASN 748, QUADRA 68 LOTE 20    MIMOSO 2    47850000LUIS EDUARDO MABAUNIAO UMB DOS CULTOS AFRO BRAS    30061910 000143
10231987175000168916200163100    000043663                    000436630000000000000109                     I0143663     30061900000000040003410000017N130319104700000000000103006190000000000000000000000000000000000000000100003535090784SOLANGE PEREIRA DA SILVA                RUA MANUEL MIRANDAN 226,                ENGENHO NOVO20950300RIO DE JANEIRO RJUNIAO UMB DOS CULTOS AFRO BRAS    30061910 000144
10231987175000168916200163100    000043662                    000436620000000000000109                     I0143662     30061900000000040003410000017N130319104700000000000103006190000000000000000000000000000000000000000100001866064789ALEXANDRE MENDONCA                      RUA TRES DE OUTUBRON 667,               GLEBA B - EN23830020CHAPERO - ITAGURJUNIAO UMB DOS CULTOS AFRO BRAS    30061910 000145
10231987175000168916200163100    000043661                    000436610000000000000109                     I0143661     30061900000000040003410000017N130319104700000000000103006190000000000000000000000000000000000000000100036352624715DAYSE LUZIA DE FREITAS BRITTO           RUA DOISN 0, LOTE 13 QUADRA 15          CHACARAS DE 24900000INOA - MARICA  RJUNIAO UMB DOS CULTOS AFRO BRAS    30061910 000146
10231987175000168916200163100    000043660                    000436600000000000000109                     I0143660     30061900000000040003410000017N130319104700000000000103006190000000000000000000000000000000000000000100038719444753JOAQUIM ROBERTO TRINDADE MONTE          RUA TAQUARIN 192, CASA 2                BRAS DE PINA21215540RIO DE JANEIRO RJUNIAO UMB DOS CULTOS AFRO BRAS    30061910 000147
10231987175000168916200163100    000043659                    000436590000000000000109                     I0143659     30061900000000040003410000017N130319104700000000000103006190000000000000000000000000000000000000000100011193274745WELINGTON PEDRO DOS SANTOS GOM          RUA ARAUJO ROZON 305, FUNDOS            ANCHIETA    21635100RIO DE JANEIRO RJUNIAO UMB DOS CULTOS AFRO BRAS    30061910 000148
10231987175000168916200163100    000043658                    000436580000000000000109                     I0143658     30061900000000040003410000017N130319104700000000000103006190000000000000000000000000000000000000000100099025078753EVA DE OLIVEIRA LOPES                   RUA ITAPIREMAN 0, CASA 2 LOTE 8         ENGENHEIRO P26381740JAPERI         RJUNIAO UMB DOS CULTOS AFRO BRAS    30061910 000149
10231987175000168916200163100    000043657                    000436570000000000000109                     I0143657     30061900000000040003410000017N130319104700000000000103006190000000000000000000000000000000000000000100005333959765CRISTIANE DA CONCEICAO PACHECO          RUA JOSE SEABRAN 6,                     PILAR       25233001DUQUE DE CAXIASRJUNIAO UMB DOS CULTOS AFRO BRAS    30061910 000150
10231987175000168916200163100    000043656                    000436560000000000000109                     I0143656     30061900000000040003410000017N130319104700000000000103006190000000000000000000000000000000000000000100067053424715HELENA DE FATIMA MENDES MARQUE          RUA IRANIRN 182,                        PENHA       21020200RIO DE JANEIRO RJUNIAO UMB DOS CULTOS AFRO BRAS    30061910 000151
10231987175000168916200163100    000043655                    000436550000000000000109                     I0143655     30061900000000040003410000017N130319104700000000000103006190000000000000000000000000000000000000000100000499306724ANA CLAUDIA DE SOUZA RODRIGUES          RUA VALTER SEDER N 45,                  VISTA ALEGRE21230740RIO DE JANEIRO RJUNIAO UMB DOS CULTOS AFRO BRAS    30061910 000152
10231987175000168916200163100    000043654                    000436540000000000000109                     I0143654     30061900000000040003410000017N130319104700000000000103006190000000000000000000000000000000000000000100002181028796EMERSON DIAS DA COSTA                   RUA PARAN 0, LOTE 10 QUADRA 31          VALE DAS MAN26175370BELFORD ROXO   RJUNIAO UMB DOS CULTOS AFRO BRAS    30061910 000153
10231987175000168916200163100    000043653                    000436530000000000000109                     I0143653     30061900000000040003410000017N130319104700000000000103006190000000000000000000000000000000000000000100008016237746RAFAEL GRACA PEREIRA                    ESTRADA DA COVANCAN 360, CASA           TANQUE - JAC22735020RIO DE JANEIRO RJUNIAO UMB DOS CULTOS AFRO BRAS    30061910 000154
10231987175000168916200163100    000043652                    000436520000000000000109                     I0143652     30061900000000040003410000017N130319104700000000000103006190000000000000000000000000000000000000000100084892978787GLEYDS GRANDEN GUERRERO                 RUA ANA GUIMARAESN 61,                  ROCHA       20960040RIO DE JANEIRO RJUNIAO UMB DOS CULTOS AFRO BRAS    30061910 000155
10231987175000168916200163100    000043651                    000436510000000000000109                     I0143651     30061900000000040003410000017N130319104700000000000103006190000000000000000000000000000000000000000100089826930768MARIA DAS DORES SILVA                   RUA JORDAON 805, CASA 40                TANQUE      22725549RIO DE JANEIRO RJUNIAO UMB DOS CULTOS AFRO BRAS    30061910 000156
10231987175000168916200163100    000043650                    000436500000000000000109                     I0143650     30061900000000040003410000017N130319104700000000000103006190000000000000000000000000000000000000000100077406648715MARIZEL NUNES MATHION                   RUA MERCEDES COELHON 251,               COQUEIRAL - 23525100RIO DE JANEIRO RJUNIAO UMB DOS CULTOS AFRO BRAS    30061910 000157
10231987175000168916200163100    000043649                    000436490000000000000109                     I0143649     30061900000000040003410000017N130319104700000000000103006190000000000000000000000000000000000000000100008861162797MARCIO ARAUJO DE MELO SOUZA             RUA GERALDO LOURENCON 70, RIACHAO       JARDIM ROMA 26279325NOVA IGUACU    RJUNIAO UMB DOS CULTOS AFRO BRAS    30061910 000158
10231987175000168916200163100    000043648                    000436480000000000000109                     I0143648     30061900000000040003410000017N130319104700000000000103006190000000000000000000000000000000000000000100034371990720MARILDA CONCEICAO SILVEIRA DA           RUA: MARAJAN 81,                        AREIA BRANCA26135240BELFORD ROXO   RJUNIAO UMB DOS CULTOS AFRO BRAS    30061910 000159
10231987175000168916200163100    000043647                    000436470000000000000109                     I0143647     30061900000000040003410000017N130319104700000000000103006190000000000000000000000000000000000000000100050534173772IARA FRANCISCO                          RUA BARAO DE MELGACON 279, FUNDOS       CORDOVIL    21250320RIO DE JANEIRO RJUNIAO UMB DOS CULTOS AFRO BRAS    30061910 000160
10231987175000168916200163100    000043646                    000436460000000000000109                     I0143646     30061900000000040003410000017N130319104700000000000103006190000000000000000000000000000000000000000100000000000000CARLOS ALBERTO PORTO LEAL               RUA FOSCA N 55,                         POSSE       26020015NOVA IGUACU    RJUNIAO UMB DOS CULTOS AFRO BRAS    30061910 000161
10231987175000168916200163100    000043645                    000436450000000000000109                     I0143645     30061900000000040003410000017N130319104700000000000103006190000000000000000000000000000000000000000100007650422747SIDNEI DO VALE FELISBERTO               RUA: DESEMBARGADOR MACHADO GUIMARAESN 90JARDIM TROPI26011110NOVA IGUACU    RJUNIAO UMB DOS CULTOS AFRO BRAS    30061910 000162
10231987175000168916200163100    000043644                    000436440000000000000109                     I0143644     30061900000000040003410000017N130319104700000000000103006190000000000000000000000000000000000000000100076658961700BEATRIZ DIAS DO NASCIMENTO              RUA SAO BRUNON 55, APT 301              PENHA       21021160RIO DE JANEIRO RJUNIAO UMB DOS CULTOS AFRO BRAS    30061910 000163
10231987175000168916200163100    000043643                    000436430000000000000109                     I0143643     30061900000000040003410000017N130319104700000000000103006190000000000000000000000000000000000000000100036257869749IRANI DA SILVA CORREA                   RUA JATAIZINHON 11,  JARDIM ORIENTAL    SENADOR VASC23012170RIO DE JANEIRO RJUNIAO UMB DOS CULTOS AFRO BRAS    30061910 000164
10231987175000168916200163100    000043642                    000436420000000000000109                     I0143642     30061900000000040003410000017N130319104700000000000103006190000000000000000000000000000000000000000100062783203715SORAYA BARROS PINHEIRO                  RUA: SANTOS TITARAN 45, APTº 115       TODOS OS SAN20735240RIO DE JANEIRO RJUNIAO UMB DOS CULTOS AFRO BRAS    30061910 000165
10231987175000168916200163100    000043641                    000436410000000000000109                     I0143641     30061900000000040003410000017N130319104700000000000103006190000000000000000000000000000000000000000100000000000855ELIZABETH GOMES MONTEIRO DA SI          RUA: MUNIZ ACQUARONE N 74,              IRAJA       21220460RIO DE JANEIRO RJUNIAO UMB DOS CULTOS AFRO BRAS    30061910 000166
10231987175000168916200163100    000043640                    000436400000000000000109                     I0143640     30061900000000040003410000017N130319104700000000000103006190000000000000000000000000000000000000000100007775553790ANDRE BATISTA DO NASCIMENTO AR          RUA DOUTOR BERNADINO N 559,  CASA 101 BLPRACA SECA  21320020RIO DE JANEIRO RJUNIAO UMB DOS CULTOS AFRO BRAS    30061910 000167
10231987175000168916200163100    000043639                    000436390000000000000109                     I0143639     30061900000000040003410000017N130319104700000000000103006190000000000000000000000000000000000000000232536268000139ILE AIYABA AFEFE-AFEIYKA                RUA: HONORIO DE ALMEIDAN 68, CASA 1     IRAJA       21235490RIO DE JANEIRO RJUNIAO UMB DOS CULTOS AFRO BRAS    30061910 000168
10231987175000168916200163100    000043638                    000436380000000000000109                     I0143638     30061900000000040003410000017N130319104700000000000103006190000000000000000000000000000000000000000100058984178772ELIZABETH RIBEIRO VALENTE FARI          RUA: VASCO DA GAMA N 1409,              PARQUE ESTOR26063190NOVA IGUACU    RJUNIAO UMB DOS CULTOS AFRO BRAS    30061910 000169
10231987175000168916200163100    000043637                    000436370000000000000109                     I0143637     30061900000000040003410000017N130319104700000000000103006190000000000000000000000000000000000000000100050775561720LEANDRO MECENAS DA CUNHA                RUA GUATOSN 34,                         PARQUE SAO C26051640NOVA IGUACU    RJUNIAO UMB DOS CULTOS AFRO BRAS    30061910 000170
10231987175000168916200163100    000043636                    000436360000000000000109                     I0143636     30061900000000040003410000017N130319104700000000000103006190000000000000000000000000000000000000000100002603000713DEBORA DOS SANTOS GOES                  RUA DOZE N 198, CASA 2 AREA 4           NOVA CAMPINA25268240DUQUE DE CAXIASRJUNIAO UMB DOS CULTOS AFRO BRAS    30061910 000171
10231987175000168916200163100    000043635                    000436350000000000000109                     I0143635     30061900000000040003410000017N130319104700000000000103006190000000000000000000000000000000000000000100007295283757DULCE DOS SANTOS MONTEIRO               AVENIDA: ESTACIO DE SAN 0, LOTE 32 QUADRPARQUE NOVO 25585000SAO JOAO DE MERRJUNIAO UMB DOS CULTOS AFRO BRAS    30061910 000172
10231987175000168916200163100    000043634                    000436340000000000000109                     I0143634     30061900000000040003410000017N130319104700000000000103006190000000000000000000000000000000000000000100099272946700MARCOS ANTONIO DA SILVA                 RUA PIACAVAN 100,                       VILA MARILIA26040210NOVA IGUACU    RJUNIAO UMB DOS CULTOS AFRO BRAS    30061910 000173
10231987175000168916200163100    000043633                    000436330000000000000109                     I0143633     30061900000000040003410000017N130319104700000000000103006190000000000000000000000000000000000000000100046180303720ALANIR SOARES DA SILVA                  RUA QUATORZEN 0, LOTE 14 QUADRA 32      SANTA CRUZ  23520292RIO DE JANEIRO RJUNIAO UMB DOS CULTOS AFRO BRAS    30061910 000174
10231987175000168916200163100    000043632                    000436320000000000000109                     I0143632     30061900000000040003410000017N130319104700000000000103006190000000000000000000000000000000000000000100063553830778WILLIAM RODRIGUES                       ESTRADA OTEIRO SANTON 1022, CASA 3      TAQUARA     22713169RIO DE JANEIRO RJUNIAO UMB DOS CULTOS AFRO BRAS    30061910 000175
10231987175000168916200163100    000043631                    000436310000000000000109                     I0143631     30061900000000040003410000017N130319104700000000000103006190000000000000000000000000000000000000000100010749011777LUIZ CARLOS LOYOLA ALVES                RUA OURO PRETON 40,                     COMUNIDADE T26297144NOVA IGUACU    RJUNIAO UMB DOS CULTOS AFRO BRAS    30061910 000176
10231987175000168916200163100    000043630                    000436300000000000000109                     I0143630     30061900000000040003410000017N130319104700000000000103006190000000000000000000000000000000000000000100007272823798ANGELO DA SILVA VICENTE                 RUA ALMEIDA JUNIORN 698,                JARDIM ALCAN24710160SAO GONCALO    RJUNIAO UMB DOS CULTOS AFRO BRAS    30061910 000177
10231987175000168916200163100    000043629                    000436290000000000000109                     I0143629     30061900000000040003410000017N130319104700000000000103006190000000000000000000000000000000000000000100038370999700JULIO ALEXANDRE FERREIRA                RUA BARAO DE JACUIN 254, CASA 16 FUNDOS OSWALDO CRUZ21550310RIO DE JANEIRO RJUNIAO UMB DOS CULTOS AFRO BRAS    30061910 000178
10231987175000168916200163100    000043628                    000436280000000000000109                     I0143628     30061900000000040003410000017N130319104700000000000103006190000000000000000000000000000000000000000100000681004770ESPEDITA NUNES DA SILVA                 AVENIDA CASTELO BRANCON 0,  LOTE 3 QUADRPARQUE ELDOR25243570DUQUE DE CAXIASRJUNIAO UMB DOS CULTOS AFRO BRAS    30061910 000179
10231987175000168916200163100    000043627                    000436270000000000000109                     I0143627     30061900000000040003410000017N130319104700000000000103006190000000000000000000000000000000000000000100000000008400DANIEL DOMINGOS DA SILVA                RUA: CAMINHO MADEIRA N 87,              MANGUEIRA   26270470NOVA IGUACU    RJUNIAO UMB DOS CULTOS AFRO BRAS    30061910 000180
10231987175000168916200163100    000043626                    000436260000000000000109                     I0143626     30061900000000040003410000017N130319104700000000000103006190000000000000000000000000000000000000000100000559151756HENIE DA SILVA ALENCAR                  RUA: ROBERTO CALDASN 0, LOTE 13 QUADRA BPARQUE FLUMI26187400BELFORD ROXO   RJUNIAO UMB DOS CULTOS AFRO BRAS    30061910 000181
10231987175000168916200163100    000043625                    000436250000000000000109                     I0143625     30061900000000040003410000017N130319104700000000000103006190000000000000000000000000000000000000000100062792920700LUIZ CESAR DE OLIVEIRA                  RUA PEREIRA DE FIGUEIREDON 627,         OSWALDO CRUZ21340030RIO DE JANEIRO RJUNIAO UMB DOS CULTOS AFRO BRAS    30061910 000182
10231987175000168916200163100    000043624                    000436240000000000000109                     I0143624     30061900000000040003410000017N130319104700000000000103006190000000000000000000000000000000000000000100000000000000MARIA DA PENHA DOS SANTOS MARQ          RUA: BRENO SOUZA ALVESN 11,             SAO BERNADO 26165000BELFORD ROXO   RJUNIAO UMB DOS CULTOS AFRO BRAS    30061910 000183
10231987175000168916200163100    000043623                    000436230000000000000109                     I0143623     30061900000000040003410000017N130319104700000000000103006190000000000000000000000000000000000000000100006870897786JARDELI DE OLIVEIRA LISTO               RUA CEU AZUL N 0, LOTE 8 QUADRA 19      CURICICA    22780650RIO DE JANEIRO RJUNIAO UMB DOS CULTOS AFRO BRAS    30061910 000184
10231987175000168916200163100    000043622                    000436220000000000000109                     I0143622     30061900000000040003410000017N130319104700000000000103006190000000000000000000000000000000000000000100008901438704THIAGO RODRIGUES DA SILVA MOUR          RUA CENTRALN 0, TRAVESSA B16 - Nº 75   PRAIA MAUA  25930000MAGE           RJUNIAO UMB DOS CULTOS AFRO BRAS    30061910 000185
10231987175000168916200163100    000043621                    000436210000000000000109                     I0143621     30061900000000040003410000017N130319104700000000000103006190000000000000000000000000000000000000000217168602000155ILE AXE T OGUM XOROKE                   ESTRADA DO CAMBOATAN 2966, N 7 QUADRA C GUADALUPE   21660000RIO DE JANEIRO RJUNIAO UMB DOS CULTOS AFRO BRAS    30061910 000186
10231987175000168916200163100    000043620                    000436200000000000000109                     I0143620     30061900000000040003410000017N130319104700000000000103006190000000000000000000000000000000000000000100088537285749ELCIO CRUZ DE OLIVEIRA                  RUA SANTA CLARAN 8, APARTAMENTO 602     COPACABANA  22041012RIO DE JANEIRO RJUNIAO UMB DOS CULTOS AFRO BRAS    30061910 000187
10231987175000168916200163100    000043619                    000436190000000000000109                     I0143619     30061900000000040003410000017N130319104700000000000103006190000000000000000000000000000000000000000100002978000783FABIO PINTO MANTUANO                    RUA: DAS AMOREIRAS N 23, QUADRA 4       INOA        24943760MARICA         RJUNIAO UMB DOS CULTOS AFRO BRAS    30061910 000188
10231987175000168916200163100    000043618                    000436180000000000000109                     I0143618     30061900000000040003410000017N130319104700000000000103006190000000000000000000000000000000000000000100055688306734ROBERTO BRAGANCA BAHIA                  RUA PALADINO GARCIAN 0, LOTE 5 - CASA 2 CENTRO      26130290BELFORD ROXO   RJUNIAO UMB DOS CULTOS AFRO BRAS    30061910 000189
10231987175000168916200163100    000043617                    000436170000000000000109                     I0143617     30061900000000040003410000017N130319104700000000000103006190000000000000000000000000000000000000000100001117379744VERA LUCIA DE SOUZA COUTO               RUA RUDY ALBERTON 868, IMPERADOR        MAUA        25900000MAGE           RJUNIAO UMB DOS CULTOS AFRO BRAS    30061910 000190
10231987175000168916200163100    000043616                    000436160000000000000109                     I0143616     30061900000000040003410000017N130319104700000000000103006190000000000000000000000000000000000000000100004121968751MARIA ALICE MANOEL DO VALE              RUA B N 0, LOTE 9 QUADRA 3              JARDIM MARAM24800000ITABORAI       RJUNIAO UMB DOS CULTOS AFRO BRAS    30061910 000191
10231987175000168916200163100    000043615                    000436150000000000000109                     I0143615     30061900000000040003410000017N130319104700000000000103006190000000000000000000000000000000000000000100081051387787ROSA AMELIA COSENZA                     RUA MARIA DA GLORIA BALTARN 48,         NOVA CIDADE 26535290NILOPOLIS      RJUNIAO UMB DOS CULTOS AFRO BRAS    30061910 000192
10231987175000168916200163100    000043614                    000436140000000000000109                     I0143614     30061900000000040003410000017N130319104700000000000103006190000000000000000000000000000000000000000100039828425734DIANA CORREA                            RUA: RIO DAS PEDRAS N 98,               OSWALDO CRUZ21351370RIO DE JANEIRO RJUNIAO UMB DOS CULTOS AFRO BRAS    30061910 000193
10231987175000168916200163100    000043613                    000436130000000000000109                     I0143613     30061900000000040003410000017N130319104700000000000103006190000000000000000000000000000000000000000100065091515704MARIA DA PENHA BARBOSA                  RUA HELVIA BRAGANCAN 390, LOTE 33 QUADRABOM PASTOR  26110030BELFORD ROXO   RJUNIAO UMB DOS CULTOS AFRO BRAS    30061910 000194
10231987175000168916200163100    000043612                    000436120000000000000109                     I0143612     30061900000000040003410000017N130319104700000000000103006190000000000000000000000000000000000000000100004501217715JOSE DIOMEDES DO PATROCINIO NE          RUA DOUTOR LAUREANON 250,               VILA SAO LUI25060220DUQUE DE CAXIASRJUNIAO UMB DOS CULTOS AFRO BRAS    30061910 000195
10231987175000168916200163100    000043611                    000436110000000000000109                     I0143611     30061900000000040003410000017N130319104700000000000103006190000000000000000000000000000000000000000100004753333736ELAINE DOS SANTOS FONTES ARAUJ          RUA HELIANTO N 795, CASA 7              PADRE MIGUEL21775090RIO DE JANEIRO RJUNIAO UMB DOS CULTOS AFRO BRAS    30061910 000196
10231987175000168916200163100    000043610                    000436100000000000000109                     I0143610     30061900000000040003410000017N130319104700000000000103006190000000000000000000000000000000000000000100007342538779DAVID GARDINA FERREIRA LUCIO            RUA SARAPUI N 34, CASA 1                COELHO DA RO25550531SAO JOAO DE MERRJUNIAO UMB DOS CULTOS AFRO BRAS    30061910 000197
10231987175000168916200163100    000043609                    000436090000000000000109                     I0143609     30061900000000040003410000017N130319104700000000000103006190000000000000000000000000000000000000000100003316779701WALLACE SILVA SOARES                    RUA QUINZE DE NOVEMBRON 0, LOTE 2 QUADRASARACURUNA  25212690DUQUE DE CAXIASRJUNIAO UMB DOS CULTOS AFRO BRAS    30061910 000198
10231987175000168916200163100    000043608                    000436080000000000000109                     I0143608     30061900000000040003410000017N130319104700000000000103006190000000000000000000000000000000000000000100027686205720DENNIS CLARE                            RUA RATICLIFFN 105,                     RIACHUELO   20950170RIO DE JANEIRO RJUNIAO UMB DOS CULTOS AFRO BRAS    30061910 000199
10231987175000168916200163100    000043607                    000436070000000000000109                     I0143607     30061900000000040003410000017N130319104700000000000103006190000000000000000000000000000000000000000100064949559753CREUZA LEAL COIMBRA                     AVENIDA CORONEL RAIMUNDO SAMPAIO N 167, JARDIM BOTAN25570393SAO JOAO DE MERRJUNIAO UMB DOS CULTOS AFRO BRAS    30061910 000200
10231987175000168916200163100    000043606                    000436060000000000000109                     I0143606     30061900000000040003410000017N130319104700000000000103006190000000000000000000000000000000000000000100000916644707MARIA DA CONCEICAO DE MOURA PI          AVENIDA ANA AUGUSTAN 0, LOTE 29 QUADRA 2VILA IBIRAPI23811120ITAGUAI        RJUNIAO UMB DOS CULTOS AFRO BRAS    30061910 000201
10231987175000168916200163100    000043605                    000436050000000000000109                     I0143605     30061900000000040003410000017N130319104700000000000103006190000000000000000000000000000000000000000100007972604711ADRIANA TAVARES DA CONCEICAO            RUA: PEREIRON 0, LOTE 33 CASA 3         TAQUARA - JA22723155RIO DE JANEIRO RJUNIAO UMB DOS CULTOS AFRO BRAS    30061910 000202
10231987175000168916200163100    000043604                    000436040000000000000109                     I0143604     30061900000000040003410000017N130319104700000000000103006190000000000000000000000000000000000000000100036386812700VICENCO GEARDINA NETO                   ESTRADA SANTA BARBARA N 863,            MIGUEL COUTO26061070NOVA IGUACU    RJUNIAO UMB DOS CULTOS AFRO BRAS    30061910 000203
10231987175000168916200163100    000043603                    000436030000000000000109                     I0143603     30061900000000040003410000017N130319104700000000000103006190000000000000000000000000000000000000000100003027226703MARCIO ALVES DOS SANTOS                 RUA ESTUDANTE ELIANE CASTANHEIRAN 874,  CENTRO      25510242SAO JOAO DE MERRJUNIAO UMB DOS CULTOS AFRO BRAS    30061910 000204
10231987175000168916200163100    000043602                    000436020000000000000109                     I0143602     30061900000000040003410000017N130319104700000000000103006190000000000000000000000000000000000000000100093971087787SUELY DE CASSIA NEVES DA SILVA          RUA ANTONIO JOAQUIM DA SILVA N 49,      PARQUE BARRE25581140SAO JOAO DE MERRJUNIAO UMB DOS CULTOS AFRO BRAS    30061910 000205
10231987175000168916200163100    000043601                    000436010000000000000109                     I0143601     30061900000000040003410000017N130319104700000000000103006190000000000000000000000000000000000000000100081947712772MARIA COELHO DE LIMA                    RUA MARQUESA DOS SANTOS N 240, CASA 1   VILA ROSARIO25040070DUQUE DE CAXIASRJUNIAO UMB DOS CULTOS AFRO BRAS    30061910 000206
10231987175000168916200163100    000043600                    000436000000000000000109                     I0143600     30061900000000040003410000017N130319104700000000000103006190000000000000000000000000000000000000000100096252634700PATRICIA BORGES                         RUA DOS CAJUEIROSN 0, QUADRA A LOTE 1   SEPETIBA    23530074RIO DE JANEIRO RJUNIAO UMB DOS CULTOS AFRO BRAS    30061910 000207
10231987175000168916200163100    000043599                    000435990000000000000109                     I0143599     30061900000000040003410000017N130319104700000000000103006190000000000000000000000000000000000000000225237434000130ILE ASE OMIBUNILE - ASE LAGOIN          RUA: VITORIAN 16, QUADRA N LOTE 8       LAGOINHA    26296447NOVA IGUACU    RJUNIAO UMB DOS CULTOS AFRO BRAS    30061910 000208
10231987175000168916200163100    000043598                    000435980000000000000109                     I0143598     30061900000000040003410000017N130319104700000000000103006190000000000000000000000000000000000000000100010083312790EDINALDO FELIX DA SILVA                 RUA POJUCA N 174, CASA 3                ZUMBI       21930180ILHA DO GOVERNARJUNIAO UMB DOS CULTOS AFRO BRAS    30061910 000209
10231987175000168916200163100    000043597                    000435970000000000000109                     I0143597     30061900000000040003410000017N130319104700000000000103006190000000000000000000000000000000000000000100080295576715DOLORES DAS GRACAS ADRIANO DE           RUA SOLDADO PRIM CANESN 0,  QUADRA 198 LVILA MAR    23025420GUARATIBA      RJUNIAO UMB DOS CULTOS AFRO BRAS    30061910 000210
10231987175000168916200163100    000043596                    000435960000000000000109                     I0143596     30061900000000040003410000017N130319104700000000000103006190000000000000000000000000000000000000000100003549035780CARLOS ALBERTO DA SILVA SANTOS          RUA MARIA SENA MOREIRA N 218,           INCONFIDENCI26085060NOVA IGUACU    RJUNIAO UMB DOS CULTOS AFRO BRAS    30061910 000211
10231987175000168916200163100    000043595                    000435950000000000000109                     I0143595     30061900000000040003410000017N130319104700000000000103006190000000000000000000000000000000000000000100001393165745MARCO AURELIO DE BARROS FARIAS          RUA AIROSA GALVAON 44, CASA             FONSECA     24120100NITEROI        RJUNIAO UMB DOS CULTOS AFRO BRAS    30061910 000212
10231987175000168916200163100    000043594                    000435940000000000000109                     I0143594     30061900000000040003410000017N130319104700000000000103006190000000000000000000000000000000000000000100044851839715MARIA DA PENHA                          RUA ADELINO FERREIRAN 12,               JARDIM VILA 25045310DUQUE DE CAXIASRJUNIAO UMB DOS CULTOS AFRO BRAS    30061910 000213
10231987175000168916200163100    000043593                    000435930000000000000109                     I0143593     30061900000000040003410000017N130319104700000000000103006190000000000000000000000000000000000000000100077451953734VANDA NILDA DE ASSIS                    RUA COELHO LISBOA N 168,                OSVALDO CRUZ21340260RIO DE JANEIRIORJUNIAO UMB DOS CULTOS AFRO BRAS    30061910 000214
10231987175000168916200163100    000043592                    000435920000000000000109                     I0143592     30061900000000040003410000017N130319104700000000000103006190000000000000000000000000000000000000000100005415694730ALEX SANDRO DA SILVA BANDEIRA           RUA PAULO ROBERTO N 6,                  PRAIA DE MAU25900000MAGE           RJUNIAO UMB DOS CULTOS AFRO BRAS    30061910 000215
10231987175000168916200163100    000043591                    000435910000000000000109                     I0143591     30061900000000040003410000017N130319104700000000000103006190000000000000000000000000000000000000000100082059403715SANDRA HELENA VILLAMOR MONTASS          RUA ARGOS N 693,                        GUADALUPE   21660050RIO DE JANEIRO RJUNIAO UMB DOS CULTOS AFRO BRAS    30061910 000216
10231987175000168916200163100    000043590                    000435900000000000000109                     I0143590     30061900000000040003410000017N130319104700000000000103006190000000000000000000000000000000000000000100012948872898LUCILENE BARROS                         RUA DO PIANO N 21,                      CAMPOS ELISI25225218DUQUE DE CAXIASRJUNIAO UMB DOS CULTOS AFRO BRAS    30061910 000217
10231987175000168916200163100    000043589                    000435890000000000000109                     I0143589     30061900000000040003410000017N130319104700000000000103006190000000000000000000000000000000000000000100060407875700KATIA DE AZEVEDO FURTADO                RUA SOUZA PITANGA N 82, FRENTE          THOMAS COELH21381230RIO DE JANEIRO RJUNIAO UMB DOS CULTOS AFRO BRAS    30061910 000218
10231987175000168916200163100    000043588                    000435880000000000000109                     I0143588     30061900000000040003410000017N130319104700000000000103006190000000000000000000000000000000000000000100088677079734MARIA APARECIDA MORAIS DOS SAN          RUA OLAVO GAMAN 0, TRAVESSA F - PROJETADLARGO DO COR23040400RIO DE JANEIRO RJUNIAO UMB DOS CULTOS AFRO BRAS    30061910 000219
10231987175000168916200163100    000043587                    000435870000000000000109                     I0143587     30061900000000040003410000017N130319104700000000000103006190000000000000000000000000000000000000000100067023711791EURIDES DOS SANTOS                      RUA CORONEL ALBERTO DE MELO N 47, CASA 1AREIA BRANCA26112370BELFORD ROXO   RJUNIAO UMB DOS CULTOS AFRO BRAS    30061910 000220
10231987175000168916200163100    000043586                    000435860000000000000109                     I0143586     30061900000000040003410000017N130319104700000000000103006190000000000000000000000000000000000000000100051851229787MARTA DO NASCIMENTO CRISPINO            RUA LEONOR SARAMAGO N 89,               FONSECA     24120340NITEROI        RJUNIAO UMB DOS CULTOS AFRO BRAS    30061910 000221
10231987175000168916200163100    000043585                    000435850000000000000109                     I0143585     30061900000000040003410000017N130319104700000000000103006190000000000000000000000000000000000000000100003987884720SAINT CLAIR MACHADO FERNANDES           RUA JACA N 0, QUADRA 4 LOTE 14          PARQUE ESPER26173510BELFORD ROXO   RJUNIAO UMB DOS CULTOS AFRO BRAS    30061910 000222
10231987175000168916200163100    000043584                    000435840000000000000109                     I0143584     30061900000000040003410000017N130319104700000000000103006190000000000000000000000000000000000000000100003549931786LUCIANE CRISTINA OLIVEIRA DOS           RUA AMANDIU N 334, FRENTE               IRAJA       21371440RIO DE JANEIRO RJUNIAO UMB DOS CULTOS AFRO BRAS    30061910 000223
10231987175000168916200163100    000043583                    000435830000000000000109                     I0143583     30061900000000040003410000017N130319104700000000000103006190000000000000000000000000000000000000000100009959417778CARLOS HENRIQUE LOPES ROSA              RUA: ROSA MULLER N 0, LOTE 3 CD 1 BLOCO VILAR DOS TE25560355SAO JOAO DE MERRJUNIAO UMB DOS CULTOS AFRO BRAS    30061910 000224
10231987175000168916200163100    000043582                    000435820000000000000109                     I0143582     30061900000000040003410000017N130319104700000000000103006190000000000000000000000000000000000000000100066638682768VALERIA COELHO DA SILVA                 RUA DOUTOR ALFREDO BARCELOS N 381, CASA OLARIA      21021421RIO DE JANEIRO RJUNIAO UMB DOS CULTOS AFRO BRAS    30061910 000225
10231987175000168916200163100    000043581                    000435810000000000000109                     I0143581     30061900000000040003410000017N130319104700000000000103006190000000000000000000000000000000000000000100096599170749LUCINEA LOPES DA SILVA                  RUA: PONTAL DO SUL N 80,                JARDIM ESPLA26013350NOVA IGUACU    RJUNIAO UMB DOS CULTOS AFRO BRAS    30061910 000226
10231987175000168916200163100    000043580                    000435800000000000000109                     I0143580     30061900000000040003410000017N130319104700000000000103006190000000000000000000000000000000000000000100061523003715MARIA EMILIA RIBEIRO VIEIRA DO          RUA EIMA N 132, CASA 2 FUNDOS           IRAJA       21220370RIO DE JANEIRO RJUNIAO UMB DOS CULTOS AFRO BRAS    30061910 000227
10231987175000168916200163100    000043579                    000435790000000000000109                     I0143579     30061900000000040003410000017N130319104700000000000103006190000000000000000000000000000000000000000100004253363792VIVIANE ALVES DO ROSARIO                AVENIDA DAS AMERICASN 19000, CASA 130-1 RECREIO DOS 22790704RIO DE JANEIRO RJUNIAO UMB DOS CULTOS AFRO BRAS    30061910 000228
10231987175000168916200163100    000043578                    000435780000000000000109                     I0143578     30061900000000040003410000017N130319104700000000000103006190000000000000000000000000000000000000000100034663240763GUARACI FRANCISCO RIBEIRO               RUA ASTRALN 63,                         ROSA DOS VEN26276070NOVA IGUACU    RJUNIAO UMB DOS CULTOS AFRO BRAS    30061910 000229
10231987175000168916200163100    000043577                    000435770000000000000109                     I0143577     30061900000000040003410000017N130319104700000000000103006190000000000000000000000000000000000000000100005432577704JOAO TEIXEIRA BRAGA NETO                RUA CANDIDO DE OLIVEIRA  N 38,          RIO COMPRIDO20261220RIO DE JANEIRO RJUNIAO UMB DOS CULTOS AFRO BRAS    30061910 000230
10231987175000168916200163100    000043576                    000435760000000000000109                     I0143576     30061900000000040003410000017N130319104700000000000103006190000000000000000000000000000000000000000100075750384772VERA LUCIA BORGES NAZARETH              RUA DA CAPITAL N 430,                   MAUA - SAO F25930000MAGE           RJUNIAO UMB DOS CULTOS AFRO BRAS    30061910 000231
10231987175000168916200163100    000043575                    000435750000000000000109                     I0143575     30061900000000040003410000017N130319104700000000000103006190000000000000000000000000000000000000000100076550893704MARCO ANTONIO DE ARAUJO                 RUA ROSANGELAN 223, PRAIA DO ANIL       OLARIA - MAU25925690MAGE           RJUNIAO UMB DOS CULTOS AFRO BRAS    30061910 000232
10231987175000168916200163100    000043574                    000435740000000000000109                     I0143574     30061900000000040003410000017N130319104700000000000103006190000000000000000000000000000000000000000100075531585772ROSANGELA PAULINA RODRIGUES             RUA FLORIANO PINHEIRO DE CAMPOSN 1581,  CARMARI     26040010NOVA IGUACU    RJUNIAO UMB DOS CULTOS AFRO BRAS    30061910 000233
10231987175000168916200163100    000043573                    000435730000000000000109                     I0143573     30061900000000040003410000017N130319104700000000000103006190000000000000000000000000000000000000000100011564970787MARIA ELIZA PINHEIRO SERRA              RUA ULEMASN 30,                         POSSE - SANT26020790NOVA IGUACU    RJUNIAO UMB DOS CULTOS AFRO BRAS    30061910 000234
10231987175000168916200163100    000043572                    000435720000000000000109                     I0143572     30061900000000040003410000017N130319104700000000000103006190000000000000000000000000000000000000000100064431002715SERGIO MURILO ALVES PEREIRA             RUA ROCHA N 0, LOTE 4 QUADRA 4 CASA 2   JARDIM BONIF25565161SAO JOAO DE MERRJUNIAO UMB DOS CULTOS AFRO BRAS    30061910 000235
10231987175000168916200163100    000043571                    000435710000000000000109                     I0143571     30061900000000040003410000017N130319104700000000000103006190000000000000000000000000000000000000000100000905106741RICARDO DE SOUZA GOUVEA                 RUA: DOS ARAUJON 0, LOTE 6 QUADRA 8     PARQUE FLUMI26185260BELFORD ROXO   RJUNIAO UMB DOS CULTOS AFRO BRAS    30061910 000236
10231987175000168916200163100    000043570                    000435700000000000000109                     I0143570     30061900000000040003410000017N130319104700000000000103006190000000000000000000000000000000000000000100025969153753MARIA EUNICE FRUCTUOSO MIGUEL           RUA VIRGEM PEREGRINAN 81,               PIEDADE     21381070RIO DE JANEIRO RJUNIAO UMB DOS CULTOS AFRO BRAS    30061910 000237
10231987175000168916200163100    000043569                    000435690000000000000109                     I0143569     30061900000000025003410000017N130319104700000000000103006190000000000000000000000000000000000000000100052329160763NENI GOMES DE ALMEIDA                   RUA MARIA SANTANA FERNANDES N 0, LOTE 8 JARDIM ACACI23845250SEROPEDICA     RJUNIAO UMB DOS CULTOS AFRO BRAS    30061910 000238
10231987175000168916200163100    000043568                    000435680000000000000109                     I0143568     30061900000000040003410000017N130319104700000000000103006190000000000000000000000000000000000000000100054590604787VANDA PAIVA                             RUA LUIZ JACINTON 0, LOTE 3             EDEN        25535161SAO JOAO DE MERRJUNIAO UMB DOS CULTOS AFRO BRAS    30061910 000239
10231987175000168916200163100    000043567                    000435670000000000000109                     I0143567     30061900000000040003410000017N130319104700000000000103006190000000000000000000000000000000000000000100059099747772EULINA LUCIA RODRIGUES DE SOUZ          RUA XAVIER DOS PASSAROS N 18, FUNDOS    PIEDADE     20740330RIO DE JANEIRO RJUNIAO UMB DOS CULTOS AFRO BRAS    30061910 000240
10231987175000168916200163100    000043566                    000435660000000000000109                     I0143566     30061900000000040003410000017N130319104700000000000103006190000000000000000000000000000000000000000100009116311787ETELVINA SOUZA DUARTE                   RUA CAIABU N 137,  APTO 403             IRAJA       21361230RIO DE JANEIRO RJUNIAO UMB DOS CULTOS AFRO BRAS    30061910 000241
10231987175000168916200163100    000043565                    000435650000000000000109                     I0143565     30061900000000040003410000017N130319104700000000000103006190000000000000000000000000000000000000000100007309710746ROSA HELENA PINTO MANUEL                RUA: CINCINATO CHAVESN 120, CASA 1      VISTA ALEGRE21236010RIO DE JANEIRO RJUNIAO UMB DOS CULTOS AFRO BRAS    30061910 000242
10231987175000168916200163100    000043564                    000435640000000000000109                     I0143564     30061900000000040003410000017N130319104700000000000103006190000000000000000000000000000000000000000100009839961721MARIO DE OLIVEIRA CARLOS                RUA BRAUNAN 0,  LOTE 7 QUADRA 3         JARDIM PRIMA25000000DUQUE DE CAXIASRJUNIAO UMB DOS CULTOS AFRO BRAS    30061910 000243
10231987175000168916200163100    000043563                    000435630000000000000109                     I0143563     30061900000000040003410000017N130319104700000000000103006190000000000000000000000000000000000000000100001057873705ADEMIR ANDRADE CUNHA                    RUA PACHECO DA ROCHAN 636,              BENTO RIBEIR21555092RIO DE JANEIRO RJUNIAO UMB DOS CULTOS AFRO BRAS    30061910 000244
10231987175000168916200163100    000043562                    000435620000000000000109                     I0143562     30061900000000040003410000017N130319104700000000000103006190000000000000000000000000000000000000000100039341887704NORMA AYRES DA SILVA                    RUA VALENCA N 245,                      BAR DOS CAVA25015590DUQUE DE CAXIASRJUNIAO UMB DOS CULTOS AFRO BRAS    30061910 000245
10231987175000168916200163100    000043561                    000435610000000000000109                     I0143561     30061900000000040003410000017N130319104700000000000103006190000000000000000000000000000000000000000100011208480758MARIA ANTONIA KIFFER CORREA             AVENIDA MARECHAL HERMES N 1060,         VILA SAO LUI25065115DUQUE DE CAXIASRJUNIAO UMB DOS CULTOS AFRO BRAS    30061910 000246
10231987175000168916200163100    000043560                    000435600000000000000109                     I0143560     30061900000000040003410000017N130319104700000000000103006190000000000000000000000000000000000000000100064250121704ANGELA MARIA BRAZ MANHAES               RUA JUTAIN 0,  LOTE 20 QUADRA 151       PERIQUITO   25025290DUQUE DE CAXIASRJUNIAO UMB DOS CULTOS AFRO BRAS    30061910 000247
10231987175000168916200163100    000043559                    000435590000000000000109                     I0143559     30061900000000040003410000017N130319104700000000000103006190000000000000000000000000000000000000000100088469212753NEIDE CARVALHO D ANGELO                 RUA GENERAL TRAUMATURGO N 0, LOTE 17 QUAVILA ROSARIO25040010DUQUE DE CAXIASRJUNIAO UMB DOS CULTOS AFRO BRAS    30061910 000248
10231987175000168916200163100    000043558                    000435580000000000000109                     I0143558     30061900000000040003410000017N130319104700000000000103006190000000000000000000000000000000000000000100070030928753VIRGILANE COSTA DE SOUZA                RUA GAMO N 611,                         GUARANI     25575380SAO JOAO DE MERRJUNIAO UMB DOS CULTOS AFRO BRAS    30061910 000249
