01REMESSA01COBRANCA       916200163100        União Umb dos Cultos Afro Bra341BANCO ITAU SA  280218                                                                                                                                                                                                                                                                                                      000001
10231987175000168916200163100    000014136                    000141360000000000000109                     I0114136     10031800000000633883410000017N280218104700000000000101003180000000000000000000000000000000000000000100025937030753MANOEL GABRIEL DA SILVA                 RUA: ALCIDES MAIA                       BENTO RIBEIR21550560RIO DE JANEIRO RJUNIAO UMB DOS CULTOS AFRO BRAS    10031810 000002
10231987175000168916200163100    000014135                    000141350000000000000109                     I0114135     10031800000000830083410000017N280218104700000000000101003180000000000000000000000000000000000000000100013946879772ALDENI ALBENORA DA SILVA                RUA: JOAO DANIEL                        BENTO RIBEIR21550480RIO DE JANEIRO RJUNIAO UMB DOS CULTOS AFRO BRAS    10031810 000003
10231987175000168916200163100    000014134                    000141340000000000000109                     I0114134     10031800000000886863410000017N280218104700000000000101003180000000000000000000000000000000000000000100049547410768ROSELI DE SAO JOSE MOREIRA              RUA: ALCIDES MAIA                       BENTO RIBEIR21550560RIO DE JANEIRO RJUNIAO UMB DOS CULTOS AFRO BRAS    10031810 000004
10231987175000168916200163100    000014133                    000141330000000000000109                     I0114133     10031800000000763683410000017N280218104700000000000101003180000000000000000000000000000000000000000100000424410755ANA PAULA SILVA BARBOSA                 RUA: ALCIDES MAIA                       BENTO RIBEIR21550560RIO DE JANEIRO RJUNIAO UMB DOS CULTOS AFRO BRAS    10031810 000005
10231987175000168916200163100    000014132                    000141320000000000000109                     I0114132     10031800000000574083410000017N280218104700000000000101003180000000000000000000000000000000000000000100007854516766NATALIE SILVA DE LIMA                   RUA: JOAO DANIEL                        BENTO RIBEIR21550480RIO DE JANEIRO RJUNIAO UMB DOS CULTOS AFRO BRAS    10031810 000006
10231987175000168916200163100    000014131                    000141310000000000000109                     I0114131     10031800000000763573410000017N280218104700000000000101003180000000000000000000000000000000000000000100082228507768IARA LUCIA RIBEIRO QUINTINO             RUA: JOAO DANIEL                        BENTO RIBEIR21550480RIO DE JANEIRO RJUNIAO UMB DOS CULTOS AFRO BRAS    10031810 000007
10231987175000168916200163100    000014130                    000141300000000000000109                     I0114130     10031800000000299633410000017N280218104700000000000101003180000000000000000000000000000000000000000100068760680725ANNA LUCIA DE SOUZA                     RUA: JOAO DANIEL                        BENTO RIBEIR21550480RIO DE JANEIRO RJUNIAO UMB DOS CULTOS AFRO BRAS    10031810 000008
10231987175000168916200163100    000014129                    000141290000000000000109                     I0114129     10031800000000595083410000017N280218104700000000000101003180000000000000000000000000000000000000000100078566738772MARINA SOARES DA SILVA                  RUA: JOAO DANIEL                        BENTO RIBEIR21550480RIO DE JANEIRO RJUNIAO UMB DOS CULTOS AFRO BRAS    10031810 000009
10231987175000168916200163100    000014128                    000141280000000000000109                     I0114128     10031800000000419633410000017N280218104700000000000101003180000000000000000000000000000000000000000100068760680725ANNA LUCIA DE SOUZA                     RUA: JOAO DANIEL                        BENTO RIBEIR21550480RIO DE JANEIRO RJUNIAO UMB DOS CULTOS AFRO BRAS    10031810 000010
10231987175000168916200163100    000014127                    000141270000000000000109                     I0114127     10031800000000512953410000017N280218104700000000000101003180000000000000000000000000000000000000000100093728467791ALEX DE SOUZA MARTINS                   RUA: JOAO DANIEL                        BENTO RIBEIR21550480RIO DE JANEIRO RJUNIAO UMB DOS CULTOS AFRO BRAS    10031810 000011
10231987175000168916200163100    000014126                    000141260000000000000109                     I0114126     10031800000001200003410000017N280218104700000000000101003180000000000000000000000000000000000000000100012701486726MARIANA MAGALHAES DE C. J. I.           RUA: SALOMAO FILHO                      MARECHAL HER21331660RIO DE JANEIRO RJUNIAO UMB DOS CULTOS AFRO BRAS    10031810 000012
10231987175000168916200163100    000014101                    000141010000000000000109                     I3414101     10041800000000350003410000017N270218104700000000000101004180000000000000000000000000000000000000000100074510266715ANA LUCIA DE ALMEIDA BURITY             ESTRADA CAPOEIRA GRANDE                 PEDRA DE GUA23026220RIO DE JANEIRO RJUNIAO UMB DOS CULTOS AFRO BRAS    10041810 000013
10231987175000168916200163100    00008951                     000089510000000000000109                     I028951      10011800000000629283410000017N020118104700000000000101001180000000000000000000000000000000000000000100025937030753MANOEL GABRIEL DA SILVA                 RUA: ALCIDES MAIA                       BENTO RIBEIR21550560RIO DE JANEIRO RJUNIAO UMB DOS CULTOS AFRO BRAS    10011810 000014
10231987175000168916200163100    00008949                     000089490000000000000109                     I028949      10011800000000886863410000017N020118104700000000000101001180000000000000000000000000000000000000000100049547410768ROSELI DE SAO JOSE MOREIRA              RUA: ALCIDES MAIA                       BENTO RIBEIR21550560RIO DE JANEIRO RJUNIAO UMB DOS CULTOS AFRO BRAS    10011810 000015
10231987175000168916200163100    00008940                     000089400000000000000109                     I028940      10011800000000419173410000017N020118104700000000000101001180000000000000000000000000000000000000000100068760680725ANNA LUCIA DE SOUZA                     RUA: JOAO DANIEL                        BENTO RIBEIR21550480RIO DE JANEIRO RJUNIAO UMB DOS CULTOS AFRO BRAS    10011810 000016
10231987175000168916200163100    00008938                     000089380000000000000109                     I028938      10011800000000519723410000017N020118104700000000000101001180000000000000000000000000000000000000000100093728467791ALEX DE SOUZA MARTINS                   RUA: JOAO DANIEL                        BENTO RIBEIR21550480RIO DE JANEIRO RJUNIAO UMB DOS CULTOS AFRO BRAS    10011810 000017
10231987175000168916200163100    00008934                     000089340000000000000109                     I028934      31011800000000035003410000017N020118104700000000000103101180000000000000000000000000000000000000000100065000366700DULCINEIA DA SILVA MENDONCA             RUA ALBERTINO LADEIRA N 63              MONTE CASTEL26041510NOVA IGUACU    RJUNIAO UMB DOS CULTOS AFRO BRAS    31011810 000018
10231987175000168916200163100    00008460                     000084600000000000000109                     I028460      31011800000000035003410000017N020118104700000000000103101180000000000000000000000000000000000000000100034946018700SIDNEY ESTRELA EVANGELISTA              RUA ELZA SN QUADRA 34 LOTE 39           JARDIM GUANA26321020QUEIMADOS      RJUNIAO UMB DOS CULTOS AFRO BRAS    31011810 000019
10231987175000168916200163100    00003935                     000039350000000000000109                     I023935      22121700000000350003410000017N171117104700000000000102212170000000000000000000000000000000000000000100043839312787GILDA MANOELA                           RUA CRISANTEMOS, LOTE 28 QUADRA 20      PRADOS VERDE26299039NOVA IGUACU    RJUNIAO UMB DOS CULTOS AFRO BRAS    22121710 000020
9                                                                                                                                                                                                                                                                                                                                                                                                         000021
