01REMESSA01COBRANCA       916200163100        União Umb dos Cultos Afro Bra341BANCO ITAU SA  290119                                                                                                                                                                                                                                                                                                      000001
10231987175000168916200163100    000039674                    000396740000000000000109                     I0139674     15021900000000070003410000017N290119104700000000000101502190000000000000000000000000000000000000000100092650716720ANDRE LUIS ALMEIDA SOUZA                RUA CAIMIRIM                            SANTA TEREZI26555050BELFORD ROXO   RJUNIAO UMB DOS CULTOS AFRO BRAS    15021910 000002
9                                                                                                                                                                                                                                                                                                                                                                                                         000003
