01REMESSA01COBRANCA       817800093673        União Umb dos Cultos Afro Bra341BANCO ITAU SA  280619                                                                                                                                                                                                                                                                                                      000001
10231987175000168817800093673    000048427                    000484270000000000000109                     I0248427     30091900000000040003410000017N100619105700000000000133009190000000000000000000000000000000000000000100003778949748MARLENE PEREIRA DA SILVA MELO           RUA COMENDADOR REISN 481,               CENTRO      25900142MAGE           RJUNIAO UMB DOS CULTOS AFRO BRAS    30091915 000002
21300920190000000000080                                                                                                                                                                                                                                                                                                                                                                                   000003
10231987175000168817800093673    000046991                    000469910000000000000109                     I0246991     30081900000000040003410000017N100619105700000000000133008190000000000000000000000000000000000000000100003778949748MARLENE PEREIRA DA SILVA MELO           RUA COMENDADOR REISN 481,               CENTRO      25900142MAGE           RJUNIAO UMB DOS CULTOS AFRO BRAS    30081915 000004
21300820190000000000080                                                                                                                                                                                                                                                                                                                                                                                   000005
10231987175000168817800093673    000045569                    000455690000000000000109                     I0245569     30071900000000040003410000017N100619105700000000000133007190000000000000000000000000000000000000000100003778949748MARLENE PEREIRA DA SILVA MELO           RUA COMENDADOR REISN 481,               CENTRO      25900142MAGE           RJUNIAO UMB DOS CULTOS AFRO BRAS    30071915 000006
21300720190000000000080                                                                                                                                                                                                                                                                                                                                                                                   000007
10231987175000168817800093673    000045519                    000455190000000000000109                     I3445519     30071900000000040003410000017N100619105700000000000133007190000000000000000000000000000000000000000100009886046716ANA CRISTINA DE ALMEIDA TRINDA          RUA COTIJUBAN 156,                      ROCHA MIRAND21555020RIO DE JANEIRO RJUNIAO UMB DOS CULTOS AFRO BRAS    30071915 000008
21300720190000000000080                                                                                                                                                                                                                                                                                                                                                                                   000009
9                                                                                                                                                                                                                                                                                                                                                                                                         000010
