01REMESSA01COBRANCA       817800093673        União Umb dos Cultos Afro Bra341BANCO ITAU SA  131218                                                                                                                                                                                                                                                                                                      000001
10231987175000168817800093673    000033561                    000335610000000000000109                     I0133561     20121800000000010003410000017N121218104700000000000102012180000000000000000000000000000000000000000100011820663728BRENDA GOMES MARTELLO PANNO             RUA EMILIA RIBEIRO                      BENTO RIBEIR21640060RIO DE JANEIRO RJUNIAO UMB DOS CULTOS AFRO BRAS    20121810 000002
9                                                                                                                                                                                                                                                                                                                                                                                                         000003
