01REMESSA01COBRANCA       916200163100        União Umb dos Cultos Afro Bra341BANCO ITAU SA  140418                                                                                                                                                                                                                                                                                                      000001
10231987175000168916200163100    000014400                    000144000000000000000109                     I0114400     20041800000000035003410000017N130418104700000000000102004180000000000000000000000000000000000000000100004291405766JACQUELINE ELIZABETH BALTHAZAR          RUA PROFESSOR LACE, 134 APTO 404        RAMOS - RIO 21060120RIO DE JANEIRO RJUNIAO UMB DOS CULTOS AFRO BRAS    20041810 000002
10231987175000168916200163100    000014399                    000143990000000000000109                     I0114399     20041800000000035003410000017N130418104700000000000102004180000000000000000000000000000000000000000100001298660750ROSEMBERG EFIGENIO BARBOSA              RUA: TANCREDO MARTINS COSTA             ENGENHO DE D20730310RIO DE JANEIRO RJUNIAO UMB DOS CULTOS AFRO BRAS    20041810 000003
10231987175000168916200163100    000014398                    000143980000000000000109                     I0114398     20041800000000035003410000017N130418104700000000000102004180000000000000000000000000000000000000000100001298660750ROSEMBERG EFIGENIO BARBOSA              RUA: TANCREDO MARTINS COSTA             ENGENHO DE D20730310RIO DE JANEIRO RJUNIAO UMB DOS CULTOS AFRO BRAS    20041810 000004
10231987175000168916200163100    000014397                    000143970000000000000109                     I0114397     04051800000000140003410000017N130418104700000000000100405180000000000000000000000000000000000000000100001057873705ADEMIR ANDRADE CUNHA                    RUA PACHECO DA ROCHA N 636              BENTO RIBEIR21555092RIO DE JANEIRO RJUNIAO UMB DOS CULTOS AFRO BRAS    04051810 000005
10231987175000168916200163100    000014158                    000141580000000000000109                     I0214158     30031800000000035003410000017N050318104700000000000103003180000000000000000000000000000000000000000100066564689772CARLOS DE ARAUJO RIBEIRO                RUA DIVISORIA, 235                      BENTO RIBEIR21331250RIO DE JANEIRO RJUNIAO UMB DOS CULTOS AFRO BRAS    30031810 000006
10231987175000168916200163100    00008852                     000088520000000000000109                     I028852      31011800000000035003410000017N020118104700000000000103101180000000000000000000000000000000000000000100003866737726ALESSANDRO ESTRELA RODRIGUES            RUA B 1 SN QD 49 LT 11 - JD GARRIDO     PEDRA DE GUA23026060PEDRA DE GUARATRJUNIAO UMB DOS CULTOS AFRO BRAS    31011810 000007
10231987175000168916200163100    00004434                     000044340000000000000109                     I024434      22121700000000350003410000017N171117104700000000000102212170000000000000000000000000000000000000000100003567552740ERICA NADJARA DA LUZ                    RUA ENGENHEIRO ALARIPE N 114            LAGOINHA - N26296588NOVA IGUACU    RJUNIAO UMB DOS CULTOS AFRO BRAS    22121710 000008
10231987175000168916200163100    00004433                     000044330000000000000109                     I024433      22121700000000350003410000017N171117104700000000000102212170000000000000000000000000000000000000000100001317399722JUSSARA DOS SANTOS MACHADO              RUA ARIES N 36                          PARQUE SAO J26190080BELFORD ROXO   RJUNIAO UMB DOS CULTOS AFRO BRAS    22121710 000009
10231987175000168916200163100    00004432                     000044320000000000000109                     I024432      22121700000000350003410000017N171117104700000000000102212170000000000000000000000000000000000000000100011309006733TIAGO FEUCHARD DIAS                     RUA QUARENTA E NOVE N 130               IPIABAS - BA27170000BARRA DO PIRAI RJUNIAO UMB DOS CULTOS AFRO BRAS    22121710 000010
10231987175000168916200163100    00004431                     000044310000000000000109                     I024431      22121700000000350003410000017N171117104700000000000102212170000000000000000000000000000000000000000100095529616704MARCOS LUIZ BORGES FIGUEIREDO           RUA PADUA N 95 - REDENTOR               REDENTOR - B26110250BELFORD ROXO   RJUNIAO UMB DOS CULTOS AFRO BRAS    22121710 000011
10231987175000168916200163100    00004428                     000044280000000000000109                     I024428      22121700000000350003410000017N171117104700000000000102212170000000000000000000000000000000000000000100007900227709FLAVIA ARAUJO DA ROCHA SANTOS           RUA MARECHAL AGRICOLA N 186             REALENGO - R21735370RIO DE JANEIRO RJUNIAO UMB DOS CULTOS AFRO BRAS    22121710 000012
10231987175000168916200163100    00004427                     000044270000000000000109                     I024427      22121700000000350003410000017N171117104700000000000102212170000000000000000000000000000000000000000100013297469706LEANDRO SOUZA DE JESUS                  RUA DAS MARRECAS - RUA CARLOTA SN       PARQUE ANTAR26053310NOVA IGUACU    RJUNIAO UMB DOS CULTOS AFRO BRAS    22121710 000013
10231987175000168916200163100    00004424                     000044240000000000000109                     I024424      22121700000000350003410000017N171117104700000000000102212170000000000000000000000000000000000000000100099941120749ERNELIA DA SILVA                        RUA JOSE BEZZ N 23 LOTE 299 QUADRA 9    GABRIEL UM -24856172ITABORAI       RJUNIAO UMB DOS CULTOS AFRO BRAS    22121710 000014
10231987175000168916200163100    00004423                     000044230000000000000109                     I024423      22121700000000350003410000017N171117104700000000000102212170000000000000000000000000000000000000000100010498307760WILLIAM ROSA DA COSTA                   RUA OITENTA LOTE 35 QUADRA 246          IPIRANGA - M25927164MAGE           RJUNIAO UMB DOS CULTOS AFRO BRAS    22121710 000015
10231987175000168916200163100    00004420                     000044200000000000000109                     I024420      22121700000000350003410000017N171117104700000000000102212170000000000000000000000000000000000000000200000000012726VALTER CRISTIANO DOS SANTOS             RUA SAO VENANCIO N 327                  RICARDO DE A21640330RIO DE JANEIRO RJUNIAO UMB DOS CULTOS AFRO BRAS    22121710 000016
10231987175000168916200163100    00004419                     000044190000000000000109                     I024419      22121700000000350003410000017N171117104700000000000102212170000000000000000000000000000000000000000100001148949739MARIA DAS GRACAS SEBASTIANA DO          RUA PEREIRA PINTO N 91                  TOMAS COELHO20761350RIO DE JANEIRO RJUNIAO UMB DOS CULTOS AFRO BRAS    22121710 000017
10231987175000168916200163100    00004418                     000044180000000000000109                     I024418      22121700000000350003410000017N171117104700000000000102212170000000000000000000000000000000000000000100012488412716CHARLES GARCIA DE OLIVEIRA              ESTRADA DO QUITUNGO N 45 FRENTE         BRAZ DE PINA21215562RIO DE JANEIRO RJUNIAO UMB DOS CULTOS AFRO BRAS    22121710 000018
10231987175000168916200163100    00004416                     000044160000000000000109                     I024416      22121700000000350003410000017N171117104700000000000102212170000000000000000000000000000000000000000100060601493400IRACEMA SILVA DE SANTANA                NUNCA RUA XAVANTE N 243                 BANGU - RIO 21840030RIO DE JANEIRO RJUNIAO UMB DOS CULTOS AFRO BRAS    22121710 000019
10231987175000168916200163100    00004414                     000044140000000000000109                     I024414      22121700000000350003410000017N171117104700000000000102212170000000000000000000000000000000000000000100001034293796LILIA NERES DE ALMEIDA                  RUA VERISSIMO MACHADO N 237             ROCHA MIRAND21542060RIO DE JANEIRO RJUNIAO UMB DOS CULTOS AFRO BRAS    22121710 000020
10231987175000168916200163100    00004413                     000044130000000000000109                     I024413      22121700000000350003410000017N171117104700000000000102212170000000000000000000000000000000000000000100010426625765ALESSANDRA LAURIANO LIMA DOMIN          RUA PROJETADA N 4                       ANCORA - RIO28899515RIO DAS OSTRAS RJUNIAO UMB DOS CULTOS AFRO BRAS    22121710 000021
10231987175000168916200163100    00004412                     000044120000000000000109                     I024412      22121700000000350003410000017N171117104700000000000102212170000000000000000000000000000000000000000100009755597700PAULA SABINO MIGUEZ                     RUA SANTO TIRSO N 141                   JARDIM ALZIR26300190QUEIMADOS      RJUNIAO UMB DOS CULTOS AFRO BRAS    22121710 000022
10231987175000168916200163100    00004410                     000044100000000000000109                     I024410      22121700000000350003410000017N171117104700000000000102212170000000000000000000000000000000000000000100077601505716NADIA MARIA DE BRITTO LUCENA            RUA LIBERATO BITENCOURT N 170           MAGALHAES BA21735120RIO DE JANEIRO RJUNIAO UMB DOS CULTOS AFRO BRAS    22121710 000023
10231987175000168916200163100    00004409                     000044090000000000000109                     I024409      22121700000000350003410000017N171117104700000000000102212170000000000000000000000000000000000000000100077601505715ROBERTO RAMOS DA CUNHA                  RUA MOACIR N 107                        XEREM - CENT25245660DUQUE DE CAXIASRJUNIAO UMB DOS CULTOS AFRO BRAS    22121710 000024
10231987175000168916200163100    00004407                     000044070000000000000109                     I024407      22121700000000350003410000017N171117104700000000000102212170000000000000000000000000000000000000000100009959898776ANGELICA MONTEIRO DE OLIVEIRA           RUA CINCO N 313 - GLEBA A - CHAPERO     ITAGUAI - RJ23831190ITAGUAI        RJUNIAO UMB DOS CULTOS AFRO BRAS    22121710 000025
10231987175000168916200163100    00004406                     000044060000000000000109                     I024406      22121700000000350003410000017N171117104700000000000102212170000000000000000000000000000000000000000100009346968702ADRIANA DOS SANTOS PRUDENCIO            RUA AFONSO TERRA N 789 FUNDOS           PAVUNA - RIO21520010RIO DE JANEIRO RJUNIAO UMB DOS CULTOS AFRO BRAS    22121710 000026
10231987175000168916200163100    00004402                     000044020000000000000109                     I024402      22121700000000350003410000017N171117104700000000000102212170000000000000000000000000000000000000000100015295681700MICHEL FERNANDES BASTOS CRESPO          RUA ROSANGELA TOSTES LOTE 8 QD 21       PARQUE FLUMI26185260BELFORD ROXO   RJUNIAO UMB DOS CULTOS AFRO BRAS    22121710 000027
10231987175000168916200163100    00004387                     000043870000000000000109                     I024387      22121700000000350003410000017N171117104700000000000102212170000000000000000000000000000000000000000100007726251743ROSANGELA IZAURINA DOS SANTOS           RUA ENEIAS N 60                         LAGOINHA - N26296552NOVA IGUACU    RJUNIAO UMB DOS CULTOS AFRO BRAS    22121710 000028
10231987175000168916200163100    00004243                     000042430000000000000109                     I024243      22121700000000350003410000017N171117104700000000000102212170000000000000000000000000000000000000000100004291405766JACQUELINE ELIZABETH BALTHAZAR          RUA PROFESSOR LACE, 134 APTO 404        RAMOS - RIO 21060120RIO DE JANEIRO RJUNIAO UMB DOS CULTOS AFRO BRAS    22121710 000029
10231987175000168916200163100    00004178                     000041780000000000000109                     I024178      22121700000000350003410000017N171117104700000000000102212170000000000000000000000000000000000000000100014842140720HUDSON WALLACE ANGELO DA SILVA          O MESMO                                 O MESMO     25220689DUQUE DE CAXIASRJUNIAO UMB DOS CULTOS AFRO BRAS    22121710 000030
10231987175000168916200163100    00004175                     000041750000000000000109                     I024175      22121700000000350003410000017N171117104700000000000102212170000000000000000000000000000000000000000100018453662711ANDERSON DA SILVA NUNES                 RUA ESTREMADURA, 1525 40 C FUNDOS       VISTA ALEGRE21230510RIO DE JANEIRO RJUNIAO UMB DOS CULTOS AFRO BRAS    22121710 000031
10231987175000168916200163100    00004173                     000041730000000000000109                     I024173      22121700000000350003410000017N171117104700000000000102212170000000000000000000000000000000000000000100054085071734DENISE SANTANA MACIEL                   RUA CARATUVA, LOTE 19                   JARDIM SULAC22725020RIO DE JANEIRO RJUNIAO UMB DOS CULTOS AFRO BRAS    22121710 000032
10231987175000168916200163100    00004172                     000041720000000000000109                     I024172      22121700000000350003410000017N171117104700000000000102212170000000000000000000000000000000000000000100001390670350ANA PAULA SOUSA                         ESTRADA BOGANVILLE, 869 CASA 22         ANIL - JACAR22753210RIO DE JANEIRO RJUNIAO UMB DOS CULTOS AFRO BRAS    22121710 000033
10231987175000168916200163100    00004171                     000041710000000000000109                     I024171      22121700000000350003410000017N171117104700000000000102212170000000000000000000000000000000000000000100003632396779ADRIANA DA RESSURREICAO GUEDES          RUA PARANA, 439                         CENTRO - MES26253020MESQUITA       RJUNIAO UMB DOS CULTOS AFRO BRAS    22121710 000034
10231987175000168916200163100    00004170                     000041700000000000000109                     I024170      22121700000000350003410000017N171117104700000000000102212170000000000000000000000000000000000000000100082981191772DEJANIRA LOPES FERREIRA                 RUA JOSE BENTO DE OLIVEIRA, 129         QUIMICA - BA27130270BARRA DO PIRAI RJUNIAO UMB DOS CULTOS AFRO BRAS    22121710 000035
10231987175000168916200163100    00004168                     000041680000000000000109                     I024168      22121700000000350003410000017N171117104700000000000102212170000000000000000000000000000000000000000100008189349724ELIANE DA SILVA SALGUEIRO FIGU          RUA CAPITAO JORGE SOARES,100 LOJA 06 - ECIDADE NOVA 28960000IGUABA GRANDE  RJUNIAO UMB DOS CULTOS AFRO BRAS    22121710 000036
10231987175000168916200163100    00004166                     000041660000000000000109                     I024166      22121700000000350003410000017N171117104700000000000102212170000000000000000000000000000000000000000100065022734672VITOR HUGO ESPINOLA DA VEIGA            RUA CARLOS CHAGAS, LOTE 2 QUADRA 1      HELIOPOLIS -26125210BELFORD ROXO   RJUNIAO UMB DOS CULTOS AFRO BRAS    22121710 000037
10231987175000168916200163100    00004165                     000041650000000000000109                     I024165      22121700000000350003410000017N171117104700000000000102212170000000000000000000000000000000000000000100054581184720MARIA LUIZA DE SOUZA                    RUA JASMIM, 4                           POSSE - NOVA26021720NOVA IGUACU    RJUNIAO UMB DOS CULTOS AFRO BRAS    22121710 000038
10231987175000168916200163100    00004162                     000041620000000000000109                     I024162      22121700000000350003410000017N171117104700000000000102212170000000000000000000000000000000000000000100000447643754JANICE LEAL CARRILHO                    RUA DAS AMOREIRAS, 190 BLOCO 26 APTO 101COSMOS - RIO23056630RIO DE JANEIRO RJUNIAO UMB DOS CULTOS AFRO BRAS    22121710 000039
10231987175000168916200163100    00004160                     000041600000000000000109                     I024160      22121700000000350003410000017N171117104700000000000102212170000000000000000000000000000000000000000100000055376738MARIA DA GRACA BRANDAO                  RUA MATARAZZO, QUADRA 17 LOTE 5         GUARATIBA - 23028750RIO DE JANEIRO RJUNIAO UMB DOS CULTOS AFRO BRAS    22121710 000040
10231987175000168916200163100    00004159                     000041590000000000000109                     I024159      22121700000000350003410000017N171117104700000000000102212170000000000000000000000000000000000000000200000000012036MARTINA SELMA DA COSTA                  RUA BUCARESTE, LOTE 27 QUADRA 79        VILA CENTRAL26316136QUEIMADOS      RJUNIAO UMB DOS CULTOS AFRO BRAS    22121710 000041
10231987175000168916200163100    00004157                     000041570000000000000109                     I024157      22121700000000350003410000017N171117104700000000000102212170000000000000000000000000000000000000000100067348793720MARCIO DE SOUZA MOURA                   RUA CAJUIPE,  110                       BONSUCESSO -21060490RIO DE JANEIRO RJUNIAO UMB DOS CULTOS AFRO BRAS    22121710 000042
10231987175000168916200163100    00004156                     000041560000000000000109                     I024156      22121700000000350003410000017N171117104700000000000102212170000000000000000000000000000000000000000100008548472782ADRIANO MENDES DA COSTA                 RUA  J, 16 CASA                         CAMPINHO - R21330735RIO DE JANEIRO RJUNIAO UMB DOS CULTOS AFRO BRAS    22121710 000043
10231987175000168916200163100    00004155                     000041550000000000000109                     I024155      22121700000000350003410000017N171117104700000000000102212170000000000000000000000000000000000000000100072214171720ROBSON ROGERIO CRUZ                     TRAVESSA ALMERINDA FREITAS,  25 SALA 408MADUREIRA - 21350280RIO DE JANEIRO RJUNIAO UMB DOS CULTOS AFRO BRAS    22121710 000044
10231987175000168916200163100    00004153                     000041530000000000000109                     I024153      22121700000000350003410000017N171117104700000000000102212170000000000000000000000000000000000000000100001254302727EDUARDO ROSA                            RUA PARAGUACU CARNEIRO, 55 CASA         PARQUE ANCHI21635390RIO DE JANEIRO RJUNIAO UMB DOS CULTOS AFRO BRAS    22121710 000045
10231987175000168916200163100    00004152                     000041520000000000000109                     I024152      22121700000000350003410000017N171117104700000000000102212170000000000000000000000000000000000000000100003747539700MARCIA SANTANA DA SILVA COSTA           RUA GOVERNADOR PORTELA  CASA 2 LOTE 3 QUPQ ARARUAMA 25580690SAO JOAO DE MERRJUNIAO UMB DOS CULTOS AFRO BRAS    22121710 000046
10231987175000168916200163100    00004151                     000041510000000000000109                     I024151      22121700000000350003410000017N171117104700000000000102212170000000000000000000000000000000000000000100089511000730JORGE LUIS DE OLIVEIRA QUEIROZ          RUA JOSE ALVES PIMENTA, 912 CASA 1      MATADOURO - 27115010BARRA DO PIRAI RJUNIAO UMB DOS CULTOS AFRO BRAS    22121710 000047
10231987175000168916200163100    00004150                     000041500000000000000109                     I024150      22121700000000350003410000017N171117104700000000000102212170000000000000000000000000000000000000000100080285570749KATIA REGINA SILVA DE SOUZA             RUA JACARACI,  46                       REALENGO - R21710140RIO DE JANEIRO RJUNIAO UMB DOS CULTOS AFRO BRAS    22121710 000048
10231987175000168916200163100    00004145                     000041450000000000000109                     I024145      22121700000000350003410000017N171117104700000000000102212170000000000000000000000000000000000000000100015188766760VICTOR DOS ANJOS PAVAO                  RUA DOUTOR ARI CHAGAS, 497              SEPETIBA - R23540000RIO DE JANEIRO RJUNIAO UMB DOS CULTOS AFRO BRAS    22121710 000049
10231987175000168916200163100    00004107                     000041070000000000000109                     I024107      22121700000000350003410000017N171117104700000000000102212170000000000000000000000000000000000000000100007804875754EVANDRO MEDEIROS DE OLIVEIRA            RUA 64, LOTE 40 QUADRA 303 CASA 1       JARDIM ATLAN24934045MARICA         RJUNIAO UMB DOS CULTOS AFRO BRAS    22121710 000050
10231987175000168916200163100    00003918                     000039180000000000000109                     I023918      22121700000000350003410000017N171117104700000000000102212170000000000000000000000000000000000000000100002046107705PAULO SERGIO MILITAO HENRIQUE           RUA VIENA, 41                           BRAS DE PINA21215350RIO DE JANEIRO RJUNIAO UMB DOS CULTOS AFRO BRAS    22121710 000051
10231987175000168916200163100    00003917                     000039170000000000000109                     I023917      22121700000000350003410000017N171117104700000000000102212170000000000000000000000000000000000000000100002575759790TERESA QUITA                            AVENIDA PRIMEIRO DE MAIO, 2786 GLEBA B  CHAPERO - IT23831350ITAGUAI        RJUNIAO UMB DOS CULTOS AFRO BRAS    22121710 000052
10231987175000168916200163100    00003910                     000039100000000000000109                     I023910      22121700000000350003410000017N171117104700000000000102212170000000000000000000000000000000000000000100005318929729PAULO CESAR AGUIAR DE ALMEIDA           RUA LAURA BRANDAO, 171 FRENTE           GUADALUPE - 21675510RIO DE JANEIRO RJUNIAO UMB DOS CULTOS AFRO BRAS    22121710 000053
10231987175000168916200163100    00003904                     000039040000000000000109                     I023904      22121700000000350003410000017N171117104700000000000102212170000000000000000000000000000000000000000100075745658720ELIZIETE COIMBRA DE FRANCA              RUA SAO LOURENCO, 99 - SANTA RITA       SANTA RITA -26050630NOVA IGUACU    RJUNIAO UMB DOS CULTOS AFRO BRAS    22121710 000054
10231987175000168916200163100    00003902                     000039020000000000000109                     I023902      22121700000000350003410000017N171117104700000000000102212170000000000000000000000000000000000000000100078433177753DAYSE DA SILVA MATTOS ARAUJO            RUA JOANA GONCALVES, 139                CENTRO - NIL26510650NILOPOLIS      RJUNIAO UMB DOS CULTOS AFRO BRAS    22121710 000055
10231987175000168916200163100    00003901                     000039010000000000000109                     I023901      22121700000000350003410000017N171117104700000000000102212170000000000000000000000000000000000000000100043548628753MARIA SALETTE MATTOSO RODRIGUE          RUA PERNAMBUCO, 1254                    ENCANTADO - 20730030RIO DE JANEIRO RJUNIAO UMB DOS CULTOS AFRO BRAS    22121710 000056
10231987175000168916200163100    00003900                     000039000000000000000109                     I023900      22121700000000350003410000017N171117104700000000000102212170000000000000000000000000000000000000000100007117717742MARCELO VITAL DOMINATO                  RUA ATIBA, 44 FUNDOS - JACARE           CACHAMBI - R20785110RIO DE JANEIRO RJUNIAO UMB DOS CULTOS AFRO BRAS    22121710 000057
10231987175000168916200163100    00003888                     000038880000000000000109                     I023888      22121700000000350003410000017N171117104700000000000102212170000000000000000000000000000000000000000200000000010590CLARA MONTE PADILHA PINHEIRO            RUA E, QUADRA 15                        HUMAITA - D.25915000DUQUE DE CAXIASRJUNIAO UMB DOS CULTOS AFRO BRAS    22121710 000058
10231987175000168916200163100    00003865                     000038650000000000000109                     I023865      22121700000000350003410000017N171117104700000000000102212170000000000000000000000000000000000000000100071360573704GREICE DE SOUZA MILHAR DA SILV          RUA DOUTOR JOVINIANO, 707               MADUREIRA - 21360310RIO DE JANEIRO RJUNIAO UMB DOS CULTOS AFRO BRAS    22121710 000059
10231987175000168916200163100    00003858                     000038580000000000000109                     I023858      22121700000000350003410000017N171117104700000000000102212170000000000000000000000000000000000000000100011694897702RONIVON BASILIO TEXEIRA                 RUA PROJETADA 1, 28                     VILA MARIA H25213335DUQUE DE CAXIASRJUNIAO UMB DOS CULTOS AFRO BRAS    22121710 000060
10231987175000168916200163100    00003856                     000038560000000000000109                     I023856      22121700000000350003410000017N171117104700000000000102212170000000000000000000000000000000000000000100083679472749SILVIA REGINA DE SOUZA BAPTIST          RUA  LAFAIETE JOSE MEDINA, 2            CHAPEU MANGU22010020RIO DE JANEIRO RJUNIAO UMB DOS CULTOS AFRO BRAS    22121710 000061
10231987175000168916200163100    00003671                     000036710000000000000109                     I023671      22121700000000350003410000017N171117104700000000000102212170000000000000000000000000000000000000000100084703741768LINDALVA PEREIRA DE SOUZA               ESTRADA BARRO VERMELHO, 1366            ROCHA MIRAND21540499RIO DE JANEIRO RJUNIAO UMB DOS CULTOS AFRO BRAS    22121710 000062
10231987175000168916200163100    00003665                     000036650000000000000109                     I023665      22121700000000350003410000017N171117104700000000000102212170000000000000000000000000000000000000000200000000008430ALESSANDRO SIQUEIRA ALVES               RUA CARLOTA, 241                        VILA OMEGA -26053350NOVA IGUACU    RJUNIAO UMB DOS CULTOS AFRO BRAS    22121710 000063
10231987175000168916200163100    00003662                     000036620000000000000109                     I023662      22121700000000350003410000017N171117104700000000000102212170000000000000000000000000000000000000000100000681004770ESPEDITA NUNES DA SILVA                 AVENIDA CASTELO BRANCO, LOTE 3 QUADRA 83PAQ.ELDORADO25243570DUQUE DE CAXIASRJUNIAO UMB DOS CULTOS AFRO BRAS    22121710 000064
10231987175000168916200163100    00003656                     000036560000000000000109                     I023656      22121700000000350003410000017N171117104700000000000102212170000000000000000000000000000000000000000100001117379744VERA LUCIA SOUZA COUTO                  RUA RUDY ALBERTO, 868 - IMPERADOR       MAUA - MAGE 25900000MAGE           RJUNIAO UMB DOS CULTOS AFRO BRAS    22121710 000065
10231987175000168916200163100    00003655                     000036550000000000000109                     I023655      22121700000000350003410000017N171117104700000000000102212170000000000000000000000000000000000000000200000000008299EMANUELA DE OLIVEIRA CRUZ ROSA          O MESMO                                 O MESMO     25260230DUQUE DE CAXIASRJUNIAO UMB DOS CULTOS AFRO BRAS    22121710 000066
10231987175000168916200163100    00003654                     000036540000000000000109                     I023654      22121700000000350003410000017N171117104700000000000102212170000000000000000000000000000000000000000100004753333736ELAINE DOS SANTOS FONTES ARAUJ          O MESMO                                 O MESMO     21775090RIO DE JANEIRO RJUNIAO UMB DOS CULTOS AFRO BRAS    22121710 000067
10231987175000168916200163100    00003653                     000036530000000000000109                     I023653      22121700000000350003410000017N171117104700000000000102212170000000000000000000000000000000000000000100007342538779DAVID GARDINA FERREIRA LUCIO            O MESMO                                 O MESMO     25550531SAO JOAO DE MERRJUNIAO UMB DOS CULTOS AFRO BRAS    22121710 000068
10231987175000168916200163100    00003651                     000036510000000000000109                     I023651      22121700000000350003410000017N171117104700000000000102212170000000000000000000000000000000000000000100068506589720MARILDA TEREZA DA SILVA                 O MESMO                                 O MESMO     26327240QUEIMADOS      RJUNIAO UMB DOS CULTOS AFRO BRAS    22121710 000069
10231987175000168916200163100    00003649                     000036490000000000000109                     I023649      22121700000000350003410000017N171117104700000000000102212170000000000000000000000000000000000000000100064949559753CREUZA LEAL COIMBRA                     O MESMO                                 O MESMO     25570393SAO JOAO DE MERRJUNIAO UMB DOS CULTOS AFRO BRAS    22121710 000070
10231987175000168916200163100    00003648                     000036480000000000000109                     I023648      22121700000000350003410000017N171117104700000000000102212170000000000000000000000000000000000000000100007972604711ADRIANA TAVARES DA CONCEICAO            O MESMO                                 O MESMO     22723155RIO DE JANEIRO RJUNIAO UMB DOS CULTOS AFRO BRAS    22121710 000071
10231987175000168916200163100    00003647                     000036470000000000000109                     I023647      22121700000000350003410000017N171117104700000000000102212170000000000000000000000000000000000000000100000000008176MARIA DA CONCEICAO DOS SANTOS           O MESMO                                 O MESMO     22713001RIO DE JANEIRO RJUNIAO UMB DOS CULTOS AFRO BRAS    22121710 000072
10231987175000168916200163100    00003646                     000036460000000000000109                     I023646      22121700000000350003410000017N171117104700000000000102212170000000000000000000000000000000000000000100036386812700VICENCO GEARDINA NETO                   O MESMO                                 O MESMO     26061070NOVA IGUACU    RJUNIAO UMB DOS CULTOS AFRO BRAS    22121710 000073
10231987175000168916200163100    00003645                     000036450000000000000109                     I023645      22121700000000350003410000017N171117104700000000000102212170000000000000000000000000000000000000000100003027226703MARCIO ALVES DOS SANTOS                 RUA ESTUDANTE ELIANE CASTANHEIRA N 874  CENTRO - SAO25510242SAO JOAO DE MERRJUNIAO UMB DOS CULTOS AFRO BRAS    22121710 000074
10231987175000168916200163100    00003644                     000036440000000000000109                     I023644      22121700000000350003410000017N171117104700000000000102212170000000000000000000000000000000000000000100081947712772MARIA COELHO DE LIMA                    O MESMO                                 O MESMO     25040070DUQUE DE CAXIASRJUNIAO UMB DOS CULTOS AFRO BRAS    22121710 000075
10231987175000168916200163100    00003643                     000036430000000000000109                     I023643      22121700000000350003410000017N171117104700000000000102212170000000000000000000000000000000000000000100054131120763VERA MARIA GADELHA                      O MESMO                                 O MESMO     21361530RIO DE JANEIRO RJUNIAO UMB DOS CULTOS AFRO BRAS    22121710 000076
10231987175000168916200163100    00003640                     000036400000000000000109                     I023640      22121700000000350003410000017N171117104700000000000102212170000000000000000000000000000000000000000100001393165745MARCO AURELIO DE BARROS FARIAS          RUA AIROSA GALVAO, 44                   FONSECA - NI24120100NITEROI        RJUNIAO UMB DOS CULTOS AFRO BRAS    22121710 000077
10231987175000168916200163100    00003638                     000036380000000000000109                     I023638      22121700000000350003410000017N171117104700000000000102212170000000000000000000000000000000000000000100007793822773ANA MARIA ALVES DO NASCIMENTO           RUA ERVALIA, LOTE 31 QUADRA 32          BOM RETIRO -25223710DUQUE DE CAXIASRJUNIAO UMB DOS CULTOS AFRO BRAS    22121710 000078
10231987175000168916200163100    00003586                     000035860000000000000109                     I023586      22121700000000350003410000017N171117104700000000000102212170000000000000000000000000000000000000000100093746920744CAROLINA DE SOUZA FURTADO               RUA IGARATA, 706 CASA 1                 MARECHAL HER21555250RIO DE JANEIRO RJUNIAO UMB DOS CULTOS AFRO BRAS    22121710 000079
10231987175000168916200163100    00003582                     000035820000000000000109                     I023582      22121700000000350003410000017N171117104700000000000102212170000000000000000000000000000000000000000100041216989753CARMEM VIANA DE JESUS                   RUA DAS TULIPAS, LOTE 4 A QUADRA 5      CIDADE DOS M25235040DUQUE DE CAXIASRJUNIAO UMB DOS CULTOS AFRO BRAS    22121710 000080
10231987175000168916200163100    00003411                     000034110000000000000109                     I023411      22121700000000350003410000017N171117104700000000000102212170000000000000000000000000000000000000000100000000002139ARICEIA RODRIGUES GOMES                 RUA NOROESTE, 137                       COMENDADOR S26276060NOVA IGUACU    RJUNIAO UMB DOS CULTOS AFRO BRAS    22121710 000081
10231987175000168916200163100    00003405                     000034050000000000000109                     I023405      22121700000000350003410000017N171117104700000000000102212170000000000000000000000000000000000000000100072596317753CLAUDIA IVONE CAETANO DA SILVA          RUA NADIA MARIA DA SILVEIRA MENEZES LOTEVENDA VELHA 25580110SAO JOAO DE MERRJUNIAO UMB DOS CULTOS AFRO BRAS    22121710 000082
10231987175000168916200163100    00003403                     000034030000000000000109                     I023403      22121700000000350003410000017N171117104700000000000102212170000000000000000000000000000000000000000100089041950710ANA LUCIA GUIMARAES MOURA ALVE          RUA CARLOS ILIDRO N 189                 BANCARIOS - 21910160ILHA DO GOVERNARJUNIAO UMB DOS CULTOS AFRO BRAS    22121710 000083
10231987175000168916200163100    00003402                     000034020000000000000109                     I023402      22121700000000350003410000017N171117104700000000000102212170000000000000000000000000000000000000000100015827814784THAYNAN ERNANDES DA SILVA PINH          RUA EXPEDICIONARIO AMERICO FERNANDES N 2RIO DO OURO 24752300SAO GONCALO    RJUNIAO UMB DOS CULTOS AFRO BRAS    22121710 000084
10231987175000168916200163100    00003401                     000034010000000000000109                     I023401      22121700000000350003410000017N171117104700000000000102212170000000000000000000000000000000000000000200000000007695MARCO ANTONIO DA COSTA                  RUA LOIR NOGUEIRA LOTE 10 QUADRA 11     RIO DO OURO 24752840SAO GONCALO    RJUNIAO UMB DOS CULTOS AFRO BRAS    22121710 000085
10231987175000168916200163100    00003399                     000033990000000000000109                     I023399      22121700000000350003410000017N171117104700000000000102212170000000000000000000000000000000000000000100078980119704SERGIO LUIZ DE BRITO                    TRAVESSA BRANDAO N 145 - ENGENHOCA      BARRETO - NI24110636NITEROI        RJUNIAO UMB DOS CULTOS AFRO BRAS    22121710 000086
10231987175000168916200163100    00003397                     000033970000000000000109                     I023397      22121700000000350003410000017N171117104700000000000102212170000000000000000000000000000000000000000100054222141704WALMIR CARVALHO GUIMARAES               RUA BOA VIAGEM, 186 CASA                IPIRANGA - N26293591NOVA IGUACU    RJUNIAO UMB DOS CULTOS AFRO BRAS    22121710 000087
10231987175000168916200163100    00003394                     000033940000000000000109                     I023394      22121700000000350003410000017N171117104700000000000102212170000000000000000000000000000000000000000100003537257732MARIA APARECIDA RISTICH MACHAD          RUA DIAS DA CRUZ N 923                  MEIER - RIO 20720011RIO DE JANEIRO RJUNIAO UMB DOS CULTOS AFRO BRAS    22121710 000088
10231987175000168916200163100    00003391                     000033910000000000000109                     I023391      22121700000000350003410000017N171117104700000000000102212170000000000000000000000000000000000000000100002309597767ELISETE DE SOUZA GOMES                  RUA CLEIDE TAVORA N 87 CASA 1           MONTE CASTEL26041145NOVA IGUACU    RJUNIAO UMB DOS CULTOS AFRO BRAS    22121710 000089
10231987175000168916200163100    00003389                     000033890000000000000109                     I023389      22121700000000350003410000017N171117104700000000000102212170000000000000000000000000000000000000000200000000007506APARECIDA SILVA RIBEIRO                 RUA PEDRO TELLES N 566 CASA 4           CENTRO - SAO25515003SAO JOAO DE MERRJUNIAO UMB DOS CULTOS AFRO BRAS    22121710 000090
10231987175000168916200163100    00003388                     000033880000000000000109                     I023388      22121700000000350003410000017N171117104700000000000102212170000000000000000000000000000000000000000100005217943742FABIO MOSCOSO DE LIMA RIBEIRO           RUA CAIENA N 56                         BENTO RIBEIR21555140RIO DE JANEIRO RJUNIAO UMB DOS CULTOS AFRO BRAS    22121710 000091
10231987175000168916200163100    00003386                     000033860000000000000109                     I023386      22121700000000350003410000017N171117104700000000000102212170000000000000000000000000000000000000000200000000007042CARLINDA ELIANE NUNES                   O MESMO                                 O MESMO     25015540DUQUE DE CAXIASRJUNIAO UMB DOS CULTOS AFRO BRAS    22121710 000092
10231987175000168916200163100    00003385                     000033850000000000000109                     I023385      22121700000000350003410000017N171117104700000000000102212170000000000000000000000000000000000000000100003351761783CLAUDIA LUZIA PEREIRA                   O MESMO                                 O MESMO     26187495BELFORD ROXO   RJUNIAO UMB DOS CULTOS AFRO BRAS    22121710 000093
10231987175000168916200163100    00003383                     000033830000000000000109                     I023383      22121700000000350003410000017N171117104700000000000102212170000000000000000000000000000000000000000100055177182720VALNEI FERNANDES DA SILVA               RUA DOUTOR JOSE MANOEL N 262            SANTA CATARI24420070SAO GONCALO    RJUNIAO UMB DOS CULTOS AFRO BRAS    22121710 000094
10231987175000168916200163100    00003377                     000033770000000000000109                     I023377      22121700000000350003410000017N171117104700000000000102212170000000000000000000000000000000000000000100000000007375RITA MARIA DA SILVA                     RUA HAROLDO DE FREITAS N 2              NOVA CIDADE 23064100CAMPO GRANDE   RJUNIAO UMB DOS CULTOS AFRO BRAS    22121710 000095
10231987175000168916200163100    00003376                     000033760000000000000109                     I023376      22121700000000350003410000017N171117104700000000000102212170000000000000000000000000000000000000000200000000001715MARIA DA PENHA ANASTACIA DE OL          RUA MARATUBA, 6 FUNDOS                  RICARDO DE A21620430RIO DE JANEIRO RJUNIAO UMB DOS CULTOS AFRO BRAS    22121710 000096
10231987175000168916200163100    00003375                     000033750000000000000109                     I023375      22121700000000350003410000017N171117104700000000000102212170000000000000000000000000000000000000000100069085986753CARMEM PIRES DE SOUZA                   RUA PRAIA DE BOTAFOGO N 460 APT 1138    BOTAFOGO - R22250040RIO DE JANEIRO RJUNIAO UMB DOS CULTOS AFRO BRAS    22121710 000097
10231987175000168916200163100    00003373                     000033730000000000000109                     I023373      22121700000000350003410000017N171117104700000000000102212170000000000000000000000000000000000000000100047613165787ANA SUELI DA GAMA GLORIA                RUA DAMAS BATISTA N 902                 JARDIM TROPI26011010NOVA IGUACU    RJUNIAO UMB DOS CULTOS AFRO BRAS    22121710 000098
10231987175000168916200163100    00003149                     000031490000000000000109                     I023149      31121700000000035003410000017N131117104700000000000103112170000000000000000000000000000000000000000100014527767763THIERRY PADILHA MOTA                    RUA ALCIR BRASIL N 706                  JARDIM NOVA 26266010NOVA IGUACU    RJUNIAO UMB DOS CULTOS AFRO BRAS    31121710 000099
10231987175000168916200163100    00002393                     000023930000000000000109                     I022393      31121700000000035003410000017N131117104700000000000103112170000000000000000000000000000000000000000100088364607715ELISABETE DA CONCEICAO LIMA             RUA ABILIO MACHADO, 163                 VILA TIRADEN25525160SAO JOAO DE MERRJUNIAO UMB DOS CULTOS AFRO BRAS    31121710 000100
10231987175000168916200163100    00002117                     000021170000000000000109                     I022117      31121700000000035003410000017N131117104700000000000103112170000000000000000000000000000000000000000100001057873705ADEMIR ANDRADE CUNHA                    RUA PACHECO DA ROCHA N 636              BENTO RIBEIR21555092RIO DE JANEIRO RJUNIAO UMB DOS CULTOS AFRO BRAS    31121710 000101
10231987175000168916200163100    00002093                     000020930000000000000109                     I022093      31121700000000035003410000017N131117104700000000000103112170000000000000000000000000000000000000000100041216989753CARMEM VIANA DE JESUS                   RUA DAS TULIPAS, LOTE 4 A QUADRA 5      CIDADE DOS M25235040DUQUE DE CAXIASRJUNIAO UMB DOS CULTOS AFRO BRAS    31121710 000102
9                                                                                                                                                                                                                                                                                                                                                                                                         000103
