01REMESSA01COBRANCA       817800093673        União Umb dos Cultos Afro Bra341BANCO ITAU SA  200618                                                                                                                                                                                                                                                                                                      000001
10231987175000168817800093673    00009416                     000094160000000000000109                     I029416      30031800000000035003410000017N200218104700000000000103003180000000000000000000000000000000000000000200000000002580EDMILSON DOS SANTOS WINNE DE N          RUA DONA JULIA N 40 FUNDOS              SEPETIBA - R23545570RIO DE JANEIRO RJUNIAO UMB DOS CULTOS AFRO BRAS    30031810 000002
10231987175000168817800093673    00009414                     000094140000000000000109                     I029414      30031800000000035003410000017N200218104700000000000103003180000000000000000000000000000000000000000100005744506705SANDRA REGINA DE OLIVEIRA               RUA MARCIA COSTA N 924                  JARDIM NOVA 26271160NOVA IGUACU    RJUNIAO UMB DOS CULTOS AFRO BRAS    30031810 000003
10231987175000168817800093673    00009413                     000094130000000000000109                     I029413      30031800000000035003410000017N200218104700000000000103003180000000000000000000000000000000000000000200000000002504ANA LUCIA FRANCISCO BORGES              RUA DO ACAFRAO, 157 APTO 101            PADRE MIGUEL21870330RIO DE JANEIRO RJUNIAO UMB DOS CULTOS AFRO BRAS    30031810 000004
10231987175000168817800093673    00009412                     000094120000000000000109                     I029412      30031800000000035003410000017N200218104700000000000103003180000000000000000000000000000000000000000200000000001892INDELECIO DOS SANTOS                    RUA CAPITAO ABDALA CHAMA, 341 CASA 23   BENFICA - RI20911250RIO DE JANEIRO RJUNIAO UMB DOS CULTOS AFRO BRAS    30031810 000005
10231987175000168817800093673    00009411                     000094110000000000000109                     I029411      30031800000000035003410000017N200218104700000000000103003180000000000000000000000000000000000000000100007768611748SOLANGE MENDES DA SILVA                 RUA AFONSO CELSO DONELA                 REALENGO    21745630RIO DE JANEIRO RJUNIAO UMB DOS CULTOS AFRO BRAS    30031810 000006
10231987175000168817800093673    00009409                     000094090000000000000109                     I029409      30031800000000035003410000017N200218104700000000000103003180000000000000000000000000000000000000000200000000002460EVA ANA ROSA DOS SANTOS                 O MESMO                                 O MESMO     23066080RIO DE JANEIRO RJUNIAO UMB DOS CULTOS AFRO BRAS    30031810 000007
10231987175000168817800093673    00009408                     000094080000000000000109                     I029408      30031800000000035003410000017N200218104700000000000103003180000000000000000000000000000000000000000100059272570700VERA LUCIA LIMA SILVA                   O MESMO                                 O MESMO     22723510RIO DE JANEIRO RJUNIAO UMB DOS CULTOS AFRO BRAS    30031810 000008
10231987175000168817800093673    00009407                     000094070000000000000109                     I029407      30031800000000035003410000017N200218104700000000000103003180000000000000000000000000000000000000000100072090499753JOSEFINA PAULINA RODRIGUES              RUA JOAQUIM SOARES NETO, 416            NOVA AMERICA26021560NOVA IGUACU    RJUNIAO UMB DOS CULTOS AFRO BRAS    30031810 000009
10231987175000168817800093673    00009405                     000094050000000000000109                     I029405      30031800000000035003410000017N200218104700000000000103003180000000000000000000000000000000000000000100005256804707SUSI ROSANA DE OLIVEIRA - JANA          O MESMO                                 O MESMO     21765000RIO DE JANEIRO RJUNIAO UMB DOS CULTOS AFRO BRAS    30031810 000010
10231987175000168817800093673    00009403                     000094030000000000000109                     I029403      30031800000000035003410000017N200218104700000000000103003180000000000000000000000000000000000000000200000000002388JOSE ANTONIO ZANELLI                    RUA LIBANIO PORTO N 26 - SACRAMENTO     SITIO - MONJ24735360NITEROI        RJUNIAO UMB DOS CULTOS AFRO BRAS    30031810 000011
10231987175000168817800093673    00009402                     000094020000000000000109                     I029402      30031800000000035003410000017N200218104700000000000103003180000000000000000000000000000000000000000100028131576787EVA MOREIRA FERREIRA                    O MESMO                                 O MESMO     25035800DUQUE DE CAXIASRJUNIAO UMB DOS CULTOS AFRO BRAS    30031810 000012
10231987175000168817800093673    00009400                     000094000000000000000109                     I029400      30031800000000035003410000017N200218104700000000000103003180000000000000000000000000000000000000000200000000002322SEBASTIANA MARIANO DIAS                 O MESMO                                 O MESMO     23811560ITAGUAI        RJUNIAO UMB DOS CULTOS AFRO BRAS    30031810 000013
10231987175000168817800093673    00009399                     000093990000000000000109                     I029399      30031800000000035003410000017N200218104700000000000103003180000000000000000000000000000000000000000100001345348754ADRIANA DE LELIS                        RUA DOIS QUADRA D LOTE 13               BAIRRO SILVE23092080RIO DE JANEIRO RJUNIAO UMB DOS CULTOS AFRO BRAS    30031810 000014
10231987175000168817800093673    00009397                     000093970000000000000109                     I029397      30031800000000035003410000017N200218104700000000000103003180000000000000000000000000000000000000000200000000002291DALILA DE SOUZA PINHEIRO                RUA JOAO BRIGIDO, 121                   MAGALHAES BA21745480RIO DE JANEIRO RJUNIAO UMB DOS CULTOS AFRO BRAS    30031810 000015
10231987175000168817800093673    00009396                     000093960000000000000109                     I029396      30031800000000035003410000017N200218104700000000000103003180000000000000000000000000000000000000000100007070605757DANIEL MARCONDI DE SOUZA                RUA: TUPI Nº 20                        VILA PAULINE26185235BELFORD ROXO   RJUNIAO UMB DOS CULTOS AFRO BRAS    30031810 000016
10231987175000168817800093673    00009395                     000093950000000000000109                     I029395      30031800000000035003410000017N200218104700000000000103003180000000000000000000000000000000000000000100004287865707MARIA LUISA DE OLIVEIRA LIREO           RUA PORTO CARRERO N 333                 CORDOVIL - R21250260RIO DE JANEIRO RJUNIAO UMB DOS CULTOS AFRO BRAS    30031810 000017
10231987175000168817800093673    00009394                     000093940000000000000109                     I029394      30031800000000035003410000017N200218104700000000000103003180000000000000000000000000000000000000000100062435710763ELI LIMA DOS SANTOS                     RUA DO VERDE CASA 3                     CURICICA - R22712001RIO DE JANEIRO RJUNIAO UMB DOS CULTOS AFRO BRAS    30031810 000018
10231987175000168817800093673    00009392                     000093920000000000000109                     I029392      30031800000000035003410000017N200218104700000000000103003180000000000000000000000000000000000000000200000000007830SEBASTIANA SUELI BARBOSA NASCI          RUA MARINA DE ALMEIDA N 140             JUREMA GUARA23035383CAMPO GRANDE   RJUNIAO UMB DOS CULTOS AFRO BRAS    30031810 000019
10231987175000168817800093673    00009391                     000093910000000000000109                     I029391      30031800000000035003410000017N200218104700000000000103003180000000000000000000000000000000000000000200000000007813ANDIRA DE SOUZA                         RUA PERSEVERANCA N 5                    VILA GRATIDA26087415NOVA IGUACU    RJUNIAO UMB DOS CULTOS AFRO BRAS    30031810 000020
10231987175000168817800093673    00009390                     000093900000000000000109                     I029390      30031800000000035003410000017N200218104700000000000103003180000000000000000000000000000000000000000100003032033748MARIA MOREIRA TEIXEIRA                  TRAVESSA RIACHAO 130                    AUSTIN - NOV26335090BELFORD ROXO   RJUNIAO UMB DOS CULTOS AFRO BRAS    30031810 000021
10231987175000168817800093673    00009389                     000093890000000000000109                     I029389      30031800000000035003410000017N200218104700000000000103003180000000000000000000000000000000000000000200000000001688MAGNO AGUIAR DA SILVA                   RUA DOM PEDRO I, 1 FUNDOS               PRAIA GRANDE28930000ARRAIAL DO CABORJUNIAO UMB DOS CULTOS AFRO BRAS    30031810 000022
10231987175000168817800093673    00009387                     000093870000000000000109                     I029387      30031800000000035003410000017N200218104700000000000103003180000000000000000000000000000000000000000100006932718766CARLOS EDUARDO DE OLIVEIRA              TRAVESSA CARLOS SAMPAIO QUADRA 2 LOTE 23AUSTIN - NOV26087287NOVA IGUACU    RJUNIAO UMB DOS CULTOS AFRO BRAS    30031810 000023
10231987175000168817800093673    00009384                     000093840000000000000109                     I029384      30031800000000035003410000017N200218104700000000000103003180000000000000000000000000000000000000000200000000007561LUCIA PEREIRA                           RUA: ZEFERINO DA COSTA N° 83           CAVALCANTI  21370230RIO DE JANEIRO RJUNIAO UMB DOS CULTOS AFRO BRAS    30031810 000024
10231987175000168817800093673    00009382                     000093820000000000000109                     I029382      30031800000000035003410000017N200218104700000000000103003180000000000000000000000000000000000000000200000000001656ZUILA DE MELO E SILVA COVA              RUA TAMOIOS, 71 APTO 201                SAO FRANCISC24360380NITEROI        RJUNIAO UMB DOS CULTOS AFRO BRAS    30031810 000025
10231987175000168817800093673    00009381                     000093810000000000000109                     I029381      30031800000000035003410000017N200218104700000000000103003180000000000000000000000000000000000000000100003778949748MARLENE PEREIRA DA SILVA MELO           RUA BARAO DE AMAZONAS S/Nº             MARIA CONGA 25900000MAGE           RJUNIAO UMB DOS CULTOS AFRO BRAS    30031810 000026
10231987175000168817800093673    00009380                     000093800000000000000109                     I029380      30031800000000035003410000017N200218104700000000000103003180000000000000000000000000000000000000000100073772372791ROBERTO SOARES DE PAIVA                 RUA ROBERTO CABRAL, 247                 JUREMA - GUA23035384GUARATIBA      RJUNIAO UMB DOS CULTOS AFRO BRAS    30031810 000027
10231987175000168817800093673    00009379                     000093790000000000000109                     I029379      30031800000000035003410000017N200218104700000000000103003180000000000000000000000000000000000000000100005538511790VALNEI BARBOSA DA SILVA                 RUA: DOS RUBIS Nº 19 - INHOAIBA        CAMPO GRANDE23064670RIO DE JANEIRO RJUNIAO UMB DOS CULTOS AFRO BRAS    30031810 000028
10231987175000168817800093673    00009378                     000093780000000000000109                     I029378      30031800000000035003410000017N200218104700000000000103003180000000000000000000000000000000000000000100028842723720HELENITA ANTONIA DE JESUS               RUA: ROBERTO CONSTANTINESCO 334         GUADALUPE   21675450RIO DE JANEIRO RJUNIAO UMB DOS CULTOS AFRO BRAS    30031810 000029
10231987175000168817800093673    00009376                     000093760000000000000109                     I029376      30031800000000035003410000017N200218104700000000000103003180000000000000000000000000000000000000000100013222460760VITOR NERY DO AMARAL                    RUA MARIA PARIS, 342                    PAIOL - NILO26545600NILOPOLIS      RJUNIAO UMB DOS CULTOS AFRO BRAS    30031810 000030
10231987175000168817800093673    00009372                     000093720000000000000109                     I029372      30031800000000035003410000017N200218104700000000000103003180000000000000000000000000000000000000000100007929176770SANSIA MARIA SOBRINHO                   RUA TURMALINA QUADRA 149 LOTE 6         NOVO JARDIM 24175670SAO GONCALO    RJUNIAO UMB DOS CULTOS AFRO BRAS    30031810 000031
10231987175000168817800093673    00009371                     000093710000000000000109                     I029371      30031800000000035003410000017N200218104700000000000103003180000000000000000000000000000000000000000100001834521785MARCELO TEIXEIRA ORSI                   RUA A, 15 QUADRA 93 CASA 2              PARADA MORAB25000000DUQUE DE CAXIASRJUNIAO UMB DOS CULTOS AFRO BRAS    30031810 000032
10231987175000168817800093673    00009370                     000093700000000000000109                     I029370      30031800000000035003410000017N200218104700000000000103003180000000000000000000000000000000000000000200000000002273MARIA DAS GRACAS MORAIS SOARES          AVENIDA LEANDRO DA MOTA, 865            VILA SAO SEB25065175DUQUE DE CAXIASRJUNIAO UMB DOS CULTOS AFRO BRAS    30031810 000033
10231987175000168817800093673    00009369                     000093690000000000000109                     I029369      30031800000000035003410000017N200218104700000000000103003180000000000000000000000000000000000000000200000000007238DERLI DE CARVALHO SILVA                 RUA TEOTONIO SANTOS N 111               MARAMBAIA - 36880000MURIAE         MGUNIAO UMB DOS CULTOS AFRO BRAS    30031810 000034
10231987175000168817800093673    00009368                     000093680000000000000109                     I029368      30031800000000035003410000017N200218104700000000000103003180000000000000000000000000000000000000000100083650636780MARIZA MIRANDA                          RUA ALEXANDRINO N 120                   POSSE - NOVA26020247NOVA IGUACU    RJUNIAO UMB DOS CULTOS AFRO BRAS    30031810 000035
10231987175000168817800093673    00009367                     000093670000000000000109                     I029367      30031800000000035003410000017N200218104700000000000103003180000000000000000000000000000000000000000100064817008768MARINEIDE JOSE DOS SANTOS DA S          RUA: F Nº CASA 29 - ALTO DA POSSE      O MESMO     26020700QUEIMADOS      RJUNIAO UMB DOS CULTOS AFRO BRAS    30031810 000036
10231987175000168817800093673    00009365                     000093650000000000000109                     I029365      30031800000000035003410000017N200218104700000000000103003180000000000000000000000000000000000000000100082351376749ALDA LUCIA DA SILVA                     RUA ANTONIO MARINS DE OLIVEIRA, 479     SAO MATEUS -25530000SAO JOAO DE MERRJUNIAO UMB DOS CULTOS AFRO BRAS    30031810 000037
10231987175000168817800093673    00009363                     000093630000000000000109                     I029363      30031800000000035003410000017N200218104700000000000103003180000000000000000000000000000000000000000200000000006947MARLENE PAULA ALVES                     RUA VERA LT 9 QD D - VILA GUIMARAES     AUSTIN - RIO26088150RIO DE JANEIRO RJUNIAO UMB DOS CULTOS AFRO BRAS    30031810 000038
10231987175000168817800093673    00009362                     000093620000000000000109                     I029362      30031800000000035003410000017N200218104700000000000103003180000000000000000000000000000000000000000200000000001055ELZA DE AZEVEDO ALVES                   RUA BADUINIO DE AGUIAR N 220            PARADA DE LU21210760RIO DE JANEIRO RJUNIAO UMB DOS CULTOS AFRO BRAS    30031810 000039
10231987175000168817800093673    00009361                     000093610000000000000109                     I029361      30031800000000035003410000017N200218104700000000000103003180000000000000000000000000000000000000000100038268264772SANDRA NUNES DE ARAUJO                  O MESMO                                 O MESMO     25041060DUQUE DE CAXIASRJUNIAO UMB DOS CULTOS AFRO BRAS    30031810 000040
10231987175000168817800093673    00009360                     000093600000000000000109                     I029360      30031800000000035003410000017N200218104700000000000103003180000000000000000000000000000000000000000100007832334770MARCELO COSTA DE OLIVEIRA               O MESMO                                 O MESMO     22750310RIO DE JANEIRO RJUNIAO UMB DOS CULTOS AFRO BRAS    30031810 000041
10231987175000168817800093673    00009359                     000093590000000000000109                     I029359      30031800000000035003410000017N200218104700000000000103003180000000000000000000000000000000000000000100003002602117MARCELO DE OLIVEIRA PINHO               O MESMO                                 O MESMO     26066640NOVA IGUACU    RJUNIAO UMB DOS CULTOS AFRO BRAS    30031810 000042
10231987175000168817800093673    00009356                     000093560000000000000109                     I029356      30031800000000035003410000017N200218104700000000000103003180000000000000000000000000000000000000000100003029004708ANDREA GUIMARAES MARTINS                RUA ANA CRISTINA 31 - VILA GUIMARAES    VILA GUIMARA26088175NOVA IGUACU    RJUNIAO UMB DOS CULTOS AFRO BRAS    30031810 000043
10231987175000168817800093673    00009355                     000093550000000000000109                     I029355      30031800000000035003410000017N200218104700000000000103003180000000000000000000000000000000000000000100004279924783EDUARDO CARVALHO DE SANTANNA            RUA CINCO N 778                         NOVA CAMPINA25268050DUQUE DE CAXIASRJUNIAO UMB DOS CULTOS AFRO BRAS    30031810 000044
10231987175000168817800093673    00009354                     000093540000000000000109                     I029354      30031800000000035003410000017N200218104700000000000103003180000000000000000000000000000000000000000100049135570768CLEBER SILVA DE FREITAS                 RUA COBE N 1275                         RIO DA PRATA21820200BANGU          RJUNIAO UMB DOS CULTOS AFRO BRAS    30031810 000045
10231987175000168817800093673    00009352                     000093520000000000000109                     I029352      30031800000000035003410000017N200218104700000000000103003180000000000000000000000000000000000000000100007926184756LUCIANO FERREIRA DE SOUZA               ESTRADA DO PORTO VELHO N 311 CASA 4 A   CORDOVIL - R21012140RIO DE JANEIRO RJUNIAO UMB DOS CULTOS AFRO BRAS    30031810 000046
10231987175000168817800093673    00009350                     000093500000000000000109                     I029350      30031800000000035003410000017N200218104700000000000103003180000000000000000000000000000000000000000200000000008111SIDNEY MALVAR TEIXEIRA                  O MESMO                                 O MESMO     26012840NOVA IGUACU    RJUNIAO UMB DOS CULTOS AFRO BRAS    30031810 000047
10231987175000168817800093673    00009349                     000093490000000000000109                     I029349      30031800000000035003410000017N200218104700000000000103003180000000000000000000000000000000000000000200000000008078ELIZA DA SILVA                          RUA AMILTON NASCIMENTO N 214            CAROLINA - N26012760NOVA IGUACU    RJUNIAO UMB DOS CULTOS AFRO BRAS    30031810 000048
10231987175000168817800093673    00009348                     000093480000000000000109                     I029348      30031800000000035003410000017N200218104700000000000103003180000000000000000000000000000000000000000100041008154768ELISEU CAMARGO ARTHOU                   ESTRADA DO ENGENHO NOVO N 505 FUNDOS    ANCHIETA    21620241RIO DE JANEIRO RJUNIAO UMB DOS CULTOS AFRO BRAS    30031810 000049
10231987175000168817800093673    00009347                     000093470000000000000109                     I029347      30031800000000035003410000017N200218104700000000000103003180000000000000000000000000000000000000000100086634402787ZILDA GIMENIZ NOGUEIRA                  RUA: ESPIRITO SANTO Nº 25 - PRAIA LINDASAO PEDRO DA28940000SAO PEDRO DA ALRJUNIAO UMB DOS CULTOS AFRO BRAS    30031810 000050
10231987175000168817800093673    00009345                     000093450000000000000109                     I029345      30031800000000035003410000017N200218104700000000000103003180000000000000000000000000000000000000000200000000007677JOSELINA SILVA                          RUA JOSE MELO PIRES LOTE 17 QUADRA 9    COELHO - ARS24745150SAO GONCALO    RJUNIAO UMB DOS CULTOS AFRO BRAS    30031810 000051
10231987175000168817800093673    00009344                     000093440000000000000109                     I029344      30031800000000035003410000017N200218104700000000000103003180000000000000000000000000000000000000000200000000007600LUCIMAR FIGUEIREDO NASCIMENTO           RUA TAMANDUATEI N 215                   CRUZEIRO DO 26012775NOVA IGUACU    RJUNIAO UMB DOS CULTOS AFRO BRAS    30031810 000052
10231987175000168817800093673    00009341                     000093410000000000000109                     I029341      30031800000000035003410000017N200218104700000000000103003180000000000000000000000000000000000000000100054770122772EDUARDO DOS SANTOS REIS NETO            O MESMO                                 O MESMO     21360080RIO DE JANEIRO RJUNIAO UMB DOS CULTOS AFRO BRAS    30031810 000053
10231987175000168817800093673    00009340                     000093400000000000000109                     I029340      30031800000000035003410000017N200218104700000000000103003180000000000000000000000000000000000000000200000000002044NATERCIA MALVAR GARCIA LEITAO           RUA CIRO COSTA, 491                     ENGENHO PEQU24417226SAO GONCALO    RJUNIAO UMB DOS CULTOS AFRO BRAS    30031810 000054
10231987175000168817800093673    00009339                     000093390000000000000109                     I029339      30031800000000035003410000017N200218104700000000000103003180000000000000000000000000000000000000000200000000002036MARLENE INACIA NUNES DO NASCIM          RUA DOUTOR BERNARDINO TEIXEIRA, 753     EDEN - SAO J25545110SAO JOAO DE MERRJUNIAO UMB DOS CULTOS AFRO BRAS    30031810 000055
10231987175000168817800093673    00009337                     000093370000000000000109                     I029337      30031800000000035003410000017N200218104700000000000103003180000000000000000000000000000000000000000100079042708700ANTONIO CARLOS DE MIRANDA PACH          RUA DR ALFREDO BACKER N 536 BLOCO 9 APTOALCANTARA - 24452005RIO DE JANEIRO RJUNIAO UMB DOS CULTOS AFRO BRAS    30031810 000056
10231987175000168817800093673    00009335                     000093350000000000000109                     I029335      30031800000000035003410000017N200218104700000000000103003180000000000000000000000000000000000000000100088831051768ELISETE MOREIRA DE OLIVEIRA             RUA JOSE MACHADO, 55                    IRAJA       21361360RIO DE JANEIRO RJUNIAO UMB DOS CULTOS AFRO BRAS    30031810 000057
10231987175000168817800093673    00009334                     000093340000000000000109                     I029334      30031800000000035003410000017N200218104700000000000103003180000000000000000000000000000000000000000100024743216753VANDERLAN JOSE MARVAO                   AVENIDA SAMPAIO CORREIA, 502 - BR 101   SANTA LUZIA 24722500SAO GONCALO    RJUNIAO UMB DOS CULTOS AFRO BRAS    30031810 000058
10231987175000168817800093673    00009333                     000093330000000000000109                     I029333      30031800000000035003410000017N200218104700000000000103003180000000000000000000000000000000000000000100002036570712ANDREIA SANTANNA DO NASCIMENTO          O MESMO                                 O MESMO     25570190SAO JOAO DE MERRJUNIAO UMB DOS CULTOS AFRO BRAS    30031810 000059
10231987175000168817800093673    00009326                     000093260000000000000109                     I029326      30031800000000035003410000017N200218104700000000000103003180000000000000000000000000000000000000000100014708764774ADILSON CARNEIRO PINTO                  R JUREMA 49                             GUARATIBA   23035380RIO DE JANEIRO RJUNIAO UMB DOS CULTOS AFRO BRAS    30031810 000060
10231987175000168817800093673    00009320                     000093200000000000000109                     I029320      30031800000000035003410000017N200218104700000000000103003180000000000000000000000000000000000000000100089041950710ANA LUCIA GUIMARAES MOURA ALVE          RUA CARLOS ILIDRO N 189                 BANCARIOS - 21910160ILHA DO GOVERNARJUNIAO UMB DOS CULTOS AFRO BRAS    30031810 000061
10231987175000168817800093673    00009316                     000093160000000000000109                     I029316      30031800000000035003410000017N200218104700000000000103003180000000000000000000000000000000000000000200000000007679HUGO XAVIER                             AVENIDA PRESIDENTE VARGAS, 2007 APTO 130CENTRO - RJ 20210030RIO DE JANEIRO RJUNIAO UMB DOS CULTOS AFRO BRAS    30031810 000062
10231987175000168817800093673    00009315                     000093150000000000000109                     I029315      30031800000000035003410000017N200218104700000000000103003180000000000000000000000000000000000000000100078980119704SERGIO LUIZ DE BRITO                    TRAVESSA BRANDAO N 145 - ENGENHOCA      BARRETO - NI24110636NITEROI        RJUNIAO UMB DOS CULTOS AFRO BRAS    30031810 000063
10231987175000168817800093673    00009314                     000093140000000000000109                     I029314      30031800000000035003410000017N200218104700000000000103003180000000000000000000000000000000000000000100073518573772MERCIA DO NASCIMENTO CAVALCANT          RUA BERNARDO MONTEIRO, LT 62 QD 151     JARDIM OLAVO25025320DUQUE DE CAXIASRJUNIAO UMB DOS CULTOS AFRO BRAS    30031810 000064
10231987175000168817800093673    00009309                     000093090000000000000109                     I029309      30031800000000035003410000017N200218104700000000000103003180000000000000000000000000000000000000000100000330025767NUBIA VIRGINIA DE ANDRADE MAGA          O MESMO                                 O MESMO     23573100RIO DE JANEIRO RJUNIAO UMB DOS CULTOS AFRO BRAS    30031810 000065
10231987175000168817800093673    00009307                     000093070000000000000109                     I029307      30031800000000035003410000017N200218104700000000000103003180000000000000000000000000000000000000000200000000007506APARECIDA SILVA RIBEIRO                 RUA PEDRO TELLES N 566 CASA 4           CENTRO - SAO25515003SAO JOAO DE MERRJUNIAO UMB DOS CULTOS AFRO BRAS    30031810 000066
10231987175000168817800093673    00009306                     000093060000000000000109                     I029306      30031800000000035003410000017N200218104700000000000103003180000000000000000000000000000000000000000200000000002062ROBERTO LUIZ MEDEIROS                   RUA OLIMPIO, LOTE 35 QUADRA 29          HELIOPOLIS -26125215BELFORD ROXO   RJUNIAO UMB DOS CULTOS AFRO BRAS    30031810 000067
10231987175000168817800093673    00009305                     000093050000000000000109                     I029305      30031800000000035003410000017N200218104700000000000103003180000000000000000000000000000000000000000100003351761783CLAUDIA LUZIA PEREIRA                   O MESMO                                 O MESMO     26187495BELFORD ROXO   RJUNIAO UMB DOS CULTOS AFRO BRAS    30031810 000068
10231987175000168817800093673    00009304                     000093040000000000000109                     I029304      30031800000000035003410000017N200218104700000000000103003180000000000000000000000000000000000000000100092410480772JOSE LIMA DA SILVA                      RUA: JURANDIR LIMA Nº 40 - SANTA RITA /NOVA IGUACU 26051040NOVA IGUACU    RJUNIAO UMB DOS CULTOS AFRO BRAS    30031810 000069
10231987175000168817800093673    00009302                     000093020000000000000109                     I029302      30031800000000035003410000017N200218104700000000000103003180000000000000000000000000000000000000000100055177182720VALNEI FERNANDES DA SILVA               RUA DOUTOR JOSE MANOEL N 262            SANTA CATARI24420070SAO GONCALO    RJUNIAO UMB DOS CULTOS AFRO BRAS    30031810 000070
10231987175000168817800093673    00009301                     000093010000000000000109                     I029301      30031800000000035003410000017N200218104700000000000103003180000000000000000000000000000000000000000100007062360767IVONETE GOMES DOS SANTOS                AVENIDA PORTO DA MADAME, 555            GRADIM - SAO24431310SAO GONCALO    RJUNIAO UMB DOS CULTOS AFRO BRAS    30031810 000071
10231987175000168817800093673    00009300                     000093000000000000000109                     I029300      30031800000000035003410000017N200218104700000000000103003180000000000000000000000000000000000000000200000000007490CARLOS JOSE PEREIRA                     RUA MESSIAS DE SOUZA N 93               CENTRO - BEL26130280BELFORD ROXO   RJUNIAO UMB DOS CULTOS AFRO BRAS    30031810 000072
10231987175000168817800093673    00009299                     000092990000000000000109                     I029299      30031800000000035003410000017N200218104700000000000103003180000000000000000000000000000000000000000200000000001981IZABEL DE SOUZA MARTINS                 RUA NOVA YORK, 20                       JARDIM AMERI23810660ITAGUAI        RJUNIAO UMB DOS CULTOS AFRO BRAS    30031810 000073
10231987175000168817800093673    00009297                     000092970000000000000109                     I029297      30031800000000035003410000017N200218104700000000000103003180000000000000000000000000000000000000000200000000001813JOSE ROMERO LEITE MARTINS               RUA ALCOBACA, 1345 CASA 1               ANCHIETA - R21645001RIO DE JANEIRO RJUNIAO UMB DOS CULTOS AFRO BRAS    30031810 000074
10231987175000168817800093673    00009295                     000092950000000000000109                     I029295      30031800000000035003410000017N200218104700000000000103003180000000000000000000000000000000000000000100003449740733JOSE CARLOS MOREIRA BENTO               RUA DELFIM MOREIRA  LOTE 5 QUADRA 12 CASVILA SAPE  M25922220MAGE           RJUNIAO UMB DOS CULTOS AFRO BRAS    30031810 000075
10231987175000168817800093673    00009294                     000092940000000000000109                     I029294      30031800000000035003410000017N200218104700000000000103003180000000000000000000000000000000000000000200000000007417CECILIA DOS SANTOS                      RUA MARIO DE ALENCAR LOTE 52            LARANJAL - S24725170SAO GONCALO    RJUNIAO UMB DOS CULTOS AFRO BRAS    30031810 000076
10231987175000168817800093673    00009293                     000092930000000000000109                     I029293      30031800000000035003410000017N200218104700000000000103003180000000000000000000000000000000000000000100037497928791ANASTACIA CANDIDO RAIMUNDO              RUA ALAMEDA 33 - CHAO DE ESTRELAS N 84  PAVUNA - RIO21521100RIO DE JANEIRO RJUNIAO UMB DOS CULTOS AFRO BRAS    30031810 000077
10231987175000168817800093673    00009290                     000092900000000000000109                     I029290      30031800000000035003410000017N200218104700000000000103003180000000000000000000000000000000000000000100084964910725LIA MARIA DA SILVA                      RUA ANTONIO CARLOS LOTE 2 QUADRA G      COLUBANDE - 24744020SAO GONCALO    RJUNIAO UMB DOS CULTOS AFRO BRAS    30031810 000078
10231987175000168817800093673    00009287                     000092870000000000000109                     I029287      30031800000000040003410000017N200218104700000000000103003180000000000000000000000000000000000000000200000000002253JOSE AMERICO ELIAS DE MIRANDA           RUA JAIME MUNIZ, LOTE 1 QUADRA 12       ITAUNA - SAO24474070SAO GONCALO    RJUNIAO UMB DOS CULTOS AFRO BRAS    30031810 000079
10231987175000168817800093673    00009285                     000092850000000000000109                     I029285      30031800000000035003410000017N200218104700000000000103003180000000000000000000000000000000000000000100047613165787ANA SUELI DA GAMA GLORIA                RUA DAMAS BATISTA N 902                 JARDIM TROPI26011010NOVA IGUACU    RJUNIAO UMB DOS CULTOS AFRO BRAS    30031810 000080
10231987175000168817800093673    00009284                     000092840000000000000109                     I029284      30031800000000035003410000017N200218104700000000000103003180000000000000000000000000000000000000000100002734506700CARLOS HENRIQUE ARAUJO                  RUA MARQUES CANARIO N 725               NOSSA SENHOR26520770NILOPOLIS      RJUNIAO UMB DOS CULTOS AFRO BRAS    30031810 000081
10231987175000168817800093673    00009283                     000092830000000000000109                     I029283      30031800000000035003410000017N200218104700000000000103003180000000000000000000000000000000000000000100044188269715SEBASTIANA SOUZA SANTOS                 RUA ARI BARROSO N 193                   JARDIM LUCIA26050410NOVA IGUACU    RJUNIAO UMB DOS CULTOS AFRO BRAS    30031810 000082
10231987175000168817800093673    00009282                     000092820000000000000109                     I029282      30031800000000035003410000017N200218104700000000000103003180000000000000000000000000000000000000000200000000007152LECY PEREIRA CARDOSO                    ESTRADA DO CARRO QUEBRADO N 639 CASA 1  FIGUEIRAS - 26051740NOVA IGUACU    RJUNIAO UMB DOS CULTOS AFRO BRAS    30031810 000083
10231987175000168817800093673    00009280                     000092800000000000000109                     I029280      30031800000000035003410000017N200218104700000000000103003180000000000000000000000000000000000000000100082347301772MARISTELA TORQUATO SILVA BRITT          O MESMO                                 O MESMO     26535340NILOPOLIS      RJUNIAO UMB DOS CULTOS AFRO BRAS    30031810 000084
10231987175000168817800093673    00009279                     000092790000000000000109                     I029279      30031800000000035003410000017N200218104700000000000103003180000000000000000000000000000000000000000200000000002241MARIA CANDIDA BRANDAO ALVES             RUA MARLICE EMANUEL, 155                JARDIM ALVOR26265230NOVA IGUACU    RJUNIAO UMB DOS CULTOS AFRO BRAS    30031810 000085
10231987175000168817800093673    00009277                     000092770000000000000109                     I029277      30031800000000035003410000017N200218104700000000000103003180000000000000000000000000000000000000000200000000002221CRISTIANO LIMA DOS SANTOS               RUA SEBASTIAO GOUVEIA, QUADRA 9 LOTE 39 SAO FRANCISC26353010NOVA IGUACU    RJUNIAO UMB DOS CULTOS AFRO BRAS    30031810 000086
10231987175000168817800093673    00009276                     000092760000000000000109                     I349276      30031800000000035003410000017N200218104700000000000103003180000000000000000000000000000000000000000100001272334740VALERIA MARIA MOREIRA                   RUA: EUDINO EGGER Nº 70 - JARDIM CATARISAO GONCALO 32472290SAO GONCALO    RJUNIAO UMB DOS CULTOS AFRO BRAS    30031810 000087
10231987175000168817800093673    00009275                     000092750000000000000109                     I029275      30031800000000035003410000017N200218104700000000000103003180000000000000000000000000000000000000000100097512770782DULCINEIA CAPUTE                        AVENIDA ITAGUAI N 848 A - ENGENHO       ITAGUAI - RJ23820306ITAGUAI        RJUNIAO UMB DOS CULTOS AFRO BRAS    30031810 000088
10231987175000168817800093673    00009273                     000092730000000000000109                     I029273      30031800000000035003410000017N200218104700000000000103003180000000000000000000000000000000000000000100050475142772LUIZ GONCALVES COLARES                  RUA LEONEL BRIZOLA, QUADRA A LOTE 11 - NPACIENCIA - 23587010RIO DE JANEIRO RJUNIAO UMB DOS CULTOS AFRO BRAS    30031810 000089
10231987175000168817800093673    00009272                     000092720000000000000109                     I029272      30031800000000035003410000017N200218104700000000000103003180000000000000000000000000000000000000000200000000002180ROSINEIA MARTINS DE ARRUDA              RUA ALBERTO DE MELO, 388                COMENDADOR S26280310NOVA IGUACU    RJUNIAO UMB DOS CULTOS AFRO BRAS    30031810 000090
10231987175000168817800093673    00009271                     000092710000000000000109                     I029271      30031800000000035003410000017N200218104700000000000103003180000000000000000000000000000000000000000100006980782762ALEX SANDRO INACIO DO NASCIMEN          MESMO                                   MESMO       26298686NOVA IGUACU    RJUNIAO UMB DOS CULTOS AFRO BRAS    30031810 000091
10231987175000168817800093673    00009270                     000092700000000000000109                     I029270      30031800000000035003410000017N200218104700000000000103003180000000000000000000000000000000000000000200000000002168EDEVALDO NUNES                          RUA DO ROTEIRO, 24                      AUGUSTO VASC23012370RIO DE JANEIRO RJUNIAO UMB DOS CULTOS AFRO BRAS    30031810 000092
10231987175000168817800093673    00009269                     000092690000000000000109                     I029269      30031800000000035003410000017N200218104700000000000103003180000000000000000000000000000000000000000200000000002163NEUSA DA SILVA RODRIGUES                RUA DOM RAFAEL, 5 - PACIENCIA           29 DE MARCO 23060370RIO DE JANEIRO RJUNIAO UMB DOS CULTOS AFRO BRAS    30031810 000093
10231987175000168817800093673    00009267                     000092670000000000000109                     I029267      30031800000000035003410000017N200218104700000000000103003180000000000000000000000000000000000000000100044029640753CREMILDA CONCEICAO LOPES                O MESMO                                 O MESMO     21235250RIO DE JANEIRO RJUNIAO UMB DOS CULTOS AFRO BRAS    30031810 000094
10231987175000168817800093673    00009265                     000092650000000000000109                     I029265      30031800000000035003410000017N200218104700000000000103003180000000000000000000000000000000000000000100007120562703JANETE RIBEIRO DE ALMEIDA               O MESMO                                 O MESMO     26347030NOVA IGUACU    RJUNIAO UMB DOS CULTOS AFRO BRAS    30031810 000095
10231987175000168817800093673    00009263                     000092630000000000000109                     I029263      30031800000000035003410000017N200218104700000000000103003180000000000000000000000000000000000000000100008839877754DEISE CORREIA ALVES SILVA               PRACA FLAMENGO N 17                     SANTA TEREZA25086090DUQUE DE CAXIASRJUNIAO UMB DOS CULTOS AFRO BRAS    30031810 000096
10231987175000168817800093673    00009262                     000092620000000000000109                     I029262      30031800000000035003410000017N200218104700000000000103003180000000000000000000000000000000000000000100003026317713RITA DE CASSIA VIEIRA SIMOES F          RUA CABO SAULO DE VASCONCELOS N 120 LOTEJARDIM PALMA23510001PACIENCIA      RJUNIAO UMB DOS CULTOS AFRO BRAS    30031810 000097
10231987175000168817800093673    00009261                     000092610000000000000109                     I029261      30031800000000035003410000017N200218104700000000000103003180000000000000000000000000000000000000000200000000006837ELIZABETH RODRIGUES DE MATTOS           O MESMO                                 O MESMO     26263290NOVA IGUACU    RJUNIAO UMB DOS CULTOS AFRO BRAS    30031810 000098
10231987175000168817800093673    00009260                     000092600000000000000109                     I029260      30031800000000035003410000017N200218104700000000000103003180000000000000000000000000000000000000000200000000006836HELOIZA HELENA COSTA LIMA               RUA DOUTOR ALCINDO RAFAEL, 148 - MORRO AITAMARATI - 26262060NOVA IGUACU    RJUNIAO UMB DOS CULTOS AFRO BRAS    30031810 000099
10231987175000168817800093673    00009259                     000092590000000000000109                     I029259      30031800000000035003410000017N200218104700000000000103003180000000000000000000000000000000000000000200000000006821MANOELINA DE PAULA SILVA                O MESMO                                 O MESMO     25811080TRES RIOS      RJUNIAO UMB DOS CULTOS AFRO BRAS    30031810 000100
10231987175000168817800093673    00009258                     000092580000000000000109                     I029258      30031800000000035003410000017N200218104700000000000103003180000000000000000000000000000000000000000100001045146714ELIANE RIBEIRO MACEDO                   O MESMO                                 O MESMO     21725320RIO DE JANEIRO RJUNIAO UMB DOS CULTOS AFRO BRAS    30031810 000101
10231987175000168817800093673    00009257                     000092570000000000000109                     I029257      30031800000000035003410000017N200218104700000000000103003180000000000000000000000000000000000000000100051398060704ELIZABETH MONTEIRO MOREIRA DA           RUA: IBITINGA LOTE 1 QD 3 CASA 1 - PARQUBELFORD ROXO26167160BELFORD ROXO   RJUNIAO UMB DOS CULTOS AFRO BRAS    30031810 000102
10231987175000168817800093673    00009254                     000092540000000000000109                     I029254      30031800000000035003410000017N200218104700000000000103003180000000000000000000000000000000000000000200000000006667HILDETE SACRAMENTO BISPO                O MESMO                                 O MESMO     23060070RIO DE JANEIRO RJUNIAO UMB DOS CULTOS AFRO BRAS    30031810 000103
10231987175000168817800093673    00009251                     000092510000000000000109                     I029251      30031800000000035003410000017N200218104700000000000103003180000000000000000000000000000000000000000200000000006634ANTONIO CARLOS ANTUNES BASTOS           AVENIDA ITATIAIA, 1615 - 21 DE ABRIL    VILA ITAMARA25065095DUQUE DE CAXIASRJUNIAO UMB DOS CULTOS AFRO BRAS    30031810 000104
10231987175000168817800093673    00009250                     000092500000000000000109                     I029250      30031800000000035003410000017N200218104700000000000103003180000000000000000000000000000000000000000100070672997720MARTA CAVALCANTE TEIXEIRA               O MESMO                                 O MESMO     22763011RIO DE JANEIRO RJUNIAO UMB DOS CULTOS AFRO BRAS    30031810 000105
10231987175000168817800093673    00009249                     000092490000000000000109                     I029249      30031800000000035003410000017N200218104700000000000103003180000000000000000000000000000000000000000100084244224734JORGE MARCELO TINTEL                    O MESMO                                 O MESMO     23530220RIO DE JANEIRO RJUNIAO UMB DOS CULTOS AFRO BRAS    30031810 000106
10231987175000168817800093673    00009248                     000092480000000000000109                     I029248      30031800000000035003410000017N200218104700000000000103003180000000000000000000000000000000000000000200000000006620SONIA MARIA DOS REMEDIOS                RUA SAO LUIZ, 11 CASA 2 - CANAL DO LEITAPRAIA DO SAC23860000MANGARATIBA    RJUNIAO UMB DOS CULTOS AFRO BRAS    30031810 000107
10231987175000168817800093673    00009247                     000092470000000000000109                     I029247      30031800000000035003410000017N200218104700000000000103003180000000000000000000000000000000000000000200000000006612ELOISA SANT ANA                         RUA LINO DE MORAIS, 322 FUNDOS          REALENGO - R21730290RIO DE JANEIRO RJUNIAO UMB DOS CULTOS AFRO BRAS    30031810 000108
10231987175000168817800093673    00009244                     000092440000000000000109                     I029244      30031800000000035003410000017N200218104700000000000103003180000000000000000000000000000000000000000100098806181734PAULO ROMULO ALVES DE SOUZA             O MESMO                                 O MESMO     26021560NOVA IGUACU    RJUNIAO UMB DOS CULTOS AFRO BRAS    30031810 000109
10231987175000168817800093673    00009243                     000092430000000000000109                     I029243      30031800000000035003410000017N200218104700000000000103003180000000000000000000000000000000000000000200000000006579LUIZ CLAUDIO BATISTA REIS               O MESMO                                 O MESMO     24315384NITEROI        RJUNIAO UMB DOS CULTOS AFRO BRAS    30031810 000110
10231987175000168817800093673    00009241                     000092410000000000000109                     I029241      30031800000000035003410000017N200218104700000000000103003180000000000000000000000000000000000000000100083326952791JOSELITA BATISTA DE OLIVEIRA            O MESMO                                 O MESMO     23830000ITAGUAI        RJUNIAO UMB DOS CULTOS AFRO BRAS    30031810 000111
10231987175000168817800093673    00009240                     000092400000000000000109                     I029240      30031800000000035003410000017N200218104700000000000103003180000000000000000000000000000000000000000100044451318734NILZA MUNIZ FIRMINO                     RUA: PEDRO AMERICO                      COLUBANDE - 24450480SAO GONCALO    RJUNIAO UMB DOS CULTOS AFRO BRAS    30031810 000112
10231987175000168817800093673    00009239                     000092390000000000000109                     I029239      30031800000000035003410000017N200218104700000000000103003180000000000000000000000000000000000000000100041602790744PAULO LEANDRO FONTES                    ESTRADA: UNIAO E INDUSTRIA              VOLTA REDOND25720062VOLTA REDONDA  RJUNIAO UMB DOS CULTOS AFRO BRAS    30031810 000113
10231987175000168817800093673    00009238                     000092380000000000000109                     I029238      30031800000000035003410000017N200218104700000000000103003180000000000000000000000000000000000000000100068331428749IVANILDA DOS SANTOS                     RUA RIBEIRAO DO SUL LOTE 7 QUADRA 29    GUARATIBA - 23026590RIO DE JANEIRO RJUNIAO UMB DOS CULTOS AFRO BRAS    30031810 000114
10231987175000168817800093673    00009237                     000092370000000000000109                     I029237      30031800000000035003410000017N200218104700000000000103003180000000000000000000000000000000000000000200000000006498MARIA LUCIA BENJAMIN DE FREITA          RUA: QUITO LOTE 12 QD 23 - JD PRIMAVERA DUQUE DE CAX25223150RIO DE JANEIRO RJUNIAO UMB DOS CULTOS AFRO BRAS    30031810 000115
10231987175000168817800093673    00009236                     000092360000000000000109                     I029236      30031800000000035003410000017N200218104700000000000103003180000000000000000000000000000000000000000200000000006490JOANA MARIA JOSE BORGES                 ESTRADA: UNIAO E INDUSTRIA              ESTRADA: UNI25720062PINHEIRAL      RJUNIAO UMB DOS CULTOS AFRO BRAS    30031810 000116
10231987175000168817800093673    00009235                     000092350000000000000109                     I029235      30031800000000035003410000017N200218104700000000000103003180000000000000000000000000000000000000000200000000006481SONIA MARIA RODRIGUES LONTRA M          O MESMO                                 O MESMO     23017240RIO DE JANEIRO RJUNIAO UMB DOS CULTOS AFRO BRAS    30031810 000117
10231987175000168817800093673    00009232                     000092320000000000000109                     I029232      30031800000000035003410000017N200218104700000000000103003180000000000000000000000000000000000000000200000000006437DOLARINA CANDIDA DE JESUS               O MESMO                                 O MESMO     23585580RIO DE JANEIRO RJUNIAO UMB DOS CULTOS AFRO BRAS    30031810 000118
10231987175000168817800093673    00009231                     000092310000000000000109                     I029231      30031800000000035003410000017N200218104700000000000103003180000000000000000000000000000000000000000200000000006430JONAS SILVA SIQUEIRA                    O MESMO                                 O MESMO     21670420RIO DE JANEIRO RJUNIAO UMB DOS CULTOS AFRO BRAS    30031810 000119
10231987175000168817800093673    00009230                     000092300000000000000109                     I029230      30031800000000035003410000017N200218104700000000000103003180000000000000000000000000000000000000000100085789569749VALMIR DE SOUZA RIBEIRO                 O MESMO                                 O MESMO     21715080RIO DE JANEIRO RJUNIAO UMB DOS CULTOS AFRO BRAS    30031810 000120
10231987175000168817800093673    00009229                     000092290000000000000109                     I029229      30031800000000035003410000017N200218104700000000000103003180000000000000000000000000000000000000000200000000006397LUIZ CARLOS AMATE                       RUA ITABIRA, 343                        BRAS DE PINA21215310RIO DE JANEIRO RJUNIAO UMB DOS CULTOS AFRO BRAS    30031810 000121
10231987175000168817800093673    00009228                     000092280000000000000109                     I029228      30031800000000035003410000017N200218104700000000000103003180000000000000000000000000000000000000000100003350383793RITA DE CASSIA MOREIRA DA SILV          RUA ALBERTO TEIXEIRA DA CUNHA           CENTRO      26520110NILOPOLIS      RJUNIAO UMB DOS CULTOS AFRO BRAS    30031810 000122
10231987175000168817800093673    00009227                     000092270000000000000109                     I029227      30031800000000035003410000017N200218104700000000000103003180000000000000000000000000000000000000000100001796220728MARIA ROSA ALVES DA SILVA               RUA DOUTOR ARRUDA NEGREIRO N 100        SENHOR DO BO25025325DUQUE DE CAXIASRJUNIAO UMB DOS CULTOS AFRO BRAS    30031810 000123
10231987175000168817800093673    00009226                     000092260000000000000109                     I029226      30031800000000035003410000017N200218104700000000000103003180000000000000000000000000000000000000000100071411780744ZULTAMAR MESQUITA DE ALMEIDA            RUA DAS CRIANCAS Nº 30                 NOVA JESSICA00000000NILOPOLIS      RJUNIAO UMB DOS CULTOS AFRO BRAS    30031810 000124
10231987175000168817800093673    00009224                     000092240000000000000109                     I029224      30031800000000035003410000017N200218104700000000000103003180000000000000000000000000000000000000000100098693043168REJANE VIEIRA GOMES                     RUA: TAPIRANGA                          RIO DE JANEI21775470RIO DE JANEIRO RJUNIAO UMB DOS CULTOS AFRO BRAS    30031810 000125
10231987175000168817800093673    00009223                     000092230000000000000109                     I029223      30031800000000035003410000017N200218104700000000000103003180000000000000000000000000000000000000000200000000001019CELIO DELDUQUE                          RUA DOMINGOS PIRES, 181/183             PILARES  - R20750160RIO DE JANEIRO RJUNIAO UMB DOS CULTOS AFRO BRAS    30031810 000126
10231987175000168817800093673    00009222                     000092220000000000000109                     I029222      30031800000000035003410000017N200218104700000000000103003180000000000000000000000000000000000000000100001015032702GABRIEL MENEZES                         RUA LINO FONSECA N 281                  OSVALDO CRUZ21340540SAO PEDRO DA ALRJUNIAO UMB DOS CULTOS AFRO BRAS    30031810 000127
10231987175000168817800093673    00009221                     000092210000000000000109                     I029221      30031800000000035003410000017N200218104700000000000103003180000000000000000000000000000000000000000100030341108715SUELENA DA SILVA MARTINS                RUA PAULO DE AQUINO, 27                 ANCHIETA - R21645500RIO DE JANEIRO RJUNIAO UMB DOS CULTOS AFRO BRAS    30031810 000128
10231987175000168817800093673    00009220                     000092200000000000000109                     I029220      30031800000000035003410000017N200218104700000000000103003180000000000000000000000000000000000000000100059135085720CELIA MARINHO VIEIRA                    RUA LOURIVAL ABREU SILVA, 565           SULACAP - RI21745760RIO DE JANEIRO RJUNIAO UMB DOS CULTOS AFRO BRAS    30031810 000129
10231987175000168817800093673    00009219                     000092190000000000000109                     I029219      30031800000000035003410000017N200218104700000000000103003180000000000000000000000000000000000000000200000000005728MARIA JOSE DOS SANTOS                   RUA JOSE MARIOZZI FILHO, 990            PRAIA DA BRI23028400RIO DE JANEIRO RJUNIAO UMB DOS CULTOS AFRO BRAS    30031810 000130
10231987175000168817800093673    00009218                     000092180000000000000109                     I029218      30031800000000035003410000017N200218104700000000000103003180000000000000000000000000000000000000000100003863156714VILMA TEREZA DE SOUZA AMARAL            RUA GUATEMALENSE, LOTE 7 QUADRA 32      JARDIM MERIT25555700SAO JOAO DE MERRJUNIAO UMB DOS CULTOS AFRO BRAS    30031810 000131
10231987175000168817800093673    00009215                     000092150000000000000109                     I029215      30031800000000035003410000017N200218104700000000000103003180000000000000000000000000000000000000000200000000005008ROSEMERE THEODORO DA SILVA              BECO ECA DE QUEIROZ, 26                 VILA SANTO A25040355DUQUE DE CAXIASRJUNIAO UMB DOS CULTOS AFRO BRAS    30031810 000132
10231987175000168817800093673    00009213                     000092130000000000000109                     I029213      30031800000000035003410000017N200218104700000000000103003180000000000000000000000000000000000000000200000000001244JORGE LUCIO                             AVENIDA DOS ITALIANOS N 114 (VILA CONQUIROCHA MIRAND21510105RIO DE JANEIRO RJUNIAO UMB DOS CULTOS AFRO BRAS    30031810 000133
10231987175000168817800093673    00009212                     000092120000000000000109                     I029212      30031800000000040003410000017N200218104700000000000103003180000000000000000000000000000000000000000100087292971768ANTONIA HERMINIA DA SILVA               RUA PROFESSOR SILVIO ELIAS              VARGEM GRAND22783235RIO DE JANEIRO RJUNIAO UMB DOS CULTOS AFRO BRAS    30031810 000134
10231987175000168817800093673    00009210                     000092100000000000000109                     I029210      30031800000000035003410000017N200218104700000000000103003180000000000000000000000000000000000000000200000000005578SOLANGE DOS SANTOS SILVA                RUA QUATORZE, LOTE 35 CASA 131 -ARAUJO  CAMPO GRANDE23090370RIO DE JANEIRO RJUNIAO UMB DOS CULTOS AFRO BRAS    30031810 000135
10231987175000168817800093673    00009209                     000092090000000000000109                     I029209      30031800000000035003410000017N200218104700000000000103003180000000000000000000000000000000000000000100035914661749CELSO NERY GALDARD                      RUA BENJAMIN DA ROCHA JUNIOR, 1 CASA 6  PARQUE FLUMI25045010DUQUE DE CAXIASRJUNIAO UMB DOS CULTOS AFRO BRAS    30031810 000136
10231987175000168817800093673    00009207                     000092070000000000000109                     I029207      30031800000000035003410000017N200218104700000000000103003180000000000000000000000000000000000000000100002804485706LEONOR CARINE COSTA WINTRICH            RUA ESTRELA, 24                         BONSUCESSO -21041070RIO DE JANEIRO RJUNIAO UMB DOS CULTOS AFRO BRAS    30031810 000137
10231987175000168817800093673    00009206                     000092060000000000000109                     I029206      30031800000000035003410000017N200218104700000000000103003180000000000000000000000000000000000000000100002477166778BEATRIZ MIRANDA ABRANCHES               RUA GRUCAI, 657                         PENHA - RJ  21020250RIO DE JANEIRO RJUNIAO UMB DOS CULTOS AFRO BRAS    30031810 000138
10231987175000168817800093673    00009205                     000092050000000000000109                     I029205      30031800000000035003410000017N200218104700000000000103003180000000000000000000000000000000000000000200000000005269SILVIA MARIA DE MOURA                   ESTRADA SANTA EFIGENIA, 461 CASA 14     TAQUARA - JA22775780RIO DE JANEIRO RJUNIAO UMB DOS CULTOS AFRO BRAS    30031810 000139
10231987175000168817800093673    00009203                     000092030000000000000109                     I029203      30031800000000035003410000017N200218104700000000000103003180000000000000000000000000000000000000000100004550495723MARIA ADELAIDE DA SILVA PROFET          RUA ARACA, 552                          RICARDO DE A21620050RIO DE JANEIRO RJUNIAO UMB DOS CULTOS AFRO BRAS    30031810 000140
10231987175000168817800093673    00009202                     000092020000000000000109                     I029202      30031800000000035003410000017N200218104700000000000103003180000000000000000000000000000000000000000200000000005090DENILZA THIMOTHEO ROZA                  RUA MARIO CARPENTER, 309 ENTRADA A APTO PILARES - RI20755062RIO DE JANEIRO RJUNIAO UMB DOS CULTOS AFRO BRAS    30031810 000141
10231987175000168817800093673    00009201                     000092010000000000000109                     I029201      30031800000000035003410000017N200218104700000000000103003180000000000000000000000000000000000000000100000998809705LEDA GONCALVES MENDES                   RUA VINTE DE ABRIL, 5 CASA 2            CENTRO - QUE26327470QUEIMADOS      RJUNIAO UMB DOS CULTOS AFRO BRAS    30031810 000142
10231987175000168817800093673    00009200                     000092000000000000000109                     I029200      30031800000000035003410000017N200218104700000000000103003180000000000000000000000000000000000000000200000000005061IDALINA DA COSTA PEREIRA                RUA BICUIBA, 458                        BANCO DE ARE26350140RIO DE JANEIRO RJUNIAO UMB DOS CULTOS AFRO BRAS    30031810 000143
10231987175000168817800093673    00009199                     000091990000000000000109                     I029199      30031800000000035003410000017N200218104700000000000103003180000000000000000000000000000000000000000200000000005039MARIA DE SOUZA                          AVENIDA BELO HORIZONTE, 271             SAO GABRIEL 26021670NOVA IGUACU    RJUNIAO UMB DOS CULTOS AFRO BRAS    30031810 000144
10231987175000168817800093673    00009198                     000091980000000000000109                     I029198      30031800000000035003410000017N200218104700000000000103003180000000000000000000000000000000000000000100058895780370ELZA MORAES DA SILVA                    RUA CARLOS PALUT N 892 BL 2 APT 102     TAQUARA - RJ22710310SAO JOAO DE MERRJUNIAO UMB DOS CULTOS AFRO BRAS    30031810 000145
10231987175000168817800093673    00009197                     000091970000000000000109                     I029197      30031800000000035003410000017N200218104700000000000103003180000000000000000000000000000000000000000200000000001134JOSE CALASANS SILVA FILHO               RUA DAS AMETISTAS, 60                   ROCHA MIRAND21510020RIO DE JANEIRO RJUNIAO UMB DOS CULTOS AFRO BRAS    30031810 000146
10231987175000168817800093673    00009195                     000091950000000000000109                     I029195      30031800000000035003410000017N200218104700000000000103003180000000000000000000000000000000000000000100084761512768MIRIAN ALVES DE AQUINO MALTOS           RUA GUARAPUAVA N 173                    INHAUMA - RJ21371420RIO DE JANEIRO RJUNIAO UMB DOS CULTOS AFRO BRAS    30031810 000147
10231987175000168817800093673    00009194                     000091940000000000000109                     I029194      30031800000000035003410000017N200218104700000000000103003180000000000000000000000000000000000000000100086919105772FLAVIO DA SILVA BARBOSA                 ESTRADA DO QUAFA, 678 RUA B LOTE 43     SANTISSIMO -23098030RIO DE JANEIRO RJUNIAO UMB DOS CULTOS AFRO BRAS    30031810 000148
10231987175000168817800093673    00009193                     000091930000000000000109                     I029193      30031800000000035003410000017N200218104700000000000103003180000000000000000000000000000000000000000200000000001068ELAINE LOPES GONCALVES FALCAO           RUA TIUBA N 697 - VAZ LOBO              VAZ LOBO - R21371170RIO DE JANEIRO RJUNIAO UMB DOS CULTOS AFRO BRAS    30031810 000149
10231987175000168817800093673    00009191                     000091910000000000000109                     I029191      30031800000000035003410000017N200218104700000000000103003180000000000000000000000000000000000000000100062444654749NADIA DA CUNHA SANTOS                   RUA CLARIMUNDO DE MELO Nº 1040         QUINTINO - R00000000RIO DE JANEIRO RJUNIAO UMB DOS CULTOS AFRO BRAS    30031810 000150
10231987175000168817800093673    00009190                     000091900000000000000109                     I029190      30031800000000035003410000017N200218104700000000000103003180000000000000000000000000000000000000000100096073276753MARIA JOSE DA SILVA                     RUA MANOEL GAMA, LOTE 142               TOMAZINHO - 25525542SAO JOAO DE MERRJUNIAO UMB DOS CULTOS AFRO BRAS    30031810 000151
10231987175000168817800093673    00009189                     000091890000000000000109                     I029189      30031800000000035003410000017N200218104700000000000103003180000000000000000000000000000000000000000100030995980820JOSE ANACLETO DE LIMA                   RUA FREDI EMANUEL, 144                  JARDIM JASMI26265110NOVA IGUACU    RJUNIAO UMB DOS CULTOS AFRO BRAS    30031810 000152
10231987175000168817800093673    00009188                     000091880000000000000109                     I029188      30031800000000035003410000017N200218104700000000000103003180000000000000000000000000000000000000000100098456164704JUCEMAR DOS SANTOS ESTEVES              RUA ABEL DE ALVARENGA N 62              CHATUBA - ME26585000MESQUITA       RJUNIAO UMB DOS CULTOS AFRO BRAS    30031810 000153
10231987175000168817800093673    00009186                     000091860000000000000109                     I029186      30031800000000035003410000017N200218104700000000000103003180000000000000000000000000000000000000000100000903948796MARIA VILANY DE OLIVEIRA BIEGL          RUA D SN LOTE 68 QUADRA 13              PARQUE SANTA25915000MAGE           RJUNIAO UMB DOS CULTOS AFRO BRAS    30031810 000154
10231987175000168817800093673    00009185                     000091850000000000000109                     I029185      30031800000000035003410000017N200218104700000000000103003180000000000000000000000000000000000000000200000000000302MARIA DA LUZ MAGALHAES                  RUA JOSE FERREIRA MURRO, 20             MIGUEL COUTO26070527NOVA IGUACU    RJUNIAO UMB DOS CULTOS AFRO BRAS    30031810 000155
10231987175000168817800093673    00009183                     000091830000000000000109                     I029183      30031800000000035003410000017N200218104700000000000103003180000000000000000000000000000000000000000100000744455707VERA LUCIA CALIXTO DA SILVA             O MESMO                                 O MESMO     27115410BARRA DO PIRAI RJUNIAO UMB DOS CULTOS AFRO BRAS    30031810 000156
10231987175000168817800093673    00009182                     000091820000000000000109                     I029182      30031800000000035003410000017N200218104700000000000103003180000000000000000000000000000000000000000100042959586700GEORGINA COSTA ISABEL                   O MESMO                                 O MESMO     25015350DUQUE DE CAXIASRJUNIAO UMB DOS CULTOS AFRO BRAS    30031810 000157
10231987175000168817800093673    00009181                     000091810000000000000109                     I029181      30031800000000035003410000017N200218104700000000000103003180000000000000000000000000000000000000000100033565708700MARLY DA SILVA UCHOA                    AVENIDA MINISTRO EDGARD ROMERO, 597 CASAMADUREIRA - 21360200RIO DE JANEIRO RJUNIAO UMB DOS CULTOS AFRO BRAS    30031810 000158
10231987175000168817800093673    00009180                     000091800000000000000109                     I029180      30031800000000035003410000017N200218104700000000000103003180000000000000000000000000000000000000000100004125947732FABIO DA FONSECA PAES                   RUA JOAQUIM COUTO, 145                  VILA JURANDI25540370SAO JOAO DE MERRJUNIAO UMB DOS CULTOS AFRO BRAS    30031810 000159
10231987175000168817800093673    00009179                     000091790000000000000109                     I029179      30031800000000035003410000017N200218104700000000000103003180000000000000000000000000000000000000000100001974559726ELIZABETH BRITO DE JESUS                O MESMO                                 O MESMO     21210000RIO DE JANEIRO RJUNIAO UMB DOS CULTOS AFRO BRAS    30031810 000160
10231987175000168817800093673    00009177                     000091770000000000000109                     I029177      30031800000000035003410000017N200218104700000000000103003180000000000000000000000000000000000000000100060946563772FLORIPEDES MADUREIRA SIQUEIRA           AVENIDA PARAIBA, 210                    DOM BOSCO - 27286000VOLTA REDONDA  RJUNIAO UMB DOS CULTOS AFRO BRAS    30031810 000161
10231987175000168817800093673    00009176                     000091760000000000000109                     I029176      30031800000000035003410000017N200218104700000000000103003180000000000000000000000000000000000000000100033434557768VALTER OLIVEIRA MAYRINCK                RUA SARGENTO OSMAR CLARO, 22            AMAZONAS - C23075180RIO DE JANEIRO RJUNIAO UMB DOS CULTOS AFRO BRAS    30031810 000162
10231987175000168817800093673    00009175                     000091750000000000000109                     I029175      30031800000000035003410000017N200218104700000000000103003180000000000000000000000000000000000000000100004291038755MARIA DE FATIMA VIANA DE CARVA          RUA FERREIRA CHAVES, 701                VILA COSMOS 21221090RIO DE JANEIRO RJUNIAO UMB DOS CULTOS AFRO BRAS    30031810 000163
10231987175000168817800093673    00009173                     000091730000000000000109                     I029173      30031800000000035003410000017N200218104700000000000103003180000000000000000000000000000000000000000200000000005440DELIA VIEIRA DA COSTA                   RUA CAPITAO BORGES COUTO N 10 B         SENADOR CAMA21832300RIO DE JANEIRO RJUNIAO UMB DOS CULTOS AFRO BRAS    30031810 000164
10231987175000168817800093673    00009171                     000091710000000000000109                     I029171      30031800000000035003410000017N200218104700000000000103003180000000000000000000000000000000000000000100091919835768JORGETE SALGADO                         RUA PARAIM, 64 APTO 203                 ILHA DO GOVE21911050RIO DE JANEIRO RJUNIAO UMB DOS CULTOS AFRO BRAS    30031810 000165
10231987175000168817800093673    00009169                     000091690000000000000109                     I029169      30031800000000035003410000017N200218104700000000000103003180000000000000000000000000000000000000000100076998460791IRENE DA SILVA CUPOLILLO                RUA VERA, 135                           CORDOVIL - R21012220RIO DE JANEIRO RJUNIAO UMB DOS CULTOS AFRO BRAS    30031810 000166
10231987175000168817800093673    00009166                     000091660000000000000109                     I029166      30031800000000035003410000017N200218104700000000000103003180000000000000000000000000000000000000000100055570720715ATILA CARDOSO DE LIMA                   RUA EUGENIO SOARES, 270                 CENTRO - MES26550007MESQUITA       RJUNIAO UMB DOS CULTOS AFRO BRAS    30031810 000167
10231987175000168817800093673    00009164                     000091640000000000000109                     I029164      30031800000000035003410000017N200218104700000000000103003180000000000000000000000000000000000000000200000000000472JOANE ZAGALIA DA CUNHA                  RUA JABIRI, 365                         MARECHAL HER21615300MARECHAL HERMESRJUNIAO UMB DOS CULTOS AFRO BRAS    30031810 000168
10231987175000168817800093673    00009160                     000091600000000000000109                     I029160      30031800000000035003410000017N200218104700000000000103003180000000000000000000000000000000000000000100050713558768ANILSON DA SILVA                        TRAVESSA HELENA, CASA 19 ENTRADA 217    REALENGO - R21760620RIO DE JANEIRO RJUNIAO UMB DOS CULTOS AFRO BRAS    30031810 000169
10231987175000168817800093673    00009157                     000091570000000000000109                     I029157      30031800000000035003410000017N200218104700000000000103003180000000000000000000000000000000000000000100051328054772BALBINA MARIA DE JESUS DEOLIND          RUA DA FELICIDADE, 26                   BANGU - RIO 21862465RIO DE JANEIRO RJUNIAO UMB DOS CULTOS AFRO BRAS    30031810 000170
10231987175000168817800093673    00009155                     000091550000000000000109                     I029155      30031800000000035003410000017N200218104700000000000103003180000000000000000000000000000000000000000200000000005639MANOELLA MARIA DA CONCEICAO             RUA PIRES DO RIO, 928                   EDEN - SAO J25540510SAO JOAO DE MERRJUNIAO UMB DOS CULTOS AFRO BRAS    30031810 000171
10231987175000168817800093673    00009154                     000091540000000000000109                     I029154      30031800000000035003410000017N200218104700000000000103003180000000000000000000000000000000000000000100044279388768THEREZA LEOCADIA DA COSTA               RUA VERA CRUZ, 12 - TRINTA E UM DE OUTUBPACIENCIA - 23585817RIO DE JANEIRO RJUNIAO UMB DOS CULTOS AFRO BRAS    30031810 000172
10231987175000168817800093673    00009153                     000091530000000000000109                     I029153      30031800000000035003410000017N200218104700000000000103003180000000000000000000000000000000000000000100001077338708ANA MONICA FERREIRA DOS SANTOS          RUA ITAIR JOSE VELOSO, 101 CASA 2 - CONJPACIENCIA - 23587390RIO DE JANEIRO RJUNIAO UMB DOS CULTOS AFRO BRAS    30031810 000173
10231987175000168817800093673    00009152                     000091520000000000000109                     I029152      30031800000000035003410000017N200218104700000000000103003180000000000000000000000000000000000000000100078759676787VANDA LUCIA LIMA DA SILVA               RUA ALMIRANTE JUSTINO PROENCA, 395      CAMPO GRANDE23090310RIO DE JANEIRO RJUNIAO UMB DOS CULTOS AFRO BRAS    30031810 000174
10231987175000168817800093673    00009151                     000091510000000000000109                     I029151      30031800000000035003410000017N200218104700000000000103003180000000000000000000000000000000000000000100005412696740MONICA MIRALHA MESSINA                  O MESMO                                 O MESMO     21370350RIO DE JANEIRO RJUNIAO UMB DOS CULTOS AFRO BRAS    30031810 000175
10231987175000168817800093673    00009150                     000091500000000000000109                     I029150      30031800000000035003410000017N200218104700000000000103003180000000000000000000000000000000000000000200000000006267MANOELINA MARIANA DA SILVA RIB          O MESMO                                 O MESMO     26540120NILOPOLIS      RJUNIAO UMB DOS CULTOS AFRO BRAS    30031810 000176
10231987175000168817800093673    00009148                     000091480000000000000109                     I029148      30031800000000035003410000017N200218104700000000000103003180000000000000000000000000000000000000000200000000005779SANDRA MARIA DOS SANTOS DA SIL          RUA AMILTON FERNANDES, 77 - JARDIM NOVO REALENGO - R21760370RIO DE JANEIRO RJUNIAO UMB DOS CULTOS AFRO BRAS    30031810 000177
10231987175000168817800093673    00009146                     000091460000000000000109                     I029146      30031800000000035003410000017N200218104700000000000103003180000000000000000000000000000000000000000100011039470793ZENY FILIPPE DE CASTRO                  RUA PROFESSOR PLINIO OLINDO, 102        PADRE MIGUEL21860160RIO DE JANEIRO RJUNIAO UMB DOS CULTOS AFRO BRAS    30031810 000178
10231987175000168817800093673    00009144                     000091440000000000000109                     I029144      30031800000000035003410000017N200218104700000000000103003180000000000000000000000000000000000000000200000000006239NEUZA SANTOS DE BRITO                   ESTRADA DO MOINHO, 2373                 CAMPO GRANDE23040550RIO DE JANEIRO RJUNIAO UMB DOS CULTOS AFRO BRAS    30031810 000179
10231987175000168817800093673    00009143                     000091430000000000000109                     I029143      30031800000000035003410000017N200218104700000000000103003180000000000000000000000000000000000000000100010949478733AUCELIA MARIA DE SOUZA LIMA             RUA JOSE FRANCISCO DE SOUZA PORTO, 229  ARNALDO EUGE23016010RIO DE JANEIRO RJUNIAO UMB DOS CULTOS AFRO BRAS    30031810 000180
10231987175000168817800093673    00009142                     000091420000000000000109                     I029142      30031800000000035003410000017N200218104700000000000103003180000000000000000000000000000000000000000200000000006204MARIA DAS DORES SANTOS                  ESTRADA DO AREAL, 4                     BOA VISTA DA27165000BARRA DO PIRAI RJUNIAO UMB DOS CULTOS AFRO BRAS    30031810 000181
10231987175000168817800093673    00009141                     000091410000000000000109                     I029141      30031800000000035003410000017N200218104700000000000103003180000000000000000000000000000000000000000200000000006165ELISABETE JORDAO DOS SANTOS             RUA GENERAL MANOEL RABELO, 1025         VILA SAO LUI25065050DUQUE DE CAXIASRJUNIAO UMB DOS CULTOS AFRO BRAS    30031810 000182
10231987175000168817800093673    00009139                     000091390000000000000109                     I029139      30031800000000035003410000017N200218104700000000000103003180000000000000000000000000000000000000000200000000006133JOSE CARLOS DE OLIVEIRA                 RUA NICOLAU TOLENTINO, 315              CALIFORNIA -27163000BARRA DO PIRAI RJUNIAO UMB DOS CULTOS AFRO BRAS    30031810 000183
10231987175000168817800093673    00009138                     000091380000000000000109                     I029138      30031800000000035003410000017N200218104700000000000103003180000000000000000000000000000000000000000100049720147768LEDA MARIA DOS SANTOS LEAL              RUA JOSE FIRMINO DE MELO, 247           QUIMICA - BA27130360BARRA DO PIRAI RJUNIAO UMB DOS CULTOS AFRO BRAS    30031810 000184
10231987175000168817800093673    00009137                     000091370000000000000109                     I029137      30031800000000035003410000017N200218104700000000000103003180000000000000000000000000000000000000000200000000006076CLEIA DE OLIVEIRA                       RUA FRANCISCO FRANCO, 134               REPRESA - BA27135110BARRA DO PIRAI RJUNIAO UMB DOS CULTOS AFRO BRAS    30031810 000185
10231987175000168817800093673    00009135                     000091350000000000000109                     I029135      30031800000000035003410000017N200218104700000000000103003180000000000000000000000000000000000000000100067859372720MARLI MOREIRA ROSA CERQUEIRA            RUA DO POVO 11                          SANTO AGOSTI27214300VOLTA REDONDA  RJUNIAO UMB DOS CULTOS AFRO BRAS    30031810 000186
10231987175000168817800093673    00009134                     000091340000000000000109                     I029134      30031800000000040003410000017N200218104700000000000103003180000000000000000000000000000000000000000100004245577703FERNANDA MEDEIROS VIANA                 RUA TOROPI  LOTE 7 QUADRA 29 FUNDOS     HELIOPOLIS  26123380BELFORD ROXO   RJUNIAO UMB DOS CULTOS AFRO BRAS    30031810 000187
10231987175000168817800093673    00009133                     000091330000000000000109                     I029133      30031800000000035003410000017N200218104700000000000103003180000000000000000000000000000000000000000200000000005978NEUZA MORAES TAVARES                    RUA RUBENS BARCELLOS, 207               VILA ORLANDE27325260BARRA MANSA    RJUNIAO UMB DOS CULTOS AFRO BRAS    30031810 000188
10231987175000168817800093673    00009132                     000091320000000000000109                     I029132      30031800000000035003410000017N200218104700000000000103003180000000000000000000000000000000000000000100053768175715DAMIANA MARTINS DA SILVA                RUA ARABORI, 262                        ROCHA MIRAND21545120RIO DE JANEIRO RJUNIAO UMB DOS CULTOS AFRO BRAS    30031810 000189
10231987175000168817800093673    00009130                     000091300000000000000109                     I029130      30031800000000035003410000017N200218104700000000000103003180000000000000000000000000000000000000000200000000005873JOSE AUGUSTO COELHO DE MENEZES          ESTRADA DA BOIUNA, 2450 - JARDIM BOIUNA TAQUARA - JA22741970RIO DE JANEIRO RJUNIAO UMB DOS CULTOS AFRO BRAS    30031810 000190
10231987175000168817800093673    00009128                     000091280000000000000109                     I029128      30031800000000035003410000017N200218104700000000000103003180000000000000000000000000000000000000000200000000001219IOLANDA CUSTODIA DA ROSA                AV. EMBAIXADOR ABELARDO BUENO N 9 - VILABARRA DA TIJ22775040RIO DE JANEIRO RJUNIAO UMB DOS CULTOS AFRO BRAS    30031810 000191
10231987175000168817800093673    00009127                     000091270000000000000109                     I029127      30031800000000035003410000017N200218104700000000000103003180000000000000000000000000000000000000000200000000005089JORGE LUIS DAS NEVES OLIVEIRA           RUA FRANCISCO DE ALMEIDA LOTE 23 QUADRA SAO FRANCISC26350050NOVA IGUACU    RJUNIAO UMB DOS CULTOS AFRO BRAS    30031810 000192
10231987175000168817800093673    00009125                     000091250000000000000109                     I029125      30031800000000035003410000017N200218104700000000000103003180000000000000000000000000000000000000000100000000000133JORGE ALAN COSTA DE CASTRO              RUA: NICOLAU BARBOSA                    IPIRANGA    00000000BARRA DO PIRAI RJUNIAO UMB DOS CULTOS AFRO BRAS    30031810 000193
10231987175000168817800093673    00009122                     000091220000000000000109                     I029122      30031800000000035003410000017N200218104700000000000103003180000000000000000000000000000000000000000100080266592791ROSINEA DA SILVA CARDOSO                TRAVESSA GITAI, 190 CASA 3              COLONIA - JA22713566RIO DE JANEIRO RJUNIAO UMB DOS CULTOS AFRO BRAS    30031810 000194
10231987175000168817800093673    00009118                     000091180000000000000109                     I029118      30031800000000035003410000017N200218104700000000000103003180000000000000000000000000000000000000000200000000000896LENIR SILVA MAFRA                       RUA JOAO BARBALHO, 455                  QUINTINO BOC20740010RIO DE JANEIRO RJUNIAO UMB DOS CULTOS AFRO BRAS    30031810 000195
10231987175000168817800093673    00009117                     000091170000000000000109                     I029117      30031800000000035003410000017N200218104700000000000103003180000000000000000000000000000000000000000200000000000842IDINEIA RIBEIRO DE AZEVEDO              RUA MOZOLANDIA LOTE 27 QUADRA 105       GUARATIBA - 21660260RIO DE JANEIRO RJUNIAO UMB DOS CULTOS AFRO BRAS    30031810 000196
10231987175000168817800093673    00009112                     000091120000000000000109                     I029112      30031800000000035003410000017N200218104700000000000103003180000000000000000000000000000000000000000100004728238768MARIA JOSE ILARIO MANGUEIRA             ESTRADA DA AGUA BRANCA, 2160            REALENGO - R21730000RIO DE JANEIRO RJUNIAO UMB DOS CULTOS AFRO BRAS    30031810 000197
10231987175000168817800093673    00009108                     000091080000000000000109                     I029108      31031800000000350003410000017N200218104700000000000103103180000000000000000000000000000000000000000100082818002753ELIZA DOS SANTOS MATIAS MAIA            RUA J, LOTE 15 QUADRA 22 - CONJUNTO SANTINHOAIBA - R23062000RIO DE JANEIRO RJUNIAO UMB DOS CULTOS AFRO BRAS    31031810 000198
10231987175000168817800093673    00009107                     000091070000000000000109                     I029107      06031800000000420003410000017N200218104700000000000100603180000000000000000000000000000000000000000100082818002753ELIZA DOS SANTOS MATIAS MAIA            RUA J, LOTE 15 QUADRA 22 - CONJUNTO SANTINHOAIBA - R23062000RIO DE JANEIRO RJUNIAO UMB DOS CULTOS AFRO BRAS    06031810 000199
10231987175000168817800093673    00009095                     000090950000000000000109                     I029095      28021800000000035003410000017N020218104700000000000102802180000000000000000000000000000000000000000100002926668708ALCIONE CARVALHO DA COSTA               RUA: SAMPAIO CORREA Nº 113 CASA 7      JACAREPAGUA 22713560RIO DE JANEIRO RJUNIAO UMB DOS CULTOS AFRO BRAS    28021810 000200
10231987175000168817800093673    00009092                     000090920000000000000109                     I029092      28021800000000035003410000017N010218104700000000000102802180000000000000000000000000000000000000000100007128617779NEIDE TELES DO NASCIMENTO               RUA: ARACA Nº 541                      RICARDO DE A21620050RIO DE JANEIRO RJUNIAO UMB DOS CULTOS AFRO BRAS    28021810 000201
10231987175000168817800093673    00009070                     000090700000000000000109                     I029070      28021800000000035003410000017N290118104700000000000102802180000000000000000000000000000000000000000100058895780370ELZA MORAES DA SILVA                    RUA CARLOS PALUT N 892 BL 2 APT 102     TAQUARA - RJ22710310SAO JOAO DE MERRJUNIAO UMB DOS CULTOS AFRO BRAS    28021810 000202
10231987175000168817800093673    00009033                     000090330000000000000109                     I029033      28021800000000035003410000017N160118104700000000000102802180000000000000000000000000000000000000000100009424589743RONALDO DE JESUS ALVES JUNIOR           RUA: 32                                 JARDIM ATLAN20530420RIO DE JANEIRO RJUNIAO UMB DOS CULTOS AFRO BRAS    28021810 000203
10231987175000168817800093673    00009032                     000090320000000000000109                     I029032      28021800000000035003410000017N160118104700000000000102802180000000000000000000000000000000000000000100003018847733MARIA AILHA BERNARDO PINTO              RUA RUBIAO JUNIOR                       CENTRO      23860000MANGARATIBA    RJUNIAO UMB DOS CULTOS AFRO BRAS    28021810 000204
10231987175000168817800093673    00009031                     000090310000000000000109                     I029031      28021800000000035003410000017N160118104700000000000102802180000000000000000000000000000000000000000100012345678910LUCIANO GONCALVES DE SOUZA              RUA CLARIMUNDO DE MELO                  PIEDADE     20740323RIO DE JANEIRO RJUNIAO UMB DOS CULTOS AFRO BRAS    28021810 000205
10231987175000168817800093673    00009014                     000090140000000000000109                     I029014      28021800000000035003410000017N110118104700000000000102802180000000000000000000000000000000000000000100001162883707SUNEY MENEZES MACHADO                   ESTRADA: DO ENCANAMENTO                 BARBADO     23060000RIO DE JANEIRO RJUNIAO UMB DOS CULTOS AFRO BRAS    28021810 000206
10231987175000168817800093673    00009000                     000090000000000000000109                     I029000      28021800000000035003410000017N090118104700000000000102802180000000000000000000000000000000000000000100082396841734LUCIA DE FATIMA DE SOUZA                RUA: RESPLANDECER                       PARAISO     26297159NOVA IGUACU    RJUNIAO UMB DOS CULTOS AFRO BRAS    28021810 000207
10231987175000168817800093673    00008401                     000084010000000000000109                     I028401      28021800000000035003410000017N291217104700000000000102802180000000000000000000000000000000000000000100005953749724JUCIARA DA SILVA XAVIER                 RUA CONDE DE AZAMBUJA N 526             MARIA DA GRA20785342RIO DE JANEIRO RJUNIAO UMB DOS CULTOS AFRO BRAS    28021810 000208
10231987175000168817800093673    00008396                     000083960000000000000109                     I028396      28021800000000035003410000017N291217104700000000000102802180000000000000000000000000000000000000000100070645523704RICARDO DE SOUZA LIMA                   RUA MAJOR AZEVEDO 344                   IRAJA       21230060RIO DE JANEIRO RJUNIAO UMB DOS CULTOS AFRO BRAS    28021810 000209
10231987175000168817800093673    00008395                     000083950000000000000109                     I028395      28021800000000035003410000017N291217104700000000000102802180000000000000000000000000000000000000000100015110892709YASMIN FIALHO HANGES                    ESTRADA HENRIQUE DE MELO N 193 FUNDOS   BENTO RIBEIR21340190RIO DE JANEIRO RJUNIAO UMB DOS CULTOS AFRO BRAS    28021810 000210
10231987175000168817800093673    00008393                     000083930000000000000109                     I028393      28021800000000035003410000017N291217104700000000000102802180000000000000000000000000000000000000000100093788150734REGINA DA SILVA VERONEZI DOS S          RUA ABATE 105                           JARDIM CANAA26263040NOVA IGUACU    RJUNIAO UMB DOS CULTOS AFRO BRAS    28021810 000211
10231987175000168817800093673    00008390                     000083900000000000000109                     I028390      28021800000000035003410000017N291217104700000000000102802180000000000000000000000000000000000000000100000000001279ALESSANDRA REIS DOS SANTOS              RUA: MARIA TOMAZIA Nº 125 - FUNDOS     CABARAL - NI21321660RIO DE JANEIRO RJUNIAO UMB DOS CULTOS AFRO BRAS    28021810 000212
10231987175000168817800093673    00008389                     000083890000000000000109                     I028389      28021800000000035003410000017N291217104700000000000102802180000000000000000000000000000000000000000100007336257704NERALDO DA ROCHA JUNIOR                 RUA CARAMURU LOTE 36 QUADRA 4           PARADA ANGEL25271320DUQUE DE CAXIASRJUNIAO UMB DOS CULTOS AFRO BRAS    28021810 000213
10231987175000168817800093673    00008387                     000083870000000000000109                     I028387      28021800000000035003410000017N291217104700000000000102802180000000000000000000000000000000000000000100045544085749LUCIANO PORTO DE MORAES                 RUA OLIMPIO DE CARVALHO, 120            AMENDOEIRA -24732440SAO GONCALO    RJUNIAO UMB DOS CULTOS AFRO BRAS    28021810 000214
10231987175000168817800093673    00008386                     000083860000000000000109                     I028386      28021800000000035003410000017N291217104700000000000102802180000000000000000000000000000000000000000100091473209749CRISTOVAO JOSE DA SILVA MAGALH          RUA VICTORIO PEREIRA NUNES, 57          CASTELANEA -25640262PETROPOLIS     RJUNIAO UMB DOS CULTOS AFRO BRAS    28021810 000215
10231987175000168817800093673    00008383                     000083830000000000000109                     I028383      28021800000000035003410000017N291217104700000000000102802180000000000000000000000000000000000000000100090036018791SILVIA ELAINE GEVEGIR DA SILVA          RUA VINTE, QUADRA 305 LOTE 34           PARADA MORAB25265130DUQUE DE CAXIASRJUNIAO UMB DOS CULTOS AFRO BRAS    28021810 000216
10231987175000168817800093673    00008382                     000083820000000000000109                     I028382      28021800000000035003410000017N291217104700000000000102802180000000000000000000000000000000000000000100014653084742THEILOR MORAIS DE MIRANDA               RUA SAO BENEDITO, 25                    VILA GENI - 23826010ITAGUAI        RJUNIAO UMB DOS CULTOS AFRO BRAS    28021810 000217
10231987175000168817800093673    00008379                     000083790000000000000109                     I028379      28021800000000035003410000017N291217104700000000000102802180000000000000000000000000000000000000000100053606259769ROSILANE FRANCISCA DOS SANTOS           RUA ARTUR FARIAS N 252                  RIO DO DOURO25922184MAGE           RJUNIAO UMB DOS CULTOS AFRO BRAS    28021810 000218
10231987175000168817800093673    00008378                     000083780000000000000109                     I028378      28021800000000035003410000017N291217104700000000000102802180000000000000000000000000000000000000000100000355768712ANA CRISTINA VERISSIMO DA SILV          ESTRADA DO TINGUI  1990                 CAMPO GRANDE23075006RIO DE JANEIRO RJUNIAO UMB DOS CULTOS AFRO BRAS    28021810 000219
10231987175000168817800093673    00008372                     000083720000000000000109                     I028372      28021800000000035003410000017N291217104700000000000102802180000000000000000000000000000000000000000100084407883715MAURO FERREIRA MATHEUS                  ESTRADA DO ENGENHO, RUA CASTOR DE ANDRADPRACA PIQUER21370200BANGU          RJUNIAO UMB DOS CULTOS AFRO BRAS    28021810 000220
10231987175000168817800093673    00008370                     000083700000000000000109                     I028370      28021800000000035003410000017N291217104700000000000102802180000000000000000000000000000000000000000100003430627710PATRICIA DA SILVA VASCONCELOS           RUA TAPUTERA N 140 FUNDOS               BARAO DE IRI25906780MAGE           RJUNIAO UMB DOS CULTOS AFRO BRAS    28021810 000221
10231987175000168817800093673    00008364                     000083640000000000000109                     I028364      28021800000000035003410000017N291217104700000000000102802180000000000000000000000000000000000000000100000200790790LUIS JORGE MOCO                         RUA: ECA DE QUEIROS LOTE 74 QUADRA 7    PANTANAL - D25040350DUQUE DE CAXIASRJUNIAO UMB DOS CULTOS AFRO BRAS    28021810 000222
10231987175000168817800093673    00008363                     000083630000000000000109                     I028363      28021800000000035003410000017N291217104700000000000102802180000000000000000000000000000000000000000100005953253605MILTON COELHO DO NASCIMENTO JU          RUA BEZERRA DE MENEZES N 73 APT 102     VAZ LOBO - R21361000RIO DE JANEIRO RJUNIAO UMB DOS CULTOS AFRO BRAS    28021810 000223
10231987175000168817800093673    00008362                     000083620000000000000109                     I028362      28021800000000035003410000017N291217104700000000000102802180000000000000000000000000000000000000000100000000001251GUILHERME SANTOS LINHARES               RUA ROUGET LISLE SN CASA 21 LOTE 29 52  PANTANAL - D25040360DUQUE DE CAXIASRJUNIAO UMB DOS CULTOS AFRO BRAS    28021810 000224
10231987175000168817800093673    00008361                     000083610000000000000109                     I028361      28021800000000035003410000017N291217104700000000000102802180000000000000000000000000000000000000000100010368667774SUZANA PEREIRA MOIZINHO                 RUA CONCEICAO DA PEDRA N 77             ARNALDO EUGE23016330CAMPO GRANDE   RJUNIAO UMB DOS CULTOS AFRO BRAS    28021810 000225
10231987175000168817800093673    00008360                     000083600000000000000109                     I028360      28021800000000035003410000017N291217104700000000000102802180000000000000000000000000000000000000000100000937144754EGLEA MARIA DE JESUS ROCHA DE           RUA MARIO GARCIA LOTE 7 QUADRA 60       VILA SANTO A25040370DUQUE DE CAXIASRJUNIAO UMB DOS CULTOS AFRO BRAS    28021810 000226
10231987175000168817800093673    00008359                     000083590000000000000109                     I028359      28021800000000035003410000017N291217104700000000000102802180000000000000000000000000000000000000000100049490087734DIRCE MARA DE OLIVEIRA PAULA            RUA OTILIO LIMA LOTE 2 QUADRA 130       SANTA LUZIA 24721490SAO GONCALO    RJUNIAO UMB DOS CULTOS AFRO BRAS    28021810 000227
10231987175000168817800093673    00008358                     000083580000000000000109                     I028358      28021800000000035003410000017N291217104700000000000102802180000000000000000000000000000000000000000100002578661758ANA MARIA BATISTA DA SILVA              RUA SIMOES DE SOUZA SN LOTE 13 QUADRA 20JARDIM PRIMA25223520DUQUE DE CAXIASRJUNIAO UMB DOS CULTOS AFRO BRAS    28021810 000228
10231987175000168817800093673    00008357                     000083570000000000000109                     I028357      28021800000000035003410000017N291217104700000000000102802180000000000000000000000000000000000000000100011341119750ELAINE BARBOSA DOS SANTOS               ESTRADA DO BARRO VERMELHO N 784         ROCHA MIRAND21540500RIO DE JANEIRO RJUNIAO UMB DOS CULTOS AFRO BRAS    28021810 000229
10231987175000168817800093673    00008356                     000083560000000000000109                     I028356      28021800000000035003410000017N291217104700000000000102802180000000000000000000000000000000000000000100010619254718MARIA TEREZA ANDRADE DOS SANTO          RUA: DOUTOR MANUEL LUIZ N 621           VALVERDE - N26291003NOVA IGUACU    RJUNIAO UMB DOS CULTOS AFRO BRAS    28021810 000230
10231987175000168817800093673    00008354                     000083540000000000000109                     I028354      28021800000000035003410000017N291217104700000000000102802180000000000000000000000000000000000000000100078790344715ROSANE ESTEVES DOS SANTOS               RUA 49 LOTE 12 QUADRA 107               JARDIM DA PA25010730DUQUE DE CAXIASRJUNIAO UMB DOS CULTOS AFRO BRAS    28021810 000231
10231987175000168817800093673    00008353                     000083530000000000000109                     I028353      28021800000000035003410000017N291217104700000000000102802180000000000000000000000000000000000000000100001236998782ELIANE CASEMIRO GOMES BARBOSA           RUA BARONESA, 175 CASA 17               PRACA SECA -21321000RIO DE JANEIRO RJUNIAO UMB DOS CULTOS AFRO BRAS    28021810 000232
10231987175000168817800093673    00008352                     000083520000000000000109                     I028352      28021800000000035003410000017N291217104700000000000102802180000000000000000000000000000000000000000100059744510749ANGELA REGINA ROSA DE SA                RUA SUEZ, 174 - KM 35                   BOM JESUS - 26298180NOVA IGUACU    RJUNIAO UMB DOS CULTOS AFRO BRAS    28021810 000233
10231987175000168817800093673    00008350                     000083500000000000000109                     I028350      28021800000000035003410000017N291217104700000000000102802180000000000000000000000000000000000000000100015137144738RAFAEL NUNES ALVES SALSA                RUA PUIPE, 123                          BENTO RIBEIR21550420RIO DE JANEIRO RJUNIAO UMB DOS CULTOS AFRO BRAS    28021810 000234
10231987175000168817800093673    00008344                     000083440000000000000109                     I028344      28021800000000035003410000017N291217104700000000000102802180000000000000000000000000000000000000000100050600567753MARIA JOSE DA SILVA                     RUA JULIETA, 7 APTO 201                 PIEDADE - RI20751440RIO DE JANEIRO RJUNIAO UMB DOS CULTOS AFRO BRAS    28021810 000235
10231987175000168817800093673    00008341                     000083410000000000000109                     I028341      28021800000000035003410000017N291217104700000000000102802180000000000000000000000000000000000000000100007730416727ALESSANDRA REGINA DOS ANJOS             RUA NEVES, 119                          PARQUE TIETE25585380SAO JOAO DE MERRJUNIAO UMB DOS CULTOS AFRO BRAS    28021810 000236
10231987175000168817800093673    00008339                     000083390000000000000109                     I028339      28021800000000035003410000017N291217104700000000000102802180000000000000000000000000000000000000000100091323762787MARIA ISABEL DE ALBUQUERQUE PI          RUA MANAPA, 159                         VALVERDE - N26290639NOVA IGUACU    RJUNIAO UMB DOS CULTOS AFRO BRAS    28021810 000237
10231987175000168817800093673    00008338                     000083380000000000000109                     I028338      28021800000000035003410000017N291217104700000000000102802180000000000000000000000000000000000000000100005368533713DIVALCI COELHO REINALDO                 RUA CEVADA, 17                          PANTANAL    26297108NOVA IGUACU    RJUNIAO UMB DOS CULTOS AFRO BRAS    28021810 000238
10231987175000168817800093673    00008337                     000083370000000000000109                     I028337      28021800000000035003410000017N291217104700000000000102802180000000000000000000000000000000000000000100010093629761DANIELLE DO NASCIMENTO NICACIO          ESTRADA DA GRANJA, 100 FRENTE           PALHADA - NO26290249NOVA IGUACU    RJUNIAO UMB DOS CULTOS AFRO BRAS    28021810 000239
10231987175000168817800093673    00008333                     000083330000000000000109                     I028333      28021800000000035003410000017N291217104700000000000102802180000000000000000000000000000000000000000100008448034724CLAUDIA DA SILVA SANTANA                RUA SANTA LUZIA, 115                    NOVA ERA - N26265560NOVA IGUACU    RJUNIAO UMB DOS CULTOS AFRO BRAS    28021810 000240
10231987175000168817800093673    00008332                     000083320000000000000109                     I028332      28021800000000035003410000017N291217104700000000000102802180000000000000000000000000000000000000000100066859123915ROBERTO ALVES DO NASCIMENTO             RUA MARECHAL DEODORO, 499               CENTRO - PAR23970000PARATY         RJUNIAO UMB DOS CULTOS AFRO BRAS    28021810 000241
10231987175000168817800093673    00008331                     000083310000000000000109                     I028331      28021800000000035003410000017N291217104700000000000102802180000000000000000000000000000000000000000100061178543749ROSILDA ALVES DA COSTA                  RUA CUBA CASA 582                       PENHA CIRCUL21200160RIO DE JANEIRO RJUNIAO UMB DOS CULTOS AFRO BRAS    28021810 000242
10231987175000168817800093673    00008330                     000083300000000000000109                     I028330      28021800000000035003410000017N291217104700000000000102802180000000000000000000000000000000000000000100097402508749MARIA DE OLIVEIRA SOUZA SAMPAI          RUA PROJETADA A, 47                     JARDIM NOVA 25000000DUQUE DE CAXIASRJUNIAO UMB DOS CULTOS AFRO BRAS    28021810 000243
10231987175000168817800093673    00008328                     000083280000000000000109                     I028328      28021800000000035003410000017N291217104700000000000102802180000000000000000000000000000000000000000100071926305787PEDRO PAULO DE ARAUJO MALHEIRO          RUA RAFAEL BORDALO, 31                  GUARATIBA - 23032590RIO DE JANEIRO RJUNIAO UMB DOS CULTOS AFRO BRAS    28021810 000244
10231987175000168817800093673    00008324                     000083240000000000000109                     I028324      28021800000000035003410000017N291217104700000000000102802180000000000000000000000000000000000000000100004788683750CARLA APARECIDA DA ROCHA RITA           RUA GENERAL SILVEIRA SOBRINHO, 245 APTO VILA DA PENH21221290RIO DE JANEIRO RJUNIAO UMB DOS CULTOS AFRO BRAS    28021810 000245
10231987175000168817800093673    00008323                     000083230000000000000109                     I028323      28021800000000035003410000017N291217104700000000000102802180000000000000000000000000000000000000000100001377431738CARLOS HENRIQUE DOS SANTOS DE           RUA ALVARES CABRAL, 361 CASA 1          CACHAMBI - R20780320RIO DE JANEIRO RJUNIAO UMB DOS CULTOS AFRO BRAS    28021810 000246
10231987175000168817800093673    00008319                     000083190000000000000109                     I028319      28021800000000035003410000017N291217104700000000000102802180000000000000000000000000000000000000000100053542886734MARIA LUCIA SOARES PONCE                RUA PIRACANJUBA                         VILA KOSMOS 21220240RIO DE JANEIRO RJUNIAO UMB DOS CULTOS AFRO BRAS    28021810 000247
10231987175000168817800093673    00008318                     000083180000000000000109                     I028318      28021800000000035003410000017N291217104700000000000102802180000000000000000000000000000000000000000100003210312414MARCELINA DA SILVA COSTA                RUA ALARICO DE SOUZA                    ATALAIA     24315000NITEROI        RJUNIAO UMB DOS CULTOS AFRO BRAS    28021810 000248
10231987175000168817800093673    00008316                     000083160000000000000109                     I028316      28021800000000035003410000017N291217104700000000000102802180000000000000000000000000000000000000000100003611090751ANDREA DA COSTA FERREIRA                RUA CORONEL FRANCA LEITE, 657           EDSON PASSOS26585020MESQUITA       RJUNIAO UMB DOS CULTOS AFRO BRAS    28021810 000249
