01REMESSA01COBRANCA       916200163100        União Umb dos Cultos Afro Bra341BANCO ITAU SA  290719                                                                                                                                                                                                                                                                                                      000001
10231987175000168916200163100    000050000                    000500000000000000000109                     I0150000     30091900000000040003410000017N290719105700000000000133009190000000000000000000000000000000000000000100012590522738WALESKA GOMES DOS ANJOS                 ESTRADA COMANDANTE LUIZ SOUTON 0,       TANQUE      22733040RIO DE JANEIRO RJUNIAO UMB DOS CULTOS AFRO BRAS    30091915 000002
21300920190000000000080                                                                                                                                                                                                                                                                                                                                                                                   000003
10231987175000168916200163100    000049999                    000499990000000000000109                     I0149999     30081900000000040003410000017N290719105700000000000133008190000000000000000000000000000000000000000100012590522738WALESKA GOMES DOS ANJOS                 ESTRADA COMANDANTE LUIZ SOUTON 0,       TANQUE      22733040RIO DE JANEIRO RJUNIAO UMB DOS CULTOS AFRO BRAS    30081915 000004
21300820190000000000080                                                                                                                                                                                                                                                                                                                                                                                   000005
10231987175000168916200163100    000049994                    000499940000000000000109                     I0249994     30091900000000040003410000017N290719105700000000000133009190000000000000000000000000000000000000000100012590522738WALESKA GOMES DOS ANJOS                 ESTRADA COMANDANTE LUIZ SOUTON 0,       TANQUE      22733040RIO DE JANEIRO RJUNIAO UMB DOS CULTOS AFRO BRAS    30091915 000006
21300920190000000000080                                                                                                                                                                                                                                                                                                                                                                                   000007
10231987175000168916200163100    000049993                    000499930000000000000109                     I0249993     30081900000000040003410000017N290719105700000000000133008190000000000000000000000000000000000000000100012590522738WALESKA GOMES DOS ANJOS                 ESTRADA COMANDANTE LUIZ SOUTON 0,       TANQUE      22733040RIO DE JANEIRO RJUNIAO UMB DOS CULTOS AFRO BRAS    30081915 000008
21300820190000000000080                                                                                                                                                                                                                                                                                                                                                                                   000009
9                                                                                                                                                                                                                                                                                                                                                                                                         000010
