01REMESSA01COBRANCA       817800093673        União Umb dos Cultos Afro Bra341BANCO ITAU SA  010818                                                                                                                                                                                                                                                                                                      000001
10231987175000168817800093673    000021354                    000213540000000000000109                     I0121354     30081800000000140003410000017N010818104700000000000103008180000000000000000000000000000000000000000100030400942895CLAUDIA REIS SANTOS ARAUJO              RUA: LUIS PASQUALLE NETO                SAO JOAO CLI04241030SAO PAULO      SPUNIAO UMB DOS CULTOS AFRO BRAS    30081810 000002
10231987175000168817800093673    000021353                    000213530000000000000109                     I0121353     30081800000000040003410000017N010818104700000000000103008180000000000000000000000000000000000000000100007368804708CARLOS HENRIQUE DE OLIVEIRA             RUA: SESSENTA E TRES                    CAMPO GRANDE23097240RIO DE JANEIRO RJUNIAO UMB DOS CULTOS AFRO BRAS    30081810 000003
10231987175000168817800093673    000021352                    000213520000000000000109                     I0121352     30081800000000035003410000017N010818104700000000000103008180000000000000000000000000000000000000000100000617310726JOSE HENRIQUE PEREIRA DO NASCI          RUA: ZELINHO DE SOUZA                   CHACARA RIO 25230484DUQUE DE CAXIASRJUNIAO UMB DOS CULTOS AFRO BRAS    30081810 000004
10231987175000168817800093673    000021351                    000213510000000000000109                     I0121351     02081800000000350003410000017N010818104700000000000100208180000000000000000000000000000000000000000100065096100782TANIA REGINA FIRMINO                    RUA TREZE DE MAIO 7                     VILA OPERARI25080410DUQUE DE CAXIASRJUNIAO UMB DOS CULTOS AFRO BRAS    02081810 000005
10231987175000168817800093673    000021350                    000213500000000000000109                     I0121350     30081800000000040003410000017N310718104700000000000103008180000000000000000000000000000000000000000100014328358740SILAS BARBOSA DE SOUZA                  ESTRADA: REAL DE MAUA                   JARDIM DA PA25900684RIO DE JANEIRO RJUNIAO UMB DOS CULTOS AFRO BRAS    30081810 000006
10231987175000168817800093673    000021349                    000213490000000000000109                     I0121349     20081800000000280003410000017N310718104700000000000102008180000000000000000000000000000000000000000100076744515772GELSON CORREA DE CARVALHO               RUA MANOEL MACHADO N 77                 VAZ LOBO - R21361090RIO DE JANEIRO RJUNIAO UMB DOS CULTOS AFRO BRAS    20081810 000007
10231987175000168817800093673    000021348                    000213480000000000000109                     I0121348     10081800000000836013410000017N300718104700000000000101008180000000000000000000000000000000000000000100099608421420NEHILTON ANTONIO DOS SANTOS             RUA: ALCIDES MAIA                       BENTO RIBEIR21550560RIO DE JANEIRO RJUNIAO UMB DOS CULTOS AFRO BRAS    10081810 000008
10231987175000168817800093673    000021347                    000213470000000000000109                     I0121347     10081800000000833513410000017N300718104700000000000101008180000000000000000000000000000000000000000100013946879772ALDENI ALBENORA DA SILVA                RUA: JOAO DANIEL                        BENTO RIBEIR21550480RIO DE JANEIRO RJUNIAO UMB DOS CULTOS AFRO BRAS    10081810 000009
10231987175000168817800093673    000021346                    000213460000000000000109                     I0121346     10081800000000893353410000017N300718104700000000000101008180000000000000000000000000000000000000000100049547410768ROSELI DE SAO JOSE MOREIRA              RUA: ALCIDES MAIA                       BENTO RIBEIR21550560RIO DE JANEIRO RJUNIAO UMB DOS CULTOS AFRO BRAS    10081810 000010
10231987175000168817800093673    000021345                    000213450000000000000109                     I0121345     10081800000000750813410000017N300718104700000000000101008180000000000000000000000000000000000000000100000424410755ANA PAULA SILVA BARBOSA                 RUA: ALCIDES MAIA                       BENTO RIBEIR21550560RIO DE JANEIRO RJUNIAO UMB DOS CULTOS AFRO BRAS    10081810 000011
10231987175000168817800093673    000021344                    000213440000000000000109                     I0121344     10081800000000577513410000017N300718104700000000000101008180000000000000000000000000000000000000000100007854516766NATALIE SILVA DE LIMA                   RUA: JOAO DANIEL                        BENTO RIBEIR21550480RIO DE JANEIRO RJUNIAO UMB DOS CULTOS AFRO BRAS    10081810 000012
10231987175000168817800093673    000021343                    000213430000000000000109                     I0121343     10081800000000736013410000017N300718104700000000000101008180000000000000000000000000000000000000000100001061174751SAMUEL ANTONIO TRINDADE                 RUA: ALCIDES MAIA                       BENTO RIBEIR21550560RIO DE JANEIRO RJUNIAO UMB DOS CULTOS AFRO BRAS    10081810 000013
10231987175000168817800093673    000021342                    000213420000000000000109                     I0121342     10081800000000768513410000017N300718104700000000000101008180000000000000000000000000000000000000000100082228507768IARA LUCIA RIBEIRO QUINTINO             RUA: JOAO DANIEL                        BENTO RIBEIR21550480RIO DE JANEIRO RJUNIAO UMB DOS CULTOS AFRO BRAS    10081810 000014
10231987175000168817800093673    000021341                    000213410000000000000109                     I0121341     10081800000000300983410000017N300718104700000000000101008180000000000000000000000000000000000000000100068760680725ANNA LUCIA DE SOUZA                     RUA: JOAO DANIEL                        BENTO RIBEIR21550480RIO DE JANEIRO RJUNIAO UMB DOS CULTOS AFRO BRAS    10081810 000015
10231987175000168817800093673    000021340                    000213400000000000000109                     I0121340     10081800000000598513410000017N300718104700000000000101008180000000000000000000000000000000000000000100078566738772MARINA SOARES DA SILVA                  RUA: JOAO DANIEL                        BENTO RIBEIR21550480RIO DE JANEIRO RJUNIAO UMB DOS CULTOS AFRO BRAS    10081810 000016
10231987175000168817800093673    000021339                    000213390000000000000109                     I0121339     10081800000000420983410000017N300718104700000000000101008180000000000000000000000000000000000000000100068760680725ANNA LUCIA DE SOUZA                     RUA: JOAO DANIEL                        BENTO RIBEIR21550480RIO DE JANEIRO RJUNIAO UMB DOS CULTOS AFRO BRAS    10081810 000017
10231987175000168817800093673    000021338                    000213380000000000000109                     I0121338     10081800000000533513410000017N300718104700000000000101008180000000000000000000000000000000000000000100093728467791ALEX DE SOUZA MARTINS                   RUA: JOAO DANIEL                        BENTO RIBEIR21550480RIO DE JANEIRO RJUNIAO UMB DOS CULTOS AFRO BRAS    10081810 000018
10231987175000168817800093673    000021337                    000213370000000000000109                     I0121337     10081800000001200003410000017N300718104700000000000101008180000000000000000000000000000000000000000100012701486726MARIANA MAGALHAES DE C. J. I.           RUA: SALOMAO FILHO                      MARECHAL HER21331660RIO DE JANEIRO RJUNIAO UMB DOS CULTOS AFRO BRAS    10081810 000019
10231987175000168817800093673    000021336                    000213360000000000000109                     I0121336     10081800000000175003410000017N300718104700000000000101008180000000000000000000000000000000000000000100015295681700MICHEL FERNANDES BASTOS CRESPO          RUA ROSANGELA TOSTES LOTE 8 QD 21       PARQUE FLUMI26185260BELFORD ROXO   RJUNIAO UMB DOS CULTOS AFRO BRAS    10081810 000020
10231987175000168817800093673    000021335                    000213350000000000000109                     I0121335     30081800000000040003410000017N300718104700000000000103008180000000000000000000000000000000000000000100099099616449JANAINA BORGES DA SILVA                 RUA: PAULO JOSE MAHFUD                  VARGEM PEQUE22783395RIO DE JANEIRO RJUNIAO UMB DOS CULTOS AFRO BRAS    30081810 000021
10231987175000168817800093673    000021334                    000213340000000000000109                     I0121334     23081800000000400003410000017N300718104700000000000102308180000000000000000000000000000000000000000100000000008355THIAGO RODRIGUES DA SILVA MOUR          O MESMO                                 O MESMO     00000000MAGE /         RJUNIAO UMB DOS CULTOS AFRO BRAS    23081810 000022
10231987175000168817800093673    000021333                    000213330000000000000109                     I0121333     30081800000000035003410000017N290718104700000000000103008180000000000000000000000000000000000000000100092650716720ANDRE LUIS ALMEIDA SOUZA                RUA CAIMIRIM                            SANTA TEREZI26555050BELFORD ROXO   RJUNIAO UMB DOS CULTOS AFRO BRAS    30081810 000023
10231987175000168817800093673    000021332                    000213320000000000000109                     I0121332     20081800000000280003410000017N290718104700000000000102008180000000000000000000000000000000000000000100006935690773ELAINE DA COSTA MARTINS                 O MESMO                                 O MESMO     25220407DUQUE DE CAXIASRJUNIAO UMB DOS CULTOS AFRO BRAS    20081810 000024
10231987175000168817800093673    000021165                    000211650000000000000109                     I0221165     30061800000000105003410000017N070618104700000000000103006180000000000000000000000000000000000000000200000000002796ANA MARIA ROQUE DA SILVA                RUA EUCLIDES ROXO N 185                 REALENGO - R21765590RIO DE JANEIRO RJUNIAO UMB DOS CULTOS AFRO BRAS    30061810 000025
10231987175000168817800093673    000013802                    000138020000000000000109                     I3413802     30051800000000035003410000017N200218104700000000000103005180000000000000000000000000000000000000000100068373570772RONILCE CAMILO DA SILVA                 RUA RUBY ALBERTORIA N 2 - GERENCIANO    GERENCIANO -26061155NOVA IGUACU    RJUNIAO UMB DOS CULTOS AFRO BRAS    30051810 000026
9                                                                                                                                                                                                                                                                                                                                                                                                         000027
