01REMESSA01COBRANCA       916200163100        União Umb dos Cultos Afro Bra341BANCO ITAU SA  010219                                                                                                                                                                                                                                                                                                      000001
10231987175000168916200163100    000039710                    000397100000000000000109                     I0139710     31031900000000040003410000017N010219104700000000000103103190000000000000000000000000000000000000000100054222141704WALMIR CARVALHO GUIMARAES               RUA BOA VIAGEM                          IPIRANGA    26293591NOVA IGUACU    RJUNIAO UMB DOS CULTOS AFRO BRAS    31031910 000002
10231987175000168916200163100    000039709                    000397090000000000000109                     I0139709     28021900000000040003410000017N010219104700000000000102802190000000000000000000000000000000000000000100054222141704WALMIR CARVALHO GUIMARAES               RUA BOA VIAGEM                          IPIRANGA    26293591NOVA IGUACU    RJUNIAO UMB DOS CULTOS AFRO BRAS    28021910 000003
10231987175000168916200163100    000039708                    000397080000000000000109                     I0139708     29031900000000040003410000017N010219104700000000000102903190000000000000000000000000000000000000000100005541292727CAROLINA DA SILVA CARDOSO               RUA MONODORA                            GARDENIA AZU22765590RIO DE JANEIRO RJUNIAO UMB DOS CULTOS AFRO BRAS    29031910 000004
10231987175000168916200163100    000039707                    000397070000000000000109                     I0139707     28021900000000040003410000017N010219104700000000000102802190000000000000000000000000000000000000000100005541292727CAROLINA DA SILVA CARDOSO               RUA MONODORA                            GARDENIA AZU22765590RIO DE JANEIRO RJUNIAO UMB DOS CULTOS AFRO BRAS    28021910 000005
10231987175000168916200163100    000039706                    000397060000000000000109                     I0139706     08021900000000040003410000017N010219104700000000000100802190000000000000000000000000000000000000000100005541292727CAROLINA DA SILVA CARDOSO               RUA MONODORA                            GARDENIA AZU22765590RIO DE JANEIRO RJUNIAO UMB DOS CULTOS AFRO BRAS    08021910 000006
10231987175000168916200163100    000039705                    000397050000000000000109                     I0139705     29031900000000040003410000017N010219104700000000000102903190000000000000000000000000000000000000000100001568681720MARCO ANTONIO DA COSTA                  RUA LOIR NOGUEIRA                       RIO DO OURO 24752840SAO GONCALO    RJUNIAO UMB DOS CULTOS AFRO BRAS    29031910 000007
10231987175000168916200163100    000039704                    000397040000000000000109                     I0139704     28021900000000040003410000017N010219104700000000000102802190000000000000000000000000000000000000000100001568681720MARCO ANTONIO DA COSTA                  RUA LOIR NOGUEIRA                       RIO DO OURO 24752840SAO GONCALO    RJUNIAO UMB DOS CULTOS AFRO BRAS    28021910 000008
10231987175000168916200163100    000039703                    000397030000000000000109                     I0139703     08021900000000040003410000017N010219104700000000000100802190000000000000000000000000000000000000000100001568681720MARCO ANTONIO DA COSTA                  RUA LOIR NOGUEIRA                       RIO DO OURO 24752840SAO GONCALO    RJUNIAO UMB DOS CULTOS AFRO BRAS    08021910 000009
10231987175000168916200163100    000039702                    000397020000000000000109                     I0139702     07021900000000040003410000017N010219104700000000000100702190000000000000000000000000000000000000000100003134182769SANDRA HELENA DA SILVA                  RUA MARIA MACHADO PANZA                 PACHECO     24732200SAO GONCALO    RJUNIAO UMB DOS CULTOS AFRO BRAS    07021910 000010
9                                                                                                                                                                                                                                                                                                                                                                                                         000011
