01REMESSA01COBRANCA       916200163100        União Umb dos Cultos Afro Bra341BANCO ITAU SA  060819                                                                                                                                                                                                                                                                                                      000001
10231987175000168916200163100    000049883                    000498830000000000000109                     I0249883     30091900000000040003410000017N050719105700000000000133009190000000000000000000000000000000000000000100066198402720JORGE LUCIO                             AVENIDA DOS ITALIANOS N 936, BLOCO A   AROCHA MIRAND21510104RIO DE JANEIRO RJUNIAO UMB DOS CULTOS AFRO BRAS    30091915 000002
21300920190000000000080                                                                                                                                                                                                                                                                                                                                                                                   000003
10231987175000168916200163100    000049882                    000498820000000000000109                     I0249882     30081900000000040003410000017N050719105700000000000133008190000000000000000000000000000000000000000100066198402720JORGE LUCIO                             AVENIDA DOS ITALIANOS N 936, BLOCO A   AROCHA MIRAND21510104RIO DE JANEIRO RJUNIAO UMB DOS CULTOS AFRO BRAS    30081915 000004
21300820190000000000080                                                                                                                                                                                                                                                                                                                                                                                   000005
10231987175000168916200163100    000044490                    000444900000000000000109                     I0244490     30061900000000040003410000017N130319105700000000000133006190000000000000000000000000000000000000000100053211839704ALCIONE SOUZA DOS SANTOS                RUA MARINO FELIXN 26,                   SEPETIBA    23535006RIO DE JANEIRO RJUNIAO UMB DOS CULTOS AFRO BRAS    30061915 000006
21300620190000000000080                                                                                                                                                                                                                                                                                                                                                                                   000007
10231987175000168916200163100    000043816                    000438160000000000000109                     I0243816     30061900000000040003410000017N130319105700000000000133006190000000000000000000000000000000000000000100000692299700JORGE LUIZ LIMA BASTOS                  RUA PLANALTINAN 71,                     REALENGO    21760160RIO DE JANEIRO RJUNIAO UMB DOS CULTOS AFRO BRAS    30061915 000008
21300620190000000000080                                                                                                                                                                                                                                                                                                                                                                                   000009
10231987175000168916200163100    000043514                    000435140000000000000109                     I0243514     30061900000000040003410000017N130319105700000000000133006190000000000000000000000000000000000000000100083441271734NAELSON MAGALHAES DE AVELLAR            RUA ONZEN 0,  LOTE 1 CASA 1 - GUANDU I  SANTA CRUZ  23560868RIO DE JANEIRO RJUNIAO UMB DOS CULTOS AFRO BRAS    30061915 000010
21300620190000000000080                                                                                                                                                                                                                                                                                                                                                                                   000011
10231987175000168916200163100    000043238                    000432380000000000000109                     I0243238     30061900000000040003410000017N130319105700000000000133006190000000000000000000000000000000000000000100066198402720JORGE LUCIO                             AVENIDA DOS ITALIANOS N 936, BLOCO A   AROCHA MIRAND21510104RIO DE JANEIRO RJUNIAO UMB DOS CULTOS AFRO BRAS    30061915 000012
21300620190000000000080                                                                                                                                                                                                                                                                                                                                                                                   000013
9                                                                                                                                                                                                                                                                                                                                                                                                         000014
