01REMESSA01COBRANCA       916200163100        União Umb dos Cultos Afro Bra341BANCO ITAU SA  250619                                                                                                                                                                                                                                                                                                      000001
10231987175000168916200163100    000049793                    000497930000000000000109                     I0149793     20071900000000300003410000017N250619105700000000000992007190000000000000000000000000000000000000000100003688384474MANOEL REGIANO DUARTE DA SILVA          RUA: HONORIO DE LIMAN 99,               BREJO DOS SA58880000NOVA OLINDA    PRUNIAO UMB DOS CULTOS AFRO BRAS    20071915 000002
21200720190000000000600                                                                                                                                                                                                                                                                                                                                                                                   000003
10231987175000168916200163100    000049792                    000497920000000000000109                     I0149792     30091900000000040003410000017N250619105700000000000133009190000000000000000000000000000000000000000100012343898782SUELY SOUZA DE JESUS                    RUA CARLOTAN 285, NOVA BRASILIA         VILA OMEGA  26053350NOVA IGUACU    RJUNIAO UMB DOS CULTOS AFRO BRAS    30091915 000004
21300920190000000000080                                                                                                                                                                                                                                                                                                                                                                                   000005
10231987175000168916200163100    000049791                    000497910000000000000109                     I0149791     30081900000000040003410000017N250619105700000000000133008190000000000000000000000000000000000000000100012343898782SUELY SOUZA DE JESUS                    RUA CARLOTAN 285, NOVA BRASILIA         VILA OMEGA  26053350NOVA IGUACU    RJUNIAO UMB DOS CULTOS AFRO BRAS    30081915 000006
21300820190000000000080                                                                                                                                                                                                                                                                                                                                                                                   000007
10231987175000168916200163100    000049790                    000497900000000000000109                     I0149790     30071900000000040003410000017N250619105700000000000133007190000000000000000000000000000000000000000100012343898782SUELY SOUZA DE JESUS                    RUA CARLOTAN 285, NOVA BRASILIA         VILA OMEGA  26053350NOVA IGUACU    RJUNIAO UMB DOS CULTOS AFRO BRAS    30071915 000008
21300720190000000000080                                                                                                                                                                                                                                                                                                                                                                                   000009
10231987175000168916200163100    000045136                    000451360000000000000109                     I0245136     31051900000000300003410000017N260419105700000000000993105190000000000000000000000000000000000000000100003688384474MANOEL REGIANO DUARTE DA SILVA          RUA: HONORIO DE LIMAN 99,               BREJO DOS SA58880000NOVA OLINDA    PRUNIAO UMB DOS CULTOS AFRO BRAS    31051915 000010
21310520190000000000600                                                                                                                                                                                                                                                                                                                                                                                   000011
10231987175000168916200163100    000044151                    000441510000000000000109                     I0244151     30061900000000040003410000017N130319105700000000000133006190000000000000000000000000000000000000000100062642049787ROSALIA FERREIRA DA SILVA               RUA CLARIMUNDO DE MELON 680,            PIEDADE     21311300RIO DE JANEIRO RJUNIAO UMB DOS CULTOS AFRO BRAS    30061915 000012
21300620190000000000080                                                                                                                                                                                                                                                                                                                                                                                   000013
10231987175000168916200163100    000042505                    000425050000000000000109                     I0242505     30051900000000040003410000017N130319105700000000000133005190000000000000000000000000000000000000000100062642049787ROSALIA FERREIRA DA SILVA               RUA CLARIMUNDO DE MELON 680,            PIEDADE     21311300RIO DE JANEIRO RJUNIAO UMB DOS CULTOS AFRO BRAS    30051915 000014
21300520190000000000080                                                                                                                                                                                                                                                                                                                                                                                   000015
10231987175000168916200163100    000040868                    000408680000000000000109                     I0240868     30041900000000040003410000017N120319105700000000000133004190000000000000000000000000000000000000000100062642049787ROSALIA FERREIRA DA SILVA               RUA CLARIMUNDO DE MELON 680,            PIEDADE     21311300RIO DE JANEIRO RJUNIAO UMB DOS CULTOS AFRO BRAS    30041915 000016
21300420190000000000080                                                                                                                                                                                                                                                                                                                                                                                   000017
9                                                                                                                                                                                                                                                                                                                                                                                                         000018
