01REMESSA01COBRANCA       817800093673        União Umb dos Cultos Afro Bra341BANCO ITAU SA  040718                                                                                                                                                                                                                                                                                                      000001
10231987175000168817800093673    000021249                    000212490000000000000109                     I0121249     20071800000000070003410000017N290618104700000000000102007180000000000000000000000000000000000000000100031709294749ELIETE DE OLIVEIRA FONSECA              ESTRADA DO MAGARCA, 1137 FUNDOS         GUARATIBA - 23035380RIO DE JANEIRO RJUNIAO UMB DOS CULTOS AFRO BRAS    20071810 000002
10231987175000168817800093673    000021248                    000212480000000000000109                     I0221248     20071800000000035003410000017N290618104700000000000102007180000000000000000000000000000000000000000100031709294749ELIETE DE OLIVEIRA FONSECA              ESTRADA DO MAGARCA, 1137 FUNDOS         GUARATIBA - 23035380RIO DE JANEIRO RJUNIAO UMB DOS CULTOS AFRO BRAS    20071810 000003
10231987175000168817800093673    000021247                    000212470000000000000109                     I0121247     30081800000000040003410000017N290618104700000000000103008180000000000000000000000000000000000000000100010440702771AMANDA APARECIDA AZEVEDO CARDO          RUA: IVONETE                            CONJUNTO SAN00000000RIO DE JANEIRO RJUNIAO UMB DOS CULTOS AFRO BRAS    30081810 000004
10231987175000168817800093673    000021246                    000212460000000000000109                     I0221246     30081800000000040003410000017N290618104700000000000103008180000000000000000000000000000000000000000100010440702771AMANDA APARECIDA AZEVEDO CARDO          RUA: IVONETE                            CONJUNTO SAN00000000RIO DE JANEIRO RJUNIAO UMB DOS CULTOS AFRO BRAS    30081810 000005
10231987175000168817800093673    000021245                    000212450000000000000109                     I0121245     30071800000000040003410000017N290618104700000000000103007180000000000000000000000000000000000000000100010440702771AMANDA APARECIDA AZEVEDO CARDO          RUA: IVONETE                            CONJUNTO SAN00000000RIO DE JANEIRO RJUNIAO UMB DOS CULTOS AFRO BRAS    30071810 000006
10231987175000168817800093673    000014316                    000143160000000000000109                     I0214316     30041800000000735003410000017N030418104700000000000103004180000000000000000000000000000000000000000100035838493704CELMO JOSE DE SOUZA                     RUA DA CONCEICAO, 188 SALA 1204 A B     CENTRO - NIT24020087NITEROI        RJUNIAO UMB DOS CULTOS AFRO BRAS    30041810 000007
10231987175000168817800093673    000013902                    000139020000000000000109                     I0213902     30051800000000035003410000017N200218104700000000000103005180000000000000000000000000000000000000000100003604572746LUCIANA SANTOS DA SILVA DE LIM          RUA MARTINICIA                          PARQUE NOVO 25585110SAO JOAO DE MERRJUNIAO UMB DOS CULTOS AFRO BRAS    30051810 000008
10231987175000168817800093673    000013697                    000136970000000000000109                     I0213697     30051800000000035003410000017N200218104700000000000103005180000000000000000000000000000000000000000100007900227709FLAVIA ARAUJO DA ROCHA SANTOS           RUA MARECHAL AGRICOLA N 186             REALENGO - R21735370RIO DE JANEIRO RJUNIAO UMB DOS CULTOS AFRO BRAS    30051810 000009
10231987175000168817800093673    000013650                    000136500000000000000109                     I3413650     30051800000000035003410000017N200218104700000000000103005180000000000000000000000000000000000000000100012097291724CAROLINA B. DE C. CAVALCANTI            RUA: VITAL                              QUINTINO BOC21380008RIO DE JANEIRO RJUNIAO UMB DOS CULTOS AFRO BRAS    30051810 000010
10231987175000168817800093673    000013565                    000135650000000000000109                     I0213565     30051800000000035003410000017N200218104700000000000103005180000000000000000000000000000000000000000100040883612704JOAO ROBERTO RAJO SIMOES                RUA QUITO                               PENHA       21020330RIO DE JANEIRO RJUNIAO UMB DOS CULTOS AFRO BRAS    30051810 000011
10231987175000168817800093673    000013526                    000135260000000000000109                     I3413526     30051800000000035003410000017N200218104700000000000103005180000000000000000000000000000000000000000100059680903753TANIA REGINA DOS SANTOS MARQUE          RUA VISCONDE DE MACEIO, 50 - FRENTE     IRAJA - RIO 21235100RIO DE JANEIRO RJUNIAO UMB DOS CULTOS AFRO BRAS    30051810 000012
10231987175000168817800093673    000013479                    000134790000000000000109                     I0213479     30051800000000035003410000017N200218104700000000000103005180000000000000000000000000000000000000000100001055608710IARA DA SILVA REGO                      RUA: ALCOBACA 1333 CASA 1               ANCHIETA - R21645001RIO DE JANEIRO RJUNIAO UMB DOS CULTOS AFRO BRAS    30051810 000013
10231987175000168817800093673    000013474                    000134740000000000000109                     I0213474     30051800000000035003410000017N200218104700000000000103005180000000000000000000000000000000000000000100009979098708WASHINGTON BENTO DA CUNHA               RUA ABAETE                              EDEN        25535180SAO JOAO DE MERRJUNIAO UMB DOS CULTOS AFRO BRAS    30051810 000014
10231987175000168817800093673    000013455                    000134550000000000000109                     I0213455     30051800000000035003410000017N200218104700000000000103005180000000000000000000000000000000000000000100002051058741CRISTIANE SANTANA GURGEL CORTE          RUA  JONAS AMANCIO                      CAMPO GRANDE20765040RIO DE JANEIRO RJUNIAO UMB DOS CULTOS AFRO BRAS    30051810 000015
10231987175000168817800093673    000013341                    000133410000000000000109                     I3413341     30051800000000035003410000017N200218104700000000000103005180000000000000000000000000000000000000000100031709294749ELIETE DE OLIVEIRA FONSECA              ESTRADA DO MAGARCA, 1137 FUNDOS         GUARATIBA - 23035380RIO DE JANEIRO RJUNIAO UMB DOS CULTOS AFRO BRAS    30051810 000016
10231987175000168817800093673    000013329                    000133290000000000000109                     I3413329     30051800000000035003410000017N200218104700000000000103005180000000000000000000000000000000000000000100010591612739ROSEMERE SOUZA DA SILVA                 O MESMO                                 O MESMO     21230354RIO DE JANEIRO RJUNIAO UMB DOS CULTOS AFRO BRAS    30051810 000017
10231987175000168817800093673    000013215                    000132150000000000000109                     I0213215     30051800000000035003410000017N200218104700000000000103005180000000000000000000000000000000000000000100088224228720VERA MARIA DA SILVA                     AVENIDA FARROUPILHA  ANTIGA RUA 6       SAO GONCALO 24722270RIO DE JANEIRO RJUNIAO UMB DOS CULTOS AFRO BRAS    30051810 000018
10231987175000168817800093673    000012858                    000128580000000000000109                     I0212858     30051800000000035003410000017N200218104700000000000103005180000000000000000000000000000000000000000100012201569738PAULO CELSO MACHADO JUNIOR              RUA SEIS                                CHACARA INOA24910000MARICA         RJUNIAO UMB DOS CULTOS AFRO BRAS    30051810 000019
10231987175000168817800093673    000012754                    000127540000000000000109                     I3412754     30051800000000035003410000017N200218104700000000000103005180000000000000000000000000000000000000000100001057873705ADEMIR ANDRADE CUNHA                    RUA PACHECO DA ROCHA N 636              BENTO RIBEIR21555092RIO DE JANEIRO RJUNIAO UMB DOS CULTOS AFRO BRAS    30051810 000020
10231987175000168817800093673    000012703                    000127030000000000000109                     I0212703     30051800000000035003410000017N200218104700000000000103005180000000000000000000000000000000000000000100000000000344MONALISA DE ALMEIDA CARVALHO            RUA NOSSA SENHORA DA PAZ N 111          SANTA CECILI26130660BELFORD ROXO   RJUNIAO UMB DOS CULTOS AFRO BRAS    30051810 000021
10231987175000168817800093673    000012583                    000125830000000000000109                     I0212583     30051800000000035003410000017N200218104700000000000103005180000000000000000000000000000000000000000100082351376749ALDA LUCIA DA SILVA                     RUA ANTONIO MARINS DE OLIVEIRA, 479     SAO MATEUS -25530000SAO JOAO DE MERRJUNIAO UMB DOS CULTOS AFRO BRAS    30051810 000022
10231987175000168817800093673    000012440                    000124400000000000000109                     I0212440     30051800000000035003410000017N200218104700000000000103005180000000000000000000000000000000000000000100001015032702GABRIEL MENEZES                         RUA: LINO FONSECA                       OSVALDO CRUZ21340540SAO PEDRO DA ALRJUNIAO UMB DOS CULTOS AFRO BRAS    30051810 000023
10231987175000168817800093673    000012432                    000124320000000000000109                     I3412432     30051800000000035003410000017N200218104700000000000103005180000000000000000000000000000000000000000100054571715743VILMA OLIVEIRA DOS SANTOS               RUA CORREIA DIAS, 1066                  VIGARIO GERA21241310RIO DE JANEIRO RJUNIAO UMB DOS CULTOS AFRO BRAS    30051810 000024
10231987175000168817800093673    000012293                    000122930000000000000109                     I0212293     30041800000000035003410000017N200218104700000000000103004180000000000000000000000000000000000000000100003604572746LUCIANA SANTOS DA SILVA DE LIM          RUA MARTINICIA                          PARQUE NOVO 25585110SAO JOAO DE MERRJUNIAO UMB DOS CULTOS AFRO BRAS    30041810 000025
10231987175000168817800093673    000012088                    000120880000000000000109                     I0212088     30041800000000035003410000017N200218104700000000000103004180000000000000000000000000000000000000000100007900227709FLAVIA ARAUJO DA ROCHA SANTOS           RUA MARECHAL AGRICOLA N 186             REALENGO - R21735370RIO DE JANEIRO RJUNIAO UMB DOS CULTOS AFRO BRAS    30041810 000026
10231987175000168817800093673    000012041                    000120410000000000000109                     I3412041     30041800000000035003410000017N200218104700000000000103004180000000000000000000000000000000000000000100012097291724CAROLINA B. DE C. CAVALCANTI            RUA: VITAL                              QUINTINO BOC21380008RIO DE JANEIRO RJUNIAO UMB DOS CULTOS AFRO BRAS    30041810 000027
10231987175000168817800093673    000011956                    000119560000000000000109                     I0211956     30041800000000035003410000017N200218104700000000000103004180000000000000000000000000000000000000000100040883612704JOAO ROBERTO RAJO SIMOES                RUA QUITO                               PENHA       21020330RIO DE JANEIRO RJUNIAO UMB DOS CULTOS AFRO BRAS    30041810 000028
10231987175000168817800093673    000011870                    000118700000000000000109                     I0211870     30041800000000035003410000017N200218104700000000000103004180000000000000000000000000000000000000000100001055608710IARA DA SILVA REGO                      RUA: ALCOBACA 1333 CASA 1               ANCHIETA - R21645001RIO DE JANEIRO RJUNIAO UMB DOS CULTOS AFRO BRAS    30041810 000029
10231987175000168817800093673    000011865                    000118650000000000000109                     I0211865     30041800000000035003410000017N200218104700000000000103004180000000000000000000000000000000000000000100009979098708WASHINGTON BENTO DA CUNHA               RUA ABAETE                              EDEN        25535180SAO JOAO DE MERRJUNIAO UMB DOS CULTOS AFRO BRAS    30041810 000030
10231987175000168817800093673    000011846                    000118460000000000000109                     I0211846     30041800000000035003410000017N200218104700000000000103004180000000000000000000000000000000000000000100002051058741CRISTIANE SANTANA GURGEL CORTE          RUA  JONAS AMANCIO                      CAMPO GRANDE20765040RIO DE JANEIRO RJUNIAO UMB DOS CULTOS AFRO BRAS    30041810 000031
10231987175000168817800093673    000011732                    000117320000000000000109                     I3411732     30041800000000035003410000017N200218104700000000000103004180000000000000000000000000000000000000000100031709294749ELIETE DE OLIVEIRA FONSECA              ESTRADA DO MAGARCA, 1137 FUNDOS         GUARATIBA - 23035380RIO DE JANEIRO RJUNIAO UMB DOS CULTOS AFRO BRAS    30041810 000032
10231987175000168817800093673    000011703                    000117030000000000000109                     I0211703     30041800000000035003410000017N200218104700000000000103004180000000000000000000000000000000000000000100092952364753ROSANGELA SILVA SOUZA                   RUA TAMOIOS N 144                       CENTRO - NIL26520250NILOPOLIS      RJUNIAO UMB DOS CULTOS AFRO BRAS    30041810 000033
10231987175000168817800093673    000011637                    000116370000000000000109                     I0211637     30041800000000035003410000017N200218104700000000000103004180000000000000000000000000000000000000000100002212106793ANTONIO CARLOS DA SILVA GONCAL          RUA: VISCONDE DE NITEROI                SAO CRISTOVA20943000RIO DE JANEIRO RJUNIAO UMB DOS CULTOS AFRO BRAS    30041810 000034
10231987175000168817800093673    000011606                    000116060000000000000109                     I0211606     30041800000000035003410000017N200218104700000000000103004180000000000000000000000000000000000000000100088224228720VERA MARIA DA SILVA                     AVENIDA FARROUPILHA  ANTIGA RUA 6       SAO GONCALO 24722270RIO DE JANEIRO RJUNIAO UMB DOS CULTOS AFRO BRAS    30041810 000035
10231987175000168817800093673    000011274                    000112740000000000000109                     I0211274     30041800000000035003410000017N200218104700000000000103004180000000000000000000000000000000000000000100035838493704CELMO JOSE DE SOUZA                     RUA DA CONCEICAO, 188 SALA 1204 A B     CENTRO - NIT24020087NITEROI        RJUNIAO UMB DOS CULTOS AFRO BRAS    30041810 000036
10231987175000168817800093673    000011249                    000112490000000000000109                     I0211249     30041800000000035003410000017N200218104700000000000103004180000000000000000000000000000000000000000100012201569738PAULO CELSO MACHADO JUNIOR              RUA SEIS                                CHACARA INOA24910000MARICA         RJUNIAO UMB DOS CULTOS AFRO BRAS    30041810 000037
10231987175000168817800093673    000011094                    000110940000000000000109                     I0211094     30041800000000035003410000017N200218104700000000000103004180000000000000000000000000000000000000000100000000000344MONALISA DE ALMEIDA CARVALHO            RUA NOSSA SENHORA DA PAZ N 111          SANTA CECILI26130660BELFORD ROXO   RJUNIAO UMB DOS CULTOS AFRO BRAS    30041810 000038
10231987175000168817800093673    000010974                    000109740000000000000109                     I0210974     30041800000000035003410000017N200218104700000000000103004180000000000000000000000000000000000000000100082351376749ALDA LUCIA DA SILVA                     RUA ANTONIO MARINS DE OLIVEIRA, 479     SAO MATEUS -25530000SAO JOAO DE MERRJUNIAO UMB DOS CULTOS AFRO BRAS    30041810 000039
10231987175000168817800093673    000010971                    000109710000000000000109                     I3410971     30041800000000035003410000017N200218104700000000000103004180000000000000000000000000000000000000000200000000001055ELZA DE AZEVEDO ALVES                   RUA BADUINIO DE AGUIAR N 220            PARADA DE LU21210760RIO DE JANEIRO RJUNIAO UMB DOS CULTOS AFRO BRAS    30041810 000040
10231987175000168817800093673    000010831                    000108310000000000000109                     I0210831     30041800000000035003410000017N200218104700000000000103004180000000000000000000000000000000000000000100001015032702GABRIEL MENEZES                         RUA: LINO FONSECA                       OSVALDO CRUZ21340540SAO PEDRO DA ALRJUNIAO UMB DOS CULTOS AFRO BRAS    30041810 000041
10231987175000168817800093673    000010823                    000108230000000000000109                     I3410823     30041800000000035003410000017N200218104700000000000103004180000000000000000000000000000000000000000100054571715743VILMA OLIVEIRA DOS SANTOS               RUA CORREIA DIAS, 1066                  VIGARIO GERA21241310RIO DE JANEIRO RJUNIAO UMB DOS CULTOS AFRO BRAS    30041810 000042
10231987175000168817800093673    00009362                     000093620000000000000109                     I349362      30031800000000035003410000017N200218104700000000000103003180000000000000000000000000000000000000000200000000001055ELZA DE AZEVEDO ALVES                   RUA BADUINIO DE AGUIAR N 220            PARADA DE LU21210760RIO DE JANEIRO RJUNIAO UMB DOS CULTOS AFRO BRAS    30031810 000043
9                                                                                                                                                                                                                                                                                                                                                                                                         000044
