01REMESSA01COBRANCA       817800093673        União Umb dos Cultos Afro Bra341BANCO ITAU SA  131218                                                                                                                                                                                                                                                                                                      000001
10231987175000168817800093673    000033567                    000335670000000000000109                     I0133567     20121800000000350003410000017N131218104700000000000102012180000000000000000000000000000000000000000100002593509740MARIA DA PENHA FERREIRA                 RUA JERICO                              INHOAIBA    23064180RIO DE JANEIRO RJUNIAO UMB DOS CULTOS AFRO BRAS    20121810 000002
10231987175000168817800093673    000033566                    000335660000000000000109                     I0133566     10011900000000350003410000017N131218104700000000000101001190000000000000000000000000000000000000000100093233219704SEVERINO DA SILVA BARBOSA               RUA ENGENHEIRO BERNARDO SAIAO           JARDIM MERIT25550810SAO JOAO DE MERRJUNIAO UMB DOS CULTOS AFRO BRAS    10011910 000003
10231987175000168817800093673    000033565                    000335650000000000000109                     I0133565     31121800000000035003410000017N131218104700000000000103112180000000000000000000000000000000000000000100093233219704SEVERINO DA SILVA BARBOSA               RUA ENGENHEIRO BERNARDO SAIAO           JARDIM MERIT25550810SAO JOAO DE MERRJUNIAO UMB DOS CULTOS AFRO BRAS    31121810 000004
10231987175000168817800093673    000033564                    000335640000000000000109                     I0133564     10011900000000350003410000017N131218104700000000000101001190000000000000000000000000000000000000000100004281232796CARLA VEIGA DE FREITAS ROSA             RUA FOMENTO                             SANTA CRUZ  23555063RIO DE JANEIRO RJUNIAO UMB DOS CULTOS AFRO BRAS    10011910 000005
10231987175000168817800093673    000033470                    000334700000000000000109                     I0233470     04121800000000070003410000017N241118104700000000000100412180000000000000000000000000000000000000000100002541954743DENISE DIAS DE OLIVEIRA                 RUA BERNARDINO DE CAMPOS                OLAVO BILAC 25035530DUQUE DE CAXIASRJUNIAO UMB DOS CULTOS AFRO BRAS    04121810 000006
10231987175000168817800093673    000033469                    000334690000000000000109                     I0233469     27111800000000070003410000017N241118104700000000000102711180000000000000000000000000000000000000000100002541954743DENISE DIAS DE OLIVEIRA                 RUA BERNARDINO DE CAMPOS                OLAVO BILAC 25035530DUQUE DE CAXIASRJUNIAO UMB DOS CULTOS AFRO BRAS    27111810 000007
10231987175000168817800093673    000033415                    000334150000000000000109                     I0233415     20121800000000350003410000017N131118104700000000000102012180000000000000000000000000000000000000000100007245028745SANDRA REGINA MARQUES                   RUA MIGUEL UNAMUNO                      JARDIM ROTSE25270120DUQUE DE CAXIASRJUNIAO UMB DOS CULTOS AFRO BRAS    20121810 000008
10231987175000168817800093673    000033414                    000334140000000000000109                     I0233414     20121800000000035003410000017N131118104700000000000102012180000000000000000000000000000000000000000100007245028745SANDRA REGINA MARQUES                   RUA MIGUEL UNAMUNO                      JARDIM ROTSE25270120DUQUE DE CAXIASRJUNIAO UMB DOS CULTOS AFRO BRAS    20121810 000009
10231987175000168817800093673    000033171                    000331710000000000000109                     I0233171     20121800000000400003410000017N291018104700000000000102012180000000000000000000000000000000000000000100008722484701ANA PAULA SILVA DA CRUZ                 RUA ELVIRA DA FONSECA                   LARGO DO TAN22733150RIO DE JANEIRO RJUNIAO UMB DOS CULTOS AFRO BRAS    20121810 000010
10231987175000168817800093673    000032723                    000327230000000000000109                     I3432723     20121800000000350003410000017N291018104700000000000102012180000000000000000000000000000000000000000100072360194704ELAINE DE ALMEIDA FONSECA               RUA VAZ LOBO                            VAZ LOBO    21361030RIO DE JANEIRO RJUNIAO UMB DOS CULTOS AFRO BRAS    20121810 000011
10231987175000168817800093673    000032537                    000325370000000000000109                     I3432537     20121800000000350003410000017N291018104700000000000102012180000000000000000000000000000000000000000100061209570734DAMIANA DA SILVA LOPES                  RUA ANAJAS                              HITERLAND   26115260BELFORD ROXO   RJUNIAO UMB DOS CULTOS AFRO BRAS    20121810 000012
10231987175000168817800093673    000032312                    000323120000000000000109                     I0232312     20121800000000350003410000017N291018104700000000000102012180000000000000000000000000000000000000000100002593509740MARIA DA PENHA FERREIRA                 RUA JERICO                              INHOAIBA    23064180RIO DE JANEIRO RJUNIAO UMB DOS CULTOS AFRO BRAS    20121810 000013
10231987175000168817800093673    000032202                    000322020000000000000109                     I0232202     20121800000000350003410000017N291018104700000000000102012180000000000000000000000000000000000000000100094081352706ELIZETH BARROS DOS REIS TELACI          RUA: PONTO CHIQUE                       CORDOVIL    21010310RIO DE JANEIRO RJUNIAO UMB DOS CULTOS AFRO BRAS    20121810 000014
10231987175000168817800093673    000032152                    000321520000000000000109                     I0232152     20121800000000350003410000017N291018104700000000000102012180000000000000000000000000000000000000000100084273852772JUREMA FRANKLIN DA SILVA                RUA MARQUES QUELUZ                      IRAJA       21235120RIO DE JANEIRO RJUNIAO UMB DOS CULTOS AFRO BRAS    20121810 000015
10231987175000168817800093673    000032064                    000320640000000000000109                     I3432064     20121800000000400003410000017N291018104700000000000102012180000000000000000000000000000000000000000100009935737705MICHEL ANDERSON SPINELLI CANAN          AVENIDA ARAPOGI                         BRAS DE PINA21011280RIO DE JANEIRO RJUNIAO UMB DOS CULTOS AFRO BRAS    20121810 000016
10231987175000168817800093673    000031492                    000314920000000000000109                     I0231492     20121800000000350003410000017N291018104700000000000102012180000000000000000000000000000000000000000100010878187707LUIZ PAULO DA CRUZ TEIXEIRA             RUA DOS CAJUEIROS                       SEPETIBA    23530074RIO DE JANEIRO RJUNIAO UMB DOS CULTOS AFRO BRAS    20121810 000017
10231987175000168817800093673    000031434                    000314340000000000000109                     I0231434     20121800000000350003410000017N291018104700000000000102012180000000000000000000000000000000000000000100000000000000DIRCE CERQUEIRA FERREIRA                RUA: SANTA CRUZ                         SARACURUNA  25212110DUQUE DE CAXIASRJUNIAO UMB DOS CULTOS AFRO BRAS    20121810 000018
10231987175000168817800093673    000031344                    000313440000000000000109                     I0231344     20121800000000350003410000017N291018104700000000000102012180000000000000000000000000000000000000000100073900052700MARIA D AJUDA PESSOA                    RUA: PONTA PORA                         AMAPA       25055230DUQUE DE CAXIASRJUNIAO UMB DOS CULTOS AFRO BRAS    20121810 000019
10231987175000168817800093673    000031328                    000313280000000000000109                     I0231328     20121800000000350003410000017N291018104700000000000102012180000000000000000000000000000000000000000100041280784768LUCIENE RIBEIRO EVA                     RUA: A                                  JARDIM ANHAN25264580DUQUE DE CAXIASRJUNIAO UMB DOS CULTOS AFRO BRAS    20121810 000020
10231987175000168817800093673    000031191                    000311910000000000000109                     I0231191     20121800000000350003410000017N291018104700000000000102012180000000000000000000000000000000000000000100000396925740SEBASTIAO PAULO PINHO VIEIRA            RUA HIDELGARDO DE NORONHA               ARNALDO EUGE23016180CAMPO GRANDE   RJUNIAO UMB DOS CULTOS AFRO BRAS    20121810 000021
10231987175000168817800093673    000031150                    000311500000000000000109                     I0231150     20121800000000350003410000017N291018104700000000000102012180000000000000000000000000000000000000000100012001167717JOSEILTON DA SILVA MOREIRA              RUA IBIRARUNA                           VILA SANTA C25240482DUQUE DE CAXIASRJUNIAO UMB DOS CULTOS AFRO BRAS    20121810 000022
10231987175000168817800093673    000031125                    000311250000000000000109                     I0231125     20121800000000350003410000017N291018104700000000000102012180000000000000000000000000000000000000000100052894835787CARMITA DE JESUS DA SILVA               RUA VISCONDE DE NITEROI                 MANGUEIRA   20943000RIO DE JANEIRO RJUNIAO UMB DOS CULTOS AFRO BRAS    20121810 000023
10231987175000168817800093673    000030992                    000309920000000000000109                     I0230992     20121800000000350003410000017N291018104700000000000102012180000000000000000000000000000000000000000100000458763767ROSANGELA SPINDOLA BENTO                RUA ANTONIO MAURO                       PARQUE AMORI26185150BELFORD ROXO   RJUNIAO UMB DOS CULTOS AFRO BRAS    20121810 000024
10231987175000168817800093673    000030722                    000307220000000000000109                     I0230722     20121800000000350003410000017N291018104700000000000102012180000000000000000000000000000000000000000100047457198768MARIA PENHA SOARES FERREIRA             ESTRADA DO TINGUI                       CAMPO GRANDE23067552RIO DE JANEIRO RJUNIAO UMB DOS CULTOS AFRO BRAS    20121810 000025
10231987175000168817800093673    000030657                    000306570000000000000109                     I0230657     20121800000000350003410000017N291018104700000000000102012180000000000000000000000000000000000000000100001115386700DILZA TORRES PINTO DE JESUS             RUA MARECHAL BARBEDO                    REALENGO    21735340RIO DE JANEIRO RJUNIAO UMB DOS CULTOS AFRO BRAS    20121810 000026
10231987175000168817800093673    000030597                    000305970000000000000109                     I0230597     20121800000000350003410000017N291018104700000000000102012180000000000000000000000000000000000000000100000000000506IDALINA DA COSTA PEREIRA                RUA BICUIBA                             BANCO DE ARE26350140RIO DE JANEIRO RJUNIAO UMB DOS CULTOS AFRO BRAS    20121810 000027
10231987175000168817800093673    000030550                    000305500000000000000109                     I0230550     20121800000000350003410000017N291018104700000000000102012180000000000000000000000000000000000000000100049159194715SEBASTIANA MARTINS SENA                 RUA JAPEGOA                             BRAS DE PINA21011180RIO DE JANEIRO RJUNIAO UMB DOS CULTOS AFRO BRAS    20121810 000028
10231987175000168817800093673    000030522                    000305220000000000000109                     I0230522     20121800000000350003410000017N291018104700000000000102012180000000000000000000000000000000000000000100060226722791ROBERTO DE SOUZA FORCA                  RUA SAO LAZARO                          VILA VALQUEI21321270RIO DE JANEIRO RJUNIAO UMB DOS CULTOS AFRO BRAS    20121810 000029
10231987175000168817800093673    000030247                    000302470000000000000109                     I3430247     20121800000000035003410000017N291018104700000000000102012180000000000000000000000000000000000000000100009491065777VIVIAN LUIZA FREITAS DE AGUIAR          RUA ITAPETININGA                        VICENTE DE C21370680RIO DE JANEIRO RJUNIAO UMB DOS CULTOS AFRO BRAS    20121810 000030
10231987175000168817800093673    000030158                    000301580000000000000109                     I0230158     20121800000000035003410000017N291018104700000000000102012180000000000000000000000000000000000000000100002375024702FATIMA APARECIDA OLIVEIRA DE C          RUA OURO PRETO                          COQUEIRAL   20740280RIO DE JANEIRO RJUNIAO UMB DOS CULTOS AFRO BRAS    20121810 000031
10231987175000168817800093673    000030109                    000301090000000000000109                     I0230109     20121800000000035003410000017N291018104700000000000102012180000000000000000000000000000000000000000100000000001273JORGE CARLOS RODRIGUES DE OLIV          ESTRADA TAQUARAL                        JARDIM NAZAR26062221NOVA IGUACU    RJUNIAO UMB DOS CULTOS AFRO BRAS    20121810 000032
10231987175000168817800093673    000029982                    000299820000000000000109                     I0229982     20121800000000035003410000017N291018104700000000000102012180000000000000000000000000000000000000000100059680903753TANIA REGINA DOS SANTOS MARQUE          RUA VISCONDE DE MACEIO                  IRAJA       21235100RIO DE JANEIRO RJUNIAO UMB DOS CULTOS AFRO BRAS    20121810 000033
10231987175000168817800093673    000029682                    000296820000000000000109                     I0229682     20121800000000035003410000017N291018104700000000000102012180000000000000000000000000000000000000000100007000973765SILVIA DAS GRACAS SANTANA               RUA NELIO CHAMBARELLI                   NOSSA SENHOR26313040QUEIMADOS      RJUNIAO UMB DOS CULTOS AFRO BRAS    20121810 000034
10231987175000168817800093673    000029148                    000291480000000000000109                     I0229148     20121800000000035003410000017N291018104700000000000102012180000000000000000000000000000000000000000100000000000000MARIA DA PENHA ANASTACIA DE OL          RUA MARATUBA                            RICARDO DE A21620430RIO DE JANEIRO RJUNIAO UMB DOS CULTOS AFRO BRAS    20121810 000035
10231987175000168817800093673    000029096                    000290960000000000000109                     I0229096     20121800000000035003410000017N291018104700000000000102012180000000000000000000000000000000000000000100001115386700DILZA TORRES PINTO DE JESUS             RUA MARECHAL BARBEDO                    REALENGO    21735340RIO DE JANEIRO RJUNIAO UMB DOS CULTOS AFRO BRAS    20121810 000036
10231987175000168817800093673    000029020                    000290200000000000000109                     I0229020     20121800000000035003410000017N291018104700000000000102012180000000000000000000000000000000000000000100003761710739ALMIRA DE SOUZA SANTOS                  RUA CARMELITA DE JESUS                  ELISA MARIA 23076440RIO DE JANEIRO RJUNIAO UMB DOS CULTOS AFRO BRAS    20121810 000037
10231987175000168817800093673    000028470                    000284700000000000000109                     I0228470     30111800000000040003410000017N200818104700000000000103011180000000000000000000000000000000000000000100014328358740SILAS BARBOSA DE SOUZA                  ESTRADA REAL DE MAUA                    JARDIM DA PA25926684RIO DE JANEIRO RJUNIAO UMB DOS CULTOS AFRO BRAS    30111810 000038
10231987175000168817800093673    000028402                    000284020000000000000109                     I0228402     30111800000000040003410000017N200818104700000000000103011180000000000000000000000000000000000000000100009526018770VERONICA MARIA LIMA                     RUA KEMAL PALHA                         VILA SANTO A25040220DUQUE DE CAXIASRJUNIAO UMB DOS CULTOS AFRO BRAS    30111810 000039
10231987175000168817800093673    000028366                    000283660000000000000109                     I3428366     30111800000000035003410000017N200818104700000000000103011180000000000000000000000000000000000000000100009491065777VIVIAN LUIZA FREITAS DE AGUIAR          RUA ITAPETININGA                        VICENTE DE C21370680RIO DE JANEIRO RJUNIAO UMB DOS CULTOS AFRO BRAS    30111810 000040
10231987175000168817800093673    000028268                    000282680000000000000109                     I0228268     30111800000000035003410000017N200818104700000000000103011180000000000000000000000000000000000000000100002375024702FATIMA APARECIDA OLIVEIRA DE C          RUA OURO PRETO                          COQUEIRAL   20740280RIO DE JANEIRO RJUNIAO UMB DOS CULTOS AFRO BRAS    30111810 000041
10231987175000168817800093673    000027946                    000279460000000000000109                     I0227946     30111800000000035003410000017N200818104700000000000103011180000000000000000000000000000000000000000100069833850715WALTER LIMA DE AVELLAR                  RUA SAO JOSE                            ITAIPUACU   24900000MARICA         RJUNIAO UMB DOS CULTOS AFRO BRAS    30111810 000042
10231987175000168817800093673    000027758                    000277580000000000000109                     I0227758     30111800000000035003410000017N200818104700000000000103011180000000000000000000000000000000000000000100007000973765SILVIA DAS GRACAS SANTANA               RUA NELIO CHAMBARELLI                   NOSSA SENHOR26313040QUEIMADOS      RJUNIAO UMB DOS CULTOS AFRO BRAS    30111810 000043
10231987175000168817800093673    000027650                    000276500000000000000109                     I0227650     30111800000000035003410000017N200818104700000000000103011180000000000000000000000000000000000000000100002134169729ALEXANDRE DE ALMEIDA                    RUA SERITINGA                           BRAS DE PINA21215480RIO DE JANEIRO RJUNIAO UMB DOS CULTOS AFRO BRAS    30111810 000044
10231987175000168817800093673    000027368                    000273680000000000000109                     I0227368     30111800000000035003410000017N200818104700000000000103011180000000000000000000000000000000000000000100002541954743DENISE DIAS DE OLIVEIRA                 RUA BERNARDINO DE CAMPOS                OLAVO BILAC 25035530DUQUE DE CAXIASRJUNIAO UMB DOS CULTOS AFRO BRAS    30111810 000045
10231987175000168817800093673    000027340                    000273400000000000000109                     I0227340     30111800000000035003410000017N200818104700000000000103011180000000000000000000000000000000000000000100000888045778JOSIAS MARANHAO DA SILVA                RUA TRIMONTE                            JARDIM PRIMA25223820DUQUE DE CAXIASRJUNIAO UMB DOS CULTOS AFRO BRAS    30111810 000046
10231987175000168817800093673    000027251                    000272510000000000000109                     I0227251     30111800000000035003410000017N200818104700000000000103011180000000000000000000000000000000000000000100079042708700ANTONIO CARLOS DE MIRANDA PACH          RUA SOLDADO BRUNO ESTRIFICA             CURICICA - J22780600RIO DE JANEIRO RJUNIAO UMB DOS CULTOS AFRO BRAS    30111810 000047
10231987175000168817800093673    000027215                    000272150000000000000109                     I0227215     30111800000000035003410000017N200818104700000000000103011180000000000000000000000000000000000000000100007062360767IVONETE GOMES DOS SANTOS                AVENIDA PORTO DA MADAME                 GRADIM      24431310SAO GONCALO    RJUNIAO UMB DOS CULTOS AFRO BRAS    30111810 000048
10231987175000168817800093673    000027139                    000271390000000000000109                     I0227139     30111800000000035003410000017N200818104700000000000103011180000000000000000000000000000000000000000100002477166778BEATRIZ MIRANDA ABRANCHES               RUA GRUCAI                              PENHA       21020250RIO DE JANEIRO RJUNIAO UMB DOS CULTOS AFRO BRAS    30111810 000049
10231987175000168817800093673    000027131                    000271310000000000000109                     I0227131     30111800000000035003410000017N200818104700000000000103011180000000000000000000000000000000000000000100000000000000JOSE CALASANS SILVA FILHO               RUA DAS AMETISTAS                       ROCHA MIRAND21510020RIO DE JANEIRO RJUNIAO UMB DOS CULTOS AFRO BRAS    30111810 000050
10231987175000168817800093673    000027077                    000270770000000000000109                     I0227077     30111800000000035003410000017N200818104700000000000103011180000000000000000000000000000000000000000100003761710739ALMIRA DE SOUZA SANTOS                  RUA CARMELITA DE JESUS                  ELISA MARIA 23076440RIO DE JANEIRO RJUNIAO UMB DOS CULTOS AFRO BRAS    30111810 000051
10231987175000168817800093673    000025632                    000256320000000000000109                     I0225632     30101800000000040003410000017N200818104700000000000103010180000000000000000000000000000000000000000100014328358740SILAS BARBOSA DE SOUZA                  ESTRADA REAL DE MAUA                    JARDIM DA PA25926684RIO DE JANEIRO RJUNIAO UMB DOS CULTOS AFRO BRAS    30101810 000052
10231987175000168817800093673    000025528                    000255280000000000000109                     I3425528     30101800000000035003410000017N200818104700000000000103010180000000000000000000000000000000000000000100009491065777VIVIAN LUIZA FREITAS DE AGUIAR          RUA ITAPETININGA                        VICENTE DE C21370680RIO DE JANEIRO RJUNIAO UMB DOS CULTOS AFRO BRAS    30101810 000053
10231987175000168817800093673    000025431                    000254310000000000000109                     I0225431     30101800000000035003410000017N200818104700000000000103010180000000000000000000000000000000000000000100002375024702FATIMA APARECIDA OLIVEIRA DE C          RUA OURO PRETO                          COQUEIRAL   20740280RIO DE JANEIRO RJUNIAO UMB DOS CULTOS AFRO BRAS    30101810 000054
10231987175000168817800093673    000024921                    000249210000000000000109                     I0224921     30101800000000035003410000017N200818104700000000000103010180000000000000000000000000000000000000000100007000973765SILVIA DAS GRACAS SANTANA               RUA NELIO CHAMBARELLI                   NOSSA SENHOR26313040QUEIMADOS      RJUNIAO UMB DOS CULTOS AFRO BRAS    30101810 000055
10231987175000168817800093673    000024813                    000248130000000000000109                     I0224813     30101800000000035003410000017N200818104700000000000103010180000000000000000000000000000000000000000100002134169729ALEXANDRE DE ALMEIDA                    RUA SERITINGA                           BRAS DE PINA21215480RIO DE JANEIRO RJUNIAO UMB DOS CULTOS AFRO BRAS    30101810 000056
10231987175000168817800093673    000024700                    000247000000000000000109                     I0224700     30101800000000035003410000017N200818104700000000000103010180000000000000000000000000000000000000000100015197047712MARCELLE SOARES ZIMBRAO                 RUA NOSSA SENHORA DAS GRACAS            MOSELA      25675111PETROPOLIS     RJUNIAO UMB DOS CULTOS AFRO BRAS    30101810 000057
10231987175000168817800093673    000024505                    000245050000000000000109                     I0224505     30101800000000035003410000017N200818104700000000000103010180000000000000000000000000000000000000000100000888045778JOSIAS MARANHAO DA SILVA                RUA TRIMONTE                            JARDIM PRIMA25223820DUQUE DE CAXIASRJUNIAO UMB DOS CULTOS AFRO BRAS    30101810 000058
10231987175000168817800093673    000024297                    000242970000000000000109                     I0224297     30101800000000035003410000017N200818104700000000000103010180000000000000000000000000000000000000000100000000000000JOSE CALASANS SILVA FILHO               RUA DAS AMETISTAS                       ROCHA MIRAND21510020RIO DE JANEIRO RJUNIAO UMB DOS CULTOS AFRO BRAS    30101810 000059
10231987175000168817800093673    000024243                    000242430000000000000109                     I0224243     30101800000000035003410000017N200818104700000000000103010180000000000000000000000000000000000000000100003761710739ALMIRA DE SOUZA SANTOS                  RUA CARMELITA DE JESUS                  ELISA MARIA 23076440RIO DE JANEIRO RJUNIAO UMB DOS CULTOS AFRO BRAS    30101810 000060
9                                                                                                                                                                                                                                                                                                                                                                                                         000061
