01REMESSA01COBRANCA       916200163100        União Umb dos Cultos Afro Bra341BANCO ITAU SA  300419                                                                                                                                                                                                                                                                                                      000001
10231987175000168916200163100    000044023                    000440230000000000000109                     I0244023     30061900000000040003410000017N130319105700000000000103006190000000000000000000000000000000000000000100003546040740MONICA DA SILVA OLIVEIRA                RUA CORREIA DIASN 1029,                 VIGARIO GERA21241310RIO DE JANEIRO RJUNIAO UMB DOS CULTOS AFRO BRAS    30061915 000002
10231987175000168916200163100    000043451                    000434510000000000000109                     I0243451     30061900000000040003410000017N130319105700000000000103006190000000000000000000000000000000000000000100082335400720PAULO FONSECA DA SILVA                  RUA ANDALUZIAN 431, FUNDOS              BENTO RIBEIR21555100RIO DE JANEIRO RJUNIAO UMB DOS CULTOS AFRO BRAS    30061915 000003
10231987175000168916200163100    000042575                    000425750000000000000109                     I0242575     30051900000000040003410000017N130319105700000000000103005190000000000000000000000000000000000000000100013222358729AMANDA PAULA TORRES DE SOUZA            RUA JOAO VICENTEN 261,                  MADUREIRA   21340020RIO DE JANEIRO RJUNIAO UMB DOS CULTOS AFRO BRAS    30051915 000004
10231987175000168916200163100    000042377                    000423770000000000000109                     I0242377     30051900000000040003410000017N130319105700000000000103005190000000000000000000000000000000000000000100003546040740MONICA DA SILVA OLIVEIRA                RUA CORREIA DIASN 1029,                 VIGARIO GERA21241310RIO DE JANEIRO RJUNIAO UMB DOS CULTOS AFRO BRAS    30051915 000005
10231987175000168916200163100    000041808                    000418080000000000000109                     I0241808     30051900000000040003410000017N130319105700000000000103005190000000000000000000000000000000000000000100082335400720PAULO FONSECA DA SILVA                  RUA ANDALUZIAN 431, FUNDOS              BENTO RIBEIR21555100RIO DE JANEIRO RJUNIAO UMB DOS CULTOS AFRO BRAS    30051915 000006
10231987175000168916200163100    000041707                    000417070000000000000109                     I0241707     30051900000000040003410000017N130319105700000000000103005190000000000000000000000000000000000000000100009886046716ANA CRISTINA DE ALMEIDA TRINDA          RUA COTIJUBAN 156,                      ROCHA MIRAND21555020RIO DE JANEIRO RJUNIAO UMB DOS CULTOS AFRO BRAS    30051915 000007
10231987175000168916200163100    000041551                    000415510000000000000109                     I0241551     30051900000000040003410000017N130319105700000000000103005190000000000000000000000000000000000000000100045935742772SANDRA ANDRADE DE ARAUJO                AV. MINISTRO EDGARD ROMERON 679, VILA EMVAZ LOBO    21360202RIO DE JANEIRO RJUNIAO UMB DOS CULTOS AFRO BRAS    30051915 000008
10231987175000168916200163100    000041276                    000412760000000000000109                     I0241276     30041900000000040003410000017N120319105700000000000103004190000000000000000000000000000000000000000100002621693717JUREMA DE OLIVEIRA RODRIGUES            ESTRADA: INTENDENTE MAGALHAES N 196, APACAMPINHO    21341330RIO DE JANEIRO RJUNIAO UMB DOS CULTOS AFRO BRAS    30041915 000009
10231987175000168916200163100    000041181                    000411810000000000000109                     I0241181     30041900000000040003410000017N120319105700000000000103004190000000000000000000000000000000000000000100001148949739MARIA DAS GRACAS SEBASTIANA DO          RUA PEREIRA PINTO N 91,                 TOMAS COELHO20761350RIO DE JANEIRO RJUNIAO UMB DOS CULTOS AFRO BRAS    30041915 000010
10231987175000168916200163100    000040740                    000407400000000000000109                     I0240740     30041900000000040003410000017N120319105700000000000103004190000000000000000000000000000000000000000100003546040740MONICA DA SILVA OLIVEIRA                RUA CORREIA DIASN 1029,                 VIGARIO GERA21241310RIO DE JANEIRO RJUNIAO UMB DOS CULTOS AFRO BRAS    30041915 000011
10231987175000168916200163100    000040227                    000402270000000000000109                     I0240227     30041900000000040003410000017N120319105700000000000103004190000000000000000000000000000000000000000100092269516753HELENA MARIA DA SILVA                   RUA VINTE E QUATRO DE OUTUBRON 0,  QUADRJARDIM BARRO25267450DUQUE DE CAXIASRJUNIAO UMB DOS CULTOS AFRO BRAS    30041915 000012
10231987175000168916200163100    000040175                    000401750000000000000109                     I0240175     30041900000000040003410000017N120319105700000000000103004190000000000000000000000000000000000000000100082335400720PAULO FONSECA DA SILVA                  RUA ANDALUZIAN 431, FUNDOS              BENTO RIBEIR21555100RIO DE JANEIRO RJUNIAO UMB DOS CULTOS AFRO BRAS    30041915 000013
10231987175000168916200163100    000039920                    000399200000000000000109                     I0239920     30041900000000040003410000017N120319105700000000000103004190000000000000000000000000000000000000000100045935742772SANDRA ANDRADE DE ARAUJO                AV. MINISTRO EDGARD ROMERON 679, VILA EMVAZ LOBO    21360202RIO DE JANEIRO RJUNIAO UMB DOS CULTOS AFRO BRAS    30041915 000014
9                                                                                                                                                                                                                                                                                                                                                                                                         000015
