01REMESSA01COBRANCA       817800093673        União Umb dos Cultos Afro Bra341BANCO ITAU SA  011018                                                                                                                                                                                                                                                                                                      000001
10231987175000168817800093673    000028843                    000288430000000000000109                     I0128843     10101800000000803753410000017N011018104700000000000101010180000000000000000000000000000000000000000100099608421420NEHILTON ANTONIO DOS SANTOS             RUA: ALCIDES MAIA                       BENTO RIBEIR21550560RIO DE JANEIRO RJUNIAO UMB DOS CULTOS AFRO BRAS    10101810 000002
10231987175000168817800093673    000028842                    000288420000000000000109                     I0128842     31101800000000035003410000017N011018104700000000000103110180000000000000000000000000000000000000000100009057240700ILAN FERNANDES BRAZILEIRO               RUA NICARAGUA                           PARQUE HOTEL28970000ARARUAMA       RJUNIAO UMB DOS CULTOS AFRO BRAS    31101810 000003
10231987175000168817800093673    000028841                    000288410000000000000109                     I0128841     10101800000000603753410000017N011018104700000000000101010180000000000000000000000000000000000000000100009242954730RENATO DELEON GUEDES ALVES              RUA: ALCIDES MAIA                       BENTO RIBEIR21550560RIO DE JANEIRO RJUNIAO UMB DOS CULTOS AFRO BRAS    10101810 000004
10231987175000168817800093673    000028840                    000288400000000000000109                     I0128840     10101800000000829243410000017N011018104700000000000101010180000000000000000000000000000000000000000100013946879772ALDENI ALBENORA DA SILVA                RUA: JOAO DANIEL                        BENTO RIBEIR21550480RIO DE JANEIRO RJUNIAO UMB DOS CULTOS AFRO BRAS    10101810 000005
10231987175000168817800093673    000028839                    000288390000000000000109                     I0128839     10101800000000889323410000017N011018104700000000000101010180000000000000000000000000000000000000000100049547410768ROSELI DE SAO JOSE MOREIRA              RUA: ALCIDES MAIA                       BENTO RIBEIR21550560RIO DE JANEIRO RJUNIAO UMB DOS CULTOS AFRO BRAS    10101810 000006
10231987175000168817800093673    000028838                    000288380000000000000109                     I0128838     10101800000000718553410000017N011018104700000000000101010180000000000000000000000000000000000000000100004244110755ANA PAULA SILVA BARBOSA                 RUA: ALCIDES MAIA                       BENTO RIBEIR21550560RIO DE JANEIRO RJUNIAO UMB DOS CULTOS AFRO BRAS    10101810 000007
10231987175000168817800093673    000028837                    000288370000000000000109                     I0128837     10101800000000703753410000017N011018104700000000000101010180000000000000000000000000000000000000000100001061174751SAMUEL ANTONIO TRINDADE                 RUA: ALCIDES MAIA                       BENTO RIBEIR21550560RIO DE JANEIRO RJUNIAO UMB DOS CULTOS AFRO BRAS    10101810 000008
10231987175000168817800093673    000028836                    000288360000000000000109                     I0128836     10101800000000573243410000017N011018104700000000000101010180000000000000000000000000000000000000000100007854516766NATALIE SILVA DE LIMA                   RUA: JOAO DANIEL                        BENTO RIBEIR21550480RIO DE JANEIRO RJUNIAO UMB DOS CULTOS AFRO BRAS    10101810 000009
10231987175000168817800093673    000028835                    000288350000000000000109                     I0128835     10101800000000764243410000017N011018104700000000000101010180000000000000000000000000000000000000000100082228507768IARA LUCIA RIBEIRO QUINTINO             RUA: JOAO DANIEL                        BENTO RIBEIR21550480RIO DE JANEIRO RJUNIAO UMB DOS CULTOS AFRO BRAS    10101810 000010
10231987175000168817800093673    000028834                    000288340000000000000109                     I0128834     10101800000000300483410000017N011018104700000000000101010180000000000000000000000000000000000000000100068760680725ANNA LUCIA DE SOUZA                     RUA: JOAO DANIEL                        BENTO RIBEIR21550480RIO DE JANEIRO RJUNIAO UMB DOS CULTOS AFRO BRAS    10101810 000011
10231987175000168817800093673    000028833                    000288330000000000000109                     I0128833     10101800000000594243410000017N011018104700000000000101010180000000000000000000000000000000000000000100078566738772MARINA SOARES DA SILVA                  RUA: JOAO DANIEL                        BENTO RIBEIR21550480RIO DE JANEIRO RJUNIAO UMB DOS CULTOS AFRO BRAS    10101810 000012
10231987175000168817800093673    000028832                    000288320000000000000109                     I0128832     10101800000000420483410000017N011018104700000000000101010180000000000000000000000000000000000000000100068760680725ANNA LUCIA DE SOUZA                     RUA: JOAO DANIEL                        BENTO RIBEIR21550480RIO DE JANEIRO RJUNIAO UMB DOS CULTOS AFRO BRAS    10101810 000013
10231987175000168817800093673    000028831                    000288310000000000000109                     I0128831     10101800000000529243410000017N011018104700000000000101010180000000000000000000000000000000000000000100093728467791ALEX DE SOUZA MARTINS                   RUA: JOAO DANIEL                        BENTO RIBEIR21550480RIO DE JANEIRO RJUNIAO UMB DOS CULTOS AFRO BRAS    10101810 000014
10231987175000168817800093673    000028830                    000288300000000000000109                     I0128830     10101800000001200003410000017N011018104700000000000101010180000000000000000000000000000000000000000100012701486726MARIANA MAGALHAES DE C. J. I.           RUA: SALOMAO FILHO                      MARECHAL HER21331660RIO DE JANEIRO RJUNIAO UMB DOS CULTOS AFRO BRAS    10101810 000015
10231987175000168817800093673    000025785                    000257850000000000000109                     I0225785     30091800000000035003410000017N200818104700000000000103009180000000000000000000000000000000000000000100082347301772MARISTELA TORQUATO SILVA BRITT          O MESMO                                 O MESMO     26535340NILOPOLIS      RJUNIAO UMB DOS CULTOS AFRO BRAS    30091810 000016
9                                                                                                                                                                                                                                                                                                                                                                                                         000017
