01REMESSA01COBRANCA       817800093673        União Umb dos Cultos Afro Bra341BANCO ITAU SA  020819                                                                                                                                                                                                                                                                                                      000001
10231987175000168817800093673    000050412                    000504120000000000000109                     I0150412     10091900000000200003410000017N020819105700000000000661009190000000000000000000000000000000000000000100092725120934SOLENI ALEXANDRA PRESTES                RUA BARAO DE CAPANEMAN 505,             NOVA RUSSIA 84070290PONTA GROSSA   PRUNIAO UMB DOS CULTOS AFRO BRAS    10091915 000002
21100920190000000000400                                                                                                                                                                                                                                                                                                                                                                                   000003
10231987175000168817800093673    000050409                    000504090000000000000109                     I0150409     10091900000000200003410000017N020819105700000000000661009190000000000000000000000000000000000000000100000066539790ROSIENE CARDOSO GIRARD                  RUA SUELIN 0, QUADRA 9 LOTE 11          SANTA TEREZA26193030BELFORD ROXO   RJUNIAO UMB DOS CULTOS AFRO BRAS    10091915 000004
21100920190000000000400                                                                                                                                                                                                                                                                                                                                                                                   000005
10231987175000168817800093673    000050403                    000504030000000000000109                     I0150403     10091900000000200003410000017N020819105700000000000661009190000000000000000000000000000000000000000100006974697783TEREZINHA COELHO DE MATTOS              RUA CANDIDO FIGUEIREDON 156,            VILA HORTENC18020250SOROCABA       SPUNIAO UMB DOS CULTOS AFRO BRAS    10091915 000006
21100920190000000000400                                                                                                                                                                                                                                                                                                                                                                                   000007
10231987175000168817800093673    000050402                    000504020000000000000109                     I0150402     10091900000000200003410000017N020819105700000000000661009190000000000000000000000000000000000000000100003213704571SILVANE SANTOS SOUSA                    RUA DEZOITON 172,                       JARDIM SAO M13272832VALINHOS       SPUNIAO UMB DOS CULTOS AFRO BRAS    10091915 000008
21100920190000000000400                                                                                                                                                                                                                                                                                                                                                                                   000009
10231987175000168817800093673    000050399                    000503990000000000000109                     I0150399     10091900000000200003410000017N020819105700000000000661009190000000000000000000000000000000000000000100001170314708ANDREA CRISTINA DE OLIVEIRA SI          RUA: UBERLANDIAN 67,                    REALENGO    21730120RIO DE JANEIRO RJUNIAO UMB DOS CULTOS AFRO BRAS    10091915 000010
21100920190000000000400                                                                                                                                                                                                                                                                                                                                                                                   000011
10231987175000168817800093673    000050398                    000503980000000000000109                     I0150398     10091900000000200003410000017N020819105700000000000661009190000000000000000000000000000000000000000100026977982772ORESTES BARBOSA DA SILVA                RUA LAURA TELESN 123,                   TANQUE      22730305RIO DE JANEIRO RJUNIAO UMB DOS CULTOS AFRO BRAS    10091915 000012
21100920190000000000400                                                                                                                                                                                                                                                                                                                                                                                   000013
10231987175000168817800093673    000050395                    000503950000000000000109                     I0150395     10091900000000200003410000017N020819105700000000000661009190000000000000000000000000000000000000000100001223110788ELYSIO SOARES SANTOS JUNIOR             CCSW 3N 0, QUADRA 116 LOTE 6            SETOR SUDOES70680350BRASILIA       DFUNIAO UMB DOS CULTOS AFRO BRAS    10091915 000014
21100920190000000000400                                                                                                                                                                                                                                                                                                                                                                                   000015
10231987175000168817800093673    000050394                    000503940000000000000109                     I0150394     10091900000000200003410000017N020819105700000000000661009190000000000000000000000000000000000000000100003552573780WILKER DOS SANTOS MARINS                RUA JOSE DE ASSIS FERREIRAN 96,         CHACRINHA   26285590NOVA IGUACU    RJUNIAO UMB DOS CULTOS AFRO BRAS    10091915 000016
21100920190000000000400                                                                                                                                                                                                                                                                                                                                                                                   000017
10231987175000168817800093673    000050391                    000503910000000000000109                     I0150391     10091900000000200003410000017N020819105700000000000661009190000000000000000000000000000000000000000100009833236740LEANDRO BARCELLOS DA SILVA              RUA AVEIRON 244,                        JARDIM ALZIR26317200QUEIMADOS      RJUNIAO UMB DOS CULTOS AFRO BRAS    10091915 000018
21100920190000000000400                                                                                                                                                                                                                                                                                                                                                                                   000019
10231987175000168817800093673    000050390                    000503900000000000000109                     I0150390     10091900000000200003410000017N020819105700000000000661009190000000000000000000000000000000000000000100091812291000ISRAEL COUTO FERREIRA                   RUA SARGENTO MIGUEL GONCALVESN 32,      CORONEL APAR91510190PORTO ALEGRE   RSUNIAO UMB DOS CULTOS AFRO BRAS    10091915 000020
21100920190000000000400                                                                                                                                                                                                                                                                                                                                                                                   000021
10231987175000168817800093673    000050389                    000503890000000000000109                     I0150389     10091900000000200003410000017N020819105700000000000661009190000000000000000000000000000000000000000100010219191794DARIO LUIZ FIRMINO JUNIOR               ESTRADA DO OTAVIANON 180,               TURIACU     21540010RIO DE JANEIRO RJUNIAO UMB DOS CULTOS AFRO BRAS    10091915 000022
21100920190000000000400                                                                                                                                                                                                                                                                                                                                                                                   000023
10231987175000168817800093673    000050388                    000503880000000000000109                     I0150388     10091900000000200003410000017N020819105700000000000661009190000000000000000000000000000000000000000100049560808168MORGANA P. V. WILKE                     RUA DEZENOVEN 0, QUADRA 46  - SAAC 09   VARZEA GRAND78156004MATO GROSSO    MTUNIAO UMB DOS CULTOS AFRO BRAS    10091915 000024
21100920190000000000400                                                                                                                                                                                                                                                                                                                                                                                   000025
10231987175000168817800093673    000050385                    000503850000000000000109                     I0150385     10091900000000200003410000017N020819105700000000000661009190000000000000000000000000000000000000000100009642176785MONIQUE SMITH DE OLIVEIRA               RUA ARARIBAN 761,                       COSMOS      23061000RIO DE JANEIRO RJUNIAO UMB DOS CULTOS AFRO BRAS    10091915 000026
21100920190000000000400                                                                                                                                                                                                                                                                                                                                                                                   000027
10231987175000168817800093673    000050383                    000503830000000000000109                     I0150383     10091900000000200003410000017N020819105700000000000661009190000000000000000000000000000000000000000100089857330797LUIS CLAUDIO DOS SANTOS ALVES           RUA CAPAO BONITON 0, QUADRA 6 LOTE 14   BANGU       21863050RIO DE JANEIRO RJUNIAO UMB DOS CULTOS AFRO BRAS    10091915 000028
21100920190000000000400                                                                                                                                                                                                                                                                                                                                                                                   000029
10231987175000168817800093673    000050379                    000503790000000000000109                     I0150379     10091900000000200003410000017N020819105700000000000661009190000000000000000000000000000000000000000100073670863087EVERSON RICARDO SANTANA GONCAL          RUA SANANDUVAN 42,                      QUERENCIA   94435570VIAMAO         RSUNIAO UMB DOS CULTOS AFRO BRAS    10091915 000030
21100920190000000000400                                                                                                                                                                                                                                                                                                                                                                                   000031
10231987175000168817800093673    000050377                    000503770000000000000109                     I0150377     10091900000000200003410000017N020819105700000000000661009190000000000000000000000000000000000000000100008372393702STELLA MARIS DE AZEVEDO BARBOS          ESTRADA DE SEPETIBAN 44, QUADRA 7 - CASASANTA CRUZ  23520660RIO DE JANEIRO RJUNIAO UMB DOS CULTOS AFRO BRAS    10091915 000032
21100920190000000000400                                                                                                                                                                                                                                                                                                                                                                                   000033
10231987175000168817800093673    000050376                    000503760000000000000109                     I0150376     10091900000000200003410000017N020819105700000000000661009190000000000000000000000000000000000000000100084674750725ELAILSON FERREIRA DIAS                  RUA JOAO BRAUNNEN 0,  LOTE 23 QUADRA 30 INHOAIBA    23062020RIO DE JANEIRO RJUNIAO UMB DOS CULTOS AFRO BRAS    10091915 000034
21100920190000000000400                                                                                                                                                                                                                                                                                                                                                                                   000035
10231987175000168817800093673    000050375                    000503750000000000000109                     I0150375     10091900000000200003410000017N020819105700000000000661009190000000000000000000000000000000000000000100049677950720SERGIO MAURO MAGALHAES                  RUA ENGENHEIRO EDNO MACHADON 123,       OSWALDO CRUZ21550200RIO DE JANEIRO RJUNIAO UMB DOS CULTOS AFRO BRAS    10091915 000036
21100920190000000000400                                                                                                                                                                                                                                                                                                                                                                                   000037
10231987175000168817800093673    000050372                    000503720000000000000109                     I0150372     10091900000000200003410000017N020819105700000000000661009190000000000000000000000000000000000000000100001206569301CICERO DE ARAUJO                        RUA AMERICA N 1651,                     CENTRO      68633000DOM ELIZEU     PAUNIAO UMB DOS CULTOS AFRO BRAS    10091915 000038
21100920190000000000400                                                                                                                                                                                                                                                                                                                                                                                   000039
9                                                                                                                                                                                                                                                                                                                                                                                                         000040
