01REMESSA01COBRANCA       916200163100        União Umb dos Cultos Afro Bra341BANCO ITAU SA  130319                                                                                                                                                                                                                                                                                                      000001
10231987175000168916200163100    000044805                    000448050000000000000109                     I0144805     30061900000000040003410000017N130319104700000000000103006190000000000000000000000000000000000000000100078906261772ROBSON DA SILVA                         TRAVESSA FERREIRAN 0, CASA 7            SANTA CRUZ  23520331RIO DE JANEIRO RJUNIAO UMB DOS CULTOS AFRO BRAS    30061910 000002
10231987175000168916200163100    000044804                    000448040000000000000109                     I0144804     30051900000000040003410000017N130319104700000000000103005190000000000000000000000000000000000000000100078906261772ROBSON DA SILVA                         TRAVESSA FERREIRAN 0, CASA 7            SANTA CRUZ  23520331RIO DE JANEIRO RJUNIAO UMB DOS CULTOS AFRO BRAS    30051910 000003
10231987175000168916200163100    000044803                    000448030000000000000109                     I0144803     30041900000000040003410000017N130319104700000000000103004190000000000000000000000000000000000000000100078906261772ROBSON DA SILVA                         TRAVESSA FERREIRAN 0, CASA 7            SANTA CRUZ  23520331RIO DE JANEIRO RJUNIAO UMB DOS CULTOS AFRO BRAS    30041910 000004
10231987175000168916200163100    000044802                    000448020000000000000109                     I0144802     25031900000000080003410000017N130319104700000000000102503190000000000000000000000000000000000000000100011622292766ROBERT HELENO MACEDO                    TRAVESSA JOSE CARRETEIRON 175, CASA 12  ENGENHOCA   24110444NITEROI        RJUNIAO UMB DOS CULTOS AFRO BRAS    25031910 000005
10231987175000168916200163100    000044801                    000448010000000000000109                     I0144801     30061900000000040003410000017N130319104700000000000103006190000000000000000000000000000000000000000100010989429733BRUNO FELIPE CANDIDO DE AMORIM          RUA EULINA RIBEIRON 310, APTº 312 - BLOENGENHO DE D20745110RIO DE JANEIRO RJUNIAO UMB DOS CULTOS AFRO BRAS    30061910 000006
10231987175000168916200163100    000044799                    000447990000000000000109                     I0144799     30061900000000040003410000017N130319104700000000000103006190000000000000000000000000000000000000000100007079433703PABLO CARVALHO KIMMEMGS                 RUA MANOEL DE MATTOS SOUZAN 160, CASA 10CAMPO GRANDE23042060RIO DE JANEIRO RJUNIAO UMB DOS CULTOS AFRO BRAS    30061910 000007
10231987175000168916200163100    000044798                    000447980000000000000109                     I0144798     30061900000000040003410000017N130319104700000000000103006190000000000000000000000000000000000000000100013647266701WALLACE BRUNO COUTINHO PEREIRA          RUA RAFAEL WALLACE COUTINHO PEREIRA N 71SANTANA     23811437ITAGUAI        RJUNIAO UMB DOS CULTOS AFRO BRAS    30061910 000008
10231987175000168916200163100    000044797                    000447970000000000000109                     I0144797     30061900000000040003410000017N130319104700000000000103006190000000000000000000000000000000000000000100001662021771ROBERTO DOS SANTOS QUEIROGA             RUA EDGAR BARBOSA N 120,                ANCHIETA    21645190RIO DE JANEIRO RJUNIAO UMB DOS CULTOS AFRO BRAS    30061910 000009
10231987175000168916200163100    000044796                    000447960000000000000109                     I0144796     30061900000000040003410000017N130319104700000000000103006190000000000000000000000000000000000000000100003400539767MARIA SUELI OLIVEIRA NASCIMENT          RUA SAO FRANCISCO XAVIERN 139,          PIABETA     25931414MAGE           RJUNIAO UMB DOS CULTOS AFRO BRAS    30061910 000010
10231987175000168916200163100    000044795                    000447950000000000000109                     I0144795     30061900000000040003410000017N130319104700000000000103006190000000000000000000000000000000000000000100008942864716NARA VANESSA DA SILVEIRA CASTI          AVENIDA NOVA ORLEANSN 113,              VILA CALIFOR23810210ITAGUAI        RJUNIAO UMB DOS CULTOS AFRO BRAS    30061910 000011
10231987175000168916200163100    000044794                    000447940000000000000109                     I0144794     30061900000000040003410000017N130319104700000000000103006190000000000000000000000000000000000000000100010992504716RENATA BARRETO DA SILVA DUARTE          RUA DA PENHAN 44,                       VILA TIRADEN25520721SAO JOAO DE MERRJUNIAO UMB DOS CULTOS AFRO BRAS    30061910 000012
10231987175000168916200163100    000044793                    000447930000000000000109                     I0144793     30061900000000040003410000017N130319104700000000000103006190000000000000000000000000000000000000000100012998933769BRUNO COSTA BATISTA                     RUA MARAPANIMN 0, LOTE 8 QUADRA 21      JARDIM PRIMA25223230DUQUE DE CAXIASRJUNIAO UMB DOS CULTOS AFRO BRAS    30061910 000013
10231987175000168916200163100    000044792                    000447920000000000000109                     I0144792     30061900000000040003410000017N130319104700000000000103006190000000000000000000000000000000000000000100005258854710ALESSANDRA ANDRADE MENDES DE S          RUA DESEMBARGADOR FERREIRA PINTON 0, LOTVALVERDE    26291078NOVA IGUACU    RJUNIAO UMB DOS CULTOS AFRO BRAS    30061910 000014
10231987175000168916200163100    000044791                    000447910000000000000109                     I0144791     30061900000000040003410000017N130319104700000000000103006190000000000000000000000000000000000000000100069893810787MARIA ALICE VENTURA                     AVENIDA DOS EX-COMBATENTESN 0, BLOCO 380SANTA CRUZ  27288110VOLTA REDONDA  RJUNIAO UMB DOS CULTOS AFRO BRAS    30061910 000015
10231987175000168916200163100    000044790                    000447900000000000000109                     I0144790     30061900000000040003410000017N130319104700000000000103006190000000000000000000000000000000000000000100013845707720VAGNER MACENA DE ANDRADE                RUA MARIA HELENAN 170,                  CIDADE HORAC25931346MAGE           RJUNIAO UMB DOS CULTOS AFRO BRAS    30061910 000016
10231987175000168916200163100    000044789                    000447890000000000000109                     I0144789     30061900000000040003410000017N130319104700000000000103006190000000000000000000000000000000000000000100064671208768LEIDIMAR DE LIMA EZEQUIEL               RUA TURMALINAS N 50, LOTE 13 CASA 50    COELHO DA RO25550551SAO JOAO DE MERRJUNIAO UMB DOS CULTOS AFRO BRAS    30061910 000017
10231987175000168916200163100    000044788                    000447880000000000000109                     I0144788     30061900000000040003410000017N130319104700000000000103006190000000000000000000000000000000000000000100081733577734JOSE CARLOS DE ORNELAS SOARES           RUA PROJETADAN 20, CASA 1               LARGO DO MAC28770000SANTA MARIA MADRJUNIAO UMB DOS CULTOS AFRO BRAS    30061910 000018
10231987175000168916200163100    000044787                    000447870000000000000109                     I0144787     30061900000000040003410000017N130319104700000000000103006190000000000000000000000000000000000000000100001873460708ERIKA FERNANDES PINTO                   RUA SAO CARLOSN 347,                    ESTACIO     20250052RIO DE JANEIRO RJUNIAO UMB DOS CULTOS AFRO BRAS    30061910 000019
10231987175000168916200163100    000044786                    000447860000000000000109                     I0144786     30061900000000030003410000017N130319104700000000000103006190000000000000000000000000000000000000000100005789297676RICARDO SALVIO PEREIRA                  RUA CINCON 0, LOTE 13                   RESERVA DO P28921620CABO FRIO      RJUNIAO UMB DOS CULTOS AFRO BRAS    30061910 000020
10231987175000168916200163100    000044785                    000447850000000000000109                     I0144785     30061900000000040003410000017N130319104700000000000103006190000000000000000000000000000000000000000100060642069715NEIDE MARIA DA CONCEICAO BOAVE          RUA SOLDADO VALDEMAR DE ALMEIDAN 28,    CAMPO GRANDE23042100RIO DE JANEIRO RJUNIAO UMB DOS CULTOS AFRO BRAS    30061910 000021
10231987175000168916200163100    000044784                    000447840000000000000109                     I0144784     30061900000000040003410000017N130319104700000000000103006190000000000000000000000000000000000000000100079769985449MARIA DA PENHA DA CONCEICAO             RUA SAO FELIX N 30, QUADRA 46 LOTE 607  VILA SANTA C25260107DUQUE DE CAXIASRJUNIAO UMB DOS CULTOS AFRO BRAS    30061910 000022
10231987175000168916200163100    000044783                    000447830000000000000109                     I0144783     30061900000000040003410000017N130319104700000000000103006190000000000000000000000000000000000000000100093759215734LACY DE SOUZA NERYS                     RUA ARTICA N 77,                        COMENDADOR S26276180NOVA IGUACU    RJUNIAO UMB DOS CULTOS AFRO BRAS    30061910 000023
10231987175000168916200163100    000044782                    000447820000000000000109                     I0144782     30061900000000040003410000017N130319104700000000000103006190000000000000000000000000000000000000000100013300181763JEFFERSON DOUGLAS NASCIMENTO D          RUA ROSA ALVES PACHECON 75,             VALVERDE    26291009NOVA IGUACU    RJUNIAO UMB DOS CULTOS AFRO BRAS    30061910 000024
10231987175000168916200163100    000044781                    000447810000000000000109                     I0144781     30061900000000040003410000017N130319104700000000000103006190000000000000000000000000000000000000000100063796600700KATIA REGINA PINTO PACHECO              RUA JOAO RICARDON 0, LOTE 18 QUADRA 2   NOVO MEXICO 24754080SAO GONCALO    RJUNIAO UMB DOS CULTOS AFRO BRAS    30061910 000025
10231987175000168916200163100    000044780                    000447800000000000000109                     I0144780     30061900000000040003410000017N130319104700000000000103006190000000000000000000000000000000000000000100005346492704VANESSA NEVES DA CONCEICAO              RUA AMERICO VESPUCION 41, CASA          ENGENHEIRO L21370180RIO DE JANEIRO RJUNIAO UMB DOS CULTOS AFRO BRAS    30061910 000026
10231987175000168916200163100    000044779                    000447790000000000000109                     I0144779     30061900000000040003410000017N130319104700000000000103006190000000000000000000000000000000000000000100085838284749NILCE DOS SANTOS GABRIEL                AVENIDA VICENTE DE CARVALHON 1086, RUA FVICENTE DE C21210000RIO DE JANEIRO RJUNIAO UMB DOS CULTOS AFRO BRAS    30061910 000027
10231987175000168916200163100    000044778                    000447780000000000000109                     I0144778     30061900000000040003410000017N130319104700000000000103006190000000000000000000000000000000000000000100016085389744LUCIANO MARTINS DE OLIVEIRA             RUA OITENTA E OITON 50, FUNDOS          TUBIACANGA  21932797RIO DE JANEIRO RJUNIAO UMB DOS CULTOS AFRO BRAS    30061910 000028
10231987175000168916200163100    000044777                    000447770000000000000109                     I0144777     30061900000000040003410000017N130319104700000000000103006190000000000000000000000000000000000000000100009448785712ANDREIA SOUSA SERRA                     RUA BIRIGUIN 4464,                      BOA VISTA   24466190SAO GONCALO    RJUNIAO UMB DOS CULTOS AFRO BRAS    30061910 000029
10231987175000168916200163100    000044776                    000447760000000000000109                     I0144776     30061900000000040003410000017N130319104700000000000103006190000000000000000000000000000000000000000100007717387735VALNICE DA SILVA RODRIGUES MEN          TRAVESSA NOVEN 35, BNH                  VILA VELHA (25912185MAGE           RJUNIAO UMB DOS CULTOS AFRO BRAS    30061910 000030
10231987175000168916200163100    000044775                    000447750000000000000109                     I0144775     30061900000000040003410000017N130319104700000000000103006190000000000000000000000000000000000000000100008990276799VIVIANE DE AGUIAR DINIZ                 RUA RIBEYROLLES N 395,                  COELHO NETO 21530310RIO DE JANEIRO RJUNIAO UMB DOS CULTOS AFRO BRAS    30061910 000031
10231987175000168916200163100    000044774                    000447740000000000000109                     I0144774     30061900000000040003410000017N130319104700000000000103006190000000000000000000000000000000000000000100004131909782SIMONE ANCHIETA DE AMORIM               RUA CAROLINA CARDOSON 0, FD LT 3 QD 1   PILAR       25233150DUQUE DE CAXIASRJUNIAO UMB DOS CULTOS AFRO BRAS    30061910 000032
10231987175000168916200163100    000044773                    000447730000000000000109                     I0144773     30061900000000040003410000017N130319104700000000000103006190000000000000000000000000000000000000000100009607794770ALESSANDRO FRANCISCO DA SILVA           RUA AARAO STEIMBRUCKN 0, LOTE 18 QUADRA VALE DO IPE 26180020BELFORD ROXO   RJUNIAO UMB DOS CULTOS AFRO BRAS    30061910 000033
10231987175000168916200163100    000044772                    000447720000000000000109                     I0144772     30061900000000040003410000017N130319104700000000000103006190000000000000000000000000000000000000000100046556281700VERA LUCIA SILVA DE SOUZA               RUA PEDRO JORION 386,                   COELHO NETO 21530030RIO DE JANEIRO RJUNIAO UMB DOS CULTOS AFRO BRAS    30061910 000034
10231987175000168916200163100    000044771                    000447710000000000000109                     I0144771     30061900000000040003410000017N130319104700000000000103006190000000000000000000000000000000000000000100010663891795SONIA CRISTINA RODRIGUES FONTO          RUA FRANCISCO BUARQUEN 0, LOTES 13 E 14 JARDIM GUAPI25943377GUAPIMIRIM     RJUNIAO UMB DOS CULTOS AFRO BRAS    30061910 000035
10231987175000168916200163100    000044770                    000447700000000000000109                     I0144770     30061900000000040003410000017N130319104700000000000103006190000000000000000000000000000000000000000100004281232796CARLA VEIGA DE FREITAS ROSA             RUA FOMENTON 10, TRAVESSA B             SANTA CRUZ  23555063RIO DE JANEIRO RJUNIAO UMB DOS CULTOS AFRO BRAS    30061910 000036
10231987175000168916200163100    000044769                    000447690000000000000109                     I0144769     30061900000000040003410000017N130319104700000000000103006190000000000000000000000000000000000000000229148311000184CANTINHO DO VOVO REI CONGO E O          RUA CONSELHEIRO AGOSTINHON 55, APARTAMENCACHAMBI    20770160RIO DE JANEIRO RJUNIAO UMB DOS CULTOS AFRO BRAS    30061910 000037
10231987175000168916200163100    000044768                    000447680000000000000109                     I0144768     30061900000000040003410000017N130319104700000000000103006190000000000000000000000000000000000000000100005948651746DIOGO RODRIGUES DOS SANTOS              RUA PETER LUNDN 38, BLOCO 1 APT 407     SAO CRISTOVA20930390RIO DE JANEIRO RJUNIAO UMB DOS CULTOS AFRO BRAS    30061910 000038
10231987175000168916200163100    000044767                    000447670000000000000109                     I0144767     30061900000000040003410000017N130319104700000000000103006190000000000000000000000000000000000000000100011643192728LUCIA FERNANDA DA SILVEIRA              RUA PETROPOLIS N 56,                    VILA DE CAVA26052200NOVA IGUACU    RJUNIAO UMB DOS CULTOS AFRO BRAS    30061910 000039
10231987175000168916200163100    000044766                    000447660000000000000109                     I0144766     30061900000000020003410000017N130319104700000000000103006190000000000000000000000000000000000000000100004116092380CLEUDIOMAR RIBEIRO DA CONCEICA          RUA SANTO ANTONION 20,                  SANTA RITA D65580000TUTOIA         MAUNIAO UMB DOS CULTOS AFRO BRAS    30061910 000040
10231987175000168916200163100    000044765                    000447650000000000000109                     I0144765     30061900000000050003410000017N130319104700000000000103006190000000000000000000000000000000000000000100001860673724FATIMA ANDREA PINTO DE ALMEIDA          AVENIDA PAULO DE FRONTINN 667,          RIO COMPRIDO20261241RIO DE JANEIRO RJUNIAO UMB DOS CULTOS AFRO BRAS    30061910 000041
10231987175000168916200163100    000044764                    000447640000000000000109                     I0144764     30061900000000040003410000017N130319104700000000000103006190000000000000000000000000000000000000000100008109127754DAMIANA CRISTINA SILVA DOS SAN          RUA IGARAPE N 203,                      JARDIM OLAVO25025340DUQUE DE CAXIASRJUNIAO UMB DOS CULTOS AFRO BRAS    30061910 000042
10231987175000168916200163100    000044763                    000447630000000000000109                     I0144763     30061900000000040003410000017N130319104700000000000103006190000000000000000000000000000000000000000100005170208740DJAIR DE PAULA CAVALCANTI               RUA RESTINGAN 0, LOTE 11 QUADRA 35 A - SCAMPO GRANDE23097650RIO DE JANEIRO RJUNIAO UMB DOS CULTOS AFRO BRAS    30061910 000043
10231987175000168916200163100    000044762                    000447620000000000000109                     I0144762     30061900000000040003410000017N130319104700000000000103006190000000000000000000000000000000000000000100029040973768NELSON PEREIRA DE CARVALHO              RUA DO CAMPON 35,                       CONCEICAO DE23885000MANGARATIBA    RJUNIAO UMB DOS CULTOS AFRO BRAS    30061910 000044
10231987175000168916200163100    000044761                    000447610000000000000109                     I0144761     30061900000000040003410000017N130319104700000000000103006190000000000000000000000000000000000000000100003371449742LUCIA HELENA CHAVES MOREIRA             RUA LUISA BARATAN 75, CASA 1            REALENGO    21770230RIO DE JANEIRO RJUNIAO UMB DOS CULTOS AFRO BRAS    30061910 000045
10231987175000168916200163100    000044760                    000447600000000000000109                     I0144760     30061900000000040003410000017N130319104700000000000103006190000000000000000000000000000000000000000100010953053792DANIELE FERNANDES DE CARVALHO           RUA BARROSON 0, CASA 1 LOTE 30 QUADRA 97JARDIM CABUC26291428NOVA IGUACU    RJUNIAO UMB DOS CULTOS AFRO BRAS    30061910 000046
10231987175000168916200163100    000044759                    000447590000000000000109                     I0144759     30061900000000040003410000017N130319104700000000000103006190000000000000000000000000000000000000000100009053488774ANTONIO FERREIRA DE SOUZA               RUA ARTUR MOURAN 171,                   JARDIM NOVA 26272140NOVA IGUACU    RJUNIAO UMB DOS CULTOS AFRO BRAS    30061910 000047
10231987175000168916200163100    000044758                    000447580000000000000109                     I0144758     30061900000000040003410000017N130319104700000000000103006190000000000000000000000000000000000000000100009001361706SOLANGE DE SOUZA                        RUA VASSOURASN 0, LOTE 17               CABUCU      26291440NOVA IGUACU    RJUNIAO UMB DOS CULTOS AFRO BRAS    30061910 000048
10231987175000168916200163100    000044757                    000447570000000000000109                     I0144757     30061900000000040003410000017N130319104700000000000103006190000000000000000000000000000000000000000100000564154784RENATA FERNANDES DA COSTA MEIR          RUA QUINTAON 164,                       QUINTINO BOC21381050RIO DE JANEIRO RJUNIAO UMB DOS CULTOS AFRO BRAS    30061910 000049
10231987175000168916200163100    000044756                    000447560000000000000109                     I0144756     30061900000000040003410000017N130319104700000000000103006190000000000000000000000000000000000000000100001510995706JUPIRA FARIAS DE MATTOS                 ESTRADA ALARICO DE SOUZAN 703, CASA 2   LARGO DA BAT24315320NITEROI        RJUNIAO UMB DOS CULTOS AFRO BRAS    30061910 000050
10231987175000168916200163100    000044755                    000447550000000000000109                     I0144755     30061900000000040003410000017N130319104700000000000103006190000000000000000000000000000000000000000100003544254719EDIJANE PINHEIRO DE LIMA                RUA: DOIS DE JANEIRON 0, LOTE 54 QUADRA CAMPO GRANDE23097588RIO DE JANEIRO RJUNIAO UMB DOS CULTOS AFRO BRAS    30061910 000051
10231987175000168916200163100    000044754                    000447540000000000000109                     I0144754     30061900000000040003410000017N130319104700000000000103006190000000000000000000000000000000000000000100013014823740EUGENIA DA SILVA ALVES PEREIRA          RUA BN 0, LOTE 21 QUADRA 15             JARDIM ANHAN25264570DUQUE DE CAXIASRJUNIAO UMB DOS CULTOS AFRO BRAS    30061910 000052
10231987175000168916200163100    000044753                    000447530000000000000109                     I0144753     30061900000000040003410000017N130319104700000000000103006190000000000000000000000000000000000000000100007078239784MARIA TEREZINHA DE MATOS FIGUE          RUA GUATEMALAN 507,                     PENHA CIRCUL21020170RIO DE JANEIRO RJUNIAO UMB DOS CULTOS AFRO BRAS    30061910 000053
10231987175000168916200163100    000044752                    000447520000000000000109                     I0144752     30061900000000040003410000017N130319104700000000000103006190000000000000000000000000000000000000000100002171972726RAQUEL DE SOUZA MENESES                 RUA ROMERO ZANDER N 271, ENTRADA A - AP RAMOS       21040080RIO DE JANEIRO RJUNIAO UMB DOS CULTOS AFRO BRAS    30061910 000054
10231987175000168916200163100    000044751                    000447510000000000000109                     I0144751     30061900000000040003410000017N130319104700000000000103006190000000000000000000000000000000000000000100007245028745SANDRA REGINA MARQUES                   RUA MIGUEL UNAMUNON 0, LOTE 18 QUADRA 4 JARDIM ROTSE25270120DUQUE DE CAXIASRJUNIAO UMB DOS CULTOS AFRO BRAS    30061910 000055
10231987175000168916200163100    000044750                    000447500000000000000109                     I0144750     30061900000000040003410000017N130319104700000000000103006190000000000000000000000000000000000000000100050660098768ENI MARIA DA CONCEICAO DE MOUR          RUA IPIRANGAN 0, LOTE 24 E 25           BARRO BRANCO25267365DUQUE DE CAXIASRJUNIAO UMB DOS CULTOS AFRO BRAS    30061910 000056
10231987175000168916200163100    000044749                    000447490000000000000109                     I0144749     30061900000000040003410000017N130319104700000000000103006190000000000000000000000000000000000000000100011124747737JOSE DO NASCIMENTO                      RUA JUTAI N 0, LOTE 25 QUADRA 153       OLAVO BILAC 25025290DUQUE DE CAXIASRJUNIAO UMB DOS CULTOS AFRO BRAS    30061910 000057
10231987175000168916200163100    000044748                    000447480000000000000109                     I0144748     30061900000000040003410000017N130319104700000000000103006190000000000000000000000000000000000000000100083883363715ISABEL HELENA CEZARIO MEDEIROS          RUA DUQUE DE CAXIASN 129,               VILA ISABEL 20551050RIO DE JANEIRO RJUNIAO UMB DOS CULTOS AFRO BRAS    30061910 000058
10231987175000168916200163100    000044747                    000447470000000000000109                     I0144747     30061900000000040003410000017N130319104700000000000103006190000000000000000000000000000000000000000100007324540775JAQUELINE DE LIMA ALMEIDA DE J          RUA JOAQUIM ARRUDAN 13, QUADRA 39 LOTE 4JARDIM SAO P25935800MAGE           RJUNIAO UMB DOS CULTOS AFRO BRAS    30061910 000059
10231987175000168916200163100    000044746                    000447460000000000000109                     I0144746     30061900000000040003410000017N130319104700000000000103006190000000000000000000000000000000000000000100012253859702FRANCINY CABRAL FONTES                  AVENIDA HUMBERTO SOEIRO DE CARVALHON 0, IPITUNA     28550000SAO SEBASTIAO DRJUNIAO UMB DOS CULTOS AFRO BRAS    30061910 000060
10231987175000168916200163100    000044745                    000447450000000000000109                     I0144745     30061900000000040003410000017N130319104700000000000103006190000000000000000000000000000000000000000100088763765772VERONICA CECILIA DE AGUIAR              RUA LAURELINO FREIREN 101, CASA 7       GUAXINDIBA  24722330SAO GONCALO    RJUNIAO UMB DOS CULTOS AFRO BRAS    30061910 000061
10231987175000168916200163100    000044744                    000447440000000000000109                     I0144744     30061900000000040003410000017N130319104700000000000103006190000000000000000000000000000000000000000100000840541740JUCIARA GONCALVES NEPOMUCENO            RUA CASTRO VIEIRAN 174,                 AREIA BRANCA26112360BELFORD ROXO   RJUNIAO UMB DOS CULTOS AFRO BRAS    30061910 000062
10231987175000168916200163100    000044743                    000447430000000000000109                     I0144743     30061900000000040003410000017N130319104700000000000103006190000000000000000000000000000000000000000100082327378753GRACA MARIA BRUNO DE SOUZA SIL          RUA ACACIO TORRES N 60, CASA 1          OLINDA      26545500NILOPOLIS      RJUNIAO UMB DOS CULTOS AFRO BRAS    30061910 000063
10231987175000168916200163100    000044742                    000447420000000000000109                     I0144742     30061900000000040003410000017N130319104700000000000103006190000000000000000000000000000000000000000100033584486734DAGMAR ELIDE DA SILVA PEREIRA           RUA CARLOS PALUT N 510, BLOCO 3 APARTAMETAQUARA     22710310RIO DE JANEIRO RJUNIAO UMB DOS CULTOS AFRO BRAS    30061910 000064
10231987175000168916200163100    000044741                    000447410000000000000109                     I0144741     30061900000000040003410000017N130319104700000000000103006190000000000000000000000000000000000000000100009142845769MICHELE OAZEM MINEIRO                   RUA CARIOCAN 0, LOTE 10 QUADRA B        SAO BERNARDO26167210BELFORD ROXO   RJUNIAO UMB DOS CULTOS AFRO BRAS    30061910 000065
10231987175000168916200163100    000044740                    000447400000000000000109                     I0144740     30061900000000040003410000017N130319104700000000000103006190000000000000000000000000000000000000000100063464470768ROBSON DE OLIVEIRA ELIZIARIO            RUA GARCIA REDONDON 81, APTº 502       CACHAMBI    20775170RIO DE JANEIRO RJUNIAO UMB DOS CULTOS AFRO BRAS    30061910 000066
10231987175000168916200163100    000044739                    000447390000000000000109                     I0144739     30061900000000040003410000017N130319104700000000000103006190000000000000000000000000000000000000000100013376872783ELIANE MENDES DA SILVA                  RUA BECO BARREIRAN 68,                  SANTA CRUZ  23555110RIO DE JANEIRO RJUNIAO UMB DOS CULTOS AFRO BRAS    30061910 000067
10231987175000168916200163100    000044738                    000447380000000000000109                     I0144738     30061900000000040003410000017N130319104700000000000103006190000000000000000000000000000000000000000100089308956700COSME NEVES ARRUDA                      RUA SANTA CRISTINAN 98, CASA 5          SANTA TEREZA20241250RIO DE JANEIRO RJUNIAO UMB DOS CULTOS AFRO BRAS    30061910 000068
10231987175000168916200163100    000044737                    000447370000000000000109                     I0144737     30061900000000040003410000017N130319104700000000000103006190000000000000000000000000000000000000000100034463399300MARIA ENOIA DE SOUSA CORREA             RUA RODEZIAN 37, CASA 1                 BANCARIOS   21910145RIO DE JANEIRO RJUNIAO UMB DOS CULTOS AFRO BRAS    30061910 000069
10231987175000168916200163100    000044736                    000447360000000000000109                     I0144736     30061900000000040003410000017N130319104700000000000103006190000000000000000000000000000000000000000100000101414722CELIA REGINA CARVALHO                   RUA FELIPE CAMARAO N 310, BAR DA VALERIARETIRO      25680510PETROPOLIS     RJUNIAO UMB DOS CULTOS AFRO BRAS    30061910 000070
10231987175000168916200163100    000044735                    000447350000000000000109                     I0144735     30061900000000040003410000017N130319104700000000000103006190000000000000000000000000000000000000000100002085972713ELIANE DOMINGOS DE SOUZA                RUA CAROBEIRA N 165,                    CINCO MARIA 23032110GUARATIBA      RJUNIAO UMB DOS CULTOS AFRO BRAS    30061910 000071
10231987175000168916200163100    000044734                    000447340000000000000109                     I0144734     30061900000000040003410000017N130319104700000000000103006190000000000000000000000000000000000000000100000848852702RODNEY MARQUES                          RUA PEREIRA LEITAON 4, A                TURIACU     21550100RIO DE JANEIRO RJUNIAO UMB DOS CULTOS AFRO BRAS    30061910 000072
10231987175000168916200163100    000044733                    000447330000000000000109                     I0144733     30061900000000040003410000017N130319104700000000000103006190000000000000000000000000000000000000000100008030521707MONICA MIRANDA DE BARROS                RUA VISCONDE DE TOCANTIS N 43, APTº 403MEIER       20775070RIO DE JANEIRO RJUNIAO UMB DOS CULTOS AFRO BRAS    30061910 000073
10231987175000168916200163100    000044732                    000447320000000000000109                     I0144732     30061900000000040003410000017N130319104700000000000103006190000000000000000000000000000000000000000100002101171767HELENA DE JESUS                         RUA JOAO ROMEIRON 37, CASA 3            CASCADURA   21311000RIO DE JANEIRO RJUNIAO UMB DOS CULTOS AFRO BRAS    30061910 000074
10231987175000168916200163100    000044731                    000447310000000000000109                     I0144731     30061900000000040003410000017N130319104700000000000103006190000000000000000000000000000000000000000100032140649320ROSA ELENA ALVES DA COSTA               RUA: NILTON CORDEIRON 57, CASA          MARE        21044052RIO DE JANEIRO RJUNIAO UMB DOS CULTOS AFRO BRAS    30061910 000075
10231987175000168916200163100    000044730                    000447300000000000000109                     I0144730     30061900000000040003410000017N130319104700000000000103006190000000000000000000000000000000000000000100073943266753LAINE VERONICA ALVES MONTEIRO           RUA: SEABRA SOBRINHO N 749, CASA 1      VILA CENTENA25030190DUQUE DE CAXIASRJUNIAO UMB DOS CULTOS AFRO BRAS    30061910 000076
10231987175000168916200163100    000044729                    000447290000000000000109                     I0144729     30061900000000040003410000017N130319104700000000000103006190000000000000000000000000000000000000000100008068599703CLEIDE JANE ROCHA CONTE                 RUA: CN 111, CASA 1                     PARQUE AMORI26185342BELFORD ROXO   RJUNIAO UMB DOS CULTOS AFRO BRAS    30061910 000077
10231987175000168916200163100    000044728                    000447280000000000000109                     I0144728     30061900000000040003410000017N130319104700000000000103006190000000000000000000000000000000000000000100016931588761IGOR RODRIGUES DA SILVA                 RUA: EMBAUN 1822, PARQUE COLUMBIA       PAVUNA      21535000RIO DE JANEIRO RJUNIAO UMB DOS CULTOS AFRO BRAS    30061910 000078
10231987175000168916200163100    000044727                    000447270000000000000109                     I0144727     30061900000000040003410000017N130319104700000000000103006190000000000000000000000000000000000000000100008379116720ALLAN SOUZA PEREIRA FERREIRA            BECO DOS SONHOSN 9,                     SANTA CRUZ  23591400RIO DE JANEIRO RJUNIAO UMB DOS CULTOS AFRO BRAS    30061910 000079
10231987175000168916200163100    000044726                    000447260000000000000109                     I0144726     30061900000000040003410000017N130319104700000000000103006190000000000000000000000000000000000000000100007403387732MARCOS MAURICIO DOS SANTOS COS          RUA: BOA VISTAN 299,                    CARAMUJO    24140460NITEROI        RJUNIAO UMB DOS CULTOS AFRO BRAS    30061910 000080
10231987175000168916200163100    000044725                    000447250000000000000109                     I0144725     30061900000000040003410000017N130319104700000000000103006190000000000000000000000000000000000000000100099447690700CARLA LESSA QUINTANILHA VASCON          RUA: BORBOREMAN 103, CASA 201           MADUREIRA   21360150RIO DE JANEIRO RJUNIAO UMB DOS CULTOS AFRO BRAS    30061910 000081
10231987175000168916200163100    000044724                    000447240000000000000109                     I0144724     30061900000000040003410000017N130319104700000000000103006190000000000000000000000000000000000000000100008566591771TAISSA RIBEIRO PETRA MELLO              RODOVIA AMARAL PEIXOTON 0, KM 29 QUADRA FLAMENGO    24904140MARICA         RJUNIAO UMB DOS CULTOS AFRO BRAS    30061910 000082
10231987175000168916200163100    000044723                    000447230000000000000109                     I0144723     30061900000000040003410000017N130319104700000000000103006190000000000000000000000000000000000000000100014165634743GLAUBER VINICIUS DE ALMEIDA BA          RUA SAO CARLOSN 75,                     ESTACIO     20250052RIO DE JANEIRO RJUNIAO UMB DOS CULTOS AFRO BRAS    30061910 000083
10231987175000168916200163100    000044722                    000447220000000000000109                     I0144722     30061900000000040003410000017N130319104700000000000103006190000000000000000000000000000000000000000100095906746749KATIA LOPES SOARES                      ESTRADA PAU DA FOMEN 3265,              TAQUARA     22723347RIO DE JANEIRO RJUNIAO UMB DOS CULTOS AFRO BRAS    30061910 000084
10231987175000168916200163100    000044721                    000447210000000000000109                     I0144721     30061900000000040003410000017N130319104700000000000103006190000000000000000000000000000000000000000100012303421764PEDRO JONAS ARAUJO CORDEIRO             RUA JOSE LIMA DA SILVAN 0, LOTE 7 QUADRASANTA RITA  26185610BELFORD ROXO   RJUNIAO UMB DOS CULTOS AFRO BRAS    30061910 000085
10231987175000168916200163100    000044720                    000447200000000000000109                     I0144720     30061900000000040003410000017N130319104700000000000103006190000000000000000000000000000000000000000100000000000000REINALDO FERREIRA DOS SANTOS            RUA LESTEN 5,                           JARDIM PARAI26297294NOVA IGUACU    RJUNIAO UMB DOS CULTOS AFRO BRAS    30061910 000086
10231987175000168916200163100    000044719                    000447190000000000000109                     I0144719     30061900000000040003410000017N130319104700000000000103006190000000000000000000000000000000000000000100003413776789CRISTIANE DE SOUZA GALANTE INA          BECO DA SERVIDAON 70, CASA 3            ENGENHEIRO B25520370SAO JOAO DE MERRJUNIAO UMB DOS CULTOS AFRO BRAS    30061910 000087
10231987175000168916200163100    000044718                    000447180000000000000109                     I0144718     30061900000000040003410000017N130319104700000000000103006190000000000000000000000000000000000000000100085965871791VALERIA MENDES BARBOSA DOS SAN          RUA PAULINA SENDERN 118, CASA 1B        JARDIM NOVA 26266140NOVA IGUACU    RJUNIAO UMB DOS CULTOS AFRO BRAS    30061910 000088
10231987175000168916200163100    000044717                    000447170000000000000109                     I0144717     30061900000000040003410000017N130319104700000000000103006190000000000000000000000000000000000000000100008323642745ROSEMERI DE SOUZA COUTINHO              RUA VERA LUCIA N 0, LOTE 20 QUADRA 3    CABUCU      26291452NOVA IGUACU    RJUNIAO UMB DOS CULTOS AFRO BRAS    30061910 000089
10231987175000168916200163100    000044716                    000447160000000000000109                     I0144716     30061900000000040003410000017N130319104700000000000103006190000000000000000000000000000000000000000100007147220730LUIS CARLOS DA COSTA OLIVEIRA           RUA MINAS GERAIS N 0, LOTE 11 QUADRA 159CAMPO ALEGRE26292141NOVA IGUACU    RJUNIAO UMB DOS CULTOS AFRO BRAS    30061910 000090
10231987175000168916200163100    000044715                    000447150000000000000109                     I0144715     30061900000000040003410000017N130319104700000000000103006190000000000000000000000000000000000000000100002834617724LUCIANA CLEMENTE DAS NEVES              RUA INACIO TOSTAN 306, CASA 2           HONORIO GURG21511180RIO DE JANEIRO RJUNIAO UMB DOS CULTOS AFRO BRAS    30061910 000091
10231987175000168916200163100    000044714                    000447140000000000000109                     I0144714     30061900000000040003410000017N130319104700000000000103006190000000000000000000000000000000000000000100036139050782VIRGINIA DANTAS FERREIRA                RUA PROFESSOR ALPHEU PORTELA N 127, CONDTAQUARA     22725130RIO DE JANEIRO RJUNIAO UMB DOS CULTOS AFRO BRAS    30061910 000092
10231987175000168916200163100    000044713                    000447130000000000000109                     I0144713     30061900000000040003410000017N130319104700000000000103006190000000000000000000000000000000000000000100009060523784MARTA ANJOS PEREIRA DO NASCIME          AVENIDA DOM HELDER CAMARAN 855, BLOCO 25BENFICA     20973011RIO DE JANEIRO RJUNIAO UMB DOS CULTOS AFRO BRAS    30061910 000093
10231987175000168916200163100    000044712                    000447120000000000000109                     I0144712     30061900000000040003410000017N130319104700000000000103006190000000000000000000000000000000000000000100001483061795MARCIO NUNES BARBOSA                    RUA CHAPIMN 141, CASA 141 (ANTIGA RUA 13JARDIM BANGU21865390RIO DE JANEIRO RJUNIAO UMB DOS CULTOS AFRO BRAS    30061910 000094
10231987175000168916200163100    000044711                    000447110000000000000109                     I0144711     30061900000000040003410000017N130319104700000000000103006190000000000000000000000000000000000000000100003389142770VANIA VIEIRA                            RUA NAMURN 276, CASA 2                  VILA VALQUEI21330600RIO DE JANEIRO RJUNIAO UMB DOS CULTOS AFRO BRAS    30061910 000095
10231987175000168916200163100    000044710                    000447100000000000000109                     I0144710     30061900000000040003410000017N130319104700000000000103006190000000000000000000000000000000000000000100008350095725LUIZ LUCIANO ADAO                       RUA ALAGOASN 226, FUNDOS                SANTA CRUZ D25255070DUQUE DE CAXIASRJUNIAO UMB DOS CULTOS AFRO BRAS    30061910 000096
10231987175000168916200163100    000044709                    000447090000000000000109                     I0144709     30061900000000040003410000017N130319104700000000000103006190000000000000000000000000000000000000000100001359669736JUCILENE DOS SANTOS GALVAO              RUA ALICE FREITAS N 355, FUNDOS         VICENTE DE C21371220RIO DE JANEIRO RJUNIAO UMB DOS CULTOS AFRO BRAS    30061910 000097
10231987175000168916200163100    000044708                    000447080000000000000109                     I0144708     30061900000000040003410000017N130319104700000000000103006190000000000000000000000000000000000000000100007202542722MIRLA SUSANI DA SILVA SALES             RUA: DOUTOR FREDERICON 395,             LAGOINHA    26296414NOVA IGUACU    RJUNIAO UMB DOS CULTOS AFRO BRAS    30061910 000098
10231987175000168916200163100    000044707                    000447070000000000000109                     I0144707     30061900000000040003410000017N130319104700000000000103006190000000000000000000000000000000000000000100034727272768JOSEFINA AGUIAR CASTRO                  RUA DOUTOR NELSON FERNANDESN 8, B       PARQUE CAPIV25900000DUQUE DE CAXIASRJUNIAO UMB DOS CULTOS AFRO BRAS    30061910 000099
10231987175000168916200163100    000044706                    000447060000000000000109                     I0144706     30061900000000040003410000017N130319104700000000000103006190000000000000000000000000000000000000000100068117850710GILCLEIDE DOS SANTOS GOMES              AVENIDA: JOAO VINTE E TRES N 1900, RUA DSANTA CRUZ  23560352RIO DE JANEIRO RJUNIAO UMB DOS CULTOS AFRO BRAS    30061910 000100
10231987175000168916200163100    000044705                    000447050000000000000109                     I0144705     30061900000000040003410000017N130319104700000000000103006190000000000000000000000000000000000000000100008283050800JOSE RICARDO DE MOURA                   RUA TENENTE SILVINON 204,               CERAMICA    26030126NOVA IGUACU    RJUNIAO UMB DOS CULTOS AFRO BRAS    30061910 000101
10231987175000168916200163100    000044704                    000447040000000000000109                     I0144704     30061900000000040003410000017N130319104700000000000103006190000000000000000000000000000000000000000100016840152782DARIO JOSE DA SILVA FILHO               RUA: ALTANEIRA N 0, LOTE 9 QUADRA F     CAMPO GRANDE23095060RIO DE JANEIRO RJUNIAO UMB DOS CULTOS AFRO BRAS    30061910 000102
10231987175000168916200163100    000044703                    000447030000000000000109                     I0144703     30061900000000040003410000017N130319104700000000000103006190000000000000000000000000000000000000000100075164779749IVANILDO FURTADO DA SILVA               RUA: LUIZ DE CASTRON 206, FUNDOS        PILARES     21760732RIO DE JANEIRO RJUNIAO UMB DOS CULTOS AFRO BRAS    30061910 000103
10231987175000168916200163100    000044702                    000447020000000000000109                     I0144702     30061900000000040003410000017N130319104700000000000103006190000000000000000000000000000000000000000100002098051700FELIPE LOPES DA COSTA CHAVES            RUA: JOSE PINTO FAUSTINON 0, LOTE 14 QUAIPIRANGA    26293441NOVA IGUACU    RJUNIAO UMB DOS CULTOS AFRO BRAS    30061910 000104
10231987175000168916200163100    000044701                    000447010000000000000109                     I0144701     30061900000000040003410000017N130319104700000000000103006190000000000000000000000000000000000000000100003134182769SANDRA HELENA DA SILVA                  RUA MARIA MACHADO PANZAN 15,            PACHECO     24732200SAO GONCALO    RJUNIAO UMB DOS CULTOS AFRO BRAS    30061910 000105
10231987175000168916200163100    000044700                    000447000000000000000109                     I0144700     30061900000000040003410000017N130319104700000000000103006190000000000000000000000000000000000000000100012119575789RAYKA DA SILVA BATISTA                  RUA PARAISON 33,                        PIABETA     25931638MAGE           RJUNIAO UMB DOS CULTOS AFRO BRAS    30061910 000106
10231987175000168916200163100    000044699                    000446990000000000000109                     I0144699     30061900000000040003410000017N130319104700000000000103006190000000000000000000000000000000000000000100001105664759NANCI GOMES BORGES PINTO                RUA: ORLANDO FRANCISCO JUNIORN 0, LOTE 2CAMPO LINDO 23898435SEROPEDICA     RJUNIAO UMB DOS CULTOS AFRO BRAS    30061910 000107
10231987175000168916200163100    000044698                    000446980000000000000109                     I0144698     30061900000000040003410000017N130319104700000000000103006190000000000000000000000000000000000000000100053177827753CREUZA FREITAS DOS SANTOS               RUA HERMES DA SILVA N 63, A             SANTA CRUZ  23550155RIO DE JANEIRO RJUNIAO UMB DOS CULTOS AFRO BRAS    30061910 000108
10231987175000168916200163100    000044697                    000446970000000000000109                     I0144697     30061900000000040003410000017N130319104700000000000103006190000000000000000000000000000000000000000100002414887702MARGARETH MARIA DA SILVA GONCA          RUA: SEBASTIAO DE CARVALHON 158,        RAMOS       21061670RIO DE JANEIRO RJUNIAO UMB DOS CULTOS AFRO BRAS    30061910 000109
10231987175000168916200163100    000044696                    000446960000000000000109                     I0144696     30061900000000040003410000017N130319104700000000000103006190000000000000000000000000000000000000000100066645352700NILZA BELISARIO DAMIAO                  ESTRADA SANTA VERIDIANA N 1400, BLOCO 1 SANTA CRUZ  23525254RIO DE JANEIRO RJUNIAO UMB DOS CULTOS AFRO BRAS    30061910 000110
10231987175000168916200163100    000044695                    000446950000000000000109                     I0144695     30061900000000040003410000017N130319104700000000000103006190000000000000000000000000000000000000000100009572644700FABIO DE SOUZA BARBOSA                  RUA NOSSA SENHORA DA PAZ N 11, CASA     MANGUEIRA   20941440RIO DE JANEIRO RJUNIAO UMB DOS CULTOS AFRO BRAS    30061910 000111
10231987175000168916200163100    000044694                    000446940000000000000109                     I0144694     30061900000000040003410000017N130319104700000000000103006190000000000000000000000000000000000000000100001786216760WASHINGTON FERNANDO DA CONCEIC          RUA DONA ELVIRAN 0, LOTE 18 QUADRA 61 CANOVO HORIZON25937112MAGE           RJUNIAO UMB DOS CULTOS AFRO BRAS    30061910 000112
10231987175000168916200163100    000044693                    000446930000000000000109                     I0144693     30061900000000040003410000017N130319104700000000000103006190000000000000000000000000000000000000000100053860225120OTILIA REGINA DE ALENCAR                RUA ITAPEMIRIMN 87,                     SANTA CRUZ  23550310RIO DE JANEIRO RJUNIAO UMB DOS CULTOS AFRO BRAS    30061910 000113
10231987175000168916200163100    000044692                    000446920000000000000109                     I0144692     30061900000000040003410000017N130319104700000000000103006190000000000000000000000000000000000000000100092802737791CARMEN DEA NOGUEIRA DIAS                AVENIDA MACHADO DE ASSISN 0, LOTE 17 QUAVILA IBIRAPI23811820ITAGUAI        RJUNIAO UMB DOS CULTOS AFRO BRAS    30061910 000114
10231987175000168916200163100    000044691                    000446910000000000000109                     I0144691     30061900000000040003410000017N130319104700000000000103006190000000000000000000000000000000000000000100014328358740SILAS BARBOSA DE SOUZA                  ESTRADA REAL DE MAUA N 1901, CASA 11 TRAJARDIM DA PA25926684RIO DE JANEIRO RJUNIAO UMB DOS CULTOS AFRO BRAS    30061910 000115
10231987175000168916200163100    000044690                    000446900000000000000109                     I0144690     30061900000000040003410000017N130319104700000000000103006190000000000000000000000000000000000000000100074641980772IRENE MARQUES DA MOTA                   RUA: PORTO CAMARGON 0, CASA 1 LOTE 9 QUAJARDIM MARAV23033170GUARATIBA      RJUNIAO UMB DOS CULTOS AFRO BRAS    30061910 000116
10231987175000168916200163100    000044689                    000446890000000000000109                     I0144689     30061900000000040003410000017N130319104700000000000103006190000000000000000000000000000000000000000100005818072789MARLUCE MARIA DE OLIVEIRA               RUA PAHANDN 0, LOTE 20 QUADRA 10        SANTA TEREZA26193500BELFORD ROXO   RJUNIAO UMB DOS CULTOS AFRO BRAS    30061910 000117
10231987175000168916200163100    000044688                    000446880000000000000109                     I0144688     30061900000000040003410000017N130319104700000000000103006190000000000000000000000000000000000000000100029759030730JOSE ROBERTO MELLO COIMBRA              RUA SALVADOR SABATEN 311,               REALENGO    21760020RIO DE JANEIRO RJUNIAO UMB DOS CULTOS AFRO BRAS    30061910 000118
10231987175000168916200163100    000044687                    000446870000000000000109                     I0144687     30061900000000040003410000017N130319104700000000000103006190000000000000000000000000000000000000000100010212584740TIAGO VEROL DE SOUZA                    ESTRADA: DO VIEGASN 28, CASA 4          SENADOR CAMA21832006RIO DE JANEIRO RJUNIAO UMB DOS CULTOS AFRO BRAS    30061910 000119
10231987175000168916200163100    000044686                    000446860000000000000109                     I0144686     30061900000000040003410000017N130319104700000000000103006190000000000000000000000000000000000000000100001860329780VIVIANE DE PAULA AGNELO                 RUA DA VITORIAN 175,                    PARAISO     26297138NOVA IGUACU    RJUNIAO UMB DOS CULTOS AFRO BRAS    30061910 000120
10231987175000168916200163100    000044685                    000446850000000000000109                     I0144685     30061900000000040003410000017N130319104700000000000103006190000000000000000000000000000000000000000100007416975727ANGELICA AMARAL GOTELIP BARBOS          RUA MARECHAL MARCIANO - TRAVESSA 120N 0,REALENGO    21735652RIO DE JANEIRO RJUNIAO UMB DOS CULTOS AFRO BRAS    30061910 000121
10231987175000168916200163100    000044684                    000446840000000000000109                     I0144684     30061900000000040003410000017N130319104700000000000103006190000000000000000000000000000000000000000100009350031779TAIS AZEVEDO DOS SANTOS CAMPOS          RUA: CLOTILDE DE OLIVEIRA RODRIGUESN 46,FONSECA     24120170NITEROI        RJUNIAO UMB DOS CULTOS AFRO BRAS    30061910 000122
10231987175000168916200163100    000044683                    000446830000000000000109                     I0144683     30061900000000040003410000017N130319104700000000000103006190000000000000000000000000000000000000000100009297297730FLAVIO JOAQUIM DOS SANTOS               RUA: SAO PAULON 0,                      PALMARES    23585800RIO DE JANEIRO RJUNIAO UMB DOS CULTOS AFRO BRAS    30061910 000123
10231987175000168916200163100    000044682                    000446820000000000000109                     I0144682     30061900000000040003410000017N130319104700000000000103006190000000000000000000000000000000000000000100008283706721LEVY ANDRE ASSIS FERREIRA DA S          TRAVESSA SANTO ANTONIO N 462, CASA 2    MARECHAL HER21557190RIO DE JANEIRO RJUNIAO UMB DOS CULTOS AFRO BRAS    30061910 000124
10231987175000168916200163100    000044681                    000446810000000000000109                     I0144681     30061900000000040003410000017N130319104700000000000103006190000000000000000000000000000000000000000100010440702771AMANDA APARECIDA AZEVEDO CARDO          TRAVESSA MANOELN 5, VILA VERDE          CAMPO GRANDE23071160RIO DE JANEIRO RJUNIAO UMB DOS CULTOS AFRO BRAS    30061910 000125
10231987175000168916200163100    000044680                    000446800000000000000109                     I0144680     30061900000000040003410000017N130319104700000000000103006190000000000000000000000000000000000000000100011709990775JOYCE MARA PINHEIRO DA SILVA            RUA SILVIO TIBIRICAN 507,               TURIACU     21540200RIO DE JANEIRO RJUNIAO UMB DOS CULTOS AFRO BRAS    30061910 000126
10231987175000168916200163100    000044679                    000446790000000000000109                     I0144679     30061900000000040003410000017N130319104700000000000103006190000000000000000000000000000000000000000100014963009714MICHELLE DA SILVA SOARES                RUA DONA CELINAN 215,                   PIABETA     25935702MAGE           RJUNIAO UMB DOS CULTOS AFRO BRAS    30061910 000127
10231987175000168916200163100    000044678                    000446780000000000000109                     I0144678     30061900000000040003410000017N130319104700000000000103006190000000000000000000000000000000000000000100002305172770VALDIRENE ALBUQUERQUE MARCIEL           RUA GUARAGUATATUBAN 320,                VILA ROSARIO25030040DUQUE DE CAXIASRJUNIAO UMB DOS CULTOS AFRO BRAS    30061910 000128
10231987175000168916200163100    000044677                    000446770000000000000109                     I0144677     30061900000000040003410000017N130319104700000000000103006190000000000000000000000000000000000000000100000213766701ROSIVANIA CRUZ DA SILVA                 RUA PRIMEIRAN 0, BLOCO 2                SANTA CRUZ  23515180RIO DE JANEIRO RJUNIAO UMB DOS CULTOS AFRO BRAS    30061910 000129
10231987175000168916200163100    000044676                    000446760000000000000109                     I0144676     30061900000000040003410000017N130319104700000000000103006190000000000000000000000000000000000000000100085737437787NIVALDA PIRES RUFINO                    RUA: MARIO CARPENTERN 830,              ABOLICAO    20755065RIO DE JANEIRO RJUNIAO UMB DOS CULTOS AFRO BRAS    30061910 000130
10231987175000168916200163100    000044675                    000446750000000000000109                     I0144675     30061900000000040003410000017N130319104700000000000103006190000000000000000000000000000000000000000100005380679773ROBERTO DE OLIVEIRA RIBEIRO JU          RUA VINTE E TRESN 149, CASA 2 QUADRA 7  CONJUNTO CES23500000RIO DE JANEIRO RJUNIAO UMB DOS CULTOS AFRO BRAS    30061910 000131
10231987175000168916200163100    000044674                    000446740000000000000109                     I0144674     30061900000000040003410000017N130319104700000000000103006190000000000000000000000000000000000000000100006485913793IASMIM SANTANA DA SILVA DE OLI          RUA CLEITON LUIZ VIEIRAN 24,            BANGU       23095700RIO DE JANEIRO RJUNIAO UMB DOS CULTOS AFRO BRAS    30061910 000132
10231987175000168916200163100    000044673                    000446730000000000000109                     I0144673     30061900000000040003410000017N130319104700000000000103006190000000000000000000000000000000000000000100052889378772ANGELA MARIA DA SILVA ANDRADE           RUA WILSON GIL DA MATTAN 240, CASA 3    CENTRO      25515101SAO JOAO DE MERRJUNIAO UMB DOS CULTOS AFRO BRAS    30061910 000133
10231987175000168916200163100    000044672                    000446720000000000000109                     I0144672     30061900000000040003410000017N130319104700000000000103006190000000000000000000000000000000000000000100001244562785LUIS CARLOS RIBEIRO                     RUA: NEIDE AFONSON 0, LOTE 5 QUADRA 14  SHANGRILA RO26150020BELFORD ROXO   RJUNIAO UMB DOS CULTOS AFRO BRAS    30061910 000134
10231987175000168916200163100    000044671                    000446710000000000000109                     I0144671     30061900000000040003410000017N130319104700000000000103006190000000000000000000000000000000000000000100003256338780REGINALDO ROSA DA SILVA                 RUA: TOMINASN 341,                      IPIRANGA ALI26293381NOVA IGUACU    RJUNIAO UMB DOS CULTOS AFRO BRAS    30061910 000135
10231987175000168916200163100    000044670                    000446700000000000000109                     I0144670     30061900000000040003410000017N130319104700000000000103006190000000000000000000000000000000000000000100041998839753MARIA HELENA FERREIRA DA SILVA          RUA: SEBASTIAO DE OLIVEIRAN 2,          PACIENCIA   23595100RIO DE JANEIRO RJUNIAO UMB DOS CULTOS AFRO BRAS    30061910 000136
10231987175000168916200163100    000044669                    000446690000000000000109                     I0144669     30061900000000040003410000017N130319104700000000000103006190000000000000000000000000000000000000000100093521987787KATIA CRISTINA DANNEMBERG               ESTRADA DO PORTINHON 149, CASA          IRAJA       21235400RIO DE JANEIRO RJUNIAO UMB DOS CULTOS AFRO BRAS    30061910 000137
10231987175000168916200163100    000044668                    000446680000000000000109                     I0144668     30061900000000040003410000017N130319104700000000000103006190000000000000000000000000000000000000000100093678754791ROSINETE MARIA DE OLIVEIRA              RUA ANGOLA N 24, ANTIGA RUA 9           CAPIVARI    25145080DUQUE DE CAXIASRJUNIAO UMB DOS CULTOS AFRO BRAS    30061910 000138
10231987175000168916200163100    000044667                    000446670000000000000109                     I0144667     30061900000000040003410000017N130319104700000000000103006190000000000000000000000000000000000000000100009289778709HELAINE FRANKLIN TEIXEIRA               RUA: CACHOEIRA ALTA N 0, LOTE 17 QUADRA JARDIM MARAV23031070CAMPO GRANDE   RJUNIAO UMB DOS CULTOS AFRO BRAS    30061910 000139
10231987175000168916200163100    000044666                    000446660000000000000109                     I0144666     30061900000000040003410000017N130319104700000000000103006190000000000000000000000000000000000000000100069852219715GREIZI DE CARVALHO CARVALHAES           RUA BUENOS AIRESN 531,                  JARDIM PERNA26275390NOVA IGUACU    RJUNIAO UMB DOS CULTOS AFRO BRAS    30061910 000140
10231987175000168916200163100    000044665                    000446650000000000000109                     I0144665     30061900000000040003410000017N130319104700000000000103006190000000000000000000000000000000000000000100001096953722CLAUDIA GUIMARAES                       ESTRADA GUANDU DO SENA - RUA 29N 0, QUADCAMPO GRANDE23091220RIO DE JANEIRO RJUNIAO UMB DOS CULTOS AFRO BRAS    30061910 000141
10231987175000168916200163100    000044664                    000446640000000000000109                     I0144664     30061900000000040003410000017N130319104700000000000103006190000000000000000000000000000000000000000100080091229715MARCO ANTONIO DE OLIVEIRA TEIX          RUA: QUARENTA E UM N 0, QUADRA 47 LOTE 3JARDIM NOSSA23097260CAMPO GRANDE   RJUNIAO UMB DOS CULTOS AFRO BRAS    30061910 000142
10231987175000168916200163100    000044663                    000446630000000000000109                     I0144663     30061900000000040003410000017N130319104700000000000103006190000000000000000000000000000000000000000100046840117715TERESA CRISTINA DE MELLO SOARE          RUA CANUTAMAN 119,                      OSWALDO CRUZ21340440RIO DE JANEIRO RJUNIAO UMB DOS CULTOS AFRO BRAS    30061910 000143
10231987175000168916200163100    000044662                    000446620000000000000109                     I0144662     30061900000000040003410000017N130319104700000000000103006190000000000000000000000000000000000000000100095760024787LUCIMARA DIAS DE OLIVEIRA               RUA SANTO ELIASN 43,                    TURIACU     21540390RIO DE JANEIRO RJUNIAO UMB DOS CULTOS AFRO BRAS    30061910 000144
10231987175000168916200163100    000044661                    000446610000000000000109                     I0144661     30061900000000040003410000017N130319104700000000000103006190000000000000000000000000000000000000000100027503607734FRANCISCA DA ROCHA TORRES               RUA: FERNANDES BASTOSN 104,             IRAJA       21361550RIO DE JANEIRO RJUNIAO UMB DOS CULTOS AFRO BRAS    30061910 000145
10231987175000168916200163100    000044660                    000446600000000000000109                     I0144660     30061900000000040003410000017N130319104700000000000103006190000000000000000000000000000000000000000100003443839703ANDERSON FERNANDES DE PAIVA             RUA: JUDITE GUERRAN 142,                PAVUNA      21520260RIO DE JANEIRO RJUNIAO UMB DOS CULTOS AFRO BRAS    30061910 000146
10231987175000168916200163100    000044659                    000446590000000000000109                     I0144659     30061900000000040003410000017N130319104700000000000103006190000000000000000000000000000000000000000100003654035710ELLEN CRISTINA DE ORNELAS NARC          RUA MARECHAL MARCIANO N 648,            REALENGO    21721011RIO DE JANEIRO RJUNIAO UMB DOS CULTOS AFRO BRAS    30061910 000147
10231987175000168916200163100    000044658                    000446580000000000000109                     I0144658     30061900000000040003410000017N130319104700000000000103006190000000000000000000000000000000000000000100009924715790JOSEFA MARIA DA SILVA                   TRAVESSA DOS LAVRADORES N 14,           VILA SAO DOM26271340NOVA IGUACU    RJUNIAO UMB DOS CULTOS AFRO BRAS    30061910 000148
10231987175000168916200163100    000044657                    000446570000000000000109                     I0144657     30061900000000040003410000017N130319104700000000000103006190000000000000000000000000000000000000000100012687881716DAIANA SANTANA DE LIMA                  RUA MANAUSN 149,                        CAMPOS ELISE25225000DUQUE DE CAXIASRJUNIAO UMB DOS CULTOS AFRO BRAS    30061910 000149
10231987175000168916200163100    000044656                    000446560000000000000109                     I0144656     30061900000000040003410000017N130319104700000000000103006190000000000000000000000000000000000000000100007040620707MONICA BORGES MATTOS                    RUA INHAMUNSN 46,                       VILA VALQUEI21321330RIO DE JANEIRO RJUNIAO UMB DOS CULTOS AFRO BRAS    30061910 000150
10231987175000168916200163100    000044655                    000446550000000000000109                     I0144655     30061900000000040003410000017N130319104700000000000103006190000000000000000000000000000000000000000100000000000000JORGE EDUARDO PEREIRA VIANNA            RUA TUIUTIN 98, CASA 4                  CABUCU      26291551NOVA IGUACU    RJUNIAO UMB DOS CULTOS AFRO BRAS    30061910 000151
10231987175000168916200163100    000044654                    000446540000000000000109                     I0144654     30061900000000040003410000017N130319104700000000000103006190000000000000000000000000000000000000000100093255586704GRECIETE GOUDARD                        ESTRADA DO CAMPINHON 4501,              CAMPO GRANDE23066540RIO DE JANEIRO RJUNIAO UMB DOS CULTOS AFRO BRAS    30061910 000152
10231987175000168916200163100    000044653                    000446530000000000000109                     I0144653     30061900000000040003410000017N130319104700000000000103006190000000000000000000000000000000000000000100079034780791PAULO ROBERTO DE SOUZA MORENO           RUA CORONEL MALHAESN 0, LOTE 6 QUADRA 38TIRADENTES  26351180NOVA IGUACU    RJUNIAO UMB DOS CULTOS AFRO BRAS    30061910 000153
10231987175000168916200163100    000044652                    000446520000000000000109                     I0144652     30061900000000040003410000017N130319104700000000000103006190000000000000000000000000000000000000000100005229971711CATIA CILENE MASCARENHAS                RUA BUGANVILLEN 5, CASA 5               CONJUNTO SAN21843743CAMPO GRANDE   RJUNIAO UMB DOS CULTOS AFRO BRAS    30061910 000154
10231987175000168916200163100    000044651                    000446510000000000000109                     I0144651     30061900000000040003410000017N130319104700000000000103006190000000000000000000000000000000000000000100089982118749LENIR SILVA DOS SANTOS                  RUA: ILDEFONSO ALBANON 25, APTº 101    GUADALUPE   21670340RIO DE JANEIRO RJUNIAO UMB DOS CULTOS AFRO BRAS    30061910 000155
10231987175000168916200163100    000044650                    000446500000000000000109                     I0144650     30061900000000040003410000017N130319104700000000000103006190000000000000000000000000000000000000000100005215608709KARYN GEYZA BATALHA BOECHAT             AVENIDA NOSSA SENHORA DE COPACABANAN 110COPACABANA  22060001RIO DE JANEIRO RJUNIAO UMB DOS CULTOS AFRO BRAS    30061910 000156
10231987175000168916200163100    000044649                    000446490000000000000109                     I0144649     30061900000000040003410000017N130319104700000000000103006190000000000000000000000000000000000000000100000905236793ROSE GREGO SILVA DE SOUZA               RUA FLEXALN 42,                         INHAUMA     20766610RIO DE JANEIRO RJUNIAO UMB DOS CULTOS AFRO BRAS    30061910 000157
10231987175000168916200163100    000044648                    000446480000000000000109                     I0144648     30061900000000040003410000017N130319104700000000000103006190000000000000000000000000000000000000000100009005281766ANDREA JOSE DO NASCIMENTO               TRAVESSA: JABOATAO N 12, CASA 12 A      PARQUE SUECI25041025DUQUE DE CAXIASRJUNIAO UMB DOS CULTOS AFRO BRAS    30061910 000158
10231987175000168916200163100    000044647                    000446470000000000000109                     I0144647     30061900000000040003410000017N130319104700000000000103006190000000000000000000000000000000000000000100002406515702GILMA RODRIGUES COUTO                   RUA: PEREIRA FRAZAO N 78, A             PRACA SECA  21320220RIO DE JANEIRO RJUNIAO UMB DOS CULTOS AFRO BRAS    30061910 000159
10231987175000168916200163100    000044646                    000446460000000000000109                     I0144646     30061900000000040003410000017N130319104700000000000103006190000000000000000000000000000000000000000100051265699704MARIA FATIMA DE SOUSA                   RUA PIRAJURAN 93,                       REALENGO    21750360RIO DE JANEIRO RJUNIAO UMB DOS CULTOS AFRO BRAS    30061910 000160
10231987175000168916200163100    000044645                    000446450000000000000109                     I0144645     30061900000000040003410000017N130319104700000000000103006190000000000000000000000000000000000000000100064494527734RONALDO ROSAS ALVES                     ESTRADA COMANDANTEN 777,                PRATA       25976140TERESOPOLIS    RJUNIAO UMB DOS CULTOS AFRO BRAS    30061910 000161
10231987175000168916200163100    000044644                    000446440000000000000109                     I0144644     30061900000000040003410000017N130319104700000000000103006190000000000000000000000000000000000000000100060223170704MARIA DO CARMO DO NASCIMENTO S          RUA: JOAO ADIL DE OLIVEIRAN 57, APT 203 IRAJA       21230175RIO DE JANEIRO RJUNIAO UMB DOS CULTOS AFRO BRAS    30061910 000162
10231987175000168916200163100    000044643                    000446430000000000000109                     I0144643     30061900000000040003410000017N130319104700000000000103006190000000000000000000000000000000000000000100008722484701ANA PAULA SILVA DA CRUZ                 RUA: ELVIRA DA FONSECAN 261,            LARGO DO TAN22733150RIO DE JANEIRO RJUNIAO UMB DOS CULTOS AFRO BRAS    30061910 000163
10231987175000168916200163100    000044642                    000446420000000000000109                     I0144642     30061900000000040003410000017N130319104700000000000103006190000000000000000000000000000000000000000100064506770749TERESINHA MARIA PEREIRA NOGUEI          RUA: CAMELIA DOS SANTOS MENDES COUTO N 7CORTA VENTO 25963430TERESOPOLIS    RJUNIAO UMB DOS CULTOS AFRO BRAS    30061910 000164
10231987175000168916200163100    000044641                    000446410000000000000109                     I0144641     30061900000000040003410000017N130319104700000000000103006190000000000000000000000000000000000000000100028095391700SERGIO GARCIA DE QUEIROZ                RUA MATO GROSSON 702,                   SANTA CECILI25957250TERESOPOLIS    RJUNIAO UMB DOS CULTOS AFRO BRAS    30061910 000165
10231987175000168916200163100    000044640                    000446400000000000000109                     I0144640     30061900000000040003410000017N130319104700000000000103006190000000000000000000000000000000000000000100043397077753JOAO NORATO CEZARIO                     RUA POETA MANOEL BANDEIRAN 39, ANTIGO LOCABUIS      26540260NILOPOLIS      RJUNIAO UMB DOS CULTOS AFRO BRAS    30061910 000166
10231987175000168916200163100    000044639                    000446390000000000000109                     I0144639     30061900000000040003410000017N130319104700000000000103006190000000000000000000000000000000000000000100012295676746JEFFERSON ANTONIO TELLES GALDI          RUA MOUZIN DE ALBUQUERQUEN 492,         SAO VICENTE 26178080BELFORD ROXO   RJUNIAO UMB DOS CULTOS AFRO BRAS    30061910 000167
10231987175000168916200163100    000044638                    000446380000000000000109                     I0144638     30061900000000040003410000017N130319104700000000000103006190000000000000000000000000000000000000000100003526002762HELOISA HELENA DE OLIVEIRA DA           RUA DOUTOR MUNIZN 81, CASA 3            CENTRO      26130020BELFORD ROXO   RJUNIAO UMB DOS CULTOS AFRO BRAS    30061910 000168
10231987175000168916200163100    000044637                    000446370000000000000109                     I0144637     30061900000000040003410000017N130319104700000000000103006190000000000000000000000000000000000000000100005436665730JORGE LUIZ VICTORIO LIMA                AVENIDA MARCOVALDI N 271,               NOVA ESPERAN26113040BELFORD ROXO   RJUNIAO UMB DOS CULTOS AFRO BRAS    30061910 000169
10231987175000168916200163100    000044636                    000446360000000000000109                     I0144636     30061900000000040003410000017N130319104700000000000103006190000000000000000000000000000000000000000100009526018770VERONICA MARIA LIMA                     RUA KEMAL PALHAN 5,                     VILA SANTO A25040220DUQUE DE CAXIASRJUNIAO UMB DOS CULTOS AFRO BRAS    30061910 000170
10231987175000168916200163100    000044635                    000446350000000000000109                     I0144635     30061900000000040003410000017N130319104700000000000103006190000000000000000000000000000000000000000100001253277737MARIA JOSE DANTAS MOREIRA               RUA: SETE DE JUNHO N 134,               PRAIA DE MAU25925732MAGE           RJUNIAO UMB DOS CULTOS AFRO BRAS    30061910 000171
10231987175000168916200163100    000044634                    000446340000000000000109                     I0144634     30061900000000040003410000017N130319104700000000000103006190000000000000000000000000000000000000000100003250570796VERONICA LUCIA DA CRUZ                  ESTRADA: DOUTOR FARRULAN 0, LOTE 8 QUADRSAO FRANCISC26125400BELFORD ROXO   RJUNIAO UMB DOS CULTOS AFRO BRAS    30061910 000172
10231987175000168916200163100    000044633                    000446330000000000000109                     I0144633     30061900000000040003410000017N130319104700000000000103006190000000000000000000000000000000000000000100059598255700TEREZINHA MARIA DE JESUS PINHE          RUA: MANOEL DA SILVA PEREIRA N 0, QUADRAPRADOS VERDE26299003NOVA IGUACU    RJUNIAO UMB DOS CULTOS AFRO BRAS    30061910 000173
10231987175000168916200163100    000044632                    000446320000000000000109                     I0144632     30061900000000040003410000017N130319104700000000000103006190000000000000000000000000000000000000000100002527980740ARMANDO DE ALMEIDA                      RUA PEDRO JOSE DE OLIVEIRA N 255,       VARGEM GRAND27145231BARRA DO PIRAI RJUNIAO UMB DOS CULTOS AFRO BRAS    30061910 000174
10231987175000168916200163100    000044631                    000446310000000000000109                     I0144631     30061900000000040003410000017N130319104700000000000103006190000000000000000000000000000000000000000100005978854785ALEXANDRE MOTA DOS SANTOS               RUA BRUNO SENDERN 26,                   JARDIM NOVA 26266040NOVA IGUACU    RJUNIAO UMB DOS CULTOS AFRO BRAS    30061910 000175
10231987175000168916200163100    000044630                    000446300000000000000109                     I0144630     30061900000000040003410000017N130319104700000000000103006190000000000000000000000000000000000000000100014907708793THIAGO CARVALHO VIDAL LIMA              RUA JOAO MARTINS N 265,                 BNH         25900353MAGE           RJUNIAO UMB DOS CULTOS AFRO BRAS    30061910 000176
10231987175000168916200163100    000044629                    000446290000000000000109                     I0144629     30061900000000040003410000017N130319104700000000000103006190000000000000000000000000000000000000000100080705774791MARIA FREITAS DOS SANTOS MACHA          RUA: JOSE DE OLIVEIRAN 12,              SEPETIBA    23570086RIO DE JANEIRO RJUNIAO UMB DOS CULTOS AFRO BRAS    30061910 000177
10231987175000168916200163100    000044628                    000446280000000000000109                     I0144628     30061900000000040003410000017N130319104700000000000103006190000000000000000000000000000000000000000100082187401715JOSE AUGUSTO DA PAIXAO                  RUA GOMES CARNEIRO N 0, LOTE 33 QUADRA 7SARACURUNA  25211050DUQUE DE CAXIASRJUNIAO UMB DOS CULTOS AFRO BRAS    30061910 000178
10231987175000168916200163100    000044627                    000446270000000000000109                     I0144627     30061900000000040003410000017N130319104700000000000103006190000000000000000000000000000000000000000100011622292766ROBERT HELENO MACEDO                    TRAVESSA JOSE CARRETEIRON 175, CASA 12  ENGENHOCA   24110444NITEROI        RJUNIAO UMB DOS CULTOS AFRO BRAS    30061910 000179
10231987175000168916200163100    000044626                    000446260000000000000109                     I0144626     30061900000000040003410000017N130319104700000000000103006190000000000000000000000000000000000000000100007337231792SAMANTHA PRISCILA MARQUES MORE          RUA: INSPETOR CASTRO N 0, QUADRA 2 CASA SARACURUNA  25211410DUQUE DE CAXIASRJUNIAO UMB DOS CULTOS AFRO BRAS    30061910 000180
10231987175000168916200163100    000044625                    000446250000000000000109                     I0144625     30061900000000040003410000017N130319104700000000000103006190000000000000000000000000000000000000000100060044055749SUELY DE FARIAS EDUARDO                 TRAVESSA JAFIA N 1,                     CIDADE DE DE22772190RIO DE JANEIRO RJUNIAO UMB DOS CULTOS AFRO BRAS    30061910 000181
10231987175000168916200163100    000044624                    000446240000000000000109                     I0144624     30061900000000040003410000017N130319104700000000000103006190000000000000000000000000000000000000000100013118884703WESLEI FERREIRA DE CARVALHO             ESTRADA DO  GUERENGUEN 1022, FUNODS     TAQUARA     22713004RIO DE JANEIRO RJUNIAO UMB DOS CULTOS AFRO BRAS    30061910 000182
10231987175000168916200163100    000044623                    000446230000000000000109                     I0144623     30061900000000040003410000017N130319104700000000000103006190000000000000000000000000000000000000000100002176741781SUSI DE OLIVEIRA LOUREIRO               AVENIDA: VICENTE DE CARVALHO N 536, CASAVICENTE DE C21371148RIO DE JANEIRO RJUNIAO UMB DOS CULTOS AFRO BRAS    30061910 000183
10231987175000168916200163100    000044622                    000446220000000000000109                     I0144622     30061900000000040003410000017N130319104700000000000103006190000000000000000000000000000000000000000100095846190715ANA MARIA NICANOR DE QUADRO             RUA PASSO FUNDON 118, LOTE 104          JARDIM GUAND26298189NOVA IGUACU    RJUNIAO UMB DOS CULTOS AFRO BRAS    30061910 000184
10231987175000168916200163100    000044621                    000446210000000000000109                     I0144621     30061900000000040003410000017N130319104700000000000103006190000000000000000000000000000000000000000100001161586709ALEXANDRE PIMPAREL DA SILVA             RUA: COMENDADOR VENACION 0,             PALHADA     26290204NOVA IGUACU    RJUNIAO UMB DOS CULTOS AFRO BRAS    30061910 000185
10231987175000168916200163100    000044620                    000446200000000000000109                     I0144620     30061900000000040003410000017N130319104700000000000103006190000000000000000000000000000000000000000100000000000000FABIO DA SILVA                          RUA CAMORIMN 0, LOTE 6 QUADRA 34        JARDIM DELAM26317140QUEIMADOS      RJUNIAO UMB DOS CULTOS AFRO BRAS    30061910 000186
10231987175000168916200163100    000044619                    000446190000000000000109                     I0144619     30061900000000040003410000017N130319104700000000000103006190000000000000000000000000000000000000000100010765062755IVONE JOAO PEDRO                        RUA MARMIARIN 605,                      SENADOR CAMA21831000RIO DE JANEIRO RJUNIAO UMB DOS CULTOS AFRO BRAS    30061910 000187
10231987175000168916200163100    000044618                    000446180000000000000109                     I0144618     30061900000000040003410000017N130319104700000000000103006190000000000000000000000000000000000000000100085957879720MARIA DA APARECIDA VICENTE DUQ          RUA FRANCISCO VIOLTI N 43, CASA 2       HELIOPOLIS  26125440BELFORD ROXO   RJUNIAO UMB DOS CULTOS AFRO BRAS    30061910 000188
10231987175000168916200163100    000044617                    000446170000000000000109                     I0144617     30061900000000040003410000017N130319104700000000000103006190000000000000000000000000000000000000000100005933193704ANA PAULA DA SILVA SANTOS               RUA APIACAN 0, LOTE 12 QUADRA 41        JARDIM BARRO25267290DUQUE DE CAXIASRJUNIAO UMB DOS CULTOS AFRO BRAS    30061910 000189
10231987175000168916200163100    000044616                    000446160000000000000109                     I0144616     30061900000000040003410000017N130319104700000000000103006190000000000000000000000000000000000000000100003372466705SANDRO NASCIMENTO NOBREGA               RUA JOAO ROMARIZN 137,                  RAMOS       21031700RIO DE JANEIRO RJUNIAO UMB DOS CULTOS AFRO BRAS    30061910 000190
10231987175000168916200163100    000044615                    000446150000000000000109                     I0144615     30061900000000040003410000017N130319104700000000000103006190000000000000000000000000000000000000000100058756280734SANDRA REGINA DA CONCEICAO              RUA BUENOS AIRES N 94,                  JARDIM PERNA26275390NOVA IGUACU    RJUNIAO UMB DOS CULTOS AFRO BRAS    30061910 000191
10231987175000168916200163100    000044614                    000446140000000000000109                     I0144614     30061900000000040003410000017N130319104700000000000103006190000000000000000000000000000000000000000100032637128704MARLENE DA CRUZ                         AVENIDA ABILIO AUGUSTO TAVORA N 5107,   VALVERDE    26290600NOVA IGUACU    RJUNIAO UMB DOS CULTOS AFRO BRAS    30061910 000192
10231987175000168916200163100    000044613                    000446130000000000000109                     I0144613     30061900000000040003410000017N130319104700000000000103006190000000000000000000000000000000000000000100049660632720MARINETE SANTOS DE OLIVEIRA             AVENIDA SANTA CRUZN 8804,               SENADOR CAMA23010003RIO DE JANEIRO RJUNIAO UMB DOS CULTOS AFRO BRAS    30061910 000193
10231987175000168916200163100    000044612                    000446120000000000000109                     I0144612     30061900000000040003410000017N130319104700000000000103006190000000000000000000000000000000000000000100003253352730LUCINEA DUTRA MEDEIROS                  RUA EVALDO BRAGAN 212,                  INDEPENDENCI25645300PETROPOLIS     RJUNIAO UMB DOS CULTOS AFRO BRAS    30061910 000194
10231987175000168916200163100    000044611                    000446110000000000000109                     I0144611     30061900000000040003410000017N130319104700000000000103006190000000000000000000000000000000000000000100000858723778GEOVANI FERNANDA DA SILVA               RUA SOFIA BARRETON 34,                  DUMAS - SANT23550700RIO DE JANEIRO RJUNIAO UMB DOS CULTOS AFRO BRAS    30061910 000195
10231987175000168916200163100    000044610                    000446100000000000000109                     I0144610     30061900000000040003410000017N130319104700000000000103006190000000000000000000000000000000000000000100011700984799CRISTIANE SANTOS FEIJO VIEIRA           RUA NICOLAU TOUQUETN 0, LOTE 20 QUADRA 1JARDIM CATAR24716403SAO GONCALO    RJUNIAO UMB DOS CULTOS AFRO BRAS    30061910 000196
10231987175000168916200163100    000044609                    000446090000000000000109                     I0144609     30061900000000040003410000017N130319104700000000000103006190000000000000000000000000000000000000000100010154945790SIMONE DE OLIVEIRA CUNHA                RUA ONZEN 0, QUADRA 20 LOTE 7           JARDIM ROTSE25270080DUQUE DE CAXIASRJUNIAO UMB DOS CULTOS AFRO BRAS    30061910 000197
10231987175000168916200163100    000044608                    000446080000000000000109                     I0144608     30061900000000040003410000017N130319104700000000000103006190000000000000000000000000000000000000000100002965368736REGINA CONCEICAO                        AVENIDA: BOQUEIRAON 17,                 BOA VISTA   28680000CACHOEIRA DE MARJUNIAO UMB DOS CULTOS AFRO BRAS    30061910 000198
10231987175000168916200163100    000044607                    000446070000000000000109                     I0144607     30061900000000040003410000017N130319104700000000000103006190000000000000000000000000000000000000000100009963194761FERNANDO PECANHA PIRES                  RUA: GENERAL BASILION 447,              TABORDA     28680000CACHOEIRA DE MARJUNIAO UMB DOS CULTOS AFRO BRAS    30061910 000199
10231987175000168916200163100    000044606                    000446060000000000000109                     I0144606     30061900000000040003410000017N130319104700000000000103006190000000000000000000000000000000000000000100009491065777VIVIAN LUIZA FREITAS DE AGUIAR          RUA ITAPETININGAN 520,                  VICENTE DE C21370680RIO DE JANEIRO RJUNIAO UMB DOS CULTOS AFRO BRAS    30061910 000200
10231987175000168916200163100    000044605                    000446050000000000000109                     I0144605     30061900000000040003410000017N130319104700000000000103006190000000000000000000000000000000000000000100002331392730ANA MARIA DOS SANTOS VIEIRA             RUA: CRUZ DE SOUZAN 57,                 CARMARY POSS26022281NOVA IGUACU    RJUNIAO UMB DOS CULTOS AFRO BRAS    30061910 000201
10231987175000168916200163100    000044604                    000446040000000000000109                     I0144604     30061900000000040003410000017N130319104700000000000103006190000000000000000000000000000000000000000100005964958702MARISLEY AMARO DE SOUZA                 RUA MONTE ALTON 95,                     BANGU       21863010RIO DE JANEIRO RJUNIAO UMB DOS CULTOS AFRO BRAS    30061910 000202
10231987175000168916200163100    000044603                    000446030000000000000109                     I0144603     30061900000000040003410000017N130319104700000000000103006190000000000000000000000000000000000000000100003018847733MARIA AILHA BERNARDO PINTO              RUA RUBIAO JUNIOR N 109,                CENTRO      23860000MANGARATIBA    RJUNIAO UMB DOS CULTOS AFRO BRAS    30061910 000203
10231987175000168916200163100    000044602                    000446020000000000000109                     I0144602     30061900000000040003410000017N130319104700000000000103006190000000000000000000000000000000000000000100089207963787NICEIA SANTOS FRANCA                    RUA SAPUCAI - BECO DO JORDAON 134,      SANTA CRUZ  23550360RIO DE JANEIRO RJUNIAO UMB DOS CULTOS AFRO BRAS    30061910 000204
10231987175000168916200163100    000044601                    000446010000000000000109                     I0144601     30061900000000040003410000017N130319104700000000000103006190000000000000000000000000000000000000000100004275325745MAIKE OLIVEIRA DA COSTA                 TRAVESSA MARTA DA ROCHA N 57,           ABOLICAO    20755030RIO DE JANEIRO RJUNIAO UMB DOS CULTOS AFRO BRAS    30061910 000205
10231987175000168916200163100    000044600                    000446000000000000000109                     I0144600     30061900000000040003410000017N130319104700000000000103006190000000000000000000000000000000000000000100007852297790IRENE FRANCISCO LIMA                    RUA VIRGILIO VARZEAN 0, LOTE 1 QUADRA 1 VILA SAO LUI25051110DUQUE DE CAXIASRJUNIAO UMB DOS CULTOS AFRO BRAS    30061910 000206
10231987175000168916200163100    000044599                    000445990000000000000109                     I0144599     30061900000000040003410000017N130319104700000000000103006190000000000000000000000000000000000000000100001298660750ROSEMBERG EFIGENIO BARBOSA              RUA TANCREDO MARTINS COSTAN 44, FUNDOS CENGENHO DE D20730310RIO DE JANEIRO RJUNIAO UMB DOS CULTOS AFRO BRAS    30061910 000207
10231987175000168916200163100    000044598                    000445980000000000000109                     I0144598     30061900000000040003410000017N130319104700000000000103006190000000000000000000000000000000000000000100050246534753TANIA MARIA DA SILVA OLIVEIRA           TRAVESSA MARAJON 1002,                  LINDO PARQUE24420100SAO GONCALO    RJUNIAO UMB DOS CULTOS AFRO BRAS    30061910 000208
10231987175000168916200163100    000044597                    000445970000000000000109                     I0144597     30061900000000040003410000017N130319104700000000000103006190000000000000000000000000000000000000000100006915594736CINTIA FERREIRA                         AVENIDA DAS AMERICASN 4319, BLOCO F 3 APBARRA DA TIJ22631004RIO DE JANEIRO RJUNIAO UMB DOS CULTOS AFRO BRAS    30061910 000209
10231987175000168916200163100    000044596                    000445960000000000000109                     I0144596     30061900000000040003410000017N130319104700000000000103006190000000000000000000000000000000000000000100011497058767DIEGO FERREIRA DA SILVA                 RUA GENERAL GOMES DE CASTRO N 137,      PADRE MIGUEL21721000RIO DE JANEIRO RJUNIAO UMB DOS CULTOS AFRO BRAS    30061910 000210
10231987175000168916200163100    000044595                    000445950000000000000109                     I0144595     30061900000000040003410000017N130319104700000000000103006190000000000000000000000000000000000000000100044415443753ELIDE LEANDRO BARBOSA                   RUA ENGENHEIRO PERICLES RIBEIRON 16, CASFONSECA     24130350NITEROI        RJUNIAO UMB DOS CULTOS AFRO BRAS    30061910 000211
10231987175000168916200163100    000044594                    000445940000000000000109                     I0144594     30061900000000040003410000017N130319104700000000000103006190000000000000000000000000000000000000000100003357548720APARECIDA DOS SANTOS                    RUA LAOSN 0, LOTE 7 QUADRA 11           VILA HELIOPO26125170BELFORD ROXO   RJUNIAO UMB DOS CULTOS AFRO BRAS    30061910 000212
10231987175000168916200163100    000044593                    000445930000000000000109                     I0144593     30061900000000040003410000017N130319104700000000000103006190000000000000000000000000000000000000000100009409455766DANIELE MARTINS MEDEIROS DE FR          RUA ROMANCISTA LUCIO CARDOSON 272,      IBICUI      23860000MANGARATIBA    RJUNIAO UMB DOS CULTOS AFRO BRAS    30061910 000213
10231987175000168916200163100    000044592                    000445920000000000000109                     I0144592     30061900000000040003410000017N130319104700000000000103006190000000000000000000000000000000000000000100000640795706CELIA REGINA ALVES DE SOUZA CO          ESTRADA SAO PEDRON 1161, CASA 30        VISTA ALEGRE24725240SAO GONCALO    RJUNIAO UMB DOS CULTOS AFRO BRAS    30061910 000214
10231987175000168916200163100    000044591                    000445910000000000000109                     I0144591     30061900000000040003410000017N130319104700000000000103006190000000000000000000000000000000000000000100007459837741LUIZ CARLOS CARDOSO                     RUA WALDIR CARDOSON 100,                PAU GRANDE  25917040MAGE           RJUNIAO UMB DOS CULTOS AFRO BRAS    30061910 000215
10231987175000168916200163100    000044590                    000445900000000000000109                     I0144590     30061900000000040003410000017N130319104700000000000103006190000000000000000000000000000000000000000100023970090563MARCIA VIEIRA SALES                     RUA LOPO SARAIVAN 214,                  TANQUE - JAC22740220RIO DE JANEIRO RJUNIAO UMB DOS CULTOS AFRO BRAS    30061910 000216
10231987175000168916200163100    000044589                    000445890000000000000109                     I0144589     30061900000000040003410000017N130319104700000000000103006190000000000000000000000000000000000000000100011264005725MARCELO VIEIRA GUSMAN FILHO             AVENIDA MEDIANEIRA N 145, CASA B        COSMOS      23066470RIO DE JANEIRO RJUNIAO UMB DOS CULTOS AFRO BRAS    30061910 000217
10231987175000168916200163100    000044588                    000445880000000000000109                     I0144588     30061900000000040003410000017N130319104700000000000103006190000000000000000000000000000000000000000100001343022738LUCIANA FIGUEIRO COUTINHO DA S          RUA: MANHUACU N 53, LOTE 19             VARGEM GRAND22785600RIO DE JANEIRO RJUNIAO UMB DOS CULTOS AFRO BRAS    30061910 000218
10231987175000168916200163100    000044587                    000445870000000000000109                     I0144587     30061900000000040003410000017N130319104700000000000103006190000000000000000000000000000000000000000100053531396749VITALINA DOS SANTOS                     RUA SAQUAREMAN 1863,                    GRAMACHO    25035425DUQUE DE CAXIASRJUNIAO UMB DOS CULTOS AFRO BRAS    30061910 000219
10231987175000168916200163100    000044586                    000445860000000000000109                     I0144586     30061900000000040003410000017N130319104700000000000103006190000000000000000000000000000000000000000100003604572746LUCIANA SANTOS DA SILVA DE LIM          RUA: MARTINICIAN 0, LOJA LOTE 22 QUADRA PARQUE NOVO 25585110SAO JOAO DE MERRJUNIAO UMB DOS CULTOS AFRO BRAS    30061910 000220
10231987175000168916200163100    000044585                    000445850000000000000109                     I0144585     30061900000000040003410000017N130319104700000000000103006190000000000000000000000000000000000000000100006864504778FABIO GUILHERME DOS SANTOS              ESTRADA JOAO DE ABREUN 398,             MONJOLOS    24723190SAO GONCALO    RJUNIAO UMB DOS CULTOS AFRO BRAS    30061910 000221
10231987175000168916200163100    000044584                    000445840000000000000109                     I0144584     30061900000000040003410000017N130319104700000000000103006190000000000000000000000000000000000000000100013849060705LEONARDO ENEDINA DE MELO                RUA JULIO VERNERN 0, QUADRA 24 LOTE 10  SANTA RITA  26050517NOVA IGUACU    RJUNIAO UMB DOS CULTOS AFRO BRAS    30061910 000222
10231987175000168916200163100    000044583                    000445830000000000000109                     I0144583     30061900000000040003410000017N130319104700000000000103006190000000000000000000000000000000000000000100085906743715FRANCISCA CELIA LEANDRO NEVES           RUA PAULO VIANA N 145,                  ROCHA MIRAND21540460RIO DE JANEIRO RJUNIAO UMB DOS CULTOS AFRO BRAS    30061910 000223
10231987175000168916200163100    000044582                    000445820000000000000109                     I0144582     30061900000000040003410000017N130319104700000000000103006190000000000000000000000000000000000000000100002882629729ANA PAULA DE SOUZA RIBEIRO VIL          RUA DUARTE DE AZEVEDON 39, SOBRADO      TURIACU     21550130RIO DE JANEIRO RJUNIAO UMB DOS CULTOS AFRO BRAS    30061910 000224
10231987175000168916200163100    000044581                    000445810000000000000109                     I0144581     30061900000000040003410000017N130319104700000000000103006190000000000000000000000000000000000000000100008926305740PATRICIA DOS SANTOS LOPES               RUA: CASTELO AZULN 0, LOTE 7 QUADRA A   JARDIM GUAND26298048NOVA IGUACU    RJUNIAO UMB DOS CULTOS AFRO BRAS    30061910 000225
10231987175000168916200163100    000044580                    000445800000000000000109                     I0144580     30061900000000040003410000017N130319104700000000000103006190000000000000000000000000000000000000000100004842101490MARIA DE LOURDES FARIAS DOS SA          RUA HELIO DE OLIVEIRAN 0, LOTE 29 QUADRAPARADA MORAB25000000DUQUE DE CAXIASRJUNIAO UMB DOS CULTOS AFRO BRAS    30061910 000226
10231987175000168916200163100    000044579                    000445790000000000000109                     I0144579     30061900000000040003410000017N130319104700000000000103006190000000000000000000000000000000000000000100004253784704ALEXANDRE SIMOES NASCIMENTO             RUA: SEBASTIAO DRUMONDN 179,            ANCHIETA    21640360RIO DE JANEIRO RJUNIAO UMB DOS CULTOS AFRO BRAS    30061910 000227
10231987175000168916200163100    000044578                    000445780000000000000109                     I0144578     30061900000000040003410000017N130319104700000000000103006190000000000000000000000000000000000000000100004474701755JACIRA DE ALMEIDA BATISTA JULI          AVENIDA SAO PAULON 0, LOTE 11 QUADRA 18 PARQUE MARIL25225660DUQUE DE CAXIASRJUNIAO UMB DOS CULTOS AFRO BRAS    30061910 000228
10231987175000168916200163100    000044577                    000445770000000000000109                     I0144577     30061900000000040003410000017N130319104700000000000103006190000000000000000000000000000000000000000100016424589880LUIZ CARLOS BRITO                       RUA DA LIBERDADEN 368,                  TINGUA      26063230NOVA IGUACU    RJUNIAO UMB DOS CULTOS AFRO BRAS    30061910 000229
10231987175000168916200163100    000044576                    000445760000000000000109                     I0144576     30061900000000040003410000017N130319104700000000000103006190000000000000000000000000000000000000000100002413242708NIVEA MARIA NARCIZO CONCEICAO           RUA: DOS JACARANDAS N 135,              ENGENHO DO M24344565NITEROI        RJUNIAO UMB DOS CULTOS AFRO BRAS    30061910 000230
10231987175000168916200163100    000044575                    000445750000000000000109                     I0144575     30061900000000040003410000017N130319104700000000000103006190000000000000000000000000000000000000000100002209208777ELIELSON DOS SANTOS CARVALHAES          RUA GENTIL DE OURO N 615, BLOCO 12 APT 4INHOAIBA    23063340RIO DE JANEIRO RJUNIAO UMB DOS CULTOS AFRO BRAS    30061910 000231
10231987175000168916200163100    000044574                    000445740000000000000109                     I0144574     30061900000000040003410000017N130319104700000000000103006190000000000000000000000000000000000000000100010456888780TIAGO PINTO ESPOSTI                     RUA ROSSINA FREITAS MEDEIROSN 38,       PARQUE AEROP27963672MACAE          RJUNIAO UMB DOS CULTOS AFRO BRAS    30061910 000232
10231987175000168916200163100    000044573                    000445730000000000000109                     I0144573     30061900000000040003410000017N130319104700000000000103006190000000000000000000000000000000000000000100068424647734MARCIA VALERIA VALIATI DOS SAN          RUA CONSTANCA BARBOSA N 65, APARTAMENTO MEIER       20735090RIO DE JANEIRO RJUNIAO UMB DOS CULTOS AFRO BRAS    30061910 000233
10231987175000168916200163100    000044572                    000445720000000000000109                     I0144572     30061900000000040003410000017N130319104700000000000103006190000000000000000000000000000000000000000100011688945733ENEDIR RODRIGUES RAMOS                  AVENIDA JOAO BRASIL N 2233,             ENGENHOCA   24000000NITEROI        RJUNIAO UMB DOS CULTOS AFRO BRAS    30061910 000234
10231987175000168916200163100    000044571                    000445710000000000000109                     I0144571     30061900000000040003410000017N130319104700000000000103006190000000000000000000000000000000000000000100002621693717JUREMA DE OLIVEIRA RODRIGUES            ESTRADA: INTENDENTE MAGALHAES N 196, APACAMPINHO    21341330RIO DE JANEIRO RJUNIAO UMB DOS CULTOS AFRO BRAS    30061910 000235
10231987175000168916200163100    000044570                    000445700000000000000109                     I0144570     30061900000000040003410000017N130319104700000000000103006190000000000000000000000000000000000000000100010292272766MARCIA JUPIRA SANTOS GONZAGA            RUA ANTONIO FELIX N 457,                CENTRO      26520081NILOPOLIS      RJUNIAO UMB DOS CULTOS AFRO BRAS    30061910 000236
10231987175000168916200163100    000044569                    000445690000000000000109                     I0144569     30061900000000040003410000017N130319104700000000000103006190000000000000000000000000000000000000000100016492108760TIAGO LOPES DE AZEVEDO SILVA            RUA: XN 24, QUADRA 82                   PARADA MODEL25943365GUAPIMIRIM     RJUNIAO UMB DOS CULTOS AFRO BRAS    30061910 000237
10231987175000168916200163100    000044568                    000445680000000000000109                     I0144568     30061900000000040003410000017N130319104700000000000103006190000000000000000000000000000000000000000100012993228757ANDREIA CRISTINA VICENTE                RUA: CORONEL CARLOS MATOSN 32,          PARQUE JOAO 25030140DUQUE DE CAXIASRJUNIAO UMB DOS CULTOS AFRO BRAS    30061910 000238
10231987175000168916200163100    000044567                    000445670000000000000109                     I0144567     30061900000000040003410000017N130319104700000000000103006190000000000000000000000000000000000000000100048972215791MARIA PETRONILHA ROSA NATIVIDA          RUA: JACARE ACANGAN 29, QUADRA 21       VILA MARIA H25255590DUQUE DE CAXIASRJUNIAO UMB DOS CULTOS AFRO BRAS    30061910 000239
10231987175000168916200163100    000044566                    000445660000000000000109                     I0144566     30061900000000040003410000017N130319104700000000000103006190000000000000000000000000000000000000000100092111777749WANDERLEY DOS SANTOS MENDES             PRACA EMBOABAN 67,                      ENGENHO DA R20761160RIO DE JANEIRO RJUNIAO UMB DOS CULTOS AFRO BRAS    30061910 000240
10231987175000168916200163100    000044565                    000445650000000000000109                     I0144565     30061900000000040003410000017N130319104700000000000103006190000000000000000000000000000000000000000100009416663794IGOR DO NASCIMENTO RODRIGUES            RUA FIGUEIREDO ROCHA N 665,             VIGARIO GERA21240660RIO DE JANEIRO RJUNIAO UMB DOS CULTOS AFRO BRAS    30061910 000241
10231987175000168916200163100    000044564                    000445640000000000000109                     I0144564     30061900000000040003410000017N130319104700000000000103006190000000000000000000000000000000000000000100040664325734GENI BARBOSA ROCHA DA SILVA             TRAVESSA DA AMIZADEN 34, APT 602        VILA DA PENH25268020RIO DE JANEIRO RJUNIAO UMB DOS CULTOS AFRO BRAS    30061910 000242
10231987175000168916200163100    000044563                    000445630000000000000109                     I0144563     30061900000000040003410000017N130319104700000000000103006190000000000000000000000000000000000000000100069279500791CLAUDIA ALONSO RODRIGUES                ESTRADA DO PAU FERRO N 851,             FREGUESIA   22745055RIO DE JANEIRO RJUNIAO UMB DOS CULTOS AFRO BRAS    30061910 000243
10231987175000168916200163100    000044562                    000445620000000000000109                     I0144562     30061900000000040003410000017N130319104700000000000103006190000000000000000000000000000000000000000100087306689720JANAINA SANTA CRUZ COSTA                ALAMEDA SANTO ANTONIO N 974,            SEPETIBA    23535660RIO DE JANEIRO RJUNIAO UMB DOS CULTOS AFRO BRAS    30061910 000244
10231987175000168916200163100    000044561                    000445610000000000000109                     I0144561     30061900000000040003410000017N130319104700000000000103006190000000000000000000000000000000000000000100060210389753ROZANA DOS SANTOS                       RUA: MARANHAO N 1057, RUA B CASA 73     MEIER       20720230RIO DE JANEIRO RJUNIAO UMB DOS CULTOS AFRO BRAS    30061910 000245
10231987175000168916200163100    000044560                    000445600000000000000109                     I0144560     30061900000000040003410000017N130319104700000000000103006190000000000000000000000000000000000000000100084301724753ANA LUCIA FERREIRA DA SILVA             RUA HUGO CESAR MONTEIRO DA SILVA N 42,  CAICARA     26015000NOVA IGUACU    RJUNIAO UMB DOS CULTOS AFRO BRAS    30061910 000246
10231987175000168916200163100    000044559                    000445590000000000000109                     I0144559     30061900000000040003410000017N130319104700000000000103006190000000000000000000000000000000000000000100024810517349SILANIA MARIA AGUIAR GOIS               RUA DOMINGOS TAVARES DE SOUZAN 319, APT VIVENDAS DA 36047250JUIZ DE FORA   MGUNIAO UMB DOS CULTOS AFRO BRAS    30061910 000247
10231987175000168916200163100    000044558                    000445580000000000000109                     I0144558     30061900000000040003410000017N130319104700000000000103006190000000000000000000000000000000000000000100090618254749NELY MOREIRA GOMES                      RUA MACHADO DE ASSIS N 2, LOTE 12 QUADRASARACURUNA  25211250DUQUE DE CAXIASRJUNIAO UMB DOS CULTOS AFRO BRAS    30061910 000248
10231987175000168916200163100    000044557                    000445570000000000000109                     I0144557     30061900000000040003410000017N130319104700000000000103006190000000000000000000000000000000000000000100003836060710SANDRA VIEIRA DA SILVA TEIXEIR          RUA REDENTORN 0,  LOTE 33 QUADRA 12     JARDIM REDEN26110090BELFORD ROXO   RJUNIAO UMB DOS CULTOS AFRO BRAS    30061910 000249
