01REMESSA01COBRANCA       817800093673        União Umb dos Cultos Afro Bra341BANCO ITAU SA  261218                                                                                                                                                                                                                                                                                                      000001
10231987175000168817800093673    000039385                    000393850000000000000109                     I0139385     31031900000000040003410000017N261218104700000000000103103190000000000000000000000000000000000000000100088033945753JOSE RICARDO RIBEIRO DE AMORIM          RUA IGARATA                             MARECHAL HER21555250RIO DE JANEIRO RJUNIAO UMB DOS CULTOS AFRO BRAS    31031910 000002
10231987175000168817800093673    000039384                    000393840000000000000109                     I0139384     28021900000000040003410000017N261218104700000000000102802190000000000000000000000000000000000000000100088033945753JOSE RICARDO RIBEIRO DE AMORIM          RUA IGARATA                             MARECHAL HER21555250RIO DE JANEIRO RJUNIAO UMB DOS CULTOS AFRO BRAS    28021910 000003
10231987175000168817800093673    000035302                    000353020000000000000109                     I0135302     31011900000000040003410000017N261218104700000000000103101190000000000000000000000000000000000000000100012003631755ALEXSANDRO CORREA                       RUA DULIO COSTA                         IRAJA       21235410RIO DE JANEIRO RJUNIAO UMB DOS CULTOS AFRO BRAS    31011910 000004
10231987175000168817800093673    000035301                    000353010000000000000109                     I0135301     31011900000000040003410000017N261218104700000000000103101190000000000000000000000000000000000000000100069279500791CLAUDIA ALONSO RODRIGUES                ESTRADA DO PAU FERRO                    FREGUESIA   22745055RIO DE JANEIRO RJUNIAO UMB DOS CULTOS AFRO BRAS    31011910 000005
10231987175000168817800093673    000035300                    000353000000000000000109                     I0135300     31011900000000040003410000017N261218104700000000000103101190000000000000000000000000000000000000000100087306689720JANAINA SANTA CRUZ COSTA                ALAMEDA SANTO ANTONIO                   SEPETIBA    23535660RIO DE JANEIRO RJUNIAO UMB DOS CULTOS AFRO BRAS    31011910 000006
10231987175000168817800093673    000035299                    000352990000000000000109                     I0135299     31011900000000040003410000017N261218104700000000000103101190000000000000000000000000000000000000000100084301724753ANA LUCIA FERREIRA DA SILVA             RUA HUGO CESAR MONTEIRO DA SILVA        CAICARA     26015000NOVA IGUACU    RJUNIAO UMB DOS CULTOS AFRO BRAS    31011910 000007
10231987175000168817800093673    000035298                    000352980000000000000109                     I0135298     31011900000000040003410000017N261218104700000000000103101190000000000000000000000000000000000000000100024810517349SILANIA MARIA AGUIAR GOIS               AVENIDA RUY BARBOSA                     SANTA TEREZI36045410JUIZ DE FORA   MGUNIAO UMB DOS CULTOS AFRO BRAS    31011910 000008
10231987175000168817800093673    000035297                    000352970000000000000109                     I0135297     31011900000000040003410000017N261218104700000000000103101190000000000000000000000000000000000000000100003836060710SANDRA VIEIRA DA SILVA TEIXEIR          RUA REDENTOR                            JARDIM REDEN26110090BELFORD ROXO   RJUNIAO UMB DOS CULTOS AFRO BRAS    31011910 000009
10231987175000168817800093673    000035296                    000352960000000000000109                     I0135296     31011900000000040003410000017N261218104700000000000103101190000000000000000000000000000000000000000100076348547787EDIVANICE DE OLIVEIRA DA CRUZ           RUA J J COWSERT                         TOMAS COELHO21370450RIO DE JANEIRO RJUNIAO UMB DOS CULTOS AFRO BRAS    31011910 000010
10231987175000168817800093673    000035295                    000352950000000000000109                     I0135295     31011900000000040003410000017N261218104700000000000103101190000000000000000000000000000000000000000100000891933778MARIA DAS NEVES FERREIRA DO NA          RUA CAMINHO DA CHACARA                  PRACA SECA  22733060RIO DE JANEIRO RJUNIAO UMB DOS CULTOS AFRO BRAS    31011910 000011
10231987175000168817800093673    000035294                    000352940000000000000109                     I0135294     31011900000000040003410000017N261218104700000000000103101190000000000000000000000000000000000000000100074979205704ROSANA HELENA PIRES                     RUA AGAPANTO                            VARGEM GRAND22785000RIO DE JANEIRO RJUNIAO UMB DOS CULTOS AFRO BRAS    31011910 000012
10231987175000168817800093673    000035293                    000352930000000000000109                     I0135293     31011900000000040003410000017N261218104700000000000103101190000000000000000000000000000000000000000100040402711734PAULO CESAR ANASTACIO PEREIRA           RUA BOTOCUDOS                           PARADA MORAB25265351DUQUE DE CAXIASRJUNIAO UMB DOS CULTOS AFRO BRAS    31011910 000013
10231987175000168817800093673    000035292                    000352920000000000000109                     I0135292     31011900000000040003410000017N261218104700000000000103101190000000000000000000000000000000000000000100008401319765ANDRE FERREIRA DE PAULA                 RUA AMERICO ROCHA                       MARECHAL HER21555300RIO DE JANEIRO RJUNIAO UMB DOS CULTOS AFRO BRAS    31011910 000014
10231987175000168817800093673    000035291                    000352910000000000000109                     I0135291     31011900000000040003410000017N261218104700000000000103101190000000000000000000000000000000000000000100058365737787ALTAMIRA ROSA                           AVENIDA DO CONTORNO                     PARADA MORAB25000000DUQUE DE CAXIASRJUNIAO UMB DOS CULTOS AFRO BRAS    31011910 000015
10231987175000168817800093673    000035290                    000352900000000000000109                     I0135290     31011900000000040003410000017N261218104700000000000103101190000000000000000000000000000000000000000100074171372704ELIANE DE SOUZA MACHADO                 RUA ROQUETE PINTO                       JARDIM ANHAN25265200DUQUE DE CAXIASRJUNIAO UMB DOS CULTOS AFRO BRAS    31011910 000016
10231987175000168817800093673    000035289                    000352890000000000000109                     I0135289     31011900000000040003410000017N261218104700000000000103101190000000000000000000000000000000000000000100053218833787MARLUCE SUELY DA SILVA                  RUA ESCRAVA ISAURA                      BRIZAMAR    23825380RIO DE JANEIRO RJUNIAO UMB DOS CULTOS AFRO BRAS    31011910 000017
10231987175000168817800093673    000035288                    000352880000000000000109                     I0135288     31011900000000040003410000017N261218104700000000000103101190000000000000000000000000000000000000000100090617249744RAQUEL DA PAZ                           RUA ITABIBOCA                           PARADA MORAB25265188DUQUE DE CAXIASRJUNIAO UMB DOS CULTOS AFRO BRAS    31011910 000018
10231987175000168817800093673    000035287                    000352870000000000000109                     I0135287     31011900000000040003410000017N261218104700000000000103101190000000000000000000000000000000000000000100079882749704IRIS BRASILINO VILELA                   RUA DONA ALZIRA                         FIGUEIRA II 26022202NOVA IGUACU    RJUNIAO UMB DOS CULTOS AFRO BRAS    31011910 000019
10231987175000168817800093673    000035286                    000352860000000000000109                     I0135286     31011900000000040003410000017N261218104700000000000103101190000000000000000000000000000000000000000100082191638791RITA DE CASSIA VALVERDE ROCHA           RUA JOAQUIM SOARES NETO                 NOVA AMERICA26021560NOVA IGUACU    RJUNIAO UMB DOS CULTOS AFRO BRAS    31011910 000020
10231987175000168817800093673    000035285                    000352850000000000000109                     I0135285     31011900000000040003410000017N261218104700000000000103101190000000000000000000000000000000000000000100069052735700ROSANE MARQUES FERREIRA                 AVENIDA PEDRO GERALDO DE ALMEIDA        CAMPO GRANDE23076160RIO DE JANEIRO RJUNIAO UMB DOS CULTOS AFRO BRAS    31011910 000021
10231987175000168817800093673    000035284                    000352840000000000000109                     I0135284     31011900000000040003410000017N261218104700000000000103101190000000000000000000000000000000000000000100004244337709WANDERSON SANTOS DA SILVA               AVENIDA DAS AMERICAS                    RECREIO DOS 22790330RIO DE JANEIRO RJUNIAO UMB DOS CULTOS AFRO BRAS    31011910 000022
10231987175000168817800093673    000035283                    000352830000000000000109                     I0135283     31011900000000040003410000017N261218104700000000000103101190000000000000000000000000000000000000000100014520518792STEPHANI MATOS MONTEIRO                 ESTRADA DOUTOR PLINIO CASADO            CENTRO      26130622BELFORD ROXO   RJUNIAO UMB DOS CULTOS AFRO BRAS    31011910 000023
10231987175000168817800093673    000035282                    000352820000000000000109                     I0135282     31011900000000040003410000017N261218104700000000000103101190000000000000000000000000000000000000000100012727461780SUELMIR LIMA DE ARAUJO                  RUA NOSSA SENHORA DAS GRACAS            PRAIA DO ANI25925708MAGE           RJUNIAO UMB DOS CULTOS AFRO BRAS    31011910 000024
10231987175000168817800093673    000035281                    000352810000000000000109                     I0135281     31011900000000040003410000017N261218104700000000000103101190000000000000000000000000000000000000000100002142304737ILAIR FERNANDES BRAZILEIRO BOR          RUA VERISSIMO MACHADO                   ROCHA MIRAND21545060RIO DE JANEIRO RJUNIAO UMB DOS CULTOS AFRO BRAS    31011910 000025
10231987175000168817800093673    000035280                    000352800000000000000109                     I0135280     31011900000000040003410000017N261218104700000000000103101190000000000000000000000000000000000000000100001346375771CRISTIANE MARIANO RAPELLO               ESTRADA ALBERTO TEIXEIRA CUNHA          NOSSA SENHOR26520070NILOPOLIS      RJUNIAO UMB DOS CULTOS AFRO BRAS    31011910 000026
10231987175000168817800093673    000035279                    000352790000000000000109                     I0135279     31011900000000040003410000017N261218104700000000000103101190000000000000000000000000000000000000000100011351878786GLEISSON BITTENCOURT DA SILVA           RUA FLORA DE ARAUJO                     PRATA       26010570NOVA IGUACU    RJUNIAO UMB DOS CULTOS AFRO BRAS    31011910 000027
10231987175000168817800093673    000035278                    000352780000000000000109                     I0135278     31011900000000040003410000017N261218104700000000000103101190000000000000000000000000000000000000000100000839586736MAURO CESAR BRANCO OBERLAENDER          RUA IGUARIM                             REALENGO    21765540RIO DE JANEIRO RJUNIAO UMB DOS CULTOS AFRO BRAS    31011910 000028
10231987175000168817800093673    000035277                    000352770000000000000109                     I0135277     31011900000000040003410000017N261218104700000000000103101190000000000000000000000000000000000000000100011766861784MARIA WANDERLEIA MARTINS CRUZ           RUA BRUNO LECINI                        AUSTIN      26279255NOVA IGUACU    RJUNIAO UMB DOS CULTOS AFRO BRAS    31011910 000029
10231987175000168817800093673    000035276                    000352760000000000000109                     I0135276     31011900000000040003410000017N261218104700000000000103101190000000000000000000000000000000000000000100070645523704RICARDO DE SOUZA LIMA                   RUA MAJOR AZEVEDO                       IRAJA       21230060RIO DE JANEIRO RJUNIAO UMB DOS CULTOS AFRO BRAS    31011910 000030
10231987175000168817800093673    000035275                    000352750000000000000109                     I0135275     31011900000000040003410000017N261218104700000000000103101190000000000000000000000000000000000000000100068373570772RONILCE CAMILO DA SILVA                 RUA RUBY ALBERTORIA                     GERENCIANO  26061155NOVA IGUACU    RJUNIAO UMB DOS CULTOS AFRO BRAS    31011910 000031
10231987175000168817800093673    000035274                    000352740000000000000109                     I0135274     31011900000000040003410000017N261218104700000000000103101190000000000000000000000000000000000000000100047442140700MARFIZA FERREIRA DA SILVA VENA          RUA EURICO COELHO                       GRAMA       26060650NOVA IGUACU    RJUNIAO UMB DOS CULTOS AFRO BRAS    31011910 000032
10231987175000168817800093673    000035273                    000352730000000000000109                     I0135273     31011900000000040003410000017N261218104700000000000103101190000000000000000000000000000000000000000100007620451157JUCIARA BARRETO DA SILVA                RUA G                                   PIABETA     25900000MAGE           RJUNIAO UMB DOS CULTOS AFRO BRAS    31011910 000033
10231987175000168817800093673    000035272                    000352720000000000000109                     I0135272     31011900000000040003410000017N261218104700000000000103101190000000000000000000000000000000000000000100000680684760CREUSA MARCIA SATURNINO ALVES           RUA NOSSA SENHORA DE NAZARE N           GERENCIANO  26061700NOVA IGUACU    RJUNIAO UMB DOS CULTOS AFRO BRAS    31011910 000034
10231987175000168817800093673    000035271                    000352710000000000000109                     I0135271     31011900000000040003410000017N261218104700000000000103101190000000000000000000000000000000000000000100002375024702FATIMA APARECIDA OLIVEIRA DE C          RUA OURO PRETO                          COQUEIRAL   20740280RIO DE JANEIRO RJUNIAO UMB DOS CULTOS AFRO BRAS    31011910 000035
10231987175000168817800093673    000035270                    000352700000000000000109                     I0135270     31011900000000040003410000017N261218104700000000000103101190000000000000000000000000000000000000000100005828675761THAYS DE FATIMA FERREIRA GOMES          ESTRADA GENERAL AFONSO DE CARVALHO      PADRE MIGUEL21725020RIO DE JANEIRO RJUNIAO UMB DOS CULTOS AFRO BRAS    31011910 000036
10231987175000168817800093673    000035269                    000352690000000000000109                     I0135269     31011900000000040003410000017N261218104700000000000103101190000000000000000000000000000000000000000100076994511715MARIA DAS GRACAS SANTOS DA SIL          RUA ISLANDIA                            SARACURUNA  00000000DUQUE DE CAXIASRJUNIAO UMB DOS CULTOS AFRO BRAS    31011910 000037
10231987175000168817800093673    000035268                    000352680000000000000109                     I0135268     31011900000000040003410000017N261218104700000000000103101190000000000000000000000000000000000000000100001317692780SELENE FREIRE DE ARAUJO CANNAN          RUA DA CONQUISTA                        JARDIM ESPLA26013330NOVA IGUACU    RJUNIAO UMB DOS CULTOS AFRO BRAS    31011910 000038
10231987175000168817800093673    000035267                    000352670000000000000109                     I0135267     31011900000000040003410000017N261218104700000000000103101190000000000000000000000000000000000000000100006027343710SUELI REIS DIAS DA SILVA                RUA TAPAJOS                             OURO VERDE -26262480NOVA IGUACU    RJUNIAO UMB DOS CULTOS AFRO BRAS    31011910 000039
10231987175000168817800093673    000035266                    000352660000000000000109                     I0135266     31011900000000040003410000017N261218104700000000000103101190000000000000000000000000000000000000000100056381832720DAVI LEMOS MOREIRA                      RUA CARLINDA                            VILA DE CAVA26052120NOVA IGUACU    RJUNIAO UMB DOS CULTOS AFRO BRAS    31011910 000040
10231987175000168817800093673    000035265                    000352650000000000000109                     I0135265     31011900000000040003410000017N261218104700000000000103101190000000000000000000000000000000000000000100074824996791ELIANE DA SILVA CAMACHO                 RUA MAJOR REGO                          OLARIA      21073440RIO DE JANEIRO RJUNIAO UMB DOS CULTOS AFRO BRAS    31011910 000041
10231987175000168817800093673    000035264                    000352640000000000000109                     I0135264     31011900000000040003410000017N261218104700000000000103101190000000000000000000000000000000000000000100025814712149JAIR FERREIRA FILHO                     ESTRADA PRESIDENTE CASTELO BRANCO       EDSON PASSOS00000000RIO DE JANEIRO RJUNIAO UMB DOS CULTOS AFRO BRAS    31011910 000042
10231987175000168817800093673    000035263                    000352630000000000000109                     I0135263     31011900000000040003410000017N261218104700000000000103101190000000000000000000000000000000000000000100010276278704ROSELI DE OLIVEIRA DUTRA                RUA UM                                  TAQUARA     25275110DUQUE DE CAXIASRJUNIAO UMB DOS CULTOS AFRO BRAS    31011910 000043
10231987175000168817800093673    000035262                    000352620000000000000109                     I0135262     31011900000000040003410000017N261218104700000000000103101190000000000000000000000000000000000000000100000000000000VIVIANE MORAES ALEXANDRINO              RUA JOAQUIM MOREIRA                     SEPETIBA    23545054RIO DE JANEIRO RJUNIAO UMB DOS CULTOS AFRO BRAS    31011910 000044
10231987175000168817800093673    000035261                    000352610000000000000109                     I0135261     31011900000000040003410000017N261218104700000000000103101190000000000000000000000000000000000000000100014641727732DAVI SILVA BARBOSA LIMA                 TRAVESSA ANTONIO AARAO                  SEPETIBA    23540030RIO DE JANEIRO RJUNIAO UMB DOS CULTOS AFRO BRAS    31011910 000045
10231987175000168817800093673    000035260                    000352600000000000000109                     I0135260     31011900000000040003410000017N261218104700000000000103101190000000000000000000000000000000000000000100056717784768LENIR MARTINS COUTO                     ESTRADA BR 101                          MURIQUI     23870000RIO DE JANEIRO RJUNIAO UMB DOS CULTOS AFRO BRAS    31011910 000046
10231987175000168817800093673    000035259                    000352590000000000000109                     I0135259     31011900000000040003410000017N261218104700000000000103101190000000000000000000000000000000000000000100005646881773DEBORA LINS                             RUA LACONIA                             JARDIM AMAPA26182230BELFORD ROXO   RJUNIAO UMB DOS CULTOS AFRO BRAS    31011910 000047
10231987175000168817800093673    000035258                    000352580000000000000109                     I0135258     31011900000000040003410000017N261218104700000000000103101190000000000000000000000000000000000000000100002377869764ANA PAULA OLIVEIRA DE ANDRADE           RUA FERNANDO DA COSTA                   PARQUE MARTI26183543BELFORD ROXO   RJUNIAO UMB DOS CULTOS AFRO BRAS    31011910 000048
10231987175000168817800093673    000035257                    000352570000000000000109                     I0135257     31011900000000040003410000017N261218104700000000000103101190000000000000000000000000000000000000000100059110465715ZEILTON VIEIRA NUNES                    ESTRADA VELHA RIO DOURADO               PALMITAL    28891090RIO DAS OSTRAS RJUNIAO UMB DOS CULTOS AFRO BRAS    31011910 000049
10231987175000168817800093673    000035256                    000352560000000000000109                     I0135256     31011900000000040003410000017N261218104700000000000103101190000000000000000000000000000000000000000100038835568749MARIA DE ALCANTARA GOULART SIL          RUA GAMBIA                              JACAREPAGUA 22775400RIO DE JANEIRO RJUNIAO UMB DOS CULTOS AFRO BRAS    31011910 000050
10231987175000168817800093673    000035255                    000352550000000000000109                     I0135255     31011900000000040003410000017N261218104700000000000103101190000000000000000000000000000000000000000100011998959708ARTUR TAVARES DA SILVA NETO             RUA PREFEITO JOAO CARLOS VITAL          CROACIA - SE23540080RIO DE JANEIRO RJUNIAO UMB DOS CULTOS AFRO BRAS    31011910 000051
10231987175000168817800093673    000035254                    000352540000000000000109                     I0135254     31011900000000040003410000017N261218104700000000000103101190000000000000000000000000000000000000000100008502438743ALINE RAMOS DE SOUZA DA SILVA           RUA DOUTOR ISMAEL CAVALCANTI            SEPETIBA    23545145RIO DE JANEIRO RJUNIAO UMB DOS CULTOS AFRO BRAS    31011910 000052
10231987175000168817800093673    000035253                    000352530000000000000109                     I0135253     31011900000000040003410000017N261218104700000000000103101190000000000000000000000000000000000000000100007103755736ALESSANDRA COSTA DE BARROS              PRACA OSCAR ROSSIM                      SEPETIBA    23540250RIO DE JANEIRO RJUNIAO UMB DOS CULTOS AFRO BRAS    31011910 000053
10231987175000168817800093673    000035252                    000352520000000000000109                     I0135252     31011900000000040003410000017N261218104700000000000103101190000000000000000000000000000000000000000100002420898796ROSILENE MATHEUS DE CARVALHO            RUA KEMAL PACHA                         VILA SANTO A25040220DUQUE DE CAXIASRJUNIAO UMB DOS CULTOS AFRO BRAS    31011910 000054
10231987175000168817800093673    000035251                    000352510000000000000109                     I0135251     31011900000000040003410000017N261218104700000000000103101190000000000000000000000000000000000000000100014563820717PAULA GOMES DA SILVA MOTTA              RUA GABRIEL DANUSIO                     VILA SANTO A25040230DUQUE DE CAXIASRJUNIAO UMB DOS CULTOS AFRO BRAS    31011910 000055
10231987175000168817800093673    000035250                    000352500000000000000109                     I0135250     31011900000000040003410000017N261218104700000000000103101190000000000000000000000000000000000000000100000000000587IZABEL GONCALVES DA ROCHA               RUA NOSSA SENHORA DA GUIA               VILA DE CAVA26062192NOVA IGUACU    RJUNIAO UMB DOS CULTOS AFRO BRAS    31011910 000056
10231987175000168817800093673    000035249                    000352490000000000000109                     I0135249     31011900000000040003410000017N261218104700000000000103101190000000000000000000000000000000000000000100009946366797SIMONE SOARES NEA                       RUA FLAVIO RANGEL                       CAMPO GRANDE23085430RIO DE JANEIRO RJUNIAO UMB DOS CULTOS AFRO BRAS    31011910 000057
10231987175000168817800093673    000035248                    000352480000000000000109                     I0135248     31011900000000040003410000017N261218104700000000000103101190000000000000000000000000000000000000000100030422175749LENI MENDUIÑA DA SILVA GUERRA          RUA ADOLFO DE CARVALHO                  ENGENHEIRO B25520240RIO DE JANEIRO RJUNIAO UMB DOS CULTOS AFRO BRAS    31011910 000058
10231987175000168817800093673    000035247                    000352470000000000000109                     I0135247     31011900000000040003410000017N261218104700000000000103101190000000000000000000000000000000000000000100002638717703EDINO GOMES DE BARROS JUNIOR            RUA PARANA                              MORRO DO ORI24400000SAO GONCALO    RJUNIAO UMB DOS CULTOS AFRO BRAS    31011910 000059
10231987175000168817800093673    000035246                    000352460000000000000109                     I0135246     31011900000000040003410000017N261218104700000000000103101190000000000000000000000000000000000000000100000920173713JORGE DOS SANTOS LUCAS                  RUA PP                                  JARDIM ANHAN25264360DUQUE DE CAXIASRJUNIAO UMB DOS CULTOS AFRO BRAS    31011910 000060
10231987175000168817800093673    000035245                    000352450000000000000109                     I0135245     31011900000000040003410000017N261218104700000000000103101190000000000000000000000000000000000000000100009483806755MARCO ANTONIO ATAIDE DE MELO            TRAVESSA MARAPE                         COSTA BARROS21515240RIO DE JANEIRO RJUNIAO UMB DOS CULTOS AFRO BRAS    31011910 000061
10231987175000168817800093673    000035244                    000352440000000000000109                     I0135244     31011900000000040003410000017N261218104700000000000103101190000000000000000000000000000000000000000100013791358774TEREZINHA MENDONCA CORDEIRO             RUA SUEZ                                JARDIM GUAND26298180NOVA IGUACU    RJUNIAO UMB DOS CULTOS AFRO BRAS    31011910 000062
10231987175000168817800093673    000035243                    000352430000000000000109                     I0135243     31011900000000040003410000017N261218104700000000000103101190000000000000000000000000000000000000000100058101543791JANETE BARBOSA FERREIRA                 AVENIDA SUBURBANA                       ITAIPU      26127380BELFORD ROXO   RJUNIAO UMB DOS CULTOS AFRO BRAS    31011910 000063
10231987175000168817800093673    000035242                    000352420000000000000109                     I0135242     31011900000000040003410000017N261218104700000000000103101190000000000000000000000000000000000000000100043488994791CELIA REGINA DA SILVA TEIXEIRA          RUA Y                                   JARDIM PALMA23065583RIO DE JANEIRO RJUNIAO UMB DOS CULTOS AFRO BRAS    31011910 000064
10231987175000168817800093673    000035241                    000352410000000000000109                     I0135241     31011900000000040003410000017N261218104700000000000103101190000000000000000000000000000000000000000100007545291778ANDRE LUIS DA SILVA                     RUA VASCO DA GAMA                       PARQUE ESTOR26063190NOVA IGUACU    RJUNIAO UMB DOS CULTOS AFRO BRAS    31011910 000065
10231987175000168817800093673    000035240                    000352400000000000000109                     I0135240     31011900000000040003410000017N261218104700000000000103101190000000000000000000000000000000000000000100003025076712MARIA QUITERIA DOS SANTOS PITA          RUA MISSIONARIO CHRISTIE                QUISSAMA    25615250PETROPOLIS     RJUNIAO UMB DOS CULTOS AFRO BRAS    31011910 000066
10231987175000168817800093673    000035239                    000352390000000000000109                     I0135239     31011900000000040003410000017N261218104700000000000103101190000000000000000000000000000000000000000100062988050791REGINA LUCIA DE SOUZA SANTOS            RUA ENGENHEIRO LAFAYETE STOCKLER        VILA DA PENH21221390RIO DE JANEIRO RJUNIAO UMB DOS CULTOS AFRO BRAS    31011910 000067
10231987175000168817800093673    000035238                    000352380000000000000109                     I0135238     31011900000000040003410000017N261218104700000000000103101190000000000000000000000000000000000000000100001857739744JORGE DE MORAES ESTANISLAU              RUA TITANIC                             REALENGO    21735620RIO DE JANEIRO RJUNIAO UMB DOS CULTOS AFRO BRAS    31011910 000068
10231987175000168817800093673    000035237                    000352370000000000000109                     I0135237     31011900000000040003410000017N261218104700000000000103101190000000000000000000000000000000000000000100001251801790AMARO LYRA DOS SANTOS FILHO             RUA DOUTOR ANTONIO MARTINS              TAQUARA     22723650RIO DE JANEIRO RJUNIAO UMB DOS CULTOS AFRO BRAS    31011910 000069
10231987175000168817800093673    000035236                    000352360000000000000109                     I0135236     31011900000000040003410000017N261218104700000000000103101190000000000000000000000000000000000000000100010016543752ALEXANDRE TEIXEIRA CAVALCANTE           RUA DOUTOR NUNES                        OLARIA      21021370RIO DE JANEIRO RJUNIAO UMB DOS CULTOS AFRO BRAS    31011910 000070
10231987175000168817800093673    000035235                    000352350000000000000109                     I0135235     31011900000000040003410000017N261218104700000000000103101190000000000000000000000000000000000000000100048672068734NOEMIA CONCEICAO DE SOUZA               ESTRADA DO CAMORIM                      JACAREPAGUA 20765040RIO DE JANEIRO RJUNIAO UMB DOS CULTOS AFRO BRAS    31011910 000071
10231987175000168817800093673    000035234                    000352340000000000000109                     I0135234     31011900000000040003410000017N261218104700000000000103101190000000000000000000000000000000000000000100002846505608DIONE ROSA FERNANDES                    RUA MARQUES DE LEAO                     ENGENHO NOVO20780140RIO DE JANEIRO RJUNIAO UMB DOS CULTOS AFRO BRAS    31011910 000072
10231987175000168817800093673    000035233                    000352330000000000000109                     I0135233     31011900000000040003410000017N261218104700000000000103101190000000000000000000000000000000000000000100002520859733ZILAIR SANTOS BARBOSA                   RUA MARANGA                             PRACA SECA  21321060RIO DE JANEIRO RJUNIAO UMB DOS CULTOS AFRO BRAS    31011910 000073
10231987175000168817800093673    000035232                    000352320000000000000109                     I0135232     31011900000000040003410000017N261218104700000000000103101190000000000000000000000000000000000000000100033890145787ADEMILSON ANTONIO DE MENEZES            RUA ALMEIDA JUNIOR                      PANTANAL    25041390DUQUE DE CAXIASRJUNIAO UMB DOS CULTOS AFRO BRAS    31011910 000074
10231987175000168817800093673    000035231                    000352310000000000000109                     I0135231     31011900000000040003410000017N261218104700000000000103101190000000000000000000000000000000000000000100066514118704MARILIA GARCIA DA PAIXAO                RUA FRANCOLIM                           GUADALUPE   21660130RIO DE JANEIRO RJUNIAO UMB DOS CULTOS AFRO BRAS    31011910 000075
10231987175000168817800093673    000035230                    000352300000000000000109                     I0135230     31011900000000040003410000017N261218104700000000000103101190000000000000000000000000000000000000000100001010828789JUSSARA DA SILVA GONCALVES DAM          RUA TRINTA E TRES                       NOVA CIDADE 24804185ITABORAI       RJUNIAO UMB DOS CULTOS AFRO BRAS    31011910 000076
10231987175000168817800093673    000035229                    000352290000000000000109                     I0135229     31011900000000040003410000017N261218104700000000000103101190000000000000000000000000000000000000000100014199569731LUIS FILIPE SANTOS COSTA                ESTRADA DOUTOR JOAQUIM NICOLAU          PRACA PONTE 26900000MIGUEL PEREIRA RJUNIAO UMB DOS CULTOS AFRO BRAS    31011910 000077
10231987175000168817800093673    000035228                    000352280000000000000109                     I0135228     31011900000000040003410000017N261218104700000000000103101190000000000000000000000000000000000000000100000000012767REGINA CELIA DE OLIVEIRA DA SI          RUA VENANCIO                            OLAVO BILAC 25035340DUQUE DE CAXIASRJUNIAO UMB DOS CULTOS AFRO BRAS    31011910 000078
10231987175000168817800093673    000035227                    000352270000000000000109                     I0135227     31011900000000040003410000017N261218104700000000000103101190000000000000000000000000000000000000000100053470095787OSVALDO VALENTE COELHO FILHO            RUA VISCONDE DE SABOIA                  CAVALCANTI  21370220RIO DE JANEIRO RJUNIAO UMB DOS CULTOS AFRO BRAS    31011910 000079
10231987175000168817800093673    000035226                    000352260000000000000109                     I0135226     31011900000000040003410000017N261218104700000000000103101190000000000000000000000000000000000000000100053211839704ALCIONE SOUZA DOS SANTOS                RUA MARINO FELIX                        SEPETIBA    23535006RIO DE JANEIRO RJUNIAO UMB DOS CULTOS AFRO BRAS    31011910 000080
10231987175000168817800093673    000035225                    000352250000000000000109                     I0135225     31011900000000040003410000017N261218104700000000000103101190000000000000000000000000000000000000000100000559929781KLEBER SIQUEIRA CUNHA                   ESTRADA DO PIAI                         GUARATIBA   23028050RIO DE JANEIRO RJUNIAO UMB DOS CULTOS AFRO BRAS    31011910 000081
10231987175000168817800093673    000035224                    000352240000000000000109                     I0135224     31011900000000040003410000017N261218104700000000000103101190000000000000000000000000000000000000000100099586860768MARLECI NAVARRO DE FARIA                RUA CURUPAETI                           VILA VICOSA 21230075RIO DE JANEIRO RJUNIAO UMB DOS CULTOS AFRO BRAS    31011910 000082
10231987175000168817800093673    000035223                    000352230000000000000109                     I0135223     31011900000000040003410000017N261218104700000000000103101190000000000000000000000000000000000000000100045544085749LUCIANO PORTO DE MORAES                 RUA OLIMPIO DE CARVALHO                 AMENDOEIRA  24732440SAO GONCALO    RJUNIAO UMB DOS CULTOS AFRO BRAS    31011910 000083
10231987175000168817800093673    000035222                    000352220000000000000109                     I0135222     31011900000000040003410000017N261218104700000000000103101190000000000000000000000000000000000000000100091473209749CRISTOVAO JOSE DA SILVA MAGALH          RUA VICTORIO PEREIRA NUNES              CASTELANEA  25640262PETROPOLIS     RJUNIAO UMB DOS CULTOS AFRO BRAS    31011910 000084
10231987175000168817800093673    000035221                    000352210000000000000109                     I0135221     31011900000000040003410000017N261218104700000000000103101190000000000000000000000000000000000000000100001653081767DEISE SIQUEIRA                          RUA PARLON SIQUEIRA                     BARRA DE GUA23020510RIO DE JANEIRO RJUNIAO UMB DOS CULTOS AFRO BRAS    31011910 000085
10231987175000168817800093673    000035220                    000352200000000000000109                     I0135220     31011900000000040003410000017N261218104700000000000103101190000000000000000000000000000000000000000100067287581787MARIA DA CONCEICAO DE LIMA              RUA ALTO BOA VISTA                      VILAR DOS TE25565410SAO JOAO DE MERRJUNIAO UMB DOS CULTOS AFRO BRAS    31011910 000086
10231987175000168817800093673    000035219                    000352190000000000000109                     I0135219     31011900000000040003410000017N261218104700000000000103101190000000000000000000000000000000000000000100002721212745MARILIA CLAUDIA DA SILVA CORRE          RUA CAIRO                               VILA URUSSAY25255470SAO JOAO DE MERRJUNIAO UMB DOS CULTOS AFRO BRAS    31011910 000087
10231987175000168817800093673    000035218                    000352180000000000000109                     I0135218     31011900000000040003410000017N261218104700000000000103101190000000000000000000000000000000000000000100003013793783GIOVANA SURAMA BRANDAO MONFORT          RUA JOAO TELES                          CENTRO      26550100MESQUITA       RJUNIAO UMB DOS CULTOS AFRO BRAS    31011910 000088
10231987175000168817800093673    000035217                    000352170000000000000109                     I0135217     31011900000000040003410000017N261218104700000000000103101190000000000000000000000000000000000000000100009199332701LUANDA MOREIRA DOS SANTOS FERN          RUA EMILIA BORBA                        SURUI       25931152RIO DE JANEIRO RJUNIAO UMB DOS CULTOS AFRO BRAS    31011910 000089
10231987175000168817800093673    000035216                    000352160000000000000109                     I0135216     31011900000000040003410000017N261218104700000000000103101190000000000000000000000000000000000000000100002813320706COSME PAULO DA COSTA CRAVO              RUA: PADRE MANOEL DE NOBREGA            QUINTINO BOC21381009RIO DE JANEIRO RJUNIAO UMB DOS CULTOS AFRO BRAS    31011910 000090
10231987175000168817800093673    000035215                    000352150000000000000109                     I0135215     31011900000000040003410000017N261218104700000000000103101190000000000000000000000000000000000000000100000000001274DALILA REIS PIMENTA                     RUA TESOURO                             SANTA TEREZI00000000NOVA IGUACU    RJUNIAO UMB DOS CULTOS AFRO BRAS    31011910 000091
10231987175000168817800093673    000035214                    000352140000000000000109                     I0135214     31011900000000040003410000017N261218104700000000000103101190000000000000000000000000000000000000000100002102287768SERGIO RICARDO FERREIRA DOS SA          RUA LAGUNA                              NOVA PIAM   26116620BELFORD ROXO   RJUNIAO UMB DOS CULTOS AFRO BRAS    31011910 000092
10231987175000168817800093673    000035213                    000352130000000000000109                     I0135213     31011900000000040003410000017N261218104700000000000103101190000000000000000000000000000000000000000100003009392729MARIA DA PENHA FLORENCIO                RUA SABUJI DIM ROTSEN                   JARDIM ROTSE25270030DUQUE DE CAXIASRJUNIAO UMB DOS CULTOS AFRO BRAS    31011910 000093
10231987175000168817800093673    000035212                    000352120000000000000109                     I0135212     31011900000000040003410000017N261218104700000000000103101190000000000000000000000000000000000000000100001147868794VALERIA APARECIDA DE SOUZA              RUA ALCYR BRASIL                        JARDIM NOVA 26266010NOVA IGUACU    RJUNIAO UMB DOS CULTOS AFRO BRAS    31011910 000094
10231987175000168817800093673    000035211                    000352110000000000000109                     I0135211     31011900000000040003410000017N261218104700000000000103101190000000000000000000000000000000000000000100007900227709FLAVIA ARAUJO DA ROCHA SANTOS           RUA MARECHAL AGRICOLA                   REALENGO    21735370RIO DE JANEIRO RJUNIAO UMB DOS CULTOS AFRO BRAS    31011910 000095
10231987175000168817800093673    000035210                    000352100000000000000109                     I0135210     31011900000000040003410000017N261218104700000000000103101190000000000000000000000000000000000000000100005361904708VANESSA SANTIAGO DE AZEVEDO BA          AVENIDA TEIXEIRA DE CASTRO              RAMOS       21040113RIO DE JANEIRO RJUNIAO UMB DOS CULTOS AFRO BRAS    31011910 000096
10231987175000168817800093673    000035209                    000352090000000000000109                     I0135209     31011900000000040003410000017N261218104700000000000103101190000000000000000000000000000000000000000100099941120749ERNELIA DA SILVA                        RUA JOSE BEZZ                           GABRIEL UM  24856172ITABORAI       RJUNIAO UMB DOS CULTOS AFRO BRAS    31011910 000097
10231987175000168817800093673    000035208                    000352080000000000000109                     I0135208     31011900000000040003410000017N261218104700000000000103101190000000000000000000000000000000000000000100001430160756RITA DE CASSIA CORMACK DE CARV          RUA: MANOEL IVO                         VILA TRES - 24711030SAO GONCALO    RJUNIAO UMB DOS CULTOS AFRO BRAS    31011910 000098
10231987175000168817800093673    000035207                    000352070000000000000109                     I0135207     31011900000000040003410000017N261218104700000000000103101190000000000000000000000000000000000000000100002362714748MAGLENE GOMES ARAUJO                    RUA TENENTE PINTO DUARTE                BENTO RIBEIR21550370RIO DE JANEIRO RJUNIAO UMB DOS CULTOS AFRO BRAS    31011910 000099
10231987175000168817800093673    000035206                    000352060000000000000109                     I0135206     31011900000000040003410000017N261218104700000000000103101190000000000000000000000000000000000000000100001148949739MARIA DAS GRACAS SEBASTIANA DO          RUA PEREIRA PINTO                       TOMAS COELHO20761350RIO DE JANEIRO RJUNIAO UMB DOS CULTOS AFRO BRAS    31011910 000100
10231987175000168817800093673    000035205                    000352050000000000000109                     I0135205     31011900000000040003410000017N261218104700000000000103101190000000000000000000000000000000000000000100088640809704JULIO CESAR SARAIVA PIRES               ESTRADA SANTA MAURA                     CURICICA - J22780170RIO DE JANEIRO RJUNIAO UMB DOS CULTOS AFRO BRAS    31011910 000101
10231987175000168817800093673    000035204                    000352040000000000000109                     I0135204     31011900000000040003410000017N261218104700000000000103101190000000000000000000000000000000000000000100064947130768MARIA GORETE DE SOUSA MIRANDA           AVENIDA PASTEUR                         PARQUE ALIAN25550210SAO JOAO DE MERRJUNIAO UMB DOS CULTOS AFRO BRAS    31011910 000102
10231987175000168817800093673    000035203                    000352030000000000000109                     I0135203     31011900000000040003410000017N261218104700000000000103101190000000000000000000000000000000000000000100001034293796LILIA NERES DE ALMEIDA                  RUA VERISSIMO MACHADO                   ROCHA MIRAND21542060RIO DE JANEIRO RJUNIAO UMB DOS CULTOS AFRO BRAS    31011910 000103
10231987175000168817800093673    000035202                    000352020000000000000109                     I0135202     31011900000000040003410000017N261218104700000000000103101190000000000000000000000000000000000000000100012781404764RICARDO RIBEIRO DOS SANTOS              RUA ITAGIBA                             COSMOS      23060450RIO DE JANEIRO RJUNIAO UMB DOS CULTOS AFRO BRAS    31011910 000104
10231987175000168817800093673    000035201                    000352010000000000000109                     I0135201     31011900000000040003410000017N261218104700000000000103101190000000000000000000000000000000000000000100010426625765ALESSANDRA LAURIANO LIMA DOMIN          RUA PROJETADA                           ANCORA      28899515RIO DAS OSTRAS RJUNIAO UMB DOS CULTOS AFRO BRAS    31011910 000105
10231987175000168817800093673    000035200                    000352000000000000000109                     I0135200     31011900000000040003410000017N261218104700000000000103101190000000000000000000000000000000000000000100077601505716NADIA MARIA DE BRITTO LUCENA            RUA LIBERATO BITENCOURT                 MAGALHAES BA21735120RIO DE JANEIRO RJUNIAO UMB DOS CULTOS AFRO BRAS    31011910 000106
10231987175000168817800093673    000035199                    000351990000000000000109                     I0135199     31011900000000040003410000017N261218104700000000000103101190000000000000000000000000000000000000000100000000000000JUSSARA BALBINO GENUARIO                RUA DAS MARGARIDAS                      CHAPERO     23830240ITAGUAI        RJUNIAO UMB DOS CULTOS AFRO BRAS    31011910 000107
10231987175000168817800093673    000035198                    000351980000000000000109                     I0135198     31011900000000040003410000017N261218104700000000000103101190000000000000000000000000000000000000000100080592368491MARIA JOSE PEREIRA NOGUEIRA DE          ALAMEDA GOIANIA                         ENGENHO DO R24752520SAO GONCALO    RJUNIAO UMB DOS CULTOS AFRO BRAS    31011910 000108
10231987175000168817800093673    000035197                    000351970000000000000109                     I0135197     31011900000000045003410000017N261218104700000000000103101190000000000000000000000000000000000000000100004524099778CRISTIANE VIEIRA DAS CHAGAS             AVENIDA SANTA CRUZ                      BANGU       21830000RIO DE JANEIRO RJUNIAO UMB DOS CULTOS AFRO BRAS    31011910 000109
10231987175000168817800093673    000035196                    000351960000000000000109                     I0135196     31011900000000040003410000017N261218104700000000000103101190000000000000000000000000000000000000000100015295681700MICHEL FERNANDES BASTOS CRESPO          RUA ROSANGELA TOSTES                    PARQUE FLUMI26185260BELFORD ROXO   RJUNIAO UMB DOS CULTOS AFRO BRAS    31011910 000110
10231987175000168817800093673    000035195                    000351950000000000000109                     I0135195     31011900000000040003410000017N261218104700000000000103101190000000000000000000000000000000000000000100001456619705ROSANGELA DAMASCENO                     AVENIDA RAUL BARROS VIEIRA              BANGU       21864230RIO DE JANEIRO RJUNIAO UMB DOS CULTOS AFRO BRAS    31011910 000111
10231987175000168817800093673    000035194                    000351940000000000000109                     I0135194     31011900000000040003410000017N261218104700000000000103101190000000000000000000000000000000000000000100005364326780CARLOS ROBERTO DOLORES CORREA           ESTRADA ADHEMAR BEBIANO                 DEL CASTILHO21051071RIO DE JANEIRO RJUNIAO UMB DOS CULTOS AFRO BRAS    31011910 000112
10231987175000168817800093673    000035193                    000351930000000000000109                     I0135193     31011900000000040003410000017N261218104700000000000103101190000000000000000000000000000000000000000100080974015768SHEYLA REGINA SERAPHIM DA HORA          RUA CAMBAI                              QUINTINO BOC21380300RIO DE JANEIRO RJUNIAO UMB DOS CULTOS AFRO BRAS    31011910 000113
10231987175000168817800093673    000035192                    000351920000000000000109                     I0135192     31011900000000040003410000017N261218104700000000000103101190000000000000000000000000000000000000000100003410130721ADELISE DE FREITAS PALACIO              RUA EMBIRI                              BENTO RIBEIR21331690RIO DE JANEIRO RJUNIAO UMB DOS CULTOS AFRO BRAS    31011910 000114
10231987175000168817800093673    000035191                    000351910000000000000109                     I0135191     31011900000000040003410000017N261218104700000000000103101190000000000000000000000000000000000000000100090036018791SILVIA ELAINE GEVEGIR DA SILVA          RUA VINTE                               PARADA MORAB25265130DUQUE DE CAXIASRJUNIAO UMB DOS CULTOS AFRO BRAS    31011910 000115
10231987175000168817800093673    000035190                    000351900000000000000109                     I0135190     31011900000000040003410000017N261218104700000000000103101190000000000000000000000000000000000000000100014653084742THEILOR MORAIS DE MIRANDA               RUA SAO BENEDITO                        VILA GENI   23826010ITAGUAI        RJUNIAO UMB DOS CULTOS AFRO BRAS    31011910 000116
10231987175000168817800093673    000035189                    000351890000000000000109                     I0135189     31011900000000040003410000017N261218104700000000000103101190000000000000000000000000000000000000000100040433307749IARA BARBOSA MACHADO                    RUA SAO FIDELIS                         PRADOS VERDE26299165NOVA IGUACU    RJUNIAO UMB DOS CULTOS AFRO BRAS    31011910 000117
10231987175000168817800093673    000035188                    000351880000000000000109                     I0135188     31011900000000040003410000017N261218104700000000000103101190000000000000000000000000000000000000000100002045675726ROBSON DOS SANTOS ABREU                 RUA PERCILIANA EMILIA DO NASCIMENTO     SILVESTRE   23092540CAMPO GRANDE   RJUNIAO UMB DOS CULTOS AFRO BRAS    31011910 000118
10231987175000168817800093673    000035187                    000351870000000000000109                     I0135187     31011900000000040003410000017N261218104700000000000103101190000000000000000000000000000000000000000100005793791752WANDERSON DAMASCENO CATARINO            RUA JOAO ROSA                           BARRO VERMEL24415150SAO GONCALO    RJUNIAO UMB DOS CULTOS AFRO BRAS    31011910 000119
10231987175000168817800093673    000035186                    000351860000000000000109                     I0135186     31011900000000040003410000017N261218104700000000000103101190000000000000000000000000000000000000000100001968753790ROSANGELA CRISTINA GOULART              RUA JOSE MANUEL DELGADO                 GRANJA FLORE25964240TERESOPOLIS    RJUNIAO UMB DOS CULTOS AFRO BRAS    31011910 000120
10231987175000168817800093673    000035185                    000351850000000000000109                     I0135185     31011900000000040003410000017N261218104700000000000103101190000000000000000000000000000000000000000100075254590700NOELY OUVERNEY PEIXOTO SERRA            RUA DOUTOR BORMAN                       CENTRO      24020320NITEROI        RJUNIAO UMB DOS CULTOS AFRO BRAS    31011910 000121
10231987175000168817800093673    000035184                    000351840000000000000109                     I0135184     31011900000000040003410000017N261218104700000000000103101190000000000000000000000000000000000000000100003346596710ROSILENI ROSA DA SILVA                  RUA: PARANAVAI                          BOA VISTA   24466170NITEROI        RJUNIAO UMB DOS CULTOS AFRO BRAS    31011910 000122
10231987175000168817800093673    000035183                    000351830000000000000109                     I0135183     31011900000000040003410000017N261218104700000000000103101190000000000000000000000000000000000000000100053606259769ROSILANE FRANCISCA DOS SANTOS           RUA ARTUR FARIAS                        RIO DO DOURO25922184MAGE           RJUNIAO UMB DOS CULTOS AFRO BRAS    31011910 000123
10231987175000168817800093673    000035182                    000351820000000000000109                     I0135182     31011900000000040003410000017N261218104700000000000103101190000000000000000000000000000000000000000100060774282720ROSANGELA MOURA VALENTE                 RUA CINQUENTA E QUATRO                  JARDIM ATLAN24934220MARICA         RJUNIAO UMB DOS CULTOS AFRO BRAS    31011910 000124
10231987175000168817800093673    000035181                    000351810000000000000109                     I0135181     31011900000000040003410000017N261218104700000000000103101190000000000000000000000000000000000000000100001084586797ANA GLORIA NONATO CASTILHO              RUA ANTONIO JOSE DE MORAES              PAVUNA      25515140RIO DE JANEIRO RJUNIAO UMB DOS CULTOS AFRO BRAS    31011910 000125
10231987175000168817800093673    000035180                    000351800000000000000109                     I0135180     31011900000000040003410000017N261218104700000000000103101190000000000000000000000000000000000000000100002644948738PAULO CESAR MARINS DA SILVA             RUA EDUARDO NORONHA                     ROCHA       24420615SAO GONCALO    RJUNIAO UMB DOS CULTOS AFRO BRAS    31011910 000126
10231987175000168817800093673    000035179                    000351790000000000000109                     I0135179     31011900000000040003410000017N261218104700000000000103101190000000000000000000000000000000000000000100000907912745JULIO CESAR FRANCA CORREA               RUA ITAPERUNA                           VILA DE CAVA26056260NOVA IGUACU    RJUNIAO UMB DOS CULTOS AFRO BRAS    31011910 000127
10231987175000168817800093673    000035178                    000351780000000000000109                     I0135178     31011900000000040003410000017N261218104700000000000103101190000000000000000000000000000000000000000100000355768712ANA CRISTINA VERISSIMO DA SILV          ESTRADA DO TINGUI                       CAMPO GRANDE23075006RIO DE JANEIRO RJUNIAO UMB DOS CULTOS AFRO BRAS    31011910 000128
10231987175000168817800093673    000035177                    000351770000000000000109                     I0135177     31011900000000040003410000017N261218104700000000000103101190000000000000000000000000000000000000000100067321364704MARGARETH SOARES PECHIR                 RUA PRACINHA CESARIO AGUIAR             PITANGUEIRAS21930230RIO DE JANEIRO RJUNIAO UMB DOS CULTOS AFRO BRAS    31011910 000129
10231987175000168817800093673    000035176                    000351760000000000000109                     I0135176     31011900000000040003410000017N261218104700000000000103101190000000000000000000000000000000000000000100008304619733LEILA DO NASCIMENTO COUTINHO            AVENIDA VICENTE DE CARVALHO             VILA KOSMOS 21210024RIO DE JANEIRO RJUNIAO UMB DOS CULTOS AFRO BRAS    31011910 000130
10231987175000168817800093673    000035175                    000351750000000000000109                     I0135175     31011900000000040003410000017N261218104700000000000103101190000000000000000000000000000000000000000100001346507783ANDREIA FERREIRA E CUNHA                AVENIDA TIRADENTES                      CONFIDENCIA 26323260NOVA IGUACU    RJUNIAO UMB DOS CULTOS AFRO BRAS    31011910 000131
10231987175000168817800093673    000035174                    000351740000000000000109                     I0135174     31011900000000040003410000017N261218104700000000000103101190000000000000000000000000000000000000000100007429798659LUCIANA DIAS DE ARRUDA                  RUA JULIA TREVIZANO                     SANTO ANTONI36500000UBA            MGUNIAO UMB DOS CULTOS AFRO BRAS    31011910 000132
10231987175000168817800093673    000035173                    000351730000000000000109                     I0135173     31011900000000040003410000017N261218104700000000000103101190000000000000000000000000000000000000000100078885647715NELMA ARLOY VIEIRA                      AVENIDA CASEMIRO DE MELLO               INHOAIBA    00000000RIO DE JANEIRO RJUNIAO UMB DOS CULTOS AFRO BRAS    31011910 000133
10231987175000168817800093673    000035172                    000351720000000000000109                     I0135172     31011900000000040003410000017N261218104700000000000103101190000000000000000000000000000000000000000100089497899734UGO SILVA FILHO                         RUA CADETE ULISSES VEIGA                SAO CRISTOVA20940240RIO DE JANEIRO RJUNIAO UMB DOS CULTOS AFRO BRAS    31011910 000134
10231987175000168817800093673    000035171                    000351710000000000000109                     I0135171     31011900000000040003410000017N261218104700000000000103101190000000000000000000000000000000000000000100054968330782REGINA DA MOTA TRINDADE                 RUA CORVILHA                            PARADA MORAB25265353DUQUE DE CAXIASRJUNIAO UMB DOS CULTOS AFRO BRAS    31011910 000135
10231987175000168817800093673    000035170                    000351700000000000000109                     I0135170     31011900000000040003410000017N261218104700000000000103101190000000000000000000000000000000000000000100012097291724CAROLINA BEZERRA DE CASTRO CAV          RUA VITAL                               QUINTINO BOC21380008RIO DE JANEIRO RJUNIAO UMB DOS CULTOS AFRO BRAS    31011910 000136
10231987175000168817800093673    000035169                    000351690000000000000109                     I0135169     31011900000000040003410000017N261218104700000000000103101190000000000000000000000000000000000000000100004150910715IVONICE DA CONCEICAO                    AVENIDA DOM HELDER CAMARA               PILARES     20751000RIO DE JANEIRO RJUNIAO UMB DOS CULTOS AFRO BRAS    31011910 000137
10231987175000168817800093673    000035168                    000351680000000000000109                     I0135168     31011900000000040003410000017N261218104700000000000103101190000000000000000000000000000000000000000100093130864768SOLANGE GERMANO DA COSTA                RUA KIRBE                               QUEIMADOS   21321310RIO DE JANEIRO RJUNIAO UMB DOS CULTOS AFRO BRAS    31011910 000138
10231987175000168817800093673    000035167                    000351670000000000000109                     I0135167     31011900000000040003410000017N261218104700000000000103101190000000000000000000000000000000000000000100030400942895CLAUDIA REIS SANTOS ARAUJO              RUA LUIS PASQUALLE NETO                 SAO JOAO CLI04241030SAO PAULO      SPUNIAO UMB DOS CULTOS AFRO BRAS    31011910 000139
10231987175000168817800093673    000035166                    000351660000000000000109                     I0135166     31011900000000040003410000017N261218104700000000000103101190000000000000000000000000000000000000000100011553393716MAURO PEREIRA                           RUA RECIFE                              CABUCU      26291374NOVA IGUACU    RJUNIAO UMB DOS CULTOS AFRO BRAS    31011910 000140
10231987175000168817800093673    000035165                    000351650000000000000109                     I0135165     31011900000000040003410000017N261218104700000000000103101190000000000000000000000000000000000000000100007049805769DAYSI LUCIA FREIRE DE AZEVEDO           RUA JOAO HONORATO                       SAPE        24320570NITEROI        RJUNIAO UMB DOS CULTOS AFRO BRAS    31011910 000141
10231987175000168817800093673    000035164                    000351640000000000000109                     I0135164     31011900000000040003410000017N261218104700000000000103101190000000000000000000000000000000000000000100037257831715WALTANIR LOURENCO DOS SANTOS            RUA APORUNA                             PARQUE SAO J26190130BELFORD ROXO   RJUNIAO UMB DOS CULTOS AFRO BRAS    31011910 000142
10231987175000168817800093673    000035163                    000351630000000000000109                     I0135163     31011900000000040003410000017N261218104700000000000103101190000000000000000000000000000000000000000100005474832796VANESSA MANTUANO FERNANDES              RUA DOM JOAO VI                         JARDIM NOSSA23097722RIO DE JANEIRO RJUNIAO UMB DOS CULTOS AFRO BRAS    31011910 000143
10231987175000168817800093673    000035162                    000351620000000000000109                     I0135162     31011900000000040003410000017N261218104700000000000103101190000000000000000000000000000000000000000100005785015706JOSE TOMASIO                            RUA: DA FIGUEIRA                        TRES POCOS  27240590VOLTA REDONDA  RJUNIAO UMB DOS CULTOS AFRO BRAS    31011910 000144
10231987175000168817800093673    000035161                    000351610000000000000109                     I0135161     31011900000000040003410000017N261218104700000000000103101190000000000000000000000000000000000000000100080869513753DINA LADISLAU DE SOUZA                  RUA ANGELA ABELANE                      BRISAMAR    23826420ITAGUAI        RJUNIAO UMB DOS CULTOS AFRO BRAS    31011910 000145
10231987175000168817800093673    000035160                    000351600000000000000109                     I0135160     31011900000000040003410000017N261218104700000000000103101190000000000000000000000000000000000000000100058183868720ZILDA SIMOES DO NASCIMENTO MAN          RUA IBITINGA                            PARQUE SAO B26167160BELFORD ROXO   RJUNIAO UMB DOS CULTOS AFRO BRAS    31011910 000146
10231987175000168817800093673    000035159                    000351590000000000000109                     I0135159     31011900000000040003410000017N261218104700000000000103101190000000000000000000000000000000000000000100003248678755CRISTIANO DA SILVA CORREIA              TRAVESSA DAS TORRES                     NAZARENO - P26115733BELFORD ROXO   RJUNIAO UMB DOS CULTOS AFRO BRAS    31011910 000147
10231987175000168817800093673    000035158                    000351580000000000000109                     I0135158     31011900000000040003410000017N261218104700000000000103101190000000000000000000000000000000000000000100084597763791VERA LUCIA PASSOS DA COSTA              ESTRADA PAU DA FOME                     TAQUARA     22723497RIO DE JANEIRO RJUNIAO UMB DOS CULTOS AFRO BRAS    31011910 000148
10231987175000168817800093673    000035157                    000351570000000000000109                     I0135157     31011900000000040003410000017N261218104700000000000103101190000000000000000000000000000000000000000100002596844737NANCI BARCELOS MACIEL                   RUA CAPITAO MACHADO                     PRACA SECA  21320030RIO DE JANEIRO RJUNIAO UMB DOS CULTOS AFRO BRAS    31011910 000149
10231987175000168817800093673    000035156                    000351560000000000000109                     I0135156     31011900000000040003410000017N261218104700000000000103101190000000000000000000000000000000000000000100015477441704RAFAEL LOPES DOS SANTOS                 RUA ARARUAMA                            VILAR DOS TE25555820SAO JOAO DE MERRJUNIAO UMB DOS CULTOS AFRO BRAS    31011910 000150
10231987175000168817800093673    000035155                    000351550000000000000109                     I0135155     31011900000000040003410000017N261218104700000000000103101190000000000000000000000000000000000000000100009948535723ANA CAROLINA VICENTE TELLES GO          RUA PACHECO JUNIOR                      BRAZ DE PINA21211170RIO DE JANEIRO RJUNIAO UMB DOS CULTOS AFRO BRAS    31011910 000151
10231987175000168817800093673    000035154                    000351540000000000000109                     I0135154     31011900000000040003410000017N261218104700000000000103101190000000000000000000000000000000000000000100089227140778ISIS FONSECA ALVES                      RUA GUACIRA                             BRAS DE PINA21011170RIO DE JANEIRO RJUNIAO UMB DOS CULTOS AFRO BRAS    31011910 000152
10231987175000168817800093673    000035153                    000351530000000000000109                     I0135153     31011900000000040003410000017N261218104700000000000103101190000000000000000000000000000000000000000100093743920700RITA DE CASSIA COSTA SENNA              RUA COMANDANTE ARY PARREIRAS            CENTRO      25515080SAO JOAO DE MERRJUNIAO UMB DOS CULTOS AFRO BRAS    31011910 000153
10231987175000168817800093673    000035152                    000351520000000000000109                     I0135152     31011900000000040003410000017N261218104700000000000103101190000000000000000000000000000000000000000100088262111753ALDA OLIVEIRA MILITAO GONCALVE          RUA GUATAMBU                            ROMA 1      00000000VOLTA REDONDA  RJUNIAO UMB DOS CULTOS AFRO BRAS    31011910 000154
10231987175000168817800093673    000035151                    000351510000000000000109                     I0135151     31011900000000040003410000017N261218104700000000000103101190000000000000000000000000000000000000000100085339695700DAYSE DE ALMEIDA SOARES                 RUA: COMANDANTE RUBENS SILVA            JACAREPAGUA 22750054RIO DE JANEIRO RJUNIAO UMB DOS CULTOS AFRO BRAS    31011910 000155
10231987175000168817800093673    000035150                    000351500000000000000109                     I0135150     31011900000000040003410000017N261218104700000000000103101190000000000000000000000000000000000000000100084407883715MAURO FERREIRA MATHEUS                  ESTRADA DO ENGENHO                      PRACA PIQUER21370200RIO DE JANEIRO RJUNIAO UMB DOS CULTOS AFRO BRAS    31011910 000156
10231987175000168817800093673    000035149                    000351490000000000000109                     I0135149     31011900000000040003410000017N261218104700000000000103101190000000000000000000000000000000000000000100000446671754JUSSARA MATHIAS TEIXEIRA                RUA VEREADOR OSVALDO MARCONDES          JOSE BONIFAC25515380SAO JOAO DE MERRJUNIAO UMB DOS CULTOS AFRO BRAS    31011910 000157
10231987175000168817800093673    000035148                    000351480000000000000109                     I0135148     31011900000000040003410000017N261218104700000000000103101190000000000000000000000000000000000000000100072386296700FERNANDO LOPES NARCISO                  RUA IPINAMBES                           TAQUARA     22730210RIO DE JANEIRO RJUNIAO UMB DOS CULTOS AFRO BRAS    31011910 000158
10231987175000168817800093673    000035147                    000351470000000000000109                     I0135147     31011900000000040003410000017N261218104700000000000103101190000000000000000000000000000000000000000100008091112769ALINE BEATRIZ GARCIA DA SILVA           RUA ENGENHEIRO HENRIQUE LUSSACK         CENTRO      26553500MESQUITA       RJUNIAO UMB DOS CULTOS AFRO BRAS    31011910 000159
10231987175000168817800093673    000035146                    000351460000000000000109                     I0135146     31011900000000040003410000017N261218104700000000000103101190000000000000000000000000000000000000000100013513344890LUCIANO MAURICIO ESTEVES OSTER          ESTRADA ANTONIO DOS REIS CARNEIRO       SAO JOSE    26193320BELFORD ROXO   RJUNIAO UMB DOS CULTOS AFRO BRAS    31011910 000160
10231987175000168817800093673    000035145                    000351450000000000000109                     I0135145     31011900000000040003410000017N261218104700000000000103101190000000000000000000000000000000000000000100037497030787LINDINALVA AGUIAR PAVANELLI             RUA CRUZ LIMA                           FLAMENGO    22230010RIO DE JANEIRO RJUNIAO UMB DOS CULTOS AFRO BRAS    31011910 000161
10231987175000168817800093673    000035144                    000351440000000000000109                     I0135144     31011900000000040003410000017N261218104700000000000103101190000000000000000000000000000000000000000100060709910797FATIMA REGINA CARVALHO                  RUA MACHADO                             JARDIM ATLAN24935540MARICA         RJUNIAO UMB DOS CULTOS AFRO BRAS    31011910 000162
10231987175000168817800093673    000035143                    000351430000000000000109                     I0135143     31011900000000040003410000017N261218104700000000000103101190000000000000000000000000000000000000000100009952239718EVANGELO RAIMUNDO                       RUA GENUINO SIQUEIRA                    JARDIM MERIT25555300SAO JOAO DE MERRJUNIAO UMB DOS CULTOS AFRO BRAS    31011910 000163
10231987175000168817800093673    000035142                    000351420000000000000109                     I0135142     31011900000000040003410000017N261218104700000000000103101190000000000000000000000000000000000000000100005626387745VANIA SANTIAGO                          ESTRADA DO XEREM                        XEREM       25245390DUQUE DE CAXIASRJUNIAO UMB DOS CULTOS AFRO BRAS    31011910 000164
10231987175000168817800093673    000035141                    000351410000000000000109                     I0135141     31011900000000040003410000017N261218104700000000000103101190000000000000000000000000000000000000000100083492909787MARCIA DA COSTA BRANDAO                 TRAVESSA MALAFAIA                       DEL CASTILHO21050620RIO DE JANEIRO RJUNIAO UMB DOS CULTOS AFRO BRAS    31011910 000165
10231987175000168817800093673    000035140                    000351400000000000000109                     I0135140     31011900000000040003410000017N261218104700000000000103101190000000000000000000000000000000000000000100003867378789ANGELA MIRANDA                          RUA MAZONHA                             CHAPERO     23812245ITAGUAI        RJUNIAO UMB DOS CULTOS AFRO BRAS    31011910 000166
10231987175000168817800093673    000035139                    000351390000000000000109                     I0135139     31011900000000040003410000017N261218104700000000000103101190000000000000000000000000000000000000000100001902241770JOSE RICARDO CORREA FERREIRA            RUA ALVARO LINS                         TRIBOBO     24750590SAO GONCALO    RJUNIAO UMB DOS CULTOS AFRO BRAS    31011910 000167
10231987175000168817800093673    000035138                    000351380000000000000109                     I0135138     31011900000000045003410000017N261218104700000000000103101190000000000000000000000000000000000000000100007469638741TATIANA ANICETO DE LEMOS SIMOE          RUA REVERENCIA                          CURICICA    22780580RIO DE JANEIRO RJUNIAO UMB DOS CULTOS AFRO BRAS    31011910 000168
10231987175000168817800093673    000035137                    000351370000000000000109                     I0135137     31011900000000040003410000017N261218104700000000000103101190000000000000000000000000000000000000000100015675954724ALDREN LUCAS GOMES FERREIRA             RUA CARIOCA                             PAU GRANDE  25900000MAGE           RJUNIAO UMB DOS CULTOS AFRO BRAS    31011910 000169
10231987175000168817800093673    000035136                    000351360000000000000109                     I0135136     31011900000000040003410000017N261218104700000000000103101190000000000000000000000000000000000000000100007631285705ANDERSON DE OLIVEIRA INACIO             RUA ENGENHEIRO FRANCISCO PASSOS         PENHA       21072120RIO DE JANEIRO RJUNIAO UMB DOS CULTOS AFRO BRAS    31011910 000170
10231987175000168817800093673    000035135                    000351350000000000000109                     I0135135     31011900000000040003410000017N261218104700000000000103101190000000000000000000000000000000000000000100003341576762FATIMA REGINA PAREDE                    RUA NANCI                               DE MAIO     26052650NOVA IGUACU    RJUNIAO UMB DOS CULTOS AFRO BRAS    31011910 000171
10231987175000168817800093673    000035134                    000351340000000000000109                     I0135134     31011900000000040003410000017N261218104700000000000103101190000000000000000000000000000000000000000100057231737749ELIZABETE CARVALHO COSTA                RUA EXPEDICIONARIO SIMAO FERNANDES      COLUMBANDE  24451700SAO GONCALO    RJUNIAO UMB DOS CULTOS AFRO BRAS    31011910 000172
10231987175000168817800093673    000035133                    000351330000000000000109                     I0135133     31011900000000040003410000017N261218104700000000000103101190000000000000000000000000000000000000000100077351436649RONALDO MARTINS DOS SANTOS              RUA DOMINGOS MARCOS DA SILVA            SENHOR DOS M36300356SAO JOAO DEL REMGUNIAO UMB DOS CULTOS AFRO BRAS    31011910 000173
10231987175000168817800093673    000035132                    000351320000000000000109                     I0135132     31011900000000040003410000017N261218104700000000000103101190000000000000000000000000000000000000000100015116578712RAFAEL DE LIMA FALCAO                   RUA BARRA DO CHOCA                      GUARATIBA   23028510RIO DE JANEIRO RJUNIAO UMB DOS CULTOS AFRO BRAS    31011910 000174
10231987175000168817800093673    000035131                    000351310000000000000109                     I0135131     31011900000000040003410000017N261218104700000000000103101190000000000000000000000000000000000000000100000000000000TATIANA DA SILVA SANTOS                 RUA IRACEMA                             VILA DE CAVA25065655NOVA IGUACU    RJUNIAO UMB DOS CULTOS AFRO BRAS    31011910 000175
10231987175000168817800093673    000035130                    000351300000000000000109                     I0135130     31011900000000040003410000017N261218104700000000000103101190000000000000000000000000000000000000000100015458844718ANDRE LUIZ TRINDADE FORTES JUN          RUA 15 DE NOVEMBRO                      ANIL        25931310MAGE           RJUNIAO UMB DOS CULTOS AFRO BRAS    31011910 000176
10231987175000168817800093673    000035129                    000351290000000000000109                     I0135129     31011900000000040003410000017N261218104700000000000103101190000000000000000000000000000000000000000100003139923716ANDRE MARQUES POLICARPO                 RUA PIRACANJUBA                         JARDIM CATAR24716051SAO GONCALO    RJUNIAO UMB DOS CULTOS AFRO BRAS    31011910 000177
10231987175000168817800093673    000035128                    000351280000000000000109                     I0135128     31011900000000040003410000017N261218104700000000000103101190000000000000000000000000000000000000000100002139519752CARLA MARIA DE BRITO DOS SANTO          RUA QUINZE                              PARQUE SANTA25271750DUQUE DE CAXIASRJUNIAO UMB DOS CULTOS AFRO BRAS    31011910 000178
10231987175000168817800093673    000035127                    000351270000000000000109                     I0135127     31011900000000040003410000017N261218104700000000000103101190000000000000000000000000000000000000000100000200790790LUIS JORGE MOCO                         RUA ECA DE QUEIROS                      PANTANAL    25040350DUQUE DE CAXIASRJUNIAO UMB DOS CULTOS AFRO BRAS    31011910 000179
10231987175000168817800093673    000035126                    000351260000000000000109                     I0135126     31011900000000040003410000017N261218104700000000000103101190000000000000000000000000000000000000000100005953253605MILTON COELHO DO NASCIMENTO JU          RUA BEZERRA DE MENEZES                  VAZ LOBO    21361000RIO DE JANEIRO RJUNIAO UMB DOS CULTOS AFRO BRAS    31011910 000180
10231987175000168817800093673    000035125                    000351250000000000000109                     I0135125     31011900000000040003410000017N261218104700000000000103101190000000000000000000000000000000000000000100080801048753SUZEEL RODRIGUES BISPO BENJAMI          RUA CURITIBA                            REALENGO    21730240RIO DE JANEIRO RJUNIAO UMB DOS CULTOS AFRO BRAS    31011910 000181
10231987175000168817800093673    000035124                    000351240000000000000109                     I0135124     31011900000000040003410000017N261218104700000000000103101190000000000000000000000000000000000000000100002730493727ALBERTO ALEXANDRE DOS SANTOS M          RUA ECA DE QUEIROZ                      PANTANAL    25040350DUQUE DE CAXIASRJUNIAO UMB DOS CULTOS AFRO BRAS    31011910 000182
10231987175000168817800093673    000035123                    000351230000000000000109                     I0135123     31011900000000040003410000017N261218104700000000000103101190000000000000000000000000000000000000000100006156525734SAFIRA COELHO DA CRUZ                   RUA ROMA                                VILA CENTRAL26373430RIO DE JANEIRO RJUNIAO UMB DOS CULTOS AFRO BRAS    31011910 000183
10231987175000168817800093673    000035122                    000351220000000000000109                     I0135122     31011900000000040003410000017N261218104700000000000103101190000000000000000000000000000000000000000100000000000000GUILHERME SANTOS LINHARES               RUA ROUGET LISLE                        PANTANAL    25040360RIO DE JANEIRO RJUNIAO UMB DOS CULTOS AFRO BRAS    31011910 000184
10231987175000168817800093673    000035120                    000351200000000000000109                     I0135120     31011900000000040003410000017N261218104700000000000103101190000000000000000000000000000000000000000100027313590725JOAO BATISTA FERREIRA                   RUA TEIXEIRA PINTO                      ENGENHEIRO B25520210SAO JOAO DE MERRJUNIAO UMB DOS CULTOS AFRO BRAS    31011910 000185
10231987175000168817800093673    000035119                    000351190000000000000109                     I0135119     31011900000000040003410000017N261218104700000000000103101190000000000000000000000000000000000000000100016212777713TAYNARA LUZIA SILVA SOUZA               RODOVIA LUCIO MEIRA                     MINUANO     27115190BARRA DO PIRAI RJUNIAO UMB DOS CULTOS AFRO BRAS    31011910 000186
10231987175000168817800093673    000035118                    000351180000000000000109                     I0135118     31011900000000040003410000017N261218104700000000000103101190000000000000000000000000000000000000000100000437025110WAGNER GOMES SILVA                      ESTRADA DA PEDRA - SERVIENTE DEZ        SANTA CRUZ  23520480RIO DE JANEIRO RJUNIAO UMB DOS CULTOS AFRO BRAS    31011910 000187
10231987175000168817800093673    000035117                    000351170000000000000109                     I0135117     31011900000000040003410000017N261218104700000000000103101190000000000000000000000000000000000000000100010368667774SUZANA PEREIRA MOIZINHO                 RUA CONCEICAO DA PEDRA                  ARNALDO EUGE23016330CAMPO GRANDE   RJUNIAO UMB DOS CULTOS AFRO BRAS    31011910 000188
10231987175000168817800093673    000035116                    000351160000000000000109                     I0135116     31011900000000040003410000017N261218104700000000000103101190000000000000000000000000000000000000000100061269743791JUREMA MARCIA COELHO CETERUELO          RUA TERESOPOLIS                         JARDIM METRO25570371SAO JOAO DE MERRJUNIAO UMB DOS CULTOS AFRO BRAS    31011910 000189
10231987175000168817800093673    000035115                    000351150000000000000109                     I0135115     31011900000000040003410000017N261218104700000000000103101190000000000000000000000000000000000000000100012661069798REGINA DA CONCEICAO VIANA               RUA POTI                                PARQUE FLUMI25042610DUQUE DE CAXIASRJUNIAO UMB DOS CULTOS AFRO BRAS    31011910 000190
10231987175000168817800093673    000035114                    000351140000000000000109                     I0135114     31011900000000040003410000017N261218104700000000000103101190000000000000000000000000000000000000000100000937144754EGLEA MARIA DE JESUS ROCHA DE           RUA MARIO GARCIA                        VILA SANTO A25040370DUQUE DE CAXIASRJUNIAO UMB DOS CULTOS AFRO BRAS    31011910 000191
10231987175000168817800093673    000035113                    000351130000000000000109                     I0135113     31011900000000040003410000017N261218104700000000000103101190000000000000000000000000000000000000000100049490087734DIRCE MARA DE OLIVEIRA PAULA            RUA OTILIO LIMA                         SANTA LUZIA 24721490SAO GONCALO    RJUNIAO UMB DOS CULTOS AFRO BRAS    31011910 000192
10231987175000168817800093673    000035112                    000351120000000000000109                     I0135112     31011900000000040003410000017N261218104700000000000103101190000000000000000000000000000000000000000100069865752700HUGO MAGALHAES PEREIRA FILHO            RUA BAGDA                               PANTANAL    25040400DUQUE DE CAXIASRJUNIAO UMB DOS CULTOS AFRO BRAS    31011910 000193
10231987175000168817800093673    000035111                    000351110000000000000109                     I0135111     31011900000000040003410000017N261218104700000000000103101190000000000000000000000000000000000000000100079227422749ROGERIO DOS SANTOS                      RUA LOURENCO CAMPOS                     SAO MATEUS  25525711SAO JOAO DE MERRJUNIAO UMB DOS CULTOS AFRO BRAS    31011910 000194
10231987175000168817800093673    000035110                    000351100000000000000109                     I0135110     31011900000000040003410000017N261218104700000000000103101190000000000000000000000000000000000000000100001582280738NATALICIA LOPES PEREIRA                 ALAMEDA JORGINHO                        FRAGOSO     29000000MAGE           RJUNIAO UMB DOS CULTOS AFRO BRAS    31011910 000195
10231987175000168817800093673    000035109                    000351090000000000000109                     I0135109     31011900000000040003410000017N261218104700000000000103101190000000000000000000000000000000000000000100002578661758ANA MARIA BATISTA DA SILVA              RUA SIMOES DE SOUZA                     JARDIM PRIMA25223520DUQUE DE CAXIASRJUNIAO UMB DOS CULTOS AFRO BRAS    31011910 000196
10231987175000168817800093673    000035108                    000351080000000000000109                     I0135108     31011900000000040003410000017N261218104700000000000103101190000000000000000000000000000000000000000100004701154750VIVIANE FELIX GOMES                     RUA GANDARELA                           BOM PASTOR  26195460BELFORD ROXO   RJUNIAO UMB DOS CULTOS AFRO BRAS    31011910 000197
10231987175000168817800093673    000035107                    000351070000000000000109                     I0135107     31011900000000040003410000017N261218104700000000000103101190000000000000000000000000000000000000000100063579588753EDSON DOS SANTOS ROSA                   RUA VENANCIO ADRES                      GRAMACHO    25036170DUQUE DE CAXIASRJUNIAO UMB DOS CULTOS AFRO BRAS    31011910 000198
10231987175000168817800093673    000035106                    000351060000000000000109                     I0135106     31011900000000040003410000017N261218104700000000000103101190000000000000000000000000000000000000000100004163698981LEANDRO VIEIRA DOS SANTOS               RUA NICANOR CAETANO DOS SANTOS          TEIXEIRA    23822230RIO DE JANEIRO RJUNIAO UMB DOS CULTOS AFRO BRAS    31011910 000199
10231987175000168817800093673    000035105                    000351050000000000000109                     I0135105     31011900000000040003410000017N261218104700000000000103101190000000000000000000000000000000000000000100010503933767THIAGO MARQUES DE CARVALHO              TRAVESSA DA SERVIDAO                    CAMPO GRANDE23017405RIO DE JANEIRO RJUNIAO UMB DOS CULTOS AFRO BRAS    31011910 000200
10231987175000168817800093673    000035104                    000351040000000000000109                     I0135104     31011900000000040003410000017N261218104700000000000103101190000000000000000000000000000000000000000100011341119750ELAINE BARBOSA DOS SANTOS               ESTRADA DO BARRO VERMELHO               ROCHA MIRAND21540500RIO DE JANEIRO RJUNIAO UMB DOS CULTOS AFRO BRAS    31011910 000201
10231987175000168817800093673    000035103                    000351030000000000000109                     I0135103     31011900000000040003410000017N261218104700000000000103101190000000000000000000000000000000000000000100010619254718MARIA TEREZA ANDRADE DOS SANTO          RUA DOUTOR MANUEL LUIZ                  VALVERDE    26291003NOVA IGUACU    RJUNIAO UMB DOS CULTOS AFRO BRAS    31011910 000202
10231987175000168817800093673    000035102                    000351020000000000000109                     I0135102     31011900000000040003410000017N261218104700000000000103101190000000000000000000000000000000000000000100068786220772HELOISA HELENA DE SOUZA DUARTE          RUA MOTORISTA LUIS ABREU                ANCHIETA    21645420RIO DE JANEIRO RJUNIAO UMB DOS CULTOS AFRO BRAS    31011910 000203
10231987175000168817800093673    000035101                    000351010000000000000109                     I0135101     31011900000000040003410000017N261218104700000000000103101190000000000000000000000000000000000000000100011964838762CARLOS RENNAN CORREIA BORGES            RUA AMERICA DOURADA                     CAMPO GRANDE23088240RIO DE JANEIRO RJUNIAO UMB DOS CULTOS AFRO BRAS    31011910 000204
10231987175000168817800093673    000035100                    000351000000000000000109                     I0135100     31011900000000040003410000017N261218104700000000000103101190000000000000000000000000000000000000000100093461755753MARCIA SILVA DE ABREU                   TRAVESSA SABINO                         SANTISSIMO  23088033RIO DE JANEIRO RJUNIAO UMB DOS CULTOS AFRO BRAS    31011910 000205
10231987175000168817800093673    000035099                    000350990000000000000109                     I0135099     31011900000000040003410000017N261218104700000000000103101190000000000000000000000000000000000000000100040883612704JOAO ROBERTO RAJO SIMOES                RUA QUITO                               PENHA       21020330RIO DE JANEIRO RJUNIAO UMB DOS CULTOS AFRO BRAS    31011910 000206
10231987175000168817800093673    000035098                    000350980000000000000109                     I0135098     31011900000000040003410000017N261218104700000000000103101190000000000000000000000000000000000000000100009556812784AROLDO ADRIANO DE OLIVEIRA              RUA IBITU                               REALENGO    21765510RIO DE JANEIRO RJUNIAO UMB DOS CULTOS AFRO BRAS    31011910 000207
10231987175000168817800093673    000035097                    000350970000000000000109                     I0135097     31011900000000040003410000017N261218104700000000000103101190000000000000000000000000000000000000000100081531095704ROSANA ALMEIDA SILVA                    RUA JOAQUIM MARIANO DE MOURA            PONTO CHIC  26032840NOVA IGUACU    RJUNIAO UMB DOS CULTOS AFRO BRAS    31011910 000208
10231987175000168817800093673    000035096                    000350960000000000000109                     I0135096     31011900000000040003410000017N261218104700000000000103101190000000000000000000000000000000000000000100040262146720ARABELA SILVA CAMPOS DOS REIS           RUA PEQUIM                              PARADA MORAB25265270RIO DE JANEIRO RJUNIAO UMB DOS CULTOS AFRO BRAS    31011910 000209
10231987175000168817800093673    000035095                    000350950000000000000109                     I0135095     31011900000000040003410000017N261218104700000000000103101190000000000000000000000000000000000000000100006003348720JONATHAN DE OLIVEIRA RIBEIRO            RUA HELVECIO PIMENTA                    RETIRO      27281347VOLTA REDONDA  RJUNIAO UMB DOS CULTOS AFRO BRAS    31011910 000210
10231987175000168817800093673    000035093                    000350930000000000000109                     I0135093     31011900000000040003410000017N261218104700000000000103101190000000000000000000000000000000000000000100010880272308FERNANDA DOS SANTOS PEREIRA             RUA LINS DE VASCONCELOS                 LINS DE VASC20710130RIO DE JANEIRO RJUNIAO UMB DOS CULTOS AFRO BRAS    31011910 000211
10231987175000168817800093673    000035092                    000350920000000000000109                     I0135092     31011900000000040003410000017N261218104700000000000103101190000000000000000000000000000000000000000100050002317753IVO DE AZEVEDO COELHO                   RUA REVERINO ABIDIAS NOBRE              COIMBRA     21105170BARRA DO PIRAI RJUNIAO UMB DOS CULTOS AFRO BRAS    31011910 000212
10231987175000168817800093673    000035091                    000350910000000000000109                     I0135091     31011900000000040003410000017N261218104700000000000103101190000000000000000000000000000000000000000100000261600729ELIANE ZELIA DE OLIVEIRA                RUA VENANCIO AIRES                      GRAMACHO    25035340DUQUE DE CAXIASRJUNIAO UMB DOS CULTOS AFRO BRAS    31011910 000213
10231987175000168817800093673    000035090                    000350900000000000000109                     I0135090     31011900000000040003410000017N261218104700000000000103101190000000000000000000000000000000000000000100000856003778ANA ELIZABETE ANTUNES SANTOS            RUA GETULIO VARGAS                      SEPETIBA    23540130RIO DE JANEIRO RJUNIAO UMB DOS CULTOS AFRO BRAS    31011910 000214
10231987175000168817800093673    000035089                    000350890000000000000109                     I0135089     31011900000000040003410000017N261218104700000000000103101190000000000000000000000000000000000000000100002202729720ANA CLAUDIA NEVES BARRETO               RUA ACARA                               VAZ LOBO    21361310RIO DE JANEIRO RJUNIAO UMB DOS CULTOS AFRO BRAS    31011910 000215
10231987175000168817800093673    000035088                    000350880000000000000109                     I0135088     31011900000000040003410000017N261218104700000000000103101190000000000000000000000000000000000000000100078790344715ROSANE ESTEVES DOS SANTOS               RUA 49                                  JARDIM DA PA25010730DUQUE DE CAXIASRJUNIAO UMB DOS CULTOS AFRO BRAS    31011910 000216
10231987175000168817800093673    000035087                    000350870000000000000109                     I0135087     31011900000000040003410000017N261218104700000000000103101190000000000000000000000000000000000000000100089823753768MARIA JOSE DA ROCHA NOBREGA             RUA: DOS LIRIOS                         SHANGRILA   26150071BELFORD ROXO   RJUNIAO UMB DOS CULTOS AFRO BRAS    31011910 000217
10231987175000168817800093673    000035086                    000350860000000000000109                     I0135086     31011900000000040003410000017N261218104700000000000103101190000000000000000000000000000000000000000100082977852700ISAURA FERNANDES FERREIRA               RUA DENVER                              PIAM        26115590BELFORD ROXO   RJUNIAO UMB DOS CULTOS AFRO BRAS    31011910 000218
10231987175000168817800093673    000035085                    000350850000000000000109                     I0135085     31011900000000040003410000017N261218104700000000000103101190000000000000000000000000000000000000000100001366350758EDWILSON GOMES DA ROCHA                 RUA PROJETADA C                         SEPETIBA    23530800RIO DE JANEIRO RJUNIAO UMB DOS CULTOS AFRO BRAS    31011910 000219
10231987175000168817800093673    000035084                    000350840000000000000109                     I0135084     31011900000000040003410000017N261218104700000000000103101190000000000000000000000000000000000000000100007953958767PATRICIA DE OLIVEIRA ROIF               RUA MATURACA                            PENHA CIRCUL21210360RIO DE JANEIRO RJUNIAO UMB DOS CULTOS AFRO BRAS    31011910 000220
10231987175000168817800093673    000035083                    000350830000000000000109                     I0135083     31011900000000040003410000017N261218104700000000000103101190000000000000000000000000000000000000000100008388149725WAGNER FERRELE DA SILVA                 RUA BENFICA                             GRAMACHO    25060290DUQUE DE CAXIASRJUNIAO UMB DOS CULTOS AFRO BRAS    31011910 000221
10231987175000168817800093673    000035082                    000350820000000000000109                     I0135082     31011900000000040003410000017N261218104700000000000103101190000000000000000000000000000000000000000100010910780765TIAGO DE ANDRADE ALMEIDA                RUA PAULO DE FRONTIM                    GOVERNADOR P26910000MIGUEL PEREIRA RJUNIAO UMB DOS CULTOS AFRO BRAS    31011910 000222
10231987175000168817800093673    000035081                    000350810000000000000109                     I0135081     31011900000000040003410000017N261218104700000000000103101190000000000000000000000000000000000000000100055010423715NIGMAR FIRMINA CUNHA BERNARDO           RUA LUIS FELIPE                         JARDIM GUAND26298174NOVA IGUACU    RJUNIAO UMB DOS CULTOS AFRO BRAS    31011910 000223
10231987175000168817800093673    000035080                    000350800000000000000109                     I0135080     31011900000000040003410000017N261218104700000000000103101190000000000000000000000000000000000000000100006328018754ANDERSON LUIS DA SILVA CORDEIR          RUA PASSO FUNDO                         JARDIM GUAND26298174NOVA IGUACU    RJUNIAO UMB DOS CULTOS AFRO BRAS    31011910 000224
10231987175000168817800093673    000035079                    000350790000000000000109                     I0135079     31011900000000040003410000017N261218104700000000000103101190000000000000000000000000000000000000000100000028136705SHEILA DOS REIS VIEIRA                  RUA DINIZ BARRETO                       MADUREIRA   21341250RIO DE JANEIRO RJUNIAO UMB DOS CULTOS AFRO BRAS    31011910 000225
10231987175000168817800093673    000035078                    000350780000000000000109                     I0135078     31011900000000040003410000017N261218104700000000000103101190000000000000000000000000000000000000000100024721975864LIDIANE FERNANDA BON SCHIAVI S          RUA ALBERTO SANTOS DRUMONT              BELVEDERE DA27143070BARRA DO PIRAI RJUNIAO UMB DOS CULTOS AFRO BRAS    31011910 000226
10231987175000168817800093673    000035077                    000350770000000000000109                     I0135077     31011900000000040003410000017N261218104700000000000103101190000000000000000000000000000000000000000100001383163766RENATA DOMINGUES COSTA LIMA JA          RUA CALIFA                              LAGOINHA    26298012NOVA IGUACU    RJUNIAO UMB DOS CULTOS AFRO BRAS    31011910 000227
10231987175000168817800093673    000035076                    000350760000000000000109                     I0135076     31011900000000040003410000017N261218104700000000000103101190000000000000000000000000000000000000000100089770250791JUREMA DA MACENA RAYMUNDO               RUA JORGE DA SILVA                      JARDINS     23890100RIO DE JANEIRO RJUNIAO UMB DOS CULTOS AFRO BRAS    31011910 000228
10231987175000168817800093673    000035075                    000350750000000000000109                     I0135075     31011900000000040003410000017N261218104700000000000103101190000000000000000000000000000000000000000100014326136774CAIO CESAR LIMA DA CRUZ                 RUA QUINTINO BOCAIUVA                   NOVA CIDADE 26535130NILOPOLIS      RJUNIAO UMB DOS CULTOS AFRO BRAS    31011910 000229
10231987175000168817800093673    000035074                    000350740000000000000109                     I0135074     31011900000000040003410000017N261218104700000000000103101190000000000000000000000000000000000000000100005878475731CLEITOM RODRIGUES DE OLIVEIRA           RUA ARAQUEM                             BANGU       21860005RIO DE JANEIRO RJUNIAO UMB DOS CULTOS AFRO BRAS    31011910 000230
10231987175000168817800093673    000035073                    000350730000000000000109                     I0135073     31011900000000040003410000017N261218104700000000000103101190000000000000000000000000000000000000000100000556390709ANNA MENDONCA BORGES                    RUA MARIA DO PATROCINIO                 SERRA VELHA 25933770MAGE           RJUNIAO UMB DOS CULTOS AFRO BRAS    31011910 000231
10231987175000168817800093673    000035072                    000350720000000000000109                     I0135072     31011900000000040003410000017N261218104700000000000103101190000000000000000000000000000000000000000100003350774717ROGERIO SILVA DE SOUZA                  RUA TACARATU                            ROCHA MIRAND21555010RIO DE JANEIRO RJUNIAO UMB DOS CULTOS AFRO BRAS    31011910 000232
10231987175000168817800093673    000035071                    000350710000000000000109                     I0135071     31011900000000040003410000017N261218104700000000000103101190000000000000000000000000000000000000000100007812146707GRASIELI RIBEIRO DE ALMEIDA             RUA PADRE ARMANDO NOGUEIRA              AGUA SANTA  20745120RIO DE JANEIRO RJUNIAO UMB DOS CULTOS AFRO BRAS    31011910 000233
10231987175000168817800093673    000035069                    000350690000000000000109                     I0135069     31011900000000040003410000017N261218104700000000000103101190000000000000000000000000000000000000000100059744510749ANGELA REGINA ROSA DE SA                RUA SUEZ                                BOM JESUS   26298180NOVA IGUACU    RJUNIAO UMB DOS CULTOS AFRO BRAS    31011910 000234
10231987175000168817800093673    000035068                    000350680000000000000109                     I0135068     31011900000000040003410000017N261218104700000000000103101190000000000000000000000000000000000000000100003558966724ANDREA CORDEIRO DA CONCEICAO S          RUA PARATI                              BOM JESUS   26298183NOVA IGUACU    RJUNIAO UMB DOS CULTOS AFRO BRAS    31011910 000235
10231987175000168817800093673    000035067                    000350670000000000000109                     I0135067     31011900000000040003410000017N261218104700000000000103101190000000000000000000000000000000000000000100096051523715MARIA DE LOURDES PEREIRA                RUA MAX MANOEL MOLTER                   QUARTEIRAO B25680211PETROPOLIS     RJUNIAO UMB DOS CULTOS AFRO BRAS    31011910 000236
10231987175000168817800093673    000035066                    000350660000000000000109                     I0135066     31011900000000040003410000017N261218104700000000000103101190000000000000000000000000000000000000000100009168799764JANAINA BEMVINDO DOS SANTOS             RUA IPOJUCA                             JARDIM PERNA26275460RIO DE JANEIRO RJUNIAO UMB DOS CULTOS AFRO BRAS    31011910 000237
10231987175000168817800093673    000035065                    000350650000000000000109                     I0135065     31011900000000040003410000017N261218104700000000000103101190000000000000000000000000000000000000000100042897297700JOSE CARLOS LOUREIRO CORTEZ             RUA JOAO LUSO                           REALENGO    21765620RIO DE JANEIRO RJUNIAO UMB DOS CULTOS AFRO BRAS    31011910 000238
10231987175000168817800093673    000035064                    000350640000000000000109                     I0135064     31011900000000040003410000017N261218104700000000000103101190000000000000000000000000000000000000000100008604956719MIRIAN DE MATTOS ALVES                  AVENIDA MOACIR SARAIVA DE CARVALHO      JARDIM METRO25571190SAO JOAO DE MERRJUNIAO UMB DOS CULTOS AFRO BRAS    31011910 000239
10231987175000168817800093673    000035063                    000350630000000000000109                     I0135063     31011900000000040003410000017N261218104700000000000103101190000000000000000000000000000000000000000100002298578518ELVIRA RODRIGUES DE MELLO               RUA ARAGUARI                            VILI SAO SEB26160250BELFORD ROXO   RJUNIAO UMB DOS CULTOS AFRO BRAS    31011910 000240
10231987175000168817800093673    000035062                    000350620000000000000109                     I0135062     31011900000000040003410000017N261218104700000000000103101190000000000000000000000000000000000000000100002415896730ROSIELMA SANTOS SOUZA                   RUA MONDEGO                             RICARDO DE A21665130RIO DE JANEIRO RJUNIAO UMB DOS CULTOS AFRO BRAS    31011910 000241
10231987175000168817800093673    000035061                    000350610000000000000109                     I0135061     31011900000000040003410000017N261218104700000000000103101190000000000000000000000000000000000000000100059680903753TANIA REGINA DOS SANTOS MARQUE          RUA VISCONDE DE MACEIO                  IRAJA       21235100RIO DE JANEIRO RJUNIAO UMB DOS CULTOS AFRO BRAS    31011910 000242
10231987175000168817800093673    000035060                    000350600000000000000109                     I0135060     31011900000000040003410000017N261218104700000000000103101190000000000000000000000000000000000000000100000249913925ANDREA ARAUJO DA FONSECA CAVAL          RUA BALTAZAR LISBOA                     TIJUCA      20540130RIO DE JANEIRO RJUNIAO UMB DOS CULTOS AFRO BRAS    31011910 000243
10231987175000168817800093673    000035059                    000350590000000000000109                     I0135059     31011900000000040003410000017N261218104700000000000103101190000000000000000000000000000000000000000100015137144738RAFAEL NUNES ALVES SALSA                RUA PUIPE                               BENTO RIBEIR21550420RIO DE JANEIRO RJUNIAO UMB DOS CULTOS AFRO BRAS    31011910 000244
10231987175000168817800093673    000035058                    000350580000000000000109                     I0135058     31011900000000040003410000017N261218104700000000000103101190000000000000000000000000000000000000000100003003608789ADRIANA LUCIANA DA SILVA                AVENIDA VICENTE DE CARVALHO             VICENTE DE C21210024RIO DE JANEIRO RJUNIAO UMB DOS CULTOS AFRO BRAS    31011910 000245
10231987175000168817800093673    000035057                    000350570000000000000109                     I0135057     31011900000000040003410000017N261218104700000000000103101190000000000000000000000000000000000000000100009258472756FILIPI JUNGER BRANCO BRASIL             RUA 37 A                                JARDIM ATLAN24935445RIO DE JANEIRO RJUNIAO UMB DOS CULTOS AFRO BRAS    31011910 000246
10231987175000168817800093673    000035056                    000350560000000000000109                     I0135056     31011900000000040003410000017N261218104700000000000103101190000000000000000000000000000000000000000100008997230719RAIMUNDA DE SOUZA MEDEIROS              RUA DANIEL MARINHO                      RIO DAS PEDR22753039RIO DE JANEIRO RJUNIAO UMB DOS CULTOS AFRO BRAS    31011910 000247
10231987175000168817800093673    000035055                    000350550000000000000109                     I0135055     31011900000000040003410000017N261218104700000000000103101190000000000000000000000000000000000000000100095674454787GILVANIA RODRIGUES DE SANTANA           RUA TRAVASSOS                           PARQUE SAO B26183730BELFORD ROXO   RJUNIAO UMB DOS CULTOS AFRO BRAS    31011910 000248
10231987175000168817800093673    000035054                    000350540000000000000109                     I0135054     31011900000000040003410000017N261218104700000000000103101190000000000000000000000000000000000000000100079096611772MARIO LUIZ BARRETO DE BARROS            RUA GRAVATA                             MARECHAL HER21610510RIO DE JANEIRO RJUNIAO UMB DOS CULTOS AFRO BRAS    31011910 000249
