01REMESSA01COBRANCA       817800093673        União Umb dos Cultos Afro Bra341BANCO ITAU SA  221118                                                                                                                                                                                                                                                                                                      000001
10231987175000168817800093673    000033465                    000334650000000000000109                     I0133465     30111800000000035003410000017N221118104700000000000103011180000000000000000000000000000000000000000100008350095725LUIZ LUCIANO ADAO                       RUA ALAGOAS                             SANTA CRUZ D25255070DUQUE DE CAXIASRJUNIAO UMB DOS CULTOS AFRO BRAS    30111810 000002
10231987175000168817800093673    000033464                    000334640000000000000109                     I0133464     20121800000000350003410000017N221118104700000000000102012180000000000000000000000000000000000000000100003371449742LUCIA HELENA CHAVES MOREIRA             RUA LUISA BARATA                        REALENGO    21770230RIO DE JANEIRO RJUNIAO UMB DOS CULTOS AFRO BRAS    20121810 000003
10231987175000168817800093673    000033463                    000334630000000000000109                     I0133463     20121800000000040003410000017N221118104700000000000102012180000000000000000000000000000000000000000100003371449742LUCIA HELENA CHAVES MOREIRA             RUA LUISA BARATA                        REALENGO    21770230RIO DE JANEIRO RJUNIAO UMB DOS CULTOS AFRO BRAS    20121810 000004
10231987175000168817800093673    000033462                    000334620000000000000109                     I0133462     20121800000000350003410000017N221118104700000000000102012180000000000000000000000000000000000000000100010953053792DANIELE FERNANDES DE CARVALHO           RUA BARROSO                             JARDIM CABUC26291428NOVA IGUACU    RJUNIAO UMB DOS CULTOS AFRO BRAS    20121810 000005
10231987175000168817800093673    000033461                    000334610000000000000109                     I0133461     20121800000000040003410000017N221118104700000000000102012180000000000000000000000000000000000000000100010953053792DANIELE FERNANDES DE CARVALHO           RUA BARROSO                             JARDIM CABUC26291428NOVA IGUACU    RJUNIAO UMB DOS CULTOS AFRO BRAS    20121810 000006
10231987175000168817800093673    000033460                    000334600000000000000109                     I0133460     20121800000000350003410000017N221118104700000000000102012180000000000000000000000000000000000000000100009053488774ANTONIO FERREIRA DE SOUZA               RUA ARTUR MOURA                         JARDIM NOVA 26272140NOVA IGUACU    RJUNIAO UMB DOS CULTOS AFRO BRAS    20121810 000007
10231987175000168817800093673    000033459                    000334590000000000000109                     I0133459     20121800000000040003410000017N221118104700000000000102012180000000000000000000000000000000000000000100009053488774ANTONIO FERREIRA DE SOUZA               RUA ARTUR MOURA                         JARDIM NOVA 26272140NOVA IGUACU    RJUNIAO UMB DOS CULTOS AFRO BRAS    20121810 000008
10231987175000168817800093673    000033458                    000334580000000000000109                     I0133458     20121800000000350003410000017N221118104700000000000102012180000000000000000000000000000000000000000100009001361706SOLANGE DE SOUZA                        RUA VASSOURAS                           CABUCU      26291440NOVA IGUACU    RJUNIAO UMB DOS CULTOS AFRO BRAS    20121810 000009
10231987175000168817800093673    000033457                    000334570000000000000109                     I0133457     20121800000000040003410000017N221118104700000000000102012180000000000000000000000000000000000000000100009001361706SOLANGE DE SOUZA                        RUA VASSOURAS                           CABUCU      26291440NOVA IGUACU    RJUNIAO UMB DOS CULTOS AFRO BRAS    20121810 000010
10231987175000168817800093673    000033456                    000334560000000000000109                     I0133456     20121800000000500003410000017N221118104700000000000102012180000000000000000000000000000000000000000100028257955850ANDRE RODRIGUES DE OLIVEIRA             RUA CANDIDA ROSA                        JARDIM KERAL03828140SAO PAULO      SPUNIAO UMB DOS CULTOS AFRO BRAS    20121810 000011
10231987175000168817800093673    000033455                    000334550000000000000109                     I0133455     20121800000000350003410000017N221118104700000000000102012180000000000000000000000000000000000000000100063520788772JOSE DOMINGOS VICTORINO DE SOU          RUA ITAGUAI                             ILHA DO GOVE21921420RIO DE JANEIRO RJUNIAO UMB DOS CULTOS AFRO BRAS    20121810 000012
10231987175000168817800093673    000033454                    000334540000000000000109                     I0133454     10121800000000175003410000017N221118104700000000000101012180000000000000000000000000000000000000000100038923335720MARILENE LOPES                          RUA LIBERATO                            VILA EMIL   26235180MESQUITA       RJUNIAO UMB DOS CULTOS AFRO BRAS    10121810 000013
10231987175000168817800093673    000033453                    000334530000000000000109                     I0133453     10011900000000350003410000017N221118104700000000000101001190000000000000000000000000000000000000000100051357909772GLICIA CALDAS GONCALVES DA SIL          RUA: HONORIO DE ALMEIDA                 IRAJA       21235490RIO DE JANEIRO RJUNIAO UMB DOS CULTOS AFRO BRAS    10011910 000014
10231987175000168817800093673    000033452                    000334520000000000000109                     I0233452     30121800000000040003410000017N221118104700000000000103012180000000000000000000000000000000000000000100051357909772GLICIA CALDAS GONCALVES DA SIL          RUA: HONORIO DE ALMEIDA                 IRAJA       21235490RIO DE JANEIRO RJUNIAO UMB DOS CULTOS AFRO BRAS    30121810 000015
10231987175000168817800093673    000033451                    000334510000000000000109                     I0233451     10011900000000350003410000017N221118104700000000000101001190000000000000000000000000000000000000000100051357909772GLICIA CALDAS GONCALVES DA SIL          RUA: HONORIO DE ALMEIDA                 IRAJA       21235490RIO DE JANEIRO RJUNIAO UMB DOS CULTOS AFRO BRAS    10011910 000016
10231987175000168817800093673    000033294                    000332940000000000000109                     I0233294     20121800000000380003410000017N291018104700000000000102012180000000000000000000000000000000000000000100001467028754ROSANE DE FREITAS SOUZA DA SIL          RUA: JACIRENDI                          COLEGIO     20545290RIO DE JANEIRO RJUNIAO UMB DOS CULTOS AFRO BRAS    20121810 000017
10231987175000168817800093673    000032894                    000328940000000000000109                     I0232894     20121800000000350003410000017N291018104700000000000102012180000000000000000000000000000000000000000100069426864768ANA MARIA DO SACRAMENTO                 RUA ZILA MENDONCA                       BARRACAO    24735055SAO GONCALO    RJUNIAO UMB DOS CULTOS AFRO BRAS    20121810 000018
10231987175000168817800093673    000031232                    000312320000000000000109                     I3431232     20121800000000400003410000017N291018104700000000000102012180000000000000000000000000000000000000000100055715907772ISVALDETE LIMA                          RUA: JABOATAO                           VILA ROSARIO25041020DUQUE DE CAXIASRJUNIAO UMB DOS CULTOS AFRO BRAS    20121810 000019
10231987175000168817800093673    000030897                    000308970000000000000109                     I0230897     20121800000000350003410000017N291018104700000000000102012180000000000000000000000000000000000000000100000677225717IRINEU CASSIANO DE ABREU                RUA SAMBAITIBA QUADRA 56 LOTE 37        VILA ROSARIO25041170DUQUE DE CAXIASRJUNIAO UMB DOS CULTOS AFRO BRAS    20121810 000020
10231987175000168817800093673    000030699                    000306990000000000000109                     I0230699     20121800000000350003410000017N291018104700000000000102012180000000000000000000000000000000000000000100064631001704ANETE MARIA ALMEIDA                     RUA OLEGARIO MARIANO                    VILA SAO LUI25065188DUQUE DE CAXIASRJUNIAO UMB DOS CULTOS AFRO BRAS    20121810 000021
10231987175000168817800093673    000030692                    000306920000000000000109                     I0230692     20121800000000350003410000017N291018104700000000000102012180000000000000000000000000000000000000000100000000000667MARIA NATALIA EVANGELISTA               RUA SANTO ANTONIO                       VILA SAO LUI25086050DUQUE DE CAXIASRJUNIAO UMB DOS CULTOS AFRO BRAS    20121810 000022
10231987175000168817800093673    000030689                    000306890000000000000109                     I0230689     20121800000000350003410000017N291018104700000000000102012180000000000000000000000000000000000000000100078903297768IRACEMA DA CONCEICAO MENDES SI          ESTRADA RIO SANTOS                      MURIQUI     23812101RIO DE JANEIRO RJUNIAO UMB DOS CULTOS AFRO BRAS    20121810 000023
10231987175000168817800093673    000030397                    000303970000000000000109                     I0230397     20121800000000040003410000017N291018104700000000000102012180000000000000000000000000000000000000000100001467028754ROSANE DE FREITAS SOUZA DA SIL          RUA: JACIRENDI                          COLEGIO     20545290RIO DE JANEIRO RJUNIAO UMB DOS CULTOS AFRO BRAS    20121810 000024
10231987175000168817800093673    000030390                    000303900000000000000109                     I0230390     20121800000000040003410000017N291018104700000000000102012180000000000000000000000000000000000000000100048639389772ONESIO JOSINO DOS SANTOS                RUA: VINTE E DOIS                       BRISA MAR   23825587ITAGUAI        RJUNIAO UMB DOS CULTOS AFRO BRAS    20121810 000025
10231987175000168817800093673    000030235                    000302350000000000000109                     I3430235     20121800000000035003410000017N291018104700000000000102012180000000000000000000000000000000000000000100011497058767DIEGO FERREIRA DA SILVA                 RUA PRIMEIRO DE MAIO                    IPIRANGA    26293480RIO DE JANEIRO RJUNIAO UMB DOS CULTOS AFRO BRAS    20121810 000026
10231987175000168817800093673    000030120                    000301200000000000000109                     I0230120     20121800000000035003410000017N291018104700000000000102012180000000000000000000000000000000000000000100069426864768ANA MARIA DO SACRAMENTO                 RUA ZILA MENDONCA                       BARRACAO    24735055SAO GONCALO    RJUNIAO UMB DOS CULTOS AFRO BRAS    20121810 000027
10231987175000168817800093673    000028574                    000285740000000000000109                     I0228574     30111800000000035003410000017N230818104700000000000103011180000000000000000000000000000000000000000100069426864768ANA MARIA DO SACRAMENTO                 RUA ZILA MENDONCA                       BARRACAO    24735055SAO GONCALO    RJUNIAO UMB DOS CULTOS AFRO BRAS    30111810 000028
10231987175000168817800093673    000028573                    000285730000000000000109                     I0228573     30101800000000035003410000017N230818104700000000000103010180000000000000000000000000000000000000000100069426864768ANA MARIA DO SACRAMENTO                 RUA ZILA MENDONCA                       BARRACAO    24735055SAO GONCALO    RJUNIAO UMB DOS CULTOS AFRO BRAS    30101810 000029
10231987175000168817800093673    000028572                    000285720000000000000109                     I0228572     30091800000000035003410000017N230818104700000000000103009180000000000000000000000000000000000000000100069426864768ANA MARIA DO SACRAMENTO                 RUA ZILA MENDONCA                       BARRACAO    24735055SAO GONCALO    RJUNIAO UMB DOS CULTOS AFRO BRAS    30091810 000030
10231987175000168817800093673    000028354                    000283540000000000000109                     I3428354     30111800000000035003410000017N200818104700000000000103011180000000000000000000000000000000000000000100011497058767DIEGO FERREIRA DA SILVA                 RUA PRIMEIRO DE MAIO                    IPIRANGA    26293480RIO DE JANEIRO RJUNIAO UMB DOS CULTOS AFRO BRAS    30111810 000031
10231987175000168817800093673    000025865                    000258650000000000000109                     I0225865     30091800000000035003410000017N200818104700000000000103009180000000000000000000000000000000000000000100007281066716ZULMIRA DA SILVA RODRIGUES              RUA: BERNARDINO DE CAMPOS               OLAVO BILAC 25035530DUQUE DE CAXIASRJUNIAO UMB DOS CULTOS AFRO BRAS    30091810 000032
10231987175000168817800093673    000025718                    000257180000000000000109                     I0225718     30091800000000035003410000017N200818104700000000000103009180000000000000000000000000000000000000000100058895780370ELZA MORAES DA SILVA                    RUA CARLOS PALUT                        TAQUARA     22710310SAO JOAO DE MERRJUNIAO UMB DOS CULTOS AFRO BRAS    30091810 000033
10231987175000168817800093673    000025516                    000255160000000000000109                     I3425516     30101800000000035003410000017N200818104700000000000103010180000000000000000000000000000000000000000100011497058767DIEGO FERREIRA DA SILVA                 RUA PRIMEIRO DE MAIO                    IPIRANGA    26293480RIO DE JANEIRO RJUNIAO UMB DOS CULTOS AFRO BRAS    30101810 000034
10231987175000168817800093673    000024298                    000242980000000000000109                     I0224298     30101800000000035003410000017N200818104700000000000103010180000000000000000000000000000000000000000100058895780370ELZA MORAES DA SILVA                    RUA CARLOS PALUT                        TAQUARA     22710310SAO JOAO DE MERRJUNIAO UMB DOS CULTOS AFRO BRAS    30101810 000035
9                                                                                                                                                                                                                                                                                                                                                                                                         000036
