01REMESSA01COBRANCA       817800093673        União Umb dos Cultos Afro Bra341BANCO ITAU SA  120219                                                                                                                                                                                                                                                                                                      000001
10231987175000168817800093673    000039617                    000396170000000000000109                     I0239617     21011900000000350003410000017N180119104700000000000102101190000000000000000000000000000000000000000100002167919794ANDERSON CLEI BRANDAO TEIXEIRA          ESTRADA DO CANTAGALON 595, A            CAMPO GRANDE23036440RIO DE JANEIRO RJUNIAO UMB DOS CULTOS AFRO BRAS    21011910 000002
10231987175000168817800093673    000038305                    000383050000000000000109                     I0238305     30031900000000040003410000017N261218104700000000000103003190000000000000000000000000000000000000000100066079527715MARIA GORETH GONCALVES                  RUA JERONIMO PINTON 713, FUNDOS SALA 102CAMPINHO    21320200RIO DE JANEIRO RJUNIAO UMB DOS CULTOS AFRO BRAS    30031910 000003
10231987175000168817800093673    000038169                    000381690000000000000109                     I0238169     30031900000000040003410000017N261218104700000000000103003190000000000000000000000000000000000000000100008331240723MONIQUE SUZANO ASSUNCAO DE OLI          RUA: DIVINOPOLIS N 35,                  BENTO RIBEIR21550280RIO DE JANEIRO RJUNIAO UMB DOS CULTOS AFRO BRAS    30031910 000004
10231987175000168817800093673    000036926                    000369260000000000000109                     I0236926     28021900000000040003410000017N261218104700000000000102802190000000000000000000000000000000000000000100049681192753CARMENCITA DA FONSECA ROCHA             RUA BEGEN 351, APTO 201 - CONJUNTO DOM BMARAPICU    26295090NOVA IGUACU    RJUNIAO UMB DOS CULTOS AFRO BRAS    28021910 000005
10231987175000168817800093673    000036389                    000363890000000000000109                     I0236389     28021900000000040003410000017N261218104700000000000102802190000000000000000000000000000000000000000100066079527715MARIA GORETH GONCALVES                  RUA JERONIMO PINTON 713, FUNDOS SALA 102CAMPINHO    21320200RIO DE JANEIRO RJUNIAO UMB DOS CULTOS AFRO BRAS    28021910 000006
10231987175000168817800093673    000034480                    000344800000000000000109                     I0234480     31011900000000040003410000017N261218104700000000000103101190000000000000000000000000000000000000000100066079527715MARIA GORETH GONCALVES                  RUA JERONIMO PINTON 713, FUNDOS SALA 102CAMPINHO    21320200RIO DE JANEIRO RJUNIAO UMB DOS CULTOS AFRO BRAS    31011910 000007
10231987175000168817800093673    000034366                    000343660000000000000109                     I0234366     31011900000000040003410000017N261218104700000000000103101190000000000000000000000000000000000000000100002167919794ANDERSON CLEI BRANDAO TEIXEIRA          ESTRADA DO CANTAGALON 595, A            CAMPO GRANDE23036440RIO DE JANEIRO RJUNIAO UMB DOS CULTOS AFRO BRAS    31011910 000008
10231987175000168817800093673    000034345                    000343450000000000000109                     I0234345     31011900000000040003410000017N261218104700000000000103101190000000000000000000000000000000000000000100008331240723MONIQUE SUZANO ASSUNCAO DE OLI          RUA: DIVINOPOLIS N 35,                  BENTO RIBEIR21550280RIO DE JANEIRO RJUNIAO UMB DOS CULTOS AFRO BRAS    31011910 000009
10231987175000168817800093673    000032433                    000324330000000000000109                     I0232433     20121800000000350003410000017N291018104700000000000102012180000000000000000000000000000000000000000100032965761420VRADELEIDE MARIA DOS SANTOS             ESTRADA DE MARACAJA N 725, FUNDOS CASA 2GALEAO      21941395RIO DE JANEIRO RJUNIAO UMB DOS CULTOS AFRO BRAS    20121810 000010
10231987175000168817800093673    000031799                    000317990000000000000109                     I0231799     20121800000000400003410000017N291018104700000000000102012180000000000000000000000000000000000000000100066079527715MARIA GORETH GONCALVES                  RUA JERONIMO PINTON 713, FUNDOS SALA 102CAMPINHO    21320200RIO DE JANEIRO RJUNIAO UMB DOS CULTOS AFRO BRAS    20121810 000011
10231987175000168817800093673    000031598                    000315980000000000000109                     I0231598     20121800000000350003410000017N291018104700000000000102012180000000000000000000000000000000000000000100008331240723MONIQUE SUZANO ASSUNCAO DE OLI          RUA: DIVINOPOLIS N 35,                  BENTO RIBEIR21550280RIO DE JANEIRO RJUNIAO UMB DOS CULTOS AFRO BRAS    20121810 000012
9                                                                                                                                                                                                                                                                                                                                                                                                         000013
