01REMESSA01COBRANCA       916200163100        União Umb dos Cultos Afro Bra341BANCO ITAU SA  090719                                                                                                                                                                                                                                                                                                      000001
10231987175000168916200163100    000049899                    000498990000000000000109                     I0149899     12071900000000040003410000017N090719105700000000000131207190000000000000000000000000000000000000000100053207823734HELENICE TEODORO DA SILVA CARV          AVENIDA ALTO MARANHAO  N 0, LOTE 28     PARQUE GUARA23026010RIO DE JANEIRO RJUNIAO UMB DOS CULTOS AFRO BRAS    12071915 000002
21120720190000000000080                                                                                                                                                                                                                                                                                                                                                                                   000003
9                                                                                                                                                                                                                                                                                                                                                                                                         000004
