01REMESSA01COBRANCA       916200163100        União Umb dos Cultos Afro Bra341BANCO ITAU SA  040118                                                                                                                                                                                                                                                                                                      000001
10231987175000168916200163100    00008751                     000087510000000000000109                     I018751      31011800000000035003410000017N020118050900000000000103101180000000000000000000000000000000000000000100077740610704SUELI SORRILHA MARQUES                  RUA GONCALVES FERREIRA, 31 APTO 103     ROCHA MIRAND21540170RIO DE JANEIRO RJUNIAO UMB DOS CULTOS AFRO BRAS    31011810 000002
9                                                                                                                                                                                                                                                                                                                                                                                                         000003
