01REMESSA01COBRANCA       916200163100        União Umb dos Cultos Afro Bra341BANCO ITAU SA  240119                                                                                                                                                                                                                                                                                                      000001
10231987175000168916200163100    000039645                    000396450000000000000109                     I0139645     31011900000000140003410000017N230119104700000000000103101190000000000000000000000000000000000000000100040664325734GENI BARBOSA ROCHA DA SILVA             TRAVESSA DA AMIZADE                     VILA DA PENH25268020RIO DE JANEIRO RJUNIAO UMB DOS CULTOS AFRO BRAS    31011910 000002
10231987175000168916200163100    000039644                    000396440000000000000109                     I0139644     31031900000000040003410000017N230119104700000000000103103190000000000000000000000000000000000000000100070727201700MARIA LUIZA AGENOR BERTHOR              RUA: MARIA DO CARMO                     EDEN        25530450NILOPOLIS      RJUNIAO UMB DOS CULTOS AFRO BRAS    31031910 000003
10231987175000168916200163100    000039643                    000396430000000000000109                     I0139643     28021900000000040003410000017N230119104700000000000102802190000000000000000000000000000000000000000100070727201700MARIA LUIZA AGENOR BERTHOR              RUA: MARIA DO CARMO                     EDEN        25530450NILOPOLIS      RJUNIAO UMB DOS CULTOS AFRO BRAS    28021910 000004
10231987175000168916200163100    000039642                    000396420000000000000109                     I0139642     31011900000000040003410000017N230119104700000000000103101190000000000000000000000000000000000000000100070727201700MARIA LUIZA AGENOR BERTHOR              RUA: MARIA DO CARMO                     EDEN        25530450NILOPOLIS      RJUNIAO UMB DOS CULTOS AFRO BRAS    31011910 000005
10231987175000168916200163100    000039641                    000396410000000000000109                     I0139641     31011900000000100003410000017N230119104700000000000103101190000000000000000000000000000000000000000100096051523715MARIA DE LOURDES PEREIRA                RUA MAX MANOEL MOLTER                   QUARTEIRAO B25680211PETROPOLIS     RJUNIAO UMB DOS CULTOS AFRO BRAS    31011910 000006
10231987175000168916200163100    000039640                    000396400000000000000109                     I0139640     31011900000000350003410000017N230119104700000000000103101190000000000000000000000000000000000000000100035041056749SONIA DUTRA DA CRUZ                     RUA PAULO VIANA                         ROCHA MIRAND21540460RIO DE JANEIRO RJUNIAO UMB DOS CULTOS AFRO BRAS    31011910 000007
10231987175000168916200163100    000039639                    000396390000000000000109                     I0139639     31011900000000400003410000017N230119104700000000000103101190000000000000000000000000000000000000000100069881278791TANIA MARCIA DA CAMARA ESTEVES          RUA VEREADOR JOSE VICENTE SOBRINHO      ENGENHOCA   24110441NITEROI        RJUNIAO UMB DOS CULTOS AFRO BRAS    31011910 000008
10231987175000168916200163100    000039496                    000394960000000000000109                     I0239496     11011900000000350003410000017N070119104700000000000101101190000000000000000000000000000000000000000100091488362734MATHIAS FERNANDES LAPOENTE              RUA JOAQUIM AUGUSTO                     PACIENCIA   23585811RIO DE JANEIRO RJUNIAO UMB DOS CULTOS AFRO BRAS    11011910 000009
9                                                                                                                                                                                                                                                                                                                                                                                                         000010
