01REMESSA01COBRANCA       817800093673        União Umb dos Cultos Afro Bra341BANCO ITAU SA  110719                                                                                                                                                                                                                                                                                                      000001
10231987175000168817800093673    000049298                    000492980000000000000109                     I0249298     30091900000000040003410000017N100619105700000000000133009190000000000000000000000000000000000000000100001653081767DEISE SIQUEIRA                          RUA PARLON SIQUEIRA N 59, CX P 93       BARRA DE GUA23020510RIO DE JANEIRO RJUNIAO UMB DOS CULTOS AFRO BRAS    30091915 000002
21300920190000000000080                                                                                                                                                                                                                                                                                                                                                                                   000003
10231987175000168817800093673    000048538                    000485380000000000000109                     I0248538     30091900000000040003410000017N100619105700000000000133009190000000000000000000000000000000000000000100064250121704ANGELA MARIA BRAZ MANHAES               RUA JUTAIN 0,  LOTE 20 QUADRA 151       PERIQUITO   25025290DUQUE DE CAXIASRJUNIAO UMB DOS CULTOS AFRO BRAS    30091915 000004
21300920190000000000080                                                                                                                                                                                                                                                                                                                                                                                   000005
10231987175000168817800093673    000047856                    000478560000000000000109                     I0247856     30081900000000040003410000017N100619105700000000000133008190000000000000000000000000000000000000000100001653081767DEISE SIQUEIRA                          RUA PARLON SIQUEIRA N 59, CX P 93       BARRA DE GUA23020510RIO DE JANEIRO RJUNIAO UMB DOS CULTOS AFRO BRAS    30081915 000006
21300820190000000000080                                                                                                                                                                                                                                                                                                                                                                                   000007
10231987175000168817800093673    000047101                    000471010000000000000109                     I0247101     30081900000000040003410000017N100619105700000000000133008190000000000000000000000000000000000000000100064250121704ANGELA MARIA BRAZ MANHAES               RUA JUTAIN 0,  LOTE 20 QUADRA 151       PERIQUITO   25025290DUQUE DE CAXIASRJUNIAO UMB DOS CULTOS AFRO BRAS    30081915 000008
21300820190000000000080                                                                                                                                                                                                                                                                                                                                                                                   000009
10231987175000168817800093673    000046423                    000464230000000000000109                     I0246423     30071900000000040003410000017N100619105700000000000133007190000000000000000000000000000000000000000100001653081767DEISE SIQUEIRA                          RUA PARLON SIQUEIRA N 59, CX P 93       BARRA DE GUA23020510RIO DE JANEIRO RJUNIAO UMB DOS CULTOS AFRO BRAS    30071915 000010
21300720190000000000080                                                                                                                                                                                                                                                                                                                                                                                   000011
10231987175000168817800093673    000045678                    000456780000000000000109                     I0245678     30071900000000040003410000017N100619105700000000000133007190000000000000000000000000000000000000000100064250121704ANGELA MARIA BRAZ MANHAES               RUA JUTAIN 0,  LOTE 20 QUADRA 151       PERIQUITO   25025290DUQUE DE CAXIASRJUNIAO UMB DOS CULTOS AFRO BRAS    30071915 000012
21300720190000000000080                                                                                                                                                                                                                                                                                                                                                                                   000013
10231987175000168817800093673    000045290                    000452900000000000000109                     I0245290     10061900000000200003410000017N200519105700000000000661006190000000000000000000000000000000000000000100085114308734MARISTELA BISPO DOS SANTOS              RUA VINTE E TRES DE SETEMBRON 245,      IPIRANGA    26293342NOVA IGUACU    RJUNIAO UMB DOS CULTOS AFRO BRAS    10061915 000014
21100620190000000000400                                                                                                                                                                                                                                                                                                                                                                                   000015
9                                                                                                                                                                                                                                                                                                                                                                                                         000016
