01REMESSA01COBRANCA       916200163100        União Umb dos Cultos Afro Bra341BANCO ITAU SA  070519                                                                                                                                                                                                                                                                                                      000001
10231987175000168916200163100    000041101                    000411010000000000000109                     I0141101     30041900000000040003410000017N120319105700000000000103004190000000000000000000000000000000000000000100049490087734DIRCE MARA DE OLIVEIRA PAULA            RUA OTILIO LIMA N 0, LOTE 2 QUADRA 130  SANTA LUZIA 24721490SAO GONCALO    RJUNIAO UMB DOS CULTOS AFRO BRAS    30041915 000002
9                                                                                                                                                                                                                                                                                                                                                                                                         000003
