01REMESSA01COBRANCA       817800093673        União Umb dos Cultos Afro Bra341BANCO ITAU SA  300119                                                                                                                                                                                                                                                                                                      000001
10231987175000168817800093673    000039665                    000396650000000000000109                     I0239665     05021900000000180003410000017N290119104700000000000100502190000000000000000000000000000000000000000100004474701755JACIRA DE ALMEIDA BATISTA JULI          AVENIDA SAO PAULO                       PARQUE MARIL25225660DUQUE DE CAXIASRJUNIAO UMB DOS CULTOS AFRO BRAS    05021910 000002
10231987175000168817800093673    000039074                    000390740000000000000109                     I0239074     30031900000000040003410000017N261218104700000000000103003190000000000000000000000000000000000000000100013791358774TEREZINHA MENDONCA CORDEIRO             RUA SUEZ                                JARDIM GUAND26298180RIO DE JANEIRO RJUNIAO UMB DOS CULTOS AFRO BRAS    30031910 000003
10231987175000168817800093673    000038761                    000387610000000000000109                     I0238761     30031900000000040003410000017N261218104700000000000103003190000000000000000000000000000000000000000100073921947804GILSON ANDRADE                          RUA TANGI                               PARQUE REAL 26175025BELFORD ROXO   RJUNIAO UMB DOS CULTOS AFRO BRAS    30031910 000004
10231987175000168817800093673    000037155                    000371550000000000000109                     I0237155     28021900000000040003410000017N261218104700000000000102802190000000000000000000000000000000000000000100013791358774TEREZINHA MENDONCA CORDEIRO             RUA SUEZ                                JARDIM GUAND26298180RIO DE JANEIRO RJUNIAO UMB DOS CULTOS AFRO BRAS    28021910 000005
10231987175000168817800093673    000036842                    000368420000000000000109                     I0236842     28021900000000040003410000017N261218104700000000000102802190000000000000000000000000000000000000000100073921947804GILSON ANDRADE                          RUA TANGI                               PARQUE REAL 26175025BELFORD ROXO   RJUNIAO UMB DOS CULTOS AFRO BRAS    28021910 000006
10231987175000168817800093673    000035369                    000353690000000000000109                     I0235369     31011900000000040003410000017N261218104700000000000103101190000000000000000000000000000000000000000100002176741781SUSI DE OLIVEIRA LOUREIRO               RUA FATIMA CRISTINA                     ROSA DOS VEN26278525RIO DE JANEIRO RJUNIAO UMB DOS CULTOS AFRO BRAS    31011910 000007
10231987175000168817800093673    000035244                    000352440000000000000109                     I0235244     31011900000000040003410000017N261218104700000000000103101190000000000000000000000000000000000000000100013791358774TEREZINHA MENDONCA CORDEIRO             RUA SUEZ                                JARDIM GUAND26298180RIO DE JANEIRO RJUNIAO UMB DOS CULTOS AFRO BRAS    31011910 000008
10231987175000168817800093673    000034932                    000349320000000000000109                     I0234932     31011900000000040003410000017N261218104700000000000103101190000000000000000000000000000000000000000100073921947804GILSON ANDRADE                          RUA TANGI                               PARQUE REAL 26175025BELFORD ROXO   RJUNIAO UMB DOS CULTOS AFRO BRAS    31011910 000009
10231987175000168817800093673    000032927                    000329270000000000000109                     I0232927     20121800000000350003410000017N291018104700000000000102012180000000000000000000000000000000000000000100013791358774TEREZINHA MENDONCA CORDEIRO             RUA SUEZ                                JARDIM GUAND26298180RIO DE JANEIRO RJUNIAO UMB DOS CULTOS AFRO BRAS    20121810 000010
10231987175000168817800093673    000032485                    000324850000000000000109                     I0232485     20121800000000350003410000017N291018104700000000000102012180000000000000000000000000000000000000000100073921947804GILSON ANDRADE                          RUA TANGI                               PARQUE REAL 26175025BELFORD ROXO   RJUNIAO UMB DOS CULTOS AFRO BRAS    20121810 000011
10231987175000168817800093673    000030773                    000307730000000000000109                     I0230773     20121800000000350003410000017N291018104700000000000102012180000000000000000000000000000000000000000100007062360767IVONETE GOMES DOS SANTOS                AVENIDA PORTO DA MADAME                 GRADIM      24431310SAO GONCALO    RJUNIAO UMB DOS CULTOS AFRO BRAS    20121810 000012
10231987175000168817800093673    000030583                    000305830000000000000109                     I0230583     20121800000000350003410000017N291018104700000000000102012180000000000000000000000000000000000000000100012712280768JOAQUIM DE SOUZA FILHO - SANDR          RUA: DOM JOAO VI                        VILAR DOS TE25561090SAO JOAO DE MERRJUNIAO UMB DOS CULTOS AFRO BRAS    20121810 000013
10231987175000168817800093673    000029151                    000291510000000000000109                     I0229151     20121800000000035003410000017N291018104700000000000102012180000000000000000000000000000000000000000100007062360767IVONETE GOMES DOS SANTOS                AVENIDA PORTO DA MADAME                 GRADIM      24431310SAO GONCALO    RJUNIAO UMB DOS CULTOS AFRO BRAS    20121810 000014
9                                                                                                                                                                                                                                                                                                                                                                                                         000015
