01REMESSA01COBRANCA       916200163100        União Umb dos Cultos Afro Bra341BANCO ITAU SA  270918                                                                                                                                                                                                                                                                                                      000001
10231987175000168916200163100    000028815                    000288150000000000000109                     I0128815     10101800000000105003410000017N270918104700000000000101010180000000000000000000000000000000000000000100009409455766DANIELE MARTINS MEDEIROS DE FR          RUA D                                   BELA VISTA  23860000MANGARATIBA    RJUNIAO UMB DOS CULTOS AFRO BRAS    10101810 000002
10231987175000168916200163100    000028814                    000288140000000000000109                     I0128814     30111800000000040003410000017N270918104700000000000103011180000000000000000000000000000000000000000100032140649320ROSA ELENA ALVES DA COSTA               RUA NILTON CORDEIRO                     MARE        21044052RIO DE JANEIRO RJUNIAO UMB DOS CULTOS AFRO BRAS    30111810 000003
10231987175000168916200163100    000028813                    000288130000000000000109                     I0128813     30101800000000040003410000017N270918104700000000000103010180000000000000000000000000000000000000000100032140649320ROSA ELENA ALVES DA COSTA               RUA NILTON CORDEIRO                     MARE        21044052RIO DE JANEIRO RJUNIAO UMB DOS CULTOS AFRO BRAS    30101810 000004
10231987175000168916200163100    000028812                    000288120000000000000109                     I0128812     01101800000000400003410000017N270918104700000000000100110180000000000000000000000000000000000000000100067262198734LELIA DE OLIVEIRA RAMOS                 RUA: VISCONDE DE SANTA ISABEL           VILA ISABEL 20720012RIO DE JANEIRO RJUNIAO UMB DOS CULTOS AFRO BRAS    01101810 000005
10231987175000168916200163100    000028811                    000288110000000000000109                     I0128811     29091800000000035003410000017N270918104700000000000102909180000000000000000000000000000000000000000100009057240700ILAN FERNANDES BRAZILEIRO               RUA NICARAGUA                           PARQUE HOTEL28970000ARARUAMA       RJUNIAO UMB DOS CULTOS AFRO BRAS    29091810 000006
10231987175000168916200163100    000028810                    000288100000000000000109                     I0128810     20121800000000140003410000017N270918104700000000000102012180000000000000000000000000000000000000000100050262319772NELCY MARIA DE MATTOS                   RUA FILADELFIA                          MONJOLO     24723365SAO GONCALO    RJUNIAO UMB DOS CULTOS AFRO BRAS    20121810 000007
10231987175000168916200163100    000028809                    000288090000000000000109                     I0128809     30111800000000105003410000017N270918104700000000000103011180000000000000000000000000000000000000000100050262319772NELCY MARIA DE MATTOS                   RUA FILADELFIA                          MONJOLO     24723365SAO GONCALO    RJUNIAO UMB DOS CULTOS AFRO BRAS    30111810 000008
10231987175000168916200163100    000028808                    000288080000000000000109                     I0128808     30101800000000105003410000017N270918104700000000000103010180000000000000000000000000000000000000000100050262319772NELCY MARIA DE MATTOS                   RUA FILADELFIA                          MONJOLO     24723365SAO GONCALO    RJUNIAO UMB DOS CULTOS AFRO BRAS    30101810 000009
10231987175000168916200163100    000028807                    000288070000000000000109                     I0128807     28091800000000175003410000017N270918104700000000000102809180000000000000000000000000000000000000000100041247078787ANTONIO NARCISO RUSSI DA SILVA          RUA DEOLINDA MARTINS N 359 KM 42        JARDIM CENTR23845110SEROPEDICA     RJUNIAO UMB DOS CULTOS AFRO BRAS    28091810 000010
10231987175000168916200163100    000028806                    000288060000000000000109                     I0128806     30091800000000035003410000017N260918104700000000000103009180000000000000000000000000000000000000000100002134169729ALEXANDRE DE ALMEIDA                    RUA SERITINGA                           BRAS DE PINA21215480RIO DE JANEIRO RJUNIAO UMB DOS CULTOS AFRO BRAS    30091810 000011
10231987175000168916200163100    000028805                    000288050000000000000109                     I0128805     10101800000000280003410000017N260918104700000000000101010180000000000000000000000000000000000000000100000000000607ARACI AMELIA DA SILVA RIBEIRO           RUA ALIPIO GOMES DOS SANTOS             JARDIM AMERI26032835BARRA DO PIRAI RJUNIAO UMB DOS CULTOS AFRO BRAS    10101810 000012
10231987175000168916200163100    000028804                    000288040000000000000109                     I0128804     15101800000000105003410000017N260918104700000000000101510180000000000000000000000000000000000000000100010880272308FERNANDA DOS SANTOS PEREIRA             RUA LINS DE VASCONCELOS                 LINS DE VASC20710130RIO DE JANEIRO RJUNIAO UMB DOS CULTOS AFRO BRAS    15101810 000013
10231987175000168916200163100    000028803                    000288030000000000000109                     I0128803     30111800000000040003410000017N260918104700000000000103011180000000000000000000000000000000000000000100001467028754ROSANE DE FREITAS SOUZA DA SIL          RUA JACIRENDI                           COLEGIO     20545290RIO DE JANEIRO RJUNIAO UMB DOS CULTOS AFRO BRAS    30111810 000014
10231987175000168916200163100    000028802                    000288020000000000000109                     I0128802     30101800000000040003410000017N260918104700000000000103010180000000000000000000000000000000000000000100001467028754ROSANE DE FREITAS SOUZA DA SIL          RUA JACIRENDI                           COLEGIO     20545290RIO DE JANEIRO RJUNIAO UMB DOS CULTOS AFRO BRAS    30101810 000015
10231987175000168916200163100    000028801                    000288010000000000000109                     I0128801     05101800000000245003410000017N260918104700000000000100510180000000000000000000000000000000000000000100076719588753JULIO CESAR CASTRILON                   RUA: SANTA TEREZINHA                    MURIQUI     23870000MANGARATIBA    RJUNIAO UMB DOS CULTOS AFRO BRAS    05101810 000016
10231987175000168916200163100    000028800                    000288000000000000000109                     I0128800     30111800000000040003410000017N250918104700000000000103011180000000000000000000000000000000000000000100073943266753LAINE VERONICA ALVES MONTEIRO           RUA PREFEITO XAVIER DA SILVEIRA         VILA SANTO A26294303DUQUE DE CAXIASRJUNIAO UMB DOS CULTOS AFRO BRAS    30111810 000017
10231987175000168916200163100    000028799                    000287990000000000000109                     I0128799     30101800000000040003410000017N250918104700000000000103010180000000000000000000000000000000000000000100073943266753LAINE VERONICA ALVES MONTEIRO           RUA PREFEITO XAVIER DA SILVEIRA         VILA SANTO A26294303DUQUE DE CAXIASRJUNIAO UMB DOS CULTOS AFRO BRAS    30101810 000018
10231987175000168916200163100    000028798                    000287980000000000000109                     I0128798     30111800000000040003410000017N250918104700000000000103011180000000000000000000000000000000000000000100000000000000NANCY CORREA DA SILVA                   RUA DA SEPARACAO                        VILAR DO TEL25555620SAO JOAO DE MERRJUNIAO UMB DOS CULTOS AFRO BRAS    30111810 000019
10231987175000168916200163100    000028797                    000287970000000000000109                     I0128797     30101800000000040003410000017N250918104700000000000103010180000000000000000000000000000000000000000100000000000000NANCY CORREA DA SILVA                   RUA DA SEPARACAO                        VILAR DO TEL25555620SAO JOAO DE MERRJUNIAO UMB DOS CULTOS AFRO BRAS    30101810 000020
10231987175000168916200163100    000028796                    000287960000000000000109                     I0128796     30091800000000035003410000017N240918104700000000000103009180000000000000000000000000000000000000000100010518288722RODRIGO JOSE ABREU DOS SANTOS           RUA MARAVILHA                           BANGU       20720012RIO DE JANEIRO RJUNIAO UMB DOS CULTOS AFRO BRAS    30091810 000021
10231987175000168916200163100    000028795                    000287950000000000000109                     I0128795     30111800000000040003410000017N240918104700000000000103011180000000000000000000000000000000000000000100096599170749LUCINEA LOPES DA SILVA                  FLAVIA REGINA DE SOUZA LOTE 8 QDA 5     CABUCU      00000000NOVA IGUACU    RJUNIAO UMB DOS CULTOS AFRO BRAS    30111810 000022
10231987175000168916200163100    000028794                    000287940000000000000109                     I0128794     31101800000000040003410000017N240918104700000000000103110180000000000000000000000000000000000000000100096599170749LUCINEA LOPES DA SILVA                  FLAVIA REGINA DE SOUZA LOTE 8 QDA 5     CABUCU      00000000NOVA IGUACU    RJUNIAO UMB DOS CULTOS AFRO BRAS    31101810 000023
10231987175000168916200163100    000028793                    000287930000000000000109                     I0128793     16101800000000480003410000017N240918104700000000000101610180000000000000000000000000000000000000000100018708579768CARLOS HENRIQUE PAES CRUZ               R:ITACURUCA,213                         MARAMBAIA- S24724410NITEROI        RJUNIAO UMB DOS CULTOS AFRO BRAS    16101810 000024
10231987175000168916200163100    000028792                    000287920000000000000109                     I0128792     05101800000000220003410000017N240918104700000000000100510180000000000000000000000000000000000000000100083904069772MARCIA MARIA DUARTE MILANEZ VI          RUA DO FRAGOSO                          GUARATIBA   23032280RIO DE JANEIRO RJUNIAO UMB DOS CULTOS AFRO BRAS    05101810 000025
10231987175000168916200163100    000020784                    000207840000000000000109                     I3420784     30081800000000040003410000017N070518104700000000000103008180000000000000000000000000000000000000000100009526018770VERONICA MARIA LIMA                     RUA KEMAL PALHA                         VILA SANTO A25040220DUQUE DE CAXIASRJUNIAO UMB DOS CULTOS AFRO BRAS    30081810 000026
10231987175000168916200163100    000020636                    000206360000000000000109                     I0220636     30081800000000035003410000017N070518104700000000000103008180000000000000000000000000000000000000000100068373570772RONILCE CAMILO DA SILVA                 RUA RUBY ALBERTORIA                     GERENCIANO  26061155NOVA IGUACU    RJUNIAO UMB DOS CULTOS AFRO BRAS    30081810 000027
10231987175000168916200163100    000020372                    000203720000000000000109                     I3420372     30081800000000035003410000017N070518104700000000000103008180000000000000000000000000000000000000000100079096611772MARIO LUIZ BARRETO DE BARROS            RUA GRAVATA                             MARECHAL HER21610510RIO DE JANEIRO RJUNIAO UMB DOS CULTOS AFRO BRAS    30081810 000028
10231987175000168916200163100    000020236                    000202360000000000000109                     I0220236     30081800000000035003410000017N070518104700000000000103008180000000000000000000000000000000000000000100074593250749ELIZABETH DA SILVA OLIVEIRA             RUA QUINZE                              TEIXEIRA    23819230ITAGUAI        RJUNIAO UMB DOS CULTOS AFRO BRAS    30081810 000029
10231987175000168916200163100    000020155                    000201550000000000000109                     I0220155     30081800000000035003410000017N070518104700000000000103008180000000000000000000000000000000000000000100005292156752MARCIO VALADARES DOS SANTOS             RUA SETUBAL                             CABUCU      21330560RIO DE JANEIRO RJUNIAO UMB DOS CULTOS AFRO BRAS    30081810 000030
10231987175000168916200163100    000019980                    000199800000000000000109                     I0219980     30081800000000035003410000017N070518104700000000000103008180000000000000000000000000000000000000000100075745658720ELIZIETE COIMBRA DE FRANCA              RUA SAO LOURENCO                        SANTA RITA  26050630NOVA IGUACU    RJUNIAO UMB DOS CULTOS AFRO BRAS    30081810 000031
10231987175000168916200163100    000019878                    000198780000000000000109                     I0219878     30081800000000035003410000017N070518104700000000000103008180000000000000000000000000000000000000000100002134169729ALEXANDRE DE ALMEIDA                    RUA SERITINGA                           BRAS DE PINA21215480RIO DE JANEIRO RJUNIAO UMB DOS CULTOS AFRO BRAS    30081810 000032
10231987175000168916200163100    000019872                    000198720000000000000109                     I0219872     30081800000000035003410000017N070518104700000000000103008180000000000000000000000000000000000000000100000692299700JORGE LUIZ LIMA BASTOS                  RUA PLANALTINA                          REALENGO    21760160RIO DE JANEIRO RJUNIAO UMB DOS CULTOS AFRO BRAS    30081810 000033
10231987175000168916200163100    000019675                    000196750000000000000109                     I0219675     30081800000000035003410000017N070518104700000000000103008180000000000000000000000000000000000000000100003027226703MARCIO ALVES DOS SANTOS                 RUA ESTUDANTE ELIANE CASTANHEIRA        CENTRO      25510242SAO JOAO DE MERRJUNIAO UMB DOS CULTOS AFRO BRAS    30081810 000034
10231987175000168916200163100    000019271                    000192710000000000000109                     I0219271     30081800000000035003410000017N070518104700000000000103008180000000000000000000000000000000000000000100010518288722RODRIGO JOSE ABREU DOS SANTOS           RUA MARAVILHA                           BANGU       20720012RIO DE JANEIRO RJUNIAO UMB DOS CULTOS AFRO BRAS    30081810 000035
9                                                                                                                                                                                                                                                                                                                                                                                                         000036
