01REMESSA01COBRANCA       916200163100        União Umb dos Cultos Afro Bra341BANCO ITAU SA  050218                                                                                                                                                                                                                                                                                                      000001
10231987175000168916200163100    00008875                     000088750000000000000109                     I028875      31011800000000035003410000017N020118104700000000000103101180000000000000000000000000000000000000000100047657383704JAIR LOURENCO DE LIMA                   O MESMO                                 O MESMO     25640340PETROPOLIS     RJUNIAO UMB DOS CULTOS AFRO BRAS    31011810 000002
10231987175000168916200163100    00008836                     000088360000000000000109                     I028836      31011800000000035003410000017N020118104700000000000103101180000000000000000000000000000000000000000100011790209790NOILDA SANTIAGO DA SILVA                RUA ADRIANA N 203 FUNDOS                VALVERDE - N26290645NOVA IGUACU    RJUNIAO UMB DOS CULTOS AFRO BRAS    31011810 000003
10231987175000168916200163100    00008702                     000087020000000000000109                     I028702      31011800000000035003410000017N020118104700000000000103101180000000000000000000000000000000000000000100078348048715CRISTIANE MARIA CARROZINO GAUD          ESTRADA DO DENDE, 1148 APTO 102         MONERO - ILH21920001RIO DE JANEIRO RJUNIAO UMB DOS CULTOS AFRO BRAS    31011810 000004
10231987175000168916200163100    00008680                     000086800000000000000109                     I028680      31011800000000035003410000017N020118104700000000000103101180000000000000000000000000000000000000000100010373820720ELTON LUIZ DAS NEVES CATARINO           RUA TURMALINA,  LOTE 33 QUADRA 48 - ANTIJD CATARINA 24715670SAO GONCALO    RJUNIAO UMB DOS CULTOS AFRO BRAS    31011810 000005
10231987175000168916200163100    00004551                     000045510000000000000109                     I024551      22121700000000350003410000017N171117104700000000000102212170000000000000000000000000000000000000000100014520518792STEPHANI MATOS MONTEIRO                 ESTRADA DOUTOR PLINIO CASADO N 3599     CENTRO - BEL26130622BELFORD ROXO   RJUNIAO UMB DOS CULTOS AFRO BRAS    22121710 000006
10231987175000168916200163100    00004111                     000041110000000000000109                     I024111      22121700000000350003410000017N171117104700000000000102212170000000000000000000000000000000000000000200026135911746ELINDOMAR JORGE DA COSTA                RUA ITUVERAVA, 108 LOTE 10 QUADRA 1     MONJOLO - SA24724800SAO GONCALO    RJUNIAO UMB DOS CULTOS AFRO BRAS    22121710 000007
10231987175000168916200163100    00004066                     000040660000000000000109                     I024066      22121700000000350003410000017N171117104700000000000102212170000000000000000000000000000000000000000100010591612739ROSEMERE SOUZA DA SILVA                 O MESMO                                 O MESMO     21230354RIO DE JANEIRO RJUNIAO UMB DOS CULTOS AFRO BRAS    22121710 000008
10231987175000168916200163100    00003737                     000037370000000000000109                     I023737      22121700000000350003410000017N171117104700000000000102212170000000000000000000000000000000000000000100043194869787JORGE PINHEIRO DE ALMEIDA               RUA CERQUEIRA CESAR N 121 CASA 1        MADUREIRA - 21351070RIO DE JANEIRO RJUNIAO UMB DOS CULTOS AFRO BRAS    22121710 000009
10231987175000168916200163100    00003659                     000036590000000000000109                     I023659      22121700000000350003410000017N171117104700000000000102212170000000000000000000000000000000000000000100062792920700LUIZ CESAR DE OLIVEIRA                  RUA PEREIRA DE FIGUEIREDO, 627          OSWALDO CRUZ21340030RIO DE JANEIRO RJUNIAO UMB DOS CULTOS AFRO BRAS    22121710 000010
10231987175000168916200163100    00003254                     000032540000000000000109                     I023254      22121700000000350003410000017N171117104700000000000102212170000000000000000000000000000000000000000100048685917700CELIO DO NASCIMENTO                     RUA DO CATETE, 123 CASA 4 APTO 101      CATETE - RIO22220000RIO DE JANEIRO RJUNIAO UMB DOS CULTOS AFRO BRAS    22121710 000011
10231987175000168916200163100    00003250                     000032500000000000000109                     I023250      22121700000000350003410000017N171117104700000000000102212170000000000000000000000000000000000000000100053011783772MARIA APARECIDA DA SILVA                RUA JOANA RESENDE, 61 - FAZENDA CAXIAS  SEROPEDICA -23836380RIO DE JANEIRO RJUNIAO UMB DOS CULTOS AFRO BRAS    22121710 000012
10231987175000168916200163100    00003102                     000031020000000000000109                     I023102      31121700000000035003410000017N131117104700000000000103112170000000000000000000000000000000000000000100014520518792STEPHANI MATOS MONTEIRO                 ESTRADA DOUTOR PLINIO CASADO N 3599     CENTRO - BEL26130622BELFORD ROXO   RJUNIAO UMB DOS CULTOS AFRO BRAS    31121710 000013
10231987175000168916200163100    00002608                     000026080000000000000109                     I022608      31121700000000035003410000017N131117104700000000000103112170000000000000000000000000000000000000000100010591612739ROSEMERE SOUZA DA SILVA                 O MESMO                                 O MESMO     21230354RIO DE JANEIRO RJUNIAO UMB DOS CULTOS AFRO BRAS    31121710 000014
9                                                                                                                                                                                                                                                                                                                                                                                                         000015
