01REMESSA01COBRANCA       817800093673        Uni√£o Umb dos Cultos Afro Bra341BANCO ITAU SA  030819                                                                                                                                                                                                                                                                                                      000001
10231987175000168817800093673    000053558                    000535580000000000000109                     I0153558     30081900000000250003410000017N020819105700000000000833008190000000000000000000000000000000000000000100005248174724CARLOS EDUARDO BENTO DE OLIVEI          RUA MARGARIDAS N 935,                   CIDADE ALEGR27525340RESENDE        RJUNIAO UMB DOS CULTOS AFRO BRAS    30081915 000002
21300820190000000000500                                                                                                                                                                                                                                                                                                                                                                                   000003
10231987175000168817800093673    000053557                    000535570000000000000109                     I0153557     30081900000000250003410000017N020819105700000000000833008190000000000000000000000000000000000000000100008088108713GILSON MARCOS DA SILVA                  RUA: ANHANDEI  N 542,                   VILA GUARITA26040090NOVA IGUACU    RJUNIAO UMB DOS CULTOS AFRO BRAS    30081915 000004
21300820190000000000500                                                                                                                                                                                                                                                                                                                                                                                   000005
10231987175000168817800093673    000053537                    000535370000000000000109                     I0153537     30081900000000250003410000017N020819105700000000000833008190000000000000000000000000000000000000000100051268906700MARIA DAS GRACAS FERREIRA FURT          RUA RECANTO DO OUTEIRON 701,            TAQUARA     22713160RIO DE JANEIRO RJUNIAO UMB DOS CULTOS AFRO BRAS    30081915 000006
21300820190000000000500                                                                                                                                                                                                                                                                                                                                                                                   000007
10231987175000168817800093673    000053536                    000535360000000000000109                     I0153536     30081900000000250003410000017N020819105700000000000833008190000000000000000000000000000000000000000100003004197758APARECIDA DA SILVA SOUZA                RUA CLARK N 25, CASA 1                  SIDERLANDIA 26157240BELFORD ROXO   RJUNIAO UMB DOS CULTOS AFRO BRAS    30081915 000008
21300820190000000000500                                                                                                                                                                                                                                                                                                                                                                                   000009
10231987175000168817800093673    000053530                    000535300000000000000109                     I0153530     30081900000000250003410000017N020819105700000000000833008190000000000000000000000000000000000000000100015458844718ANDRE LUIZ TRINDADE FORTES JUN          RUA HERTAN 25,                          IMPERADOR   25900001MAGE           RJUNIAO UMB DOS CULTOS AFRO BRAS    30081915 000010
21300820190000000000500                                                                                                                                                                                                                                                                                                                                                                                   000011
10231987175000168817800093673    000053529                    000535290000000000000109                     I0153529     30081900000000250003410000017N020819105700000000000833008190000000000000000000000000000000000000000100010020636717CLAUDIA JANAINA CORREA                  RUA CN 0, LOTE 40 QUADRA 20             FRAGOSO     25390000MAGE           RJUNIAO UMB DOS CULTOS AFRO BRAS    30081915 000012
21300820190000000000500                                                                                                                                                                                                                                                                                                                                                                                   000013
10231987175000168817800093673    000053528                    000535280000000000000109                     I0153528     30081900000000250003410000017N020819105700000000000833008190000000000000000000000000000000000000000100000200790790LUIS JORGE MOCO                         RUA ECA DE QUEIROZN 0, LOTE 74 QUADRA 7 VILA SANTO A25040350DUQUE DE CAXIASRJUNIAO UMB DOS CULTOS AFRO BRAS    30081915 000014
21300820190000000000500                                                                                                                                                                                                                                                                                                                                                                                   000015
10231987175000168817800093673    000053527                    000535270000000000000109                     I0153527     30081900000000250003410000017N020819105700000000000833008190000000000000000000000000000000000000000100005953253605MILTON COELHO DO NASCIMENTO JU          RUA BEZERRA DE MENEZES N 73, APT 102    VAZ LOBO    21361000RIO DE JANEIRO RJUNIAO UMB DOS CULTOS AFRO BRAS    30081915 000016
21300820190000000000500                                                                                                                                                                                                                                                                                                                                                                                   000017
10231987175000168817800093673    000053526                    000535260000000000000109                     I0153526     30081900000000250003410000017N020819105700000000000833008190000000000000000000000000000000000000000100002730493727ALBERTO ALEXANDRE DOS SANTOS M          RUA ECA DE QUEIROZN 0, QUADRA 60 LOTE 2 PANTANAL    25040350DUQUE DE CAXIASRJUNIAO UMB DOS CULTOS AFRO BRAS    30081915 000018
21300820190000000000500                                                                                                                                                                                                                                                                                                                                                                                   000019
10231987175000168817800093673    000053507                    000535070000000000000109                     I0153507     30081900000000250003410000017N020819105700000000000833008190000000000000000000000000000000000000000100008888032738FATIMA SOARES CARNEIRO                  RUA ANTONIO JOAO MENDONCAN 1466,        CENTRO      26515592NILOPOLIS      RJUNIAO UMB DOS CULTOS AFRO BRAS    30081915 000020
21300820190000000000500                                                                                                                                                                                                                                                                                                                                                                                   000021
10231987175000168817800093673    000053505                    000535050000000000000109                     I0153505     30081900000000250003410000017N020819105700000000000833008190000000000000000000000000000000000000000100002578661758ANA MARIA BATISTA DA SILVA              RUA SIMOES DE SOUZA N 0, LOTE 13 QUADRA JARDIM PRIMA25223520DUQUE DE CAXIASRJUNIAO UMB DOS CULTOS AFRO BRAS    30081915 000022
21300820190000000000500                                                                                                                                                                                                                                                                                                                                                                                   000023
10231987175000168817800093673    000053504                    000535040000000000000109                     I0153504     30081900000000250003410000017N020819105700000000000833008190000000000000000000000000000000000000000100031320635768JUCARA OLIVEIRA DA ROSA                 RUA CARVALHO DE SOUZA N 52, APT 202     MADUREIRA   21335180RIO DE JANEIRO RJUNIAO UMB DOS CULTOS AFRO BRAS    30081915 000024
21300820190000000000500                                                                                                                                                                                                                                                                                                                                                                                   000025
10231987175000168817800093673    000053503                    000535030000000000000109                     I0153503     30081900000000250003410000017N020819105700000000000833008190000000000000000000000000000000000000000100009481166767JUSSARA SILVA DOS SANTOS                RUA LEOPOLDO MINGUEZN 0, LOTE 27 QD 13  PARQUE PAULI25261010DUQUE DE CAXIASRJUNIAO UMB DOS CULTOS AFRO BRAS    30081915 000026
21300820190000000000500                                                                                                                                                                                                                                                                                                                                                                                   000027
10231987175000168817800093673    000053502                    000535020000000000000109                     I0153502     30081900000000250003410000017N020819105700000000000833008190000000000000000000000000000000000000000100004701154750VIVIANE FELIX GOMES                     RUA VANDA VASCONCELOS N 0, QD 8 LOTE 14 JARDIM REDEN26195460BELFORD ROXO   RJUNIAO UMB DOS CULTOS AFRO BRAS    30081915 000028
21300820190000000000500                                                                                                                                                                                                                                                                                                                                                                                   000029
10231987175000168817800093673    000053501                    000535010000000000000109                     I0153501     30081900000000250003410000017N020819105700000000000833008190000000000000000000000000000000000000000100012842798716ROSIMARY JORGE RIBEIRO DE PAUL          RUA CAMINHO DA GLORIA N 36,             SHANGRILA RO26155125BELFORD ROXO   RJUNIAO UMB DOS CULTOS AFRO BRAS    30081915 000030
21300820190000000000500                                                                                                                                                                                                                                                                                                                                                                                   000031
10231987175000168817800093673    000053500                    000535000000000000000109                     I0153500     30081900000000250003410000017N020819105700000000000833008190000000000000000000000000000000000000000100088271951734GILSON DA SILVA SANTOS                  RUA OLIMPION 0, LOTE 4 QUADRA 10        FARULA      26125160BELFORD ROXO   RJUNIAO UMB DOS CULTOS AFRO BRAS    30081915 000032
21300820190000000000500                                                                                                                                                                                                                                                                                                                                                                                   000033
10231987175000168817800093673    000053499                    000534990000000000000109                     I0153499     30081900000000250003410000017N020819105700000000000833008190000000000000000000000000000000000000000100070978980468MARIA JOSE DA SILVA                     ESTRADA SAO LOURENCON 1939, FUNDOS CASA CHACARAS RIO25243150DUQUE DE CAXIASRJUNIAO UMB DOS CULTOS AFRO BRAS    30081915 000034
21300820190000000000500                                                                                                                                                                                                                                                                                                                                                                                   000035
10231987175000168817800093673    000053498                    000534980000000000000109                     I0153498     30081900000000250003410000017N020819105700000000000833008190000000000000000000000000000000000000000100000162439784JAIR ALVES DA COSTA                     RUA DONATON 857,                        SANTO ELIAS 26562130MESQUITA       RJUNIAO UMB DOS CULTOS AFRO BRAS    30081915 000036
21300820190000000000500                                                                                                                                                                                                                                                                                                                                                                                   000037
10231987175000168817800093673    000053497                    000534970000000000000109                     I0153497     30081900000000250003410000017N020819105700000000000833008190000000000000000000000000000000000000000100080962190730NILCE TAVARES DA SILVA                  ESTRADA DO ZEPELINN 16, RUA 9           SANTA CRUZ  23555220RIO DE JANEIRO RJUNIAO UMB DOS CULTOS AFRO BRAS    30081915 000038
21300820190000000000500                                                                                                                                                                                                                                                                                                                                                                                   000039
10231987175000168817800093673    000053496                    000534960000000000000109                     I0153496     30081900000000250003410000017N020819105700000000000833008190000000000000000000000000000000000000000100011341119750ELAINE BARBOSA DOS SANTOS               ESTRADA DO BARRO VERMELHO N 784,        ROCHA MIRAND21540500RIO DE JANEIRO RJUNIAO UMB DOS CULTOS AFRO BRAS    30081915 000040
21300820190000000000500                                                                                                                                                                                                                                                                                                                                                                                   000041
10231987175000168817800093673    000053495                    000534950000000000000109                     I0153495     30081900000000250003410000017N020819105700000000000833008190000000000000000000000000000000000000000100005200515726DEBORA TEOFILO                          RUA ESPERANCA N 18,                     VILA MORETI 21862520BANGU          RJUNIAO UMB DOS CULTOS AFRO BRAS    30081915 000042
21300820190000000000500                                                                                                                                                                                                                                                                                                                                                                                   000043
10231987175000168817800093673    000053494                    000534940000000000000109                     I0153494     30081900000000250003410000017N020819105700000000000833008190000000000000000000000000000000000000000100013951492759DIEGO DOS SANTOS SA                     RUA AMETISTASN 0, LOTE 16 QUADRA E      PIABAS      26315170QUEIMADOS      RJUNIAO UMB DOS CULTOS AFRO BRAS    30081915 000044
21300820190000000000500                                                                                                                                                                                                                                                                                                                                                                                   000045
10231987175000168817800093673    000053493                    000534930000000000000109                     I0153493     30081900000000250003410000017N020819105700000000000833008190000000000000000000000000000000000000000100011964838762CARLOS RENNAN CORREIA BORGES            RUA AMERICA DOURADAN 0, LOTE 8 QUADRA 34CAMPO GRANDE23088240RIO DE JANEIRO RJUNIAO UMB DOS CULTOS AFRO BRAS    30081915 000046
21300820190000000000500                                                                                                                                                                                                                                                                                                                                                                                   000047
10231987175000168817800093673    000053492                    000534920000000000000109                     I0153492     30081900000000250003410000017N020819105700000000000833008190000000000000000000000000000000000000000100011066424730CARMEZIA GOMES MORAIS DOS SANT          RUA ALBERTO AUGUSTON 713, FIGUEIRA      FIGUEIRA    25927890MAGE           RJUNIAO UMB DOS CULTOS AFRO BRAS    30081915 000048
21300820190000000000500                                                                                                                                                                                                                                                                                                                                                                                   000049
10231987175000168817800093673    000053491                    000534910000000000000109                     I0153491     30081900000000250003410000017N020819105700000000000833008190000000000000000000000000000000000000000100009435729754ANDREA DE SOUZA SOARES                  AVENIDA DOISN 0, QUADRA 248 LOTE 25 - IPMAUA        25900001MAGE           RJUNIAO UMB DOS CULTOS AFRO BRAS    30081915 000050
21300820190000000000500                                                                                                                                                                                                                                                                                                                                                                                   000051
10231987175000168817800093673    000053490                    000534900000000000000109                     I0153490     30081900000000250003410000017N020819105700000000000833008190000000000000000000000000000000000000000100009932971707LUCIENE DA GLORIA SILVA DOS SA          TRAVESSA AREALVAN 23,                   SEPETIBA    23535048RIO DE JANEIRO RJUNIAO UMB DOS CULTOS AFRO BRAS    30081915 000052
21300820190000000000500                                                                                                                                                                                                                                                                                                                                                                                   000053
10231987175000168817800093673    000053489                    000534890000000000000109                     I0153489     30081900000000250003410000017N020819105700000000000833008190000000000000000000000000000000000000000100068078692749ELIZABETH LOBAO GALHARDO                TRAVESSA AREALVA N 23,                  SEPETIBA    23535048RIO DE JANEIRO RJUNIAO UMB DOS CULTOS AFRO BRAS    30081915 000054
21300820190000000000500                                                                                                                                                                                                                                                                                                                                                                                   000055
10231987175000168817800093673    000053488                    000534880000000000000109                     I0153488     30081900000000250003410000017N020819105700000000000833008190000000000000000000000000000000000000000100008519835708CLAUDIO BRUNO LIMA ALVES                RUA CARLINAN 81, APT 202                OLARIA      21021360RIO DE JANEIRO RJUNIAO UMB DOS CULTOS AFRO BRAS    30081915 000056
21300820190000000000500                                                                                                                                                                                                                                                                                                                                                                                   000057
10231987175000168817800093673    000053487                    000534870000000000000109                     I0153487     30081900000000250003410000017N020819105700000000000833008190000000000000000000000000000000000000000100007822585738IZANIRA COSTA                           RUA DOUTOR LUIS SOBRALN 301,            TOMAZINHO   25525520SAO JOAO DE MERRJUNIAO UMB DOS CULTOS AFRO BRAS    30081915 000058
21300820190000000000500                                                                                                                                                                                                                                                                                                                                                                                   000059
10231987175000168817800093673    000053486                    000534860000000000000109                     I0153486     30081900000000250003410000017N020819105700000000000833008190000000000000000000000000000000000000000100007919746779CARLOS HENRIQUE DOMINGUES RIOS          RUA JOSE CARLOS DA SILVAN 180, FUNDOS   ITANHANGA   22753050RIO DE JANEIRO RJUNIAO UMB DOS CULTOS AFRO BRAS    30081915 000060
21300820190000000000500                                                                                                                                                                                                                                                                                                                                                                                   000061
10231987175000168817800093673    000053485                    000534850000000000000109                     I0153485     30081900000000250003410000017N020819105700000000000833008190000000000000000000000000000000000000000100098981293791ERALDO DE BARROS CABRAL                 RUA JOAQUIM VIEIRAN 68, FRENTE          LOTEAMENTO N28990000SAQUAREMA      RJUNIAO UMB DOS CULTOS AFRO BRAS    30081915 000062
21300820190000000000500                                                                                                                                                                                                                                                                                                                                                                                   000063
10231987175000168817800093673    000053484                    000534840000000000000109                     I0153484     30081900000000250003410000017N020819105700000000000833008190000000000000000000000000000000000000000100009961638751ROSILENE SANTOS                         RUA ESPERANCA N 28,                     SAO BENTO   25045034DUQUE DE CAXIASRJUNIAO UMB DOS CULTOS AFRO BRAS    30081915 000064
21300820190000000000500                                                                                                                                                                                                                                                                                                                                                                                   000065
10231987175000168817800093673    000053483                    000534830000000000000109                     I0153483     30081900000000250003410000017N020819105700000000000833008190000000000000000000000000000000000000000100009000078776ILEUZA DE OLIVEIRA LEITE SILVA          RUA ARARUAMA N 288, CASA 7              BANGU       21862050RIO DE JANEIRO RJUNIAO UMB DOS CULTOS AFRO BRAS    30081915 000066
21300820190000000000500                                                                                                                                                                                                                                                                                                                                                                                   000067
10231987175000168817800093673    000053482                    000534820000000000000109                     I0153482     30081900000000250003410000017N020819105700000000000833008190000000000000000000000000000000000000000100010880272708FERNANDA DOS SANTOS PEREIRA             RUA LINS DE VASCONCELOSN 593,           LINS DE VASC20710130RIO DE JANEIRO RJUNIAO UMB DOS CULTOS AFRO BRAS    30081915 000068
21300820190000000000500                                                                                                                                                                                                                                                                                                                                                                                   000069
10231987175000168817800093673    000053481                    000534810000000000000109                     I0153481     30081900000000250003410000017N020819105700000000000833008190000000000000000000000000000000000000000100090100328768VANDA DA SILVA MARQUES                  RUA TAIUVAN 117, FUNDOS                 PADRE MIGUEL21775450RIO DE JANEIRO RJUNIAO UMB DOS CULTOS AFRO BRAS    30081915 000070
21300820190000000000500                                                                                                                                                                                                                                                                                                                                                                                   000071
10231987175000168817800093673    000053480                    000534800000000000000109                     I0153480     30081900000000250003410000017N020819105700000000000833008190000000000000000000000000000000000000000100007186292720RENATO GONCALVES DUARTE                 RUA CORONEL ALBERTO DE MELLON 113,      CENTENARIO  25030150DUQUE DE CAXIASRJUNIAO UMB DOS CULTOS AFRO BRAS    30081915 000072
21300820190000000000500                                                                                                                                                                                                                                                                                                                                                                                   000073
10231987175000168817800093673    000053479                    000534790000000000000109                     I0153479     30081900000000250003410000017N020819105700000000000833008190000000000000000000000000000000000000000100010010658750ANA PAULA SANTOS DE JESUS               RUA PIRAQUARA N 154,                    REALENGO    21755271RIO DE JANEIRO RJUNIAO UMB DOS CULTOS AFRO BRAS    30081915 000074
21300820190000000000500                                                                                                                                                                                                                                                                                                                                                                                   000075
10231987175000168817800093673    000053478                    000534780000000000000109                     I0153478     30081900000000250003410000017N020819105700000000000833008190000000000000000000000000000000000000000100098728750730LUIZ HENRIQUE PEREIRA                   AVENIDA DOUTOR EUGENIO BORGES N 1693, CAARSENAL     24755451SAO GONCALO    RJUNIAO UMB DOS CULTOS AFRO BRAS    30081915 000076
21300820190000000000500                                                                                                                                                                                                                                                                                                                                                                                   000077
10231987175000168817800093673    000053477                    000534770000000000000109                     I0153477     30081900000000250003410000017N020819105700000000000833008190000000000000000000000000000000000000000100003761504756SILVINA PEREIRA DE JESUS                RUA CINQUENTA E SEISN 203,              SEPETIBA    23520090RIO DE JANEIRO RJUNIAO UMB DOS CULTOS AFRO BRAS    30081915 000078
21300820190000000000500                                                                                                                                                                                                                                                                                                                                                                                   000079
10231987175000168817800093673    000053476                    000534760000000000000109                     I0153476     30081900000000250003410000017N020819105700000000000833008190000000000000000000000000000000000000000100002150713799JANAINA REZENDE                         RUA CINQUENTA E SEIS N 272,             SEPETIBA    23547090RIO DE JANEIRO RJUNIAO UMB DOS CULTOS AFRO BRAS    30081915 000080
21300820190000000000500                                                                                                                                                                                                                                                                                                                                                                                   000081
10231987175000168817800093673    000053475                    000534750000000000000109                     I0153475     30081900000000250003410000017N020819105700000000000833008190000000000000000000000000000000000000000100089823753768MARIA JOSE DA ROCHA NOBREGA             RUA DOS LIRIOSN 2, CASA                 SHANGRILA   26150071BELFORD ROXO   RJUNIAO UMB DOS CULTOS AFRO BRAS    30081915 000082
21300820190000000000500                                                                                                                                                                                                                                                                                                                                                                                   000083
10231987175000168817800093673    000053474                    000534740000000000000109                     I0153474     30081900000000250003410000017N020819105700000000000833008190000000000000000000000000000000000000000100005714208773CINTIA DO NASCIMENTO SILVA              RUA UMN 0, LOTE 8 QUADRA D              SEPETIBA    23545003RIO DE JANEIRO RJUNIAO UMB DOS CULTOS AFRO BRAS    30081915 000084
21300820190000000000500                                                                                                                                                                                                                                                                                                                                                                                   000085
10231987175000168817800093673    000053473                    000534730000000000000109                     I0153473     30081900000000250003410000017N020819105700000000000833008190000000000000000000000000000000000000000100001110109776ROSA CRISTINA GOMES                     RUA FEIRA DE SANTANAN 0,  QUADRA 7 LOTE PARQUE NOVO 25585100SAO JOAO DE MERRJUNIAO UMB DOS CULTOS AFRO BRAS    30081915 000086
21300820190000000000500                                                                                                                                                                                                                                                                                                                                                                                   000087
10231987175000168817800093673    000053472                    000534720000000000000109                     I0153472     30081900000000250003410000017N020819105700000000000833008190000000000000000000000000000000000000000100009822722788FABIANA DA CONCEICAO GONZAGA            RUA MARTINS JUNIOR N 403,               PALHADA     26290171NOVA IGUACU    RJUNIAO UMB DOS CULTOS AFRO BRAS    30081915 000088
21300820190000000000500                                                                                                                                                                                                                                                                                                                                                                                   000089
10231987175000168817800093673    000053471                    000534710000000000000109                     I0153471     30081900000000250003410000017N020819105700000000000833008190000000000000000000000000000000000000000100059905093753ROBERTO THIAGO GARCIA GONCALVE          RUA SOLDADO CONSTANTINO MAROQUEN 0, QUADGUARATIBA   23025170RIO DE JANEIRO RJUNIAO UMB DOS CULTOS AFRO BRAS    30081915 000090
21300820190000000000500                                                                                                                                                                                                                                                                                                                                                                                   000091
10231987175000168817800093673    000053470                    000534700000000000000109                     I0153470     30081900000000250003410000017N020819105700000000000833008190000000000000000000000000000000000000000100053887085787MARIA WALKIRIA DA SILVA                 RUA JEREMIAS N 0, LOTE 21 QUADRA 14     CAMPO ALEGRE26292254NOVA IGUACU    RJUNIAO UMB DOS CULTOS AFRO BRAS    30081915 000092
21300820190000000000500                                                                                                                                                                                                                                                                                                                                                                                   000093
10231987175000168817800093673    000053469                    000534690000000000000109                     I0153469     30081900000000250003410000017N020819105700000000000833008190000000000000000000000000000000000000000100017125958737RICHARDSON DIAS FERREIRA                RUA  SAO JOAO DA BARRA  N 49,           PARQUE LAFAI25025170DUQUE DE CAXIASRJUNIAO UMB DOS CULTOS AFRO BRAS    30081915 000094
21300820190000000000500                                                                                                                                                                                                                                                                                                                                                                                   000095
10231987175000168817800093673    000053468                    000534680000000000000109                     I0153468     30081900000000250003410000017N020819105700000000000833008190000000000000000000000000000000000000000100001175214779ALTAIR JORGE SOARES VIEIRA              RUA ENGENHEIRO ARARIPE N 104,           LAGOINHA    26296588NOVA IGUACU    RJUNIAO UMB DOS CULTOS AFRO BRAS    30081915 000096
21300820190000000000500                                                                                                                                                                                                                                                                                                                                                                                   000097
10231987175000168817800093673    000053467                    000534670000000000000109                     I0153467     30081900000000250003410000017N020819105700000000000833008190000000000000000000000000000000000000000100068680074772VANIA MARIA DE SOUZA PRADO              RUA TANGIN 0, QUADRA C LOTE 19          PARQUE REAL 26175025BELFORD ROXO   RJUNIAO UMB DOS CULTOS AFRO BRAS    30081915 000098
21300820190000000000500                                                                                                                                                                                                                                                                                                                                                                                   000099
10231987175000168817800093673    000053466                    000534660000000000000109                     I0153466     30081900000000250003410000017N020819105700000000000833008190000000000000000000000000000000000000000100005430478733JULIANO COELHO BRAGA                    TRAVESSA MORAES  N 76, A FUNDOS         REALENGO    21710280RIO DE JANEIRO RJUNIAO UMB DOS CULTOS AFRO BRAS    30081915 000100
21300820190000000000500                                                                                                                                                                                                                                                                                                                                                                                   000101
10231987175000168817800093673    000053465                    000534650000000000000109                     I0153465     30081900000000250003410000017N020819105700000000000833008190000000000000000000000000000000000000000100084290951791ZUELI DA SILVA                          RUA JOSE MARIO FERREIRAN 64,            COIMBRA     27115180BARRA DO PIRAI RJUNIAO UMB DOS CULTOS AFRO BRAS    30081915 000102
21300820190000000000500                                                                                                                                                                                                                                                                                                                                                                                   000103
10231987175000168817800093673    000053464                    000534640000000000000109                     I0153464     30081900000000250003410000017N020819105700000000000833008190000000000000000000000000000000000000000100014326136774CAIO CESAR LIMA DA CRUZ                 RUA QUINTINO BOCAIUVAN 349,             NOVA CIDADE 26535130NILOPOLIS      RJUNIAO UMB DOS CULTOS AFRO BRAS    30081915 000104
21300820190000000000500                                                                                                                                                                                                                                                                                                                                                                                   000105
10231987175000168817800093673    000053463                    000534630000000000000109                     I0153463     30081900000000250003410000017N020819105700000000000833008190000000000000000000000000000000000000000100000556390709ANNA MENDONCA BORGES                    RUA IN 1089, LOTEAMENTO SAO SEBASTIAO   FRAGOSO     25935486MAGE           RJUNIAO UMB DOS CULTOS AFRO BRAS    30081915 000106
21300820190000000000500                                                                                                                                                                                                                                                                                                                                                                                   000107
10231987175000168817800093673    000053462                    000534620000000000000109                     I0153462     30081900000000250003410000017N020819105700000000000833008190000000000000000000000000000000000000000100044331762734ELMA HONORIA DAS NEVES                  RUA CORREIA DIASN 1052, CASA 6          VIGARIO GERA21660050RIO DE JANEIRO RJUNIAO UMB DOS CULTOS AFRO BRAS    30081915 000108
21300820190000000000500                                                                                                                                                                                                                                                                                                                                                                                   000109
10231987175000168817800093673    000053461                    000534610000000000000109                     I0153461     30081900000000250003410000017N020819105700000000000833008190000000000000000000000000000000000000000100062820125700LUIS AFONSO DOS SANTOS                  RUA RETIRO FELIZN 2,                    PARQUE AIDA 26193020BELFORD ROXO   RJUNIAO UMB DOS CULTOS AFRO BRAS    30081915 000110
21300820190000000000500                                                                                                                                                                                                                                                                                                                                                                                   000111
10231987175000168817800093673    000053460                    000534600000000000000109                     I0153460     30081900000000250003410000017N020819105700000000000833008190000000000000000000000000000000000000000100002945103702LUANDA DO NASCIMENTO DO CARMO           RUA IBOTIRAMA N 23,                     COLEGIO     21545350RIO DE JANEIRO RJUNIAO UMB DOS CULTOS AFRO BRAS    30081915 000112
21300820190000000000500                                                                                                                                                                                                                                                                                                                                                                                   000113
10231987175000168817800093673    000053459                    000534590000000000000109                     I0153459     30081900000000250003410000017N020819105700000000000833008190000000000000000000000000000000000000000100003350774717ROGERIO SILVA DE SOUZA                  RUA TACARATUN 118,                      ROCHA MIRAND21555010RIO DE JANEIRO RJUNIAO UMB DOS CULTOS AFRO BRAS    30081915 000114
21300820190000000000500                                                                                                                                                                                                                                                                                                                                                                                   000115
10231987175000168817800093673    000053458                    000534580000000000000109                     I0153458     30081900000000250003410000017N020819105700000000000833008190000000000000000000000000000000000000000100008612394740SEBASTIAO PORTES NETO                   RUA MARIETAN 451,                       PARQUE SAO N25530093SAO JOAO DE MERRJUNIAO UMB DOS CULTOS AFRO BRAS    30081915 000116
21300820190000000000500                                                                                                                                                                                                                                                                                                                                                                                   000117
10231987175000168817800093673    000053457                    000534570000000000000109                     I0153457     30081900000000250003410000017N020819105700000000000833008190000000000000000000000000000000000000000100071573089753TANIA REGINA DOS SANTOS MOREIR          RUA MARMIARIN 615,                      SENADOR CAMA21831000RIO DE JANEIRO RJUNIAO UMB DOS CULTOS AFRO BRAS    30081915 000118
21300820190000000000500                                                                                                                                                                                                                                                                                                                                                                                   000119
10231987175000168817800093673    000053456                    000534560000000000000109                     I0153456     30081900000000250003410000017N020819105700000000000833008190000000000000000000000000000000000000000100059744510749ANGELA REGINA ROSA DE SA                RUA SUEZN 174, KM 35                    BOM JESUS   26298180NOVA IGUACU    RJUNIAO UMB DOS CULTOS AFRO BRAS    30081915 000120
21300820190000000000500                                                                                                                                                                                                                                                                                                                                                                                   000121
10231987175000168817800093673    000053455                    000534550000000000000109                     I0153455     30081900000000250003410000017N020819105700000000000833008190000000000000000000000000000000000000000100053702190791MARIA LUCIA SANTOS DO NASCIMEN          RUA SUEZN 325, KM 35                    BOM JESUS   26298180NOVA IGUACU    RJUNIAO UMB DOS CULTOS AFRO BRAS    30081915 000122
21300820190000000000500                                                                                                                                                                                                                                                                                                                                                                                   000123
10231987175000168817800093673    000053454                    000534540000000000000109                     I0153454     30081900000000250003410000017N020819105700000000000833008190000000000000000000000000000000000000000100003254238494VANIA BARROS FERREIRA                   RUA VERONICA MARIA N 0, LOTE 9 QUADRA 10VALVERDE    26290177NOVA IGUACU    RJUNIAO UMB DOS CULTOS AFRO BRAS    30081915 000124
21300820190000000000500                                                                                                                                                                                                                                                                                                                                                                                   000125
10231987175000168817800093673    000053453                    000534530000000000000109                     I0153453     30081900000000250003410000017N020819105700000000000833008190000000000000000000000000000000000000000100001427686777CARLOS DE PAULA SILVA                   RUA VERONICA MARIA N 0,  9 QUADRA 10LOTEVALVERDE    26290177NOVA IGUACU    RJUNIAO UMB DOS CULTOS AFRO BRAS    30081915 000126
21300820190000000000500                                                                                                                                                                                                                                                                                                                                                                                   000127
10231987175000168817800093673    000053452                    000534520000000000000109                     I0153452     30081900000000250003410000017N020819105700000000000833008190000000000000000000000000000000000000000100009168799764JANAINA BEMVINDO DOS SANTOS             RUA NOVA OLINDA N 42, FRENTE            PAVUNA      21520040RIO DE JANEIRO RJUNIAO UMB DOS CULTOS AFRO BRAS    30081915 000128
21300820190000000000500                                                                                                                                                                                                                                                                                                                                                                                   000129
10231987175000168817800093673    000053451                    000534510000000000000109                     I0153451     30081900000000250003410000017N020819105700000000000833008190000000000000000000000000000000000000000100011867233789RODRIGO MAXIMO CAVALCANTI DE M          RUA DAS PALMEIRAS  N 35, NOVA CIDADE - ICAMPO GRANDE23064050RIO DE JANEIRO RJUNIAO UMB DOS CULTOS AFRO BRAS    30081915 000130
21300820190000000000500                                                                                                                                                                                                                                                                                                                                                                                   000131
10231987175000168817800093673    000053450                    000534500000000000000109                     I0153450     30081900000000250003410000017N020819105700000000000833008190000000000000000000000000000000000000000100097310832787ANTONIO REGINALDO CAMPOS DE LI          RUA GALVANO SALVATORE N 145,            KAONZE      26250250NOVA IGUACU    RJUNIAO UMB DOS CULTOS AFRO BRAS    30081915 000132
21300820190000000000500                                                                                                                                                                                                                                                                                                                                                                                   000133
10231987175000168817800093673    000053449                    000534490000000000000109                     I0153449     30081900000000250003410000017N020819105700000000000833008190000000000000000000000000000000000000000100004139501740ANDREA DE ARAUJO CERQUEIRA PES          RUA MARIO DE ARAUJO N 1717,             NILOPOLIS   26521130RIO DE JANEIRO RJUNIAO UMB DOS CULTOS AFRO BRAS    30081915 000134
21300820190000000000500                                                                                                                                                                                                                                                                                                                                                                                   000135
10231987175000168817800093673    000053448                    000534480000000000000109                     I0153448     30081900000000250003410000017N020819105700000000000833008190000000000000000000000000000000000000000100008532905714NUBIA SILVA DA FONSECA                  RUA BRUNO DE OLIVEIRA MARZULON 54,      VAL VERDE   26290798NOVA IGUACU    RJUNIAO UMB DOS CULTOS AFRO BRAS    30081915 000136
21300820190000000000500                                                                                                                                                                                                                                                                                                                                                                                   000137
10231987175000168817800093673    000053447                    000534470000000000000109                     I0153447     30081900000000250003410000017N020819105700000000000833008190000000000000000000000000000000000000000100063930773791GERMANO ROSEMBERG                       RUA DOUTOR TABAJARA DE ARAUJO GAMAN 694,PIRATININGA 24350694NITEROI        RJUNIAO UMB DOS CULTOS AFRO BRAS    30081915 000138
21300820190000000000500                                                                                                                                                                                                                                                                                                                                                                                   000139
10231987175000168817800093673    000053446                    000534460000000000000109                     I0153446     30081900000000250003410000017N020819105700000000000833008190000000000000000000000000000000000000000100000923867767DENILSON GODOI DE ARAUJO                RUA CARAJASN 63, CASA 3                 VILA SAO LUI26140520BELFORD ROXO   RJUNIAO UMB DOS CULTOS AFRO BRAS    30081915 000140
21300820190000000000500                                                                                                                                                                                                                                                                                                                                                                                   000141
10231987175000168817800093673    000053445                    000534450000000000000109                     I0153445     30081900000000250003410000017N020819105700000000000833008190000000000000000000000000000000000000000100012307230726JULIO CESAR OURIQUE DA SILVA            RUA BARAO SANTO ANGELON 248, APT¬∫ 201  ENGENHO DE D20720000RIO DE JANEIRO RJUNIAO UMB DOS CULTOS AFRO BRAS    30081915 000142
21300820190000000000500                                                                                                                                                                                                                                                                                                                                                                                   000143
10231987175000168817800093673    000053444                    000534440000000000000109                     I0153444     30081900000000250003410000017N020819105700000000000833008190000000000000000000000000000000000000000100015137144738RAFAEL NUNES ALVES SALSA                RUA PUIPEN 123,                         BENTO RIBEIR21550420RIO DE JANEIRO RJUNIAO UMB DOS CULTOS AFRO BRAS    30081915 000144
21300820190000000000500                                                                                                                                                                                                                                                                                                                                                                                   000145
10231987175000168817800093673    000053443                    000534430000000000000109                     I0153443     30081900000000250003410000017N020819105700000000000833008190000000000000000000000000000000000000000100062947737768MARIA AIDE SILVA VICTORIANO DE          RUA PIRAQUARAN 705, B                   REALENGO    21755270RIO DE JANEIRO RJUNIAO UMB DOS CULTOS AFRO BRAS    30081915 000146
21300820190000000000500                                                                                                                                                                                                                                                                                                                                                                                   000147
10231987175000168817800093673    000053442                    000534420000000000000109                     I0153442     30081900000000250003410000017N020819105700000000000833008190000000000000000000000000000000000000000100001156424712VANUSIA DOS SANTOS MOREIRA              AVENIDA JOAO XXIIIN 1900, RUA 25 QUADRA SANTA CRUZ  23560352RIO DE JANEIRO RJUNIAO UMB DOS CULTOS AFRO BRAS    30081915 000148
21300820190000000000500                                                                                                                                                                                                                                                                                                                                                                                   000149
10231987175000168817800093673    000053441                    000534410000000000000109                     I0153441     30081900000000250003410000017N020819105700000000000833008190000000000000000000000000000000000000000100003260245901ARLINDO HOFFMANN JUNIOR                 ESTRADA CIRCULARN 32,                   CHACARA SANT26172100BELFORD ROXO   RJUNIAO UMB DOS CULTOS AFRO BRAS    30081915 000150
21300820190000000000500                                                                                                                                                                                                                                                                                                                                                                                   000151
10231987175000168817800093673    000053440                    000534400000000000000109                     I0153440     30081900000000250003410000017N020819105700000000000833008190000000000000000000000000000000000000000100012045453758SANDRO MARCIO DE OLIVEIRA MART          AVENIDA CAMPO MOURAON 0, QUADRA 97 LOTE GUARATIBA - 23031080RIO DE JANEIRO RJUNIAO UMB DOS CULTOS AFRO BRAS    30081915 000152
21300820190000000000500                                                                                                                                                                                                                                                                                                                                                                                   000153
10231987175000168817800093673    000053439                    000534390000000000000109                     I0153439     30081900000000250003410000017N020819105700000000000833008190000000000000000000000000000000000000000100011929233752ELIETE COUTO DE MEDEIROS                RUA SILVINO DE AZEREDON 26, CASA 4      MIGUEL COUTO26079389NOVA IGUACU    RJUNIAO UMB DOS CULTOS AFRO BRAS    30081915 000154
21300820190000000000500                                                                                                                                                                                                                                                                                                                                                                                   000155
10231987175000168817800093673    000053438                    000534380000000000000109                     I0153438     30081900000000250003410000017N020819105700000000000833008190000000000000000000000000000000000000000100008629571764SILVANA DA COSTA SANTOS                 RUA HN 0, CASA 11 QUADRA 8              BALNEARIO   28940000SAO PEDRO DA ALRJUNIAO UMB DOS CULTOS AFRO BRAS    30081915 000156
21300820190000000000500                                                                                                                                                                                                                                                                                                                                                                                   000157
10231987175000168817800093673    000053437                    000534370000000000000109                     I0153437     30081900000000250003410000017N020819105700000000000833008190000000000000000000000000000000000000000100013848361795VICTOR ALEXANDRE MAGHELLY G. D          RUA AQUIBADAN 0, LOTE 25 QUADRA 19      CAMPO ALEGRE26292171NOVA IGUACU    RJUNIAO UMB DOS CULTOS AFRO BRAS    30081915 000158
21300820190000000000500                                                                                                                                                                                                                                                                                                                                                                                   000159
10231987175000168817800093673    000053436                    000534360000000000000109                     I0153436     30081900000000250003410000017N020819105700000000000833008190000000000000000000000000000000000000000100058684522400JOSE RICARDO LIMA DE ALMEIDA            RUA MALHERBE N 0, LOTE 28 QUADRA 139    PARQUE PAULI25261440DUQUE DE CAXIASRJUNIAO UMB DOS CULTOS AFRO BRAS    30081915 000160
21300820190000000000500                                                                                                                                                                                                                                                                                                                                                                                   000161
10231987175000168817800093673    000053435                    000534350000000000000109                     I0153435     30081900000000250003410000017N020819105700000000000833008190000000000000000000000000000000000000000100011328857794CARLOS ALEXANDRE DOS SANTOS CA          RUA CARDEAL N 0, LOTE 6 QUADRA 19       RETIRO FELIZ26167560BELFORD ROXO   RJUNIAO UMB DOS CULTOS AFRO BRAS    30081915 000162
21300820190000000000500                                                                                                                                                                                                                                                                                                                                                                                   000163
10231987175000168817800093673    000053434                    000534340000000000000109                     I0153434     30081900000000250003410000017N020819105700000000000833008190000000000000000000000000000000000000000100002716772797WASHINGTON FERNANDES SABOYA             ESTRADA BELFORD ROXON 0, LOTE 3 QUADRA BJARDIM BOM P26110260BELFORD ROXO   RJUNIAO UMB DOS CULTOS AFRO BRAS    30081915 000164
21300820190000000000500                                                                                                                                                                                                                                                                                                                                                                                   000165
10231987175000168817800093673    000053433                    000534330000000000000109                     I0153433     30081900000000250003410000017N020819105700000000000833008190000000000000000000000000000000000000000100061015733700WILMA SEVERO DOS SANTOS                 RUA JABUTI N 220, FUNDOS                BRAZ DE PINA21215330RIO DE JANEIRO RJUNIAO UMB DOS CULTOS AFRO BRAS    30081915 000166
21300820190000000000500                                                                                                                                                                                                                                                                                                                                                                                   000167
10231987175000168817800093673    000053432                    000534320000000000000109                     I0153432     30081900000000250003410000017N020819105700000000000833008190000000000000000000000000000000000000000100002875690710KARLA MARIA QUEIROGA MARTINS            RUA PEREIRA DA COSTAN 18, FUNDOS        MADUREIRA   21360270RIO DE JANEIRO RJUNIAO UMB DOS CULTOS AFRO BRAS    30081915 000168
21300820190000000000500                                                                                                                                                                                                                                                                                                                                                                                   000169
10231987175000168817800093673    000053431                    000534310000000000000109                     I0153431     30081900000000250003410000017N020819105700000000000833008190000000000000000000000000000000000000000100005676270713CYONIL WILLIAM RODRIGUES BORGE          RUA: TAVARES DE MACEDON 0,  LOTE 3 QUADRIMBARIE - PA25275320DUQUE DE CAXIASRJUNIAO UMB DOS CULTOS AFRO BRAS    30081915 000170
21300820190000000000500                                                                                                                                                                                                                                                                                                                                                                                   000171
10231987175000168817800093673    000053430                    000534300000000000000109                     I0153430     30081900000000250003410000017N020819105700000000000833008190000000000000000000000000000000000000000100011221383779PAULO RICARDO DE ALMEIDA CAETA          RUA REVERENDO DANIEL SOARES BONFIMN 1000SANTA BARBAR24141500NITEROI        RJUNIAO UMB DOS CULTOS AFRO BRAS    30081915 000172
21300820190000000000500                                                                                                                                                                                                                                                                                                                                                                                   000173
10231987175000168817800093673    000053429                    000534290000000000000109                     I0153429     30081900000000250003410000017N020819105700000000000833008190000000000000000000000000000000000000000100050600567753MARIA JOSE DA SILVA                     RUA JULIETAN 7, APTO 201                PIEDADE     20751440RIO DE JANEIRO RJUNIAO UMB DOS CULTOS AFRO BRAS    30081915 000174
21300820190000000000500                                                                                                                                                                                                                                                                                                                                                                                   000175
10231987175000168817800093673    000053428                    000534280000000000000109                     I0153428     30081900000000250003410000017N020819105700000000000833008190000000000000000000000000000000000000000100005940327761FLAVIO RIBEIRO FRUCTUOSO                RUA PARA N 0, QUADRA 29 LOTE 10         VALE DAS MAN26170370BELFORD ROXO   RJUNIAO UMB DOS CULTOS AFRO BRAS    30081915 000176
21300820190000000000500                                                                                                                                                                                                                                                                                                                                                                                   000177
10231987175000168817800093673    000053427                    000534270000000000000109                     I0153427     30081900000000250003410000017N020819105700000000000833008190000000000000000000000000000000000000000100004245693703JONETE DA SILVA FRANCISCO               RUA MOZART FIRMESAN 20, COBERTURA 303   RECREIO     22795365RIO DE JANEIRO RJUNIAO UMB DOS CULTOS AFRO BRAS    30081915 000178
21300820190000000000500                                                                                                                                                                                                                                                                                                                                                                                   000179
10231987175000168817800093673    000053426                    000534260000000000000109                     I0153426     30081900000000250003410000017N020819105700000000000833008190000000000000000000000000000000000000000100069296715415VANDA FEIJO DE MELO DE CASTRO           RUA DOUTOR GARNIERN 687, CASA 2         ROCHA       20975000RIO DE JANEIRO RJUNIAO UMB DOS CULTOS AFRO BRAS    30081915 000180
21300820190000000000500                                                                                                                                                                                                                                                                                                                                                                                   000181
10231987175000168817800093673    000053425                    000534250000000000000109                     I0153425     30081900000000250003410000017N020819105700000000000833008190000000000000000000000000000000000000000100035750553787SUELY PINHEIRO DA SILVA                 RUA MARILENE VIEIRA DE ASSISN 850, FUNDOVILA MARIA H25251500DUQUE DE CAXIASRJUNIAO UMB DOS CULTOS AFRO BRAS    30081915 000182
21300820190000000000500                                                                                                                                                                                                                                                                                                                                                                                   000183
10231987175000168817800093673    000053424                    000534240000000000000109                     I0153424     30081900000000250003410000017N020819105700000000000833008190000000000000000000000000000000000000000100014539480740MILLER REZENDE DE SA                    RUA TANGIN 0, LOTE 19 -  PARQUE REAL    PARQUE REAL 26175025BELFORD ROXO   RJUNIAO UMB DOS CULTOS AFRO BRAS    30081915 000184
21300820190000000000500                                                                                                                                                                                                                                                                                                                                                                                   000185
10231987175000168817800093673    000053423                    000534230000000000000109                     I0153423     30081900000000250003410000017N020819105700000000000833008190000000000000000000000000000000000000000100005451961751SANDRO DO NASCIMENTO DA SILVA           ESTRADA DO FURADO N 0, QUADRA 1 LOTE 20 PALMARES    23066260RIO DE JANEIRO RJUNIAO UMB DOS CULTOS AFRO BRAS    30081915 000186
21300820190000000000500                                                                                                                                                                                                                                                                                                                                                                                   000187
10231987175000168817800093673    000053422                    000534220000000000000109                     I0153422     30081900000000250003410000017N020819105700000000000833008190000000000000000000000000000000000000000100075911140772MARCIA FIGUEIREDO DOS SANTOS G          RUA FERNANDO LOBON 571, RUA B QUADRA B CGUADALUPE   21665070RIO DE JANEIRO RJUNIAO UMB DOS CULTOS AFRO BRAS    30081915 000188
21300820190000000000500                                                                                                                                                                                                                                                                                                                                                                                   000189
10231987175000168817800093673    000053421                    000534210000000000000109                     I0153421     30081900000000250003410000017N020819105700000000000833008190000000000000000000000000000000000000000100009969546783WALTER ESTRELLA DOS SANTOS              RUA ALMIRANTE FRANCA N 74,              FIGUEIRAS   26060330NOVA IGUACU    RJUNIAO UMB DOS CULTOS AFRO BRAS    30081915 000190
21300820190000000000500                                                                                                                                                                                                                                                                                                                                                                                   000191
10231987175000168817800093673    000053420                    000534200000000000000109                     I0153420     30081900000000250003410000017N020819105700000000000833008190000000000000000000000000000000000000000100005588241703LEA CRISTINA QUEIROZ DE OLIVEI          RUA MIGUEL TORGAN 21,                   VILA DE CAVA26052580NOVA IGUACU    RJUNIAO UMB DOS CULTOS AFRO BRAS    30081915 000192
21300820190000000000500                                                                                                                                                                                                                                                                                                                                                                                   000193
10231987175000168817800093673    000053419                    000534190000000000000109                     I0153419     30081900000000250003410000017N020819105700000000000833008190000000000000000000000000000000000000000100009522470708PAULO RICARDO SILVA DE SOUZA            RODOVIA RJ 14 N 350,                    MANGARATIBA 23880000RIO DE JANEIRO RJUNIAO UMB DOS CULTOS AFRO BRAS    30081915 000194
21300820190000000000500                                                                                                                                                                                                                                                                                                                                                                                   000195
10231987175000168817800093673    000053418                    000534180000000000000109                     I0153418     30081900000000250003410000017N020819105700000000000833008190000000000000000000000000000000000000000100011037964705DAVID WILIAN DOS SANTOS JORDAO          RUA COMANDANTE GERALDO SAN 329,         PATY DO ALFE26950000RIO DE JANEIRO RJUNIAO UMB DOS CULTOS AFRO BRAS    30081915 000196
21300820190000000000500                                                                                                                                                                                                                                                                                                                                                                                   000197
10231987175000168817800093673    000053417                    000534170000000000000109                     I0153417     30081900000000250003410000017N020819105700000000000833008190000000000000000000000000000000000000000100091615062734LUIZ CARLOS VASCONCELOS                 TRAVESSA JOAQUIM SEVERIANON 84, CASA 1  ROCHA       24421200SAO GONCALO    RJUNIAO UMB DOS CULTOS AFRO BRAS    30081915 000198
21300820190000000000500                                                                                                                                                                                                                                                                                                                                                                                   000199
10231987175000168817800093673    000053416                    000534160000000000000109                     I0153416     30081900000000250003410000017N020819105700000000000833008190000000000000000000000000000000000000000100005368533713DIVALCI COELHO REINALDO                 RUA CEVADAN 17,                         PANTANAL    26297108NOVA IGUACU    RJUNIAO UMB DOS CULTOS AFRO BRAS    30081915 000200
21300820190000000000500                                                                                                                                                                                                                                                                                                                                                                                   000201
10231987175000168817800093673    000053415                    000534150000000000000109                     I0153415     30081900000000250003410000017N020819105700000000000833008190000000000000000000000000000000000000000100001566732743MARCIO HYK BARRETO PINHEIRO             RUA DOUTOR ALFREDO BACKLERN 536, BLOCO 4ALCANTARA   24452001SAO GONCALO    RJUNIAO UMB DOS CULTOS AFRO BRAS    30081915 000202
21300820190000000000500                                                                                                                                                                                                                                                                                                                                                                                   000203
10231987175000168817800093673    000053414                    000534140000000000000109                     I0153414     30081900000000250003410000017N020819105700000000000833008190000000000000000000000000000000000000000100010093629761DANIELLE DO NASCIMENTO NICACIO          ESTRADA DA GRANJAN 100, FRENTE          PALHADA     26290249NOVA IGUACU    RJUNIAO UMB DOS CULTOS AFRO BRAS    30081915 000204
21300820190000000000500                                                                                                                                                                                                                                                                                                                                                                                   000205
10231987175000168817800093673    000053413                    000534130000000000000109                     I0153413     30081900000000250003410000017N020819105700000000000833008190000000000000000000000000000000000000000100085773760797EDIR FERREIRA DA SILVA                  RUA DESEMBARGADOR FERREIRA PINTON 0, LOTVALVERDE    26291078NOVA IGUACU    RJUNIAO UMB DOS CULTOS AFRO BRAS    30081915 000206
21300820190000000000500                                                                                                                                                                                                                                                                                                                                                                                   000207
10231987175000168817800093673    000053412                    000534120000000000000109                     I0153412     30081900000000250003410000017N020819105700000000000833008190000000000000000000000000000000000000000100006264292770MARIZIA SILVA MATHIAS                   RUA SHOYON 129,                         PARAISO     26297117NOVA IGUACU    RJUNIAO UMB DOS CULTOS AFRO BRAS    30081915 000208
21300820190000000000500                                                                                                                                                                                                                                                                                                                                                                                   000209
10231987175000168817800093673    000053411                    000534110000000000000109                     I0153411     30081900000000250003410000017N020819105700000000000833008190000000000000000000000000000000000000000100009963993729LEANDRO DE SOUZA OLIVEIRA               RUA DA MATRIZN 876,                     CENTRO      25525130SAO JOAO DE MERRJUNIAO UMB DOS CULTOS AFRO BRAS    30081915 000210
21300820190000000000500                                                                                                                                                                                                                                                                                                                                                                                   000211
10231987175000168817800093673    000053410                    000534100000000000000109                     I0153410     30081900000000250003410000017N020819105700000000000833008190000000000000000000000000000000000000000100003439982700ANDRE LUIS SANTIAGO DE ALMEIDA          RUA TANGERN 39,                         SANTA CRUZ  23555013RIO DE JANEIRO RJUNIAO UMB DOS CULTOS AFRO BRAS    30081915 000212
21300820190000000000500                                                                                                                                                                                                                                                                                                                                                                                   000213
10231987175000168817800093673    000053409                    000534090000000000000109                     I0153409     30081900000000250003410000017N020819105700000000000833008190000000000000000000000000000000000000000100000338518754EDUARDO LUIS E SILVA COIMBRA            RUA DOS INVALIDOSN 138,  BLOCO 1 APTO 20LAPA        20231046RIO DE JANEIRO RJUNIAO UMB DOS CULTOS AFRO BRAS    30081915 000214
21300820190000000000500                                                                                                                                                                                                                                                                                                                                                                                   000215
10231987175000168817800093673    000053408                    000534080000000000000109                     I0153408     30081900000000250003410000017N020819105700000000000833008190000000000000000000000000000000000000000100001863222758CLAUDIA LIMA PEREIRA                    RUA SOLDADO ANDRE RIBEIRON 126,         CASCADURA   21380040RIO DE JANEIRO RJUNIAO UMB DOS CULTOS AFRO BRAS    30081915 000216
21300820190000000000500                                                                                                                                                                                                                                                                                                                                                                                   000217
10231987175000168817800093673    000053407                    000534070000000000000109                     I0153407     30081900000000250003410000017N020819105700000000000833008190000000000000000000000000000000000000000100081905530706ALBERTO DINIZ RODRIGUES GABRIE          RUA AGAIN 0, QUADRA 38 LOTE 14          PACIENCIA   23065620RIO DE JANEIRO RJUNIAO UMB DOS CULTOS AFRO BRAS    30081915 000218
21300820190000000000500                                                                                                                                                                                                                                                                                                                                                                                   000219
10231987175000168817800093673    000053406                    000534060000000000000109                     I0153406     30081900000000250003410000017N020819105700000000000833008190000000000000000000000000000000000000000100080196853753SONIA REGINA MACHADO DE SOUSA           RUA PALMIRO ALVESN 124,                 BANGU       21825100RIO DE JANEIRO RJUNIAO UMB DOS CULTOS AFRO BRAS    30081915 000220
21300820190000000000500                                                                                                                                                                                                                                                                                                                                                                                   000221
10231987175000168817800093673    000053405                    000534050000000000000109                     I0153405     30081900000000250003410000017N020819105700000000000833008190000000000000000000000000000000000000000100006161626187ELADIO TENORIO DA SILVA                 PRACA PRESIDENTE AGUIRRE CERDAN 16, APT¬CENTRO      20240200RIO DE JANEIRO RJUNIAO UMB DOS CULTOS AFRO BRAS    30081915 000222
21300820190000000000500                                                                                                                                                                                                                                                                                                                                                                                   000223
10231987175000168817800093673    000053404                    000534040000000000000109                     I0153404     30081900000000250003410000017N020819105700000000000833008190000000000000000000000000000000000000000100009510658740ANDERSON RODRIGUES DOS REIS             RUA TOMAS FONSECA N 1120,               CERAMICA    26031512NOVA IGUACU    RJUNIAO UMB DOS CULTOS AFRO BRAS    30081915 000224
21300820190000000000500                                                                                                                                                                                                                                                                                                                                                                                   000225
10231987175000168817800093673    000053403                    000534030000000000000109                     I0153403     30081900000000250003410000017N020819105700000000000833008190000000000000000000000000000000000000000100011225339774HERALDO LAGE DA LUZ JUNIOR              RUA BARDANAN 539, A                     NOVO JARDIM 26297057NOVA IGUACU    RJUNIAO UMB DOS CULTOS AFRO BRAS    30081915 000226
21300820190000000000500                                                                                                                                                                                                                                                                                                                                                                                   000227
10231987175000168817800093673    000053402                    000534020000000000000109                     I0153402     30081900000000250003410000017N020819105700000000000833008190000000000000000000000000000000000000000100049630903768ADELSON MARIANO PEREIRA                 ESTRADA SAO DOMINGOS SAVION 868,  RUA C SANTA CRUZ  23525033RIO DE JANEIRO RJUNIAO UMB DOS CULTOS AFRO BRAS    30081915 000228
21300820190000000000500                                                                                                                                                                                                                                                                                                                                                                                   000229
10231987175000168817800093673    000053401                    000534010000000000000109                     I0153401     30081900000000250003410000017N020819105700000000000833008190000000000000000000000000000000000000000100009388284798ALEXSANDRE AMARAL DE ALMEIDA            RUA CAJURUN 215,                        CASCADURA   21311040RIO DE JANEIRO RJUNIAO UMB DOS CULTOS AFRO BRAS    30081915 000230
21300820190000000000500                                                                                                                                                                                                                                                                                                                                                                                   000231
10231987175000168817800093673    000053400                    000534000000000000000109                     I0153400     30081900000000250003410000017N020819105700000000000833008190000000000000000000000000000000000000000100008170112770BERNADETTE DE FATIMA SOARES BE          RUA SAO MIGUEL N 0, LOTE 8 CASA 1       MARAMBAIA   24900000ITABORAI       RJUNIAO UMB DOS CULTOS AFRO BRAS    30081915 000232
21300820190000000000500                                                                                                                                                                                                                                                                                                                                                                                   000233
10231987175000168817800093673    000053399                    000533990000000000000109                     I0153399     30081900000000250003410000017N020819105700000000000833008190000000000000000000000000000000000000000100077763505753RITA DE CASSIA DE OLIVEIRA AND          RUA RAMIS GALVAON 131, CASA 201         ANCHIETA    21645510RIO DE JANEIRO RJUNIAO UMB DOS CULTOS AFRO BRAS    30081915 000234
21300820190000000000500                                                                                                                                                                                                                                                                                                                                                                                   000235
10231987175000168817800093673    000053398                    000533980000000000000109                     I0153398     30081900000000250003410000017N020819105700000000000833008190000000000000000000000000000000000000000100061178543749ROSILDA ALVES DA COSTA                  RUA CUBAN 582, CASA                     PENHA CIRCUL21200160RIO DE JANEIRO RJUNIAO UMB DOS CULTOS AFRO BRAS    30081915 000236
21300820190000000000500                                                                                                                                                                                                                                                                                                                                                                                   000237
10231987175000168817800093673    000053397                    000533970000000000000109                     I0153397     30081900000000250003410000017N020819105700000000000833008190000000000000000000000000000000000000000100003198728746MARCIA FERNANDA DA SILVA                RUA THOMAZ SIQUEIRA CAMPOSN 1200, CASA 1GRAMACHO    25000000DUQUE DE CAXIASRJUNIAO UMB DOS CULTOS AFRO BRAS    30081915 000238
21300820190000000000500                                                                                                                                                                                                                                                                                                                                                                                   000239
10231987175000168817800093673    000053396                    000533960000000000000109                     I0153396     30081900000000250003410000017N020819105700000000000833008190000000000000000000000000000000000000000100002886277762JUSSARA TEIXEIRA CUSTODIO               RUA SANTINO DOMINGOS DA SILVA N 219,    MUNDO NOVO  25903569MAGE           RJUNIAO UMB DOS CULTOS AFRO BRAS    30081915 000240
21300820190000000000500                                                                                                                                                                                                                                                                                                                                                                                   000241
10231987175000168817800093673    000053395                    000533950000000000000109                     I0153395     30081900000000250003410000017N020819105700000000000833008190000000000000000000000000000000000000000100010772529787JOSE BONIFACIO FERREIRA CUSTOD          RUA PAULINO ALVES MARTINS N 13,         SAO MIGUEL  28960000IGUABA GRANDE  RJUNIAO UMB DOS CULTOS AFRO BRAS    30081915 000242
21300820190000000000500                                                                                                                                                                                                                                                                                                                                                                                   000243
10231987175000168817800093673    000053394                    000533940000000000000109                     I0153394     30081900000000250003410000017N020819105700000000000833008190000000000000000000000000000000000000000100009763169780TATHIANA PAOLA DE JESUS RAMOS           RUA DN 500,                             SAO MIGUEL  28960000IGUABA GRANDE  RJUNIAO UMB DOS CULTOS AFRO BRAS    30081915 000244
21300820190000000000500                                                                                                                                                                                                                                                                                                                                                                                   000245
10231987175000168817800093673    000053393                    000533930000000000000109                     I0153393     30081900000000250003410000017N020819105700000000000833008190000000000000000000000000000000000000000100004250976769VITOR ALGUSTO ALMEIDA ALVES             RUA ARARAPIRA N 351,                    BENTO RIBEIR21331410RIO DE JANEIRO RJUNIAO UMB DOS CULTOS AFRO BRAS    30081915 000246
21300820190000000000500                                                                                                                                                                                                                                                                                                                                                                                   000247
10231987175000168817800093673    000053392                    000533920000000000000109                     I0153392     30081900000000250003410000017N020819105700000000000833008190000000000000000000000000000000000000000100077819306734UENES DA SILVA DE OLIVEIRA              RUA GENERAL CARVALHO  N 1148, CASA 1 FUNCORDOVIL    21250240RIO DE JANEIRO RJUNIAO UMB DOS CULTOS AFRO BRAS    30081915 000248
21300820190000000000500                                                                                                                                                                                                                                                                                                                                                                                   000249
