01REMESSA01COBRANCA       817800093673        União Umb dos Cultos Afro Bra341BANCO ITAU SA  010419                                                                                                                                                                                                                                                                                                      000001
10231987175000168817800093673    000044959                    000449590000000000000109                     I0144959     30061900000000040003410000017N010419104700000000000103006190000000000000000000000000000000000000000100011533112754ANDREA NUNES BRASIL                     RUA AUGUSTO SERGIO BOTELHON 0, QUADRA 2 BARRO BRANCO25267124DUQUE DE CAXIASRJUNIAO UMB DOS CULTOS AFRO BRAS    30061910 000002
10231987175000168817800093673    000044958                    000449580000000000000109                     I0144958     30051900000000040003410000017N010419104700000000000103005190000000000000000000000000000000000000000100011533112754ANDREA NUNES BRASIL                     RUA AUGUSTO SERGIO BOTELHON 0, QUADRA 2 BARRO BRANCO25267124DUQUE DE CAXIASRJUNIAO UMB DOS CULTOS AFRO BRAS    30051910 000003
10231987175000168817800093673    000044957                    000449570000000000000109                     I0144957     30041900000000040003410000017N010419104700000000000103004190000000000000000000000000000000000000000100011533112754ANDREA NUNES BRASIL                     RUA AUGUSTO SERGIO BOTELHON 0, QUADRA 2 BARRO BRANCO25267124DUQUE DE CAXIASRJUNIAO UMB DOS CULTOS AFRO BRAS    30041910 000004
10231987175000168817800093673    000044953                    000449530000000000000109                     I0144953     30061900000000040003410000017N010419104700000000000103006190000000000000000000000000000000000000000100001234429748CATIA CILENE MARTINS DE PAULA           RUA OITENTA E OITO N 0, CASA 173        ILHA DO GOVE21932797RIO DE JANEIRO RJUNIAO UMB DOS CULTOS AFRO BRAS    30061910 000005
10231987175000168817800093673    000044952                    000449520000000000000109                     I0144952     30051900000000040003410000017N010419104700000000000103005190000000000000000000000000000000000000000100001234429748CATIA CILENE MARTINS DE PAULA           RUA OITENTA E OITO N 0, CASA 173        ILHA DO GOVE21932797RIO DE JANEIRO RJUNIAO UMB DOS CULTOS AFRO BRAS    30051910 000006
10231987175000168817800093673    000044951                    000449510000000000000109                     I0144951     30041900000000040003410000017N010419104700000000000103004190000000000000000000000000000000000000000100001234429748CATIA CILENE MARTINS DE PAULA           RUA OITENTA E OITO N 0, CASA 173        ILHA DO GOVE21932797RIO DE JANEIRO RJUNIAO UMB DOS CULTOS AFRO BRAS    30041910 000007
10231987175000168817800093673    000044950                    000449500000000000000109                     I0144950     30061900000000040003410000017N010419104700000000000103006190000000000000000000000000000000000000000100008222930729MIRIAN CONCEICAO DOS SANTOS CU          RUA: POCOS DE CALDAS N 0, QUADRA 57 LOTEGRAMACHO    25050470DUQUE DE CAXIASRJUNIAO UMB DOS CULTOS AFRO BRAS    30061910 000008
10231987175000168817800093673    000044949                    000449490000000000000109                     I0144949     30051900000000040003410000017N010419104700000000000103005190000000000000000000000000000000000000000100008222930729MIRIAN CONCEICAO DOS SANTOS CU          RUA: POCOS DE CALDAS N 0, QUADRA 57 LOTEGRAMACHO    25050470DUQUE DE CAXIASRJUNIAO UMB DOS CULTOS AFRO BRAS    30051910 000009
10231987175000168817800093673    000044948                    000449480000000000000109                     I0144948     30041900000000040003410000017N010419104700000000000103004190000000000000000000000000000000000000000100008222930729MIRIAN CONCEICAO DOS SANTOS CU          RUA: POCOS DE CALDAS N 0, QUADRA 57 LOTEGRAMACHO    25050470DUQUE DE CAXIASRJUNIAO UMB DOS CULTOS AFRO BRAS    30041910 000010
10231987175000168817800093673    000044947                    000449470000000000000109                     I0144947     10041900000000160003410000017N010419104700000000000101004190000000000000000000000000000000000000000100007546526701MARIA FERNANDA ALVES DA SILVA           RUA: COMANDANTE MAGALHAES DE ALMEIDA N 4MARECHAL HER21610260RIO DE JANEIRO RJUNIAO UMB DOS CULTOS AFRO BRAS    10041910 000011
10231987175000168817800093673    000039070                    000390700000000000000109                     I0239070     30031900000000040003410000017N261218104700000000000103003190000000000000000000000000000000000000000100003025076712MARIA QUITERIA DOS SANTOS PITA          RUA MISSIONARIO CHRISTIE N 43, B        QUISSAMA    25615250PETROPOLIS     RJUNIAO UMB DOS CULTOS AFRO BRAS    30031910 000012
10231987175000168817800093673    000038894                    000388940000000000000109                     I0238894     30031900000000040003410000017N261218104700000000000103003190000000000000000000000000000000000000000100042897297700JOSE CARLOS LOUREIRO CORTEZ             RUA JOAO LUSON 215,                     REALENGO    21765620RIO DE JANEIRO RJUNIAO UMB DOS CULTOS AFRO BRAS    30031910 000013
10231987175000168817800093673    000038774                    000387740000000000000109                     I0238774     30031900000000040003410000017N261218104700000000000103003190000000000000000000000000000000000000000100014806247723JEFFERSON DA CUNHA AREAS                RUA: DOZEN 196,                         NOVA MARILIA25900000MAGE           RJUNIAO UMB DOS CULTOS AFRO BRAS    30031910 000014
10231987175000168817800093673    000038397                    000383970000000000000109                     I0238397     30031900000000040003410000017N261218104700000000000103003190000000000000000000000000000000000000000100079291040797CELMA DA SILVA                          RUA MONSENHOR TOMAS TEJERINAN 373,      MONTE D OURO27600000VALENCA        RJUNIAO UMB DOS CULTOS AFRO BRAS    30031910 000015
10231987175000168817800093673    000038360                    000383600000000000000109                     I0238360     30031900000000040003410000017N261218104700000000000103003190000000000000000000000000000000000000000100007893369795CINTIA DE MENEZES MELO                  RUA HERCULANO PENAN 39,                 CAVALCANTI  21381410RIO DE JANEIRO RJUNIAO UMB DOS CULTOS AFRO BRAS    30031910 000016
10231987175000168817800093673    000038332                    000383320000000000000109                     I0238332     30031900000000040003410000017N261218104700000000000103003190000000000000000000000000000000000000000100040337065772UILMA VIEIRA TEIXEIRA                   RUA: ITUN 0,  LOTE 3 QUADRA 22          JARDIM GRAMA25060350DUQUE DE CAXIASRJUNIAO UMB DOS CULTOS AFRO BRAS    30031910 000017
10231987175000168817800093673    000038173                    000381730000000000000109                     I0238173     30031900000000040003410000017N261218104700000000000103003190000000000000000000000000000000000000000100000907631738IDA ANGELICA PEREIRA CALDAS             RUA SILVEIRA LOBO N 43,                 CACHAMBI    20780310RIO DE JANEIRO RJUNIAO UMB DOS CULTOS AFRO BRAS    30031910 000018
10231987175000168817800093673    000037801                    000378010000000000000109                     I0237801     30031900000000040003410000017N261218104700000000000103003190000000000000000000000000000000000000000100043248730706BRAULIO ESPINI RIBEIRO                  RUA EMBOABAN 7, QUADRA E - PARQUE COLONILOTE XV     26180060BELFORD ROXO   RJUNIAO UMB DOS CULTOS AFRO BRAS    30031910 000019
10231987175000168817800093673    000037771                    000377710000000000000109                     I0237771     30031900000000040003410000017N261218104700000000000103003190000000000000000000000000000000000000000100086374370791IVETE SILVA GOMES                       RUA SEISN 0, LOTE 329                   GEBARA - ITA24867416NITEROI        RJUNIAO UMB DOS CULTOS AFRO BRAS    30031910 000020
10231987175000168817800093673    000036855                    000368550000000000000109                     I0236855     28021900000000040003410000017N261218104700000000000102802190000000000000000000000000000000000000000100014806247723JEFFERSON DA CUNHA AREAS                RUA: DOZEN 196,                         NOVA MARILIA25900000MAGE           RJUNIAO UMB DOS CULTOS AFRO BRAS    28021910 000021
10231987175000168817800093673    000036443                    000364430000000000000109                     I0236443     28021900000000040003410000017N261218104700000000000102802190000000000000000000000000000000000000000100007893369795CINTIA DE MENEZES MELO                  RUA HERCULANO PENAN 39,                 CAVALCANTI  21381410RIO DE JANEIRO RJUNIAO UMB DOS CULTOS AFRO BRAS    28021910 000022
10231987175000168817800093673    000035857                    000358570000000000000109                     I0235857     28021900000000040003410000017N261218104700000000000102802190000000000000000000000000000000000000000100086374370791IVETE SILVA GOMES                       RUA SEISN 0, LOTE 329                   GEBARA - ITA24867416NITEROI        RJUNIAO UMB DOS CULTOS AFRO BRAS    28021910 000023
9                                                                                                                                                                                                                                                                                                                                                                                                         000024
