01REMESSA01COBRANCA       817800093673        União Umb dos Cultos Afro Bra341BANCO ITAU SA  181018                                                                                                                                                                                                                                                                                                      000001
10231987175000168817800093673    000028959                    000289590000000000000109                     I0128959     20121800000000035003410000017N171018104700000000000102012180000000000000000000000000000000000000000100066514118704MARILIA GARCIA DA PAIXAO                RUA FRANCOLIM                           GUADALUPE   21660130RIO DE JANEIRO RJUNIAO UMB DOS CULTOS AFRO BRAS    20121810 000002
10231987175000168817800093673    000028958                    000289580000000000000109                     I0128958     30111800000000040003410000017N171018104700000000000103011180000000000000000000000000000000000000000100085146595704CARLA MARY MONSORES REGO                RUA: D                                  TINGUI      23075570RIO DE JANEIRO RJUNIAO UMB DOS CULTOS AFRO BRAS    30111810 000003
10231987175000168817800093673    000028957                    000289570000000000000109                     I0128957     30111800000000035003410000017N171018104700000000000103011180000000000000000000000000000000000000000100003248430702CRISTIANA ROSA DE OLIVEIRA              ESTRADA: DA PORTEIRA                    JARDIM MAR  23821140ITAGUAI        RJUNIAO UMB DOS CULTOS AFRO BRAS    30111810 000004
10231987175000168817800093673    000028956                    000289560000000000000109                     I0128956     20121800000000040003410000017N171018104700000000000102012180000000000000000000000000000000000000000100000101414722CELIA REGINA CARVALHO                   RUA FELIPE CAMARAO                      RETIRO      25680510PETROPOLIS     RJUNIAO UMB DOS CULTOS AFRO BRAS    20121810 000005
10231987175000168817800093673    000028955                    000289550000000000000109                     I0128955     30111800000000040003410000017N171018104700000000000103011180000000000000000000000000000000000000000100000101414722CELIA REGINA CARVALHO                   RUA FELIPE CAMARAO                      RETIRO      25680510PETROPOLIS     RJUNIAO UMB DOS CULTOS AFRO BRAS    30111810 000006
10231987175000168817800093673    000028954                    000289540000000000000109                     I0128954     22101800000000035003410000017N171018104700000000000102210180000000000000000000000000000000000000000100002379534713ALEX EVANDRO CORREIA PETITINGA          RUA FRANCISCO MANUEL                    BENFICA     00000000RIO DE JANEIRO RJUNIAO UMB DOS CULTOS AFRO BRAS    22101810 000007
10231987175000168817800093673    000028953                    000289530000000000000109                     I0128953     19101800000000080003410000017N161018104700000000000101910180000000000000000000000000000000000000000100005754715730RAPHAEL FEITAIS PASSERI                 RUA ITAUNA                              SAO JOSE DE 00000000MARICA         RJUNIAO UMB DOS CULTOS AFRO BRAS    19101810 000008
10231987175000168817800093673    000028952                    000289520000000000000109                     I0128952     30101800000000175003410000017N161018104700000000000103010180000000000000000000000000000000000000000100002161361724ELISANGELA VIRGINIA CARVALHO A          RUA MARIA BENJAMIN                      PILARES     20950360RIO DE JANEIRO RJUNIAO UMB DOS CULTOS AFRO BRAS    30101810 000009
10231987175000168817800093673    000028951                    000289510000000000000109                     I0128951     30101800000000350003410000017N161018104700000000000103010180000000000000000000000000000000000000000100007802202779ROBERTO DE OLIVEIRA ALONSO NET          RUA: VEREADOR FRANCISCO NUNES           CENTRO      26540040NILOPOLIS      RJUNIAO UMB DOS CULTOS AFRO BRAS    30101810 000010
10231987175000168817800093673    000028950                    000289500000000000000109                     I0128950     30101800000000350003410000017N161018104700000000000103010180000000000000000000000000000000000000000100060471859753MARLENE IBRAIN                          RUA: DOUTOR ALVARO DA PAIXAO JR         PARQUE AEROP27971180MACAE          RJUNIAO UMB DOS CULTOS AFRO BRAS    30101810 000011
10231987175000168817800093673    000028949                    000289490000000000000109                     I0128949     30101800000000105003410000017N161018104700000000000103010180000000000000000000000000000000000000000100092080570706EUZAMAR FONSECA SANTOS                  RUA MARAPENDI                           MARECHAL HER21557130RIO DE JANEIRO RJUNIAO UMB DOS CULTOS AFRO BRAS    30101810 000012
10231987175000168817800093673    000028948                    000289480000000000000109                     I0128948     15111800000000200003410000017N161018104700000000000101511180000000000000000000000000000000000000000100007332496712ELENICE ROSA DA SILVA                   RUA SEPETIBA                            PADRE JOSE B25565250NOVA IGUACU    RJUNIAO UMB DOS CULTOS AFRO BRAS    15111810 000013
10231987175000168817800093673    000028947                    000289470000000000000109                     I0128947     26111800000000420003410000017N161018104700000000000102611180000000000000000000000000000000000000000100009237411782RODRIGO NOGUEIRA MARTINS                RUA DOUTOR AUGUSTO FIGUEIREDO           BANGU       21840600RIO DE JANEIRO RJUNIAO UMB DOS CULTOS AFRO BRAS    26111810 000014
10231987175000168817800093673    000028946                    000289460000000000000109                     I0128946     05111800000000400003410000017N161018104700000000000100511180000000000000000000000000000000000000000100001955399158GIOVANI CORREIA DOS SANTOS              RUA: JOSE CARLOS SOARES DA SILVA        SANTA JULIA 14807427ARARAQUARA     SPUNIAO UMB DOS CULTOS AFRO BRAS    05111810 000015
10231987175000168817800093673    000028945                    000289450000000000000109                     I0128945     16101800000000400003410000017N151018104700000000000101610180000000000000000000000000000000000000000100000150852797EDSON SENRA GOMES                       ESTRADA: OUTEIRO SANTO                  TAQUARA     22713170RIO DE JANEIRO RJUNIAO UMB DOS CULTOS AFRO BRAS    16101810 000016
10231987175000168817800093673    000028860                    000288600000000000000109                     I0228860     08101800000000420003410000017N031018104700000000000100810180000000000000000000000000000000000000000100007802202779ROBERTO DE OLIVEIRA ALONSO NET          RUA: VEREADOR FRANCISCO NUNES           CENTRO      26540040NILOPOLIS      RJUNIAO UMB DOS CULTOS AFRO BRAS    08101810 000017
10231987175000168817800093673    000028856                    000288560000000000000109                     I0228856     15101800000000280003410000017N021018104700000000000101510180000000000000000000000000000000000000000100060471859753MARLENE IBRAIN                          RUA: DOUTOR ALVARO DA PAIXAO JR         PARQUE AEROP27971180MACAE          RJUNIAO UMB DOS CULTOS AFRO BRAS    15101810 000018
10231987175000168817800093673    000028613                    000286130000000000000109                     I3428613     17091800000000035003410000017N300818104700000000000101709180000000000000000000000000000000000000000100022023461715SAULO EMMANUEL FERREIRA GUEDES          AVENIDA: VICENTE DE CARVALHO            VICENTE DE C21210003RIO DE JANEIRO RJUNIAO UMB DOS CULTOS AFRO BRAS    17091810 000019
10231987175000168817800093673    000027812                    000278120000000000000109                     I0227812     30111800000000035003410000017N200818104700000000000103011180000000000000000000000000000000000000000100001230403701DENILSON MOTA DRUMOND                   RUA, ALVES DA COSTA                     CHANGRILA   26140320BELFORD ROXO   RJUNIAO UMB DOS CULTOS AFRO BRAS    30111810 000020
10231987175000168817800093673    000027791                    000277910000000000000109                     I0227791     30111800000000035003410000017N200818104700000000000103011180000000000000000000000000000000000000000100008679284769ANA PAULA DA SILVA BRAGA                RUA ELVIRA DA FONSECA                   TANQUE      22733150RIO DE JANEIRO RJUNIAO UMB DOS CULTOS AFRO BRAS    30111810 000021
10231987175000168817800093673    000027410                    000274100000000000000109                     I3427410     30111800000000035003410000017N200818104700000000000103011180000000000000000000000000000000000000000100022023461715SAULO EMMANUEL FERREIRA GUEDES          AVENIDA: VICENTE DE CARVALHO            VICENTE DE C21210003RIO DE JANEIRO RJUNIAO UMB DOS CULTOS AFRO BRAS    30111810 000022
10231987175000168817800093673    000026808                    000268080000000000000109                     I3426808     30091800000000035003410000017N200818104700000000000103009180000000000000000000000000000000000000000100066514118704MARILIA GARCIA DA PAIXAO                RUA FRANCOLIM                           GUADALUPE   21660130RIO DE JANEIRO RJUNIAO UMB DOS CULTOS AFRO BRAS    30091810 000023
10231987175000168817800093673    000026740                    000267400000000000000109                     I0226740     30091800000000040003410000017N200818104700000000000103009180000000000000000000000000000000000000000100005754715730RAPHAEL FEITAIS PASSERI                 RUA ITAUNA                              SAO JOSE DE 00000000MARICA         RJUNIAO UMB DOS CULTOS AFRO BRAS    30091810 000024
10231987175000168817800093673    000026659                    000266590000000000000109                     I0226659     30091800000000035003410000017N200818104700000000000103009180000000000000000000000000000000000000000100002298578518ELVIRA RODRIGUES DE MELLO               RUA ARAGUARI                            VILI SAO SEB26160250BELFORD ROXO   RJUNIAO UMB DOS CULTOS AFRO BRAS    30091810 000025
10231987175000168817800093673    000026578                    000265780000000000000109                     I3426578     30091800000000035003410000017N200818104700000000000103009180000000000000000000000000000000000000000100008478002707ALEXSANDRO JOAO MARTINS                 RUA CARMO DO RIO CLARO                  SAO GABRIEL 26021830NOVA IGUACU    RJUNIAO UMB DOS CULTOS AFRO BRAS    30091810 000026
10231987175000168817800093673    000026393                    000263930000000000000109                     I0226393     30091800000000035003410000017N200818104700000000000103009180000000000000000000000000000000000000000100001230403701DENILSON MOTA DRUMOND                   RUA, ALVES DA COSTA                     CHANGRILA   26140320BELFORD ROXO   RJUNIAO UMB DOS CULTOS AFRO BRAS    30091810 000027
10231987175000168817800093673    000026372                    000263720000000000000109                     I0226372     30091800000000035003410000017N200818104700000000000103009180000000000000000000000000000000000000000100008679284769ANA PAULA DA SILVA BRAGA                RUA ELVIRA DA FONSECA                   TANQUE      22733150RIO DE JANEIRO RJUNIAO UMB DOS CULTOS AFRO BRAS    30091810 000028
10231987175000168817800093673    000026360                    000263600000000000000109                     I0226360     30091800000000035003410000017N200818104700000000000103009180000000000000000000000000000000000000000100007802202779ROBERTO DE OLIVEIRA ALONSO NET          RUA: VEREADOR FRANCISCO NUNES           CENTRO      26540040NILOPOLIS      RJUNIAO UMB DOS CULTOS AFRO BRAS    30091810 000029
10231987175000168817800093673    000026333                    000263330000000000000109                     I0226333     30091800000000035003410000017N200818104700000000000103009180000000000000000000000000000000000000000100060471859753MARLENE IBRAIN                          RUA: DOUTOR ALVARO DA PAIXAO JR         PARQUE AEROP27971180MACAE          RJUNIAO UMB DOS CULTOS AFRO BRAS    30091810 000030
10231987175000168817800093673    000026232                    000262320000000000000109                     I0226232     30091800000000035003410000017N200818104700000000000103009180000000000000000000000000000000000000000100002134169729ALEXANDRE DE ALMEIDA                    RUA SERITINGA                           BRAS DE PINA21215480RIO DE JANEIRO RJUNIAO UMB DOS CULTOS AFRO BRAS    30091810 000031
10231987175000168817800093673    000026187                    000261870000000000000109                     I0226187     30091800000000035003410000017N200818104700000000000103009180000000000000000000000000000000000000000100092080570706EUZAMAR FONSECA SANTOS                  RUA MARAPENDI                           MARECHAL HER21557130RIO DE JANEIRO RJUNIAO UMB DOS CULTOS AFRO BRAS    30091810 000032
10231987175000168817800093673    000026186                    000261860000000000000109                     I0226186     30091800000000035003410000017N200818104700000000000103009180000000000000000000000000000000000000000100002379534713ALEX EVANDRO CORREIA PETITINGA          RUA FRANCISCO MANUEL                    BENFICA     00000000RIO DE JANEIRO RJUNIAO UMB DOS CULTOS AFRO BRAS    30091810 000033
10231987175000168817800093673    000026055                    000260550000000000000109                     I3426055     30091800000000035003410000017N200818104700000000000103009180000000000000000000000000000000000000000100064949559753CREUZA LEAL COIMBRA                     AVENIDA CORONEL RAIMUNDO SAMPAIO        JARDIM BOTAN25570393SAO JOAO DE MERRJUNIAO UMB DOS CULTOS AFRO BRAS    30091810 000034
10231987175000168817800093673    000025994                    000259940000000000000109                     I3425994     30091800000000035003410000017N200818104700000000000103009180000000000000000000000000000000000000000100022023461715SAULO EMMANUEL FERREIRA GUEDES          AVENIDA: VICENTE DE CARVALHO            VICENTE DE C21210003RIO DE JANEIRO RJUNIAO UMB DOS CULTOS AFRO BRAS    30091810 000035
10231987175000168817800093673    000025494                    000254940000000000000109                     I3425494     30101800000000035003410000017N200818104700000000000103010180000000000000000000000000000000000000000100004253784704ALEXANDRE SIMOES NASCIMENTO             RUA SEBASTIAO DRUMOND                   ANCHIETA    21640360RIO DE JANEIRO RJUNIAO UMB DOS CULTOS AFRO BRAS    30101810 000036
10231987175000168817800093673    000025219                    000252190000000000000109                     I3425219     30101800000000035003410000017N200818104700000000000103010180000000000000000000000000000000000000000100002330389727LENIRA FELIX DA SILVA                   RUA ULISSES ROBERTO                     BOACU       24467490SAO GONCALO    RJUNIAO UMB DOS CULTOS AFRO BRAS    30101810 000037
10231987175000168817800093673    000025161                    000251610000000000000109                     I3425161     30101800000000035003410000017N200818104700000000000103010180000000000000000000000000000000000000000100008478002707ALEXSANDRO JOAO MARTINS                 RUA CARMO DO RIO CLARO                  SAO GABRIEL 26021830NOVA IGUACU    RJUNIAO UMB DOS CULTOS AFRO BRAS    30101810 000038
10231987175000168817800093673    000024975                    000249750000000000000109                     I0224975     30101800000000035003410000017N200818104700000000000103010180000000000000000000000000000000000000000100001230403701DENILSON MOTA DRUMOND                   RUA, ALVES DA COSTA                     CHANGRILA   26140320BELFORD ROXO   RJUNIAO UMB DOS CULTOS AFRO BRAS    30101810 000039
10231987175000168817800093673    000024954                    000249540000000000000109                     I0224954     30101800000000035003410000017N200818104700000000000103010180000000000000000000000000000000000000000100008679284769ANA PAULA DA SILVA BRAGA                RUA ELVIRA DA FONSECA                   TANQUE      22733150RIO DE JANEIRO RJUNIAO UMB DOS CULTOS AFRO BRAS    30101810 000040
10231987175000168817800093673    000024942                    000249420000000000000109                     I0224942     30101800000000035003410000017N200818104700000000000103010180000000000000000000000000000000000000000100007802202779ROBERTO DE OLIVEIRA ALONSO NET          RUA: VEREADOR FRANCISCO NUNES           CENTRO      26540040NILOPOLIS      RJUNIAO UMB DOS CULTOS AFRO BRAS    30101810 000041
10231987175000168817800093673    000024915                    000249150000000000000109                     I0224915     30101800000000035003410000017N200818104700000000000103010180000000000000000000000000000000000000000100060471859753MARLENE IBRAIN                          RUA: DOUTOR ALVARO DA PAIXAO JR         PARQUE AEROP27971180MACAE          RJUNIAO UMB DOS CULTOS AFRO BRAS    30101810 000042
10231987175000168817800093673    000024768                    000247680000000000000109                     I0224768     30101800000000035003410000017N200818104700000000000103010180000000000000000000000000000000000000000100092080570706EUZAMAR FONSECA SANTOS                  RUA MARAPENDI                           MARECHAL HER21557130RIO DE JANEIRO RJUNIAO UMB DOS CULTOS AFRO BRAS    30101810 000043
10231987175000168817800093673    000024574                    000245740000000000000109                     I3424574     30101800000000035003410000017N200818104700000000000103010180000000000000000000000000000000000000000100022023461715SAULO EMMANUEL FERREIRA GUEDES          AVENIDA: VICENTE DE CARVALHO            VICENTE DE C21210003RIO DE JANEIRO RJUNIAO UMB DOS CULTOS AFRO BRAS    30101810 000044
10231987175000168817800093673    000024311                    000243110000000000000109                     I3424311     30101800000000035003410000017N200818104700000000000103010180000000000000000000000000000000000000000100043082033768LEILA RAMOS DE OLIVEIRA                 RUA CAPIBARIBE                          CABUCU      26346290NOVA IGUACU    RJUNIAO UMB DOS CULTOS AFRO BRAS    30101810 000045
9                                                                                                                                                                                                                                                                                                                                                                                                         000046
