01REMESSA01COBRANCA       916200163100        União Umb dos Cultos Afro Bra341BANCO ITAU SA  181218                                                                                                                                                                                                                                                                                                      000001
10231987175000168916200163100    000033610                    000336100000000000000109                     I0133610     10011900000000105003410000017N181218104700000000000101001190000000000000000000000000000000000000000100063164256787ALICE FRANCISCO LOPES                   RUA JORNALISTA PINHEIRO LEMOS           COSTA BARROS21650200RIO DE JANEIRO RJUNIAO UMB DOS CULTOS AFRO BRAS    10011910 000002
10231987175000168916200163100    000033609                    000336090000000000000109                     I0133609     26121800000000175003410000017N181218104700000000000102612180000000000000000000000000000000000000000100004790121720IATA ANDERSON JESUS PEREIRA             RUA ITAJUBARA                           RAMOS       21060180RIO DE JANEIRO RJUNIAO UMB DOS CULTOS AFRO BRAS    26121810 000003
10231987175000168916200163100    000033608                    000336080000000000000109                     I0133608     26121800000000350003410000017N181218104700000000000102612180000000000000000000000000000000000000000100077575768734CARLOS ALBERTO BAPTISTA                 RUA PRINCIPE DA BEIRA                   DEL CASTILHO21060420RIO DE JANEIRO RJUNIAO UMB DOS CULTOS AFRO BRAS    26121810 000004
10231987175000168916200163100    000033607                    000336070000000000000109                     I0133607     15011900000000350003410000017N181218104700000000000101501190000000000000000000000000000000000000000100003549035780CARLOS ALBERTO DA SILVA SANTOS          AVENIDA PRESIDENTE DUTRA                VILA DILMA  26085060NOVA IGUACU    RJUNIAO UMB DOS CULTOS AFRO BRAS    15011910 000005
10231987175000168916200163100    000033606                    000336060000000000000109                     I0133606     25121800000000088883410000017N181218104700000000000102512180000000000000000000000000000000000000000100005851795733JOAO LUIZ DE OLIVEIRA MAGALHAE          RUA ANTONIO CARLOS PARANHOS             VILA VALQUEI21321340RIO DE JANEIRO RJUNIAO UMB DOS CULTOS AFRO BRAS    25121810 000006
10231987175000168916200163100    000033605                    000336050000000000000109                     I0133605     04011900000000480003410000017N181218104700000000000100401190000000000000000000000000000000000000000100065196171720MARIA DAS GRACAS OLIVEIRA               RUA FRANCISCO MANOEL                    PONTO CHIQUE26032835NOVA IGUACU    RJUNIAO UMB DOS CULTOS AFRO BRAS    04011910 000007
10231987175000168916200163100    000033604                    000336040000000000000109                     I0133604     30121800000000035003410000017N181218104700000000000103012180000000000000000000000000000000000000000100080728774704NERIANA SILVA DO CARMO                  RUA JOAQUIM QUEIROS                     RAMOS       21061610RIO DE JANEIRO RJUNIAO UMB DOS CULTOS AFRO BRAS    30121810 000008
10231987175000168916200163100    000033603                    000336030000000000000109                     I0133603     31121800000000040003410000017N181218104700000000000103112180000000000000000000000000000000000000000100025891693704EDSON DA SILVA ALVES                    RUA: JOAO MACIEIRA                      MADUREIRA   21310090RIO DE JANEIRO RJUNIAO UMB DOS CULTOS AFRO BRAS    31121810 000009
10231987175000168916200163100    000033602                    000336020000000000000109                     I0133602     18011900000000200003410000017N181218104700000000000101801190000000000000000000000000000000000000000100070421064749HELOIZA HELENA COSTA LIMA               RUA ALCINDO RAFAEL                      ITAMARATI   26262060NOVA IGUACU    RJUNIAO UMB DOS CULTOS AFRO BRAS    18011910 000010
10231987175000168916200163100    000033601                    000336010000000000000109                     I0233601     18011900000000200003410000017N181218104700000000000101801190000000000000000000000000000000000000000100070421064749HELOIZA HELENA COSTA LIMA               RUA ALCINDO RAFAEL                      ITAMARATI   26262060NOVA IGUACU    RJUNIAO UMB DOS CULTOS AFRO BRAS    18011910 000011
10231987175000168916200163100    000033600                    000336000000000000000109                     I0133600     28121800000000210003410000017N181218104700000000000102812180000000000000000000000000000000000000000100092053050730SONIA MARIA RODRIGUES LONTRA M          TRAVESSA TITO RABELO                    CAMPO GRANDE23017245RIO DE JANEIRO RJUNIAO UMB DOS CULTOS AFRO BRAS    28121810 000012
10231987175000168916200163100    000033599                    000335990000000000000109                     I0133599     31121800000000035003410000017N181218104700000000000103112180000000000000000000000000000000000000000100049660632720MARINETE SANTOS DE OLIVEIRA             AVENIDA SANTA CRUZ                      SENADOR CAMA23010003RIO DE JANEIRO RJUNIAO UMB DOS CULTOS AFRO BRAS    31121810 000013
10231987175000168916200163100    000028678                    000286780000000000000109                     I0228678     30111800000000040003410000017N060918104700000000000103011180000000000000000000000000000000000000000100007147220730LUIS CARLOS DA COSTA OLIVEIRA           RUA MINAS GERAIS                        CAMPO ALEGRE26292141NOVA IGUACU    RJUNIAO UMB DOS CULTOS AFRO BRAS    30111810 000014
10231987175000168916200163100    000028677                    000286770000000000000109                     I0228677     30101800000000040003410000017N060918104700000000000103010180000000000000000000000000000000000000000100007147220730LUIS CARLOS DA COSTA OLIVEIRA           RUA MINAS GERAIS                        CAMPO ALEGRE26292141NOVA IGUACU    RJUNIAO UMB DOS CULTOS AFRO BRAS    30101810 000015
9                                                                                                                                                                                                                                                                                                                                                                                                         000016
