01REMESSA01COBRANCA       817800093673        União Umb dos Cultos Afro Bra341BANCO ITAU SA  060219                                                                                                                                                                                                                                                                                                      000001
10231987175000168817800093673    000039654                    000396540000000000000109                     I0239654     05021900000000350003410000017N280119104700000000000100502190000000000000000000000000000000000000000100002126696723LUCI DA CUNHA ARTUR                     AVENIDA FRANCISCO CHRISOSTOMOS TORRESN 1PINTO DA SER27286440VOLTA REDONDA  RJUNIAO UMB DOS CULTOS AFRO BRAS    05021910 000002
10231987175000168817800093673    000039632                    000396320000000000000109                     I0239632     08021900000000040003410000017N210119104700000000000100802190000000000000000000000000000000000000000100002826493795VALDEA PEREIRA SIQUEIRA                 RUA BORDA DO MATON 415,                 GRAJAU      20561204RIO DE JANEIRO RJUNIAO UMB DOS CULTOS AFRO BRAS    08021910 000003
10231987175000168817800093673    000039615                    000396150000000000000109                     I0239615     31031900000000040003410000017N180119104700000000000103103190000000000000000000000000000000000000000100079448712715ADELINA GONCALVES                       AVENIDA JOAQUIM CAMARA FERREIRAN 687,   VILA KENEDY 21850180RIO DE JANEIRO RJUNIAO UMB DOS CULTOS AFRO BRAS    31031910 000004
10231987175000168817800093673    000039614                    000396140000000000000109                     I0239614     28021900000000040003410000017N180119104700000000000102802190000000000000000000000000000000000000000100079448712715ADELINA GONCALVES                       AVENIDA JOAQUIM CAMARA FERREIRAN 687,   VILA KENEDY 21850180RIO DE JANEIRO RJUNIAO UMB DOS CULTOS AFRO BRAS    28021910 000005
10231987175000168817800093673    000039579                    000395790000000000000109                     I0239579     21011900000000350003410000017N150119104700000000000102101190000000000000000000000000000000000000000100004275325745MAIKE OLIVEIRA DA COSTA                 TRAVESSA MARTA DA ROCHA N 57,           ABOLICAO    20755030RIO DE JANEIRO RJUNIAO UMB DOS CULTOS AFRO BRAS    21011910 000006
10231987175000168817800093673    000039218                    000392180000000000000109                     I0239218     30031900000000040003410000017N261218104700000000000103003190000000000000000000000000000000000000000100091083532715MARCOS AURELIO PEREIRA RAMOS            RUA MATO GROSSON 548,                   SANTA CECILI25957250TERESOPOLIS    RJUNIAO UMB DOS CULTOS AFRO BRAS    30031910 000007
10231987175000168817800093673    000037299                    000372990000000000000109                     I0237299     28021900000000040003410000017N261218104700000000000102802190000000000000000000000000000000000000000100091083532715MARCOS AURELIO PEREIRA RAMOS            RUA MATO GROSSON 548,                   SANTA CECILI25957250TERESOPOLIS    RJUNIAO UMB DOS CULTOS AFRO BRAS    28021910 000008
10231987175000168817800093673    000035592                    000355920000000000000109                     I0235592     28021900000000040003410000017N261218104700000000000102802190000000000000000000000000000000000000000100066564689772CARLOS DE ARAUJO RIBEIRO                ESTRADA DO MENDANHAN 235,               BENTO RIBEIR21331250RIO DE JANEIRO RJUNIAO UMB DOS CULTOS AFRO BRAS    28021910 000009
10231987175000168817800093673    000035386                    000353860000000000000109                     I0235386     31011900000000040003410000017N261218104700000000000103101190000000000000000000000000000000000000000100091083532715MARCOS AURELIO PEREIRA RAMOS            RUA MATO GROSSON 548,                   SANTA CECILI25957250TERESOPOLIS    RJUNIAO UMB DOS CULTOS AFRO BRAS    31011910 000010
10231987175000168817800093673    000034647                    000346470000000000000109                     I0234647     31011900000000040003410000017N261218104700000000000103101190000000000000000000000000000000000000000100005215642710ROBERTA LIMA GRIJO                      RUA: FLORANIAN 475,                     VISTA ALEGRE21230700RIO DE JANEIRO RJUNIAO UMB DOS CULTOS AFRO BRAS    31011910 000011
10231987175000168817800093673    000034592                    000345920000000000000109                     I0234592     31011900000000040003410000017N261218104700000000000103101190000000000000000000000000000000000000000100059259523753NILO SERGIO SANTOS BARCELLOS            ESTRADA DO MENDANHAN 134, BLOCO 4 APTO 5IRAJA       21220310RIO DE JANEIRO RJUNIAO UMB DOS CULTOS AFRO BRAS    31011910 000012
10231987175000168817800093673    000033165                    000331650000000000000109                     I0233165     20121800000000380003410000017N291018104700000000000102012180000000000000000000000000000000000000000100091083532715MARCOS AURELIO PEREIRA RAMOS            RUA MATO GROSSON 548,                   SANTA CECILI25957250TERESOPOLIS    RJUNIAO UMB DOS CULTOS AFRO BRAS    20121810 000013
10231987175000168817800093673    000033107                    000331070000000000000109                     I0233107     20121800000000350003410000017N291018104700000000000102012180000000000000000000000000000000000000000100004275325745MAIKE OLIVEIRA DA COSTA                 TRAVESSA MARTA DA ROCHA N 57,           ABOLICAO    20755030RIO DE JANEIRO RJUNIAO UMB DOS CULTOS AFRO BRAS    20121810 000014
10231987175000168817800093673    000031960                    000319600000000000000109                     I0231960     20121800000000350003410000017N291018104700000000000102012180000000000000000000000000000000000000000100059259523753NILO SERGIO SANTOS BARCELLOS            ESTRADA DO MENDANHAN 134, BLOCO 4 APTO 5IRAJA       21220310RIO DE JANEIRO RJUNIAO UMB DOS CULTOS AFRO BRAS    20121810 000015
10231987175000168817800093673    000030286                    000302860000000000000109                     I0230286     20121800000000040003410000017N291018104700000000000102012180000000000000000000000000000000000000000100091083532715MARCOS AURELIO PEREIRA RAMOS            RUA MATO GROSSON 548,                   SANTA CECILI25957250TERESOPOLIS    RJUNIAO UMB DOS CULTOS AFRO BRAS    20121810 000016
10231987175000168817800093673    000030240                    000302400000000000000109                     I0230240     20121800000000035003410000017N291018104700000000000102012180000000000000000000000000000000000000000100004275325745MAIKE OLIVEIRA DA COSTA                 TRAVESSA MARTA DA ROCHA N 57,           ABOLICAO    20755030RIO DE JANEIRO RJUNIAO UMB DOS CULTOS AFRO BRAS    20121810 000017
10231987175000168817800093673    000029537                    000295370000000000000109                     I0229537     20121800000000035003410000017N291018104700000000000102012180000000000000000000000000000000000000000100095949925734RITA DE CASSIA COCCARO                  RUA JUCARI N 563,                       IRAJA       21371320RIO DE JANEIRO RJUNIAO UMB DOS CULTOS AFRO BRAS    20121810 000018
10231987175000168817800093673    000029438                    000294380000000000000109                     I0229438     20121800000000035003410000017N291018104700000000000102012180000000000000000000000000000000000000000100000421859717ANDREIA DANGELA DE ANDRADE LIM          RUA BORGES MONTEIRO N 100,              HIGIENOPOLIS21051460RIO DE JANEIRO RJUNIAO UMB DOS CULTOS AFRO BRAS    20121810 000019
9                                                                                                                                                                                                                                                                                                                                                                                                         000020
