01REMESSA01COBRANCA       817800093673        União Umb dos Cultos Afro Bra341BANCO ITAU SA  030119                                                                                                                                                                                                                                                                                                      000001
10231987175000168817800093673    000039476                    000394760000000000000109                     I0139476     08011900000000070003410000017N030119104700000000000100801190000000000000000000000000000000000000000100002295785782ELVIRA RODRIGUES DE MELLO               RUA ARAGUARI                            VILI SAO SEB26160250BELFORD ROXO   RJUNIAO UMB DOS CULTOS AFRO BRAS    08011910 000002
10231987175000168817800093673    000039475                    000394750000000000000109                     I0139475     31011900000000035003410000017N030119104700000000000103101190000000000000000000000000000000000000000100069974578787ANTONIA RIBEIRO RAPOSO                  RUA: SENADOR TOMAS RODRIGUES            SEPETIBA    23545280RIO DE JANEIRO RJUNIAO UMB DOS CULTOS AFRO BRAS    31011910 000003
10231987175000168817800093673    000039474                    000394740000000000000109                     I0239474     31011900000000040003410000017N030119104700000000000103101190000000000000000000000000000000000000000100069974578787ANTONIA RIBEIRO RAPOSO                  RUA: SENADOR TOMAS RODRIGUES            SEPETIBA    23545280RIO DE JANEIRO RJUNIAO UMB DOS CULTOS AFRO BRAS    31011910 000004
10231987175000168817800093673    000039473                    000394730000000000000109                     I0139473     07011900000000035003410000017N030119104700000000000100701190000000000000000000000000000000000000000100057231737749ELIZABETE CARVALHO COSTA                RUA EXPEDICIONARIO SIMAO FERNANDES      COLUMBANDE  24451700SAO GONCALO    RJUNIAO UMB DOS CULTOS AFRO BRAS    07011910 000005
10231987175000168817800093673    000039472                    000394720000000000000109                     I0139472     08011900000000140003410000017N030119104700000000000100801190000000000000000000000000000000000000000100005361904708VANESSA SANTIAGO DE AZEVEDO BA          RUA SALDANHA DA GAMA                    ENGENHO DO P25015295DUQUE DE CAXIASRJUNIAO UMB DOS CULTOS AFRO BRAS    08011910 000006
10231987175000168817800093673    000032764                    000327640000000000000109                     I0232764     20121800000000350003410000017N291018104700000000000102012180000000000000000000000000000000000000000100057231737749ELIZABETE CARVALHO COSTA                RUA EXPEDICIONARIO SIMAO FERNANDES      COLUMBANDE  24451700SAO GONCALO    RJUNIAO UMB DOS CULTOS AFRO BRAS    20121810 000007
10231987175000168817800093673    000032086                    000320860000000000000109                     I0232086     20121800000000350003410000017N291018104700000000000102012180000000000000000000000000000000000000000100069974578787ANTONIA RIBEIRO RAPOSO                  RUA: SENADOR TOMAS RODRIGUES            SEPETIBA    23545280RIO DE JANEIRO RJUNIAO UMB DOS CULTOS AFRO BRAS    20121810 000008
10231987175000168817800093673    000031933                    000319330000000000000109                     I0231933     20121800000000350003410000017N291018104700000000000102012180000000000000000000000000000000000000000100001848078757MARIA DA GRACA DA SILVA GASPAR          RUA CAROLINA MACHADO                    BENTO RIBEIR21550000RIO DE JANEIRO RJUNIAO UMB DOS CULTOS AFRO BRAS    20121810 000009
10231987175000168817800093673    000030108                    000301080000000000000109                     I0230108     20121800000000035003410000017N291018104700000000000102012180000000000000000000000000000000000000000100005361904708VANESSA SANTIAGO DE AZEVEDO BA          RUA SALDANHA DA GAMA                    ENGENHO DO P25015295DUQUE DE CAXIASRJUNIAO UMB DOS CULTOS AFRO BRAS    20121810 000010
10231987175000168817800093673    000029710                    000297100000000000000109                     I0229710     20121800000000035003410000017N291018104700000000000102012180000000000000000000000000000000000000000100069974578787ANTONIA RIBEIRO RAPOSO                  RUA: SENADOR TOMAS RODRIGUES            SEPETIBA    23545280RIO DE JANEIRO RJUNIAO UMB DOS CULTOS AFRO BRAS    20121810 000011
10231987175000168817800093673    000028212                    000282120000000000000109                     I0228212     30111800000000035003410000017N200818104700000000000103011180000000000000000000000000000000000000000100005361904708VANESSA SANTIAGO DE AZEVEDO BA          RUA SALDANHA DA GAMA                    ENGENHO DO P25015295DUQUE DE CAXIASRJUNIAO UMB DOS CULTOS AFRO BRAS    30111810 000012
9                                                                                                                                                                                                                                                                                                                                                                                                         000013
