01REMESSA01COBRANCA       916200163100        União Umb dos Cultos Afro Bra341BANCO ITAU SA  090519                                                                                                                                                                                                                                                                                                      000001
10231987175000168916200163100    000044150                    000441500000000000000109                     I0244150     30061900000000040003410000017N130319105700000000000103006190000000000000000000000000000000000000000100011639602763PAULO HUMBERTO AZEVEDO PONTE J          AVENIDA: MARECHAL RONDONN 1037, SOBRADO SAO FRANCISC20950003RIO DE JANEIRO RJUNIAO UMB DOS CULTOS AFRO BRAS    30061915 000002
10231987175000168916200163100    000043614                    000436140000000000000109                     I0243614     30061900000000040003410000017N130319105700000000000103006190000000000000000000000000000000000000000100039828425734DIANA CORREA                            RUA: RIO DAS PEDRAS N 98,               OSWALDO CRUZ21351370RIO DE JANEIRO RJUNIAO UMB DOS CULTOS AFRO BRAS    30061915 000003
10231987175000168916200163100    000043295                    000432950000000000000109                     I0243295     30061900000000040003410000017N130319105700000000000103006190000000000000000000000000000000000000000100096143967768MARIA CANDIDA BRANDAO ALVES             RUA MARLICE EMANUELN 155,               JARDIM ALVOR26265230NOVA IGUACU    RJUNIAO UMB DOS CULTOS AFRO BRAS    30061915 000004
10231987175000168916200163100    000043207                    000432070000000000000109                     I0243207     30061900000000040003410000017N130319105700000000000103006190000000000000000000000000000000000000000100004125947732FABIO DA FONSECA PAES                   RUA JOAQUIM COUTON 145,                 VILA JURANDI25540370SAO JOAO DE MERRJUNIAO UMB DOS CULTOS AFRO BRAS    30061915 000005
10231987175000168916200163100    000042504                    000425040000000000000109                     I0242504     30051900000000040003410000017N130319105700000000000103005190000000000000000000000000000000000000000100011639602763PAULO HUMBERTO AZEVEDO PONTE J          AVENIDA: MARECHAL RONDONN 1037, SOBRADO SAO FRANCISC20950003RIO DE JANEIRO RJUNIAO UMB DOS CULTOS AFRO BRAS    30051915 000006
10231987175000168916200163100    000041970                    000419700000000000000109                     I0241970     30051900000000040003410000017N130319105700000000000103005190000000000000000000000000000000000000000100039828425734DIANA CORREA                            RUA: RIO DAS PEDRAS N 98,               OSWALDO CRUZ21351370RIO DE JANEIRO RJUNIAO UMB DOS CULTOS AFRO BRAS    30051915 000007
10231987175000168916200163100    000041655                    000416550000000000000109                     I0241655     30051900000000040003410000017N130319105700000000000103005190000000000000000000000000000000000000000100096143967768MARIA CANDIDA BRANDAO ALVES             RUA MARLICE EMANUELN 155,               JARDIM ALVOR26265230NOVA IGUACU    RJUNIAO UMB DOS CULTOS AFRO BRAS    30051915 000008
10231987175000168916200163100    000041567                    000415670000000000000109                     I0241567     30051900000000040003410000017N130319105700000000000103005190000000000000000000000000000000000000000100004125947732FABIO DA FONSECA PAES                   RUA JOAQUIM COUTON 145,                 VILA JURANDI25540370SAO JOAO DE MERRJUNIAO UMB DOS CULTOS AFRO BRAS    30051915 000009
10231987175000168916200163100    000040867                    000408670000000000000109                     I0240867     30041900000000040003410000017N120319105700000000000103004190000000000000000000000000000000000000000100011639602763PAULO HUMBERTO AZEVEDO PONTE J          AVENIDA: MARECHAL RONDONN 1037, SOBRADO SAO FRANCISC20950003RIO DE JANEIRO RJUNIAO UMB DOS CULTOS AFRO BRAS    30041915 000010
10231987175000168916200163100    000040442                    000404420000000000000109                     I0240442     30041900000000040003410000017N120319105700000000000103004190000000000000000000000000000000000000000100043194869787JORGE PINHEIRO DE ALMEIDA               RUA CERQUEIRA CESAR N 121, CASA 1       MADUREIRA   21351070RIO DE JANEIRO RJUNIAO UMB DOS CULTOS AFRO BRAS    30041915 000011
10231987175000168916200163100    000040210                    000402100000000000000109                     I0240210     30041900000000040003410000017N120319105700000000000103004190000000000000000000000000000000000000000100058924477749MARIA DAS GRACAS AZEVEDO RIBEI          RUA ABIGAIL GUIMARAESN 35, BLOCO B2 AP 3VILA ZULMIRA25540070SAO JOAO DE MERRJUNIAO UMB DOS CULTOS AFRO BRAS    30041915 000012
9                                                                                                                                                                                                                                                                                                                                                                                                         000013
