01REMESSA01COBRANCA       916200163100        União Umb dos Cultos Afro Bra341BANCO ITAU SA  010419                                                                                                                                                                                                                                                                                                      000001
10231987175000168916200163100    000044943                    000449430000000000000109                     I0144943     30041900000000040003410000017N010419104700000000000103004190000000000000000000000000000000000000000100003421567727MARIA JOSE CAVALCANTE RAMIREZ           RUA: GENERAL AUGUSTO SISSON N 478,      ANCHIETA    21635220RIO DE JANEIRO RJUNIAO UMB DOS CULTOS AFRO BRAS    30041910 000002
10231987175000168916200163100    000044942                    000449420000000000000109                     I0144942     19041900000000120003410000017N010419104700000000000101904190000000000000000000000000000000000000000100008091112769ALINE BEATRIZ GARCIA DA SILVA           RUA ENGENHEIRO HENRIQUE LUSSACK N 936,  CENTRO      26553500MESQUITA       RJUNIAO UMB DOS CULTOS AFRO BRAS    19041910 000003
10231987175000168916200163100    000044941                    000449410000000000000109                     I0144941     05041900000000360003410000017N010419104700000000000100504190000000000000000000000000000000000000000100000921417730IVANILDA MARIA DE OLIVEIRA              RUA: DIAMANTINENSE N 60, CASA 2         ENGENHEIRO P26420150JAPERI         RJUNIAO UMB DOS CULTOS AFRO BRAS    05041910 000004
10231987175000168916200163100    000044940                    000449400000000000000109                     I0144940     30041900000000120003410000017N010419104700000000000103004190000000000000000000000000000000000000000100086374370791IVETE SILVA GOMES                       RUA SEISN 0, LOTE 329                   GEBARA - ITA24867416NITEROI        RJUNIAO UMB DOS CULTOS AFRO BRAS    30041910 000005
10231987175000168916200163100    000044939                    000449390000000000000109                     I0144939     30061900000000040003410000017N010419104700000000000103006190000000000000000000000000000000000000000100037408887768GEORGE FERNANDO OLIVEIRA PAIXA          RUA IRITUIAN 119,                       BRAZ DE PINA21215090RIO DE JANEIRO RJUNIAO UMB DOS CULTOS AFRO BRAS    30061910 000006
10231987175000168916200163100    000044938                    000449380000000000000109                     I0144938     30051900000000040003410000017N010419104700000000000103005190000000000000000000000000000000000000000100037408887768GEORGE FERNANDO OLIVEIRA PAIXA          RUA IRITUIAN 119,                       BRAZ DE PINA21215090RIO DE JANEIRO RJUNIAO UMB DOS CULTOS AFRO BRAS    30051910 000007
10231987175000168916200163100    000044937                    000449370000000000000109                     I0144937     30041900000000040003410000017N010419104700000000000103004190000000000000000000000000000000000000000100037408887768GEORGE FERNANDO OLIVEIRA PAIXA          RUA IRITUIAN 119,                       BRAZ DE PINA21215090RIO DE JANEIRO RJUNIAO UMB DOS CULTOS AFRO BRAS    30041910 000008
10231987175000168916200163100    000044936                    000449360000000000000109                     I0144936     10041900000000080003410000017N010419104700000000000101004190000000000000000000000000000000000000000100007717387735VALNICE DA SILVA RODRIGUES MEN          TRAVESSA NOVEN 35, BNH                  VILA VELHA (25912185MAGE           RJUNIAO UMB DOS CULTOS AFRO BRAS    10041910 000009
10231987175000168916200163100    000044669                    000446690000000000000109                     I0244669     30061900000000040003410000017N130319104700000000000103006190000000000000000000000000000000000000000100093521987787KATIA CRISTINA DANNEMBERG               ESTRADA DO PORTINHON 149, CASA          IRAJA       21235400RIO DE JANEIRO RJUNIAO UMB DOS CULTOS AFRO BRAS    30061910 000010
10231987175000168916200163100    000044346                    000443460000000000000109                     I0244346     30061900000000040003410000017N130319104700000000000103006190000000000000000000000000000000000000000100042897297700JOSE CARLOS LOUREIRO CORTEZ             RUA JOAO LUSON 215,                     REALENGO    21765620RIO DE JANEIRO RJUNIAO UMB DOS CULTOS AFRO BRAS    30061910 000011
10231987175000168916200163100    000043873                    000438730000000000000109                     I0243873     30061900000000040003410000017N130319104700000000000103006190000000000000000000000000000000000000000100007893369795CINTIA DE MENEZES MELO                  RUA HERCULANO PENAN 39,                 CAVALCANTI  21381410RIO DE JANEIRO RJUNIAO UMB DOS CULTOS AFRO BRAS    30061910 000012
10231987175000168916200163100    000043429                    000434290000000000000109                     I0243429     30061900000000040003410000017N130319104700000000000103006190000000000000000000000000000000000000000100043248730706BRAULIO ESPINI RIBEIRO                  RUA EMBOABAN 7, QUADRA E - PARQUE COLONILOTE XV     26180060BELFORD ROXO   RJUNIAO UMB DOS CULTOS AFRO BRAS    30061910 000013
10231987175000168916200163100    000043179                    000431790000000000000109                     I0243179     30061900000000040003410000017N130319104700000000000103006190000000000000000000000000000000000000000100043171974720ELISABETH AUGUSTO DA COSTA              RUA INDAIATUBA N 135,                   IRAJA       21231000RIO DE JANEIRO RJUNIAO UMB DOS CULTOS AFRO BRAS    30061910 000014
10231987175000168916200163100    000042698                    000426980000000000000109                     I0242698     30051900000000040003410000017N130319104700000000000103005190000000000000000000000000000000000000000100042897297700JOSE CARLOS LOUREIRO CORTEZ             RUA JOAO LUSON 215,                     REALENGO    21765620RIO DE JANEIRO RJUNIAO UMB DOS CULTOS AFRO BRAS    30051910 000015
10231987175000168916200163100    000042228                    000422280000000000000109                     I0242228     30051900000000040003410000017N130319104700000000000103005190000000000000000000000000000000000000000100007893369795CINTIA DE MENEZES MELO                  RUA HERCULANO PENAN 39,                 CAVALCANTI  21381410RIO DE JANEIRO RJUNIAO UMB DOS CULTOS AFRO BRAS    30051910 000016
10231987175000168916200163100    000041786                    000417860000000000000109                     I0241786     30051900000000040003410000017N130319104700000000000103005190000000000000000000000000000000000000000100043248730706BRAULIO ESPINI RIBEIRO                  RUA EMBOABAN 7, QUADRA E - PARQUE COLONILOTE XV     26180060BELFORD ROXO   RJUNIAO UMB DOS CULTOS AFRO BRAS    30051910 000017
10231987175000168916200163100    000041372                    000413720000000000000109                     I0241372     30041900000000040003410000017N120319104700000000000103004190000000000000000000000000000000000000000100093521987787KATIA CRISTINA DANNEMBERG               ESTRADA DO PORTINHON 149, CASA          IRAJA       21235400RIO DE JANEIRO RJUNIAO UMB DOS CULTOS AFRO BRAS    30041910 000018
10231987175000168916200163100    000041059                    000410590000000000000109                     I0241059     30041900000000040003410000017N120319104700000000000103004190000000000000000000000000000000000000000100042897297700JOSE CARLOS LOUREIRO CORTEZ             RUA JOAO LUSON 215,                     REALENGO    21765620RIO DE JANEIRO RJUNIAO UMB DOS CULTOS AFRO BRAS    30041910 000019
10231987175000168916200163100    000040593                    000405930000000000000109                     I0240593     30041900000000040003410000017N120319104700000000000103004190000000000000000000000000000000000000000100007893369795CINTIA DE MENEZES MELO                  RUA HERCULANO PENAN 39,                 CAVALCANTI  21381410RIO DE JANEIRO RJUNIAO UMB DOS CULTOS AFRO BRAS    30041910 000020
10231987175000168916200163100    000040153                    000401530000000000000109                     I0240153     30041900000000040003410000017N120319104700000000000103004190000000000000000000000000000000000000000100043248730706BRAULIO ESPINI RIBEIRO                  RUA EMBOABAN 7, QUADRA E - PARQUE COLONILOTE XV     26180060BELFORD ROXO   RJUNIAO UMB DOS CULTOS AFRO BRAS    30041910 000021
9                                                                                                                                                                                                                                                                                                                                                                                                         000022
