01REMESSA01COBRANCA       817800093673        União Umb dos Cultos Afro Bra341BANCO ITAU SA  100118                                                                                                                                                                                                                                                                                                      000001
10231987175000168817800093673    00009009                     000090090000000000000109                     I019009      12021800000000455003410000017N100118050900000000000101202180000000000000000000000000000000000000000100002309597767ELISETE DE SOUZA GOMES                  RUA CLEIDE TAVORA N 87 CASA 1           MONTE CASTEL26041145NOVA IGUACU    RJUNIAO UMB DOS CULTOS AFRO BRAS    12021810 000002
10231987175000168817800093673    00009008                     000090080000000000000109                     I019008      30011800000000280003410000017N100118050900000000000103001180000000000000000000000000000000000000000100037497928791ANASTACIA CANDIDO RAIMUNDO              RUA ALAMEDA 33 - CHAO DE ESTRELAS N 84  PAVUNA - RIO21521100RIO DE JANEIRO RJUNIAO UMB DOS CULTOS AFRO BRAS    30011810 000003
10231987175000168817800093673    00008285                     000082850000000000000109                     I028285      28021800000000035003410000017N291217050900000000000102802180000000000000000000000000000000000000000100007399837767CINTIA SILVA MIRANDA                    RUA COSTA RICA, 30 APTO 202             PENHA - RJ  21020340RIO DE JANEIRO RJUNIAO UMB DOS CULTOS AFRO BRAS    28021810 000004
10231987175000168817800093673    00007879                     000078790000000000000109                     I017879      28021800000000035003410000017N291217050900000000000102802180000000000000000000000000000000000000000100001080847790BENTO FRANCISCO DE LIMA NETO            RUA PITANGAS, 36 A - TIJUQUINHA         BARRA DA TIJ22713330RIO DE JANEIRO RJUNIAO UMB DOS CULTOS AFRO BRAS    28021810 000005
10231987175000168817800093673    00005334                     000053340000000000000109                     I025334      31011800000000035003410000017N261217050900000000000103101180000000000000000000000000000000000000000100004462221788ALEXANDRO JULIO DE SOUZA                RUA CORURIPE, 410                       MARECHAL HER21555490RIO DE JANEIRO RJUNIAO UMB DOS CULTOS AFRO BRAS    31011810 000006
10231987175000168817800093673    00005322                     000053220000000000000109                     I025322      31011800000000035003410000017N261217050900000000000103101180000000000000000000000000000000000000000100000218582765LUIZ CARLOS DO AMARAL                   RUA TRIMONTE QUADRA 9 LOTE 44           PARQUE BOM R25223820DUQUE DE CAXIASRJUNIAO UMB DOS CULTOS AFRO BRAS    31011810 000007
10231987175000168817800093673    00005290                     000052900000000000000109                     I025290      31011800000000035003410000017N261217050900000000000103101180000000000000000000000000000000000000000100077597443749RONALDO SILVA DOS SANTOS                RUA: ITAPECERICA N 265 CASA 5           REALENGO - R21730190RIO DE JANEIRO RJUNIAO UMB DOS CULTOS AFRO BRAS    31011810 000008
10231987175000168817800093673    00005124                     000051240000000000000109                     I025124      31011800000000035003410000017N261217050900000000000103101180000000000000000000000000000000000000000100059195711791ELOISA HELENA PEREIRA NUNES             RUA BOAIACA, 330                        BENTO RIBEIR21331600RIO DE JANEIRO RJUNIAO UMB DOS CULTOS AFRO BRAS    31011810 000009
10231987175000168817800093673    00004841                     000048410000000000000109                     I014841      31011800000000035003410000017N261217050900000000000103101180000000000000000000000000000000000000000100003761710739ALMIRA DE SOUZA SANTOS                  RUA CARMELITA DE JESUS, LOTE 6 QUADRA 3 ELISA MARIA 23076440RIO DE JANEIRO RJUNIAO UMB DOS CULTOS AFRO BRAS    31011810 000010
10231987175000168817800093673    00004763                     000047630000000000000109                     I024763      10011800000000350003410000017N121217050900000000000101001180000000000000000000000000000000000000000100044415443753ELIDE LEANDRO BARBOSA                   RUA: ENGENHEIRO PERICLES RIBEIRO        FONSECA     24130350NITEROI        RJUNIAO UMB DOS CULTOS AFRO BRAS    10011810 000011
10231987175000168817800093673    00001068                     000010680000000000000109                     I011068      20121700000000350003410000017N241017050900000000000102012170000000000000000000000000000000000000000100004324447772IVO DE CARVALHO                         RUA SAO BRAZ, 68 BLOCO 3 APTO 204       TODOS OS SAN20770150RIO DE JANEIRO RJUNIAO UMB DOS CULTOS AFRO BRAS    20121710 000012
10231987175000168817800093673    00001067                     000010670000000000000109                     I011067      20121700000000300003410000017N241017050900000000000102012170000000000000000000000000000000000000000100050742775715DOMINGAS APRIGIO DOS SANTOS             RUA GENERAL JOAO SARAIVA, 5             ARNALDO EUGE23016340RIO DE JANEIRO RJUNIAO UMB DOS CULTOS AFRO BRAS    20121710 000013
10231987175000168817800093673    00001037                     000010370000000000000109                     I341037      20121700000000340003410000017N241017050900000000000102012170000000000000000000000000000000000000000100049159194715SEBASTIANA MARTINS SENA                 RUA JAPEGOA, 24                         BRAS DE PINA21011180RIO DE JANEIRO RJUNIAO UMB DOS CULTOS AFRO BRAS    20121710 000014
10231987175000168817800093673    00001021                     000010210000000000000109                     I011021      20121700000000340003410000017N241017050900000000000102012170000000000000000000000000000000000000000100001080847790BENTO FRANCISCO DE LIMA NETO            RUA PITANGAS, 36 A - TIJUQUINHA         BARRA DA TIJ22713330RIO DE JANEIRO RJUNIAO UMB DOS CULTOS AFRO BRAS    20121710 000015
10231987175000168817800093673    0000666                      000006660000000000000109                     I02666       20121700000000340003410000017N171017050900000000000102012170000000000000000000000000000000000000000100054329824591CATIA DE SOUZA DALTRO                   RUA FREDERICO LIMA N 180                MADUREIRA - 21360280RIO DE JANEIRO RJUNIAO UMB DOS CULTOS AFRO BRAS    20121710 000016
10231987175000168817800093673    0000466                      000004660000000000000109                     I34466       10011800000000350003410000017N101017050900000000000101001180000000000000000000000000000000000000000100007399837767CINTIA SILVA MIRANDA                    RUA COSTA RICA, 30 APTO 202             PENHA - RJ  21020340RIO DE JANEIRO RJUNIAO UMB DOS CULTOS AFRO BRAS    10011810 000017
10231987175000168817800093673    0000221                      000002210000000000000109                     I02221       20121700000000340003410000017N101017050900000000000102012170000000000000000000000000000000000000000100034194924720DELSON ANDRE DO NASCIMENTO              RUA TRES, 152                           CORUMBA - NO26033530NOVA IGUACU    RJUNIAO UMB DOS CULTOS AFRO BRAS    20121710 000018
10231987175000168817800093673    0000166                      000001660000000000000109                     I02166       20121700000000350003410000017N101017050900000000000102012170000000000000000000000000000000000000000100094051259749VANDA DA SILVA BARBOSA                  RUA MARIA DA GLORIA SANTOS, 13          SAO FERNANDO23565230RIO DE JANEIRO RJUNIAO UMB DOS CULTOS AFRO BRAS    20121710 000019
10231987175000168817800093673    000091                       000000910000000000000109                     I0191        20121700000000340003410000017N101017050900000000000102012170000000000000000000000000000000000000000100001974132773PEDRINA FERREIRA LOPES                  AVENIDA PERIMETRAL TANCREDO NEVES N 1405VILA SAO LUI25065090DUQUE DE CAXIASRJUNIAO UMB DOS CULTOS AFRO BRAS    20121710 000020
9                                                                                                                                                                                                                                                                                                                                                                                                         000021
