01REMESSA01COBRANCA       817800093673        União Umb dos Cultos Afro Bra341BANCO ITAU SA  020418                                                                                                                                                                                                                                                                                                      000001
10231987175000168817800093673    00001429                     000014290000000000000109                     I021429      20121700000000210003410000017N251017104700000000000102012170000000000000000000000000000000000000000200000000002142JORGE PAIXAO MESQUITA ROSA              RUA CORONEL TAMARINDO, 2810             BANGU - RJ  21840447RIO DE JANEIRO RJUNIAO UMB DOS CULTOS AFRO BRAS    20121710 000002
9                                                                                                                                                                                                                                                                                                                                                                                                         000003
