01REMESSA01COBRANCA       916200163100        União Umb dos Cultos Afro Bra341BANCO ITAU SA  090118                                                                                                                                                                                                                                                                                                      000001
10231987175000168916200163100    00009007                     000090070000000000000109                     I019007      28021800000000035003410000017N090118050900000000000102802180000000000000000000000000000000000000000100004275325745MAIKE OLIVEIRA DA COSTA                 TRAVESSA: MARTA DA ROCHA                ABOLICAO    20755030RIO DE JANEIRO RJUNIAO UMB DOS CULTOS AFRO BRAS    28021810 000002
10231987175000168916200163100    00009006                     000090060000000000000109                     I019006      12021800000000300003410000017N090118050900000000000101202180000000000000000000000000000000000000000100043076327704MARIA AMELIA RIBEIRO                    RUA: GENTIL DE ALMEIDA                  HONORIO GURG21511110RIO DE JANEIRO RJUNIAO UMB DOS CULTOS AFRO BRAS    12021810 000003
10231987175000168916200163100    00009005                     000090050000000000000109                     I019005      18011800000000350003410000017N090118050900000000000101801180000000000000000000000000000000000000000100008267557717MARCIA REGINA FELIPE DE SOUZA           ESTRADA DO MENDANHA LOTE 2 QUADRA O     MENDANHA - C23087283RIO DE JANEIRO RJUNIAO UMB DOS CULTOS AFRO BRAS    18011810 000004
10231987175000168916200163100    00009004                     000090040000000000000109                     I019004      12021800000000385003410000017N090118050900000000000101202180000000000000000000000000000000000000000100003028407701MARIA MARINETE OLIVEIRA  DA SI          RUA TURIUVA LOTE 40 QUADRA 54           VILA MELIPOL26150000BELFORD ROXO   RJUNIAO UMB DOS CULTOS AFRO BRAS    12021810 000005
10231987175000168916200163100    00008720                     000087200000000000000109                     I028720      31011800000000035003410000017N020118050900000000000103101180000000000000000000000000000000000000000100034194924720DELSON ANDRE DO NASCIMENTO              RUA TRES, 152                           CORUMBA - NO26033530NOVA IGUACU    RJUNIAO UMB DOS CULTOS AFRO BRAS    31011810 000006
10231987175000168916200163100    00008701                     000087010000000000000109                     I028701      31011800000000035003410000017N020118050900000000000103101180000000000000000000000000000000000000000100094051259749VANDA DA SILVA BARBOSA                  RUA MARIA DA GLORIA SANTOS, 13          SAO FERNANDO23565230RIO DE JANEIRO RJUNIAO UMB DOS CULTOS AFRO BRAS    31011810 000007
10231987175000168916200163100    00008491                     000084910000000000000109                     I028491      31011800000000035003410000017N020118050900000000000103101180000000000000000000000000000000000000000100054329824591CATIA DE SOUZA DALTRO                   RUA FREDERICO LIMA N 180                MADUREIRA - 21360280RIO DE JANEIRO RJUNIAO UMB DOS CULTOS AFRO BRAS    31011810 000008
10231987175000168916200163100    00008462                     000084620000000000000109                     I018462      31011800000000035003410000017N020118050900000000000103101180000000000000000000000000000000000000000100050742775715DOMINGAS APRIGIO DOS SANTOS             RUA GENERAL JOAO SARAIVA, 5             ARNALDO EUGE23016340RIO DE JANEIRO RJUNIAO UMB DOS CULTOS AFRO BRAS    31011810 000009
10231987175000168916200163100    00003581                     000035810000000000000109                     I023581      22121700000000350003410000017N171117050900000000000102212170000000000000000000000000000000000000000100059195711791ELOISA HELENA PEREIRA NUNES             RUA BOAIACA, 330                        BENTO RIBEIR21331600RIO DE JANEIRO RJUNIAO UMB DOS CULTOS AFRO BRAS    22121710 000010
10231987175000168916200163100    00003387                     000033870000000000000109                     I013387      22121700000000350003410000017N171117050900000000000102212170000000000000000000000000000000000000000100003028407701MARIA MARINETE OLIVEIRA  DA SI          RUA TURIUVA LOTE 40 QUADRA 54           VILA MELIPOL26150000BELFORD ROXO   RJUNIAO UMB DOS CULTOS AFRO BRAS    22121710 000011
10231987175000168916200163100    00002554                     000025540000000000000109                     I022554      31121700000000035003410000017N131117050900000000000103112170000000000000000000000000000000000000000100012254455745LUIZ DE OLIVEIRA NERY NETO              O MESMO                                 O MESMO     20710070RIO DE JANEIRO RJUNIAO UMB DOS CULTOS AFRO BRAS    31121710 000012
10231987175000168916200163100    00001894                     000018940000000000000109                     I011894      31121700000000035003410000017N131117050900000000000103112170000000000000000000000000000000000000000100003028407701MARIA MARINETE OLIVEIRA  DA SI          RUA TURIUVA LOTE 40 QUADRA 54           VILA MELIPOL26150000BELFORD ROXO   RJUNIAO UMB DOS CULTOS AFRO BRAS    31121710 000013
9                                                                                                                                                                                                                                                                                                                                                                                                         000014
