01REMESSA01COBRANCA       916200163100        União Umb dos Cultos Afro Bra341BANCO ITAU SA  020419                                                                                                                                                                                                                                                                                                      000001
10231987175000168916200163100    000044976                    000449760000000000000109                     I0144976     30061900000000040003410000017N020419104700000000000103006190000000000000000000000000000000000000000100008101009752CECY MAIA NERY                          RUA PIAIBAN 147,                        BRAZ DE PINA21215290RIO DE JANEIRO RJUNIAO UMB DOS CULTOS AFRO BRAS    30061910 000002
10231987175000168916200163100    000044975                    000449750000000000000109                     I0144975     30051900000000040003410000017N020419104700000000000103005190000000000000000000000000000000000000000100008101009752CECY MAIA NERY                          RUA PIAIBAN 147,                        BRAZ DE PINA21215290RIO DE JANEIRO RJUNIAO UMB DOS CULTOS AFRO BRAS    30051910 000003
10231987175000168916200163100    000044974                    000449740000000000000109                     I0144974     30041900000000040003410000017N020419104700000000000103004190000000000000000000000000000000000000000100008101009752CECY MAIA NERY                          RUA PIAIBAN 147,                        BRAZ DE PINA21215290RIO DE JANEIRO RJUNIAO UMB DOS CULTOS AFRO BRAS    30041910 000004
10231987175000168916200163100    000044973                    000449730000000000000109                     I0144973     10041900000000040003410000017N020419104700000000000101004190000000000000000000000000000000000000000100081972148753JORGE ALVES DE MEDEIROS                 RUA LILAZES N 13, PARQUE FLORESTA       TRES SETAS  26171450BELFORD ROXO   RJUNIAO UMB DOS CULTOS AFRO BRAS    10041910 000005
10231987175000168916200163100    000044972                    000449720000000000000109                     I0144972     10051900000000400003410000017N020419104700000000000101005190000000000000000000000000000000000000000100098868136791MONICA SOBREIRA DE ALMEIDA              RUA: AMANDIU N 45,                      IRAJA       21371440RIO DE JANEIRO RJUNIAO UMB DOS CULTOS AFRO BRAS    10051910 000006
10231987175000168916200163100    000044971                    000449710000000000000109                     I0144971     30061900000000040003410000017N020419104700000000000103006190000000000000000000000000000000000000000100073918784720CLAUDIO GOMES DA SILVA                  RUA JABOTIANAN 25,                      ROCHA MIRAND21540670RIO DE JANEIRO RJUNIAO UMB DOS CULTOS AFRO BRAS    30061910 000007
10231987175000168916200163100    000044970                    000449700000000000000109                     I0144970     30051900000000040003410000017N020419104700000000000103005190000000000000000000000000000000000000000100073918784720CLAUDIO GOMES DA SILVA                  RUA JABOTIANAN 25,                      ROCHA MIRAND21540670RIO DE JANEIRO RJUNIAO UMB DOS CULTOS AFRO BRAS    30051910 000008
10231987175000168916200163100    000044969                    000449690000000000000109                     I0144969     30041900000000040003410000017N020419104700000000000103004190000000000000000000000000000000000000000100073918784720CLAUDIO GOMES DA SILVA                  RUA JABOTIANAN 25,                      ROCHA MIRAND21540670RIO DE JANEIRO RJUNIAO UMB DOS CULTOS AFRO BRAS    30041910 000009
10231987175000168916200163100    000044968                    000449680000000000000109                     I0144968     30041900000000080003410000017N020419104700000000000103004190000000000000000000000000000000000000000100011140864793CLAUDIA THEODORO                        RUA VINTE E NOVE DE SETEMBRON 1760,     CARAMBITA   27600000VALENCA        RJUNIAO UMB DOS CULTOS AFRO BRAS    30041910 000010
10231987175000168916200163100    000044967                    000449670000000000000109                     I0144967     30041900000000400003410000017N020419104700000000000103004190000000000000000000000000000000000000000100000916014797ANGELA DA SILVA RIBEIRO                 TRAVESSA CARLOS SAMPAION 28,            VILA ZENITE 26088040NOVA IGUACU    RJUNIAO UMB DOS CULTOS AFRO BRAS    30041910 000011
10231987175000168916200163100    000044966                    000449660000000000000109                     I0144966     26041900000000120003410000017N020419104700000000000102604190000000000000000000000000000000000000000100005206095737FLORIPES RAMOS DE FARIAS                RUA ONESIO MANOEL BELARMINO N 75,       ANCHIETA    21625330RIO DE JANEIRO RJUNIAO UMB DOS CULTOS AFRO BRAS    26041910 000012
10231987175000168916200163100    000044965                    000449650000000000000109                     I0144965     28061900000000040003410000017N020419104700000000000102806190000000000000000000000000000000000000000100005443030752CRISTINA GONCALVES DA SILVA BR          RUA GENERAL CARVALHO N 1250, CASA 5     CORDOVIL    21250240RIO DE JANEIRO RJUNIAO UMB DOS CULTOS AFRO BRAS    28061910 000013
10231987175000168916200163100    000044964                    000449640000000000000109                     I0144964     31051900000000040003410000017N020419104700000000000103105190000000000000000000000000000000000000000100005443030752CRISTINA GONCALVES DA SILVA BR          RUA GENERAL CARVALHO N 1250, CASA 5     CORDOVIL    21250240RIO DE JANEIRO RJUNIAO UMB DOS CULTOS AFRO BRAS    31051910 000014
10231987175000168916200163100    000044305                    000443050000000000000109                     I0244305     30061900000000040003410000017N130319104700000000000103006190000000000000000000000000000000000000000100086873130710NOEMIA PEREIRA LOPES                    RUA WILSON ARAUJON 2172,                XEREM       25250460DUQUE DE CAXIASRJUNIAO UMB DOS CULTOS AFRO BRAS    30061910 000015
10231987175000168916200163100    000042657                    000426570000000000000109                     I0242657     30051900000000040003410000017N130319104700000000000103005190000000000000000000000000000000000000000100086873130710NOEMIA PEREIRA LOPES                    RUA WILSON ARAUJON 2172,                XEREM       25250460DUQUE DE CAXIASRJUNIAO UMB DOS CULTOS AFRO BRAS    30051910 000016
10231987175000168916200163100    000041435                    000414350000000000000109                     I0241435     30041900000000040003410000017N120319104700000000000103004190000000000000000000000000000000000000000100032140649320ROSA ELENA ALVES DA COSTA               RUA: NILTON CORDEIRON 57, CASA          MARE        21044052RIO DE JANEIRO RJUNIAO UMB DOS CULTOS AFRO BRAS    30041910 000017
10231987175000168916200163100    000041019                    000410190000000000000109                     I0241019     30041900000000040003410000017N120319104700000000000103004190000000000000000000000000000000000000000100086873130710NOEMIA PEREIRA LOPES                    RUA WILSON ARAUJON 2172,                XEREM       25250460DUQUE DE CAXIASRJUNIAO UMB DOS CULTOS AFRO BRAS    30041910 000018
9                                                                                                                                                                                                                                                                                                                                                                                                         000019
