01REMESSA01COBRANCA       916200163100        União Umb dos Cultos Afro Bra341BANCO ITAU SA  040719                                                                                                                                                                                                                                                                                                      000001
10231987175000168916200163100    000045235                    000452350000000000000109                     I0245235     10051900000000040003410000017N070519105700000000000131005190000000000000000000000000000000000000000100005541292727CAROLINA DA SILVA CARDOSO               RUA MONODORAN 552,                      GARDENIA AZU22765590RIO DE JANEIRO RJUNIAO UMB DOS CULTOS AFRO BRAS    10051915 000002
21100520190000000000080                                                                                                                                                                                                                                                                                                                                                                                   000003
10231987175000168916200163100    000045170                    000451700000000000000109                     I0245170     20051900000000400003410000017N290419105700000000001322005190000000000000000000000000000000000000000100001403243727FRANCISCA NEILA SILVA DE MENDO          RUA PANAMAN 651,                        SAO JOSE    92420060CANOAS         RSUNIAO UMB DOS CULTOS AFRO BRAS    20051915 000004
21200520190000000000800                                                                                                                                                                                                                                                                                                                                                                                   000005
10231987175000168916200163100    000045153                    000451530000000000000109                     I0245153     22051900000000040003410000017N290419105700000000000132205190000000000000000000000000000000000000000100001796220728MARIA ROSA ALVES DA SILVA               RUA DOUTOR JOAQUIM OTTONIN 389,         PARQUE SENHO25025325DUQUE DE CAXIASRJUNIAO UMB DOS CULTOS AFRO BRAS    22051915 000006
21220520190000000000080                                                                                                                                                                                                                                                                                                                                                                                   000007
10231987175000168916200163100    000045150                    000451500000000000000109                     I0245150     10051900000000240003410000017N290419105700000000000791005190000000000000000000000000000000000000000100008478002707ALEXSANDRO JOAO MARTINS                 RUA CARMO DO RIO CLARON 266,            SAO GABRIEL 26021830NOVA IGUACU    RJUNIAO UMB DOS CULTOS AFRO BRAS    10051915 000008
21100520190000000000480                                                                                                                                                                                                                                                                                                                                                                                   000009
10231987175000168916200163100    000045115                    000451150000000000000109                     I0245115     06051900000000080003410000017N250419105700000000000260605190000000000000000000000000000000000000000100004474701755JACIRA DE ALMEIDA BATISTA JULI          AVENIDA SAO PAULON 0, LOTE 11 QUADRA 18 PARQUE MARIL25225660DUQUE DE CAXIASRJUNIAO UMB DOS CULTOS AFRO BRAS    06051915 000010
21060520190000000000160                                                                                                                                                                                                                                                                                                                                                                                   000011
10231987175000168916200163100    000045104                    000451040000000000000109                     I0245104     17051900000000080003410000017N240419105700000000000261705190000000000000000000000000000000000000000100065096100782TANIA REGINA FIRMINO                    RUA PARAN 13,                           JARDIM VISTA25235202DUQUE DE CAXIASRJUNIAO UMB DOS CULTOS AFRO BRAS    17051915 000012
21170520190000000000160                                                                                                                                                                                                                                                                                                                                                                                   000013
10231987175000168916200163100    000045090                    000450900000000000000109                     I0245090     20051900000000350003410000017N240419105700000000001162005190000000000000000000000000000000000000000100003159130452VICENTE FELICIO DA SILVA                RUA LUIZA NEOFILA PIMENTAN 156,         ALTO DA CAPE59680000CAMPO GRANDE   RNUNIAO UMB DOS CULTOS AFRO BRAS    20051915 000014
21200520190000000000700                                                                                                                                                                                                                                                                                                                                                                                   000015
10231987175000168916200163100    000045085                    000450850000000000000109                     I0245085     30041900000000040003410000017N180419105700000000000133004190000000000000000000000000000000000000000100005305498759ANTONIO INACIO REIS DE SOUSA            RUA EMILIA DOS SANTOSN 0, LOTE 1 QUADRA CAMPO LINDO 23898060SEROPEDICA     RJUNIAO UMB DOS CULTOS AFRO BRAS    30041915 000016
21300420190000000000080                                                                                                                                                                                                                                                                                                                                                                                   000017
10231987175000168916200163100    000045031                    000450310000000000000109                     I0245031     30041900000000200003410000017N100419105700000000000663004190000000000000000000000000000000000000000100000916700712MARIA MARGARIDA SOARES DOS SAN          RUA ANTONION 38, A                      COELHO DA RO25550100SAO JOAO DE MERRJUNIAO UMB DOS CULTOS AFRO BRAS    30041915 000018
21300420190000000000400                                                                                                                                                                                                                                                                                                                                                                                   000019
10231987175000168916200163100    000045015                    000450150000000000000109                     I0245015     30041900000000080003410000017N050419105700000000000263004190000000000000000000000000000000000000000100001147868794VALERIA APARECIDA DE SOUZA              RUA ALCYR BRASIL N 710,                 JARDIM NOVA 26266010NOVA IGUACU    RJUNIAO UMB DOS CULTOS AFRO BRAS    30041915 000020
21300420190000000000160                                                                                                                                                                                                                                                                                                                                                                                   000021
10231987175000168916200163100    000045009                    000450090000000000000109                     I0245009     30041900000000150003410000017N050419105700000000000503004190000000000000000000000000000000000000000100091930014791LUCIENE CRISTINA DE OLIVEIRA S          RUA FRANCISCO MENDES FRANCON 235,       CENTRO      27135170BARRA DO PIRAI RJUNIAO UMB DOS CULTOS AFRO BRAS    30041915 000022
21300420190000000000300                                                                                                                                                                                                                                                                                                                                                                                   000023
10231987175000168916200163100    000045008                    000450080000000000000109                     I0245008     30041900000000400003410000017N050419105700000000001323004190000000000000000000000000000000000000000100091930014791LUCIENE CRISTINA DE OLIVEIRA S          RUA FRANCISCO MENDES FRANCON 235,       CENTRO      27135170BARRA DO PIRAI RJUNIAO UMB DOS CULTOS AFRO BRAS    30041915 000024
21300420190000000000800                                                                                                                                                                                                                                                                                                                                                                                   000025
10231987175000168916200163100    000045006                    000450060000000000000109                     I0245006     30041900000000040003410000017N040419105700000000000133004190000000000000000000000000000000000000000100060586796720DENISE TAVARES ROCHA DE SOUZA           RUA LUIS BARBALHON 541, FUNDOS          ROCHA MIRAND21510110RIO DE JANEIRO RJUNIAO UMB DOS CULTOS AFRO BRAS    30041915 000026
21300420190000000000080                                                                                                                                                                                                                                                                                                                                                                                   000027
10231987175000168916200163100    000044981                    000449810000000000000109                     I0244981     30041900000000060003410000017N030419105700000000000203004190000000000000000000000000000000000000000100088763765772VERONICA CECILIA DE AGUIAR              RUA LAURELINO FREIREN 101, CASA 7       GUAXINDIBA  24722330SAO GONCALO    RJUNIAO UMB DOS CULTOS AFRO BRAS    30041915 000028
21300420190000000000120                                                                                                                                                                                                                                                                                                                                                                                   000029
10231987175000168916200163100    000044943                    000449430000000000000109                     I0244943     30041900000000040003410000017N010419105700000000000133004190000000000000000000000000000000000000000100003421567727MARIA JOSE CAVALCANTE RAMIREZ           RUA: GENERAL AUGUSTO SISSON N 478,      ANCHIETA    21635220RIO DE JANEIRO RJUNIAO UMB DOS CULTOS AFRO BRAS    30041915 000030
21300420190000000000080                                                                                                                                                                                                                                                                                                                                                                                   000031
10231987175000168916200163100    000044925                    000449250000000000000109                     I0244925     30041900000000040003410000017N290319105700000000000133004190000000000000000000000000000000000000000100001162883707SUNEY MENEZES MACHADO                   RUA ANTONIO CARLOS NETON 85, CASA 2     CAMPO GRANDE23090630RIO DE JANEIRO RJUNIAO UMB DOS CULTOS AFRO BRAS    30041915 000032
21300420190000000000080                                                                                                                                                                                                                                                                                                                                                                                   000033
10231987175000168916200163100    000044892                    000448920000000000000109                     I0244892     30041900000000040003410000017N260319105700000000000133004190000000000000000000000000000000000000000100015702435737MARCIO PEIXOTO CORREA                   RUA DO DIALOGO N 65,                    CURICICA - J22780730RIO DE JANEIRO RJUNIAO UMB DOS CULTOS AFRO BRAS    30041915 000034
21300420190000000000080                                                                                                                                                                                                                                                                                                                                                                                   000035
10231987175000168916200163100    000044875                    000448750000000000000109                     I0244875     30041900000000040003410000017N220319105700000000000133004190000000000000000000000000000000000000000100007541296759NELMA DOS ANJOS SOUZA GONCALVE          ESTRADA PEDRINHASN 23, QUADRA 8         VENDA VELHA 25580660SAO JOAO DE MERRJUNIAO UMB DOS CULTOS AFRO BRAS    30041915 000036
21300420190000000000080                                                                                                                                                                                                                                                                                                                                                                                   000037
10231987175000168916200163100    000041502                    000415020000000000000109                     I0241502     30041900000000040003410000017N120319105700000000000133004190000000000000000000000000000000000000000100013647266701WALLACE BRUNO COUTINHO PEREIRA          RUA RAFAEL WALLACE COUTINHO PEREIRA N 71SANTANA     23811437ITAGUAI        RJUNIAO UMB DOS CULTOS AFRO BRAS    30041915 000038
21300420190000000000080                                                                                                                                                                                                                                                                                                                                                                                   000039
10231987175000168916200163100    000041501                    000415010000000000000109                     I0241501     30041900000000040003410000017N120319105700000000000133004190000000000000000000000000000000000000000100001662021771ROBERTO DOS SANTOS QUEIROGA             RUA EDGAR BARBOSA N 120,                ANCHIETA    21645190RIO DE JANEIRO RJUNIAO UMB DOS CULTOS AFRO BRAS    30041915 000040
21300420190000000000080                                                                                                                                                                                                                                                                                                                                                                                   000041
10231987175000168916200163100    000041500                    000415000000000000000109                     I0241500     30041900000000040003410000017N120319105700000000000133004190000000000000000000000000000000000000000100003400539767MARIA SUELI OLIVEIRA NASCIMENT          RUA SAO FRANCISCO XAVIERN 139,          PIABETA     25931414MAGE           RJUNIAO UMB DOS CULTOS AFRO BRAS    30041915 000042
21300420190000000000080                                                                                                                                                                                                                                                                                                                                                                                   000043
10231987175000168916200163100    000041499                    000414990000000000000109                     I0241499     30041900000000040003410000017N120319105700000000000133004190000000000000000000000000000000000000000100008942864716NARA VANESSA DA SILVEIRA CASTI          AVENIDA NOVA ORLEANSN 113,              VILA CALIFOR23810210ITAGUAI        RJUNIAO UMB DOS CULTOS AFRO BRAS    30041915 000044
21300420190000000000080                                                                                                                                                                                                                                                                                                                                                                                   000045
10231987175000168916200163100    000041498                    000414980000000000000109                     I0241498     30041900000000040003410000017N120319105700000000000133004190000000000000000000000000000000000000000100010992504716RENATA BARRETO DA SILVA DUARTE          RUA DA PENHAN 44,                       VILA TIRADEN25520721SAO JOAO DE MERRJUNIAO UMB DOS CULTOS AFRO BRAS    30041915 000046
21300420190000000000080                                                                                                                                                                                                                                                                                                                                                                                   000047
10231987175000168916200163100    000041497                    000414970000000000000109                     I0241497     30041900000000040003410000017N120319105700000000000133004190000000000000000000000000000000000000000100012998933769BRUNO COSTA BATISTA                     RUA MARAPANIMN 0, LOTE 8 QUADRA 21      JARDIM PRIMA25223230DUQUE DE CAXIASRJUNIAO UMB DOS CULTOS AFRO BRAS    30041915 000048
21300420190000000000080                                                                                                                                                                                                                                                                                                                                                                                   000049
10231987175000168916200163100    000041495                    000414950000000000000109                     I0241495     30041900000000040003410000017N120319105700000000000133004190000000000000000000000000000000000000000100069893810787MARIA ALICE VENTURA                     AVENIDA DOS EX-COMBATENTESN 0, BLOCO 380SANTA CRUZ  27288110VOLTA REDONDA  RJUNIAO UMB DOS CULTOS AFRO BRAS    30041915 000050
21300420190000000000080                                                                                                                                                                                                                                                                                                                                                                                   000051
10231987175000168916200163100    000041494                    000414940000000000000109                     I0241494     30041900000000040003410000017N120319105700000000000133004190000000000000000000000000000000000000000100013845707720VAGNER MACENA DE ANDRADE                RUA MARIA HELENAN 170,                  CIDADE HORAC25931346MAGE           RJUNIAO UMB DOS CULTOS AFRO BRAS    30041915 000052
21300420190000000000080                                                                                                                                                                                                                                                                                                                                                                                   000053
10231987175000168916200163100    000041481                    000414810000000000000109                     I0241481     30041900000000040003410000017N120319105700000000000133004190000000000000000000000000000000000000000100009448785712ANDREIA SOUSA SERRA                     RUA BIRIGUIN 4464,                      BOA VISTA   24466190SAO GONCALO    RJUNIAO UMB DOS CULTOS AFRO BRAS    30041915 000054
21300420190000000000080                                                                                                                                                                                                                                                                                                                                                                                   000055
10231987175000168916200163100    000041480                    000414800000000000000109                     I0241480     30041900000000040003410000017N120319105700000000000133004190000000000000000000000000000000000000000100007717387735VALNICE DA SILVA RODRIGUES MEN          TRAVESSA NOVEN 35, BNH                  VILA VELHA (25912185MAGE           RJUNIAO UMB DOS CULTOS AFRO BRAS    30041915 000056
21300420190000000000080                                                                                                                                                                                                                                                                                                                                                                                   000057
10231987175000168916200163100    000041479                    000414790000000000000109                     I0241479     30041900000000040003410000017N120319105700000000000133004190000000000000000000000000000000000000000100008990276799VIVIANE DE AGUIAR DINIZ                 RUA RIBEYROLLES N 395,                  COELHO NETO 21530310RIO DE JANEIRO RJUNIAO UMB DOS CULTOS AFRO BRAS    30041915 000058
21300420190000000000080                                                                                                                                                                                                                                                                                                                                                                                   000059
10231987175000168916200163100    000041478                    000414780000000000000109                     I0241478     30041900000000040003410000017N120319105700000000000133004190000000000000000000000000000000000000000100004131909782SIMONE ANCHIETA DE AMORIM               RUA CAROLINA CARDOSON 0, FD LT 3 QD 1   PILAR       25233150DUQUE DE CAXIASRJUNIAO UMB DOS CULTOS AFRO BRAS    30041915 000060
21300420190000000000080                                                                                                                                                                                                                                                                                                                                                                                   000061
10231987175000168916200163100    000041473                    000414730000000000000109                     I0241473     30041900000000040003410000017N120319105700000000000133004190000000000000000000000000000000000000000229148311000184CANTINHO DO VOVO REI CONGO E O          RUA CONSELHEIRO AGOSTINHON 55, APARTAMENCACHAMBI    20770160RIO DE JANEIRO RJUNIAO UMB DOS CULTOS AFRO BRAS    30041915 000062
21300420190000000000080                                                                                                                                                                                                                                                                                                                                                                                   000063
10231987175000168916200163100    000041472                    000414720000000000000109                     I0241472     30041900000000040003410000017N120319105700000000000133004190000000000000000000000000000000000000000100005948651746DIOGO RODRIGUES DOS SANTOS              RUA PETER LUNDN 38, BLOCO 1 APT 407     SAO CRISTOVA20930390RIO DE JANEIRO RJUNIAO UMB DOS CULTOS AFRO BRAS    30041915 000064
21300420190000000000080                                                                                                                                                                                                                                                                                                                                                                                   000065
10231987175000168916200163100    000041468                    000414680000000000000109                     I0241468     30041900000000040003410000017N120319105700000000000133004190000000000000000000000000000000000000000100008109127754DAMIANA CRISTINA SILVA DOS SAN          RUA IGARAPE N 203,                      JARDIM OLAVO25025340DUQUE DE CAXIASRJUNIAO UMB DOS CULTOS AFRO BRAS    30041915 000066
21300420190000000000080                                                                                                                                                                                                                                                                                                                                                                                   000067
10231987175000168916200163100    000041467                    000414670000000000000109                     I0241467     30041900000000040003410000017N120319105700000000000133004190000000000000000000000000000000000000000100005170208740DJAIR DE PAULA CAVALCANTI               RUA RESTINGAN 0, LOTE 11 QUADRA 35 A - SCAMPO GRANDE23097650RIO DE JANEIRO RJUNIAO UMB DOS CULTOS AFRO BRAS    30041915 000068
21300420190000000000080                                                                                                                                                                                                                                                                                                                                                                                   000069
10231987175000168916200163100    000041466                    000414660000000000000109                     I0241466     30041900000000040003410000017N120319105700000000000133004190000000000000000000000000000000000000000100029040973768NELSON PEREIRA DE CARVALHO              RUA DO CAMPON 35,                       CONCEICAO DE23885000MANGARATIBA    RJUNIAO UMB DOS CULTOS AFRO BRAS    30041915 000070
21300420190000000000080                                                                                                                                                                                                                                                                                                                                                                                   000071
10231987175000168916200163100    000041464                    000414640000000000000109                     I0241464     30041900000000040003410000017N120319105700000000000133004190000000000000000000000000000000000000000100010953053792DANIELE FERNANDES DE CARVALHO           RUA BARROSON 0, CASA 1 LOTE 30 QUADRA 97JARDIM CABUC26291428NOVA IGUACU    RJUNIAO UMB DOS CULTOS AFRO BRAS    30041915 000072
21300420190000000000080                                                                                                                                                                                                                                                                                                                                                                                   000073
10231987175000168916200163100    000041460                    000414600000000000000109                     I0241460     30041900000000040003410000017N120319105700000000000133004190000000000000000000000000000000000000000100001510995706JUPIRA FARIAS DE MATTOS                 ESTRADA ALARICO DE SOUZAN 703, CASA 2   LARGO DA BAT24315320NITEROI        RJUNIAO UMB DOS CULTOS AFRO BRAS    30041915 000074
21300420190000000000080                                                                                                                                                                                                                                                                                                                                                                                   000075
10231987175000168916200163100    000041459                    000414590000000000000109                     I0241459     30041900000000040003410000017N120319105700000000000133004190000000000000000000000000000000000000000100003544254719EDIJANE PINHEIRO DE LIMA                RUA: DOIS DE JANEIRON 0, LOTE 54 QUADRA CAMPO GRANDE23097588RIO DE JANEIRO RJUNIAO UMB DOS CULTOS AFRO BRAS    30041915 000076
21300420190000000000080                                                                                                                                                                                                                                                                                                                                                                                   000077
10231987175000168916200163100    000041458                    000414580000000000000109                     I0241458     30041900000000040003410000017N120319105700000000000133004190000000000000000000000000000000000000000100013014823740EUGENIA DA SILVA ALVES PEREIRA          RUA BN 0, LOTE 21 QUADRA 15             JARDIM ANHAN25264570DUQUE DE CAXIASRJUNIAO UMB DOS CULTOS AFRO BRAS    30041915 000078
21300420190000000000080                                                                                                                                                                                                                                                                                                                                                                                   000079
10231987175000168916200163100    000041456                    000414560000000000000109                     I0241456     30041900000000040003410000017N120319105700000000000133004190000000000000000000000000000000000000000100002171972726RAQUEL DE SOUZA MENESES                 RUA ROMERO ZANDER N 271, ENTRADA A - AP RAMOS       21040080RIO DE JANEIRO RJUNIAO UMB DOS CULTOS AFRO BRAS    30041915 000080
21300420190000000000080                                                                                                                                                                                                                                                                                                                                                                                   000081
10231987175000168916200163100    000041455                    000414550000000000000109                     I0241455     30041900000000040003410000017N120319105700000000000133004190000000000000000000000000000000000000000100007245028745SANDRA REGINA MARQUES                   RUA MIGUEL UNAMUNON 0, LOTE 18 QUADRA 4 JARDIM ROTSE25270120DUQUE DE CAXIASRJUNIAO UMB DOS CULTOS AFRO BRAS    30041915 000082
21300420190000000000080                                                                                                                                                                                                                                                                                                                                                                                   000083
10231987175000168916200163100    000041454                    000414540000000000000109                     I0241454     30041900000000040003410000017N120319105700000000000133004190000000000000000000000000000000000000000100050660098768ENI MARIA DA CONCEICAO DE MOUR          RUA IPIRANGAN 0, LOTE 24 E 25           BARRO BRANCO25267365DUQUE DE CAXIASRJUNIAO UMB DOS CULTOS AFRO BRAS    30041915 000084
21300420190000000000080                                                                                                                                                                                                                                                                                                                                                                                   000085
10231987175000168916200163100    000041453                    000414530000000000000109                     I0241453     30041900000000040003410000017N120319105700000000000133004190000000000000000000000000000000000000000100011124747737JOSE DO NASCIMENTO                      RUA JUTAI N 0, LOTE 25 QUADRA 153       OLAVO BILAC 25025290DUQUE DE CAXIASRJUNIAO UMB DOS CULTOS AFRO BRAS    30041915 000086
21300420190000000000080                                                                                                                                                                                                                                                                                                                                                                                   000087
10231987175000168916200163100    000041452                    000414520000000000000109                     I0241452     30041900000000040003410000017N120319105700000000000133004190000000000000000000000000000000000000000100083883363715ISABEL HELENA CEZARIO MEDEIROS          RUA DUQUE DE CAXIASN 129,               VILA ISABEL 20551050RIO DE JANEIRO RJUNIAO UMB DOS CULTOS AFRO BRAS    30041915 000088
21300420190000000000080                                                                                                                                                                                                                                                                                                                                                                                   000089
10231987175000168916200163100    000041449                    000414490000000000000109                     I0241449     30041900000000040003410000017N120319105700000000000133004190000000000000000000000000000000000000000100088763765772VERONICA CECILIA DE AGUIAR              RUA LAURELINO FREIREN 101, CASA 7       GUAXINDIBA  24722330SAO GONCALO    RJUNIAO UMB DOS CULTOS AFRO BRAS    30041915 000090
21300420190000000000080                                                                                                                                                                                                                                                                                                                                                                                   000091
10231987175000168916200163100    000041448                    000414480000000000000109                     I0241448     30041900000000040003410000017N120319105700000000000133004190000000000000000000000000000000000000000100000840541740JUCIARA GONCALVES NEPOMUCENO            RUA CASTRO VIEIRAN 174,                 AREIA BRANCA26112360BELFORD ROXO   RJUNIAO UMB DOS CULTOS AFRO BRAS    30041915 000092
21300420190000000000080                                                                                                                                                                                                                                                                                                                                                                                   000093
10231987175000168916200163100    000041445                    000414450000000000000109                     I0241445     30041900000000040003410000017N120319105700000000000133004190000000000000000000000000000000000000000100009142845769MICHELE OAZEM MINEIRO                   RUA CARIOCAN 0, LOTE 10 QUADRA B        SAO BERNARDO26167210BELFORD ROXO   RJUNIAO UMB DOS CULTOS AFRO BRAS    30041915 000094
21300420190000000000080                                                                                                                                                                                                                                                                                                                                                                                   000095
10231987175000168916200163100    000041443                    000414430000000000000109                     I0241443     30041900000000040003410000017N120319105700000000000133004190000000000000000000000000000000000000000100013376872783ELIANE MENDES DA SILVA                  RUA BECO BARREIRAN 68,                  SANTA CRUZ  23555110RIO DE JANEIRO RJUNIAO UMB DOS CULTOS AFRO BRAS    30041915 000096
21300420190000000000080                                                                                                                                                                                                                                                                                                                                                                                   000097
10231987175000168916200163100    000041441                    000414410000000000000109                     I0241441     30041900000000040003410000017N120319105700000000000133004190000000000000000000000000000000000000000100034463399300MARIA ENOIA DE SOUSA CORREA             RUA BORBOREMAN 37, CASA 1               MADUREIRA   21360150RIO DE JANEIRO RJUNIAO UMB DOS CULTOS AFRO BRAS    30041915 000098
21300420190000000000080                                                                                                                                                                                                                                                                                                                                                                                   000099
10231987175000168916200163100    000041427                    000414270000000000000109                     I0241427     30041900000000040003410000017N120319105700000000000133004190000000000000000000000000000000000000000100014165634743GLAUBER VINICIUS DE ALMEIDA BA          RUA SAO CARLOSN 75,                     ESTACIO     20250052RIO DE JANEIRO RJUNIAO UMB DOS CULTOS AFRO BRAS    30041915 000100
21300420190000000000080                                                                                                                                                                                                                                                                                                                                                                                   000101
10231987175000168916200163100    000041425                    000414250000000000000109                     I0241425     30041900000000040003410000017N120319105700000000000133004190000000000000000000000000000000000000000100012303421764PEDRO JONAS ARAUJO CORDEIRO             RUA JOSE LIMA DA SILVAN 0, LOTE 7 QUADRASANTA RITA  26185610BELFORD ROXO   RJUNIAO UMB DOS CULTOS AFRO BRAS    30041915 000102
21300420190000000000080                                                                                                                                                                                                                                                                                                                                                                                   000103
10231987175000168916200163100    000041423                    000414230000000000000109                     I0241423     30041900000000040003410000017N120319105700000000000133004190000000000000000000000000000000000000000100003413776789CRISTIANE DE SOUZA GALANTE INA          BECO DA SERVIDAON 70, CASA 3            ENGENHEIRO B25520370SAO JOAO DE MERRJUNIAO UMB DOS CULTOS AFRO BRAS    30041915 000104
21300420190000000000080                                                                                                                                                                                                                                                                                                                                                                                   000105
10231987175000168916200163100    000041422                    000414220000000000000109                     I0241422     30041900000000040003410000017N120319105700000000000133004190000000000000000000000000000000000000000100085965871791VALERIA MENDES BARBOSA DOS SAN          RUA PAULINA SENDERN 118, CASA 1B        JARDIM NOVA 26266140NOVA IGUACU    RJUNIAO UMB DOS CULTOS AFRO BRAS    30041915 000106
21300420190000000000080                                                                                                                                                                                                                                                                                                                                                                                   000107
10231987175000168916200163100    000041421                    000414210000000000000109                     I0241421     30041900000000040003410000017N120319105700000000000133004190000000000000000000000000000000000000000100008323642745ROSEMERI DE SOUZA COUTINHO              RUA VERA LUCIA N 0, LOTE 20 QUADRA 3    CABUCU      26291452NOVA IGUACU    RJUNIAO UMB DOS CULTOS AFRO BRAS    30041915 000108
21300420190000000000080                                                                                                                                                                                                                                                                                                                                                                                   000109
10231987175000168916200163100    000041420                    000414200000000000000109                     I0241420     30041900000000040003410000017N120319105700000000000133004190000000000000000000000000000000000000000100007147220730LUIS CARLOS DA COSTA OLIVEIRA           RUA MINAS GERAIS N 0, LOTE 11 QUADRA 159CAMPO ALEGRE26292141NOVA IGUACU    RJUNIAO UMB DOS CULTOS AFRO BRAS    30041915 000110
21300420190000000000080                                                                                                                                                                                                                                                                                                                                                                                   000111
10231987175000168916200163100    000041418                    000414180000000000000109                     I0241418     30041900000000040003410000017N120319105700000000000133004190000000000000000000000000000000000000000100036139050782VIRGINIA DANTAS FERREIRA                RUA PROFESSOR ALPHEU PORTELA N 127, CONDTAQUARA     22725130RIO DE JANEIRO RJUNIAO UMB DOS CULTOS AFRO BRAS    30041915 000112
21300420190000000000080                                                                                                                                                                                                                                                                                                                                                                                   000113
10231987175000168916200163100    000041412                    000414120000000000000109                     I0241412     30041900000000040003410000017N120319105700000000000133004190000000000000000000000000000000000000000100007202542722MIRLA SUSANI DA SILVA SALES             RUA: DOUTOR FREDERICON 395,             LAGOINHA    26296414NOVA IGUACU    RJUNIAO UMB DOS CULTOS AFRO BRAS    30041915 000114
21300420190000000000080                                                                                                                                                                                                                                                                                                                                                                                   000115
10231987175000168916200163100    000041409                    000414090000000000000109                     I0241409     30041900000000040003410000017N120319105700000000000133004190000000000000000000000000000000000000000100008283050800JOSE RICARDO DE MOURA                   RUA TENENTE SILVINON 204,               CERAMICA    26030126NOVA IGUACU    RJUNIAO UMB DOS CULTOS AFRO BRAS    30041915 000116
21300420190000000000080                                                                                                                                                                                                                                                                                                                                                                                   000117
10231987175000168916200163100    000041408                    000414080000000000000109                     I0241408     30041900000000040003410000017N120319105700000000000133004190000000000000000000000000000000000000000100016840152782DARIO JOSE DA SILVA FILHO               RUA: ALTANEIRA N 0, LOTE 9 QUADRA F     CAMPO GRANDE23095060RIO DE JANEIRO RJUNIAO UMB DOS CULTOS AFRO BRAS    30041915 000118
21300420190000000000080                                                                                                                                                                                                                                                                                                                                                                                   000119
10231987175000168916200163100    000041407                    000414070000000000000109                     I0241407     30041900000000040003410000017N120319105700000000000133004190000000000000000000000000000000000000000100075164779749IVANILDO FURTADO DA SILVA               RUA: LUIZ DE CASTRON 206, FUNDOS        PILARES     21760732RIO DE JANEIRO RJUNIAO UMB DOS CULTOS AFRO BRAS    30041915 000120
21300420190000000000080                                                                                                                                                                                                                                                                                                                                                                                   000121
10231987175000168916200163100    000041406                    000414060000000000000109                     I0241406     30041900000000040003410000017N120319105700000000000133004190000000000000000000000000000000000000000100002098051700FELIPE LOPES DA COSTA CHAVES            RUA: JOSE PINTO FAUSTINON 0, LOTE 14 QUAIPIRANGA    26293441NOVA IGUACU    RJUNIAO UMB DOS CULTOS AFRO BRAS    30041915 000122
21300420190000000000080                                                                                                                                                                                                                                                                                                                                                                                   000123
10231987175000168916200163100    000041402                    000414020000000000000109                     I0241402     30041900000000040003410000017N120319105700000000000133004190000000000000000000000000000000000000000100053177827753CREUZA FREITAS DOS SANTOS               RUA HERMES DA SILVA N 63, A             SANTA CRUZ  23550155RIO DE JANEIRO RJUNIAO UMB DOS CULTOS AFRO BRAS    30041915 000124
21300420190000000000080                                                                                                                                                                                                                                                                                                                                                                                   000125
10231987175000168916200163100    000041400                    000414000000000000000109                     I0241400     30041900000000040003410000017N120319105700000000000133004190000000000000000000000000000000000000000100066645352700NILZA BELISARIO DAMIAO                  ESTRADA SANTA VERIDIANA N 1400, BLOCO 1 SANTA CRUZ  23525254RIO DE JANEIRO RJUNIAO UMB DOS CULTOS AFRO BRAS    30041915 000126
21300420190000000000080                                                                                                                                                                                                                                                                                                                                                                                   000127
10231987175000168916200163100    000041397                    000413970000000000000109                     I0241397     30041900000000040003410000017N120319105700000000000133004190000000000000000000000000000000000000000100053860225120OTILIA REGINA DE ALENCAR                RUA ITAPEMIRIMN 87,                     SANTA CRUZ  23550310RIO DE JANEIRO RJUNIAO UMB DOS CULTOS AFRO BRAS    30041915 000128
21300420190000000000080                                                                                                                                                                                                                                                                                                                                                                                   000129
10231987175000168916200163100    000041395                    000413950000000000000109                     I0241395     30041900000000040003410000017N120319105700000000000133004190000000000000000000000000000000000000000100014328358740SILAS BARBOSA DE SOUZA                  ESTRADA REAL DE MAUA N 1901, CASA 11 TRAJARDIM DA PA25926684RIO DE JANEIRO RJUNIAO UMB DOS CULTOS AFRO BRAS    30041915 000130
21300420190000000000080                                                                                                                                                                                                                                                                                                                                                                                   000131
10231987175000168916200163100    000041394                    000413940000000000000109                     I0241394     30041900000000040003410000017N120319105700000000000133004190000000000000000000000000000000000000000100074641980772IRENE MARQUES DA MOTA                   RUA: PORTO CAMARGON 0, CASA 1 LOTE 9 QUAJARDIM MARAV23033170GUARATIBA      RJUNIAO UMB DOS CULTOS AFRO BRAS    30041915 000132
21300420190000000000080                                                                                                                                                                                                                                                                                                                                                                                   000133
10231987175000168916200163100    000041393                    000413930000000000000109                     I0241393     30041900000000040003410000017N120319105700000000000133004190000000000000000000000000000000000000000100005818072789MARLUCE MARIA DE OLIVEIRA               RUA PAHANDN 0, LOTE 20 QUADRA 10        SANTA TEREZA26193500BELFORD ROXO   RJUNIAO UMB DOS CULTOS AFRO BRAS    30041915 000134
21300420190000000000080                                                                                                                                                                                                                                                                                                                                                                                   000135
10231987175000168916200163100    000041392                    000413920000000000000109                     I0241392     30041900000000040003410000017N120319105700000000000133004190000000000000000000000000000000000000000100029759030730JOSE ROBERTO MELLO COIMBRA              RUA SALVADOR SABATEN 311,               REALENGO    21760020RIO DE JANEIRO RJUNIAO UMB DOS CULTOS AFRO BRAS    30041915 000136
21300420190000000000080                                                                                                                                                                                                                                                                                                                                                                                   000137
10231987175000168916200163100    000041391                    000413910000000000000109                     I0241391     30041900000000040003410000017N120319105700000000000133004190000000000000000000000000000000000000000100010212584740TIAGO VEROL DE SOUZA                    ESTRADA: DO VIEGASN 28, CASA 4          SENADOR CAMA21832006RIO DE JANEIRO RJUNIAO UMB DOS CULTOS AFRO BRAS    30041915 000138
21300420190000000000080                                                                                                                                                                                                                                                                                                                                                                                   000139
10231987175000168916200163100    000041390                    000413900000000000000109                     I0241390     30041900000000040003410000017N120319105700000000000133004190000000000000000000000000000000000000000100001860329780VIVIANE DE PAULA AGNELO                 RUA DA VITORIAN 175,                    PARAISO     26297138NOVA IGUACU    RJUNIAO UMB DOS CULTOS AFRO BRAS    30041915 000140
21300420190000000000080                                                                                                                                                                                                                                                                                                                                                                                   000141
10231987175000168916200163100    000041389                    000413890000000000000109                     I0241389     30041900000000040003410000017N120319105700000000000133004190000000000000000000000000000000000000000100007416975727ANGELICA AMARAL GOTELIP BARBOS          RUA MARECHAL MARCIANO - TRAVESSA 120N 0,REALENGO    21735652RIO DE JANEIRO RJUNIAO UMB DOS CULTOS AFRO BRAS    30041915 000142
21300420190000000000080                                                                                                                                                                                                                                                                                                                                                                                   000143
10231987175000168916200163100    000041387                    000413870000000000000109                     I0241387     30041900000000040003410000017N120319105700000000000133004190000000000000000000000000000000000000000100009297297730FLAVIO JOAQUIM DOS SANTOS               RUA: SAO PAULON 0,                      PALMARES    23585800RIO DE JANEIRO RJUNIAO UMB DOS CULTOS AFRO BRAS    30041915 000144
21300420190000000000080                                                                                                                                                                                                                                                                                                                                                                                   000145
10231987175000168916200163100    000041386                    000413860000000000000109                     I0241386     30041900000000040003410000017N120319105700000000000133004190000000000000000000000000000000000000000100008283706721LEVY ANDRE ASSIS FERREIRA DA S          TRAVESSA SANTO ANTONIO N 462, CASA 2    MARECHAL HER21557190RIO DE JANEIRO RJUNIAO UMB DOS CULTOS AFRO BRAS    30041915 000146
21300420190000000000080                                                                                                                                                                                                                                                                                                                                                                                   000147
10231987175000168916200163100    000041384                    000413840000000000000109                     I0241384     30041900000000040003410000017N120319105700000000000133004190000000000000000000000000000000000000000100011709990775JOYCE MARA PINHEIRO DA SILVA            RUA SILVIO TIBIRICAN 507,               TURIACU     21540200RIO DE JANEIRO RJUNIAO UMB DOS CULTOS AFRO BRAS    30041915 000148
21300420190000000000080                                                                                                                                                                                                                                                                                                                                                                                   000149
10231987175000168916200163100    000041383                    000413830000000000000109                     I0241383     30041900000000040003410000017N120319105700000000000133004190000000000000000000000000000000000000000100014963009714MICHELLE DA SILVA SOARES                RUA DONA CELINAN 215,                   PIABETA     25935702MAGE           RJUNIAO UMB DOS CULTOS AFRO BRAS    30041915 000150
21300420190000000000080                                                                                                                                                                                                                                                                                                                                                                                   000151
10231987175000168916200163100    000041381                    000413810000000000000109                     I0241381     30041900000000040003410000017N120319105700000000000133004190000000000000000000000000000000000000000100000213766701ROSIVANIA CRUZ DA SILVA                 RUA PRIMEIRAN 0, BLOCO 2                SANTA CRUZ  23515180RIO DE JANEIRO RJUNIAO UMB DOS CULTOS AFRO BRAS    30041915 000152
21300420190000000000080                                                                                                                                                                                                                                                                                                                                                                                   000153
10231987175000168916200163100    000041379                    000413790000000000000109                     I0241379     30041900000000040003410000017N120319105700000000000133004190000000000000000000000000000000000000000100005380679773ROBERTO DE OLIVEIRA RIBEIRO JU          RUA VINTE E TRESN 149, CASA 2 QUADRA 7  CONJUNTO CES23500000RIO DE JANEIRO RJUNIAO UMB DOS CULTOS AFRO BRAS    30041915 000154
21300420190000000000080                                                                                                                                                                                                                                                                                                                                                                                   000155
10231987175000168916200163100    000041378                    000413780000000000000109                     I0241378     30041900000000040003410000017N120319105700000000000133004190000000000000000000000000000000000000000100006485913793IASMIM SANTANA DA SILVA DE OLI          RUA CLEITON LUIZ VIEIRAN 24,            BANGU       23095700RIO DE JANEIRO RJUNIAO UMB DOS CULTOS AFRO BRAS    30041915 000156
21300420190000000000080                                                                                                                                                                                                                                                                                                                                                                                   000157
10231987175000168916200163100    000041375                    000413750000000000000109                     I0241375     30041900000000040003410000017N120319105700000000000133004190000000000000000000000000000000000000000100001244562785LUIS CARLOS RIBEIRO                     RUA: NEIDE AFONSON 0, LOTE 5 QUADRA 14  SHANGRILA RO26150020BELFORD ROXO   RJUNIAO UMB DOS CULTOS AFRO BRAS    30041915 000158
21300420190000000000080                                                                                                                                                                                                                                                                                                                                                                                   000159
10231987175000168916200163100    000041374                    000413740000000000000109                     I0241374     30041900000000040003410000017N120319105700000000000133004190000000000000000000000000000000000000000100003256338780REGINALDO ROSA DA SILVA                 RUA: TOMINASN 341,                      IPIRANGA ALI26293381NOVA IGUACU    RJUNIAO UMB DOS CULTOS AFRO BRAS    30041915 000160
21300420190000000000080                                                                                                                                                                                                                                                                                                                                                                                   000161
10231987175000168916200163100    000041371                    000413710000000000000109                     I0241371     30041900000000040003410000017N120319105700000000000133004190000000000000000000000000000000000000000100093678754791ROSINETE MARIA DE OLIVEIRA              RUA ANGOLA N 24, ANTIGA RUA 9           CAPIVARI    25145080DUQUE DE CAXIASRJUNIAO UMB DOS CULTOS AFRO BRAS    30041915 000162
21300420190000000000080                                                                                                                                                                                                                                                                                                                                                                                   000163
10231987175000168916200163100    000041370                    000413700000000000000109                     I0241370     30041900000000040003410000017N120319105700000000000133004190000000000000000000000000000000000000000100009289778709HELAINE FRANKLIN TEIXEIRA               RUA: CACHOEIRA ALTA N 0, LOTE 17 QUADRA JARDIM MARAV23031070CAMPO GRANDE   RJUNIAO UMB DOS CULTOS AFRO BRAS    30041915 000164
21300420190000000000080                                                                                                                                                                                                                                                                                                                                                                                   000165
10231987175000168916200163100    000041368                    000413680000000000000109                     I0241368     30041900000000040003410000017N120319105700000000000133004190000000000000000000000000000000000000000100001096953722CLAUDIA GUIMARAES                       ESTRADA GUANDU DO SENA - RUA 29N 0, QUADCAMPO GRANDE23091220RIO DE JANEIRO RJUNIAO UMB DOS CULTOS AFRO BRAS    30041915 000166
21300420190000000000080                                                                                                                                                                                                                                                                                                                                                                                   000167
10231987175000168916200163100    000041367                    000413670000000000000109                     I0241367     30041900000000040003410000017N120319105700000000000133004190000000000000000000000000000000000000000100080091229715MARCO ANTONIO DE OLIVEIRA TEIX          RUA: QUARENTA E UM N 0, QUADRA 47 LOTE 3JARDIM NOSSA23097260CAMPO GRANDE   RJUNIAO UMB DOS CULTOS AFRO BRAS    30041915 000168
21300420190000000000080                                                                                                                                                                                                                                                                                                                                                                                   000169
10231987175000168916200163100    000041365                    000413650000000000000109                     I0241365     30041900000000040003410000017N120319105700000000000133004190000000000000000000000000000000000000000100095760024787LUCIMARA DIAS DE OLIVEIRA               RUA SANTO ELIASN 43,                    TURIACU     21540390RIO DE JANEIRO RJUNIAO UMB DOS CULTOS AFRO BRAS    30041915 000170
21300420190000000000080                                                                                                                                                                                                                                                                                                                                                                                   000171
10231987175000168916200163100    000041361                    000413610000000000000109                     I0241361     30041900000000040003410000017N120319105700000000000133004190000000000000000000000000000000000000000100012687881716DAIANA SANTANA DE LIMA                  RUA MANAUSN 149,                        CAMPOS ELISE25225000DUQUE DE CAXIASRJUNIAO UMB DOS CULTOS AFRO BRAS    30041915 000172
21300420190000000000080                                                                                                                                                                                                                                                                                                                                                                                   000173
10231987175000168916200163100    000041360                    000413600000000000000109                     I0241360     30041900000000040003410000017N120319105700000000000133004190000000000000000000000000000000000000000100007040620707MONICA BORGES MATTOS                    RUA INHAMUNSN 46,                       VILA VALQUEI21321330RIO DE JANEIRO RJUNIAO UMB DOS CULTOS AFRO BRAS    30041915 000174
21300420190000000000080                                                                                                                                                                                                                                                                                                                                                                                   000175
10231987175000168916200163100    000041358                    000413580000000000000109                     I0241358     30041900000000040003410000017N120319105700000000000133004190000000000000000000000000000000000000000100093255586704GRECIETE GOUDARD                        ESTRADA DO CAMPINHON 4501,              CAMPO GRANDE23066540RIO DE JANEIRO RJUNIAO UMB DOS CULTOS AFRO BRAS    30041915 000176
21300420190000000000080                                                                                                                                                                                                                                                                                                                                                                                   000177
10231987175000168916200163100    000041357                    000413570000000000000109                     I0241357     30041900000000040003410000017N120319105700000000000133004190000000000000000000000000000000000000000100079034780791PAULO ROBERTO DE SOUZA MORENO           RUA CORONEL MALHAESN 0, LOTE 6 QUADRA 38TIRADENTES  26351180NOVA IGUACU    RJUNIAO UMB DOS CULTOS AFRO BRAS    30041915 000178
21300420190000000000080                                                                                                                                                                                                                                                                                                                                                                                   000179
10231987175000168916200163100    000041356                    000413560000000000000109                     I0241356     30041900000000040003410000017N120319105700000000000133004190000000000000000000000000000000000000000100005229971711CATIA CILENE MASCARENHAS                RUA BUGANVILLEN 5, CASA 5               CONJUNTO SAN21843743CAMPO GRANDE   RJUNIAO UMB DOS CULTOS AFRO BRAS    30041915 000180
21300420190000000000080                                                                                                                                                                                                                                                                                                                                                                                   000181
10231987175000168916200163100    000041355                    000413550000000000000109                     I0241355     30041900000000040003410000017N120319105700000000000133004190000000000000000000000000000000000000000100089982118749LENIR SILVA DOS SANTOS                  RUA: ILDEFONSO ALBANON 25, APTº 101    GUADALUPE   21670340RIO DE JANEIRO RJUNIAO UMB DOS CULTOS AFRO BRAS    30041915 000182
21300420190000000000080                                                                                                                                                                                                                                                                                                                                                                                   000183
10231987175000168916200163100    000041352                    000413520000000000000109                     I0241352     30041900000000040003410000017N120319105700000000000133004190000000000000000000000000000000000000000100002406515702GILMA RODRIGUES COUTO                   RUA: PEREIRA FRAZAO N 78, A             PRACA SECA  21320220RIO DE JANEIRO RJUNIAO UMB DOS CULTOS AFRO BRAS    30041915 000184
21300420190000000000080                                                                                                                                                                                                                                                                                                                                                                                   000185
10231987175000168916200163100    000041350                    000413500000000000000109                     I0241350     30041900000000040003410000017N120319105700000000000133004190000000000000000000000000000000000000000100064494527734RONALDO ROSAS ALVES                     ESTRADA COMANDANTEN 777,                PRATA       25976140TERESOPOLIS    RJUNIAO UMB DOS CULTOS AFRO BRAS    30041915 000186
21300420190000000000080                                                                                                                                                                                                                                                                                                                                                                                   000187
10231987175000168916200163100    000041345                    000413450000000000000109                     I0241345     30041900000000040003410000017N120319105700000000000133004190000000000000000000000000000000000000000100043397077753JOAO NORATO CEZARIO                     RUA POETA MANOEL BANDEIRAN 39, ANTIGO LOCABUIS      26540260NILOPOLIS      RJUNIAO UMB DOS CULTOS AFRO BRAS    30041915 000188
21300420190000000000080                                                                                                                                                                                                                                                                                                                                                                                   000189
10231987175000168916200163100    000041344                    000413440000000000000109                     I0241344     30041900000000040003410000017N120319105700000000000133004190000000000000000000000000000000000000000100012295676746JEFFERSON ANTONIO TELLES GALDI          RUA MOUZIN DE ALBUQUERQUEN 492,         SAO VICENTE 26178080BELFORD ROXO   RJUNIAO UMB DOS CULTOS AFRO BRAS    30041915 000190
21300420190000000000080                                                                                                                                                                                                                                                                                                                                                                                   000191
10231987175000168916200163100    000041342                    000413420000000000000109                     I0241342     30041900000000040003410000017N120319105700000000000133004190000000000000000000000000000000000000000100005436665730JORGE LUIZ VICTORIO LIMA                AVENIDA MARCOVALDI N 271,               NOVA ESPERAN26113040BELFORD ROXO   RJUNIAO UMB DOS CULTOS AFRO BRAS    30041915 000192
21300420190000000000080                                                                                                                                                                                                                                                                                                                                                                                   000193
10231987175000168916200163100    000041341                    000413410000000000000109                     I0241341     30041900000000040003410000017N120319105700000000000133004190000000000000000000000000000000000000000100009526018770VERONICA MARIA LIMA                     RUA KEMAL PALHAN 5,                     VILA SANTO A25040220DUQUE DE CAXIASRJUNIAO UMB DOS CULTOS AFRO BRAS    30041915 000194
21300420190000000000080                                                                                                                                                                                                                                                                                                                                                                                   000195
10231987175000168916200163100    000041340                    000413400000000000000109                     I0241340     30041900000000040003410000017N120319105700000000000133004190000000000000000000000000000000000000000100003250570796VERONICA LUCIA DA CRUZ                  ESTRADA DOUTOR FARRULAN 0, LOTE 8 QUADRASAO FRANCISC26125400BELFORD ROXO   RJUNIAO UMB DOS CULTOS AFRO BRAS    30041915 000196
21300420190000000000080                                                                                                                                                                                                                                                                                                                                                                                   000197
10231987175000168916200163100    000041339                    000413390000000000000109                     I0241339     30041900000000040003410000017N120319105700000000000133004190000000000000000000000000000000000000000100059598255700TEREZINHA MARIA DE JESUS PINHE          RUA: MANOEL DA SILVA PEREIRA N 0, QUADRAPRADOS VERDE26299003NOVA IGUACU    RJUNIAO UMB DOS CULTOS AFRO BRAS    30041915 000198
21300420190000000000080                                                                                                                                                                                                                                                                                                                                                                                   000199
10231987175000168916200163100    000041338                    000413380000000000000109                     I0241338     30041900000000040003410000017N120319105700000000000133004190000000000000000000000000000000000000000100002527980740ARMANDO DE ALMEIDA                      RUA PEDRO JOSE DE OLIVEIRA N 255,       VARGEM GRAND27145231BARRA DO PIRAI RJUNIAO UMB DOS CULTOS AFRO BRAS    30041915 000200
21300420190000000000080                                                                                                                                                                                                                                                                                                                                                                                   000201
10231987175000168916200163100    000041337                    000413370000000000000109                     I0241337     30041900000000040003410000017N120319105700000000000133004190000000000000000000000000000000000000000100005978854785ALEXANDRE MOTA DOS SANTOS               RUA BRUNO SENDERN 26,                   JARDIM NOVA 26266040NOVA IGUACU    RJUNIAO UMB DOS CULTOS AFRO BRAS    30041915 000202
21300420190000000000080                                                                                                                                                                                                                                                                                                                                                                                   000203
10231987175000168916200163100    000041336                    000413360000000000000109                     I0241336     30041900000000040003410000017N120319105700000000000133004190000000000000000000000000000000000000000100014907708793THIAGO CARVALHO VIDAL LIMA              RUA JOAO MARTINS N 265,                 BNH         25900353MAGE           RJUNIAO UMB DOS CULTOS AFRO BRAS    30041915 000204
21300420190000000000080                                                                                                                                                                                                                                                                                                                                                                                   000205
10231987175000168916200163100    000041332                    000413320000000000000109                     I0241332     30041900000000040003410000017N120319105700000000000133004190000000000000000000000000000000000000000100007337231792SAMANTHA PRISCILA MARQUES MORE          RUA: INSPETOR CASTRO N 0, QUADRA 2 CASA SARACURUNA  25211410DUQUE DE CAXIASRJUNIAO UMB DOS CULTOS AFRO BRAS    30041915 000206
21300420190000000000080                                                                                                                                                                                                                                                                                                                                                                                   000207
10231987175000168916200163100    000041330                    000413300000000000000109                     I0241330     30041900000000040003410000017N120319105700000000000133004190000000000000000000000000000000000000000100013118884703WESLEI FERREIRA DE CARVALHO             ESTRADA DO  GUERENGUEN 1022, FUNODS     TAQUARA     22713004RIO DE JANEIRO RJUNIAO UMB DOS CULTOS AFRO BRAS    30041915 000208
21300420190000000000080                                                                                                                                                                                                                                                                                                                                                                                   000209
10231987175000168916200163100    000041328                    000413280000000000000109                     I0241328     30041900000000040003410000017N120319105700000000000133004190000000000000000000000000000000000000000100095846190715ANA MARIA NICANOR DE QUADRO             RUA PASSO FUNDON 118, LOTE 104          JARDIM GUAND26298189NOVA IGUACU    RJUNIAO UMB DOS CULTOS AFRO BRAS    30041915 000210
21300420190000000000080                                                                                                                                                                                                                                                                                                                                                                                   000211
10231987175000168916200163100    000041327                    000413270000000000000109                     I0241327     30041900000000040003410000017N120319105700000000000133004190000000000000000000000000000000000000000100001161586709ALEXANDRE PIMPAREL DA SILVA             RUA: COMENDADOR VENACION 0,             PALHADA     26290204NOVA IGUACU    RJUNIAO UMB DOS CULTOS AFRO BRAS    30041915 000212
21300420190000000000080                                                                                                                                                                                                                                                                                                                                                                                   000213
10231987175000168916200163100    000041325                    000413250000000000000109                     I0241325     30041900000000040003410000017N120319105700000000000133004190000000000000000000000000000000000000000100010765062755IVONE JOAO PEDRO                        RUA MARMIARIN 605,                      SENADOR CAMA21831000RIO DE JANEIRO RJUNIAO UMB DOS CULTOS AFRO BRAS    30041915 000214
21300420190000000000080                                                                                                                                                                                                                                                                                                                                                                                   000215
10231987175000168916200163100    000041324                    000413240000000000000109                     I0241324     30041900000000040003410000017N120319105700000000000133004190000000000000000000000000000000000000000100085957879720MARIA DA APARECIDA VICENTE DUQ          RUA FRANCISCO VIOLTI N 43, CASA 2       HELIOPOLIS  26125440BELFORD ROXO   RJUNIAO UMB DOS CULTOS AFRO BRAS    30041915 000216
21300420190000000000080                                                                                                                                                                                                                                                                                                                                                                                   000217
10231987175000168916200163100    000041323                    000413230000000000000109                     I0241323     30041900000000040003410000017N120319105700000000000133004190000000000000000000000000000000000000000100005933193704ANA PAULA DA SILVA SANTOS               RUA APIACAN 0, LOTE 12 QUADRA 41        JARDIM BARRO25267290DUQUE DE CAXIASRJUNIAO UMB DOS CULTOS AFRO BRAS    30041915 000218
21300420190000000000080                                                                                                                                                                                                                                                                                                                                                                                   000219
10231987175000168916200163100    000041322                    000413220000000000000109                     I0241322     30041900000000040003410000017N120319105700000000000133004190000000000000000000000000000000000000000100003372466705SANDRO NASCIMENTO NOBREGA               RUA JOAO ROMARIZN 137,                  RAMOS       21031700RIO DE JANEIRO RJUNIAO UMB DOS CULTOS AFRO BRAS    30041915 000220
21300420190000000000080                                                                                                                                                                                                                                                                                                                                                                                   000221
10231987175000168916200163100    000041316                    000413160000000000000109                     I0241316     30041900000000040003410000017N120319105700000000000133004190000000000000000000000000000000000000000100000858723778GEOVANI FERNANDA DA SILVA               RUA SOFIA BARRETON 34,                  DUMAS - SANT23550700RIO DE JANEIRO RJUNIAO UMB DOS CULTOS AFRO BRAS    30041915 000222
21300420190000000000080                                                                                                                                                                                                                                                                                                                                                                                   000223
10231987175000168916200163100    000041314                    000413140000000000000109                     I0241314     30041900000000040003410000017N120319105700000000000133004190000000000000000000000000000000000000000100010154945790SIMONE DE OLIVEIRA CUNHA                RUA ONZEN 0, QUADRA 20 LOTE 7           JARDIM ROTSE25270080DUQUE DE CAXIASRJUNIAO UMB DOS CULTOS AFRO BRAS    30041915 000224
21300420190000000000080                                                                                                                                                                                                                                                                                                                                                                                   000225
10231987175000168916200163100    000041313                    000413130000000000000109                     I0241313     30041900000000040003410000017N120319105700000000000133004190000000000000000000000000000000000000000100002965368736REGINA CONCEICAO                        AVENIDA: BOQUEIRAON 17,                 BOA VISTA   28680000CACHOEIRA DE MARJUNIAO UMB DOS CULTOS AFRO BRAS    30041915 000226
21300420190000000000080                                                                                                                                                                                                                                                                                                                                                                                   000227
10231987175000168916200163100    000041312                    000413120000000000000109                     I0241312     30041900000000040003410000017N120319105700000000000133004190000000000000000000000000000000000000000100009963194761FERNANDO PECANHA PIRES                  RUA: GENERAL BASILION 447,              TABORDA     28680000CACHOEIRA DE MARJUNIAO UMB DOS CULTOS AFRO BRAS    30041915 000228
21300420190000000000080                                                                                                                                                                                                                                                                                                                                                                                   000229
10231987175000168916200163100    000041311                    000413110000000000000109                     I0241311     30041900000000040003410000017N120319105700000000000133004190000000000000000000000000000000000000000100009491065777VIVIAN LUIZA FREITAS DE AGUIAR          RUA ITAPETININGAN 520,                  VICENTE DE C21370680RIO DE JANEIRO RJUNIAO UMB DOS CULTOS AFRO BRAS    30041915 000230
21300420190000000000080                                                                                                                                                                                                                                                                                                                                                                                   000231
10231987175000168916200163100    000041310                    000413100000000000000109                     I0241310     30041900000000040003410000017N120319105700000000000133004190000000000000000000000000000000000000000100002331392730ANA MARIA DOS SANTOS VIEIRA             RUA: CRUZ DE SOUZAN 57,                 CARMARY POSS26022281NOVA IGUACU    RJUNIAO UMB DOS CULTOS AFRO BRAS    30041915 000232
21300420190000000000080                                                                                                                                                                                                                                                                                                                                                                                   000233
10231987175000168916200163100    000041308                    000413080000000000000109                     I0241308     30041900000000040003410000017N120319105700000000000133004190000000000000000000000000000000000000000100003018847733MARIA AILHA BERNARDO PINTO              RUA RUBIAO JUNIOR N 109,                CENTRO      23860000MANGARATIBA    RJUNIAO UMB DOS CULTOS AFRO BRAS    30041915 000234
21300420190000000000080                                                                                                                                                                                                                                                                                                                                                                                   000235
10231987175000168916200163100    000041305                    000413050000000000000109                     I0241305     30041900000000040003410000017N120319105700000000000133004190000000000000000000000000000000000000000100007852297790IRENE FRANCISCO LIMA                    RUA VIRGILIO VARZEAN 0, LOTE 1 QUADRA 1 VILA SAO LUI25051110DUQUE DE CAXIASRJUNIAO UMB DOS CULTOS AFRO BRAS    30041915 000236
21300420190000000000080                                                                                                                                                                                                                                                                                                                                                                                   000237
10231987175000168916200163100    000041302                    000413020000000000000109                     I0241302     30041900000000040003410000017N120319105700000000000133004190000000000000000000000000000000000000000100006915594736CINTIA FERREIRA                         AVENIDA DAS AMERICASN 4319, BLOCO F 3 APBARRA DA TIJ22631004RIO DE JANEIRO RJUNIAO UMB DOS CULTOS AFRO BRAS    30041915 000238
21300420190000000000080                                                                                                                                                                                                                                                                                                                                                                                   000239
10231987175000168916200163100    000041301                    000413010000000000000109                     I0241301     30041900000000040003410000017N120319105700000000000133004190000000000000000000000000000000000000000100011497058767DIEGO FERREIRA DA SILVA                 RUA GENERAL GOMES DE CASTRO N 137,      PADRE MIGUEL21721000RIO DE JANEIRO RJUNIAO UMB DOS CULTOS AFRO BRAS    30041915 000240
21300420190000000000080                                                                                                                                                                                                                                                                                                                                                                                   000241
10231987175000168916200163100    000041299                    000412990000000000000109                     I0241299     30041900000000040003410000017N120319105700000000000133004190000000000000000000000000000000000000000100003357548720APARECIDA DOS SANTOS                    RUA LAOSN 0, LOTE 7 QUADRA 11           VILA HELIOPO26125170BELFORD ROXO   RJUNIAO UMB DOS CULTOS AFRO BRAS    30041915 000242
21300420190000000000080                                                                                                                                                                                                                                                                                                                                                                                   000243
10231987175000168916200163100    000041298                    000412980000000000000109                     I0241298     30041900000000040003410000017N120319105700000000000133004190000000000000000000000000000000000000000100009409455766DANIELE MARTINS MEDEIROS DE FR          RUA ROMANCISTA LUCIO CARDOSON 272,      IBICUI      23860000MANGARATIBA    RJUNIAO UMB DOS CULTOS AFRO BRAS    30041915 000244
21300420190000000000080                                                                                                                                                                                                                                                                                                                                                                                   000245
10231987175000168916200163100    000041295                    000412950000000000000109                     I0241295     30041900000000040003410000017N120319105700000000000133004190000000000000000000000000000000000000000100023970090563MARCIA VIEIRA SALES                     RUA LOPO SARAIVAN 214,                  TANQUE - JAC22740220RIO DE JANEIRO RJUNIAO UMB DOS CULTOS AFRO BRAS    30041915 000246
21300420190000000000080                                                                                                                                                                                                                                                                                                                                                                                   000247
10231987175000168916200163100    000041291                    000412910000000000000109                     I0241291     30041900000000040003410000017N120319105700000000000133004190000000000000000000000000000000000000000100003604572746LUCIANA SANTOS DA SILVA DE LIM          RUA: MARTINICIAN 0, LOJA LOTE 22 QUADRA PARQUE NOVO 25585110SAO JOAO DE MERRJUNIAO UMB DOS CULTOS AFRO BRAS    30041915 000248
21300420190000000000080                                                                                                                                                                                                                                                                                                                                                                                   000249
