01REMESSA01COBRANCA       916200163100        União Umb dos Cultos Afro Bra341BANCO ITAU SA  040118                                                                                                                                                                                                                                                                                                      000001
10231987175000168916200163100    00001752                     000017520000000000000109                     I341752      31121700000000035003410000017N131117050900000000000103112170000000000000000000000000000000000000000100003388076758ROSALINA MARIA NEVES                    RUA LAURINDO FILHO, 199 CASA 6          CASCADURA - 21370260RIO DE JANEIRO RJUNIAO UMB DOS CULTOS AFRO BRAS    31121710 000002
9                                                                                                                                                                                                                                                                                                                                                                                                         000003
