01REMESSA01COBRANCA       817800093673        União Umb dos Cultos Afro Bra341BANCO ITAU SA  030619                                                                                                                                                                                                                                                                                                      000001
10231987175000168817800093673    000045343                    000453430000000000000109                     I0145343     10061900000000150003410000017N030619105700000000000101006190000000000000000000000000000000000000000100053387473753ALAN PINTO DE OLIVEIRA                  RUA FRANCISCO FRAGOSON 46, FRENTE       ENCANTADO   20745010RIO DE JANEIRO RJUNIAO UMB DOS CULTOS AFRO BRAS    10061915 000002
10231987175000168817800093673    000045342                    000453420000000000000109                     I0145342     30061900000000040003410000017N030619105700000000000103006190000000000000000000000000000000000000000100084332182715RITA MARIA DA SILVA                     RUA HAROLDO DE FREITASN 12,             INHOAIBA    23064100RIO DE JANEIRO RJUNIAO UMB DOS CULTOS AFRO BRAS    30061915 000003
10231987175000168817800093673    000045341                    000453410000000000000109                     I0145341     14061900000000080003410000017N030619105700000000000101406190000000000000000000000000000000000000000100001010828789JUSSARA DA SILVA GONCALVES DAM          RUA: TRINTA E TRES N 0, LOTE 219        NOVA CIDADE 24804185ITABORAI       RJUNIAO UMB DOS CULTOS AFRO BRAS    14061915 000004
10231987175000168817800093673    000045340                    000453400000000000000109                     I0145340     30061900000000040003410000017N030619105700000000000103006190000000000000000000000000000000000000000100017927558722JOAO MARCELO GUALBERTO GOMES            RUA MURUPEN 266,                        PACIENCIA   23580120RIO DE JANEIRO RJUNIAO UMB DOS CULTOS AFRO BRAS    30061915 000005
10231987175000168817800093673    000045339                    000453390000000000000109                     I0145339     30061900000000040003410000017N030619105700000000000103006190000000000000000000000000000000000000000100007020404790NADIR REGINA CRUZ DA SILVA              RUA DARDON 0, LOTE 1 QUADRA 225         VILAR DOS TE25565020SAO JOAO DE MERRJUNIAO UMB DOS CULTOS AFRO BRAS    30061915 000006
10231987175000168817800093673    000045338                    000453380000000000000109                     I0145338     30061900000000040003410000017N030619105700000000000103006190000000000000000000000000000000000000000100008549619760BRUNO SERGIO GONCALVES DA CRUZ          RUA ROBERTO SERGIO OAZENN 0, LOTE 22 QUAADRIANO - CA23088530RIO DE JANEIRO RJUNIAO UMB DOS CULTOS AFRO BRAS    30061915 000007
10231987175000168817800093673    000045337                    000453370000000000000109                     I0145337     10061900000000350003410000017N030619105700000000000101006190000000000000000000000000000000000000000100008679284769ANA PAULA DA SILVA BRAGA                RUA ELVIRA DA FONSECAN 149, CASA 1 FUNDOTANQUE      22733150RIO DE JANEIRO RJUNIAO UMB DOS CULTOS AFRO BRAS    10061915 000008
10231987175000168817800093673    000045336                    000453360000000000000109                     I0145336     30061900000000300003410000017N030619105700000000000103006190000000000000000000000000000000000000000100039359006866PAULO RICARDO PEREIRA                   RUA GERALDO PONCIANON 266,              JARDIM ARAPO07210150GUARULHOS      SPUNIAO UMB DOS CULTOS AFRO BRAS    30061915 000009
10231987175000168817800093673    000045335                    000453350000000000000109                     I0145335     30061900000000700003410000017N030619105700000000000103006190000000000000000000000000000000000000000100010537262792DIOGO LUCAS FERREIRA                    RUA JOAO BATISTA DE LIMAN 9,            AUSTIN      26086000NOVA IGUACU    RJUNIAO UMB DOS CULTOS AFRO BRAS    30061915 000010
9                                                                                                                                                                                                                                                                                                                                                                                                         000011
