01REMESSA01COBRANCA       817800093673        União Umb dos Cultos Afro Bra341BANCO ITAU SA  180419                                                                                                                                                                                                                                                                                                      000001
10231987175000168817800093673    000045083                    000450830000000000000109                     I0145083     25041900000000120003410000017N180419105700000000000102504190000000000000000000000000000000000000000100003341744738CASSIA GOMES CASTORINO                  RUA COMENDADOR CRISOSTEMO CRUZ N 0, LOTESANTA MARIA 26165400BELFORD ROXO   RJUNIAO UMB DOS CULTOS AFRO BRAS    25041915 000002
10231987175000168817800093673    000045068                    000450680000000000000109                     I3445068     30061900000000040003410000017N160419105700000000000103006190000000000000000000000000000000000000000100005851795735JOAO LUIZ DE OLIVEIRA MAGALHAE          RUA ANTONIO CARLOS PARANHOSN 29,        VILA VALQUEI21321340RIO DE JANEIRO RJUNIAO UMB DOS CULTOS AFRO BRAS    30061915 000003
10231987175000168817800093673    000039179                    000391790000000000000109                     I0239179     30031900000000040003410000017N261218105700000000000103003190000000000000000000000000000000000000000100009491065777VIVIAN LUIZA FREITAS DE AGUIAR          RUA ITAPETININGAN 520,                  VICENTE DE C21370680RIO DE JANEIRO RJUNIAO UMB DOS CULTOS AFRO BRAS    30031915 000004
10231987175000168817800093673    000039094                    000390940000000000000109                     I0239094     30031900000000040003410000017N261218105700000000000103003190000000000000000000000000000000000000000100025812114749JAIR FERREIRA FILHO                     RUA ENGENHEIRO PINHO DE MAGALHAES N 70, VILA DA PENH21220410RIO DE JANEIRO RJUNIAO UMB DOS CULTOS AFRO BRAS    30031915 000005
10231987175000168817800093673    000038254                    000382540000000000000109                     I0238254     30031900000000040003410000017N261218105700000000000103003190000000000000000000000000000000000000000100095949925734RITA DE CASSIA COCCARO                  RUA JUCARIN 563,                        IRAJA       21371320RIO DE JANEIRO RJUNIAO UMB DOS CULTOS AFRO BRAS    30031915 000006
10231987175000168817800093673    000037862                    000378620000000000000109                     I0237862     30031900000000040003410000017N261218105700000000000103003190000000000000000000000000000000000000000100003341744738CASSIA GOMES CASTORINO                  RUA COMENDADOR CRISOSTEMO CRUZ N 0, LOTESANTA MARIA 26165400BELFORD ROXO   RJUNIAO UMB DOS CULTOS AFRO BRAS    30031915 000007
10231987175000168817800093673    000037576                    000375760000000000000109                     I0237576     30031900000000040003410000017N261218105700000000000103003190000000000000000000000000000000000000000100089190335791ELIZABETH MACHADO MARINS                RUA SAO MARCIANON 59,                   PRACA SECA  21321260RIO DE JANEIRO RJUNIAO UMB DOS CULTOS AFRO BRAS    30031915 000008
10231987175000168817800093673    000037260                    000372600000000000000109                     I0237260     28021900000000040003410000017N261218105700000000000102802190000000000000000000000000000000000000000100009491065777VIVIAN LUIZA FREITAS DE AGUIAR          RUA ITAPETININGAN 520,                  VICENTE DE C21370680RIO DE JANEIRO RJUNIAO UMB DOS CULTOS AFRO BRAS    28021915 000009
10231987175000168817800093673    000037255                    000372550000000000000109                     I0237255     28021900000000040003410000017N261218105700000000000102802190000000000000000000000000000000000000000100004275325745MAIKE OLIVEIRA DA COSTA                 TRAVESSA MARTA DA ROCHA N 57,           ABOLICAO    20755030RIO DE JANEIRO RJUNIAO UMB DOS CULTOS AFRO BRAS    28021915 000010
10231987175000168817800093673    000037209                    000372090000000000000109                     I0237209     28021900000000040003410000017N261218105700000000000102802190000000000000000000000000000000000000000100024810517349SILANIA MARIA AGUIAR GOIS               RUA DOMINGOS TAVARES DE SOUZAN 319, APT VIVENDAS DA 36047250JUIZ DE FORA   MGUNIAO UMB DOS CULTOS AFRO BRAS    28021915 000011
10231987175000168817800093673    000037175                    000371750000000000000109                     I0237175     28021900000000040003410000017N261218105700000000000102802190000000000000000000000000000000000000000100025812114749JAIR FERREIRA FILHO                     RUA ENGENHEIRO PINHO DE MAGALHAES N 70, VILA DA PENH21220410RIO DE JANEIRO RJUNIAO UMB DOS CULTOS AFRO BRAS    28021915 000012
10231987175000168817800093673    000036338                    000363380000000000000109                     I0236338     28021900000000040003410000017N261218105700000000000102802190000000000000000000000000000000000000000100095949925734RITA DE CASSIA COCCARO                  RUA JUCARIN 563,                        IRAJA       21371320RIO DE JANEIRO RJUNIAO UMB DOS CULTOS AFRO BRAS    28021915 000013
10231987175000168817800093673    000035947                    000359470000000000000109                     I0235947     28021900000000040003410000017N261218105700000000000102802190000000000000000000000000000000000000000100003341744738CASSIA GOMES CASTORINO                  RUA COMENDADOR CRISOSTEMO CRUZ N 0, LOTESANTA MARIA 26165400BELFORD ROXO   RJUNIAO UMB DOS CULTOS AFRO BRAS    28021915 000014
10231987175000168817800093673    000035664                    000356640000000000000109                     I0235664     28021900000000040003410000017N261218105700000000000102802190000000000000000000000000000000000000000100089190335791ELIZABETH MACHADO MARINS                RUA SAO MARCIANON 59,                   PRACA SECA  21321260RIO DE JANEIRO RJUNIAO UMB DOS CULTOS AFRO BRAS    28021915 000015
9                                                                                                                                                                                                                                                                                                                                                                                                         000016
