01REMESSA01COBRANCA       817800093673        União Umb dos Cultos Afro Bra341BANCO ITAU SA  040719                                                                                                                                                                                                                                                                                                      000001
10231987175000168817800093673    000045249                    000452490000000000000109                     I0245249     20051900000000160003410000017N080519105700000000000532005190000000000000000000000000000000000000000100007147220730LUIS CARLOS DA COSTA OLIVEIRA           RUA MINAS GERAIS N 0, LOTE 11 QUADRA 159CAMPO ALEGRE26292141NOVA IGUACU    RJUNIAO UMB DOS CULTOS AFRO BRAS    20051915 000002
21200520190000000000320                                                                                                                                                                                                                                                                                                                                                                                   000003
10231987175000168817800093673    000045229                    000452290000000000000109                     I0245229     20051900000000160003410000017N060519105700000000000532005190000000000000000000000000000000000000000100080091229715MARCO ANTONIO DE OLIVEIRA TEIX          RUA: QUARENTA E UM N 0, QUADRA 47 LOTE 3JARDIM NOSSA23097260CAMPO GRANDE   RJUNIAO UMB DOS CULTOS AFRO BRAS    20051915 000004
21200520190000000000320                                                                                                                                                                                                                                                                                                                                                                                   000005
10231987175000168817800093673    000045224                    000452240000000000000109                     I0245224     20051900000000300003410000017N030519105700000000000992005190000000000000000000000000000000000000000100064494527734RONALDO ROSAS ALVES                     ESTRADA COMANDANTEN 777,                PRATA       25976140TERESOPOLIS    RJUNIAO UMB DOS CULTOS AFRO BRAS    20051915 000006
21200520190000000000600                                                                                                                                                                                                                                                                                                                                                                                   000007
10231987175000168817800093673    000045221                    000452210000000000000109                     I0245221     10051900000000080003410000017N030519105700000000000261005190000000000000000000000000000000000000000100002375024702FATIMA APARECIDA OLIVEIRA DE C          RUA MANUEL VITORINO N 412,              ENCANTADO   20740280RIO DE JANEIRO RJUNIAO UMB DOS CULTOS AFRO BRAS    10051915 000008
21100520190000000000160                                                                                                                                                                                                                                                                                                                                                                                   000009
10231987175000168817800093673    000045216                    000452160000000000000109                     I0245216     20051900000000200003410000017N030519105700000000000662005190000000000000000000000000000000000000000100031569250715JORGE FRANCISCO SANTOS                  RUA EXPEDICIONARIO SEBASTIAO RIBEIRON 14COLUBANDE   24451710SAO GONCALO    RJUNIAO UMB DOS CULTOS AFRO BRAS    20051915 000010
21200520190000000000400                                                                                                                                                                                                                                                                                                                                                                                   000011
10231987175000168817800093673    000045191                    000451910000000000000109                     I0245191     20051900000000700003410000017N020519105700000000002312005190000000000000000000000000000000000000000100000318005727VANIA PASSOS LIMA                       RUA CARDOSO QUINTAON 40, TERREO         PIEDADE     21381460RIO DE JANEIRO RJUNIAO UMB DOS CULTOS AFRO BRAS    20051915 000012
21200520190000000001400                                                                                                                                                                                                                                                                                                                                                                                   000013
10231987175000168817800093673    000045061                    000450610000000000000109                     I0245061     30041900000000400003410000017N150419105700000000001323004190000000000000000000000000000000000000000100040664325734GENI BARBOSA ROCHA DA SILVA             TRAVESSA DA AMIZADEN 34, APT 602        VILA DA PENH25268020RIO DE JANEIRO RJUNIAO UMB DOS CULTOS AFRO BRAS    30041915 000014
21300420190000000000800                                                                                                                                                                                                                                                                                                                                                                                   000015
10231987175000168817800093673    000044994                    000449940000000000000109                     I0244994     30041900000000040003410000017N040419105700000000000133004190000000000000000000000000000000000000000100007644656782EDILSON DE OLIVEIRA ADAO                RUA VINTE E TRES N 0,  LOTE 11 QUADRA 11PARQUE PAULI25261470DUQUE DE CAXIASRJUNIAO UMB DOS CULTOS AFRO BRAS    30041915 000016
21300420190000000000080                                                                                                                                                                                                                                                                                                                                                                                   000017
10231987175000168817800093673    000044989                    000449890000000000000109                     I0244989     30041900000000040003410000017N030419105700000000000133004190000000000000000000000000000000000000000100001087226783ALBA VALERIA GARCIA LIMA MOURA          AVENIDA: CARNAUBEIRAN 135,              GUARATIBA   23032080RIO DE JANEIRO RJUNIAO UMB DOS CULTOS AFRO BRAS    30041915 000018
21300420190000000000080                                                                                                                                                                                                                                                                                                                                                                                   000019
10231987175000168817800093673    000044979                    000449790000000000000109                     I0244979     30041900000000040003410000017N030419105700000000000133004190000000000000000000000000000000000000000100085557854720MARCIA FERREIRA DA SILVA                AVENIDA MONSENHOR FELIXN 1077, BLOCO 1 AIRAJA       21235112RIO DE JANEIRO RJUNIAO UMB DOS CULTOS AFRO BRAS    30041915 000020
21300420190000000000080                                                                                                                                                                                                                                                                                                                                                                                   000021
10231987175000168817800093673    000044948                    000449480000000000000109                     I0244948     30041900000000040003410000017N010419105700000000000133004190000000000000000000000000000000000000000100008222930729MIRIAN CONCEICAO DOS SANTOS CU          RUA POCOS DE CALDASN 0, QUADRA 57 LOTE 4JARDIM GRAMA25050470DUQUE DE CAXIASRJUNIAO UMB DOS CULTOS AFRO BRAS    30041915 000022
21300420190000000000080                                                                                                                                                                                                                                                                                                                                                                                   000023
10231987175000168817800093673    000044914                    000449140000000000000109                     I0244914     10051900000000100003410000017N280319105700000000000331005190000000000000000000000000000000000000000100067348793720MARCIO DE SOUZA MOURA                   RUA CAJUIPEN 110,                       BONSUCESSO  21060490RIO DE JANEIRO RJUNIAO UMB DOS CULTOS AFRO BRAS    10051915 000024
21100520190000000000200                                                                                                                                                                                                                                                                                                                                                                                   000025
10231987175000168817800093673    000044872                    000448720000000000000109                     I0244872     03051900000000080003410000017N220319105700000000000260305190000000000000000000000000000000000000000100055570720715ATILA CARDOSO DE LIMA                   RUA EUGENIO SOARESN 270,                JUSCELINO   26550007MESQUITA       RJUNIAO UMB DOS CULTOS AFRO BRAS    03051915 000026
21030520190000000000160                                                                                                                                                                                                                                                                                                                                                                                   000027
10231987175000168817800093673    000044846                    000448460000000000000109                     I0244846     30041900000000040003410000017N210319105700000000000133004190000000000000000000000000000000000000000100006211034709EDUARDO CARLOS FELIZARDO DE SO          AVENIDA CANAL DO ANILN 166, G           GARDENIA AZU22765431RIO DE JANEIRO RJUNIAO UMB DOS CULTOS AFRO BRAS    30041915 000028
21300420190000000000080                                                                                                                                                                                                                                                                                                                                                                                   000029
10231987175000168817800093673    000044832                    000448320000000000000109                     I0244832     30041900000000040003410000017N150319105700000000000133004190000000000000000000000000000000000000000100098077899749WANDERLEY PACHECO                       RUA NOSSA SENHORA DA CONCEICAON 0, LOTE PILAR       25233070DUQUE DE CAXIASRJUNIAO UMB DOS CULTOS AFRO BRAS    30041915 000030
21300420190000000000080                                                                                                                                                                                                                                                                                                                                                                                   000031
10231987175000168817800093673    000044826                    000448260000000000000109                     I0244826     30041900000000040003410000017N150319105700000000000133004190000000000000000000000000000000000000000100074190741787JOSE ITAGIBA RODRIGUES                  TRAVESSA SANTA ROSAN 0, LOTE 35         CAPELA      25916060MAGE           RJUNIAO UMB DOS CULTOS AFRO BRAS    30041915 000032
21300420190000000000080                                                                                                                                                                                                                                                                                                                                                                                   000033
10231987175000168817800093673    000044818                    000448180000000000000109                     I0244818     30041900000000040003410000017N140319105700000000000133004190000000000000000000000000000000000000000100009699441798LIDIANE DE ASSUNCAO VELOSO RAN          RUA SILVA PINTON 88, APARTAMENTO 502    VILA ISABEL 20551190RIO DE JANEIRO RJUNIAO UMB DOS CULTOS AFRO BRAS    30041915 000034
21300420190000000000080                                                                                                                                                                                                                                                                                                                                                                                   000035
10231987175000168817800093673    000044817                    000448170000000000000109                     I0244817     30041900000000040003410000017N140319105700000000000133004190000000000000000000000000000000000000000100009699441798LIDIANE DE ASSUNCAO VELOSO RAN          RUA SILVA PINTON 88, APARTAMENTO 502    VILA ISABEL 20551190RIO DE JANEIRO RJUNIAO UMB DOS CULTOS AFRO BRAS    30041915 000036
21300420190000000000080                                                                                                                                                                                                                                                                                                                                                                                   000037
9                                                                                                                                                                                                                                                                                                                                                                                                         000038
