01REMESSA01COBRANCA       916200163100        União Umb dos Cultos Afro Bra341BANCO ITAU SA  010818                                                                                                                                                                                                                                                                                                      000001
10231987175000168916200163100    000021326                    000213260000000000000109                     I0221326     30081800000000035003410000017N260718104700000000000103008180000000000000000000000000000000000000000100052873587687MARIA AMELIA DOMINGUES REZENDE          RUA: DOS VERANISTAS                     GUARAPARI   29000000ESPIRITO SANTO ESUNIAO UMB DOS CULTOS AFRO BRAS    30081810 000002
10231987175000168916200163100    000020758                    000207580000000000000109                     I3420758     30081800000000035003410000017N070518104700000000000103008180000000000000000000000000000000000000000100000858723778GEOVANI FERNANDA DA SILVA               RUA SOFIA BARRETO                       VITOR DUMAS 23550700RIO DE JANEIRO RJUNIAO UMB DOS CULTOS AFRO BRAS    30081810 000003
10231987175000168916200163100    000019997                    000199970000000000000109                     I3419997     30081800000000035003410000017N070518104700000000000103008180000000000000000000000000000000000000000100004764270706FLAVIO AILTON BRAGA FERREIRA            RUA CABURI, 11                          ROCHA MIRAND21550050RIO DE JANEIRO RJUNIAO UMB DOS CULTOS AFRO BRAS    30081810 000004
10231987175000168916200163100    000019500                    000195000000000000000109                     I3419500     30081800000000035003410000017N070518104700000000000103008180000000000000000000000000000000000000000100083122869772ANDREIA OLIVEIRA DE MENEZES             RUA VICENTE PONTE                       JARDIM CARIO21921740RIO DE JANEIRO RJUNIAO UMB DOS CULTOS AFRO BRAS    30081810 000005
10231987175000168916200163100    000019431                    000194310000000000000109                     I3419431     30081800000000035003410000017N070518104700000000000103008180000000000000000000000000000000000000000100009886046716ANA CRISTINA DE ALMEIDA TRINDA          RUA COTIJUBA N 156                      ROCHA MIRAND21555020RIO DE JANEIRO RJUNIAO UMB DOS CULTOS AFRO BRAS    30081810 000006
10231987175000168916200163100    000019041                    000190410000000000000109                     I0219041     30071800000000035003410000017N070518104700000000000103007180000000000000000000000000000000000000000100014641727732DAVI SILVA BARBOSA LIMA                 TRAVESSA ANTONIO AARAO N 9              SEPETIBA - R23540030RIO DE JANEIRO RJUNIAO UMB DOS CULTOS AFRO BRAS    30071810 000007
10231987175000168916200163100    000019005                    000190050000000000000109                     I3419005     30071800000000035003410000017N070518104700000000000103007180000000000000000000000000000000000000000100003025076712MARIA QUITERIA DOS SANTOS PITA          RUA MISSIONARIO CHRISTIE N 43 B         QUISSAMA - P25615250PETROPOLIS     RJUNIAO UMB DOS CULTOS AFRO BRAS    30071810 000008
10231987175000168916200163100    000018921                    000189210000000000000109                     I0218921     30071800000000035003410000017N070518104700000000000103007180000000000000000000000000000000000000000100030400942895CLAUDIA REIS SANTOS ARAUJO              RUA: LUIS PASQUALLE NETO                SAO JOAO CLI04241030SAO PAULO      SPUNIAO UMB DOS CULTOS AFRO BRAS    30071810 000009
10231987175000168916200163100    000018575                    000185750000000000000109                     I3418575     30071800000000035003410000017N070518104700000000000103007180000000000000000000000000000000000000000100011981552723DIEGO DE SIQUEIRA VIEIRA                RUA ACU N 339 FUNDOS                    REALENGO - R21765640RIO DE JANEIRO RJUNIAO UMB DOS CULTOS AFRO BRAS    30071810 000010
10231987175000168916200163100    000018037                    000180370000000000000109                     I0218037     30071800000000035003410000017N070518104700000000000103007180000000000000000000000000000000000000000100000675108764MARIA CRISTINA SANTOS GENEROSO          RUA  APODI                              PARQUE  SUEC26187300BELFORD ROXO   RJUNIAO UMB DOS CULTOS AFRO BRAS    30071810 000011
10231987175000168916200163100    000017967                    000179670000000000000109                     I0217967     30071800000000035003410000017N070518104700000000000103007180000000000000000000000000000000000000000200000000002796ANA MARIA ROQUE DA SILVA                RUA EUCLIDES ROXO N 185                 REALENGO - R21765590RIO DE JANEIRO RJUNIAO UMB DOS CULTOS AFRO BRAS    30071810 000012
10231987175000168916200163100    000017930                    000179300000000000000109                     I3417930     30071800000000035003410000017N070518104700000000000103007180000000000000000000000000000000000000000100083122869772ANDREIA OLIVEIRA DE MENEZES             RUA VICENTE PONTE                       JARDIM CARIO21921740RIO DE JANEIRO RJUNIAO UMB DOS CULTOS AFRO BRAS    30071810 000013
10231987175000168916200163100    000017854                    000178540000000000000109                     I3417854     30071800000000035003410000017N070518104700000000000103007180000000000000000000000000000000000000000200000000007695MARCO ANTONIO DA COSTA                  RUA LOIR NOGUEIRA LOTE 10 QUADRA 11     RIO DO OURO 24752840SAO GONCALO    RJUNIAO UMB DOS CULTOS AFRO BRAS    30071810 000014
10231987175000168916200163100    000015876                    000158760000000000000109                     I3415876     30061800000000035003410000017N070518104700000000000103006180000000000000000000000000000000000000000100068373570772RONILCE CAMILO DA SILVA                 RUA RUBY ALBERTORIA N 2 - GERENCIANO    GERENCIANO -26061155NOVA IGUACU    RJUNIAO UMB DOS CULTOS AFRO BRAS    30061810 000015
10231987175000168916200163100    000015851                    000158510000000000000109                     I0215851     30061800000000035003410000017N070518104700000000000103006180000000000000000000000000000000000000000100014641727732DAVI SILVA BARBOSA LIMA                 TRAVESSA ANTONIO AARAO N 9              SEPETIBA - R23540030RIO DE JANEIRO RJUNIAO UMB DOS CULTOS AFRO BRAS    30061810 000016
10231987175000168916200163100    000015749                    000157490000000000000109                     I3415749     30061800000000040003410000017N070518104700000000000103006180000000000000000000000000000000000000000100003346596710ROSILENI ROSA DA SILVA                  RUA PARANAVAI                           BOA VISTA   24342110NITEROI        RJUNIAO UMB DOS CULTOS AFRO BRAS    30061810 000017
10231987175000168916200163100    000015731                    000157310000000000000109                     I0215731     30061800000000035003410000017N070518104700000000000103006180000000000000000000000000000000000000000100030400942895CLAUDIA REIS SANTOS ARAUJO              RUA: LUIS PASQUALLE NETO                SAO JOAO CLI04241030SAO PAULO      SPUNIAO UMB DOS CULTOS AFRO BRAS    30061810 000018
10231987175000168916200163100    000015719                    000157190000000000000109                     I3415719     30061800000000035003410000017N070518104700000000000103006180000000000000000000000000000000000000000100009948535723ANA CAROLINA VICENTE TELLES GO          RUA PACHECO JUNIOR                      BRAZ DE PINA21211170RIO DE JANEIRO RJUNIAO UMB DOS CULTOS AFRO BRAS    30061810 000019
10231987175000168916200163100    000014848                    000148480000000000000109                     I3414848     30061800000000035003410000017N070518104700000000000103006180000000000000000000000000000000000000000100000675108764MARIA CRISTINA SANTOS GENEROSO          RUA  APODI                              PARQUE  SUEC26187300BELFORD ROXO   RJUNIAO UMB DOS CULTOS AFRO BRAS    30061810 000020
10231987175000168916200163100    000014778                    000147780000000000000109                     I0214778     30061800000000035003410000017N070518104700000000000103006180000000000000000000000000000000000000000200000000002796ANA MARIA ROQUE DA SILVA                RUA EUCLIDES ROXO N 185                 REALENGO - R21765590RIO DE JANEIRO RJUNIAO UMB DOS CULTOS AFRO BRAS    30061810 000021
10231987175000168916200163100    000014741                    000147410000000000000109                     I3414741     30061800000000035003410000017N070518104700000000000103006180000000000000000000000000000000000000000100083122869772ANDREIA OLIVEIRA DE MENEZES             RUA VICENTE PONTE                       JARDIM CARIO21921740RIO DE JANEIRO RJUNIAO UMB DOS CULTOS AFRO BRAS    30061810 000022
10231987175000168916200163100    000014665                    000146650000000000000109                     I3414665     30061800000000035003410000017N070518104700000000000103006180000000000000000000000000000000000000000200000000007695MARCO ANTONIO DA COSTA                  RUA LOIR NOGUEIRA LOTE 10 QUADRA 11     RIO DO OURO 24752840SAO GONCALO    RJUNIAO UMB DOS CULTOS AFRO BRAS    30061810 000023
9                                                                                                                                                                                                                                                                                                                                                                                                         000024
