01REMESSA01COBRANCA       817800093673        União Umb dos Cultos Afro Bra341BANCO ITAU SA  130918                                                                                                                                                                                                                                                                                                      000001
10231987175000168817800093673    000028169                    000281690000000000000109                     I3428169     30111800000000035003410000017N200818104700000000000103011180000000000000000000000000000000000000000100005785015706JOSE TOMASIO                            RUA: DA FIGUEIRA                        TRES POCOS -27240590VOLTA REDONDA  RJUNIAO UMB DOS CULTOS AFRO BRAS    30111810 000002
10231987175000168817800093673    000026909                    000269090000000000000109                     I3426909     30091800000000035003410000017N200818104700000000000103009180000000000000000000000000000000000000000100004253784704ALEXANDRE SIMOES NASCIMENTO             RUA SEBASTIAO DRUMOND                   ANCHIETA    21640360RIO DE JANEIRO RJUNIAO UMB DOS CULTOS AFRO BRAS    30091810 000003
10231987175000168817800093673    000026806                    000268060000000000000109                     I0226806     30091800000000035003410000017N200818104700000000000103009180000000000000000000000000000000000000000100053211839704ALCIONE SOUZA DOS SANTOS                RUA MARINO FELIX                        SEPETIBA    23535006RIO DE JANEIRO RJUNIAO UMB DOS CULTOS AFRO BRAS    30091810 000004
10231987175000168817800093673    000026748                    000267480000000000000109                     I3426748     30091800000000035003410000017N200818104700000000000103009180000000000000000000000000000000000000000100005785015706JOSE TOMASIO                            RUA: DA FIGUEIRA                        TRES POCOS -27240590VOLTA REDONDA  RJUNIAO UMB DOS CULTOS AFRO BRAS    30091810 000005
10231987175000168817800093673    000026493                    000264930000000000000109                     I0226493     30091800000000035003410000017N200818104700000000000103009180000000000000000000000000000000000000000100002437606718FABIO VICTOR BARRETO                    RUA BARAO DE JAGUARI                    IRAJA       21235555RIO DE JANEIRO RJUNIAO UMB DOS CULTOS AFRO BRAS    30091810 000006
10231987175000168817800093673    000025332                    000253320000000000000109                     I3425332     30101800000000035003410000017N200818104700000000000103010180000000000000000000000000000000000000000100005785015706JOSE TOMASIO                            RUA: DA FIGUEIRA                        TRES POCOS -27240590VOLTA REDONDA  RJUNIAO UMB DOS CULTOS AFRO BRAS    30101810 000007
10231987175000168817800093673    000021245                    000212450000000000000109                     I0221245     30071800000000040003410000017N290618104700000000000103007180000000000000000000000000000000000000000100010440702771AMANDA APARECIDA AZEVEDO CARDO          RUA: IVONETE                            CONJUNTO SAN00000000RIO DE JANEIRO RJUNIAO UMB DOS CULTOS AFRO BRAS    30071810 000008
10231987175000168817800093673    000021242                    000212420000000000000109                     I0221242     30071800000000040003410000017N250618104700000000000103007180000000000000000000000000000000000000000100011709590775JOYCE MARA PINHEIRO DA SILVA            RUA: SILVIO TIBIRICA                    TURIACU     21540200RIO DE JANEIRO RJUNIAO UMB DOS CULTOS AFRO BRAS    30071810 000009
10231987175000168817800093673    000021234                    000212340000000000000109                     I0221234     30071800000000035003410000017N210618104700000000000103007180000000000000000000000000000000000000000100042533686700ENEDINA MALVINA DO NASCIMENTO           RUA: CASTRO MENEZES                     BRAS DE PINA21215250RIO DE JANEIRO RJUNIAO UMB DOS CULTOS AFRO BRAS    30071810 000010
10231987175000168817800093673    000021233                    000212330000000000000109                     I0221233     10071800000000210003410000017N210618104700000000000101007180000000000000000000000000000000000000000100060471859753MARLENE IBRAIN                          RUA: DOUTOR ALVARO DA PAIXAO JR         PARQUE AEROP27971180MACAE          RJUNIAO UMB DOS CULTOS AFRO BRAS    10071810 000011
10231987175000168817800093673    000021225                    000212250000000000000109                     I0221225     30071800000000035003410000017N190618104700000000000103007180000000000000000000000000000000000000000100000000011458JOSE ALFREDO BARDASSON MARQUES          TRAVESSA JOAO ROCHA                     PORTO DAS CA24830072ITABORAI       RJUNIAO UMB DOS CULTOS AFRO BRAS    30071810 000012
10231987175000168817800093673    000021220                    000212200000000000000109                     I0221220     15071800000000175003410000017N190618104700000000000101507180000000000000000000000000000000000000000100051851229787MARTA DO NASCIMENTO CRISPINO            RUA LEONOR SARAMAGO, 89                 FONSECA - NI24120340NITEROI        RJUNIAO UMB DOS CULTOS AFRO BRAS    15071810 000013
10231987175000168817800093673    000021202                    000212020000000000000109                     I0221202     30071800000000040003410000017N140618104700000000000103007180000000000000000000000000000000000000000100085737437787NIVALDA PIRES RUFINO                    RUA: MARIO CARPENTER                    ABOLICAO    20755065RIO DE JANEIRO RJUNIAO UMB DOS CULTOS AFRO BRAS    30071810 000014
10231987175000168817800093673    000021195                    000211950000000000000109                     I0221195     30071800000000040003410000017N130618104700000000000103007180000000000000000000000000000000000000000100002875690710KARLA MARIA QUEIROGA MARTINS            RUA: PEREIRA DA COSTA N 18 FUNDOS       MADUREIRA - 21360270RIO DE JANEIRO RJUNIAO UMB DOS CULTOS AFRO BRAS    30071810 000015
10231987175000168817800093673    000021192                    000211920000000000000109                     I0221192     30071800000000035003410000017N130618104700000000000103007180000000000000000000000000000000000000000100005380679773ROBERTO DE OLIVEIRA RIBEIRO JU          RUA VINTE E TRES                        SANTA CRUZ  23500000RIO DE JANEIRO RJUNIAO UMB DOS CULTOS AFRO BRAS    30071810 000016
10231987175000168817800093673    000021187                    000211870000000000000109                     I0221187     30071800000000035003410000017N120618104700000000000103007180000000000000000000000000000000000000000100003256338780REGINALDO ROSA DA SILVA                 RUA PAULO AFONSO                        IPIRANGA ALI26293381NOVA IGUACU    RJUNIAO UMB DOS CULTOS AFRO BRAS    30071810 000017
10231987175000168817800093673    000021184                    000211840000000000000109                     I0221184     30071800000000035003410000017N120618104700000000000103007180000000000000000000000000000000000000000100004474665775REGINALDO RAMOS DA SILVA                RUA JULIO DE CASTILHOS                  JARDIM ROTSE25270210DUQUE DE CAXIASRJUNIAO UMB DOS CULTOS AFRO BRAS    30071810 000018
10231987175000168817800093673    000021172                    000211720000000000000109                     I0221172     30071800000000040003410000017N110618104700000000000103007180000000000000000000000000000000000000000100010486021769SIDNEY RODRIGUES DA SILVA JUNI          RUA DAS VIDEIRAS                        MORADA VERDE23065520PACIENCIA      RJUNIAO UMB DOS CULTOS AFRO BRAS    30071810 000019
10231987175000168817800093673    000021149                    000211490000000000000109                     I0221149     30071800000000035003410000017N050618104700000000000103007180000000000000000000000000000000000000000100004455965700MARIA DE LOURDES SOARES DA SIL          ESTRADA RJ 127 KM 25                    ALTO DO CHAF26650000PAULO DE FRONTIRJUNIAO UMB DOS CULTOS AFRO BRAS    30071810 000020
10231987175000168817800093673    000020998                    000209980000000000000109                     I0220998     30071800000000035003410000017N170518104700000000000103007180000000000000000000000000000000000000000100009924715790JOSEFA MARIA DA SILVA                   TRAVESSA DOS LAVRADORES                 VILA SAO DOM26271340NOVA IGUACU    RJUNIAO UMB DOS CULTOS AFRO BRAS    30071810 000021
9                                                                                                                                                                                                                                                                                                                                                                                                         000022
