01REMESSA01COBRANCA       916200163100        União Umb dos Cultos Afro Bra341BANCO ITAU SA  280619                                                                                                                                                                                                                                                                                                      000001
10231987175000168916200163100    000049840                    000498400000000000000109                     I0149840     12071900000000120003410000017N280619105700000000000401207190000000000000000000000000000000000000000100059680903753TANIA REGINA DOS SANTOS MARQUE          RUA VISCONDE DE MACEION 50, FRENTE      IRAJA       21235100RIO DE JANEIRO RJUNIAO UMB DOS CULTOS AFRO BRAS    12071915 000002
21120720190000000000240                                                                                                                                                                                                                                                                                                                                                                                   000003
10231987175000168916200163100    000049839                    000498390000000000000109                     I0149839     30071900000000080003410000017N280619105700000000000263007190000000000000000000000000000000000000000100001687749760ELIZABETE MARINS GOMES                  AVENIDA PREFEITO JOAQUIM MENDESN 53,    BAIRRO DA AM24902100MARICA         RJUNIAO UMB DOS CULTOS AFRO BRAS    30071915 000004
21300720190000000000160                                                                                                                                                                                                                                                                                                                                                                                   000005
10231987175000168916200163100    000049838                    000498380000000000000109                     I0149838     15071900000000040003410000017N280619105700000000000131507190000000000000000000000000000000000000000100043314503768LUIZ GONZAGA DE OLIVEIRA FILHO          RUA UNIAON 16,                          ANIL        22753709RIO DE JANEIRO RJUNIAO UMB DOS CULTOS AFRO BRAS    15071915 000006
21150720190000000000080                                                                                                                                                                                                                                                                                                                                                                                   000007
10231987175000168916200163100    000049837                    000498370000000000000109                     I0149837     15071900000000080003410000017N280619105700000000000261507190000000000000000000000000000000000000000100043314503768LUIZ GONZAGA DE OLIVEIRA FILHO          RUA UNIAON 16,                          ANIL        22753709RIO DE JANEIRO RJUNIAO UMB DOS CULTOS AFRO BRAS    15071915 000008
21150720190000000000160                                                                                                                                                                                                                                                                                                                                                                                   000009
10231987175000168916200163100    000044342                    000443420000000000000109                     I0244342     30061900000000040003410000017N130319105700000000000133006190000000000000000000000000000000000000000100059680903753TANIA REGINA DOS SANTOS MARQUE          RUA VISCONDE DE MACEION 50, FRENTE      IRAJA       21235100RIO DE JANEIRO RJUNIAO UMB DOS CULTOS AFRO BRAS    30061915 000010
21300620190000000000080                                                                                                                                                                                                                                                                                                                                                                                   000011
10231987175000168916200163100    000043437                    000434370000000000000109                     I0243437     30061900000000040003410000017N130319105700000000000133006190000000000000000000000000000000000000000100075591294715OSVALDO LUIZ ESTRELA FERNANDES          RUA ANTONIO MATHEUSN 0, LOTE 31 A QUADRALEANDRO     23826225ITAGUAI        RJUNIAO UMB DOS CULTOS AFRO BRAS    30061915 000012
21300620190000000000080                                                                                                                                                                                                                                                                                                                                                                                   000013
10231987175000168916200163100    000043410                    000434100000000000000109                     I0243410     30061900000000040003410000017N130319105700000000000133006190000000000000000000000000000000000000000100003778949748MARLENE PEREIRA DA SILVA MELO           RUA COMENDADOR REISN 481,               CENTRO      25900142MAGE           RJUNIAO UMB DOS CULTOS AFRO BRAS    30061915 000014
21300620190000000000080                                                                                                                                                                                                                                                                                                                                                                                   000015
10231987175000168916200163100    000043220                    000432200000000000000109                     I0243220     30061900000000040003410000017N130319105700000000000133006190000000000000000000000000000000000000000100043314503768LUIZ GONZAGA DE OLIVEIRA FILHO          RUA UNIAON 16,                          ANIL        22753709RIO DE JANEIRO RJUNIAO UMB DOS CULTOS AFRO BRAS    30061915 000016
21300620190000000000080                                                                                                                                                                                                                                                                                                                                                                                   000017
10231987175000168916200163100    000042694                    000426940000000000000109                     I0242694     30051900000000040003410000017N130319105700000000000133005190000000000000000000000000000000000000000100059680903753TANIA REGINA DOS SANTOS MARQUE          RUA VISCONDE DE MACEION 50, FRENTE      IRAJA       21235100RIO DE JANEIRO RJUNIAO UMB DOS CULTOS AFRO BRAS    30051915 000018
21300520190000000000080                                                                                                                                                                                                                                                                                                                                                                                   000019
10231987175000168916200163100    000042162                    000421620000000000000109                     I3442162     30051900000000040003410000017N130319105700000000000133005190000000000000000000000000000000000000000100007609502707WALDENILSON DUARTE DOS SANTOS           RUA BERNARDINO CAMPOSN 64, CASA 8       PIEDADE     20756150RIO DE JANEIRO RJUNIAO UMB DOS CULTOS AFRO BRAS    30051915 000020
21300520190000000000080                                                                                                                                                                                                                                                                                                                                                                                   000021
10231987175000168916200163100    000041794                    000417940000000000000109                     I0241794     30051900000000040003410000017N130319105700000000000133005190000000000000000000000000000000000000000100075591294715OSVALDO LUIZ ESTRELA FERNANDES          RUA ANTONIO MATHEUSN 0, LOTE 31 A QUADRALEANDRO     23826225ITAGUAI        RJUNIAO UMB DOS CULTOS AFRO BRAS    30051915 000022
21300520190000000000080                                                                                                                                                                                                                                                                                                                                                                                   000023
10231987175000168916200163100    000041767                    000417670000000000000109                     I0241767     30051900000000040003410000017N130319105700000000000133005190000000000000000000000000000000000000000100003778949748MARLENE PEREIRA DA SILVA MELO           RUA COMENDADOR REISN 481,               CENTRO      25900142MAGE           RJUNIAO UMB DOS CULTOS AFRO BRAS    30051915 000024
21300520190000000000080                                                                                                                                                                                                                                                                                                                                                                                   000025
10231987175000168916200163100    000041580                    000415800000000000000109                     I0241580     30051900000000040003410000017N130319105700000000000133005190000000000000000000000000000000000000000100043314503768LUIZ GONZAGA DE OLIVEIRA FILHO          RUA UNIAON 16,                          ANIL        22753709RIO DE JANEIRO RJUNIAO UMB DOS CULTOS AFRO BRAS    30051915 000026
21300520190000000000080                                                                                                                                                                                                                                                                                                                                                                                   000027
10231987175000168916200163100    000041055                    000410550000000000000109                     I0241055     30041900000000040003410000017N120319105700000000000133004190000000000000000000000000000000000000000100059680903753TANIA REGINA DOS SANTOS MARQUE          RUA VISCONDE DE MACEION 50, FRENTE      IRAJA       21235100RIO DE JANEIRO RJUNIAO UMB DOS CULTOS AFRO BRAS    30041915 000028
21300420190000000000080                                                                                                                                                                                                                                                                                                                                                                                   000029
10231987175000168916200163100    000040527                    000405270000000000000109                     I3440527     30041900000000040003410000017N120319105700000000000133004190000000000000000000000000000000000000000100007609502707WALDENILSON DUARTE DOS SANTOS           RUA BERNARDINO CAMPOSN 64, CASA 8       PIEDADE     20756150RIO DE JANEIRO RJUNIAO UMB DOS CULTOS AFRO BRAS    30041915 000030
21300420190000000000080                                                                                                                                                                                                                                                                                                                                                                                   000031
10231987175000168916200163100    000040161                    000401610000000000000109                     I0240161     30041900000000040003410000017N120319105700000000000133004190000000000000000000000000000000000000000100075591294715OSVALDO LUIZ ESTRELA FERNANDES          RUA ANTONIO MATHEUSN 0, LOTE 31 A QUADRALEANDRO     23826225ITAGUAI        RJUNIAO UMB DOS CULTOS AFRO BRAS    30041915 000032
21300420190000000000080                                                                                                                                                                                                                                                                                                                                                                                   000033
10231987175000168916200163100    000040134                    000401340000000000000109                     I0240134     30041900000000040003410000017N120319105700000000000133004190000000000000000000000000000000000000000100003778949748MARLENE PEREIRA DA SILVA MELO           RUA COMENDADOR REISN 481,               CENTRO      25900142MAGE           RJUNIAO UMB DOS CULTOS AFRO BRAS    30041915 000034
21300420190000000000080                                                                                                                                                                                                                                                                                                                                                                                   000035
10231987175000168916200163100    000039948                    000399480000000000000109                     I0239948     30041900000000040003410000017N120319105700000000000133004190000000000000000000000000000000000000000100043314503768LUIZ GONZAGA DE OLIVEIRA FILHO          RUA UNIAON 16,                          ANIL        22753709RIO DE JANEIRO RJUNIAO UMB DOS CULTOS AFRO BRAS    30041915 000036
21300420190000000000080                                                                                                                                                                                                                                                                                                                                                                                   000037
9                                                                                                                                                                                                                                                                                                                                                                                                         000038
