01REMESSA01COBRANCA       916200163100        União Umb dos Cultos Afro Bra341BANCO ITAU SA  170419                                                                                                                                                                                                                                                                                                      000001
10231987175000168916200163100    000045073                    000450730000000000000109                     I0145073     30041900000000120003410000017N170419105700000000000103004190000000000000000000000000000000000000000100087868172720ADHEMAR ACHILLES AVILLA JUNIOR          RUA PADRE GILN 20,                      PARQUE BONEV25907096MAGE           RJUNIAO UMB DOS CULTOS AFRO BRAS    30041915 000002
10231987175000168916200163100    000044681                    000446810000000000000109                     I0244681     30061900000000040003410000017N130319105700000000000103006190000000000000000000000000000000000000000100010440702771AMANDA APARECIDA AZEVEDO CARDO          RUA COREMASN 0, LOTE 22 QUADRA 76       COSMOS      23060040RIO DE JANEIRO RJUNIAO UMB DOS CULTOS AFRO BRAS    30061915 000003
10231987175000168916200163100    000044629                    000446290000000000000109                     I0244629     30061900000000040003410000017N130319105700000000000103006190000000000000000000000000000000000000000100080705774791MARIA FREITAS DOS SANTOS MACHA          RUA: JOSE DE OLIVEIRAN 12,              SEPETIBA    23570086RIO DE JANEIRO RJUNIAO UMB DOS CULTOS AFRO BRAS    30061915 000004
10231987175000168916200163100    000044556                    000445560000000000000109                     I0244556     30061900000000040003410000017N130319105700000000000103006190000000000000000000000000000000000000000100076348547787EDIVANICE DE OLIVEIRA DA CRUZ           RUA J J COWSERT N 300, CASA 20          TOMAS COELHO21370450RIO DE JANEIRO RJUNIAO UMB DOS CULTOS AFRO BRAS    30061915 000005
10231987175000168916200163100    000044358                    000443580000000000000109                     I0244358     30061900000000040003410000017N130319105700000000000103006190000000000000000000000000000000000000000100001383163766RENATA DOMINGUES COSTA LIMA JA          RUA CALIFAN 7,                          LAGOINHA    26298012NOVA IGUACU    RJUNIAO UMB DOS CULTOS AFRO BRAS    30061915 000006
10231987175000168916200163100    000043027                    000430270000000000000109                     I0243027     30051900000000040003410000017N130319105700000000000103005190000000000000000000000000000000000000000100010440702771AMANDA APARECIDA AZEVEDO CARDO          RUA COREMASN 0, LOTE 22 QUADRA 76       COSMOS      23060040RIO DE JANEIRO RJUNIAO UMB DOS CULTOS AFRO BRAS    30051915 000007
10231987175000168916200163100    000042976                    000429760000000000000109                     I0242976     30051900000000040003410000017N130319105700000000000103005190000000000000000000000000000000000000000100080705774791MARIA FREITAS DOS SANTOS MACHA          RUA: JOSE DE OLIVEIRAN 12,              SEPETIBA    23570086RIO DE JANEIRO RJUNIAO UMB DOS CULTOS AFRO BRAS    30051915 000008
10231987175000168916200163100    000042903                    000429030000000000000109                     I0242903     30051900000000040003410000017N130319105700000000000103005190000000000000000000000000000000000000000100076348547787EDIVANICE DE OLIVEIRA DA CRUZ           RUA J J COWSERT N 300, CASA 20          TOMAS COELHO21370450RIO DE JANEIRO RJUNIAO UMB DOS CULTOS AFRO BRAS    30051915 000009
10231987175000168916200163100    000042710                    000427100000000000000109                     I0242710     30051900000000040003410000017N130319105700000000000103005190000000000000000000000000000000000000000100001383163766RENATA DOMINGUES COSTA LIMA JA          RUA CALIFAN 7,                          LAGOINHA    26298012NOVA IGUACU    RJUNIAO UMB DOS CULTOS AFRO BRAS    30051915 000010
10231987175000168916200163100    000041385                    000413850000000000000109                     I0241385     30041900000000040003410000017N120319105700000000000103004190000000000000000000000000000000000000000100010440702771AMANDA APARECIDA AZEVEDO CARDO          RUA COREMASN 0, LOTE 22 QUADRA 76       COSMOS      23060040RIO DE JANEIRO RJUNIAO UMB DOS CULTOS AFRO BRAS    30041915 000011
10231987175000168916200163100    000041335                    000413350000000000000109                     I0241335     30041900000000040003410000017N120319105700000000000103004190000000000000000000000000000000000000000100080705774791MARIA FREITAS DOS SANTOS MACHA          RUA: JOSE DE OLIVEIRAN 12,              SEPETIBA    23570086RIO DE JANEIRO RJUNIAO UMB DOS CULTOS AFRO BRAS    30041915 000012
10231987175000168916200163100    000041261                    000412610000000000000109                     I0241261     30041900000000040003410000017N120319105700000000000103004190000000000000000000000000000000000000000100076348547787EDIVANICE DE OLIVEIRA DA CRUZ           RUA J J COWSERT N 300, CASA 20          TOMAS COELHO21370450RIO DE JANEIRO RJUNIAO UMB DOS CULTOS AFRO BRAS    30041915 000013
10231987175000168916200163100    000041153                    000411530000000000000109                     I0241153     30041900000000040003410000017N120319105700000000000103004190000000000000000000000000000000000000000100089497899734UGO SILVA FILHO                         RUA ITABAIANA N 49, APT 502             GRAJAU      20561050RIO DE JANEIRO RJUNIAO UMB DOS CULTOS AFRO BRAS    30041915 000014
10231987175000168916200163100    000041071                    000410710000000000000109                     I0241071     30041900000000040003410000017N120319105700000000000103004190000000000000000000000000000000000000000100001383163766RENATA DOMINGUES COSTA LIMA JA          RUA CALIFAN 7,                          LAGOINHA    26298012NOVA IGUACU    RJUNIAO UMB DOS CULTOS AFRO BRAS    30041915 000015
10231987175000168916200163100    000039792                    000397920000000000000109                     I0239792     31031900000000040003410000017N140219105700000000000103103190000000000000000000000000000000000000000100089497899734UGO SILVA FILHO                         RUA ITABAIANA N 49, APT 502             GRAJAU      20561050RIO DE JANEIRO RJUNIAO UMB DOS CULTOS AFRO BRAS    31031915 000016
9                                                                                                                                                                                                                                                                                                                                                                                                         000017
