01REMESSA01COBRANCA       817800093673        União Umb dos Cultos Afro Bra341BANCO ITAU SA  240419                                                                                                                                                                                                                                                                                                      000001
10231987175000168817800093673    000045038                    000450380000000000000109                     I0245038     15041900000000040003410000017N100419105700000000000101504190000000000000000000000000000000000000000100002134169729ALEXANDRE DE ALMEIDA                    RUA SERITINGAN 105,  BLOCO 5 APTO 108 FUBRAS DE PINA21215480RIO DE JANEIRO RJUNIAO UMB DOS CULTOS AFRO BRAS    15041915 000002
10231987175000168817800093673    000039872                    000398720000000000000109                     I0239872     15031900000000080003410000017N120319105700000000000101503190000000000000000000000000000000000000000100006927798765ROSA MARIA RICARDO                      RUA JOAQUIM BESSAN 169, 148 / RUA DOIS  TRINDADE    24210205SAO GONCALO    RJUNIAO UMB DOS CULTOS AFRO BRAS    15031915 000003
10231987175000168817800093673    000039869                    000398690000000000000109                     I0239869     13031900000000350003410000017N110319105700000000000101303190000000000000000000000000000000000000000100003248430702CRISTIANA ROSA DE OLIVEIRA              ESTRADA DA PORTEIRA N 0, LOTE 22 QUADRA JARDIM MAR  23821140ITAGUAI        RJUNIAO UMB DOS CULTOS AFRO BRAS    13031915 000004
10231987175000168817800093673    000039861                    000398610000000000000109                     I0239861     20031900000000160003410000017N110319105700000000000102003190000000000000000000000000000000000000000100008271397729ELIZABETH GANTERT DA ROCHA GUI          RUA ADRIANAN 204,                       VAL VERDE - 26351140NOVA IGUACU    RJUNIAO UMB DOS CULTOS AFRO BRAS    20031915 000005
10231987175000168817800093673    000039860                    000398600000000000000109                     I0239860     22031900000000120003410000017N110319105700000000000102203190000000000000000000000000000000000000000100009142845769MICHELE OAZEM MINEIRO                   RUA CARIOCAN 0, LOTE 10 QUADRA B        SAO BERNARDO26167210BELFORD ROXO   RJUNIAO UMB DOS CULTOS AFRO BRAS    22031915 000006
10231987175000168817800093673    000039859                    000398590000000000000109                     I0239859     25031900000000080003410000017N110319105700000000000102503190000000000000000000000000000000000000000100008331240723MONIQUE SUZANO ASSUNCAO DE OLI          RUA: DIVINOPOLIS N 35,                  BENTO RIBEIR21550280RIO DE JANEIRO RJUNIAO UMB DOS CULTOS AFRO BRAS    25031915 000007
10231987175000168817800093673    000039855                    000398550000000000000109                     I0239855     08031900000000040003410000017N280219105700000000000100803190000000000000000000000000000000000000000100037465732700NADIA MARIA DE BRITTO LUCENA            RUA: LIBERATO BITENCOURT N 170,         MAGALHAES BA21735120RIO DE JANEIRO RJUNIAO UMB DOS CULTOS AFRO BRAS    08031915 000008
10231987175000168817800093673    000039799                    000397990000000000000109                     I0239799     28021900000000040003410000017N150219105700000000000102802190000000000000000000000000000000000000000100010058913700RAMON DO NASCIMENTO MANES               RUA LIGIA N 329, CASA 1 FUNDOS          OLARIA      21073280RIO DE JANEIRO RJUNIAO UMB DOS CULTOS AFRO BRAS    28021915 000009
10231987175000168817800093673    000039798                    000397980000000000000109                     I0239798     28021900000000040003410000017N150219105700000000000102802190000000000000000000000000000000000000000100010058913700RAMON DO NASCIMENTO MANES               RUA LIGIA N 329, CASA 1 FUNDOS          OLARIA      21073280RIO DE JANEIRO RJUNIAO UMB DOS CULTOS AFRO BRAS    28021915 000010
10231987175000168817800093673    000039797                    000397970000000000000109                     I0239797     05031900000000200003410000017N150219105700000000000100503190000000000000000000000000000000000000000100003671873701MARCELO DO VALLE ABREU                  RUA: DEPUTADO SA REGON 211, FUNDOS      VILA SAO LUI25060300DUQUE DE CAXIASRJUNIAO UMB DOS CULTOS AFRO BRAS    05031915 000011
10231987175000168817800093673    000039785                    000397850000000000000109                     I0239785     05031900000000200003410000017N130219105700000000000100503190000000000000000000000000000000000000000100090693981768INALDO MANOEL DOS SANTOS                RUA LUCIO ALVESN 450,  BLOCO 13 APT° 10BANGU       21863430RIO DE JANEIRO RJUNIAO UMB DOS CULTOS AFRO BRAS    05031915 000012
10231987175000168817800093673    000039779                    000397790000000000000109                     I0239779     01031900000000350003410000017N120219105700000000000100103190000000000000000000000000000000000000000100080592368491MARIA JOSE PEREIRA NOGUEIRA DE          ALAMEDA GOIANIA N 26,                   ENGENHO DO R24752520SAO GONCALO    RJUNIAO UMB DOS CULTOS AFRO BRAS    01031915 000013
10231987175000168817800093673    000039777                    000397770000000000000109                     I0239777     15031900000000350003410000017N120219105700000000000101503190000000000000000000000000000000000000000100004746270716ANTONIO CARLOS FERNANDES                RUA FRANCISCO DE CASTRO N 9, CASA 1     SANTA TERESA20241300RIO DE JANEIRO RJUNIAO UMB DOS CULTOS AFRO BRAS    15031915 000014
10231987175000168817800093673    000039755                    000397550000000000000109                     I0239755     28021900000000350003410000017N080219105700000000000102802190000000000000000000000000000000000000000100085775576772LUSIA DE FREITAS SERVA                  RUA: PEREIRA NETON 0, LOTE 35 QUADRA 38 GUARATIBA   23032545RIO DE JANEIRO RJUNIAO UMB DOS CULTOS AFRO BRAS    28021915 000015
10231987175000168817800093673    000039746                    000397460000000000000109                     I0239746     20031900000000040003410000017N070219105700000000000102003190000000000000000000000000000000000000000100083780262720MARIA JOANA DOROTEIA DE PAULA           ESTRADA MERINGUAVAN 701, PINHEIRO 11    TAQUARA     22725442RIO DE JANEIRO RJUNIAO UMB DOS CULTOS AFRO BRAS    20031915 000016
10231987175000168817800093673    000039745                    000397450000000000000109                     I0239745     28021900000000040003410000017N070219105700000000000102802190000000000000000000000000000000000000000100083780262720MARIA JOANA DOROTEIA DE PAULA           ESTRADA MERINGUAVAN 701, PINHEIRO 11    TAQUARA     22725442RIO DE JANEIRO RJUNIAO UMB DOS CULTOS AFRO BRAS    28021915 000017
10231987175000168817800093673    000039735                    000397350000000000000109                     I0239735     28021900000000200003410000017N050219105700000000000102802190000000000000000000000000000000000000000100005436665730JORGE LUIZ VICTORIO LIMA                AVENIDA MARCOVALDI N 271,               NOVA ESPERAN26113040BELFORD ROXO   RJUNIAO UMB DOS CULTOS AFRO BRAS    28021915 000018
10231987175000168817800093673    000039726                    000397260000000000000109                     I0239726     28021900000000040003410000017N050219105700000000000102802190000000000000000000000000000000000000000100079769985449MARIA DA PENHA DA CONCEICAO             RUA SAO FELIX N 30, QUADRA 46 LOTE 607  VILA SANTA C25260107DUQUE DE CAXIASRJUNIAO UMB DOS CULTOS AFRO BRAS    28021915 000019
10231987175000168817800093673    000039719                    000397190000000000000109                     I0239719     28021900000000040003410000017N040219105700000000000102802190000000000000000000000000000000000000000100007296951745PAULO FRANCISCO DA SILVA DANIE          RUA OTAWAN 407,                         VIGARIO GERA21241220RIO DE JANEIRO RJUNIAO UMB DOS CULTOS AFRO BRAS    28021915 000020
10231987175000168817800093673    000039717                    000397170000000000000109                     I0239717     28021900000000040003410000017N040219105700000000000102802190000000000000000000000000000000000000000100087188775753LETICIA SANTOS RIBEIRO                  RUA PROJETADA BN 0, LOTE 7 QUADRA A     SANTISSIMO  23093327RIO DE JANEIRO RJUNIAO UMB DOS CULTOS AFRO BRAS    28021915 000021
10231987175000168817800093673    000039715                    000397150000000000000109                     I0239715     28021900000000040003410000017N040219105700000000000102802190000000000000000000000000000000000000000100046582908715WANDERLEI ABRANTES TEIXEIRA             RUA LOURDES BARBOSA PASSASN 26, QUADRA 2BRISA MAR   23826360ITAGUAI        RJUNIAO UMB DOS CULTOS AFRO BRAS    28021915 000022
10231987175000168817800093673    000039679                    000396790000000000000109                     I0239679     11031900000000200003410000017N290119105700000000000101103190000000000000000000000000000000000000000100048123765720JUANJARA HENRIQUE DOS SANTOS            AVENIDA: CHOPIN N 75, A                 JARDIM GRAMA25050580DUQUE DE CAXIASRJUNIAO UMB DOS CULTOS AFRO BRAS    11031915 000023
10231987175000168817800093673    000039660                    000396600000000000000109                     I0239660     28021900000000040003410000017N290119105700000000000102802190000000000000000000000000000000000000000100005414691770UANDERSON DE SOUZA XAVIER               RUA: ALFREDO MANSURN 130,               MORRO GAMA  27150430BARRA DO PIRAI RJUNIAO UMB DOS CULTOS AFRO BRAS    28021915 000024
10231987175000168817800093673    000039658                    000396580000000000000109                     I0239658     28021900000000025003410000017N280119105700000000000102802190000000000000000000000000000000000000000100052329160763NENI GOMES DE ALMEIDA                   RUA MARIA SANTANA FERNANDES N 0, LOTE 8 JARDIM ACACI23845250SEROPEDICA     RJUNIAO UMB DOS CULTOS AFRO BRAS    28021915 000025
10231987175000168817800093673    000039655                    000396550000000000000109                     I0239655     28021900000000040003410000017N280119105700000000000102802190000000000000000000000000000000000000000100000729885763MANOEL BENEDITO DOS SANTOS              RUA CEARA N 151,                        CIDADE BEIRA28890200RIO DAS OSTRAS RJUNIAO UMB DOS CULTOS AFRO BRAS    28021915 000026
10231987175000168817800093673    000039555                    000395550000000000000109                     I0239555     28021900000000040003410000017N110119105700000000000102802190000000000000000000000000000000000000000100010880272708FERNANDA DOS SANTOS PEREIRA             RUA LINS DE VASCONCELOSN 593,           LINS DE VASC20710130RIO DE JANEIRO RJUNIAO UMB DOS CULTOS AFRO BRAS    28021915 000027
10231987175000168817800093673    000039537                    000395370000000000000109                     I0239537     28021900000000300003410000017N100119105700000000000102802190000000000000000000000000000000000000000100061487856768ROSELI ROCHA DA SILVA FERREIRA          RUA DOUTOR MESQUITA N 442, CASA 4       NOSSA SENHOR27113010BARRA DO PIRAI RJUNIAO UMB DOS CULTOS AFRO BRAS    28021915 000028
10231987175000168817800093673    000039534                    000395340000000000000109                     I0239534     28021900000000040003410000017N100119105700000000000102802190000000000000000000000000000000000000000100002325846725ISRAEL AUGUSTO NUNES CALDEIRAO          RUA: FERNAN CARDIM N 0, LOTE 1 QUADRA 14OLAVO BILAC 25025400RIO DE JANEIRO RJUNIAO UMB DOS CULTOS AFRO BRAS    28021915 000029
10231987175000168817800093673    000039400                    000394000000000000000109                     I0239400     28021900000000040003410000017N271218105700000000000102802190000000000000000000000000000000000000000100006067864738MARLY ROSA DIAS CUNHA                   RUA: MARARIN 196, CASA 1                BRAZ DE PINA21011200RIO DE JANEIRO RJUNIAO UMB DOS CULTOS AFRO BRAS    28021915 000030
10231987175000168817800093673    000039397                    000393970000000000000109                     I0239397     28021900000000040003410000017N271218105700000000000102802190000000000000000000000000000000000000000100059962615704ILMA DA SILVA PETRONILHO                RUA: ARINDAN 318,                       VILA DE CAVA26052640NOVA IGUACU    RJUNIAO UMB DOS CULTOS AFRO BRAS    28021915 000031
10231987175000168817800093673    000039388                    000393880000000000000109                     I0239388     28021900000000040003410000017N271218105700000000000102802190000000000000000000000000000000000000000100085488526749MARCOS ROMEU DA SILVA                   RUA CAMINHO DO VELOSON 836, CASA 4      AUGUSTO VASC23013090CAMPO GRANDE   RJUNIAO UMB DOS CULTOS AFRO BRAS    28021915 000032
10231987175000168817800093673    000039384                    000393840000000000000109                     I0239384     28021900000000040003410000017N261218105700000000000102802190000000000000000000000000000000000000000100088033945753JOSE RICARDO RIBEIRO DE AMORIM          RUA IGARATAN 994, CASA 1                MARECHAL HER21555250RIO DE JANEIRO RJUNIAO UMB DOS CULTOS AFRO BRAS    28021915 000033
10231987175000168817800093673    000037450                    000374500000000000000109                     I0237450     28021900000000040003410000017N261218105700000000000102802190000000000000000000000000000000000000000100004131909782SIMONE ANCHIETA DE AMORIM               RUA CAROLINA CARDOSON 0, FD LT 3 QD 1   PILAR       25233150DUQUE DE CAXIASRJUNIAO UMB DOS CULTOS AFRO BRAS    28021915 000034
10231987175000168817800093673    000037443                    000374430000000000000109                     I0237443     28021900000000040003410000017N261218105700000000000102802190000000000000000000000000000000000000000229148311000184CANTINHO DO VOVO REI CONGO E O          RUA CONSELHEIRO AGOSTINHON 55, APARTAMENCACHAMBI    20770160RIO DE JANEIRO RJUNIAO UMB DOS CULTOS AFRO BRAS    28021915 000035
10231987175000168817800093673    000037442                    000374420000000000000109                     I0237442     28021900000000040003410000017N261218105700000000000102802190000000000000000000000000000000000000000100005948651746DIOGO RODRIGUES DOS SANTOS              RUA PETER LUNDN 38, BLOCO 1 APT 407     SAO CRISTOVA20930390RIO DE JANEIRO RJUNIAO UMB DOS CULTOS AFRO BRAS    28021915 000036
10231987175000168817800093673    000037438                    000374380000000000000109                     I0237438     28021900000000040003410000017N261218105700000000000102802190000000000000000000000000000000000000000100008109127754DAMIANA CRISTINA SILVA DOS SAN          RUA IGARAPE N 203,                      JARDIM OLAVO25025340DUQUE DE CAXIASRJUNIAO UMB DOS CULTOS AFRO BRAS    28021915 000037
10231987175000168817800093673    000037437                    000374370000000000000109                     I0237437     28021900000000040003410000017N261218105700000000000102802190000000000000000000000000000000000000000100005170208740DJAIR DE PAULA CAVALCANTI               RUA RESTINGAN 0, LOTE 11 QUADRA 35 A - SCAMPO GRANDE23097650RIO DE JANEIRO RJUNIAO UMB DOS CULTOS AFRO BRAS    28021915 000038
10231987175000168817800093673    000037436                    000374360000000000000109                     I0237436     28021900000000040003410000017N261218105700000000000102802190000000000000000000000000000000000000000100029040973768NELSON PEREIRA DE CARVALHO              RUA DO CAMPON 35,                       CONCEICAO DE23885000MANGARATIBA    RJUNIAO UMB DOS CULTOS AFRO BRAS    28021915 000039
10231987175000168817800093673    000037434                    000374340000000000000109                     I0237434     28021900000000040003410000017N261218105700000000000102802190000000000000000000000000000000000000000100010953053792DANIELE FERNANDES DE CARVALHO           RUA BARROSON 0, CASA 1 LOTE 30 QUADRA 97JARDIM CABUC26291428NOVA IGUACU    RJUNIAO UMB DOS CULTOS AFRO BRAS    28021915 000040
10231987175000168817800093673    000037432                    000374320000000000000109                     I0237432     28021900000000040003410000017N261218105700000000000102802190000000000000000000000000000000000000000100009001361706SOLANGE DE SOUZA                        RUA PRUDENTE DE MORAISN 416,            IPANEMA     22420040RIO DE JANEIRO RJUNIAO UMB DOS CULTOS AFRO BRAS    28021915 000041
10231987175000168817800093673    000037430                    000374300000000000000109                     I0237430     28021900000000040003410000017N261218105700000000000102802190000000000000000000000000000000000000000100001510995706JUPIRA FARIAS DE MATTOS                 ESTRADA ALARICO DE SOUZAN 703, CASA 2   LARGO DA BAT24315320NITEROI        RJUNIAO UMB DOS CULTOS AFRO BRAS    28021915 000042
10231987175000168817800093673    000037429                    000374290000000000000109                     I0237429     28021900000000040003410000017N261218105700000000000102802190000000000000000000000000000000000000000100003544254719EDIJANE PINHEIRO DE LIMA                RUA: DOIS DE JANEIRON 0, LOTE 54 QUADRA CAMPO GRANDE23097588RIO DE JANEIRO RJUNIAO UMB DOS CULTOS AFRO BRAS    28021915 000043
10231987175000168817800093673    000037427                    000374270000000000000109                     I0237427     28021900000000040003410000017N261218105700000000000102802190000000000000000000000000000000000000000100002171972726RAQUEL DE SOUZA MENESES                 RUA ROMERO ZANDER N 271, ENTRADA A - AP RAMOS       21040080RIO DE JANEIRO RJUNIAO UMB DOS CULTOS AFRO BRAS    28021915 000044
10231987175000168817800093673    000037426                    000374260000000000000109                     I0237426     28021900000000040003410000017N261218105700000000000102802190000000000000000000000000000000000000000100007245028745SANDRA REGINA MARQUES                   RUA MIGUEL UNAMUNON 0, LOTE 18 QUADRA 4 JARDIM ROTSE25270120DUQUE DE CAXIASRJUNIAO UMB DOS CULTOS AFRO BRAS    28021915 000045
10231987175000168817800093673    000037425                    000374250000000000000109                     I0237425     28021900000000040003410000017N261218105700000000000102802190000000000000000000000000000000000000000100050660098768ENI MARIA DA CONCEICAO DE MOUR          RUA IPIRANGAN 0, LOTE 24 E 25           BARRO BRANCO25267365DUQUE DE CAXIASRJUNIAO UMB DOS CULTOS AFRO BRAS    28021915 000046
10231987175000168817800093673    000037423                    000374230000000000000109                     I0237423     28021900000000040003410000017N261218105700000000000102802190000000000000000000000000000000000000000100083883363715ISABEL HELENA CEZARIO MEDEIROS          RUA DUQUE DE CAXIASN 129,               VILA ISABEL 20551050RIO DE JANEIRO RJUNIAO UMB DOS CULTOS AFRO BRAS    28021915 000047
10231987175000168817800093673    000037419                    000374190000000000000109                     I0237419     28021900000000040003410000017N261218105700000000000102802190000000000000000000000000000000000000000100088763765772VERONICA CECILIA DE AGUIAR              RUA LAURELINO FREIREN 101, CASA 7       GUAXINDIBA  24722330SAO GONCALO    RJUNIAO UMB DOS CULTOS AFRO BRAS    28021915 000048
10231987175000168817800093673    000037418                    000374180000000000000109                     I0237418     28021900000000040003410000017N261218105700000000000102802190000000000000000000000000000000000000000100000840541740JUCIARA GONCALVES NEPOMUCENO            RUA CASTRO VIEIRAN 174,                 AREIA BRANCA26112360BELFORD ROXO   RJUNIAO UMB DOS CULTOS AFRO BRAS    28021915 000049
10231987175000168817800093673    000037415                    000374150000000000000109                     I0237415     28021900000000040003410000017N261218105700000000000102802190000000000000000000000000000000000000000100009142845769MICHELE OAZEM MINEIRO                   RUA CARIOCAN 0, LOTE 10 QUADRA B        SAO BERNARDO26167210BELFORD ROXO   RJUNIAO UMB DOS CULTOS AFRO BRAS    28021915 000050
10231987175000168817800093673    000037413                    000374130000000000000109                     I0237413     28021900000000040003410000017N261218105700000000000102802190000000000000000000000000000000000000000100013376872783ELIANE MENDES DA SILVA                  RUA BECO BARREIRAN 68,                  SANTA CRUZ  23555110RIO DE JANEIRO RJUNIAO UMB DOS CULTOS AFRO BRAS    28021915 000051
10231987175000168817800093673    000037411                    000374110000000000000109                     I0237411     28021900000000040003410000017N261218105700000000000102802190000000000000000000000000000000000000000100034463399300MARIA ENOIA DE SOUSA CORREA             RUA BORBOREMAN 37, CASA 1               MADUREIRA   21360150RIO DE JANEIRO RJUNIAO UMB DOS CULTOS AFRO BRAS    28021915 000052
10231987175000168817800093673    000037400                    000374000000000000000109                     I0237400     28021900000000040003410000017N261218105700000000000102802190000000000000000000000000000000000000000100007403387732MARCOS MAURICIO DOS SANTOS COS          RUA: BOA VISTAN 299,                    CARAMUJO    24140460NITEROI        RJUNIAO UMB DOS CULTOS AFRO BRAS    28021915 000053
10231987175000168817800093673    000037398                    000373980000000000000109                     I0237398     28021900000000040003410000017N261218105700000000000102802190000000000000000000000000000000000000000100099447690700CARLA LESSA QUINTANILHA VASCON          RUA: BORBOREMAN 103, CASA 201           MADUREIRA   21360150RIO DE JANEIRO RJUNIAO UMB DOS CULTOS AFRO BRAS    28021915 000054
10231987175000168817800093673    000037396                    000373960000000000000109                     I0237396     28021900000000040003410000017N261218105700000000000102802190000000000000000000000000000000000000000100014165634743GLAUBER VINICIUS DE ALMEIDA BA          RUA SAO CARLOSN 75,                     ESTACIO     20250052RIO DE JANEIRO RJUNIAO UMB DOS CULTOS AFRO BRAS    28021915 000055
10231987175000168817800093673    000037395                    000373950000000000000109                     I0237395     28021900000000040003410000017N261218105700000000000102802190000000000000000000000000000000000000000100095906746749KATIA LOPES SOARES                      ESTRADA PAU DA FOMEN 3265,              TAQUARA     22723347RIO DE JANEIRO RJUNIAO UMB DOS CULTOS AFRO BRAS    28021915 000056
10231987175000168817800093673    000037394                    000373940000000000000109                     I0237394     28021900000000040003410000017N261218105700000000000102802190000000000000000000000000000000000000000100012303421764PEDRO JONAS ARAUJO CORDEIRO             RUA JOSE LIMA DA SILVAN 0, LOTE 7 QUADRASANTA RITA  26185610BELFORD ROXO   RJUNIAO UMB DOS CULTOS AFRO BRAS    28021915 000057
10231987175000168817800093673    000037392                    000373920000000000000109                     I0237392     28021900000000040003410000017N261218105700000000000102802190000000000000000000000000000000000000000100003413776789CRISTIANE DE SOUZA GALANTE INA          BECO DA SERVIDAON 70, CASA 3            ENGENHEIRO B25520370SAO JOAO DE MERRJUNIAO UMB DOS CULTOS AFRO BRAS    28021915 000058
10231987175000168817800093673    000037390                    000373900000000000000109                     I0237390     28021900000000040003410000017N261218105700000000000102802190000000000000000000000000000000000000000100008323642745ROSEMERI DE SOUZA COUTINHO              RUA VERA LUCIA N 0, LOTE 20 QUADRA 3    CABUCU      26291452NOVA IGUACU    RJUNIAO UMB DOS CULTOS AFRO BRAS    28021915 000059
10231987175000168817800093673    000037389                    000373890000000000000109                     I0237389     28021900000000040003410000017N261218105700000000000102802190000000000000000000000000000000000000000100007147220730LUIS CARLOS DA COSTA OLIVEIRA           RUA MINAS GERAIS N 0, LOTE 11 QUADRA 159CAMPO ALEGRE26292141NOVA IGUACU    RJUNIAO UMB DOS CULTOS AFRO BRAS    28021915 000060
10231987175000168817800093673    000037387                    000373870000000000000109                     I0237387     28021900000000040003410000017N261218105700000000000102802190000000000000000000000000000000000000000100036139050782VIRGINIA DANTAS FERREIRA                RUA PROFESSOR ALPHEU PORTELA N 127, CONDTAQUARA     22725130RIO DE JANEIRO RJUNIAO UMB DOS CULTOS AFRO BRAS    28021915 000061
10231987175000168817800093673    000037383                    000373830000000000000109                     I0237383     28021900000000040003410000017N261218105700000000000102802190000000000000000000000000000000000000000100003389142770VANIA VIEIRA                            RUA NAMURN 276, CASA 2                  VILA VALQUEI21330600RIO DE JANEIRO RJUNIAO UMB DOS CULTOS AFRO BRAS    28021915 000062
10231987175000168817800093673    000037380                    000373800000000000000109                     I0237380     28021900000000040003410000017N261218105700000000000102802190000000000000000000000000000000000000000100007202542722MIRLA SUSANI DA SILVA SALES             RUA: DOUTOR FREDERICON 395,             LAGOINHA    26296414NOVA IGUACU    RJUNIAO UMB DOS CULTOS AFRO BRAS    28021915 000063
10231987175000168817800093673    000037377                    000373770000000000000109                     I0237377     28021900000000040003410000017N261218105700000000000102802190000000000000000000000000000000000000000100008283050800JOSE RICARDO DE MOURA                   RUA TENENTE SILVINON 204,               CERAMICA    26030126NOVA IGUACU    RJUNIAO UMB DOS CULTOS AFRO BRAS    28021915 000064
10231987175000168817800093673    000037375                    000373750000000000000109                     I0237375     28021900000000040003410000017N261218105700000000000102802190000000000000000000000000000000000000000100075164779749IVANILDO FURTADO DA SILVA               RUA: LUIZ DE CASTRON 206, FUNDOS        PILARES     21760732RIO DE JANEIRO RJUNIAO UMB DOS CULTOS AFRO BRAS    28021915 000065
10231987175000168817800093673    000037373                    000373730000000000000109                     I0237373     28021900000000040003410000017N261218105700000000000102802190000000000000000000000000000000000000000100002098051700FELIPE LOPES DA COSTA CHAVES            RUA: JOSE PINTO FAUSTINON 0, LOTE 14 QUAIPIRANGA    26293441NOVA IGUACU    RJUNIAO UMB DOS CULTOS AFRO BRAS    28021915 000066
10231987175000168817800093673    000037370                    000373700000000000000109                     I0237370     28021900000000040003410000017N261218105700000000000102802190000000000000000000000000000000000000000100015041746745ANAISE SOARES DO CARMO                  RUA JOSE FRANCISCO ALVESN 48,           SEPETIBA    23542120RIO DE JANEIRO RJUNIAO UMB DOS CULTOS AFRO BRAS    28021915 000067
10231987175000168817800093673    000037367                    000373670000000000000109                     I0237367     28021900000000040003410000017N261218105700000000000102802190000000000000000000000000000000000000000100002414887702MARGARETH MARIA DA SILVA GONCA          RUA: SEBASTIAO DE CARVALHON 158,        RAMOS       21061670RIO DE JANEIRO RJUNIAO UMB DOS CULTOS AFRO BRAS    28021915 000068
10231987175000168817800093673    000037366                    000373660000000000000109                     I0237366     28021900000000040003410000017N261218105700000000000102802190000000000000000000000000000000000000000100066645352700NILZA BELISARIO DAMIAO                  ESTRADA SANTA VERIDIANA N 1400, BLOCO 1 SANTA CRUZ  23525254RIO DE JANEIRO RJUNIAO UMB DOS CULTOS AFRO BRAS    28021915 000069
10231987175000168817800093673    000037362                    000373620000000000000109                     I0237362     28021900000000040003410000017N261218105700000000000102802190000000000000000000000000000000000000000100053860225120OTILIA REGINA DE ALENCAR                RUA ITAPEMIRIMN 87,                     SANTA CRUZ  23550310RIO DE JANEIRO RJUNIAO UMB DOS CULTOS AFRO BRAS    28021915 000070
10231987175000168817800093673    000037359                    000373590000000000000109                     I0237359     28021900000000040003410000017N261218105700000000000102802190000000000000000000000000000000000000000100014328358740SILAS BARBOSA DE SOUZA                  ESTRADA REAL DE MAUA N 1901, CASA 11 TRAJARDIM DA PA25926684RIO DE JANEIRO RJUNIAO UMB DOS CULTOS AFRO BRAS    28021915 000071
10231987175000168817800093673    000037358                    000373580000000000000109                     I0237358     28021900000000040003410000017N261218105700000000000102802190000000000000000000000000000000000000000100099099616449JANAINA BORGES DA SILVA                 RUA: PAULO JOSE MAHFUDN 44,             VARGEM PEQUE22783395RIO DE JANEIRO RJUNIAO UMB DOS CULTOS AFRO BRAS    28021915 000072
10231987175000168817800093673    000037351                    000373510000000000000109                     I0237351     28021900000000040003410000017N261218105700000000000102802190000000000000000000000000000000000000000100010212584740TIAGO VEROL DE SOUZA                    ESTRADA: DO VIEGASN 28, CASA 4          SENADOR CAMA21832006RIO DE JANEIRO RJUNIAO UMB DOS CULTOS AFRO BRAS    28021915 000073
10231987175000168817800093673    000037350                    000373500000000000000109                     I0237350     28021900000000040003410000017N261218105700000000000102802190000000000000000000000000000000000000000100039869253768MARIA DE LOURDES FERREIRA               RODOVIA WASHINGTON LUIZN 136,           PARQUE BEIRA25055008DUQUE DE CAXIASRJUNIAO UMB DOS CULTOS AFRO BRAS    28021915 000074
10231987175000168817800093673    000037349                    000373490000000000000109                     I0237349     28021900000000040003410000017N261218105700000000000102802190000000000000000000000000000000000000000100001860329780VIVIANE DE PAULA AGNELO                 RUA DA VITORIAN 175,                    PARAISO     26297138NOVA IGUACU    RJUNIAO UMB DOS CULTOS AFRO BRAS    28021915 000075
10231987175000168817800093673    000037348                    000373480000000000000109                     I0237348     28021900000000040003410000017N261218105700000000000102802190000000000000000000000000000000000000000100007416975727ANGELICA AMARAL GOTELIP BARBOS          RUA MARECHAL MARCIANO - TRAVESSA 120N 0,REALENGO    21735652RIO DE JANEIRO RJUNIAO UMB DOS CULTOS AFRO BRAS    28021915 000076
10231987175000168817800093673    000037346                    000373460000000000000109                     I0237346     28021900000000040003410000017N261218105700000000000102802190000000000000000000000000000000000000000100009297297730FLAVIO JOAQUIM DOS SANTOS               RUA: SAO PAULON 0,                      PALMARES    23585800RIO DE JANEIRO RJUNIAO UMB DOS CULTOS AFRO BRAS    28021915 000077
10231987175000168817800093673    000037345                    000373450000000000000109                     I0237345     28021900000000040003410000017N261218105700000000000102802190000000000000000000000000000000000000000100008283706721LEVY ANDRE ASSIS FERREIRA DA S          TRAVESSA SANTO ANTONIO N 462, CASA 2    MARECHAL HER21557190RIO DE JANEIRO RJUNIAO UMB DOS CULTOS AFRO BRAS    28021915 000078
10231987175000168817800093673    000037343                    000373430000000000000109                     I0237343     28021900000000040003410000017N261218105700000000000102802190000000000000000000000000000000000000000100011709990775JOYCE MARA PINHEIRO DA SILVA            RUA SILVIO TIBIRICAN 507,               TURIACU     21540200RIO DE JANEIRO RJUNIAO UMB DOS CULTOS AFRO BRAS    28021915 000079
10231987175000168817800093673    000037342                    000373420000000000000109                     I0237342     28021900000000040003410000017N261218105700000000000102802190000000000000000000000000000000000000000100014963009714MICHELLE DA SILVA SOARES                RUA DONA CELINAN 215,                   PIABETA     25935702MAGE           RJUNIAO UMB DOS CULTOS AFRO BRAS    28021915 000080
10231987175000168817800093673    000037340                    000373400000000000000109                     I0237340     28021900000000040003410000017N261218105700000000000102802190000000000000000000000000000000000000000100000213766701ROSIVANIA CRUZ DA SILVA                 RUA PRIMEIRAN 0, BLOCO 2                SANTA CRUZ  23515180RIO DE JANEIRO RJUNIAO UMB DOS CULTOS AFRO BRAS    28021915 000081
10231987175000168817800093673    000037337                    000373370000000000000109                     I0237337     28021900000000040003410000017N261218105700000000000102802190000000000000000000000000000000000000000100005380679773ROBERTO DE OLIVEIRA RIBEIRO JU          RUA VINTE E TRESN 149, CASA 2 QUADRA 7  CONJUNTO CES23500000RIO DE JANEIRO RJUNIAO UMB DOS CULTOS AFRO BRAS    28021915 000082
10231987175000168817800093673    000037333                    000373330000000000000109                     I0237333     28021900000000040003410000017N261218105700000000000102802190000000000000000000000000000000000000000100001244562785LUIS CARLOS RIBEIRO                     RUA: NEIDE AFONSON 0, LOTE 5 QUADRA 14  SHANGRILA RO26150020BELFORD ROXO   RJUNIAO UMB DOS CULTOS AFRO BRAS    28021915 000083
10231987175000168817800093673    000037332                    000373320000000000000109                     I0237332     28021900000000040003410000017N261218105700000000000102802190000000000000000000000000000000000000000100003256338780REGINALDO ROSA DA SILVA                 RUA: TOMINASN 341,                      IPIRANGA ALI26293381NOVA IGUACU    RJUNIAO UMB DOS CULTOS AFRO BRAS    28021915 000084
10231987175000168817800093673    000037328                    000373280000000000000109                     I0237328     28021900000000040003410000017N261218105700000000000102802190000000000000000000000000000000000000000100093521987787KATIA CRISTINA DANNEMBERG               ESTRADA DO PORTINHON 149, CASA          IRAJA       21235400RIO DE JANEIRO RJUNIAO UMB DOS CULTOS AFRO BRAS    28021915 000085
10231987175000168817800093673    000037327                    000373270000000000000109                     I0237327     28021900000000040003410000017N261218105700000000000102802190000000000000000000000000000000000000000100093678754791ROSINETE MARIA DE OLIVEIRA              RUA ANGOLA N 24, ANTIGA RUA 9           CAPIVARI    25145080DUQUE DE CAXIASRJUNIAO UMB DOS CULTOS AFRO BRAS    28021915 000086
10231987175000168817800093673    000037326                    000373260000000000000109                     I0237326     28021900000000040003410000017N261218105700000000000102802190000000000000000000000000000000000000000100009289778709HELAINE FRANKLIN TEIXEIRA               RUA: CACHOEIRA ALTA N 0, LOTE 17 QUADRA JARDIM MARAV23031070CAMPO GRANDE   RJUNIAO UMB DOS CULTOS AFRO BRAS    28021915 000087
10231987175000168817800093673    000037324                    000373240000000000000109                     I0237324     28021900000000040003410000017N261218105700000000000102802190000000000000000000000000000000000000000100001096953722CLAUDIA GUIMARAES                       ESTRADA GUANDU DO SENA - RUA 29N 0, QUADCAMPO GRANDE23091220RIO DE JANEIRO RJUNIAO UMB DOS CULTOS AFRO BRAS    28021915 000088
10231987175000168817800093673    000037323                    000373230000000000000109                     I0237323     28021900000000040003410000017N261218105700000000000102802190000000000000000000000000000000000000000100080091229715MARCO ANTONIO DE OLIVEIRA TEIX          RUA: QUARENTA E UM N 0, QUADRA 47 LOTE 3JARDIM NOSSA23097260CAMPO GRANDE   RJUNIAO UMB DOS CULTOS AFRO BRAS    28021915 000089
10231987175000168817800093673    000037321                    000373210000000000000109                     I0237321     28021900000000040003410000017N261218105700000000000102802190000000000000000000000000000000000000000100095760024787LUCIMARA DIAS DE OLIVEIRA               RUA SANTO ELIASN 43,                    TURIACU     21540390RIO DE JANEIRO RJUNIAO UMB DOS CULTOS AFRO BRAS    28021915 000090
10231987175000168817800093673    000037318                    000373180000000000000109                     I0237318     28021900000000040003410000017N261218105700000000000102802190000000000000000000000000000000000000000100003654035710ELLEN CRISTINA DE ORNELAS NARC          RUA MARECHAL MARCIANO N 648,            REALENGO    21721011RIO DE JANEIRO RJUNIAO UMB DOS CULTOS AFRO BRAS    28021915 000091
10231987175000168817800093673    000037316                    000373160000000000000109                     I0237316     28021900000000040003410000017N261218105700000000000102802190000000000000000000000000000000000000000100012687881716DAIANA SANTANA DE LIMA                  RUA MANAUSN 149,                        CAMPOS ELISE25225000DUQUE DE CAXIASRJUNIAO UMB DOS CULTOS AFRO BRAS    28021915 000092
10231987175000168817800093673    000037315                    000373150000000000000109                     I0237315     28021900000000040003410000017N261218105700000000000102802190000000000000000000000000000000000000000100007040620707MONICA BORGES MATTOS                    RUA INHAMUNSN 46,                       VILA VALQUEI21321330RIO DE JANEIRO RJUNIAO UMB DOS CULTOS AFRO BRAS    28021915 000093
10231987175000168817800093673    000037311                    000373110000000000000109                     I0237311     28021900000000040003410000017N261218105700000000000102802190000000000000000000000000000000000000000100005229971711CATIA CILENE MASCARENHAS                RUA BUGANVILLEN 5, CASA 5               CONJUNTO SAN21843743CAMPO GRANDE   RJUNIAO UMB DOS CULTOS AFRO BRAS    28021915 000094
10231987175000168817800093673    000037310                    000373100000000000000109                     I0237310     28021900000000040003410000017N261218105700000000000102802190000000000000000000000000000000000000000100089982118749LENIR SILVA DOS SANTOS                  RUA: ILDEFONSO ALBANON 25, APTº 101    GUADALUPE   21670340RIO DE JANEIRO RJUNIAO UMB DOS CULTOS AFRO BRAS    28021915 000095
10231987175000168817800093673    000037307                    000373070000000000000109                     I0237307     28021900000000040003410000017N261218105700000000000102802190000000000000000000000000000000000000000100002406515702GILMA RODRIGUES COUTO                   RUA: PEREIRA FRAZAO N 78, A             PRACA SECA  21320220RIO DE JANEIRO RJUNIAO UMB DOS CULTOS AFRO BRAS    28021915 000096
10231987175000168817800093673    000037305                    000373050000000000000109                     I0237305     28021900000000040003410000017N261218105700000000000102802190000000000000000000000000000000000000000100064494527734RONALDO ROSAS ALVES                     ESTRADA COMANDANTEN 777,                PRATA       25976140TERESOPOLIS    RJUNIAO UMB DOS CULTOS AFRO BRAS    28021915 000097
10231987175000168817800093673    000037302                    000373020000000000000109                     I0237302     28021900000000040003410000017N261218105700000000000102802190000000000000000000000000000000000000000100028095391700SERGIO GARCIA DE QUEIROZ                RUA MATO GROSSON 702,                   SANTA CECILI25957250TERESOPOLIS    RJUNIAO UMB DOS CULTOS AFRO BRAS    28021915 000098
10231987175000168817800093673    000037301                    000373010000000000000109                     I0237301     28021900000000040003410000017N261218105700000000000102802190000000000000000000000000000000000000000100043397077753JOAO NORATO CEZARIO                     RUA POETA MANOEL BANDEIRAN 39, ANTIGO LOCABUIS      26540260NILOPOLIS      RJUNIAO UMB DOS CULTOS AFRO BRAS    28021915 000099
10231987175000168817800093673    000037300                    000373000000000000000109                     I0237300     28021900000000040003410000017N261218105700000000000102802190000000000000000000000000000000000000000100012295676746JEFFERSON ANTONIO TELLES GALDI          RUA MOUZIN DE ALBUQUERQUEN 492,         SAO VICENTE 26178080BELFORD ROXO   RJUNIAO UMB DOS CULTOS AFRO BRAS    28021915 000100
10231987175000168817800093673    000037297                    000372970000000000000109                     I0237297     28021900000000040003410000017N261218105700000000000102802190000000000000000000000000000000000000000100005436665730JORGE LUIZ VICTORIO LIMA                AVENIDA MARCOVALDI N 271,               NOVA ESPERAN26113040BELFORD ROXO   RJUNIAO UMB DOS CULTOS AFRO BRAS    28021915 000101
10231987175000168817800093673    000037294                    000372940000000000000109                     I0237294     28021900000000040003410000017N261218105700000000000102802190000000000000000000000000000000000000000100009526018770VERONICA MARIA LIMA                     RUA KEMAL PALHAN 5,                     VILA SANTO A25040220DUQUE DE CAXIASRJUNIAO UMB DOS CULTOS AFRO BRAS    28021915 000102
10231987175000168817800093673    000037293                    000372930000000000000109                     I0237293     28021900000000040003410000017N261218105700000000000102802190000000000000000000000000000000000000000100003250570796VERONICA LUCIA DA CRUZ                  ESTRADA DOUTOR FARRULAN 0, LOTE 8 QUADRASAO FRANCISC26125400BELFORD ROXO   RJUNIAO UMB DOS CULTOS AFRO BRAS    28021915 000103
10231987175000168817800093673    000037292                    000372920000000000000109                     I0237292     28021900000000040003410000017N261218105700000000000102802190000000000000000000000000000000000000000100059598255700TEREZINHA MARIA DE JESUS PINHE          RUA: MANOEL DA SILVA PEREIRA N 0, QUADRAPRADOS VERDE26299003NOVA IGUACU    RJUNIAO UMB DOS CULTOS AFRO BRAS    28021915 000104
10231987175000168817800093673    000037291                    000372910000000000000109                     I0237291     28021900000000040003410000017N261218105700000000000102802190000000000000000000000000000000000000000100002527980740ARMANDO DE ALMEIDA                      RUA PEDRO JOSE DE OLIVEIRA N 255,       VARGEM GRAND27145231BARRA DO PIRAI RJUNIAO UMB DOS CULTOS AFRO BRAS    28021915 000105
10231987175000168817800093673    000037290                    000372900000000000000109                     I0237290     28021900000000040003410000017N261218105700000000000102802190000000000000000000000000000000000000000100005978854785ALEXANDRE MOTA DOS SANTOS               RUA BRUNO SENDERN 26,                   JARDIM NOVA 26266040NOVA IGUACU    RJUNIAO UMB DOS CULTOS AFRO BRAS    28021915 000106
10231987175000168817800093673    000037286                    000372860000000000000109                     I0237286     28021900000000040003410000017N261218105700000000000102802190000000000000000000000000000000000000000100007337231792SAMANTHA PRISCILA MARQUES MORE          RUA: INSPETOR CASTRO N 0, QUADRA 2 CASA SARACURUNA  25211410DUQUE DE CAXIASRJUNIAO UMB DOS CULTOS AFRO BRAS    28021915 000107
10231987175000168817800093673    000037281                    000372810000000000000109                     I0237281     28021900000000040003410000017N261218105700000000000102802190000000000000000000000000000000000000000100095846190715ANA MARIA NICANOR DE QUADRO             RUA PASSO FUNDON 118, LOTE 104          JARDIM GUAND26298189NOVA IGUACU    RJUNIAO UMB DOS CULTOS AFRO BRAS    28021915 000108
10231987175000168817800093673    000037280                    000372800000000000000109                     I0237280     28021900000000040003410000017N261218105700000000000102802190000000000000000000000000000000000000000100001161586709ALEXANDRE PIMPAREL DA SILVA             RUA: COMENDADOR VENACION 0,             PALHADA     26290204NOVA IGUACU    RJUNIAO UMB DOS CULTOS AFRO BRAS    28021915 000109
10231987175000168817800093673    000037278                    000372780000000000000109                     I0237278     28021900000000040003410000017N261218105700000000000102802190000000000000000000000000000000000000000100010765062755IVONE JOAO PEDRO                        RUA MARMIARIN 605,                      SENADOR CAMA21831000RIO DE JANEIRO RJUNIAO UMB DOS CULTOS AFRO BRAS    28021915 000110
10231987175000168817800093673    000037277                    000372770000000000000109                     I0237277     28021900000000040003410000017N261218105700000000000102802190000000000000000000000000000000000000000100085957879720MARIA DA APARECIDA VICENTE DUQ          RUA FRANCISCO VIOLTI N 43, CASA 2       HELIOPOLIS  26125440BELFORD ROXO   RJUNIAO UMB DOS CULTOS AFRO BRAS    28021915 000111
10231987175000168817800093673    000037276                    000372760000000000000109                     I0237276     28021900000000040003410000017N261218105700000000000102802190000000000000000000000000000000000000000100005933193704ANA PAULA DA SILVA SANTOS               RUA APIACAN 0, LOTE 12 QUADRA 41        JARDIM BARRO25267290DUQUE DE CAXIASRJUNIAO UMB DOS CULTOS AFRO BRAS    28021915 000112
10231987175000168817800093673    000037275                    000372750000000000000109                     I0237275     28021900000000040003410000017N261218105700000000000102802190000000000000000000000000000000000000000100003372466705SANDRO NASCIMENTO NOBREGA               RUA JOAO ROMARIZN 137,                  RAMOS       21031700RIO DE JANEIRO RJUNIAO UMB DOS CULTOS AFRO BRAS    28021915 000113
10231987175000168817800093673    000037274                    000372740000000000000109                     I0237274     28021900000000040003410000017N261218105700000000000102802190000000000000000000000000000000000000000100085542091768SUELY PEREIRA DA SILVA CALIXTO          RUA RICARDO XAVIER DA SILVEIRA N 31,    IMBARIE     25266005DUQUE DE CAXIASRJUNIAO UMB DOS CULTOS AFRO BRAS    28021915 000114
10231987175000168817800093673    000037269                    000372690000000000000109                     I0237269     28021900000000040003410000017N261218105700000000000102802190000000000000000000000000000000000000000100000858723778GEOVANI FERNANDA DA SILVA               RUA SOFIA BARRETON 34,                  DUMAS - SANT23550700RIO DE JANEIRO RJUNIAO UMB DOS CULTOS AFRO BRAS    28021915 000115
10231987175000168817800093673    000037266                    000372660000000000000109                     I0237266     28021900000000040003410000017N261218105700000000000102802190000000000000000000000000000000000000000100022532412100MARIA DA GRACA MACHADO DOS SAN          RUA: ARCOZELON 0, QUADRA 115 LOTE 19    PARQUE ARARU25585560SAO JOAO DE MERRJUNIAO UMB DOS CULTOS AFRO BRAS    28021915 000116
10231987175000168817800093673    000037263                    000372630000000000000109                     I0237263     28021900000000040003410000017N261218105700000000000102802190000000000000000000000000000000000000000100010154945790SIMONE DE OLIVEIRA CUNHA                RUA ONZEN 0, QUADRA 20 LOTE 7           JARDIM ROTSE25270080DUQUE DE CAXIASRJUNIAO UMB DOS CULTOS AFRO BRAS    28021915 000117
10231987175000168817800093673    000037261                    000372610000000000000109                     I0237261     28021900000000040003410000017N261218105700000000000102802190000000000000000000000000000000000000000100009963194761FERNANDO PECANHA PIRES                  RUA: GENERAL BASILION 447,              TABORDA     28680000CACHOEIRA DE MARJUNIAO UMB DOS CULTOS AFRO BRAS    28021915 000118
10231987175000168817800093673    000037259                    000372590000000000000109                     I0237259     28021900000000040003410000017N261218105700000000000102802190000000000000000000000000000000000000000100002331392730ANA MARIA DOS SANTOS VIEIRA             RUA: CRUZ DE SOUZAN 57,                 CARMARY POSS26022281NOVA IGUACU    RJUNIAO UMB DOS CULTOS AFRO BRAS    28021915 000119
10231987175000168817800093673    000037257                    000372570000000000000109                     I0237257     28021900000000040003410000017N261218105700000000000102802190000000000000000000000000000000000000000100003018847733MARIA AILHA BERNARDO PINTO              RUA RUBIAO JUNIOR N 109,                CENTRO      23860000MANGARATIBA    RJUNIAO UMB DOS CULTOS AFRO BRAS    28021915 000120
10231987175000168817800093673    000037254                    000372540000000000000109                     I0237254     28021900000000040003410000017N261218105700000000000102802190000000000000000000000000000000000000000100007852297790IRENE FRANCISCO LIMA                    RUA VIRGILIO VARZEAN 0, LOTE 1 QUADRA 1 VILA SAO LUI25051110DUQUE DE CAXIASRJUNIAO UMB DOS CULTOS AFRO BRAS    28021915 000121
10231987175000168817800093673    000037251                    000372510000000000000109                     I0237251     28021900000000040003410000017N261218105700000000000102802190000000000000000000000000000000000000000100006915594736CINTIA FERREIRA                         AVENIDA DAS AMERICASN 4319, BLOCO F 3 APBARRA DA TIJ22631004RIO DE JANEIRO RJUNIAO UMB DOS CULTOS AFRO BRAS    28021915 000122
10231987175000168817800093673    000037248                    000372480000000000000109                     I0237248     28021900000000040003410000017N261218105700000000000102802190000000000000000000000000000000000000000100003357548720APARECIDA DOS SANTOS                    RUA LAOSN 0, LOTE 7 QUADRA 11           VILA HELIOPO26125170BELFORD ROXO   RJUNIAO UMB DOS CULTOS AFRO BRAS    28021915 000123
10231987175000168817800093673    000037247                    000372470000000000000109                     I0237247     28021900000000040003410000017N261218105700000000000102802190000000000000000000000000000000000000000100009409455766DANIELE MARTINS MEDEIROS DE FR          RUA ROMANCISTA LUCIO CARDOSON 272,      IBICUI      23860000MANGARATIBA    RJUNIAO UMB DOS CULTOS AFRO BRAS    28021915 000124
10231987175000168817800093673    000037246                    000372460000000000000109                     I0237246     28021900000000040003410000017N261218105700000000000102802190000000000000000000000000000000000000000100000640795706CELIA REGINA ALVES DE SOUZA CO          ESTRADA SAO PEDRON 1161, CASA 30        VISTA ALEGRE24725240SAO GONCALO    RJUNIAO UMB DOS CULTOS AFRO BRAS    28021915 000125
10231987175000168817800093673    000037244                    000372440000000000000109                     I0237244     28021900000000040003410000017N261218105700000000000102802190000000000000000000000000000000000000000100023970090563MARCIA VIEIRA SALES                     RUA LOPO SARAIVAN 214,                  TANQUE - JAC22740220RIO DE JANEIRO RJUNIAO UMB DOS CULTOS AFRO BRAS    28021915 000126
10231987175000168817800093673    000037240                    000372400000000000000109                     I0237240     28021900000000040003410000017N261218105700000000000102802190000000000000000000000000000000000000000100003604572746LUCIANA SANTOS DA SILVA DE LIM          RUA: MARTINICIAN 0, LOJA LOTE 22 QUADRA PARQUE NOVO 25585110SAO JOAO DE MERRJUNIAO UMB DOS CULTOS AFRO BRAS    28021915 000127
10231987175000168817800093673    000037238                    000372380000000000000109                     I0237238     28021900000000040003410000017N261218105700000000000102802190000000000000000000000000000000000000000100009145082707ELAINE CRISTINA DE MORAES               RUA GENTIL DO OURON 11,                 AGUIAR TORRE23063340INHOAIBA       RJUNIAO UMB DOS CULTOS AFRO BRAS    28021915 000128
10231987175000168817800093673    000037236                    000372360000000000000109                     I0237236     28021900000000040003410000017N261218105700000000000102802190000000000000000000000000000000000000000100013849060705LEONARDO ENEDINA DE MELO                RUA JULIO VERNERN 0, QUADRA 24 LOTE 10  SANTA RITA  26050517NOVA IGUACU    RJUNIAO UMB DOS CULTOS AFRO BRAS    28021915 000129
10231987175000168817800093673    000037233                    000372330000000000000109                     I0237233     28021900000000040003410000017N261218105700000000000102802190000000000000000000000000000000000000000100008926305740PATRICIA DOS SANTOS LOPES               RUA: CASTELO AZULN 0, LOTE 7 QUADRA A   JARDIM GUAND26298048NOVA IGUACU    RJUNIAO UMB DOS CULTOS AFRO BRAS    28021915 000130
10231987175000168817800093673    000037232                    000372320000000000000109                     I0237232     28021900000000040003410000017N261218105700000000000102802190000000000000000000000000000000000000000100004842101490MARIA DE LOURDES FARIAS DOS SA          RUA HELIO DE OLIVEIRAN 0, LOTE 29 QUADRAPARADA MORAB25000000DUQUE DE CAXIASRJUNIAO UMB DOS CULTOS AFRO BRAS    28021915 000131
10231987175000168817800093673    000037230                    000372300000000000000109                     I0237230     28021900000000040003410000017N261218105700000000000102802190000000000000000000000000000000000000000100004474701755JACIRA DE ALMEIDA BATISTA JULI          AVENIDA SAO PAULON 0, LOTE 11 QUADRA 18 PARQUE MARIL25225660DUQUE DE CAXIASRJUNIAO UMB DOS CULTOS AFRO BRAS    28021915 000132
10231987175000168817800093673    000037226                    000372260000000000000109                     I0237226     28021900000000040003410000017N261218105700000000000102802190000000000000000000000000000000000000000100002209208777ELIELSON DOS SANTOS CARVALHAES          RUA GENTIL DE OURO N 615, BLOCO 12 APT 4INHOAIBA    23063340RIO DE JANEIRO RJUNIAO UMB DOS CULTOS AFRO BRAS    28021915 000133
10231987175000168817800093673    000037225                    000372250000000000000109                     I0237225     28021900000000040003410000017N261218105700000000000102802190000000000000000000000000000000000000000100010456888780TIAGO PINTO ESPOSTI                     RUA ROSSINA FREITAS MEDEIROSN 38,       PARQUE AEROP27963672MACAE          RJUNIAO UMB DOS CULTOS AFRO BRAS    28021915 000134
10231987175000168817800093673    000037223                    000372230000000000000109                     I0237223     28021900000000040003410000017N261218105700000000000102802190000000000000000000000000000000000000000100011688945733ENEDIR RODRIGUES RAMOS                  AVENIDA JOAO BRASIL N 2233,             ENGENHOCA   24000000NITEROI        RJUNIAO UMB DOS CULTOS AFRO BRAS    28021915 000135
10231987175000168817800093673    000037222                    000372220000000000000109                     I0237222     28021900000000040003410000017N261218105700000000000102802190000000000000000000000000000000000000000100002621693717JUREMA DE OLIVEIRA RODRIGUES            ESTRADA: INTENDENTE MAGALHAES N 196, APACAMPINHO    21341330RIO DE JANEIRO RJUNIAO UMB DOS CULTOS AFRO BRAS    28021915 000136
10231987175000168817800093673    000037221                    000372210000000000000109                     I0237221     28021900000000040003410000017N261218105700000000000102802190000000000000000000000000000000000000000100010292272766MARCIA JUPIRA SANTOS GONZAGA            RUA ANTONIO FELIX N 457,                CENTRO      26520081NILOPOLIS      RJUNIAO UMB DOS CULTOS AFRO BRAS    28021915 000137
10231987175000168817800093673    000037220                    000372200000000000000109                     I0237220     28021900000000040003410000017N261218105700000000000102802190000000000000000000000000000000000000000100016492108760TIAGO LOPES DE AZEVEDO SILVA            RUA: XN 24, QUADRA 82                   PARADA MODEL25943365GUAPIMIRIM     RJUNIAO UMB DOS CULTOS AFRO BRAS    28021915 000138
10231987175000168817800093673    000037218                    000372180000000000000109                     I0237218     28021900000000040003410000017N261218105700000000000102802190000000000000000000000000000000000000000100012993228757ANDREIA CRISTINA VICENTE                RUA: CORONEL CARLOS MATOSN 32,          PARQUE JOAO 25030140DUQUE DE CAXIASRJUNIAO UMB DOS CULTOS AFRO BRAS    28021915 000139
10231987175000168817800093673    000037217                    000372170000000000000109                     I0237217     28021900000000040003410000017N261218105700000000000102802190000000000000000000000000000000000000000100048972215791MARIA PETRONILHA ROSA NATIVIDA          RUA: JACARE ACANGAN 29, QUADRA 21       VILA MARIA H25255590DUQUE DE CAXIASRJUNIAO UMB DOS CULTOS AFRO BRAS    28021915 000140
10231987175000168817800093673    000037213                    000372130000000000000109                     I0237213     28021900000000040003410000017N261218105700000000000102802190000000000000000000000000000000000000000100069279500791CLAUDIA ALONSO RODRIGUES                ESTRADA DO PAU FERRO N 851,             FREGUESIA   22745055RIO DE JANEIRO RJUNIAO UMB DOS CULTOS AFRO BRAS    28021915 000141
10231987175000168817800093673    000037211                    000372110000000000000109                     I0237211     28021900000000040003410000017N261218105700000000000102802190000000000000000000000000000000000000000100060210389753ROZANA DOS SANTOS                       RUA: MARANHAO N 1057, RUA B CASA 73     MEIER       20720230RIO DE JANEIRO RJUNIAO UMB DOS CULTOS AFRO BRAS    28021915 000142
10231987175000168817800093673    000037210                    000372100000000000000109                     I0237210     28021900000000040003410000017N261218105700000000000102802190000000000000000000000000000000000000000100084301724753ANA LUCIA FERREIRA DA SILVA             RUA HUGO CESAR MONTEIRO DA SILVA N 42,  CAICARA     26015000NOVA IGUACU    RJUNIAO UMB DOS CULTOS AFRO BRAS    28021915 000143
10231987175000168817800093673    000037206                    000372060000000000000109                     I0237206     28021900000000040003410000017N261218105700000000000102802190000000000000000000000000000000000000000100000891933778MARIA DAS NEVES FERREIRA DO NA          RUA CAMINHO DA CHACARA N 519,           PRACA SECA  22733060RIO DE JANEIRO RJUNIAO UMB DOS CULTOS AFRO BRAS    28021915 000144
10231987175000168817800093673    000037204                    000372040000000000000109                     I0237204     28021900000000040003410000017N261218105700000000000102802190000000000000000000000000000000000000000100040402711734PAULO CESAR ANASTACIO PEREIRA           RUA BOTOCUDOSN 0, LOTE 18 QUADRA 347 (ANPARADA MORAB25265351DUQUE DE CAXIASRJUNIAO UMB DOS CULTOS AFRO BRAS    28021915 000145
10231987175000168817800093673    000037203                    000372030000000000000109                     I0237203     28021900000000040003410000017N261218105700000000000102802190000000000000000000000000000000000000000100008401319765ANDRE FERREIRA DE PAULA                 RUA: AMERICO ROCHA N 1095, APARTAMENTO 2MARECHAL HER21555300RIO DE JANEIRO RJUNIAO UMB DOS CULTOS AFRO BRAS    28021915 000146
10231987175000168817800093673    000037202                    000372020000000000000109                     I0237202     28021900000000040003410000017N261218105700000000000102802190000000000000000000000000000000000000000100058365737787ALTAMIRA ROSA                           AVENIDA DO CONTORNON 17, CASA 2         PARADA MORAB25000000DUQUE DE CAXIASRJUNIAO UMB DOS CULTOS AFRO BRAS    28021915 000147
10231987175000168817800093673    000037201                    000372010000000000000109                     I0237201     28021900000000040003410000017N261218105700000000000102802190000000000000000000000000000000000000000100074171372704ELIANE DE SOUZA MACHADO                 RUA ROQUETE PINTON 0, LOTE 22 QUADRA 290JARDIM ANHAN25265200DUQUE DE CAXIASRJUNIAO UMB DOS CULTOS AFRO BRAS    28021915 000148
10231987175000168817800093673    000037199                    000371990000000000000109                     I0237199     28021900000000040003410000017N261218105700000000000102802190000000000000000000000000000000000000000100090617240744RAQUEL DA PAZ                           RUA ITABIBOCAN 0, LOTE 10 QUADRA 342 (ANPARADA MORAB25265188DUQUE DE CAXIASRJUNIAO UMB DOS CULTOS AFRO BRAS    28021915 000149
10231987175000168817800093673    000037198                    000371980000000000000109                     I0237198     28021900000000040003410000017N261218105700000000000102802190000000000000000000000000000000000000000100079882749704IRIS BRASILINO VILELA                   RUA: SETE DE SETEMBRO N 183,            CAMARI      26022202NOVA IGUACU    RJUNIAO UMB DOS CULTOS AFRO BRAS    28021915 000150
10231987175000168817800093673    000037197                    000371970000000000000109                     I0237197     28021900000000040003410000017N261218105700000000000102802190000000000000000000000000000000000000000100082191638791RITA DE CASSIA VALVERDE ROCHA           RUA JOAQUIM SOARES NETO N 250,          NOVA AMERICA26021560NOVA IGUACU    RJUNIAO UMB DOS CULTOS AFRO BRAS    28021915 000151
10231987175000168817800093673    000037195                    000371950000000000000109                     I0237195     28021900000000040003410000017N261218105700000000000102802190000000000000000000000000000000000000000100004244337709WANDERSON SANTOS DA SILVA               RUA ARMANDO SANTOSN 113, CASA 2         RECREIO DOS 22790330RIO DE JANEIRO RJUNIAO UMB DOS CULTOS AFRO BRAS    28021915 000152
10231987175000168817800093673    000037193                    000371930000000000000109                     I0237193     28021900000000040003410000017N261218105700000000000102802190000000000000000000000000000000000000000100012727461780SUELMIR LIMA DE ARAUJO                  RUA NOSSA SENHORA DAS GRACASN 98,       PRAIA DO ANI25925708MAGE           RJUNIAO UMB DOS CULTOS AFRO BRAS    28021915 000153
10231987175000168817800093673    000037191                    000371910000000000000109                     I0237191     28021900000000040003410000017N261218105700000000000102802190000000000000000000000000000000000000000100001346375771CRISTIANE MARIANO RAPELLO               ESTRADA ALBERTO TEIXEIRA CUNHA N 1410, CNOSSA SENHOR26520070NILOPOLIS      RJUNIAO UMB DOS CULTOS AFRO BRAS    28021915 000154
10231987175000168817800093673    000037190                    000371900000000000000109                     I0237190     28021900000000040003410000017N261218105700000000000102802190000000000000000000000000000000000000000100011351878786GLEISSON BITTENCOURT DA SILVA           RUA FLORA DE ARAUJO N 310,              PRATA       26010570NOVA IGUACU    RJUNIAO UMB DOS CULTOS AFRO BRAS    28021915 000155
10231987175000168817800093673    000037187                    000371870000000000000109                     I0237187     28021900000000040003410000017N261218105700000000000102802190000000000000000000000000000000000000000100070645523704RICARDO DE SOUZA LIMA                   RUA MAJOR AZEVEDO N 344,                IRAJA       21230060RIO DE JANEIRO RJUNIAO UMB DOS CULTOS AFRO BRAS    28021915 000156
10231987175000168817800093673    000037186                    000371860000000000000109                     I0237186     28021900000000040003410000017N261218105700000000000102802190000000000000000000000000000000000000000100068373570772RONILCE CAMILO DA SILVA                 RUA RUBY ALBERTORIAN 158, APT 101       BARAO DE GUA26061155NOVA IGUACU    RJUNIAO UMB DOS CULTOS AFRO BRAS    28021915 000157
10231987175000168817800093673    000037185                    000371850000000000000109                     I0237185     28021900000000040003410000017N261218105700000000000102802190000000000000000000000000000000000000000100047442140700MARFIZA FERREIRA DA SILVA VENA          RUA EURICO COELHO N 50,                 GRAMA       26060650NOVA IGUACU    RJUNIAO UMB DOS CULTOS AFRO BRAS    28021915 000158
10231987175000168817800093673    000037183                    000371830000000000000109                     I0237183     28021900000000040003410000017N261218105700000000000102802190000000000000000000000000000000000000000100000680684760CREUSA MARCIA SATURNINO ALVES           RUA NOSSA SENHORA DE NAZAREN 8,         GERENCIANO  26061700NOVA IGUACU    RJUNIAO UMB DOS CULTOS AFRO BRAS    28021915 000159
10231987175000168817800093673    000037182                    000371820000000000000109                     I0237182     28021900000000040003410000017N261218105700000000000102802190000000000000000000000000000000000000000100002375024702FATIMA APARECIDA OLIVEIRA DE C          RUA MANUEL VITORINO N 412,              ENCANTADO   20740280RIO DE JANEIRO RJUNIAO UMB DOS CULTOS AFRO BRAS    28021915 000160
10231987175000168817800093673    000037181                    000371810000000000000109                     I0237181     28021900000000040003410000017N261218105700000000000102802190000000000000000000000000000000000000000100005828675761THAYS DE FATIMA FERREIRA GOMES          ESTRADA GENERAL AFONSO DE CARVALHON 989,PADRE MIGUEL21725020RIO DE JANEIRO RJUNIAO UMB DOS CULTOS AFRO BRAS    28021915 000161
10231987175000168817800093673    000037174                    000371740000000000000109                     I0237174     28021900000000040003410000017N261218105700000000000102802190000000000000000000000000000000000000000100010276278704ROSELI DE OLIVEIRA DUTRA                RUA UM N 0, LOTE 7 QUADRA 8             TAQUARA     25275110DUQUE DE CAXIASRJUNIAO UMB DOS CULTOS AFRO BRAS    28021915 000162
10231987175000168817800093673    000037170                    000371700000000000000109                     I0237170     28021900000000040003410000017N261218105700000000000102802190000000000000000000000000000000000000000100005646881773DEBORA LINS                             RUA KARLAN 0, LOTE 24 QUADRA 3          VALE DO IPE 26182330BELFORD ROXO   RJUNIAO UMB DOS CULTOS AFRO BRAS    28021915 000163
10231987175000168817800093673    000037169                    000371690000000000000109                     I0237169     28021900000000040003410000017N261218105700000000000102802190000000000000000000000000000000000000000100002373869764ANA PAULA OLIVEIRA DE ANDRADE           RUA FERNANDO DA COSTA N 0,  LOTE 25 QUADPARQUE MARTI26183543BELFORD ROXO   RJUNIAO UMB DOS CULTOS AFRO BRAS    28021915 000164
10231987175000168817800093673    000037167                    000371670000000000000109                     I0237167     28021900000000040003410000017N261218105700000000000102802190000000000000000000000000000000000000000100038835568749MARIA DE ALCANTARA GOULART SIL          RUA GAMBIA N 41,                        JACAREPAGUA 22775400RIO DE JANEIRO RJUNIAO UMB DOS CULTOS AFRO BRAS    28021915 000165
10231987175000168817800093673    000037166                    000371660000000000000109                     I0237166     28021900000000040003410000017N261218105700000000000102802190000000000000000000000000000000000000000100011998959708ARTUR TAVARES DA SILVA NETO             RUA PREFEITO JOAO CARLOS VITAL N 17,    CROACIA - SE23540080RIO DE JANEIRO RJUNIAO UMB DOS CULTOS AFRO BRAS    28021915 000166
10231987175000168817800093673    000037165                    000371650000000000000109                     I0237165     28021900000000040003410000017N261218105700000000000102802190000000000000000000000000000000000000000100008502438743ALINE RAMOS DE SOUZA DA SILVA           RUA DOUTOR ISMAEL CAVALCANTI N 240,     SEPETIBA    23545145RIO DE JANEIRO RJUNIAO UMB DOS CULTOS AFRO BRAS    28021915 000167
10231987175000168817800093673    000037164                    000371640000000000000109                     I0237164     28021900000000040003410000017N261218105700000000000102802190000000000000000000000000000000000000000100007103755736ALESSANDRA COSTA DE BARROS              PRACA OSCAR ROSSIM N 84,                SEPETIBA    23540250RIO DE JANEIRO RJUNIAO UMB DOS CULTOS AFRO BRAS    28021915 000168
10231987175000168817800093673    000037163                    000371630000000000000109                     I0237163     28021900000000040003410000017N261218105700000000000102802190000000000000000000000000000000000000000100002420898796ROSILENE MATHEUS DE CARVALHO            RUA KEMAL PACHA N 43,                   VILA SANTO A25040220DUQUE DE CAXIASRJUNIAO UMB DOS CULTOS AFRO BRAS    28021915 000169
10231987175000168817800093673    000037162                    000371620000000000000109                     I0237162     28021900000000040003410000017N261218105700000000000102802190000000000000000000000000000000000000000100014563820717PAULA GOMES DA SILVA MOTTA              RUA GABRIEL DANUSION 10, FUNDOS         VILA SANTO A25040230DUQUE DE CAXIASRJUNIAO UMB DOS CULTOS AFRO BRAS    28021915 000170
10231987175000168817800093673    000037160                    000371600000000000000109                     I0237160     28021900000000040003410000017N261218105700000000000102802190000000000000000000000000000000000000000100009946366797SIMONE SOARES NEA                       RUA FLAVIO RANGEL N 0, QUADRA B LOTE 7  CAMPO GRANDE23085430RIO DE JANEIRO RJUNIAO UMB DOS CULTOS AFRO BRAS    28021915 000171
10231987175000168817800093673    000037158                    000371580000000000000109                     I0237158     28021900000000040003410000017N261218105700000000000102802190000000000000000000000000000000000000000100002638717703EDINO GOMES DE BARROS JUNIOR            RUA PARANA N 10,                        MORRO DO ORI24400000SAO GONCALO    RJUNIAO UMB DOS CULTOS AFRO BRAS    28021915 000172
10231987175000168817800093673    000037157                    000371570000000000000109                     I0237157     28021900000000040003410000017N261218105700000000000102802190000000000000000000000000000000000000000100000920173713JORGE DOS SANTOS LUCAS                  RUA PPN 0,  LOTE 5 QUADRA 48            JARDIM ANHAN25264630DUQUE DE CAXIASRJUNIAO UMB DOS CULTOS AFRO BRAS    28021915 000173
10231987175000168817800093673    000037156                    000371560000000000000109                     I0237156     28021900000000040003410000017N261218105700000000000102802190000000000000000000000000000000000000000100009483806755MARCO ANTONIO ATAIDE DE MELO            TRAVESSA MARAPEN 3, FUNDOS              COSTA BARROS21515240RIO DE JANEIRO RJUNIAO UMB DOS CULTOS AFRO BRAS    28021915 000174
10231987175000168817800093673    000037149                    000371490000000000000109                     I0237149     28021900000000040003410000017N261218105700000000000102802190000000000000000000000000000000000000000100001857739744JORGE DE MORAES ESTANISLAU              RUA TITANICN 7, CASA 1 FUNDOS           REALENGO    21735620RIO DE JANEIRO RJUNIAO UMB DOS CULTOS AFRO BRAS    28021915 000175
10231987175000168817800093673    000037148                    000371480000000000000109                     I0237148     28021900000000040003410000017N261218105700000000000102802190000000000000000000000000000000000000000100001251801790AMARO LYRA DOS SANTOS FILHO             RUA JOAO VICENTE N 281, CASA 5          MADUREIRA   21340020RIO DE JANEIRO RJUNIAO UMB DOS CULTOS AFRO BRAS    28021915 000176
10231987175000168817800093673    000037144                    000371440000000000000109                     I0237144     28021900000000040003410000017N261218105700000000000102802190000000000000000000000000000000000000000100002520859733ZILAIR SANTOS BARBOSA                   RUA MARANGAN 48,                        PRACA SECA  21321060RIO DE JANEIRO RJUNIAO UMB DOS CULTOS AFRO BRAS    28021915 000177
10231987175000168817800093673    000037140                    000371400000000000000109                     I0237140     28021900000000040003410000017N261218105700000000000102802190000000000000000000000000000000000000000100014199569731LUIS FILIPE SANTOS COSTA                ESTRADA DOUTOR JOAQUIM NICOLAU N 1529, CPRACA PONTE 26900000MIGUEL PEREIRA RJUNIAO UMB DOS CULTOS AFRO BRAS    28021915 000178
10231987175000168817800093673    000037138                    000371380000000000000109                     I0237138     28021900000000040003410000017N261218105700000000000102802190000000000000000000000000000000000000000100053470095787OSVALDO VALENTE COELHO FILHO            RUA VISCONDE DE SABOIA N 54, RUA I N 111CAVALCANTI  21370220RIO DE JANEIRO RJUNIAO UMB DOS CULTOS AFRO BRAS    28021915 000179
10231987175000168817800093673    000037137                    000371370000000000000109                     I0237137     28021900000000040003410000017N261218105700000000000102802190000000000000000000000000000000000000000100053211839704ALCIONE SOUZA DOS SANTOS                RUA MARINO FELIXN 26,                   SEPETIBA    23535006RIO DE JANEIRO RJUNIAO UMB DOS CULTOS AFRO BRAS    28021915 000180
10231987175000168817800093673    000037129                    000371290000000000000109                     I0237129     28021900000000040003410000017N261218105700000000000102802190000000000000000000000000000000000000000100003013793783GIOVANA SURAMA BRANDAO MONFORT          RUA JOAO TELESN 0, LOTE 94 QUADRA 93    CENTRO      26550100MESQUITA       RJUNIAO UMB DOS CULTOS AFRO BRAS    28021915 000181
10231987175000168817800093673    000037128                    000371280000000000000109                     I0237128     28021900000000040003410000017N261218105700000000000102802190000000000000000000000000000000000000000100009199332701LUANDA MOREIRA DOS SANTOS FERN          RUA SEVERIANO MONTEIRON 232, APT 302    BRAZ DE PINA21235620RIO DE JANEIRO RJUNIAO UMB DOS CULTOS AFRO BRAS    28021915 000182
10231987175000168817800093673    000037125                    000371250000000000000109                     I0237125     28021900000000040003410000017N261218105700000000000102802190000000000000000000000000000000000000000100002102287769SERGIO RICARDO FERREIRA DOS SA          RUA LAGUNA N 23,                        NOVA PIAM   26051370BELFORD ROXO   RJUNIAO UMB DOS CULTOS AFRO BRAS    28021915 000183
10231987175000168817800093673    000037123                    000371230000000000000109                     I0237123     28021900000000040003410000017N261218105700000000000102802190000000000000000000000000000000000000000100001147868794VALERIA APARECIDA DE SOUZA              RUA ALCYR BRASIL N 710,                 JARDIM NOVA 26266010NOVA IGUACU    RJUNIAO UMB DOS CULTOS AFRO BRAS    28021915 000184
10231987175000168817800093673    000037122                    000371220000000000000109                     I0237122     28021900000000040003410000017N261218105700000000000102802190000000000000000000000000000000000000000100007900227709FLAVIA ARAUJO DA ROCHA SANTOS           RUA MARECHAL BIBIANO COSTALAT N 588,    REALENGO    21735350RIO DE JANEIRO RJUNIAO UMB DOS CULTOS AFRO BRAS    28021915 000185
10231987175000168817800093673    000037120                    000371200000000000000109                     I0237120     28021900000000040003410000017N261218105700000000000102802190000000000000000000000000000000000000000100099941120749ERNELIA DA SILVA                        RUA JOSE BEZZ N 23, LOTE 299 QUADRA 9   GABRIEL UM  24856172ITABORAI       RJUNIAO UMB DOS CULTOS AFRO BRAS    28021915 000186
10231987175000168817800093673    000037118                    000371180000000000000109                     I0237118     28021900000000040003410000017N261218105700000000000102802190000000000000000000000000000000000000000100002362714748MAGLENE GOMES ARAUJO                    RUA TENENTE PINTO DUARTE N 36,          BENTO RIBEIR21550370RIO DE JANEIRO RJUNIAO UMB DOS CULTOS AFRO BRAS    28021915 000187
10231987175000168817800093673    000037115                    000371150000000000000109                     I0237115     28021900000000040003410000017N261218105700000000000102802190000000000000000000000000000000000000000100064947130768MARIA GORETE DE SOUSA MIRANDA           AVENIDA PASTEUR N 113, A                PARQUE ALIAN25550210SAO JOAO DE MERRJUNIAO UMB DOS CULTOS AFRO BRAS    28021915 000188
10231987175000168817800093673    000037113                    000371130000000000000109                     I0237113     28021900000000040003410000017N261218105700000000000102802190000000000000000000000000000000000000000100012781404764RICARDO RIBEIRO DOS SANTOS              RUA MARIA FRANCISCAN 16, B              CENTRO - CAM23050030RIO DE JANEIRO RJUNIAO UMB DOS CULTOS AFRO BRAS    28021915 000189
10231987175000168817800093673    000037110                    000371100000000000000109                     I0237110     28021900000000040003410000017N261218105700000000000102802190000000000000000000000000000000000000000100008527396726JUSSARA BALBINO GENUARIO                RUA DAS MARGARIDASN 16,                 CHAPERO     23830240ITAGUAI        RJUNIAO UMB DOS CULTOS AFRO BRAS    28021915 000190
10231987175000168817800093673    000037108                    000371080000000000000109                     I0237108     28021900000000045003410000017N261218105700000000000102802190000000000000000000000000000000000000000100004524099778CRISTIANE VIEIRA DAS CHAGAS             AVENIDA FLAMBOYNTS N 100, BLOCO 2 APT 50BARRA DA TIJ22776070RIO DE JANEIRO RJUNIAO UMB DOS CULTOS AFRO BRAS    28021915 000191
10231987175000168817800093673    000037102                    000371020000000000000109                     I0237102     28021900000000040003410000017N261218105700000000000102802190000000000000000000000000000000000000000100090036018791SILVIA ELAINE GEVEGIR DA SILVA          RUA VINTEN 0, QUADRA 305 LOTE 34        PARADA MORAB25265130DUQUE DE CAXIASRJUNIAO UMB DOS CULTOS AFRO BRAS    28021915 000192
10231987175000168817800093673    000037101                    000371010000000000000109                     I0237101     28021900000000040003410000017N261218105700000000000102802190000000000000000000000000000000000000000100014653084742THEILOR MORAIS DE MIRANDA               RUA SAO BENEDITON 25,                   VILA GENI   23826010ITAGUAI        RJUNIAO UMB DOS CULTOS AFRO BRAS    28021915 000193
10231987175000168817800093673    000037100                    000371000000000000000109                     I0237100     28021900000000040003410000017N261218105700000000000102802190000000000000000000000000000000000000000100040433307749IARA BARBOSA MACHADO                    RUA SAO FIDELIS N 0, LOTE 16 QUADRA 25  PRADOS VERDE26299165NOVA IGUACU    RJUNIAO UMB DOS CULTOS AFRO BRAS    28021915 000194
10231987175000168817800093673    000037099                    000370990000000000000109                     I0237099     28021900000000040003410000017N261218105700000000000102802190000000000000000000000000000000000000000100002045675726ROBSON DOS SANTOS ABREU                 RUA PERCILIANA EMILIA DO NASCIMENTO N 24SILVESTRE   23092540CAMPO GRANDE   RJUNIAO UMB DOS CULTOS AFRO BRAS    28021915 000195
10231987175000168817800093673    000037098                    000370980000000000000109                     I0237098     28021900000000040003410000017N261218105700000000000102802190000000000000000000000000000000000000000100005793791752WANDERSON DAMASCENO CATARINO            TRAVESSA ALBERTO PITTA N 427,           BARRO VERMEL24416060SAO GONCALO    RJUNIAO UMB DOS CULTOS AFRO BRAS    28021915 000196
10231987175000168817800093673    000037094                    000370940000000000000109                     I0237094     28021900000000040003410000017N261218105700000000000102802190000000000000000000000000000000000000000100003606459769ROSILANE FRANCISCA DOS SANTOS           RUA ARTUR FARIASN 252,                  RIO DO OURO 25922184MAGE           RJUNIAO UMB DOS CULTOS AFRO BRAS    28021915 000197
10231987175000168817800093673    000037093                    000370930000000000000109                     I0237093     28021900000000040003410000017N261218105700000000000102802190000000000000000000000000000000000000000100060774282720ROSANGELA MOURA VALENTE                 RUA: CINQUENTA E QUATRON 0, LOTE 38 QUADJARDIM ATLAN24934220MARICA         RJUNIAO UMB DOS CULTOS AFRO BRAS    28021915 000198
10231987175000168817800093673    000037092                    000370920000000000000109                     I0237092     28021900000000040003410000017N261218105700000000000102802190000000000000000000000000000000000000000100001084586797ANA GLORIA NONATO CASTILHO              RUA GENERAL BELEGARDEN 104, CASA 34 APT ENGENHO NOVO20710003RIO DE JANEIRO RJUNIAO UMB DOS CULTOS AFRO BRAS    28021915 000199
10231987175000168817800093673    000037091                    000370910000000000000109                     I0237091     28021900000000040003410000017N261218105700000000000102802190000000000000000000000000000000000000000100002644948738PAULO CESAR MARINS DA SILVA             RUA: EDUARDO NORONHA N 35,              ROCHA       24420615SAO GONCALO    RJUNIAO UMB DOS CULTOS AFRO BRAS    28021915 000200
10231987175000168817800093673    000037090                    000370900000000000000109                     I0237090     28021900000000040003410000017N261218105700000000000102802190000000000000000000000000000000000000000100000907912745JULIO CESAR FRANCA CORREA               RUA ITAPERUNA N 55,                     VILA DE CAVA26056260NOVA IGUACU    RJUNIAO UMB DOS CULTOS AFRO BRAS    28021915 000201
10231987175000168817800093673    000037089                    000370890000000000000109                     I0237089     28021900000000040003410000017N261218105700000000000102802190000000000000000000000000000000000000000100000355768712ANA CRISTINA VERISSIMO DA SILV          ESTRADA DO TINGUI N 1990,               CAMPO GRANDE23075006RIO DE JANEIRO RJUNIAO UMB DOS CULTOS AFRO BRAS    28021915 000202
10231987175000168817800093673    000037086                    000370860000000000000109                     I0237086     28021900000000040003410000017N261218105700000000000102802190000000000000000000000000000000000000000100001346507783ANDREIA FERREIRA E CUNHA                AVENIDA TIRADENTES N 465, CASA 4        CONFIDENCIA 26323260NOVA IGUACU    RJUNIAO UMB DOS CULTOS AFRO BRAS    28021915 000203
10231987175000168817800093673    000037081                    000370810000000000000109                     I0237081     28021900000000040003410000017N261218105700000000000102802190000000000000000000000000000000000000000100012097291724CAROLINA BEZERRA DE CASTRO CAV          AVENIDA DOM HELDER CAMARAN 9111, BLOCO 1QUINTINO BOC21380008RIO DE JANEIRO RJUNIAO UMB DOS CULTOS AFRO BRAS    28021915 000204
10231987175000168817800093673    000037079                    000370790000000000000109                     I0237079     28021900000000040003410000017N261218105700000000000102802190000000000000000000000000000000000000000100093130864768SOLANGE GERMANO DA COSTA                RUA URUCUIAN 689, CASA 1                VILA VALQUEI21321310RIO DE JANEIRO RJUNIAO UMB DOS CULTOS AFRO BRAS    28021915 000205
10231987175000168817800093673    000037078                    000370780000000000000109                     I0237078     28021900000000040003410000017N261218105700000000000102802190000000000000000000000000000000000000000100030400942895CLAUDIA REIS SANTOS ARAUJO              RUA LUIS PASQUALLE NETON 218,           SAO JOAO CLI04241030SAO PAULO      SPUNIAO UMB DOS CULTOS AFRO BRAS    28021915 000206
10231987175000168817800093673    000037073                    000370730000000000000109                     I0237073     28021900000000040003410000017N261218105700000000000102802190000000000000000000000000000000000000000100005785015706JOSE TOMASIO                            RUA: DA FIGUEIRAN 102,                  TRES POCOS  27240590VOLTA REDONDA  RJUNIAO UMB DOS CULTOS AFRO BRAS    28021915 000207
10231987175000168817800093673    000037071                    000370710000000000000109                     I0237071     28021900000000040003410000017N261218105700000000000102802190000000000000000000000000000000000000000100058183868720ZILDA SIMOES DO NASCIMENTO MAN          RUA IBITINGA N 31, LOTE 9               PARQUE SAO B26167160BELFORD ROXO   RJUNIAO UMB DOS CULTOS AFRO BRAS    28021915 000208
10231987175000168817800093673    000037066                    000370660000000000000109                     I0237066     28021900000000040003410000017N261218105700000000000102802190000000000000000000000000000000000000000100009948535723ANA CAROLINA VICENTE TELLES GO          RUA PACHECO JUNIOR N 151,               BRAZ DE PINA21211170RIO DE JANEIRO RJUNIAO UMB DOS CULTOS AFRO BRAS    28021915 000209
10231987175000168817800093673    000037064                    000370640000000000000109                     I0237064     28021900000000040003410000017N261218105700000000000102802190000000000000000000000000000000000000000100093743920700RITA DE CASSIA COSTA SENNA              RUA COMANDANTE ARY PARREIRAS N 181,     CENTRO      25515080SAO JOAO DE MERRJUNIAO UMB DOS CULTOS AFRO BRAS    28021915 000210
10231987175000168817800093673    000037061                    000370610000000000000109                     I0237061     28021900000000040003410000017N261218105700000000000102802190000000000000000000000000000000000000000100084407883715MAURO FERREIRA MATHEUS                  ESTRADA DO ENGENHO, N 1981, RUA CASTOR DPRACA PIQUER21370200RIO DE JANEIRO RJUNIAO UMB DOS CULTOS AFRO BRAS    28021915 000211
10231987175000168817800093673    000037060                    000370600000000000000109                     I0237060     28021900000000040003410000017N261218105700000000000102802190000000000000000000000000000000000000000100000446671754JUSSARA MATHIAS TEIXEIRA                RUA VEREADOR OSVALDO MARCONDES N 106,   JOSE BONIFAC25515380SAO JOAO DE MERRJUNIAO UMB DOS CULTOS AFRO BRAS    28021915 000212
10231987175000168817800093673    000037059                    000370590000000000000109                     I0237059     28021900000000040003410000017N261218105700000000000102802190000000000000000000000000000000000000000100072386290700FERNANDO LOPES NARCISO                  RUA IPINAMBESN 196,                     TAQUARA     22730210RIO DE JANEIRO RJUNIAO UMB DOS CULTOS AFRO BRAS    28021915 000213
10231987175000168817800093673    000037058                    000370580000000000000109                     I0237058     28021900000000040003410000017N261218105700000000000102802190000000000000000000000000000000000000000100008091112769ALINE BEATRIZ GARCIA DA SILVA           RUA ENGENHEIRO HENRIQUE LUSSACK N 936,  CENTRO      26553500MESQUITA       RJUNIAO UMB DOS CULTOS AFRO BRAS    28021915 000214
10231987175000168817800093673    000037057                    000370570000000000000109                     I0237057     28021900000000040003410000017N261218105700000000000102802190000000000000000000000000000000000000000100013553344890LUCIANO MAURICIO ESTEVES OSTER          ESTRADA ANTONIO DOS REIS CARNEIRON 154, SAO JOSE    26193320BELFORD ROXO   RJUNIAO UMB DOS CULTOS AFRO BRAS    28021915 000215
10231987175000168817800093673    000037056                    000370560000000000000109                     I0237056     28021900000000040003410000017N261218105700000000000102802190000000000000000000000000000000000000000100037497030787LINDINALVA AGUIAR PAVANELLI             RUA CRUZ LIMA  N 41, APT 801            FLAMENGO    22230010RIO DE JANEIRO RJUNIAO UMB DOS CULTOS AFRO BRAS    28021915 000216
10231987175000168817800093673    000037055                    000370550000000000000109                     I0237055     28021900000000040003410000017N261218105700000000000102802190000000000000000000000000000000000000000100060709910797FATIMA REGINA CARVALHO                  RUA GENERAL EMIRN 0,  QUADRA 39 LOTE 1 CITAIPUCU    24935540MARICA         RJUNIAO UMB DOS CULTOS AFRO BRAS    28021915 000217
10231987175000168817800093673    000037054                    000370540000000000000109                     I0237054     28021900000000040003410000017N261218105700000000000102802190000000000000000000000000000000000000000100009952239718EVANGELO RAIMUNDO                       RUA GENUINO SIQUEIRAN 52,               JARDIM MERIT25555300SAO JOAO DE MERRJUNIAO UMB DOS CULTOS AFRO BRAS    28021915 000218
10231987175000168817800093673    000037053                    000370530000000000000109                     I0237053     28021900000000040003410000017N261218105700000000000102802190000000000000000000000000000000000000000100005626387765VANIA SANTIAGO                          RUA MANOEL VIEIRAN 576,                 CENTRO      25020210DUQUE DE CAXIASRJUNIAO UMB DOS CULTOS AFRO BRAS    28021915 000219
10231987175000168817800093673    000037050                    000370500000000000000109                     I0237050     28021900000000040003410000017N261218105700000000000102802190000000000000000000000000000000000000000100001902241770JOSE RICARDO CORREA FERREIRA            RUA BIRIGUIN 4459,                      BOA VISTA   24466190SAO GONCALO    RJUNIAO UMB DOS CULTOS AFRO BRAS    28021915 000220
10231987175000168817800093673    000037045                    000370450000000000000109                     I0237045     28021900000000040003410000017N261218105700000000000102802190000000000000000000000000000000000000000100057231737749ELIZABETE CARVALHO COSTA                RUA EXPEDICIONARIO SIMAO FERNANDESN 31, COLUMBANDE  24451700SAO GONCALO    RJUNIAO UMB DOS CULTOS AFRO BRAS    28021915 000221
10231987175000168817800093673    000037044                    000370440000000000000109                     I0237044     28021900000000040003410000017N261218105700000000000102802190000000000000000000000000000000000000000100077351436649RONALDO MARTINS DOS SANTOS              RUA DOMINGOS MARCOS DA SILVA N 196,     SENHOR DOS M36300356SAO JOAO DEL REMGUNIAO UMB DOS CULTOS AFRO BRAS    28021915 000222
10231987175000168817800093673    000037042                    000370420000000000000109                     I0237042     28021900000000040003410000017N261218105700000000000102802190000000000000000000000000000000000000000100010610164716TATIANA DA SILVA SANTOS                 RUA IRACEMAN 176,                       VILA DE CAVA25065655NOVA IGUACU    RJUNIAO UMB DOS CULTOS AFRO BRAS    28021915 000223
10231987175000168817800093673    000037041                    000370410000000000000109                     I0237041     28021900000000040003410000017N261218105700000000000102802190000000000000000000000000000000000000000100015458844718ANDRE LUIZ TRINDADE FORTES JUN          RUA HERTAN 25,                          IMPERADOR   25900001MAGE           RJUNIAO UMB DOS CULTOS AFRO BRAS    28021915 000224
10231987175000168817800093673    000037040                    000370400000000000000109                     I0237040     28021900000000040003410000017N261218105700000000000102802190000000000000000000000000000000000000000100003139923716ANDRE MARQUES POLICARPO                 RUA PIRACANJUBA N 0, LOTE 11 QUADRA 209 JARDIM CATAR24716051SAO GONCALO    RJUNIAO UMB DOS CULTOS AFRO BRAS    28021915 000225
10231987175000168817800093673    000037039                    000370390000000000000109                     I0237039     28021900000000040003410000017N261218105700000000000102802190000000000000000000000000000000000000000100002139519752CARLA MARIA DE BRITO DOS SANTO          RUA ECHEVERRIAN 309, BLOCO 08 APT 501   JARDIM ROTSE25267142DUQUE DE CAXIASRJUNIAO UMB DOS CULTOS AFRO BRAS    28021915 000226
10231987175000168817800093673    000037038                    000370380000000000000109                     I0237038     28021900000000040003410000017N261218105700000000000102802190000000000000000000000000000000000000000100000200790790LUIS JORGE MOCO                         RUA ECA DE QUEIROSN 0, LOTE 74 QUADRA 7 PANTANAL    25040350DUQUE DE CAXIASRJUNIAO UMB DOS CULTOS AFRO BRAS    28021915 000227
10231987175000168817800093673    000037037                    000370370000000000000109                     I0237037     28021900000000040003410000017N261218105700000000000102802190000000000000000000000000000000000000000100005953253605MILTON COELHO DO NASCIMENTO JU          RUA BEZERRA DE MENEZES N 73, APT 102    VAZ LOBO    21361000RIO DE JANEIRO RJUNIAO UMB DOS CULTOS AFRO BRAS    28021915 000228
10231987175000168817800093673    000037035                    000370350000000000000109                     I0237035     28021900000000040003410000017N261218105700000000000102802190000000000000000000000000000000000000000100002730493727ALBERTO ALEXANDRE DOS SANTOS M          RUA ECA DE QUEIROZN 0, QUADRA 60 LOTE 2 PANTANAL    25040350DUQUE DE CAXIASRJUNIAO UMB DOS CULTOS AFRO BRAS    28021915 000229
10231987175000168817800093673    000037034                    000370340000000000000109                     I0237034     28021900000000040003410000017N261218105700000000000102802190000000000000000000000000000000000000000100006156525734SAFIRA COELHO DA CRUZ                   RUA LUKENIEN 88,                        CURICICA - T22775480RIO DE JANEIRO RJUNIAO UMB DOS CULTOS AFRO BRAS    28021915 000230
10231987175000168817800093673    000037031                    000370310000000000000109                     I0237031     28021900000000040003410000017N261218105700000000000102802190000000000000000000000000000000000000000100027313590725JOAO BATISTA FERREIRA                   RUA TEIXEIRA PINTON 116,                ENGENHEIRO B25520210SAO JOAO DE MERRJUNIAO UMB DOS CULTOS AFRO BRAS    28021915 000231
10231987175000168817800093673    000037030                    000370300000000000000109                     I0237030     28021900000000040003410000017N261218105700000000000102802190000000000000000000000000000000000000000100016212777713TAYNARA LUZIA SILVA SOUZA               RODOVIA LUCIO MEIRAN 45772, KM 249 BR-39MINUANO     27115190BARRA DO PIRAI RJUNIAO UMB DOS CULTOS AFRO BRAS    28021915 000232
10231987175000168817800093673    000037029                    000370290000000000000109                     I0237029     28021900000000040003410000017N261218105700000000000102802190000000000000000000000000000000000000000100000437025110WAGNER GOMES SILVA                      ESTRADA DA PEDRA - SERVIENTE DEZ N 0, LOSANTA CRUZ  23520480RIO DE JANEIRO RJUNIAO UMB DOS CULTOS AFRO BRAS    28021915 000233
10231987175000168817800093673    000037028                    000370280000000000000109                     I0237028     28021900000000040003410000017N261218105700000000000102802190000000000000000000000000000000000000000100010368667774SUZANA PEREIRA MOIZINHO                 RUA CONCEICAO DA PEDRA N 77,            ARNALDO EUGE23016330CAMPO GRANDE   RJUNIAO UMB DOS CULTOS AFRO BRAS    28021915 000234
10231987175000168817800093673    000037026                    000370260000000000000109                     I0237026     28021900000000040003410000017N261218105700000000000102802190000000000000000000000000000000000000000100012661069798REGINA DA CONCEICAO VIANA               RUA POTIN 10,                           PARQUE FLUMI25042610DUQUE DE CAXIASRJUNIAO UMB DOS CULTOS AFRO BRAS    28021915 000235
10231987175000168817800093673    000037025                    000370250000000000000109                     I0237025     28021900000000040003410000017N261218105700000000000102802190000000000000000000000000000000000000000100000937144754EGLEA MARIA DE JESUS ROCHA DE           RUA MARIO GARCIA N 0, LOTE 7 QUADRA 60  VILA SANTO A25040370DUQUE DE CAXIASRJUNIAO UMB DOS CULTOS AFRO BRAS    28021915 000236
10231987175000168817800093673    000037023                    000370230000000000000109                     I0237023     28021900000000040003410000017N261218105700000000000102802190000000000000000000000000000000000000000100069865752700HUGO MAGALHAES PEREIRA FILHO            RUA BAGDAN 70,                          NOSSA SENHOR25040400DUQUE DE CAXIASRJUNIAO UMB DOS CULTOS AFRO BRAS    28021915 000237
10231987175000168817800093673    000037020                    000370200000000000000109                     I0237020     28021900000000040003410000017N261218105700000000000102802190000000000000000000000000000000000000000100002578661758ANA MARIA BATISTA DA SILVA              RUA SIMOES DE SOUZA N 0, LOTE 13 QUADRA JARDIM PRIMA25223520DUQUE DE CAXIASRJUNIAO UMB DOS CULTOS AFRO BRAS    28021915 000238
10231987175000168817800093673    000037019                    000370190000000000000109                     I0237019     28021900000000040003410000017N261218105700000000000102802190000000000000000000000000000000000000000100004701154750VIVIANE FELIX GOMES                     RUA VANDA VASCONCELOS N 0, QD 8 LOTE 14 JARDIM REDEN26195460BELFORD ROXO   RJUNIAO UMB DOS CULTOS AFRO BRAS    28021915 000239
10231987175000168817800093673    000037016                    000370160000000000000109                     I0237016     28021900000000040003410000017N261218105700000000000102802190000000000000000000000000000000000000000100010503933767THIAGO MARQUES DE CARVALHO              TRAVESSA DA SERVIDAON 17,               CAMPO GRANDE23017405RIO DE JANEIRO RJUNIAO UMB DOS CULTOS AFRO BRAS    28021915 000240
10231987175000168817800093673    000037015                    000370150000000000000109                     I0237015     28021900000000040003410000017N261218105700000000000102802190000000000000000000000000000000000000000100011341119750ELAINE BARBOSA DOS SANTOS               ESTRADA DO BARRO VERMELHO N 784,        ROCHA MIRAND21540500RIO DE JANEIRO RJUNIAO UMB DOS CULTOS AFRO BRAS    28021915 000241
10231987175000168817800093673    000037013                    000370130000000000000109                     I0237013     28021900000000040003410000017N261218105700000000000102802190000000000000000000000000000000000000000100068786220772HELOISA HELENA DE SOUZA DUARTE          RUA BARAO DE IPANEMAN 127, APTº 803    COPACABANA  22050031RIO DE JANEIRO RJUNIAO UMB DOS CULTOS AFRO BRAS    28021915 000242
10231987175000168817800093673    000037012                    000370120000000000000109                     I0237012     28021900000000040003410000017N261218105700000000000102802190000000000000000000000000000000000000000100011964838762CARLOS RENNAN CORREIA BORGES            RUA AMERICA DOURADAN 0, LOTE 8 QUADRA 34CAMPO GRANDE23088240RIO DE JANEIRO RJUNIAO UMB DOS CULTOS AFRO BRAS    28021915 000243
10231987175000168817800093673    000037010                    000370100000000000000109                     I0237010     28021900000000040003410000017N261218105700000000000102802190000000000000000000000000000000000000000100040883612704JOAO ROBERTO RAJO SIMOES                RUA QUITON 384,                         PENHA       21020330RIO DE JANEIRO RJUNIAO UMB DOS CULTOS AFRO BRAS    28021915 000244
10231987175000168817800093673    000037009                    000370090000000000000109                     I0237009     28021900000000040003410000017N261218105700000000000102802190000000000000000000000000000000000000000100009556812784AROLDO ADRIANO DE OLIVEIRA              RUA IBITUN 127, FUNDOS                  REALENGO    21765510RIO DE JANEIRO RJUNIAO UMB DOS CULTOS AFRO BRAS    28021915 000245
10231987175000168817800093673    000037006                    000370060000000000000109                     I0237006     28021900000000040003410000017N261218105700000000000102802190000000000000000000000000000000000000000100009079674770FERNANDA DOS SANTOS SILVA               TRAVESSA IPACARAIN 70, CASA 5           COLUBANDE   24451290SAO GONCALO    RJUNIAO UMB DOS CULTOS AFRO BRAS    28021915 000246
10231987175000168817800093673    000037000                    000370000000000000000109                     I0237000     28021900000000040003410000017N261218105700000000000102802190000000000000000000000000000000000000000100000856003778ANA ELIZABETE ANTUNES SANTOS            RUA GETULIO VARGASN 1,                  SEPETIBA    23540130RIO DE JANEIRO RJUNIAO UMB DOS CULTOS AFRO BRAS    28021915 000247
10231987175000168817800093673    000036997                    000369970000000000000109                     I0236997     28021900000000040003410000017N261218105700000000000102802190000000000000000000000000000000000000000100089823753768MARIA JOSE DA ROCHA NOBREGA             RUA DOS LIRIOSN 2, CASA                 SHANGRILA   26150071BELFORD ROXO   RJUNIAO UMB DOS CULTOS AFRO BRAS    28021915 000248
10231987175000168817800093673    000036995                    000369950000000000000109                     I0236995     28021900000000040003410000017N261218105700000000000102802190000000000000000000000000000000000000000100001366350758EDWILSON GOMES DA ROCHA                 TRAVESSA ELIZEU PINHALN 61,             SEPETIBA    23540320RIO DE JANEIRO RJUNIAO UMB DOS CULTOS AFRO BRAS    28021915 000249
