01REMESSA01COBRANCA       916200163100        União Umb dos Cultos Afro Bra341BANCO ITAU SA  040118                                                                                                                                                                                                                                                                                                      000001
10231987175000168916200163100    00001805                     000018050000000000000109                     I341805      31121700000000035003410000017N131117050900000000000103112170000000000000000000000000000000000000000100054571715743VILMA OLIVEIRA DOS SANTOS               RUA CORREIA DIAS, 1066                  VIGARIO GERA21241310RIO DE JANEIRO RJUNIAO UMB DOS CULTOS AFRO BRAS    31121710 000002
10231987175000168916200163100    00001791                     000017910000000000000109                     I341791      31121700000000035003410000017N131117050900000000000103112170000000000000000000000000000000000000000100000998809705LEDA GONCALVES MENDES                   RUA VINTE DE ABRIL, 5 CASA 2            CENTRO - QUE26327470QUEIMADOS      RJUNIAO UMB DOS CULTOS AFRO BRAS    31121710 000003
9                                                                                                                                                                                                                                                                                                                                                                                                         000004
