01REMESSA01COBRANCA       916200163100        União Umb dos Cultos Afro Bra341BANCO ITAU SA  160419                                                                                                                                                                                                                                                                                                      000001
10231987175000168916200163100    000045059                    000450590000000000000109                     I0145059     30061900000000040003410000017N150419105700000000000103006190000000000000000000000000000000000000000100010908673795EDSON ANTONIO GONCALVES CORDEI          RUA DOUTOR BEDAN 383,                   PARQUE ROSAR28026591CAMPOS DOS GOYTRJUNIAO UMB DOS CULTOS AFRO BRAS    30061915 000002
10231987175000168916200163100    000045058                    000450580000000000000109                     I0145058     30051900000000040003410000017N150419105700000000000103005190000000000000000000000000000000000000000100010908673795EDSON ANTONIO GONCALVES CORDEI          RUA DOUTOR BEDAN 383,                   PARQUE ROSAR28026591CAMPOS DOS GOYTRJUNIAO UMB DOS CULTOS AFRO BRAS    30051915 000003
10231987175000168916200163100    000045047                    000450470000000000000109                     I3445047     12041900000000040003410000017N110419105700000000000101204190000000000000000000000000000000000000000100005851795735JOAO LUIZ DE OLIVEIRA MAGALHAE          RUA ANTONIO CARLOS PARANHOSN 29,        VILA VALQUEI21321340RIO DE JANEIRO RJUNIAO UMB DOS CULTOS AFRO BRAS    12041915 000004
10231987175000168916200163100    000044528                    000445280000000000000109                     I0244528     30061900000000040003410000017N130319105700000000000103006190000000000000000000000000000000000000000100076994511715MARIA DAS GRACAS SANTOS DA SIL          RUA GOMES CARNEIRO N 0, LT 29 QD 39     SARACURUNA  25211050DUQUE DE CAXIASRJUNIAO UMB DOS CULTOS AFRO BRAS    30061915 000005
10231987175000168916200163100    000044473                    000444730000000000000109                     I0244473     30061900000000040003410000017N130319105700000000000103006190000000000000000000000000000000000000000100085759600753VERALUCIA DE SOUZA                      RUA: NELCINAN 3, CASA 8                 JACAREPAGUA 22753043RIO DE JANEIRO RJUNIAO UMB DOS CULTOS AFRO BRAS    30061915 000006
10231987175000168916200163100    000043394                    000433940000000000000109                     I0243394     30061900000000040003410000017N130319105700000000000103006190000000000000000000000000000000000000000100000695677720MARIA DE LOURDES SILVA                  RUA ROCHA LIMAN 0, LOTE 6 QUADRA 27     SANTA RITA  26050512NOVA IGUACU    RJUNIAO UMB DOS CULTOS AFRO BRAS    30061915 000007
10231987175000168916200163100    000042876                    000428760000000000000109                     I0242876     30051900000000040003410000017N130319105700000000000103005190000000000000000000000000000000000000000100076994511715MARIA DAS GRACAS SANTOS DA SIL          RUA GOMES CARNEIRO N 0, LT 29 QD 39     SARACURUNA  25211050DUQUE DE CAXIASRJUNIAO UMB DOS CULTOS AFRO BRAS    30051915 000008
10231987175000168916200163100    000042823                    000428230000000000000109                     I0242823     30051900000000040003410000017N130319105700000000000103005190000000000000000000000000000000000000000100085759600753VERALUCIA DE SOUZA                      RUA: NELCINAN 3, CASA 8                 JACAREPAGUA 22753043RIO DE JANEIRO RJUNIAO UMB DOS CULTOS AFRO BRAS    30051915 000009
10231987175000168916200163100    000041847                    000418470000000000000109                     I0241847     30051900000000040003410000017N130319105700000000000103005190000000000000000000000000000000000000000100001050327780MARIA LUCIA DE FATIMA FERREIRA          RUA BUDAPESTEN 172, CASA 2              BANCARIOS - 21911300RIO DE JANEIRO RJUNIAO UMB DOS CULTOS AFRO BRAS    30051915 000010
10231987175000168916200163100    000041751                    000417510000000000000109                     I0241751     30051900000000040003410000017N130319105700000000000103005190000000000000000000000000000000000000000100000695677720MARIA DE LOURDES SILVA                  RUA ROCHA LIMAN 0, LOTE 6 QUADRA 27     SANTA RITA  26050512NOVA IGUACU    RJUNIAO UMB DOS CULTOS AFRO BRAS    30051915 000011
10231987175000168916200163100    000041235                    000412350000000000000109                     I0241235     30041900000000040003410000017N120319105700000000000103004190000000000000000000000000000000000000000100076994511715MARIA DAS GRACAS SANTOS DA SIL          RUA GOMES CARNEIRO N 0, LT 29 QD 39     SARACURUNA  25211050DUQUE DE CAXIASRJUNIAO UMB DOS CULTOS AFRO BRAS    30041915 000012
10231987175000168916200163100    000041184                    000411840000000000000109                     I0241184     30041900000000040003410000017N120319105700000000000103004190000000000000000000000000000000000000000100085759600753VERALUCIA DE SOUZA                      RUA: NELCINAN 3, CASA 8                 JACAREPAGUA 22753043RIO DE JANEIRO RJUNIAO UMB DOS CULTOS AFRO BRAS    30041915 000013
10231987175000168916200163100    000040214                    000402140000000000000109                     I0240214     30041900000000040003410000017N120319105700000000000103004190000000000000000000000000000000000000000100001050327780MARIA LUCIA DE FATIMA FERREIRA          RUA BUDAPESTEN 172, CASA 2              BANCARIOS - 21911300RIO DE JANEIRO RJUNIAO UMB DOS CULTOS AFRO BRAS    30041915 000014
10231987175000168916200163100    000040118                    000401180000000000000109                     I0240118     30041900000000040003410000017N120319105700000000000103004190000000000000000000000000000000000000000100000695677720MARIA DE LOURDES SILVA                  RUA ROCHA LIMAN 0, LOTE 6 QUADRA 27     SANTA RITA  26050512NOVA IGUACU    RJUNIAO UMB DOS CULTOS AFRO BRAS    30041915 000015
10231987175000168916200163100    000039881                    000398810000000000000109                     I0239881     30041900000000040003410000017N120319105700000000000103004190000000000000000000000000000000000000000100001686254741ADELIA DE OLIVEIRA AZEVEDO              RUA CORONEL CAMISAON 842,               VISTA ALEGRE21250290RIO DE JANEIRO RJUNIAO UMB DOS CULTOS AFRO BRAS    30041915 000016
10231987175000168916200163100    000039701                    000397010000000000000109                     I0239701     31031900000000040003410000017N310119105700000000000103103190000000000000000000000000000000000000000100064431002715SERGIO MURILO ALVES PEREIRA             RUA ROCHAN 0, LOTE 4 QUADRA 4 CASA 2    JARDIM JOSE 25565161SAO JOAO DE MERRJUNIAO UMB DOS CULTOS AFRO BRAS    31031915 000017
10231987175000168916200163100    000039700                    000397000000000000000109                     I0239700     28021900000000040003410000017N310119105700000000000102802190000000000000000000000000000000000000000100064431002715SERGIO MURILO ALVES PEREIRA             RUA ROCHAN 0, LOTE 4 QUADRA 4 CASA 2    JARDIM JOSE 25565161SAO JOAO DE MERRJUNIAO UMB DOS CULTOS AFRO BRAS    28021915 000018
9                                                                                                                                                                                                                                                                                                                                                                                                         000019
