01REMESSA01COBRANCA       817800093673        União Umb dos Cultos Afro Bra341BANCO ITAU SA  030819                                                                                                                                                                                                                                                                                                      000001
10231987175000168817800093673    000053606                    000536060000000000000109                     I0153606     30081900000000250003410000017N020819105700000000000833008190000000000000000000000000000000000000000100003748838743ALESSANDRA REIS DOS SANTOS              RUA MARANGA N 123, BL 3 APTO 303        PRACA SECA  21321660RIO DE JANEIRO RJUNIAO UMB DOS CULTOS AFRO BRAS    30081915 000002
21300820190000000000500                                                                                                                                                                                                                                                                                                                                                                                   000003
10231987175000168817800093673    000053605                    000536050000000000000109                     I0153605     30081900000000250003410000017N020819105700000000000833008190000000000000000000000000000000000000000100003550624700ELAINE DE BARROS CARVALHO DE O          RUA DOUTOR ANTONIO MARTINSN 42, CASA 2 ATAQUARA - JA22723650RIO DE JANEIRO RJUNIAO UMB DOS CULTOS AFRO BRAS    30081915 000004
21300820190000000000500                                                                                                                                                                                                                                                                                                                                                                                   000005
10231987175000168817800093673    000053604                    000536040000000000000109                     I0153604     30081900000000250003410000017N020819105700000000000833008190000000000000000000000000000000000000000100005649589720RAPHAEL AGUIAR DA SILVA                 ESTRADA DO BONGARVILLEN 869, CASA 42    ANIL - JACAR22753210RIO DE JANEIRO RJUNIAO UMB DOS CULTOS AFRO BRAS    30081915 000006
21300820190000000000500                                                                                                                                                                                                                                                                                                                                                                                   000007
10231987175000168817800093673    000053603                    000536030000000000000109                     I0153603     30081900000000250003410000017N020819105700000000000833008190000000000000000000000000000000000000000100001251801790AMARO LYRA DOS SANTOS FILHO             RUA JOAO VICENTE N 281, CASA 5          MADUREIRA   21340020RIO DE JANEIRO RJUNIAO UMB DOS CULTOS AFRO BRAS    30081915 000008
21300820190000000000500                                                                                                                                                                                                                                                                                                                                                                                   000009
10231987175000168817800093673    000053602                    000536020000000000000109                     I0153602     30081900000000250003410000017N020819105700000000000833008190000000000000000000000000000000000000000100092673562753ALVARO RICARDO DE OLIVEIRA RIB          RUA MARIA ALICE N 18,                   MUTONDO     24452140SAO GONCALO    RJUNIAO UMB DOS CULTOS AFRO BRAS    30081915 000010
21300820190000000000500                                                                                                                                                                                                                                                                                                                                                                                   000011
10231987175000168817800093673    000053601                    000536010000000000000109                     I0153601     30081900000000250003410000017N020819105700000000000833008190000000000000000000000000000000000000000100011640644792MARLY SERPA BORGES                      RUA VISTA ALEGRE N 12,                  SANTA TERESA20251410RIO DE JANEIRO RJUNIAO UMB DOS CULTOS AFRO BRAS    30081915 000012
21300820190000000000500                                                                                                                                                                                                                                                                                                                                                                                   000013
10231987175000168817800093673    000053600                    000536000000000000000109                     I0153600     30081900000000250003410000017N020819105700000000000833008190000000000000000000000000000000000000000100005440511733MONICA LEITE CRUZ                       RUA PARDAL N 130, B                     MAGALI      23081070CAMPO GRANDE   RJUNIAO UMB DOS CULTOS AFRO BRAS    30081915 000014
21300820190000000000500                                                                                                                                                                                                                                                                                                                                                                                   000015
10231987175000168817800093673    000053599                    000535990000000000000109                     I0153599     30081900000000250003410000017N020819105700000000000833008190000000000000000000000000000000000000000100074442163715MONICA BARCELLOS DE PAULA               AVENIDA VICENTE DE CARVALHON 560,       VICENTE DE C21371148RIO DE JANEIRO RJUNIAO UMB DOS CULTOS AFRO BRAS    30081915 000016
21300820190000000000500                                                                                                                                                                                                                                                                                                                                                                                   000017
10231987175000168817800093673    000053598                    000535980000000000000109                     I0153598     30081900000000250003410000017N020819105700000000000833008190000000000000000000000000000000000000000100007924464700GILCEMAR PEREIRA DE MORAES              RUA JOSE ELEOTERIO N 102,               CAMPO LINDO 23898220SEROPEDICA     RJUNIAO UMB DOS CULTOS AFRO BRAS    30081915 000018
21300820190000000000500                                                                                                                                                                                                                                                                                                                                                                                   000019
10231987175000168817800093673    000053597                    000535970000000000000109                     I0153597     30081900000000250003410000017N020819105700000000000833008190000000000000000000000000000000000000000100000559929781KLEBER SIQUEIRA CUNHA                   ESTRADA DO PIAIN 300,                   GUARATIBA   23028050RIO DE JANEIRO RJUNIAO UMB DOS CULTOS AFRO BRAS    30081915 000020
21300820190000000000500                                                                                                                                                                                                                                                                                                                                                                                   000021
10231987175000168817800093673    000053596                    000535960000000000000109                     I0153596     30081900000000250003410000017N020819105700000000000833008190000000000000000000000000000000000000000100009406419769MAURICIO DOS SANTOS SILVA               AVENIDA NOSSA SENHORA DE NAZAREN 0, LOTEPARQUE GENEC26061700NOVA IGUACU    RJUNIAO UMB DOS CULTOS AFRO BRAS    30081915 000022
21300820190000000000500                                                                                                                                                                                                                                                                                                                                                                                   000023
10231987175000168817800093673    000053595                    000535950000000000000109                     I0153595     30081900000000250003410000017N020819105700000000000833008190000000000000000000000000000000000000000100002102287769SERGIO RICARDO FERREIRA DOS SA          RUA LAGUNA N 23,                        NOVA PIAM   26051370BELFORD ROXO   RJUNIAO UMB DOS CULTOS AFRO BRAS    30081915 000024
21300820190000000000500                                                                                                                                                                                                                                                                                                                                                                                   000025
10231987175000168817800093673    000053594                    000535940000000000000109                     I0153594     30081900000000250003410000017N020819105700000000000833008190000000000000000000000000000000000000000100076903729704ALUIZO NASCIMENTI DOS SANTOS            RUA DAS ROSAS N 801,                    VILA FORMOSA26051370NOVA IGUACU    RJUNIAO UMB DOS CULTOS AFRO BRAS    30081915 000026
21300820190000000000500                                                                                                                                                                                                                                                                                                                                                                                   000027
10231987175000168817800093673    000053593                    000535930000000000000109                     I0153593     30081900000000250003410000017N020819105700000000000833008190000000000000000000000000000000000000000100003567552740ERICA NADJARA DA LUZ                    RUA ENGENHEIRO ALARIPEN 114,            LAGOINHA    26296588NOVA IGUACU    RJUNIAO UMB DOS CULTOS AFRO BRAS    30081915 000028
21300820190000000000500                                                                                                                                                                                                                                                                                                                                                                                   000029
10231987175000168817800093673    000053592                    000535920000000000000109                     I0153592     30081900000000250003410000017N020819105700000000000833008190000000000000000000000000000000000000000100001317399722JUSSARA DOS SANTOS MACHADO              RUA ARIES N 36,                         PARQUE SAO J26190080BELFORD ROXO   RJUNIAO UMB DOS CULTOS AFRO BRAS    30081915 000030
21300820190000000000500                                                                                                                                                                                                                                                                                                                                                                                   000031
10231987175000168817800093673    000053591                    000535910000000000000109                     I0153591     30081900000000250003410000017N020819105700000000000833008190000000000000000000000000000000000000000100011309006733TIAGO FEUCHARD DIAS                     RUA QUARENTA E NOVE N 130,              IPIABAS     27170000BARRA DO PIRAI RJUNIAO UMB DOS CULTOS AFRO BRAS    30081915 000032
21300820190000000000500                                                                                                                                                                                                                                                                                                                                                                                   000033
10231987175000168817800093673    000053590                    000535900000000000000109                     I0153590     30081900000000250003410000017N020819105700000000000833008190000000000000000000000000000000000000000100095529616704MARCOS LUIZ BORGES FIGUEIREDO           RUA PADUAN 95,                          REDENTOR    26110250BELFORD ROXO   RJUNIAO UMB DOS CULTOS AFRO BRAS    30081915 000034
21300820190000000000500                                                                                                                                                                                                                                                                                                                                                                                   000035
10231987175000168817800093673    000053589                    000535890000000000000109                     I0153589     30081900000000250003410000017N020819105700000000000833008190000000000000000000000000000000000000000100002871088489JOSE ADRIANO DA SILVA                   RUA UMEBOSCHE N 430,                    JARDIM PARAI26297054NOVA IGUACU    RJUNIAO UMB DOS CULTOS AFRO BRAS    30081915 000036
21300820190000000000500                                                                                                                                                                                                                                                                                                                                                                                   000037
10231987175000168817800093673    000053588                    000535880000000000000109                     I0153588     30081900000000250003410000017N020819105700000000000833008190000000000000000000000000000000000000000100013297469706LEANDRO SOUZA DE JESUS                  RUA: DAS MARRECAS - RUA CARLOTA  N 0,   PARQUE ANTAR26053310NOVA IGUACU    RJUNIAO UMB DOS CULTOS AFRO BRAS    30081915 000038
21300820190000000000500                                                                                                                                                                                                                                                                                                                                                                                   000039
10231987175000168817800093673    000053587                    000535870000000000000109                     I0153587     30081900000000250003410000017N020819105700000000000833008190000000000000000000000000000000000000000100010498307760WILLIAM ROSA DA COSTA                   RUA OITENTA N 0, LOTE 35 QUADRA 246     IPIRANGA - M25927164MAGE           RJUNIAO UMB DOS CULTOS AFRO BRAS    30081915 000040
21300820190000000000500                                                                                                                                                                                                                                                                                                                                                                                   000041
10231987175000168817800093673    000053586                    000535860000000000000109                     I0153586     30081900000000250003410000017N020819105700000000000833008190000000000000000000000000000000000000000100012488412716CHARLES GARCIA DE OLIVEIRA              ESTRADA DO QUITUNGO N 45, FRENTE        BRAZ DE PINA21215562RIO DE JANEIRO RJUNIAO UMB DOS CULTOS AFRO BRAS    30081915 000042
21300820190000000000500                                                                                                                                                                                                                                                                                                                                                                                   000043
10231987175000168817800093673    000053585                    000535850000000000000109                     I0153585     30081900000000250003410000017N020819105700000000000833008190000000000000000000000000000000000000000100060601493400IRACEMA SILVA DE SANTANA                RUA XAVANTE N 243,                      BANGU       21840030RIO DE JANEIRO RJUNIAO UMB DOS CULTOS AFRO BRAS    30081915 000044
21300820190000000000500                                                                                                                                                                                                                                                                                                                                                                                   000045
10231987175000168817800093673    000053584                    000535840000000000000109                     I0153584     30081900000000250003410000017N020819105700000000000833008190000000000000000000000000000000000000000100012781404764RICARDO RIBEIRO DOS SANTOS              RUA MARIA FRANCISCAN 16, B - CENTRO     CAMPO GRANDE23050030RIO DE JANEIRO RJUNIAO UMB DOS CULTOS AFRO BRAS    30081915 000046
21300820190000000000500                                                                                                                                                                                                                                                                                                                                                                                   000047
10231987175000168817800093673    000053583                    000535830000000000000109                     I0153583     30081900000000250003410000017N020819105700000000000833008190000000000000000000000000000000000000000100009755597700PAULA SABINO MIGUEZ                     RUA SANTO TIRSON 141,                   JARDIM ALZIR26300190QUEIMADOS      RJUNIAO UMB DOS CULTOS AFRO BRAS    30081915 000048
21300820190000000000500                                                                                                                                                                                                                                                                                                                                                                                   000049
10231987175000168817800093673    000053582                    000535820000000000000109                     I0153582     30081900000000250003410000017N020819105700000000000833008190000000000000000000000000000000000000000100007708082714CRISTIANE DEODATO                       ESTRADA REAL DE MAUAN 132, RUA B YPIRANGMAUA        25927304MAGE           RJUNIAO UMB DOS CULTOS AFRO BRAS    30081915 000050
21300820190000000000500                                                                                                                                                                                                                                                                                                                                                                                   000051
10231987175000168817800093673    000053581                    000535810000000000000109                     I0153581     30081900000000250003410000017N020819105700000000000833008190000000000000000000000000000000000000000100001182823793VALTER FERREIRA VIEIRA                  VIA: INTERNA N 11, CASA 136             CONJUNTO ROS23587610RIO DE JANEIRO RJUNIAO UMB DOS CULTOS AFRO BRAS    30081915 000052
21300820190000000000500                                                                                                                                                                                                                                                                                                                                                                                   000053
10231987175000168817800093673    000053580                    000535800000000000000109                     I0153580     30081900000000250003410000017N020819105700000000000833008190000000000000000000000000000000000000000100009346968702ADRIANA DOS SANTOS PRUDENCIO            RUA AFONSO TERRA N 789, FUNDOS          PAVUNA      21520010RIO DE JANEIRO RJUNIAO UMB DOS CULTOS AFRO BRAS    30081915 000054
21300820190000000000500                                                                                                                                                                                                                                                                                                                                                                                   000055
10231987175000168817800093673    000053579                    000535790000000000000109                     I0153579     30081900000000250003410000017N020819105700000000000833008190000000000000000000000000000000000000000100074646370700EUNICE BEZERRA FERREIRA                 ESTRADA DA POSSE - TRAVESSA WILMAR N 20,SANTISSIMO  23094120RIO DE JANEIRO RJUNIAO UMB DOS CULTOS AFRO BRAS    30081915 000056
21300820190000000000500                                                                                                                                                                                                                                                                                                                                                                                   000057
10231987175000168817800093673    000053578                    000535780000000000000109                     I0153578     30081900000000250003410000017N020819105700000000000833008190000000000000000000000000000000000000000100007809907735LUCIANA SANTOS DA SILVA                 BECO ADELIA N 3,                        NOSSA SENHOR21932003RIO DE JANEIRO RJUNIAO UMB DOS CULTOS AFRO BRAS    30081915 000058
21300820190000000000500                                                                                                                                                                                                                                                                                                                                                                                   000059
10231987175000168817800093673    000053577                    000535770000000000000109                     I0153577     30081900000000250003410000017N020819105700000000000833008190000000000000000000000000000000000000000100090036018791SILVIA ELAINE GEVEGIR DA SILVA          RUA VINTEN 0, QUADRA 305 LOTE 34        PARADA MORAB25265130DUQUE DE CAXIASRJUNIAO UMB DOS CULTOS AFRO BRAS    30081915 000060
21300820190000000000500                                                                                                                                                                                                                                                                                                                                                                                   000061
10231987175000168817800093673    000053576                    000535760000000000000109                     I0153576     30081900000000250003410000017N020819105700000000000833008190000000000000000000000000000000000000000100014653084742THEILOR MORAIS DE MIRANDA               RUA SAO BENEDITON 25,                   VILA GENI   23826010ITAGUAI        RJUNIAO UMB DOS CULTOS AFRO BRAS    30081915 000062
21300820190000000000500                                                                                                                                                                                                                                                                                                                                                                                   000063
10231987175000168817800093673    000053575                    000535750000000000000109                     I0153575     30081900000000250003410000017N020819105700000000000833008190000000000000000000000000000000000000000100005441529725RAQUEL LUCILIA SANTOS RAMOS             AVENIDA DE SANTA CRUZ N 11066,          SENADOR VASC23010002RIO DE JANEIRO RJUNIAO UMB DOS CULTOS AFRO BRAS    30081915 000064
21300820190000000000500                                                                                                                                                                                                                                                                                                                                                                                   000065
10231987175000168817800093673    000053574                    000535740000000000000109                     I0153574     30081900000000250003410000017N020819105700000000000833008190000000000000000000000000000000000000000100004274441792ALEXANDER SOUZA DA CUNHA                RUA E PROJETADA N 0, LOTE 17 QUADRA 20  SEPETIBA    23545003RIO DE JANEIRO RJUNIAO UMB DOS CULTOS AFRO BRAS    30081915 000066
21300820190000000000500                                                                                                                                                                                                                                                                                                                                                                                   000067
10231987175000168817800093673    000053573                    000535730000000000000109                     I0153573     30081900000000250003410000017N020819105700000000000833008190000000000000000000000000000000000000000100003606459769ROSILANE FRANCISCA DOS SANTOS           RUA ARTUR FARIASN 252,                  RIO DO OURO 25922184MAGE           RJUNIAO UMB DOS CULTOS AFRO BRAS    30081915 000068
21300820190000000000500                                                                                                                                                                                                                                                                                                                                                                                   000069
10231987175000168817800093673    000053572                    000535720000000000000109                     I0153572     30081900000000250003410000017N020819105700000000000833008190000000000000000000000000000000000000000100001051152747JOSE DE MELO PAULINO                    ESTRADA: HENRIQUE DE MELO N 1383,       BENTO RIBEIR21340190RIO DE JANEIRO RJUNIAO UMB DOS CULTOS AFRO BRAS    30081915 000070
21300820190000000000500                                                                                                                                                                                                                                                                                                                                                                                   000071
10231987175000168817800093673    000053571                    000535710000000000000109                     I0153571     30081900000000250003410000017N020819105700000000000833008190000000000000000000000000000000000000000100051980827672LUIZ CARLOS JACOVETE                    TRAVESSA OZIAS VIEIRA RAMOSN 53,        JARDIM SAO C13216445JUNDIAI        SPUNIAO UMB DOS CULTOS AFRO BRAS    30081915 000072
21300820190000000000500                                                                                                                                                                                                                                                                                                                                                                                   000073
10231987175000168817800093673    000053570                    000535700000000000000109                     I0153570     30081900000000250003410000017N020819105700000000000833008190000000000000000000000000000000000000000100001346507783ANDREIA FERREIRA E CUNHA                AVENIDA TIRADENTES N 465, CASA 4        CONFIDENCIA 26323260NOVA IGUACU    RJUNIAO UMB DOS CULTOS AFRO BRAS    30081915 000074
21300820190000000000500                                                                                                                                                                                                                                                                                                                                                                                   000075
10231987175000168817800093673    000053569                    000535690000000000000109                     I0153569     30081900000000250003410000017N020819105700000000000833008190000000000000000000000000000000000000000100007429798659LUCIANA DIAS DE ARRUDA                  RUA CECILIA BRAGAN 16, (RUA JULIA TREVIZSANTO ANTONI36500000UBA            MGUNIAO UMB DOS CULTOS AFRO BRAS    30081915 000076
21300820190000000000500                                                                                                                                                                                                                                                                                                                                                                                   000077
10231987175000168817800093673    000053568                    000535680000000000000109                     I0153568     30081900000000250003410000017N020819105700000000000833008190000000000000000000000000000000000000000100059836490000ARISTIDES MANOEL VILA VERDE             RUA LUCIANO GEREMIAS N 285, FUNDOS      FORQUILHINHA88106618SAO JOSE       SCUNIAO UMB DOS CULTOS AFRO BRAS    30081915 000078
21300820190000000000500                                                                                                                                                                                                                                                                                                                                                                                   000079
10231987175000168817800093673    000053567                    000535670000000000000109                     I0153567     30081900000000250003410000017N020819105700000000000833008190000000000000000000000000000000000000000100004158013704BEATRIZ RIBEIRO MENDONCA GUIMA          RUA CAPITAO FREI ORLANDO N 0, LOTES 11, VILA URUSSAY25211060DUQUE DE CAXIASRJUNIAO UMB DOS CULTOS AFRO BRAS    30081915 000080
21300820190000000000500                                                                                                                                                                                                                                                                                                                                                                                   000081
10231987175000168817800093673    000053566                    000535660000000000000109                     I0153566     30081900000000250003410000017N020819105700000000000833008190000000000000000000000000000000000000000100012097291724CAROLINA BEZERRA DE CASTRO CAV          AVENIDA DOM HELDER CAMARAN 9111, BLOCO 1QUINTINO BOC21380008RIO DE JANEIRO RJUNIAO UMB DOS CULTOS AFRO BRAS    30081915 000082
21300820190000000000500                                                                                                                                                                                                                                                                                                                                                                                   000083
10231987175000168817800093673    000053565                    000535650000000000000109                     I0153565     30081900000000250003410000017N020819105700000000000833008190000000000000000000000000000000000000000100030400942895CLAUDIA REIS SANTOS ARAUJO              RUA LUIS PASQUALLE NETON 218,           SAO JOAO CLI04241030SAO PAULO      SPUNIAO UMB DOS CULTOS AFRO BRAS    30081915 000084
21300820190000000000500                                                                                                                                                                                                                                                                                                                                                                                   000085
10231987175000168817800093673    000053564                    000535640000000000000109                     I0153564     30081900000000250003410000017N020819105700000000000833008190000000000000000000000000000000000000000100003858469750MARIA DO SOCORRO PEREIRA DE SO          RUA CIRENE DE MORAES COSTA N 0, QUADRA DTRES FONTES 26382506NOVA IGUACU    RJUNIAO UMB DOS CULTOS AFRO BRAS    30081915 000086
21300820190000000000500                                                                                                                                                                                                                                                                                                                                                                                   000087
10231987175000168817800093673    000053563                    000535630000000000000109                     I0153563     30081900000000250003410000017N020819105700000000000833008190000000000000000000000000000000000000000100013710350751DIOGO BARBOZA SILVA                     RUA SUZANA N 72,                        PONTO CHIC  26280560NOVA IGUACU    RJUNIAO UMB DOS CULTOS AFRO BRAS    30081915 000088
21300820190000000000500                                                                                                                                                                                                                                                                                                                                                                                   000089
10231987175000168817800093673    000053562                    000535620000000000000109                     I0153562     30081900000000250003410000017N020819105700000000000833008190000000000000000000000000000000000000000100009045349795EMERSON ADRIANO MACHADO                 RUA UBERABAN 0, LOTE E QUADRA A         SAO BENTO - 25041060DUQUE DE CAXIASRJUNIAO UMB DOS CULTOS AFRO BRAS    30081915 000090
21300820190000000000500                                                                                                                                                                                                                                                                                                                                                                                   000091
10231987175000168817800093673    000053561                    000535610000000000000109                     I0153561     30081900000000250003410000017N020819105700000000000833008190000000000000000000000000000000000000000100003856750975BIENI MENDES DA SILVA                   RUA TRESN 165,                          JARDIM BEIRA27525584RESENDE        RJUNIAO UMB DOS CULTOS AFRO BRAS    30081915 000092
21300820190000000000500                                                                                                                                                                                                                                                                                                                                                                                   000093
10231987175000168817800093673    000053560                    000535600000000000000109                     I0153560     30081900000000250003410000017N020819105700000000000833008190000000000000000000000000000000000000000100010129034789TERESA DE FATIMA ALVES BATISTA          RUA PERIMETRAL SULN 1212,               CIDADE DA AL27525066RESENDE        RJUNIAO UMB DOS CULTOS AFRO BRAS    30081915 000094
21300820190000000000500                                                                                                                                                                                                                                                                                                                                                                                   000095
10231987175000168817800093673    000053559                    000535590000000000000109                     I0153559     30081900000000250003410000017N020819105700000000000833008190000000000000000000000000000000000000000100067870872768MILTON ALMEIDA DA SILVA                 RUA SENHOR DOS PASSOSN 501,             VILA MODERNA27514090RESENDE        RJUNIAO UMB DOS CULTOS AFRO BRAS    30081915 000096
21300820190000000000500                                                                                                                                                                                                                                                                                                                                                                                   000097
10231987175000168817800093673    000053556                    000535560000000000000109                     I0153556     30081900000000250003410000017N020819105700000000000833008190000000000000000000000000000000000000000100009195707719ALEXANDRE HENRIQUE SILVA                RUA MAURO N 15,                         TRIANGULO   26051600NOVA IGUACU    RJUNIAO UMB DOS CULTOS AFRO BRAS    30081915 000098
21300820190000000000500                                                                                                                                                                                                                                                                                                                                                                                   000099
10231987175000168817800093673    000053555                    000535550000000000000109                     I0153555     30081900000000250003410000017N020819105700000000000833008190000000000000000000000000000000000000000100008714370743NEUZELI SIMOES CARVALHO DE SOU          RUA ENGENHEIRO HENRIQUE LUSSACKN 926,   EDSON PASSOS26553500MESQUITA       RJUNIAO UMB DOS CULTOS AFRO BRAS    30081915 000100
21300820190000000000500                                                                                                                                                                                                                                                                                                                                                                                   000101
10231987175000168817800093673    000053554                    000535540000000000000109                     I0153554     30081900000000250003410000017N020819105700000000000833008190000000000000000000000000000000000000000100010031741754ALCINEA BENEDITO CARDOSO                RUA DARIDA DE JESUSN 58,  CASA 4        JARDIM CENTR23890145RIO DE JANEIRO RJUNIAO UMB DOS CULTOS AFRO BRAS    30081915 000102
21300820190000000000500                                                                                                                                                                                                                                                                                                                                                                                   000103
10231987175000168817800093673    000053553                    000535530000000000000109                     I0153553     30081900000000250003410000017N020819105700000000000833008190000000000000000000000000000000000000000100009850935790ANA PAULA SOARES DA SILVA               RUA TURVON 331, CASA 1                  IRAJA       21371240RIO DE JANEIRO RJUNIAO UMB DOS CULTOS AFRO BRAS    30081915 000104
21300820190000000000500                                                                                                                                                                                                                                                                                                                                                                                   000105
10231987175000168817800093673    000053552                    000535520000000000000109                     I0153552     30081900000000250003410000017N020819105700000000000833008190000000000000000000000000000000000000000100093743920700RITA DE CASSIA COSTA SENNA              RUA COMANDANTE ARY PARREIRAS N 181,     CENTRO      25515080SAO JOAO DE MERRJUNIAO UMB DOS CULTOS AFRO BRAS    30081915 000106
21300820190000000000500                                                                                                                                                                                                                                                                                                                                                                                   000107
10231987175000168817800093673    000053551                    000535510000000000000109                     I0153551     30081900000000250003410000017N020819105700000000000833008190000000000000000000000000000000000000000100045704724787PALMIRA FERREIRA NAVARRO                RUA MARTEN 999,                         SANTA TERESI26240290MESQUITA       RJUNIAO UMB DOS CULTOS AFRO BRAS    30081915 000108
21300820190000000000500                                                                                                                                                                                                                                                                                                                                                                                   000109
10231987175000168817800093673    000053550                    000535500000000000000109                     I0153550     30081900000000250003410000017N020819105700000000000833008190000000000000000000000000000000000000000100007787632771LIANDRA KARLA GUIMARAES CARNEI          RUA DOS DIAMANTESN 795,                 ROCHA MIRAND22510003RIO DE JANEIRO RJUNIAO UMB DOS CULTOS AFRO BRAS    30081915 000110
21300820190000000000500                                                                                                                                                                                                                                                                                                                                                                                   000111
10231987175000168817800093673    000053549                    000535490000000000000109                     I0153549     30081900000000250003410000017N020819105700000000000833008190000000000000000000000000000000000000000100043719791734MARIA DA CONCEICAO BORGES               RUA DO GOVERNON 222, CASA 10            REALENGO    21770100RIO DE JANEIRO RJUNIAO UMB DOS CULTOS AFRO BRAS    30081915 000112
21300820190000000000500                                                                                                                                                                                                                                                                                                                                                                                   000113
10231987175000168817800093673    000053548                    000535480000000000000109                     I0153548     30081900000000250003410000017N020819105700000000000833008190000000000000000000000000000000000000000100084407883715MAURO FERREIRA MATHEUS                  ESTRADA DO ENGENHO, N 1981, RUA CASTOR DPRACA PIQUER21370200RIO DE JANEIRO RJUNIAO UMB DOS CULTOS AFRO BRAS    30081915 000114
21300820190000000000500                                                                                                                                                                                                                                                                                                                                                                                   000115
10231987175000168817800093673    000053547                    000535470000000000000109                     I0153547     30081900000000250003410000017N020819105700000000000833008190000000000000000000000000000000000000000100000446671754JUSSARA MATHIAS TEIXEIRA                RUA VEREADOR OSVALDO MARCONDES N 106,   JOSE BONIFAC25515380SAO JOAO DE MERRJUNIAO UMB DOS CULTOS AFRO BRAS    30081915 000116
21300820190000000000500                                                                                                                                                                                                                                                                                                                                                                                   000117
10231987175000168817800093673    000053546                    000535460000000000000109                     I0153546     30081900000000250003410000017N020819105700000000000833008190000000000000000000000000000000000000000100072386290700FERNANDO LOPES NARCISO                  RUA IPINAMBESN 196,                     TAQUARA     22730210RIO DE JANEIRO RJUNIAO UMB DOS CULTOS AFRO BRAS    30081915 000118
21300820190000000000500                                                                                                                                                                                                                                                                                                                                                                                   000119
10231987175000168817800093673    000053545                    000535450000000000000109                     I0153545     30081900000000250003410000017N020819105700000000000833008190000000000000000000000000000000000000000100003430627710PATRICIA DA SILVA VASCONCELOS           RUA TAPUTERA N 140, FUNDOS              BARAO DE IRI25906780MAGE           RJUNIAO UMB DOS CULTOS AFRO BRAS    30081915 000120
21300820190000000000500                                                                                                                                                                                                                                                                                                                                                                                   000121
10231987175000168817800093673    000053544                    000535440000000000000109                     I0153544     30081900000000250003410000017N020819105700000000000833008190000000000000000000000000000000000000000100014190708780MATHEUS APOLONIO DO AMARAL              TRAVESSA SILVEIRA DA MOTAN 24, CASA 2   SAO LOURENCO24060048NITEROI        RJUNIAO UMB DOS CULTOS AFRO BRAS    30081915 000122
21300820190000000000500                                                                                                                                                                                                                                                                                                                                                                                   000123
10231987175000168817800093673    000053543                    000535430000000000000109                     I0153543     30081900000000250003410000017N020819105700000000000833008190000000000000000000000000000000000000000100060709910797FATIMA REGINA CARVALHO                  RUA GENERAL EMIRN 0,  QUADRA 39 LOTE 1 CITAIPUCU    24935540MARICA         RJUNIAO UMB DOS CULTOS AFRO BRAS    30081915 000124
21300820190000000000500                                                                                                                                                                                                                                                                                                                                                                                   000125
10231987175000168817800093673    000053542                    000535420000000000000109                     I0153542     30081900000000250003410000017N020819105700000000000833008190000000000000000000000000000000000000000100008665082794CARLOS EDUARDO DE ALMEIDA BOSI          RUA SARGENTO PAULO MOREIRAN 91,         SANTO AGOSTI27211150VOLTA REDONDA  RJUNIAO UMB DOS CULTOS AFRO BRAS    30081915 000126
21300820190000000000500                                                                                                                                                                                                                                                                                                                                                                                   000127
10231987175000168817800093673    000053541                    000535410000000000000109                     I0153541     30081900000000250003410000017N020819105700000000000833008190000000000000000000000000000000000000000100012861043784DIEGO DE OLIVEIRA DIAS                  RODOVIA AMARAL PEIXOTON 0, KM 34 - VENDACOLONIA     24805900ITABORAI       RJUNIAO UMB DOS CULTOS AFRO BRAS    30081915 000128
21300820190000000000500                                                                                                                                                                                                                                                                                                                                                                                   000129
10231987175000168817800093673    000053540                    000535400000000000000109                     I0153540     30081900000000250003410000017N020819105700000000000833008190000000000000000000000000000000000000000100001413305709LUCIO MAURO DE AQUINO BARBOSA           RUA FAIAN 455,                          ROCHA MIRAND21545110RIO DE JANEIRO RJUNIAO UMB DOS CULTOS AFRO BRAS    30081915 000130
21300820190000000000500                                                                                                                                                                                                                                                                                                                                                                                   000131
10231987175000168817800093673    000053539                    000535390000000000000109                     I0153539     30081900000000250003410000017N020819105700000000000833008190000000000000000000000000000000000000000100005399664798IGOR UILLIAN SAMUEL MELLO               AVENIDA OSWALDO CRUZN 365,              BOTAFOGO    26041180NOVA IGUACU    RJUNIAO UMB DOS CULTOS AFRO BRAS    30081915 000132
21300820190000000000500                                                                                                                                                                                                                                                                                                                                                                                   000133
10231987175000168817800093673    000053538                    000535380000000000000109                     I0153538     30081900000000250003410000017N020819105700000000000833008190000000000000000000000000000000000000000100007153675795ARTUNISCE DOS SANTOS - ANGELA           RUA KARLAN 0, LOTE 4 QUADRA C           MARINGA     26177020BELFORD ROXO   RJUNIAO UMB DOS CULTOS AFRO BRAS    30081915 000134
21300820190000000000500                                                                                                                                                                                                                                                                                                                                                                                   000135
10231987175000168817800093673    000053535                    000535350000000000000109                     I0153535     30081900000000250003410000017N020819105700000000000833008190000000000000000000000000000000000000000100077351436649RONALDO MARTINS DOS SANTOS              RUA DOMINGOS MARCOS DA SILVA N 196,     SENHOR DOS M36300356SAO JOAO DEL REMGUNIAO UMB DOS CULTOS AFRO BRAS    30081915 000136
21300820190000000000500                                                                                                                                                                                                                                                                                                                                                                                   000137
10231987175000168817800093673    000053534                    000535340000000000000109                     I0153534     30081900000000250003410000017N020819105700000000000833008190000000000000000000000000000000000000000100016369746789JOAO VITOR LEANDRO DOS SANTOS           AVENIDA PREFEITO BRAULINO DE MATOS REISNLEOPOLDINA  25060445DUQUE DE CAXIASRJUNIAO UMB DOS CULTOS AFRO BRAS    30081915 000138
21300820190000000000500                                                                                                                                                                                                                                                                                                                                                                                   000139
10231987175000168817800093673    000053533                    000535330000000000000109                     I0153533     30081900000000250003410000017N020819105700000000000833008190000000000000000000000000000000000000000100028114730846JULIANA MEDEIROS ANTUNES                RUA BROTAS N 99999, LOTE 23 QUADRA F    CAMPO GRANDE23073650RIO DE JANEIRO RJUNIAO UMB DOS CULTOS AFRO BRAS    30081915 000140
21300820190000000000500                                                                                                                                                                                                                                                                                                                                                                                   000141
10231987175000168817800093673    000053532                    000535320000000000000109                     I0153532     30081900000000250003410000017N020819105700000000000833008190000000000000000000000000000000000000000100007887741742ROSANA DA SILVA                         RUA JERUSALEMN 0, CASA 3 LOTE 12        JARDIM SILVA26195380BELFORD ROXO   RJUNIAO UMB DOS CULTOS AFRO BRAS    30081915 000142
21300820190000000000500                                                                                                                                                                                                                                                                                                                                                                                   000143
10231987175000168817800093673    000053531                    000535310000000000000109                     I0153531     30081900000000250003410000017N020819105700000000000833008190000000000000000000000000000000000000000100083493336772CARLOS FRANCISCO ARAGAO DE GOU          RUA DA CARIDADEN 0, LOTE 39 QUADRA 2    TAQUARA     25275010DUQUE DE CAXIASRJUNIAO UMB DOS CULTOS AFRO BRAS    30081915 000144
21300820190000000000500                                                                                                                                                                                                                                                                                                                                                                                   000145
10231987175000168817800093673    000053525                    000535250000000000000109                     I0153525     30081900000000250003410000017N020819105700000000000833008190000000000000000000000000000000000000000100006238257750EDEILSON CAMILO DE ANDRADE              ALAMEDA DAS ORQUIDEASN 0, LOTE 14 QUADRAJARDIM NAZAR25900000MAGE           RJUNIAO UMB DOS CULTOS AFRO BRAS    30081915 000146
21300820190000000000500                                                                                                                                                                                                                                                                                                                                                                                   000147
10231987175000168817800093673    000053524                    000535240000000000000109                     I0153524     30081900000000250003410000017N020819105700000000000833008190000000000000000000000000000000000000000100027313590725JOAO BATISTA FERREIRA                   RUA TEIXEIRA PINTON 116,                ENGENHEIRO B25520210SAO JOAO DE MERRJUNIAO UMB DOS CULTOS AFRO BRAS    30081915 000148
21300820190000000000500                                                                                                                                                                                                                                                                                                                                                                                   000149
10231987175000168817800093673    000053523                    000535230000000000000109                     I0153523     30081900000000250003410000017N020819105700000000000833008190000000000000000000000000000000000000000100016212777713TAYNARA LUZIA SILVA SOUZA               RODOVIA LUCIO MEIRAN 45772, KM 249 BR-39MINUANO     27115190BARRA DO PIRAI RJUNIAO UMB DOS CULTOS AFRO BRAS    30081915 000150
21300820190000000000500                                                                                                                                                                                                                                                                                                                                                                                   000151
10231987175000168817800093673    000053522                    000535220000000000000109                     I0153522     30081900000000250003410000017N020819105700000000000833008190000000000000000000000000000000000000000100095003517734MARILENE DE MELO SILVA                  RUA CACIRAN 0, LOTE 8 QUADRA 8          PARQUE FLUMI26190380BELFORD ROXO   RJUNIAO UMB DOS CULTOS AFRO BRAS    30081915 000152
21300820190000000000500                                                                                                                                                                                                                                                                                                                                                                                   000153
10231987175000168817800093673    000053521                    000535210000000000000109                     I0153521     30081900000000250003410000017N020819105700000000000833008190000000000000000000000000000000000000000100011142891755JONAS ALACRINO THEODORO                 RUA DOUTOR MIGUEL DIDO N 80,            IRAJA       21235525RIO DE JANEIRO RJUNIAO UMB DOS CULTOS AFRO BRAS    30081915 000154
21300820190000000000500                                                                                                                                                                                                                                                                                                                                                                                   000155
10231987175000168817800093673    000053520                    000535200000000000000109                     I0153520     30081900000000250003410000017N020819105700000000000833008190000000000000000000000000000000000000000100010368667774SUZANA PEREIRA MOIZINHO                 RUA CONCEICAO DA PEDRA N 77,            ARNALDO EUGE23016330CAMPO GRANDE   RJUNIAO UMB DOS CULTOS AFRO BRAS    30081915 000156
21300820190000000000500                                                                                                                                                                                                                                                                                                                                                                                   000157
10231987175000168817800093673    000053519                    000535190000000000000109                     I0153519     30081900000000250003410000017N020819105700000000000833008190000000000000000000000000000000000000000100001884607306FRANCIDALVA ALVES PEREIRA               RUA CARNEIRO DE MENDONCAN 175,          CAMPOS SALES63150000CEARA          CEUNIAO UMB DOS CULTOS AFRO BRAS    30081915 000158
21300820190000000000500                                                                                                                                                                                                                                                                                                                                                                                   000159
10231987175000168817800093673    000053518                    000535180000000000000109                     I0153518     30081900000000250003410000017N020819105700000000000833008190000000000000000000000000000000000000000100009737007778LAURECI MARIA RODRIGUES SERRIN          RUA JULIA VIEIRAN 0, LOTE 3 QUADRA 3    PANTANAL    25041470DUQUE DE CAXIASRJUNIAO UMB DOS CULTOS AFRO BRAS    30081915 000160
21300820190000000000500                                                                                                                                                                                                                                                                                                                                                                                   000161
10231987175000168817800093673    000053517                    000535170000000000000109                     I0153517     30081900000000250003410000017N020819105700000000000833008190000000000000000000000000000000000000000100012345409754BRUNO HENRIQUE SILVA RAMOS DA           RUA EDUARDO GOMES N 49,                 COMENDADOR S26288280NOVA IGUACU    RJUNIAO UMB DOS CULTOS AFRO BRAS    30081915 000162
21300820190000000000500                                                                                                                                                                                                                                                                                                                                                                                   000163
10231987175000168817800093673    000053516                    000535160000000000000109                     I0153516     30081900000000250003410000017N020819105700000000000833008190000000000000000000000000000000000000000100012661069798REGINA DA CONCEICAO VIANA               RUA POTIN 10,                           PARQUE FLUMI25042610DUQUE DE CAXIASRJUNIAO UMB DOS CULTOS AFRO BRAS    30081915 000164
21300820190000000000500                                                                                                                                                                                                                                                                                                                                                                                   000165
10231987175000168817800093673    000053515                    000535150000000000000109                     I0153515     30081900000000250003410000017N020819105700000000000833008190000000000000000000000000000000000000000100000937144754EGLEA MARIA DE JESUS ROCHA DE           RUA MARIO GARCIA N 0, LOTE 7 QUADRA 60  VILA SANTO A25040370DUQUE DE CAXIASRJUNIAO UMB DOS CULTOS AFRO BRAS    30081915 000166
21300820190000000000500                                                                                                                                                                                                                                                                                                                                                                                   000167
10231987175000168817800093673    000053514                    000535140000000000000109                     I0153514     30081900000000250003410000017N020819105700000000000833008190000000000000000000000000000000000000000100008575469703MARCUS VINICIUS FRANCO MARTINS          RUA LUIZ ROCHAN 155, CASA 3             SANTA MARIA 22723008JACAREPAGUA    RJUNIAO UMB DOS CULTOS AFRO BRAS    30081915 000168
21300820190000000000500                                                                                                                                                                                                                                                                                                                                                                                   000169
10231987175000168817800093673    000053513                    000535130000000000000109                     I0153513     30081900000000250003410000017N020819105700000000000833008190000000000000000000000000000000000000000100006864633748DARLAN BARBOSA DA SILVA                 RUA PARNAIBAN 0, LOTE 16 QDA 10         NOSSA SENHOR25046270DUQUE DE CAXIASRJUNIAO UMB DOS CULTOS AFRO BRAS    30081915 000170
21300820190000000000500                                                                                                                                                                                                                                                                                                                                                                                   000171
10231987175000168817800093673    000053512                    000535120000000000000109                     I0153512     30081900000000250003410000017N020819105700000000000833008190000000000000000000000000000000000000000100012767487798WALACE ALFREDO PEREIRA                  RUA DICURANAN 15,                       COSMOS      23059340RIO DE JANEIRO RJUNIAO UMB DOS CULTOS AFRO BRAS    30081915 000172
21300820190000000000500                                                                                                                                                                                                                                                                                                                                                                                   000173
10231987175000168817800093673    000053511                    000535110000000000000109                     I0153511     30081900000000250003410000017N020819105700000000000833008190000000000000000000000000000000000000000100000137585780ARLINDA CAMILO DOS SANTOS               RUA MANOEL PAULO DE FARIAN 435, ANTIGA RFRAGOSO     25935298MAGE           RJUNIAO UMB DOS CULTOS AFRO BRAS    30081915 000174
21300820190000000000500                                                                                                                                                                                                                                                                                                                                                                                   000175
10231987175000168817800093673    000053510                    000535100000000000000109                     I0153510     30081900000000250003410000017N020819105700000000000833008190000000000000000000000000000000000000000100076092712768MARIA DA GLORIA DA SILVA                RUA PN 0, LOTE 40 QUADRA 20             FRAGOSO     25935000MAGE           RJUNIAO UMB DOS CULTOS AFRO BRAS    30081915 000176
21300820190000000000500                                                                                                                                                                                                                                                                                                                                                                                   000177
10231987175000168817800093673    000053509                    000535090000000000000109                     I0153509     30081900000000250003410000017N020819105700000000000833008190000000000000000000000000000000000000000100002727903707JANILDA BARROS DA SILVA                 ALAMEDA ROBERTINHON 0,  LOTE 3 QUADRA 21JARDIM NAZAR25936110MAGE           RJUNIAO UMB DOS CULTOS AFRO BRAS    30081915 000178
21300820190000000000500                                                                                                                                                                                                                                                                                                                                                                                   000179
10231987175000168817800093673    000053508                    000535080000000000000109                     I0153508     30081900000000250003410000017N020819105700000000000833008190000000000000000000000000000000000000000100081405251700DENISE RAMALDES PINHEIRO                RUA IN 26,                              FRAGOSO     25935486RIO DE JANEIRO RJUNIAO UMB DOS CULTOS AFRO BRAS    30081915 000180
21300820190000000000500                                                                                                                                                                                                                                                                                                                                                                                   000181
10231987175000168817800093673    000053506                    000535060000000000000109                     I0153506     30081900000000250003410000017N020819105700000000000833008190000000000000000000000000000000000000000100002328567703EVARISTO STANESCOM                      RUA MAURICIA N 855,                     JACUTINGA   26564020MESQUITA       RJUNIAO UMB DOS CULTOS AFRO BRAS    30081915 000182
21300820190000000000500                                                                                                                                                                                                                                                                                                                                                                                   000183
9                                                                                                                                                                                                                                                                                                                                                                                                         000184
