01REMESSA01COBRANCA       817800093673        União Umb dos Cultos Afro Bra341BANCO ITAU SA  190219                                                                                                                                                                                                                                                                                                      000001
10231987175000168817800093673    000038933                    000389330000000000000109                     I0238933     30031900000000040003410000017N261218104700000000000103003190000000000000000000000000000000000000000100010619254718MARIA TEREZA ANDRADE DOS SANTO          RUA DOUTOR MANUEL LUIZ N 621,           VALVERDE    26291003NOVA IGUACU    RJUNIAO UMB DOS CULTOS AFRO BRAS    30031910 000002
10231987175000168817800093673    000038276                    000382760000000000000109                     I0238276     30031900000000040003410000017N261218104700000000000103003190000000000000000000000000000000000000000100085258610730CRISTINA ROSA DE JESUS BASILIO          RUA NILZA GURGELN 615, CASA 3           VILA EMIL   26580310MESQUITA       RJUNIAO UMB DOS CULTOS AFRO BRAS    30031910 000003
10231987175000168817800093673    000037919                    000379190000000000000109                     I0237919     30031900000000040003410000017N261218104700000000000103003190000000000000000000000000000000000000000100003632737789MONALISA DE ALMEIDA CARVALHO            RUA NOSSA SENHORA DA PAZ N 111,         SANTA CECILI26130660BELFORD ROXO   RJUNIAO UMB DOS CULTOS AFRO BRAS    30031910 000004
10231987175000168817800093673    000037719                    000377190000000000000109                     I0237719     30031900000000040003410000017N261218104700000000000103003190000000000000000000000000000000000000000100066391482772VERA LUCIA BARBOSA FERREIRA             RUA APARECIDAN 427,                     EDEN        25535020SAO JOAO DE MERRJUNIAO UMB DOS CULTOS AFRO BRAS    30031910 000005
10231987175000168817800093673    000037543                    000375430000000000000109                     I0237543     30031900000000040003410000017N261218104700000000000103003190000000000000000000000000000000000000000100042533686700ENEDINA MALVINA DO NASCIMENTO           RUA CASTRO MENEZESN 591,                BRAS DE PINA21215250RIO DE JANEIRO RJUNIAO UMB DOS CULTOS AFRO BRAS    30031910 000006
10231987175000168817800093673    000037014                    000370140000000000000109                     I0237014     28021900000000040003410000017N261218104700000000000102802190000000000000000000000000000000000000000100010619254718MARIA TEREZA ANDRADE DOS SANTO          RUA DOUTOR MANUEL LUIZ N 621,           VALVERDE    26291003NOVA IGUACU    RJUNIAO UMB DOS CULTOS AFRO BRAS    28021910 000007
10231987175000168817800093673    000036360                    000363600000000000000109                     I0236360     28021900000000040003410000017N261218104700000000000102802190000000000000000000000000000000000000000100085258610730CRISTINA ROSA DE JESUS BASILIO          RUA NILZA GURGELN 615, CASA 3           VILA EMIL   26580310MESQUITA       RJUNIAO UMB DOS CULTOS AFRO BRAS    28021910 000008
10231987175000168817800093673    000036004                    000360040000000000000109                     I0236004     28021900000000040003410000017N261218104700000000000102802190000000000000000000000000000000000000000100003632737789MONALISA DE ALMEIDA CARVALHO            RUA NOSSA SENHORA DA PAZ N 111,         SANTA CECILI26130660BELFORD ROXO   RJUNIAO UMB DOS CULTOS AFRO BRAS    28021910 000009
10231987175000168817800093673    000035806                    000358060000000000000109                     I0235806     28021900000000040003410000017N261218104700000000000102802190000000000000000000000000000000000000000100066391482772VERA LUCIA BARBOSA FERREIRA             RUA APARECIDAN 427,                     EDEN        25535020SAO JOAO DE MERRJUNIAO UMB DOS CULTOS AFRO BRAS    28021910 000010
10231987175000168817800093673    000035631                    000356310000000000000109                     I0235631     28021900000000040003410000017N261218104700000000000102802190000000000000000000000000000000000000000100042533686700ENEDINA MALVINA DO NASCIMENTO           RUA CASTRO MENEZESN 591,                BRAS DE PINA21215250RIO DE JANEIRO RJUNIAO UMB DOS CULTOS AFRO BRAS    28021910 000011
10231987175000168817800093673    000035457                    000354570000000000000109                     I0235457     31011900000000040003410000017N261218104700000000000103101190000000000000000000000000000000000000000100015041746745ANAISE SOARES DO CARMO                  RUA JOSE FRANCISCO ALVESN 48,           SEPETIBA    23542120RIO DE JANEIRO RJUNIAO UMB DOS CULTOS AFRO BRAS    31011910 000012
10231987175000168817800093673    000035103                    000351030000000000000109                     I0235103     31011900000000040003410000017N261218104700000000000103101190000000000000000000000000000000000000000100010619254718MARIA TEREZA ANDRADE DOS SANTO          RUA DOUTOR MANUEL LUIZ N 621,           VALVERDE    26291003NOVA IGUACU    RJUNIAO UMB DOS CULTOS AFRO BRAS    31011910 000013
10231987175000168817800093673    000034476                    000344760000000000000109                     I0234476     31011900000000040003410000017N261218104700000000000103101190000000000000000000000000000000000000000100002134169729ALEXANDRE DE ALMEIDA                    RUA SERITINGAN 105,  BLOCO 5 APTO 108 FUBRAS DE PINA21215480RIO DE JANEIRO RJUNIAO UMB DOS CULTOS AFRO BRAS    31011910 000014
10231987175000168817800093673    000034452                    000344520000000000000109                     I0234452     31011900000000040003410000017N261218104700000000000103101190000000000000000000000000000000000000000100085258610730CRISTINA ROSA DE JESUS BASILIO          RUA NILZA GURGELN 615, CASA 3           VILA EMIL   26580310MESQUITA       RJUNIAO UMB DOS CULTOS AFRO BRAS    31011910 000015
10231987175000168817800093673    000033903                    000339030000000000000109                     I0233903     31011900000000040003410000017N261218104700000000000103101190000000000000000000000000000000000000000100066391482772VERA LUCIA BARBOSA FERREIRA             RUA APARECIDAN 427,                     EDEN        25535020SAO JOAO DE MERRJUNIAO UMB DOS CULTOS AFRO BRAS    31011910 000016
10231987175000168817800093673    000033730                    000337300000000000000109                     I0233730     31011900000000040003410000017N261218104700000000000103101190000000000000000000000000000000000000000100042533686700ENEDINA MALVINA DO NASCIMENTO           RUA CASTRO MENEZESN 591,                BRAS DE PINA21215250RIO DE JANEIRO RJUNIAO UMB DOS CULTOS AFRO BRAS    31011910 000017
10231987175000168817800093673    000031479                    000314790000000000000109                     I0231479     20121800000000350003410000017N291018104700000000000102012180000000000000000000000000000000000000000100067053424715HELENA DE FATIMA MENDES MARQUE          RUA IRANIRN 182,                        PENHA       21020200RIO DE JANEIRO RJUNIAO UMB DOS CULTOS AFRO BRAS    20121810 000018
10231987175000168817800093673    000031475                    000314750000000000000109                     I0231475     20121800000000350003410000017N291018104700000000000102012180000000000000000000000000000000000000000100000499306724ANA CLAUDIA DE SOUZA RODRIGUES          RUA VALTER SEDER N 45,                  VISTA ALEGRE21230740RIO DE JANEIRO RJUNIAO UMB DOS CULTOS AFRO BRAS    20121810 000019
10231987175000168817800093673    000031473                    000314730000000000000109                     I0231473     20121800000000350003410000017N291018104700000000000102012180000000000000000000000000000000000000000100002181028796EMERSON DIAS DA COSTA                   RUA PARAN 0, LOTE 10 QUADRA 31          VALE DAS MAN26175370BELFORD ROXO   RJUNIAO UMB DOS CULTOS AFRO BRAS    20121810 000020
10231987175000168817800093673    000031466                    000314660000000000000109                     I0231466     20121800000000350003410000017N291018104700000000000102012180000000000000000000000000000000000000000100089826930768MARIA DAS DORES SILVA                   RUA JORDAON 805, CASA 40                TANQUE      22725549RIO DE JANEIRO RJUNIAO UMB DOS CULTOS AFRO BRAS    20121810 000021
10231987175000168817800093673    000031465                    000314650000000000000109                     I0231465     20121800000000350003410000017N291018104700000000000102012180000000000000000000000000000000000000000100077406648715MARIZEL NUNES MATHION                   RUA MERCEDES COELHON 251,               COQUEIRAL - 23525100RIO DE JANEIRO RJUNIAO UMB DOS CULTOS AFRO BRAS    20121810 000022
10231987175000168817800093673    000031463                    000314630000000000000109                     I0231463     20121800000000350003410000017N291018104700000000000102012180000000000000000000000000000000000000000100008861162797MARCIO ARAUJO DE MELO SOUZA             RUA GERALDO LOURENCON 70, RIACHAO       JARDIM ROMA 26279325NOVA IGUACU    RJUNIAO UMB DOS CULTOS AFRO BRAS    20121810 000023
10231987175000168817800093673    000031462                    000314620000000000000109                     I0231462     20121800000000350003410000017N291018104700000000000102012180000000000000000000000000000000000000000100050534173772IARA FRANCISCO                          RUA BARAO DE MELGACON 279, FUNDOS       CORDOVIL    21250320RIO DE JANEIRO RJUNIAO UMB DOS CULTOS AFRO BRAS    20121810 000024
10231987175000168817800093673    000031460                    000314600000000000000109                     I0231460     20121800000000350003410000017N291018104700000000000102012180000000000000000000000000000000000000000100000000000000CARLOS ALBERTO PORTO LEAL               RUA FOSCA N 55,                         POSSE       26020015NOVA IGUACU    RJUNIAO UMB DOS CULTOS AFRO BRAS    20121810 000025
10231987175000168817800093673    000031458                    000314580000000000000109                     I0231458     20121800000000350003410000017N291018104700000000000102012180000000000000000000000000000000000000000100007650422747SIDNEI DO VALE FELISBERTO               RUA: DESEMBARGADOR MACHADO GUIMARAESN 90JARDIM TROPI26011110NOVA IGUACU    RJUNIAO UMB DOS CULTOS AFRO BRAS    20121810 000026
10231987175000168817800093673    000031455                    000314550000000000000109                     I0231455     20121800000000350003410000017N291018104700000000000102012180000000000000000000000000000000000000000100076658961700BEATRIZ DIAS DO NASCIMENTO              RUA SAO BRUNON 55, APT 301              PENHA       21021160RIO DE JANEIRO RJUNIAO UMB DOS CULTOS AFRO BRAS    20121810 000027
10231987175000168817800093673    000031454                    000314540000000000000109                     I0231454     20121800000000350003410000017N291018104700000000000102012180000000000000000000000000000000000000000100036257869749IRANI DA SILVA CORREA                   RUA JATAIZINHON 11,  JARDIM ORIENTAL    SENADOR VASC23012170RIO DE JANEIRO RJUNIAO UMB DOS CULTOS AFRO BRAS    20121810 000028
10231987175000168817800093673    000031453                    000314530000000000000109                     I0231453     20121800000000350003410000017N291018104700000000000102012180000000000000000000000000000000000000000100062783203715SORAYA BARROS PINHEIRO                  RUA: SANTOS TITARAN 45, APTº 115       TODOS OS SAN20735240RIO DE JANEIRO RJUNIAO UMB DOS CULTOS AFRO BRAS    20121810 000029
10231987175000168817800093673    000031451                    000314510000000000000109                     I0231451     20121800000000350003410000017N291018104700000000000102012180000000000000000000000000000000000000000100000000000855ELIZABETH GOMES MONTEIRO DA SI          RUA: MUNIZ ACQUARONE N 74,              IRAJA       21220460RIO DE JANEIRO RJUNIAO UMB DOS CULTOS AFRO BRAS    20121810 000030
10231987175000168817800093673    000031450                    000314500000000000000109                     I0231450     20121800000000400003410000017N291018104700000000000102012180000000000000000000000000000000000000000100007775553790ANDRE BATISTA DO NASCIMENTO AR          RUA DOUTOR BERNADINO N 559,  CASA 101 BLPRACA SECA  21320020RIO DE JANEIRO RJUNIAO UMB DOS CULTOS AFRO BRAS    20121810 000031
10231987175000168817800093673    000031448                    000314480000000000000109                     I0231448     20121800000000350003410000017N291018104700000000000102012180000000000000000000000000000000000000000100058984178772ELIZABETH RIBEIRO VALENTE FARI          RUA: VASCO DA GAMA N 1409,              PARQUE ESTOR26063190NOVA IGUACU    RJUNIAO UMB DOS CULTOS AFRO BRAS    20121810 000032
10231987175000168817800093673    000031445                    000314450000000000000109                     I0231445     20121800000000350003410000017N291018104700000000000102012180000000000000000000000000000000000000000100050775561720LEANDRO MECENAS DA CUNHA                RUA GUATOSN 34,                         PARQUE SAO C26051640NOVA IGUACU    RJUNIAO UMB DOS CULTOS AFRO BRAS    20121810 000033
10231987175000168817800093673    000031441                    000314410000000000000109                     I0231441     20121800000000350003410000017N291018104700000000000102012180000000000000000000000000000000000000000100002603000713DEBORA DOS SANTOS GOES                  RUA DOZE N 198, CASA 2 AREA 4           NOVA CAMPINA25268240DUQUE DE CAXIASRJUNIAO UMB DOS CULTOS AFRO BRAS    20121810 000034
10231987175000168817800093673    000031439                    000314390000000000000109                     I0231439     20121800000000350003410000017N291018104700000000000102012180000000000000000000000000000000000000000100084703741768LINDALVA PEREIRA DE SOUZA               ESTRADA BARRO VERMELHON 1366,           ROCHA MIRAND21540499RIO DE JANEIRO RJUNIAO UMB DOS CULTOS AFRO BRAS    20121810 000035
10231987175000168817800093673    000031437                    000314370000000000000109                     I0231437     20121800000000350003410000017N291018104700000000000102012180000000000000000000000000000000000000000100007295283757DULCE DOS SANTOS MONTEIRO               AVENIDA: ESTACIO DE SAN 0, LOTE 32 QUADRPARQUE NOVO 25585000SAO JOAO DE MERRJUNIAO UMB DOS CULTOS AFRO BRAS    20121810 000036
10231987175000168817800093673    000031436                    000314360000000000000109                     I0231436     20121800000000350003410000017N291018104700000000000102012180000000000000000000000000000000000000000100099272946700MARCOS ANTONIO DA SILVA                 RUA PIACAVAN 100,                       VILA MARILIA26040210NOVA IGUACU    RJUNIAO UMB DOS CULTOS AFRO BRAS    20121810 000037
10231987175000168817800093673    000031435                    000314350000000000000109                     I0231435     20121800000000350003410000017N291018104700000000000102012180000000000000000000000000000000000000000100046180303720ALANIR SOARES DA SILVA                  RUA QUATORZEN 0, LOTE 14 QUADRA 32      SANTA CRUZ  23520292RIO DE JANEIRO RJUNIAO UMB DOS CULTOS AFRO BRAS    20121810 000038
10231987175000168817800093673    000031433                    000314330000000000000109                     I0231433     20121800000000350003410000017N291018104700000000000102012180000000000000000000000000000000000000000100063553830778WILLIAM RODRIGUES                       ESTRADA OTEIRO SANTON 1022, CASA 3      TAQUARA     22713169RIO DE JANEIRO RJUNIAO UMB DOS CULTOS AFRO BRAS    20121810 000039
10231987175000168817800093673    000031431                    000314310000000000000109                     I0231431     20121800000000350003410000017N291018104700000000000102012180000000000000000000000000000000000000000100000000000000MARIA LEOPOLDINO DE MATOS               RUA URUCURANAN 177,                     BOA ESPERANC26143140NOVA IGUACU    RJUNIAO UMB DOS CULTOS AFRO BRAS    20121810 000040
10231987175000168817800093673    000031425                    000314250000000000000109                     I0231425     20121800000000350003410000017N291018104700000000000102012180000000000000000000000000000000000000000100007272823798ANGELO DA SILVA VICENTE                 RUA ALMEIDA JUNIORN 698,                JARDIM ALCAN24710160SAO GONCALO    RJUNIAO UMB DOS CULTOS AFRO BRAS    20121810 000041
10231987175000168817800093673    000031424                    000314240000000000000109                     I0231424     20121800000000350003410000017N291018104700000000000102012180000000000000000000000000000000000000000100038370999700JULIO ALEXANDRE FERREIRA                RUA BARAO DE JACUIN 254, CASA 16 FUNDOS OSWALDO CRUZ21550310RIO DE JANEIRO RJUNIAO UMB DOS CULTOS AFRO BRAS    20121810 000042
10231987175000168817800093673    000031423                    000314230000000000000109                     I0231423     20121800000000350003410000017N291018104700000000000102012180000000000000000000000000000000000000000100000681004770ESPEDITA NUNES DA SILVA                 AVENIDA CASTELO BRANCON 0,  LOTE 3 QUADRPARQUE ELDOR25243570DUQUE DE CAXIASRJUNIAO UMB DOS CULTOS AFRO BRAS    20121810 000043
10231987175000168817800093673    000031420                    000314200000000000000109                     I0231420     20121800000000350003410000017N291018104700000000000102012180000000000000000000000000000000000000000100000559151756HENIE DA SILVA ALENCAR                  RUA: ROBERTO CALDASN 0, LOTE 13 QUADRA BPARQUE FLUMI26187400BELFORD ROXO   RJUNIAO UMB DOS CULTOS AFRO BRAS    20121810 000044
10231987175000168817800093673    000031417                    000314170000000000000109                     I0231417     20121800000000350003410000017N291018104700000000000102012180000000000000000000000000000000000000000100000000000000MARIA DA PENHA DOS SANTOS MARQ          RUA: BRENO SOUZA ALVESN 11,             SAO BERNADO 26165000BELFORD ROXO   RJUNIAO UMB DOS CULTOS AFRO BRAS    20121810 000045
10231987175000168817800093673    000031416                    000314160000000000000109                     I0231416     20121800000000350003410000017N291018104700000000000102012180000000000000000000000000000000000000000100006870897786JARDELI DE OLIVEIRA LISTO               RUA CEU AZUL N 0, LOTE 8 QUADRA 19      CURICICA    22780650RIO DE JANEIRO RJUNIAO UMB DOS CULTOS AFRO BRAS    20121810 000046
10231987175000168817800093673    000031414                    000314140000000000000109                     I0231414     20121800000000400003410000017N291018104700000000000102012180000000000000000000000000000000000000000100008901438704THIAGO RODRIGUES DA SILVA MOUR          RUA CENTRALN 0, TRAVESSA B16 - Nº 75   PRAIA MAUA  25930000MAGE           RJUNIAO UMB DOS CULTOS AFRO BRAS    20121810 000047
10231987175000168817800093673    000031413                    000314130000000000000109                     I0231413     20121800000000350003410000017N291018104700000000000102012180000000000000000000000000000000000000000100001153058740ALEXANDRE DE ALMEIDA ESPINDOLA          ESTRADA DO CAMBOATAN 2966, N 7 QUADRA C GUADALUPE   21660000RIO DE JANEIRO RJUNIAO UMB DOS CULTOS AFRO BRAS    20121810 000048
10231987175000168817800093673    000031410                    000314100000000000000109                     I0231410     20121800000000350003410000017N291018104700000000000102012180000000000000000000000000000000000000000100088537285749ELCIO CRUZ DE OLIVEIRA                  RUA SANTA CLARAN 8, APARTAMENTO 602     COPACABANA  22041012RIO DE JANEIRO RJUNIAO UMB DOS CULTOS AFRO BRAS    20121810 000049
10231987175000168817800093673    000031409                    000314090000000000000109                     I0231409     20121800000000400003410000017N291018104700000000000102012180000000000000000000000000000000000000000100002978000783FABIO PINTO MANTUANO                    RUA: DAS AMOREIRAS N 23, QUADRA 4       INOA        24943760MARICA         RJUNIAO UMB DOS CULTOS AFRO BRAS    20121810 000050
10231987175000168817800093673    000031404                    000314040000000000000109                     I0231404     20121800000000350003410000017N291018104700000000000102012180000000000000000000000000000000000000000100001117379744VERA LUCIA DE SOUZA COUTO               RUA RUDY ALBERTON 868, IMPERADOR        MAUA        25900000MAGE           RJUNIAO UMB DOS CULTOS AFRO BRAS    20121810 000051
10231987175000168817800093673    000031402                    000314020000000000000109                     I0231402     20121800000000350003410000017N291018104700000000000102012180000000000000000000000000000000000000000100004121968751MARIA ALICE MANOEL DO VALE              RUA B N 0, LOTE 9 QUADRA 3              JARDIM MARAM24800000ITABORAI       RJUNIAO UMB DOS CULTOS AFRO BRAS    20121810 000052
10231987175000168817800093673    000031399                    000313990000000000000109                     I0231399     20121800000000350003410000017N291018104700000000000102012180000000000000000000000000000000000000000100081051387787ROSA AMELIA COSENZA                     RUA MARIA DA GLORIA BALTARN 48,         NOVA CIDADE 26535290NILOPOLIS      RJUNIAO UMB DOS CULTOS AFRO BRAS    20121810 000053
10231987175000168817800093673    000031396                    000313960000000000000109                     I0231396     20121800000000350003410000017N291018104700000000000102012180000000000000000000000000000000000000000100085091515704MARIA DA PENHA BARBOSA                  RUA HELVIA BRAGANCAN 390,               JARDIM BOM P26110030BELFORD ROXO   RJUNIAO UMB DOS CULTOS AFRO BRAS    20121810 000054
10231987175000168817800093673    000031395                    000313950000000000000109                     I0231395     20121800000000350003410000017N291018104700000000000102012180000000000000000000000000000000000000000100004501217715JOSE DIOMEDES DO PATROCINIO NE          RUA DOUTOR LAUREANON 250,               VILA SAO LUI25060220DUQUE DE CAXIASRJUNIAO UMB DOS CULTOS AFRO BRAS    20121810 000055
10231987175000168817800093673    000031394                    000313940000000000000109                     I0231394     20121800000000350003410000017N291018104700000000000102012180000000000000000000000000000000000000000100004753333736ELAINE DOS SANTOS FONTES ARAUJ          RUA HELIANTO N 795, CASA 7              PADRE MIGUEL21775090RIO DE JANEIRO RJUNIAO UMB DOS CULTOS AFRO BRAS    20121810 000056
10231987175000168817800093673    000031393                    000313930000000000000109                     I0231393     20121800000000350003410000017N291018104700000000000102012180000000000000000000000000000000000000000100007342538779DAVID GARDINA FERREIRA LUCIO            RUA SARAPUI N 34, CASA 1                COELHO DA RO25550531SAO JOAO DE MERRJUNIAO UMB DOS CULTOS AFRO BRAS    20121810 000057
10231987175000168817800093673    000031390                    000313900000000000000109                     I0231390     20121800000000350003410000017N291018104700000000000102012180000000000000000000000000000000000000000100003316779701WALLACE SILVA SOARES                    RUA QUINZE DE NOVEMBRON 0, LOTE 2 QUADRASARACURUNA  25212690DUQUE DE CAXIASRJUNIAO UMB DOS CULTOS AFRO BRAS    20121810 000058
10231987175000168817800093673    000031387                    000313870000000000000109                     I0231387     20121800000000350003410000017N291018104700000000000102012180000000000000000000000000000000000000000100027686205720DENNIS CLARE                            RUA RATICLIFFN 105,                     RIACHUELO   20950170RIO DE JANEIRO RJUNIAO UMB DOS CULTOS AFRO BRAS    20121810 000059
10231987175000168817800093673    000031384                    000313840000000000000109                     I0231384     20121800000000350003410000017N291018104700000000000102012180000000000000000000000000000000000000000100007972604711ADRIANA TAVARES DA CONCEICAO            RUA: PEREIRON 0, LOTE 33 CASA 3         TAQUARA - JA22723155RIO DE JANEIRO RJUNIAO UMB DOS CULTOS AFRO BRAS    20121810 000060
10231987175000168817800093673    000031383                    000313830000000000000109                     I0231383     20121800000000350003410000017N291018104700000000000102012180000000000000000000000000000000000000000100036386812700VICENCO GEARDINA NETO                   ESTRADA SANTA BARBARA N 863,            MIGUEL COUTO26061070NOVA IGUACU    RJUNIAO UMB DOS CULTOS AFRO BRAS    20121810 000061
10231987175000168817800093673    000031382                    000313820000000000000109                     I0231382     20121800000000350003410000017N291018104700000000000102012180000000000000000000000000000000000000000100003027226703MARCIO ALVES DOS SANTOS                 RUA ESTUDANTE ELIANE CASTANHEIRAN 874,  CENTRO      25510242SAO JOAO DE MERRJUNIAO UMB DOS CULTOS AFRO BRAS    20121810 000062
10231987175000168817800093673    000031381                    000313810000000000000109                     I0231381     20121800000000350003410000017N291018104700000000000102012180000000000000000000000000000000000000000100093971087787SUELY DE CASSIA NEVES DA SILVA          RUA ANTONIO JOAQUIM DA SILVA N 49,      PARQUE BARRE25581140SAO JOAO DE MERRJUNIAO UMB DOS CULTOS AFRO BRAS    20121810 000063
10231987175000168817800093673    000031379                    000313790000000000000109                     I0231379     20121800000000350003410000017N291018104700000000000102012180000000000000000000000000000000000000000100081947712772MARIA COELHO DE LIMA                    RUA MARQUESA DOS SANTOS N 240, CASA 1   VILA ROSARIO25040070DUQUE DE CAXIASRJUNIAO UMB DOS CULTOS AFRO BRAS    20121810 000064
10231987175000168817800093673    000031377                    000313770000000000000109                     I0231377     20121800000000350003410000017N291018104700000000000102012180000000000000000000000000000000000000000100096252634700PATRICIA BORGES                         RUA DOS CAJUEIROSN 0, QUADRA A LOTE 1   SEPETIBA    23530074RIO DE JANEIRO RJUNIAO UMB DOS CULTOS AFRO BRAS    20121810 000065
10231987175000168817800093673    000031376                    000313760000000000000109                     I0231376     20121800000000350003410000017N291018104700000000000102012180000000000000000000000000000000000000000100085624250797HELBA SALLES DE SOUZA                   RUA: VITORIAN 16, QUADRA N LOTE 8       LAGOINHA    26296447NOVA IGUACU    RJUNIAO UMB DOS CULTOS AFRO BRAS    20121810 000066
10231987175000168817800093673    000031375                    000313750000000000000109                     I0231375     20121800000000350003410000017N291018104700000000000102012180000000000000000000000000000000000000000100010083312790EDINALDO FELIX DA SILVA                 RUA POJUCA N 174, CASA 3                ZUMBI       21930180ILHA DO GOVERNARJUNIAO UMB DOS CULTOS AFRO BRAS    20121810 000067
10231987175000168817800093673    000031374                    000313740000000000000109                     I0231374     20121800000000350003410000017N291018104700000000000102012180000000000000000000000000000000000000000100080295576715DOLORES DAS GRACAS ADRIANO DE           RUA SOLDADO PRIM CANESN 0,  QUADRA 198 LVILA MAR    23025420GUARATIBA      RJUNIAO UMB DOS CULTOS AFRO BRAS    20121810 000068
10231987175000168817800093673    000031368                    000313680000000000000109                     I0231368     20121800000000350003410000017N291018104700000000000102012180000000000000000000000000000000000000000100077451953734VANDA NILDA DE ASSIS                    RUA COELHO LISBOA N 168,                OSVALDO CRUZ21340260RIO DE JANEIRIORJUNIAO UMB DOS CULTOS AFRO BRAS    20121810 000069
10231987175000168817800093673    000031366                    000313660000000000000109                     I0231366     20121800000000350003410000017N291018104700000000000102012180000000000000000000000000000000000000000100005415694730ALEX SANDRO DA SILVA BANDEIRA           RUA PAULO ROBERTO N 6,                  PRAIA DE MAU25900000MAGE           RJUNIAO UMB DOS CULTOS AFRO BRAS    20121810 000070
10231987175000168817800093673    000031362                    000313620000000000000109                     I0231362     20121800000000350003410000017N291018104700000000000102012180000000000000000000000000000000000000000100082059403715SANDRA HELENA VILLAMOR MONTASS          RUA ARGOS N 693,                        GUADALUPE   21660050RIO DE JANEIRO RJUNIAO UMB DOS CULTOS AFRO BRAS    20121810 000071
10231987175000168817800093673    000031361                    000313610000000000000109                     I0231361     20121800000000350003410000017N291018104700000000000102012180000000000000000000000000000000000000000100012948872898LUCILENE BARROS                         RUA DO PIANO N 21,                      CAMPOS ELISI25225218DUQUE DE CAXIASRJUNIAO UMB DOS CULTOS AFRO BRAS    20121810 000072
10231987175000168817800093673    000031359                    000313590000000000000109                     I0231359     20121800000000350003410000017N291018104700000000000102012180000000000000000000000000000000000000000100060407875700KATIA DE AZEVEDO FURTADO                RUA SOUZA PITANGA N 82, FRENTE          THOMAS COELH21381230RIO DE JANEIRO RJUNIAO UMB DOS CULTOS AFRO BRAS    20121810 000073
10231987175000168817800093673    000031358                    000313580000000000000109                     I0231358     20121800000000350003410000017N291018104700000000000102012180000000000000000000000000000000000000000100088677079734MARIA APARECIDA MORAIS DOS SAN          RUA OLAVO GAMAN 0, TRAVESSA F - PROJETADLARGO DO COR23040400RIO DE JANEIRO RJUNIAO UMB DOS CULTOS AFRO BRAS    20121810 000074
10231987175000168817800093673    000031357                    000313570000000000000109                     I0231357     20121800000000350003410000017N291018104700000000000102012180000000000000000000000000000000000000000100067023711791EURIDES DOS SANTOS                      RUA CORONEL ALBERTO DE MELO N 47, CASA 1AREIA BRANCA26112370BELFORD ROXO   RJUNIAO UMB DOS CULTOS AFRO BRAS    20121810 000075
10231987175000168817800093673    000031355                    000313550000000000000109                     I0231355     20121800000000350003410000017N291018104700000000000102012180000000000000000000000000000000000000000100051851229787MARTA DO NASCIMENTO CRISPINO            RUA LEONOR SARAMAGO N 89,               FONSECA     24120340NITEROI        RJUNIAO UMB DOS CULTOS AFRO BRAS    20121810 000076
10231987175000168817800093673    000031350                    000313500000000000000109                     I0231350     20121800000000350003410000017N291018104700000000000102012180000000000000000000000000000000000000000100003987884720SAINT CLAIR MACHADO FERNANDES           RUA JACA N 0, QUADRA 4 LOTE 14          PARQUE ESPER26173510BELFORD ROXO   RJUNIAO UMB DOS CULTOS AFRO BRAS    20121810 000077
10231987175000168817800093673    000031349                    000313490000000000000109                     I0231349     20121800000000350003410000017N291018104700000000000102012180000000000000000000000000000000000000000100003549931786LUCIANE CRISTINA OLIVEIRA DOS           RUA AMANDIU N 334, FRENTE               IRAJA       21371440RIO DE JANEIRO RJUNIAO UMB DOS CULTOS AFRO BRAS    20121810 000078
10231987175000168817800093673    000031347                    000313470000000000000109                     I0231347     20121800000000350003410000017N291018104700000000000102012180000000000000000000000000000000000000000100009959417778CARLOS HENRIQUE LOPES ROSA              RUA: ROSA MULLER N 0, LOTE 3 CD 1 BLOCO VILAR DOS TE25560355SAO JOAO DE MERRJUNIAO UMB DOS CULTOS AFRO BRAS    20121810 000079
10231987175000168817800093673    000031345                    000313450000000000000109                     I0231345     20121800000000380003410000017N291018104700000000000102012180000000000000000000000000000000000000000100096599170749LUCINEA LOPES DA SILVA                  RUA: PONTAL DO SUL N 80,                JARDIM ESPLA26013350NOVA IGUACU    RJUNIAO UMB DOS CULTOS AFRO BRAS    20121810 000080
10231987175000168817800093673    000031342                    000313420000000000000109                     I0231342     20121800000000350003410000017N291018104700000000000102012180000000000000000000000000000000000000000100061523003715MARIA EMILIA RIBEIRO VIEIRA DO          RUA EIMA N 132, CASA 2 FUNDOS           IRAJA       21220370RIO DE JANEIRO RJUNIAO UMB DOS CULTOS AFRO BRAS    20121810 000081
10231987175000168817800093673    000031341                    000313410000000000000109                     I0231341     20121800000000400003410000017N291018104700000000000102012180000000000000000000000000000000000000000100004253363792VIVIANE ALVES DO ROSARIO                AVENIDA DAS AMERICASN 19000, CASA 130-1 RECREIO DOS 22790704RIO DE JANEIRO RJUNIAO UMB DOS CULTOS AFRO BRAS    20121810 000082
10231987175000168817800093673    000031340                    000313400000000000000109                     I0231340     20121800000000350003410000017N291018104700000000000102012180000000000000000000000000000000000000000100000000000000SANDRA REIS DOS SANTOS                  RUA BANGUN 197,                         DOUTOR LAURE25060180DUQUE DE CAXIASRJUNIAO UMB DOS CULTOS AFRO BRAS    20121810 000083
10231987175000168817800093673    000031337                    000313370000000000000109                     I0231337     20121800000000350003410000017N291018104700000000000102012180000000000000000000000000000000000000000100034663240763GUARACI FRANCISCO RIBEIRO               RUA ASTRALN 63,                         ROSA DOS VEN26276070NOVA IGUACU    RJUNIAO UMB DOS CULTOS AFRO BRAS    20121810 000084
10231987175000168817800093673    000031336                    000313360000000000000109                     I0231336     20121800000000350003410000017N291018104700000000000102012180000000000000000000000000000000000000000100005432577704JOAO TEIXEIRA BRAGA NETO                RUA CANDIDO DE OLIVEIRA  N 38,          RIO COMPRIDO20261220RIO DE JANEIRO RJUNIAO UMB DOS CULTOS AFRO BRAS    20121810 000085
10231987175000168817800093673    000031335                    000313350000000000000109                     I0231335     20121800000000350003410000017N291018104700000000000102012180000000000000000000000000000000000000000100075750384772VERA LUCIA BORGES NAZARETH              RUA DA CAPITAL N 430,                   MAUA - SAO F25930000MAGE           RJUNIAO UMB DOS CULTOS AFRO BRAS    20121810 000086
10231987175000168817800093673    000031333                    000313330000000000000109                     I0231333     20121800000000380003410000017N291018104700000000000102012180000000000000000000000000000000000000000100076550893704MARCO ANTONIO DE ARAUJO                 RUA ROSANGELAN 223, PRAIA DO ANIL       OLARIA - MAU25925690MAGE           RJUNIAO UMB DOS CULTOS AFRO BRAS    20121810 000087
10231987175000168817800093673    000031330                    000313300000000000000109                     I0231330     20121800000000350003410000017N291018104700000000000102012180000000000000000000000000000000000000000100011564970787MARIA ELIZA PINHEIRO SERRA              RUA ULEMASN 30,                         POSSE - SANT26020790NOVA IGUACU    RJUNIAO UMB DOS CULTOS AFRO BRAS    20121810 000088
10231987175000168817800093673    000031327                    000313270000000000000109                     I0231327     20121800000000350003410000017N291018104700000000000102012180000000000000000000000000000000000000000100081628811749MAURO JOSE DE AZEVEDO FALCAO            RUA: LEOPOLDO MACHADON 121,             BOA ESPERANC26130680NOVA IGUACU    RJUNIAO UMB DOS CULTOS AFRO BRAS    20121810 000089
10231987175000168817800093673    000031324                    000313240000000000000109                     I0231324     20121800000000350003410000017N291018104700000000000102012180000000000000000000000000000000000000000100025969153753MARIA EUNICE FRUCTUOSO MIGUEL           RUA VIRGEM PEREGRINAN 81,               PIEDADE     21381070RIO DE JANEIRO RJUNIAO UMB DOS CULTOS AFRO BRAS    20121810 000090
10231987175000168817800093673    000031323                    000313230000000000000109                     I0231323     20121800000000350003410000017N291018104700000000000102012180000000000000000000000000000000000000000100065138210700TANIA CRISTINA DOS SANTOS PERE          RUA SOARES TAVARESN 521,                GRAMACHO    25035060DUQUE DE CAXIASRJUNIAO UMB DOS CULTOS AFRO BRAS    20121810 000091
10231987175000168817800093673    000031321                    000313210000000000000109                     I0231321     20121800000000350003410000017N291018104700000000000102012180000000000000000000000000000000000000000100007150949711SEVERINA BENVINDO FERREIRA              ESTRADA DO CALUNDUN 0, LOTE 32 QUADRA 51NOSSA SENHOR25040610DUQUE DE CAXIASRJUNIAO UMB DOS CULTOS AFRO BRAS    20121810 000092
10231987175000168817800093673    000031317                    000313170000000000000109                     I0231317     20121800000000350003410000017N291018104700000000000102012180000000000000000000000000000000000000000100054590604787VANDA PAIVA                             RUA LUIZ JACINTON 0, LOTE 3             EDEN        25535161SAO JOAO DE MERRJUNIAO UMB DOS CULTOS AFRO BRAS    20121810 000093
10231987175000168817800093673    000031314                    000313140000000000000109                     I0231314     20121800000000350003410000017N291018104700000000000102012180000000000000000000000000000000000000000100059099747772EULINA LUCIA RODRIGUES DE SOUZ          RUA XAVIER DOS PASSAROS N 18, FUNDOS    PIEDADE     20740330RIO DE JANEIRO RJUNIAO UMB DOS CULTOS AFRO BRAS    20121810 000094
10231987175000168817800093673    000031311                    000313110000000000000109                     I0231311     20121800000000350003410000017N291018104700000000000102012180000000000000000000000000000000000000000100009116311787ETELVINA SOUZA DUARTE                   RUA CAIABU N 137,  APTO 403             IRAJA       21361230RIO DE JANEIRO RJUNIAO UMB DOS CULTOS AFRO BRAS    20121810 000095
10231987175000168817800093673    000031309                    000313090000000000000109                     I0231309     20121800000000350003410000017N291018104700000000000102012180000000000000000000000000000000000000000100047401680734RAQUEL RODRIGUES SOBRAL DANTAS          RUA CAPITAO COUTO MENEZES N 110,        MADUREIRA   21310200RIO DE JANEIRO RJUNIAO UMB DOS CULTOS AFRO BRAS    20121810 000096
10231987175000168817800093673    000031307                    000313070000000000000109                     I0231307     20121800000000350003410000017N291018104700000000000102012180000000000000000000000000000000000000000100003737351708TANIA PAULA DOS SANTOS                  RUA GENERAL SALGADO DOS SANTOSN 177,    GUADALUPE   21660360RIO DE JANEIRO RJUNIAO UMB DOS CULTOS AFRO BRAS    20121810 000097
10231987175000168817800093673    000031306                    000313060000000000000109                     I0231306     20121800000000350003410000017N291018104700000000000102012180000000000000000000000000000000000000000100009839961721MARIO DE OLIVEIRA CARLOS                RUA BRAUNAN 0,  LOTE 7 QUADRA 3         JARDIM PRIMA25000000DUQUE DE CAXIASRJUNIAO UMB DOS CULTOS AFRO BRAS    20121810 000098
10231987175000168817800093673    000031305                    000313050000000000000109                     I0231305     20121800000000350003410000017N291018104700000000000102012180000000000000000000000000000000000000000100001057873705ADEMIR ANDRADE CUNHA                    RUA PACHECO DA ROCHAN 636,              BENTO RIBEIR21555092RIO DE JANEIRO RJUNIAO UMB DOS CULTOS AFRO BRAS    20121810 000099
10231987175000168817800093673    000031304                    000313040000000000000109                     I0231304     20121800000000350003410000017N291018104700000000000102012180000000000000000000000000000000000000000100039341887704NORMA AYRES DA SILVA                    RUA VALENCA N 245,                      BAR DOS CAVA25015590DUQUE DE CAXIASRJUNIAO UMB DOS CULTOS AFRO BRAS    20121810 000100
10231987175000168817800093673    000031303                    000313030000000000000109                     I0231303     20121800000000350003410000017N291018104700000000000102012180000000000000000000000000000000000000000100011208480758MARIA ANTONIA KIFFER CORREA             AVENIDA MARECHAL HERMES N 1060,         VILA SAO LUI25065115DUQUE DE CAXIASRJUNIAO UMB DOS CULTOS AFRO BRAS    20121810 000101
10231987175000168817800093673    000031301                    000313010000000000000109                     I0231301     20121800000000350003410000017N291018104700000000000102012180000000000000000000000000000000000000000100088469212753NEIDE CARVALHO D ANGELO                 RUA GENERAL TRAUMATURGO N 0, LOTE 17 QUAVILA ROSARIO25040010DUQUE DE CAXIASRJUNIAO UMB DOS CULTOS AFRO BRAS    20121810 000102
10231987175000168817800093673    000031299                    000312990000000000000109                     I0231299     20121800000000350003410000017N291018104700000000000102012180000000000000000000000000000000000000000100000000000000IVAN SOUZA DIAS                         RUA CARICON 0, LOTE 27 QUADRA 15 A      JARDIM METRO25575050SAO JOAO DE MERRJUNIAO UMB DOS CULTOS AFRO BRAS    20121810 000103
10231987175000168817800093673    000031298                    000312980000000000000109                     I0231298     20121800000000350003410000017N291018104700000000000102012180000000000000000000000000000000000000000100000000000000NEUZA MARIA MACHADO DA SILVA            RUA AUGUSTO SERGIO BOTELHON 0, QUADRA 67BARRO BRANCO25267124DUQUE DE CAXIASRJUNIAO UMB DOS CULTOS AFRO BRAS    20121810 000104
10231987175000168817800093673    000031296                    000312960000000000000109                     I0231296     20121800000000400003410000017N291018104700000000000102012180000000000000000000000000000000000000000100070030928753VIRGILANE COSTA DE SOUZA                RUA GAMO N 611,                         GUARANI     25575380SAO JOAO DE MERRJUNIAO UMB DOS CULTOS AFRO BRAS    20121810 000105
10231987175000168817800093673    000031293                    000312930000000000000109                     I0231293     20121800000000350003410000017N291018104700000000000102012180000000000000000000000000000000000000000100059414731768LUCILA JESUS DE OLIVEIRA                ESTRADA CIRCULARN 215,  CASA 44 LG 2    PQ SAO VICEN26172160BELFORD ROXO   RJUNIAO UMB DOS CULTOS AFRO BRAS    20121810 000106
10231987175000168817800093673    000031289                    000312890000000000000109                     I0231289     20121800000000350003410000017N291018104700000000000102012180000000000000000000000000000000000000000100000080766773SONIA CRISTINA DA SILVA ALVES           RUA: AMARO AGUIAR BRANDAON 72,          BECO MAUA - 26193600BELFORD ROXO   RJUNIAO UMB DOS CULTOS AFRO BRAS    20121810 000107
10231987175000168817800093673    000031287                    000312870000000000000109                     I0231287     20121800000000350003410000017N291018104700000000000102012180000000000000000000000000000000000000000100002912019702JONER BORGES BARCELOS                   RUA OITO N 0, QUADRA 30 LOTE 8          NOVA CAMPINA25000000DUQUE DE CAXIASRJUNIAO UMB DOS CULTOS AFRO BRAS    20121810 000108
10231987175000168817800093673    000031285                    000312850000000000000109                     I0231285     20121800000000350003410000017N291018104700000000000102012180000000000000000000000000000000000000000100001637090765DEBORA VENTURA CESAR                    RUA DOS CONGREGADOS N 105, CASA 2       HELIOPOLIS  26123020RIO DE JANEIRO RJUNIAO UMB DOS CULTOS AFRO BRAS    20121810 000109
10231987175000168817800093673    000031283                    000312830000000000000109                     I0231283     20121800000000350003410000017N291018104700000000000102012180000000000000000000000000000000000000000100078815428704LUZINETE PINHO DE SA                    ESTRADA MANOEL FERREIRA CAMPARN 1311, (APOSSE       26021060NOVA IGUACU    RJUNIAO UMB DOS CULTOS AFRO BRAS    20121810 000110
10231987175000168817800093673    000031280                    000312800000000000000109                     I0231280     20121800000000350003410000017N291018104700000000000102012180000000000000000000000000000000000000000100004418873767SANDRA REGINA DA SILVA                  AVENIDA: PERNAMBUCANAN 2282, A          COELHO DA RO25555080SAO JOAO DE MERRJUNIAO UMB DOS CULTOS AFRO BRAS    20121810 000111
10231987175000168817800093673    000031275                    000312750000000000000109                     I0231275     20121800000000350003410000017N291018104700000000000102012180000000000000000000000000000000000000000100001925108783HELENA MOREIRA PESSOA                   RUA CAPIVARA N 0, LOTE 639 QUADRA 48    SANTA CRUZ D25260180DUQUE DE CAXIASRJUNIAO UMB DOS CULTOS AFRO BRAS    20121810 000112
10231987175000168817800093673    000031273                    000312730000000000000109                     I0231273     20121800000000350003410000017N291018104700000000000102012180000000000000000000000000000000000000000100003756140792LUIZ HENRIQUE DINIZ SIMOES              RUA BUCARESTE N 833,                    VIGARIO GERA21241250RIO DE JANEIRO RJUNIAO UMB DOS CULTOS AFRO BRAS    20121810 000113
10231987175000168817800093673    000031270                    000312700000000000000109                     I0231270     20121800000000350003410000017N291018104700000000000102012180000000000000000000000000000000000000000100007782014735TEREZINHA MARIA DOS SANTOS FER          RUA UM N 0, LOTE 14 QUADRA 83           PARQUE PAULI25525260DUQUE DE CAXIASRJUNIAO UMB DOS CULTOS AFRO BRAS    20121810 000114
10231987175000168817800093673    000031269                    000312690000000000000109                     I0231269     20121800000000350003410000017N291018104700000000000102012180000000000000000000000000000000000000000100018780962572INALVA LAZARO DRUMOND                   AVENIDA MARECHAL RONDONN 2117,          RIACHUELO   20950071RIO DE JANEIRO RJUNIAO UMB DOS CULTOS AFRO BRAS    20121810 000115
10231987175000168817800093673    000031268                    000312680000000000000109                     I0231268     20121800000000350003410000017N291018104700000000000102012180000000000000000000000000000000000000000100001783778806MARIA LUIZA FERREIRA GODINHO C          ESTRADA DO BOIUNA N 2620,               TAQUARA - JA22723018RIO DE JANEIRO RJUNIAO UMB DOS CULTOS AFRO BRAS    20121810 000116
10231987175000168817800093673    000031267                    000312670000000000000109                     I0231267     20121800000000350003410000017N291018104700000000000102012180000000000000000000000000000000000000000100000911446710NELI MONTEIRO DE CASTRO                 AVENIDA PASSOS N 101, SALA 403          CENTRO      20051040RIO DE JANEIRO RJUNIAO UMB DOS CULTOS AFRO BRAS    20121810 000117
10231987175000168817800093673    000031264                    000312640000000000000109                     I0231264     20121800000000350003410000017N291018104700000000000102012180000000000000000000000000000000000000000100005137259705CRISTINA DE OLIVEIRA DA SILVA           AVENIDA CAMPO MOURAO N 0, LOTE 18 QUADRAJARDIM MARAV23031080GUARATIBA      RJUNIAO UMB DOS CULTOS AFRO BRAS    20121810 000118
10231987175000168817800093673    000031262                    000312620000000000000109                     I0231262     20121800000000400003410000017N291018104700000000000102012180000000000000000000000000000000000000000100097225959700MARCOS ANTONIO FERREIRA SOARES          RUA PEDRO GOMES N 101, FRENTE           REALENGO    21715050RIO DE JANEIRO RJUNIAO UMB DOS CULTOS AFRO BRAS    20121810 000119
10231987175000168817800093673    000031258                    000312580000000000000109                     I0231258     20121800000000350003410000017N291018104700000000000102012180000000000000000000000000000000000000000100079469825772VICTOR FRANCISCO PEREIRA NETO           RUA JAMARI N 0, LOTE 16 QUADRA 93       JARDIM OLAVO25036290DUQUE DE CAXIASRJUNIAO UMB DOS CULTOS AFRO BRAS    20121810 000120
10231987175000168817800093673    000031256                    000312560000000000000109                     I0231256     20121800000000350003410000017N291018104700000000000102012180000000000000000000000000000000000000000100054318335704JANE DA COSTA MATTOS                    RUA AMANDIUN 271, CASA 1                IRAJA       21371440RIO DE JANEIRO RJUNIAO UMB DOS CULTOS AFRO BRAS    20121810 000121
10231987175000168817800093673    000031255                    000312550000000000000109                     I0231255     20121800000000350003410000017N291018104700000000000102012180000000000000000000000000000000000000000100003248430702CRISTIANA ROSA DE OLIVEIRA              ESTRADA DA PORTEIRA N 0, LOTE 22 QUADRA JARDIM MAR  23821140ITAGUAI        RJUNIAO UMB DOS CULTOS AFRO BRAS    20121810 000122
10231987175000168817800093673    000031253                    000312530000000000000109                     I0231253     20121800000000350003410000017N291018104700000000000102012180000000000000000000000000000000000000000100007474273721CLARINDO DE MEDEIROS                    RUA SAO MARCOSN 145, A                  VILAR DOS TE25561220SAO JOAO DE MERRJUNIAO UMB DOS CULTOS AFRO BRAS    20121810 000123
10231987175000168817800093673    000031252                    000312520000000000000109                     I0231252     20121800000000350003410000017N291018104700000000000102012180000000000000000000000000000000000000000100003386212700ANDRE LUIZ DINIZ CARDOSO                RUA: CORDOVIL N 669, LOTE 2             PARADA DE LU21250450RIO DE JANEIRO RJUNIAO UMB DOS CULTOS AFRO BRAS    20121810 000124
10231987175000168817800093673    000031250                    000312500000000000000109                     I0231250     20121800000000350003410000017N291018104700000000000102012180000000000000000000000000000000000000000100022023461715SAULO EMMANUEL FERREIRA GUEDES          AVENIDA VICENTE DE CARVALHON 1431, BLOCOVICENTE DE C21210003RIO DE JANEIRO RJUNIAO UMB DOS CULTOS AFRO BRAS    20121810 000125
10231987175000168817800093673    000031249                    000312490000000000000109                     I0231249     20121800000000350003410000017N291018104700000000000102012180000000000000000000000000000000000000000100041216989753CARMEM VIANA DE JESUS                   RUA DAS TULIPAS N 0, LOTE 4 A QUADRA 5  CIDADE DOS M25235040DUQUE DE CAXIASRJUNIAO UMB DOS CULTOS AFRO BRAS    20121810 000126
10231987175000168817800093673    000031247                    000312470000000000000109                     I0231247     20121800000000350003410000017N291018104700000000000102012180000000000000000000000000000000000000000100007446571721ANDREA GUEDES PINHEIRO GOMES            RUA ADOLFO BERGAMINI N 155, CASA 1      CENTRO      26341490NILOPOLIS      RJUNIAO UMB DOS CULTOS AFRO BRAS    20121810 000127
10231987175000168817800093673    000031242                    000312420000000000000109                     I0231242     20121800000000350003410000017N291018104700000000000102012180000000000000000000000000000000000000000100000939896796SHIRLEI ARAUJO DO CARMO RODRIG          RUA PATIO DA ESTACAO N 74,              COSTA BARROS21532170RIO DE JANEIRO RJUNIAO UMB DOS CULTOS AFRO BRAS    20121810 000128
10231987175000168817800093673    000031239                    000312390000000000000109                     I0231239     20121800000000350003410000017N291018104700000000000102012180000000000000000000000000000000000000000100059195711791ELOISA HELENA PEREIRA NUNES             RUA BOAIACA N 330,                      BENTO RIBEIR21331600RIO DE JANEIRO RJUNIAO UMB DOS CULTOS AFRO BRAS    20121810 000129
10231987175000168817800093673    000031236                    000312360000000000000109                     I0231236     20121800000000350003410000017N291018104700000000000102012180000000000000000000000000000000000000000100000675108764MARIA CRISTINA SANTOS GENEROSO          RUA APODI N 0, LOTE 4 QUADRA 47         PARQUE  SUEC26187300BELFORD ROXO   RJUNIAO UMB DOS CULTOS AFRO BRAS    20121810 000130
10231987175000168817800093673    000031235                    000312350000000000000109                     I0231235     20121800000000350003410000017N291018104700000000000102012180000000000000000000000000000000000000000100004473669718ELIANA ABILIO PASTOR                    RUA: GASTAO REISN 291, A                PARQUE PAULI25056110DUQUE DE CAXIASRJUNIAO UMB DOS CULTOS AFRO BRAS    20121810 000131
10231987175000168817800093673    000031233                    000312330000000000000109                     I0231233     20121800000000350003410000017N291018104700000000000102012180000000000000000000000000000000000000000100063538369704VERA LUCIA SOARES CONCEICAO DE          RUA CARALUNA N 35, LOTE 11 QUADRA 1     GUARATIBA - 23032070RIO DE JANEIRO RJUNIAO UMB DOS CULTOS AFRO BRAS    20121810 000132
10231987175000168817800093673    000031231                    000312310000000000000109                     I0231231     20121800000000350003410000017N291018104700000000000102012180000000000000000000000000000000000000000100019302231704DARLI ROCHA DO PRADO FERREIRA           RUA MONJOLO N 54, CASA                  ILHA DO GOVE21930376RIO DE JANEIRO RJUNIAO UMB DOS CULTOS AFRO BRAS    20121810 000133
10231987175000168817800093673    000031226                    000312260000000000000109                     I0231226     20121800000000350003410000017N291018104700000000000102012180000000000000000000000000000000000000000100003408195706MONICA VALERIA COSTA BARAUNA            AVENIDA CARNAUBEIRAN 0, 415             GUARATIBA   23032080RIO DE JANEIRO RJUNIAO UMB DOS CULTOS AFRO BRAS    20121810 000134
10231987175000168817800093673    000031224                    000312240000000000000109                     I0231224     20121800000000350003410000017N291018104700000000000102012180000000000000000000000000000000000000000100003667672756NIZIA DE OLIVEIRA GLORIA                ESTRADA DA PACIENCIAN 625,              VILA LEOPOLD25030480DUQUE DE CAXIASRJUNIAO UMB DOS CULTOS AFRO BRAS    20121810 000135
10231987175000168817800093673    000031222                    000312220000000000000109                     I0231222     20121800000000350003410000017N291018104700000000000102012180000000000000000000000000000000000000000100053699394700UBIRAJARA PEREIRA FRANCO                RUA JOSE SOMBRAN 228, FUNDOS            IRAJA       21230240RIO DE JANEIRO RJUNIAO UMB DOS CULTOS AFRO BRAS    20121810 000136
10231987175000168817800093673    000031221                    000312210000000000000109                     I0231221     20121800000000350003410000017N291018104700000000000102012180000000000000000000000000000000000000000100030011370700HELENA CAVALCANTE MARQUES               RUA CAPITAO REZENDEN 408, LOJA L        CACHAMBI    20780190RIO DE JANEIRO RJUNIAO UMB DOS CULTOS AFRO BRAS    20121810 000137
10231987175000168817800093673    000031220                    000312200000000000000109                     I0231220     20121800000000350003410000017N291018104700000000000102012180000000000000000000000000000000000000000100093431619720GUILHERME LUIZ BASILIO                  RUA ARTIDORO DA COSTAN 106, CASA 8      VILA ISABEL 20551140RIO DE JANEIRO RJUNIAO UMB DOS CULTOS AFRO BRAS    20121810 000138
10231987175000168817800093673    000031219                    000312190000000000000109                     I0231219     20121800000000350003410000017N291018104700000000000102012180000000000000000000000000000000000000000100090021177791MARIA CRISTINA CHAGAS DE SOUZA          RUA DA GLORIA N 4064,                   VILA LEPOLDI25060240DUQUE DE CAXIASRJUNIAO UMB DOS CULTOS AFRO BRAS    20121810 000139
10231987175000168817800093673    000031216                    000312160000000000000109                     I0231216     20121800000000350003410000017N291018104700000000000102012180000000000000000000000000000000000000000100028031342768ODILA RIBEIRO MARTINS                   RUA ITAPORE N 65, VILA SAO JOAO         VILAR DOS TE25560490SAO JOAO DE MERRJUNIAO UMB DOS CULTOS AFRO BRAS    20121810 000140
10231987175000168817800093673    000031215                    000312150000000000000109                     I0231215     20121800000000350003410000017N291018104700000000000102012180000000000000000000000000000000000000000100075037017734ORLY PEREIRA DE AZEVEDO                 RUA DEPUTADO SA REGO N 400,             VILA SAO LUI25225660DUQUE DE CAXIASRJUNIAO UMB DOS CULTOS AFRO BRAS    20121810 000141
10231987175000168817800093673    000031213                    000312130000000000000109                     I0231213     20121800000000350003410000017N291018104700000000000102012180000000000000000000000000000000000000000100000000000000CILEIDE REGLE RAPOUZO                   RUA DOS ANDRADA N 0, LOTE 12 QUADRA 57  SARAPUI     25050520DUQUE DE CAXIASRJUNIAO UMB DOS CULTOS AFRO BRAS    20121810 000142
10231987175000168817800093673    000031212                    000312120000000000000109                     I0231212     20121800000000350003410000017N291018104700000000000102012180000000000000000000000000000000000000000100000000000356SANDRA BAPTISTA DA SILVA                RUA CONGONHAS DO NORTE N 635, LOTE 23 QUJARDIM NOVA 23047560RIO DE JANEIRO RJUNIAO UMB DOS CULTOS AFRO BRAS    20121810 000143
10231987175000168817800093673    000031211                    000312110000000000000109                     I0231211     20121800000000350003410000017N291018104700000000000102012180000000000000000000000000000000000000000100000000000000ELIZABETH GANTERT DA ROCHA GUI          RUA ADRIANAN 204,                       VAL VERDE - 26351140NOVA IGUACU    RJUNIAO UMB DOS CULTOS AFRO BRAS    20121810 000144
10231987175000168817800093673    000031210                    000312100000000000000109                     I0231210     20121800000000350003410000017N291018104700000000000102012180000000000000000000000000000000000000000100000000000354MARIA DAS DORES DA SILVA                RUA: INACIO ACIOLI N 375,               PENHA       21210260RIO DE JANEIRO RJUNIAO UMB DOS CULTOS AFRO BRAS    20121810 000145
10231987175000168817800093673    000031207                    000312070000000000000109                     I0231207     20121800000000350003410000017N291018104700000000000102012180000000000000000000000000000000000000000100010078178797ALINE CORREA SOUZA                      AVENIDA PILAR DO SUL N 0, LOTE 42 QUADRAGUARATIBA   23033160RIO DE JANEIRO RJUNIAO UMB DOS CULTOS AFRO BRAS    20121810 000146
10231987175000168817800093673    000031206                    000312060000000000000109                     I0231206     20121800000000400003410000017N291018104700000000000102012180000000000000000000000000000000000000000100023596937787NOEMIA ARMINDA DE SEIXAS                RUA FRANCISCA ZIEZEN 125,               PILARES     20750040RIO DE JANEIRO RJUNIAO UMB DOS CULTOS AFRO BRAS    20121810 000147
10231987175000168817800093673    000031204                    000312040000000000000109                     I0231204     20121800000000350003410000017N291018104700000000000102012180000000000000000000000000000000000000000100092650716720ANDRE LUIS ALMEIDA SOUZA                RUA PTOLOMEUN 0, LOTE 30 QUADRA 23      JARDIM GLAUC26195195BELFORD ROXO   RJUNIAO UMB DOS CULTOS AFRO BRAS    20121810 000148
10231987175000168817800093673    000031203                    000312030000000000000109                     I0231203     20121800000000350003410000017N291018104700000000000102012180000000000000000000000000000000000000000100044108680715MARIA DA PENHA PEREIRA DOS SAN          RUA LUCIO TAVARESN 685,                 CENTRO      26530060NILOPOLIS      RJUNIAO UMB DOS CULTOS AFRO BRAS    20121810 000149
10231987175000168817800093673    000031199                    000311990000000000000109                     I0231199     20121800000000360003410000017N291018104700000000000102012180000000000000000000000000000000000000000100083441271734NAELSON MAGALHAES DE AVELLAR            RUA ONZEN 0,  LOTE 1 CASA 1             GUANDU I    23560778SANTA CRUZ     RJUNIAO UMB DOS CULTOS AFRO BRAS    20121810 000150
10231987175000168817800093673    000031194                    000311940000000000000109                     I0231194     20121800000000350003410000017N291018104700000000000102012180000000000000000000000000000000000000000100060052830730PAULO CESAR BARRETO ALVES               RUA ANGELO DOS REIS N 207, FUNDOS       TIJUCA      20531010RIO DE JANEIRO RJUNIAO UMB DOS CULTOS AFRO BRAS    20121810 000151
10231987175000168817800093673    000031193                    000311930000000000000109                     I0231193     20121800000000350003410000017N291018104700000000000102012180000000000000000000000000000000000000000100000615134742CONCEICAO DE SOUZA CAPITANO             RUA MECAN 103,                          SAO BENEDITO26022540NOVA IGUACU    RJUNIAO UMB DOS CULTOS AFRO BRAS    20121810 000152
10231987175000168817800093673    000031188                    000311880000000000000109                     I0231188     20121800000000350003410000017N291018104700000000000102012180000000000000000000000000000000000000000100001192135750CREUZA MARIA DA CONCEICAO               RUA BENEDITO LACERDA N 320,             VILA CORCUND23071340CAMPO GRANDE   RJUNIAO UMB DOS CULTOS AFRO BRAS    20121810 000153
10231987175000168817800093673    000031184                    000311840000000000000109                     I0231184     20121800000000350003410000017N291018104700000000000102012180000000000000000000000000000000000000000100000000000000DENIRCE SOUZA ANDRE                     AVENIDA PASTOR MARTIN LUTHER KING JUNIORTOMAS COELHO20761121RIO DE JANEIRO RJUNIAO UMB DOS CULTOS AFRO BRAS    20121810 000154
10231987175000168817800093673    000031182                    000311820000000000000109                     I0231182     20121800000000350003410000017N291018104700000000000102012180000000000000000000000000000000000000000100000000000340VERA LUCIA BARBOSA DA CUNHA             RUA PORTO RICON 232,                    VIGARIO GERA21241200RIO DE JANEIRO RJUNIAO UMB DOS CULTOS AFRO BRAS    20121810 000155
10231987175000168817800093673    000031179                    000311790000000000000109                     I0231179     20121800000000350003410000017N291018104700000000000102012180000000000000000000000000000000000000000100000000000000JUCELIO MONTINHO MAIA                   RUA OLIMPIO DA MOTA N 157,              IRAJA       21235510RIO DE JANEIRO RJUNIAO UMB DOS CULTOS AFRO BRAS    20121810 000156
10231987175000168817800093673    000031177                    000311770000000000000109                     I0231177     20121800000000350003410000017N291018104700000000000102012180000000000000000000000000000000000000000100079192653715TERESINHA DE JESUS DOS SANTOS           RUA OLIMPIO DA MOTA N 178,              IRAJA       21235510RIO DE JANEIRO RJUNIAO UMB DOS CULTOS AFRO BRAS    20121810 000157
10231987175000168817800093673    000031176                    000311760000000000000109                     I0231176     20121800000000350003410000017N291018104700000000000102012180000000000000000000000000000000000000000100022175534880LUCIANO THOMAZ DE ROSA                  RUA FRANCISCO JOSE DA SILVA  N 25,      SUZANO -  JA08695060SAO PAULO      SPUNIAO UMB DOS CULTOS AFRO BRAS    20121810 000158
10231987175000168817800093673    000031170                    000311700000000000000109                     I0231170     20121800000000350003410000017N291018104700000000000102012180000000000000000000000000000000000000000100033413525700ALBERICE SILVA OLIVEIRA                 RUA DIAS DA CRUZ N 170, AP 201          MEIER       20720012RIO DE JANEIRO RJUNIAO UMB DOS CULTOS AFRO BRAS    20121810 000159
10231987175000168817800093673    000031169                    000311690000000000000109                     I0231169     20121800000000350003410000017N291018104700000000000102012180000000000000000000000000000000000000000100044608268791FAUSTO DOS SANTOS REZENDE               RUA CARUNA N 397,                       PARADA DE LU21010070RIO DE JANEIRO RJUNIAO UMB DOS CULTOS AFRO BRAS    20121810 000160
10231987175000168817800093673    000031166                    000311660000000000000109                     I0231166     20121800000000350003410000017N291018104700000000000102012180000000000000000000000000000000000000000100009443831732RAFAEL LUIZ SOARES FERREIRA             RUA COMANDANTE COELHON 647,             CORDOVIL    21250510RIO DE JANEIRO RJUNIAO UMB DOS CULTOS AFRO BRAS    20121810 000161
10231987175000168817800093673    000031165                    000311650000000000000109                     I0231165     20121800000000350003410000017N291018104700000000000102012180000000000000000000000000000000000000000100043917208768HOSANA FERREIRA DE MOURA                RUA DOMINGOS FERREIRA N 125, AP 712     COPACABANA  22020011RIO DE JANEIRO RJUNIAO UMB DOS CULTOS AFRO BRAS    20121810 000162
10231987175000168817800093673    000031163                    000311630000000000000109                     I0231163     20121800000000400003410000017N291018104700000000000102012180000000000000000000000000000000000000000100088676889791JANE LUCIA LESSA SILVA                  RUA OLIVEIRA JUNQUEIRAN 36,             BENTO RIBEIR21331170RIO DE JANEIRO RJUNIAO UMB DOS CULTOS AFRO BRAS    20121810 000163
10231987175000168817800093673    000031161                    000311610000000000000109                     I0231161     20121800000000350003410000017N291018104700000000000102012180000000000000000000000000000000000000000100070421609753DERIVALDA DE JESUS MOREIRA              AVENIDA OSWALDO CRUZN 55, APARTAMENTO 10CENTRO      26530100NILOPOLIS      RJUNIAO UMB DOS CULTOS AFRO BRAS    20121810 000164
10231987175000168817800093673    000031160                    000311600000000000000109                     I0231160     20121800000000350003410000017N291018104700000000000102012180000000000000000000000000000000000000000100007544975770WILLIAMS COSTA SOARES                   RUA LEILA N 70, MARCO POLO II           COMENDADOR S26261150NOVA IGUACU    RJUNIAO UMB DOS CULTOS AFRO BRAS    20121810 000165
10231987175000168817800093673    000031158                    000311580000000000000109                     I0231158     20121800000000350003410000017N291018104700000000000102012180000000000000000000000000000000000000000100003666096700MARIA DOS SANTOS MACHADO                RUA JOAO RAIMUNDON 0,  QUADRA 3 LOTE 13 VILA SANTO A25041400DUQUE DE CAXIASRJUNIAO UMB DOS CULTOS AFRO BRAS    20121810 000166
10231987175000168817800093673    000031156                    000311560000000000000109                     I0231156     20121800000000350003410000017N291018104700000000000102012180000000000000000000000000000000000000000100071741798787JAILTON DA SILVA VIEIRA                 RUA: DA GAVEA N 3911, CASA 2            VILA LEOPOLD25060300DUQUE DE CAXIASRJUNIAO UMB DOS CULTOS AFRO BRAS    20121810 000167
10231987175000168817800093673    000031155                    000311550000000000000109                     I0231155     20121800000000350003410000017N291018104700000000000102012180000000000000000000000000000000000000000100069876207768JUREMA DIONISIO RODRIGUES               RUA CARLOS OLIMPIO DE MELLO N 59, CASA 1PACIENCIA   23585160RIO DE JANEIRO RJUNIAO UMB DOS CULTOS AFRO BRAS    20121810 000168
10231987175000168817800093673    000031154                    000311540000000000000109                     I0231154     20121800000000350003410000017N291018104700000000000102012180000000000000000000000000000000000000000100001859792707REGIS GOMES DE OLIVEIRA                 AVENIDA DO CANALN 54, COND VALE FELIZ   ALBUQUERQUE 25976560TERESOPOLIS    RJUNIAO UMB DOS CULTOS AFRO BRAS    20121810 000169
10231987175000168817800093673    000031152                    000311520000000000000109                     I0231152     20121800000000350003410000017N291018104700000000000102012180000000000000000000000000000000000000000100001149312750CLAUDIO SERGIO DE CASTRO                RUA LAJAO N 279,                        CENTRO      35240000CONSELHEIRO PENMGUNIAO UMB DOS CULTOS AFRO BRAS    20121810 000170
10231987175000168817800093673    000031149                    000311490000000000000109                     I0231149     20121800000000350003410000017N291018104700000000000102012180000000000000000000000000000000000000000100001037627792FRANCE BATISTA CRESPO                   RUA CAPITAO MACHADON 604, CASA 4        PRACA SECA  20740230RIO DE JANEIRO RJUNIAO UMB DOS CULTOS AFRO BRAS    20121810 000171
10231987175000168817800093673    000031146                    000311460000000000000109                     I0231146     20121800000000350003410000017N291018104700000000000102012180000000000000000000000000000000000000000100000000934798CELSO LINS ROSA (OGAN)                  RUA LAGEADON 70,                        COLEGIO     21540680RIO DE JANEIRO RJUNIAO UMB DOS CULTOS AFRO BRAS    20121810 000172
10231987175000168817800093673    000031141                    000311410000000000000109                     I0231141     20121800000000350003410000017N291018104700000000000102012180000000000000000000000000000000000000000100003200716851CYNTHIA RITA HERTEL                     AVENIDA VINTE DE DOIS DE MAION 6270, LOJCENTRO      24800065ITABORAI       RJUNIAO UMB DOS CULTOS AFRO BRAS    20121810 000173
10231987175000168817800093673    000031136                    000311360000000000000109                     I0231136     20121800000000350003410000017N291018104700000000000102012180000000000000000000000000000000000000000100005727808774RITA BORGES MOREIRA                     RUA CIRILO DA SILVEIRA N 80, RUA J LOTE VILA VALQUEI21330735RIO DE JANEIRO RJUNIAO UMB DOS CULTOS AFRO BRAS    20121810 000174
10231987175000168817800093673    000031131                    000311310000000000000109                     I0231131     20121800000000350003410000017N291018104700000000000102012180000000000000000000000000000000000000000100009611659792ALUIZIO RODRIGUES RIBEIRO               RUA GARCIA PIRESN 82, CASA 3            QUINTINO    21311300RIO DE JANEIRO RJUNIAO UMB DOS CULTOS AFRO BRAS    20121810 000175
10231987175000168817800093673    000031130                    000311300000000000000109                     I0231130     20121800000000350003410000017N291018104700000000000102012180000000000000000000000000000000000000000100058924477749MARIA DAS GRACAS AZEVEDO RIBEI          RUA VICENTE LIMA N 0, LOTE 17 QUADRA E  VILAR DOS TE25560240SAO JOAO DE MERRJUNIAO UMB DOS CULTOS AFRO BRAS    20121810 000176
10231987175000168817800093673    000031128                    000311280000000000000109                     I0231128     20121800000000350003410000017N291018104700000000000102012180000000000000000000000000000000000000000100081667795791RENATO JOSE DE ARAUJO VAZ CURA          RUA CRISTOVAO COLOMBON 346,             MEIER       20780300RIO DE JANEIRO RJUNIAO UMB DOS CULTOS AFRO BRAS    20121810 000177
10231987175000168817800093673    000031124                    000311240000000000000109                     I0231124     20121800000000400003410000017N291018104700000000000102012180000000000000000000000000000000000000000100062822900744FATIMA LUCRECIA DE CARVALHO CA          ESTRADA RIO DO PAU N 1195, GERALDO DA COANCHIETA    21645520RIO DE JANEIRO RJUNIAO UMB DOS CULTOS AFRO BRAS    20121810 000178
10231987175000168817800093673    000031118                    000311180000000000000109                     I0231118     20121800000000350003410000017N291018104700000000000102012180000000000000000000000000000000000000000100003125944708ROGERIO GOMES DA SILVA                  RUA ALMIRANTE FIGUEIREDON 118, APT 5 NºFREGUESIA   21911150RIO DE JANEIRO RJUNIAO UMB DOS CULTOS AFRO BRAS    20121810 000179
10231987175000168817800093673    000031115                    000311150000000000000109                     I0231115     20121800000000350003410000017N291018104700000000000102012180000000000000000000000000000000000000000100002541954743DENISE DIAS DE OLIVEIRA                 RUA OURO BRANCON 0, LOTE 7 QUADRA 32    OLAVO BILAC 25035530DUQUE DE CAXIASRJUNIAO UMB DOS CULTOS AFRO BRAS    20121810 000180
10231987175000168817800093673    000031114                    000311140000000000000109                     I0231114     20121800000000400003410000017N291018104700000000000102012180000000000000000000000000000000000000000100004252372739BARBARA CRISTINA BATISTA DOS S          RUA JAVAN 136, ESTRADA RIO SAO PAULO KM BOM JESUS   26352090NOVA IGUACU    RJUNIAO UMB DOS CULTOS AFRO BRAS    20121810 000181
10231987175000168817800093673    000031108                    000311080000000000000109                     I0231108     20121800000000350003410000017N291018104700000000000102012180000000000000000000000000000000000000000100000000000000MARIA FERNANDA NUNES FORTUNATO          RUA RICARDO CAMPELON 123, CASA 2        CAMARAO     24436790SAO GONCALO    RJUNIAO UMB DOS CULTOS AFRO BRAS    20121810 000182
10231987175000168817800093673    000031105                    000311050000000000000109                     I0231105     20121800000000350003410000017N291018104700000000000102012180000000000000000000000000000000000000000100088407721700CELSO DE OLIVEIRA ALBUQUERQUE           RUA ANHANGUERA N 0,  LOTE 50 QUADRA 11  SAO BERNARDO26160660BELFORD ROXO   RJUNIAO UMB DOS CULTOS AFRO BRAS    20121810 000183
10231987175000168817800093673    000031103                    000311030000000000000109                     I0231103     20121800000000350003410000017N291018104700000000000102012180000000000000000000000000000000000000000100001559752777CLAUDIA DA SILVA FERREIRA ANTO          RUA SAO JOAO N 89,                      COSMOS      23060720RIO DE JANEIRO RJUNIAO UMB DOS CULTOS AFRO BRAS    20121810 000184
10231987175000168817800093673    000031099                    000310990000000000000109                     I0231099     20121800000000350003410000017N291018104700000000000102012180000000000000000000000000000000000000000100052421422787ACIOLY DUARTE DIAS                      RUA DOUTOR WALMIR N 910,                ANDRADE ARAU26012840NOVA IGUACU    RJUNIAO UMB DOS CULTOS AFRO BRAS    20121810 000185
10231987175000168817800093673    000031098                    000310980000000000000109                     I0231098     20121800000000350003410000017N291018104700000000000102012180000000000000000000000000000000000000000100002065913738ROBSON DE FARIA TORRES                  RUA GENERAL ROCHA CALADON 556,          OLARIA      21070670RIO DE JANEIRO RJUNIAO UMB DOS CULTOS AFRO BRAS    20121810 000186
10231987175000168817800093673    000031097                    000310970000000000000109                     I0231097     20121800000000400003410000017N291018104700000000000102012180000000000000000000000000000000000000000100018338577715MARILDA ALVES DE ALMEIDA                RUA BORBOREMA N 37,                     MADUREIRA   21360150RIO DE JANEIRO RJUNIAO UMB DOS CULTOS AFRO BRAS    20121810 000187
10231987175000168817800093673    000031096                    000310960000000000000109                     I0231096     20121800000000350003410000017N291018104700000000000102012180000000000000000000000000000000000000000100049170872791SONIA REGINA BARBOSA CAVATO             AVENIDA SCHULTZ WENKN 183,              CORDOVIL    21012155RIO DE JANEIRO RJUNIAO UMB DOS CULTOS AFRO BRAS    20121810 000188
10231987175000168817800093673    000031095                    000310950000000000000109                     I0231095     20121800000000350003410000017N291018104700000000000102012180000000000000000000000000000000000000000100058486496772CELIA DOMINGOS DA SILVA                 RUA JANETEN 461,                        BANCO DE ARE26275020MESQUITA       RJUNIAO UMB DOS CULTOS AFRO BRAS    20121810 000189
10231987175000168817800093673    000031089                    000310890000000000000109                     I0231089     20121800000000350003410000017N291018104700000000000102012180000000000000000000000000000000000000000100003341744738CASSIA GOMES CASTORINO                  RUA COMENDADOR CRISOSTEMO CRUZ N 0, LOTESANTA MARIA 26165400BELFORD ROXO   RJUNIAO UMB DOS CULTOS AFRO BRAS    20121810 000190
10231987175000168817800093673    000031088                    000310880000000000000109                     I0231088     20121800000000350003410000017N291018104700000000000102012180000000000000000000000000000000000000000100058234110730FRANCISCA ARAUJO VASCONCELOS            AVENIDA CEZARIO DE MELON 3720, BLOCO 3 ACAMPO GRANDE23050102RIO DE JANEIRO RJUNIAO UMB DOS CULTOS AFRO BRAS    20121810 000191
10231987175000168817800093673    000031086                    000310860000000000000109                     I0231086     20121800000000350003410000017N291018104700000000000102012180000000000000000000000000000000000000000100082940983704JURACIARA DA CONCEICAO                  RUA ASSIS VASCONCELOS N 385,            PILARES     20755010RIO DE JANEIRO RJUNIAO UMB DOS CULTOS AFRO BRAS    20121810 000192
10231987175000168817800093673    000031084                    000310840000000000000109                     I0231084     20121800000000350003410000017N291018104700000000000102012180000000000000000000000000000000000000000100002547438704JORGE EDUARDO CAVALCANTI REIS           RUA ROSA DA FONSECA N 30, SOBRADO       MANGUINHOS  21041240RIO DE JANEIRO RJUNIAO UMB DOS CULTOS AFRO BRAS    20121810 000193
10231987175000168817800093673    000031083                    000310830000000000000109                     I0231083     20121800000000350003410000017N291018104700000000000102012180000000000000000000000000000000000000000100048623334787IOLANDA JOSE PROFIRIO BARRETO           RUA SUECIAN 30,                         JARDIM CAICA28910240CABO FRIO      RJUNIAO UMB DOS CULTOS AFRO BRAS    20121810 000194
10231987175000168817800093673    000031079                    000310790000000000000109                     I0231079     20121800000000350003410000017N291018104700000000000102012180000000000000000000000000000000000000000100085146595704CARLA MARY MONSORES REGO                RUA FREDERICO MENEZESN 0, RUA D LOTE 35 TINGUI      23075570RIO DE JANEIRO RJUNIAO UMB DOS CULTOS AFRO BRAS    20121810 000195
10231987175000168817800093673    000031078                    000310780000000000000109                     I0231078     20121800000000350003410000017N291018104700000000000102012180000000000000000000000000000000000000000100038923335720MARILENE LOPES                          RUA LIBERATON 267,                      VILA EMIL   26235180MESQUITA       RJUNIAO UMB DOS CULTOS AFRO BRAS    20121810 000196
10231987175000168817800093673    000031071                    000310710000000000000109                     I0231071     20121800000000350003410000017N291018104700000000000102012180000000000000000000000000000000000000000100073887145704MARIA LUCIA APOLINARIO                  RUA AMERICO DA ROCHA N 779, CASA 1 FUNDOMARECHAL HER21555300RIO DE JANEIRO RJUNIAO UMB DOS CULTOS AFRO BRAS    20121810 000197
10231987175000168817800093673    000031068                    000310680000000000000109                     I0231068     20121800000000350003410000017N291018104700000000000102012180000000000000000000000000000000000000000100083819991700LUZIA GERALDINA DA SILVA                ESTRADA DA FAZENDINHAN 5, FUNDOS        BADU        23320420NITEROI        RJUNIAO UMB DOS CULTOS AFRO BRAS    20121810 000198
10231987175000168817800093673    000031062                    000310620000000000000109                     I0231062     20121800000000350003410000017N291018104700000000000102012180000000000000000000000000000000000000000100071924337720MARIA DAS DORES FERREIRA PESSA          TRAVESSA PEREIRA N 20,                  HONORIO GURG21512310RIO DE JANEIRO RJUNIAO UMB DOS CULTOS AFRO BRAS    20121810 000199
10231987175000168817800093673    000031061                    000310610000000000000109                     I0231061     20121800000000350003410000017N291018104700000000000102012180000000000000000000000000000000000000000100078664870730LUCIA MARA RIBEIRO OLIVEIRA             RUA LUIZA N 47,                         CHATUBA     26584210MESQUITA       RJUNIAO UMB DOS CULTOS AFRO BRAS    20121810 000200
10231987175000168817800093673    000031060                    000310600000000000000109                     I0231060     20121800000000350003410000017N291018104700000000000102012180000000000000000000000000000000000000000100090776704753CLAUDIO ISAAC PEREIRA TEIXEIRA          RUA ARUTIN 57, FUNDOS                   PRACA SECA  21321030RIO DE JANEIRO RJUNIAO UMB DOS CULTOS AFRO BRAS    20121810 000201
10231987175000168817800093673    000031057                    000310570000000000000109                     I0231057     20121800000000350003410000017N291018104700000000000102012180000000000000000000000000000000000000000100079006981753ELIANE BARBOSA RODRIGUES                AVENIDA PASTEURN 225,                   PARQUE ALIAN25550210SAO JOAO DE MERRJUNIAO UMB DOS CULTOS AFRO BRAS    20121810 000202
10231987175000168817800093673    000031055                    000310550000000000000109                     I0231055     20121800000000350003410000017N291018104700000000000102012180000000000000000000000000000000000000000100045469865720NIVALDA MARIA FERREIRA                  RUA LASSANCE N 0, LOTE 14 QUADRA 9      JARDIM MARAV23033100CAMPO GRANDE   RJUNIAO UMB DOS CULTOS AFRO BRAS    20121810 000203
10231987175000168817800093673    000031051                    000310510000000000000109                     I0231051     20121800000000350003410000017N291018104700000000000102012180000000000000000000000000000000000000000100049586254704ALZIRA MARIA CHAVES DA SILVA            RUA AMANAJON 677,                       BANGU       21820210RIO DE JANEIRO RJUNIAO UMB DOS CULTOS AFRO BRAS    20121810 000204
10231987175000168817800093673    000031050                    000310500000000000000109                     I0231050     20121800000000350003410000017N291018104700000000000102012180000000000000000000000000000000000000000100008368694515JOSE MESSIAS RODRIGUES DA COST          RUA ARARE N 51, CASA 1                  REALENGO    21765500RIO DE JANEIRO RJUNIAO UMB DOS CULTOS AFRO BRAS    20121810 000205
10231987175000168817800093673    000031046                    000310460000000000000109                     I0231046     20121800000000350003410000017N291018104700000000000102012180000000000000000000000000000000000000000100048363340715AUREA RAMOS                             ESTRADA DO MAGARCA N 8488,              CINCO MARIAS23031201PEDRA DE GUARATRJUNIAO UMB DOS CULTOS AFRO BRAS    20121810 000206
10231987175000168817800093673    000031044                    000310440000000000000109                     I0231044     20121800000000350003410000017N291018104700000000000102012180000000000000000000000000000000000000000100075643081768ELISABETE MOREIRA FREIRE DA SI          RUA ARACA N 1245,                       RICARDO DE A21620050RIO DE JANEIRO RJUNIAO UMB DOS CULTOS AFRO BRAS    20121810 000207
10231987175000168817800093673    000031043                    000310430000000000000109                     I0231043     20121800000000350003410000017N291018104700000000000102012180000000000000000000000000000000000000000100082335400720PAULO FONSECA DA SILVA                  RUA: ANDALUZIA N 431, FUNDOS            BENTO RIBEIR21555100RIO DE JANEIRO RJUNIAO UMB DOS CULTOS AFRO BRAS    20121810 000208
10231987175000168817800093673    000031042                    000310420000000000000109                     I0231042     20121800000000350003410000017N291018104700000000000102012180000000000000000000000000000000000000000100010491247745JOAO BATISTA MACEDO DE FREITAS          RUA ITAGIBAN 1047, FUNDOS               COSMOS      23060450RIO DE JANEIRO RJUNIAO UMB DOS CULTOS AFRO BRAS    20121810 000209
10231987175000168817800093673    000031035                    000310350000000000000109                     I0231035     20121800000000350003410000017N291018104700000000000102012180000000000000000000000000000000000000000100085488526749MARCOS ROMEU DA SILVA                   RUA CAMINHO DO VELOSON 836, CASA 4      AUGUSTO VASC23013090CAMPO GRANDE   RJUNIAO UMB DOS CULTOS AFRO BRAS    20121810 000210
10231987175000168817800093673    000031033                    000310330000000000000109                     I0231033     20121800000000350003410000017N291018104700000000000102012180000000000000000000000000000000000000000100082233039734BARBARA DA SILVA CUNHA MOREIRA          RUA EVARISTO PIRES N 290,               BANGU       21840040RIO DE JANEIRO RJUNIAO UMB DOS CULTOS AFRO BRAS    20121810 000211
10231987175000168817800093673    000031029                    000310290000000000000109                     I0231029     20121800000000350003410000017N291018104700000000000102012180000000000000000000000000000000000000000100076744515772GELSON CORREA DE CARVALHO               RUA MANOEL MACHADO N 77,                VAZ LOBO    21361090RIO DE JANEIRO RJUNIAO UMB DOS CULTOS AFRO BRAS    20121810 000212
10231987175000168817800093673    000031026                    000310260000000000000109                     I0231026     20121800000000350003410000017N291018104700000000000102012180000000000000000000000000000000000000000100000000000000EDMILSON DOS SANTOS WINNE DE N          RUA DONA JULIAN 40, FUNDOS              SEPETIBA    23545570RIO DE JANEIRO RJUNIAO UMB DOS CULTOS AFRO BRAS    20121810 000213
10231987175000168817800093673    000031022                    000310220000000000000109                     I0231022     20121800000000350003410000017N291018104700000000000102012180000000000000000000000000000000000000000100005744506705SANDRA REGINA DE OLIVEIRA               RUA MARCIA COSTA N 924,                 JARDIM NOVA 26271160NOVA IGUACU    RJUNIAO UMB DOS CULTOS AFRO BRAS    20121810 000214
10231987175000168817800093673    000031017                    000310170000000000000109                     I0231017     20121800000000400003410000017N291018104700000000000102012180000000000000000000000000000000000000000100073257265700DAMIANA DE OLIVEIRA PINHEIRO            RUA PROJETADA ALPHA N 0, QUADRA 5 LOTE 6PALMARES    23575270SANTA CRUZ     RJUNIAO UMB DOS CULTOS AFRO BRAS    20121810 000215
10231987175000168817800093673    000031016                    000310160000000000000109                     I0231016     20121800000000350003410000017N291018104700000000000102012180000000000000000000000000000000000000000100000000000251NEUZA DE OLIVEIRA                       RUA CINQUENTA E CINCON 521, QUADRA 49   NOVA SEPETIB23547490SEPETIBA       RJUNIAO UMB DOS CULTOS AFRO BRAS    20121810 000216
10231987175000168817800093673    000031015                    000310150000000000000109                     I0231015     20121800000000350003410000017N291018104700000000000102012180000000000000000000000000000000000000000100000910644730JOSE ALEXANDRE IOZZI                    RUA AUGUSTO NUNES N 253, CASA 3         MEIER       20770270RIO DE JANEIRO RJUNIAO UMB DOS CULTOS AFRO BRAS    20121810 000217
10231987175000168817800093673    000031014                    000310140000000000000109                     I0231014     20121800000000350003410000017N291018104700000000000102012180000000000000000000000000000000000000000100000000000000ANA LUCIA FRANCISCO BORGES              RUA DO ACAFRAON 157, APTº 101          PADRE MIGUEL21870330RIO DE JANEIRO RJUNIAO UMB DOS CULTOS AFRO BRAS    20121810 000218
10231987175000168817800093673    000031009                    000310090000000000000109                     I0231009     20121800000000350003410000017N291018104700000000000102012180000000000000000000000000000000000000000100001295514737DANUZA JEREMIAS DA SILVA                RUA JOAQUIM RAFAEL N 957,               COELHO      24740020SAO GONCALO    RJUNIAO UMB DOS CULTOS AFRO BRAS    20121810 000219
10231987175000168817800093673    000031008                    000310080000000000000109                     I0231008     20121800000000350003410000017N291018104700000000000102012180000000000000000000000000000000000000000100000000000000EVA ANA ROSA DOS SANTOS                 RUA SARGENTO ANDIRAS DE ABREU N 0, LOTE PALMARES - P23066080RIO DE JANEIRO RJUNIAO UMB DOS CULTOS AFRO BRAS    20121810 000220
10231987175000168817800093673    000031007                    000310070000000000000109                     I0231007     20121800000000350003410000017N291018104700000000000102012180000000000000000000000000000000000000000100059272570700VERA LUCIA LIMA SILVA                   RUA DOS BIOLOGOS N 0, LOTE 15 QUADRA 15 TAQUARA - JA22723510RIO DE JANEIRO RJUNIAO UMB DOS CULTOS AFRO BRAS    20121810 000221
10231987175000168817800093673    000031005                    000310050000000000000109                     I0231005     20121800000000350003410000017N291018104700000000000102012180000000000000000000000000000000000000000100072090499753JOSEFINA PAULINA RODRIGUES              RUA JOAQUIM SOARES NETO N 416,          NOVA AMERICA26021560NOVA IGUACU    RJUNIAO UMB DOS CULTOS AFRO BRAS    20121810 000222
10231987175000168817800093673    000031004                    000310040000000000000109                     I0231004     20121800000000350003410000017N291018104700000000000102012180000000000000000000000000000000000000000100098416286787CLAUDIO LUIZ DOMINGOS DOS SANT          RUA PRESIDENTE JUSCELINO KUBITSCHEKN 230PARQUE ESPER26173515BELFORD ROXO   RJUNIAO UMB DOS CULTOS AFRO BRAS    20121810 000223
10231987175000168817800093673    000031003                    000310030000000000000109                     I0231003     20121800000000350003410000017N291018104700000000000102012180000000000000000000000000000000000000000100000000000243LUIZA RODRIGUES DE SOUZA                ESTRADA: URUCANIA, TRAVESSA MARIAN 8,   DRENO       23570290SANTA CRUZ     RJUNIAO UMB DOS CULTOS AFRO BRAS    20121810 000224
10231987175000168817800093673    000031001                    000310010000000000000109                     I0231001     20121800000000350003410000017N291018104700000000000102012180000000000000000000000000000000000000000100005256804707JANAINA MARIA COSTA                     RUA GENERAL AZEREDO N 744,              REALENGO    21765000RIO DE JANEIRO RJUNIAO UMB DOS CULTOS AFRO BRAS    20121810 000225
10231987175000168817800093673    000031000                    000310000000000000000109                     I0231000     20121800000000380003410000017N291018104700000000000102012180000000000000000000000000000000000000000100000000000000OSVALDO LUIZ ESTRELA FERNANDES          RUA ANTONIO MATEUSN 0, LOTE 31 A QUADRA MAZOMBA     23826225ITAGUAI        RJUNIAO UMB DOS CULTOS AFRO BRAS    20121810 000226
10231987175000168817800093673    000030998                    000309980000000000000109                     I0230998     20121800000000350003410000017N291018104700000000000102012180000000000000000000000000000000000000000100001388677717EDSON LUIZ COSTA SOARES                 RUA LEOCADIO MELLON 326,                JARDIM NOVA 26272060NOVA IGUACU    RJUNIAO UMB DOS CULTOS AFRO BRAS    20121810 000227
10231987175000168817800093673    000030997                    000309970000000000000109                     I0230997     20121800000000350003410000017N291018104700000000000102012180000000000000000000000000000000000000000100075588137787ANA LADAIDES CONSTANTINO TRIND          RUA DOZEN 0, LOTE 2 QUADRA 86           ENGENHO     23820300ITAGUAI        RJUNIAO UMB DOS CULTOS AFRO BRAS    20121810 000228
10231987175000168817800093673    000030996                    000309960000000000000109                     I0230996     20121800000000350003410000017N291018104700000000000102012180000000000000000000000000000000000000000100000000000000JOSE ANTONIO ZANELLI                    PRAIA DE ICARAIN 267, LOJA 102          ICARAI      24230004NITEROI        RJUNIAO UMB DOS CULTOS AFRO BRAS    20121810 000229
10231987175000168817800093673    000030994                    000309940000000000000109                     I0230994     20121800000000350003410000017N291018104700000000000102012180000000000000000000000000000000000000000100028131576787EVA MOREIRA FERREIRA                    RUA PEDRO LESSA N 1486,                 VILA LEOPOLD25035800DUQUE DE CAXIASRJUNIAO UMB DOS CULTOS AFRO BRAS    20121810 000230
10231987175000168817800093673    000030993                    000309930000000000000109                     I0230993     20121800000000350003410000017N291018104700000000000102012180000000000000000000000000000000000000000100004550883731LINDINALVA MONTEIRO DA SILVA            RUA TENENTE PALESTRINA N 135,           CORDOVIL    21250550RIO DE JANEIRO RJUNIAO UMB DOS CULTOS AFRO BRAS    20121810 000231
10231987175000168817800093673    000030989                    000309890000000000000109                     I0230989     20121800000000350003410000017N291018104700000000000102012180000000000000000000000000000000000000000100043248730706BRAULIO ESPINI RIBEIRO                  RUA EMBOABAN 7, QUADRA E - PARQUE COLONILOTE XV     26180060BELFORD ROXO   RJUNIAO UMB DOS CULTOS AFRO BRAS    20121810 000232
10231987175000168817800093673    000030983                    000309830000000000000109                     I0230983     20121800000000350003410000017N291018104700000000000102012180000000000000000000000000000000000000000100000000000000SEBASTIANA MARIANO DIAS                 RUA XAVANTESN 19,                       VILA IBIRAPI23811560ITAGUAI        RJUNIAO UMB DOS CULTOS AFRO BRAS    20121810 000233
10231987175000168817800093673    000030982                    000309820000000000000109                     I0230982     20121800000000350003410000017N291018104700000000000102012180000000000000000000000000000000000000000100001345348754ADRIANA DE LELIS                        RUA DOIS N 0, QUADRA D LOTE 13          CAMPO GRANDE23092080RIO DE JANEIRO RJUNIAO UMB DOS CULTOS AFRO BRAS    20121810 000234
10231987175000168817800093673    000030981                    000309810000000000000109                     I0230981     20121800000000350003410000017N291018104700000000000102012180000000000000000000000000000000000000000100027016005704SEVERINO MIGUEL SIMAO                   RUA CONDOMINIO PASSAREDON 0, QUADRA 24 LCAMINHO DE B28910000CABO FRIO      RJUNIAO UMB DOS CULTOS AFRO BRAS    20121810 000235
10231987175000168817800093673    000030978                    000309780000000000000109                     I0230978     20121800000000350003410000017N291018104700000000000102012180000000000000000000000000000000000000000100000000000000DALILA DE SOUZA PINHEIRO                RUA JOAO BRIGIDON 121,                  MAGALHAES BA21745480RIO DE JANEIRO RJUNIAO UMB DOS CULTOS AFRO BRAS    20121810 000236
10231987175000168817800093673    000030974                    000309740000000000000109                     I0230974     20121800000000350003410000017N291018104700000000000102012180000000000000000000000000000000000000000100007070605757DANIEL MARCONDI DE SOUZA                RUA TUPIN 20,                           VILA PAULINE26185235BELFORD ROXO   RJUNIAO UMB DOS CULTOS AFRO BRAS    20121810 000237
10231987175000168817800093673    000030973                    000309730000000000000109                     I0230973     20121800000000350003410000017N291018104700000000000102012180000000000000000000000000000000000000000100004287865707MARIA LUISA DE OLIVEIRA LIREO           RUA PORTO CARRERO N 333,                CORDOVIL    21250260RIO DE JANEIRO RJUNIAO UMB DOS CULTOS AFRO BRAS    20121810 000238
10231987175000168817800093673    000030971                    000309710000000000000109                     I0230971     20121800000000350003410000017N291018104700000000000102012180000000000000000000000000000000000000000100083122869772ANDREIA OLIVEIRA DE MENEZES             RUA VICENTE PONTEN 41, JARDIM CARIOCA   ILHA DO GOVE21921740RIO DE JANEIRO RJUNIAO UMB DOS CULTOS AFRO BRAS    20121810 000239
10231987175000168817800093673    000030970                    000309700000000000000109                     I0230970     20121800000000350003410000017N291018104700000000000102012180000000000000000000000000000000000000000100003032033748MARIA MOREIRA TEIXEIRA                  AVENIDA GENERAL JOSE MULHERN 1018,      HELIOPOLIS  26140040BELFORD ROXO   RJUNIAO UMB DOS CULTOS AFRO BRAS    20121810 000240
10231987175000168817800093673    000030968                    000309680000000000000109                     I0230968     20121800000000350003410000017N291018104700000000000102012180000000000000000000000000000000000000000100092820824749CRISTINA FERREIRA DOS SANTOS            RUA MADRE SILVAN 95,                    RANCHO FUNDO26051424NOVA IGUACU    RJUNIAO UMB DOS CULTOS AFRO BRAS    20121810 000241
10231987175000168817800093673    000030967                    000309670000000000000109                     I0230967     20121800000000350003410000017N291018104700000000000102012180000000000000000000000000000000000000000100095470298787MAGNO AGUIAR DA SILVA                   RUA DOM PEDRO IN 1,  FUNDOS             PRAIA GRANDE28930000ARRAIAL DO CABORJUNIAO UMB DOS CULTOS AFRO BRAS    20121810 000242
10231987175000168817800093673    000030966                    000309660000000000000109                     I0230966     20121800000000350003410000017N291018104700000000000102012180000000000000000000000000000000000000000100003725237735LUCIANO LOPES DA SILVA                  ALAMEDA: BUENO AIRES N 370,             RIO DO OURO 24752360SAO GONCALO    RJUNIAO UMB DOS CULTOS AFRO BRAS    20121810 000243
10231987175000168817800093673    000030964                    000309640000000000000109                     I0230964     20121800000000350003410000017N291018104700000000000102012180000000000000000000000000000000000000000100006932718766CARLOS EDUARDO DE OLIVEIRA              TRAVESSA CARLOS SAMPAIO N 0, QUADRA 2 LOAUSTIN      26087287NOVA IGUACU    RJUNIAO UMB DOS CULTOS AFRO BRAS    20121810 000244
10231987175000168817800093673    000030963                    000309630000000000000109                     I0230963     20121800000000350003410000017N291018104700000000000102012180000000000000000000000000000000000000000100043116248753NORMA FELIX DA SILVA PEREIRA            RUA HENRIQUE MARTINSN 0,  LOTE 24 QUADRALAGOINHA    24736130SAO GONCALO    RJUNIAO UMB DOS CULTOS AFRO BRAS    20121810 000245
10231987175000168817800093673    000030962                    000309620000000000000109                     I0230962     20121800000000350003410000017N291018104700000000000102012180000000000000000000000000000000000000000100000000000761SONIA MARIA DA SILVA DELLIVENE          AV: PLINIO GOMES DE MATTOS FILHON 278,  VARZEA DAS M24330430SAO GONCALO    RJUNIAO UMB DOS CULTOS AFRO BRAS    20121810 000246
10231987175000168817800093673    000030960                    000309600000000000000109                     I0230960     20121800000000350003410000017N291018104700000000000102012180000000000000000000000000000000000000000100060398167753LUCIA PEREIRA                           RUA ZEFERINO DA COSTA N 83,             CAVALCANTI  21370230RIO DE JANEIRO RJUNIAO UMB DOS CULTOS AFRO BRAS    20121810 000247
10231987175000168817800093673    000030958                    000309580000000000000109                     I0230958     20121800000000350003410000017N291018104700000000000102012180000000000000000000000000000000000000000100071186220791AUREA GOMES                             AVENIDA FRANCISCO ANTONIO FRANCISCO N 12RETIRO      27276000VOLTA REDONDA  RJUNIAO UMB DOS CULTOS AFRO BRAS    20121810 000248
10231987175000168817800093673    000030956                    000309560000000000000109                     I0230956     20121800000000350003410000017N291018104700000000000102012180000000000000000000000000000000000000000100004455965700MARIA DE LOURDES SOARES DA SIL          ESTRADA RJ 127 N 0, KM 25               ALTO DO CHAF26650000PAULO DE FRONTIRJUNIAO UMB DOS CULTOS AFRO BRAS    20121810 000249
