01REMESSA01COBRANCA       817800093673        União Umb dos Cultos Afro Bra341BANCO ITAU SA  191118                                                                                                                                                                                                                                                                                                      000001
10231987175000168817800093673    000033441                    000334410000000000000109                     I0133441     30111800000000120003410000017N191118104700000000000103011180000000000000000000000000000000000000000100002846505608DIONE ROSA FERNANDES                    RUA MARQUES DE LEAO                     ENGENHO NOVO20780140RIO DE JANEIRO RJUNIAO UMB DOS CULTOS AFRO BRAS    30111810 000002
10231987175000168817800093673    000033440                    000334400000000000000109                     I0133440     20121800000000350003410000017N191118104700000000000102012180000000000000000000000000000000000000000100002544254719EDIJANE PINHEIRO DE LIMA                RUA 2 DE JANEIRO                        JARDIM NOSSA23097588CAMPO GRANDE - RJUNIAO UMB DOS CULTOS AFRO BRAS    20121810 000003
10231987175000168817800093673    000033439                    000334390000000000000109                     I0133439     20121800000000040003410000017N191118104700000000000102012180000000000000000000000000000000000000000100002544254719EDIJANE PINHEIRO DE LIMA                RUA 2 DE JANEIRO                        JARDIM NOSSA23097588CAMPO GRANDE - RJUNIAO UMB DOS CULTOS AFRO BRAS    20121810 000004
10231987175000168817800093673    000033438                    000334380000000000000109                     I0133438     20121800000000350003410000017N191118104700000000000102012180000000000000000000000000000000000000000100013014823740EUGENIA DA SILVA ALVES PEREIRA          RUA B                                   JARDIM ANHAN25264570DUQUE DE CAXIASRJUNIAO UMB DOS CULTOS AFRO BRAS    20121810 000005
10231987175000168817800093673    000033437                    000334370000000000000109                     I0133437     20121800000000040003410000017N191118104700000000000102012180000000000000000000000000000000000000000100013014823740EUGENIA DA SILVA ALVES PEREIRA          RUA B                                   JARDIM ANHAN25264570DUQUE DE CAXIASRJUNIAO UMB DOS CULTOS AFRO BRAS    20121810 000006
10231987175000168817800093673    000033436                    000334360000000000000109                     I0133436     20121800000000040003410000017N191118104700000000000102012180000000000000000000000000000000000000000100000462841766RONALDO SANTOS DE SOUZA                 RUA: PINHEIRO                           VILA CORINGA27321420BARRA MANSA    RJUNIAO UMB DOS CULTOS AFRO BRAS    20121810 000007
10231987175000168817800093673    000033435                    000334350000000000000109                     I0133435     05121800000000140003410000017N191118104700000000000100512180000000000000000000000000000000000000000100002846505608DIONE ROSA FERNANDES                    RUA MARQUES DE LEAO                     ENGENHO NOVO20780140RIO DE JANEIRO RJUNIAO UMB DOS CULTOS AFRO BRAS    05121810 000008
10231987175000168817800093673    000033434                    000334340000000000000109                     I0133434     30111800000000420003410000017N191118104700000000000103011180000000000000000000000000000000000000000100000000000000DALILA DE SOUZA PINHEIRO                RUA JOAO BRIGIDO                        MAGALHAES BA21745480RIO DE JANEIRO RJUNIAO UMB DOS CULTOS AFRO BRAS    30111810 000009
10231987175000168817800093673    000033433                    000334330000000000000109                     I0133433     17121800000000150003410000017N171118104700000000000101712180000000000000000000000000000000000000000100007474273721CLARINDO DE MEDEIROS                    RUA SAO MARCOS                          VILAR DOS TE25561220SAO JOAO DE MERRJUNIAO UMB DOS CULTOS AFRO BRAS    17121810 000010
10231987175000168817800093673    000033432                    000334320000000000000109                     I0133432     20121800000000350003410000017N161118104700000000000102012180000000000000000000000000000000000000000100007078239784MARIA TEREZINHA DE MATOS FIGUE          RUA GUATEMALA                           PENHA CIRCUL21020170RIO DE JANEIRO RJUNIAO UMB DOS CULTOS AFRO BRAS    20121810 000011
10231987175000168817800093673    000033431                    000334310000000000000109                     I0133431     20121800000000040003410000017N161118104700000000000102012180000000000000000000000000000000000000000100007078239784MARIA TEREZINHA DE MATOS FIGUE          RUA GUATEMALA                           PENHA CIRCUL21020170RIO DE JANEIRO RJUNIAO UMB DOS CULTOS AFRO BRAS    20121810 000012
10231987175000168817800093673    000033430                    000334300000000000000109                     I0133430     05121800000000175003410000017N161118104700000000000100512180000000000000000000000000000000000000000100014328358740SILAS BARBOSA DE SOUZA                  ESTRADA REAL DE MAUA                    JARDIM DA PA25926684RIO DE JANEIRO RJUNIAO UMB DOS CULTOS AFRO BRAS    05121810 000013
10231987175000168817800093673    000033429                    000334290000000000000109                     I0133429     05121800000000140003410000017N161118104700000000000100512180000000000000000000000000000000000000000100093265883787ROSANGELA BARBOSA DE CARVALHO           CAMINHO DOS TELEGRAFOS                  SENADOR CAMA21832415RIO DE JANEIRO RJUNIAO UMB DOS CULTOS AFRO BRAS    05121810 000014
10231987175000168817800093673    000033428                    000334280000000000000109                     I0133428     05121800000000105003410000017N161118104700000000000100512180000000000000000000000000000000000000000100010212584740TIAGO VEROL DE SOUZA                    RUA: REGISTRO                           SENADOR CAMA21832006RIO DE JANEIRO RJUNIAO UMB DOS CULTOS AFRO BRAS    05121810 000015
10231987175000168817800093673    000033427                    000334270000000000000109                     I0133427     14121800000000240003410000017N161118104700000000000101412180000000000000000000000000000000000000000100009297297730FLAVIO JOAQUIM DOS SANTOS               RUA: SAO PAULO                          PALMARES    23585800RIO DE JANEIRO RJUNIAO UMB DOS CULTOS AFRO BRAS    14121810 000016
10231987175000168817800093673    000033426                    000334260000000000000109                     I0133426     30111800000000175003410000017N161118104700000000000103011180000000000000000000000000000000000000000100010440702771AMANDA APARECIDA AZEVEDO CARDO          RUA IVONETE                             CONJUNTO SAN00000000RIO DE JANEIRO RJUNIAO UMB DOS CULTOS AFRO BRAS    30111810 000017
10231987175000168817800093673    000033425                    000334250000000000000109                     I0133425     30111800000000245003410000017N161118104700000000000103011180000000000000000000000000000000000000000100001796220728MARIA ROSA ALVES DA SILVA               RUA DOUTOR ARRUDA NEGREIRO              PARQUE SENHO25025325DUQUE DE CAXIASRJUNIAO UMB DOS CULTOS AFRO BRAS    30111810 000018
10231987175000168817800093673    000033424                    000334240000000000000109                     I0133424     30111800000000070003410000017N161118104700000000000103011180000000000000000000000000000000000000000100092952364753ROSANGELA SILVA SOUZA                   RUA ROSA                                CABUCU      26520250NILOPOLIS      RJUNIAO UMB DOS CULTOS AFRO BRAS    30111810 000019
10231987175000168817800093673    000033423                    000334230000000000000109                     I0133423     10011900000000400003410000017N161118104700000000000101001190000000000000000000000000000000000000000100007801283708MARCO ANTONIO DUARTE                    RUA GONCALO PAIVA GOMES                 ARSENAL     24751200SAO GONCALO    RJUNIAO UMB DOS CULTOS AFRO BRAS    10011910 000020
10231987175000168817800093673    000033417                    000334170000000000000109                     I0233417     20121800000000035003410000017N131118104700000000000102012180000000000000000000000000000000000000000100000462841766RONALDO SANTOS DE SOUZA                 RUA: PINHEIRO                           VILA CORINGA27321420BARRA MANSA    RJUNIAO UMB DOS CULTOS AFRO BRAS    20121810 000021
10231987175000168817800093673    000033358                    000333580000000000000109                     I0233358     05111800000000070003410000017N011118104700000000000100511180000000000000000000000000000000000000000100092952364753ROSANGELA SILVA SOUZA                   RUA ROSA                                CABUCU      26520250NILOPOLIS      RJUNIAO UMB DOS CULTOS AFRO BRAS    05111810 000022
10231987175000168817800093673    000033329                    000333290000000000000109                     I3433329     15111800000000035003410000017N301018104700000000000101511180000000000000000000000000000000000000000100030995980820JOSE ANACLETO DE LIMA                   RUA FREDI EMANUEL                       JARDIM JASMI26265110NOVA IGUACU    RJUNIAO UMB DOS CULTOS AFRO BRAS    15111810 000023
10231987175000168817800093673    000032928                    000329280000000000000109                     I3432928     20121800000000350003410000017N291018104700000000000102012180000000000000000000000000000000000000000100007361878717KATIA ARANDA DO NASCIMENTO              RUA DAS ARARAS CLARAS                   COLONIA - JA22713581RIO DE JANEIRO RJUNIAO UMB DOS CULTOS AFRO BRAS    20121810 000024
10231987175000168817800093673    000032261                    000322610000000000000109                     I3432261     20121800000000400003410000017N291018104700000000000102012180000000000000000000000000000000000000000100060770421787JANE DOS SANTOS PESTANA                 RUA TENENTE ARAQUEM BATISTA             PENHA       21020360RIO DE JANEIRO RJUNIAO UMB DOS CULTOS AFRO BRAS    20121810 000025
10231987175000168817800093673    000030871                    000308710000000000000109                     I0230871     20121800000000350003410000017N291018104700000000000102012180000000000000000000000000000000000000000100042881684734DENISE DOS SANTOS COSTA                 RUA PONTOES                             MENDANHA    23097590RIO DE JANEIRO RJUNIAO UMB DOS CULTOS AFRO BRAS    20121810 000026
10231987175000168817800093673    000030524                    000305240000000000000109                     I3430524     20121800000000400003410000017N291018104700000000000102012180000000000000000000000000000000000000000100000255429746ROSANGELA DA SILVEIRA MADEIRA           RUA HENRIQUE DE GOIS                    ROCHA MIRAND21511250RIO DE JANEIRO RJUNIAO UMB DOS CULTOS AFRO BRAS    20121810 000027
10231987175000168817800093673    000029751                    000297510000000000000109                     I0229751     20121800000000035003410000017N291018104700000000000102012180000000000000000000000000000000000000000100005444285797CICERO PEREIRA GOMES NETO               RUA: CAPITAO RUBENS                     MARECHAL HER21610290RIO DE JANEIRO RJUNIAO UMB DOS CULTOS AFRO BRAS    20121810 000028
10231987175000168817800093673    000029679                    000296790000000000000109                     I3429679     20121800000000035003410000017N291018104700000000000102012180000000000000000000000000000000000000000100004764270706FLAVIO AILTON BRAGA FERREIRA            RUA CABURI                              ROCHA MIRAND21550050RIO DE JANEIRO RJUNIAO UMB DOS CULTOS AFRO BRAS    20121810 000029
10231987175000168817800093673    000029626                    000296260000000000000109                     I3429626     20121800000000025003410000017N291018104700000000000102012180000000000000000000000000000000000000000100015744914587ARISTOCLEMILDA PEREIRA DOS SAN          RUA M                                   VILA EMA    25271540DUQUE DE CAXIASRJUNIAO UMB DOS CULTOS AFRO BRAS    20121810 000030
10231987175000168817800093673    000029061                    000290610000000000000109                     I0229061     20121800000000035003410000017N291018104700000000000102012180000000000000000000000000000000000000000100093461526720MARIELZA DE SOUZA COSTA                 RUA 55                                  NOSSA SENHOR23097230RIO DE JANEIRO RJUNIAO UMB DOS CULTOS AFRO BRAS    20121810 000031
10231987175000168817800093673    000028982                    000289820000000000000109                     I0228982     05111800000000420003410000017N231018104700000000000100511180000000000000000000000000000000000000000100000000000000DALILA DE SOUZA PINHEIRO                RUA JOAO BRIGIDO                        MAGALHAES BA21745480RIO DE JANEIRO RJUNIAO UMB DOS CULTOS AFRO BRAS    05111810 000032
10231987175000168817800093673    000027834                    000278340000000000000109                     I0227834     30111800000000035003410000017N200818104700000000000103011180000000000000000000000000000000000000000100005444285797CICERO PEREIRA GOMES NETO               RUA: CAPITAO RUBENS                     MARECHAL HER21610290RIO DE JANEIRO RJUNIAO UMB DOS CULTOS AFRO BRAS    30111810 000033
10231987175000168817800093673    000027755                    000277550000000000000109                     I3427755     30111800000000035003410000017N200818104700000000000103011180000000000000000000000000000000000000000100004764270706FLAVIO AILTON BRAGA FERREIRA            RUA CABURI                              ROCHA MIRAND21550050RIO DE JANEIRO RJUNIAO UMB DOS CULTOS AFRO BRAS    30111810 000034
10231987175000168817800093673    000027123                    000271230000000000000109                     I3427123     30111800000000035003410000017N200818104700000000000103011180000000000000000000000000000000000000000100030995980820JOSE ANACLETO DE LIMA                   RUA FREDI EMANUEL                       JARDIM JASMI26265110NOVA IGUACU    RJUNIAO UMB DOS CULTOS AFRO BRAS    30111810 000035
10231987175000168817800093673    000027121                    000271210000000000000109                     I0227121     30111800000000035003410000017N200818104700000000000103011180000000000000000000000000000000000000000100093461526720MARIELZA DE SOUZA COSTA                 RUA 55                                  NOSSA SENHOR23097230RIO DE JANEIRO RJUNIAO UMB DOS CULTOS AFRO BRAS    30111810 000036
10231987175000168817800093673    000026609                    000266090000000000000109                     I3426609     30091800000000040003410000017N200818104700000000000103009180000000000000000000000000000000000000000100013180490756DIEGO CAVALCANTI DA SILVA               RUA CONDE DE RESENDE                    BENTO RIBEIR21550600RIO DE JANEIRO RJUNIAO UMB DOS CULTOS AFRO BRAS    30091810 000037
10231987175000168817800093673    000026415                    000264150000000000000109                     I0226415     30091800000000035003410000017N200818104700000000000103009180000000000000000000000000000000000000000100005444285797CICERO PEREIRA GOMES NETO               RUA: CAPITAO RUBENS                     MARECHAL HER21610290RIO DE JANEIRO RJUNIAO UMB DOS CULTOS AFRO BRAS    30091810 000038
10231987175000168817800093673    000026336                    000263360000000000000109                     I3426336     30091800000000035003410000017N200818104700000000000103009180000000000000000000000000000000000000000100004764270706FLAVIO AILTON BRAGA FERREIRA            RUA CABURI                              ROCHA MIRAND21550050RIO DE JANEIRO RJUNIAO UMB DOS CULTOS AFRO BRAS    30091810 000039
10231987175000168817800093673    000025707                    000257070000000000000109                     I0225707     30091800000000035003410000017N200818104700000000000103009180000000000000000000000000000000000000000100093461526720MARIELZA DE SOUZA COSTA                 RUA 55                                  NOSSA SENHOR23097230RIO DE JANEIRO RJUNIAO UMB DOS CULTOS AFRO BRAS    30091810 000040
10231987175000168817800093673    000025192                    000251920000000000000109                     I3425192     30101800000000040003410000017N200818104700000000000103010180000000000000000000000000000000000000000100013180490756DIEGO CAVALCANTI DA SILVA               RUA CONDE DE RESENDE                    BENTO RIBEIR21550600RIO DE JANEIRO RJUNIAO UMB DOS CULTOS AFRO BRAS    30101810 000041
10231987175000168817800093673    000024997                    000249970000000000000109                     I0224997     30101800000000035003410000017N200818104700000000000103010180000000000000000000000000000000000000000100005444285797CICERO PEREIRA GOMES NETO               RUA: CAPITAO RUBENS                     MARECHAL HER21610290RIO DE JANEIRO RJUNIAO UMB DOS CULTOS AFRO BRAS    30101810 000042
10231987175000168817800093673    000024918                    000249180000000000000109                     I3424918     30101800000000035003410000017N200818104700000000000103010180000000000000000000000000000000000000000100004764270706FLAVIO AILTON BRAGA FERREIRA            RUA CABURI                              ROCHA MIRAND21550050RIO DE JANEIRO RJUNIAO UMB DOS CULTOS AFRO BRAS    30101810 000043
10231987175000168817800093673    000024287                    000242870000000000000109                     I0224287     30101800000000035003410000017N200818104700000000000103010180000000000000000000000000000000000000000100093461526720MARIELZA DE SOUZA COSTA                 RUA 55                                  NOSSA SENHOR23097230RIO DE JANEIRO RJUNIAO UMB DOS CULTOS AFRO BRAS    30101810 000044
9                                                                                                                                                                                                                                                                                                                                                                                                         000045
