01REMESSA01COBRANCA       916200163100        União Umb dos Cultos Afro Bra341BANCO ITAU SA  190219                                                                                                                                                                                                                                                                                                      000001
10231987175000168916200163100    000039810                    000398100000000000000109                     I0139810     30031900000000040003410000017N190219104700000000000103003190000000000000000000000000000000000000000100092952364753ROSANGELA SILVA SOUZA                   RUA: TAMOIOS N 144, FUNDOS              CENTRO      26520250NILOPOLIS      RJUNIAO UMB DOS CULTOS AFRO BRAS    30031910 000002
10231987175000168916200163100    000039809                    000398090000000000000109                     I0139809     28021900000000110003410000017N190219104700000000000102802190000000000000000000000000000000000000000100092952364753ROSANGELA SILVA SOUZA                   RUA: TAMOIOS N 144, FUNDOS              CENTRO      26520250NILOPOLIS      RJUNIAO UMB DOS CULTOS AFRO BRAS    28021910 000003
9                                                                                                                                                                                                                                                                                                                                                                                                         000004
