01REMESSA01COBRANCA       916200163100        União Umb dos Cultos Afro Bra341BANCO ITAU SA  300719                                                                                                                                                                                                                                                                                                      000001
10231987175000168916200163100    000050006                    000500060000000000000109                     I0150006     30091900000000040003410000017N300719105700000000000133009190000000000000000000000000000000000000000100005299827733JORGE LOPES CLEMENTE                    RUA FIGUEIREDO PIMENTELN 118, CASA 2    ABOLICAO    20751200RIO DE JANEIRO RJUNIAO UMB DOS CULTOS AFRO BRAS    30091915 000002
21300920190000000000080                                                                                                                                                                                                                                                                                                                                                                                   000003
10231987175000168916200163100    000050005                    000500050000000000000109                     I0150005     30081900000000040003410000017N300719105700000000000133008190000000000000000000000000000000000000000100005299827733JORGE LOPES CLEMENTE                    RUA FIGUEIREDO PIMENTELN 118, CASA 2    ABOLICAO    20751200RIO DE JANEIRO RJUNIAO UMB DOS CULTOS AFRO BRAS    30081915 000004
21300820190000000000080                                                                                                                                                                                                                                                                                                                                                                                   000005
10231987175000168916200163100    000050004                    000500040000000000000109                     I0150004     30091900000000040003410000017N300719105700000000000133009190000000000000000000000000000000000000000100071276920768ELIZABETH DOS SANTOS FRAGA              RUA ZULEICAN 0,  LOTE 3 QUADRA 20       CABUCU      26291311NOVA IGUACU    RJUNIAO UMB DOS CULTOS AFRO BRAS    30091915 000006
21300920190000000000080                                                                                                                                                                                                                                                                                                                                                                                   000007
10231987175000168916200163100    000050003                    000500030000000000000109                     I0150003     30081900000000040003410000017N300719105700000000000133008190000000000000000000000000000000000000000100071276920768ELIZABETH DOS SANTOS FRAGA              RUA ZULEICAN 0,  LOTE 3 QUADRA 20       CABUCU      26291311NOVA IGUACU    RJUNIAO UMB DOS CULTOS AFRO BRAS    30081915 000008
21300820190000000000080                                                                                                                                                                                                                                                                                                                                                                                   000009
10231987175000168916200163100    000050002                    000500020000000000000109                     I0150002     30091900000000040003410000017N300719105700000000000133009190000000000000000000000000000000000000000100080747132704ALDIR ALVES SARDINHA                    ESTRADA DA POSSEN 1843,                 CAMPO GRANDE23088000RIO DE JANEIRO RJUNIAO UMB DOS CULTOS AFRO BRAS    30091915 000010
21300920190000000000080                                                                                                                                                                                                                                                                                                                                                                                   000011
10231987175000168916200163100    000050001                    000500010000000000000109                     I0150001     30081900000000040003410000017N300719105700000000000133008190000000000000000000000000000000000000000100080747132704ALDIR ALVES SARDINHA                    ESTRADA DA POSSEN 1843,                 CAMPO GRANDE23088000RIO DE JANEIRO RJUNIAO UMB DOS CULTOS AFRO BRAS    30081915 000012
21300820190000000000080                                                                                                                                                                                                                                                                                                                                                                                   000013
10231987175000168916200163100    000049922                    000499220000000000000109                     I0249922     30091900000000040003410000017N160719105700000000000133009190000000000000000000000000000000000000000100066069840763VANDA LUCIA DE ASSIS                    AVENIDA OLIVEIRA BELON 1073, CASA 1 FUNDVILA DA PENH21221300RIO DE JANEIRO RJUNIAO UMB DOS CULTOS AFRO BRAS    30091915 000014
21300920190000000000080                                                                                                                                                                                                                                                                                                                                                                                   000015
10231987175000168916200163100    000049921                    000499210000000000000109                     I0249921     30081900000000040003410000017N160719105700000000000133008190000000000000000000000000000000000000000100066069840763VANDA LUCIA DE ASSIS                    AVENIDA OLIVEIRA BELON 1073, CASA 1 FUNDVILA DA PENH21221300RIO DE JANEIRO RJUNIAO UMB DOS CULTOS AFRO BRAS    30081915 000016
21300820190000000000080                                                                                                                                                                                                                                                                                                                                                                                   000017
10231987175000168916200163100    000049920                    000499200000000000000109                     I0249920     30071900000000040003410000017N160719105700000000000133007190000000000000000000000000000000000000000100066069840763VANDA LUCIA DE ASSIS                    AVENIDA OLIVEIRA BELON 1073, CASA 1 FUNDVILA DA PENH21221300RIO DE JANEIRO RJUNIAO UMB DOS CULTOS AFRO BRAS    30071915 000018
21300720190000000000080                                                                                                                                                                                                                                                                                                                                                                                   000019
10231987175000168916200163100    000044301                    000443010000000000000109                     I0244301     30061900000000040003410000017N130319105700000000000133006190000000000000000000000000000000000000000100071276920768ELIZABETH DOS SANTOS FRAGA              RUA ZULEICAN 0,  LOTE 3 QUADRA 20       CABUCU      26291311NOVA IGUACU    RJUNIAO UMB DOS CULTOS AFRO BRAS    30061915 000020
21300620190000000000080                                                                                                                                                                                                                                                                                                                                                                                   000021
10231987175000168916200163100    000044262                    000442620000000000000109                     I0244262     30061900000000040003410000017N130319105700000000000133006190000000000000000000000000000000000000000100075871505791CARLOS MAGNO DOS SANTOS COUTO           AVENIDA DOM HELDER CAMARAN 2586, FUNDOS MARIA DA GRA21050455RIO DE JANEIRO RJUNIAO UMB DOS CULTOS AFRO BRAS    30061915 000022
21300620190000000000080                                                                                                                                                                                                                                                                                                                                                                                   000023
10231987175000168916200163100    000043778                    000437780000000000000109                     I0243778     30061900000000040003410000017N130319105700000000000133006190000000000000000000000000000000000000000100049214276749MARIA CELESTE HORACIO REIS              RUA QUARENTA E CINCON 0, LOTE 20 QUADRA CAMPO LINDO 23898170SEROPEDICA     RJUNIAO UMB DOS CULTOS AFRO BRAS    30061915 000024
21300620190000000000080                                                                                                                                                                                                                                                                                                                                                                                   000025
10231987175000168916200163100    000043459                    000434590000000000000109                     I0243459     30061900000000040003410000017N130319105700000000000133006190000000000000000000000000000000000000000100005689170739KATIA SILENE MACEDO DOS SANTOS          RUA EUCLIDES ROXON 185,                 REALENGO    21765590RIO DE JANEIRO RJUNIAO UMB DOS CULTOS AFRO BRAS    30061915 000026
21300620190000000000080                                                                                                                                                                                                                                                                                                                                                                                   000027
9                                                                                                                                                                                                                                                                                                                                                                                                         000028
