01REMESSA01COBRANCA       817800093673        União Umb dos Cultos Afro Bra341BANCO ITAU SA  181218                                                                                                                                                                                                                                                                                                      000001
10231987175000168817800093673    000033581                    000335810000000000000109                     I0133581     20121800000000350003410000017N141218104700000000000102012180000000000000000000000000000000000000000100010663891795SONIA CRISTINA RODRIGUES FONTO          RUA FRANCISCO BUARQUE                   JARDIM GUAPI25943377GUAPIMIRIM     RJUNIAO UMB DOS CULTOS AFRO BRAS    20121810 000002
10231987175000168817800093673    000033580                    000335800000000000000109                     I0133580     20121800000000070003410000017N141218104700000000000102012180000000000000000000000000000000000000000100004550883731LINDINALVA MONTEIRO DA SILVA            AVENIDA MARINA BORGEA                   PARQUE FLUMI21250550RIO DE JANEIRO RJUNIAO UMB DOS CULTOS AFRO BRAS    20121810 000003
10231987175000168817800093673    000033579                    000335790000000000000109                     I0133579     24121800000000350003410000017N141218104700000000000102412180000000000000000000000000000000000000000100036820210787JOSE ROBERTO SOARES COSTA               ESTRADA DO CARIBU                       FREGUESIA   22765010RIO DE JANEIRO RJUNIAO UMB DOS CULTOS AFRO BRAS    24121810 000004
10231987175000168817800093673    000033578                    000335780000000000000109                     I0133578     28021900000000040003410000017N141218104700000000000102802190000000000000000000000000000000000000000100002180337701SONIA MARIA DE SOUZA CORDOVIL           RUA: GODOFREDO VIANA                    TAQUARA     22730020RIO DE JANEIRO RJUNIAO UMB DOS CULTOS AFRO BRAS    28021910 000005
10231987175000168817800093673    000033577                    000335770000000000000109                     I0133577     30011900000000040003410000017N141218104700000000000103001190000000000000000000000000000000000000000100002180337701SONIA MARIA DE SOUZA CORDOVIL           RUA: GODOFREDO VIANA                    TAQUARA     22730020RIO DE JANEIRO RJUNIAO UMB DOS CULTOS AFRO BRAS    30011910 000006
10231987175000168817800093673    000033576                    000335760000000000000109                     I0133576     24121800000000350003410000017N141218104700000000000102412180000000000000000000000000000000000000000100057182167700MARIA IZABEL                            RUA IPITANGAS                           TANGUA      24890000RIO DE JANEIRO RJUNIAO UMB DOS CULTOS AFRO BRAS    24121810 000007
10231987175000168817800093673    000033575                    000335750000000000000109                     I0233575     24121800000000350003410000017N141218104700000000000102412180000000000000000000000000000000000000000100010988939720JEANETTE SALGADO DE OLIVEIRA            RUA DOUTOR MANUEL MARREIROS             BANCARIOS - 21910082RIO DE JANEIRO RJUNIAO UMB DOS CULTOS AFRO BRAS    24121810 000008
10231987175000168817800093673    000033574                    000335740000000000000109                     I0133574     10011900000000350003410000017N141218104700000000000101001190000000000000000000000000000000000000000100058435000710EDNA THOME                              AVENIDA: BORGES CARNEIRO                PARQUE MODER25223460DUQUE DE CAXIASRJUNIAO UMB DOS CULTOS AFRO BRAS    10011910 000009
10231987175000168817800093673    000033471                    000334710000000000000109                     I0233471     05121800000000070003410000017N241118104700000000000100512180000000000000000000000000000000000000000100005836497770SIDEAN LEANDRO DOS SANTOS CRUZ          RUA MENDES RIBEIRO                      PATRONATO   24431635SAO GONCALO    RJUNIAO UMB DOS CULTOS AFRO BRAS    05121810 000010
10231987175000168817800093673    000033233                    000332330000000000000109                     I0233233     20121800000000350003410000017N291018104700000000000102012180000000000000000000000000000000000000000100072610344791SUELY BARROS DE MELO                    ESTRADA: GUANDU DO SENA                 CAMPO GRANDE23097220RIO DE JANEIRO RJUNIAO UMB DOS CULTOS AFRO BRAS    20121810 000011
10231987175000168817800093673    000033230                    000332300000000000000109                     I3433230     20121800000000350003410000017N291018104700000000000102012180000000000000000000000000000000000000000100081476191700IRLENE DE ALMEIDA LOPES                 RUA FERNANDEZ GAMA                      REALENGO    21760030RIO DE JANEIRO RJUNIAO UMB DOS CULTOS AFRO BRAS    20121810 000012
10231987175000168817800093673    000033210                    000332100000000000000109                     I0133210     10011900000000370003410000017N291018104700000000000101001190000000000000000000000000000000000000000100059622091768ALDA GOMES DA SILVA                     RUA: VILA DOZE                          JARDIM PALMA23066186RIO DE JANEIRO RJUNIAO UMB DOS CULTOS AFRO BRAS    10011910 000013
10231987175000168817800093673    000033097                    000330970000000000000109                     I3433097     20121800000000350003410000017N291018104700000000000102012180000000000000000000000000000000000000000100062663810797PAULO AMERICO MOTTA DE AGUIAR           RUA CORURIPE                            MARECHAL HER21555490RIO DE JANEIRO RJUNIAO UMB DOS CULTOS AFRO BRAS    20121810 000014
10231987175000168817800093673    000033031                    000330310000000000000109                     I0233031     20121800000000350003410000017N291018104700000000000102012180000000000000000000000000000000000000000100005953749724JUCIARA DA SILVA XAVIER                 RUA CONDE DE AZAMBUJA                   MARIA DA GRA20785342RIO DE JANEIRO RJUNIAO UMB DOS CULTOS AFRO BRAS    20121810 000015
10231987175000168817800093673    000032883                    000328830000000000000109                     I3432883     20121800000000350003410000017N291018104700000000000102012180000000000000000000000000000000000000000100091849608768DENISE GOMES DA SILVA RANGEL N          TRAVESSA DR ARIDIO MARTINS              TENENTE JARD00000000SAO GONCALO    RJUNIAO UMB DOS CULTOS AFRO BRAS    20121810 000016
10231987175000168817800093673    000032852                    000328520000000000000109                     I0232852     20121800000000350003410000017N291018104700000000000102012180000000000000000000000000000000000000000100009444644758ROSEMERE CONCEICAO DA SILVA             RUA ENESIO ROSA DOS SANTOS              VALE DAS MAN26175240BELFORD ROXO   RJUNIAO UMB DOS CULTOS AFRO BRAS    20121810 000017
10231987175000168817800093673    000032851                    000328510000000000000109                     I0232851     20121800000000350003410000017N291018104700000000000102012180000000000000000000000000000000000000000100054206707742ROSANGELA BARBOSA                       RUA ARAQUEM                             BANGU       21860005RIO DE JANEIRO RJUNIAO UMB DOS CULTOS AFRO BRAS    20121810 000018
10231987175000168817800093673    000032805                    000328050000000000000109                     I3432805     20121800000000350003410000017N291018104700000000000102012180000000000000000000000000000000000000000100014880089737DANIELA FERREIRA CONSENTINO             RUA OLGA CORDEIRO DE ALMEIDA            BANGU       20765040RIO DE JANEIRO RJUNIAO UMB DOS CULTOS AFRO BRAS    20121810 000019
10231987175000168817800093673    000032718                    000327180000000000000109                     I0232718     20121800000000350003410000017N291018104700000000000102012180000000000000000000000000000000000000000100096135182749ANTONIO CANDIDO DA SILVA                RUA ANA LIMA                            PARQUE SAO N25530040SAO JOAO DE MERRJUNIAO UMB DOS CULTOS AFRO BRAS    20121810 000020
10231987175000168817800093673    000032694                    000326940000000000000109                     I0232694     20121800000000350003410000017N291018104700000000000102012180000000000000000000000000000000000000000100008210877704PRISCILA DAS NEVES COSTA                RUA DA MATA                             ROCINHA     22451262RIO DE JANEIRO RJUNIAO UMB DOS CULTOS AFRO BRAS    20121810 000021
10231987175000168817800093673    000032678                    000326780000000000000109                     I3432678     20121800000000350003410000017N291018104700000000000102012180000000000000000000000000000000000000000100077301323700CID MOREIRA DE SOUZA                    RUA ATININGA                            MEU RANCHINH26379230RIO DE JANEIRO RJUNIAO UMB DOS CULTOS AFRO BRAS    20121810 000022
10231987175000168817800093673    000032644                    000326440000000000000109                     I3432644     20121800000000350003410000017N291018104700000000000102012180000000000000000000000000000000000000000100078553555704CREMILDA DO NASCIMENTO                  RUA OITENTA E OITO                      GALEAO - ILH20765040RIO DE JANEIRO RJUNIAO UMB DOS CULTOS AFRO BRAS    20121810 000023
10231987175000168817800093673    000032615                    000326150000000000000109                     I3432615     20121800000000350003410000017N291018104700000000000102012180000000000000000000000000000000000000000100013947875703DIMITRE ALVES DOS SANTOS                RUA PADRE JOSINO                        RECANTUS    26157340BELFORD ROXO   RJUNIAO UMB DOS CULTOS AFRO BRAS    20121810 000024
10231987175000168817800093673    000032532                    000325320000000000000109                     I3432532     20121800000000350003410000017N291018104700000000000102012180000000000000000000000000000000000000000100053678230768JOSEFA SILVA DE JESUS                   RUA BORJA REIS                          AGUA SANTA  20745100RIO DE JANEIRO RJUNIAO UMB DOS CULTOS AFRO BRAS    20121810 000025
10231987175000168817800093673    000032531                    000325310000000000000109                     I3432531     20121800000000350003410000017N291018104700000000000102012180000000000000000000000000000000000000000100002104744750DEISE LUCIA DIAS AUGUSTO                RUA  ALVARO RAMOS                       CURICICA - J22713584RIO DE JANEIRO RJUNIAO UMB DOS CULTOS AFRO BRAS    20121810 000026
10231987175000168817800093673    000032385                    000323850000000000000109                     I3432385     20121800000000400003410000017N291018104700000000000102012180000000000000000000000000000000000000000100066070309715ARACELIA OLIVEIRA DA SILVA              RUA ALEXANDRE ROSA                      ILHA DO GOVE20765040RIO DE JANEIRO RJUNIAO UMB DOS CULTOS AFRO BRAS    20121810 000027
10231987175000168817800093673    000032316                    000323160000000000000109                     I0232316     20121800000000350003410000017N291018104700000000000102012180000000000000000000000000000000000000000100057182167700MARIA IZABEL                            RUA IPITANGAS                           TANGUA      24890000RIO DE JANEIRO RJUNIAO UMB DOS CULTOS AFRO BRAS    20121810 000028
10231987175000168817800093673    000032307                    000323070000000000000109                     I3432307     20121800000000350003410000017N291018104700000000000102012180000000000000000000000000000000000000000100093312474787BERNADETE SIMOES MIGUEZ                 RUA: BENJAMIN DE MAGALHAES              PILARES     20750170RIO DE JANEIRO RJUNIAO UMB DOS CULTOS AFRO BRAS    20121810 000029
10231987175000168817800093673    000032249                    000322490000000000000109                     I0232249     20121800000000400003410000017N291018104700000000000102012180000000000000000000000000000000000000000100060185171753NEIDE MARIA PAULINHA ASSIS              RUA ARISTIDES CAIRE                     MEIER       20775090RIO DE JANEIRO RJUNIAO UMB DOS CULTOS AFRO BRAS    20121810 000030
10231987175000168817800093673    000032204                    000322040000000000000109                     I0232204     20121800000000350003410000017N291018104700000000000102012180000000000000000000000000000000000000000100011914616707GENESIO FERREIRA RAMOS                  RUA: PROFETA EZEQUIEL                   IPIIBA      24752250SAO GONCALO    RJUNIAO UMB DOS CULTOS AFRO BRAS    20121810 000031
10231987175000168817800093673    000032192                    000321920000000000000109                     I0232192     20121800000000350003410000017N291018104700000000000102012180000000000000000000000000000000000000000100095999620791CARLOS HENRIQUE CARDOSO DA PAI          RUA DAS AZALEIAS                        PEDREIRA    24900000MARICA         RJUNIAO UMB DOS CULTOS AFRO BRAS    20121810 000032
10231987175000168817800093673    000032186                    000321860000000000000109                     I0232186     20121800000000350003410000017N291018104700000000000102012180000000000000000000000000000000000000000100043625517787DIONETE DE AGUIAR DE OLIVEIRA           RUA CORREIA DUTRA                       FLAMENGO    22210050RIO DE JANEIRO RJUNIAO UMB DOS CULTOS AFRO BRAS    20121810 000033
10231987175000168817800093673    000032110                    000321100000000000000109                     I0232110     20121800000000350003410000017N291018104700000000000102012180000000000000000000000000000000000000000100007275404721JANETE DE SOUZA FRANCO                  RUA SALES, TRAVESSA VITORIA             SANTA CRUZ  23575195RIO DE JANEIRO RJUNIAO UMB DOS CULTOS AFRO BRAS    20121810 000034
10231987175000168817800093673    000032097                    000320970000000000000109                     I0232097     20121800000000350003410000017N291018104700000000000102012180000000000000000000000000000000000000000100001625540795JUCILENE GOMES MINDAS DOS SANT          RUA MENDEL CARDOSO DE MATTOS            PARAISO     26297009NOVA IGUACU    RJUNIAO UMB DOS CULTOS AFRO BRAS    20121810 000035
10231987175000168817800093673    000032084                    000320840000000000000109                     I3432084     20121800000000350003410000017N291018104700000000000102012180000000000000000000000000000000000000000100069963979704MARIA CECILIA MOREIRA FIGUEIRE          RUA DO JOGO DA BOLA                     SAUDE       20081170RIO DE JANEIRO RJUNIAO UMB DOS CULTOS AFRO BRAS    20121810 000036
10231987175000168817800093673    000032028                    000320280000000000000109                     I0232028     20121800000000350003410000017N291018104700000000000102012180000000000000000000000000000000000000000100052995895734NEUZA SANTANNA DE MELLO                 RUA PIRACAIA                            MARECHAL HER21555260RIO DE JANEIRO RJUNIAO UMB DOS CULTOS AFRO BRAS    20121810 000037
10231987175000168817800093673    000032001                    000320010000000000000109                     I0232001     20121800000000350003410000017N291018104700000000000102012180000000000000000000000000000000000000000100000000000000MARINITA BARBOZA DA SILVA               RUA VENUS                               SANTA TEREZI26240330MESQUITA       RJUNIAO UMB DOS CULTOS AFRO BRAS    20121810 000038
10231987175000168817800093673    000031961                    000319610000000000000109                     I0231961     20121800000000350003410000017N291018104700000000000102012180000000000000000000000000000000000000000100009576204704LUCIANO SILVA DOS SANTOS                RUA: JURUBAIBA                          HONORIO GURG21555170RIO DE JANEIRO RJUNIAO UMB DOS CULTOS AFRO BRAS    20121810 000039
10231987175000168817800093673    000031946                    000319460000000000000109                     I0231946     20121800000000350003410000017N291018104700000000000102012180000000000000000000000000000000000000000100005223043707GEORGE SIMOES DA SILVA                  RUA ANTONIO MARINS                      SAO MATHEUS 25530000SAO JOAO DE MERRJUNIAO UMB DOS CULTOS AFRO BRAS    20121810 000040
10231987175000168817800093673    000031887                    000318870000000000000109                     I0231887     20121800000000350003410000017N291018104700000000000102012180000000000000000000000000000000000000000100078074436420LUCIANO DANTAS DE ARAUJO                RUA TRAVESSA FERREIRA                   CENTRO      26525533NILOPOLIS      RJUNIAO UMB DOS CULTOS AFRO BRAS    20121810 000041
10231987175000168817800093673    000031747                    000317470000000000000109                     I0231747     20121800000000350003410000017N291018104700000000000102012180000000000000000000000000000000000000000100010373820720ELTON LUIZ DAS NEVES CATARINO           RUA TURMALINA                           JARDIM CATAR24715670SAO GONCALO    RJUNIAO UMB DOS CULTOS AFRO BRAS    20121810 000042
10231987175000168817800093673    000031694                    000316940000000000000109                     I0231694     20121800000000350003410000017N291018104700000000000102012180000000000000000000000000000000000000000100008676289794ROSANGELA MONTES BARBOSA DA SI          RUA MENDEL CARDOSO DE MATOS             CONJ. BOA ES26297009NOVA IGUACU    RJUNIAO UMB DOS CULTOS AFRO BRAS    20121810 000043
10231987175000168817800093673    000031664                    000316640000000000000109                     I0231664     20121800000000350003410000017N291018104700000000000102012180000000000000000000000000000000000000000100082758450763ISAURA FELICIANO DE PAULA               RUA LEAO XIII                           CERAMICA    26031400NOVA IGUACU    RJUNIAO UMB DOS CULTOS AFRO BRAS    20121810 000044
10231987175000168817800093673    000031612                    000316120000000000000109                     I0231612     20121800000000350003410000017N291018104700000000000102012180000000000000000000000000000000000000000100025891693704EDSON DA SILVA ALVES                    RUA: JOAO MACIEIRA                      MADUREIRA   21310090RIO DE JANEIRO RJUNIAO UMB DOS CULTOS AFRO BRAS    20121810 000045
10231987175000168817800093673    000031587                    000315870000000000000109                     I0231587     20121800000000350003410000017N291018104700000000000102012180000000000000000000000000000000000000000100007622581798WAGNER SILVA DE SOUZA                   RUA SOUZA COSTA                         GUAXINDIBA  24780322SAO GONCALO    RJUNIAO UMB DOS CULTOS AFRO BRAS    20121810 000046
10231987175000168817800093673    000031586                    000315860000000000000109                     I0131586     20121800000000350003410000017N291018104700000000000102012180000000000000000000000000000000000000000100008544039731FABIO DA SILVA CONDE                    RUA: FERREIRA DE MENEZES                ENGENHO DA R20761250RIO DE JANEIRO RJUNIAO UMB DOS CULTOS AFRO BRAS    20121810 000047
10231987175000168817800093673    000031577                    000315770000000000000109                     I0231577     20121800000000350003410000017N291018104700000000000102012180000000000000000000000000000000000000000100058703223720MARCIA MARCAL DO NASCIMENTO             RUA 57                                  NOSSA SENHOR23097220RIO DE JANEIRO RJUNIAO UMB DOS CULTOS AFRO BRAS    20121810 000048
10231987175000168817800093673    000031576                    000315760000000000000109                     I0231576     20121800000000350003410000017N291018104700000000000102012180000000000000000000000000000000000000000100075181339700MARIA DA CONCEICAO SANTOS DOS           RUA FREDERICO DE CASTRO                 AUSTIN - NEG00000000NOVA IGUACU    RJUNIAO UMB DOS CULTOS AFRO BRAS    20121810 000049
10231987175000168817800093673    000031566                    000315660000000000000109                     I0231566     20121800000000350003410000017N291018104700000000000102012180000000000000000000000000000000000000000100051796546704VAGNER ERNESTO MACHADO                  RUA ARI RODRIGUES                       RIO DO OURO 24753580SAO GONCALO    RJUNIAO UMB DOS CULTOS AFRO BRAS    20121810 000050
10231987175000168817800093673    000031561                    000315610000000000000109                     I0231561     20121800000000350003410000017N291018104700000000000102012180000000000000000000000000000000000000000100050052578704JOSE CARLOS RIBEIRO DIAS                TRAVESSA PAULO RANGEL                   JARDIM NAZAR24754190SAO GONCALO    RJUNIAO UMB DOS CULTOS AFRO BRAS    20121810 000051
10231987175000168817800093673    000031539                    000315390000000000000109                     I0231539     20121800000000350003410000017N291018104700000000000102012180000000000000000000000000000000000000000100009060234758MARIA LUCIA ALVES CHAVES                ESTRADA: PONTA NEGRA                    BANANAL     24900000MARICA         RJUNIAO UMB DOS CULTOS AFRO BRAS    20121810 000052
10231987175000168817800093673    000031535                    000315350000000000000109                     I3431535     20121800000000350003410000017N291018104700000000000102012180000000000000000000000000000000000000000100044952660982LUCIA MARIA BERNARDES                   RUA A                                   SARACURUNA  25000000RIO DE JANEIRO RJUNIAO UMB DOS CULTOS AFRO BRAS    20121810 000053
10231987175000168817800093673    000031534                    000315340000000000000109                     I0231534     20121800000000350003410000017N291018104700000000000102012180000000000000000000000000000000000000000100081734816791JUNIO JOSE SOARES DOS SANTOS            RUA 57                                  JARDIM NOSSA21720161RIO DE JANEIRO RJUNIAO UMB DOS CULTOS AFRO BRAS    20121810 000054
10231987175000168817800093673    000031519                    000315190000000000000109                     I0231519     20121800000000350003410000017N291018104700000000000102012180000000000000000000000000000000000000000100045891028700DILCEA GUIMARAES MENDES DA SIL          RODOVIA: AMARAL PEIXOTO                 INOA        24900000MARICA         RJUNIAO UMB DOS CULTOS AFRO BRAS    20121810 000055
10231987175000168817800093673    000031518                    000315180000000000000109                     I0231518     20121800000000350003410000017N291018104700000000000102012180000000000000000000000000000000000000000100000000008971TANIA REGINA BENSALY XIMENES            RUA 4 ESCADAO                           ROCINHA     00000000RIO DE JANEIRO RJUNIAO UMB DOS CULTOS AFRO BRAS    20121810 000056
10231987175000168817800093673    000031511                    000315110000000000000109                     I0231511     20121800000000350003410000017N291018104700000000000102012180000000000000000000000000000000000000000100009620028449CLEA PONTES DE FIGUEIREDO               RUA PAROBI                              COLEGIO     21545250RIO DE JANEIRO RJUNIAO UMB DOS CULTOS AFRO BRAS    20121810 000057
10231987175000168817800093673    000031507                    000315070000000000000109                     I0231507     20121800000000350003410000017N291018104700000000000102012180000000000000000000000000000000000000000100026141981704SILVANO GONCALVES DE AZEVEDO            ESTRADA DE ITAIPUACU                    BEIRA RIO   24910000INOA - MARICA  RJUNIAO UMB DOS CULTOS AFRO BRAS    20121810 000058
10231987175000168817800093673    000031503                    000315030000000000000109                     I0231503     20121800000000350003410000017N291018104700000000000102012180000000000000000000000000000000000000000100012201569738PAULO CELSO MACHADO JUNIOR              RUA SEIS                                CHACARA INOA24910000MARICA         RJUNIAO UMB DOS CULTOS AFRO BRAS    20121810 000059
10231987175000168817800093673    000031491                    000314910000000000000109                     I0231491     20121800000000350003410000017N291018104700000000000102012180000000000000000000000000000000000000000100007600363739ROSEMERE CLAUDINO                       RUA: MANOEL RODRIGUES                   GRAMA       26061290NOVA IGUACU    RJUNIAO UMB DOS CULTOS AFRO BRAS    20121810 000060
10231987175000168817800093673    000031472                    000314720000000000000109                     I0231472     20121800000000350003410000017N291018104700000000000102012180000000000000000000000000000000000000000100002993079727SANDRO DA SILVA FARIA                   RUA FRANCISCO BARBEIRO                  BOACU       24460490SAO GONCALO    RJUNIAO UMB DOS CULTOS AFRO BRAS    20121810 000061
10231987175000168817800093673    000031471                    000314710000000000000109                     I0231471     20121800000000350003410000017N291018104700000000000102012180000000000000000000000000000000000000000100057375011753ANA MARIA DOS SANTOS SILVA              RUA TURQUESAS                           JARDIM CATAR24715600SAO GONCALO    RJUNIAO UMB DOS CULTOS AFRO BRAS    20121810 000062
10231987175000168817800093673    000031440                    000314400000000000000109                     I3431440     20121800000000400003410000017N291018104700000000000102012180000000000000000000000000000000000000000100003040079786JAMERSON GONCALVES DE MIRANDA           RUA BANANAL                             JARDIM LEAL 25050050DUQUE DE CAXIASRJUNIAO UMB DOS CULTOS AFRO BRAS    20121810 000063
10231987175000168817800093673    000031421                    000314210000000000000109                     I3431421     20121800000000350003410000017N291018104700000000000102012180000000000000000000000000000000000000000100007086192740EMERSON DOS SANTOS FIDELIS              RUA: SEVERINO SANTOS                    SARACURUNA  25212668DUQUE DE CAXIASRJUNIAO UMB DOS CULTOS AFRO BRAS    20121810 000064
10231987175000168817800093673    000031373                    000313730000000000000109                     I0231373     20121800000000350003410000017N291018104700000000000102012180000000000000000000000000000000000000000100003549035780CARLOS ALBERTO DA SILVA SANTOS          AVENIDA PRESIDENTE DUTRA                VILA DILMA  26085060NOVA IGUACU    RJUNIAO UMB DOS CULTOS AFRO BRAS    20121810 000065
10231987175000168817800093673    000031334                    000313340000000000000109                     I3431334     20121800000000350003410000017N291018104700000000000102012180000000000000000000000000000000000000000100099158965734VALDEMIR CARDOSO DIAS                   RUA LACONIA                             JARDIM AMAPA26182230BELFORD ROXO   RJUNIAO UMB DOS CULTOS AFRO BRAS    20121810 000066
10231987175000168817800093673    000031315                    000313150000000000000109                     I3431315     20121800000000350003410000017N291018104700000000000102012180000000000000000000000000000000000000000100071056319709LAURECI DOS SANTOS                      RUA CANDIDO BENICIO                     PRACA SECA  21321801DUQUE DE CAXIASRJUNIAO UMB DOS CULTOS AFRO BRAS    20121810 000067
10231987175000168817800093673    000031295                    000312950000000000000109                     I0231295     20121800000000350003410000017N291018104700000000000102012180000000000000000000000000000000000000000100028872878772JOSE TITO DOS SANTOS                    RUA: DA CARIDADE                        TAQUARA     25275010DUQUE DE CAXIASRJUNIAO UMB DOS CULTOS AFRO BRAS    20121810 000068
10231987175000168817800093673    000031271                    000312710000000000000109                     I0231271     20121800000000380003410000017N291018104700000000000102012180000000000000000000000000000000000000000100044845251787REGINA CELIA ALMEIDA BASTOS             RUA DERMEVAL LESSA                      PAVUNA      21532330RIO DE JANEIRO RJUNIAO UMB DOS CULTOS AFRO BRAS    20121810 000069
10231987175000168817800093673    000031265                    000312650000000000000109                     I0231265     20121800000000350003410000017N291018104700000000000102012180000000000000000000000000000000000000000100068469845772MARIA FRANCISCA DA SILVA                RUA GUARUJA                             GRAMACHO -JA25051090DUQUE DE CAXIASRJUNIAO UMB DOS CULTOS AFRO BRAS    20121810 000070
10231987175000168817800093673    000031254                    000312540000000000000109                     I3431254     20121800000000400003410000017N291018104700000000000102012180000000000000000000000000000000000000000100000583249760MARLY FERREIRA JUSTO                    AVENIDA HENRIQUE VALADARES              PARQUE LAFAI25010302DUQUE DE CAXIASRJUNIAO UMB DOS CULTOS AFRO BRAS    20121810 000071
10231987175000168817800093673    000031243                    000312430000000000000109                     I0231243     20121800000000350003410000017N291018104700000000000102012180000000000000000000000000000000000000000100051393905749FRANCISCA MOURA BARREIRA                RUA: PORTO RICO                         VIGARIO GERA21241200RIO DE JANEIRO RJUNIAO UMB DOS CULTOS AFRO BRAS    20121810 000072
10231987175000168817800093673    000031237                    000312370000000000000109                     I0231237     20121800000000350003410000017N291018104700000000000102012180000000000000000000000000000000000000000100042478154749LENIRA DOS SANTOS MORAIS LUGO           RUA: ANTONIO JOAO                       CORDOVIL    21250150RIO DE JANEIRO RJUNIAO UMB DOS CULTOS AFRO BRAS    20121810 000073
10231987175000168817800093673    000031227                    000312270000000000000109                     I3431227     20121800000000400003410000017N291018104700000000000102012180000000000000000000000000000000000000000100002520223782LUCEMILDA DOS SANTOS ALVES              AVENIDA ROBERTO SILVEIRA                OLINDA      26545770NILOPOLIS      RJUNIAO UMB DOS CULTOS AFRO BRAS    20121810 000074
10231987175000168817800093673    000031208                    000312080000000000000109                     I0231208     20121800000000350003410000017N291018104700000000000102012180000000000000000000000000000000000000000100007809244795DANIELI LUNA DOS SANTOS                 RUA ITUMBIARA                           IPATINGA - C23093410RIO DE JANEIRO RJUNIAO UMB DOS CULTOS AFRO BRAS    20121810 000075
10231987175000168817800093673    000031175                    000311750000000000000109                     I0231175     20121800000000350003410000017N291018104700000000000102012180000000000000000000000000000000000000000100054558093772PAULO DOS SANTOS ROSA                   RUA AZAMOR                              LINS DE VASC20710120RIO DE JANEIRO RJUNIAO UMB DOS CULTOS AFRO BRAS    20121810 000076
10231987175000168817800093673    000031171                    000311710000000000000109                     I0231171     20121800000000350003410000017N291018104700000000000102012180000000000000000000000000000000000000000100081294913700JACIMARA DE SOUZA OLIVEIRA              RUA ATILA DE SA PEIXOTO                 REALENGO    21760320RIO DE JANEIRO RJUNIAO UMB DOS CULTOS AFRO BRAS    20121810 000077
10231987175000168817800093673    000031148                    000311480000000000000109                     I0231148     20121800000000350003410000017N291018104700000000000102012180000000000000000000000000000000000000000100089721411787FATIMA REGINA VALENTE MARTINS           RUA CAPITAO MACHADO                     PRACA SECA  21320030RIO DE JANEIRO RJUNIAO UMB DOS CULTOS AFRO BRAS    20121810 000078
10231987175000168817800093673    000031126                    000311260000000000000109                     I0231126     20121800000000350003410000017N291018104700000000000102012180000000000000000000000000000000000000000100036820210787JOSE ROBERTO SOARES COSTA               ESTRADA DO CARIBU                       FREGUESIA   22765010RIO DE JANEIRO RJUNIAO UMB DOS CULTOS AFRO BRAS    20121810 000079
10231987175000168817800093673    000031123                    000311230000000000000109                     I0231123     20121800000000350003410000017N291018104700000000000102012180000000000000000000000000000000000000000100060570207849ISABEL CARVALHO DA COSTA                AVENIDA DOS ITALIANOS                   VILA CONQUIS21510101COELHO NETO    RJUNIAO UMB DOS CULTOS AFRO BRAS    20121810 000080
10231987175000168817800093673    000031109                    000311090000000000000109                     I3431109     20121800000000350003410000017N291018104700000000000102012180000000000000000000000000000000000000000100090682211753ELIZABETH VALENTIM                      ALAMEDA SEIS                            CAMPO LINDO 23845190RIO DE JANEIRO RJUNIAO UMB DOS CULTOS AFRO BRAS    20121810 000081
10231987175000168817800093673    000031107                    000311070000000000000109                     I3431107     20121800000000350003410000017N291018104700000000000102012180000000000000000000000000000000000000000100002560529726LUIZ CARLOS DIAS MACHADO                RUA BERNARDO DE VASCONCELOS             REALENGO    21715251RIO DE JANEIRO RJUNIAO UMB DOS CULTOS AFRO BRAS    20121810 000082
10231987175000168817800093673    000031072                    000310720000000000000109                     I0231072     20121800000000350003410000017N291018104700000000000102012180000000000000000000000000000000000000000100001122766793ERICA VALERIA VIDAL DOS SANTOS          RUA ARMISTICIO                          SENADOR CAMA21831390RIO DE JANEIRO RJUNIAO UMB DOS CULTOS AFRO BRAS    20121810 000083
10231987175000168817800093673    000031041                    000310410000000000000109                     I0231041     20121800000000350003410000017N291018104700000000000102012180000000000000000000000000000000000000000100000249224712ILMA SILVA DE ARAUJO                    AVENIDA ENGENHEIRO PIRES REBELO         BANGU       21825390RIO DE JANEIRO RJUNIAO UMB DOS CULTOS AFRO BRAS    20121810 000084
10231987175000168817800093673    000031025                    000310250000000000000109                     I0131025     07011900000000350003410000017N291018104700000000000100701190000000000000000000000000000000000000000100006885221732REGINA CELIA DA SILVA LINS              CONDOMINIO PASSAREDO                    CAMINHO DE B28921100RIO DE JANEIRO RJUNIAO UMB DOS CULTOS AFRO BRAS    07011910 000085
10231987175000168817800093673    000031012                    000310120000000000000109                     I0231012     20121800000000350003410000017N291018104700000000000102012180000000000000000000000000000000000000000100021646643704INDELECIO DOS SANTOS                    RUA CAPITAO ABDALA CHAMA                BENFICA     20911250RIO DE JANEIRO RJUNIAO UMB DOS CULTOS AFRO BRAS    20121810 000086
10231987175000168817800093673    000030991                    000309910000000000000109                     I0230991     20121800000000350003410000017N291018104700000000000102012180000000000000000000000000000000000000000100072010177720ELISE DO CARMO FRANCA                   RUA CARLOS PALUTI                       MERK        22710310RIO DE JANEIRO RJUNIAO UMB DOS CULTOS AFRO BRAS    20121810 000087
10231987175000168817800093673    000030915                    000309150000000000000109                     I0230915     20121800000000350003410000017N291018104700000000000102012180000000000000000000000000000000000000000100000000000041NEUSA MARIA DA ROCHA SENA               AVENIDA FRANCA                          RIO DO OURO 24452030NITEROI        RJUNIAO UMB DOS CULTOS AFRO BRAS    20121810 000088
10231987175000168817800093673    000030912                    000309120000000000000109                     I0130912     20121800000000400003410000017N291018104700000000000102012180000000000000000000000000000000000000000100063618885768CELSO MORAES LUIZ                       RUA FERNANDES DA CUNHA                  VIGARIO GERA21241300RIO DE JANEIRO RJUNIAO UMB DOS CULTOS AFRO BRAS    20121810 000089
10231987175000168817800093673    000030886                    000308860000000000000109                     I0230886     20121800000000350003410000017N291018104700000000000102012180000000000000000000000000000000000000000100048113956700RINALDA SOARES                          ESTRADA DA GAVEA - TRAVESSA: SILVA      ROCINHA - GA22451262RIO DE JANEIRO RJUNIAO UMB DOS CULTOS AFRO BRAS    20121810 000090
10231987175000168817800093673    000030870                    000308700000000000000109                     I0230870     20121800000000350003410000017N291018104700000000000102012180000000000000000000000000000000000000000100034413936787MARIA DE LOURDES PEREIRA DA SI          RUA AGUIA BRANCA                        CAMPO GRANDE23097630RIO DE JANEIRO RJUNIAO UMB DOS CULTOS AFRO BRAS    20121810 000091
10231987175000168817800093673    000030861                    000308610000000000000109                     I0230861     20121800000000350003410000017N291018104700000000000102012180000000000000000000000000000000000000000100035498242700RAUMER FONSECA DE FARIA                 RUA JOAQUIM RODRIGUES                   BOA VISTA   24465735SAO GONCALO    RJUNIAO UMB DOS CULTOS AFRO BRAS    20121810 000092
10231987175000168817800093673    000030860                    000308600000000000000109                     I0230860     20121800000000350003410000017N291018104700000000000102012180000000000000000000000000000000000000000100019456204553RAIMUNDA ALVES DE AQUINO                RUA RAMON MOLEON                        CRUZEIRO DO 26011670NOVA IGUACU    RJUNIAO UMB DOS CULTOS AFRO BRAS    20121810 000093
10231987175000168817800093673    000030836                    000308360000000000000109                     I0230836     20121800000000350003410000017N291018104700000000000102012180000000000000000000000000000000000000000100070948747749REGINA MARIA DA SILVA BIZARRA           RUA LAPENIA                             JARDIM REDEN26110270BELFORD ROXO   RJUNIAO UMB DOS CULTOS AFRO BRAS    20121810 000094
10231987175000168817800093673    000030793                    000307930000000000000109                     I0230793     20121800000000350003410000017N291018104700000000000102012180000000000000000000000000000000000000000100010988939720JEANETTE SALGADO DE OLIVEIRA            RUA DOUTOR MANUEL MARREIROS             BANCARIOS - 21910082RIO DE JANEIRO RJUNIAO UMB DOS CULTOS AFRO BRAS    20121810 000095
10231987175000168817800093673    000030747                    000307470000000000000109                     I0230747     20121800000000350003410000017N291018104700000000000102012180000000000000000000000000000000000000000100007163195788SIMONE MARIA DE OLIVEIRA BERTO          TRAVESSA JUREMA                         SAO BENEDITO26022510NOVA IGUACU    RJUNIAO UMB DOS CULTOS AFRO BRAS    20121810 000096
10231987175000168817800093673    000030704                    000307040000000000000109                     I0230704     20121800000000350003410000017N291018104700000000000102012180000000000000000000000000000000000000000100026711494768VALDICEIA DE OLIVEIRA FONTES            RUA SARGENTO GERALDO BERTI              PALMARES - P23066050RIO DE JANEIRO RJUNIAO UMB DOS CULTOS AFRO BRAS    20121810 000097
10231987175000168817800093673    000030661                    000306610000000000000109                     I0230661     20121800000000350003410000017N291018104700000000000102012180000000000000000000000000000000000000000100092053050730SONIA MARIA RODRIGUES LONTRA M          TRAVESSA TITO RABELO                    CAMPO GRANDE23017245RIO DE JANEIRO RJUNIAO UMB DOS CULTOS AFRO BRAS    20121810 000098
10231987175000168817800093673    000030659                    000306590000000000000109                     I0230659     20121800000000350003410000017N291018104700000000000102012180000000000000000000000000000000000000000100000000000646CECILIA MARIA SOUZA                     AVENIDA MARECHAL FONTENELE              MALLET      21750001RIO DE JANEIRO RJUNIAO UMB DOS CULTOS AFRO BRAS    20121810 000099
10231987175000168817800093673    000030655                    000306550000000000000109                     I0230655     20121800000000350003410000017N291018104700000000000102012180000000000000000000000000000000000000000100000000000642JOSE MARIA DUARTE                       AVENIDA BRASIL                          SANTA CRUZ  23555191RIO DE JANEIRO RJUNIAO UMB DOS CULTOS AFRO BRAS    20121810 000100
10231987175000168817800093673    000030642                    000306420000000000000109                     I0230642     20121800000000350003410000017N291018104700000000000102012180000000000000000000000000000000000000000100018627919704JORGE CAILLEAUX COSTA                   RUA VINTE E UM                          CAMPO LINDO 23850190SEROPEDICA     RJUNIAO UMB DOS CULTOS AFRO BRAS    20121810 000101
10231987175000168817800093673    000030584                    000305840000000000000109                     I0230584     20121800000000350003410000017N291018104700000000000102012180000000000000000000000000000000000000000100078714010763DALVINA CELESTINA DE OLIVEIRA           CAMINHO DOS TELEGRAFOS                  VIEGAS - SEN21830550SENADOR CAMARA RJUNIAO UMB DOS CULTOS AFRO BRAS    20121810 000102
10231987175000168817800093673    000030567                    000305670000000000000109                     I0230567     20121800000000350003410000017N291018104700000000000102012180000000000000000000000000000000000000000100077575768734CARLOS ALBERTO BAPTISTA                 RUA PRINCIPE DA BEIRA                   DEL CASTILHO21060420RIO DE JANEIRO RJUNIAO UMB DOS CULTOS AFRO BRAS    20121810 000103
10231987175000168817800093673    000030554                    000305540000000000000109                     I3430554     20121800000000350003410000017N291018104700000000000102012180000000000000000000000000000000000000000100096755423734BERNADETE DOS SANTOS PEREIRA            RUA FERREIRA CHAVES                     VILA KOSMOS 21221090RIO DE JANEIRO RJUNIAO UMB DOS CULTOS AFRO BRAS    20121810 000104
10231987175000168817800093673    000030495                    000304950000000000000109                     I0230495     20121800000000350003410000017N291018104700000000000102012180000000000000000000000000000000000000000100003019311780LUZIA CIRILO                            RUA JOSE DA SILVA BRAGA                 OLINDA      26545240NILOPOLIS      RJUNIAO UMB DOS CULTOS AFRO BRAS    20121810 000105
10231987175000168817800093673    000030425                    000304250000000000000109                     I0230425     20121800000000350003410000017N291018104700000000000102012180000000000000000000000000000000000000000100000000000051SEVERINA RAMOS INACIO                   RUA FRANCISCO SIMOES DE FIGUEIREDO      JARDIM SULAC21745690RIO DE JANEIRO RJUNIAO UMB DOS CULTOS AFRO BRAS    20121810 000106
10231987175000168817800093673    000030380                    000303800000000000000109                     I0230380     20121800000000040003410000017N291018104700000000000102012180000000000000000000000000000000000000000100007147220730LUIS CARLOS DA COSTA OLIVEIRA           RUA MINAS GERAIS                        CAMPO ALEGRE26292141NOVA IGUACU    RJUNIAO UMB DOS CULTOS AFRO BRAS    20121810 000107
10231987175000168817800093673    000030343                    000303430000000000000109                     I0230343     20121800000000040003410000017N291018104700000000000102012180000000000000000000000000000000000000000100072610344791SUELY BARROS DE MELO                    ESTRADA: GUANDU DO SENA                 CAMPO GRANDE23097220RIO DE JANEIRO RJUNIAO UMB DOS CULTOS AFRO BRAS    20121810 000108
10231987175000168817800093673    000030341                    000303410000000000000109                     I3430341     20121800000000040003410000017N291018104700000000000102012180000000000000000000000000000000000000000100081476191700IRLENE DE ALMEIDA LOPES                 RUA FERNANDEZ GAMA                      REALENGO    21760030RIO DE JANEIRO RJUNIAO UMB DOS CULTOS AFRO BRAS    20121810 000109
10231987175000168817800093673    000030188                    000301880000000000000109                     I0230188     20121800000000035003410000017N291018104700000000000102012180000000000000000000000000000000000000000100005953749724JUCIARA DA SILVA XAVIER                 RUA CONDE DE AZAMBUJA                   MARIA DA GRA20785342RIO DE JANEIRO RJUNIAO UMB DOS CULTOS AFRO BRAS    20121810 000110
10231987175000168817800093673    000030130                    000301300000000000000109                     I3430130     20121800000000035003410000017N291018104700000000000102012180000000000000000000000000000000000000000100003025076712MARIA QUITERIA DOS SANTOS PITA          RUA MISSIONARIO CHRISTIE                QUISSAMA    25615250PETROPOLIS     RJUNIAO UMB DOS CULTOS AFRO BRAS    20121810 000111
10231987175000168817800093673    000029967                    000299670000000000000109                     I3429967     20121800000000035003410000017N291018104700000000000102012180000000000000000000000000000000000000000100005836497770SIDEAN LEANDRO DOS SANTOS CRUZ          RUA MENDES RIBEIRO                      PATRONATO   24431635SAO GONCALO    RJUNIAO UMB DOS CULTOS AFRO BRAS    20121810 000112
10231987175000168817800093673    000029933                    000299330000000000000109                     I0229933     20121800000000035003410000017N291018104700000000000102012180000000000000000000000000000000000000000100033927499749JORGE CARDOSO DE MACEDO                 RUA G                                   GRANJA SANTA25900000MAGE           RJUNIAO UMB DOS CULTOS AFRO BRAS    20121810 000113
10231987175000168817800093673    000029826                    000298260000000000000109                     I0229826     20121800000000035003410000017N291018104700000000000102012180000000000000000000000000000000000000000100004790121720IATA ANDERSON JESUS PEREIRA             RUA ITAJUBARA                           RAMOS       21060180RIO DE JANEIRO RJUNIAO UMB DOS CULTOS AFRO BRAS    20121810 000114
10231987175000168817800093673    000029809                    000298090000000000000109                     I3429809     20121800000000035003410000017N291018104700000000000102012180000000000000000000000000000000000000000100012874409758CLAUDIA DA SILVA NOBRE DE MIRA          RUA SEIS                                FIGUEIRA - M25930000MAGE           RJUNIAO UMB DOS CULTOS AFRO BRAS    20121810 000115
10231987175000168817800093673    000029745                    000297450000000000000109                     I0229745     20121800000000035003410000017N291018104700000000000102012180000000000000000000000000000000000000000100074597035753LUCIMAR DE SOUZA DIAS                   RUA LIGIA MALAGUTI                      BOMBAS DO GU26357000NOVA IGUACU    RJUNIAO UMB DOS CULTOS AFRO BRAS    20121810 000116
10231987175000168817800093673    000029490                    000294900000000000000109                     I0229490     20121800000000040003410000017N291018104700000000000102012180000000000000000000000000000000000000000100025891693704EDSON DA SILVA ALVES                    RUA: JOAO MACIEIRA                      MADUREIRA   21310090RIO DE JANEIRO RJUNIAO UMB DOS CULTOS AFRO BRAS    20121810 000117
10231987175000168817800093673    000029410                    000294100000000000000109                     I3429410     20121800000000035003410000017N291018104700000000000102012180000000000000000000000000000000000000000100007086192740EMERSON DOS SANTOS FIDELIS              RUA: SEVERINO SANTOS                    SARACURUNA  25212668DUQUE DE CAXIASRJUNIAO UMB DOS CULTOS AFRO BRAS    20121810 000118
10231987175000168817800093673    000029409                    000294090000000000000109                     I0229409     20121800000000035003410000017N291018104700000000000102012180000000000000000000000000000000000000000100062792920700LUIZ CESAR DE OLIVEIRA                  RUA PEREIRA DE FIGUEIREDO               OSWALDO CRUZ21340030RIO DE JANEIRO RJUNIAO UMB DOS CULTOS AFRO BRAS    20121810 000119
10231987175000168817800093673    000029395                    000293950000000000000109                     I3429395     20121800000000035003410000017N291018104700000000000102012180000000000000000000000000000000000000000100003027226703MARCIO ALVES DOS SANTOS                 RUA ESTUDANTE ELIANE CASTANHEIRA        CENTRO      25510242SAO JOAO DE MERRJUNIAO UMB DOS CULTOS AFRO BRAS    20121810 000120
10231987175000168817800093673    000029389                    000293890000000000000109                     I0229389     20121800000000035003410000017N291018104700000000000102012180000000000000000000000000000000000000000100003549035780CARLOS ALBERTO DA SILVA SANTOS          AVENIDA PRESIDENTE DUTRA                VILA DILMA  26085060NOVA IGUACU    RJUNIAO UMB DOS CULTOS AFRO BRAS    20121810 000121
10231987175000168817800093673    000029362                    000293620000000000000109                     I3429362     20121800000000035003410000017N291018104700000000000102012180000000000000000000000000000000000000000100071056319709LAURECI DOS SANTOS                      RUA CANDIDO BENICIO                     PRACA SECA  21321801DUQUE DE CAXIASRJUNIAO UMB DOS CULTOS AFRO BRAS    20121810 000122
10231987175000168817800093673    000029357                    000293570000000000000109                     I3429357     20121800000000035003410000017N291018104700000000000102012180000000000000000000000000000000000000000100011208480758MARIA ANTONIA KIFFER CORREA             AVENIDA MARECHAL HERMES                 VILA SAO LUI25065115DUQUE DE CAXIASRJUNIAO UMB DOS CULTOS AFRO BRAS    20121810 000123
10231987175000168817800093673    000029347                    000293470000000000000109                     I0229347     20121800000000040003410000017N291018104700000000000102012180000000000000000000000000000000000000000100044845251787REGINA CELIA ALMEIDA BASTOS             RUA DERMEVAL LESSA                      PAVUNA      21532330RIO DE JANEIRO RJUNIAO UMB DOS CULTOS AFRO BRAS    20121810 000124
10231987175000168817800093673    000029177                    000291770000000000000109                     I0229177     20121800000000035003410000017N291018104700000000000102012180000000000000000000000000000000000000000100005556657718EDUARDO DE OLIVEIRA SILVA               AVENIDA GETULIO DE MOURA                VILA TIRADEN25520660SAO JOAO DE MERRJUNIAO UMB DOS CULTOS AFRO BRAS    20121810 000125
10231987175000168817800093673    000029124                    000291240000000000000109                     I3429124     20121800000000035003410000017N291018104700000000000102012180000000000000000000000000000000000000000100000120098733MARIA APARECIDA SOUZA DA SILVA          RUA NOVE                                PRAIA DE MAU25930000MAGE           RJUNIAO UMB DOS CULTOS AFRO BRAS    20121810 000126
10231987175000168817800093673    000029098                    000290980000000000000109                     I0229098     20121800000000035003410000017N291018104700000000000102012180000000000000000000000000000000000000000100092053050730SONIA MARIA RODRIGUES LONTRA M          TRAVESSA TITO RABELO                    CAMPO GRANDE23017245RIO DE JANEIRO RJUNIAO UMB DOS CULTOS AFRO BRAS    20121810 000127
10231987175000168817800093673    000029091                    000290910000000000000109                     I0229091     20121800000000035003410000017N291018104700000000000102012180000000000000000000000000000000000000000100090693043768REJANE VIEIRA GOMES                     RUA TAPIRANGA                           PADRE MIGUEL21775470RIO DE JANEIRO RJUNIAO UMB DOS CULTOS AFRO BRAS    20121810 000128
10231987175000168817800093673    000028911                    000289110000000000000109                     I0228911     09111800000000105003410000017N091018104700000000000100911180000000000000000000000000000000000000000100005836497770SIDEAN LEANDRO DOS SANTOS CRUZ          RUA MENDES RIBEIRO                      PATRONATO   24431635SAO GONCALO    RJUNIAO UMB DOS CULTOS AFRO BRAS    09111810 000129
10231987175000168817800093673    000028306                    000283060000000000000109                     I0228306     30111800000000035003410000017N200818104700000000000103011180000000000000000000000000000000000000000100005953749724JUCIARA DA SILVA XAVIER                 RUA CONDE DE AZAMBUJA                   MARIA DA GRA20785342RIO DE JANEIRO RJUNIAO UMB DOS CULTOS AFRO BRAS    30111810 000130
10231987175000168817800093673    000028026                    000280260000000000000109                     I0228026     30111800000000035003410000017N200818104700000000000103011180000000000000000000000000000000000000000100033927499749JORGE CARDOSO DE MACEDO                 RUA G                                   GRANJA SANTA25900000MAGE           RJUNIAO UMB DOS CULTOS AFRO BRAS    30111810 000131
10231987175000168817800093673    000028004                    000280040000000000000109                     I0228004     30111800000000035003410000017N200818104700000000000103011180000000000000000000000000000000000000000100012113754711ANDREZA SALDANHA DA CRUZ                RUA ANA APARICIO                        NOVA EUDORAD26125550BELFORD ROXO   RJUNIAO UMB DOS CULTOS AFRO BRAS    30111810 000132
10231987175000168817800093673    000027913                    000279130000000000000109                     I0227913     30111800000000035003410000017N200818104700000000000103011180000000000000000000000000000000000000000100004790121720IATA ANDERSON JESUS PEREIRA             RUA ITAJUBARA                           RAMOS       21060180RIO DE JANEIRO RJUNIAO UMB DOS CULTOS AFRO BRAS    30111810 000133
10231987175000168817800093673    000027911                    000279110000000000000109                     I0227911     30111800000000035003410000017N200818104700000000000103011180000000000000000000000000000000000000000100010591612739ROSEMERE SOUZA DA SILVA                 ESTRADA DA AGUA GRANDE                  VISTA ALEGRE21230354RIO DE JANEIRO RJUNIAO UMB DOS CULTOS AFRO BRAS    30111810 000134
10231987175000168817800093673    000027895                    000278950000000000000109                     I0227895     30111800000000035003410000017N200818104700000000000103011180000000000000000000000000000000000000000100012874409758CLAUDIA DA SILVA NOBRE DE MIRA          RUA SEIS                                FIGUEIRA - M25930000MAGE           RJUNIAO UMB DOS CULTOS AFRO BRAS    30111810 000135
10231987175000168817800093673    000027851                    000278510000000000000109                     I0227851     30111800000000035003410000017N200818104700000000000103011180000000000000000000000000000000000000000100080728774704NERIANA SILVA DO CARMO                  RUA JOAQUIM QUEIROS                     RAMOS       21061610RIO DE JANEIRO RJUNIAO UMB DOS CULTOS AFRO BRAS    30111810 000136
10231987175000168817800093673    000027826                    000278260000000000000109                     I0227826     30111800000000035003410000017N200818104700000000000103011180000000000000000000000000000000000000000100074597035753LUCIMAR DE SOUZA DIAS                   RUA LIGIA MALAGUTI                      BOMBAS DO GU26357000NOVA IGUACU    RJUNIAO UMB DOS CULTOS AFRO BRAS    30111810 000137
10231987175000168817800093673    000027484                    000274840000000000000109                     I0227484     30111800000000035003410000017N200818104700000000000103011180000000000000000000000000000000000000000100007086192740EMERSON DOS SANTOS FIDELIS              RUA: SEVERINO SANTOS                    SARACURUNA  25212668DUQUE DE CAXIASRJUNIAO UMB DOS CULTOS AFRO BRAS    30111810 000138
10231987175000168817800093673    000027468                    000274680000000000000109                     I3427468     30111800000000035003410000017N200818104700000000000103011180000000000000000000000000000000000000000100003027226703MARCIO ALVES DOS SANTOS                 RUA ESTUDANTE ELIANE CASTANHEIRA        CENTRO      25510242SAO JOAO DE MERRJUNIAO UMB DOS CULTOS AFRO BRAS    30111810 000139
10231987175000168817800093673    000027462                    000274620000000000000109                     I0227462     30111800000000035003410000017N200818104700000000000103011180000000000000000000000000000000000000000100003549035780CARLOS ALBERTO DA SILVA SANTOS          AVENIDA PRESIDENTE DUTRA                VILA DILMA  26085060NOVA IGUACU    RJUNIAO UMB DOS CULTOS AFRO BRAS    30111810 000140
10231987175000168817800093673    000027435                    000274350000000000000109                     I0227435     30111800000000035003410000017N200818104700000000000103011180000000000000000000000000000000000000000100071056319709LAURECI DOS SANTOS                      RUA CANDIDO BENICIO                     PRACA SECA  21321801DUQUE DE CAXIASRJUNIAO UMB DOS CULTOS AFRO BRAS    30111810 000141
10231987175000168817800093673    000027255                    000272550000000000000109                     I0227255     30111800000000035003410000017N200818104700000000000103011180000000000000000000000000000000000000000100054770122772EDUARDO DOS SANTOS REIS NETO            RUA BURITI                              MADUREIRA   20231046RIO DE JANEIRO RJUNIAO UMB DOS CULTOS AFRO BRAS    30111810 000142
10231987175000168817800093673    000027243                    000272430000000000000109                     I0227243     30111800000000035003410000017N200818104700000000000103011180000000000000000000000000000000000000000100005556657718EDUARDO DE OLIVEIRA SILVA               AVENIDA GETULIO DE MOURA                VILA TIRADEN25520660SAO JOAO DE MERRJUNIAO UMB DOS CULTOS AFRO BRAS    30111810 000143
10231987175000168817800093673    000025468                    000254680000000000000109                     I0225468     30101800000000035003410000017N200818104700000000000103010180000000000000000000000000000000000000000100005953749724JUCIARA DA SILVA XAVIER                 RUA CONDE DE AZAMBUJA                   MARIA DA GRA20785342RIO DE JANEIRO RJUNIAO UMB DOS CULTOS AFRO BRAS    30101810 000144
10231987175000168817800093673    000025189                    000251890000000000000109                     I0225189     30101800000000035003410000017N200818104700000000000103010180000000000000000000000000000000000000000100033927499749JORGE CARDOSO DE MACEDO                 RUA G                                   GRANJA SANTA25900000MAGE           RJUNIAO UMB DOS CULTOS AFRO BRAS    30101810 000145
10231987175000168817800093673    000025167                    000251670000000000000109                     I0225167     30101800000000035003410000017N200818104700000000000103010180000000000000000000000000000000000000000100012113754711ANDREZA SALDANHA DA CRUZ                RUA ANA APARICIO                        NOVA EUDORAD26125550BELFORD ROXO   RJUNIAO UMB DOS CULTOS AFRO BRAS    30101810 000146
10231987175000168817800093673    000025076                    000250760000000000000109                     I0225076     30101800000000035003410000017N200818104700000000000103010180000000000000000000000000000000000000000100004790121720IATA ANDERSON JESUS PEREIRA             RUA ITAJUBARA                           RAMOS       21060180RIO DE JANEIRO RJUNIAO UMB DOS CULTOS AFRO BRAS    30101810 000147
10231987175000168817800093673    000025058                    000250580000000000000109                     I0225058     30101800000000035003410000017N200818104700000000000103010180000000000000000000000000000000000000000100012874409758CLAUDIA DA SILVA NOBRE DE MIRA          RUA SEIS                                FIGUEIRA - M25930000MAGE           RJUNIAO UMB DOS CULTOS AFRO BRAS    30101810 000148
10231987175000168817800093673    000024648                    000246480000000000000109                     I0224648     30101800000000035003410000017N200818104700000000000103010180000000000000000000000000000000000000000100007086192740EMERSON DOS SANTOS FIDELIS              RUA: SEVERINO SANTOS                    SARACURUNA  25212668DUQUE DE CAXIASRJUNIAO UMB DOS CULTOS AFRO BRAS    30101810 000149
10231987175000168817800093673    000024632                    000246320000000000000109                     I3424632     30101800000000035003410000017N200818104700000000000103010180000000000000000000000000000000000000000100003027226703MARCIO ALVES DOS SANTOS                 RUA ESTUDANTE ELIANE CASTANHEIRA        CENTRO      25510242SAO JOAO DE MERRJUNIAO UMB DOS CULTOS AFRO BRAS    30101810 000150
10231987175000168817800093673    000024626                    000246260000000000000109                     I0224626     30101800000000035003410000017N200818104700000000000103010180000000000000000000000000000000000000000100003549035780CARLOS ALBERTO DA SILVA SANTOS          AVENIDA PRESIDENTE DUTRA                VILA DILMA  26085060NOVA IGUACU    RJUNIAO UMB DOS CULTOS AFRO BRAS    30101810 000151
10231987175000168817800093673    000024599                    000245990000000000000109                     I0224599     30101800000000035003410000017N200818104700000000000103010180000000000000000000000000000000000000000100071056319709LAURECI DOS SANTOS                      RUA CANDIDO BENICIO                     PRACA SECA  21321801DUQUE DE CAXIASRJUNIAO UMB DOS CULTOS AFRO BRAS    30101810 000152
10231987175000168817800093673    000024421                    000244210000000000000109                     I0224421     30101800000000035003410000017N200818104700000000000103010180000000000000000000000000000000000000000100054770122772EDUARDO DOS SANTOS REIS NETO            RUA BURITI                              MADUREIRA   20231046RIO DE JANEIRO RJUNIAO UMB DOS CULTOS AFRO BRAS    30101810 000153
10231987175000168817800093673    000024409                    000244090000000000000109                     I0224409     30101800000000035003410000017N200818104700000000000103010180000000000000000000000000000000000000000100005556657718EDUARDO DE OLIVEIRA SILVA               AVENIDA GETULIO DE MOURA                VILA TIRADEN25520660SAO JOAO DE MERRJUNIAO UMB DOS CULTOS AFRO BRAS    30101810 000154
9                                                                                                                                                                                                                                                                                                                                                                                                         000155
