01REMESSA01COBRANCA       817800093673        União Umb dos Cultos Afro Bra341BANCO ITAU SA  170119                                                                                                                                                                                                                                                                                                      000001
10231987175000168817800093673    000038702                    000387020000000000000109                     I0238702     30031900000000040003410000017N261218104700000000000103003190000000000000000000000000000000000000000100009082627795LUCIA MARIA DO NASCIMENTO PALM          RUA PAULA BARROS                        VILA DA PENH21221420RIO DE JANEIRO RJUNIAO UMB DOS CULTOS AFRO BRAS    30031910 000002
10231987175000168817800093673    000038664                    000386640000000000000109                     I0238664     30031900000000040003410000017N261218104700000000000103003190000000000000000000000000000000000000000100001123258740ZALA PEREIRA DE OLIVEIRA                RUA CORDEIROPOLIS                       PACIENCIA   23585510RIO DE JANEIRO RJUNIAO UMB DOS CULTOS AFRO BRAS    30031910 000003
10231987175000168817800093673    000038644                    000386440000000000000109                     I0238644     30031900000000040003410000017N261218104700000000000103003190000000000000000000000000000000000000000100005292156752MARCIO VALADARES DOS SANTOS             RUA SETUBAL                             CABUCU      21330560RIO DE JANEIRO RJUNIAO UMB DOS CULTOS AFRO BRAS    30031910 000004
10231987175000168817800093673    000038275                    000382750000000000000109                     I0238275     30031900000000040003410000017N261218104700000000000103003190000000000000000000000000000000000000000100077165772715EDNA SANTOS DA TRINDADE                 RUA PARAISO                             SANTA CRUZ  23560130RIO DE JANEIRO RJUNIAO UMB DOS CULTOS AFRO BRAS    30031910 000005
10231987175000168817800093673    000036784                    000367840000000000000109                     I0236784     28021900000000040003410000017N261218104700000000000102802190000000000000000000000000000000000000000100009082627795LUCIA MARIA DO NASCIMENTO PALM          RUA PAULA BARROS                        VILA DA PENH21221420RIO DE JANEIRO RJUNIAO UMB DOS CULTOS AFRO BRAS    28021910 000006
10231987175000168817800093673    000036746                    000367460000000000000109                     I0236746     28021900000000040003410000017N261218104700000000000102802190000000000000000000000000000000000000000100001123258740ZALA PEREIRA DE OLIVEIRA                RUA CORDEIROPOLIS                       PACIENCIA   23585510RIO DE JANEIRO RJUNIAO UMB DOS CULTOS AFRO BRAS    28021910 000007
10231987175000168817800093673    000036726                    000367260000000000000109                     I0236726     28021900000000040003410000017N261218104700000000000102802190000000000000000000000000000000000000000100005292156752MARCIO VALADARES DOS SANTOS             RUA SETUBAL                             CABUCU      21330560RIO DE JANEIRO RJUNIAO UMB DOS CULTOS AFRO BRAS    28021910 000008
10231987175000168817800093673    000036359                    000363590000000000000109                     I0236359     28021900000000040003410000017N261218104700000000000102802190000000000000000000000000000000000000000100077165772715EDNA SANTOS DA TRINDADE                 RUA PARAISO                             SANTA CRUZ  23560130RIO DE JANEIRO RJUNIAO UMB DOS CULTOS AFRO BRAS    28021910 000009
10231987175000168817800093673    000036009                    000360090000000000000109                     I0236009     28021900000000040003410000017N261218104700000000000102802190000000000000000000000000000000000000000100010084300728RODRIGO ALVES DE PINHO                  RUA JOVITA FEITOSA                      VILA SAO JUD25243570DUQUE DE CAXIASRJUNIAO UMB DOS CULTOS AFRO BRAS    28021910 000010
10231987175000168817800093673    000034874                    000348740000000000000109                     I0234874     31011900000000040003410000017N261218104700000000000103101190000000000000000000000000000000000000000100009082627795LUCIA MARIA DO NASCIMENTO PALM          RUA PAULA BARROS                        VILA DA PENH21221420RIO DE JANEIRO RJUNIAO UMB DOS CULTOS AFRO BRAS    31011910 000011
10231987175000168817800093673    000034836                    000348360000000000000109                     I0234836     31011900000000040003410000017N261218104700000000000103101190000000000000000000000000000000000000000100001123258740ZALA PEREIRA DE OLIVEIRA                RUA CORDEIROPOLIS                       PACIENCIA   23585510RIO DE JANEIRO RJUNIAO UMB DOS CULTOS AFRO BRAS    31011910 000012
10231987175000168817800093673    000034816                    000348160000000000000109                     I0234816     31011900000000040003410000017N261218104700000000000103101190000000000000000000000000000000000000000100005292156752MARCIO VALADARES DOS SANTOS             RUA SETUBAL                             CABUCU      21330560RIO DE JANEIRO RJUNIAO UMB DOS CULTOS AFRO BRAS    31011910 000013
10231987175000168817800093673    000034451                    000344510000000000000109                     I0234451     31011900000000040003410000017N261218104700000000000103101190000000000000000000000000000000000000000100077165772715EDNA SANTOS DA TRINDADE                 RUA PARAISO                             SANTA CRUZ  23560130RIO DE JANEIRO RJUNIAO UMB DOS CULTOS AFRO BRAS    31011910 000014
10231987175000168817800093673    000034104                    000341040000000000000109                     I0234104     31011900000000040003410000017N261218104700000000000103101190000000000000000000000000000000000000000100010084300728RODRIGO ALVES DE PINHO                  RUA JOVITA FEITOSA                      VILA SAO JUD25243570DUQUE DE CAXIASRJUNIAO UMB DOS CULTOS AFRO BRAS    31011910 000015
10231987175000168817800093673    000033145                    000331450000000000000109                     I0233145     20121800000000350003410000017N291018104700000000000102012180000000000000000000000000000000000000000100002176741781SUSI DE OLIVEIRA LOUREIRO               RUA FATIMA CRISTINA                     ROSA DOS VEN26278525RIO DE JANEIRO RJUNIAO UMB DOS CULTOS AFRO BRAS    20121810 000016
10231987175000168817800093673    000032418                    000324180000000000000109                     I0232418     20121800000000350003410000017N291018104700000000000102012180000000000000000000000000000000000000000100047783877753RAIMUNDO NONATO VALENCA RIBEIR          AVENIDA PREFEITO BRAULINO DE MATOS REIS COPACABANA  25060440DUQUE DE CAXIASRJUNIAO UMB DOS CULTOS AFRO BRAS    20121810 000017
10231987175000168817800093673    000032400                    000324000000000000000109                     I0232400     20121800000000350003410000017N291018104700000000000102012180000000000000000000000000000000000000000100009082627795LUCIA MARIA DO NASCIMENTO PALM          RUA PAULA BARROS                        VILA DA PENH21221420RIO DE JANEIRO RJUNIAO UMB DOS CULTOS AFRO BRAS    20121810 000018
10231987175000168817800093673    000032333                    000323330000000000000109                     I0232333     20121800000000350003410000017N291018104700000000000102012180000000000000000000000000000000000000000100001123258740ZALA PEREIRA DE OLIVEIRA                RUA CORDEIROPOLIS                       PACIENCIA   23585510RIO DE JANEIRO RJUNIAO UMB DOS CULTOS AFRO BRAS    20121810 000019
10231987175000168817800093673    000032298                    000322980000000000000109                     I0232298     20121800000000350003410000017N291018104700000000000102012180000000000000000000000000000000000000000100005292156752MARCIO VALADARES DOS SANTOS             RUA SETUBAL                             CABUCU      21330560RIO DE JANEIRO RJUNIAO UMB DOS CULTOS AFRO BRAS    20121810 000020
10231987175000168817800093673    000031740                    000317400000000000000109                     I0131740     18011900000000350003410000017N291018104700000000000101801190000000000000000000000000000000000000000100008774131770CLEYSON MANHAES NERY                    RUA CORONEL BARROS                      PARQUE SARAI28110000CAMPO DOS GOYTARJUNIAO UMB DOS CULTOS AFRO BRAS    18011910 000021
10231987175000168817800093673    000031198                    000311980000000000000109                     I0231198     20121800000000350003410000017N291018104700000000000102012180000000000000000000000000000000000000000100010084300728RODRIGO ALVES DE PINHO                  RUA JOVITA FEITOSA                      VILA SAO JUD25243570DUQUE DE CAXIASRJUNIAO UMB DOS CULTOS AFRO BRAS    20121810 000022
10231987175000168817800093673    000030934                    000309340000000000000109                     I0230934     20121800000000350003410000017N291018104700000000000102012180000000000000000000000000000000000000000100006957328708ANDRE VALERIO DELGADO GOIS E M          RUA TORRES HOMEM                        JARDIM OLAVO25025380DUQUE DE CAXIASRJUNIAO UMB DOS CULTOS AFRO BRAS    20121810 000023
10231987175000168817800093673    000030273                    000302730000000000000109                     I0230273     20121800000000035003410000017N291018104700000000000102012180000000000000000000000000000000000000000100002176741781SUSI DE OLIVEIRA LOUREIRO               RUA FATIMA CRISTINA                     ROSA DOS VEN26278525RIO DE JANEIRO RJUNIAO UMB DOS CULTOS AFRO BRAS    20121810 000024
10231987175000168817800093673    000029857                    000298570000000000000109                     I0229857     20121800000000035003410000017N291018104700000000000102012180000000000000000000000000000000000000000100047783877753RAIMUNDO NONATO VALENCA RIBEIR          AVENIDA PREFEITO BRAULINO DE MATOS REIS COPACABANA  25060440DUQUE DE CAXIASRJUNIAO UMB DOS CULTOS AFRO BRAS    20121810 000025
10231987175000168817800093673    000029318                    000293180000000000000109                     I0229318     20121800000000035003410000017N291018104700000000000102012180000000000000000000000000000000000000000100010084300728RODRIGO ALVES DE PINHO                  RUA JOVITA FEITOSA                      VILA SAO JUD25243570DUQUE DE CAXIASRJUNIAO UMB DOS CULTOS AFRO BRAS    20121810 000026
10231987175000168817800093673    000029218                    000292180000000000000109                     I0229218     20121800000000035003410000017N291018104700000000000102012180000000000000000000000000000000000000000100006957328708ANDRE VALERIO DELGADO GOIS E M          RUA TORRES HOMEM                        JARDIM OLAVO25025380DUQUE DE CAXIASRJUNIAO UMB DOS CULTOS AFRO BRAS    20121810 000027
10231987175000168817800093673    000028393                    000283930000000000000109                     I0228393     30111800000000035003410000017N200818104700000000000103011180000000000000000000000000000000000000000100002176741781SUSI DE OLIVEIRA LOUREIRO               RUA FATIMA CRISTINA                     ROSA DOS VEN26278525RIO DE JANEIRO RJUNIAO UMB DOS CULTOS AFRO BRAS    30111810 000028
10231987175000168817800093673    000027391                    000273910000000000000109                     I0227391     30111800000000035003410000017N200818104700000000000103011180000000000000000000000000000000000000000100010084300728RODRIGO ALVES DE PINHO                  RUA JOVITA FEITOSA                      VILA SAO JUD25243570DUQUE DE CAXIASRJUNIAO UMB DOS CULTOS AFRO BRAS    30111810 000029
9                                                                                                                                                                                                                                                                                                                                                                                                         000030
