01REMESSA01COBRANCA       817800093673        União Umb dos Cultos Afro Bra341BANCO ITAU SA  281218                                                                                                                                                                                                                                                                                                      000001
10231987175000168817800093673    000039375                    000393750000000000000109                     I0239375     28121800000000040003410000017N261218104700000000000102812180000000000000000000000000000000000000000100039056481720ZUILA DE MELO E SILVA COVA              RUA TAMOIOS                             SAO FRANCISC24360380NITEROI        RJUNIAO UMB DOS CULTOS AFRO BRAS    28121810 000002
10231987175000168817800093673    000039274                    000392740000000000000109                     I0239274     30031900000000040003410000017N261218104700000000000103003190000000000000000000000000000000000000000100052873587687MARIA AMELIA DOMINGUES REZENDE          RUA DOS VERANISTAS                      GUARAPARI   29000000ESPIRITO SANTO ESUNIAO UMB DOS CULTOS AFRO BRAS    30031910 000003
10231987175000168817800093673    000039248                    000392480000000000000109                     I0239248     30031900000000040003410000017N261218104700000000000103003190000000000000000000000000000000000000000100062788396791SERGIO LUCAS DE SOUZA                   TRAVESSA CARLOS XAVIER                  MADUREIRA   21310010RIO DE JANEIRO RJUNIAO UMB DOS CULTOS AFRO BRAS    30031910 000004
10231987175000168817800093673    000039133                    000391330000000000000109                     I0239133     30031900000000040003410000017N261218104700000000000103003190000000000000000000000000000000000000000100012003631755ALEXSANDRO CORREA                       RUA DULIO COSTA                         IRAJA       21235410RIO DE JANEIRO RJUNIAO UMB DOS CULTOS AFRO BRAS    30031910 000005
10231987175000168817800093673    000039061                    000390610000000000000109                     I0239061     30031900000000040003410000017N261218104700000000000103003190000000000000000000000000000000000000000100066514118704MARILIA GARCIA DA PAIXAO                RUA FRANCOLIM                           GUADALUPE   21660130RIO DE JANEIRO RJUNIAO UMB DOS CULTOS AFRO BRAS    30031910 000006
10231987175000168817800093673    000038855                    000388550000000000000109                     I0238855     30031900000000040003410000017N261218104700000000000103003190000000000000000000000000000000000000000100063508966704KATIA REGINA SILVA DE SOUZA             RUA CORUMBA                             CARMARI     26021570NOVA IGUACU    RJUNIAO UMB DOS CULTOS AFRO BRAS    30031910 000007
10231987175000168817800093673    000038763                    000387630000000000000109                     I0238763     30031900000000040003410000017N261218104700000000000103003190000000000000000000000000000000000000000100097511145787IVANILDO DA SILVA FERREIRA              AVENIDA NOSSA SENHORA DE COPACABANA     COPACABANA  22050002RIO DE JANEIRO RJUNIAO UMB DOS CULTOS AFRO BRAS    30031910 000008
10231987175000168817800093673    000038653                    000386530000000000000109                     I0238653     30031900000000040003410000017N261218104700000000000103003190000000000000000000000000000000000000000100091102782734ANGELIA PEREIRA ALVIM DE FARIA          RUA QUARENTA E TRES                     BRAS DE PINA21012407RIO DE JANEIRO RJUNIAO UMB DOS CULTOS AFRO BRAS    30031910 000009
10231987175000168817800093673    000038642                    000386420000000000000109                     I0238642     30031900000000040003410000017N261218104700000000000103003190000000000000000000000000000000000000000100007991824780DANIELLE OLIVEIRA DOS SANTOS            RUA GAMO                                JARDIM METRO25575380SAO JOAO DE MERRJUNIAO UMB DOS CULTOS AFRO BRAS    30031910 000010
10231987175000168817800093673    000038480                    000384800000000000000109                     I0238480     30031900000000040003410000017N261218104700000000000103003190000000000000000000000000000000000000000100071823131700EDNAH PEREIRA DOS SANTOS                TRAVESSA MONTE SERRAT                   FONSECA     24130310NITEROI        RJUNIAO UMB DOS CULTOS AFRO BRAS    30031910 000011
10231987175000168817800093673    000038425                    000384250000000000000109                     I0238425     30031900000000040003410000017N261218104700000000000103003190000000000000000000000000000000000000000100026885972720FRANCISCO DE ASSIS MACEDO               RUA MINISTRO MOREIRA ABREU              OLARIA      21071485RIO DE JANEIRO RJUNIAO UMB DOS CULTOS AFRO BRAS    30031910 000012
10231987175000168817800093673    000038343                    000383430000000000000109                     I0238343     30031900000000040003410000017N261218104700000000000103003190000000000000000000000000000000000000000100001556268769ANTONIO CARLOS DA CONCEICAO SA          RUA EMILIA MARTINS                      VILA MARTINS26043010NOVA IGUACU    RJUNIAO UMB DOS CULTOS AFRO BRAS    30031910 000013
10231987175000168817800093673    000038256                    000382560000000000000109                     I0238256     30031900000000040003410000017N261218104700000000000103003190000000000000000000000000000000000000000100049275291772ARINETE GARCIA DA PAIXAO                RUA ROBERT DANON                        GERARD DANON26042201NOVA IGUACU    RJUNIAO UMB DOS CULTOS AFRO BRAS    30031910 000014
10231987175000168817800093673    000038251                    000382510000000000000109                     I0238251     30031900000000040003410000017N261218104700000000000103003190000000000000000000000000000000000000000100041171322704EUCEA GONCALVES BRANDAO                 RUA PEREIRA DE FIGUEIREDO               OSWALDO CRUZ21341030RIO DE JANEIRO RJUNIAO UMB DOS CULTOS AFRO BRAS    30031910 000015
10231987175000168817800093673    000038224                    000382240000000000000109                     I0238224     30031900000000040003410000017N261218104700000000000103003190000000000000000000000000000000000000000100086457640753MARLUCE AUGUSTO BLANCO NOVOA            RUA: REGINA                             PARQUE SUECI21187110BELFORD ROXO   RJUNIAO UMB DOS CULTOS AFRO BRAS    30031910 000016
10231987175000168817800093673    000038011                    000380110000000000000109                     I0238011     30031900000000040003410000017N261218104700000000000103003190000000000000000000000000000000000000000100004256373799ALCIDES FRANCISCO DE ALBUQUERQ          AVENIDA: CALOMBE                        CHACARAS RIO25230050DUQUE DE CAXIASRJUNIAO UMB DOS CULTOS AFRO BRAS    30031910 000017
10231987175000168817800093673    000037969                    000379690000000000000109                     I0237969     30031900000000040003410000017N261218104700000000000103003190000000000000000000000000000000000000000100042447941749MARIA NEIDE DE OLIVEIRA SILVA           RUA PROSPERIDADE                        PILAR       25230080DUQUE DE CAIXASRJUNIAO UMB DOS CULTOS AFRO BRAS    30031910 000018
10231987175000168817800093673    000037941                    000379410000000000000109                     I0237941     30031900000000040003410000017N261218104700000000000103003190000000000000000000000000000000000000000100063712954700SUELHIR MARIA LAURIANO DA SILV          RUA DOUTOR ANDRE                        VILA SAO JUD25243061DUQUE DE CAXIASRJUNIAO UMB DOS CULTOS AFRO BRAS    30031910 000019
10231987175000168817800093673    000037889                    000378890000000000000109                     I0237889     30031900000000040003410000017N261218104700000000000103003190000000000000000000000000000000000000000100012354907770BARBARA CRISTINA DE OLIVEIRA B          RUA PROFESSOR PLINIO OLINTO             BANGU       21860160RIO DE JANEIRO RJUNIAO UMB DOS CULTOS AFRO BRAS    30031910 000020
10231987175000168817800093673    000037853                    000378530000000000000109                     I0237853     30031900000000040003410000017N261218104700000000000103003190000000000000000000000000000000000000000100032508050415ZULEIDE DOS SANTOS MOREIRA              RUA ANTONIO ALEIXO                      GUARATIBA   23028170RIO DE JANEIRO RJUNIAO UMB DOS CULTOS AFRO BRAS    30031910 000021
10231987175000168817800093673    000037825                    000378250000000000000109                     I0237825     30031900000000040003410000017N261218104700000000000103003190000000000000000000000000000000000000000100066346320734MARIA CRISPINA REIS                     RUA ZEFERINO                            VILA EMIL   26235290MESQUITA       RJUNIAO UMB DOS CULTOS AFRO BRAS    30031910 000022
10231987175000168817800093673    000037722                    000377220000000000000109                     I0237722     30031900000000040003410000017N261218104700000000000103003190000000000000000000000000000000000000000100000321640764EDIR SOUZA DE ALMEIDA                   RUA ADEMARIO FIGUEIREDO                 MUTUA       24461350SAO GONCALO    RJUNIAO UMB DOS CULTOS AFRO BRAS    30031910 000023
10231987175000168817800093673    000037505                    000375050000000000000109                     I0237505     30031900000000040003410000017N261218104700000000000103003190000000000000000000000000000000000000000100028711459700LEA MARIA GOMES FERREIRA                AVENIDA CANAL                           VILAR DOS TE25560510SAO JOAO DE MERRJUNIAO UMB DOS CULTOS AFRO BRAS    30031910 000024
10231987175000168817800093673    000037503                    000375030000000000000109                     I0237503     30031900000000040003410000017N261218104700000000000103003190000000000000000000000000000000000000000100000000000574IRACEMA HEMERENCIANO TORRES BA          RUA RIO GRANDE DO SUL                   STA CRUZ DA 25243610DUQUE DE CAXIASRJUNIAO UMB DOS CULTOS AFRO BRAS    30031910 000025
10231987175000168817800093673    000037498                    000374980000000000000109                     I0237498     30031900000000040003410000017N261218104700000000000103003190000000000000000000000000000000000000000100000000000562ALEXANDRE RIBEIRO DE SOUZA              AVENIDA RIO CALOMBE                     PARQUE CAPIV25231020DUQUE DE CAXIASRJUNIAO UMB DOS CULTOS AFRO BRAS    30031910 000026
10231987175000168817800093673    000037485                    000374850000000000000109                     I0237485     30031900000000020003410000017N261218104700000000000103003190000000000000000000000000000000000000000100042799023720MARIA DAS DORES SANTOS                  ESTRADA DO AREAL                        BOA VISTA DA27165000BARRA DO PIRAI RJUNIAO UMB DOS CULTOS AFRO BRAS    30031910 000027
10231987175000168817800093673    000037355                    000373550000000000000109                     I0237355     28021900000000040003410000017N261218104700000000000102802190000000000000000000000000000000000000000100052873587687MARIA AMELIA DOMINGUES REZENDE          RUA DOS VERANISTAS                      GUARAPARI   29000000ESPIRITO SANTO ESUNIAO UMB DOS CULTOS AFRO BRAS    28021910 000028
10231987175000168817800093673    000037329                    000373290000000000000109                     I0237329     28021900000000040003410000017N261218104700000000000102802190000000000000000000000000000000000000000100062788396791SERGIO LUCAS DE SOUZA                   TRAVESSA CARLOS XAVIER                  MADUREIRA   21310010RIO DE JANEIRO RJUNIAO UMB DOS CULTOS AFRO BRAS    28021910 000029
10231987175000168817800093673    000037214                    000372140000000000000109                     I0237214     28021900000000040003410000017N261218104700000000000102802190000000000000000000000000000000000000000100012003631755ALEXSANDRO CORREA                       RUA DULIO COSTA                         IRAJA       21235410RIO DE JANEIRO RJUNIAO UMB DOS CULTOS AFRO BRAS    28021910 000030
10231987175000168817800093673    000037142                    000371420000000000000109                     I0237142     28021900000000040003410000017N261218104700000000000102802190000000000000000000000000000000000000000100066514118704MARILIA GARCIA DA PAIXAO                RUA FRANCOLIM                           GUADALUPE   21660130RIO DE JANEIRO RJUNIAO UMB DOS CULTOS AFRO BRAS    28021910 000031
10231987175000168817800093673    000036936                    000369360000000000000109                     I0236936     28021900000000040003410000017N261218104700000000000102802190000000000000000000000000000000000000000100063508966704KATIA REGINA SILVA DE SOUZA             RUA CORUMBA                             CARMARI     26021570NOVA IGUACU    RJUNIAO UMB DOS CULTOS AFRO BRAS    28021910 000032
10231987175000168817800093673    000036844                    000368440000000000000109                     I0236844     28021900000000040003410000017N261218104700000000000102802190000000000000000000000000000000000000000100097511145787IVANILDO DA SILVA FERREIRA              AVENIDA NOSSA SENHORA DE COPACABANA     COPACABANA  22050002RIO DE JANEIRO RJUNIAO UMB DOS CULTOS AFRO BRAS    28021910 000033
10231987175000168817800093673    000036735                    000367350000000000000109                     I0236735     28021900000000040003410000017N261218104700000000000102802190000000000000000000000000000000000000000100091102782734ANGELIA PEREIRA ALVIM DE FARIA          RUA QUARENTA E TRES                     BRAS DE PINA21012407RIO DE JANEIRO RJUNIAO UMB DOS CULTOS AFRO BRAS    28021910 000034
10231987175000168817800093673    000036724                    000367240000000000000109                     I0236724     28021900000000040003410000017N261218104700000000000102802190000000000000000000000000000000000000000100007991824780DANIELLE OLIVEIRA DOS SANTOS            RUA GAMO                                JARDIM METRO25575380SAO JOAO DE MERRJUNIAO UMB DOS CULTOS AFRO BRAS    28021910 000035
10231987175000168817800093673    000036563                    000365630000000000000109                     I0236563     28021900000000040003410000017N261218104700000000000102802190000000000000000000000000000000000000000100071823131700EDNAH PEREIRA DOS SANTOS                TRAVESSA MONTE SERRAT                   FONSECA     24130310NITEROI        RJUNIAO UMB DOS CULTOS AFRO BRAS    28021910 000036
10231987175000168817800093673    000036508                    000365080000000000000109                     I0236508     28021900000000040003410000017N261218104700000000000102802190000000000000000000000000000000000000000100026885972720FRANCISCO DE ASSIS MACEDO               RUA MINISTRO MOREIRA ABREU              OLARIA      21071485RIO DE JANEIRO RJUNIAO UMB DOS CULTOS AFRO BRAS    28021910 000037
10231987175000168817800093673    000036426                    000364260000000000000109                     I0236426     28021900000000040003410000017N261218104700000000000102802190000000000000000000000000000000000000000100001556268769ANTONIO CARLOS DA CONCEICAO SA          RUA EMILIA MARTINS                      VILA MARTINS26043010NOVA IGUACU    RJUNIAO UMB DOS CULTOS AFRO BRAS    28021910 000038
10231987175000168817800093673    000036340                    000363400000000000000109                     I0236340     28021900000000040003410000017N261218104700000000000102802190000000000000000000000000000000000000000100049275291772ARINETE GARCIA DA PAIXAO                RUA ROBERT DANON                        GERARD DANON26042201NOVA IGUACU    RJUNIAO UMB DOS CULTOS AFRO BRAS    28021910 000039
10231987175000168817800093673    000036335                    000363350000000000000109                     I0236335     28021900000000040003410000017N261218104700000000000102802190000000000000000000000000000000000000000100041171322704EUCEA GONCALVES BRANDAO                 RUA PEREIRA DE FIGUEIREDO               OSWALDO CRUZ21341030RIO DE JANEIRO RJUNIAO UMB DOS CULTOS AFRO BRAS    28021910 000040
10231987175000168817800093673    000036308                    000363080000000000000109                     I0236308     28021900000000040003410000017N261218104700000000000102802190000000000000000000000000000000000000000100086457640753MARLUCE AUGUSTO BLANCO NOVOA            RUA: REGINA                             PARQUE SUECI21187110BELFORD ROXO   RJUNIAO UMB DOS CULTOS AFRO BRAS    28021910 000041
10231987175000168817800093673    000036096                    000360960000000000000109                     I0236096     28021900000000040003410000017N261218104700000000000102802190000000000000000000000000000000000000000100004256373799ALCIDES FRANCISCO DE ALBUQUERQ          AVENIDA: CALOMBE                        CHACARAS RIO25230050DUQUE DE CAXIASRJUNIAO UMB DOS CULTOS AFRO BRAS    28021910 000042
10231987175000168817800093673    000036054                    000360540000000000000109                     I0236054     28021900000000040003410000017N261218104700000000000102802190000000000000000000000000000000000000000100042447941749MARIA NEIDE DE OLIVEIRA SILVA           RUA PROSPERIDADE                        PILAR       25230080DUQUE DE CAIXASRJUNIAO UMB DOS CULTOS AFRO BRAS    28021910 000043
10231987175000168817800093673    000036026                    000360260000000000000109                     I0236026     28021900000000040003410000017N261218104700000000000102802190000000000000000000000000000000000000000100063712954700SUELHIR MARIA LAURIANO DA SILV          RUA DOUTOR ANDRE                        VILA SAO JUD25243061DUQUE DE CAXIASRJUNIAO UMB DOS CULTOS AFRO BRAS    28021910 000044
10231987175000168817800093673    000035974                    000359740000000000000109                     I0235974     28021900000000040003410000017N261218104700000000000102802190000000000000000000000000000000000000000100012354907770BARBARA CRISTINA DE OLIVEIRA B          RUA PROFESSOR PLINIO OLINTO             BANGU       21860160RIO DE JANEIRO RJUNIAO UMB DOS CULTOS AFRO BRAS    28021910 000045
10231987175000168817800093673    000035938                    000359380000000000000109                     I0235938     28021900000000040003410000017N261218104700000000000102802190000000000000000000000000000000000000000100032508050415ZULEIDE DOS SANTOS MOREIRA              RUA ANTONIO ALEIXO                      GUARATIBA   23028170RIO DE JANEIRO RJUNIAO UMB DOS CULTOS AFRO BRAS    28021910 000046
10231987175000168817800093673    000035911                    000359110000000000000109                     I0235911     28021900000000040003410000017N261218104700000000000102802190000000000000000000000000000000000000000100066346320734MARIA CRISPINA REIS                     RUA ZEFERINO                            VILA EMIL   26235290MESQUITA       RJUNIAO UMB DOS CULTOS AFRO BRAS    28021910 000047
10231987175000168817800093673    000035809                    000358090000000000000109                     I0235809     28021900000000040003410000017N261218104700000000000102802190000000000000000000000000000000000000000100000321640764EDIR SOUZA DE ALMEIDA                   RUA ADEMARIO FIGUEIREDO                 MUTUA       24461350SAO GONCALO    RJUNIAO UMB DOS CULTOS AFRO BRAS    28021910 000048
10231987175000168817800093673    000035593                    000355930000000000000109                     I0235593     28021900000000040003410000017N261218104700000000000102802190000000000000000000000000000000000000000100028711459700LEA MARIA GOMES FERREIRA                AVENIDA CANAL                           VILAR DOS TE25560510SAO JOAO DE MERRJUNIAO UMB DOS CULTOS AFRO BRAS    28021910 000049
10231987175000168817800093673    000035591                    000355910000000000000109                     I0235591     28021900000000040003410000017N261218104700000000000102802190000000000000000000000000000000000000000100000000000574IRACEMA HEMERENCIANO TORRES BA          RUA RIO GRANDE DO SUL                   STA CRUZ DA 25243610DUQUE DE CAXIASRJUNIAO UMB DOS CULTOS AFRO BRAS    28021910 000050
10231987175000168817800093673    000035586                    000355860000000000000109                     I0235586     28021900000000040003410000017N261218104700000000000102802190000000000000000000000000000000000000000100000000000562ALEXANDRE RIBEIRO DE SOUZA              AVENIDA RIO CALOMBE                     PARQUE CAPIV25231020DUQUE DE CAXIASRJUNIAO UMB DOS CULTOS AFRO BRAS    28021910 000051
10231987175000168817800093673    000035573                    000355730000000000000109                     I0235573     28021900000000020003410000017N261218104700000000000102802190000000000000000000000000000000000000000100042799023720MARIA DAS DORES SANTOS                  ESTRADA DO AREAL                        BOA VISTA DA27165000BARRA DO PIRAI RJUNIAO UMB DOS CULTOS AFRO BRAS    28021910 000052
10231987175000168817800093673    000035442                    000354420000000000000109                     I0235442     31011900000000040003410000017N261218104700000000000103101190000000000000000000000000000000000000000100052873587687MARIA AMELIA DOMINGUES REZENDE          RUA DOS VERANISTAS                      GUARAPARI   29000000ESPIRITO SANTO ESUNIAO UMB DOS CULTOS AFRO BRAS    31011910 000053
10231987175000168817800093673    000035416                    000354160000000000000109                     I0235416     31011900000000040003410000017N261218104700000000000103101190000000000000000000000000000000000000000100062788396791SERGIO LUCAS DE SOUZA                   TRAVESSA CARLOS XAVIER                  MADUREIRA   21310010RIO DE JANEIRO RJUNIAO UMB DOS CULTOS AFRO BRAS    31011910 000054
10231987175000168817800093673    000035302                    000353020000000000000109                     I0235302     31011900000000040003410000017N261218104700000000000103101190000000000000000000000000000000000000000100012003631755ALEXSANDRO CORREA                       RUA DULIO COSTA                         IRAJA       21235410RIO DE JANEIRO RJUNIAO UMB DOS CULTOS AFRO BRAS    31011910 000055
10231987175000168817800093673    000035231                    000352310000000000000109                     I0235231     31011900000000040003410000017N261218104700000000000103101190000000000000000000000000000000000000000100066514118704MARILIA GARCIA DA PAIXAO                RUA FRANCOLIM                           GUADALUPE   21660130RIO DE JANEIRO RJUNIAO UMB DOS CULTOS AFRO BRAS    31011910 000056
10231987175000168817800093673    000035026                    000350260000000000000109                     I0235026     31011900000000040003410000017N261218104700000000000103101190000000000000000000000000000000000000000100063508966704KATIA REGINA SILVA DE SOUZA             RUA CORUMBA                             CARMARI     26021570NOVA IGUACU    RJUNIAO UMB DOS CULTOS AFRO BRAS    31011910 000057
10231987175000168817800093673    000034934                    000349340000000000000109                     I0234934     31011900000000040003410000017N261218104700000000000103101190000000000000000000000000000000000000000100097511145787IVANILDO DA SILVA FERREIRA              AVENIDA NOSSA SENHORA DE COPACABANA     COPACABANA  22050002RIO DE JANEIRO RJUNIAO UMB DOS CULTOS AFRO BRAS    31011910 000058
10231987175000168817800093673    000034825                    000348250000000000000109                     I0234825     31011900000000040003410000017N261218104700000000000103101190000000000000000000000000000000000000000100091102782734ANGELIA PEREIRA ALVIM DE FARIA          RUA QUARENTA E TRES                     BRAS DE PINA21012407RIO DE JANEIRO RJUNIAO UMB DOS CULTOS AFRO BRAS    31011910 000059
10231987175000168817800093673    000034814                    000348140000000000000109                     I0234814     31011900000000040003410000017N261218104700000000000103101190000000000000000000000000000000000000000100007991824780DANIELLE OLIVEIRA DOS SANTOS            RUA GAMO                                JARDIM METRO25575380SAO JOAO DE MERRJUNIAO UMB DOS CULTOS AFRO BRAS    31011910 000060
10231987175000168817800093673    000034654                    000346540000000000000109                     I0234654     31011900000000040003410000017N261218104700000000000103101190000000000000000000000000000000000000000100071823131700EDNAH PEREIRA DOS SANTOS                TRAVESSA MONTE SERRAT                   FONSECA     24130310NITEROI        RJUNIAO UMB DOS CULTOS AFRO BRAS    31011910 000061
10231987175000168817800093673    000034599                    000345990000000000000109                     I0234599     31011900000000040003410000017N261218104700000000000103101190000000000000000000000000000000000000000100026885972720FRANCISCO DE ASSIS MACEDO               RUA MINISTRO MOREIRA ABREU              OLARIA      21071485RIO DE JANEIRO RJUNIAO UMB DOS CULTOS AFRO BRAS    31011910 000062
10231987175000168817800093673    000034517                    000345170000000000000109                     I0234517     31011900000000040003410000017N261218104700000000000103101190000000000000000000000000000000000000000100001556268769ANTONIO CARLOS DA CONCEICAO SA          RUA EMILIA MARTINS                      VILA MARTINS26043010NOVA IGUACU    RJUNIAO UMB DOS CULTOS AFRO BRAS    31011910 000063
10231987175000168817800093673    000034432                    000344320000000000000109                     I0234432     31011900000000040003410000017N261218104700000000000103101190000000000000000000000000000000000000000100049275291772ARINETE GARCIA DA PAIXAO                RUA ROBERT DANON                        GERARD DANON26042201NOVA IGUACU    RJUNIAO UMB DOS CULTOS AFRO BRAS    31011910 000064
10231987175000168817800093673    000034427                    000344270000000000000109                     I0234427     31011900000000040003410000017N261218104700000000000103101190000000000000000000000000000000000000000100041171322704EUCEA GONCALVES BRANDAO                 RUA PEREIRA DE FIGUEIREDO               OSWALDO CRUZ21341030RIO DE JANEIRO RJUNIAO UMB DOS CULTOS AFRO BRAS    31011910 000065
10231987175000168817800093673    000034400                    000344000000000000000109                     I0234400     31011900000000040003410000017N261218104700000000000103101190000000000000000000000000000000000000000100086457640753MARLUCE AUGUSTO BLANCO NOVOA            RUA: REGINA                             PARQUE SUECI21187110BELFORD ROXO   RJUNIAO UMB DOS CULTOS AFRO BRAS    31011910 000066
10231987175000168817800093673    000034190                    000341900000000000000109                     I0234190     31011900000000040003410000017N261218104700000000000103101190000000000000000000000000000000000000000100004256373799ALCIDES FRANCISCO DE ALBUQUERQ          AVENIDA: CALOMBE                        CHACARAS RIO25230050DUQUE DE CAXIASRJUNIAO UMB DOS CULTOS AFRO BRAS    31011910 000067
10231987175000168817800093673    000034149                    000341490000000000000109                     I0234149     31011900000000040003410000017N261218104700000000000103101190000000000000000000000000000000000000000100042447941749MARIA NEIDE DE OLIVEIRA SILVA           RUA PROSPERIDADE                        PILAR       25230080DUQUE DE CAIXASRJUNIAO UMB DOS CULTOS AFRO BRAS    31011910 000068
10231987175000168817800093673    000034121                    000341210000000000000109                     I0234121     31011900000000040003410000017N261218104700000000000103101190000000000000000000000000000000000000000100063712954700SUELHIR MARIA LAURIANO DA SILV          RUA DOUTOR ANDRE                        VILA SAO JUD25243061DUQUE DE CAXIASRJUNIAO UMB DOS CULTOS AFRO BRAS    31011910 000069
10231987175000168817800093673    000034070                    000340700000000000000109                     I0234070     31011900000000040003410000017N261218104700000000000103101190000000000000000000000000000000000000000100012354907770BARBARA CRISTINA DE OLIVEIRA B          RUA PROFESSOR PLINIO OLINTO             BANGU       21860160RIO DE JANEIRO RJUNIAO UMB DOS CULTOS AFRO BRAS    31011910 000070
10231987175000168817800093673    000034034                    000340340000000000000109                     I0234034     31011900000000040003410000017N261218104700000000000103101190000000000000000000000000000000000000000100032508050415ZULEIDE DOS SANTOS MOREIRA              RUA ANTONIO ALEIXO                      GUARATIBA   23028170RIO DE JANEIRO RJUNIAO UMB DOS CULTOS AFRO BRAS    31011910 000071
10231987175000168817800093673    000034007                    000340070000000000000109                     I0234007     31011900000000040003410000017N261218104700000000000103101190000000000000000000000000000000000000000100066346320734MARIA CRISPINA REIS                     RUA ZEFERINO                            VILA EMIL   26235290MESQUITA       RJUNIAO UMB DOS CULTOS AFRO BRAS    31011910 000072
10231987175000168817800093673    000033906                    000339060000000000000109                     I0233906     31011900000000040003410000017N261218104700000000000103101190000000000000000000000000000000000000000100000321640764EDIR SOUZA DE ALMEIDA                   RUA ADEMARIO FIGUEIREDO                 MUTUA       24461350SAO GONCALO    RJUNIAO UMB DOS CULTOS AFRO BRAS    31011910 000073
10231987175000168817800093673    000033693                    000336930000000000000109                     I0233693     31011900000000040003410000017N261218104700000000000103101190000000000000000000000000000000000000000100028711459700LEA MARIA GOMES FERREIRA                AVENIDA CANAL                           VILAR DOS TE25560510SAO JOAO DE MERRJUNIAO UMB DOS CULTOS AFRO BRAS    31011910 000074
10231987175000168817800093673    000033691                    000336910000000000000109                     I0233691     31011900000000040003410000017N261218104700000000000103101190000000000000000000000000000000000000000100000000000574IRACEMA HEMERENCIANO TORRES BA          RUA RIO GRANDE DO SUL                   STA CRUZ DA 25243610DUQUE DE CAXIASRJUNIAO UMB DOS CULTOS AFRO BRAS    31011910 000075
10231987175000168817800093673    000033686                    000336860000000000000109                     I0233686     31011900000000040003410000017N261218104700000000000103101190000000000000000000000000000000000000000100000000000562ALEXANDRE RIBEIRO DE SOUZA              AVENIDA RIO CALOMBE                     PARQUE CAPIV25231020DUQUE DE CAXIASRJUNIAO UMB DOS CULTOS AFRO BRAS    31011910 000076
10231987175000168817800093673    000033673                    000336730000000000000109                     I0233673     31011900000000020003410000017N261218104700000000000103101190000000000000000000000000000000000000000100042799023720MARIA DAS DORES SANTOS                  ESTRADA DO AREAL                        BOA VISTA DA27165000BARRA DO PIRAI RJUNIAO UMB DOS CULTOS AFRO BRAS    31011910 000077
10231987175000168817800093673    000033638                    000336380000000000000109                     I0233638     26121800000000080003410000017N231218104700000000000102612180000000000000000000000000000000000000000100058657231700IMPERALINA OLIVEIRA COSTA               RUA VISCONDE DE BARBACENA               SARACURUNA  25000000DUQUE DE CAXIASRJUNIAO UMB DOS CULTOS AFRO BRAS    26121810 000078
10231987175000168817800093673    000033234                    000332340000000000000109                     I0233234     20121800000000350003410000017N291018104700000000000102012180000000000000000000000000000000000000000100052873587687MARIA AMELIA DOMINGUES REZENDE          RUA DOS VERANISTAS                      GUARAPARI   29000000ESPIRITO SANTO ESUNIAO UMB DOS CULTOS AFRO BRAS    20121810 000079
10231987175000168817800093673    000033201                    000332010000000000000109                     I0233201     20121800000000350003410000017N291018104700000000000102012180000000000000000000000000000000000000000100062788396791SERGIO LUCAS DE SOUZA                   TRAVESSA CARLOS XAVIER                  MADUREIRA   21310010RIO DE JANEIRO RJUNIAO UMB DOS CULTOS AFRO BRAS    20121810 000080
10231987175000168817800093673    000033024                    000330240000000000000109                     I0233024     20121800000000350003410000017N291018104700000000000102012180000000000000000000000000000000000000000100012003631755ALEXSANDRO CORREA                       RUA DULIO COSTA                         IRAJA       21235410RIO DE JANEIRO RJUNIAO UMB DOS CULTOS AFRO BRAS    20121810 000081
10231987175000168817800093673    000032908                    000329080000000000000109                     I0232908     20121800000000350003410000017N291018104700000000000102012180000000000000000000000000000000000000000100066514118704MARILIA GARCIA DA PAIXAO                RUA FRANCOLIM                           GUADALUPE   21660130RIO DE JANEIRO RJUNIAO UMB DOS CULTOS AFRO BRAS    20121810 000082
10231987175000168817800093673    000032606                    000326060000000000000109                     I0232606     20121800000000400003410000017N291018104700000000000102012180000000000000000000000000000000000000000100063508966704KATIA REGINA SILVA DE SOUZA             RUA CORUMBA                             CARMARI     26021570NOVA IGUACU    RJUNIAO UMB DOS CULTOS AFRO BRAS    20121810 000083
10231987175000168817800093673    000032489                    000324890000000000000109                     I0232489     20121800000000350003410000017N291018104700000000000102012180000000000000000000000000000000000000000100097511145787IVANILDO DA SILVA FERREIRA              AVENIDA NOSSA SENHORA DE COPACABANA     COPACABANA  22050002RIO DE JANEIRO RJUNIAO UMB DOS CULTOS AFRO BRAS    20121810 000084
10231987175000168817800093673    000032311                    000323110000000000000109                     I0232311     20121800000000350003410000017N291018104700000000000102012180000000000000000000000000000000000000000100091102782734ANGELIA PEREIRA ALVIM DE FARIA          RUA QUARENTA E TRES                     BRAS DE PINA21012407RIO DE JANEIRO RJUNIAO UMB DOS CULTOS AFRO BRAS    20121810 000085
10231987175000168817800093673    000032293                    000322930000000000000109                     I0232293     20121800000000350003410000017N291018104700000000000102012180000000000000000000000000000000000000000100007991824780DANIELLE OLIVEIRA DOS SANTOS            RUA GAMO                                JARDIM METRO25575380SAO JOAO DE MERRJUNIAO UMB DOS CULTOS AFRO BRAS    20121810 000086
10231987175000168817800093673    000032053                    000320530000000000000109                     I0232053     20121800000000350003410000017N291018104700000000000102012180000000000000000000000000000000000000000100071823131700EDNAH PEREIRA DOS SANTOS                TRAVESSA MONTE SERRAT                   FONSECA     24130310NITEROI        RJUNIAO UMB DOS CULTOS AFRO BRAS    20121810 000087
10231987175000168817800093673    000031974                    000319740000000000000109                     I0231974     20121800000000350003410000017N291018104700000000000102012180000000000000000000000000000000000000000100026885972720FRANCISCO DE ASSIS MACEDO               RUA MINISTRO MOREIRA ABREU              OLARIA      21071485RIO DE JANEIRO RJUNIAO UMB DOS CULTOS AFRO BRAS    20121810 000088
10231987175000168817800093673    000031885                    000318850000000000000109                     I0231885     20121800000000350003410000017N291018104700000000000102012180000000000000000000000000000000000000000100024391573768RENATO SILVA HOTTZ                      RUA GENERAL PEREIRA DA SILVA            ICARAI      24220031NITEROI        RJUNIAO UMB DOS CULTOS AFRO BRAS    20121810 000089
10231987175000168817800093673    000031850                    000318500000000000000109                     I0231850     20121800000000350003410000017N291018104700000000000102012180000000000000000000000000000000000000000100001556268769ANTONIO CARLOS DA CONCEICAO SA          RUA EMILIA MARTINS                      VILA MARTINS26043010NOVA IGUACU    RJUNIAO UMB DOS CULTOS AFRO BRAS    20121810 000090
10231987175000168817800093673    000031721                    000317210000000000000109                     I0231721     20121800000000350003410000017N291018104700000000000102012180000000000000000000000000000000000000000100049275291772ARINETE GARCIA DA PAIXAO                RUA ROBERT DANON                        GERARD DANON26042201NOVA IGUACU    RJUNIAO UMB DOS CULTOS AFRO BRAS    20121810 000091
10231987175000168817800093673    000031713                    000317130000000000000109                     I0231713     20121800000000350003410000017N291018104700000000000102012180000000000000000000000000000000000000000100041171322704EUCEA GONCALVES BRANDAO                 RUA PEREIRA DE FIGUEIREDO               OSWALDO CRUZ21341030RIO DE JANEIRO RJUNIAO UMB DOS CULTOS AFRO BRAS    20121810 000092
10231987175000168817800093673    000031673                    000316730000000000000109                     I0231673     20121800000000350003410000017N291018104700000000000102012180000000000000000000000000000000000000000100086457640753MARLUCE AUGUSTO BLANCO NOVOA            RUA: REGINA                             PARQUE SUECI21187110BELFORD ROXO   RJUNIAO UMB DOS CULTOS AFRO BRAS    20121810 000093
10231987175000168817800093673    000031343                    000313430000000000000109                     I0231343     20121800000000350003410000017N291018104700000000000102012180000000000000000000000000000000000000000100004256373799ALCIDES FRANCISCO DE ALBUQUERQ          AVENIDA: CALOMBE                        CHACARAS RIO25230050DUQUE DE CAXIASRJUNIAO UMB DOS CULTOS AFRO BRAS    20121810 000094
10231987175000168817800093673    000031272                    000312720000000000000109                     I0231272     20121800000000350003410000017N291018104700000000000102012180000000000000000000000000000000000000000100042447941749MARIA NEIDE DE OLIVEIRA SILVA           RUA PROSPERIDADE                        PILAR       25230080DUQUE DE CAIXASRJUNIAO UMB DOS CULTOS AFRO BRAS    20121810 000095
10231987175000168817800093673    000031229                    000312290000000000000109                     I0231229     20121800000000350003410000017N291018104700000000000102012180000000000000000000000000000000000000000100063712954700SUELHIR MARIA LAURIANO DA SILV          RUA DOUTOR ANDRE                        VILA SAO JUD25243061DUQUE DE CAXIASRJUNIAO UMB DOS CULTOS AFRO BRAS    20121810 000096
10231987175000168817800093673    000031138                    000311380000000000000109                     I0231138     20121800000000350003410000017N291018104700000000000102012180000000000000000000000000000000000000000100012354907770BARBARA CRISTINA DE OLIVEIRA B          RUA PROFESSOR PLINIO OLINTO             BANGU       21860160RIO DE JANEIRO RJUNIAO UMB DOS CULTOS AFRO BRAS    20121810 000097
10231987175000168817800093673    000031075                    000310750000000000000109                     I0231075     20121800000000350003410000017N291018104700000000000102012180000000000000000000000000000000000000000100032508050415ZULEIDE DOS SANTOS MOREIRA              RUA ANTONIO ALEIXO                      GUARATIBA   23028170RIO DE JANEIRO RJUNIAO UMB DOS CULTOS AFRO BRAS    20121810 000098
10231987175000168817800093673    000031028                    000310280000000000000109                     I0231028     20121800000000350003410000017N291018104700000000000102012180000000000000000000000000000000000000000100066346320734MARIA CRISPINA REIS                     RUA ZEFERINO                            VILA EMIL   26235290MESQUITA       RJUNIAO UMB DOS CULTOS AFRO BRAS    20121810 000099
10231987175000168817800093673    000030864                    000308640000000000000109                     I0230864     20121800000000350003410000017N291018104700000000000102012180000000000000000000000000000000000000000100000321640764EDIR SOUZA DE ALMEIDA                   RUA ADEMARIO FIGUEIREDO                 MUTUA       24461350SAO GONCALO    RJUNIAO UMB DOS CULTOS AFRO BRAS    20121810 000100
10231987175000168817800093673    000030486                    000304860000000000000109                     I0230486     20121800000000350003410000017N291018104700000000000102012180000000000000000000000000000000000000000100028711459700LEA MARIA GOMES FERREIRA                AVENIDA CANAL                           VILAR DOS TE25560510SAO JOAO DE MERRJUNIAO UMB DOS CULTOS AFRO BRAS    20121810 000101
10231987175000168817800093673    000030484                    000304840000000000000109                     I0230484     20121800000000350003410000017N291018104700000000000102012180000000000000000000000000000000000000000100000000000574IRACEMA HEMERENCIANO TORRES BA          RUA RIO GRANDE DO SUL                   STA CRUZ DA 25243610DUQUE DE CAXIASRJUNIAO UMB DOS CULTOS AFRO BRAS    20121810 000102
10231987175000168817800093673    000030479                    000304790000000000000109                     I0230479     20121800000000350003410000017N291018104700000000000102012180000000000000000000000000000000000000000100000000000562ALEXANDRE RIBEIRO DE SOUZA              AVENIDA RIO CALOMBE                     PARQUE CAPIV25231020DUQUE DE CAXIASRJUNIAO UMB DOS CULTOS AFRO BRAS    20121810 000103
10231987175000168817800093673    000030392                    000303920000000000000109                     I0230392     20121800000000040003410000017N291018104700000000000102012180000000000000000000000000000000000000000100008379116720ALLAN SOUZA PEREIRA FERREIRA            BECO DOS SONHOS                         SANTA CRUZ  23591400RIO DE JANEIRO RJUNIAO UMB DOS CULTOS AFRO BRAS    20121810 000104
10231987175000168817800093673    000030168                    000301680000000000000109                     I0230168     20121800000000035003410000017N291018104700000000000102012180000000000000000000000000000000000000000100000839586736MAURO CESAR BRANCO OBERLAENDER          RUA IGUARIM                             REALENGO    21765540RIO DE JANEIRO RJUNIAO UMB DOS CULTOS AFRO BRAS    20121810 000105
10231987175000168817800093673    000030043                    000300430000000000000109                     I0230043     20121800000000035003410000017N291018104700000000000102012180000000000000000000000000000000000000000100057231737749ELIZABETE CARVALHO COSTA                RUA EXPEDICIONARIO SIMAO FERNANDES      COLUMBANDE  24451700SAO GONCALO    RJUNIAO UMB DOS CULTOS AFRO BRAS    20121810 000106
10231987175000168817800093673    000029583                    000295830000000000000109                     I0229583     20121800000000035003410000017N291018104700000000000102012180000000000000000000000000000000000000000100002558274740RITA DE CASSIA BRITO DE SOUZA           RUA HOMERO PINTO CAPUTO                 BANGU       21863080RIO DE JANEIRO RJUNIAO UMB DOS CULTOS AFRO BRAS    20121810 000107
10231987175000168817800093673    000029464                    000294640000000000000109                     I0229464     20121800000000035003410000017N291018104700000000000102012180000000000000000000000000000000000000000100088341534720RAIMUNDA BERNADINA DE OLIVEIRA          RUA 4                                   ROCINHA - GA22451530RIO DE JANEIRO RJUNIAO UMB DOS CULTOS AFRO BRAS    20121810 000108
10231987175000168817800093673    000029391                    000293910000000000000109                     I0229391     20121800000000035003410000017N291018104700000000000102012180000000000000000000000000000000000000000100010083312790EDINALDO FELIX DA SILVA                 RUA BERNARDA MARIA DA CONCEICAO         FAZENDA CAXI23895320ILHA DO GOVERNARJUNIAO UMB DOS CULTOS AFRO BRAS    20121810 000109
10231987175000168817800093673    000029024                    000290240000000000000109                     I0229024     20121800000000035003410000017N291018104700000000000102012180000000000000000000000000000000000000000100049888447734NEUZA MORAES TAVARES                    RUA RUBENS BARCELLOS                    VILA ORLANDE27325260BARRA MANSA    RJUNIAO UMB DOS CULTOS AFRO BRAS    20121810 000110
10231987175000168817800093673    000028145                    000281450000000000000109                     I0228145     30111800000000035003410000017N200818104700000000000103011180000000000000000000000000000000000000000100057231737749ELIZABETE CARVALHO COSTA                RUA EXPEDICIONARIO SIMAO FERNANDES      COLUMBANDE  24451700SAO GONCALO    RJUNIAO UMB DOS CULTOS AFRO BRAS    30111810 000111
10231987175000168817800093673    000027725                    000277250000000000000109                     I0227725     30111800000000035003410000017N200818104700000000000103011180000000000000000000000000000000000000000100059259523753NILO SERGIO SANTOS BARCELLOS            ESTRADA CORONEL VIEIRA                  IRAJA       21220310RIO DE JANEIRO RJUNIAO UMB DOS CULTOS AFRO BRAS    30111810 000112
9                                                                                                                                                                                                                                                                                                                                                                                                         000113
