01REMESSA01COBRANCA       916200163100        União Umb dos Cultos Afro Bra341BANCO ITAU SA  040118                                                                                                                                                                                                                                                                                                      000001
10231987175000168916200163100    00008687                     000086870000000000000109                     I018687      31011800000000035003410000017N020118050900000000000103101180000000000000000000000000000000000000000100003533022790ELAINE LIMA FERREIRA DA COSTA           RUA HEBER DE BOSCOLI, 71                VILA ISABEL 20551110RIO DE JANEIRO RJUNIAO UMB DOS CULTOS AFRO BRAS    31011810 000002
10231987175000168916200163100    00008682                     000086820000000000000109                     I018682      31011800000000035003410000017N020118050900000000000103101180000000000000000000000000000000000000000100040229637787JOSE PAULO SERPA DE MORAES              RUA CANALIZADA, LOTE 4 QUADRA 203 KM 39 CAMPO LINDO 23845410RIO DE JANEIRO RJUNIAO UMB DOS CULTOS AFRO BRAS    31011810 000003
10231987175000168916200163100    00008681                     000086810000000000000109                     I018681      31011800000000035003410000017N020118050900000000000103101180000000000000000000000000000000000000000100086945971791GELSON RAMOS DE CARVALHO                RUA BARAUNA, 249                        ANCHIETA - R21645050RIO DE JANEIRO RJUNIAO UMB DOS CULTOS AFRO BRAS    31011810 000004
10231987175000168916200163100    00008680                     000086800000000000000109                     I018680      31011800000000035003410000017N020118050900000000000103101180000000000000000000000000000000000000000100010373820720ELTON LUIZ DAS NEVES CATARINO           RUA TURMALINA,  LOTE 33 QUADRA 48 - ANTIJD CATARINA 24715670SAO GONCALO    RJUNIAO UMB DOS CULTOS AFRO BRAS    31011810 000005
10231987175000168916200163100    00008679                     000086790000000000000109                     I018679      31011800000000035003410000017N020118050900000000000103101180000000000000000000000000000000000000000100047171322704EUCEA GONCALVES BRANDAO                 RUA PEREIRA DE FIGUEIREDO, 280          OSWALDO CRUZ21341030RIO DE JANEIRO RJUNIAO UMB DOS CULTOS AFRO BRAS    31011810 000006
10231987175000168916200163100    00008678                     000086780000000000000109                     I018678      31011800000000035003410000017N020118050900000000000103101180000000000000000000000000000000000000000100001609402731LUCIANO RANGEL                          ESTRADA DOUTOR FARRULA, 52              HELIOPOLIS -26125400BELFORD ROXO   RJUNIAO UMB DOS CULTOS AFRO BRAS    31011810 000007
10231987175000168916200163100    00008677                     000086770000000000000109                     I018677      31011800000000035003410000017N020118050900000000000103101180000000000000000000000000000000000000000100001206849770EUGENIO ALBERTO DA SILVA LOPES          RUA COMENDADOR BASTOS, 526 BANANAL      FREGUESIA  -21911220RIO DE JANEIRO RJUNIAO UMB DOS CULTOS AFRO BRAS    31011810 000008
10231987175000168916200163100    00008676                     000086760000000000000109                     I018676      31011800000000035003410000017N020118050900000000000103101180000000000000000000000000000000000000000100053365836772CRISTINA MARIA DE SANT ANNA SI          RUA GUSTAVO SAMPAIO, 172 APTO 201       LEME - RIO D22010010RIO DE JANEIRO RJUNIAO UMB DOS CULTOS AFRO BRAS    31011810 000009
10231987175000168916200163100    00008675                     000086750000000000000109                     I018675      31011800000000035003410000017N020118050900000000000103101180000000000000000000000000000000000000000100062821598734CLAUDEMIR APARECIDO FREITAS SI          TRAVESSA PIACAVA, 156                   BANCO DE ARE26570210MESQUITA       RJUNIAO UMB DOS CULTOS AFRO BRAS    31011810 000010
10231987175000168916200163100    00008673                     000086730000000000000109                     I018673      31011800000000035003410000017N020118050900000000000103101180000000000000000000000000000000000000000100008676289794ROSANGELA MONTES BARBOSA DA SI          RUA MENDEL CARDOSO DE MATOS, 7          CONJ. BOA ES26297009NOVA IGUACU    RJUNIAO UMB DOS CULTOS AFRO BRAS    31011810 000011
9                                                                                                                                                                                                                                                                                                                                                                                                         000012
