01REMESSA01COBRANCA       916200163100        União Umb dos Cultos Afro Bra341BANCO ITAU SA  020819                                                                                                                                                                                                                                                                                                      000001
10231987175000168916200163100    000050368                    000503680000000000000109                     I0150368     30091900000000040003410000017N020819105700000000000133009190000000000000000000000000000000000000000100014271654752WALLACE DA SILVA MARTINS                RUA ANTONIO BADAJOSN 125,               OSWALDO CRUZ21351170RIO DE JANEIRO RJUNIAO UMB DOS CULTOS AFRO BRAS    30091915 000002
21300920190000000000080                                                                                                                                                                                                                                                                                                                                                                                   000003
9                                                                                                                                                                                                                                                                                                                                                                                                         000004
