01REMESSA01COBRANCA       817800093673        União Umb dos Cultos Afro Bra341BANCO ITAU SA  270219                                                                                                                                                                                                                                                                                                      000001
10231987175000168817800093673    000039638                    000396380000000000000109                     I0239638     31031900000000040003410000017N220119104700000000000103103190000000000000000000000000000000000000000100002203157798CARLOS EDUARDO MOREIRA BENTO            RUA WENCESLAU BRASN 0, LOTE 24 QUADRA 27IMBARIE     25275160DUQUE DE CAXIASRJUNIAO UMB DOS CULTOS AFRO BRAS    31031910 000002
10231987175000168817800093673    000039637                    000396370000000000000109                     I0239637     28021900000000040003410000017N220119104700000000000102802190000000000000000000000000000000000000000100002203157798CARLOS EDUARDO MOREIRA BENTO            RUA WENCESLAU BRASN 0, LOTE 24 QUADRA 27IMBARIE     25275160DUQUE DE CAXIASRJUNIAO UMB DOS CULTOS AFRO BRAS    28021910 000003
10231987175000168817800093673    000039203                    000392030000000000000109                     I0239203     30031900000000040003410000017N261218104700000000000103003190000000000000000000000000000000000000000100010860605710MARCIA DA SILVA SIRIACO DA CON          RUA: PADRE GIL N 104,                   PARQUE BONEV25907096MAGE           RJUNIAO UMB DOS CULTOS AFRO BRAS    30031910 000004
10231987175000168817800093673    000037915                    000379150000000000000109                     I0237915     30031900000000040003410000017N261218104700000000000103003190000000000000000000000000000000000000000100000000000340VERA LUCIA BARBOSA DA CUNHA             RUA PORTO RICON 232,                    VIGARIO GERA21241200RIO DE JANEIRO RJUNIAO UMB DOS CULTOS AFRO BRAS    30031910 000005
10231987175000168817800093673    000037895                    000378950000000000000109                     I0237895     30031900000000040003410000017N261218104700000000000103003190000000000000000000000000000000000000000100001037627792FRANCE BATISTA CRESPO                   RUA CAPITAO MACHADON 604, CASA 4        PRACA SECA  20740230RIO DE JANEIRO RJUNIAO UMB DOS CULTOS AFRO BRAS    30031910 000006
10231987175000168817800093673    000037727                    000377270000000000000109                     I0237727     30031900000000040003410000017N261218104700000000000103003190000000000000000000000000000000000000000100040825515734IRMA SILVA PERRONI BRANDAO              RUA: JUSTINO DE SOUSA N 76, CASA 4      SAO CRISTOVA21920030RIO DE JANEIRO RJUNIAO UMB DOS CULTOS AFRO BRAS    30031910 000007
10231987175000168817800093673    000037484                    000374840000000000000109                     I0237484     30031900000000040003410000017N261218104700000000000103003190000000000000000000000000000000000000000100000000000000JOSE CARLOS DE OLIVEIRA                 RUA NICOLAU TOLENTINO N 315,            CALIFORNIA  27163000BARRA DO PIRAI RJUNIAO UMB DOS CULTOS AFRO BRAS    30031910 000008
10231987175000168817800093673    000037458                    000374580000000000000109                     I0237458     30031900000000040003410000017N261218104700000000000103003190000000000000000000000000000000000000000100000000000000IDINEIA RIBEIRO DE AZEVEDO              RUA VAZANTES N 14, FUNDOS               GUADALUPE   21660260RIO DE JANEIRO RJUNIAO UMB DOS CULTOS AFRO BRAS    30031910 000009
10231987175000168817800093673    000037284                    000372840000000000000109                     I0237284     28021900000000040003410000017N261218104700000000000102802190000000000000000000000000000000000000000100010860605710MARCIA DA SILVA SIRIACO DA CON          RUA: PADRE GIL N 104,                   PARQUE BONEV25907096MAGE           RJUNIAO UMB DOS CULTOS AFRO BRAS    28021910 000010
10231987175000168817800093673    000036257                    000362570000000000000109                     I0236257     28021900000000040003410000017N261218104700000000000102802190000000000000000000000000000000000000000100000907631738IDA ANGELICA PEREIRA CALDAS             RUA SILVEIRA LOBO N 43,                 CACHAMBI    20780310RIO DE JANEIRO RJUNIAO UMB DOS CULTOS AFRO BRAS    28021910 000011
10231987175000168817800093673    000036000                    000360000000000000000109                     I0236000     28021900000000040003410000017N261218104700000000000102802190000000000000000000000000000000000000000100000000000340VERA LUCIA BARBOSA DA CUNHA             RUA PORTO RICON 232,                    VIGARIO GERA21241200RIO DE JANEIRO RJUNIAO UMB DOS CULTOS AFRO BRAS    28021910 000012
10231987175000168817800093673    000035980                    000359800000000000000109                     I0235980     28021900000000040003410000017N261218104700000000000102802190000000000000000000000000000000000000000100001037627792FRANCE BATISTA CRESPO                   RUA CAPITAO MACHADON 604, CASA 4        PRACA SECA  20740230RIO DE JANEIRO RJUNIAO UMB DOS CULTOS AFRO BRAS    28021910 000013
10231987175000168817800093673    000035814                    000358140000000000000109                     I0235814     28021900000000040003410000017N261218104700000000000102802190000000000000000000000000000000000000000100040825515734IRMA SILVA PERRONI BRANDAO              RUA: JUSTINO DE SOUSA N 76, CASA 4      SAO CRISTOVA21920030RIO DE JANEIRO RJUNIAO UMB DOS CULTOS AFRO BRAS    28021910 000014
10231987175000168817800093673    000035572                    000355720000000000000109                     I0235572     28021900000000040003410000017N261218104700000000000102802190000000000000000000000000000000000000000100000000000000JOSE CARLOS DE OLIVEIRA                 RUA NICOLAU TOLENTINO N 315,            CALIFORNIA  27163000BARRA DO PIRAI RJUNIAO UMB DOS CULTOS AFRO BRAS    28021910 000015
10231987175000168817800093673    000035546                    000355460000000000000109                     I0235546     28021900000000040003410000017N261218104700000000000102802190000000000000000000000000000000000000000100000000000000IDINEIA RIBEIRO DE AZEVEDO              RUA VAZANTES N 14, FUNDOS               GUADALUPE   21660260RIO DE JANEIRO RJUNIAO UMB DOS CULTOS AFRO BRAS    28021910 000016
10231987175000168817800093673    000034095                    000340950000000000000109                     I0234095     31011900000000040003410000017N261218104700000000000103101190000000000000000000000000000000000000000100000000000340VERA LUCIA BARBOSA DA CUNHA             RUA PORTO RICON 232,                    VIGARIO GERA21241200RIO DE JANEIRO RJUNIAO UMB DOS CULTOS AFRO BRAS    31011910 000017
10231987175000168817800093673    000034076                    000340760000000000000109                     I0234076     31011900000000040003410000017N261218104700000000000103101190000000000000000000000000000000000000000100001037627792FRANCE BATISTA CRESPO                   RUA CAPITAO MACHADON 604, CASA 4        PRACA SECA  20740230RIO DE JANEIRO RJUNIAO UMB DOS CULTOS AFRO BRAS    31011910 000018
10231987175000168817800093673    000033911                    000339110000000000000109                     I0233911     31011900000000040003410000017N261218104700000000000103101190000000000000000000000000000000000000000100040825515734IRMA SILVA PERRONI BRANDAO              RUA: JUSTINO DE SOUSA N 76, CASA 4      SAO CRISTOVA21920030RIO DE JANEIRO RJUNIAO UMB DOS CULTOS AFRO BRAS    31011910 000019
10231987175000168817800093673    000033672                    000336720000000000000109                     I0233672     31011900000000040003410000017N261218104700000000000103101190000000000000000000000000000000000000000100000000000000JOSE CARLOS DE OLIVEIRA                 RUA NICOLAU TOLENTINO N 315,            CALIFORNIA  27163000BARRA DO PIRAI RJUNIAO UMB DOS CULTOS AFRO BRAS    31011910 000020
10231987175000168817800093673    000033646                    000336460000000000000109                     I0233646     31011900000000040003410000017N261218104700000000000103101190000000000000000000000000000000000000000100000000000000IDINEIA RIBEIRO DE AZEVEDO              RUA VAZANTES N 14, FUNDOS               GUADALUPE   21660260RIO DE JANEIRO RJUNIAO UMB DOS CULTOS AFRO BRAS    31011910 000021
9                                                                                                                                                                                                                                                                                                                                                                                                         000022
