01REMESSA01COBRANCA       916200163100        União Umb dos Cultos Afro Bra341BANCO ITAU SA  061218                                                                                                                                                                                                                                                                                                      000001
10231987175000168916200163100    000033546                    000335460000000000000109                     I0133546     10121800000000140003410000017N061218104700000000000101012180000000000000000000000000000000000000000100040664325734GENI BARBOSA ROCHA DA SILVA             TRAVESSA DA AMIZADE                     VILA DA PENH25268020RIO DE JANEIRO RJUNIAO UMB DOS CULTOS AFRO BRAS    10121810 000002
10231987175000168916200163100    000033545                    000335450000000000000109                     I0133545     10121800000000035003410000017N061218104700000000000101012180000000000000000000000000000000000000000100040664325734GENI BARBOSA ROCHA DA SILVA             TRAVESSA DA AMIZADE                     VILA DA PENH25268020RIO DE JANEIRO RJUNIAO UMB DOS CULTOS AFRO BRAS    10121810 000003
10231987175000168916200163100    000033544                    000335440000000000000109                     I0133544     07121800000000350003410000017N061218104700000000000100712180000000000000000000000000000000000000000100010878187707LUIZ PAULO DA CRUZ TEIXEIRA             RUA DOS CAJUEIROS                       SEPETIBA    23530074RIO DE JANEIRO RJUNIAO UMB DOS CULTOS AFRO BRAS    07121810 000004
10231987175000168916200163100    000033543                    000335430000000000000109                     I0133543     14121800000000040003410000017N061218104700000000000101412180000000000000000000000000000000000000000100000000003824REGINA CELIA ALMEIDA BASTOS             RUA DERMEVAL LESSA                      PAVUNA      21532330RIO DE JANEIRO RJUNIAO UMB DOS CULTOS AFRO BRAS    14121810 000005
10231987175000168916200163100    000033542                    000335420000000000000109                     I0133542     14121800000000035003410000017N061218104700000000000101412180000000000000000000000000000000000000000100087868172720ADHEMAR ACHILLES AVILLA JUNIOR          RUA: PADRE GIL                          PARQUE BONEV25907096MAGE           RJUNIAO UMB DOS CULTOS AFRO BRAS    14121810 000006
10231987175000168916200163100    000033541                    000335410000000000000109                     I0133541     20121800000000035003410000017N061218104700000000000102012180000000000000000000000000000000000000000100082272964753ALBANO TEIXEIRA NOVAES FILHO            10/11/1964                              JARDIM ALVOR26265550NOVA IGUACU    RJUNIAO UMB DOS CULTOS AFRO BRAS    20121810 000007
10231987175000168916200163100    000033540                    000335400000000000000109                     I0133540     14121800000000350003410000017N051218104700000000000101412180000000000000000000000000000000000000000100011268949715EDESIO DE OLIVEIRA CASTRO               RUA REPUBLICA DOMINICANA                ITAIPU      24342270NITEROI        RJUNIAO UMB DOS CULTOS AFRO BRAS    14121810 000008
10231987175000168916200163100    000033539                    000335390000000000000109                     I0133539     14121800000000070003410000017N051218104700000000000101412180000000000000000000000000000000000000000100002878076737TANIA NACARI AIRES GALVAO               ESTRADA DO DENDE                        DENDE - ILHA25000000RIO DE JANEIRO RJUNIAO UMB DOS CULTOS AFRO BRAS    14121810 000009
10231987175000168916200163100    000033538                    000335380000000000000109                     I0233538     14121800000000420003410000017N051218104700000000000101412180000000000000000000000000000000000000000100011268949715EDESIO DE OLIVEIRA CASTRO               RUA REPUBLICA DOMINICANA                ITAIPU      24342270NITEROI        RJUNIAO UMB DOS CULTOS AFRO BRAS    14121810 000010
10231987175000168916200163100    000033537                    000335370000000000000109                     I0133537     20121800000000300003410000017N051218104700000000000102012180000000000000000000000000000000000000000100007000973765SILVIA DAS GRACAS SANTANA               RUA NELIO CHAMBARELLI                   NOSSA SENHOR26313040QUEIMADOS      RJUNIAO UMB DOS CULTOS AFRO BRAS    20121810 000011
10231987175000168916200163100    000033536                    000335360000000000000109                     I0133536     14121800000000035003410000017N051218104700000000000101412180000000000000000000000000000000000000000100004162486751IVONETE CRISTINA MARTINS MACHA          RUA C                                   PARQUE SANTA25060230DUQUE DE CAXIASRJUNIAO UMB DOS CULTOS AFRO BRAS    14121810 000012
10231987175000168916200163100    000033483                    000334830000000000000109                     I0133483     10121800000000035003410000017N261118104700000000000101012180000000000000000000000000000000000000000100002305172770VALDIRENE ALBUQUERQUE MARCIEL           RUA GUARAGUATATUBA                      VILA ROSARIO25030040DUQUE DE CAXIASRJUNIAO UMB DOS CULTOS AFRO BRAS    10121810 000013
10231987175000168916200163100    000028779                    000287790000000000000109                     I0228779     30111800000000040003410000017N190918104700000000000103011180000000000000000000000000000000000000000100000000003824REGINA CELIA ALMEIDA BASTOS             RUA DERMEVAL LESSA                      PAVUNA      21532330RIO DE JANEIRO RJUNIAO UMB DOS CULTOS AFRO BRAS    30111810 000014
9                                                                                                                                                                                                                                                                                                                                                                                                         000015
