01REMESSA01COBRANCA       817800093673        União Umb dos Cultos Afro Bra341BANCO ITAU SA  291018                                                                                                                                                                                                                                                                                                      000001
10231987175000168817800093673    000032315                    000323150000000000000109                     I0132315     20121800000000350003410000017N291018104700000000000102012180000000000000000000000000000000000000000100065753313787ELVIRA FLAUZINA CELSO                   RUA DA CONCEICAO                        SANTA ROSA -27155000BARRA DO PIRAI RJUNIAO UMB DOS CULTOS AFRO BRAS    20121810 000002
10231987175000168817800093673    000032314                    000323140000000000000109                     I0132314     20121800000000400003410000017N291018104700000000000102012180000000000000000000000000000000000000000100067238742772DENISE SIMONE MONTEIRO DE ANDR          RUA URUACU                              JARDIM CARIO21921600RIO DE JANEIRO RJUNIAO UMB DOS CULTOS AFRO BRAS    20121810 000003
10231987175000168817800093673    000032313                    000323130000000000000109                     I0132313     20121800000000400003410000017N291018104700000000000102012180000000000000000000000000000000000000000100028995691768SIDNEI LOURENCO SAMPAIO                 RUA PAULO VIANA                         ROCHA MIRAND21540460RIO DE JANEIRO RJUNIAO UMB DOS CULTOS AFRO BRAS    20121810 000004
10231987175000168817800093673    000032312                    000323120000000000000109                     I0132312     20121800000000350003410000017N291018104700000000000102012180000000000000000000000000000000000000000100002593509746MARIA DA PENHA FERREIRA                 RUA JERICO                              INHOAIBA    23064180RIO DE JANEIRO RJUNIAO UMB DOS CULTOS AFRO BRAS    20121810 000005
10231987175000168817800093673    000032311                    000323110000000000000109                     I0132311     20121800000000350003410000017N291018104700000000000102012180000000000000000000000000000000000000000100091102782734ANGELIA PEREIRA ALVIM DE FARIA          RUA QUARENTA E TRES                     BRAS DE PINA21012407RIO DE JANEIRO RJUNIAO UMB DOS CULTOS AFRO BRAS    20121810 000006
10231987175000168817800093673    000032310                    000323100000000000000109                     I0132310     20121800000000350003410000017N291018104700000000000102012180000000000000000000000000000000000000000100041785029720SANDRA MACHADO DE LIMA FERREIR          RUA GRAVADOR                            GUARATIBA   23035370RIO DE JANEIRO RJUNIAO UMB DOS CULTOS AFRO BRAS    20121810 000007
10231987175000168817800093673    000032309                    000323090000000000000109                     I0132309     20121800000000350003410000017N291018104700000000000102012180000000000000000000000000000000000000000100086094750772IARA MUNIZ DA SILVA BORGES              RUA FLAMBOYANT                          VARGEM PEQUE22783117RIO DE JANEIRO RJUNIAO UMB DOS CULTOS AFRO BRAS    20121810 000008
10231987175000168817800093673    000032308                    000323080000000000000109                     I0132308     20121800000000350003410000017N291018104700000000000102012180000000000000000000000000000000000000000100082272964753ALBANO TEIXEIRA NOVAES FILHO            10/11/1964                              JARDIM ALVOR26265550NOVA IGUACU    RJUNIAO UMB DOS CULTOS AFRO BRAS    20121810 000009
10231987175000168817800093673    000032307                    000323070000000000000109                     I0132307     20121800000000350003410000017N291018104700000000000102012180000000000000000000000000000000000000000100098312474787BERNADETE SIMOES MIGUEZ                 RUA: BENJAMIN DE MAGALHAES              PILARES     20750170RIO DE JANEIRO RJUNIAO UMB DOS CULTOS AFRO BRAS    20121810 000010
10231987175000168817800093673    000032306                    000323060000000000000109                     I0132306     20121800000000350003410000017N291018104700000000000102012180000000000000000000000000000000000000000100000646933760LUIZ CARLOS RODRIGUES DE ARAUJ          ESTRADA GENERAL OLIMPIO DA FONSECA      OLINDA      26545470NILOPOLIS      RJUNIAO UMB DOS CULTOS AFRO BRAS    20121810 000011
10231987175000168817800093673    000032305                    000323050000000000000109                     I0132305     20121800000000350003410000017N291018104700000000000102012180000000000000000000000000000000000000000100016985553770SILVANA MARIA DOS SANTOS                RUA CINCO                               QUEIMADOS   21235830RIO DE JANEIRO RJUNIAO UMB DOS CULTOS AFRO BRAS    20121810 000012
10231987175000168817800093673    000032304                    000323040000000000000109                     I0132304     20121800000000350003410000017N291018104700000000000102012180000000000000000000000000000000000000000100064775640763TANIA CORREA LEITE                      RUA: DOUTOR LUIS GAUDIE LEY             PENHA       21070100RIO DE JANEIRO RJUNIAO UMB DOS CULTOS AFRO BRAS    20121810 000013
10231987175000168817800093673    000032303                    000323030000000000000109                     I0132303     20121800000000400003410000017N291018104700000000000102012180000000000000000000000000000000000000000100090468414720MARCOS MELLO TERRA                      RUA DONA EMILIA                         PIABETA     25915000MAGE           RJUNIAO UMB DOS CULTOS AFRO BRAS    20121810 000014
10231987175000168817800093673    000032302                    000323020000000000000109                     I0132302     20121800000000350003410000017N291018104700000000000102012180000000000000000000000000000000000000000100007986589752LEANDRO DOS SANTOS RODRIGUES            AVENIDA GASPAR DE LEMOS                 ILHA DE GUAR23020230RIO DE JANEIRO RJUNIAO UMB DOS CULTOS AFRO BRAS    20121810 000015
10231987175000168817800093673    000032301                    000323010000000000000109                     I0132301     20121800000000350003410000017N291018104700000000000102012180000000000000000000000000000000000000000100001868270750CARLOS ALBERTO DO NASCIMENTO L          RUA GUARABU                             INHAUMA     20761060RIO DE JANEIRO RJUNIAO UMB DOS CULTOS AFRO BRAS    20121810 000016
10231987175000168817800093673    000032300                    000323000000000000000109                     I0132300     20121800000000350003410000017N291018104700000000000102012180000000000000000000000000000000000000000100096933836720CELIA GOMES DE OLIVEIRA FALCAO          RUA CONDOMINIO 1 DE MAIO                MADAME MACHA23740020PETROPOLIS     RJUNIAO UMB DOS CULTOS AFRO BRAS    20121810 000017
10231987175000168817800093673    000032299                    000322990000000000000109                     I0132299     20121800000000350003410000017N291018104700000000000102012180000000000000000000000000000000000000000100055041388768GERALDO JOSE DE OLIVEIRA                RUA CARDEAL DOM SEBASTIAO LEME          SANTA TEREZA22040010RIO DE JANEIRO RJUNIAO UMB DOS CULTOS AFRO BRAS    20121810 000018
10231987175000168817800093673    000032298                    000322980000000000000109                     I0132298     20121800000000350003410000017N291018104700000000000102012180000000000000000000000000000000000000000100005292156752MARCIO VALADARES DOS SANTOS             RUA SETUBAL                             CABUCU      21330560RIO DE JANEIRO RJUNIAO UMB DOS CULTOS AFRO BRAS    20121810 000019
10231987175000168817800093673    000032297                    000322970000000000000109                     I0132297     20121800000000350003410000017N291018104700000000000102012180000000000000000000000000000000000000000100076862062700MARIO LUIS DE SOUZA                     RUA FERREIRA CHAVES                     VILA DA PENH21221090RIO DE JANEIRO RJUNIAO UMB DOS CULTOS AFRO BRAS    20121810 000020
10231987175000168817800093673    000032296                    000322960000000000000109                     I0132296     20121800000000350003410000017N291018104700000000000102012180000000000000000000000000000000000000000100044260954768NILZA PEREIRA DA COSTA                  RUA JORDAO                              TANQUE - JAC22725540RIO DE JANEIRO RJUNIAO UMB DOS CULTOS AFRO BRAS    20121810 000021
10231987175000168817800093673    000032295                    000322950000000000000109                     I0132295     20121800000000400003410000017N291018104700000000000102012180000000000000000000000000000000000000000100087545233700MARCOS ALMEIDA DE SOUZA                 RUA MARECHAL FELIPE SCHIMITH            JARDIM AMERI21240490RIO DE JANEIRO RJUNIAO UMB DOS CULTOS AFRO BRAS    20121810 000022
10231987175000168817800093673    000032294                    000322940000000000000109                     I0132294     20121800000000400003410000017N291018104700000000000102012180000000000000000000000000000000000000000100036013692734SIDNEY OTTOLINE                         RUA VINTE E QUATRO DE FEVEREIRO         BONSUCESSO  21040300RIO DE JANEIRO RJUNIAO UMB DOS CULTOS AFRO BRAS    20121810 000023
10231987175000168817800093673    000032293                    000322930000000000000109                     I0132293     20121800000000350003410000017N291018104700000000000102012180000000000000000000000000000000000000000100007991824780DANIELLE OLIVEIRA DOS SANTOS            RUA GAMO                                JARDIM METRO25575380SAO JOAO DE MERRJUNIAO UMB DOS CULTOS AFRO BRAS    20121810 000024
10231987175000168817800093673    000032292                    000322920000000000000109                     I0132292     20121800000000350003410000017N291018104700000000000102012180000000000000000000000000000000000000000100010525485716JORGE SANTOS DA SILVA                   RUA TENENTE CUSTODIO MOREIRA            JARDIM XAVAN26125000BELFORD ROXO   RJUNIAO UMB DOS CULTOS AFRO BRAS    20121810 000025
10231987175000168817800093673    000032291                    000322910000000000000109                     I0132291     20121800000000350003410000017N291018104700000000000102012180000000000000000000000000000000000000000100038230445753ABILIO ALFREDO DUARTE                   RUA: ORQUIDEAS                          GUARATIBA   23026000RIO DE JANEIRO RJUNIAO UMB DOS CULTOS AFRO BRAS    20121810 000026
10231987175000168817800093673    000032290                    000322900000000000000109                     I0132290     20121800000000350003410000017N291018104700000000000102012180000000000000000000000000000000000000000100062968033700ROBSON DOS SANTOS FRANCA                RUA MOZART BACELAR                      BANGU       21815250RIO DE JANEIRO RJUNIAO UMB DOS CULTOS AFRO BRAS    20121810 000027
10231987175000168817800093673    000032289                    000322890000000000000109                     I0132289     20121800000000350003410000017N291018104700000000000102012180000000000000000000000000000000000000000100008169125723SANDRA PRAXEDES SILVA BRAGA             RUA NOVENTA TRES                        CORDEIRINHO 24921464MARICA         RJUNIAO UMB DOS CULTOS AFRO BRAS    20121810 000028
10231987175000168817800093673    000032288                    000322880000000000000109                     I0132288     20121800000000350003410000017N291018104700000000000102012180000000000000000000000000000000000000000100010548215774MARCUS ULYSSES ALVAREZ BARBOSA          RUA TIBOIM                              BRAS DE PINA21011650RIO DE JANEIRO RJUNIAO UMB DOS CULTOS AFRO BRAS    20121810 000029
10231987175000168817800093673    000032287                    000322870000000000000109                     I0132287     20121800000000350003410000017N291018104700000000000102012180000000000000000000000000000000000000000100001136014764JOSE ORLANDO SILVA                      RUA: FRANKLIN RODRIGUES GOMES           BRIZAMAR    23825225ITAGUAI        RJUNIAO UMB DOS CULTOS AFRO BRAS    20121810 000030
10231987175000168817800093673    000032286                    000322860000000000000109                     I0132286     20121800000000350003410000017N291018104700000000000102012180000000000000000000000000000000000000000100009834155794NELY MARIA RODRIGUES DANTAS             RUA DA CONCEICAO                        SANTA ROSA  27155000BARRA DO PIRAI RJUNIAO UMB DOS CULTOS AFRO BRAS    20121810 000031
10231987175000168817800093673    000032285                    000322850000000000000109                     I0132285     20121800000000350003410000017N291018104700000000000102012180000000000000000000000000000000000000000100047672412787JOAO CARLOS STADLER                     RUA ADAO BRAUN                          CENTRO      25625250PETROPOLIS     RJUNIAO UMB DOS CULTOS AFRO BRAS    20121810 000032
10231987175000168817800093673    000032284                    000322840000000000000109                     I0132284     20121800000000350003410000017N291018104700000000000102012180000000000000000000000000000000000000000100066620899749ANTONIO MANOEL DE OLIVEIRA              RUA GASTAO LEITE CABRAL ZUMBI           CACUIA-ILHA 21930530RIO DE JANEIRO RJUNIAO UMB DOS CULTOS AFRO BRAS    20121810 000033
10231987175000168817800093673    000032283                    000322830000000000000109                     I0132283     20121800000000350003410000017N291018104700000000000102012180000000000000000000000000000000000000000100001402253745HOLNEI DE SOUZA                         RUA B, 27 CASA 1 CONDOMINIO VILAVERDE   ITAUNA      24461593SAO GONCALO    RJUNIAO UMB DOS CULTOS AFRO BRAS    20121810 000034
10231987175000168817800093673    000032282                    000322820000000000000109                     I0132282     20121800000000350003410000017N291018104700000000000102012180000000000000000000000000000000000000000100006940060766JAQUELINE BEZERRA DA SILVA              RUA ATOR JECE VALADAO                   PEDRA DE GUA23020718RIO DE JANEIRO RJUNIAO UMB DOS CULTOS AFRO BRAS    20121810 000035
10231987175000168817800093673    000032281                    000322810000000000000109                     I0132281     20121800000000350003410000017N291018104700000000000102012180000000000000000000000000000000000000000100080113397704SOLANGE DE SOUZA SILVA                  RUA PEDRO DE MELO                       PADRE MIGUEL21775410RIO DE JANEIRO RJUNIAO UMB DOS CULTOS AFRO BRAS    20121810 000036
10231987175000168817800093673    000032280                    000322800000000000000109                     I0132280     20121800000000400003410000017N291018104700000000000102012180000000000000000000000000000000000000000100011400410703SIDINEA CARVALHO DA LUZ                 RUA GUIMARAES PASSOS                    PORTAO DO RO24476600SAO GONCALO    RJUNIAO UMB DOS CULTOS AFRO BRAS    20121810 000037
10231987175000168817800093673    000032279                    000322790000000000000109                     I0132279     20121800000000450003410000017N291018104700000000000102012180000000000000000000000000000000000000000100031197345787HELENA FERREIRA DA SILVA                RUA GENERAL SEZEFREDO                   REALENGO    21715064RIO DE JANEIRO RJUNIAO UMB DOS CULTOS AFRO BRAS    20121810 000038
10231987175000168817800093673    000032278                    000322780000000000000109                     I0132278     20121800000000350003410000017N291018104700000000000102012180000000000000000000000000000000000000000100028004256791JOSE ZEFERINO AQUINO                    RUA DO CARMO                            PARQUE AMORI26185340BELFORD ROXO   RJUNIAO UMB DOS CULTOS AFRO BRAS    20121810 000039
10231987175000168817800093673    000032277                    000322770000000000000109                     I0132277     20121800000000350003410000017N291018104700000000000102012180000000000000000000000000000000000000000100098077899749WANDERLEY PACHECO                       RUA NOSSA SENHORA DA CONCEICAO          PILAR       25233070DUQUE DE CAXIASRJUNIAO UMB DOS CULTOS AFRO BRAS    20121810 000040
10231987175000168817800093673    000032276                    000322760000000000000109                     I0132276     20121800000000350003410000017N291018104700000000000102012180000000000000000000000000000000000000000100011981552723DIEGO DE SIQUEIRA VIEIRA                RUA ACU                                 REALENGO    21765640RIO DE JANEIRO RJUNIAO UMB DOS CULTOS AFRO BRAS    20121810 000041
10231987175000168817800093673    000032275                    000322750000000000000109                     I0132275     20121800000000350003410000017N291018104700000000000102012180000000000000000000000000000000000000000100000024018783ALEXANDRA GUEDES GONCALVES RIB          RUA: FABIO DA LUZ                       MEIER       20720350RIO DE JANEIRO RJUNIAO UMB DOS CULTOS AFRO BRAS    20121810 000042
10231987175000168817800093673    000032274                    000322740000000000000109                     I0132274     20121800000000350003410000017N291018104700000000000102012180000000000000000000000000000000000000000100008208769762BRUNO LEONARDO DOMINGUES DA SI          RUA: JOAO RODRIGUES BATISTA             ALTO SERRA -25635401PETROPOLIS     RJUNIAO UMB DOS CULTOS AFRO BRAS    20121810 000043
10231987175000168817800093673    000032273                    000322730000000000000109                     I0132273     20121800000000400003410000017N291018104700000000000102012180000000000000000000000000000000000000000100002880433754ROSELANE DOS SANTOS ADAO MENDE          RUA: CORREGO DANTA                      PEDRA DE GUA23026500RIO DE JANEIRO RJUNIAO UMB DOS CULTOS AFRO BRAS    20121810 000044
10231987175000168817800093673    000032272                    000322720000000000000109                     I0132272     20121800000000350003410000017N291018104700000000000102012180000000000000000000000000000000000000000100059070560704ZELMA VILELA DA SILVA                   RUA: JOSE BALDINO                       SEPETIBA    23540044RIO DE JANEIRO RJUNIAO UMB DOS CULTOS AFRO BRAS    20121810 000045
10231987175000168817800093673    000032271                    000322710000000000000109                     I0132271     20121800000000350003410000017N291018104700000000000102012180000000000000000000000000000000000000000100022002020778MARIA PALMIRA DE AMORIM LOPES           ESTRADA: ANTONIO CARVALHO VENTURA       ALBUQUERQUE 25977280TERESOPOLIS    RJUNIAO UMB DOS CULTOS AFRO BRAS    20121810 000046
10231987175000168817800093673    000032270                    000322700000000000000109                     I0132270     20121800000000350003410000017N291018104700000000000102012180000000000000000000000000000000000000000100088297047768MARIA ANTONIA SANTOS                    RUA: GOMES CARNEIRO                     VILA URUSSAI25211060DUQUE DE CAXIASRJUNIAO UMB DOS CULTOS AFRO BRAS    20121810 000047
10231987175000168817800093673    000032269                    000322690000000000000109                     I0132269     20121800000000350003410000017N291018104700000000000102012180000000000000000000000000000000000000000100007657167718HERONICE BAUNAZ                         RUA: COARACI GENTIL NUNES               GUARATIBA   23032180RIO DE JANEIRO RJUNIAO UMB DOS CULTOS AFRO BRAS    20121810 000048
10231987175000168817800093673    000032268                    000322680000000000000109                     I0132268     20121800000000400003410000017N291018104700000000000102012180000000000000000000000000000000000000000100063478315700MARIA JOSE DE FRANCA MORAES             RUA CHARLES CHAPLIN                     ANAIA PEQUEN24740000SAO GONCALO    RJUNIAO UMB DOS CULTOS AFRO BRAS    20121810 000049
10231987175000168817800093673    000032267                    000322670000000000000109                     I0132267     20121800000000350003410000017N291018104700000000000102012180000000000000000000000000000000000000000100003659613703MARIA JOSE DA SILVA LEONCIO DA          RUA: MARIPA                             PARQUE BOM R25223600DUQUE DE CAXIASRJUNIAO UMB DOS CULTOS AFRO BRAS    20121810 000050
10231987175000168817800093673    000032266                    000322660000000000000109                     I0132266     20121800000000350003410000017N291018104700000000000102012180000000000000000000000000000000000000000100041233751700ROSARIA DE OLIVEIRA RIBEIRO             RUA LEOPOLDINA                          PIEDADE     20756110RIO DE JANEIRO RJUNIAO UMB DOS CULTOS AFRO BRAS    20121810 000051
10231987175000168817800093673    000032265                    000322650000000000000109                     I0132265     20121800000000350003410000017N291018104700000000000102012180000000000000000000000000000000000000000100080252540700GEORGET MARIA CONCEICAO DE OLI          ESTRADA: DO PAU DA FOME                 TAQUARA     22723497RIO DE JANEIRO RJUNIAO UMB DOS CULTOS AFRO BRAS    20121810 000052
10231987175000168817800093673    000032264                    000322640000000000000109                     I0132264     20121800000000350003410000017N291018104700000000000102012180000000000000000000000000000000000000000100008528931757LUCIMARA DA CONCEICAO CORTES            RUA: PROFESSOR CHARLEY LACHMUND         GUARATIBA   23032570RIO DE JANEIRO RJUNIAO UMB DOS CULTOS AFRO BRAS    20121810 000053
10231987175000168817800093673    000032263                    000322630000000000000109                     I0132263     20121800000000350003410000017N291018104700000000000102012180000000000000000000000000000000000000000100077405200710GIOVANE DE SOUZA                        RUA COARACI GENTIL NUNES                GUARATIBA   23032180RIO DE JANEIRO RJUNIAO UMB DOS CULTOS AFRO BRAS    20121810 000054
10231987175000168817800093673    000032262                    000322620000000000000109                     I0132262     20121800000000350003410000017N291018104700000000000102012180000000000000000000000000000000000000000100004767590728MARLI DA SILVA WILSON                   AVENIDA CARNAUBEIRA                     GUARATIBA   23032080RIO DE JANEIRO RJUNIAO UMB DOS CULTOS AFRO BRAS    20121810 000055
10231987175000168817800093673    000032261                    000322610000000000000109                     I0132261     20121800000000400003410000017N291018104700000000000102012180000000000000000000000000000000000000000100060770421787JANE DOS SANTOS PESTANA                 RUA TENENTE ARAQUEM BATISTA             PENHA       21020360RIO DE JANEIRO RJUNIAO UMB DOS CULTOS AFRO BRAS    20121810 000056
10231987175000168817800093673    000032260                    000322600000000000000109                     I0132260     20121800000000350003410000017N291018104700000000000102012180000000000000000000000000000000000000000100036910015720GERALDO COHEN GOMES                     RUA HAVAIANA                            JARDIM MERIT25555721SAO JOAO DE MERRJUNIAO UMB DOS CULTOS AFRO BRAS    20121810 000057
10231987175000168817800093673    000032259                    000322590000000000000109                     I0132259     20121800000000350003410000017N291018104700000000000102012180000000000000000000000000000000000000000100003763646701ELIZABETE CRISTINA OLIVEIRA DE          RUA: DO JAMBO                           REALENGO    21755070RIO DE JANEIRO RJUNIAO UMB DOS CULTOS AFRO BRAS    20121810 000058
10231987175000168817800093673    000032258                    000322580000000000000109                     I0132258     20121800000000350003410000017N291018104700000000000102012180000000000000000000000000000000000000000100000000011458JOSE ALFREDO BARDASSON MARQUES          TRAVESSA JOAO ROCHA                     PORTO DAS CA24830072ITABORAI       RJUNIAO UMB DOS CULTOS AFRO BRAS    20121810 000059
10231987175000168817800093673    000032257                    000322570000000000000109                     I0132257     20121800000000350003410000017N291018104700000000000102012180000000000000000000000000000000000000000100013770029771MICHEL REIS COUTINHO                    RUA NOVA MARACA                         THOMAS COELH00000000RIO DE JANEIRO RJUNIAO UMB DOS CULTOS AFRO BRAS    20121810 000060
10231987175000168817800093673    000032256                    000322560000000000000109                     I0132256     20121800000000350003410000017N291018104700000000000102012180000000000000000000000000000000000000000100000260923796RITA LUZIE HENRIQUE DA SILVA A          RUA CONDESSA DO BARRAL                  PACIENCIA   23580020RIO DE JANEIRO RJUNIAO UMB DOS CULTOS AFRO BRAS    20121810 000061
10231987175000168817800093673    000032255                    000322550000000000000109                     I0132255     20121800000000350003410000017N291018104700000000000102012180000000000000000000000000000000000000000100003219434738RENALDO DA CONCEICAO SILVA              RUA JOAO CAETANO                        PRACA CRUZEI28800000RIO DE JANEIRO RJUNIAO UMB DOS CULTOS AFRO BRAS    20121810 000062
10231987175000168817800093673    000032254                    000322540000000000000109                     I0132254     20121800000000350003410000017N291018104700000000000102012180000000000000000000000000000000000000000100091156386772MARILENE PEREIRA DOS SANTOS CO          ESTRADA DO PORTELA                      TURIACU     21351050RIO DE JANEIRO RJUNIAO UMB DOS CULTOS AFRO BRAS    20121810 000063
10231987175000168817800093673    000032253                    000322530000000000000109                     I0132253     20121800000000350003410000017N291018104700000000000102012180000000000000000000000000000000000000000100068862989768VILMA FLAUSINO ILIDIO                   RUA AILTO PEIXOTO                       GUARATIBA   23028062BELFORD ROXO   RJUNIAO UMB DOS CULTOS AFRO BRAS    20121810 000064
10231987175000168817800093673    000032252                    000322520000000000000109                     I0132252     20121800000000350003410000017N291018104700000000000102012180000000000000000000000000000000000000000100098840070710ROSEMERE DA CRUZ VAZ                    ESTRADA RODRIGUES CALDAS                TAQUARA - JA22713374RIO DE JANEIRO RJUNIAO UMB DOS CULTOS AFRO BRAS    20121810 000065
10231987175000168817800093673    000032251                    000322510000000000000109                     I0132251     20121800000000350003410000017N291018104700000000000102012180000000000000000000000000000000000000000100099715554768ZARELDA DE SOUZA ESTEVAO                RUA: VALDOMIRO RAIMUNDO                 COIMBRA     27115270BARRA DO PIRAI RJUNIAO UMB DOS CULTOS AFRO BRAS    20121810 000066
10231987175000168817800093673    000032250                    000322500000000000000109                     I0132250     20121800000000380003410000017N291018104700000000000102012180000000000000000000000000000000000000000100083904069772MARCIA MARIA DUARTE MILANEZ VI          RUA DO FRAGOSO                          GUARATIBA   23032280RIO DE JANEIRO RJUNIAO UMB DOS CULTOS AFRO BRAS    20121810 000067
10231987175000168817800093673    000032249                    000322490000000000000109                     I0132249     20121800000000400003410000017N291018104700000000000102012180000000000000000000000000000000000000000100060185171753NEIDE MARIA PAULINHA ASSIS              RUA ARISTIDES CAIRE                     MEIER       20775090RIO DE JANEIRO RJUNIAO UMB DOS CULTOS AFRO BRAS    20121810 000068
10231987175000168817800093673    000032248                    000322480000000000000109                     I0132248     20121800000000350003410000017N291018104700000000000102012180000000000000000000000000000000000000000100057273308749ISERLINA DA CUNHA CORREA                RUA DALVA RAPOSO                        TRIBOBO     24754190SAO GONCALO    RJUNIAO UMB DOS CULTOS AFRO BRAS    20121810 000069
10231987175000168817800093673    000032247                    000322470000000000000109                     I0132247     20121800000000400003410000017N291018104700000000000102012180000000000000000000000000000000000000000100000152452338DANIELA DE FATIMA SOARES                RUA: MARIA ROSA                         PADRE MIGUEL20740460RIO DE JANEIRO RJUNIAO UMB DOS CULTOS AFRO BRAS    20121810 000070
10231987175000168817800093673    000032246                    000322460000000000000109                     I0132246     20121800000000350003410000017N291018104700000000000102012180000000000000000000000000000000000000000100001898047774ELISABETH SANTOS PEREIRA                RUA: C                                  FRAGOSO     25900000MAGE           RJUNIAO UMB DOS CULTOS AFRO BRAS    20121810 000071
10231987175000168817800093673    000032245                    000322450000000000000109                     I0132245     20121800000000350003410000017N291018104700000000000102012180000000000000000000000000000000000000000100000635840774MARCOS DE OLIVEIRA                      RUA MARCILIO DIAS                       JARDIM CAICA28910080CABO FRIO      RJUNIAO UMB DOS CULTOS AFRO BRAS    20121810 000072
10231987175000168817800093673    000032244                    000322440000000000000109                     I0132244     20121800000000350003410000017N291018104700000000000102012180000000000000000000000000000000000000000100009488185732RODRIGO MARTINS DE ANDRADE              RUA SAO CARLOS                          ESTACIO     20250052RIO DE JANEIRO RJUNIAO UMB DOS CULTOS AFRO BRAS    20121810 000073
10231987175000168817800093673    000032243                    000322430000000000000109                     I0132243     20121800000000350003410000017N291018104700000000000102012180000000000000000000000000000000000000000100000360973736CLAUDIA PINHEIRO CID                    RUA BRAGA                               PENHA       21011500RIO DE JANEIRO RJUNIAO UMB DOS CULTOS AFRO BRAS    20121810 000074
10231987175000168817800093673    000032242                    000322420000000000000109                     I0132242     20121800000000350003410000017N291018104700000000000102012180000000000000000000000000000000000000000100000043874738ANDREA COSTA                            RUA ATHOS BULCAO                        RECREIO DOS 22790661RIO DE JANEIRO RJUNIAO UMB DOS CULTOS AFRO BRAS    20121810 000075
10231987175000168817800093673    000032241                    000322410000000000000109                     I0132241     20121800000000400003410000017N291018104700000000000102012180000000000000000000000000000000000000000100000934031789ISABEL CRISTINA TEIXEIRA DE OL          RUA ALMOFADA                            VILA VERDE  26178030BELFORD ROXO   RJUNIAO UMB DOS CULTOS AFRO BRAS    20121810 000076
10231987175000168817800093673    000032240                    000322400000000000000109                     I0132240     20121800000000350003410000017N291018104700000000000102012180000000000000000000000000000000000000000100008267557717MARCIA REGINA FELIPE DE SOUZA           ESTRADA DO MENDANHA                     MENDANHA - C23087283RIO DE JANEIRO RJUNIAO UMB DOS CULTOS AFRO BRAS    20121810 000077
10231987175000168817800093673    000032239                    000322390000000000000109                     I0132239     20121800000000350003410000017N291018104700000000000102012180000000000000000000000000000000000000000100041294270753DENISE ROCHA ROSA                       RUA TRIESTE                             PIABETA     25915000MAGE           RJUNIAO UMB DOS CULTOS AFRO BRAS    20121810 000078
10231987175000168817800093673    000032238                    000322380000000000000109                     I0132238     20121800000000350003410000017N291018104700000000000102012180000000000000000000000000000000000000000100009456470776JAMES ARNESS BARBOSA DE OLIVEI          TRAVESSA SAO CARLOS                     RAMOS       20766220RIO DE JANEIRO RJUNIAO UMB DOS CULTOS AFRO BRAS    20121810 000079
10231987175000168817800093673    000032237                    000322370000000000000109                     I0132237     20121800000000350003410000017N291018104700000000000102012180000000000000000000000000000000000000000100073296902791CARLOS ALEXANDRE FERNANDES SAM          RUA BORJA REIS                          ENGENHO DE D20745100RIO DE JANEIRO RJUNIAO UMB DOS CULTOS AFRO BRAS    20121810 000080
10231987175000168817800093673    000032236                    000322360000000000000109                     I0132236     20121800000000350003410000017N291018104700000000000102012180000000000000000000000000000000000000000100062990772715MARLISE VINAGRE SILVA                   RUA DAS DALIAS                          PRADOS VERDE26299042RIO DE JANEIRO RJUNIAO UMB DOS CULTOS AFRO BRAS    20121810 000081
10231987175000168817800093673    000032235                    000322350000000000000109                     I0132235     20121800000000350003410000017N291018104700000000000102012180000000000000000000000000000000000000000100003808829737LEANDRO JOSE OLIVEIRA MENDES            RUA: ALAN KARDEC                        PARQUE JUPIR26187590BELFORD ROXO   RJUNIAO UMB DOS CULTOS AFRO BRAS    20121810 000082
10231987175000168817800093673    000032234                    000322340000000000000109                     I0132234     20121800000000350003410000017N291018104700000000000102012180000000000000000000000000000000000000000100085181390749ALMIR DE MACEDO MATTOSO                 RUA DOMINGOS DE MAGALHAES               MARIA DA GRA20785351RIO DE JANEIRO RJUNIAO UMB DOS CULTOS AFRO BRAS    20121810 000083
10231987175000168817800093673    000032233                    000322330000000000000109                     I0132233     20121800000000400003410000017N291018104700000000000102012180000000000000000000000000000000000000000100009130983703SANDRA MARIA DA SILVA                   RUA PORTUGAL                            VIGARIO GERA20720012RIO DE JANEIRO RJUNIAO UMB DOS CULTOS AFRO BRAS    20121810 000084
10231987175000168817800093673    000032232                    000322320000000000000109                     I0132232     20121800000000350003410000017N291018104700000000000102012180000000000000000000000000000000000000000100055381898720EULICIA DA SILVA SANTOS                 RUA RIO PRETO                           GRAMACHO    25035390DUQUE DE CAXIASRJUNIAO UMB DOS CULTOS AFRO BRAS    20121810 000085
10231987175000168817800093673    000032231                    000322310000000000000109                     I0132231     20121800000000350003410000017N291018104700000000000102012180000000000000000000000000000000000000000100009263590702JEAN CARLOS DOS SANTOS                  RUA NEVES                               PARQUE ARARU25585580SAO JOAO DE MERRJUNIAO UMB DOS CULTOS AFRO BRAS    20121810 000086
10231987175000168817800093673    000032230                    000322300000000000000109                     I0132230     20121800000000400003410000017N291018104700000000000102012180000000000000000000000000000000000000000100082231885700GLORIA SEBASTIANA DA SILVA BAR          RUA: QUINZE DE JANEIRO                  NOVA AURORA 26125350BELFORD ROXO   RJUNIAO UMB DOS CULTOS AFRO BRAS    20121810 000087
10231987175000168817800093673    000032229                    000322290000000000000109                     I0132229     20121800000000350003410000017N291018104700000000000102012180000000000000000000000000000000000000000100002576674747MINERVINA DOS SANTOS TERRA              AVENIDA: JOAO RIBEIRO                   PILARES     20750092RIO DE JANEIRO RJUNIAO UMB DOS CULTOS AFRO BRAS    20121810 000088
10231987175000168817800093673    000032228                    000322280000000000000109                     I0132228     20121800000000350003410000017N291018104700000000000102012180000000000000000000000000000000000000000100010839192703ELISANGELA DA CONCEICAO REIS            RUA FELIPE CAMARAO                      RETIRO      25715010PETROPOLIS     RJUNIAO UMB DOS CULTOS AFRO BRAS    20121810 000089
10231987175000168817800093673    000032227                    000322270000000000000109                     I0132227     20121800000000350003410000017N291018104700000000000102012180000000000000000000000000000000000000000100073494682704MARILENE VIEIRA DE CARVALHO             RUA CRISTIANO MACHADO                   JARDIM AMERI21240470RIO DE JANEIRO RJUNIAO UMB DOS CULTOS AFRO BRAS    20121810 000090
10231987175000168817800093673    000032226                    000322260000000000000109                     I0132226     20121800000000350003410000017N291018104700000000000102012180000000000000000000000000000000000000000100079013686753NEIVA NUNES SENNA                       ALAMEDA SAO SEBASTIAO                   SAO FRANCISC26352680NOVA IGUACU    RJUNIAO UMB DOS CULTOS AFRO BRAS    20121810 000091
10231987175000168817800093673    000032225                    000322250000000000000109                     I0132225     20121800000000350003410000017N291018104700000000000102012180000000000000000000000000000000000000000100001344376754FERNANDA RODRIGUES TEIXEIRA DO          TRAVESSA DO GARGOA                      UNAMAR      28929538CABO FRIO      RJUNIAO UMB DOS CULTOS AFRO BRAS    20121810 000092
10231987175000168817800093673    000032224                    000322240000000000000109                     I0132224     20121800000000350003410000017N291018104700000000000102012180000000000000000000000000000000000000000100012254455745LUIZ DE OLIVEIRA NERY NETO              RUA: ISOLINA                            MEIER       20710070RIO DE JANEIRO RJUNIAO UMB DOS CULTOS AFRO BRAS    20121810 000093
10231987175000168817800093673    000032223                    000322230000000000000109                     I0132223     20121800000000350003410000017N291018104700000000000102012180000000000000000000000000000000000000000100080728774704NERIANA SILVA DO CARMO                  RUA JOAQUIM QUEIROS                     RAMOS       21061610RIO DE JANEIRO RJUNIAO UMB DOS CULTOS AFRO BRAS    20121810 000094
10231987175000168817800093673    000032222                    000322220000000000000109                     I0132222     20121800000000350003410000017N291018104700000000000102012180000000000000000000000000000000000000000100000000011401FABIANO DE AGUIAR                       RUA CINQUENTA E CINCO                   NOSSA SENHOR23097485CAMPO GRANDE   RJUNIAO UMB DOS CULTOS AFRO BRAS    20121810 000095
10231987175000168817800093673    000032221                    000322210000000000000109                     I0132221     20121800000000400003410000017N291018104700000000000102012180000000000000000000000000000000000000000100011648306780PEDRO HENRIQUE MARQUES RODRIGU          ESTRADA JOSE GOMES DA COSTA JUNIOR      POSSE       25973003TERESOPOLIS    RJUNIAO UMB DOS CULTOS AFRO BRAS    20121810 000096
10231987175000168817800093673    000032220                    000322200000000000000109                     I0132220     20121800000000350003410000017N291018104700000000000102012180000000000000000000000000000000000000000100003538138770ELIZABETH DE SANTANA                    ESTRADA DA PACIENCIA                    PACIENCIA   23580250RIO DE JANEIRO RJUNIAO UMB DOS CULTOS AFRO BRAS    20121810 000097
10231987175000168817800093673    000032219                    000322190000000000000109                     I0132219     20121800000000350003410000017N291018104700000000000102012180000000000000000000000000000000000000000100010648685764HELOISA SOUZA DA SILVA                  ESTRADA DOS TEIXEIRAS                   TAQUARA     22723205RIO DE JANEIRO RJUNIAO UMB DOS CULTOS AFRO BRAS    20121810 000098
10231987175000168817800093673    000032218                    000322180000000000000109                     I0132218     20121800000000350003410000017N291018104700000000000102012180000000000000000000000000000000000000000100072121122753ALIETE ROCHA DA SILVA VIEIRA            RUA: INCAMINHABA                        INHAUMA     20766130RIO DE JANEIRO RJUNIAO UMB DOS CULTOS AFRO BRAS    20121810 000099
10231987175000168817800093673    000032217                    000322170000000000000109                     I0132217     20121800000000350003410000017N291018104700000000000102012180000000000000000000000000000000000000000100097197726700MARIA LIDIA GODINHO DA SILVA            RUA ARAUJO LEITAO                       ENGENHO NOVO20715310RIO DE JANEIRO RJUNIAO UMB DOS CULTOS AFRO BRAS    20121810 000100
10231987175000168817800093673    000032216                    000322160000000000000109                     I0132216     20121800000000350003410000017N291018104700000000000102012180000000000000000000000000000000000000000100002499344776EUNIRA DA SALINA DE PAULA               ESTRADA: SAPUCAIA                       ITAUNA      24473330SAO GONCALO    RJUNIAO UMB DOS CULTOS AFRO BRAS    20121810 000101
10231987175000168817800093673    000032215                    000322150000000000000109                     I0132215     20121800000000350003410000017N291018104700000000000102012180000000000000000000000000000000000000000100044234422720GUILHERME JOSE ALVES DA SILVA           RUA VINTE E QUATRO DE MAIO              SAMPAIO     20950091RIO DE JANEIRO RJUNIAO UMB DOS CULTOS AFRO BRAS    20121810 000102
10231987175000168817800093673    000032214                    000322140000000000000109                     I0132214     20121800000000350003410000017N291018104700000000000102012180000000000000000000000000000000000000000100007151714700VERONICA CONCEICAO DE SOUZA AN          RUA: CATANDUVA                          RUA: CATANDU21545420RIO DE JANEIRO RJUNIAO UMB DOS CULTOS AFRO BRAS    20121810 000103
10231987175000168817800093673    000032213                    000322130000000000000109                     I0132213     20121800000000350003410000017N291018104700000000000102012180000000000000000000000000000000000000000100007315512730SIDCLAY MEDEIROS DOS SANTOS             TRAVESSA ANES DIAS                      SANTISSIMO  23094010RIO DE JANEIRO RJUNIAO UMB DOS CULTOS AFRO BRAS    20121810 000104
10231987175000168817800093673    000032212                    000322120000000000000109                     I0132212     20121800000000350003410000017N291018104700000000000102012180000000000000000000000000000000000000000100002604683718MARIA DO CARMO LOPES                    CAMINHO DA CHACRINHA                    PRACA SECA -22733200RIO DE JANEIRO RJUNIAO UMB DOS CULTOS AFRO BRAS    20121810 000105
10231987175000168817800093673    000032211                    000322110000000000000109                     I0132211     20121800000000450003410000017N291018104700000000000102012180000000000000000000000000000000000000000100062501208668JOSANIA APARECIDA DE ANDRADE S          RUA JOAO RIBEIRO NOVAES                 VILA ESPERAN39090600JUIZ DE FORA   MGUNIAO UMB DOS CULTOS AFRO BRAS    20121810 000106
10231987175000168817800093673    000032210                    000322100000000000000109                     I0132210     20121800000000350003410000017N291018104700000000000102012180000000000000000000000000000000000000000100044339682772MARIA APARECIDA DE MOURA MORTA          RUA CARLOS COSTA                        RIACHUELO   20970090RIO DE JANEIRO RJUNIAO UMB DOS CULTOS AFRO BRAS    20121810 000107
10231987175000168817800093673    000032209                    000322090000000000000109                     I0132209     20121800000000350003410000017N291018104700000000000102012180000000000000000000000000000000000000000100030970474768MARIA BALBINA BAPTISTA LATAVAN          RUA MAJOR MEDEIROS                      IRAJA       21220570RIO DE JANEIRO RJUNIAO UMB DOS CULTOS AFRO BRAS    20121810 000108
10231987175000168817800093673    000032208                    000322080000000000000109                     I0132208     20121800000000350003410000017N291018104700000000000102012180000000000000000000000000000000000000000100070175225753LEDA FERREIRA FIGUEIREDO                RUA: SANTA ROSA                         BENTO RIBEIR21331420RIO DE JANEIRO RJUNIAO UMB DOS CULTOS AFRO BRAS    20121810 000109
10231987175000168817800093673    000032207                    000322070000000000000109                     I0132207     20121800000000350003410000017N291018104700000000000102012180000000000000000000000000000000000000000100003322124754CATIA REGINA DE AQUINO MACHADO          RUA CLAUDINO BARATA                     REALENGO    21770200RIO DE JANEIRO RJUNIAO UMB DOS CULTOS AFRO BRAS    20121810 000110
10231987175000168817800093673    000032206                    000322060000000000000109                     I0132206     20121800000000350003410000017N291018104700000000000102012180000000000000000000000000000000000000000100009368867739NEUZA DA SILVA MAIA                     RUA: PETROPOLIS                         TRINDADE    24455806SAO GONCALO    RJUNIAO UMB DOS CULTOS AFRO BRAS    20121810 000111
10231987175000168817800093673    000032205                    000322050000000000000109                     I0132205     20121800000000350003410000017N291018104700000000000102012180000000000000000000000000000000000000000100002156447780TADEU SOARES DA SILVA                   RUA CONDE BONFIM                        TIJUCA      20530001RIO DE JANEIRO RJUNIAO UMB DOS CULTOS AFRO BRAS    20121810 000112
10231987175000168817800093673    000032204                    000322040000000000000109                     I0132204     20121800000000350003410000017N291018104700000000000102012180000000000000000000000000000000000000000100011914616707GENESIO FERREIRA RAMOS                  RUA: PROFETA EZEQUIEL                   IPIIBA      24752250SAO GONCALO    RJUNIAO UMB DOS CULTOS AFRO BRAS    20121810 000113
10231987175000168817800093673    000032203                    000322030000000000000109                     I0132203     20121800000000350003410000017N291018104700000000000102012180000000000000000000000000000000000000000100021953759734MANUEL PEREIRA                          AVENIDA AMARO CAVALCANTI                ENGENHO DE D20735042RIO DE JANEIRO RJUNIAO UMB DOS CULTOS AFRO BRAS    20121810 000114
10231987175000168817800093673    000032202                    000322020000000000000109                     I0132202     20121800000000350003410000017N291018104700000000000102012180000000000000000000000000000000000000000100094081352706ELIZETH BARROS DOS REIS TELACI          RUA: PONTO CHIQUE                       CORDOVIL    21010310RIO DE JANEIRO RJUNIAO UMB DOS CULTOS AFRO BRAS    20121810 000115
10231987175000168817800093673    000032201                    000322010000000000000109                     I0132201     20121800000000400003410000017N291018104700000000000102012180000000000000000000000000000000000000000100064075338720VALDENICE CONCEICAO DA SILVA C          RUA FELIX ANTONIO DA SILVA              ENGENHO PEQU24417580SAO GONCALO    RJUNIAO UMB DOS CULTOS AFRO BRAS    20121810 000116
10231987175000168817800093673    000032200                    000322000000000000000109                     I0132200     20121800000000350003410000017N291018104700000000000102012180000000000000000000000000000000000000000100073711616704SANDRA REGINA BESERRA SILVA             ESTRADA: CAMPO DA AREIA                 PECHINCHA   22743311RIO DE JANEIRO RJUNIAO UMB DOS CULTOS AFRO BRAS    20121810 000117
10231987175000168817800093673    000032199                    000321990000000000000109                     I0132199     20121800000000350003410000017N291018104700000000000102012180000000000000000000000000000000000000000100002212106793ANTONIO CARLOS DA SILVA GONCAL          RUA: VISCONDE DE NITEROI                SAO CRISTOVA20943000RIO DE JANEIRO RJUNIAO UMB DOS CULTOS AFRO BRAS    20121810 000118
10231987175000168817800093673    000032198                    000321980000000000000109                     I0132198     20121800000000350003410000017N291018104700000000000102012180000000000000000000000000000000000000000100000121769747FABIO ANDRE SANTOS DE SOUZA             RUA DIAS DA CRUZ                        MEIER       00000000RIO DE JANEIRO RJUNIAO UMB DOS CULTOS AFRO BRAS    20121810 000119
10231987175000168817800093673    000032197                    000321970000000000000109                     I0132197     20121800000000350003410000017N291018104700000000000102012180000000000000000000000000000000000000000100007403285735MARCIO BAPTISTA CARVALHO                RUA ENALDO DOS SANTOS ARAUJO            ENGENHEIRO L21370200RIO DE JANEIRO RJUNIAO UMB DOS CULTOS AFRO BRAS    20121810 000120
10231987175000168817800093673    000032196                    000321960000000000000109                     I0132196     20121800000000400003410000017N291018104700000000000102012180000000000000000000000000000000000000000100067262198734LELIA DE OLIVEIRA RAMOS                 RUA: VISCONDE DE SANTA ISABEL           VILA ISABEL 20720012RIO DE JANEIRO RJUNIAO UMB DOS CULTOS AFRO BRAS    20121810 000121
10231987175000168817800093673    000032195                    000321950000000000000109                     I0132195     20121800000000350003410000017N291018104700000000000102012180000000000000000000000000000000000000000100005776594723WALACE RODRIGUES                        ESTRADA: DOS TEIXEIRAS                  TAQUARA     22723205RIO DE JANEIRO RJUNIAO UMB DOS CULTOS AFRO BRAS    20121810 000122
10231987175000168817800093673    000032194                    000321940000000000000109                     I0132194     20121800000000350003410000017N291018104700000000000102012180000000000000000000000000000000000000000100008633241773MARCIA CRISTINA VIDEIRO MATEUS          RUA PEDRA DE INDAIA                     PEDRA DE GUA23026440RIO DE JANEIRO RJUNIAO UMB DOS CULTOS AFRO BRAS    20121810 000123
10231987175000168817800093673    000032193                    000321930000000000000109                     I0132193     20121800000000350003410000017N291018104700000000000102012180000000000000000000000000000000000000000100059350059720JOANA D ARC DE SOUZA BADUY              RUA DIVINESIA                           CATIRI      21864060RIO DE JANEIRO RJUNIAO UMB DOS CULTOS AFRO BRAS    20121810 000124
10231987175000168817800093673    000032192                    000321920000000000000109                     I0132192     20121800000000350003410000017N291018104700000000000102012180000000000000000000000000000000000000000100095999620791CARLOS HENRIQUE CARDOSO DA PAI          RUA DAS AZALEIAS                        PEDREIRA    24900000MARICA         RJUNIAO UMB DOS CULTOS AFRO BRAS    20121810 000125
10231987175000168817800093673    000032191                    000321910000000000000109                     I0132191     20121800000000350003410000017N291018104700000000000102012180000000000000000000000000000000000000000100059919442704VANDA LUCIA PINHEIRO ROSA               AVENIDA AYRTON SENNA                    JARDIM PAULI21215550RIO DE JANEIRO RJUNIAO UMB DOS CULTOS AFRO BRAS    20121810 000126
10231987175000168817800093673    000032190                    000321900000000000000109                     I0132190     20121800000000350003410000017N291018104700000000000102012180000000000000000000000000000000000000000100002856003702ANDRE ALVES LIBONATI                    RUA MARIA VARGAS                        QUINTINO BOC21380370RIO DE JANEIRO RJUNIAO UMB DOS CULTOS AFRO BRAS    20121810 000127
10231987175000168817800093673    000032189                    000321890000000000000109                     I0132189     20121800000000350003410000017N291018104700000000000102012180000000000000000000000000000000000000000100098630164700LEILA DE JESUS FREIRE                   RUA CAMINHO DO CABO                     SANTISSIMO  00000000RIO DE JANEIRO RJUNIAO UMB DOS CULTOS AFRO BRAS    20121810 000128
10231987175000168817800093673    000032188                    000321880000000000000109                     I0132188     20121800000000350003410000017N291018104700000000000102012180000000000000000000000000000000000000000100085775576772LUSIA DE FREITAS SERVA                  RUA PEREIRA NETO                        GUARATIBA   23032545RIO DE JANEIRO RJUNIAO UMB DOS CULTOS AFRO BRAS    20121810 000129
10231987175000168817800093673    000032187                    000321870000000000000109                     I0132187     20121800000000350003410000017N291018104700000000000102012180000000000000000000000000000000000000000100005444285797CICERO PEREIRA GOMES NETO               RUA: CAPITAO RUBENS                     MARECHAL HER21610290RIO DE JANEIRO RJUNIAO UMB DOS CULTOS AFRO BRAS    20121810 000130
10231987175000168817800093673    000032186                    000321860000000000000109                     I0132186     20121800000000350003410000017N291018104700000000000102012180000000000000000000000000000000000000000100043625517787DIONETE DE AGUIAR DE OLIVEIRA           RUA CORREIA DUTRA                       FLAMENGO    22210050RIO DE JANEIRO RJUNIAO UMB DOS CULTOS AFRO BRAS    20121810 000131
10231987175000168817800093673    000032185                    000321850000000000000109                     I0132185     20121800000000350003410000017N291018104700000000000102012180000000000000000000000000000000000000000100000000011313SIMONE DE FIGUEIREDO GOMES AZI          RUA SANTA LUZ                           VISTA ALEGRE00000000RIO DE JANEIRO RJUNIAO UMB DOS CULTOS AFRO BRAS    20121810 000132
10231987175000168817800093673    000032184                    000321840000000000000109                     I0132184     20121800000000350003410000017N291018104700000000000102012180000000000000000000000000000000000000000100006067864738MARLY ROSA DIAS CUNHA                   RUA ALVARO RAMOS                        COLONIA - JA00000000RIO DE JANEIRO RJUNIAO UMB DOS CULTOS AFRO BRAS    20121810 000133
10231987175000168817800093673    000032183                    000321830000000000000109                     I0132183     20121800000000350003410000017N291018104700000000000102012180000000000000000000000000000000000000000100005267669725CARLA REGINA JOSE PEREIRA DA S          RUA: MOISES PIRES                       JARDIM NOVA 26272170NOVA IGUACU    RJUNIAO UMB DOS CULTOS AFRO BRAS    20121810 000134
10231987175000168817800093673    000032182                    000321820000000000000109                     I0132182     20121800000000350003410000017N291018104700000000000102012180000000000000000000000000000000000000000100083469559791ALEXANDRE DA SILVA SOUZA                RUA AFONSO RIBEIRO                      PENHA       21031700RIO DE JANEIRO RJUNIAO UMB DOS CULTOS AFRO BRAS    20121810 000135
10231987175000168817800093673    000032181                    000321810000000000000109                     I0132181     20121800000000350003410000017N291018104700000000000102012180000000000000000000000000000000000000000100009830689760IGOR DE ALMEIDA                         AV. CAMPO MOURAO                        GUARATIBA   23031080RIO DE JANEIRO RJUNIAO UMB DOS CULTOS AFRO BRAS    20121810 000136
10231987175000168817800093673    000032180                    000321800000000000000109                     I0132180     20121800000000350003410000017N291018104700000000000102012180000000000000000000000000000000000000000100000747523715CLAUDIARA TEIXEIRA DA SILVA             RUA CAMBUCI                             MUQUECA     27140280BARRA DO PIRAI RJUNIAO UMB DOS CULTOS AFRO BRAS    20121810 000137
10231987175000168817800093673    000032179                    000321790000000000000109                     I0132179     20121800000000350003410000017N291018104700000000000102012180000000000000000000000000000000000000000100047585978715HARILDO FRANCISCO DOS SANTOS            RUA:JOSE PINTO DE MACEDO - TRAVESSA TODOPRAINHA     28930000ARRAIAL DO CABORJUNIAO UMB DOS CULTOS AFRO BRAS    20121810 000138
10231987175000168817800093673    000032178                    000321780000000000000109                     I0132178     20121800000000350003410000017N291018104700000000000102012180000000000000000000000000000000000000000100086450328304ANA MARIA SOUZA MACIEL                  RUA DOUTOR ANTONIO LEAL                 HONORIO GURG21511070RIO DE JANEIRO RJUNIAO UMB DOS CULTOS AFRO BRAS    20121810 000139
10231987175000168817800093673    000032177                    000321770000000000000109                     I0132177     20121800000000400003410000017N291018104700000000000102012180000000000000000000000000000000000000000100070859086704MARIA CRISTINA DA SILVA SANTAN          RUA: SEBASTIAN BACH                     JARDIM AMERI21240370RIO DE JANEIRO RJUNIAO UMB DOS CULTOS AFRO BRAS    20121810 000140
10231987175000168817800093673    000032176                    000321760000000000000109                     I0132176     20121800000000350003410000017N291018104700000000000102012180000000000000000000000000000000000000000100002344160760MARIA DAS GRACAS SANTOS CLEMEN          RUA: CORNELHO FERREIRA                  PONTE LARANJ27175000BARRA DO PIRAI RJUNIAO UMB DOS CULTOS AFRO BRAS    20121810 000141
10231987175000168817800093673    000032175                    000321750000000000000109                     I0132175     20121800000000350003410000017N291018104700000000000102012180000000000000000000000000000000000000000100005414691717UANDERSON DE SOUZA XAVIER               RUA: ALFREDO MANSUR                     MORRO GAMA  27150430BARRA DO PIRAI RJUNIAO UMB DOS CULTOS AFRO BRAS    20121810 000142
10231987175000168817800093673    000032174                    000321740000000000000109                     I0132174     20121800000000350003410000017N291018104700000000000102012180000000000000000000000000000000000000000100007433436707SILVIA DE MOURA CASTRO                  RUA: DOUTOR MARCH                       BARRETO     00000000NITEROI        RJUNIAO UMB DOS CULTOS AFRO BRAS    20121810 000143
10231987175000168817800093673    000032173                    000321730000000000000109                     I0132173     20121800000000350003410000017N291018104700000000000102012180000000000000000000000000000000000000000100061154725715REGINA CELIA GOMES DOS SANTOS           RUA CACHAMBI                            CACHAMBI    20775182RIO DE JANEIRO RJUNIAO UMB DOS CULTOS AFRO BRAS    20121810 000144
10231987175000168817800093673    000032172                    000321720000000000000109                     I0132172     20121800000000350003410000017N291018104700000000000102012180000000000000000000000000000000000000000100001231947764ELENICE BRAGA SANTA ANA                 RUA UARUMA                              HIGIENOPOLIS21050660RIO DE JANEIRO RJUNIAO UMB DOS CULTOS AFRO BRAS    20121810 000145
10231987175000168817800093673    000032171                    000321710000000000000109                     I0132171     20121800000000350003410000017N291018104700000000000102012180000000000000000000000000000000000000000100059841672715MONICA TARDELLE                         RUA: EUBANQUE                           ENGENHO DA R20766600RIO DE JANEIRO RJUNIAO UMB DOS CULTOS AFRO BRAS    20121810 000146
10231987175000168817800093673    000032170                    000321700000000000000109                     I0132170     20121800000000350003410000017N291018104700000000000102012180000000000000000000000000000000000000000100074597035753LUCIMAR DE SOUZA DIAS                   RUA LIGIA MALAGUTI                      BOMBAS DO GU26357000NOVA IGUACU    RJUNIAO UMB DOS CULTOS AFRO BRAS    20121810 000147
10231987175000168817800093673    000032169                    000321690000000000000109                     I0132169     20121800000000350003410000017N291018104700000000000102012180000000000000000000000000000000000000000100092372473700WANDERLEIA MACIEL DE AZEVEDO            RUA: SAO JOAQUIM                        VILA SAO LUI25086070DUQUE DE CAXIASRJUNIAO UMB DOS CULTOS AFRO BRAS    20121810 000148
10231987175000168817800093673    000032168                    000321680000000000000109                     I0132168     20121800000000350003410000017N291018104700000000000102012180000000000000000000000000000000000000000100002877150780CENIRA DOS SANTOS FERREIRA              RUA SAO BENTO                           BABILONIA   22010060RIO DE JANEIRO RJUNIAO UMB DOS CULTOS AFRO BRAS    20121810 000149
10231987175000168817800093673    000032167                    000321670000000000000109                     I0132167     20121800000000350003410000017N291018104700000000000102012180000000000000000000000000000000000000000100001190921740CELIA FERREIRA DE BRITO REIS            RUA DANIEL THOMPSON                     SANTISSIMO  23093010RIO DE JANEIRO RJUNIAO UMB DOS CULTOS AFRO BRAS    20121810 000150
10231987175000168817800093673    000032166                    000321660000000000000109                     I0132166     20121800000000400003410000017N291018104700000000000102012180000000000000000000000000000000000000000100004750450766ALEX KELLY CALDERARO                    RUA TENENTE JERONIMO MESQUITA           IRAJA       21371300RIO DE JANEIRO RJUNIAO UMB DOS CULTOS AFRO BRAS    20121810 000151
10231987175000168817800093673    000032165                    000321650000000000000109                     I0132165     20121800000000350003410000017N291018104700000000000102012180000000000000000000000000000000000000000100004770414773CARLOS ALBERTO TORRES NOGUEIRA          ESTRADA DO LAMEIRAO                     SANTISSIMO  23092031RIO DE JANEIRO RJUNIAO UMB DOS CULTOS AFRO BRAS    20121810 000152
10231987175000168817800093673    000032164                    000321640000000000000109                     I0132164     20121800000000350003410000017N291018104700000000000102012180000000000000000000000000000000000000000100073608351787ANTONIO CARLOS MARTINS DA SILV          ESTRADA DA ESTIVA                       SEPETIBA    00000000RIO DE JANEIRO RJUNIAO UMB DOS CULTOS AFRO BRAS    20121810 000153
10231987175000168817800093673    000032163                    000321630000000000000109                     I0132163     20121800000000350003410000017N291018104700000000000102012180000000000000000000000000000000000000000100082993610791JOSE CARLOS ROSA DA CONCEICAO           AVENIDA: CANAL DA FIGUEIRA              JARDIM ANHAN25264160DUQUE DE CAXIASRJUNIAO UMB DOS CULTOS AFRO BRAS    20121810 000154
10231987175000168817800093673    000032162                    000321620000000000000109                     I0132162     20121800000000350003410000017N291018104700000000000102012180000000000000000000000000000000000000000100062227998768CARLOS FERNANDO MACEDO FERREIR          TRAVESSA ALZIRA VARGAS                  FONSECA     24130210NITEROI        RJUNIAO UMB DOS CULTOS AFRO BRAS    20121810 000155
10231987175000168817800093673    000032161                    000321610000000000000109                     I0132161     20121800000000350003410000017N291018104700000000000102012180000000000000000000000000000000000000000100003317113707WIRANI MARTINS                          RUA ETELVINA DE CASTRO                  PARQUE ELDOR25240390DUQUE DE CAXIASRJUNIAO UMB DOS CULTOS AFRO BRAS    20121810 000156
10231987175000168817800093673    000032160                    000321600000000000000109                     I0132160     20121800000000350003410000017N291018104700000000000102012180000000000000000000000000000000000000000100096860871768MARILIA MELLO DOS SANTOS                RUA MACAPA                              SANTA CRUZ  23550260RIO DE JANEIRO RJUNIAO UMB DOS CULTOS AFRO BRAS    20121810 000157
10231987175000168817800093673    000032159                    000321590000000000000109                     I0132159     20121800000000400003410000017N291018104700000000000102012180000000000000000000000000000000000000000100085949841700GEORGETTE PAIVA MARQUES                 RUA ALVORADA DO SUL,                    INHOAIBA    23062010RIO DE JANEIRO RJUNIAO UMB DOS CULTOS AFRO BRAS    20121810 000158
10231987175000168817800093673    000032158                    000321580000000000000109                     I0132158     20121800000000350003410000017N291018104700000000000102012180000000000000000000000000000000000000000100001016102704ANTONIETA DE ALMEIDA PAREDES            AVENIDA PROFESSORA ROMANA GONCALVES     ITAIPU      24340090NITEROI        RJUNIAO UMB DOS CULTOS AFRO BRAS    20121810 000159
10231987175000168817800093673    000032157                    000321570000000000000109                     I0132157     20121800000000350003410000017N291018104700000000000102012180000000000000000000000000000000000000000100011418927740JORGE MARCOS DE SA FREIRE               RUA RIO ALVA                            PARQUE COMER25041430DUQUE DE CAXIASRJUNIAO UMB DOS CULTOS AFRO BRAS    20121810 000160
10231987175000168817800093673    000032156                    000321560000000000000109                     I0132156     20121800000000350003410000017N291018104700000000000102012180000000000000000000000000000000000000000100008389266733BEATRIZ DE AZEVEDO NUNES                RUA: SAPOPEMBA                          BENTO RIBEIR21321240RIO DE JANEIRO RJUNIAO UMB DOS CULTOS AFRO BRAS    20121810 000161
10231987175000168817800093673    000032155                    000321550000000000000109                     I0132155     20121800000000350003410000017N291018104700000000000102012180000000000000000000000000000000000000000100091097810787SOLANGE VALENTIM DA SILVA               RUA URUCUIA                             VILA VALQUEI21321310RIO DE JANEIRO RJUNIAO UMB DOS CULTOS AFRO BRAS    20121810 000162
10231987175000168817800093673    000032154                    000321540000000000000109                     I0132154     20121800000000350003410000017N291018104700000000000102012180000000000000000000000000000000000000000100061458317749BENEDITA DEODORO DE MORAIS              RUA GENTIL DINIZ                        NOVO MEXICO 27130170BARRA DO PIRAI RJUNIAO UMB DOS CULTOS AFRO BRAS    20121810 000163
10231987175000168817800093673    000032153                    000321530000000000000109                     I0132153     20121800000000350003410000017N291018104700000000000102012180000000000000000000000000000000000000000100003276628759HERCULES LIMA TAVARES                   RUA: ALFREDO MANSUR                     MORRO GAMA  27150430BARRA DO PIRAI RJUNIAO UMB DOS CULTOS AFRO BRAS    20121810 000164
10231987175000168817800093673    000032152                    000321520000000000000109                     I0132152     20121800000000350003410000017N291018104700000000000102012180000000000000000000000000000000000000000100084273852772JUREMA FRANKLIN DA SILVA                RUA MARQUES QUELUZ                      IRAJA       21235120RIO DE JANEIRO RJUNIAO UMB DOS CULTOS AFRO BRAS    20121810 000165
10231987175000168817800093673    000032151                    000321510000000000000109                     I0132151     20121800000000350003410000017N291018104700000000000102012180000000000000000000000000000000000000000100032759827704TEREZA COSTA DE CASTRO                  RUA JOAO BATISTA DA FONSECA             MATADOURO   27115020BARRA DO PIRAI RJUNIAO UMB DOS CULTOS AFRO BRAS    20121810 000166
10231987175000168817800093673    000032150                    000321500000000000000109                     I0132150     20121800000000350003410000017N291018104700000000000102012180000000000000000000000000000000000000000100012732003735THAYS CRISTINA CAMPOS BARBOSA           RUA  LUIS BARBALHO                      ROCHA MIRAND21510110RIO DE JANEIRO RJUNIAO UMB DOS CULTOS AFRO BRAS    20121810 000167
10231987175000168817800093673    000032149                    000321490000000000000109                     I0132149     20121800000000350003410000017N291018104700000000000102012180000000000000000000000000000000000000000100087188144700ILSON ALVES DE MELLO                    RUA MAESTRO CLAUDIONOR DA SILVA         FRAGOSO     25935506MAGE           RJUNIAO UMB DOS CULTOS AFRO BRAS    20121810 000168
10231987175000168817800093673    000032148                    000321480000000000000109                     I0132148     20121800000000350003410000017N291018104700000000000102012180000000000000000000000000000000000000000100062840223791JOAO MORENO NETO                        RUA DAS PERPETUAS                       VILA FORMOSA26051460NOVA IGUACU    RJUNIAO UMB DOS CULTOS AFRO BRAS    20121810 000169
10231987175000168817800093673    000032147                    000321470000000000000109                     I0132147     20121800000000350003410000017N291018104700000000000102012180000000000000000000000000000000000000000100061009865749JORGINA OLEGARIO DE OLIVEIRA            RUA: TURMALINAS - ANTIGA RUA 45         JARDIM CATAR24715671SAO GONCALO    RJUNIAO UMB DOS CULTOS AFRO BRAS    20121810 000170
10231987175000168817800093673    000032146                    000321460000000000000109                     I0132146     20121800000000350003410000017N291018104700000000000102012180000000000000000000000000000000000000000100075310112715MAMEDE DA SILVA ANDRADE                 RUA FISCAL JOSE FIGUEIRA                SANTO ANTONI27115120BARRA DO PIRAI RJUNIAO UMB DOS CULTOS AFRO BRAS    20121810 000171
10231987175000168817800093673    000032145                    000321450000000000000109                     I0132145     20121800000000350003410000017N291018104700000000000102012180000000000000000000000000000000000000000100000000011186FLAVIA CRISTINA DINIZ                   RUA: JOSE FIRMINO DE MELO               QUIMICA     27130360BARRA DO PIRAI RJUNIAO UMB DOS CULTOS AFRO BRAS    20121810 000172
10231987175000168817800093673    000032144                    000321440000000000000109                     I0132144     20121800000000350003410000017N291018104700000000000102012180000000000000000000000000000000000000000100066255970744MARIA HELENA OLIVEIRA ALBUQUER          RUA CONDE DE RESENDE                    BENTO RIBEIR21550600RIO DE JANEIRO RJUNIAO UMB DOS CULTOS AFRO BRAS    20121810 000173
10231987175000168817800093673    000032143                    000321430000000000000109                     I0132143     20121800000000350003410000017N291018104700000000000102012180000000000000000000000000000000000000000100033518297791MARIA JOSE DE SANTANA                   AVENIDA NOSSA SENHORA DE COPACABANA     COPACABANA  22060001RIO DE JANEIRO RJUNIAO UMB DOS CULTOS AFRO BRAS    20121810 000174
10231987175000168817800093673    000032142                    000321420000000000000109                     I0132142     20121800000000350003410000017N291018104700000000000102012180000000000000000000000000000000000000000100054148430744EDILEUZA GOMES PORTELLA                 RUA GAVEA                               COPACABANA  25060300DUQUE DE CAXIASRJUNIAO UMB DOS CULTOS AFRO BRAS    20121810 000175
10231987175000168817800093673    000032141                    000321410000000000000109                     I0132141     20121800000000350003410000017N291018104700000000000102012180000000000000000000000000000000000000000100053207823734HELENICE TEODORO DA SILVA CARV          AVENIDA ALTO MARANHAO                   PARQUE GUARA23026010RIO DE JANEIRO RJUNIAO UMB DOS CULTOS AFRO BRAS    20121810 000176
10231987175000168817800093673    000032140                    000321400000000000000109                     I0132140     20121800000000350003410000017N291018104700000000000102012180000000000000000000000000000000000000000100072005300772REGINA CELIA MACHADO FERREIRA           ESTRADA BEJAMIM ACIOLI                  ENG PAULO DE26660000PAULO DE FRONTIRJUNIAO UMB DOS CULTOS AFRO BRAS    20121810 000177
10231987175000168817800093673    000032139                    000321390000000000000109                     I0132139     20121800000000350003410000017N291018104700000000000102012180000000000000000000000000000000000000000100079072283791MYRIAN AMORIM RIBEIRO                   ESTRADA INTENDENTE MAGALHAES            MADUREIRA   21341332RIO DE JANEIRO RJUNIAO UMB DOS CULTOS AFRO BRAS    20121810 000178
10231987175000168817800093673    000032138                    000321380000000000000109                     I0132138     20121800000000350003410000017N291018104700000000000102012180000000000000000000000000000000000000000100008933173730LUIZA DA SILVA COSTA                    RUA MAJOR SIMOES DA FONSECA             SAO JOAQUIM 00000000NITEROI        RJUNIAO UMB DOS CULTOS AFRO BRAS    20121810 000179
10231987175000168817800093673    000032137                    000321370000000000000109                     I0132137     20121800000000350003410000017N291018104700000000000102012180000000000000000000000000000000000000000100008417913769SANDERSON DOS SANTOS LOBO               RUA GUARANHUNS                          JARDIM BRASI26193070BELFORD ROXO   RJUNIAO UMB DOS CULTOS AFRO BRAS    20121810 000180
10231987175000168817800093673    000032136                    000321360000000000000109                     I0132136     20121800000000350003410000017N291018104700000000000102012180000000000000000000000000000000000000000100003561463754NORMA CRISTINA JUSTO PRUDENTE           RUA ALUISIO LIRA                        PARQUE ANCHI21635040RIO DE JANEIRO RJUNIAO UMB DOS CULTOS AFRO BRAS    20121810 000181
10231987175000168817800093673    000032135                    000321350000000000000109                     I0132135     20121800000000350003410000017N291018104700000000000102012180000000000000000000000000000000000000000100007944884713EDENILDO PAIVA ALVES                    RUA ANTONIO DE PADUA                    SAMPAIO     20950250RIO DE JANEIRO RJUNIAO UMB DOS CULTOS AFRO BRAS    20121810 000182
10231987175000168817800093673    000032134                    000321340000000000000109                     I0132134     20121800000000350003410000017N291018104700000000000102012180000000000000000000000000000000000000000100002833269722ANA MARIA MARQUES DE AZEVEDO            RUA GUARA                               QUEIMADOS   26470180RIO DE JANEIRO RJUNIAO UMB DOS CULTOS AFRO BRAS    20121810 000183
10231987175000168817800093673    000032133                    000321330000000000000109                     I0132133     20121800000000350003410000017N291018104700000000000102012180000000000000000000000000000000000000000100088224228720VERA MARIA DA SILVA                     AVENIDA FARROUPILHA - ANTIGA RUA 6      GUAXINDIBA  24722270RIO DE JANEIRO RJUNIAO UMB DOS CULTOS AFRO BRAS    20121810 000184
10231987175000168817800093673    000032132                    000321320000000000000109                     I0132132     20121800000000350003410000017N291018104700000000000102012180000000000000000000000000000000000000000100086464493787MARIA DE FATIMA SOUZA SILVA TE          RUA: NINA RIBEIRO                       PAVUNA      21520290RIO DE JANEIRO RJUNIAO UMB DOS CULTOS AFRO BRAS    20121810 000185
10231987175000168817800093673    000032131                    000321310000000000000109                     I0132131     20121800000000400003410000017N291018104700000000000102012180000000000000000000000000000000000000000100070727201700MARIA LUIZA AGENOR BERTHOR              RUA: MARIA DO CARMO                     EDEN        25530450NILOPOLIS      RJUNIAO UMB DOS CULTOS AFRO BRAS    20121810 000186
10231987175000168817800093673    000032130                    000321300000000000000109                     I0132130     20121800000000350003410000017N291018104700000000000102012180000000000000000000000000000000000000000100088966338797ZENIRA DE CARVALHO CONCEICAO            AVENIDA ALMIRANTE AMORIM DO VALE        MARAMBAIA   24724560SAO GONCALO    RJUNIAO UMB DOS CULTOS AFRO BRAS    20121810 000187
10231987175000168817800093673    000032129                    000321290000000000000109                     I0132129     20121800000000350003410000017N291018104700000000000102012180000000000000000000000000000000000000000100001230403701DENILSON MOTA DRUMOND                   RUA, ALVES DA COSTA                     CHANGRILA   26140320BELFORD ROXO   RJUNIAO UMB DOS CULTOS AFRO BRAS    20121810 000188
10231987175000168817800093673    000032128                    000321280000000000000109                     I0132128     20121800000000350003410000017N291018104700000000000102012180000000000000000000000000000000000000000100058951733734ROSINEA MIRANDA CORREA DOS SAN          RUA: IGUACU                             PARQUE LAFAI25015350DUQUE DE CAXIASRJUNIAO UMB DOS CULTOS AFRO BRAS    20121810 000189
10231987175000168817800093673    000032127                    000321270000000000000109                     I0132127     20121800000000350003410000017N291018104700000000000102012180000000000000000000000000000000000000000100077575644768ROBSON ANDRE GONCALVES OUREM            RUA: RECIFE                             CAMPOS ELISE21032060RIO DE JANEIRO RJUNIAO UMB DOS CULTOS AFRO BRAS    20121810 000190
10231987175000168817800093673    000032126                    000321260000000000000109                     I0132126     20121800000000350003410000017N291018104700000000000102012180000000000000000000000000000000000000000100086257277787WLADIMIR DO CARMO PINTO                 RUA ARLETE CELESTINO AYRES VANDERLEY    JARDIM SULAC21745650RIO DE JANEIRO RJUNIAO UMB DOS CULTOS AFRO BRAS    20121810 000191
10231987175000168817800093673    000032125                    000321250000000000000109                     I0132125     20121800000000350003410000017N291018104700000000000102012180000000000000000000000000000000000000000100078190290720IARA PIO GOMES MARQUES                  RUA MARTINS SARAZATI                    GUAXINDIBA  21510170RIO DE JANEIRO RJUNIAO UMB DOS CULTOS AFRO BRAS    20121810 000192
10231987175000168817800093673    000032124                    000321240000000000000109                     I0132124     20121800000000350003410000017N291018104700000000000102012180000000000000000000000000000000000000000100008601426719DAMIANA CRISTINA TORRES DA SIL          RUA: JAGUAPITAN                         SANTA MARGAR23060210CAMPO GRANDE   RJUNIAO UMB DOS CULTOS AFRO BRAS    20121810 000193
10231987175000168817800093673    000032123                    000321230000000000000109                     I0132123     20121800000000350003410000017N291018104700000000000102012180000000000000000000000000000000000000000100003546040740MONICA DA SILVA OLIVEIRA                RUA CORREIA DIAS                        VIGARIO GERA21241310RIO DE JANEIRO RJUNIAO UMB DOS CULTOS AFRO BRAS    20121810 000194
10231987175000168817800093673    000032122                    000321220000000000000109                     I0132122     20121800000000350003410000017N291018104700000000000102012180000000000000000000000000000000000000000100000000001111LUCIENE CRISTINA DE OLIVEIRA S          RUA: FRANCISCO MENDES FRANCO            CENTRO      27135170BARRA DO PIRAI RJUNIAO UMB DOS CULTOS AFRO BRAS    20121810 000195
10231987175000168817800093673    000032121                    000321210000000000000109                     I0132121     20121800000000350003410000017N291018104700000000000102012180000000000000000000000000000000000000000100087407396787ALAIDE DA CONCEICAO                     RUA SAO JOSE                            PONTE DO ROC27700000VASSOURAS      RJUNIAO UMB DOS CULTOS AFRO BRAS    20121810 000196
10231987175000168817800093673    000032120                    000321200000000000000109                     I0132120     20121800000000350003410000017N291018104700000000000102012180000000000000000000000000000000000000000100074190741787JOSE ITAGIBA RODRIGUES                  TRAVESSA SANTA ROSA                     CAPELA      25916060MAGE           RJUNIAO UMB DOS CULTOS AFRO BRAS    20121810 000197
10231987175000168817800093673    000032119                    000321190000000000000109                     I0132119     20121800000000350003410000017N291018104700000000000102012180000000000000000000000000000000000000000100035041056749SONIA DUTRA DA CRUZ                     RUA PAULO VIANA                         ROCHA MIRAND21540460RIO DE JANEIRO RJUNIAO UMB DOS CULTOS AFRO BRAS    20121810 000198
10231987175000168817800093673    000032118                    000321180000000000000109                     I0132118     20121800000000350003410000017N291018104700000000000102012180000000000000000000000000000000000000000100011704321743TATIENE DE SOUZA FRANCA DA SIL          RUA: CAMINHO DA ILHA                    ILHA DE GUAR23020200RIO DE JANEIRO RJUNIAO UMB DOS CULTOS AFRO BRAS    20121810 000199
10231987175000168817800093673    000032117                    000321170000000000000109                     I0132117     20121800000000350003410000017N291018104700000000000102012180000000000000000000000000000000000000000100000890225729MARINA DA SILVA ANGELO                  RUA: DOZE                               ITAMBI      24866456ITABORAI       RJUNIAO UMB DOS CULTOS AFRO BRAS    20121810 000200
10231987175000168817800093673    000032116                    000321160000000000000109                     I0132116     20121800000000350003410000017N291018104700000000000102012180000000000000000000000000000000000000000100001343627729RICARDO CADER DA SILVA                  RUA: MONCLARO MENA BARRETO              VILA VALQUEI22010010RIO DE JANEIRO RJUNIAO UMB DOS CULTOS AFRO BRAS    20121810 000201
10231987175000168817800093673    000032115                    000321150000000000000109                     I0132115     20121800000000350003410000017N291018104700000000000102012180000000000000000000000000000000000000000100006193629793ALESSANDRA SANTOS DE OLIVEIRA           AVENIDA: FLEXEIRA                       ENGENHEIRO P26413250JAPERI         RJUNIAO UMB DOS CULTOS AFRO BRAS    20121810 000202
10231987175000168817800093673    000032114                    000321140000000000000109                     I0132114     20121800000000380003410000017N291018104700000000000102012180000000000000000000000000000000000000000100053387473753ALAN PINTO DE OLIVEIRA                  RUA MANOEL VITORINO                     ENCANTADO   20740280RIO DE JANEIRO RJUNIAO UMB DOS CULTOS AFRO BRAS    20121810 000203
10231987175000168817800093673    000032113                    000321130000000000000109                     I0132113     20121800000000350003410000017N291018104700000000000102012180000000000000000000000000000000000000000100001596786760LINDEMBERG DE SOUZA AMARAL              RUA: SACOPAN                            BOTAFOGO    00000000NOVA IGUACU    RJUNIAO UMB DOS CULTOS AFRO BRAS    20121810 000204
10231987175000168817800093673    000032112                    000321120000000000000109                     I0132112     20121800000000350003410000017N291018104700000000000102012180000000000000000000000000000000000000000100076719588753JULIO CESAR CASTRILON                   RUA:JADE                                CAMPO GRANDE23071350RIO DE JANEIRO RJUNIAO UMB DOS CULTOS AFRO BRAS    20121810 000205
10231987175000168817800093673    000032111                    000321110000000000000109                     I0132111     20121800000000350003410000017N291018104700000000000102012180000000000000000000000000000000000000000100003554736740TANIA CAMPOS CAMILLO                    RUA: GUATAMBU                           VILA ERA - S26167750BELFORD ROXO   RJUNIAO UMB DOS CULTOS AFRO BRAS    20121810 000206
10231987175000168817800093673    000032110                    000321100000000000000109                     I0132110     20121800000000350003410000017N291018104700000000000102012180000000000000000000000000000000000000000100007275404721JANETE DE SOUZA FRANCO                  RUA SALES, TRAVESSA VITORIA             SANTA CRUZ  23575195RIO DE JANEIRO RJUNIAO UMB DOS CULTOS AFRO BRAS    20121810 000207
10231987175000168817800093673    000032109                    000321090000000000000109                     I0132109     20121800000000350003410000017N291018104700000000000102012180000000000000000000000000000000000000000100002349584720UANDERSON MARTINS DE PAULA              RUA MUNIZ E BARROS                      RIO D OURO  00000000MIGUEL PEREIRA RJUNIAO UMB DOS CULTOS AFRO BRAS    20121810 000208
10231987175000168817800093673    000032108                    000321080000000000000109                     I0132108     20121800000000350003410000017N291018104700000000000102012180000000000000000000000000000000000000000100099213133715CLAUDIO LOPES ALBINO                    RUA: MARECHAL AGRICOLA                  REALENGO    21735370RIO DE JANEIRO RJUNIAO UMB DOS CULTOS AFRO BRAS    20121810 000209
10231987175000168817800093673    000032107                    000321070000000000000109                     I0132107     20121800000000350003410000017N291018104700000000000102012180000000000000000000000000000000000000000100006715164851MARISA DA SILVA                         RUA DOZE                                MARACAIBO   12120000TREMEMBE       SPUNIAO UMB DOS CULTOS AFRO BRAS    20121810 000210
10231987175000168817800093673    000032106                    000321060000000000000109                     I0132106     20121800000000350003410000017N291018104700000000000102012180000000000000000000000000000000000000000100030779723791JAMILTON BISPO DOS SANTOS               ESTRADA DOS PALMARES                    MORADA VERDE23575270RIO DE JANEIRO RJUNIAO UMB DOS CULTOS AFRO BRAS    20121810 000211
10231987175000168817800093673    000032105                    000321050000000000000109                     I0132105     20121800000000350003410000017N291018104700000000000102012180000000000000000000000000000000000000000100008324809759CARLA DA SILVA JUSTINO                  RUA DAS CAMELIAS                        PIRANEMA    23855220ITAGUAI        RJUNIAO UMB DOS CULTOS AFRO BRAS    20121810 000212
10231987175000168817800093673    000032104                    000321040000000000000109                     I0132104     20121800000000350003410000017N291018104700000000000102012180000000000000000000000000000000000000000100033104468753NILZA ALVES CHAROTTA                    RUA LAGUNA                              NOVA PIAN   04610003SAO PAULO      SPUNIAO UMB DOS CULTOS AFRO BRAS    20121810 000213
10231987175000168817800093673    000032103                    000321030000000000000109                     I0132103     20121800000000350003410000017N291018104700000000000102012180000000000000000000000000000000000000000100002865366766LUCIA DA SILVA CESAR                    RUA NOVE DE JUNHO                       JARDIM CABUC26335000NOVA IGUACU    RJUNIAO UMB DOS CULTOS AFRO BRAS    20121810 000214
10231987175000168817800093673    000032102                    000321020000000000000109                     I0132102     20121800000000350003410000017N291018104700000000000102012180000000000000000000000000000000000000000100003315003700ROGERIO DE SOUZA RODRIGUES              RUA: DA LAGOA                           SAO BENTO   28600000DUQUE DE CAXIASRJUNIAO UMB DOS CULTOS AFRO BRAS    20121810 000215
10231987175000168817800093673    000032101                    000321010000000000000109                     I0132101     20121800000000350003410000017N291018104700000000000102012180000000000000000000000000000000000000000100003210854777NELIO PEREIRA BARCELOS                  RUA: VISCONDE DO URUGUAI                CENTRO      24030073NITEROI        RJUNIAO UMB DOS CULTOS AFRO BRAS    20121810 000216
10231987175000168817800093673    000032100                    000321000000000000000109                     I0132100     20121800000000350003410000017N291018104700000000000102012180000000000000000000000000000000000000000100080374174768SIMONE CARVALHO AFFONSO MARINS          RUA SOARES TAVARES                      RAMOS       21030310RIO DE JANEIRO RJUNIAO UMB DOS CULTOS AFRO BRAS    20121810 000217
10231987175000168817800093673    000032099                    000320990000000000000109                     I0132099     20121800000000350003410000017N291018104700000000000102012180000000000000000000000000000000000000000100096720697749CARLA CRISTIANE CAVALCANTE M.           ESTRADA: BANANAL                        FREGUESIA - 22745011RIO DE JANEIRO RJUNIAO UMB DOS CULTOS AFRO BRAS    20121810 000218
10231987175000168817800093673    000032098                    000320980000000000000109                     I0132098     20121800000000350003410000017N291018104700000000000102012180000000000000000000000000000000000000000100073431850715SIDNEY MEGE                             RUA: GENERAL CORREIA DO LAGO            HONORIO GURG21511320RIO DE JANEIRO RJUNIAO UMB DOS CULTOS AFRO BRAS    20121810 000219
10231987175000168817800093673    000032097                    000320970000000000000109                     I0132097     20121800000000350003410000017N291018104700000000000102012180000000000000000000000000000000000000000100001625540795JUCILENE GOMES MINDAS DOS SANT          RUA MENDEL CARDOSO DE MATTOS            PARAISO     26297009NOVA IGUACU    RJUNIAO UMB DOS CULTOS AFRO BRAS    20121810 000220
10231987175000168817800093673    000032096                    000320960000000000000109                     I0132096     20121800000000350003410000017N291018104700000000000102012180000000000000000000000000000000000000000100002411217790WANDERLEI DA CONCEICAO LUIZ             RUA PEREIRA DA NOBREGA                  MARECHAL HER21610460RIO DE JANEIRO RJUNIAO UMB DOS CULTOS AFRO BRAS    20121810 000221
10231987175000168817800093673    000032095                    000320950000000000000109                     I0132095     20121800000000350003410000017N291018104700000000000102012180000000000000000000000000000000000000000100008679284769ANA PAULA DA SILVA BRAGA                RUA ELVIRA DA FONSECA                   TANQUE      22733150RIO DE JANEIRO RJUNIAO UMB DOS CULTOS AFRO BRAS    20121810 000222
10231987175000168817800093673    000032094                    000320940000000000000109                     I0132094     20121800000000350003410000017N291018104700000000000102012180000000000000000000000000000000000000000100002868269761ISLAND LUIZA DE ALMEIDA SIMOES          RUA: BACOPA                             BENTO RIBEIR21331140RIO DE JANEIRO RJUNIAO UMB DOS CULTOS AFRO BRAS    20121810 000223
10231987175000168817800093673    000032093                    000320930000000000000109                     I0132093     20121800000000350003410000017N291018104700000000000102012180000000000000000000000000000000000000000100000939178729ANA LUCIA LIMA DA SILVA                 RUA ESTADOS UNIDOS                      MARAMBA     26064300NOVA IGUACU    RJUNIAO UMB DOS CULTOS AFRO BRAS    20121810 000224
10231987175000168817800093673    000032092                    000320920000000000000109                     I0132092     20121800000000350003410000017N291018104700000000000102012180000000000000000000000000000000000000000100004545448712LUCIANA DE SOUZA PIMENTA                RUA: HUGO BALDESSARINI                  VISTA ALEGRE21236040RIO DE JANEIRO RJUNIAO UMB DOS CULTOS AFRO BRAS    20121810 000225
10231987175000168817800093673    000032091                    000320910000000000000109                     I0132091     20121800000000350003410000017N291018104700000000000102012180000000000000000000000000000000000000000100031002170710ANTONIO JOSE DA SILVA FRAIZ             RUA: BENJAMIM CONSTANC                  GLORIA      20241150RIO DE JANEIRO RJUNIAO UMB DOS CULTOS AFRO BRAS    20121810 000226
10231987175000168817800093673    000032090                    000320900000000000000109                     I0132090     20121800000000380003410000017N291018104700000000000102012180000000000000000000000000000000000000000100067396682720MARISA BRITES TIBURCIO                  ESTRADA INTENDENTE MAGALHAES            MADUREIRA   21341332RIO DE JANEIRO RJUNIAO UMB DOS CULTOS AFRO BRAS    20121810 000227
10231987175000168817800093673    000032089                    000320890000000000000109                     I0132089     20121800000000350003410000017N291018104700000000000102012180000000000000000000000000000000000000000100061172413720ELVIRA CRISTINA DE OLIVEIRA             RUA JOSE DOS REIS                       INHAUMA     20760245RIO DE JANEIRO RJUNIAO UMB DOS CULTOS AFRO BRAS    20121810 000228
10231987175000168817800093673    000032088                    000320880000000000000109                     I0132088     20121800000000350003410000017N291018104700000000000102012180000000000000000000000000000000000000000100051364476720JOSE DA SILVA BIDES                     TRAVESSA SANTA LUZIA                    SENADOR CAMA21832307RIO DE JANEIRO RJUNIAO UMB DOS CULTOS AFRO BRAS    20121810 000229
10231987175000168817800093673    000032087                    000320870000000000000109                     I0132087     20121800000000350003410000017N291018104700000000000102012180000000000000000000000000000000000000000100003328096760MARCO ANTONIO DA SILVA                  RUA: WALDEMAR VIEIRA AFONSO             CARANGOLA   25715402DUQUE DE CAXIASRJUNIAO UMB DOS CULTOS AFRO BRAS    20121810 000230
10231987175000168817800093673    000032086                    000320860000000000000109                     I0132086     20121800000000350003410000017N291018104700000000000102012180000000000000000000000000000000000000000100069974578787ANTONIA RIBEIRO RAPOSO                  RUA: SENADOR TOMAS RODRIGUES            SEPETIBA    23545280RIO DE JANEIRO RJUNIAO UMB DOS CULTOS AFRO BRAS    20121810 000231
10231987175000168817800093673    000032085                    000320850000000000000109                     I0132085     20121800000000350003410000017N291018104700000000000102012180000000000000000000000000000000000000000100033374023568LEONICE MAGALHAES LEAL                  RUA: MENDES FERREIRA                    SANTA TEREZI48011270ALAGOINHAS     BAUNIAO UMB DOS CULTOS AFRO BRAS    20121810 000232
10231987175000168817800093673    000032084                    000320840000000000000109                     I0132084     20121800000000350003410000017N291018104700000000000102012180000000000000000000000000000000000000000100069963979704MARIA CECILIA MOREIRA FIGUEIRE          RUA DO JOGO DA BOLA                     SAUDE       20081170RIO DE JANEIRO RJUNIAO UMB DOS CULTOS AFRO BRAS    20121810 000233
10231987175000168817800093673    000032083                    000320830000000000000109                     I0132083     20121800000000350003410000017N291018104700000000000102012180000000000000000000000000000000000000000100082096280787MARIA INACIA DE ALVARENGA COUT          RUA UBIRATA                             HIGIENOPOLIS21051030RIO DE JANEIRO RJUNIAO UMB DOS CULTOS AFRO BRAS    20121810 000234
10231987175000168817800093673    000032082                    000320820000000000000109                     I0132082     20121800000000350003410000017N291018104700000000000102012180000000000000000000000000000000000000000100007959134702SOLANGE LAPOENTE PORTO                  ESTRADA DE INHOAIBA                     CAMPO GRANDE23083010RIO DE JANEIRO RJUNIAO UMB DOS CULTOS AFRO BRAS    20121810 000235
10231987175000168817800093673    000032081                    000320810000000000000109                     I0132081     20121800000000350003410000017N291018104700000000000102012180000000000000000000000000000000000000000100003723310761RODRIGO CARDOSO DA CUNHA                EST: VELHA DE MARICA                    BALDEADOR   24140000NITEROI        RJUNIAO UMB DOS CULTOS AFRO BRAS    20121810 000236
10231987175000168817800093673    000032080                    000320800000000000000109                     I0132080     20121800000000350003410000017N291018104700000000000102012180000000000000000000000000000000000000000100010102282773DANIEL BORGES DINIZ VIEIRA              ESTRADA DE SEPETIBA                     SEPETIBA    23545003RIO DE JANEIRO RJUNIAO UMB DOS CULTOS AFRO BRAS    20121810 000237
10231987175000168817800093673    000032079                    000320790000000000000109                     I0132079     20121800000000400003410000017N291018104700000000000102012180000000000000000000000000000000000000000100068395213700ANA ALICE MAGALHAES BATISTA             RUA ARI BARROSO                         CERAMICA    26032220NOVA IGUACU    RJUNIAO UMB DOS CULTOS AFRO BRAS    20121810 000238
10231987175000168817800093673    000032078                    000320780000000000000109                     I0132078     20121800000000350003410000017N291018104700000000000102012180000000000000000000000000000000000000000100059023198700CARLOS ALBERTO PEREIRA FERNAND          ESTRADA DO AMAPA                        AMAPA       25235475DUQUE DE CAXIASRJUNIAO UMB DOS CULTOS AFRO BRAS    20121810 000239
10231987175000168817800093673    000032077                    000320770000000000000109                     I0132077     20121800000000350003410000017N291018104700000000000102012180000000000000000000000000000000000000000100002664636731ANA LUCIA GATTO                         RUA: DAS ESMERALDAS                     JARDIM CATAR24715602SAO GONCALO    RJUNIAO UMB DOS CULTOS AFRO BRAS    20121810 000240
10231987175000168817800093673    000032076                    000320760000000000000109                     I0132076     20121800000000400003410000017N291018104700000000000102012180000000000000000000000000000000000000000100005263230788DEBORA DE FATIMA PEZENTE SIMI           VILA FRANCISCO FREDERICO MAYWORM        MOSELA      25675180PETROPOLIS     RJUNIAO UMB DOS CULTOS AFRO BRAS    20121810 000241
10231987175000168817800093673    000032075                    000320750000000000000109                     I0132075     20121800000000350003410000017N291018104700000000000102012180000000000000000000000000000000000000000100097129461772ROSINEIDE BARBOSA DA SILVA              RUA: ADILSON FERREIRA                   PIABETA     24210205MAGE           RJUNIAO UMB DOS CULTOS AFRO BRAS    20121810 000242
10231987175000168817800093673    000032074                    000320740000000000000109                     I0132074     20121800000000350003410000017N291018104700000000000102012180000000000000000000000000000000000000000100075349027700SHEILA LUCIA MARINHO DE OLIVEI          RUA SANTO EDUARDO                       ITAIPU      24110539NITEROI        RJUNIAO UMB DOS CULTOS AFRO BRAS    20121810 000243
10231987175000168817800093673    000032073                    000320730000000000000109                     I0132073     20121800000000350003410000017N291018104700000000000102012180000000000000000000000000000000000000000100040090000749MARIA CONCEICAO CESAR MARQUES           RUA DOUTOR MANOEL MARREIROS             ILHA DO GOVE21910080RIO DE JANEIRO RJUNIAO UMB DOS CULTOS AFRO BRAS    20121810 000244
10231987175000168817800093673    000032072                    000320720000000000000109                     I0132072     20121800000000350003410000017N291018104700000000000102012180000000000000000000000000000000000000000100008900555723MYRELLA SERRADO SILVA                   RUA PARANAPANEMA                        OLARIA      21073180RIO DE JANEIRO RJUNIAO UMB DOS CULTOS AFRO BRAS    20121810 000245
10231987175000168817800093673    000032071                    000320710000000000000109                     I0132071     20121800000000350003410000017N291018104700000000000102012180000000000000000000000000000000000000000100008646303799JULIO CESAR DE JESUS VEIGA              ESTRADA COMANDANTE LUIZ SOLTO           TANQUE      22733040RIO DE JANEIRO RJUNIAO UMB DOS CULTOS AFRO BRAS    20121810 000246
10231987175000168817800093673    000032070                    000320700000000000000109                     I0132070     20121800000000350003410000017N291018104700000000000102012180000000000000000000000000000000000000000100070000697753EULINA SEVERINA DA SILVA                RUA XAVIER PINHEIRO                     VIGARIO GERA21241320RIO DE JANEIRO RJUNIAO UMB DOS CULTOS AFRO BRAS    20121810 000247
10231987175000168817800093673    000032069                    000320690000000000000109                     I0132069     20121800000000350003410000017N291018104700000000000102012180000000000000000000000000000000000000000100007802202779ROBERTO DE OLIVEIRA ALONSO NET          RUA: VEREADOR FRANCISCO NUNES           CENTRO      26540040NILOPOLIS      RJUNIAO UMB DOS CULTOS AFRO BRAS    20121810 000248
10231987175000168817800093673    000032068                    000320680000000000000109                     I0132068     20121800000000350003410000017N291018104700000000000102012180000000000000000000000000000000000000000100006898116754JANETE GLORIA SILVA CRUZ                RUA JOAO DE CARVALHO                    JARDIM DE ME25550010SAO JOAO DE MERRJUNIAO UMB DOS CULTOS AFRO BRAS    20121810 000249
