01REMESSA01COBRANCA       817800093673        União Umb dos Cultos Afro Bra341BANCO ITAU SA  040819                                                                                                                                                                                                                                                                                                      000001
10231987175000168817800093673    000053983                    000539830000000000000109                     I0153983     10091900000000200003410000017N040819105700000000000661009190000000000000000000000000000000000000000100033812723816FELIPE VALLADARES COSTA FOGAGN          RUA: CENTENARION 0,                     ICARAIBA    11750000PERUIBE        SPUNIAO UMB DOS CULTOS AFRO BRAS    10091915 000002
21100920190000000000400                                                                                                                                                                                                                                                                                                                                                                                   000003
10231987175000168817800093673    000053982                    000539820000000000000109                     I0153982     10091900000000200003410000017N040819105700000000000661009190000000000000000000000000000000000000000100033725088829WELLINGTON FERNANDO ROSA                RUA QUINZE DE NOVEMBRON 2865,           CONJUNTO HAB15808000CATANDUVA      SPUNIAO UMB DOS CULTOS AFRO BRAS    10091915 000004
21100920190000000000400                                                                                                                                                                                                                                                                                                                                                                                   000005
10231987175000168817800093673    000053981                    000539810000000000000109                     I0153981     10091900000000200003410000017N040819105700000000000661009190000000000000000000000000000000000000000100038823063787INDIARA MONTEIRO DOS SANTOS             RUA URCAN 34,                           VILA LEOPOLD25060310DUQUE DE CAXIASRJUNIAO UMB DOS CULTOS AFRO BRAS    10091915 000006
21100920190000000000400                                                                                                                                                                                                                                                                                                                                                                                   000007
10231987175000168817800093673    000053980                    000539800000000000000109                     I0153980     10091900000000200003410000017N040819105700000000000661009190000000000000000000000000000000000000000100082955336734MARCOS AURELIO CANDIDO DA COST          RUA PATAGONIAN 16,                      PENHA       21020320RIO DE JANEIRO RJUNIAO UMB DOS CULTOS AFRO BRAS    10091915 000008
21100920190000000000400                                                                                                                                                                                                                                                                                                                                                                                   000009
10231987175000168817800093673    000053979                    000539790000000000000109                     I0153979     10091900000000200003410000017N040819105700000000000661009190000000000000000000000000000000000000000100007911364699GUSTAVO DOS SANTOS CARRARO              ALAMEDA: VINICIUS DE MORAES N 622,      SOLAR DOS LA37470000SAO LOURENCO   MGUNIAO UMB DOS CULTOS AFRO BRAS    10091915 000010
21100920190000000000400                                                                                                                                                                                                                                                                                                                                                                                   000011
10231987175000168817800093673    000053978                    000539780000000000000109                     I0153978     10091900000000200003410000017N040819105700000000000661009190000000000000000000000000000000000000000100084782862415ANDRE LUIZ ANDRADE CORREIA              RUA OITENTA E CINCON 0, QUADRA 62 BLOCO MARANGUAPE I53441310PAULISTA       PEUNIAO UMB DOS CULTOS AFRO BRAS    10091915 000012
21100920190000000000400                                                                                                                                                                                                                                                                                                                                                                                   000013
10231987175000168817800093673    000053977                    000539770000000000000109                     I0153977     10091900000000200003410000017N040819105700000000000661009190000000000000000000000000000000000000000100077090900797ELVIRA APARECIDA SILVA DA PAZ           RUA CARIACAN 53,                        IRAJA       21235440RIO DE JANEIRO RJUNIAO UMB DOS CULTOS AFRO BRAS    10091915 000014
21100920190000000000400                                                                                                                                                                                                                                                                                                                                                                                   000015
10231987175000168817800093673    000053976                    000539760000000000000109                     I0153976     10091900000000200003410000017N040819105700000000000661009190000000000000000000000000000000000000000100043999352272JOSE PAULO BERNARDO DE OLIVEIR          RUA: ANTONIO XAVIER VEIGA N 749,        VITORIA BRAS15705000SAO PAULO      SPUNIAO UMB DOS CULTOS AFRO BRAS    10091915 000016
21100920190000000000400                                                                                                                                                                                                                                                                                                                                                                                   000017
10231987175000168817800093673    000053975                    000539750000000000000109                     I0153975     10091900000000200003410000017N040819105700000000000661009190000000000000000000000000000000000000000100070045267715MARIA JOSE DE JESUS SILVA               AVENIDA AN 610,                         ACUDE       27276160VOLTA REDONDA  RJUNIAO UMB DOS CULTOS AFRO BRAS    10091915 000018
21100920190000000000400                                                                                                                                                                                                                                                                                                                                                                                   000019
10231987175000168817800093673    000053974                    000539740000000000000109                     I0153974     10091900000000200003410000017N040819105700000000000661009190000000000000000000000000000000000000000100006365255896MARCELO SILVA ROCHA                     RUA MARCELINO CAVALIERI DEMOGIALIE NETONCONJUNTO HAB15131014MIRASSOL       SPUNIAO UMB DOS CULTOS AFRO BRAS    10091915 000020
21100920190000000000400                                                                                                                                                                                                                                                                                                                                                                                   000021
10231987175000168817800093673    000053973                    000539730000000000000109                     I0153973     10091900000000200003410000017N040819105700000000000661009190000000000000000000000000000000000000000100010806180404MELQUISEDEC COSTA DA ROCHA              RUA CARAMBOLEIRAN 294,                  POTENGI     59120320NATAL          RNUNIAO UMB DOS CULTOS AFRO BRAS    10091915 000022
21100920190000000000400                                                                                                                                                                                                                                                                                                                                                                                   000023
10231987175000168817800093673    000053972                    000539720000000000000109                     I0153972     10091900000000200003410000017N040819105700000000000661009190000000000000000000000000000000000000000100010727205587SILVESTRE DE ALMEIDA BISPO              RUA CARDEAL AMAURIN 255,                VISTA ALEGRE24722085SAO GONCALO    RJUNIAO UMB DOS CULTOS AFRO BRAS    10091915 000024
21100920190000000000400                                                                                                                                                                                                                                                                                                                                                                                   000025
10231987175000168817800093673    000053971                    000539710000000000000109                     I0153971     10091900000000200003410000017N040819105700000000000661009190000000000000000000000000000000000000000100006780512249LUIZ OTAVIO DOS SANTOS PINTO            TRAVESSA SOARES CARNEIRON 740,          UMARIZAL    66050520BELEM          PAUNIAO UMB DOS CULTOS AFRO BRAS    10091915 000026
21100920190000000000400                                                                                                                                                                                                                                                                                                                                                                                   000027
10231987175000168817800093673    000053970                    000539700000000000000109                     I0153970     10091900000000200003410000017N040819105700000000000661009190000000000000000000000000000000000000000100019187459353LUCENA GOMES DOS SANTOS                 RUA JAPURAN 3559,                       VILA SARAPUI25050320DUQUE DE CAXIASRJUNIAO UMB DOS CULTOS AFRO BRAS    10091915 000028
21100920190000000000400                                                                                                                                                                                                                                                                                                                                                                                   000029
10231987175000168817800093673    000053969                    000539690000000000000109                     I0153969     10091900000000200003410000017N040819105700000000000661009190000000000000000000000000000000000000000100090782640125MARLENE LUIZA DE SOUZA                  RUA VINTE E UM DE ABRILN 1355,          PACAEMBU    38401574UBERLANDIA     MGUNIAO UMB DOS CULTOS AFRO BRAS    10091915 000030
21100920190000000000400                                                                                                                                                                                                                                                                                                                                                                                   000031
10231987175000168817800093673    000053968                    000539680000000000000109                     I0153968     10091900000000200003410000017N040819105700000000000661009190000000000000000000000000000000000000000100008857639711UBIRATAN TINOCO VIEIRA                  RUA: RUA CAPITAO MIGUEL MALDONATON 62,  FAROL DE SAO28000000RIO DE JANEIRO RJUNIAO UMB DOS CULTOS AFRO BRAS    10091915 000032
21100920190000000000400                                                                                                                                                                                                                                                                                                                                                                                   000033
10231987175000168817800093673    000053967                    000539670000000000000109                     I0153967     10091900000000200003410000017N040819105700000000000661009190000000000000000000000000000000000000000100008086532291ANGELO SAVIO DE LIMA IMBIRIBA           RUA BELTERRAN 35,                       TAPANA (ICOA66833470BELEM          PAUNIAO UMB DOS CULTOS AFRO BRAS    10091915 000034
21100920190000000000400                                                                                                                                                                                                                                                                                                                                                                                   000035
10231987175000168817800093673    000053966                    000539660000000000000109                     I0153966     10091900000000200003410000017N040819105700000000000661009190000000000000000000000000000000000000000100091889979791LINDOMAR MORAES DE OLIVEIRA             RUA PARANAPANEMAN 156,                  OLARIA      21073185RIO DE JANEIRO RJUNIAO UMB DOS CULTOS AFRO BRAS    10091915 000036
21100920190000000000400                                                                                                                                                                                                                                                                                                                                                                                   000037
10231987175000168817800093673    000053965                    000539650000000000000109                     I0153965     10091900000000200003410000017N040819105700000000000661009190000000000000000000000000000000000000000100079461310706CLEITON MOREIRA MOTA                    RUA NICOLAU TOLENTINON 716,             BOACU       24467330SAO GONCALO    RJUNIAO UMB DOS CULTOS AFRO BRAS    10091915 000038
21100920190000000000400                                                                                                                                                                                                                                                                                                                                                                                   000039
10231987175000168817800093673    000053964                    000539640000000000000109                     I0153964     10091900000000200003410000017N040819105700000000000661009190000000000000000000000000000000000000000100017163456859JANAINA NEVES FERRAZ DE SOUZA           AVENIDA: PIO XIIN 4,                    CENTRO      13690000DESCALVADO     SPUNIAO UMB DOS CULTOS AFRO BRAS    10091915 000040
21100920190000000000400                                                                                                                                                                                                                                                                                                                                                                                   000041
10231987175000168817800093673    000053963                    000539630000000000000109                     I0153963     10091900000000200003410000017N040819105700000000000661009190000000000000000000000000000000000000000100050906330700CARLOS HENRIQUE DA SILVA SOUZA          RUA: 12N 55,                            MANGUINHOS  21042010RIO DE JANEIRO RJUNIAO UMB DOS CULTOS AFRO BRAS    10091915 000042
21100920190000000000400                                                                                                                                                                                                                                                                                                                                                                                   000043
10231987175000168817800093673    000053962                    000539620000000000000109                     I0153962     10091900000000200003410000017N040819105700000000000661009190000000000000000000000000000000000000000100076817059704JOAO DE DEUS DA SILVA                   RUA PRESIDENTE GETULIO VARGASN 35,      PARQUE MAMBU23954095ANGRA DOS REIS RJUNIAO UMB DOS CULTOS AFRO BRAS    10091915 000044
21100920190000000000400                                                                                                                                                                                                                                                                                                                                                                                   000045
10231987175000168817800093673    000053961                    000539610000000000000109                     I0153961     10091900000000200003410000017N040819105700000000000661009190000000000000000000000000000000000000000100001086838777BARBARA FERREIRA DE MENEZES             RUA: VESPA  N 0,                        VILA OLIMPIA25900000MAGE           RJUNIAO UMB DOS CULTOS AFRO BRAS    10091915 000046
21100920190000000000400                                                                                                                                                                                                                                                                                                                                                                                   000047
10231987175000168817800093673    000053960                    000539600000000000000109                     I0153960     10091900000000200003410000017N040819105700000000000661009190000000000000000000000000000000000000000100067286836072DIONE CARLOS FERRAZ RODRIGUES           RUA FERREIRA VIANAN 83,                 SAO JOSE    92425140CANOAS         RSUNIAO UMB DOS CULTOS AFRO BRAS    10091915 000048
21100920190000000000400                                                                                                                                                                                                                                                                                                                                                                                   000049
10231987175000168817800093673    000053959                    000539590000000000000109                     I0153959     10091900000000200003410000017N040819105700000000000661009190000000000000000000000000000000000000000100077404351715CARLOS ALBERTO OLIVEIRA DE ALM          RUA JOSE RICARDON 111,                  SEPETIBA    23530130RIO DE JANEIRO RJUNIAO UMB DOS CULTOS AFRO BRAS    10091915 000050
21100920190000000000400                                                                                                                                                                                                                                                                                                                                                                                   000051
10231987175000168817800093673    000053958                    000539580000000000000109                     I0153958     10091900000000200003410000017N040819105700000000000661009190000000000000000000000000000000000000000100008272396700ISIDRO DA COSTA CASSILHAS               RUA: ERASMO N 260,                      CAMPO GRANDE23095682RIO DE JANEIRO RJUNIAO UMB DOS CULTOS AFRO BRAS    10091915 000052
21100920190000000000400                                                                                                                                                                                                                                                                                                                                                                                   000053
10231987175000168817800093673    000053957                    000539570000000000000109                     I0153957     10091900000000200003410000017N040819105700000000000661009190000000000000000000000000000000000000000100019617267691NILZA DA CONCEICAO CARVALHO DE          RUA PRADOSN 755,                        CARLOS PRATE30710300BELO HORIZONTE MGUNIAO UMB DOS CULTOS AFRO BRAS    10091915 000054
21100920190000000000400                                                                                                                                                                                                                                                                                                                                                                                   000055
10231987175000168817800093673    000053956                    000539560000000000000109                     I0153956     10091900000000200003410000017N040819105700000000000661009190000000000000000000000000000000000000000100065030842772ALBINA SANTOS DA SILVA                  RUA JOSE DO NASCIMENTON 190,            SANTA TEREZI26554280MESQUITA       RJUNIAO UMB DOS CULTOS AFRO BRAS    10091915 000056
21100920190000000000400                                                                                                                                                                                                                                                                                                                                                                                   000057
10231987175000168817800093673    000053955                    000539550000000000000109                     I0153955     10091900000000200003410000017N040819105700000000000661009190000000000000000000000000000000000000000100070422311715AUDAIR PASSOS VELLOSO DOS SANT          RUA MARIA MAIAN 70,                     MADUREIRA   21360170RIO DE JANEIRO RJUNIAO UMB DOS CULTOS AFRO BRAS    10091915 000058
21100920190000000000400                                                                                                                                                                                                                                                                                                                                                                                   000059
10231987175000168817800093673    000053954                    000539540000000000000109                     I0153954     10091900000000200003410000017N040819105700000000000661009190000000000000000000000000000000000000000100056289391534JAILSON MIRANDA DE SOUZA                RUA VENEZAN 408,                        ALAGADICO   48903347JUAZEIRO       BAUNIAO UMB DOS CULTOS AFRO BRAS    10091915 000060
21100920190000000000400                                                                                                                                                                                                                                                                                                                                                                                   000061
10231987175000168817800093673    000053953                    000539530000000000000109                     I0153953     10091900000000200003410000017N040819105700000000000661009190000000000000000000000000000000000000000100096183136700DELMA MARIA MEDICI                      RUA VITORIAN 97, CASA 3                 PALMEIRAS   28911210CABO FRIO      RJUNIAO UMB DOS CULTOS AFRO BRAS    10091915 000062
21100920190000000000400                                                                                                                                                                                                                                                                                                                                                                                   000063
10231987175000168817800093673    000053952                    000539520000000000000109                     I0153952     10091900000000200003410000017N040819105700000000000661009190000000000000000000000000000000000000000100005527221702LUCIANO DE LIMA GONCALVES PORT          RUA JUBAIN 230,                         BENTO RIBEIR21331030RIO DE JANEIRO RJUNIAO UMB DOS CULTOS AFRO BRAS    10091915 000064
21100920190000000000400                                                                                                                                                                                                                                                                                                                                                                                   000065
10231987175000168817800093673    000053951                    000539510000000000000109                     I0153951     10091900000000200003410000017N040819105700000000000661009190000000000000000000000000000000000000000100041397614749JOANA DARC ROPS DA SILVA                RUA: GONCALO GONCALVES N 86,            BRASILANDIA 24465350SAO GONCALO    RJUNIAO UMB DOS CULTOS AFRO BRAS    10091915 000066
21100920190000000000400                                                                                                                                                                                                                                                                                                                                                                                   000067
10231987175000168817800093673    000053950                    000539500000000000000109                     I0153950     10091900000000200003410000017N040819105700000000000661009190000000000000000000000000000000000000000100000642913757LUIZ PAULO DA SILVA                     RUA SAO CRISTOVAON 51, AP 201           SAO CRISTOVA20940001RIO DE JANEIRO RJUNIAO UMB DOS CULTOS AFRO BRAS    10091915 000068
21100920190000000000400                                                                                                                                                                                                                                                                                                                                                                                   000069
10231987175000168817800093673    000053949                    000539490000000000000109                     I0153949     10091900000000200003410000017N040819105700000000000661009190000000000000000000000000000000000000000100075757281049ALCIONEI SANTOS FUNK                    RUA ONOFRE GONCALVES FERRAON 444,       TOMAZETTI   97065270SANTA MARIA    RSUNIAO UMB DOS CULTOS AFRO BRAS    10091915 000070
21100920190000000000400                                                                                                                                                                                                                                                                                                                                                                                   000071
10231987175000168817800093673    000053948                    000539480000000000000109                     I0153948     10091900000000200003410000017N040819105700000000000661009190000000000000000000000000000000000000000100001137807709VALNEY DA SILVA LIRA                    RUA IGARAPEN 185,                       OLAVO BILAC 25025340DUQUE DE CAXIASRJUNIAO UMB DOS CULTOS AFRO BRAS    10091915 000072
21100920190000000000400                                                                                                                                                                                                                                                                                                                                                                                   000073
10231987175000168817800093673    000053947                    000539470000000000000109                     I0153947     10091900000000200003410000017N040819105700000000000661009190000000000000000000000000000000000000000100026606105846EDSON MONTENEGRO JUNIOR                 RUA CACILDA BECKERN 6,                  JARDIM SONIA09380315MAUA           SPUNIAO UMB DOS CULTOS AFRO BRAS    10091915 000074
21100920190000000000400                                                                                                                                                                                                                                                                                                                                                                                   000075
10231987175000168817800093673    000053946                    000539460000000000000109                     I0153946     10091900000000200003410000017N040819105700000000000661009190000000000000000000000000000000000000000100026606105846EDSON MONTENEGRO JUNIOR                 RUA CACILDA BECKERN 6,                  JARDIM SONIA09380315MAUA           SPUNIAO UMB DOS CULTOS AFRO BRAS    10091915 000076
21100920190000000000400                                                                                                                                                                                                                                                                                                                                                                                   000077
10231987175000168817800093673    000053945                    000539450000000000000109                     I0153945     10091900000000200003410000017N040819105700000000000661009190000000000000000000000000000000000000000100080019315791CREUZA AMBROSIA DA SILVA                RUA SANTA MARIAN 10,                    TINGUAZINHO 26080325NOVA IGUACU    RJUNIAO UMB DOS CULTOS AFRO BRAS    10091915 000078
21100920190000000000400                                                                                                                                                                                                                                                                                                                                                                                   000079
10231987175000168817800093673    000053944                    000539440000000000000109                     I0153944     10091900000000200003410000017N040819105700000000000661009190000000000000000000000000000000000000000100011840742836CRISTIANE ARAUJO ALVES                  RUA PLANALTO DOS ACANTILADOSN 529,      PARQUE SANTA03981110SAO PAULO      SPUNIAO UMB DOS CULTOS AFRO BRAS    10091915 000080
21100920190000000000400                                                                                                                                                                                                                                                                                                                                                                                   000081
10231987175000168817800093673    000053943                    000539430000000000000109                     I0153943     10091900000000200003410000017N040819105700000000000661009190000000000000000000000000000000000000000100032691097846RENAN FALCHIONI                         AVENIDA WALDEMAR TIETZN 956,            CONJUNTO HAB03589000SAO PAULO      SPUNIAO UMB DOS CULTOS AFRO BRAS    10091915 000082
21100920190000000000400                                                                                                                                                                                                                                                                                                                                                                                   000083
10231987175000168817800093673    000053942                    000539420000000000000109                     I0153942     10091900000000200003410000017N040819105700000000000661009190000000000000000000000000000000000000000100039861880704SANDRA MEDEIROS TEIXEIRA                RUA: GENTIL DE ARAUJON 29,              ENGENHO DE D20770080RIO DE JANEIRO RJUNIAO UMB DOS CULTOS AFRO BRAS    10091915 000084
21100920190000000000400                                                                                                                                                                                                                                                                                                                                                                                   000085
10231987175000168817800093673    000053941                    000539410000000000000109                     I0153941     10091900000000200003410000017N040819105700000000000661009190000000000000000000000000000000000000000100040040542068WASHINGTON LUIZ AZEVEDO DA ROC          TRAVESSA RONDONIAN 7,                   ESMERALDA   94470360VIAMAO         RSUNIAO UMB DOS CULTOS AFRO BRAS    10091915 000086
21100920190000000000400                                                                                                                                                                                                                                                                                                                                                                                   000087
10231987175000168817800093673    000053940                    000539400000000000000109                     I0153940     10091900000000200003410000017N040819105700000000000661009190000000000000000000000000000000000000000100091631416715SILVIA GUERRA PINHEIRO                  RUA MARIA LOPESN 415,                   MADUREIRA   21310050RIO DE JANEIRO RJUNIAO UMB DOS CULTOS AFRO BRAS    10091915 000088
21100920190000000000400                                                                                                                                                                                                                                                                                                                                                                                   000089
10231987175000168817800093673    000053939                    000539390000000000000109                     I0153939     10091900000000200003410000017N040819105700000000000661009190000000000000000000000000000000000000000100007602768701CLAUDIO WAGNER NAZARETH                 RUA: ADOLFO DE ALBUQUERQUE N 127,       CHATUBA     26585520MESQUITA       RJUNIAO UMB DOS CULTOS AFRO BRAS    10091915 000090
21100920190000000000400                                                                                                                                                                                                                                                                                                                                                                                   000091
10231987175000168817800093673    000053938                    000539380000000000000109                     I0153938     10091900000000200003410000017N040819105700000000000661009190000000000000000000000000000000000000000100001303441764ELANI FREIRE DA SILVA                   RUA ARQUIAS CORDEIRON 882,              ENGENHO DE D20770001RIO DE JANEIRO RJUNIAO UMB DOS CULTOS AFRO BRAS    10091915 000092
21100920190000000000400                                                                                                                                                                                                                                                                                                                                                                                   000093
10231987175000168817800093673    000053937                    000539370000000000000109                     I0153937     10091900000000200003410000017N040819105700000000000661009190000000000000000000000000000000000000000100007001307726THEREZINHA DE JESUS BRAGA CRES          RUA MARIA BITENCOURT RODRIGUESN 10, FUNDSAO MATEUS  25530212SAO JOAO DE MERRJUNIAO UMB DOS CULTOS AFRO BRAS    10091915 000094
21100920190000000000400                                                                                                                                                                                                                                                                                                                                                                                   000095
10231987175000168817800093673    000053936                    000539360000000000000109                     I0153936     10091900000000200003410000017N040819105700000000000661009190000000000000000000000000000000000000000100008140684724PATRICIA APARECIDA DOS SANTOS           RUA FEIRA DE SANTANAN 0,  QUADRA 2 LOTE PARQUE NOVO 25585100SAO JOAO DE MERRJUNIAO UMB DOS CULTOS AFRO BRAS    10091915 000096
21100920190000000000400                                                                                                                                                                                                                                                                                                                                                                                   000097
10231987175000168817800093673    000053935                    000539350000000000000109                     I0153935     10091900000000200003410000017N040819105700000000000661009190000000000000000000000000000000000000000100003132227706RAUL ARISTIDES CRUZ MARINS              LADEIRA DA MARIA DAS DORESN 36,         PONTA DAREIA24040240NITEROI        RJUNIAO UMB DOS CULTOS AFRO BRAS    10091915 000098
21100920190000000000400                                                                                                                                                                                                                                                                                                                                                                                   000099
10231987175000168817800093673    000053934                    000539340000000000000109                     I0153934     10091900000000200003410000017N040819105700000000000661009190000000000000000000000000000000000000000100022229892800AUREA DONAIRE DE BARROS                 RUA JOSE CALIXTO DO CARMON 381,         AVIACAO     11702690PRAIA GRANDE   SPUNIAO UMB DOS CULTOS AFRO BRAS    10091915 000100
21100920190000000000400                                                                                                                                                                                                                                                                                                                                                                                   000101
10231987175000168817800093673    000053933                    000539330000000000000109                     I0153933     10091900000000200003410000017N040819105700000000000661009190000000000000000000000000000000000000000100060489286100RONEY GUIMARAES BATISTA                 AR 17N 0, CONJUNTO 1 CASA 5             SETOR OESTE 73062700BRASILIA       DFUNIAO UMB DOS CULTOS AFRO BRAS    10091915 000102
21100920190000000000400                                                                                                                                                                                                                                                                                                                                                                                   000103
10231987175000168817800093673    000053932                    000539320000000000000109                     I0153932     10091900000000200003410000017N040819105700000000000661009190000000000000000000000000000000000000000100000251413098JOEZER PATRON ALVES BRANCO              RUA ALVARES DE AZEVEDON 42,             TIARAJU     96422190BAGE           RSUNIAO UMB DOS CULTOS AFRO BRAS    10091915 000104
21100920190000000000400                                                                                                                                                                                                                                                                                                                                                                                   000105
10231987175000168817800093673    000053931                    000539310000000000000109                     I0153931     10091900000000200003410000017N040819105700000000000661009190000000000000000000000000000000000000000100010135468736DENNE DOS SANTOS ANTONIO E ROD          RUA: JORGE MARCELINO DE LIMAN 325,      NOVA ERA 3  37200000LAVRAS         MGUNIAO UMB DOS CULTOS AFRO BRAS    10091915 000106
21100920190000000000400                                                                                                                                                                                                                                                                                                                                                                                   000107
10231987175000168817800093673    000053930                    000539300000000000000109                     I0153930     10091900000000200003410000017N040819105700000000000661009190000000000000000000000000000000000000000100055582273700DJANIRA FARIAS SOARES                   RUA: H N 0, QUADRA 5 LOTE 6             AMAPA       25000000DUQUE DE CAXIASRJUNIAO UMB DOS CULTOS AFRO BRAS    10091915 000108
21100920190000000000400                                                                                                                                                                                                                                                                                                                                                                                   000109
10231987175000168817800093673    000053929                    000539290000000000000109                     I0153929     10091900000000200003410000017N040819105700000000000661009190000000000000000000000000000000000000000100082266530704ADJAHYR LEMOS DE SOUZA                  RUA: ON 81,                             MAGE        25900000RIO DE JANEIRO RJUNIAO UMB DOS CULTOS AFRO BRAS    10091915 000110
21100920190000000000400                                                                                                                                                                                                                                                                                                                                                                                   000111
10231987175000168817800093673    000053928                    000539280000000000000109                     I0153928     10091900000000200003410000017N040819105700000000000661009190000000000000000000000000000000000000000100008634803732RICARDO COELHO DA SILVA                 TRAVESSA MARINAN 262,                   JACUTINGA   26564070MESQUITA       RJUNIAO UMB DOS CULTOS AFRO BRAS    10091915 000112
21100920190000000000400                                                                                                                                                                                                                                                                                                                                                                                   000113
10231987175000168817800093673    000053927                    000539270000000000000109                     I0153927     10091900000000200003410000017N040819105700000000000661009190000000000000000000000000000000000000000100000355898098ALEXANDRE LAGUNA DE LIMA                RUA: COAHB N 1, QUADRA E CASA 31        SAO MIGUEL  97650000ITAQUI         RSUNIAO UMB DOS CULTOS AFRO BRAS    10091915 000114
21100920190000000000400                                                                                                                                                                                                                                                                                                                                                                                   000115
10231987175000168817800093673    000053926                    000539260000000000000109                     I0153926     10091900000000200003410000017N040819105700000000000661009190000000000000000000000000000000000000000100004628914702MARCOS AURELIO DOS SANTOS ZILO          RUA CRISTIANO OTONIN 539,               CENTRO      27123240BARRA DO PIRAI RJUNIAO UMB DOS CULTOS AFRO BRAS    10091915 000116
21100920190000000000400                                                                                                                                                                                                                                                                                                                                                                                   000117
10231987175000168817800093673    000053925                    000539250000000000000109                     I0153925     10091900000000200003410000017N040819105700000000000661009190000000000000000000000000000000000000000100003413082779ALEXANDRE MARTINS                       ESTRADA DO FUNDAO N 152,                CENTRO      06550000PIRAPORA DO BOMSPUNIAO UMB DOS CULTOS AFRO BRAS    10091915 000118
21100920190000000000400                                                                                                                                                                                                                                                                                                                                                                                   000119
10231987175000168817800093673    000053924                    000539240000000000000109                     I0153924     10091900000000200003410000017N040819105700000000000661009190000000000000000000000000000000000000000100062893246753CHRISTINA SELVA CORREA                  RUA ERNESTO SILVEIRAN 250,              NOSSA SENHOR25961350TERESOPOLIS    RJUNIAO UMB DOS CULTOS AFRO BRAS    10091915 000120
21100920190000000000400                                                                                                                                                                                                                                                                                                                                                                                   000121
10231987175000168817800093673    000053923                    000539230000000000000109                     I0153923     10091900000000200003410000017N040819105700000000000661009190000000000000000000000000000000000000000100096693967787MARCIA BASTOS VAZ                       TRAVESSA GUAJUVIRAN 201,                MARECHAL HER21610425RIO DE JANEIRO RJUNIAO UMB DOS CULTOS AFRO BRAS    10091915 000122
21100920190000000000400                                                                                                                                                                                                                                                                                                                                                                                   000123
10231987175000168817800093673    000053922                    000539220000000000000109                     I0153922     10091900000000200003410000017N040819105700000000000661009190000000000000000000000000000000000000000100000076323714LUIZ CLAUDIO COELHO VASCONCELL          RUA GENERAL CLAUDION 325,               MARECHAL HER21610430RIO DE JANEIRO RJUNIAO UMB DOS CULTOS AFRO BRAS    10091915 000124
21100920190000000000400                                                                                                                                                                                                                                                                                                                                                                                   000125
10231987175000168817800093673    000053921                    000539210000000000000109                     I0153921     10091900000000200003410000017N040819105700000000000661009190000000000000000000000000000000000000000100060790261200JACK DO NASCIMENTO PAMPOLHA             RUA CASTANHEIRAN 19,                    PRATINHA (IC66816085BELEM          PAUNIAO UMB DOS CULTOS AFRO BRAS    10091915 000126
21100920190000000000400                                                                                                                                                                                                                                                                                                                                                                                   000127
10231987175000168817800093673    000053920                    000539200000000000000109                     I0153920     10091900000000200003410000017N040819105700000000000661009190000000000000000000000000000000000000000100079665888153DEAMIR LEMES RIBEIRO                    RUA: MONTE CASTELO N 95,                CENTRO      79300000CORUMBA        MSUNIAO UMB DOS CULTOS AFRO BRAS    10091915 000128
21100920190000000000400                                                                                                                                                                                                                                                                                                                                                                                   000129
10231987175000168817800093673    000053919                    000539190000000000000109                     I0153919     10091900000000200003410000017N040819105700000000000661009190000000000000000000000000000000000000000100037972472300FRANCISCO ANTONIO SARAIVA RODR          PASSAGEM AGUIAN 22,                     INAMAR      09981175DIADEMA        SPUNIAO UMB DOS CULTOS AFRO BRAS    10091915 000130
21100920190000000000400                                                                                                                                                                                                                                                                                                                                                                                   000131
10231987175000168817800093673    000053918                    000539180000000000000109                     I0153918     10091900000000200003410000017N040819105700000000000661009190000000000000000000000000000000000000000100085877670700ANGELA SECCA CALDEIRA                   RUA LUIZ BELTRAON 686,                  VILA VALQUEI21321230RIO DE JANEIRO RJUNIAO UMB DOS CULTOS AFRO BRAS    10091915 000132
21100920190000000000400                                                                                                                                                                                                                                                                                                                                                                                   000133
10231987175000168817800093673    000053917                    000539170000000000000109                     I0153917     10091900000000200003410000017N040819105700000000000661009190000000000000000000000000000000000000000100051987457587UZILENE BARBOSA DE SOUZA                RUA: LIRIO DE CASTRO DOURADO N 0,       COOPIRECE   44900000IRECE          BAUNIAO UMB DOS CULTOS AFRO BRAS    10091915 000134
21100920190000000000400                                                                                                                                                                                                                                                                                                                                                                                   000135
10231987175000168817800093673    000053916                    000539160000000000000109                     I0153916     10091900000000200003410000017N040819105700000000000661009190000000000000000000000000000000000000000100022321556846EDUARDO HERNANI DE OLIVEIRA             RUA SEBASTIAN CASANOVAN 1961,           JARDIM SAO R04860230SAO PAULO      SPUNIAO UMB DOS CULTOS AFRO BRAS    10091915 000136
21100920190000000000400                                                                                                                                                                                                                                                                                                                                                                                   000137
10231987175000168817800093673    000053915                    000539150000000000000109                     I0153915     10091900000000200003410000017N040819105700000000000661009190000000000000000000000000000000000000000100001926164717MARIA DO SOCORRO DA SILVA               RUA FORTUNAN 45,                        VILA ESPERAN26190340BELFORD ROXO   RJUNIAO UMB DOS CULTOS AFRO BRAS    10091915 000138
21100920190000000000400                                                                                                                                                                                                                                                                                                                                                                                   000139
10231987175000168817800093673    000053914                    000539140000000000000109                     I0153914     10091900000000200003410000017N040819105700000000000661009190000000000000000000000000000000000000000100020178026204SALIM JORGE NETO                        TRAVESSA ISAAC BENZECRYN 0, CASA 469    JAPIIM      69077230MANAUS         AMUNIAO UMB DOS CULTOS AFRO BRAS    10091915 000140
21100920190000000000400                                                                                                                                                                                                                                                                                                                                                                                   000141
10231987175000168817800093673    000053913                    000539130000000000000109                     I0153913     10091900000000200003410000017N040819105700000000000661009190000000000000000000000000000000000000000100000590137700JAILTON MARQUES DA SILVA                TRAVESSA JOAO RAIMUNDON 35,             CHATUBA     26587060MESQUITA       RJUNIAO UMB DOS CULTOS AFRO BRAS    10091915 000142
21100920190000000000400                                                                                                                                                                                                                                                                                                                                                                                   000143
10231987175000168817800093673    000053912                    000539120000000000000109                     I0153912     10091900000000200003410000017N040819105700000000000661009190000000000000000000000000000000000000000100018287574897ADRIANA APARECIDA SAMPAIO               RUA MODESTO ALVARES DIASN 0,            CONCEICAO   09990600DIADEMA        SPUNIAO UMB DOS CULTOS AFRO BRAS    10091915 000144
21100920190000000000400                                                                                                                                                                                                                                                                                                                                                                                   000145
10231987175000168817800093673    000053911                    000539110000000000000109                     I0153911     10091900000000200003410000017N040819105700000000000661009190000000000000000000000000000000000000000100010697695760LUIZ ADRIANO DA SILVA LARANJA           RUA MARIA FRANCISCA DOS SANTOSN 201,    CAMPO GRANDE23090123RIO DE JANEIRO RJUNIAO UMB DOS CULTOS AFRO BRAS    10091915 000146
21100920190000000000400                                                                                                                                                                                                                                                                                                                                                                                   000147
10231987175000168817800093673    000053910                    000539100000000000000109                     I0153910     10091900000000200003410000017N040819105700000000000661009190000000000000000000000000000000000000000100069745226734MARIA ALICE AFONSO                      RUA MARLICE EMANUELN 200,               JARDIM ALVOR26265230NOVA IGUACU    RJUNIAO UMB DOS CULTOS AFRO BRAS    10091915 000148
21100920190000000000400                                                                                                                                                                                                                                                                                                                                                                                   000149
10231987175000168817800093673    000053909                    000539090000000000000109                     I0153909     10091900000000200003410000017N040819105700000000000661009190000000000000000000000000000000000000000100059672277768JULIO CESAR RODRIGUES                   AVENIDA DOM HELDER CAMARAN 7064,        PILARES     20751002RIO DE JANEIRO RJUNIAO UMB DOS CULTOS AFRO BRAS    10091915 000150
21100920190000000000400                                                                                                                                                                                                                                                                                                                                                                                   000151
10231987175000168817800093673    000053908                    000539080000000000000109                     I0153908     10091900000000200003410000017N040819105700000000000661009190000000000000000000000000000000000000000100063154820744WILMA DE OLIVEIRA LANA                  RUA DULIO COSTAN 425,                   COLEGIO     21235270RIO DE JANEIRO RJUNIAO UMB DOS CULTOS AFRO BRAS    10091915 000152
21100920190000000000400                                                                                                                                                                                                                                                                                                                                                                                   000153
10231987175000168817800093673    000053907                    000539070000000000000109                     I0153907     10091900000000200003410000017N040819105700000000000661009190000000000000000000000000000000000000000100030076123812FABIANO SANTOS FRANCISCO                RUA JUSTINO ALVES BATISTAN 89,          VILA YOLANDA06126120OSASCO         SPUNIAO UMB DOS CULTOS AFRO BRAS    10091915 000154
21100920190000000000400                                                                                                                                                                                                                                                                                                                                                                                   000155
10231987175000168817800093673    000053906                    000539060000000000000109                     I0153906     10091900000000200003410000017N040819105700000000000661009190000000000000000000000000000000000000000100037362810059MARIA DA GRACA PIRES                    AVENIDA: DO PARQUE IIN 923,             ZONA NOVA   95555000CAPAO DA CANOA RSUNIAO UMB DOS CULTOS AFRO BRAS    10091915 000156
21100920190000000000400                                                                                                                                                                                                                                                                                                                                                                                   000157
10231987175000168817800093673    000053905                    000539050000000000000109                     I0153905     10091900000000200003410000017N040819105700000000000661009190000000000000000000000000000000000000000100010280061790ANDERSON FERREIRA SOARES                RUA HERACLITO GRACAN 61,                LINS DE VASC20725080RIO DE JANEIRO RJUNIAO UMB DOS CULTOS AFRO BRAS    10091915 000158
21100920190000000000400                                                                                                                                                                                                                                                                                                                                                                                   000159
10231987175000168817800093673    000053904                    000539040000000000000109                     I0153904     10091900000000200003410000017N040819105700000000000661009190000000000000000000000000000000000000000100007256090790LUCIANA DE SOUZA PINTO                  RUA ENGENHEIRO EDMUNDO REGIS BITTENCOURTOLARIA      21021300RIO DE JANEIRO RJUNIAO UMB DOS CULTOS AFRO BRAS    10091915 000160
21100920190000000000400                                                                                                                                                                                                                                                                                                                                                                                   000161
10231987175000168817800093673    000053903                    000539030000000000000109                     I0153903     10091900000000200003410000017N040819105700000000000661009190000000000000000000000000000000000000000100069850275715MARIA ANTONIA SOUZA                     RUA PEQUIN 61,                          PIEDADE     20751350RIO DE JANEIRO RJUNIAO UMB DOS CULTOS AFRO BRAS    10091915 000162
21100920190000000000400                                                                                                                                                                                                                                                                                                                                                                                   000163
10231987175000168817800093673    000053902                    000539020000000000000109                     I0153902     10091900000000200003410000017N040819105700000000000661009190000000000000000000000000000000000000000100002139710703ELENICE FRANCISCA MENDES BRAZ           RUA TEIXEIRA CAMPOSN 102,               SANTISSIMO  23094092RIO DE JANEIRO RJUNIAO UMB DOS CULTOS AFRO BRAS    10091915 000164
21100920190000000000400                                                                                                                                                                                                                                                                                                                                                                                   000165
10231987175000168817800093673    000053901                    000539010000000000000109                     I0153901     10091900000000200003410000017N040819105700000000000661009190000000000000000000000000000000000000000100009576576334MARIA GORETE LEAO NOBRE                 AVENIDA 5N 1648, QUADRA 1 LOTE 7        VILA NOVA CA79105060CAMPO GRANDE   MSUNIAO UMB DOS CULTOS AFRO BRAS    10091915 000166
21100920190000000000400                                                                                                                                                                                                                                                                                                                                                                                   000167
10231987175000168817800093673    000053900                    000539000000000000000109                     I0153900     10091900000000200003410000017N040819105700000000000661009190000000000000000000000000000000000000000100050837923700MARIZE ALMEIDA DE QUEIROZ               RUA FERNANDO GONCALVES DE ALMEIDAN 701, CABUIS      26540290NILOPOLIS      RJUNIAO UMB DOS CULTOS AFRO BRAS    10091915 000168
21100920190000000000400                                                                                                                                                                                                                                                                                                                                                                                   000169
10231987175000168817800093673    000053899                    000538990000000000000109                     I0153899     10091900000000200003410000017N040819105700000000000661009190000000000000000000000000000000000000000100003282742754ALEXANDRE PETER NOGUEIRA                AVENIDA DOS ACORESN 38,                 BOM JESUS   27281290VOLTA REDONDA  RJUNIAO UMB DOS CULTOS AFRO BRAS    10091915 000170
21100920190000000000400                                                                                                                                                                                                                                                                                                                                                                                   000171
10231987175000168817800093673    000053898                    000538980000000000000109                     I0153898     10091900000000200003410000017N040819105700000000000661009190000000000000000000000000000000000000000100000032757603MICHEL MOREIRA ELIAS                    RUA JOAO ALKIMIN FILHON 78,             ACUDE       37504328ITAJUBA        MGUNIAO UMB DOS CULTOS AFRO BRAS    10091915 000172
21100920190000000000400                                                                                                                                                                                                                                                                                                                                                                                   000173
10231987175000168817800093673    000053897                    000538970000000000000109                     I0153897     10091900000000200003410000017N040819105700000000000661009190000000000000000000000000000000000000000100077970497004LIDIA MARIA LUCAS ZACARIAS              RUA: PROJETADA BN 35,                   ARARANGUA   88900000SANTA CATARINA SCUNIAO UMB DOS CULTOS AFRO BRAS    10091915 000174
21100920190000000000400                                                                                                                                                                                                                                                                                                                                                                                   000175
10231987175000168817800093673    000053896                    000538960000000000000109                     I0153896     10091900000000200003410000017N040819105700000000000661009190000000000000000000000000000000000000000100084720824668WASHINGTON LUIZ                         RUA GALILEU SOFIO PEREIRAN 163,         SANTA LUZIA 38408778UBERLANDIA     MGUNIAO UMB DOS CULTOS AFRO BRAS    10091915 000176
21100920190000000000400                                                                                                                                                                                                                                                                                                                                                                                   000177
10231987175000168817800093673    000053895                    000538950000000000000109                     I0153895     10091900000000200003410000017N040819105700000000000661009190000000000000000000000000000000000000000100004900290602JOAO APARECIDO DA PAZ                   RUA: CEARAN 344,                        VALE DO SOL 35610000DORES DO INDAIAMGUNIAO UMB DOS CULTOS AFRO BRAS    10091915 000178
21100920190000000000400                                                                                                                                                                                                                                                                                                                                                                                   000179
10231987175000168817800093673    000053894                    000538940000000000000109                     I0153894     10091900000000200003410000017N040819105700000000000661009190000000000000000000000000000000000000000100027396231000LOURDES M. S. KUSTER                    RUA: CARLOS BARBOSA N 82,               CENTRO      99500000CARAZINHO      RSUNIAO UMB DOS CULTOS AFRO BRAS    10091915 000180
21100920190000000000400                                                                                                                                                                                                                                                                                                                                                                                   000181
10231987175000168817800093673    000053893                    000538930000000000000109                     I0153893     10091900000000200003410000017N040819105700000000000661009190000000000000000000000000000000000000000100002731768703WILSON DE SOUZA                         RUA MUCATUN 0, LOTE 3 QUADRA 6          PARQUE ROSEI26176085BELFORD ROXO   RJUNIAO UMB DOS CULTOS AFRO BRAS    10091915 000182
21100920190000000000400                                                                                                                                                                                                                                                                                                                                                                                   000183
10231987175000168817800093673    000053892                    000538920000000000000109                     I0153892     10091900000000200003410000017N040819105700000000000661009190000000000000000000000000000000000000000100058949763249MARIA DO SOCORRO DOS SANTOS             RUA MARIETA DE MELLO MARQUESN 1131,     DOUTOR SILVI69314354BOA VISTA      RRUNIAO UMB DOS CULTOS AFRO BRAS    10091915 000184
21100920190000000000400                                                                                                                                                                                                                                                                                                                                                                                   000185
10231987175000168817800093673    000053891                    000538910000000000000109                     I0153891     10091900000000200003410000017N040819105700000000000661009190000000000000000000000000000000000000000100004421288780JOSE EDNIR DA CRUZ                      RUA: OSCARINA DE FREITAS N 188,         MANGUARIBA  23065500RIO DE JANEIRO RJUNIAO UMB DOS CULTOS AFRO BRAS    10091915 000186
21100920190000000000400                                                                                                                                                                                                                                                                                                                                                                                   000187
10231987175000168817800093673    000053890                    000538900000000000000109                     I0153890     10091900000000200003410000017N040819105700000000000661009190000000000000000000000000000000000000000100037174690378MANOEL SERGIO DA SILVA CUNHA            TRAVESSA: LUIZ DE CARVALHON 73,         QUIXADA     63900000CEARA          CEUNIAO UMB DOS CULTOS AFRO BRAS    10091915 000188
21100920190000000000400                                                                                                                                                                                                                                                                                                                                                                                   000189
10231987175000168817800093673    000053889                    000538890000000000000109                     I0153889     10091900000000200003410000017N040819105700000000000661009190000000000000000000000000000000000000000100030409578053IZOLDA COSTA GARIN                      RUA: MATURINO XAVIER DA SILVA N 284,    SANTANA DO L97576355RIO GRANDE DO SRSUNIAO UMB DOS CULTOS AFRO BRAS    10091915 000190
21100920190000000000400                                                                                                                                                                                                                                                                                                                                                                                   000191
10231987175000168817800093673    000053888                    000538880000000000000109                     I0153888     10091900000000200003410000017N040819105700000000000661009190000000000000000000000000000000000000000100001855725967RODRIGO VARGAS DE SOUZA                 RUA: JOAO CRESCENCIO DE SOUZAN 32,      CAPIVARI DE 88745000CAPIVARI DE BAISCUNIAO UMB DOS CULTOS AFRO BRAS    10091915 000192
21100920190000000000400                                                                                                                                                                                                                                                                                                                                                                                   000193
10231987175000168817800093673    000053887                    000538870000000000000109                     I0153887     10091900000000200003410000017N040819105700000000000661009190000000000000000000000000000000000000000100062239783753MARIA HONORIALA DE SOUZA LIMA           RUA MARQUES DE POMBALN 293,             JARDIM AMALI27250810VOLTA REDONDA  RJUNIAO UMB DOS CULTOS AFRO BRAS    10091915 000194
21100920190000000000400                                                                                                                                                                                                                                                                                                                                                                                   000195
10231987175000168817800093673    000053886                    000538860000000000000109                     I0153886     10091900000000200003410000017N040819105700000000000661009190000000000000000000000000000000000000000100076226603704MARIA VITALINA DA SILVA                 RUA JOSE DE ABREUN 206,                 SAO SEBASTIA27335310BARRA MANSA    RJUNIAO UMB DOS CULTOS AFRO BRAS    10091915 000196
21100920190000000000400                                                                                                                                                                                                                                                                                                                                                                                   000197
10231987175000168817800093673    000053885                    000538850000000000000109                     I0153885     10091900000000200003410000017N040819105700000000000661009190000000000000000000000000000000000000000100079961169700MARIA APARECIDA DE FATIMA PERE          AVENIDA VEREADOR CHEQUER ELIASN 2267,   VILA HELENA 27120320BARRA DO PIRAI RJUNIAO UMB DOS CULTOS AFRO BRAS    10091915 000198
21100920190000000000400                                                                                                                                                                                                                                                                                                                                                                                   000199
10231987175000168817800093673    000053884                    000538840000000000000109                     I0153884     10091900000000200003410000017N040819105700000000000661009190000000000000000000000000000000000000000100099697769753MARIA DA SOLEDADE SILVA DOS SA          AVENIDA PAULO ERLEI ALVES ABRANTESN 38, TRES POCOS  27240560VOLTA REDONDA  RJUNIAO UMB DOS CULTOS AFRO BRAS    10091915 000200
21100920190000000000400                                                                                                                                                                                                                                                                                                                                                                                   000201
10231987175000168817800093673    000053883                    000538830000000000000109                     I0153883     10091900000000200003410000017N040819105700000000000661009190000000000000000000000000000000000000000100091844266753MARA NEI RIBEIRO DALBONI                RUA GERALDO GONZAGA COSTAN 20,          VILA MARIA  27313350BARRA MANSA    RJUNIAO UMB DOS CULTOS AFRO BRAS    10091915 000202
21100920190000000000400                                                                                                                                                                                                                                                                                                                                                                                   000203
10231987175000168817800093673    000053882                    000538820000000000000109                     I0153882     10091900000000200003410000017N040819105700000000000661009190000000000000000000000000000000000000000100088895947720MESSIAS DOS SANTOS FREITAS              RUA NELSONN 222,                        RETIRO      27283410VOLTA REDONDA  RJUNIAO UMB DOS CULTOS AFRO BRAS    10091915 000204
21100920190000000000400                                                                                                                                                                                                                                                                                                                                                                                   000205
10231987175000168817800093673    000053881                    000538810000000000000109                     I0153881     10091900000000200003410000017N040819105700000000000661009190000000000000000000000000000000000000000100061309036772ROSITA DOS SANTOS AMARAL                RUA DOUTOR PAULA GAMAN 43,              EUCALIPTAL  27265470VOLTA REDONDA  RJUNIAO UMB DOS CULTOS AFRO BRAS    10091915 000206
21100920190000000000400                                                                                                                                                                                                                                                                                                                                                                                   000207
10231987175000168817800093673    000053880                    000538800000000000000109                     I0153880     10091900000000200003410000017N040819105700000000000661009190000000000000000000000000000000000000000100000499731778RITA MARIANA DA SILVA                   SERVIDAO NOSSA SENHORA DA CONCEICAON 57,ACUDE       27276540VOLTA REDONDA  RJUNIAO UMB DOS CULTOS AFRO BRAS    10091915 000208
21100920190000000000400                                                                                                                                                                                                                                                                                                                                                                                   000209
10231987175000168817800093673    000053879                    000538790000000000000109                     I0153879     10091900000000200003410000017N040819105700000000000661009190000000000000000000000000000000000000000100088371859791PENHA APARECIDA ARISTIDES               RUA MAJOR LUIS ALVESN 67, (RUA: OTELILIOBOA SORTE   27331000BARRA MANSA    RJUNIAO UMB DOS CULTOS AFRO BRAS    10091915 000210
21100920190000000000400                                                                                                                                                                                                                                                                                                                                                                                   000211
10231987175000168817800093673    000053878                    000538780000000000000109                     I0153878     10091900000000000003410000017N040819105700000000000001009190000000000000000000000000000000000000000100083054162753OLIPIO MEDEIROS DA CRUZ                 TRAVESSA SAPUCAIAN 16,                  CENTRO      27120230BARRA DO PIRAI RJUNIAO UMB DOS CULTOS AFRO BRAS    10091915 000212
10231987175000168817800093673    000053877                    000538770000000000000109                     I0153877     10091900000000200003410000017N040819105700000000000661009190000000000000000000000000000000000000000100087685183749LETICIA MOREIRA DA SILVA                RUA MENDESN 144,                        CENTRO      27135210BARRA DO PIRAI RJUNIAO UMB DOS CULTOS AFRO BRAS    10091915 000213
21100920190000000000400                                                                                                                                                                                                                                                                                                                                                                                   000214
10231987175000168817800093673    000053876                    000538760000000000000109                     I0153876     10091900000000200003410000017N040819105700000000000661009190000000000000000000000000000000000000000100007598441782LEANDRO CARDOSO CARLOS                  RUA JANYNIER GROETAERS PEGASN 460,      AREAL       27150120BARRA DO PIRAI RJUNIAO UMB DOS CULTOS AFRO BRAS    10091915 000215
21100920190000000000400                                                                                                                                                                                                                                                                                                                                                                                   000216
10231987175000168817800093673    000053875                    000538750000000000000109                     I0153875     10091900000000200003410000017N040819105700000000000661009190000000000000000000000000000000000000000100091696755700JOVENILHA MARIA PAIXAO VALENTI          RUA SAO MARCOSN 307,                    BOA VISTA   27336440BARRA MANSA    RJUNIAO UMB DOS CULTOS AFRO BRAS    10091915 000217
21100920190000000000400                                                                                                                                                                                                                                                                                                                                                                                   000218
10231987175000168817800093673    000053874                    000538740000000000000109                     I0153874     10091900000000200003410000017N040819105700000000000661009190000000000000000000000000000000000000000100084316969749JOEL COELHO DA SILVA                    ESTRADA GOVERNADOR CHAGAS FREITASN 493, COLONIA SANT27351720BARRA MANSA    RJUNIAO UMB DOS CULTOS AFRO BRAS    10091915 000219
21100920190000000000400                                                                                                                                                                                                                                                                                                                                                                                   000220
10231987175000168817800093673    000053873                    000538730000000000000109                     I0153873     10091900000000200003410000017N040819105700000000000661009190000000000000000000000000000000000000000100095750088715IONE DA SILVA CUNHA                     RUA GESO RODRIGUESN 194,                PARAISO     27333110BARRA MANSA    RJUNIAO UMB DOS CULTOS AFRO BRAS    10091915 000221
21100920190000000000400                                                                                                                                                                                                                                                                                                                                                                                   000222
10231987175000168817800093673    000053872                    000538720000000000000109                     I0153872     10091900000000200003410000017N040819105700000000000661009190000000000000000000000000000000000000000100068814283753ELIANA LEITE DOS SANTOS                 RUA MIL E VINTE E SETE-AN 68,           SANTO AGOSTI27211250VOLTA REDONDA  RJUNIAO UMB DOS CULTOS AFRO BRAS    10091915 000223
21100920190000000000400                                                                                                                                                                                                                                                                                                                                                                                   000224
10231987175000168817800093673    000053871                    000538710000000000000109                     I0153871     10091900000000200003410000017N040819105700000000000661009190000000000000000000000000000000000000000100000018720790CLEONICE OLIVEIRA COSTA LUIZ            RUA MIL E VINTE E DOISN 24,             VOLTA GRANDE27210370VOLTA REDONDA  RJUNIAO UMB DOS CULTOS AFRO BRAS    10091915 000225
21100920190000000000400                                                                                                                                                                                                                                                                                                                                                                                   000226
10231987175000168817800093673    000053870                    000538700000000000000109                     I0153870     10091900000000200003410000017N040819105700000000000661009190000000000000000000000000000000000000000100086420712734CELMA FERRAS PINTO DA SILVA             RUA NEWTON GARCIAN 135,                 PACIENCIA   23065520RIO DE JANEIRO RJUNIAO UMB DOS CULTOS AFRO BRAS    10091915 000227
21100920190000000000400                                                                                                                                                                                                                                                                                                                                                                                   000228
10231987175000168817800093673    000053869                    000538690000000000000109                     I0153869     10091900000000200003410000017N040819105700000000000661009190000000000000000000000000000000000000000100088359549753AMARILDO GUIMARAES SILVA                RUA: OSVALDO SOARESN 175,               CENTRO      27197000PINHEIRAL      RJUNIAO UMB DOS CULTOS AFRO BRAS    10091915 000229
21100920190000000000400                                                                                                                                                                                                                                                                                                                                                                                   000230
10231987175000168817800093673    000053868                    000538680000000000000109                     I0153868     10091900000000200003410000017N040819105700000000000661009190000000000000000000000000000000000000000100000558330711MARIA CARVALHO RODRIGUES                RUA HERNANDES DA SILVA LEITEN 1626,     QUIMICA     27130590BARRA DO PIRAI RJUNIAO UMB DOS CULTOS AFRO BRAS    10091915 000231
21100920190000000000400                                                                                                                                                                                                                                                                                                                                                                                   000232
10231987175000168817800093673    000053867                    000538670000000000000109                     I0153867     10091900000000200003410000017N040819105700000000000661009190000000000000000000000000000000000000000100080178600725MARIA DE LOURDES DE SOUZA OLIV          RUA SEISN 410,                          VILA PRINCIP27338160BARRA MANSA    RJUNIAO UMB DOS CULTOS AFRO BRAS    10091915 000233
21100920190000000000400                                                                                                                                                                                                                                                                                                                                                                                   000234
10231987175000168817800093673    000053866                    000538660000000000000109                     I0153866     10091900000000200003410000017N040819105700000000000661009190000000000000000000000000000000000000000100089917189734LUIS ANTONIO DOS SANTOS OLIVEI          RUA: HELENA CORREIA DE MIRANDA N 13,    CENTRO      27197000PINHEIRAL      RJUNIAO UMB DOS CULTOS AFRO BRAS    10091915 000235
21100920190000000000400                                                                                                                                                                                                                                                                                                                                                                                   000236
10231987175000168817800093673    000053865                    000538650000000000000109                     I0153865     10091900000000200003410000017N040819105700000000000661009190000000000000000000000000000000000000000100073415030768BENEDITO DE OLIVEIRA                    RUA: BOA VENTURA XAVIER BOTELHO N 317,  VARJAO      27197000PINHEIRAL      RJUNIAO UMB DOS CULTOS AFRO BRAS    10091915 000237
21100920190000000000400                                                                                                                                                                                                                                                                                                                                                                                   000238
10231987175000168817800093673    000053864                    000538640000000000000109                     I0153864     10091900000000200003410000017N040819105700000000000661009190000000000000000000000000000000000000000100001639518886APARECIDA MARIA LINO                    RUA DOISN 220,                          JARDIM SANTA13484088LIMEIRA        SPUNIAO UMB DOS CULTOS AFRO BRAS    10091915 000239
21100920190000000000400                                                                                                                                                                                                                                                                                                                                                                                   000240
10231987175000168817800093673    000053863                    000538630000000000000109                     I0153863     10091900000000200003410000017N040819105700000000000661009190000000000000000000000000000000000000000100061209180782OSCARINA DE SOUZA TORRES                TRAVESSA CARLOS XAVIERN 95,             MADUREIRA   21310010RIO DE JANEIRO RJUNIAO UMB DOS CULTOS AFRO BRAS    10091915 000241
21100920190000000000400                                                                                                                                                                                                                                                                                                                                                                                   000242
10231987175000168817800093673    000053862                    000538620000000000000109                     I0153862     10091900000000200003410000017N040819105700000000000661009190000000000000000000000000000000000000000100097223115734JORGINA MARIA DE ARAUJO ALVES           RUA HILDA LIMAN 70,                     CENTRO      25525020SAO JOAO DE MERRJUNIAO UMB DOS CULTOS AFRO BRAS    10091915 000243
21100920190000000000400                                                                                                                                                                                                                                                                                                                                                                                   000244
10231987175000168817800093673    000053861                    000538610000000000000109                     I0153861     10091900000000200003410000017N040819105700000000000661009190000000000000000000000000000000000000000100026034140706CELMA JORGINA RIBEIRO DA SILVA          RUA GUARANESIAN 97,                     VILA VALQUEI21330550RIO DE JANEIRO RJUNIAO UMB DOS CULTOS AFRO BRAS    10091915 000245
21100920190000000000400                                                                                                                                                                                                                                                                                                                                                                                   000246
10231987175000168817800093673    000053860                    000538600000000000000109                     I0153860     10091900000000200003410000017N040819105700000000000661009190000000000000000000000000000000000000000100036157007753CARLOS ALBERTO TORRES                   RUA GENERAL CLAUDION 205,               MARECHAL HER21610430RIO DE JANEIRO RJUNIAO UMB DOS CULTOS AFRO BRAS    10091915 000247
21100920190000000000400                                                                                                                                                                                                                                                                                                                                                                                   000248
10231987175000168817800093673    000053859                    000538590000000000000109                     I0153859     10091900000000200003410000017N040819105700000000000661009190000000000000000000000000000000000000000100049990322791JORGINA MAGALHAES DA SILVA              RUA MILITAO JOSE DA SILVAN 91,          BOA SORTE   27150300BARRA DO PIRAI RJUNIAO UMB DOS CULTOS AFRO BRAS    10091915 000249
