01REMESSA01COBRANCA       916200163100        União Umb dos Cultos Afro Bra341BANCO ITAU SA  310519                                                                                                                                                                                                                                                                                                      000001
10231987175000168916200163100    000043706                    000437060000000000000109                     I0243706     30061900000000040003410000017N130319105700000000000103006190000000000000000000000000000000000000000100005721435755ALEX ARAUJO BRAGA                       RUA MARTEN 685, CASA 2                  CENTRO      26553480MESQUITA       RJUNIAO UMB DOS CULTOS AFRO BRAS    30061915 000002
10231987175000168916200163100    000043057                    000430570000000000000109                     I0243057     30051900000000040003410000017N130319105700000000000103005190000000000000000000000000000000000000000100003389142770VANIA VIEIRA                            RUA NAMURN 276, CASA 2                  VILA VALQUEI21330600RIO DE JANEIRO RJUNIAO UMB DOS CULTOS AFRO BRAS    30051915 000003
10231987175000168916200163100    000042062                    000420620000000000000109                     I0242062     30051900000000040003410000017N130319105700000000000103005190000000000000000000000000000000000000000100005721435755ALEX ARAUJO BRAGA                       RUA MARTEN 685, CASA 2                  CENTRO      26553480MESQUITA       RJUNIAO UMB DOS CULTOS AFRO BRAS    30051915 000004
10231987175000168916200163100    000041587                    000415870000000000000109                     I0241587     30051900000000040003410000017N130319105700000000000103005190000000000000000000000000000000000000000100053411200782ELZA MORAES DA SILVA                    RUA WALTER JORGE BRAGAN 19,             PARQUE TELES25581171SAO JOAO DE MERRJUNIAO UMB DOS CULTOS AFRO BRAS    30051915 000005
10231987175000168916200163100    000041415                    000414150000000000000109                     I0241415     30041900000000040003410000017N120319105700000000000103004190000000000000000000000000000000000000000100003389142770VANIA VIEIRA                            RUA NAMURN 276, CASA 2                  VILA VALQUEI21330600RIO DE JANEIRO RJUNIAO UMB DOS CULTOS AFRO BRAS    30041915 000006
10231987175000168916200163100    000040903                    000409030000000000000109                     I0240903     30041900000000040003410000017N120319105700000000000103004190000000000000000000000000000000000000000100047783877753RAIMUNDO NONATO VALENCA RIBEIR          AVENIDA PREFEITO BRAULINO DE MATOS REISNVILA LEOPOLD25060445DUQUE DE CAXIASRJUNIAO UMB DOS CULTOS AFRO BRAS    30041915 000007
10231987175000168916200163100    000040684                    000406840000000000000109                     I0240684     30041900000000040003410000017N120319105700000000000103004190000000000000000000000000000000000000000100009146841750ALEXANDRE BORGES DO NASCIMENTO          RUA CIRTALINA VIANA TEIXEIRAN 58, XXXXXXPARQUE SAO V26271250NOVA IGUACU    RJUNIAO UMB DOS CULTOS AFRO BRAS    30041915 000008
10231987175000168916200163100    000040428                    000404280000000000000109                     I0240428     30041900000000040003410000017N120319105700000000000103004190000000000000000000000000000000000000000100005721435755ALEX ARAUJO BRAGA                       RUA MARTEN 685, CASA 2                  CENTRO      26553480MESQUITA       RJUNIAO UMB DOS CULTOS AFRO BRAS    30041915 000009
10231987175000168916200163100    000039955                    000399550000000000000109                     I0239955     30041900000000040003410000017N120319105700000000000103004190000000000000000000000000000000000000000100053411200782ELZA MORAES DA SILVA                    RUA WALTER JORGE BRAGAN 19,             PARQUE TELES25581171SAO JOAO DE MERRJUNIAO UMB DOS CULTOS AFRO BRAS    30041915 000010
9                                                                                                                                                                                                                                                                                                                                                                                                         000011
