01REMESSA01COBRANCA       817800093673        União Umb dos Cultos Afro Bra341BANCO ITAU SA  261218                                                                                                                                                                                                                                                                                                      000001
10231987175000168817800093673    000034293                    000342930000000000000109                     I0134293     31011900000000040003410000017N261218104700000000000103101190000000000000000000000000000000000000000100068567855772ZAILDA MASCARENHAS DOS SANTOS           RUA FRANCISCO ANTONIO NASCIMENTO        MIGUEL COUTO26070467BELFORD ROXO   RJUNIAO UMB DOS CULTOS AFRO BRAS    31011910 000002
10231987175000168817800093673    000034292                    000342920000000000000109                     I0134292     31011900000000040003410000017N261218104700000000000103101190000000000000000000000000000000000000000100000000000000GILMAR GAMMARO CARVALHO                 RUA GENERAL SEARA                       CAROLINA    25060010DUQUE DE CAXIASRJUNIAO UMB DOS CULTOS AFRO BRAS    31011910 000003
10231987175000168817800093673    000034291                    000342910000000000000109                     I0134291     31011900000000040003410000017N261218104700000000000103101190000000000000000000000000000000000000000100065065325749MARIA LUISA CHAGAS SILVA                RUA BOGARI                              JARDIM XAVAN26160190BELFORD ROXO   RJUNIAO UMB DOS CULTOS AFRO BRAS    31011910 000004
10231987175000168817800093673    000034290                    000342900000000000000109                     I0134290     31011900000000040003410000017N261218104700000000000103101190000000000000000000000000000000000000000100096017376772EDUARDO ARRUDA DE ABREU                 RUA FRANCISCA DANTAS                    CENTRO      25525030SAO JOAO DE MERRJUNIAO UMB DOS CULTOS AFRO BRAS    31011910 000005
10231987175000168817800093673    000034289                    000342890000000000000109                     I0134289     31011900000000040003410000017N261218104700000000000103101190000000000000000000000000000000000000000100047707569768BENEDITA LEONIDIA DA COSTA              RUA: NOSSA SENHORA DA GLORIA            VILA MARIA H25251530DUQUE DE CAXIASRJUNIAO UMB DOS CULTOS AFRO BRAS    31011910 000006
10231987175000168817800093673    000034288                    000342880000000000000109                     I0134288     31011900000000040003410000017N261218104700000000000103101190000000000000000000000000000000000000000100005383774700VILMA MACEDO COIMBRA DOS SANTO          RUA TOQUIO                              AGOSTINHO PO25545211SAO JOAO DE MERRJUNIAO UMB DOS CULTOS AFRO BRAS    31011910 000007
10231987175000168817800093673    000034287                    000342870000000000000109                     I0134287     31011900000000040003410000017N261218104700000000000103101190000000000000000000000000000000000000000100006957427790ANDREIA CARVALHO DOS SANTOS             RUA: DOUTOR LEAL                        ENGENHO DE D20730030RIO DE JANEIRO RJUNIAO UMB DOS CULTOS AFRO BRAS    31011910 000008
10231987175000168817800093673    000034286                    000342860000000000000109                     I0134286     31011900000000040003410000017N261218104700000000000103101190000000000000000000000000000000000000000100009431078732LUCIA OLIVEIRA BONIFACIO                RUA NINA RIBEIRO                        PAVUNA      21520290RIO DE JANEIRO RJUNIAO UMB DOS CULTOS AFRO BRAS    31011910 000009
10231987175000168817800093673    000034285                    000342850000000000000109                     I0134285     31011900000000040003410000017N261218104700000000000103101190000000000000000000000000000000000000000100093473095753ALEXANDER NUNES PICANCO                 RUA REGISTRO                            SENADOR CAMA21832270RIO DE JANEIRO RJUNIAO UMB DOS CULTOS AFRO BRAS    31011910 000010
10231987175000168817800093673    000034284                    000342840000000000000109                     I0134284     31011900000000040003410000017N261218104700000000000103101190000000000000000000000000000000000000000100009507261761RODRIGO FELIX DA SILVA                  RUA LUZERNA                             JARDIM NOSSA23097720RIO DE JANEIRO RJUNIAO UMB DOS CULTOS AFRO BRAS    31011910 000011
10231987175000168817800093673    000034283                    000342830000000000000109                     I0134283     31011900000000040003410000017N261218104700000000000103101190000000000000000000000000000000000000000100000421859717ANDREIA DANGELA DE ANDRADE LIM          RUA BORGES MONTEIRO                     HIGIENOPOLIS21051460RIO DE JANEIRO RJUNIAO UMB DOS CULTOS AFRO BRAS    31011910 000012
10231987175000168817800093673    000034282                    000342820000000000000109                     I0134282     31011900000000040003410000017N261218104700000000000103101190000000000000000000000000000000000000000100002861492732JUCARA DOS SANTOS NUNES                 RUA CORONEL SOARES                      IRAJA       21540501RIO DE JANEIRO RJUNIAO UMB DOS CULTOS AFRO BRAS    31011910 000013
10231987175000168817800093673    000034281                    000342810000000000000109                     I0134281     31011900000000040003410000017N261218104700000000000103101190000000000000000000000000000000000000000100003535090784SOLANGE PEREIRA DA SILVA                RUA MANUEL MIRANDA                      ENGENHO NOVO20950300RIO DE JANEIRO RJUNIAO UMB DOS CULTOS AFRO BRAS    31011910 000014
10231987175000168817800093673    000034280                    000342800000000000000109                     I0134280     31011900000000040003410000017N261218104700000000000103101190000000000000000000000000000000000000000100036352624715DAYSE LUZIA DE FREITA BRITTO            RUA DOIS  -                             CHACARAS DE 24900000INOA - MARICA  RJUNIAO UMB DOS CULTOS AFRO BRAS    31011910 000015
10231987175000168817800093673    000034279                    000342790000000000000109                     I0134279     31011900000000040003410000017N261218104700000000000103101190000000000000000000000000000000000000000100038719444753JOAQUIM ROBERTO TRINDADE MONTE          RUA TAQUARI                             BRAS DE PINA21215540RIO DE JANEIRO RJUNIAO UMB DOS CULTOS AFRO BRAS    31011910 000016
10231987175000168817800093673    000034278                    000342780000000000000109                     I0134278     31011900000000040003410000017N261218104700000000000103101190000000000000000000000000000000000000000100011193274745WELINGTON PEDRO DOS SANTOS GOM          RUA ARAUJO ROZO                         ANCHIETA    21635100RIO DE JANEIRO RJUNIAO UMB DOS CULTOS AFRO BRAS    31011910 000017
10231987175000168817800093673    000034277                    000342770000000000000109                     I0134277     31011900000000040003410000017N261218104700000000000103101190000000000000000000000000000000000000000100099025078753EVA DE OLIVEIRA LOPES                   ESTRADA SANTO ANTONIO                   ENGENHEIRO P26455280JAPERI         RJUNIAO UMB DOS CULTOS AFRO BRAS    31011910 000018
10231987175000168817800093673    000034276                    000342760000000000000109                     I0134276     31011900000000040003410000017N261218104700000000000103101190000000000000000000000000000000000000000100088526216791SOLANGE DE MEDEIROS BASTOS DOS          RUA IPOJUCA                             PENHA       21070280RIO DE JANEIRO RJUNIAO UMB DOS CULTOS AFRO BRAS    31011910 000019
10231987175000168817800093673    000034275                    000342750000000000000109                     I0134275     31011900000000040003410000017N261218104700000000000103101190000000000000000000000000000000000000000100005333959765CRISTIANE DA CONCEICAO PACHECO          RUA JOSE SEABRA, 6                      PILAR       25233001DUQUE DE CAXIASRJUNIAO UMB DOS CULTOS AFRO BRAS    31011910 000020
10231987175000168817800093673    000034274                    000342740000000000000109                     I0134274     31011900000000040003410000017N261218104700000000000103101190000000000000000000000000000000000000000100067053424715HELENA DE FATIMA MENDES MARQUE          RUA IRANI                               PENHA       21020200RIO DE JANEIRO RJUNIAO UMB DOS CULTOS AFRO BRAS    31011910 000021
10231987175000168817800093673    000034273                    000342730000000000000109                     I0134273     31011900000000040003410000017N261218104700000000000103101190000000000000000000000000000000000000000100000499306724ANA CLAUDIA DE SOUZA RODRIGUES          RUA VALTER SEDER                        VISTA ALEGRE21250490RIO DE JANEIRO RJUNIAO UMB DOS CULTOS AFRO BRAS    31011910 000022
10231987175000168817800093673    000034272                    000342720000000000000109                     I0134272     31011900000000040003410000017N261218104700000000000103101190000000000000000000000000000000000000000100002181028796EMERSON DIAS DA COSTA                   RUA PARA                                VALE DAS MAN26175370BELFORD ROXO   RJUNIAO UMB DOS CULTOS AFRO BRAS    31011910 000023
10231987175000168817800093673    000034271                    000342710000000000000109                     I0134271     31011900000000040003410000017N261218104700000000000103101190000000000000000000000000000000000000000100008016237746RAFAEL GRACA PEREIRA                    ESTRADA DA COVANCA                      TANQUE - JAC22735020RIO DE JANEIRO RJUNIAO UMB DOS CULTOS AFRO BRAS    31011910 000024
10231987175000168817800093673    000034270                    000342700000000000000109                     I0134270     31011900000000040003410000017N261218104700000000000103101190000000000000000000000000000000000000000100089826930768MARIA DAS DORES SILVA                   RUA JORDAO                              TANQUE      22725549RIO DE JANEIRO RJUNIAO UMB DOS CULTOS AFRO BRAS    31011910 000025
10231987175000168817800093673    000034269                    000342690000000000000109                     I0134269     31011900000000040003410000017N261218104700000000000103101190000000000000000000000000000000000000000100077406648715MARIZEL NUNES MATHION                   RUA MERCEDES COELHO                     COQUEIRAL - 23525100RIO DE JANEIRO RJUNIAO UMB DOS CULTOS AFRO BRAS    31011910 000026
10231987175000168817800093673    000034268                    000342680000000000000109                     I0134268     31011900000000040003410000017N261218104700000000000103101190000000000000000000000000000000000000000100063250071749JORGE LUIS FERREIRA                     RUA DIAMANTINA                          JARDIM LEAL 25035810DUQUE DE CAXIASRJUNIAO UMB DOS CULTOS AFRO BRAS    31011910 000027
10231987175000168817800093673    000034267                    000342670000000000000109                     I0134267     31011900000000040003410000017N261218104700000000000103101190000000000000000000000000000000000000000100008861162797MARCIO ARAUJO DE MELO SOUZA             RUA GERALDO LOURENCO                    JARDIM ROMA 26279325NOVA IGUACU    RJUNIAO UMB DOS CULTOS AFRO BRAS    31011910 000028
10231987175000168817800093673    000034266                    000342660000000000000109                     I0134266     31011900000000040003410000017N261218104700000000000103101190000000000000000000000000000000000000000100034371990720MARILDA CONCEICAO SILVEIRA DA           RUA: MARAJA                             AREIA BRANCA26135240BELFORD ROXO   RJUNIAO UMB DOS CULTOS AFRO BRAS    31011910 000029
10231987175000168817800093673    000034265                    000342650000000000000109                     I0134265     31011900000000040003410000017N261218104700000000000103101190000000000000000000000000000000000000000100050534173772IARA FRANCISCO                          RUA BARAO DE MELGACO                    CORDOVIL    21250320RIO DE JANEIRO RJUNIAO UMB DOS CULTOS AFRO BRAS    31011910 000030
10231987175000168817800093673    000034264                    000342640000000000000109                     I0134264     31011900000000040003410000017N261218104700000000000103101190000000000000000000000000000000000000000100000000000000CARLOS ALBERTO PORTO LEAL               RUA FOSCA                               POSSE       26020015NOVA IGUACU    RJUNIAO UMB DOS CULTOS AFRO BRAS    31011910 000031
10231987175000168817800093673    000034262                    000342620000000000000109                     I0134262     31011900000000040003410000017N261218104700000000000103101190000000000000000000000000000000000000000100007650422747SIDNEI DO VALE FELISBERTO               RUA: DESEMBARGADOR MACHADO GUIMARAES    JARDIM TROPI26011110NOVA IGUACU    RJUNIAO UMB DOS CULTOS AFRO BRAS    31011910 000032
10231987175000168817800093673    000034261                    000342610000000000000109                     I0134261     31011900000000040003410000017N261218104700000000000103101190000000000000000000000000000000000000000100076658961700BEATRIZ DIAS DO NASCIMENTO              RUA SAO BRUNO                           PENHA       21021160RIO DE JANEIRO RJUNIAO UMB DOS CULTOS AFRO BRAS    31011910 000033
10231987175000168817800093673    000034260                    000342600000000000000109                     I0134260     31011900000000040003410000017N261218104700000000000103101190000000000000000000000000000000000000000100036257869749IRANI DA SILVA CORREA                   RUA JATAIZINHO                          SENADOR VASC23012170RIO DE JANEIRO RJUNIAO UMB DOS CULTOS AFRO BRAS    31011910 000034
10231987175000168817800093673    000034259                    000342590000000000000109                     I0134259     31011900000000040003410000017N261218104700000000000103101190000000000000000000000000000000000000000100062783203715SORAYA BARROS PINHEIRO                  RUA: SANTOS TITARA                      TODOS SANTOS20735240RIO DE JANEIRO RJUNIAO UMB DOS CULTOS AFRO BRAS    31011910 000035
10231987175000168817800093673    000034258                    000342580000000000000109                     I0134258     31011900000000040003410000017N261218104700000000000103101190000000000000000000000000000000000000000100002709806878BERNADETE ESPIRITO SANTO                RUA MIGUEL TRIPOLLI GLIORIO             SAO JUDAS TA13300000ITU            SPUNIAO UMB DOS CULTOS AFRO BRAS    31011910 000036
10231987175000168817800093673    000034257                    000342570000000000000109                     I0134257     31011900000000040003410000017N261218104700000000000103101190000000000000000000000000000000000000000100000000000855ELIZABETH GOMES MONTEIRO DA SI          RUA: MUNIZ ACQUARONE                    IRAJA       21220460RIO DE JANEIRO RJUNIAO UMB DOS CULTOS AFRO BRAS    31011910 000037
10231987175000168817800093673    000034256                    000342560000000000000109                     I0134256     31011900000000040003410000017N261218104700000000000103101190000000000000000000000000000000000000000100007775553790ANDRE BATISTA DO NASCIMENTO AR          AVENIDA TRES                            SANTO ANTONI20540320RIO DE JANEIRO RJUNIAO UMB DOS CULTOS AFRO BRAS    31011910 000038
10231987175000168817800093673    000034255                    000342550000000000000109                     I0134255     31011900000000040003410000017N261218104700000000000103101190000000000000000000000000000000000000000100051357909772GLICIA CALDAS GONCALVES DA SIL          RUA: HONORIO DE ALMEIDA                 IRAJA       21235490RIO DE JANEIRO RJUNIAO UMB DOS CULTOS AFRO BRAS    31011910 000039
10231987175000168817800093673    000034254                    000342540000000000000109                     I0134254     31011900000000040003410000017N261218104700000000000103101190000000000000000000000000000000000000000100058984178772ELIZABETH RIBEIRO VALENTE FARI          RUA: VASCO DA GAMA                      PARQUE ESTOR26063190NOVA IGUACU    RJUNIAO UMB DOS CULTOS AFRO BRAS    31011910 000040
10231987175000168817800093673    000034253                    000342530000000000000109                     I0134253     31011900000000040003410000017N261218104700000000000103101190000000000000000000000000000000000000000100050775561720LEANDRO MECENAS DA CUNHA                RUA GUATOS                              PARQUE SAO C26051640NOVA IGUACU    RJUNIAO UMB DOS CULTOS AFRO BRAS    31011910 000041
10231987175000168817800093673    000034252                    000342520000000000000109                     I0134252     31011900000000040003410000017N261218104700000000000103101190000000000000000000000000000000000000000100002603000713DEBORA DOS SANTOS GOES                  RUA DOZE                                NOVA CAMPINA25268240DUQUE DE CAXIASRJUNIAO UMB DOS CULTOS AFRO BRAS    31011910 000042
10231987175000168817800093673    000034251                    000342510000000000000109                     I0134251     31011900000000040003410000017N261218104700000000000103101190000000000000000000000000000000000000000100007295283757DULCE DOS SANTOS MONTEIRO               AVENIDA ESTACIO DE SA                   PARQUE NOVO 25585000SAO JOAO DE MERRJUNIAO UMB DOS CULTOS AFRO BRAS    31011910 000043
10231987175000168817800093673    000034250                    000342500000000000000109                     I0134250     31011900000000040003410000017N261218104700000000000103101190000000000000000000000000000000000000000100099272946700MARCOS ANTONIO DA SILVA                 RUA PIACAVA                             VILA MARILIA26040210NOVA IGUACU    RJUNIAO UMB DOS CULTOS AFRO BRAS    31011910 000044
10231987175000168817800093673    000034249                    000342490000000000000109                     I0134249     31011900000000040003410000017N261218104700000000000103101190000000000000000000000000000000000000000100046180303720ALANIR SOARES DA SILVA                  RUA QUATORZE                            SANTA CRUZ  23520292RIO DE JANEIRO RJUNIAO UMB DOS CULTOS AFRO BRAS    31011910 000045
10231987175000168817800093673    000034248                    000342480000000000000109                     I0134248     31011900000000040003410000017N261218104700000000000103101190000000000000000000000000000000000000000100063553830778WILLIAM RODRIGUES                       RUA JATOBA                              BENTO RIBEIR00000000RIO DE JANEIRO RJUNIAO UMB DOS CULTOS AFRO BRAS    31011910 000046
10231987175000168817800093673    000034246                    000342460000000000000109                     I0134246     31011900000000040003410000017N261218104700000000000103101190000000000000000000000000000000000000000100000000000000MARIA LEOPOLDINO DE MATOS               RUA JOA                                 BOA ESPERANC26070057NOVA IGUACU    RJUNIAO UMB DOS CULTOS AFRO BRAS    31011910 000047
10231987175000168817800093673    000034245                    000342450000000000000109                     I0134245     31011900000000040003410000017N261218104700000000000103101190000000000000000000000000000000000000000100068556241700NEIDE RISMO                             RUA JABOTIA                             JARDIM DAS A26143410BELFORD ROXO   RJUNIAO UMB DOS CULTOS AFRO BRAS    31011910 000048
10231987175000168817800093673    000034244                    000342440000000000000109                     I0134244     31011900000000040003410000017N261218104700000000000103101190000000000000000000000000000000000000000100010749011777LUIZ CARLOS LOYOLA ALVES                RUA OURO PRETO                          COMUNIDADE T26297144NOVA IGUACU    RJUNIAO UMB DOS CULTOS AFRO BRAS    31011910 000049
10231987175000168817800093673    000034243                    000342430000000000000109                     I0134243     31011900000000040003410000017N261218104700000000000103101190000000000000000000000000000000000000000100007485965778GRACIETE LEAO TANGUA                    RUA ROBERTO RANGEL LIMA                 MAURI - PIAB25915000MAGE           RJUNIAO UMB DOS CULTOS AFRO BRAS    31011910 000050
10231987175000168817800093673    000034242                    000342420000000000000109                     I0134242     31011900000000040003410000017N261218104700000000000103101190000000000000000000000000000000000000000100007272823798ANGELO DA SILVA VICENTE                 RUA ALMEIDA JUNIOR                      JARDIM ALCAN24710160SAO GONCALO    RJUNIAO UMB DOS CULTOS AFRO BRAS    31011910 000051
10231987175000168817800093673    000034241                    000342410000000000000109                     I0134241     31011900000000040003410000017N261218104700000000000103101190000000000000000000000000000000000000000100038370999700JULIO ALEXANDRE FERREIRA                RUA FINLANDIA                           OSWALDO CRUZ21550310RIO DE JANEIRO RJUNIAO UMB DOS CULTOS AFRO BRAS    31011910 000052
10231987175000168817800093673    000034240                    000342400000000000000109                     I0134240     31011900000000040003410000017N261218104700000000000103101190000000000000000000000000000000000000000100000681004770ESPEDITA NUNES DA SILVA                 AVENIDA CASTELO BRANCO                  PARQUE ELDOR25243570DUQUE DE CAXIASRJUNIAO UMB DOS CULTOS AFRO BRAS    31011910 000053
10231987175000168817800093673    000034239                    000342390000000000000109                     I0134239     31011900000000040003410000017N261218104700000000000103101190000000000000000000000000000000000000000100000000008400DANIEL DOMINGOS DA SILVA                RUA: CAMINHO MADEIRA                    MANGUEIRA   26270470NOVA IGUACU    RJUNIAO UMB DOS CULTOS AFRO BRAS    31011910 000054
10231987175000168817800093673    000034238                    000342380000000000000109                     I0134238     31011900000000040003410000017N261218104700000000000103101190000000000000000000000000000000000000000100000559151756HENIE DA SILVA ALENCAR                  RUA ROBERTO CALDAS                      PARQUE FLUMI26187400BELFORD ROXO   RJUNIAO UMB DOS CULTOS AFRO BRAS    31011910 000055
10231987175000168817800093673    000034237                    000342370000000000000109                     I0134237     31011900000000040003410000017N261218104700000000000103101190000000000000000000000000000000000000000100062792920700LUIZ CESAR DE OLIVEIRA                  RUA PEREIRA DE FIGUEIREDO               OSWALDO CRUZ21340030RIO DE JANEIRO RJUNIAO UMB DOS CULTOS AFRO BRAS    31011910 000056
10231987175000168817800093673    000034236                    000342360000000000000109                     I0134236     31011900000000040003410000017N261218104700000000000103101190000000000000000000000000000000000000000100000000000000MARIA DA PENHA DOS SANTOS MARQ          RUA: BRENO SOUZA ALVES                  SAO BERNADO 26165000BELFORD ROXO   RJUNIAO UMB DOS CULTOS AFRO BRAS    31011910 000057
10231987175000168817800093673    000034235                    000342350000000000000109                     I0134235     31011900000000040003410000017N261218104700000000000103101190000000000000000000000000000000000000000100006870897786JARDELI DE OLIVEIRA LISTO               RUA CEU AZUL                            CURICICA    22780650RIO DE JANEIRO RJUNIAO UMB DOS CULTOS AFRO BRAS    31011910 000058
10231987175000168817800093673    000034234                    000342340000000000000109                     I0134234     31011900000000045003410000017N261218104700000000000103101190000000000000000000000000000000000000000100002156451702MARIA AMALIA AVELLAR SOUZA              RUA BELMIRA                             PIEDADE     20756200RIO DE JANEIRO RJUNIAO UMB DOS CULTOS AFRO BRAS    31011910 000059
10231987175000168817800093673    000034233                    000342330000000000000109                     I0134233     31011900000000040003410000017N261218104700000000000103101190000000000000000000000000000000000000000100008901438704THIAGO RODRIGUES DA SILVA MOUR          RUA CENTRAL                             PRAIA MAUA  25930000MAGE           RJUNIAO UMB DOS CULTOS AFRO BRAS    31011910 000060
10231987175000168817800093673    000034232                    000342320000000000000109                     I0134232     31011900000000040003410000017N261218104700000000000103101190000000000000000000000000000000000000000100001153058740ALEXANDRE DE ALMEIDA ESPINDOLA          ESTRADA DO CAMBOATA                     GUADALUPE   21660000RIO DE JANEIRO RJUNIAO UMB DOS CULTOS AFRO BRAS    31011910 000061
10231987175000168817800093673    000034231                    000342310000000000000109                     I0134231     31011900000000040003410000017N261218104700000000000103101190000000000000000000000000000000000000000100088537285749ELCIO CRUZ DE OLIVEIRA                  RUA DEOCLECIANO RAMOS                   ANCHIETA    21645180RIO DE JANEIRO RJUNIAO UMB DOS CULTOS AFRO BRAS    31011910 000062
10231987175000168817800093673    000034230                    000342300000000000000109                     I0134230     31011900000000040003410000017N261218104700000000000103101190000000000000000000000000000000000000000100002978000783FABIO PINTO MANTUANO                    RUA: DAS AMOREIRAS                      INOA        24943760MARICA         RJUNIAO UMB DOS CULTOS AFRO BRAS    31011910 000063
10231987175000168817800093673    000034229                    000342290000000000000109                     I0134229     31011900000000040003410000017N261218104700000000000103101190000000000000000000000000000000000000000100055688306734ROBERTO BRAGANCA BAHIA                  TRAVESSA PALADINO GARCIA                CENTRO      26130290BELFORD ROXO   RJUNIAO UMB DOS CULTOS AFRO BRAS    31011910 000064
10231987175000168817800093673    000034228                    000342280000000000000109                     I0134228     31011900000000040003410000017N261218104700000000000103101190000000000000000000000000000000000000000100001117379744VERA LUCIA SOUZA COUTO                  RUA RUDY ALBERTO                        MAUA        25900000MAGE           RJUNIAO UMB DOS CULTOS AFRO BRAS    31011910 000065
10231987175000168817800093673    000034227                    000342270000000000000109                     I0134227     31011900000000040003410000017N261218104700000000000103101190000000000000000000000000000000000000000100004121968751MARIA ALICE MANOEL DO VALE              RUA B                                   JARDIM MARAM24800000ITABORAI       RJUNIAO UMB DOS CULTOS AFRO BRAS    31011910 000066
10231987175000168817800093673    000034226                    000342260000000000000109                     I0134226     31011900000000040003410000017N261218104700000000000103101190000000000000000000000000000000000000000100000000000829LUIZ ANTONIO CARDOSO ARAUJO             RUA SAMUEL DAS NEVES                    PECHINCHA   22770110RIO DE JANEIRO RJUNIAO UMB DOS CULTOS AFRO BRAS    31011910 000067
10231987175000168817800093673    000034225                    000342250000000000000109                     I0134225     31011900000000040003410000017N261218104700000000000103101190000000000000000000000000000000000000000100081051387787ROSA AMELIA COSENZA                     RUA MARIA DA GLORIA BALTAR              NOVA CIDADE 26535290NILOPOLIS      RJUNIAO UMB DOS CULTOS AFRO BRAS    31011910 000068
10231987175000168817800093673    000034224                    000342240000000000000109                     I0134224     31011900000000040003410000017N261218104700000000000103101190000000000000000000000000000000000000000100085091515704MARIA DA PENHA BARBOSA                  RUA HELVIA BRAGANCA                     JARDIM BOM P26110030BELFORD ROXO   RJUNIAO UMB DOS CULTOS AFRO BRAS    31011910 000069
10231987175000168817800093673    000034223                    000342230000000000000109                     I0134223     31011900000000040003410000017N261218104700000000000103101190000000000000000000000000000000000000000100004501217715JOSE DIOMEDES DO PATROCINIO NE          RUA JOSE FREIRE                         CABUCU      26270030DUQUE DE CAXIASRJUNIAO UMB DOS CULTOS AFRO BRAS    31011910 000070
10231987175000168817800093673    000034222                    000342220000000000000109                     I0134222     31011900000000040003410000017N261218104700000000000103101190000000000000000000000000000000000000000100004753333736ELAINE DOS SANTOS FONTES ARAUJ          RUA HELIANTO                            PADRE MIGUEL21775090RIO DE JANEIRO RJUNIAO UMB DOS CULTOS AFRO BRAS    31011910 000071
10231987175000168817800093673    000034221                    000342210000000000000109                     I0134221     31011900000000040003410000017N261218104700000000000103101190000000000000000000000000000000000000000100007342538779DAVID GARDINA FERREIRA LUCIO            RUA SARAPUI                             COELHO DA RO25550531SAO JOAO DE MERRJUNIAO UMB DOS CULTOS AFRO BRAS    31011910 000072
10231987175000168817800093673    000034220                    000342200000000000000109                     I0134220     31011900000000040003410000017N261218104700000000000103101190000000000000000000000000000000000000000100003316779701WALLACE SILVA SOARES                    RUA QUINZE DE NOVEMBRO                  SARACURUNA  25212690DUQUE DE CAXIASRJUNIAO UMB DOS CULTOS AFRO BRAS    31011910 000073
10231987175000168817800093673    000034219                    000342190000000000000109                     I0134219     31011900000000040003410000017N261218104700000000000103101190000000000000000000000000000000000000000100002152945727CARLOS HENRIQUE SANTOS LIRA             RUA: DOS COQUEIROS                      CATUMBI     20251330RIO DE JANEIRO RJUNIAO UMB DOS CULTOS AFRO BRAS    31011910 000074
10231987175000168817800093673    000034218                    000342180000000000000109                     I0134218     31011900000000040003410000017N261218104700000000000103101190000000000000000000000000000000000000000100027686205720DENNIS CLARE                            RUA RATICLIFF                           RIACHUELO   20950170RIO DE JANEIRO RJUNIAO UMB DOS CULTOS AFRO BRAS    31011910 000075
10231987175000168817800093673    000034217                    000342170000000000000109                     I0134217     31011900000000040003410000017N261218104700000000000103101190000000000000000000000000000000000000000100064949559753CREUZA LEAL COIMBRA                     AVENIDA CORONEL RAIMUNDO SAMPAIO        JARDIM BOTAN25570393SAO JOAO DE MERRJUNIAO UMB DOS CULTOS AFRO BRAS    31011910 000076
10231987175000168817800093673    000034216                    000342160000000000000109                     I0134216     31011900000000045003410000017N261218104700000000000103101190000000000000000000000000000000000000000100090853784787MARIA LUCIA PEREIRA DA SILVA            RUA CORACAO DE MARIA                    MEIER       20775050RIO DE JANEIRO RJUNIAO UMB DOS CULTOS AFRO BRAS    31011910 000077
10231987175000168817800093673    000034215                    000342150000000000000109                     I0134215     31011900000000040003410000017N261218104700000000000103101190000000000000000000000000000000000000000100007972604711ADRIANA TAVARES DA CONCEICAO            RUA: PEREIRO                            TAQUARA - JA22723155RIO DE JANEIRO RJUNIAO UMB DOS CULTOS AFRO BRAS    31011910 000078
10231987175000168817800093673    000034214                    000342140000000000000109                     I0134214     31011900000000040003410000017N261218104700000000000103101190000000000000000000000000000000000000000100036386812700VICENCO GEARDINA NETO                   ESTRADA SANTA BARBARA                   MIGUEL COUTO26061070NOVA IGUACU    RJUNIAO UMB DOS CULTOS AFRO BRAS    31011910 000079
10231987175000168817800093673    000034213                    000342130000000000000109                     I0134213     31011900000000040003410000017N261218104700000000000103101190000000000000000000000000000000000000000100003027226703MARCIO ALVES DOS SANTOS                 RUA ESTUDANTE ELIANE CASTANHEIRA        CENTRO      25510242SAO JOAO DE MERRJUNIAO UMB DOS CULTOS AFRO BRAS    31011910 000080
10231987175000168817800093673    000034212                    000342120000000000000109                     I0134212     31011900000000040003410000017N261218104700000000000103101190000000000000000000000000000000000000000100093971087787SUELY DE CASSIA NEVES DA SILVA          RUA ANTONIO JOAQUIM DA SILVA            PARQUE BARRE25581140SAO JOAO DE MERRJUNIAO UMB DOS CULTOS AFRO BRAS    31011910 000081
10231987175000168817800093673    000034211                    000342110000000000000109                     I0134211     31011900000000040003410000017N261218104700000000000103101190000000000000000000000000000000000000000100081947712772MARIA COELHO DE LIMA                    RUA MARQUESA DOS SANTOS                 VILA ROSARIO25040070DUQUE DE CAXIASRJUNIAO UMB DOS CULTOS AFRO BRAS    31011910 000082
10231987175000168817800093673    000034210                    000342100000000000000109                     I0134210     31011900000000040003410000017N261218104700000000000103101190000000000000000000000000000000000000000100096252634700PATRICIA BORGES                         RUA DOS CAJUEIROS                       SEPETIBA    23530074RIO DE JANEIRO RJUNIAO UMB DOS CULTOS AFRO BRAS    31011910 000083
10231987175000168817800093673    000034209                    000342090000000000000109                     I0134209     31011900000000040003410000017N261218104700000000000103101190000000000000000000000000000000000000000100085624250797HELBA SALLES DE SOUZA                   RUA VITORIA                             LAGOINHA    26296447NOVA IGUACU    RJUNIAO UMB DOS CULTOS AFRO BRAS    31011910 000084
10231987175000168817800093673    000034208                    000342080000000000000109                     I0134208     31011900000000040003410000017N261218104700000000000103101190000000000000000000000000000000000000000100010083312790EDINALDO FELIX DA SILVA                 RUA BERNARDA MARIA DA CONCEICAO         FAZENDA CAXI23895320ILHA DO GOVERNARJUNIAO UMB DOS CULTOS AFRO BRAS    31011910 000085
10231987175000168817800093673    000034207                    000342070000000000000109                     I0134207     31011900000000040003410000017N261218104700000000000103101190000000000000000000000000000000000000000100080295576715DOLORES DAS GRACAS ADRIANO DE           RUA SOLDADO PRIM CANES                  VILA MAR    23025420GUARATIBA      RJUNIAO UMB DOS CULTOS AFRO BRAS    31011910 000086
10231987175000168817800093673    000034206                    000342060000000000000109                     I0134206     31011900000000040003410000017N261218104700000000000103101190000000000000000000000000000000000000000100003549035780CARLOS ALBERTO DA SILVA SANTOS          AVENIDA PRESIDENTE DUTRA                VILA DILMA  26085060NOVA IGUACU    RJUNIAO UMB DOS CULTOS AFRO BRAS    31011910 000087
10231987175000168817800093673    000034205                    000342050000000000000109                     I0134205     31011900000000040003410000017N261218104700000000000103101190000000000000000000000000000000000000000100001393165745MARCO AURELIO DE BARROS FARIAS          RUA F                                   CABUCU      24851516NITEROI        RJUNIAO UMB DOS CULTOS AFRO BRAS    31011910 000088
10231987175000168817800093673    000034204                    000342040000000000000109                     I0134204     31011900000000040003410000017N261218104700000000000103101190000000000000000000000000000000000000000100007793822773ANA MARIA ALVES DO NASCIMENTO           RUA ERVALIA                             BOM RETIRO  25223710DUQUE DE CAXIASRJUNIAO UMB DOS CULTOS AFRO BRAS    31011910 000089
10231987175000168817800093673    000034203                    000342030000000000000109                     I0134203     31011900000000040003410000017N261218104700000000000103101190000000000000000000000000000000000000000100077451953734VANDA NILDA DE ASSIS                    RUA COELHO LISBOA                       OSVALDO CRUZ21340260RIO DE JANEIRIORJUNIAO UMB DOS CULTOS AFRO BRAS    31011910 000090
10231987175000168817800093673    000034202                    000342020000000000000109                     I0134202     31011900000000040003410000017N261218104700000000000103101190000000000000000000000000000000000000000100005415694730ALEX SANDRO DA SILVA BANDEIRA           RUA PAULO ROBERTO                       PRAIA DE MAU25900000MAGE           RJUNIAO UMB DOS CULTOS AFRO BRAS    31011910 000091
10231987175000168817800093673    000034201                    000342010000000000000109                     I0134201     31011900000000040003410000017N261218104700000000000103101190000000000000000000000000000000000000000100082059403715SANDRA HELENA VILLAMOR MONTASS          RUA ARGOS                               GUADALUPE   21660050RIO DE JANEIRO RJUNIAO UMB DOS CULTOS AFRO BRAS    31011910 000092
10231987175000168817800093673    000034200                    000342000000000000000109                     I0134200     31011900000000040003410000017N261218104700000000000103101190000000000000000000000000000000000000000100012948872898LUCILENE BARROS                         RUA DO PIANO                            CAMPOS ELISI25225218DUQUE DE CAXIASRJUNIAO UMB DOS CULTOS AFRO BRAS    31011910 000093
10231987175000168817800093673    000034199                    000341990000000000000109                     I0134199     31011900000000040003410000017N261218104700000000000103101190000000000000000000000000000000000000000100060407875700KATIA DE AZEVEDO FURTADO                RUA SOUZA PITANGA                       THOMAS COELH21381230RIO DE JANEIRO RJUNIAO UMB DOS CULTOS AFRO BRAS    31011910 000094
10231987175000168817800093673    000034198                    000341980000000000000109                     I0134198     31011900000000040003410000017N261218104700000000000103101190000000000000000000000000000000000000000100088677079734MARIA APARECIDA MORAIS DOS SAN          RUA SAO FRANCISCO                       PRADO VERDE 26299180RIO DE JANEIRO RJUNIAO UMB DOS CULTOS AFRO BRAS    31011910 000095
10231987175000168817800093673    000034197                    000341970000000000000109                     I0134197     31011900000000040003410000017N261218104700000000000103101190000000000000000000000000000000000000000100067023711791EURIDES DOS SANTOS                      RUA CORONEL ALBERTO DE MELO             AREIA BRANCA26112370BELFORD ROXO   RJUNIAO UMB DOS CULTOS AFRO BRAS    31011910 000096
10231987175000168817800093673    000034196                    000341960000000000000109                     I0134196     31011900000000040003410000017N261218104700000000000103101190000000000000000000000000000000000000000100000000000000MARIA ORLANDA ALVES BRAZ                RUA JOSEFA DE ARAUJO                    CAMPO ALEGRE26292003RIO DE JANEIRO RJUNIAO UMB DOS CULTOS AFRO BRAS    31011910 000097
10231987175000168817800093673    000034195                    000341950000000000000109                     I0134195     31011900000000040003410000017N261218104700000000000103101190000000000000000000000000000000000000000100000059525738MONICA SOARES MAGALHAES                 RUA AMALIA                              QUINTINO    21380400RIO DE JANEIRO RJUNIAO UMB DOS CULTOS AFRO BRAS    31011910 000098
10231987175000168817800093673    000034194                    000341940000000000000109                     I0134194     31011900000000040003410000017N261218104700000000000103101190000000000000000000000000000000000000000100003987884720SAINT CLAIR MACHADO FERNANDES           RUA JACA                                PARQUE ESPER26173510BELFORD ROXO   RJUNIAO UMB DOS CULTOS AFRO BRAS    31011910 000099
10231987175000168817800093673    000034193                    000341930000000000000109                     I0134193     31011900000000040003410000017N261218104700000000000103101190000000000000000000000000000000000000000100003549931786LUCIANE CRISTINA OLIVEIRA DOS           RUA AMANDIU                             IRAJA       21371440RIO DE JANEIRO RJUNIAO UMB DOS CULTOS AFRO BRAS    31011910 000100
10231987175000168817800093673    000034192                    000341920000000000000109                     I0134192     31011900000000040003410000017N261218104700000000000103101190000000000000000000000000000000000000000100009959417778CARLOS HENRIQUE LOPES ROSA              RUA: ROSA MULLER                        VILAR DOS TE25560355SAO JOAO DE MERRJUNIAO UMB DOS CULTOS AFRO BRAS    31011910 000101
10231987175000168817800093673    000034191                    000341910000000000000109                     I0134191     31011900000000040003410000017N261218104700000000000103101190000000000000000000000000000000000000000100096599170749LUCINEA LOPES DA SILVA                  FLAVIA REGINA DE SOUZA                  CABUCU      00000000NOVA IGUACU    RJUNIAO UMB DOS CULTOS AFRO BRAS    31011910 000102
10231987175000168817800093673    000034190                    000341900000000000000109                     I0134190     31011900000000040003410000017N261218104700000000000103101190000000000000000000000000000000000000000100004256373799ALCIDES FRANCISCO DE ALBUQUERQ          AVENIDA: CALOMBE                        CHACARAS RIO25230050DUQUE DE CAXIASRJUNIAO UMB DOS CULTOS AFRO BRAS    31011910 000103
10231987175000168817800093673    000034189                    000341890000000000000109                     I0134189     31011900000000040003410000017N261218104700000000000103101190000000000000000000000000000000000000000100061523003715MARIA EMILIA RIBEIRO VIEIRA DO          RUA EIMA                                IRAJA       21220370RIO DE JANEIRO RJUNIAO UMB DOS CULTOS AFRO BRAS    31011910 000104
10231987175000168817800093673    000034188                    000341880000000000000109                     I0134188     31011900000000040003410000017N261218104700000000000103101190000000000000000000000000000000000000000100004253313792VIVIANE ALVES DO ROSARIO                RUA MANHUACU                            VARGEM GRAND22785600RIO DE JANEIRO RJUNIAO UMB DOS CULTOS AFRO BRAS    31011910 000105
10231987175000168817800093673    000034187                    000341870000000000000109                     I0134187     31011900000000040003410000017N261218104700000000000103101190000000000000000000000000000000000000000100000000000000SANDRA REIS DOS SANTOS                  RUA BANGU                               DOUTOR LAURE25060180DUQUE DE CAXIASRJUNIAO UMB DOS CULTOS AFRO BRAS    31011910 000106
10231987175000168817800093673    000034186                    000341860000000000000109                     I0134186     31011900000000040003410000017N261218104700000000000103101190000000000000000000000000000000000000000100007661970775CELIA MARIA DE ARAUJO LIMA              RUA: MARQUES DE MARICA                  GRAMACHO    25030480DUQUE DE CAXIASRJUNIAO UMB DOS CULTOS AFRO BRAS    31011910 000107
10231987175000168817800093673    000034185                    000341850000000000000109                     I0134185     31011900000000040003410000017N261218104700000000000103101190000000000000000000000000000000000000000100034663240763GUARACI FRANCISCO RIBEIRO               RUA ASTRAL                              ROSA DOS VEN26276070NOVA IGUACU    RJUNIAO UMB DOS CULTOS AFRO BRAS    31011910 000108
10231987175000168817800093673    000034184                    000341840000000000000109                     I0134184     31011900000000040003410000017N261218104700000000000103101190000000000000000000000000000000000000000100005432577704JOAO TEIXEIRA BRAGA NETO                RUA CANDIDO DE OLIVEIRA                 RIO COMPRIDO20261220RIO DE JANEIRO RJUNIAO UMB DOS CULTOS AFRO BRAS    31011910 000109
10231987175000168817800093673    000034183                    000341830000000000000109                     I0134183     31011900000000040003410000017N261218104700000000000103101190000000000000000000000000000000000000000100075750384772VERA LUCIA BORGES NAZARETH              RUA DA CAPITAL                          MAUA        25930000MAGE           RJUNIAO UMB DOS CULTOS AFRO BRAS    31011910 000110
10231987175000168817800093673    000034182                    000341820000000000000109                     I0134182     31011900000000040003410000017N261218104700000000000103101190000000000000000000000000000000000000000100076550893704MARCO ANTONIO DE ARAUJO                 RUA ROSANGELA                           OLARIA - MAU25925690MAGE           RJUNIAO UMB DOS CULTOS AFRO BRAS    31011910 000111
10231987175000168817800093673    000034181                    000341810000000000000109                     I0134181     31011900000000040003410000017N261218104700000000000103101190000000000000000000000000000000000000000100075531585772ROSANGELA PAULINA RODRIGUES             ESTRADA DA GUARITA                      CARMARI     26040010NOVA IGUACU    RJUNIAO UMB DOS CULTOS AFRO BRAS    31011910 000112
10231987175000168817800093673    000034180                    000341800000000000000109                     I0134180     31011900000000040003410000017N261218104700000000000103101190000000000000000000000000000000000000000100011564970787MARIA ELIZA PINHEIRO SERRA              RUA ULEMAS  - SANTA ISABEL              POSSE       26020790NOVA IGUACU    RJUNIAO UMB DOS CULTOS AFRO BRAS    31011910 000113
10231987175000168817800093673    000034179                    000341790000000000000109                     I0134179     31011900000000040003410000017N261218104700000000000103101190000000000000000000000000000000000000000100064431002715SERGIO MURILO ALVES PEREIRA             RUA CARLOS ACIOLI                       CABUCU      26351270SAO JOAO DE MERRJUNIAO UMB DOS CULTOS AFRO BRAS    31011910 000114
10231987175000168817800093673    000034178                    000341780000000000000109                     I0134178     31011900000000040003410000017N261218104700000000000103101190000000000000000000000000000000000000000100081628811749MAURO JOSE DE AZEVEDO FALCAO            RUA: LEOPOLDO MACHADO                   BOA ESPERANC26130680NOVA IGUACU    RJUNIAO UMB DOS CULTOS AFRO BRAS    31011910 000115
10231987175000168817800093673    000034177                    000341770000000000000109                     I0134177     31011900000000040003410000017N261218104700000000000103101190000000000000000000000000000000000000000100025969153753MARIA EUNICE FRUCTUOSO MIGUEL           RUA VIRGEM PEREGRINA                    PIEDADE     21381070RIO DE JANEIRO RJUNIAO UMB DOS CULTOS AFRO BRAS    31011910 000116
10231987175000168817800093673    000034176                    000341760000000000000109                     I0134176     31011900000000040003410000017N261218104700000000000103101190000000000000000000000000000000000000000100065138210700TANIA CRISTINA DOS SANTOS PERE          RUA: BOM JARDIM                         GRAMACHO    25035060DUQUE DE CAXIASRJUNIAO UMB DOS CULTOS AFRO BRAS    31011910 000117
10231987175000168817800093673    000034175                    000341750000000000000109                     I0134175     31011900000000040003410000017N261218104700000000000103101190000000000000000000000000000000000000000100007150949711SEVERINA BENVINDO FERREIRA              ESTRADA DO CALUNDU                      NOSSA SENHOR25040610DUQUE DE CAXIASRJUNIAO UMB DOS CULTOS AFRO BRAS    31011910 000118
10231987175000168817800093673    000034174                    000341740000000000000109                     I0134174     31011900000000025003410000017N261218104700000000000103101190000000000000000000000000000000000000000100052329160363NENI GOMES DE ALMEIDA                   RUA MARIA SANTANA FERNANDES             JARDIM ACACI23845250SEROPEDICA     RJUNIAO UMB DOS CULTOS AFRO BRAS    31011910 000119
10231987175000168817800093673    000034173                    000341730000000000000109                     I0134173     31011900000000040003410000017N261218104700000000000103101190000000000000000000000000000000000000000100054590604787VANDA PAIVA                             RUA LUIZ JACINTO                        EDEN        25535161SAO JOAO DE MERRJUNIAO UMB DOS CULTOS AFRO BRAS    31011910 000120
10231987175000168817800093673    000034172                    000341720000000000000109                     I0134172     31011900000000040003410000017N261218104700000000000103101190000000000000000000000000000000000000000100059099747772EULINA LUCIA RODRIGUES DE SOUZ          RUA XAVIER DOS PASSAROS                 PIEDADE     20740330RIO DE JANEIRO RJUNIAO UMB DOS CULTOS AFRO BRAS    31011910 000121
10231987175000168817800093673    000034171                    000341710000000000000109                     I0134171     31011900000000040003410000017N261218104700000000000103101190000000000000000000000000000000000000000100009116311787ETELVINA SOUZA DUARTE                   RUA DUBLIN                              PARQUE PAULI25261380RIO DE JANEIRO RJUNIAO UMB DOS CULTOS AFRO BRAS    31011910 000122
10231987175000168817800093673    000034170                    000341700000000000000109                     I0134170     31011900000000040003410000017N261218104700000000000103101190000000000000000000000000000000000000000100000000000000RAQUEL RODRIGUES SOBRAL DANTAS          RUA CAPITAO COUTO MENEZES               MADUREIRA   21310200RIO DE JANEIRO RJUNIAO UMB DOS CULTOS AFRO BRAS    31011910 000123
10231987175000168817800093673    000034169                    000341690000000000000109                     I0134169     31011900000000040003410000017N261218104700000000000103101190000000000000000000000000000000000000000100009839961721MARIO DE OLIVEIRA CARLOS                RUA BRAUNA                              JARDIM PRIMA25000000DUQUE DE CAXIASRJUNIAO UMB DOS CULTOS AFRO BRAS    31011910 000124
10231987175000168817800093673    000034168                    000341680000000000000109                     I0134168     31011900000000040003410000017N261218104700000000000103101190000000000000000000000000000000000000000100001057873705ADEMIR ANDRADE CUNHA                    RUA PACHECO DA ROCHA                    BENTO RIBEIR21555092RIO DE JANEIRO RJUNIAO UMB DOS CULTOS AFRO BRAS    31011910 000125
10231987175000168817800093673    000034167                    000341670000000000000109                     I0134167     31011900000000040003410000017N261218104700000000000103101190000000000000000000000000000000000000000100039341887704NORMA AYRES DA SILVA                    RUA VALENCA                             BAR DOS CAVA25015590DUQUE DE CAXIASRJUNIAO UMB DOS CULTOS AFRO BRAS    31011910 000126
10231987175000168817800093673    000034166                    000341660000000000000109                     I0134166     31011900000000040003410000017N261218104700000000000103101190000000000000000000000000000000000000000100011208480758MARIA ANTONIA KIFFER CORREA             AVENIDA MARECHAL HERMES                 VILA SAO LUI25065115DUQUE DE CAXIASRJUNIAO UMB DOS CULTOS AFRO BRAS    31011910 000127
10231987175000168817800093673    000034165                    000341650000000000000109                     I0134165     31011900000000040003410000017N261218104700000000000103101190000000000000000000000000000000000000000100064250121704ANGELA MARIA BRAZ MANHAES               RUA JUTAI                               PERIQUITO   25025290DUQUE DE CAXIASRJUNIAO UMB DOS CULTOS AFRO BRAS    31011910 000128
10231987175000168817800093673    000034164                    000341640000000000000109                     I0134164     31011900000000040003410000017N261218104700000000000103101190000000000000000000000000000000000000000100088469212753NEIDE CARVALHO D ANGELO                 RUA GENERAL TRAUMATURGO                 VILA ROSARIO25040010DUQUE DE CAXIASRJUNIAO UMB DOS CULTOS AFRO BRAS    31011910 000129
10231987175000168817800093673    000034163                    000341630000000000000109                     I0134163     31011900000000040003410000017N261218104700000000000103101190000000000000000000000000000000000000000100001578595762CASSIA MARIA DE OLIVEIRA                RUA CEARA                               PIABETA     25932145MAGE           RJUNIAO UMB DOS CULTOS AFRO BRAS    31011910 000130
10231987175000168817800093673    000034162                    000341620000000000000109                     I0134162     31011900000000040003410000017N261218104700000000000103101190000000000000000000000000000000000000000100000000000000NEUZA MARIA MACHADO DA SILVA            RUA AUGUSTO SERGIO BOTELHO              BARRO BRANCO25267124DUQUE DE CAXIASRJUNIAO UMB DOS CULTOS AFRO BRAS    31011910 000131
10231987175000168817800093673    000034161                    000341610000000000000109                     I0134161     31011900000000040003410000017N261218104700000000000103101190000000000000000000000000000000000000000100070030928753VIRGILANE COSTA DE SOUZA                RUA GAMO                                GUARANI     25575380SAO JOAO DE MERRJUNIAO UMB DOS CULTOS AFRO BRAS    31011910 000132
10231987175000168817800093673    000034160                    000341600000000000000109                     I0134160     31011900000000040003410000017N261218104700000000000103101190000000000000000000000000000000000000000100064891712791MOSENIRA DA SILVA COSTA                 RUA MARQUESA DE SANTOS                  VILA ROSARIO25040070DUQUE DE CAXIASRJUNIAO UMB DOS CULTOS AFRO BRAS    31011910 000133
10231987175000168817800093673    000034159                    000341590000000000000109                     I0134159     31011900000000040003410000017N261218104700000000000103101190000000000000000000000000000000000000000100059414731768LUCILA JESUS DE OLIVEIRA                ESTRADA CIRCULAR                        PQ SAO VICEN26172160BELFORD ROXO   RJUNIAO UMB DOS CULTOS AFRO BRAS    31011910 000134
10231987175000168817800093673    000034158                    000341580000000000000109                     I0134158     31011900000000040003410000017N261218104700000000000103101190000000000000000000000000000000000000000100000080766773SONIA CRISTINA DA SILVA ALVES           RUA AMARO AGUIAR BRANDAO                BECO MAUA - 26193600BELFORD ROXO   RJUNIAO UMB DOS CULTOS AFRO BRAS    31011910 000135
10231987175000168817800093673    000034157                    000341570000000000000109                     I0134157     31011900000000040003410000017N261218104700000000000103101190000000000000000000000000000000000000000100002912019702JONER BORGES BARCELOS                   RUA OITO                                NOVA CAMPINA25000000DUQUE DE CAXIASRJUNIAO UMB DOS CULTOS AFRO BRAS    31011910 000136
10231987175000168817800093673    000034156                    000341560000000000000109                     I0134156     31011900000000040003410000017N261218104700000000000103101190000000000000000000000000000000000000000100001637090765DEBORA VENTURA CESAR                    RUA TACOARI                             HELIOPOLIS  20765040RIO DE JANEIRO RJUNIAO UMB DOS CULTOS AFRO BRAS    31011910 000137
10231987175000168817800093673    000034155                    000341550000000000000109                     I0134155     31011900000000040003410000017N261218104700000000000103101190000000000000000000000000000000000000000100078815428704LUZINETE PINHO DE SA                    ESTRADA MANOEL FERREIRA CAMPAR          POSSE       26021060NOVA IGUACU    RJUNIAO UMB DOS CULTOS AFRO BRAS    31011910 000138
10231987175000168817800093673    000034154                    000341540000000000000109                     I0134154     31011900000000040003410000017N261218104700000000000103101190000000000000000000000000000000000000000100004418873767SANDRA REGINA DA SILVA                  AVENIDA: PERNAMBUCANA                   COELHO DA RO25555080SAO JOAO DE MERRJUNIAO UMB DOS CULTOS AFRO BRAS    31011910 000139
10231987175000168817800093673    000034152                    000341520000000000000109                     I0134152     31011900000000040003410000017N261218104700000000000103101190000000000000000000000000000000000000000100000000000366SUELI REGINA DA SILVA                   ESTRADA: DA FAZENDA                     JARDFIM ESPL26013470NOVA IGUACU    RJUNIAO UMB DOS CULTOS AFRO BRAS    31011910 000140
10231987175000168817800093673    000034151                    000341510000000000000109                     I0134151     31011900000000040003410000017N261218104700000000000103101190000000000000000000000000000000000000000100001925108783HELENA MOREIRA PESSOA                   RUA CAPIVARA                            SANTA CRUZ D25260180DUQUE DE CAXIASRJUNIAO UMB DOS CULTOS AFRO BRAS    31011910 000141
10231987175000168817800093673    000034150                    000341500000000000000109                     I0134150     31011900000000040003410000017N261218104700000000000103101190000000000000000000000000000000000000000100003756140792LUIZ HENRIQUE DINIZ SIMOES              RUA BUCARESTE                           VIGARIO GERA21241250RIO DE JANEIRO RJUNIAO UMB DOS CULTOS AFRO BRAS    31011910 000142
10231987175000168817800093673    000034149                    000341490000000000000109                     I0134149     31011900000000040003410000017N261218104700000000000103101190000000000000000000000000000000000000000100042447941749MARIA NEIDE DE OLIVEIRA SILVA           RUA PROSPERIDADE                        PILAR       25230080DUQUE DE CAIXASRJUNIAO UMB DOS CULTOS AFRO BRAS    31011910 000143
10231987175000168817800093673    000034148                    000341480000000000000109                     I0134148     31011900000000040003410000017N261218104700000000000103101190000000000000000000000000000000000000000100044845251787REGINA CELIA ALMEIDA BASTOS             RUA DERMEVAL LESSA                      PAVUNA      21532330RIO DE JANEIRO RJUNIAO UMB DOS CULTOS AFRO BRAS    31011910 000144
10231987175000168817800093673    000034147                    000341470000000000000109                     I0134147     31011900000000040003410000017N261218104700000000000103101190000000000000000000000000000000000000000100001095203789VITOR HUGO FERNANDES DE ABREU           RUA DOS DIAMANTES                       ROCHA MIRAND21510005RIO DE JANEIRO RJUNIAO UMB DOS CULTOS AFRO BRAS    31011910 000145
10231987175000168817800093673    000034146                    000341460000000000000109                     I0134146     31011900000000040003410000017N261218104700000000000103101190000000000000000000000000000000000000000100007782014735TEREZINHA MARIA DOS SANTOS FER          RUA UM                                  PARQUE PAULI25525260DUQUE DE CAXIASRJUNIAO UMB DOS CULTOS AFRO BRAS    31011910 000146
10231987175000168817800093673    000034145                    000341450000000000000109                     I0134145     31011900000000040003410000017N261218104700000000000103101190000000000000000000000000000000000000000100018780962572INALVA LAZARO DRUMOND                   AVENIDA MARECHAL RONDON                 RIACHUELO   20950071RIO DE JANEIRO RJUNIAO UMB DOS CULTOS AFRO BRAS    31011910 000147
10231987175000168817800093673    000034144                    000341440000000000000109                     I0134144     31011900000000040003410000017N261218104700000000000103101190000000000000000000000000000000000000000100001783778806MARIA LUIZA FERREIRA GODINHO C          ESTRADA DO BOIUNA                       TAQUARA - JA22723018RIO DE JANEIRO RJUNIAO UMB DOS CULTOS AFRO BRAS    31011910 000148
10231987175000168817800093673    000034143                    000341430000000000000109                     I0134143     31011900000000040003410000017N261218104700000000000103101190000000000000000000000000000000000000000100000911446710NELI MONTEIRO DE CASTRO                 RUA ROMILDO                             VAZ MARTINS 26290090RIO DE JANEIRO RJUNIAO UMB DOS CULTOS AFRO BRAS    31011910 000149
10231987175000168817800093673    000034142                    000341420000000000000109                     I0134142     31011900000000040003410000017N261218104700000000000103101190000000000000000000000000000000000000000100010058913700RAMON DO NASCIMENTO MANES               RUA LIGIA                               OLARIA      21073280RIO DE JANEIRO RJUNIAO UMB DOS CULTOS AFRO BRAS    31011910 000150
10231987175000168817800093673    000034141                    000341410000000000000109                     I0134141     31011900000000040003410000017N261218104700000000000103101190000000000000000000000000000000000000000100005137259705CRISTINA DE OLIVEIRA DA SILVA           AVENIDA CAMPO MOURAO                    JARDIM MARAV23031080GUARATIBA      RJUNIAO UMB DOS CULTOS AFRO BRAS    31011910 000151
10231987175000168817800093673    000034140                    000341400000000000000109                     I0134140     31011900000000040003410000017N261218104700000000000103101190000000000000000000000000000000000000000100055720277749MARIA DE FATIMA PEREIRA                 RUA CORONEL SEROA DA MOTA               SEPETIBA    23535040RIO DE JANEIRO RJUNIAO UMB DOS CULTOS AFRO BRAS    31011910 000152
10231987175000168817800093673    000034139                    000341390000000000000109                     I0134139     31011900000000040003410000017N261218104700000000000103101190000000000000000000000000000000000000000100097225959700MARCOS ANTONIO FERREIRA SOARES          RUA BERNARDO DE VASCONCELOS             REALENGO    21715250RIO DE JANEIRO RJUNIAO UMB DOS CULTOS AFRO BRAS    31011910 000153
10231987175000168817800093673    000034138                    000341380000000000000109                     I0134138     31011900000000040003410000017N261218104700000000000103101190000000000000000000000000000000000000000100079469825772VICTOR FRANCISCO PEREIRA NETO           RUA YZ                                  JARDIM ANHAN25000000DUQUE DE CAXIASRJUNIAO UMB DOS CULTOS AFRO BRAS    31011910 000154
10231987175000168817800093673    000034137                    000341370000000000000109                     I0134137     31011900000000040003410000017N261218104700000000000103101190000000000000000000000000000000000000000100054318335704JANE DA COSTA MATTOS                    RUA AMANDIU                             IRAJA       21371440RIO DE JANEIRO RJUNIAO UMB DOS CULTOS AFRO BRAS    31011910 000155
10231987175000168817800093673    000034136                    000341360000000000000109                     I0134136     31011900000000040003410000017N261218104700000000000103101190000000000000000000000000000000000000000100003248430702CRISTIANA ROSA DE OLIVEIRA              ESTRADA DA PORTEIRA                     JARDIM MAR  23821140ITAGUAI        RJUNIAO UMB DOS CULTOS AFRO BRAS    31011910 000156
10231987175000168817800093673    000034135                    000341350000000000000109                     I0134135     31011900000000040003410000017N261218104700000000000103101190000000000000000000000000000000000000000100007474273721CLARINDO DE MEDEIROS                    RUA SAO MARCOS                          VILAR DOS TE25561220SAO JOAO DE MERRJUNIAO UMB DOS CULTOS AFRO BRAS    31011910 000157
10231987175000168817800093673    000034134                    000341340000000000000109                     I0134134     31011900000000040003410000017N261218104700000000000103101190000000000000000000000000000000000000000100003386212700ANDRE LUIZ DINIZ CARDOSO                RUA CORDOVIL,                           PARADA DE LU21250450RIO DE JANEIRO RJUNIAO UMB DOS CULTOS AFRO BRAS    31011910 000158
10231987175000168817800093673    000034133                    000341330000000000000109                     I0134133     31011900000000040003410000017N261218104700000000000103101190000000000000000000000000000000000000000100022023461715SAULO EMMANUEL FERREIRA GUEDES          AVENIDA VICENTE DE CARVALHO             VICENTE DE C21210003RIO DE JANEIRO RJUNIAO UMB DOS CULTOS AFRO BRAS    31011910 000159
10231987175000168817800093673    000034132                    000341320000000000000109                     I0134132     31011900000000040003410000017N261218104700000000000103101190000000000000000000000000000000000000000100041216989753CARMEM VIANA DE JESUS                   RUA DAS TULIPAS                         CIDADE DOS M25235040DUQUE DE CAXIASRJUNIAO UMB DOS CULTOS AFRO BRAS    31011910 000160
10231987175000168817800093673    000034131                    000341310000000000000109                     I0134131     31011900000000040003410000017N261218104700000000000103101190000000000000000000000000000000000000000100087683431753MARINEIDE DOS SANTOS GUIMARAES          RUA ERNESTO CARDOSO                     CENTRO - CHA26521450NILOPOLIS      RJUNIAO UMB DOS CULTOS AFRO BRAS    31011910 000161
10231987175000168817800093673    000034130                    000341300000000000000109                     I0134130     31011900000000040003410000017N261218104700000000000103101190000000000000000000000000000000000000000100007446571721ANDREA GUEDES PINHEIRO GOMES            RUA CATARINA SANTANA                    CABUCU      26291245NILOPOLIS      RJUNIAO UMB DOS CULTOS AFRO BRAS    31011910 000162
10231987175000168817800093673    000034129                    000341290000000000000109                     I0134129     31011900000000040003410000017N261218104700000000000103101190000000000000000000000000000000000000000100000939896796SHIRLEI ARAUJO DO CARMO RODRIG          RUA PATIO DA ESTACAO                    COSTA BARROS21532170RIO DE JANEIRO RJUNIAO UMB DOS CULTOS AFRO BRAS    31011910 000163
10231987175000168817800093673    000034128                    000341280000000000000109                     I0134128     31011900000000040003410000017N261218104700000000000103101190000000000000000000000000000000000000000100059195711791ELOISA HELENA PEREIRA NUNES             RUA BOAIACA                             BENTO RIBEIR21331600RIO DE JANEIRO RJUNIAO UMB DOS CULTOS AFRO BRAS    31011910 000164
10231987175000168817800093673    000034127                    000341270000000000000109                     I0134127     31011900000000040003410000017N261218104700000000000103101190000000000000000000000000000000000000000100000203243757AMARILDO FLECHAS MAGALHAES BAT          RUA ALDEBARAM                           JARDIM SILVA26195370BELFORD ROXO   RJUNIAO UMB DOS CULTOS AFRO BRAS    31011910 000165
10231987175000168817800093673    000034126                    000341260000000000000109                     I0134126     31011900000000040003410000017N261218104700000000000103101190000000000000000000000000000000000000000100000675108764MARIA CRISTINA SANTOS GENEROSO          RUA APODI                               PARQUE  SUEC26187300BELFORD ROXO   RJUNIAO UMB DOS CULTOS AFRO BRAS    31011910 000166
10231987175000168817800093673    000034125                    000341250000000000000109                     I0134125     31011900000000040003410000017N261218104700000000000103101190000000000000000000000000000000000000000100004473869718ELIANA ABILIO PASTOR                    RUA: AMAPA                              JARDIM GRAMA25056110DUQUE DE CAXIASRJUNIAO UMB DOS CULTOS AFRO BRAS    31011910 000167
10231987175000168817800093673    000034124                    000341240000000000000109                     I0134124     31011900000000040003410000017N261218104700000000000103101190000000000000000000000000000000000000000100063538369704VERA LUCIA SOARES CONCEICAO DE          RUA CARALUNA                            GUARATIBA - 23032070RIO DE JANEIRO RJUNIAO UMB DOS CULTOS AFRO BRAS    31011910 000168
10231987175000168817800093673    000034123                    000341230000000000000109                     I0134123     31011900000000040003410000017N261218104700000000000103101190000000000000000000000000000000000000000100019302231704DARLI ROCHA DO PRADO FERREIRA           RUA MONJOLO                             ILHA DO GOVE21930376RIO DE JANEIRO RJUNIAO UMB DOS CULTOS AFRO BRAS    31011910 000169
10231987175000168817800093673    000034121                    000341210000000000000109                     I0134121     31011900000000040003410000017N261218104700000000000103101190000000000000000000000000000000000000000100063712954700SUELHIR MARIA LAURIANO DA SILV          RUA PINTOR LEANDRO JOAQUIM              FREGUESIA - 22770650RIO DE JANEIRO RJUNIAO UMB DOS CULTOS AFRO BRAS    31011910 000170
10231987175000168817800093673    000034120                    000341200000000000000109                     I0134120     31011900000000040003410000017N261218104700000000000103101190000000000000000000000000000000000000000100003408195706MONICA VALERIA COSTA BARAUNA            AVENDIA CARNAUBEIRA                     GUARATIBA   23032080RIO DE JANEIRO RJUNIAO UMB DOS CULTOS AFRO BRAS    31011910 000171
10231987175000168817800093673    000034119                    000341190000000000000109                     I0134119     31011900000000040003410000017N261218104700000000000103101190000000000000000000000000000000000000000100003667672756NIZIA DE OLIVEIRA GLORIA                RUA: MARQUES DE MARICA                  VILA LEOPOLD25030480DUQUE DE CAXIASRJUNIAO UMB DOS CULTOS AFRO BRAS    31011910 000172
10231987175000168817800093673    000034118                    000341180000000000000109                     I0134118     31011900000000040003410000017N261218104700000000000103101190000000000000000000000000000000000000000100053699394700UBIRAJARA PEREIRA FRANCO                AVENIDA BRASIL                          IRAJA       21230240RIO DE JANEIRO RJUNIAO UMB DOS CULTOS AFRO BRAS    31011910 000173
10231987175000168817800093673    000034117                    000341170000000000000109                     I0134117     31011900000000040003410000017N261218104700000000000103101190000000000000000000000000000000000000000100030011370700HELENA CAVALCANTE MARQUES               RUA DOUTOR PASSOS                       MADUREIRA   21310160RIO DE JANEIRO RJUNIAO UMB DOS CULTOS AFRO BRAS    31011910 000174
10231987175000168817800093673    000034116                    000341160000000000000109                     I0134116     31011900000000040003410000017N261218104700000000000103101190000000000000000000000000000000000000000100093431619720GUILHERME LUIZ BASILIO                  RUA SOUTO CARVALHO                      ENGENHO NOVO20950310RIO DE JANEIRO RJUNIAO UMB DOS CULTOS AFRO BRAS    31011910 000175
10231987175000168817800093673    000034115                    000341150000000000000109                     I0134115     31011900000000040003410000017N261218104700000000000103101190000000000000000000000000000000000000000100090021177791MARIA CRISTINA CHAGAS DE SOUZA          RUA DA GLORIA                           VILA LEOPOLD25060240DUQUE DE CAXIASRJUNIAO UMB DOS CULTOS AFRO BRAS    31011910 000176
10231987175000168817800093673    000034114                    000341140000000000000109                     I0134114     31011900000000040003410000017N261218104700000000000103101190000000000000000000000000000000000000000100028031342768ODILA RIBEIRO MARTINS                   RUA ITAPORE                             VILAR DOS TE25560490SAO JOAO DE MERRJUNIAO UMB DOS CULTOS AFRO BRAS    31011910 000177
10231987175000168817800093673    000034113                    000341130000000000000109                     I0134113     31011900000000040003410000017N261218104700000000000103101190000000000000000000000000000000000000000100075037017734ORLY PEREIRA DE AZEVEDO                 RUA BUTUCARAI                           CAMPOS ELISI00000000DUQUE DE CAXIASRJUNIAO UMB DOS CULTOS AFRO BRAS    31011910 000178
10231987175000168817800093673    000034111                    000341110000000000000109                     I0134111     31011900000000040003410000017N261218104700000000000103101190000000000000000000000000000000000000000100000000000000ELIZABETH GANTERT DA ROCHA GUI          RUA ADRIANA                             VAL VERDE - 26351140NOVA IGUACU    RJUNIAO UMB DOS CULTOS AFRO BRAS    31011910 000179
10231987175000168817800093673    000034110                    000341100000000000000109                     I0134110     31011900000000040003410000017N261218104700000000000103101190000000000000000000000000000000000000000100010078178797ALINE CORREA SOUZA                      AVENIDA PILAR DO SUL                    GUARATIBA   23033160RIO DE JANEIRO RJUNIAO UMB DOS CULTOS AFRO BRAS    31011910 000180
10231987175000168817800093673    000034109                    000341090000000000000109                     I0134109     31011900000000040003410000017N261218104700000000000103101190000000000000000000000000000000000000000100023596937787NOEMIA ARMINDA DE SEIXAS                RUA FRANCISCA ZIEZE                     PILARES     20750040RIO DE JANEIRO RJUNIAO UMB DOS CULTOS AFRO BRAS    31011910 000181
10231987175000168817800093673    000034108                    000341080000000000000109                     I0134108     31011900000000040003410000017N261218104700000000000103101190000000000000000000000000000000000000000100092650716720ANDRE LUIS ALMEIDA SOUZA                RUA CAIMIRIM                            SANTA TEREZI26555050BELFORD ROXO   RJUNIAO UMB DOS CULTOS AFRO BRAS    31011910 000182
10231987175000168817800093673    000034107                    000341070000000000000109                     I0134107     31011900000000040003410000017N261218104700000000000103101190000000000000000000000000000000000000000100044108680715MARIA DA PENHA PEREIRA DOS SAN          RUA LUCIO TAVARES                       CENTRO      26530060NILOPOLIS      RJUNIAO UMB DOS CULTOS AFRO BRAS    31011910 000183
10231987175000168817800093673    000034106                    000341060000000000000109                     I0134106     31011900000000040003410000017N261218104700000000000103101190000000000000000000000000000000000000000100073871729787RENATO GOMES SILVA                      RUA JURIPIRANGA                         COSMOS      23060020RIO DE JANEIRO RJUNIAO UMB DOS CULTOS AFRO BRAS    31011910 000184
10231987175000168817800093673    000034105                    000341050000000000000109                     I0134105     31011900000000040003410000017N261218104700000000000103101190000000000000000000000000000000000000000100083441271734NAELSON MAGALHAES DE AVELLAR            RUA ONZE                                GUANDU L    23560778SANTA CRUZ     RJUNIAO UMB DOS CULTOS AFRO BRAS    31011910 000185
10231987175000168817800093673    000034104                    000341040000000000000109                     I0134104     31011900000000040003410000017N261218104700000000000103101190000000000000000000000000000000000000000100010084300728RODRIGO ALVES DE PINHO                  RUA JOVITA FEITOSA                      VILA SAO JUD25243570DUQUE DE CAXIASRJUNIAO UMB DOS CULTOS AFRO BRAS    31011910 000186
10231987175000168817800093673    000034103                    000341030000000000000109                     I0134103     31011900000000040003410000017N261218104700000000000103101190000000000000000000000000000000000000000100005363118700VALDECI LIMA DA COSTA                   RUA CRATO                               PENHA CIRCUL21210420RIO DE JANEIRO RJUNIAO UMB DOS CULTOS AFRO BRAS    31011910 000187
10231987175000168817800093673    000034102                    000341020000000000000109                     I0134102     31011900000000040003410000017N261218104700000000000103101190000000000000000000000000000000000000000100060052830730PAULO CESAR BARRETO ALVES               RUA ANGELO DOS REIS                     TIJUCA      20531010RIO DE JANEIRO RJUNIAO UMB DOS CULTOS AFRO BRAS    31011910 000188
10231987175000168817800093673    000034101                    000341010000000000000109                     I0134101     31011900000000040003410000017N261218104700000000000103101190000000000000000000000000000000000000000100000615134742CONCEICAO DE SOUZA CAPITANO             RUA MECA                                SAO BENEDITO26022540NOVA IGUACU    RJUNIAO UMB DOS CULTOS AFRO BRAS    31011910 000189
10231987175000168817800093673    000034100                    000341000000000000000109                     I0134100     31011900000000040003410000017N261218104700000000000103101190000000000000000000000000000000000000000100000396925740SEBASTIAO PAULO PINHO VIEIRA            RUA HIDELGARDO DE NORONHA               ARNALDO EUGE23016180CAMPO GRANDE   RJUNIAO UMB DOS CULTOS AFRO BRAS    31011910 000190
10231987175000168817800093673    000034099                    000340990000000000000109                     I0134099     31011900000000040003410000017N261218104700000000000103101190000000000000000000000000000000000000000100000000000000MONALISA DE ALMEIDA CARVALHO            RUA NOSSA SENHORA DA PAZ                SANTA CECILI26130660BELFORD ROXO   RJUNIAO UMB DOS CULTOS AFRO BRAS    31011910 000191
10231987175000168817800093673    000034098                    000340980000000000000109                     I0134098     31011900000000040003410000017N261218104700000000000103101190000000000000000000000000000000000000000100001192135750CREUZA MARIA DA CONCEICAO               RUA BENEDITO LACERDA                    VILA CORCUND23071340CAMPO GRANDE   RJUNIAO UMB DOS CULTOS AFRO BRAS    31011910 000192
10231987175000168817800093673    000034097                    000340970000000000000109                     I0134097     31011900000000040003410000017N261218104700000000000103101190000000000000000000000000000000000000000100003601205718MARIA APARECIDA FERREIRA                RUA NOE MOREIRA DE NOBREGA              PARQUE RESID26032640NOVA IGUACU    RJUNIAO UMB DOS CULTOS AFRO BRAS    31011910 000193
10231987175000168817800093673    000034096                    000340960000000000000109                     I0134096     31011900000000040003410000017N261218104700000000000103101190000000000000000000000000000000000000000100000000000000DENIRCE SOUZA ANDRE                     AVENIDA PASTOR MARTIN LUTHER KING JUNIORTOMAS COELHO20761121RIO DE JANEIRO RJUNIAO UMB DOS CULTOS AFRO BRAS    31011910 000194
10231987175000168817800093673    000034095                    000340950000000000000109                     I0134095     31011900000000040003410000017N261218104700000000000103101190000000000000000000000000000000000000000100000000000340VERA LUCIA BARBOSA DA CUNHA             RUA PORTO RICO                          VIGARIO GERA21241200RIO DE JANEIRO RJUNIAO UMB DOS CULTOS AFRO BRAS    31011910 000195
10231987175000168817800093673    000034094                    000340940000000000000109                     I0134094     31011900000000040003410000017N261218104700000000000103101190000000000000000000000000000000000000000100002344767703ROSINETE FERREIRA CAMARGO               RUA ARAGO                               JACAREPAGUA 22733130RIO DE JANEIRO RJUNIAO UMB DOS CULTOS AFRO BRAS    31011910 000196
10231987175000168817800093673    000034093                    000340930000000000000109                     I0134093     31011900000000040003410000017N261218104700000000000103101190000000000000000000000000000000000000000100000000000000JUCELIO MONTINHO MAIA                   RUA OLIMPIO DA MOTA                     IRAJA       21235510RIO DE JANEIRO RJUNIAO UMB DOS CULTOS AFRO BRAS    31011910 000197
10231987175000168817800093673    000034092                    000340920000000000000109                     I0134092     31011900000000040003410000017N261218104700000000000103101190000000000000000000000000000000000000000100053057457720MARIA CHRISTINA MARINS ROSA             RUA ARAGO                               TANQUE - JAC22733130RIO DE JANEIRO RJUNIAO UMB DOS CULTOS AFRO BRAS    31011910 000198
10231987175000168817800093673    000034091                    000340910000000000000109                     I0134091     31011900000000040003410000017N261218104700000000000103101190000000000000000000000000000000000000000100079192653715TERESINHA DE JESUS DOS SANTOS           AVENIDA SYLVIO MOUTINHO                 GUARATIBA   23028180RIO DE JANEIRO RJUNIAO UMB DOS CULTOS AFRO BRAS    31011910 000199
10231987175000168817800093673    000034090                    000340900000000000000109                     I0134090     31011900000000040003410000017N261218104700000000000103101190000000000000000000000000000000000000000100022175534880LUCIANO THOMAZ DE ROSA                  RUA FRANCISCO JOSE DA SILVA             SUZANO - JAR08695060SAO PAULO      SPUNIAO UMB DOS CULTOS AFRO BRAS    31011910 000200
10231987175000168817800093673    000034089                    000340890000000000000109                     I0134089     31011900000000040003410000017N261218104700000000000103101190000000000000000000000000000000000000000100033413525700ALBERICE SILVA OLIVEIRA                 RUA DIAS DA CRUZ                        MEIER       20720012RIO DE JANEIRO RJUNIAO UMB DOS CULTOS AFRO BRAS    31011910 000201
10231987175000168817800093673    000034088                    000340880000000000000109                     I0134088     31011900000000040003410000017N261218104700000000000103101190000000000000000000000000000000000000000100044608268791FAUSTO DOS SANTOS REZENDE               RUA CARUNA                              PARADA DE LU21010070RIO DE JANEIRO RJUNIAO UMB DOS CULTOS AFRO BRAS    31011910 000202
10231987175000168817800093673    000034087                    000340870000000000000109                     I0134087     31011900000000040003410000017N261218104700000000000103101190000000000000000000000000000000000000000100092269516753HELENA MARIA DA SILVA                   RUA VINTE E QUATRO DE OUTUBRO           BARRO BRANCO25267450DUQUE DE CAXIASRJUNIAO UMB DOS CULTOS AFRO BRAS    31011910 000203
10231987175000168817800093673    000034086                    000340860000000000000109                     I0134086     31011900000000040003410000017N261218104700000000000103101190000000000000000000000000000000000000000100053516176768ROBERTO DE ALMEIDA DA CRUZ              AVENIDA AUTOMOVEL CLUB                  BARRO BRANCO25267135DUQUE DE CAXIASRJUNIAO UMB DOS CULTOS AFRO BRAS    31011910 000204
10231987175000168817800093673    000034085                    000340850000000000000109                     I0134085     31011900000000040003410000017N261218104700000000000103101190000000000000000000000000000000000000000100009443831732RAFAEL LUIZ SOARES FERREIRA             RUA COMANDANTE COELHO                   CORDOVIL    21250510RIO DE JANEIRO RJUNIAO UMB DOS CULTOS AFRO BRAS    31011910 000205
10231987175000168817800093673    000034084                    000340840000000000000109                     I0134084     31011900000000040003410000017N261218104700000000000103101190000000000000000000000000000000000000000100043917208768HOSANA FERREIRA DE MOURA                RUA HOMERIO PINTO CAPUTU                JARDIM PROGR22020011RIO DE JANEIRO RJUNIAO UMB DOS CULTOS AFRO BRAS    31011910 000206
10231987175000168817800093673    000034083                    000340830000000000000109                     I0134083     31011900000000040003410000017N261218104700000000000103101190000000000000000000000000000000000000000100088676889791JANE LUCIA LESSA SILVA                  RUA OLIVEIRA JUNQUEIRA                  BENTO RIBEIR21331170RIO DE JANEIRO RJUNIAO UMB DOS CULTOS AFRO BRAS    31011910 000207
10231987175000168817800093673    000034082                    000340820000000000000109                     I0134082     31011900000000040003410000017N261218104700000000000103101190000000000000000000000000000000000000000100070421609753DERIVALDA DE JESUS MOREIRA              AVENIDA OSWALDO CRUZ                    CENTRO      26530100NILOPOLIS      RJUNIAO UMB DOS CULTOS AFRO BRAS    31011910 000208
10231987175000168817800093673    000034081                    000340810000000000000109                     I0134081     31011900000000040003410000017N261218104700000000000103101190000000000000000000000000000000000000000100007544975770WILLIAMS COSTA SOARES                   RUA LEILA                               COMENDADOR S26261150NOVA IGUACU    RJUNIAO UMB DOS CULTOS AFRO BRAS    31011910 000209
10231987175000168817800093673    000034080                    000340800000000000000109                     I0134080     31011900000000040003410000017N261218104700000000000103101190000000000000000000000000000000000000000100003666096700MARIA DOS SANTOS MACHADO                RUA JOAO RAIMUNDO                       VILA SANTO A25041400DUQUE DE CAXIASRJUNIAO UMB DOS CULTOS AFRO BRAS    31011910 000210
10231987175000168817800093673    000034079                    000340790000000000000109                     I0134079     31011900000000040003410000017N261218104700000000000103101190000000000000000000000000000000000000000100069876207768JUREMA DIONISIO RODRIGUES               RUA CARLOS OLIMPIO DE MELLO             PACIENCIA   23585160RIO DE JANEIRO RJUNIAO UMB DOS CULTOS AFRO BRAS    31011910 000211
10231987175000168817800093673    000034078                    000340780000000000000109                     I0134078     31011900000000040003410000017N261218104700000000000103101190000000000000000000000000000000000000000100001859792707REGIS GOMES DE OLIVEIRA                 AVENIDA DO CANAL                        ALBUQUERQUE 25976560TERESOPOLIS    RJUNIAO UMB DOS CULTOS AFRO BRAS    31011910 000212
10231987175000168817800093673    000034077                    000340770000000000000109                     I0134077     31011900000000040003410000017N261218104700000000000103101190000000000000000000000000000000000000000100012001167717JOSEILTON DA SILVA MOREIRA              RUA IBIRARUNA                           VILA SANTA C25240482DUQUE DE CAXIASRJUNIAO UMB DOS CULTOS AFRO BRAS    31011910 000213
10231987175000168817800093673    000034076                    000340760000000000000109                     I0134076     31011900000000040003410000017N261218104700000000000103101190000000000000000000000000000000000000000100001037627792FRANCE BATISTA CRESPO                   RUA CAPITAO MACHADO                     PRACA SECA  20740230RIO DE JANEIRO RJUNIAO UMB DOS CULTOS AFRO BRAS    31011910 000214
10231987175000168817800093673    000034075                    000340750000000000000109                     I0134075     31011900000000040003410000017N261218104700000000000103101190000000000000000000000000000000000000000100000000934798CELSO LINS ROSA (OGAN)                  RUA ACENICO                             PARQUE ALIAN00000000RIO DE JANEIRO RJUNIAO UMB DOS CULTOS AFRO BRAS    31011910 000215
10231987175000168817800093673    000034074                    000340740000000000000109                     I0134074     31011900000000040003410000017N261218104700000000000103101190000000000000000000000000000000000000000100002878076737TANIA NACARI AIRES GALVAO               ESTRADA DO DENDE                        DENDE - ILHA21920000RIO DE JANEIRO RJUNIAO UMB DOS CULTOS AFRO BRAS    31011910 000216
10231987175000168817800093673    000034073                    000340730000000000000109                     I0134073     31011900000000040003410000017N261218104700000000000103101190000000000000000000000000000000000000000100001050327780MARIA LUCIA DE FATIMA FERREIRA          RUA BUDAPESTE                           BANCARIOS - 21911300RIO DE JANEIRO RJUNIAO UMB DOS CULTOS AFRO BRAS    31011910 000217
10231987175000168817800093673    000034072                    000340720000000000000109                     I0134072     31011900000000040003410000017N261218104700000000000103101190000000000000000000000000000000000000000100004765875733BEATRIZ GOMES DEMIRSKY                  AVENIDA MERITI                          VILA DA PENH21220201RIO DE JANEIRO RJUNIAO UMB DOS CULTOS AFRO BRAS    31011910 000218
10231987175000168817800093673    000034071                    000340710000000000000109                     I0134071     31011900000000040003410000017N261218104700000000000103101190000000000000000000000000000000000000000100003200716851CYNTHIA RITA HERTEL                     RUA FRIBURGO                            SAMBAETIBA  24842220ITABORAI       RJUNIAO UMB DOS CULTOS AFRO BRAS    31011910 000219
10231987175000168817800093673    000034070                    000340700000000000000109                     I0134070     31011900000000040003410000017N261218104700000000000103101190000000000000000000000000000000000000000100012354907770BARBARA CRISTINA DE OLIVEIRA B          RUA PROFESSOR PLINIO OLINTO             BANGU       21860160RIO DE JANEIRO RJUNIAO UMB DOS CULTOS AFRO BRAS    31011910 000220
10231987175000168817800093673    000034069                    000340690000000000000109                     I0134069     31011900000000040003410000017N261218104700000000000103101190000000000000000000000000000000000000000100000000000490LUCI DA CUNHA ARTUR                     AVENIDA FRANCISCO CHRISOSTOMOS TORRES   PINTO DA SER27286440VOLTA REDONDA  RJUNIAO UMB DOS CULTOS AFRO BRAS    31011910 000221
10231987175000168817800093673    000034068                    000340680000000000000109                     I0134068     31011900000000040003410000017N261218104700000000000103101190000000000000000000000000000000000000000100009611659792ALUIZIO RODRIGUES RIBEIRO               RUA GARCIA PIRES                        QUINTINO    21311300RIO DE JANEIRO RJUNIAO UMB DOS CULTOS AFRO BRAS    31011910 000222
10231987175000168817800093673    000034067                    000340670000000000000109                     I0134067     31011900000000040003410000017N261218104700000000000103101190000000000000000000000000000000000000000100058924477749MARIA DAS GRACAS AZEVEDO RIBEI          RUA VICENTE LIMA                        VILAR DOS TE25560240SAO JOAO DE MERRJUNIAO UMB DOS CULTOS AFRO BRAS    31011910 000223
10231987175000168817800093673    000034066                    000340660000000000000109                     I0134066     31011900000000040003410000017N261218104700000000000103101190000000000000000000000000000000000000000100070891036768EDNA FERREIRA DE MELO                   RUA 49                                  SEPETIBA    21611000RIO DE JANEIRO RJUNIAO UMB DOS CULTOS AFRO BRAS    31011910 000224
10231987175000168817800093673    000034065                    000340650000000000000109                     I0134065     31011900000000040003410000017N261218104700000000000103101190000000000000000000000000000000000000000100081667795791RENATO JOSE DE ARAUJO VAZ CURA          RUA CRISTOVAO COLOMBO                   MEIER       00000000RIO DE JANEIRO RJUNIAO UMB DOS CULTOS AFRO BRAS    31011910 000225
10231987175000168817800093673    000034064                    000340640000000000000109                     I0134064     31011900000000040003410000017N261218104700000000000103101190000000000000000000000000000000000000000100000462841766RONALDO SANTOS DE SOUZA                 RUA: PINHEIRO                           VILA CORINGA27321420BARRA MANSA    RJUNIAO UMB DOS CULTOS AFRO BRAS    31011910 000226
10231987175000168817800093673    000034063                    000340630000000000000109                     I0134063     31011900000000040003410000017N261218104700000000000103101190000000000000000000000000000000000000000100036820210787JOSE ROBERTO SOARES COSTA               ESTRADA DO CARIBU                       FREGUESIA   22765010RIO DE JANEIRO RJUNIAO UMB DOS CULTOS AFRO BRAS    31011910 000227
10231987175000168817800093673    000034062                    000340620000000000000109                     I0134062     31011900000000040003410000017N261218104700000000000103101190000000000000000000000000000000000000000100062822900744FATIMA LUCRECIA DE CARVALHO CA          ESTRADA RIO DO PAU                      ANCHIETA    21645520RIO DE JANEIRO RJUNIAO UMB DOS CULTOS AFRO BRAS    31011910 000228
10231987175000168817800093673    000034061                    000340610000000000000109                     I0134061     31011900000000040003410000017N261218104700000000000103101190000000000000000000000000000000000000000100007812001725FLAVIA DA ROSA SANTANA                  RUA PEDRO TELES                         CENTRO      25515030SAO JOAO DE MERRJUNIAO UMB DOS CULTOS AFRO BRAS    31011910 000229
10231987175000168817800093673    000034060                    000340600000000000000109                     I0134060     31011900000000040003410000017N261218104700000000000103101190000000000000000000000000000000000000000100006993931753MARCOS ANTONIO AYROZA DE OLIVE          RUA ALTO PARNAIBA                       ARNALDO EUGE23015210CAMPO GRANDE   RJUNIAO UMB DOS CULTOS AFRO BRAS    31011910 000230
10231987175000168817800093673    000034059                    000340590000000000000109                     I0134059     31011900000000040003410000017N261218104700000000000103101190000000000000000000000000000000000000000100003125944708ROGERIO GOMES DA SILVA                  RUA DOUTOR BERNARDINO GOMES             BANCARIOS - 21910130RIO DE JANEIRO RJUNIAO UMB DOS CULTOS AFRO BRAS    31011910 000231
10231987175000168817800093673    000034058                    000340580000000000000109                     I0134058     31011900000000040003410000017N261218104700000000000103101190000000000000000000000000000000000000000100066334012720ROBERTO LUIZ POMBO DA SILVA             RUA BERNADINO RIBEIRO                   COSTA BARROS20250000RIO DE JANEIRO RJUNIAO UMB DOS CULTOS AFRO BRAS    31011910 000232
10231987175000168817800093673    000034057                    000340570000000000000109                     I0134057     31011900000000040003410000017N261218104700000000000103101190000000000000000000000000000000000000000100002541954743DENISE DIAS DE OLIVEIRA                 RUA BERNARDINO DE CAMPOS                OLAVO BILAC 25035530DUQUE DE CAXIASRJUNIAO UMB DOS CULTOS AFRO BRAS    31011910 000233
10231987175000168817800093673    000034056                    000340560000000000000109                     I0134056     31011900000000040003410000017N261218104700000000000103101190000000000000000000000000000000000000000100004252372739BARBARA CRISTINA BATISTA DOS S          RUA JAVA                                BOM JESUS   26352090NOVA IGUACU    RJUNIAO UMB DOS CULTOS AFRO BRAS    31011910 000234
10231987175000168817800093673    000034054                    000340540000000000000109                     I0134054     31011900000000040003410000017N261218104700000000000103101190000000000000000000000000000000000000000100000000000000MARIA FERNANDA NUNES FORTUNATO          RUA RICARDO CAMPELO                     CAMARAO     24436790SAO GONCALO    RJUNIAO UMB DOS CULTOS AFRO BRAS    31011910 000235
10231987175000168817800093673    000034053                    000340530000000000000109                     I0134053     31011900000000040003410000017N261218104700000000000103101190000000000000000000000000000000000000000100088407721700CELSO DE OLIVEIRA ALBUQUERQUE           RUA ANHANGUERA                          SAO BERNARDO26160660BELFORD ROXO   RJUNIAO UMB DOS CULTOS AFRO BRAS    31011910 000236
10231987175000168817800093673    000034052                    000340520000000000000109                     I0134052     31011900000000040003410000017N261218104700000000000103101190000000000000000000000000000000000000000100001559752777CLAUDIA DA SILVA FERREIRA ANTO          ESTRADA DA PENA                         COSMOS      23060720RIO DE JANEIRO RJUNIAO UMB DOS CULTOS AFRO BRAS    31011910 000237
10231987175000168817800093673    000034051                    000340510000000000000109                     I0134051     31011900000000040003410000017N261218104700000000000103101190000000000000000000000000000000000000000100003792312762MARCIA REGINA DE SOUZA DA SILV          AVENIDA ALHAMBRA                        BEL CRIMA   23045805CAMPO GRANDE   RJUNIAO UMB DOS CULTOS AFRO BRAS    31011910 000238
10231987175000168817800093673    000034050                    000340500000000000000109                     I0134050     31011900000000040003410000017N261218104700000000000103101190000000000000000000000000000000000000000100052421422787ACIOLY DUARTE DIAS                      RUA DOUTOR WALMIR                       ANDRADE ARAU26012840NOVA IGUACU    RJUNIAO UMB DOS CULTOS AFRO BRAS    31011910 000239
10231987175000168817800093673    000034049                    000340490000000000000109                     I0134049     31011900000000040003410000017N261218104700000000000103101190000000000000000000000000000000000000000100002065913738ROBSON DE FARIA TORRES                  RUA CAPITAO AROLDO LEITAO               OLARIA      21071050RIO DE JANEIRO RJUNIAO UMB DOS CULTOS AFRO BRAS    31011910 000240
10231987175000168817800093673    000034048                    000340480000000000000109                     I0134048     31011900000000040003410000017N261218104700000000000103101190000000000000000000000000000000000000000100018338577715MARILDA ALVES DE ALMEIDA                RUA BORBOREMA                           MADUREIRA   21360150RIO DE JANEIRO RJUNIAO UMB DOS CULTOS AFRO BRAS    31011910 000241
10231987175000168817800093673    000034047                    000340470000000000000109                     I0134047     31011900000000040003410000017N261218104700000000000103101190000000000000000000000000000000000000000100049170872791SONIA REGINA BARBOSA CAVATO             AVENIDA SCHULTZ WENK                    CORDOVIL    22711270RIO DE JANEIRO RJUNIAO UMB DOS CULTOS AFRO BRAS    31011910 000242
10231987175000168817800093673    000034046                    000340460000000000000109                     I0134046     31011900000000040003410000017N261218104700000000000103101190000000000000000000000000000000000000000100058486496772CELIA DOMINGOS DA SILVA                 RUA JANETE                              BANCO DE ARE26275020MESQUITA       RJUNIAO UMB DOS CULTOS AFRO BRAS    31011910 000243
10231987175000168817800093673    000034045                    000340450000000000000109                     I0134045     31011900000000040003410000017N261218104700000000000103101190000000000000000000000000000000000000000100008763637707JUSSARA SILVA DE ALBUQUERQUE            RUA ARGOS                               GUADALUPE   21660050RIO DE JANEIRO RJUNIAO UMB DOS CULTOS AFRO BRAS    31011910 000244
10231987175000168817800093673    000034043                    000340430000000000000109                     I0134043     31011900000000040003410000017N261218104700000000000103101190000000000000000000000000000000000000000100003341741738CASSIA GOMES CASTORINO                  RUA COMENDADOR CRISOSTEMO CRUZ          SANTA MARIA 26165400BELFORD ROXO   RJUNIAO UMB DOS CULTOS AFRO BRAS    31011910 000245
10231987175000168817800093673    000034042                    000340420000000000000109                     I0134042     31011900000000040003410000017N261218104700000000000103101190000000000000000000000000000000000000000100058234110730FRANCISCA ARAUJO VASCONCELOS            RUA DAS CAMELIAS                        PRADO VERDE 26051470RIO DE JANEIRO RJUNIAO UMB DOS CULTOS AFRO BRAS    31011910 000246
10231987175000168817800093673    000034041                    000340410000000000000109                     I0134041     31011900000000040003410000017N261218104700000000000103101190000000000000000000000000000000000000000100082940983704JURACIARA DA CONCEICAO                  RUA ASSIS VASCONCELOS                   PILARES     20755010RIO DE JANEIRO RJUNIAO UMB DOS CULTOS AFRO BRAS    31011910 000247
10231987175000168817800093673    000034040                    000340400000000000000109                     I0134040     31011900000000040003410000017N261218104700000000000103101190000000000000000000000000000000000000000100066391482772VERA LUCIA BARBOSA FERREIRA             RUA JOAO VICENTE                        MARECHAL HER21610210RIO DE JANEIRO RJUNIAO UMB DOS CULTOS AFRO BRAS    31011910 000248
10231987175000168817800093673    000034039                    000340390000000000000109                     I0134039     31011900000000040003410000017N261218104700000000000103101190000000000000000000000000000000000000000100002547438704JORGE EDUARDO CAVALCANTI REIS           RUA ROSA DA FONSECA                     MANGUINHOS  21041240RIO DE JANEIRO RJUNIAO UMB DOS CULTOS AFRO BRAS    31011910 000249
