01REMESSA01COBRANCA       817800093673        União Umb dos Cultos Afro Bra341BANCO ITAU SA  070219                                                                                                                                                                                                                                                                                                      000001
10231987175000168817800093673    000039744                    000397440000000000000109                     I0139744     20021900000000040003410000017N070219104700000000000102002190000000000000000000000000000000000000000100004275325745MAIKE OLIVEIRA DA COSTA                 TRAVESSA MARTA DA ROCHA N 57,           ABOLICAO    20755030RIO DE JANEIRO RJUNIAO UMB DOS CULTOS AFRO BRAS    20021910 000002
10231987175000168817800093673    000039743                    000397430000000000000109                     I0139743     28021900000000500003410000017N060219104700000000000102802190000000000000000000000000000000000000000100005789297676RICARDO SALVIO PEREIRA                  RUA CINCON 0, LOTE 13                   RESERVA DO P28921620CABO FRIO      RJUNIAO UMB DOS CULTOS AFRO BRAS    28021910 000003
10231987175000168817800093673    000037520                    000375200000000000000109                     I0237520     30031900000000040003410000017N261218104700000000000103003190000000000000000000000000000000000000000100002340783755VERA LUCIA MARQUES DOS SANTOS           RUA MORANGABAN 29,                      GUADALUPE   21665140RIO DE JANEIRO RJUNIAO UMB DOS CULTOS AFRO BRAS    30031910 000004
10231987175000168817800093673    000035608                    000356080000000000000109                     I0235608     28021900000000040003410000017N261218104700000000000102802190000000000000000000000000000000000000000100002340783755VERA LUCIA MARQUES DOS SANTOS           RUA MORANGABAN 29,                      GUADALUPE   21665140RIO DE JANEIRO RJUNIAO UMB DOS CULTOS AFRO BRAS    28021910 000005
10231987175000168817800093673    000035343                    000353430000000000000109                     I0235343     31011900000000040003410000017N261218104700000000000103101190000000000000000000000000000000000000000100004275325745MAIKE OLIVEIRA DA COSTA                 TRAVESSA MARTA DA ROCHA N 57,           ABOLICAO    20755030RIO DE JANEIRO RJUNIAO UMB DOS CULTOS AFRO BRAS    31011910 000006
10231987175000168817800093673    000035097                    000350970000000000000109                     I0235097     31011900000000040003410000017N261218104700000000000103101190000000000000000000000000000000000000000100081531095704ROSANA ALMEIDA SILVA                    RUA JOAQUIM MARIANO DE MOURA N 246,     PONTO CHIC  26032840NOVA IGUACU    RJUNIAO UMB DOS CULTOS AFRO BRAS    31011910 000007
10231987175000168817800093673    000034740                    000347400000000000000109                     I0234740     31011900000000040003410000017N261218104700000000000103101190000000000000000000000000000000000000000100047585978715HARILDO FRANCISCO DOS SANTOS            RUA: JOSE PINTO DE MACEDO - TRAVESSA TODPRAINHA     28930000ARRAIAL DO CABORJUNIAO UMB DOS CULTOS AFRO BRAS    31011910 000008
10231987175000168817800093673    000033708                    000337080000000000000109                     I0233708     31011900000000040003410000017N261218104700000000000103101190000000000000000000000000000000000000000100002340783755VERA LUCIA MARQUES DOS SANTOS           RUA MORANGABAN 29,                      GUADALUPE   21665140RIO DE JANEIRO RJUNIAO UMB DOS CULTOS AFRO BRAS    31011910 000009
10231987175000168817800093673    000032712                    000327120000000000000109                     I0232712     20121800000000350003410000017N291018104700000000000102012180000000000000000000000000000000000000000100081531095704ROSANA ALMEIDA SILVA                    RUA JOAQUIM MARIANO DE MOURA N 246,     PONTO CHIC  26032840NOVA IGUACU    RJUNIAO UMB DOS CULTOS AFRO BRAS    20121810 000010
10231987175000168817800093673    000032179                    000321790000000000000109                     I0232179     20121800000000350003410000017N291018104700000000000102012180000000000000000000000000000000000000000100047585978715HARILDO FRANCISCO DOS SANTOS            RUA: JOSE PINTO DE MACEDO - TRAVESSA TODPRAINHA     28930000ARRAIAL DO CABORJUNIAO UMB DOS CULTOS AFRO BRAS    20121810 000011
10231987175000168817800093673    000030529                    000305290000000000000109                     I0230529     20121800000000350003410000017N291018104700000000000102012180000000000000000000000000000000000000000100002340783755VERA LUCIA MARQUES DOS SANTOS           RUA MORANGABAN 29,                      GUADALUPE   21665140RIO DE JANEIRO RJUNIAO UMB DOS CULTOS AFRO BRAS    20121810 000012
9                                                                                                                                                                                                                                                                                                                                                                                                         000013
