01REMESSA01COBRANCA       817800093673        União Umb dos Cultos Afro Bra341BANCO ITAU SA  250219                                                                                                                                                                                                                                                                                                      000001
10231987175000168817800093673    000038359                    000383590000000000000109                     I0238359     30031900000000040003410000017N261218104700000000000103003190000000000000000000000000000000000000000100067514090363ANTONIO MARTINS CHAVES                  RUA: REGINA REISN 339, CASA             QUINTINO BOC20740060RIO DE JANEIRO RJUNIAO UMB DOS CULTOS AFRO BRAS    30031910 000002
10231987175000168817800093673    000037811                    000378110000000000000109                     I0237811     30031900000000040003410000017N261218104700000000000103003190000000000000000000000000000000000000000100007986909765LUIZA RODRIGUES DE SOUZA                ESTRADA: URUCANIA, TRAVESSA MARIAN 8,   DRENO       23570290SANTA CRUZ     RJUNIAO UMB DOS CULTOS AFRO BRAS    30031910 000003
10231987175000168817800093673    000037382                    000373820000000000000109                     I0237382     28021900000000040003410000017N261218104700000000000102802190000000000000000000000000000000000000000100008350095725LUIZ LUCIANO ADAO                       RUA ALAGOASN 226, FUNDOS                SANTA CRUZ D25255070DUQUE DE CAXIASRJUNIAO UMB DOS CULTOS AFRO BRAS    28021910 000004
10231987175000168817800093673    000036540                    000365400000000000000109                     I0236540     28021900000000040003410000017N261218104700000000000102802190000000000000000000000000000000000000000100048357480772MARIA DE FATIMA FRANCO DE LIMA          RUA DONA CORINA N 285,                  PIABETA     25935718MAGE           RJUNIAO UMB DOS CULTOS AFRO BRAS    28021910 000005
10231987175000168817800093673    000036444                    000364440000000000000109                     I0236444     28021900000000040003410000017N261218104700000000000102802190000000000000000000000000000000000000000100000241089794MARA LUCIA CANDIDO RAMOS                RUA: NOSSA SENHORA DA PENHAN 0, CASA 7 BMANGUEIRAL -21755140RIO DE JANEIRO RJUNIAO UMB DOS CULTOS AFRO BRAS    28021910 000006
10231987175000168817800093673    000036442                    000364420000000000000109                     I0236442     28021900000000040003410000017N261218104700000000000102802190000000000000000000000000000000000000000100067514090363ANTONIO MARTINS CHAVES                  RUA: REGINA REISN 339, CASA             QUINTINO BOC20740060RIO DE JANEIRO RJUNIAO UMB DOS CULTOS AFRO BRAS    28021910 000007
10231987175000168817800093673    000035897                    000358970000000000000109                     I0235897     28021900000000040003410000017N261218104700000000000102802190000000000000000000000000000000000000000100007986909765LUIZA RODRIGUES DE SOUZA                ESTRADA: URUCANIA, TRAVESSA MARIAN 8,   DRENO       23570290SANTA CRUZ     RJUNIAO UMB DOS CULTOS AFRO BRAS    28021910 000008
10231987175000168817800093673    000035599                    000355990000000000000109                     I0235599     28021900000000040003410000017N261218104700000000000102802190000000000000000000000000000000000000000100045935742772SANDRA ANDRADE DE ARAUJO                AV. MINISTRO EDGARD ROMERON 679, VILA EMVAZ LOBO    21360202RIO DE JANEIRO RJUNIAO UMB DOS CULTOS AFRO BRAS    28021910 000009
10231987175000168817800093673    000034726                    000347260000000000000109                     I0234726     31011900000000040003410000017N261218104700000000000103101190000000000000000000000000000000000000000100008389266733BEATRIZ DE AZEVEDO NUNES                RUA: ABACAIN 55, CASA 5 FUNDOS          OSVALDO CRUZ21340380RIO DE JANEIRO RJUNIAO UMB DOS CULTOS AFRO BRAS    31011910 000010
10231987175000168817800093673    000034631                    000346310000000000000109                     I0234631     31011900000000040003410000017N261218104700000000000103101190000000000000000000000000000000000000000100048357480772MARIA DE FATIMA FRANCO DE LIMA          RUA DONA CORINA N 285,                  PIABETA     25935718MAGE           RJUNIAO UMB DOS CULTOS AFRO BRAS    31011910 000011
10231987175000168817800093673    000034535                    000345350000000000000109                     I0234535     31011900000000040003410000017N261218104700000000000103101190000000000000000000000000000000000000000100000241089794MARA LUCIA CANDIDO RAMOS                RUA: NOSSA SENHORA DA PENHAN 0, CASA 7 BMANGUEIRAL -21755140RIO DE JANEIRO RJUNIAO UMB DOS CULTOS AFRO BRAS    31011910 000012
10231987175000168817800093673    000034533                    000345330000000000000109                     I0234533     31011900000000040003410000017N261218104700000000000103101190000000000000000000000000000000000000000100067514090363ANTONIO MARTINS CHAVES                  RUA: REGINA REISN 339, CASA             QUINTINO BOC20740060RIO DE JANEIRO RJUNIAO UMB DOS CULTOS AFRO BRAS    31011910 000013
10231987175000168817800093673    000034506                    000345060000000000000109                     I0234506     31011900000000040003410000017N261218104700000000000103101190000000000000000000000000000000000000000100040337065772UILMA VIEIRA TEIXEIRA                   RUA: ITUN 0,  LOTE 3 QUADRA 22          JARDIM GRAMA25060350DUQUE DE CAXIASRJUNIAO UMB DOS CULTOS AFRO BRAS    31011910 000014
10231987175000168817800093673    000033993                    000339930000000000000109                     I0233993     31011900000000040003410000017N261218104700000000000103101190000000000000000000000000000000000000000100007986909765LUIZA RODRIGUES DE SOUZA                ESTRADA: URUCANIA, TRAVESSA MARIAN 8,   DRENO       23570290SANTA CRUZ     RJUNIAO UMB DOS CULTOS AFRO BRAS    31011910 000015
10231987175000168817800093673    000033699                    000336990000000000000109                     I0233699     31011900000000040003410000017N261218104700000000000103101190000000000000000000000000000000000000000100045935742772SANDRA ANDRADE DE ARAUJO                AV. MINISTRO EDGARD ROMERON 679, VILA EMVAZ LOBO    21360202RIO DE JANEIRO RJUNIAO UMB DOS CULTOS AFRO BRAS    31011910 000016
9                                                                                                                                                                                                                                                                                                                                                                                                         000017
