01REMESSA01COBRANCA       916200163100        União Umb dos Cultos Afro Bra341BANCO ITAU SA  010719                                                                                                                                                                                                                                                                                                      000001
10231987175000168916200163100    000049853                    000498530000000000000109                     I0149853     30071900000000080003410000017N010719105700000000000263007190000000000000000000000000000000000000000100050246534753TANIA MARIA DA SILVA OLIVEIRA           TRAVESSA MARAJON 1002,                  LINDO PARQUE24420100SAO GONCALO    RJUNIAO UMB DOS CULTOS AFRO BRAS    30071915 000002
21300720190000000000160                                                                                                                                                                                                                                                                                                                                                                                   000003
10231987175000168916200163100    000049852                    000498520000000000000109                     I0149852     05071900000000040003410000017N010719105700000000000130507190000000000000000000000000000000000000000100041294270753DENISE ROCHA ROSA                       ESTRADA MUNICIPAL ANTONIO ALEM BERGARAN CAPELA (RIO 25916070MAGE           RJUNIAO UMB DOS CULTOS AFRO BRAS    05071915 000004
21050720190000000000080                                                                                                                                                                                                                                                                                                                                                                                   000005
10231987175000168916200163100    000049851                    000498510000000000000109                     I0149851     05071900000000080003410000017N010719105700000000000260507190000000000000000000000000000000000000000100096270500753REINALDO MONTEIRO                       RUA PEREIRA DE FIGUEIREDON 588, APT 201 OSWALDO CRUZ21341030RIO DE JANEIRO RJUNIAO UMB DOS CULTOS AFRO BRAS    05071915 000006
21050720190000000000160                                                                                                                                                                                                                                                                                                                                                                                   000007
10231987175000168916200163100    000049850                    000498500000000000000109                     I0149850     05071900000000030003410000017N010719105700000000000100507190000000000000000000000000000000000000000100010243718756ALESSANDRA JESUS DE OLIVEIRA L          RUA ANTONIO JOAQUIM DA SILVAN 49,       PARQUE BARRE25581140SAO JOAO DE MERRJUNIAO UMB DOS CULTOS AFRO BRAS    05071915 000008
21050720190000000000060                                                                                                                                                                                                                                                                                                                                                                                   000009
10231987175000168916200163100    000049849                    000498490000000000000109                     I0149849     19071900000000400003410000017N010719105700000000001321907190000000000000000000000000000000000000000100066069840763VANDA LUCIA DE ASSIS                    AVENIDA OLIVEIRA BELON 1073, CASA 1 FUNDVILA DA PENH21221300RIO DE JANEIRO RJUNIAO UMB DOS CULTOS AFRO BRAS    19071915 000010
21190720190000000000800                                                                                                                                                                                                                                                                                                                                                                                   000011
10231987175000168916200163100    000049848                    000498480000000000000109                     I0149848     30091900000000040003410000017N010719105700000000000133009190000000000000000000000000000000000000000100004461406784ROBERTO ADER MIRANDA VIANA              RUA SAO LUISN 0, LOTE 7 QUADRA B CASA 1 SANTO ANTONI25235150DUQUE DE CAXIASRJUNIAO UMB DOS CULTOS AFRO BRAS    30091915 000012
21300920190000000000080                                                                                                                                                                                                                                                                                                                                                                                   000013
10231987175000168916200163100    000049847                    000498470000000000000109                     I0149847     30081900000000040003410000017N010719105700000000000133008190000000000000000000000000000000000000000100004461406784ROBERTO ADER MIRANDA VIANA              RUA SAO LUISN 0, LOTE 7 QUADRA B CASA 1 SANTO ANTONI25235150DUQUE DE CAXIASRJUNIAO UMB DOS CULTOS AFRO BRAS    30081915 000014
21300820190000000000080                                                                                                                                                                                                                                                                                                                                                                                   000015
10231987175000168916200163100    000049846                    000498460000000000000109                     I0149846     30071900000000040003410000017N010719105700000000000133007190000000000000000000000000000000000000000100004461406784ROBERTO ADER MIRANDA VIANA              RUA SAO LUISN 0, LOTE 7 QUADRA B CASA 1 SANTO ANTONI25235150DUQUE DE CAXIASRJUNIAO UMB DOS CULTOS AFRO BRAS    30071915 000016
21300720190000000000080                                                                                                                                                                                                                                                                                                                                                                                   000017
10231987175000168916200163100    000049845                    000498450000000000000109                     I0149845     10071900000000160003410000017N010719105700000000000531007190000000000000000000000000000000000000000100023768649768SONIA MARIA DA SILVA DELLIVENE          AVENIDA PLINIO GOMES DE MATOS FILHON 278VARZEA DAS M24330430NITEROI        RJUNIAO UMB DOS CULTOS AFRO BRAS    10071915 000018
21100720190000000000320                                                                                                                                                                                                                                                                                                                                                                                   000019
10231987175000168916200163100    000049844                    000498440000000000000109                     I0149844     10071900000000350003410000017N010719105700000000001161007190000000000000000000000000000000000000000100064250121704ANGELA MARIA BRAZ MANHAES               RUA JUTAIN 0,  LOTE 20 QUADRA 151       PERIQUITO   25025290DUQUE DE CAXIASRJUNIAO UMB DOS CULTOS AFRO BRAS    10071915 000020
21100720190000000000700                                                                                                                                                                                                                                                                                                                                                                                   000021
10231987175000168916200163100    000049843                    000498430000000000000109                     I0149843     30091900000000040003410000017N010719105700000000000133009190000000000000000000000000000000000000000100004293125710CRISTIANE ALVES                         ALAMEDA PEDRO DE ALCANTARAN 205,        SAO VICENTE 26172103BELFORD ROXO   RJUNIAO UMB DOS CULTOS AFRO BRAS    30091915 000022
21300920190000000000080                                                                                                                                                                                                                                                                                                                                                                                   000023
10231987175000168916200163100    000049842                    000498420000000000000109                     I0149842     30081900000000040003410000017N010719105700000000000133008190000000000000000000000000000000000000000100004293125710CRISTIANE ALVES                         ALAMEDA PEDRO DE ALCANTARAN 205,        SAO VICENTE 26172103BELFORD ROXO   RJUNIAO UMB DOS CULTOS AFRO BRAS    30081915 000024
21300820190000000000080                                                                                                                                                                                                                                                                                                                                                                                   000025
10231987175000168916200163100    000049841                    000498410000000000000109                     I0149841     30071900000000040003410000017N010719105700000000000133007190000000000000000000000000000000000000000100004293125710CRISTIANE ALVES                         ALAMEDA PEDRO DE ALCANTARAN 205,        SAO VICENTE 26172103BELFORD ROXO   RJUNIAO UMB DOS CULTOS AFRO BRAS    30071915 000026
21300720190000000000080                                                                                                                                                                                                                                                                                                                                                                                   000027
10231987175000168916200163100    000045313                    000453130000000000000109                     I0245313     30061900000000030003410000017N270519105700000000000103006190000000000000000000000000000000000000000100010243718756ALESSANDRA JESUS DE OLIVEIRA L          RUA ANTONIO JOAQUIM DA SILVAN 49,       PARQUE BARRE25581140SAO JOAO DE MERRJUNIAO UMB DOS CULTOS AFRO BRAS    30061915 000028
21300620190000000000060                                                                                                                                                                                                                                                                                                                                                                                   000029
10231987175000168916200163100    000043821                    000438210000000000000109                     I0243821     30061900000000040003410000017N130319105700000000000133006190000000000000000000000000000000000000000100096270500753REINALDO MONTEIRO                       RUA PEREIRA DE FIGUEIREDON 588, APT 201 OSWALDO CRUZ21341030RIO DE JANEIRO RJUNIAO UMB DOS CULTOS AFRO BRAS    30061915 000030
21300620190000000000080                                                                                                                                                                                                                                                                                                                                                                                   000031
10231987175000168916200163100    000042176                    000421760000000000000109                     I0242176     30051900000000040003410000017N130319105700000000000133005190000000000000000000000000000000000000000100096270500753REINALDO MONTEIRO                       RUA PEREIRA DE FIGUEIREDON 588, APT 201 OSWALDO CRUZ21341030RIO DE JANEIRO RJUNIAO UMB DOS CULTOS AFRO BRAS    30051915 000032
21300520190000000000080                                                                                                                                                                                                                                                                                                                                                                                   000033
9                                                                                                                                                                                                                                                                                                                                                                                                         000034
