01REMESSA01COBRANCA       817800093673        União Umb dos Cultos Afro Bra341BANCO ITAU SA  020819                                                                                                                                                                                                                                                                                                      000001
10231987175000168817800093673    000050478                    000504780000000000000109                     I0150478     10091900000000050003410000017N020819105700000000000171009190000000000000000000000000000000000000000100067383165772MAURO DOS SANTOS SILVA                  RUA GUAIBAN 326,                        BRAS DE PINA21215070RIO DE JANEIRO RJUNIAO UMB DOS CULTOS AFRO BRAS    10091915 000002
21100920190000000000100                                                                                                                                                                                                                                                                                                                                                                                   000003
9                                                                                                                                                                                                                                                                                                                                                                                                         000004
