01REMESSA01COBRANCA       916200163100        União Umb dos Cultos Afro Bra341BANCO ITAU SA  040118                                                                                                                                                                                                                                                                                                      000001
10231987175000168916200163100    00001751                     000017510000000000000109                     I021751      31121700000000035003410000017N131117050900000000000103112170000000000000000000000000000000000000000100051328054772BALBINA MARIA DE JESUS DEOLIND          RUA DA FELICIDADE, 26                   BANGU - RIO 21862465RIO DE JANEIRO RJUNIAO UMB DOS CULTOS AFRO BRAS    31121710 000002
9                                                                                                                                                                                                                                                                                                                                                                                                         000003
