01REMESSA01COBRANCA       817800093673        União Umb dos Cultos Afro Bra341BANCO ITAU SA  231118                                                                                                                                                                                                                                                                                                      000001
10231987175000168817800093673    000033467                    000334670000000000000109                     I0133467     30111800000000035003410000017N231118104700000000000103011180000000000000000000000000000000000000000100009057240700ILAN FERNANDES BRAZILEIRO               RUA NICARAGUA                           PARQUE HOTEL28970000ARARUAMA       RJUNIAO UMB DOS CULTOS AFRO BRAS    30111810 000002
9                                                                                                                                                                                                                                                                                                                                                                                                         000003
