01REMESSA01COBRANCA       916200163100        União Umb dos Cultos Afro Bra341BANCO ITAU SA  180219                                                                                                                                                                                                                                                                                                      000001
10231987175000168916200163100    000039803                    000398030000000000000109                     I0139803     28021900000000500003410000017N180219104700000000000102802190000000000000000000000000000000000000000100069893810787MARIA ALICE VENTURA                     AVENIDA DOS EX-COMBATENTESN 0, BLOCO 380SANTA CRUZ  27288110VOLTA REDONDA  RJUNIAO UMB DOS CULTOS AFRO BRAS    28021910 000002
9                                                                                                                                                                                                                                                                                                                                                                                                         000003
