01REMESSA01COBRANCA       817800093673        União Umb dos Cultos Afro Bra341BANCO ITAU SA  060819                                                                                                                                                                                                                                                                                                      000001
10231987175000168817800093673    000053996                    000539960000000000000109                     I0153996     30091900000000040003410000017N060819105700000000000133009190000000000000000000000000000000000000000100010199848726ANA CLEIDE DOS SANTOS MARTINS           ESTRADA DO CAMPINHON 6891, BL 13 APT 103PACIENCIA   23066107RIO DE JANEIRO RJUNIAO UMB DOS CULTOS AFRO BRAS    30091915 000002
21300920190000000000080                                                                                                                                                                                                                                                                                                                                                                                   000003
10231987175000168817800093673    000053092                    000530920000000000000109                     I0253092     30081900000000250003410000017N020819105700000000000833008190000000000000000000000000000000000000000100008528931757LUCIMARA DA CONCEICAO CORTES            RUA PROFESSOR CHARLEY LACHMUNDN 360, FUNGUARATIBA   23032570RIO DE JANEIRO RJUNIAO UMB DOS CULTOS AFRO BRAS    30081915 000004
21300820190000000000500                                                                                                                                                                                                                                                                                                                                                                                   000005
10231987175000168817800093673    000048740                    000487400000000000000109                     I0248740     30091900000000040003410000017N100619105700000000000133009190000000000000000000000000000000000000000100000692299700JORGE LUIZ LIMA BASTOS                  RUA PLANALTINAN 71,                     REALENGO    21760160RIO DE JANEIRO RJUNIAO UMB DOS CULTOS AFRO BRAS    30091915 000006
21300920190000000000080                                                                                                                                                                                                                                                                                                                                                                                   000007
10231987175000168817800093673    000048504                    000485040000000000000109                     I0248504     30091900000000040003410000017N100619105700000000000133009190000000000000000000000000000000000000000100083441271734NAELSON MAGALHAES DE AVELLAR            RUA ONZEN 0,  LOTE 1 CASA 1 - GUANDU I  SANTA CRUZ  23560868RIO DE JANEIRO RJUNIAO UMB DOS CULTOS AFRO BRAS    30091915 000008
21300920190000000000080                                                                                                                                                                                                                                                                                                                                                                                   000009
10231987175000168817800093673    000047301                    000473010000000000000109                     I0247301     30081900000000040003410000017N100619105700000000000133008190000000000000000000000000000000000000000100000692299700JORGE LUIZ LIMA BASTOS                  RUA PLANALTINAN 71,                     REALENGO    21760160RIO DE JANEIRO RJUNIAO UMB DOS CULTOS AFRO BRAS    30081915 000010
21300820190000000000080                                                                                                                                                                                                                                                                                                                                                                                   000011
10231987175000168817800093673    000047067                    000470670000000000000109                     I0247067     30081900000000040003410000017N100619105700000000000133008190000000000000000000000000000000000000000100083441271734NAELSON MAGALHAES DE AVELLAR            RUA ONZEN 0,  LOTE 1 CASA 1 - GUANDU I  SANTA CRUZ  23560868RIO DE JANEIRO RJUNIAO UMB DOS CULTOS AFRO BRAS    30081915 000012
21300820190000000000080                                                                                                                                                                                                                                                                                                                                                                                   000013
10231987175000168817800093673    000046426                    000464260000000000000109                     I0246426     30071900000000040003410000017N100619105700000000000133007190000000000000000000000000000000000000000100053211839704ALCIONE SOUZA DOS SANTOS                RUA MARINO FELIXN 26,                   SEPETIBA    23535006RIO DE JANEIRO RJUNIAO UMB DOS CULTOS AFRO BRAS    30071915 000014
21300720190000000000080                                                                                                                                                                                                                                                                                                                                                                                   000015
10231987175000168817800093673    000045875                    000458750000000000000109                     I0245875     30071900000000040003410000017N100619105700000000000133007190000000000000000000000000000000000000000100000692299700JORGE LUIZ LIMA BASTOS                  RUA PLANALTINAN 71,                     REALENGO    21760160RIO DE JANEIRO RJUNIAO UMB DOS CULTOS AFRO BRAS    30071915 000016
21300720190000000000080                                                                                                                                                                                                                                                                                                                                                                                   000017
10231987175000168817800093673    000045645                    000456450000000000000109                     I0245645     30071900000000040003410000017N100619105700000000000133007190000000000000000000000000000000000000000100083441271734NAELSON MAGALHAES DE AVELLAR            RUA ONZEN 0,  LOTE 1 CASA 1 - GUANDU I  SANTA CRUZ  23560868RIO DE JANEIRO RJUNIAO UMB DOS CULTOS AFRO BRAS    30071915 000018
21300720190000000000080                                                                                                                                                                                                                                                                                                                                                                                   000019
9                                                                                                                                                                                                                                                                                                                                                                                                         000020
