01REMESSA01COBRANCA       916200163100        União Umb dos Cultos Afro Bra341BANCO ITAU SA  281218                                                                                                                                                                                                                                                                                                      000001
10231987175000168916200163100    000039432                    000394320000000000000109                     I0139432     05011900000000035003410000017N281218104700000000000100501190000000000000000000000000000000000000000100002558274740RITA DE CASSIA BRITO DE SOUZA           RUA HOMERO PINTO CAPUTO                 BANGU       21863080RIO DE JANEIRO RJUNIAO UMB DOS CULTOS AFRO BRAS    05011910 000002
10231987175000168916200163100    000039431                    000394310000000000000109                     I0139431     07011900000000035003410000017N281218104700000000000100701190000000000000000000000000000000000000000100039056481720ZUILA DE MELO E SILVA COVA              RUA TAMOIOS                             SAO FRANCISC24360380NITEROI        RJUNIAO UMB DOS CULTOS AFRO BRAS    07011910 000003
10231987175000168916200163100    000039430                    000394300000000000000109                     I0139430     31121800000000035003410000017N281218104700000000000103112180000000000000000000000000000000000000000100057231737749ELIZABETE CARVALHO COSTA                RUA EXPEDICIONARIO SIMAO FERNANDES      COLUMBANDE  24451700SAO GONCALO    RJUNIAO UMB DOS CULTOS AFRO BRAS    31121810 000004
10231987175000168916200163100    000039429                    000394290000000000000109                     I0239429     31121800000000040003410000017N281218104700000000000103112180000000000000000000000000000000000000000100057231737749ELIZABETE CARVALHO COSTA                RUA EXPEDICIONARIO SIMAO FERNANDES      COLUMBANDE  24451700SAO GONCALO    RJUNIAO UMB DOS CULTOS AFRO BRAS    31121810 000005
10231987175000168916200163100    000039428                    000394280000000000000109                     I0139428     30011900000000700003410000017N281218104700000000000103001190000000000000000000000000000000000000000100002097498736JANE TANY                               RUA ESPIRITO SANTO                      COREIA      26556340MESQUITA       RJUNIAO UMB DOS CULTOS AFRO BRAS    30011910 000006
10231987175000168916200163100    000039427                    000394270000000000000109                     I0139427     30031900000000040003410000017N281218104700000000000103003190000000000000000000000000000000000000000100008990276799VIVIANE DE AGUIAR DINIZ                 RUA QUIRIRIM                            VILA VALQUEI21330658RIO DE JANEIRO RJUNIAO UMB DOS CULTOS AFRO BRAS    30031910 000007
10231987175000168916200163100    000039426                    000394260000000000000109                     I0139426     28021900000000040003410000017N281218104700000000000102802190000000000000000000000000000000000000000100008990276799VIVIANE DE AGUIAR DINIZ                 RUA QUIRIRIM                            VILA VALQUEI21330658RIO DE JANEIRO RJUNIAO UMB DOS CULTOS AFRO BRAS    28021910 000008
10231987175000168916200163100    000039425                    000394250000000000000109                     I0139425     02011900000000070003410000017N281218104700000000000100201190000000000000000000000000000000000000000100085148610778JACQUELINE MARQUES BARBOSA              RUA, 63                                 JD ATLANTICO00000000RIO DE JANEIRO RJUNIAO UMB DOS CULTOS AFRO BRAS    02011910 000009
10231987175000168916200163100    000039424                    000394240000000000000109                     I0139424     10011900000000280003410000017N281218104700000000000101001190000000000000000000000000000000000000000100097512770782DULCINEIA CAPUTE                        AVENIDA ITAGUAI                         ENGENHO     23820306ITAGUAI        RJUNIAO UMB DOS CULTOS AFRO BRAS    10011910 000010
10231987175000168916200163100    000039423                    000394230000000000000109                     I0139423     04011900000000035003410000017N281218104700000000000100401190000000000000000000000000000000000000000100037109294749ELIETE DE OLIVEIRA FONSECA              ESTRADA DO MAGARCA                      GUARATIBA   23035380RIO DE JANEIRO RJUNIAO UMB DOS CULTOS AFRO BRAS    04011910 000011
10231987175000168916200163100    000039422                    000394220000000000000109                     I0139422     31121800000000040003410000017N281218104700000000000103112180000000000000000000000000000000000000000100008379116720ALLAN SOUZA PEREIRA FERREIRA            BECO DOS SONHOS                         SANTA CRUZ  23591400RIO DE JANEIRO RJUNIAO UMB DOS CULTOS AFRO BRAS    31121810 000012
9                                                                                                                                                                                                                                                                                                                                                                                                         000013
