01REMESSA01COBRANCA       817800093673        União Umb dos Cultos Afro Bra341BANCO ITAU SA  110518                                                                                                                                                                                                                                                                                                      000001
10231987175000168817800093673    000013254                    000132540000000000000109                     I3413254     30051800000000035003410000017N200218104700000000000103005180000000000000000000000000000000000000000100070175225753LEDA FERREIRA FIGUEIREDO                O MESMO                                 O MESMO     21331420RIO DE JANEIRO RJUNIAO UMB DOS CULTOS AFRO BRAS    30051810 000002
10231987175000168817800093673    000013081                    000130810000000000000109                     I0213081     30051800000000035003410000017N200218104700000000000103005180000000000000000000000000000000000000000100036213373772DULCINEIA RODRIGUES FEITAL              RUA CARNAUBAIS, 15                      SENADOR VASC23012380RIO DE JANEIRO RJUNIAO UMB DOS CULTOS AFRO BRAS    30051810 000003
10231987175000168817800093673    000012985                    000129850000000000000109                     I3412985     30051800000000035003410000017N200218104700000000000103005180000000000000000000000000000000000000000100060856467715JANAINA COELHO MELO                     O MESMO                                 O MESMO     21361420RIO DE JANEIRO RJUNIAO UMB DOS CULTOS AFRO BRAS    30051810 000004
10231987175000168817800093673    000012664                    000126640000000000000109                     I3412664     30051800000000035003410000017N200218104700000000000103005180000000000000000000000000000000000000000100008763637707JUSSARA SILVA DE ALBUQUERQUE            RUA: ARGOS Nº 281 FUNDOS - GUADALUPE   RIO DE JANEI21660050RIO DE JANEIRO RJUNIAO UMB DOS CULTOS AFRO BRAS    30051810 000005
10231987175000168817800093673    000012554                    000125540000000000000109                     I3412554     30051800000000035003410000017N200218104700000000000103005180000000000000000000000000000000000000000100054101778787ROSARIA MARIA DAS CHAGAS DA SI          RUA DA AERONAUTICA, 61                  SENADOR CAMA21831410RIO DE JANEIRO RJUNIAO UMB DOS CULTOS AFRO BRAS    30051810 000006
10231987175000168817800093673    000012013                    000120130000000000000109                     I0212013     30041800000000035003410000017N200218104700000000000103004180000000000000000000000000000000000000000100000446671754JUSSARA MATHIAS TEIXEIRA                RUA VEREADOR OSVALDO MARCONDES N 106    JOSE BONIFAC25515380SAO JOAO DE MERRJUNIAO UMB DOS CULTOS AFRO BRAS    30041810 000007
10231987175000168817800093673    000011954                    000119540000000000000109                     I0211954     30041800000000035003410000017N200218104700000000000103004180000000000000000000000000000000000000000100081531095704ROSANA ALMEIDA SILVA                    RUA JOAQUIM MARIANO DE MOURA N 246      PONTO CHIC -26032840NOVA IGUACU    RJUNIAO UMB DOS CULTOS AFRO BRAS    30041810 000008
10231987175000168817800093673    000011901                    000119010000000000000109                     I3411901     30041800000000035003410000017N200218104700000000000103004180000000000000000000000000000000000000000100003360087755ELIENE GONCALVES JACINTO                TRAVESSA DAS FLORES, 20                 PARQUE LAFAI25010695DUQUE DE CAXIASRJUNIAO UMB DOS CULTOS AFRO BRAS    30041810 000009
10231987175000168817800093673    000011883                    000118830000000000000109                     I3411883     30041800000000035003410000017N200218104700000000000103004180000000000000000000000000000000000000000100013565688742CAIO CESAR DUARTE DE SOUZA              RUA CALUMBI, 300 APT 305                IRAJA - RIO 21361260RIO DE JANEIRO RJUNIAO UMB DOS CULTOS AFRO BRAS    30041810 000010
10231987175000168817800093673    000011472                    000114720000000000000109                     I0211472     30041800000000035003410000017N200218104700000000000103004180000000000000000000000000000000000000000100036213373772DULCINEIA RODRIGUES FEITAL              RUA CARNAUBAIS, 15                      SENADOR VASC23012380RIO DE JANEIRO RJUNIAO UMB DOS CULTOS AFRO BRAS    30041810 000011
10231987175000168817800093673    000011287                    000112870000000000000109                     I0211287     30041800000000035003410000017N200218104700000000000103004180000000000000000000000000000000000000000100057316600772ESTELA FERREIRA                         AVENIDA BORIS, 321                      MUTONDO  - S24422730SAO GONCALO    RJUNIAO UMB DOS CULTOS AFRO BRAS    30041810 000012
10231987175000168817800093673    000010945                    000109450000000000000109                     I3410945     30041800000000035003410000017N200218104700000000000103004180000000000000000000000000000000000000000100054101778787ROSARIA MARIA DAS CHAGAS DA SI          RUA DA AERONAUTICA, 61                  SENADOR CAMA21831410RIO DE JANEIRO RJUNIAO UMB DOS CULTOS AFRO BRAS    30041810 000013
10231987175000168817800093673    000010843                    000108430000000000000109                     I0210843     30041800000000035003410000017N200218104700000000000103004180000000000000000000000000000000000000000200000000006480VERA LUCIA DA CRUZ NEVES                O MESMO                                 O MESMO     23017210RIO DE JANEIRO RJUNIAO UMB DOS CULTOS AFRO BRAS    30041810 000014
10231987175000168817800093673    000010793                    000107930000000000000109                     I3410793     30041800000000035003410000017N200218104700000000000103004180000000000000000000000000000000000000000100001322424780NELY MELIANO DOS SANTOS                 RUA JABOATAO, 50 QUADRA A               VILA ROSARIO25041020DUQUE DE CAXIASRJUNIAO UMB DOS CULTOS AFRO BRAS    30041810 000015
10231987175000168817800093673    000010745                    000107450000000000000109                     I0210745     30041800000000035003410000017N200218104700000000000103004180000000000000000000000000000000000000000200000000006073ARACI AMELIA DA SILVA RIBEIRO           RUA ALIPIO GOMES DOS SANTOS, 493        JARDIM AMERI27340230BARRA DO PIRAI RJUNIAO UMB DOS CULTOS AFRO BRAS    30041810 000016
10231987175000168817800093673    000010404                    000104040000000000000109                     I0210404     30031800000000035003410000017N200218104700000000000103003180000000000000000000000000000000000000000100000446671754JUSSARA MATHIAS TEIXEIRA                RUA VEREADOR OSVALDO MARCONDES N 106    JOSE BONIFAC25515380SAO JOAO DE MERRJUNIAO UMB DOS CULTOS AFRO BRAS    30031810 000017
10231987175000168817800093673    000010345                    000103450000000000000109                     I0210345     30031800000000035003410000017N200218104700000000000103003180000000000000000000000000000000000000000100081531095704ROSANA ALMEIDA SILVA                    RUA JOAQUIM MARIANO DE MOURA N 246      PONTO CHIC -26032840NOVA IGUACU    RJUNIAO UMB DOS CULTOS AFRO BRAS    30031810 000018
10231987175000168817800093673    00009863                     000098630000000000000109                     I029863      30031800000000035003410000017N200218104700000000000103003180000000000000000000000000000000000000000100036213373772DULCINEIA RODRIGUES FEITAL              RUA CARNAUBAIS, 15                      SENADOR VASC23012380RIO DE JANEIRO RJUNIAO UMB DOS CULTOS AFRO BRAS    30031810 000019
10231987175000168817800093673    00009801                     000098010000000000000109                     I029801      30031800000000035003410000017N200218104700000000000103003180000000000000000000000000000000000000000100021973989700NILZA ARAGUEZ                           RUA PAJURA, 117 BLOCO 2 APTO 106        TAQUARA - RI22740210RIO DE JANEIRO RJUNIAO UMB DOS CULTOS AFRO BRAS    30031810 000020
10231987175000168817800093673    00009336                     000093360000000000000109                     I349336      30031800000000035003410000017N200218104700000000000103003180000000000000000000000000000000000000000100054101778787ROSARIA MARIA DAS CHAGAS DA SI          RUA DA AERONAUTICA, 61                  SENADOR CAMA21831410RIO DE JANEIRO RJUNIAO UMB DOS CULTOS AFRO BRAS    30031810 000021
10231987175000168817800093673    00009234                     000092340000000000000109                     I029234      30031800000000035003410000017N200218104700000000000103003180000000000000000000000000000000000000000200000000006480VERA LUCIA DA CRUZ NEVES                O MESMO                                 O MESMO     23017210RIO DE JANEIRO RJUNIAO UMB DOS CULTOS AFRO BRAS    30031810 000022
10231987175000168817800093673    00009184                     000091840000000000000109                     I349184      30031800000000035003410000017N200218104700000000000103003180000000000000000000000000000000000000000100001322424780NELY MELIANO DOS SANTOS                 RUA JABOATAO, 50 QUADRA A               VILA ROSARIO25041020DUQUE DE CAXIASRJUNIAO UMB DOS CULTOS AFRO BRAS    30031810 000023
10231987175000168817800093673    00009136                     000091360000000000000109                     I349136      30031800000000035003410000017N200218104700000000000103003180000000000000000000000000000000000000000200000000006073ARACI AMELIA DA SILVA RIBEIRO           RUA ALIPIO GOMES DOS SANTOS, 493        JARDIM AMERI27340230BARRA DO PIRAI RJUNIAO UMB DOS CULTOS AFRO BRAS    30031810 000024
10231987175000168817800093673    00008371                     000083710000000000000109                     I028371      28021800000000035003410000017N291217104700000000000102802180000000000000000000000000000000000000000100000446671754JUSSARA MATHIAS TEIXEIRA                RUA VEREADOR OSVALDO MARCONDES N 106    JOSE BONIFAC25515380SAO JOAO DE MERRJUNIAO UMB DOS CULTOS AFRO BRAS    28021810 000025
10231987175000168817800093673    00008355                     000083550000000000000109                     I348355      28021800000000035003410000017N291217104700000000000102802180000000000000000000000000000000000000000100081531095704ROSANA ALMEIDA SILVA                    RUA JOAQUIM MARIANO DE MOURA N 246      PONTO CHIC -26032840NOVA IGUACU    RJUNIAO UMB DOS CULTOS AFRO BRAS    28021810 000026
10231987175000168817800093673    00008340                     000083400000000000000109                     I028340      28021800000000035003410000017N291217104700000000000102802180000000000000000000000000000000000000000100047657383704JAIR LOURENCO DE LIMA                   O MESMO                                 O MESMO     25640340PETROPOLIS     RJUNIAO UMB DOS CULTOS AFRO BRAS    28021810 000027
10231987175000168817800093673    00006442                     000064420000000000000109                     I346442      28021800000000035003410000017N271217104700000000000102802180000000000000000000000000000000000000000100000681004770ESPEDITA NUNES DA SILVA                 AVENIDA CASTELO BRANCO, LOTE 3 QUADRA 83PAQ.ELDORADO25243570DUQUE DE CAXIASRJUNIAO UMB DOS CULTOS AFRO BRAS    28021810 000028
10231987175000168817800093673    00006167                     000061670000000000000109                     I026167      28021800000000035003410000017N271217104700000000000102802180000000000000000000000000000000000000000200000000006480VERA LUCIA DA CRUZ NEVES                O MESMO                                 O MESMO     23017210RIO DE JANEIRO RJUNIAO UMB DOS CULTOS AFRO BRAS    28021810 000029
10231987175000168817800093673    00006133                     000061330000000000000109                     I346133      28021800000000035003410000017N271217104700000000000102802180000000000000000000000000000000000000000100001322424780NELY MELIANO DOS SANTOS                 RUA JABOATAO, 50 QUADRA A               VILA ROSARIO25041020DUQUE DE CAXIASRJUNIAO UMB DOS CULTOS AFRO BRAS    28021810 000030
10231987175000168817800093673    00005192                     000051920000000000000109                     I025192      31011800000000035003410000017N261217104700000000000103101180000000000000000000000000000000000000000100000681004770ESPEDITA NUNES DA SILVA                 AVENIDA CASTELO BRANCO, LOTE 3 QUADRA 83PAQ.ELDORADO25243570DUQUE DE CAXIASRJUNIAO UMB DOS CULTOS AFRO BRAS    31011810 000031
10231987175000168817800093673    00004917                     000049170000000000000109                     I024917      31011800000000035003410000017N261217104700000000000103101180000000000000000000000000000000000000000200000000006480VERA LUCIA DA CRUZ NEVES                O MESMO                                 O MESMO     23017210RIO DE JANEIRO RJUNIAO UMB DOS CULTOS AFRO BRAS    31011810 000032
10231987175000168817800093673    00004883                     000048830000000000000109                     I344883      31011800000000035003410000017N261217104700000000000103101180000000000000000000000000000000000000000100001322424780NELY MELIANO DOS SANTOS                 RUA JABOATAO, 50 QUADRA A               VILA ROSARIO25041020DUQUE DE CAXIASRJUNIAO UMB DOS CULTOS AFRO BRAS    31011810 000033
9                                                                                                                                                                                                                                                                                                                                                                                                         000034
