01REMESSA01COBRANCA       817800093673        União Umb dos Cultos Afro Bra341BANCO ITAU SA  210818                                                                                                                                                                                                                                                                                                      000001
10231987175000168817800093673    000026508                    000265080000000000000109                     I0126508     30091800000000035003410000017N200818104700000000000103009180000000000000000000000000000000000000000100063164256787ALICE FRANCISCO LOPES                   RUA JORNALISTA PINHEIRO LEMOS, 296      COSTA BARROS21650200RIO DE JANEIRO RJUNIAO UMB DOS CULTOS AFRO BRAS    30091810 000002
10231987175000168817800093673    000026507                    000265070000000000000109                     I0126507     30091800000000035003410000017N200818104700000000000103009180000000000000000000000000000000000000000100002533273775GLAUCE MAGALHAES JARDELINO              RUA JABORANDI, 171 FUNDOS               VILA COSMO -21220220RIO DE JANEIRO RJUNIAO UMB DOS CULTOS AFRO BRAS    30091810 000003
10231987175000168817800093673    000026506                    000265060000000000000109                     I0126506     30091800000000035003410000017N200818104700000000000103009180000000000000000000000000000000000000000100094443211772SANDRA LEILA ANACLETO SIQUEIRA          RUA RAUL VEIGA, 315                     QUITANDINHA 25635110PETROPOLIS     RJUNIAO UMB DOS CULTOS AFRO BRAS    30091810 000004
10231987175000168817800093673    000026505                    000265050000000000000109                     I0126505     30091800000000035003410000017N200818104700000000000103009180000000000000000000000000000000000000000100048366030725SILVIA REGINA DE SOUZA CASTILH          RUA SOLDADO FILISBINO DOS SANTOS, 278   PALMARES - P23066000RIO DE JANEIRO RJUNIAO UMB DOS CULTOS AFRO BRAS    30091810 000005
10231987175000168817800093673    000026504                    000265040000000000000109                     I0126504     30091800000000040003410000017N200818104700000000000103009180000000000000000000000000000000000000000100000000011739MARIA FERNANDA ALVES DA SILVA           RUA: COMANDANTE MAGALHAES DE ALMEIDA    MARECHAL HER21210260RIO DE JANEIRO RJUNIAO UMB DOS CULTOS AFRO BRAS    30091810 000006
10231987175000168817800093673    000026503                    000265030000000000000109                     I0126503     30091800000000035003410000017N200818104700000000000103009180000000000000000000000000000000000000000100005241615776SIMONE ALICE CACCAVO GRIBEL             RUA VENEZA                              PRAIA DE MAU25900000MAGE           RJUNIAO UMB DOS CULTOS AFRO BRAS    30091810 000007
10231987175000168817800093673    000026502                    000265020000000000000109                     I0126502     30091800000000035003410000017N200818104700000000000103009180000000000000000000000000000000000000000100051562430700EMILIA SANTANA MORAIS                   RUA JORNALISTA MOACIR PADILHA, 276 FUNDOCENTRO - NIT24020350NITEROI        RJUNIAO UMB DOS CULTOS AFRO BRAS    30091810 000008
10231987175000168817800093673    000026501                    000265010000000000000109                     I0126501     30091800000000035003410000017N200818104700000000000103009180000000000000000000000000000000000000000100031709294749ELIETE DE OLIVEIRA FONSECA              ESTRADA DO MAGARCA, 1137 FUNDOS         GUARATIBA - 23035380RIO DE JANEIRO RJUNIAO UMB DOS CULTOS AFRO BRAS    30091810 000009
10231987175000168817800093673    000026500                    000265000000000000000109                     I0126500     30091800000000035003410000017N200818104700000000000103009180000000000000000000000000000000000000000100094639779704SERGIO ANTONIO CARDOSO LOPES            TRAVESSA DA AMIZADE                     VILA DA PENH21221370RIO DE JANEIRO RJUNIAO UMB DOS CULTOS AFRO BRAS    30091810 000010
10231987175000168817800093673    000026499                    000264990000000000000109                     I0126499     30091800000000035003410000017N200818104700000000000103009180000000000000000000000000000000000000000100087318822772REGINA CLIMAS DE ABREU                  RUA JOAO MARTINS DE BARROS, LOTE 25 QUADBATAILLARD -25675150PETROPOLIS     RJUNIAO UMB DOS CULTOS AFRO BRAS    30091810 000011
10231987175000168817800093673    000026498                    000264980000000000000109                     I0126498     30091800000000035003410000017N200818104700000000000103009180000000000000000000000000000000000000000100023061928715NICEAS FERREIRA BRITO FILHO             RUA ALBINO PAIVA, 486                   SENADOR CAMA21830490RIO DE JANEIRO RJUNIAO UMB DOS CULTOS AFRO BRAS    30091810 000012
10231987175000168817800093673    000026497                    000264970000000000000109                     I0126497     30091800000000035003410000017N200818104700000000000103009180000000000000000000000000000000000000000100011519708750GERALDINA DA SILVA MENDONCA             AV. ALBERTINO LADEIRA, 63               ENGENHEIRO R26041510NOVA IGUACU    RJUNIAO UMB DOS CULTOS AFRO BRAS    30091810 000013
10231987175000168817800093673    000026496                    000264960000000000000109                     I0126496     30091800000000035003410000017N200818104700000000000103009180000000000000000000000000000000000000000100009805565700THIAGO DOS SANTOS FLOR DA SILV          RUA JOAO LUSO, 423                      REALENGO-RJ 21765620RIO DE JANEIRO RJUNIAO UMB DOS CULTOS AFRO BRAS    30091810 000014
10231987175000168817800093673    000026495                    000264950000000000000109                     I0126495     30091800000000035003410000017N200818104700000000000103009180000000000000000000000000000000000000000100089853628791NADIA JAQUELINE MEDEIROS BARCE          RUA PROJETADA E, 51 FUNDOS CASA 1       SENADOR CAMA21831440RIO DE JANEIRO RJUNIAO UMB DOS CULTOS AFRO BRAS    30091810 000015
10231987175000168817800093673    000026494                    000264940000000000000109                     I0126494     30091800000000035003410000017N200818104700000000000103009180000000000000000000000000000000000000000100004790121720IATA ANDERSON JESUS PEREIRA             RUA ITAJUBARA, 92 FRENTE                RAMOS - RIO 21060180RIO DE JANEIRO RJUNIAO UMB DOS CULTOS AFRO BRAS    30091810 000016
10231987175000168817800093673    000026493                    000264930000000000000109                     I0126493     30091800000000035003410000017N200818104700000000000103009180000000000000000000000000000000000000000100002437606718FABIO VICTOR BARRETO                    RUA BARAO DE JAGUARI, 31                IRAJA - RIO 21235555RIO DE JANEIRO RJUNIAO UMB DOS CULTOS AFRO BRAS    30091810 000017
10231987175000168817800093673    000026492                    000264920000000000000109                     I0126492     30091800000000035003410000017N200818104700000000000103009180000000000000000000000000000000000000000100010591612739ROSEMERE SOUZA DA SILVA                 O MESMO                                 O MESMO     21230354RIO DE JANEIRO RJUNIAO UMB DOS CULTOS AFRO BRAS    30091810 000018
10231987175000168817800093673    000026491                    000264910000000000000109                     I0126491     30091800000000035003410000017N200818104700000000000103009180000000000000000000000000000000000000000100085953407734CARLA MARIA FERREIRA DA SILVA           RUA: JOSE MARIA DO AMARAL N 40          GUARATIBA - 23028120RIO DE JANEIRO RJUNIAO UMB DOS CULTOS AFRO BRAS    30091810 000019
10231987175000168817800093673    000026490                    000264900000000000000109                     I0126490     30091800000000035003410000017N200818104700000000000103009180000000000000000000000000000000000000000100062642049787ROSALIA FERREIRA DA SILVA               RUA CLARIMUNDO DE MELO, 680             PIEDADE - RJ21311300RIO DE JANEIRO RJUNIAO UMB DOS CULTOS AFRO BRAS    30091810 000020
10231987175000168817800093673    000026489                    000264890000000000000109                     I0126489     30091800000000035003410000017N200818104700000000000103009180000000000000000000000000000000000000000100002979603775LUIZ CARLOS PESSOA                      RUA: JOSE RAMALHO Nº 14 - MUTUAPIRA    O MESMO     24455235RIO DE JANEIRO RJUNIAO UMB DOS CULTOS AFRO BRAS    30091810 000021
10231987175000168817800093673    000026488                    000264880000000000000109                     I0126488     30091800000000035003410000017N200818104700000000000103009180000000000000000000000000000000000000000100007476149739JAQUELINE DE ASSIS                      RUA: MIGUEL DE CARVALHO Nº 171         GUARATIBA - 23035640RIO DE JANEIRO RJUNIAO UMB DOS CULTOS AFRO BRAS    30091810 000022
10231987175000168817800093673    000026487                    000264870000000000000109                     I0126487     30091800000000035003410000017N200818104700000000000103009180000000000000000000000000000000000000000100012106775717VITOR GABRIEL CARVALHO DE FIGU          RUA GENERAL BELFORD, 295 CASA 12        ROCHA - RJ  20961000RIO DE JANEIRO RJUNIAO UMB DOS CULTOS AFRO BRAS    30091810 000023
10231987175000168817800093673    000026486                    000264860000000000000109                     I0126486     30091800000000035003410000017N200818104700000000000103009180000000000000000000000000000000000000000100095685774753ADEMIR GOMES DOS SANTOS                 AVENIDA NOSSA SENHORA DAS GRACAS, 546   SAO JOAO DE 25515001RIO DE JANEIRO RJUNIAO UMB DOS CULTOS AFRO BRAS    30091810 000024
10231987175000168817800093673    000026485                    000264850000000000000109                     I0126485     30091800000000035003410000017N200818104700000000000103009180000000000000000000000000000000000000000100008158166776CRISTIANE DE ALMEIDA DA ROCHA           RUA JOANA RESENDE                       MADUREIRA   21360430RIO DE JANEIRO RJUNIAO UMB DOS CULTOS AFRO BRAS    30091810 000025
10231987175000168817800093673    000026484                    000264840000000000000109                     I0126484     30091800000000035003410000017N200818104700000000000103009180000000000000000000000000000000000000000100013814528760TIAGO FRANCISLEI PEREIRA REALI          O MESMO                                 O MESMO     24115260BARRA DO PIRAI RJUNIAO UMB DOS CULTOS AFRO BRAS    30091810 000026
10231987175000168817800093673    000026483                    000264830000000000000109                     I0126483     30091800000000035003410000017N200818104700000000000103009180000000000000000000000000000000000000000100014662855756JEFERSON DOS SANTOS                     O MESMO                                 O MESMO     26160190BELFORD ROXO   RJUNIAO UMB DOS CULTOS AFRO BRAS    30091810 000027
10231987175000168817800093673    000026482                    000264820000000000000109                     I0126482     30091800000000035003410000017N200818104700000000000103009180000000000000000000000000000000000000000100064561968768EUCLIDALINA MARIA DOS SANTOS V          O MESMO                                 O MESMO     25265080DUQUE DE CAXIASRJUNIAO UMB DOS CULTOS AFRO BRAS    30091810 000028
10231987175000168817800093673    000026481                    000264810000000000000109                     I0126481     30091800000000035003410000017N200818104700000000000103009180000000000000000000000000000000000000000100010355748703MARIA LUIZA LOPES                       RUA DOUTOR NUNES, 1243 APTO 302         OLARIA - RJ 21021370RIO DE JANEIRO RJUNIAO UMB DOS CULTOS AFRO BRAS    30091810 000029
10231987175000168817800093673    000026480                    000264800000000000000109                     I0126480     30091800000000040003410000017N200818104700000000000103009180000000000000000000000000000000000000000100073243728720MARCOS AURELIO REIS DE CASTRO           RUA DAS ROSAS                           VILA VALQUEI21321382RIO DE JANEIRO RJUNIAO UMB DOS CULTOS AFRO BRAS    30091810 000030
10231987175000168817800093673    000026479                    000264790000000000000109                     I0126479     30091800000000035003410000017N200818104700000000000103009180000000000000000000000000000000000000000100000921417130IVANILDA MARIA DE OLIVEIRA              O MESMO                                 O MESMO     26420150JAPERI         RJUNIAO UMB DOS CULTOS AFRO BRAS    30091810 000031
10231987175000168817800093673    000026478                    000264780000000000000109                     I0126478     30091800000000035003410000017N200818104700000000000103009180000000000000000000000000000000000000000100004460142732CRISTIANO ARAUJO DE OLIVEIRA            R: SERIDO N 20 QD 1 LOTE 15             NOVA IGUACU 26291482NOVA IGUACU    RJUNIAO UMB DOS CULTOS AFRO BRAS    30091810 000032
10231987175000168817800093673    000026477                    000264770000000000000109                     I0126477     30091800000000035003410000017N200818104700000000000103009180000000000000000000000000000000000000000100092952364753ROSANGELA SILVA SOUZA                   RUA TAMOIOS N 144                       CENTRO - NIL26520250NILOPOLIS      RJUNIAO UMB DOS CULTOS AFRO BRAS    30091810 000033
10231987175000168817800093673    000026476                    000264760000000000000109                     I0126476     30091800000000035003410000017N200818104700000000000103009180000000000000000000000000000000000000000100012874409758CLAUDIA DA SILVA NOBRE DE MIRA          RUA SEIS, 70 - FIGUEIRA                 MAUA - MAGE 25930000MAGE           RJUNIAO UMB DOS CULTOS AFRO BRAS    30091810 000034
10231987175000168817800093673    000026475                    000264750000000000000109                     I0126475     30091800000000035003410000017N200818104700000000000103009180000000000000000000000000000000000000000100037506587734MARIA JOSE ALVES DIAS                   RUA CLODOMIRO, 105                      SANTA CRUZ/R23550020RIO DE JANEIRO RJUNIAO UMB DOS CULTOS AFRO BRAS    30091810 000035
10231987175000168817800093673    000026474                    000264740000000000000109                     I0126474     30091800000000035003410000017N200818104700000000000103009180000000000000000000000000000000000000000100001248895738JUSSARA SILVEIRA LOPES DA FONS          RUA SAQUAREMA, 1433                     SANTO ALEIXO25914000MAGE           RJUNIAO UMB DOS CULTOS AFRO BRAS    30091810 000036
10231987175000168817800093673    000026473                    000264730000000000000109                     I0126473     30091800000000035003410000017N200818104700000000000103009180000000000000000000000000000000000000000100086094750772IARA MUNIZ DA SILVA BORGES              RUA FLAMBOYANT, 3                       VARGEM PEQUE22783117RIO DE JANEIRO RJUNIAO UMB DOS CULTOS AFRO BRAS    30091810 000037
10231987175000168817800093673    000026472                    000264720000000000000109                     I0126472     30091800000000035003410000017N200818104700000000000103009180000000000000000000000000000000000000000100082272964753ALBANO TEIXEIRA NOVAES FILHO            O MESMO                                 O MESMO     26265550NOVA IGUACU    RJUNIAO UMB DOS CULTOS AFRO BRAS    30091810 000038
10231987175000168817800093673    000026471                    000264710000000000000109                     I0126471     30091800000000035003410000017N200818104700000000000103009180000000000000000000000000000000000000000100016985553770SILVANA MARIA DOS SANTOS                RUA, CINCO LOTE 16 QUADR 38 - QUEIMADOS CARTA COBR J21235830RIO DE JANEIRO RJUNIAO UMB DOS CULTOS AFRO BRAS    30091810 000039
10231987175000168817800093673    000026470                    000264700000000000000109                     I0126470     30091800000000035003410000017N200818104700000000000103009180000000000000000000000000000000000000000100064775640763TANIA CORREA LEITE                      RUA DOUTOR LUIS GAUDIE LEY N 99 (2ª LIGPENHA - RIO 21070100RIO DE JANEIRO RJUNIAO UMB DOS CULTOS AFRO BRAS    30091810 000040
10231987175000168817800093673    000026469                    000264690000000000000109                     I0126469     30091800000000040003410000017N200818104700000000000103009180000000000000000000000000000000000000000100090468414720MARCOS MELLO TERRA                      O MESMO                                 O MESMO     25915000MAGE           RJUNIAO UMB DOS CULTOS AFRO BRAS    30091810 000041
10231987175000168817800093673    000026468                    000264680000000000000109                     I0126468     30091800000000035003410000017N200818104700000000000103009180000000000000000000000000000000000000000100007986589752LEANDRO DOS SANTOS RODRIGUES            AVENIDA GASPAR DE LEMOS, 13             ILHA DE GUAR23020230RIO DE JANEIRO RJUNIAO UMB DOS CULTOS AFRO BRAS    30091810 000042
10231987175000168817800093673    000026467                    000264670000000000000109                     I0126467     30091800000000035003410000017N200818104700000000000103009180000000000000000000000000000000000000000100001868270750CARLOS ALBERTO DO NASCIMENTO L          O MESMO                                 O MESMO     20761060RIO DE JANEIRO RJUNIAO UMB DOS CULTOS AFRO BRAS    30091810 000043
10231987175000168817800093673    000026466                    000264660000000000000109                     I0126466     30091800000000035003410000017N200818104700000000000103009180000000000000000000000000000000000000000100096933836720CELIA GOMES DE OLIVEIRA FALCAO          RUA CONDOMINIO 1 DE MAIO, 227 B         MADAME MACHA23740020PETROPOLIS     RJUNIAO UMB DOS CULTOS AFRO BRAS    30091810 000044
10231987175000168817800093673    000026465                    000264650000000000000109                     I0126465     30091800000000035003410000017N200818104700000000000103009180000000000000000000000000000000000000000100005292156752MARCIO VALADARES DOS SANTOS             RUA SETUBAL LT 7 QD N - CABUCU          NOVA IGUACU 21330560RIO DE JANEIRO RJUNIAO UMB DOS CULTOS AFRO BRAS    30091810 000045
10231987175000168817800093673    000026464                    000264640000000000000109                     I0126464     30091800000000035003410000017N200818104700000000000103009180000000000000000000000000000000000000000100038230445753ABILIO ALFREDO DUARTE                   RUA: ORQUIDEAS S/Nº LOTE 72 - GUARATIBARIO DE JANEI23026000RIO DE JANEIRO RJUNIAO UMB DOS CULTOS AFRO BRAS    30091810 000046
10231987175000168817800093673    000026463                    000264630000000000000109                     I0126463     30091800000000035003410000017N200818104700000000000103009180000000000000000000000000000000000000000100008169125723SANDRA PRAXEDES SILVA BRAGA             RUA NOVENTA TRES, LOTE 36 QUADRA 131    CORDEIRINHO 24921464MARICA         RJUNIAO UMB DOS CULTOS AFRO BRAS    30091810 000047
10231987175000168817800093673    000026462                    000264620000000000000109                     I0126462     30091800000000035003410000017N200818104700000000000103009180000000000000000000000000000000000000000100001136014764JOSE ORLANDO SILVA                      O MESMO                                 O MESMO     23825225ITAGUAI        RJUNIAO UMB DOS CULTOS AFRO BRAS    30091810 000048
10231987175000168817800093673    000026461                    000264610000000000000109                     I0126461     30091800000000035003410000017N200818104700000000000103009180000000000000000000000000000000000000000100047672412787JOAO CARLOS STADLER                     O MESMO                                 O MESMO     25625250PETROPOLIS     RJUNIAO UMB DOS CULTOS AFRO BRAS    30091810 000049
10231987175000168817800093673    000026460                    000264600000000000000109                     I0126460     30091800000000035003410000017N200818104700000000000103009180000000000000000000000000000000000000000100006940060766JAQUELINE BEZERRA DA SILVA              RUA ATOR JECE VALADAO, 329 - ANTIGA 73  PEDRA DE GUA23020718RIO DE JANEIRO RJUNIAO UMB DOS CULTOS AFRO BRAS    30091810 000050
10231987175000168817800093673    000026459                    000264590000000000000109                     I0126459     30091800000000035003410000017N200818104700000000000103009180000000000000000000000000000000000000000100080113397704SOLANGE DE SOUZA SILVA                  RUA PEDRO DE MELO, 174 FUNDOS           PADRE MIGUEL21775410RIO DE JANEIRO RJUNIAO UMB DOS CULTOS AFRO BRAS    30091810 000051
10231987175000168817800093673    000026458                    000264580000000000000109                     I0126458     30091800000000035003410000017N200818104700000000000103009180000000000000000000000000000000000000000100098077899749WANDERLEY PACHECO                       RUA NOSSA SENHORA DA CONCEICAO, S/N LOTEPILAR - DUQU25233070DUQUE DE CAXIASRJUNIAO UMB DOS CULTOS AFRO BRAS    30091810 000052
10231987175000168817800093673    000026457                    000264570000000000000109                     I0126457     30091800000000035003410000017N200818104700000000000103009180000000000000000000000000000000000000000100011981552723DIEGO DE SIQUEIRA VIEIRA                RUA ACU N 339 FUNDOS                    REALENGO - R21765640RIO DE JANEIRO RJUNIAO UMB DOS CULTOS AFRO BRAS    30091810 000053
10231987175000168817800093673    000026456                    000264560000000000000109                     I0126456     30091800000000035003410000017N200818104700000000000103009180000000000000000000000000000000000000000100003659613703MARIA JOSE DA SILVA LEONCIO DA          RUA: MARIPA LOTE 6 QUADRA 21 - PARQUE BODUQUE DE CAX25223600DUQUE DE CAXIASRJUNIAO UMB DOS CULTOS AFRO BRAS    30091810 000054
10231987175000168817800093673    000026455                    000264550000000000000109                     I0126455     30091800000000035003410000017N200818104700000000000103009180000000000000000000000000000000000000000100080252540700GEORGET MARIA CONCEICAO DE OLI          RUA: CONDE DE LINHARES                  OSWALDO CRUZ21341190RIO DE JANEIRO RJUNIAO UMB DOS CULTOS AFRO BRAS    30091810 000055
10231987175000168817800093673    000026454                    000264540000000000000109                     I0126454     30091800000000035003410000017N200818104700000000000103009180000000000000000000000000000000000000000100008528931757LUCIMARA DA CONCEICAO CORTES            RUA: PROFESSOR CHARLEY LACHMUND         GUARATIBA   23032570RIO DE JANEIRO RJUNIAO UMB DOS CULTOS AFRO BRAS    30091810 000056
10231987175000168817800093673    000026453                    000264530000000000000109                     I0126453     30091800000000035003410000017N200818104700000000000103009180000000000000000000000000000000000000000100003763646701ELIZABETE CRISTINA OLIVEIRA DE          RUA: DO JAMBO                           REALENGO    21755070RIO DE JANEIRO RJUNIAO UMB DOS CULTOS AFRO BRAS    30091810 000057
10231987175000168817800093673    000026452                    000264520000000000000109                     I0126452     30091800000000035003410000017N200818104700000000000103009180000000000000000000000000000000000000000100000000011458JOSE ALFREDO BARDASSON MARQUES          TRAVESSA JOAO ROCHA                     PORTO DAS CA24830072ITABORAI       RJUNIAO UMB DOS CULTOS AFRO BRAS    30091810 000058
10231987175000168817800093673    000026451                    000264510000000000000109                     I0126451     30091800000000035003410000017N200818104700000000000103009180000000000000000000000000000000000000000100013770029771MICHEL REIS COUTINHO                    ESTRADA ADHEMAR BEBIANO                 INHAUMA     20766720RIO DE JANEIRO RJUNIAO UMB DOS CULTOS AFRO BRAS    30091810 000059
10231987175000168817800093673    000026450                    000264500000000000000109                     I0126450     30091800000000035003410000017N200818104700000000000103009180000000000000000000000000000000000000000100000260923796RITA LUZIE HENRIQUE DA SILVA A          O MESMO                                 O MESMO     20541170RIO DE JANEIRO RJUNIAO UMB DOS CULTOS AFRO BRAS    30091810 000060
10231987175000168817800093673    000026449                    000264490000000000000109                     I0126449     30091800000000035003410000017N200818104700000000000103009180000000000000000000000000000000000000000100091156386772MARILENE PEREIRA DOS SANTOS CO          ESTRADA DO PORTELA  694                 OSVALDO CRUZ21351050RIO DE JANEIRO RJUNIAO UMB DOS CULTOS AFRO BRAS    30091810 000061
10231987175000168817800093673    000026448                    000264480000000000000109                     I0126448     30091800000000035003410000017N200818104700000000000103009180000000000000000000000000000000000000000100068862989768VILMA FLAUSINO ILIDIO                   RUA GERALDO MACEDO, 230                 HELIOPOLIS  26123090BELFORD ROXO   RJUNIAO UMB DOS CULTOS AFRO BRAS    30091810 000062
10231987175000168817800093673    000026447                    000264470000000000000109                     I0126447     30091800000000035003410000017N200818104700000000000103009180000000000000000000000000000000000000000100099715554768ZARELDA DE SOUZA ESTEVAO                RUA: VALDOMIRO RAIMUNDO Nº 460 - COIMBRBARRA DO PIR27115270BARRA DO PIRAI RJUNIAO UMB DOS CULTOS AFRO BRAS    30091810 000063
10231987175000168817800093673    000026446                    000264460000000000000109                     I0126446     30091800000000035003410000017N200818104700000000000103009180000000000000000000000000000000000000000100083904069772MARCIA MARIA DUARTE MILANEZ VI          RUA DO FRAGOSO                          GUARATIBA   23032280RIO DE JANEIRO RJUNIAO UMB DOS CULTOS AFRO BRAS    30091810 000064
10231987175000168817800093673    000026445                    000264450000000000000109                     I0126445     30091800000000040003410000017N200818104700000000000103009180000000000000000000000000000000000000000100000152452338DANIELA DE FATIMA SOARES                RUA: MARIA ROSA                         PADRE MIGUEL20740460RIO DE JANEIRO RJUNIAO UMB DOS CULTOS AFRO BRAS    30091810 000065
10231987175000168817800093673    000026444                    000264440000000000000109                     I0126444     30091800000000035003410000017N200818104700000000000103009180000000000000000000000000000000000000000100001898047774ELISABETH SANTOS PEREIRA                O MESMO                                 O MESMO     25900000MAGE           RJUNIAO UMB DOS CULTOS AFRO BRAS    30091810 000066
10231987175000168817800093673    000026443                    000264430000000000000109                     I0126443     30091800000000035003410000017N200818104700000000000103009180000000000000000000000000000000000000000100000360973736CLAUDIA PINHEIRO CID                    RUA BRAGA, 106 CASA 2                   PENHA - RJ  21011500RIO DE JANEIRO RJUNIAO UMB DOS CULTOS AFRO BRAS    30091810 000067
10231987175000168817800093673    000026442                    000264420000000000000109                     I0126442     30091800000000035003410000017N200818104700000000000103009180000000000000000000000000000000000000000100000043874738ANDREA COSTA                            RUA ATHOS BULCAO                        RECREIO DOS 22790661RIO DE JANEIRO RJUNIAO UMB DOS CULTOS AFRO BRAS    30091810 000068
10231987175000168817800093673    000026441                    000264410000000000000109                     I0126441     30091800000000035003410000017N200818104700000000000103009180000000000000000000000000000000000000000100008267557717MARCIA REGINA FELIPE DE SOUZA           ESTRADA DO MENDANHA                     MENDANHA - C23087283RIO DE JANEIRO RJUNIAO UMB DOS CULTOS AFRO BRAS    30091810 000069
10231987175000168817800093673    000026440                    000264400000000000000109                     I0126440     30091800000000035003410000017N200818104700000000000103009180000000000000000000000000000000000000000100041294270753DENISE ROCHA ROSA                       RUA, TRIESTE                            PIABETA     25915000MAGE           RJUNIAO UMB DOS CULTOS AFRO BRAS    30091810 000070
10231987175000168817800093673    000026439                    000264390000000000000109                     I0126439     30091800000000035003410000017N200818104700000000000103009180000000000000000000000000000000000000000100009456470776JAMES ARNESS BARBOSA DE OLIVEI          RUA: JOAQUIM DE QUEIROZ - TRAVESSA SAO CRAMOS       20766220RIO DE JANEIRO RJUNIAO UMB DOS CULTOS AFRO BRAS    30091810 000071
10231987175000168817800093673    000026438                    000264380000000000000109                     I0126438     30091800000000035003410000017N200818104700000000000103009180000000000000000000000000000000000000000100073296902791CARLOS ALEXANDRE FERNANDES SAM          RUA BORJA REIS                          ENGENHO DE D20745100RIO DE JANEIRO RJUNIAO UMB DOS CULTOS AFRO BRAS    30091810 000072
10231987175000168817800093673    000026437                    000264370000000000000109                     I0126437     30091800000000035003410000017N200818104700000000000103009180000000000000000000000000000000000000000100062990772715MARLISE VINAGRE SILVA                   RUA SILVEIRA MARTINS, 30 APTO 704       CATETE - RJ 26299042RIO DE JANEIRO RJUNIAO UMB DOS CULTOS AFRO BRAS    30091810 000073
10231987175000168817800093673    000026436                    000264360000000000000109                     I0126436     30091800000000035003410000017N200818104700000000000103009180000000000000000000000000000000000000000100003808829737LEANDRO JOSE OLIVEIRA MENDES            RUA: ALAN KARDEC                        PARQUE JUPIR26187590BELFORD ROXO   RJUNIAO UMB DOS CULTOS AFRO BRAS    30091810 000074
10231987175000168817800093673    000026435                    000264350000000000000109                     I0126435     30091800000000035003410000017N200818104700000000000103009180000000000000000000000000000000000000000100009263590702JEAN CARLOS DOS SANTOS                  RUA NEVES                               PARQUE ARARU25585580SAO JOAO DE MERRJUNIAO UMB DOS CULTOS AFRO BRAS    30091810 000075
10231987175000168817800093673    000026434                    000264340000000000000109                     I0126434     30091800000000035003410000017N200818104700000000000103009180000000000000000000000000000000000000000100079013686753NEIVA NUNES SENNA                       ALAMEDA SAO SEBASTIAO                   SAO FRANCISC26352680NOVA IGUACU    RJUNIAO UMB DOS CULTOS AFRO BRAS    30091810 000076
10231987175000168817800093673    000026433                    000264330000000000000109                     I0126433     30091800000000035003410000017N200818104700000000000103009180000000000000000000000000000000000000000100001344376754FERNANDA RODRIGUES TEIXEIRA DO          ESTRADA: DO GARGOA                      FLORESTINHA 28929538CABO FRIO      RJUNIAO UMB DOS CULTOS AFRO BRAS    30091810 000077
10231987175000168817800093673    000026432                    000264320000000000000109                     I0126432     30091800000000035003410000017N200818104700000000000103009180000000000000000000000000000000000000000100080728774704NERIANA SILVA DO CARMO                  RUA: NILTON PAULINO                     RAMOS       21061610RIO DE JANEIRO RJUNIAO UMB DOS CULTOS AFRO BRAS    30091810 000078
10231987175000168817800093673    000026431                    000264310000000000000109                     I0126431     30091800000000035003410000017N200818104700000000000103009180000000000000000000000000000000000000000100000000011401FABIANO DE AGUIAR - T AYRA              RUA CINQUENTA E CINCO                   NOSSA SENHOR23097485CAMPO GRANDE   RJUNIAO UMB DOS CULTOS AFRO BRAS    30091810 000079
10231987175000168817800093673    000026430                    000264300000000000000109                     I0126430     30091800000000035003410000017N200818104700000000000103009180000000000000000000000000000000000000000100003538138770ELIZABETH DE SANTANA                    RUA FIGUEIREDO PIMENTEL                 ABOLICAO    20750200RIO DE JANEIRO RJUNIAO UMB DOS CULTOS AFRO BRAS    30091810 000080
10231987175000168817800093673    000026429                    000264290000000000000109                     I0126429     30091800000000035003410000017N200818104700000000000103009180000000000000000000000000000000000000000100072121122753ALIETE ROCHA DA SILVA VIEIRA            RUA: IBIRAPITANGA                       INHAUMA     20766130RIO DE JANEIRO RJUNIAO UMB DOS CULTOS AFRO BRAS    30091810 000081
10231987175000168817800093673    000026428                    000264280000000000000109                     I0126428     30091800000000035003410000017N200818104700000000000103009180000000000000000000000000000000000000000100002499344776EUNIRA DA SALINA DE PAULA               ESTRADA: SAPUCAIA                       ITAUNA      24473330SAO GONCALO    RJUNIAO UMB DOS CULTOS AFRO BRAS    30091810 000082
10231987175000168817800093673    000026427                    000264270000000000000109                     I0126427     30091800000000035003410000017N200818104700000000000103009180000000000000000000000000000000000000000100044339682772MARIA APARECIDA DE MOURA MORTA          RUA CARLOS COSTA                        RIACHUELO   20970090RIO DE JANEIRO RJUNIAO UMB DOS CULTOS AFRO BRAS    30091810 000083
10231987175000168817800093673    000026426                    000264260000000000000109                     I0126426     30091800000000035003410000017N200818104700000000000103009180000000000000000000000000000000000000000100070175225753LEDA FERREIRA FIGUEIREDO                RUA: SANTA ROSA                         BENTO RIBEIR21331420RIO DE JANEIRO RJUNIAO UMB DOS CULTOS AFRO BRAS    30091810 000084
10231987175000168817800093673    000026425                    000264250000000000000109                     I0126425     30091800000000035003410000017N200818104700000000000103009180000000000000000000000000000000000000000100003322124754CATIA REGINA DE AQUINO MACHADO          RUA CLAUDINO BARATA                     REALENGO    21770200RIO DE JANEIRO RJUNIAO UMB DOS CULTOS AFRO BRAS    30091810 000085
10231987175000168817800093673    000026424                    000264240000000000000109                     I0126424     30091800000000035003410000017N200818104700000000000103009180000000000000000000000000000000000000000100009368867739NEUZA DA SILVA MAIA                     RUA: PETROPOLIS                         TRINDADE    24455806SAO GONCALO    RJUNIAO UMB DOS CULTOS AFRO BRAS    30091810 000086
10231987175000168817800093673    000026423                    000264230000000000000109                     I0126423     30091800000000035003410000017N200818104700000000000103009180000000000000000000000000000000000000000100073711616704SANDRA REGINA BESERRA SILVA             ESTRADA: CAMPO DA AREIA                 PECHINCHA   22743311RIO DE JANEIRO RJUNIAO UMB DOS CULTOS AFRO BRAS    30091810 000087
10231987175000168817800093673    000026422                    000264220000000000000109                     I0126422     30091800000000035003410000017N200818104700000000000103009180000000000000000000000000000000000000000100002212106793ANTONIO CARLOS DA SILVA GONCAL          RUA: VISCONDE DE NITEROI                SAO CRISTOVA20943000RIO DE JANEIRO RJUNIAO UMB DOS CULTOS AFRO BRAS    30091810 000088
10231987175000168817800093673    000026421                    000264210000000000000109                     I0126421     30091800000000035003410000017N200818104700000000000103009180000000000000000000000000000000000000000100005776594723WALACE RODRIGUES                        ESTRADA: DOS TEIXEIRAS                  TAQUARA     22723205RIO DE JANEIRO RJUNIAO UMB DOS CULTOS AFRO BRAS    30091810 000089
10231987175000168817800093673    000026420                    000264200000000000000109                     I0126420     30091800000000035003410000017N200818104700000000000103009180000000000000000000000000000000000000000100008633241773MARCIA CRISTINA VIDEIRO MATEUS          RUA PEDRA DE INDAIA                     PEDRA DE GUA23026440RIO DE JANEIRO RJUNIAO UMB DOS CULTOS AFRO BRAS    30091810 000090
10231987175000168817800093673    000026419                    000264190000000000000109                     I0126419     30091800000000035003410000017N200818104700000000000103009180000000000000000000000000000000000000000100059919442704VANDA LUCIA PINHEIRO ROSA               RUA: AIRTON SENA                        JARDIM PAULI21215550RIO DE JANEIRO RJUNIAO UMB DOS CULTOS AFRO BRAS    30091810 000091
10231987175000168817800093673    000026418                    000264180000000000000109                     I0126418     30091800000000035003410000017N200818104700000000000103009180000000000000000000000000000000000000000100002856003702ANDRE ALVES LIBONATI                    MARIA VARGAS                            QUINTINO BOC21540240RIO DE JANEIRO RJUNIAO UMB DOS CULTOS AFRO BRAS    30091810 000092
10231987175000168817800093673    000026417                    000264170000000000000109                     I0126417     30091800000000035003410000017N200818104700000000000103009180000000000000000000000000000000000000000100098630164700LEILA DE JESUS FREIRE                   RUA JABUTICABEIRA                       SENADOR CAMA23010450RIO DE JANEIRO RJUNIAO UMB DOS CULTOS AFRO BRAS    30091810 000093
10231987175000168817800093673    000026416                    000264160000000000000109                     I0126416     30091800000000035003410000017N200818104700000000000103009180000000000000000000000000000000000000000100085775576772LUSIA DE FREITAS SERVA                  RUA PEREIRA NETO                        GUARATIBA   23032545RIO DE JANEIRO RJUNIAO UMB DOS CULTOS AFRO BRAS    30091810 000094
10231987175000168817800093673    000026415                    000264150000000000000109                     I0126415     30091800000000035003410000017N200818104700000000000103009180000000000000000000000000000000000000000100005444285797CICERO PEREIRA GOMES NETO               RUA: CAPITAO RUBENS                     MARECHAL HER21610290RIO DE JANEIRO RJUNIAO UMB DOS CULTOS AFRO BRAS    30091810 000095
10231987175000168817800093673    000026414                    000264140000000000000109                     I0126414     30091800000000035003410000017N200818104700000000000103009180000000000000000000000000000000000000000100005267669725CARLA REGINA JOSE PEREIRA DA S          RUA: MOISES PIRES                       JARDIM NOVA 26272170NOVA IGUACU    RJUNIAO UMB DOS CULTOS AFRO BRAS    30091810 000096
10231987175000168817800093673    000026413                    000264130000000000000109                     I0126413     30091800000000035003410000017N200818104700000000000103009180000000000000000000000000000000000000000100083469559791ALEXANDRE DA SILVA SOUZA                RUA AFONSO RIBEIRO, 582                 PENHA - RJ  21031700RIO DE JANEIRO RJUNIAO UMB DOS CULTOS AFRO BRAS    30091810 000097
10231987175000168817800093673    000026412                    000264120000000000000109                     I0126412     30091800000000035003410000017N200818104700000000000103009180000000000000000000000000000000000000000100000747523715CLAUDIARA TEIXEIRA DA SILVA             RUA CAMBUCI                             MUQUECA     27140280BARRA DO PIRAI RJUNIAO UMB DOS CULTOS AFRO BRAS    30091810 000098
10231987175000168817800093673    000026411                    000264110000000000000109                     I0126411     30091800000000035003410000017N200818104700000000000103009180000000000000000000000000000000000000000100047585978715HARILDO FRANCISCO DOS SANTOS            RUA:JOSE PINTO DE MACEDO - TRAVESSA TODOPRAINHA     28930000ARRAIAL DO CABORJUNIAO UMB DOS CULTOS AFRO BRAS    30091810 000099
10231987175000168817800093673    000026410                    000264100000000000000109                     I0126410     30091800000000035003410000017N200818104700000000000103009180000000000000000000000000000000000000000100002344160760MARIA DAS GRACAS SANTOS CLEMEN          RUA: CORNELHO FERREIRA                  PONTE LARANJ27175000BARRA DO PIRAI RJUNIAO UMB DOS CULTOS AFRO BRAS    30091810 000100
10231987175000168817800093673    000026409                    000264090000000000000109                     I0126409     30091800000000035003410000017N200818104700000000000103009180000000000000000000000000000000000000000100005414691717UANDERSON DE SOUZA XAVIER               RUA: ALFREDO MANSUR                     MORRO GAMA  27150430BARRA DO PIRAI RJUNIAO UMB DOS CULTOS AFRO BRAS    30091810 000101
10231987175000168817800093673    000026408                    000264080000000000000109                     I0126408     30091800000000035003410000017N200818104700000000000103009180000000000000000000000000000000000000000100059841672715MONICA TARDELLE                         RUA: EUBANQUE                           ENGENHO DA R20766600RIO DE JANEIRO RJUNIAO UMB DOS CULTOS AFRO BRAS    30091810 000102
10231987175000168817800093673    000026407                    000264070000000000000109                     I0126407     30091800000000035003410000017N200818104700000000000103009180000000000000000000000000000000000000000100074597035753LUCIMAR DE SOUZA DIAS                   RUA LIGIA MALAGUTI, 150                 BOMBAS DO GU26357000NOVA IGUACU    RJUNIAO UMB DOS CULTOS AFRO BRAS    30091810 000103
10231987175000168817800093673    000026406                    000264060000000000000109                     I0126406     30091800000000035003410000017N200818104700000000000103009180000000000000000000000000000000000000000100004770414773CARLOS ALBERTO TORRES NOGUEIRA          ESTRADA DO LAMEIRAO                     SANTISSIMO  23092031RIO DE JANEIRO RJUNIAO UMB DOS CULTOS AFRO BRAS    30091810 000104
10231987175000168817800093673    000026405                    000264050000000000000109                     I0126405     30091800000000035003410000017N200818104700000000000103009180000000000000000000000000000000000000000100008389266733BEATRIZ DE AZEVEDO NUNES                RUA: SAPOPEMBA                          BENTO RIBEIR21321240RIO DE JANEIRO RJUNIAO UMB DOS CULTOS AFRO BRAS    30091810 000105
10231987175000168817800093673    000026404                    000264040000000000000109                     I0126404     30091800000000035003410000017N200818104700000000000103009180000000000000000000000000000000000000000100061458317749BENEDITA DEODORO DE MORAIS              RUA GENTIL DINIZ                        NOVO MEXICO 27130170BARRA DO PIRAI RJUNIAO UMB DOS CULTOS AFRO BRAS    30091810 000106
10231987175000168817800093673    000026403                    000264030000000000000109                     I0126403     30091800000000035003410000017N200818104700000000000103009180000000000000000000000000000000000000000100003276628759HERCULES LIMA TAVARES                   RUA: ALFREDO MANSUR                     MORRO GAMA  27150430BARRA DO PIRAI RJUNIAO UMB DOS CULTOS AFRO BRAS    30091810 000107
10231987175000168817800093673    000026402                    000264020000000000000109                     I0126402     30091800000000035003410000017N200818104700000000000103009180000000000000000000000000000000000000000100032759827704TEREZA COSTA DE CASTRO                  RUA JOAO BATISTA DA FONSECA             MATADOURO   27115020BARRA DO PIRAI RJUNIAO UMB DOS CULTOS AFRO BRAS    30091810 000108
10231987175000168817800093673    000026401                    000264010000000000000109                     I0126401     30091800000000035003410000017N200818104700000000000103009180000000000000000000000000000000000000000100012732003735THAYS CRISTINA CAMPOS BARBOSA           RUA  LUIS BARBALHO                      ROCHA MIRAND21510110RIO DE JANEIRO RJUNIAO UMB DOS CULTOS AFRO BRAS    30091810 000109
10231987175000168817800093673    000026400                    000264000000000000000109                     I0126400     30091800000000035003410000017N200818104700000000000103009180000000000000000000000000000000000000000100061009865749JORGINA OLEGARIO DE OLIVEIRA            RUA: TURMALINAS - ANTIGA RUA 45         JARDIM CATAR24715671SAO GONCALO    RJUNIAO UMB DOS CULTOS AFRO BRAS    30091810 000110
10231987175000168817800093673    000026399                    000263990000000000000109                     I0126399     30091800000000035003410000017N200818104700000000000103009180000000000000000000000000000000000000000100000000011186FLAVIA CRISTINA DINIZ                   RUA: JOSE FIRMINO DE MELO               QUIMICA     27130360BARRA DO PIRAI RJUNIAO UMB DOS CULTOS AFRO BRAS    30091810 000111
10231987175000168817800093673    000026398                    000263980000000000000109                     I0126398     30091800000000035003410000017N200818104700000000000103009180000000000000000000000000000000000000000100079072283791MYRIAN AMORIM RIBEIRO                   ESTRADA INTENDENTE MAGALHAES            MADUREIRA   21341332RIO DE JANEIRO RJUNIAO UMB DOS CULTOS AFRO BRAS    30091810 000112
10231987175000168817800093673    000026397                    000263970000000000000109                     I0126397     30091800000000035003410000017N200818104700000000000103009180000000000000000000000000000000000000000100003561463754NORMA CRISTINA JUSTO PRUDENTE           RUA ALUISIO LIRA                        PARQUE ANCHI21635040RIO DE JANEIRO RJUNIAO UMB DOS CULTOS AFRO BRAS    30091810 000113
10231987175000168817800093673    000026396                    000263960000000000000109                     I0126396     30091800000000035003410000017N200818104700000000000103009180000000000000000000000000000000000000000100088224228720VERA MARIA DA SILVA                     AVENIDA FARROUPILHA - ANTIGA RUA 6      GUAXINDIBA  24722270RIO DE JANEIRO RJUNIAO UMB DOS CULTOS AFRO BRAS    30091810 000114
10231987175000168817800093673    000026395                    000263950000000000000109                     I0126395     30091800000000035003410000017N200818104700000000000103009180000000000000000000000000000000000000000100086464493787MARIA DE FATIMA SOUZA SILVA TE          RUA: NINA RIBEIRO                       PAVUNA      21520290RIO DE JANEIRO RJUNIAO UMB DOS CULTOS AFRO BRAS    30091810 000115
10231987175000168817800093673    000026394                    000263940000000000000109                     I0126394     30091800000000035003410000017N200818104700000000000103009180000000000000000000000000000000000000000100088966338797ZENIRA DE CARVALHO CONCEICAO            AVENIDA ALMIRANTE AMORIM DO VALE        MARAMBAIA   24724560SAO GONCALO    RJUNIAO UMB DOS CULTOS AFRO BRAS    30091810 000116
10231987175000168817800093673    000026393                    000263930000000000000109                     I0126393     30091800000000035003410000017N200818104700000000000103009180000000000000000000000000000000000000000100001230403701DENILSON MOTA DRUMOND                   RUA, ALVES DA COSTA                     CHANGRILA   26140320BELFORD ROXO   RJUNIAO UMB DOS CULTOS AFRO BRAS    30091810 000117
10231987175000168817800093673    000026392                    000263920000000000000109                     I0126392     30091800000000035003410000017N200818104700000000000103009180000000000000000000000000000000000000000100058951733734ROSINEA MIRANDA CORREA DOS SAN          RUA: IGUACU                             PARQUE LAFAI25015350DUQUE DE CAXIASRJUNIAO UMB DOS CULTOS AFRO BRAS    30091810 000118
10231987175000168817800093673    000026391                    000263910000000000000109                     I0126391     30091800000000035003410000017N200818104700000000000103009180000000000000000000000000000000000000000100077575644768ROBSON ANDRE GONCALVES OUREM            RUA: RECIFE                             CAMPOS ELISE21032060RIO DE JANEIRO RJUNIAO UMB DOS CULTOS AFRO BRAS    30091810 000119
10231987175000168817800093673    000026390                    000263900000000000000109                     I0126390     30091800000000035003410000017N200818104700000000000103009180000000000000000000000000000000000000000100078190290720IARA PIO GOMES MARQUES                  RUA MARTINS SARAZATI                    GUAXINDIBA  21510170RIO DE JANEIRO RJUNIAO UMB DOS CULTOS AFRO BRAS    30091810 000120
10231987175000168817800093673    000026389                    000263890000000000000109                     I0126389     30091800000000035003410000017N200818104700000000000103009180000000000000000000000000000000000000000100008601426719DAMIANA CRISTINA TORRES DA SIL          RUA: JAGUAPITAN                         SANTA MARGAR23060210CAMPO GRANDE   RJUNIAO UMB DOS CULTOS AFRO BRAS    30091810 000121
10231987175000168817800093673    000026388                    000263880000000000000109                     I0126388     30091800000000035003410000017N200818104700000000000103009180000000000000000000000000000000000000000100000000001111LUCIENE CRISTINA DE OLIVEIRA S          RUA: FRANCISCO MENDES FRANCO            CENTRO      27135170BARRA DO PIRAI RJUNIAO UMB DOS CULTOS AFRO BRAS    30091810 000122
10231987175000168817800093673    000026387                    000263870000000000000109                     I0126387     30091800000000035003410000017N200818104700000000000103009180000000000000000000000000000000000000000100074190741787JOSE ITAGIBA RODRIGUES                  TRAVESSA SANTA ROSA                     CAPELA      25916060MAGE           RJUNIAO UMB DOS CULTOS AFRO BRAS    30091810 000123
10231987175000168817800093673    000026386                    000263860000000000000109                     I0126386     30091800000000035003410000017N200818104700000000000103009180000000000000000000000000000000000000000100011704321743TATIENE DE SOUZA FRANCA DA SIL          RUA: CAMINHO DA ILHA                    ILHA DE GUAR23020200RIO DE JANEIRO RJUNIAO UMB DOS CULTOS AFRO BRAS    30091810 000124
10231987175000168817800093673    000026385                    000263850000000000000109                     I0126385     30091800000000035003410000017N200818104700000000000103009180000000000000000000000000000000000000000100000890225729MARINA DA SILVA ANGELO                  RUA: DOZE                               ITAMBI      24866456ITABORAI       RJUNIAO UMB DOS CULTOS AFRO BRAS    30091810 000125
10231987175000168817800093673    000026384                    000263840000000000000109                     I0126384     30091800000000035003410000017N200818104700000000000103009180000000000000000000000000000000000000000100006193629793ALESSANDRA SANTOS DE OLIVEIRA           AVENIDA: FLEXEIRA N° 1085 - ENGENHEIRO JAPERI - RJ 26413250JAPERI         RJUNIAO UMB DOS CULTOS AFRO BRAS    30091810 000126
10231987175000168817800093673    000026383                    000263830000000000000109                     I0126383     30091800000000035003410000017N200818104700000000000103009180000000000000000000000000000000000000000100001596786760LINDEMBERG DE SOUZA AMARAL              RUA: SACOPAN                            BOTAFOGO    26041480NOVA IGUACU    RJUNIAO UMB DOS CULTOS AFRO BRAS    30091810 000127
10231987175000168817800093673    000026382                    000263820000000000000109                     I0126382     30091800000000035003410000017N200818104700000000000103009180000000000000000000000000000000000000000100075874520791MARIA JOSE MELO DA SILVA                RUA SIDNEY                              PARAISO     26297249NOVA IGUACU    RJUNIAO UMB DOS CULTOS AFRO BRAS    30091810 000128
10231987175000168817800093673    000026381                    000263810000000000000109                     I0126381     30091800000000035003410000017N200818104700000000000103009180000000000000000000000000000000000000000100076719588753JULIO CESAR CASTRILON                   RUA: SANTA TEREZINHA                    MURIQUI     23870000MANGARATIBA    RJUNIAO UMB DOS CULTOS AFRO BRAS    30091810 000129
10231987175000168817800093673    000026380                    000263800000000000000109                     I0126380     30091800000000035003410000017N200818104700000000000103009180000000000000000000000000000000000000000100003554736740TANIA CAMPOS CAMILLO                    RUA: GUATAMBU LOTE 4 QUADRA 9 - VILA ERAVILA ERA - S26167750BELFORD ROXO   RJUNIAO UMB DOS CULTOS AFRO BRAS    30091810 000130
10231987175000168817800093673    000026379                    000263790000000000000109                     I0126379     30091800000000035003410000017N200818104700000000000103009180000000000000000000000000000000000000000100002349584720UANDERSON MARTINS DE PAULA              RUA MUNIZ E BARROS                      RIO D OURO  26910000MIGUEL PEREIRA RJUNIAO UMB DOS CULTOS AFRO BRAS    30091810 000131
10231987175000168817800093673    000026378                    000263780000000000000109                     I0126378     30091800000000035003410000017N200818104700000000000103009180000000000000000000000000000000000000000100099213133715CLAUDIO LOPES ALBINO                    RUA: MARECHAL AGRICOLA                  REALENGO    21735370RIO DE JANEIRO RJUNIAO UMB DOS CULTOS AFRO BRAS    30091810 000132
10231987175000168817800093673    000026377                    000263770000000000000109                     I0126377     30091800000000035003410000017N200818104700000000000103009180000000000000000000000000000000000000000100008324809759CARLA DA SILVA JUSTINO                  RUA DAS CAMELIAS                        PIRANEMA    23855220ITAGUAI        RJUNIAO UMB DOS CULTOS AFRO BRAS    30091810 000133
10231987175000168817800093673    000026376                    000263760000000000000109                     I0126376     30091800000000035003410000017N200818104700000000000103009180000000000000000000000000000000000000000100033104468753NILZA ALVES CHAROTTA                    RUA LAGUNA                              NOVA PIAN   04610003SAO PAULO      SPUNIAO UMB DOS CULTOS AFRO BRAS    30091810 000134
10231987175000168817800093673    000026375                    000263750000000000000109                     I0126375     30091800000000035003410000017N200818104700000000000103009180000000000000000000000000000000000000000100003315003700ROGERIO DE SOUZA RODRIGUES              RUA: DA LAGOA                           SAO BENTO   28600000DUQUE DE CAXIASRJUNIAO UMB DOS CULTOS AFRO BRAS    30091810 000135
10231987175000168817800093673    000026374                    000263740000000000000109                     I0126374     30091800000000035003410000017N200818104700000000000103009180000000000000000000000000000000000000000100073431850715SIDNEY MEGE                             RUA: GENERAL CORREIA DO LAGO            HONORIO GURG21511320RIO DE JANEIRO RJUNIAO UMB DOS CULTOS AFRO BRAS    30091810 000136
10231987175000168817800093673    000026373                    000263730000000000000109                     I0126373     30091800000000035003410000017N200818104700000000000103009180000000000000000000000000000000000000000100002411217790WANDERLEI DA CONCEICAO LUIZ             RUA PEREIRA DA NOBREGA                  MARECHAL HER21610460RIO DE JANEIRO RJUNIAO UMB DOS CULTOS AFRO BRAS    30091810 000137
10231987175000168817800093673    000026372                    000263720000000000000109                     I0126372     30091800000000035003410000017N200818104700000000000103009180000000000000000000000000000000000000000100008679284769ANA PAULA DA SILVA BRAGA                RUA ELVIRA DA FONSECA                   TANQUE      22733150RIO DE JANEIRO RJUNIAO UMB DOS CULTOS AFRO BRAS    30091810 000138
10231987175000168817800093673    000026371                    000263710000000000000109                     I0126371     30091800000000035003410000017N200818104700000000000103009180000000000000000000000000000000000000000100002868269761ISLAND LUIZA DE ALMEIDA SIMOES          RUA: BACOPA                             BENTO RIBEIR21331140RIO DE JANEIRO RJUNIAO UMB DOS CULTOS AFRO BRAS    30091810 000139
10231987175000168817800093673    000026370                    000263700000000000000109                     I0126370     30091800000000035003410000017N200818104700000000000103009180000000000000000000000000000000000000000100002154760775JOSEFA SANTANA DA SILVA                 RUA: CACHOEIRA ALTA QUADRA 105 LOTE 19 -GUARATIBA - 23031070RIO DE JANEIRO RJUNIAO UMB DOS CULTOS AFRO BRAS    30091810 000140
10231987175000168817800093673    000026369                    000263690000000000000109                     I0126369     30091800000000035003410000017N200818104700000000000103009180000000000000000000000000000000000000000100004545448712LUCIANA DE SOUZA PIMENTA                RUA: HUGO BALDESSARINI Nº 125          VISTA ALEGRE21236040RIO DE JANEIRO RJUNIAO UMB DOS CULTOS AFRO BRAS    30091810 000141
10231987175000168817800093673    000026368                    000263680000000000000109                     I0126368     30091800000000035003410000017N200818104700000000000103009180000000000000000000000000000000000000000100003328096760MARCO ANTONIO DA SILVA                  RUA: WALDEMAR VIEIRA AFONSO             CARANGOLA   25715402DUQUE DE CAXIASRJUNIAO UMB DOS CULTOS AFRO BRAS    30091810 000142
10231987175000168817800093673    000026367                    000263670000000000000109                     I0126367     30091800000000035003410000017N200818104700000000000103009180000000000000000000000000000000000000000100069974578787ANTONIA RIBEIRO RAPOSO                  RUA: DOUTOR ARI CHAGAS Nº 470          SEPETIBA - R23545280RIO DE JANEIRO RJUNIAO UMB DOS CULTOS AFRO BRAS    30091810 000143
10231987175000168817800093673    000026366                    000263660000000000000109                     I0126366     30091800000000035003410000017N200818104700000000000103009180000000000000000000000000000000000000000100033374023568LEONICE MAGALHAES LEAL                  RUA: MENDES FERREIRA                    SANTA TEREZI48011270ALAGOINHAS     BAUNIAO UMB DOS CULTOS AFRO BRAS    30091810 000144
10231987175000168817800093673    000026365                    000263650000000000000109                     I0126365     30091800000000035003410000017N200818104700000000000103009180000000000000000000000000000000000000000100003723310761RODRIGO CARDOSO DA CUNHA                EST: VELHA DE MARICA                    BALDEADOR   24140000NITEROI        RJUNIAO UMB DOS CULTOS AFRO BRAS    30091810 000145
10231987175000168817800093673    000026364                    000263640000000000000109                     I0126364     30091800000000035003410000017N200818104700000000000103009180000000000000000000000000000000000000000100002664636731ANA LUCIA GATTO                         RUA: DAS ESMERALDAS                     JARDIM CATAR24715602SAO GONCALO    RJUNIAO UMB DOS CULTOS AFRO BRAS    30091810 000146
10231987175000168817800093673    000026363                    000263630000000000000109                     I0126363     30091800000000035003410000017N200818104700000000000103009180000000000000000000000000000000000000000100097129461772ROSINEIDE BARBOSA DA SILVA              RUA: ADILSON FERREIRA                   PIABETA     24210205MAGE           RJUNIAO UMB DOS CULTOS AFRO BRAS    30091810 000147
10231987175000168817800093673    000026362                    000263620000000000000109                     I0126362     30091800000000035003410000017N200818104700000000000103009180000000000000000000000000000000000000000100040090000749MARIA CONCEICAO CESAR MARQUES           RUA DOUTOR MANOEL MARREIROS             ILHA DO GOVE21910080RIO DE JANEIRO RJUNIAO UMB DOS CULTOS AFRO BRAS    30091810 000148
10231987175000168817800093673    000026361                    000263610000000000000109                     I0126361     30091800000000035003410000017N200818104700000000000103009180000000000000000000000000000000000000000100008646303799JULIO CESAR DE JESUS VEIGA              ESTRADA COMANDANTE LUIZ SOLTO           TANQUE      22733040RIO DE JANEIRO RJUNIAO UMB DOS CULTOS AFRO BRAS    30091810 000149
10231987175000168817800093673    000026360                    000263600000000000000109                     I0126360     30091800000000035003410000017N200818104700000000000103009180000000000000000000000000000000000000000100007802202779ROBERTO DE OLIVEIRA ALONSO NET          RUA: VEREADOR FRANCISCO NUNES           CENTRO      26540040NILOPOLIS      RJUNIAO UMB DOS CULTOS AFRO BRAS    30091810 000150
10231987175000168817800093673    000026359                    000263590000000000000109                     I0126359     30091800000000035003410000017N200818104700000000000103009180000000000000000000000000000000000000000100014662958725LUAN HENRIQUE MONTEIRO                  ESTRADA DO PARAISO                      CASTELANEA  25635412PETROPOLIS     RJUNIAO UMB DOS CULTOS AFRO BRAS    30091810 000151
10231987175000168817800093673    000026358                    000263580000000000000109                     I0126358     30091800000000035003410000017N200818104700000000000103009180000000000000000000000000000000000000000100018324860797ORLANDO ROCHA                           RUA EDUARDO CESAR MACHADO               ANCHIETA    21635140RIO DE JANEIRO RJUNIAO UMB DOS CULTOS AFRO BRAS    30091810 000152
10231987175000168817800093673    000026357                    000263570000000000000109                     I0126357     30091800000000035003410000017N200818104700000000000103009180000000000000000000000000000000000000000100006927798705ROSA MARIA RICARDO PINTO                RUA JOAQUIM BESSA                       TRINDADE    24210205SAO GONCALO    RJUNIAO UMB DOS CULTOS AFRO BRAS    30091810 000153
10231987175000168817800093673    000026356                    000263560000000000000109                     I0126356     30091800000000035003410000017N200818104700000000000103009180000000000000000000000000000000000000000100043013350725CARLOS ALBERTO DUARTE                   RUA EUNAPIO DEIRO, 13                   REALENGO - R21710020RIO DE JANEIRO RJUNIAO UMB DOS CULTOS AFRO BRAS    30091810 000154
10231987175000168817800093673    000026355                    000263550000000000000109                     I0126355     30091800000000035003410000017N200818104700000000000103009180000000000000000000000000000000000000000100043839312787GILDA MANOELA                           RUA CRISANTEMOS                         PRADOS VERDE26299039NOVA IGUACU    RJUNIAO UMB DOS CULTOS AFRO BRAS    30091810 000155
10231987175000168817800093673    000026354                    000263540000000000000109                     I0126354     30091800000000035003410000017N200818104700000000000103009180000000000000000000000000000000000000000100011187294713RONAN RICARDO SANTOS DE ASSIS           RUA DOUTOR LUIZ GALDIER-LEI             PENHA       21070100RIO DE JANEIRO RJUNIAO UMB DOS CULTOS AFRO BRAS    30091810 000156
10231987175000168817800093673    000026353                    000263530000000000000109                     I0126353     30091800000000035003410000017N200818104700000000000103009180000000000000000000000000000000000000000100004756437710FABIANA DE SOUZA CAMPOS                 RUA SAO RAIMUNDO                        KM 32       26298722NOVA IGUACU    RJUNIAO UMB DOS CULTOS AFRO BRAS    30091810 000157
10231987175000168817800093673    000026352                    000263520000000000000109                     I0126352     30091800000000035003410000017N200818104700000000000103009180000000000000000000000000000000000000000100005243182710JACIRA HELENA MAURICIO ARRUDA           AVENIDA TENENTE REBELO                  IRAJA       21241460RIO DE JANEIRO RJUNIAO UMB DOS CULTOS AFRO BRAS    30091810 000158
10231987175000168817800093673    000026351                    000263510000000000000109                     I0126351     30091800000000035003410000017N200818104700000000000103009180000000000000000000000000000000000000000100059475161791MARIA NAZARETE ALVES ANTONIO            TRAVESSA SANTOS DUMONT                  ILHA DO GOVE21910490RIO DE JANEIRO RJUNIAO UMB DOS CULTOS AFRO BRAS    30091810 000159
10231987175000168817800093673    000026350                    000263500000000000000109                     I0126350     30091800000000035003410000017N200818104700000000000103009180000000000000000000000000000000000000000100043224164700CLEUZA LORETTE GONCALVES                RUA IPE                                 VARGEM PEQUE22783409RIO DE JANEIRO RJUNIAO UMB DOS CULTOS AFRO BRAS    30091810 000160
10231987175000168817800093673    000026349                    000263490000000000000109                     I0126349     30091800000000035003410000017N200818104700000000000103009180000000000000000000000000000000000000000100098194542715MARCIA CRISTINA LEAL DA ROCHA           RUA PADRE ANCHIETA                      ALTO DA SERR25635150PETROPOLIS     RJUNIAO UMB DOS CULTOS AFRO BRAS    30091810 000161
10231987175000168817800093673    000026348                    000263480000000000000109                     I0126348     30091800000000035003410000017N200818104700000000000103009180000000000000000000000000000000000000000100005215642710ROBERTA LIMA GRIJO                      RUA FLORANIA                            VISTA ALEGRE21230700RIO DE JANEIRO RJUNIAO UMB DOS CULTOS AFRO BRAS    30091810 000162
10231987175000168817800093673    000026347                    000263470000000000000109                     I0126347     30091800000000035003410000017N200818104700000000000103009180000000000000000000000000000000000000000100050946510725MARIA LUIZA DOS SANTOS                  RUA J                                   CAMPINHO    21330735RIO DE JANEIRO RJUNIAO UMB DOS CULTOS AFRO BRAS    30091810 000163
10231987175000168817800093673    000026346                    000263460000000000000109                     I0126346     30091800000000035003410000017N200818104700000000000103009180000000000000000000000000000000000000000100042956765787ARACILDA DOS SANTOS FREITAS             RUA BAHIA                               JUSCELINO   26556440MESQUITA       RJUNIAO UMB DOS CULTOS AFRO BRAS    30091810 000164
10231987175000168817800093673    000026345                    000263450000000000000109                     I0126345     30091800000000035003410000017N200818104700000000000103009180000000000000000000000000000000000000000100009146841750ALEXANDRE BORGES DO NASCIMENTO          CERTALINA VIANA TEIXEIRA                PARQUE SAO V26556480CHATUBA        RJUNIAO UMB DOS CULTOS AFRO BRAS    30091810 000165
10231987175000168817800093673    000026344                    000263440000000000000109                     I0126344     30091800000000035003410000017N200818104700000000000103009180000000000000000000000000000000000000000100002673106766JANAINA MARQUES ALVES SANTOS T          RUA C                                   BASILIO     28800000RIO DE JANEIRO RJUNIAO UMB DOS CULTOS AFRO BRAS    30091810 000166
10231987175000168817800093673    000026343                    000263430000000000000109                     I0126343     30091800000000035003410000017N200818104700000000000103009180000000000000000000000000000000000000000100090285646753JORGE LUIZ SILVA ARAUJO                 RUA MANOEL FRANCISCO ALVES              IMPERADOR   25926346MAGE           RJUNIAO UMB DOS CULTOS AFRO BRAS    30091810 000167
10231987175000168817800093673    000026342                    000263420000000000000109                     I0126342     30091800000000035003410000017N200818104700000000000103009180000000000000000000000000000000000000000100040215326768ANTONIO JOAQUIM DOS SANTOS FIL          RUA SAO FRANCISCO                       SEROPEDICA  23890000RIO DE JANEIRO RJUNIAO UMB DOS CULTOS AFRO BRAS    30091810 000168
10231987175000168817800093673    000026341                    000263410000000000000109                     I0126341     30091800000000035003410000017N200818104700000000000103009180000000000000000000000000000000000000000100077220145772ANGELA MARIA VIANA DOS SANTOS           RUA ANTONIO ALEXANDRE DE OLIVEIRA       CENTRO      25515050SAO JOAO DE MERRJUNIAO UMB DOS CULTOS AFRO BRAS    30091810 000169
10231987175000168817800093673    000026340                    000263400000000000000109                     I0126340     30091800000000035003410000017N200818104700000000000103009180000000000000000000000000000000000000000100061692000730JOAQUIM PEIXOTO                         RUA W                                   LAGOMAR     27970130MACAE          RJUNIAO UMB DOS CULTOS AFRO BRAS    30091810 000170
10231987175000168817800093673    000026339                    000263390000000000000109                     I0126339     30091800000000035003410000017N200818104700000000000103009180000000000000000000000000000000000000000100007000973765SILVIA DAS GRACAS SANTANA               RUA NELIO CHAMBARELLI                   JARDIM SAO M26313040QUEIMADOS      RJUNIAO UMB DOS CULTOS AFRO BRAS    30091810 000171
10231987175000168817800093673    000026338                    000263380000000000000109                     I0126338     30091800000000035003410000017N200818104700000000000103009180000000000000000000000000000000000000000100008664578756ATILA LARRICE GALDINO                   RUA MINERVINA NUNES DA COSTA, 238 FUNDOSPARQUE ANCHI21635350RIO DE JANEIRO RJUNIAO UMB DOS CULTOS AFRO BRAS    30091810 000172
10231987175000168817800093673    000026337                    000263370000000000000109                     I0126337     30091800000000035003410000017N200818104700000000000103009180000000000000000000000000000000000000000100008468031780JANAINA QUINTELLA BARROS                RUA SEIS                                ANAIA PEQUEN24130606NITEROI        RJUNIAO UMB DOS CULTOS AFRO BRAS    30091810 000173
10231987175000168817800093673    000026336                    000263360000000000000109                     I0126336     30091800000000035003410000017N200818104700000000000103009180000000000000000000000000000000000000000100004764270706FLAVIO AILTON BRAGA FERREIRA            RUA CABURI                              ROCHA MIRAND21550050RIO DE JANEIRO RJUNIAO UMB DOS CULTOS AFRO BRAS    30091810 000174
10231987175000168817800093673    000026335                    000263350000000000000109                     I0126335     30091800000000035003410000017N200818104700000000000103009180000000000000000000000000000000000000000100002626885738MARIA LUISA DIAS CRUZ                   RUA DIONISIO FERNANDES                  ENGENHO DE D20730400RIO DE JANEIRO RJUNIAO UMB DOS CULTOS AFRO BRAS    30091810 000175
10231987175000168817800093673    000026334                    000263340000000000000109                     I0126334     30091800000000035003410000017N200818104700000000000103009180000000000000000000000000000000000000000100002046107705PAULO SERGIO MILITAO HENRIQUE           RUA VIENA                               BRAS DE PINA21215350RIO DE JANEIRO RJUNIAO UMB DOS CULTOS AFRO BRAS    30091810 000176
10231987175000168817800093673    000026333                    000263330000000000000109                     I0126333     30091800000000035003410000017N200818104700000000000103009180000000000000000000000000000000000000000100060471859753MARLENE IBRAIN                          RUA: DOUTOR ALVARO DA PAIXAO JR         PARQUE AEROP27971180MACAE          RJUNIAO UMB DOS CULTOS AFRO BRAS    30091810 000177
10231987175000168817800093673    000026332                    000263320000000000000109                     I0126332     30091800000000035003410000017N200818104700000000000103009180000000000000000000000000000000000000000100033630631720JOSE ANTONIO CERQUEIRA                  AVENIDA CARNAUBEIRA                     GUARATIBA   20260220RIO DE JANEIRO RJUNIAO UMB DOS CULTOS AFRO BRAS    30091810 000178
10231987175000168817800093673    000026331                    000263310000000000000109                     I0126331     30091800000000035003410000017N200818104700000000000103009180000000000000000000000000000000000000000100065936957772ANTONIO CLAUDIO PEREIRA                 RUA LADEIRA DA REUNIAO, LOTE 6          TANQUE - JAC22773090RIO DE JANEIRO RJUNIAO UMB DOS CULTOS AFRO BRAS    30091810 000179
10231987175000168817800093673    000026330                    000263300000000000000109                     I0126330     30091800000000035003410000017N200818104700000000000103009180000000000000000000000000000000000000000100090085310700ROSANGELA VILELA FERREIRA               RUA MATURACA,                           PENHA CIRCUL21210360RIO DE JANEIRO RJUNIAO UMB DOS CULTOS AFRO BRAS    30091810 000180
10231987175000168817800093673    000026329                    000263290000000000000109                     I0126329     30091800000000035003410000017N200818104700000000000103009180000000000000000000000000000000000000000100011297806786THIAGO PEREIRA DE BRITO                 RUA SAO JANUARIO                        FONSECA     24130386NITEROI        RJUNIAO UMB DOS CULTOS AFRO BRAS    30091810 000181
10231987175000168817800093673    000026328                    000263280000000000000109                     I0126328     30091800000000035003410000017N200818104700000000000103009180000000000000000000000000000000000000000100034415688772JORGE FERNANDES BEZERRA                 RUA: LEOCADIA                           REALENGO    21770190RIO DE JANEIRO RJUNIAO UMB DOS CULTOS AFRO BRAS    30091810 000182
10231987175000168817800093673    000026327                    000263270000000000000109                     I0126327     30091800000000035003410000017N200818104700000000000103009180000000000000000000000000000000000000000100003436203750ANDRE HENRIQUE FELICIO DE AZEV          ESTRADA: VELHA DO PIAI                  SEPETIBA    23530800RIO DE JANEIRO RJUNIAO UMB DOS CULTOS AFRO BRAS    30091810 000183
10231987175000168817800093673    000026326                    000263260000000000000109                     I0126326     30091800000000035003410000017N200818104700000000000103009180000000000000000000000000000000000000000100010703174703LEILIANE NOGUEIRA OLIVEIRA              TRAVESSA VINTE E OITO                   PARQUE SANTA26115230BELFORD ROXO   RJUNIAO UMB DOS CULTOS AFRO BRAS    30091810 000184
10231987175000168817800093673    000026325                    000263250000000000000109                     I0126325     30091800000000035003410000017N200818104700000000000103009180000000000000000000000000000000000000000100081561326704MARCIO ELIAS GONCALVES                  RUA: NOVA                               GUARATIBA   21820210RIO DE JANEIRO RJUNIAO UMB DOS CULTOS AFRO BRAS    30091810 000185
10231987175000168817800093673    000026324                    000263240000000000000109                     I0126324     30091800000000035003410000017N200818104700000000000103009180000000000000000000000000000000000000000100001936810727ALEX SALES ABBAS                        RUA BRASILIA                            COELHO DA RO25507200SAO JOAO DE MERRJUNIAO UMB DOS CULTOS AFRO BRAS    30091810 000186
10231987175000168817800093673    000026323                    000263230000000000000109                     I0126323     30091800000000035003410000017N200818104700000000000103009180000000000000000000000000000000000000000100001143711726MARLENE GOMES CAETANO AUGUSTO           RUA JOAQUIM CAETANO                     JARDIM ALVOR26261350NOVA IGUACU    RJUNIAO UMB DOS CULTOS AFRO BRAS    30091810 000187
10231987175000168817800093673    000026322                    000263220000000000000109                     I0126322     30091800000000035003410000017N200818104700000000000103009180000000000000000000000000000000000000000100075745658720ELIZIETE COIMBRA DE FRANCA              RUA SAO LOURENCO                        SANTA RITA  26050630NOVA IGUACU    RJUNIAO UMB DOS CULTOS AFRO BRAS    30091810 000188
10231987175000168817800093673    000026321                    000263210000000000000109                     I0126321     30091800000000035003410000017N200818104700000000000103009180000000000000000000000000000000000000000100007326065780MARCELO BORGES DE SOUZA                 RUA PLINIO CASADO                       ENGENHOCA   24110475RIO DE JANEIRO RJUNIAO UMB DOS CULTOS AFRO BRAS    30091810 000189
10231987175000168817800093673    000026320                    000263200000000000000109                     I0126320     30091800000000035003410000017N200818104700000000000103009180000000000000000000000000000000000000000100063705630725JOSE ANTONIO SOARES PENEDO              RUA MANUEL DA SILVA                     IRAJA       21235210RIO DE JANEIRO RJUNIAO UMB DOS CULTOS AFRO BRAS    30091810 000190
10231987175000168817800093673    000026319                    000263190000000000000109                     I0126319     30091800000000035003410000017N200818104700000000000103009180000000000000000000000000000000000000000100043548628753MARIA SALETTE MATTOSO RODRIGUE          RUA PERNAMBUCO                          ENCANTADO   20730030RIO DE JANEIRO RJUNIAO UMB DOS CULTOS AFRO BRAS    30091810 000191
10231987175000168817800093673    000026318                    000263180000000000000109                     I0126318     30091800000000035003410000017N200818104700000000000103009180000000000000000000000000000000000000000100007117717742MARCELO VITAL DOMINATO                  RUA ATIBA                               CACHAMBI    20785110RIO DE JANEIRO RJUNIAO UMB DOS CULTOS AFRO BRAS    30091810 000192
10231987175000168817800093673    000026317                    000263170000000000000109                     I0126317     30091800000000035003410000017N200818104700000000000103009180000000000000000000000000000000000000000100014399025778ALAN MARTINS RIBEIRO                    RUA CACEQUI                             CALIFORNIA  26220150NOVA IGUACU    RJUNIAO UMB DOS CULTOS AFRO BRAS    30091810 000193
10231987175000168817800093673    000026316                    000263160000000000000109                     I0126316     30091800000000035003410000017N200818104700000000000103009180000000000000000000000000000000000000000100057232350791NELSON CARNEIRO DA SILVA                RUA H                                   BADU        24320225NITEROI        RJUNIAO UMB DOS CULTOS AFRO BRAS    30091810 000194
10231987175000168817800093673    000026315                    000263150000000000000109                     I0126315     30091800000000035003410000017N200818104700000000000103009180000000000000000000000000000000000000000100071115498720CLEVELAND JOSE LOPES JUNIOR             RUA CONSELHEIRO AGUSTINHO               PILARES     20750094RIO DE JANEIRO RJUNIAO UMB DOS CULTOS AFRO BRAS    30091810 000195
10231987175000168817800093673    000026314                    000263140000000000000109                     I0126314     30091800000000035003410000017N200818104700000000000103009180000000000000000000000000000000000000000100001326484745IRACEMA DE OLIVEIRA ROSA BARBO          RUA CACILDA 127 FUNDOS QUADRA 60        COELHO DA RO25550140SAO JOAO DE MERRJUNIAO UMB DOS CULTOS AFRO BRAS    30091810 000196
10231987175000168817800093673    000026313                    000263130000000000000109                     I0126313     30091800000000035003410000017N200818104700000000000103009180000000000000000000000000000000000000000100003622363755LUCIENE DA SILVA                        RUA AMADIR LEITE, 106                   JARDIM MONTE26041620NOVA IGUACU    RJUNIAO UMB DOS CULTOS AFRO BRAS    30091810 000197
10231987175000168817800093673    000026312                    000263120000000000000109                     I0126312     30091800000000035003410000017N200818104700000000000103009180000000000000000000000000000000000000000100001647427789SELMA CRISTINA DE HOLANDA PERR          AVENIDA MANAUS                          TRINDADE    24456320SAO GONCALO    RJUNIAO UMB DOS CULTOS AFRO BRAS    30091810 000198
10231987175000168817800093673    000026311                    000263110000000000000109                     I0126311     30091800000000035003410000017N200818104700000000000103009180000000000000000000000000000000000000000100004223999737CLEONICE LIMA NASCIMENTO                RUA: JOSE DE ALENCAR                    DUQUE DE CAX25267300DUQUE DE CAXIASRJUNIAO UMB DOS CULTOS AFRO BRAS    30091810 000199
10231987175000168817800093673    000026310                    000263100000000000000109                     I0126310     30091800000000035003410000017N200818104700000000000103009180000000000000000000000000000000000000000100000000001062MARCELO DO VALLE ABREU                  RUA DEPUTADO SA REGO, 211 FUNDOS        VILA SAO LUI25065030DUQUE DE CAXIASRJUNIAO UMB DOS CULTOS AFRO BRAS    30091810 000200
10231987175000168817800093673    000026309                    000263090000000000000109                     I0126309     30091800000000035003410000017N200818104700000000000103009180000000000000000000000000000000000000000100009485186770MARTA FERREIRA BENVINDO PIMENT          RUA: JOSE MARIA Nº 169                 PENHA - RJ  21070140RIO DE JANEIRO RJUNIAO UMB DOS CULTOS AFRO BRAS    30091810 000201
10231987175000168817800093673    000026308                    000263080000000000000109                     I0126308     30091800000000035003410000017N200818104700000000000103009180000000000000000000000000000000000000000100008486144612BRUNO FELIPE KALIL HOMSE                RUA JOAQUIM BENEDITO DE PAULA, 639      SAO GERALDO 37558101POUSO ALEGRE   MGUNIAO UMB DOS CULTOS AFRO BRAS    30091810 000202
10231987175000168817800093673    000026307                    000263070000000000000109                     I0126307     30091800000000035003410000017N200818104700000000000103009180000000000000000000000000000000000000000200000000010582NILO SERGIO SANTOS BARCELLOS            ESTRADA CORONEL VIEIRA, 134 BLOCO 4 APTOIRAJA - RJ  21220310RIO DE JANEIRO RJUNIAO UMB DOS CULTOS AFRO BRAS    30091810 000203
10231987175000168817800093673    000026306                    000263060000000000000109                     I0126306     30091800000000035003410000017N200818104700000000000103009180000000000000000000000000000000000000000100073885169720MACARIO RODRIGUES DA FONSECA J          RUA GILDA MARIA, 21                     PARQUE FLORA26040820NOVA IGUACU    RJUNIAO UMB DOS CULTOS AFRO BRAS    30091810 000204
10231987175000168817800093673    000026305                    000263050000000000000109                     I0126305     30091800000000035003410000017N200818104700000000000103009180000000000000000000000000000000000000000100000110269799MARILSA DA GLORIA CAMPOS                TRAVESSA: ITABORAI                      BARRA DO PIR27110490BARRA DO PIRAI RJUNIAO UMB DOS CULTOS AFRO BRAS    30091810 000205
10231987175000168817800093673    000026304                    000263040000000000000109                     I0126304     30091800000000035003410000017N200818104700000000000103009180000000000000000000000000000000000000000100001928256740MARILZA SANTOS DE OLIVEIRA              RUA DOS PINHEIROS, 368 CASA 1 - VILA DE PRQ ANTARTIC26052720NOVA IGUACU    RJUNIAO UMB DOS CULTOS AFRO BRAS    30091810 000206
10231987175000168817800093673    000026303                    000263030000000000000109                     I0126303     30091800000000035003410000017N200818104700000000000103009180000000000000000000000000000000000000000100043599745749VANIA MARIA GOMES PEREIRA               RUA AJAPI, 510 CASA A 2                 COSMOS - RJ 23066420RIO DE JANEIRO RJUNIAO UMB DOS CULTOS AFRO BRAS    30091810 000207
10231987175000168817800093673    000026302                    000263020000000000000109                     I0126302     30091800000000035003410000017N200818104700000000000103009180000000000000000000000000000000000000000100004493547766ROBSON FRANCISCO ESCHOLASTICO           RUA MATHIAS MACHADO, 87                 ARSENAL - SA24745050SAO GONCALO    RJUNIAO UMB DOS CULTOS AFRO BRAS    30091810 000208
10231987175000168817800093673    000026301                    000263010000000000000109                     I0126301     30091800000000035003410000017N200818104700000000000103009180000000000000000000000000000000000000000100010329411705RODRIGO SILVA DO NASCIMENTO SA          RUA: PAPA FOLHA                         VILA CANAAN 25255190DUQUE DE CAXIASRJUNIAO UMB DOS CULTOS AFRO BRAS    30091810 000209
10231987175000168817800093673    000026300                    000263000000000000000109                     I0126300     30091800000000035003410000017N200818104700000000000103009180000000000000000000000000000000000000000100058835652715LUCY ALMEIDA MARTINS DA SILVA           RUA JOAO MENINO,49 FUNDOS               ITACURUCA - 23860000MANGARATIBA    RJUNIAO UMB DOS CULTOS AFRO BRAS    30091810 000210
10231987175000168817800093673    000026299                    000262990000000000000109                     I0126299     30091800000000035003410000017N200818104700000000000103009180000000000000000000000000000000000000000100001820956733JUREMA RODRIGUES DE OLIVEIRA            RUA MOREIRA 25                          SANTA CRUZ -23573200RIO DE JANEIRO RJUNIAO UMB DOS CULTOS AFRO BRAS    30091810 000211
10231987175000168817800093673    000026298                    000262980000000000000109                     I0126298     30091800000000035003410000017N200818104700000000000103009180000000000000000000000000000000000000000100091334306753LUCIA DE ANDRADE VAZ DE MELLO           RUA SANTO AGOSTINHO, 200 CASA 47        ANDARAI - RI20541260RIO DE JANEIRO RJUNIAO UMB DOS CULTOS AFRO BRAS    30091810 000212
10231987175000168817800093673    000026297                    000262970000000000000109                     I0126297     30091800000000035003410000017N200818104700000000000103009180000000000000000000000000000000000000000100081632746700LEILA DOS SANTOS SILVA                  RUA VIRGILIO BRIGIDO, 369               CAMPO GRANDE23045805RIO DE JANEIRO RJUNIAO UMB DOS CULTOS AFRO BRAS    30091810 000213
10231987175000168817800093673    000026296                    000262960000000000000109                     I0126296     30091800000000035003410000017N200818104700000000000103009180000000000000000000000000000000000000000100079291040797CELMA DA SILVA                          RUA MONS TOMAS TEIJERINA, 373           MONTE D OURO27600000VALENCA        RJUNIAO UMB DOS CULTOS AFRO BRAS    30091810 000214
10231987175000168817800093673    000026295                    000262950000000000000109                     I0126295     30091800000000035003410000017N200818104700000000000103009180000000000000000000000000000000000000000100002387294785ANDREA CONDOR GUIMARAES PINHEI          BECO DA FLORESTA 48                     SEPETIBA - R23545380RIO DE JANEIRO RJUNIAO UMB DOS CULTOS AFRO BRAS    30091810 000215
10231987175000168817800093673    000026294                    000262940000000000000109                     I0126294     30091800000000035003410000017N200818104700000000000103009180000000000000000000000000000000000000000100002381411798MARIA RISONETE DE OLIVEIRA SOA          ESTRADA DA COIVARA, 224                 VILA MARIA H25251090DUQUE DE CAXIASRJUNIAO UMB DOS CULTOS AFRO BRAS    30091810 000216
10231987175000168817800093673    000026293                    000262930000000000000109                     I0126293     30091800000000035003410000017N200818104700000000000103009180000000000000000000000000000000000000000100025569929720JOSE WILSON DE ARAUJO                   RUA C 2 LOTE 25 QUADRA 44               JARDIM GUARR23062000RIO DE JANEIRO RJUNIAO UMB DOS CULTOS AFRO BRAS    30091810 000217
10231987175000168817800093673    000026292                    000262920000000000000109                     I0126292     30091800000000035003410000017N200818104700000000000103009180000000000000000000000000000000000000000100090789407787ANA CLAUDIA DOS SANTOS TITO             RUA ONZE LOTE 17 QUADRA 48              PIABETA  MAG23025210RIO DE JANEIRO RJUNIAO UMB DOS CULTOS AFRO BRAS    30091810 000218
10231987175000168817800093673    000026291                    000262910000000000000109                     I0126291     30091800000000035003410000017N200818104700000000000103009180000000000000000000000000000000000000000100069725209753YRACE MOEMA GRAULT SCHNOOR              RUA ATILIO PIFIER                       SEPETIBA - R23535010RIO DE JANEIRO RJUNIAO UMB DOS CULTOS AFRO BRAS    30091810 000219
10231987175000168817800093673    000026290                    000262900000000000000109                     I0126290     30091800000000035003410000017N200818104700000000000103009180000000000000000000000000000000000000000100068863292787MARIA JOSE DA SILVA                     RUA LAVOISIER LOTE 7 QUADRA 121         PARQUE PAULI25261390DUQUE DE CAXIASRJUNIAO UMB DOS CULTOS AFRO BRAS    30091810 000220
10231987175000168817800093673    000026289                    000262890000000000000109                     I0126289     30091800000000035003410000017N200818104700000000000103009180000000000000000000000000000000000000000100002413896740ADRIANO CAMILO DOS SANTOS               RUA SANTA ISABEL, 328 CASA 9            PALHADA - NO26290102NOVA IGUACU    RJUNIAO UMB DOS CULTOS AFRO BRAS    30091810 000221
10231987175000168817800093673    000026288                    000262880000000000000109                     I0126288     30091800000000035003410000017N200818104700000000000103009180000000000000000000000000000000000000000100071360573704GREICE DE SOUZA MILHAR DA SILV          RUA BARAO SAO FRANCISCO                 VILA ISABEL 20541372RIO DE JANEIRO RJUNIAO UMB DOS CULTOS AFRO BRAS    30091810 000222
10231987175000168817800093673    000026287                    000262870000000000000109                     I0126287     30091800000000035003410000017N200818104700000000000103009180000000000000000000000000000000000000000100042598907787IRACI CARDOSO DOS SANTOS                RUA LUIZ FELECIANO  LARANJAL, LOTE 16 QULARANJAL - S24725370SAO GONCALO    RJUNIAO UMB DOS CULTOS AFRO BRAS    30091810 000223
10231987175000168817800093673    000026286                    000262860000000000000109                     I0126286     30091800000000035003410000017N200818104700000000000103009180000000000000000000000000000000000000000100008184015755ELIZABETH DE SOUZA                      RUA MERCURIO, 36 CASA 3 FUNDOS          SANTA TEREZI26553260MESQUITA       RJUNIAO UMB DOS CULTOS AFRO BRAS    30091810 000224
10231987175000168817800093673    000026285                    000262850000000000000109                     I0126285     30091800000000035003410000017N200818104700000000000103009180000000000000000000000000000000000000000100011140864793CLAUDIA THEODORO                        RUA VINTE E NOVE DE SETEMBRO, 1760      CARAMBITA - 27600000VALENCA        RJUNIAO UMB DOS CULTOS AFRO BRAS    30091810 000225
10231987175000168817800093673    000026284                    000262840000000000000109                     I0126284     30091800000000025003410000017N200818104700000000000103009180000000000000000000000000000000000000000100015744914587ARISTOCLEMILDA PEREIRA DOS SAN          RUA M, LOTE 23 QUADRA 67                VILA EMA - I25271540DUQUE DE CAXIASRJUNIAO UMB DOS CULTOS AFRO BRAS    30091810 000226
10231987175000168817800093673    000026283                    000262830000000000000109                     I0126283     30091800000000035003410000017N200818104700000000000103009180000000000000000000000000000000000000000100034194924720DELSON ANDRE DO NASCIMENTO              RUA 9 QUADRA 32 LOTE 1                  SANTA RITA -26033530NOVA IGUACU    RJUNIAO UMB DOS CULTOS AFRO BRAS    30091810 000227
10231987175000168817800093673    000026282                    000262820000000000000109                     I0126282     30091800000000035003410000017N200818104700000000000103009180000000000000000000000000000000000000000200000000010388CARLOS JOSE GOMES DA SILVA              RUA JABOTI, 200  CASA 2                 BRAS DE PINA21215330RIO DE JANEIRO RJUNIAO UMB DOS CULTOS AFRO BRAS    30091810 000228
10231987175000168817800093673    000026281                    000262810000000000000109                     I0126281     30091800000000035003410000017N200818104700000000000103009180000000000000000000000000000000000000000100083679472749SILVIA REGINA DE SOUZA BAPTIST          RUA  LAFAIETE JOSE MEDINA, 2            CHAPEU MANGU22010020RIO DE JANEIRO RJUNIAO UMB DOS CULTOS AFRO BRAS    30091810 000229
10231987175000168817800093673    000026280                    000262800000000000000109                     I0126280     30091800000000035003410000017N200818104700000000000103009180000000000000000000000000000000000000000100037256246749MARIA HELENA ARQUIMEDES CHAGAS          RUA MARIA MACIEIRA, 9 CASA 2 FUNDOS     MADUREIRA - 21310070RIO DE JANEIRO RJUNIAO UMB DOS CULTOS AFRO BRAS    30091810 000230
10231987175000168817800093673    000026279                    000262790000000000000109                     I0126279     30091800000000035003410000017N200818104700000000000103009180000000000000000000000000000000000000000100080609066749ELIANE RODRIGUES PIRES                  RUA PARAMIRIM                           BENTO RIBEIR21550610RIO DE JANEIRO RJUNIAO UMB DOS CULTOS AFRO BRAS    30091810 000231
10231987175000168817800093673    000026278                    000262780000000000000109                     I0126278     30091800000000035003410000017N200818104700000000000103009180000000000000000000000000000000000000000100007507770796MARIA DO CARMO MENDONCA MATTOS          RUA NAMUR, 325 CASA 3                   VL VALQUEIRE21330600RIO DE JANEIRO RJUNIAO UMB DOS CULTOS AFRO BRAS    30091810 000232
10231987175000168817800093673    000026277                    000262770000000000000109                     I0126277     30091800000000035003410000017N200818104700000000000103009180000000000000000000000000000000000000000100086357522791ANDRE VEIGA PEIXOTO                     ALAMEDA SAO BENTO, 43                   PARQUE SAO V26172130BELFORD ROXO   RJUNIAO UMB DOS CULTOS AFRO BRAS    30091810 000233
10231987175000168817800093673    000026276                    000262760000000000000109                     I0126276     30091800000000035003410000017N200818104700000000000103009180000000000000000000000000000000000000000100001416091769SUELY CORREA MACEDO SILVA               RUA CARVALHO DE SOUSA, 137 BLOCO 4 COB 7SAO JOAO DE 21350180RIO DE JANEIRO RJUNIAO UMB DOS CULTOS AFRO BRAS    30091810 000234
10231987175000168817800093673    000026275                    000262750000000000000109                     I0126275     30091800000000035003410000017N200818104700000000000103009180000000000000000000000000000000000000000100011782583785JORGE MARCIO DOS SANTOS SOUZA           RUA PEDRO JOSE DE OLIVEIRA, 126 CASA 2  VARGEM GRAND27145232BARRA DO PIRAI RJUNIAO UMB DOS CULTOS AFRO BRAS    30091810 000235
10231987175000168817800093673    000026274                    000262740000000000000109                     I0126274     30091800000000035003410000017N200818104700000000000103009180000000000000000000000000000000000000000100000000010273MARCIA DO NASCIMENTO LOPES              R: PROF. ELI MARIA DA SILVA BRAGA       BARRA DO PIR27150260BARRA DO PIRAI RJUNIAO UMB DOS CULTOS AFRO BRAS    30091810 000236
10231987175000168817800093673    000026273                    000262730000000000000109                     I0126273     30091800000000035003410000017N200818104700000000000103009180000000000000000000000000000000000000000100084908157715RAQUEL TAVARES FERREIRA DA SIL          RUA CATULO CEARENSE, 204                VILA GENI - 23825290RIO DE JANEIRO RJUNIAO UMB DOS CULTOS AFRO BRAS    30091810 000237
10231987175000168817800093673    000026272                    000262720000000000000109                     I0126272     30091800000000035003410000017N200818104700000000000103009180000000000000000000000000000000000000000100000000010261CARLOS ALBERTO DE SOUZA CALDAS          O MESMO                                 O MESMO     26351590QUEIMADOS      RJUNIAO UMB DOS CULTOS AFRO BRAS    30091810 000238
10231987175000168817800093673    000026271                    000262710000000000000109                     I0126271     30091800000000035003410000017N200818104700000000000103009180000000000000000000000000000000000000000200000000010260MARA LUCIA CANDIDO RAMOS                RUA NOSSA SENHORA DA PENHA, CASA 7 B    MANGUEIRAL -21755140RIO DE JANEIRO RJUNIAO UMB DOS CULTOS AFRO BRAS    30091810 000239
10231987175000168817800093673    000026270                    000262700000000000000109                     I0126270     30091800000000035003410000017N200818104700000000000103009180000000000000000000000000000000000000000200000000010241LUIZ CLAUDIO TEIXEIRA ALUIZIO           RUA ALBERTO SOARES SAMPAIO, 430 FUNDOS  TAQUARA - JA22715300RIO DE JANEIRO RJUNIAO UMB DOS CULTOS AFRO BRAS    30091810 000240
10231987175000168817800093673    000026269                    000262690000000000000109                     I0126269     30091800000000035003410000017N200818104700000000000103009180000000000000000000000000000000000000000100071567747784MARIA DO CARMO MARIANO DOS SAN          RUA PERI, SN LOTE 36                    EDEN - SAO J25535162SAO JOAO DE MERRJUNIAO UMB DOS CULTOS AFRO BRAS    30091810 000241
10231987175000168817800093673    000026268                    000262680000000000000109                     I0126268     30091800000000035003410000017N200818104700000000000103009180000000000000000000000000000000000000000100009856785774RAQUEL APARECIDA PEREIRA FLORE          RUA FRANCISCA ESTEVAO, 362              VALENCA - RI27600000RIO DE JANEIRO RJUNIAO UMB DOS CULTOS AFRO BRAS    30091810 000242
10231987175000168817800093673    000026267                    000262670000000000000109                     I0126267     30091800000000035003410000017N200818104700000000000103009180000000000000000000000000000000000000000100004273880741SOLANGE VICTORIO DE CARVALHO            RUA CELIDONIA LOTE 10 QUADRA 3B         CINCO MARIAS23032610GUARATIBA      RJUNIAO UMB DOS CULTOS AFRO BRAS    30091810 000243
10231987175000168817800093673    000026266                    000262660000000000000109                     I0126266     30091800000000035003410000017N200818104700000000000103009180000000000000000000000000000000000000000100003351716729WAGNER CONCEICAO DO NASCIMENTO          RUA CRISANTEMOS, 152 CASA 48 FRENTE - SAHITERLAND - 26171430BELFORD ROXO   RJUNIAO UMB DOS CULTOS AFRO BRAS    30091810 000244
10231987175000168817800093673    000026265                    000262650000000000000109                     I0126265     30091800000000035003410000017N200818104700000000000103009180000000000000000000000000000000000000000100091126037753SHEILA DE CARVALHO ALVARES              RUA MAGALHAES CASTRO, 111 FUNDOS        RIACHUELO - 20961020RIO DE JANEIRO RJUNIAO UMB DOS CULTOS AFRO BRAS    30091810 000245
10231987175000168817800093673    000026264                    000262640000000000000109                     I0126264     30091800000000035003410000017N200818104700000000000103009180000000000000000000000000000000000000000100069496161715JANICE DE CARVALHO                      RUA BRISA DO VALE, LOTE 23 QUADRA E     CURICICA - J22710530RIO DE JANEIRO RJUNIAO UMB DOS CULTOS AFRO BRAS    30091810 000246
10231987175000168817800093673    000026263                    000262630000000000000109                     I0126263     30091800000000035003410000017N200818104700000000000103009180000000000000000000000000000000000000000100011080748717ALVARO CHIANELLI DE AZEREDO             RUA ANDRE AZEVEDO, 87                   OLARIA - RJ 21021480RIO DE JANEIRO RJUNIAO UMB DOS CULTOS AFRO BRAS    30091810 000247
10231987175000168817800093673    000026262                    000262620000000000000109                     I0126262     30091800000000035003410000017N200818104700000000000103009180000000000000000000000000000000000000000200000000010205MARILANE BARROSO BERNARDES              RUA MARIA LIMA VIEIRA SN QUADRA D 31 LOTVILA MARGARI23821050RIO DE JANEIRO RJUNIAO UMB DOS CULTOS AFRO BRAS    30091810 000248
10231987175000168817800093673    000026261                    000262610000000000000109                     I0126261     30091800000000035003410000017N200818104700000000000103009180000000000000000000000000000000000000000100059374179768ROSANGELA MARIA DE CASTRO BEZE          RUA: DONA ISABEL                        BONSUCESSO  21032060RIO DE JANEIRO RJUNIAO UMB DOS CULTOS AFRO BRAS    30091810 000249
