01REMESSA01COBRANCA       916200163100        União Umb dos Cultos Afro Bra341BANCO ITAU SA  290119                                                                                                                                                                                                                                                                                                      000001
10231987175000168916200163100    000039646                    000396460000000000000109                     I0239646     31011900000000350003410000017N240119104700000000000103101190000000000000000000000000000000000000000100002126696723LUCI DA CUNHA ARTUR                     AVENIDA FRANCISCO CHRISOSTOMOS TORRES   PINTO DA SER27286440VOLTA REDONDA  RJUNIAO UMB DOS CULTOS AFRO BRAS    31011910 000002
9                                                                                                                                                                                                                                                                                                                                                                                                         000003
