01REMESSA01COBRANCA       817800093673        União Umb dos Cultos Afro Bra341BANCO ITAU SA  250719                                                                                                                                                                                                                                                                                                      000001
10231987175000168817800093673    000047843                    000478430000000000000109                     I3447843     30081900000000040003410000017N100619105700000000000133008190000000000000000000000000000000000000000100002362714748MAGLENE GOMES ARAUJO                    RUA TENENTE PINTO DUARTEN 36,           BENTO RIBEIR21550370RIO DE JANEIRO RJUNIAO UMB DOS CULTOS AFRO BRAS    30081915 000002
21300820190000000000080                                                                                                                                                                                                                                                                                                                                                                                   000003
10231987175000168817800093673    000046410                    000464100000000000000109                     I3446410     30071900000000040003410000017N100619105700000000000133007190000000000000000000000000000000000000000100002362714748MAGLENE GOMES ARAUJO                    RUA TENENTE PINTO DUARTEN 36,           BENTO RIBEIR21550370RIO DE JANEIRO RJUNIAO UMB DOS CULTOS AFRO BRAS    30071915 000004
21300720190000000000080                                                                                                                                                                                                                                                                                                                                                                                   000005
10231987175000168817800093673    000045434                    000454340000000000000109                     I0245434     30071900000000040003410000017N100619105700000000000133007190000000000000000000000000000000000000000100044091567720LUCIA HELENA DOS PASSOS                 RUA GN 197,                             GRANJA SANTA25937248MAGE           RJUNIAO UMB DOS CULTOS AFRO BRAS    30071915 000006
21300720190000000000080                                                                                                                                                                                                                                                                                                                                                                                   000007
10231987175000168817800093673    000045432                    000454320000000000000109                     I0245432     30071900000000040003410000017N100619105700000000000133007190000000000000000000000000000000000000000100002477166778BEATRIZ MIRANDA ABRANCHES               RUA GRUCAIN 657,                        PENHA       21020250RIO DE JANEIRO RJUNIAO UMB DOS CULTOS AFRO BRAS    30071915 000008
21300720190000000000080                                                                                                                                                                                                                                                                                                                                                                                   000009
10231987175000168817800093673    000045386                    000453860000000000000109                     I0245386     30071900000000025003410000017N100619105700000000000803007190000000000000000000000000000000000000000100042799023720MARIA DAS DORES SANTOS                  ESTRADA DO AREAL N 4,                   BOA VISTA DA27165000BARRA DO PIRAI RJUNIAO UMB DOS CULTOS AFRO BRAS    30071915 000010
21300720190000000000050                                                                                                                                                                                                                                                                                                                                                                                   000011
10231987175000168817800093673    000045325                    000453250000000000000109                     I0245325     15061900000000350003410000017N290519105700000000001161506190000000000000000000000000000000000000000100002486800727MARCIA REGINA DA SILVA SANTOS           ESTRADA DO PORTO VELHON 555, ENTRADA A CCORDOVIL    21012140RIO DE JANEIRO RJUNIAO UMB DOS CULTOS AFRO BRAS    15061915 000012
21150620190000000000700                                                                                                                                                                                                                                                                                                                                                                                   000013
10231987175000168817800093673    000045321                    000453210000000000000109                     I0245321     10061900000000300003410000017N280519105700000000000991006190000000000000000000000000000000000000000100000446671754JUSSARA MATHIAS TEIXEIRA                RUA VEREADOR OSVALDO MARCONDES N 106,   JOSE BONIFAC25515380SAO JOAO DE MERRJUNIAO UMB DOS CULTOS AFRO BRAS    10061915 000014
21100620190000000000600                                                                                                                                                                                                                                                                                                                                                                                   000015
10231987175000168817800093673    000045320                    000453200000000000000109                     I0245320     07061900000000300003410000017N280519105700000000000990706190000000000000000000000000000000000000000100012113754711ANDREZA SALDANHA DA CRUZ                RUA DA MINAN 0, LOTE 3 QUADRA 30        HELIOPOLIS  26125550BELFORD ROXO   RJUNIAO UMB DOS CULTOS AFRO BRAS    07061915 000016
21070620190000000000600                                                                                                                                                                                                                                                                                                                                                                                   000017
10231987175000168817800093673    000045319                    000453190000000000000109                     I0245319     31051900000000140003410000017N280519105700000000000463105190000000000000000000000000000000000000000100092650716720ANDRE LUIS ALMEIDA SOUZA                RUA PTOLOMEUN 0, LOTE 30 QUADRA 23      GLAUCIA     26195195BELFORD ROXO   RJUNIAO UMB DOS CULTOS AFRO BRAS    31051915 000018
21310520190000000000280                                                                                                                                                                                                                                                                                                                                                                                   000019
10231987175000168817800093673    000045316                    000453160000000000000109                     I0245316     05061900000000200003410000017N280519105700000000000660506190000000000000000000000000000000000000000100009142845769MICHELE OAZEM MINEIRO                   RUA CARIOCAN 0, LOTE 10 QUADRA B        SAO BERNARDO26167210BELFORD ROXO   RJUNIAO UMB DOS CULTOS AFRO BRAS    05061915 000020
21050620190000000000400                                                                                                                                                                                                                                                                                                                                                                                   000021
10231987175000168817800093673    000045291                    000452910000000000000109                     I0245291     10061900000000300003410000017N200519105700000000000991006190000000000000000000000000000000000000000100059480904772EDSON CORREIA                           RUA NOVA ATLANTIDAN 543,                ROSA DOS VEN26278757NOVA IGUACU    RJUNIAO UMB DOS CULTOS AFRO BRAS    10061915 000022
21100620190000000000600                                                                                                                                                                                                                                                                                                                                                                                   000023
10231987175000168817800093673    000045254                    000452540000000000000109                     I0245254     31051900000000300003410000017N080519105700000000000993105190000000000000000000000000000000000000000100089197658715JORGE LUIS DAS NEVES OLIVEIRA           RUA DAS ACUCENASN 0, LOTE 5 QUADRA 22   PRADOS VERDE26299048NOVA IGUACU    RJUNIAO UMB DOS CULTOS AFRO BRAS    31051915 000024
21310520190000000000600                                                                                                                                                                                                                                                                                                                                                                                   000025
10231987175000168817800093673    000045252                    000452520000000000000109                     I0245252     30051900000000150003410000017N080519105700000000000503005190000000000000000000000000000000000000000100050660098768ENI MARIA DA CONCEICAO DE MOUR          RUA IPIRANGAN 0, LOTE 24 E 25           BARRO BRANCO25267365DUQUE DE CAXIASRJUNIAO UMB DOS CULTOS AFRO BRAS    30051915 000026
21300520190000000000300                                                                                                                                                                                                                                                                                                                                                                                   000027
10231987175000168817800093673    000045250                    000452500000000000000109                     I0245250     30051900000000080003410000017N080519105700000000000263005190000000000000000000000000000000000000000100000916644707MARIA DA CONCEICAO DE MOURA PI          AVENIDA ANA AUGUSTAN 0, LOTE 29 QUADRA 2VILA IBIRAPI23811120ITAGUAI        RJUNIAO UMB DOS CULTOS AFRO BRAS    30051915 000028
21300520190000000000160                                                                                                                                                                                                                                                                                                                                                                                   000029
10231987175000168817800093673    000045246                    000452460000000000000109                     I0245246     30051900000000040003410000017N080519105700000000000133005190000000000000000000000000000000000000000100001568681720MARCO ANTONIO DA COSTA                  RUA LOIR NOGUEIRAN 0, LOTE 10 QUADRA 11 RIO DO OURO 24752840SAO GONCALO    RJUNIAO UMB DOS CULTOS AFRO BRAS    30051915 000030
21300520190000000000080                                                                                                                                                                                                                                                                                                                                                                                   000031
10231987175000168817800093673    000045228                    000452280000000000000109                     I0245228     30051900000000400003410000017N060519105700000000001323005190000000000000000000000000000000000000000100035129179846MOACIR DOS SANTOS JUNIOR                RUA RENATO CAMPERONIN 305,              PARQUE DAS O14065786RIBEIRAO PRETO SPUNIAO UMB DOS CULTOS AFRO BRAS    30051915 000032
21300520190000000000800                                                                                                                                                                                                                                                                                                                                                                                   000033
10231987175000168817800093673    000045226                    000452260000000000000109                     I0245226     30051900000000400003410000017N060519105700000000001323005190000000000000000000000000000000000000000100001803265620BENEDITO QUINTINO                       RUA JOSE PARAISON 313,                  RESIDENCIAL 37136044ALFENAS        MGUNIAO UMB DOS CULTOS AFRO BRAS    30051915 000034
21300520190000000000800                                                                                                                                                                                                                                                                                                                                                                                   000035
10231987175000168817800093673    000045225                    000452250000000000000109                     I0245225     30051900000000200003410000017N030519105700000000000663005190000000000000000000000000000000000000000100037345095720VERA LUCIA DA CRUZ NEVES                RUA RODRIGUES CAMPELO  N 54,            CAMPO GRANDE23017210RIO DE JANEIRO RJUNIAO UMB DOS CULTOS AFRO BRAS    30051915 000036
21300520190000000000400                                                                                                                                                                                                                                                                                                                                                                                   000037
10231987175000168817800093673    000045217                    000452170000000000000109                     I0245217     31051900000000040003410000017N030519105700000000000133105190000000000000000000000000000000000000000100096094702700NERTAN SIGWARD RODRIGUES                RUA BARAO DE VARGEM ALEGRE N 50,        VARGEM ALEGR27155000BARRA DO PIRAI RJUNIAO UMB DOS CULTOS AFRO BRAS    31051915 000038
21310520190000000000080                                                                                                                                                                                                                                                                                                                                                                                   000039
10231987175000168817800093673    000045209                    000452090000000000000109                     I0245209     30051900000000040003410000017N020519105700000000000133005190000000000000000000000000000000000000000100002088399763CLEIDE PADILHA RAMOS                    RUA PAULO FERNANDESN 10,                SAMBURA (TAM28926700CABO FRIO      RJUNIAO UMB DOS CULTOS AFRO BRAS    30051915 000040
21300520190000000000080                                                                                                                                                                                                                                                                                                                                                                                   000041
10231987175000168817800093673    000045207                    000452070000000000000109                     I0245207     30051900000000040003410000017N020519105700000000000133005190000000000000000000000000000000000000000100002366417780ROSEMAR SOARES                          RODOVIA AMARAL PEIXOTON 0, KM 1691 - TRAUNAMAR      28950000CABO FRIO      RJUNIAO UMB DOS CULTOS AFRO BRAS    30051915 000042
21300520190000000000080                                                                                                                                                                                                                                                                                                                                                                                   000043
10231987175000168817800093673    000045205                    000452050000000000000109                     I0245205     30051900000000040003410000017N020519105700000000000133005190000000000000000000000000000000000000000100000957434723SIRLENE MINEIRO DE SA                   RUA ABELARDO BARBOSAN 0, LOTE 14 QUADRA SANTA MARGAR28928704CABO FRIO      RJUNIAO UMB DOS CULTOS AFRO BRAS    30051915 000044
21300520190000000000080                                                                                                                                                                                                                                                                                                                                                                                   000045
10231987175000168817800093673    000045203                    000452030000000000000109                     I0245203     30051900000000040003410000017N020519105700000000000133005190000000000000000000000000000000000000000100007986433744JUCIARA GONCALVES ARRUDA                RUA DOS MACACOSN 38,                    UNAMAR (TAMO28928176CABO FRIO      RJUNIAO UMB DOS CULTOS AFRO BRAS    30051915 000046
21300520190000000000080                                                                                                                                                                                                                                                                                                                                                                                   000047
10231987175000168817800093673    000045201                    000452010000000000000109                     I0245201     30051900000000040003410000017N020519105700000000000133005190000000000000000000000000000000000000000100004791629728CELIO LUIZ DE SANT ANNA                 RUA DAS RAPOSASN 13, TRAVESSA DOS PREAS SAMBURA (TAM28926736CABO FRIO      RJUNIAO UMB DOS CULTOS AFRO BRAS    30051915 000048
21300520190000000000080                                                                                                                                                                                                                                                                                                                                                                                   000049
10231987175000168817800093673    000045197                    000451970000000000000109                     I0245197     30051900000000400003410000017N020519105700000000001323005190000000000000000000000000000000000000000100007955134702SOLANGE LAPOENTE PORTO                  ESTRADA DE INHOAIBA N 26,               CAMPO GRANDE23083010RIO DE JANEIRO RJUNIAO UMB DOS CULTOS AFRO BRAS    30051915 000050
21300520190000000000800                                                                                                                                                                                                                                                                                                                                                                                   000051
10231987175000168817800093673    000045189                    000451890000000000000109                     I0245189     31051900000000040003410000017N300419105700000000000133105190000000000000000000000000000000000000000100013000533729IGOR DA SILVA NOGUEROL DOS SAN          AVENIDA ALDO BOTELHON 328,              CAMPO GRANDE23055630RIO DE JANEIRO RJUNIAO UMB DOS CULTOS AFRO BRAS    31051915 000052
21310520190000000000080                                                                                                                                                                                                                                                                                                                                                                                   000053
10231987175000168817800093673    000045184                    000451840000000000000109                     I0245184     31051900000000040003410000017N300419105700000000000133105190000000000000000000000000000000000000000100011130957764MARCUS ULYSSES DE FIGUEIREDO P          RUA SAO JORGEN 764,                     CAMPO ALEGRE26292228NOVA IGUACU    RJUNIAO UMB DOS CULTOS AFRO BRAS    31051915 000054
21310520190000000000080                                                                                                                                                                                                                                                                                                                                                                                   000055
10231987175000168817800093673    000045181                    000451810000000000000109                     I0245181     31051900000000040003410000017N300419105700000000000133105190000000000000000000000000000000000000000100054475023734JUPIRACY RODRIGUES DO NASCIMEN          RUA AQUIDABAN 0, LOTE 3 QUADRA 4        CAMPO ALEGRE26292171NOVA IGUACU    RJUNIAO UMB DOS CULTOS AFRO BRAS    31051915 000056
21310520190000000000080                                                                                                                                                                                                                                                                                                                                                                                   000057
10231987175000168817800093673    000045179                    000451790000000000000109                     I0245179     31051900000000040003410000017N300419105700000000000133105190000000000000000000000000000000000000000100099644630734KLEBER BERNARDINO                       RUA AQUIDABAN 0, LOTE 4 QUADRA 2        CAMPO ALEGRE26292171NOVA IGUACU    RJUNIAO UMB DOS CULTOS AFRO BRAS    31051915 000058
21310520190000000000080                                                                                                                                                                                                                                                                                                                                                                                   000059
10231987175000168817800093673    000045177                    000451770000000000000109                     I0245177     31051900000000040003410000017N300419105700000000000133105190000000000000000000000000000000000000000100083011358753PAULO ROBERTO RAMOS DA SILVA            RUA BELAN 30,                           CAMPO ALEGRE26292168NOVA IGUACU    RJUNIAO UMB DOS CULTOS AFRO BRAS    31051915 000060
21310520190000000000080                                                                                                                                                                                                                                                                                                                                                                                   000061
10231987175000168817800093673    000045175                    000451750000000000000109                     I0245175     31051900000000040003410000017N300419105700000000000133105190000000000000000000000000000000000000000100012921241722WALQUIRIA WAM LUME SOUZA                RUA MARIO BARBOSAN 6,                   CABUCU      26291416NOVA IGUACU    RJUNIAO UMB DOS CULTOS AFRO BRAS    31051915 000062
21310520190000000000080                                                                                                                                                                                                                                                                                                                                                                                   000063
10231987175000168817800093673    000045173                    000451730000000000000109                     I0245173     31051900000000040003410000017N300419105700000000000133105190000000000000000000000000000000000000000100002299564756SONIA ALVES DE PAULA                    ESTRADA CABUCUN 295,                    CABUCU      26291257NOVA IGUACU    RJUNIAO UMB DOS CULTOS AFRO BRAS    31051915 000064
21310520190000000000080                                                                                                                                                                                                                                                                                                                                                                                   000065
10231987175000168817800093673    000045171                    000451710000000000000109                     I0245171     31051900000000040003410000017N300419105700000000000133105190000000000000000000000000000000000000000100048024252791ISRAELINA RODRIGUES GABRIEL             RUA MANUEL LUIZ DE ANDRADEN 59,         VALVERDE    26290804NOVA IGUACU    RJUNIAO UMB DOS CULTOS AFRO BRAS    31051915 000066
21310520190000000000080                                                                                                                                                                                                                                                                                                                                                                                   000067
10231987175000168817800093673    000045081                    000450810000000000000109                     I0245081     30051900000000040003410000017N170419105700000000000133005190000000000000000000000000000000000000000100087962454768JORGE TADEU FERREIRA DA SILVA           RUA ANTONIO TOLEDON 383,                GALO BRANCO 24422020SAO GONCALO    RJUNIAO UMB DOS CULTOS AFRO BRAS    30051915 000068
21300520190000000000080                                                                                                                                                                                                                                                                                                                                                                                   000069
10231987175000168817800093673    000045079                    000450790000000000000109                     I0245079     30051900000000040003410000017N170419105700000000000133005190000000000000000000000000000000000000000100015039577729JEFERSON LIMA VIDAL DA SILVA            RUA PARANAN 26, FURQUIM MENDES          VIGARIO GERA21241340RIO DE JANEIRO RJUNIAO UMB DOS CULTOS AFRO BRAS    30051915 000070
21300520190000000000080                                                                                                                                                                                                                                                                                                                                                                                   000071
10231987175000168817800093673    000045077                    000450770000000000000109                     I0245077     30051900000000040003410000017N170419105700000000000133005190000000000000000000000000000000000000000100026787024720SHIRLEI AVELAR DA SILVA                 ESTRADA DO BARRO VERMELHON 1181,        COLEGIO     21540502RIO DE JANEIRO RJUNIAO UMB DOS CULTOS AFRO BRAS    30051915 000072
21300520190000000000080                                                                                                                                                                                                                                                                                                                                                                                   000073
10231987175000168817800093673    000045064                    000450640000000000000109                     I0245064     31051900000000040003410000017N160419105700000000000133105190000000000000000000000000000000000000000100038206480706MARIA ANGELA PACHECO DE SOUSA           RUA CONCEICAO MARIA PEREIRAN 11, QUADRA CAMPO LINDO 23898255SEROPEDICA     RJUNIAO UMB DOS CULTOS AFRO BRAS    31051915 000074
21310520190000000000080                                                                                                                                                                                                                                                                                                                                                                                   000075
10231987175000168817800093673    000044990                    000449900000000000000109                     I0244990     30051900000000040003410000017N030419105700000000000133005190000000000000000000000000000000000000000100001087226783ALBA VALERIA GARCIA LIMA MOURA          AVENIDA: CARNAUBEIRAN 135,              GUARATIBA   23032080RIO DE JANEIRO RJUNIAO UMB DOS CULTOS AFRO BRAS    30051915 000076
21300520190000000000080                                                                                                                                                                                                                                                                                                                                                                                   000077
10231987175000168817800093673    000044949                    000449490000000000000109                     I0244949     30051900000000040003410000017N010419105700000000000133005190000000000000000000000000000000000000000100008222930729MIRIAN CONCEICAO DOS SANTOS CU          RUA POCOS DE CALDASN 0, QUADRA 57 LOTE 4JARDIM GRAMA25050470DUQUE DE CAXIASRJUNIAO UMB DOS CULTOS AFRO BRAS    30051915 000078
21300520190000000000080                                                                                                                                                                                                                                                                                                                                                                                   000079
10231987175000168817800093673    000044847                    000448470000000000000109                     I0244847     30051900000000040003410000017N210319105700000000000133005190000000000000000000000000000000000000000100006211034709EDUARDO CARLOS FELIZARDO DE SO          AVENIDA CANAL DO ANILN 166, G           GARDENIA AZU22765431RIO DE JANEIRO RJUNIAO UMB DOS CULTOS AFRO BRAS    30051915 000080
21300520190000000000080                                                                                                                                                                                                                                                                                                                                                                                   000081
10231987175000168817800093673    000044833                    000448330000000000000109                     I0244833     30051900000000040003410000017N150319105700000000000133005190000000000000000000000000000000000000000100098077899749WANDERLEY PACHECO                       RUA NOSSA SENHORA DA CONCEICAON 0, LOTE PILAR       25233070DUQUE DE CAXIASRJUNIAO UMB DOS CULTOS AFRO BRAS    30051915 000082
21300520190000000000080                                                                                                                                                                                                                                                                                                                                                                                   000083
10231987175000168817800093673    000044827                    000448270000000000000109                     I0244827     30051900000000040003410000017N150319105700000000000133005190000000000000000000000000000000000000000100074190741787JOSE ITAGIBA RODRIGUES                  TRAVESSA SANTA ROSAN 0, LOTE 35         CAPELA      25916060MAGE           RJUNIAO UMB DOS CULTOS AFRO BRAS    30051915 000084
21300520190000000000080                                                                                                                                                                                                                                                                                                                                                                                   000085
9                                                                                                                                                                                                                                                                                                                                                                                                         000086
