01REMESSA01COBRANCA       817800093673        União Umb dos Cultos Afro Bra341BANCO ITAU SA  090119                                                                                                                                                                                                                                                                                                      000001
10231987175000168817800093673    000039519                    000395190000000000000109                     I0139519     12011900000000105003410000017N090119104700000000000101201190000000000000000000000000000000000000000100004428263708MARIA DAS GRACAS MORAIS SOARES          AVENIDA LEANDRO DA MOTA                 VILA SAO SEB25065175DUQUE DE CAXIASRJUNIAO UMB DOS CULTOS AFRO BRAS    12011910 000002
10231987175000168817800093673    000038601                    000386010000000000000109                     I0238601     30031900000000040003410000017N261218104700000000000103003190000000000000000000000000000000000000000100009130983703SANDRA MARIA DA SILVA                   RUA DOS COQUEIROS                       MARAPICU    20720012RIO DE JANEIRO RJUNIAO UMB DOS CULTOS AFRO BRAS    30031910 000003
10231987175000168817800093673    000038426                    000384260000000000000109                     I0238426     30031900000000040003410000017N261218104700000000000103003190000000000000000000000000000000000000000100071944141715LENOIR CASEMIRO                         ESTRADA: DO QUAFA                       BANGU       21853050RIO DE JANEIRO RJUNIAO UMB DOS CULTOS AFRO BRAS    30031910 000004
10231987175000168817800093673    000038362                    000383620000000000000109                     I0238362     30031900000000040003410000017N261218104700000000000103003190000000000000000000000000000000000000000100091956110704CARLOS ALBERTO DE SOUZA CALDAS          RUA: DALVA DE OLIVEIRA                  LAGOINHA    26351590NOVA IGUACU    RJUNIAO UMB DOS CULTOS AFRO BRAS    30031910 000005
10231987175000168817800093673    000037832                    000378320000000000000109                     I0237832     30031900000000040003410000017N261218104700000000000103003190000000000000000000000000000000000000000100091769477772RONILDES RODRIGUES NASCIMENTO           RUA TOPAZIOS                            NOVA ALIANCA21842340RIO DE JANEIRO RJUNIAO UMB DOS CULTOS AFRO BRAS    30031910 000006
10231987175000168817800093673    000037594                    000375940000000000000109                     I0237594     30031900000000040003410000017N261218104700000000000103003190000000000000000000000000000000000000000100007468564744SEBASTIAO LEANDRO CARDOSO               RUA HORACIO DE CARVALHO JUNIOR          COSMOS - CAM23058380RIO DE JANEIRO RJUNIAO UMB DOS CULTOS AFRO BRAS    30031910 000007
10231987175000168817800093673    000037591                    000375910000000000000109                     I0237591     30031900000000040003410000017N261218104700000000000103003190000000000000000000000000000000000000000100018627919704JORGE CAILLEAUX COSTA                   RUA VINTE E UM                          CAMPO LINDO 23850190SEROPEDICA     RJUNIAO UMB DOS CULTOS AFRO BRAS    30031910 000008
10231987175000168817800093673    000037507                    000375070000000000000109                     I0237507     30031900000000040003410000017N261218104700000000000103003190000000000000000000000000000000000000000100037935453772MARIA MARTHA DOS SANTOS                 RUA JARDIM OLINDA                       CURICICA - J22710160RIO DE JANEIRO RJUNIAO UMB DOS CULTOS AFRO BRAS    30031910 000009
10231987175000168817800093673    000037493                    000374930000000000000109                     I0237493     30031900000000040003410000017N261218104700000000000103003190000000000000000000000000000000000000000100000000000539NORMA CANTUARIA COSTA                   ESTRADA BOUGAINVILLE                    ANIL - JACAR22753210RIO DE JANEIRO RJUNIAO UMB DOS CULTOS AFRO BRAS    30031910 000010
10231987175000168817800093673    000036684                    000366840000000000000109                     I0236684     28021900000000040003410000017N261218104700000000000102802190000000000000000000000000000000000000000100009130983703SANDRA MARIA DA SILVA                   RUA DOS COQUEIROS                       MARAPICU    20720012RIO DE JANEIRO RJUNIAO UMB DOS CULTOS AFRO BRAS    28021910 000011
10231987175000168817800093673    000036509                    000365090000000000000109                     I0236509     28021900000000040003410000017N261218104700000000000102802190000000000000000000000000000000000000000100071944141715LENOIR CASEMIRO                         ESTRADA: DO QUAFA                       BANGU       21853050RIO DE JANEIRO RJUNIAO UMB DOS CULTOS AFRO BRAS    28021910 000012
10231987175000168817800093673    000036445                    000364450000000000000109                     I0236445     28021900000000040003410000017N261218104700000000000102802190000000000000000000000000000000000000000100091956110704CARLOS ALBERTO DE SOUZA CALDAS          RUA: DALVA DE OLIVEIRA                  LAGOINHA    26351590NOVA IGUACU    RJUNIAO UMB DOS CULTOS AFRO BRAS    28021910 000013
10231987175000168817800093673    000035970                    000359700000000000000109                     I0235970     28021900000000040003410000017N261218104700000000000102802190000000000000000000000000000000000000000100070891036768EDNA FERREIRA DE MELO                   RUA 49                                  SEPETIBA    21611000RIO DE JANEIRO RJUNIAO UMB DOS CULTOS AFRO BRAS    28021910 000014
10231987175000168817800093673    000035918                    000359180000000000000109                     I0235918     28021900000000040003410000017N261218104700000000000102802190000000000000000000000000000000000000000100091769477772RONILDES RODRIGUES NASCIMENTO           RUA TOPAZIOS                            NOVA ALIANCA21842340RIO DE JANEIRO RJUNIAO UMB DOS CULTOS AFRO BRAS    28021910 000015
10231987175000168817800093673    000035681                    000356810000000000000109                     I0235681     28021900000000040003410000017N261218104700000000000102802190000000000000000000000000000000000000000100007468564744SEBASTIAO LEANDRO CARDOSO               RUA HORACIO DE CARVALHO JUNIOR          COSMOS - CAM23058380RIO DE JANEIRO RJUNIAO UMB DOS CULTOS AFRO BRAS    28021910 000016
10231987175000168817800093673    000035678                    000356780000000000000109                     I0235678     28021900000000040003410000017N261218104700000000000102802190000000000000000000000000000000000000000100018627919704JORGE CAILLEAUX COSTA                   RUA VINTE E UM                          CAMPO LINDO 23850190SEROPEDICA     RJUNIAO UMB DOS CULTOS AFRO BRAS    28021910 000017
10231987175000168817800093673    000035595                    000355950000000000000109                     I0235595     28021900000000040003410000017N261218104700000000000102802190000000000000000000000000000000000000000100037935453772MARIA MARTHA DOS SANTOS                 RUA JARDIM OLINDA                       CURICICA - J22710160RIO DE JANEIRO RJUNIAO UMB DOS CULTOS AFRO BRAS    28021910 000018
10231987175000168817800093673    000035581                    000355810000000000000109                     I0235581     28021900000000040003410000017N261218104700000000000102802190000000000000000000000000000000000000000100000000000539NORMA CANTUARIA COSTA                   ESTRADA BOUGAINVILLE                    ANIL - JACAR22753210RIO DE JANEIRO RJUNIAO UMB DOS CULTOS AFRO BRAS    28021910 000019
10231987175000168817800093673    000035495                    000354950000000000000109                     I0235495     31011900000000040003410000017N261218104700000000000103101190000000000000000000000000000000000000000100000848852702RODNEY MARQUES                          RUA PEREIRA LEITAO                      TURIACU     21550100RIO DE JANEIRO RJUNIAO UMB DOS CULTOS AFRO BRAS    31011910 000020
10231987175000168817800093673    000035061                    000350610000000000000109                     I0235061     31011900000000040003410000017N261218104700000000000103101190000000000000000000000000000000000000000100059680903753TANIA REGINA DOS SANTOS MARQUE          RUA VISCONDE DE MACEIO                  IRAJA       21235100RIO DE JANEIRO RJUNIAO UMB DOS CULTOS AFRO BRAS    31011910 000021
10231987175000168817800093673    000034774                    000347740000000000000109                     I0234774     31011900000000040003410000017N261218104700000000000103101190000000000000000000000000000000000000000100009130983703SANDRA MARIA DA SILVA                   RUA DOS COQUEIROS                       MARAPICU    20720012RIO DE JANEIRO RJUNIAO UMB DOS CULTOS AFRO BRAS    31011910 000022
10231987175000168817800093673    000034600                    000346000000000000000109                     I0234600     31011900000000040003410000017N261218104700000000000103101190000000000000000000000000000000000000000100071944141715LENOIR CASEMIRO                         ESTRADA: DO QUAFA                       BANGU       21853050RIO DE JANEIRO RJUNIAO UMB DOS CULTOS AFRO BRAS    31011910 000023
10231987175000168817800093673    000034536                    000345360000000000000109                     I0234536     31011900000000040003410000017N261218104700000000000103101190000000000000000000000000000000000000000100091956110704CARLOS ALBERTO DE SOUZA CALDAS          RUA: DALVA DE OLIVEIRA                  LAGOINHA    26351590NOVA IGUACU    RJUNIAO UMB DOS CULTOS AFRO BRAS    31011910 000024
10231987175000168817800093673    000034447                    000344470000000000000109                     I0234447     31011900000000040003410000017N261218104700000000000103101190000000000000000000000000000000000000000100060856467715JANAINA COELHO MELO                     RUA SANTO APIANO                        IRAJA       21361420RIO DE JANEIRO RJUNIAO UMB DOS CULTOS AFRO BRAS    31011910 000025
10231987175000168817800093673    000034066                    000340660000000000000109                     I0234066     31011900000000040003410000017N261218104700000000000103101190000000000000000000000000000000000000000100070891036768EDNA FERREIRA DE MELO                   RUA 49                                  SEPETIBA    21611000RIO DE JANEIRO RJUNIAO UMB DOS CULTOS AFRO BRAS    31011910 000026
10231987175000168817800093673    000034014                    000340140000000000000109                     I0234014     31011900000000040003410000017N261218104700000000000103101190000000000000000000000000000000000000000100091769477772RONILDES RODRIGUES NASCIMENTO           RUA TOPAZIOS                            NOVA ALIANCA21842340RIO DE JANEIRO RJUNIAO UMB DOS CULTOS AFRO BRAS    31011910 000027
10231987175000168817800093673    000033779                    000337790000000000000109                     I0233779     31011900000000040003410000017N261218104700000000000103101190000000000000000000000000000000000000000100007468564744SEBASTIAO LEANDRO CARDOSO               RUA HORACIO DE CARVALHO JUNIOR          COSMOS - CAM23058380RIO DE JANEIRO RJUNIAO UMB DOS CULTOS AFRO BRAS    31011910 000028
10231987175000168817800093673    000033776                    000337760000000000000109                     I0233776     31011900000000040003410000017N261218104700000000000103101190000000000000000000000000000000000000000100018627919704JORGE CAILLEAUX COSTA                   RUA VINTE E UM                          CAMPO LINDO 23850190SEROPEDICA     RJUNIAO UMB DOS CULTOS AFRO BRAS    31011910 000029
10231987175000168817800093673    000033695                    000336950000000000000109                     I0233695     31011900000000040003410000017N261218104700000000000103101190000000000000000000000000000000000000000100037935453772MARIA MARTHA DOS SANTOS                 RUA JARDIM OLINDA                       CURICICA - J22710160RIO DE JANEIRO RJUNIAO UMB DOS CULTOS AFRO BRAS    31011910 000030
10231987175000168817800093673    000033681                    000336810000000000000109                     I0233681     31011900000000040003410000017N261218104700000000000103101190000000000000000000000000000000000000000100000000000539NORMA CANTUARIA COSTA                   ESTRADA BOUGAINVILLE                    ANIL - JACAR22753210RIO DE JANEIRO RJUNIAO UMB DOS CULTOS AFRO BRAS    31011910 000031
10231987175000168817800093673    000033429                    000334290000000000000109                     I0233429     05121800000000140003410000017N161118104700000000000100512180000000000000000000000000000000000000000100093265883787ROSANGELA BARBOSA DE CARVALHO           CAMINHO DOS TELEGRAFOS                  SENADOR CAMA21832415RIO DE JANEIRO RJUNIAO UMB DOS CULTOS AFRO BRAS    05121810 000032
10231987175000168817800093673    000033299                    000332990000000000000109                     I0233299     20121800000000400003410000017N291018104700000000000102012180000000000000000000000000000000000000000100000848852702RODNEY MARQUES                          RUA PEREIRA LEITAO                      TURIACU     21550100RIO DE JANEIRO RJUNIAO UMB DOS CULTOS AFRO BRAS    20121810 000033
10231987175000168817800093673    000032900                    000329000000000000000109                     I0232900     20121800000000350003410000017N291018104700000000000102012180000000000000000000000000000000000000000100099586800768MARLECI NAVARRO DE FARIA                RUA CURUPAETI                           VILA VICOSA 21230075RIO DE JANEIRO RJUNIAO UMB DOS CULTOS AFRO BRAS    20121810 000034
10231987175000168817800093673    000032660                    000326600000000000000109                     I0232660     20121800000000350003410000017N291018104700000000000102012180000000000000000000000000000000000000000100059680903753TANIA REGINA DOS SANTOS MARQUE          RUA VISCONDE DE MACEIO                  IRAJA       21235100RIO DE JANEIRO RJUNIAO UMB DOS CULTOS AFRO BRAS    20121810 000035
10231987175000168817800093673    000032582                    000325820000000000000109                     I0232582     20121800000000350003410000017N291018104700000000000102012180000000000000000000000000000000000000000100004762099783MARLENE DA CONCEICAO BARRETO            RUA TEIXEIRA DE FREITAS                 FONSECA     24130616RIO DE JANEIRO RJUNIAO UMB DOS CULTOS AFRO BRAS    20121810 000036
10231987175000168817800093673    000031876                    000318760000000000000109                     I0231876     20121800000000350003410000017N291018104700000000000102012180000000000000000000000000000000000000000100091956110704CARLOS ALBERTO DE SOUZA CALDAS          RUA: DALVA DE OLIVEIRA                  LAGOINHA    26351590NOVA IGUACU    RJUNIAO UMB DOS CULTOS AFRO BRAS    20121810 000037
10231987175000168817800093673    000031751                    000317510000000000000109                     I0231751     20121800000000350003410000017N291018104700000000000102012180000000000000000000000000000000000000000100060856467715JANAINA COELHO MELO                     RUA SANTO APIANO                        IRAJA       21361420RIO DE JANEIRO RJUNIAO UMB DOS CULTOS AFRO BRAS    20121810 000038
10231987175000168817800093673    000031129                    000311290000000000000109                     I0231129     20121800000000350003410000017N291018104700000000000102012180000000000000000000000000000000000000000100070891036768EDNA FERREIRA DE MELO                   RUA 49                                  SEPETIBA    21611000RIO DE JANEIRO RJUNIAO UMB DOS CULTOS AFRO BRAS    20121810 000039
10231987175000168817800093673    000031040                    000310400000000000000109                     I0231040     20121800000000350003410000017N291018104700000000000102012180000000000000000000000000000000000000000100091769477772RONILDES RODRIGUES NASCIMENTO           RUA TOPAZIOS                            NOVA ALIANCA21842340RIO DE JANEIRO RJUNIAO UMB DOS CULTOS AFRO BRAS    20121810 000040
10231987175000168817800093673    000030646                    000306460000000000000109                     I0230646     20121800000000350003410000017N291018104700000000000102012180000000000000000000000000000000000000000100007468564744SEBASTIAO LEANDRO CARDOSO               RUA HORACIO DE CARVALHO JUNIOR          COSMOS - CAM23058380RIO DE JANEIRO RJUNIAO UMB DOS CULTOS AFRO BRAS    20121810 000041
10231987175000168817800093673    000030488                    000304880000000000000109                     I0230488     20121800000000350003410000017N291018104700000000000102012180000000000000000000000000000000000000000100037935453772MARIA MARTHA DOS SANTOS                 RUA JARDIM OLINDA                       CURICICA - J22710160RIO DE JANEIRO RJUNIAO UMB DOS CULTOS AFRO BRAS    20121810 000042
10231987175000168817800093673    000030471                    000304710000000000000109                     I0230471     20121800000000350003410000017N291018104700000000000102012180000000000000000000000000000000000000000100000000000539NORMA CANTUARIA COSTA                   ESTRADA BOUGAINVILLE                    ANIL - JACAR22753210RIO DE JANEIRO RJUNIAO UMB DOS CULTOS AFRO BRAS    20121810 000043
10231987175000168817800093673    000029743                    000297430000000000000109                     I0229743     20121800000000035003410000017N291018104700000000000102012180000000000000000000000000000000000000000100008389266733BEATRIZ DE AZEVEDO NUNES                RUA: SAPOPEMBA                          BENTO RIBEIR21321240RIO DE JANEIRO RJUNIAO UMB DOS CULTOS AFRO BRAS    20121810 000044
10231987175000168817800093673    000028967                    000289670000000000000109                     I0228967     30111800000000400003410000017N211018104700000000000103011180000000000000000000000000000000000000000100071944141715LENOIR CASEMIRO                         ESTRADA: DO QUAFA                       BANGU       21853050RIO DE JANEIRO RJUNIAO UMB DOS CULTOS AFRO BRAS    30111810 000045
10231987175000168817800093673    000028890                    000288900000000000000109                     I0228890     20121800000000040003410000017N051018104700000000000102012180000000000000000000000000000000000000000100000848852702RODNEY MARQUES                          RUA PEREIRA LEITAO                      TURIACU     21550100RIO DE JANEIRO RJUNIAO UMB DOS CULTOS AFRO BRAS    20121810 000046
10231987175000168817800093673    000027690                    000276900000000000000109                     I0227690     30111800000000035003410000017N200818104700000000000103011180000000000000000000000000000000000000000100091956110704CARLOS ALBERTO DE SOUZA CALDAS          RUA: DALVA DE OLIVEIRA                  LAGOINHA    26351590NOVA IGUACU    RJUNIAO UMB DOS CULTOS AFRO BRAS    30111810 000047
10231987175000168817800093673    000027286                    000272860000000000000109                     I0227286     30111800000000035003410000017N200818104700000000000103011180000000000000000000000000000000000000000100004428263708MARIA DAS GRACAS MORAIS SOARES          AVENIDA LEANDRO DA MOTA                 VILA SAO SEB25065175DUQUE DE CAXIASRJUNIAO UMB DOS CULTOS AFRO BRAS    30111810 000048
10231987175000168817800093673    000024418                    000244180000000000000109                     I0224418     30101800000000035003410000017N200818104700000000000103010180000000000000000000000000000000000000000100007333127729FRANCISCA GONCALVES                     RUA COQUEIROS                           SANTA CRUZ  23535200RIO DE JANEIRO RJUNIAO UMB DOS CULTOS AFRO BRAS    30101810 000049
9                                                                                                                                                                                                                                                                                                                                                                                                         000050
