01REMESSA01COBRANCA       916200163100        União Umb dos Cultos Afro Bra341BANCO ITAU SA  150719                                                                                                                                                                                                                                                                                                      000001
10231987175000168916200163100    000049916                    000499160000000000000109                     I0149916     16081900000000400003410000017N150719105700000000001321608190000000000000000000000000000000000000000100008251113741THIAGO COSTA VILAS BOAS                 RUA BENEDITO DA SILVA LOMBAN 1093,      MUQUECA     27140290BARRA DO PIRAI RJUNIAO UMB DOS CULTOS AFRO BRAS    16081915 000002
21160820190000000000800                                                                                                                                                                                                                                                                                                                                                                                   000003
10231987175000168916200163100    000044794                    000447940000000000000109                     I0244794     30061900000000040003410000017N130319105700000000000133006190000000000000000000000000000000000000000100010992504716RENATA BARRETO DA SILVA DUARTE          RUA DA PENHAN 44,                       VILA TIRADEN25520721SAO JOAO DE MERRJUNIAO UMB DOS CULTOS AFRO BRAS    30061915 000004
21300620190000000000080                                                                                                                                                                                                                                                                                                                                                                                   000005
10231987175000168916200163100    000044507                    000445070000000000000109                     I0244507     30061900000000040003410000017N130319105700000000000133006190000000000000000000000000000000000000000100002638717703EDINO GOMES DE BARROS JUNIOR            RUA PARANA N 10,                        MORRO DO ORI24400000SAO GONCALO    RJUNIAO UMB DOS CULTOS AFRO BRAS    30061915 000006
21300620190000000000080                                                                                                                                                                                                                                                                                                                                                                                   000007
10231987175000168916200163100    000044101                    000441010000000000000109                     I0244101     30061900000000040003410000017N130319105700000000000133006190000000000000000000000000000000000000000100007980690745JOSE ALFREDO BARDASSON MARQUES          TRAVESSA JOAO ROCHAN 0, CASA 1          CENTRO (PORT24830072ITABORAI       RJUNIAO UMB DOS CULTOS AFRO BRAS    30061915 000008
21300620190000000000080                                                                                                                                                                                                                                                                                                                                                                                   000009
10231987175000168916200163100    000043740                    000437400000000000000109                     I0243740     30061900000000040003410000017N130319105700000000000133006190000000000000000000000000000000000000000100074726005715SOLANGE DA SILVA ARAUJO                 AVENIDA MONSENHOR FELIXN 1059, BLOCO 80 IRAJA       21235113RIO DE JANEIRO RJUNIAO UMB DOS CULTOS AFRO BRAS    30061915 000010
21300620190000000000080                                                                                                                                                                                                                                                                                                                                                                                   000011
10231987175000168916200163100    000043140                    000431400000000000000109                     I0243140     30051900000000040003410000017N130319105700000000000133005190000000000000000000000000000000000000000100010992504716RENATA BARRETO DA SILVA DUARTE          RUA DA PENHAN 44,                       VILA TIRADEN25520721SAO JOAO DE MERRJUNIAO UMB DOS CULTOS AFRO BRAS    30051915 000012
21300520190000000000080                                                                                                                                                                                                                                                                                                                                                                                   000013
10231987175000168916200163100    000042856                    000428560000000000000109                     I0242856     30051900000000040003410000017N130319105700000000000133005190000000000000000000000000000000000000000100002638717703EDINO GOMES DE BARROS JUNIOR            RUA PARANA N 10,                        MORRO DO ORI24400000SAO GONCALO    RJUNIAO UMB DOS CULTOS AFRO BRAS    30051915 000014
21300520190000000000080                                                                                                                                                                                                                                                                                                                                                                                   000015
10231987175000168916200163100    000042455                    000424550000000000000109                     I0242455     30051900000000040003410000017N130319105700000000000133005190000000000000000000000000000000000000000100007980690745JOSE ALFREDO BARDASSON MARQUES          TRAVESSA JOAO ROCHAN 0, CASA 1          CENTRO (PORT24830072ITABORAI       RJUNIAO UMB DOS CULTOS AFRO BRAS    30051915 000016
21300520190000000000080                                                                                                                                                                                                                                                                                                                                                                                   000017
10231987175000168916200163100    000042096                    000420960000000000000109                     I0242096     30051900000000040003410000017N130319105700000000000133005190000000000000000000000000000000000000000100074726005715SOLANGE DA SILVA ARAUJO                 AVENIDA MONSENHOR FELIXN 1059, BLOCO 80 IRAJA       21235113RIO DE JANEIRO RJUNIAO UMB DOS CULTOS AFRO BRAS    30051915 000018
21300520190000000000080                                                                                                                                                                                                                                                                                                                                                                                   000019
9                                                                                                                                                                                                                                                                                                                                                                                                         000020
