01REMESSA01COBRANCA       817800093673        União Umb dos Cultos Afro Bra341BANCO ITAU SA  300119                                                                                                                                                                                                                                                                                                      000001
10231987175000168817800093673    000038555                    000385550000000000000109                     I0238555     30031900000000040003410000017N261218104700000000000103003190000000000000000000000000000000000000000100085949841700GEORGETTE PAIVA MARQUES                 RUA ALVORADA DO SUL,                    INHOAIBA    23062010RIO DE JANEIRO RJUNIAO UMB DOS CULTOS AFRO BRAS    30031910 000002
10231987175000168817800093673    000038358                    000383580000000000000109                     I0238358     30031900000000040003410000017N261218104700000000000103003190000000000000000000000000000000000000000100096557753720MARGARETH TEIXEIRA ALUIZIO              RUA ALBERTO SOARES SAMPAIO              TAQUARA - JA22715300RIO DE JANEIRO RJUNIAO UMB DOS CULTOS AFRO BRAS    30031910 000003
10231987175000168817800093673    000037540                    000375400000000000000109                     I0237540     30031900000000040003410000017N261218104700000000000103003190000000000000000000000000000000000000000100094378363704ELAINE MARINHO DA SILVA                 RUA MAMBUCADA                           COELHO NETO 21520510RIO DE JANEIRO RJUNIAO UMB DOS CULTOS AFRO BRAS    30031910 000004
10231987175000168817800093673    000037535                    000375350000000000000109                     I0237535     30031900000000040003410000017N261218104700000000000103003190000000000000000000000000000000000000000100075487640734MARIA VIRGINIA TIAGO DA SILVA           RUA DO ALGODAO                          RICARDO DE A21620040RIO DE JANEIRO RJUNIAO UMB DOS CULTOS AFRO BRAS    30031910 000005
10231987175000168817800093673    000036638                    000366380000000000000109                     I0236638     28021900000000040003410000017N261218104700000000000102802190000000000000000000000000000000000000000100085949841700GEORGETTE PAIVA MARQUES                 RUA ALVORADA DO SUL,                    INHOAIBA    23062010RIO DE JANEIRO RJUNIAO UMB DOS CULTOS AFRO BRAS    28021910 000006
10231987175000168817800093673    000036441                    000364410000000000000109                     I0236441     28021900000000040003410000017N261218104700000000000102802190000000000000000000000000000000000000000100096557753720MARGARETH TEIXEIRA ALUIZIO              RUA ALBERTO SOARES SAMPAIO              TAQUARA - JA22715300RIO DE JANEIRO RJUNIAO UMB DOS CULTOS AFRO BRAS    28021910 000007
10231987175000168817800093673    000035628                    000356280000000000000109                     I0235628     28021900000000040003410000017N261218104700000000000102802190000000000000000000000000000000000000000100094378363704ELAINE MARINHO DA SILVA                 RUA MAMBUCADA                           COELHO NETO 21520510RIO DE JANEIRO RJUNIAO UMB DOS CULTOS AFRO BRAS    28021910 000008
10231987175000168817800093673    000035623                    000356230000000000000109                     I0235623     28021900000000040003410000017N261218104700000000000102802190000000000000000000000000000000000000000100075487640734MARIA VIRGINIA TIAGO DA SILVA           RUA DO ALGODAO                          RICARDO DE A21620040RIO DE JANEIRO RJUNIAO UMB DOS CULTOS AFRO BRAS    28021910 000009
10231987175000168817800093673    000034728                    000347280000000000000109                     I0234728     31011900000000040003410000017N261218104700000000000103101190000000000000000000000000000000000000000100085949841700GEORGETTE PAIVA MARQUES                 RUA ALVORADA DO SUL,                    INHOAIBA    23062010RIO DE JANEIRO RJUNIAO UMB DOS CULTOS AFRO BRAS    31011910 000010
10231987175000168817800093673    000034532                    000345320000000000000109                     I0234532     31011900000000040003410000017N261218104700000000000103101190000000000000000000000000000000000000000100096557753720MARGARETH TEIXEIRA ALUIZIO              RUA ALBERTO SOARES SAMPAIO              TAQUARA - JA22715300RIO DE JANEIRO RJUNIAO UMB DOS CULTOS AFRO BRAS    31011910 000011
10231987175000168817800093673    000033727                    000337270000000000000109                     I0233727     31011900000000040003410000017N261218104700000000000103101190000000000000000000000000000000000000000100094378363704ELAINE MARINHO DA SILVA                 RUA MAMBUCADA                           COELHO NETO 21520510RIO DE JANEIRO RJUNIAO UMB DOS CULTOS AFRO BRAS    31011910 000012
10231987175000168817800093673    000033722                    000337220000000000000109                     I0233722     31011900000000040003410000017N261218104700000000000103101190000000000000000000000000000000000000000100075487640734MARIA VIRGINIA TIAGO DA SILVA           RUA DO ALGODAO                          RICARDO DE A21620040RIO DE JANEIRO RJUNIAO UMB DOS CULTOS AFRO BRAS    31011910 000013
10231987175000168817800093673    000033263                    000332630000000000000109                     I0233263     20121800000000350003410000017N291018104700000000000102012180000000000000000000000000000000000000000100034727272768JOSEFINA AGUIAR CASTRO                  RUA DOUTOR NELSON FERNANDES             PARQUE CAPIV25900000DUQUE DE CAXIASRJUNIAO UMB DOS CULTOS AFRO BRAS    20121810 000014
10231987175000168817800093673    000031868                    000318680000000000000109                     I0231868     20121800000000350003410000017N291018104700000000000102012180000000000000000000000000000000000000000100096557753720MARGARETH TEIXEIRA ALUIZIO              RUA ALBERTO SOARES SAMPAIO              TAQUARA - JA22715300RIO DE JANEIRO RJUNIAO UMB DOS CULTOS AFRO BRAS    20121810 000015
10231987175000168817800093673    000031816                    000318160000000000000109                     I0231816     20121800000000350003410000017N291018104700000000000102012180000000000000000000000000000000000000000100004462221788ALEXSANDRO JULIO DE SOUZA               RUA CORURIPE                            MARECHAL HER21555490RIO DE JANEIRO RJUNIAO UMB DOS CULTOS AFRO BRAS    20121810 000016
10231987175000168817800093673    000031603                    000316030000000000000109                     I0231603     20121800000000350003410000017N291018104700000000000102012180000000000000000000000000000000000000000100000907631738IDA ANGELICA PEREIRA CALDAS             RUA SILVEIRA LOBO                       CACHAMBI    20780310RIO DE JANEIRO RJUNIAO UMB DOS CULTOS AFRO BRAS    20121810 000017
10231987175000168817800093673    000031526                    000315260000000000000109                     I0231526     20121800000000350003410000017N291018104700000000000102012180000000000000000000000000000000000000000100085194557787CELIA MARIA FERNANDES DE CASTR          RUA IRAPIRANGA                          ROCHA MIRAND21540710RIO DE JANEIRO RJUNIAO UMB DOS CULTOS AFRO BRAS    20121810 000018
10231987175000168817800093673    000030787                    000307870000000000000109                     I0230787     20121800000000350003410000017N291018104700000000000102012180000000000000000000000000000000000000000100076896960744MARIA LUCIA DE OLIVEIRA NUNES           AVENIDA DO CORRETOR                     VILA ALIANCA21842340RIO DE JANEIRO RJUNIAO UMB DOS CULTOS AFRO BRAS    20121810 000019
10231987175000168817800093673    000030573                    000305730000000000000109                     I0230573     20121800000000380003410000017N291018104700000000000102012180000000000000000000000000000000000000000100094378363704ELAINE MARINHO DA SILVA                 RUA MAMBUCADA                           COELHO NETO 21520510RIO DE JANEIRO RJUNIAO UMB DOS CULTOS AFRO BRAS    20121810 000020
10231987175000168817800093673    000030561                    000305610000000000000109                     I0230561     20121800000000350003410000017N291018104700000000000102012180000000000000000000000000000000000000000100075487640734MARIA VIRGINIA TIAGO DA SILVA           RUA DO ALGODAO                          RICARDO DE A21620040RIO DE JANEIRO RJUNIAO UMB DOS CULTOS AFRO BRAS    20121810 000021
10231987175000168817800093673    000029610                    000296100000000000000109                     I0229610     20121800000000035003410000017N291018104700000000000102012180000000000000000000000000000000000000000100096557753720MARGARETH TEIXEIRA ALUIZIO              RUA ALBERTO SOARES SAMPAIO              TAQUARA - JA22715300RIO DE JANEIRO RJUNIAO UMB DOS CULTOS AFRO BRAS    20121810 000022
10231987175000168817800093673    000029452                    000294520000000000000109                     I0229452     20121800000000035003410000017N291018104700000000000102012180000000000000000000000000000000000000000100085194557787CELIA MARIA FERNANDES DE CASTR          RUA IRAPIRANGA                          ROCHA MIRAND21540710RIO DE JANEIRO RJUNIAO UMB DOS CULTOS AFRO BRAS    20121810 000023
9                                                                                                                                                                                                                                                                                                                                                                                                         000024
