01REMESSA01COBRANCA       817800093673        União Umb dos Cultos Afro Bra341BANCO ITAU SA  100419                                                                                                                                                                                                                                                                                                      000001
10231987175000168817800093673    000045039                    000450390000000000000109                     I0145039     16041900000000040003410000017N100419104700000000000101604190000000000000000000000000000000000000000100092952364753ROSANGELA SILVA SOUZA                   RUA TAMOIOSN 144, FUNDOS                CENTRO      26520250NILOPOLIS      RJUNIAO UMB DOS CULTOS AFRO BRAS    16041910 000002
10231987175000168817800093673    000045038                    000450380000000000000109                     I0145038     15041900000000040003410000017N100419104700000000000101504190000000000000000000000000000000000000000100002134169729ALEXANDRE DE ALMEIDA                    RUA SERITINGAN 105,  BLOCO 5 APTO 108 FUBRAS DE PINA21215480RIO DE JANEIRO RJUNIAO UMB DOS CULTOS AFRO BRAS    15041910 000003
10231987175000168817800093673    000044821                    000448210000000000000109                     I0244821     22031900000000080003410000017N150319104700000000000102203190000000000000000000000000000000000000000100013180490756DIEGO CAVALCANTI DA SILVA               RUA CONDE DE RESENDEN 127,              BENTO RIBEIR21550600RIO DE JANEIRO RJUNIAO UMB DOS CULTOS AFRO BRAS    22031910 000004
10231987175000168817800093673    000038823                    000388230000000000000109                     I0238823     30031900000000040003410000017N261218104700000000000103003190000000000000000000000000000000000000000100013180490756DIEGO CAVALCANTI DA SILVA               RUA CONDE DE RESENDEN 127,              BENTO RIBEIR21550600RIO DE JANEIRO RJUNIAO UMB DOS CULTOS AFRO BRAS    30031910 000005
10231987175000168817800093673    000038301                    000383010000000000000109                     I0238301     30031900000000040003410000017N261218104700000000000103003190000000000000000000000000000000000000000100002134169729ALEXANDRE DE ALMEIDA                    RUA SERITINGAN 105,  BLOCO 5 APTO 108 FUBRAS DE PINA21215480RIO DE JANEIRO RJUNIAO UMB DOS CULTOS AFRO BRAS    30031910 000006
10231987175000168817800093673    000038193                    000381930000000000000109                     I0238193     30031900000000040003410000017N261218104700000000000103003190000000000000000000000000000000000000000100060296836168ALEXANDRE MONTEIRO DA ROSA              RUA MONTE CASTELON 143,                 CORONEL VEIG25655500PETROPOLIS     RJUNIAO UMB DOS CULTOS AFRO BRAS    30031910 000007
10231987175000168817800093673    000037743                    000377430000000000000109                     I0237743     30031900000000040003410000017N261218104700000000000103003190000000000000000000000000000000000000000100000916700712MARIA MARGARIDA SOARES DOS SAN          RUA ANTONION 38, A                      COELHO DA RO25550100SAO JOAO DE MERRJUNIAO UMB DOS CULTOS AFRO BRAS    30031910 000008
10231987175000168817800093673    000036904                    000369040000000000000109                     I0236904     28021900000000040003410000017N261218104700000000000102802190000000000000000000000000000000000000000100013180490756DIEGO CAVALCANTI DA SILVA               RUA CONDE DE RESENDEN 127,              BENTO RIBEIR21550600RIO DE JANEIRO RJUNIAO UMB DOS CULTOS AFRO BRAS    28021910 000009
10231987175000168817800093673    000036277                    000362770000000000000109                     I0236277     28021900000000040003410000017N261218104700000000000102802190000000000000000000000000000000000000000100060296836168ALEXANDRE MONTEIRO DA ROSA              RUA MONTE CASTELON 143,                 CORONEL VEIG25655500PETROPOLIS     RJUNIAO UMB DOS CULTOS AFRO BRAS    28021910 000010
10231987175000168817800093673    000035830                    000358300000000000000109                     I0235830     28021900000000040003410000017N261218104700000000000102802190000000000000000000000000000000000000000100000916700712MARIA MARGARIDA SOARES DOS SAN          RUA ANTONION 38, A                      COELHO DA RO25550100SAO JOAO DE MERRJUNIAO UMB DOS CULTOS AFRO BRAS    28021910 000011
9                                                                                                                                                                                                                                                                                                                                                                                                         000012
