01REMESSA01COBRANCA       916200163100        União Umb dos Cultos Afro Bra341BANCO ITAU SA  290719                                                                                                                                                                                                                                                                                                      000001
10231987175000168916200163100    000049998                    000499980000000000000109                     I0149998     30091900000000040003410000017N290719105700000000000133009190000000000000000000000000000000000000000100003557330729ANA PAULA RODRIGUES DA SILVA            RUA GIRASSOLN 348,                      PARAISO     26297168NOVA IGUACU    RJUNIAO UMB DOS CULTOS AFRO BRAS    30091915 000002
21300920190000000000080                                                                                                                                                                                                                                                                                                                                                                                   000003
10231987175000168916200163100    000049997                    000499970000000000000109                     I0149997     30081900000000040003410000017N290719105700000000000133008190000000000000000000000000000000000000000100003557330729ANA PAULA RODRIGUES DA SILVA            RUA GIRASSOLN 348,                      PARAISO     26297168NOVA IGUACU    RJUNIAO UMB DOS CULTOS AFRO BRAS    30081915 000004
21300820190000000000080                                                                                                                                                                                                                                                                                                                                                                                   000005
10231987175000168916200163100    000049996                    000499960000000000000109                     I0149996     30091900000000040003410000017N290719105700000000000133009190000000000000000000000000000000000000000100001095109766PATRICIA GARCIA DE LIMA COUTO           RUA CEDRON 48, APT 101                  PARAISO     26297369NOVA IGUACU    RJUNIAO UMB DOS CULTOS AFRO BRAS    30091915 000006
21300920190000000000080                                                                                                                                                                                                                                                                                                                                                                                   000007
10231987175000168916200163100    000049995                    000499950000000000000109                     I0149995     30081900000000040003410000017N290719105700000000000133008190000000000000000000000000000000000000000100001095109766PATRICIA GARCIA DE LIMA COUTO           RUA CEDRON 48, APT 101                  PARAISO     26297369NOVA IGUACU    RJUNIAO UMB DOS CULTOS AFRO BRAS    30081915 000008
21300820190000000000080                                                                                                                                                                                                                                                                                                                                                                                   000009
10231987175000168916200163100    000049994                    000499940000000000000109                     I0149994     30091900000000040003410000017N290719105700000000000133009190000000000000000000000000000000000000000100012590522438WALESKA GOMES DOS ANJOS                 ESTRADA COMANDANTE LUIZ SOUTON 0,       TANQUE      22733040RIO DE JANEIRO RJUNIAO UMB DOS CULTOS AFRO BRAS    30091915 000010
21300920190000000000080                                                                                                                                                                                                                                                                                                                                                                                   000011
10231987175000168916200163100    000049993                    000499930000000000000109                     I0149993     30081900000000040003410000017N290719105700000000000133008190000000000000000000000000000000000000000100012590522438WALESKA GOMES DOS ANJOS                 ESTRADA COMANDANTE LUIZ SOUTON 0,       TANQUE      22733040RIO DE JANEIRO RJUNIAO UMB DOS CULTOS AFRO BRAS    30081915 000012
21300820190000000000080                                                                                                                                                                                                                                                                                                                                                                                   000013
10231987175000168916200163100    000049992                    000499920000000000000109                     I0149992     30091900000000040003410000017N290719105700000000000133009190000000000000000000000000000000000000000100002210294789ADRIANA JANUARIO DO NASCIMENTO          RUA TROPICALN 389,                      PARAISO     26297321NOVA IGUACU    RJUNIAO UMB DOS CULTOS AFRO BRAS    30091915 000014
21300920190000000000080                                                                                                                                                                                                                                                                                                                                                                                   000015
10231987175000168916200163100    000049991                    000499910000000000000109                     I0149991     30081900000000040003410000017N290719105700000000000133008190000000000000000000000000000000000000000100002210294789ADRIANA JANUARIO DO NASCIMENTO          RUA TROPICALN 389,                      PARAISO     26297321NOVA IGUACU    RJUNIAO UMB DOS CULTOS AFRO BRAS    30081915 000016
21300820190000000000080                                                                                                                                                                                                                                                                                                                                                                                   000017
10231987175000168916200163100    000049990                    000499900000000000000109                     I0149990     30091900000000040003410000017N290719105700000000000133009190000000000000000000000000000000000000000100000856003778ANA ELIZABETE ANTUNES SANTOS            RUA GETULIO VARGASN 1,                  SEPETIBA    23540130RIO DE JANEIRO RJUNIAO UMB DOS CULTOS AFRO BRAS    30091915 000018
21300920190000000000080                                                                                                                                                                                                                                                                                                                                                                                   000019
10231987175000168916200163100    000049989                    000499890000000000000109                     I0149989     30081900000000040003410000017N290719105700000000000133008190000000000000000000000000000000000000000100000856003778ANA ELIZABETE ANTUNES SANTOS            RUA GETULIO VARGASN 1,                  SEPETIBA    23540130RIO DE JANEIRO RJUNIAO UMB DOS CULTOS AFRO BRAS    30081915 000020
21300820190000000000080                                                                                                                                                                                                                                                                                                                                                                                   000021
10231987175000168916200163100    000049988                    000499880000000000000109                     I0149988     30091900000000025003410000017N290719105700000000000803009190000000000000000000000000000000000000000100052329160763NENI GOMES DE ALMEIDA                   RUA MARIA SANTANA FERNANDESN 0, LOTE 8 QJARDINS     23890052SEROPEDICA     RJUNIAO UMB DOS CULTOS AFRO BRAS    30091915 000022
21300920190000000000050                                                                                                                                                                                                                                                                                                                                                                                   000023
10231987175000168916200163100    000049987                    000499870000000000000109                     I0149987     30081900000000025003410000017N290719105700000000000803008190000000000000000000000000000000000000000100052329160763NENI GOMES DE ALMEIDA                   RUA MARIA SANTANA FERNANDESN 0, LOTE 8 QJARDINS     23890052SEROPEDICA     RJUNIAO UMB DOS CULTOS AFRO BRAS    30081915 000024
21300820190000000000050                                                                                                                                                                                                                                                                                                                                                                                   000025
10231987175000168916200163100    000049986                    000499860000000000000109                     I0149986     20081900000000075003410000017N290719105700000000000252008190000000000000000000000000000000000000000100052329160763NENI GOMES DE ALMEIDA                   RUA MARIA SANTANA FERNANDESN 0, LOTE 8 QJARDINS     23890052SEROPEDICA     RJUNIAO UMB DOS CULTOS AFRO BRAS    20081915 000026
21200820190000000000150                                                                                                                                                                                                                                                                                                                                                                                   000027
10231987175000168916200163100    000049985                    000499850000000000000109                     I0149985     30091900000000040003410000017N290719105700000000000133009190000000000000000000000000000000000000000100088190420704SOLANGE RAMOS DE OLIVEIRA               RUA TENENTE AGENOR BRITON 0, -  PROJETADSENADOR VASC23013440RIO DE JANEIRO RJUNIAO UMB DOS CULTOS AFRO BRAS    30091915 000028
21300920190000000000080                                                                                                                                                                                                                                                                                                                                                                                   000029
10231987175000168916200163100    000049984                    000499840000000000000109                     I0149984     30081900000000040003410000017N290719105700000000000133008190000000000000000000000000000000000000000100088190420704SOLANGE RAMOS DE OLIVEIRA               RUA TENENTE AGENOR BRITON 0, -  PROJETADSENADOR VASC23013440RIO DE JANEIRO RJUNIAO UMB DOS CULTOS AFRO BRAS    30081915 000030
21300820190000000000080                                                                                                                                                                                                                                                                                                                                                                                   000031
10231987175000168916200163100    000049983                    000499830000000000000109                     I0149983     09081900000000160003410000017N290719105700000000000530908190000000000000000000000000000000000000000100009491065777VIVIAN LUIZA FREITAS DE AGUIAR          RUA ITAPETININGAN 520,                  VICENTE DE C21370680RIO DE JANEIRO RJUNIAO UMB DOS CULTOS AFRO BRAS    09081915 000032
21090820190000000000320                                                                                                                                                                                                                                                                                                                                                                                   000033
10231987175000168916200163100    000049982                    000499820000000000000109                     I0149982     31071900000000300003410000017N290719105700000000000993107190000000000000000000000000000000000000000100007541296759NELMA DOS ANJOS SOUZA GONCALVE          ESTRADA PEDRINHASN 23, QUADRA 8         VENDA VELHA 25580660SAO JOAO DE MERRJUNIAO UMB DOS CULTOS AFRO BRAS    31071915 000034
21310720190000000000600                                                                                                                                                                                                                                                                                                                                                                                   000035
10231987175000168916200163100    000049981                    000499810000000000000109                     I0149981     10081900000000080003410000017N290719105700000000000261008190000000000000000000000000000000000000000100002375024702FATIMA APARECIDA OLIVEIRA DE C          RUA MANUEL VITORINON 412,               ENCANTADO   20740280RIO DE JANEIRO RJUNIAO UMB DOS CULTOS AFRO BRAS    10081915 000036
21100820190000000000160                                                                                                                                                                                                                                                                                                                                                                                   000037
10231987175000168916200163100    000049980                    000499800000000000000109                     I0149980     06091900000000400003410000017N280719105700000000001320609190000000000000000000000000000000000000000100000635840774MARCOS DE OLIVEIRA                      RUA MARCILIO DIASN 408,                 JARDIM CAICA28910080CABO FRIO      RJUNIAO UMB DOS CULTOS AFRO BRAS    06091915 000038
21060920190000000000800                                                                                                                                                                                                                                                                                                                                                                                   000039
10231987175000168916200163100    000049979                    000499790000000000000109                     I0149979     16081900000000600003410000017N280719105700000000001981608190000000000000000000000000000000000000000100005241615776SIMONE ALICE CACCAVO GRIBEL             RUA VENEZAN 142,                        PRAIA DE MAU25900000MAGE           RJUNIAO UMB DOS CULTOS AFRO BRAS    16081915 000040
21160820190000000001200                                                                                                                                                                                                                                                                                                                                                                                   000041
10231987175000168916200163100    000049916                    000499160000000000000109                     I0249916     16081900000000400003410000017N150719105700000000001321608190000000000000000000000000000000000000000100008251113741THIAGO COSTA VILAS BOAS                 RUA BENEDITO DA SILVA LOMBAN 1093,      MUQUECA     27140290BARRA DO PIRAI RJUNIAO UMB DOS CULTOS AFRO BRAS    16081915 000042
21160820190000000000800                                                                                                                                                                                                                                                                                                                                                                                   000043
10231987175000168916200163100    000049741                    000497410000000000000109                     I0249741     10071900000000300003410000017N170619105700000000000991007190000000000000000000000000000000000000000100007541296759NELMA DOS ANJOS SOUZA GONCALVE          ESTRADA PEDRINHASN 23, QUADRA 8         VENDA VELHA 25580660SAO JOAO DE MERRJUNIAO UMB DOS CULTOS AFRO BRAS    10071915 000044
21100720190000000000600                                                                                                                                                                                                                                                                                                                                                                                   000045
10231987175000168916200163100    000044324                    000443240000000000000109                     I0244324     30061900000000040003410000017N130319105700000000000133006190000000000000000000000000000000000000000100003360087755ELIENE GONCALVES JACINTO                TRAVESSA DAS FLORESN 20,                PARQUE LAFAI25010695DUQUE DE CAXIASRJUNIAO UMB DOS CULTOS AFRO BRAS    30061915 000046
21300620190000000000080                                                                                                                                                                                                                                                                                                                                                                                   000047
10231987175000168916200163100    000043919                    000439190000000000000109                     I0243919     30061900000000040003410000017N130319105700000000000133006190000000000000000000000000000000000000000100063658020725JUSSARA MAXIMO DIAS                     RUA: DO BOSQUEN 41, / 43                PACIENCIA   23065250RIO DE JANEIRO RJUNIAO UMB DOS CULTOS AFRO BRAS    30061915 000048
21300620190000000000080                                                                                                                                                                                                                                                                                                                                                                                   000049
9                                                                                                                                                                                                                                                                                                                                                                                                         000050
