01REMESSA01COBRANCA       916200163100        União Umb dos Cultos Afro Bra341BANCO ITAU SA  310318                                                                                                                                                                                                                                                                                                      000001
10231987175000168916200163100    00004733                     000047330000000000000109                     I024733      20121700000000175003410000017N051217104700000000000102012170000000000000000000000000000000000000000100010276278704ROSELI DE OLIVEIRA DUTRA                RUA UM LOTE 7 QUADRA 8                  TAQUARA - DU25275110DUQUE DE CAXIASRJUNIAO UMB DOS CULTOS AFRO BRAS    20121710 000002
10231987175000168916200163100    00004687                     000046870000000000000109                     I024687      20121700000000700003410000017N301117104700000000000102012170000000000000000000000000000000000000000100015613730792YAGO DOS SANTOS LUGAO                   O MESMO                                 O MESMO     21361320RIO DE JANEIRO RJUNIAO UMB DOS CULTOS AFRO BRAS    20121710 000003
10231987175000168916200163100    00004686                     000046860000000000000109                     I024686      20121700000000700003410000017N301117104700000000000102012170000000000000000000000000000000000000000100003346670708ANDREA DA SILVA CORDEIRO                O MESMO                                 O MESMO     26013530NOVA IGUACU    RJUNIAO UMB DOS CULTOS AFRO BRAS    20121710 000004
10231987175000168916200163100    00004219                     000042190000000000000109                     I024219      22121700000000350003410000017N171117104700000000000102212170000000000000000000000000000000000000000100013565688742CAIO CESAR DUARTE DE SOUZA              RUA CALUMBI, 300 APT 305                IRAJA - RIO 21361260RIO DE JANEIRO RJUNIAO UMB DOS CULTOS AFRO BRAS    22121710 000005
10231987175000168916200163100    00001638                     000016380000000000000109                     I021638      20121700000000400003410000017N301017104700000000000102012170000000000000000000000000000000000000000100069279500791CLAUDIA ALONSO RODRIGUES                ESTRADA DO PAU FERRO N 851              FREGUESIA - 22745055RIO DE JANEIRO RJUNIAO UMB DOS CULTOS AFRO BRAS    20121710 000006
10231987175000168916200163100    00001636                     000016360000000000000109                     I021636      20121700000000340003410000017N301017104700000000000102012170000000000000000000000000000000000000000100001346375771CRISTIANE MARIANO RAPELLO               ESTRADA ALBERTO TEIXEIRA CUNHA N 1410 CANILOPOLIS - 26520070NILOPOLIS      RJUNIAO UMB DOS CULTOS AFRO BRAS    20121710 000007
10231987175000168916200163100    00001634                     000016340000000000000109                     I021634      20121700000000340003410000017N301017104700000000000102012170000000000000000000000000000000000000000100010619254718MARIA TEREZA ANDRADE DOS SANTO          RUA: DOUTOR MANUEL LUIZ N 621           VALVERDE - N26291003NOVA IGUACU    RJUNIAO UMB DOS CULTOS AFRO BRAS    20121710 000008
10231987175000168916200163100    00001632                     000016320000000000000109                     I021632      20121700000000400003410000017N301017104700000000000102012170000000000000000000000000000000000000000100013222358729AMANDA PAULA TORRES DE SOUZA            RUA JOAO VICENTE, 261                   MADUREIRA   21340020RIO DE JANEIRO RJUNIAO UMB DOS CULTOS AFRO BRAS    20121710 000009
10231987175000168916200163100    00001631                     000016310000000000000109                     I021631      20121700000000400003410000017N301017104700000000000102012170000000000000000000000000000000000000000100093476930734LUCIENE TEIXEIRA DE OLIVEIRA            RUA CACHAMBI  34 APTO 407               CACHAMBI   R20775182RIO DE JANEIRO RJUNIAO UMB DOS CULTOS AFRO BRAS    20121710 000010
10231987175000168916200163100    00001630                     000016300000000000000109                     I021630      20121700000000350003410000017N301017104700000000000102012170000000000000000000000000000000000000000100003659613703MARIA JOSE DA SILVA LEONCIO DA          RUA: MARIPA LOTE 6 QUADRA 21 - PARQUE BODUQUE DE CAX25223600DUQUE DE CAXIASRJUNIAO UMB DOS CULTOS AFRO BRAS    20121710 000011
10231987175000168916200163100    00001629                     000016290000000000000109                     I021629      20121700000000400003410000017N301017104700000000000102012170000000000000000000000000000000000000000100043922880720JUDITH SPDO DE SENNA                    RUA PARANAPIACABA  97                   PIEDADE  RJ 20751390RIO DE JANEIRO RJUNIAO UMB DOS CULTOS AFRO BRAS    20121710 000012
10231987175000168916200163100    00001627                     000016270000000000000109                     I021627      20121700000000400003410000017N301017104700000000000102012170000000000000000000000000000000000000000100002096604737GISELLE BRAGA TORRES DE SOUZA           RUA LEOPOLDINA REGO N 619 APT 1005      OLARIA - RIO21021523RIO DE JANEIRO RJUNIAO UMB DOS CULTOS AFRO BRAS    20121710 000013
10231987175000168916200163100    00001626                     000016260000000000000109                     I021626      20121700000000350003410000017N301017104700000000000102012170000000000000000000000000000000000000000200000000009316IRENE SIMONE DE SOUZA NOGUEIRA          RUA: NOVE DE JUNHO LOTE 9 QUADRA 18 - IPNOVA IGUACU 26293354NOVA IGUACU    RJUNIAO UMB DOS CULTOS AFRO BRAS    20121710 000014
10231987175000168916200163100    00001625                     000016250000000000000109                     I021625      20121700000000340003410000017N301017104700000000000102012170000000000000000000000000000000000000000200000000009240MEYRE CHAVES SOARES                     RUA MARIO HERMES N 40 CASA 6            BENTO RIBEIR21550555RIO DE JANEIRO RJUNIAO UMB DOS CULTOS AFRO BRAS    20121710 000015
10231987175000168916200163100    00001624                     000016240000000000000109                     I021624      20121700000000350003410000017N301017104700000000000102012170000000000000000000000000000000000000000100001272334740VALERIA MARIA MOREIRA                   RUA: EUDINO EGGER Nº 70 - JARDIM CATARISAO GONCALO 32472290SAO GONCALO    RJUNIAO UMB DOS CULTOS AFRO BRAS    20121710 000016
10231987175000168916200163100    00001622                     000016220000000000000109                     I021622      20121700000000340003410000017N301017104700000000000102012170000000000000000000000000000000000000000200000000001068ELAINE LOPES GONCALVES FALCAO           RUA TIUBA N 697 - VAZ LOBO              VAZ LOBO - R21371170RIO DE JANEIRO RJUNIAO UMB DOS CULTOS AFRO BRAS    20121710 000017
10231987175000168916200163100    00001621                     000016210000000000000109                     I021621      20121700000000400003410000017N301017104700000000000102012170000000000000000000000000000000000000000200000000005440DELIA VIEIRA DA COSTA                   RUA CAPITAO BORGES COUTO N 10 B         SENADOR CAMA21832300RIO DE JANEIRO RJUNIAO UMB DOS CULTOS AFRO BRAS    20121710 000018
9                                                                                                                                                                                                                                                                                                                                                                                                         000019
