01REMESSA01COBRANCA       916200163100        União Umb dos Cultos Afro Bra341BANCO ITAU SA  250719                                                                                                                                                                                                                                                                                                      000001
10231987175000168916200163100    000049973                    000499730000000000000109                     I0149973     30071900000000040003410000017N250719105700000000000133007190000000000000000000000000000000000000000100000907631738IDA ANGELICA PEREIRA CALDAS             RUA SILVEIRA LOBON 43,                  CACHAMBI    20780310RIO DE JANEIRO RJUNIAO UMB DOS CULTOS AFRO BRAS    30071915 000002
21300720190000000000080                                                                                                                                                                                                                                                                                                                                                                                   000003
10231987175000168916200163100    000049972                    000499720000000000000109                     I0149972     30081900000000400003410000017N250719105700000000001323008190000000000000000000000000000000000000000100000158250788ROBSON BARBOZA VIEIRA                   RUA NOVEN 0, LOTE 13                    FAZENDA IGUA28960000IGUABA GRANDE  RJUNIAO UMB DOS CULTOS AFRO BRAS    30081915 000004
21300820190000000000800                                                                                                                                                                                                                                                                                                                                                                                   000005
10231987175000168916200163100    000049971                    000499710000000000000109                     I0149971     30081900000000400003410000017N250719105700000000001323008190000000000000000000000000000000000000000100065196171720MARIA DAS GRACAS OLIVEIRA               RUA FRANCISCO MANOEL N 22,              PONTO CHIQUE26032835NOVA IGUACU    RJUNIAO UMB DOS CULTOS AFRO BRAS    30081915 000006
21300820190000000000800                                                                                                                                                                                                                                                                                                                                                                                   000007
10231987175000168916200163100    000049970                    000499700000000000000109                     I0149970     30081900000000240003410000017N250719105700000000000793008190000000000000000000000000000000000000000100060208287515MARCONE DE AZEVEDO MAIA                 RUA SAO FRANCISCON 0, QUADRA 68 LOTE 20 MIMOSO      47850000LUIS EDUARDO MABAUNIAO UMB DOS CULTOS AFRO BRAS    30081915 000008
21300820190000000000480                                                                                                                                                                                                                                                                                                                                                                                   000009
10231987175000168916200163100    000045359                    000453590000000000000109                     I0245359     12061900000000080003410000017N070619105700000000000261206190000000000000000000000000000000000000000100081531095704ROSANA ALMEIDA SILVA                    RUA JOAQUIM MARIANO DE MOURA N 246,     PONTO CHIC  26032840NOVA IGUACU    RJUNIAO UMB DOS CULTOS AFRO BRAS    12061915 000010
21120620190000000000160                                                                                                                                                                                                                                                                                                                                                                                   000011
10231987175000168916200163100    000045357                    000453570000000000000109                     I0245357     10061900000000045003410000017N060619105700000000000151006190000000000000000000000000000000000000000100009605715740SONIA LUCIA DOS SANTOS                  RUA AN 320, AVENIDA MINISTRO AMARAL PEIXSIDERLANDIA 27350470BARRA MANSA    RJUNIAO UMB DOS CULTOS AFRO BRAS    10061915 000012
21100620190000000000090                                                                                                                                                                                                                                                                                                                                                                                   000013
10231987175000168916200163100    000045355                    000453550000000000000109                     I0245355     10061900000000080003410000017N050619105700000000000261006190000000000000000000000000000000000000000100074789600734SOLANGE MARTINS                         RUA ITAGIBAN 889,                       COSMOS      23060450RIO DE JANEIRO RJUNIAO UMB DOS CULTOS AFRO BRAS    10061915 000014
21100620190000000000160                                                                                                                                                                                                                                                                                                                                                                                   000015
10231987175000168916200163100    000045307                    000453070000000000000109                     I0245307     15061900000000350003410000017N240519105700000000001161506190000000000000000000000000000000000000000100000920173713JORGE DOS SANTOS LUCAS                  RUA PPN 0,  LOTE 5 QUADRA 48            JARDIM ANHAN25264630DUQUE DE CAXIASRJUNIAO UMB DOS CULTOS AFRO BRAS    15061915 000016
21150620190000000000700                                                                                                                                                                                                                                                                                                                                                                                   000017
10231987175000168916200163100    000045299                    000452990000000000000109                     I0245299     10061900000000180003410000017N220519105700000000000591006190000000000000000000000000000000000000000100048363669768MARILANE BARROSO BERNARDES              RUA ORICAN 89, CASA                     BRAZ DE PINA21215260RIO DE JANEIRO RJUNIAO UMB DOS CULTOS AFRO BRAS    10061915 000018
21100620190000000000360                                                                                                                                                                                                                                                                                                                                                                                   000019
10231987175000168916200163100    000045298                    000452980000000000000109                     I0245298     10061900000000350003410000017N220519105700000000001161006190000000000000000000000000000000000000000100081891423720MAURO DINIZ                             RUA MILTAER SOARES (ANTIGA RUA CINQUENTAJARDIM ATLAN24934525MARICA         RJUNIAO UMB DOS CULTOS AFRO BRAS    10061915 000020
21100620190000000000700                                                                                                                                                                                                                                                                                                                                                                                   000021
10231987175000168916200163100    000045268                    000452680000000000000109                     I0245268     30051900000000040003410000017N130519105700000000000133005190000000000000000000000000000000000000000100042897297700JOSE CARLOS LOUREIRO CORTEZ             RUA JOAO LUSON 215,                     REALENGO    21765620RIO DE JANEIRO RJUNIAO UMB DOS CULTOS AFRO BRAS    30051915 000022
21300520190000000000080                                                                                                                                                                                                                                                                                                                                                                                   000023
10231987175000168916200163100    000045262                    000452620000000000000109                     I0245262     31051900000000250003410000017N100519105700000000000833105190000000000000000000000000000000000000000100002575759790TERESA QUITA                            RUA PRIMEIRO DE MAION 2786,  GLEBA B    CHAPERO     23831350ITAGUAI        RJUNIAO UMB DOS CULTOS AFRO BRAS    31051915 000024
21310520190000000000500                                                                                                                                                                                                                                                                                                                                                                                   000025
10231987175000168916200163100    000045260                    000452600000000000000109                     I0245260     05061900000000400003410000017N100519105700000000001320506190000000000000000000000000000000000000000100008304731495JOSE CARLOS FERREIRA BARROS SA          RUA JOSE PILOTON 0,                     CENTRO      15420000GUARACI        SPUNIAO UMB DOS CULTOS AFRO BRAS    05061915 000026
21050620190000000000800                                                                                                                                                                                                                                                                                                                                                                                   000027
10231987175000168916200163100    000045245                    000452450000000000000109                     I0245245     30051900000000080003410000017N070519105700000000000263005190000000000000000000000000000000000000000100002428372718JOSIMARA MOREIRA COSTA                  RUA FERNAO CARDIMN 161, BLOCO 1 APTº 41ENGENHO DE D20771020RIO DE JANEIRO RJUNIAO UMB DOS CULTOS AFRO BRAS    30051915 000028
21300520190000000000160                                                                                                                                                                                                                                                                                                                                                                                   000029
10231987175000168916200163100    000045242                    000452420000000000000109                     I0245242     10061900000000080003410000017N070519105700000000000261006190000000000000000000000000000000000000000100001860329780VIVIANE DE PAULA AGNELO                 RUA DA VITORIAN 175,                    PARAISO     26297138NOVA IGUACU    RJUNIAO UMB DOS CULTOS AFRO BRAS    10061915 000030
21100620190000000000160                                                                                                                                                                                                                                                                                                                                                                                   000031
10231987175000168916200163100    000045240                    000452400000000000000109                     I0245240     30051900000000700003410000017N070519105700000000002313005190000000000000000000000000000000000000000100010848973771ANDRE LUIZ DE OLIVEIRA CORNELI          TRAVESSA DA FEN 106, CASA 2             PADRE MIGUEL21775690RIO DE JANEIRO RJUNIAO UMB DOS CULTOS AFRO BRAS    30051915 000032
21300520190000000001400                                                                                                                                                                                                                                                                                                                                                                                   000033
10231987175000168916200163100    000045215                    000452150000000000000109                     I0245215     30051900000000360003410000017N020519105700000000001193005190000000000000000000000000000000000000000100099025078753EVA DE OLIVEIRA LOPES                   RUA ITAPIREMAN 0, CASA 2 LOTE 8         PARQUE ENGEN26455070JAPERI         RJUNIAO UMB DOS CULTOS AFRO BRAS    30051915 000034
21300520190000000000720                                                                                                                                                                                                                                                                                                                                                                                   000035
10231987175000168916200163100    000045168                    000451680000000000000109                     I0245168     30051900000000040003410000017N290419105700000000000133005190000000000000000000000000000000000000000100068661533791FERNANDO MAURO DA COSTA                 RUA PRIMEIRO DE MAION 0, LOTES 33 E 34  IPIRANGA    26293357NOVA IGUACU    RJUNIAO UMB DOS CULTOS AFRO BRAS    30051915 000036
21300520190000000000080                                                                                                                                                                                                                                                                                                                                                                                   000037
10231987175000168916200163100    000045166                    000451660000000000000109                     I0245166     30051900000000040003410000017N290419105700000000000133005190000000000000000000000000000000000000000100011304236706GETULIO FERNANDES DA SILVA              RUA PARAISON 0, LOTE 2 QUADRA 50        CABUCU      26291446NOVA IGUACU    RJUNIAO UMB DOS CULTOS AFRO BRAS    30051915 000038
21300520190000000000080                                                                                                                                                                                                                                                                                                                                                                                   000039
10231987175000168916200163100    000045164                    000451640000000000000109                     I0245164     30051900000000040003410000017N290419105700000000000133005190000000000000000000000000000000000000000100001329905717MARCIA HELENA PEIXOTO GOMES             RUA GUILHERME SALES DE OLIVEIRAN 210,   VALVERDE    26290819NOVA IGUACU    RJUNIAO UMB DOS CULTOS AFRO BRAS    30051915 000040
21300520190000000000080                                                                                                                                                                                                                                                                                                                                                                                   000041
10231987175000168916200163100    000045157                    000451570000000000000109                     I0245157     30051900000000040003410000017N290419105700000000000133005190000000000000000000000000000000000000000100004428120788LUCINEA DEBORA SILVA DOS SANTO          RUA JACATIRAON 272, CASA 4 (RUA LAURO ARCAROLINA    25060140DUQUE DE CAXIASRJUNIAO UMB DOS CULTOS AFRO BRAS    30051915 000042
21300520190000000000080                                                                                                                                                                                                                                                                                                                                                                                   000043
10231987175000168916200163100    000045147                    000451470000000000000109                     I0245147     31051900000000300003410000017N260419105700000000000993105190000000000000000000000000000000000000000100039021313812ANDRE VALENTE FRANCO                    RUA: FRAGARIA ROSEAN 399,               PIRITUBA    02945080SAO PAULO      SPUNIAO UMB DOS CULTOS AFRO BRAS    31051915 000044
21310520190000000000600                                                                                                                                                                                                                                                                                                                                                                                   000045
10231987175000168916200163100    000045146                    000451460000000000000109                     I0245146     31051900000000300003410000017N260419105700000000000993105190000000000000000000000000000000000000000100089572220730SIMONE DA SILVA SANT ANA                RUA: AMALIAN 200,                       SEPETIBA    23535050RIO DE JANEIRO RJUNIAO UMB DOS CULTOS AFRO BRAS    31051915 000046
21310520190000000000600                                                                                                                                                                                                                                                                                                                                                                                   000047
10231987175000168916200163100    000045145                    000451450000000000000109                     I0245145     31051900000000300003410000017N260419105700000000000993105190000000000000000000000000000000000000000100002674910771ANA BEATRIZ TAVARES                     RUA BROMELIAS N 59 N 59, CONDOMINIO VALEVILA HELENA 27120335BARRA DO PIRAI RJUNIAO UMB DOS CULTOS AFRO BRAS    31051915 000048
21310520190000000000600                                                                                                                                                                                                                                                                                                                                                                                   000049
10231987175000168916200163100    000045143                    000451430000000000000109                     I0245143     31051900000000300003410000017N260419105700000000000993105190000000000000000000000000000000000000000100033498636391FRANCISCO ANTONIO GONCALVES DE          RUA: QUINTA TRAVESSA DA PEDREIRA N 184, TESO DURO   65603643CAXIAS         MAUNIAO UMB DOS CULTOS AFRO BRAS    31051915 000050
21310520190000000000600                                                                                                                                                                                                                                                                                                                                                                                   000051
10231987175000168916200163100    000045141                    000451410000000000000109                     I0245141     31051900000000300003410000017N260419105700000000000993105190000000000000000000000000000000000000000100093571232704ROBISON DE OLIVEIRA PINTO               RUA JORNALISTA PAULO REDER N 335, CASA 1SANTA CRUZ  23220245RIO DE JANEIRO RJUNIAO UMB DOS CULTOS AFRO BRAS    31051915 000052
21310520190000000000600                                                                                                                                                                                                                                                                                                                                                                                   000053
10231987175000168916200163100    000045140                    000451400000000000000109                     I0245140     31051900000000300003410000017N260419105700000000000993105190000000000000000000000000000000000000000100077464087291JOSIAS KENNEDY ROCHA DA SILVA           ESTRADA DO MATADOURON 52, CASA 5        CAMPINA DE I66813640BELEM          PAUNIAO UMB DOS CULTOS AFRO BRAS    31051915 000054
21310520190000000000600                                                                                                                                                                                                                                                                                                                                                                                   000055
10231987175000168916200163100    000045139                    000451390000000000000109                     I0245139     31051900000000300003410000017N260419105700000000000993105190000000000000000000000000000000000000000100007886532104VICTOR HUGO ALVES DE OLIVEIRA           RUA SANTA ELVIRAN 754,                  JARDIM ALTO 79116141CAMPO GRANDE   MSUNIAO UMB DOS CULTOS AFRO BRAS    31051915 000056
21310520190000000000600                                                                                                                                                                                                                                                                                                                                                                                   000057
10231987175000168916200163100    000045138                    000451380000000000000109                     I0245138     31051900000000300003410000017N260419105700000000000993105190000000000000000000000000000000000000000100007860111730RENATA SEIBEL MELO                      RUA CURUPAITIN 388,                     ENGENHO DE D20735320RIO DE JANEIRO RJUNIAO UMB DOS CULTOS AFRO BRAS    31051915 000058
21310520190000000000600                                                                                                                                                                                                                                                                                                                                                                                   000059
10231987175000168916200163100    000045137                    000451370000000000000109                     I0245137     31051900000000300003410000017N260419105700000000000993105190000000000000000000000000000000000000000100013387124708WAGNER DIAS DA SILVA                    AVENIDA DA GLORIAN 0,  LOTE 17 B QUADRA NOVA AURORA 26155120BELFORD ROXO   RJUNIAO UMB DOS CULTOS AFRO BRAS    31051915 000060
21310520190000000000600                                                                                                                                                                                                                                                                                                                                                                                   000061
10231987175000168916200163100    000045135                    000451350000000000000109                     I0245135     31051900000000300003410000017N260419105700000000000993105190000000000000000000000000000000000000000100008993844712GUILHERME PACHECO SALGADO - BA          RUA: DOUTOR PAULO HERVE N 733,  LOTE 3  BINGEN      25665510PETROPOLIS     RJUNIAO UMB DOS CULTOS AFRO BRAS    31051915 000062
21310520190000000000600                                                                                                                                                                                                                                                                                                                                                                                   000063
10231987175000168916200163100    000045133                    000451330000000000000109                     I0245133     31051900000000300003410000017N260419105700000000000993105190000000000000000000000000000000000000000100001392458714MARIA MADALENA SILVA DA CONCEI          RUA ELANDRO DA MOTA N 0, LOTE 12 QUADRA PRIMAVERA   25000000DUQUE DE CAXIASRJUNIAO UMB DOS CULTOS AFRO BRAS    31051915 000064
21310520190000000000600                                                                                                                                                                                                                                                                                                                                                                                   000065
10231987175000168916200163100    000045130                    000451300000000000000109                     I0245130     30051900000000300003410000017N260419105700000000000993005190000000000000000000000000000000000000000100001356022383ELCIO CADETE SILVA                      TRAVESSA: SAO JOSE N 2,                 SAO BENEDITO65268000CURURUPU       MAUNIAO UMB DOS CULTOS AFRO BRAS    30051915 000066
21300520190000000000600                                                                                                                                                                                                                                                                                                                                                                                   000067
10231987175000168916200163100    000045129                    000451290000000000000109                     I0245129     30051900000000300003410000017N260419105700000000000993005190000000000000000000000000000000000000000100018511346899ERICA PASTORINO RIBEIRO                 RUA: ERNESTO AUGUSTO CLETO N 473,       RUDGE RAMOS 09619100SAO BERNARDO DOSPUNIAO UMB DOS CULTOS AFRO BRAS    30051915 000068
21300520190000000000600                                                                                                                                                                                                                                                                                                                                                                                   000069
10231987175000168916200163100    000045128                    000451280000000000000109                     I0245128     30051900000000300003410000017N260419105700000000000993005190000000000000000000000000000000000000000100016389969708HIAGO VIEIRA DA SILVA                   RUA SILAS GASPARN 176,                  BNH         28860000CASIMIRO DE ABRRJUNIAO UMB DOS CULTOS AFRO BRAS    30051915 000070
21300520190000000000600                                                                                                                                                                                                                                                                                                                                                                                   000071
10231987175000168916200163100    000045127                    000451270000000000000109                     I0245127     30051900000000300003410000017N260419105700000000000993005190000000000000000000000000000000000000000100065779894787GILMAR JORGE BORSATO                    RUA: DIOGENES PADILHARON 106, BLOCO 9 APCENTRO      25807010TRES RIOS      RJUNIAO UMB DOS CULTOS AFRO BRAS    30051915 000072
21300520190000000000600                                                                                                                                                                                                                                                                                                                                                                                   000073
10231987175000168916200163100    000045126                    000451260000000000000109                     I0245126     30051900000000300003410000017N260419105700000000000993005190000000000000000000000000000000000000000100016185111730LUCAS FABIANO SANTOS FEIJO              RUA ANTONIO SCHIAVON 251,               CENTRO DE JA26443030JAPERI         RJUNIAO UMB DOS CULTOS AFRO BRAS    30051915 000074
21300520190000000000600                                                                                                                                                                                                                                                                                                                                                                                   000075
10231987175000168916200163100    000045125                    000451250000000000000109                     I0245125     30051900000000700003410000017N260419105700000000002313005190000000000000000000000000000000000000000100022293762840RODRIGO GONCALVES MOREIRA               RUA JOAQUIM LAVESN 0, QUADRA 60 LOTE 3  REALENGO    21760500RIO DE JANEIRO RJUNIAO UMB DOS CULTOS AFRO BRAS    30051915 000076
21300520190000000001400                                                                                                                                                                                                                                                                                                                                                                                   000077
10231987175000168916200163100    000045113                    000451130000000000000109                     I0245113     31051900000000040003410000017N250419105700000000000133105190000000000000000000000000000000000000000100008276159737TEREZINHA DE JESUS SILVA                RUA MIL E VINTE E CINCON 45,            VOLTA GRANDE27211830VOLTA REDONDA  RJUNIAO UMB DOS CULTOS AFRO BRAS    31051915 000078
21310520190000000000080                                                                                                                                                                                                                                                                                                                                                                                   000079
10231987175000168916200163100    000045110                    000451100000000000000109                     I0245110     31051900000000120003410000017N240419105700000000000403105190000000000000000000000000000000000000000100027686205720DENNIS CLARE                            RUA RATICLIFFN 105,                     RIACHUELO   20950170RIO DE JANEIRO RJUNIAO UMB DOS CULTOS AFRO BRAS    31051915 000080
21310520190000000000240                                                                                                                                                                                                                                                                                                                                                                                   000081
10231987175000168916200163100    000045109                    000451090000000000000109                     I0245109     31051900000000080003410000017N240419105700000000000263105190000000000000000000000000000000000000000100027686205720DENNIS CLARE                            RUA RATICLIFFN 105,                     RIACHUELO   20950170RIO DE JANEIRO RJUNIAO UMB DOS CULTOS AFRO BRAS    31051915 000082
21310520190000000000160                                                                                                                                                                                                                                                                                                                                                                                   000083
10231987175000168916200163100    000045108                    000451080000000000000109                     I0245108     31051900000000120003410000017N240419105700000000000403105190000000000000000000000000000000000000000100018801293704NORMA RAMOS VIANNA                      AVENIDA PERNAMBUCANAN 1680,             VILA ROSALI 25510430SAO JOAO DE MERRJUNIAO UMB DOS CULTOS AFRO BRAS    31051915 000084
21310520190000000000240                                                                                                                                                                                                                                                                                                                                                                                   000085
10231987175000168916200163100    000045106                    000451060000000000000109                     I0245106     31051900000000040003410000017N240419105700000000000133105190000000000000000000000000000000000000000100012663149705DIEGO PARREIRA DE ARAUJO                RUA EMENERGILDA DE SOUZAN 0, QUADRA 18 LJARDIM SAO J23890103SEROPEDICA     RJUNIAO UMB DOS CULTOS AFRO BRAS    31051915 000086
21310520190000000000080                                                                                                                                                                                                                                                                                                                                                                                   000087
10231987175000168916200163100    000045098                    000450980000000000000109                     I0245098     31051900000000040003410000017N240419105700000000000133105190000000000000000000000000000000000000000100008658808750LUIS CARLOS FARIAS DUARTE               RUA RODOLFO GARCIAN 90, FUNDOS          VILA NOVA - 23070430RIO DE JANEIRO RJUNIAO UMB DOS CULTOS AFRO BRAS    31051915 000088
21310520190000000000080                                                                                                                                                                                                                                                                                                                                                                                   000089
10231987175000168916200163100    000045096                    000450960000000000000109                     I0245096     31051900000000040003410000017N240419105700000000000133105190000000000000000000000000000000000000000100001435917707CLAUDIA MARISA DIAS RAMOS               AVENIDA VEREADOR RAFAEL GIRARDIN 64, CAICENTRO      36500970UBA            MGUNIAO UMB DOS CULTOS AFRO BRAS    31051915 000090
21310520190000000000080                                                                                                                                                                                                                                                                                                                                                                                   000091
10231987175000168916200163100    000045095                    000450950000000000000109                     I0245095     31051900000000040003410000017N240419105700000000000133105190000000000000000000000000000000000000000100011886231761THALLES CASSIANO SERRA LIMA             RUA SALDANHA DA GAMAN 181,              ENGENHO DO P25015295DUQUE DE CAXIASRJUNIAO UMB DOS CULTOS AFRO BRAS    31051915 000092
21310520190000000000080                                                                                                                                                                                                                                                                                                                                                                                   000093
10231987175000168916200163100    000045086                    000450860000000000000109                     I0245086     31051900000000040003410000017N180419105700000000000133105190000000000000000000000000000000000000000100005305498759ANTONIO INACIO REIS DE SOUSA            RUA EMILIA DOS SANTOSN 0, LOTE 1 QUADRA CAMPO LINDO 23898060SEROPEDICA     RJUNIAO UMB DOS CULTOS AFRO BRAS    31051915 000094
21310520190000000000080                                                                                                                                                                                                                                                                                                                                                                                   000095
10231987175000168916200163100    000045055                    000450550000000000000109                     I0245055     30051900000000040003410000017N120419105700000000000133005190000000000000000000000000000000000000000100005348183741MARTA CRISTINA V. ANDRADE COVE          ESTRADA DAS AGULHAS NEGRASN 44, B       CAMPO GRANDE23042500RIO DE JANEIRO RJUNIAO UMB DOS CULTOS AFRO BRAS    30051915 000096
21300520190000000000080                                                                                                                                                                                                                                                                                                                                                                                   000097
10231987175000168916200163100    000045052                    000450520000000000000109                     I0245052     30051900000000040003410000017N120419105700000000000133005190000000000000000000000000000000000000000100079179690700SANDRA BAPTISTA DA SILVA                RUA SOLDADO HIVIL MILIATON 141,         CAMPO GRANDE23042430RIO DE JANEIRO RJUNIAO UMB DOS CULTOS AFRO BRAS    30051915 000098
21300520190000000000080                                                                                                                                                                                                                                                                                                                                                                                   000099
10231987175000168916200163100    000045050                    000450500000000000000109                     I0245050     30051900000000040003410000017N120419105700000000000133005190000000000000000000000000000000000000000100077126610734FRANCISCO MUNIZ NETO                    RUA HOMERON 26,                         ROCHA MIRAND21510160RIO DE JANEIRO RJUNIAO UMB DOS CULTOS AFRO BRAS    30051915 000100
21300520190000000000080                                                                                                                                                                                                                                                                                                                                                                                   000101
10231987175000168916200163100    000044982                    000449820000000000000109                     I0244982     30051900000000060003410000017N030419105700000000000203005190000000000000000000000000000000000000000100088763765772VERONICA CECILIA DE AGUIAR              RUA LAURELINO FREIREN 101, CASA 7       GUAXINDIBA  24722330SAO GONCALO    RJUNIAO UMB DOS CULTOS AFRO BRAS    30051915 000102
21300520190000000000120                                                                                                                                                                                                                                                                                                                                                                                   000103
10231987175000168916200163100    000044926                    000449260000000000000109                     I0244926     30051900000000040003410000017N290319105700000000000133005190000000000000000000000000000000000000000100001162883707SUNEY MENEZES MACHADO                   RUA ANTONIO CARLOS NETON 85, CASA 2     CAMPO GRANDE23090630RIO DE JANEIRO RJUNIAO UMB DOS CULTOS AFRO BRAS    30051915 000104
21300520190000000000080                                                                                                                                                                                                                                                                                                                                                                                   000105
10231987175000168916200163100    000044893                    000448930000000000000109                     I0244893     31051900000000040003410000017N260319105700000000000133105190000000000000000000000000000000000000000100015702435737MARCIO PEIXOTO CORREA                   RUA DO DIALOGO N 65,                    CURICICA - J22780730RIO DE JANEIRO RJUNIAO UMB DOS CULTOS AFRO BRAS    31051915 000106
21310520190000000000080                                                                                                                                                                                                                                                                                                                                                                                   000107
10231987175000168916200163100    000044876                    000448760000000000000109                     I0244876     30051900000000040003410000017N220319105700000000000133005190000000000000000000000000000000000000000100007541296759NELMA DOS ANJOS SOUZA GONCALVE          ESTRADA PEDRINHASN 23, QUADRA 8         VENDA VELHA 25580660SAO JOAO DE MERRJUNIAO UMB DOS CULTOS AFRO BRAS    30051915 000108
21300520190000000000080                                                                                                                                                                                                                                                                                                                                                                                   000109
10231987175000168916200163100    000044471                    000444710000000000000109                     I3444471     30061900000000040003410000017N130319105700000000000133006190000000000000000000000000000000000000000100002362714748MAGLENE GOMES ARAUJO                    RUA TENENTE PINTO DUARTEN 36,           BENTO RIBEIR21550370RIO DE JANEIRO RJUNIAO UMB DOS CULTOS AFRO BRAS    30061915 000110
21300620190000000000080                                                                                                                                                                                                                                                                                                                                                                                   000111
10231987175000168916200163100    000043719                    000437190000000000000109                     I0243719     30061900000000040003410000017N130319105700000000000133006190000000000000000000000000000000000000000100000907631738IDA ANGELICA PEREIRA CALDAS             RUA SILVEIRA LOBON 43,                  CACHAMBI    20780310RIO DE JANEIRO RJUNIAO UMB DOS CULTOS AFRO BRAS    30061915 000112
21300620190000000000080                                                                                                                                                                                                                                                                                                                                                                                   000113
10231987175000168916200163100    000043714                    000437140000000000000109                     I0243714     30061900000000040003410000017N130319105700000000000133006190000000000000000000000000000000000000000100065196171720MARIA DAS GRACAS OLIVEIRA               RUA FRANCISCO MANOEL N 22,              PONTO CHIQUE26032835NOVA IGUACU    RJUNIAO UMB DOS CULTOS AFRO BRAS    30061915 000114
21300620190000000000080                                                                                                                                                                                                                                                                                                                                                                                   000115
10231987175000168916200163100    000043232                    000432320000000000000109                     I0243232     30061900000000040003410000017N130319105700000000000133006190000000000000000000000000000000000000000100002477166778BEATRIZ MIRANDA ABRANCHES               RUA GRUCAIN 657,                        PENHA       21020250RIO DE JANEIRO RJUNIAO UMB DOS CULTOS AFRO BRAS    30061915 000116
21300620190000000000080                                                                                                                                                                                                                                                                                                                                                                                   000117
10231987175000168916200163100    000043144                    000431440000000000000109                     I0243144     30051900000000040003410000017N130319105700000000000133005190000000000000000000000000000000000000000100013647266701WALLACE BRUNO COUTINHO PEREIRA          RUA RAFAEL WALLACE COUTINHO PEREIRA N 71SANTANA     23811437ITAGUAI        RJUNIAO UMB DOS CULTOS AFRO BRAS    30051915 000118
21300520190000000000080                                                                                                                                                                                                                                                                                                                                                                                   000119
10231987175000168916200163100    000043143                    000431430000000000000109                     I0243143     30051900000000040003410000017N130319105700000000000133005190000000000000000000000000000000000000000100001662021771ROBERTO DOS SANTOS QUEIROGA             RUA EDGAR BARBOSA N 120,                ANCHIETA    21645190RIO DE JANEIRO RJUNIAO UMB DOS CULTOS AFRO BRAS    30051915 000120
21300520190000000000080                                                                                                                                                                                                                                                                                                                                                                                   000121
10231987175000168916200163100    000043142                    000431420000000000000109                     I0243142     30051900000000040003410000017N130319105700000000000133005190000000000000000000000000000000000000000100003400539767MARIA SUELI OLIVEIRA NASCIMENT          RUA SAO FRANCISCO XAVIERN 139,          PIABETA     25931414MAGE           RJUNIAO UMB DOS CULTOS AFRO BRAS    30051915 000122
21300520190000000000080                                                                                                                                                                                                                                                                                                                                                                                   000123
10231987175000168916200163100    000043141                    000431410000000000000109                     I0243141     30051900000000040003410000017N130319105700000000000133005190000000000000000000000000000000000000000100008942864716NARA VANESSA DA SILVEIRA CASTI          AVENIDA NOVA ORLEANSN 113,              VILA CALIFOR23810210ITAGUAI        RJUNIAO UMB DOS CULTOS AFRO BRAS    30051915 000124
21300520190000000000080                                                                                                                                                                                                                                                                                                                                                                                   000125
10231987175000168916200163100    000043139                    000431390000000000000109                     I0243139     30051900000000040003410000017N130319105700000000000133005190000000000000000000000000000000000000000100012998933769BRUNO COSTA BATISTA                     RUA MARAPANIMN 0, LOTE 8 QUADRA 21      JARDIM PRIMA25223230DUQUE DE CAXIASRJUNIAO UMB DOS CULTOS AFRO BRAS    30051915 000126
21300520190000000000080                                                                                                                                                                                                                                                                                                                                                                                   000127
10231987175000168916200163100    000043138                    000431380000000000000109                     I0243138     30051900000000040003410000017N130319105700000000000133005190000000000000000000000000000000000000000100005258854710ALESSANDRA ANDRADE MENDES DE S          RUA DESEMBARGADOR FERREIRA PINTON 0, LOTVALVERDE    26291078NOVA IGUACU    RJUNIAO UMB DOS CULTOS AFRO BRAS    30051915 000128
21300520190000000000080                                                                                                                                                                                                                                                                                                                                                                                   000129
10231987175000168916200163100    000043136                    000431360000000000000109                     I0243136     30051900000000040003410000017N130319105700000000000133005190000000000000000000000000000000000000000100013845707720VAGNER MACENA DE ANDRADE                RUA MARIA HELENAN 170,                  CIDADE HORAC25931346MAGE           RJUNIAO UMB DOS CULTOS AFRO BRAS    30051915 000130
21300520190000000000080                                                                                                                                                                                                                                                                                                                                                                                   000131
10231987175000168916200163100    000043135                    000431350000000000000109                     I0243135     30051900000000040003410000017N130319105700000000000133005190000000000000000000000000000000000000000100064671208768LEIDIMAR DE LIMA EZEQUIEL               RUA TURMALINAS N 50, LOTE 13 CASA 50    COELHO DA RO25550551SAO JOAO DE MERRJUNIAO UMB DOS CULTOS AFRO BRAS    30051915 000132
21300520190000000000080                                                                                                                                                                                                                                                                                                                                                                                   000133
10231987175000168916200163100    000043125                    000431250000000000000109                     I0243125     30051900000000040003410000017N130319105700000000000133005190000000000000000000000000000000000000000100085838284749NILCE DOS SANTOS GABRIEL                AVENIDA VICENTE DE CARVALHON 1086, RUA FVICENTE DE C21210000RIO DE JANEIRO RJUNIAO UMB DOS CULTOS AFRO BRAS    30051915 000134
21300520190000000000080                                                                                                                                                                                                                                                                                                                                                                                   000135
10231987175000168916200163100    000043123                    000431230000000000000109                     I0243123     30051900000000040003410000017N130319105700000000000133005190000000000000000000000000000000000000000100009448785712ANDREIA SOUSA SERRA                     RUA BIRIGUIN 4464,                      BOA VISTA   24466190SAO GONCALO    RJUNIAO UMB DOS CULTOS AFRO BRAS    30051915 000136
21300520190000000000080                                                                                                                                                                                                                                                                                                                                                                                   000137
10231987175000168916200163100    000043122                    000431220000000000000109                     I0243122     30051900000000040003410000017N130319105700000000000133005190000000000000000000000000000000000000000100007717387735VALNICE DA SILVA RODRIGUES MEN          TRAVESSA NOVEN 35, BNH                  VILA VELHA (25912185MAGE           RJUNIAO UMB DOS CULTOS AFRO BRAS    30051915 000138
21300520190000000000080                                                                                                                                                                                                                                                                                                                                                                                   000139
10231987175000168916200163100    000043120                    000431200000000000000109                     I0243120     30051900000000040003410000017N130319105700000000000133005190000000000000000000000000000000000000000100004131909782SIMONE ANCHIETA DE AMORIM               RUA CAROLINA CARDOSON 0, FD LT 3 QD 1   PILAR       25233150DUQUE DE CAXIASRJUNIAO UMB DOS CULTOS AFRO BRAS    30051915 000140
21300520190000000000080                                                                                                                                                                                                                                                                                                                                                                                   000141
10231987175000168916200163100    000043115                    000431150000000000000109                     I0243115     30051900000000040003410000017N130319105700000000000133005190000000000000000000000000000000000000000229148311000184CANTINHO DO VOVO REI CONGO E O          RUA CONSELHEIRO AGOSTINHON 55, APARTAMENCACHAMBI    20770160RIO DE JANEIRO RJUNIAO UMB DOS CULTOS AFRO BRAS    30051915 000142
21300520190000000000080                                                                                                                                                                                                                                                                                                                                                                                   000143
10231987175000168916200163100    000043114                    000431140000000000000109                     I0243114     30051900000000040003410000017N130319105700000000000133005190000000000000000000000000000000000000000100005948651746DIOGO RODRIGUES DOS SANTOS              RUA PETER LUNDN 38, BLOCO 1 APT 407     SAO CRISTOVA20930390RIO DE JANEIRO RJUNIAO UMB DOS CULTOS AFRO BRAS    30051915 000144
21300520190000000000080                                                                                                                                                                                                                                                                                                                                                                                   000145
10231987175000168916200163100    000043110                    000431100000000000000109                     I0243110     30051900000000040003410000017N130319105700000000000133005190000000000000000000000000000000000000000100008109127754DAMIANA CRISTINA SILVA DOS SAN          RUA IGARAPE N 203,                      JARDIM OLAVO25025340DUQUE DE CAXIASRJUNIAO UMB DOS CULTOS AFRO BRAS    30051915 000146
21300520190000000000080                                                                                                                                                                                                                                                                                                                                                                                   000147
10231987175000168916200163100    000043109                    000431090000000000000109                     I0243109     30051900000000040003410000017N130319105700000000000133005190000000000000000000000000000000000000000100005170208740DJAIR DE PAULA CAVALCANTI               RUA RESTINGAN 0, LOTE 11 QUADRA 35 A - SCAMPO GRANDE23097650RIO DE JANEIRO RJUNIAO UMB DOS CULTOS AFRO BRAS    30051915 000148
21300520190000000000080                                                                                                                                                                                                                                                                                                                                                                                   000149
10231987175000168916200163100    000043108                    000431080000000000000109                     I0243108     30051900000000040003410000017N130319105700000000000133005190000000000000000000000000000000000000000100029040973768NELSON PEREIRA DE CARVALHO              RUA DO CAMPON 35,                       CONCEICAO DE23885000MANGARATIBA    RJUNIAO UMB DOS CULTOS AFRO BRAS    30051915 000150
21300520190000000000080                                                                                                                                                                                                                                                                                                                                                                                   000151
10231987175000168916200163100    000043106                    000431060000000000000109                     I0243106     30051900000000040003410000017N130319105700000000000133005190000000000000000000000000000000000000000100010953053792DANIELE FERNANDES DE CARVALHO           RUA BARROSON 0, CASA 1 LOTE 30 QUADRA 97JARDIM CABUC26291428NOVA IGUACU    RJUNIAO UMB DOS CULTOS AFRO BRAS    30051915 000152
21300520190000000000080                                                                                                                                                                                                                                                                                                                                                                                   000153
10231987175000168916200163100    000043105                    000431050000000000000109                     I0243105     30051900000000040003410000017N130319105700000000000133005190000000000000000000000000000000000000000100009053488774ANTONIO FERREIRA DE SOUZA               RUA ARTUR MOURAN 171,                   JARDIM NOVA 26272140NOVA IGUACU    RJUNIAO UMB DOS CULTOS AFRO BRAS    30051915 000154
21300520190000000000080                                                                                                                                                                                                                                                                                                                                                                                   000155
10231987175000168916200163100    000043102                    000431020000000000000109                     I0243102     30051900000000040003410000017N130319105700000000000133005190000000000000000000000000000000000000000100001510995706JUPIRA FARIAS DE MATTOS                 ESTRADA ALARICO DE SOUZAN 703, CASA 2   LARGO DA BAT24315320NITEROI        RJUNIAO UMB DOS CULTOS AFRO BRAS    30051915 000156
21300520190000000000080                                                                                                                                                                                                                                                                                                                                                                                   000157
10231987175000168916200163100    000043101                    000431010000000000000109                     I0243101     30051900000000040003410000017N130319105700000000000133005190000000000000000000000000000000000000000100003544254719EDIJANE PINHEIRO DE LIMA                RUA: DOIS DE JANEIRON 0, LOTE 54 QUADRA CAMPO GRANDE23097588RIO DE JANEIRO RJUNIAO UMB DOS CULTOS AFRO BRAS    30051915 000158
21300520190000000000080                                                                                                                                                                                                                                                                                                                                                                                   000159
10231987175000168916200163100    000043100                    000431000000000000000109                     I0243100     30051900000000040003410000017N130319105700000000000133005190000000000000000000000000000000000000000100013014823740EUGENIA DA SILVA ALVES PEREIRA          RUA BN 0, LOTE 21 QUADRA 15             JARDIM ANHAN25264570DUQUE DE CAXIASRJUNIAO UMB DOS CULTOS AFRO BRAS    30051915 000160
21300520190000000000080                                                                                                                                                                                                                                                                                                                                                                                   000161
10231987175000168916200163100    000043098                    000430980000000000000109                     I0243098     30051900000000040003410000017N130319105700000000000133005190000000000000000000000000000000000000000100002171972726RAQUEL DE SOUZA MENESES                 RUA ROMERO ZANDERN 271, ENTRADA A APT 10RAMOS       21040080RIO DE JANEIRO RJUNIAO UMB DOS CULTOS AFRO BRAS    30051915 000162
21300520190000000000080                                                                                                                                                                                                                                                                                                                                                                                   000163
10231987175000168916200163100    000043097                    000430970000000000000109                     I0243097     30051900000000040003410000017N130319105700000000000133005190000000000000000000000000000000000000000100007245028745SANDRA REGINA MARQUES                   RUA MIGUEL UNAMUNON 0, LOTE 18 QUADRA 4 JARDIM ROTSE25270120DUQUE DE CAXIASRJUNIAO UMB DOS CULTOS AFRO BRAS    30051915 000164
21300520190000000000080                                                                                                                                                                                                                                                                                                                                                                                   000165
10231987175000168916200163100    000043096                    000430960000000000000109                     I0243096     30051900000000040003410000017N130319105700000000000133005190000000000000000000000000000000000000000100050660098768ENI MARIA DA CONCEICAO DE MOUR          RUA IPIRANGAN 0, LOTE 24 E 25           BARRO BRANCO25267365DUQUE DE CAXIASRJUNIAO UMB DOS CULTOS AFRO BRAS    30051915 000166
21300520190000000000080                                                                                                                                                                                                                                                                                                                                                                                   000167
10231987175000168916200163100    000043095                    000430950000000000000109                     I0243095     30051900000000040003410000017N130319105700000000000133005190000000000000000000000000000000000000000100011124747737JOSE DO NASCIMENTO                      RUA JUTAI N 0, LOTE 25 QUADRA 153       OLAVO BILAC 25025290DUQUE DE CAXIASRJUNIAO UMB DOS CULTOS AFRO BRAS    30051915 000168
21300520190000000000080                                                                                                                                                                                                                                                                                                                                                                                   000169
10231987175000168916200163100    000043094                    000430940000000000000109                     I0243094     30051900000000040003410000017N130319105700000000000133005190000000000000000000000000000000000000000100083883363715ISABEL HELENA CEZARIO MEDEIROS          RUA DUQUE DE CAXIASN 129,               VILA ISABEL 20551050RIO DE JANEIRO RJUNIAO UMB DOS CULTOS AFRO BRAS    30051915 000170
21300520190000000000080                                                                                                                                                                                                                                                                                                                                                                                   000171
10231987175000168916200163100    000043091                    000430910000000000000109                     I0243091     30051900000000040003410000017N130319105700000000000133005190000000000000000000000000000000000000000100088763765772VERONICA CECILIA DE AGUIAR              RUA LAURELINO FREIREN 101, CASA 7       GUAXINDIBA  24722330SAO GONCALO    RJUNIAO UMB DOS CULTOS AFRO BRAS    30051915 000172
21300520190000000000080                                                                                                                                                                                                                                                                                                                                                                                   000173
10231987175000168916200163100    000043090                    000430900000000000000109                     I0243090     30051900000000040003410000017N130319105700000000000133005190000000000000000000000000000000000000000100000840541740JUCIARA GONCALVES NEPOMUCENO            RUA CASTRO VIEIRAN 174,                 AREIA BRANCA26112360BELFORD ROXO   RJUNIAO UMB DOS CULTOS AFRO BRAS    30051915 000174
21300520190000000000080                                                                                                                                                                                                                                                                                                                                                                                   000175
10231987175000168916200163100    000043087                    000430870000000000000109                     I0243087     30051900000000040003410000017N130319105700000000000133005190000000000000000000000000000000000000000100009142845769MICHELE OAZEM MINEIRO                   RUA CARIOCAN 0, LOTE 10 QUADRA B        SAO BERNARDO26167210BELFORD ROXO   RJUNIAO UMB DOS CULTOS AFRO BRAS    30051915 000176
21300520190000000000080                                                                                                                                                                                                                                                                                                                                                                                   000177
10231987175000168916200163100    000043085                    000430850000000000000109                     I0243085     30051900000000040003410000017N130319105700000000000133005190000000000000000000000000000000000000000100013376872783ELIANE MENDES DA SILVA                  RUA BECO BARREIRAN 68,                  SANTA CRUZ  23555110RIO DE JANEIRO RJUNIAO UMB DOS CULTOS AFRO BRAS    30051915 000178
21300520190000000000080                                                                                                                                                                                                                                                                                                                                                                                   000179
10231987175000168916200163100    000043083                    000430830000000000000109                     I0243083     30051900000000040003410000017N130319105700000000000133005190000000000000000000000000000000000000000100034463399300MARIA ENOIA DE SOUSA CORREA             RUA BORBOREMAN 37, CASA 1               MADUREIRA   21360150RIO DE JANEIRO RJUNIAO UMB DOS CULTOS AFRO BRAS    30051915 000180
21300520190000000000080                                                                                                                                                                                                                                                                                                                                                                                   000181
10231987175000168916200163100    000043072                    000430720000000000000109                     I0243072     30051900000000040003410000017N130319105700000000000133005190000000000000000000000000000000000000000100007403387732MARCOS MAURICIO DOS SANTOS COS          RUA: BOA VISTAN 299,                    CARAMUJO    24140460NITEROI        RJUNIAO UMB DOS CULTOS AFRO BRAS    30051915 000182
21300520190000000000080                                                                                                                                                                                                                                                                                                                                                                                   000183
10231987175000168916200163100    000043069                    000430690000000000000109                     I0243069     30051900000000040003410000017N130319105700000000000133005190000000000000000000000000000000000000000100014165634743GLAUBER VINICIUS DE ALMEIDA BA          RUA SAO CARLOSN 75,                     ESTACIO     20250052RIO DE JANEIRO RJUNIAO UMB DOS CULTOS AFRO BRAS    30051915 000184
21300520190000000000080                                                                                                                                                                                                                                                                                                                                                                                   000185
10231987175000168916200163100    000043067                    000430670000000000000109                     I0243067     30051900000000040003410000017N130319105700000000000133005190000000000000000000000000000000000000000100012303421764PEDRO JONAS ARAUJO CORDEIRO             RUA JOSE LIMA DA SILVAN 0, LOTE 7 QUADRASANTA RITA  26185610BELFORD ROXO   RJUNIAO UMB DOS CULTOS AFRO BRAS    30051915 000186
21300520190000000000080                                                                                                                                                                                                                                                                                                                                                                                   000187
10231987175000168916200163100    000043065                    000430650000000000000109                     I0243065     30051900000000040003410000017N130319105700000000000133005190000000000000000000000000000000000000000100003413776789CRISTIANE DE SOUZA GALANTE INA          BECO DA SERVIDAON 70, CASA 3            ENGENHEIRO B25520370SAO JOAO DE MERRJUNIAO UMB DOS CULTOS AFRO BRAS    30051915 000188
21300520190000000000080                                                                                                                                                                                                                                                                                                                                                                                   000189
10231987175000168916200163100    000043063                    000430630000000000000109                     I0243063     30051900000000040003410000017N130319105700000000000133005190000000000000000000000000000000000000000100008323642745ROSEMERI DE SOUZA COUTINHO              RUA VERA LUCIA N 0, LOTE 20 QUADRA 3    CABUCU      26291452NOVA IGUACU    RJUNIAO UMB DOS CULTOS AFRO BRAS    30051915 000190
21300520190000000000080                                                                                                                                                                                                                                                                                                                                                                                   000191
10231987175000168916200163100    000043062                    000430620000000000000109                     I0243062     30051900000000040003410000017N130319105700000000000133005190000000000000000000000000000000000000000100007147220730LUIS CARLOS DA COSTA OLIVEIRA           RUA MINAS GERAIS N 0, LOTE 11 QUADRA 159CAMPO ALEGRE26292141NOVA IGUACU    RJUNIAO UMB DOS CULTOS AFRO BRAS    30051915 000192
21300520190000000000080                                                                                                                                                                                                                                                                                                                                                                                   000193
10231987175000168916200163100    000043060                    000430600000000000000109                     I0243060     30051900000000040003410000017N130319105700000000000133005190000000000000000000000000000000000000000100036139050782VIRGINIA DANTAS FERREIRA                RUA PROFESSOR ALPHEU PORTELLAN 127, CONDTAQUARA     22725130RIO DE JANEIRO RJUNIAO UMB DOS CULTOS AFRO BRAS    30051915 000194
21300520190000000000080                                                                                                                                                                                                                                                                                                                                                                                   000195
10231987175000168916200163100    000043055                    000430550000000000000109                     I0243055     30051900000000040003410000017N130319105700000000000133005190000000000000000000000000000000000000000100001359669736JUCILENE DOS SANTOS GALVAO              RUA ALICE FREITAS N 355, FUNDOS         VICENTE DE C21371220RIO DE JANEIRO RJUNIAO UMB DOS CULTOS AFRO BRAS    30051915 000196
21300520190000000000080                                                                                                                                                                                                                                                                                                                                                                                   000197
10231987175000168916200163100    000043054                    000430540000000000000109                     I0243054     30051900000000040003410000017N130319105700000000000133005190000000000000000000000000000000000000000100007202542722MIRLA SUSANI DA SILVA SALES             RUA: DOUTOR FREDERICON 395,             LAGOINHA    26296414NOVA IGUACU    RJUNIAO UMB DOS CULTOS AFRO BRAS    30051915 000198
21300520190000000000080                                                                                                                                                                                                                                                                                                                                                                                   000199
10231987175000168916200163100    000043051                    000430510000000000000109                     I0243051     30051900000000040003410000017N130319105700000000000133005190000000000000000000000000000000000000000100008283050800JOSE RICARDO DE MOURA                   RUA TENENTE SILVINON 204,               CERAMICA    26030126NOVA IGUACU    RJUNIAO UMB DOS CULTOS AFRO BRAS    30051915 000200
21300520190000000000080                                                                                                                                                                                                                                                                                                                                                                                   000201
10231987175000168916200163100    000043049                    000430490000000000000109                     I0243049     30051900000000040003410000017N130319105700000000000133005190000000000000000000000000000000000000000100075164779749IVANILDO FURTADO DA SILVA               RUA: LUIZ DE CASTRON 206, FUNDOS        PILARES     21760732RIO DE JANEIRO RJUNIAO UMB DOS CULTOS AFRO BRAS    30051915 000202
21300520190000000000080                                                                                                                                                                                                                                                                                                                                                                                   000203
10231987175000168916200163100    000043044                    000430440000000000000109                     I0243044     30051900000000040003410000017N130319105700000000000133005190000000000000000000000000000000000000000100053177827753CREUZA FREITAS DOS SANTOS               RUA HERMES DA SILVA N 63, A             SANTA CRUZ  23550155RIO DE JANEIRO RJUNIAO UMB DOS CULTOS AFRO BRAS    30051915 000204
21300520190000000000080                                                                                                                                                                                                                                                                                                                                                                                   000205
10231987175000168916200163100    000043042                    000430420000000000000109                     I0243042     30051900000000040003410000017N130319105700000000000133005190000000000000000000000000000000000000000100066645352700NILZA BELISARIO DAMIAO                  ESTRADA SANTA VERIDIANA N 1400, BLOCO 1 SANTA CRUZ  23525254RIO DE JANEIRO RJUNIAO UMB DOS CULTOS AFRO BRAS    30051915 000206
21300520190000000000080                                                                                                                                                                                                                                                                                                                                                                                   000207
10231987175000168916200163100    000043039                    000430390000000000000109                     I0243039     30051900000000040003410000017N130319105700000000000133005190000000000000000000000000000000000000000100053860225120OTILIA REGINA DE ALENCAR                RUA ITAPEMIRIMN 87,                     SANTA CRUZ  23550310RIO DE JANEIRO RJUNIAO UMB DOS CULTOS AFRO BRAS    30051915 000208
21300520190000000000080                                                                                                                                                                                                                                                                                                                                                                                   000209
10231987175000168916200163100    000043037                    000430370000000000000109                     I0243037     30051900000000040003410000017N130319105700000000000133005190000000000000000000000000000000000000000100014328358740SILAS BARBOSA DE SOUZA                  ESTRADA REAL DE MAUA N 1901, CASA 11 TRAJARDIM DA PA25926684RIO DE JANEIRO RJUNIAO UMB DOS CULTOS AFRO BRAS    30051915 000210
21300520190000000000080                                                                                                                                                                                                                                                                                                                                                                                   000211
10231987175000168916200163100    000043036                    000430360000000000000109                     I0243036     30051900000000040003410000017N130319105700000000000133005190000000000000000000000000000000000000000100074641980772IRENE MARQUES DA MOTA                   RUA: PORTO CAMARGON 0, CASA 1 LOTE 9 QUAJARDIM MARAV23033170GUARATIBA      RJUNIAO UMB DOS CULTOS AFRO BRAS    30051915 000212
21300520190000000000080                                                                                                                                                                                                                                                                                                                                                                                   000213
10231987175000168916200163100    000043035                    000430350000000000000109                     I0243035     30051900000000040003410000017N130319105700000000000133005190000000000000000000000000000000000000000100005818072789MARLUCE MARIA DE OLIVEIRA               RUA PAHANDN 0, LOTE 20 QUADRA 10        SANTA TEREZA26193500BELFORD ROXO   RJUNIAO UMB DOS CULTOS AFRO BRAS    30051915 000214
21300520190000000000080                                                                                                                                                                                                                                                                                                                                                                                   000215
10231987175000168916200163100    000043034                    000430340000000000000109                     I0243034     30051900000000040003410000017N130319105700000000000133005190000000000000000000000000000000000000000100029759030730JOSE ROBERTO MELLO COIMBRA              RUA SALVADOR SABATEN 311,               REALENGO    21760020RIO DE JANEIRO RJUNIAO UMB DOS CULTOS AFRO BRAS    30051915 000216
21300520190000000000080                                                                                                                                                                                                                                                                                                                                                                                   000217
10231987175000168916200163100    000043033                    000430330000000000000109                     I0243033     30051900000000040003410000017N130319105700000000000133005190000000000000000000000000000000000000000100010212584740TIAGO VEROL DE SOUZA                    ESTRADA: DO VIEGASN 28, CASA 4          SENADOR CAMA21832006RIO DE JANEIRO RJUNIAO UMB DOS CULTOS AFRO BRAS    30051915 000218
21300520190000000000080                                                                                                                                                                                                                                                                                                                                                                                   000219
10231987175000168916200163100    000043032                    000430320000000000000109                     I0243032     30051900000000040003410000017N130319105700000000000133005190000000000000000000000000000000000000000100001860329780VIVIANE DE PAULA AGNELO                 RUA DA VITORIAN 175,                    PARAISO     26297138NOVA IGUACU    RJUNIAO UMB DOS CULTOS AFRO BRAS    30051915 000220
21300520190000000000080                                                                                                                                                                                                                                                                                                                                                                                   000221
10231987175000168916200163100    000043031                    000430310000000000000109                     I0243031     30051900000000040003410000017N130319105700000000000133005190000000000000000000000000000000000000000100007416975727ANGELICA AMARAL GOTELIP BARBOS          RUA MARECHAL MARCIANO - TRAVESSA 120N 0,REALENGO    21735652RIO DE JANEIRO RJUNIAO UMB DOS CULTOS AFRO BRAS    30051915 000222
21300520190000000000080                                                                                                                                                                                                                                                                                                                                                                                   000223
10231987175000168916200163100    000043029                    000430290000000000000109                     I0243029     30051900000000040003410000017N130319105700000000000133005190000000000000000000000000000000000000000100009297297730FLAVIO JOAQUIM DOS SANTOS               RUA: SAO PAULON 0,                      PALMARES    23585800RIO DE JANEIRO RJUNIAO UMB DOS CULTOS AFRO BRAS    30051915 000224
21300520190000000000080                                                                                                                                                                                                                                                                                                                                                                                   000225
10231987175000168916200163100    000043028                    000430280000000000000109                     I0243028     30051900000000040003410000017N130319105700000000000133005190000000000000000000000000000000000000000100008283706721LEVY ANDRE ASSIS FERREIRA DA S          TRAVESSA SANTO ANTONIO N 462, CASA 2    MARECHAL HER21557190RIO DE JANEIRO RJUNIAO UMB DOS CULTOS AFRO BRAS    30051915 000226
21300520190000000000080                                                                                                                                                                                                                                                                                                                                                                                   000227
10231987175000168916200163100    000043026                    000430260000000000000109                     I0243026     30051900000000040003410000017N130319105700000000000133005190000000000000000000000000000000000000000100011709990775JOYCE MARA PINHEIRO DA SILVA            RUA SILVIO TIBIRICAN 507,               TURIACU     21540200RIO DE JANEIRO RJUNIAO UMB DOS CULTOS AFRO BRAS    30051915 000228
21300520190000000000080                                                                                                                                                                                                                                                                                                                                                                                   000229
10231987175000168916200163100    000043025                    000430250000000000000109                     I0243025     30051900000000040003410000017N130319105700000000000133005190000000000000000000000000000000000000000100014963009714MICHELLE DA SILVA SOARES                RUA DONA CELINAN 215,                   PIABETA     25935702MAGE           RJUNIAO UMB DOS CULTOS AFRO BRAS    30051915 000230
21300520190000000000080                                                                                                                                                                                                                                                                                                                                                                                   000231
10231987175000168916200163100    000043023                    000430230000000000000109                     I0243023     30051900000000040003410000017N130319105700000000000133005190000000000000000000000000000000000000000100000213766701ROSIVANIA CRUZ DA SILVA                 RUA PRIMEIRAN 0, BLOCO 2                SANTA CRUZ  23515180RIO DE JANEIRO RJUNIAO UMB DOS CULTOS AFRO BRAS    30051915 000232
21300520190000000000080                                                                                                                                                                                                                                                                                                                                                                                   000233
10231987175000168916200163100    000043021                    000430210000000000000109                     I0243021     30051900000000040003410000017N130319105700000000000133005190000000000000000000000000000000000000000100005380679773ROBERTO DE OLIVEIRA RIBEIRO JU          RUA VINTE E TRESN 149, CASA 2 QUADRA 7  CONJUNTO CES23500000RIO DE JANEIRO RJUNIAO UMB DOS CULTOS AFRO BRAS    30051915 000234
21300520190000000000080                                                                                                                                                                                                                                                                                                                                                                                   000235
10231987175000168916200163100    000043020                    000430200000000000000109                     I0243020     30051900000000040003410000017N130319105700000000000133005190000000000000000000000000000000000000000100006485913793IASMIM SANTANA DA SILVA DE OLI          RUA CLEITON LUIZ VIEIRAN 24,            BANGU       23095700RIO DE JANEIRO RJUNIAO UMB DOS CULTOS AFRO BRAS    30051915 000236
21300520190000000000080                                                                                                                                                                                                                                                                                                                                                                                   000237
10231987175000168916200163100    000043018                    000430180000000000000109                     I0243018     30051900000000040003410000017N130319105700000000000133005190000000000000000000000000000000000000000100001244562785LUIS CARLOS RIBEIRO                     RUA: NEIDE AFONSON 0, LOTE 5 QUADRA 14  SHANGRILA RO26150020BELFORD ROXO   RJUNIAO UMB DOS CULTOS AFRO BRAS    30051915 000238
21300520190000000000080                                                                                                                                                                                                                                                                                                                                                                                   000239
10231987175000168916200163100    000043017                    000430170000000000000109                     I0243017     30051900000000040003410000017N130319105700000000000133005190000000000000000000000000000000000000000100003256338780REGINALDO ROSA DA SILVA                 RUA: TOMINASN 341,                      IPIRANGA ALI26293381NOVA IGUACU    RJUNIAO UMB DOS CULTOS AFRO BRAS    30051915 000240
21300520190000000000080                                                                                                                                                                                                                                                                                                                                                                                   000241
10231987175000168916200163100    000043015                    000430150000000000000109                     I0243015     30051900000000040003410000017N130319105700000000000133005190000000000000000000000000000000000000000100093521987787KATIA CRISTINA DANNEMBERG               ESTRADA DO PORTINHON 149, CASA          IRAJA       21235400RIO DE JANEIRO RJUNIAO UMB DOS CULTOS AFRO BRAS    30051915 000242
21300520190000000000080                                                                                                                                                                                                                                                                                                                                                                                   000243
10231987175000168916200163100    000043014                    000430140000000000000109                     I0243014     30051900000000040003410000017N130319105700000000000133005190000000000000000000000000000000000000000100093678754791ROSINETE MARIA DE OLIVEIRA              RUA ANGOLA N 24, ANTIGA RUA 9           CAPIVARI    25145080DUQUE DE CAXIASRJUNIAO UMB DOS CULTOS AFRO BRAS    30051915 000244
21300520190000000000080                                                                                                                                                                                                                                                                                                                                                                                   000245
10231987175000168916200163100    000043013                    000430130000000000000109                     I0243013     30051900000000040003410000017N130319105700000000000133005190000000000000000000000000000000000000000100009289778709HELAINE FRANKLIN TEIXEIRA               RUA: CACHOEIRA ALTA N 0, LOTE 17 QUADRA JARDIM MARAV23031070CAMPO GRANDE   RJUNIAO UMB DOS CULTOS AFRO BRAS    30051915 000246
21300520190000000000080                                                                                                                                                                                                                                                                                                                                                                                   000247
10231987175000168916200163100    000043011                    000430110000000000000109                     I0243011     30051900000000040003410000017N130319105700000000000133005190000000000000000000000000000000000000000100001096953722CLAUDIA GUIMARAES                       ESTRADA GUANDU DO SENA - RUA 29N 0, QUADCAMPO GRANDE23091220RIO DE JANEIRO RJUNIAO UMB DOS CULTOS AFRO BRAS    30051915 000248
21300520190000000000080                                                                                                                                                                                                                                                                                                                                                                                   000249
