01REMESSA01COBRANCA       916200163100        União Umb dos Cultos Afro Bra341BANCO ITAU SA  270318                                                                                                                                                                                                                                                                                                      000001
10231987175000168916200163100    000013996                    000139960000000000000109                     I0213996     30031800000000035003410000017N230218104700000000000103003180000000000000000000000000000000000000000100001898047774ELISABETH SANTOS PEREIRA                O MESMO                                 O MESMO     25900000MAGE           RJUNIAO UMB DOS CULTOS AFRO BRAS    30031810 000002
10231987175000168916200163100    000013947                    000139470000000000000109                     I0213947     30031800000000140003410000017N210218104700000000000103003180000000000000000000000000000000000000000100004289729770JOSE CARLOS LOUREIRO CORTEZ             RUA JOAO LUSO, 215                      REALENGO - R21765620RIO DE JANEIRO RJUNIAO UMB DOS CULTOS AFRO BRAS    30031810 000003
10231987175000168916200163100    00008855                     000088550000000000000109                     I028855      31011800000000035003410000017N020118104700000000000103101180000000000000000000000000000000000000000100067560555772ADELSON RODRIGUES DE MATTOS             RUA DONA BELA, 17 CASA 2                TRES PONTES 24809230RIO DE JANEIRO RJUNIAO UMB DOS CULTOS AFRO BRAS    31011810 000004
10231987175000168916200163100    00008593                     000085930000000000000109                     I028593      31011800000000035003410000017N020118104700000000000103101180000000000000000000000000000000000000000100081628811749MAURO JOSE DE AZEVEDO FALCAO            RUA: LEOPOLDO MACHADO Nº 121 - BOA ESPENOVA IGUACU 26130680NOVA IGUACU    RJUNIAO UMB DOS CULTOS AFRO BRAS    31011810 000005
10231987175000168916200163100    00008538                     000085380000000000000109                     I028538      31011800000000035003410000017N020118104700000000000103101180000000000000000000000000000000000000000100002547438704JORGE EDUARDO CAVALCANTI REIS           RUA ROSA DA FONSECA N 30 SOBRADO        MANGUINHOS -21041240RIO DE JANEIRO RJUNIAO UMB DOS CULTOS AFRO BRAS    31011810 000006
10231987175000168916200163100    00008477                     000084770000000000000109                     I028477      31011800000000035003410000017N020118104700000000000103101180000000000000000000000000000000000000000200000000001778VANIA MEDEIROS COUTINHO                 RUA TEREZA, LOTE 4 QUADRA 4             PARQUE SUECI25245470BELFORD ROXO   RJUNIAO UMB DOS CULTOS AFRO BRAS    31011810 000007
10231987175000168916200163100    00008419                     000084190000000000000109                     I028419      31011800000000035003410000017N020118104700000000000103101180000000000000000000000000000000000000000100000155439782ADIR GOMES DA SILVA                     RUA DOUTOR JOSE THOMAS, 85              PAVUNA - RIO21520020RIO DE JANEIRO RJUNIAO UMB DOS CULTOS AFRO BRAS    31011810 000008
10231987175000168916200163100    00004717                     000047170000000000000109                     I024717      30121700000000035003410000017N041217104700000000000103012170000000000000000000000000000000000000000100023970090563MARCIA VIEIRA SALES                     O MESMO                                 O MESMO     22740220RIO DE JANEIRO RJUNIAO UMB DOS CULTOS AFRO BRAS    30121710 000009
10231987175000168916200163100    00004715                     000047150000000000000109                     I024715      30121700000000350003410000017N041217104700000000000103012170000000000000000000000000000000000000000100023970090563MARCIA VIEIRA SALES                     O MESMO                                 O MESMO     22740220RIO DE JANEIRO RJUNIAO UMB DOS CULTOS AFRO BRAS    30121710 000010
10231987175000168916200163100    00004470                     000044700000000000000109                     I024470      22121700000000350003410000017N171117104700000000000102212170000000000000000000000000000000000000000100007545291778ANDRE LUIS DA SILVA                     RUA VASCO DA GAMA N 677                 PARQUE ESTOR26063190NOVA IGUACU    RJUNIAO UMB DOS CULTOS AFRO BRAS    22121710 000011
10231987175000168916200163100    00004422                     000044220000000000000109                     I024422      22121700000000350003410000017N171117104700000000000102212170000000000000000000000000000000000000000100001430160754RITA DE CASSIA CORMACK DE CARV          RUA MANOEL IVO N 58                     VILA TRES - 24711030SAO GONCALO    RJUNIAO UMB DOS CULTOS AFRO BRAS    22121710 000012
10231987175000168916200163100    00004394                     000043940000000000000109                     I024394      22121700000000350003410000017N171117104700000000000102212170000000000000000000000000000000000000000100040433307749IARA BARBOSA MACHADO                    RUA SAO FIDELIS SN LOTE 16 QUADRA 25    PRADOS VERDE26299165NOVA IGUACU    RJUNIAO UMB DOS CULTOS AFRO BRAS    22121710 000013
10231987175000168916200163100    00004363                     000043630000000000000109                     I024363      22121700000000350003410000017N171117104700000000000102212170000000000000000000000000000000000000000100005474832796VANESSA MANTUANO FERNANDES              RUA CANINDE N 29 CASA 1                 JACARE - RIO20975010RIO DE JANEIRO RJUNIAO UMB DOS CULTOS AFRO BRAS    22121710 000014
10231987175000168916200163100    00004057                     000040570000000000000109                     I024057      22121700000000350003410000017N171117104700000000000102212170000000000000000000000000000000000000000100000921417130IVANILDA MARIA DE OLIVEIRA              O MESMO                                 O MESMO     26420150JAPERI         RJUNIAO UMB DOS CULTOS AFRO BRAS    22121710 000015
10231987175000168916200163100    00004036                     000040360000000000000109                     I024036      22121700000000350003410000017N171117104700000000000102212170000000000000000000000000000000000000000100091156386772MARILENE PEREIRA DOS SANTOS CO          ESTRADA DO PORTELA  694                 OSVALDO CRUZ21351050RIO DE JANEIRO RJUNIAO UMB DOS CULTOS AFRO BRAS    22121710 000016
10231987175000168916200163100    00003899                     000038990000000000000109                     I023899      22121700000000350003410000017N171117104700000000000102212170000000000000000000000000000000000000000100057232350791NELSON CARNEIRO DA SILVA                RUA MATO GROSSO, 73                     SAPE - NITER24315460NITEROI        RJUNIAO UMB DOS CULTOS AFRO BRAS    22121710 000017
10231987175000168916200163100    00003838                     000038380000000000000109                     I023838      22121700000000350003410000017N171117104700000000000102212170000000000000000000000000000000000000000100059374179768ROSANGELA MARIA DE CASTRO BEZE          RUA DONA ISABEL, 1170                   BONSUCESSO -21032060RIO DE JANEIRO RJUNIAO UMB DOS CULTOS AFRO BRAS    22121710 000018
10231987175000168916200163100    00003751                     000037510000000000000109                     I023751      22121700000000350003410000017N171117104700000000000102212170000000000000000000000000000000000000000100005426043701CLARA DANIELE BROWN FLAUZINO            RUA ZAMBIA N 29                         BANGU - RIO 21850510RIO DE JANEIRO RJUNIAO UMB DOS CULTOS AFRO BRAS    22121710 000019
10231987175000168916200163100    00003364                     000033640000000000000109                     I023364      22121700000000350003410000017N171117104700000000000102212170000000000000000000000000000000000000000200000000002180ROSINEIA MARTINS DE ARRUDA              RUA ALBERTO DE MELO, 388                COMENDADOR S26280310NOVA IGUACU    RJUNIAO UMB DOS CULTOS AFRO BRAS    22121710 000020
10231987175000168916200163100    00003311                     000033110000000000000109                     I023311      22121700000000350003410000017N171117104700000000000102212170000000000000000000000000000000000000000200000000000736REJANE VIEIRA GOMES                     RUA: TAPIRANGA                          RIO DE JANEI21775470RIO DE JANEIRO RJUNIAO UMB DOS CULTOS AFRO BRAS    22121710 000021
10231987175000168916200163100    00003299                     000032990000000000000109                     I023299      22121700000000350003410000017N171117104700000000000102212170000000000000000000000000000000000000000100054571715743VILMA OLIVEIRA DOS SANTOS               RUA CORREIA DIAS, 1066                  VIGARIO GERA21241310RIO DE JANEIRO RJUNIAO UMB DOS CULTOS AFRO BRAS    22121710 000022
10231987175000168916200163100    00003281                     000032810000000000000109                     I023281      22121700000000350003410000017N171117104700000000000102212170000000000000000000000000000000000000000100086919105772FLAVIO DA SILVA BARBOSA                 ESTRADA DO QUAFA, 678 RUA B LOTE 43     SANTISSIMO -23098030RIO DE JANEIRO RJUNIAO UMB DOS CULTOS AFRO BRAS    22121710 000023
10231987175000168916200163100    00003278                     000032780000000000000109                     I023278      22121700000000350003410000017N171117104700000000000102212170000000000000000000000000000000000000000100096073276753MARIA JOSE DA SILVA                     RUA MANOEL GAMA, LOTE 142               TOMAZINHO - 25525542SAO JOAO DE MERRJUNIAO UMB DOS CULTOS AFRO BRAS    22121710 000024
10231987175000168916200163100    00003277                     000032770000000000000109                     I023277      22121700000000350003410000017N171117104700000000000102212170000000000000000000000000000000000000000100030995980820JOSE ANACLETO DE LIMA                   RUA FREDI EMANUEL, 144                  JARDIM JASMI26265110NOVA IGUACU    RJUNIAO UMB DOS CULTOS AFRO BRAS    22121710 000025
10231987175000168916200163100    00003275                     000032750000000000000109                     I023275      22121700000000350003410000017N171117104700000000000102212170000000000000000000000000000000000000000100000000000812GERALDO FRANCISCO DA SILVA              RUA C, LOTE 10 QUADRA 3 CASA 2          PARQUE ELDOR25240200DUQUE DE CAXIASRJUNIAO UMB DOS CULTOS AFRO BRAS    22121710 000026
10231987175000168916200163100    00003252                     000032520000000000000109                     I023252      22121700000000350003410000017N171117104700000000000102212170000000000000000000000000000000000000000100055570720715ATILA CARDOSO DE LIMA                   RUA EUGENIO SOARES, 270                 CENTRO - MES26550007MESQUITA       RJUNIAO UMB DOS CULTOS AFRO BRAS    22121710 000027
10231987175000168916200163100    00003251                     000032510000000000000109                     I023251      22121700000000350003410000017N171117104700000000000102212170000000000000000000000000000000000000000200000000000472JOANE ZAGALIA DA CUNHA                  RUA JABIRI, 365                         MARECHAL HER21615300MARECHAL HERMESRJUNIAO UMB DOS CULTOS AFRO BRAS    22121710 000028
10231987175000168916200163100    00003208                     000032080000000000000109                     I023208      22121700000000350003410000017N171117104700000000000102212170000000000000000000000000000000000000000200000000000723ROSA MONIQUE SPIZA DA SILVA             RUA COSTA JUNIOR, 11                    VILA KENEDY 21853280RIO DE JANEIRO RJUNIAO UMB DOS CULTOS AFRO BRAS    22121710 000029
10231987175000168916200163100    00003207                     000032070000000000000109                     I023207      22121700000000350003410000017N171117104700000000000102212170000000000000000000000000000000000000000200000000000614VERA REGINA GONCALVES                   RUA ANTONIO ALVES, 417                  COSTA BARROS21650020RIO DE JANEIRO RJUNIAO UMB DOS CULTOS AFRO BRAS    22121710 000030
10231987175000168916200163100    00003206                     000032060000000000000109                     I023206      22121700000000350003410000017N171117104700000000000102212170000000000000000000000000000000000000000100083780262720MARIA JOANA DOROTEIA DE PAULA           ESTRADA MERINGUAVA, 701 PINHEIRO 11     TAQUARA - JA22725442RIO DE JANEIRO RJUNIAO UMB DOS CULTOS AFRO BRAS    22121710 000031
10231987175000168916200163100    00003019                     000030190000000000000109                     I023019      31121700000000035003410000017N131117104700000000000103112170000000000000000000000000000000000000000100007545291778ANDRE LUIS DA SILVA                     RUA VASCO DA GAMA N 677                 PARQUE ESTOR26063190NOVA IGUACU    RJUNIAO UMB DOS CULTOS AFRO BRAS    31121710 000032
10231987175000168916200163100    00002596                     000025960000000000000109                     I022596      31121700000000035003410000017N131117104700000000000103112170000000000000000000000000000000000000000100000921417130IVANILDA MARIA DE OLIVEIRA              O MESMO                                 O MESMO     26420150JAPERI         RJUNIAO UMB DOS CULTOS AFRO BRAS    31121710 000033
10231987175000168916200163100    00002566                     000025660000000000000109                     I022566      31121700000000035003410000017N131117104700000000000103112170000000000000000000000000000000000000000100091156386772MARILENE PEREIRA DOS SANTOS CO          ESTRADA DO PORTELA  694                 OSVALDO CRUZ21351050RIO DE JANEIRO RJUNIAO UMB DOS CULTOS AFRO BRAS    31121710 000034
10231987175000168916200163100    00002351                     000023510000000000000109                     I022351      31121700000000035003410000017N131117104700000000000103112170000000000000000000000000000000000000000100059374179768ROSANGELA MARIA DE CASTRO BEZE          RUA DONA ISABEL, 1170                   BONSUCESSO -21032060RIO DE JANEIRO RJUNIAO UMB DOS CULTOS AFRO BRAS    31121710 000035
10231987175000168916200163100    00002263                     000022630000000000000109                     I022263      31121700000000035003410000017N131117104700000000000103112170000000000000000000000000000000000000000100005426043701CLARA DANIELE BROWN FLAUZINO            RUA ZAMBIA N 29                         BANGU - RIO 21850510RIO DE JANEIRO RJUNIAO UMB DOS CULTOS AFRO BRAS    31121710 000036
9                                                                                                                                                                                                                                                                                                                                                                                                         000037
