01REMESSA01COBRANCA       916200163100        União Umb dos Cultos Afro Bra341BANCO ITAU SA  040118                                                                                                                                                                                                                                                                                                      000001
10231987175000168916200163100    00001723                     000017230000000000000109                     I341723      31121700000000035003410000017N131117050900000000000103112170000000000000000000000000000000000000000100090882687700JUCIARA DE SOUZA CAMPOS                 RUA DEMOSTENES, 116                     JARDIM GLAUC26195500BELFORD ROXO   RJUNIAO UMB DOS CULTOS AFRO BRAS    31121710 000002
9                                                                                                                                                                                                                                                                                                                                                                                                         000003
