01REMESSA01COBRANCA       817800093673        União Umb dos Cultos Afro Bra341BANCO ITAU SA  190318                                                                                                                                                                                                                                                                                                      000001
10231987175000168817800093673    000014214                    000142140000000000000109                     I0214214     16031800000000105003410000017N140318104700000000000101603180000000000000000000000000000000000000000100077165772715EDNA SANTOS DA TRINDADE                 ESTRADA DO PIAI N 3910 - QUADRA B CASA 7SEPETIBA - R23530610RIO DE JANEIRI RJUNIAO UMB DOS CULTOS AFRO BRAS    16031810 000002
10231987175000168817800093673    000013753                    000137530000000000000109                     I0213753     30051800000000035003410000017N200218104700000000000103005180000000000000000000000000000000000000000100002171972726RAQUEL DE SOUZA MENESES                 RUA ROMENRO ZENDER N 271 ENTRADA APT 104RAMOS - RIO 21040080RIO DE JANEIRO RJUNIAO UMB DOS CULTOS AFRO BRAS    30051810 000003
10231987175000168817800093673    000013310                    000133100000000000000109                     I0213310     30051800000000035003410000017N200218104700000000000103005180000000000000000000000000000000000000000100068824238734MARINETE LOPES DE MOURA                 RUA GENERAL, LOTE 4 QUADRA 2 N 9        PIABETA - MA25915000MAGE           RJUNIAO UMB DOS CULTOS AFRO BRAS    30051810 000004
10231987175000168817800093673    000013140                    000131400000000000000109                     I0213140     30051800000000035003410000017N200218104700000000000103005180000000000000000000000000000000000000000100047448865749NEUSA MARIA DA SILVA                    AVENIDA CORONEL PHIDIAS TAVORA, RUA LIRIJARDIM AMERI21535590RIO DE JANEIRO RJUNIAO UMB DOS CULTOS AFRO BRAS    30051810 000005
10231987175000168817800093673    000013044                    000130440000000000000109                     I0213044     30051800000000035003410000017N200218104700000000000103005180000000000000000000000000000000000000000100001556268767ANTONIO CARLOS DA CONCEICAO SA          RUA EMILIA MARTINS  84                  VILA MARTINS26043010NOVA IGUACU    RJUNIAO UMB DOS CULTOS AFRO BRAS    30051810 000006
10231987175000168817800093673    000013007                    000130070000000000000109                     I0213007     30051800000000035003410000017N200218104700000000000103005180000000000000000000000000000000000000000200000000009918MARIA CRISTINA FURTADO DOS SAN          RUA IVAN FORTES RUCH,  LOTE 14 - LOTEAMEMONTE FORMOS24738660S.GONCALO      RJUNIAO UMB DOS CULTOS AFRO BRAS    30051810 000007
10231987175000168817800093673    000012990                    000129900000000000000109                     I0212990     30051800000000035003410000017N200218104700000000000103005180000000000000000000000000000000000000000100077165772715EDNA SANTOS DA TRINDADE                 ESTRADA DO PIAI N 3910 - QUADRA B CASA 7SEPETIBA - R23530610RIO DE JANEIRI RJUNIAO UMB DOS CULTOS AFRO BRAS    30051810 000008
10231987175000168817800093673    000012837                    000128370000000000000109                     I0212837     30051800000000035003410000017N200218104700000000000103005180000000000000000000000000000000000000000100051192055772VALNEI VICENTE                          RUA REGINALDO, LOTE 10 E LOTE 11        CENTRO - BEL26173350BELFORD ROXO   RJUNIAO UMB DOS CULTOS AFRO BRAS    30051810 000009
10231987175000168817800093673    000012828                    000128280000000000000109                     I0212828     30051800000000035003410000017N200218104700000000000103005180000000000000000000000000000000000000000100092336000768DIVA PINTO ROMUALDO                     RUA PARAISO QUADRA 129 LOTE 26          JARDIM CABUC26357140NOVA IGUACU    RJUNIAO UMB DOS CULTOS AFRO BRAS    30051810 000010
10231987175000168817800093673    000012694                    000126940000000000000109                     I0212694     30051800000000035003410000017N200218104700000000000103005180000000000000000000000000000000000000000100007359102782MARIA GORETE DA CONCEICAO               RUA: CINTIA Nº 343 - JARDIM CANAA      NOVA IGUACU 26262070NOVA IGUACU    RJUNIAO UMB DOS CULTOS AFRO BRAS    30051810 000011
10231987175000168817800093673    000012643                    000126430000000000000109                     I0212643     30051800000000035003410000017N200218104700000000000103005180000000000000000000000000000000000000000200000000002685JOSE MESSIAS RODRIGUES DA COST          RUA ARARE N 51 CASA 1                   REALENGO - R21765500RIO DE JANEIRO RJUNIAO UMB DOS CULTOS AFRO BRAS    30051810 000012
10231987175000168817800093673    000012470                    000124700000000000000109                     I0212470     30051800000000035003410000017N200218104700000000000103005180000000000000000000000000000000000000000200000000006641SONIA ROCHA DA SILVA                    RUA FERNANDO DA COSTA, LOTE 3 QUADRA O  LOTE XV - BE26183540BELFORD ROXO   RJUNIAO UMB DOS CULTOS AFRO BRAS    30051810 000013
10231987175000168817800093673    000012405                    000124050000000000000109                     I0212405     30051800000000035003410000017N200218104700000000000103005180000000000000000000000000000000000000000100060495901768ANA CRISTINA PAVAO BARONI               RUA TAMANDUATEI, 197                    JARDIM TROPI26012775NOVA IGUACU    RJUNIAO UMB DOS CULTOS AFRO BRAS    30051810 000014
10231987175000168817800093673    000012381                    000123810000000000000109                     I0212381     30051800000000035003410000017N200218104700000000000103005180000000000000000000000000000000000000000100076870090700JORGE JOSE RIVELO                       RUA MANDAGUARI LOTE 9 QUADRA 124        CURICICA - J22710120RIO DE JANEIRO RJUNIAO UMB DOS CULTOS AFRO BRAS    30051810 000015
10231987175000168817800093673    000012144                    000121440000000000000109                     I0212144     30041800000000035003410000017N200218104700000000000103004180000000000000000000000000000000000000000100002171972726RAQUEL DE SOUZA MENESES                 RUA ROMENRO ZENDER N 271 ENTRADA APT 104RAMOS - RIO 21040080RIO DE JANEIRO RJUNIAO UMB DOS CULTOS AFRO BRAS    30041810 000016
10231987175000168817800093673    000011824                    000118240000000000000109                     I0211824     30041800000000035003410000017N200218104700000000000103004180000000000000000000000000000000000000000100008478002707ALEXSANDRO JOAO MARTINS                 RUA: CARMO DO RIO CLARO Nº 266 - SAO GANOVA IGUACU 26021830NOVA IGUACU    RJUNIAO UMB DOS CULTOS AFRO BRAS    30041810 000017
10231987175000168817800093673    000011701                    000117010000000000000109                     I0211701     30041800000000035003410000017N200218104700000000000103004180000000000000000000000000000000000000000100068824238734MARINETE LOPES DE MOURA                 RUA GENERAL, LOTE 4 QUADRA 2 N 9        PIABETA - MA25915000MAGE           RJUNIAO UMB DOS CULTOS AFRO BRAS    30041810 000018
10231987175000168817800093673    000011531                    000115310000000000000109                     I0211531     30041800000000035003410000017N200218104700000000000103004180000000000000000000000000000000000000000100047448865749NEUSA MARIA DA SILVA                    AVENIDA CORONEL PHIDIAS TAVORA, RUA LIRIJARDIM AMERI21535590RIO DE JANEIRO RJUNIAO UMB DOS CULTOS AFRO BRAS    30041810 000019
10231987175000168817800093673    000011435                    000114350000000000000109                     I0211435     30041800000000035003410000017N200218104700000000000103004180000000000000000000000000000000000000000100001556268767ANTONIO CARLOS DA CONCEICAO SA          RUA EMILIA MARTINS  84                  VILA MARTINS26043010NOVA IGUACU    RJUNIAO UMB DOS CULTOS AFRO BRAS    30041810 000020
10231987175000168817800093673    000011398                    000113980000000000000109                     I0211398     30041800000000035003410000017N200218104700000000000103004180000000000000000000000000000000000000000200000000009918MARIA CRISTINA FURTADO DOS SAN          RUA IVAN FORTES RUCH,  LOTE 14 - LOTEAMEMONTE FORMOS24738660S.GONCALO      RJUNIAO UMB DOS CULTOS AFRO BRAS    30041810 000021
10231987175000168817800093673    000011381                    000113810000000000000109                     I0211381     30041800000000035003410000017N200218104700000000000103004180000000000000000000000000000000000000000100077165772715EDNA SANTOS DA TRINDADE                 ESTRADA DO PIAI N 3910 - QUADRA B CASA 7SEPETIBA - R23530610RIO DE JANEIRI RJUNIAO UMB DOS CULTOS AFRO BRAS    30041810 000022
10231987175000168817800093673    000011368                    000113680000000000000109                     I3411368     30041800000000035003410000017N200218104700000000000103004180000000000000000000000000000000000000000100088046060704NATALINA DE JESUS PEREIRA DE O          RUA SAPOPEMBA N 524                     BENTO RIBEIR21331240RIO DE JANEIRO RJUNIAO UMB DOS CULTOS AFRO BRAS    30041810 000023
10231987175000168817800093673    000011228                    000112280000000000000109                     I0211228     30041800000000035003410000017N200218104700000000000103004180000000000000000000000000000000000000000100051192055772VALNEI VICENTE                          RUA REGINALDO, LOTE 10 E LOTE 11        CENTRO - BEL26173350BELFORD ROXO   RJUNIAO UMB DOS CULTOS AFRO BRAS    30041810 000024
10231987175000168817800093673    000011219                    000112190000000000000109                     I0211219     30041800000000035003410000017N200218104700000000000103004180000000000000000000000000000000000000000100092336000768DIVA PINTO ROMUALDO                     RUA PARAISO QUADRA 129 LOTE 26          JARDIM CABUC26357140NOVA IGUACU    RJUNIAO UMB DOS CULTOS AFRO BRAS    30041810 000025
10231987175000168817800093673    000011085                    000110850000000000000109                     I0211085     30041800000000035003410000017N200218104700000000000103004180000000000000000000000000000000000000000100007359102782MARIA GORETE DA CONCEICAO               RUA: CINTIA Nº 343 - JARDIM CANAA      NOVA IGUACU 26262070NOVA IGUACU    RJUNIAO UMB DOS CULTOS AFRO BRAS    30041810 000026
10231987175000168817800093673    000011034                    000110340000000000000109                     I0211034     30041800000000035003410000017N200218104700000000000103004180000000000000000000000000000000000000000200000000002685JOSE MESSIAS RODRIGUES DA COST          RUA ARARE N 51 CASA 1                   REALENGO - R21765500RIO DE JANEIRO RJUNIAO UMB DOS CULTOS AFRO BRAS    30041810 000027
10231987175000168817800093673    000010926                    000109260000000000000109                     I0210926     30041800000000035003410000017N200218104700000000000103004180000000000000000000000000000000000000000100020857690701MARCELO ANTONIO COSTA TEIXEIRA          RUA TUPINIQUINS N 220 FUNDOS            VICENTE DE C21370630RIO DE JANEIRO RJUNIAO UMB DOS CULTOS AFRO BRAS    30041810 000028
10231987175000168817800093673    000010861                    000108610000000000000109                     I0210861     30041800000000035003410000017N200218104700000000000103004180000000000000000000000000000000000000000200000000006641SONIA ROCHA DA SILVA                    RUA FERNANDO DA COSTA, LOTE 3 QUADRA O  LOTE XV - BE26183540BELFORD ROXO   RJUNIAO UMB DOS CULTOS AFRO BRAS    30041810 000029
10231987175000168817800093673    000010826                    000108260000000000000109                     I3410826     30041800000000035003410000017N200218104700000000000103004180000000000000000000000000000000000000000100075300931772ALTAIR DE SOUZA COSTA                   RUA SETE DE SETEMBRO, LOTE 15 QUADRA 7 -CABUCU - NOV26293486NOVA IGUACU    RJUNIAO UMB DOS CULTOS AFRO BRAS    30041810 000030
10231987175000168817800093673    000010796                    000107960000000000000109                     I0210796     30041800000000035003410000017N200218104700000000000103004180000000000000000000000000000000000000000100060495901768ANA CRISTINA PAVAO BARONI               RUA TAMANDUATEI, 197                    JARDIM TROPI26012775NOVA IGUACU    RJUNIAO UMB DOS CULTOS AFRO BRAS    30041810 000031
10231987175000168817800093673    000010772                    000107720000000000000109                     I0210772     30041800000000035003410000017N200218104700000000000103004180000000000000000000000000000000000000000100076870090700JORGE JOSE RIVELO                       RUA MANDAGUARI LOTE 9 QUADRA 124        CURICICA - J22710120RIO DE JANEIRO RJUNIAO UMB DOS CULTOS AFRO BRAS    30041810 000032
10231987175000168817800093673    000010535                    000105350000000000000109                     I0210535     30031800000000035003410000017N200218104700000000000103003180000000000000000000000000000000000000000100002171972726RAQUEL DE SOUZA MENESES                 RUA ROMENRO ZENDER N 271 ENTRADA APT 104RAMOS - RIO 21040080RIO DE JANEIRO RJUNIAO UMB DOS CULTOS AFRO BRAS    30031810 000033
10231987175000168817800093673    000010297                    000102970000000000000109                     I0210297     30031800000000035003410000017N200218104700000000000103003180000000000000000000000000000000000000000100007682577789CLAUDIA CRISTINA CARVALHO AREA          RUA ALFAZEMA, 91 CASA 1                 PADRE MIGUEL21720360RIO DE JANEIRO RJUNIAO UMB DOS CULTOS AFRO BRAS    30031810 000034
10231987175000168817800093673    000010215                    000102150000000000000109                     I0210215     30031800000000035003410000017N200218104700000000000103003180000000000000000000000000000000000000000100008478002707ALEXSANDRO JOAO MARTINS                 RUA: CARMO DO RIO CLARO Nº 266 - SAO GANOVA IGUACU 26021830NOVA IGUACU    RJUNIAO UMB DOS CULTOS AFRO BRAS    30031810 000035
10231987175000168817800093673    000010187                    000101870000000000000109                     I0210187     30031800000000035003410000017N200218104700000000000103003180000000000000000000000000000000000000000100079921947804GILSON ANDRADE                          RUA TANGI, LOTE 12 QUADRA C             PARQUE REAL 26175025BELFORD ROXO   RJUNIAO UMB DOS CULTOS AFRO BRAS    30031810 000036
10231987175000168817800093673    000010106                    000101060000000000000109                     I0210106     30031800000000035003410000017N200218104700000000000103003180000000000000000000000000000000000000000100007476149739JAQUELINE DE ASSIS                      RUA: MIGUEL DE CARVALHO Nº 171         GUARATIBA - 23035640RIO DE JANEIRO RJUNIAO UMB DOS CULTOS AFRO BRAS    30031810 000037
10231987175000168817800093673    000010092                    000100920000000000000109                     I0210092     30031800000000035003410000017N200218104700000000000103003180000000000000000000000000000000000000000100068824238734MARINETE LOPES DE MOURA                 RUA GENERAL, LOTE 4 QUADRA 2 N 9        PIABETA - MA25915000MAGE           RJUNIAO UMB DOS CULTOS AFRO BRAS    30031810 000038
10231987175000168817800093673    000010070                    000100700000000000000109                     I3410070     30031800000000035003410000017N200218104700000000000103003180000000000000000000000000000000000000000100011981552723DIEGO DE SIQUEIRA VIEIRA                RUA ACU N 339 FUNDOS                    REALENGO - R21765640RIO DE JANEIRO RJUNIAO UMB DOS CULTOS AFRO BRAS    30031810 000039
10231987175000168817800093673    00009936                     000099360000000000000109                     I349936      30031800000000035003410000017N200218104700000000000103003180000000000000000000000000000000000000000100059475161791MARIA NAZARETE ALVES ANTONIO            TRAVESSA SANTOS DUMONT, 23 FUNDOS       ILHA DO GOVE21910490RIO DE JANEIRO RJUNIAO UMB DOS CULTOS AFRO BRAS    30031810 000040
10231987175000168817800093673    00009922                     000099220000000000000109                     I029922      30031800000000035003410000017N200218104700000000000103003180000000000000000000000000000000000000000100047448865749NEUSA MARIA DA SILVA                    AVENIDA CORONEL PHIDIAS TAVORA, RUA LIRIJARDIM AMERI21535590RIO DE JANEIRO RJUNIAO UMB DOS CULTOS AFRO BRAS    30031810 000041
10231987175000168817800093673    00009921                     000099210000000000000109                     I029921      30031800000000035003410000017N200218104700000000000103003180000000000000000000000000000000000000000100008664578756ATILA LARRICE GALDINO                   RUA MINERVINA NUNES DA COSTA, 238 FUNDOSPARQUE ANCHI21635350RIO DE JANEIRO RJUNIAO UMB DOS CULTOS AFRO BRAS    30031810 000042
10231987175000168817800093673    00009826                     000098260000000000000109                     I029826      30031800000000035003410000017N200218104700000000000103003180000000000000000000000000000000000000000100001556268767ANTONIO CARLOS DA CONCEICAO SA          RUA EMILIA MARTINS  84                  VILA MARTINS26043010NOVA IGUACU    RJUNIAO UMB DOS CULTOS AFRO BRAS    30031810 000043
10231987175000168817800093673    00009789                     000097890000000000000109                     I029789      30031800000000035003410000017N200218104700000000000103003180000000000000000000000000000000000000000200000000009918MARIA CRISTINA FURTADO DOS SAN          RUA IVAN FORTES RUCH,  LOTE 14 - LOTEAMEMONTE FORMOS24738660S.GONCALO      RJUNIAO UMB DOS CULTOS AFRO BRAS    30031810 000044
10231987175000168817800093673    00009772                     000097720000000000000109                     I029772      30031800000000035003410000017N200218104700000000000103003180000000000000000000000000000000000000000100077165772715EDNA SANTOS DA TRINDADE                 ESTRADA DO PIAI N 3910 - QUADRA B CASA 7SEPETIBA - R23530610RIO DE JANEIRI RJUNIAO UMB DOS CULTOS AFRO BRAS    30031810 000045
10231987175000168817800093673    00009759                     000097590000000000000109                     I349759      30031800000000035003410000017N200218104700000000000103003180000000000000000000000000000000000000000100088046060704NATALINA DE JESUS PEREIRA DE O          RUA SAPOPEMBA N 524                     BENTO RIBEIR21331240RIO DE JANEIRO RJUNIAO UMB DOS CULTOS AFRO BRAS    30031810 000046
10231987175000168817800093673    00009641                     000096410000000000000109                     I029641      30031800000000035003410000017N200218104700000000000103003180000000000000000000000000000000000000000100005383774700VILMA MACEDO COIMBRA DOS SANTO          RUA TOQUIO, 571                         AGOSTINHO PO25545211SAO JOAO DE MERRJUNIAO UMB DOS CULTOS AFRO BRAS    30031810 000047
10231987175000168817800093673    00009619                     000096190000000000000109                     I029619      30031800000000035003410000017N200218104700000000000103003180000000000000000000000000000000000000000100051192055772VALNEI VICENTE                          RUA REGINALDO, LOTE 10 E LOTE 11        CENTRO - BEL26173350BELFORD ROXO   RJUNIAO UMB DOS CULTOS AFRO BRAS    30031810 000048
10231987175000168817800093673    00009610                     000096100000000000000109                     I029610      30031800000000035003410000017N200218104700000000000103003180000000000000000000000000000000000000000100092336000768DIVA PINTO ROMUALDO                     RUA PARAISO QUADRA 129 LOTE 26          JARDIM CABUC26357140NOVA IGUACU    RJUNIAO UMB DOS CULTOS AFRO BRAS    30031810 000049
10231987175000168817800093673    00009583                     000095830000000000000109                     I029583      30031800000000035003410000017N200218104700000000000103003180000000000000000000000000000000000000000100027686205720DENNIS CLARE                            RUA: RATICLIFF                          RIACHUELO   20950170RIO DE JANEIRO RJUNIAO UMB DOS CULTOS AFRO BRAS    30031810 000050
10231987175000168817800093673    00009476                     000094760000000000000109                     I029476      30031800000000035003410000017N200218104700000000000103003180000000000000000000000000000000000000000100007359102782MARIA GORETE DA CONCEICAO               RUA: CINTIA Nº 343 - JARDIM CANAA      NOVA IGUACU 26262070NOVA IGUACU    RJUNIAO UMB DOS CULTOS AFRO BRAS    30031810 000051
10231987175000168817800093673    00009425                     000094250000000000000109                     I029425      30031800000000035003410000017N200218104700000000000103003180000000000000000000000000000000000000000200000000002685JOSE MESSIAS RODRIGUES DA COST          RUA ARARE N 51 CASA 1                   REALENGO - R21765500RIO DE JANEIRO RJUNIAO UMB DOS CULTOS AFRO BRAS    30031810 000052
10231987175000168817800093673    00009317                     000093170000000000000109                     I029317      30031800000000035003410000017N200218104700000000000103003180000000000000000000000000000000000000000100020857690701MARCELO ANTONIO COSTA TEIXEIRA          RUA TUPINIQUINS N 220 FUNDOS            VICENTE DE C21370630RIO DE JANEIRO RJUNIAO UMB DOS CULTOS AFRO BRAS    30031810 000053
10231987175000168817800093673    00009252                     000092520000000000000109                     I029252      30031800000000035003410000017N200218104700000000000103003180000000000000000000000000000000000000000200000000006641SONIA ROCHA DA SILVA                    RUA FERNANDO DA COSTA, LOTE 3 QUADRA O  LOTE XV - BE26183540BELFORD ROXO   RJUNIAO UMB DOS CULTOS AFRO BRAS    30031810 000054
10231987175000168817800093673    00009217                     000092170000000000000109                     I349217      30031800000000035003410000017N200218104700000000000103003180000000000000000000000000000000000000000100075300931772ALTAIR DE SOUZA COSTA                   RUA SETE DE SETEMBRO, LOTE 15 QUADRA 7 -CABUCU - NOV26293486NOVA IGUACU    RJUNIAO UMB DOS CULTOS AFRO BRAS    30031810 000055
10231987175000168817800093673    00009187                     000091870000000000000109                     I029187      30031800000000035003410000017N200218104700000000000103003180000000000000000000000000000000000000000100060495901768ANA CRISTINA PAVAO BARONI               RUA TAMANDUATEI, 197                    JARDIM TROPI26012775NOVA IGUACU    RJUNIAO UMB DOS CULTOS AFRO BRAS    30031810 000056
10231987175000168817800093673    00009163                     000091630000000000000109                     I029163      30031800000000035003410000017N200218104700000000000103003180000000000000000000000000000000000000000100076870090700JORGE JOSE RIVELO                       RUA MANDAGUARI LOTE 9 QUADRA 124        CURICICA - J22710120RIO DE JANEIRO RJUNIAO UMB DOS CULTOS AFRO BRAS    30031810 000057
10231987175000168817800093673    00008346                     000083460000000000000109                     I028346      20031800000000035003410000017N291217104700000000000102003180000000000000000000000000000000000000000100007682577789CLAUDIA CRISTINA CARVALHO AREA          RUA ALFAZEMA, 91 CASA 1                 PADRE MIGUEL21720360RIO DE JANEIRO RJUNIAO UMB DOS CULTOS AFRO BRAS    20031810 000058
10231987175000168817800093673    00008276                     000082760000000000000109                     I028276      28021800000000035003410000017N291217104700000000000102802180000000000000000000000000000000000000000100068824238734MARINETE LOPES DE MOURA                 RUA GENERAL, LOTE 4 QUADRA 2 N 9        PIABETA - MA25915000MAGE           RJUNIAO UMB DOS CULTOS AFRO BRAS    28021810 000059
10231987175000168817800093673    00008264                     000082640000000000000109                     I028264      28021800000000035003410000017N291217104700000000000102802180000000000000000000000000000000000000000100022002020778MARIA PALMIRA DE AMORIM LOPES           ESTRADA ANTONIO CARVALHO VENTURA, 1720 QALBUQUERQUE 25977280TERESOPOLIS    RJUNIAO UMB DOS CULTOS AFRO BRAS    28021810 000060
10231987175000168817800093673    00008162                     000081620000000000000109                     I028162      28021800000000035003410000017N291217104700000000000102802180000000000000000000000000000000000000000200000000009918MARIA CRISTINA FURTADO DOS SAN          RUA IVAN FORTES RUCH,  LOTE 14 - LOTEAMEMONTE FORMOS24738660S.GONCALO      RJUNIAO UMB DOS CULTOS AFRO BRAS    28021810 000061
10231987175000168817800093673    00008115                     000081150000000000000109                     I028115      28021800000000035003410000017N291217104700000000000102802180000000000000000000000000000000000000000200000000009287THIAGO BARBOSA DA SILVA                 RUA PEDRO DOMINGUES, 52 CASA 1          ENCANTADO - 20756080RIO DE JANEIRO RJUNIAO UMB DOS CULTOS AFRO BRAS    28021810 000062
10231987175000168817800093673    00008084                     000080840000000000000109                     I028084      28021800000000035003410000017N291217104700000000000102802180000000000000000000000000000000000000000100051192055772VALNEI VICENTE                          RUA REGINALDO, LOTE 10 E LOTE 11        CENTRO - BEL26173350BELFORD ROXO   RJUNIAO UMB DOS CULTOS AFRO BRAS    28021810 000063
10231987175000168817800093673    00008079                     000080790000000000000109                     I028079      28021800000000035003410000017N291217104700000000000102802180000000000000000000000000000000000000000100092336000768DIVA PINTO ROMUALDO                     RUA PARAISO QUADRA 129 LOTE 26          JARDIM CABUC26357140NOVA IGUACU    RJUNIAO UMB DOS CULTOS AFRO BRAS    28021810 000064
10231987175000168817800093673    00008001                     000080010000000000000109                     I028001      28021800000000035003410000017N291217104700000000000102802180000000000000000000000000000000000000000200000000002685JOSE MESSIAS RODRIGUES DA COST          RUA ARARE N 51 CASA 1                   REALENGO - R21765500RIO DE JANEIRO RJUNIAO UMB DOS CULTOS AFRO BRAS    28021810 000065
10231987175000168817800093673    00007929                     000079290000000000000109                     I027929      28021800000000035003410000017N291217104700000000000102802180000000000000000000000000000000000000000200000000006641SONIA ROCHA DA SILVA                    RUA FERNANDO DA COSTA, LOTE 3 QUADRA O  LOTE XV - BE26183540BELFORD ROXO   RJUNIAO UMB DOS CULTOS AFRO BRAS    28021810 000066
10231987175000168817800093673    00007918                     000079180000000000000109                     I347918      28021800000000035003410000017N291217104700000000000102802180000000000000000000000000000000000000000100075300931772ALTAIR DE SOUZA COSTA                   RUA SETE DE SETEMBRO, LOTE 15 QUADRA 7 -CABUCU - NOV26293486NOVA IGUACU    RJUNIAO UMB DOS CULTOS AFRO BRAS    28021810 000067
10231987175000168817800093673    00007890                     000078900000000000000109                     I027890      28021800000000035003410000017N291217104700000000000102802180000000000000000000000000000000000000000100076870090700JORGE JOSE RIVELO                       RUA MANDAGUARI LOTE 9 QUADRA 124        CURICICA - J22710120RIO DE JANEIRO RJUNIAO UMB DOS CULTOS AFRO BRAS    28021810 000068
10231987175000168817800093673    00007159                     000071590000000000000109                     I027159      28021800000000035003410000017N271217104700000000000102802180000000000000000000000000000000000000000100002171972726RAQUEL DE SOUZA MENESES                 RUA ROMENRO ZENDER N 271 ENTRADA APT 104RAMOS - RIO 21040080RIO DE JANEIRO RJUNIAO UMB DOS CULTOS AFRO BRAS    28021810 000069
10231987175000168817800093673    00007103                     000071030000000000000109                     I027103      28021800000000035003410000017N271217104700000000000102802180000000000000000000000000000000000000000100001147868794VALERIA APARECIDA DE SOUZA              RUA ALCYR BRASIL N 710                  JARDIM NOVA 26266010NOVA IGUACU    RJUNIAO UMB DOS CULTOS AFRO BRAS    28021810 000070
10231987175000168817800093673    00006878                     000068780000000000000109                     I346878      28021800000000035003410000017N271217104700000000000102802180000000000000000000000000000000000000000100009036923760ERIKA BARBOSA DOS SANTOS                AVENIDA ERNANI CARDOSO, 53 FUNDOS CASA 1CASCADURA - 21310310RIO DE JANEIRO RJUNIAO UMB DOS CULTOS AFRO BRAS    28021810 000071
10231987175000168817800093673    00006877                     000068770000000000000109                     I026877      28021800000000035003410000017N271217104700000000000102802180000000000000000000000000000000000000000100008478002707ALEXSANDRO JOAO MARTINS                 RUA: CARMO DO RIO CLARO Nº 266 - SAO GANOVA IGUACU 26021830NOVA IGUACU    RJUNIAO UMB DOS CULTOS AFRO BRAS    28021810 000072
10231987175000168817800093673    00006847                     000068470000000000000109                     I026847      28021800000000035003410000017N271217104700000000000102802180000000000000000000000000000000000000000100001447704746MARCOS FAGUNDES MARTINS                 ESTRADA DA PEDRA, 167                   SANTA CRUZ  23520241RIO DE JANEIRO RJUNIAO UMB DOS CULTOS AFRO BRAS    28021810 000073
10231987175000168817800093673    00006675                     000066750000000000000109                     I346675      28021800000000035003410000017N271217104700000000000102802180000000000000000000000000000000000000000100059475161791MARIA NAZARETE ALVES ANTONIO            TRAVESSA SANTOS DUMONT, 23 FUNDOS       ILHA DO GOVE21910490RIO DE JANEIRO RJUNIAO UMB DOS CULTOS AFRO BRAS    28021810 000074
10231987175000168817800093673    00006666                     000066660000000000000109                     I026666      28021800000000035003410000017N271217104700000000000102802180000000000000000000000000000000000000000100047448865749NEUSA MARIA DA SILVA                    AVENIDA CORONEL PHIDIAS TAVORA, RUA LIRIJARDIM AMERI21535590RIO DE JANEIRO RJUNIAO UMB DOS CULTOS AFRO BRAS    28021810 000075
10231987175000168817800093673    00006665                     000066650000000000000109                     I026665      28021800000000035003410000017N271217104700000000000102802180000000000000000000000000000000000000000100008664578756ATILA LARRICE GALDINO                   RUA MINERVINA NUNES DA COSTA, 238 FUNDOSPARQUE ANCHI21635350RIO DE JANEIRO RJUNIAO UMB DOS CULTOS AFRO BRAS    28021810 000076
10231987175000168817800093673    00006595                     000065950000000000000109                     I026595      28021800000000035003410000017N271217104700000000000102802180000000000000000000000000000000000000000100001556268767ANTONIO CARLOS DA CONCEICAO SA          RUA EMILIA MARTINS  84                  VILA MARTINS26043010NOVA IGUACU    RJUNIAO UMB DOS CULTOS AFRO BRAS    28021810 000077
10231987175000168817800093673    00006349                     000063490000000000000109                     I026349      28021800000000035003410000017N271217104700000000000102802180000000000000000000000000000000000000000100007359102782MARIA GORETE DA CONCEICAO               RUA: CINTIA Nº 343 - JARDIM CANAA      NOVA IGUACU 26262070NOVA IGUACU    RJUNIAO UMB DOS CULTOS AFRO BRAS    28021810 000078
10231987175000168817800093673    00006322                     000063220000000000000109                     I346322      28021800000000035003410000017N271217104700000000000102802180000000000000000000000000000000000000000100083819991700LUZIA GERALDINA DA SILVA                ESTRADA DA FAZENDINHA N 5 FUNDOS        BADU - NITER23320420NITEROI        RJUNIAO UMB DOS CULTOS AFRO BRAS    28021810 000079
10231987175000168817800093673    00005909                     000059090000000000000109                     I025909      31011800000000035003410000017N261217104700000000000103101180000000000000000000000000000000000000000100002171972726RAQUEL DE SOUZA MENESES                 RUA ROMENRO ZENDER N 271 ENTRADA APT 104RAMOS - RIO 21040080RIO DE JANEIRO RJUNIAO UMB DOS CULTOS AFRO BRAS    31011810 000080
10231987175000168817800093673    00005853                     000058530000000000000109                     I025853      31011800000000035003410000017N261217104700000000000103101180000000000000000000000000000000000000000100001147868794VALERIA APARECIDA DE SOUZA              RUA ALCYR BRASIL N 710                  JARDIM NOVA 26266010NOVA IGUACU    RJUNIAO UMB DOS CULTOS AFRO BRAS    31011810 000081
10231987175000168817800093673    00005628                     000056280000000000000109                     I345628      31011800000000035003410000017N261217104700000000000103101180000000000000000000000000000000000000000100009036923760ERIKA BARBOSA DOS SANTOS                AVENIDA ERNANI CARDOSO, 53 FUNDOS CASA 1CASCADURA - 21310310RIO DE JANEIRO RJUNIAO UMB DOS CULTOS AFRO BRAS    31011810 000082
10231987175000168817800093673    00005627                     000056270000000000000109                     I025627      31011800000000035003410000017N261217104700000000000103101180000000000000000000000000000000000000000100008478002707ALEXSANDRO JOAO MARTINS                 RUA: CARMO DO RIO CLARO Nº 266 - SAO GANOVA IGUACU 26021830NOVA IGUACU    RJUNIAO UMB DOS CULTOS AFRO BRAS    31011810 000083
10231987175000168817800093673    00005425                     000054250000000000000109                     I345425      31011800000000035003410000017N261217104700000000000103101180000000000000000000000000000000000000000100059475161791MARIA NAZARETE ALVES ANTONIO            TRAVESSA SANTOS DUMONT, 23 FUNDOS       ILHA DO GOVE21910490RIO DE JANEIRO RJUNIAO UMB DOS CULTOS AFRO BRAS    31011810 000084
10231987175000168817800093673    00005416                     000054160000000000000109                     I025416      31011800000000035003410000017N261217104700000000000103101180000000000000000000000000000000000000000100047448865749NEUSA MARIA DA SILVA                    AVENIDA CORONEL PHIDIAS TAVORA, RUA LIRIJARDIM AMERI21535590RIO DE JANEIRO RJUNIAO UMB DOS CULTOS AFRO BRAS    31011810 000085
10231987175000168817800093673    00005415                     000054150000000000000109                     I025415      31011800000000035003410000017N261217104700000000000103101180000000000000000000000000000000000000000100008664578756ATILA LARRICE GALDINO                   RUA MINERVINA NUNES DA COSTA, 238 FUNDOSPARQUE ANCHI21635350RIO DE JANEIRO RJUNIAO UMB DOS CULTOS AFRO BRAS    31011810 000086
10231987175000168817800093673    00005345                     000053450000000000000109                     I025345      31011800000000035003410000017N261217104700000000000103101180000000000000000000000000000000000000000100001556268767ANTONIO CARLOS DA CONCEICAO SA          RUA EMILIA MARTINS  84                  VILA MARTINS26043010NOVA IGUACU    RJUNIAO UMB DOS CULTOS AFRO BRAS    31011810 000087
10231987175000168817800093673    00005099                     000050990000000000000109                     I025099      31011800000000035003410000017N261217104700000000000103101180000000000000000000000000000000000000000100007359102782MARIA GORETE DA CONCEICAO               RUA: CINTIA Nº 343 - JARDIM CANAA      NOVA IGUACU 26262070NOVA IGUACU    RJUNIAO UMB DOS CULTOS AFRO BRAS    31011810 000088
10231987175000168817800093673    00005072                     000050720000000000000109                     I345072      31011800000000035003410000017N261217104700000000000103101180000000000000000000000000000000000000000100083819991700LUZIA GERALDINA DA SILVA                ESTRADA DA FAZENDINHA N 5 FUNDOS        BADU - NITER23320420NITEROI        RJUNIAO UMB DOS CULTOS AFRO BRAS    31011810 000089
10231987175000168817800093673    00001672                     000016720000000000000109                     I021672      20121700000000400003410000017N031117104700000000000102012170000000000000000000000000000000000000000100047448865749NEUSA MARIA DA SILVA                    AVENIDA CORONEL PHIDIAS TAVORA, RUA LIRIJARDIM AMERI21535590RIO DE JANEIRO RJUNIAO UMB DOS CULTOS AFRO BRAS    20121710 000090
10231987175000168817800093673    00001571                     000015710000000000000109                     I341571      16031800000000340003410000017N251017104700000000000101603180000000000000000000000000000000000000000200000000006641SONIA ROCHA DA SILVA                    RUA FERNANDO DA COSTA, LOTE 3 QUADRA O  LOTE XV - BE26183540BELFORD ROXO   RJUNIAO UMB DOS CULTOS AFRO BRAS    16031810 000091
10231987175000168817800093673    00001540                     000015400000000000000109                     I021540      20121700000000340003410000017N251017104700000000000102012170000000000000000000000000000000000000000200000000005620ALEXANDRE RIBEIRO DE SOUZA              AVENIDA  RIO CALOMBE, 105               PARQUE CAPIV25231020DUQUE DE CAXIASRJUNIAO UMB DOS CULTOS AFRO BRAS    20121710 000092
10231987175000168817800093673    00001522                     000015220000000000000109                     I021522      20121700000000300003410000017N251017104700000000000102012170000000000000000000000000000000000000000100002880433754ROSELANE DOS SANTOS ADAO MENDE          RUA CORREGO DANTA, LOTE 26 QUADRA 22    PEDRA DE GUA23026500GUARATIBA      RJUNIAO UMB DOS CULTOS AFRO BRAS    20121710 000093
10231987175000168817800093673    00001484                     000014840000000000000109                     I021484      20121700000000300003410000017N251017104700000000000102012170000000000000000000000000000000000000000100004826958706CRISTIANE RABELLO PAZ                   RUA ROBERTO SILVA N 540                 RAMOS - RIO 21060230RIO DE JANEIRO RJUNIAO UMB DOS CULTOS AFRO BRAS    20121710 000094
10231987175000168817800093673    00001472                     000014720000000000000109                     I021472      20121700000000270003410000017N251017104700000000000102012170000000000000000000000000000000000000000100001440590702VERONICA MARIA MOREIRA                  RUA QUATORZE DE OUTUBRO, 268 GLEBA B    CHAPERO - IT23812285ITAGUAI        RJUNIAO UMB DOS CULTOS AFRO BRAS    20121710 000095
10231987175000168817800093673    00001450                     000014500000000000000109                     I021450      20121700000000270003410000017N251017104700000000000102012170000000000000000000000000000000000000000100001866064789ALEXANDRE MENDONCA (XANDAO)             RUA TRES DE OUTUBRO, 667 - ENGENHO      CHAPERO - IT23830020CHAPERO - ITAGURJUNIAO UMB DOS CULTOS AFRO BRAS    20121710 000096
10231987175000168817800093673    00001398                     000013980000000000000109                     I021398      20121700000000340003410000017N241017104700000000000102012170000000000000000000000000000000000000000100051192055772VALNEI VICENTE                          RUA REGINALDO, LOTE 10 E LOTE 11        CENTRO - BEL26173350BELFORD ROXO   RJUNIAO UMB DOS CULTOS AFRO BRAS    20121710 000097
10231987175000168817800093673    00001390                     000013900000000000000109                     I021390      20121700000000340003410000017N241017104700000000000102012170000000000000000000000000000000000000000100092336000768DIVA PINTO ROMUALDO                     RUA PARAISO QUADRA 129 LOTE 26          JARDIM CABUC26357140NOVA IGUACU    RJUNIAO UMB DOS CULTOS AFRO BRAS    20121710 000098
10231987175000168817800093673    00001285                     000012850000000000000109                     I021285      20121700000000300003410000017N241017104700000000000102012170000000000000000000000000000000000000000100030011370700HELENA CAVALCANTE MARQUES               RUA DOUTOR PASSOS Nº 35 FUNDOS         MADUREIRA - 21310160RIO DE JANEIRO RJUNIAO UMB DOS CULTOS AFRO BRAS    20121710 000099
10231987175000168817800093673    00001283                     000012830000000000000109                     I021283      20121700000000340003410000017N241017104700000000000102012170000000000000000000000000000000000000000100065072502791GENILDA PEREIRA DA SILVA                RUA: SILVA PEIXOTO 71                   OUTEIRO - BE26183565BELFORD ROXO   RJUNIAO UMB DOS CULTOS AFRO BRAS    20121710 000100
10231987175000168817800093673    00001189                     000011890000000000000109                     I341189      20121700000000340003410000017N241017104700000000000102012170000000000000000000000000000000000000000200000000002685JOSE MESSIAS RODRIGUES DA COST          RUA ARARE N 51 CASA 1                   REALENGO - R21765500RIO DE JANEIRO RJUNIAO UMB DOS CULTOS AFRO BRAS    20121710 000101
10231987175000168817800093673    0000986                      000009860000000000000109                     I02986       20121700000000340003410000017N171017104700000000000102012170000000000000000000000000000000000000000100053218833787MARLUCE SUELY DA SILVA                  RUA CHRISOSTOMO PIMENTEL DE OLIVEIRA, 63ANCHIETA - R21645521RIO DE JANEIRO RJUNIAO UMB DOS CULTOS AFRO BRAS    20121710 000102
10231987175000168817800093673    0000885                      000008850000000000000109                     I34885       08021800000000350003410000017N171017104700000000000100802180000000000000000000000000000000000000000200000000009918MARIA CRISTINA FURTADO DOS SAN          RUA IVAN FORTES RUCH,  LOTE 14 - LOTEAMEMONTE FORMOS24738660S.GONCALO      RJUNIAO UMB DOS CULTOS AFRO BRAS    08021810 000103
10231987175000168817800093673    0000793                      000007930000000000000109                     I34793       20121700000000340003410000017N171017104700000000000102012170000000000000000000000000000000000000000200000000009287THIAGO BARBOSA DA SILVA                 RUA PEDRO DOMINGUES, 52 CASA 1          ENCANTADO - 20756080RIO DE JANEIRO RJUNIAO UMB DOS CULTOS AFRO BRAS    20121710 000104
10231987175000168817800093673    0000773                      000007730000000000000109                     I02773       20121700000000300003410000017N171017104700000000000102012170000000000000000000000000000000000000000100012470639840RICARDO DE OLIVEIRA                     RUA FELINTO MARQUES CERQUEIRA, 270 - CAPCAPUCHINHOS 44076040FEIRA DE SANTANBAUNIAO UMB DOS CULTOS AFRO BRAS    20121710 000105
10231987175000168817800093673    0000771                      000007710000000000000109                     I02771       20121700000000340003410000017N171017104700000000000102012170000000000000000000000000000000000000000100058781887704DENORIDES DE ALMEIDA                    RUA GOIANIA, 802                        VILAR NOVO -26116590BELFORD ROXO   RJUNIAO UMB DOS CULTOS AFRO BRAS    20121710 000106
10231987175000168817800093673    0000733                      000007330000000000000109                     I02733       20121700000000340003410000017N171017104700000000000102012170000000000000000000000000000000000000000100085624250797HELBA SALLES DE SOUZA                   RUA VITORIA N 16 QUADRA N LOTE 8        LAGOINHA - N26296447NOVA IGUACU    RJUNIAO UMB DOS CULTOS AFRO BRAS    20121710 000107
10231987175000168817800093673    0000715                      000007150000000000000109                     I02715       20121700000000340003410000017N171017104700000000000102012170000000000000000000000000000000000000000200000000007946ORQUIDEA JOSE DOS SANTOS                RUA JESSIE VENTURA LOTE 6 QUADRA 7      SANTA CECILI25233130DUQUE DE CAXIASRJUNIAO UMB DOS CULTOS AFRO BRAS    20121710 000108
10231987175000168817800093673    0000552                      000005520000000000000109                     I02552       20121700000000340003410000017N101017104700000000000102012170000000000000000000000000000000000000000100081905530706ALBERTO DINIZ RODRIGUES GABRIE          RUA AGAI, S/N QUADRA 38 LOTE 14         PACIENCIA   23065620RIO DE JANEIRO RJUNIAO UMB DOS CULTOS AFRO BRAS    20121710 000109
10231987175000168817800093673    0000518                      000005180000000000000109                     I02518       20121700000000340003410000017N101017104700000000000102012170000000000000000000000000000000000000000100003611090751ANDREA DA COSTA FERREIRA                RUA CORONEL FRANCA LEITE, 657           EDSON PASSOS26585020MESQUITA       RJUNIAO UMB DOS CULTOS AFRO BRAS    20121710 000110
10231987175000168817800093673    0000517                      000005170000000000000109                     I02517       20121700000000400003410000017N101017104700000000000102012170000000000000000000000000000000000000000100060479612749MARIA SEBASTIANA NOGUEIRA PAIX          RUA DOZE DE FEVEREIRO, 900 CASA 4       BANGU - RJ  21815092RIO DE JANEIRO RJUNIAO UMB DOS CULTOS AFRO BRAS    20121710 000111
10231987175000168817800093673    0000514                      000005140000000000000109                     I02514       20121700000000340003410000017N101017104700000000000102012170000000000000000000000000000000000000000100054903416704ANTONIO FERNANDO CORREA DE CAR          RUA OLIVEIROS RODRIGUES ALVES, 1974     POSSE - NOVA26030010NOVA IGUACU    RJUNIAO UMB DOS CULTOS AFRO BRAS    20121710 000112
10231987175000168817800093673    0000446                      000004460000000000000109                     I02446       20121700000000340003410000017N101017104700000000000102012170000000000000000000000000000000000000000100068824238734MARINETE LOPES DE MOURA                 RUA GENERAL, LOTE 4 QUADRA 2 N 9        PIABETA - MA25915000MAGE           RJUNIAO UMB DOS CULTOS AFRO BRAS    20121710 000113
10231987175000168817800093673    0000416                      000004160000000000000109                     I02416       06031800000000350003410000017N101017104700000000000100603180000000000000000000000000000000000000000100022002020778MARIA PALMIRA DE AMORIM LOPES           ESTRADA ANTONIO CARVALHO VENTURA, 1720 QALBUQUERQUE 25977280TERESOPOLIS    RJUNIAO UMB DOS CULTOS AFRO BRAS    06031810 000114
10231987175000168817800093673    0000260                      000002600000000000000109                     I02260       20121700000000340003410000017N101017104700000000000102012170000000000000000000000000000000000000000100026885972720FRANCISCO DE ASSIS MACEDO               RUA MINISTRO MOREIRA ABREU, 90 CASA 2   OLARIA - RJ 21071485RIO DE JANEIRO RJUNIAO UMB DOS CULTOS AFRO BRAS    20121710 000115
10231987175000168817800093673    0000259                      000002590000000000000109                     I02259       20121700000000350003410000017N101017104700000000000102012170000000000000000000000000000000000000000100011452515794DEBORAH CHRISTINA DA SILVA CAN          RUA LAZARO MONCEF , 53                  SEPETIBA - R23540190RIO DE JANEIRO RJUNIAO UMB DOS CULTOS AFRO BRAS    20121710 000116
10231987175000168817800093673    000095                       000000950000000000000109                     I3495        20121700000000450003410000017N101017104700000000000102012170000000000000000000000000000000000000000100076870090700JORGE JOSE RIVELO                       RUA MANDAGUARI LOTE 9 QUADRA 124        CURICICA - J22710120RIO DE JANEIRO RJUNIAO UMB DOS CULTOS AFRO BRAS    20121710 000117
9                                                                                                                                                                                                                                                                                                                                                                                                         000118
