01REMESSA01COBRANCA       916200163100        União Umb dos Cultos Afro Bra341BANCO ITAU SA  270619                                                                                                                                                                                                                                                                                                      000001
10231987175000168916200163100    000049789                    000497890000000000000109                     I0249789     30091900000000040003410000017N250619105700000000000133009190000000000000000000000000000000000000000100055256767704SOLANGE DOS SANTOS SILVA                RUA QUATORZEN 0, LOTE 35 CASA 131 - ARAUCAMPO GRANDE23090370RIO DE JANEIRO RJUNIAO UMB DOS CULTOS AFRO BRAS    30091915 000002
21300920190000000000080                                                                                                                                                                                                                                                                                                                                                                                   000003
10231987175000168916200163100    000049788                    000497880000000000000109                     I0249788     30081900000000040003410000017N250619105700000000000133008190000000000000000000000000000000000000000100055256767704SOLANGE DOS SANTOS SILVA                RUA QUATORZEN 0, LOTE 35 CASA 131 - ARAUCAMPO GRANDE23090370RIO DE JANEIRO RJUNIAO UMB DOS CULTOS AFRO BRAS    30081915 000004
21300820190000000000080                                                                                                                                                                                                                                                                                                                                                                                   000005
10231987175000168916200163100    000049787                    000497870000000000000109                     I0249787     30071900000000040003410000017N250619105700000000000133007190000000000000000000000000000000000000000100055256767704SOLANGE DOS SANTOS SILVA                RUA QUATORZEN 0, LOTE 35 CASA 131 - ARAUCAMPO GRANDE23090370RIO DE JANEIRO RJUNIAO UMB DOS CULTOS AFRO BRAS    30071915 000006
21300720190000000000080                                                                                                                                                                                                                                                                                                                                                                                   000007
10231987175000168916200163100    000044144                    000441440000000000000109                     I0244144     30061900000000040003410000017N130319105700000000000133006190000000000000000000000000000000000000000100008463473776CLAUDIA OLIVEIRA DE SOUZA               RUA TENENTE JOSE HERCULINON 195,        VILA JARDIM 23016320RIO DE JANEIRO RJUNIAO UMB DOS CULTOS AFRO BRAS    30061915 000008
21300620190000000000080                                                                                                                                                                                                                                                                                                                                                                                   000009
10231987175000168916200163100    000043698                    000436980000000000000109                     I0243698     30061900000000040003410000017N130319105700000000000133006190000000000000000000000000000000000000000100067237258753RITA DE CASSIA DIACOVO PELLITO          RUA ANDRE AZEVEDO N 87, CASA 101 BLOCO 2OLARIA      21021480RIO DE JANEIRO RJUNIAO UMB DOS CULTOS AFRO BRAS    30061915 000010
21300620190000000000080                                                                                                                                                                                                                                                                                                                                                                                   000011
10231987175000168916200163100    000043235                    000432350000000000000109                     I0243235     30061900000000040003410000017N130319105700000000000133006190000000000000000000000000000000000000000100055256767704SOLANGE DOS SANTOS SILVA                RUA QUATORZEN 0, LOTE 35 CASA 131 - ARAUCAMPO GRANDE23090370RIO DE JANEIRO RJUNIAO UMB DOS CULTOS AFRO BRAS    30061915 000012
21300620190000000000080                                                                                                                                                                                                                                                                                                                                                                                   000013
10231987175000168916200163100    000042498                    000424980000000000000109                     I0242498     30051900000000040003410000017N130319105700000000000133005190000000000000000000000000000000000000000100008463473776CLAUDIA OLIVEIRA DE SOUZA               RUA TENENTE JOSE HERCULINON 195,        VILA JARDIM 23016320RIO DE JANEIRO RJUNIAO UMB DOS CULTOS AFRO BRAS    30051915 000014
21300520190000000000080                                                                                                                                                                                                                                                                                                                                                                                   000015
10231987175000168916200163100    000042054                    000420540000000000000109                     I0242054     30051900000000040003410000017N130319105700000000000133005190000000000000000000000000000000000000000100067237258753RITA DE CASSIA DIACOVO PELLITO          RUA ANDRE AZEVEDO N 87, CASA 101 BLOCO 2OLARIA      21021480RIO DE JANEIRO RJUNIAO UMB DOS CULTOS AFRO BRAS    30051915 000016
21300520190000000000080                                                                                                                                                                                                                                                                                                                                                                                   000017
10231987175000168916200163100    000041595                    000415950000000000000109                     I0241595     30051900000000040003410000017N130319105700000000000133005190000000000000000000000000000000000000000100055256767704SOLANGE DOS SANTOS SILVA                RUA QUATORZEN 0, LOTE 35 CASA 131 - ARAUCAMPO GRANDE23090370RIO DE JANEIRO RJUNIAO UMB DOS CULTOS AFRO BRAS    30051915 000018
21300520190000000000080                                                                                                                                                                                                                                                                                                                                                                                   000019
10231987175000168916200163100    000040861                    000408610000000000000109                     I0240861     30041900000000040003410000017N120319105700000000000133004190000000000000000000000000000000000000000100008463473776CLAUDIA OLIVEIRA DE SOUZA               RUA TENENTE JOSE HERCULINON 195,        VILA JARDIM 23016320RIO DE JANEIRO RJUNIAO UMB DOS CULTOS AFRO BRAS    30041915 000020
21300420190000000000080                                                                                                                                                                                                                                                                                                                                                                                   000021
10231987175000168916200163100    000040420                    000404200000000000000109                     I0240420     30041900000000040003410000017N120319105700000000000133004190000000000000000000000000000000000000000100067237258753RITA DE CASSIA DIACOVO PELLITO          RUA ANDRE AZEVEDO N 87, CASA 101 BLOCO 2OLARIA      21021480RIO DE JANEIRO RJUNIAO UMB DOS CULTOS AFRO BRAS    30041915 000022
21300420190000000000080                                                                                                                                                                                                                                                                                                                                                                                   000023
10231987175000168916200163100    000039963                    000399630000000000000109                     I0239963     30041900000000040003410000017N120319105700000000000133004190000000000000000000000000000000000000000100055256767704SOLANGE DOS SANTOS SILVA                RUA QUATORZEN 0, LOTE 35 CASA 131 - ARAUCAMPO GRANDE23090370RIO DE JANEIRO RJUNIAO UMB DOS CULTOS AFRO BRAS    30041915 000024
21300420190000000000080                                                                                                                                                                                                                                                                                                                                                                                   000025
9                                                                                                                                                                                                                                                                                                                                                                                                         000026
