01REMESSA01COBRANCA       916200163100        União Umb dos Cultos Afro Bra341BANCO ITAU SA  100118                                                                                                                                                                                                                                                                                                      000001
10231987175000168916200163100    00009011                     000090110000000000000109                     I019011      15021800000000385003410000017N100118050900000000000101502180000000000000000000000000000000000000000100003028407701MARIA MARINETE OLIVEIRA  DA SI          RUA TURIUVA LOTE 40 QUADRA 54           VILA MELIPOL26150000BELFORD ROXO   RJUNIAO UMB DOS CULTOS AFRO BRAS    15021810 000002
10231987175000168916200163100    00009010                     000090100000000000000109                     I019010      12011800000000035003410000017N100118050900000000000101201180000000000000000000000000000000000000000100003351716729WAGNER CONCEICAO DO NASCIMENTO          RUA CRISANTEMOS, 152 CASA 48 FRENTE - SAHITERLAND - 26171430BELFORD ROXO   RJUNIAO UMB DOS CULTOS AFRO BRAS    12011810 000003
10231987175000168916200163100    00008820                     000088200000000000000109                     I028820      31011800000000035003410000017N020118050900000000000103101180000000000000000000000000000000000000000100007399837767CINTIA SILVA MIRANDA                    RUA COSTA RICA, 30 APTO 202             PENHA - RJ  21020340RIO DE JANEIRO RJUNIAO UMB DOS CULTOS AFRO BRAS    31011810 000004
10231987175000168916200163100    00008420                     000084200000000000000109                     I018420      31011800000000035003410000017N020118050900000000000103101180000000000000000000000000000000000000000100001080847790BENTO FRANCISCO DE LIMA NETO            RUA PITANGAS, 36 A - TIJUQUINHA         BARRA DA TIJ22713330RIO DE JANEIRO RJUNIAO UMB DOS CULTOS AFRO BRAS    31011810 000005
10231987175000168916200163100    00004446                     000044460000000000000109                     I024446      22121700000000350003410000017N171117050900000000000102212170000000000000000000000000000000000000000100083493956720SAINT-CLAIR FERREIRA BARBOSA            RUA HONORIO PECANHA N 78                SEPETIBA - R23535127RIO DE JANEIRO RJUNIAO UMB DOS CULTOS AFRO BRAS    22121710 000006
10231987175000168916200163100    00004141                     000041410000000000000109                     I024141      22121700000000350003410000017N171117050900000000000102212170000000000000000000000000000000000000000100007271009710MARCELLO FERREIRA DE ARAUJO             RUA IPEUVA, 106                         BRAZ DE PINA21215400RIO DE JANEIRO RJUNIAO UMB DOS CULTOS AFRO BRAS    22121710 000007
10231987175000168916200163100    00003822                     000038220000000000000109                     I023822      22121700000000350003410000017N171117050900000000000102212170000000000000000000000000000000000000000100004462221788ALEXANDRO JULIO DE SOUZA                RUA CORURIPE, 410                       MARECHAL HER21555490RIO DE JANEIRO RJUNIAO UMB DOS CULTOS AFRO BRAS    22121710 000008
10231987175000168916200163100    00003806                     000038060000000000000109                     I023806      22121700000000350003410000017N171117050900000000000102212170000000000000000000000000000000000000000100000218582765LUIZ CARLOS DO AMARAL                   RUA TRIMONTE QUADRA 9 LOTE 44           PARQUE BOM R25223820DUQUE DE CAXIASRJUNIAO UMB DOS CULTOS AFRO BRAS    22121710 000009
10231987175000168916200163100    00003218                     000032180000000000000109                     I013218      22121700000000350003410000017N171117050900000000000102212170000000000000000000000000000000000000000100003761710739ALMIRA DE SOUZA SANTOS                  RUA CARMELITA DE JESUS, LOTE 6 QUADRA 3 ELISA MARIA 23076440RIO DE JANEIRO RJUNIAO UMB DOS CULTOS AFRO BRAS    22121710 000010
10231987175000168916200163100    00003097                     000030970000000000000109                     I023097      31121700000000035003410000017N131117050900000000000103112170000000000000000000000000000000000000000100000839586736MAURO CESAR BRANCO OBERLAENDER          RUA IGUARIM N 104 - REALENGO            REALENGO - R21765540RIO DE JANEIRO RJUNIAO UMB DOS CULTOS AFRO BRAS    31121710 000011
10231987175000168916200163100    00002994                     000029940000000000000109                     I022994      31121700000000035003410000017N131117050900000000000103112170000000000000000000000000000000000000000100083493956720SAINT-CLAIR FERREIRA BARBOSA            RUA HONORIO PECANHA N 78                SEPETIBA - R23535127RIO DE JANEIRO RJUNIAO UMB DOS CULTOS AFRO BRAS    31121710 000012
10231987175000168916200163100    00002685                     000026850000000000000109                     I022685      31121700000000035003410000017N131117050900000000000103112170000000000000000000000000000000000000000100007271009710MARCELLO FERREIRA DE ARAUJO             RUA IPEUVA, 106                         BRAZ DE PINA21215400RIO DE JANEIRO RJUNIAO UMB DOS CULTOS AFRO BRAS    31121710 000013
10231987175000168916200163100    00002319                     000023190000000000000109                     I022319      31121700000000035003410000017N131117050900000000000103112170000000000000000000000000000000000000000100000218582765LUIZ CARLOS DO AMARAL                   RUA TRIMONTE QUADRA 9 LOTE 44           PARQUE BOM R25223820DUQUE DE CAXIASRJUNIAO UMB DOS CULTOS AFRO BRAS    31121710 000014
10231987175000168916200163100    00001724                     000017240000000000000109                     I011724      31121700000000035003410000017N131117050900000000000103112170000000000000000000000000000000000000000100003761710739ALMIRA DE SOUZA SANTOS                  RUA CARMELITA DE JESUS, LOTE 6 QUADRA 3 ELISA MARIA 23076440RIO DE JANEIRO RJUNIAO UMB DOS CULTOS AFRO BRAS    31121710 000015
9                                                                                                                                                                                                                                                                                                                                                                                                         000016
