01REMESSA01COBRANCA       916200163100        União Umb dos Cultos Afro Bra341BANCO ITAU SA  100119                                                                                                                                                                                                                                                                                                      000001
10231987175000168916200163100    000033584                    000335840000000000000109                     I0233584     31121800000000070003410000017N171218104700000000000103112180000000000000000000000000000000000000000100054770122772EDUARDO DOS SANTOS REIS NETO            RUA BURITI                              MADUREIRA   20231046RIO DE JANEIRO RJUNIAO UMB DOS CULTOS AFRO BRAS    31121810 000002
9                                                                                                                                                                                                                                                                                                                                                                                                         000003
