01REMESSA01COBRANCA       817800093673        União Umb dos Cultos Afro Bra341BANCO ITAU SA  240419                                                                                                                                                                                                                                                                                                      000001
10231987175000168817800093673    000044841                    000448410000000000000109                     I0244841     30041900000000040003410000017N210319105700000000000103004190000000000000000000000000000000000000000100001232598780VANILDA DE SOUZA AZEREDO DA SI          RUA ARISTOTELINA SILVA LINON 208, GLEBA CHAPERO     23831330ITAGUAI        RJUNIAO UMB DOS CULTOS AFRO BRAS    30041915 000002
10231987175000168817800093673    000039788                    000397880000000000000109                     I0239788     29031900000000040003410000017N130219105700000000000102903190000000000000000000000000000000000000000100081733577734JOSE CARLOS DE ORNELAS SOARES           RUA PROJETADAN 20, CASA 1               LARGO DO MAC28770000SANTA MARIA MADRJUNIAO UMB DOS CULTOS AFRO BRAS    29031915 000003
10231987175000168817800093673    000039633                    000396330000000000000109                     I0239633     28021900000000040003410000017N210119105700000000000102802190000000000000000000000000000000000000000100002826493795VALDEA PEREIRA SIQUEIRA                 RUA BORDA DO MATON 415,                 GRAJAU      20561204RIO DE JANEIRO RJUNIAO UMB DOS CULTOS AFRO BRAS    28021915 000004
10231987175000168817800093673    000039290                    000392900000000000000109                     I0239290     30031900000000040003410000017N261218105700000000000103003190000000000000000000000000000000000000000100012119575789RAYKA DA SILVA BATISTA                  RUA PARAISON 33,                        PIABETA     25931638MAGE           RJUNIAO UMB DOS CULTOS AFRO BRAS    30031915 000005
10231987175000168817800093673    000038568                    000385680000000000000109                     I0238568     30031900000000040003410000017N261218105700000000000103003190000000000000000000000000000000000000000100000747523754CLAUDIARA TEIXEIRA DA SILVA             RUA CAMBUCIN 295, CASA 1 PORTAO DE GARAGMUQUECA     27140280BARRA DO PIRAI RJUNIAO UMB DOS CULTOS AFRO BRAS    30031915 000006
10231987175000168817800093673    000038562                    000385620000000000000109                     I0238562     30031900000000040003410000017N261218105700000000000103003190000000000000000000000000000000000000000100059841672715MONICA TARDELLE                         RUA CAROLINA SANTOSN 47, BLOCO 1 APARTAMLINS DE VASC20720311RIO DE JANEIRO RJUNIAO UMB DOS CULTOS AFRO BRAS    30031915 000007
10231987175000168817800093673    000038559                    000385590000000000000109                     I0238559     30031900000000040003410000017N261218105700000000000103003190000000000000000000000000000000000000000100004750450766ALEX KELLY CALDERARO                    RUA TENENTE JERONIMO MESQUITAN 53,      IRAJA       21371300RIO DE JANEIRO RJUNIAO UMB DOS CULTOS AFRO BRAS    30031915 000008
10231987175000168817800093673    000038255                    000382550000000000000109                     I0238255     30031900000000040003410000017N261218105700000000000103003190000000000000000000000000000000000000000212875208000133ILE ASE OMI LOCUM KARE                  RUA QUARENTA E CINCON 0, LOTE 20 QUADRA CAMPO LINDO 23890000NOVA IGUACU    RJUNIAO UMB DOS CULTOS AFRO BRAS    30031915 000009
10231987175000168817800093673    000037934                    000379340000000000000109                     I0237934     30031900000000040003410000017N261218105700000000000103003190000000000000000000000000000000000000000100028031342768ODILA RIBEIRO MARTINS                   RUA ITAPORE N 65, VILA SAO JOAO         VILAR DOS TE25560490SAO JOAO DE MERRJUNIAO UMB DOS CULTOS AFRO BRAS    30031915 000010
10231987175000168817800093673    000036645                    000366450000000000000109                     I0236645     28021900000000040003410000017N261218105700000000000102802190000000000000000000000000000000000000000100059841672715MONICA TARDELLE                         RUA CAROLINA SANTOSN 47, BLOCO 1 APARTAMLINS DE VASC20720311RIO DE JANEIRO RJUNIAO UMB DOS CULTOS AFRO BRAS    28021915 000011
10231987175000168817800093673    000036642                    000366420000000000000109                     I0236642     28021900000000040003410000017N261218105700000000000102802190000000000000000000000000000000000000000100004750450766ALEX KELLY CALDERARO                    RUA TENENTE JERONIMO MESQUITAN 53,      IRAJA       21371300RIO DE JANEIRO RJUNIAO UMB DOS CULTOS AFRO BRAS    28021915 000012
10231987175000168817800093673    000036019                    000360190000000000000109                     I0236019     28021900000000040003410000017N261218105700000000000102802190000000000000000000000000000000000000000100028031342768ODILA RIBEIRO MARTINS                   RUA ITAPORE N 65, VILA SAO JOAO         VILAR DOS TE25560490SAO JOAO DE MERRJUNIAO UMB DOS CULTOS AFRO BRAS    28021915 000013
9                                                                                                                                                                                                                                                                                                                                                                                                         000014
