01REMESSA01COBRANCA       817800093673        União Umb dos Cultos Afro Bra341BANCO ITAU SA  150818                                                                                                                                                                                                                                                                                                      000001
10231987175000168817800093673    000021395                    000213950000000000000109                     I0121395     20081800000000175003410000017N140818104700000000000102008180000000000000000000000000000000000000000100099029359749ANDRE LUIZ REIS GRACIO                  RUA PIRAMBOIA N 130                     SENADOR VASC23012300RIO DE JANEIRO RJUNIAO UMB DOS CULTOS AFRO BRAS    20081810 000002
10231987175000168817800093673    000021394                    000213940000000000000109                     I0121394     17081800000000035003410000017N140818104700000000000101708180000000000000000000000000000000000000000100000640795706CELIA REGINA ALVES DE SOUZA CO          RUA QUARENTA E SETE                     JARDIM ITAMB24725240SAO GONCALO    RJUNIAO UMB DOS CULTOS AFRO BRAS    17081810 000003
10231987175000168817800093673    000021393                    000213930000000000000109                     I0121393     30081800000000040003410000017N140818104700000000000103008180000000000000000000000000000000000000000100066645352700NILZA BELISARIO DAMIAO                  RUA: ESPERANCA                          JARDIM PARAI00000000RIO DE JANEIRO RJUNIAO UMB DOS CULTOS AFRO BRAS    30081810 000004
10231987175000168817800093673    000021392                    000213920000000000000109                     I0121392     30081800000000040003410000017N140818104700000000000103008180000000000000000000000000000000000000000100009572644700FABIO DE SOUZA BARBOSA                  RUA: DA ESPERANCA                       JARDIM PARAI00000000RIO DE JANEIRO RJUNIAO UMB DOS CULTOS AFRO BRAS    30081810 000005
10231987175000168817800093673    000021391                    000213910000000000000109                     I0121391     30081800000000520003410000017N140818104700000000000103008180000000000000000000000000000000000000000100096073276753MARIA JOSE DA SILVA                     RUA MANOEL GAMA                         TOMAZINHO - 25525542SAO JOAO DE MERRJUNIAO UMB DOS CULTOS AFRO BRAS    30081810 000006
10231987175000168817800093673    000021390                    000213900000000000000109                     I0121390     30121800000000070003410000017N140818104700000000000103012180000000000000000000000000000000000000000100015295681700MICHEL FERNANDES BASTOS CRESPO          RUA ROSANGELA TOSTES                    PARQUE FLUMI26185260BELFORD ROXO   RJUNIAO UMB DOS CULTOS AFRO BRAS    30121810 000007
10231987175000168817800093673    000021389                    000213890000000000000109                     I0121389     30111800000000070003410000017N140818104700000000000103011180000000000000000000000000000000000000000100015295681700MICHEL FERNANDES BASTOS CRESPO          RUA ROSANGELA TOSTES                    PARQUE FLUMI26185260BELFORD ROXO   RJUNIAO UMB DOS CULTOS AFRO BRAS    30111810 000008
10231987175000168817800093673    000021388                    000213880000000000000109                     I0121388     30101800000000070003410000017N140818104700000000000103010180000000000000000000000000000000000000000100015295681700MICHEL FERNANDES BASTOS CRESPO          RUA ROSANGELA TOSTES                    PARQUE FLUMI26185260BELFORD ROXO   RJUNIAO UMB DOS CULTOS AFRO BRAS    30101810 000009
10231987175000168817800093673    000021387                    000213870000000000000109                     I0121387     30091800000000070003410000017N140818104700000000000103009180000000000000000000000000000000000000000100015295681700MICHEL FERNANDES BASTOS CRESPO          RUA ROSANGELA TOSTES                    PARQUE FLUMI26185260BELFORD ROXO   RJUNIAO UMB DOS CULTOS AFRO BRAS    30091810 000010
10231987175000168817800093673    000021386                    000213860000000000000109                     I0121386     30081800000000070003410000017N140818104700000000000103008180000000000000000000000000000000000000000100015295681700MICHEL FERNANDES BASTOS CRESPO          RUA ROSANGELA TOSTES                    PARQUE FLUMI26185260BELFORD ROXO   RJUNIAO UMB DOS CULTOS AFRO BRAS    30081810 000011
10231987175000168817800093673    000021385                    000213850000000000000109                     I3421385     31081800000000040003410000017N130818104700000000000103108180000000000000000000000000000000000000000100002414887702MARGARETH MARIA DA SILVA GONCA          RUA: SEBASTIAO DE CARVALHO              RAMOS       21061670RIO DE JANEIRO RJUNIAO UMB DOS CULTOS AFRO BRAS    31081810 000012
10231987175000168817800093673    000021384                    000213840000000000000109                     I0121384     30081800000000630003410000017N130818104700000000000103008180000000000000000000000000000000000000000100002648297782ASSOCIACAO ESPIRITA TORRES E L          RUA DOUTOR PIO BORGES, 2181 CASA 2      PITA - SAO G24412000SAO GONCALO    RJUNIAO UMB DOS CULTOS AFRO BRAS    30081810 000013
10231987175000168817800093673    000021383                    000213830000000000000109                     I0121383     20081800000000105003410000017N130818104700000000000102008180000000000000000000000000000000000000000100005243182710JACIRA HELENA MAURICIO ARRUDA           AVENIDA TENENTE REBELO                  IRAJA       21241460RIO DE JANEIRO RJUNIAO UMB DOS CULTOS AFRO BRAS    20081810 000014
10231987175000168817800093673    000021382                    000213820000000000000109                     I0121382     15081800000000035003410000017N130818104700000000000101508180000000000000000000000000000000000000000100014662958725LUAN HENRIQUE MONTEIRO                  ESTRADA DO PARAISO                      CASTELANEA  25635412PETROPOLIS     RJUNIAO UMB DOS CULTOS AFRO BRAS    15081810 000015
10231987175000168817800093673    000021381                    000213810000000000000109                     I0121381     20081800000000105003410000017N130818104700000000000102008180000000000000000000000000000000000000000100002349584720UANDERSON MARTINS DE PAULA              RUA MUNIZ E BARROS                      RIO D OURO  26910000MIGUEL PEREIRA RJUNIAO UMB DOS CULTOS AFRO BRAS    20081810 000016
10231987175000168817800093673    000021380                    000213800000000000000109                     I0121380     30081800000000035003410000017N100818104700000000000103008180000000000000000000000000000000000000000100007281066716ZULMIRA DA SILVA RODRIGUES              RUA: BERNARDINO DE CAMPOS               OLAVO BILAC 25035530DUQUE DE CAXIASRJUNIAO UMB DOS CULTOS AFRO BRAS    30081810 000017
10231987175000168817800093673    000021379                    000213790000000000000109                     I0121379     30081800000000070003410000017N090818104700000000000103008180000000000000000000000000000000000000000100072090499753JOSEFINA PAULINA RODRIGUES              RUA JOAQUIM SOARES NETO, 416            NOVA AMERICA26021560NOVA IGUACU    RJUNIAO UMB DOS CULTOS AFRO BRAS    30081810 000018
9                                                                                                                                                                                                                                                                                                                                                                                                         000019
