01REMESSA01COBRANCA       817800093673        União Umb dos Cultos Afro Bra341BANCO ITAU SA  311018                                                                                                                                                                                                                                                                                                      000001
10231987175000168817800093673    000033352                    000333520000000000000109                     I0133352     10111800000000802603410000017N311018104700000000000101011180000000000000000000000000000000000000000100099608421420NEHILTON ANTONIO DOS SANTOS             RUA: ALCIDES MAIA                       BENTO RIBEIR21550560RIO DE JANEIRO RJUNIAO UMB DOS CULTOS AFRO BRAS    10111810 000002
10231987175000168817800093673    000033351                    000333510000000000000109                     I0133351     10111800000000833393410000017N311018104700000000000101011180000000000000000000000000000000000000000100013946879772ALDENI ALBENORA DA SILVA                RUA: JOAO DANIEL                        BENTO RIBEIR21550480RIO DE JANEIRO RJUNIAO UMB DOS CULTOS AFRO BRAS    10111810 000003
10231987175000168817800093673    000033350                    000333500000000000000109                     I0133350     31101800000000035003410000017N311018104700000000000103110180000000000000000000000000000000000000000100043397077753JOAO NORATO CEZARIO                     RUA POETA MANOEL BANDEIRA               CABUIS      26540260NILOPOLIS      RJUNIAO UMB DOS CULTOS AFRO BRAS    31101810 000004
10231987175000168817800093673    000033349                    000333490000000000000109                     I0133349     10111800000000895723410000017N311018104700000000000101011180000000000000000000000000000000000000000100049547410768ROSELI DE SAO JOSE MOREIRA              RUA: ALCIDES MAIA                       BENTO RIBEIR21550560RIO DE JANEIRO RJUNIAO UMB DOS CULTOS AFRO BRAS    10111810 000005
10231987175000168817800093673    000033348                    000333480000000000000109                     I0133348     10111800000000717403410000017N311018104700000000000101011180000000000000000000000000000000000000000100004244110755ANA PAULA SILVA BARBOSA                 RUA: ALCIDES MAIA                       BENTO RIBEIR21550560RIO DE JANEIRO RJUNIAO UMB DOS CULTOS AFRO BRAS    10111810 000006
10231987175000168817800093673    000033347                    000333470000000000000109                     I0133347     10111800000000702603410000017N311018104700000000000101011180000000000000000000000000000000000000000100001061174751SAMUEL ANTONIO TRINDADE                 RUA: ALCIDES MAIA                       BENTO RIBEIR21550560RIO DE JANEIRO RJUNIAO UMB DOS CULTOS AFRO BRAS    10111810 000007
10231987175000168817800093673    000033346                    000333460000000000000109                     I0133346     10111800000000577393410000017N311018104700000000000101011180000000000000000000000000000000000000000100007854516766NATALIE SILVA DE LIMA                   RUA: JOAO DANIEL                        BENTO RIBEIR21550480RIO DE JANEIRO RJUNIAO UMB DOS CULTOS AFRO BRAS    10111810 000008
10231987175000168817800093673    000033345                    000333450000000000000109                     I0133345     10111800000000768393410000017N311018104700000000000101011180000000000000000000000000000000000000000100082228507768IARA LUCIA RIBEIRO QUINTINO             RUA: JOAO DANIEL                        BENTO RIBEIR21550480RIO DE JANEIRO RJUNIAO UMB DOS CULTOS AFRO BRAS    10111810 000009
10231987175000168817800093673    000033344                    000333440000000000000109                     I0133344     10111800000000301643410000017N311018104700000000000101011180000000000000000000000000000000000000000100068760680725ANNA LUCIA DE SOUZA                     RUA: JOAO DANIEL                        BENTO RIBEIR21550480RIO DE JANEIRO RJUNIAO UMB DOS CULTOS AFRO BRAS    10111810 000010
10231987175000168817800093673    000033343                    000333430000000000000109                     I0133343     10111800000000598393410000017N311018104700000000000101011180000000000000000000000000000000000000000100078566738772MARINA SOARES DA SILVA                  RUA: JOAO DANIEL                        BENTO RIBEIR21550480RIO DE JANEIRO RJUNIAO UMB DOS CULTOS AFRO BRAS    10111810 000011
10231987175000168817800093673    000033342                    000333420000000000000109                     I0133342     10111800000000421643410000017N311018104700000000000101011180000000000000000000000000000000000000000100068760680725ANNA LUCIA DE SOUZA                     RUA: JOAO DANIEL                        BENTO RIBEIR21550480RIO DE JANEIRO RJUNIAO UMB DOS CULTOS AFRO BRAS    10111810 000012
10231987175000168817800093673    000033341                    000333410000000000000109                     I0133341     10111800000000533393410000017N311018104700000000000101011180000000000000000000000000000000000000000100093728467791ALEX DE SOUZA MARTINS                   RUA: JOAO DANIEL                        BENTO RIBEIR21550480RIO DE JANEIRO RJUNIAO UMB DOS CULTOS AFRO BRAS    10111810 000013
10231987175000168817800093673    000033340                    000333400000000000000109                     I0133340     10111800000001200003410000017N311018104700000000000101011180000000000000000000000000000000000000000100012701486726MARIANA MAGALHAES DE C. J. I.           RUA: SALOMAO FILHO                      MARECHAL HER21331660RIO DE JANEIRO RJUNIAO UMB DOS CULTOS AFRO BRAS    10111810 000014
10231987175000168817800093673    000033339                    000333390000000000000109                     I0133339     02111800000000315003410000017N311018104700000000000100211180000000000000000000000000000000000000000100094443211772SANDRA LEILA ANACLETO SIQUEIRA          RUA RAUL VEIGA                          QUITANDINHA 25635110PETROPOLIS     RJUNIAO UMB DOS CULTOS AFRO BRAS    02111810 000015
10231987175000168817800093673    000033338                    000333380000000000000109                     I0133338     01111800000000140003410000017N311018104700000000000100111180000000000000000000000000000000000000000100005209152758LAZARO OLIVEIRA DE ARAUJO               RUA MULULO DA VEIGA                     NEVES       24425460SAO GONCALO    RJUNIAO UMB DOS CULTOS AFRO BRAS    01111810 000016
10231987175000168817800093673    000033337                    000333370000000000000109                     I0133337     20111800000000500003410000017N311018104700000000000102011180000000000000000000000000000000000000000100071959858149EDUARDO LISBOA GOMES                    RUA: QUADRA 4 MR 8 CASA                 SETOR NORTE 73751040PLANALTINA     GOUNIAO UMB DOS CULTOS AFRO BRAS    20111810 000017
10231987175000168817800093673    000033336                    000333360000000000000109                     I0133336     05111800000000035003410000017N311018104700000000000100511180000000000000000000000000000000000000000100011704321743TATIENE DE SOUZA FRANCA DA SIL          RUA: CAMINHO DA ILHA                    ILHA DE GUAR23020200RIO DE JANEIRO RJUNIAO UMB DOS CULTOS AFRO BRAS    05111810 000018
10231987175000168817800093673    000031353                    000313530000000000000109                     I0231353     20121800000000350003410000017N291018104700000000000102012180000000000000000000000000000000000000000100077526694749FATIMA CRISTINA DA CUNHA PINHE          RUA TRAVESSA SANTO MAXIMO               GUADALUPE   21655780RIO DE JANEIRO RJUNIAO UMB DOS CULTOS AFRO BRAS    20121810 000019
10231987175000168817800093673    000029790                    000297900000000000000109                     I0229790     20121800000000035003410000017N291018104700000000000102012180000000000000000000000000000000000000000100080252540700GEORGET MARIA CONCEICAO DE OLI          ESTRADA: DO PAU DA FOME                 TAQUARA     22723497RIO DE JANEIRO RJUNIAO UMB DOS CULTOS AFRO BRAS    20121810 000020
10231987175000168817800093673    000029378                    000293780000000000000109                     I0229378     20121800000000035003410000017N291018104700000000000102012180000000000000000000000000000000000000000100077526694749FATIMA CRISTINA DA CUNHA PINHE          RUA TRAVESSA SANTO MAXIMO               GUADALUPE   21655780RIO DE JANEIRO RJUNIAO UMB DOS CULTOS AFRO BRAS    20121810 000021
10231987175000168817800093673    000027916                    000279160000000000000109                     I3427916     30111800000000035003410000017N200818104700000000000103011180000000000000000000000000000000000000000100011519708750GERALDINA DA SILVA MENDONCA             AV ALBERTINO LADEIRA                    ENGENHEIRO R26041510NOVA IGUACU    RJUNIAO UMB DOS CULTOS AFRO BRAS    30111810 000022
10231987175000168817800093673    000027874                    000278740000000000000109                     I0227874     30111800000000035003410000017N200818104700000000000103011180000000000000000000000000000000000000000100080252540700GEORGET MARIA CONCEICAO DE OLI          ESTRADA: DO PAU DA FOME                 TAQUARA     22723497RIO DE JANEIRO RJUNIAO UMB DOS CULTOS AFRO BRAS    30111810 000023
10231987175000168817800093673    000027451                    000274510000000000000109                     I0227451     30111800000000035003410000017N200818104700000000000103011180000000000000000000000000000000000000000100077526694749FATIMA CRISTINA DA CUNHA PINHE          RUA TRAVESSA SANTO MAXIMO               GUADALUPE   21655780RIO DE JANEIRO RJUNIAO UMB DOS CULTOS AFRO BRAS    30111810 000024
10231987175000168817800093673    000026497                    000264970000000000000109                     I3426497     30091800000000035003410000017N200818104700000000000103009180000000000000000000000000000000000000000100011519708750GERALDINA DA SILVA MENDONCA             AV ALBERTINO LADEIRA                    ENGENHEIRO R26041510NOVA IGUACU    RJUNIAO UMB DOS CULTOS AFRO BRAS    30091810 000025
10231987175000168817800093673    000026455                    000264550000000000000109                     I0226455     30091800000000035003410000017N200818104700000000000103009180000000000000000000000000000000000000000100080252540700GEORGET MARIA CONCEICAO DE OLI          ESTRADA: DO PAU DA FOME                 TAQUARA     22723497RIO DE JANEIRO RJUNIAO UMB DOS CULTOS AFRO BRAS    30091810 000026
10231987175000168817800093673    000026035                    000260350000000000000109                     I0226035     30091800000000035003410000017N200818104700000000000103009180000000000000000000000000000000000000000100077526694749FATIMA CRISTINA DA CUNHA PINHE          RUA TRAVESSA SANTO MAXIMO               GUADALUPE   21655780RIO DE JANEIRO RJUNIAO UMB DOS CULTOS AFRO BRAS    30091810 000027
10231987175000168817800093673    000025713                    000257130000000000000109                     I0225713     30091800000000035003410000017N200818104700000000000103009180000000000000000000000000000000000000000100066954371734ROBSON MESQUITA                         ESTRADA DO QUAFA                        SANTISSIMO  23098030RIO DE JANEIRO RJUNIAO UMB DOS CULTOS AFRO BRAS    30091810 000028
10231987175000168817800093673    000025569                    000255690000000000000109                     I0225569     30101800000000035003410000017N200818104700000000000103010180000000000000000000000000000000000000000100043397077753JOAO NORATO CEZARIO                     RUA POETA MANOEL BANDEIRA               CABUIS      26540260NILOPOLIS      RJUNIAO UMB DOS CULTOS AFRO BRAS    30101810 000029
10231987175000168817800093673    000025079                    000250790000000000000109                     I3425079     30101800000000035003410000017N200818104700000000000103010180000000000000000000000000000000000000000100011519708750GERALDINA DA SILVA MENDONCA             AV ALBERTINO LADEIRA                    ENGENHEIRO R26041510NOVA IGUACU    RJUNIAO UMB DOS CULTOS AFRO BRAS    30101810 000030
10231987175000168817800093673    000025037                    000250370000000000000109                     I0225037     30101800000000035003410000017N200818104700000000000103010180000000000000000000000000000000000000000100080252540700GEORGET MARIA CONCEICAO DE OLI          ESTRADA: DO PAU DA FOME                 TAQUARA     22723497RIO DE JANEIRO RJUNIAO UMB DOS CULTOS AFRO BRAS    30101810 000031
10231987175000168817800093673    000024968                    000249680000000000000109                     I0224968     30101800000000035003410000017N200818104700000000000103010180000000000000000000000000000000000000000100011704321743TATIENE DE SOUZA FRANCA DA SIL          RUA: CAMINHO DA ILHA                    ILHA DE GUAR23020200RIO DE JANEIRO RJUNIAO UMB DOS CULTOS AFRO BRAS    30101810 000032
10231987175000168817800093673    000024615                    000246150000000000000109                     I0224615     30101800000000035003410000017N200818104700000000000103010180000000000000000000000000000000000000000100077526694749FATIMA CRISTINA DA CUNHA PINHE          RUA TRAVESSA SANTO MAXIMO               GUADALUPE   21655780RIO DE JANEIRO RJUNIAO UMB DOS CULTOS AFRO BRAS    30101810 000033
10231987175000168817800093673    000024293                    000242930000000000000109                     I0224293     30101800000000035003410000017N200818104700000000000103010180000000000000000000000000000000000000000100066954371734ROBSON MESQUITA                         ESTRADA DO QUAFA                        SANTISSIMO  23098030RIO DE JANEIRO RJUNIAO UMB DOS CULTOS AFRO BRAS    30101810 000034
9                                                                                                                                                                                                                                                                                                                                                                                                         000035
