01REMESSA01COBRANCA       916200163100        União Umb dos Cultos Afro Bra341BANCO ITAU SA  260619                                                                                                                                                                                                                                                                                                      000001
10231987175000168916200163100    000049802                    000498020000000000000109                     I0149802     30091900000000040003410000017N260619105700000000000133009190000000000000000000000000000000000000000100048206415491MARIA DE LOURDES SOUZA PEREIRA          RUA MIGUEL ANGELON 252, FUNDOS          CACHAMBI    20785225RIO DE JANEIRO RJUNIAO UMB DOS CULTOS AFRO BRAS    30091915 000002
21300920190000000000080                                                                                                                                                                                                                                                                                                                                                                                   000003
10231987175000168916200163100    000049801                    000498010000000000000109                     I0149801     30081900000000040003410000017N260619105700000000000133008190000000000000000000000000000000000000000100048206415491MARIA DE LOURDES SOUZA PEREIRA          RUA MIGUEL ANGELON 252, FUNDOS          CACHAMBI    20785225RIO DE JANEIRO RJUNIAO UMB DOS CULTOS AFRO BRAS    30081915 000004
21300820190000000000080                                                                                                                                                                                                                                                                                                                                                                                   000005
10231987175000168916200163100    000049800                    000498000000000000000109                     I0149800     30071900000000040003410000017N260619105700000000000133007190000000000000000000000000000000000000000100048206415491MARIA DE LOURDES SOUZA PEREIRA          RUA MIGUEL ANGELON 252, FUNDOS          CACHAMBI    20785225RIO DE JANEIRO RJUNIAO UMB DOS CULTOS AFRO BRAS    30071915 000006
21300720190000000000080                                                                                                                                                                                                                                                                                                                                                                                   000007
10231987175000168916200163100    000049799                    000497990000000000000109                     I0149799     05071900000000350003410000017N260619105700000000001160507190000000000000000000000000000000000000000100009397492705EDLEUSA DOS SANTOS                      RUA SARGENTO JOAO LUIS COIMBRAN 10, FUNDSAO VICENTE 26178360BELFORD ROXO   RJUNIAO UMB DOS CULTOS AFRO BRAS    05071915 000008
21050720190000000000700                                                                                                                                                                                                                                                                                                                                                                                   000009
10231987175000168916200163100    000049798                    000497980000000000000109                     I0149798     10071900000000200003410000017N260619105700000000000661007190000000000000000000000000000000000000000100062642049787ROSALIA FERREIRA DA SILVA               RUA OLIMPIA ESTEVESN 382, CASA          PADRE MIGUEL21775003RIO DE JANEIRO RJUNIAO UMB DOS CULTOS AFRO BRAS    10071915 000010
21100720190000000000400                                                                                                                                                                                                                                                                                                                                                                                   000011
10231987175000168916200163100    000049797                    000497970000000000000109                     I0149797     30091900000000040003410000017N260619105700000000000133009190000000000000000000000000000000000000000100002887184709MAURO DA SILVA                          MARIA HELENA COUTINHO CAPOBIANCO N 202, JARDIM VALEN27600000VALENCA        RJUNIAO UMB DOS CULTOS AFRO BRAS    30091915 000012
21300920190000000000080                                                                                                                                                                                                                                                                                                                                                                                   000013
10231987175000168916200163100    000049796                    000497960000000000000109                     I0149796     30081900000000040003410000017N260619105700000000000133008190000000000000000000000000000000000000000100002887184709MAURO DA SILVA                          MARIA HELENA COUTINHO CAPOBIANCO N 202, JARDIM VALEN27600000VALENCA        RJUNIAO UMB DOS CULTOS AFRO BRAS    30081915 000014
21300820190000000000080                                                                                                                                                                                                                                                                                                                                                                                   000015
10231987175000168916200163100    000049795                    000497950000000000000109                     I0149795     31071900000000040003410000017N260619105700000000000133107190000000000000000000000000000000000000000100002887184709MAURO DA SILVA                          MARIA HELENA COUTINHO CAPOBIANCO N 202, JARDIM VALEN27600000VALENCA        RJUNIAO UMB DOS CULTOS AFRO BRAS    31071915 000016
21310720190000000000080                                                                                                                                                                                                                                                                                                                                                                                   000017
10231987175000168916200163100    000045310                    000453100000000000000109                     I0245310     30061900000000040003410000017N240519105700000000000133006190000000000000000000000000000000000000000100098959913715JENAINA ESTEVAO SOARES                  RUA DAS RAPOSASN 11, TRAVESSA TATUIS    SAMBURA (TAM28926736CABO FRIO      RJUNIAO UMB DOS CULTOS AFRO BRAS    30061915 000018
21300620190000000000080                                                                                                                                                                                                                                                                                                                                                                                   000019
10231987175000168916200163100    000045239                    000452390000000000000109                     I0245239     28061900000000040003410000017N070519105700000000000132806190000000000000000000000000000000000000000100069221545768SERGIO MURILO ALVES DA SILVA            RUA MINHON 296, CASA 1                  DOS FERREIRA26185660BELFORD ROXO   RJUNIAO UMB DOS CULTOS AFRO BRAS    28061915 000020
21280620190000000000080                                                                                                                                                                                                                                                                                                                                                                                   000021
10231987175000168916200163100    000044224                    000442240000000000000109                     I0244224     30061900000000040003410000017N130319105700000000000133006190000000000000000000000000000000000000000100069485135734ROBERTO GONCALVES DO NASCIMENT          RUA JULIANAN 578,                       SANTO ELIAS 26562120MESQUITA       RJUNIAO UMB DOS CULTOS AFRO BRAS    30061915 000022
21300620190000000000080                                                                                                                                                                                                                                                                                                                                                                                   000023
10231987175000168916200163100    000043749                    000437490000000000000109                     I0243749     30061900000000040003410000017N130319105700000000000133006190000000000000000000000000000000000000000100054504430720ISBELA BARBOSA LIMA DA SILVA            RUA SOUSA BARROSN 106, A FUNDOS         ENGENHO NOVO20961150RIO DE JANEIRO RJUNIAO UMB DOS CULTOS AFRO BRAS    30061915 000024
21300620190000000000080                                                                                                                                                                                                                                                                                                                                                                                   000025
10231987175000168916200163100    000043195                    000431950000000000000109                     I0243195     30061900000000040003410000017N130319105700000000000133006190000000000000000000000000000000000000000100036206071700MARIA ISABEL RAMOS                      RUA MARINAN 428,                        BENTO RIBEIR21331070RIO DE JANEIRO RJUNIAO UMB DOS CULTOS AFRO BRAS    30061915 000026
21300620190000000000080                                                                                                                                                                                                                                                                                                                                                                                   000027
10231987175000168916200163100    000042578                    000425780000000000000109                     I0242578     30051900000000040003410000017N130319105700000000000133005190000000000000000000000000000000000000000100069485135734ROBERTO GONCALVES DO NASCIMENT          RUA JULIANAN 578,                       SANTO ELIAS 26562120MESQUITA       RJUNIAO UMB DOS CULTOS AFRO BRAS    30051915 000028
21300520190000000000080                                                                                                                                                                                                                                                                                                                                                                                   000029
10231987175000168916200163100    000042133                    000421330000000000000109                     I3442133     30051900000000040003410000017N130319105700000000000133005190000000000000000000000000000000000000000100095949925734RITA DE CASSIA COCCARO                  RUA JUCARIN 563,                        IRAJA       21371320RIO DE JANEIRO RJUNIAO UMB DOS CULTOS AFRO BRAS    30051915 000030
21300520190000000000080                                                                                                                                                                                                                                                                                                                                                                                   000031
10231987175000168916200163100    000042105                    000421050000000000000109                     I0242105     30051900000000040003410000017N130319105700000000000133005190000000000000000000000000000000000000000100054504430720ISBELA BARBOSA LIMA DA SILVA            RUA SOUSA BARROSN 106, A FUNDOS         ENGENHO NOVO20961150RIO DE JANEIRO RJUNIAO UMB DOS CULTOS AFRO BRAS    30051915 000032
21300520190000000000080                                                                                                                                                                                                                                                                                                                                                                                   000033
10231987175000168916200163100    000041555                    000415550000000000000109                     I0241555     30051900000000040003410000017N130319105700000000000133005190000000000000000000000000000000000000000100036206071700MARIA ISABEL RAMOS                      RUA MARINAN 428,                        BENTO RIBEIR21331070RIO DE JANEIRO RJUNIAO UMB DOS CULTOS AFRO BRAS    30051915 000034
21300520190000000000080                                                                                                                                                                                                                                                                                                                                                                                   000035
10231987175000168916200163100    000039924                    000399240000000000000109                     I0239924     30041900000000040003410000017N120319105700000000000133004190000000000000000000000000000000000000000100036206071700MARIA ISABEL RAMOS                      RUA MARINAN 428,                        BENTO RIBEIR21331070RIO DE JANEIRO RJUNIAO UMB DOS CULTOS AFRO BRAS    30041915 000036
21300420190000000000080                                                                                                                                                                                                                                                                                                                                                                                   000037
9                                                                                                                                                                                                                                                                                                                                                                                                         000038
