01REMESSA01COBRANCA       817800093673        Uni√£o Umb dos Cultos Afro Bra341BANCO ITAU SA  201218                                                                                                                                                                                                                                                                                                      000001
10231987175000168817800093673    000033495                    000334950000000000000109                     I0233495     20121800000000040003410000017N291118104700000000000102012180000000000000000000000000000000000000000100008852284729DILMA DE OLIVEIRA CORDEIRO              RUA: VEREADOR OSCAR DIAS OLIVEIRA       CHACRINHA   25065160DUQUE DE CAXIASRJUNIAO UMB DOS CULTOS AFRO BRAS    20121810 000002
10231987175000168817800093673    000033406                    000334060000000000000109                     I0233406     15111800000000035003410000017N121118104700000000000101511180000000000000000000000000000000000000000100057231737749ELIZABETE CARVALHO COSTA                RUA EXPEDICIONARIO SIMAO FERNANDES      COLUMBANDE  24451700SAO GONCALO    RJUNIAO UMB DOS CULTOS AFRO BRAS    15111810 000003
10231987175000168817800093673    000033405                    000334050000000000000109                     I0233405     15111800000000070003410000017N121118104700000000000101511180000000000000000000000000000000000000000100057231737749ELIZABETE CARVALHO COSTA                RUA EXPEDICIONARIO SIMAO FERNANDES      COLUMBANDE  24451700SAO GONCALO    RJUNIAO UMB DOS CULTOS AFRO BRAS    15111810 000004
10231987175000168817800093673    000033376                    000333760000000000000109                     I0233376     15111800000000300003410000017N071118104700000000000101511180000000000000000000000000000000000000000100004275325745MAIKE OLIVEIRA DA COSTA                 TRAVESSA MARTA DA ROCHA                 ABOLICAO    20755030RIO DE JANEIRO RJUNIAO UMB DOS CULTOS AFRO BRAS    15111810 000005
10231987175000168817800093673    000033360                    000333600000000000000109                     I0233360     05111800000000140003410000017N021118104700000000000100511180000000000000000000000000000000000000000100005209152758LAZARO OLIVEIRA DE ARAUJO               RUA MULULO DA VEIGA                     NEVES       24425460SAO GONCALO    RJUNIAO UMB DOS CULTOS AFRO BRAS    05111810 000006
10231987175000168817800093673    000033359                    000333590000000000000109                     I0233359     10111800000000350003410000017N011118104700000000000101011180000000000000000000000000000000000000000100003598384726ROSANE QUIRINO DA SILVA                 RUA MANUEL RODRIGUES FONTINHA           NOVA CIDADE 26535270NILOPOLIS      RJUNIAO UMB DOS CULTOS AFRO BRAS    10111810 000007
10231987175000168817800093673    000033353                    000333530000000000000109                     I0233353     09111800000000350003410000017N311018104700000000000100911180000000000000000000000000000000000000000100009145082707ELAINE CRISTINA DE MORAES               RUA GENTIL DO OURO                      AGUIAR TORRE23063340INHOAIBA       RJUNIAO UMB DOS CULTOS AFRO BRAS    09111810 000008
10231987175000168817800093673    000033343                    000333430000000000000109                     I0233343     10111800000000598393410000017N311018104700000000000101011180000000000000000000000000000000000000000100078566738772MARINA SOARES DA SILVA                  RUA: JOAO DANIEL                        BENTO RIBEIR21550480RIO DE JANEIRO RJUNIAO UMB DOS CULTOS AFRO BRAS    10111810 000009
10231987175000168817800093673    000033337                    000333370000000000000109                     I0233337     20111800000000500003410000017N311018104700000000000102011180000000000000000000000000000000000000000100071959858149EDUARDO LISBOA GOMES                    RUA: QUADRA 4 MR 8 CASA                 SETOR NORTE 73751040PLANALTINA     GOUNIAO UMB DOS CULTOS AFRO BRAS    20111810 000010
10231987175000168817800093673    000033335                    000333350000000000000109                     I0233335     05111800000000035003410000017N301018104700000000000100511180000000000000000000000000000000000000000100000907912745JULIO CESAR FRANCA CORREA               RUA ITAPERUNA                           VILA DE CAVA26056260NOVA IGUACU    RJUNIAO UMB DOS CULTOS AFRO BRAS    05111810 000011
10231987175000168817800093673    000033330                    000333300000000000000109                     I0233330     12111800000000245003410000017N301018104700000000000101211180000000000000000000000000000000000000000100059135085720CELIA MARINHO VIEIRA                    RUA MARICOABO                           PEDRA DE GUA23028290RIO DE JANEIRO RJUNIAO UMB DOS CULTOS AFRO BRAS    12111810 000012
10231987175000168817800093673    000033321                    000333210000000000000109                     I0233321     20111800000000700003410000017N301018104700000000000102011180000000000000000000000000000000000000000100011418098779EDUARDO DA SILVA CARDOZO                AVENIDA: MARECHAL FONTENELLE            CAMPO DOS AF21740001RIO DE JANEIRO RJUNIAO UMB DOS CULTOS AFRO BRAS    20111810 000013
10231987175000168817800093673    000033320                    000333200000000000000109                     I0233320     20111800000000700003410000017N301018104700000000000102011180000000000000000000000000000000000000000100011570617708DANIEL DA SILVA PEREIRA                 O MESMO                                 O MESMO     27240360VOLTA REDONDA  RJUNIAO UMB DOS CULTOS AFRO BRAS    20111810 000014
10231987175000168817800093673    000032515                    000325150000000000000109                     I0232515     20121800000000350003410000017N291018104700000000000102012180000000000000000000000000000000000000000100003124148703MARCELINA DA SILVA COSTA                RUA ALARICO DE SOUZA                    ATALAIA     24315000NITEROI        RJUNIAO UMB DOS CULTOS AFRO BRAS    20121810 000015
10231987175000168817800093673    000032246                    000322460000000000000109                     I0232246     20121800000000350003410000017N291018104700000000000102012180000000000000000000000000000000000000000100001898047774ELISABETH SANTOS PEREIRA                RUA: C                                  FRAGOSO     25935302MAGE           RJUNIAO UMB DOS CULTOS AFRO BRAS    20121810 000016
10231987175000168817800093673    000032212                    000322120000000000000109                     I0232212     20121800000000350003410000017N291018104700000000000102012180000000000000000000000000000000000000000100002604683717MARIA DO CARMO LOPES                    CAMINHO DA CHACRINHA                    PRACA SECA -22733200RIO DE JANEIRO RJUNIAO UMB DOS CULTOS AFRO BRAS    20121810 000017
10231987175000168817800093673    000031755                    000317550000000000000109                     I0231755     20121800000000350003410000017N291018104700000000000102012180000000000000000000000000000000000000000100090096029749VANIA FARIA DE VILHENA TORRES           ESTRADA DA COVANCA                      TANQUE      22735020RIO DE JANEIRO RJUNIAO UMB DOS CULTOS AFRO BRAS    20121810 000018
10231987175000168817800093673    000031697                    000316970000000000000109                     I0231697     20121800000000350003410000017N291018104700000000000102012180000000000000000000000000000000000000000100034122877768JANE FERNANDES IZIDORO DA SILV          RUA FLORIANOPOLIS                       VILA VALQUEI21321050RIO DE JANEIRO RJUNIAO UMB DOS CULTOS AFRO BRAS    20121810 000019
10231987175000168817800093673    000031680                    000316800000000000000109                     I0231680     20121800000000350003410000017N291018104700000000000102012180000000000000000000000000000000000000000100000680271767FRANCISCO DE BARROS SILVA               ESTRADA XEREM                           XEREM       25250623DUQUE DE CAXIASRJUNIAO UMB DOS CULTOS AFRO BRAS    20121810 000020
10231987175000168817800093673    000031443                    000314430000000000000109                     I0231443     20121800000000350003410000017N291018104700000000000102012180000000000000000000000000000000000000000100092336000768DIVA PINTO ROMUALDO                     RUA PARAISO                             JARDIM CABUC26291446NOVA IGUACU    RJUNIAO UMB DOS CULTOS AFRO BRAS    20121810 000021
10231987175000168817800093673    000031378                    000313780000000000000109                     I0231378     20121800000000400003410000017N291018104700000000000102012180000000000000000000000000000000000000000100002856188737SIMONE DE MATTOS MARTINS MENDO          RUA VAN ERVEM                           CATUMBI     20211320RIO DE JANEIRO RJUNIAO UMB DOS CULTOS AFRO BRAS    20121810 000022
10231987175000168817800093673    000031091                    000310910000000000000109                     I0231091     20121800000000350003410000017N291018104700000000000102012180000000000000000000000000000000000000000100005316045785MERI CONCEICAO FRANCA MANO              RUA LOURENCO INACIO                     COLUMBANDE  24744610SAO GONCALO    RJUNIAO UMB DOS CULTOS AFRO BRAS    20121810 000023
10231987175000168817800093673    000031070                    000310700000000000000109                     I0231070     20121800000000350003410000017N291018104700000000000102012180000000000000000000000000000000000000000100089682300487STIVES FERREIRA DA SILVA                RUA OSVALDO EVANGELISTA DOS SANTOS      BANGU       21864530RIO DE JANEIRO RJUNIAO UMB DOS CULTOS AFRO BRAS    20121810 000024
10231987175000168817800093673    000031049                    000310490000000000000109                     I0231049     20121800000000350003410000017N291018104700000000000102012180000000000000000000000000000000000000000100001484519779ADRIANA SANTOS DA SILVA                 RUA URBANO DUARTE                       VILA ROSARIO25042300DUQUE DE CAXIASRJUNIAO UMB DOS CULTOS AFRO BRAS    20121810 000025
10231987175000168817800093673    000030840                    000308400000000000000109                     I0230840     20121800000000350003410000017N291018104700000000000102012180000000000000000000000000000000000000000100093440707768EDSON MONTEIRO DE ALMEIDA               RUA JOAQUIM TEIXEIRA                    OSVALDO CRUZ21351260RIO DE JANEIRO RJUNIAO UMB DOS CULTOS AFRO BRAS    20121810 000026
10231987175000168817800093673    000030783                    000307830000000000000109                     I0230783     20121800000000350003410000017N291018104700000000000102012180000000000000000000000000000000000000000100083140085753LEA MARIA DE SANTANNA                   RUA CALIGULA                            JARDIM GLAUC26193411BELFORD ROXO   RJUNIAO UMB DOS CULTOS AFRO BRAS    20121810 000027
10231987175000168817800093673    000030674                    000306740000000000000109                     I0230674     20121800000000350003410000017N291018104700000000000102012180000000000000000000000000000000000000000100003750653771ANA VALERIA OLIVEIRA DA SILVA           RUA: JURUCE                             COLEGIO     21545170RIO DE JANEIRO RJUNIAO UMB DOS CULTOS AFRO BRAS    20121810 000028
10231987175000168817800093673    000030606                    000306060000000000000109                     I0230606     20121800000000400003410000017N291018104700000000000102012180000000000000000000000000000000000000000100060192305700ADALCINA MARIA CARDOSO                  RUA BRASILIA                            FARRULA     25550720SAO JOAO DE MERRJUNIAO UMB DOS CULTOS AFRO BRAS    20121810 000029
10231987175000168817800093673    000030455                    000304550000000000000109                     I0230455     20121800000000350003410000017N291018104700000000000102012180000000000000000000000000000000000000000100072613394749SOLANGE SANT ANNA GONZAGA               RUA JOAO BATISTA DA CRUZ SALDANHA       CENTRO      26535230NILOPOLIS      RJUNIAO UMB DOS CULTOS AFRO BRAS    20121810 000030
10231987175000168817800093673    000030324                    000303240000000000000109                     I0230324     20121800000000040003410000017N291018104700000000000102012180000000000000000000000000000000000000000100085737437787NIVALDA PIRES RUFINO                    RUA: MARIO CARPENTER                    ABOLICAO    20755065RIO DE JANEIRO RJUNIAO UMB DOS CULTOS AFRO BRAS    20121810 000031
10231987175000168817800093673    000030128                    000301280000000000000109                     I0230128     20121800000000035003410000017N291018104700000000000102012180000000000000000000000000000000000000000100001857739744JORGE DE MORAES ESTANISLAU              RUA TITANIC                             REALENGO    21735620RIO DE JANEIRO RJUNIAO UMB DOS CULTOS AFRO BRAS    20121810 000032
10231987175000168817800093673    000029814                    000298140000000000000109                     I0229814     20121800000000035003410000017N291018104700000000000102012180000000000000000000000000000000000000000100064561968768EUCLIDALINA MARIA DOS SANTOS V          RUA CAPANEMA                            PARADA MORAB25265080DUQUE DE CAXIASRJUNIAO UMB DOS CULTOS AFRO BRAS    20121810 000033
10231987175000168817800093673    000029780                    000297800000000000000109                     I0229780     20121800000000035003410000017N291018104700000000000102012180000000000000000000000000000000000000000100001898047774ELISABETH SANTOS PEREIRA                RUA: C                                  FRAGOSO     25935302MAGE           RJUNIAO UMB DOS CULTOS AFRO BRAS    20121810 000034
10231987175000168817800093673    000029631                    000296310000000000000109                     I0229631     20121800000000035003410000017N291018104700000000000102012180000000000000000000000000000000000000000100067206166768GREICE DE SOUZA MILHAR DA SILV          RUA: BARAO SAO FRANCISCO                VILA ISABEL 20541372RIO DE JANEIRO RJUNIAO UMB DOS CULTOS AFRO BRAS    20121810 000035
10231987175000168817800093673    000029549                    000295490000000000000109                     I0229549     20121800000000035003410000017N291018104700000000000102012180000000000000000000000000000000000000000100060856467715JANAINA COELHO MELO                     RUA SANTO APIANO                        IRAJA       21361420RIO DE JANEIRO RJUNIAO UMB DOS CULTOS AFRO BRAS    20121810 000036
10231987175000168817800093673    000029302                    000293020000000000000109                     I0229302     20121800000000035003410000017N291018104700000000000102012180000000000000000000000000000000000000000100001050327780MARIA LUCIA DE FATIMA FERREIRA          RUA BUDAPESTE                           BANCARIOS - 21911300RIO DE JANEIRO RJUNIAO UMB DOS CULTOS AFRO BRAS    20121810 000037
10231987175000168817800093673    000029270                    000292700000000000000109                     I0229270     20121800000000035003410000017N291018104700000000000102012180000000000000000000000000000000000000000100001484519779ADRIANA SANTOS DA SILVA                 RUA URBANO DUARTE                       VILA ROSARIO25042300DUQUE DE CAXIASRJUNIAO UMB DOS CULTOS AFRO BRAS    20121810 000038
10231987175000168817800093673    000028996                    000289960000000000000109                     I0228996     12111800000000210003410000017N251018104700000000000101211180000000000000000000000000000000000000000100005137259705CRISTINA DE OLIVEIRA DA SILVA           AVENIDA CAMPO MOURAO                    JARDIM MARAV23031080GUARATIBA      RJUNIAO UMB DOS CULTOS AFRO BRAS    12111810 000039
10231987175000168817800093673    000028995                    000289950000000000000109                     I0228995     09111800000000500003410000017N251018104700000000000100911180000000000000000000000000000000000000000100065751400763JOSE MARIA MOREIRA FORTUNATO            ESTRADA: DORANDIA - IPIABAS             VILA PEGAS  27170000BARRA DO PIRAI RJUNIAO UMB DOS CULTOS AFRO BRAS    09111810 000040
10231987175000168817800093673    000028994                    000289940000000000000109                     I0228994     15111800000000035003410000017N251018104700000000000101511180000000000000000000000000000000000000000100004728238768MARIA JOSE ILARIO MANGUEIRA             ESTRADA DA AGUA BRANCA                  REALENGO    21730000RIO DE JANEIRO RJUNIAO UMB DOS CULTOS AFRO BRAS    15111810 000041
10231987175000168817800093673    000028973                    000289730000000000000109                     I0228973     09111800000000400003410000017N211018104700000000000100911180000000000000000000000000000000000000000100087969998704ROBERTO LUIZ MEDEIROS                   RUA OLIMPIO                             HELIOPOLIS  26125215BELFORD ROXO   RJUNIAO UMB DOS CULTOS AFRO BRAS    09111810 000042
10231987175000168817800093673    000028972                    000289720000000000000109                     I0228972     12111800000000450003410000017N211018104700000000000101211180000000000000000000000000000000000000000100004524099778CRISTIANE VIEIRA DAS CHAGAS             AVENIDA SANTA CRUZ                      BANGU       21830000RIO DE JANEIRO RJUNIAO UMB DOS CULTOS AFRO BRAS    12111810 000043
10231987175000168817800093673    000028969                    000289690000000000000109                     I0228969     12111800000000400003410000017N211018104700000000000101211180000000000000000000000000000000000000000100001343022738LUCIANA FIGUEIRO COUTINHO DA S          RUA: MANHUACU                           VARGEM GRAND22785600RIO DE JANEIRO RJUNIAO UMB DOS CULTOS AFRO BRAS    12111810 000044
10231987175000168817800093673    000028966                    000289660000000000000109                     I0228966     31101800000000450003410000017N201018104700000000000103110180000000000000000000000000000000000000000100033075514772MARIA ELISA DOS SANTOS                  RUA PADRE TELEMACO                      CASCADURA   21311050RIO DE JANEIRO RJUNIAO UMB DOS CULTOS AFRO BRAS    31101810 000045
10231987175000168817800093673    000028962                    000289620000000000000109                     I0228962     05111800000000700003410000017N191018104700000000000100511180000000000000000000000000000000000000000100073932590791SEVERINO FELINTO DOS SANTOS             RUA FELIPE CAMARAO                      MARACANA    20550165RIO DE JANEIRO RJUNIAO UMB DOS CULTOS AFRO BRAS    05111810 000046
10231987175000168817800093673    000028950                    000289500000000000000109                     I0228950     30101800000000350003410000017N161018104700000000000103010180000000000000000000000000000000000000000100060471859753MARLENE IBRAIN                          RUA: DOUTOR ALVARO DA PAIXAO JR         PARQUE AEROP27971180MACAE          RJUNIAO UMB DOS CULTOS AFRO BRAS    30101810 000047
10231987175000168817800093673    000028948                    000289480000000000000109                     I0228948     15111800000000200003410000017N161018104700000000000101511180000000000000000000000000000000000000000100007332496712ELENICE ROSA DA SILVA                   RUA SEPETIBA                            PADRE JOSE B25565250NOVA IGUACU    RJUNIAO UMB DOS CULTOS AFRO BRAS    15111810 000048
10231987175000168817800093673    000028947                    000289470000000000000109                     I0228947     26111800000000420003410000017N161018104700000000000102611180000000000000000000000000000000000000000100009237411782RODRIGO NOGUEIRA MARTINS                RUA DOUTOR AUGUSTO FIGUEIREDO           BANGU       21840600RIO DE JANEIRO RJUNIAO UMB DOS CULTOS AFRO BRAS    26111810 000049
10231987175000168817800093673    000028946                    000289460000000000000109                     I0228946     05111800000000400003410000017N161018104700000000000100511180000000000000000000000000000000000000000100001955399158GIOVANI CORREIA DOS SANTOS              RUA: JOSE CARLOS SOARES DA SILVA        SANTA JULIA 14807427ARARAQUARA     SPUNIAO UMB DOS CULTOS AFRO BRAS    05111810 000050
10231987175000168817800093673    000028944                    000289440000000000000109                     I0228944     05111800000000100003410000017N151018104700000000000100511180000000000000000000000000000000000000000100043641717787YWONE AMELIA VAZ COSTA                  RUA CASTRO MENEZES                      BRAZ DE PINA21215250RIO DE JANEIRO RJUNIAO UMB DOS CULTOS AFRO BRAS    05111810 000051
10231987175000168817800093673    000028942                    000289420000000000000109                     I0228942     20111800000000400003410000017N141018104700000000000102011180000000000000000000000000000000000000000100043641717787YWONE AMELIA VAZ COSTA                  RUA CASTRO MENEZES                      BRAZ DE PINA21215250RIO DE JANEIRO RJUNIAO UMB DOS CULTOS AFRO BRAS    20111810 000052
10231987175000168817800093673    000028940                    000289400000000000000109                     I0228940     15111800000000400003410000017N141018104700000000000101511180000000000000000000000000000000000000000100014474105729BIANCA OHANNA MOURA DE CARVALH          RUA AMAZONAS                            PAULICEIA   25080055DUQUE DE CAXIASRJUNIAO UMB DOS CULTOS AFRO BRAS    15111810 000053
10231987175000168817800093673    000028937                    000289370000000000000109                     I0228937     27111800000000400003410000017N131018104700000000000102711180000000000000000000000000000000000000000100005721435755ALEX ARAUJO BRAGA                       RUA MARTE                               MESQUITA    26240290NOVA IGUACU    RJUNIAO UMB DOS CULTOS AFRO BRAS    27111810 000054
10231987175000168817800093673    000028934                    000289340000000000000109                     I0228934     30101800000000100003410000017N121018104700000000000103010180000000000000000000000000000000000000000100018338577715MARILDA ALVES DE ALMEIDA                RUA BORBOREMA                           MADUREIRA   21360150RIO DE JANEIRO RJUNIAO UMB DOS CULTOS AFRO BRAS    30101810 000055
10231987175000168817800093673    000028932                    000289320000000000000109                     I0228932     05111800000000350003410000017N121018104700000000000100511180000000000000000000000000000000000000000100069881278791TANIA MARCIA DA CAMARA ESTEVES          RUA ADEMIR RODRIGUES DA SILVEIRA        REMANSO VERD24323063PENDOTIBA      RJUNIAO UMB DOS CULTOS AFRO BRAS    05111810 000056
10231987175000168817800093673    000028919                    000289190000000000000109                     I0228919     30101800000000175003410000017N111018104700000000000103010180000000000000000000000000000000000000000100005137259705CRISTINA DE OLIVEIRA DA SILVA           AVENIDA CAMPO MOURAO                    JARDIM MARAV23031080GUARATIBA      RJUNIAO UMB DOS CULTOS AFRO BRAS    30101810 000057
10231987175000168817800093673    000028912                    000289120000000000000109                     I0228912     30101800000000380003410000017N091018104700000000000103010180000000000000000000000000000000000000000100090789407787ANA CLAUDIA DOS SANTOS TITO             RUA ONZE                                PIABETA     25930725RIO DE JANEIRO RJUNIAO UMB DOS CULTOS AFRO BRAS    30101810 000058
10231987175000168817800093673    000028900                    000289000000000000000109                     I0228900     30101800000000700003410000017N081018104700000000000103010180000000000000000000000000000000000000000100007336130712MIRIAN DOS SANTOS ALMEIDA               RUA EDGAR WERNEK                        JACAREPAGUA 22763011RIO DE JANEIRO RJUNIAO UMB DOS CULTOS AFRO BRAS    30101810 000059
10231987175000168817800093673    000028887                    000288870000000000000109                     I0228887     30101800000000500003410000017N041018104700000000000103010180000000000000000000000000000000000000000100000864126557IGOR ANDRADE TANIGUSHI                  RUA GERSON MARQUES DA SILVA             PAO REDONDO 05798100SAO PAULO      SPUNIAO UMB DOS CULTOS AFRO BRAS    30101810 000060
10231987175000168817800093673    000028886                    000288860000000000000109                     I0228886     30101800000000700003410000017N041018104700000000000103010180000000000000000000000000000000000000000100001450836755ANDREIA DE MELO BRAGA MOURA             RUA LEONARDO JOSE ANTUNES               INOA        24943255MARICA         RJUNIAO UMB DOS CULTOS AFRO BRAS    30101810 000061
10231987175000168817800093673    000028882                    000288820000000000000109                     I0228882     05111800000000140003410000017N041018104700000000000100511180000000000000000000000000000000000000000100003351716729WAGNER CONCEICAO DO NASCIMENTO          RUA CRISANTEMOS                         HITERLAND -S26171430BELFORD ROXO   RJUNIAO UMB DOS CULTOS AFRO BRAS    05111810 000062
10231987175000168817800093673    000028858                    000288580000000000000109                     I0228858     30101800000000380003410000017N031018104700000000000103010180000000000000000000000000000000000000000100002734506700CARLOS HENRIQUE ARAUJO                  RUA: MARQUES CANARIO                    NOSSA SENHOR26520770NILOPOLIS      RJUNIAO UMB DOS CULTOS AFRO BRAS    30101810 000063
10231987175000168817800093673    000028825                    000288250000000000000109                     I0228825     31101800000000040003410000017N011018104700000000000103110180000000000000000000000000000000000000000100088676889791JANE LUCIA LESSA SILVA                  RUA OLIVEIRA JUNQUEIRA                  BENTO RIBEIR21331170RIO DE JANEIRO RJUNIAO UMB DOS CULTOS AFRO BRAS    31101810 000064
10231987175000168817800093673    000028588                    000285880000000000000109                     I0228588     30101800000000035003410000017N270818104700000000000103010180000000000000000000000000000000000000000100008283050800JOSE RICARDO DE MOURA                   RUA TENENTE SILVINO                     CERAMICA    26030126NOVA IGUACU    RJUNIAO UMB DOS CULTOS AFRO BRAS    30101810 000065
10231987175000168817800093673    000028576                    000285760000000000000109                     I0228576     30101800000000035003410000017N230818104700000000000103010180000000000000000000000000000000000000000100001251801790AMARO LYRA DOS SANTOS FILHO             RUA DOUTOR ANTONIO MARTINS              TAQUARA     22723650RIO DE JANEIRO RJUNIAO UMB DOS CULTOS AFRO BRAS    30101810 000066
10231987175000168817800093673    000028570                    000285700000000000000109                     I0228570     30101800000000035003410000017N230818104700000000000103010180000000000000000000000000000000000000000100012663149705DIEGO PARREIRA DE ARAUJO                RUA ERMENEGILDO DE SOUZA                JARDIM SAO J23890103SEROPEDICA     RJUNIAO UMB DOS CULTOS AFRO BRAS    30101810 000067
10231987175000168817800093673    000028567                    000285670000000000000109                     I0228567     30101800000000035003410000017N230818104700000000000103010180000000000000000000000000000000000000000100011110357761THYAGO ALBERT MORAES CYRILLO S          RUA VINTE E SEIS                        JARDIM DA PA25926765RIO DE JANEIRO RJUNIAO UMB DOS CULTOS AFRO BRAS    30101810 000068
10231987175000168817800093673    000028556                    000285560000000000000109                     I0228556     30101800000000035003410000017N230818104700000000000103010180000000000000000000000000000000000000000100001645493741MARIA FERRAZ DO NASCIMENTO              RUA A JOAO IZAQUE                       BELVEDERE   26032835BARRA DO PIRAI RJUNIAO UMB DOS CULTOS AFRO BRAS    30101810 000069
10231987175000168817800093673    000028547                    000285470000000000000109                     I0228547     30101800000000035003410000017N230818104700000000000103010180000000000000000000000000000000000000000100007346014766LUCIANO FREIRE DE FRANCA                AV. AMARO CAVALCANTE                    ENGENHO DE D20735042RIO DE JANEIRO RJUNIAO UMB DOS CULTOS AFRO BRAS    30101810 000070
10231987175000168817800093673    000028537                    000285370000000000000109                     I0228537     30101800000000035003410000017N230818104700000000000103010180000000000000000000000000000000000000000100000000000000MARINEIDE SERGIO CABRAL                 RUA INAMBA                              POSSE       26021160NOVA IGUACU    RJUNIAO UMB DOS CULTOS AFRO BRAS    30101810 000071
10231987175000168817800093673    000028534                    000285340000000000000109                     I0228534     30101800000000035003410000017N230818104700000000000103010180000000000000000000000000000000000000000100000000000656GINO ZACARIAS DE JESUS                  RUA NOVE                                VILA GENI   23830010ITAGUAI        RJUNIAO UMB DOS CULTOS AFRO BRAS    30101810 000072
10231987175000168817800093673    000028531                    000285310000000000000109                     I0228531     30101800000000035003410000017N230818104700000000000103010180000000000000000000000000000000000000000100010949478733AUCELIA MARIA DE SOUZA LIMA             RUA JOSE FRANCISCO DE SOUZA PORTO, 229  ARNALDO EUGE23016010RIO DE JANEIRO RJUNIAO UMB DOS CULTOS AFRO BRAS    30101810 000073
10231987175000168817800093673    000028526                    000285260000000000000109                     I0228526     30101800000000035003410000017N230818104700000000000103010180000000000000000000000000000000000000000100003863156714VILMA TEREZA DE SOUZA AMARAL            RUA GUATEMALENSE                        JARDIM MERIT25555700SAO JOAO DE MERRJUNIAO UMB DOS CULTOS AFRO BRAS    30101810 000074
10231987175000168817800093673    000028523                    000285230000000000000109                     I0228523     30101800000000035003410000017N230818104700000000000103010180000000000000000000000000000000000000000100078759676787VANDA LUCIA LIMA DA SILVA               RUA ALMIRANTE JUSTINO PROENCA           CAMPO GRANDE23090310RIO DE JANEIRO RJUNIAO UMB DOS CULTOS AFRO BRAS    30101810 000075
10231987175000168817800093673    000028520                    000285200000000000000109                     I0228520     30101800000000035003410000017N230818104700000000000103010180000000000000000000000000000000000000000100035914661749CELSO NERY GALDARD                      RUA: BENJAMIN DA ROCHA JUNIOR           PARQUE FLUMI25045010DUQUE DE CAXIASRJUNIAO UMB DOS CULTOS AFRO BRAS    30101810 000076
10231987175000168817800093673    000028511                    000285110000000000000109                     I0228511     30101800000000040003410000017N220818104700000000000103010180000000000000000000000000000000000000000100003005342727MAURICIO ESTORQUE                       RUA SERDIVAO JOSE NICOLAY               JARDIM FEO  25965430TERESOPOLIS    RJUNIAO UMB DOS CULTOS AFRO BRAS    30101810 000077
10231987175000168817800093673    000028506                    000285060000000000000109                     I0228506     30101800000000035003410000017N220818104700000000000103010180000000000000000000000000000000000000000100075164779749IVANILDO FURTADO DA SILVA               RUA: LUIZ DE CASTRO                     PILARES     21760732RIO DE JANEIRO RJUNIAO UMB DOS CULTOS AFRO BRAS    30101810 000078
10231987175000168817800093673    000028447                    000284470000000000000109                     I0228447     30111800000000040003410000017N200818104700000000000103011180000000000000000000000000000000000000000100085737437787NIVALDA PIRES RUFINO                    RUA: MARIO CARPENTER                    ABOLICAO    20755065RIO DE JANEIRO RJUNIAO UMB DOS CULTOS AFRO BRAS    30111810 000079
10231987175000168817800093673    000028233                    000282330000000000000109                     I0228233     30111800000000035003410000017N200818104700000000000103011180000000000000000000000000000000000000000100001857739744JORGE DE MORAES ESTANISLAU              RUA TITANIC                             REALENGO    21735620RIO DE JANEIRO RJUNIAO UMB DOS CULTOS AFRO BRAS    30111810 000080
10231987175000168817800093673    000027901                    000279010000000000000109                     I0227901     30111800000000035003410000017N200818104700000000000103011180000000000000000000000000000000000000000100064561968768EUCLIDALINA MARIA DOS SANTOS V          RUA CAPANEMA                            PARADA MORAB25265080DUQUE DE CAXIASRJUNIAO UMB DOS CULTOS AFRO BRAS    30111810 000081
10231987175000168817800093673    000027706                    000277060000000000000109                     I0227706     30111800000000035003410000017N200818104700000000000103011180000000000000000000000000000000000000000100067206166768GREICE DE SOUZA MILHAR DA SILV          RUA: BARAO SAO FRANCISCO                VILA ISABEL 20541372RIO DE JANEIRO RJUNIAO UMB DOS CULTOS AFRO BRAS    30111810 000082
10231987175000168817800093673    000027625                    000276250000000000000109                     I0227625     30111800000000035003410000017N200818104700000000000103011180000000000000000000000000000000000000000100060856467715JANAINA COELHO MELO                     RUA SANTO APIANO                        IRAJA       21361420RIO DE JANEIRO RJUNIAO UMB DOS CULTOS AFRO BRAS    30111810 000083
10231987175000168817800093673    000027520                    000275200000000000000109                     I0227520     30111800000000035003410000017N200818104700000000000103011180000000000000000000000000000000000000000100000000000000GILMAR GAMMARO CARVALHO                 RUA GENERAL SEARA                       CAROLINA    25060010DUQUE DE CAXIASRJUNIAO UMB DOS CULTOS AFRO BRAS    30111810 000084
10231987175000168817800093673    000027430                    000274300000000000000109                     I0227430     30111800000000035003410000017N200818104700000000000103011180000000000000000000000000000000000000000100011208480758MARIA ANTONIA KIFFER CORREA             AVENIDA MARECHAL HERMES                 VILA SAO LUI25065115DUQUE DE CAXIASRJUNIAO UMB DOS CULTOS AFRO BRAS    30111810 000085
10231987175000168817800093673    000027376                    000273760000000000000109                     I0227376     30111800000000035003410000017N200818104700000000000103011180000000000000000000000000000000000000000100001050327780MARIA LUCIA DE FATIMA FERREIRA          RUA BUDAPESTE                           BANCARIOS - 21911300RIO DE JANEIRO RJUNIAO UMB DOS CULTOS AFRO BRAS    30111810 000086
10231987175000168817800093673    000027352                    000273520000000000000109                     I0227352     30111800000000035003410000017N200818104700000000000103011180000000000000000000000000000000000000000100089682300487STIVES FERREIRA DA SILVA                RUA OSVALDO EVANGELISTA DOS SANTOS      BANGU       21864530RIO DE JANEIRO RJUNIAO UMB DOS CULTOS AFRO BRAS    30111810 000087
10231987175000168817800093673    000027339                    000273390000000000000109                     I0227339     30111800000000035003410000017N200818104700000000000103011180000000000000000000000000000000000000000100001484519779ADRIANA SANTOS DA SILVA                 RUA URBANO DUARTE                       VILA ROSARIO25042300DUQUE DE CAXIASRJUNIAO UMB DOS CULTOS AFRO BRAS    30111810 000088
10231987175000168817800093673    000027332                    000273320000000000000109                     I0227332     30111800000000035003410000017N200818104700000000000103011180000000000000000000000000000000000000000100006885221732REGINA CELIA DA SILVA LINS              CONDOMINIO PASSAREDO                    CAMINHO DE B28921100RIO DE JANEIRO RJUNIAO UMB DOS CULTOS AFRO BRAS    30111810 000089
10231987175000168817800093673    000027273                    000272730000000000000109                     I0227273     30111800000000035003410000017N200818104700000000000103011180000000000000000000000000000000000000000100000000000105ELZA DE AZEVEDO ALVES                   RUA BADUINIO DE AGUIAR                  PARADA DE LU21250460RIO DE JANEIRO RJUNIAO UMB DOS CULTOS AFRO BRAS    30111810 000090
10231987175000168817800093673    000027152                    000271520000000000000109                     I0227152     30111800000000035003410000017N200818104700000000000103011180000000000000000000000000000000000000000100090693043768REJANE VIEIRA GOMES                     RUA TAPIRANGA                           PADRE MIGUEL21775470RIO DE JANEIRO RJUNIAO UMB DOS CULTOS AFRO BRAS    30111810 000091
10231987175000168817800093673    000027075                    000270750000000000000109                     I0227075     30111800000000035003410000017N200818104700000000000103011180000000000000000000000000000000000000000100046858229787IOLANDA CUSTODIA DA ROSA                RUA CLODOMIR LUCAS DOS REIS             JACAREPAGUA 22713562RIO DE JANEIRO RJUNIAO UMB DOS CULTOS AFRO BRAS    30111810 000092
10231987175000168817800093673    000025650                    000256500000000000000109                     I0225650     30101800000000040003410000017N200818104700000000000103010180000000000000000000000000000000000000000100002098051700FELIPE LOPES DA COSTA CHAVES            RUA: JOSE PINTO FAUSTINO                IPIRANGA    26293441NOVA IGUACU    RJUNIAO UMB DOS CULTOS AFRO BRAS    30101810 000093
10231987175000168817800093673    000025642                    000256420000000000000109                     I0225642     30101800000000040003410000017N200818104700000000000103010180000000000000000000000000000000000000000100066645352700NILZA BELISARIO DAMIAO                  RUA ESPERANCA                           JARDIM PARAI00000000RIO DE JANEIRO RJUNIAO UMB DOS CULTOS AFRO BRAS    30101810 000094
10231987175000168817800093673    000025638                    000256380000000000000109                     I0225638     30101800000000040003410000017N200818104700000000000103010180000000000000000000000000000000000000000100053860225120OTILIA REGINA DE ALENCAR                RUA PROJETADA                           VERIDIANA   00000000RIO DE JANEIRO RJUNIAO UMB DOS CULTOS AFRO BRAS    30101810 000095
10231987175000168817800093673    000025637                    000256370000000000000109                     I0225637     30101800000000040003410000017N200818104700000000000103010180000000000000000000000000000000000000000100003538359784MARCIO SANTANA DA ROCHA                 ESTRADA DA CAPOEIRA GRANDE              GUARATIBA   00000000RIO DE JANEIRO RJUNIAO UMB DOS CULTOS AFRO BRAS    30101810 000096
10231987175000168817800093673    000025629                    000256290000000000000109                     I0225629     30101800000000035003410000017N200818104700000000000103010180000000000000000000000000000000000000000100005818072789MARLUCE MARIA DE OLIVEIRA               RUA PAHAND                              SANTA TEREZA26193500BELFORD ROXO   RJUNIAO UMB DOS CULTOS AFRO BRAS    30101810 000097
10231987175000168817800093673    000025624                    000256240000000000000109                     I0225624     30101800000000040003410000017N200818104700000000000103010180000000000000000000000000000000000000000100093265883787ROSANGELA BARBOSA DE CARVALHO           CAMINHO DOS TELEGRAFOS                  SENADOR CAMA21832415RIO DE JANEIRO RJUNIAO UMB DOS CULTOS AFRO BRAS    30101810 000098
10231987175000168817800093673    000025623                    000256230000000000000109                     I0225623     30101800000000040003410000017N200818104700000000000103010180000000000000000000000000000000000000000100010212584740TIAGO VEROL DE SOUZA                    RUA: REGISTRO                           SENADOR CAMA21832006RIO DE JANEIRO RJUNIAO UMB DOS CULTOS AFRO BRAS    30101810 000099
10231987175000168817800093673    000025617                    000256170000000000000109                     I0225617     30101800000000035003410000017N200818104700000000000103010180000000000000000000000000000000000000000100009329422705FABIO SANTANA DE ANDRADE                RUA: LUIS BRAILE                        VILA SANTA M00000000RIO DE JANEIRO RJUNIAO UMB DOS CULTOS AFRO BRAS    30101810 000100
10231987175000168817800093673    000025616                    000256160000000000000109                     I0225616     30101800000000040003410000017N200818104700000000000103010180000000000000000000000000000000000000000100009297297730FLAVIO JOAQUIM DOS SANTOS               RUA: SAO PAULO                          PALMARES    23585800RIO DE JANEIRO RJUNIAO UMB DOS CULTOS AFRO BRAS    30101810 000101
10231987175000168817800093673    000025615                    000256150000000000000109                     I0225615     30101800000000040003410000017N200818104700000000000103010180000000000000000000000000000000000000000100005283706721LEVY ANDRE ASSIS FERREIRA DA S          TRAVESSA SANTO ANTONIO                  MARECHAL HER21557190RIO DE JANEIRO RJUNIAO UMB DOS CULTOS AFRO BRAS    30101810 000102
10231987175000168817800093673    000025614                    000256140000000000000109                     I0225614     30101800000000040003410000017N200818104700000000000103010180000000000000000000000000000000000000000100010440702771AMANDA APARECIDA AZEVEDO CARDO          RUA IVONETE                             CONJUNTO SAN00000000RIO DE JANEIRO RJUNIAO UMB DOS CULTOS AFRO BRAS    30101810 000103
10231987175000168817800093673    000025613                    000256130000000000000109                     I0225613     30101800000000040003410000017N200818104700000000000103010180000000000000000000000000000000000000000100011709590775JOYCE MARA PINHEIRO DA SILVA            RUA SILVIO TIBIRICA                     TURIACU     21540200RIO DE JANEIRO RJUNIAO UMB DOS CULTOS AFRO BRAS    30101810 000104
10231987175000168817800093673    000025612                    000256120000000000000109                     I0225612     30101800000000035003410000017N200818104700000000000103010180000000000000000000000000000000000000000100014963009714MICHELLE DA SILVA SOARES                RUA MINAS GERAIS                        PIABETA     25935525MAGE           RJUNIAO UMB DOS CULTOS AFRO BRAS    30101810 000105
10231987175000168817800093673    000025610                    000256100000000000000109                     I0225610     30101800000000035003410000017N200818104700000000000103010180000000000000000000000000000000000000000100000213766701ROSIVANIA CRUZ DA SILVA                 RUA ERNANI DE BRITO                     SEPETIBA    23535131RIO DE JANEIRO RJUNIAO UMB DOS CULTOS AFRO BRAS    30101810 000106
10231987175000168817800093673    000025609                    000256090000000000000109                     I0225609     30101800000000040003410000017N200818104700000000000103010180000000000000000000000000000000000000000100085737437787NIVALDA PIRES RUFINO                    RUA: MARIO CARPENTER                    ABOLICAO    20755065RIO DE JANEIRO RJUNIAO UMB DOS CULTOS AFRO BRAS    30101810 000107
10231987175000168817800093673    000025607                    000256070000000000000109                     I0225607     30101800000000035003410000017N200818104700000000000103010180000000000000000000000000000000000000000100005380679773ROBERTO DE OLIVEIRA RIBEIRO JU          RUA VINTE E TRES                        SANTA CRUZ  23500000RIO DE JANEIRO RJUNIAO UMB DOS CULTOS AFRO BRAS    30101810 000108
10231987175000168817800093673    000025604                    000256040000000000000109                     I0225604     30101800000000040003410000017N200818104700000000000103010180000000000000000000000000000000000000000100010486021769SIDNEY RODRIGUES DA SILVA JUNI          RUA DAS VIDEIRAS                        MORADA VERDE23065520PACIENCIA      RJUNIAO UMB DOS CULTOS AFRO BRAS    30101810 000109
10231987175000168817800093673    000025602                    000256020000000000000109                     I0225602     30101800000000035003410000017N200818104700000000000103010180000000000000000000000000000000000000000100003256338780REGINALDO ROSA DA SILVA                 RUA PAULO AFONSO                        IPIRANGA ALI26293381NOVA IGUACU    RJUNIAO UMB DOS CULTOS AFRO BRAS    30101810 000110
10231987175000168817800093673    000025601                    000256010000000000000109                     I0225601     30101800000000035003410000017N200818104700000000000103010180000000000000000000000000000000000000000100004474665775REGINALDO RAMOS DA SILVA                RUA JULIO DE CASTILHOS                  JARDIM ROTSE25270210DUQUE DE CAXIASRJUNIAO UMB DOS CULTOS AFRO BRAS    30101810 000111
10231987175000168817800093673    000025596                    000255960000000000000109                     I0225596     30101800000000035003410000017N200818104700000000000103010180000000000000000000000000000000000000000100093678754791ROSINETE MARIA DE OLIVEIRA              RUA ANGOLA                              CAPIVARI    25145080DUQUE DE CAXIASRJUNIAO UMB DOS CULTOS AFRO BRAS    30101810 000112
10231987175000168817800093673    000025595                    000255950000000000000109                     I0225595     30101800000000035003410000017N200818104700000000000103010180000000000000000000000000000000000000000100009289778709HELAINE FRANKLIN TEIXEIRA               RUA CACHOEIRA ALTA                      JARDIM MARAV23031070CAMPO GRANDE   RJUNIAO UMB DOS CULTOS AFRO BRAS    30101810 000113
10231987175000168817800093673    000025593                    000255930000000000000109                     I0225593     30101800000000035003410000017N200818104700000000000103010180000000000000000000000000000000000000000100001096953722CLAUDIA GUIMARAES                       ESTRADA GUANDU DO SENA - RUA 29         CAMPO GRANDE23091220RIO DE JANEIRO RJUNIAO UMB DOS CULTOS AFRO BRAS    30101810 000114
10231987175000168817800093673    000025590                    000255900000000000000109                     I0225590     30101800000000040003410000017N200818104700000000000103010180000000000000000000000000000000000000000100095760024787LUCIMARA DIAS DE OLIVEIRA               RUA SANTO ELIAS                         TURIACU     21540390RIO DE JANEIRO RJUNIAO UMB DOS CULTOS AFRO BRAS    30101810 000115
10231987175000168817800093673    000025588                    000255880000000000000109                     I0225588     30101800000000035003410000017N200818104700000000000103010180000000000000000000000000000000000000000100012218258790WILIAM ULERICH MARTINS                  RUA ANTONIO AUSTREGESILO                INHAUMA     21061300RIO DE JANEIRO RJUNIAO UMB DOS CULTOS AFRO BRAS    30101810 000116
10231987175000168817800093673    000025587                    000255870000000000000109                     I0225587     30101800000000035003410000017N200818104700000000000103010180000000000000000000000000000000000000000100003654035710ELLEN CRISTINA DE ORNELAS NARC          RUA MARECHAL MARCIANO                   REALENGO    21721011RIO DE JANEIRO RJUNIAO UMB DOS CULTOS AFRO BRAS    30101810 000117
10231987175000168817800093673    000025586                    000255860000000000000109                     I0225586     30101800000000035003410000017N200818104700000000000103010180000000000000000000000000000000000000000100009924715790JOSEFA MARIA DA SILVA                   TRAVESSA DOS LAVRADORES                 VILA SAO DOM26271340NOVA IGUACU    RJUNIAO UMB DOS CULTOS AFRO BRAS    30101810 000118
10231987175000168817800093673    000025585                    000255850000000000000109                     I0225585     30101800000000035003410000017N200818104700000000000103010180000000000000000000000000000000000000000100012687881716DAIANA SANTANA DE LIMA                  RUA MANAUS                              CAMPOS ELISE25225000DUQUE DE CAXIASRJUNIAO UMB DOS CULTOS AFRO BRAS    30101810 000119
10231987175000168817800093673    000025582                    000255820000000000000109                     I0225582     30101800000000035003410000017N200818104700000000000103010180000000000000000000000000000000000000000100093255586704GRECIETE GOUDARD                        ESTRADA DO CAMPINHO                     CAMPO GRANDE23066540RIO DE JANEIRO RJUNIAO UMB DOS CULTOS AFRO BRAS    30101810 000120
10231987175000168817800093673    000025581                    000255810000000000000109                     I0225581     30101800000000035003410000017N200818104700000000000103010180000000000000000000000000000000000000000100079034780791PAULO ROBERTO DE SOUZA MORENO           RUA CORONEL MALHAES                     TIRADENTES  26351180NOVA IGUACU    RJUNIAO UMB DOS CULTOS AFRO BRAS    30101810 000121
10231987175000168817800093673    000025580                    000255800000000000000109                     I0225580     30101800000000035003410000017N200818104700000000000103010180000000000000000000000000000000000000000100005229971711CATIA CILENE MASCARENHAS                TRAVESSA AMOR DO CAMPO                  CONJUNTO SAN21843743CAMPO GRANDE   RJUNIAO UMB DOS CULTOS AFRO BRAS    30101810 000122
10231987175000168817800093673    000025579                    000255790000000000000109                     I0225579     30101800000000035003410000017N200818104700000000000103010180000000000000000000000000000000000000000100089982118749LENIR SILVA DOS SANTOS                  RUA DA LUTA                             JARDIM LARAN26291278RIO DE JANEIRO RJUNIAO UMB DOS CULTOS AFRO BRAS    30101810 000123
10231987175000168817800093673    000025575                    000255750000000000000109                     I0225575     30101800000000040003410000017N200818104700000000000103010180000000000000000000000000000000000000000100064494527734RONALDO ROSAS ALVES                     ESTRADA COMANDANTE                      PRATA       25976140TERESOPOLIS    RJUNIAO UMB DOS CULTOS AFRO BRAS    30101810 000124
10231987175000168817800093673    000025568                    000255680000000000000109                     I0225568     30101800000000040003410000017N200818104700000000000103010180000000000000000000000000000000000000000100012295676746JEFFERSON ANTONIO TELLES GALDI          RUA MOUZIN DE ALBUQUERQUE               SAO VICENTE 26178080BELFORD ROXO   RJUNIAO UMB DOS CULTOS AFRO BRAS    30101810 000125
10231987175000168817800093673    000025567                    000255670000000000000109                     I0225567     30101800000000040003410000017N200818104700000000000103010180000000000000000000000000000000000000000100091083532715MARCOS AURELIO PEREIRA RAMOS            RUA MATO GROSSO                         SANTA CECILI25957250TERESOPOLIS    RJUNIAO UMB DOS CULTOS AFRO BRAS    30101810 000126
10231987175000168817800093673    000025565                    000255650000000000000109                     I0225565     30101800000000035003410000017N200818104700000000000103010180000000000000000000000000000000000000000100005436665730JORGE LUIZ VICTORIO LIMA                AVENIDA MARCOVALDI                      NOVA ESPERAN26113040BELFORD ROXO   RJUNIAO UMB DOS CULTOS AFRO BRAS    30101810 000127
10231987175000168817800093673    000025563                    000255630000000000000109                     I0225563     30101800000000035003410000017N200818104700000000000103010180000000000000000000000000000000000000000100003250570596VERONICA LUCIA DA CRUZ                  ESTRADA DOUTOR FARRULA                  SAO FRANCISC26125400BELFORD ROXO   RJUNIAO UMB DOS CULTOS AFRO BRAS    30101810 000128
10231987175000168817800093673    000025562                    000255620000000000000109                     I0225562     30101800000000035003410000017N200818104700000000000103010180000000000000000000000000000000000000000100002527980740ARMANDO DE ALMEIDA                      RUA PEDRO JOSE DE OLIVEIRA              VARGEM GRAND27145231BARRA DO PIRAI RJUNIAO UMB DOS CULTOS AFRO BRAS    30101810 000129
10231987175000168817800093673    000025561                    000255610000000000000109                     I0225561     30101800000000035003410000017N200818104700000000000103010180000000000000000000000000000000000000000100005978854785ALEXANDRE MOTA DOS SANTOS               RUA BRUNO SENDER                        JARDIM NOVA 26266040NOVA IGUACU    RJUNIAO UMB DOS CULTOS AFRO BRAS    30101810 000130
10231987175000168817800093673    000025555                    000255550000000000000109                     I0225555     30101800000000035003410000017N200818104700000000000103010180000000000000000000000000000000000000000100002176741781SUSI DE OLIVEIRA LOUREIRO               RUA FATIMA CRISTINA                     ROSA DOS VEN26278525RIO DE JANEIRO RJUNIAO UMB DOS CULTOS AFRO BRAS    30101810 000131
10231987175000168817800093673    000025554                    000255540000000000000109                     I0225554     30101800000000035003410000017N200818104700000000000103010180000000000000000000000000000000000000000100095846190715ANA MARIA NICANOR DE QUADRO             RUA PASSO FUNDO                         JARDIM GUAND26298189NOVA IGUACU    RJUNIAO UMB DOS CULTOS AFRO BRAS    30101810 000132
10231987175000168817800093673    000025553                    000255530000000000000109                     I0225553     30101800000000035003410000017N200818104700000000000103010180000000000000000000000000000000000000000100001161586709ALEXANDRE PIMPAREL DA SILVA             RUA: COMENDADOR VENACIO                 PALHADA     26290204NOVA IGUACU    RJUNIAO UMB DOS CULTOS AFRO BRAS    30101810 000133
10231987175000168817800093673    000025552                    000255520000000000000109                     I0225552     30101800000000035003410000017N200818104700000000000103010180000000000000000000000000000000000000000100000000000000FABIO DA SILVA                          RUA CAMORIM                             JARDIM DELAM26317140QUEIMADOS      RJUNIAO UMB DOS CULTOS AFRO BRAS    30101810 000134
10231987175000168817800093673    000025550                    000255500000000000000109                     I0225550     30101800000000035003410000017N200818104700000000000103010180000000000000000000000000000000000000000100085957679720MARIA DA APARECIDA VICENTE DUQ          RUA FRANCISCO VIOLTI                    HELIOPLOIS  26125440BELFORD ROXO   RJUNIAO UMB DOS CULTOS AFRO BRAS    30101810 000135
10231987175000168817800093673    000025548                    000255480000000000000109                     I0225548     30101800000000035003410000017N200818104700000000000103010180000000000000000000000000000000000000000100010018753701PAULA DE BRITO                          RUA FRANCISCO VIOLTE                    HELIOPOLIS  26125440RIO DE JANEIRO RJUNIAO UMB DOS CULTOS AFRO BRAS    30101810 000136
10231987175000168817800093673    000025540                    000255400000000000000109                     I0225540     30101800000000035003410000017N200818104700000000000103010180000000000000000000000000000000000000000100000858723778GEOVANI FERNANDA DA SILVA               RUA SOFIA BARRETO                       DUMAS - SANT23550700RIO DE JANEIRO RJUNIAO UMB DOS CULTOS AFRO BRAS    30101810 000137
10231987175000168817800093673    000025538                    000255380000000000000109                     I0225538     30101800000000035003410000017N200818104700000000000103010180000000000000000000000000000000000000000100000919377793JOSE IVAN MARCELINO FILHO               RUA ERNANE PEREIRA                      CARLOS SAMPA26089115NOVA IGUACU    RJUNIAO UMB DOS CULTOS AFRO BRAS    30101810 000138
10231987175000168817800093673    000025537                    000255370000000000000109                     I0225537     30101800000000035003410000017N200818104700000000000103010180000000000000000000000000000000000000000100001649750714CRISTIANE JOSE DA SILVA                 AVENIDA CALOMBE                         PARQUE ELDOR25231020DUQUE DE CAXIASRJUNIAO UMB DOS CULTOS AFRO BRAS    30101810 000139
10231987175000168817800093673    000025532                    000255320000000000000109                     I0225532     30101800000000040003410000017N200818104700000000000103010180000000000000000000000000000000000000000100005234258726LUANNA RODRIGUES NASCIMENTO LO          RUA SETE                                VALERIO     28680000CACHOEIRA DE MARJUNIAO UMB DOS CULTOS AFRO BRAS    30101810 000140
10231987175000168817800093673    000025531                    000255310000000000000109                     I0225531     30101800000000040003410000017N200818104700000000000103010180000000000000000000000000000000000000000100005770480742NARAYAMA MARTINS RODRIGUES LOU          RUA NABYCALIFA                          TABORDA     28680000CACHOEIRA DE MARJUNIAO UMB DOS CULTOS AFRO BRAS    30101810 000141
10231987175000168817800093673    000025530                    000255300000000000000109                     I0225530     30101800000000040003410000017N200818104700000000000103010180000000000000000000000000000000000000000100002965368736REGINA CONCEICAO                        AVENIDA BOQUEIRAO                       BOA VISTA   28680000CACHOEIRA DE MARJUNIAO UMB DOS CULTOS AFRO BRAS    30101810 000142
10231987175000168817800093673    000025529                    000255290000000000000109                     I0225529     30101800000000040003410000017N200818104700000000000103010180000000000000000000000000000000000000000100009963194761FERNANDO PECANHA PIRES                  RUA GENERAL BASILIO                     TABORDA     28680000CACHOEIRA DE MARJUNIAO UMB DOS CULTOS AFRO BRAS    30101810 000143
10231987175000168817800093673    000025527                    000255270000000000000109                     I0225527     30101800000000035003410000017N200818104700000000000103010180000000000000000000000000000000000000000100002331392730ANA MARIA DOS SANTOS VIEIRA             RUA OITO                                PARQUE ALVOR26053220NOVA IGUACU    RJUNIAO UMB DOS CULTOS AFRO BRAS    30101810 000144
10231987175000168817800093673    000025525                    000255250000000000000109                     I0225525     30101800000000035003410000017N200818104700000000000103010180000000000000000000000000000000000000000100003018847733MARIA AILHA BERNARDO PINTO              RUA RUBIAO JUNIOR                       CENTRO      23860000MANGARATIBA    RJUNIAO UMB DOS CULTOS AFRO BRAS    30101810 000145
10231987175000168817800093673    000025523                    000255230000000000000109                     I0225523     30101800000000035003410000017N200818104700000000000103010180000000000000000000000000000000000000000100012345678910LUCIANO GONCALVES DE SOUZA              RUA CLARIMUNDO DE MELO                  PIEDADE     20740323RIO DE JANEIRO RJUNIAO UMB DOS CULTOS AFRO BRAS    30101810 000146
10231987175000168817800093673    000025522                    000255220000000000000109                     I0225522     30101800000000035003410000017N200818104700000000000103010180000000000000000000000000000000000000000100001162883707SUNEY MENEZES MACHADO                   ESTRADA DO ENCANAMENTO                  BARBADO     23060000RIO DE JANEIRO RJUNIAO UMB DOS CULTOS AFRO BRAS    30101810 000147
10231987175000168817800093673    000025520                    000255200000000000000109                     I0225520     30101800000000035003410000017N200818104700000000000103010180000000000000000000000000000000000000000100007852297790IRENE FRANCISCO LIMA                    RUA VIRGILIO VARZEA                     VILA SAO LUI25051110DUQUE DE CAXIASRJUNIAO UMB DOS CULTOS AFRO BRAS    30101810 000148
10231987175000168817800093673    000025517                    000255170000000000000109                     I0225517     30101800000000035003410000017N200818104700000000000103010180000000000000000000000000000000000000000100006915594736CINTIA FERREIRA                         RUA VALDEMAR GALDINO                    JARDIM BELO 26480410RIO DE JANEIRO RJUNIAO UMB DOS CULTOS AFRO BRAS    30101810 000149
10231987175000168817800093673    000025514                    000255140000000000000109                     I0225514     30101800000000035003410000017N200818104700000000000103010180000000000000000000000000000000000000000100003387547720APARECIDA DOS SANTOS                    RUA CRACATUA                            HELIOPOLIS  26125170BELFORD ROXO   RJUNIAO UMB DOS CULTOS AFRO BRAS    30101810 000150
10231987175000168817800093673    000025513                    000255130000000000000109                     I0225513     30101800000000035003410000017N200818104700000000000103010180000000000000000000000000000000000000000100009409455766DANIELE MARTINS MEDEIROS DE FR          RUA D                                   BELA VISTA  23860000MANGARATIBA    RJUNIAO UMB DOS CULTOS AFRO BRAS    30101810 000151
10231987175000168817800093673    000025512                    000255120000000000000109                     I0225512     30101800000000035003410000017N200818104700000000000103010180000000000000000000000000000000000000000100090219023700GUARACIARA CORREA PASCHOAL              RUA JOSE CABRAL                         VAL VERDE   26290783NOVA IGUACU    RJUNIAO UMB DOS CULTOS AFRO BRAS    30101810 000152
10231987175000168817800093673    000025511                    000255110000000000000109                     I0225511     30101800000000035003410000017N200818104700000000000103010180000000000000000000000000000000000000000100000640795706CELIA REGINA ALVES DE SOUZA CO          RUA QUARENTA E SETE                     JARDIM ITAMB24725240SAO GONCALO    RJUNIAO UMB DOS CULTOS AFRO BRAS    30101810 000153
10231987175000168817800093673    000025509                    000255090000000000000109                     I0225509     30101800000000035003410000017N200818104700000000000103010180000000000000000000000000000000000000000100023970090563MARCIA VIEIRA SALES                     RUA LOPO SARAIVA                        TANQUE - JAC22740220RIO DE JANEIRO RJUNIAO UMB DOS CULTOS AFRO BRAS    30101810 000154
10231987175000168817800093673    000025507                    000255070000000000000109                     I0225507     30101800000000035003410000017N200818104700000000000103010180000000000000000000000000000000000000000100006726905432DAYVIDY RAMON CANDIDO                   RUA MARACA                              PARQUE MUCAJ26415055JAPERI         RJUNIAO UMB DOS CULTOS AFRO BRAS    30101810 000155
10231987175000168817800093673    000025505                    000255050000000000000109                     I0225505     30101800000000035003410000017N200818104700000000000103010180000000000000000000000000000000000000000100009445907728VICTOR DOS SANTOS ALLEN                 RUA PEDRO TELES                         CENTRO      25515032SAO JOAO DE MERRJUNIAO UMB DOS CULTOS AFRO BRAS    30101810 000156
10231987175000168817800093673    000025504                    000255040000000000000109                     I0225504     30101800000000035003410000017N200818104700000000000103010180000000000000000000000000000000000000000100011549239759RENATA DE OLIVEIRA GASPAR               RUA GUANABARA                           MADUREIRA   21350230RIO DE JANEIRO RJUNIAO UMB DOS CULTOS AFRO BRAS    30101810 000157
10231987175000168817800093673    000025503                    000255030000000000000109                     I0225503     30101800000000035003410000017N200818104700000000000103010180000000000000000000000000000000000000000100009145082707ELAINE CRISTINA DE MORAES               RUA GENTIL DO OURO                      AGUIAR TORRE23063340INHOAIBA       RJUNIAO UMB DOS CULTOS AFRO BRAS    30101810 000158
10231987175000168817800093673    000025502                    000255020000000000000109                     I0225502     30101800000000035003410000017N200818104700000000000103010180000000000000000000000000000000000000000100015429555134OBIRACI SILVA DO NASCIMENTO             ESTRADA VELHA DE MARICA                 MARIA PAULA 24756280SAO GONCALO    RJUNIAO UMB DOS CULTOS AFRO BRAS    30101810 000159
10231987175000168817800093673    000025500                    000255000000000000000109                     I0225500     30101800000000035003410000017N200818104700000000000103010180000000000000000000000000000000000000000100000000000000LUCIANO SOARES DA SILVA                 RUA MEDEIROS AGUAS MARAVILHOSAS         LINHA AZUL  27910000MACAE          RJUNIAO UMB DOS CULTOS AFRO BRAS    30101810 000160
10231987175000168817800093673    000025499                    000254990000000000000109                     I0225499     30101800000000035003410000017N200818104700000000000103010180000000000000000000000000000000000000000100013849060705LEONARDO ENEDINA DE MELO                RUA JULIO VERNER                        SANTA RITA  26050517NOVA IGUACU    RJUNIAO UMB DOS CULTOS AFRO BRAS    30101810 000161
10231987175000168817800093673    000025498                    000254980000000000000109                     I0225498     30101800000000035003410000017N200818104700000000000103010180000000000000000000000000000000000000000100082391106734CASSIO SOUZA DA COSTA                   RUA RIACHUELO                           JARDIM ESTOR26112220BELFORD ROXO   RJUNIAO UMB DOS CULTOS AFRO BRAS    30101810 000162
10231987175000168817800093673    000025497                    000254970000000000000109                     I0225497     30101800000000035003410000017N200818104700000000000103010180000000000000000000000000000000000000000100087798999787NILZETE DA CONCEICAO FELIX              RUA PROJETADA                           JARDIM ANHAN25264030DUQUE DE CAXIASRJUNIAO UMB DOS CULTOS AFRO BRAS    30101810 000163
10231987175000168817800093673    000025495                    000254950000000000000109                     I0225495     30101800000000035003410000017N200818104700000000000103010180000000000000000000000000000000000000000100004842101490MARIA DE LOURDES FARIAS DOS SA          RUA HELIO DE OLIVEIRA                   PARADA MORAB25000000DUQUE DE CAXIASRJUNIAO UMB DOS CULTOS AFRO BRAS    30101810 000164
10231987175000168817800093673    000025493                    000254930000000000000109                     I0225493     30101800000000035003410000017N200818104700000000000103010180000000000000000000000000000000000000000100004474701755JACIRA DE ALMEIDA BATISTA JULI          AVENIDA SAO PAULO                       PARQUE MARIL25225660DUQUE DE CAXIASRJUNIAO UMB DOS CULTOS AFRO BRAS    30101810 000165
10231987175000168817800093673    000025490                    000254900000000000000109                     I0225490     30101800000000035003410000017N200818104700000000000103010180000000000000000000000000000000000000000100009250353782LUIZ CARLOS MATOLA                      APIACA                                  JARDIM PRIMA25056270DUQUE DE CAXIASRJUNIAO UMB DOS CULTOS AFRO BRAS    30101810 000166
10231987175000168817800093673    000025489                    000254890000000000000109                     I0225489     30101800000000035003410000017N200818104700000000000103010180000000000000000000000000000000000000000100012345678910LUCIANA LUISA PEREIRA                   TRAVESSA JOAO DE BARRO                  LAGOMAR     27966870MACAE          RJUNIAO UMB DOS CULTOS AFRO BRAS    30101810 000167
10231987175000168817800093673    000025488                    000254880000000000000109                     I0225488     30101800000000035003410000017N200818104700000000000103010180000000000000000000000000000000000000000100012464631728DIEGO TACITO COSTA HENRIQUE             RUA YONE MUSSI                          MALVINAS    27946310MACAE          RJUNIAO UMB DOS CULTOS AFRO BRAS    30101810 000168
10231987175000168817800093673    000025487                    000254870000000000000109                     I0225487     30101800000000035003410000017N200818104700000000000103010180000000000000000000000000000000000000000100001768493782MARIA DA PENHA CORREA PINTO             RUA UM                                  BOSQUE AZUL 27971250MACAE          RJUNIAO UMB DOS CULTOS AFRO BRAS    30101810 000169
10231987175000168817800093673    000025486                    000254860000000000000109                     I0225486     30101800000000035003410000017N200818104700000000000103010180000000000000000000000000000000000000000100078514533568PAULO SERGIO SANTOS SANTANA             RUA W                                   LAGOMAR     27966590MACAE          RJUNIAO UMB DOS CULTOS AFRO BRAS    30101810 000170
10231987175000168817800093673    000025484                    000254840000000000000109                     I0225484     30101800000000035003410000017N200818104700000000000103010180000000000000000000000000000000000000000100007208431701WEMERSON JOAO FARIAS DA SILVA           RUA: C                                  SEPETIBA    23545040RIO DE JANEIRO RJUNIAO UMB DOS CULTOS AFRO BRAS    30101810 000171
10231987175000168817800093673    000025483                    000254830000000000000109                     I0225483     30101800000000035003410000017N200818104700000000000103010180000000000000000000000000000000000000000100073960560710CLAUDIA MARIA DE OLIVEIRA DOS           RUA CARATUVA                            JARDIM SULAC22725020RIO DE JANEIRO RJUNIAO UMB DOS CULTOS AFRO BRAS    30101810 000172
10231987175000168817800093673    000025482                    000254820000000000000109                     I0225482     30101800000000035003410000017N200818104700000000000103010180000000000000000000000000000000000000000100014933850704LIDIA GABRIELLE DIAS RIBEIRO            RUA JORGE BRAGANCA                      BOM PASTOR  26110080BELFORD ROXO   RJUNIAO UMB DOS CULTOS AFRO BRAS    30101810 000173
10231987175000168817800093673    000025480                    000254800000000000000109                     I0225480     30101800000000035003410000017N200818104700000000000103010180000000000000000000000000000000000000000100001478776790CLEUSA FERREIRA PEREIRA                 RUA THEREMIN                            COELHO NETO 21530290RIO DE JANEIRO RJUNIAO UMB DOS CULTOS AFRO BRAS    30101810 000174
10231987175000168817800093673    000025479                    000254790000000000000109                     I0225479     30101800000000035003410000017N200818104700000000000103010180000000000000000000000000000000000000000100067424647734MARCIA VALERIA VALIATI DOS SAN          RUA GOMES CARNEIRO                      VILA URUSSA√20735090RIO DE JANEIRO RJUNIAO UMB DOS CULTOS AFRO BRAS    30101810 000175
10231987175000168817800093673    000025478                    000254780000000000000109                     I0225478     30101800000000035003410000017N200818104700000000000103010180000000000000000000000000000000000000000100010292272766MARCIA JUPIRA SANTOS GONZAGA            RUA ANTONIO FELIX                       CENTRO      26520081NILOPOLIS      RJUNIAO UMB DOS CULTOS AFRO BRAS    30101810 000176
10231987175000168817800093673    000025477                    000254770000000000000109                     I0225477     30101800000000035003410000017N200818104700000000000103010180000000000000000000000000000000000000000100090490894704EVELINE DA CONCEICAO                    AVENIDA ATLANTIDA                       LAGOMAR     27966000MACAE          RJUNIAO UMB DOS CULTOS AFRO BRAS    30101810 000177
10231987175000168817800093673    000025476                    000254760000000000000109                     I0225476     30101800000000035003410000017N200818104700000000000103010180000000000000000000000000000000000000000100013397736781JOVANE RANGEL DA SILVA                  RUA SILVA JARDIM                        CENTRO      27910340MACAE          RJUNIAO UMB DOS CULTOS AFRO BRAS    30101810 000178
10231987175000168817800093673    000025475                    000254750000000000000109                     I0225475     30101800000000035003410000017N200818104700000000000103010180000000000000000000000000000000000000000100004188514760LUIZ CARLOS PEREIRA DA SILVA            RUA W                                   LAGOMAR     27966755MACAE          RJUNIAO UMB DOS CULTOS AFRO BRAS    30101810 000179
10231987175000168817800093673    000025474                    000254740000000000000109                     I0225474     30101800000000035003410000017N200818104700000000000103010180000000000000000000000000000000000000000100016492108760TIAGO LOPES DE AZEVEDO SILVA            RUA X                                   PARADA MODEL25943365GUAPIMIRIM     RJUNIAO UMB DOS CULTOS AFRO BRAS    30101810 000180
10231987175000168817800093673    000025473                    000254730000000000000109                     I0225473     30101800000000035003410000017N200818104700000000000103010180000000000000000000000000000000000000000100000000000000LEONARDO EUGENIO DOS SANTOS             RUA LUIZ PINTO DA SILVA                 PRAIA CAMPIS27923200MACAE          RJUNIAO UMB DOS CULTOS AFRO BRAS    30101810 000181
10231987175000168817800093673    000025472                    000254720000000000000109                     I0225472     30101800000000035003410000017N200818104700000000000103010180000000000000000000000000000000000000000100095181890725ALEXANDRE DE SOUZA TAVARES SEN          RUA DOM MANOEL                          DOM RODRIGO 26260230NOVA IGUACU    RJUNIAO UMB DOS CULTOS AFRO BRAS    30101810 000182
10231987175000168817800093673    000025471                    000254710000000000000109                     I0225471     30101800000000035003410000017N200818104700000000000103010180000000000000000000000000000000000000000100014527767763THIERRY PADILHA MOTA                    RUA ALCIR BRASIL                        JARDIM NOVA 26266010NOVA IGUACU    RJUNIAO UMB DOS CULTOS AFRO BRAS    30101810 000183
10231987175000168817800093673    000025470                    000254700000000000000109                     I0225470     30101800000000035003410000017N200818104700000000000103010180000000000000000000000000000000000000000100011122717750RODRIGO DINIZ DA COSTA                  RUA ENGENHO DE DENTRO                   VILAR DOS TE25565230SAO JOAO DE MERRJUNIAO UMB DOS CULTOS AFRO BRAS    30101810 000184
10231987175000168817800093673    000025469                    000254690000000000000109                     I0225469     30101800000000035003410000017N200818104700000000000103010180000000000000000000000000000000000000000100013090350750REINALDO GONCALVES DE OLIVEIRA          RUA DOMINGOS LEMOS                      COELHO DA RO25550721SAO JOAO DE MERRJUNIAO UMB DOS CULTOS AFRO BRAS    30101810 000185
10231987175000168817800093673    000025467                    000254670000000000000109                     I0225467     30101800000000035003410000017N200818104700000000000103010180000000000000000000000000000000000000000100006110323764WAGNER MATOS DA SILVA                   RUA OLINDA                              BELA VISTA  26175350BELFORD ROXO   RJUNIAO UMB DOS CULTOS AFRO BRAS    30101810 000186
10231987175000168817800093673    000025466                    000254660000000000000109                     I0225466     30101800000000035003410000017N200818104700000000000103010180000000000000000000000000000000000000000100092111777749WANDERLEY DOS SANTOS MENDES             PRACA EMBOABA                           ENGENHO DA R20761160RIO DE JANEIRO RJUNIAO UMB DOS CULTOS AFRO BRAS    30101810 000187
10231987175000168817800093673    000025464                    000254640000000000000109                     I0225464     30101800000000035003410000017N200818104700000000000103010180000000000000000000000000000000000000000100090432894772ALTAMIRO DAMASCENO MONCAO               RUA TENERIFE                            PARADA DE LU21010000RIO DE JANEIRO RJUNIAO UMB DOS CULTOS AFRO BRAS    30101810 000188
10231987175000168817800093673    000025463                    000254630000000000000109                     I0225463     30101800000000035003410000017N200818104700000000000103010180000000000000000000000000000000000000000100040664325734GENI BARBOSA ROCHA DA SILVA             TRAVESSA DA AMIZADE                     VILA DA PENH25268020RIO DE JANEIRO RJUNIAO UMB DOS CULTOS AFRO BRAS    30101810 000189
10231987175000168817800093673    000025462                    000254620000000000000109                     I0225462     30101800000000035003410000017N200818104700000000000103010180000000000000000000000000000000000000000100011834931770LEANDRO BARROS DA SILVA                 RUA ROMARIO SILVA                       KENNEDY     26020640NOVA IGUACU    RJUNIAO UMB DOS CULTOS AFRO BRAS    30101810 000190
10231987175000168817800093673    000025457                    000254570000000000000109                     I0225457     30101800000000035003410000017N200818104700000000000103010180000000000000000000000000000000000000000100088041883753JORGE COSTA BRAGA FILHO                 RUA CENTO E VINTE E TRES                MAUA        25900000RIO DE JANEIRO RJUNIAO UMB DOS CULTOS AFRO BRAS    30101810 000191
10231987175000168817800093673    000025455                    000254550000000000000109                     I0225455     30101800000000035003410000017N200818104700000000000103010180000000000000000000000000000000000000000100005234763706LUCIANA FERREIRA DE ALMEIDA             RUA QUATRO                              PARADA MORAB25265220DUQUE DE CAXIASRJUNIAO UMB DOS CULTOS AFRO BRAS    30101810 000192
10231987175000168817800093673    000025454                    000254540000000000000109                     I0225454     30101800000000035003410000017N200818104700000000000103010180000000000000000000000000000000000000000100012009305760DEBORA CRISTINA DE OLIVEIRA BR          RUA LORD COCHRANE                       IBIRAPITANGA23811810ITAGUAI        RJUNIAO UMB DOS CULTOS AFRO BRAS    30101810 000193
10231987175000168817800093673    000025453                    000254530000000000000109                     I0225453     30101800000000035003410000017N200818104700000000000103010180000000000000000000000000000000000000000100000759136742ADRIANA LAPORT ALVES                    RUA DONA CLARA DE ARAUJO                ANDRADE ARAU26010390NOVA IGUACU    RJUNIAO UMB DOS CULTOS AFRO BRAS    30101810 000194
10231987175000168817800093673    000025451                    000254510000000000000109                     I0225451     30101800000000035003410000017N200818104700000000000103010180000000000000000000000000000000000000000100058365737787ALTAMIRA ROSA                           AVENIDA DO CONTORNO                     PARADA MORAB25000000DUQUE DE CAXIASRJUNIAO UMB DOS CULTOS AFRO BRAS    30101810 000195
10231987175000168817800093673    000025450                    000254500000000000000109                     I0225450     30101800000000035003410000017N200818104700000000000103010180000000000000000000000000000000000000000100074171372704ELIANE DE SOUZA MACHADO                 RUA ROQUETE PINTO                       JARDIM ANHAN25265200DUQUE DE CAXIASRJUNIAO UMB DOS CULTOS AFRO BRAS    30101810 000196
10231987175000168817800093673    000025448                    000254480000000000000109                     I0225448     30101800000000035003410000017N200818104700000000000103010180000000000000000000000000000000000000000100082191638791RITA DE CASSIA VALVERDE ROCHA           RUA JOAQUIM SOARES NETO                 NOVA AMERICA26021560NOVA IGUACU    RJUNIAO UMB DOS CULTOS AFRO BRAS    30101810 000197
10231987175000168817800093673    000025446                    000254460000000000000109                     I0225446     30101800000000035003410000017N200818104700000000000103010180000000000000000000000000000000000000000100014520518792STEPHANI MATOS MONTEIRO                 ESTRADA DOUTOR PLINIO CASADO            CENTRO      26130622BELFORD ROXO   RJUNIAO UMB DOS CULTOS AFRO BRAS    30101810 000198
10231987175000168817800093673    000025445                    000254450000000000000109                     I0225445     30101800000000035003410000017N200818104700000000000103010180000000000000000000000000000000000000000100012727461780SUELMIR LIMA DE ARAUJO                  RUA NOSSA SENHORA DAS GRACAS            PRAIA DO ANI25925708MAGE           RJUNIAO UMB DOS CULTOS AFRO BRAS    30101810 000199
10231987175000168817800093673    000025443                    000254430000000000000109                     I0225443     30101800000000035003410000017N200818104700000000000103010180000000000000000000000000000000000000000100011351878786GLEISSON BITTENCOURT DA SILVA           RUA FLORA DE ARAUJO                     PRATA       26010570NOVA IGUACU    RJUNIAO UMB DOS CULTOS AFRO BRAS    30101810 000200
10231987175000168817800093673    000025440                    000254400000000000000109                     I0225440     30101800000000035003410000017N200818104700000000000103010180000000000000000000000000000000000000000100070645523704RICARDO DE SOUZA LIMA                   RUA MAJOR AZEVEDO                       IRAJA       21230060RIO DE JANEIRO RJUNIAO UMB DOS CULTOS AFRO BRAS    30101810 000201
10231987175000168817800093673    000025439                    000254390000000000000109                     I0225439     30101800000000035003410000017N200818104700000000000103010180000000000000000000000000000000000000000100015110892709YASMIN FIALHO HANGES                    ESTRADA HENRIQUE DE MELO                BENTO RIBEIR21340190RIO DE JANEIRO RJUNIAO UMB DOS CULTOS AFRO BRAS    30101810 000202
10231987175000168817800093673    000025438                    000254380000000000000109                     I0225438     30101800000000035003410000017N200818104700000000000103010180000000000000000000000000000000000000000100030894840720LIGIA REGINA ZACHARIAS DE MELO          RUA MANAPA                              VALVERDE    21051360RIO DE JANEIRO RJUNIAO UMB DOS CULTOS AFRO BRAS    30101810 000203
10231987175000168817800093673    000025437                    000254370000000000000109                     I0225437     30101800000000035003410000017N200818104700000000000103010180000000000000000000000000000000000000000100068373570772RONILCE CAMILO DA SILVA                 RUA RUBY ALBERTORIA                     GERENCIANO  26061155NOVA IGUACU    RJUNIAO UMB DOS CULTOS AFRO BRAS    30101810 000204
10231987175000168817800093673    000025436                    000254360000000000000109                     I0225436     30101800000000035003410000017N200818104700000000000103010180000000000000000000000000000000000000000100047442140700MARFIZA FERREIRA DA SILVA VENA          RUA EURICO COELHO                       GRAMA       26060650NOVA IGUACU    RJUNIAO UMB DOS CULTOS AFRO BRAS    30101810 000205
10231987175000168817800093673    000025434                    000254340000000000000109                     I0225434     30101800000000035003410000017N200818104700000000000103010180000000000000000000000000000000000000000100093788150734REGINA DA SILVA VERONEZI DOS S          RUA ABATE                               JARDIM CANAA26263040NOVA IGUACU    RJUNIAO UMB DOS CULTOS AFRO BRAS    30101810 000206
10231987175000168817800093673    000025432                    000254320000000000000109                     I0225432     30101800000000035003410000017N200818104700000000000103010180000000000000000000000000000000000000000100092645933734ROSINEA PRECIOSO DE OLIVEIRA            RUA PROFESSORA MARLY CARVALHO PEREIRA   MIGUEL COUTO26070452NOVA IGUACU    RJUNIAO UMB DOS CULTOS AFRO BRAS    30101810 000207
10231987175000168817800093673    000025429                    000254290000000000000109                     I0225429     30101800000000035003410000017N200818104700000000000103010180000000000000000000000000000000000000000100080578063700SANDRA REGINA NEVES CHAGAS              RUA MARIA LOURENCO                      JARDIM PRIMA25215367DUQUE DE CAXIASRJUNIAO UMB DOS CULTOS AFRO BRAS    30101810 000208
10231987175000168817800093673    000025425                    000254250000000000000109                     I0225425     30101800000000035003410000017N200818104700000000000103010180000000000000000000000000000000000000000100010276278704ROSELI DE OLIVEIRA DUTRA                RUA UM                                  TAQUARA     25275110DUQUE DE CAXIASRJUNIAO UMB DOS CULTOS AFRO BRAS    30101810 000209
10231987175000168817800093673    000025424                    000254240000000000000109                     I0225424     30101800000000035003410000017N200818104700000000000103010180000000000000000000000000000000000000000100005633721735MARCOS AURELIO PAULINO FLORIAN          RUA LEONEL ROCHA                        GUARATIBA   23032460RIO DE JANEIRO RJUNIAO UMB DOS CULTOS AFRO BRAS    30101810 000210
10231987175000168817800093673    000025423                    000254230000000000000109                     I0225423     30101800000000035003410000017N200818104700000000000103010180000000000000000000000000000000000000000100000000000000VIVIANE MORAES ALEXANDRINO              RUA JOAQUIM MOREIRA                     SEPETIBA    23545054RIO DE JANEIRO RJUNIAO UMB DOS CULTOS AFRO BRAS    30101810 000211
10231987175000168817800093673    000025422                    000254220000000000000109                     I0225422     30101800000000035003410000017N200818104700000000000103010180000000000000000000000000000000000000000100004277956726ROSANA OLIVEIRA GUEDES                  RUA CARDOSO QUINTAO                     PIEDADE     21381460RIO DE JANEIRO RJUNIAO UMB DOS CULTOS AFRO BRAS    30101810 000212
10231987175000168817800093673    000025421                    000254210000000000000109                     I0225421     30101800000000035003410000017N200818104700000000000103010180000000000000000000000000000000000000000100001972684710ALEXANDRE MALAQUIAS DE SOUSA P          AVENIDA NELSON DE AQUINO                COROA GRANDE23825670ITAGUAI        RJUNIAO UMB DOS CULTOS AFRO BRAS    30101810 000213
10231987175000168817800093673    000025419                    000254190000000000000109                     I0225419     30101800000000035003410000017N200818104700000000000103010180000000000000000000000000000000000000000100000129467707SANDRA CRISTINA DOS SANTOS TIT          RUA DAVI                                CIDADE DE DE22777243JACAREPAGUA    RJUNIAO UMB DOS CULTOS AFRO BRAS    30101810 000214
10231987175000168817800093673    000025418                    000254180000000000000109                     I0225418     30101800000000035003410000017N200818104700000000000103010180000000000000000000000000000000000000000100060237090791ELIZABETH TELLES DA SILVA               ESTRADA OUTEIRO SANTO                   TAQUARA     22713164RIO DE JANEIRO RJUNIAO UMB DOS CULTOS AFRO BRAS    30101810 000215
10231987175000168817800093673    000025415                    000254150000000000000109                     I0225415     30101800000000035003410000017N200818104700000000000103010180000000000000000000000000000000000000000100038835568749MARIA DE ALCANTARA GOULART SIL          RUA GAMBIA                              JACAREPAGUA 22775400RIO DE JANEIRO RJUNIAO UMB DOS CULTOS AFRO BRAS    30101810 000216
10231987175000168817800093673    000025414                    000254140000000000000109                     I0225414     30101800000000035003410000017N200818104700000000000103010180000000000000000000000000000000000000000100014994285705JEFFERSON DOS SANTOS DA SILVA           ESTRADA DO PAU DA FOME                  TAQUARA     22723497RIO DE JANEIRO RJUNIAO UMB DOS CULTOS AFRO BRAS    30101810 000217
10231987175000168817800093673    000025412                    000254120000000000000109                     I0225412     30101800000000035003410000017N200818104700000000000103010180000000000000000000000000000000000000000100007103755736ALESSANDRA COSTA DE BARROS              PRACA OSCAR ROSSIM                      SEPETIBA    23540250RIO DE JANEIRO RJUNIAO UMB DOS CULTOS AFRO BRAS    30101810 000218
10231987175000168817800093673    000025410                    000254100000000000000109                     I0225410     30101800000000035003410000017N200818104700000000000103010180000000000000000000000000000000000000000100009946366797SIMONE SOARES NEA                       RUA FLAVIO RANGEL                       CAMPO GRANDE23085430RIO DE JANEIRO RJUNIAO UMB DOS CULTOS AFRO BRAS    30101810 000219
10231987175000168817800093673    000025408                    000254080000000000000109                     I0225408     30101800000000035003410000017N200818104700000000000103010180000000000000000000000000000000000000000100015834777724JOAO PAULO SALGUEIRO DA SILVA           RUA TUIBA                               VICENTE DE C21371170RIO DE JANEIRO RJUNIAO UMB DOS CULTOS AFRO BRAS    30101810 000220
10231987175000168817800093673    000025407                    000254070000000000000109                     I0225407     30101800000000035003410000017N200818104700000000000103010180000000000000000000000000000000000000000100002638717703EDINO GOMES DE BARROS JUNIOR            RUA PARANA                              MORRO DO ORI24400000SAO GONCALO    RJUNIAO UMB DOS CULTOS AFRO BRAS    30101810 000221
10231987175000168817800093673    000025404                    000254040000000000000109                     I0225404     30101800000000035003410000017N200818104700000000000103010180000000000000000000000000000000000000000100000497155770CINTIA MARTINS DA SILVA                 RUA POCONE                              ENCANTADO   20745090RIO DE JANEIRO RJUNIAO UMB DOS CULTOS AFRO BRAS    30101810 000222
10231987175000168817800093673    000025402                    000254020000000000000109                     I0225402     30101800000000035003410000017N200818104700000000000103010180000000000000000000000000000000000000000100001797738748PAULO CESAR LONATO SANTOS               RUA SAO MIGUEL ARCANJO                  SAO FRANCISC26011090CAMPO GRANDE   RJUNIAO UMB DOS CULTOS AFRO BRAS    30101810 000223
10231987175000168817800093673    000025401                    000254010000000000000109                     I0225401     30101800000000035003410000017N200818104700000000000103010180000000000000000000000000000000000000000100000000000000ALESSANDRA REIS DOS SANTOS              RUA MARIA TOMAZIA                       CABARAL     21321660RIO DE JANEIRO RJUNIAO UMB DOS CULTOS AFRO BRAS    30101810 000224
10231987175000168817800093673    000025396                    000253960000000000000109                     I0225396     30101800000000035003410000017N200818104700000000000103010180000000000000000000000000000000000000000100001857739744JORGE DE MORAES ESTANISLAU              RUA TITANIC                             REALENGO    21735620RIO DE JANEIRO RJUNIAO UMB DOS CULTOS AFRO BRAS    30101810 000225
10231987175000168817800093673    000025395                    000253950000000000000109                     I0225395     30101800000000035003410000017N200818104700000000000103010180000000000000000000000000000000000000000100010016543752ALEXANDRE TEIXEIRA CAVALCANTE           RUA DOUTOR NUNES                        OLARIA      21021370RIO DE JANEIRO RJUNIAO UMB DOS CULTOS AFRO BRAS    30101810 000226
10231987175000168817800093673    000025391                    000253910000000000000109                     I0225391     30101800000000035003410000017N200818104700000000000103010180000000000000000000000000000000000000000100011640644792MARLY SERPA BORGES                      RUA VISTA ALEGRE                        SANTA TERESA20251410RIO DE JANEIRO RJUNIAO UMB DOS CULTOS AFRO BRAS    30101810 000227
10231987175000168817800093673    000025389                    000253890000000000000109                     I0225389     30101800000000035003410000017N200818104700000000000103010180000000000000000000000000000000000000000100000559929781KLEBER SIQUEIRA CUNHA                   ESTRADA DO PIAI                         GUARATIBA   23028050RIO DE JANEIRO RJUNIAO UMB DOS CULTOS AFRO BRAS    30101810 000228
10231987175000168817800093673    000025384                    000253840000000000000109                     I0225384     30101800000000035003410000017N200818104700000000000103010180000000000000000000000000000000000000000100009199332701LUANDA MOREIRA DOS SANTOS FERN          RUA EMILIA BORBA                        SURUI       25931152RIO DE JANEIRO RJUNIAO UMB DOS CULTOS AFRO BRAS    30101810 000229
10231987175000168817800093673    000025382                    000253820000000000000109                     I0225382     30101800000000040003410000017N200818104700000000000103010180000000000000000000000000000000000000000100099363704734SUELY FERNANDES LAPAS OLIVEIRA          RUA SARUTAIA                            GUARATIBA   23032620RIO DE JANEIRO RJUNIAO UMB DOS CULTOS AFRO BRAS    30101810 000230
10231987175000168817800093673    000025381                    000253810000000000000109                     I0225381     30101800000000035003410000017N200818104700000000000103010180000000000000000000000000000000000000000100002102287768SERGIO RICARDO FERREIRA DOS SA          RUA LAGUNA                              NOVA PIAM   26116620BELFORD ROXO   RJUNIAO UMB DOS CULTOS AFRO BRAS    30101810 000231
10231987175000168817800093673    000025380                    000253800000000000000109                     I0225380     30101800000000035003410000017N200818104700000000000103010180000000000000000000000000000000000000000100076903729704ALUIZO NASCIMENTI DOS SANTOS            RUA DAS ROSAS                           VILA FORMOSA26051370NOVA IGUACU    RJUNIAO UMB DOS CULTOS AFRO BRAS    30101810 000232
10231987175000168817800093673    000025379                    000253790000000000000109                     I0225379     30101800000000035003410000017N200818104700000000000103010180000000000000000000000000000000000000000100003009392729MARIA DA PENHA FLORENCIO                RUA SABUJI DIM ROTSEN                   JARDIM ROTSE25270030DUQUE DE CAXIASRJUNIAO UMB DOS CULTOS AFRO BRAS    30101810 000233
10231987175000168817800093673    000025378                    000253780000000000000109                     I0225378     30101800000000035003410000017N200818104700000000000103010180000000000000000000000000000000000000000100001147868794VALERIA APARECIDA DE SOUZA              RUA ALCYR BRASIL                        JARDIM NOVA 26266010NOVA IGUACU    RJUNIAO UMB DOS CULTOS AFRO BRAS    30101810 000234
10231987175000168817800093673    000025377                    000253770000000000000109                     I0225377     30101800000000035003410000017N200818104700000000000103010180000000000000000000000000000000000000000100007900227709FLAVIA ARAUJO DA ROCHA SANTOS           RUA MARECHAL AGRICOLA                   REALENGO    21735370RIO DE JANEIRO RJUNIAO UMB DOS CULTOS AFRO BRAS    30101810 000235
10231987175000168817800093673    000025375                    000253750000000000000109                     I0225375     30101800000000035003410000017N200818104700000000000103010180000000000000000000000000000000000000000100005361904708VANESSA SANTIAGO DE AZEVEDO BA          AVENIDA TEIXEIRA DE CASTRO              RAMOS       21040113RIO DE JANEIRO RJUNIAO UMB DOS CULTOS AFRO BRAS    30101810 000236
10231987175000168817800093673    000025373                    000253730000000000000109                     I0225373     30101800000000035003410000017N200818104700000000000103010180000000000000000000000000000000000000000100010498307760WILLIAM ROSA DA COSTA                   RUA OITENTA                             IPIRANGA - M25927164MAGE           RJUNIAO UMB DOS CULTOS AFRO BRAS    30101810 000237
10231987175000168817800093673    000025372                    000253720000000000000109                     I0225372     30101800000000035003410000017N200818104700000000000103010180000000000000000000000000000000000000000100001430160754RITA DE CASSIA CORMACK DE CARV          RUA: MANOEL IVO                         VILA TRES - 24711030SAO GONCALO    RJUNIAO UMB DOS CULTOS AFRO BRAS    30101810 000238
10231987175000168817800093673    000025366                    000253660000000000000109                     I0225366     30101800000000035003410000017N200818104700000000000103010180000000000000000000000000000000000000000100012781404764RICARDO RIBEIRO DOS SANTOS              RUA ITAGIBA                             COSMOS      23060450RIO DE JANEIRO RJUNIAO UMB DOS CULTOS AFRO BRAS    30101810 000239
10231987175000168817800093673    000025363                    000253630000000000000109                     I0225363     30101800000000035003410000017N200818104700000000000103010180000000000000000000000000000000000000000100007708082714CRISTIANE DEODATO                       ESTRADA REAL DE MAUA                    MAUA        25927304MAGE           RJUNIAO UMB DOS CULTOS AFRO BRAS    30101810 000240
10231987175000168817800093673    000025362                    000253620000000000000109                     I0225362     30101800000000035003410000017N200818104700000000000103010180000000000000000000000000000000000000000100000000000000JUSSARA BALBINO GENUARIO                RUA DAS MARGARIDAS                      CHAPERO     23830240ITAGUAI        RJUNIAO UMB DOS CULTOS AFRO BRAS    30101810 000241
10231987175000168817800093673    000025361                    000253610000000000000109                     I0225361     30101800000000035003410000017N200818104700000000000103010180000000000000000000000000000000000000000100009959898776ANGELICA MONTEIRO DE OLIVEIRA           RUA CINCO                               CHAPERO     23831190ITAGUAI        RJUNIAO UMB DOS CULTOS AFRO BRAS    30101810 000242
10231987175000168817800093673    000025360                    000253600000000000000109                     I0225360     30101800000000035003410000017N200818104700000000000103010180000000000000000000000000000000000000000100080592368491MARIA JOSE PEREIRA NOGUEIRA DE          ALAMEDA GOIANIA                         ENGENHO DO R24752520SAO GONCALO    RJUNIAO UMB DOS CULTOS AFRO BRAS    30101810 000243
10231987175000168817800093673    000025359                    000253590000000000000109                     I0225359     30101800000000035003410000017N200818104700000000000103010180000000000000000000000000000000000000000100015295681700MICHEL FERNANDES BASTOS CRESPO          RUA ROSANGELA TOSTES                    PARQUE FLUMI26185260BELFORD ROXO   RJUNIAO UMB DOS CULTOS AFRO BRAS    30101810 000244
10231987175000168817800093673    000025358                    000253580000000000000109                     I0225358     30101800000000035003410000017N200818104700000000000103010180000000000000000000000000000000000000000100007809907735LUCIANA SANTOS DA SILVA                 BECO ADELIA                             NOSSA SENHOR21932003RIO DE JANEIRO RJUNIAO UMB DOS CULTOS AFRO BRAS    30101810 000245
10231987175000168817800093673    000025355                    000253550000000000000109                     I0225355     30101800000000035003410000017N200818104700000000000103010180000000000000000000000000000000000000000100090036018791SILVIA ELAINE GEVEGIR DA SILVA          RUA VINTE                               PARADA MORAB25265130DUQUE DE CAXIASRJUNIAO UMB DOS CULTOS AFRO BRAS    30101810 000246
10231987175000168817800093673    000025354                    000253540000000000000109                     I0225354     30101800000000035003410000017N200818104700000000000103010180000000000000000000000000000000000000000100014653084742THEILOR MORAIS DE MIRANDA               RUA SAO BENEDITO                        VILA GENI   23826010ITAGUAI        RJUNIAO UMB DOS CULTOS AFRO BRAS    30101810 000247
10231987175000168817800093673    000025350                    000253500000000000000109                     I0225350     30101800000000035003410000017N200818104700000000000103010180000000000000000000000000000000000000000100053606259769ROSILANE FRANCISCA DOS SANTOS           RUA ARTUR FARIAS                        RIO DO DOURO25922184MAGE           RJUNIAO UMB DOS CULTOS AFRO BRAS    30101810 000248
10231987175000168817800093673    000025349                    000253490000000000000109                     I0225349     30101800000000035003410000017N200818104700000000000103010180000000000000000000000000000000000000000100001084586797ANA GLORIA NONATO CASTILHO              RUA ANTONIO JOSE DE MORAES              PAVUNA      25515140RIO DE JANEIRO RJUNIAO UMB DOS CULTOS AFRO BRAS    30101810 000249
