01REMESSA01COBRANCA       817800093673        União Umb dos Cultos Afro Bra341BANCO ITAU SA  150119                                                                                                                                                                                                                                                                                                      000001
10231987175000168817800093673    000039538                    000395380000000000000109                     I0239538     28021900000000300003410000017N100119104700000000000102802190000000000000000000000000000000000000000100066391482772VERA LUCIA BARBOSA FERREIRA             RUA JOAO VICENTE                        MARECHAL HER21610210RIO DE JANEIRO RJUNIAO UMB DOS CULTOS AFRO BRAS    28021910 000002
10231987175000168817800093673    000039340                    000393400000000000000109                     I0239340     30031900000000040003410000017N261218104700000000000103003190000000000000000000000000000000000000000100010085511714JORGE THOMAZ JUNIOR                     RUA PARANA                              PIEDADE     20745250RIO DE JANEIRO RJUNIAO UMB DOS CULTOS AFRO BRAS    30031910 000003
10231987175000168817800093673    000039052                    000390520000000000000109                     I0239052     30031900000000040003410000017N261218104700000000000103003190000000000000000000000000000000000000000100091473209749CRISTOVAO JOSE DA SILVA MAGALH          RUA VICTORIO PEREIRA NUNES              CASTELANEA  25640262PETROPOLIS     RJUNIAO UMB DOS CULTOS AFRO BRAS    30031910 000004
10231987175000168817800093673    000038917                    000389170000000000000109                     I0238917     30031900000000040003410000017N261218104700000000000103003190000000000000000000000000000000000000000100078790344715ROSANE ESTEVES DOS SANTOS               RUA 49                                  JARDIM DA PA25010730MAGE           RJUNIAO UMB DOS CULTOS AFRO BRAS    30031910 000005
10231987175000168817800093673    000038723                    000387230000000000000109                     I0238723     30031900000000040003410000017N261218104700000000000103003190000000000000000000000000000000000000000100011790209790NOILDA SANTIAGO DA SILVA                RUA ADRIANA                             VALVERDE    26290645NOVA IGUACU    RJUNIAO UMB DOS CULTOS AFRO BRAS    30031910 000006
10231987175000168817800093673    000038610                    000386100000000000000109                     I0238610     30031900000000040003410000017N261218104700000000000103003190000000000000000000000000000000000000000100009488185732RODRIGO MARTINS DE ANDRADE              RUA CASTRO LOPES                        INHAUMA     20766050RIO DE JANEIRO RJUNIAO UMB DOS CULTOS AFRO BRAS    30031910 000007
10231987175000168817800093673    000037491                    000374910000000000000109                     I0237491     30031900000000040003410000017N261218104700000000000103003190000000000000000000000000000000000000000100000000000513JOSE PAULO DA SILVA MARCELINO           RUA ITABAGUA,                           RICARDO DE A21620310RIO DE JANEIRO RJUNIAO UMB DOS CULTOS AFRO BRAS    30031910 000008
10231987175000168817800093673    000037421                    000374210000000000000109                     I0237421     28021900000000040003410000017N261218104700000000000102802190000000000000000000000000000000000000000100010085511714JORGE THOMAZ JUNIOR                     RUA PARANA                              PIEDADE     20745250RIO DE JANEIRO RJUNIAO UMB DOS CULTOS AFRO BRAS    28021910 000009
10231987175000168817800093673    000037133                    000371330000000000000109                     I0237133     28021900000000040003410000017N261218104700000000000102802190000000000000000000000000000000000000000100091473209749CRISTOVAO JOSE DA SILVA MAGALH          RUA VICTORIO PEREIRA NUNES              CASTELANEA  25640262PETROPOLIS     RJUNIAO UMB DOS CULTOS AFRO BRAS    28021910 000010
10231987175000168817800093673    000036998                    000369980000000000000109                     I0236998     28021900000000040003410000017N261218104700000000000102802190000000000000000000000000000000000000000100078790344715ROSANE ESTEVES DOS SANTOS               RUA 49                                  JARDIM DA PA25010730MAGE           RJUNIAO UMB DOS CULTOS AFRO BRAS    28021910 000011
10231987175000168817800093673    000036805                    000368050000000000000109                     I0236805     28021900000000040003410000017N261218104700000000000102802190000000000000000000000000000000000000000100011790209790NOILDA SANTIAGO DA SILVA                RUA ADRIANA                             VALVERDE    26290645NOVA IGUACU    RJUNIAO UMB DOS CULTOS AFRO BRAS    28021910 000012
10231987175000168817800093673    000036693                    000366930000000000000109                     I0236693     28021900000000040003410000017N261218104700000000000102802190000000000000000000000000000000000000000100009488185732RODRIGO MARTINS DE ANDRADE              RUA CASTRO LOPES                        INHAUMA     20766050RIO DE JANEIRO RJUNIAO UMB DOS CULTOS AFRO BRAS    28021910 000013
10231987175000168817800093673    000035579                    000355790000000000000109                     I0235579     28021900000000040003410000017N261218104700000000000102802190000000000000000000000000000000000000000100000000000513JOSE PAULO DA SILVA MARCELINO           RUA ITABAGUA,                           RICARDO DE A21620310RIO DE JANEIRO RJUNIAO UMB DOS CULTOS AFRO BRAS    28021910 000014
10231987175000168817800093673    000035508                    000355080000000000000109                     I0235508     31011900000000040003410000017N261218104700000000000103101190000000000000000000000000000000000000000100010085511714JORGE THOMAZ JUNIOR                     RUA PARANA                              PIEDADE     20745250RIO DE JANEIRO RJUNIAO UMB DOS CULTOS AFRO BRAS    31011910 000015
10231987175000168817800093673    000035222                    000352220000000000000109                     I0235222     31011900000000040003410000017N261218104700000000000103101190000000000000000000000000000000000000000100091473209749CRISTOVAO JOSE DA SILVA MAGALH          RUA VICTORIO PEREIRA NUNES              CASTELANEA  25640262PETROPOLIS     RJUNIAO UMB DOS CULTOS AFRO BRAS    31011910 000016
10231987175000168817800093673    000035088                    000350880000000000000109                     I0235088     31011900000000040003410000017N261218104700000000000103101190000000000000000000000000000000000000000100078790344715ROSANE ESTEVES DOS SANTOS               RUA 49                                  JARDIM DA PA25010730MAGE           RJUNIAO UMB DOS CULTOS AFRO BRAS    31011910 000017
10231987175000168817800093673    000034895                    000348950000000000000109                     I0234895     31011900000000040003410000017N261218104700000000000103101190000000000000000000000000000000000000000100011790209790NOILDA SANTIAGO DA SILVA                RUA ADRIANA                             VALVERDE    26290645NOVA IGUACU    RJUNIAO UMB DOS CULTOS AFRO BRAS    31011910 000018
10231987175000168817800093673    000034783                    000347830000000000000109                     I0234783     31011900000000040003410000017N261218104700000000000103101190000000000000000000000000000000000000000100009488185732RODRIGO MARTINS DE ANDRADE              RUA CASTRO LOPES                        INHAUMA     20766050RIO DE JANEIRO RJUNIAO UMB DOS CULTOS AFRO BRAS    31011910 000019
10231987175000168817800093673    000033679                    000336790000000000000109                     I0233679     31011900000000040003410000017N261218104700000000000103101190000000000000000000000000000000000000000100000000000513JOSE PAULO DA SILVA MARCELINO           RUA ITABAGUA,                           RICARDO DE A21620310RIO DE JANEIRO RJUNIAO UMB DOS CULTOS AFRO BRAS    31011910 000020
10231987175000168817800093673    000033378                    000333780000000000000109                     I0233378     20121800000000350003410000017N071118104700000000000102012180000000000000000000000000000000000000000100010085511714JORGE THOMAZ JUNIOR                     RUA PARANA                              PIEDADE     20745250RIO DE JANEIRO RJUNIAO UMB DOS CULTOS AFRO BRAS    20121810 000021
10231987175000168817800093673    000033377                    000333770000000000000109                     I0233377     20121800000000040003410000017N071118104700000000000102012180000000000000000000000000000000000000000100010085511714JORGE THOMAZ JUNIOR                     RUA PARANA                              PIEDADE     20745250RIO DE JANEIRO RJUNIAO UMB DOS CULTOS AFRO BRAS    20121810 000022
10231987175000168817800093673    000032912                    000329120000000000000109                     I0232912     20121800000000350003410000017N291018104700000000000102012180000000000000000000000000000000000000000100002846505608DIONE ROSA FERNANDES                    RUA MARQUES DE LEAO                     ENGENHO NOVO20780140RIO DE JANEIRO RJUNIAO UMB DOS CULTOS AFRO BRAS    20121810 000023
10231987175000168817800093673    000032699                    000326990000000000000109                     I0232699     20121800000000350003410000017N291018104700000000000102012180000000000000000000000000000000000000000100078790344715ROSANE ESTEVES DOS SANTOS               RUA 49                                  JARDIM DA PA25010730MAGE           RJUNIAO UMB DOS CULTOS AFRO BRAS    20121810 000024
10231987175000168817800093673    000032652                    000326520000000000000109                     I0132652     22011900000000400003410000017N291018104700000000000102201190000000000000000000000000000000000000000100009258472756FILIPI JUNGER BRANCO BRASIL             RUA 37 A                                JARDIM ATLAN24935445RIO DE JANEIRO RJUNIAO UMB DOS CULTOS AFRO BRAS    22011910 000025
10231987175000168817800093673    000032427                    000324270000000000000109                     I0232427     20121800000000350003410000017N291018104700000000000102012180000000000000000000000000000000000000000100011790209790NOILDA SANTIAGO DA SILVA                RUA ADRIANA                             VALVERDE    26290645NOVA IGUACU    RJUNIAO UMB DOS CULTOS AFRO BRAS    20121810 000026
10231987175000168817800093673    000030703                    000307030000000000000109                     I0230703     20121800000000350003410000017N291018104700000000000102012180000000000000000000000000000000000000000100001045146714ELIANE RIBEIRO MACEDO                   RUA SANTA GLICERIA                      PADRE MIGUEL21725320RIO DE JANEIRO RJUNIAO UMB DOS CULTOS AFRO BRAS    20121810 000027
10231987175000168817800093673    000030464                    000304640000000000000109                     I0230464     20121800000000350003410000017N291018104700000000000102012180000000000000000000000000000000000000000100000000000513JOSE PAULO DA SILVA MARCELINO           RUA ITABAGUA,                           RICARDO DE A21620310RIO DE JANEIRO RJUNIAO UMB DOS CULTOS AFRO BRAS    20121810 000028
10231987175000168817800093673    000030124                    000301240000000000000109                     I0230124     20121800000000035003410000017N291018104700000000000102012180000000000000000000000000000000000000000100002846505608DIONE ROSA FERNANDES                    RUA MARQUES DE LEAO                     ENGENHO NOVO20780140RIO DE JANEIRO RJUNIAO UMB DOS CULTOS AFRO BRAS    20121810 000029
10231987175000168817800093673    000030003                    000300030000000000000109                     I0230003     20121800000000035003410000017N291018104700000000000102012180000000000000000000000000000000000000000100078790344715ROSANE ESTEVES DOS SANTOS               RUA 49                                  JARDIM DA PA25010730MAGE           RJUNIAO UMB DOS CULTOS AFRO BRAS    20121810 000030
10231987175000168817800093673    000029654                    000296540000000000000109                     I0229654     20121800000000040003410000017N291018104700000000000102012180000000000000000000000000000000000000000100001647427789SELMA CRISTINA DE HOLANDA PERR          AVENIDA MANAUS                          TRINDADE    24456320SAO GONCALO    RJUNIAO UMB DOS CULTOS AFRO BRAS    20121810 000031
10231987175000168817800093673    000028102                    000281020000000000000109                     I0228102     30111800000000035003410000017N200818104700000000000103011180000000000000000000000000000000000000000100078790344715ROSANE ESTEVES DOS SANTOS               RUA 49                                  JARDIM DA PA25010730MAGE           RJUNIAO UMB DOS CULTOS AFRO BRAS    30111810 000032
10231987175000168817800093673    000027730                    000277300000000000000109                     I0227730     30111800000000035003410000017N200818104700000000000103011180000000000000000000000000000000000000000100001647427789SELMA CRISTINA DE HOLANDA PERR          AVENIDA MANAUS                          TRINDADE    24456320SAO GONCALO    RJUNIAO UMB DOS CULTOS AFRO BRAS    30111810 000033
10231987175000168817800093673    000027356                    000273560000000000000109                     I0227356     30111800000000035003410000017N200818104700000000000103011180000000000000000000000000000000000000000100066391482772VERA LUCIA BARBOSA FERREIRA             RUA JOAO VICENTE                        MARECHAL HER21610210RIO DE JANEIRO RJUNIAO UMB DOS CULTOS AFRO BRAS    30111810 000034
9                                                                                                                                                                                                                                                                                                                                                                                                         000035
