01REMESSA01COBRANCA       817800093673        União Umb dos Cultos Afro Bra341BANCO ITAU SA  020819                                                                                                                                                                                                                                                                                                      000001
10231987175000168817800093673    000050264                    000502640000000000000109                     I0150264     09081900000000040003410000017N020819105700000000000130908190000000000000000000000000000000000000000100076658961700BEATRIZ DIAS DO NASCIMENTO              RUA SAO BRUNON 55, APT 301              PENHA       21021160RIO DE JANEIRO RJUNIAO UMB DOS CULTOS AFRO BRAS    09081915 000002
21090820190000000000080                                                                                                                                                                                                                                                                                                                                                                                   000003
10231987175000168817800093673    000049278                    000492780000000000000109                     I0249278     30091900000000040003410000017N100619105700000000000133009190000000000000000000000000000000000000000100037465732700NADIA MARIA DE BRITTO LUCENA            RUA LIBERATO BITTENCOURTN 170,          MAGALHAES BA21735120RIO DE JANEIRO RJUNIAO UMB DOS CULTOS AFRO BRAS    30091915 000004
21300920190000000000080                                                                                                                                                                                                                                                                                                                                                                                   000005
10231987175000168817800093673    000048654                    000486540000000000000109                     I0248654     30091900000000040003410000017N100619105700000000000133009190000000000000000000000000000000000000000100065196171720MARIA DAS GRACAS OLIVEIRA               RUA FRANCISCO MANOEL N 22,              PONTO CHIQUE26032835NOVA IGUACU    RJUNIAO UMB DOS CULTOS AFRO BRAS    30091915 000006
21300920190000000000080                                                                                                                                                                                                                                                                                                                                                                                   000007
10231987175000168817800093673    000047836                    000478360000000000000109                     I0247836     30081900000000040003410000017N100619105700000000000133008190000000000000000000000000000000000000000100037465732700NADIA MARIA DE BRITTO LUCENA            RUA LIBERATO BITTENCOURTN 170,          MAGALHAES BA21735120RIO DE JANEIRO RJUNIAO UMB DOS CULTOS AFRO BRAS    30081915 000008
21300820190000000000080                                                                                                                                                                                                                                                                                                                                                                                   000009
10231987175000168817800093673    000047217                    000472170000000000000109                     I0247217     30081900000000040003410000017N100619105700000000000133008190000000000000000000000000000000000000000100065196171720MARIA DAS GRACAS OLIVEIRA               RUA FRANCISCO MANOEL N 22,              PONTO CHIQUE26032835NOVA IGUACU    RJUNIAO UMB DOS CULTOS AFRO BRAS    30081915 000010
21300820190000000000080                                                                                                                                                                                                                                                                                                                                                                                   000011
10231987175000168817800093673    000046403                    000464030000000000000109                     I0246403     30071900000000040003410000017N100619105700000000000133007190000000000000000000000000000000000000000100037465732700NADIA MARIA DE BRITTO LUCENA            RUA LIBERATO BITTENCOURTN 170,          MAGALHAES BA21735120RIO DE JANEIRO RJUNIAO UMB DOS CULTOS AFRO BRAS    30071915 000012
21300720190000000000080                                                                                                                                                                                                                                                                                                                                                                                   000013
10231987175000168817800093673    000046339                    000463390000000000000109                     I0246339     30071900000000040003410000017N100619105700000000000133007190000000000000000000000000000000000000000100079227422749ROGERIO DOS SANTOS                      RUA LOURENCO CAMPOSN 156, CASA 1        SAO MATEUS  25525711SAO JOAO DE MERRJUNIAO UMB DOS CULTOS AFRO BRAS    30071915 000014
21300720190000000000080                                                                                                                                                                                                                                                                                                                                                                                   000015
10231987175000168817800093673    000046251                    000462510000000000000109                     I0246251     30071900000000040003410000017N100619105700000000000133007190000000000000000000000000000000000000000100058369473768INDIODIRIA SANTANA DA SILVA             RUA LUIZ CARLOS DE OLIVEIRAN 666, - JARDMIGUEL COUTO26070209NOVA IGUACU    RJUNIAO UMB DOS CULTOS AFRO BRAS    30071915 000016
21300720190000000000080                                                                                                                                                                                                                                                                                                                                                                                   000017
10231987175000168817800093673    000045906                    000459060000000000000109                     I0245906     30071900000000040003410000017N100619105700000000000133007190000000000000000000000000000000000000000100005209152758LAZARO OLIVEIRA DE ARAUJO               RUA MULULO DA VEIGAN 1045,              NEVES       24425460SAO GONCALO    RJUNIAO UMB DOS CULTOS AFRO BRAS    30071915 000018
21300720190000000000080                                                                                                                                                                                                                                                                                                                                                                                   000019
10231987175000168817800093673    000045792                    000457920000000000000109                     I0245792     30071900000000040003410000017N100619105700000000000133007190000000000000000000000000000000000000000100065196171720MARIA DAS GRACAS OLIVEIRA               RUA FRANCISCO MANOEL N 22,              PONTO CHIQUE26032835NOVA IGUACU    RJUNIAO UMB DOS CULTOS AFRO BRAS    30071915 000020
21300720190000000000080                                                                                                                                                                                                                                                                                                                                                                                   000021
9                                                                                                                                                                                                                                                                                                                                                                                                         000022
