01REMESSA01COBRANCA       916200163100        União Umb dos Cultos Afro Bra341BANCO ITAU SA  040118                                                                                                                                                                                                                                                                                                      000001
10231987175000168916200163100    00008539                     000085390000000000000109                     I018539      31011800000000035003410000017N020118050900000000000103101180000000000000000000000000000000000000000100066391482772VERA LUCIA BARBOSA FERREIRA (D          RUA JOAO VICENTE N 1695 SOBRADO         MARECHAL HER21610210RIO DE JANEIRO RJUNIAO UMB DOS CULTOS AFRO BRAS    31011810 000002
10231987175000168916200163100    00002833                     000028330000000000000109                     I012833      31121700000000035003410000017N131117050900000000000103112170000000000000000000000000000000000000000100000261600729ELIANE ZELIA DE OLIVEIRA                RUA VENANCIO AIRES, 1781                GRAMACHO - D25035340DUQUE DE CAXIASRJUNIAO UMB DOS CULTOS AFRO BRAS    31121710 000003
9                                                                                                                                                                                                                                                                                                                                                                                                         000004
