01REMESSA01COBRANCA       817800093673        União Umb dos Cultos Afro Bra341BANCO ITAU SA  030119                                                                                                                                                                                                                                                                                                      000001
10231987175000168817800093673    000039283                    000392830000000000000109                     I0239283     30031900000000040003410000017N261218104700000000000103003190000000000000000000000000000000000000000100067559697704LENILSON PEREIRA DA COSTA               TRAVESSA MANUEL ANGELO                  AREAL       24800566ITABORAI       RJUNIAO UMB DOS CULTOS AFRO BRAS    30031910 000002
10231987175000168817800093673    000039028                    000390280000000000000109                     I0239028     30031900000000040003410000017N261218104700000000000103003190000000000000000000000000000000000000000100080592368491MARIA JOSE PEREIRA NOGUEIRA DE          ALAMEDA GOIANIA                         ENGENHO DO R24752520SAO GONCALO    RJUNIAO UMB DOS CULTOS AFRO BRAS    30031910 000003
10231987175000168817800093673    000038585                    000385850000000000000109                     I0238585     30031900000000040003410000017N261218104700000000000103003190000000000000000000000000000000000000000100044339682772MARIA APARECIDA DE MOURA MORTA          RUA CARLOS COSTA                        RIACHUELO   20970090RIO DE JANEIRO RJUNIAO UMB DOS CULTOS AFRO BRAS    30031910 000004
10231987175000168817800093673    000038368                    000383680000000000000109                     I0238368     30031900000000040003410000017N261218104700000000000103003190000000000000000000000000000000000000000100024391573768RENATO SILVA HOTTZ                      RUA GENERAL PEREIRA DA SILVA            ICARAI      24220031NITEROI        RJUNIAO UMB DOS CULTOS AFRO BRAS    30031910 000005
10231987175000168817800093673    000038138                    000381380000000000000109                     I0238138     30031900000000040003410000017N261218104700000000000103003190000000000000000000000000000000000000000100091892627787JUSSARA MELLO DOS SANTOS OLIVE          RUA ANANIAS ANTERO DA COSTA             EDEN        25545090RIO DE JANEIRO RJUNIAO UMB DOS CULTOS AFRO BRAS    30031910 000006
10231987175000168817800093673    000038127                    000381270000000000000109                     I0238127     30031900000000040003410000017N261218104700000000000103003190000000000000000000000000000000000000000100054371333753MARIZETE ALVES DA SILVA                 RUA DELHIR                              ANCHIETA    00000000RIO DE JANEIRO RJUNIAO UMB DOS CULTOS AFRO BRAS    30031910 000007
10231987175000168817800093673    000038114                    000381140000000000000109                     I0238114     30031900000000040003410000017N261218104700000000000103003190000000000000000000000000000000000000000100096017376772EDUARDO ARRUDA DE ABREU                 RUA FRANCISCA DANTAS                    CENTRO      25525030SAO JOAO DE MERRJUNIAO UMB DOS CULTOS AFRO BRAS    30031910 000008
10231987175000168817800093673    000037750                    000377500000000000000109                     I0237750     30031900000000040003410000017N261218104700000000000103003190000000000000000000000000000000000000000100063618885768CELSO MORAES LUIZ                       RUA FERNANDES DA CUNHA                  VIGARIO GERA21241300RIO DE JANEIRO RJUNIAO UMB DOS CULTOS AFRO BRAS    30031910 000009
10231987175000168817800093673    000037724                    000377240000000000000109                     I0237724     30031900000000040003410000017N261218104700000000000103003190000000000000000000000000000000000000000100047986590700ALMERINDA RIBEIRO BARROS                RUA NEIDE AFONSO                        NOVO ELDORAD26150020BELFORD ROXO   RJUNIAO UMB DOS CULTOS AFRO BRAS    30031910 000010
10231987175000168817800093673    000037694                    000376940000000000000109                     I0237694     30031900000000040003410000017N261218104700000000000103003190000000000000000000000000000000000000000100064075923720MARIA EDITE MERENCIANA                  AVENIDA PAPA JOAO XXIII                 RIO VARZEA  24812010ITABORAI       RJUNIAO UMB DOS CULTOS AFRO BRAS    30031910 000011
10231987175000168817800093673    000037655                    000376550000000000000109                     I0237655     30031900000000040003410000017N261218104700000000000103003190000000000000000000000000000000000000000100024392367720ERENITE BARROSO PEREIRA                 RUA FULGENCIO OLEGARIO DANTAS           BRASILANDIA 24465270SAO GONCALO    RJUNIAO UMB DOS CULTOS AFRO BRAS    30031910 000012
10231987175000168817800093673    000037364                    000373640000000000000109                     I0237364     28021900000000040003410000017N261218104700000000000102802190000000000000000000000000000000000000000100067559697704LENILSON PEREIRA DA COSTA               TRAVESSA MANUEL ANGELO                  AREAL       24800566ITABORAI       RJUNIAO UMB DOS CULTOS AFRO BRAS    28021910 000013
10231987175000168817800093673    000037109                    000371090000000000000109                     I0237109     28021900000000040003410000017N261218104700000000000102802190000000000000000000000000000000000000000100080592368491MARIA JOSE PEREIRA NOGUEIRA DE          ALAMEDA GOIANIA                         ENGENHO DO R24752520SAO GONCALO    RJUNIAO UMB DOS CULTOS AFRO BRAS    28021910 000014
10231987175000168817800093673    000036668                    000366680000000000000109                     I0236668     28021900000000040003410000017N261218104700000000000102802190000000000000000000000000000000000000000100044339682772MARIA APARECIDA DE MOURA MORTA          RUA CARLOS COSTA                        RIACHUELO   20970090RIO DE JANEIRO RJUNIAO UMB DOS CULTOS AFRO BRAS    28021910 000015
10231987175000168817800093673    000036451                    000364510000000000000109                     I0236451     28021900000000040003410000017N261218104700000000000102802190000000000000000000000000000000000000000100024391573768RENATO SILVA HOTTZ                      RUA GENERAL PEREIRA DA SILVA            ICARAI      24220031NITEROI        RJUNIAO UMB DOS CULTOS AFRO BRAS    28021910 000016
10231987175000168817800093673    000036222                    000362220000000000000109                     I0236222     28021900000000040003410000017N261218104700000000000102802190000000000000000000000000000000000000000100091892627787JUSSARA MELLO DOS SANTOS OLIVE          RUA ANANIAS ANTERO DA COSTA             EDEN        25545090RIO DE JANEIRO RJUNIAO UMB DOS CULTOS AFRO BRAS    28021910 000017
10231987175000168817800093673    000036211                    000362110000000000000109                     I0236211     28021900000000040003410000017N261218104700000000000102802190000000000000000000000000000000000000000100054371333753MARIZETE ALVES DA SILVA                 RUA DELHIR                              ANCHIETA    00000000RIO DE JANEIRO RJUNIAO UMB DOS CULTOS AFRO BRAS    28021910 000018
10231987175000168817800093673    000036198                    000361980000000000000109                     I0236198     28021900000000040003410000017N261218104700000000000102802190000000000000000000000000000000000000000100096017376772EDUARDO ARRUDA DE ABREU                 RUA FRANCISCA DANTAS                    CENTRO      25525030SAO JOAO DE MERRJUNIAO UMB DOS CULTOS AFRO BRAS    28021910 000019
10231987175000168817800093673    000035837                    000358370000000000000109                     I0235837     28021900000000040003410000017N261218104700000000000102802190000000000000000000000000000000000000000100063618885768CELSO MORAES LUIZ                       RUA FERNANDES DA CUNHA                  VIGARIO GERA21241300RIO DE JANEIRO RJUNIAO UMB DOS CULTOS AFRO BRAS    28021910 000020
10231987175000168817800093673    000035811                    000358110000000000000109                     I0235811     28021900000000040003410000017N261218104700000000000102802190000000000000000000000000000000000000000100047986590700ALMERINDA RIBEIRO BARROS                RUA NEIDE AFONSO                        NOVO ELDORAD26150020BELFORD ROXO   RJUNIAO UMB DOS CULTOS AFRO BRAS    28021910 000021
10231987175000168817800093673    000035781                    000357810000000000000109                     I0235781     28021900000000040003410000017N261218104700000000000102802190000000000000000000000000000000000000000100064075923720MARIA EDITE MERENCIANA                  AVENIDA PAPA JOAO XXIII                 RIO VARZEA  24812010ITABORAI       RJUNIAO UMB DOS CULTOS AFRO BRAS    28021910 000022
10231987175000168817800093673    000035742                    000357420000000000000109                     I0235742     28021900000000040003410000017N261218104700000000000102802190000000000000000000000000000000000000000100024392367720ERENITE BARROSO PEREIRA                 RUA FULGENCIO OLEGARIO DANTAS           BRASILANDIA 24465270SAO GONCALO    RJUNIAO UMB DOS CULTOS AFRO BRAS    28021910 000023
10231987175000168817800093673    000035451                    000354510000000000000109                     I0235451     31011900000000040003410000017N261218104700000000000103101190000000000000000000000000000000000000000100067559697704LENILSON PEREIRA DA COSTA               TRAVESSA MANUEL ANGELO                  AREAL       24800566ITABORAI       RJUNIAO UMB DOS CULTOS AFRO BRAS    31011910 000024
10231987175000168817800093673    000035198                    000351980000000000000109                     I0235198     31011900000000040003410000017N261218104700000000000103101190000000000000000000000000000000000000000100080592368491MARIA JOSE PEREIRA NOGUEIRA DE          ALAMEDA GOIANIA                         ENGENHO DO R24752520SAO GONCALO    RJUNIAO UMB DOS CULTOS AFRO BRAS    31011910 000025
10231987175000168817800093673    000034758                    000347580000000000000109                     I0234758     31011900000000040003410000017N261218104700000000000103101190000000000000000000000000000000000000000100044339682772MARIA APARECIDA DE MOURA MORTA          RUA CARLOS COSTA                        RIACHUELO   20970090RIO DE JANEIRO RJUNIAO UMB DOS CULTOS AFRO BRAS    31011910 000026
10231987175000168817800093673    000034542                    000345420000000000000109                     I0234542     31011900000000040003410000017N261218104700000000000103101190000000000000000000000000000000000000000100024391573768RENATO SILVA HOTTZ                      RUA GENERAL PEREIRA DA SILVA            ICARAI      24220031NITEROI        RJUNIAO UMB DOS CULTOS AFRO BRAS    31011910 000027
10231987175000168817800093673    000034314                    000343140000000000000109                     I0234314     31011900000000040003410000017N261218104700000000000103101190000000000000000000000000000000000000000100091892627787JUSSARA MELLO DOS SANTOS OLIVE          RUA ANANIAS ANTERO DA COSTA             EDEN        25545090RIO DE JANEIRO RJUNIAO UMB DOS CULTOS AFRO BRAS    31011910 000028
10231987175000168817800093673    000034303                    000343030000000000000109                     I0234303     31011900000000040003410000017N261218104700000000000103101190000000000000000000000000000000000000000100054371333753MARIZETE ALVES DA SILVA                 RUA DELHIR                              ANCHIETA    00000000RIO DE JANEIRO RJUNIAO UMB DOS CULTOS AFRO BRAS    31011910 000029
10231987175000168817800093673    000034290                    000342900000000000000109                     I0234290     31011900000000040003410000017N261218104700000000000103101190000000000000000000000000000000000000000100096017376772EDUARDO ARRUDA DE ABREU                 RUA FRANCISCA DANTAS                    CENTRO      25525030SAO JOAO DE MERRJUNIAO UMB DOS CULTOS AFRO BRAS    31011910 000030
10231987175000168817800093673    000033934                    000339340000000000000109                     I0233934     31011900000000040003410000017N261218104700000000000103101190000000000000000000000000000000000000000100063618885768CELSO MORAES LUIZ                       RUA FERNANDES DA CUNHA                  VIGARIO GERA21241300RIO DE JANEIRO RJUNIAO UMB DOS CULTOS AFRO BRAS    31011910 000031
10231987175000168817800093673    000033908                    000339080000000000000109                     I0233908     31011900000000040003410000017N261218104700000000000103101190000000000000000000000000000000000000000100047986590700ALMERINDA RIBEIRO BARROS                RUA NEIDE AFONSO                        NOVO ELDORAD26150020BELFORD ROXO   RJUNIAO UMB DOS CULTOS AFRO BRAS    31011910 000032
10231987175000168817800093673    000033879                    000338790000000000000109                     I0233879     31011900000000040003410000017N261218104700000000000103101190000000000000000000000000000000000000000100064075923720MARIA EDITE MERENCIANA                  AVENIDA PAPA JOAO XXIII                 RIO VARZEA  24812010ITABORAI       RJUNIAO UMB DOS CULTOS AFRO BRAS    31011910 000033
10231987175000168817800093673    000033840                    000338400000000000000109                     I0233840     31011900000000040003410000017N261218104700000000000103101190000000000000000000000000000000000000000100024392367720ERENITE BARROSO PEREIRA                 RUA FULGENCIO OLEGARIO DANTAS           BRASILANDIA 24465270SAO GONCALO    RJUNIAO UMB DOS CULTOS AFRO BRAS    31011910 000034
10231987175000168817800093673    000031528                    000315280000000000000109                     I0231528     20121800000000350003410000017N291018104700000000000102012180000000000000000000000000000000000000000100054371333753MARIZETE ALVES DA SILVA                 RUA DELHIR                              ANCHIETA    00000000RIO DE JANEIRO RJUNIAO UMB DOS CULTOS AFRO BRAS    20121810 000035
10231987175000168817800093673    000030912                    000309120000000000000109                     I0230912     20121800000000400003410000017N291018104700000000000102012180000000000000000000000000000000000000000100063618885768CELSO MORAES LUIZ                       RUA FERNANDES DA CUNHA                  VIGARIO GERA21241300RIO DE JANEIRO RJUNIAO UMB DOS CULTOS AFRO BRAS    20121810 000036
10231987175000168817800093673    000030868                    000308680000000000000109                     I0230868     20121800000000350003410000017N291018104700000000000102012180000000000000000000000000000000000000000100047986590700ALMERINDA RIBEIRO BARROS                RUA NEIDE AFONSO                        NOVO ELDORAD26150020BELFORD ROXO   RJUNIAO UMB DOS CULTOS AFRO BRAS    20121810 000037
10231987175000168817800093673    000030855                    000308550000000000000109                     I0230855     20121800000000350003410000017N291018104700000000000102012180000000000000000000000000000000000000000100066391482772VERA LUCIA BARBOSA FERREIRA             RUA APARECIDA                           EDEN        25535020SAO JOAO DE MERRJUNIAO UMB DOS CULTOS AFRO BRAS    20121810 000038
10231987175000168817800093673    000030377                    000303770000000000000109                     I0230377     20121800000000040003410000017N291018104700000000000102012180000000000000000000000000000000000000000100009060523784MARTA ANJOS PEREIRA DO NASCIME          AVENIDA MARECHAL RONDON                 SAMPAIO     20950071RIO DE JANEIRO RJUNIAO UMB DOS CULTOS AFRO BRAS    20121810 000039
10231987175000168817800093673    000030094                    000300940000000000000109                     I0230094     20121800000000035003410000017N291018104700000000000102012180000000000000000000000000000000000000000100080592368491MARIA JOSE PEREIRA NOGUEIRA DE          ALAMEDA GOIANIA                         ENGENHO DO R24752520SAO GONCALO    RJUNIAO UMB DOS CULTOS AFRO BRAS    20121810 000040
10231987175000168817800093673    000028197                    000281970000000000000109                     I0228197     30111800000000035003410000017N200818104700000000000103011180000000000000000000000000000000000000000100080592368491MARIA JOSE PEREIRA NOGUEIRA DE          ALAMEDA GOIANIA                         ENGENHO DO R24752520SAO GONCALO    RJUNIAO UMB DOS CULTOS AFRO BRAS    30111810 000041
9                                                                                                                                                                                                                                                                                                                                                                                                         000042
