01REMESSA01COBRANCA       817800093673        União Umb dos Cultos Afro Bra341BANCO ITAU SA  270818                                                                                                                                                                                                                                                                                                      000001
10231987175000168817800093673    000028595                    000285950000000000000109                     I0128595     30111800000000035003410000017N270818104700000000000103011180000000000000000000000000000000000000000100034727272768JOSEFINA AGUIAR CASTRO                  RUA DOUTOR NELSON FERNANDES             PARQUE CAPIV25900000DUQUE DE CAXIASRJUNIAO UMB DOS CULTOS AFRO BRAS    30111810 000002
10231987175000168817800093673    000028594                    000285940000000000000109                     I0128594     30101800000000035003410000017N270818104700000000000103010180000000000000000000000000000000000000000100034727272768JOSEFINA AGUIAR CASTRO                  RUA DOUTOR NELSON FERNANDES             PARQUE CAPIV25900000DUQUE DE CAXIASRJUNIAO UMB DOS CULTOS AFRO BRAS    30101810 000003
10231987175000168817800093673    000028593                    000285930000000000000109                     I0128593     30091800000000035003410000017N270818104700000000000103009180000000000000000000000000000000000000000100034727272768JOSEFINA AGUIAR CASTRO                  RUA DOUTOR NELSON FERNANDES             PARQUE CAPIV25900000DUQUE DE CAXIASRJUNIAO UMB DOS CULTOS AFRO BRAS    30091810 000004
10231987175000168817800093673    000028592                    000285920000000000000109                     I0128592     30111800000000035003410000017N270818104700000000000103011180000000000000000000000000000000000000000100068117850710GILCLEIDE DOS SANTOS GOMES              AVENIDA JOAO VINTE E TRES               SANTA CRUZ  23560352RIO DE JANEIRO RJUNIAO UMB DOS CULTOS AFRO BRAS    30111810 000005
10231987175000168817800093673    000028591                    000285910000000000000109                     I0128591     30101800000000035003410000017N270818104700000000000103010180000000000000000000000000000000000000000100068117850710GILCLEIDE DOS SANTOS GOMES              AVENIDA JOAO VINTE E TRES               SANTA CRUZ  23560352RIO DE JANEIRO RJUNIAO UMB DOS CULTOS AFRO BRAS    30101810 000006
10231987175000168817800093673    000028590                    000285900000000000000109                     I0128590     30091800000000035003410000017N270818104700000000000103009180000000000000000000000000000000000000000100068117850710GILCLEIDE DOS SANTOS GOMES              AVENIDA JOAO VINTE E TRES               SANTA CRUZ  23560352RIO DE JANEIRO RJUNIAO UMB DOS CULTOS AFRO BRAS    30091810 000007
10231987175000168817800093673    000028589                    000285890000000000000109                     I0128589     30111800000000035003410000017N270818104700000000000103011180000000000000000000000000000000000000000100008283050800JOSE RICARDO DE MOURA                   RUA TENENTE SILVINO                     CERAMICA    26030126NOVA IGUACU    RJUNIAO UMB DOS CULTOS AFRO BRAS    30111810 000008
10231987175000168817800093673    000028588                    000285880000000000000109                     I0128588     30101800000000035003410000017N270818104700000000000103010180000000000000000000000000000000000000000100008283050800JOSE RICARDO DE MOURA                   RUA TENENTE SILVINO                     CERAMICA    26030126NOVA IGUACU    RJUNIAO UMB DOS CULTOS AFRO BRAS    30101810 000009
10231987175000168817800093673    000028587                    000285870000000000000109                     I0128587     30091800000000035003410000017N270818104700000000000103009180000000000000000000000000000000000000000100008283050800JOSE RICARDO DE MOURA                   RUA TENENTE SILVINO                     CERAMICA    26030126NOVA IGUACU    RJUNIAO UMB DOS CULTOS AFRO BRAS    30091810 000010
10231987175000168817800093673    000028586                    000285860000000000000109                     I0128586     27081800000000300003410000017N240818104700000000000102708180000000000000000000000000000000000000000100034415688772JORGE FERNANDES BEZERRA                 RUA: LEOCADIA                           REALENGO    21770190RIO DE JANEIRO RJUNIAO UMB DOS CULTOS AFRO BRAS    27081810 000011
10231987175000168817800093673    000028585                    000285850000000000000109                     I0128585     29081800000000070003410000017N230818104700000000000102908180000000000000000000000000000000000000000100012745403729BENEDITA CIRLEIDE RODRIGUES BR          RUA JOAO FLORIANO                       JARDIM CATAR24717520SAO GONCALO    RJUNIAO UMB DOS CULTOS AFRO BRAS    29081810 000012
10231987175000168817800093673    000028584                    000285840000000000000109                     I0228584     30101800000000040003410000017N230818104700000000000103010180000000000000000000000000000000000000000100008888177701GUILHERME DE ALCANTARA SEABRA           RUA: IGARATA                            MARECHAL HER21000000RIO DE JANEIRO RJUNIAO UMB DOS CULTOS AFRO BRAS    30101810 000013
10231987175000168817800093673    000028583                    000285830000000000000109                     I0228583     30101800000000040003410000017N230818104700000000000103010180000000000000000000000000000000000000000100008888177701GUILHERME DE ALCANTARA SEABRA           RUA: IGARATA                            MARECHAL HER21000000RIO DE JANEIRO RJUNIAO UMB DOS CULTOS AFRO BRAS    30101810 000014
10231987175000168817800093673    000028582                    000285820000000000000109                     I0228582     30091800000000040003410000017N230818104700000000000103009180000000000000000000000000000000000000000100008888177701GUILHERME DE ALCANTARA SEABRA           RUA: IGARATA                            MARECHAL HER21000000RIO DE JANEIRO RJUNIAO UMB DOS CULTOS AFRO BRAS    30091810 000015
10231987175000168817800093673    000028581                    000285810000000000000109                     I3428581     31081800000000245003410000017N230818104700000000000103108180000000000000000000000000000000000000000100009057240700ILAN FERNANDES BRAZILEIRO               RUA NICARAGUA                           PARQUE HOTEL28970000ARARUAMA       RJUNIAO UMB DOS CULTOS AFRO BRAS    31081810 000016
10231987175000168817800093673    000028580                    000285800000000000000109                     I0128580     30111800000000035003410000017N230818104700000000000103011180000000000000000000000000000000000000000100098464159749MARCOS VINICIUS VASCONCELLOS D          RUA DOS CAJUEIROS                       GUARATIBA   23030150RIO DE JANEIRO RJUNIAO UMB DOS CULTOS AFRO BRAS    30111810 000017
10231987175000168817800093673    000028579                    000285790000000000000109                     I0128579     30101800000000035003410000017N230818104700000000000103010180000000000000000000000000000000000000000100098464159749MARCOS VINICIUS VASCONCELLOS D          RUA DOS CAJUEIROS                       GUARATIBA   23030150RIO DE JANEIRO RJUNIAO UMB DOS CULTOS AFRO BRAS    30101810 000018
10231987175000168817800093673    000028578                    000285780000000000000109                     I0128578     30091800000000035003410000017N230818104700000000000103009180000000000000000000000000000000000000000100098464159749MARCOS VINICIUS VASCONCELLOS D          RUA DOS CAJUEIROS                       GUARATIBA   23030150RIO DE JANEIRO RJUNIAO UMB DOS CULTOS AFRO BRAS    30091810 000019
10231987175000168817800093673    000028554                    000285540000000000000109                     I0228554     30111800000000035003410000017N230818104700000000000103011180000000000000000000000000000000000000000100000579409759CLAUDIA VALERIA MIRAGLIA                RUA ANTONIO RODRIGUES OLIVEIRA          CENTRO      26556520MESQUITA       RJUNIAO UMB DOS CULTOS AFRO BRAS    30111810 000020
10231987175000168817800093673    000028553                    000285530000000000000109                     I0228553     30101800000000035003410000017N230818104700000000000103010180000000000000000000000000000000000000000100000579409759CLAUDIA VALERIA MIRAGLIA                RUA ANTONIO RODRIGUES OLIVEIRA          CENTRO      26556520MESQUITA       RJUNIAO UMB DOS CULTOS AFRO BRAS    30101810 000021
10231987175000168817800093673    000028552                    000285520000000000000109                     I0228552     30091800000000035003410000017N230818104700000000000103009180000000000000000000000000000000000000000100000579409759CLAUDIA VALERIA MIRAGLIA                RUA ANTONIO RODRIGUES OLIVEIRA          CENTRO      26556520MESQUITA       RJUNIAO UMB DOS CULTOS AFRO BRAS    30091810 000022
10231987175000168817800093673    000028248                    000282480000000000000109                     I0228248     30111800000000035003410000017N200818104700000000000103011180000000000000000000000000000000000000000100009906412798RONNEY NUNES POLI                       RUA NOVA HORIZONTE                      SEPETIBA    23540133RIO DE JANEIRO RJUNIAO UMB DOS CULTOS AFRO BRAS    30111810 000023
10231987175000168817800093673    000028100                    000281000000000000000109                     I0228100     30111800000000035003410000017N200818104700000000000103011180000000000000000000000000000000000000000100068120141768SAMI JORGE DE JESUS                     AVENIDA SEIS                            TIJOLINHO   23545003NOVA SEPETIBA  RJUNIAO UMB DOS CULTOS AFRO BRAS    30111810 000024
10231987175000168817800093673    000028068                    000280680000000000000109                     I0228068     30111800000000035003410000017N200818104700000000000103011180000000000000000000000000000000000000000100007682577789CLAUDIA CRISTINA CARVALHO AREA          RUA ALFAZEMA, 91 CASA 1                 PADRE MIGUEL21720360RIO DE JANEIRO RJUNIAO UMB DOS CULTOS AFRO BRAS    30111810 000025
10231987175000168817800093673    000027395                    000273950000000000000109                     I0227395     30111800000000035003410000017N200818104700000000000103011180000000000000000000000000000000000000000100054608066749MARCIA GONCALVES LENCASTRE              RUA: NOVO HORIZONTE                     SEPETIBA    23540133RIO DE JANEIRO RJUNIAO UMB DOS CULTOS AFRO BRAS    30111810 000026
10231987175000168817800093673    000026827                    000268270000000000000109                     I0226827     30091800000000035003410000017N200818104700000000000103009180000000000000000000000000000000000000000100009906412798RONNEY NUNES POLI                       RUA NOVA HORIZONTE                      SEPETIBA    23540133RIO DE JANEIRO RJUNIAO UMB DOS CULTOS AFRO BRAS    30091810 000027
10231987175000168817800093673    000026680                    000266800000000000000109                     I0226680     30091800000000035003410000017N200818104700000000000103009180000000000000000000000000000000000000000100068120141768SAMI JORGE DE JESUS                     AVENIDA SEIS                            TIJOLINHO   23545003NOVA SEPETIBA  RJUNIAO UMB DOS CULTOS AFRO BRAS    30091810 000028
10231987175000168817800093673    000026648                    000266480000000000000109                     I0226648     30091800000000035003410000017N200818104700000000000103009180000000000000000000000000000000000000000100007682577789CLAUDIA CRISTINA CARVALHO AREA          RUA ALFAZEMA, 91 CASA 1                 PADRE MIGUEL21720360RIO DE JANEIRO RJUNIAO UMB DOS CULTOS AFRO BRAS    30091810 000029
10231987175000168817800093673    000025979                    000259790000000000000109                     I0225979     30091800000000035003410000017N200818104700000000000103009180000000000000000000000000000000000000000100054608066749MARCIA GONCALVES LENCASTRE              RUA: NOVO HORIZONTE                     SEPETIBA    23540133RIO DE JANEIRO RJUNIAO UMB DOS CULTOS AFRO BRAS    30091810 000030
10231987175000168817800093673    000025411                    000254110000000000000109                     I0225411     30101800000000035003410000017N200818104700000000000103010180000000000000000000000000000000000000000100009906412798RONNEY NUNES POLI                       RUA NOVA HORIZONTE                      SEPETIBA    23540133RIO DE JANEIRO RJUNIAO UMB DOS CULTOS AFRO BRAS    30101810 000031
10231987175000168817800093673    000025263                    000252630000000000000109                     I0225263     30101800000000035003410000017N200818104700000000000103010180000000000000000000000000000000000000000100068120141768SAMI JORGE DE JESUS                     AVENIDA SEIS                            TIJOLINHO   23545003NOVA SEPETIBA  RJUNIAO UMB DOS CULTOS AFRO BRAS    30101810 000032
10231987175000168817800093673    000025231                    000252310000000000000109                     I0225231     30101800000000035003410000017N200818104700000000000103010180000000000000000000000000000000000000000100007682577789CLAUDIA CRISTINA CARVALHO AREA          RUA ALFAZEMA, 91 CASA 1                 PADRE MIGUEL21720360RIO DE JANEIRO RJUNIAO UMB DOS CULTOS AFRO BRAS    30101810 000033
10231987175000168817800093673    000024559                    000245590000000000000109                     I0224559     30101800000000035003410000017N200818104700000000000103010180000000000000000000000000000000000000000100054608066749MARCIA GONCALVES LENCASTRE              RUA: NOVO HORIZONTE                     SEPETIBA    23540133RIO DE JANEIRO RJUNIAO UMB DOS CULTOS AFRO BRAS    30101810 000034
9                                                                                                                                                                                                                                                                                                                                                                                                         000035
