01REMESSA01COBRANCA       916200163100        União Umb dos Cultos Afro Bra341BANCO ITAU SA  110719                                                                                                                                                                                                                                                                                                      000001
10231987175000168916200163100    000049908                    000499080000000000000109                     I0149908     16091900000000200003410000017N110719105700000000000661609190000000000000000000000000000000000000000100085114308734MARISTELA BISPO DOS SANTOS              RUA VINTE E TRES DE SETEMBRON 245,      IPIRANGA    26293342NOVA IGUACU    RJUNIAO UMB DOS CULTOS AFRO BRAS    16091915 000002
21160920190000000000400                                                                                                                                                                                                                                                                                                                                                                                   000003
10231987175000168916200163100    000049907                    000499070000000000000109                     I0149907     15081900000000200003410000017N110719105700000000000661508190000000000000000000000000000000000000000100085114308734MARISTELA BISPO DOS SANTOS              RUA VINTE E TRES DE SETEMBRON 245,      IPIRANGA    26293342NOVA IGUACU    RJUNIAO UMB DOS CULTOS AFRO BRAS    15081915 000004
21150820190000000000400                                                                                                                                                                                                                                                                                                                                                                                   000005
10231987175000168916200163100    000049906                    000499060000000000000109                     I0149906     30101900000000450003410000017N100719105700000000001493010190000000000000000000000000000000000000000207526811000170CENTRO ESPIRITA CAMINHOS DE AR          RUA AIERA N 526,                        VILA COSMOS 21220020RIO DE JANEIRO RJUNIAO UMB DOS CULTOS AFRO BRAS    30101915 000006
21301020190000000000900                                                                                                                                                                                                                                                                                                                                                                                   000007
10231987175000168916200163100    000049905                    000499050000000000000109                     I0149905     30101900000001500003410000017N100719105700000000004953010190000000000000000000000000000000000000000227923168000125UNIAO ESPIRITISTA DE UMBANDA D          RUA CONSELHEIRO AGOSTINHON 52,          TODOS OS SAN20770160RIO DE JANEIRO RJUNIAO UMB DOS CULTOS AFRO BRAS    30101915 000008
21301020190000000003000                                                                                                                                                                                                                                                                                                                                                                                   000009
10231987175000168916200163100    000049844                    000498440000000000000109                     I3449844     10071900000000350003410000017N010719105700000000001161007190000000000000000000000000000000000000000100064250121704ANGELA MARIA BRAZ MANHAES               RUA JUTAIN 0,  LOTE 20 QUADRA 151       PERIQUITO   25025290DUQUE DE CAXIASRJUNIAO UMB DOS CULTOS AFRO BRAS    10071915 000010
21100720190000000000700                                                                                                                                                                                                                                                                                                                                                                                   000011
10231987175000168916200163100    000044299                    000442990000000000000109                     I0244299     30061900000000040003410000017N130319105700000000000133006190000000000000000000000000000000000000000100008448034724CLAUDIA DA SILVA SANTANA                RUA SANTA LUZIAN 115,                   JARDIM NOVA 26265560NOVA IGUACU    RJUNIAO UMB DOS CULTOS AFRO BRAS    30061915 000012
21300620190000000000080                                                                                                                                                                                                                                                                                                                                                                                   000013
10231987175000168916200163100    000044153                    000441530000000000000109                     I0244153     30061900000000040003410000017N130319105700000000000133006190000000000000000000000000000000000000000100010591612739ROSEMERE SOUZA DA SILVA                 ESTRADA DA AGUA GRANDEN 1525, BLOCO 24 BVISTA ALEGRE21230354RIO DE JANEIRO RJUNIAO UMB DOS CULTOS AFRO BRAS    30061915 000014
21300620190000000000080                                                                                                                                                                                                                                                                                                                                                                                   000015
10231987175000168916200163100    000043793                    000437930000000000000109                     I0243793     30061900000000040003410000017N130319105700000000000133006190000000000000000000000000000000000000000100085114308734MARISTELA BISPO DOS SANTOS              RUA VINTE E TRES DE SETEMBRON 245,      IPIRANGA    26293342NOVA IGUACU    RJUNIAO UMB DOS CULTOS AFRO BRAS    30061915 000016
21300620190000000000080                                                                                                                                                                                                                                                                                                                                                                                   000017
10231987175000168916200163100    000043720                    000437200000000000000109                     I0243720     30061900000000040003410000017N130319105700000000000133006190000000000000000000000000000000000000000100043194869787JORGE PINHEIRO DE ALMEIDA               RUA CERQUEIRA CESAR N 121, CASA 1       MADUREIRA   21351070RIO DE JANEIRO RJUNIAO UMB DOS CULTOS AFRO BRAS    30061915 000018
21300620190000000000080                                                                                                                                                                                                                                                                                                                                                                                   000019
10231987175000168916200163100    000043560                    000435600000000000000109                     I0243560     30061900000000040003410000017N130319105700000000000133006190000000000000000000000000000000000000000100064250121704ANGELA MARIA BRAZ MANHAES               RUA JUTAIN 0,  LOTE 20 QUADRA 151       PERIQUITO   25025290DUQUE DE CAXIASRJUNIAO UMB DOS CULTOS AFRO BRAS    30061915 000020
21300620190000000000080                                                                                                                                                                                                                                                                                                                                                                                   000021
10231987175000168916200163100    000043151                    000431510000000000000109                     I0243151     30061900000000040003410000017N130319105700000000000133006190000000000000000000000000000000000000000100001686254741ADELIA DE OLIVEIRA AZEVEDO              RUA CORONEL CAMISAON 842,               CORDOVIL    21250290RIO DE JANEIRO RJUNIAO UMB DOS CULTOS AFRO BRAS    30061915 000022
21300620190000000000080                                                                                                                                                                                                                                                                                                                                                                                   000023
10231987175000168916200163100    000042837                    000428370000000000000109                     I0242837     30051900000000040003410000017N130319105700000000000133005190000000000000000000000000000000000000000100001653081767DEISE SIQUEIRA                          RUA PARLON SIQUEIRA N 59, CX P 93       BARRA DE GUA23020510RIO DE JANEIRO RJUNIAO UMB DOS CULTOS AFRO BRAS    30051915 000024
21300520190000000000080                                                                                                                                                                                                                                                                                                                                                                                   000025
10231987175000168916200163100    000042651                    000426510000000000000109                     I0242651     30051900000000040003410000017N130319105700000000000133005190000000000000000000000000000000000000000100008448034724CLAUDIA DA SILVA SANTANA                RUA SANTA LUZIAN 115,                   JARDIM NOVA 26265560NOVA IGUACU    RJUNIAO UMB DOS CULTOS AFRO BRAS    30051915 000026
21300520190000000000080                                                                                                                                                                                                                                                                                                                                                                                   000027
10231987175000168916200163100    000042507                    000425070000000000000109                     I0242507     30051900000000040003410000017N130319105700000000000133005190000000000000000000000000000000000000000100010591612739ROSEMERE SOUZA DA SILVA                 ESTRADA DA AGUA GRANDEN 1525, BLOCO 24 BVISTA ALEGRE21230354RIO DE JANEIRO RJUNIAO UMB DOS CULTOS AFRO BRAS    30051915 000028
21300520190000000000080                                                                                                                                                                                                                                                                                                                                                                                   000029
10231987175000168916200163100    000042148                    000421480000000000000109                     I0242148     30051900000000040003410000017N130319105700000000000133005190000000000000000000000000000000000000000100085114308734MARISTELA BISPO DOS SANTOS              RUA VINTE E TRES DE SETEMBRON 245,      IPIRANGA    26293342NOVA IGUACU    RJUNIAO UMB DOS CULTOS AFRO BRAS    30051915 000030
21300520190000000000080                                                                                                                                                                                                                                                                                                                                                                                   000031
10231987175000168916200163100    000041916                    000419160000000000000109                     I0241916     30051900000000040003410000017N130319105700000000000133005190000000000000000000000000000000000000000100064250121704ANGELA MARIA BRAZ MANHAES               RUA JUTAIN 0,  LOTE 20 QUADRA 151       PERIQUITO   25025290DUQUE DE CAXIASRJUNIAO UMB DOS CULTOS AFRO BRAS    30051915 000032
21300520190000000000080                                                                                                                                                                                                                                                                                                                                                                                   000033
9                                                                                                                                                                                                                                                                                                                                                                                                         000034
