01REMESSA01COBRANCA       916200163100        União Umb dos Cultos Afro Bra341BANCO ITAU SA  181018                                                                                                                                                                                                                                                                                                      000001
10231987175000168916200163100    000028758                    000287580000000000000109                     I0228758     21091800000000400003410000017N160918104700000000000102109180000000000000000000000000000000000000000100001199518786ADRIANA DE OLIVEIRA COUTO               RUA ITALIA                              PIABETA     25916256MAGE           RJUNIAO UMB DOS CULTOS AFRO BRAS    21091810 000002
10231987175000168916200163100    000028757                    000287570000000000000109                     I0228757     28091800000000035003410000017N160918104700000000000102809180000000000000000000000000000000000000000100004790121720IATA ANDERSON JESUS PEREIRA             RUA ITAJUBARA                           RAMOS       21060180RIO DE JANEIRO RJUNIAO UMB DOS CULTOS AFRO BRAS    28091810 000003
10231987175000168916200163100    000028754                    000287540000000000000109                     I0228754     28091800000000100003410000017N150918104700000000000102809180000000000000000000000000000000000000000100012745403729BENEDITA CIRLEIDE RODRIGUES BR          RUA JOAO FLORIANO                       JARDIM CATAR24717520SAO GONCALO    RJUNIAO UMB DOS CULTOS AFRO BRAS    28091810 000004
10231987175000168916200163100    000028744                    000287440000000000000109                     I0228744     21091800000000035003410000017N130918104700000000000102109180000000000000000000000000000000000000000100008326943711ANGELO ABREU MARTINS                    RUA D                                   MONTE VERDE 24857564ITABORAI       RJUNIAO UMB DOS CULTOS AFRO BRAS    21091810 000005
10231987175000168916200163100    000028739                    000287390000000000000109                     I0228739     28091800000000040003410000017N120918104700000000000102809180000000000000000000000000000000000000000100009079903110FLAVIO JANOVICCI                        RUA: REGENTE LIMA E SILVA               MARECHAL HER21610230RIO DE JANEIRO RJUNIAO UMB DOS CULTOS AFRO BRAS    28091810 000006
10231987175000168916200163100    000028735                    000287350000000000000109                     I0228735     20091800000000070003410000017N120918104700000000000102009180000000000000000000000000000000000000000100011208480758MARIA ANTONIA KIFFER CORREA             AVENIDA MARECHAL HERMES                 VILA SAO LUI25065115DUQUE DE CAXIASRJUNIAO UMB DOS CULTOS AFRO BRAS    20091810 000007
10231987175000168916200163100    000028733                    000287330000000000000109                     I0228733     13091800000000574263410000017N120918104700000000000101309180000000000000000000000000000000000000000100007854516766NATALIE SILVA DE LIMA                   RUA: JOAO DANIEL                        BENTO RIBEIR21550480RIO DE JANEIRO RJUNIAO UMB DOS CULTOS AFRO BRAS    13091810 000008
10231987175000168916200163100    000028728                    000287280000000000000109                     I0228728     25091800000000280003410000017N110918104700000000000102509180000000000000000000000000000000000000000100076658961700BEATRIZ DIAS DO NASCIMENTO              RUA SAO BRUNO                           PENHA       21021160RIO DE JANEIRO RJUNIAO UMB DOS CULTOS AFRO BRAS    25091810 000009
10231987175000168916200163100    000028658                    000286580000000000000109                     I0228658     20091800000000245003410000017N040918104700000000000102009180000000000000000000000000000000000000000100004275325745MAIKE OLIVEIRA DA COSTA                 TRAVESSA MARTA DA ROCHA                 ABOLICAO    20755030RIO DE JANEIRO RJUNIAO UMB DOS CULTOS AFRO BRAS    20091810 000010
10231987175000168916200163100    000028656                    000286560000000000000109                     I0228656     20091800000000245003410000017N030918104700000000000102009180000000000000000000000000000000000000000100001084586797ANA GLORIA NONATO CASTILHO              RUA ANTONIO JOSE DE MORAES              PAVUNA      25515140RIO DE JANEIRO RJUNIAO UMB DOS CULTOS AFRO BRAS    20091810 000011
10231987175000168916200163100    000028637                    000286370000000000000109                     I0228637     14091800000000315003410000017N310818104700000000000101409180000000000000000000000000000000000000000100003737351708TANIA PAULA DOS SANTOS                  RUA PREFEITO JOAO CARLOS VITAL          SEPETIBA    23540041RIO DE JANEIRO RJUNIAO UMB DOS CULTOS AFRO BRAS    14091810 000012
10231987175000168916200163100    000028635                    000286350000000000000109                     I0228635     10091800000000010003410000017N310818104700000000000101009180000000000000000000000000000000000000000100009242954730RENATO DELEON GUEDES ALVES              RUA: ALCIDES MAIA                       BENTO RIBEIR21550560RIO DE JANEIRO RJUNIAO UMB DOS CULTOS AFRO BRAS    10091810 000013
10231987175000168916200163100    000028632                    000286320000000000000109                     I0228632     10091800000000760063410000017N310818104700000000000101009180000000000000000000000000000000000000000100004244110755ANA PAULA SILVA BARBOSA                 RUA: ALCIDES MAIA                       BENTO RIBEIR21550560RIO DE JANEIRO RJUNIAO UMB DOS CULTOS AFRO BRAS    10091810 000014
10231987175000168916200163100    000028629                    000286290000000000000109                     I0228629     10091800000000420933410000017N310818104700000000000101009180000000000000000000000000000000000000000100068760680725ANNA LUCIA DE SOUZA                     RUA: JOAO DANIEL                        BENTO RIBEIR21550480RIO DE JANEIRO RJUNIAO UMB DOS CULTOS AFRO BRAS    10091810 000015
10231987175000168916200163100    000028626                    000286260000000000000109                     I0228626     10091800000000765263410000017N310818104700000000000101009180000000000000000000000000000000000000000100082228507768IARA LUCIA RIBEIRO QUINTINO             RUA: JOAO DANIEL                        BENTO RIBEIR21550480RIO DE JANEIRO RJUNIAO UMB DOS CULTOS AFRO BRAS    10091810 000016
10231987175000168916200163100    000028622                    000286220000000000000109                     I0228622     05091800000000035003410000017N310818104700000000000100509180000000000000000000000000000000000000000100000640795706CELIA REGINA ALVES DE SOUZA CO          RUA QUARENTA E SETE                     JARDIM ITAMB24725240SAO GONCALO    RJUNIAO UMB DOS CULTOS AFRO BRAS    05091810 000017
10231987175000168916200163100    000028607                    000286070000000000000109                     I0228607     10091800000000175003410000017N290818104700000000000101009180000000000000000000000000000000000000000100001653081767DEISE SIQUEIRA                          RUA PARLON SIQUEIRA                     BARRA DE GUA23020510RIO DE JANEIRO RJUNIAO UMB DOS CULTOS AFRO BRAS    10091810 000018
10231987175000168916200163100    000028602                    000286020000000000000109                     I0228602     14091800000000420003410000017N280818104700000000000101409180000000000000000000000000000000000000000100080962190730NILCE TAVARES DA SILVA                  ESTRADA DO ZEPELIN                      SANTA CRUZ  23555220RIO DE JANEIRO RJUNIAO UMB DOS CULTOS AFRO BRAS    14091810 000019
10231987175000168916200163100    000028599                    000285990000000000000109                     I0228599     30081800000000035003410000017N280818104700000000000103008180000000000000000000000000000000000000000100063629852734ZULEICA JANINA BOMFIM AMARAL            RUA DA CAPELA                           ESTACIO     20250051RIO DE JANEIRO RJUNIAO UMB DOS CULTOS AFRO BRAS    30081810 000020
10231987175000168916200163100    000021331                    000213310000000000000109                     I0221331     30081800000000035003410000017N270718104700000000000103008180000000000000000000000000000000000000000100009168799764JANAINA BEMVINDO DOS SANTOS             RUA NOVA OLINDA                         PAVUNA      21520040RIO DE JANEIRO RJUNIAO UMB DOS CULTOS AFRO BRAS    30081810 000021
10231987175000168916200163100    000021319                    000213190000000000000109                     I0221319     30081800000000035003410000017N250718104700000000000103008180000000000000000000000000000000000000000100011817246780MARCELO MARTINS NASCIMENTO SAN          AVENIDA SCHULTZ WENK                    CORDOVIL    21012155RIO DE JANEIRO RJUNIAO UMB DOS CULTOS AFRO BRAS    30081810 000022
10231987175000168916200163100    000021317                    000213170000000000000109                     I0221317     30081800000000140003410000017N250718104700000000000103008180000000000000000000000000000000000000000100064947130768MARIA GORETE DE SOUSA MIRANDA           AVENIDA PASTEUR                         PARQUE ALIAN25550210SAO JOAO DE MERRJUNIAO UMB DOS CULTOS AFRO BRAS    30081810 000023
10231987175000168916200163100    000021310                    000213100000000000000109                     I0221310     28091800000000040003410000017N230718104700000000000102809180000000000000000000000000000000000000000100093265883787ROSANGELA BARBOSA DE CARVALHO           CAMINHO DOS TELEGRAFOS                  SENADOR CAMA21832415RIO DE JANEIRO RJUNIAO UMB DOS CULTOS AFRO BRAS    28091810 000024
10231987175000168916200163100    000021309                    000213090000000000000109                     I0221309     30081800000000040003410000017N230718104700000000000103008180000000000000000000000000000000000000000100010212584740TIAGO VEROL DE SOUZA                    RUA: REGISTRO                           SENADOR CAMA21832006RIO DE JANEIRO RJUNIAO UMB DOS CULTOS AFRO BRAS    30081810 000025
10231987175000168916200163100    000021305                    000213050000000000000109                     I0221305     30081800000000035003410000017N230718104700000000000103008180000000000000000000000000000000000000000100007484684715VIVIANE ALVES DUQUE MORAES              AV PROFESSOR BERNADINO ROCHA            PAVUNA      21650450RIO DE JANEIRO RJUNIAO UMB DOS CULTOS AFRO BRAS    30081810 000026
10231987175000168916200163100    000021301                    000213010000000000000109                     I0221301     30081800000000040003410000017N130718104700000000000103008180000000000000000000000000000000000000000100007416975727ANGELICA AMARAL GOTELIP BARBOS          RUA MARECHAL MARCIANO - TRAVESSA 120    REALENGO    21735652RIO DE JANEIRO RJUNIAO UMB DOS CULTOS AFRO BRAS    30081810 000027
10231987175000168916200163100    000021300                    000213000000000000000109                     I0221300     30081800000000040003410000017N130718104700000000000103008180000000000000000000000000000000000000000100008214669766MARCO AURELIO RANGEL BARBOSA            RUA GENERAL JOSE FAUSTINO               PADRE MIGUEL21721050RIO DE JANEIRO RJUNIAO UMB DOS CULTOS AFRO BRAS    30081810 000028
10231987175000168916200163100    000021285                    000212850000000000000109                     I0221285     30081800000000035003410000017N110718104700000000000103008180000000000000000000000000000000000000000100009329422705FABIO SANTANA DE ANDRADE                RUA: LUIS BRAILE                        VILA SANTA M00000000RIO DE JANEIRO RJUNIAO UMB DOS CULTOS AFRO BRAS    30081810 000029
10231987175000168916200163100    000021283                    000212830000000000000109                     I0221283     30081800000000040003410000017N110718104700000000000103008180000000000000000000000000000000000000000100009297297730FLAVIO JOAQUIM DOS SANTOS               RUA: SAO PAULO                          PALMARES    23585800RIO DE JANEIRO RJUNIAO UMB DOS CULTOS AFRO BRAS    30081810 000030
10231987175000168916200163100    000021279                    000212790000000000000109                     I0221279     30081800000000035003410000017N100718104700000000000103008180000000000000000000000000000000000000000100011110357761THYAGO ALBERT MORAES CYRILLO S          RUA VINTE E SEIS                        JARDIM DA PA25926765RIO DE JANEIRO RJUNIAO UMB DOS CULTOS AFRO BRAS    30081810 000031
10231987175000168916200163100    000021277                    000212770000000000000109                     I0221277     30081800000000040003410000017N040718104700000000000103008180000000000000000000000000000000000000000100005283706721LEVY ANDRE ASSIS FERREIRA DA S          TRAVESSA SANTO ANTONIO                  MARECHAL HER21557190RIO DE JANEIRO RJUNIAO UMB DOS CULTOS AFRO BRAS    30081810 000032
10231987175000168916200163100    000021103                    000211030000000000000109                     I0221103     30081800000000035003410000017N280518104700000000000103008180000000000000000000000000000000000000000100093678754791ROSINETE MARIA DE OLIVEIRA              RUA ANGOLA                              CAPIVARI    25145080DUQUE DE CAXIASRJUNIAO UMB DOS CULTOS AFRO BRAS    30081810 000033
10231987175000168916200163100    000021100                    000211000000000000000109                     I0221100     30081800000000035003410000017N280518104700000000000103008180000000000000000000000000000000000000000100001096953722CLAUDIA GUIMARAES                       ESTRADA GUANDU DO SENA - RUA 29         CAMPO GRANDE23091220RIO DE JANEIRO RJUNIAO UMB DOS CULTOS AFRO BRAS    30081810 000034
10231987175000168916200163100    000021097                    000210970000000000000109                     I0221097     30081800000000035003410000017N280518104700000000000103008180000000000000000000000000000000000000000100009289778709HELAINE FRANKLIN TEIXEIRA               RUA CACHOEIRA ALTA                      JARDIM MARAV23031070CAMPO GRANDE   RJUNIAO UMB DOS CULTOS AFRO BRAS    30081810 000035
10231987175000168916200163100    000021076                    000210760000000000000109                     I0221076     30081800000000035003410000017N250518104700000000000103008180000000000000000000000000000000000000000100000000000000DENISE DOS SANTOS OLIVEIRA              RUA BEZERRIL FONTENELE                  IRAJA       26335430RIO DE JANEIRO RJUNIAO UMB DOS CULTOS AFRO BRAS    30081810 000036
10231987175000168916200163100    000021051                    000210510000000000000109                     I0221051     30081800000000040003410000017N220518104700000000000103008180000000000000000000000000000000000000000100095760024787LUCIMARA DIAS DE OLIVEIRA               RUA SANTO ELIAS                         TURIACU     21540390RIO DE JANEIRO RJUNIAO UMB DOS CULTOS AFRO BRAS    30081810 000037
10231987175000168916200163100    000021048                    000210480000000000000109                     I0221048     30081800000000035003410000017N220518104700000000000103008180000000000000000000000000000000000000000100002730493727ALBERTO ALEXANDRE DOS SANTOS M          RUA ECA DE QUEIROZ                      PANTANAL    25040350DUQUE DE CAXIASRJUNIAO UMB DOS CULTOS AFRO BRAS    30081810 000038
10231987175000168916200163100    000020990                    000209900000000000000109                     I0220990     30081800000000035003410000017N150518104700000000000103008180000000000000000000000000000000000000000100012687881716DAIANA SANTANA DE LIMA                  RUA MANAUS                              CAMPOS ELISE25225000DUQUE DE CAXIASRJUNIAO UMB DOS CULTOS AFRO BRAS    30081810 000039
10231987175000168916200163100    000020938                    000209380000000000000109                     I0220938     30081800000000035003410000017N100518104700000000000103008180000000000000000000000000000000000000000100000000000000MARCOS AURELIO WOLF GARCIA              RUA PROFESSORA CARMELITA MARTINS        PRACA SECA  21321220RIO DE JANEIRO RJUNIAO UMB DOS CULTOS AFRO BRAS    30081810 000040
10231987175000168916200163100    000020929                    000209290000000000000109                     I0220929     30081800000000035003410000017N100518104700000000000103008180000000000000000000000000000000000000000100000000000000DAVID MOREIRA DE MENDONCA               RUA GENERAL RENATO PIQUET               VILA PARAISO23825460ITAGUAI        RJUNIAO UMB DOS CULTOS AFRO BRAS    30081810 000041
10231987175000168916200163100    000020917                    000209170000000000000109                     I0220917     30081800000000035003410000017N100518104700000000000103008180000000000000000000000000000000000000000100003408195706MONICA VALERIA COSTA BARAUNA            AVENDIA CARNAUBEIRA                     GUARATIBA   23032080RIO DE JANEIRO RJUNIAO UMB DOS CULTOS AFRO BRAS    30081810 000042
10231987175000168916200163100    000020914                    000209140000000000000109                     I0220914     30081800000000040003410000017N100518104700000000000103008180000000000000000000000000000000000000000100004253313792VIVIANE ALVES DO ROSARIO                RUA MANHUACU                            VARGEM GRAND22785600RIO DE JANEIRO RJUNIAO UMB DOS CULTOS AFRO BRAS    30081810 000043
10231987175000168916200163100    000020909                    000209090000000000000109                     I0220909     30081800000000035003410000017N100518104700000000000103008180000000000000000000000000000000000000000100061185841768ELIZABETH CATARINA DE JESUS             RUA ALMIRANTE INGRA                     BRAS DE PINA21210170RIO DE JANEIRO RJUNIAO UMB DOS CULTOS AFRO BRAS    30081810 000044
10231987175000168916200163100    000020906                    000209060000000000000109                     I0220906     30081800000000035003410000017N100518104700000000000103008180000000000000000000000000000000000000000100000000000686HILDA REGINA NICANOR DOS SANTO          RUA PASSO FUNDO - KM 35                 JARDIM GUAND26298189NOVA IGUACU    RJUNIAO UMB DOS CULTOS AFRO BRAS    30081810 000045
10231987175000168916200163100    000020902                    000209020000000000000109                     I0220902     30081800000000035003410000017N100518104700000000000103008180000000000000000000000000000000000000000100059941294704LUZIA LYGIA DO NASCIMENTO CAMA          AVENIDA CARIOCA                         VILA ROSALI 25555332DUQUE DE CAXIASRJUNIAO UMB DOS CULTOS AFRO BRAS    30081810 000046
10231987175000168916200163100    000020900                    000209000000000000000109                     I0220900     30081800000000035003410000017N100518104700000000000103008180000000000000000000000000000000000000000100005963954770SANDRA MARIA DA SILVA SANTOS            RUA JOAO RAIMUNDO                       VILA SANTO A25041400DUQUE DE CAXIASRJUNIAO UMB DOS CULTOS AFRO BRAS    30081810 000047
10231987175000168916200163100    000020894                    000208940000000000000109                     I0220894     30081800000000035003410000017N100518104700000000000103008180000000000000000000000000000000000000000100010878187707LUIZ PAULO DA CRUZ TEIXEIRA             RUA DOS CAJUEIROS                       SEPETIBA    23530074RIO DE JANEIRO RJUNIAO UMB DOS CULTOS AFRO BRAS    30081810 000048
10231987175000168916200163100    000020893                    000208930000000000000109                     I0220893     30081800000000035003410000017N100518104700000000000103008180000000000000000000000000000000000000000100072520388749REINALDO SILVA DOS SANTOS               RUA: FRANCISCA DE OLIVEIRA              ENGENHEIRO B25520170SAO JOAO DE MERRJUNIAO UMB DOS CULTOS AFRO BRAS    30081810 000049
10231987175000168916200163100    000020875                    000208750000000000000109                     I0220875     30081800000000035003410000017N100518104700000000000103008180000000000000000000000000000000000000000100084908157715RAQUEL TAVARES FERREIRA DA SIL          RUA CATULO CEARENSE                     VILA GENI   23825290ITAGUAI        RJUNIAO UMB DOS CULTOS AFRO BRAS    30081810 000050
10231987175000168916200163100    000020865                    000208650000000000000109                     I0220865     30081800000000035003410000017N100518104700000000000103008180000000000000000000000000000000000000000100007852297790IRENE FRANCISCO LIMA                    RUA VIRGILIO VARZEA                     VILA SAO LUI25051110DUQUE DE CAXIASRJUNIAO UMB DOS CULTOS AFRO BRAS    30081810 000051
10231987175000168916200163100    000020837                    000208370000000000000109                     I0220837     30081800000000035003410000017N090518104700000000000103008180000000000000000000000000000000000000000100093255586704GRECIETE GOUDARD                        ESTRADA DO CAMPINHO                     CAMPO GRANDE23066540RIO DE JANEIRO RJUNIAO UMB DOS CULTOS AFRO BRAS    30081810 000052
10231987175000168916200163100    000020831                    000208310000000000000109                     I0220831     30081800000000035003410000017N090518104700000000000103008180000000000000000000000000000000000000000100004460142732CRISTIANO ARAUJO DE OLIVEIRA            R: SERIDO                               CABUCU      26291482NOVA IGUACU    RJUNIAO UMB DOS CULTOS AFRO BRAS    30081810 000053
10231987175000168916200163100    000020822                    000208220000000000000109                     I0220822     30081800000000035003410000017N080518104700000000000103008180000000000000000000000000000000000000000100009409455766DANIELE MARTINS MEDEIROS DE FR          RUA D                                   BELA VISTA  23860000MANGARATIBA    RJUNIAO UMB DOS CULTOS AFRO BRAS    30081810 000054
10231987175000168916200163100    000020815                    000208150000000000000109                     I0220815     31081800000000035003410000017N080518104700000000000103108180000000000000000000000000000000000000000100007324399738JACANA MONTEIRO DO AMARAL               RUA MESQUITA                            SAO ROQUE   23310170QUEIMADOS      RJUNIAO UMB DOS CULTOS AFRO BRAS    31081810 000055
10231987175000168916200163100    000020812                    000208120000000000000109                     I0220812     30081800000000035003410000017N080518104700000000000103008180000000000000000000000000000000000000000100004701154750VIVIANE FELIX GOMES                     RUA GANDARELA                           BOM PASTOR  26195460BELFORD ROXO   RJUNIAO UMB DOS CULTOS AFRO BRAS    30081810 000056
10231987175000168916200163100    000020808                    000208080000000000000109                     I0220808     30081800000000035003410000017N080518104700000000000103008180000000000000000000000000000000000000000100005229971711CATIA CILENE MASCARENHAS                TRAVESSA AMOR DO CAMPO                  CONJUNTO SAN21843743CAMPO GRANDE   RJUNIAO UMB DOS CULTOS AFRO BRAS    30081810 000057
10231987175000168916200163100    000020803                    000208030000000000000109                     I0220803     30081800000000035003410000017N070518104700000000000103008180000000000000000000000000000000000000000100089982118749LENIR SILVA DOS SANTOS                  RUA DA LUTA                             JARDIM LARAN26291278RIO DE JANEIRO RJUNIAO UMB DOS CULTOS AFRO BRAS    30081810 000058
10231987175000168916200163100    000020798                    000207980000000000000109                     I0220798     30081800000000040003410000017N070518104700000000000103008180000000000000000000000000000000000000000100064494527734RONALDO ROSAS ALVES                     ESTRADA COMANDANTE                      PRATA       25976140TERESOPOLIS    RJUNIAO UMB DOS CULTOS AFRO BRAS    30081810 000059
10231987175000168916200163100    000020793                    000207930000000000000109                     I0220793     30081800000000040003410000017N070518104700000000000103008180000000000000000000000000000000000000000100028095391700SERGIO GARCIA DE QUEIROZ                RUA MATO GROSSO                         SANTA CECILI25957250TERESOPOLIS    RJUNIAO UMB DOS CULTOS AFRO BRAS    30081810 000060
10231987175000168916200163100    000020791                    000207910000000000000109                     I0220791     30081800000000040003410000017N070518104700000000000103008180000000000000000000000000000000000000000100012295676746JEFFERSON ANTONIO TELLES GALDI          RUA MOUZIN DE ALBUQUERQUE               SAO VICENTE 26178080BELFORD ROXO   RJUNIAO UMB DOS CULTOS AFRO BRAS    30081810 000061
10231987175000168916200163100    000020790                    000207900000000000000109                     I0220790     30081800000000040003410000017N070518104700000000000103008180000000000000000000000000000000000000000100091083532715MARCOS AURELIO PEREIRA RAMOS            RUA MATO GROSSO                         SANTA CECILI25957250TERESOPOLIS    RJUNIAO UMB DOS CULTOS AFRO BRAS    30081810 000062
10231987175000168916200163100    000020783                    000207830000000000000109                     I0220783     30081800000000040003410000017N070518104700000000000103008180000000000000000000000000000000000000000100001253277737MARIA JOSE DANTAS MOREIRA               RUA SETE DE JUNHO                       PRAIA DE MAU25925732MAGE           RJUNIAO UMB DOS CULTOS AFRO BRAS    30081810 000063
10231987175000168916200163100    000020781                    000207810000000000000109                     I0220781     30081800000000035003410000017N070518104700000000000103008180000000000000000000000000000000000000000100002527980740ARMANDO DE ALMEIDA                      RUA PEDRO JOSE DE OLIVEIRA              VARGEM GRAND27145231BARRA DO PIRAI RJUNIAO UMB DOS CULTOS AFRO BRAS    30081810 000064
10231987175000168916200163100    000020780                    000207800000000000000109                     I0220780     30081800000000035003410000017N070518104700000000000103008180000000000000000000000000000000000000000100005978854785ALEXANDRE MOTA DOS SANTOS               RUA BRUNO SENDER                        JARDIM NOVA 26266040NOVA IGUACU    RJUNIAO UMB DOS CULTOS AFRO BRAS    30081810 000065
10231987175000168916200163100    000020772                    000207720000000000000109                     I0220772     30081800000000035003410000017N070518104700000000000103008180000000000000000000000000000000000000000100095846190715ANA MARIA NICANOR DE QUADRO             RUA PASSO FUNDO                         JARDIM GUAND26298189NOVA IGUACU    RJUNIAO UMB DOS CULTOS AFRO BRAS    30081810 000066
10231987175000168916200163100    000020771                    000207710000000000000109                     I0220771     30081800000000035003410000017N070518104700000000000103008180000000000000000000000000000000000000000100001161586709ALEXANDRE PIMPAREL DA SILVA             RUA: COMENDADOR VENACIO                 PALHADA     26290204NOVA IGUACU    RJUNIAO UMB DOS CULTOS AFRO BRAS    30081810 000067
10231987175000168916200163100    000020770                    000207700000000000000109                     I0220770     30081800000000035003410000017N070518104700000000000103008180000000000000000000000000000000000000000100000000000000FABIO DA SILVA                          RUA CAMORIM                             JARDIM DELAM26317140QUEIMADOS      RJUNIAO UMB DOS CULTOS AFRO BRAS    30081810 000068
10231987175000168916200163100    000020769                    000207690000000000000109                     I0220769     30081800000000035003410000017N070518104700000000000103008180000000000000000000000000000000000000000100010765062755IVONE JOAO PEDRO                        RUA MARMIARI                            SENADOR CAMA21831000RIO DE JANEIRO RJUNIAO UMB DOS CULTOS AFRO BRAS    30081810 000069
10231987175000168916200163100    000020768                    000207680000000000000109                     I0220768     30081800000000035003410000017N070518104700000000000103008180000000000000000000000000000000000000000100085957679720MARIA DA APARECIDA VICENTE DUQ          RUA FRANCISCO VIOLTI                    HELIOPLOIS  26125440BELFORD ROXO   RJUNIAO UMB DOS CULTOS AFRO BRAS    30081810 000070
10231987175000168916200163100    000020766                    000207660000000000000109                     I0220766     30081800000000035003410000017N070518104700000000000103008180000000000000000000000000000000000000000100010018753701PAULA DE BRITO                          RUA FRANCISCO VIOLTE                    HELIOPOLIS  26125440RIO DE JANEIRO RJUNIAO UMB DOS CULTOS AFRO BRAS    30081810 000071
10231987175000168916200163100    000020762                    000207620000000000000109                     I0220762     30081800000000035003410000017N070518104700000000000103008180000000000000000000000000000000000000000100058756280734SANDRA REGINA DA CONCEICAO              RUA BUENOS AIRES                        JARDIM PERNA26275390NOVA IGUACU    RJUNIAO UMB DOS CULTOS AFRO BRAS    30081810 000072
10231987175000168916200163100    000020761                    000207610000000000000109                     I0220761     30081800000000035003410000017N070518104700000000000103008180000000000000000000000000000000000000000100032637128764MARLENE DA CRUZ                         AVENIDA ABILIO AUGUSTO TAVORA           VALVERDE    26290600NOVA IGUACU    RJUNIAO UMB DOS CULTOS AFRO BRAS    30081810 000073
10231987175000168916200163100    000020758                    000207580000000000000109                     I0220758     30081800000000035003410000017N070518104700000000000103008180000000000000000000000000000000000000000100000858723778GEOVANI FERNANDA DA SILVA               RUA SOFIA BARRETO                       DUMAS - SANT23550700RIO DE JANEIRO RJUNIAO UMB DOS CULTOS AFRO BRAS    30081810 000074
10231987175000168916200163100    000020756                    000207560000000000000109                     I0220756     30081800000000035003410000017N070518104700000000000103008180000000000000000000000000000000000000000100000919377793JOSE IVAN MARCELINO FILHO               RUA ERNANE PEREIRA                      CARLOS SAMPA26089115NOVA IGUACU    RJUNIAO UMB DOS CULTOS AFRO BRAS    30081810 000075
10231987175000168916200163100    000020755                    000207550000000000000109                     I0220755     30081800000000035003410000017N070518104700000000000103008180000000000000000000000000000000000000000100001649750714CRISTIANE JOSE DA SILVA                 AVENIDA CALOMBE                         PARQUE ELDOR25231020DUQUE DE CAXIASRJUNIAO UMB DOS CULTOS AFRO BRAS    30081810 000076
10231987175000168916200163100    000020754                    000207540000000000000109                     I0220754     30081800000000040003410000017N070518104700000000000103008180000000000000000000000000000000000000000100011700984799CRISTIANE SANTOS FEIJO VIEIRA           RUA NICOLAU TOUQUET                     JARDIM CATAR24716403SAO GONCALO    RJUNIAO UMB DOS CULTOS AFRO BRAS    30081810 000077
10231987175000168916200163100    000020750                    000207500000000000000109                     I0220750     30081800000000040003410000017N070518104700000000000103008180000000000000000000000000000000000000000100005234258726LUANNA RODRIGUES NASCIMENTO LO          RUA SETE                                VALERIO     28680000CACHOEIRA DE MARJUNIAO UMB DOS CULTOS AFRO BRAS    30081810 000078
10231987175000168916200163100    000020749                    000207490000000000000109                     I0220749     30081800000000040003410000017N070518104700000000000103008180000000000000000000000000000000000000000100005770480742NARAYAMA MARTINS RODRIGUES LOU          RUA NABYCALIFA                          TABORDA     28680000CACHOEIRA DE MARJUNIAO UMB DOS CULTOS AFRO BRAS    30081810 000079
10231987175000168916200163100    000020748                    000207480000000000000109                     I0220748     30081800000000040003410000017N070518104700000000000103008180000000000000000000000000000000000000000100002965368736REGINA CONCEICAO                        AVENIDA BOQUEIRAO                       BOA VISTA   28680000CACHOEIRA DE MARJUNIAO UMB DOS CULTOS AFRO BRAS    30081810 000080
10231987175000168916200163100    000020747                    000207470000000000000109                     I0220747     30081800000000040003410000017N070518104700000000000103008180000000000000000000000000000000000000000100009963194761FERNANDO PECANHA PIRES                  RUA GENERAL BASILIO                     TABORDA     28680000CACHOEIRA DE MARJUNIAO UMB DOS CULTOS AFRO BRAS    30081810 000081
10231987175000168916200163100    000020745                    000207450000000000000109                     I0220745     30081800000000035003410000017N070518104700000000000103008180000000000000000000000000000000000000000100002331392730ANA MARIA DOS SANTOS VIEIRA             RUA OITO                                PARQUE ALVOR26053220NOVA IGUACU    RJUNIAO UMB DOS CULTOS AFRO BRAS    30081810 000082
10231987175000168916200163100    000020743                    000207430000000000000109                     I0220743     30081800000000035003410000017N070518104700000000000103008180000000000000000000000000000000000000000100003018847733MARIA AILHA BERNARDO PINTO              RUA RUBIAO JUNIOR                       CENTRO      23860000MANGARATIBA    RJUNIAO UMB DOS CULTOS AFRO BRAS    30081810 000083
10231987175000168916200163100    000020741                    000207410000000000000109                     I0220741     30081800000000035003410000017N070518104700000000000103008180000000000000000000000000000000000000000100012345678910LUCIANO GONCALVES DE SOUZA              RUA CLARIMUNDO DE MELO                  PIEDADE     20740323RIO DE JANEIRO RJUNIAO UMB DOS CULTOS AFRO BRAS    30081810 000084
10231987175000168916200163100    000020740                    000207400000000000000109                     I0220740     30081800000000035003410000017N070518104700000000000103008180000000000000000000000000000000000000000100001162883707SUNEY MENEZES MACHADO                   ESTRADA DO ENCANAMENTO                  BARBADO     23060000RIO DE JANEIRO RJUNIAO UMB DOS CULTOS AFRO BRAS    30081810 000085
10231987175000168916200163100    000020737                    000207370000000000000109                     I0220737     30081800000000035003410000017N070518104700000000000103008180000000000000000000000000000000000000000100050246534753TANIA MARIA DA SILVA OLIVEIRA           TRAVESSA MARAJO                         LINDO PARQUE24420100SAO GONCALO    RJUNIAO UMB DOS CULTOS AFRO BRAS    30081810 000086
10231987175000168916200163100    000020733                    000207330000000000000109                     I0220733     30081800000000035003410000017N070518104700000000000103008180000000000000000000000000000000000000000100003387547720APARECIDA DOS SANTOS                    RUA CRACATUA                            HELIOPOLIS  26125170BELFORD ROXO   RJUNIAO UMB DOS CULTOS AFRO BRAS    30081810 000087
10231987175000168916200163100    000020732                    000207320000000000000109                     I0220732     30081800000000035003410000017N070518104700000000000103008180000000000000000000000000000000000000000100090219023700GUARACIARA CORREA PASCHOAL              RUA JOSE CABRAL                         VAL VERDE   26290783NOVA IGUACU    RJUNIAO UMB DOS CULTOS AFRO BRAS    30081810 000088
10231987175000168916200163100    000020729                    000207290000000000000109                     I0220729     30081800000000035003410000017N070518104700000000000103008180000000000000000000000000000000000000000100023970090563MARCIA VIEIRA SALES                     RUA LOPO SARAIVA                        TANQUE- JACA22740220RIO DE JANEIRO RJUNIAO UMB DOS CULTOS AFRO BRAS    30081810 000089
10231987175000168916200163100    000020726                    000207260000000000000109                     I0220726     30081800000000035003410000017N070518104700000000000103008180000000000000000000000000000000000000000100006726905432DAYVIDY RAMON CANDIDO                   RUA MARACA                              PARQUE MUCAJ26415055JAPERI         RJUNIAO UMB DOS CULTOS AFRO BRAS    30081810 000090
10231987175000168916200163100    000020723                    000207230000000000000109                     I0220723     30081800000000035003410000017N070518104700000000000103008180000000000000000000000000000000000000000100009445907728VICTOR DOS SANTOS ALLEN                 RUA PEDRO TELES                         CENTRO      25515032SAO JOAO DE MERRJUNIAO UMB DOS CULTOS AFRO BRAS    30081810 000091
10231987175000168916200163100    000020722                    000207220000000000000109                     I0220722     30081800000000035003410000017N070518104700000000000103008180000000000000000000000000000000000000000100011549239759RENATA DE OLIVEIRA GASPAR               RUA GUANABARA                           MADUREIRA   21350230RIO DE JANEIRO RJUNIAO UMB DOS CULTOS AFRO BRAS    30081810 000092
10231987175000168916200163100    000020721                    000207210000000000000109                     I0220721     30081800000000035003410000017N070518104700000000000103008180000000000000000000000000000000000000000100009145082707ELAINE CRISTINA DE MORAES               RUA GENTIL DO OURO                      AGUIAR TORRE23063340INHOAIBA       RJUNIAO UMB DOS CULTOS AFRO BRAS    30081810 000093
10231987175000168916200163100    000020720                    000207200000000000000109                     I0220720     30081800000000035003410000017N070518104700000000000103008180000000000000000000000000000000000000000100015429555134OBIRACI SILVA DO NASCIMENTO             ESTRADA VELHA DE MARICA                 MARIA PAULA 24756280SAO GONCALO    RJUNIAO UMB DOS CULTOS AFRO BRAS    30081810 000094
10231987175000168916200163100    000020718                    000207180000000000000109                     I0220718     30081800000000035003410000017N070518104700000000000103008180000000000000000000000000000000000000000100000000000000LUCIANO SOARES DA SILVA                 RUA MEDEIROS AGUAS MARAVILHOSAS         LINHA AZUL  27910000MACAE          RJUNIAO UMB DOS CULTOS AFRO BRAS    30081810 000095
10231987175000168916200163100    000020717                    000207170000000000000109                     I0220717     30081800000000035003410000017N070518104700000000000103008180000000000000000000000000000000000000000100013849060705LEONARDO ENEDINA DE MELO                RUA JULIO VERNER                        SANTA RITA  26050517NOVA IGUACU    RJUNIAO UMB DOS CULTOS AFRO BRAS    30081810 000096
10231987175000168916200163100    000020716                    000207160000000000000109                     I0220716     30081800000000035003410000017N070518104700000000000103008180000000000000000000000000000000000000000100082391106734CASSIO SOUZA DA COSTA                   RUA RIACHUELO                           JARDIM ESTOR26112220BELFORD ROXO   RJUNIAO UMB DOS CULTOS AFRO BRAS    30081810 000097
10231987175000168916200163100    000020715                    000207150000000000000109                     I0220715     30081800000000035003410000017N070518104700000000000103008180000000000000000000000000000000000000000100087798999787NILZETE DA CONCEICAO FELIX              RUA PROJETADA                           JARDIM ANHAN25264030DUQUE DE CAXIASRJUNIAO UMB DOS CULTOS AFRO BRAS    30081810 000098
10231987175000168916200163100    000020709                    000207090000000000000109                     I0220709     30081800000000035003410000017N070518104700000000000103008180000000000000000000000000000000000000000100006424589880LUIZ CARLOS BRITO                       RUA DA LIBERDADE                        TINGUA      26063230NOVA IGUACU    RJUNIAO UMB DOS CULTOS AFRO BRAS    30081810 000099
10231987175000168916200163100    000020707                    000207070000000000000109                     I0220707     30081800000000035003410000017N070518104700000000000103008180000000000000000000000000000000000000000100009250353782LUIZ CARLOS MATOLA                      APIACA                                  JARDIM PRIMA25056270DUQUE DE CAXIASRJUNIAO UMB DOS CULTOS AFRO BRAS    30081810 000100
10231987175000168916200163100    000020706                    000207060000000000000109                     I0220706     30081800000000035003410000017N070518104700000000000103008180000000000000000000000000000000000000000100012345678910LUCIANA LUISA PEREIRA                   TRAVESSA JOAO DE BARRO                  LAGOMAR     27966870MACAE          RJUNIAO UMB DOS CULTOS AFRO BRAS    30081810 000101
10231987175000168916200163100    000020705                    000207050000000000000109                     I0220705     30081800000000035003410000017N070518104700000000000103008180000000000000000000000000000000000000000100012464631728DIEGO TACITO COSTA HENRIQUE             RUA YONE MUSSI                          MALVINAS    27946310MACAE          RJUNIAO UMB DOS CULTOS AFRO BRAS    30081810 000102
10231987175000168916200163100    000020704                    000207040000000000000109                     I0220704     30081800000000035003410000017N070518104700000000000103008180000000000000000000000000000000000000000100000000001299MARIA DA PENHA CORREA PINTO             RUA UM                                  BOSQUE AZUL 27971250MACAE          RJUNIAO UMB DOS CULTOS AFRO BRAS    30081810 000103
10231987175000168916200163100    000020703                    000207030000000000000109                     I0220703     30081800000000035003410000017N070518104700000000000103008180000000000000000000000000000000000000000100078514533568PAULO SERGIO SANTOS SANTANA             RUA W                                   LAGOMAR     27966590MACAE          RJUNIAO UMB DOS CULTOS AFRO BRAS    30081810 000104
10231987175000168916200163100    000020701                    000207010000000000000109                     I0220701     30081800000000035003410000017N070518104700000000000103008180000000000000000000000000000000000000000100007208431701WEMERSON JOAO FARIAS DA SILVA           RUA: C                                  SEPETIBA    23545040RIO DE JANEIRO RJUNIAO UMB DOS CULTOS AFRO BRAS    30081810 000105
10231987175000168916200163100    000020700                    000207000000000000000109                     I0220700     30081800000000035003410000017N070518104700000000000103008180000000000000000000000000000000000000000100073960560710CLAUDIA MARIA DE OLIVEIRA DOS           RUA CARATUVA                            JARDIM SULAC22725020RIO DE JANEIRO RJUNIAO UMB DOS CULTOS AFRO BRAS    30081810 000106
10231987175000168916200163100    000020699                    000206990000000000000109                     I0220699     30081800000000035003410000017N070518104700000000000103008180000000000000000000000000000000000000000100014933850704LIDIA GABRIELLE DIAS RIBEIRO            RUA JORGE BRAGANCA                      BOM PASTOR  26110080BELFORD ROXO   RJUNIAO UMB DOS CULTOS AFRO BRAS    30081810 000107
10231987175000168916200163100    000020697                    000206970000000000000109                     I0220697     30081800000000035003410000017N070518104700000000000103008180000000000000000000000000000000000000000100001478776790CLEUSA FERREIRA PEREIRA                 RUA THEREMIN                            COELHO NETO 21530290RIO DE JANEIRO RJUNIAO UMB DOS CULTOS AFRO BRAS    30081810 000108
10231987175000168916200163100    000020695                    000206950000000000000109                     I0220695     30081800000000035003410000017N070518104700000000000103008180000000000000000000000000000000000000000100010292272766MARCIA JUPIRA SANTOS GONZAGA            RUA ANTONIO FELIX                       CENTRO      26520081NILOPOLIS      RJUNIAO UMB DOS CULTOS AFRO BRAS    30081810 000109
10231987175000168916200163100    000020694                    000206940000000000000109                     I0220694     30081800000000035003410000017N070518104700000000000103008180000000000000000000000000000000000000000100090490894704EVELINE DA CONCEICAO                    AVENIDA ATLANTIDA                       LAGOMAR     27966000MACAE          RJUNIAO UMB DOS CULTOS AFRO BRAS    30081810 000110
10231987175000168916200163100    000020693                    000206930000000000000109                     I0220693     30081800000000035003410000017N070518104700000000000103008180000000000000000000000000000000000000000100013397736781JOVANE RANGEL DA SILVA                  RUA SILVA JARDIM                        CENTRO      27910340MACAE          RJUNIAO UMB DOS CULTOS AFRO BRAS    30081810 000111
10231987175000168916200163100    000020692                    000206920000000000000109                     I0220692     30081800000000035003410000017N070518104700000000000103008180000000000000000000000000000000000000000100004188514760LUIZ CARLOS PEREIRA DA SILVA            RUA W                                   LAGOMAR     27966755MACAE          RJUNIAO UMB DOS CULTOS AFRO BRAS    30081810 000112
10231987175000168916200163100    000020691                    000206910000000000000109                     I0220691     30081800000000035003410000017N070518104700000000000103008180000000000000000000000000000000000000000100016492108760TIAGO LOPES DE AZEVEDO SILVA            RUA X                                   PARADA MODEL25943365GUAPIMIRIM     RJUNIAO UMB DOS CULTOS AFRO BRAS    30081810 000113
10231987175000168916200163100    000020690                    000206900000000000000109                     I0220690     30081800000000035003410000017N070518104700000000000103008180000000000000000000000000000000000000000100000000000000LEONARDO EUGENIO DOS SANTOS             RUA LUIZ PINTO DA SILVA                 PRAIA CAMPIS27923200MACAE          RJUNIAO UMB DOS CULTOS AFRO BRAS    30081810 000114
10231987175000168916200163100    000020689                    000206890000000000000109                     I0220689     30081800000000035003410000017N070518104700000000000103008180000000000000000000000000000000000000000100095181890725ALEXANDRE DE SOUZA TAVARES SEN          RUA DOM MANOEL                          DOM RODRIGO 26260230NOVA IGUACU    RJUNIAO UMB DOS CULTOS AFRO BRAS    30081810 000115
10231987175000168916200163100    000020688                    000206880000000000000109                     I0220688     30081800000000035003410000017N070518104700000000000103008180000000000000000000000000000000000000000100014527767763THIERRY PADILHA MOTA                    RUA ALCIR BRASIL                        JARDIM NOVA 26266010NOVA IGUACU    RJUNIAO UMB DOS CULTOS AFRO BRAS    30081810 000116
10231987175000168916200163100    000020687                    000206870000000000000109                     I0220687     30081800000000035003410000017N070518104700000000000103008180000000000000000000000000000000000000000100011122717750RODRIGO DINIZ DA COSTA                  RUA ENGENHO DE DENTRO                   VILAR DOS TE25565230SAO JOAO DE MERRJUNIAO UMB DOS CULTOS AFRO BRAS    30081810 000117
10231987175000168916200163100    000020686                    000206860000000000000109                     I0220686     30081800000000035003410000017N070518104700000000000103008180000000000000000000000000000000000000000100013090350750REINALDO GONCALVES DE OLIVEIRA          RUA DOMINGOS LEMOS                      COELHO DA RO25550721SAO JOAO DE MERRJUNIAO UMB DOS CULTOS AFRO BRAS    30081810 000118
10231987175000168916200163100    000020685                    000206850000000000000109                     I0220685     30081800000000035003410000017N070518104700000000000103008180000000000000000000000000000000000000000100005953749724JUCIARA DA SILVA XAVIER                 RUA CONDE DE AZAMBUJA                   MARIA DA GRA20785342RIO DE JANEIRO RJUNIAO UMB DOS CULTOS AFRO BRAS    30081810 000119
10231987175000168916200163100    000020684                    000206840000000000000109                     I0220684     30081800000000035003410000017N070518104700000000000103008180000000000000000000000000000000000000000100006110323764WAGNER MATOS DA SILVA                   RUA OLINDA                              BELA VISTA  26175350BELFORD ROXO   RJUNIAO UMB DOS CULTOS AFRO BRAS    30081810 000120
10231987175000168916200163100    000020683                    000206830000000000000109                     I0220683     30081800000000035003410000017N070518104700000000000103008180000000000000000000000000000000000000000100092111777749WANDERLEY DOS SANTOS MENDES             PRACA EMBOABA                           ENGENHO DA R20761160RIO DE JANEIRO RJUNIAO UMB DOS CULTOS AFRO BRAS    30081810 000121
10231987175000168916200163100    000020682                    000206820000000000000109                     I0220682     30081800000000035003410000017N070518104700000000000103008180000000000000000000000000000000000000000100009416663794IGOR DO NASCIMENTO RODRIGUES            RUA FIGUEIREDO ROCHA                    VIGARIO GERA21240660RIO DE JANEIRO RJUNIAO UMB DOS CULTOS AFRO BRAS    30081810 000122
10231987175000168916200163100    000020681                    000206810000000000000109                     I0220681     30081800000000035003410000017N070518104700000000000103008180000000000000000000000000000000000000000100090432894772ALTAMIRO DAMASCENO MONCAO               RUA TENERIFE                            PARADA DE LU21010000RIO DE JANEIRO RJUNIAO UMB DOS CULTOS AFRO BRAS    30081810 000123
10231987175000168916200163100    000020679                    000206790000000000000109                     I0220679     30081800000000035003410000017N070518104700000000000103008180000000000000000000000000000000000000000100011834931770LEANDRO BARROS DA SILVA                 RUA ROMARIO SILVA                       KENNEDY     26020640NOVA IGUACU    RJUNIAO UMB DOS CULTOS AFRO BRAS    30081810 000124
10231987175000168916200163100    000020678                    000206780000000000000109                     I0220678     30081800000000035003410000017N070518104700000000000103008180000000000000000000000000000000000000000100069279500791CLAUDIA ALONSO RODRIGUES                ESTRADA DO PAU FERRO                    FREGUESIA   22745055RIO DE JANEIRO RJUNIAO UMB DOS CULTOS AFRO BRAS    30081810 000125
10231987175000168916200163100    000020674                    000206740000000000000109                     I0220674     30081800000000035003410000017N070518104700000000000103008180000000000000000000000000000000000000000100088041883753JORGE COSTA BRAGA FILHO                 RUA CENTO E VINTE E TRES                MAUA        25900000RIO DE JANEIRO RJUNIAO UMB DOS CULTOS AFRO BRAS    30081810 000126
10231987175000168916200163100    000020672                    000206720000000000000109                     I0220672     30081800000000035003410000017N070518104700000000000103008180000000000000000000000000000000000000000100005234763706LUCIANA FERREIRA DE ALMEIDA             RUA QUATRO                              PARADA MORAB25265220DUQUE DE CAXIASRJUNIAO UMB DOS CULTOS AFRO BRAS    30081810 000127
10231987175000168916200163100    000020671                    000206710000000000000109                     I0220671     30081800000000035003410000017N070518104700000000000103008180000000000000000000000000000000000000000100012009305760DEBORA CRISTINA DE OLIVEIRA BR          RUA LORD COCHRANE                       IBIRAPITANGA23811810ITAGUAI        RJUNIAO UMB DOS CULTOS AFRO BRAS    30081810 000128
10231987175000168916200163100    000020670                    000206700000000000000109                     I0220670     30081800000000035003410000017N070518104700000000000103008180000000000000000000000000000000000000000100000759136742ADRIANA LAPORT ALVES                    RUA DONA CLARA DE ARAUJO                ANDRADE ARAU26010390NOVA IGUACU    RJUNIAO UMB DOS CULTOS AFRO BRAS    30081810 000129
10231987175000168916200163100    000020666                    000206660000000000000109                     I0220666     30081800000000035003410000017N070518104700000000000103008180000000000000000000000000000000000000000100012450258728MONIQUE RODRIGUES DE ALMEIDA            RUA SESSENTA                            JARDIM MARAV21750400RIO DE JANEIRO RJUNIAO UMB DOS CULTOS AFRO BRAS    30081810 000130
10231987175000168916200163100    000020665                    000206650000000000000109                     I0220665     30081800000000035003410000017N070518104700000000000103008180000000000000000000000000000000000000000100008578432738WANDERSON DOS SANTOS LOPES              RUA SATURNO                             VILA GENI   23825517COROA GRANDE   RJUNIAO UMB DOS CULTOS AFRO BRAS    30081810 000131
10231987175000168916200163100    000020664                    000206640000000000000109                     I0220664     30081800000000035003410000017N070518104700000000000103008180000000000000000000000000000000000000000100058365737787ALTAMIRA ROSA                           AVENIDA DO CONTORNO                     PARADA MORAB25000000DUQUE DE CAXIASRJUNIAO UMB DOS CULTOS AFRO BRAS    30081810 000132
10231987175000168916200163100    000020663                    000206630000000000000109                     I0220663     30081800000000035003410000017N070518104700000000000103008180000000000000000000000000000000000000000100074171372704ELIANE DE SOUZA MACHADO                 RUA ROQUETE PINTO                       JARDIM ANHAN25265200DUQUE DE CAXIASRJUNIAO UMB DOS CULTOS AFRO BRAS    30081810 000133
10231987175000168916200163100    000020661                    000206610000000000000109                     I0220661     30081800000000035003410000017N070518104700000000000103008180000000000000000000000000000000000000000100010262557754EDGAR SODRE BANI                        RUA B N 20                              PARADA MORAB25265220DUQUE DE CAXIASRJUNIAO UMB DOS CULTOS AFRO BRAS    30081810 000134
10231987175000168916200163100    000020660                    000206600000000000000109                     I0220660     30081800000000035003410000017N070518104700000000000103008180000000000000000000000000000000000000000100006876928730DIONE ASSUNCAO SOARES                   RUA SILVIA VIEIRA SN                    FAZENDA SOSS26088475NOVA IGUACU    RJUNIAO UMB DOS CULTOS AFRO BRAS    30081810 000135
10231987175000168916200163100    000020659                    000206590000000000000109                     I0220659     30081800000000035003410000017N070518104700000000000103008180000000000000000000000000000000000000000100063268876749JORGE DA COSTA BARRETO                  RUA MINISTRO MOREIRA ABREU              OLARIA      21071485BELFORD ROXO   RJUNIAO UMB DOS CULTOS AFRO BRAS    30081810 000136
10231987175000168916200163100    000020658                    000206580000000000000109                     I0220658     30081800000000035003410000017N070518104700000000000103008180000000000000000000000000000000000000000100003798443700ALINE MODINA TELLES                     RUA JURACI COELHO                       JARDIM PALMA26271100RIO DE JANEIRO RJUNIAO UMB DOS CULTOS AFRO BRAS    30081810 000137
10231987175000168916200163100    000020656                    000206560000000000000109                     I0220656     30081800000000035003410000017N070518104700000000000103008180000000000000000000000000000000000000000100084441372787LUCIA HELENA DE OLIVEIRA GAMA           RUA PEDRO ANTONIO PEREIRA               AERO CLUBE  26285291NOVA IGUACU    RJUNIAO UMB DOS CULTOS AFRO BRAS    30081810 000138
10231987175000168916200163100    000020655                    000206550000000000000109                     I0220655     30081800000000035003410000017N070518104700000000000103008180000000000000000000000000000000000000000100082191638791RITA DE CASSIA VALVERDE ROCHA           RUA JOAQUIM SOARES NETO                 NOVA AMERICA26021560NOVA IGUACU    RJUNIAO UMB DOS CULTOS AFRO BRAS    30081810 000139
10231987175000168916200163100    000020654                    000206540000000000000109                     I0220654     30081800000000035003410000017N070518104700000000000103008180000000000000000000000000000000000000000100011590456742WANILA LIMA DE BRITO                    RUA REDENTOR LOTE 5 QUADRA 18 CASA 2 FUNJARDIM REDEN26110090BELFORD ROXO   RJUNIAO UMB DOS CULTOS AFRO BRAS    30081810 000140
10231987175000168916200163100    000020651                    000206510000000000000109                     I0220651     30081800000000035003410000017N070518104700000000000103008180000000000000000000000000000000000000000100012727461780SUELMIR LIMA DE ARAUJO                  RUA NOSSA SENHORA DAS GRACAS            PRAIA DO ANI25925708MAGE           RJUNIAO UMB DOS CULTOS AFRO BRAS    30081810 000141
10231987175000168916200163100    000020650                    000206500000000000000109                     I0220650     30081800000000035003410000017N070518104700000000000103008180000000000000000000000000000000000000000100096531287950FERNANDO RIBEIRO DE SOUZA               RUA JOAO PEDRO TESCH                    ALTO DA SERR25635500PETROPOLIS     RJUNIAO UMB DOS CULTOS AFRO BRAS    30081810 000142
10231987175000168916200163100    000020649                    000206490000000000000109                     I0220649     30081800000000035003410000017N070518104700000000000103008180000000000000000000000000000000000000000100002142304737ILAIR FERNANDES BRAZILEIRO BOR          RUA VERISSIMO MACHADO                   ROCHA MIRAND21545060RIO DE JANEIRO RJUNIAO UMB DOS CULTOS AFRO BRAS    30081810 000143
10231987175000168916200163100    000020647                    000206470000000000000109                     I0220647     30081800000000035003410000017N070518104700000000000103008180000000000000000000000000000000000000000100011351878786GLEISSON BITTENCOURT DA SILVA           RUA FLORA DE ARAUJO                     PRATA       26010570NOVA IGUACU    RJUNIAO UMB DOS CULTOS AFRO BRAS    30081810 000144
10231987175000168916200163100    000020645                    000206450000000000000109                     I0220645     30081800000000035003410000017N070518104700000000000103008180000000000000000000000000000000000000000100005225598757JOSUE DA SILVA SANTOS                   RUA H QUADRA 7 LOTE 24                  AMAPA - DUQU25235360DUQUE DE CAXIASRJUNIAO UMB DOS CULTOS AFRO BRAS    30081810 000145
10231987175000168916200163100    000020642                    000206420000000000000109                     I0220642     30081800000000035003410000017N070518104700000000000103008180000000000000000000000000000000000000000100015110892709YASMIN FIALHO HANGES                    ESTRADA HENRIQUE DE MELO                BENTO RIBEIR21340190RIO DE JANEIRO RJUNIAO UMB DOS CULTOS AFRO BRAS    30081810 000146
10231987175000168916200163100    000020641                    000206410000000000000109                     I0220641     30081800000000035003410000017N070518104700000000000103008180000000000000000000000000000000000000000100009503848792JORGE ALEXANDRE TEIXEIRA BRAZ           RUA CAJUIPE N 163 CASA 1                BONSUCESSO -21060490RIO DE JANEIRO RJUNIAO UMB DOS CULTOS AFRO BRAS    30081810 000147
10231987175000168916200163100    000020640                    000206400000000000000109                     I0220640     30081800000000035003410000017N070518104700000000000103008180000000000000000000000000000000000000000100030894840720LIGIA REGINA ZACHARIAS DE MELO          RUA MANAPA                              VALVERDE    21051360RIO DE JANEIRO RJUNIAO UMB DOS CULTOS AFRO BRAS    30081810 000148
10231987175000168916200163100    000020639                    000206390000000000000109                     I0220639     30081800000000035003410000017N070518104700000000000103008180000000000000000000000000000000000000000100007443282761WASHINGTON LUIZ DA SILVA RAMOS          RUA DEZESSETE N 78 - CONJUNTO LIBERDADE SANTA CRUZ -23560600RIO DE JANEIRO RJUNIAO UMB DOS CULTOS AFRO BRAS    30081810 000149
10231987175000168916200163100    000020638                    000206380000000000000109                     I0220638     30081800000000035003410000017N070518104700000000000103008180000000000000000000000000000000000000000100007964006797JOSILENE MONTEIRO HERMOGENES            RUA PADRE MARINHO N 309                 SARACURUNA -25212450DUQUE DE CAXIASRJUNIAO UMB DOS CULTOS AFRO BRAS    30081810 000150
10231987175000168916200163100    000020637                    000206370000000000000109                     I0220637     30081800000000035003410000017N070518104700000000000103008180000000000000000000000000000000000000000100010544644701RENATA DE OLIVEIRA SILVA                RUA NOSSA SENHORA DE NAZARE N 23 A      GERENCIANO -26061700NOVA IGUACU    RJUNIAO UMB DOS CULTOS AFRO BRAS    30081810 000151
10231987175000168916200163100    000020634                    000206340000000000000109                     I0220634     30081800000000035003410000017N070518104700000000000103008180000000000000000000000000000000000000000100000000001288JOSE ANTONIO DA SILVA JUNIOR            RUA HUMAITA                             PIABETA     25915000MAGE           RJUNIAO UMB DOS CULTOS AFRO BRAS    30081810 000152
10231987175000168916200163100    000020633                    000206330000000000000109                     I0220633     30081800000000035003410000017N070518104700000000000103008180000000000000000000000000000000000000000100009956479764TATIANE VASCONCELOS DA SILVA            RUA SANTA MARGARIDA N 337               PIABETA - MA25900000MAGE           RJUNIAO UMB DOS CULTOS AFRO BRAS    30081810 000153
10231987175000168916200163100    000020632                    000206320000000000000109                     I0220632     30081800000000035003410000017N070518104700000000000103008180000000000000000000000000000000000000000100093788150734REGINA DA SILVA VERONEZI DOS S          RUA ABATE                               JARDIM CANAA26263040NOVA IGUACU    RJUNIAO UMB DOS CULTOS AFRO BRAS    30081810 000154
10231987175000168916200163100    000020631                    000206310000000000000109                     I0220631     30081800000000035003410000017N070518104700000000000103008180000000000000000000000000000000000000000100008834107705JOSELI TIADULINO                        RUA MARIA TEREZA                        JARDIM CANAA26263230NOVA IGUACU    RJUNIAO UMB DOS CULTOS AFRO BRAS    30081810 000155
10231987175000168916200163100    000020630                    000206300000000000000109                     I0220630     30081800000000035003410000017N070518104700000000000103008180000000000000000000000000000000000000000100092645933734ROSINEA PRECIOSO DE OLIVEIRA            RUA PROFESSORA MARLY CARVALHO PEREIRA   MIGUEL COUTO26070452NOVA IGUACU    RJUNIAO UMB DOS CULTOS AFRO BRAS    30081810 000156
10231987175000168916200163100    000020627                    000206270000000000000109                     I0220627     30081800000000035003410000017N070518104700000000000103008180000000000000000000000000000000000000000100080578063700SANDRA REGINA NEVES CHAGAS              RUA MARIA LOURENCO                      JARDIM PRIMA25215367DUQUE DE CAXIASRJUNIAO UMB DOS CULTOS AFRO BRAS    30081810 000157
10231987175000168916200163100    000020626                    000206260000000000000109                     I0220626     30081800000000035003410000017N070518104700000000000103008180000000000000000000000000000000000000000100068374208791ROSANA LISBOA DE OLIVEIRA               RUA TEOFILO DIAS LOTE 7 QUADRA 47       PILAR - DUQU25233239DUQUE DE CAXIASRJUNIAO UMB DOS CULTOS AFRO BRAS    30081810 000158
10231987175000168916200163100    000020625                    000206250000000000000109                     I0220625     30081800000000035003410000017N070518104700000000000103008180000000000000000000000000000000000000000100014760475702DEBORAH ROSA                            RUA MARIA LOURENCO GONCALVES N 18 CASA 2JARDIM PRIMA25215367DUQUE DE CAXIASRJUNIAO UMB DOS CULTOS AFRO BRAS    30081810 000159
10231987175000168916200163100    000020624                    000206240000000000000109                     I0220624     30081800000000035003410000017N070518104700000000000103008180000000000000000000000000000000000000000100054336481768PENHA JACIARA DA SILVA                  RUA DEZESSETE N 102 (CONJUNTO LIBERDADE)SANTA CRUZ -23560600RIO DE JANEIRO RJUNIAO UMB DOS CULTOS AFRO BRAS    30081810 000160
10231987175000168916200163100    000020623                    000206230000000000000109                     I0220623     30081800000000035003410000017N070518104700000000000103008180000000000000000000000000000000000000000100004419977752GISELE DE CASTILHO SOARES               RUA ARTHUR MAGALHAES                    COMENDADOR S26276605NOVA IGUACU    RJUNIAO UMB DOS CULTOS AFRO BRAS    30081810 000161
10231987175000168916200163100    000020622                    000206220000000000000109                     I0220622     30081800000000035003410000017N070518104700000000000103008180000000000000000000000000000000000000000100055480730797TEREZINHA DE JESUS FERRAZ DOS           RUA TUPINAMBA N 305 - OURO VERDE        OURO VERDE -26262490NOVA IGUACU    RJUNIAO UMB DOS CULTOS AFRO BRAS    30081810 000162
10231987175000168916200163100    000020621                    000206210000000000000109                     I0220621     30081800000000035003410000017N070518104700000000000103008180000000000000000000000000000000000000000100000889136785EDENILSON DE SOUZA SILVA                ESTRADA DOS SETE RIACHOS N 2605         SANTISSIMO -23070420RIO DE JANEIRO RJUNIAO UMB DOS CULTOS AFRO BRAS    30081810 000163
10231987175000168916200163100    000020620                    000206200000000000000109                     I0220620     30081800000000035003410000017N070518104700000000000103008180000000000000000000000000000000000000000100000915013770ROSANGELA DAS NEVES RESENDE DO          RUA GOIANESIA LOTE 23 QUADRA 101        MARAMBAIA - 24859300ITABORAI       RJUNIAO UMB DOS CULTOS AFRO BRAS    30081810 000164
10231987175000168916200163100    000020619                    000206190000000000000109                     I0220619     30081800000000035003410000017N070518104700000000000103008180000000000000000000000000000000000000000100005411763746MONICA CRUZ DE OLIVEIRA                 AVENIDA JOAO XXIII - RUA QUATORZE QUADRASANTA CRUZ -23565110RIO DE JANEIRO RJUNIAO UMB DOS CULTOS AFRO BRAS    30081810 000165
10231987175000168916200163100    000020618                    000206180000000000000109                     I0220618     30081800000000035003410000017N070518104700000000000103008180000000000000000000000000000000000000000100000000001285JEANE APARECIDA NUNES BITENCOU          RUA HISTORIA N 8                        JARDIM REDEN26110350RIO DE JANEIRO RJUNIAO UMB DOS CULTOS AFRO BRAS    30081810 000166
10231987175000168916200163100    000020617                    000206170000000000000109                     I0220617     30081800000000035003410000017N070518104700000000000103008180000000000000000000000000000000000000000100008246810707LEILA DA SILVA MARQUES                  RUA REDENTOR LOTE 19 QUADRA 18          JARDIM REDEN26110090BELFORD ROXO   RJUNIAO UMB DOS CULTOS AFRO BRAS    30081810 000167
10231987175000168916200163100    000020616                    000206160000000000000109                     I0220616     30081800000000035003410000017N070518104700000000000103008180000000000000000000000000000000000000000100010276278704ROSELI DE OLIVEIRA DUTRA                RUA UM                                  TAQUARA     25275110DUQUE DE CAXIASRJUNIAO UMB DOS CULTOS AFRO BRAS    30081810 000168
10231987175000168916200163100    000020615                    000206150000000000000109                     I0220615     30081800000000035003410000017N070518104700000000000103008180000000000000000000000000000000000000000100005633721735MARCOS AURELIO PAULINO FLORIAN          RUA LEONEL ROCHA                        GUARATIBA   23032460RIO DE JANEIRO RJUNIAO UMB DOS CULTOS AFRO BRAS    30081810 000169
10231987175000168916200163100    000020614                    000206140000000000000109                     I0220614     30081800000000035003410000017N070518104700000000000103008180000000000000000000000000000000000000000100000000001288VIVIANE MORAES ALEXANDRINO              RUA JOAQUIM MOREIRA                     SEPETIBA    23545054RIO DE JANEIRO RJUNIAO UMB DOS CULTOS AFRO BRAS    30081810 000170
10231987175000168916200163100    000020613                    000206130000000000000109                     I0220613     30081800000000035003410000017N070518104700000000000103008180000000000000000000000000000000000000000100004277956726ROSANA OLIVEIRA GUEDES                  RUA CARDOSO QUINTAO                     PIEDADE     21381460RIO DE JANEIRO RJUNIAO UMB DOS CULTOS AFRO BRAS    30081810 000171
10231987175000168916200163100    000020612                    000206120000000000000109                     I0220612     30081800000000035003410000017N070518104700000000000103008180000000000000000000000000000000000000000100001972684710ALEXANDRE MALAQUIAS DE SOUSA P          AVENIDA NELSON DE AQUINO                COROA GRANDE23825670ITAGUAI        RJUNIAO UMB DOS CULTOS AFRO BRAS    30081810 000172
10231987175000168916200163100    000020610                    000206100000000000000109                     I0220610     30081800000000035003410000017N070518104700000000000103008180000000000000000000000000000000000000000100004554269701PATRICIA CABRAL BOTELHO                 RUA QUINTAO N 995 - PIEDADE             PIEDADE - RI21381050RIO DE JANEIRO RJUNIAO UMB DOS CULTOS AFRO BRAS    30081810 000173
10231987175000168916200163100    000020609                    000206090000000000000109                     I0220609     30081800000000035003410000017N070518104700000000000103008180000000000000000000000000000000000000000100000129467707SANDRA CRISTINA DOS SANTOS TIT          RUA DAVI                                CIDADE DE DE22777243JACAREPAGUA    RJUNIAO UMB DOS CULTOS AFRO BRAS    30081810 000174
10231987175000168916200163100    000020608                    000206080000000000000109                     I0220608     30081800000000035003410000017N070518104700000000000103008180000000000000000000000000000000000000000100008781471793LURDEUDALIA ARAUJO                      RUA MARIA LOROSA - VITORIA REGIS CASA 8 SANTA CRUZ -23525040RIO DE JANEIRO RJUNIAO UMB DOS CULTOS AFRO BRAS    30081810 000175
10231987175000168916200163100    000020607                    000206070000000000000109                     I0220607     30081800000000035003410000017N070518104700000000000103008180000000000000000000000000000000000000000100060237090791ELIZABETH TELLES DA SILVA               ESTRADA OUTEIRO SANTO                   TAQUARA     22713164RIO DE JANEIRO RJUNIAO UMB DOS CULTOS AFRO BRAS    30081810 000176
10231987175000168916200163100    000020605                    000206050000000000000109                     I0220605     30081800000000035003410000017N070518104700000000000103008180000000000000000000000000000000000000000100000076412733VALERIA RIBEIRO TEIXEIRA                RUA JIPIOCA N 135 CASA 1                CASCADURA - 21311250RIO DE JANEIRO RJUNIAO UMB DOS CULTOS AFRO BRAS    30081810 000177
10231987175000168916200163100    000020603                    000206030000000000000109                     I0220603     30081800000000035003410000017N070518104700000000000103008180000000000000000000000000000000000000000100038835568749MARIA DE ALCANTARA GOULART SIL          RUA GAMBIA                              JACAREPAGUA 22775400RIO DE JANEIRO RJUNIAO UMB DOS CULTOS AFRO BRAS    30081810 000178
10231987175000168916200163100    000020602                    000206020000000000000109                     I0220602     30081800000000035003410000017N070518104700000000000103008180000000000000000000000000000000000000000100014994285705JEFFERSON DOS SANTOS DA SILVA           ESTRADA DO PAU DA FOME                  TAQUARA     22723497RIO DE JANEIRO RJUNIAO UMB DOS CULTOS AFRO BRAS    30081810 000179
10231987175000168916200163100    000020601                    000206010000000000000109                     I0220601     30081800000000035003410000017N070518104700000000000103008180000000000000000000000000000000000000000100035138963791AMILTON PIO                             RUA JOSE DE MELO N 77                   SEPETIBA - R23545165RIO DE JANEIRO RJUNIAO UMB DOS CULTOS AFRO BRAS    30081810 000180
10231987175000168916200163100    000020600                    000206000000000000000109                     I0220600     30081800000000035003410000017N070518104700000000000103008180000000000000000000000000000000000000000100011998959708ARTUR TAVARES DA SILVA NETO             RUA PREFEITO JOAO CARLOS VITAL          CROACIA - SE23540080RIO DE JANEIRO RJUNIAO UMB DOS CULTOS AFRO BRAS    30081810 000181
10231987175000168916200163100    000020597                    000205970000000000000109                     I0220597     30081800000000035003410000017N070518104700000000000103008180000000000000000000000000000000000000000100002134084731MARINALVA LINDOLFO DA SILVA             AVENIDA GOMES FREIRE N 136              VILA SANTO A25040310DUQUE DE CAXIASRJUNIAO UMB DOS CULTOS AFRO BRAS    30081810 000182
10231987175000168916200163100    000020594                    000205940000000000000109                     I0220594     30081800000000035003410000017N070518104700000000000103008180000000000000000000000000000000000000000100001301453781CARLINDA AZEREDO MATOS                  RUA DOUTOR FERNANDO BRIGADAO N 17       RIACHAO - NO26279180NOVA IGUACU    RJUNIAO UMB DOS CULTOS AFRO BRAS    30081810 000183
10231987175000168916200163100    000020593                    000205930000000000000109                     I0220593     30081800000000035003410000017N070518104700000000000103008180000000000000000000000000000000000000000100014604780706GILMAR GONCALVES FERREIRA               RUA DOIS BLOCO 2 CASA 27                ROCINHA - RI22451400RIO DE JANEIRO RJUNIAO UMB DOS CULTOS AFRO BRAS    30081810 000184
10231987175000168916200163100    000020592                    000205920000000000000109                     I0220592     30081800000000035003410000017N070518104700000000000103008180000000000000000000000000000000000000000100064175499768TEREZA CRISTINA PIRES SILVA RO          RUA GOIAS LOTE 3 QUADRA 4               PLANALTO DO 24859300ITABORAI       RJUNIAO UMB DOS CULTOS AFRO BRAS    30081810 000185
10231987175000168916200163100    000020591                    000205910000000000000109                     I0220591     30081800000000035003410000017N070518104700000000000103008180000000000000000000000000000000000000000100065929039704JUPIACU SALLES                          RUA ANDRE ROCHA QUADRA 83 LOTES 16 E 17 CURICICA - R22570000RIO DE JANEIRO RJUNIAO UMB DOS CULTOS AFRO BRAS    30081810 000186
10231987175000168916200163100    000020590                    000205900000000000000109                     I0220590     30081800000000035003410000017N070518104700000000000103008180000000000000000000000000000000000000000100015834777724JOAO PAULO SALGUEIRO DA SILVA           RUA TUIBA                               VICENTE DE C21371170RIO DE JANEIRO RJUNIAO UMB DOS CULTOS AFRO BRAS    30081810 000187
10231987175000168916200163100    000020589                    000205890000000000000109                     I0220589     30081800000000035003410000017N070518104700000000000103008180000000000000000000000000000000000000000100066003110782MARIA CLAUDIA DE LIMA FOLY              RUA PP LOTE 5 QUADRA 48                 BARAO GUANDU26021560NOVA IGUACU    RJUNIAO UMB DOS CULTOS AFRO BRAS    30081810 000188
10231987175000168916200163100    000020588                    000205880000000000000109                     I0220588     30081800000000035003410000017N070518104700000000000103008180000000000000000000000000000000000000000100089044380710DENISE SAMPAIO DE MOURA MACIEL          RUA XAXA N 10 - RIO DAS PEDRAS          JACAREPAGUA 22753057RIO DE JANEIRO RJUNIAO UMB DOS CULTOS AFRO BRAS    30081810 000189
10231987175000168916200163100    000020587                    000205870000000000000109                     I0220587     30081800000000035003410000017N070518104700000000000103008180000000000000000000000000000000000000000100025875159715SUELI DE OLIVEIRA DIAS                  AVENIDA ALAGOAS N 1198                  GARDENIA AZU22765451RIO DE JANEIRO RJUNIAO UMB DOS CULTOS AFRO BRAS    30081810 000190
10231987175000168916200163100    000020586                    000205860000000000000109                     I0220586     30081800000000035003410000017N070518104700000000000103008180000000000000000000000000000000000000000100002638717703EDINO GOMES DE BARROS JUNIOR            RUA PARANA                              MORRO DO ORI24400000SAO GONCALO    RJUNIAO UMB DOS CULTOS AFRO BRAS    30081810 000191
10231987175000168916200163100    000020585                    000205850000000000000109                     I0220585     30081800000000035003410000017N070518104700000000000103008180000000000000000000000000000000000000000100000920173713JORGE DOS SANTOS LUCAS                  RUA PP                                  JARDIM ANHAN25264360DUQUE DE CAXIASRJUNIAO UMB DOS CULTOS AFRO BRAS    30081810 000192
10231987175000168916200163100    000020584                    000205840000000000000109                     I0220584     30081800000000035003410000017N070518104700000000000103008180000000000000000000000000000000000000000100000497155770CINTIA MARTINS DA SILVA                 RUA POCONE                              ENCANTADO   20745090RIO DE JANEIRO RJUNIAO UMB DOS CULTOS AFRO BRAS    30081810 000193
10231987175000168916200163100    000020583                    000205830000000000000109                     I0220583     30081800000000035003410000017N070518104700000000000103008180000000000000000000000000000000000000000100009483806755MARCO ANTONIO ATAIDE DE MELO            TRAVESSA MARAPE                         COSTA BARROS21515240RIO DE JANEIRO RJUNIAO UMB DOS CULTOS AFRO BRAS    30081810 000194
10231987175000168916200163100    000020582                    000205820000000000000109                     I0220582     30081800000000035003410000017N070518104700000000000103008180000000000000000000000000000000000000000100095341048768MARILENE CANDIDA                        RUA NOSSA SENHORA DA GUIA N 163         VILA NOVA DO26062192NOVA IGUACU    RJUNIAO UMB DOS CULTOS AFRO BRAS    30081810 000195
10231987175000168916200163100    000020581                    000205810000000000000109                     I0220581     30081800000000035003410000017N070518104700000000000103008180000000000000000000000000000000000000000100001797738748PAULO CESAR LONATO SANTOS               RUA SAO MIGUEL ARCANJO                  SAO FRANCISC22095072CAMPO GRANDE   RJUNIAO UMB DOS CULTOS AFRO BRAS    30081810 000196
10231987175000168916200163100    000020580                    000205800000000000000109                     I0220580     30081800000000035003410000017N070518104700000000000103008180000000000000000000000000000000000000000100014492149759FILIPE FONSECA MARIANO                  RUA DONA JULIA N 16 FUNDOS              SEPETIBA - R23545570RIO DE JANEIRO RJUNIAO UMB DOS CULTOS AFRO BRAS    30081810 000197
10231987175000168916200163100    000020579                    000205790000000000000109                     I0220579     30081800000000035003410000017N070518104700000000000103008180000000000000000000000000000000000000000100007214737760LEANDRO FRAGA DE OLIVEIRA               RUA VAZ LOBO N 522 - VAZ LOBO           VAZ LOBO - R21361030RIO DE JANEIRO RJUNIAO UMB DOS CULTOS AFRO BRAS    30081810 000198
10231987175000168916200163100    000020578                    000205780000000000000109                     I0220578     30081800000000035003410000017N070518104700000000000103008180000000000000000000000000000000000000000100000000001279ALESSANDRA REIS DOS SANTOS              RUA MARIA TOMAZIA                       CABARAL - NI21321660RIO DE JANEIRO RJUNIAO UMB DOS CULTOS AFRO BRAS    30081810 000199
10231987175000168916200163100    000020576                    000205760000000000000109                     I0220576     30081800000000035003410000017N070518104700000000000103008180000000000000000000000000000000000000000100007545291778ANDRE LUIS DA SILVA                     RUA VASCO DA GAMA                       PARQUE ESTOR26063190NOVA IGUACU    RJUNIAO UMB DOS CULTOS AFRO BRAS    30081810 000200
10231987175000168916200163100    000020572                    000205720000000000000109                     I0220572     30081800000000035003410000017N070518104700000000000103008180000000000000000000000000000000000000000100003550624700ELAINE DE BARROS CARVALHO DE O          RUA DOUTOR ANTONIO MARTINS N 42 CASA 2 ATAQUARA - JA22723650RIO DE JANEIRO RJUNIAO UMB DOS CULTOS AFRO BRAS    30081810 000201
10231987175000168916200163100    000020571                    000205710000000000000109                     I0220571     30081800000000035003410000017N070518104700000000000103008180000000000000000000000000000000000000000100005649589720RAPHAEL AGUIAR DA SILVA                 ESTRADA DO BONGARVILLE, 869 CASA 42     ANIL - JACAR22753210RIO DE JANEIRO RJUNIAO UMB DOS CULTOS AFRO BRAS    30081810 000202
10231987175000168916200163100    000020570                    000205700000000000000109                     I0220570     30081800000000035003410000017N070518104700000000000103008180000000000000000000000000000000000000000100001857739744JORGE DE MORAES ESTANISLAU              RUA TITANIC                             REALENGO    21735620RIO DE JANEIRO RJUNIAO UMB DOS CULTOS AFRO BRAS    30081810 000203
10231987175000168916200163100    000020569                    000205690000000000000109                     I0220569     30081800000000035003410000017N070518104700000000000103008180000000000000000000000000000000000000000100011130957764MARCUS ULYSSES DE FIGUEIREDO P          RUA SAO JORGE N 764                     CAMPO ALEGRE26292228NOVA IGUACU    RJUNIAO UMB DOS CULTOS AFRO BRAS    30081810 000204
10231987175000168916200163100    000020568                    000205680000000000000109                     I0220568     30081800000000035003410000017N070518104700000000000103008180000000000000000000000000000000000000000100010016543752ALEXANDRE TEIXEIRA CAVALCANTE           RUA DOUTOR NUNES                        OLARIA      21021370RIO DE JANEIRO RJUNIAO UMB DOS CULTOS AFRO BRAS    30081810 000205
10231987175000168916200163100    000020566                    000205660000000000000109                     I0220566     30081800000000035003410000017N070518104700000000000103008180000000000000000000000000000000000000000100002846505608DIONE ROSA FERNANDES                    RUA MARQUES DE LEAO                     ENGENHO NOVO20780140RIO DE JANEIRO RJUNIAO UMB DOS CULTOS AFRO BRAS    30081810 000206
10231987175000168916200163100    000020565                    000205650000000000000109                     I0220565     30081800000000035003410000017N070518104700000000000103008180000000000000000000000000000000000000000100092673562753ALVARO RICARDO DE OLIVEIRA RIB          RUA AURORA SIQUEIRA N 18                MUTONDO - SA24452140SAO GONCALO    RJUNIAO UMB DOS CULTOS AFRO BRAS    30081810 000207
10231987175000168916200163100    000020562                    000205620000000000000109                     I0220562     30081800000000035003410000017N070518104700000000000103008180000000000000000000000000000000000000000100005440511733MONICA LEITE CRUZ                       RUA PARDAL N 130 B                      MAGALI - CAM23081070CAMPO GRANDE   RJUNIAO UMB DOS CULTOS AFRO BRAS    30081810 000208
10231987175000168916200163100    000020561                    000205610000000000000109                     I0220561     30081800000000035003410000017N070518104700000000000103008180000000000000000000000000000000000000000100074442163715MONICA BARCELLOS DE PAULA               AVENIDA VICENTE DE CARVALHO, 560        VICENTE DE C21371148RIO DE JANEIRO RJUNIAO UMB DOS CULTOS AFRO BRAS    30081810 000209
10231987175000168916200163100    000020560                    000205600000000000000109                     I0220560     30081800000000035003410000017N070518104700000000000103008180000000000000000000000000000000000000000100007924464700GILCEMAR PEREIRA DE MORAES              RUA JOSE ELEOTERIO N 102                CAMPO LINDO 23898220SEROPEDICA     RJUNIAO UMB DOS CULTOS AFRO BRAS    30081810 000210
10231987175000168916200163100    000020557                    000205570000000000000109                     I0220557     30081800000000035003410000017N070518104700000000000103008180000000000000000000000000000000000000000100000559929781KLEBER SIQUEIRA CUNHA                   ESTRADA DO PIAI                         GUARATIBA   23028050RIO DE JANEIRO RJUNIAO UMB DOS CULTOS AFRO BRAS    30081810 000211
10231987175000168916200163100    000020555                    000205550000000000000109                     I0220555     30081800000000035003410000017N070518104700000000000103008180000000000000000000000000000000000000000100001653081767DEISE SIQUEIRA                          RUA PARLON SIQUEIRA                     BARRA DE GUA23020510RIO DE JANEIRO RJUNIAO UMB DOS CULTOS AFRO BRAS    30081810 000212
10231987175000168916200163100    000020551                    000205510000000000000109                     I0220551     30081800000000035003410000017N070518104700000000000103008180000000000000000000000000000000000000000100009406419769MAURICIO DOS SANTOS SILVA               RUA CASTANHAL, TRAVESSA PROGRESSO I CASAPARQUE GENEC26061650NOVA IGUACU    RJUNIAO UMB DOS CULTOS AFRO BRAS    30081810 000213
10231987175000168916200163100    000020549                    000205490000000000000109                     I0220549     30081800000000035003410000017N070518104700000000000103008180000000000000000000000000000000000000000100099363704734SUELY FERNANDES LAPAS OLIVEIRA          RUA SARUTAIA                            GUARATIBA   23032620RIO DE JANEIRO RJUNIAO UMB DOS CULTOS AFRO BRAS    30081810 000214
10231987175000168916200163100    000020548                    000205480000000000000109                     I0220548     30081800000000035003410000017N070518104700000000000103008180000000000000000000000000000000000000000100002102287768SERGIO RICARDO FERREIRA DOS SA          RUA LAGUNA                              NOVA PIAM   26116620BELFORD ROXO   RJUNIAO UMB DOS CULTOS AFRO BRAS    30081810 000215
10231987175000168916200163100    000020547                    000205470000000000000109                     I0220547     30081800000000035003410000017N070518104700000000000103008180000000000000000000000000000000000000000100076903729704ALUIZO NASCIMENTI DOS SANTOS            RUA DAS ROSAS                           VILA FORMOSA26051370NOVA IGUACU    RJUNIAO UMB DOS CULTOS AFRO BRAS    30081810 000216
10231987175000168916200163100    000020546                    000205460000000000000109                     I0220546     30081800000000035003410000017N070518104700000000000103008180000000000000000000000000000000000000000100003009392729MARIA DA PENHA FLORENCIO                RUA SABUJI DIM ROTSEN                   JARDIM ROTSE25270030DUQUE DE CAXIASRJUNIAO UMB DOS CULTOS AFRO BRAS    30081810 000217
10231987175000168916200163100    000020545                    000205450000000000000109                     I0220545     30081800000000035003410000017N070518104700000000000103008180000000000000000000000000000000000000000100003567552740ERICA NADJARA DA LUZ                    RUA ENGENHEIRO ALARIPE N 114            LAGOINHA - N26296588NOVA IGUACU    RJUNIAO UMB DOS CULTOS AFRO BRAS    30081810 000218
10231987175000168916200163100    000020544                    000205440000000000000109                     I0220544     30081800000000035003410000017N070518104700000000000103008180000000000000000000000000000000000000000100001317399722JUSSARA DOS SANTOS MACHADO              RUA ARIES N 36                          PARQUE SAO J26190080BELFORD ROXO   RJUNIAO UMB DOS CULTOS AFRO BRAS    30081810 000219
10231987175000168916200163100    000020543                    000205430000000000000109                     I0220543     30081800000000035003410000017N070518104700000000000103008180000000000000000000000000000000000000000100011309006733TIAGO FEUCHARD DIAS                     RUA QUARENTA E NOVE N 130               IPIABAS - BA27170000BARRA DO PIRAI RJUNIAO UMB DOS CULTOS AFRO BRAS    30081810 000220
10231987175000168916200163100    000020542                    000205420000000000000109                     I0220542     30081800000000035003410000017N070518104700000000000103008180000000000000000000000000000000000000000100095529616704MARCOS LUIZ BORGES FIGUEIREDO           RUA PADUA N 95 - REDENTOR               REDENTOR - B26110250BELFORD ROXO   RJUNIAO UMB DOS CULTOS AFRO BRAS    30081810 000221
10231987175000168916200163100    000020541                    000205410000000000000109                     I0220541     30081800000000035003410000017N070518104700000000000103008180000000000000000000000000000000000000000100002871088489JOSE ADRIANO DA SILVA                   RUA UMEBOSCHE N 430                     JARDIM PARAI26297054NOVA IGUACU    RJUNIAO UMB DOS CULTOS AFRO BRAS    30081810 000222
10231987175000168916200163100    000020539                    000205390000000000000109                     I0220539     30081800000000035003410000017N070518104700000000000103008180000000000000000000000000000000000000000100007900227709FLAVIA ARAUJO DA ROCHA SANTOS           RUA MARECHAL AGRICOLA                   REALENGO    21735370RIO DE JANEIRO RJUNIAO UMB DOS CULTOS AFRO BRAS    30081810 000223
10231987175000168916200163100    000020538                    000205380000000000000109                     I0220538     30081800000000035003410000017N070518104700000000000103008180000000000000000000000000000000000000000100013297469706LEANDRO SOUZA DE JESUS                  RUA DAS MARRECAS - RUA CARLOTA SN       PARQUE ANTAR26053310NOVA IGUACU    RJUNIAO UMB DOS CULTOS AFRO BRAS    30081810 000224
10231987175000168916200163100    000020537                    000205370000000000000109                     I0220537     30081800000000035003410000017N070518104700000000000103008180000000000000000000000000000000000000000100000000001273JORGE CARLOS RODRIGUES DE OLIV          ESTRADA TAQUARAL                        JARDIM NAZAR26062221NOVA IGUACU    RJUNIAO UMB DOS CULTOS AFRO BRAS    30081810 000225
10231987175000168916200163100    000020534                    000205340000000000000109                     I0220534     30081800000000035003410000017N070518104700000000000103008180000000000000000000000000000000000000000100010498307760WILLIAM ROSA DA COSTA                   RUA OITENTA                             IPIRANGA - M25927164MAGE           RJUNIAO UMB DOS CULTOS AFRO BRAS    30081810 000226
10231987175000168916200163100    000020531                    000205310000000000000109                     I0220531     30081800000000035003410000017N070518104700000000000103008180000000000000000000000000000000000000000200000000012726VALTER CRISTIANO DOS SANTOS             RUA SAO VENANCIO N 327                  RICARDO DE A21640330RIO DE JANEIRO RJUNIAO UMB DOS CULTOS AFRO BRAS    30081810 000227
10231987175000168916200163100    000020529                    000205290000000000000109                     I0220529     30081800000000035003410000017N070518104700000000000103008180000000000000000000000000000000000000000100012488412716CHARLES GARCIA DE OLIVEIRA              ESTRADA DO QUITUNGO N 45 FRENTE         BRAZ DE PINA21215562RIO DE JANEIRO RJUNIAO UMB DOS CULTOS AFRO BRAS    30081810 000228
10231987175000168916200163100    000020527                    000205270000000000000109                     I0220527     30081800000000035003410000017N070518104700000000000103008180000000000000000000000000000000000000000100060601493400IRACEMA SILVA DE SANTANA                NUNCA RUA XAVANTE N 243                 BANGU - RIO 21840030RIO DE JANEIRO RJUNIAO UMB DOS CULTOS AFRO BRAS    30081810 000229
10231987175000168916200163100    000020525                    000205250000000000000109                     I0220525     30081800000000035003410000017N070518104700000000000103008180000000000000000000000000000000000000000100012781404764RICARDO RIBEIRO DOS SANTOS              RUA ITAGIBA                             COSMOS      23060450RIO DE JANEIRO RJUNIAO UMB DOS CULTOS AFRO BRAS    30081810 000230
10231987175000168916200163100    000020523                    000205230000000000000109                     I0220523     30081800000000035003410000017N070518104700000000000103008180000000000000000000000000000000000000000100007708082714CRISTIANE DEODATO                       ESTRADA REAL DE MAUA                    MAUA        25927304MAGE           RJUNIAO UMB DOS CULTOS AFRO BRAS    30081810 000231
10231987175000168916200163100    000020522                    000205220000000000000109                     I0220522     30081800000000035003410000017N070518104700000000000103008180000000000000000000000000000000000000000100009959898776ANGELICA MONTEIRO DE OLIVEIRA           RUA CINCO                               CHAPERO     23831190ITAGUAI        RJUNIAO UMB DOS CULTOS AFRO BRAS    30081810 000232
10231987175000168916200163100    000020521                    000205210000000000000109                     I0220521     30081800000000035003410000017N070518104700000000000103008180000000000000000000000000000000000000000100080592368491MARIA JOSE PEREIRA NOGUEIRA DE          ALAMEDA GOIANIA                         ENGENHO DO R24752520SAO GONCALO    RJUNIAO UMB DOS CULTOS AFRO BRAS    30081810 000233
10231987175000168916200163100    000020520                    000205200000000000000109                     I0220520     30081800000000035003410000017N070518104700000000000103008180000000000000000000000000000000000000000100015295681700MICHEL FERNANDES BASTOS CRESPO          RUA ROSANGELA TOSTES                    PARQUE FLUMI26185260BELFORD ROXO   RJUNIAO UMB DOS CULTOS AFRO BRAS    30081810 000234
10231987175000168916200163100    000020519                    000205190000000000000109                     I0220519     30081800000000035003410000017N070518104700000000000103008180000000000000000000000000000000000000000100007809907735LUCIANA SANTOS DA SILVA                 BECO ADELIA                             NOSSA SENHOR21932003RIO DE JANEIRO RJUNIAO UMB DOS CULTOS AFRO BRAS    30081810 000235
10231987175000168916200163100    000020517                    000205170000000000000109                     I0220517     30081800000000035003410000017N070518104700000000000103008180000000000000000000000000000000000000000100080974015768SHEYLA REGINA SERAPHIM DA HORA          RUA CAMBAI                              QUINTINO BOC21380300RIO DE JANEIRO RJUNIAO UMB DOS CULTOS AFRO BRAS    30081810 000236
10231987175000168916200163100    000020516                    000205160000000000000109                     I0220516     30081800000000035003410000017N070518104700000000000103008180000000000000000000000000000000000000000200000000012685JOSE HENRIQUE MOREIRA DE ARAUJ          RUA OITENTA E UM LOTE 35 QUADRA 247     IPIRANGA - M25927168MAGE           RJUNIAO UMB DOS CULTOS AFRO BRAS    30081810 000237
10231987175000168916200163100    000020515                    000205150000000000000109                     I0220515     30081800000000035003410000017N070518104700000000000103008180000000000000000000000000000000000000000100090036018791SILVIA ELAINE GEVEGIR DA SILVA          RUA VINTE                               PARADA MORAB25265130DUQUE DE CAXIASRJUNIAO UMB DOS CULTOS AFRO BRAS    30081810 000238
10231987175000168916200163100    000020514                    000205140000000000000109                     I0220514     30081800000000035003410000017N070518104700000000000103008180000000000000000000000000000000000000000100014653084742THEILOR MORAIS DE MIRANDA               RUA SAO BENEDITO                        VILA GENI   23826010ITAGUAI        RJUNIAO UMB DOS CULTOS AFRO BRAS    30081810 000239
10231987175000168916200163100    000020512                    000205120000000000000109                     I0220512     30081800000000035003410000017N070518104700000000000103008180000000000000000000000000000000000000000100005441529723RAQUEL LUCILIA SANTOS RAMOS             AVENIDA DE SANTA CRUZ N 11066           SENADOR VASC23010002RIO DE JANEIRO RJUNIAO UMB DOS CULTOS AFRO BRAS    30081810 000240
10231987175000168916200163100    000020508                    000205080000000000000109                     I0220508     30081800000000035003410000017N070518104700000000000103008180000000000000000000000000000000000000000100053606259769ROSILANE FRANCISCA DOS SANTOS           RUA ARTUR FARIAS                        RIO DO DOURO25922184MAGE           RJUNIAO UMB DOS CULTOS AFRO BRAS    30081810 000241
10231987175000168916200163100    000020507                    000205070000000000000109                     I0220507     30081800000000035003410000017N070518104700000000000103008180000000000000000000000000000000000000000100007726251743ROSANGELA IZAURINA DOS SANTOS           RUA ESPERANCA                           TIRADENTES  11111111NOVA IGUACU    RJUNIAO UMB DOS CULTOS AFRO BRAS    30081810 000242
10231987175000168916200163100    000020505                    000205050000000000000109                     I0220505     30081800000000035003410000017N070518104700000000000103008180000000000000000000000000000000000000000100000000001265PAULO CESAR MARINS DA SILVA             RUA EDUARDO NORONHA                     ROCHA       24420615SAO GONCALO    RJUNIAO UMB DOS CULTOS AFRO BRAS    30081810 000243
10231987175000168916200163100    000020504                    000205040000000000000109                     I0220504     30081800000000035003410000017N070518104700000000000103008180000000000000000000000000000000000000000100080020542704DENISE PINHEIRO MOURA                   RUA SOTERO VAZ                          IRAJA - RJ  21230140RIO DE JANEIRO RJUNIAO UMB DOS CULTOS AFRO BRAS    30081810 000244
10231987175000168916200163100    000020503                    000205030000000000000109                     I0220503     30081800000000035003410000017N070518104700000000000103008180000000000000000000000000000000000000000100000907912745JULIO CESAR FRANCA CORREA               RUA ITAPERUNA                           VILA DE CAVA26056260NOVA IGUACU    RJUNIAO UMB DOS CULTOS AFRO BRAS    30081810 000245
10231987175000168916200163100    000020502                    000205020000000000000109                     I0220502     30081800000000035003410000017N070518104700000000000103008180000000000000000000000000000000000000000100012663149705DIEGO PARREIRA DE ARAUJO                RUA ERMENEGILDO DE SOUZA                JARDIM SAO J23890103SEROPEDICA     RJUNIAO UMB DOS CULTOS AFRO BRAS    30081810 000246
10231987175000168916200163100    000020499                    000204990000000000000109                     I0220499     30081800000000035003410000017N070518104700000000000103008180000000000000000000000000000000000000000100001346507783ANDREIA FERREIRA E CUNHA                AVENIDA TIRADENTES                      CONFIDENCIA 26323260NOVA IGUACU    RJUNIAO UMB DOS CULTOS AFRO BRAS    30081810 000247
10231987175000168916200163100    000020498                    000204980000000000000109                     I0220498     30081800000000035003410000017N070518104700000000000103008180000000000000000000000000000000000000000100007429798659LUCIANA DIAS DE ARRUDA                  RUA JULIA TREVIZANO                     SANTO ANTONI36500000UBA            MGUNIAO UMB DOS CULTOS AFRO BRAS    30081810 000248
10231987175000168916200163100    000020497                    000204970000000000000109                     I0220497     30081800000000035003410000017N070518104700000000000103008180000000000000000000000000000000000000000100078885647715NELMA ARLOY VIEIRA                      AVENIDA CASEMIRO DE MELLO               INHOAIBA    00000000RIO DE JANEIRO RJUNIAO UMB DOS CULTOS AFRO BRAS    30081810 000249
