01REMESSA01COBRANCA       817800093673        União Umb dos Cultos Afro Bra341BANCO ITAU SA  070618                                                                                                                                                                                                                                                                                                      000001
10231987175000168817800093673    000021165                    000211650000000000000109                     I0121165     30061800000000105003410000017N070618104700000000000103006180000000000000000000000000000000000000000200000000002796ANA MARIA ROQUE DA SILVA                RUA EUCLIDES ROXO N 185                 REALENGO - R21765590RIO DE JANEIRO RJUNIAO UMB DOS CULTOS AFRO BRAS    30061810 000002
10231987175000168817800093673    000021164                    000211640000000000000109                     I0121164     30081800000000035003410000017N070618104700000000000103008180000000000000000000000000000000000000000100062788396791SERGIO LUCAS DE SOUZA E DINARA          TRAVESSA CARLOS XAVIER                  MADUREIRA   21310010RIO DE JANEIRO RJUNIAO UMB DOS CULTOS AFRO BRAS    30081810 000003
10231987175000168817800093673    000021163                    000211630000000000000109                     I0121163     30071800000000035003410000017N070618104700000000000103007180000000000000000000000000000000000000000100062788396791SERGIO LUCAS DE SOUZA E DINARA          TRAVESSA CARLOS XAVIER                  MADUREIRA   21310010RIO DE JANEIRO RJUNIAO UMB DOS CULTOS AFRO BRAS    30071810 000004
10231987175000168817800093673    000021162                    000211620000000000000109                     I0121162     20061800000000140003410000017N070618104700000000000102006180000000000000000000000000000000000000000100037497030787LINDINALVA AGUIAR PAVANELLI             O MESMO                                 O MESMO     22230010RIO DE JANEIRO RJUNIAO UMB DOS CULTOS AFRO BRAS    20061810 000005
10231987175000168817800093673    000021161                    000211610000000000000109                     I0121161     15061800000000070003410000017N070618104700000000000101506180000000000000000000000000000000000000000100002375024702FATIMA APARECIDA OLIVEIRA DE C          RUA OURO PRETO QD 46 LT 21              COQUEIRAL  A20740280RIO DE JANEIRO RJUNIAO UMB DOS CULTOS AFRO BRAS    15061810 000006
10231987175000168817800093673    000021160                    000211600000000000000109                     I0121160     20071800000000245003410000017N060618104700000000000102007180000000000000000000000000000000000000000100034415688772JORGE FERNANDES BEZERRA                 RUA LEOCADIA 565                        REALENGO    21770190RIO DE JANEIRO RJUNIAO UMB DOS CULTOS AFRO BRAS    20071810 000007
10231987175000168817800093673    000021159                    000211590000000000000109                     I0121159     25061800000000490003410000017N060618104700000000000102506180000000000000000000000000000000000000000100034415688772JORGE FERNANDES BEZERRA                 RUA LEOCADIA 565                        REALENGO    21770190RIO DE JANEIRO RJUNIAO UMB DOS CULTOS AFRO BRAS    25061810 000008
10231987175000168817800093673    000021158                    000211580000000000000109                     I0121158     11061800000000350003410000017N060618104700000000000101106180000000000000000000000000000000000000000100059395656700NADIA MARIZA CORREA TRINDADE            RUA JORGE SILVA, 25                     PARQUE SAO J23890000RIO DE JANEIRO RJUNIAO UMB DOS CULTOS AFRO BRAS    11061810 000009
10231987175000168817800093673    000021157                    000211570000000000000109                     I0121157     20061800000000035003410000017N060618104700000000000102006180000000000000000000000000000000000000000100012732003735THAYS CRISTINA CAMPOS BARBOSA           RUA  LUIS BARBALHO 445                  ROCHA MIRAND21510110RIO DE JANEIRO RJUNIAO UMB DOS CULTOS AFRO BRAS    20061810 000010
10231987175000168817800093673    000021156                    000211560000000000000109                     I0121156     15061800000000630003410000017N060618104700000000000101506180000000000000000000000000000000000000000100002648297782FERNANDO ARAUJO TORRES                  RUA DOUTOR PIO BORGES, 2181 CASA 2      PITA - SAO G24412000SAO GONCALO    RJUNIAO UMB DOS CULTOS AFRO BRAS    15061810 000011
10231987175000168817800093673    000021155                    000211550000000000000109                     I0121155     15061800000000070003410000017N060618104700000000000101506180000000000000000000000000000000000000000100054770122772EDUARDO DOS SANTOS REIS NETO            O MESMO                                 O MESMO     21360080RIO DE JANEIRO RJUNIAO UMB DOS CULTOS AFRO BRAS    15061810 000012
10231987175000168817800093673    000021154                    000211540000000000000109                     I0121154     15061800000000105003410000017N060618104700000000000101506180000000000000000000000000000000000000000100005529010750JOELMA MELO DA SILVA                    RUA ELIEZER ALVES DA ROCHA, 226         RAUL VEIGA -24710640SAO GONCALO    RJUNIAO UMB DOS CULTOS AFRO BRAS    15061810 000013
10231987175000168817800093673    000021153                    000211530000000000000109                     I0121153     30081800000000035003410000017N050618104700000000000103008180000000000000000000000000000000000000000100006957328708ANDRE VALERIO DELGADO GOIS E M          RUA TORRES HOMEM N 147 LOTE 17          JARDIM OLAVO25025380DUQUE DE CAXIASRJUNIAO UMB DOS CULTOS AFRO BRAS    30081810 000014
10231987175000168817800093673    000021152                    000211520000000000000109                     I0121152     30071800000000035003410000017N050618104700000000000103007180000000000000000000000000000000000000000100006957328708ANDRE VALERIO DELGADO GOIS E M          RUA TORRES HOMEM N 147 LOTE 17          JARDIM OLAVO25025380DUQUE DE CAXIASRJUNIAO UMB DOS CULTOS AFRO BRAS    30071810 000015
10231987175000168817800093673    000021151                    000211510000000000000109                     I0121151     30061800000000035003410000017N050618104700000000000103006180000000000000000000000000000000000000000100006957328708ANDRE VALERIO DELGADO GOIS E M          RUA TORRES HOMEM N 147 LOTE 17          JARDIM OLAVO25025380DUQUE DE CAXIASRJUNIAO UMB DOS CULTOS AFRO BRAS    30061810 000016
10231987175000168817800093673    000021150                    000211500000000000000109                     I0121150     30081800000000035003410000017N050618104700000000000103008180000000000000000000000000000000000000000100004455965700MARIA DE LOURDES SOARES DA SIL          ESTRADA RJ 127 KM 25                    ALTO DO CHAF26650000PAULO DE FRONTIRJUNIAO UMB DOS CULTOS AFRO BRAS    30081810 000017
10231987175000168817800093673    000021149                    000211490000000000000109                     I0121149     30071800000000035003410000017N050618104700000000000103007180000000000000000000000000000000000000000100004455965700MARIA DE LOURDES SOARES DA SIL          ESTRADA RJ 127 KM 25                    ALTO DO CHAF26650000PAULO DE FRONTIRJUNIAO UMB DOS CULTOS AFRO BRAS    30071810 000018
10231987175000168817800093673    000021148                    000211480000000000000109                     I0121148     30061800000000035003410000017N050618104700000000000103006180000000000000000000000000000000000000000100004455965700MARIA DE LOURDES SOARES DA SIL          ESTRADA RJ 127 KM 25                    ALTO DO CHAF26650000PAULO DE FRONTIRJUNIAO UMB DOS CULTOS AFRO BRAS    30061810 000019
10231987175000168817800093673    000021147                    000211470000000000000109                     I0121147     15061800000000350003410000017N050618104700000000000101506180000000000000000000000000000000000000000100007062360767IVONETE GOMES DOS SANTOS                AVENIDA PORTO DA MADAME, 555            GRADIM - SAO24431310SAO GONCALO    RJUNIAO UMB DOS CULTOS AFRO BRAS    15061810 000020
10231987175000168817800093673    000021146                    000211460000000000000109                     I0121146     11061800000000200003410000017N050618104700000000000101106180000000000000000000000000000000000000000100001556268767ANTONIO CARLOS DA CONCEICAO SA          RUA EMILIA MARTINS  84                  VILA MARTINS26043010NOVA IGUACU    RJUNIAO UMB DOS CULTOS AFRO BRAS    11061810 000021
10231987175000168817800093673    000021145                    000211450000000000000109                     I0121145     20061800000000350003410000017N050618104700000000000102006180000000000000000000000000000000000000000100007485965778GRACIETE LEAO TANGUA                    RUA ROBERTO RANGEL LIMA LOTE 16 QUADRA GMAURI - PIAB25915000MAGE           RJUNIAO UMB DOS CULTOS AFRO BRAS    20061810 000022
10231987175000168817800093673    000021144                    000211440000000000000109                     I0121144     20061800000000210003410000017N050618104700000000000102006180000000000000000000000000000000000000000100007929176770SANSIA MARIA SOBRINHO                   RUA TURMALINA QUADRA 149 LOTE 6         NOVO JARDIM 24175670SAO GONCALO    RJUNIAO UMB DOS CULTOS AFRO BRAS    20061810 000023
10231987175000168817800093673    000014308                    000143080000000000000109                     I0214308     30051800000000245003410000017N020418104700000000000103005180000000000000000000000000000000000000000100034415688772JORGE FERNANDES BEZERRA                 RUA LEOCADIA 565                        REALENGO    21770190RIO DE JANEIRO RJUNIAO UMB DOS CULTOS AFRO BRAS    30051810 000024
10231987175000168817800093673    000014307                    000143070000000000000109                     I0214307     15051800000000245003410000017N020418104700000000000101505180000000000000000000000000000000000000000100034415688772JORGE FERNANDES BEZERRA                 RUA LEOCADIA 565                        REALENGO    21770190RIO DE JANEIRO RJUNIAO UMB DOS CULTOS AFRO BRAS    15051810 000025
10231987175000168817800093673    000014306                    000143060000000000000109                     I0214306     30041800000000245003410000017N020418104700000000000103004180000000000000000000000000000000000000000100034415688772JORGE FERNANDES BEZERRA                 RUA LEOCADIA 565                        REALENGO    21770190RIO DE JANEIRO RJUNIAO UMB DOS CULTOS AFRO BRAS    30041810 000026
10231987175000168817800093673    000013813                    000138130000000000000109                     I3413813     08061800000000035003410000017N200218104700000000000100806180000000000000000000000000000000000000000100011351878786GLEISSON BITTENCOURT DA SILVA           RUA FLORA DE ARAUJO N 310               PRATA - NOVA26010570NOVA IGUACU    RJUNIAO UMB DOS CULTOS AFRO BRAS    08061810 000027
10231987175000168817800093673    000013795                    000137950000000000000109                     I0213795     30051800000000035003410000017N200218104700000000000103005180000000000000000000000000000000000000000100002375024702FATIMA APARECIDA OLIVEIRA DE C          RUA OURO PRETO QD 46 LT 21              COQUEIRAL  A20740280RIO DE JANEIRO RJUNIAO UMB DOS CULTOS AFRO BRAS    30051810 000028
10231987175000168817800093673    000013639                    000136390000000000000109                     I0213639     30051800000000035003410000017N200218104700000000000103005180000000000000000000000000000000000000000100058183868720ZILDA SIMOES DO NASCIMENTO MAN          RUA IBITINGA N 31 LOTE 9                PARQUE SAO B26167160BELFORD ROXO   RJUNIAO UMB DOS CULTOS AFRO BRAS    30051810 000029
10231987175000168817800093673    000013616                    000136160000000000000109                     I0213616     30051800000000035003410000017N200218104700000000000103005180000000000000000000000000000000000000000100037497030787LINDINALVA AGUIAR PAVANELLI             O MESMO                                 O MESMO     22230010RIO DE JANEIRO RJUNIAO UMB DOS CULTOS AFRO BRAS    30051810 000030
10231987175000168817800093673    000013519                    000135190000000000000109                     I0213519     30051800000000035003410000017N200218104700000000000103005180000000000000000000000000000000000000000100008629571764SILVANA DA COSTA SANTOS                 RUA H, CASA 11 QUADRA 8                 BALNEARIO - 28940000SAO PEDRO DA ALRJUNIAO UMB DOS CULTOS AFRO BRAS    30051810 000031
10231987175000168817800093673    000013462                    000134620000000000000109                     I0213462     30051800000000035003410000017N200218104700000000000103005180000000000000000000000000000000000000000100005529010750JOELMA MELO DA SILVA                    RUA ELIEZER ALVES DA ROCHA, 226         RAUL VEIGA -24710640SAO GONCALO    RJUNIAO UMB DOS CULTOS AFRO BRAS    30051810 000032
10231987175000168817800093673    000013221                    000132210000000000000109                     I0213221     30051800000000035003410000017N200218104700000000000103005180000000000000000000000000000000000000000100012732003735THAYS CRISTINA CAMPOS BARBOSA           RUA  LUIS BARBALHO 445                  ROCHA MIRAND21510110RIO DE JANEIRO RJUNIAO UMB DOS CULTOS AFRO BRAS    30051810 000033
10231987175000168817800093673    000013123                    000131230000000000000109                     I3413123     30051800000000035003410000017N200218104700000000000103005180000000000000000000000000000000000000000100010703174703LEILIANE NOGUEIRA OLIVEIRA              TRAVESSA VINTE E OITO, 6                PARQUE SANTA26115230BELFORD ROXO   RJUNIAO UMB DOS CULTOS AFRO BRAS    30051810 000034
10231987175000168817800093673    000012884                    000128840000000000000109                     I3412884     30051800000000035003410000017N200218104700000000000103005180000000000000000000000000000000000000000100058781887704DENORIDES DE ALMEIDA                    RUA GOIANIA, 802                        VILAR NOVO -26116590BELFORD ROXO   RJUNIAO UMB DOS CULTOS AFRO BRAS    30051810 000035
10231987175000168817800093673    000012650                    000126500000000000000109                     I0212650     30051800000000035003410000017N200218104700000000000103005180000000000000000000000000000000000000000200000000002796ANA MARIA ROQUE DA SILVA                RUA EUCLIDES ROXO N 185                 REALENGO - R21765590RIO DE JANEIRO RJUNIAO UMB DOS CULTOS AFRO BRAS    30051810 000036
10231987175000168817800093673    000012559                    000125590000000000000109                     I0212559     30051800000000035003410000017N200218104700000000000103005180000000000000000000000000000000000000000100054770122772EDUARDO DOS SANTOS REIS NETO            O MESMO                                 O MESMO     21360080RIO DE JANEIRO RJUNIAO UMB DOS CULTOS AFRO BRAS    30051810 000037
10231987175000168817800093673    000012545                    000125450000000000000109                     I3412545     30051800000000035003410000017N200218104700000000000103005180000000000000000000000000000000000000000100003250127760MARIA ZULEICA CRUZ DA SILVA             O MESMO                                 O MESMO     26010421NOVA IGUACU    RJUNIAO UMB DOS CULTOS AFRO BRAS    30051810 000038
10231987175000168817800093673    000012333                    000123330000000000000109                     I3412333     30051800000000035003410000017N200218104700000000000103005180000000000000000000000000000000000000000100001686254741ADELIA DE OLIVEIRA AZEVEDO              RUA CORONEL CAMISAO N 842               VISTA ALEGRE21250290RIO DE JANEIRO RJUNIAO UMB DOS CULTOS AFRO BRAS    30051810 000039
10231987175000168817800093673    000012186                    000121860000000000000109                     I0212186     30041800000000035003410000017N200218104700000000000103004180000000000000000000000000000000000000000100002375024702FATIMA APARECIDA OLIVEIRA DE C          RUA OURO PRETO QD 46 LT 21              COQUEIRAL  A20740280RIO DE JANEIRO RJUNIAO UMB DOS CULTOS AFRO BRAS    30041810 000040
10231987175000168817800093673    000012007                    000120070000000000000109                     I0212007     30041800000000035003410000017N200218104700000000000103004180000000000000000000000000000000000000000100037497030787LINDINALVA AGUIAR PAVANELLI             O MESMO                                 O MESMO     22230010RIO DE JANEIRO RJUNIAO UMB DOS CULTOS AFRO BRAS    30041810 000041
10231987175000168817800093673    000011908                    000119080000000000000109                     I3411908     30041800000000035003410000017N200218104700000000000103004180000000000000000000000000000000000000000100004291405766JACQUELINE ELIZABETH BALTHAZAR          RUA DOUTOR MIGUEL VIEIRA FERREIRA N 350 RAMOS - RIO 21060120RIO DE JANEIRO RJUNIAO UMB DOS CULTOS AFRO BRAS    30041810 000042
10231987175000168817800093673    000011661                    000116610000000000000109                     I3411661     30041800000000035003410000017N200218104700000000000103004180000000000000000000000000000000000000000100009456470776JAMES ARNESS BARBOSA DE OLIVEI          R.JOAQUIM DE QUEIROZ TRAV SAO CARLOS 9B RAMOS - RJ  20766220RIO DE JANEIRO RJUNIAO UMB DOS CULTOS AFRO BRAS    30041810 000043
10231987175000168817800093673    000011612                    000116120000000000000109                     I0211612     30041800000000035003410000017N200218104700000000000103004180000000000000000000000000000000000000000100012732003735THAYS CRISTINA CAMPOS BARBOSA           RUA  LUIS BARBALHO 445                  ROCHA MIRAND21510110RIO DE JANEIRO RJUNIAO UMB DOS CULTOS AFRO BRAS    30041810 000044
10231987175000168817800093673    000011289                    000112890000000000000109                     I0211289     30041800000000035003410000017N200218104700000000000103004180000000000000000000000000000000000000000100089080475734MARCIA MARIA CORREIA DA SILVA           RUA ALVARES CABRAL, 520                 CACHAMBI - R20780320RIO DE JANEIRO RJUNIAO UMB DOS CULTOS AFRO BRAS    30041810 000045
10231987175000168817800093673    000011275                    000112750000000000000109                     I3411275     30041800000000035003410000017N200218104700000000000103004180000000000000000000000000000000000000000100058781887704DENORIDES DE ALMEIDA                    RUA GOIANIA, 802                        VILAR NOVO -26116590BELFORD ROXO   RJUNIAO UMB DOS CULTOS AFRO BRAS    30041810 000046
10231987175000168817800093673    000011041                    000110410000000000000109                     I0211041     30041800000000035003410000017N200218104700000000000103004180000000000000000000000000000000000000000200000000002796ANA MARIA ROQUE DA SILVA                RUA EUCLIDES ROXO N 185                 REALENGO - R21765590RIO DE JANEIRO RJUNIAO UMB DOS CULTOS AFRO BRAS    30041810 000047
10231987175000168817800093673    000010936                    000109360000000000000109                     I3410936     30041800000000035003410000017N200218104700000000000103004180000000000000000000000000000000000000000100003250127760MARIA ZULEICA CRUZ DA SILVA             O MESMO                                 O MESMO     26010421NOVA IGUACU    RJUNIAO UMB DOS CULTOS AFRO BRAS    30041810 000048
10231987175000168817800093673    000010855                    000108550000000000000109                     I3410855     30041800000000035003410000017N200218104700000000000103004180000000000000000000000000000000000000000200000000006600JULIA MARIA DA CONCEICAO                O MESMO                                 O MESMO     23823290ITAGUAI        RJUNIAO UMB DOS CULTOS AFRO BRAS    30041810 000049
10231987175000168817800093673    000010724                    000107240000000000000109                     I3410724     30041800000000035003410000017N200218104700000000000103004180000000000000000000000000000000000000000100001686254741ADELIA DE OLIVEIRA AZEVEDO              RUA CORONEL CAMISAO N 842               VISTA ALEGRE21250290RIO DE JANEIRO RJUNIAO UMB DOS CULTOS AFRO BRAS    30041810 000050
10231987175000168817800093673    000010421                    000104210000000000000109                     I0210421     30031800000000035003410000017N200218104700000000000103003180000000000000000000000000000000000000000100058183868720ZILDA SIMOES DO NASCIMENTO MAN          RUA IBITINGA N 31 LOTE 9                PARQUE SAO B26167160BELFORD ROXO   RJUNIAO UMB DOS CULTOS AFRO BRAS    30031810 000051
10231987175000168817800093673    000010398                    000103980000000000000109                     I0210398     30031800000000035003410000017N200218104700000000000103003180000000000000000000000000000000000000000100037497030787LINDINALVA AGUIAR PAVANELLI             O MESMO                                 O MESMO     22230010RIO DE JANEIRO RJUNIAO UMB DOS CULTOS AFRO BRAS    30031810 000052
10231987175000168817800093673    000010305                    000103050000000000000109                     I3410305     30031800000000035003410000017N200218104700000000000103003180000000000000000000000000000000000000000100003003808789ADRIANA LUCIANA DA SILVA                AVENIDA VICENTE DE CARVALHO, 1086, RUA AVICENTE DE C21210024RIO DE JANEIRO RJUNIAO UMB DOS CULTOS AFRO BRAS    30031810 000053
10231987175000168817800093673    000010302                    000103020000000000000109                     I3410302     30031800000000035003410000017N200218104700000000000103003180000000000000000000000000000000000000000100095674454787GILVANIA RODRIGUES DE SANTANA           RUA TRAVASSOS, LOTE 4 QUADRA B          PARQUE SAO B26183730BELFORD ROXO   RJUNIAO UMB DOS CULTOS AFRO BRAS    30031810 000054
10231987175000168817800093673    000010292                    000102920000000000000109                     I3410292     30031800000000035003410000017N200218104700000000000103003180000000000000000000000000000000000000000100003360087755ELIENE GONCALVES JACINTO                RUA ALMIRANTE CROCHEME LOTE 6 QUADRA 2  PARADA MORAB25010695DUQUE DE CAXIASRJUNIAO UMB DOS CULTOS AFRO BRAS    30031810 000055
10231987175000168817800093673    000010269                    000102690000000000000109                     I3410269     30031800000000035003410000017N200218104700000000000103003180000000000000000000000000000000000000000100008448034724CLAUDIA DA SILVA SANTANA                RUA SANTA LUZIA, 115                    NOVA ERA - N26265560NOVA IGUACU    RJUNIAO UMB DOS CULTOS AFRO BRAS    30031810 000056
10231987175000168817800093673    000010244                    000102440000000000000109                     I0210244     30031800000000035003410000017N200218104700000000000103003180000000000000000000000000000000000000000100005529010750JOELMA MELO DA SILVA                    RUA ELIEZER ALVES DA ROCHA, 226         RAUL VEIGA -24710640SAO GONCALO    RJUNIAO UMB DOS CULTOS AFRO BRAS    30031810 000057
10231987175000168817800093673    000010052                    000100520000000000000109                     I3410052     30031800000000035003410000017N200218104700000000000103003180000000000000000000000000000000000000000100009456470776JAMES ARNESS BARBOSA DE OLIVEI          R.JOAQUIM DE QUEIROZ TRAV SAO CARLOS 9B RAMOS - RJ  20766220RIO DE JANEIRO RJUNIAO UMB DOS CULTOS AFRO BRAS    30031810 000058
10231987175000168817800093673    000010003                    000100030000000000000109                     I0210003     30031800000000035003410000017N200218104700000000000103003180000000000000000000000000000000000000000100012732003735THAYS CRISTINA CAMPOS BARBOSA           RUA  LUIS BARBALHO 445                  ROCHA MIRAND21510110RIO DE JANEIRO RJUNIAO UMB DOS CULTOS AFRO BRAS    30031810 000059
10231987175000168817800093673    00009677                     000096770000000000000109                     I349677      30031800000000035003410000017N200218104700000000000103003180000000000000000000000000000000000000000100007346014766LUCIANO FREIRE DE FRANCA                AV. AMARO CAVALCANTE, 2283 CASA 5       ENGENHO DE D20735042RIO DE JANEIRO RJUNIAO UMB DOS CULTOS AFRO BRAS    30031810 000060
10231987175000168817800093673    00009676                     000096760000000000000109                     I349676      30031800000000035003410000017N200218104700000000000103003180000000000000000000000000000000000000000100044631154772LINDOMAR SOARES BERNARDO                RUA FEIRA DE SANTANA, LOTE 8 QUADRA 17  PARQUE NOVO 25585100SAO JOAO DE MERRJUNIAO UMB DOS CULTOS AFRO BRAS    30031810 000061
10231987175000168817800093673    00009666                     000096660000000000000109                     I349666      30031800000000035003410000017N200218104700000000000103003180000000000000000000000000000000000000000100058781887704DENORIDES DE ALMEIDA                    RUA GOIANIA, 802                        VILAR NOVO -26116590BELFORD ROXO   RJUNIAO UMB DOS CULTOS AFRO BRAS    30031810 000062
10231987175000168817800093673    00009525                     000095250000000000000109                     I349525      30031800000000035003410000017N200218104700000000000103003180000000000000000000000000000000000000000100001637090765DEBORA VENTURA CESAR                    RUA DOS CONGREGADOS, 105 CASA 2         HELIOPOLIS  26123020RIO DE JANEIRO RJUNIAO UMB DOS CULTOS AFRO BRAS    30031810 000063
10231987175000168817800093673    00009432                     000094320000000000000109                     I029432      30031800000000035003410000017N200218104700000000000103003180000000000000000000000000000000000000000200000000002796ANA MARIA ROQUE DA SILVA                RUA EUCLIDES ROXO N 185                 REALENGO - R21765590RIO DE JANEIRO RJUNIAO UMB DOS CULTOS AFRO BRAS    30031810 000064
10231987175000168817800093673    00009327                     000093270000000000000109                     I349327      30031800000000035003410000017N200218104700000000000103003180000000000000000000000000000000000000000100003250127760MARIA ZULEICA CRUZ DA SILVA             O MESMO                                 O MESMO     26010421NOVA IGUACU    RJUNIAO UMB DOS CULTOS AFRO BRAS    30031810 000065
10231987175000168817800093673    00009246                     000092460000000000000109                     I349246      30031800000000035003410000017N200218104700000000000103003180000000000000000000000000000000000000000200000000006600JULIA MARIA DA CONCEICAO                O MESMO                                 O MESMO     23823290ITAGUAI        RJUNIAO UMB DOS CULTOS AFRO BRAS    30031810 000066
10231987175000168817800093673    00009115                     000091150000000000000109                     I349115      30031800000000035003410000017N200218104700000000000103003180000000000000000000000000000000000000000100001686254741ADELIA DE OLIVEIRA AZEVEDO              RUA CORONEL CAMISAO N 842               VISTA ALEGRE21250290RIO DE JANEIRO RJUNIAO UMB DOS CULTOS AFRO BRAS    30031810 000067
10231987175000168817800093673    00008343                     000083430000000000000109                     I348343      28021800000000035003410000017N291217104700000000000102802180000000000000000000000000000000000000000100035750553787SUELY PINHEIRO DA SILVA                 RUA MARILENE VIEIRA DE ASSIS, 850 FUNDOSVILA MARIA H25251500DUQUE DE CAXIASRJUNIAO UMB DOS CULTOS AFRO BRAS    28021810 000068
10231987175000168817800093673    00007868                     000078680000000000000109                     I347868      28021800000000035003410000017N291217104700000000000102802180000000000000000000000000000000000000000100001686254741ADELIA DE OLIVEIRA AZEVEDO              RUA CORONEL CAMISAO N 842               VISTA ALEGRE21250290RIO DE JANEIRO RJUNIAO UMB DOS CULTOS AFRO BRAS    28021810 000069
10231987175000168817800093673    00007045                     000070450000000000000109                     I027045      28021800000000035003410000017N271217104700000000000102802180000000000000000000000000000000000000000100058183868720ZILDA SIMOES DO NASCIMENTO MAN          RUA IBITINGA N 31 LOTE 9                PARQUE SAO B26167160BELFORD ROXO   RJUNIAO UMB DOS CULTOS AFRO BRAS    28021810 000070
10231987175000168817800093673    00006936                     000069360000000000000109                     I346936      28021800000000035003410000017N271217104700000000000102802180000000000000000000000000000000000000000100005836497770SIDEAN LEANDRO DOS SANTOS CRUZ          RUA MENDES RIBEIRO, 696                 PATRONATO - 24431635SAO GONCALO    RJUNIAO UMB DOS CULTOS AFRO BRAS    28021810 000071
10231987175000168817800093673    00006923                     000069230000000000000109                     I346923      28021800000000035003410000017N271217104700000000000102802180000000000000000000000000000000000000000100093265042715CARMEN MESQUITA CAMILLO DA SIL          RUA RAUL PEDERNEIRAS, 261               BANGU - RIO 21860210RIO DE JANEIRO RJUNIAO UMB DOS CULTOS AFRO BRAS    28021810 000072
10231987175000168817800093673    00006901                     000069010000000000000109                     I026901      28021800000000035003410000017N271217104700000000000102802180000000000000000000000000000000000000000100005529010750JOELMA MELO DA SILVA                    RUA ELIEZER ALVES DA ROCHA, 226         RAUL VEIGA -24710640SAO GONCALO    RJUNIAO UMB DOS CULTOS AFRO BRAS    28021810 000073
10231987175000168817800093673    00006764                     000067640000000000000109                     I346764      28021800000000035003410000017N271217104700000000000102802180000000000000000000000000000000000000000100009456470776JAMES ARNESS BARBOSA DE OLIVEI          R.JOAQUIM DE QUEIROZ TRAV SAO CARLOS 9B RAMOS - RJ  20766220RIO DE JANEIRO RJUNIAO UMB DOS CULTOS AFRO BRAS    28021810 000074
10231987175000168817800093673    00006731                     000067310000000000000109                     I026731      28021800000000035003410000017N271217104700000000000102802180000000000000000000000000000000000000000100012732003735THAYS CRISTINA CAMPOS BARBOSA           RUA  LUIS BARBALHO 445                  ROCHA MIRAND21510110RIO DE JANEIRO RJUNIAO UMB DOS CULTOS AFRO BRAS    28021810 000075
10231987175000168817800093673    00006491                     000064910000000000000109                     I346491      28021800000000035003410000017N271217104700000000000102802180000000000000000000000000000000000000000100044631154772LINDOMAR SOARES BERNARDO                RUA FEIRA DE SANTANA, LOTE 8 QUADRA 17  PARQUE NOVO 25585100SAO JOAO DE MERRJUNIAO UMB DOS CULTOS AFRO BRAS    28021810 000076
10231987175000168817800093673    00006318                     000063180000000000000109                     I346318      28021800000000035003410000017N271217104700000000000102802180000000000000000000000000000000000000000200000000002796ANA MARIA ROQUE DA SILVA                RUA EUCLIDES ROXO N 185                 REALENGO - R21765590RIO DE JANEIRO RJUNIAO UMB DOS CULTOS AFRO BRAS    28021810 000077
10231987175000168817800093673    00005795                     000057950000000000000109                     I025795      31011800000000035003410000017N261217104700000000000103101180000000000000000000000000000000000000000100058183868720ZILDA SIMOES DO NASCIMENTO MAN          RUA IBITINGA N 31 LOTE 9                PARQUE SAO B26167160BELFORD ROXO   RJUNIAO UMB DOS CULTOS AFRO BRAS    31011810 000078
10231987175000168817800093673    00005686                     000056860000000000000109                     I345686      31011800000000035003410000017N261217104700000000000103101180000000000000000000000000000000000000000100005836497770SIDEAN LEANDRO DOS SANTOS CRUZ          RUA MENDES RIBEIRO, 696                 PATRONATO - 24431635SAO GONCALO    RJUNIAO UMB DOS CULTOS AFRO BRAS    31011810 000079
10231987175000168817800093673    00005673                     000056730000000000000109                     I345673      31011800000000035003410000017N261217104700000000000103101180000000000000000000000000000000000000000100093265042715CARMEN MESQUITA CAMILLO DA SIL          RUA RAUL PEDERNEIRAS, 261               BANGU - RIO 21860210RIO DE JANEIRO RJUNIAO UMB DOS CULTOS AFRO BRAS    31011810 000080
10231987175000168817800093673    00005514                     000055140000000000000109                     I345514      31011800000000035003410000017N261217104700000000000103101180000000000000000000000000000000000000000100009456470776JAMES ARNESS BARBOSA DE OLIVEI          R.JOAQUIM DE QUEIROZ TRAV SAO CARLOS 9B RAMOS - RJ  20766220RIO DE JANEIRO RJUNIAO UMB DOS CULTOS AFRO BRAS    31011810 000081
10231987175000168817800093673    00005481                     000054810000000000000109                     I025481      31011800000000035003410000017N261217104700000000000103101180000000000000000000000000000000000000000100012732003735THAYS CRISTINA CAMPOS BARBOSA           RUA  LUIS BARBALHO 445                  ROCHA MIRAND21510110RIO DE JANEIRO RJUNIAO UMB DOS CULTOS AFRO BRAS    31011810 000082
10231987175000168817800093673    00005068                     000050680000000000000109                     I345068      31011800000000035003410000017N261217104700000000000103101180000000000000000000000000000000000000000200000000002796ANA MARIA ROQUE DA SILVA                RUA EUCLIDES ROXO N 185                 REALENGO - R21765590RIO DE JANEIRO RJUNIAO UMB DOS CULTOS AFRO BRAS    31011810 000083
9                                                                                                                                                                                                                                                                                                                                                                                                         000084
