01REMESSA01COBRANCA       817800093673        União Umb dos Cultos Afro Bra341BANCO ITAU SA  080219                                                                                                                                                                                                                                                                                                      000001
10231987175000168817800093673    000039760                    000397600000000000000109                     I0139760     30031900000000040003410000017N080219104700000000000103003190000000000000000000000000000000000000000100007161407729ODETTE LUIZA DA CRUZ                    RUA: VEREADOR JOAQUIM BOA MORTEN 68,    VILA CORINGA27320360BARRA MANSA    RJUNIAO UMB DOS CULTOS AFRO BRAS    30031910 000002
10231987175000168817800093673    000039759                    000397590000000000000109                     I0139759     28021900000000040003410000017N080219104700000000000102802190000000000000000000000000000000000000000100007161407729ODETTE LUIZA DA CRUZ                    RUA: VEREADOR JOAQUIM BOA MORTEN 68,    VILA CORINGA27320360BARRA MANSA    RJUNIAO UMB DOS CULTOS AFRO BRAS    28021910 000003
10231987175000168817800093673    000039755                    000397550000000000000109                     I0139755     28021900000000350003410000017N080219104700000000000102802190000000000000000000000000000000000000000100085775576772LUSIA DE FREITAS SERVA                  RUA: PEREIRA NETON 0, LOTE 35 QUADRA 38 GUARATIBA   23032545RIO DE JANEIRO RJUNIAO UMB DOS CULTOS AFRO BRAS    28021910 000004
10231987175000168817800093673    000039754                    000397540000000000000109                     I0139754     28021900000000175003410000017N080219104700000000000102802190000000000000000000000000000000000000000100085775576772LUSIA DE FREITAS SERVA                  RUA: PEREIRA NETON 0, LOTE 35 QUADRA 38 GUARATIBA   23032545RIO DE JANEIRO RJUNIAO UMB DOS CULTOS AFRO BRAS    28021910 000005
10231987175000168817800093673    000039753                    000397530000000000000109                     I0139753     28021900000000110003410000017N080219104700000000000102802190000000000000000000000000000000000000000100001393165745MARCO AURELIO DE BARROS FARIAS          RUA AIROSA GALVAON 44, CASA             FONSECA     24120100NITEROI        RJUNIAO UMB DOS CULTOS AFRO BRAS    28021910 000006
10231987175000168817800093673    000039751                    000397510000000000000109                     I0139751     30031900000000040003410000017N080219104700000000000103003190000000000000000000000000000000000000000100050982907753HILDETE SACRAMENTO BISPO                RUA: ITAMBARACAN 0, LOTE 31 QUADRA 136  CAMPO GRANDE23060070RIO DE JANEIRO RJUNIAO UMB DOS CULTOS AFRO BRAS    30031910 000007
10231987175000168817800093673    000039750                    000397500000000000000109                     I0139750     22021900000000040003410000017N080219104700000000000102202190000000000000000000000000000000000000000100003134182769SANDRA HELENA DA SILVA                  RUA MARIA MACHADO PANZAN 15,            PACHECO     24732200SAO GONCALO    RJUNIAO UMB DOS CULTOS AFRO BRAS    22021910 000008
10231987175000168817800093673    000039749                    000397490000000000000109                     I0139749     20031900000000140003410000017N070219104700000000000102003190000000000000000000000000000000000000000100085901512715ZENILDA MACHADO VICENTE LEITE           RUA VILLAGE IMPERIALN 194,              PARQUE MAMBU23954270ANGRA DOS REIS RJUNIAO UMB DOS CULTOS AFRO BRAS    20031910 000009
10231987175000168817800093673    000039748                    000397480000000000000109                     I0139748     28021900000000140003410000017N070219104700000000000102802190000000000000000000000000000000000000000100085901512715ZENILDA MACHADO VICENTE LEITE           RUA VILLAGE IMPERIALN 194,              PARQUE MAMBU23954270ANGRA DOS REIS RJUNIAO UMB DOS CULTOS AFRO BRAS    28021910 000010
10231987175000168817800093673    000039747                    000397470000000000000109                     I0139747     20021900000000040003410000017N070219104700000000000102002190000000000000000000000000000000000000000100081994699787MARCIA HELENA CORREIA DE LIMA           RUA FRANCISCO ALENCARN 37,              SEPETIBA    23530540RIO DE JANEIRO RJUNIAO UMB DOS CULTOS AFRO BRAS    20021910 000011
10231987175000168817800093673    000039746                    000397460000000000000109                     I0139746     20031900000000040003410000017N070219104700000000000102003190000000000000000000000000000000000000000100083780262720MARIA JOANA DOROTEIA DE PAULA           ESTRADA MERINGUAVAN 701, PINHEIRO 11    TAQUARA - JA22725442RIO DE JANEIRO RJUNIAO UMB DOS CULTOS AFRO BRAS    20031910 000012
10231987175000168817800093673    000039745                    000397450000000000000109                     I0139745     28021900000000040003410000017N070219104700000000000102802190000000000000000000000000000000000000000100083780262720MARIA JOANA DOROTEIA DE PAULA           ESTRADA MERINGUAVAN 701, PINHEIRO 11    TAQUARA - JA22725442RIO DE JANEIRO RJUNIAO UMB DOS CULTOS AFRO BRAS    28021910 000013
10231987175000168817800093673    000039053                    000390530000000000000109                     I0239053     30031900000000040003410000017N261218104700000000000103003190000000000000000000000000000000000000000100045544085749LUCIANO PORTO DE MORAES                 RUA: OLIMPIO DE CARVALHON 120,          AMENDOEIRA  24732440SAO GONCALO    RJUNIAO UMB DOS CULTOS AFRO BRAS    30031910 000014
10231987175000168817800093673    000037475                    000374750000000000000109                     I0237475     30031900000000040003410000017N261218104700000000000103003190000000000000000000000000000000000000000100007161407729ODETTE LUIZA DA CRUZ                    RUA: VEREADOR JOAQUIM BOA MORTEN 68,    VILA CORINGA27320360BARRA MANSA    RJUNIAO UMB DOS CULTOS AFRO BRAS    30031910 000015
10231987175000168817800093673    000037134                    000371340000000000000109                     I0237134     28021900000000040003410000017N261218104700000000000102802190000000000000000000000000000000000000000100045544085749LUCIANO PORTO DE MORAES                 RUA: OLIMPIO DE CARVALHON 120,          AMENDOEIRA  24732440SAO GONCALO    RJUNIAO UMB DOS CULTOS AFRO BRAS    28021910 000016
10231987175000168817800093673    000035563                    000355630000000000000109                     I0235563     28021900000000040003410000017N261218104700000000000102802190000000000000000000000000000000000000000100007161407729ODETTE LUIZA DA CRUZ                    RUA: VEREADOR JOAQUIM BOA MORTEN 68,    VILA CORINGA27320360BARRA MANSA    RJUNIAO UMB DOS CULTOS AFRO BRAS    28021910 000017
10231987175000168817800093673    000035223                    000352230000000000000109                     I0235223     31011900000000040003410000017N261218104700000000000103101190000000000000000000000000000000000000000100045544085749LUCIANO PORTO DE MORAES                 RUA: OLIMPIO DE CARVALHON 120,          AMENDOEIRA  24732440SAO GONCALO    RJUNIAO UMB DOS CULTOS AFRO BRAS    31011910 000018
10231987175000168817800093673    000034745                    000347450000000000000109                     I0234745     31011900000000040003410000017N261218104700000000000103101190000000000000000000000000000000000000000100085775576772LUSIA DE FREITAS SERVA                  RUA: PEREIRA NETON 0, LOTE 35 QUADRA 38 GUARATIBA   23032545RIO DE JANEIRO RJUNIAO UMB DOS CULTOS AFRO BRAS    31011910 000019
10231987175000168817800093673    000034205                    000342050000000000000109                     I0234205     31011900000000040003410000017N261218104700000000000103101190000000000000000000000000000000000000000100001393165745MARCO AURELIO DE BARROS FARIAS          RUA AIROSA GALVAON 44, CASA             FONSECA     24120100NITEROI        RJUNIAO UMB DOS CULTOS AFRO BRAS    31011910 000020
10231987175000168817800093673    000033829                    000338290000000000000109                     I0233829     31011900000000040003410000017N261218104700000000000103101190000000000000000000000000000000000000000100001252884761MARIA DA CONCEICAO TRINDADE             RUA: CLAUDINO BARATA N 1170,            REALENGO    21770200RIO DE JANEIRO RJUNIAO UMB DOS CULTOS AFRO BRAS    31011910 000021
10231987175000168817800093673    000033803                    000338030000000000000109                     I0233803     31011900000000040003410000017N261218104700000000000103101190000000000000000000000000000000000000000100081994699787MARCIA HELENA CORREIA DE LIMA           RUA FRANCISCO ALENCARN 37,              SEPETIBA    23530540RIO DE JANEIRO RJUNIAO UMB DOS CULTOS AFRO BRAS    31011910 000022
10231987175000168817800093673    000033765                    000337650000000000000109                     I0233765     31011900000000040003410000017N261218104700000000000103101190000000000000000000000000000000000000000100075300931772ALTAIR DE SOUZA COSTA                   RUA SETE DE SETEMBRON 0, LOTE 15 QUADRA CABUCU      26293486NOVA IGUACU    RJUNIAO UMB DOS CULTOS AFRO BRAS    31011910 000023
10231987175000168817800093673    000033663                    000336630000000000000109                     I0233663     31011900000000040003410000017N261218104700000000000103101190000000000000000000000000000000000000000100007161407729ODETTE LUIZA DA CRUZ                    RUA: VEREADOR JOAQUIM BOA MORTEN 68,    VILA CORINGA27320360BARRA MANSA    RJUNIAO UMB DOS CULTOS AFRO BRAS    31011910 000024
10231987175000168817800093673    000032188                    000321880000000000000109                     I0232188     20121800000000350003410000017N291018104700000000000102012180000000000000000000000000000000000000000100085775576772LUSIA DE FREITAS SERVA                  RUA: PEREIRA NETON 0, LOTE 35 QUADRA 38 GUARATIBA   23032545RIO DE JANEIRO RJUNIAO UMB DOS CULTOS AFRO BRAS    20121810 000025
10231987175000168817800093673    000031372                    000313720000000000000109                     I0231372     20121800000000350003410000017N291018104700000000000102012180000000000000000000000000000000000000000100001393165745MARCO AURELIO DE BARROS FARIAS          RUA AIROSA GALVAON 44, CASA             FONSECA     24120100NITEROI        RJUNIAO UMB DOS CULTOS AFRO BRAS    20121810 000026
10231987175000168817800093673    000030745                    000307450000000000000109                     I0230745     20121800000000350003410000017N291018104700000000000102012180000000000000000000000000000000000000000100001252884761MARIA DA CONCEICAO TRINDADE             RUA: CLAUDINO BARATA N 1170,            REALENGO    21770200RIO DE JANEIRO RJUNIAO UMB DOS CULTOS AFRO BRAS    20121810 000027
10231987175000168817800093673    000030627                    000306270000000000000109                     I0230627     20121800000000350003410000017N291018104700000000000102012180000000000000000000000000000000000000000100075300931772ALTAIR DE SOUZA COSTA                   RUA SETE DE SETEMBRON 0, LOTE 15 QUADRA CABUCU      26293486NOVA IGUACU    RJUNIAO UMB DOS CULTOS AFRO BRAS    20121810 000028
10231987175000168817800093673    000030437                    000304370000000000000109                     I0230437     20121800000000350003410000017N291018104700000000000102012180000000000000000000000000000000000000000100007161407729ODETTE LUIZA DA CRUZ                    RUA: VEREADOR JOAQUIM BOA MORTEN 68,    VILA CORINGA27320360BARRA MANSA    RJUNIAO UMB DOS CULTOS AFRO BRAS    20121810 000029
10231987175000168817800093673    000029752                    000297520000000000000109                     I0229752     20121800000000035003410000017N291018104700000000000102012180000000000000000000000000000000000000000100085775576772LUSIA DE FREITAS SERVA                  RUA: PEREIRA NETON 0, LOTE 35 QUADRA 38 GUARATIBA   23032545RIO DE JANEIRO RJUNIAO UMB DOS CULTOS AFRO BRAS    20121810 000030
10231987175000168817800093673    000029644                    000296440000000000000109                     I0229644     20121800000000035003410000017N291018104700000000000102012180000000000000000000000000000000000000000100001961346761MARLENE DE OLIVEIRA MARCOLINO           RUA: DOM JOAO BRAGA  N 409, CASA C      ALTO DA SERR25635190PETROPOLIS     RJUNIAO UMB DOS CULTOS AFRO BRAS    20121810 000031
9                                                                                                                                                                                                                                                                                                                                                                                                         000032
