01REMESSA01COBRANCA       916200163100        União Umb dos Cultos Afro Bra341BANCO ITAU SA  080518                                                                                                                                                                                                                                                                                                      000001
10231987175000168916200163100    000020812                    000208120000000000000109                     I0120812     30081800000000035003410000017N080518104700000000000103008180000000000000000000000000000000000000000100004701154750VIVIANE FELIX GOMES                     RUA GANDARELA Nº 158                   BOM PASTOR -26195460BELFORD ROXO   RJUNIAO UMB DOS CULTOS AFRO BRAS    30081810 000002
10231987175000168916200163100    000020811                    000208110000000000000109                     I0120811     30071800000000035003410000017N080518104700000000000103007180000000000000000000000000000000000000000100004701154750VIVIANE FELIX GOMES                     RUA GANDARELA Nº 158                   BOM PASTOR -26195460BELFORD ROXO   RJUNIAO UMB DOS CULTOS AFRO BRAS    30071810 000003
10231987175000168916200163100    000020810                    000208100000000000000109                     I0120810     30061800000000035003410000017N080518104700000000000103006180000000000000000000000000000000000000000100004701154750VIVIANE FELIX GOMES                     RUA GANDARELA Nº 158                   BOM PASTOR -26195460BELFORD ROXO   RJUNIAO UMB DOS CULTOS AFRO BRAS    30061810 000004
10231987175000168916200163100    000018290                    000182900000000000000109                     I0118290     30071800000000035003410000017N070518104700000000000103007180000000000000000000000000000000000000000100099029359749ANDRE LUIZ REIS GRACIO                  RUA PIRAMBOIA N 130                     SENADOR VASC23012300RIO DE JANEIRO RJUNIAO UMB DOS CULTOS AFRO BRAS    30071810 000005
10231987175000168916200163100    000018289                    000182890000000000000109                     I0118289     30071800000000035003410000017N070518104700000000000103007180000000000000000000000000000000000000000100063345862700GLORIA MARIA DAMASCENO DE OLIV          AVENIDA JOSE MARIANO PASSOS N 1495      CENTRO - BEL26130570BELFORD ROXO   RJUNIAO UMB DOS CULTOS AFRO BRAS    30071810 000006
10231987175000168916200163100    000018288                    000182880000000000000109                     I0118288     30071800000000035003410000017N070518104700000000000103007180000000000000000000000000000000000000000100002096604737GISELLE BRAGA TORRES DE SOUZA           RUA LEOPOLDINA REGO N 619 APT 1005      OLARIA - RIO21021523RIO DE JANEIRO RJUNIAO UMB DOS CULTOS AFRO BRAS    30071810 000007
10231987175000168916200163100    000018287                    000182870000000000000109                     I0118287     30071800000000035003410000017N070518104700000000000103007180000000000000000000000000000000000000000100085258610730CRISTINA ROSA DE JESUS BASILIO          RUA NILZA GURGEL, 615 CASA 3            VILA EMIL - 26580310MESQUITA       RJUNIAO UMB DOS CULTOS AFRO BRAS    30071810 000008
10231987175000168916200163100    000018286                    000182860000000000000109                     I0118286     30071800000000035003410000017N070518104700000000000103007180000000000000000000000000000000000000000100022958908291JOSE WILSON SCHARTZ BITTENCOUR          RUA GERALDO RIBEIRO N 345               PORTO NOVO -24435690SAO GONCALO    RJUNIAO UMB DOS CULTOS AFRO BRAS    30071810 000009
10231987175000168916200163100    000018285                    000182850000000000000109                     I0118285     30071800000000035003410000017N070518104700000000000103007180000000000000000000000000000000000000000100077165772715EDNA SANTOS DA TRINDADE                 ESTRADA DO PIAI N 3910 - QUADRA B CASA 7SEPETIBA - R23530610RIO DE JANEIRI RJUNIAO UMB DOS CULTOS AFRO BRAS    30071810 000010
10231987175000168916200163100    000018284                    000182840000000000000109                     I0118284     30071800000000035003410000017N070518104700000000000103007180000000000000000000000000000000000000000100000000009804VANIA FARIA DE VILHENA TORRES           ESTRADA DA COVANCA, 312 FUNDOS          TANQUE - JAC22735020RIO DE JANEIRO RJUNIAO UMB DOS CULTOS AFRO BRAS    30071810 000011
10231987175000168916200163100    000018283                    000182830000000000000109                     I0118283     30071800000000035003410000017N070518104700000000000103007180000000000000000000000000000000000000000100033151440797LAUDICEIA FERRO DOS SANTOS              RUA ADISABEL, LOTE 10 QUADRA 39         NOVA AURORA 26155110BELFORD ROXO   RJUNIAO UMB DOS CULTOS AFRO BRAS    30071810 000012
10231987175000168916200163100    000018282                    000182820000000000000109                     I0118282     30071800000000035003410000017N070518104700000000000103007180000000000000000000000000000000000000000100040229637787JOSE PAULO SERPA DE MORAES              RUA CANALIZADA, LOTE 4 QUADRA 203 KM 39 CAMPO LINDO 23845410RIO DE JANEIRO RJUNIAO UMB DOS CULTOS AFRO BRAS    30071810 000013
10231987175000168916200163100    000018281                    000182810000000000000109                     I0118281     30071800000000035003410000017N070518104700000000000103007180000000000000000000000000000000000000000100086945971791GELSON RAMOS DE CARVALHO                RUA BARAUNA, 249                        ANCHIETA - R21645050RIO DE JANEIRO RJUNIAO UMB DOS CULTOS AFRO BRAS    30071810 000014
10231987175000168916200163100    000018280                    000182800000000000000109                     I0118280     30071800000000035003410000017N070518104700000000000103007180000000000000000000000000000000000000000100060856467715JANAINA COELHO MELO                     O MESMO                                 O MESMO     21361420RIO DE JANEIRO RJUNIAO UMB DOS CULTOS AFRO BRAS    30071810 000015
10231987175000168916200163100    000018279                    000182790000000000000109                     I0118279     30071800000000035003410000017N070518104700000000000103007180000000000000000000000000000000000000000100085485527787CHEILA CRISTINA DA ROCHA SANTO          RUA MARIA SANTANA FERNANDES QUADRA 4 LOTJARDIM ACACI23845250SEROPEDICA     RJUNIAO UMB DOS CULTOS AFRO BRAS    30071810 000016
10231987175000168916200163100    000018278                    000182780000000000000109                     I0118278     30071800000000035003410000017N070518104700000000000103007180000000000000000000000000000000000000000100000255430752JUACIRA ALVES TOTTA                     RUA DOS RUBIS 519                       ROCHA MIRAND21510011RIO DE JANEIRO RJUNIAO UMB DOS CULTOS AFRO BRAS    30071810 000017
10231987175000168916200163100    000018277                    000182770000000000000109                     I0118277     30071800000000035003410000017N070518104700000000000103007180000000000000000000000000000000000000000100008067836728BRUNO HENRIQUE DA COSTA SILVA           O MESMO                                 O MESMO     21361360RIO DE JANEIRO RJUNIAO UMB DOS CULTOS AFRO BRAS    30071810 000018
10231987175000168916200163100    000018276                    000182760000000000000109                     I0118276     30071800000000035003410000017N070518104700000000000103007180000000000000000000000000000000000000000100008774131770CLEYSON MANHAES NERY                    RUA CORONEL BARROS N 288                PARQUE SARAI28110000CAMPO DOS GOYTARJUNIAO UMB DOS CULTOS AFRO BRAS    30071810 000019
10231987175000168916200163100    000018275                    000182750000000000000109                     I0118275     30071800000000035003410000017N070518104700000000000103007180000000000000000000000000000000000000000100002911521714JUPIRA COSTA SOARES                     RUA TRINTA E DOIS LOTE 14 QUADRA 214    CAMPO LINDO 23890000SEROPEDICA     RJUNIAO UMB DOS CULTOS AFRO BRAS    30071810 000020
10231987175000168916200163100    000018274                    000182740000000000000109                     I0118274     30071800000000035003410000017N070518104700000000000103007180000000000000000000000000000000000000000100041247078787ANTONIO NARCISO RUSSI DA SILVA          RUA DEOLINDA MARTINS N 359 KM 42        JARDIM CENTR23845110SEROPEDICA     RJUNIAO UMB DOS CULTOS AFRO BRAS    30071810 000021
10231987175000168916200163100    000018273                    000182730000000000000109                     I0118273     30071800000000035003410000017N070518104700000000000103007180000000000000000000000000000000000000000100045935530759SUELI MONTANHA GOMES                    RUA PAULINO DE OLIVEIRA N 345 - CENTRAL CENTRAL - CA23080670CAMPO GRANDE   RJUNIAO UMB DOS CULTOS AFRO BRAS    30071810 000022
10231987175000168916200163100    000018272                    000182720000000000000109                     I0118272     30071800000000035003410000017N070518104700000000000103007180000000000000000000000000000000000000000100088046060704NATALINA DE JESUS PEREIRA DE O          RUA SAPOPEMBA N 524                     BENTO RIBEIR21331240RIO DE JANEIRO RJUNIAO UMB DOS CULTOS AFRO BRAS    30071810 000023
10231987175000168916200163100    000018271                    000182710000000000000109                     I0118271     30071800000000035003410000017N070518104700000000000103007180000000000000000000000000000000000000000100072148675753ROGERIO TEIXEIRA TEOFILO                RUA BOM JARDIM N 40 - CABUCU            CABUCU - NOV26347225NOVA IGUACU    RJUNIAO UMB DOS CULTOS AFRO BRAS    30071810 000024
10231987175000168916200163100    000018270                    000182700000000000000109                     I0118270     30071800000000035003410000017N070518104700000000000103007180000000000000000000000000000000000000000100087868172720ADHEMAR ACHILLES AVILLA JUNIOR          RUA: PADRE GIL Nº 20                   PARQUE BONEV25907096RIO DE JANEIRO RJUNIAO UMB DOS CULTOS AFRO BRAS    30071810 000025
10231987175000168916200163100    000018269                    000182690000000000000109                     I0118269     30071800000000035003410000017N070518104700000000000103007180000000000000000000000000000000000000000100000672393743RAFAEL CASAMASSO DA COSTA               RUA JOAO CAETANO N 198 A                CENTRO - PET25610010PETROPOLIS     RJUNIAO UMB DOS CULTOS AFRO BRAS    30071810 000026
10231987175000168916200163100    000018268                    000182680000000000000109                     I0118268     30071800000000035003410000017N070518104700000000000103007180000000000000000000000000000000000000000100049214276749MARIA CELESTE HORACIO REIS              RUA QUARENTA E CINCO LOTE 20 QUADRA 230 CAMPO LINDO 23890000NOVA IGUACU    RJUNIAO UMB DOS CULTOS AFRO BRAS    30071810 000027
10231987175000168916200163100    000018267                    000182670000000000000109                     I0118267     30071800000000035003410000017N070518104700000000000103007180000000000000000000000000000000000000000100095949925734RITA DE CASSIA COCCARO                  RUA JUCARI N 563                        IRAJA - RIO 21371320RIO DE JANEIRO RJUNIAO UMB DOS CULTOS AFRO BRAS    30071810 000028
10231987175000168916200163100    000018266                    000182660000000000000109                     I0118266     30071800000000035003410000017N070518104700000000000103007180000000000000000000000000000000000000000100071757724753MIGUEL ABRAHAO FILHO                    RUA FRANCISCO ANTONIO NASCIMENTO QUADRA MIGUEL COUTO26070467NOVA IGUACU    RJUNIAO UMB DOS CULTOS AFRO BRAS    30071810 000029
10231987175000168916200163100    000018265                    000182650000000000000109                     I0118265     30071800000000035003410000017N070518104700000000000103007180000000000000000000000000000000000000000100000308305752MAGDA DA SILVA DINELLY                  ESTRADA DOS SETE RIACHOS, 1949 LOTE 10 CSANTISSIMO -23098006RIO DE JANEIRO RJUNIAO UMB DOS CULTOS AFRO BRAS    30071810 000030
10231987175000168916200163100    000018264                    000182640000000000000109                     I0118264     30071800000000035003410000017N070518104700000000000103007180000000000000000000000000000000000000000100085212091772ADAO DIAS FUNCHAL FILHO                 RUA WALTER FERREIRA, 1752 - SAO FRANCISCMAUA - MAGE 25900000MAGE           RJUNIAO UMB DOS CULTOS AFRO BRAS    30071810 000031
10231987175000168916200163100    000018263                    000182630000000000000109                     I0118263     30071800000000035003410000017N070518104700000000000103007180000000000000000000000000000000000000000100053365836772CRISTINA MARIA DE SANT ANNA SI          RUA GUSTAVO SAMPAIO, 172 APTO 201       LEME - RIO D22010010RIO DE JANEIRO RJUNIAO UMB DOS CULTOS AFRO BRAS    30071810 000032
10231987175000168916200163100    000018262                    000182620000000000000109                     I0118262     30071800000000035003410000017N070518104700000000000103007180000000000000000000000000000000000000000100062821598734CLAUDEMIR APARECIDO FREITAS SI          TRAVESSA PIACAVA, 156                   BANCO DE ARE26570210MESQUITA       RJUNIAO UMB DOS CULTOS AFRO BRAS    30071810 000033
10231987175000168916200163100    000018261                    000182610000000000000109                     I0118261     30071800000000035003410000017N070518104700000000000103007180000000000000000000000000000000000000000100033205094700IRACEMA PAZ DA MOTTA                    RUA PADRE ILDEFONSO PENALBA N 90 BLOCO 1MEIER - RIO 20775020RIO DE JANEIRO RJUNIAO UMB DOS CULTOS AFRO BRAS    30071810 000034
10231987175000168916200163100    000018260                    000182600000000000000109                     I0118260     30071800000000035003410000017N070518104700000000000103007180000000000000000000000000000000000000000100090823516768ALEXANDRE LUIZ DE OLIVEIRA NET          RUA JOSE SOMBRA  539                    IRAJA  RIO D21230240RIO DE JANEIRO RJUNIAO UMB DOS CULTOS AFRO BRAS    30071810 000035
10231987175000168916200163100    000018259                    000182590000000000000109                     I0118259     30071800000000035003410000017N070518104700000000000103007180000000000000000000000000000000000000000100092080570706EUZAMAR FONSECA SANTOS                  RUA DONA EMILIA N 195 CASA 4            INHAUMA - RI20765110RIO DE JANEIRO RJUNIAO UMB DOS CULTOS AFRO BRAS    30071810 000036
10231987175000168916200163100    000018258                    000182580000000000000109                     I0118258     30071800000000035003410000017N070518104700000000000103007180000000000000000000000000000000000000000100002379534713ALEX EVANDRO CORREIA PETITINGA          RUA CARDOSO QUINTAO, 40                 PIEDADE - RJ21381460RIO DE JANEIRO RJUNIAO UMB DOS CULTOS AFRO BRAS    30071810 000037
10231987175000168916200163100    000018257                    000182570000000000000109                     I0118257     30071800000000035003410000017N070518104700000000000103007180000000000000000000000000000000000000000100043641717787YWONE AMELIA VAZ COSTA                  RUA CASTRO MENEZES N 284 CASA 1         BRAZ DE PINA21215250RIO DE JANEIRO RJUNIAO UMB DOS CULTOS AFRO BRAS    30071810 000038
10231987175000168916200163100    000018256                    000182560000000000000109                     I0118256     30071800000000035003410000017N070518104700000000000103007180000000000000000000000000000000000000000100007332496712ELENICE ROSA DA SILVA                   RUA BERNARDINO DE MELO, 4705 - BAIRRO DAVILA CAVA - 26052060NOVA IGUACU    RJUNIAO UMB DOS CULTOS AFRO BRAS    30071810 000039
10231987175000168916200163100    000018255                    000182550000000000000109                     I0118255     30071800000000035003410000017N070518104700000000000103007180000000000000000000000000000000000000000100002735190773EDIVAN FARIAS DA SILVA                  RUA EDNA MEDEIROS, 69 - JARDIM MARILICE CORUMBA - NO26042430NOVA IGUACU    RJUNIAO UMB DOS CULTOS AFRO BRAS    30071810 000040
10231987175000168916200163100    000018254                    000182540000000000000109                     I0118254     30071800000000035003410000017N070518104700000000000103007180000000000000000000000000000000000000000100000633999709KATIA REGINA LEITE RAMOS                RUA GUIRATIM N 260                      IRAJA - RIO 21371410RIO DE JANEIRO RJUNIAO UMB DOS CULTOS AFRO BRAS    30071810 000041
10231987175000168916200163100    000018253                    000182530000000000000109                     I0118253     30071800000000035003410000017N070518104700000000000103007180000000000000000000000000000000000000000100009237411782RODRIGO NOGUEIRA MARTINS                RUA DOUTOR AUGUSTO FIGUEIREDO, 298      BANGU - RJ  21840600RIO DE JANEIRO RJUNIAO UMB DOS CULTOS AFRO BRAS    30071810 000042
10231987175000168916200163100    000018252                    000182520000000000000109                     I0118252     30071800000000035003410000017N070518104700000000000103007180000000000000000000000000000000000000000100041795458704VERA LUCIA DE MACEDO                    RUA JOSE CARLOS PACE, 50 CASA 50        CENTRO - MAR24900000MARICA         RJUNIAO UMB DOS CULTOS AFRO BRAS    30071810 000043
10231987175000168916200163100    000018251                    000182510000000000000109                     I0118251     30071800000000035003410000017N070518104700000000000103007180000000000000000000000000000000000000000100063761092768JANET BATISTA DA CONCEICAO              RUA SERRA VELHA, 41                     RAIZ DA SERR25935000MAGE           RJUNIAO UMB DOS CULTOS AFRO BRAS    30071810 000044
10231987175000168916200163100    000018250                    000182500000000000000109                     I0118250     30071800000000035003410000017N070518104700000000000103007180000000000000000000000000000000000000000100064304345753MARIA ELISABETH DE OLIVEIRA CA          O MESMO                                 O MESMO     25670010PETROPOLIS     RJUNIAO UMB DOS CULTOS AFRO BRAS    30071810 000045
10231987175000168916200163100    000018249                    000182490000000000000109                     I0118249     30071800000000035003410000017N070518104700000000000103007180000000000000000000000000000000000000000100000000000955MARIA DE LOURDES MATTOS DA SIL          RUA: ADEMAR                             BELFORD ROXO26157180BELFORD ROXO   RJUNIAO UMB DOS CULTOS AFRO BRAS    30071810 000046
10231987175000168916200163100    000018248                    000182480000000000000109                     I0118248     30071800000000035003410000017N070518104700000000000103007180000000000000000000000000000000000000000100048507458734MARCOS DE OLIVEIRA ROSA                 RUA CALDAS NOVAS N 135                  VILA ZULMIRA25540530SAO JOAO DE MERRJUNIAO UMB DOS CULTOS AFRO BRAS    30071810 000047
10231987175000168916200163100    000018247                    000182470000000000000109                     I0118247     30071800000000035003410000017N070518104700000000000103007180000000000000000000000000000000000000000200000000009545PEDRO HENRIQUE CARVALHO DA FON          RUA CADETE POLONIA, 628 FRENTE          ENGENHO NOVO20961050RIO DE JANEIRO RJUNIAO UMB DOS CULTOS AFRO BRAS    30071810 000048
10231987175000168916200163100    000018246                    000182460000000000000109                     I0118246     30071800000000035003410000017N070518104700000000000103007180000000000000000000000000000000000000000100066812034704LYDIAMAR NAZARETH BRANDAO DE A          RUA: HELEODORA Nº 246 FUNDOS           PILARES - RJ20760722RIO DE JANEIRO RJUNIAO UMB DOS CULTOS AFRO BRAS    30071810 000049
10231987175000168916200163100    000018245                    000182450000000000000109                     I0118245     30071800000000035003410000017N070518104700000000000103007180000000000000000000000000000000000000000100008013752747GIVANILDO MENDES LAGOA                  RUA DOS CORAIS LOTE 19 QUADRA 46 CASA 3 PIRATININGA 24320358NITEROI        RJUNIAO UMB DOS CULTOS AFRO BRAS    30071810 000050
10231987175000168916200163100    000018244                    000182440000000000000109                     I0118244     30071800000000035003410000017N070518104700000000000103007180000000000000000000000000000000000000000100004121499743ELENICE FIGUEIREDO DA SILVA             O MESMO                                 O MESMO     24230210NITEROI        RJUNIAO UMB DOS CULTOS AFRO BRAS    30071810 000051
10231987175000168916200163100    000018243                    000182430000000000000109                     I0118243     30071800000000035003410000017N070518104700000000000103007180000000000000000000000000000000000000000100005199150707RITA LUSIE DE MELLO CASTRO              RUA IARA N 118 CASA A                   SAO MATEUS -25525410SAO JOAO DE MERRJUNIAO UMB DOS CULTOS AFRO BRAS    30071810 000052
10231987175000168916200163100    000018242                    000182420000000000000109                     I0118242     30071800000000035003410000017N070518104700000000000103007180000000000000000000000000000000000000000100001220001708ANDRE AMERICO DA SILVA                  RUA LARGO DO BOIADEIRO DA ROCINHA, 11   ROCINHA - RI22451340RIO DE JANEIRO RJUNIAO UMB DOS CULTOS AFRO BRAS    30071810 000053
10231987175000168916200163100    000018241                    000182410000000000000109                     I0118241     30071800000000035003410000017N070518104700000000000103007180000000000000000000000000000000000000000100047515090715JOSE CARLOS DA SILVA GENUNCIO           RUA VEREADOR MAURICIO SOUZA N 97        ENGENHOCA - 24110539NITEROI        RJUNIAO UMB DOS CULTOS AFRO BRAS    30071810 000054
10231987175000168916200163100    000018240                    000182400000000000000109                     I0118240     30071800000000035003410000017N070518104700000000000103007180000000000000000000000000000000000000000100085127183749CLAUDIA JORGE DA SILVA GAMA             RUA DAS MANGUEIRAS N 249                PIEDADE - RI20751080RIO DE JANEIRO RJUNIAO UMB DOS CULTOS AFRO BRAS    30071810 000055
10231987175000168916200163100    000018239                    000182390000000000000109                     I0118239     30071800000000035003410000017N070518104700000000000103007180000000000000000000000000000000000000000100038232103787SUZANE LEMOS DA SILVA                   RUA ASSIS REPUBLICANO N 310 FUNDOS      FREGUESIA - 22745030RIO DE JANEIRO RJUNIAO UMB DOS CULTOS AFRO BRAS    30071810 000056
10231987175000168916200163100    000018238                    000182380000000000000109                     I0118238     30071800000000035003410000017N070518104700000000000103007180000000000000000000000000000000000000000100064321800749MARLENE BALBINO DA SILVA                RUA: MATA MACHADO Nº 49                MARACANA    20271260LEOPOLDINA     MGUNIAO UMB DOS CULTOS AFRO BRAS    30071810 000057
10231987175000168916200163100    000018237                    000182370000000000000109                     I0118237     30071800000000035003410000017N070518104700000000000103007180000000000000000000000000000000000000000100006935690773ELAINE DA COSTA MARTINS                 O MESMO                                 O MESMO     25220407DUQUE DE CAXIASRJUNIAO UMB DOS CULTOS AFRO BRAS    30071810 000058
10231987175000168916200163100    000018236                    000182360000000000000109                     I0118236     30071800000000035003410000017N070518104700000000000103007180000000000000000000000000000000000000000100013540201756RUTE MEDEIROS VIEIRA                    RUA DESSESEIS N 527                     CONJUNTO NOV23565450SANTA CRUZ     RJUNIAO UMB DOS CULTOS AFRO BRAS    30071810 000059
10231987175000168916200163100    000018235                    000182350000000000000109                     I0118235     30071800000000035003410000017N070518104700000000000103007180000000000000000000000000000000000000000100090876857772MARCO AURELIO PEREIRA VASCONCE          RUA VISCONDE DE OURO PRETO N 5          TAUA - ILHA 21910520ILHA DO GOVERNARJUNIAO UMB DOS CULTOS AFRO BRAS    30071810 000060
10231987175000168916200163100    000018234                    000182340000000000000109                     I0118234     30071800000000035003410000017N070518104700000000000103007180000000000000000000000000000000000000000100037125893791ELIANA DOS SANTOS VITAL                 RUA CAPITAO VIEIRA Nº 96               TURIACU - RI21540330RIO DE JANEIRO RJUNIAO UMB DOS CULTOS AFRO BRAS    30071810 000061
10231987175000168916200163100    000018233                    000182330000000000000109                     I0118233     30071800000000035003410000017N070518104700000000000103007180000000000000000000000000000000000000000100005426043701CLARA DANIELE BROWN FLAUZINO            RUA ZAMBIA N 29                         BANGU - RIO 21850510RIO DE JANEIRO RJUNIAO UMB DOS CULTOS AFRO BRAS    30071810 000062
10231987175000168916200163100    000018232                    000182320000000000000109                     I0118232     30071800000000035003410000017N070518104700000000000103007180000000000000000000000000000000000000000200000000009372SILAS SOUZA ALSELMO                     RUA DO CANAVIAL N 207                   PARQUE ANTAR26053040NOVA IGUACU    RJUNIAO UMB DOS CULTOS AFRO BRAS    30071810 000063
10231987175000168916200163100    000018231                    000182310000000000000109                     I0118231     30071800000000035003410000017N070518104700000000000103007180000000000000000000000000000000000000000100000357281756ROSA ELENA DA CONCEICAO ALVES           TRAVESSA TIRADENTES N 23 CASA 4         OLINDA - NIL26535370NILOPOLIS      RJUNIAO UMB DOS CULTOS AFRO BRAS    30071810 000064
10231987175000168916200163100    000018230                    000182300000000000000109                     I0118230     30071800000000035003410000017N070518104700000000000103007180000000000000000000000000000000000000000200000000009363ANTONIO SANTOS DA SILVA                 RUA DAS BANANEIRAS N 42                 BARAO GUANDU26062188NOVA IGUACU    RJUNIAO UMB DOS CULTOS AFRO BRAS    30071810 000065
10231987175000168916200163100    000018229                    000182290000000000000109                     I0118229     30071800000000035003410000017N070518104700000000000103007180000000000000000000000000000000000000000100041402685734ITAMAR DE OLIVEIRA FERREIRA             RUA AGRIPINO DE CAMPOS N 1016           MUTUA - SAO 24461320SAO GONCALO    RJUNIAO UMB DOS CULTOS AFRO BRAS    30071810 000066
10231987175000168916200163100    000018228                    000182280000000000000109                     I0118228     30071800000000035003410000017N070518104700000000000103007180000000000000000000000000000000000000000100067160891791ELIZABETH VIEGAS GUALHANO               RUA MARIZ DE BARROS N 272 APT° 302     PRACA DA BAN20785330RIO DE JANEIRO RJUNIAO UMB DOS CULTOS AFRO BRAS    30071810 000067
10231987175000168916200163100    000018227                    000182270000000000000109                     I0118227     30071800000000035003410000017N070518104700000000000103007180000000000000000000000000000000000000000100003661917100DUCILENE MADEIRA VIEIRA                 AVENIDA ZELINHA N 362                   JARDIM NAZAR25915000MAGE           RJUNIAO UMB DOS CULTOS AFRO BRAS    30071810 000068
10231987175000168916200163100    000018226                    000182260000000000000109                     I0118226     30071800000000035003410000017N070518104700000000000103007180000000000000000000000000000000000000000100060296836168ALEXANDRE MONTEIRO DA ROSA              MONTE CASTELO Nº 143 - CORONEL VEIGA   ILHA        25655500PETROPOLIS     RJUNIAO UMB DOS CULTOS AFRO BRAS    30071810 000069
10231987175000168916200163100    000018225                    000182250000000000000109                     I0118225     30071800000000035003410000017N070518104700000000000103007180000000000000000000000000000000000000000100068754485720LUCIA DA CONCEICAO GREGORIO             RUA PAULO OLIVEIRA DE CARVALHO N 56     VILA SAO LUI26012510NOVA IGUACU    RJUNIAO UMB DOS CULTOS AFRO BRAS    30071810 000070
10231987175000168916200163100    000018224                    000182240000000000000109                     I0118224     30071800000000035003410000017N070518104700000000000103007180000000000000000000000000000000000000000100002167919794ANDERSON CLEI BRANDAO TEIXEIRA          ESTRADA DO CANTAGALO Nº 595 A          CAMPO GRANDE23036440RIO DE JANEIRO RJUNIAO UMB DOS CULTOS AFRO BRAS    30071810 000071
10231987175000168916200163100    000018223                    000182230000000000000109                     I0118223     30071800000000035003410000017N070518104700000000000103007180000000000000000000000000000000000000000100008874438770MARCIA MARIA DOS SANTOS                 RUA HENRIQUE VALADARES N 47 APT 506     CENTRO - RJ 20231030RIO DE JANEIRO RJUNIAO UMB DOS CULTOS AFRO BRAS    30071810 000072
10231987175000168916200163100    000018222                    000182220000000000000109                     I0118222     30071800000000035003410000017N070518104700000000000103007180000000000000000000000000000000000000000200000000009322WILMA DE CASTRO GOUVEA                  RUA DAMAZIO BATISTA, 86 CASA 97 - CABRALOLINDA - NIL26515126NILOPOLIS      RJUNIAO UMB DOS CULTOS AFRO BRAS    30071810 000073
10231987175000168916200163100    000018221                    000182210000000000000109                     I0118221     30071800000000035003410000017N070518104700000000000103007180000000000000000000000000000000000000000100001680132741SANDRA NOGUEIRA DE BRITO                RUA BARATA RIBEIRO 726 APT 602          COPACABANA -22051000RIO DE JANEIRO RJUNIAO UMB DOS CULTOS AFRO BRAS    30071810 000074
10231987175000168916200163100    000018220                    000182200000000000000109                     I0118220     30071800000000035003410000017N070518104700000000000103007180000000000000000000000000000000000000000100008083468738WAGNER DE ANDRADE SACRAMENTO            RUA SAGRADO CORACAO DE JESUS 243        NILOPOLIS   26535140NILOPOLIS      RJUNIAO UMB DOS CULTOS AFRO BRAS    30071810 000075
10231987175000168916200163100    000018219                    000182190000000000000109                     I0118219     30071800000000035003410000017N070518104700000000000103007180000000000000000000000000000000000000000200000000009316IRENE SIMONE DE SOUZA NOGUEIRA          RUA: NOVE DE JUNHO LOTE 9 QUADRA 18 - IPNOVA IGUACU 26293354NOVA IGUACU    RJUNIAO UMB DOS CULTOS AFRO BRAS    30071810 000076
10231987175000168916200163100    000018218                    000182180000000000000109                     I0118218     30071800000000035003410000017N070518104700000000000103007180000000000000000000000000000000000000000100070614628768CREUZA GOMES DA ROCHA                   RUA ITAPERA, 286 BLOCO 31 APTO 102      VISTA ALEGRE21230500RIO DE JANEIRO RJUNIAO UMB DOS CULTOS AFRO BRAS    30071810 000077
10231987175000168916200163100    000018217                    000182170000000000000109                     I0118217     30071800000000035003410000017N070518104700000000000103007180000000000000000000000000000000000000000100084161973772MARCOS ANTONIO VIEIRA BAPTISTA          RUA CARLOS GONCALVES PENNA, 42          ENGENHO DA R20761330RIO DE JANEIRO RJUNIAO UMB DOS CULTOS AFRO BRAS    30071810 000078
10231987175000168916200163100    000018216                    000182160000000000000109                     I0118216     30071800000000035003410000017N070518104700000000000103007180000000000000000000000000000000000000000100002175979717CLAUDIA PILAR PERES SANTOS DE           RUA JOAO MACIEIRA N 20                  MADUREIRA - 21310090RIO DE JANEIRO RJUNIAO UMB DOS CULTOS AFRO BRAS    30071810 000079
10231987175000168916200163100    000018215                    000182150000000000000109                     I0118215     30071800000000035003410000017N070518104700000000000103007180000000000000000000000000000000000000000100002190466709CARLOS ROBERTO RIBEIRO DA CONC          RUA NOSSA SENHORA DAS GRACAS N 40       MOSELA - PET25675111PETROPOLIS     RJUNIAO UMB DOS CULTOS AFRO BRAS    30071810 000080
10231987175000168916200163100    000018214                    000182140000000000000109                     I0118214     30071800000000035003410000017N070518104700000000000103007180000000000000000000000000000000000000000100083697799720ANGELA MARIA FERRAZ FARIAS              RUA LUIS BELTRAO, 1171                  VILA VALQUEI21321230RIO DE JANEIRO RJUNIAO UMB DOS CULTOS AFRO BRAS    30071810 000081
10231987175000168916200163100    000018213                    000182130000000000000109                     I0118213     30071800000000035003410000017N070518104700000000000103007180000000000000000000000000000000000000000200000000009288SAMUEL MUNIZ PORTELA                    LOTEAMENTO CAMPO LINDO LT 13 Q 57       CAMPO LINDO 21745380RIO DE JANEIRO RJUNIAO UMB DOS CULTOS AFRO BRAS    30071810 000082
10231987175000168916200163100    000018212                    000182120000000000000109                     I0118212     30071800000000035003410000017N070518104700000000000103007180000000000000000000000000000000000000000100043194869787JORGE PINHEIRO DE ALMEIDA               RUA CERQUEIRA CESAR N 121 CASA 1        MADUREIRA - 21351070RIO DE JANEIRO RJUNIAO UMB DOS CULTOS AFRO BRAS    30071810 000083
10231987175000168916200163100    000018211                    000182110000000000000109                     I0118211     30071800000000035003410000017N070518104700000000000103007180000000000000000000000000000000000000000100000907631738IDA ANGELICA PEREIRA CALDAS             RUA SILVEIRA LOBO N 43                  CACHAMBI - R20780310RIO DE JANEIRO RJUNIAO UMB DOS CULTOS AFRO BRAS    30071810 000084
10231987175000168916200163100    000018210                    000182100000000000000109                     I0118210     30071800000000040003410000017N070518104700000000000103007180000000000000000000000000000000000000000100074789600734SOLANGE MARTINS                         RUA ITAJIBA N 889                       COSMOS - RIO23060450RIO DE JANEIRO RJUNIAO UMB DOS CULTOS AFRO BRAS    30071810 000085
10231987175000168916200163100    000018209                    000182090000000000000109                     I0118209     30071800000000035003410000017N070518104700000000000103007180000000000000000000000000000000000000000100075078392734MARCIA HELENA DE AZEVEDO MUNIZ          RUA OSMUNDO PIMENTEL, 70 CASA 1         BRAZ DE PINA00000001RIO DE JANEIRO RJUNIAO UMB DOS CULTOS AFRO BRAS    30071810 000086
10231987175000168916200163100    000018208                    000182080000000000000109                     I0118208     30071800000000035003410000017N070518104700000000000103007180000000000000000000000000000000000000000100002418033732EDSON LUIZ ALVES DE CARVALHO            AVENIDA PORTO SEGURO, 526 ANTIGA RUA 30 LAGOMAR - MA27966870MACAE          RJUNIAO UMB DOS CULTOS AFRO BRAS    30071810 000087
10231987175000168916200163100    000018207                    000182070000000000000109                     I0118207     30071800000000035003410000017N070518104700000000000103007180000000000000000000000000000000000000000100065196171720MARIA DAS GRACAS OLIVEIRA               RUA FRANCISCO MANOEL, 22                PONTO CHIQUE26032835NOVA IGUACU    RJUNIAO UMB DOS CULTOS AFRO BRAS    30071810 000088
10231987175000168916200163100    000018206                    000182060000000000000109                     I0118206     30071800000000035003410000017N070518104700000000000103007180000000000000000000000000000000000000000200000000009240MEYRE CHAVES SOARES                     RUA MARIO HERMES N 40 CASA 6            BENTO RIBEIR21550555RIO DE JANEIRO RJUNIAO UMB DOS CULTOS AFRO BRAS    30071810 000089
10231987175000168916200163100    000018205                    000182050000000000000109                     I0118205     30071800000000035003410000017N070518104700000000000103007180000000000000000000000000000000000000000100059395656700NADIA MARIZA CORREA TRINDADE            RUA JORGE SILVA, 25                     PARQUE SAO J23890000RIO DE JANEIRO RJUNIAO UMB DOS CULTOS AFRO BRAS    30071810 000090
10231987175000168916200163100    000018204                    000182040000000000000109                     I0118204     30071800000000035003410000017N070518104700000000000103007180000000000000000000000000000000000000000100089080475734MARCIA MARIA CORREIA DA SILVA           RUA ALVARES CABRAL, 520                 CACHAMBI - R20780320RIO DE JANEIRO RJUNIAO UMB DOS CULTOS AFRO BRAS    30071810 000091
10231987175000168916200163100    000018203                    000182030000000000000109                     I0118203     30071800000000035003410000017N070518104700000000000103007180000000000000000000000000000000000000000100057316600772ESTELA FERREIRA                         AVENIDA BORIS, 321                      MUTONDO  - S24422730SAO GONCALO    RJUNIAO UMB DOS CULTOS AFRO BRAS    30071810 000092
10231987175000168916200163100    000018202                    000182020000000000000109                     I0118202     30071800000000035003410000017N070518104700000000000103007180000000000000000000000000000000000000000100007346014766LUCIANO FREIRE DE FRANCA                AV. AMARO CAVALCANTE, 2283 CASA 5       ENGENHO DE D20735042RIO DE JANEIRO RJUNIAO UMB DOS CULTOS AFRO BRAS    30071810 000093
10231987175000168916200163100    000018201                    000182010000000000000109                     I0118201     30071800000000040003410000017N070518104700000000000103007180000000000000000000000000000000000000000100094635650782ALFREDO DOMINGOS HAFNER                 O MESMO                                 O MESMO     25931606MAGE           RJUNIAO UMB DOS CULTOS AFRO BRAS    30071810 000094
10231987175000168916200163100    000018200                    000182000000000000000109                     I0118200     30071800000000035003410000017N070518104700000000000103007180000000000000000000000000000000000000000100044631154772LINDOMAR SOARES BERNARDO                RUA FEIRA DE SANTANA, LOTE 8 QUADRA 17  PARQUE NOVO 25585100SAO JOAO DE MERRJUNIAO UMB DOS CULTOS AFRO BRAS    30071810 000095
10231987175000168916200163100    000018199                    000181990000000000000109                     I0118199     30071800000000035003410000017N070518104700000000000103007180000000000000000000000000000000000000000100005721435755ALEX ARAUJO BRAGA                       RUA MARTE, 685 CASA 2                   MESQUITA - N26240290NOVA IGUACU    RJUNIAO UMB DOS CULTOS AFRO BRAS    30071810 000096
10231987175000168916200163100    000018198                    000181980000000000000109                     I0118198     30071800000000035003410000017N070518104700000000000103007180000000000000000000000000000000000000000100001145934773ELENICE DE SOUZA SILVA ARRUDA           RUA SEVERIANO MONTEIRO, 271 CASA 3      VISTA ALEGRE21235620RIO DE JANEIRO RJUNIAO UMB DOS CULTOS AFRO BRAS    30071810 000097
10231987175000168916200163100    000018197                    000181970000000000000109                     I0118197     30071800000000035003410000017N070518104700000000000103007180000000000000000000000000000000000000000100021207275700GEORGETE MARIA SILVA DE JESUS           RUA BECO DO MIJANCAH, 30                PRAIA DA BRI23028696PEDRA DE GUARATRJUNIAO UMB DOS CULTOS AFRO BRAS    30071810 000098
10231987175000168916200163100    000018196                    000181960000000000000109                     I0118196     30071800000000035003410000017N070518104700000000000103007180000000000000000000000000000000000000000100093719744787SERGIO PEREIRA FRAGA                    RUA JURUBAIBA, 163 FUNDOS               HONORIO GURG21555170RIO DE JANEIRO RJUNIAO UMB DOS CULTOS AFRO BRAS    30071810 000099
10231987175000168916200163100    000018195                    000181950000000000000109                     I0118195     30071800000000035003410000017N070518104700000000000103007180000000000000000000000000000000000000000100031410715787LUZIA ELISIARIA DE FREITAS              RUA EXPEDICIONARIO JOSE AMARO, 84       VILA SAO LUI25065090DUQUE DE CAXIASRJUNIAO UMB DOS CULTOS AFRO BRAS    30071810 000100
10231987175000168916200163100    000018194                    000181940000000000000109                     I0118194     30071800000000035003410000017N070518104700000000000103007180000000000000000000000000000000000000000100001256782742VANDA BARBOSA BASTOS                    RUA CERES, 1058                         BANGU - RIO 21862070RIO DE JANEIRO RJUNIAO UMB DOS CULTOS AFRO BRAS    30071810 000101
10231987175000168916200163100    000018193                    000181930000000000000109                     I0118193     30071800000000035003410000017N070518104700000000000103007180000000000000000000000000000000000000000100011105998703FABRICIO SILVEIRA DE SOUZA              RUA: JOAO EVANGELISTA DE CARVALHO Nº 21CENTRO - NIL26520500NILOPOLIS      RJUNIAO UMB DOS CULTOS AFRO BRAS    30071810 000102
10231987175000168916200163100    000018192                    000181920000000000000109                     I0118192     30071800000000025003410000017N070518104700000000000103007180000000000000000000000000000000000000000100012470639840RICARDO DE OLIVEIRA                     RUA FELINTO MARQUES CERQUEIRA, 270 - CAPCAPUCHINHOS 44076040FEIRA DE SANTANBAUNIAO UMB DOS CULTOS AFRO BRAS    30071810 000103
10231987175000168916200163100    000018191                    000181910000000000000109                     I0118191     30071800000000035003410000017N070518104700000000000103007180000000000000000000000000000000000000000100058781887704DENORIDES DE ALMEIDA                    RUA GOIANIA, 802                        VILAR NOVO -26116590BELFORD ROXO   RJUNIAO UMB DOS CULTOS AFRO BRAS    30071810 000104
10231987175000168916200163100    000018190                    000181900000000000000109                     I0118190     30071800000000035003410000017N070518104700000000000103007180000000000000000000000000000000000000000100035838493704CELMO JOSE DE SOUZA                     RUA DA CONCEICAO, 188 SALA 1204 A B     CENTRO - NIT24020087NITEROI        RJUNIAO UMB DOS CULTOS AFRO BRAS    30071810 000105
10231987175000168916200163100    000018189                    000181890000000000000109                     I0118189     30071800000000035003410000017N070518104700000000000103007180000000000000000000000000000000000000000100067267258753RITA DE CASSIA DIACOVO PELLITO          RUA ANDRE AZEVEDO, 87 CASA 101 BLOCO 25 OLARIA  - RI21021480RIO DE JANEIRO RJUNIAO UMB DOS CULTOS AFRO BRAS    30071810 000106
10231987175000168916200163100    000018188                    000181880000000000000109                     I0118188     30071800000000035003410000017N070518104700000000000103007180000000000000000000000000000000000000000100008501649740ADILSON PEREIRA DIAS                    RUA ALBERTO MARTIRES ASTH, 260          SAO GERALDO 28630485NOVA FRIBURGO  RJUNIAO UMB DOS CULTOS AFRO BRAS    30071810 000107
10231987175000168916200163100    000018187                    000181870000000000000109                     I0118187     30071800000000035003410000017N070518104700000000000103007180000000000000000000000000000000000000000100099225158734MARIA MAGALI DE OLIVEIRA SOUZA          RUA PIRACAIA, 756 FUNDOS                MARECHAL HER21555260RIO DE JANEIRO RJUNIAO UMB DOS CULTOS AFRO BRAS    30071810 000108
10231987175000168916200163100    000018186                    000181860000000000000109                     I0118186     30071800000000050003410000017N070518104700000000000103007180000000000000000000000000000000000000000100005294848708AMANDA CONCEICAO DOS SANTOS E           RUA CORONEL BERNARDINO DE MELO,  2165 APCENTRO - NOV26255140RIO DE JANEIRO RJUNIAO UMB DOS CULTOS AFRO BRAS    30071810 000109
10231987175000168916200163100    000018185                    000181850000000000000109                     I0118185     30071800000000035003410000017N070518104700000000000103007180000000000000000000000000000000000000000200000000009079AGUINALDO DE PAULA BORGES               RUA ARNALDO MURINELI, 841 CASA 3        ANCHIETA/RJ 21630060RIO DE JANEIRO RJUNIAO UMB DOS CULTOS AFRO BRAS    30071810 000110
10231987175000168916200163100    000018184                    000181840000000000000109                     I0118184     30071800000000035003410000017N070518104700000000000103007180000000000000000000000000000000000000000100088341534720RAIMUNDA BERNADINA DE OLIVEIRA          ESTRADA DA GAVEA - TRAVESSA UNIAO, 29 RUGAVEA - RIO 22451530RIO DE JANEIRO RJUNIAO UMB DOS CULTOS AFRO BRAS    30071810 000111
10231987175000168916200163100    000018183                    000181830000000000000109                     I0118183     30071800000000035003410000017N070518104700000000000103007180000000000000000000000000000000000000000100091088003753CLARA RIBEIRO FERNANDES                 R:ITACURUCA,213                         MARAMBAIA- S24724410NITEROI        RJUNIAO UMB DOS CULTOS AFRO BRAS    30071810 000112
10231987175000168916200163100    000018182                    000181820000000000000109                     I0118182     30071800000000035003410000017N070518104700000000000103007180000000000000000000000000000000000000000100015197047712MARCELLE SOARES ZIMBRAO                 RUA: NOSSA SENHORA DAS GRACAS Nº 11    MOSELA - PET25675111PETROPOLIS     RJUNIAO UMB DOS CULTOS AFRO BRAS    30071810 000113
10231987175000168916200163100    000018181                    000181810000000000000109                     I0118181     30071800000000035003410000017N070518104700000000000103007180000000000000000000000000000000000000000100085725730700MARIA LUCIA DA SILVA BORGES             RUA CACIPORE, 1273                      JARDIM OLAVO25036040DUQUE DE CAXIASRJUNIAO UMB DOS CULTOS AFRO BRAS    30071810 000114
10231987175000168916200163100    000018180                    000181800000000000000109                     I0118180     30071800000000035003410000017N070518104700000000000103007180000000000000000000000000000000000000000100046530843787EDITH DA SILVA SOUZA                    RUA: OLIVEIRA MELO                      CORDOVIL    21250540RIO DE JANEIRO RJUNIAO UMB DOS CULTOS AFRO BRAS    30071810 000115
10231987175000168916200163100    000018179                    000181790000000000000109                     I0118179     30071800000000035003410000017N070518104700000000000103007180000000000000000000000000000000000000000100002248004770ROSANE ALVES DE AZEVEDO                 RUA W, 14 LOTE 180 CASA 1               LAGOMAR - MA27970130MACAE          RJUNIAO UMB DOS CULTOS AFRO BRAS    30071810 000116
10231987175000168916200163100    000018178                    000181780000000000000109                     I0118178     30071800000000035003410000017N070518104700000000000103007180000000000000000000000000000000000000000100011778537790MARIVONE ANTONIA DOS SANTOS             O MESMO                                 O MESMO     26031512NOVA IGUACU    RJUNIAO UMB DOS CULTOS AFRO BRAS    30071810 000117
10231987175000168916200163100    000018177                    000181770000000000000109                     I0118177     30071800000000035003410000017N070518104700000000000103007180000000000000000000000000000000000000000100000238705757ANGELA DA MOTTA NUNES SILVA             RUA: RIACHO DOCE                        OSVALDO CRUZ21340340RIO DE JANEIRO RJUNIAO UMB DOS CULTOS AFRO BRAS    30071810 000118
10231987175000168916200163100    000018176                    000181760000000000000109                     I0118176     30071800000000035003410000017N070518104700000000000103007180000000000000000000000000000000000000000100045910303787PAULO ROBERTO DE OLIVEIRA DRUB          RUA ARGEMIRO DE HUNGRIA MACHADO, 195    GUADALUPE - 21670290RIO DE JANEIRO RJUNIAO UMB DOS CULTOS AFRO BRAS    30071810 000119
10231987175000168916200163100    000018175                    000181750000000000000109                     I0118175     30071800000000035003410000017N070518104700000000000103007180000000000000000000000000000000000000000100085901512715ZENILDA MACHADO VICENTE LEITE           RUA VILLAGE IMPERIAL, 194               PARQUE MAMBU23954270ANGRA DOS REIS RJUNIAO UMB DOS CULTOS AFRO BRAS    30071810 000120
10231987175000168916200163100    000018174                    000181740000000000000109                     I0118174     30071800000000035003410000017N070518104700000000000103007180000000000000000000000000000000000000000100003617355706INAIA DE MACEDO SANTOS                  TRAVESSA PARAIBA DO SUL, 35             NILOPOLIS - 26525470RIO DE JANEIRO RJUNIAO UMB DOS CULTOS AFRO BRAS    30071810 000121
10231987175000168916200163100    000018173                    000181730000000000000109                     I0118173     30071800000000035003410000017N070518104700000000000103007180000000000000000000000000000000000000000100063607379734FATIMA CONCEICAO GONCALVES DA           RUA: AMANDIU Nº 63                     IRAJA - RIO 21371440RIO DE JANEIRO RJUNIAO UMB DOS CULTOS AFRO BRAS    30071810 000122
10231987175000168916200163100    000018172                    000181720000000000000109                     I0118172     30071800000000035003410000017N070518104700000000000103007180000000000000000000000000000000000000000100085194557787CELIA MARIA FERNANDES DE CASTR          RUA IRAPIRANGA, 98                      ROCHA MIRAND21540710RIO DE JANEIRO RJUNIAO UMB DOS CULTOS AFRO BRAS    30071810 000123
10231987175000168916200163100    000018171                    000181710000000000000109                     I0118171     30071800000000035003410000017N070518104700000000000103007180000000000000000000000000000000000000000100010126360707NONILHA DA CONCEICAO FERREIRA           RUA JUSCELINO KUBITCHEK DE OLIVEIRA ,232PRAIA NOVA -25900000MAGE           RJUNIAO UMB DOS CULTOS AFRO BRAS    30071810 000124
10231987175000168916200163100    000018170                    000181700000000000000109                     I0118170     30071800000000035003410000017N070518104700000000000103007180000000000000000000000000000000000000000100080236499734REGINALDO VIEIRA CAPTIVO                RUA: DOUTOR NUNES N° 1099 FUNDOS       OLARIA - RIO21021370RIO DE JANEIRO RJUNIAO UMB DOS CULTOS AFRO BRAS    30071810 000125
10231987175000168916200163100    000018169                    000181690000000000000109                     I0118169     30071800000000035003410000017N070518104700000000000103007180000000000000000000000000000000000000000100055224644704VALERIA DOS SANTOS NEVES                RUA FRANCISCA ZIEZE, 71                 PILARES - RI20750040RIO DE JANEIRIORJUNIAO UMB DOS CULTOS AFRO BRAS    30071810 000126
10231987175000168916200163100    000018168                    000181680000000000000109                     I0118168     30071800000000035003410000017N070518104700000000000103007180000000000000000000000000000000000000000100026376253768MARIA DE LOURDES DA SILVA FERN          RUA: ESTUDANTE PAULINO DURVAL, QUADRA 3 MAGE - RIO D25931882MAGE           RJUNIAO UMB DOS CULTOS AFRO BRAS    30071810 000127
10231987175000168916200163100    000018167                    000181670000000000000109                     I0118167     30071800000000035003410000017N070518104700000000000103007180000000000000000000000000000000000000000100055365795768YEDA BARROS DE AZEVEDO                  RUA SESSENTA E NOVE QUADRA, 332 LOTE 43 JARDIM ATLAN24910000MARICA         RJUNIAO UMB DOS CULTOS AFRO BRAS    30071810 000128
10231987175000168916200163100    000018166                    000181660000000000000109                     I0118166     30071800000000035003410000017N070518104700000000000103007180000000000000000000000000000000000000000100068567855772ZAILDA MASCARENHAS DOS SANTOS           RUA FRANCISCO ANTONIO NASCIMENTO, 57    MIGUEL COUTO26070467RIO DE JANEIRO RJUNIAO UMB DOS CULTOS AFRO BRAS    30071810 000129
10231987175000168916200163100    000018165                    000181650000000000000109                     I0118165     30071800000000035003410000017N070518104700000000000103007180000000000000000000000000000000000000000200000000008928GILMAR GAMMARO CARVALHO                 RUA GENERAL SEARA, 189                  CAROLINA - D25060010DUQUE CAXIAS   RJUNIAO UMB DOS CULTOS AFRO BRAS    30071810 000130
10231987175000168916200163100    000018164                    000181640000000000000109                     I0118164     30071800000000035003410000017N070518104700000000000103007180000000000000000000000000000000000000000100065065325749MARIA LUISA CHAGAS SILVA                RUA BOGARI N°16  BELFORD ROXO          JD XAVANTES 26160190BELFORD ROXO   RJUNIAO UMB DOS CULTOS AFRO BRAS    30071810 000131
10231987175000168916200163100    000018163                    000181630000000000000109                     I0118163     30071800000000035003410000017N070518104700000000000103007180000000000000000000000000000000000000000100079583490768ZILDA VICENTE DA SILVA                  RUA MARIA COSTA CORREA, 129 QUADRA E    APOLO 2 - IT24800000ITABORAI       RJUNIAO UMB DOS CULTOS AFRO BRAS    30071810 000132
10231987175000168916200163100    000018162                    000181620000000000000109                     I0118162     30071800000000035003410000017N070518104700000000000103007180000000000000000000000000000000000000000100005383774700VILMA MACEDO COIMBRA DOS SANTO          RUA TOQUIO, 571                         AGOSTINHO PO25545211SAO JOAO DE MERRJUNIAO UMB DOS CULTOS AFRO BRAS    30071810 000133
10231987175000168916200163100    000018161                    000181610000000000000109                     I0118161     30071800000000035003410000017N070518104700000000000103007180000000000000000000000000000000000000000100012201569738PAULO CELSO MACHADO JUNIOR              RUA SEIS LOTE 26 - CHACARA INOA         MARICA - RIO24900000MARICA         RJUNIAO UMB DOS CULTOS AFRO BRAS    30071810 000134
10231987175000168916200163100    000018160                    000181600000000000000109                     I0118160     30071800000000035003410000017N070518104700000000000103007180000000000000000000000000000000000000000100007967809785FERNANDA PAULA SANTA ANNA HERN          TRAVESSA CHAFI CHAIA, 95                CAMPO GRANDE23052200RIO DE JANEIRO RJUNIAO UMB DOS CULTOS AFRO BRAS    30071810 000135
10231987175000168916200163100    000018159                    000181590000000000000109                     I0118159     30071800000000035003410000017N070518104700000000000103007180000000000000000000000000000000000000000100009431078732LUCIA OLIVEIRA BONIFACIO                RUA NINA RIBEIRO, 67 FUNDOS             PAVUNA - RJ 21520290RIO DE JANEIRO RJUNIAO UMB DOS CULTOS AFRO BRAS    30071810 000136
10231987175000168916200163100    000018158                    000181580000000000000109                     I0118158     30071800000000035003410000017N070518104700000000000103007180000000000000000000000000000000000000000100093473095753ALEXANDER NUNES PICANCO                 RUA REGISTRO, 315                       SENADOR CAMA21832270RIO DE JANEIRO RJUNIAO UMB DOS CULTOS AFRO BRAS    30071810 000137
10231987175000168916200163100    000018157                    000181570000000000000109                     I0118157     30071800000000035003410000017N070518104700000000000103007180000000000000000000000000000000000000000100001942477759VILMA MARIA FARIA                       RUA CINQUENTA E SEIS, 473 QUADRA 50     SEPETIBA - R23520660RIO DE JANEIRO RJUNIAO UMB DOS CULTOS AFRO BRAS    30071810 000138
10231987175000168916200163100    000018156                    000181560000000000000109                     I0118156     30071800000000035003410000017N070518104700000000000103007180000000000000000000000000000000000000000100009507261761RODRIGO FELIX DA SILVA                  RUA GENERAL PINTO AMANDO, 231 APTO 302  HONORIO GURG21511330RIO DE JANEIRO RJUNIAO UMB DOS CULTOS AFRO BRAS    30071810 000139
10231987175000168916200163100    000018155                    000181550000000000000109                     I0118155     30071800000000035003410000017N070518104700000000000103007180000000000000000000000000000000000000000200000000008849ANDREIA DANGELA DE ANDRADE LIM          RUA BORGES MONTEIRO, 100                HIGIENOPOLIS21051460RIO DE JANEIRO RJUNIAO UMB DOS CULTOS AFRO BRAS    30071810 000140
10231987175000168916200163100    000018154                    000181540000000000000109                     I0118154     30071800000000035003410000017N070518104700000000000103007180000000000000000000000000000000000000000100003535090784SOLANGE PEREIRA DA SILVA                RUA MANUEL MIRANDA, 226                 ENGENHO NOVO20950300RIO DE JANEIRO RJUNIAO UMB DOS CULTOS AFRO BRAS    30071810 000141
10231987175000168916200163100    000018153                    000181530000000000000109                     I0118153     30071800000000035003410000017N070518104700000000000103007180000000000000000000000000000000000000000100038719444753JOAQUIM ROBERTO TRINDADE MONTE          RUA TAQUARI N 192 CASA 2                BRAS DE PINA21215540RIO DE JANEIRO RJUNIAO UMB DOS CULTOS AFRO BRAS    30071810 000142
10231987175000168916200163100    000018152                    000181520000000000000109                     I0118152     30071800000000035003410000017N070518104700000000000103007180000000000000000000000000000000000000000100072879321753ANA MARIA AGUIAR FERREIRA               RUA BOLIVAR CARVALHO, LOTE 7 QUADRA 46 CJARDIM METRO25575270SAO JOAO DE MERRJUNIAO UMB DOS CULTOS AFRO BRAS    30071810 000143
10231987175000168916200163100    000018151                    000181510000000000000109                     I0118151     30071800000000035003410000017N070518104700000000000103007180000000000000000000000000000000000000000100011193274745WELINGTON PEDRO DOS SANTOS GOM          RUA ARAUJO ROZO, 305 FUNDOS             ANCHIETA - R21635100RIO DE JANEIRO RJUNIAO UMB DOS CULTOS AFRO BRAS    30071810 000144
10231987175000168916200163100    000018150                    000181500000000000000109                     I0118150     30071800000000035003410000017N070518104700000000000103007180000000000000000000000000000000000000000100099025078753EVA DE OLIVEIRA LOPES                   ESTRADA SANTO ANTONIO Nº 8             CARTA ANISTI26455280RIO DE JANEIRO RJUNIAO UMB DOS CULTOS AFRO BRAS    30071810 000145
10231987175000168916200163100    000018149                    000181490000000000000109                     I0118149     30071800000000035003410000017N070518104700000000000103007180000000000000000000000000000000000000000100067053424715HELENA DE FATIMA MENDES MARQUE          RUA IRANI, 182                          PENHA - RJ  21020200RIO DE JANEIRO RJUNIAO UMB DOS CULTOS AFRO BRAS    30071810 000146
10231987175000168916200163100    000018148                    000181480000000000000109                     I0118148     30071800000000035003410000017N070518104700000000000103007180000000000000000000000000000000000000000100080499306724ANA CLAUDIA DE SOUZA RODRIGUES          RUA CRAVEIRO DE SA,183                  PARADA DE LU21250490RIO DE JANEIRO RJUNIAO UMB DOS CULTOS AFRO BRAS    30071810 000147
10231987175000168916200163100    000018147                    000181470000000000000109                     I0118147     30071800000000035003410000017N070518104700000000000103007180000000000000000000000000000000000000000100002181028796EMERSON DIAS DA COSTA                   RUA PARA, LOTE 10 QUADRA 31             VALE DAS MAN26175370BELFORD ROXO   RJUNIAO UMB DOS CULTOS AFRO BRAS    30071810 000148
10231987175000168916200163100    000018146                    000181460000000000000109                     I0118146     30071800000000035003410000017N070518104700000000000103007180000000000000000000000000000000000000000100008016237746RAFAEL GRACA PEREIRA                    ESTRADA DA COVANCA, 360 CASA            TANQUE - JAC22735020RIO DE JANEIRO RJUNIAO UMB DOS CULTOS AFRO BRAS    30071810 000149
10231987175000168916200163100    000018145                    000181450000000000000109                     I0118145     30071800000000035003410000017N070518104700000000000103007180000000000000000000000000000000000000000100089826930768MARIA DAS DORES SILVA                   RUA JORDAO, 805 CASA 40                 TANQUE - RIO22725549RIO DE JANEIRO RJUNIAO UMB DOS CULTOS AFRO BRAS    30071810 000150
10231987175000168916200163100    000018144                    000181440000000000000109                     I0118144     30071800000000035003410000017N070518104700000000000103007180000000000000000000000000000000000000000100050534173772IARA FRANCISCO                          RUA BARAO DE MELGACO, 279 FUNDOS        CORDOVIL - R21250320RIO DE JANEIRO RJUNIAO UMB DOS CULTOS AFRO BRAS    30071810 000151
10231987175000168916200163100    000018143                    000181430000000000000109                     I0118143     30071800000000035003410000017N070518104700000000000103007180000000000000000000000000000000000000000200000000008601CARLOS ALBERTO PORTO LEAL               RUA FOSCA, 55                           POSSE - NOVA26020015NOVA IGUACU    RJUNIAO UMB DOS CULTOS AFRO BRAS    30071810 000152
10231987175000168916200163100    000018142                    000181420000000000000109                     I0118142     30071800000000035003410000017N070518104700000000000103007180000000000000000000000000000000000000000100007650422747SIDNEI DO VALE FELISBERTO               RUA DESEMBARGADOR MACHADO GUIMARAES, 90 JARDIM TROPI26011110NOVA IGUACU    RJUNIAO UMB DOS CULTOS AFRO BRAS    30071810 000153
10231987175000168916200163100    000018141                    000181410000000000000109                     I0118141     30071800000000035003410000017N070518104700000000000103007180000000000000000000000000000000000000000100076658961700BEATRIZ DIAS DO NASCIMENTO              RUA SAO BRUNO N 55 APT 301              PENHA - RIO 21021160RIO DE JANEIRO RJUNIAO UMB DOS CULTOS AFRO BRAS    30071810 000154
10231987175000168916200163100    000018140                    000181400000000000000109                     I0118140     30071800000000035003410000017N070518104700000000000103007180000000000000000000000000000000000000000100036257869749IRANI DA SILVA CORREA                   RUA JATAIZINHO, 11 - JARDIM ORIENTAL    SENADOR VASC23012170RIO DE JANEIRO RJUNIAO UMB DOS CULTOS AFRO BRAS    30071810 000155
10231987175000168916200163100    000018139                    000181390000000000000109                     I0118139     30071800000000035003410000017N070518104700000000000103007180000000000000000000000000000000000000000100062783203715SORAYA BARROS PINHEIRO                  RUA SANTOS TITARA, 45 APTO 115          TODOS SANTOS20735240RIO DE JANEIRO RJUNIAO UMB DOS CULTOS AFRO BRAS    30071810 000156
10231987175000168916200163100    000018138                    000181380000000000000109                     I0118138     30071800000000035003410000017N070518104700000000000103007180000000000000000000000000000000000000000100001457331730MIRIAN ANSELMO DE SOUZA SANTOS          RUA CRISTIANO OTONI, LT 25 QD 1         ALMERINDA - 24740004SAO GONCALO    RJUNIAO UMB DOS CULTOS AFRO BRAS    30071810 000157
10231987175000168916200163100    000018137                    000181370000000000000109                     I0118137     30071800000000035003410000017N070518104700000000000103007180000000000000000000000000000000000000000100050775561720LEANDRO MECENAS DA CUNHA                RUA GUATOS N 34                         PARQUE SAO C26051640NOVA IGUACU    RJUNIAO UMB DOS CULTOS AFRO BRAS    30071810 000158
10231987175000168916200163100    000018136                    000181360000000000000109                     I0118136     30071800000000035003410000017N070518104700000000000103007180000000000000000000000000000000000000000100045619581772EDELZUITA PESSOA DA SILVA               RUA DONA JULIETA N 55 - MIGUEL COUTO    MIGUEL COUTO26147160NOVA IGUACU    RJUNIAO UMB DOS CULTOS AFRO BRAS    30071810 000159
10231987175000168916200163100    000018135                    000181350000000000000109                     I0118135     30071800000000035003410000017N070518104700000000000103007180000000000000000000000000000000000000000100002603000713DEBORA DOS SANTOS GOES                  O MESMO                                 O MESMO     25268240DUQUE DE CAXIASRJUNIAO UMB DOS CULTOS AFRO BRAS    30071810 000160
10231987175000168916200163100    000018134                    000181340000000000000109                     I0118134     30071800000000035003410000017N070518104700000000000103007180000000000000000000000000000000000000000100084703741768LINDALVA PEREIRA DE SOUZA               ESTRADA BARRO VERMELHO, 1366            ROCHA MIRAND21540499RIO DE JANEIRO RJUNIAO UMB DOS CULTOS AFRO BRAS    30071810 000161
10231987175000168916200163100    000018133                    000181330000000000000109                     I0118133     30071800000000035003410000017N070518104700000000000103007180000000000000000000000000000000000000000100007295283757DULCE DOS SANTOS MONTEIRO               AVENIDA ESTACIO DE SA LOTE 32 QUADRA 17 PARQUE NOVO 25585000SAO JOAO DE MERRJUNIAO UMB DOS CULTOS AFRO BRAS    30071810 000162
10231987175000168916200163100    000018132                    000181320000000000000109                     I0118132     30071800000000035003410000017N070518104700000000000103007180000000000000000000000000000000000000000100099272946700MARCOS ANTONIO DA SILVA                 RUA PIACAVA N 100                       VILA MARILIA26040210NOVA IGUACU    RJUNIAO UMB DOS CULTOS AFRO BRAS    30071810 000163
10231987175000168916200163100    000018131                    000181310000000000000109                     I0118131     30071800000000035003410000017N070518104700000000000103007180000000000000000000000000000000000000000100009400587740PAULO JORGE DA SILVA ABDALA             RUA PIRATININGA, LOTE 1 QUADRA 8        PQUE SAO BER26165435BELFORD ROXO   RJUNIAO UMB DOS CULTOS AFRO BRAS    30071810 000164
10231987175000168916200163100    000018130                    000181300000000000000109                     I0118130     30071800000000035003410000017N070518104700000000000103007180000000000000000000000000000000000000000100046180303720ALANIR SOARES DA SILVA                  RUA QUATORZE, LOTE 14 QUADRA 32         SANTA CRUZ -23520292RIO DE JANEIRO RJUNIAO UMB DOS CULTOS AFRO BRAS    30071810 000165
10231987175000168916200163100    000018129                    000181290000000000000109                     I0118129     30071800000000035003410000017N070518104700000000000103007180000000000000000000000000000000000000000100063553830778WILLIAM RODRIGUES                       ESTRADA OTEIRO SANTO, 1022 CASA 3       TAQUARA - RI22713169RIO DE JANEIRO RJUNIAO UMB DOS CULTOS AFRO BRAS    30071810 000166
10231987175000168916200163100    000018128                    000181280000000000000109                     I0118128     30071800000000035003410000017N070518104700000000000103007180000000000000000000000000000000000000000200000000008438MARIA LEOPOLDINO DE MATOS               RUA URUCURANA N 177                     BOA ESPERANC26143140NOVA IGUACU    RJUNIAO UMB DOS CULTOS AFRO BRAS    30071810 000167
10231987175000168916200163100    000018127                    000181270000000000000109                     I0118127     30071800000000035003410000017N070518104700000000000103007180000000000000000000000000000000000000000200000000008430ALESSANDRO SIQUEIRA ALVES               RUA CARLOTA, 241                        VILA OMEGA -26053350NOVA IGUACU    RJUNIAO UMB DOS CULTOS AFRO BRAS    30071810 000168
10231987175000168916200163100    000018126                    000181260000000000000109                     I0118126     30071800000000035003410000017N070518104700000000000103007180000000000000000000000000000000000000000100007485965778GRACIETE LEAO TANGUA                    RUA ROBERTO RANGEL LIMA LOTE 16 QUADRA GMAURI - PIAB25915000MAGE           RJUNIAO UMB DOS CULTOS AFRO BRAS    30071810 000169
10231987175000168916200163100    000018125                    000181250000000000000109                     I0118125     30071800000000035003410000017N070518104700000000000103007180000000000000000000000000000000000000000100038370999700JULIO ALEXANDRE FERREIRA                RUA BARAO DE JACUI, 254 CASA 16 FUNDOS  OSWALDO CRUZ21550310RIO DE JANEIRO RJUNIAO UMB DOS CULTOS AFRO BRAS    30071810 000170
10231987175000168916200163100    000018124                    000181240000000000000109                     I0118124     30071800000000035003410000017N070518104700000000000103007180000000000000000000000000000000000000000100001934622737ZENY MIRANDA DE SOUZA                   RUA ADRIANA, 63 - RECANTO SANTO ANTONIO SANTA RITA -26051130NOVA IGUACU    RJUNIAO UMB DOS CULTOS AFRO BRAS    30071810 000171
10231987175000168916200163100    000018123                    000181230000000000000109                     I0118123     30071800000000035003410000017N070518104700000000000103007180000000000000000000000000000000000000000100000681004770ESPEDITA NUNES DA SILVA                 AVENIDA CASTELO BRANCO, LOTE 3 QUADRA 83PAQ.ELDORADO25243570DUQUE DE CAXIASRJUNIAO UMB DOS CULTOS AFRO BRAS    30071810 000172
10231987175000168916200163100    000018122                    000181220000000000000109                     I0118122     30071800000000035003410000017N070518104700000000000103007180000000000000000000000000000000000000000100000382904729EMERSON DOS SANTOS FIDELIS              RUA SEVERINO SANTOS, LOTE 20 QUADRA P   SARACURUNA -25212668DUQUE DE CAXIASRJUNIAO UMB DOS CULTOS AFRO BRAS    30071810 000173
10231987175000168916200163100    000018121                    000181210000000000000109                     I0118121     30071800000000035003410000017N070518104700000000000103007180000000000000000000000000000000000000000100062792920700LUIZ CESAR DE OLIVEIRA                  RUA PEREIRA DE FIGUEIREDO, 627          OSWALDO CRUZ21340030RIO DE JANEIRO RJUNIAO UMB DOS CULTOS AFRO BRAS    30071810 000174
10231987175000168916200163100    000018120                    000181200000000000000109                     I0118120     30071800000000035003410000017N070518104700000000000103007180000000000000000000000000000000000000000100002978000783FABIO PINTO MANTUANO                    LAURA MARIA PINTO MANTUANO - MAE        O MESMO     24900000MARICA         RJUNIAO UMB DOS CULTOS AFRO BRAS    30071810 000175
10231987175000168916200163100    000018119                    000181190000000000000109                     I0118119     30071800000000035003410000017N070518104700000000000103007180000000000000000000000000000000000000000200000000004475POJUCAM LOPES TOLEDO                    RUA LUIS CAPUTI, 469                    CENTRO -VASS27700000VASSOURAS      RJUNIAO UMB DOS CULTOS AFRO BRAS    30071810 000176
10231987175000168916200163100    000018118                    000181180000000000000109                     I0118118     30071800000000035003410000017N070518104700000000000103007180000000000000000000000000000000000000000100001117379744VERA LUCIA SOUZA COUTO                  RUA RUDY ALBERTO, 868 - IMPERADOR       MAUA - MAGE 25900000MAGE           RJUNIAO UMB DOS CULTOS AFRO BRAS    30071810 000177
10231987175000168916200163100    000018117                    000181170000000000000109                     I0118117     30071800000000035003410000017N070518104700000000000103007180000000000000000000000000000000000000000200000000008299EMANUELA DE OLIVEIRA CRUZ ROSA          O MESMO                                 O MESMO     25260230DUQUE DE CAXIASRJUNIAO UMB DOS CULTOS AFRO BRAS    30071810 000178
10231987175000168916200163100    000018116                    000181160000000000000109                     I0118116     30071800000000035003410000017N070518104700000000000103007180000000000000000000000000000000000000000200000000008294MARIA ALICE MANOEL DO VALE              RUA B LOTE 9 QUADRA 3 - JARDIM MARAMBAIAJARDIM MARAM24800000ITABORAI       RJUNIAO UMB DOS CULTOS AFRO BRAS    30071810 000179
10231987175000168916200163100    000018115                    000181150000000000000109                     I0118115     30071800000000035003410000017N070518104700000000000103007180000000000000000000000000000000000000000100081051387787ROSA AMELIA COSENZA                     RUA MARIA DA GLORIA BALTAR N 48         NOVA CIDADE 26535290NILOPOLIS      RJUNIAO UMB DOS CULTOS AFRO BRAS    30071810 000180
10231987175000168916200163100    000018114                    000181140000000000000109                     I0118114     30071800000000035003410000017N070518104700000000000103007180000000000000000000000000000000000000000100004501217715JOSE DIOMEDES DO PATROCINIO NE          RUA DOUTOR LAUREANO N 250 - VILA SAO LUIVILA SAO LUI25060220DUQUE DE CAXIASRJUNIAO UMB DOS CULTOS AFRO BRAS    30071810 000181
10231987175000168916200163100    000018113                    000181130000000000000109                     I0118113     30071800000000035003410000017N070518104700000000000103007180000000000000000000000000000000000000000100004753333736ELAINE DOS SANTOS FONTES ARAUJ          O MESMO                                 O MESMO     21775090RIO DE JANEIRO RJUNIAO UMB DOS CULTOS AFRO BRAS    30071810 000182
10231987175000168916200163100    000018112                    000181120000000000000109                     I0118112     30071800000000035003410000017N070518104700000000000103007180000000000000000000000000000000000000000100007342538779DAVID GARDINA FERREIRA LUCIO            O MESMO                                 O MESMO     25550531SAO JOAO DE MERRJUNIAO UMB DOS CULTOS AFRO BRAS    30071810 000183
10231987175000168916200163100    000018111                    000181110000000000000109                     I0118111     30071800000000035003410000017N070518104700000000000103007180000000000000000000000000000000000000000100003316779701WALLACE SILVA SOARES                    RUA QUINZE DE NOVEMBRO LOTE 2 QUADRA N CSARACURUNA -25212690DUQUE DE CAXIASRJUNIAO UMB DOS CULTOS AFRO BRAS    30071810 000184
10231987175000168916200163100    000018110                    000181100000000000000109                     I0118110     30071800000000035003410000017N070518104700000000000103007180000000000000000000000000000000000000000100068506589720MARILDA TEREZA DA SILVA                 O MESMO                                 O MESMO     26327240QUEIMADOS      RJUNIAO UMB DOS CULTOS AFRO BRAS    30071810 000185
10231987175000168916200163100    000018109                    000181090000000000000109                     I0118109     30071800000000035003410000017N070518104700000000000103007180000000000000000000000000000000000000000100027686205720DENNIS CLARE                            RUA: RATICLIFF                          RIACHUELO   20950170RIO DE JANEIRO RJUNIAO UMB DOS CULTOS AFRO BRAS    30071810 000186
10231987175000168916200163100    000018108                    000181080000000000000109                     I0118108     30071800000000035003410000017N070518104700000000000103007180000000000000000000000000000000000000000100064949559753CREUZA LEAL COIMBRA                     O MESMO                                 O MESMO     25570393SAO JOAO DE MERRJUNIAO UMB DOS CULTOS AFRO BRAS    30071810 000187
10231987175000168916200163100    000018107                    000181070000000000000109                     I0118107     30071800000000035003410000017N070518104700000000000103007180000000000000000000000000000000000000000100007972604711ADRIANA TAVARES DA CONCEICAO            O MESMO                                 O MESMO     22723155RIO DE JANEIRO RJUNIAO UMB DOS CULTOS AFRO BRAS    30071810 000188
10231987175000168916200163100    000018106                    000181060000000000000109                     I0118106     30071800000000035003410000017N070518104700000000000103007180000000000000000000000000000000000000000100036386812700VICENCO GEARDINA NETO                   O MESMO                                 O MESMO     26061070NOVA IGUACU    RJUNIAO UMB DOS CULTOS AFRO BRAS    30071810 000189
10231987175000168916200163100    000018105                    000181050000000000000109                     I0118105     30071800000000035003410000017N070518104700000000000103007180000000000000000000000000000000000000000100003027226703MARCIO ALVES DOS SANTOS                 RUA ESTUDANTE ELIANE CASTANHEIRA N 874  CENTRO - SAO25510242SAO JOAO DE MERRJUNIAO UMB DOS CULTOS AFRO BRAS    30071810 000190
10231987175000168916200163100    000018104                    000181040000000000000109                     I0118104     30071800000000035003410000017N070518104700000000000103007180000000000000000000000000000000000000000100093971087787SUELY DE CASSIA NEVES DA SILVA          RUA ANTONIO JOAQUIM DA SILVA N 49       PARQUE BARRE25581140SAO JOAO DE MERRJUNIAO UMB DOS CULTOS AFRO BRAS    30071810 000191
10231987175000168916200163100    000018103                    000181030000000000000109                     I0118103     30071800000000035003410000017N070518104700000000000103007180000000000000000000000000000000000000000100081947712772MARIA COELHO DE LIMA                    O MESMO                                 O MESMO     25040070DUQUE DE CAXIASRJUNIAO UMB DOS CULTOS AFRO BRAS    30071810 000192
10231987175000168916200163100    000018102                    000181020000000000000109                     I0118102     30071800000000035003410000017N070518104700000000000103007180000000000000000000000000000000000000000100096252634700PATRICIA BORGES                         O MESMO                                 O MESMO     23530074RIO DE JANEIRO RJUNIAO UMB DOS CULTOS AFRO BRAS    30071810 000193
10231987175000168916200163100    000018101                    000181010000000000000109                     I0118101     30071800000000035003410000017N070518104700000000000103007180000000000000000000000000000000000000000100010083312790EDINALDO FELIX DA SILVA                 RUA POJUCA Nº 174 CASA 3               ZUMBI - ILHA21930180SEROPEDICA     RJUNIAO UMB DOS CULTOS AFRO BRAS    30071810 000194
10231987175000168916200163100    000018100                    000181000000000000000109                     I0118100     30071800000000035003410000017N070518104700000000000103007180000000000000000000000000000000000000000100080295576715DOLORES DAS GRACAS ADRIANO DE           RUA SOLDADO PRIM CANES, QUADRA 198 LOTE VILA MAR - G23025420GUARATIBA      RJUNIAO UMB DOS CULTOS AFRO BRAS    30071810 000195
10231987175000168916200163100    000018099                    000180990000000000000109                     I0118099     30071800000000035003410000017N070518104700000000000103007180000000000000000000000000000000000000000200000000004184CARLOS ALBERTO DA SILVA SANTOS          AVENIDA MARIA DE SENA MOREIRA, 218      INCOFINDENCI26085060RIO DE JANEIRO RJUNIAO UMB DOS CULTOS AFRO BRAS    30071810 000196
10231987175000168916200163100    000018098                    000180980000000000000109                     I0118098     30071800000000035003410000017N070518104700000000000103007180000000000000000000000000000000000000000100001393165745MARCO AURELIO DE BARROS FARIAS          RUA AIROSA GALVAO, 44                   FONSECA - NI24120100NITEROI        RJUNIAO UMB DOS CULTOS AFRO BRAS    30071810 000197
10231987175000168916200163100    000018097                    000180970000000000000109                     I0118097     30071800000000035003410000017N070518104700000000000103007180000000000000000000000000000000000000000200000000004181LEANDRO HENRIQUE DA SILVA               RUA ALVARO LINS, LOTE 4 QUADRA M        PQ VITORIA -25045490DUQUE DE CAXIASRJUNIAO UMB DOS CULTOS AFRO BRAS    30071810 000198
10231987175000168916200163100    000018096                    000180960000000000000109                     I0118096     30071800000000035003410000017N070518104700000000000103007180000000000000000000000000000000000000000100077451953734VANDA NILDA DE ASSIS                    RUA: COELHO LISBOA Nº 168              OSVALDO CRUZ21340260RIO DE JANEIRIORJUNIAO UMB DOS CULTOS AFRO BRAS    30071810 000199
10231987175000168916200163100    000018095                    000180950000000000000109                     I0118095     30071800000000035003410000017N070518104700000000000103007180000000000000000000000000000000000000000100005415694730ALEX SANDRO DA SILVA BANDEIRA           RUA PAULO ROBERTO, 6                    PRAIA DE MAU25900000MAGE           RJUNIAO UMB DOS CULTOS AFRO BRAS    30071810 000200
10231987175000168916200163100    000018094                    000180940000000000000109                     I0118094     30071800000000035003410000017N070518104700000000000103007180000000000000000000000000000000000000000100013909038778MARIA DO CARMO SILVA DE MOURA           RUA SAO CARLOS, 75                      ESTACIO - RI20250052RIO DE JANEIRO RJUNIAO UMB DOS CULTOS AFRO BRAS    30071810 000201
10231987175000168916200163100    000018093                    000180930000000000000109                     I0118093     30071800000000035003410000017N070518104700000000000103007180000000000000000000000000000000000000000100082059403715SANDRA HELENA VILLAMOR MONTASS          RUA ARGOS, 693                          GUADALUPE   21660050RIO DE JANEIRO RJUNIAO UMB DOS CULTOS AFRO BRAS    30071810 000202
10231987175000168916200163100    000018092                    000180920000000000000109                     I0118092     30071800000000035003410000017N070518104700000000000103007180000000000000000000000000000000000000000100012948872898LUCILENE BARROS                         RUA DO PIANO 21                         CAMPOS ELISI25225218DUQUE DE CAXIASRJUNIAO UMB DOS CULTOS AFRO BRAS    30071810 000203
10231987175000168916200163100    000018091                    000180910000000000000109                     I0118091     30071800000000035003410000017N070518104700000000000103007180000000000000000000000000000000000000000100060407875700KATIA DE AZEVEDO FURTADO                RUA SOUZA PITANGA, 82                   THOMAS COELH21381230RIO DE JANEIRO RJUNIAO UMB DOS CULTOS AFRO BRAS    30071810 000204
10231987175000168916200163100    000018090                    000180900000000000000109                     I0118090     30071800000000035003410000017N070518104700000000000103007180000000000000000000000000000000000000000100088677079734MARIA APARECIDA MORAIS DOS SAN          RUA OLAVO GAMA, TRAVESSA F - PROJETADA BGUARATIBA - 23040400SEROPEDICA     RJUNIAO UMB DOS CULTOS AFRO BRAS    30071810 000205
10231987175000168916200163100    000018089                    000180890000000000000109                     I0118089     30071800000000035003410000017N070518104700000000000103007180000000000000000000000000000000000000000100067023711791EURIDES DOS SANTOS                      RUA CORONEL ALBERTO DE MELO, 47 CASA 1  AREIA BRANCA26112370BELFORD ROXO   RJUNIAO UMB DOS CULTOS AFRO BRAS    30071810 000206
10231987175000168916200163100    000018088                    000180880000000000000109                     I0118088     30071800000000035003410000017N070518104700000000000103007180000000000000000000000000000000000000000100051851229787MARTA DO NASCIMENTO CRISPINO            RUA LEONOR SARAMAGO, 89                 FONSECA - NI24120340NITEROI        RJUNIAO UMB DOS CULTOS AFRO BRAS    30071810 000207
10231987175000168916200163100    000018087                    000180870000000000000109                     I0118087     30071800000000035003410000017N070518104700000000000103007180000000000000000000000000000000000000000100000000004130MARIA ORLANDA ALVES BRAZ                RUA JOSE DE ARAUJO 633                  CAMPO ALEGRE26292008RIO DE JANEIRO RJUNIAO UMB DOS CULTOS AFRO BRAS    30071810 000208
10231987175000168916200163100    000018086                    000180860000000000000109                     I0118086     30071800000000035003410000017N070518104700000000000103007180000000000000000000000000000000000000000100077526694749FATIMA CRISTINA DA CUNHA PINHE          RUA TRAVESSA SANTO MAXIMO, 25           GUADALUPE - 21655780RIO DE JANEIRO RJUNIAO UMB DOS CULTOS AFRO BRAS    30071810 000209
10231987175000168916200163100    000018085                    000180850000000000000109                     I0118085     30071800000000035003410000017N070518104700000000000103007180000000000000000000000000000000000000000100000059525738MONICA SOARES MAGALHAES                 RUA: AMALIA Nº 117                     QUINTINO - R21380400RIO DE JANEIRO RJUNIAO UMB DOS CULTOS AFRO BRAS    30071810 000210
10231987175000168916200163100    000018084                    000180840000000000000109                     I0118084     30071800000000035003410000017N070518104700000000000103007180000000000000000000000000000000000000000100003987884720SAINT CLAIR MACHADO FERNANDES           RUA JACA, QUADRA 4 LOTE 14              PARQUE ESPER26173510BELFORD ROXO   RJUNIAO UMB DOS CULTOS AFRO BRAS    30071810 000211
10231987175000168916200163100    000018083                    000180830000000000000109                     I0118083     30071800000000035003410000017N070518104700000000000103007180000000000000000000000000000000000000000200000000004099CARLOS HENRIQUE LOPES ROSA              RUA ROSA MULLER, LOTE 3 CD 1 BLOCO 9 APTVILAR DOS TE25560355SAO JOAO DE MERRJUNIAO UMB DOS CULTOS AFRO BRAS    30071810 000212
10231987175000168916200163100    000018082                    000180820000000000000109                     I0118082     30071800000000035003410000017N070518104700000000000103007180000000000000000000000000000000000000000100066638682768VALERIA COELHO DA SILVA                 RUA DOUTOR ALFREDO BARCELOS, 381        OLARIA - RJ 21021421RIO DE JANEIRO RJUNIAO UMB DOS CULTOS AFRO BRAS    30071810 000213
10231987175000168916200163100    000018081                    000180810000000000000109                     I0118081     30071800000000035003410000017N070518104700000000000103007180000000000000000000000000000000000000000100078935806749MARIA DA CONCEICAO DOS SANTOS           RUA ESTRELA, 26                         VILA SAO MIG26088315NOVA IGUACU    RJUNIAO UMB DOS CULTOS AFRO BRAS    30071810 000214
10231987175000168916200163100    000018080                    000180800000000000000109                     I0118080     30071800000000035003410000017N070518104700000000000103007180000000000000000000000000000000000000000100061523003715MARIA EMILIA RIBEIRO VIEIRA DO          RUA EIMA, 132                           IRAJA - RJ  21220370RIO DE JANEIRO RJUNIAO UMB DOS CULTOS AFRO BRAS    30071810 000215
10231987175000168916200163100    000018079                    000180790000000000000109                     I0118079     30071800000000035003410000017N070518104700000000000103007180000000000000000000000000000000000000000100033382840715MARIA ALICE CONSTANCIO GOMES            RUA PALMARES, 39                        JARDIM PERNA26275310NOVA IGUACU    RJUNIAO UMB DOS CULTOS AFRO BRAS    30071810 000216
10231987175000168916200163100    000018078                    000180780000000000000109                     I0118078     30071800000000035003410000017N070518104700000000000103007180000000000000000000000000000000000000000200000000004033SANDRA REIS DOS SANTOS                  RUA BANGU, 197 - DOUTOR LAUREANO        DUQUE DE CAX25060180DUQUE DE CAXIASRJUNIAO UMB DOS CULTOS AFRO BRAS    30071810 000217
10231987175000168916200163100    000018077                    000180770000000000000109                     I0118077     30071800000000035003410000017N070518104700000000000103007180000000000000000000000000000000000000000100075750384772VERA LUCIA BORGES NAZARETH              RUA DA CAPITAL, 430                     MAUA - SAO F25930000MAGE           RJUNIAO UMB DOS CULTOS AFRO BRAS    30071810 000218
10231987175000168916200163100    000018076                    000180760000000000000109                     I0118076     30071800000000040003410000017N070518104700000000000103007180000000000000000000000000000000000000000100075531585772ROSANGELA PAULINA RODRIGUES             ESTRADA: DA GUARITA N 1581              CARMARI - NO26040010NOVA IGUACU    RJUNIAO UMB DOS CULTOS AFRO BRAS    30071810 000219
10231987175000168916200163100    000018075                    000180750000000000000109                     I0118075     30071800000000035003410000017N070518104700000000000103007180000000000000000000000000000000000000000100064431002715SERGIO MURILO ALVES PEREIRA             RUA ROCHA, LOTE 4 QUADRA 4 CASA 2       JARDIM BONIF25565161SAO JOAO DE MERRJUNIAO UMB DOS CULTOS AFRO BRAS    30071810 000220
10231987175000168916200163100    000018074                    000180740000000000000109                     I0118074     30071800000000035003410000017N070518104700000000000103007180000000000000000000000000000000000000000100088504794768FATIMA MARIA DE OLIVEIRA                RUA TELMA, 22                           CABUCU - JAR26291266NOVA IGUACU    RJUNIAO UMB DOS CULTOS AFRO BRAS    30071810 000221
10231987175000168916200163100    000018073                    000180730000000000000109                     I0118073     30071800000000035003410000017N070518104700000000000103007180000000000000000000000000000000000000000100025969153753MARIA EUNICE FRUCTUOSO MIGUEL           RUA: VIRGEM PEREGRINA Nº 81            PIEDADE - RI21381070RIO DE JANEIRO RJUNIAO UMB DOS CULTOS AFRO BRAS    30071810 000222
10231987175000168916200163100    000018072                    000180720000000000000109                     I0118072     30071800000000035003410000017N070518104700000000000103007180000000000000000000000000000000000000000100065138210700TANIA CRISTINA DOS SANTOS PERE          RUA: BOM JARDIM Nº 521                 GRAMACHO - D25035060DUQUE DE CAXIASRJUNIAO UMB DOS CULTOS AFRO BRAS    30071810 000223
10231987175000168916200163100    000018071                    000180710000000000000109                     I0118071     30071800000000035003410000017N070518104700000000000103007180000000000000000000000000000000000000000100007150949711SEVERINA BENVINDO FERREIRA              ESTRADA DO CALUNDU, LOTE 32 QUADRA 51   NOSSA SENHOR25040610DUQUE DE CAXIASRJUNIAO UMB DOS CULTOS AFRO BRAS    30071810 000224
10231987175000168916200163100    000018070                    000180700000000000000109                     I0118070     30071800000000025003410000017N070518104700000000000103007180000000000000000000000000000000000000000100052329160363NENI GOMES DE ALMEIDA                   RUA MARIA SANTANA FERNANDES, LOTE 8 QUADJARDIM ACACI23845250SEROPEDICA     RJUNIAO UMB DOS CULTOS AFRO BRAS    30071810 000225
10231987175000168916200163100    000018069                    000180690000000000000109                     I0118069     30071800000000035003410000017N070518104700000000000103007180000000000000000000000000000000000000000100054590604787VANDA PAIVA                             RUA LUIZ JACINTO, LOTE 3                EDEN - SAO J25535161SAO JOAO DE MERRJUNIAO UMB DOS CULTOS AFRO BRAS    30071810 000226
10231987175000168916200163100    000018068                    000180680000000000000109                     I0118068     30071800000000035003410000017N070518104700000000000103007180000000000000000000000000000000000000000100071056319709LAURECI DOS SANTOS                      RUA BERNARDO MONTEIRO, LOTE 7 QUADRA 157JD OLAVO BIL25025320DUQUE DE CAXIASRJUNIAO UMB DOS CULTOS AFRO BRAS    30071810 000227
10231987175000168916200163100    000018067                    000180670000000000000109                     I0118067     30071800000000035003410000017N070518104700000000000103007180000000000000000000000000000000000000000100059099747772EULINA LUCIA RODRIGUES DE SOUZ          RUA XAVIER DOS PASSAROS, 18 FUNDOS      PIEDADE - RJ20740330RIO DE JANEIRO RJUNIAO UMB DOS CULTOS AFRO BRAS    30071810 000228
10231987175000168916200163100    000018066                    000180660000000000000109                     I0118066     30071800000000035003410000017N070518104700000000000103007180000000000000000000000000000000000000000100009116311787ETELVINA SOUZA DUARTE                   RUA CAIABU, 137 APTO 403                IRAJA - RJ  21361230RIO DE JANEIRO RJUNIAO UMB DOS CULTOS AFRO BRAS    30071810 000229
10231987175000168916200163100    000018065                    000180650000000000000109                     I0118065     30071800000000035003410000017N070518104700000000000103007180000000000000000000000000000000000000000200000000004628RAQUEL RODRIGUES SOBRAL DANTAS          RUA CAPITAO COUTO MENEZES, 110          MADUREIRA - 21310200RIO DE JANEIRO RJUNIAO UMB DOS CULTOS AFRO BRAS    30071810 000230
10231987175000168916200163100    000018064                    000180640000000000000109                     I0118064     30071800000000035003410000017N070518104700000000000103007180000000000000000000000000000000000000000100003737351708TANIA PAULA DOS SANTOS                  RUA PREFEITO JOAO CARLOS VITAL, 80      SEPETIBA - R23540041RIO DE JANEIRO RJUNIAO UMB DOS CULTOS AFRO BRAS    30071810 000231
10231987175000168916200163100    000018063                    000180630000000000000109                     I0118063     30071800000000035003410000017N070518104700000000000103007180000000000000000000000000000000000000000100001057873705ADEMIR ANDRADE CUNHA                    RUA PACHECO DA ROCHA N 636              BENTO RIBEIR21555092RIO DE JANEIRO RJUNIAO UMB DOS CULTOS AFRO BRAS    30071810 000232
10231987175000168916200163100    000018062                    000180620000000000000109                     I0118062     30071800000000035003410000017N070518104700000000000103007180000000000000000000000000000000000000000100011208480758MARIA ANTONIA KIFFER CORREA             AVENIDA MARECHAL HERMES, 1060           VILA SAO LUI25065115DUQUE DE CAXIASRJUNIAO UMB DOS CULTOS AFRO BRAS    30071810 000233
10231987175000168916200163100    000018061                    000180610000000000000109                     I0118061     30071800000000035003410000017N070518104700000000000103007180000000000000000000000000000000000000000200000000004796HELENA ALVES BRAZ                       RUA JUTAI, LOTE 20 QUADRA 151           PERIQUITO - 25025290DUQUE DE CAXIASRJUNIAO UMB DOS CULTOS AFRO BRAS    30071810 000234
10231987175000168916200163100    000018060                    000180600000000000000109                     I0118060     30071800000000035003410000017N070518104700000000000103007180000000000000000000000000000000000000000100088469212753NEIDE CARVALHO D ANGELO                 RUA GENERAL TRAUMATURGO, LOTE 17 QUADRA VILA ROSARIO25040010DUQUE DE CAXIASRJUNIAO UMB DOS CULTOS AFRO BRAS    30071810 000235
10231987175000168916200163100    000018059                    000180590000000000000109                     I0118059     30071800000000035003410000017N070518104700000000000103007180000000000000000000000000000000000000000200000000004748IVAN SOUZA DIAS                         RUA CARICO, LOTE 27 QUADRA 15 A         JARDIM METRO25575050SAO JOAO DE MERRJUNIAO UMB DOS CULTOS AFRO BRAS    30071810 000236
10231987175000168916200163100    000018058                    000180580000000000000109                     I0118058     30071800000000035003410000017N070518104700000000000103007180000000000000000000000000000000000000000200000000004621NEUZA MARIA MACHADO DA SILVA            RUA AUGUSTO SERGIO BOTELHO, QUADRA 67 LOBARRO BRANCO25267124DUQUE DE CAXIASRJUNIAO UMB DOS CULTOS AFRO BRAS    30071810 000237
10231987175000168916200163100    000018057                    000180570000000000000109                     I0118057     30071800000000035003410000017N070518104700000000000103007180000000000000000000000000000000000000000100001798819732RITA MARIA VIANNA                       RUA IPAMERI, 236                        CORDOVIL - R21012175RIO DE JANEIRO RJUNIAO UMB DOS CULTOS AFRO BRAS    30071810 000238
10231987175000168916200163100    000018056                    000180560000000000000109                     I0118056     30071800000000035003410000017N070518104700000000000103007180000000000000000000000000000000000000000200000000004766EDINALVA MUNIZ VALENTIM                 AVENIDA RIO DE JANEIRO, 21              INCRA - SERO23850220SEROPEDICA     RJUNIAO UMB DOS CULTOS AFRO BRAS    30071810 000239
10231987175000168916200163100    000018055                    000180550000000000000109                     I0118055     30071800000000035003410000017N070518104700000000000103007180000000000000000000000000000000000000000100002912019702JONER BORGES BARCELOS                   RUA OITO, QUADRA 30 LOTE 8              NOVA CAMPINA25000000DUQUE DE CAXIASRJUNIAO UMB DOS CULTOS AFRO BRAS    30071810 000240
10231987175000168916200163100    000018054                    000180540000000000000109                     I0118054     30071800000000035003410000017N070518104700000000000103007180000000000000000000000000000000000000000100001637090765DEBORA VENTURA CESAR                    RUA DOS CONGREGADOS, 105 CASA 2         HELIOPOLIS  26123020RIO DE JANEIRO RJUNIAO UMB DOS CULTOS AFRO BRAS    30071810 000241
10231987175000168916200163100    000018053                    000180530000000000000109                     I0118053     30071800000000035003410000017N070518104700000000000103007180000000000000000000000000000000000000000100078815428704LUZINETE PINHO DE SA                    ESTRADA: MANOEL FERREIRA CAMPAR Nº 1311POSSE - NOVA26021060NOVA IGUACU    RJUNIAO UMB DOS CULTOS AFRO BRAS    30071810 000242
10231987175000168916200163100    000018052                    000180520000000000000109                     I0118052     30071800000000035003410000017N070518104700000000000103007180000000000000000000000000000000000000000100058446559749CELIA ISRAEL DE OLIVEIRA                RUA CARAVELAS, LOTE 42 QUADRA 77        DR. LAUREANO25051230DUQUE DE CAXIASRJUNIAO UMB DOS CULTOS AFRO BRAS    30071810 000243
10231987175000168916200163100    000018051                    000180510000000000000109                     I0118051     30071800000000035003410000017N070518104700000000000103007180000000000000000000000000000000000000000100001925108783HELENA MOREIRA PESSOA                   RUA CAPIVARA, LOTE 639 QUADRA 48        SANTA CRUZ D25260180DUQUE DE CAXIASRJUNIAO UMB DOS CULTOS AFRO BRAS    30071810 000244
10231987175000168916200163100    000018050                    000180500000000000000109                     I0118050     30071800000000035003410000017N070518104700000000000103007180000000000000000000000000000000000000000100000000003806INALVA LAZARO DRUMOND                   AVENIDA MARECHAL RONDON, 2117           RIACHUELO  -20950071RIO DE JANEIRO RJUNIAO UMB DOS CULTOS AFRO BRAS    30071810 000245
10231987175000168916200163100    000018049                    000180490000000000000109                     I0118049     30071800000000035003410000017N070518104700000000000103007180000000000000000000000000000000000000000100001783778806MARIA LUIZA FERREIRA GODINHO C          ESTRADA DO BOIUNA, 2620                 TAQUARA - JA22723018RIO DE JANEIRO RJUNIAO UMB DOS CULTOS AFRO BRAS    30071810 000246
10231987175000168916200163100    000018048                    000180480000000000000109                     I0118048     30071800000000035003410000017N070518104700000000000103007180000000000000000000000000000000000000000100000911446710NELI MONTEIRO DE CASTRO                 RUA ROMILDO Nº 139 - VAZ MARTINS       NOVA IGUACU 20051040RIO DE JANEIRO RJUNIAO UMB DOS CULTOS AFRO BRAS    30071810 000247
10231987175000168916200163100    000018047                    000180470000000000000109                     I0118047     30071800000000035003410000017N070518104700000000000103007180000000000000000000000000000000000000000100010058913700RAMON DO NASCIMENTO MANES               RUA LIGIA, 329                          OLARIA - RJ 21073280RIO DE JANEIRO RJUNIAO UMB DOS CULTOS AFRO BRAS    30071810 000248
10231987175000168916200163100    000018046                    000180460000000000000109                     I0118046     30071800000000035003410000017N070518104700000000000103007180000000000000000000000000000000000000000100005137259705CRISTINA DE OLIVEIRA DA SILVA           AVENIDA CAMPO MOURAO SN APARTAMENTO 102 JARDIM MARAV23031080CAMPO GRANDE   RJUNIAO UMB DOS CULTOS AFRO BRAS    30071810 000249
