01REMESSA01COBRANCA       817800093673        União Umb dos Cultos Afro Bra341BANCO ITAU SA  270918                                                                                                                                                                                                                                                                                                      000001
10231987175000168817800093673    000028282                    000282820000000000000109                     I0228282     30111800000000035003410000017N200818104700000000000103011180000000000000000000000000000000000000000100001346375771CRISTIANE MARIANO RAPELLO               ESTRADA ALBERTO TEIXEIRA CUNHA          NOSSA SENHOR26520070NILOPOLIS      RJUNIAO UMB DOS CULTOS AFRO BRAS    30111810 000002
10231987175000168817800093673    000027884                    000278840000000000000109                     I0227884     30111800000000035003410000017N200818104700000000000103011180000000000000000000000000000000000000000100005292156752MARCIO VALADARES DOS SANTOS             RUA SETUBAL                             CABUCU      21330560RIO DE JANEIRO RJUNIAO UMB DOS CULTOS AFRO BRAS    30111810 000003
10231987175000168817800093673    000027644                    000276440000000000000109                     I0227644     30111800000000035003410000017N200818104700000000000103011180000000000000000000000000000000000000000100000692299700JORGE LUIZ LIMA BASTOS                  RUA PLANALTINA                          REALENGO    21760160RIO DE JANEIRO RJUNIAO UMB DOS CULTOS AFRO BRAS    30111810 000004
10231987175000168817800093673    000027055                    000270550000000000000109                     I3427055     30091800000000040003410000017N200818104700000000000103009180000000000000000000000000000000000000000100009572644700FABIO DE SOUZA BARBOSA                  RUA DA ESPERANCA                        JARDIM PARAI00000000RIO DE JANEIRO RJUNIAO UMB DOS CULTOS AFRO BRAS    30091810 000005
10231987175000168817800093673    000026860                    000268600000000000000109                     I0226860     30091800000000035003410000017N200818104700000000000103009180000000000000000000000000000000000000000100001346375771CRISTIANE MARIANO RAPELLO               ESTRADA ALBERTO TEIXEIRA CUNHA          NOSSA SENHOR26520070NILOPOLIS      RJUNIAO UMB DOS CULTOS AFRO BRAS    30091810 000006
10231987175000168817800093673    000026853                    000268530000000000000109                     I0226853     30091800000000035003410000017N200818104700000000000103009180000000000000000000000000000000000000000100068373570772RONILCE CAMILO DA SILVA                 RUA RUBY ALBERTORIA                     GERENCIANO  26061155NOVA IGUACU    RJUNIAO UMB DOS CULTOS AFRO BRAS    30091810 000007
10231987175000168817800093673    000026604                    000266040000000000000109                     I3426604     30091800000000035003410000017N200818104700000000000103009180000000000000000000000000000000000000000100060894628704TERESINHA DE JESUS BIL RAMOS T          RUA GENERAL MIGUEL FERREIRA             TAQUARA     22770590RIO DE JANEIRO RJUNIAO UMB DOS CULTOS AFRO BRAS    30091810 000008
10231987175000168817800093673    000026465                    000264650000000000000109                     I0226465     30091800000000035003410000017N200818104700000000000103009180000000000000000000000000000000000000000100005292156752MARCIO VALADARES DOS SANTOS             RUA SETUBAL                             CABUCU      21330560RIO DE JANEIRO RJUNIAO UMB DOS CULTOS AFRO BRAS    30091810 000009
10231987175000168817800093673    000026322                    000263220000000000000109                     I0226322     30091800000000035003410000017N200818104700000000000103009180000000000000000000000000000000000000000100075745658720ELIZIETE COIMBRA DE FRANCA              RUA SAO LOURENCO                        SANTA RITA  26050630NOVA IGUACU    RJUNIAO UMB DOS CULTOS AFRO BRAS    30091810 000010
10231987175000168817800093673    000026226                    000262260000000000000109                     I0226226     30091800000000035003410000017N200818104700000000000103009180000000000000000000000000000000000000000100000692299700JORGE LUIZ LIMA BASTOS                  RUA PLANALTINA                          REALENGO    21760160RIO DE JANEIRO RJUNIAO UMB DOS CULTOS AFRO BRAS    30091810 000011
10231987175000168817800093673    000026052                    000260520000000000000109                     I0226052     30091800000000035003410000017N200818104700000000000103009180000000000000000000000000000000000000000100003027226703MARCIO ALVES DOS SANTOS                 RUA ESTUDANTE ELIANE CASTANHEIRA        CENTRO      25510242SAO JOAO DE MERRJUNIAO UMB DOS CULTOS AFRO BRAS    30091810 000012
10231987175000168817800093673    000025444                    000254440000000000000109                     I0225444     30101800000000035003410000017N200818104700000000000103010180000000000000000000000000000000000000000100001346375771CRISTIANE MARIANO RAPELLO               ESTRADA ALBERTO TEIXEIRA CUNHA          NOSSA SENHOR26520070NILOPOLIS      RJUNIAO UMB DOS CULTOS AFRO BRAS    30101810 000013
10231987175000168817800093673    000025047                    000250470000000000000109                     I0225047     30101800000000035003410000017N200818104700000000000103010180000000000000000000000000000000000000000100005292156752MARCIO VALADARES DOS SANTOS             RUA SETUBAL                             CABUCU      21330560RIO DE JANEIRO RJUNIAO UMB DOS CULTOS AFRO BRAS    30101810 000014
10231987175000168817800093673    000024807                    000248070000000000000109                     I0224807     30101800000000035003410000017N200818104700000000000103010180000000000000000000000000000000000000000100000692299700JORGE LUIZ LIMA BASTOS                  RUA PLANALTINA                          REALENGO    21760160RIO DE JANEIRO RJUNIAO UMB DOS CULTOS AFRO BRAS    30101810 000015
9                                                                                                                                                                                                                                                                                                                                                                                                         000016
