01REMESSA01COBRANCA       916200163100        União Umb dos Cultos Afro Bra341BANCO ITAU SA  210319                                                                                                                                                                                                                                                                                                      000001
10231987175000168916200163100    000044635                    000446350000000000000109                     I0244635     30061900000000040003410000017N130319104700000000000103006190000000000000000000000000000000000000000100001253277737MARIA JOSE DANTAS MOREIRA               RUA: SETE DE JUNHO N 134,               PRAIA DE MAU25925732MAGE           RJUNIAO UMB DOS CULTOS AFRO BRAS    30061910 000002
10231987175000168916200163100    000044349                    000443490000000000000109                     I0244349     30061900000000040003410000017N130319104700000000000103006190000000000000000000000000000000000000000100039655172791JOSE CARLOS COSTA                       RUA HERTAN 25, PRAIA DO IMPERADOR       MAUA        25900000MAGE           RJUNIAO UMB DOS CULTOS AFRO BRAS    30061910 000003
10231987175000168916200163100    000044315                    000443150000000000000109                     I0244315     30061900000000040003410000017N130319104700000000000103006190000000000000000000000000000000000000000100003598384726ROSANE QUIRINO DA SILVA                 RUA MANUEL RODRIGUES FONTINHAN 119,     NOVA CIDADE 26535270NILOPOLIS      RJUNIAO UMB DOS CULTOS AFRO BRAS    30061910 000004
10231987175000168916200163100    000044120                    000441200000000000000109                     I0244120     30061900000000040003410000017N130319104700000000000103006190000000000000000000000000000000000000000100076862062700MARIO LUIS DE SOUZA                     RUA: FERREIRA CHAVES N 139, CASA 2      VILA DA PENH21221090RIO DE JANEIRO RJUNIAO UMB DOS CULTOS AFRO BRAS    30061910 000005
10231987175000168916200163100    000043901                    000439010000000000000109                     I0243901     30061900000000040003410000017N130319104700000000000103006190000000000000000000000000000000000000000100002387294785ANDREA CONDOR GUIMARAES PINHEI          RUA SEBASTIAO DE SOUZA GOUVEAN 41,      IRAJA       21235410RIO DE JANEIRO RJUNIAO UMB DOS CULTOS AFRO BRAS    30061910 000006
10231987175000168916200163100    000043671                    000436710000000000000109                     I0243671     30061900000000040003410000017N130319104700000000000103006190000000000000000000000000000000000000000100079310940778JAQUELINE CRISTIANE MARTINS             RUA CAMBUIN 92, APARTAMENTO  2202       FREGUESIA (I21911130RIO DE JANEIRO RJUNIAO UMB DOS CULTOS AFRO BRAS    30061910 000007
10231987175000168916200163100    000042982                    000429820000000000000109                     I0242982     30051900000000040003410000017N130319104700000000000103005190000000000000000000000000000000000000000100001253277737MARIA JOSE DANTAS MOREIRA               RUA: SETE DE JUNHO N 134,               PRAIA DE MAU25925732MAGE           RJUNIAO UMB DOS CULTOS AFRO BRAS    30051910 000008
10231987175000168916200163100    000042701                    000427010000000000000109                     I0242701     30051900000000040003410000017N130319104700000000000103005190000000000000000000000000000000000000000100039655172791JOSE CARLOS COSTA                       RUA HERTAN 25, PRAIA DO IMPERADOR       MAUA        25900000MAGE           RJUNIAO UMB DOS CULTOS AFRO BRAS    30051910 000009
10231987175000168916200163100    000042667                    000426670000000000000109                     I0242667     30051900000000040003410000017N130319104700000000000103005190000000000000000000000000000000000000000100003598384726ROSANE QUIRINO DA SILVA                 RUA MANUEL RODRIGUES FONTINHAN 119,     NOVA CIDADE 26535270NILOPOLIS      RJUNIAO UMB DOS CULTOS AFRO BRAS    30051910 000010
10231987175000168916200163100    000042474                    000424740000000000000109                     I0242474     30051900000000040003410000017N130319104700000000000103005190000000000000000000000000000000000000000100076862062700MARIO LUIS DE SOUZA                     RUA: FERREIRA CHAVES N 139, CASA 2      VILA DA PENH21221090RIO DE JANEIRO RJUNIAO UMB DOS CULTOS AFRO BRAS    30051910 000011
10231987175000168916200163100    000042256                    000422560000000000000109                     I0242256     30051900000000040003410000017N130319104700000000000103005190000000000000000000000000000000000000000100002387294785ANDREA CONDOR GUIMARAES PINHEI          RUA SEBASTIAO DE SOUZA GOUVEAN 41,      IRAJA       21235410RIO DE JANEIRO RJUNIAO UMB DOS CULTOS AFRO BRAS    30051910 000012
10231987175000168916200163100    000042027                    000420270000000000000109                     I0242027     30051900000000040003410000017N130319104700000000000103005190000000000000000000000000000000000000000100079310940778JAQUELINE CRISTIANE MARTINS             RUA CAMBUIN 92, APARTAMENTO  2202       FREGUESIA (I21911130RIO DE JANEIRO RJUNIAO UMB DOS CULTOS AFRO BRAS    30051910 000013
10231987175000168916200163100    000041403                    000414030000000000000109                     I0241403     30041900000000040003410000017N120319104700000000000103004190000000000000000000000000000000000000000100001105664759NANCI GOMES BORGES PINTO                RUA: ORLANDO FRANCISCO JUNIORN 0, LOTE 2CAMPO LINDO 23898435SEROPEDICA     RJUNIAO UMB DOS CULTOS AFRO BRAS    30041910 000014
10231987175000168916200163100    000041062                    000410620000000000000109                     I0241062     30041900000000040003410000017N120319104700000000000103004190000000000000000000000000000000000000000100039655172791JOSE CARLOS COSTA                       RUA HERTAN 25, PRAIA DO IMPERADOR       MAUA        25900000MAGE           RJUNIAO UMB DOS CULTOS AFRO BRAS    30041910 000015
10231987175000168916200163100    000041029                    000410290000000000000109                     I0241029     30041900000000040003410000017N120319104700000000000103004190000000000000000000000000000000000000000100003598384726ROSANE QUIRINO DA SILVA                 RUA MANUEL RODRIGUES FONTINHAN 119,     NOVA CIDADE 26535270NILOPOLIS      RJUNIAO UMB DOS CULTOS AFRO BRAS    30041910 000016
10231987175000168916200163100    000040837                    000408370000000000000109                     I0240837     30041900000000040003410000017N120319104700000000000103004190000000000000000000000000000000000000000100076862062700MARIO LUIS DE SOUZA                     RUA: FERREIRA CHAVES N 139, CASA 2      VILA DA PENH21221090RIO DE JANEIRO RJUNIAO UMB DOS CULTOS AFRO BRAS    30041910 000017
10231987175000168916200163100    000040619                    000406190000000000000109                     I0240619     30041900000000040003410000017N120319104700000000000103004190000000000000000000000000000000000000000100002387294785ANDREA CONDOR GUIMARAES PINHEI          RUA SEBASTIAO DE SOUZA GOUVEAN 41,      IRAJA       21235410RIO DE JANEIRO RJUNIAO UMB DOS CULTOS AFRO BRAS    30041910 000018
10231987175000168916200163100    000040393                    000403930000000000000109                     I0240393     30041900000000040003410000017N120319104700000000000103004190000000000000000000000000000000000000000100079310940778JAQUELINE CRISTIANE MARTINS             RUA CAMBUIN 92, APARTAMENTO  2202       FREGUESIA (I21911130RIO DE JANEIRO RJUNIAO UMB DOS CULTOS AFRO BRAS    30041910 000019
10231987175000168916200163100    000039926                    000399260000000000000109                     I0239926     30041900000000040003410000017N120319104700000000000103004190000000000000000000000000000000000000000100048685917700CELIO DO NASCIMENTO                     RUA DO CATETE N 123, CASA 4 APT 101     CATETE      22220000RIO DE JANEIRO RJUNIAO UMB DOS CULTOS AFRO BRAS    30041910 000020
10231987175000168916200163100    000039805                    000398050000000000000109                     I0239805     22021900000000040003410000017N180219104700000000000102202190000000000000000000000000000000000000000100000441127770NOEMIA DINANTES GOMES                   RUA COELHO DA ROCHAN 596,               AGOSTINHO PO25510120SAO JOAO DE MERRJUNIAO UMB DOS CULTOS AFRO BRAS    22021910 000021
10231987175000168916200163100    000039742                    000397420000000000000109                     I0239742     15021900000000040003410000017N060219104700000000000101502190000000000000000000000000000000000000000100081531095704ROSANA ALMEIDA SILVA                    RUA JOAQUIM MARIANO DE MOURA N 246,     PONTO CHIC  26032840NOVA IGUACU    RJUNIAO UMB DOS CULTOS AFRO BRAS    15021910 000022
10231987175000168916200163100    000039728                    000397280000000000000109                     I0239728     20021900000000735003410000017N050219104700000000000102002190000000000000000000000000000000000000000100003367432709KHRYSTIENE COSTA MOTTA                  RUA CAROLINA MACHADON 886,              OSWALDO CRUZ21550000RIO DE JANEIRO RJUNIAO UMB DOS CULTOS AFRO BRAS    20021910 000023
10231987175000168916200163100    000039713                    000397130000000000000109                     I0239713     07021900000000040003410000017N030219104700000000000100702190000000000000000000000000000000000000000100079034780791PAULO ROBERTO DE SOUZA MORENO           RUA CORONEL MALHAESN 0, LOTE 6 QUADRA 38TIRADENTES  26351180NOVA IGUACU    RJUNIAO UMB DOS CULTOS AFRO BRAS    07021910 000024
10231987175000168916200163100    000039712                    000397120000000000000109                     I0239712     07021900000000160003410000017N030219104700000000000100702190000000000000000000000000000000000000000100079034780791PAULO ROBERTO DE SOUZA MORENO           RUA CORONEL MALHAESN 0, LOTE 6 QUADRA 38TIRADENTES  26351180NOVA IGUACU    RJUNIAO UMB DOS CULTOS AFRO BRAS    07021910 000025
10231987175000168916200163100    000039711                    000397110000000000000109                     I0239711     08021900000000100003410000017N020219104700000000000100802190000000000000000000000000000000000000000100002593509740MARIA DA PENHA FERREIRA                 RUA JERICON 17,                         INHOAIBA    23064180RIO DE JANEIRO RJUNIAO UMB DOS CULTOS AFRO BRAS    08021910 000026
10231987175000168916200163100    000039699                    000396990000000000000109                     I0239699     08021900000000075003410000017N310119104700000000000100802190000000000000000000000000000000000000000100064431002715SERGIO MURILO ALVES PEREIRA             RUA ROCHA N 0, LOTE 4 QUADRA 4 CASA 2   JARDIM BONIF25565161SAO JOAO DE MERRJUNIAO UMB DOS CULTOS AFRO BRAS    08021910 000027
10231987175000168916200163100    000039695                    000396950000000000000109                     I0239695     06021900000000040003410000017N310119104700000000000100602190000000000000000000000000000000000000000100015477441704RAFAEL LOPES DOS SANTOS                 RUA SANTA TERESINHAN 11, CASA 2         JARDIM METRO25571430SAO JOAO DE MERRJUNIAO UMB DOS CULTOS AFRO BRAS    06021910 000028
10231987175000168916200163100    000039694                    000396940000000000000109                     I0239694     05021900000000350003410000017N310119104700000000000100502190000000000000000000000000000000000000000100002480281701CESAR AUGUSTO DA SILVA MARCIAL          RUA: 65N 0, QUADRA 315 LOTE 7 A CASA 2  JARDIM ATLAN24900000MARICA         RJUNIAO UMB DOS CULTOS AFRO BRAS    05021910 000029
10231987175000168916200163100    000039693                    000396930000000000000109                     I0239693     25021900000000400003410000017N310119104700000000000102502190000000000000000000000000000000000000000100001796220728MARIA ROSA ALVES DA SILVA               RUA DOUTOR ARRUDA NEGREIRO N 100,       PARQUE SENHO25025325DUQUE DE CAXIASRJUNIAO UMB DOS CULTOS AFRO BRAS    25021910 000030
10231987175000168916200163100    000039692                    000396920000000000000109                     I0239692     10021900000000400003410000017N310119104700000000000101002190000000000000000000000000000000000000000100007812001725FLAVIA DA ROSA SANTANA                  RUA DOUTOR MONTEIRO E BARROSN 0, LOTE 66CENTRO      25525070SAO JOAO DE MERRJUNIAO UMB DOS CULTOS AFRO BRAS    10021910 000031
10231987175000168916200163100    000039685                    000396850000000000000109                     I0239685     05021900000000035003410000017N300119104700000000000100502190000000000000000000000000000000000000000100007062360767IVONETE GOMES DOS SANTOS                RUA SOARES TAVARESN 555,                GRADIM      24431310SAO GONCALO    RJUNIAO UMB DOS CULTOS AFRO BRAS    05021910 000032
10231987175000168916200163100    000039682                    000396820000000000000109                     I0239682     08021900000000040003410000017N300119104700000000000100802190000000000000000000000000000000000000000100096557753720MARGARETH TEIXEIRA ALUIZIO              RUA: ALBERTO SOARES SAMPAION 430, FUNDOSTAQUARA - JA22715300RIO DE JANEIRO RJUNIAO UMB DOS CULTOS AFRO BRAS    08021910 000033
10231987175000168916200163100    000039680                    000396800000000000000109                     I0239680     15021900000000665003410000017N290119104700000000000101502190000000000000000000000000000000000000000100091613965591SIMONE OLIVEIRA MACEDO                  ESTRADA CANCELA PRETAN 2120,            BANGU       21725010RIO DE JANEIRO RJUNIAO UMB DOS CULTOS AFRO BRAS    15021910 000034
10231987175000168916200163100    000039674                    000396740000000000000109                     I0239674     15021900000000070003410000017N290119104700000000000101502190000000000000000000000000000000000000000100092650716720ANDRE LUIS ALMEIDA SOUZA                RUA PTOLOMEUN 0, LOTE 30 QUADRA 23      JARDIM GLAUC26195195BELFORD ROXO   RJUNIAO UMB DOS CULTOS AFRO BRAS    15021910 000035
10231987175000168916200163100    000039673                    000396730000000000000109                     I0239673     31011900000000040003410000017N290119104700000000000103101190000000000000000000000000000000000000000100079006981753ELIANE BARBOSA RODRIGUES                AVENIDA PASTEURN 225,                   PARQUE ALIAN25550210SAO JOAO DE MERRJUNIAO UMB DOS CULTOS AFRO BRAS    31011910 000036
10231987175000168916200163100    000039669                    000396690000000000000109                     I0239669     20021900000000175003410000017N290119104700000000000102002190000000000000000000000000000000000000000100041294270753DENISE ROCHA ROSA                       RUA JACIN 16, A APT 703                 PIABETA     25931830MAGE           RJUNIAO UMB DOS CULTOS AFRO BRAS    20021910 000037
10231987175000168916200163100    000039647                    000396470000000000000109                     I0239647     05021900000000140003410000017N250119104700000000000100502190000000000000000000000000000000000000000100060296836168ALEXANDRE MONTEIRO DA ROSA              RUA MONTE CASTELO   N 143,              CORONEL VEIG25655500PETROPOLIS     RJUNIAO UMB DOS CULTOS AFRO BRAS    05021910 000038
10231987175000168916200163100    000039642                    000396420000000000000109                     I0239642     31011900000000040003410000017N230119104700000000000103101190000000000000000000000000000000000000000100070727201700MARIA LUIZA AGENOR BERTHOR              ESTRADA: DOS ESPEDICIONARIOSN 536, APTºTROPICAL    26540024NILOPOLIS      RJUNIAO UMB DOS CULTOS AFRO BRAS    31011910 000039
10231987175000168916200163100    000039623                    000396230000000000000109                     I0239623     20021900000000125003410000017N190119104700000000000102002190000000000000000000000000000000000000000100007332496712ELENICE ROSA DA SILVA                   RUA BERNARDINO DE MELON 4705, BAIRRO DA VILA CAVA - 26052060NOVA IGUACU    RJUNIAO UMB DOS CULTOS AFRO BRAS    20021910 000040
10231987175000168916200163100    000039620                    000396200000000000000109                     I0239620     31011900000000040003410000017N180119104700000000000103101190000000000000000000000000000000000000000100006957328708ANDRE VALERIO DELGADO GOIS E M          RUA TORRES HOMEM N 147, LOTE 17         JARDIM OLAVO25025380DUQUE DE CAXIASRJUNIAO UMB DOS CULTOS AFRO BRAS    31011910 000041
10231987175000168916200163100    000039606                    000396060000000000000109                     I0239606     08021900000000135003410000017N170119104700000000000100802190000000000000000000000000000000000000000100005646881773DEBORA LINS                             RUA KARLAN 0, LOTE 24 QUADRA 3          VALE DO IPE 26182330BELFORD ROXO   RJUNIAO UMB DOS CULTOS AFRO BRAS    08021910 000042
10231987175000168916200163100    000039602                    000396020000000000000109                     I0239602     05021900000000350003410000017N170119104700000000000100502190000000000000000000000000000000000000000100085838284749NILCE DOS SANTOS GABRIEL                AVENIDA VICENTE DE CARVALHON 1086, RUA FVICENTE DE C21210000RIO DE JANEIRO RJUNIAO UMB DOS CULTOS AFRO BRAS    05021910 000043
10231987175000168916200163100    000039601                    000396010000000000000109                     I0239601     31011900000000245003410000017N170119104700000000000103101190000000000000000000000000000000000000000100093255586704GRECIETE GOUDARD                        ESTRADA DO CAMPINHON 4501,              CAMPO GRANDE23066540RIO DE JANEIRO RJUNIAO UMB DOS CULTOS AFRO BRAS    31011910 000044
10231987175000168916200163100    000039600                    000396000000000000000109                     I0239600     31011900000000145003410000017N170119104700000000000103101190000000000000000000000000000000000000000100001147868794VALERIA APARECIDA DE SOUZA              RUA ALCYR BRASIL N 710,                 JARDIM NOVA 26266010NOVA IGUACU    RJUNIAO UMB DOS CULTOS AFRO BRAS    31011910 000045
10231987175000168916200163100    000039589                    000395890000000000000109                     I0239589     31011900000000035003410000017N170119104700000000000103101190000000000000000000000000000000000000000100006957328708ANDRE VALERIO DELGADO GOIS E M          RUA TORRES HOMEM N 147, LOTE 17         JARDIM OLAVO25025380DUQUE DE CAXIASRJUNIAO UMB DOS CULTOS AFRO BRAS    31011910 000046
10231987175000168916200163100    000039584                    000395840000000000000109                     I0239584     15021900000000700003410000017N160119104700000000000101502190000000000000000000000000000000000000000100009207927748CRISTIANE DO NASCIMENTO                 RUA BARAON 23, BLOCO 19 APTº 204       PRACA SECA  21321620RIO DE JANEIRO RJUNIAO UMB DOS CULTOS AFRO BRAS    15021910 000047
10231987175000168916200163100    000039572                    000395720000000000000109                     I0239572     31011900000000040003410000017N150119104700000000000103101190000000000000000000000000000000000000000100063796600700KATIA REGINA PINTO PACHECO              RUA JOAO RICARDON 0, LOTE 18 QUADRA 2   NOVO MEXICO 24754080SAO GONCALO    RJUNIAO UMB DOS CULTOS AFRO BRAS    31011910 000048
10231987175000168916200163100    000039516                    000395160000000000000109                     I0239516     31011900000000245003410000017N080119104700000000000103101190000000000000000000000000000000000000000100012113754711ANDREZA SALDANHA DA CRUZ                RUA DA MINAN 0, LOTE 3 QUADRA 30        HELIOPOLIS  26125550BELFORD ROXO   RJUNIAO UMB DOS CULTOS AFRO BRAS    31011910 000049
10231987175000168916200163100    000039508                    000395080000000000000109                     I0239508     31011900000000350003410000017N080119104700000000000103101190000000000000000000000000000000000000000100002644948738PAULO CESAR MARINS DA SILVA             RUA: EDUARDO NORONHA N 35,              ROCHA       24420615SAO GONCALO    RJUNIAO UMB DOS CULTOS AFRO BRAS    31011910 000050
10231987175000168916200163100    000039501                    000395010000000000000109                     I0239501     31011900000000175003410000017N080119104700000000000103101190000000000000000000000000000000000000000100005209152758LAZARO OLIVEIRA DE ARAUJO               RUA MULULO DA VEIGAN 1045,              NEVES       24425460SAO GONCALO    RJUNIAO UMB DOS CULTOS AFRO BRAS    31011910 000051
10231987175000168916200163100    000039484                    000394840000000000000109                     I0239484     31011900000000040003410000017N040119104700000000000103101190000000000000000000000000000000000000000100047933933220LUCIANA COSTA OLIVEIRA LEITE            AVENIDA PRIMEIRO DE MAION 3890, QUADRA 1CENTRO (S-0176980120VILHENA        ROUNIAO UMB DOS CULTOS AFRO BRAS    31011910 000052
10231987175000168916200163100    000039479                    000394790000000000000109                     I0239479     31011900000000040003410000017N040119104700000000000103101190000000000000000000000000000000000000000100090556933753CELIA MARIA DA SILVA REGO               RUA PRINCIPE DA BEIRAN 0, ENTRADA 6 APARDEL CASTILHO21051210RIO DE JANEIRO RJUNIAO UMB DOS CULTOS AFRO BRAS    31011910 000053
10231987175000168916200163100    000039466                    000394660000000000000109                     I0239466     10021900000000105003410000017N030119104700000000000101002190000000000000000000000000000000000000000100064915026787MARTINA SELMA DA COSTA                  RUA: BUCARESTEN 0, LOTE 27 QUADRA 79    VILA CENTRAL26316136QUEIMADOS      RJUNIAO UMB DOS CULTOS AFRO BRAS    10021910 000054
10231987175000168916200163100    000039454                    000394540000000000000109                     I0239454     31011900000000350003410000017N020119104700000000000103101190000000000000000000000000000000000000000100009408897730APARECIDA SILVA RIBEIRO                 RUA PEDRO TELLESN 566, CASA 4           CENTRO      25515003SAO JOAO DE MERRJUNIAO UMB DOS CULTOS AFRO BRAS    31011910 000055
10231987175000168916200163100    000039452                    000394520000000000000109                     I0239452     29031900000000040003410000017N020119104700000000000102903190000000000000000000000000000000000000000100079310940778JAQUELINE CRISTIANE MARTINS             RUA CAMBUIN 92, APARTAMENTO  2202       FREGUESIA (I21911130RIO DE JANEIRO RJUNIAO UMB DOS CULTOS AFRO BRAS    29031910 000056
10231987175000168916200163100    000039446                    000394460000000000000109                     I0239446     31011900000000040003410000017N020119104700000000000103101190000000000000000000000000000000000000000100016424589880LUIZ CARLOS BRITO                       RUA DA LIBERDADEN 368,                  TINGUA      26063230NOVA IGUACU    RJUNIAO UMB DOS CULTOS AFRO BRAS    31011910 000057
10231987175000168916200163100    000039443                    000394430000000000000109                     I0239443     31011900000000040003410000017N020119104700000000000103101190000000000000000000000000000000000000000100068424647734MARCIA VALERIA VALIATI DOS SAN          RUA CONSTANCA BARBOSA N 65, APARTAMENTO MEIER       20735090RIO DE JANEIRO RJUNIAO UMB DOS CULTOS AFRO BRAS    31011910 000058
10231987175000168916200163100    000039441                    000394410000000000000109                     I0239441     31011900000000350003410000017N020119104700000000000103101190000000000000000000000000000000000000000100095181890725ALEXANDRE DE SOUZA TAVARES SEN          RUA DOM MANOELN 67,                     DOM RODRIGO 26260230NOVA IGUACU    RJUNIAO UMB DOS CULTOS AFRO BRAS    31011910 000059
10231987175000168916200163100    000039439                    000394390000000000000109                     I0239439     31011900000000700003410000017N020119104700000000000103101190000000000000000000000000000000000000000100012133262733THIAGO RODRIGUES FERREIRA               RUA LEDA BORBAN 10,                     RICARDO DE A21665064RIO DE JANEIRO RJUNIAO UMB DOS CULTOS AFRO BRAS    31011910 000060
10231987175000168916200163100    000039438                    000394380000000000000109                     I0239438     31011900000000350003410000017N020119104700000000000103101190000000000000000000000000000000000000000100007717387735VALNICE DA SILVA RODRIGUES MEN          TRAVESSA NOVEN 35, BNH                  VILA VELHA (25912185MAGE           RJUNIAO UMB DOS CULTOS AFRO BRAS    31011910 000061
10231987175000168916200163100    000033592                    000335920000000000000109                     I0233592     31011900000000350003410000017N171218104700000000000103101190000000000000000000000000000000000000000100061143766768RITA CRISTINA BENJAMIN CORREA           RUA ROSEO FONTESN 743, FUNDOS           SANTA DALILA25921000MAGE           RJUNIAO UMB DOS CULTOS AFRO BRAS    31011910 000062
9                                                                                                                                                                                                                                                                                                                                                                                                         000063
