01REMESSA01COBRANCA       817800093673        União Umb dos Cultos Afro Bra341BANCO ITAU SA  050219                                                                                                                                                                                                                                                                                                      000001
10231987175000168817800093673    000039736                    000397360000000000000109                     I0139736     20021900000000040003410000017N050219104700000000000102002190000000000000000000000000000000000000000100005436665730JORGE LUIZ VICTORIO LIMA                AVENIDA MARCOVALDI N 271,               NOVA ESPERAN26113040BELFORD ROXO   RJUNIAO UMB DOS CULTOS AFRO BRAS    20021910 000002
10231987175000168817800093673    000039735                    000397350000000000000109                     I0139735     28021900000000200003410000017N050219104700000000000102802190000000000000000000000000000000000000000100005436665730JORGE LUIZ VICTORIO LIMA                AVENIDA MARCOVALDI N 271,               NOVA ESPERAN26113040BELFORD ROXO   RJUNIAO UMB DOS CULTOS AFRO BRAS    28021910 000003
10231987175000168817800093673    000039734                    000397340000000000000109                     I0139734     20021900000000400003410000017N050219104700000000000102002190000000000000000000000000000000000000000100059413573700LUIZ ANTONIO CARDOSO ARAUJO             RUA SAMUEL DAS NEVESN 930,              PECHINCHA   22770110RIO DE JANEIRO RJUNIAO UMB DOS CULTOS AFRO BRAS    20021910 000004
10231987175000168817800093673    000039733                    000397330000000000000109                     I0139733     15021900000000080003410000017N050219104700000000000101502190000000000000000000000000000000000000000100053218833787MARLUCE SUELY DA SILVA                  RUA CHRISOSTOMO PIMENTEL DE OLIVEIRAN 63ANCHIETA    21645521RIO DE JANEIRO RJUNIAO UMB DOS CULTOS AFRO BRAS    15021910 000005
10231987175000168817800093673    000039732                    000397320000000000000109                     I0139732     30031900000000040003410000017N050219104700000000000103003190000000000000000000000000000000000000000230470572000103TENDA UMBANDISTA VOVO MARIA CO          RUA: JABUTICABEIRAN 52, CASA 1          SENADOR CAMA23010450RIO DE JANEIRO RJUNIAO UMB DOS CULTOS AFRO BRAS    30031910 000006
10231987175000168817800093673    000039731                    000397310000000000000109                     I0139731     28021900000000040003410000017N050219104700000000000102802190000000000000000000000000000000000000000230470572000103TENDA UMBANDISTA VOVO MARIA CO          RUA: JABUTICABEIRAN 52, CASA 1          SENADOR CAMA23010450RIO DE JANEIRO RJUNIAO UMB DOS CULTOS AFRO BRAS    28021910 000007
10231987175000168817800093673    000039730                    000397300000000000000109                     I0139730     15021900000000040003410000017N050219104700000000000101502190000000000000000000000000000000000000000230470572000103TENDA UMBANDISTA VOVO MARIA CO          RUA: JABUTICABEIRAN 52, CASA 1          SENADOR CAMA23010450RIO DE JANEIRO RJUNIAO UMB DOS CULTOS AFRO BRAS    15021910 000008
10231987175000168817800093673    000039729                    000397290000000000000109                     I0139729     12021900000000040003410000017N050219104700000000000101202190000000000000000000000000000000000000000100009350031779TAIS AZEVEDO DOS SANTOS CAMPOS          RUA: CLOTILDE DE OLIVEIRA RODRIGUESN 46,FONSECA     24120170NITEROI        RJUNIAO UMB DOS CULTOS AFRO BRAS    12021910 000009
10231987175000168817800093673    000039727                    000397270000000000000109                     I0139727     29031900000000040003410000017N050219104700000000000102903190000000000000000000000000000000000000000100079769985749MARIA DA PENHA DA CONCEICAO             RUA SAO FELIXN 30, QUADRA 46 LOTE 607 - VILA SANTA C25260107DUQUE DE CAXIASRJUNIAO UMB DOS CULTOS AFRO BRAS    29031910 000010
10231987175000168817800093673    000039726                    000397260000000000000109                     I0139726     28021900000000040003410000017N050219104700000000000102802190000000000000000000000000000000000000000100079769985749MARIA DA PENHA DA CONCEICAO             RUA SAO FELIXN 30, QUADRA 46 LOTE 607 - VILA SANTA C25260107DUQUE DE CAXIASRJUNIAO UMB DOS CULTOS AFRO BRAS    28021910 000011
10231987175000168817800093673    000039725                    000397250000000000000109                     I0139725     12021900000000040003410000017N050219104700000000000101202190000000000000000000000000000000000000000100000441127770NOEMIA DINANTES GOMES                   RUA COELHO DA ROCHAN 596,               VILA ROSALI 25510120SAO JOAO DE MERRJUNIAO UMB DOS CULTOS AFRO BRAS    12021910 000012
10231987175000168817800093673    000039724                    000397240000000000000109                     I0139724     11021900000000115003410000017N050219104700000000000101102190000000000000000000000000000000000000000100010749011777LUIZ CARLOS LOYOLA ALVES                RUA OURO PRETON 40,                     COMUNIDADE T26297144NOVA IGUACU    RJUNIAO UMB DOS CULTOS AFRO BRAS    11021910 000013
10231987175000168817800093673    000039723                    000397230000000000000109                     I0139723     11021900000000035003410000017N050219104700000000000101102190000000000000000000000000000000000000000100010749011777LUIZ CARLOS LOYOLA ALVES                RUA OURO PRETON 40,                     COMUNIDADE T26297144NOVA IGUACU    RJUNIAO UMB DOS CULTOS AFRO BRAS    11021910 000014
10231987175000168817800093673    000039721                    000397210000000000000109                     I0139721     30031900000000040003410000017N040219104700000000000103003190000000000000000000000000000000000000000100006924712789ERCY MUNIZ DE SOUZA                     RUA VISTA ALEGRE N 20, ROLLAS II        SANTA CRUZ  23591440RIO DE JANEIRO RJUNIAO UMB DOS CULTOS AFRO BRAS    30031910 000015
10231987175000168817800093673    000039720                    000397200000000000000109                     I0139720     29031900000000040003410000017N040219104700000000000102903190000000000000000000000000000000000000000100007296951745PAULO FRANCISCO DA SILVA DANIE          RUA OTAWAN 407,                         PARADA DE LU21241220RIO DE JANEIRO RJUNIAO UMB DOS CULTOS AFRO BRAS    29031910 000016
10231987175000168817800093673    000039719                    000397190000000000000109                     I0139719     28021900000000040003410000017N040219104700000000000102802190000000000000000000000000000000000000000100007296951745PAULO FRANCISCO DA SILVA DANIE          RUA OTAWAN 407,                         PARADA DE LU21241220RIO DE JANEIRO RJUNIAO UMB DOS CULTOS AFRO BRAS    28021910 000017
10231987175000168817800093673    000039718                    000397180000000000000109                     I0139718     30031900000000040003410000017N040219104700000000000103003190000000000000000000000000000000000000000100087188775753LETICIA SANTOS RIBEIRO                  RUA PROJETADA BN 0, LOTE 7 QUADRA A     SANTISSIMO  23093327RIO DE JANEIRO RJUNIAO UMB DOS CULTOS AFRO BRAS    30031910 000018
10231987175000168817800093673    000039717                    000397170000000000000109                     I0139717     28021900000000040003410000017N040219104700000000000102802190000000000000000000000000000000000000000100087188775753LETICIA SANTOS RIBEIRO                  RUA PROJETADA BN 0, LOTE 7 QUADRA A     SANTISSIMO  23093327RIO DE JANEIRO RJUNIAO UMB DOS CULTOS AFRO BRAS    28021910 000019
10231987175000168817800093673    000039716                    000397160000000000000109                     I0139716     29031900000000040003410000017N040219104700000000000102903190000000000000000000000000000000000000000100046582908715WANDERLEI ABRANTES TEIXEIRA             RUA LOURDES BARBOSA PASSASN 26, QUADRA 2BRISA MAR   23826360ITAGUAI        RJUNIAO UMB DOS CULTOS AFRO BRAS    29031910 000020
10231987175000168817800093673    000039715                    000397150000000000000109                     I0139715     28021900000000040003410000017N040219104700000000000102802190000000000000000000000000000000000000000100046582908715WANDERLEI ABRANTES TEIXEIRA             RUA LOURDES BARBOSA PASSASN 26, QUADRA 2BRISA MAR   23826360ITAGUAI        RJUNIAO UMB DOS CULTOS AFRO BRAS    28021910 000021
10231987175000168817800093673    000039667                    000396670000000000000109                     I0239667     05021900000000400003410000017N290119104700000000000100502190000000000000000000000000000000000000000100059413573700LUIZ ANTONIO CARDOSO ARAUJO             RUA SAMUEL DAS NEVESN 930,              PECHINCHA   22770110RIO DE JANEIRO RJUNIAO UMB DOS CULTOS AFRO BRAS    05021910 000022
10231987175000168817800093673    000039553                    000395530000000000000109                     I0239553     08021900000000180003410000017N110119104700000000000100802190000000000000000000000000000000000000000100010880272708FERNANDA DOS SANTOS PEREIRA             RUA LINS DE VASCONCELOSN 593,           LINS DE VASC20710130RIO DE JANEIRO RJUNIAO UMB DOS CULTOS AFRO BRAS    08021910 000023
10231987175000168817800093673    000039058                    000390580000000000000109                     I0239058     30031900000000040003410000017N261218104700000000000103003190000000000000000000000000000000000000000100001609037774REGINA CELIA DE OLIVEIRA DA SI          RUA VENANCIO N 0, LOTE 23 QUADRA 13     OLAVO BILAC 25035340DUQUE DE CAXIASRJUNIAO UMB DOS CULTOS AFRO BRAS    30031910 000024
10231987175000168817800093673    000038573                    000385730000000000000109                     I0238573     30031900000000040003410000017N261218104700000000000103003190000000000000000000000000000000000000000230470572000103TENDA UMBANDISTA VOVO MARIA CO          RUA: JABUTICABEIRAN 52, CASA 1          SENADOR CAMA23010450RIO DE JANEIRO RJUNIAO UMB DOS CULTOS AFRO BRAS    30031910 000025
10231987175000168817800093673    000038198                    000381980000000000000109                     I0238198     30031900000000040003410000017N261218104700000000000103003190000000000000000000000000000000000000000100086101145700SARITA XAVIER DA SILVA PROENCA          RUA: BEIRA RIO N 45,                    SAO BENTO   25045026DUQUE DE CAXIASRJUNIAO UMB DOS CULTOS AFRO BRAS    30031910 000026
10231987175000168817800093673    000037773                    000377730000000000000109                     I0237773     30031900000000040003410000017N261218104700000000000103003190000000000000000000000000000000000000000100007296951745PAULO FRANCISCO DA SILVA DANIE          RUA OTAWAN 407,                         PARADA DE LU21241220RIO DE JANEIRO RJUNIAO UMB DOS CULTOS AFRO BRAS    30031910 000027
10231987175000168817800093673    000037731                    000377310000000000000109                     I0237731     30031900000000040003410000017N261218104700000000000103003190000000000000000000000000000000000000000100046582908715WANDERLEI ABRANTES TEIXEIRA             RUA LOURDES BARBOSA PASSASN 26, QUADRA 2BRISA MAR   23826360ITAGUAI        RJUNIAO UMB DOS CULTOS AFRO BRAS    30031910 000028
10231987175000168817800093673    000037650                    000376500000000000000109                     I0237650     30031900000000040003410000017N261218104700000000000103003190000000000000000000000000000000000000000100019685726787ADELMIR HAMELIN SODRE                   RUA JOAQUIM DE SOUSAN 311, FUNDOS       ROCHA MIRAND21540370RIO DE JANEIRO RJUNIAO UMB DOS CULTOS AFRO BRAS    30031910 000029
10231987175000168817800093673    000037605                    000376050000000000000109                     I0237605     30031900000000040003410000017N261218104700000000000103003190000000000000000000000000000000000000000100050742175715DOMINGAS APRIGIO DOS SANTOS             RUA GENERAL JOAO SARAIVAN 5,            ARNALDO EUGE23016340RIO DE JANEIRO RJUNIAO UMB DOS CULTOS AFRO BRAS    30031910 000030
10231987175000168817800093673    000037544                    000375440000000000000109                     I0237544     30031900000000040003410000017N261218104700000000000103003190000000000000000000000000000000000000000100034394788749SANDRA TEREZINHA DOS SANTOS FE          RUA IPITANGAS N 270,                    MAGALHAES BA21745400RIO DE JANEIRO RJUNIAO UMB DOS CULTOS AFRO BRAS    30031910 000031
10231987175000168817800093673    000037139                    000371390000000000000109                     I0237139     28021900000000040003410000017N261218104700000000000102802190000000000000000000000000000000000000000100001609037774REGINA CELIA DE OLIVEIRA DA SI          RUA VENANCIO N 0, LOTE 23 QUADRA 13     OLAVO BILAC 25035340DUQUE DE CAXIASRJUNIAO UMB DOS CULTOS AFRO BRAS    28021910 000032
10231987175000168817800093673    000036656                    000366560000000000000109                     I0236656     28021900000000040003410000017N261218104700000000000102802190000000000000000000000000000000000000000230470572000103TENDA UMBANDISTA VOVO MARIA CO          RUA: JABUTICABEIRAN 52, CASA 1          SENADOR CAMA23010450RIO DE JANEIRO RJUNIAO UMB DOS CULTOS AFRO BRAS    28021910 000033
10231987175000168817800093673    000036282                    000362820000000000000109                     I0236282     28021900000000040003410000017N261218104700000000000102802190000000000000000000000000000000000000000100086101145700SARITA XAVIER DA SILVA PROENCA          RUA: BEIRA RIO N 45,                    SAO BENTO   25045026DUQUE DE CAXIASRJUNIAO UMB DOS CULTOS AFRO BRAS    28021910 000034
10231987175000168817800093673    000036152                    000361520000000000000109                     I0236152     28021900000000040003410000017N261218104700000000000102802190000000000000000000000000000000000000000100010749011777LUIZ CARLOS LOYOLA ALVES                RUA OURO PRETON 40,                     COMUNIDADE T26297144NOVA IGUACU    RJUNIAO UMB DOS CULTOS AFRO BRAS    28021910 000035
10231987175000168817800093673    000035859                    000358590000000000000109                     I0235859     28021900000000040003410000017N261218104700000000000102802190000000000000000000000000000000000000000100007296951745PAULO FRANCISCO DA SILVA DANIE          RUA OTAWAN 407,                         PARADA DE LU21241220RIO DE JANEIRO RJUNIAO UMB DOS CULTOS AFRO BRAS    28021910 000036
10231987175000168817800093673    000035818                    000358180000000000000109                     I0235818     28021900000000040003410000017N261218104700000000000102802190000000000000000000000000000000000000000100046582908715WANDERLEI ABRANTES TEIXEIRA             RUA LOURDES BARBOSA PASSASN 26, QUADRA 2BRISA MAR   23826360ITAGUAI        RJUNIAO UMB DOS CULTOS AFRO BRAS    28021910 000037
10231987175000168817800093673    000035737                    000357370000000000000109                     I0235737     28021900000000040003410000017N261218104700000000000102802190000000000000000000000000000000000000000100019685726787ADELMIR HAMELIN SODRE                   RUA JOAQUIM DE SOUSAN 311, FUNDOS       ROCHA MIRAND21540370RIO DE JANEIRO RJUNIAO UMB DOS CULTOS AFRO BRAS    28021910 000038
10231987175000168817800093673    000035692                    000356920000000000000109                     I0235692     28021900000000040003410000017N261218104700000000000102802190000000000000000000000000000000000000000100050742175715DOMINGAS APRIGIO DOS SANTOS             RUA GENERAL JOAO SARAIVAN 5,            ARNALDO EUGE23016340RIO DE JANEIRO RJUNIAO UMB DOS CULTOS AFRO BRAS    28021910 000039
10231987175000168817800093673    000035632                    000356320000000000000109                     I0235632     28021900000000040003410000017N261218104700000000000102802190000000000000000000000000000000000000000100034394788749SANDRA TEREZINHA DOS SANTOS FE          RUA IPITANGAS N 270,                    MAGALHAES BA21745400RIO DE JANEIRO RJUNIAO UMB DOS CULTOS AFRO BRAS    28021910 000040
10231987175000168817800093673    000035384                    000353840000000000000109                     I0235384     31011900000000040003410000017N261218104700000000000103101190000000000000000000000000000000000000000100005436665730JORGE LUIZ VICTORIO LIMA                AVENIDA MARCOVALDI N 271,               NOVA ESPERAN26113040BELFORD ROXO   RJUNIAO UMB DOS CULTOS AFRO BRAS    31011910 000041
10231987175000168817800093673    000035329                    000353290000000000000109                     I3435329     31011900000000040003410000017N261218104700000000000103101190000000000000000000000000000000000000000100053531396749VITALINA DOS SANTOS                     RUA SAQUAREMAN 1863,                    GRAMACHO    25035425DUQUE DE CAXIASRJUNIAO UMB DOS CULTOS AFRO BRAS    31011910 000042
10231987175000168817800093673    000035228                    000352280000000000000109                     I0235228     31011900000000040003410000017N261218104700000000000103101190000000000000000000000000000000000000000100001609037774REGINA CELIA DE OLIVEIRA DA SI          RUA VENANCIO N 0, LOTE 23 QUADRA 13     OLAVO BILAC 25035340DUQUE DE CAXIASRJUNIAO UMB DOS CULTOS AFRO BRAS    31011910 000043
10231987175000168817800093673    000035226                    000352260000000000000109                     I0235226     31011900000000040003410000017N261218104700000000000103101190000000000000000000000000000000000000000100053211839704ALCIONE SOUZA DOS SANTOS                RUA MARINO FELIXN 26,                   SEPETIBA    23535006RIO DE JANEIRO RJUNIAO UMB DOS CULTOS AFRO BRAS    31011910 000044
10231987175000168817800093673    000035206                    000352060000000000000109                     I0235206     31011900000000040003410000017N261218104700000000000103101190000000000000000000000000000000000000000100001148949739MARIA DAS GRACAS SEBASTIANA DO          RUA PEREIRA PINTO N 91,                 TOMAS COELHO20761350RIO DE JANEIRO RJUNIAO UMB DOS CULTOS AFRO BRAS    31011910 000045
10231987175000168817800093673    000035141                    000351410000000000000109                     I0235141     31011900000000040003410000017N261218104700000000000103101190000000000000000000000000000000000000000100083492909787MARCIA DA COSTA BRANDAO                 TRAVESSA MALAFAIAN 49,                  DEL CASTILHO21050620RIO DE JANEIRO RJUNIAO UMB DOS CULTOS AFRO BRAS    31011910 000046
10231987175000168817800093673    000035035                    000350350000000000000109                     I0235035     31011900000000040003410000017N261218104700000000000103101190000000000000000000000000000000000000000100047657383704JAIR LOURENCO DE LIMA                   RUA CONDE DEU N 199, B                  CASTELANEA  25640340PETROPOLIS     RJUNIAO UMB DOS CULTOS AFRO BRAS    31011910 000047
10231987175000168817800093673    000034746                    000347460000000000000109                     I0234746     31011900000000040003410000017N261218104700000000000103101190000000000000000000000000000000000000000230470572000103TENDA UMBANDISTA VOVO MARIA CO          RUA: JABUTICABEIRAN 52, CASA 1          SENADOR CAMA23010450RIO DE JANEIRO RJUNIAO UMB DOS CULTOS AFRO BRAS    31011910 000048
10231987175000168817800093673    000034741                    000347410000000000000109                     I0234741     31011900000000040003410000017N261218104700000000000103101190000000000000000000000000000000000000000100000747523754CLAUDIARA TEIXEIRA DA SILVA             RUA CAMBUCIN 295, CASA 1 PORTAO DE GARAGMUQUECA     27140280BARRA DO PIRAI RJUNIAO UMB DOS CULTOS AFRO BRAS    31011910 000049
10231987175000168817800093673    000034643                    000346430000000000000109                     I0234643     31011900000000040003410000017N261218104700000000000103101190000000000000000000000000000000000000000100002673106766JANAINA MARQUES ALVES SANTOS T          RUA DOS RUBISN 519, A SOBRADO           ROCHA MIRAND21510012RIO DE JANEIRO RJUNIAO UMB DOS CULTOS AFRO BRAS    31011910 000050
10231987175000168817800093673    000034374                    000343740000000000000109                     I0234374     31011900000000040003410000017N261218104700000000000103101190000000000000000000000000000000000000000100086101145700SARITA XAVIER DA SILVA PROENCA          RUA: BEIRA RIO N 45,                    SAO BENTO   25045026DUQUE DE CAXIASRJUNIAO UMB DOS CULTOS AFRO BRAS    31011910 000051
10231987175000168817800093673    000034351                    000343510000000000000109                     I0234351     31011900000000040003410000017N261218104700000000000103101190000000000000000000000000000000000000000100043194869787JORGE PINHEIRO DE ALMEIDA               RUA CERQUEIRA CESAR N 121, CASA 1       MADUREIRA   21351070RIO DE JANEIRO RJUNIAO UMB DOS CULTOS AFRO BRAS    31011910 000052
10231987175000168817800093673    000034244                    000342440000000000000109                     I0234244     31011900000000040003410000017N261218104700000000000103101190000000000000000000000000000000000000000100010749011777LUIZ CARLOS LOYOLA ALVES                RUA OURO PRETON 40,                     COMUNIDADE T26297144NOVA IGUACU    RJUNIAO UMB DOS CULTOS AFRO BRAS    31011910 000053
10231987175000168817800093673    000033955                    000339550000000000000109                     I0233955     31011900000000040003410000017N261218104700000000000103101190000000000000000000000000000000000000000100007296951745PAULO FRANCISCO DA SILVA DANIE          RUA OTAWAN 407,                         PARADA DE LU21241220RIO DE JANEIRO RJUNIAO UMB DOS CULTOS AFRO BRAS    31011910 000054
10231987175000168817800093673    000033915                    000339150000000000000109                     I0233915     31011900000000040003410000017N261218104700000000000103101190000000000000000000000000000000000000000100046582908715WANDERLEI ABRANTES TEIXEIRA             RUA LOURDES BARBOSA PASSASN 26, QUADRA 2BRISA MAR   23826360ITAGUAI        RJUNIAO UMB DOS CULTOS AFRO BRAS    31011910 000055
10231987175000168817800093673    000033790                    000337900000000000000109                     I0233790     31011900000000040003410000017N261218104700000000000103101190000000000000000000000000000000000000000100050742175715DOMINGAS APRIGIO DOS SANTOS             RUA GENERAL JOAO SARAIVAN 5,            ARNALDO EUGE23016340RIO DE JANEIRO RJUNIAO UMB DOS CULTOS AFRO BRAS    31011910 000056
10231987175000168817800093673    000033738                    000337380000000000000109                     I0233738     31011900000000040003410000017N261218104700000000000103101190000000000000000000000000000000000000000100000441127770NOEMIA DINANTES GOMES                   RUA COELHO DA ROCHAN 596,               VILA ROSALI 25510120SAO JOAO DE MERRJUNIAO UMB DOS CULTOS AFRO BRAS    31011910 000057
10231987175000168817800093673    000033731                    000337310000000000000109                     I0233731     31011900000000040003410000017N261218104700000000000103101190000000000000000000000000000000000000000100034394788749SANDRA TEREZINHA DOS SANTOS FE          RUA IPITANGAS N 270,                    MAGALHAES BA21745400RIO DE JANEIRO RJUNIAO UMB DOS CULTOS AFRO BRAS    31011910 000058
10231987175000168817800093673    000033557                    000335570000000000000109                     I0233557     20121800000000035003410000017N121218104700000000000102012180000000000000000000000000000000000000000100053211839704ALCIONE SOUZA DOS SANTOS                RUA MARINO FELIXN 26,                   SEPETIBA    23535006RIO DE JANEIRO RJUNIAO UMB DOS CULTOS AFRO BRAS    20121810 000059
10231987175000168817800093673    000033162                    000331620000000000000109                     I0233162     20121800000000380003410000017N291018104700000000000102012180000000000000000000000000000000000000000100005436665730JORGE LUIZ VICTORIO LIMA                AVENIDA MARCOVALDI N 271,               NOVA ESPERAN26113040BELFORD ROXO   RJUNIAO UMB DOS CULTOS AFRO BRAS    20121810 000060
10231987175000168817800093673    000033089                    000330890000000000000109                     I0233089     20121800000000350003410000017N291018104700000000000102012180000000000000000000000000000000000000000100053531396749VITALINA DOS SANTOS                     RUA SAQUAREMAN 1863,                    GRAMACHO    25035425DUQUE DE CAXIASRJUNIAO UMB DOS CULTOS AFRO BRAS    20121810 000061
10231987175000168817800093673    000032904                    000329040000000000000109                     I0232904     20121800000000350003410000017N291018104700000000000102012180000000000000000000000000000000000000000100001609037774REGINA CELIA DE OLIVEIRA DA SI          RUA VENANCIO N 0, LOTE 23 QUADRA 13     OLAVO BILAC 25035340DUQUE DE CAXIASRJUNIAO UMB DOS CULTOS AFRO BRAS    20121810 000062
10231987175000168817800093673    000032902                    000329020000000000000109                     I0232902     20121800000000350003410000017N291018104700000000000102012180000000000000000000000000000000000000000100053211839704ALCIONE SOUZA DOS SANTOS                RUA MARINO FELIXN 26,                   SEPETIBA    23535006RIO DE JANEIRO RJUNIAO UMB DOS CULTOS AFRO BRAS    20121810 000063
10231987175000168817800093673    000032873                    000328730000000000000109                     I0232873     20121800000000350003410000017N291018104700000000000102012180000000000000000000000000000000000000000100001148949739MARIA DAS GRACAS SEBASTIANA DO          RUA PEREIRA PINTO N 91,                 TOMAS COELHO20761350RIO DE JANEIRO RJUNIAO UMB DOS CULTOS AFRO BRAS    20121810 000064
10231987175000168817800093673    000032774                    000327740000000000000109                     I0232774     20121800000000350003410000017N291018104700000000000102012180000000000000000000000000000000000000000100083492909787MARCIA DA COSTA BRANDAO                 TRAVESSA MALAFAIAN 49,                  DEL CASTILHO21050620RIO DE JANEIRO RJUNIAO UMB DOS CULTOS AFRO BRAS    20121810 000065
10231987175000168817800093673    000032616                    000326160000000000000109                     I0232616     20121800000000350003410000017N291018104700000000000102012180000000000000000000000000000000000000000100047657383704JAIR LOURENCO DE LIMA                   RUA CONDE DEU N 199, B                  CASTELANEA  25640340PETROPOLIS     RJUNIAO UMB DOS CULTOS AFRO BRAS    20121810 000066
10231987175000168817800093673    000032189                    000321890000000000000109                     I0232189     20121800000000350003410000017N291018104700000000000102012180000000000000000000000000000000000000000230470572000103TENDA UMBANDISTA VOVO MARIA CO          RUA: JABUTICABEIRAN 52, CASA 1          SENADOR CAMA23010450RIO DE JANEIRO RJUNIAO UMB DOS CULTOS AFRO BRAS    20121810 000067
10231987175000168817800093673    000032180                    000321800000000000000109                     I0232180     20121800000000350003410000017N291018104700000000000102012180000000000000000000000000000000000000000100000747523754CLAUDIARA TEIXEIRA DA SILVA             RUA CAMBUCIN 295, CASA 1 PORTAO DE GARAGMUQUECA     27140280BARRA DO PIRAI RJUNIAO UMB DOS CULTOS AFRO BRAS    20121810 000068
10231987175000168817800093673    000032154                    000321540000000000000109                     I0232154     20121800000000350003410000017N291018104700000000000102012180000000000000000000000000000000000000000100061458317749BENEDITA DEODORO DE MORAIS              RUA GENTIL DINIZN 69,                   NOVO MEXICO 27130170BARRA DO PIRAI RJUNIAO UMB DOS CULTOS AFRO BRAS    20121810 000069
10231987175000168817800093673    000032039                    000320390000000000000109                     I0232039     20121800000000350003410000017N291018104700000000000102012180000000000000000000000000000000000000000100002673106766JANAINA MARQUES ALVES SANTOS T          RUA DOS RUBISN 519, A SOBRADO           ROCHA MIRAND21510012RIO DE JANEIRO RJUNIAO UMB DOS CULTOS AFRO BRAS    20121810 000070
10231987175000168817800093673    000031636                    000316360000000000000109                     I0231636     20121800000000350003410000017N291018104700000000000102012180000000000000000000000000000000000000000100086101145700SARITA XAVIER DA SILVA PROENCA          RUA: BEIRA RIO N 45,                    SAO BENTO   25045026DUQUE DE CAXIASRJUNIAO UMB DOS CULTOS AFRO BRAS    20121810 000071
10231987175000168817800093673    000031605                    000316050000000000000109                     I0231605     20121800000000350003410000017N291018104700000000000102012180000000000000000000000000000000000000000100043194869787JORGE PINHEIRO DE ALMEIDA               RUA CERQUEIRA CESAR N 121, CASA 1       MADUREIRA   21351070RIO DE JANEIRO RJUNIAO UMB DOS CULTOS AFRO BRAS    20121810 000072
10231987175000168817800093673    000031429                    000314290000000000000109                     I0231429     20121800000000350003410000017N291018104700000000000102012180000000000000000000000000000000000000000100010749011777LUIZ CARLOS LOYOLA ALVES                RUA OURO PRETON 40,                     COMUNIDADE T26297144NOVA IGUACU    RJUNIAO UMB DOS CULTOS AFRO BRAS    20121810 000073
10231987175000168817800093673    000030880                    000308800000000000000109                     I0230880     20121800000000350003410000017N291018104700000000000102012180000000000000000000000000000000000000000100046582908715WANDERLEI ABRANTES TEIXEIRA             RUA LOURDES BARBOSA PASSASN 26, QUADRA 2BRISA MAR   23826360ITAGUAI        RJUNIAO UMB DOS CULTOS AFRO BRAS    20121810 000074
10231987175000168817800093673    000030753                    000307530000000000000109                     I0230753     20121800000000400003410000017N291018104700000000000102012180000000000000000000000000000000000000000100019685726787ADELMIR HAMELIN SODRE                   RUA JOAQUIM DE SOUSAN 311, FUNDOS       ROCHA MIRAND21540370RIO DE JANEIRO RJUNIAO UMB DOS CULTOS AFRO BRAS    20121810 000075
10231987175000168817800093673    000030664                    000306640000000000000109                     I0230664     20121800000000350003410000017N291018104700000000000102012180000000000000000000000000000000000000000100050742175715DOMINGAS APRIGIO DOS SANTOS             RUA GENERAL JOAO SARAIVAN 5,            ARNALDO EUGE23016340RIO DE JANEIRO RJUNIAO UMB DOS CULTOS AFRO BRAS    20121810 000076
10231987175000168817800093673    000030579                    000305790000000000000109                     I0230579     20121800000000350003410000017N291018104700000000000102012180000000000000000000000000000000000000000100034394788749SANDRA TEREZINHA DOS SANTOS FE          RUA IPITANGAS N 270,                    MAGALHAES BA21745400RIO DE JANEIRO RJUNIAO UMB DOS CULTOS AFRO BRAS    20121810 000077
10231987175000168817800093673    000030284                    000302840000000000000109                     I0230284     20121800000000035003410000017N291018104700000000000102012180000000000000000000000000000000000000000100005436665730JORGE LUIZ VICTORIO LIMA                AVENIDA MARCOVALDI N 271,               NOVA ESPERAN26113040BELFORD ROXO   RJUNIAO UMB DOS CULTOS AFRO BRAS    20121810 000078
10231987175000168817800093673    000030123                    000301230000000000000109                     I0230123     20121800000000035003410000017N291018104700000000000102012180000000000000000000000000000000000000000100053211839704ALCIONE SOUZA DOS SANTOS                RUA MARINO FELIXN 26,                   SEPETIBA    23535006RIO DE JANEIRO RJUNIAO UMB DOS CULTOS AFRO BRAS    20121810 000079
10231987175000168817800093673    000030047                    000300470000000000000109                     I0230047     20121800000000035003410000017N291018104700000000000102012180000000000000000000000000000000000000000100083492909787MARCIA DA COSTA BRANDAO                 TRAVESSA MALAFAIAN 49,                  DEL CASTILHO21050620RIO DE JANEIRO RJUNIAO UMB DOS CULTOS AFRO BRAS    20121810 000080
10231987175000168817800093673    000029753                    000297530000000000000109                     I0229753     20121800000000035003410000017N291018104700000000000102012180000000000000000000000000000000000000000230470572000103TENDA UMBANDISTA VOVO MARIA CO          RUA: JABUTICABEIRAN 52, CASA 1          SENADOR CAMA23010450RIO DE JANEIRO RJUNIAO UMB DOS CULTOS AFRO BRAS    20121810 000081
10231987175000168817800093673    000029411                    000294110000000000000109                     I0229411     20121800000000035003410000017N291018104700000000000102012180000000000000000000000000000000000000000100010749011777LUIZ CARLOS LOYOLA ALVES                RUA OURO PRETON 40,                     COMUNIDADE T26297144NOVA IGUACU    RJUNIAO UMB DOS CULTOS AFRO BRAS    20121810 000082
10231987175000168817800093673    000029193                    000291930000000000000109                     I0229193     20121800000000035003410000017N291018104700000000000102012180000000000000000000000000000000000000000100046582908715WANDERLEI ABRANTES TEIXEIRA             RUA LOURDES BARBOSA PASSASN 26, QUADRA 2BRISA MAR   23826360ITAGUAI        RJUNIAO UMB DOS CULTOS AFRO BRAS    20121810 000083
9                                                                                                                                                                                                                                                                                                                                                                                                         000084
