01REMESSA01COBRANCA       916200163100        União Umb dos Cultos Afro Bra341BANCO ITAU SA  290119                                                                                                                                                                                                                                                                                                      000001
10231987175000168916200163100    000039624                    000396240000000000000109                     I0239624     25011900000000350003410000017N210119104700000000000102501190000000000000000000000000000000000000000100001057692743ANDRE LUIZ PEDROZA VARELLA              RUA: DOIS DE FEVEREIRO                  ENCANTADO   20730452RIO DE JANEIRO RJUNIAO UMB DOS CULTOS AFRO BRAS    25011910 000002
10231987175000168916200163100    000033548                    000335480000000000000109                     I0233548     12121800000000070003410000017N071218104700000000000101212180000000000000000000000000000000000000000100001393165745MARCO AURELIO DE BARROS FARIAS          RUA F                                   CABUCU      24851516NITEROI        RJUNIAO UMB DOS CULTOS AFRO BRAS    12121810 000003
10231987175000168916200163100    000033543                    000335430000000000000109                     I0233543     14121800000000040003410000017N061218104700000000000101412180000000000000000000000000000000000000000100044845251787REGINA CELIA ALMEIDA BASTOS             RUA DERMEVAL LESSA                      PAVUNA      21532330RIO DE JANEIRO RJUNIAO UMB DOS CULTOS AFRO BRAS    14121810 000004
10231987175000168916200163100    000033483                    000334830000000000000109                     I0233483     10121800000000035003410000017N261118104700000000000101012180000000000000000000000000000000000000000100002305172770VALDIRENE ALBUQUERQUE MARCIEL           RUA GUARAGUATATUBA                      VILA ROSARIO25030040DUQUE DE CAXIASRJUNIAO UMB DOS CULTOS AFRO BRAS    10121810 000005
10231987175000168916200163100    000028795                    000287950000000000000109                     I0228795     30111800000000040003410000017N240918104700000000000103011180000000000000000000000000000000000000000100096599170749LUCINEA LOPES DA SILVA                  FLAVIA REGINA DE SOUZA                  CABUCU      00000000NOVA IGUACU    RJUNIAO UMB DOS CULTOS AFRO BRAS    30111810 000006
10231987175000168916200163100    000028747                    000287470000000000000109                     I0228747     30111800000000040003410000017N130918104700000000000103011180000000000000000000000000000000000000000100010089898788MONICA REGINA ELIAS DE SOUZA M          ESTRADA: DA BOA SORTE                   MAUA        25924260MAGE           RJUNIAO UMB DOS CULTOS AFRO BRAS    30111810 000007
10231987175000168916200163100    000028721                    000287210000000000000109                     I0228721     30111800000000040003410000017N100918104700000000000103011180000000000000000000000000000000000000000100012303421764PEDRO JONAS ARAUJO CORDEIRO             RUA JOSE LIMA DA SILVA                  SANTA RITA  26185610BELFORD ROXO   RJUNIAO UMB DOS CULTOS AFRO BRAS    30111810 000008
10231987175000168916200163100    000028718                    000287180000000000000109                     I0228718     30111800000000035003410000017N100918104700000000000103011180000000000000000000000000000000000000000100000000000000REINALDO FERREIRA DOS SANTOS            RUA LESTE                               JARDIM PARAI26297294NOVA IGUACU    RJUNIAO UMB DOS CULTOS AFRO BRAS    30111810 000009
10231987175000168916200163100    000028715                    000287150000000000000109                     I0228715     30111800000000040003410000017N100918104700000000000103011180000000000000000000000000000000000000000100003413776789CRISTIANE DE SOUZA GALANTE INA          RUA SABIA                               SITIO RETIRO26167500SAO JOAO DE MERRJUNIAO UMB DOS CULTOS AFRO BRAS    30111810 000010
10231987175000168916200163100    000028712                    000287120000000000000109                     I0228712     30111800000000040003410000017N100918104700000000000103011180000000000000000000000000000000000000000100036139050782VIRGINIA DANTAS FERREIRA                AVENIDA BEIRA                           COROA GRANDE23821310RIO DE JANEIRO RJUNIAO UMB DOS CULTOS AFRO BRAS    30111810 000011
10231987175000168916200163100    000028709                    000287090000000000000109                     I0228709     30111800000000035003410000017N100918104700000000000103011180000000000000000000000000000000000000000100005451927731MAGDA MARTHA DE OLIVEIRA                RUA: JOSE MARIANO                       CABUCU - PAR26292051NOVA IGUACU    RJUNIAO UMB DOS CULTOS AFRO BRAS    30111810 000012
10231987175000168916200163100    000028706                    000287060000000000000109                     I0228706     30111800000000040003410000017N100918104700000000000103011180000000000000000000000000000000000000000100047627816734DORACI BARBARA RIBEIRO DO COUT          RUA PRIMEIRO DE MAIO                    PARQUE IPIRA26359510MESQUITA       RJUNIAO UMB DOS CULTOS AFRO BRAS    30111810 000013
10231987175000168916200163100    000028703                    000287030000000000000109                     I0228703     30111800000000040003410000017N100918104700000000000103011180000000000000000000000000000000000000000100001686004710CLAUDIA CORREA DA SILVA                 RUA MARISTER                            CABUCU      00000000NOVA IGUACU    RJUNIAO UMB DOS CULTOS AFRO BRAS    30111810 000014
10231987175000168916200163100    000028700                    000287000000000000000109                     I0228700     30111800000000035003410000017N100918104700000000000103011180000000000000000000000000000000000000000100085114308734MARISTELA BISPO DOS SANTOS              RUA: VINTE E TRES DE SETEMBRO           IPIRANGA    26293342NOVA IGUACU    RJUNIAO UMB DOS CULTOS AFRO BRAS    30111810 000015
10231987175000168916200163100    000028697                    000286970000000000000109                     I0228697     30111800000000040003410000017N100918104700000000000103011180000000000000000000000000000000000000000100075037017734ORLY PEREIRA DE AZEVEDO                 RUA BUTUCARAI                           CAMPOS ELISI00000000DUQUE DE CAXIASRJUNIAO UMB DOS CULTOS AFRO BRAS    30111810 000016
10231987175000168916200163100    000028684                    000286840000000000000109                     I0228684     30111800000000040003410000017N060918104700000000000103011180000000000000000000000000000000000000000100085965871791VALERIA MENDES BARBOSA DOS SAN          RUA SAO PATRICIO                        JARDIM NOVA 26265540NOVA IGUACU    RJUNIAO UMB DOS CULTOS AFRO BRAS    30111810 000017
10231987175000168916200163100    000028681                    000286810000000000000109                     I0228681     30111800000000040003410000017N060918104700000000000103011180000000000000000000000000000000000000000100008323642745ROSEMERI DE SOUZA COUTINHO              RUA VERA LUCIA                          CABUCU      26291452NOVA IGUACU    RJUNIAO UMB DOS CULTOS AFRO BRAS    30111810 000018
10231987175000168916200163100    000028672                    000286720000000000000109                     I0228672     30111800000000035003410000017N050918104700000000000103011180000000000000000000000000000000000000000100098129074753EVANILDO PEDRO DA SILVA FILHO           RUA MANOEL GREGORIO                     SANTISSIMO  21853050RIO DE JANEIRO RJUNIAO UMB DOS CULTOS AFRO BRAS    30111810 000019
10231987175000168916200163100    000028598                    000285980000000000000109                     I0228598     30111800000000040003410000017N280818104700000000000103011180000000000000000000000000000000000000000100007202542722MIRLA SUSANI DA SILVA SALES             RUA: DOUTOR FREDERICO                   LAGOINHA    26296414NOVA IGUACU    RJUNIAO UMB DOS CULTOS AFRO BRAS    30111810 000020
9                                                                                                                                                                                                                                                                                                                                                                                                         000021
