01REMESSA01COBRANCA       817800093673        União Umb dos Cultos Afro Bra341BANCO ITAU SA  290119                                                                                                                                                                                                                                                                                                      000001
10231987175000168817800093673    000039664                    000396640000000000000109                     I0139664     31031900000000040003410000017N290119104700000000000103103190000000000000000000000000000000000000000100001483061795MARCIO NUNES BARBOSA                    RUA BELA                                SAO CRISTOVA20930380RIO DE JANEIRO RJUNIAO UMB DOS CULTOS AFRO BRAS    31031910 000002
10231987175000168817800093673    000039663                    000396630000000000000109                     I0139663     28021900000000040003410000017N290119104700000000000102802190000000000000000000000000000000000000000100001483061795MARCIO NUNES BARBOSA                    RUA BELA                                SAO CRISTOVA20930380RIO DE JANEIRO RJUNIAO UMB DOS CULTOS AFRO BRAS    28021910 000003
10231987175000168817800093673    000039662                    000396620000000000000109                     I0139662     22021900000000300003410000017N290119104700000000000102202190000000000000000000000000000000000000000100005414691770UANDERSON DE SOUZA XAVIER               RUA: ALFREDO MANSUR                     MORRO GAMA  27150430BARRA DO PIRAI RJUNIAO UMB DOS CULTOS AFRO BRAS    22021910 000004
10231987175000168817800093673    000039661                    000396610000000000000109                     I0139661     31031900000000040003410000017N290119104700000000000103103190000000000000000000000000000000000000000100005414691770UANDERSON DE SOUZA XAVIER               RUA: ALFREDO MANSUR                     MORRO GAMA  27150430BARRA DO PIRAI RJUNIAO UMB DOS CULTOS AFRO BRAS    31031910 000005
10231987175000168817800093673    000039660                    000396600000000000000109                     I0139660     28021900000000040003410000017N290119104700000000000102802190000000000000000000000000000000000000000100005414691770UANDERSON DE SOUZA XAVIER               RUA: ALFREDO MANSUR                     MORRO GAMA  27150430BARRA DO PIRAI RJUNIAO UMB DOS CULTOS AFRO BRAS    28021910 000006
10231987175000168817800093673    000039303                    000393030000000000000109                     I0239303     30031900000000040003410000017N261218104700000000000103003190000000000000000000000000000000000000000100001483061795MARCIO NUNES BARBOSA                    RUA BELA                                SAO CRISTOVA20930380RIO DE JANEIRO RJUNIAO UMB DOS CULTOS AFRO BRAS    30031910 000007
10231987175000168817800093673    000039293                    000392930000000000000109                     I0239293     30031900000000040003410000017N261218104700000000000103003190000000000000000000000000000000000000000100002520191724ANA LUCIA MENEZES DO NASCIMENT          RUA: VEREADOR FRANCISCO NUNES SILVA     OLINA       26545060NILOPOLIS      RJUNIAO UMB DOS CULTOS AFRO BRAS    30031910 000008
10231987175000168817800093673    000039062                    000390620000000000000109                     I0239062     30031900000000040003410000017N261218104700000000000103003190000000000000000000000000000000000000000100033890145787ADEMILSON ANTONIO DE MENEZES            RUA ALMEIDA JUNIOR                      PANTANAL    25041390DUQUE DE CAXIASRJUNIAO UMB DOS CULTOS AFRO BRAS    30031910 000009
10231987175000168817800093673    000039025                    000390250000000000000109                     I0239025     30031900000000040003410000017N261218104700000000000103003190000000000000000000000000000000000000000100001456619705ROSANGELA DAMASCENO                     AVENIDA RAUL BARROS VIEIRA              BANGU       21864230RIO DE JANEIRO RJUNIAO UMB DOS CULTOS AFRO BRAS    30031910 000010
10231987175000168817800093673    000038910                    000389100000000000000109                     I0238910     30031900000000040003410000017N261218104700000000000103003190000000000000000000000000000000000000000100055010423715NIGMAR FIRMINA CUNHA BERNARDO           RUA LUIS FELIPE                         JARDIM GUAND26298174NOVA IGUACU    RJUNIAO UMB DOS CULTOS AFRO BRAS    30031910 000011
10231987175000168817800093673    000038909                    000389090000000000000109                     I0238909     30031900000000040003410000017N261218104700000000000103003190000000000000000000000000000000000000000100006328018754ANDERSON LUIS DA SILVA CORDEIR          RUA PASSO FUNDO                         JARDIM GUAND26298174NOVA IGUACU    RJUNIAO UMB DOS CULTOS AFRO BRAS    30031910 000012
10231987175000168817800093673    000038812                    000388120000000000000109                     I0238812     30031900000000040003410000017N261218104700000000000103003190000000000000000000000000000000000000000100000676696708VALDENICE PATROCINIO DOS SANTO          RUA FRANCISCO DE MELO                   SAO BENTO   25041210DUQUE DE CAXIASRJUNIAO UMB DOS CULTOS AFRO BRAS    30031910 000013
10231987175000168817800093673    000038564                    000385640000000000000109                     I0238564     30031900000000040003410000017N261218104700000000000103003190000000000000000000000000000000000000000100005414691770UANDERSON DE SOUZA XAVIER               RUA: ALFREDO MANSUR                     MORRO GAMA  27150430BARRA DO PIRAI RJUNIAO UMB DOS CULTOS AFRO BRAS    30031910 000014
10231987175000168817800093673    000038367                    000383670000000000000109                     I0238367     30031900000000040003410000017N261218104700000000000103003190000000000000000000000000000000000000000100001057692743ANDRE LUIZ PEDROZA VARELLA              RUA: DOIS DE FEVEREIRO                  ENCANTADO   20730452RIO DE JANEIRO RJUNIAO UMB DOS CULTOS AFRO BRAS    30031910 000015
10231987175000168817800093673    000038242                    000382420000000000000109                     I0238242     30031900000000040003410000017N261218104700000000000103003190000000000000000000000000000000000000000100077597443749RONALDO SILVA DOS SANTOS                RUA: ITAPECERICA                        REALENGO    21730190RIO DE JANEIRO RJUNIAO UMB DOS CULTOS AFRO BRAS    30031910 000016
10231987175000168817800093673    000038221                    000382210000000000000109                     I0238221     30031900000000040003410000017N261218104700000000000103003190000000000000000000000000000000000000000100060855916753MARIZE DOS SANTOS LESSA DE VAS          RUA: CABO MILTON COSME DOS SANTOS       BANGU       21725620RIO DE JANERIRORJUNIAO UMB DOS CULTOS AFRO BRAS    30031910 000017
10231987175000168817800093673    000038126                    000381260000000000000109                     I0238126     30031900000000040003410000017N261218104700000000000103003190000000000000000000000000000000000000000100063607379734FATIMA CONCEICAO GONCALVES DA           RUA: AMANDIU                            IRAJA       21371440RIO DE JANEIRO RJUNIAO UMB DOS CULTOS AFRO BRAS    30031910 000018
10231987175000168817800093673    000037912                    000379120000000000000109                     I0237912     30031900000000040003410000017N261218104700000000000103003190000000000000000000000000000000000000000100053057457720MARIA CHRISTINA MARINS ROSA             RUA ARAGO                               TANQUE - JAC22733130RIO DE JANEIRO RJUNIAO UMB DOS CULTOS AFRO BRAS    30031910 000019
10231987175000168817800093673    000037765                    000377650000000000000109                     I0237765     30031900000000040003410000017N261218104700000000000103003190000000000000000000000000000000000000000100011243375738NANCI EDIR DA SILVA FERNANDES           AVENIDA IRENE LOPES SODRE               ENGENHO DO M24346040NITEROI        RJUNIAO UMB DOS CULTOS AFRO BRAS    30031910 000020
10231987175000168817800093673    000037565                    000375650000000000000109                     I0237565     30031900000000040003410000017N261218104700000000000103003190000000000000000000000000000000000000000100001306191750PAULO CESAR DE PAULA CALDEIRA           RUA OSCARINA DE FREITAS                 PALMARES - P23065500RIO DE JANEIRO RJUNIAO UMB DOS CULTOS AFRO BRAS    30031910 000021
10231987175000168817800093673    000037384                    000373840000000000000109                     I0237384     28021900000000040003410000017N261218104700000000000102802190000000000000000000000000000000000000000100001483061795MARCIO NUNES BARBOSA                    RUA BELA                                SAO CRISTOVA20930380RIO DE JANEIRO RJUNIAO UMB DOS CULTOS AFRO BRAS    28021910 000022
10231987175000168817800093673    000037374                    000373740000000000000109                     I0237374     28021900000000040003410000017N261218104700000000000102802190000000000000000000000000000000000000000100002520191724ANA LUCIA MENEZES DO NASCIMENT          RUA: VEREADOR FRANCISCO NUNES SILVA     OLINA       26545060NILOPOLIS      RJUNIAO UMB DOS CULTOS AFRO BRAS    28021910 000023
10231987175000168817800093673    000037143                    000371430000000000000109                     I0237143     28021900000000040003410000017N261218104700000000000102802190000000000000000000000000000000000000000100033890145787ADEMILSON ANTONIO DE MENEZES            RUA ALMEIDA JUNIOR                      PANTANAL    25041390DUQUE DE CAXIASRJUNIAO UMB DOS CULTOS AFRO BRAS    28021910 000024
10231987175000168817800093673    000037106                    000371060000000000000109                     I0237106     28021900000000040003410000017N261218104700000000000102802190000000000000000000000000000000000000000100001456619705ROSANGELA DAMASCENO                     AVENIDA RAUL BARROS VIEIRA              BANGU       21864230RIO DE JANEIRO RJUNIAO UMB DOS CULTOS AFRO BRAS    28021910 000025
10231987175000168817800093673    000036991                    000369910000000000000109                     I0236991     28021900000000040003410000017N261218104700000000000102802190000000000000000000000000000000000000000100055010423715NIGMAR FIRMINA CUNHA BERNARDO           RUA LUIS FELIPE                         JARDIM GUAND26298174NOVA IGUACU    RJUNIAO UMB DOS CULTOS AFRO BRAS    28021910 000026
10231987175000168817800093673    000036990                    000369900000000000000109                     I0236990     28021900000000040003410000017N261218104700000000000102802190000000000000000000000000000000000000000100006328018754ANDERSON LUIS DA SILVA CORDEIR          RUA PASSO FUNDO                         JARDIM GUAND26298174NOVA IGUACU    RJUNIAO UMB DOS CULTOS AFRO BRAS    28021910 000027
10231987175000168817800093673    000036893                    000368930000000000000109                     I0236893     28021900000000040003410000017N261218104700000000000102802190000000000000000000000000000000000000000100000676696708VALDENICE PATROCINIO DOS SANTO          RUA FRANCISCO DE MELO                   SAO BENTO   25041210DUQUE DE CAXIASRJUNIAO UMB DOS CULTOS AFRO BRAS    28021910 000028
10231987175000168817800093673    000036647                    000366470000000000000109                     I0236647     28021900000000040003410000017N261218104700000000000102802190000000000000000000000000000000000000000100005414691770UANDERSON DE SOUZA XAVIER               RUA: ALFREDO MANSUR                     MORRO GAMA  27150430BARRA DO PIRAI RJUNIAO UMB DOS CULTOS AFRO BRAS    28021910 000029
10231987175000168817800093673    000036450                    000364500000000000000109                     I0236450     28021900000000040003410000017N261218104700000000000102802190000000000000000000000000000000000000000100001057692743ANDRE LUIZ PEDROZA VARELLA              RUA: DOIS DE FEVEREIRO                  ENCANTADO   20730452RIO DE JANEIRO RJUNIAO UMB DOS CULTOS AFRO BRAS    28021910 000030
10231987175000168817800093673    000036326                    000363260000000000000109                     I0236326     28021900000000040003410000017N261218104700000000000102802190000000000000000000000000000000000000000100077597443749RONALDO SILVA DOS SANTOS                RUA: ITAPECERICA                        REALENGO    21730190RIO DE JANEIRO RJUNIAO UMB DOS CULTOS AFRO BRAS    28021910 000031
10231987175000168817800093673    000036305                    000363050000000000000109                     I0236305     28021900000000040003410000017N261218104700000000000102802190000000000000000000000000000000000000000100060855916753MARIZE DOS SANTOS LESSA DE VAS          RUA: CABO MILTON COSME DOS SANTOS       BANGU       21725620RIO DE JANERIRORJUNIAO UMB DOS CULTOS AFRO BRAS    28021910 000032
10231987175000168817800093673    000036210                    000362100000000000000109                     I0236210     28021900000000040003410000017N261218104700000000000102802190000000000000000000000000000000000000000100063607379734FATIMA CONCEICAO GONCALVES DA           RUA: AMANDIU                            IRAJA       21371440RIO DE JANEIRO RJUNIAO UMB DOS CULTOS AFRO BRAS    28021910 000033
10231987175000168817800093673    000035997                    000359970000000000000109                     I0235997     28021900000000040003410000017N261218104700000000000102802190000000000000000000000000000000000000000100053057457720MARIA CHRISTINA MARINS ROSA             RUA ARAGO                               TANQUE - JAC22733130RIO DE JANEIRO RJUNIAO UMB DOS CULTOS AFRO BRAS    28021910 000034
10231987175000168817800093673    000035851                    000358510000000000000109                     I0235851     28021900000000040003410000017N261218104700000000000102802190000000000000000000000000000000000000000100011243375738NANCI EDIR DA SILVA FERNANDES           AVENIDA IRENE LOPES SODRE               ENGENHO DO M24346040NITEROI        RJUNIAO UMB DOS CULTOS AFRO BRAS    28021910 000035
10231987175000168817800093673    000035653                    000356530000000000000109                     I0235653     28021900000000040003410000017N261218104700000000000102802190000000000000000000000000000000000000000100001306191750PAULO CESAR DE PAULA CALDEIRA           RUA OSCARINA DE FREITAS                 PALMARES - P23065500RIO DE JANEIRO RJUNIAO UMB DOS CULTOS AFRO BRAS    28021910 000036
10231987175000168817800093673    000035471                    000354710000000000000109                     I0235471     31011900000000040003410000017N261218104700000000000103101190000000000000000000000000000000000000000100001483061795MARCIO NUNES BARBOSA                    RUA BELA                                SAO CRISTOVA20930380RIO DE JANEIRO RJUNIAO UMB DOS CULTOS AFRO BRAS    31011910 000037
10231987175000168817800093673    000035461                    000354610000000000000109                     I0235461     31011900000000040003410000017N261218104700000000000103101190000000000000000000000000000000000000000100002520191724ANA LUCIA MENEZES DO NASCIMENT          RUA: VEREADOR FRANCISCO NUNES SILVA     OLINA       26545060NILOPOLIS      RJUNIAO UMB DOS CULTOS AFRO BRAS    31011910 000038
10231987175000168817800093673    000035232                    000352320000000000000109                     I0235232     31011900000000040003410000017N261218104700000000000103101190000000000000000000000000000000000000000100033890145787ADEMILSON ANTONIO DE MENEZES            RUA ALMEIDA JUNIOR                      PANTANAL    25041390DUQUE DE CAXIASRJUNIAO UMB DOS CULTOS AFRO BRAS    31011910 000039
10231987175000168817800093673    000035195                    000351950000000000000109                     I0235195     31011900000000040003410000017N261218104700000000000103101190000000000000000000000000000000000000000100001456619705ROSANGELA DAMASCENO                     AVENIDA RAUL BARROS VIEIRA              BANGU       21864230RIO DE JANEIRO RJUNIAO UMB DOS CULTOS AFRO BRAS    31011910 000040
10231987175000168817800093673    000035081                    000350810000000000000109                     I0235081     31011900000000040003410000017N261218104700000000000103101190000000000000000000000000000000000000000100055010423715NIGMAR FIRMINA CUNHA BERNARDO           RUA LUIS FELIPE                         JARDIM GUAND26298174NOVA IGUACU    RJUNIAO UMB DOS CULTOS AFRO BRAS    31011910 000041
10231987175000168817800093673    000035080                    000350800000000000000109                     I0235080     31011900000000040003410000017N261218104700000000000103101190000000000000000000000000000000000000000100006328018754ANDERSON LUIS DA SILVA CORDEIR          RUA PASSO FUNDO                         JARDIM GUAND26298174NOVA IGUACU    RJUNIAO UMB DOS CULTOS AFRO BRAS    31011910 000042
10231987175000168817800093673    000034983                    000349830000000000000109                     I0234983     31011900000000040003410000017N261218104700000000000103101190000000000000000000000000000000000000000100000676696708VALDENICE PATROCINIO DOS SANTO          RUA FRANCISCO DE MELO                   SAO BENTO   25041210DUQUE DE CAXIASRJUNIAO UMB DOS CULTOS AFRO BRAS    31011910 000043
10231987175000168817800093673    000034880                    000348800000000000000109                     I0234880     31011900000000040003410000017N261218104700000000000103101190000000000000000000000000000000000000000100002926668708ALCIONE CARVALHO DA COSTA               RUA SAMPAIO CORREA                      JACAREPAGUA 22713560RIO DE JANEIRO RJUNIAO UMB DOS CULTOS AFRO BRAS    31011910 000044
10231987175000168817800093673    000034737                    000347370000000000000109                     I0234737     31011900000000040003410000017N261218104700000000000103101190000000000000000000000000000000000000000100005414691770UANDERSON DE SOUZA XAVIER               RUA: ALFREDO MANSUR                     MORRO GAMA  27150430BARRA DO PIRAI RJUNIAO UMB DOS CULTOS AFRO BRAS    31011910 000045
10231987175000168817800093673    000034541                    000345410000000000000109                     I0234541     31011900000000040003410000017N261218104700000000000103101190000000000000000000000000000000000000000100001057692743ANDRE LUIZ PEDROZA VARELLA              RUA: DOIS DE FEVEREIRO                  ENCANTADO   20730452RIO DE JANEIRO RJUNIAO UMB DOS CULTOS AFRO BRAS    31011910 000046
10231987175000168817800093673    000034418                    000344180000000000000109                     I0234418     31011900000000040003410000017N261218104700000000000103101190000000000000000000000000000000000000000100077597443749RONALDO SILVA DOS SANTOS                RUA: ITAPECERICA                        REALENGO    21730190RIO DE JANEIRO RJUNIAO UMB DOS CULTOS AFRO BRAS    31011910 000047
10231987175000168817800093673    000034397                    000343970000000000000109                     I0234397     31011900000000040003410000017N261218104700000000000103101190000000000000000000000000000000000000000100060855916753MARIZE DOS SANTOS LESSA DE VAS          RUA: CABO MILTON COSME DOS SANTOS       BANGU       21725620RIO DE JANERIRORJUNIAO UMB DOS CULTOS AFRO BRAS    31011910 000048
10231987175000168817800093673    000034302                    000343020000000000000109                     I0234302     31011900000000040003410000017N261218104700000000000103101190000000000000000000000000000000000000000100063607379734FATIMA CONCEICAO GONCALVES DA           RUA: AMANDIU                            IRAJA       21371440RIO DE JANEIRO RJUNIAO UMB DOS CULTOS AFRO BRAS    31011910 000049
10231987175000168817800093673    000034237                    000342370000000000000109                     I0234237     31011900000000040003410000017N261218104700000000000103101190000000000000000000000000000000000000000100062792920700LUIZ CESAR DE OLIVEIRA                  RUA PEREIRA DE FIGUEIREDO               OSWALDO CRUZ21340030RIO DE JANEIRO RJUNIAO UMB DOS CULTOS AFRO BRAS    31011910 000050
10231987175000168817800093673    000034094                    000340940000000000000109                     I0234094     31011900000000040003410000017N261218104700000000000103101190000000000000000000000000000000000000000100002344767703ROSINETE FERREIRA CAMARGO               RUA ARAGO                               JACAREPAGUA 22733130RIO DE JANEIRO RJUNIAO UMB DOS CULTOS AFRO BRAS    31011910 000051
10231987175000168817800093673    000034092                    000340920000000000000109                     I0234092     31011900000000040003410000017N261218104700000000000103101190000000000000000000000000000000000000000100053057457720MARIA CHRISTINA MARINS ROSA             RUA ARAGO                               TANQUE - JAC22733130RIO DE JANEIRO RJUNIAO UMB DOS CULTOS AFRO BRAS    31011910 000052
10231987175000168817800093673    000033947                    000339470000000000000109                     I0233947     31011900000000040003410000017N261218104700000000000103101190000000000000000000000000000000000000000100011243375738NANCI EDIR DA SILVA FERNANDES           AVENIDA IRENE LOPES SODRE               ENGENHO DO M24346040NITEROI        RJUNIAO UMB DOS CULTOS AFRO BRAS    31011910 000053
10231987175000168817800093673    000033509                    000335090000000000000109                     I0233509     10121800000000035003410000017N021218104700000000000101012180000000000000000000000000000000000000000100011766861784MARIA WANDERLEIA MARTINS CRUZ           RUA BRUNO LECINI                        AUSTIN      26279255NOVA IGUACU    RJUNIAO UMB DOS CULTOS AFRO BRAS    10121810 000054
10231987175000168817800093673    000033503                    000335030000000000000109                     I0233503     14121800000000175003410000017N301118104700000000000101412180000000000000000000000000000000000000000100043397140706VERA LUCIA FERREIRA DA SILVA            RUA ALICE                               COMENDADOR S26262030NOVA IGUACU    RJUNIAO UMB DOS CULTOS AFRO BRAS    14121810 000055
10231987175000168817800093673    000033491                    000334910000000000000109                     I0233491     07121800000000200003410000017N281118104700000000000100712180000000000000000000000000000000000000000100078754143772CARMEN NAJARA BAUCE DA SILVA            RUA NOSSA SENHORA DA GUIA               JARDIM DA PA25926849TERESOPOLIS    RJUNIAO UMB DOS CULTOS AFRO BRAS    07121810 000056
10231987175000168817800093673    000033484                    000334840000000000000109                     I0233484     11121800000000350003410000017N271118104700000000000101112180000000000000000000000000000000000000000100000260923796RITA LUZIE HENRIQUE DA SILVA A          RUA: GOIAS                              ENGENHO DE D20756120RIO DE JANEIRO RJUNIAO UMB DOS CULTOS AFRO BRAS    11121810 000057
10231987175000168817800093673    000033475                    000334750000000000000109                     I0233475     07121800000000035003410000017N261118104700000000000100712180000000000000000000000000000000000000000100000000000761SONIA MARIA DA SILVA DELLIVENE          AV PLINIO GOMES DE MATTOS FILHO         VARZEA DAS M24330430SAO GONCALO    RJUNIAO UMB DOS CULTOS AFRO BRAS    07121810 000058
10231987175000168817800093673    000033474                    000334740000000000000109                     I0233474     10121800000000100003410000017N241118104700000000000101012180000000000000000000000000000000000000000100070175225753LEDA FERREIRA FIGUEIREDO                RUA: SANTA ROSA                         BENTO RIBEIR21331420RIO DE JANEIRO RJUNIAO UMB DOS CULTOS AFRO BRAS    10121810 000059
10231987175000168817800093673    000033466                    000334660000000000000109                     I0233466     30111800000000280003410000017N221118104700000000000103011180000000000000000000000000000000000000000100000000000000GUILHERME SANTOS LINHARES               RUA ROUGET LISLE                        PANTANAL    25040360RIO DE JANEIRO RJUNIAO UMB DOS CULTOS AFRO BRAS    30111810 000060
10231987175000168817800093673    000033444                    000334440000000000000109                     I0233444     05121800000000460003410000017N201118104700000000000100512180000000000000000000000000000000000000000100014708764774ADILSON CARNEIRO PINTO                  RUA JUREMA                              GUARATIBA   23035380RIO DE JANEIRO RJUNIAO UMB DOS CULTOS AFRO BRAS    05121810 000061
10231987175000168817800093673    000033443                    000334430000000000000109                     I0233443     30111800000000180003410000017N191118104700000000000103011180000000000000000000000000000000000000000100077220145772ANGELA MARIA VIANA DOS SANTOS           RUA ANTONIO ALEXANDRE DE OLIVEIRA       CENTRO      25515050SAO JOAO DE MERRJUNIAO UMB DOS CULTOS AFRO BRAS    30111810 000062
10231987175000168817800093673    000033433                    000334330000000000000109                     I0233433     17121800000000150003410000017N171118104700000000000101712180000000000000000000000000000000000000000100007474273721CLARINDO DE MEDEIROS                    RUA SAO MARCOS                          VILAR DOS TE25561220SAO JOAO DE MERRJUNIAO UMB DOS CULTOS AFRO BRAS    17121810 000063
10231987175000168817800093673    000033428                    000334280000000000000109                     I0233428     05121800000000105003410000017N161118104700000000000100512180000000000000000000000000000000000000000100010212584740TIAGO VEROL DE SOUZA                    RUA: REGISTRO                           SENADOR CAMA21832006RIO DE JANEIRO RJUNIAO UMB DOS CULTOS AFRO BRAS    05121810 000064
10231987175000168817800093673    000033427                    000334270000000000000109                     I0233427     14121800000000240003410000017N161118104700000000000101412180000000000000000000000000000000000000000100009297297730FLAVIO JOAQUIM DOS SANTOS               RUA: SAO PAULO                          PALMARES    23585800RIO DE JANEIRO RJUNIAO UMB DOS CULTOS AFRO BRAS    14121810 000065
10231987175000168817800093673    000033426                    000334260000000000000109                     I0233426     30111800000000175003410000017N161118104700000000000103011180000000000000000000000000000000000000000100010440702771AMANDA APARECIDA AZEVEDO CARDO          RUA IVONETE                             CONJUNTO SAN00000000RIO DE JANEIRO RJUNIAO UMB DOS CULTOS AFRO BRAS    30111810 000066
10231987175000168817800093673    000033422                    000334220000000000000109                     I0233422     30111800000000105003410000017N151118104700000000000103011180000000000000000000000000000000000000000100060407875700KATIA DE AZEVEDO FURTADO                RUA SOUZA PITANGA                       THOMAS COELH21381230RIO DE JANEIRO RJUNIAO UMB DOS CULTOS AFRO BRAS    30111810 000067
10231987175000168817800093673    000033420                    000334200000000000000109                     I0233420     15121800000000350003410000017N151118104700000000000101512180000000000000000000000000000000000000000100065138210700TANIA CRISTINA DOS SANTOS PERE          RUA: BOM JARDIM                         GRAMACHO    25035060DUQUE DE CAXIASRJUNIAO UMB DOS CULTOS AFRO BRAS    15121810 000068
10231987175000168817800093673    000033404                    000334040000000000000109                     I0233404     10121800000000500003410000017N121118104700000000000101012180000000000000000000000000000000000000000100000853849250MANOEL NAZARENO SOUZA AMORIM            RUA ANTONIO GERMANO                     AGROVILA SAN68747000CASTANHAL      PAUNIAO UMB DOS CULTOS AFRO BRAS    10121810 000069
10231987175000168817800093673    000033394                    000333940000000000000109                     I0233394     30111800000000040003410000017N091118104700000000000103011180000000000000000000000000000000000000000100005359920769MARCIO ROGERIO DE SOUZA MONTE           RUA: MARIA FERREIRA PINTO               TINGUI - CAM23075000RIO DE JANEIRO RJUNIAO UMB DOS CULTOS AFRO BRAS    30111810 000070
10231987175000168817800093673    000033393                    000333930000000000000109                     I0233393     30111800000000700003410000017N091118104700000000000103011180000000000000000000000000000000000000000100000000011276NOEMIA FALCAO MANOEL                    O MESMO                                 O MESMO     27175000BARRA DO PIRAI RJUNIAO UMB DOS CULTOS AFRO BRAS    30111810 000071
10231987175000168817800093673    000033383                    000333830000000000000109                     I0233383     05121800000000700003410000017N071118104700000000000100512180000000000000000000000000000000000000000100007228499743JOANA DARC LEIROZ DE AMORIM             RUA MANHUACU                            VARGEM GRAND22785600RIO DE JANEIRO RJUNIAO UMB DOS CULTOS AFRO BRAS    05121810 000072
10231987175000168817800093673    000033373                    000333730000000000000109                     I0233373     30111800000000280003410000017N061118104700000000000103011180000000000000000000000000000000000000000100023970090563MARCIA VIEIRA SALES                     RUA LOPO SARAIVA                        TANQUE - JAC22740220RIO DE JANEIRO RJUNIAO UMB DOS CULTOS AFRO BRAS    30111810 000073
10231987175000168817800093673    000033361                    000333610000000000000109                     I0233361     10121800000000400003410000017N031118104700000000000101012180000000000000000000000000000000000000000100048123765720JUANJARA HENRIQUE DOS SANTOS            O MESMO                                 O MESMO     00000000DUQUE DE CAXIASRJUNIAO UMB DOS CULTOS AFRO BRAS    10121810 000074
10231987175000168817800093673    000033322                    000333220000000000000109                     I0233322     30111800000000040003410000017N301018104700000000000103011180000000000000000000000000000000000000000100088763765772VERONICA CECILIA DE AGUIAR              RUA LAURELINO FREIRE                    GUAXINDIBA  24722330SAO GONCALO    RJUNIAO UMB DOS CULTOS AFRO BRAS    30111810 000075
10231987175000168817800093673    000033317                    000333170000000000000109                     I0233317     30111800000000040003410000017N291018104700000000000103011180000000000000000000000000000000000000000100000840541740JUCIARA GONCALVES NEPOMUCENO            LOTEAMENTO DEZESSEIS                    GRAMA - MIGU26070000BELFORD ROXO   RJUNIAO UMB DOS CULTOS AFRO BRAS    30111810 000076
10231987175000168817800093673    000033268                    000332680000000000000109                     I0233268     20121800000000400003410000017N291018104700000000000102012180000000000000000000000000000000000000000100001483061795MARCIO NUNES BARBOSA                    RUA BELA                                SAO CRISTOVA20930380RIO DE JANEIRO RJUNIAO UMB DOS CULTOS AFRO BRAS    20121810 000077
10231987175000168817800093673    000033257                    000332570000000000000109                     I0233257     20121800000000350003410000017N291018104700000000000102012180000000000000000000000000000000000000000100002520191724ANA LUCIA MENEZES DO NASCIMENT          RUA: VEREADOR FRANCISCO NUNES SILVA     OLINA       26545060NILOPOLIS      RJUNIAO UMB DOS CULTOS AFRO BRAS    20121810 000078
10231987175000168817800093673    000032910                    000329100000000000000109                     I0232910     20121800000000350003410000017N291018104700000000000102012180000000000000000000000000000000000000000100033890145787ADEMILSON ANTONIO DE MENEZES            RUA ALMEIDA JUNIOR                      PANTANAL    25041390DUQUE DE CAXIASRJUNIAO UMB DOS CULTOS AFRO BRAS    20121810 000079
10231987175000168817800093673    000032855                    000328550000000000000109                     I0232855     20121800000000350003410000017N291018104700000000000102012180000000000000000000000000000000000000000100001456619705ROSANGELA DAMASCENO                     AVENIDA RAUL BARROS VIEIRA              BANGU       21864230RIO DE JANEIRO RJUNIAO UMB DOS CULTOS AFRO BRAS    20121810 000080
10231987175000168817800093673    000032687                    000326870000000000000109                     I0232687     20121800000000350003410000017N291018104700000000000102012180000000000000000000000000000000000000000100055010423715NIGMAR FIRMINA CUNHA BERNARDO           RUA LUIS FELIPE                         JARDIM GUAND26298174NOVA IGUACU    RJUNIAO UMB DOS CULTOS AFRO BRAS    20121810 000081
10231987175000168817800093673    000032686                    000326860000000000000109                     I0232686     20121800000000350003410000017N291018104700000000000102012180000000000000000000000000000000000000000100006328018754ANDERSON LUIS DA SILVA CORDEIR          RUA PASSO FUNDO                         JARDIM GUAND26298174NOVA IGUACU    RJUNIAO UMB DOS CULTOS AFRO BRAS    20121810 000082
10231987175000168817800093673    000032557                    000325570000000000000109                     I0232557     20121800000000350003410000017N291018104700000000000102012180000000000000000000000000000000000000000100000676696708VALDENICE PATROCINIO DOS SANTO          RUA FRANCISCO DE MELO                   SAO BENTO   25041210DUQUE DE CAXIASRJUNIAO UMB DOS CULTOS AFRO BRAS    20121810 000083
10231987175000168817800093673    000032408                    000324080000000000000109                     I0232408     20121800000000350003410000017N291018104700000000000102012180000000000000000000000000000000000000000100002926668708ALCIONE CARVALHO DA COSTA               RUA SAMPAIO CORREA                      JACAREPAGUA 22713560RIO DE JANEIRO RJUNIAO UMB DOS CULTOS AFRO BRAS    20121810 000084
10231987175000168817800093673    000032175                    000321750000000000000109                     I0232175     20121800000000350003410000017N291018104700000000000102012180000000000000000000000000000000000000000100005414691770UANDERSON DE SOUZA XAVIER               RUA: ALFREDO MANSUR                     MORRO GAMA  27150430BARRA DO PIRAI RJUNIAO UMB DOS CULTOS AFRO BRAS    20121810 000085
10231987175000168817800093673    000031698                    000316980000000000000109                     I0231698     20121800000000350003410000017N291018104700000000000102012180000000000000000000000000000000000000000100077597443749RONALDO SILVA DOS SANTOS                RUA: ITAPECERICA                        REALENGO    21730190RIO DE JANEIRO RJUNIAO UMB DOS CULTOS AFRO BRAS    20121810 000086
10231987175000168817800093673    000031669                    000316690000000000000109                     I0231669     20121800000000350003410000017N291018104700000000000102012180000000000000000000000000000000000000000100060855916753MARIZE DOS SANTOS LESSA DE VAS          RUA: CABO MILTON COSME DOS SANTOS       BANGU       21725620RIO DE JANERIRORJUNIAO UMB DOS CULTOS AFRO BRAS    20121810 000087
10231987175000168817800093673    000031527                    000315270000000000000109                     I0231527     20121800000000350003410000017N291018104700000000000102012180000000000000000000000000000000000000000100063607379734FATIMA CONCEICAO GONCALVES DA           RUA: AMANDIU                            IRAJA       21371440RIO DE JANEIRO RJUNIAO UMB DOS CULTOS AFRO BRAS    20121810 000088
10231987175000168817800093673    000031418                    000314180000000000000109                     I0231418     20121800000000350003410000017N291018104700000000000102012180000000000000000000000000000000000000000100062792920700LUIZ CESAR DE OLIVEIRA                  RUA PEREIRA DE FIGUEIREDO               OSWALDO CRUZ21340030RIO DE JANEIRO RJUNIAO UMB DOS CULTOS AFRO BRAS    20121810 000089
10231987175000168817800093673    000031181                    000311810000000000000109                     I0231181     20121800000000350003410000017N291018104700000000000102012180000000000000000000000000000000000000000100002344767703ROSINETE FERREIRA CAMARGO               RUA ARAGO                               JACAREPAGUA 22733130RIO DE JANEIRO RJUNIAO UMB DOS CULTOS AFRO BRAS    20121810 000090
10231987175000168817800093673    000031178                    000311780000000000000109                     I0231178     20121800000000350003410000017N291018104700000000000102012180000000000000000000000000000000000000000100053057457720MARIA CHRISTINA MARINS ROSA             RUA ARAGO                               TANQUE - JAC22733130RIO DE JANEIRO RJUNIAO UMB DOS CULTOS AFRO BRAS    20121810 000091
10231987175000168817800093673    000030936                    000309360000000000000109                     I0230936     20121800000000400003410000017N291018104700000000000102012180000000000000000000000000000000000000000100011243375738NANCI EDIR DA SILVA FERNANDES           AVENIDA IRENE LOPES SODRE               ENGENHO DO M24346040NITEROI        RJUNIAO UMB DOS CULTOS AFRO BRAS    20121810 000092
10231987175000168817800093673    000029849                    000298490000000000000109                     I0229849     20121800000000035003410000017N291018104700000000000102012180000000000000000000000000000000000000000100002926668708ALCIONE CARVALHO DA COSTA               RUA SAMPAIO CORREA                      JACAREPAGUA 22713560RIO DE JANEIRO RJUNIAO UMB DOS CULTOS AFRO BRAS    20121810 000093
10231987175000168817800093673    000029746                    000297460000000000000109                     I0229746     20121800000000035003410000017N291018104700000000000102012180000000000000000000000000000000000000000100005414691770UANDERSON DE SOUZA XAVIER               RUA: ALFREDO MANSUR                     MORRO GAMA  27150430BARRA DO PIRAI RJUNIAO UMB DOS CULTOS AFRO BRAS    20121810 000094
10231987175000168817800093673    000029453                    000294530000000000000109                     I0229453     20121800000000035003410000017N291018104700000000000102012180000000000000000000000000000000000000000100063607379734FATIMA CONCEICAO GONCALVES DA           RUA: AMANDIU                            IRAJA       21371440RIO DE JANEIRO RJUNIAO UMB DOS CULTOS AFRO BRAS    20121810 000095
10231987175000168817800093673    000029314                    000293140000000000000109                     I0229314     20121800000000035003410000017N291018104700000000000102012180000000000000000000000000000000000000000100002344767703ROSINETE FERREIRA CAMARGO               RUA ARAGO                               JACAREPAGUA 22733130RIO DE JANEIRO RJUNIAO UMB DOS CULTOS AFRO BRAS    20121810 000096
10231987175000168817800093673    000029006                    000290060000000000000109                     I0229006     30111800000000040003410000017N261018104700000000000103011180000000000000000000000000000000000000000100076550893704MARCO ANTONIO DE ARAUJO                 RUA ROSANGELA                           OLARIA - MAU25925690MAGE           RJUNIAO UMB DOS CULTOS AFRO BRAS    30111810 000097
10231987175000168817800093673    000028988                    000289880000000000000109                     I0228988     30111800000000040003410000017N241018104700000000000103011180000000000000000000000000000000000000000100034463399300MARIA ENOIA DE SOUSA CORREA             RUA: RODEZIA                            BANCARIO - I21910145RIO DE JANEIRO RJUNIAO UMB DOS CULTOS AFRO BRAS    30111810 000098
10231987175000168817800093673    000028985                    000289850000000000000109                     I0228985     30111800000000040003410000017N241018104700000000000103011180000000000000000000000000000000000000000100013376872783ELIANE MENDES DA SILVA                  RUAPROJETADA G                          SANTA CRUZ  00000000RIO DE JANEIRO RJUNIAO UMB DOS CULTOS AFRO BRAS    30111810 000099
10231987175000168817800093673    000028958                    000289580000000000000109                     I0228958     30111800000000040003410000017N171018104700000000000103011180000000000000000000000000000000000000000100085146595704CARLA MARY MONSORES REGO                RUA D                                   TINGUI      23075570RIO DE JANEIRO RJUNIAO UMB DOS CULTOS AFRO BRAS    30111810 000100
10231987175000168817800093673    000028957                    000289570000000000000109                     I0228957     30111800000000035003410000017N171018104700000000000103011180000000000000000000000000000000000000000100003248430702CRISTIANA ROSA DE OLIVEIRA              ESTRADA DA PORTEIRA                     JARDIM MAR  23821140ITAGUAI        RJUNIAO UMB DOS CULTOS AFRO BRAS    30111810 000101
10231987175000168817800093673    000028935                    000289350000000000000109                     I0228935     12121800000000400003410000017N131018104700000000000101212180000000000000000000000000000000000000000100007564771747BARBARA LISBOA PINTO                    RUA SOUZA BARROS                        ENGENHO NOVO00000000RIO DE JANEIRO RJUNIAO UMB DOS CULTOS AFRO BRAS    12121810 000102
10231987175000168817800093673    000028883                    000288830000000000000109                     I0228883     05121800000000140003410000017N041018104700000000000100512180000000000000000000000000000000000000000100003351716729WAGNER CONCEICAO DO NASCIMENTO          RUA CRISANTEMOS                         HITERLAND -S26171430BELFORD ROXO   RJUNIAO UMB DOS CULTOS AFRO BRAS    05121810 000103
10231987175000168817800093673    000028861                    000288610000000000000109                     I0228861     30111800000000040003410000017N031018104700000000000103011180000000000000000000000000000000000000000100010503933767THIAGO MARQUES DE CARVALHO              TRAVESSA DA SERVIDAO                    CAMPO GRANDE23017405RIO DE JANEIRO RJUNIAO UMB DOS CULTOS AFRO BRAS    30111810 000104
10231987175000168817800093673    000028826                    000288260000000000000109                     I0228826     30111800000000040003410000017N011018104700000000000103011180000000000000000000000000000000000000000100088676889791JANE LUCIA LESSA SILVA                  RUA OLIVEIRA JUNQUEIRA                  BENTO RIBEIR21331170RIO DE JANEIRO RJUNIAO UMB DOS CULTOS AFRO BRAS    30111810 000105
10231987175000168817800093673    000028589                    000285890000000000000109                     I0228589     30111800000000035003410000017N270818104700000000000103011180000000000000000000000000000000000000000100008283050800JOSE RICARDO DE MOURA                   RUA TENENTE SILVINO                     CERAMICA    26030126NOVA IGUACU    RJUNIAO UMB DOS CULTOS AFRO BRAS    30111810 000106
10231987175000168817800093673    000028577                    000285770000000000000109                     I0228577     30111800000000035003410000017N230818104700000000000103011180000000000000000000000000000000000000000100001251801790AMARO LYRA DOS SANTOS FILHO             RUA DOUTOR ANTONIO MARTINS              TAQUARA     22723650RIO DE JANEIRO RJUNIAO UMB DOS CULTOS AFRO BRAS    30111810 000107
10231987175000168817800093673    000028571                    000285710000000000000109                     I0228571     30111800000000035003410000017N230818104700000000000103011180000000000000000000000000000000000000000100012663149705DIEGO PARREIRA DE ARAUJO                RUA ERMENEGILDO DE SOUZA                JARDIM SAO J23890103SEROPEDICA     RJUNIAO UMB DOS CULTOS AFRO BRAS    30111810 000108
10231987175000168817800093673    000028568                    000285680000000000000109                     I0228568     30111800000000035003410000017N230818104700000000000103011180000000000000000000000000000000000000000100011110357761THYAGO ALBERT MORAES CYRILLO S          RUA VINTE E SEIS                        JARDIM DA PA25926765RIO DE JANEIRO RJUNIAO UMB DOS CULTOS AFRO BRAS    30111810 000109
10231987175000168817800093673    000028557                    000285570000000000000109                     I0228557     30111800000000035003410000017N230818104700000000000103011180000000000000000000000000000000000000000100001645493741MARIA FERRAZ DO NASCIMENTO              RUA A JOAO IZAQUE                       BELVEDERE   26032835BARRA DO PIRAI RJUNIAO UMB DOS CULTOS AFRO BRAS    30111810 000110
10231987175000168817800093673    000028548                    000285480000000000000109                     I0228548     30111800000000035003410000017N230818104700000000000103011180000000000000000000000000000000000000000100007346014766LUCIANO FREIRE DE FRANCA                AV. AMARO CAVALCANTE                    ENGENHO DE D20735042RIO DE JANEIRO RJUNIAO UMB DOS CULTOS AFRO BRAS    30111810 000111
10231987175000168817800093673    000028538                    000285380000000000000109                     I0228538     30111800000000035003410000017N230818104700000000000103011180000000000000000000000000000000000000000100000000000000MARINEIDE SERGIO CABRAL                 RUA INAMBA                              POSSE       26021160NOVA IGUACU    RJUNIAO UMB DOS CULTOS AFRO BRAS    30111810 000112
10231987175000168817800093673    000028535                    000285350000000000000109                     I0228535     30111800000000035003410000017N230818104700000000000103011180000000000000000000000000000000000000000100000000000656GINO ZACARIAS DE JESUS                  RUA NOVE                                VILA GENI   23830010ITAGUAI        RJUNIAO UMB DOS CULTOS AFRO BRAS    30111810 000113
10231987175000168817800093673    000028532                    000285320000000000000109                     I0228532     30111800000000035003410000017N230818104700000000000103011180000000000000000000000000000000000000000100010949478733AUCELIA MARIA DE SOUZA LIMA             RUA JOSE FRANCISCO DE SOUZA PORTO       ARNALDO EUGE23016010RIO DE JANEIRO RJUNIAO UMB DOS CULTOS AFRO BRAS    30111810 000114
10231987175000168817800093673    000028527                    000285270000000000000109                     I0228527     30111800000000035003410000017N230818104700000000000103011180000000000000000000000000000000000000000100003863156714VILMA TEREZA DE SOUZA AMARAL            RUA GUATEMALENSE                        JARDIM MERIT25555700SAO JOAO DE MERRJUNIAO UMB DOS CULTOS AFRO BRAS    30111810 000115
10231987175000168817800093673    000028524                    000285240000000000000109                     I0228524     30111800000000035003410000017N230818104700000000000103011180000000000000000000000000000000000000000100078759676787VANDA LUCIA LIMA DA SILVA               RUA ALMIRANTE JUSTINO PROENCA           CAMPO GRANDE23090310RIO DE JANEIRO RJUNIAO UMB DOS CULTOS AFRO BRAS    30111810 000116
10231987175000168817800093673    000028521                    000285210000000000000109                     I0228521     30111800000000035003410000017N230818104700000000000103011180000000000000000000000000000000000000000100035914661749CELSO NERY GALDARD                      RUA: BENJAMIN DA ROCHA JUNIOR           PARQUE FLUMI25045010DUQUE DE CAXIASRJUNIAO UMB DOS CULTOS AFRO BRAS    30111810 000117
10231987175000168817800093673    000028507                    000285070000000000000109                     I0228507     30111800000000035003410000017N220818104700000000000103011180000000000000000000000000000000000000000100075164779749IVANILDO FURTADO DA SILVA               RUA: LUIZ DE CASTRO                     PILARES     21760732RIO DE JANEIRO RJUNIAO UMB DOS CULTOS AFRO BRAS    30111810 000118
10231987175000168817800093673    000028488                    000284880000000000000109                     I0228488     30111800000000040003410000017N200818104700000000000103011180000000000000000000000000000000000000000100002098051700FELIPE LOPES DA COSTA CHAVES            RUA: JOSE PINTO FAUSTINO                IPIRANGA    26293441NOVA IGUACU    RJUNIAO UMB DOS CULTOS AFRO BRAS    30111810 000119
10231987175000168817800093673    000028486                    000284860000000000000109                     I0228486     30111800000000035003410000017N200818104700000000000103011180000000000000000000000000000000000000000100012119575789RAYKA DA SILVA BATISTA                  RUA PARAISO                             PIABETA     25931638MAGE           RJUNIAO UMB DOS CULTOS AFRO BRAS    30111810 000120
10231987175000168817800093673    000028481                    000284810000000000000109                     I0228481     30111800000000040003410000017N200818104700000000000103011180000000000000000000000000000000000000000100002414887702MARGARETH MARIA DA SILVA GONCA          RUA: SEBASTIAO DE CARVALHO              RAMOS       21061670RIO DE JANEIRO RJUNIAO UMB DOS CULTOS AFRO BRAS    30111810 000121
10231987175000168817800093673    000028480                    000284800000000000000109                     I0228480     30111800000000040003410000017N200818104700000000000103011180000000000000000000000000000000000000000100066645352700NILZA BELISARIO DAMIAO                  RUA ESPERANCA                           JARDIM PARAI00000000RIO DE JANEIRO RJUNIAO UMB DOS CULTOS AFRO BRAS    30111810 000122
10231987175000168817800093673    000028476                    000284760000000000000109                     I0228476     30111800000000040003410000017N200818104700000000000103011180000000000000000000000000000000000000000100053860225120OTILIA REGINA DE ALENCAR                RUA PROJETADA                           VERIDIANA   00000000RIO DE JANEIRO RJUNIAO UMB DOS CULTOS AFRO BRAS    30111810 000123
10231987175000168817800093673    000028462                    000284620000000000000109                     I0228462     30111800000000040003410000017N200818104700000000000103011180000000000000000000000000000000000000000100093265883787ROSANGELA BARBOSA DE CARVALHO           CAMINHO DOS TELEGRAFOS                  SENADOR CAMA21832415RIO DE JANEIRO RJUNIAO UMB DOS CULTOS AFRO BRAS    30111810 000124
10231987175000168817800093673    000028461                    000284610000000000000109                     I0228461     30111800000000040003410000017N200818104700000000000103011180000000000000000000000000000000000000000100010212584740TIAGO VEROL DE SOUZA                    RUA: REGISTRO                           SENADOR CAMA21832006RIO DE JANEIRO RJUNIAO UMB DOS CULTOS AFRO BRAS    30111810 000125
10231987175000168817800093673    000028457                    000284570000000000000109                     I0228457     30111800000000040003410000017N200818104700000000000103011180000000000000000000000000000000000000000100007416975727ANGELICA AMARAL GOTELIP BARBOS          RUA MARECHAL MARCIANO - TRAVESSA 120    REALENGO    21735652RIO DE JANEIRO RJUNIAO UMB DOS CULTOS AFRO BRAS    30111810 000126
10231987175000168817800093673    000028455                    000284550000000000000109                     I0228455     30111800000000035003410000017N200818104700000000000103011180000000000000000000000000000000000000000100009329422705FABIO SANTANA DE ANDRADE                RUA: LUIS BRAILE                        VILA SANTA M00000000RIO DE JANEIRO RJUNIAO UMB DOS CULTOS AFRO BRAS    30111810 000127
10231987175000168817800093673    000028454                    000284540000000000000109                     I0228454     30111800000000040003410000017N200818104700000000000103011180000000000000000000000000000000000000000100009297297730FLAVIO JOAQUIM DOS SANTOS               RUA: SAO PAULO                          PALMARES    23585800RIO DE JANEIRO RJUNIAO UMB DOS CULTOS AFRO BRAS    30111810 000128
10231987175000168817800093673    000028453                    000284530000000000000109                     I0228453     30111800000000040003410000017N200818104700000000000103011180000000000000000000000000000000000000000100008283706721LEVY ANDRE ASSIS FERREIRA DA S          TRAVESSA SANTO ANTONIO                  MARECHAL HER21557190RIO DE JANEIRO RJUNIAO UMB DOS CULTOS AFRO BRAS    30111810 000129
10231987175000168817800093673    000028452                    000284520000000000000109                     I0228452     30111800000000040003410000017N200818104700000000000103011180000000000000000000000000000000000000000100010440702771AMANDA APARECIDA AZEVEDO CARDO          RUA IVONETE                             CONJUNTO SAN00000000RIO DE JANEIRO RJUNIAO UMB DOS CULTOS AFRO BRAS    30111810 000130
10231987175000168817800093673    000028451                    000284510000000000000109                     I0228451     30111800000000040003410000017N200818104700000000000103011180000000000000000000000000000000000000000100011709990775JOYCE MARA PINHEIRO DA SILVA            RUA SILVIO TIBIRICA                     TURIACU     21540200RIO DE JANEIRO RJUNIAO UMB DOS CULTOS AFRO BRAS    30111810 000131
10231987175000168817800093673    000028450                    000284500000000000000109                     I0228450     30111800000000035003410000017N200818104700000000000103011180000000000000000000000000000000000000000100014963009714MICHELLE DA SILVA SOARES                RUA MINAS GERAIS                        PIABETA     25935525MAGE           RJUNIAO UMB DOS CULTOS AFRO BRAS    30111810 000132
10231987175000168817800093673    000028448                    000284480000000000000109                     I0228448     30111800000000035003410000017N200818104700000000000103011180000000000000000000000000000000000000000100000213766701ROSIVANIA CRUZ DA SILVA                 RUA ERNANI DE BRITO                     SEPETIBA    23535131RIO DE JANEIRO RJUNIAO UMB DOS CULTOS AFRO BRAS    30111810 000133
10231987175000168817800093673    000028445                    000284450000000000000109                     I0228445     30111800000000035003410000017N200818104700000000000103011180000000000000000000000000000000000000000100005380679773ROBERTO DE OLIVEIRA RIBEIRO JU          RUA VINTE E TRES                        SANTA CRUZ  23500000RIO DE JANEIRO RJUNIAO UMB DOS CULTOS AFRO BRAS    30111810 000134
10231987175000168817800093673    000028442                    000284420000000000000109                     I0228442     30111800000000040003410000017N200818104700000000000103011180000000000000000000000000000000000000000100010486021769SIDNEY RODRIGUES DA SILVA JUNI          RUA DAS VIDEIRAS                        MORADA VERDE23065520PACIENCIA      RJUNIAO UMB DOS CULTOS AFRO BRAS    30111810 000135
10231987175000168817800093673    000028440                    000284400000000000000109                     I0228440     30111800000000035003410000017N200818104700000000000103011180000000000000000000000000000000000000000100003256338780REGINALDO ROSA DA SILVA                 RUA PAULO AFONSO                        IPIRANGA ALI26293381NOVA IGUACU    RJUNIAO UMB DOS CULTOS AFRO BRAS    30111810 000136
10231987175000168817800093673    000028439                    000284390000000000000109                     I0228439     30111800000000035003410000017N200818104700000000000103011180000000000000000000000000000000000000000100004474665775REGINALDO RAMOS DA SILVA                RUA JULIO DE CASTILHOS                  JARDIM ROTSE25270210DUQUE DE CAXIASRJUNIAO UMB DOS CULTOS AFRO BRAS    30111810 000137
10231987175000168817800093673    000028434                    000284340000000000000109                     I0228434     30111800000000035003410000017N200818104700000000000103011180000000000000000000000000000000000000000100093678754791ROSINETE MARIA DE OLIVEIRA              RUA ANGOLA                              CAPIVARI    25145080DUQUE DE CAXIASRJUNIAO UMB DOS CULTOS AFRO BRAS    30111810 000138
10231987175000168817800093673    000028433                    000284330000000000000109                     I0228433     30111800000000035003410000017N200818104700000000000103011180000000000000000000000000000000000000000100009289778709HELAINE FRANKLIN TEIXEIRA               RUA CACHOEIRA ALTA                      JARDIM MARAV23031070CAMPO GRANDE   RJUNIAO UMB DOS CULTOS AFRO BRAS    30111810 000139
10231987175000168817800093673    000028431                    000284310000000000000109                     I0228431     30111800000000035003410000017N200818104700000000000103011180000000000000000000000000000000000000000100001096953722CLAUDIA GUIMARAES                       ESTRADA GUANDU DO SENA - RUA 29         CAMPO GRANDE23091220RIO DE JANEIRO RJUNIAO UMB DOS CULTOS AFRO BRAS    30111810 000140
10231987175000168817800093673    000028428                    000284280000000000000109                     I0228428     30111800000000040003410000017N200818104700000000000103011180000000000000000000000000000000000000000100095760024787LUCIMARA DIAS DE OLIVEIRA               RUA SANTO ELIAS                         TURIACU     21540390RIO DE JANEIRO RJUNIAO UMB DOS CULTOS AFRO BRAS    30111810 000141
10231987175000168817800093673    000028426                    000284260000000000000109                     I0228426     30111800000000035003410000017N200818104700000000000103011180000000000000000000000000000000000000000100012218258790WILIAM ULERICH MARTINS                  RUA ANTONIO AUSTREGESILO                INHAUMA     21061300RIO DE JANEIRO RJUNIAO UMB DOS CULTOS AFRO BRAS    30111810 000142
10231987175000168817800093673    000028425                    000284250000000000000109                     I0228425     30111800000000035003410000017N200818104700000000000103011180000000000000000000000000000000000000000100003654035710ELLEN CRISTINA DE ORNELAS NARC          RUA MARECHAL MARCIANO                   REALENGO    21721011RIO DE JANEIRO RJUNIAO UMB DOS CULTOS AFRO BRAS    30111810 000143
10231987175000168817800093673    000028424                    000284240000000000000109                     I0228424     30111800000000035003410000017N200818104700000000000103011180000000000000000000000000000000000000000100009924715790JOSEFA MARIA DA SILVA                   TRAVESSA DOS LAVRADORES                 VILA SAO DOM26271340NOVA IGUACU    RJUNIAO UMB DOS CULTOS AFRO BRAS    30111810 000144
10231987175000168817800093673    000028423                    000284230000000000000109                     I0228423     30111800000000035003410000017N200818104700000000000103011180000000000000000000000000000000000000000100012687881716DAIANA SANTANA DE LIMA                  RUA MANAUS                              CAMPOS ELISE25225000DUQUE DE CAXIASRJUNIAO UMB DOS CULTOS AFRO BRAS    30111810 000145
10231987175000168817800093673    000028422                    000284220000000000000109                     I0228422     30111800000000035003410000017N200818104700000000000103011180000000000000000000000000000000000000000100007040620707MONICA BORGES MATTOS                    RUA INHAMUNS                            VILA VALQUEI21321330RIO DE JANEIRO RJUNIAO UMB DOS CULTOS AFRO BRAS    30111810 000146
10231987175000168817800093673    000028420                    000284200000000000000109                     I0228420     30111800000000035003410000017N200818104700000000000103011180000000000000000000000000000000000000000100093255586704GRECIETE GOUDARD                        ESTRADA DO CAMPINHO                     CAMPO GRANDE23066540RIO DE JANEIRO RJUNIAO UMB DOS CULTOS AFRO BRAS    30111810 000147
10231987175000168817800093673    000028419                    000284190000000000000109                     I0228419     30111800000000035003410000017N200818104700000000000103011180000000000000000000000000000000000000000100079034780791PAULO ROBERTO DE SOUZA MORENO           RUA CORONEL MALHAES                     TIRADENTES  26351180NOVA IGUACU    RJUNIAO UMB DOS CULTOS AFRO BRAS    30111810 000148
10231987175000168817800093673    000028418                    000284180000000000000109                     I0228418     30111800000000035003410000017N200818104700000000000103011180000000000000000000000000000000000000000100005229971711CATIA CILENE MASCARENHAS                TRAVESSA AMOR DO CAMPO                  CONJUNTO SAN21843743CAMPO GRANDE   RJUNIAO UMB DOS CULTOS AFRO BRAS    30111810 000149
10231987175000168817800093673    000028417                    000284170000000000000109                     I0228417     30111800000000035003410000017N200818104700000000000103011180000000000000000000000000000000000000000100089982118749LENIR SILVA DOS SANTOS                  RUA DA LUTA                             JARDIM LARAN26291278RIO DE JANEIRO RJUNIAO UMB DOS CULTOS AFRO BRAS    30111810 000150
10231987175000168817800093673    000028413                    000284130000000000000109                     I0228413     30111800000000040003410000017N200818104700000000000103011180000000000000000000000000000000000000000100064494527734RONALDO ROSAS ALVES                     ESTRADA COMANDANTE                      PRATA       25976140TERESOPOLIS    RJUNIAO UMB DOS CULTOS AFRO BRAS    30111810 000151
10231987175000168817800093673    000028406                    000284060000000000000109                     I0228406     30111800000000040003410000017N200818104700000000000103011180000000000000000000000000000000000000000100012295676746JEFFERSON ANTONIO TELLES GALDI          RUA MOUZIN DE ALBUQUERQUE               SAO VICENTE 26178080BELFORD ROXO   RJUNIAO UMB DOS CULTOS AFRO BRAS    30111810 000152
10231987175000168817800093673    000028405                    000284050000000000000109                     I0228405     30111800000000040003410000017N200818104700000000000103011180000000000000000000000000000000000000000100091083532715MARCOS AURELIO PEREIRA RAMOS            RUA MATO GROSSO                         SANTA CECILI25957250TERESOPOLIS    RJUNIAO UMB DOS CULTOS AFRO BRAS    30111810 000153
10231987175000168817800093673    000028403                    000284030000000000000109                     I0228403     30111800000000035003410000017N200818104700000000000103011180000000000000000000000000000000000000000100005436665730JORGE LUIZ VICTORIO LIMA                AVENIDA MARCOVALDI                      NOVA ESPERAN26113040BELFORD ROXO   RJUNIAO UMB DOS CULTOS AFRO BRAS    30111810 000154
10231987175000168817800093673    000028401                    000284010000000000000109                     I0228401     30111800000000035003410000017N200818104700000000000103011180000000000000000000000000000000000000000100003250570796VERONICA LUCIA DA CRUZ                  ESTRADA DOUTOR FARRULA                  SAO FRANCISC26125400BELFORD ROXO   RJUNIAO UMB DOS CULTOS AFRO BRAS    30111810 000155
10231987175000168817800093673    000028400                    000284000000000000000109                     I0228400     30111800000000035003410000017N200818104700000000000103011180000000000000000000000000000000000000000100002527980740ARMANDO DE ALMEIDA                      RUA PEDRO JOSE DE OLIVEIRA              VARGEM GRAND27145231BARRA DO PIRAI RJUNIAO UMB DOS CULTOS AFRO BRAS    30111810 000156
10231987175000168817800093673    000028399                    000283990000000000000109                     I0228399     30111800000000035003410000017N200818104700000000000103011180000000000000000000000000000000000000000100005978854785ALEXANDRE MOTA DOS SANTOS               RUA BRUNO SENDER                        JARDIM NOVA 26266040NOVA IGUACU    RJUNIAO UMB DOS CULTOS AFRO BRAS    30111810 000157
10231987175000168817800093673    000028392                    000283920000000000000109                     I0228392     30111800000000035003410000017N200818104700000000000103011180000000000000000000000000000000000000000100095846190715ANA MARIA NICANOR DE QUADRO             RUA PASSO FUNDO                         JARDIM GUAND26298189NOVA IGUACU    RJUNIAO UMB DOS CULTOS AFRO BRAS    30111810 000158
10231987175000168817800093673    000028391                    000283910000000000000109                     I0228391     30111800000000035003410000017N200818104700000000000103011180000000000000000000000000000000000000000100001161586709ALEXANDRE PIMPAREL DA SILVA             RUA: COMENDADOR VENACIO                 PALHADA     26290204NOVA IGUACU    RJUNIAO UMB DOS CULTOS AFRO BRAS    30111810 000159
10231987175000168817800093673    000028390                    000283900000000000000109                     I0228390     30111800000000035003410000017N200818104700000000000103011180000000000000000000000000000000000000000100000000000000FABIO DA SILVA                          RUA CAMORIM                             JARDIM DELAM26317140QUEIMADOS      RJUNIAO UMB DOS CULTOS AFRO BRAS    30111810 000160
10231987175000168817800093673    000028389                    000283890000000000000109                     I0228389     30111800000000035003410000017N200818104700000000000103011180000000000000000000000000000000000000000100010765062755IVONE JOAO PEDRO                        RUA MARMIARI                            SENADOR CAMA21831000RIO DE JANEIRO RJUNIAO UMB DOS CULTOS AFRO BRAS    30111810 000161
10231987175000168817800093673    000028388                    000283880000000000000109                     I0228388     30111800000000035003410000017N200818104700000000000103011180000000000000000000000000000000000000000100085957879720MARIA DA APARECIDA VICENTE DUQ          RUA FRANCISCO VIOLTI                    HELIOPLOIS  26125440BELFORD ROXO   RJUNIAO UMB DOS CULTOS AFRO BRAS    30111810 000162
10231987175000168817800093673    000028387                    000283870000000000000109                     I0228387     30111800000000035003410000017N200818104700000000000103011180000000000000000000000000000000000000000100005933193704ANA PAULA DA SILVA SANTOS               RUA APIACA                              JARDIM BARRO25267290DUQUE DE CAXIASRJUNIAO UMB DOS CULTOS AFRO BRAS    30111810 000163
10231987175000168817800093673    000028386                    000283860000000000000109                     I0228386     30111800000000035003410000017N200818104700000000000103011180000000000000000000000000000000000000000100010018753701PAULA DE BRITO                          RUA FRANCISCO VIOLTE                    HELIOPOLIS  26125440RIO DE JANEIRO RJUNIAO UMB DOS CULTOS AFRO BRAS    30111810 000164
10231987175000168817800093673    000028384                    000283840000000000000109                     I0228384     30111800000000035003410000017N200818104700000000000103011180000000000000000000000000000000000000000100085542091768SUELY PEREIRA DA SILVA CALIXTO          RUA LUSITANIA II                        IMBARIE     25266005DUQUE DE CAXIASRJUNIAO UMB DOS CULTOS AFRO BRAS    30111810 000165
10231987175000168817800093673    000028378                    000283780000000000000109                     I0228378     30111800000000035003410000017N200818104700000000000103011180000000000000000000000000000000000000000100000858723778GEOVANI FERNANDA DA SILVA               RUA SOFIA BARRETO                       DUMAS - SANT23550700RIO DE JANEIRO RJUNIAO UMB DOS CULTOS AFRO BRAS    30111810 000166
10231987175000168817800093673    000028376                    000283760000000000000109                     I0228376     30111800000000035003410000017N200818104700000000000103011180000000000000000000000000000000000000000100000919377793JOSE IVAN MARCELINO FILHO               RUA ERNANE PEREIRA                      CARLOS SAMPA26089115NOVA IGUACU    RJUNIAO UMB DOS CULTOS AFRO BRAS    30111810 000167
10231987175000168817800093673    000028375                    000283750000000000000109                     I0228375     30111800000000035003410000017N200818104700000000000103011180000000000000000000000000000000000000000100001649750714CRISTIANE JOSE DA SILVA                 AVENIDA CALOMBE                         PARQUE ELDOR25231020DUQUE DE CAXIASRJUNIAO UMB DOS CULTOS AFRO BRAS    30111810 000168
10231987175000168817800093673    000028370                    000283700000000000000109                     I0228370     30111800000000040003410000017N200818104700000000000103011180000000000000000000000000000000000000000100005234258726LUANNA RODRIGUES NASCIMENTO LO          RUA SETE                                VALERIO     28680000CACHOEIRA DE MARJUNIAO UMB DOS CULTOS AFRO BRAS    30111810 000169
10231987175000168817800093673    000028369                    000283690000000000000109                     I0228369     30111800000000040003410000017N200818104700000000000103011180000000000000000000000000000000000000000100005770480742NARAYAMA MARTINS RODRIGUES LOU          RUA NABYCALIFA                          TABORDA     28680000CACHOEIRA DE MARJUNIAO UMB DOS CULTOS AFRO BRAS    30111810 000170
10231987175000168817800093673    000028368                    000283680000000000000109                     I0228368     30111800000000040003410000017N200818104700000000000103011180000000000000000000000000000000000000000100002965368736REGINA CONCEICAO                        AVENIDA BOQUEIRAO                       BOA VISTA   28680000CACHOEIRA DE MARJUNIAO UMB DOS CULTOS AFRO BRAS    30111810 000171
10231987175000168817800093673    000028367                    000283670000000000000109                     I0228367     30111800000000040003410000017N200818104700000000000103011180000000000000000000000000000000000000000100009963194761FERNANDO PECANHA PIRES                  RUA GENERAL BASILIO                     TABORDA     28680000CACHOEIRA DE MARJUNIAO UMB DOS CULTOS AFRO BRAS    30111810 000172
10231987175000168817800093673    000028365                    000283650000000000000109                     I0228365     30111800000000035003410000017N200818104700000000000103011180000000000000000000000000000000000000000100002331392730ANA MARIA DOS SANTOS VIEIRA             RUA OITO                                PARQUE ALVOR26053220NOVA IGUACU    RJUNIAO UMB DOS CULTOS AFRO BRAS    30111810 000173
10231987175000168817800093673    000028363                    000283630000000000000109                     I0228363     30111800000000035003410000017N200818104700000000000103011180000000000000000000000000000000000000000100003018847733MARIA AILHA BERNARDO PINTO              RUA RUBIAO JUNIOR                       CENTRO      23860000MANGARATIBA    RJUNIAO UMB DOS CULTOS AFRO BRAS    30111810 000174
10231987175000168817800093673    000028361                    000283610000000000000109                     I0228361     30111800000000035003410000017N200818104700000000000103011180000000000000000000000000000000000000000100005995214730LUCIANO GONCALVES DE SOUZA              RUA CLARIMUNDO DE MELO                  PIEDADE     20740323RIO DE JANEIRO RJUNIAO UMB DOS CULTOS AFRO BRAS    30111810 000175
10231987175000168817800093673    000028360                    000283600000000000000109                     I0228360     30111800000000035003410000017N200818104700000000000103011180000000000000000000000000000000000000000100001162883707SUNEY MENEZES MACHADO                   ESTRADA DO ENCANAMENTO                  BARBADO     23060000RIO DE JANEIRO RJUNIAO UMB DOS CULTOS AFRO BRAS    30111810 000176
10231987175000168817800093673    000028359                    000283590000000000000109                     I0228359     30111800000000035003410000017N200818104700000000000103011180000000000000000000000000000000000000000100004275325745MAIKE OLIVEIRA DA COSTA                 TRAVESSA MARTA DA ROCHA                 ABOLICAO    20755030RIO DE JANEIRO RJUNIAO UMB DOS CULTOS AFRO BRAS    30111810 000177
10231987175000168817800093673    000028358                    000283580000000000000109                     I0228358     30111800000000035003410000017N200818104700000000000103011180000000000000000000000000000000000000000100007852297790IRENE FRANCISCO LIMA                    RUA VIRGILIO VARZEA                     VILA SAO LUI25051110DUQUE DE CAXIASRJUNIAO UMB DOS CULTOS AFRO BRAS    30111810 000178
10231987175000168817800093673    000028355                    000283550000000000000109                     I0228355     30111800000000035003410000017N200818104700000000000103011180000000000000000000000000000000000000000100006915594736CINTIA FERREIRA                         RUA VALDEMAR GALDINO                    JARDIM BELO 26480410RIO DE JANEIRO RJUNIAO UMB DOS CULTOS AFRO BRAS    30111810 000179
10231987175000168817800093673    000028351                    000283510000000000000109                     I0228351     30111800000000035003410000017N200818104700000000000103011180000000000000000000000000000000000000000100009409455766DANIELE MARTINS MEDEIROS DE FR          RUA D                                   BELA VISTA  23860000MANGARATIBA    RJUNIAO UMB DOS CULTOS AFRO BRAS    30111810 000180
10231987175000168817800093673    000028350                    000283500000000000000109                     I0228350     30111800000000035003410000017N200818104700000000000103011180000000000000000000000000000000000000000100090219023700GUARACIARA CORREA PASCHOAL              RUA JOSE CABRAL                         VAL VERDE   26290783NOVA IGUACU    RJUNIAO UMB DOS CULTOS AFRO BRAS    30111810 000181
10231987175000168817800093673    000028347                    000283470000000000000109                     I0228347     30111800000000035003410000017N200818104700000000000103011180000000000000000000000000000000000000000100023970090563MARCIA VIEIRA SALES                     RUA LOPO SARAIVA                        TANQUE - JAC22740220RIO DE JANEIRO RJUNIAO UMB DOS CULTOS AFRO BRAS    30111810 000182
10231987175000168817800093673    000028345                    000283450000000000000109                     I0228345     30111800000000035003410000017N200818104700000000000103011180000000000000000000000000000000000000000100006726905432DAYVIDY RAMON CANDIDO                   RUA MARACA                              PARQUE MUCAJ26415055JAPERI         RJUNIAO UMB DOS CULTOS AFRO BRAS    30111810 000183
10231987175000168817800093673    000028343                    000283430000000000000109                     I0228343     30111800000000035003410000017N200818104700000000000103011180000000000000000000000000000000000000000100009445907728VICTOR DOS SANTOS ALLEN                 RUA PEDRO TELES                         CENTRO      25515032SAO JOAO DE MERRJUNIAO UMB DOS CULTOS AFRO BRAS    30111810 000184
10231987175000168817800093673    000028341                    000283410000000000000109                     I0228341     30111800000000035003410000017N200818104700000000000103011180000000000000000000000000000000000000000100009145082707ELAINE CRISTINA DE MORAES               RUA GENTIL DO OURO                      AGUIAR TORRE23063340INHOAIBA       RJUNIAO UMB DOS CULTOS AFRO BRAS    30111810 000185
10231987175000168817800093673    000028340                    000283400000000000000109                     I0228340     30111800000000035003410000017N200818104700000000000103011180000000000000000000000000000000000000000100015429555134OBIRACI SILVA DO NASCIMENTO             ESTRADA VELHA DE MARICA                 MARIA PAULA 24756280SAO GONCALO    RJUNIAO UMB DOS CULTOS AFRO BRAS    30111810 000186
10231987175000168817800093673    000028338                    000283380000000000000109                     I0228338     30111800000000035003410000017N200818104700000000000103011180000000000000000000000000000000000000000100000000000000LUCIANO SOARES DA SILVA                 RUA MEDEIROS AGUAS MARAVILHOSAS         LINHA AZUL  27910000MACAE          RJUNIAO UMB DOS CULTOS AFRO BRAS    30111810 000187
10231987175000168817800093673    000028337                    000283370000000000000109                     I0228337     30111800000000035003410000017N200818104700000000000103011180000000000000000000000000000000000000000100013849060705LEONARDO ENEDINA DE MELO                RUA JULIO VERNER                        SANTA RITA  26050517NOVA IGUACU    RJUNIAO UMB DOS CULTOS AFRO BRAS    30111810 000188
10231987175000168817800093673    000028336                    000283360000000000000109                     I0228336     30111800000000035003410000017N200818104700000000000103011180000000000000000000000000000000000000000100082391106734CASSIO SOUZA DA COSTA                   RUA RIACHUELO                           JARDIM ESTOR26112220BELFORD ROXO   RJUNIAO UMB DOS CULTOS AFRO BRAS    30111810 000189
10231987175000168817800093673    000028335                    000283350000000000000109                     I0228335     30111800000000035003410000017N200818104700000000000103011180000000000000000000000000000000000000000100087798999787NILZETE DA CONCEICAO FELIX              RUA PROJETADA                           JARDIM ANHAN25264030DUQUE DE CAXIASRJUNIAO UMB DOS CULTOS AFRO BRAS    30111810 000190
10231987175000168817800093673    000028333                    000283330000000000000109                     I0228333     30111800000000035003410000017N200818104700000000000103011180000000000000000000000000000000000000000100004842101490MARIA DE LOURDES FARIAS DOS SA          RUA HELIO DE OLIVEIRA                   PARADA MORAB25000000DUQUE DE CAXIASRJUNIAO UMB DOS CULTOS AFRO BRAS    30111810 000191
10231987175000168817800093673    000028331                    000283310000000000000109                     I0228331     30111800000000035003410000017N200818104700000000000103011180000000000000000000000000000000000000000100004474701755JACIRA DE ALMEIDA BATISTA JULI          AVENIDA SAO PAULO                       PARQUE MARIL25225660DUQUE DE CAXIASRJUNIAO UMB DOS CULTOS AFRO BRAS    30111810 000192
10231987175000168817800093673    000028328                    000283280000000000000109                     I0228328     30111800000000035003410000017N200818104700000000000103011180000000000000000000000000000000000000000100009250353782LUIZ CARLOS MATOLA                      APIACA                                  JARDIM PRIMA25056270DUQUE DE CAXIASRJUNIAO UMB DOS CULTOS AFRO BRAS    30111810 000193
10231987175000168817800093673    000028327                    000283270000000000000109                     I0228327     30111800000000035003410000017N200818104700000000000103011180000000000000000000000000000000000000000100012345678910LUCIANA LUISA PEREIRA                   TRAVESSA JOAO DE BARRO                  LAGOMAR     27966870MACAE          RJUNIAO UMB DOS CULTOS AFRO BRAS    30111810 000194
10231987175000168817800093673    000028326                    000283260000000000000109                     I0228326     30111800000000035003410000017N200818104700000000000103011180000000000000000000000000000000000000000100012464631728DIEGO TACITO COSTA HENRIQUE             RUA YONE MUSSI                          MALVINAS    27946310MACAE          RJUNIAO UMB DOS CULTOS AFRO BRAS    30111810 000195
10231987175000168817800093673    000028325                    000283250000000000000109                     I0228325     30111800000000035003410000017N200818104700000000000103011180000000000000000000000000000000000000000100001768493782MARIA DA PENHA CORREA PINTO             RUA UM                                  BOSQUE AZUL 27971250MACAE          RJUNIAO UMB DOS CULTOS AFRO BRAS    30111810 000196
10231987175000168817800093673    000028324                    000283240000000000000109                     I0228324     30111800000000035003410000017N200818104700000000000103011180000000000000000000000000000000000000000100078514533568PAULO SERGIO SANTOS SANTANA             RUA W                                   LAGOMAR     27966590MACAE          RJUNIAO UMB DOS CULTOS AFRO BRAS    30111810 000197
10231987175000168817800093673    000028322                    000283220000000000000109                     I0228322     30111800000000035003410000017N200818104700000000000103011180000000000000000000000000000000000000000100007208431701WEMERSON JOAO FARIAS DA SILVA           RUA: C                                  SEPETIBA    23545040RIO DE JANEIRO RJUNIAO UMB DOS CULTOS AFRO BRAS    30111810 000198
10231987175000168817800093673    000028321                    000283210000000000000109                     I0228321     30111800000000035003410000017N200818104700000000000103011180000000000000000000000000000000000000000100073960560710CLAUDIA MARIA DE OLIVEIRA DOS           RUA CARATUVA                            JARDIM SULAC22725020RIO DE JANEIRO RJUNIAO UMB DOS CULTOS AFRO BRAS    30111810 000199
10231987175000168817800093673    000028320                    000283200000000000000109                     I0228320     30111800000000035003410000017N200818104700000000000103011180000000000000000000000000000000000000000100014933850704LIDIA GABRIELLE DIAS RIBEIRO            RUA JORGE BRAGANCA                      BOM PASTOR  26110080BELFORD ROXO   RJUNIAO UMB DOS CULTOS AFRO BRAS    30111810 000200
10231987175000168817800093673    000028318                    000283180000000000000109                     I0228318     30111800000000035003410000017N200818104700000000000103011180000000000000000000000000000000000000000100001478776790CLEUSA FERREIRA PEREIRA                 RUA THEREMIN                            COELHO NETO 21530290RIO DE JANEIRO RJUNIAO UMB DOS CULTOS AFRO BRAS    30111810 000201
10231987175000168817800093673    000028316                    000283160000000000000109                     I0228316     30111800000000035003410000017N200818104700000000000103011180000000000000000000000000000000000000000100010292272766MARCIA JUPIRA SANTOS GONZAGA            RUA ANTONIO FELIX                       CENTRO      26520081NILOPOLIS      RJUNIAO UMB DOS CULTOS AFRO BRAS    30111810 000202
10231987175000168817800093673    000028315                    000283150000000000000109                     I0228315     30111800000000035003410000017N200818104700000000000103011180000000000000000000000000000000000000000100090490894704EVELINE DA CONCEICAO                    AVENIDA ATLANTIDA                       LAGOMAR     27966000MACAE          RJUNIAO UMB DOS CULTOS AFRO BRAS    30111810 000203
10231987175000168817800093673    000028314                    000283140000000000000109                     I0228314     30111800000000035003410000017N200818104700000000000103011180000000000000000000000000000000000000000100013397736781JOVANE RANGEL DA SILVA                  RUA SILVA JARDIM                        CENTRO      27910340MACAE          RJUNIAO UMB DOS CULTOS AFRO BRAS    30111810 000204
10231987175000168817800093673    000028313                    000283130000000000000109                     I0228313     30111800000000035003410000017N200818104700000000000103011180000000000000000000000000000000000000000100004188514760LUIZ CARLOS PEREIRA DA SILVA            RUA W                                   LAGOMAR     27966755MACAE          RJUNIAO UMB DOS CULTOS AFRO BRAS    30111810 000205
10231987175000168817800093673    000028312                    000283120000000000000109                     I0228312     30111800000000035003410000017N200818104700000000000103011180000000000000000000000000000000000000000100016492108760TIAGO LOPES DE AZEVEDO SILVA            RUA X                                   PARADA MODEL25943365GUAPIMIRIM     RJUNIAO UMB DOS CULTOS AFRO BRAS    30111810 000206
10231987175000168817800093673    000028311                    000283110000000000000109                     I0228311     30111800000000035003410000017N200818104700000000000103011180000000000000000000000000000000000000000100000000000000LEONARDO EUGENIO DOS SANTOS             RUA LUIZ PINTO DA SILVA                 PRAIA CAMPIS27923200MACAE          RJUNIAO UMB DOS CULTOS AFRO BRAS    30111810 000207
10231987175000168817800093673    000028310                    000283100000000000000109                     I0228310     30111800000000035003410000017N200818104700000000000103011180000000000000000000000000000000000000000100095181890725ALEXANDRE DE SOUZA TAVARES SEN          RUA DOM MANOEL                          DOM RODRIGO 26260230NOVA IGUACU    RJUNIAO UMB DOS CULTOS AFRO BRAS    30111810 000208
10231987175000168817800093673    000028309                    000283090000000000000109                     I0228309     30111800000000035003410000017N200818104700000000000103011180000000000000000000000000000000000000000100014527767763THIERRY PADILHA MOTA                    RUA ALCIR BRASIL                        JARDIM NOVA 26266010NOVA IGUACU    RJUNIAO UMB DOS CULTOS AFRO BRAS    30111810 000209
10231987175000168817800093673    000028308                    000283080000000000000109                     I0228308     30111800000000035003410000017N200818104700000000000103011180000000000000000000000000000000000000000100011122717750RODRIGO DINIZ DA COSTA                  RUA ENGENHO DE DENTRO                   VILAR DOS TE25565230SAO JOAO DE MERRJUNIAO UMB DOS CULTOS AFRO BRAS    30111810 000210
10231987175000168817800093673    000028307                    000283070000000000000109                     I0228307     30111800000000035003410000017N200818104700000000000103011180000000000000000000000000000000000000000100013090350750REINALDO GONCALVES DE OLIVEIRA          RUA DOMINGOS LEMOS                      COELHO DA RO25550721SAO JOAO DE MERRJUNIAO UMB DOS CULTOS AFRO BRAS    30111810 000211
10231987175000168817800093673    000028305                    000283050000000000000109                     I0228305     30111800000000035003410000017N200818104700000000000103011180000000000000000000000000000000000000000100006110323764WAGNER MATOS DA SILVA                   RUA OLINDA                              BELA VISTA  26175350BELFORD ROXO   RJUNIAO UMB DOS CULTOS AFRO BRAS    30111810 000212
10231987175000168817800093673    000028304                    000283040000000000000109                     I0228304     30111800000000035003410000017N200818104700000000000103011180000000000000000000000000000000000000000100092111777749WANDERLEY DOS SANTOS MENDES             PRACA EMBOABA                           ENGENHO DA R20761160RIO DE JANEIRO RJUNIAO UMB DOS CULTOS AFRO BRAS    30111810 000213
10231987175000168817800093673    000028302                    000283020000000000000109                     I0228302     30111800000000035003410000017N200818104700000000000103011180000000000000000000000000000000000000000100090432894772ALTAMIRO DAMASCENO MONCAO               RUA TENERIFE                            PARADA DE LU21010000RIO DE JANEIRO RJUNIAO UMB DOS CULTOS AFRO BRAS    30111810 000214
10231987175000168817800093673    000028300                    000283000000000000000109                     I0228300     30111800000000035003410000017N200818104700000000000103011180000000000000000000000000000000000000000100011834931770LEANDRO BARROS DA SILVA                 RUA ROMARIO SILVA                       KENNEDY     26020640NOVA IGUACU    RJUNIAO UMB DOS CULTOS AFRO BRAS    30111810 000215
10231987175000168817800093673    000028295                    000282950000000000000109                     I0228295     30111800000000035003410000017N200818104700000000000103011180000000000000000000000000000000000000000100088041883753JORGE COSTA BRAGA FILHO                 RUA CENTO E VINTE E TRES                MAUA        25900000RIO DE JANEIRO RJUNIAO UMB DOS CULTOS AFRO BRAS    30111810 000216
10231987175000168817800093673    000028293                    000282930000000000000109                     I0228293     30111800000000035003410000017N200818104700000000000103011180000000000000000000000000000000000000000100005234763706LUCIANA FERREIRA DE ALMEIDA             RUA QUATRO                              PARADA MORAB25265220DUQUE DE CAXIASRJUNIAO UMB DOS CULTOS AFRO BRAS    30111810 000217
10231987175000168817800093673    000028292                    000282920000000000000109                     I0228292     30111800000000035003410000017N200818104700000000000103011180000000000000000000000000000000000000000100012009305760DEBORA CRISTINA DE OLIVEIRA BR          RUA LORD COCHRANE                       IBIRAPITANGA23811810ITAGUAI        RJUNIAO UMB DOS CULTOS AFRO BRAS    30111810 000218
10231987175000168817800093673    000028291                    000282910000000000000109                     I0228291     30111800000000035003410000017N200818104700000000000103011180000000000000000000000000000000000000000100000759136742ADRIANA LAPORT ALVES                    RUA DONA CLARA DE ARAUJO                ANDRADE ARAU26010390NOVA IGUACU    RJUNIAO UMB DOS CULTOS AFRO BRAS    30111810 000219
10231987175000168817800093673    000028289                    000282890000000000000109                     I0228289     30111800000000035003410000017N200818104700000000000103011180000000000000000000000000000000000000000100058365737787ALTAMIRA ROSA                           AVENIDA DO CONTORNO                     PARADA MORAB25000000DUQUE DE CAXIASRJUNIAO UMB DOS CULTOS AFRO BRAS    30111810 000220
10231987175000168817800093673    000028288                    000282880000000000000109                     I0228288     30111800000000035003410000017N200818104700000000000103011180000000000000000000000000000000000000000100074171372704ELIANE DE SOUZA MACHADO                 RUA ROQUETE PINTO                       JARDIM ANHAN25265200DUQUE DE CAXIASRJUNIAO UMB DOS CULTOS AFRO BRAS    30111810 000221
10231987175000168817800093673    000028286                    000282860000000000000109                     I0228286     30111800000000035003410000017N200818104700000000000103011180000000000000000000000000000000000000000100082191638791RITA DE CASSIA VALVERDE ROCHA           RUA JOAQUIM SOARES NETO                 NOVA AMERICA26021560NOVA IGUACU    RJUNIAO UMB DOS CULTOS AFRO BRAS    30111810 000222
10231987175000168817800093673    000028284                    000282840000000000000109                     I0228284     30111800000000035003410000017N200818104700000000000103011180000000000000000000000000000000000000000100014520518792STEPHANI MATOS MONTEIRO                 ESTRADA DOUTOR PLINIO CASADO            CENTRO      26130622BELFORD ROXO   RJUNIAO UMB DOS CULTOS AFRO BRAS    30111810 000223
10231987175000168817800093673    000028283                    000282830000000000000109                     I0228283     30111800000000035003410000017N200818104700000000000103011180000000000000000000000000000000000000000100012727461780SUELMIR LIMA DE ARAUJO                  RUA NOSSA SENHORA DAS GRACAS            PRAIA DO ANI25925708MAGE           RJUNIAO UMB DOS CULTOS AFRO BRAS    30111810 000224
10231987175000168817800093673    000028281                    000282810000000000000109                     I0228281     30111800000000035003410000017N200818104700000000000103011180000000000000000000000000000000000000000100011351878786GLEISSON BITTENCOURT DA SILVA           RUA FLORA DE ARAUJO                     PRATA       26010570NOVA IGUACU    RJUNIAO UMB DOS CULTOS AFRO BRAS    30111810 000225
10231987175000168817800093673    000028277                    000282770000000000000109                     I0228277     30111800000000035003410000017N200818104700000000000103011180000000000000000000000000000000000000000100015110892709YASMIN FIALHO HANGES                    ESTRADA HENRIQUE DE MELO                BENTO RIBEIR21340190RIO DE JANEIRO RJUNIAO UMB DOS CULTOS AFRO BRAS    30111810 000226
10231987175000168817800093673    000028276                    000282760000000000000109                     I0228276     30111800000000035003410000017N200818104700000000000103011180000000000000000000000000000000000000000100030894840720LIGIA REGINA ZACHARIAS DE MELO          RUA MANAPA                              VALVERDE    21051360RIO DE JANEIRO RJUNIAO UMB DOS CULTOS AFRO BRAS    30111810 000227
10231987175000168817800093673    000028274                    000282740000000000000109                     I0228274     30111800000000035003410000017N200818104700000000000103011180000000000000000000000000000000000000000100047442140700MARFIZA FERREIRA DA SILVA VENA          RUA EURICO COELHO                       GRAMA       26060650NOVA IGUACU    RJUNIAO UMB DOS CULTOS AFRO BRAS    30111810 000228
10231987175000168817800093673    000028271                    000282710000000000000109                     I0228271     30111800000000035003410000017N200818104700000000000103011180000000000000000000000000000000000000000100093788150734REGINA DA SILVA VERONEZI DOS S          RUA ABATE                               JARDIM CANAA26263040NOVA IGUACU    RJUNIAO UMB DOS CULTOS AFRO BRAS    30111810 000229
10231987175000168817800093673    000028269                    000282690000000000000109                     I0228269     30111800000000035003410000017N200818104700000000000103011180000000000000000000000000000000000000000100092645933734ROSINEA PRECIOSO DE OLIVEIRA            RUA PROFESSORA MARLY CARVALHO PEREIRA   MIGUEL COUTO26070452NOVA IGUACU    RJUNIAO UMB DOS CULTOS AFRO BRAS    30111810 000230
10231987175000168817800093673    000028266                    000282660000000000000109                     I0228266     30111800000000035003410000017N200818104700000000000103011180000000000000000000000000000000000000000100080578063700SANDRA REGINA NEVES CHAGAS              RUA MARIA LOURENCO                      JARDIM PRIMA25215367DUQUE DE CAXIASRJUNIAO UMB DOS CULTOS AFRO BRAS    30111810 000231
10231987175000168817800093673    000028262                    000282620000000000000109                     I0228262     30111800000000035003410000017N200818104700000000000103011180000000000000000000000000000000000000000100010276278704ROSELI DE OLIVEIRA DUTRA                RUA UM                                  TAQUARA     25275110DUQUE DE CAXIASRJUNIAO UMB DOS CULTOS AFRO BRAS    30111810 000232
10231987175000168817800093673    000028261                    000282610000000000000109                     I0228261     30111800000000035003410000017N200818104700000000000103011180000000000000000000000000000000000000000100005633721735MARCOS AURELIO PAULINO FLORIAN          RUA LEONEL ROCHA                        GUARATIBA   23032460RIO DE JANEIRO RJUNIAO UMB DOS CULTOS AFRO BRAS    30111810 000233
10231987175000168817800093673    000028259                    000282590000000000000109                     I0228259     30111800000000035003410000017N200818104700000000000103011180000000000000000000000000000000000000000100004277956726ROSANA OLIVEIRA GUEDES                  RUA CARDOSO QUINTAO                     PIEDADE     21381460RIO DE JANEIRO RJUNIAO UMB DOS CULTOS AFRO BRAS    30111810 000234
10231987175000168817800093673    000028258                    000282580000000000000109                     I0228258     30111800000000035003410000017N200818104700000000000103011180000000000000000000000000000000000000000100001972684710ALEXANDRE MALAQUIAS DE SOUSA P          AVENIDA NELSON DE AQUINO                COROA GRANDE23825670ITAGUAI        RJUNIAO UMB DOS CULTOS AFRO BRAS    30111810 000235
10231987175000168817800093673    000028256                    000282560000000000000109                     I0228256     30111800000000035003410000017N200818104700000000000103011180000000000000000000000000000000000000000100000129467707SANDRA CRISTINA DOS SANTOS TIT          RUA DAVI                                CIDADE DE DE22777243JACAREPAGUA    RJUNIAO UMB DOS CULTOS AFRO BRAS    30111810 000236
10231987175000168817800093673    000028255                    000282550000000000000109                     I0228255     30111800000000035003410000017N200818104700000000000103011180000000000000000000000000000000000000000100060237090791ELIZABETH TELLES DA SILVA               ESTRADA OUTEIRO SANTO                   TAQUARA     22713164RIO DE JANEIRO RJUNIAO UMB DOS CULTOS AFRO BRAS    30111810 000237
10231987175000168817800093673    000028252                    000282520000000000000109                     I0228252     30111800000000035003410000017N200818104700000000000103011180000000000000000000000000000000000000000100038835568749MARIA DE ALCANTARA GOULART SIL          RUA GAMBIA                              JACAREPAGUA 22775400RIO DE JANEIRO RJUNIAO UMB DOS CULTOS AFRO BRAS    30111810 000238
10231987175000168817800093673    000028251                    000282510000000000000109                     I0228251     30111800000000035003410000017N200818104700000000000103011180000000000000000000000000000000000000000100014994285705JEFFERSON DOS SANTOS DA SILVA           ESTRADA DO PAU DA FOME                  TAQUARA     22723497RIO DE JANEIRO RJUNIAO UMB DOS CULTOS AFRO BRAS    30111810 000239
10231987175000168817800093673    000028250                    000282500000000000000109                     I0228250     30111800000000035003410000017N200818104700000000000103011180000000000000000000000000000000000000000100008502438743ALINE RAMOS DE SOUZA DA SILVA           RUA DOUTOR ISMAEL CAVALCANTI            SEPETIBA    23545145RIO DE JANEIRO RJUNIAO UMB DOS CULTOS AFRO BRAS    30111810 000240
10231987175000168817800093673    000028249                    000282490000000000000109                     I0228249     30111800000000035003410000017N200818104700000000000103011180000000000000000000000000000000000000000100007103755736ALESSANDRA COSTA DE BARROS              PRACA OSCAR ROSSIM                      SEPETIBA    23540250RIO DE JANEIRO RJUNIAO UMB DOS CULTOS AFRO BRAS    30111810 000241
10231987175000168817800093673    000028245                    000282450000000000000109                     I0228245     30111800000000035003410000017N200818104700000000000103011180000000000000000000000000000000000000000100015834777724JOAO PAULO SALGUEIRO DA SILVA           RUA TUIBA                               VICENTE DE C21371170RIO DE JANEIRO RJUNIAO UMB DOS CULTOS AFRO BRAS    30111810 000242
10231987175000168817800093673    000028244                    000282440000000000000109                     I0228244     30111800000000035003410000017N200818104700000000000103011180000000000000000000000000000000000000000100002638717703EDINO GOMES DE BARROS JUNIOR            RUA PARANA                              MORRO DO ORI24400000SAO GONCALO    RJUNIAO UMB DOS CULTOS AFRO BRAS    30111810 000243
10231987175000168817800093673    000028241                    000282410000000000000109                     I0228241     30111800000000035003410000017N200818104700000000000103011180000000000000000000000000000000000000000100000497155770CINTIA MARTINS DA SILVA                 RUA POCONE                              ENCANTADO   20745090RIO DE JANEIRO RJUNIAO UMB DOS CULTOS AFRO BRAS    30111810 000244
10231987175000168817800093673    000028240                    000282400000000000000109                     I0228240     30111800000000035003410000017N200818104700000000000103011180000000000000000000000000000000000000000100009483806755MARCO ANTONIO ATAIDE DE MELO            TRAVESSA MARAPE                         COSTA BARROS21515240RIO DE JANEIRO RJUNIAO UMB DOS CULTOS AFRO BRAS    30111810 000245
10231987175000168817800093673    000028239                    000282390000000000000109                     I0228239     30111800000000035003410000017N200818104700000000000103011180000000000000000000000000000000000000000100001797738748PAULO CESAR LONATO SANTOS               RUA SAO MIGUEL ARCANJO                  SAO FRANCISC26011090CAMPO GRANDE   RJUNIAO UMB DOS CULTOS AFRO BRAS    30111810 000246
10231987175000168817800093673    000028238                    000282380000000000000109                     I0228238     30111800000000035003410000017N200818104700000000000103011180000000000000000000000000000000000000000100000000000000ALESSANDRA REIS DOS SANTOS              RUA MARIA TOMAZIA                       CABARAL     21321660RIO DE JANEIRO RJUNIAO UMB DOS CULTOS AFRO BRAS    30111810 000247
10231987175000168817800093673    000028236                    000282360000000000000109                     I0228236     30111800000000035003410000017N200818104700000000000103011180000000000000000000000000000000000000000100007545291778ANDRE LUIS DA SILVA                     RUA VASCO DA GAMA                       PARQUE ESTOR26063190NOVA IGUACU    RJUNIAO UMB DOS CULTOS AFRO BRAS    30111810 000248
10231987175000168817800093673    000028228                    000282280000000000000109                     I0228228     30111800000000035003410000017N200818104700000000000103011180000000000000000000000000000000000000000100011640644792MARLY SERPA BORGES                      RUA VISTA ALEGRE                        SANTA TERESA20251410RIO DE JANEIRO RJUNIAO UMB DOS CULTOS AFRO BRAS    30111810 000249
