01REMESSA01COBRANCA       817800093673        União Umb dos Cultos Afro Bra341BANCO ITAU SA  030519                                                                                                                                                                                                                                                                                                      000001
10231987175000168817800093673    000045225                    000452250000000000000109                     I0145225     30051900000000200003410000017N030519105700000000000103005190000000000000000000000000000000000000000100037345095720VERA LUCIA DA CRUZ NEVES                RUA RODRIGUES CAMPELO  N 54,            CAMPO GRANDE23017210RIO DE JANEIRO RJUNIAO UMB DOS CULTOS AFRO BRAS    30051915 000002
10231987175000168817800093673    000045224                    000452240000000000000109                     I0145224     20051900000000300003410000017N030519105700000000000102005190000000000000000000000000000000000000000100064494527734RONALDO ROSAS ALVES                     ESTRADA COMANDANTEN 777,                PRATA       25976140TERESOPOLIS    RJUNIAO UMB DOS CULTOS AFRO BRAS    20051915 000003
10231987175000168817800093673    000045223                    000452230000000000000109                     I0145223     30061900000000040003410000017N030519105700000000000103006190000000000000000000000000000000000000000100002656784719CARLOS EDUARDO ROSA DE SOUZA            RUA TURMALINAN 0, LOTE 12 QUADRA 74     JARDIM CATAR24715672SAO GONCALO    RJUNIAO UMB DOS CULTOS AFRO BRAS    30061915 000004
10231987175000168817800093673    000045222                    000452220000000000000109                     I0145222     30061900000000040003410000017N030519105700000000000103006190000000000000000000000000000000000000000100072807229700DENIRCE SOUZA ANDRE                     AVENIDA PASTOR MARTIN LUTHER KING JUNIORTOMAS COELHO20761121RIO DE JANEIRO RJUNIAO UMB DOS CULTOS AFRO BRAS    30061915 000005
10231987175000168817800093673    000045221                    000452210000000000000109                     I0145221     10051900000000080003410000017N030519105700000000000101005190000000000000000000000000000000000000000100002375024702FATIMA APARECIDA OLIVEIRA DE C          RUA MANUEL VITORINO N 412,              ENCANTADO   20740280RIO DE JANEIRO RJUNIAO UMB DOS CULTOS AFRO BRAS    10051915 000006
10231987175000168817800093673    000045220                    000452200000000000000109                     I0145220     30061900000000040003410000017N030519105700000000000103006190000000000000000000000000000000000000000100002053116790COSME RODRIGUES DOS SANTOS              RUA BAIXO GUANDUN 35, (SANTA ROSA)      CAMPO GRANDE23073200RIO DE JANEIRO RJUNIAO UMB DOS CULTOS AFRO BRAS    30061915 000007
10231987175000168817800093673    000045219                    000452190000000000000109                     I0145219     30051900000000040003410000017N030519105700000000000103005190000000000000000000000000000000000000000100002053116790COSME RODRIGUES DOS SANTOS              RUA BAIXO GUANDUN 35, (SANTA ROSA)      CAMPO GRANDE23073200RIO DE JANEIRO RJUNIAO UMB DOS CULTOS AFRO BRAS    30051915 000008
10231987175000168817800093673    000045218                    000452180000000000000109                     I0145218     28061900000000040003410000017N030519105700000000000102806190000000000000000000000000000000000000000100096094702700NERTAN SIGWARD RODRIGUES                RUA BARAO DE VARGEM ALEGRE N 50,                    27155000VARGEM ALEGRE (RJUNIAO UMB DOS CULTOS AFRO BRAS    28061915 000009
10231987175000168817800093673    000045217                    000452170000000000000109                     I0145217     31051900000000040003410000017N030519105700000000000103105190000000000000000000000000000000000000000100096094702700NERTAN SIGWARD RODRIGUES                RUA BARAO DE VARGEM ALEGRE N 50,                    27155000VARGEM ALEGRE (RJUNIAO UMB DOS CULTOS AFRO BRAS    31051915 000010
10231987175000168817800093673    000045216                    000452160000000000000109                     I0145216     20051900000000200003410000017N030519105700000000000102005190000000000000000000000000000000000000000100031569250715JORGE FRANCISCO SANTOS                  RUA EXPEDICIONARIO SEBASTIAO RIBEIRON 14COLUBANDE   24451710SAO GONCALO    RJUNIAO UMB DOS CULTOS AFRO BRAS    20051915 000011
10231987175000168817800093673    000039634                    000396340000000000000109                     I0239634     31031900000000040003410000017N210119105700000000000103103190000000000000000000000000000000000000000100002826493795VALDEA PEREIRA SIQUEIRA                 RUA BORDA DO MATON 415,                 GRAJAU      20561204RIO DE JANEIRO RJUNIAO UMB DOS CULTOS AFRO BRAS    31031915 000012
10231987175000168817800093673    000039319                    000393190000000000000109                     I0239319     30031900000000040003410000017N261218105700000000000103003190000000000000000000000000000000000000000100007403387732MARCOS MAURICIO DOS SANTOS COS          RUA: BOA VISTAN 299,                    CARAMUJO    24140460NITEROI        RJUNIAO UMB DOS CULTOS AFRO BRAS    30031915 000013
10231987175000168817800093673    000039254                    000392540000000000000109                     I0239254     30031900000000040003410000017N261218105700000000000103003190000000000000000000000000000000000000000100052889378772ANGELA MARIA DA SILVA ANDRADE           RUA WILSON GIL DA MATTAN 240, CASA 3    CENTRO      25515101SAO JOAO DE MERRJUNIAO UMB DOS CULTOS AFRO BRAS    30031915 000014
10231987175000168817800093673    000038032                    000380320000000000000109                     I0238032     30031900000000040003410000017N261218105700000000000103003190000000000000000000000000000000000000000225237434000130ILE ASE OMIBUNILE - ASE LAGOIN          RUA: VITORIAN 16, QUADRA N LOTE 8       LAGOINHA    26296447NOVA IGUACU    RJUNIAO UMB DOS CULTOS AFRO BRAS    30031915 000015
10231987175000168817800093673    000037968                    000379680000000000000109                     I0237968     30031900000000040003410000017N261218105700000000000103003190000000000000000000000000000000000000000100044845251787REGINA CELIA ALMEIDA BASTOS             ...N 103,                               ...         21532360...            ..UNIAO UMB DOS CULTOS AFRO BRAS    30031915 000016
10231987175000168817800093673    000037578                    000375780000000000000109                     I0237578     30031900000000040003410000017N261218105700000000000103003190000000000000000000000000000000000000000100043082033768LEILA RAMOS DE OLIVEIRA                 RUA CAPIBARIBE N 361,                   CABUCU      26346290NOVA IGUACU    RJUNIAO UMB DOS CULTOS AFRO BRAS    30031915 000017
9                                                                                                                                                                                                                                                                                                                                                                                                         000018
