01REMESSA01COBRANCA       916200163100        União Umb dos Cultos Afro Bra341BANCO ITAU SA  020819                                                                                                                                                                                                                                                                                                      000001
10231987175000168916200163100    000050277                    000502770000000000000109                     I0150277     10091900000000200003410000017N020819105700000000000661009190000000000000000000000000000000000000000100001896052002JOSE AUGUSTO MONTANA DOS SANTO          RUA ALFEU BICCA DE MEDEIROSN 125,       RESTINGA    97542030ALEGRETE       RSUNIAO UMB DOS CULTOS AFRO BRAS    10091915 000002
21100920190000000000400                                                                                                                                                                                                                                                                                                                                                                                   000003
9                                                                                                                                                                                                                                                                                                                                                                                                         000004
