01REMESSA01COBRANCA       817800093673        União Umb dos Cultos Afro Bra341BANCO ITAU SA  040619                                                                                                                                                                                                                                                                                                      000001
10231987175000168817800093673    000045351                    000453510000000000000109                     I0145351     30061900000000040003410000017N040619105700000000000333006190000000000000000000000000000000000000000100003807839755WELLINGTON ROSA DA SILVA                RUA PIRACAIAN 806,                      MARECHAL HER21555260RIO DE JANEIRO RJUNIAO UMB DOS CULTOS AFRO BRAS    30061915 000002
21300620190000000001000                                                                                                                                                                                                                                                                                                                                                                                   000003
10231987175000168817800093673    000045350                    000453500000000000000109                     I0145350     04061900000000200003410000017N040619105700000000000330406190000000000000000000000000000000000000000100005851795735JOAO LUIZ DE OLIVEIRA MAGALHAE          RUA ANTONIO CARLOS PARANHOSN 29,        VILA VALQUEI21321340RIO DE JANEIRO RJUNIAO UMB DOS CULTOS AFRO BRAS    04061915 000004
21040620190000000001000                                                                                                                                                                                                                                                                                                                                                                                   000005
10231987175000168817800093673    000045348                    000453480000000000000109                     I0145348     30061900000000400003410000017N040619105700000000000333006190000000000000000000000000000000000000000100085775576772LUSIA DE FREITAS SERVA                  RUA: PEREIRA NETON 0, LOTE 35 QUADRA 38 GUARATIBA   23032545RIO DE JANEIRO RJUNIAO UMB DOS CULTOS AFRO BRAS    30061915 000006
21300620190000000001000                                                                                                                                                                                                                                                                                                                                                                                   000007
10231987175000168817800093673    000045347                    000453470000000000000109                     I0145347     05071900000000700003410000017N040619105700000000000330507190000000000000000000000000000000000000000100000137373776IJOSELI RICARDO DA SILVA                TRAVESSA BEIRA MARN 4,                  PORTO DO ROS24472025SAO GONCALO    RJUNIAO UMB DOS CULTOS AFRO BRAS    05071915 000008
21050720190000000001000                                                                                                                                                                                                                                                                                                                                                                                   000009
10231987175000168817800093673    000045346                    000453460000000000000109                     I0145346     30061900000000300003410000017N040619105700000000000333006190000000000000000000000000000000000000000100000890225729MARINA DA SILVA ANGELO                  RUA DOZEN 0, LOTE 6 QUADRA 36 FUNDOS    JOAO CAETANO24866456ITABORAI       RJUNIAO UMB DOS CULTOS AFRO BRAS    30061915 000010
21300620190000000001000                                                                                                                                                                                                                                                                                                                                                                                   000011
10231987175000168817800093673    000045345                    000453450000000000000109                     I0145345     30061900000000040003410000017N040619105700000000000333006190000000000000000000000000000000000000000100080728774704NERIANA SILVA DO CARMO                  RUA AREALN 262,                         SEPETIBA    23535730RIO DE JANEIRO RJUNIAO UMB DOS CULTOS AFRO BRAS    30061915 000012
21300620190000000001000                                                                                                                                                                                                                                                                                                                                                                                   000013
10231987175000168817800093673    000045344                    000453440000000000000109                     I0145344     30061900000000280003410000017N040619105700000000000333006190000000000000000000000000000000000000000100080728774704NERIANA SILVA DO CARMO                  RUA AREALN 262,                         SEPETIBA    23535730RIO DE JANEIRO RJUNIAO UMB DOS CULTOS AFRO BRAS    30061915 000014
21300620190000000001000                                                                                                                                                                                                                                                                                                                                                                                   000015
10231987175000168817800093673    000045219                    000452190000000000000109                     I0245219     30051900000000040003410000017N030519105700000000000333005190000000000000000000000000000000000000000100002053116790COSME RODRIGUES DOS SANTOS              RUA BAIXO GUANDUN 35, (SANTA ROSA)      CAMPO GRANDE23073200RIO DE JANEIRO RJUNIAO UMB DOS CULTOS AFRO BRAS    30051915 000016
21300520190000000001000                                                                                                                                                                                                                                                                                                                                                                                   000017
10231987175000168817800093673    000044831                    000448310000000000000109                     I0244831     30051900000000040003410000017N150319105700000000000333005190000000000000000000000000000000000000000100080728774704NERIANA SILVA DO CARMO                  RUA AREALN 262,                         SEPETIBA    23535730RIO DE JANEIRO RJUNIAO UMB DOS CULTOS AFRO BRAS    30051915 000018
21300520190000000001000                                                                                                                                                                                                                                                                                                                                                                                   000019
9                                                                                                                                                                                                                                                                                                                                                                                                         000020
