01REMESSA01COBRANCA       817800093673        União Umb dos Cultos Afro Bra341BANCO ITAU SA  050719                                                                                                                                                                                                                                                                                                      000001
10231987175000168817800093673    000049814                    000498140000000000000109                     I0249814     30091900000000040003410000017N260619105700000000000133009190000000000000000000000000000000000000000100009035933788KARINA MOTA DE ASSIS GIL DOS S          RUA DOS MACACOSN 0, - TRAVESSA I CASA 4 UNAMAR (TAMO28928176CABO FRIO      RJUNIAO UMB DOS CULTOS AFRO BRAS    30091915 000002
21300920190000000000080                                                                                                                                                                                                                                                                                                                                                                                   000003
10231987175000168817800093673    000049813                    000498130000000000000109                     I0249813     30081900000000040003410000017N260619105700000000000133008190000000000000000000000000000000000000000100009035933788KARINA MOTA DE ASSIS GIL DOS S          RUA DOS MACACOSN 0, - TRAVESSA I CASA 4 UNAMAR (TAMO28928176CABO FRIO      RJUNIAO UMB DOS CULTOS AFRO BRAS    30081915 000004
21300820190000000000080                                                                                                                                                                                                                                                                                                                                                                                   000005
10231987175000168817800093673    000049812                    000498120000000000000109                     I0249812     30071900000000040003410000017N260619105700000000000133007190000000000000000000000000000000000000000100009035933788KARINA MOTA DE ASSIS GIL DOS S          RUA DOS MACACOSN 0, - TRAVESSA I CASA 4 UNAMAR (TAMO28928176CABO FRIO      RJUNIAO UMB DOS CULTOS AFRO BRAS    30071915 000006
21300720190000000000080                                                                                                                                                                                                                                                                                                                                                                                   000007
10231987175000168817800093673    000049251                    000492510000000000000109                     I0249251     30091900000000040003410000017N100619105700000000000133009190000000000000000000000000000000000000000100093130864768SOLANGE GERMANO DA COSTA                RUA URUCUIAN 689, CASA 1                VILA VALQUEI21321310RIO DE JANEIRO RJUNIAO UMB DOS CULTOS AFRO BRAS    30091915 000008
21300920190000000000080                                                                                                                                                                                                                                                                                                                                                                                   000009
10231987175000168817800093673    000049058                    000490580000000000000109                     I0249058     30091900000000040003410000017N100619105700000000000133009190000000000000000000000000000000000000000100008705745748JUCILIANDRO DA CONCEICAO SANTO          LADEIRA SOUSA DOCAN 113,                RIO COMPRIDO20261260RIO DE JANEIRO RJUNIAO UMB DOS CULTOS AFRO BRAS    30091915 000010
21300920190000000000080                                                                                                                                                                                                                                                                                                                                                                                   000011
10231987175000168817800093673    000048932                    000489320000000000000109                     I0248932     30091900000000040003410000017N100619105700000000000133009190000000000000000000000000000000000000000100092372473700WANDERLEIA MACIEL DE AZEVEDO            RUA SAO JOAQUIMN 166,                   VILA SAO LUI25086070DUQUE DE CAXIASRJUNIAO UMB DOS CULTOS AFRO BRAS    30091915 000012
21300920190000000000080                                                                                                                                                                                                                                                                                                                                                                                   000013
10231987175000168817800093673    000048804                    000488040000000000000109                     I0248804     30091900000000040003410000017N100619105700000000000133009190000000000000000000000000000000000000000100049007050710AMAURI PAULO RAMOS                      RUA SOMBREIROSN 361,                    VILA IGUACUA26050830NOVA IGUACU    RJUNIAO UMB DOS CULTOS AFRO BRAS    30091915 000014
21300920190000000000080                                                                                                                                                                                                                                                                                                                                                                                   000015
10231987175000168817800093673    000048680                    000486800000000000000109                     I0248680     30091900000000040003410000017N100619105700000000000133009190000000000000000000000000000000000000000100063665255791DENISE NASCIMENTO JULIAO                ESTRADA DA LAGOINHAN 0, LOTE 5 QUADRA 4 VILA DOS COQ26296306NOVA IGUACU    RJUNIAO UMB DOS CULTOS AFRO BRAS    30091915 000016
21300920190000000000080                                                                                                                                                                                                                                                                                                                                                                                   000017
10231987175000168817800093673    000047809                    000478090000000000000109                     I0247809     30081900000000040003410000017N100619105700000000000133008190000000000000000000000000000000000000000100093130864768SOLANGE GERMANO DA COSTA                RUA URUCUIAN 689, CASA 1                VILA VALQUEI21321310RIO DE JANEIRO RJUNIAO UMB DOS CULTOS AFRO BRAS    30081915 000018
21300820190000000000080                                                                                                                                                                                                                                                                                                                                                                                   000019
10231987175000168817800093673    000047619                    000476190000000000000109                     I0247619     30081900000000040003410000017N100619105700000000000133008190000000000000000000000000000000000000000100008705745748JUCILIANDRO DA CONCEICAO SANTO          LADEIRA SOUSA DOCAN 113,                RIO COMPRIDO20261260RIO DE JANEIRO RJUNIAO UMB DOS CULTOS AFRO BRAS    30081915 000020
21300820190000000000080                                                                                                                                                                                                                                                                                                                                                                                   000021
10231987175000168817800093673    000047493                    000474930000000000000109                     I0247493     30081900000000040003410000017N100619105700000000000133008190000000000000000000000000000000000000000100092372473700WANDERLEIA MACIEL DE AZEVEDO            RUA SAO JOAQUIMN 166,                   VILA SAO LUI25086070DUQUE DE CAXIASRJUNIAO UMB DOS CULTOS AFRO BRAS    30081915 000022
21300820190000000000080                                                                                                                                                                                                                                                                                                                                                                                   000023
10231987175000168817800093673    000047365                    000473650000000000000109                     I0247365     30081900000000040003410000017N100619105700000000000133008190000000000000000000000000000000000000000100049007050710AMAURI PAULO RAMOS                      RUA SOMBREIROSN 361,                    VILA IGUACUA26050830NOVA IGUACU    RJUNIAO UMB DOS CULTOS AFRO BRAS    30081915 000024
21300820190000000000080                                                                                                                                                                                                                                                                                                                                                                                   000025
10231987175000168817800093673    000047243                    000472430000000000000109                     I0247243     30081900000000040003410000017N100619105700000000000133008190000000000000000000000000000000000000000100063665255791DENISE NASCIMENTO JULIAO                ESTRADA DA LAGOINHAN 0, LOTE 5 QUADRA 4 VILA DOS COQ26296306NOVA IGUACU    RJUNIAO UMB DOS CULTOS AFRO BRAS    30081915 000026
21300820190000000000080                                                                                                                                                                                                                                                                                                                                                                                   000027
10231987175000168817800093673    000046376                    000463760000000000000109                     I0246376     30071900000000040003410000017N100619105700000000000133007190000000000000000000000000000000000000000100093130864768SOLANGE GERMANO DA COSTA                RUA URUCUIAN 689, CASA 1                VILA VALQUEI21321310RIO DE JANEIRO RJUNIAO UMB DOS CULTOS AFRO BRAS    30071915 000028
21300720190000000000080                                                                                                                                                                                                                                                                                                                                                                                   000029
10231987175000168817800093673    000046189                    000461890000000000000109                     I0246189     30071900000000040003410000017N100619105700000000000133007190000000000000000000000000000000000000000100008705745748JUCILIANDRO DA CONCEICAO SANTO          LADEIRA SOUSA DOCAN 113,                RIO COMPRIDO20261260RIO DE JANEIRO RJUNIAO UMB DOS CULTOS AFRO BRAS    30071915 000030
21300720190000000000080                                                                                                                                                                                                                                                                                                                                                                                   000031
10231987175000168817800093673    000046064                    000460640000000000000109                     I0246064     30071900000000040003410000017N100619105700000000000133007190000000000000000000000000000000000000000100092372473700WANDERLEIA MACIEL DE AZEVEDO            RUA SAO JOAQUIMN 166,                   VILA SAO LUI25086070DUQUE DE CAXIASRJUNIAO UMB DOS CULTOS AFRO BRAS    30071915 000032
21300720190000000000080                                                                                                                                                                                                                                                                                                                                                                                   000033
10231987175000168817800093673    000045938                    000459380000000000000109                     I0245938     30071900000000040003410000017N100619105700000000000133007190000000000000000000000000000000000000000100049007050710AMAURI PAULO RAMOS                      RUA SOMBREIROSN 361,                    VILA IGUACUA26050830NOVA IGUACU    RJUNIAO UMB DOS CULTOS AFRO BRAS    30071915 000034
21300720190000000000080                                                                                                                                                                                                                                                                                                                                                                                   000035
10231987175000168817800093673    000045404                    000454040000000000000109                     I0245404     30071900000000040003410000017N100619105700000000000133007190000000000000000000000000000000000000000100048685917700CELIO DO NASCIMENTO                     RUA DO CATETEN 123, CASA 4 APT 101      CATETE      22220000RIO DE JANEIRO RJUNIAO UMB DOS CULTOS AFRO BRAS    30071915 000036
21300720190000000000080                                                                                                                                                                                                                                                                                                                                                                                   000037
9                                                                                                                                                                                                                                                                                                                                                                                                         000038
