01REMESSA01COBRANCA       916200163100        União Umb dos Cultos Afro Bra341BANCO ITAU SA  150519                                                                                                                                                                                                                                                                                                      000001
10231987175000168916200163100    000045277                    000452770000000000000109                     I0145277     30051900000000040003410000017N150519105700000000000103005190000000000000000000000000000000000000000100089300190725NAGE MARGARETE DE OLIVEIRA              AVENIDA SILVEIRA MARTINSN 267,          PARQUE LAFAI25015510DUQUE DE CAXIASRJUNIAO UMB DOS CULTOS AFRO BRAS    30051915 000002
10231987175000168916200163100    000045276                    000452760000000000000109                     I0145276     30061900000000040003410000017N150519105700000000000103006190000000000000000000000000000000000000000100089300190725NAGE MARGARETE DE OLIVEIRA              AVENIDA SILVEIRA MARTINSN 267,          PARQUE LAFAI25015510DUQUE DE CAXIASRJUNIAO UMB DOS CULTOS AFRO BRAS    30061915 000003
10231987175000168916200163100    000044073                    000440730000000000000109                     I0244073     30061900000000040003410000017N130319105700000000000103006190000000000000000000000000000000000000000100030970474768MARIA BALBINA BAPTISTA LATAVAN          RUA MAJOR MEDEIROSN 14, APT 201         IRAJA       21220570RIO DE JANEIRO RJUNIAO UMB DOS CULTOS AFRO BRAS    30061915 000004
10231987175000168916200163100    000042782                    000427820000000000000109                     I0242782     30051900000000040003410000017N130319105700000000000103005190000000000000000000000000000000000000000100080869513753DINA LADISLAU DE SOUZA                  RUA ANGELA ABELANEN 0, LOTE 18 QUADRA 15BRISAMAR    23826420ITAGUAI        RJUNIAO UMB DOS CULTOS AFRO BRAS    30051915 000005
10231987175000168916200163100    000042427                    000424270000000000000109                     I0242427     30051900000000040003410000017N130319105700000000000103005190000000000000000000000000000000000000000100030970474768MARIA BALBINA BAPTISTA LATAVAN          RUA MAJOR MEDEIROSN 14, APT 201         IRAJA       21220570RIO DE JANEIRO RJUNIAO UMB DOS CULTOS AFRO BRAS    30051915 000006
10231987175000168916200163100    000042137                    000421370000000000000109                     I0242137     30051900000000040003410000017N130319105700000000000103005190000000000000000000000000000000000000000100072148675753ROGERIO TEIXEIRA TEOFILO                RUA BOM JARDIMN 40,                     CABUCU      26291341NOVA IGUACU    RJUNIAO UMB DOS CULTOS AFRO BRAS    30051915 000007
10231987175000168916200163100    000042004                    000420040000000000000109                     I0242004     30051900000000040003410000017N130319105700000000000103005190000000000000000000000000000000000000000100034371990720MARILDA CONCEICAO SILVEIRA DA           RUA MARAJAN 81,                         AREIA BRANCA26135240BELFORD ROXO   RJUNIAO UMB DOS CULTOS AFRO BRAS    30051915 000008
10231987175000168916200163100    000041143                    000411430000000000000109                     I0241143     30041900000000040003410000017N120319105700000000000103004190000000000000000000000000000000000000000100080869513753DINA LADISLAU DE SOUZA                  RUA ANGELA ABELANEN 0, LOTE 18 QUADRA 15BRISAMAR    23826420ITAGUAI        RJUNIAO UMB DOS CULTOS AFRO BRAS    30041915 000009
10231987175000168916200163100    000040790                    000407900000000000000109                     I0240790     30041900000000040003410000017N120319105700000000000103004190000000000000000000000000000000000000000100030970474768MARIA BALBINA BAPTISTA LATAVAN          RUA MAJOR MEDEIROSN 14, APT 201         IRAJA       21220570RIO DE JANEIRO RJUNIAO UMB DOS CULTOS AFRO BRAS    30041915 000010
10231987175000168916200163100    000040370                    000403700000000000000109                     I0240370     30041900000000040003410000017N120319105700000000000103004190000000000000000000000000000000000000000100034371990720MARILDA CONCEICAO SILVEIRA DA           RUA MARAJAN 81,                         AREIA BRANCA26135240BELFORD ROXO   RJUNIAO UMB DOS CULTOS AFRO BRAS    30041915 000011
9                                                                                                                                                                                                                                                                                                                                                                                                         000012
