01REMESSA01COBRANCA       916200163100        União Umb dos Cultos Afro Bra341BANCO ITAU SA  160118                                                                                                                                                                                                                                                                                                      000001
10231987175000168916200163100    00008840                     000088400000000000000109                     I028840      31011800000000035003410000017N020118050900000000000103101180000000000000000000000000000000000000000100009776414737NEUSA MARIA PINTO DE CARVALHO           RUA ARARIBOIA, 253 APTO 402             SAO FRANCISC24360340NITEROI        RJUNIAO UMB DOS CULTOS AFRO BRAS    31011810 000002
10231987175000168916200163100    00008839                     000088390000000000000109                     I028839      31011800000000035003410000017N020118050900000000000103101180000000000000000000000000000000000000000100075923866749SUELI ARAUJO DE SOUZA                   AVENIDA OLIVEIRA BELO, 458              VILA DA PENH21221300RIO DE JANEIRO RJUNIAO UMB DOS CULTOS AFRO BRAS    31011810 000003
10231987175000168916200163100    00008813                     000088130000000000000109                     I028813      31011800000000035003410000017N020118050900000000000103101180000000000000000000000000000000000000000100001123258740ZALA PEREIRA DE OLIVEIRA                RUA CORDEIROPOLIS, QUADRA 62 LOTE 24    PACIENCIA - 23585510RIO DE JANEIRO RJUNIAO UMB DOS CULTOS AFRO BRAS    31011810 000004
10231987175000168916200163100    00008677                     000086770000000000000109                     I028677      31011800000000035003410000017N020118050900000000000103101180000000000000000000000000000000000000000100001206849770EUGENIO ALBERTO DA SILVA LOPES          RUA COMENDADOR BASTOS, 526 BANANAL      FREGUESIA  -21911220RIO DE JANEIRO RJUNIAO UMB DOS CULTOS AFRO BRAS    31011810 000005
10231987175000168916200163100    00008595                     000085950000000000000109                     I028595      31011800000000035003410000017N020118050900000000000103101180000000000000000000000000000000000000000100011564970787MARIA ELIZA PINHEIRO SERRA              RUA ULEMAS, 30 - SANTA ISABEL           POSSE - NOVA26020790NOVA IGUACU    RJUNIAO UMB DOS CULTOS AFRO BRAS    31011810 000006
10231987175000168916200163100    00008446                     000084460000000000000109                     I028446      31011800000000035003410000017N020118050900000000000103101180000000000000000000000000000000000000000100050965158772NORMA GONCALVES DIAS                    RUA MARQUES DE QUELUZ N 41              IRAJA - RIO 21235120RIO DE JANEIRO RJUNIAO UMB DOS CULTOS AFRO BRAS    31011810 000007
10231987175000168916200163100    00004740                     000047400000000000000109                     I024740      05011800000000350003410000017N061217050900000000000100501180000000000000000000000000000000000000000100014474105729BIANCA OHANNA MOURA DE CARVALH          RUA AMAZONAS N 71                       PAULICEIA - 25080055DUQUE DE CAXIASRJUNIAO UMB DOS CULTOS AFRO BRAS    05011810 000008
10231987175000168916200163100    00004385                     000043850000000000000109                     I024385      22121700000000350003410000017N171117050900000000000102212170000000000000000000000000000000000000000100060774282720ROSANGELA MOURA VALENTE                 RUA CINQUENTA E QUATRO LOTE 38 QUADRA 20JARDIM ATLAN24934220MARICA         RJUNIAO UMB DOS CULTOS AFRO BRAS    22121710 000009
10231987175000168916200163100    00004290                     000042900000000000000109                     I024290      22121700000000350003410000017N171117050900000000000102212170000000000000000000000000000000000000000100002139428790SIMONE GONCALVES GOMES                  RUA ROBERTO BATISTA,  LOTE 2 QUADRA 19  SANTA MARTA 26173300BELFORD ROXO   RJUNIAO UMB DOS CULTOS AFRO BRAS    22121710 000010
10231987175000168916200163100    00004174                     000041740000000000000109                     I024174      22121700000000350003410000017N171117050900000000000102212170000000000000000000000000000000000000000100002912143713JANAINA PACHECO PINHEIRO                RUA FILGUEIRAS LIMA, 69 BLOCO 2 APTO 101RIACHUELO - 20950050RIO DE JANEIRO RJUNIAO UMB DOS CULTOS AFRO BRAS    22121710 000011
10231987175000168916200163100    00004147                     000041470000000000000109                     I024147      22121700000000350003410000017N171117050900000000000102212170000000000000000000000000000000000000000100097314919704CLAUDIA ESTRELA RODRIGUES SERA          RUA NORTE, 298                          ROSA DOS VEN26276620NOVA IGUACU    RJUNIAO UMB DOS CULTOS AFRO BRAS    22121710 000012
10231987175000168916200163100    00004053                     000040530000000000000109                     I024053      22121700000000350003410000017N171117050900000000000102212170000000000000000000000000000000000000000100001248895738JUSSARA SILVEIRA LOPES DA FONS          RUA SAQUAREMA, 1433                     SANTO ALEIXO25914000MAGE           RJUNIAO UMB DOS CULTOS AFRO BRAS    22121710 000013
10231987175000168916200163100    00003790                     000037900000000000000109                     I023790      22121700000000350003410000017N171117050900000000000102212170000000000000000000000000000000000000000100008067836728BRUNO HENRIQUE DA COSTA SILVA           O MESMO                                 O MESMO     21361360RIO DE JANEIRO RJUNIAO UMB DOS CULTOS AFRO BRAS    22121710 000014
10231987175000168916200163100    00003769                     000037690000000000000109                     I023769      22121700000000350003410000017N171117050900000000000102212170000000000000000000000000000000000000000100041795458704VERA LUCIA DE MACEDO                    RUA JOSE CARLOS PACE, 50 CASA 50        CENTRO - MAR24900000MARICA         RJUNIAO UMB DOS CULTOS AFRO BRAS    22121710 000015
10231987175000168916200163100    00003715                     000037150000000000000109                     I023715      22121700000000350003410000017N171117050900000000000102212170000000000000000000000000000000000000000100093635540749REGINALDO ALVES DA SILVA                RUA FLAVIO CAVALCANTE, 268              CACHAMBU - P25615060PETROPOLIS     RJUNIAO UMB DOS CULTOS AFRO BRAS    22121710 000016
10231987175000168916200163100    00003459                     000034590000000000000109                     I023459      22121700000000350003410000017N171117050900000000000102212170000000000000000000000000000000000000000100014474105729BIANCA OHANNA MOURA DE CARVALH          RUA AMAZONAS N 71                       PAULICEIA - 25080055DUQUE DE CAXIASRJUNIAO UMB DOS CULTOS AFRO BRAS    22121710 000017
10231987175000168916200163100    00002838                     000028380000000000000109                     I022838      31121700000000035003410000017N131117050900000000000103112170000000000000000000000000000000000000000100002139428790SIMONE GONCALVES GOMES                  RUA ROBERTO BATISTA,  LOTE 2 QUADRA 19  SANTA MARTA 26173300BELFORD ROXO   RJUNIAO UMB DOS CULTOS AFRO BRAS    31121710 000018
10231987175000168916200163100    00002719                     000027190000000000000109                     I022719      31121700000000035003410000017N131117050900000000000103112170000000000000000000000000000000000000000100002912143713JANAINA PACHECO PINHEIRO                RUA FILGUEIRAS LIMA, 69 BLOCO 2 APTO 101RIACHUELO - 20950050RIO DE JANEIRO RJUNIAO UMB DOS CULTOS AFRO BRAS    31121710 000019
10231987175000168916200163100    00002691                     000026910000000000000109                     I022691      31121700000000035003410000017N131117050900000000000103112170000000000000000000000000000000000000000100097314919704CLAUDIA ESTRELA RODRIGUES SERA          RUA NORTE, 298                          ROSA DOS VEN26276620NOVA IGUACU    RJUNIAO UMB DOS CULTOS AFRO BRAS    31121710 000020
10231987175000168916200163100    00002591                     000025910000000000000109                     I022591      31121700000000035003410000017N131117050900000000000103112170000000000000000000000000000000000000000100001248895738JUSSARA SILVEIRA LOPES DA FONS          RUA SAQUAREMA, 1433                     SANTO ALEIXO25914000MAGE           RJUNIAO UMB DOS CULTOS AFRO BRAS    31121710 000021
10231987175000168916200163100    00002302                     000023020000000000000109                     I022302      31121700000000035003410000017N131117050900000000000103112170000000000000000000000000000000000000000100008067836728BRUNO HENRIQUE DA COSTA SILVA           O MESMO                                 O MESMO     21361360RIO DE JANEIRO RJUNIAO UMB DOS CULTOS AFRO BRAS    31121710 000022
10231987175000168916200163100    00002227                     000022270000000000000109                     I022227      31121700000000035003410000017N131117050900000000000103112170000000000000000000000000000000000000000100093635540749REGINALDO ALVES DA SILVA                RUA FLAVIO CAVALCANTE, 268              CACHAMBU - P25615060PETROPOLIS     RJUNIAO UMB DOS CULTOS AFRO BRAS    31121710 000023
10231987175000168916200163100    00001968                     000019680000000000000109                     I021968      31121700000000035003410000017N131117050900000000000103112170000000000000000000000000000000000000000100014474105729BIANCA OHANNA MOURA DE CARVALH          RUA AMAZONAS N 71                       PAULICEIA - 25080055DUQUE DE CAXIASRJUNIAO UMB DOS CULTOS AFRO BRAS    31121710 000024
9                                                                                                                                                                                                                                                                                                                                                                                                         000025
