01REMESSA01COBRANCA       817800093673        União Umb dos Cultos Afro Bra341BANCO ITAU SA  180219                                                                                                                                                                                                                                                                                                      000001
10231987175000168817800093673    000039800                    000398000000000000000109                     I0139800     29031900000000040003410000017N150219104700000000000102903190000000000000000000000000000000000000000100013845707720VAGNER MACENA DE ANDRADE                RUA MARIA HELENAN 170,                  CIDADE HORAC25931346MAGE           RJUNIAO UMB DOS CULTOS AFRO BRAS    29031910 000002
10231987175000168817800093673    000039725                    000397250000000000000109                     I0239725     12021900000000040003410000017N050219104700000000000101202190000000000000000000000000000000000000000100000441127770NOEMIA DINANTES GOMES                   RUA COELHO DA ROCHAN 596,               AGOSTINHO PO25510120SAO JOAO DE MERRJUNIAO UMB DOS CULTOS AFRO BRAS    12021910 000003
10231987175000168817800093673    000039551                    000395510000000000000109                     I0239551     18011900000000175003410000017N110119104700000000000101801190000000000000000000000000000000000000000100008527396726JUSSARA BALBINO GENUARIO                RUA DAS MARGARIDASN 16,                 CHAPERO     23830240ITAGUAI        RJUNIAO UMB DOS CULTOS AFRO BRAS    18011910 000004
10231987175000168817800093673    000038630                    000386300000000000000109                     I0238630     30031900000000040003410000017N261218104700000000000103003190000000000000000000000000000000000000000100008208769762BRUNO LEONARDO DOMINGUES DA SI          RUA: JOAO RODRIGUES BATISTAN 99,        ALTO SERRA -25635401PETROPOLIS     RJUNIAO UMB DOS CULTOS AFRO BRAS    30031910 000005
10231987175000168817800093673    000038354                    000383540000000000000109                     I0238354     30031900000000040003410000017N261218104700000000000103003190000000000000000000000000000000000000000100033291241720MARIA JOSE LOPES SOUSA                  RUA ALTAMIRO DOMICIANO DA CRUZN 0, LOTE SANTA CANDID23830640ITAGUAI        RJUNIAO UMB DOS CULTOS AFRO BRAS    30031910 000006
10231987175000168817800093673    000036712                    000367120000000000000109                     I0236712     28021900000000040003410000017N261218104700000000000102802190000000000000000000000000000000000000000100008208769762BRUNO LEONARDO DOMINGUES DA SI          RUA: JOAO RODRIGUES BATISTAN 99,        ALTO SERRA -25635401PETROPOLIS     RJUNIAO UMB DOS CULTOS AFRO BRAS    28021910 000007
10231987175000168817800093673    000036437                    000364370000000000000109                     I0236437     28021900000000040003410000017N261218104700000000000102802190000000000000000000000000000000000000000100033291241720MARIA JOSE LOPES SOUSA                  RUA ALTAMIRO DOMICIANO DA CRUZN 0, LOTE SANTA CANDID23830640ITAGUAI        RJUNIAO UMB DOS CULTOS AFRO BRAS    28021910 000008
10231987175000168817800093673    000035199                    000351990000000000000109                     I0235199     31011900000000040003410000017N261218104700000000000103101190000000000000000000000000000000000000000100008527396726JUSSARA BALBINO GENUARIO                RUA DAS MARGARIDASN 16,                 CHAPERO     23830240ITAGUAI        RJUNIAO UMB DOS CULTOS AFRO BRAS    31011910 000009
10231987175000168817800093673    000035062                    000350620000000000000109                     I0235062     31011900000000040003410000017N261218104700000000000103101190000000000000000000000000000000000000000100002415896730ROSIELMA SANTOS SOUZA                   RUA MONDEGON 78,                        RICARDO DE A21665130RIO DE JANEIRO RJUNIAO UMB DOS CULTOS AFRO BRAS    31011910 000010
10231987175000168817800093673    000034889                    000348890000000000000109                     I0234889     31011900000000040003410000017N261218104700000000000103101190000000000000000000000000000000000000000100069833850715WALTER LIMA DE AVELLAR                  RUA SAO JOSEN 0, QUADRA 47 LOTE 19      ITAIPUACU   24900000MARICA         RJUNIAO UMB DOS CULTOS AFRO BRAS    31011910 000011
10231987175000168817800093673    000034802                    000348020000000000000109                     I0234802     31011900000000040003410000017N261218104700000000000103101190000000000000000000000000000000000000000100008208769762BRUNO LEONARDO DOMINGUES DA SI          RUA: JOAO RODRIGUES BATISTAN 99,        ALTO SERRA -25635401PETROPOLIS     RJUNIAO UMB DOS CULTOS AFRO BRAS    31011910 000012
10231987175000168817800093673    000034528                    000345280000000000000109                     I0234528     31011900000000040003410000017N261218104700000000000103101190000000000000000000000000000000000000000100033291241720MARIA JOSE LOPES SOUSA                  RUA ALTAMIRO DOMICIANO DA CRUZN 0, LOTE SANTA CANDID23830640ITAGUAI        RJUNIAO UMB DOS CULTOS AFRO BRAS    31011910 000013
10231987175000168817800093673    000034514                    000345140000000000000109                     I0234514     31011900000000040003410000017N261218104700000000000103101190000000000000000000000000000000000000000100008232649712ADRIANO DA SILVA SANTOS                 AVENIDA: PASTOR MARTIN LUTHER KING JR N ENGENHO DA R21220300RIO DE JANEIRO RJUNIAO UMB DOS CULTOS AFRO BRAS    31011910 000014
10231987175000168817800093673    000034434                    000344340000000000000109                     I0234434     31011900000000040003410000017N261218104700000000000103101190000000000000000000000000000000000000000100087868172720ADHEMAR ACHILLES AVILLA JUNIOR          RUA: PADRE GIL N 20,                    PARQUE BONEV25907096MAGE           RJUNIAO UMB DOS CULTOS AFRO BRAS    31011910 000015
10231987175000168817800093673    000034099                    000340990000000000000109                     I0234099     31011900000000040003410000017N261218104700000000000103101190000000000000000000000000000000000000000100003632737789MONALISA DE ALMEIDA CARVALHO            RUA NOSSA SENHORA DA PAZ N 111,         SANTA CECILI26130660BELFORD ROXO   RJUNIAO UMB DOS CULTOS AFRO BRAS    31011910 000016
10231987175000168817800093673    000033801                    000338010000000000000109                     I0233801     31011900000000040003410000017N261218104700000000000103101190000000000000000000000000000000000000000100095274987753PAULO SERGIO BARBOSA DA CUNHA           RUA IPIUNAN 16,                         JARDIM BANGU21866030RIO DE JANEIRO RJUNIAO UMB DOS CULTOS AFRO BRAS    31011910 000017
10231987175000168817800093673    000032862                    000328620000000000000109                     I0232862     20121800000000350003410000017N291018104700000000000102012180000000000000000000000000000000000000000100008527396726JUSSARA BALBINO GENUARIO                RUA DAS MARGARIDASN 16,                 CHAPERO     23830240ITAGUAI        RJUNIAO UMB DOS CULTOS AFRO BRAS    20121810 000018
10231987175000168817800093673    000032663                    000326630000000000000109                     I0232663     20121800000000350003410000017N291018104700000000000102012180000000000000000000000000000000000000000100002415896730ROSIELMA SANTOS SOUZA                   RUA MONDEGON 78,                        RICARDO DE A21665130RIO DE JANEIRO RJUNIAO UMB DOS CULTOS AFRO BRAS    20121810 000019
10231987175000168817800093673    000032421                    000324210000000000000109                     I0232421     20121800000000350003410000017N291018104700000000000102012180000000000000000000000000000000000000000100069833850715WALTER LIMA DE AVELLAR                  RUA SAO JOSEN 0, QUADRA 47 LOTE 19      ITAIPUACU   24900000MARICA         RJUNIAO UMB DOS CULTOS AFRO BRAS    20121810 000020
10231987175000168817800093673    000032274                    000322740000000000000109                     I0232274     20121800000000350003410000017N291018104700000000000102012180000000000000000000000000000000000000000100008208769762BRUNO LEONARDO DOMINGUES DA SI          RUA: JOAO RODRIGUES BATISTAN 99,        ALTO SERRA -25635401PETROPOLIS     RJUNIAO UMB DOS CULTOS AFRO BRAS    20121810 000021
10231987175000168817800093673    000031862                    000318620000000000000109                     I0231862     20121800000000350003410000017N291018104700000000000102012180000000000000000000000000000000000000000100033291241720MARIA JOSE LOPES SOUSA                  RUA ALTAMIRO DOMICIANO DA CRUZN 0, LOTE SANTA CANDID23830640ITAGUAI        RJUNIAO UMB DOS CULTOS AFRO BRAS    20121810 000022
10231987175000168817800093673    000031847                    000318470000000000000109                     I0231847     20121800000000350003410000017N291018104700000000000102012180000000000000000000000000000000000000000100008232649712ADRIANO DA SILVA SANTOS                 AVENIDA: PASTOR MARTIN LUTHER KING JR N ENGENHO DA R21220300RIO DE JANEIRO RJUNIAO UMB DOS CULTOS AFRO BRAS    20121810 000023
10231987175000168817800093673    000031724                    000317240000000000000109                     I0231724     20121800000000350003410000017N291018104700000000000102012180000000000000000000000000000000000000000100087868172720ADHEMAR ACHILLES AVILLA JUNIOR          RUA: PADRE GIL N 20,                    PARQUE BONEV25907096MAGE           RJUNIAO UMB DOS CULTOS AFRO BRAS    20121810 000024
10231987175000168817800093673    000031189                    000311890000000000000109                     I0231189     20121800000000400003410000017N291018104700000000000102012180000000000000000000000000000000000000000100003632737789MONALISA DE ALMEIDA CARVALHO            RUA NOSSA SENHORA DA PAZ N 111,         SANTA CECILI26130660BELFORD ROXO   RJUNIAO UMB DOS CULTOS AFRO BRAS    20121810 000025
10231987175000168817800093673    000030690                    000306900000000000000109                     I0230690     20121800000000350003410000017N291018104700000000000102012180000000000000000000000000000000000000000100095274987753PAULO SERGIO BARBOSA DA CUNHA           RUA IPIUNAN 16,                         JARDIM BANGU21866030RIO DE JANEIRO RJUNIAO UMB DOS CULTOS AFRO BRAS    20121810 000026
10231987175000168817800093673    000030587                    000305870000000000000109                     I0230587     20121800000000350003410000017N291018104700000000000102012180000000000000000000000000000000000000000100000441127770NOEMIA DINANTES GOMES                   RUA COELHO DA ROCHAN 596,               AGOSTINHO PO25510120SAO JOAO DE MERRJUNIAO UMB DOS CULTOS AFRO BRAS    20121810 000027
10231987175000168817800093673    000029983                    000299830000000000000109                     I0229983     20121800000000035003410000017N291018104700000000000102012180000000000000000000000000000000000000000100002415896730ROSIELMA SANTOS SOUZA                   RUA MONDEGON 78,                        RICARDO DE A21665130RIO DE JANEIRO RJUNIAO UMB DOS CULTOS AFRO BRAS    20121810 000028
10231987175000168817800093673    000029599                    000295990000000000000109                     I0229599     20121800000000035003410000017N291018104700000000000102012180000000000000000000000000000000000000000100008232649712ADRIANO DA SILVA SANTOS                 AVENIDA: PASTOR MARTIN LUTHER KING JR N ENGENHO DA R21220300RIO DE JANEIRO RJUNIAO UMB DOS CULTOS AFRO BRAS    20121810 000029
9                                                                                                                                                                                                                                                                                                                                                                                                         000030
