01REMESSA01COBRANCA       817800093673        União Umb dos Cultos Afro Bra341BANCO ITAU SA  080519                                                                                                                                                                                                                                                                                                      000001
10231987175000168817800093673    000045254                    000452540000000000000109                     I0145254     31051900000000300003410000017N080519105700000000000103105190000000000000000000000000000000000000000100089197658715JORGE LUIS DAS NEVES OLIVEIRA           RUA DAS ACUCENASN 0, LOTE 5 QUADRA 22   PRADOS VERDE26299048NOVA IGUACU    RJUNIAO UMB DOS CULTOS AFRO BRAS    31051915 000002
10231987175000168817800093673    000045253                    000452530000000000000109                     I0145253     30061900000000040003410000017N080519105700000000000103006190000000000000000000000000000000000000000100076716147772MARCIO ANTONIO DE SOUZA                 RUA: MINISTRO SIMOES LOPES N 0, LOTE 5 QIBIRAPITANGA23811360ITAGUAI        RJUNIAO UMB DOS CULTOS AFRO BRAS    30061915 000003
10231987175000168817800093673    000045252                    000452520000000000000109                     I0145252     30051900000000150003410000017N080519105700000000000103005190000000000000000000000000000000000000000100050660098768ENI MARIA DA CONCEICAO DE MOUR          RUA IPIRANGAN 0, LOTE 24 E 25           BARRO BRANCO25267365DUQUE DE CAXIASRJUNIAO UMB DOS CULTOS AFRO BRAS    30051915 000004
10231987175000168817800093673    000045251                    000452510000000000000109                     I0145251     13051900000000040003410000017N080519105700000000000101305190000000000000000000000000000000000000000100092952364753ROSANGELA SILVA SOUZA                   RUA TAMOIOSN 144, FUNDOS                CENTRO      26520250NILOPOLIS      RJUNIAO UMB DOS CULTOS AFRO BRAS    13051915 000005
10231987175000168817800093673    000045250                    000452500000000000000109                     I0145250     30051900000000080003410000017N080519105700000000000103005190000000000000000000000000000000000000000100000916644707MARIA DA CONCEICAO DE MOURA PI          AVENIDA ANA AUGUSTAN 0, LOTE 29 QUADRA 2VILA IBIRAPI23811120ITAGUAI        RJUNIAO UMB DOS CULTOS AFRO BRAS    30051915 000006
10231987175000168817800093673    000045249                    000452490000000000000109                     I0145249     20051900000000160003410000017N080519105700000000000102005190000000000000000000000000000000000000000100007147220730LUIS CARLOS DA COSTA OLIVEIRA           RUA MINAS GERAIS N 0, LOTE 11 QUADRA 159CAMPO ALEGRE26292141NOVA IGUACU    RJUNIAO UMB DOS CULTOS AFRO BRAS    20051915 000007
10231987175000168817800093673    000045248                    000452480000000000000109                     I0145248     15051900000000140003410000017N080519105700000000000101505190000000000000000000000000000000000000000100002414887702MARGARETH MARIA DA SILVA GONCA          RUA: SEBASTIAO DE CARVALHON 158,        RAMOS       21061670RIO DE JANEIRO RJUNIAO UMB DOS CULTOS AFRO BRAS    15051915 000008
10231987175000168817800093673    000045247                    000452470000000000000109                     I0245247     15051900000000280003410000017N080519105700000000000101505190000000000000000000000000000000000000000100002414887702MARGARETH MARIA DA SILVA GONCA          RUA: SEBASTIAO DE CARVALHON 158,        RAMOS       21061670RIO DE JANEIRO RJUNIAO UMB DOS CULTOS AFRO BRAS    15051915 000009
10231987175000168817800093673    000045246                    000452460000000000000109                     I0145246     30051900000000040003410000017N080519105700000000000103005190000000000000000000000000000000000000000100001568681720MARCO ANTONIO DA COSTA                  RUA LOIR NOGUEIRAN 0, LOTE 10 QUADRA 11 RIO DO OURO 24752840SAO GONCALO    RJUNIAO UMB DOS CULTOS AFRO BRAS    30051915 000010
10231987175000168817800093673    000038807                    000388070000000000000109                     I0238807     30031900000000040003410000017N261218105700000000000103003190000000000000000000000000000000000000000100052282171772SONIA MARIA DOS SANTOS                  RUA MIDAN 13, QUADRA 1                  RIACHAO - AU26084050NOVA IGUACU    RJUNIAO UMB DOS CULTOS AFRO BRAS    30031915 000011
9                                                                                                                                                                                                                                                                                                                                                                                                         000012
