01REMESSA01COBRANCA       817800093673        União Umb dos Cultos Afro Bra341BANCO ITAU SA  120319                                                                                                                                                                                                                                                                                                      000001
10231987175000168817800093673    000039872                    000398720000000000000109                     I0139872     15031900000000080003410000017N120319104700000000000101503190000000000000000000000000000000000000000100006927798765ROSA MARIA RICARDO                      RUA JOAQUIM BESSAN 169, 148 / RUA DOIS  TRINDADE    24210205SAO GONCALO    RJUNIAO UMB DOS CULTOS AFRO BRAS    15031910 000002
10231987175000168817800093673    000039871                    000398710000000000000109                     I0139871     30031900000000040003410000017N120319104700000000000103003190000000000000000000000000000000000000000100048516805700MARIA APARECIDA DOS SANTOS CYP          ESTRADA DO SABONETEN 0, LOTE 25 QUADRA DARSENAL     24745224SAO GONCALO    RJUNIAO UMB DOS CULTOS AFRO BRAS    30031910 000003
10231987175000168817800093673    000039870                    000398700000000000000109                     I0139870     30031900000000040003410000017N110319104700000000000103003190000000000000000000000000000000000000000100084892978787GLEYDS GRANDEN GUERRERO                 RUA ANA GUIMARAESN 61,                  ROCHA       20960040RIO DE JANEIRO RJUNIAO UMB DOS CULTOS AFRO BRAS    30031910 000004
10231987175000168817800093673    000039869                    000398690000000000000109                     I0139869     13031900000000350003410000017N110319104700000000000101303190000000000000000000000000000000000000000100003248430702CRISTIANA ROSA DE OLIVEIRA              ESTRADA DA PORTEIRA N 0, LOTE 22 QUADRA JARDIM MAR  23821140ITAGUAI        RJUNIAO UMB DOS CULTOS AFRO BRAS    13031910 000005
10231987175000168817800093673    000039868                    000398680000000000000109                     I0139868     30061900000000040003410000017N110319104700000000000103006190000000000000000000000000000000000000000100001670149781ANA ELISA SANTOS DE SOUZA               RUA LUIS GURGELN 256, FUNDOS            TOMAS COELHO20750320RIO DE JANEIRO RJUNIAO UMB DOS CULTOS AFRO BRAS    30061910 000006
10231987175000168817800093673    000039867                    000398670000000000000109                     I0139867     31051900000000040003410000017N110319104700000000000103105190000000000000000000000000000000000000000100001670149781ANA ELISA SANTOS DE SOUZA               RUA LUIS GURGELN 256, FUNDOS            TOMAS COELHO20750320RIO DE JANEIRO RJUNIAO UMB DOS CULTOS AFRO BRAS    31051910 000007
10231987175000168817800093673    000039866                    000398660000000000000109                     I0139866     30041900000000040003410000017N110319104700000000000103004190000000000000000000000000000000000000000100001670149781ANA ELISA SANTOS DE SOUZA               RUA LUIS GURGELN 256, FUNDOS            TOMAS COELHO20750320RIO DE JANEIRO RJUNIAO UMB DOS CULTOS AFRO BRAS    30041910 000008
10231987175000168817800093673    000039865                    000398650000000000000109                     I0139865     31031900000000040003410000017N110319104700000000000103103190000000000000000000000000000000000000000100009174740741SILAS SOUZA ALSELMO                     RUA DO CANAVIAL N 207,                  PARQUE ANTAR26053040NOVA IGUACU    RJUNIAO UMB DOS CULTOS AFRO BRAS    31031910 000009
10231987175000168817800093673    000039864                    000398640000000000000109                     I0139864     31031900000000040003410000017N110319104700000000000103103190000000000000000000000000000000000000000100077165772715EDNA SANTOS DA TRINDADE                 ESTRADA DO PIAIN 3910, QUADRA B CASA 7  SEPETIBA    23530610RIO DE JANEIRO RJUNIAO UMB DOS CULTOS AFRO BRAS    31031910 000010
10231987175000168817800093673    000039863                    000398630000000000000109                     I0139863     15031900000000040003410000017N110319104700000000000101503190000000000000000000000000000000000000000100077165772715EDNA SANTOS DA TRINDADE                 ESTRADA DO PIAIN 3910, QUADRA B CASA 7  SEPETIBA    23530610RIO DE JANEIRO RJUNIAO UMB DOS CULTOS AFRO BRAS    15031910 000011
10231987175000168817800093673    000039862                    000398620000000000000109                     I0139862     22031900000000115003410000017N110319104700000000000102203190000000000000000000000000000000000000000100023768649768SONIA MARIA DA SILVA DELLIVENE          AV: PLINIO GOMES DE MATTOS FILHON 278,  VARZEA DAS M24330430SAO GONCALO    RJUNIAO UMB DOS CULTOS AFRO BRAS    22031910 000012
10231987175000168817800093673    000039861                    000398610000000000000109                     I0139861     20031900000000160003410000017N110319104700000000000102003190000000000000000000000000000000000000000100000000000000ELIZABETH GANTERT DA ROCHA GUI          RUA ADRIANAN 204,                       VAL VERDE - 26351140NOVA IGUACU    RJUNIAO UMB DOS CULTOS AFRO BRAS    20031910 000013
10231987175000168817800093673    000039860                    000398600000000000000109                     I0139860     22031900000000120003410000017N110319104700000000000102203190000000000000000000000000000000000000000100009142845769MICHELE OAZEM MINEIRO                   RUA CARIOCAN 0, LOTE 10 QUADRA B        SAO BERNARDO26167210BELFORD ROXO   RJUNIAO UMB DOS CULTOS AFRO BRAS    22031910 000014
10231987175000168817800093673    000039859                    000398590000000000000109                     I0139859     25031900000000080003410000017N110319104700000000000102503190000000000000000000000000000000000000000100008331240723MONIQUE SUZANO ASSUNCAO DE OLI          RUA: DIVINOPOLIS N 35,                  BENTO RIBEIR21550280RIO DE JANEIRO RJUNIAO UMB DOS CULTOS AFRO BRAS    25031910 000015
10231987175000168817800093673    000039858                    000398580000000000000109                     I0139858     25031900000000040003410000017N110319104700000000000102503190000000000000000000000000000000000000000100002101171767HELENA DE JESUS                         RUA JOAO ROMEIRON 37, CASA 3            CASCADURA   21311000RIO DE JANEIRO RJUNIAO UMB DOS CULTOS AFRO BRAS    25031910 000016
10231987175000168817800093673    000039857                    000398570000000000000109                     I0139857     25031900000000120003410000017N110319104700000000000102503190000000000000000000000000000000000000000100092111777749WANDERLEY DOS SANTOS MENDES             PRACA EMBOABAN 67,                      ENGENHO DA R20761160RIO DE JANEIRO RJUNIAO UMB DOS CULTOS AFRO BRAS    25031910 000017
10231987175000168817800093673    000039856                    000398560000000000000109                     I0139856     15031900000000280003410000017N110319104700000000000101503190000000000000000000000000000000000000000100008133276799AROLDO VAZ DE COSTA                     AVENIDA SAO JOAO DE MERITIN 0, LOTE 3 QUJARDIM METRO25571161SAO JOAO DE MERRJUNIAO UMB DOS CULTOS AFRO BRAS    15031910 000018
10231987175000168817800093673    000039549                    000395490000000000000109                     I0239549     29031900000000000003410000017N110119104700000000000102903190000000000000000000000000000000000000000100084892978787GLEYDS GRANDEN GUERRERO                 RUA ANA GUIMARAESN 61,                  ROCHA       20960040RIO DE JANEIRO RJUNIAO UMB DOS CULTOS AFRO BRAS    29031910 000019
10231987175000168817800093673    000039271                    000392710000000000000109                     I0239271     30031900000000040003410000017N261218104700000000000103003190000000000000000000000000000000000000000100093265883787ROSANGELA BARBOSA DE CARVALHO           RUA DA USINAN 651,                      PARQUE LEOPO21815180RIO DE JANEIRO RJUNIAO UMB DOS CULTOS AFRO BRAS    30031910 000020
10231987175000168817800093673    000038692                    000386920000000000000109                     I0238692     30031900000000040003410000017N261218104700000000000103003190000000000000000000000000000000000000000100011385092726ANDRE LEONARDO SILVA DE ARAUJO          RUA CARMINDAN 1359, CASA 4              COELHO DA RO25550136SAO JOAO DE MERRJUNIAO UMB DOS CULTOS AFRO BRAS    30031910 000021
10231987175000168817800093673    000038527                    000385270000000000000109                     I0238527     30031900000000040003410000017N261218104700000000000103003190000000000000000000000000000000000000000100035339756734MARIA AUXILIADORA B. DA ANUNCI          RUA: IBIRARUNA N 19, QUADRA 32          PARQUE ELDOR25240000DUQUE DE CAXIASRJUNIAO UMB DOS CULTOS AFRO BRAS    30031910 000022
10231987175000168817800093673    000038243                    000382430000000000000109                     I0238243     30031900000000040003410000017N261218104700000000000103003190000000000000000000000000000000000000000100033205094700IRACEMA PAZ DA MOTTA                    RUA PADRE ILDEFONSO PENALBA N 90, BLOCO MEIER       20775020RIO DE JANEIRO RJUNIAO UMB DOS CULTOS AFRO BRAS    30031910 000023
10231987175000168817800093673    000038213                    000382130000000000000109                     I0238213     30031900000000040003410000017N261218104700000000000103003190000000000000000000000000000000000000000100001071031767NEIDE MARIA VIANA SOUZA                 RUA: VINTE E UMN 0, LOTE 7 QUADRA 42    SAO CAMPELO 23830000ITAGUAI        RJUNIAO UMB DOS CULTOS AFRO BRAS    30031910 000024
10231987175000168817800093673    000038199                    000381990000000000000109                     I0238199     30031900000000040003410000017N261218104700000000000103003190000000000000000000000000000000000000000100009174740741SILAS SOUZA ALSELMO                     RUA DO CANAVIAL N 207,                  PARQUE ANTAR26053040NOVA IGUACU    RJUNIAO UMB DOS CULTOS AFRO BRAS    30031910 000025
10231987175000168817800093673    000037996                    000379960000000000000109                     I0237996     30031900000000040003410000017N261218104700000000000103003190000000000000000000000000000000000000000100065138210700TANIA CRISTINA DOS SANTOS PERE          RUA SOARES TAVARESN 521,                GRAMACHO    25035060DUQUE DE CAXIASRJUNIAO UMB DOS CULTOS AFRO BRAS    30031910 000026
10231987175000168817800093673    000037864                    000378640000000000000109                     I0237864     30031900000000040003410000017N261218104700000000000103003190000000000000000000000000000000000000000100008763637707JUSSARA SILVA DE ALBUQUERQUE            RUA ARGOS N 281, FUNDOS                 GUADALUPE   21660050RIO DE JANEIRO RJUNIAO UMB DOS CULTOS AFRO BRAS    30031910 000027
10231987175000168817800093673    000037757                    000377570000000000000109                     I0237757     30031900000000040003410000017N261218104700000000000103003190000000000000000000000000000000000000000100048516805700MARIA APARECIDA DOS SANTOS CYP          ESTRADA DO SABONETEN 0, LOTE 25 QUADRA DARSENAL     24745224SAO GONCALO    RJUNIAO UMB DOS CULTOS AFRO BRAS    30031910 000028
10231987175000168817800093673    000037675                    000376750000000000000109                     I0237675     30031900000000040003410000017N261218104700000000000103003190000000000000000000000000000000000000000100076896960744MARIA LUCIA DE OLIVEIRA NUNES           AVENIDA DO CORRETOR N 116,              VILA ALIANCA21842340RIO DE JANEIRO RJUNIAO UMB DOS CULTOS AFRO BRAS    30031910 000029
10231987175000168817800093673    000037489                    000374890000000000000109                     I0237489     30031900000000040003410000017N261218104700000000000103003190000000000000000000000000000000000000000100043171974720ELISABETH AUGUSTO DA COSTA              RUA INDAIATUBA N 135,                   IRAJA       21231000RIO DE JANEIRO RJUNIAO UMB DOS CULTOS AFRO BRAS    30031910 000030
10231987175000168817800093673    000037406                    000374060000000000000109                     I0237406     28021900000000040003410000017N261218104700000000000102802190000000000000000000000000000000000000000100002101171767HELENA DE JESUS                         RUA JOAO ROMEIRON 37, CASA 3            CASCADURA   21311000RIO DE JANEIRO RJUNIAO UMB DOS CULTOS AFRO BRAS    28021910 000031
10231987175000168817800093673    000037339                    000373390000000000000109                     I0237339     28021900000000040003410000017N261218104700000000000102802190000000000000000000000000000000000000000100085737437787NIVALDA PIRES RUFINO                    RUA: MARIO CARPENTERN 830,              ABOLICAO    20755065RIO DE JANEIRO RJUNIAO UMB DOS CULTOS AFRO BRAS    28021910 000032
10231987175000168817800093673    000037135                    000371350000000000000109                     I0237135     28021900000000040003410000017N261218104700000000000102802190000000000000000000000000000000000000000100099586800768MARLECI NAVARRO DE FARIA                AVENIDA TENENTE REBELON 381, APT 303    IRAJA       21230075RIO DE JANEIRO RJUNIAO UMB DOS CULTOS AFRO BRAS    28021910 000033
10231987175000168817800093673    000037117                    000371170000000000000109                     I3437117     28021900000000040003410000017N261218104700000000000102802190000000000000000000000000000000000000000100001148949739MARIA DAS GRACAS SEBASTIANA DO          RUA PEREIRA PINTO N 91,                 TOMAS COELHO20761350RIO DE JANEIRO RJUNIAO UMB DOS CULTOS AFRO BRAS    28021910 000034
10231987175000168817800093673    000036952                    000369520000000000000109                     I0236952     28021900000000040003410000017N261218104700000000000102802190000000000000000000000000000000000000000100003360087755ELIENE GONCALVES JACINTO                TRAVESSA DAS FLORESN 20,                PARQUE LAFAI25010695DUQUE DE CAXIASRJUNIAO UMB DOS CULTOS AFRO BRAS    28021910 000035
10231987175000168817800093673    000036792                    000367920000000000000109                     I0236792     28021900000000040003410000017N261218104700000000000102802190000000000000000000000000000000000000000100008133276799AROLDO VAZ DE COSTA                     AVENIDA SAO JOAO DE MERITIN 0, LOTE 3 QUJARDIM METRO25571161SAO JOAO DE MERRJUNIAO UMB DOS CULTOS AFRO BRAS    28021910 000036
10231987175000168817800093673    000036774                    000367740000000000000109                     I0236774     28021900000000040003410000017N261218104700000000000102802190000000000000000000000000000000000000000100011385092726ANDRE LEONARDO SILVA DE ARAUJO          RUA CARMINDAN 1359, CASA 4              COELHO DA RO25550136SAO JOAO DE MERRJUNIAO UMB DOS CULTOS AFRO BRAS    28021910 000037
10231987175000168817800093673    000036610                    000366100000000000000109                     I0236610     28021900000000040003410000017N261218104700000000000102802190000000000000000000000000000000000000000100035339756734MARIA AUXILIADORA B. DA ANUNCI          RUA: IBIRARUNA N 19, QUADRA 32          PARQUE ELDOR25240000DUQUE DE CAXIASRJUNIAO UMB DOS CULTOS AFRO BRAS    28021910 000038
10231987175000168817800093673    000036501                    000365010000000000000109                     I0236501     28021900000000040003410000017N261218104700000000000102802190000000000000000000000000000000000000000100059259523753NILO SERGIO SANTOS BARCELLOS            ESTRADA DO MENDANHAN 134, BLOCO 4 APTO 5IRAJA       21220310RIO DE JANEIRO RJUNIAO UMB DOS CULTOS AFRO BRAS    28021910 000039
10231987175000168817800093673    000036327                    000363270000000000000109                     I0236327     28021900000000040003410000017N261218104700000000000102802190000000000000000000000000000000000000000100033205094700IRACEMA PAZ DA MOTTA                    RUA PADRE ILDEFONSO PENALBA N 90, BLOCO MEIER       20775020RIO DE JANEIRO RJUNIAO UMB DOS CULTOS AFRO BRAS    28021910 000040
10231987175000168817800093673    000036297                    000362970000000000000109                     I0236297     28021900000000040003410000017N261218104700000000000102802190000000000000000000000000000000000000000100001071031767NEIDE MARIA VIANA SOUZA                 RUA: VINTE E UMN 0, LOTE 7 QUADRA 42    SAO CAMPELO 23830000ITAGUAI        RJUNIAO UMB DOS CULTOS AFRO BRAS    28021910 000041
10231987175000168817800093673    000036283                    000362830000000000000109                     I0236283     28021900000000040003410000017N261218104700000000000102802190000000000000000000000000000000000000000100009174740741SILAS SOUZA ALSELMO                     RUA DO CANAVIAL N 207,                  PARQUE ANTAR26053040NOVA IGUACU    RJUNIAO UMB DOS CULTOS AFRO BRAS    28021910 000042
10231987175000168817800093673    000036081                    000360810000000000000109                     I0236081     28021900000000040003410000017N261218104700000000000102802190000000000000000000000000000000000000000100065138210700TANIA CRISTINA DOS SANTOS PERE          RUA SOARES TAVARESN 521,                GRAMACHO    25035060DUQUE DE CAXIASRJUNIAO UMB DOS CULTOS AFRO BRAS    28021910 000043
10231987175000168817800093673    000035843                    000358430000000000000109                     I0235843     28021900000000040003410000017N261218104700000000000102802190000000000000000000000000000000000000000100048516805700MARIA APARECIDA DOS SANTOS CYP          ESTRADA DO SABONETEN 0, LOTE 25 QUADRA DARSENAL     24745224SAO GONCALO    RJUNIAO UMB DOS CULTOS AFRO BRAS    28021910 000044
10231987175000168817800093673    000035577                    000355770000000000000109                     I0235577     28021900000000040003410000017N261218104700000000000102802190000000000000000000000000000000000000000100043171974720ELISABETH AUGUSTO DA COSTA              RUA INDAIATUBA N 135,                   IRAJA       21231000RIO DE JANEIRO RJUNIAO UMB DOS CULTOS AFRO BRAS    28021910 000045
10231987175000168817800093673    000035426                    000354260000000000000109                     I0235426     31011900000000040003410000017N261218104700000000000103101190000000000000000000000000000000000000000100085737437787NIVALDA PIRES RUFINO                    RUA: MARIO CARPENTERN 830,              ABOLICAO    20755065RIO DE JANEIRO RJUNIAO UMB DOS CULTOS AFRO BRAS    31011910 000046
10231987175000168817800093673    000035224                    000352240000000000000109                     I0235224     31011900000000040003410000017N261218104700000000000103101190000000000000000000000000000000000000000100099586800768MARLECI NAVARRO DE FARIA                AVENIDA TENENTE REBELON 381, APT 303    IRAJA       21230075RIO DE JANEIRO RJUNIAO UMB DOS CULTOS AFRO BRAS    31011910 000047
10231987175000168817800093673    000035042                    000350420000000000000109                     I0235042     31011900000000040003410000017N261218104700000000000103101190000000000000000000000000000000000000000100003360087755ELIENE GONCALVES JACINTO                TRAVESSA DAS FLORESN 20,                PARQUE LAFAI25010695DUQUE DE CAXIASRJUNIAO UMB DOS CULTOS AFRO BRAS    31011910 000048
10231987175000168817800093673    000034864                    000348640000000000000109                     I0234864     31011900000000040003410000017N261218104700000000000103101190000000000000000000000000000000000000000100011385092726ANDRE LEONARDO SILVA DE ARAUJO          RUA CARMINDAN 1359, CASA 4              COELHO DA RO25550136SAO JOAO DE MERRJUNIAO UMB DOS CULTOS AFRO BRAS    31011910 000049
10231987175000168817800093673    000034700                    000347000000000000000109                     I0234700     31011900000000040003410000017N261218104700000000000103101190000000000000000000000000000000000000000100035339756734MARIA AUXILIADORA B. DA ANUNCI          RUA: IBIRARUNA N 19, QUADRA 32          PARQUE ELDOR25240000DUQUE DE CAXIASRJUNIAO UMB DOS CULTOS AFRO BRAS    31011910 000050
10231987175000168817800093673    000034389                    000343890000000000000109                     I0234389     31011900000000040003410000017N261218104700000000000103101190000000000000000000000000000000000000000100001071031767NEIDE MARIA VIANA SOUZA                 RUA: VINTE E UMN 0, LOTE 7 QUADRA 42    SAO CAMPELO 23830000ITAGUAI        RJUNIAO UMB DOS CULTOS AFRO BRAS    31011910 000051
10231987175000168817800093673    000034375                    000343750000000000000109                     I0234375     31011900000000040003410000017N261218104700000000000103101190000000000000000000000000000000000000000100009174740741SILAS SOUZA ALSELMO                     RUA DO CANAVIAL N 207,                  PARQUE ANTAR26053040NOVA IGUACU    RJUNIAO UMB DOS CULTOS AFRO BRAS    31011910 000052
10231987175000168817800093673    000034176                    000341760000000000000109                     I0234176     31011900000000040003410000017N261218104700000000000103101190000000000000000000000000000000000000000100065138210700TANIA CRISTINA DOS SANTOS PERE          RUA SOARES TAVARESN 521,                GRAMACHO    25035060DUQUE DE CAXIASRJUNIAO UMB DOS CULTOS AFRO BRAS    31011910 000053
10231987175000168817800093673    000033860                    000338600000000000000109                     I0233860     31011900000000040003410000017N261218104700000000000103101190000000000000000000000000000000000000000100076896960744MARIA LUCIA DE OLIVEIRA NUNES           AVENIDA DO CORRETOR N 116,              VILA ALIANCA21842340RIO DE JANEIRO RJUNIAO UMB DOS CULTOS AFRO BRAS    31011910 000054
10231987175000168817800093673    000033677                    000336770000000000000109                     I0233677     31011900000000040003410000017N261218104700000000000103101190000000000000000000000000000000000000000100043171974720ELISABETH AUGUSTO DA COSTA              RUA INDAIATUBA N 135,                   IRAJA       21231000RIO DE JANEIRO RJUNIAO UMB DOS CULTOS AFRO BRAS    31011910 000055
9                                                                                                                                                                                                                                                                                                                                                                                                         000056
