01REMESSA01COBRANCA       916200163100        União Umb dos Cultos Afro Bra341BANCO ITAU SA  170619                                                                                                                                                                                                                                                                                                      000001
10231987175000168916200163100    000049748                    000497480000000000000109                     I0149748     30091900000000040003410000017N170619105700000000000133009190000000000000000000000000000000000000000100016513221714MARCELLE DA SILVA ILDEFONSO DI          RUA VIDAL DE NEGREIROSN 2,              PADRE MIGUEL21721510RIO DE JANEIRO RJUNIAO UMB DOS CULTOS AFRO BRAS    30091915 000002
21300920190000000000080                                                                                                                                                                                                                                                                                                                                                                                   000003
10231987175000168916200163100    000049747                    000497470000000000000109                     I0149747     30081900000000040003410000017N170619105700000000000133008190000000000000000000000000000000000000000100016513221714MARCELLE DA SILVA ILDEFONSO DI          RUA VIDAL DE NEGREIROSN 2,              PADRE MIGUEL21721510RIO DE JANEIRO RJUNIAO UMB DOS CULTOS AFRO BRAS    30081915 000004
21300820190000000000080                                                                                                                                                                                                                                                                                                                                                                                   000005
10231987175000168916200163100    000049746                    000497460000000000000109                     I0149746     30071900000000040003410000017N170619105700000000000133007190000000000000000000000000000000000000000100016513221714MARCELLE DA SILVA ILDEFONSO DI          RUA VIDAL DE NEGREIROSN 2,              PADRE MIGUEL21721510RIO DE JANEIRO RJUNIAO UMB DOS CULTOS AFRO BRAS    30071915 000006
21300720190000000000080                                                                                                                                                                                                                                                                                                                                                                                   000007
10231987175000168916200163100    000049745                    000497450000000000000109                     I0149745     30091900000000040003410000017N170619105700000000000133009190000000000000000000000000000000000000000100014222102784VICTOR HUGO CARVALHO REIS               RUA PALATINADON 441, BL 1 AP 202        CASCADURA   21380130RIO DE JANEIRO RJUNIAO UMB DOS CULTOS AFRO BRAS    30091915 000008
21300920190000000000080                                                                                                                                                                                                                                                                                                                                                                                   000009
10231987175000168916200163100    000049744                    000497440000000000000109                     I0149744     30081900000000040003410000017N170619105700000000000133008190000000000000000000000000000000000000000100014222102784VICTOR HUGO CARVALHO REIS               RUA PALATINADON 441, BL 1 AP 202        CASCADURA   21380130RIO DE JANEIRO RJUNIAO UMB DOS CULTOS AFRO BRAS    30081915 000010
21300820190000000000080                                                                                                                                                                                                                                                                                                                                                                                   000011
10231987175000168916200163100    000049743                    000497430000000000000109                     I0149743     30071900000000040003410000017N170619105700000000000133007190000000000000000000000000000000000000000100014222102784VICTOR HUGO CARVALHO REIS               RUA PALATINADON 441, BL 1 AP 202        CASCADURA   21380130RIO DE JANEIRO RJUNIAO UMB DOS CULTOS AFRO BRAS    30071915 000012
21300720190000000000080                                                                                                                                                                                                                                                                                                                                                                                   000013
10231987175000168916200163100    000049742                    000497420000000000000109                     I0249742     30061900000000040003410000017N170619105700000000000133006190000000000000000000000000000000000000000100014222102784VICTOR HUGO CARVALHO REIS               RUA PALATINADON 441, BL 1 AP 202        CASCADURA   21380130RIO DE JANEIRO RJUNIAO UMB DOS CULTOS AFRO BRAS    30061915 000014
21300620190000000000080                                                                                                                                                                                                                                                                                                                                                                                   000015
10231987175000168916200163100    000049741                    000497410000000000000109                     I0149741     10071900000000300003410000017N170619105700000000000991007190000000000000000000000000000000000000000100007541296759NELMA DOS ANJOS SOUZA GONCALVE          ESTRADA PEDRINHASN 23, QUADRA 8         VENDA VELHA 25580660SAO JOAO DE MERRJUNIAO UMB DOS CULTOS AFRO BRAS    10071915 000016
21100720190000000000600                                                                                                                                                                                                                                                                                                                                                                                   000017
10231987175000168916200163100    000049740                    000497400000000000000109                     I0149740     25061900000000080003410000017N170619105700000000000262506190000000000000000000000000000000000000000100051851229787MARTA DO NASCIMENTO CRISPINO            RUA LEONOR SARAMAGON 89,                FONSECA     24120340NITEROI        RJUNIAO UMB DOS CULTOS AFRO BRAS    25061915 000018
21250620190000000000160                                                                                                                                                                                                                                                                                                                                                                                   000019
10231987175000168916200163100    000049739                    000497390000000000000109                     I0149739     25061900000000040003410000017N170619105700000000000132506190000000000000000000000000000000000000000100051851229787MARTA DO NASCIMENTO CRISPINO            RUA LEONOR SARAMAGON 89,                FONSECA     24120340NITEROI        RJUNIAO UMB DOS CULTOS AFRO BRAS    25061915 000020
21250620190000000000080                                                                                                                                                                                                                                                                                                                                                                                   000021
10231987175000168916200163100    000049738                    000497380000000000000109                     I0149738     10071900000000240003410000017N150619105700000000000791007190000000000000000000000000000000000000000100007373169775CAROLINA ALVES CARLOS                   RUA CLOVIS BEVILACQUAN 0, LOTE 1 QUADRA PARQUE ESTRE25075990DUQUE DE CAXIASRJUNIAO UMB DOS CULTOS AFRO BRAS    10071915 000022
21100720190000000000480                                                                                                                                                                                                                                                                                                                                                                                   000023
10231987175000168916200163100    000049737                    000497370000000000000109                     I0249737     30091900000000040003410000017N150619105700000000000133009190000000000000000000000000000000000000000100007373169775CAROLINA ALVES CARLOS                   RUA CLOVIS BEVILACQUAN 0, LOTE 1 QUADRA PARQUE ESTRE25075990DUQUE DE CAXIASRJUNIAO UMB DOS CULTOS AFRO BRAS    30091915 000024
21300920190000000000080                                                                                                                                                                                                                                                                                                                                                                                   000025
10231987175000168916200163100    000049736                    000497360000000000000109                     I0249736     30081900000000040003410000017N150619105700000000000133008190000000000000000000000000000000000000000100007373169775CAROLINA ALVES CARLOS                   RUA CLOVIS BEVILACQUAN 0, LOTE 1 QUADRA PARQUE ESTRE25075990DUQUE DE CAXIASRJUNIAO UMB DOS CULTOS AFRO BRAS    30081915 000026
21300820190000000000080                                                                                                                                                                                                                                                                                                                                                                                   000027
10231987175000168916200163100    000049735                    000497350000000000000109                     I0249735     30071900000000040003410000017N150619105700000000000133007190000000000000000000000000000000000000000100007373169775CAROLINA ALVES CARLOS                   RUA CLOVIS BEVILACQUAN 0, LOTE 1 QUADRA PARQUE ESTRE25075990DUQUE DE CAXIASRJUNIAO UMB DOS CULTOS AFRO BRAS    30071915 000028
21300720190000000000080                                                                                                                                                                                                                                                                                                                                                                                   000029
10231987175000168916200163100    000049734                    000497340000000000000109                     I0149734     21061900000000240003410000017N150619105700000000000792106190000000000000000000000000000000000000000100086956850710MARIA DO SOCORRO REIS MARTINS           RUA SERAFIMN 55,                        CAMPOS ELISE25225215DUQUE DE CAXIASRJUNIAO UMB DOS CULTOS AFRO BRAS    21061915 000030
21210620190000000000480                                                                                                                                                                                                                                                                                                                                                                                   000031
10231987175000168916200163100    000044500                    000445000000000000000109                     I0244500     30061900000000040003410000017N130319105700000000000133006190000000000000000000000000000000000000000100003025076712MARIA QUITERIA DOS SANTOS PITA          RUA DOUTOR JOAO BARCELOSN 867,          QUISSAMA    25615171PETROPOLIS     RJUNIAO UMB DOS CULTOS AFRO BRAS    30061915 000032
21300620190000000000080                                                                                                                                                                                                                                                                                                                                                                                   000033
10231987175000168916200163100    000044292                    000442920000000000000109                     I0244292     30061900000000040003410000017N130319105700000000000133006190000000000000000000000000000000000000000100000487738756MARY LUCY PEREIRA DA SILVA              RUA URUCUIAN 846, CASA 31               VILA VALQUEI21321310RIO DE JANEIRO RJUNIAO UMB DOS CULTOS AFRO BRAS    30061915 000034
21300620190000000000080                                                                                                                                                                                                                                                                                                                                                                                   000035
10231987175000168916200163100    000043995                    000439950000000000000109                     I0243995     30061900000000040003410000017N130319105700000000000133006190000000000000000000000000000000000000000100082096260787MARIA INACIA DE ALVARENGA COUT          RUA UBIRATAN 373, FRENTE                HIGIENOPOLIS21051030RIO DE JANEIRO RJUNIAO UMB DOS CULTOS AFRO BRAS    30061915 000036
21300620190000000000080                                                                                                                                                                                                                                                                                                                                                                                   000037
10231987175000168916200163100    000043761                    000437610000000000000109                     I3443761     30061900000000040003410000017N130319105700000000000133006190000000000000000000000000000000000000000100000633999709KATIA REGINA LEITE RAMOS                RUA GUIRATIM N 260,                     IRAJA       21371410RIO DE JANEIRO RJUNIAO UMB DOS CULTOS AFRO BRAS    30061915 000038
21300620190000000000080                                                                                                                                                                                                                                                                                                                                                                                   000039
10231987175000168916200163100    000042970                    000429700000000000000109                     I0242970     30051900000000040003410000017N130319105700000000000133005190000000000000000000000000000000000000000100002176741781SUSI DE OLIVEIRA LOUREIRO               AVENIDA: VICENTE DE CARVALHO N 536, CASAVICENTE DE C21371148RIO DE JANEIRO RJUNIAO UMB DOS CULTOS AFRO BRAS    30051915 000040
21300520190000000000080                                                                                                                                                                                                                                                                                                                                                                                   000041
10231987175000168916200163100    000042753                    000427530000000000000109                     I0242753     30051900000000040003410000017N130319105700000000000133005190000000000000000000000000000000000000000100002139519752CARLA MARIA DE BRITO DOS SANTO          RUA ECHEVERRIAN 309, BLOCO 08 APT 501   JARDIM ROTSE25267142DUQUE DE CAXIASRJUNIAO UMB DOS CULTOS AFRO BRAS    30051915 000042
21300520190000000000080                                                                                                                                                                                                                                                                                                                                                                                   000043
10231987175000168916200163100    000042411                    000424110000000000000109                     I0242411     30051900000000040003410000017N130319105700000000000133005190000000000000000000000000000000000000000100000747523754CLAUDIARA TEIXEIRA DA SILVA             RUA CAMBUCIN 295, CASA 1 PORTAO DE GARAGMUQUECA     27140280BARRA DO PIRAI RJUNIAO UMB DOS CULTOS AFRO BRAS    30051915 000044
21300520190000000000080                                                                                                                                                                                                                                                                                                                                                                                   000045
10231987175000168916200163100    000042349                    000423490000000000000109                     I0242349     30051900000000040003410000017N130319105700000000000133005190000000000000000000000000000000000000000100082096260787MARIA INACIA DE ALVARENGA COUT          RUA UBIRATAN 373, FRENTE                HIGIENOPOLIS21051030RIO DE JANEIRO RJUNIAO UMB DOS CULTOS AFRO BRAS    30051915 000046
21300520190000000000080                                                                                                                                                                                                                                                                                                                                                                                   000047
10231987175000168916200163100    000042117                    000421170000000000000109                     I3442117     30051900000000040003410000017N130319105700000000000133005190000000000000000000000000000000000000000100000633999709KATIA REGINA LEITE RAMOS                RUA GUIRATIM N 260,                     IRAJA       21371410RIO DE JANEIRO RJUNIAO UMB DOS CULTOS AFRO BRAS    30051915 000048
21300520190000000000080                                                                                                                                                                                                                                                                                                                                                                                   000049
10231987175000168916200163100    000042024                    000420240000000000000109                     I0242024     30051900000000040003410000017N130319105700000000000133005190000000000000000000000000000000000000000100009431078732LUCIA OLIVEIRA BONIFACIO                RUA NINA RIBEIRON 67, FUNDOS            PAVUNA      21520290RIO DE JANEIRO RJUNIAO UMB DOS CULTOS AFRO BRAS    30051915 000050
21300520190000000000080                                                                                                                                                                                                                                                                                                                                                                                   000051
10231987175000168916200163100    000041942                    000419420000000000000109                     I0241942     30051900000000040003410000017N130319105700000000000133005190000000000000000000000000000000000000000100051851229787MARTA DO NASCIMENTO CRISPINO            RUA LEONOR SARAMAGON 89,                FONSECA     24120340NITEROI        RJUNIAO UMB DOS CULTOS AFRO BRAS    30051915 000052
21300520190000000000080                                                                                                                                                                                                                                                                                                                                                                                   000053
10231987175000168916200163100    000041329                    000413290000000000000109                     I0241329     30041900000000040003410000017N120319105700000000000133004190000000000000000000000000000000000000000100002176741781SUSI DE OLIVEIRA LOUREIRO               AVENIDA: VICENTE DE CARVALHO N 536, CASAVICENTE DE C21371148RIO DE JANEIRO RJUNIAO UMB DOS CULTOS AFRO BRAS    30041915 000054
21300420190000000000080                                                                                                                                                                                                                                                                                                                                                                                   000055
10231987175000168916200163100    000041114                    000411140000000000000109                     I0241114     30041900000000040003410000017N120319105700000000000133004190000000000000000000000000000000000000000100002139519752CARLA MARIA DE BRITO DOS SANTO          RUA ECHEVERRIAN 309, BLOCO 08 APT 501   JARDIM ROTSE25267142DUQUE DE CAXIASRJUNIAO UMB DOS CULTOS AFRO BRAS    30041915 000056
21300420190000000000080                                                                                                                                                                                                                                                                                                                                                                                   000057
10231987175000168916200163100    000040712                    000407120000000000000109                     I0240712     30041900000000040003410000017N120319105700000000000133004190000000000000000000000000000000000000000100082096260787MARIA INACIA DE ALVARENGA COUT          RUA UBIRATAN 373, FRENTE                HIGIENOPOLIS21051030RIO DE JANEIRO RJUNIAO UMB DOS CULTOS AFRO BRAS    30041915 000058
21300420190000000000080                                                                                                                                                                                                                                                                                                                                                                                   000059
10231987175000168916200163100    000040483                    000404830000000000000109                     I3440483     30041900000000040003410000017N120319105700000000000133004190000000000000000000000000000000000000000100000633999709KATIA REGINA LEITE RAMOS                RUA GUIRATIM N 260,                     IRAJA       21371410RIO DE JANEIRO RJUNIAO UMB DOS CULTOS AFRO BRAS    30041915 000060
21300420190000000000080                                                                                                                                                                                                                                                                                                                                                                                   000061
10231987175000168916200163100    000040308                    000403080000000000000109                     I0240308     30041900000000040003410000017N120319105700000000000133004190000000000000000000000000000000000000000100051851229787MARTA DO NASCIMENTO CRISPINO            RUA LEONOR SARAMAGON 89,                FONSECA     24120340NITEROI        RJUNIAO UMB DOS CULTOS AFRO BRAS    30041915 000062
21300420190000000000080                                                                                                                                                                                                                                                                                                                                                                                   000063
10231987175000168916200163100    000039884                    000398840000000000000109                     I3439884     30041900000000040003410000017N120319105700000000000133004190000000000000000000000000000000000000000100000000000000CACILDA AQUINO DOS SANTOS               RUA CATULO CEARENSEN 119,               ENGENHO DE D20730320RIO DE JANEIRO RJUNIAO UMB DOS CULTOS AFRO BRAS    30041915 000064
21300420190000000000080                                                                                                                                                                                                                                                                                                                                                                                   000065
9                                                                                                                                                                                                                                                                                                                                                                                                         000066
