01REMESSA01COBRANCA       916200163100        União Umb dos Cultos Afro Bra341BANCO ITAU SA  070619                                                                                                                                                                                                                                                                                                      000001
10231987175000168916200163100    000045359                    000453590000000000000109                     I0145359     12061900000000080003410000017N070619105700000000000261206190000000000000000000000000000000000000000100081531095704ROSANA ALMEIDA SILVA                    RUA JOAQUIM MARIANO DE MOURA N 246,     PONTO CHIC  26032840NOVA IGUACU    RJUNIAO UMB DOS CULTOS AFRO BRAS    12061915 000002
21120620190000000000160                                                                                                                                                                                                                                                                                                                                                                                   000003
10231987175000168916200163100    000045358                    000453580000000000000109                     I0145358     05071900000000250003410000017N060619105700000000000830507190000000000000000000000000000000000000000100012732003735THAYS CRISTINA CAMPOS BARBOSA           RUA LUIS BARBALHO      N 445,           ROCHA MIRAND21510110RIO DE JANEIRO RJUNIAO UMB DOS CULTOS AFRO BRAS    05071915 000004
21050720190000000000500                                                                                                                                                                                                                                                                                                                                                                                   000005
10231987175000168916200163100    000045357                    000453570000000000000109                     I0145357     10061900000000045003410000017N060619105700000000000151006190000000000000000000000000000000000000000100009605715740SONIA LUCIA DOS SANTOS                  RUA AN 320, AVENIDA MINISTRO AMARAL PEIXSIDERLANDIA 27350470BARRA MANSA    RJUNIAO UMB DOS CULTOS AFRO BRAS    10061915 000006
21100620190000000000090                                                                                                                                                                                                                                                                                                                                                                                   000007
10231987175000168916200163100    000045356                    000453560000000000000109                     I0145356     10061900000000135003410000017N060619105700000000000451006190000000000000000000000000000000000000000100008331240723MONIQUE SUZANO ASSUNCAO DE OLI          RUA: DIVINOPOLIS N 35,                  BENTO RIBEIR21550280RIO DE JANEIRO RJUNIAO UMB DOS CULTOS AFRO BRAS    10061915 000008
21100620190000000000270                                                                                                                                                                                                                                                                                                                                                                                   000009
10231987175000168916200163100    000044217                    000442170000000000000109                     I0244217     30061900000000040003410000017N130319105700000000000133006190000000000000000000000000000000000000000100003319281755GENILSON CAETANO DA SILVA               RUA JACO MELOTIN 46,                    CORUMBA     26041790NOVA IGUACU    RJUNIAO UMB DOS CULTOS AFRO BRAS    30061915 000010
21300620190000000000080                                                                                                                                                                                                                                                                                                                                                                                   000011
10231987175000168916200163100    000044171                    000441710000000000000109                     I0244171     30061900000000040003410000017N130319105700000000000133006190000000000000000000000000000000000000000100060158751787CARLOS ALEXANDRE PEREIRA E SOU          RUA: BEMPOSTAN 0, CASA 2 LOTE 67 -TAQUARBOIUNA - JAC22723320RIO DE JANEIRO RJUNIAO UMB DOS CULTOS AFRO BRAS    30061915 000012
21300620190000000000080                                                                                                                                                                                                                                                                                                                                                                                   000013
10231987175000168916200163100    000043838                    000438380000000000000109                     I3443838     30061900000000040003410000017N130319105700000000000133006190000000000000000000000000000000000000000100004462221788ALEXSANDRO JULIO DE SOUZA               RUA CORURIPEN 410,                      MARECHAL HER21555490RIO DE JANEIRO RJUNIAO UMB DOS CULTOS AFRO BRAS    30061915 000014
21300620190000000000080                                                                                                                                                                                                                                                                                                                                                                                   000015
10231987175000168916200163100    000043776                    000437760000000000000109                     I0243776     30061900000000040003410000017N130319105700000000000133006190000000000000000000000000000000000000000100000308305752MAGDA LEOPOLDINA DA SILVA               ESTRADA DOS SETE RIACHOSN 1949, LOTE 10 SANTISSIMO  23098006RIO DE JANEIRO RJUNIAO UMB DOS CULTOS AFRO BRAS    30061915 000016
21300620190000000000080                                                                                                                                                                                                                                                                                                                                                                                   000017
10231987175000168916200163100    000043239                    000432390000000000000109                     I0243239     30061900000000040003410000017N130319105700000000000133006190000000000000000000000000000000000000000100054571715749VILMA OLIVEIRA DOS SANTOS               RUA CORREIA DIASN 1066,                 VIGARIO GERA21241318RIO DE JANEIRO RJUNIAO UMB DOS CULTOS AFRO BRAS    30061915 000018
21300620190000000000080                                                                                                                                                                                                                                                                                                                                                                                   000019
10231987175000168916200163100    000042571                    000425710000000000000109                     I0242571     30051900000000040003410000017N130319105700000000000133005190000000000000000000000000000000000000000100003319281755GENILSON CAETANO DA SILVA               RUA JACO MELOTIN 46,                    CORUMBA     26041790NOVA IGUACU    RJUNIAO UMB DOS CULTOS AFRO BRAS    30051915 000020
21300520190000000000080                                                                                                                                                                                                                                                                                                                                                                                   000021
10231987175000168916200163100    000042462                    000424620000000000000109                     I0242462     30051900000000040003410000017N130319105700000000000133005190000000000000000000000000000000000000000100011981552723DIEGO DE SIQUEIRA VIEIRA                RUA ACUN 339, FUNDOS                    REALENGO    21765640RIO DE JANEIRO RJUNIAO UMB DOS CULTOS AFRO BRAS    30051915 000022
21300520190000000000080                                                                                                                                                                                                                                                                                                                                                                                   000023
10231987175000168916200163100    000042384                    000423840000000000000109                     I0142384     10061900000000040003410000017N130319105700000000000131006190000000000000000000000000000000000000000100070727201700MARIA LUIZA AGENOR BERTHO               ESTRADA ELISEU DE ALVARENGAN 162, CASA 6OLINDA      26510361NILOPOLIS      RJUNIAO UMB DOS CULTOS AFRO BRAS    10061915 000024
21100620190000000000080                                                                                                                                                                                                                                                                                                                                                                                   000025
10231987175000168916200163100    000042193                    000421930000000000000109                     I3442193     30051900000000040003410000017N130319105700000000000133005190000000000000000000000000000000000000000100004462221788ALEXSANDRO JULIO DE SOUZA               RUA CORURIPEN 410,                      MARECHAL HER21555490RIO DE JANEIRO RJUNIAO UMB DOS CULTOS AFRO BRAS    30051915 000026
21300520190000000000080                                                                                                                                                                                                                                                                                                                                                                                   000027
10231987175000168916200163100    000042183                    000421830000000000000109                     I0242183     30051900000000040003410000017N130319105700000000000133005190000000000000000000000000000000000000000100007039849771MARCIA SILVA DOS SANTOS FALCAO          ESTRADA: DA BARREIRAN 577,              CENTRO      25946070GUAPIMIRIM     RJUNIAO UMB DOS CULTOS AFRO BRAS    30051915 000028
21300520190000000000080                                                                                                                                                                                                                                                                                                                                                                                   000029
10231987175000168916200163100    000042132                    000421320000000000000109                     I0242132     30051900000000040003410000017N130319105700000000000133005190000000000000000000000000000000000000000100000308305752MAGDA LEOPOLDINA DA SILVA               ESTRADA DOS SETE RIACHOSN 1949, LOTE 10 SANTISSIMO  23098006RIO DE JANEIRO RJUNIAO UMB DOS CULTOS AFRO BRAS    30051915 000030
21300520190000000000080                                                                                                                                                                                                                                                                                                                                                                                   000031
10231987175000168916200163100    000040934                    000409340000000000000109                     I0240934     30041900000000040003410000017N120319105700000000000133004190000000000000000000000000000000000000000100003319281755GENILSON CAETANO DA SILVA               RUA JACO MELOTIN 46,                    CORUMBA     26041790NOVA IGUACU    RJUNIAO UMB DOS CULTOS AFRO BRAS    30041915 000032
21300420190000000000080                                                                                                                                                                                                                                                                                                                                                                                   000033
10231987175000168916200163100    000040888                    000408880000000000000109                     I0240888     30041900000000040003410000017N120319105700000000000133004190000000000000000000000000000000000000000100060158751787CARLOS ALEXANDRE PEREIRA E SOU          RUA: BEMPOSTAN 0, CASA 2 LOTE 67 -TAQUARBOIUNA - JAC22723320RIO DE JANEIRO RJUNIAO UMB DOS CULTOS AFRO BRAS    30041915 000034
21300420190000000000080                                                                                                                                                                                                                                                                                                                                                                                   000035
10231987175000168916200163100    000040825                    000408250000000000000109                     I0240825     30041900000000040003410000017N120319105700000000000133004190000000000000000000000000000000000000000100011981552723DIEGO DE SIQUEIRA VIEIRA                RUA ACUN 339, FUNDOS                    REALENGO    21765640RIO DE JANEIRO RJUNIAO UMB DOS CULTOS AFRO BRAS    30041915 000036
21300420190000000000080                                                                                                                                                                                                                                                                                                                                                                                   000037
10231987175000168916200163100    000040548                    000405480000000000000109                     I0240548     30041900000000040003410000017N120319105700000000000133004190000000000000000000000000000000000000000100007039849771MARCIA SILVA DOS SANTOS FALCAO          ESTRADA: DA BARREIRAN 577,              CENTRO      25946070GUAPIMIRIM     RJUNIAO UMB DOS CULTOS AFRO BRAS    30041915 000038
21300420190000000000080                                                                                                                                                                                                                                                                                                                                                                                   000039
10231987175000168916200163100    000040497                    000404970000000000000109                     I0240497     30041900000000040003410000017N120319105700000000000133004190000000000000000000000000000000000000000100000308305752MAGDA LEOPOLDINA DA SILVA               ESTRADA DOS SETE RIACHOSN 1949, LOTE 10 SANTISSIMO  23098006RIO DE JANEIRO RJUNIAO UMB DOS CULTOS AFRO BRAS    30041915 000040
21300420190000000000080                                                                                                                                                                                                                                                                                                                                                                                   000041
10231987175000168916200163100    000039967                    000399670000000000000109                     I0239967     30041900000000040003410000017N120319105700000000000133004190000000000000000000000000000000000000000100054571715749VILMA OLIVEIRA DOS SANTOS               RUA CORREIA DIASN 1066,                 VIGARIO GERA21241318RIO DE JANEIRO RJUNIAO UMB DOS CULTOS AFRO BRAS    30041915 000042
21300420190000000000080                                                                                                                                                                                                                                                                                                                                                                                   000043
9                                                                                                                                                                                                                                                                                                                                                                                                         000044
