01REMESSA01COBRANCA       916200163100        União Umb dos Cultos Afro Bra341BANCO ITAU SA  220519                                                                                                                                                                                                                                                                                                      000001
10231987175000168916200163100    000045299                    000452990000000000000109                     I0145299     10061900000000180003410000017N220519105700000000000101006190000000000000000000000000000000000000000100048363669768MARILANE BARROSO BERNARDES              RUA ORICAN 89, CASA                     BRAZ DE PINA21215260RIO DE JANEIRO RJUNIAO UMB DOS CULTOS AFRO BRAS    10061915 000002
10231987175000168916200163100    000045298                    000452980000000000000109                     I0145298     10061900000000350003410000017N220519105700000000000101006190000000000000000000000000000000000000000100081891423720MAURO DINIZ                             RUA MILTAER SOARES (ANTIGA RUA CINQUENTAJARDIM ATLAN24934525MARICA         RJUNIAO UMB DOS CULTOS AFRO BRAS    10061915 000003
10231987175000168916200163100    000045297                    000452970000000000000109                     I0245297     05061900000000560003410000017N220519105700000000000100506190000000000000000000000000000000000000000100065096100782TANIA REGINA FIRMINO                    RUA PARAN 13,                           JARDIM VISTA25235202DUQUE DE CAXIASRJUNIAO UMB DOS CULTOS AFRO BRAS    05061915 000004
10231987175000168916200163100    000045296                    000452960000000000000109                     I0145296     30061900000000040003410000017N220519105700000000000103006190000000000000000000000000000000000000000100001345330707MARCELO BRAZ                            RUA TUCUNAREN 78,                       BRAZ DE PINA21215150RIO DE JANEIRO RJUNIAO UMB DOS CULTOS AFRO BRAS    30061915 000005
10231987175000168916200163100    000045295                    000452950000000000000109                     I0145295     30061900000000040003410000017N220519105700000000000103006190000000000000000000000000000000000000000100084334690700VICTOR MIRANDA GIORDANO                 RUA UMN 80, PARQUE ALVORADA             NOVA BRASILI26053015NOVA IGUACU    RJUNIAO UMB DOS CULTOS AFRO BRAS    30061915 000006
10231987175000168916200163100    000045294                    000452940000000000000109                     I0145294     30061900000000040003410000017N220519105700000000000103006190000000000000000000000000000000000000000100009825767731SEBASTIANA LUIZA CARVALHO DA S          RUA BRASILINAN 540,                     VILA VERDE  26178180BELFORD ROXO   RJUNIAO UMB DOS CULTOS AFRO BRAS    30061915 000007
10231987175000168916200163100    000042149                    000421490000000000000109                     I0242149     30051900000000040003410000017N130319105700000000000103005190000000000000000000000000000000000000000100060856467715JANAINA COELHO MELO                     RUA SANTO APIANO N 288, FUNDOS          IRAJA       21361420RIO DE JANEIRO RJUNIAO UMB DOS CULTOS AFRO BRAS    30051915 000008
10231987175000168916200163100    000042094                    000420940000000000000109                     I0242094     30051900000000040003410000017N130319105700000000000103005190000000000000000000000000000000000000000100013540020756RUTE MEDEIROS VIEIRA                    RUA DEZESSEISN 527,                     SANTA CRUZ  23565450RIO DE JANEIRO RJUNIAO UMB DOS CULTOS AFRO BRAS    30051915 000009
9                                                                                                                                                                                                                                                                                                                                                                                                         000010
