01REMESSA01COBRANCA       817800093673        União Umb dos Cultos Afro Bra341BANCO ITAU SA  150319                                                                                                                                                                                                                                                                                                      000001
10231987175000168817800093673    000044834                    000448340000000000000109                     I0144834     30061900000000040003410000017N150319104700000000000103006190000000000000000000000000000000000000000100098077899749WANDERLEY PACHECO                       RUA: NOSSA SENHORA DA CONCEICAON 0, LOTEPILAR       25233070DUQUE DE CAXIASRJUNIAO UMB DOS CULTOS AFRO BRAS    30061910 000002
10231987175000168817800093673    000044833                    000448330000000000000109                     I0144833     30051900000000040003410000017N150319104700000000000103005190000000000000000000000000000000000000000100098077899749WANDERLEY PACHECO                       RUA: NOSSA SENHORA DA CONCEICAON 0, LOTEPILAR       25233070DUQUE DE CAXIASRJUNIAO UMB DOS CULTOS AFRO BRAS    30051910 000003
10231987175000168817800093673    000044832                    000448320000000000000109                     I0144832     30041900000000040003410000017N150319104700000000000103004190000000000000000000000000000000000000000100098077899749WANDERLEY PACHECO                       RUA: NOSSA SENHORA DA CONCEICAON 0, LOTEPILAR       25233070DUQUE DE CAXIASRJUNIAO UMB DOS CULTOS AFRO BRAS    30041910 000004
10231987175000168817800093673    000044831                    000448310000000000000109                     I0144831     30051900000000040003410000017N150319104700000000000103005190000000000000000000000000000000000000000100080728774704NERIANA SILVA DO CARMO                  RUA AREALN 262,                         SEPETIBA    23535730RIO DE JANEIRO RJUNIAO UMB DOS CULTOS AFRO BRAS    30051910 000005
10231987175000168817800093673    000044830                    000448300000000000000109                     I0144830     30051900000000040003410000017N150319104700000000000103005190000000000000000000000000000000000000000100080728774704NERIANA SILVA DO CARMO                  RUA AREALN 262,                         SEPETIBA    23535730RIO DE JANEIRO RJUNIAO UMB DOS CULTOS AFRO BRAS    30051910 000006
10231987175000168817800093673    000044829                    000448290000000000000109                     I0144829     30041900000000040003410000017N150319104700000000000103004190000000000000000000000000000000000000000100080728774704NERIANA SILVA DO CARMO                  RUA AREALN 262,                         SEPETIBA    23535730RIO DE JANEIRO RJUNIAO UMB DOS CULTOS AFRO BRAS    30041910 000007
10231987175000168817800093673    000044828                    000448280000000000000109                     I0144828     30061900000000040003410000017N150319104700000000000103006190000000000000000000000000000000000000000100074190741787JOSE ITAGIBA RODRIGUES                  TRAVESSA SANTA ROSAN 0, LOTE 35         CAPELA      25916060MAGE           RJUNIAO UMB DOS CULTOS AFRO BRAS    30061910 000008
10231987175000168817800093673    000044827                    000448270000000000000109                     I0144827     30051900000000040003410000017N150319104700000000000103005190000000000000000000000000000000000000000100074190741787JOSE ITAGIBA RODRIGUES                  TRAVESSA SANTA ROSAN 0, LOTE 35         CAPELA      25916060MAGE           RJUNIAO UMB DOS CULTOS AFRO BRAS    30051910 000009
10231987175000168817800093673    000044826                    000448260000000000000109                     I0144826     30041900000000040003410000017N150319104700000000000103004190000000000000000000000000000000000000000100074190741787JOSE ITAGIBA RODRIGUES                  TRAVESSA SANTA ROSAN 0, LOTE 35         CAPELA      25916060MAGE           RJUNIAO UMB DOS CULTOS AFRO BRAS    30041910 000010
10231987175000168817800093673    000044825                    000448250000000000000109                     I0144825     29031900000000120003410000017N150319104700000000000102903190000000000000000000000000000000000000000225990357000195TENDA ESPIRITA PAI CAMBINDO             RUA JORGE LEAL GONCALVESN 37, CASA 2    PACIENCIA   23587270RIO DE JANEIRO RJUNIAO UMB DOS CULTOS AFRO BRAS    29031910 000011
10231987175000168817800093673    000044824                    000448240000000000000109                     I0144824     22031900000000320003410000017N150319104700000000000102203190000000000000000000000000000000000000000225990357000195TENDA ESPIRITA PAI CAMBINDO             RUA JORGE LEAL GONCALVESN 37, CASA 2    PACIENCIA   23587270RIO DE JANEIRO RJUNIAO UMB DOS CULTOS AFRO BRAS    22031910 000012
10231987175000168817800093673    000044823                    000448230000000000000109                     I0144823     22031900000000080003410000017N150319104700000000000102203190000000000000000000000000000000000000000100096933836720CELIA GOMES DE OLIVEIRA FALCAO          RUA CONDOMINIO 1º DE MAION 227, B      MADAME MACHA23740020PETROPOLIS     RJUNIAO UMB DOS CULTOS AFRO BRAS    22031910 000013
10231987175000168817800093673    000044822                    000448220000000000000109                     I0144822     10041900000000400003410000017N150319104700000000000101004190000000000000000000000000000000000000000100081733577734JOSE CARLOS DE ORNELAS SOARES           RUA PROJETADAN 20, CASA 1               LARGO DO MAC28770000SANTA MARIA MADRJUNIAO UMB DOS CULTOS AFRO BRAS    10041910 000014
10231987175000168817800093673    000044821                    000448210000000000000109                     I0144821     22031900000000080003410000017N150319104700000000000102203190000000000000000000000000000000000000000100013180490756DIEGO CAVALCANTI DA SILVA               RUA CONDE DE RESENDEN 127,              BENTO RIBEIR21550600RIO DE JANEIRO RJUNIAO UMB DOS CULTOS AFRO BRAS    22031910 000015
10231987175000168817800093673    000044820                    000448200000000000000109                     I0244820     20031900000000560003410000017N150319104700000000000102003190000000000000000000000000000000000000000100013180490756DIEGO CAVALCANTI DA SILVA               RUA CONDE DE RESENDEN 127,              BENTO RIBEIR21550600RIO DE JANEIRO RJUNIAO UMB DOS CULTOS AFRO BRAS    20031910 000016
10231987175000168817800093673    000044819                    000448190000000000000109                     I0144819     30061900000000040003410000017N140319104700000000000103006190000000000000000000000000000000000000000100009699441798LIDIANE DE ASSUNCAO VELOSO RAN          RUA SILVA PINTON 88, APARTAMENTO 502    VILA ISABEL 20551190RIO DE JANEIRO RJUNIAO UMB DOS CULTOS AFRO BRAS    30061910 000017
10231987175000168817800093673    000044818                    000448180000000000000109                     I0144818     30041900000000040003410000017N140319104700000000000103004190000000000000000000000000000000000000000100009699441798LIDIANE DE ASSUNCAO VELOSO RAN          RUA SILVA PINTON 88, APARTAMENTO 502    VILA ISABEL 20551190RIO DE JANEIRO RJUNIAO UMB DOS CULTOS AFRO BRAS    30041910 000018
10231987175000168817800093673    000044817                    000448170000000000000109                     I0144817     30041900000000040003410000017N140319104700000000000103004190000000000000000000000000000000000000000100009699441798LIDIANE DE ASSUNCAO VELOSO RAN          RUA SILVA PINTON 88, APARTAMENTO 502    VILA ISABEL 20551190RIO DE JANEIRO RJUNIAO UMB DOS CULTOS AFRO BRAS    30041910 000019
10231987175000168817800093673    000044816                    000448160000000000000109                     I0244816     30061900000000040003410000017N140319104700000000000103006190000000000000000000000000000000000000000100080728774704NERIANA SILVA DO CARMO                  RUA AREALN 262,                         SEPETIBA    23535730RIO DE JANEIRO RJUNIAO UMB DOS CULTOS AFRO BRAS    30061910 000020
10231987175000168817800093673    000044815                    000448150000000000000109                     I0244815     30051900000000040003410000017N140319104700000000000103005190000000000000000000000000000000000000000100080728774704NERIANA SILVA DO CARMO                  RUA AREALN 262,                         SEPETIBA    23535730RIO DE JANEIRO RJUNIAO UMB DOS CULTOS AFRO BRAS    30051910 000021
10231987175000168817800093673    000044814                    000448140000000000000109                     I0244814     30041900000000040003410000017N140319104700000000000103004190000000000000000000000000000000000000000100080728774704NERIANA SILVA DO CARMO                  RUA AREALN 262,                         SEPETIBA    23535730RIO DE JANEIRO RJUNIAO UMB DOS CULTOS AFRO BRAS    30041910 000022
10231987175000168817800093673    000044813                    000448130000000000000109                     I0144813     30061900000000040003410000017N140319104700000000000103006190000000000000000000000000000000000000000100090776704753CLAUDIO ISAAC PEREIRA TEIXEIRA          RUA ARUTIN 57, FUNDOS                   PRACA SECA  21321030RIO DE JANEIRO RJUNIAO UMB DOS CULTOS AFRO BRAS    30061910 000023
10231987175000168817800093673    000044812                    000448120000000000000109                     I0144812     30051900000000040003410000017N140319104700000000000103005190000000000000000000000000000000000000000100090776704753CLAUDIO ISAAC PEREIRA TEIXEIRA          RUA ARUTIN 57, FUNDOS                   PRACA SECA  21321030RIO DE JANEIRO RJUNIAO UMB DOS CULTOS AFRO BRAS    30051910 000024
10231987175000168817800093673    000044811                    000448110000000000000109                     I0144811     30041900000000040003410000017N140319104700000000000103004190000000000000000000000000000000000000000100090776704753CLAUDIO ISAAC PEREIRA TEIXEIRA          RUA ARUTIN 57, FUNDOS                   PRACA SECA  21321030RIO DE JANEIRO RJUNIAO UMB DOS CULTOS AFRO BRAS    30041910 000025
10231987175000168817800093673    000044810                    000448100000000000000109                     I0144810     05041900000000100003410000017N140319104700000000000100504190000000000000000000000000000000000000000100090776704753CLAUDIO ISAAC PEREIRA TEIXEIRA          RUA ARUTIN 57, FUNDOS                   PRACA SECA  21321030RIO DE JANEIRO RJUNIAO UMB DOS CULTOS AFRO BRAS    05041910 000026
10231987175000168817800093673    000039627                    000396270000000000000109                     I0239627     31011900000000070003410000017N210119104700000000000103101190000000000000000000000000000000000000000100066954371734ROBSON MESQUITA                         RUA TENENTE LUIZ DORNELESN 155,         PENHA       21070300RIO DE JANEIRO RJUNIAO UMB DOS CULTOS AFRO BRAS    31011910 000027
10231987175000168817800093673    000039360                    000393600000000000000109                     I0239360     30031900000000020003410000017N261218104700000000000103003190000000000000000000000000000000000000000100004116092380CLEUDIOMAR RIBEIRO DA CONCEICA          RUA SANTO ANTONION 20,                  SANTA RITA D65580000TUTOIA         MAUNIAO UMB DOS CULTOS AFRO BRAS    30031910 000028
10231987175000168817800093673    000038885                    000388850000000000000109                     I0238885     30031900000000040003410000017N261218104700000000000103003190000000000000000000000000000000000000000100008997230719RAIMUNDA DE SOUZA MEDEIROS              RUA ARATICUMN 835,                      ANIL - JACAR22753500RIO DE JANEIRO RJUNIAO UMB DOS CULTOS AFRO BRAS    30031910 000029
10231987175000168817800093673    000038053                    000380530000000000000109                     I0238053     30031900000000040003410000017N261218104700000000000103003190000000000000000000000000000000000000000100002978000783FABIO PINTO MANTUANO                    RUA: DAS AMOREIRAS N 23, QUADRA 4       INOA        24943760MARICA         RJUNIAO UMB DOS CULTOS AFRO BRAS    30031910 000030
10231987175000168817800093673    000037804                    000378040000000000000109                     I0237804     30031900000000040003410000017N261218104700000000000103003190000000000000000000000000000000000000000100000000000000JOSE ANTONIO ZANELLI                    PRAIA DE ICARAIN 267, LOJA 102          ICARAI      24230004NITEROI        RJUNIAO UMB DOS CULTOS AFRO BRAS    30031910 000031
10231987175000168817800093673    000037746                    000377460000000000000109                     I0237746     30031900000000040003410000017N261218104700000000000103003190000000000000000000000000000000000000000100004279924783EDUARDO CARVALHO DE SANTANNA            RUA CINCO N 778, CASA 2 AREA II         NOVA CAMPINA25268050DUQUE DE CAXIASRJUNIAO UMB DOS CULTOS AFRO BRAS    30031910 000032
10231987175000168817800093673    000037457                    000374570000000000000109                     I0237457     30031900000000040003410000017N261218104700000000000103003190000000000000000000000000000000000000000100001686254741ADELIA DE OLIVEIRA AZEVEDO              RUA CORONEL CAMISAON 842,               VISTA ALEGRE21250290RIO DE JANEIRO RJUNIAO UMB DOS CULTOS AFRO BRAS    30031910 000033
10231987175000168817800093673    000037440                    000374400000000000000109                     I0237440     28021900000000020003410000017N261218104700000000000102802190000000000000000000000000000000000000000100004116092380CLEUDIOMAR RIBEIRO DA CONCEICA          RUA SANTO ANTONION 20,                  SANTA RITA D65580000TUTOIA         MAUNIAO UMB DOS CULTOS AFRO BRAS    28021910 000034
10231987175000168817800093673    000036966                    000369660000000000000109                     I0236966     28021900000000040003410000017N261218104700000000000102802190000000000000000000000000000000000000000100008997230719RAIMUNDA DE SOUZA MEDEIROS              RUA ARATICUMN 835,                      ANIL - JACAR22753500RIO DE JANEIRO RJUNIAO UMB DOS CULTOS AFRO BRAS    28021910 000035
10231987175000168817800093673    000036727                    000367270000000000000109                     I0236727     28021900000000040003410000017N261218104700000000000102802190000000000000000000000000000000000000000100096933836720CELIA GOMES DE OLIVEIRA FALCAO          RUA CONDOMINIO 1º DE MAION 227, B      MADAME MACHA23740020PETROPOLIS     RJUNIAO UMB DOS CULTOS AFRO BRAS    28021910 000036
10231987175000168817800093673    000036259                    000362590000000000000109                     I0236259     28021900000000040003410000017N261218104700000000000102802190000000000000000000000000000000000000000100043194869787JORGE PINHEIRO DE ALMEIDA               RUA CERQUEIRA CESAR N 121, CASA 1       MADUREIRA   21351070RIO DE JANEIRO RJUNIAO UMB DOS CULTOS AFRO BRAS    28021910 000037
10231987175000168817800093673    000036138                    000361380000000000000109                     I0236138     28021900000000040003410000017N261218104700000000000102802190000000000000000000000000000000000000000100002978000783FABIO PINTO MANTUANO                    RUA: DAS AMOREIRAS N 23, QUADRA 4       INOA        24943760MARICA         RJUNIAO UMB DOS CULTOS AFRO BRAS    28021910 000038
10231987175000168817800093673    000035890                    000358900000000000000109                     I0235890     28021900000000040003410000017N261218104700000000000102802190000000000000000000000000000000000000000100000000000000JOSE ANTONIO ZANELLI                    PRAIA DE ICARAIN 267, LOJA 102          ICARAI      24230004NITEROI        RJUNIAO UMB DOS CULTOS AFRO BRAS    28021910 000039
10231987175000168817800093673    000035833                    000358330000000000000109                     I0235833     28021900000000040003410000017N261218104700000000000102802190000000000000000000000000000000000000000100004279924783EDUARDO CARVALHO DE SANTANNA            RUA CINCO N 778, CASA 2 AREA II         NOVA CAMPINA25268050DUQUE DE CAXIASRJUNIAO UMB DOS CULTOS AFRO BRAS    28021910 000040
10231987175000168817800093673    000035667                    000356670000000000000109                     I0235667     28021900000000040003410000017N261218104700000000000102802190000000000000000000000000000000000000000100075300931772ALTAIR DE SOUZA COSTA                   RUA SETE DE SETEMBRON 0, LOTE 15 QUADRA CABUCU      26293486NOVA IGUACU    RJUNIAO UMB DOS CULTOS AFRO BRAS    28021910 000041
10231987175000168817800093673    000035545                    000355450000000000000109                     I0235545     28021900000000040003410000017N261218104700000000000102802190000000000000000000000000000000000000000100001686254741ADELIA DE OLIVEIRA AZEVEDO              RUA CORONEL CAMISAON 842,               VISTA ALEGRE21250290RIO DE JANEIRO RJUNIAO UMB DOS CULTOS AFRO BRAS    28021910 000042
10231987175000168817800093673    000035527                    000355270000000000000109                     I0235527     31011900000000020003410000017N261218104700000000000103101190000000000000000000000000000000000000000100004116092380CLEUDIOMAR RIBEIRO DA CONCEICA          RUA SANTO ANTONION 20,                  SANTA RITA D65580000TUTOIA         MAUNIAO UMB DOS CULTOS AFRO BRAS    31011910 000043
10231987175000168817800093673    000035056                    000350560000000000000109                     I0235056     31011900000000040003410000017N261218104700000000000103101190000000000000000000000000000000000000000100008997230719RAIMUNDA DE SOUZA MEDEIROS              RUA ARATICUMN 835,                      ANIL - JACAR22753500RIO DE JANEIRO RJUNIAO UMB DOS CULTOS AFRO BRAS    31011910 000044
10231987175000168817800093673    000034230                    000342300000000000000109                     I0234230     31011900000000040003410000017N261218104700000000000103101190000000000000000000000000000000000000000100002978000783FABIO PINTO MANTUANO                    RUA: DAS AMOREIRAS N 23, QUADRA 4       INOA        24943760MARICA         RJUNIAO UMB DOS CULTOS AFRO BRAS    31011910 000045
10231987175000168817800093673    000033930                    000339300000000000000109                     I0233930     31011900000000040003410000017N261218104700000000000103101190000000000000000000000000000000000000000100004279924783EDUARDO CARVALHO DE SANTANNA            RUA CINCO N 778, CASA 2 AREA II         NOVA CAMPINA25268050DUQUE DE CAXIASRJUNIAO UMB DOS CULTOS AFRO BRAS    31011910 000046
10231987175000168817800093673    000033740                    000337400000000000000109                     I0233740     31011900000000040003410000017N261218104700000000000103101190000000000000000000000000000000000000000100066954371734ROBSON MESQUITA                         RUA TENENTE LUIZ DORNELESN 155,         PENHA       21070300RIO DE JANEIRO RJUNIAO UMB DOS CULTOS AFRO BRAS    31011910 000047
10231987175000168817800093673    000033645                    000336450000000000000109                     I0233645     31011900000000040003410000017N261218104700000000000103101190000000000000000000000000000000000000000100001686254741ADELIA DE OLIVEIRA AZEVEDO              RUA CORONEL CAMISAON 842,               VISTA ALEGRE21250290RIO DE JANEIRO RJUNIAO UMB DOS CULTOS AFRO BRAS    31011910 000048
9                                                                                                                                                                                                                                                                                                                                                                                                         000049
