01REMESSA01COBRANCA       916200163100        União Umb dos Cultos Afro Bra341BANCO ITAU SA  020719                                                                                                                                                                                                                                                                                                      000001
10231987175000168916200163100    000049854                    000498540000000000000109                     I0149854     30071900000000700003410000017N020719105700000000002313007190000000000000000000000000000000000000000100064148726791IJOSELI RICARDO DA SILVA                TRAVESSA BEIRA MARN 4,                  PORTO DO ROS24472025SAO GONCALO    RJUNIAO UMB DOS CULTOS AFRO BRAS    30071915 000002
21300720190000000001400                                                                                                                                                                                                                                                                                                                                                                                   000003
10231987175000168916200163100    000044700                    000447000000000000000109                     I3444700     30061900000000040003410000017N130319105700000000000133006190000000000000000000000000000000000000000100012119575789RAYKA DA SILVA BATISTA                  RUA PARAISON 33,                        PIABETA     25931638MAGE           RJUNIAO UMB DOS CULTOS AFRO BRAS    30061915 000004
21300620190000000000080                                                                                                                                                                                                                                                                                                                                                                                   000005
10231987175000168916200163100    000044663                    000446630000000000000109                     I0244663     30061900000000040003410000017N130319105700000000000133006190000000000000000000000000000000000000000100046840117715TERESA CRISTINA DE MELLO SOARE          RUA CANUTAMAN 119,                      OSWALDO CRUZ21340440RIO DE JANEIRO RJUNIAO UMB DOS CULTOS AFRO BRAS    30061915 000006
21300620190000000000080                                                                                                                                                                                                                                                                                                                                                                                   000007
10231987175000168916200163100    000044389                    000443890000000000000109                     I0244389     30061900000000040003410000017N130319105700000000000133006190000000000000000000000000000000000000000100049490087734DIRCE MARA DE OLIVEIRA PAULA            RUA OTILIO LIMA N 0, LOTE 2 QUADRA 130  SANTA LUZIA 24721490SAO GONCALO    RJUNIAO UMB DOS CULTOS AFRO BRAS    30061915 000008
21300620190000000000080                                                                                                                                                                                                                                                                                                                                                                                   000009
10231987175000168916200163100    000044156                    000441560000000000000109                     I0244156     30061900000000040003410000017N130319105700000000000133006190000000000000000000000000000000000000000100009805565700THIAGO DOS SANTOS FLOR DA SILV          RUA JOAO LUSON 423,                     REALENGO    21765620RIO DE JANEIRO RJUNIAO UMB DOS CULTOS AFRO BRAS    30061915 000010
21300620190000000000080                                                                                                                                                                                                                                                                                                                                                                                   000011
10231987175000168916200163100    000043832                    000438320000000000000109                     I0243832     30061900000000040003410000017N130319105700000000000133006190000000000000000000000000000000000000000100004766843746ALESSANDRO MEDEIROS BRITO               ...N 0, QUADRA 7 LOTES 13,14 E 15       ...         25938280...            ..UNIAO UMB DOS CULTOS AFRO BRAS    30061915 000012
21300620190000000000080                                                                                                                                                                                                                                                                                                                                                                                   000013
10231987175000168916200163100    000043679                    000436790000000000000109                     I0243679     30061900000000040003410000017N130319105700000000000133006190000000000000000000000000000000000000000100002480281701CESAR AUGUSTO DA SILVA MARCIAL          RUA JOAQUIM REGON 52, APT 313           OLARIA      21021590RIO DE JANEIRO RJUNIAO UMB DOS CULTOS AFRO BRAS    30061915 000014
21300620190000000000080                                                                                                                                                                                                                                                                                                                                                                                   000015
10231987175000168916200163100    000043427                    000434270000000000000109                     I0243427     30061900000000040003410000017N130319105700000000000133006190000000000000000000000000000000000000000100027016005704SEVERINO MIGUEL SIMAO                   RUA CONDOMINIO PASSAREDON 0, QUADRA 24 LCAMINHO DE B28910000CABO FRIO      RJUNIAO UMB DOS CULTOS AFRO BRAS    30061915 000016
21300620190000000000080                                                                                                                                                                                                                                                                                                                                                                                   000017
10231987175000168916200163100    000043396                    000433960000000000000109                     I0243396     30061900000000040003410000017N130319105700000000000133006190000000000000000000000000000000000000000100042153425700MARIA DA CONCEICAO MADUREIRA D          RUA SARAVATA N 329,                     MARECHAL HER21557010RIO DE JANEIRO RJUNIAO UMB DOS CULTOS AFRO BRAS    30061915 000018
21300620190000000000080                                                                                                                                                                                                                                                                                                                                                                                   000019
10231987175000168916200163100    000043209                    000432090000000000000109                     I3443209     30061900000000040003410000017N130319105700000000000133006190000000000000000000000000000000000000000100042959586700GEORGINA COSTA ISABEL                   RUA IGUACU  N 0, LOTE 3 QUADRA 26       PARQUE LAFAI25015350DUQUE DE CAXIASRJUNIAO UMB DOS CULTOS AFRO BRAS    30061915 000020
21300620190000000000080                                                                                                                                                                                                                                                                                                                                                                                   000021
10231987175000168916200163100    000043009                    000430090000000000000109                     I0243009     30051900000000040003410000017N130319105700000000000133005190000000000000000000000000000000000000000100046840117715TERESA CRISTINA DE MELLO SOARE          RUA CANUTAMAN 119,                      OSWALDO CRUZ21340440RIO DE JANEIRO RJUNIAO UMB DOS CULTOS AFRO BRAS    30051915 000022
21300520190000000000080                                                                                                                                                                                                                                                                                                                                                                                   000023
10231987175000168916200163100    000042510                    000425100000000000000109                     I0242510     30051900000000040003410000017N130319105700000000000133005190000000000000000000000000000000000000000100009805565700THIAGO DOS SANTOS FLOR DA SILV          RUA JOAO LUSON 423,                     REALENGO    21765620RIO DE JANEIRO RJUNIAO UMB DOS CULTOS AFRO BRAS    30051915 000024
21300520190000000000080                                                                                                                                                                                                                                                                                                                                                                                   000025
10231987175000168916200163100    000042187                    000421870000000000000109                     I0242187     30051900000000040003410000017N130319105700000000000133005190000000000000000000000000000000000000000100004766843746ALESSANDRO MEDEIROS BRITO               ...N 0, QUADRA 7 LOTES 13,14 E 15       ...         25938280...            ..UNIAO UMB DOS CULTOS AFRO BRAS    30051915 000026
21300520190000000000080                                                                                                                                                                                                                                                                                                                                                                                   000027
10231987175000168916200163100    000042035                    000420350000000000000109                     I0242035     30051900000000040003410000017N130319105700000000000133005190000000000000000000000000000000000000000100002480281701CESAR AUGUSTO DA SILVA MARCIAL          RUA JOAQUIM REGON 52, APT 313           OLARIA      21021590RIO DE JANEIRO RJUNIAO UMB DOS CULTOS AFRO BRAS    30051915 000028
21300520190000000000080                                                                                                                                                                                                                                                                                                                                                                                   000029
10231987175000168916200163100    000041784                    000417840000000000000109                     I0241784     30051900000000040003410000017N130319105700000000000133005190000000000000000000000000000000000000000100027016005704SEVERINO MIGUEL SIMAO                   RUA CONDOMINIO PASSAREDON 0, QUADRA 24 LCAMINHO DE B28910000CABO FRIO      RJUNIAO UMB DOS CULTOS AFRO BRAS    30051915 000030
21300520190000000000080                                                                                                                                                                                                                                                                                                                                                                                   000031
10231987175000168916200163100    000041753                    000417530000000000000109                     I0241753     30051900000000040003410000017N130319105700000000000133005190000000000000000000000000000000000000000100042153425700MARIA DA CONCEICAO MADUREIRA D          RUA SARAVATA N 329,                     MARECHAL HER21557010RIO DE JANEIRO RJUNIAO UMB DOS CULTOS AFRO BRAS    30051915 000032
21300520190000000000080                                                                                                                                                                                                                                                                                                                                                                                   000033
10231987175000168916200163100    000041433                    000414330000000000000109                     I3441433     30041900000000040003410000017N120319105700000000000133004190000000000000000000000000000000000000000100008068599703CLEIDE JANE ROCHA CONTE                 RUA: CN 111, CASA 1                     PARQUE AMORI26185342BELFORD ROXO   RJUNIAO UMB DOS CULTOS AFRO BRAS    30041915 000034
21300420190000000000080                                                                                                                                                                                                                                                                                                                                                                                   000035
10231987175000168916200163100    000040873                    000408730000000000000109                     I0240873     30041900000000040003410000017N120319105700000000000133004190000000000000000000000000000000000000000100009805565700THIAGO DOS SANTOS FLOR DA SILV          RUA JOAO LUSON 423,                     REALENGO    21765620RIO DE JANEIRO RJUNIAO UMB DOS CULTOS AFRO BRAS    30041915 000036
21300420190000000000080                                                                                                                                                                                                                                                                                                                                                                                   000037
10231987175000168916200163100    000040552                    000405520000000000000109                     I0240552     30041900000000040003410000017N120319105700000000000133004190000000000000000000000000000000000000000100004766843746ALESSANDRO MEDEIROS BRITO               ...N 0, QUADRA 7 LOTES 13,14 E 15       ...         25938280...            ..UNIAO UMB DOS CULTOS AFRO BRAS    30041915 000038
21300420190000000000080                                                                                                                                                                                                                                                                                                                                                                                   000039
10231987175000168916200163100    000040401                    000404010000000000000109                     I0240401     30041900000000040003410000017N120319105700000000000133004190000000000000000000000000000000000000000100002480281701CESAR AUGUSTO DA SILVA MARCIAL          RUA JOAQUIM REGON 52, APT 313           OLARIA      21021590RIO DE JANEIRO RJUNIAO UMB DOS CULTOS AFRO BRAS    30041915 000040
21300420190000000000080                                                                                                                                                                                                                                                                                                                                                                                   000041
10231987175000168916200163100    000040151                    000401510000000000000109                     I0240151     30041900000000040003410000017N120319105700000000000133004190000000000000000000000000000000000000000100027016005704SEVERINO MIGUEL SIMAO                   RUA CONDOMINIO PASSAREDON 0, QUADRA 24 LCAMINHO DE B28910000CABO FRIO      RJUNIAO UMB DOS CULTOS AFRO BRAS    30041915 000042
21300420190000000000080                                                                                                                                                                                                                                                                                                                                                                                   000043
10231987175000168916200163100    000040120                    000401200000000000000109                     I0240120     30041900000000040003410000017N120319105700000000000133004190000000000000000000000000000000000000000100042153425700MARIA DA CONCEICAO MADUREIRA D          RUA SARAVATA N 329,                     MARECHAL HER21557010RIO DE JANEIRO RJUNIAO UMB DOS CULTOS AFRO BRAS    30041915 000044
21300420190000000000080                                                                                                                                                                                                                                                                                                                                                                                   000045
9                                                                                                                                                                                                                                                                                                                                                                                                         000046
