01REMESSA01COBRANCA       817800093673        União Umb dos Cultos Afro Bra341BANCO ITAU SA  301118                                                                                                                                                                                                                                                                                                      000001
10231987175000168817800093673    000033503                    000335030000000000000109                     I0133503     14121800000000175003410000017N301118104700000000000101412180000000000000000000000000000000000000000100043397170706VERA LUCIA FERREIRA DA SILVA            RUA ALICE                               COMENDADOR S26262030NOVA IGUACU    RJUNIAO UMB DOS CULTOS AFRO BRAS    14121810 000002
10231987175000168817800093673    000033502                    000335020000000000000109                     I0133502     10121800000000105003410000017N301118104700000000000101012180000000000000000000000000000000000000000100002375024702FATIMA APARECIDA OLIVEIRA DE C          RUA OURO PRETO                          COQUEIRAL   20740280RIO DE JANEIRO RJUNIAO UMB DOS CULTOS AFRO BRAS    10121810 000003
10231987175000168817800093673    000033501                    000335010000000000000109                     I0133501     20121800000000400003410000017N301118104700000000000102012180000000000000000000000000000000000000000100001860673700FATIMA ANDREIA PINTO DE ALMEID          AVENIDA PAULO DE FRONTIN                RIO COMPRIDO20261241RIO DE JANEIRO RJUNIAO UMB DOS CULTOS AFRO BRAS    20121810 000004
10231987175000168817800093673    000033500                    000335000000000000000109                     I0133500     20121800000000050003410000017N301118104700000000000102012180000000000000000000000000000000000000000100001860673700FATIMA ANDREIA PINTO DE ALMEID          AVENIDA PAULO DE FRONTIN                RIO COMPRIDO20261241RIO DE JANEIRO RJUNIAO UMB DOS CULTOS AFRO BRAS    20121810 000005
10231987175000168817800093673    000033499                    000334990000000000000109                     I0133499     20121800000000350003410000017N301118104700000000000102012180000000000000000000000000000000000000000100008109127754DAMIANA CRISTINA SILVA DOS SAN          AVENIDA PRIMEIRO DE MAIO                CHAPERO     23831350DUQUE DE CAXIASRJUNIAO UMB DOS CULTOS AFRO BRAS    20121810 000006
10231987175000168817800093673    000033498                    000334980000000000000109                     I0133498     20121800000000040003410000017N301118104700000000000102012180000000000000000000000000000000000000000100008109127754DAMIANA CRISTINA SILVA DOS SAN          AVENIDA PRIMEIRO DE MAIO                CHAPERO     23831350DUQUE DE CAXIASRJUNIAO UMB DOS CULTOS AFRO BRAS    20121810 000007
10231987175000168817800093673    000033497                    000334970000000000000109                     I0133497     04011900000000350003410000017N291118104700000000000100401190000000000000000000000000000000000000000100063250071749JORGE LUIS FERREIRA                     RUA DIAMANTINA                          JARDIM LEAL 25035810DUQUE DE CAXIASRJUNIAO UMB DOS CULTOS AFRO BRAS    04011910 000008
10231987175000168817800093673    000033496                    000334960000000000000109                     I0133496     20121800000000350003410000017N291118104700000000000102012180000000000000000000000000000000000000000100008852284729DILMA DE OLIVEIRA CORDEIRO              RUA: VEREADOR OSCAR DIAS OLIVEIRA       CHACRINHA   25065160DUQUE DE CAXIASRJUNIAO UMB DOS CULTOS AFRO BRAS    20121810 000009
10231987175000168817800093673    000033495                    000334950000000000000109                     I0133495     20121800000000040003410000017N291118104700000000000102012180000000000000000000000000000000000000000100008852284729DILMA DE OLIVEIRA CORDEIRO              RUA: VEREADOR OSCAR DIAS OLIVEIRA       CHACRINHA   25065160DUQUE DE CAXIASRJUNIAO UMB DOS CULTOS AFRO BRAS    20121810 000010
10231987175000168817800093673    000033494                    000334940000000000000109                     I0133494     06121800000000140003410000017N291118104700000000000100612180000000000000000000000000000000000000000100057232350791NELSON CARNEIRO DA SILVA                RUA H                                   PENDOTIBA   24320225NITEROI        RJUNIAO UMB DOS CULTOS AFRO BRAS    06121810 000011
10231987175000168817800093673    000033493                    000334930000000000000109                     I0133493     20121800000000350003410000017N291118104700000000000102012180000000000000000000000000000000000000000100005170108740DJAIR DE PAULA CAVALCANTI               RUA RESTINGA                            CAMPO GRANDE23097650RIO DE JANEIRO RJUNIAO UMB DOS CULTOS AFRO BRAS    20121810 000012
10231987175000168817800093673    000033492                    000334920000000000000109                     I0133492     20121800000000040003410000017N291118104700000000000102012180000000000000000000000000000000000000000100005170108740DJAIR DE PAULA CAVALCANTI               RUA RESTINGA                            CAMPO GRANDE23097650RIO DE JANEIRO RJUNIAO UMB DOS CULTOS AFRO BRAS    20121810 000013
10231987175000168817800093673    000033491                    000334910000000000000109                     I0133491     07121800000000200003410000017N281118104700000000000100712180000000000000000000000000000000000000000100078754143772CARMEN NAJARA BAUCE DA SILVA            RUA NOSSA SENHORA DA GUIA               JARDIM DA PA25926849TERESOPOLIS    RJUNIAO UMB DOS CULTOS AFRO BRAS    07121810 000014
10231987175000168817800093673    000033490                    000334900000000000000109                     I0133490     30111800000000035003410000017N271118104700000000000103011180000000000000000000000000000000000000000100007804875754EVANDRO MEDEIROS DE OLIVEIRA            RUA EXPEDCIONARIO ALCEBIADES SODRE      JARDIM CATAR24716047MARICA         RJUNIAO UMB DOS CULTOS AFRO BRAS    30111810 000015
10231987175000168817800093673    000033489                    000334890000000000000109                     I0133489     20121800000000350003410000017N271118104700000000000102012180000000000000000000000000000000000000000100037660896768JORGE LESSA TRUGILHO                    RUA: MADALENA                           SENADOR CAMA21843000RIO DE JANEIRO RJUNIAO UMB DOS CULTOS AFRO BRAS    20121810 000016
10231987175000168817800093673    000033488                    000334880000000000000109                     I0133488     10121800000000210003410000017N271118104700000000000101012180000000000000000000000000000000000000000100089682300487STIVES FERREIRA DA SILVA                RUA OSVALDO EVANGELISTA DOS SANTOS      BANGU       21864530RIO DE JANEIRO RJUNIAO UMB DOS CULTOS AFRO BRAS    10121810 000017
10231987175000168817800093673    000033487                    000334870000000000000109                     I0133487     20121800000000100003410000017N271118104700000000000102012180000000000000000000000000000000000000000100060471859753MARLENE IBRAIN                          RUA: DOUTOR ALVARO DA PAIXAO JR         PARQUE AEROP27971180MACAE          RJUNIAO UMB DOS CULTOS AFRO BRAS    20121810 000018
10231987175000168817800093673    000033486                    000334860000000000000109                     I0133486     15011900000000500003410000017N271118104700000000000101501190000000000000000000000000000000000000000100008595310742BEATRIZ DA SILVA VIEIRA                 ESTRADA DO CONTORNO                     CAMBOTA     27600000VALENCA        RJUNIAO UMB DOS CULTOS AFRO BRAS    15011910 000019
10231987175000168817800093673    000033485                    000334850000000000000109                     I0133485     20121800000000500003410000017N271118104700000000000102012180000000000000000000000000000000000000000100002960662300CRISTIANO ALVES DOS SANTOS              RUA REIS FILHO                          CENTRO      36455000LAMIM          MGUNIAO UMB DOS CULTOS AFRO BRAS    20121810 000020
10231987175000168817800093673    000033484                    000334840000000000000109                     I0133484     11121800000000350003410000017N271118104700000000000101112180000000000000000000000000000000000000000100000260923796RITA LUZIE HENRIQUE DA SILVA A          RUA: BARAO DE SERTORIO                  RIO COMPRIDO20261050RIO DE JANEIRO RJUNIAO UMB DOS CULTOS AFRO BRAS    11121810 000021
10231987175000168817800093673    000033446                    000334460000000000000109                     I0233446     21111800000000105003410000017N201118104700000000000102111180000000000000000000000000000000000000000100055570720715ATILA CARDOSO DE LIMA                   RUA EUGENIO SOARES                      CENTRO      26550007MESQUITA       RJUNIAO UMB DOS CULTOS AFRO BRAS    21111810 000022
10231987175000168817800093673    000033301                    000333010000000000000109                     I3433301     20121800000000400003410000017N291018104700000000000102012180000000000000000000000000000000000000000100010587941758JOANES ANICETO JUNIOR                   RUA BETEL                               INHAUMA     21061020RIO DE JANEIRO RJUNIAO UMB DOS CULTOS AFRO BRAS    20121810 000023
10231987175000168817800093673    000033066                    000330660000000000000109                     I0233066     20121800000000350003410000017N291018104700000000000102012180000000000000000000000000000000000000000100038378345734ADELIR MARIA DAS NEVES TEIXEIR          RUA: CATULO CEARENSE                    IMBARIE     25267320DUQUE DE CAXIASRJUNIAO UMB DOS CULTOS AFRO BRAS    20121810 000024
10231987175000168817800093673    000032473                    000324730000000000000109                     I0232473     20121800000000350003410000017N291018104700000000000102012180000000000000000000000000000000000000000100036876585700REGIS MARIA MATHEUS                     RUA TRINTA E SETE                       CAMPO LINDO 00000000RIO DE JANEIRO RJUNIAO UMB DOS CULTOS AFRO BRAS    20121810 000025
10231987175000168817800093673    000032256                    000322560000000000000109                     I0232256     20121800000000350003410000017N291018104700000000000102012180000000000000000000000000000000000000000100000260923796RITA LUZIE HENRIQUE DA SILVA A          RUA: BARAO DE SERTORIO                  RIO COMPRIDO20261050RIO DE JANEIRO RJUNIAO UMB DOS CULTOS AFRO BRAS    20121810 000026
10231987175000168817800093673    000031749                    000317490000000000000109                     I0231749     20121800000000350003410000017N291018104700000000000102012180000000000000000000000000000000000000000100081214863787EDNALDO OLIVEIRA DOS SANTOS             RUA DOIS DE JULHO                       CABUCU      26357970NOVA IGUACU    RJUNIAO UMB DOS CULTOS AFRO BRAS    20121810 000027
10231987175000168817800093673    000031736                    000317360000000000000109                     I0231736     20121800000000350003410000017N291018104700000000000102012180000000000000000000000000000000000000000100002911521714JUPIRA COSTA SOARES                     RUA DO AREAL                            CAMPO LINDO 23890000SEROPEDICA     RJUNIAO UMB DOS CULTOS AFRO BRAS    20121810 000028
10231987175000168817800093673    000031731                    000317310000000000000109                     I0131731     20121800000000250003410000017N291018104700000000000102012180000000000000000000000000000000000000000100002204669717AMELIA LUIZA PIRES DA SILVA             RUA: CLAUDINO BARATA                    REALENGO    21770200RIO DE JANEIRO RJUNIAO UMB DOS CULTOS AFRO BRAS    20121810 000029
10231987175000168817800093673    000031708                    000317080000000000000109                     I0231708     20121800000000350003410000017N291018104700000000000102012180000000000000000000000000000000000000000100076273210772CARLOS ROBERTO PEREIRA                  RUA PROFESSOR NICANOR LEMGRUBER         BARATA - REA21765600RIO DE JANEIRO RJUNIAO UMB DOS CULTOS AFRO BRAS    20121810 000030
10231987175000168817800093673    000031627                    000316270000000000000109                     I0231627     20121800000000350003410000017N291018104700000000000102012180000000000000000000000000000000000000000100086500201787CREUZA DE ARAUJO REIS                   RUA PROFESSOR JOAO BRASIL               ENGENHOCA   24130083NITEROI        RJUNIAO UMB DOS CULTOS AFRO BRAS    20121810 000031
10231987175000168817800093673    000031464                    000314640000000000000109                     I0231464     20121800000000350003410000017N291018104700000000000102012180000000000000000000000000000000000000000100063250071749JORGE LUIS FERREIRA                     RUA DIAMANTINA                          JARDIM LEAL 25035810DUQUE DE CAXIASRJUNIAO UMB DOS CULTOS AFRO BRAS    20121810 000032
10231987175000168817800093673    000031412                    000314120000000000000109                     I0231412     20121800000000350003410000017N291018104700000000000102012180000000000000000000000000000000000000000100050390473715TUPIARA LOPES MATHIAS                   RUA IGUACU                              ENGENHOCA BA24111210NITEROI        RJUNIAO UMB DOS CULTOS AFRO BRAS    20121810 000033
10231987175000168817800093673    000031331                    000313310000000000000109                     I0231331     20121800000000350003410000017N291018104700000000000102012180000000000000000000000000000000000000000100010500703721GISELLE FERREIRA DE SANTANA             RUA: BOA VISTA                          PILAR       25233180DUQUE DE CAXIASRJUNIAO UMB DOS CULTOS AFRO BRAS    20121810 000034
10231987175000168817800093673    000030959                    000309590000000000000109                     I0230959     20121800000000400003410000017N291018104700000000000102012180000000000000000000000000000000000000000100006926893705MARIA PINHEIRO DA SILVA FONSEC          RUA BOSTON                              JARDIM NOVA 25571300SAO JOAO DE MERRJUNIAO UMB DOS CULTOS AFRO BRAS    20121810 000035
10231987175000168817800093673    000030908                    000309080000000000000109                     I0230908     20121800000000350003410000017N291018104700000000000102012180000000000000000000000000000000000000000100000000000791EDSON LIMA DA MOTTA                     RUA MARANGA                             PRACA SECA  21321060RIO DE JANEIRO RJUNIAO UMB DOS CULTOS AFRO BRAS    20121810 000036
10231987175000168817800093673    000030643                    000306430000000000000109                     I0230643     20121800000000350003410000017N291018104700000000000102012180000000000000000000000000000000000000000100053226470744RUY CHRYSOSTOMO LEITE                   RUA JOSE MACHADO                        IRAJA       21361360RIO DE JANEIRO RJUNIAO UMB DOS CULTOS AFRO BRAS    20121810 000037
10231987175000168817800093673    000030635                    000306350000000000000109                     I0230635     20121800000000350003410000017N291018104700000000000102012180000000000000000000000000000000000000000100005395533796SONIA RIBEIRO LEAO                      RUA PROFESSOR NICANOR LENGRUBER         REALENGO    21760000RIO DE JANEIRO RJUNIAO UMB DOS CULTOS AFRO BRAS    20121810 000038
10231987175000168817800093673    000030612                    000306120000000000000109                     I0230612     20121800000000350003410000017N291018104700000000000102012180000000000000000000000000000000000000000100000062208780CELSO ROBERTO NUNES DE ANDRADE          RUA  BERTIOGA                           BRAS DE PINA21215218RIO DE JANEIRO RJUNIAO UMB DOS CULTOS AFRO BRAS    20121810 000039
10231987175000168817800093673    000030523                    000305230000000000000109                     I0230523     20121800000000350003410000017N291018104700000000000102012180000000000000000000000000000000000000000100060824131720DEISIMAR DA COSTA NOGUEIRA JUN          RUA:  FRANCISCO Nº 311                 MALVINA     21320190RIO DE JANEIRO RJUNIAO UMB DOS CULTOS AFRO BRAS    20121810 000040
10231987175000168817800093673    000029879                    000298790000000000000109                     I3429879     20121800000000035003410000017N291018104700000000000102012180000000000000000000000000000000000000000100003319281755GENILSON CAETANO DA SILVA               AVENIDA EDUARDO PACHECO VILENA          CORUMBA - AU26043130NOVA IGUACU    RJUNIAO UMB DOS CULTOS AFRO BRAS    20121810 000041
10231987175000168817800093673    000029785                    000297850000000000000109                     I0229785     20121800000000035003410000017N291018104700000000000102012180000000000000000000000000000000000000000100000260923796RITA LUZIE HENRIQUE DA SILVA A          RUA: BARAO DE SERTORIO                  RIO COMPRIDO20261050RIO DE JANEIRO RJUNIAO UMB DOS CULTOS AFRO BRAS    20121810 000042
10231987175000168817800093673    000029701                    000297010000000000000109                     I3429701     20121800000000035003410000017N291018104700000000000102012180000000000000000000000000000000000000000100018324860797ORLANDO ROCHA                           RUA EDUARDO CESAR MACHADO               ANCHIETA    21635140RIO DE JANEIRO RJUNIAO UMB DOS CULTOS AFRO BRAS    20121810 000043
10231987175000168817800093673    000029659                    000296590000000000000109                     I0229659     20121800000000035003410000017N291018104700000000000102012180000000000000000000000000000000000000000100057232350791NELSON CARNEIRO DA SILVA                RUA H                                   PENDOTIBA   24320225NITEROI        RJUNIAO UMB DOS CULTOS AFRO BRAS    20121810 000044
10231987175000168817800093673    000029620                    000296200000000000000109                     I0229620     20121800000000050003410000017N291018104700000000000102012180000000000000000000000000000000000000000100063604604753MARICELIA SALES FARIA MUNIZ             RUA CAROLINA AMADO                      IRAJA       21361320RIO DE JANEIRO RJUNIAO UMB DOS CULTOS AFRO BRAS    20121810 000045
10231987175000168817800093673    000029543                    000295430000000000000109                     I0229543     20121800000000035003410000017N291018104700000000000102012180000000000000000000000000000000000000000100002911521714JUPIRA COSTA SOARES                     RUA DO AREAL                            CAMPO LINDO 23890000SEROPEDICA     RJUNIAO UMB DOS CULTOS AFRO BRAS    20121810 000046
10231987175000168817800093673    000029173                    000291730000000000000109                     I3429173     20121800000000035003410000017N291018104700000000000102012180000000000000000000000000000000000000000100009886046716ANA CRISTINA DE ALMEIDA TRINDA          RUA COTIJUBA                            ROCHA MIRAND21555020RIO DE JANEIRO RJUNIAO UMB DOS CULTOS AFRO BRAS    20121810 000047
10231987175000168817800093673    000028936                    000289360000000000000109                     I3428936     31101800000000450003410000017N131018104700000000000103110180000000000000000000000000000000000000000100063604604753MARICELIA SALES FARIA MUNIZ             RUA CAROLINA AMADO                      IRAJA       21361320RIO DE JANEIRO RJUNIAO UMB DOS CULTOS AFRO BRAS    31101810 000048
10231987175000168817800093673    000028914                    000289140000000000000109                     I0228914     20121800000000035003410000017N101018104700000000000102012180000000000000000000000000000000000000000100093473095753ALEXANDER NUNES PICANCO                 RUA REGISTRO                            SENADOR CAMA21832270RIO DE JANEIRO RJUNIAO UMB DOS CULTOS AFRO BRAS    20121810 000049
10231987175000168817800093673    000028904                    000289040000000000000109                     I3428904     20121800000000040003410000017N081018104700000000000102012180000000000000000000000000000000000000000100010587941758JOANES ANICETO JUNIOR                   RUA BETEL                               INHAUMA     21061020RIO DE JANEIRO RJUNIAO UMB DOS CULTOS AFRO BRAS    20121810 000050
10231987175000168817800093673    000028903                    000289030000000000000109                     I3428903     30111800000000040003410000017N081018104700000000000103011180000000000000000000000000000000000000000100010587941758JOANES ANICETO JUNIOR                   RUA BETEL                               INHAUMA     21061020RIO DE JANEIRO RJUNIAO UMB DOS CULTOS AFRO BRAS    30111810 000051
10231987175000168817800093673    000028828                    000288280000000000000109                     I3428828     15111800000000400003410000017N011018104700000000000101511180000000000000000000000000000000000000000100058137840710GUARACIARA DA SILVA FERREIRA            RUA ANA MARIA DE QUEIROZ MATOSO         PARQUE ANALA25571161SAO JOAO DE MERRJUNIAO UMB DOS CULTOS AFRO BRAS    15111810 000052
10231987175000168817800093673    000028824                    000288240000000000000109                     I0228824     31101800000000350003410000017N011018104700000000000103110180000000000000000000000000000000000000000100037660896768JORGE LESSA TRUGILHO                    RUA: MADALENA                           SENADOR CAMA21843000RIO DE JANEIRO RJUNIAO UMB DOS CULTOS AFRO BRAS    31101810 000053
10231987175000168817800093673    000028208                    000282080000000000000109                     I0228208     30111800000000035003410000017N200818104700000000000103011180000000000000000000000000000000000000000100002362714748MAGLENE GOMES ARAUJO                    RUA TENENTE PINTO DUARTE                BENTO RIBEIR21550370RIO DE JANEIRO RJUNIAO UMB DOS CULTOS AFRO BRAS    30111810 000054
10231987175000168817800093673    000027970                    000279700000000000000109                     I3427970     30111800000000035003410000017N200818104700000000000103011180000000000000000000000000000000000000000100003319281755GENILSON CAETANO DA SILVA               AVENIDA EDUARDO PACHECO VILENA          CORUMBA - AU26043130NOVA IGUACU    RJUNIAO UMB DOS CULTOS AFRO BRAS    30111810 000055
10231987175000168817800093673    000027869                    000278690000000000000109                     I0227869     30111800000000035003410000017N200818104700000000000103011180000000000000000000000000000000000000000100000260923796RITA LUZIE HENRIQUE DA SILVA A          RUA: BARAO DE SERTORIO                  RIO COMPRIDO20261050RIO DE JANEIRO RJUNIAO UMB DOS CULTOS AFRO BRAS    30111810 000056
10231987175000168817800093673    000027831                    000278310000000000000109                     I3427831     30111800000000035003410000017N200818104700000000000103011180000000000000000000000000000000000000000100000747523715CLAUDIARA TEIXEIRA DA SILVA             RUA CAMBUCI                             MUQUECA     27140280BARRA DO PIRAI RJUNIAO UMB DOS CULTOS AFRO BRAS    30111810 000057
10231987175000168817800093673    000027734                    000277340000000000000109                     I0227734     30111800000000035003410000017N200818104700000000000103011180000000000000000000000000000000000000000100057232350791NELSON CARNEIRO DA SILVA                RUA H                                   PENDOTIBA   24320225NITEROI        RJUNIAO UMB DOS CULTOS AFRO BRAS    30111810 000058
10231987175000168817800093673    000027620                    000276200000000000000109                     I0227620     30111800000000035003410000017N200818104700000000000103011180000000000000000000000000000000000000000100002911521714JUPIRA COSTA SOARES                     RUA DO AREAL                            CAMPO LINDO 23890000SEROPEDICA     RJUNIAO UMB DOS CULTOS AFRO BRAS    30111810 000059
10231987175000168817800093673    000027613                    000276130000000000000109                     I0227613     30111800000000035003410000017N200818104700000000000103011180000000000000000000000000000000000000000100095949925734RITA DE CASSIA COCCARO                  RUA JUCARI                              IRAJA       21371320RIO DE JANEIRO RJUNIAO UMB DOS CULTOS AFRO BRAS    30111810 000060
10231987175000168817800093673    000027515                    000275150000000000000109                     I0227515     30111800000000035003410000017N200818104700000000000103011180000000000000000000000000000000000000000100093473095753ALEXANDER NUNES PICANCO                 RUA REGISTRO                            SENADOR CAMA21832270RIO DE JANEIRO RJUNIAO UMB DOS CULTOS AFRO BRAS    30111810 000061
10231987175000168817800093673    000027081                    000270810000000000000109                     I0227081     30111800000000035003410000017N200818104700000000000103011180000000000000000000000000000000000000000100000000000000NEUZA MORAES TAVARES                    RUA RUBENS BARCELLOS                    VILA ORLANDE27325260BARRA MANSA    RJUNIAO UMB DOS CULTOS AFRO BRAS    30111810 000062
10231987175000168817800093673    000025371                    000253710000000000000109                     I0225371     30101800000000035003410000017N200818104700000000000103010180000000000000000000000000000000000000000100002362714748MAGLENE GOMES ARAUJO                    RUA TENENTE PINTO DUARTE                BENTO RIBEIR21550370RIO DE JANEIRO RJUNIAO UMB DOS CULTOS AFRO BRAS    30101810 000063
10231987175000168817800093673    000025112                    000251120000000000000109                     I0225112     30101800000000035003410000017N200818104700000000000103010180000000000000000000000000000000000000000100007804875754EVANDRO MEDEIROS DE OLIVEIRA            RUA EXPEDCIONARIO ALCEBIADES SODRE      JARDIM CATAR24716047MARICA         RJUNIAO UMB DOS CULTOS AFRO BRAS    30101810 000064
10231987175000168817800093673    000025032                    000250320000000000000109                     I0225032     30101800000000035003410000017N200818104700000000000103010180000000000000000000000000000000000000000100000260923796RITA LUZIE HENRIQUE DA SILVA A          RUA: BARAO DE SERTORIO                  RIO COMPRIDO20261050RIO DE JANEIRO RJUNIAO UMB DOS CULTOS AFRO BRAS    30101810 000065
10231987175000168817800093673    000024897                    000248970000000000000109                     I0224897     30101800000000035003410000017N200818104700000000000103010180000000000000000000000000000000000000000100057232350791NELSON CARNEIRO DA SILVA                RUA H                                   PENDOTIBA   24320225NITEROI        RJUNIAO UMB DOS CULTOS AFRO BRAS    30101810 000066
10231987175000168817800093673    000024783                    000247830000000000000109                     I0224783     30101800000000035003410000017N200818104700000000000103010180000000000000000000000000000000000000000100002911521714JUPIRA COSTA SOARES                     RUA DO AREAL                            CAMPO LINDO 23890000SEROPEDICA     RJUNIAO UMB DOS CULTOS AFRO BRAS    30101810 000067
10231987175000168817800093673    000024776                    000247760000000000000109                     I0224776     30101800000000035003410000017N200818104700000000000103010180000000000000000000000000000000000000000100095949925734RITA DE CASSIA COCCARO                  RUA JUCARI                              IRAJA       21371320RIO DE JANEIRO RJUNIAO UMB DOS CULTOS AFRO BRAS    30101810 000068
9                                                                                                                                                                                                                                                                                                                                                                                                         000069
