01REMESSA01COBRANCA       916200163100        União Umb dos Cultos Afro Bra341BANCO ITAU SA  220119                                                                                                                                                                                                                                                                                                      000001
10231987175000168916200163100    000039624                    000396240000000000000109                     I0139624     25011900000000350003410000017N210119104700000000000102501190000000000000000000000000000000000000000100001057692743ANDRE LUIZ PEDROZA VARELLA              RUA: DOIS DE FEVEREIRO                  ENCANTADO   20730452RIO DE JANEIRO RJUNIAO UMB DOS CULTOS AFRO BRAS    25011910 000002
10231987175000168916200163100    000039623                    000396230000000000000109                     I0139623     20021900000000125003410000017N190119104700000000000102002190000000000000000000000000000000000000000100007332496712ELENICE ROSA DA SILVA                   RUA SEPETIBA                            PADRE JOSE B25565250NOVA IGUACU    RJUNIAO UMB DOS CULTOS AFRO BRAS    20021910 000003
10231987175000168916200163100    000039622                    000396220000000000000109                     I0139622     31031900000000040003410000017N180119104700000000000103103190000000000000000000000000000000000000000100006957328708ANDRE VALERIO DELGADO GOIS E M          RUA TORRES HOMEM                        JARDIM OLAVO25025380DUQUE DE CAXIASRJUNIAO UMB DOS CULTOS AFRO BRAS    31031910 000004
10231987175000168916200163100    000039621                    000396210000000000000109                     I0139621     28021900000000040003410000017N180119104700000000000102802190000000000000000000000000000000000000000100006957328708ANDRE VALERIO DELGADO GOIS E M          RUA TORRES HOMEM                        JARDIM OLAVO25025380DUQUE DE CAXIASRJUNIAO UMB DOS CULTOS AFRO BRAS    28021910 000005
10231987175000168916200163100    000039620                    000396200000000000000109                     I0139620     31011900000000040003410000017N180119104700000000000103101190000000000000000000000000000000000000000100006957328708ANDRE VALERIO DELGADO GOIS E M          RUA TORRES HOMEM                        JARDIM OLAVO25025380DUQUE DE CAXIASRJUNIAO UMB DOS CULTOS AFRO BRAS    31011910 000006
10231987175000168916200163100    000039610                    000396100000000000000109                     I0239610     24011900000000350003410000017N180119104700000000000102401190000000000000000000000000000000000000000100012218258790WILIAM ULERICH MARTINS                  RUA ANTONIO AUSTREGESILO                INHAUMA     21061300RIO DE JANEIRO RJUNIAO UMB DOS CULTOS AFRO BRAS    24011910 000007
10231987175000168916200163100    000033546                    000335460000000000000109                     I0233546     10121800000000140003410000017N061218104700000000000101012180000000000000000000000000000000000000000100040664325734GENI BARBOSA ROCHA DA SILVA             TRAVESSA DA AMIZADE                     VILA DA PENH25268020RIO DE JANEIRO RJUNIAO UMB DOS CULTOS AFRO BRAS    10121810 000008
10231987175000168916200163100    000033545                    000335450000000000000109                     I0233545     10121800000000035003410000017N061218104700000000000101012180000000000000000000000000000000000000000100040664325734GENI BARBOSA ROCHA DA SILVA             TRAVESSA DA AMIZADE                     VILA DA PENH25268020RIO DE JANEIRO RJUNIAO UMB DOS CULTOS AFRO BRAS    10121810 000009
9                                                                                                                                                                                                                                                                                                                                                                                                         000010
