01REMESSA01COBRANCA       817800093673        União Umb dos Cultos Afro Bra341BANCO ITAU SA  140219                                                                                                                                                                                                                                                                                                      000001
10231987175000168817800093673    000039721                    000397210000000000000109                     I0239721     30031900000000040003410000017N040219104700000000000103003190000000000000000000000000000000000000000100006924712789ERCY MUNIZ DE SOUZA                     RUA VISTA ALEGRE N 20, ROLLAS II        SANTA CRUZ  23591440RIO DE JANEIRO RJUNIAO UMB DOS CULTOS AFRO BRAS    30031910 000002
10231987175000168817800093673    000039616                    000396160000000000000109                     I0239616     08021900000000280003410000017N180119104700000000000100802190000000000000000000000000000000000000000100008133276799AROLDO VAZ DE COSTA                     AVENIDA SAO JOAO DE MERITIN 0, LOTE 3 QUJARDIM METRO25571161SAO JOAO DE MERRJUNIAO UMB DOS CULTOS AFRO BRAS    08021910 000003
10231987175000168817800093673    000038316                    000383160000000000000109                     I0238316     30031900000000040003410000017N261218104700000000000103003190000000000000000000000000000000000000000100091228239720MIRIAN DA SILVA PEREIRA                 RUA DUARTE DE AZEVEDO N 46,             TURIACU     21550130RIO DE JANEIRO RJUNIAO UMB DOS CULTOS AFRO BRAS    30031910 000004
10231987175000168817800093673    000038027                    000380270000000000000109                     I0238027     30031900000000040003410000017N261218104700000000000103003190000000000000000000000000000000000000000100007793822773ANA MARIA ALVES DO NASCIMENTO           RUA ERVALIA  N 0, LOTE 31 QUADRA 32     BOM RETIRO  25223710DUQUE DE CAXIASRJUNIAO UMB DOS CULTOS AFRO BRAS    30031910 000005
10231987175000168817800093673    000037882                    000378820000000000000109                     I0237882     30031900000000040003410000017N261218104700000000000103003190000000000000000000000000000000000000000100036820210787DENISE SILVA SIQUEIRA                   RUA ESCRITOR PAULO PRADO N 20,          OSWALDO CRUZ21341130RIO DE JANEIRO RJUNIAO UMB DOS CULTOS AFRO BRAS    30031910 000006
10231987175000168817800093673    000037755                    000377550000000000000109                     I0237755     30031900000000040003410000017N261218104700000000000103003190000000000000000000000000000000000000000100001799273709ANSELMO FERREIRA DEGENAR                RUA NOSSA SENHORA DE NAZAREN 31,        PAVUNA      21655550RIO DE JANEIRO RJUNIAO UMB DOS CULTOS AFRO BRAS    30031910 000007
10231987175000168817800093673    000037729                    000377290000000000000109                     I0237729     30031900000000040003410000017N261218104700000000000103003190000000000000000000000000000000000000000100089245598772ANGELA MARIA CARDOSO NATALUCCI          ESTRADA DA PEDRAN 2748, VENDAS DE VARANDSANTA CRUZ  23520241RIO DE JANEIRO RJUNIAO UMB DOS CULTOS AFRO BRAS    30031910 000008
10231987175000168817800093673    000037670                    000376700000000000000109                     I0237670     30031900000000040003410000017N261218104700000000000103003190000000000000000000000000000000000000000100076571122715MARLI MENDES DE OLIVEIRA                RUA CORUMBAIBAN 850, PEDREGOSO          CAMPO GRANDE23095290RIO DE JANEIRO RJUNIAO UMB DOS CULTOS AFRO BRAS    30031910 000009
10231987175000168817800093673    000037644                    000376440000000000000109                     I0237644     30031900000000040003410000017N261218104700000000000103003190000000000000000000000000000000000000000100001252884761MARIA DA CONCEICAO TRINDADE             RUA: CLAUDINO BARATA N 1170,            REALENGO    21770200RIO DE JANEIRO RJUNIAO UMB DOS CULTOS AFRO BRAS    30031910 000010
10231987175000168817800093673    000037409                    000374090000000000000109                     I0237409     28021900000000040003410000017N261218104700000000000102802190000000000000000000000000000000000000000100002085972713ELIANE DOMINGOS DE SOUZA                RUA CAROBEIRA N 165,                    CINCO MARIA 23032110GUARATIBA      RJUNIAO UMB DOS CULTOS AFRO BRAS    28021910 000011
10231987175000168817800093673    000037336                    000373360000000000000109                     I0237336     28021900000000040003410000017N261218104700000000000102802190000000000000000000000000000000000000000100006485913793IASMIM SANTANA DA SILVA DE OLI          RUA CLEITON LUIZ VIEIRAN 24,            BANGU       23095700RIO DE JANEIRO RJUNIAO UMB DOS CULTOS AFRO BRAS    28021910 000012
10231987175000168817800093673    000037272                    000372720000000000000109                     I0237272     28021900000000040003410000017N261218104700000000000102802190000000000000000000000000000000000000000100032637128704MARLENE DA CRUZ                         AVENIDA ABILIO AUGUSTO TAVORA N 5107,   VALVERDE    26290600NOVA IGUACU    RJUNIAO UMB DOS CULTOS AFRO BRAS    28021910 000013
10231987175000168817800093673    000037112                    000371120000000000000109                     I0237112     28021900000000040003410000017N261218104700000000000102802190000000000000000000000000000000000000000100010426625765ALESSANDRA LAURIANO LIMA DOMIN          RUA PROJETADAN 4,                       ANCORA      28899515RIO DAS OSTRAS RJUNIAO UMB DOS CULTOS AFRO BRAS    28021910 000014
10231987175000168817800093673    000036670                    000366700000000000000109                     I0236670     28021900000000040003410000017N261218104700000000000102802190000000000000000000000000000000000000000100007151714700VERONICA CONCEICAO DE SOUZA AN          RUA: CATANDUVA  N 32,                   COELHO NETO 21545420RIO DE JANEIRO RJUNIAO UMB DOS CULTOS AFRO BRAS    28021910 000015
10231987175000168817800093673    000036400                    000364000000000000000109                     I0236400     28021900000000040003410000017N261218104700000000000102802190000000000000000000000000000000000000000100091228239720MIRIAN DA SILVA PEREIRA                 RUA DUARTE DE AZEVEDO N 46,             TURIACU     21550130RIO DE JANEIRO RJUNIAO UMB DOS CULTOS AFRO BRAS    28021910 000016
10231987175000168817800093673    000036355                    000363550000000000000109                     I0236355     28021900000000040003410000017N261218104700000000000102802190000000000000000000000000000000000000000100060856467715JANAINA COELHO MELO                     RUA SANTO APIANO N 288, FUNDOS          IRAJA       21361420RIO DE JANEIRO RJUNIAO UMB DOS CULTOS AFRO BRAS    28021910 000017
10231987175000168817800093673    000036112                    000361120000000000000109                     I0236112     28021900000000040003410000017N261218104700000000000102802190000000000000000000000000000000000000000100007793822773ANA MARIA ALVES DO NASCIMENTO           RUA ERVALIA  N 0, LOTE 31 QUADRA 32     BOM RETIRO  25223710DUQUE DE CAXIASRJUNIAO UMB DOS CULTOS AFRO BRAS    28021910 000018
10231987175000168817800093673    000036105                    000361050000000000000109                     I0236105     28021900000000040003410000017N261218104700000000000102802190000000000000000000000000000000000000000100088677079734MARIA APARECIDA MORAIS DOS SAN          RUA OLAVO GAMAN 0, TRAVESSA F - PROJETADLARGO DO COR23040400RIO DE JANEIRO RJUNIAO UMB DOS CULTOS AFRO BRAS    28021910 000019
10231987175000168817800093673    000035967                    000359670000000000000109                     I0235967     28021900000000040003410000017N261218104700000000000102802190000000000000000000000000000000000000000100036820210787DENISE SILVA SIQUEIRA                   RUA ESCRITOR PAULO PRADO N 20,          OSWALDO CRUZ21341130RIO DE JANEIRO RJUNIAO UMB DOS CULTOS AFRO BRAS    28021910 000020
10231987175000168817800093673    000035816                    000358160000000000000109                     I0235816     28021900000000040003410000017N261218104700000000000102802190000000000000000000000000000000000000000100089245598772ANGELA MARIA CARDOSO NATALUCCI          ESTRADA DA PEDRAN 2748, VENDAS DE VARANDSANTA CRUZ  23520241RIO DE JANEIRO RJUNIAO UMB DOS CULTOS AFRO BRAS    28021910 000021
10231987175000168817800093673    000035757                    000357570000000000000109                     I0235757     28021900000000040003410000017N261218104700000000000102802190000000000000000000000000000000000000000100076571122715MARLI MENDES DE OLIVEIRA                RUA CORUMBAIBAN 850, PEDREGOSO          CAMPO GRANDE23095290RIO DE JANEIRO RJUNIAO UMB DOS CULTOS AFRO BRAS    28021910 000022
10231987175000168817800093673    000035731                    000357310000000000000109                     I0235731     28021900000000040003410000017N261218104700000000000102802190000000000000000000000000000000000000000100001252884761MARIA DA CONCEICAO TRINDADE             RUA: CLAUDINO BARATA N 1170,            REALENGO    21770200RIO DE JANEIRO RJUNIAO UMB DOS CULTOS AFRO BRAS    28021910 000023
10231987175000168817800093673    000035496                    000354960000000000000109                     I0235496     31011900000000040003410000017N261218104700000000000103101190000000000000000000000000000000000000000100002085972713ELIANE DOMINGOS DE SOUZA                RUA CAROBEIRA N 165,                    CINCO MARIA 23032110GUARATIBA      RJUNIAO UMB DOS CULTOS AFRO BRAS    31011910 000024
10231987175000168817800093673    000035423                    000354230000000000000109                     I0235423     31011900000000040003410000017N261218104700000000000103101190000000000000000000000000000000000000000100006485913793IASMIM SANTANA DA SILVA DE OLI          RUA CLEITON LUIZ VIEIRAN 24,            BANGU       23095700RIO DE JANEIRO RJUNIAO UMB DOS CULTOS AFRO BRAS    31011910 000025
10231987175000168817800093673    000035359                    000353590000000000000109                     I0235359     31011900000000040003410000017N261218104700000000000103101190000000000000000000000000000000000000000100032637128704MARLENE DA CRUZ                         AVENIDA ABILIO AUGUSTO TAVORA N 5107,   VALVERDE    26290600NOVA IGUACU    RJUNIAO UMB DOS CULTOS AFRO BRAS    31011910 000026
10231987175000168817800093673    000035201                    000352010000000000000109                     I0235201     31011900000000040003410000017N261218104700000000000103101190000000000000000000000000000000000000000100010426625765ALESSANDRA LAURIANO LIMA DOMIN          RUA PROJETADAN 4,                       ANCORA      28899515RIO DAS OSTRAS RJUNIAO UMB DOS CULTOS AFRO BRAS    31011910 000027
10231987175000168817800093673    000034882                    000348820000000000000109                     I0234882     31011900000000040003410000017N261218104700000000000103101190000000000000000000000000000000000000000100008133276799AROLDO VAZ DE COSTA                     AVENIDA SAO JOAO DE MERITIN 0, LOTE 3 QUJARDIM METRO25571161SAO JOAO DE MERRJUNIAO UMB DOS CULTOS AFRO BRAS    31011910 000028
10231987175000168817800093673    000034491                    000344910000000000000109                     I0234491     31011900000000040003410000017N261218104700000000000103101190000000000000000000000000000000000000000100091228239720MIRIAN DA SILVA PEREIRA                 RUA DUARTE DE AZEVEDO N 46,             TURIACU     21550130RIO DE JANEIRO RJUNIAO UMB DOS CULTOS AFRO BRAS    31011910 000029
10231987175000168817800093673    000034204                    000342040000000000000109                     I0234204     31011900000000040003410000017N261218104700000000000103101190000000000000000000000000000000000000000100007793822773ANA MARIA ALVES DO NASCIMENTO           RUA ERVALIA  N 0, LOTE 31 QUADRA 32     BOM RETIRO  25223710DUQUE DE CAXIASRJUNIAO UMB DOS CULTOS AFRO BRAS    31011910 000030
10231987175000168817800093673    000034063                    000340630000000000000109                     I0234063     31011900000000040003410000017N261218104700000000000103101190000000000000000000000000000000000000000100036820210787DENISE SILVA SIQUEIRA                   RUA ESCRITOR PAULO PRADO N 20,          OSWALDO CRUZ21341130RIO DE JANEIRO RJUNIAO UMB DOS CULTOS AFRO BRAS    31011910 000031
10231987175000168817800093673    000033913                    000339130000000000000109                     I0233913     31011900000000040003410000017N261218104700000000000103101190000000000000000000000000000000000000000100089245598772ANGELA MARIA CARDOSO NATALUCCI          ESTRADA DA PEDRAN 2748, VENDAS DE VARANDSANTA CRUZ  23520241RIO DE JANEIRO RJUNIAO UMB DOS CULTOS AFRO BRAS    31011910 000032
10231987175000168817800093673    000033855                    000338550000000000000109                     I0233855     31011900000000040003410000017N261218104700000000000103101190000000000000000000000000000000000000000100076571122715MARLI MENDES DE OLIVEIRA                RUA CORUMBAIBAN 850, PEDREGOSO          CAMPO GRANDE23095290RIO DE JANEIRO RJUNIAO UMB DOS CULTOS AFRO BRAS    31011910 000033
10231987175000168817800093673    000033579                    000335790000000000000109                     I0233579     24121800000000350003410000017N141218104700000000000102412180000000000000000000000000000000000000000100036820210787DENISE SILVA SIQUEIRA                   RUA ESCRITOR PAULO PRADO N 20,          OSWALDO CRUZ21341130RIO DE JANEIRO RJUNIAO UMB DOS CULTOS AFRO BRAS    24121810 000034
10231987175000168817800093673    000033300                    000333000000000000000109                     I0233300     20121800000000400003410000017N291018104700000000000102012180000000000000000000000000000000000000000100002085972713ELIANE DOMINGOS DE SOUZA                RUA CAROBEIRA N 165,                    CINCO MARIA 23032110GUARATIBA      RJUNIAO UMB DOS CULTOS AFRO BRAS    20121810 000035
10231987175000168817800093673    000033208                    000332080000000000000109                     I0233208     20121800000000350003410000017N291018104700000000000102012180000000000000000000000000000000000000000100006485913793IASMIM SANTANA DA SILVA DE OLI          RUA CLEITON LUIZ VIEIRAN 24,            BANGU       23095700RIO DE JANEIRO RJUNIAO UMB DOS CULTOS AFRO BRAS    20121810 000036
10231987175000168817800093673    000033132                    000331320000000000000109                     I0233132     20121800000000350003410000017N291018104700000000000102012180000000000000000000000000000000000000000100032637128704MARLENE DA CRUZ                         AVENIDA ABILIO AUGUSTO TAVORA N 5107,   VALVERDE    26290600NOVA IGUACU    RJUNIAO UMB DOS CULTOS AFRO BRAS    20121810 000037
10231987175000168817800093673    000032867                    000328670000000000000109                     I0232867     20121800000000350003410000017N291018104700000000000102012180000000000000000000000000000000000000000100010426625765ALESSANDRA LAURIANO LIMA DOMIN          RUA PROJETADAN 4,                       ANCORA      28899515RIO DAS OSTRAS RJUNIAO UMB DOS CULTOS AFRO BRAS    20121810 000038
10231987175000168817800093673    000032411                    000324110000000000000109                     I0232411     20121800000000350003410000017N291018104700000000000102012180000000000000000000000000000000000000000100008133276799AROLDO VAZ DE COSTA                     AVENIDA SAO JOAO DE MERITIN 0, LOTE 3 QUJARDIM METRO25571161SAO JOAO DE MERRJUNIAO UMB DOS CULTOS AFRO BRAS    20121810 000039
10231987175000168817800093673    000032194                    000321940000000000000109                     I0232194     20121800000000350003410000017N291018104700000000000102012180000000000000000000000000000000000000000100008633241773MARCIA CRISTINA VIDEIRO MATEUS          RUA: JOAO BORGES FILHO N 340,           CAMPO GRANDE23088360RIO DE JANEIRO RJUNIAO UMB DOS CULTOS AFRO BRAS    20121810 000040
10231987175000168817800093673    000031813                    000318130000000000000109                     I0231813     20121800000000350003410000017N291018104700000000000102012180000000000000000000000000000000000000000100091228239720MIRIAN DA SILVA PEREIRA                 RUA DUARTE DE AZEVEDO N 46,             TURIACU     21550130RIO DE JANEIRO RJUNIAO UMB DOS CULTOS AFRO BRAS    20121810 000041
10231987175000168817800093673    000031370                    000313700000000000000109                     I0231370     20121800000000350003410000017N291018104700000000000102012180000000000000000000000000000000000000000100007793822773ANA MARIA ALVES DO NASCIMENTO           RUA ERVALIA  N 0, LOTE 31 QUADRA 32     BOM RETIRO  25223710DUQUE DE CAXIASRJUNIAO UMB DOS CULTOS AFRO BRAS    20121810 000042
10231987175000168817800093673    000030944                    000309440000000000000109                     I0230944     20121800000000350003410000017N291018104700000000000102012180000000000000000000000000000000000000000100007296951745PAULO FRANCISCO DA SILVA DANIE          RUA OTAWAN 407,                         PARADA DE LU21241220RIO DE JANEIRO RJUNIAO UMB DOS CULTOS AFRO BRAS    20121810 000043
10231987175000168817800093673    000030878                    000308780000000000000109                     I0230878     20121800000000350003410000017N291018104700000000000102012180000000000000000000000000000000000000000100089245598772ANGELA MARIA CARDOSO NATALUCCI          ESTRADA DA PEDRAN 2748, VENDAS DE VARANDSANTA CRUZ  23520241RIO DE JANEIRO RJUNIAO UMB DOS CULTOS AFRO BRAS    20121810 000044
10231987175000168817800093673    000030781                    000307810000000000000109                     I0230781     20121800000000350003410000017N291018104700000000000102012180000000000000000000000000000000000000000100076571122715MARLI MENDES DE OLIVEIRA                RUA CORUMBAIBAN 850, PEDREGOSO          CAMPO GRANDE23095290RIO DE JANEIRO RJUNIAO UMB DOS CULTOS AFRO BRAS    20121810 000045
10231987175000168817800093673    000030261                    000302610000000000000109                     I0230261     20121800000000035003410000017N291018104700000000000102012180000000000000000000000000000000000000000100032637128704MARLENE DA CRUZ                         AVENIDA ABILIO AUGUSTO TAVORA N 5107,   VALVERDE    26290600NOVA IGUACU    RJUNIAO UMB DOS CULTOS AFRO BRAS    20121810 000046
10231987175000168817800093673    000029852                    000298520000000000000109                     I0229852     20121800000000035003410000017N291018104700000000000102012180000000000000000000000000000000000000000100008133276799AROLDO VAZ DE COSTA                     AVENIDA SAO JOAO DE MERITIN 0, LOTE 3 QUJARDIM METRO25571161SAO JOAO DE MERRJUNIAO UMB DOS CULTOS AFRO BRAS    20121810 000047
10231987175000168817800093673    000029582                    000295820000000000000109                     I0229582     20121800000000035003410000017N291018104700000000000102012180000000000000000000000000000000000000000100091228239720MIRIAN DA SILVA PEREIRA                 RUA DUARTE DE AZEVEDO N 46,             TURIACU     21550130RIO DE JANEIRO RJUNIAO UMB DOS CULTOS AFRO BRAS    20121810 000048
9                                                                                                                                                                                                                                                                                                                                                                                                         000049
