01REMESSA01COBRANCA       916200163100        União Umb dos Cultos Afro Bra341BANCO ITAU SA  240719                                                                                                                                                                                                                                                                                                      000001
10231987175000168916200163100    000049969                    000499690000000000000109                     I0149969     23081900000000200003410000017N240719105700000000000662308190000000000000000000000000000000000000000100001796220728MARIA ROSA ALVES DA SILVA               RUA DOUTOR JOAQUIM OTTONIN 389,         PARQUE SENHO25025325DUQUE DE CAXIASRJUNIAO UMB DOS CULTOS AFRO BRAS    23081915 000002
21230820190000000000400                                                                                                                                                                                                                                                                                                                                                                                   000003
10231987175000168916200163100    000049968                    000499680000000000000109                     I0149968     30071900000000400003410000017N240719105700000000001323007190000000000000000000000000000000000000000100082059403715SANDRA HELENA VILLAMOR MONTASS          RUA ARGOS N 693,                        GUADALUPE   21660050RIO DE JANEIRO RJUNIAO UMB DOS CULTOS AFRO BRAS    30071915 000004
21300720190000000000800                                                                                                                                                                                                                                                                                                                                                                                   000005
10231987175000168916200163100    000049967                    000499670000000000000109                     I0149967     30091900000000040003410000017N240719105700000000000133009190000000000000000000000000000000000000000100014297923700CELSO RODRIGUES DE OLIVEIRA             RUA LAURINDA COSTAN 478,                VILA TIRADEN25525390SAO JOAO DE MERRJUNIAO UMB DOS CULTOS AFRO BRAS    30091915 000006
21300920190000000000080                                                                                                                                                                                                                                                                                                                                                                                   000007
10231987175000168916200163100    000049966                    000499660000000000000109                     I0149966     30081900000000040003410000017N240719105700000000000133008190000000000000000000000000000000000000000100014297923700CELSO RODRIGUES DE OLIVEIRA             RUA LAURINDA COSTAN 478,                VILA TIRADEN25525390SAO JOAO DE MERRJUNIAO UMB DOS CULTOS AFRO BRAS    30081915 000008
21300820190000000000080                                                                                                                                                                                                                                                                                                                                                                                   000009
10231987175000168916200163100    000049965                    000499650000000000000109                     I0149965     02081900000000400003410000017N240719105700000000001320208190000000000000000000000000000000000000000100083441271734NAELSON MAGALHAES DE AVELLAR            RUA ONZEN 0,  LOTE 1 CASA 1 - GUANDU I  SANTA CRUZ  23560868RIO DE JANEIRO RJUNIAO UMB DOS CULTOS AFRO BRAS    02081915 000010
21020820190000000000800                                                                                                                                                                                                                                                                                                                                                                                   000011
10231987175000168916200163100    000049964                    000499640000000000000109                     I0149964     10081900000000160003410000017N240719105700000000000531008190000000000000000000000000000000000000000100081531095704ROSANA ALMEIDA SILVA                    RUA JOAQUIM MARIANO DE MOURA N 246,     PONTO CHIC  26032840NOVA IGUACU    RJUNIAO UMB DOS CULTOS AFRO BRAS    10081915 000012
21100820190000000000320                                                                                                                                                                                                                                                                                                                                                                                   000013
10231987175000168916200163100    000049963                    000499630000000000000109                     I0149963     10081900000000120003410000017N240719105700000000000401008190000000000000000000000000000000000000000100009177194764MARCOS PAULO ROSA DA SILVA              RUA ADALGISA MONTEIRON 133,             ITAIPU      24342110NITEROI        RJUNIAO UMB DOS CULTOS AFRO BRAS    10081915 000014
21100820190000000000240                                                                                                                                                                                                                                                                                                                                                                                   000015
10231987175000168916200163100    000049962                    000499620000000000000109                     I0149962     10081900000000040003410000017N240719105700000000000131008190000000000000000000000000000000000000000100067237258753RITA DE CASSIA DIACOVO PELLITO          RUA ANDRE AZEVEDO N 87, CASA 101 BLOCO 2OLARIA      21021480RIO DE JANEIRO RJUNIAO UMB DOS CULTOS AFRO BRAS    10081915 000016
21100820190000000000080                                                                                                                                                                                                                                                                                                                                                                                   000017
10231987175000168916200163100    000043254                    000432540000000000000109                     I0243254     30061900000000040003410000017N130319105700000000000133006190000000000000000000000000000000000000000100001796220728MARIA ROSA ALVES DA SILVA               RUA DOUTOR JOAQUIM OTTONIN 389,         PARQUE SENHO25025325DUQUE DE CAXIASRJUNIAO UMB DOS CULTOS AFRO BRAS    30061915 000018
21300620190000000000080                                                                                                                                                                                                                                                                                                                                                                                   000019
10231987175000168916200163100    000041614                    000416140000000000000109                     I0241614     30051900000000040003410000017N130319105700000000000133005190000000000000000000000000000000000000000100001796220728MARIA ROSA ALVES DA SILVA               RUA DOUTOR JOAQUIM OTTONIN 389,         PARQUE SENHO25025325DUQUE DE CAXIASRJUNIAO UMB DOS CULTOS AFRO BRAS    30051915 000020
21300520190000000000080                                                                                                                                                                                                                                                                                                                                                                                   000021
9                                                                                                                                                                                                                                                                                                                                                                                                         000022
