01REMESSA01COBRANCA       916200163100        União Umb dos Cultos Afro Bra341BANCO ITAU SA  080518                                                                                                                                                                                                                                                                                                      000001
10231987175000168916200163100    000015677                    000156770000000000000109                     I0115677     30061800000000035003410000017N070518104700000000000103006180000000000000000000000000000000000000000100012767487798WALACE ALFREDO PEREIRA                  RUA DICURANA, 15                        COSMOS - RJ 23059340RIO DE JANEIRO RJUNIAO UMB DOS CULTOS AFRO BRAS    30061810 000002
10231987175000168916200163100    000015676                    000156760000000000000109                     I0115676     30061800000000035003410000017N070518104700000000000103006180000000000000000000000000000000000000000100079227422749ROGERIO DOS SANTOS                      RUA LOURENCO CAMPOS, 156 CASA 1         SAO MATEUS -25525711SAO JOAO DE MERRJUNIAO UMB DOS CULTOS AFRO BRAS    30061810 000003
10231987175000168916200163100    000015675                    000156750000000000000109                     I0115675     30061800000000035003410000017N070518104700000000000103006180000000000000000000000000000000000000000100000137585780ARLINDA CAMILO DOS SANTOS               RUA MANOEL PAULO DE FARIA, 435 ANTIGA RUFRAGOSO - MA25935298MAGE           RJUNIAO UMB DOS CULTOS AFRO BRAS    30061810 000004
10231987175000168916200163100    000015674                    000156740000000000000109                     I0115674     30061800000000035003410000017N070518104700000000000103006180000000000000000000000000000000000000000100076092712768MARIA DA GLORIA DA SILVA                RUA P, LOTE 40 QUADRA 20                FRAGOSO - MA25935000MAGE           RJUNIAO UMB DOS CULTOS AFRO BRAS    30061810 000005
10231987175000168916200163100    000015673                    000156730000000000000109                     I0115673     30061800000000035003410000017N070518104700000000000103006180000000000000000000000000000000000000000100001582280738NATALICIA LOPES PEREIRA                 ALAMEDA JORGINHO, 36 LOTE 11 QUADRA 24  FRAGOSO - MA29000000MAGE           RJUNIAO UMB DOS CULTOS AFRO BRAS    30061810 000006
10231987175000168916200163100    000015672                    000156720000000000000109                     I0115672     30061800000000035003410000017N070518104700000000000103006180000000000000000000000000000000000000000100008888032738FATIMA SOARES CARNEIRO                  RUA ANTONIO JOAO MENDONCA, 1466         CENTRO - NIL26515592NILOPOLIS      RJUNIAO UMB DOS CULTOS AFRO BRAS    30061810 000007
10231987175000168916200163100    000015671                    000156710000000000000109                     I0115671     30061800000000035003410000017N070518104700000000000103006180000000000000000000000000000000000000000100002578661758ANA MARIA BATISTA DA SILVA              RUA SIMOES DE SOUZA SN LOTE 13 QUADRA 20JARDIM PRIMA25223520DUQUE DE CAXIASRJUNIAO UMB DOS CULTOS AFRO BRAS    30061810 000008
10231987175000168916200163100    000015670                    000156700000000000000109                     I0115670     30061800000000035003410000017N070518104700000000000103006180000000000000000000000000000000000000000100063579588753EDSON DOS SANTOS ROSA                   RUA VENANCIO ADRES, 1669 - CASA 1       GRAMACHO - D25036170DUQUE DE CAXIASRJUNIAO UMB DOS CULTOS AFRO BRAS    30061810 000009
10231987175000168916200163100    000015669                    000156690000000000000109                     I0115669     30061800000000035003410000017N070518104700000000000103006180000000000000000000000000000000000000000100080962190730NILCE TAVARES DA SILVA                  ESTRADA DO ZEPELIN, 16 -  RUA 9         SANTA CRUZ -23555220RIO DE JANEIRO RJUNIAO UMB DOS CULTOS AFRO BRAS    30061810 000010
10231987175000168916200163100    000015668                    000156680000000000000109                     I0115668     30061800000000035003410000017N070518104700000000000103006180000000000000000000000000000000000000000100004163698981LEANDRO VIEIRA DOS SANTOS               RUA DIAS DA CRUZ, 50                    JARDIM MERIT25555280RIO DE JANEIRO RJUNIAO UMB DOS CULTOS AFRO BRAS    30061810 000011
10231987175000168916200163100    000015667                    000156670000000000000109                     I0115667     30061800000000035003410000017N070518104700000000000103006180000000000000000000000000000000000000000100010503933767THIAGO MARQUES DE CARVALHO              TRAVESSA DA SERVIDAO, 17                CAMPO GRANDE23017405RIO DE JANEIRO RJUNIAO UMB DOS CULTOS AFRO BRAS    30061810 000012
10231987175000168916200163100    000015666                    000156660000000000000109                     I0115666     30061800000000035003410000017N070518104700000000000103006180000000000000000000000000000000000000000100072962771734MARCIA CARNAVAL                         RUA AJAPI, 580 CASA 2                   COSMOS - RIO23066420RIO DE JANEIRO RJUNIAO UMB DOS CULTOS AFRO BRAS    30061810 000013
10231987175000168916200163100    000015665                    000156650000000000000109                     I0115665     30061800000000035003410000017N070518104700000000000103006180000000000000000000000000000000000000000100011341119750ELAINE BARBOSA DOS SANTOS               ESTRADA DO BARRO VERMELHO N 784         ROCHA MIRAND21540500RIO DE JANEIRO RJUNIAO UMB DOS CULTOS AFRO BRAS    30061810 000014
10231987175000168916200163100    000015664                    000156640000000000000109                     I0115664     30061800000000035003410000017N070518104700000000000103006180000000000000000000000000000000000000000100010619254718MARIA TEREZA ANDRADE DOS SANTO          RUA: DOUTOR MANUEL LUIZ N 621           VALVERDE - N26291003NOVA IGUACU    RJUNIAO UMB DOS CULTOS AFRO BRAS    30061810 000015
10231987175000168916200163100    000015663                    000156630000000000000109                     I0115663     30061800000000035003410000017N070518104700000000000103006180000000000000000000000000000000000000000100084287228720JOSE CARLOS GUEDES DA SILVA             RUA JOSE DE OLIVEIRA, 70                NOVA SEPETIB23530086RIO DE JANEIRO RJUNIAO UMB DOS CULTOS AFRO BRAS    30061810 000016
10231987175000168916200163100    000015662                    000156620000000000000109                     I0115662     30061800000000035003410000017N070518104700000000000103006180000000000000000000000000000000000000000100068661533791CARLOS RENNAN CORREIA BORGES            RUA AMERICA DOURADA, LOTE 8 QUADRA 34   CAMPO GRANDE23088240RIO DE JANEIRO RJUNIAO UMB DOS CULTOS AFRO BRAS    30061810 000017
10231987175000168916200163100    000015661                    000156610000000000000109                     I0115661     30061800000000035003410000017N070518104700000000000103006180000000000000000000000000000000000000000100011066424730CARMEZIA GOMES MORAIS DOS SANT          RUA ALBERTO AUGUSTO, 713 - FIGUEIRA     MAGE - RJ   25927890RIO DE JANEIRO RJUNIAO UMB DOS CULTOS AFRO BRAS    30061810 000018
10231987175000168916200163100    000015660                    000156600000000000000109                     I0115660     30061800000000035003410000017N070518104700000000000103006180000000000000000000000000000000000000000100009435729754ANDREA DE SOUZA SOARES                  AVENIDA DOIS, QUADRA 248 LOTE 25 - IPIRAMAUA - MAGE 25900001MAGE           RJUNIAO UMB DOS CULTOS AFRO BRAS    30061810 000019
10231987175000168916200163100    000015659                    000156590000000000000109                     I0115659     30061800000000035003410000017N070518104700000000000103006180000000000000000000000000000000000000000100040883612704JOAO ROBERTO ROJA SIMOES                RUA QUITO, 384                          PENHA - RIO 21020330RIO DE JANEIRO RJUNIAO UMB DOS CULTOS AFRO BRAS    30061810 000020
10231987175000168916200163100    000015658                    000156580000000000000109                     I0115658     30061800000000035003410000017N070518104700000000000103006180000000000000000000000000000000000000000100009556812784AROLDO ADRIANO DE OLIVEIRA              RUA IBITU, 127 FUNDOS                   REALENGO - R21765510RIO DE JANEIRO RJUNIAO UMB DOS CULTOS AFRO BRAS    30061810 000021
10231987175000168916200163100    000015657                    000156570000000000000109                     I0115657     30061800000000035003410000017N070518104700000000000103006180000000000000000000000000000000000000000100081531095704ROSANA ALMEIDA SILVA                    RUA JOAQUIM MARIANO DE MOURA N 246      PONTO CHIC -26032840NOVA IGUACU    RJUNIAO UMB DOS CULTOS AFRO BRAS    30061810 000022
10231987175000168916200163100    000015656                    000156560000000000000109                     I0115656     30061800000000035003410000017N070518104700000000000103006180000000000000000000000000000000000000000100040262146720ARABELA SILVA CAMPOS DOS REIS           RUA DUARTE TEIXEIRA, 349 CASA 4         QUINTINO BOC21311330RIO DE JANEIRO RJUNIAO UMB DOS CULTOS AFRO BRAS    30061810 000023
10231987175000168916200163100    000015655                    000156550000000000000109                     I0115655     30061800000000035003410000017N070518104700000000000103006180000000000000000000000000000000000000000100009079674770FERNANDA DOS SANTOS SILVA               TRAVESSA IPACARAI, 70 CASA 5            COLUBANDE - 24451290SAO GONCALO    RJUNIAO UMB DOS CULTOS AFRO BRAS    30061810 000024
10231987175000168916200163100    000015654                    000156540000000000000109                     I0115654     30061800000000035003410000017N070518104700000000000103006180000000000000000000000000000000000000000100007822585738IZANIRA COSTA                           RUA DOUTOR LUIS SOBRAL, 301             TOMAZINHO - 25525520SAO JOAO DE MERRJUNIAO UMB DOS CULTOS AFRO BRAS    30061810 000025
10231987175000168916200163100    000015653                    000156530000000000000109                     I0115653     30061800000000035003410000017N070518104700000000000103006180000000000000000000000000000000000000000100081051026868ANA LUCIA PEREIRA DE SOUZA              AVENIDA SAO FRANCISCO, LOTE 41 QUADRA E PARQUE COLON26183170BELFORD ROXO   RJUNIAO UMB DOS CULTOS AFRO BRAS    30061810 000026
10231987175000168916200163100    000015652                    000156520000000000000109                     I0115652     30061800000000035003410000017N070518104700000000000103006180000000000000000000000000000000000000000100010880272308FERNANDA DOS SANTOS PEREIRA             RUA LINS DE VASCONCELOS, 593            LINS DE VASC20710130RIO DE JANEIRO RJUNIAO UMB DOS CULTOS AFRO BRAS    30061810 000027
10231987175000168916200163100    000015651                    000156510000000000000109                     I0115651     30061800000000035003410000017N070518104700000000000103006180000000000000000000000000000000000000000100090100328768VANDA DA SILVA MARQUES                  RUA TAIUVA, 117 FUNDOS                  PADRE MIGUEL21775450RIO DE JANEIRO RJUNIAO UMB DOS CULTOS AFRO BRAS    30061810 000028
10231987175000168916200163100    000015650                    000156500000000000000109                     I0115650     30061800000000035003410000017N070518104700000000000103006180000000000000000000000000000000000000000100007186292720RENATO GONCALVES DUARTE                 RUA CORONEL ALBERTO DE MELLO, 113       CENTENARIO -25030150DUQUE DE CAXIASRJUNIAO UMB DOS CULTOS AFRO BRAS    30061810 000029
10231987175000168916200163100    000015649                    000156490000000000000109                     I0115649     30061800000000035003410000017N070518104700000000000103006180000000000000000000000000000000000000000100050002317753IVO DE AZEVEDO COELHO                   RUA REVERINO ABIDIAS NOBRE, 277 CASA 1  COIMBRA - BA21105170RIO DE JANEIRO RJUNIAO UMB DOS CULTOS AFRO BRAS    30061810 000030
10231987175000168916200163100    000015648                    000156480000000000000109                     I0115648     30061800000000035003410000017N070518104700000000000103006180000000000000000000000000000000000000000100000261600729ELIANE ZELIA DE OLIVEIRA                RUA VENANCIO AIRES, 1781                GRAMACHO - D25035340DUQUE DE CAXIASRJUNIAO UMB DOS CULTOS AFRO BRAS    30061810 000031
10231987175000168916200163100    000015647                    000156470000000000000109                     I0115647     30061800000000035003410000017N070518104700000000000103006180000000000000000000000000000000000000000100000856003778ANA ELIZABETE ANTUNES SANTOS            RUA: GETULIO VARGAS                     SEPETIBA    23540130RIO DE JANEIRO RJUNIAO UMB DOS CULTOS AFRO BRAS    30061810 000032
10231987175000168916200163100    000015646                    000156460000000000000109                     I0115646     30061800000000035003410000017N070518104700000000000103006180000000000000000000000000000000000000000100002202729720ANA CLAUDIA NEVES BARRETO               RUA ACARA, 402                          VAZ LOBO    21361310RIO DE JANEIRO RJUNIAO UMB DOS CULTOS AFRO BRAS    30061810 000033
10231987175000168916200163100    000015645                    000156450000000000000109                     I0115645     30061800000000035003410000017N070518104700000000000103006180000000000000000000000000000000000000000100008681117750DAVIS CANDIDO PEREIRA                   RUA BALTAZAR,  QUADRA 2 LOTE 21         CAMPO ALEGRE26292276NOVA IGUACU    RJUNIAO UMB DOS CULTOS AFRO BRAS    30061810 000034
10231987175000168916200163100    000015644                    000156440000000000000109                     I0115644     30061800000000035003410000017N070518104700000000000103006180000000000000000000000000000000000000000100078790344715ROSANE ESTEVES DOS SANTOS               RUA VINTE E DOIS DE MARCO N 14          PRAINHA - DU25010730DUQUE DE CAXIASRJUNIAO UMB DOS CULTOS AFRO BRAS    30061810 000035
10231987175000168916200163100    000015643                    000156430000000000000109                     I0115643     30061800000000035003410000017N070518104700000000000103006180000000000000000000000000000000000000000100089823753768MARIA JOSE DA ROCHA NOBREGA             MESMO                                   MESMO       26150071BELFORD ROXO   RJUNIAO UMB DOS CULTOS AFRO BRAS    30061810 000036
10231987175000168916200163100    000015642                    000156420000000000000109                     I0115642     30061800000000300003410000017N070518104700000000000103006180000000000000000000000000000000000000000100001366350758EDWILSON GOMES DA ROCHA                 ESTRADA VELHA DO PIAI, 127              SEPETIBA - R23530800RIO DE JANEIRO RJUNIAO UMB DOS CULTOS AFRO BRAS    30061810 000037
10231987175000168916200163100    000015641                    000156410000000000000109                     I0115641     30061800000000035003410000017N070518104700000000000103006180000000000000000000000000000000000000000100007953958767PATRICIA DE OLIVEIRA ROIF               RUA MATURACA, LOTE 2 QUADRA 1           PENHA CIRCUL21210360RIO DE JANEIRO RJUNIAO UMB DOS CULTOS AFRO BRAS    30061810 000038
10231987175000168916200163100    000015640                    000156400000000000000109                     I0115640     30061800000000035003410000017N070518104700000000000103006180000000000000000000000000000000000000000100010910780765TIAGO DE ANDRADE ALMEIDA                RUA PAULO DE FRONTIM , 29               GOVERNADOR P26910000MIGUEL PEREIRA RJUNIAO UMB DOS CULTOS AFRO BRAS    30061810 000039
10231987175000168916200163100    000015639                    000156390000000000000109                     I0115639     30061800000000035003410000017N070518104700000000000103006180000000000000000000000000000000000000000100088481638749COSME JOSE ANDRADE DE OLIVEIRA          RUA OLIVEIRA REIS, 94                   SANTA BARBAR27113240BARRA DO PIRAI RJUNIAO UMB DOS CULTOS AFRO BRAS    30061810 000040
10231987175000168916200163100    000015638                    000156380000000000000109                     I0115638     30061800000000035003410000017N070518104700000000000103006180000000000000000000000000000000000000000100024721975864LIDIANE FERNANDA BON SCHIAVI S          RUA LUIZ CAMERANO                       BELVEDERE DA27113260BARRA DO PIRAI RJUNIAO UMB DOS CULTOS AFRO BRAS    30061810 000041
10231987175000168916200163100    000015637                    000156370000000000000109                     I0115637     30061800000000035003410000017N070518104700000000000103006180000000000000000000000000000000000000000100084290951791ZUELI DA SILVA                          RUA JOSE MARIO FERREIRA, 64             COIMBRA - BA27115180BARRA DO PIRAI RJUNIAO UMB DOS CULTOS AFRO BRAS    30061810 000042
10231987175000168916200163100    000015636                    000156360000000000000109                     I0115636     30061800000000035003410000017N070518104700000000000103006180000000000000000000000000000000000000000100001794872728JORGE TEIXEIRA DE LIMA                  ESTRADA DO GUERENGUE, 2118              CURICICA  - 22713001RIO DE JANEIRO RJUNIAO UMB DOS CULTOS AFRO BRAS    30061810 000043
10231987175000168916200163100    000015635                    000156350000000000000109                     I0115635     30061800000000035003410000017N070518104700000000000103006180000000000000000000000000000000000000000100089770250791JUREMA DA MACENA RAYMUNDO               RUA DAS DALIAS, 78                      VILA VALQUEI21330740RIO DE JANEIRO RJUNIAO UMB DOS CULTOS AFRO BRAS    30061810 000044
10231987175000168916200163100    000015634                    000156340000000000000109                     I0115634     30061800000000035003410000017N070518104700000000000103006180000000000000000000000000000000000000000100014326136774CAIO CESAR LIMA DA CRUZ                 RUA QUINTINO BOCAIUVA, 349              NOVA CIDADE 26535130NILOPOLIS      RJUNIAO UMB DOS CULTOS AFRO BRAS    30061810 000045
10231987175000168916200163100    000015633                    000156330000000000000109                     I0115633     30061800000000035003410000017N070518104700000000000103006180000000000000000000000000000000000000000100005878475731CLEITOM RODRIGUES DE OLIVEIRA           RUA ARARI, 621 BLOCO 38 APT 304         BANGU - RJ  21875260RIO DE JANEIRO RJUNIAO UMB DOS CULTOS AFRO BRAS    30061810 000046
10231987175000168916200163100    000015632                    000156320000000000000109                     I0115632     30061800000000035003410000017N070518104700000000000103006180000000000000000000000000000000000000000100000556390709ANNA MENDONCA BORGES                    RUA I, LOTEAMENTO SAO SEBASTIAO, 1089   FRAGOSO - MA25935486MAGE           RJUNIAO UMB DOS CULTOS AFRO BRAS    30061810 000047
10231987175000168916200163100    000015631                    000156310000000000000109                     I0115631     30061800000000035003410000017N070518104700000000000103006180000000000000000000000000000000000000000100044331762734ELMA HONORIA DAS NEVES                  RUA CORREIA DIAS, 1052 CASA 6           VIGARIO GERA21241310RIO DE JANEIRO RJUNIAO UMB DOS CULTOS AFRO BRAS    30061810 000048
10231987175000168916200163100    000015630                    000156300000000000000109                     I0115630     30061800000000035003410000017N070518104700000000000103006180000000000000000000000000000000000000000100062820125700LUIS AFONSO DOS SANTOS                  RUA RETIRO FELIZ, 2                     PARQUE AIDA 26193020BELFORD ROXO   RJUNIAO UMB DOS CULTOS AFRO BRAS    30061810 000049
10231987175000168916200163100    000015629                    000156290000000000000109                     I0115629     30061800000000035003410000017N070518104700000000000103006180000000000000000000000000000000000000000100002200754760VANESSA MEDINA DA SILVA                 RUA JOAQUIM MOREIRA, 45                 SEPETIBA - R23545003RIO DE JANEIRO RJUNIAO UMB DOS CULTOS AFRO BRAS    30061810 000050
10231987175000168916200163100    000015628                    000156280000000000000109                     I0115628     30061800000000035003410000017N070518104700000000000103006180000000000000000000000000000000000000000100003350774717ROGERIO SILVA DE SOUZA                  RUA TACARATU, 118                       ROCHA MIRAND21555010RIO DE JANEIRO RJUNIAO UMB DOS CULTOS AFRO BRAS    30061810 000051
10231987175000168916200163100    000015627                    000156270000000000000109                     I0115627     30061800000000035003410000017N070518104700000000000103006180000000000000000000000000000000000000000100008612394740SEBASTIAO PORTES NETO                   RUA MARIETA, 451                        PARQUE SAO N25530093SAO JOAO DE MERRJUNIAO UMB DOS CULTOS AFRO BRAS    30061810 000052
10231987175000168916200163100    000015626                    000156260000000000000109                     I0115626     30061800000000035003410000017N070518104700000000000103006180000000000000000000000000000000000000000100007812146707GRASIELI RIBEIRO DE ALMEIDA             RUA PADRE ARMANDO NOGUEIRA, 30          AGUA SANTA -20745120RIO DE JANEIRO RJUNIAO UMB DOS CULTOS AFRO BRAS    30061810 000053
10231987175000168916200163100    000015625                    000156250000000000000109                     I0115625     30061800000000035003410000017N070518104700000000000103006180000000000000000000000000000000000000000100059744510749ANGELA REGINA ROSA DE SA                RUA SUEZ, 174 - KM 35                   BOM JESUS - 26298180NOVA IGUACU    RJUNIAO UMB DOS CULTOS AFRO BRAS    30061810 000054
10231987175000168916200163100    000015624                    000156240000000000000109                     I0115624     30061800000000035003410000017N070518104700000000000103006180000000000000000000000000000000000000000100003558966724ANDREA CORDEIRO DA CONCEICAO S          RUA  PARATI, 379 - KM 35                BOM JESUS - 26298183NOVA IGUACU    RJUNIAO UMB DOS CULTOS AFRO BRAS    30061810 000055
10231987175000168916200163100    000015623                    000156230000000000000109                     I0115623     30061800000000035003410000017N070518104700000000000103006180000000000000000000000000000000000000000100096051523715MARIA DE LOURDES PEREIRA                RUA MAX MANOEL MOLTER LOTE 42           QUARTEIRAO B25680211PETROPOLIS     RJUNIAO UMB DOS CULTOS AFRO BRAS    30061810 000056
10231987175000168916200163100    000015622                    000156220000000000000109                     I0115622     30061800000000035003410000017N070518104700000000000103006180000000000000000000000000000000000000000100008604956719MIRIAN DE MATTOS ALVES                  AVENIDA MOACIR SARAIVA DE CARVALHO, LOTEJD METROPOLI25571190SAO JOAO DE MERRJUNIAO UMB DOS CULTOS AFRO BRAS    30061810 000057
10231987175000168916200163100    000015621                    000156210000000000000109                     I0115621     30061800000000035003410000017N070518104700000000000103006180000000000000000000000000000000000000000100002415896730ROSIELMA SANTOS SOUZA                   RUA MONDEGO, 78                         RICARDO DE A21665130RIO DE JANEIRO RJUNIAO UMB DOS CULTOS AFRO BRAS    30061810 000058
10231987175000168916200163100    000015620                    000156200000000000000109                     I0115620     30061800000000035003410000017N070518104700000000000103006180000000000000000000000000000000000000000100059680903753TANIA REGINA DOS SANTOS MARQUE          RUA VISCONDE DE MACEIO, 50 - FRENTE     IRAJA - RIO 21235100RIO DE JANEIRO RJUNIAO UMB DOS CULTOS AFRO BRAS    30061810 000059
10231987175000168916200163100    000015619                    000156190000000000000109                     I0115619     30061800000000035003410000017N070518104700000000000103006180000000000000000000000000000000000000000100063430773791GERMANO ROSEMBERG                       RUA DOUTOR TABAJARA DE ARAUJO GAMA, 694 PIRATININGA 24350694NITEROI        RJUNIAO UMB DOS CULTOS AFRO BRAS    30061810 000060
10231987175000168916200163100    000015618                    000156180000000000000109                     I0115618     30061800000000035003410000017N070518104700000000000103006180000000000000000000000000000000000000000100015137144738RAFAEL NUNES ALVES SALSA                RUA PUIPE, 123                          BENTO RIBEIR21550420RIO DE JANEIRO RJUNIAO UMB DOS CULTOS AFRO BRAS    30061810 000061
10231987175000168916200163100    000015617                    000156170000000000000109                     I0115617     30061800000000035003410000017N070518104700000000000103006180000000000000000000000000000000000000000100003003808789ADRIANA LUCIANA DA SILVA                AVENIDA VICENTE DE CARVALHO, 1086, RUA AVICENTE DE C21210024RIO DE JANEIRO RJUNIAO UMB DOS CULTOS AFRO BRAS    30061810 000062
10231987175000168916200163100    000015616                    000156160000000000000109                     I0115616     30061800000000035003410000017N070518104700000000000103006180000000000000000000000000000000000000000100016685778792PAMELA TAMIRIS DA SILVA CORDEI          RUA DO OURO, 14                         INHOAIBA - R23064140RIO DE JANEIRO RJUNIAO UMB DOS CULTOS AFRO BRAS    30061810 000063
10231987175000168916200163100    000015615                    000156150000000000000109                     I0115615     30061800000000035003410000017N070518104700000000000103006180000000000000000000000000000000000000000100008997230719RAIMUNDA DE SOUZA MEDEIROS              RUA ARATICUM, 835 APTO 401              ANIL - JACAR22753500RIO DE JANEIRO RJUNIAO UMB DOS CULTOS AFRO BRAS    30061810 000064
10231987175000168916200163100    000015614                    000156140000000000000109                     I0115614     30061800000000035003410000017N070518104700000000000103006180000000000000000000000000000000000000000100001156424712VANUSIA DOS SANTOS MOREIRA              AVENIDA JOAO XXIII, 1900 RUA 25 QUADRA 2SANTA CRUZ -23560352RIO DE JANEIRO RJUNIAO UMB DOS CULTOS AFRO BRAS    30061810 000065
10231987175000168916200163100    000015613                    000156130000000000000109                     I0115613     30061800000000035003410000017N070518104700000000000103006180000000000000000000000000000000000000000100095674454787GILVANIA RODRIGUES DE SANTANA           RUA TRAVASSOS, LOTE 4 QUADRA B          PARQUE SAO B26183730BELFORD ROXO   RJUNIAO UMB DOS CULTOS AFRO BRAS    30061810 000066
10231987175000168916200163100    000015612                    000156120000000000000109                     I0115612     30061800000000035003410000017N070518104700000000000103006180000000000000000000000000000000000000000100079096611772MARIO LUIZ BARRETO DE BARROS            RUA GRAVATA, 215                        MARECHAL HER21610510RIO DE JANEIRO RJUNIAO UMB DOS CULTOS AFRO BRAS    30061810 000067
10231987175000168916200163100    000015611                    000156110000000000000109                     I0115611     30061800000000035003410000017N070518104700000000000103006180000000000000000000000000000000000000000100008629571764SILVANA DA COSTA SANTOS                 RUA H, CASA 11 QUADRA 8                 BALNEARIO - 28940000SAO PEDRO DA ALRJUNIAO UMB DOS CULTOS AFRO BRAS    30061810 000068
10231987175000168916200163100    000015610                    000156100000000000000109                     I0115610     30061800000000035003410000017N070518104700000000000103006180000000000000000000000000000000000000000100013848361795VICTOR ALEXANDRE MAGHELLY G. D          RUA AQUIBADA, LOTE 25 QUADRA 19         CAMPO ALEGRE26292171NOVA IGUACU    RJUNIAO UMB DOS CULTOS AFRO BRAS    30061810 000069
10231987175000168916200163100    000015609                    000156090000000000000109                     I0115609     30061800000000035003410000017N070518104700000000000103006180000000000000000000000000000000000000000100004291405766JACQUELINE ELIZABETH BALTHAZAR          RUA PROFESSOR LACE, 134 APTO 404        RAMOS - RIO 21060120RIO DE JANEIRO RJUNIAO UMB DOS CULTOS AFRO BRAS    30061810 000070
10231987175000168916200163100    000015608                    000156080000000000000109                     I0115608     30061800000000035003410000017N070518104700000000000103006180000000000000000000000000000000000000000100058684522400JOSE RICARDO LIMA DE ALMEIDA            RUA MALHERBE, LOTE 28 QUADRA 139        PQ PAULISTA 25261440DUQUE DE CAXIASRJUNIAO UMB DOS CULTOS AFRO BRAS    30061810 000071
10231987175000168916200163100    000015607                    000156070000000000000109                     I0115607     30061800000000035003410000017N070518104700000000000103006180000000000000000000000000000000000000000100007682577789CLAUDIA CRISTINA CARVALHO AREA          RUA ALFAZEMA, 91 CASA 1                 PADRE MIGUEL21720360RIO DE JANEIRO RJUNIAO UMB DOS CULTOS AFRO BRAS    30061810 000072
10231987175000168916200163100    000015606                    000156060000000000000109                     I0215606     30061800000000035003410000017N070518104700000000000103006180000000000000000000000000000000000000000100000912311754PAULO HENRIQUE DA SILVA MOURA           RUA QUATI, 112                          MIGUEL COUTO26060420NOVA IGUACU    RJUNIAO UMB DOS CULTOS AFRO BRAS    30061810 000073
10231987175000168916200163100    000015605                    000156050000000000000109                     I0115605     30061800000000035003410000017N070518104700000000000103006180000000000000000000000000000000000000000100087394464768LEILA MARIA ROSA MARTINS                RUA EDNA MEDEIROS, 155                  CORUMBA - NO26042430NOVA IGUACU    RJUNIAO UMB DOS CULTOS AFRO BRAS    30061810 000074
10231987175000168916200163100    000015604                    000156040000000000000109                     I0115604     30061800000000035003410000017N070518104700000000000103006180000000000000000000000000000000000000000100050600567753MARIA JOSE DA SILVA                     RUA JULIETA, 7 APTO 201                 PIEDADE - RI20751440RIO DE JANEIRO RJUNIAO UMB DOS CULTOS AFRO BRAS    30061810 000075
10231987175000168916200163100    000015603                    000156030000000000000109                     I0115603     30061800000000035003410000017N070518104700000000000103006180000000000000000000000000000000000000000100004245693703JONETE DA SILVA FRANCISCO               RUA MOZART FIRMESA, 20 COBERTURA 303    RECREIO - RJ22795365RIO DE JANEIRO RJUNIAO UMB DOS CULTOS AFRO BRAS    30061810 000076
10231987175000168916200163100    000015602                    000156020000000000000109                     I0115602     30061800000000035003410000017N070518104700000000000103006180000000000000000000000000000000000000000100003360087755ELIENE GONCALVES JACINTO                TRAVESSA DAS FLORES, 20                 PARQUE LAFAI25010695DUQUE DE CAXIASRJUNIAO UMB DOS CULTOS AFRO BRAS    30061810 000077
10231987175000168916200163100    000015601                    000156010000000000000109                     I0115601     30061800000000035003410000017N070518104700000000000103006180000000000000000000000000000000000000000100035750553787SUELY PINHEIRO DA SILVA                 RUA MARILENE VIEIRA DE ASSIS, 850 FUNDOSVILA MARIA H25251500DUQUE DE CAXIASRJUNIAO UMB DOS CULTOS AFRO BRAS    30061810 000078
10231987175000168916200163100    000015600                    000156000000000000000109                     I0115600     30061800000000035003410000017N070518104700000000000103006180000000000000000000000000000000000000000100007547737790ALESSANDRO CRUZ GONCALVES               RUA DIONISIO FERNANDES, 297 BLOCO 1 APTOENGENHO DE D20730400RIO DE JANEIRO RJUNIAO UMB DOS CULTOS AFRO BRAS    30061810 000079
10231987175000168916200163100    000015599                    000155990000000000000109                     I0115599     30061800000000035003410000017N070518104700000000000103006180000000000000000000000000000000000000000100005836497770SIDEAN LEANDRO DOS SANTOS CRUZ          RUA MENDES RIBEIRO, 696                 PATRONATO - 24431635SAO GONCALO    RJUNIAO UMB DOS CULTOS AFRO BRAS    30061810 000080
10231987175000168916200163100    000015598                    000155980000000000000109                     I0115598     30061800000000035003410000017N070518104700000000000103006180000000000000000000000000000000000000000100075911140772MARCIA FIGUEIREDO DOS SANTOS G          RUA FERNANDO LOBO, 571 - RUA B QUADRA B GUADALUPE - 21665070RIO DE JANEIRO RJUNIAO UMB DOS CULTOS AFRO BRAS    30061810 000081
10231987175000168916200163100    000015597                    000155970000000000000109                     I0115597     30061800000000035003410000017N070518104700000000000103006180000000000000000000000000000000000000000100007730416727ALESSANDRA REGINA DOS ANJOS             RUA NEVES, 119                          PARQUE TIETE25585380SAO JOAO DE MERRJUNIAO UMB DOS CULTOS AFRO BRAS    30061810 000082
10231987175000168916200163100    000015596                    000155960000000000000109                     I0115596     30061800000000035003410000017N070518104700000000000103006180000000000000000000000000000000000000000100047657383704JAIR LOURENCO DE LIMA                   O MESMO                                 O MESMO     25640340PETROPOLIS     RJUNIAO UMB DOS CULTOS AFRO BRAS    30061810 000083
10231987175000168916200163100    000015595                    000155950000000000000109                     I0115595     30061800000000035003410000017N070518104700000000000103006180000000000000000000000000000000000000000100089209001753ALDIR TEIXEIRA DE SOUZA                 RUA BELO HORIZONTE, 381                 BANGU - RIO 21815141RIO DE JANEIRO RJUNIAO UMB DOS CULTOS AFRO BRAS    30061810 000084
10231987175000168916200163100    000015594                    000155940000000000000109                     I0115594     30061800000000035003410000017N070518104700000000000103006180000000000000000000000000000000000000000100003598384726ROSANE QUIRINO DA SILVA                 RUA MANUEL RODRIGUES FONTINHA, 119      NOVA CIDADE 26535270NILOPOLIS      RJUNIAO UMB DOS CULTOS AFRO BRAS    30061810 000085
10231987175000168916200163100    000015593                    000155930000000000000109                     I0115593     30061800000000035003410000017N070518104700000000000103006180000000000000000000000000000000000000000100002330389727LENIRA FELIX DA SILVA                   RUA ULISSES ROBERTO, 1524               BOACU - SAO 24467490SAO GONCALO    RJUNIAO UMB DOS CULTOS AFRO BRAS    30061810 000086
10231987175000168916200163100    000015592                    000155920000000000000109                     I0115592     30061800000000035003410000017N070518104700000000000103006180000000000000000000000000000000000000000100005368533713DIVALCI COELHO REINALDO                 RUA CEVADA, 17                          PANTANAL    26297108NOVA IGUACU    RJUNIAO UMB DOS CULTOS AFRO BRAS    30061810 000087
10231987175000168916200163100    000015591                    000155910000000000000109                     I0115591     30061800000000035003410000017N070518104700000000000103006180000000000000000000000000000000000000000100007429687741MAURO ROBERTO NEVES DA HORA             RUA BRAS CUBAS, 112 BLOCO 3 APTO 106    CONDOMINIO P21520030RIO DE JANEIRO RJUNIAO UMB DOS CULTOS AFRO BRAS    30061810 000088
10231987175000168916200163100    000015590                    000155900000000000000109                     I0115590     30061800000000035003410000017N070518104700000000000103006180000000000000000000000000000000000000000100002380864705MARCELO CISNEIROS DA SILVA              RUA GUAIBA, 481                         VILA DA PENH21215070RIO DE JANEIRO RJUNIAO UMB DOS CULTOS AFRO BRAS    30061810 000089
10231987175000168916200163100    000015589                    000155890000000000000109                     I0115589     30061800000000035003410000017N070518104700000000000103006180000000000000000000000000000000000000000100055046010704SONIA REGINA PINTO DA SILVA             RUA ARACOIA, 188 FUNDOS                 BRAZ DE PINA21011140RIO DE JANEIRO RJUNIAO UMB DOS CULTOS AFRO BRAS    30061810 000090
10231987175000168916200163100    000015588                    000155880000000000000109                     I0115588     30061800000000035003410000017N070518104700000000000103006180000000000000000000000000000000000000000100010093629761DANIELLE DO NASCIMENTO NICACIO          ESTRADA DA GRANJA, 100 FRENTE           PALHADA - NO26290249NOVA IGUACU    RJUNIAO UMB DOS CULTOS AFRO BRAS    30061810 000091
10231987175000168916200163100    000015587                    000155870000000000000109                     I0115587     30061800000000035003410000017N070518104700000000000103006180000000000000000000000000000000000000000100009963993729LEANDRO DE SOUZA OLIVEIRA               RUA DA MATRIZ, 876                      CENTRO - SAO25525130SAO JOAO DE MERRJUNIAO UMB DOS CULTOS AFRO BRAS    30061810 000092
10231987175000168916200163100    000015586                    000155860000000000000109                     I0115586     30061800000000035003410000017N070518104700000000000103006180000000000000000000000000000000000000000100003439982700ANDRE LUIS SANTIAGO DE ALMEIDA          RUA TANGER, 39                          SANTA CRUZ -23555013RIO DE JANEIRO RJUNIAO UMB DOS CULTOS AFRO BRAS    30061810 000093
10231987175000168916200163100    000015585                    000155850000000000000109                     I0115585     30061800000000035003410000017N070518104700000000000103006180000000000000000000000000000000000000000100000338518754EDUARDO LUIS E SILVA COIMBRA            RUA DOS INVALIDOS, 138 BLOCO 1 APTO 209 LAPA - CENTR20231046RIO DE JANEIRO RJUNIAO UMB DOS CULTOS AFRO BRAS    30061810 000094
10231987175000168916200163100    000015584                    000155840000000000000109                     I0115584     30061800000000035003410000017N070518104700000000000103006180000000000000000000000000000000000000000100013565688742CAIO CESAR DUARTE DE SOUZA              RUA CALUMBI, 300 APT 305                IRAJA - RIO 21361260RIO DE JANEIRO RJUNIAO UMB DOS CULTOS AFRO BRAS    30061810 000095
10231987175000168916200163100    000015583                    000155830000000000000109                     I0115583     30061800000000035003410000017N070518104700000000000103006180000000000000000000000000000000000000000100081905530706ALBERTO DINIZ RODRIGUES GABRIE          RUA AGAI, S/N QUADRA 38 LOTE 14         PACIENCIA   23065620RIO DE JANEIRO RJUNIAO UMB DOS CULTOS AFRO BRAS    30061810 000096
10231987175000168916200163100    000015582                    000155820000000000000109                     I0115582     30061800000000035003410000017N070518104700000000000103006180000000000000000000000000000000000000000100044239300720WALDIR DAS CHAGAS FILHO                 RUA CALMON CABRAL, 72 CASA 1 FUNDOS     IRAJA - RIO 21235150RIO DE JANEIRO RJUNIAO UMB DOS CULTOS AFRO BRAS    30061810 000097
10231987175000168916200163100    000015581                    000155810000000000000109                     I0115581     30061800000000035003410000017N070518104700000000000103006180000000000000000000000000000000000000000100071276920768ELIZABETH DOS SANTOS FRAGA SAR          RUA: ANGELA                             PRATA - BELF26130740BELFORD ROXO   RJUNIAO UMB DOS CULTOS AFRO BRAS    30061810 000098
10231987175000168916200163100    000015580                    000155800000000000000109                     I0115580     30061800000000035003410000017N070518104700000000000103006180000000000000000000000000000000000000000100093265042715CARMEN MESQUITA CAMILLO DA SIL          RUA RAUL PEDERNEIRAS, 261               BANGU - RIO 21860210RIO DE JANEIRO RJUNIAO UMB DOS CULTOS AFRO BRAS    30061810 000099
10231987175000168916200163100    000015579                    000155790000000000000109                     I0115579     30061800000000035003410000017N070518104700000000000103006180000000000000000000000000000000000000000100008448034724CLAUDIA DA SILVA SANTANA                RUA SANTA LUZIA, 115                    NOVA ERA - N26265560NOVA IGUACU    RJUNIAO UMB DOS CULTOS AFRO BRAS    30061810 000100
10231987175000168916200163100    000015578                    000155780000000000000109                     I0115578     30061800000000035003410000017N070518104700000000000103006180000000000000000000000000000000000000000100066859123915ROBERTO ALVES DO NASCIMENTO             RUA MARECHAL DEODORO, 499               CENTRO - PAR23970000PARATY         RJUNIAO UMB DOS CULTOS AFRO BRAS    30061810 000101
10231987175000168916200163100    000015577                    000155770000000000000109                     I0115577     30061800000000035003410000017N070518104700000000000103006180000000000000000000000000000000000000000100049630903768ADELSON MARIANO PEREIRA                 ESTRADA SAO DOMINGOS SAVIO, 868 RUA C LOSANTA CRUZ -23525033RIO DE JANEIRO RJUNIAO UMB DOS CULTOS AFRO BRAS    30061810 000102
10231987175000168916200163100    000015576                    000155760000000000000109                     I0115576     30061800000000035003410000017N070518104700000000000103006180000000000000000000000000000000000000000100024540285734FERNANDO PEREIRA DE SOUZA               RUA ALECRIM  1008                       VILA KOSMOS 21220050RIO DE JANEIRO RJUNIAO UMB DOS CULTOS AFRO BRAS    30061810 000103
10231987175000168916200163100    000015575                    000155750000000000000109                     I0115575     30061800000000035003410000017N070518104700000000000103006180000000000000000000000000000000000000000100061178543749ROSILDA ALVES DA COSTA                  RUA CUBA CASA 582                       PENHA CIRCUL21200160RIO DE JANEIRO RJUNIAO UMB DOS CULTOS AFRO BRAS    30061810 000104
10231987175000168916200163100    000015574                    000155740000000000000109                     I0115574     30061800000000035003410000017N070518104700000000000103006180000000000000000000000000000000000000000100004762099783MARLENE DA CONCEICAO BARRETO            RUA GONZAGA BASTOS, 209 BLOCO C APTO 308TIJUCA - RIO20541000RIO DE JANEIRO RJUNIAO UMB DOS CULTOS AFRO BRAS    30061810 000105
10231987175000168916200163100    000015573                    000155730000000000000109                     I0115573     30061800000000035003410000017N070518104700000000000103006180000000000000000000000000000000000000000100083765778753MARCIA REGINA NUNES DA SILVA            RUA AXUA, 227 CASA 16                   TAQUARA - JA22713515RIO DE JANEIRO RJUNIAO UMB DOS CULTOS AFRO BRAS    30061810 000106
10231987175000168916200163100    000015572                    000155720000000000000109                     I0115572     30061800000000035003410000017N070518104700000000000103006180000000000000000000000000000000000000000100015415831777DOUGLAS DA SILVA DE SOUZA               RUA CAPINTUBA, 162                      IRAJA - RJ  21361210RIO DE JANEIRO RJUNIAO UMB DOS CULTOS AFRO BRAS    30061810 000107
10231987175000168916200163100    000015571                    000155710000000000000109                     I0115571     30061800000000035003410000017N070518104700000000000103006180000000000000000000000000000000000000000100001055608710IARA DA SILVA REGO                      RUA: ALCOBACA 1333 CASA 1               ANCHIETA - R21645001RIO DE JANEIRO RJUNIAO UMB DOS CULTOS AFRO BRAS    30061810 000108
10231987175000168916200163100    000015570                    000155700000000000000109                     I0115570     30061800000000035003410000017N070518104700000000000103006180000000000000000000000000000000000000000100074906615791MARIA DE FATIMA FERREIRA TENOR          RUA PRACINHA WALLACE PAES LEME, 1483    CENTRO - NIL26525046NILOPOLIS      RJUNIAO UMB DOS CULTOS AFRO BRAS    30061810 000109
10231987175000168916200163100    000015569                    000155690000000000000109                     I0115569     30061800000000035003410000017N070518104700000000000103006180000000000000000000000000000000000000000100000119220792ANA MARIA PASSOS INOCENCIO              RUA CACONDE N 258                       RIO DE JANEI21331415RIO DE JANEIRO RJUNIAO UMB DOS CULTOS AFRO BRAS    30061810 000110
10231987175000168916200163100    000015568                    000155680000000000000109                     I0115568     30061800000000035003410000017N070518104700000000000103006180000000000000000000000000000000000000000100077819306734UENES DA SILVA DE OLIVEIRA              RUA GENERAL CARVALHO  Nº 1148          CORDOVIL    21250240RIO DE JANEIRO RJUNIAO UMB DOS CULTOS AFRO BRAS    30061810 000111
10231987175000168916200163100    000015567                    000155670000000000000109                     I0115567     30061800000000035003410000017N070518104700000000000103006180000000000000000000000000000000000000000100001613673728PAULO DA CONCEICAO SOARES               RUA PAULICEIA N 18                      PARQUE SAO B26176380BELFORD ROXO   RJUNIAO UMB DOS CULTOS AFRO BRAS    30061810 000112
10231987175000168916200163100    000015566                    000155660000000000000109                     I0115566     30061800000000035003410000017N070518104700000000000103006180000000000000000000000000000000000000000100009979098708WASHINGTON BENTO DA CUNHA               RUA CAMPOS, BLOCO 8 QUADRA A            VILLAR DOS T25570200SAO JOAO DE MERRJUNIAO UMB DOS CULTOS AFRO BRAS    30061810 000113
10231987175000168916200163100    000015565                    000155650000000000000109                     I0115565     30061800000000040003410000017N070518104700000000000103006180000000000000000000000000000000000000000100013180490756DIEGO CAVALCANTI DA SILVA               RUA CONDE DE RESENDE, 127               BENTO RIBEIR21550600RIO DE JANEIRO RJUNIAO UMB DOS CULTOS AFRO BRAS    30061810 000114
10231987175000168916200163100    000015564                    000155640000000000000109                     I0115564     30061800000000035003410000017N070518104700000000000103006180000000000000000000000000000000000000000100010949550434JOAO BATISTA PEREIRA DE VASCON          RUA NEIDE ALVES DA SILVA, 162           JARDIM SAO S58306450BAYEUX         PBUNIAO UMB DOS CULTOS AFRO BRAS    30061810 000115
10231987175000168916200163100    000015563                    000155630000000000000109                     I0115563     30061800000000035003410000017N070518104700000000000103006180000000000000000000000000000000000000000100073408042772VANDA CEZARIO LIMA BRAZ                 RUA JOSE FERNANDES DE OLIVEIRA, 70      CENTRO - NIL26521640NILOPOLIS      RJUNIAO UMB DOS CULTOS AFRO BRAS    30061810 000116
10231987175000168916200163100    000015562                    000155620000000000000109                     I0115562     30061800000000035003410000017N070518104700000000000103006180000000000000000000000000000000000000000100007228447786JEFFERSON CACADOR DE LIMA               ESTRADA DO TINDIBA N 744                TAQUARA - RI22740360RIO DE JANEIRO RJUNIAO UMB DOS CULTOS AFRO BRAS    30061810 000117
10231987175000168916200163100    000015561                    000155610000000000000109                     I0115561     30061800000000035003410000017N070518104700000000000103006180000000000000000000000000000000000000000100033927499749JORGE CARDOSO DE MACEDO                 RUA G, LOTE 29 QUADRA 11                GRANJA SANTA25900000PIABETA - MAGE RJUNIAO UMB DOS CULTOS AFRO BRAS    30061810 000118
10231987175000168916200163100    000015560                    000155600000000000000109                     I0115560     30061800000000035003410000017N070518104700000000000103006180000000000000000000000000000000000000000100001215240783SONIA MARIA ROSA BRANDAO                RUA ARARUAMA, 280                       BANGU - RJ  21562050RIO DE JANEIRO RJUNIAO UMB DOS CULTOS AFRO BRAS    30061810 000119
10231987175000168916200163100    000015559                    000155590000000000000109                     I0115559     30061800000000035003410000017N070518104700000000000103006180000000000000000000000000000000000000000100060894628704TERESINHA DE JESUS BIL RAMOS T          RUA GENERAL MIGUEL FERREIRA, 178 RUA E CTAQUARA - RI22770590RIO DE JANEIRO RJUNIAO UMB DOS CULTOS AFRO BRAS    30061810 000120
10231987175000168916200163100    000015558                    000155580000000000000109                     I0115558     30061800000000035003410000017N070518104700000000000103006180000000000000000000000000000000000000000100005235517709SIDNEY ROBERTO SILVA DE CARVAL          RUA DONATELO, LOTE 27 QUADRA 38         GUARATIBA   23028210RIO DE JANEIRO RJUNIAO UMB DOS CULTOS AFRO BRAS    30061810 000121
10231987175000168916200163100    000015557                    000155570000000000000109                     I0115557     30061800000000035003410000017N070518104700000000000103006180000000000000000000000000000000000000000100059130091772JORGE LUIZ CERUTTI AMADI                RUA EUNICE DE MENEZES, CASA 2 LOTE 7    VENDA VELHA 25565470SAO JOAO DE MERRJUNIAO UMB DOS CULTOS AFRO BRAS    30061810 000122
10231987175000168916200163100    000015556                    000155560000000000000109                     I0115556     30061800000000035003410000017N070518104700000000000103006180000000000000000000000000000000000000000100009711789760RICARDO VICENTE DE SOUZA                RUA HENRIQUETA, 68                      LARGO DO TAN22735130RIO DE JANEIRO RJUNIAO UMB DOS CULTOS AFRO BRAS    30061810 000123
10231987175000168916200163100    000015555                    000155550000000000000109                     I0115555     30061800000000035003410000017N070518104700000000000103006180000000000000000000000000000000000000000100063629852734ZULEICA JANINA BOMFIM AMARAL            RUA DA CAPELA, 744                      ESTACIO - RI20250051RIO DE JANEIRO RJUNIAO UMB DOS CULTOS AFRO BRAS    30061810 000124
10231987175000168916200163100    000015554                    000155540000000000000109                     I0115554     30061800000000035003410000017N070518104700000000000103006180000000000000000000000000000000000000000100005529010750JOELMA MELO DA SILVA                    RUA ELIEZER ALVES DA ROCHA, 226         RAUL VEIGA -24710640SAO GONCALO    RJUNIAO UMB DOS CULTOS AFRO BRAS    30061810 000125
10231987175000168916200163100    000015553                    000155530000000000000109                     I0115553     30061800000000035003410000017N070518104700000000000103006180000000000000000000000000000000000000000100071926305787PEDRO PAULO DE ARAUJO MALHEIRO          RUA RAFAEL BORDALO, 31                  GUARATIBA - 23032590RIO DE JANEIRO RJUNIAO UMB DOS CULTOS AFRO BRAS    30061810 000126
10231987175000168916200163100    000015552                    000155520000000000000109                     I0115552     30061800000000035003410000017N070518104700000000000103006180000000000000000000000000000000000000000100084394595720FRANCISCO RAUL DA SILVA AZEVED          RUA JORGE LEAL GONCALVES, 37 CASA 2     PACIENCIA - 23587270RIO DE JANEIRO RJUNIAO UMB DOS CULTOS AFRO BRAS    30061810 000127
10231987175000168916200163100    000015551                    000155510000000000000109                     I0115551     30061800000000035003410000017N070518104700000000000103006180000000000000000000000000000000000000000100085958549715TANIA REGINA LONTRA BITTENCOUR          RUA MARIO SANTANA, 1 BLOCO 17 APTO 103  WONA  - BELF26176285BELFORD ROXO   RJUNIAO UMB DOS CULTOS AFRO BRAS    30061810 000128
10231987175000168916200163100    000015550                    000155500000000000000109                     I0115550     30061800000000035003410000017N070518104700000000000103006180000000000000000000000000000000000000000100037433288791VERA LUCIA COSTA MOACYR                 RUA JOANA KALIL, LOTE 6 QUADRA 51       JARDIM MERIT25555100SAO JOAO DE MERRJUNIAO UMB DOS CULTOS AFRO BRAS    30061810 000129
10231987175000168916200163100    000015549                    000155490000000000000109                     I0115549     30061800000000035003410000017N070518104700000000000103006180000000000000000000000000000000000000000100073590690763JORGE ARAUJO LOURENCO                   RUA JUPARA, 96 CASA 2 FUNDOS            SAO CRISTOVA20911060RIO DE JANEIRO RJUNIAO UMB DOS CULTOS AFRO BRAS    30061810 000130
10231987175000168916200163100    000015548                    000155480000000000000109                     I0115548     30061800000000035003410000017N070518104700000000000103006180000000000000000000000000000000000000000100002051058741CRISTIANE SANTANA GURGEL CORTE          RUA  JONAS AMANCIO, 160  - AMANDA       CAMPO GRANDE23092710RIO DE JANEIRO RJUNIAO UMB DOS CULTOS AFRO BRAS    30061810 000131
10231987175000168916200163100    000015547                    000155470000000000000109                     I0115547     30061800000000035003410000017N070518104700000000000103006180000000000000000000000000000000000000000100002727538740DILNEI PEREIRA CRUZ                     RUA ALAIDE MARINHO, 52                  JARDIM NOVA 26272240NOVA IGUACU    RJUNIAO UMB DOS CULTOS AFRO BRAS    30061810 000132
10231987175000168916200163100    000015546                    000155460000000000000109                     I0115546     30061800000000035003410000017N070518104700000000000103006180000000000000000000000000000000000000000100002110875720ALEX DA SILVA GUEDES                    RUA: MOACIR DE ALMEIDA                  TOMAS COELHO20740350RIO DE JANEIRO RJUNIAO UMB DOS CULTOS AFRO BRAS    30061810 000133
10231987175000168916200163100    000015545                    000155450000000000000109                     I0115545     30061800000000035003410000017N070518104700000000000103006180000000000000000000000000000000000000000100004788683750CARLA APARECIDA DA ROCHA RITA           RUA GENERAL SILVEIRA SOBRINHO, 245 APTO VILA DA PENH21221290RIO DE JANEIRO RJUNIAO UMB DOS CULTOS AFRO BRAS    30061810 000134
10231987175000168916200163100    000015544                    000155440000000000000109                     I0115544     30061800000000035003410000017N070518104700000000000103006180000000000000000000000000000000000000000100093778244787GENEILDA RANGEL SMITH                   RUA MARIA LUIZA REIS , 850              ENGENHEIRO D25015045DUQUE DE CAXIASRJUNIAO UMB DOS CULTOS AFRO BRAS    30061810 000135
10231987175000168916200163100    000015543                    000155430000000000000109                     I0115543     30061800000000035003410000017N070518104700000000000103006180000000000000000000000000000000000000000100000904501752ALEXANDRE DOS ANJOS PIMENTEL            AVENIDA DOM HELDER CAMARA, 1595 BLOCO 18BENFICA - RI20973011RIO DE JANEIRO RJUNIAO UMB DOS CULTOS AFRO BRAS    30061810 000136
10231987175000168916200163100    000015542                    000155420000000000000109                     I0115542     30061800000000035003410000017N070518104700000000000103006180000000000000000000000000000000000000000100010415045789CRISTIANO SOUZA BATISTA                 RUA SEIS DE ABRIL, 270                  CABUCU - NOV26293336NOVA IGUACU    RJUNIAO UMB DOS CULTOS AFRO BRAS    30061810 000137
10231987175000168916200163100    000015541                    000155410000000000000109                     I0115541     30061800000000035003410000017N070518104700000000000103006180000000000000000000000000000000000000000100000441487718DALVA LUIZ GOMES                        RUA: PARAISO LOTE 10 QUADRA 94 CASA 3 - NOVA IGUACU 26291446NOVA IGUACU    RJUNIAO UMB DOS CULTOS AFRO BRAS    30061810 000138
10231987175000168916200163100    000015540                    000155400000000000000109                     I0115540     30061800000000035003410000017N070518104700000000000103006180000000000000000000000000000000000000000100000377539759WELLINGTON LUIS RODRIGUES               RUA ARGENTINA REIS, 80 FUNDOS           QUINTINO BOC20740040RIO DE JANEIRO RJUNIAO UMB DOS CULTOS AFRO BRAS    30061810 000139
10231987175000168916200163100    000015539                    000155390000000000000109                     I0115539     30061800000000035003410000017N070518104700000000000103006180000000000000000000000000000000000000000100014842140720HUDSON WALLACE ANGELO DA SILVA          O MESMO                                 O MESMO     25220689DUQUE DE CAXIASRJUNIAO UMB DOS CULTOS AFRO BRAS    30061810 000140
10231987175000168916200163100    000015538                    000155380000000000000109                     I0115538     30061800000000035003410000017N070518104700000000000103006180000000000000000000000000000000000000000100009396919730CATIA DE SOUZA SANTIAGO                 ESTRADA SAO FRANCISCO, 766 - SURUI      SURUI - MAGE25900000MAGE           RJUNIAO UMB DOS CULTOS AFRO BRAS    30061810 000141
10231987175000168916200163100    000015537                    000155370000000000000109                     I0115537     30061800000000035003410000017N070518104700000000000103006180000000000000000000000000000000000000000100018453662711ANDERSON DA SILVA NUNES                 RUA ESTREMADURA, 1525 40 C FUNDOS       VISTA ALEGRE21230510RIO DE JANEIRO RJUNIAO UMB DOS CULTOS AFRO BRAS    30061810 000142
10231987175000168916200163100    000015536                    000155360000000000000109                     I0115536     30061800000000035003410000017N070518104700000000000103006180000000000000000000000000000000000000000100002912143713JANAINA PACHECO PINHEIRO                RUA FILGUEIRAS LIMA, 69 BLOCO 2 APTO 101RIACHUELO - 20950050RIO DE JANEIRO RJUNIAO UMB DOS CULTOS AFRO BRAS    30061810 000143
10231987175000168916200163100    000015535                    000155350000000000000109                     I0115535     30061800000000035003410000017N070518104700000000000103006180000000000000000000000000000000000000000100001377431738CARLOS HENRIQUE DOS SANTOS DE           RUA ALVARES CABRAL, 361 CASA 1          CACHAMBI - R20780320RIO DE JANEIRO RJUNIAO UMB DOS CULTOS AFRO BRAS    30061810 000144
10231987175000168916200163100    000015534                    000155340000000000000109                     I0115534     30061800000000035003410000017N070518104700000000000103006180000000000000000000000000000000000000000100000000012088ANDREZA SALDANHA DA CRUZ                RUA ANA APARICIO LT 19 QD 11 - NV EUDORABELFORD ROXO26125550BELFORD ROXO   RJUNIAO UMB DOS CULTOS AFRO BRAS    30061810 000145
10231987175000168916200163100    000015533                    000155330000000000000109                     I0115533     30061800000000035003410000017N070518104700000000000103006180000000000000000000000000000000000000000100054085071734DENISE SANTANA MACIEL                   RUA CARATUVA, LOTE 19                   JARDIM SULAC22725020RIO DE JANEIRO RJUNIAO UMB DOS CULTOS AFRO BRAS    30061810 000146
10231987175000168916200163100    000015532                    000155320000000000000109                     I0115532     30061800000000035003410000017N070518104700000000000103006180000000000000000000000000000000000000000100001390670350ANA PAULA SOUSA                         ESTRADA BOGANVILLE, 869 CASA 22         ANIL - JACAR22753210RIO DE JANEIRO RJUNIAO UMB DOS CULTOS AFRO BRAS    30061810 000147
10231987175000168916200163100    000015531                    000155310000000000000109                     I0115531     30061800000000035003410000017N070518104700000000000103006180000000000000000000000000000000000000000100007258424741SILVIA MARIA CAIADO DE CASTRO           RUA ESMERALDA VALLADARES, 41 LOTEAMENTO ITAIPU - NIT24342000NITEROI        RJUNIAO UMB DOS CULTOS AFRO BRAS    30061810 000148
10231987175000168916200163100    000015530                    000155300000000000000109                     I0115530     30061800000000035003410000017N070518104700000000000103006180000000000000000000000000000000000000000100003632396779ADRIANA DA RESSURREICAO GUEDES          RUA PARANA, 439                         CENTRO - MES26253020MESQUITA       RJUNIAO UMB DOS CULTOS AFRO BRAS    30061810 000149
10231987175000168916200163100    000015529                    000155290000000000000109                     I0115529     30061800000000035003410000017N070518104700000000000103006180000000000000000000000000000000000000000100082981191772DEJANIRA LOPES FERREIRA                 RUA JOSE BENTO DE OLIVEIRA, 129         QUIMICA - BA27130270BARRA DO PIRAI RJUNIAO UMB DOS CULTOS AFRO BRAS    30061810 000150
10231987175000168916200163100    000015528                    000155280000000000000109                     I0115528     30061800000000035003410000017N070518104700000000000103006180000000000000000000000000000000000000000100009036923760ERIKA BARBOSA DOS SANTOS                AVENIDA ERNANI CARDOSO, 53 FUNDOS CASA 1CASCADURA - 21310310RIO DE JANEIRO RJUNIAO UMB DOS CULTOS AFRO BRAS    30061810 000151
10231987175000168916200163100    000015527                    000155270000000000000109                     I0115527     30061800000000035003410000017N070518104700000000000103006180000000000000000000000000000000000000000100067560555772ADELSON RODRIGUES DE MATTOS             RUA DONA BELA, 17 CASA 2                TRES PONTES 24809230RIO DE JANEIRO RJUNIAO UMB DOS CULTOS AFRO BRAS    30061810 000152
10231987175000168916200163100    000015526                    000155260000000000000109                     I0115526     30061800000000035003410000017N070518104700000000000103006180000000000000000000000000000000000000000100008478002707ALEXSANDRO JOAO MARTINS                 RUA: CARMO DO RIO CLARO Nº 266 - SAO GANOVA IGUACU 26021830NOVA IGUACU    RJUNIAO UMB DOS CULTOS AFRO BRAS    30061810 000153
10231987175000168916200163100    000015525                    000155250000000000000109                     I0115525     30061800000000035003410000017N070518104700000000000103006180000000000000000000000000000000000000000100053542886734MARIA LUCIA SOARES PONCE                RUA SOLDADO BERNARDINO DA SILVA, 568 APTVILA KOSMOS 21210020RIO DE JANEIRO RJUNIAO UMB DOS CULTOS AFRO BRAS    30061810 000154
10231987175000168916200163100    000015524                    000155240000000000000109                     I0115524     30061800000000035003410000017N070518104700000000000103006180000000000000000000000000000000000000000100007702148780MARCO AURELIO DO NASCIMENTO AL          RUA RIO NEGRO, 160                      REALENGO - R21760280RIO DE JANEIRO RJUNIAO UMB DOS CULTOS AFRO BRAS    30061810 000155
10231987175000168916200163100    000015523                    000155230000000000000109                     I0115523     30061800000000035003410000017N070518104700000000000103006180000000000000000000000000000000000000000100009424589743RONALDO DE JESUS ALVES JUNIOR           RUA: 32 QUADRA 263 LOTE 4 - JD ATLANTICOITAIPUACU - 20530420RIO DE JANEIRO RJUNIAO UMB DOS CULTOS AFRO BRAS    30061810 000156
10231987175000168916200163100    000015522                    000155220000000000000109                     I0115522     30061800000000035003410000017N070518104700000000000103006180000000000000000000000000000000000000000203210312414870MARCELINA DA SILVA COSTA                RUA ALARICO DE SOUZA, 102 CASA 1        ATALAIA - NI24315000NITEROI        RJUNIAO UMB DOS CULTOS AFRO BRAS    30061810 000157
10231987175000168916200163100    000015521                    000155210000000000000109                     I0115521     30061800000000035003410000017N070518104700000000000103006180000000000000000000000000000000000000000100012745403729BENEDITA CIRLEIDE RODRIGUES BR          RUA JOAO FLORIANO, 301 QUADRA 97 LOTE 25JD CATARINA 24717520SAO GONCALO    RJUNIAO UMB DOS CULTOS AFRO BRAS    30061810 000158
10231987175000168916200163100    000015520                    000155200000000000000109                     I0115520     30061800000000035003410000017N070518104700000000000103006180000000000000000000000000000000000000000100003611090751ANDREA DA COSTA FERREIRA                RUA CORONEL FRANCA LEITE, 657           EDSON PASSOS26585020MESQUITA       RJUNIAO UMB DOS CULTOS AFRO BRAS    30061810 000159
10231987175000168916200163100    000015519                    000155190000000000000109                     I0115519     30061800000000035003410000017N070518104700000000000103006180000000000000000000000000000000000000000100000055376738MARIA DA GRACA BRANDAO                  RUA MATARAZZO, QUADRA 17 LOTE 5         GUARATIBA - 23028750RIO DE JANEIRO RJUNIAO UMB DOS CULTOS AFRO BRAS    30061810 000160
10231987175000168916200163100    000015518                    000155180000000000000109                     I0115518     30061800000000035003410000017N070518104700000000000103006180000000000000000000000000000000000000000200000000012036MARTINA SELMA DA COSTA                  RUA BUCARESTE, LOTE 27 QUADRA 79        VILA CENTRAL26316136QUEIMADOS      RJUNIAO UMB DOS CULTOS AFRO BRAS    30061810 000161
10231987175000168916200163100    000015517                    000155170000000000000109                     I0115517     30061800000000035003410000017N070518104700000000000103006180000000000000000000000000000000000000000100004162486751IVONETE CRISTINA MARTINS MACHA          RUA DO CATETE, 5 FUNDOS                 VILA LEOPOLD25060230DUQUE DE CAXIASRJUNIAO UMB DOS CULTOS AFRO BRAS    30061810 000162
10231987175000168916200163100    000015516                    000155160000000000000109                     I0115516     30061800000000035003410000017N070518104700000000000103006180000000000000000000000000000000000000000100067348793720MARCIO DE SOUZA MOURA                   RUA CAJUIPE,  110                       BONSUCESSO -21060490RIO DE JANEIRO RJUNIAO UMB DOS CULTOS AFRO BRAS    30061810 000163
10231987175000168916200163100    000015515                    000155150000000000000109                     I0115515     30061800000000035003410000017N070518104700000000000103006180000000000000000000000000000000000000000100008548472782ADRIANO MENDES DA COSTA                 RUA  J, 16 CASA                         CAMPINHO - R21330735RIO DE JANEIRO RJUNIAO UMB DOS CULTOS AFRO BRAS    30061810 000164
10231987175000168916200163100    000015514                    000155140000000000000109                     I0115514     30061800000000035003410000017N070518104700000000000103006180000000000000000000000000000000000000000100072214171720ROBSON ROGERIO CRUZ                     TRAVESSA ALMERINDA FREITAS,  25 SALA 408MADUREIRA - 21350280RIO DE JANEIRO RJUNIAO UMB DOS CULTOS AFRO BRAS    30061810 000165
10231987175000168916200163100    000015513                    000155130000000000000109                     I0115513     30061800000000035003410000017N070518104700000000000103006180000000000000000000000000000000000000000100001254302727EDUARDO ROSA                            RUA PARAGUACU CARNEIRO, 55 CASA         PARQUE ANCHI21635390RIO DE JANEIRO RJUNIAO UMB DOS CULTOS AFRO BRAS    30061810 000166
10231987175000168916200163100    000015512                    000155120000000000000109                     I0115512     30061800000000035003410000017N070518104700000000000103006180000000000000000000000000000000000000000100098300989749SOLANGE MONTEIRO DA SILVA LAMB          RUA EMILIA AZEVEDO, 67 - MANTIQUIRA     XEREM - DUQU25250460DUQUE DE CAXIASRJUNIAO UMB DOS CULTOS AFRO BRAS    30061810 000167
10231987175000168916200163100    000015511                    000155110000000000000109                     I0115511     30061800000000035003410000017N070518104700000000000103006180000000000000000000000000000000000000000100003747539700MARCIA SANTANA DA SILVA COSTA           RUA GUAIAUNA N 392                      COELHO NETO 21510420RIO DE JANEIRO RJUNIAO UMB DOS CULTOS AFRO BRAS    30061810 000168
10231987175000168916200163100    000015510                    000155100000000000000109                     I0115510     30061800000000035003410000017N070518104700000000000103006180000000000000000000000000000000000000000100054903416704ANTONIO FERNANDO CORREA DE CAR          RUA OLIVEIROS RODRIGUES ALVES, 1974     POSSE - NOVA26030010NOVA IGUACU    RJUNIAO UMB DOS CULTOS AFRO BRAS    30061810 000169
10231987175000168916200163100    000015509                    000155090000000000000109                     I0115509     30061800000000035003410000017N070518104700000000000103006180000000000000000000000000000000000000000100089511000730JORGE LUIS DE OLIVEIRA QUEIROZ          RUA JOSE ALVES PIMENTA, 912 CASA 1      MATADOURO - 27115010BARRA DO PIRAI RJUNIAO UMB DOS CULTOS AFRO BRAS    30061810 000170
10231987175000168916200163100    000015508                    000155080000000000000109                     I0115508     30061800000000035003410000017N070518104700000000000103006180000000000000000000000000000000000000000100039622100759LEIR AUGUSTO DA SILVA                   RUA ARTHUR DO NASCIMENTO JUNIOR CASA 23 FRAGOSO - MA25932890MAGE           RJUNIAO UMB DOS CULTOS AFRO BRAS    30061810 000171
10231987175000168916200163100    000015507                    000155070000000000000109                     I0115507     30061800000000035003410000017N070518104700000000000103006180000000000000000000000000000000000000000100080285570749KATIA REGINA SILVA DE SOUZA             RUA JACARACI,  46                       REALENGO - R21710140RIO DE JANEIRO RJUNIAO UMB DOS CULTOS AFRO BRAS    30061810 000172
10231987175000168916200163100    000015506                    000155060000000000000109                     I0115506     30061800000000035003410000017N070518104700000000000103006180000000000000000000000000000000000000000100002680887484MARIA APARECIDA DOS SANTOS MEN          RUA LUIZ MATEUS, 54 FUNDOS              VAZ MARTINS 26291018NOVA IGUACU    RJUNIAO UMB DOS CULTOS AFRO BRAS    30061810 000173
10231987175000168916200163100    000015505                    000155050000000000000109                     I0115505     30061800000000035003410000017N070518104700000000000103006180000000000000000000000000000000000000000100098726978768MARIA STELA GOMES DA SILVA              RUA NARA, 10 - JARDIM LARANJEIRAS       CABUCU - NOV26291269NOVA IGUACU    RJUNIAO UMB DOS CULTOS AFRO BRAS    30061810 000174
10231987175000168916200163100    000015504                    000155040000000000000109                     I0115504     30061800000000035003410000017N070518104700000000000103006180000000000000000000000000000000000000000100000516266802MARCELO DOS SANTOS                      RUA MANAUS, 241 CASA 103 FUNDOS         REALENGO - R21730050RIO DE JANEIRO RJUNIAO UMB DOS CULTOS AFRO BRAS    30061810 000175
10231987175000168916200163100    000015503                    000155030000000000000109                     I0115503     30061800000000035003410000017N070518104700000000000103006180000000000000000000000000000000000000000100087162518715VILMA TEJO PEREIRA MAIA                 RUA RONDA ALTA QUADRA 188 LOTE 37       JARDIM MARAV23031320GUARATIBA      RJUNIAO UMB DOS CULTOS AFRO BRAS    30061810 000176
10231987175000168916200163100    000015502                    000155020000000000000109                     I0115502     30061800000000035003410000017N070518104700000000000103006180000000000000000000000000000000000000000100015188766760VICTOR DOS ANJOS PAVAO                  RUA DOUTOR ARI CHAGAS, 497              SEPETIBA - R23540000RIO DE JANEIRO RJUNIAO UMB DOS CULTOS AFRO BRAS    30061810 000177
10231987175000168916200163100    000015501                    000155010000000000000109                     I0115501     30061800000000035003410000017N070518104700000000000103006180000000000000000000000000000000000000000100079921947804GILSON ANDRADE                          RUA TANGI, LOTE 12 QUADRA C             PARQUE REAL 26175025BELFORD ROXO   RJUNIAO UMB DOS CULTOS AFRO BRAS    30061810 000178
10231987175000168916200163100    000015500                    000155000000000000000109                     I0115500     30061800000000035003410000017N070518104700000000000103006180000000000000000000000000000000000000000100007271009710MARCELLO FERREIRA DE ARAUJO             RUA IPEUVA, 106                         BRAZ DE PINA21215400RIO DE JANEIRO RJUNIAO UMB DOS CULTOS AFRO BRAS    30061810 000179
10231987175000168916200163100    000015499                    000154990000000000000109                     I0115499     30061800000000035003410000017N070518104700000000000103006180000000000000000000000000000000000000000100069485135734ROBERTO GONCALVES DO NASCIMENT          RUA JULIANA, 578                        MESQUITA - N26562120NOVA IGUACU    RJUNIAO UMB DOS CULTOS AFRO BRAS    30061810 000180
10231987175000168916200163100    000015498                    000154980000000000000109                     I0115498     30061800000000035003410000017N070518104700000000000103006180000000000000000000000000000000000000000100091613965591SIMONE OLIVEIRA MACEDO                  ESTRADA CANCELA PRETA, 2120             BANGU - RIO 21725010RIO DE JANEIRO RJUNIAO UMB DOS CULTOS AFRO BRAS    30061810 000181
10231987175000168916200163100    000015497                    000154970000000000000109                     I0115497     30061800000000035003410000017N070518104700000000000103006180000000000000000000000000000000000000000100003259472797IVONETE MARIA DA SILVA                  RUA RAFAEL LANGONE, 192                 CENTRO      25880000SAPUCAIA       RJUNIAO UMB DOS CULTOS AFRO BRAS    30061810 000182
10231987175000168916200163100    000015496                    000154960000000000000109                     I0115496     30061800000000035003410000017N070518104700000000000103006180000000000000000000000000000000000000000100000461330796TANIA MARIA PEREIRA                     RUA MAPENDI, 366 BLOCO 2 APTO 505       TAQUARA - JA22710255RIO DE JANEIRO RJUNIAO UMB DOS CULTOS AFRO BRAS    30061810 000183
10231987175000168916200163100    000015495                    000154950000000000000109                     I0115495     30061800000000035003410000017N070518104700000000000103006180000000000000000000000000000000000000000100013222358729AMANDA PAULA TORRES DE SOUZA            RUA JOAO VICENTE, 261                   MADUREIRA   21340020RIO DE JANEIRO RJUNIAO UMB DOS CULTOS AFRO BRAS    30061810 000184
10231987175000168916200163100    000015494                    000154940000000000000109                     I0115494     30061800000000035003410000017N070518104700000000000103006180000000000000000000000000000000000000000100009811465703ANDERSON FELIX BERNARDO DA SIL          O MESMO                                 O MESMO     26521410NILOPOLIS      RJUNIAO UMB DOS CULTOS AFRO BRAS    30061810 000185
10231987175000168916200163100    000015493                    000154930000000000000109                     I0115493     30061800000000035003410000017N070518104700000000000103006180000000000000000000000000000000000000000100003319281755GENILSON CAETANO DA SILVA               RUA JACO MELOTI, 46                     CORUMBA - NO26041790NOVA IGUACU    RJUNIAO UMB DOS CULTOS AFRO BRAS    30061810 000186
10231987175000168916200163100    000015492                    000154920000000000000109                     I0115492     30061800000000035003410000017N070518104700000000000103006180000000000000000000000000000000000000000100000092416713LOURDES GONCALVES DA SILVA CAB          RUA GUATEMALA, 467 CASA 1 FRENTE        PENHA CIRCUL21020170RIO DE JANEIRO RJUNIAO UMB DOS CULTOS AFRO BRAS    30061810 000187
10231987175000168916200163100    000015491                    000154910000000000000109                     I0115491     30061800000000035003410000017N070518104700000000000103006180000000000000000000000000000000000000000100000896315797ROSANGELA GONCALVES BONZOUMET           RUA CORREIO DO RIO, 155                 TAQUARA     22715010RIO DE JANEIRO RJUNIAO UMB DOS CULTOS AFRO BRAS    30061810 000188
10231987175000168916200163100    000015490                    000154900000000000000109                     I0115490     30061800000000035003410000017N070518104700000000000103006180000000000000000000000000000000000000000100004168412792SERGIO LUIZ PEREIRA DOS SANTOS          RUA CORONEL JOAO DA SILVA MOREIRA, 54   CAIEIRA VELH27145170RIO DE JANEIRO RJUNIAO UMB DOS CULTOS AFRO BRAS    30061810 000189
10231987175000168916200163100    000015489                    000154890000000000000109                     I0115489     30061800000000035003410000017N070518104700000000000103006180000000000000000000000000000000000000000100074734440778NILMA SANTOS ANDRADE                    RUA AGUIA BRANCA, LOTE 15 QUADRA 68     CAROBINHA   23097630RIO DE JANEIRO RJUNIAO UMB DOS CULTOS AFRO BRAS    30061810 000190
10231987175000168916200163100    000015488                    000154880000000000000109                     I0115488     30061800000000035003410000017N070518104700000000000103006180000000000000000000000000000000000000000100002478890755GRETGHEN LUIZ DE MELO                   RUA MANOEL GAMA, 198 A 1O ANDAR         VILA TIRADEN25525390SAO JOAO DE MERRJUNIAO UMB DOS CULTOS AFRO BRAS    30061810 000191
10231987175000168916200163100    000015487                    000154870000000000000109                     I0115487     30061800000000035003410000017N070518104700000000000103006180000000000000000000000000000000000000000100001447704746MARCOS FAGUNDES MARTINS                 ESTRADA DA PEDRA, 167                   SANTA CRUZ  23520241RIO DE JANEIRO RJUNIAO UMB DOS CULTOS AFRO BRAS    30061810 000192
10231987175000168916200163100    000015486                    000154860000000000000109                     I0115486     30061800000000035003410000017N070518104700000000000103006180000000000000000000000000000000000000000100011376749700ROGERIO CORREIA DA COSTA JUNIO          RUA SANTA CATARINA, 18 JD MARIANA       IMBARIE - DU25271010DUQUE DE CAXIASRJUNIAO UMB DOS CULTOS AFRO BRAS    30061810 000193
10231987175000168916200163100    000015485                    000154850000000000000109                     I0115485     30061800000000035003410000017N070518104700000000000103006180000000000000000000000000000000000000000100077217942772LUIZ CLAUDIO CONCEICAO MAIA             RUA DOUTOR THOUZET, 577 B - FUNDOS      QUITANDINHA 25650061PETROPOLIS     RJUNIAO UMB DOS CULTOS AFRO BRAS    30061810 000194
10231987175000168916200163100    000015484                    000154840000000000000109                     I0115484     30061800000000035003410000017N070518104700000000000103006180000000000000000000000000000000000000000100093476930734LUCIENE TEIXEIRA DE OLIVEIRA            RUA CACHAMBI  34 APTO 407               CACHAMBI   R20775182RIO DE JANEIRO RJUNIAO UMB DOS CULTOS AFRO BRAS    30061810 000195
10231987175000168916200163100    000015483                    000154830000000000000109                     I0115483     30061800000000035003410000017N070518104700000000000103006180000000000000000000000000000000000000000100003367432709KHRYSTIENE COSTA MOTTA                  RUA PINHEIRO CHAGAS, 74                 PARQUE ANCHI21620500RIO DE JANEIRO RJUNIAO UMB DOS CULTOS AFRO BRAS    30061810 000196
10231987175000168916200163100    000015482                    000154820000000000000109                     I0115482     30061800000000035003410000017N070518104700000000000103006180000000000000000000000000000000000000000100010475138708CAMILA ARAUJO DA MOTTA                  RUA SAO BRAZ, 232 APTO 202              TODOS OS SAN20770150RIO DE JANEIRO RJUNIAO UMB DOS CULTOS AFRO BRAS    30061810 000197
10231987175000168916200163100    000015481                    000154810000000000000109                     I0115481     30061800000000035003410000017N070518104700000000000103006180000000000000000000000000000000000000000100001189035782ANDERSON MELLO DE PAULA                 RUA CARATINGA, 15                       HONORIO GURG21511200RIO DE JANEIRO RJUNIAO UMB DOS CULTOS AFRO BRAS    30061810 000198
10231987175000168916200163100    000015480                    000154800000000000000109                     I0115480     30061800000000035003410000017N070518104700000000000103006180000000000000000000000000000000000000000100014324870780ANDREY SANTOS ESTEVES                   RUA GENERAL SEZEFREDO, 7 - REALENGO     REALENGO/RJ 21715060RIO DE JANEIRO RJUNIAO UMB DOS CULTOS AFRO BRAS    30061810 000199
10231987175000168916200163100    000015479                    000154790000000000000109                     I0115479     30061800000000035003410000017N070518104700000000000103006180000000000000000000000000000000000000000100078501946753ELIANA GONCALVES DE SOUZA               RUA  DOUTOR GARNIER, 381                ROCHA - RIO 20975000RIO DE JANEIRO RJUNIAO UMB DOS CULTOS AFRO BRAS    30061810 000200
10231987175000168916200163100    000015478                    000154780000000000000109                     I0115478     30061800000000035003410000017N070518104700000000000103006180000000000000000000000000000000000000000100049498320772LUZIA INACIO BARBOSA                    RUA JOAO ALBERTO, LOTE 2 QUADRA 36      EDEN - SAO J25540060SAO JOAO DE MERRJUNIAO UMB DOS CULTOS AFRO BRAS    30061810 000201
10231987175000168916200163100    000015477                    000154770000000000000109                     I0115477     30061800000000035003410000017N070518104700000000000103006180000000000000000000000000000000000000000100002830222725SHEILA RODRIGUES                        RUA DOS OPERARIOS, 379                  NOVO MUNDO -25900000MAGE           RJUNIAO UMB DOS CULTOS AFRO BRAS    30061810 000202
10231987175000168916200163100    000015476                    000154760000000000000109                     I0115476     30061800000000035003410000017N070518104700000000000103006180000000000000000000000000000000000000000100074593250749ELIZABETH DA SILVA OLIVEIRA             RUA QUINZE, 1303 CASA 2                 TEIXEIRA - I23819230ITAGUAI        RJUNIAO UMB DOS CULTOS AFRO BRAS    30061810 000203
10231987175000168916200163100    000015475                    000154750000000000000109                     I0115475     30061800000000035003410000017N070518104700000000000103006180000000000000000000000000000000000000000100032955761420VRADELEIDE MARIA DOS SANTOS             ESTRADA MARACAJAS, 725 CASA 2 FUNDOS    ILHA DO GOVE21941390RIO DE JANEIRO RJUNIAO UMB DOS CULTOS AFRO BRAS    30061810 000204
10231987175000168916200163100    000015474                    000154740000000000000109                     I0115474     30061800000000035003410000017N070518104700000000000103006180000000000000000000000000000000000000000100002635911746ELINDOMAR JORGE DA COSTA                RUA ITUVERAVA, 108 LOTE 10 QUADRA 1     MONJOLO - SA24724800SAO GONCALO    RJUNIAO UMB DOS CULTOS AFRO BRAS    30061810 000205
10231987175000168916200163100    000015473                    000154730000000000000109                     I0115473     30061800000000035003410000017N070518104700000000000103006180000000000000000000000000000000000000000100073686913704ANTONIO CORDEIRO DA SILVA               RUA ESTRELA DALVA, 2                    ITANHANGA - 22753010RIO DE JANEIRO RJUNIAO UMB DOS CULTOS AFRO BRAS    30061810 000206
10231987175000168916200163100    000015472                    000154720000000000000109                     I0115472     30061800000000035003410000017N070518104700000000000103006180000000000000000000000000000000000000000100011790209790NOILDA SANTIAGO DA SILVA                RUA ADRIANA N 203 FUNDOS                VALVERDE - N26290645NOVA IGUACU    RJUNIAO UMB DOS CULTOS AFRO BRAS    30061810 000207
10231987175000168916200163100    000015471                    000154710000000000000109                     I0115471     30061800000000035003410000017N070518104700000000000103006180000000000000000000000000000000000000000100007804875754EVANDRO MEDEIROS DE OLIVEIRA            RUA 64, LOTE 40 QUADRA 303 CASA 1       JARDIM ATLAN24934045MARICA         RJUNIAO UMB DOS CULTOS AFRO BRAS    30061810 000208
10231987175000168916200163100    000015470                    000154700000000000000109                     I0115470     30061800000000035003410000017N070518104700000000000103006180000000000000000000000000000000000000000100075597543768MARCIA REGINA DE ALMEIDA XAVIE          RUA ZENITAL, LOTE 10 QUADRA E           JARDIM PARAI26297300NOVA IGUACU    RJUNIAO UMB DOS CULTOS AFRO BRAS    30061810 000209
10231987175000168916200163100    000015469                    000154690000000000000109                     I0115469     30061800000000035003410000017N070518104700000000000103006180000000000000000000000000000000000000000200000000011828TANIA MARIA BUENO ALVES                 RUA: CISPLATINA N 24                    IRAJA - RIO 21235070RIO DE JANEIRO RJUNIAO UMB DOS CULTOS AFRO BRAS    30061810 000210
10231987175000168916200163100    000015468                    000154680000000000000109                     I0115468     30061800000000035003410000017N070518104700000000000103006180000000000000000000000000000000000000000100007469084746SILVIO GOMES BARBOSA                    RUA ALCIDES MAIA, 78 CASA 3             BENTO RIBEIR21550560RIO DE JANEIRO RJUNIAO UMB DOS CULTOS AFRO BRAS    30061810 000211
10231987175000168916200163100    000015467                    000154670000000000000109                     I0115467     30061800000000035003410000017N070518104700000000000103006180000000000000000000000000000000000000000100062700090730ZORAIA TOGNARELLI DA CRUZ               RUA CORREA DUTRA, 78 APTO 501           FLAMENGO - R22210050RIO DE JANEIRO RJUNIAO UMB DOS CULTOS AFRO BRAS    30061810 000212
10231987175000168916200163100    000015466                    000154660000000000000109                     I0115466     30061800000000035003410000017N070518104700000000000103006180000000000000000000000000000000000000000100069833850715WALTER LIMA DE AVELLAR                  RUA SAO JOSE, S/N QUADRA 47 LOTE 19     ITAIPUACU - 24900000MARICA         RJUNIAO UMB DOS CULTOS AFRO BRAS    30061810 000213
10231987175000168916200163100    000015465                    000154650000000000000109                     I0115465     30061800000000035003410000017N070518104700000000000103006180000000000000000000000000000000000000000100047783877753RAIMUNDO NONATO VALENCA RIBEIR          AVENIDA PREFEITO BRAULINO DE MATOS REIS,COPACABANA -25060440DUQUE DE CAXIASRJUNIAO UMB DOS CULTOS AFRO BRAS    30061810 000214
10231987175000168916200163100    000015464                    000154640000000000000109                     I0115464     30061800000000035003410000017N070518104700000000000103006180000000000000000000000000000000000000000100068648006791SANDRA MARTA GOMES DA COSTA             RUA LAGUNA, 678                         VILAR NOVO -26115620BELFORD ROXO   RJUNIAO UMB DOS CULTOS AFRO BRAS    30061810 000215
10231987175000168916200163100    000015463                    000154630000000000000109                     I0115463     30061800000000035003410000017N070518104700000000000103006180000000000000000000000000000000000000000100007279623700RODRIGO AYRES                           RUA CARIJOS N 23 CASA 1                 MEIER - RIO 20720360RIO DE JANEIRO RJUNIAO UMB DOS CULTOS AFRO BRAS    30061810 000216
10231987175000168916200163100    000015462                    000154620000000000000109                     I0115462     30061800000000035003410000017N070518104700000000000103006180000000000000000000000000000000000000000100011036139794CARLA COUTO DE SOUZA                    RUA C N 150                             AMAPA - DUQU25235265DUQUE DE CAXIASRJUNIAO UMB DOS CULTOS AFRO BRAS    30061810 000217
10231987175000168916200163100    000015461                    000154610000000000000109                     I0115461     30061800000000035003410000017N070518104700000000000103006180000000000000000000000000000000000000000100001199518786ADRIANA DE OLIVEIRA COUTO               RUA ITALIA LOTE 9 QUADRA 70             CACHOEIRINHA25916256PIABETA - MAGE RJUNIAO UMB DOS CULTOS AFRO BRAS    30061810 000218
10231987175000168916200163100    000015460                    000154600000000000000109                     I0115460     30061800000000035003410000017N070518104700000000000103006180000000000000000000000000000000000000000100008133276799AROLDO VAZ DE COSTA                     AVENIDA SAO JOAO DE MERITI LOTE 3 QUADRAJARDIM METRO25571161SAO JOAO DE MERRJUNIAO UMB DOS CULTOS AFRO BRAS    30061810 000219
10231987175000168916200163100    000015459                    000154590000000000000109                     I0115459     30061800000000035003410000017N070518104700000000000103006180000000000000000000000000000000000000000100003601608758NILDA MAURA RODRIGUES DE JESUS          RUA ARI VILAR, SERVIDAO 1 CASA 17       COSTA BARROS21520860RIO DE JANEIRO RJUNIAO UMB DOS CULTOS AFRO BRAS    30061810 000220
10231987175000168916200163100    000015458                    000154580000000000000109                     I0115458     30061800000000035003410000017N070518104700000000000103006180000000000000000000000000000000000000000100080756832772LUIS CLAUDIO BARCELOS                   RUA CARLOS TINOCO  CAMINHO DA BICA  376 BARRA DE GUA23020280RIO DE JANEIRO RJUNIAO UMB DOS CULTOS AFRO BRAS    30061810 000221
10231987175000168916200163100    000015457                    000154570000000000000109                     I0115457     30061800000000035003410000017N070518104700000000000103006180000000000000000000000000000000000000000100002926668708ALCIONE CARVALHO DA COSTA               RUA: SAMPAIO CORREA Nº 113 CASA 7      JACAREPAGUA 22713560RIO DE JANEIRO RJUNIAO UMB DOS CULTOS AFRO BRAS    30061810 000222
10231987175000168916200163100    000015456                    000154560000000000000109                     I0115456     30061800000000035003410000017N070518104700000000000103006180000000000000000000000000000000000000000100008560350764EMANUELE DE FARIA CARVALHO DOS          RUA FLORESTA DO SUL, 33                 GUARATIBA - 23028512RIO DE JANEIRO RJUNIAO UMB DOS CULTOS AFRO BRAS    30061810 000223
10231987175000168916200163100    000015455                    000154550000000000000109                     I0115455     30061800000000035003410000017N070518104700000000000103006180000000000000000000000000000000000000000100002402869798LEONARDO BEZERRA XAVIER                 RUA GODOFREDO SILVA, 121                PENHA CIRCUL21221020RIO DE JANEIRO RJUNIAO UMB DOS CULTOS AFRO BRAS    30061810 000224
10231987175000168916200163100    000015454                    000154540000000000000109                     I0115454     30061800000000035003410000017N070518104700000000000103006180000000000000000000000000000000000000000100093546602749JANE FERNANDES DAS CHAGAS HENR          ESTRADA DO PRE, 54 FUNDOS               SENADOR VASC23013550RIO DE JANEIRO RJUNIAO UMB DOS CULTOS AFRO BRAS    30061810 000225
10231987175000168916200163100    000015453                    000154530000000000000109                     I0115453     30061800000000035003410000017N070518104700000000000103006180000000000000000000000000000000000000000100039561607549MARIA NEUZA RODRIGUES                   RUA PEDRAS PRECIOSAS, 81 - MONTE SINAI  PACIENCIA - 23587610RIO DE JANEIRO RJUNIAO UMB DOS CULTOS AFRO BRAS    30061810 000226
10231987175000168916200163100    000015452                    000154520000000000000109                     I0115452     30061800000000035003410000017N070518104700000000000103006180000000000000000000000000000000000000000100043385184720CELINA MONTEIRO DE OLIVEIRA             TRAVESSA ANTONIO GONCALVES, 18          CUBANGO - NI24240396NITEROI        RJUNIAO UMB DOS CULTOS AFRO BRAS    30061810 000227
10231987175000168916200163100    000015451                    000154510000000000000109                     I0115451     30061800000000035003410000017N070518104700000000000103006180000000000000000000000000000000000000000100060158751787CARLOS ALEXANDRE PEREIRA E SOU          RUA BEMPOSTA, S/N CASA 2 LOTE 67 - TAQUABOIUNA - JAC22723320RIO DE JANEIRO RJUNIAO UMB DOS CULTOS AFRO BRAS    30061810 000228
10231987175000168916200163100    000015450                    000154500000000000000109                     I0115450     30061800000000035003410000017N070518104700000000000103006180000000000000000000000000000000000000000100014092645724LEITICIA BARBOSA DA SILVA               O MESMO                                 O MESMO     26089000NOVA IGUACU    RJUNIAO UMB DOS CULTOS AFRO BRAS    30061810 000229
10231987175000168916200163100    000015449                    000154490000000000000109                     I0115449     30061800000000035003410000017N070518104700000000000103006180000000000000000000000000000000000000000100014213950700AYSLAN BARBOSA GUEDES                   RUA MAJOR MARIO SALGUEIRO, 608 CASA 1   BELVEDERE -B27113070BARRA DO PIRAI RJUNIAO UMB DOS CULTOS AFRO BRAS    30061810 000230
10231987175000168916200163100    000015448                    000154480000000000000109                     I0115448     30061800000000035003410000017N070518104700000000000103006180000000000000000000000000000000000000000100011273431731DANIELE DO NASCIMENTO CRUZ              O MESMO                                 O MESMO     26080039NOVA IGUACU    RJUNIAO UMB DOS CULTOS AFRO BRAS    30061810 000231
10231987175000168916200163100    000015447                    000154470000000000000109                     I0115447     30061800000000035003410000017N070518104700000000000103006180000000000000000000000000000000000000000100066320577720RICARDO DE CASSIO TEIXEIRA DIA          RUA PORTO SEGURO,  LOTE 7 QUADRA 99     DOUTOR LAURE25051080DUQUE DE CAXIASRJUNIAO UMB DOS CULTOS AFRO BRAS    30061810 000232
10231987175000168916200163100    000015446                    000154460000000000000109                     I0115446     30061800000000035003410000017N070518104700000000000103006180000000000000000000000000000000000000000100063164256787ALICE FRANCISCO LOPES                   RUA JORNALISTA PINHEIRO LEMOS, 296      COSTA BARROS21650200RIO DE JANEIRO RJUNIAO UMB DOS CULTOS AFRO BRAS    30061810 000233
10231987175000168916200163100    000015445                    000154450000000000000109                     I0115445     30061800000000035003410000017N070518104700000000000103006180000000000000000000000000000000000000000100002533273775GLAUCE MAGALHAES JARDELINO              RUA JABORANDI, 171 FUNDOS               VILA COSMO -21220220RIO DE JANEIRO RJUNIAO UMB DOS CULTOS AFRO BRAS    30061810 000234
10231987175000168916200163100    000015444                    000154440000000000000109                     I0115444     30061800000000035003410000017N070518104700000000000103006180000000000000000000000000000000000000000100000292323760MAURICIO MANTELLI                       AVENIDA GETULIO VARGAS 2589             CENTRO - NIL26525012NILOPOLIS      RJUNIAO UMB DOS CULTOS AFRO BRAS    30061810 000235
10231987175000168916200163100    000015443                    000154430000000000000109                     I0115443     30061800000000035003410000017N070518104700000000000103006180000000000000000000000000000000000000000100005755429779ALEX CIPRIANO CARVALHO BARRETO          RUA CARLOS CHAMBELLAND, 300 APTO 101    VILA DA PENH21210090RIO DE JANEIRO RJUNIAO UMB DOS CULTOS AFRO BRAS    30061810 000236
10231987175000168916200163100    000015442                    000154420000000000000109                     I0115442     30061800000000035003410000017N070518104700000000000103006180000000000000000000000000000000000000000100094443211772SANDRA LEILA ANACLETO SIQUEIRA          RUA RAUL VEIGA, 315                     QUITANDINHA 25635110PETROPOLIS     RJUNIAO UMB DOS CULTOS AFRO BRAS    30061810 000237
10231987175000168916200163100    000015441                    000154410000000000000109                     I0115441     30061800000000035003410000017N070518104700000000000103006180000000000000000000000000000000000000000100048366030725SILVIA REGINA DE SOUZA CASTILH          RUA SOLDADO FILISBINO DOS SANTOS, 278   PALMARES - P23066000RIO DE JANEIRO RJUNIAO UMB DOS CULTOS AFRO BRAS    30061810 000238
10231987175000168916200163100    000015440                    000154400000000000000109                     I0115440     30061800000000035003410000017N070518104700000000000103006180000000000000000000000000000000000000000100016049548765ARTHUR DA SILVA AVELLAR GOMES           RUA CLAUDINO BARATA, 143 CASA 3         REALENGO - R21770200RIO DE JANEIRO RJUNIAO UMB DOS CULTOS AFRO BRAS    30061810 000239
10231987175000168916200163100    000015439                    000154390000000000000109                     I0115439     30061800000000035003410000017N070518104700000000000103006180000000000000000000000000000000000000000100005241615776SIMONE ALICE CACCAVO GRIBEL             RUA VENEZA, 142                         PRAIA DE MAU25900000MAGE           RJUNIAO UMB DOS CULTOS AFRO BRAS    30061810 000240
10231987175000168916200163100    000015438                    000154380000000000000109                     I0115438     30061800000000035003410000017N070518104700000000000103006180000000000000000000000000000000000000000100051562430700EMILIA SANTANA MORAIS                   RUA JORNALISTA MOACIR PADILHA, 276 FUNDOCENTRO - NIT24020350NITEROI        RJUNIAO UMB DOS CULTOS AFRO BRAS    30061810 000241
10231987175000168916200163100    000015437                    000154370000000000000109                     I0115437     30061800000000035003410000017N070518104700000000000103006180000000000000000000000000000000000000000100031709294749ELIETE DE OLIVEIRA FONSECA              ESTRADA DO MAGARCA, 1137 FUNDOS         GUARATIBA - 23035380RIO DE JANEIRO RJUNIAO UMB DOS CULTOS AFRO BRAS    30061810 000242
10231987175000168916200163100    000015436                    000154360000000000000109                     I0115436     30061800000000035003410000017N070518104700000000000103006180000000000000000000000000000000000000000100094639779704SERGIO ANTONIO CARDOSO LOPES            TRAVESSA DA AMIZADE, 142 APTO 501       VILA DA PENH21221370RIO DE JANEIRO RJUNIAO UMB DOS CULTOS AFRO BRAS    30061810 000243
10231987175000168916200163100    000015435                    000154350000000000000109                     I0115435     30061800000000035003410000017N070518104700000000000103006180000000000000000000000000000000000000000100087318822772REGINA CLIMAS DE ABREU                  RUA JOAO MARTINS DE BARROS, LOTE 25 QUADBATAILLARD -25675150PETROPOLIS     RJUNIAO UMB DOS CULTOS AFRO BRAS    30061810 000244
10231987175000168916200163100    000015434                    000154340000000000000109                     I0115434     30061800000000035003410000017N070518104700000000000103006180000000000000000000000000000000000000000100023061928715NICEAS FERREIRA BRITO FILHO             RUA ALBINO PAIVA, 486                   SENADOR CAMA21830490RIO DE JANEIRO RJUNIAO UMB DOS CULTOS AFRO BRAS    30061810 000245
10231987175000168916200163100    000015433                    000154330000000000000109                     I0115433     30061800000000035003410000017N070518104700000000000103006180000000000000000000000000000000000000000100011519708750GERALDINA DA SILVA MENDONCA             AV. ALBERTINO LADEIRA, 63               ENGENHEIRO R26041510NOVA IGUACU    RJUNIAO UMB DOS CULTOS AFRO BRAS    30061810 000246
10231987175000168916200163100    000015432                    000154320000000000000109                     I0115432     30061800000000035003410000017N070518104700000000000103006180000000000000000000000000000000000000000100098129074753EVANILDO PEDRO DA SILVA FILHO           RUA MANOEL GREGORIO, SN CASA 7 QUADRO B SANTISSIMO -21853050RIO DE JANEIRO RJUNIAO UMB DOS CULTOS AFRO BRAS    30061810 000247
10231987175000168916200163100    000015431                    000154310000000000000109                     I0115431     30061800000000035003410000017N070518104700000000000103006180000000000000000000000000000000000000000100070154732753SOLANGE GONCALVES DA SILVA              RUA VINTE E OITO, SN LOTE 727           MURIQUI - MA23860000MANGARATIBA    RJUNIAO UMB DOS CULTOS AFRO BRAS    30061810 000248
10231987175000168916200163100    000015430                    000154300000000000000109                     I0115430     30061800000000035003410000017N070518104700000000000103006180000000000000000000000000000000000000000100009805565700THIAGO DOS SANTOS FLOR DA SILV          RUA JOAO LUSO, 423                      REALENGO-RJ 21765620RIO DE JANEIRO RJUNIAO UMB DOS CULTOS AFRO BRAS    30061810 000249
