01REMESSA01COBRANCA       817800093673        União Umb dos Cultos Afro Bra341BANCO ITAU SA  020418                                                                                                                                                                                                                                                                                                      000001
10231987175000168817800093673    00001435                     000014350000000000000109                     I021435      20121700000000210003410000017N251017104700000000000102012170000000000000000000000000000000000000000100003032482704ADELAIDE ALVES DE OLIVEIRA MIR          RUA CORDEIRO N 36                       VILAR DOS TE21556106RIO DE JANEIRO RJUNIAO UMB DOS CULTOS AFRO BRAS    20121710 000002
9                                                                                                                                                                                                                                                                                                                                                                                                         000003
