01REMESSA01COBRANCA       916200163100        União Umb dos Cultos Afro Bra341BANCO ITAU SA  180419                                                                                                                                                                                                                                                                                                      000001
10231987175000168916200163100    000045087                    000450870000000000000109                     I0145087     28061900000000040003410000017N180419105700000000000102806190000000000000000000000000000000000000000100005305498759ANTONIO INACIO REIS DE SOUSA            RUA EMILIA DOS SANTOSN 0, LOTE 1 QUADRA CAMPO LINDO 23898060SEROPEDICA     RJUNIAO UMB DOS CULTOS AFRO BRAS    28061915 000002
10231987175000168916200163100    000045086                    000450860000000000000109                     I0145086     31051900000000040003410000017N180419105700000000000103105190000000000000000000000000000000000000000100005305498759ANTONIO INACIO REIS DE SOUSA            RUA EMILIA DOS SANTOSN 0, LOTE 1 QUADRA CAMPO LINDO 23898060SEROPEDICA     RJUNIAO UMB DOS CULTOS AFRO BRAS    31051915 000003
10231987175000168916200163100    000045085                    000450850000000000000109                     I0145085     30041900000000040003410000017N180419105700000000000103004190000000000000000000000000000000000000000100005305498759ANTONIO INACIO REIS DE SOUSA            RUA EMILIA DOS SANTOSN 0, LOTE 1 QUADRA CAMPO LINDO 23898060SEROPEDICA     RJUNIAO UMB DOS CULTOS AFRO BRAS    30041915 000004
10231987175000168916200163100    000045084                    000450840000000000000109                     I0145084     30041900000000040003410000017N180419105700000000000103004190000000000000000000000000000000000000000100009605715740SONIA LUCIA DOS SANTOS                  RUA A, AVENIDA MINISTRO AMARAL PEIXOTON SIDERLANDIA 27350470BARRA MANSA    RJUNIAO UMB DOS CULTOS AFRO BRAS    30041915 000005
10231987175000168916200163100    000044523                    000445230000000000000109                     I0244523     30061900000000040003410000017N130319105700000000000103006190000000000000000000000000000000000000000100025812114749JAIR FERREIRA FILHO                     RUA ENGENHEIRO PINHO DE MAGALHAES N 70, VILA DA PENH21220410RIO DE JANEIRO RJUNIAO UMB DOS CULTOS AFRO BRAS    30061915 000006
10231987175000168916200163100    000043240                    000432400000000000000109                     I0243240     30061900000000040003410000017N130319105700000000000103006190000000000000000000000000000000000000000100089190335791ELIZABETH MACHADO MARINS                RUA SAO MARCIANON 59,                   PRACA SECA  21321260RIO DE JANEIRO RJUNIAO UMB DOS CULTOS AFRO BRAS    30061915 000007
10231987175000168916200163100    000042871                    000428710000000000000109                     I0242871     30051900000000040003410000017N130319105700000000000103005190000000000000000000000000000000000000000100025812114749JAIR FERREIRA FILHO                     RUA ENGENHEIRO PINHO DE MAGALHAES N 70, VILA DA PENH21220410RIO DE JANEIRO RJUNIAO UMB DOS CULTOS AFRO BRAS    30051915 000008
10231987175000168916200163100    000041413                    000414130000000000000109                     I0241413     30041900000000040003410000017N120319105700000000000103004190000000000000000000000000000000000000000100001359669736JUCILENE DOS SANTOS GALVAO              RUA ALICE FREITAS N 355, FUNDOS         VICENTE DE C21371220RIO DE JANEIRO RJUNIAO UMB DOS CULTOS AFRO BRAS    30041915 000009
10231987175000168916200163100    000041230                    000412300000000000000109                     I0241230     30041900000000040003410000017N120319105700000000000103004190000000000000000000000000000000000000000100025812114749JAIR FERREIRA FILHO                     RUA ENGENHEIRO PINHO DE MAGALHAES N 70, VILA DA PENH21220410RIO DE JANEIRO RJUNIAO UMB DOS CULTOS AFRO BRAS    30041915 000010
10231987175000168916200163100    000040539                    000405390000000000000109                     I0240539     30041900000000040003410000017N120319105700000000000103004190000000000000000000000000000000000000000100002203157798CARLOS EDUARDO MOREIRA BENTO            RUA WENCESLAU BRASN 0, LOTE 24 QUADRA 27IMBARIE     25275160DUQUE DE CAXIASRJUNIAO UMB DOS CULTOS AFRO BRAS    30041915 000011
10231987175000168916200163100    000039968                    000399680000000000000109                     I0239968     30041900000000040003410000017N120319105700000000000103004190000000000000000000000000000000000000000100089190335791ELIZABETH MACHADO MARINS                RUA SAO MARCIANON 59,                   PRACA SECA  21321260RIO DE JANEIRO RJUNIAO UMB DOS CULTOS AFRO BRAS    30041915 000012
10231987175000168916200163100    000039851                    000398510000000000000109                     I0239851     29031900000000040003410000017N260219105700000000000102903190000000000000000000000000000000000000000100002203157798CARLOS EDUARDO MOREIRA BENTO            RUA WENCESLAU BRASN 0, LOTE 24 QUADRA 27IMBARIE     25275160DUQUE DE CAXIASRJUNIAO UMB DOS CULTOS AFRO BRAS    29031915 000013
10231987175000168916200163100    000039850                    000398500000000000000109                     I0239850     01031900000000040003410000017N260219105700000000000100103190000000000000000000000000000000000000000100002203157798CARLOS EDUARDO MOREIRA BENTO            RUA WENCESLAU BRASN 0, LOTE 24 QUADRA 27IMBARIE     25275160DUQUE DE CAXIASRJUNIAO UMB DOS CULTOS AFRO BRAS    01031915 000014
9                                                                                                                                                                                                                                                                                                                                                                                                         000015
