01REMESSA01COBRANCA       817800093673        União Umb dos Cultos Afro Bra341BANCO ITAU SA  150719                                                                                                                                                                                                                                                                                                      000001
10231987175000168817800093673    000049599                    000495990000000000000109                     I0249599     30091900000000040003410000017N100619105700000000000133009190000000000000000000000000000000000000000100009699441798LIDIANE DE ASSUNCAO VELOSO RAN          RUA SILVA PINTON 88, APARTAMENTO 502    VILA ISABEL 20551190RIO DE JANEIRO RJUNIAO UMB DOS CULTOS AFRO BRAS    30091915 000002
21300920190000000000080                                                                                                                                                                                                                                                                                                                                                                                   000003
10231987175000168817800093673    000048977                    000489770000000000000109                     I0248977     30091900000000040003410000017N100619105700000000000133009190000000000000000000000000000000000000000100007980690745JOSE ALFREDO BARDASSON MARQUES          TRAVESSA JOAO ROCHAN 0, CASA 1          CENTRO (PORT24830072ITABORAI       RJUNIAO UMB DOS CULTOS AFRO BRAS    30091915 000004
21300920190000000000080                                                                                                                                                                                                                                                                                                                                                                                   000005
10231987175000168817800093673    000048746                    000487460000000000000109                     I0248746     30091900000000040003410000017N100619105700000000000133009190000000000000000000000000000000000000000100096270500753REINALDO MONTEIRO                       RUA PEREIRA DE FIGUEIREDON 588, APT 201 OSWALDO CRUZ21341030RIO DE JANEIRO RJUNIAO UMB DOS CULTOS AFRO BRAS    30091915 000006
21300920190000000000080                                                                                                                                                                                                                                                                                                                                                                                   000007
10231987175000168817800093673    000048674                    000486740000000000000109                     I0248674     30091900000000040003410000017N100619105700000000000133009190000000000000000000000000000000000000000100074726005715SOLANGE DA SILVA ARAUJO                 AVENIDA MONSENHOR FELIXN 1059, BLOCO 80 IRAJA       21235113RIO DE JANEIRO RJUNIAO UMB DOS CULTOS AFRO BRAS    30091915 000008
21300920190000000000080                                                                                                                                                                                                                                                                                                                                                                                   000009
10231987175000168817800093673    000048152                    000481520000000000000109                     I0248152     30081900000000040003410000017N100619105700000000000133008190000000000000000000000000000000000000000100009699441798LIDIANE DE ASSUNCAO VELOSO RAN          RUA SILVA PINTON 88, APARTAMENTO 502    VILA ISABEL 20551190RIO DE JANEIRO RJUNIAO UMB DOS CULTOS AFRO BRAS    30081915 000010
21300820190000000000080                                                                                                                                                                                                                                                                                                                                                                                   000011
10231987175000168817800093673    000047538                    000475380000000000000109                     I0247538     30081900000000040003410000017N100619105700000000000133008190000000000000000000000000000000000000000100007980690745JOSE ALFREDO BARDASSON MARQUES          TRAVESSA JOAO ROCHAN 0, CASA 1          CENTRO (PORT24830072ITABORAI       RJUNIAO UMB DOS CULTOS AFRO BRAS    30081915 000012
21300820190000000000080                                                                                                                                                                                                                                                                                                                                                                                   000013
10231987175000168817800093673    000047414                    000474140000000000000109                     I0247414     30081900000000040003410000017N100619105700000000000133008190000000000000000000000000000000000000000100048357480772MARIA DE FATIMA FRANCO DE LIMA          RUA DONA CORINAN 285,                   VILA CARVALH25935718MAGE           RJUNIAO UMB DOS CULTOS AFRO BRAS    30081915 000014
21300820190000000000080                                                                                                                                                                                                                                                                                                                                                                                   000015
10231987175000168817800093673    000047307                    000473070000000000000109                     I0247307     30081900000000040003410000017N100619105700000000000133008190000000000000000000000000000000000000000100096270500753REINALDO MONTEIRO                       RUA PEREIRA DE FIGUEIREDON 588, APT 201 OSWALDO CRUZ21341030RIO DE JANEIRO RJUNIAO UMB DOS CULTOS AFRO BRAS    30081915 000016
21300820190000000000080                                                                                                                                                                                                                                                                                                                                                                                   000017
10231987175000168817800093673    000047237                    000472370000000000000109                     I0247237     30081900000000040003410000017N100619105700000000000133008190000000000000000000000000000000000000000100074726005715SOLANGE DA SILVA ARAUJO                 AVENIDA MONSENHOR FELIXN 1059, BLOCO 80 IRAJA       21235113RIO DE JANEIRO RJUNIAO UMB DOS CULTOS AFRO BRAS    30081915 000018
21300820190000000000080                                                                                                                                                                                                                                                                                                                                                                                   000019
10231987175000168817800093673    000046717                    000467170000000000000109                     I0246717     30071900000000040003410000017N100619105700000000000133007190000000000000000000000000000000000000000100009699441798LIDIANE DE ASSUNCAO VELOSO RAN          RUA SILVA PINTON 88, APARTAMENTO 502    VILA ISABEL 20551190RIO DE JANEIRO RJUNIAO UMB DOS CULTOS AFRO BRAS    30071915 000020
21300720190000000000080                                                                                                                                                                                                                                                                                                                                                                                   000021
10231987175000168817800093673    000046408                    000464080000000000000109                     I0246408     30071900000000040003410000017N100619105700000000000133007190000000000000000000000000000000000000000100088640809704JULIO CESAR SARAIVA PIRES               ESTRADA SANTA MAURA N 103,              CURICICA - J22780170RIO DE JANEIRO RJUNIAO UMB DOS CULTOS AFRO BRAS    30071915 000022
21300720190000000000080                                                                                                                                                                                                                                                                                                                                                                                   000023
10231987175000168817800093673    000046109                    000461090000000000000109                     I0246109     30071900000000040003410000017N100619105700000000000133007190000000000000000000000000000000000000000100007980690745JOSE ALFREDO BARDASSON MARQUES          TRAVESSA JOAO ROCHAN 0, CASA 1          CENTRO (PORT24830072ITABORAI       RJUNIAO UMB DOS CULTOS AFRO BRAS    30071915 000024
21300720190000000000080                                                                                                                                                                                                                                                                                                                                                                                   000025
10231987175000168817800093673    000045985                    000459850000000000000109                     I0245985     30071900000000040003410000017N100619105700000000000133007190000000000000000000000000000000000000000100048357480772MARIA DE FATIMA FRANCO DE LIMA          RUA DONA CORINAN 285,                   VILA CARVALH25935718MAGE           RJUNIAO UMB DOS CULTOS AFRO BRAS    30071915 000026
21300720190000000000080                                                                                                                                                                                                                                                                                                                                                                                   000027
10231987175000168817800093673    000045881                    000458810000000000000109                     I0245881     30071900000000040003410000017N100619105700000000000133007190000000000000000000000000000000000000000100096270500753REINALDO MONTEIRO                       RUA PEREIRA DE FIGUEIREDON 588, APT 201 OSWALDO CRUZ21341030RIO DE JANEIRO RJUNIAO UMB DOS CULTOS AFRO BRAS    30071915 000028
21300720190000000000080                                                                                                                                                                                                                                                                                                                                                                                   000029
10231987175000168817800093673    000045826                    000458260000000000000109                     I0245826     30071900000000040003410000017N100619105700000000000133007190000000000000000000000000000000000000000231678433000124CENTRO ESPIRITA JUSTICA E AMOR          RUA: IGUABA GRANDEN 78, BLOCO 6 APT 1206PAVUNA      21655340RIO DE JANEIRO RJUNIAO UMB DOS CULTOS AFRO BRAS    30071915 000030
21300720190000000000080                                                                                                                                                                                                                                                                                                                                                                                   000031
10231987175000168817800093673    000045812                    000458120000000000000109                     I0245812     30071900000000040003410000017N100619105700000000000133007190000000000000000000000000000000000000000100074726005715SOLANGE DA SILVA ARAUJO                 AVENIDA MONSENHOR FELIXN 1059, BLOCO 80 IRAJA       21235113RIO DE JANEIRO RJUNIAO UMB DOS CULTOS AFRO BRAS    30071915 000032
21300720190000000000080                                                                                                                                                                                                                                                                                                                                                                                   000033
10231987175000168817800093673    000044819                    000448190000000000000109                     I0244819     30061900000000040003410000017N140319105700000000000133006190000000000000000000000000000000000000000100009699441798LIDIANE DE ASSUNCAO VELOSO RAN          RUA SILVA PINTON 88, APARTAMENTO 502    VILA ISABEL 20551190RIO DE JANEIRO RJUNIAO UMB DOS CULTOS AFRO BRAS    30061915 000034
21300620190000000000080                                                                                                                                                                                                                                                                                                                                                                                   000035
9                                                                                                                                                                                                                                                                                                                                                                                                         000036
