01REMESSA01COBRANCA       817800093673        União Umb dos Cultos Afro Bra341BANCO ITAU SA  090118                                                                                                                                                                                                                                                                                                      000001
10231987175000168817800093673    00005753                     000057530000000000000109                     I015753      31011800000000035003410000017N261217050900000000000103101180000000000000000000000000000000000000000100000137585780ARLINDA CAMILO DOS SANTOS               RUA MANOEL PAULO DE FARIA, 435 ANTIGA RUFRAGOSO - MA25935298MAGE           RJUNIAO UMB DOS CULTOS AFRO BRAS    31011810 000002
10231987175000168817800093673    00005752                     000057520000000000000109                     I015752      31011800000000035003410000017N261217050900000000000103101180000000000000000000000000000000000000000100076092712768MARIA DA GLORIA DA SILVA                RUA P, LOTE 40 QUADRA 20                FRAGOSO - MA25935000MAGE           RJUNIAO UMB DOS CULTOS AFRO BRAS    31011810 000003
10231987175000168817800093673    00005751                     000057510000000000000109                     I015751      31011800000000035003410000017N261217050900000000000103101180000000000000000000000000000000000000000100001582280738NATALICIA LOPES PEREIRA                 ALAMEDA JORGINHO, 36 LOTE 11 QUADRA 24  FRAGOSO - MA29000000MAGE           RJUNIAO UMB DOS CULTOS AFRO BRAS    31011810 000004
10231987175000168817800093673    00005750                     000057500000000000000109                     I015750      31011800000000035003410000017N261217050900000000000103101180000000000000000000000000000000000000000100008888032738FATIMA SOARES CARNEIRO                  RUA ANTONIO JOAO MENDONCA, 1466         CENTRO - NIL26515592NILOPOLIS      RJUNIAO UMB DOS CULTOS AFRO BRAS    31011810 000005
10231987175000168817800093673    00005749                     000057490000000000000109                     I015749      31011800000000035003410000017N261217050900000000000103101180000000000000000000000000000000000000000100063579588753EDSON DOS SANTOS ROSA                   RUA VENANCIO ADRES, 1669 - CASA 1       GRAMACHO - D25036170DUQUE DE CAXIASRJUNIAO UMB DOS CULTOS AFRO BRAS    31011810 000006
10231987175000168817800093673    00005748                     000057480000000000000109                     I015748      31011800000000035003410000017N261217050900000000000103101180000000000000000000000000000000000000000100080962190730NILCE TAVARES DA SILVA                  ESTRADA DO ZEPELIN, 16 -  RUA 9         SANTA CRUZ -23555220RIO DE JANEIRO RJUNIAO UMB DOS CULTOS AFRO BRAS    31011810 000007
10231987175000168817800093673    00005747                     000057470000000000000109                     I015747      31011800000000035003410000017N261217050900000000000103101180000000000000000000000000000000000000000100004163698981LEANDRO VIEIRA DOS SANTOS               RUA DIAS DA CRUZ, 50                    JARDIM MERIT25555280RIO DE JANEIRO RJUNIAO UMB DOS CULTOS AFRO BRAS    31011810 000008
10231987175000168817800093673    00005746                     000057460000000000000109                     I015746      31011800000000035003410000017N261217050900000000000103101180000000000000000000000000000000000000000100010503933767THIAGO MARQUES DE CARVALHO              TRAVESSA DA SERVIDAO, 17                CAMPO GRANDE23017405RIO DE JANEIRO RJUNIAO UMB DOS CULTOS AFRO BRAS    31011810 000009
10231987175000168817800093673    00005745                     000057450000000000000109                     I015745      31011800000000035003410000017N261217050900000000000103101180000000000000000000000000000000000000000100072962771734MARCIA CARNAVAL                         RUA AJAPI, 580 CASA 2                   COSMOS - RIO23066420RIO DE JANEIRO RJUNIAO UMB DOS CULTOS AFRO BRAS    31011810 000010
10231987175000168817800093673    00005744                     000057440000000000000109                     I015744      31011800000000035003410000017N261217050900000000000103101180000000000000000000000000000000000000000100084287228720JOSE CARLOS GUEDES DA SILVA             RUA JOSE DE OLIVEIRA, 70                NOVA SEPETIB23530086RIO DE JANEIRO RJUNIAO UMB DOS CULTOS AFRO BRAS    31011810 000011
10231987175000168817800093673    00005743                     000057430000000000000109                     I015743      31011800000000035003410000017N261217050900000000000103101180000000000000000000000000000000000000000100000449685748OLGA SODRE DE CASTRO E PALMIRA          PRACA JOAO PONTES, 10                   SANTA TEREZI26554420MESQUITA       RJUNIAO UMB DOS CULTOS AFRO BRAS    31011810 000012
10231987175000168817800093673    00005742                     000057420000000000000109                     I015742      31011800000000035003410000017N261217050900000000000103101180000000000000000000000000000000000000000100068661533791CARLOS RENNAN CORREIA BORGES            RUA AMERICA DOURADA, LOTE 8 QUADRA 34   CAMPO GRANDE23088240RIO DE JANEIRO RJUNIAO UMB DOS CULTOS AFRO BRAS    31011810 000013
10231987175000168817800093673    00005741                     000057410000000000000109                     I015741      31011800000000035003410000017N261217050900000000000103101180000000000000000000000000000000000000000100093461755753MARCIA SILVA DE ABREU                   AVENIDA DO CATEQUISTA, 43 - BANGU       BANGU - RJ  21842130RIO DE JANEIRO RJUNIAO UMB DOS CULTOS AFRO BRAS    31011810 000014
10231987175000168817800093673    00005740                     000057400000000000000109                     I015740      31011800000000035003410000017N261217050900000000000103101180000000000000000000000000000000000000000100011066424730CARMEZIA GOMES MORAIS DOS SANT          RUA ALBERTO AUGUSTO, 713 - FIGUEIRA     MAGE - RJ   25927890RIO DE JANEIRO RJUNIAO UMB DOS CULTOS AFRO BRAS    31011810 000015
10231987175000168817800093673    00005738                     000057380000000000000109                     I015738      31011800000000035003410000017N261217050900000000000103101180000000000000000000000000000000000000000100040883612704JOAO ROBERTO ROJA SIMOES                RUA QUITO, 384                          PENHA - RIO 21020330RIO DE JANEIRO RJUNIAO UMB DOS CULTOS AFRO BRAS    31011810 000016
10231987175000168817800093673    00005737                     000057370000000000000109                     I015737      31011800000000035003410000017N261217050900000000000103101180000000000000000000000000000000000000000100009556812784AROLDO ADRIANO DE OLIVEIRA              RUA IBITU, 127 FUNDOS                   REALENGO - R21765510RIO DE JANEIRO RJUNIAO UMB DOS CULTOS AFRO BRAS    31011810 000017
10231987175000168817800093673    00005736                     000057360000000000000109                     I015736      31011800000000035003410000017N261217050900000000000103101180000000000000000000000000000000000000000100040262146720ARABELA SILVA CAMPOS DOS REIS           RUA DUARTE TEIXEIRA, 349 CASA 4         QUINTINO BOC21311330RIO DE JANEIRO RJUNIAO UMB DOS CULTOS AFRO BRAS    31011810 000018
10231987175000168817800093673    00005735                     000057350000000000000109                     I015735      31011800000000035003410000017N261217050900000000000103101180000000000000000000000000000000000000000100009079674770FERNANDA DOS SANTOS SILVA               TRAVESSA IPACARAI, 70 CASA 5            COLUBANDE - 24451290SAO GONCALO    RJUNIAO UMB DOS CULTOS AFRO BRAS    31011810 000019
10231987175000168817800093673    00005734                     000057340000000000000109                     I015734      31011800000000035003410000017N261217050900000000000103101180000000000000000000000000000000000000000100007822585738IZANIRA COSTA                           RUA DOUTOR LUIS SOBRAL, 301             TOMAZINHO - 25525520SAO JOAO DE MERRJUNIAO UMB DOS CULTOS AFRO BRAS    31011810 000020
10231987175000168817800093673    00005733                     000057330000000000000109                     I015733      31011800000000035003410000017N261217050900000000000103101180000000000000000000000000000000000000000100081051026868ANA LUCIA PEREIRA DE SOUZA              AVENIDA SAO FRANCISCO, LOTE 41 QUADRA E PARQUE COLON26183170BELFORD ROXO   RJUNIAO UMB DOS CULTOS AFRO BRAS    31011810 000021
10231987175000168817800093673    00005732                     000057320000000000000109                     I015732      31011800000000035003410000017N261217050900000000000103101180000000000000000000000000000000000000000100002139428790SIMONE GONCALVES GOMES                  RUA ROBERTO BATISTA,  LOTE 2 QUADRA 19  SANTA MARTA 26173300BELFORD ROXO   RJUNIAO UMB DOS CULTOS AFRO BRAS    31011810 000022
10231987175000168817800093673    00005731                     000057310000000000000109                     I015731      31011800000000035003410000017N261217050900000000000103101180000000000000000000000000000000000000000100010880272308FERNANDA DOS SANTOS PEREIRA             RUA LINS DE VASCONCELOS, 593            LINS DE VASC20710130RIO DE JANEIRO RJUNIAO UMB DOS CULTOS AFRO BRAS    31011810 000023
10231987175000168817800093673    00005730                     000057300000000000000109                     I015730      31011800000000035003410000017N261217050900000000000103101180000000000000000000000000000000000000000100090100328768VANDA DA SILVA MARQUES                  RUA TAIUVA, 117 FUNDOS                  PADRE MIGUEL21775450RIO DE JANEIRO RJUNIAO UMB DOS CULTOS AFRO BRAS    31011810 000024
10231987175000168817800093673    00005728                     000057280000000000000109                     I015728      31011800000000035003410000017N261217050900000000000103101180000000000000000000000000000000000000000100050002317753IVO DE AZEVEDO COELHO                   RUA REVERINO ABIDIAS NOBRE, 277 CASA 1  COIMBRA - BA21105170RIO DE JANEIRO RJUNIAO UMB DOS CULTOS AFRO BRAS    31011810 000025
10231987175000168817800093673    00005727                     000057270000000000000109                     I015727      31011800000000035003410000017N261217050900000000000103101180000000000000000000000000000000000000000100000261600729ELIANE ZELIA DE OLIVEIRA                RUA VENANCIO AIRES, 1781                GRAMACHO - D25035340DUQUE DE CAXIASRJUNIAO UMB DOS CULTOS AFRO BRAS    31011810 000026
10231987175000168817800093673    00005726                     000057260000000000000109                     I015726      31011800000000035003410000017N261217050900000000000103101180000000000000000000000000000000000000000100000856003778ANA ELIZABETE ANTUNES SANTOS            RUA: GETULIO VARGAS                     SEPETIBA    23540130RIO DE JANEIRO RJUNIAO UMB DOS CULTOS AFRO BRAS    31011810 000027
10231987175000168817800093673    00005725                     000057250000000000000109                     I015725      31011800000000035003410000017N261217050900000000000103101180000000000000000000000000000000000000000100002202729720ANA CLAUDIA NEVES BARRETO               RUA ACARA, 402                          VAZ LOBO    21361310RIO DE JANEIRO RJUNIAO UMB DOS CULTOS AFRO BRAS    31011810 000028
10231987175000168817800093673    00005724                     000057240000000000000109                     I015724      31011800000000035003410000017N261217050900000000000103101180000000000000000000000000000000000000000100008681117750DAVIS CANDIDO PEREIRA                   RUA BALTAZAR,  QUADRA 2 LOTE 21         CAMPO ALEGRE26292276NOVA IGUACU    RJUNIAO UMB DOS CULTOS AFRO BRAS    31011810 000029
10231987175000168817800093673    00005723                     000057230000000000000109                     I015723      31011800000000035003410000017N261217050900000000000103101180000000000000000000000000000000000000000100089823753768MARIA JOSE DA ROCHA NOBREGA             MESMO                                   MESMO       26150071BELFORD ROXO   RJUNIAO UMB DOS CULTOS AFRO BRAS    31011810 000030
10231987175000168817800093673    00005722                     000057220000000000000109                     I015722      31011800000000035003410000017N261217050900000000000103101180000000000000000000000000000000000000000100082977852700ISAURA FERNANDES FERREIRA               RUA DENVER, LOTE 23 QUADRA 15           PIAM - BELFO26115590BELFORD ROXO   RJUNIAO UMB DOS CULTOS AFRO BRAS    31011810 000031
10231987175000168817800093673    00005721                     000057210000000000000109                     I015721      31011800000000035003410000017N261217050900000000000103101180000000000000000000000000000000000000000100007953958767PATRICIA DE OLIVEIRA ROIF               RUA MATURACA, LOTE 2 QUADRA 1           PENHA CIRCUL21210360RIO DE JANEIRO RJUNIAO UMB DOS CULTOS AFRO BRAS    31011810 000032
10231987175000168817800093673    00005720                     000057200000000000000109                     I015720      31011800000000035003410000017N261217050900000000000103101180000000000000000000000000000000000000000100010910780765TIAGO DE ANDRADE ALMEIDA                RUA PAULO DE FRONTIM , 29               GOVERNADOR P26910000MIGUEL PEREIRA RJUNIAO UMB DOS CULTOS AFRO BRAS    31011810 000033
10231987175000168817800093673    00005719                     000057190000000000000109                     I015719      31011800000000035003410000017N261217050900000000000103101180000000000000000000000000000000000000000100088481638749COSME JOSE ANDRADE DE OLIVEIRA          RUA OLIVEIRA REIS, 94                   SANTA BARBAR27113240BARRA DO PIRAI RJUNIAO UMB DOS CULTOS AFRO BRAS    31011810 000034
10231987175000168817800093673    00005718                     000057180000000000000109                     I015718      31011800000000035003410000017N261217050900000000000103101180000000000000000000000000000000000000000100024721975864LIDIANE FERNANDA BON SCHIAVI S          RUA ALBERTO SANTOS DRUMONT, 161         BELVEDERE DA27113330BARRA DO PIRAI RJUNIAO UMB DOS CULTOS AFRO BRAS    31011810 000035
10231987175000168817800093673    00005717                     000057170000000000000109                     I015717      31011800000000035003410000017N261217050900000000000103101180000000000000000000000000000000000000000100084290951791ZUELI DA SILVA                          RUA JOSE MARIO FERREIRA, 64             COIMBRA - BA27115180BARRA DO PIRAI RJUNIAO UMB DOS CULTOS AFRO BRAS    31011810 000036
10231987175000168817800093673    00005716                     000057160000000000000109                     I015716      31011800000000035003410000017N261217050900000000000103101180000000000000000000000000000000000000000100001794872728JORGE TEIXEIRA DE LIMA                  ESTRADA DO GUERENGUE, 2118              CURICICA  - 22713001RIO DE JANEIRO RJUNIAO UMB DOS CULTOS AFRO BRAS    31011810 000037
10231987175000168817800093673    00005715                     000057150000000000000109                     I015715      31011800000000035003410000017N261217050900000000000103101180000000000000000000000000000000000000000100089770250791JUREMA DA MACENA RAYMUNDO               RUA DAS DALIAS, 78                      VILA VALQUEI21330740RIO DE JANEIRO RJUNIAO UMB DOS CULTOS AFRO BRAS    31011810 000038
10231987175000168817800093673    00005714                     000057140000000000000109                     I015714      31011800000000035003410000017N261217050900000000000103101180000000000000000000000000000000000000000100014326136774CAIO CESAR LIMA DA CRUZ                 RUA QUINTINO BOCAIUVA, 349              NOVA CIDADE 26535130NILOPOLIS      RJUNIAO UMB DOS CULTOS AFRO BRAS    31011810 000039
10231987175000168817800093673    00005713                     000057130000000000000109                     I015713      31011800000000035003410000017N261217050900000000000103101180000000000000000000000000000000000000000100005878475731CLEITOM RODRIGUES DE OLIVEIRA           RUA ARARI, 621 BLOCO 38 APT 304         BANGU - RJ  21875260RIO DE JANEIRO RJUNIAO UMB DOS CULTOS AFRO BRAS    31011810 000040
10231987175000168817800093673    00005712                     000057120000000000000109                     I015712      31011800000000035003410000017N261217050900000000000103101180000000000000000000000000000000000000000100000556390709ANNA MENDONCA BORGES                    RUA I, LOTEAMENTO SAO SEBASTIAO, 1089   FRAGOSO - MA25935486MAGE           RJUNIAO UMB DOS CULTOS AFRO BRAS    31011810 000041
10231987175000168817800093673    00005711                     000057110000000000000109                     I015711      31011800000000035003410000017N261217050900000000000103101180000000000000000000000000000000000000000100044331762734ELMA HONORIA DAS NEVES                  RUA CORREIA DIAS, 1052 CASA 6           VIGARIO GERA21241310RIO DE JANEIRO RJUNIAO UMB DOS CULTOS AFRO BRAS    31011810 000042
10231987175000168817800093673    00005710                     000057100000000000000109                     I015710      31011800000000035003410000017N261217050900000000000103101180000000000000000000000000000000000000000100062820125700LUIS AFONSO DOS SANTOS                  RUA RETIRO FELIZ, 2                     PARQUE AIDA 26193020BELFORD ROXO   RJUNIAO UMB DOS CULTOS AFRO BRAS    31011810 000043
10231987175000168817800093673    00005708                     000057080000000000000109                     I015708      31011800000000035003410000017N261217050900000000000103101180000000000000000000000000000000000000000100002200754760VANESSA MEDINA DA SILVA                 RUA JOAQUIM MOREIRA, 45                 SEPETIBA - R23545003RIO DE JANEIRO RJUNIAO UMB DOS CULTOS AFRO BRAS    31011810 000044
10231987175000168817800093673    00005707                     000057070000000000000109                     I015707      31011800000000035003410000017N261217050900000000000103101180000000000000000000000000000000000000000100003350774717ROGERIO SILVA DE SOUZA                  RUA TACARATU, 118                       ROCHA MIRAND21555010RIO DE JANEIRO RJUNIAO UMB DOS CULTOS AFRO BRAS    31011810 000045
10231987175000168817800093673    00005706                     000057060000000000000109                     I015706      31011800000000035003410000017N261217050900000000000103101180000000000000000000000000000000000000000100008612394740SEBASTIAO PORTES NETO                   RUA MARIETA, 451                        PARQUE SAO N25530093SAO JOAO DE MERRJUNIAO UMB DOS CULTOS AFRO BRAS    31011810 000046
10231987175000168817800093673    00005705                     000057050000000000000109                     I015705      31011800000000035003410000017N261217050900000000000103101180000000000000000000000000000000000000000100007812146707GRASIELI RIBEIRO DE ALMEIDA             RUA PADRE ARMANDO NOGUEIRA, 30          AGUA SANTA -20745120RIO DE JANEIRO RJUNIAO UMB DOS CULTOS AFRO BRAS    31011810 000047
10231987175000168817800093673    00005704                     000057040000000000000109                     I015704      31011800000000035003410000017N261217050900000000000103101180000000000000000000000000000000000000000100003558966724ANDREA CORDEIRO DA CONCEICAO S          RUA  PARATI, 379 - KM 35                BOM JESUS - 26298183NOVA IGUACU    RJUNIAO UMB DOS CULTOS AFRO BRAS    31011810 000048
10231987175000168817800093673    00005703                     000057030000000000000109                     I015703      31011800000000035003410000017N261217050900000000000103101180000000000000000000000000000000000000000100096051523715MARIA DE LOURDES PEREIRA                RUA MAX MANOEL MOLTER LOTE 42           QUARTEIRAO B25680211PETROPOLIS     RJUNIAO UMB DOS CULTOS AFRO BRAS    31011810 000049
10231987175000168817800093673    00005701                     000057010000000000000109                     I015701      31011800000000035003410000017N261217050900000000000103101180000000000000000000000000000000000000000100002415896730ROSIELMA SANTOS SOUZA                   RUA MONDEGO, 78                         RICARDO DE A21665130RIO DE JANEIRO RJUNIAO UMB DOS CULTOS AFRO BRAS    31011810 000050
10231987175000168817800093673    00005700                     000057000000000000000109                     I015700      31011800000000035003410000017N261217050900000000000103101180000000000000000000000000000000000000000100063430773791GERMANO ROSEMBERG                       RUA DOUTOR TABAJARA DE ARAUJO GAMA, 694 PIRATININGA 24350694NITEROI        RJUNIAO UMB DOS CULTOS AFRO BRAS    31011810 000051
10231987175000168817800093673    00005699                     000056990000000000000109                     I015699      31011800000000035003410000017N261217050900000000000103101180000000000000000000000000000000000000000100003003808789ADRIANA LUCIANA DA SILVA                AVENIDA VICENTE DE CARVALHO, 1086, RUA AVICENTE DE C21210024RIO DE JANEIRO RJUNIAO UMB DOS CULTOS AFRO BRAS    31011810 000052
10231987175000168817800093673    00005698                     000056980000000000000109                     I015698      31011800000000035003410000017N261217050900000000000103101180000000000000000000000000000000000000000100008997230719RAIMUNDA DE SOUZA MEDEIROS              RUA ARATICUM, 835 APTO 401              ANIL - JACAR22753500RIO DE JANEIRO RJUNIAO UMB DOS CULTOS AFRO BRAS    31011810 000053
10231987175000168817800093673    00005697                     000056970000000000000109                     I015697      31011800000000035003410000017N261217050900000000000103101180000000000000000000000000000000000000000100001156424712VANUSIA DOS SANTOS MOREIRA              AVENIDA JOAO XXIII, 1900 RUA 25 QUADRA 2SANTA CRUZ -23560352RIO DE JANEIRO RJUNIAO UMB DOS CULTOS AFRO BRAS    31011810 000054
10231987175000168817800093673    00005696                     000056960000000000000109                     I015696      31011800000000035003410000017N261217050900000000000103101180000000000000000000000000000000000000000100095674454787GILVANIA RODRIGUES DE SANTANA           RUA TRAVASSOS, LOTE 4 QUADRA B          PARQUE SAO B26183730BELFORD ROXO   RJUNIAO UMB DOS CULTOS AFRO BRAS    31011810 000055
10231987175000168817800093673    00005695                     000056950000000000000109                     I015695      31011800000000035003410000017N261217050900000000000103101180000000000000000000000000000000000000000100013848361795VICTOR ALEXANDRE MAGHELLY G. D          RUA AQUIBADA, LOTE 25 QUADRA 19         CAMPO ALEGRE26292171NOVA IGUACU    RJUNIAO UMB DOS CULTOS AFRO BRAS    31011810 000056
10231987175000168817800093673    00005694                     000056940000000000000109                     I015694      31011800000000035003410000017N261217050900000000000103101180000000000000000000000000000000000000000100004291405766JACQUELINE ELIZABETH BALTHAZAR          RUA PROFESSOR LACE, 134 APTO 404        RAMOS - RIO 21060120RIO DE JANEIRO RJUNIAO UMB DOS CULTOS AFRO BRAS    31011810 000057
10231987175000168817800093673    00005693                     000056930000000000000109                     I015693      31011800000000035003410000017N261217050900000000000103101180000000000000000000000000000000000000000100095055606720MATILDES VIANA DA COSTA                 RUA MANUEL NOGUEIRA, 312                MUTUA - SAO 24460380SAO GONCALO    RJUNIAO UMB DOS CULTOS AFRO BRAS    31011810 000058
10231987175000168817800093673    00005691                     000056910000000000000109                     I015691      31011800000000035003410000017N261217050900000000000103101180000000000000000000000000000000000000000100087394464768LEILA MARIA ROSA MARTINS                RUA EDNA MEDEIROS, 155                  CORUMBA - NO26042430NOVA IGUACU    RJUNIAO UMB DOS CULTOS AFRO BRAS    31011810 000059
10231987175000168817800093673    00005690                     000056900000000000000109                     I015690      31011800000000035003410000017N261217050900000000000103101180000000000000000000000000000000000000000100004245693703JONETE DA SILVA FRANCISCO               RUA MOZART FIRMESA, 20 COBERTURA 303    RECREIO - RJ22795365RIO DE JANEIRO RJUNIAO UMB DOS CULTOS AFRO BRAS    31011810 000060
10231987175000168817800093673    00005689                     000056890000000000000109                     I015689      31011800000000035003410000017N261217050900000000000103101180000000000000000000000000000000000000000100069296715415VANDA FEIJO DE MELO DE CASTRO           RUA DOUTOR GARNIER, 687 CASA 2          ROCHA - RIO 20975000RIO DE JANEIRO RJUNIAO UMB DOS CULTOS AFRO BRAS    31011810 000061
10231987175000168817800093673    00005688                     000056880000000000000109                     I015688      31011800000000035003410000017N261217050900000000000103101180000000000000000000000000000000000000000100003360087755ELIENE GONCALVES JACINTO                TRAVESSA DAS FLORES, 20                 PARQUE LAFAI25010695DUQUE DE CAXIASRJUNIAO UMB DOS CULTOS AFRO BRAS    31011810 000062
10231987175000168817800093673    00005687                     000056870000000000000109                     I015687      31011800000000035003410000017N261217050900000000000103101180000000000000000000000000000000000000000100007547737790ALESSANDRO CRUZ GONCALVES               RUA DIONISIO FERNANDES, 297 BLOCO 1 APTOENGENHO DE D20730400RIO DE JANEIRO RJUNIAO UMB DOS CULTOS AFRO BRAS    31011810 000063
10231987175000168817800093673    00005686                     000056860000000000000109                     I015686      31011800000000035003410000017N261217050900000000000103101180000000000000000000000000000000000000000100005836497770SIDEAN LEANDRO DOS SANTOS CRUZ          RUA MENDES RIBEIRO, 696                 PATRONATO - 24431635SAO GONCALO    RJUNIAO UMB DOS CULTOS AFRO BRAS    31011810 000064
10231987175000168817800093673    00005685                     000056850000000000000109                     I015685      31011800000000035003410000017N261217050900000000000103101180000000000000000000000000000000000000000100075911140772MARCIA FIGUEIREDO DOS SANTOS G          RUA FERNANDO LOBO, 571 - RUA B QUADRA B GUADALUPE - 21665070RIO DE JANEIRO RJUNIAO UMB DOS CULTOS AFRO BRAS    31011810 000065
10231987175000168817800093673    00005684                     000056840000000000000109                     I015684      31011800000000035003410000017N261217050900000000000103101180000000000000000000000000000000000000000100089209001753ALDIR TEIXEIRA DE SOUZA                 RUA BELO HORIZONTE, 381                 BANGU - RIO 21815141RIO DE JANEIRO RJUNIAO UMB DOS CULTOS AFRO BRAS    31011810 000066
10231987175000168817800093673    00005683                     000056830000000000000109                     I015683      31011800000000035003410000017N261217050900000000000103101180000000000000000000000000000000000000000100003598384726ROSANE QUIRINO DA SILVA                 RUA MANUEL RODRIGUES FONTINHA, 119      NOVA CIDADE 26535270NILOPOLIS      RJUNIAO UMB DOS CULTOS AFRO BRAS    31011810 000067
10231987175000168817800093673    00005682                     000056820000000000000109                     I015682      31011800000000035003410000017N261217050900000000000103101180000000000000000000000000000000000000000100002330389727LENIRA FELIX DA SILVA                   RUA ULISSES ROBERTO, 1524               BOACU - SAO 24467490SAO GONCALO    RJUNIAO UMB DOS CULTOS AFRO BRAS    31011810 000068
10231987175000168817800093673    00005681                     000056810000000000000109                     I015681      31011800000000035003410000017N261217050900000000000103101180000000000000000000000000000000000000000100007429687741MAURO ROBERTO NEVES DA HORA             RUA BRAS CUBAS, 112 BLOCO 3 APTO 106    CONDOMINIO P21520030RIO DE JANEIRO RJUNIAO UMB DOS CULTOS AFRO BRAS    31011810 000069
10231987175000168817800093673    00005680                     000056800000000000000109                     I015680      31011800000000035003410000017N261217050900000000000103101180000000000000000000000000000000000000000100002380864705MARCELO CISNEIROS DA SILVA              RUA GUAIBA, 481                         VILA DA PENH21215070RIO DE JANEIRO RJUNIAO UMB DOS CULTOS AFRO BRAS    31011810 000070
10231987175000168817800093673    00005679                     000056790000000000000109                     I015679      31011800000000035003410000017N261217050900000000000103101180000000000000000000000000000000000000000100055046010704SONIA REGINA PINTO DA SILVA             RUA ARACOIA, 188 FUNDOS                 BRAZ DE PINA21011140RIO DE JANEIRO RJUNIAO UMB DOS CULTOS AFRO BRAS    31011810 000071
10231987175000168817800093673    00005678                     000056780000000000000109                     I015678      31011800000000035003410000017N261217050900000000000103101180000000000000000000000000000000000000000100009963993729LEANDRO DE SOUZA OLIVEIRA               RUA DA MATRIZ, 876                      CENTRO - SAO25525130SAO JOAO DE MERRJUNIAO UMB DOS CULTOS AFRO BRAS    31011810 000072
10231987175000168817800093673    00005677                     000056770000000000000109                     I015677      31011800000000035003410000017N261217050900000000000103101180000000000000000000000000000000000000000100003439982700ANDRE LUIS SANTIAGO DE ALMEIDA          RUA TANGER, 39                          SANTA CRUZ -23555013RIO DE JANEIRO RJUNIAO UMB DOS CULTOS AFRO BRAS    31011810 000073
10231987175000168817800093673    00005676                     000056760000000000000109                     I015676      31011800000000035003410000017N261217050900000000000103101180000000000000000000000000000000000000000100013565688742CAIO CESAR DUARTE DE SOUZA              RUA CALUMBI, 300 APT 305                IRAJA - RIO 21361260RIO DE JANEIRO RJUNIAO UMB DOS CULTOS AFRO BRAS    31011810 000074
10231987175000168817800093673    00005675                     000056750000000000000109                     I015675      31011800000000035003410000017N261217050900000000000103101180000000000000000000000000000000000000000100044239300720WALDIR DAS CHAGAS FILHO                 RUA CALMON CABRAL, 72 CASA 1 FUNDOS     IRAJA - RIO 21235150RIO DE JANEIRO RJUNIAO UMB DOS CULTOS AFRO BRAS    31011810 000075
9                                                                                                                                                                                                                                                                                                                                                                                                         000076
