01REMESSA01COBRANCA       916200163100        União Umb dos Cultos Afro Bra341BANCO ITAU SA  040118                                                                                                                                                                                                                                                                                                      000001
10231987175000168916200163100    00008633                     000086330000000000000109                     I018633      31011800000000035003410000017N020118050900000000000103101180000000000000000000000000000000000000000100005437133753MARIZETE ALVES DA SILVA                 RUA DELHIR Nº 100 - ANCHIETA           RIO DE JANEI21610330RIO DE JANEIRO RJUNIAO UMB DOS CULTOS AFRO BRAS    31011810 000002
10231987175000168916200163100    00008632                     000086320000000000000109                     I018632      31011800000000035003410000017N020118050900000000000103101180000000000000000000000000000000000000000100002480281701CESAR AUGUSTO DA SILVA MARCIAL          RUA, TRES QD.2 LT.22 - LOTEAMENTO MANU  MANUELLE. - 24900000MARICA         RJUNIAO UMB DOS CULTOS AFRO BRAS    31011810 000003
10231987175000168916200163100    00008631                     000086310000000000000109                     I018631      31011800000000035003410000017N020118050900000000000103101180000000000000000000000000000000000000000100008228737700JOCEMAR VIANA TORRES                    RUA LORETO DO COUTO, 281                GUADALUPE   21675520RIO DE JANEIRO RJUNIAO UMB DOS CULTOS AFRO BRAS    31011810 000004
10231987175000168916200163100    00008630                     000086300000000000000109                     I018630      31011800000000035003410000017N020118050900000000000103101180000000000000000000000000000000000000000100026376253768MARIA DE LOURDES DA SILVA FERN          RUA: ESTUDANTE PAULINO DURVAL, QUADRA 3 MAGE - RIO D25931882MAGE           RJUNIAO UMB DOS CULTOS AFRO BRAS    31011810 000005
10231987175000168916200163100    00008628                     000086280000000000000109                     I018628      31011800000000035003410000017N020118050900000000000103101180000000000000000000000000000000000000000100012201569738PAULO CELSO MACHADO JUNIOR              RUA SEIS LOTE 26 - CHACARA INOA         MARICA - RIO24900000MARICA         RJUNIAO UMB DOS CULTOS AFRO BRAS    31011810 000006
10231987175000168916200163100    00008626                     000086260000000000000109                     I018626      31011800000000035003410000017N020118050900000000000103101180000000000000000000000000000000000000000100038719444753JOAQUIM ROBERTO TRINDADE MONTE          RUA TAQUARI N 192 CASA 2                BRAS DE PINA21215540RIO DE JANEIRO RJUNIAO UMB DOS CULTOS AFRO BRAS    31011810 000007
10231987175000168916200163100    00008625                     000086250000000000000109                     I018625      31011800000000035003410000017N020118050900000000000103101180000000000000000000000000000000000000000100011193274745WELINGTON PEDRO DOS SANTOS GOM          RUA ARAUJO ROZO, 305 FUNDOS             ANCHIETA - R21635100RIO DE JANEIRO RJUNIAO UMB DOS CULTOS AFRO BRAS    31011810 000008
10231987175000168916200163100    00008624                     000086240000000000000109                     I018624      31011800000000035003410000017N020118050900000000000103101180000000000000000000000000000000000000000100005333959765CRISTIANE DA CONCEICAO PACHECO          RUA JOSE SEABRA, 6                      PILAR - DUQU25233001DUQUE DE CAXIASRJUNIAO UMB DOS CULTOS AFRO BRAS    31011810 000009
10231987175000168916200163100    00008623                     000086230000000000000109                     I018623      31011800000000035003410000017N020118050900000000000103101180000000000000000000000000000000000000000100067053424715HELENA DE FATIMA MENDES MARQUE          RUA IRANI, 182                          PENHA - RJ  21020200RIO DE JANEIRO RJUNIAO UMB DOS CULTOS AFRO BRAS    31011810 000010
10231987175000168916200163100    00008622                     000086220000000000000109                     I018622      31011800000000035003410000017N020118050900000000000103101180000000000000000000000000000000000000000100089826930768MARIA DAS DORES SILVA                   RUA JORDAO, 805 CASA 40                 TANQUE - RIO22725549RIO DE JANEIRO RJUNIAO UMB DOS CULTOS AFRO BRAS    31011810 000011
9                                                                                                                                                                                                                                                                                                                                                                                                         000012
