01REMESSA01COBRANCA       916200163100        União Umb dos Cultos Afro Bra341BANCO ITAU SA  040118                                                                                                                                                                                                                                                                                                      000001
10231987175000168916200163100    00008708                     000087080000000000000109                     I018708      31011800000000035003410000017N020118050900000000000103101180000000000000000000000000000000000000000100085906859772JULIO CESAR DA SILVA                    RUA PROFESSOR MARIO BRANT, 573          REALENGO - R21760420RIO DE JANEIRO RJUNIAO UMB DOS CULTOS AFRO BRAS    31011810 000002
10231987175000168916200163100    00008707                     000087070000000000000109                     I018707      31011800000000035003410000017N020118050900000000000103101180000000000000000000000000000000000000000100042909422804RAMALHO BORBA SILVA                     RUA HENRI DUMONT, 841                   CAMPO GRANDE23052350RIO DE JANEIRO RJUNIAO UMB DOS CULTOS AFRO BRAS    31011810 000003
10231987175000168916200163100    00008706                     000087060000000000000109                     I018706      31011800000000035003410000017N020118050900000000000103101180000000000000000000000000000000000000000100061487856768ROSELI ROCHA DA SILVA FERREIRA          RUA DOUTOR MESQUITA, 442                NOSSA SRA DE27113010BARRA DO PIRAI RJUNIAO UMB DOS CULTOS AFRO BRAS    31011810 000004
10231987175000168916200163100    00008704                     000087040000000000000109                     I018704      31011800000000035003410000017N020118050900000000000103101180000000000000000000000000000000000000000100004766843746ALESSANDRO MEDEIROS BRITO               RUA MARUPIARA, 198                      ROCHA MIRAND21510210RIO DE JANEIRO RJUNIAO UMB DOS CULTOS AFRO BRAS    31011810 000005
10231987175000168916200163100    00008703                     000087030000000000000109                     I018703      31011800000000035003410000017N020118050900000000000103101180000000000000000000000000000000000000000100002543752781MARIA DO SOCORRO MAMEDES DA SI          AVENIDA SANTA CRUZ, LOTE 2 QUADRA 82 APTSARACURUNA -25211220DUQUE DE CAXIASRJUNIAO UMB DOS CULTOS AFRO BRAS    31011810 000006
10231987175000168916200163100    00008702                     000087020000000000000109                     I018702      31011800000000035003410000017N020118050900000000000103101180000000000000000000000000000000000000000100078348048715CRISTIANE MARIA CARROZINO GAUD          ESTRADA DO DENDE, 1148 APTO 102         MONERO - ILH21920001RIO DE JANEIRO RJUNIAO UMB DOS CULTOS AFRO BRAS    31011810 000007
10231987175000168916200163100    00008700                     000087000000000000000109                     I018700      31011800000000035003410000017N020118050900000000000103101180000000000000000000000000000000000000000100002203155798CARLOS EDUARDO MOREIRA BENTO            RUA WENCESLAU BRAS, SN LOTE 24 QUADRA 27IMBARIE - DU25275160DUQUE DE CAXIASRJUNIAO UMB DOS CULTOS AFRO BRAS    31011810 000008
10231987175000168916200163100    00008699                     000086990000000000000109                     I018699      31011800000000035003410000017N020118050900000000000103101180000000000000000000000000000000000000000100005183653798CLAUDIA DE OLIVEIRA ROCHA SABI          RUA ISAAC ZAIDMANN, 228 VILA F          COSTA BARROS21526090RIO DE JANEIRO RJUNIAO UMB DOS CULTOS AFRO BRAS    31011810 000009
10231987175000168916200163100    00008698                     000086980000000000000109                     I018698      31011800000000035003410000017N020118050900000000000103101180000000000000000000000000000000000000000100000692299700JORGE LUIZ LIMA BASTOS                  RUA PLANALTINA, 71                      REALENGO - R21760160RIO DE JANEIRO RJUNIAO UMB DOS CULTOS AFRO BRAS    31011810 000010
10231987175000168916200163100    00008696                     000086960000000000000109                     I018696      31011800000000035003410000017N020118050900000000000103101180000000000000000000000000000000000000000100002771098768FRANCISCO AREAS                         RUA CARMINDA, 969                       COELHO DA RO25550135SAO JOAO DE MERRJUNIAO UMB DOS CULTOS AFRO BRAS    31011810 000011
10231987175000168916200163100    00008695                     000086950000000000000109                     I018695      31011800000000035003410000017N020118050900000000000103101180000000000000000000000000000000000000000100059334258772LUIZ ROBERTO REGO GAMA                  RUA MIGUEL POMBEIRO, 112                REALENGO - R21735280RIO DE JANEIRO RJUNIAO UMB DOS CULTOS AFRO BRAS    31011810 000012
10231987175000168916200163100    00008694                     000086940000000000000109                     I018694      31011800000000035003410000017N020118050900000000000103101180000000000000000000000000000000000000000100007526128751SORAYA ROBERTA PINHEIRO DE ALM          ALAMEDA TENENTE ANTONIO JOAO, CASA 17   URCA - RIO D22291150RIO DE JANEIRO RJUNIAO UMB DOS CULTOS AFRO BRAS    31011810 000013
10231987175000168916200163100    00008693                     000086930000000000000109                     I018693      31011800000000035003410000017N020118050900000000000103101180000000000000000000000000000000000000000100002539387756GERSON TELLES GUIMARAES                 RUA DOUTOR AFONSO PENA, LOTE 20 QUADRA 2IMBARIE - DU25275430DUQUE DE CAXIASRJUNIAO UMB DOS CULTOS AFRO BRAS    31011810 000014
10231987175000168916200163100    00008692                     000086920000000000000109                     I018692      31011800000000035003410000017N020118050900000000000103101180000000000000000000000000000000000000000100000451962737JORGE CRISPIM DANTAS DE ARAUJO          RUA ORLANDO DE AQUINO, 115              PARQUE ANCHI21635370RIO DE JANEIRO RJUNIAO UMB DOS CULTOS AFRO BRAS    31011810 000015
10231987175000168916200163100    00008691                     000086910000000000000109                     I018691      31011800000000035003410000017N020118050900000000000103101180000000000000000000000000000000000000000100060921051723GEIZA RODRIGUES GANDRA                  RUA MARTINS JUNIOR, 16                  VAL VERDE - 26335320NOVA IGUACU    RJUNIAO UMB DOS CULTOS AFRO BRAS    31011810 000016
10231987175000168916200163100    00008689                     000086890000000000000109                     I018689      31011800000000035003410000017N020118050900000000000103101180000000000000000000000000000000000000000100039182010749HUGO EDSON RODRIGUES DOS SANTO          RUA QUINTILIANO DA FONSECA, 406         COLUBANDE - 24451250SAO GONCALO    RJUNIAO UMB DOS CULTOS AFRO BRAS    31011810 000017
10231987175000168916200163100    00008688                     000086880000000000000109                     I018688      31011800000000035003410000017N020118050900000000000103101180000000000000000000000000000000000000000100005736163705SONIA MARQUES DE OLIVEIRA               RUA AMERICO ALVES DA COSTA, LOTE 28 QUADPIRATININGA 24350350NITEROI        RJUNIAO UMB DOS CULTOS AFRO BRAS    31011810 000018
9                                                                                                                                                                                                                                                                                                                                                                                                         000019
