01REMESSA01COBRANCA       916200163100        União Umb dos Cultos Afro Bra341BANCO ITAU SA  160119                                                                                                                                                                                                                                                                                                      000001
10231987175000168916200163100    000039584                    000395840000000000000109                     I0139584     15021900000000700003410000017N160119104700000000000101502190000000000000000000000000000000000000000100009207927748CRISTIANE DO NASCIMENTO                 RUA: BARAO                              PRACA SECA  21321620RIO DE JANEIRO RJUNIAO UMB DOS CULTOS AFRO BRAS    15021910 000002
9                                                                                                                                                                                                                                                                                                                                                                                                         000003
