01REMESSA01COBRANCA       916200163100        União Umb dos Cultos Afro Bra341BANCO ITAU SA  080119                                                                                                                                                                                                                                                                                                      000001
10231987175000168916200163100    000039508                    000395080000000000000109                     I0139508     31011900000000350003410000017N080119104700000000000103101190000000000000000000000000000000000000000100002644948738PAULO CESAR MARINS DA SILVA             RUA EDUARDO NORONHA                     ROCHA       24420615SAO GONCALO    RJUNIAO UMB DOS CULTOS AFRO BRAS    31011910 000002
10231987175000168916200163100    000039507                    000395070000000000000109                     I0139507     11011900000000415003410000017N080119104700000000000101101190000000000000000000000000000000000000000100004278587716LUCIANO GONCALVES PIRES                 RUA MARECHAL ANTONIO DE SOUSA           JARDIM AMERI21240430RIO DE JANEIRO RJUNIAO UMB DOS CULTOS AFRO BRAS    11011910 000003
10231987175000168916200163100    000039506                    000395060000000000000109                     I0139506     11011900000000385003410000017N080119104700000000000101101190000000000000000000000000000000000000000100087318822772REGINA CLIMAS DE ABREU                  RUA JOAO MARTINS DE BARROS              BATAILLARD  25675150PETROPOLIS     RJUNIAO UMB DOS CULTOS AFRO BRAS    11011910 000004
10231987175000168916200163100    000039505                    000395050000000000000109                     I0139505     11011900000000315003410000017N080119104700000000000101101190000000000000000000000000000000000000000100081632746700LEILA DOS SANTOS SILVA                  RUA PROJETADA E                         CONJUNTO NOV00000000RIO DE JANEIRO RJUNIAO UMB DOS CULTOS AFRO BRAS    11011910 000005
10231987175000168916200163100    000039504                    000395040000000000000109                     I0139504     11011900000000035003410000017N080119104700000000000101101190000000000000000000000000000000000000000100081632746700LEILA DOS SANTOS SILVA                  RUA PROJETADA E                         CONJUNTO NOV00000000RIO DE JANEIRO RJUNIAO UMB DOS CULTOS AFRO BRAS    11011910 000006
10231987175000168916200163100    000039503                    000395030000000000000109                     I0139503     11011900000000700003410000017N080119104700000000000101101190000000000000000000000000000000000000000100001318595797ADILSON OLIVEIRA SILVA                  O MESMO                                 O MESMO     25530350SAO JOAO DE MERRJUNIAO UMB DOS CULTOS AFRO BRAS    11011910 000007
10231987175000168916200163100    000039502                    000395020000000000000109                     I0139502     31011900000000140003410000017N080119104700000000000103101190000000000000000000000000000000000000000100060296836168ALEXANDRE MONTEIRO DA ROSA              MONTE CASTELO                           CORONEL VEIG25655500PETROPOLIS     RJUNIAO UMB DOS CULTOS AFRO BRAS    31011910 000008
10231987175000168916200163100    000039501                    000395010000000000000109                     I0139501     31011900000000175003410000017N080119104700000000000103101190000000000000000000000000000000000000000100005209152758LAZARO OLIVEIRA DE ARAUJO               RUA MULULO DA VEIGA                     NEVES       24425460SAO GONCALO    RJUNIAO UMB DOS CULTOS AFRO BRAS    31011910 000009
10231987175000168916200163100    000039500                    000395000000000000000109                     I0139500     30011900000000400003410000017N070119104700000000000103001190000000000000000000000000000000000000000100054447445700THEREZA SARAIVA BRAGANCA                RUA: PORTO WALTER                       PIEDADE     21380440RIO DE JANEIRO RJUNIAO UMB DOS CULTOS AFRO BRAS    30011910 000010
10231987175000168916200163100    000039499                    000394990000000000000109                     I0139499     30011900000000350003410000017N070119104700000000000103001190000000000000000000000000000000000000000100008158166776CRISTIANE DE ALMEIDA DA ROCHA           RUA JOANA RESENDE                       MADUREIRA   21360430RIO DE JANEIRO RJUNIAO UMB DOS CULTOS AFRO BRAS    30011910 000011
10231987175000168916200163100    000039498                    000394980000000000000109                     I0139498     11011900000000035003410000017N070119104700000000000101101190000000000000000000000000000000000000000100010718180747JOSE CARLOS MELO DA SILVA               RUA DEPUTADO SA REGO                    VILA SAO LUI25065030DUQUE DE CAXIASRJUNIAO UMB DOS CULTOS AFRO BRAS    11011910 000012
10231987175000168916200163100    000039497                    000394970000000000000109                     I0139497     11011900000000350003410000017N070119104700000000000101101190000000000000000000000000000000000000000100010718180747JOSE CARLOS MELO DA SILVA               RUA DEPUTADO SA REGO                    VILA SAO LUI25065030DUQUE DE CAXIASRJUNIAO UMB DOS CULTOS AFRO BRAS    11011910 000013
10231987175000168916200163100    000039496                    000394960000000000000109                     I0139496     11011900000000350003410000017N070119104700000000000101101190000000000000000000000000000000000000000100091488362734MATHIAS FERNANDES LAPOENTE              RUA JOAQUIM AUGUSTO                     PACIENCIA   23585811RIO DE JANEIRO RJUNIAO UMB DOS CULTOS AFRO BRAS    11011910 000014
10231987175000168916200163100    000039495                    000394950000000000000109                     I0139495     11011900000000040003410000017N070119104700000000000101101190000000000000000000000000000000000000000100063579588753EDSON DOS SANTOS ROSA                   RUA VENANCIO ADRES                      GRAMACHO    25036170DUQUE DE CAXIASRJUNIAO UMB DOS CULTOS AFRO BRAS    11011910 000015
10231987175000168916200163100    000039494                    000394940000000000000109                     I0139494     11011900000000035003410000017N070119104700000000000101101190000000000000000000000000000000000000000100068648006791SANDRA MARTA GOMES DA COSTA             RUA LAGUNA                              VILAR NOVO  26115620BELFORD ROXO   RJUNIAO UMB DOS CULTOS AFRO BRAS    11011910 000016
10231987175000168916200163100    000039433                    000394330000000000000109                     I0239433     04011900000000040003410000017N020119104700000000000100401190000000000000000000000000000000000000000100063579588753EDSON DOS SANTOS ROSA                   RUA VENANCIO ADRES                      GRAMACHO    25036170DUQUE DE CAXIASRJUNIAO UMB DOS CULTOS AFRO BRAS    04011910 000017
10231987175000168916200163100    000039405                    000394050000000000000109                     I0239405     04011900000000070003410000017N271218104700000000000100401190000000000000000000000000000000000000000100001248895738JUSSARA SILVEIRA LOPES DA FONS          RUA: LAURA MAGALHAES TEIXEIRA           SANTO ALEIXO25914130MAGE           RJUNIAO UMB DOS CULTOS AFRO BRAS    04011910 000018
10231987175000168916200163100    000028688                    000286880000000000000109                     I0228688     30111800000000040003410000017N060918104700000000000103011180000000000000000000000000000000000000000100070550891749CELSO POYDO MENDES                      RUA: SOUZA FREITAS                      PILARES     20760710RIO DE JANEIRO RJUNIAO UMB DOS CULTOS AFRO BRAS    30111810 000019
9                                                                                                                                                                                                                                                                                                                                                                                                         000020
