01REMESSA01COBRANCA       817800093673        União Umb dos Cultos Afro Bra341BANCO ITAU SA  280119                                                                                                                                                                                                                                                                                                      000001
10231987175000168817800093673    000039636                    000396360000000000000109                     I0239636     08021900000000040003410000017N220119104700000000000100802190000000000000000000000000000000000000000100002203157798CARLOS EDUARDO MOREIRA BENTO            RUA WENCESLAU BRAS                      IMBARIE     25275160DUQUE DE CAXIASRJUNIAO UMB DOS CULTOS AFRO BRAS    08021910 000002
10231987175000168817800093673    000039611                    000396110000000000000109                     I0239611     25011900000000350003410000017N180119104700000000000102501190000000000000000000000000000000000000000100008774131770CLEYSON MANHAES NERY                    RUA CORONEL BARROS                      PARQUE SARAI28110000CAMPO DOS GOYTARJUNIAO UMB DOS CULTOS AFRO BRAS    25011910 000003
10231987175000168817800093673    000039367                    000393670000000000000109                     I0239367     30031900000000040003410000017N261218104700000000000103003190000000000000000000000000000000000000000100005478441740CARLA MARIA DINIZ FERNANDEZ             RUA BALDUINO DE OLIVEIRA                ALTO DA SERR25635230PETROPOLIS     RJUNIAO UMB DOS CULTOS AFRO BRAS    30031910 000004
10231987175000168817800093673    000039146                    000391460000000000000109                     I0239146     30031900000000040003410000017N261218104700000000000103003190000000000000000000000000000000000000000100007299785757EDSON NUNES DE SOUZA FILHO              AVENIDA GOUVEIA                         VILA LAGE - 24415050SAO GONCALO    RJUNIAO UMB DOS CULTOS AFRO BRAS    30031910 000005
10231987175000168817800093673    000039103                    000391030000000000000109                     I0239103     30031900000000040003410000017N261218104700000000000103003190000000000000000000000000000000000000000100007620451757JUCIARA BARRETO DA SILVA                RUA G                                   PIABETA     25900000MAGE           RJUNIAO UMB DOS CULTOS AFRO BRAS    30031910 000006
10231987175000168817800093673    000038996                    000389960000000000000109                     I0238996     30031900000000040003410000017N261218104700000000000103003190000000000000000000000000000000000000000100011553393716MAURO PEREIRA                           RUA RECIFE                              CABUCU      26291374NOVA IGUACU    RJUNIAO UMB DOS CULTOS AFRO BRAS    30031910 000007
10231987175000168817800093673    000038857                    000388570000000000000109                     I0238857     30031900000000040003410000017N261218104700000000000103003190000000000000000000000000000000000000000100055046010704SONIA REGINA PINTO DA SILVA             RUA ARACOIA                             BRAZ DE PINA21011140RIO DE JANEIRO RJUNIAO UMB DOS CULTOS AFRO BRAS    30031910 000008
10231987175000168817800093673    000038265                    000382650000000000000109                     I0238265     30031900000000040003410000017N261218104700000000000103003190000000000000000000000000000000000000000100008774131770CLEYSON MANHAES NERY                    RUA CORONEL BARROS                      PARQUE SARAI28110000CAMPO DOS GOYTARJUNIAO UMB DOS CULTOS AFRO BRAS    30031910 000009
10231987175000168817800093673    000038066                    000380660000000000000109                     I0238066     30031900000000040003410000017N261218104700000000000103003190000000000000000000000000000000000000000100007485965778GRACIETE LEAO TANGUA                    RUA ROBERTO RANGEL LIMA                 MAURI - PIAB25915000MAGE           RJUNIAO UMB DOS CULTOS AFRO BRAS    30031910 000010
10231987175000168817800093673    000037951                    000379510000000000000109                     I0237951     30031900000000040003410000017N261218104700000000000103003190000000000000000000000000000000000000000100087683431753MARINEIDE DOS SANTOS GUIMARAES          RUA ERNESTO CARDOSO                     CENTRO - CHA26521450NILOPOLIS      RJUNIAO UMB DOS CULTOS AFRO BRAS    30031910 000011
10231987175000168817800093673    000037686                    000376860000000000000109                     I0237686     30031900000000040003410000017N261218104700000000000103003190000000000000000000000000000000000000000100095032061700CILEIA DA ROCHA PACHECO                 RUA DA FLORALIA                         SANTA BARBAR24350000RIO DE JANEIRO RJUNIAO UMB DOS CULTOS AFRO BRAS    30031910 000012
10231987175000168817800093673    000037586                    000375860000000000000109                     I0237586     30031900000000040003410000017N261218104700000000000103003190000000000000000000000000000000000000000100001173292748REINALTO BATISTA SILVEIRA               RUA MANOEL MACHADO DE OLIVEIRA          INHOAIBA    23063348RIO DE JANEIRO RJUNIAO UMB DOS CULTOS AFRO BRAS    30031910 000013
10231987175000168817800093673    000037454                    000374540000000000000109                     I0237454     30031900000000040003410000017N261218104700000000000103003190000000000000000000000000000000000000000100085975346720ROSANGELA DUTRA FERREIRA                RUA CORONEL LEITAO                      IRAJA       21235220RIO DE JANEIRO RJUNIAO UMB DOS CULTOS AFRO BRAS    30031910 000014
10231987175000168817800093673    000037448                    000374480000000000000109                     I0237448     28021900000000040003410000017N261218104700000000000102802190000000000000000000000000000000000000000100005478441740CARLA MARIA DINIZ FERNANDEZ             RUA BALDUINO DE OLIVEIRA                ALTO DA SERR25635230PETROPOLIS     RJUNIAO UMB DOS CULTOS AFRO BRAS    28021910 000015
10231987175000168817800093673    000037227                    000372270000000000000109                     I0237227     28021900000000040003410000017N261218104700000000000102802190000000000000000000000000000000000000000100007299785757EDSON NUNES DE SOUZA FILHO              AVENIDA GOUVEIA                         VILA LAGE - 24415050SAO GONCALO    RJUNIAO UMB DOS CULTOS AFRO BRAS    28021910 000016
10231987175000168817800093673    000037184                    000371840000000000000109                     I0237184     28021900000000040003410000017N261218104700000000000102802190000000000000000000000000000000000000000100007620451757JUCIARA BARRETO DA SILVA                RUA G                                   PIABETA     25900000MAGE           RJUNIAO UMB DOS CULTOS AFRO BRAS    28021910 000017
10231987175000168817800093673    000037077                    000370770000000000000109                     I0237077     28021900000000040003410000017N261218104700000000000102802190000000000000000000000000000000000000000100011553393716MAURO PEREIRA                           RUA RECIFE                              CABUCU      26291374NOVA IGUACU    RJUNIAO UMB DOS CULTOS AFRO BRAS    28021910 000018
10231987175000168817800093673    000036938                    000369380000000000000109                     I0236938     28021900000000040003410000017N261218104700000000000102802190000000000000000000000000000000000000000100055046010704SONIA REGINA PINTO DA SILVA             RUA ARACOIA                             BRAZ DE PINA21011140RIO DE JANEIRO RJUNIAO UMB DOS CULTOS AFRO BRAS    28021910 000019
10231987175000168817800093673    000036349                    000363490000000000000109                     I0236349     28021900000000040003410000017N261218104700000000000102802190000000000000000000000000000000000000000100008774131770CLEYSON MANHAES NERY                    RUA CORONEL BARROS                      PARQUE SARAI28110000CAMPO DOS GOYTARJUNIAO UMB DOS CULTOS AFRO BRAS    28021910 000020
10231987175000168817800093673    000036151                    000361510000000000000109                     I0236151     28021900000000040003410000017N261218104700000000000102802190000000000000000000000000000000000000000100007485965778GRACIETE LEAO TANGUA                    RUA ROBERTO RANGEL LIMA                 MAURI - PIAB25915000MAGE           RJUNIAO UMB DOS CULTOS AFRO BRAS    28021910 000021
10231987175000168817800093673    000036036                    000360360000000000000109                     I0236036     28021900000000040003410000017N261218104700000000000102802190000000000000000000000000000000000000000100087683431753MARINEIDE DOS SANTOS GUIMARAES          RUA ERNESTO CARDOSO                     CENTRO - CHA26521450NILOPOLIS      RJUNIAO UMB DOS CULTOS AFRO BRAS    28021910 000022
10231987175000168817800093673    000035773                    000357730000000000000109                     I0235773     28021900000000040003410000017N261218104700000000000102802190000000000000000000000000000000000000000100095032061700CILEIA DA ROCHA PACHECO                 RUA DA FLORALIA                         SANTA BARBAR24350000RIO DE JANEIRO RJUNIAO UMB DOS CULTOS AFRO BRAS    28021910 000023
10231987175000168817800093673    000035673                    000356730000000000000109                     I0235673     28021900000000040003410000017N261218104700000000000102802190000000000000000000000000000000000000000100001173292748REINALTO BATISTA SILVEIRA               RUA MANOEL MACHADO DE OLIVEIRA          INHOAIBA    23063348RIO DE JANEIRO RJUNIAO UMB DOS CULTOS AFRO BRAS    28021910 000024
10231987175000168817800093673    000035542                    000355420000000000000109                     I0235542     28021900000000040003410000017N261218104700000000000102802190000000000000000000000000000000000000000100085975346720ROSANGELA DUTRA FERREIRA                RUA CORONEL LEITAO                      IRAJA       21235220RIO DE JANEIRO RJUNIAO UMB DOS CULTOS AFRO BRAS    28021910 000025
10231987175000168817800093673    000035535                    000355350000000000000109                     I0235535     31011900000000040003410000017N261218104700000000000103101190000000000000000000000000000000000000000100005478441740CARLA MARIA DINIZ FERNANDEZ             RUA BALDUINO DE OLIVEIRA                ALTO DA SERR25635230PETROPOLIS     RJUNIAO UMB DOS CULTOS AFRO BRAS    31011910 000026
10231987175000168817800093673    000035371                    000353710000000000000109                     I0235371     31011900000000040003410000017N261218104700000000000103101190000000000000000000000000000000000000000100010860605710MARCIA DA SILVA SIRIACO DA CON          RUA PADRE GIL                           PARQUE BONEV25907096MAGE           RJUNIAO UMB DOS CULTOS AFRO BRAS    31011910 000027
10231987175000168817800093673    000035315                    000353150000000000000109                     I0235315     31011900000000040003410000017N261218104700000000000103101190000000000000000000000000000000000000000100007299785757EDSON NUNES DE SOUZA FILHO              AVENIDA GOUVEIA                         VILA LAGE - 24415050SAO GONCALO    RJUNIAO UMB DOS CULTOS AFRO BRAS    31011910 000028
10231987175000168817800093673    000035273                    000352730000000000000109                     I0235273     31011900000000040003410000017N261218104700000000000103101190000000000000000000000000000000000000000100007620451757JUCIARA BARRETO DA SILVA                RUA G                                   PIABETA     25900000MAGE           RJUNIAO UMB DOS CULTOS AFRO BRAS    31011910 000029
10231987175000168817800093673    000035166                    000351660000000000000109                     I0235166     31011900000000040003410000017N261218104700000000000103101190000000000000000000000000000000000000000100011553393716MAURO PEREIRA                           RUA RECIFE                              CABUCU      26291374NOVA IGUACU    RJUNIAO UMB DOS CULTOS AFRO BRAS    31011910 000030
10231987175000168817800093673    000035028                    000350280000000000000109                     I0235028     31011900000000040003410000017N261218104700000000000103101190000000000000000000000000000000000000000100055046010704SONIA REGINA PINTO DA SILVA             RUA ARACOIA                             BRAZ DE PINA21011140RIO DE JANEIRO RJUNIAO UMB DOS CULTOS AFRO BRAS    31011910 000031
10231987175000168817800093673    000034441                    000344410000000000000109                     I0234441     31011900000000040003410000017N261218104700000000000103101190000000000000000000000000000000000000000100008774131770CLEYSON MANHAES NERY                    RUA CORONEL BARROS                      PARQUE SARAI28110000CAMPO DOS GOYTARJUNIAO UMB DOS CULTOS AFRO BRAS    31011910 000032
10231987175000168817800093673    000034243                    000342430000000000000109                     I0234243     31011900000000040003410000017N261218104700000000000103101190000000000000000000000000000000000000000100007485965778GRACIETE LEAO TANGUA                    RUA ROBERTO RANGEL LIMA                 MAURI - PIAB25915000MAGE           RJUNIAO UMB DOS CULTOS AFRO BRAS    31011910 000033
10231987175000168817800093673    000034131                    000341310000000000000109                     I0234131     31011900000000040003410000017N261218104700000000000103101190000000000000000000000000000000000000000100087683431753MARINEIDE DOS SANTOS GUIMARAES          RUA ERNESTO CARDOSO                     CENTRO - CHA26521450NILOPOLIS      RJUNIAO UMB DOS CULTOS AFRO BRAS    31011910 000034
10231987175000168817800093673    000033871                    000338710000000000000109                     I0233871     31011900000000040003410000017N261218104700000000000103101190000000000000000000000000000000000000000100095032061700CILEIA DA ROCHA PACHECO                 RUA DA FLORALIA                         SANTA BARBAR24350000RIO DE JANEIRO RJUNIAO UMB DOS CULTOS AFRO BRAS    31011910 000035
10231987175000168817800093673    000033771                    000337710000000000000109                     I0233771     31011900000000040003410000017N261218104700000000000103101190000000000000000000000000000000000000000100001173292748REINALTO BATISTA SILVEIRA               RUA MANOEL MACHADO DE OLIVEIRA          INHOAIBA    23063348RIO DE JANEIRO RJUNIAO UMB DOS CULTOS AFRO BRAS    31011910 000036
10231987175000168817800093673    000033642                    000336420000000000000109                     I0233642     31011900000000040003410000017N261218104700000000000103101190000000000000000000000000000000000000000100085975346720ROSANGELA DUTRA FERREIRA                RUA CORONEL LEITAO                      IRAJA       21235220RIO DE JANEIRO RJUNIAO UMB DOS CULTOS AFRO BRAS    31011910 000037
10231987175000168817800093673    000033453                    000334530000000000000109                     I0233453     10011900000000350003410000017N221118104700000000000101001190000000000000000000000000000000000000000100051357909772GLICIA CALDAS GONCALVES DA SIL          RUA: HONORIO DE ALMEIDA                 IRAJA       21235490RIO DE JANEIRO RJUNIAO UMB DOS CULTOS AFRO BRAS    10011910 000038
10231987175000168817800093673    000033147                    000331470000000000000109                     I0233147     20121800000000350003410000017N291018104700000000000102012180000000000000000000000000000000000000000100010860605710MARCIA DA SILVA SIRIACO DA CON          RUA PADRE GIL                           PARQUE BONEV25907096MAGE           RJUNIAO UMB DOS CULTOS AFRO BRAS    20121810 000039
10231987175000168817800093673    000033063                    000330630000000000000109                     I0233063     25011900000000400003410000017N291018104700000000000102501190000000000000000000000000000000000000000100007299785757EDSON NUNES DE SOUZA FILHO              AVENIDA GOUVEIA                         VILA LAGE - 24415050SAO GONCALO    RJUNIAO UMB DOS CULTOS AFRO BRAS    25011910 000040
10231987175000168817800093673    000032807                    000328070000000000000109                     I0232807     24011900000000350003410000017N291018104700000000000102401190000000000000000000000000000000000000000100011553393716MAURO PEREIRA                           RUA RECIFE                              CABUCU      26291374NOVA IGUACU    RJUNIAO UMB DOS CULTOS AFRO BRAS    24011910 000041
10231987175000168817800093673    000032608                    000326080000000000000109                     I0232608     20121800000000350003410000017N291018104700000000000102012180000000000000000000000000000000000000000100055046010704SONIA REGINA PINTO DA SILVA             RUA ARACOIA                             BRAZ DE PINA21011140RIO DE JANEIRO RJUNIAO UMB DOS CULTOS AFRO BRAS    20121810 000042
10231987175000168817800093673    000032360                    000323600000000000000109                     I0232360     20121800000000350003410000017N291018104700000000000102012180000000000000000000000000000000000000000100010591612739ROSEMERE SOUZA DA SILVA                 ESTRADA DA AGUA GRANDE                  VISTA ALEGRE21230354RIO DE JANEIRO RJUNIAO UMB DOS CULTOS AFRO BRAS    20121810 000043
10231987175000168817800093673    000031789                    000317890000000000000109                     I0231789     20121800000000350003410000017N291018104700000000000102012180000000000000000000000000000000000000000100002203157798CARLOS EDUARDO MOREIRA BENTO            RUA WENCESLAU BRAS                      IMBARIE     25275160DUQUE DE CAXIASRJUNIAO UMB DOS CULTOS AFRO BRAS    20121810 000044
10231987175000168817800093673    000031427                    000314270000000000000109                     I0231427     20121800000000350003410000017N291018104700000000000102012180000000000000000000000000000000000000000100007485965778GRACIETE LEAO TANGUA                    RUA ROBERTO RANGEL LIMA                 MAURI - PIAB25915000MAGE           RJUNIAO UMB DOS CULTOS AFRO BRAS    20121810 000045
10231987175000168817800093673    000031248                    000312480000000000000109                     I0231248     20121800000000350003410000017N291018104700000000000102012180000000000000000000000000000000000000000100087683431753MARINEIDE DOS SANTOS GUIMARAES          RUA ERNESTO CARDOSO                     CENTRO - CHA26521450NILOPOLIS      RJUNIAO UMB DOS CULTOS AFRO BRAS    20121810 000046
10231987175000168817800093673    000031133                    000311330000000000000109                     I0231133     20121800000000350003410000017N291018104700000000000102012180000000000000000000000000000000000000000100002126696723LUCI DA CUNHA ARTUR                     AVENIDA FRANCISCO CHRISOSTOMOS TORRES   PINTO DA SER27286440VOLTA REDONDA  RJUNIAO UMB DOS CULTOS AFRO BRAS    20121810 000047
10231987175000168817800093673    000030799                    000307990000000000000109                     I0230799     20121800000000350003410000017N291018104700000000000102012180000000000000000000000000000000000000000100095032061700CILEIA DA ROCHA PACHECO                 RUA DA FLORALIA                         SANTA BARBAR24350000RIO DE JANEIRO RJUNIAO UMB DOS CULTOS AFRO BRAS    20121810 000048
10231987175000168817800093673    000030634                    000306340000000000000109                     I0230634     20121800000000350003410000017N291018104700000000000102012180000000000000000000000000000000000000000100001173292748REINALTO BATISTA SILVEIRA               RUA MANOEL MACHADO DE OLIVEIRA          INHOAIBA    23063348RIO DE JANEIRO RJUNIAO UMB DOS CULTOS AFRO BRAS    20121810 000049
10231987175000168817800093673    000030410                    000304100000000000000109                     I0230410     20121800000000350003410000017N291018104700000000000102012180000000000000000000000000000000000000000100085975346720ROSANGELA DUTRA FERREIRA                RUA CORONEL LEITAO                      IRAJA       21235220RIO DE JANEIRO RJUNIAO UMB DOS CULTOS AFRO BRAS    20121810 000050
10231987175000168817800093673    000029960                    000299600000000000000109                     I0229960     20121800000000035003410000017N291018104700000000000102012180000000000000000000000000000000000000000100055046010704SONIA REGINA PINTO DA SILVA             RUA ARACOIA                             BRAZ DE PINA21011140RIO DE JANEIRO RJUNIAO UMB DOS CULTOS AFRO BRAS    20121810 000051
10231987175000168817800093673    000029824                    000298240000000000000109                     I0229824     20121800000000035003410000017N291018104700000000000102012180000000000000000000000000000000000000000100010591612739ROSEMERE SOUZA DA SILVA                 ESTRADA DA AGUA GRANDE                  VISTA ALEGRE21230354RIO DE JANEIRO RJUNIAO UMB DOS CULTOS AFRO BRAS    20121810 000052
10231987175000168817800093673    000029694                    000296940000000000000109                     I0229694     20121800000000035003410000017N291018104700000000000102012180000000000000000000000000000000000000000100059475161791MARIA NAZARETE ALVES ANTONIO            TRAVESSA SANTOS DUMONT                  ILHA DO GOVE21910490RIO DE JANEIRO RJUNIAO UMB DOS CULTOS AFRO BRAS    20121810 000053
9                                                                                                                                                                                                                                                                                                                                                                                                         000054
