01REMESSA01COBRANCA       916200163100        União Umb dos Cultos Afro Bra341BANCO ITAU SA  110619                                                                                                                                                                                                                                                                                                      000001
10231987175000168916200163100    000045356                    000453560000000000000109                     I0245356     10061900000000135003410000017N060619105700000000000451006190000000000000000000000000000000000000000100008331240723MONIQUE SUZANO ASSUNCAO DE OLI          RUA: DIVINOPOLIS N 35,                  BENTO RIBEIR21550280RIO DE JANEIRO RJUNIAO UMB DOS CULTOS AFRO BRAS    10061915 000002
21100620190000000000270                                                                                                                                                                                                                                                                                                                                                                                   000003
10231987175000168916200163100    000044734                    000447340000000000000109                     I3444734     30061900000000040003410000017N130319105700000000000133006190000000000000000000000000000000000000000100000848852702RODNEY MARQUES                          RUA PEREIRA LEITAON 4, A                TURIACU     21550100RIO DE JANEIRO RJUNIAO UMB DOS CULTOS AFRO BRAS    30061915 000004
21300620190000000000080                                                                                                                                                                                                                                                                                                                                                                                   000005
10231987175000168916200163100    000044203                    000442030000000000000109                     I0244203     30061900000000040003410000017N130319105700000000000133006190000000000000000000000000000000000000000100004826958706CRISTIANE RABELLO PAZ                   RUA: ROBERTO SILVAN 540,                RAMOS       21060230RIO DE JANEIRO RJUNIAO UMB DOS CULTOS AFRO BRAS    30061915 000006
21300620190000000000080                                                                                                                                                                                                                                                                                                                                                                                   000007
10231987175000168916200163100    000043717                    000437170000000000000109                     I0243717     30061900000000040003410000017N130319105700000000000133006190000000000000000000000000000000000000000100008331240723MONIQUE SUZANO ASSUNCAO DE OLI          RUA: DIVINOPOLIS N 35,                  BENTO RIBEIR21550280RIO DE JANEIRO RJUNIAO UMB DOS CULTOS AFRO BRAS    30061915 000008
21300620190000000000080                                                                                                                                                                                                                                                                                                                                                                                   000009
10231987175000168916200163100    000043183                    000431830000000000000109                     I3443183     30061900000000040003410000017N130319105700000000000133006190000000000000000000000000000000000000000100069113777734MANOELLA MARIA DA CONCEICAO             RUA PIRES DO RION 928,                  EDEN        25540510SAO JOAO DE MERRJUNIAO UMB DOS CULTOS AFRO BRAS    30061915 000010
21300620190000000000080                                                                                                                                                                                                                                                                                                                                                                                   000011
10231987175000168916200163100    000043129                    000431290000000000000109                     I0243129     30051900000000040003410000017N130319105700000000000133005190000000000000000000000000000000000000000100093759215734LACY DE SOUZA NERYS                     RUA ARTICA N 77,                        COMENDADOR S26276180NOVA IGUACU    RJUNIAO UMB DOS CULTOS AFRO BRAS    30051915 000012
21300520190000000000080                                                                                                                                                                                                                                                                                                                                                                                   000013
10231987175000168916200163100    000043080                    000430800000000000000109                     I3443080     30051900000000040003410000017N130319105700000000000133005190000000000000000000000000000000000000000100000848852702RODNEY MARQUES                          RUA PEREIRA LEITAON 4, A                TURIACU     21550100RIO DE JANEIRO RJUNIAO UMB DOS CULTOS AFRO BRAS    30051915 000014
21300520190000000000080                                                                                                                                                                                                                                                                                                                                                                                   000015
10231987175000168916200163100    000042821                    000428210000000000000109                     I3442821     30051900000000040003410000017N130319105700000000000133005190000000000000000000000000000000000000000100002362714748MAGLENE GOMES ARAUJO                    RUA TENENTE PINTO DUARTE N 36,          BENTO RIBEIR21550370RIO DE JANEIRO RJUNIAO UMB DOS CULTOS AFRO BRAS    30051915 000016
21300520190000000000080                                                                                                                                                                                                                                                                                                                                                                                   000017
10231987175000168916200163100    000042815                    000428150000000000000109                     I0242815     30051900000000040003410000017N130319105700000000000133005190000000000000000000000000000000000000000100010426625765ALESSANDRA LAURIANO LIMA DOMIN          RUA PROJETADAN 4,                       ANCORA      28899515RIO DAS OSTRAS RJUNIAO UMB DOS CULTOS AFRO BRAS    30051915 000018
21300520190000000000080                                                                                                                                                                                                                                                                                                                                                                                   000019
10231987175000168916200163100    000042557                    000425570000000000000109                     I0242557     30051900000000040003410000017N130319105700000000000133005190000000000000000000000000000000000000000100004826958706CRISTIANE RABELLO PAZ                   RUA: ROBERTO SILVAN 540,                RAMOS       21060230RIO DE JANEIRO RJUNIAO UMB DOS CULTOS AFRO BRAS    30051915 000020
21300520190000000000080                                                                                                                                                                                                                                                                                                                                                                                   000021
10231987175000168916200163100    000042331                    000423310000000000000109                     I3442331     30051900000000040003410000017N130319105700000000000133005190000000000000000000000000000000000000000100043839312787GILDA MANOELA                           RUA DOS CRISANTEMOSN 0, LOTE 28 QUADRA 2PRADOS VERDE26299039NOVA IGUACU    RJUNIAO UMB DOS CULTOS AFRO BRAS    30051915 000022
21300520190000000000080                                                                                                                                                                                                                                                                                                                                                                                   000023
10231987175000168916200163100    000042277                    000422770000000000000109                     I0242277     30051900000000040003410000017N130319105700000000000133005190000000000000000000000000000000000000000100059259523753NILO SERGIO SANTOS BARCELLOS            ESTRADA CORONEL VIEIRAN 134, BLOCO 4 APTIRAJA       21220310RIO DE JANEIRO RJUNIAO UMB DOS CULTOS AFRO BRAS    30051915 000024
21300520190000000000080                                                                                                                                                                                                                                                                                                                                                                                   000025
10231987175000168916200163100    000042134                    000421340000000000000109                     I3442134     30051900000000040003410000017N130319105700000000000133005190000000000000000000000000000000000000000212875208000133ILE ASE OMIM WURA                       RUA QUARENTA E CINCON 0, LOTE 20 QUADRA CAMPO LINDO 23898170SEROPEDICA     RJUNIAO UMB DOS CULTOS AFRO BRAS    30051915 000026
21300520190000000000080                                                                                                                                                                                                                                                                                                                                                                                   000027
10231987175000168916200163100    000042073                    000420730000000000000109                     I0242073     30051900000000040003410000017N130319105700000000000133005190000000000000000000000000000000000000000100008331240723MONIQUE SUZANO ASSUNCAO DE OLI          RUA: DIVINOPOLIS N 35,                  BENTO RIBEIR21550280RIO DE JANEIRO RJUNIAO UMB DOS CULTOS AFRO BRAS    30051915 000028
21300520190000000000080                                                                                                                                                                                                                                                                                                                                                                                   000029
10231987175000168916200163100    000041688                    000416880000000000000109                     I0241688     30051900000000040003410000017N130319105700000000000133005190000000000000000000000000000000000000000100003537257732MARIA APARECIDA RISTICH MACHAD          RUA DIAS DA CRUZ N 923,                 MEIER       20720011RIO DE JANEIRO RJUNIAO UMB DOS CULTOS AFRO BRAS    30051915 000030
21300520190000000000080                                                                                                                                                                                                                                                                                                                                                                                   000031
10231987175000168916200163100    000041543                    000415430000000000000109                     I3441543     30051900000000040003410000017N130319105700000000000133005190000000000000000000000000000000000000000100069113777734MANOELLA MARIA DA CONCEICAO             RUA PIRES DO RION 928,                  EDEN        25540510SAO JOAO DE MERRJUNIAO UMB DOS CULTOS AFRO BRAS    30051915 000032
21300520190000000000080                                                                                                                                                                                                                                                                                                                                                                                   000033
10231987175000168916200163100    000041512                    000415120000000000000109                     I0241512     30051900000000040003410000017N130319105700000000000133005190000000000000000000000000000000000000000100001686254741ADELIA DE OLIVEIRA AZEVEDO              RUA CORONEL CAMISAON 842,               CORDOVIL    21250290RIO DE JANEIRO RJUNIAO UMB DOS CULTOS AFRO BRAS    30051915 000034
21300520190000000000080                                                                                                                                                                                                                                                                                                                                                                                   000035
10231987175000168916200163100    000041487                    000414870000000000000109                     I0241487     30041900000000040003410000017N120319105700000000000133004190000000000000000000000000000000000000000100093759215734LACY DE SOUZA NERYS                     RUA ARTICA N 77,                        COMENDADOR S26276180NOVA IGUACU    RJUNIAO UMB DOS CULTOS AFRO BRAS    30041915 000036
21300420190000000000080                                                                                                                                                                                                                                                                                                                                                                                   000037
10231987175000168916200163100    000041438                    000414380000000000000109                     I3441438     30041900000000040003410000017N120319105700000000000133004190000000000000000000000000000000000000000100000848852702RODNEY MARQUES                          RUA PEREIRA LEITAON 4, A                TURIACU     21550100RIO DE JANEIRO RJUNIAO UMB DOS CULTOS AFRO BRAS    30041915 000038
21300420190000000000080                                                                                                                                                                                                                                                                                                                                                                                   000039
10231987175000168916200163100    000041182                    000411820000000000000109                     I3441182     30041900000000040003410000017N120319105700000000000133004190000000000000000000000000000000000000000100002362714748MAGLENE GOMES ARAUJO                    RUA TENENTE PINTO DUARTE N 36,          BENTO RIBEIR21550370RIO DE JANEIRO RJUNIAO UMB DOS CULTOS AFRO BRAS    30041915 000040
21300420190000000000080                                                                                                                                                                                                                                                                                                                                                                                   000041
10231987175000168916200163100    000041176                    000411760000000000000109                     I0241176     30041900000000040003410000017N120319105700000000000133004190000000000000000000000000000000000000000100010426625765ALESSANDRA LAURIANO LIMA DOMIN          RUA PROJETADAN 4,                       ANCORA      28899515RIO DAS OSTRAS RJUNIAO UMB DOS CULTOS AFRO BRAS    30041915 000042
21300420190000000000080                                                                                                                                                                                                                                                                                                                                                                                   000043
10231987175000168916200163100    000040920                    000409200000000000000109                     I0240920     30041900000000040003410000017N120319105700000000000133004190000000000000000000000000000000000000000100004826958706CRISTIANE RABELLO PAZ                   RUA: ROBERTO SILVAN 540,                RAMOS       21060230RIO DE JANEIRO RJUNIAO UMB DOS CULTOS AFRO BRAS    30041915 000044
21300420190000000000080                                                                                                                                                                                                                                                                                                                                                                                   000045
10231987175000168916200163100    000040768                    000407680000000000000109                     I0240768     30041900000000040003410000017N120319105700000000000133004190000000000000000000000000000000000000000100074597035753LUCIMAR DE SOUZA DIAS                   RUA LIGIA MALAGUTEN 150,                JARDIM GUAND26298234NOVA IGUACU    RJUNIAO UMB DOS CULTOS AFRO BRAS    30041915 000046
21300420190000000000080                                                                                                                                                                                                                                                                                                                                                                                   000047
10231987175000168916200163100    000040439                    000404390000000000000109                     I0240439     30041900000000040003410000017N120319105700000000000133004190000000000000000000000000000000000000000100008331240723MONIQUE SUZANO ASSUNCAO DE OLI          RUA: DIVINOPOLIS N 35,                  BENTO RIBEIR21550280RIO DE JANEIRO RJUNIAO UMB DOS CULTOS AFRO BRAS    30041915 000048
21300420190000000000080                                                                                                                                                                                                                                                                                                                                                                                   000049
10231987175000168916200163100    000040056                    000400560000000000000109                     I0240056     30041900000000040003410000017N120319105700000000000133004190000000000000000000000000000000000000000100003537257732MARIA APARECIDA RISTICH MACHAD          RUA DIAS DA CRUZ N 923,                 MEIER       20720011RIO DE JANEIRO RJUNIAO UMB DOS CULTOS AFRO BRAS    30041915 000050
21300420190000000000080                                                                                                                                                                                                                                                                                                                                                                                   000051
9                                                                                                                                                                                                                                                                                                                                                                                                         000052
