01REMESSA01COBRANCA       817800093673        União Umb dos Cultos Afro Bra341BANCO ITAU SA  031218                                                                                                                                                                                                                                                                                                      000001
10231987175000168817800093673    000033517                    000335170000000000000109                     I0133517     05011900000000350003410000017N031218104700000000000100501190000000000000000000000000000000000000000100031672582768IVANIA MOURA DE PAIVA                   ESTRADA: DA GROTA FUNDA                 JACAREPAGUA 22785330RIO DE JANEIRO RJUNIAO UMB DOS CULTOS AFRO BRAS    05011910 000002
10231987175000168817800093673    000033516                    000335160000000000000109                     I0133516     20121800000000480003410000017N031218104700000000000102012180000000000000000000000000000000000000000100011643192728LUCIA FERNANDA DA SILVEIRA              RUA PETROPOLIS                          VILA DE CAVA26052200NOVA IGUACU    RJUNIAO UMB DOS CULTOS AFRO BRAS    20121810 000003
10231987175000168817800093673    000033515                    000335150000000000000109                     I0133515     20121800000000040003410000017N031218104700000000000102012180000000000000000000000000000000000000000100011643192728LUCIA FERNANDA DA SILVEIRA              RUA PETROPOLIS                          VILA DE CAVA26052200NOVA IGUACU    RJUNIAO UMB DOS CULTOS AFRO BRAS    20121810 000004
10231987175000168817800093673    000033514                    000335140000000000000109                     I0133514     07121800000000120003410000017N031218104700000000000100712180000000000000000000000000000000000000000100008722484701ANA PAULA SILVA DA CRUZ                 RUA ELVIRA DA FONSECA                   LARGO DO TAN22733150RIO DE JANEIRO RJUNIAO UMB DOS CULTOS AFRO BRAS    07121810 000005
10231987175000168817800093673    000033513                    000335130000000000000109                     I0133513     10121800000000035003410000017N031218104700000000000101012180000000000000000000000000000000000000000100003554736740TANIA CAMPOS CAMILLO                    RUA: GUATAMBU                           VILA ERA - S26167750BELFORD ROXO   RJUNIAO UMB DOS CULTOS AFRO BRAS    10121810 000006
10231987175000168817800093673    000033512                    000335120000000000000109                     I0133512     20121800000000400003410000017N031218104700000000000102012180000000000000000000000000000000000000000100032853890791LUIZ CARLOS COELHO DE SA                RUA JHONN STRAUSS                       MARECHAL HER21610120RIO DE JANEIRO RJUNIAO UMB DOS CULTOS AFRO BRAS    20121810 000007
10231987175000168817800093673    000033511                    000335110000000000000109                     I0133511     07121800000000035003410000017N031218104700000000000100712180000000000000000000000000000000000000000100004278587716LUCIANO GONCALVES PIRES                 RUA MARECHAL ANTONIO DE SOUSA           JARDIM AMERI21240430RIO DE JANEIRO RJUNIAO UMB DOS CULTOS AFRO BRAS    07121810 000008
10231987175000168817800093673    000033510                    000335100000000000000109                     I0133510     15011900000000100003410000017N031218104700000000000101501190000000000000000000000000000000000000000100064392791734ORDALINA PEDROZO TOMAZ DE AQUI          RUA ABEL DE ALVARENGA                   CHATUBA     26246340MESQUITA       RJUNIAO UMB DOS CULTOS AFRO BRAS    15011910 000009
10231987175000168817800093673    000033509                    000335090000000000000109                     I0133509     10121800000000035003410000017N021218104700000000000101012180000000000000000000000000000000000000000100011766861784MARIA WANDERLEIA MARTINS CRUZ           RUA BRUNO LECINI                        AUSTIN      26279255NOVA IGUACU    RJUNIAO UMB DOS CULTOS AFRO BRAS    10121810 000010
10231987175000168817800093673    000033508                    000335080000000000000109                     I0133508     10011900000000100003410000017N021218104700000000000101001190000000000000000000000000000000000000000100000308305752MAGDA DA SILVA DINELLY                  ESTRADA DO CASOROTIBA, RUA G N 768 (CONDINOA        24900000RIO DE JANEIRO RJUNIAO UMB DOS CULTOS AFRO BRAS    10011910 000011
10231987175000168817800093673    000033507                    000335070000000000000109                     I0133507     10121800000000100003410000017N021218104700000000000101012180000000000000000000000000000000000000000100000308305752MAGDA DA SILVA DINELLY                  ESTRADA DO CASOROTIBA, RUA G N 768 (CONDINOA        24900000RIO DE JANEIRO RJUNIAO UMB DOS CULTOS AFRO BRAS    10121810 000012
10231987175000168817800093673    000033506                    000335060000000000000109                     I3433506     07121800000000100003410000017N021218104700000000000100712180000000000000000000000000000000000000000100005552174771COSME DIAS DA SILVA                     TRAVESSA JOSELINA DE ANDRADE            PORTO NOVO  24435811SAO GONCALO    RJUNIAO UMB DOS CULTOS AFRO BRAS    07121810 000013
10231987175000168817800093673    000033505                    000335050000000000000109                     I0133505     10121800000000050003410000017N011218104700000000000101012180000000000000000000000000000000000000000100090817095772ANTONIO FERNANDO MARTORELLI             RUA ISIDRO ROCHA                        VIGARIO GERA21241180RIO DE JANEIRO RJUNIAO UMB DOS CULTOS AFRO BRAS    10121810 000014
10231987175000168817800093673    000033504                    000335040000000000000109                     I0133504     31121800000000350003410000017N011218104700000000000103112180000000000000000000000000000000000000000100003606187742WANDERLUCE GOMES DA SILVA               RUA: TREZE DE MAIO                      CENTRO      25065190DUQUE DE CAXIASRJUNIAO UMB DOS CULTOS AFRO BRAS    31121810 000015
10231987175000168817800093673    000033488                    000334880000000000000109                     I0233488     10121800000000210003410000017N271118104700000000000101012180000000000000000000000000000000000000000100089682300487STIVES FERREIRA DA SILVA                RUA OSVALDO EVANGELISTA DOS SANTOS      BANGU       21864530RIO DE JANEIRO RJUNIAO UMB DOS CULTOS AFRO BRAS    10121810 000016
10231987175000168817800093673    000033436                    000334360000000000000109                     I3433436     20121800000000040003410000017N191118104700000000000102012180000000000000000000000000000000000000000100000462841766RONALDO SANTOS DE SOUZA                 RUA: PINHEIRO                           VILA CORINGA27321420BARRA MANSA    RJUNIAO UMB DOS CULTOS AFRO BRAS    20121810 000017
10231987175000168817800093673    000033434                    000334340000000000000109                     I0233434     30111800000000420003410000017N191118104700000000000103011180000000000000000000000000000000000000000100000000000000DALILA DE SOUZA PINHEIRO                RUA JOAO BRIGIDO                        MAGALHAES BA21745480RIO DE JANEIRO RJUNIAO UMB DOS CULTOS AFRO BRAS    30111810 000018
10231987175000168817800093673    000033082                    000330820000000000000109                     I0233082     20121800000000350003410000017N291018104700000000000102012180000000000000000000000000000000000000000100012519709740KARINE NOVAIS DE ANDRADE                RUA SOLDADO DAMASIO GOMES               CURICICA - J22780610RIO DE JANEIRO RJUNIAO UMB DOS CULTOS AFRO BRAS    20121810 000019
10231987175000168817800093673    000032573                    000325730000000000000109                     I0232573     20121800000000350003410000017N291018104700000000000102012180000000000000000000000000000000000000000100009979098708WASHINGTON BENTO DA CUNHA               RUA ABAETE                              EDEN        25535180SAO JOAO DE MERRJUNIAO UMB DOS CULTOS AFRO BRAS    20121810 000020
10231987175000168817800093673    000032383                    000323830000000000000109                     I3432383     20121800000000350003410000017N291018104700000000000102012180000000000000000000000000000000000000000100002855158755KATIA DE OLIVEIRA BAPTISTA              RUA MATUSALEM                           CURICICA - J22711080RIO DE JANEIRO RJUNIAO UMB DOS CULTOS AFRO BRAS    20121810 000021
10231987175000168817800093673    000032363                    000323630000000000000109                     I3432363     20121800000000350003410000017N291018104700000000000102012180000000000000000000000000000000000000000100002437606718FABIO VICTOR BARRETO                    RUA BARAO DE JAGUARI                    IRAJA       21235555RIO DE JANEIRO RJUNIAO UMB DOS CULTOS AFRO BRAS    20121810 000022
10231987175000168817800093673    000032211                    000322110000000000000109                     I3432211     20121800000000450003410000017N291018104700000000000102012180000000000000000000000000000000000000000100062501208668JOSANIA APARECIDA DE ANDRADE S          RUA JOAO RIBEIRO NOVAES                 VILA ESPERAN39090600JUIZ DE FORA   MGUNIAO UMB DOS CULTOS AFRO BRAS    20121810 000023
10231987175000168817800093673    000031991                    000319910000000000000109                     I3431991     20121800000000400003410000017N291018104700000000000102012180000000000000000000000000000000000000000100041488970734EDICLEA DE PAIVA DAMASIO                RUA OTAVIO TARQUINO DE SOUZA            MUTUAPIRA   24465330SAO GONCALO    RJUNIAO UMB DOS CULTOS AFRO BRAS    20121810 000024
10231987175000168817800093673    000031449                    000314490000000000000109                     I3431449     20121800000000350003410000017N291018104700000000000102012180000000000000000000000000000000000000000100001457331730MIRIAN ANSELMO DE SOUZA SANTOS          RUA CRISTIANO OTONI                     ALMERINDA - 24740004SAO GONCALO    RJUNIAO UMB DOS CULTOS AFRO BRAS    20121810 000025
10231987175000168817800093673    000031407                    000314070000000000000109                     I0231407     20121800000000400003410000017N291018104700000000000102012180000000000000000000000000000000000000000100032853890791LUIZ CARLOS COELHO DE SA                RUA JHONN STRAUSS                       MARECHAL HER21610120RIO DE JANEIRO RJUNIAO UMB DOS CULTOS AFRO BRAS    20121810 000026
10231987175000168817800093673    000031363                    000313630000000000000109                     I0231363     20121800000000400003410000017N291018104700000000000102012180000000000000000000000000000000000000000100002919276700ALTIVA CARVALHO DE QUEIROZ              RUA IGARATA,                            MARECHAL HER21555250RIO DE JANEIRO RJUNIAO UMB DOS CULTOS AFRO BRAS    20121810 000027
10231987175000168817800093673    000031318                    000313180000000000000109                     I0231318     20121800000000350003410000017N291018104700000000000102012180000000000000000000000000000000000000000100004471243748MARIA IEDA DE ALMEIDA DA SILVA          PRACA JOAO CAETANO                      LAUREANO    25065240DUQUE DE CAXIASRJUNIAO UMB DOS CULTOS AFRO BRAS    20121810 000028
10231987175000168817800093673    000031190                    000311900000000000000109                     I0231190     20121800000000350003410000017N291018104700000000000102012180000000000000000000000000000000000000000100004470061778EVANDRO DE OLIVEIRA PIO                 AVENIDA CORONEL RAIMUNDO SAMPAIO        VILA SAO JOA25570393SAO JOAO DE MERRJUNIAO UMB DOS CULTOS AFRO BRAS    20121810 000029
10231987175000168817800093673    000031139                    000311390000000000000109                     I3431139     20121800000000350003410000017N291018104700000000000102012180000000000000000000000000000000000000000100068147546734SUELI TEIXEIRA NEVES                    RUA E                                   INOA        21220010RIO DE JANEIRO RJUNIAO UMB DOS CULTOS AFRO BRAS    20121810 000030
10231987175000168817800093673    000030947                    000309470000000000000109                     I3430947     20121800000000350003410000017N291018104700000000000102012180000000000000000000000000000000000000000100005552174771COSME DIAS DA SILVA                     TRAVESSA JOSELINA DE ANDRADE            PORTO NOVO  24435811SAO GONCALO    RJUNIAO UMB DOS CULTOS AFRO BRAS    20121810 000031
10231987175000168817800093673    000030919                    000309190000000000000109                     I3430919     20121800000000350003410000017N291018104700000000000102012180000000000000000000000000000000000000000100075352109704DAGMAR MARQUES FIGUEIREDO               RUA PROJETADA                           AMENDOEIRA  24730165SAO GONCALO    RJUNIAO UMB DOS CULTOS AFRO BRAS    20121810 000032
10231987175000168817800093673    000030888                    000308880000000000000109                     I0230888     20121800000000400003410000017N291018104700000000000102012180000000000000000000000000000000000000000100000000000783MARIETA LOPES DE ALMEIDA                RUA JUIZ DE FORA                        SAO BENTO   25041010DUQUE DE CAXIASRJUNIAO UMB DOS CULTOS AFRO BRAS    20121810 000033
10231987175000168817800093673    000030887                    000308870000000000000109                     I0230887     20121800000000350003410000017N291018104700000000000102012180000000000000000000000000000000000000000100058504060772MARLI SOARES DA SILVA                   RUA VASSOURAS                           VILA SAO JOA25570655SAO JOAO DE MERRJUNIAO UMB DOS CULTOS AFRO BRAS    20121810 000034
10231987175000168817800093673    000030666                    000306660000000000000109                     I0230666     20121800000000350003410000017N291018104700000000000102012180000000000000000000000000000000000000000100092239587768JURACIARA FERREIRA DOS SANTOS           RUA TORIBA                              COLEGIO     21545260RIO DE JANEIRO RJUNIAO UMB DOS CULTOS AFRO BRAS    20121810 000035
10231987175000168817800093673    000030605                    000306050000000000000109                     I0230605     20121800000000350003410000017N291018104700000000000102012180000000000000000000000000000000000000000100070540691768ALVARO DE FREITAS FEILO                 PRACA GUANARE                           SANTA CRUZ -23520530RIO DE JANEIRO RJUNIAO UMB DOS CULTOS AFRO BRAS    20121810 000036
10231987175000168817800093673    000030473                    000304730000000000000109                     I3430473     20121800000000350003410000017N291018104700000000000102012180000000000000000000000000000000000000000100000561922748SALVADOR MOLINA TRINDADE                RUA INARE                               CASCADURA   21311190RIO DE JANEIRO RJUNIAO UMB DOS CULTOS AFRO BRAS    20121810 000037
10231987175000168817800093673    000030136                    000301360000000000000109                     I3430136     20121800000000035003410000017N291018104700000000000102012180000000000000000000000000000000000000000100002638717703EDINO GOMES DE BARROS JUNIOR            RUA PARANA                              MORRO DO ORI24400000SAO GONCALO    RJUNIAO UMB DOS CULTOS AFRO BRAS    20121810 000038
10231987175000168817800093673    000029937                    000299370000000000000109                     I0229937     20121800000000035003410000017N291018104700000000000102012180000000000000000000000000000000000000000100009979098708WASHINGTON BENTO DA CUNHA               RUA ABAETE                              EDEN        25535180SAO JOAO DE MERRJUNIAO UMB DOS CULTOS AFRO BRAS    20121810 000039
10231987175000168817800093673    000029825                    000298250000000000000109                     I3429825     20121800000000035003410000017N291018104700000000000102012180000000000000000000000000000000000000000100002437606718FABIO VICTOR BARRETO                    RUA BARAO DE JAGUARI                    IRAJA       21235555RIO DE JANEIRO RJUNIAO UMB DOS CULTOS AFRO BRAS    20121810 000040
10231987175000168817800093673    000029815                    000298150000000000000109                     I3429815     20121800000000035003410000017N291018104700000000000102012180000000000000000000000000000000000000000100008762385763JANAINA CORREIA DA ROCHA                RUA VISCONDE DE MAGE                    TAQUARA     25275050DUQUE DE CAXIASRJUNIAO UMB DOS CULTOS AFRO BRAS    20121810 000041
10231987175000168817800093673    000029421                    000294210000000000000109                     I3429421     20121800000000035003410000017N291018104700000000000102012180000000000000000000000000000000000000000100001457331730MIRIAN ANSELMO DE SOUZA SANTOS          RUA CRISTIANO OTONI                     ALMERINDA - 24740004SAO GONCALO    RJUNIAO UMB DOS CULTOS AFRO BRAS    20121810 000042
10231987175000168817800093673    000029280                    000292800000000000000109                     I3429280     20121800000000035003410000017N291018104700000000000102012180000000000000000000000000000000000000000100089682300487STIVES FERREIRA DA SILVA                RUA OSVALDO EVANGELISTA DOS SANTOS      BANGU       21864530RIO DE JANEIRO RJUNIAO UMB DOS CULTOS AFRO BRAS    20121810 000043
10231987175000168817800093673    000029243                    000292430000000000000109                     I0229243     20121800000000035003410000017N291018104700000000000102012180000000000000000000000000000000000000000100000000000000DALILA DE SOUZA PINHEIRO                RUA JOAO BRIGIDO                        MAGALHAES BA21745480RIO DE JANEIRO RJUNIAO UMB DOS CULTOS AFRO BRAS    20121810 000044
10231987175000168817800093673    000028373                    000283730000000000000109                     I0228373     30111800000000035003410000017N200818104700000000000103011180000000000000000000000000000000000000000100012345678900MARIA DA GRACA MACHADO DOS SAN          RUA ARCOZELO                            PARQUE ARARU25585560SAO JOAO DE MERRJUNIAO UMB DOS CULTOS AFRO BRAS    30111810 000045
10231987175000168817800093673    000028030                    000280300000000000000109                     I0228030     30111800000000035003410000017N200818104700000000000103011180000000000000000000000000000000000000000100009979098708WASHINGTON BENTO DA CUNHA               RUA ABAETE                              EDEN        25535180SAO JOAO DE MERRJUNIAO UMB DOS CULTOS AFRO BRAS    30111810 000046
10231987175000168817800093673    000027312                    000273120000000000000109                     I0227312     30111800000000035003410000017N200818104700000000000103011180000000000000000000000000000000000000000100000000000000DALILA DE SOUZA PINHEIRO                RUA JOAO BRIGIDO                        MAGALHAES BA21745480RIO DE JANEIRO RJUNIAO UMB DOS CULTOS AFRO BRAS    30111810 000047
10231987175000168817800093673    000025535                    000255350000000000000109                     I0225535     30101800000000035003410000017N200818104700000000000103010180000000000000000000000000000000000000000100012345678900MARIA DA GRACA MACHADO DOS SAN          RUA ARCOZELO                            PARQUE ARARU25585560SAO JOAO DE MERRJUNIAO UMB DOS CULTOS AFRO BRAS    30101810 000048
10231987175000168817800093673    000025193                    000251930000000000000109                     I0225193     30101800000000035003410000017N200818104700000000000103010180000000000000000000000000000000000000000100009979098708WASHINGTON BENTO DA CUNHA               RUA ABAETE                              EDEN        25535180SAO JOAO DE MERRJUNIAO UMB DOS CULTOS AFRO BRAS    30101810 000049
10231987175000168817800093673    000024962                    000249620000000000000109                     I0224962     30101800000000035003410000017N200818104700000000000103010180000000000000000000000000000000000000000100003554736740TANIA CAMPOS CAMILLO                    RUA: GUATAMBU                           VILA ERA - S26167750BELFORD ROXO   RJUNIAO UMB DOS CULTOS AFRO BRAS    30101810 000050
10231987175000168817800093673    000024477                    000244770000000000000109                     I0224477     30101800000000035003410000017N200818104700000000000103010180000000000000000000000000000000000000000100000000000000DALILA DE SOUZA PINHEIRO                RUA JOAO BRIGIDO                        MAGALHAES BA21745480RIO DE JANEIRO RJUNIAO UMB DOS CULTOS AFRO BRAS    30101810 000051
9                                                                                                                                                                                                                                                                                                                                                                                                         000052
