01REMESSA01COBRANCA       916200163100        União Umb dos Cultos Afro Bra341BANCO ITAU SA  240519                                                                                                                                                                                                                                                                                                      000001
10231987175000168916200163100    000045311                    000453110000000000000109                     I0145311     30061900000000040003410000017N240519105700000000000103006190000000000000000000000000000000000000000100008039869714LUCILIANE ALVES OLIVEIRA                RUA DOS TATUIS - TRAVESSA ITABORAI COM ESAMBURA (TAM28926800CABO FRIO      RJUNIAO UMB DOS CULTOS AFRO BRAS    30061915 000002
10231987175000168916200163100    000045310                    000453100000000000000109                     I0145310     30061900000000040003410000017N240519105700000000000103006190000000000000000000000000000000000000000100098959913715JENAINA ESTEVAO SOARES                  RUA DAS RAPOSASN 11, TRAVESSA TATUIS    SAMBURA (TAM28926736CABO FRIO      RJUNIAO UMB DOS CULTOS AFRO BRAS    30061915 000003
10231987175000168916200163100    000045309                    000453090000000000000109                     I0145309     30061900000000040003410000017N240519105700000000000103006190000000000000000000000000000000000000000100087545837720MARIANA MALAQUIAS DE CARVALHO           RUA MANGAIBAN 25,                       ROCHA MIRAND21540640RIO DE JANEIRO RJUNIAO UMB DOS CULTOS AFRO BRAS    30061915 000004
10231987175000168916200163100    000045308                    000453080000000000000109                     I0145308     30061900000000040003410000017N240519105700000000000103006190000000000000000000000000000000000000000100080331025787DOMINGAS REIS DE SOUZA                  RUA ARAGUAIAN 211,                      VILA SARAPUI25050300DUQUE DE CAXIASRJUNIAO UMB DOS CULTOS AFRO BRAS    30061915 000005
10231987175000168916200163100    000045307                    000453070000000000000109                     I0145307     15061900000000350003410000017N240519105700000000000101506190000000000000000000000000000000000000000100000920173713JORGE DOS SANTOS LUCAS                  RUA PPN 0,  LOTE 5 QUADRA 48            JARDIM ANHAN25264630DUQUE DE CAXIASRJUNIAO UMB DOS CULTOS AFRO BRAS    15061915 000006
10231987175000168916200163100    000045306                    000453060000000000000109                     I0145306     10061900000000280003410000017N240519105700000000000101006190000000000000000000000000000000000000000100099029359749ANDRE LUIZ REIS GRACIO                  RUA PIRAMBOIA N 130,                    SENADOR VASC23012300RIO DE JANEIRO RJUNIAO UMB DOS CULTOS AFRO BRAS    10061915 000007
10231987175000168916200163100    000045305                    000453050000000000000109                     I0145305     10071900000000300003410000017N240519105700000000000101007190000000000000000000000000000000000000000100070217491715HELENO FERNANDES DE SOUZA               ESTRADA JORNALISTA JOSE GUINAN 86,      COSMOS      23060270RIO DE JANEIRO RJUNIAO UMB DOS CULTOS AFRO BRAS    10071915 000008
10231987175000168916200163100    000045237                    000452370000000000000109                     I0245237     30051900000000040003410000017N070519105700000000000103005190000000000000000000000000000000000000000100090326237704RILDO FERREIRA DA SILVA                 RUA SEABRAN 274,                        CAMPO GRANDE23045795RIO DE JANEIRO RJUNIAO UMB DOS CULTOS AFRO BRAS    30051915 000009
10231987175000168916200163100    000045236                    000452360000000000000109                     I0245236     30061900000000040003410000017N070519105700000000000103006190000000000000000000000000000000000000000100090326237704RILDO FERREIRA DA SILVA                 RUA SEABRAN 274,                        CAMPO GRANDE23045795RIO DE JANEIRO RJUNIAO UMB DOS CULTOS AFRO BRAS    30061915 000010
9                                                                                                                                                                                                                                                                                                                                                                                                         000011
