01REMESSA01COBRANCA       817800093673        União Umb dos Cultos Afro Bra341BANCO ITAU SA  250418                                                                                                                                                                                                                                                                                                      000001
10231987175000168817800093673    000014434                    000144340000000000000109                     I0114434     30051800000000035003410000017N250418104700000000000103005180000000000000000000000000000000000000000100051265699704MARIA FATIMA DE SOUSA                   RUA MAURITI DOS SANTOS                  EDEN        25525720SAO JOAO DE MERRJUNIAO UMB DOS CULTOS AFRO BRAS    30051810 000002
10231987175000168817800093673    000014433                    000144330000000000000109                     I3414433     30111700000000035003410000017N240418104700000000000103011170000000000000000000000000000000000000000100007150949711SEVERINA BENVINDO FERREIRA              ESTRADA DO CALUNDU, LOTE 32 QUADRA 51   NOSSA SENHOR25040610DUQUE DE CAXIASRJUNIAO UMB DOS CULTOS AFRO BRAS    30111710 000003
10231987175000168817800093673    000014432                    000144320000000000000109                     I0114432     30051800000000040003410000017N240418104700000000000103005180000000000000000000000000000000000000000100094378163161ELAINE MARINHO DA SILVA                 RUA GUIRATIM N 117 FUNDOS               IRAJA - RIO 21371410RIO DE JANEIRO RJUNIAO UMB DOS CULTOS AFRO BRAS    30051810 000004
10231987175000168817800093673    000014431                    000144310000000000000109                     I0114431     30051800000000040003410000017N240418104700000000000103005180000000000000000000000000000000000000000100064494527734RONALDO ROSAS ALVES                     ESTRADA COMANDANTE                      PRATA       25976140TERESOPOLIS    RJUNIAO UMB DOS CULTOS AFRO BRAS    30051810 000005
10231987175000168817800093673    000014430                    000144300000000000000109                     I0114430     25041800000000280003410000017N240418104700000000000102504180000000000000000000000000000000000000000100064431002715SERGIO MURILO ALVES PEREIRA             RUA ROCHA, LOTE 4 QUADRA 4 CASA 2       JARDIM BONIF25565161SAO JOAO DE MERRJUNIAO UMB DOS CULTOS AFRO BRAS    25041810 000006
10231987175000168817800093673    000014429                    000144290000000000000109                     I0114429     27041800000000140003410000017N200418104700000000000102704180000000000000000000000000000000000000000100033434557768VALTER OLIVEIRA MAYRINCK                RUA SARGENTO OSMAR CLARO, 22            AMAZONAS - C23075180RIO DE JANEIRO RJUNIAO UMB DOS CULTOS AFRO BRAS    27041810 000007
10231987175000168817800093673    000014428                    000144280000000000000109                     I0114428     30041800000000105003410000017N190418104700000000000103004180000000000000000000000000000000000000000100089209001753ALDIR TEIXEIRA DE SOUZA                 RUA BELO HORIZONTE, 381                 BANGU - RIO 21815141RIO DE JANEIRO RJUNIAO UMB DOS CULTOS AFRO BRAS    30041810 000008
10231987175000168817800093673    000014425                    000144250000000000000109                     I0214425     30041800000000350003410000017N180418104700000000000103004180000000000000000000000000000000000000000100054581184720MARIA LUIZA DE SOUZA                    RUA JASMIM, 4                           POSSE - NOVA26021720NOVA IGUACU    RJUNIAO UMB DOS CULTOS AFRO BRAS    30041810 000009
10231987175000168817800093673    000013585                    000135850000000000000109                     I0213585     30051800000000035003410000017N200218104700000000000103005180000000000000000000000000000000000000000100069865752700HUGO MAGALHAES PEREIRA FILHO            RUA BAGDA, 70                           PANTANAL - D25040400DUQUE DE CAXIASRJUNIAO UMB DOS CULTOS AFRO BRAS    30051810 000010
10231987175000168817800093673    000013436                    000134360000000000000109                     I0213436     30051800000000035003410000017N200218104700000000000103005180000000000000000000000000000000000000000100082981191772DEJANIRA LOPES FERREIRA                 RUA JOSE BENTO DE OLIVEIRA, 129         QUIMICA - BA27130270BARRA DO PIRAI RJUNIAO UMB DOS CULTOS AFRO BRAS    30051810 000011
10231987175000168817800093673    000013262                    000132620000000000000109                     I0213262     30051800000000035003410000017N200218104700000000000103005180000000000000000000000000000000000000000100011648306780PEDRO HENRIQUE MARQUES RODRIGU          ESTRADA JOSE GOMES DA COSTA JUNIOR, 2475POSSE - TERE25973003TERESOPOLIS    RJUNIAO UMB DOS CULTOS AFRO BRAS    30051810 000012
10231987175000168817800093673    000013148                    000131480000000000000109                     I0213148     30051800000000035003410000017N200218104700000000000103005180000000000000000000000000000000000000000100002673106766JANAINA MARQUES ALVES SANTOS T          RUA C LOTE 6 QUADRA 3                   BASILIO - RI28800000RIO DE JANEIRO RJUNIAO UMB DOS CULTOS AFRO BRAS    30051810 000013
10231987175000168817800093673    000012973                    000129730000000000000109                     I0212973     30051800000000035003410000017N200218104700000000000103005180000000000000000000000000000000000000000100083762507791LOURIZETE SANTOS DA SILVA LEIT          RUA MARIA RITA                          PORTO NOVO -24431740SAO GONCALO    RJUNIAO UMB DOS CULTOS AFRO BRAS    30051810 000014
10231987175000168817800093673    000012945                    000129450000000000000109                     I0212945     30051800000000035003410000017N200218104700000000000103005180000000000000000000000000000000000000000100009070035758LILIAN DUARTE COSTA                     RUA DELFIM MOREIRA, 2397                VALE PARAISO25976016TERESOPOLIS    RJUNIAO UMB DOS CULTOS AFRO BRAS    30051810 000015
10231987175000168817800093673    000012696                    000126960000000000000109                     I0212696     30051800000000035003410000017N200218104700000000000103005180000000000000000000000000000000000000000100009443831732RAFAEL LUIZ SOARES FERREIRA             RUA COMANDANTE COELHO, 647              CORDOVIL - R21250510RIO DE JANEIRO RJUNIAO UMB DOS CULTOS AFRO BRAS    30051810 000016
10231987175000168817800093673    000012690                    000126900000000000000109                     I0212690     30051800000000035003410000017N200218104700000000000103005180000000000000000000000000000000000000000100062188739787MARIO MACHADO DA CAMARA BRAZAO          RUA ALDEMAR PAIVA N 138                 BADU - PENDO24320230NITEROI        RJUNIAO UMB DOS CULTOS AFRO BRAS    30051810 000017
10231987175000168817800093673    000012010                    000120100000000000000109                     I0212010     30041800000000035003410000017N200218104700000000000103004180000000000000000000000000000000000000000100008091112769ALINE BEATRIZ GARCIA DA SILVA           RUA ENGENHEIRO HENRIQUE LUSSACK N 936   CENTRO - MES26553500MESQUITA       RJUNIAO UMB DOS CULTOS AFRO BRAS    30041810 000018
10231987175000168817800093673    000011976                    000119760000000000000109                     I0211976     30041800000000035003410000017N200218104700000000000103004180000000000000000000000000000000000000000100069865752700HUGO MAGALHAES PEREIRA FILHO            RUA BAGDA, 70                           PANTANAL - D25040400DUQUE DE CAXIASRJUNIAO UMB DOS CULTOS AFRO BRAS    30041810 000019
10231987175000168817800093673    000011827                    000118270000000000000109                     I0211827     30041800000000035003410000017N200218104700000000000103004180000000000000000000000000000000000000000100082981191772DEJANIRA LOPES FERREIRA                 RUA JOSE BENTO DE OLIVEIRA, 129         QUIMICA - BA27130270BARRA DO PIRAI RJUNIAO UMB DOS CULTOS AFRO BRAS    30041810 000020
10231987175000168817800093673    000011692                    000116920000000000000109                     I0211692     30041800000000035003410000017N200218104700000000000103004180000000000000000000000000000000000000000100001868270750CARLOS ALBERTO DO NASCIMENTO L          O MESMO                                 O MESMO     20761060RIO DE JANEIRO RJUNIAO UMB DOS CULTOS AFRO BRAS    30041810 000021
10231987175000168817800093673    000011653                    000116530000000000000109                     I0211653     30041800000000035003410000017N200218104700000000000103004180000000000000000000000000000000000000000100011648306780PEDRO HENRIQUE MARQUES RODRIGU          ESTRADA JOSE GOMES DA COSTA JUNIOR, 2475POSSE - TERE25973003TERESOPOLIS    RJUNIAO UMB DOS CULTOS AFRO BRAS    30041810 000022
10231987175000168817800093673    000011336                    000113360000000000000109                     I0211336     30041800000000035003410000017N200218104700000000000103004180000000000000000000000000000000000000000100009070035758LILIAN DUARTE COSTA                     RUA DELFIM MOREIRA, 2397                VALE PARAISO25976016TERESOPOLIS    RJUNIAO UMB DOS CULTOS AFRO BRAS    30041810 000023
10231987175000168817800093673    000011223                    000112230000000000000109                     I0211223     30041800000000035003410000017N200218104700000000000103004180000000000000000000000000000000000000000100001457331730MIRIAN ANSELMO DE SOUZA SANTOS          RUA CRISTIANO OTONI, LT 25 QD 1         ALMERINDA - 24740004SAO GONCALO    RJUNIAO UMB DOS CULTOS AFRO BRAS    30041810 000024
10231987175000168817800093673    000011160                    000111600000000000000109                     I0211160     30041800000000035003410000017N200218104700000000000103004180000000000000000000000000000000000000000100064431002715SERGIO MURILO ALVES PEREIRA             RUA ROCHA, LOTE 4 QUADRA 4 CASA 2       JARDIM BONIF25565161SAO JOAO DE MERRJUNIAO UMB DOS CULTOS AFRO BRAS    30041810 000025
10231987175000168817800093673    000011087                    000110870000000000000109                     I0211087     30041800000000035003410000017N200218104700000000000103004180000000000000000000000000000000000000000100009443831732RAFAEL LUIZ SOARES FERREIRA             RUA COMANDANTE COELHO, 647              CORDOVIL - R21250510RIO DE JANEIRO RJUNIAO UMB DOS CULTOS AFRO BRAS    30041810 000026
10231987175000168817800093673    000011081                    000110810000000000000109                     I0211081     30041800000000035003410000017N200218104700000000000103004180000000000000000000000000000000000000000100062188739787MARIO MACHADO DA CAMARA BRAZAO          RUA ALDEMAR PAIVA N 138                 BADU - PENDO24320230NITEROI        RJUNIAO UMB DOS CULTOS AFRO BRAS    30041810 000027
10231987175000168817800093673    000010865                    000108650000000000000109                     I0210865     30041800000000035003410000017N200218104700000000000103004180000000000000000000000000000000000000000100071002782791ELIANE PIRES SOUZA                      RUA IBITINGA LT 9 QD 3 - PRQ S BERNARDO O MESMO     26167160BELFORD ROXO   RJUNIAO UMB DOS CULTOS AFRO BRAS    30041810 000028
10231987175000168817800093673    000010825                    000108250000000000000109                     I0210825     30041800000000035003410000017N200218104700000000000103004180000000000000000000000000000000000000000100043082033768LEILA RAMOS DE OLIVEIRA                 RUA CAPIBARIBE, 361                     CABUCU - NOV26346290NOVA IGUACU    RJUNIAO UMB DOS CULTOS AFRO BRAS    30041810 000029
10231987175000168817800093673    000010669                    000106690000000000000109                     I0210669     30031800000000035003410000017N200218104700000000000103003180000000000000000000000000000000000000000100006424589880LUIZ CARLOS BRITO                       O MESMO                                 O MESMO     26063230NOVA IGUACU    RJUNIAO UMB DOS CULTOS AFRO BRAS    30031810 000030
10231987175000168817800093673    000010401                    000104010000000000000109                     I0210401     30031800000000035003410000017N200218104700000000000103003180000000000000000000000000000000000000000100008091112769ALINE BEATRIZ GARCIA DA SILVA           RUA ENGENHEIRO HENRIQUE LUSSACK N 936   CENTRO - MES26553500MESQUITA       RJUNIAO UMB DOS CULTOS AFRO BRAS    30031810 000031
10231987175000168817800093673    000010367                    000103670000000000000109                     I0210367     30031800000000035003410000017N200218104700000000000103003180000000000000000000000000000000000000000100069865752700HUGO MAGALHAES PEREIRA FILHO            RUA BAGDA, 70                           PANTANAL - D25040400DUQUE DE CAXIASRJUNIAO UMB DOS CULTOS AFRO BRAS    30031810 000032
10231987175000168817800093673    000010285                    000102850000000000000109                     I0210285     30031800000000035003410000017N200218104700000000000103003180000000000000000000000000000000000000000100089209001753ALDIR TEIXEIRA DE SOUZA                 RUA BELO HORIZONTE, 381                 BANGU - RIO 21815141RIO DE JANEIRO RJUNIAO UMB DOS CULTOS AFRO BRAS    30031810 000033
10231987175000168817800093673    000010218                    000102180000000000000109                     I0210218     30031800000000035003410000017N200218104700000000000103003180000000000000000000000000000000000000000100082981191772DEJANIRA LOPES FERREIRA                 RUA JOSE BENTO DE OLIVEIRA, 129         QUIMICA - BA27130270BARRA DO PIRAI RJUNIAO UMB DOS CULTOS AFRO BRAS    30031810 000034
10231987175000168817800093673    000010044                    000100440000000000000109                     I0210044     30031800000000035003410000017N200218104700000000000103003180000000000000000000000000000000000000000100011648306780PEDRO HENRIQUE MARQUES RODRIGU          ESTRADA JOSE GOMES DA COSTA JUNIOR, 2475POSSE - TERE25973003TERESOPOLIS    RJUNIAO UMB DOS CULTOS AFRO BRAS    30031810 000035
10231987175000168817800093673    00009755                     000097550000000000000109                     I029755      30031800000000035003410000017N200218104700000000000103003180000000000000000000000000000000000000000100083762507791LOURIZETE SANTOS DA SILVA LEIT          RUA MARIA RITA                          PORTO NOVO -24431740SAO GONCALO    RJUNIAO UMB DOS CULTOS AFRO BRAS    30031810 000036
10231987175000168817800093673    00009727                     000097270000000000000109                     I029727      30031800000000035003410000017N200218104700000000000103003180000000000000000000000000000000000000000100009070035758LILIAN DUARTE COSTA                     RUA DELFIM MOREIRA, 2397                VALE PARAISO25976016TERESOPOLIS    RJUNIAO UMB DOS CULTOS AFRO BRAS    30031810 000037
10231987175000168817800093673    00009614                     000096140000000000000109                     I029614      30031800000000035003410000017N200218104700000000000103003180000000000000000000000000000000000000000100001457331730MIRIAN ANSELMO DE SOUZA SANTOS          RUA CRISTIANO OTONI, LT 25 QD 1         ALMERINDA - 24740004SAO GONCALO    RJUNIAO UMB DOS CULTOS AFRO BRAS    30031810 000038
10231987175000168817800093673    00009551                     000095510000000000000109                     I029551      30031800000000035003410000017N200218104700000000000103003180000000000000000000000000000000000000000100064431002715SERGIO MURILO ALVES PEREIRA             RUA ROCHA, LOTE 4 QUADRA 4 CASA 2       JARDIM BONIF25565161SAO JOAO DE MERRJUNIAO UMB DOS CULTOS AFRO BRAS    30031810 000039
10231987175000168817800093673    00009478                     000094780000000000000109                     I029478      30031800000000035003410000017N200218104700000000000103003180000000000000000000000000000000000000000100009443831732RAFAEL LUIZ SOARES FERREIRA             RUA COMANDANTE COELHO, 647              CORDOVIL - R21250510RIO DE JANEIRO RJUNIAO UMB DOS CULTOS AFRO BRAS    30031810 000040
10231987175000168817800093673    00009472                     000094720000000000000109                     I029472      30031800000000035003410000017N200218104700000000000103003180000000000000000000000000000000000000000100062188739787MARIO MACHADO DA CAMARA BRAZAO          RUA ALDEMAR PAIVA N 138                 BADU - PENDO24320230NITEROI        RJUNIAO UMB DOS CULTOS AFRO BRAS    30031810 000041
10231987175000168817800093673    00009256                     000092560000000000000109                     I029256      30031800000000035003410000017N200218104700000000000103003180000000000000000000000000000000000000000100071002782791ELIANE PIRES SOUZA                      RUA IBITINGA LT 9 QD 3 - PRQ S BERNARDO O MESMO     26167160BELFORD ROXO   RJUNIAO UMB DOS CULTOS AFRO BRAS    30031810 000042
10231987175000168817800093673    00008252                     000082520000000000000109                     I028252      28021800000000035003410000017N291217104700000000000102802180000000000000000000000000000000000000000100011648306780PEDRO HENRIQUE MARQUES RODRIGU          ESTRADA JOSE GOMES DA COSTA JUNIOR, 2475POSSE - TERE25973003TERESOPOLIS    RJUNIAO UMB DOS CULTOS AFRO BRAS    28021810 000043
10231987175000168817800093673    00008021                     000080210000000000000109                     I028021      28021800000000035003410000017N291217104700000000000102802180000000000000000000000000000000000000000100062188739787MARIO MACHADO DA CAMARA BRAZAO          RUA ALDEMAR PAIVA N 138                 BADU - PENDO24320230NITEROI        RJUNIAO UMB DOS CULTOS AFRO BRAS    28021810 000044
10231987175000168817800093673    00007294                     000072940000000000000109                     I027294      28021800000000035003410000017N271217104700000000000102802180000000000000000000000000000000000000000100006424589880LUIZ CARLOS BRITO                       O MESMO                                 O MESMO     26063230NOVA IGUACU    RJUNIAO UMB DOS CULTOS AFRO BRAS    28021810 000045
10231987175000168817800093673    00007007                     000070070000000000000109                     I027007      28021800000000035003410000017N271217104700000000000102802180000000000000000000000000000000000000000100069865752700HUGO MAGALHAES PEREIRA FILHO            RUA BAGDA, 70                           PANTANAL - D25040400DUQUE DE CAXIASRJUNIAO UMB DOS CULTOS AFRO BRAS    28021810 000046
10231987175000168817800093673    00006914                     000069140000000000000109                     I026914      28021800000000035003410000017N271217104700000000000102802180000000000000000000000000000000000000000100003159130452VICENTE FELICIO DA SILVA                RUA LUIZA NEOFILA PIMENTA, 156          ALTO DA CAPE59680000CAMPO GRANDE   RNUNIAO UMB DOS CULTOS AFRO BRAS    28021810 000047
10231987175000168817800093673    00006789                     000067890000000000000109                     I346789      15031800000000035003410000017N271217104700000000000101503180000000000000000000000000000000000000000100092952364753ROSANGELA SILVA SOUZA                   RUA TAMOIOS N 144                       CENTRO - NIL26520250NILOPOLIS      RJUNIAO UMB DOS CULTOS AFRO BRAS    15031810 000048
10231987175000168817800093673    00006450                     000064500000000000000109                     I026450      28021800000000035003410000017N271217104700000000000102802180000000000000000000000000000000000000000100001457331730MIRIAN ANSELMO DE SOUZA SANTOS          RUA CRISTIANO OTONI, LT 25 QD 1         ALMERINDA - 24740004SAO GONCALO    RJUNIAO UMB DOS CULTOS AFRO BRAS    28021810 000049
10231987175000168817800093673    00006406                     000064060000000000000109                     I026406      28021800000000035003410000017N271217104700000000000102802180000000000000000000000000000000000000000100064431002715SERGIO MURILO ALVES PEREIRA             RUA ROCHA, LOTE 4 QUADRA 4 CASA 2       JARDIM BONIF25565161SAO JOAO DE MERRJUNIAO UMB DOS CULTOS AFRO BRAS    28021810 000050
10231987175000168817800093673    00006353                     000063530000000000000109                     I026353      28021800000000035003410000017N271217104700000000000102802180000000000000000000000000000000000000000100009443831732RAFAEL LUIZ SOARES FERREIRA             RUA COMANDANTE COELHO, 647              CORDOVIL - R21250510RIO DE JANEIRO RJUNIAO UMB DOS CULTOS AFRO BRAS    28021810 000051
10231987175000168817800093673    00006186                     000061860000000000000109                     I026186      28021800000000035003410000017N271217104700000000000102802180000000000000000000000000000000000000000100071002782791ELIANE PIRES SOUZA                      RUA IBITINGA LT 9 QD 3 - PRQ S BERNARDO O MESMO     26167160BELFORD ROXO   RJUNIAO UMB DOS CULTOS AFRO BRAS    28021810 000052
10231987175000168817800093673    00006044                     000060440000000000000109                     I026044      31011800000000035003410000017N261217104700000000000103101180000000000000000000000000000000000000000100006424589880LUIZ CARLOS BRITO                       O MESMO                                 O MESMO     26063230NOVA IGUACU    RJUNIAO UMB DOS CULTOS AFRO BRAS    31011810 000053
10231987175000168817800093673    00005757                     000057570000000000000109                     I025757      31011800000000035003410000017N261217104700000000000103101180000000000000000000000000000000000000000100069865752700HUGO MAGALHAES PEREIRA FILHO            RUA BAGDA, 70                           PANTANAL - D25040400DUQUE DE CAXIASRJUNIAO UMB DOS CULTOS AFRO BRAS    31011810 000054
10231987175000168817800093673    00005684                     000056840000000000000109                     I025684      31011800000000035003410000017N261217104700000000000103101180000000000000000000000000000000000000000100089209001753ALDIR TEIXEIRA DE SOUZA                 RUA BELO HORIZONTE, 381                 BANGU - RIO 21815141RIO DE JANEIRO RJUNIAO UMB DOS CULTOS AFRO BRAS    31011810 000055
10231987175000168817800093673    00005664                     000056640000000000000109                     I025664      31011800000000035003410000017N261217104700000000000103101180000000000000000000000000000000000000000100003159130452VICENTE FELICIO DA SILVA                RUA LUIZA NEOFILA PIMENTA, 156          ALTO DA CAPE59680000CAMPO GRANDE   RNUNIAO UMB DOS CULTOS AFRO BRAS    31011810 000056
10231987175000168817800093673    00005200                     000052000000000000000109                     I025200      31011800000000035003410000017N261217104700000000000103101180000000000000000000000000000000000000000100001457331730MIRIAN ANSELMO DE SOUZA SANTOS          RUA CRISTIANO OTONI, LT 25 QD 1         ALMERINDA - 24740004SAO GONCALO    RJUNIAO UMB DOS CULTOS AFRO BRAS    31011810 000057
10231987175000168817800093673    00005156                     000051560000000000000109                     I025156      31011800000000035003410000017N261217104700000000000103101180000000000000000000000000000000000000000100064431002715SERGIO MURILO ALVES PEREIRA             RUA ROCHA, LOTE 4 QUADRA 4 CASA 2       JARDIM BONIF25565161SAO JOAO DE MERRJUNIAO UMB DOS CULTOS AFRO BRAS    31011810 000058
10231987175000168817800093673    00005103                     000051030000000000000109                     I025103      31011800000000035003410000017N261217104700000000000103101180000000000000000000000000000000000000000100009443831732RAFAEL LUIZ SOARES FERREIRA             RUA COMANDANTE COELHO, 647              CORDOVIL - R21250510RIO DE JANEIRO RJUNIAO UMB DOS CULTOS AFRO BRAS    31011810 000059
10231987175000168817800093673    00004936                     000049360000000000000109                     I024936      31011800000000035003410000017N261217104700000000000103101180000000000000000000000000000000000000000100071002782791ELIANE PIRES SOUZA                      RUA IBITINGA LT 9 QD 3 - PRQ S BERNARDO O MESMO     26167160BELFORD ROXO   RJUNIAO UMB DOS CULTOS AFRO BRAS    31011810 000060
9                                                                                                                                                                                                                                                                                                                                                                                                         000061
