01REMESSA01COBRANCA       817800093673        União Umb dos Cultos Afro Bra341BANCO ITAU SA  150119                                                                                                                                                                                                                                                                                                      000001
10231987175000168817800093673    000039569                    000395690000000000000109                     I0139569     31031900000000040003410000017N140119104700000000000103103190000000000000000000000000000000000000000100085838284749NILCE DOS SANTOS GABRIEL                AVENIDA VICENTE DE CARVALHO             VICENTE DE C21210000RIO DE JANEIRO RJUNIAO UMB DOS CULTOS AFRO BRAS    31031910 000002
10231987175000168817800093673    000039568                    000395680000000000000109                     I0139568     28021900000000040003410000017N140119104700000000000102802190000000000000000000000000000000000000000100085838284749NILCE DOS SANTOS GABRIEL                AVENIDA VICENTE DE CARVALHO             VICENTE DE C21210000RIO DE JANEIRO RJUNIAO UMB DOS CULTOS AFRO BRAS    28021910 000003
10231987175000168817800093673    000039567                    000395670000000000000109                     I0139567     18011900000000300003410000017N140119104700000000000101801190000000000000000000000000000000000000000100073446416749MARIA DAS GRACAS DE SOUZA LEAO          RUA ANA CARLA                           JARDIM PALMA26277475RIO DE JANEIRO RJUNIAO UMB DOS CULTOS AFRO BRAS    18011910 000004
10231987175000168817800093673    000039566                    000395660000000000000109                     I0139566     31031900000000040003410000017N140119104700000000000103103190000000000000000000000000000000000000000100005346492704VANESSA NEVES DA CONCEICAO              TRAVESSA COMPOSITOR MANOEL EUZEBIO      ACARI       21531302RIO DE JANEIRO RJUNIAO UMB DOS CULTOS AFRO BRAS    31031910 000005
10231987175000168817800093673    000039565                    000395650000000000000109                     I0139565     28021900000000040003410000017N140119104700000000000102802190000000000000000000000000000000000000000100005346492704VANESSA NEVES DA CONCEICAO              TRAVESSA COMPOSITOR MANOEL EUZEBIO      ACARI       21531302RIO DE JANEIRO RJUNIAO UMB DOS CULTOS AFRO BRAS    28021910 000006
10231987175000168817800093673    000039564                    000395640000000000000109                     I0139564     18011900000000400003410000017N140119104700000000000101801190000000000000000000000000000000000000000100059413573700LUIZ ANTONIO CARDOSO ARAUJO             RUA SAMUEL DAS NEVES                    PECHINCHA   22770110RIO DE JANEIRO RJUNIAO UMB DOS CULTOS AFRO BRAS    18011910 000007
10231987175000168817800093673    000039563                    000395630000000000000109                     I0139563     18011900000000105003410000017N140119104700000000000101801190000000000000000000000000000000000000000100075745658720ELIZIETE COIMBRA DE FRANCA              RUA SAO JOAO                            SANTA RITA  26050630NOVA IGUACU    RJUNIAO UMB DOS CULTOS AFRO BRAS    18011910 000008
10231987175000168817800093673    000039562                    000395620000000000000109                     I0139562     30011900000000140003410000017N140119104700000000000103001190000000000000000000000000000000000000000100067350232772CARLOS ALBERTO CARVALHO PIRES           RUA MARECHAL HASTINFILO DE MOURA        CAMPO GRANDE23082260RIO DE JANEIRO RJUNIAO UMB DOS CULTOS AFRO BRAS    30011910 000009
10231987175000168817800093673    000039561                    000395610000000000000109                     I0139561     25011900000000600003410000017N140119104700000000000102501190000000000000000000000000000000000000000100080275664287RENATO RODRIGO SILVA BENTES             RUA JOAO TOCANTINS PENA                 MARACAJA (MO66911040BELEM          PAUNIAO UMB DOS CULTOS AFRO BRAS    25011910 000010
10231987175000168817800093673    000039560                    000395600000000000000109                     I0139560     31011900000000350003410000017N140119104700000000000103101190000000000000000000000000000000000000000100053470095787OSVALDO VALENTE COELHO FILHO            RUA VISCONDE DE SABOIA                  CAVALCANTI  21370220RIO DE JANEIRO RJUNIAO UMB DOS CULTOS AFRO BRAS    31011910 000011
10231987175000168817800093673    000039559                    000395590000000000000109                     I0139559     18011900000000140003410000017N140119104700000000000101801190000000000000000000000000000000000000000100003250570796VERONICA LUCIA DA CRUZ                  ESTRADA DOUTOR FARRULA                  SAO FRANCISC26125400BELFORD ROXO   RJUNIAO UMB DOS CULTOS AFRO BRAS    18011910 000012
10231987175000168817800093673    000039558                    000395580000000000000109                     I0139558     18011900000000350003410000017N140119104700000000000101801190000000000000000000000000000000000000000100097431613768SIMONE DE FIGUEIREDO GOMES AZI          RUA SANTA LUZ                           VISTA ALEGRE00000000RIO DE JANEIRO RJUNIAO UMB DOS CULTOS AFRO BRAS    18011910 000013
10231987175000168817800093673    000039557                    000395570000000000000109                     I0239557     16011900000000035003410000017N110119104700000000000101601190000000000000000000000000000000000000000100002134169729ALEXANDRE DE ALMEIDA                    RUA SERITINGA                           BRAS DE PINA21215480RIO DE JANEIRO RJUNIAO UMB DOS CULTOS AFRO BRAS    16011910 000014
10231987175000168817800093673    000039192                    000391920000000000000109                     I0239192     30031900000000040003410000017N261218104700000000000103003190000000000000000000000000000000000000000100010718180747JOSE CARLOS MELO DA SILVA               RUA DEPUTADO SA REGO                    VILA SAO LUI25065030DUQUE DE CAXIASRJUNIAO UMB DOS CULTOS AFRO BRAS    30031910 000015
10231987175000168817800093673    000039184                    000391840000000000000109                     I0239184     30031900000000040003410000017N261218104700000000000103003190000000000000000000000000000000000000000100004278587716LUCIANO GONCALVES PIRES                 RUA MARECHAL ANTONIO DE SOUSA           JARDIM AMERI21240430RIO DE JANEIRO RJUNIAO UMB DOS CULTOS AFRO BRAS    30031910 000016
10231987175000168817800093673    000039092                    000390920000000000000109                     I0239092     30031900000000040003410000017N261218104700000000000103003190000000000000000000000000000000000000000100002830675789VIVIANE MORAES ALEXANDRINO              RUA JOAQUIM MOREIRA                     SEPETIBA    23545054RIO DE JANEIRO RJUNIAO UMB DOS CULTOS AFRO BRAS    30031910 000017
10231987175000168817800093673    000037733                    000377330000000000000109                     I0237733     30031900000000040003410000017N261218104700000000000103003190000000000000000000000000000000000000000100050470809787MARIA LUIZA OLIVEIRA MAGALHAES          RUA: ARAUANA                            NOVO ELDORAD26150350RIO DE JANEIRO RJUNIAO UMB DOS CULTOS AFRO BRAS    30031910 000018
10231987175000168817800093673    000037273                    000372730000000000000109                     I0237273     28021900000000040003410000017N261218104700000000000102802190000000000000000000000000000000000000000100010718180747JOSE CARLOS MELO DA SILVA               RUA DEPUTADO SA REGO                    VILA SAO LUI25065030DUQUE DE CAXIASRJUNIAO UMB DOS CULTOS AFRO BRAS    28021910 000019
10231987175000168817800093673    000037265                    000372650000000000000109                     I0237265     28021900000000040003410000017N261218104700000000000102802190000000000000000000000000000000000000000100004278587716LUCIANO GONCALVES PIRES                 RUA MARECHAL ANTONIO DE SOUSA           JARDIM AMERI21240430RIO DE JANEIRO RJUNIAO UMB DOS CULTOS AFRO BRAS    28021910 000020
10231987175000168817800093673    000037173                    000371730000000000000109                     I0237173     28021900000000040003410000017N261218104700000000000102802190000000000000000000000000000000000000000100002830675789VIVIANE MORAES ALEXANDRINO              RUA JOAQUIM MOREIRA                     SEPETIBA    23545054RIO DE JANEIRO RJUNIAO UMB DOS CULTOS AFRO BRAS    28021910 000021
10231987175000168817800093673    000035820                    000358200000000000000109                     I0235820     28021900000000040003410000017N261218104700000000000102802190000000000000000000000000000000000000000100050470809787MARIA LUIZA OLIVEIRA MAGALHAES          RUA: ARAUANA                            NOVO ELDORAD26150350RIO DE JANEIRO RJUNIAO UMB DOS CULTOS AFRO BRAS    28021910 000022
10231987175000168817800093673    000035360                    000353600000000000000109                     I0235360     31011900000000040003410000017N261218104700000000000103101190000000000000000000000000000000000000000100010718180747JOSE CARLOS MELO DA SILVA               RUA DEPUTADO SA REGO                    VILA SAO LUI25065030DUQUE DE CAXIASRJUNIAO UMB DOS CULTOS AFRO BRAS    31011910 000023
10231987175000168817800093673    000035352                    000353520000000000000109                     I0235352     31011900000000040003410000017N261218104700000000000103101190000000000000000000000000000000000000000100004278587716LUCIANO GONCALVES PIRES                 RUA MARECHAL ANTONIO DE SOUSA           JARDIM AMERI21240430RIO DE JANEIRO RJUNIAO UMB DOS CULTOS AFRO BRAS    31011910 000024
10231987175000168817800093673    000035262                    000352620000000000000109                     I0235262     31011900000000040003410000017N261218104700000000000103101190000000000000000000000000000000000000000100002830675789VIVIANE MORAES ALEXANDRINO              RUA JOAQUIM MOREIRA                     SEPETIBA    23545054RIO DE JANEIRO RJUNIAO UMB DOS CULTOS AFRO BRAS    31011910 000025
10231987175000168817800093673    000034760                    000347600000000000000109                     I0234760     31011900000000040003410000017N261218104700000000000103101190000000000000000000000000000000000000000100007151714700VERONICA CONCEICAO DE SOUZA AN          RUA: CATANDUVA                          RUA: CATANDU21545420RIO DE JANEIRO RJUNIAO UMB DOS CULTOS AFRO BRAS    31011910 000026
10231987175000168817800093673    000033917                    000339170000000000000109                     I0233917     31011900000000040003410000017N261218104700000000000103101190000000000000000000000000000000000000000100050470809787MARIA LUIZA OLIVEIRA MAGALHAES          RUA: ARAUANA                            NOVO ELDORAD26150350RIO DE JANEIRO RJUNIAO UMB DOS CULTOS AFRO BRAS    31011910 000027
10231987175000168817800093673    000033511                    000335110000000000000109                     I0233511     07121800000000035003410000017N031218104700000000000100712180000000000000000000000000000000000000000100004278587716LUCIANO GONCALVES PIRES                 RUA MARECHAL ANTONIO DE SOUSA           JARDIM AMERI21240430RIO DE JANEIRO RJUNIAO UMB DOS CULTOS AFRO BRAS    07121810 000028
10231987175000168817800093673    000033245                    000332450000000000000109                     I0233245     20121800000000350003410000017N291018104700000000000102012180000000000000000000000000000000000000000100001786216760WASHINGTON FERNANDO DA CONCEIC          RUA DONA ELVIRA                         NOVO HORIZON25937112MAGE           RJUNIAO UMB DOS CULTOS AFRO BRAS    20121810 000029
10231987175000168817800093673    000033122                    000331220000000000000109                     I0233122     20121800000000350003410000017N291018104700000000000102012180000000000000000000000000000000000000000100004278587716LUCIANO GONCALVES PIRES                 RUA MARECHAL ANTONIO DE SOUSA           JARDIM AMERI21240430RIO DE JANEIRO RJUNIAO UMB DOS CULTOS AFRO BRAS    20121810 000030
10231987175000168817800093673    000032959                    000329590000000000000109                     I0232959     20121800000000350003410000017N291018104700000000000102012180000000000000000000000000000000000000000100002830675789VIVIANE MORAES ALEXANDRINO              RUA JOAQUIM MOREIRA                     SEPETIBA    23545054RIO DE JANEIRO RJUNIAO UMB DOS CULTOS AFRO BRAS    20121810 000031
10231987175000168817800093673    000032903                    000329030000000000000109                     I0232903     20121800000000350003410000017N291018104700000000000102012180000000000000000000000000000000000000000100053470095787OSVALDO VALENTE COELHO FILHO            RUA VISCONDE DE SABOIA                  CAVALCANTI  21370220RIO DE JANEIRO RJUNIAO UMB DOS CULTOS AFRO BRAS    20121810 000032
10231987175000168817800093673    000032478                    000324780000000000000109                     I0232478     20121800000000350003410000017N291018104700000000000102012180000000000000000000000000000000000000000100013222358729AMANDA PAULA TORRES DE SOUZA            RUA JOAO VICENTE                        MADUREIRA   21340020RIO DE JANEIRO RJUNIAO UMB DOS CULTOS AFRO BRAS    20121810 000033
10231987175000168817800093673    000032214                    000322140000000000000109                     I0232214     20121800000000350003410000017N291018104700000000000102012180000000000000000000000000000000000000000100007151714700VERONICA CONCEICAO DE SOUZA AN          RUA: CATANDUVA                          RUA: CATANDU21545420RIO DE JANEIRO RJUNIAO UMB DOS CULTOS AFRO BRAS    20121810 000034
10231987175000168817800093673    000032185                    000321850000000000000109                     I0232185     20121800000000350003410000017N291018104700000000000102012180000000000000000000000000000000000000000100097431613768SIMONE DE FIGUEIREDO GOMES AZI          RUA SANTA LUZ                           VISTA ALEGRE00000000RIO DE JANEIRO RJUNIAO UMB DOS CULTOS AFRO BRAS    20121810 000035
10231987175000168817800093673    000031759                    000317590000000000000109                     I0231759     20121800000000350003410000017N291018104700000000000102012180000000000000000000000000000000000000000100002096604737GISELLE BRAGA TORRES DE SOUZA           RUA JOAO VICENTE                        MADUREIRA   00000000RIO DE JANEIRO RJUNIAO UMB DOS CULTOS AFRO BRAS    20121810 000036
10231987175000168817800093673    000031401                    000314010000000000000109                     I0231401     20121800000000350003410000017N291018104700000000000102012180000000000000000000000000000000000000000100059413573700LUIZ ANTONIO CARDOSO ARAUJO             RUA SAMUEL DAS NEVES                    PECHINCHA   22770110RIO DE JANEIRO RJUNIAO UMB DOS CULTOS AFRO BRAS    20121810 000037
10231987175000168817800093673    000031145                    000311450000000000000109                     I0231145     20121800000000350003410000017N291018104700000000000102012180000000000000000000000000000000000000000100002878076737TANIA NACARI AIRES GALVAO               ESTRADA DO DENDE                        DENDE - ILHA21920000RIO DE JANEIRO RJUNIAO UMB DOS CULTOS AFRO BRAS    20121810 000038
10231987175000168817800093673    000030882                    000308820000000000000109                     I0230882     20121800000000350003410000017N291018104700000000000102012180000000000000000000000000000000000000000100050470809787MARIA LUIZA OLIVEIRA MAGALHAES          RUA: ARAUANA                            NOVO ELDORAD26150350RIO DE JANEIRO RJUNIAO UMB DOS CULTOS AFRO BRAS    20121810 000039
10231987175000168817800093673    000030621                    000306210000000000000109                     I0230621     20121800000000350003410000017N291018104700000000000102012180000000000000000000000000000000000000000100054571715749VILMA OLIVEIRA DOS SANTOS               RUA CORREIA DIAS                        VIGARIO GERA21241310RIO DE JANEIRO RJUNIAO UMB DOS CULTOS AFRO BRAS    20121810 000040
10231987175000168817800093673    000030252                    000302520000000000000109                     I0230252     20121800000000035003410000017N291018104700000000000102012180000000000000000000000000000000000000000100004278587716LUCIANO GONCALVES PIRES                 RUA MARECHAL ANTONIO DE SOUSA           JARDIM AMERI21240430RIO DE JANEIRO RJUNIAO UMB DOS CULTOS AFRO BRAS    20121810 000041
10231987175000168817800093673    000030152                    000301520000000000000109                     I0230152     20121800000000035003410000017N291018104700000000000102012180000000000000000000000000000000000000000100002830675789VIVIANE MORAES ALEXANDRINO              RUA JOAQUIM MOREIRA                     SEPETIBA    23545054RIO DE JANEIRO RJUNIAO UMB DOS CULTOS AFRO BRAS    20121810 000042
10231987175000168817800093673    000029917                    000299170000000000000109                     I0229917     20121800000000035003410000017N291018104700000000000102012180000000000000000000000000000000000000000100067350232772CARLOS ALBERTO CARVALHO PIRES           RUA MARECHAL HASTINFILO DE MOURA        CAMPO GRANDE23082260RIO DE JANEIRO RJUNIAO UMB DOS CULTOS AFRO BRAS    20121810 000043
10231987175000168817800093673    000029881                    000298810000000000000109                     I0229881     20121800000000035003410000017N291018104700000000000102012180000000000000000000000000000000000000000100013222358729AMANDA PAULA TORRES DE SOUZA            RUA JOAO VICENTE                        MADUREIRA   21340020RIO DE JANEIRO RJUNIAO UMB DOS CULTOS AFRO BRAS    20121810 000044
10231987175000168817800093673    000029554                    000295540000000000000109                     I0229554     20121800000000035003410000017N291018104700000000000102012180000000000000000000000000000000000000000100002096604737GISELLE BRAGA TORRES DE SOUZA           RUA JOAO VICENTE                        MADUREIRA   00000000RIO DE JANEIRO RJUNIAO UMB DOS CULTOS AFRO BRAS    20121810 000045
10231987175000168817800093673    000029303                    000293030000000000000109                     I0229303     20121800000000035003410000017N291018104700000000000102012180000000000000000000000000000000000000000100002878076737TANIA NACARI AIRES GALVAO               ESTRADA DO DENDE                        DENDE - ILHA21920000RIO DE JANEIRO RJUNIAO UMB DOS CULTOS AFRO BRAS    20121810 000046
10231987175000168817800093673    000029082                    000290820000000000000109                     I0229082     20121800000000035003410000017N291018104700000000000102012180000000000000000000000000000000000000000100054571715749VILMA OLIVEIRA DOS SANTOS               RUA CORREIA DIAS                        VIGARIO GERA21241310RIO DE JANEIRO RJUNIAO UMB DOS CULTOS AFRO BRAS    20121810 000047
10231987175000168817800093673    000028260                    000282600000000000000109                     I0228260     30111800000000035003410000017N200818104700000000000103011180000000000000000000000000000000000000000100002830675789VIVIANE MORAES ALEXANDRINO              RUA JOAQUIM MOREIRA                     SEPETIBA    23545054RIO DE JANEIRO RJUNIAO UMB DOS CULTOS AFRO BRAS    30111810 000048
10231987175000168817800093673    000028247                    000282470000000000000109                     I0228247     30111800000000035003410000017N200818104700000000000103011180000000000000000000000000000000000000000100009946366797SIMONE SOARES NEA                       RUA FLAVIO RANGEL                       CAMPO GRANDE23085430RIO DE JANEIRO RJUNIAO UMB DOS CULTOS AFRO BRAS    30111810 000049
10231987175000168817800093673    000028008                    000280080000000000000109                     I0228008     30111800000000035003410000017N200818104700000000000103011180000000000000000000000000000000000000000100067350232772CARLOS ALBERTO CARVALHO PIRES           RUA MARECHAL HASTINFILO DE MOURA        CAMPO GRANDE23082260RIO DE JANEIRO RJUNIAO UMB DOS CULTOS AFRO BRAS    30111810 000050
10231987175000168817800093673    000027972                    000279720000000000000109                     I0227972     30111800000000035003410000017N200818104700000000000103011180000000000000000000000000000000000000000100013222358729AMANDA PAULA TORRES DE SOUZA            RUA JOAO VICENTE                        MADUREIRA   21340020RIO DE JANEIRO RJUNIAO UMB DOS CULTOS AFRO BRAS    30111810 000051
10231987175000168817800093673    000027630                    000276300000000000000109                     I0227630     30111800000000035003410000017N200818104700000000000103011180000000000000000000000000000000000000000100002096604737GISELLE BRAGA TORRES DE SOUZA           RUA JOAO VICENTE                        MADUREIRA   00000000RIO DE JANEIRO RJUNIAO UMB DOS CULTOS AFRO BRAS    30111810 000052
10231987175000168817800093673    000027377                    000273770000000000000109                     I0227377     30111800000000035003410000017N200818104700000000000103011180000000000000000000000000000000000000000100002878076737TANIA NACARI AIRES GALVAO               ESTRADA DO DENDE                        DENDE - ILHA21920000RIO DE JANEIRO RJUNIAO UMB DOS CULTOS AFRO BRAS    30111810 000053
10231987175000168817800093673    000027143                    000271430000000000000109                     I0227143     30111800000000035003410000017N200818104700000000000103011180000000000000000000000000000000000000000100054571715749VILMA OLIVEIRA DOS SANTOS               RUA CORREIA DIAS                        VIGARIO GERA21241310RIO DE JANEIRO RJUNIAO UMB DOS CULTOS AFRO BRAS    30111810 000054
9                                                                                                                                                                                                                                                                                                                                                                                                         000055
