01REMESSA01COBRANCA       916200163100        União Umb dos Cultos Afro Bra341BANCO ITAU SA  100519                                                                                                                                                                                                                                                                                                      000001
10231987175000168916200163100    000045263                    000452630000000000000109                     I0145263     30061900000000250003410000017N100519105700000000000103006190000000000000000000000000000000000000000100002575759790TERESA QUITA                            RUA PRIMEIRO DE MAION 2786,  GLEBA B    CHAPERO     23831350ITAGUAI        RJUNIAO UMB DOS CULTOS AFRO BRAS    30061915 000002
10231987175000168916200163100    000045262                    000452620000000000000109                     I0145262     31051900000000250003410000017N100519105700000000000103105190000000000000000000000000000000000000000100002575759790TERESA QUITA                            RUA PRIMEIRO DE MAION 2786,  GLEBA B    CHAPERO     23831350ITAGUAI        RJUNIAO UMB DOS CULTOS AFRO BRAS    31051915 000003
10231987175000168916200163100    000045261                    000452610000000000000109                     I0145261     30061900000000040003410000017N100519105700000000000103006190000000000000000000000000000000000000000100097115606749VALTER ANTONIO RAMOS SILVA              RUA ASSUNCAON 0, LOTE 9 QUADRA 115      VILAR DOS TE25561410SAO JOAO DE MERRJUNIAO UMB DOS CULTOS AFRO BRAS    30061915 000004
10231987175000168916200163100    000045260                    000452600000000000000109                     I0145260     05061900000000400003410000017N100519105700000000000100506190000000000000000000000000000000000000000100008304731495JOSE CARLOS FERREIRA BARROS SA          RUA JOSE PILOTON 0,                     CENTRO      15420000GUARACI        SPUNIAO UMB DOS CULTOS AFRO BRAS    05061915 000005
10231987175000168916200163100    000045259                    000452590000000000000109                     I0245259     05061900000000000003410000017N100519105700000000000100506190000000000000000000000000000000000000000100008304731495JOSE CARLOS FERREIRA BARROS SA          RUA JOSE PILOTON 0,                     CENTRO      15420000GUARACI        SPUNIAO UMB DOS CULTOS AFRO BRAS    05061915 000006
10231987175000168916200163100    000043891                    000438910000000000000109                     I0243891     30061900000000040003410000017N130319105700000000000103006190000000000000000000000000000000000000000100009285591736EDUARDO MARCOS DOS SANTOS CARV          RUA FERNANDES DA CUNHAN 906, CASA 3     VIGARIO GERA21241300RIO DE JANEIRO RJUNIAO UMB DOS CULTOS AFRO BRAS    30061915 000007
10231987175000168916200163100    000043756                    000437560000000000000109                     I0243756     30061900000000040003410000017N130319105700000000000103006190000000000000000000000000000000000000000100004746270716ANTONIO CARLOS FERNANDES                RUA FRANCISCO DE CASTRO N 9, CASA 1     SANTA TERESA20241300RIO DE JANEIRO RJUNIAO UMB DOS CULTOS AFRO BRAS    30061915 000008
10231987175000168916200163100    000043703                    000437030000000000000109                     I0243703     30061900000000040003410000017N130319105700000000000103006190000000000000000000000000000000000000000100093719744787SERGIO PEREIRA FRAGA                    RUA JURUBAIBAN 163, FUNDOS              HONORIO GURG21555170RIO DE JANEIRO RJUNIAO UMB DOS CULTOS AFRO BRAS    30061915 000009
10231987175000168916200163100    000043530                    000435300000000000000109                     I0243530     30061900000000040003410000017N130319105700000000000103006190000000000000000000000000000000000000000100000675108764MARIA CRISTINA SANTOS GENEROSO          RUA APODIN 0, LOTE 4 QUADRA 47          SAO JOSE    26187300BELFORD ROXO   RJUNIAO UMB DOS CULTOS AFRO BRAS    30061915 000010
10231987175000168916200163100    000043006                    000430060000000000000109                     I0243006     30051900000000040003410000017N130319105700000000000103005190000000000000000000000000000000000000000100003654035710ELLEN CRISTINA DE ORNELAS NARC          RUA MARECHAL MARCIANO N 648,            REALENGO    21721011RIO DE JANEIRO RJUNIAO UMB DOS CULTOS AFRO BRAS    30051915 000011
10231987175000168916200163100    000042246                    000422460000000000000109                     I0242246     30051900000000040003410000017N130319105700000000000103005190000000000000000000000000000000000000000100009285591736EDUARDO MARCOS DOS SANTOS CARV          RUA FERNANDES DA CUNHAN 906, CASA 3     VIGARIO GERA21241300RIO DE JANEIRO RJUNIAO UMB DOS CULTOS AFRO BRAS    30051915 000012
10231987175000168916200163100    000042112                    000421120000000000000109                     I0242112     30051900000000040003410000017N130319105700000000000103005190000000000000000000000000000000000000000100004746270716ANTONIO CARLOS FERNANDES                RUA FRANCISCO DE CASTRO N 9, CASA 1     SANTA TERESA20241300RIO DE JANEIRO RJUNIAO UMB DOS CULTOS AFRO BRAS    30051915 000013
10231987175000168916200163100    000042059                    000420590000000000000109                     I0242059     30051900000000040003410000017N130319105700000000000103005190000000000000000000000000000000000000000100093719744787SERGIO PEREIRA FRAGA                    RUA JURUBAIBAN 163, FUNDOS              HONORIO GURG21555170RIO DE JANEIRO RJUNIAO UMB DOS CULTOS AFRO BRAS    30051915 000014
10231987175000168916200163100    000041886                    000418860000000000000109                     I0241886     30051900000000040003410000017N130319105700000000000103005190000000000000000000000000000000000000000100000675108764MARIA CRISTINA SANTOS GENEROSO          RUA APODIN 0, LOTE 4 QUADRA 47          SAO JOSE    26187300BELFORD ROXO   RJUNIAO UMB DOS CULTOS AFRO BRAS    30051915 000015
10231987175000168916200163100    000041843                    000418430000000000000109                     I0241843     30051900000000040003410000017N130319105700000000000103005190000000000000000000000000000000000000000100058924477749MARIA DAS GRACAS AZEVEDO RIBEI          RUA ABIGAIL GUIMARAESN 35, BLOCO B2 AP 3VILA ZULMIRA25540070SAO JOAO DE MERRJUNIAO UMB DOS CULTOS AFRO BRAS    30051915 000016
10231987175000168916200163100    000041363                    000413630000000000000109                     I0241363     30041900000000040003410000017N120319105700000000000103004190000000000000000000000000000000000000000100003654035710ELLEN CRISTINA DE ORNELAS NARC          RUA MARECHAL MARCIANO N 648,            REALENGO    21721011RIO DE JANEIRO RJUNIAO UMB DOS CULTOS AFRO BRAS    30041915 000017
10231987175000168916200163100    000040609                    000406090000000000000109                     I0240609     30041900000000040003410000017N120319105700000000000103004190000000000000000000000000000000000000000100009285591736EDUARDO MARCOS DOS SANTOS CARV          RUA FERNANDES DA CUNHAN 906, CASA 3     VIGARIO GERA21241300RIO DE JANEIRO RJUNIAO UMB DOS CULTOS AFRO BRAS    30041915 000018
10231987175000168916200163100    000040501                    000405010000000000000109                     I0240501     30041900000000040003410000017N120319105700000000000103004190000000000000000000000000000000000000000100087868172720ADHEMAR ACHILLES AVILLA JUNIOR          RUA PADRE GILN 20,                      PARQUE BONEV25907096MAGE           RJUNIAO UMB DOS CULTOS AFRO BRAS    30041915 000019
10231987175000168916200163100    000040478                    000404780000000000000109                     I0240478     30041900000000040003410000017N120319105700000000000103004190000000000000000000000000000000000000000100004746270716ANTONIO CARLOS FERNANDES                RUA FRANCISCO DE CASTRO N 9, CASA 1     SANTA TERESA20241300RIO DE JANEIRO RJUNIAO UMB DOS CULTOS AFRO BRAS    30041915 000020
10231987175000168916200163100    000040425                    000404250000000000000109                     I0240425     30041900000000040003410000017N120319105700000000000103004190000000000000000000000000000000000000000100093719744787SERGIO PEREIRA FRAGA                    RUA JURUBAIBAN 163, FUNDOS              HONORIO GURG21555170RIO DE JANEIRO RJUNIAO UMB DOS CULTOS AFRO BRAS    30041915 000021
10231987175000168916200163100    000040253                    000402530000000000000109                     I0240253     30041900000000040003410000017N120319105700000000000103004190000000000000000000000000000000000000000100000675108764MARIA CRISTINA SANTOS GENEROSO          RUA APODIN 0, LOTE 4 QUADRA 47          SAO JOSE    26187300BELFORD ROXO   RJUNIAO UMB DOS CULTOS AFRO BRAS    30041915 000022
10231987175000168916200163100    000039936                    000399360000000000000109                     I0239936     30041900000000040003410000017N120319105700000000000103004190000000000000000000000000000000000000000100004125947732FABIO DA FONSECA PAES                   RUA JOAQUIM COUTON 145,                 VILA JURANDI25540370SAO JOAO DE MERRJUNIAO UMB DOS CULTOS AFRO BRAS    30041915 000023
9                                                                                                                                                                                                                                                                                                                                                                                                         000024
